{
	"contracts/modules/SponsorMatrix.sol": {
		"Nanakshahi": {
			"abi": [
				{
					"inputs": [
						{
							"internalType": "address",
							"name": "_usdt",
							"type": "address"
						},
						{
							"internalType": "address",
							"name": "_creatorWallet",
							"type": "address"
						},
						{
							"internalType": "address",
							"name": "_systemMaintance",
							"type": "address"
						},
						{
							"internalType": "address",
							"name": "_teamDevelopment",
							"type": "address"
						}
					],
					"stateMutability": "nonpayable",
					"type": "constructor"
				},
				{
					"anonymous": false,
					"inputs": [
						{
							"indexed": false,
							"internalType": "uint256",
							"name": "amount",
							"type": "uint256"
						},
						{
							"indexed": false,
							"internalType": "uint256",
							"name": "usersCount",
							"type": "uint256"
						},
						{
							"indexed": false,
							"internalType": "uint256",
							"name": "perUser",
							"type": "uint256"
						}
					],
					"name": "CommunityBonusDistributed",
					"type": "event"
				},
				{
					"anonymous": false,
					"inputs": [
						{
							"indexed": true,
							"internalType": "address",
							"name": "to",
							"type": "address"
						},
						{
							"indexed": true,
							"internalType": "address",
							"name": "from",
							"type": "address"
						},
						{
							"indexed": false,
							"internalType": "uint256",
							"name": "amount",
							"type": "uint256"
						},
						{
							"indexed": false,
							"internalType": "uint256",
							"name": "packageLevel",
							"type": "uint256"
						},
						{
							"indexed": false,
							"internalType": "uint256",
							"name": "incomeType",
							"type": "uint256"
						}
					],
					"name": "IncomeDistributed",
					"type": "event"
				},
				{
					"anonymous": false,
					"inputs": [
						{
							"indexed": true,
							"internalType": "address",
							"name": "winner",
							"type": "address"
						},
						{
							"indexed": true,
							"internalType": "uint256",
							"name": "fromUserId",
							"type": "uint256"
						},
						{
							"indexed": false,
							"internalType": "uint256",
							"name": "amount",
							"type": "uint256"
						},
						{
							"indexed": false,
							"internalType": "uint256",
							"name": "timestamp",
							"type": "uint256"
						}
					],
					"name": "LotteryReward",
					"type": "event"
				},
				{
					"anonymous": false,
					"inputs": [
						{
							"indexed": true,
							"internalType": "address",
							"name": "user",
							"type": "address"
						},
						{
							"indexed": true,
							"internalType": "address",
							"name": "sponsor",
							"type": "address"
						},
						{
							"indexed": true,
							"internalType": "uint256",
							"name": "userId",
							"type": "uint256"
						},
						{
							"indexed": false,
							"internalType": "uint256",
							"name": "uplineId",
							"type": "uint256"
						}
					],
					"name": "Registration",
					"type": "event"
				},
				{
					"anonymous": false,
					"inputs": [
						{
							"indexed": true,
							"internalType": "address",
							"name": "to",
							"type": "address"
						},
						{
							"indexed": false,
							"internalType": "uint256",
							"name": "amount",
							"type": "uint256"
						},
						{
							"indexed": false,
							"internalType": "string",
							"name": "level",
							"type": "string"
						}
					],
					"name": "RewardSent",
					"type": "event"
				},
				{
					"anonymous": false,
					"inputs": [
						{
							"indexed": true,
							"internalType": "address",
							"name": "user",
							"type": "address"
						},
						{
							"indexed": true,
							"internalType": "uint256",
							"name": "userId",
							"type": "uint256"
						},
						{
							"indexed": false,
							"internalType": "uint256",
							"name": "packageLevel",
							"type": "uint256"
						},
						{
							"indexed": false,
							"internalType": "string",
							"name": "depositType",
							"type": "string"
						}
					],
					"name": "Upgrade",
					"type": "event"
				},
				{
					"anonymous": false,
					"inputs": [
						{
							"indexed": true,
							"internalType": "uint8",
							"name": "matrixId",
							"type": "uint8"
						},
						{
							"indexed": true,
							"internalType": "uint32",
							"name": "userId",
							"type": "uint32"
						},
						{
							"indexed": true,
							"internalType": "address",
							"name": "user",
							"type": "address"
						},
						{
							"indexed": false,
							"internalType": "uint32",
							"name": "parentId",
							"type": "uint32"
						},
						{
							"indexed": false,
							"internalType": "address",
							"name": "parentAddr",
							"type": "address"
						},
						{
							"indexed": false,
							"internalType": "uint8",
							"name": "position",
							"type": "uint8"
						}
					],
					"name": "UserJoined",
					"type": "event"
				},
				{
					"inputs": [],
					"name": "ACC_PRECISION",
					"outputs": [
						{
							"internalType": "uint256",
							"name": "",
							"type": "uint256"
						}
					],
					"stateMutability": "view",
					"type": "function"
				},
				{
					"inputs": [
						{
							"internalType": "uint256",
							"name": "",
							"type": "uint256"
						}
					],
					"name": "GlbBoosterPackages",
					"outputs": [
						{
							"internalType": "uint256",
							"name": "",
							"type": "uint256"
						}
					],
					"stateMutability": "view",
					"type": "function"
				},
				{
					"inputs": [],
					"name": "PERCENTS_DIVIDER",
					"outputs": [
						{
							"internalType": "uint256",
							"name": "",
							"type": "uint256"
						}
					],
					"stateMutability": "view",
					"type": "function"
				},
				{
					"inputs": [],
					"name": "ROI_CAP_DIVIDER",
					"outputs": [
						{
							"internalType": "uint256",
							"name": "",
							"type": "uint256"
						}
					],
					"stateMutability": "view",
					"type": "function"
				},
				{
					"inputs": [],
					"name": "ROI_CAP_MULTIPLIER",
					"outputs": [
						{
							"internalType": "uint256",
							"name": "",
							"type": "uint256"
						}
					],
					"stateMutability": "view",
					"type": "function"
				},
				{
					"inputs": [
						{
							"internalType": "uint32",
							"name": "_userId",
							"type": "uint32"
						},
						{
							"internalType": "uint256",
							"name": "_poolId",
							"type": "uint256"
						}
					],
					"name": "RetopPoolByEarning",
					"outputs": [],
					"stateMutability": "nonpayable",
					"type": "function"
				},
				{
					"inputs": [],
					"name": "TIME_STEP",
					"outputs": [
						{
							"internalType": "uint256",
							"name": "",
							"type": "uint256"
						}
					],
					"stateMutability": "view",
					"type": "function"
				},
				{
					"inputs": [
						{
							"internalType": "address",
							"name": "",
							"type": "address"
						}
					],
					"name": "addressToId",
					"outputs": [
						{
							"internalType": "uint256",
							"name": "",
							"type": "uint256"
						}
					],
					"stateMutability": "view",
					"type": "function"
				},
				{
					"inputs": [
						{
							"internalType": "uint256",
							"name": "",
							"type": "uint256"
						},
						{
							"internalType": "uint256",
							"name": "",
							"type": "uint256"
						}
					],
					"name": "boosterUsers",
					"outputs": [
						{
							"internalType": "uint256",
							"name": "",
							"type": "uint256"
						}
					],
					"stateMutability": "view",
					"type": "function"
				},
				{
					"inputs": [
						{
							"internalType": "uint256",
							"name": "userId",
							"type": "uint256"
						}
					],
					"name": "canBuyNextPool",
					"outputs": [
						{
							"internalType": "bool",
							"name": "eligible",
							"type": "bool"
						},
						{
							"internalType": "string",
							"name": "reason",
							"type": "string"
						}
					],
					"stateMutability": "view",
					"type": "function"
				},
				{
					"inputs": [
						{
							"internalType": "uint256",
							"name": "_userId",
							"type": "uint256"
						}
					],
					"name": "claimCommunity",
					"outputs": [],
					"stateMutability": "nonpayable",
					"type": "function"
				},
				{
					"inputs": [],
					"name": "communityAccPerUser",
					"outputs": [
						{
							"internalType": "uint256",
							"name": "",
							"type": "uint256"
						}
					],
					"stateMutability": "view",
					"type": "function"
				},
				{
					"inputs": [
						{
							"internalType": "uint256",
							"name": "",
							"type": "uint256"
						}
					],
					"name": "communityDebt",
					"outputs": [
						{
							"internalType": "uint256",
							"name": "",
							"type": "uint256"
						}
					],
					"stateMutability": "view",
					"type": "function"
				},
				{
					"inputs": [],
					"name": "creatorWallet",
					"outputs": [
						{
							"internalType": "address",
							"name": "",
							"type": "address"
						}
					],
					"stateMutability": "view",
					"type": "function"
				},
				{
					"inputs": [],
					"name": "defaultRefId",
					"outputs": [
						{
							"internalType": "uint256",
							"name": "",
							"type": "uint256"
						}
					],
					"stateMutability": "view",
					"type": "function"
				},
				{
					"inputs": [
						{
							"internalType": "uint256",
							"name": "",
							"type": "uint256"
						},
						{
							"internalType": "uint256",
							"name": "",
							"type": "uint256"
						}
					],
					"name": "directReferrals",
					"outputs": [
						{
							"internalType": "uint256",
							"name": "",
							"type": "uint256"
						}
					],
					"stateMutability": "view",
					"type": "function"
				},
				{
					"inputs": [
						{
							"internalType": "uint256",
							"name": "",
							"type": "uint256"
						},
						{
							"internalType": "uint256",
							"name": "",
							"type": "uint256"
						}
					],
					"name": "incomeHistory",
					"outputs": [
						{
							"internalType": "uint256",
							"name": "fromUserId",
							"type": "uint256"
						},
						{
							"internalType": "uint256",
							"name": "amount",
							"type": "uint256"
						},
						{
							"internalType": "uint256",
							"name": "packageLevel",
							"type": "uint256"
						},
						{
							"internalType": "uint256",
							"name": "timestamp",
							"type": "uint256"
						},
						{
							"internalType": "uint256",
							"name": "incomeType",
							"type": "uint256"
						}
					],
					"stateMutability": "view",
					"type": "function"
				},
				{
					"inputs": [],
					"name": "lastLotteryRun",
					"outputs": [
						{
							"internalType": "uint256",
							"name": "",
							"type": "uint256"
						}
					],
					"stateMutability": "view",
					"type": "function"
				},
				{
					"inputs": [],
					"name": "lastLotteryWinner",
					"outputs": [
						{
							"internalType": "address",
							"name": "",
							"type": "address"
						}
					],
					"stateMutability": "view",
					"type": "function"
				},
				{
					"inputs": [],
					"name": "lotteryInterval",
					"outputs": [
						{
							"internalType": "uint256",
							"name": "",
							"type": "uint256"
						}
					],
					"stateMutability": "view",
					"type": "function"
				},
				{
					"inputs": [],
					"name": "lotteryPool",
					"outputs": [
						{
							"internalType": "uint256",
							"name": "",
							"type": "uint256"
						}
					],
					"stateMutability": "view",
					"type": "function"
				},
				{
					"inputs": [
						{
							"internalType": "uint256",
							"name": "",
							"type": "uint256"
						}
					],
					"name": "matrixDirect",
					"outputs": [
						{
							"internalType": "uint256",
							"name": "",
							"type": "uint256"
						}
					],
					"stateMutability": "view",
					"type": "function"
				},
				{
					"inputs": [
						{
							"internalType": "uint256",
							"name": "",
							"type": "uint256"
						}
					],
					"name": "minLevelForGlbBooster",
					"outputs": [
						{
							"internalType": "uint256",
							"name": "",
							"type": "uint256"
						}
					],
					"stateMutability": "view",
					"type": "function"
				},
				{
					"inputs": [
						{
							"internalType": "uint256",
							"name": "",
							"type": "uint256"
						}
					],
					"name": "minLevelForPool",
					"outputs": [
						{
							"internalType": "uint256",
							"name": "",
							"type": "uint256"
						}
					],
					"stateMutability": "view",
					"type": "function"
				},
				{
					"inputs": [
						{
							"internalType": "uint256",
							"name": "",
							"type": "uint256"
						}
					],
					"name": "minPoolForGlbBooster",
					"outputs": [
						{
							"internalType": "uint256",
							"name": "",
							"type": "uint256"
						}
					],
					"stateMutability": "view",
					"type": "function"
				},
				{
					"inputs": [],
					"name": "owner",
					"outputs": [
						{
							"internalType": "address",
							"name": "",
							"type": "address"
						}
					],
					"stateMutability": "view",
					"type": "function"
				},
				{
					"inputs": [
						{
							"internalType": "uint256",
							"name": "",
							"type": "uint256"
						}
					],
					"name": "packages",
					"outputs": [
						{
							"internalType": "uint256",
							"name": "",
							"type": "uint256"
						}
					],
					"stateMutability": "view",
					"type": "function"
				},
				{
					"inputs": [
						{
							"internalType": "uint256",
							"name": "_userId",
							"type": "uint256"
						}
					],
					"name": "pendingCommunity",
					"outputs": [
						{
							"internalType": "uint256",
							"name": "pendingGross",
							"type": "uint256"
						},
						{
							"internalType": "uint256",
							"name": "pendingAfterCap",
							"type": "uint256"
						}
					],
					"stateMutability": "view",
					"type": "function"
				},
				{
					"inputs": [
						{
							"internalType": "uint256",
							"name": "",
							"type": "uint256"
						}
					],
					"name": "poolPackages",
					"outputs": [
						{
							"internalType": "uint256",
							"name": "",
							"type": "uint256"
						}
					],
					"stateMutability": "view",
					"type": "function"
				},
				{
					"inputs": [
						{
							"internalType": "uint256",
							"name": "",
							"type": "uint256"
						},
						{
							"internalType": "uint256",
							"name": "",
							"type": "uint256"
						}
					],
					"name": "poolUsers",
					"outputs": [
						{
							"internalType": "uint256",
							"name": "",
							"type": "uint256"
						}
					],
					"stateMutability": "view",
					"type": "function"
				},
				{
					"inputs": [
						{
							"internalType": "uint256",
							"name": "_sponsorId",
							"type": "uint256"
						}
					],
					"name": "register",
					"outputs": [],
					"stateMutability": "nonpayable",
					"type": "function"
				},
				{
					"inputs": [
						{
							"internalType": "uint256",
							"name": "",
							"type": "uint256"
						}
					],
					"name": "registeredUserIds",
					"outputs": [
						{
							"internalType": "uint256",
							"name": "",
							"type": "uint256"
						}
					],
					"stateMutability": "view",
					"type": "function"
				},
				{
					"inputs": [],
					"name": "systemMaintance",
					"outputs": [
						{
							"internalType": "address",
							"name": "",
							"type": "address"
						}
					],
					"stateMutability": "view",
					"type": "function"
				},
				{
					"inputs": [],
					"name": "teamDevelopment",
					"outputs": [
						{
							"internalType": "address",
							"name": "",
							"type": "address"
						}
					],
					"stateMutability": "view",
					"type": "function"
				},
				{
					"inputs": [
						{
							"internalType": "uint256",
							"name": "",
							"type": "uint256"
						},
						{
							"internalType": "uint256",
							"name": "",
							"type": "uint256"
						},
						{
							"internalType": "uint256",
							"name": "",
							"type": "uint256"
						}
					],
					"name": "teams",
					"outputs": [
						{
							"internalType": "uint256",
							"name": "",
							"type": "uint256"
						}
					],
					"stateMutability": "view",
					"type": "function"
				},
				{
					"inputs": [],
					"name": "totalUsers",
					"outputs": [
						{
							"internalType": "uint256",
							"name": "",
							"type": "uint256"
						}
					],
					"stateMutability": "view",
					"type": "function"
				},
				{
					"inputs": [
						{
							"internalType": "uint256",
							"name": "_userId",
							"type": "uint256"
						}
					],
					"name": "upgrade",
					"outputs": [],
					"stateMutability": "nonpayable",
					"type": "function"
				},
				{
					"inputs": [
						{
							"internalType": "uint256",
							"name": "_userId",
							"type": "uint256"
						}
					],
					"name": "upgradeBooster",
					"outputs": [],
					"stateMutability": "nonpayable",
					"type": "function"
				},
				{
					"inputs": [
						{
							"internalType": "uint256",
							"name": "_userId",
							"type": "uint256"
						}
					],
					"name": "upgradePool",
					"outputs": [],
					"stateMutability": "nonpayable",
					"type": "function"
				},
				{
					"inputs": [
						{
							"internalType": "uint32",
							"name": "_userId",
							"type": "uint32"
						},
						{
							"internalType": "uint256",
							"name": "_poolId",
							"type": "uint256"
						}
					],
					"name": "upgradePoolByEarning",
					"outputs": [],
					"stateMutability": "nonpayable",
					"type": "function"
				},
				{
					"inputs": [],
					"name": "usdt",
					"outputs": [
						{
							"internalType": "contract IERC20",
							"name": "",
							"type": "address"
						}
					],
					"stateMutability": "view",
					"type": "function"
				},
				{
					"inputs": [
						{
							"internalType": "uint256",
							"name": "",
							"type": "uint256"
						},
						{
							"internalType": "uint256",
							"name": "",
							"type": "uint256"
						},
						{
							"internalType": "uint256",
							"name": "",
							"type": "uint256"
						}
					],
					"name": "userBoosterChildren",
					"outputs": [
						{
							"internalType": "uint256",
							"name": "",
							"type": "uint256"
						}
					],
					"stateMutability": "view",
					"type": "function"
				},
				{
					"inputs": [
						{
							"internalType": "uint256",
							"name": "",
							"type": "uint256"
						},
						{
							"internalType": "uint256",
							"name": "",
							"type": "uint256"
						}
					],
					"name": "userBoosterdtl",
					"outputs": [
						{
							"internalType": "uint256",
							"name": "id",
							"type": "uint256"
						},
						{
							"internalType": "uint256",
							"name": "poolId",
							"type": "uint256"
						},
						{
							"internalType": "uint256",
							"name": "parentId",
							"type": "uint256"
						},
						{
							"internalType": "uint256",
							"name": "bonusCount",
							"type": "uint256"
						}
					],
					"stateMutability": "view",
					"type": "function"
				},
				{
					"inputs": [
						{
							"internalType": "uint256",
							"name": "",
							"type": "uint256"
						},
						{
							"internalType": "uint256",
							"name": "",
							"type": "uint256"
						},
						{
							"internalType": "uint256",
							"name": "",
							"type": "uint256"
						}
					],
					"name": "userChildren",
					"outputs": [
						{
							"internalType": "uint256",
							"name": "",
							"type": "uint256"
						}
					],
					"stateMutability": "view",
					"type": "function"
				},
				{
					"inputs": [
						{
							"internalType": "uint256",
							"name": "",
							"type": "uint256"
						},
						{
							"internalType": "uint256",
							"name": "",
							"type": "uint256"
						}
					],
					"name": "userHasPool",
					"outputs": [
						{
							"internalType": "bool",
							"name": "",
							"type": "bool"
						}
					],
					"stateMutability": "view",
					"type": "function"
				},
				{
					"inputs": [
						{
							"internalType": "uint256",
							"name": "",
							"type": "uint256"
						},
						{
							"internalType": "uint256",
							"name": "",
							"type": "uint256"
						}
					],
					"name": "userHasbooster",
					"outputs": [
						{
							"internalType": "bool",
							"name": "",
							"type": "bool"
						}
					],
					"stateMutability": "view",
					"type": "function"
				},
				{
					"inputs": [
						{
							"internalType": "uint256",
							"name": "",
							"type": "uint256"
						},
						{
							"internalType": "uint256",
							"name": "",
							"type": "uint256"
						},
						{
							"internalType": "uint256",
							"name": "",
							"type": "uint256"
						}
					],
					"name": "userIdPerPool",
					"outputs": [
						{
							"internalType": "uint256",
							"name": "",
							"type": "uint256"
						}
					],
					"stateMutability": "view",
					"type": "function"
				},
				{
					"inputs": [
						{
							"internalType": "uint256",
							"name": "",
							"type": "uint256"
						}
					],
					"name": "userIncomes",
					"outputs": [
						{
							"internalType": "uint256",
							"name": "totalIncome",
							"type": "uint256"
						},
						{
							"internalType": "uint256",
							"name": "sponsorIncome",
							"type": "uint256"
						},
						{
							"internalType": "uint256",
							"name": "matrixIncome",
							"type": "uint256"
						},
						{
							"internalType": "uint256",
							"name": "levelBoosterIncome",
							"type": "uint256"
						},
						{
							"internalType": "uint256",
							"name": "levelIncome",
							"type": "uint256"
						},
						{
							"internalType": "uint256",
							"name": "royaltyIncome",
							"type": "uint256"
						},
						{
							"internalType": "uint256",
							"name": "royaltyIncomeClaimed",
							"type": "uint256"
						},
						{
							"internalType": "uint256",
							"name": "communityIncome",
							"type": "uint256"
						},
						{
							"internalType": "uint256",
							"name": "poolIncome",
							"type": "uint256"
						},
						{
							"internalType": "uint256",
							"name": "boosterIncome",
							"type": "uint256"
						}
					],
					"stateMutability": "view",
					"type": "function"
				},
				{
					"inputs": [
						{
							"internalType": "uint256",
							"name": "",
							"type": "uint256"
						},
						{
							"internalType": "uint256",
							"name": "",
							"type": "uint256"
						}
					],
					"name": "userPooldtl",
					"outputs": [
						{
							"internalType": "uint256",
							"name": "id",
							"type": "uint256"
						},
						{
							"internalType": "uint256",
							"name": "mainid",
							"type": "uint256"
						},
						{
							"internalType": "uint256",
							"name": "poolId",
							"type": "uint256"
						},
						{
							"internalType": "uint256",
							"name": "parentId",
							"type": "uint256"
						},
						{
							"internalType": "uint256",
							"name": "bonusCount",
							"type": "uint256"
						}
					],
					"stateMutability": "view",
					"type": "function"
				},
				{
					"inputs": [
						{
							"internalType": "uint256",
							"name": "",
							"type": "uint256"
						},
						{
							"internalType": "uint256",
							"name": "",
							"type": "uint256"
						}
					],
					"name": "userPooltopup",
					"outputs": [
						{
							"internalType": "uint256",
							"name": "nextPoolAmt",
							"type": "uint256"
						},
						{
							"internalType": "uint256",
							"name": "reTopupAmt",
							"type": "uint256"
						}
					],
					"stateMutability": "view",
					"type": "function"
				},
				{
					"inputs": [
						{
							"internalType": "uint256",
							"name": "",
							"type": "uint256"
						}
					],
					"name": "users",
					"outputs": [
						{
							"internalType": "address",
							"name": "account",
							"type": "address"
						},
						{
							"internalType": "uint256",
							"name": "checkpoint",
							"type": "uint256"
						},
						{
							"internalType": "uint256",
							"name": "id",
							"type": "uint256"
						},
						{
							"internalType": "uint256",
							"name": "sponsorId",
							"type": "uint256"
						},
						{
							"internalType": "uint256",
							"name": "uplineId",
							"type": "uint256"
						},
						{
							"internalType": "uint256",
							"name": "level",
							"type": "uint256"
						},
						{
							"internalType": "uint256",
							"name": "directTeam",
							"type": "uint256"
						},
						{
							"internalType": "uint256",
							"name": "directPoolQualified",
							"type": "uint256"
						},
						{
							"internalType": "uint256",
							"name": "totalMatrixTeam",
							"type": "uint256"
						},
						{
							"internalType": "uint256",
							"name": "totalDeposit",
							"type": "uint256"
						},
						{
							"internalType": "uint256",
							"name": "poollevel",
							"type": "uint256"
						},
						{
							"internalType": "uint256",
							"name": "poolDeposit",
							"type": "uint256"
						},
						{
							"internalType": "uint256",
							"name": "boosterlevel",
							"type": "uint256"
						},
						{
							"internalType": "uint256",
							"name": "boosterDeposit",
							"type": "uint256"
						},
						{
							"internalType": "uint256",
							"name": "registrationTime",
							"type": "uint256"
						}
					],
					"stateMutability": "view",
					"type": "function"
				}
			],
			"devdoc": {
				"kind": "dev",
				"methods": {},
				"version": 1
			},
			"evm": {
				"assembly": "    /* \"contracts/modules/SponsorMatrix.sol\":756:40143  contract Nanakshahi {... */\n  mstore(0x40, 0x80)\n  jumpi(tag_11, callvalue)\n  mload(0x40)\n  0x1f\n  bytecodeSize\n  codesize\n  dup2\n  swap1\n  sub\n  swap2\n  dup3\n  add\n  not(0x1f)\n  and\n  dup4\n  add\n  swap2\n  sub(shl(0x40, 0x01), 0x01)\n  dup4\n  gt\n  dup5\n  dup5\n  lt\n  or\n  tag_57\n  jumpi\n  dup1\n  dup5\n  swap3\n  0x80\n  swap5\n  0x40\n  mstore\n  dup4\n  codecopy\n  dup2\n  add\n  sub\n  slt\n  tag_11\n  jumpi\n  tag_13\n  dup2\n  tag_3\n  jump\t// in\ntag_13:\n  tag_14\n  0x20\n  dup4\n  add\n  tag_3\n  jump\t// in\ntag_14:\n  tag_15\n  0x60\n  tag_16\n  0x40\n  dup7\n  add\n  tag_3\n  jump\t// in\ntag_16:\n  swap5\n  add\n  tag_3\n  jump\t// in\ntag_15:\n  mload(0x40)\n  swap1\n  swap3\n  swap1\n  0x01e0\n  dup2\n  add\n  sub(shl(0x40, 0x01), 0x01)\n  dup2\n  gt\n  dup3\n  dup3\n  lt\n  or\n  tag_57\n  jumpi\n  0x40\n  mstore\n    /* \"contracts/modules/SponsorMatrix.sol\":1359:1368  15 * 1e18 */\n  0xd02ab486cedc0000\n    /* \"contracts/modules/SponsorMatrix.sol\":756:40143  contract Nanakshahi {... */\n  dup2\n  mstore\n    /* \"contracts/modules/SponsorMatrix.sol\":1391:1400  25 * 1e18 */\n  0x015af1d78b58c40000\n    /* \"contracts/modules/SponsorMatrix.sol\":756:40143  contract Nanakshahi {... */\n  0x20\n    /* \"contracts/modules/SponsorMatrix.sol\":1348:1863  [... */\n  dup3\n  add\n    /* \"contracts/modules/SponsorMatrix.sol\":756:40143  contract Nanakshahi {... */\n  mstore\n    /* \"contracts/modules/SponsorMatrix.sol\":1423:1432  50 * 1e18 */\n  0x02b5e3af16b1880000\n    /* \"contracts/modules/SponsorMatrix.sol\":756:40143  contract Nanakshahi {... */\n  0x40\n    /* \"contracts/modules/SponsorMatrix.sol\":1348:1863  [... */\n  dup3\n  add\n    /* \"contracts/modules/SponsorMatrix.sol\":756:40143  contract Nanakshahi {... */\n  mstore\n    /* \"contracts/modules/SponsorMatrix.sol\":1455:1465  100 * 1e18 */\n  0x056bc75e2d63100000\n    /* \"contracts/modules/SponsorMatrix.sol\":756:40143  contract Nanakshahi {... */\n  0x60\n    /* \"contracts/modules/SponsorMatrix.sol\":1348:1863  [... */\n  dup3\n  add\n    /* \"contracts/modules/SponsorMatrix.sol\":756:40143  contract Nanakshahi {... */\n  mstore\n    /* \"contracts/modules/SponsorMatrix.sol\":1488:1498  200 * 1e18 */\n  0x0ad78ebc5ac6200000\n    /* \"contracts/modules/SponsorMatrix.sol\":756:40143  contract Nanakshahi {... */\n  0x80\n    /* \"contracts/modules/SponsorMatrix.sol\":1348:1863  [... */\n  dup3\n  add\n    /* \"contracts/modules/SponsorMatrix.sol\":756:40143  contract Nanakshahi {... */\n  mstore\n    /* \"contracts/modules/SponsorMatrix.sol\":1521:1531  400 * 1e18 */\n  0x15af1d78b58c400000\n    /* \"contracts/modules/SponsorMatrix.sol\":1348:1863  [... */\n  0xa0\n  dup3\n  add\n    /* \"contracts/modules/SponsorMatrix.sol\":756:40143  contract Nanakshahi {... */\n  mstore\n    /* \"contracts/modules/SponsorMatrix.sol\":1554:1564  800 * 1e18 */\n  0x2b5e3af16b18800000\n    /* \"contracts/modules/SponsorMatrix.sol\":1348:1863  [... */\n  0xc0\n  dup3\n  add\n    /* \"contracts/modules/SponsorMatrix.sol\":756:40143  contract Nanakshahi {... */\n  mstore\n    /* \"contracts/modules/SponsorMatrix.sol\":1587:1598  1600 * 1e18 */\n  0x56bc75e2d631000000\n    /* \"contracts/modules/SponsorMatrix.sol\":1348:1863  [... */\n  0xe0\n  dup3\n  add\n    /* \"contracts/modules/SponsorMatrix.sol\":756:40143  contract Nanakshahi {... */\n  mstore\n    /* \"contracts/modules/SponsorMatrix.sol\":1621:1632  3200 * 1e18 */\n  0xad78ebc5ac62000000\n    /* \"contracts/modules/SponsorMatrix.sol\":1348:1863  [... */\n  0x0100\n  dup3\n  add\n    /* \"contracts/modules/SponsorMatrix.sol\":756:40143  contract Nanakshahi {... */\n  mstore\n    /* \"contracts/modules/SponsorMatrix.sol\":1655:1666  6400 * 1e18 */\n  0x015af1d78b58c4000000\n    /* \"contracts/modules/SponsorMatrix.sol\":1348:1863  [... */\n  0x0120\n  dup3\n  add\n    /* \"contracts/modules/SponsorMatrix.sol\":756:40143  contract Nanakshahi {... */\n  mstore\n    /* \"contracts/modules/SponsorMatrix.sol\":1689:1701  12800 * 1e18 */\n  0x02b5e3af16b188000000\n    /* \"contracts/modules/SponsorMatrix.sol\":1348:1863  [... */\n  0x0140\n  dup3\n  add\n    /* \"contracts/modules/SponsorMatrix.sol\":756:40143  contract Nanakshahi {... */\n  mstore\n    /* \"contracts/modules/SponsorMatrix.sol\":1724:1736  25600 * 1e18 */\n  0x056bc75e2d6310000000\n    /* \"contracts/modules/SponsorMatrix.sol\":1348:1863  [... */\n  0x0160\n  dup3\n  add\n    /* \"contracts/modules/SponsorMatrix.sol\":756:40143  contract Nanakshahi {... */\n  mstore\n    /* \"contracts/modules/SponsorMatrix.sol\":1759:1771  51200 * 1e18 */\n  0x0ad78ebc5ac620000000\n    /* \"contracts/modules/SponsorMatrix.sol\":1348:1863  [... */\n  0x0180\n  dup3\n  add\n    /* \"contracts/modules/SponsorMatrix.sol\":756:40143  contract Nanakshahi {... */\n  mstore\n    /* \"contracts/modules/SponsorMatrix.sol\":1794:1807  102400 * 1e18 */\n  0x15af1d78b58c40000000\n    /* \"contracts/modules/SponsorMatrix.sol\":1348:1863  [... */\n  0x01a0\n  dup3\n  add\n    /* \"contracts/modules/SponsorMatrix.sol\":756:40143  contract Nanakshahi {... */\n  mstore\n    /* \"contracts/modules/SponsorMatrix.sol\":1830:1843  204800 * 1e18 */\n  0x2b5e3af16b1880000000\n    /* \"contracts/modules/SponsorMatrix.sol\":1348:1863  [... */\n  0x01c0\n  dup3\n  add\n    /* \"contracts/modules/SponsorMatrix.sol\":756:40143  contract Nanakshahi {... */\n  mstore\n    /* \"contracts/modules/SponsorMatrix.sol\":1348:1863  [... */\n  0x07\n    /* \"contracts/modules/SponsorMatrix.sol\":756:40143  contract Nanakshahi {... */\n  sload\n    /* \"contracts/modules/SponsorMatrix.sol\":1348:1863  [... */\n  0x0f\n  0x07\n    /* \"contracts/modules/SponsorMatrix.sol\":756:40143  contract Nanakshahi {... */\n  sstore\n  dup1\n    /* \"contracts/modules/SponsorMatrix.sol\":1348:1863  [... */\n  0x0f\n    /* \"contracts/modules/SponsorMatrix.sol\":756:40143  contract Nanakshahi {... */\n  lt\n  tag_19\n  jumpi\ntag_20:\n  pop\n    /* \"contracts/modules/SponsorMatrix.sol\":1348:1863  [... */\n  0x07\n  0x00\n    /* \"contracts/modules/SponsorMatrix.sol\":756:40143  contract Nanakshahi {... */\n  mstore\n  keccak256(0x00, 0x20)\n  swap1\n  0x00\ntag_21:\n    /* \"contracts/modules/SponsorMatrix.sol\":1348:1863  [... */\n  0x0f\n    /* \"contracts/modules/SponsorMatrix.sol\":756:40143  contract Nanakshahi {... */\n  dup2\n  lt\n  tag_22\n  jumpi\n  pop\n  pop\n  pop\n  tag_24\n  tag_1\n  jump\t// in\ntag_24:\n    /* \"contracts/modules/SponsorMatrix.sol\":1900:1905  75e18 */\n  0x0410d586a20a4c0000\n    /* \"contracts/modules/SponsorMatrix.sol\":756:40143  contract Nanakshahi {... */\n  dup2\n  mstore\n    /* \"contracts/modules/SponsorMatrix.sol\":1907:1913  300e18 */\n  0x1043561a8829300000\n    /* \"contracts/modules/SponsorMatrix.sol\":756:40143  contract Nanakshahi {... */\n  0x20\n    /* \"contracts/modules/SponsorMatrix.sol\":1899:1963  [75e18, 300e18, 1200e18, 4800e18, 19200e18, 76800e18, 307200e18] */\n  dup3\n  add\n    /* \"contracts/modules/SponsorMatrix.sol\":756:40143  contract Nanakshahi {... */\n  mstore\n    /* \"contracts/modules/SponsorMatrix.sol\":1915:1922  1200e18 */\n  0x410d586a20a4c00000\n    /* \"contracts/modules/SponsorMatrix.sol\":756:40143  contract Nanakshahi {... */\n  0x40\n    /* \"contracts/modules/SponsorMatrix.sol\":1899:1963  [75e18, 300e18, 1200e18, 4800e18, 19200e18, 76800e18, 307200e18] */\n  dup3\n  add\n    /* \"contracts/modules/SponsorMatrix.sol\":756:40143  contract Nanakshahi {... */\n  mstore\n    /* \"contracts/modules/SponsorMatrix.sol\":1924:1931  4800e18 */\n  0x01043561a88293000000\n    /* \"contracts/modules/SponsorMatrix.sol\":756:40143  contract Nanakshahi {... */\n  0x60\n    /* \"contracts/modules/SponsorMatrix.sol\":1899:1963  [75e18, 300e18, 1200e18, 4800e18, 19200e18, 76800e18, 307200e18] */\n  dup3\n  add\n    /* \"contracts/modules/SponsorMatrix.sol\":756:40143  contract Nanakshahi {... */\n  mstore\n    /* \"contracts/modules/SponsorMatrix.sol\":1933:1941  19200e18 */\n  0x0410d586a20a4c000000\n    /* \"contracts/modules/SponsorMatrix.sol\":756:40143  contract Nanakshahi {... */\n  0x80\n    /* \"contracts/modules/SponsorMatrix.sol\":1899:1963  [75e18, 300e18, 1200e18, 4800e18, 19200e18, 76800e18, 307200e18] */\n  dup3\n  add\n    /* \"contracts/modules/SponsorMatrix.sol\":756:40143  contract Nanakshahi {... */\n  mstore\n    /* \"contracts/modules/SponsorMatrix.sol\":1943:1951  76800e18 */\n  0x1043561a882930000000\n    /* \"contracts/modules/SponsorMatrix.sol\":1348:1863  [... */\n  0xa0\n    /* \"contracts/modules/SponsorMatrix.sol\":1899:1963  [75e18, 300e18, 1200e18, 4800e18, 19200e18, 76800e18, 307200e18] */\n  dup3\n  add\n    /* \"contracts/modules/SponsorMatrix.sol\":756:40143  contract Nanakshahi {... */\n  mstore\n    /* \"contracts/modules/SponsorMatrix.sol\":1953:1962  307200e18 */\n  0x410d586a20a4c0000000\n    /* \"contracts/modules/SponsorMatrix.sol\":1348:1863  [... */\n  0xc0\n    /* \"contracts/modules/SponsorMatrix.sol\":1899:1963  [75e18, 300e18, 1200e18, 4800e18, 19200e18, 76800e18, 307200e18] */\n  dup3\n  add\n    /* \"contracts/modules/SponsorMatrix.sol\":756:40143  contract Nanakshahi {... */\n  mstore\n    /* \"contracts/modules/SponsorMatrix.sol\":1899:1963  [75e18, 300e18, 1200e18, 4800e18, 19200e18, 76800e18, 307200e18] */\n  0x08\n    /* \"contracts/modules/SponsorMatrix.sol\":756:40143  contract Nanakshahi {... */\n  sload\n    /* \"contracts/modules/SponsorMatrix.sol\":1348:1863  [... */\n  0x07\n    /* \"contracts/modules/SponsorMatrix.sol\":1899:1963  [75e18, 300e18, 1200e18, 4800e18, 19200e18, 76800e18, 307200e18] */\n  0x08\n    /* \"contracts/modules/SponsorMatrix.sol\":756:40143  contract Nanakshahi {... */\n  sstore\n  dup1\n    /* \"contracts/modules/SponsorMatrix.sol\":1348:1863  [... */\n  0x07\n    /* \"contracts/modules/SponsorMatrix.sol\":756:40143  contract Nanakshahi {... */\n  lt\n  tag_25\n  jumpi\ntag_26:\n  pop\n    /* \"contracts/modules/SponsorMatrix.sol\":1899:1963  [75e18, 300e18, 1200e18, 4800e18, 19200e18, 76800e18, 307200e18] */\n  0x08\n  0x00\n    /* \"contracts/modules/SponsorMatrix.sol\":756:40143  contract Nanakshahi {... */\n  mstore\n  keccak256(0x00, 0x20)\n  swap1\n  0x00\ntag_27:\n    /* \"contracts/modules/SponsorMatrix.sol\":1348:1863  [... */\n  0x07\n    /* \"contracts/modules/SponsorMatrix.sol\":756:40143  contract Nanakshahi {... */\n  dup2\n  lt\n  tag_28\n  jumpi\n  pop\n  pop\n  pop\n  tag_30\n  tag_2\n  jump\t// in\ntag_30:\n    /* \"contracts/modules/SponsorMatrix.sol\":1455:1465  100 * 1e18 */\n  0x056bc75e2d63100000\n    /* \"contracts/modules/SponsorMatrix.sol\":756:40143  contract Nanakshahi {... */\n  dup2\n  mstore\n    /* \"contracts/modules/SponsorMatrix.sol\":1488:1498  200 * 1e18 */\n  0x0ad78ebc5ac6200000\n    /* \"contracts/modules/SponsorMatrix.sol\":756:40143  contract Nanakshahi {... */\n  0x20\n    /* \"contracts/modules/SponsorMatrix.sol\":2005:2075  [ 100e18, 200e18, 400e18, 800e18, 1600e18, 3200e18, 6400e18, 12800e18] */\n  dup3\n  add\n    /* \"contracts/modules/SponsorMatrix.sol\":756:40143  contract Nanakshahi {... */\n  mstore\n    /* \"contracts/modules/SponsorMatrix.sol\":1521:1531  400 * 1e18 */\n  0x15af1d78b58c400000\n    /* \"contracts/modules/SponsorMatrix.sol\":756:40143  contract Nanakshahi {... */\n  0x40\n    /* \"contracts/modules/SponsorMatrix.sol\":2005:2075  [ 100e18, 200e18, 400e18, 800e18, 1600e18, 3200e18, 6400e18, 12800e18] */\n  dup3\n  add\n    /* \"contracts/modules/SponsorMatrix.sol\":756:40143  contract Nanakshahi {... */\n  mstore\n    /* \"contracts/modules/SponsorMatrix.sol\":1554:1564  800 * 1e18 */\n  0x2b5e3af16b18800000\n    /* \"contracts/modules/SponsorMatrix.sol\":756:40143  contract Nanakshahi {... */\n  0x60\n    /* \"contracts/modules/SponsorMatrix.sol\":2005:2075  [ 100e18, 200e18, 400e18, 800e18, 1600e18, 3200e18, 6400e18, 12800e18] */\n  dup3\n  add\n    /* \"contracts/modules/SponsorMatrix.sol\":756:40143  contract Nanakshahi {... */\n  mstore\n    /* \"contracts/modules/SponsorMatrix.sol\":1587:1598  1600 * 1e18 */\n  0x56bc75e2d631000000\n    /* \"contracts/modules/SponsorMatrix.sol\":756:40143  contract Nanakshahi {... */\n  0x80\n    /* \"contracts/modules/SponsorMatrix.sol\":2005:2075  [ 100e18, 200e18, 400e18, 800e18, 1600e18, 3200e18, 6400e18, 12800e18] */\n  dup3\n  add\n    /* \"contracts/modules/SponsorMatrix.sol\":756:40143  contract Nanakshahi {... */\n  mstore\n    /* \"contracts/modules/SponsorMatrix.sol\":1621:1632  3200 * 1e18 */\n  0xad78ebc5ac62000000\n    /* \"contracts/modules/SponsorMatrix.sol\":1348:1863  [... */\n  0xa0\n    /* \"contracts/modules/SponsorMatrix.sol\":2005:2075  [ 100e18, 200e18, 400e18, 800e18, 1600e18, 3200e18, 6400e18, 12800e18] */\n  dup3\n  add\n    /* \"contracts/modules/SponsorMatrix.sol\":756:40143  contract Nanakshahi {... */\n  mstore\n    /* \"contracts/modules/SponsorMatrix.sol\":1655:1666  6400 * 1e18 */\n  0x015af1d78b58c4000000\n    /* \"contracts/modules/SponsorMatrix.sol\":1348:1863  [... */\n  0xc0\n    /* \"contracts/modules/SponsorMatrix.sol\":2005:2075  [ 100e18, 200e18, 400e18, 800e18, 1600e18, 3200e18, 6400e18, 12800e18] */\n  dup3\n  add\n    /* \"contracts/modules/SponsorMatrix.sol\":756:40143  contract Nanakshahi {... */\n  mstore\n    /* \"contracts/modules/SponsorMatrix.sol\":1689:1701  12800 * 1e18 */\n  0x02b5e3af16b188000000\n    /* \"contracts/modules/SponsorMatrix.sol\":1348:1863  [... */\n  0xe0\n    /* \"contracts/modules/SponsorMatrix.sol\":2005:2075  [ 100e18, 200e18, 400e18, 800e18, 1600e18, 3200e18, 6400e18, 12800e18] */\n  dup3\n  add\n    /* \"contracts/modules/SponsorMatrix.sol\":756:40143  contract Nanakshahi {... */\n  mstore\n    /* \"contracts/modules/SponsorMatrix.sol\":2005:2075  [ 100e18, 200e18, 400e18, 800e18, 1600e18, 3200e18, 6400e18, 12800e18] */\n  0x09\n    /* \"contracts/modules/SponsorMatrix.sol\":756:40143  contract Nanakshahi {... */\n  sload\n    /* \"contracts/modules/SponsorMatrix.sol\":1899:1963  [75e18, 300e18, 1200e18, 4800e18, 19200e18, 76800e18, 307200e18] */\n  0x08\n    /* \"contracts/modules/SponsorMatrix.sol\":2005:2075  [ 100e18, 200e18, 400e18, 800e18, 1600e18, 3200e18, 6400e18, 12800e18] */\n  0x09\n    /* \"contracts/modules/SponsorMatrix.sol\":756:40143  contract Nanakshahi {... */\n  sstore\n  dup1\n    /* \"contracts/modules/SponsorMatrix.sol\":1899:1963  [75e18, 300e18, 1200e18, 4800e18, 19200e18, 76800e18, 307200e18] */\n  0x08\n    /* \"contracts/modules/SponsorMatrix.sol\":756:40143  contract Nanakshahi {... */\n  lt\n  tag_31\n  jumpi\ntag_32:\n  pop\n    /* \"contracts/modules/SponsorMatrix.sol\":2005:2075  [ 100e18, 200e18, 400e18, 800e18, 1600e18, 3200e18, 6400e18, 12800e18] */\n  0x09\n  0x00\n    /* \"contracts/modules/SponsorMatrix.sol\":756:40143  contract Nanakshahi {... */\n  mstore\n  keccak256(0x00, 0x20)\n  swap1\n  0x00\ntag_33:\n    /* \"contracts/modules/SponsorMatrix.sol\":1899:1963  [75e18, 300e18, 1200e18, 4800e18, 19200e18, 76800e18, 307200e18] */\n  0x08\n    /* \"contracts/modules/SponsorMatrix.sol\":756:40143  contract Nanakshahi {... */\n  dup2\n  lt\n  tag_34\n  jumpi\n  pop\n  pop\n  pop\n  tag_36\n  tag_1\n  jump\t// in\ntag_36:\n    /* \"contracts/modules/SponsorMatrix.sol\":2116:2117  3 */\n  0x03\n    /* \"contracts/modules/SponsorMatrix.sol\":756:40143  contract Nanakshahi {... */\n  dup2\n  mstore\n  0x05\n  0x20\n    /* \"contracts/modules/SponsorMatrix.sol\":2115:2139  [3, 5, 7, 9, 11, 13, 15] */\n  dup3\n  add\n    /* \"contracts/modules/SponsorMatrix.sol\":756:40143  contract Nanakshahi {... */\n  mstore\n    /* \"contracts/modules/SponsorMatrix.sol\":1348:1863  [... */\n  0x07\n    /* \"contracts/modules/SponsorMatrix.sol\":756:40143  contract Nanakshahi {... */\n  0x40\n    /* \"contracts/modules/SponsorMatrix.sol\":2115:2139  [3, 5, 7, 9, 11, 13, 15] */\n  dup3\n  add\n    /* \"contracts/modules/SponsorMatrix.sol\":756:40143  contract Nanakshahi {... */\n  mstore\n    /* \"contracts/modules/SponsorMatrix.sol\":2005:2075  [ 100e18, 200e18, 400e18, 800e18, 1600e18, 3200e18, 6400e18, 12800e18] */\n  0x09\n    /* \"contracts/modules/SponsorMatrix.sol\":756:40143  contract Nanakshahi {... */\n  0x60\n    /* \"contracts/modules/SponsorMatrix.sol\":2115:2139  [3, 5, 7, 9, 11, 13, 15] */\n  dup3\n  add\n    /* \"contracts/modules/SponsorMatrix.sol\":756:40143  contract Nanakshahi {... */\n  mstore\n    /* \"contracts/modules/SponsorMatrix.sol\":2128:2130  11 */\n  0x0b\n    /* \"contracts/modules/SponsorMatrix.sol\":756:40143  contract Nanakshahi {... */\n  0x80\n    /* \"contracts/modules/SponsorMatrix.sol\":2115:2139  [3, 5, 7, 9, 11, 13, 15] */\n  dup3\n  add\n    /* \"contracts/modules/SponsorMatrix.sol\":756:40143  contract Nanakshahi {... */\n  mstore\n    /* \"contracts/modules/SponsorMatrix.sol\":2132:2134  13 */\n  0x0d\n    /* \"contracts/modules/SponsorMatrix.sol\":1348:1863  [... */\n  0xa0\n    /* \"contracts/modules/SponsorMatrix.sol\":2115:2139  [3, 5, 7, 9, 11, 13, 15] */\n  dup3\n  add\n    /* \"contracts/modules/SponsorMatrix.sol\":756:40143  contract Nanakshahi {... */\n  mstore\n    /* \"contracts/modules/SponsorMatrix.sol\":1348:1863  [... */\n  0x0f\n  0xc0\n    /* \"contracts/modules/SponsorMatrix.sol\":2115:2139  [3, 5, 7, 9, 11, 13, 15] */\n  dup3\n  add\n    /* \"contracts/modules/SponsorMatrix.sol\":756:40143  contract Nanakshahi {... */\n  mstore\n  0x00\ntag_37:\n    /* \"contracts/modules/SponsorMatrix.sol\":1348:1863  [... */\n  0x07\n    /* \"contracts/modules/SponsorMatrix.sol\":756:40143  contract Nanakshahi {... */\n  dup2\n  lt\n  tag_38\n  jumpi\n  pop\n  pop\n  tag_40\n  tag_2\n  jump\t// in\ntag_40:\n    /* \"contracts/modules/SponsorMatrix.sol\":2186:2187  4 */\n  0x04\n    /* \"contracts/modules/SponsorMatrix.sol\":756:40143  contract Nanakshahi {... */\n  dup2\n  mstore\n  0x05\n  0x20\n    /* \"contracts/modules/SponsorMatrix.sol\":2185:2210  [4, 5, 6, 7, 8, 9, 10,11] */\n  dup3\n  add\n    /* \"contracts/modules/SponsorMatrix.sol\":756:40143  contract Nanakshahi {... */\n  mstore\n    /* \"contracts/modules/SponsorMatrix.sol\":2192:2193  6 */\n  0x06\n    /* \"contracts/modules/SponsorMatrix.sol\":756:40143  contract Nanakshahi {... */\n  0x40\n    /* \"contracts/modules/SponsorMatrix.sol\":2185:2210  [4, 5, 6, 7, 8, 9, 10,11] */\n  dup3\n  add\n    /* \"contracts/modules/SponsorMatrix.sol\":756:40143  contract Nanakshahi {... */\n  mstore\n    /* \"contracts/modules/SponsorMatrix.sol\":1348:1863  [... */\n  0x07\n    /* \"contracts/modules/SponsorMatrix.sol\":756:40143  contract Nanakshahi {... */\n  0x60\n    /* \"contracts/modules/SponsorMatrix.sol\":2185:2210  [4, 5, 6, 7, 8, 9, 10,11] */\n  dup3\n  add\n    /* \"contracts/modules/SponsorMatrix.sol\":756:40143  contract Nanakshahi {... */\n  mstore\n    /* \"contracts/modules/SponsorMatrix.sol\":1899:1963  [75e18, 300e18, 1200e18, 4800e18, 19200e18, 76800e18, 307200e18] */\n  0x08\n    /* \"contracts/modules/SponsorMatrix.sol\":756:40143  contract Nanakshahi {... */\n  0x80\n    /* \"contracts/modules/SponsorMatrix.sol\":2185:2210  [4, 5, 6, 7, 8, 9, 10,11] */\n  dup3\n  add\n    /* \"contracts/modules/SponsorMatrix.sol\":756:40143  contract Nanakshahi {... */\n  mstore\n    /* \"contracts/modules/SponsorMatrix.sol\":2005:2075  [ 100e18, 200e18, 400e18, 800e18, 1600e18, 3200e18, 6400e18, 12800e18] */\n  0x09\n    /* \"contracts/modules/SponsorMatrix.sol\":1348:1863  [... */\n  0xa0\n    /* \"contracts/modules/SponsorMatrix.sol\":2185:2210  [4, 5, 6, 7, 8, 9, 10,11] */\n  dup3\n  add\n    /* \"contracts/modules/SponsorMatrix.sol\":756:40143  contract Nanakshahi {... */\n  mstore\n    /* \"contracts/modules/SponsorMatrix.sol\":2115:2139  [3, 5, 7, 9, 11, 13, 15] */\n  0x0a\n    /* \"contracts/modules/SponsorMatrix.sol\":1348:1863  [... */\n  0xc0\n    /* \"contracts/modules/SponsorMatrix.sol\":2185:2210  [4, 5, 6, 7, 8, 9, 10,11] */\n  dup3\n  add\n    /* \"contracts/modules/SponsorMatrix.sol\":756:40143  contract Nanakshahi {... */\n  mstore\n    /* \"contracts/modules/SponsorMatrix.sol\":2128:2130  11 */\n  0x0b\n    /* \"contracts/modules/SponsorMatrix.sol\":1348:1863  [... */\n  0xe0\n    /* \"contracts/modules/SponsorMatrix.sol\":2185:2210  [4, 5, 6, 7, 8, 9, 10,11] */\n  dup3\n  add\n    /* \"contracts/modules/SponsorMatrix.sol\":756:40143  contract Nanakshahi {... */\n  mstore\n  0x00\ntag_41:\n    /* \"contracts/modules/SponsorMatrix.sol\":1899:1963  [75e18, 300e18, 1200e18, 4800e18, 19200e18, 76800e18, 307200e18] */\n  0x08\n    /* \"contracts/modules/SponsorMatrix.sol\":756:40143  contract Nanakshahi {... */\n  dup2\n  lt\n  tag_42\n  jumpi\n  pop\n  pop\n  tag_44\n  tag_2\n  jump\t// in\ntag_44:\n  0x00\n  dup2\n  mstore\n  0x01\n  0x20\n    /* \"contracts/modules/SponsorMatrix.sol\":2255:2278  [0, 1, 1, 1, 1, 1, 1,1] */\n  dup3\n  add\n    /* \"contracts/modules/SponsorMatrix.sol\":756:40143  contract Nanakshahi {... */\n  mstore\n  0x01\n  0x40\n    /* \"contracts/modules/SponsorMatrix.sol\":2255:2278  [0, 1, 1, 1, 1, 1, 1,1] */\n  dup3\n  add\n    /* \"contracts/modules/SponsorMatrix.sol\":756:40143  contract Nanakshahi {... */\n  mstore\n  0x01\n  0x60\n    /* \"contracts/modules/SponsorMatrix.sol\":2255:2278  [0, 1, 1, 1, 1, 1, 1,1] */\n  dup3\n  add\n    /* \"contracts/modules/SponsorMatrix.sol\":756:40143  contract Nanakshahi {... */\n  mstore\n  0x01\n  0x80\n    /* \"contracts/modules/SponsorMatrix.sol\":2255:2278  [0, 1, 1, 1, 1, 1, 1,1] */\n  dup3\n  add\n    /* \"contracts/modules/SponsorMatrix.sol\":756:40143  contract Nanakshahi {... */\n  mstore\n  0x01\n    /* \"contracts/modules/SponsorMatrix.sol\":1348:1863  [... */\n  0xa0\n    /* \"contracts/modules/SponsorMatrix.sol\":2255:2278  [0, 1, 1, 1, 1, 1, 1,1] */\n  dup3\n  add\n    /* \"contracts/modules/SponsorMatrix.sol\":756:40143  contract Nanakshahi {... */\n  mstore\n  0x01\n    /* \"contracts/modules/SponsorMatrix.sol\":1348:1863  [... */\n  0xc0\n    /* \"contracts/modules/SponsorMatrix.sol\":2255:2278  [0, 1, 1, 1, 1, 1, 1,1] */\n  dup3\n  add\n    /* \"contracts/modules/SponsorMatrix.sol\":756:40143  contract Nanakshahi {... */\n  mstore\n  0x01\n    /* \"contracts/modules/SponsorMatrix.sol\":1348:1863  [... */\n  0xe0\n    /* \"contracts/modules/SponsorMatrix.sol\":2255:2278  [0, 1, 1, 1, 1, 1, 1,1] */\n  dup3\n  add\n    /* \"contracts/modules/SponsorMatrix.sol\":756:40143  contract Nanakshahi {... */\n  mstore\n  0x00\ntag_45:\n    /* \"contracts/modules/SponsorMatrix.sol\":1899:1963  [75e18, 300e18, 1200e18, 4800e18, 19200e18, 76800e18, 307200e18] */\n  0x08\n    /* \"contracts/modules/SponsorMatrix.sol\":756:40143  contract Nanakshahi {... */\n  dup2\n  lt\n  tag_46\n  jumpi\n  pop\n  pop\n    /* \"contracts/modules/SponsorMatrix.sol\":6372:6378  1 days */\n  0x015180\n  0x37\n    /* \"contracts/modules/SponsorMatrix.sol\":756:40143  contract Nanakshahi {... */\n  sstore\n  0x00\n  dup1\n  sload\n  not(sub(shl(0xa0, 0x01), 0x01))\n  swap1\n  dup2\n  and\n  sub(shl(0xa0, 0x01), 0x01)\n  swap4\n  dup5\n  and\n  or\n  dup3\n  sstore\n    /* \"contracts/modules/SponsorMatrix.sol\":7205:7235  creatorWallet = _creatorWallet */\n  0x02\n    /* \"contracts/modules/SponsorMatrix.sol\":756:40143  contract Nanakshahi {... */\n  dup1\n  sload\n  dup3\n  and\n  swap5\n  dup5\n  and\n  swap5\n  dup6\n  or\n  dup2\n  sstore\n    /* \"contracts/modules/SponsorMatrix.sol\":2116:2117  3 */\n  0x03\n    /* \"contracts/modules/SponsorMatrix.sol\":756:40143  contract Nanakshahi {... */\n  dup1\n  sload\n  dup4\n  and\n  swap8\n  dup6\n  and\n  swap8\n  swap1\n  swap8\n  or\n  swap1\n  swap7\n  sstore\n    /* \"contracts/modules/SponsorMatrix.sol\":2186:2187  4 */\n  0x04\n    /* \"contracts/modules/SponsorMatrix.sol\":756:40143  contract Nanakshahi {... */\n  dup1\n  sload\n  dup3\n  and\n  swap6\n  swap1\n  swap4\n  and\n  swap5\n  swap1\n  swap5\n  or\n  swap1\n  swap2\n  sstore\n    /* \"contracts/modules/SponsorMatrix.sol\":7351:7355  1000 */\n  0x03e8\n    /* \"contracts/modules/SponsorMatrix.sol\":756:40143  contract Nanakshahi {... */\n  0x05\n  dup2\n  swap1\n  sstore\n  0x01\n    /* \"contracts/modules/SponsorMatrix.sol\":2192:2193  6 */\n  0x06\n    /* \"contracts/modules/SponsorMatrix.sol\":756:40143  contract Nanakshahi {... */\n  sstore\n  dup1\n  dup3\n  mstore\n    /* \"contracts/modules/SponsorMatrix.sol\":7463:7468  users */\n  0x2c\n    /* \"contracts/modules/SponsorMatrix.sol\":756:40143  contract Nanakshahi {... */\n  0x20\n  mstore\n  0x6c4c1a4f9839dca97a983c55cbfc33e7d08925bea4a675c4ea728373a4a1718e\n  dup1\n  sload\n  swap1\n  swap5\n  and\n  dup4\n  or\n  dup5\n  sstore\n    /* \"contracts/modules/SponsorMatrix.sol\":7536:7546  creator.id */\n  0x6c4c1a4f9839dca97a983c55cbfc33e7d08925bea4a675c4ea728373a4a17191\n    /* \"contracts/modules/SponsorMatrix.sol\":756:40143  contract Nanakshahi {... */\n  sstore\n    /* \"contracts/modules/SponsorMatrix.sol\":1348:1863  [... */\n  0x0f\n    /* \"contracts/modules/SponsorMatrix.sol\":7572:7585  creator.level */\n  0x6c4c1a4f9839dca97a983c55cbfc33e7d08925bea4a675c4ea728373a4a17194\n    /* \"contracts/modules/SponsorMatrix.sol\":756:40143  contract Nanakshahi {... */\n  sstore\n    /* \"contracts/modules/SponsorMatrix.sol\":7659:7674  block.timestamp */\n  timestamp\n    /* \"contracts/modules/SponsorMatrix.sol\":7632:7656  creator.registrationTime */\n  0x6c4c1a4f9839dca97a983c55cbfc33e7d08925bea4a675c4ea728373a4a1719d\n    /* \"contracts/modules/SponsorMatrix.sol\":756:40143  contract Nanakshahi {... */\n  sstore\n    /* \"contracts/modules/SponsorMatrix.sol\":1348:1863  [... */\n  0x07\n    /* \"contracts/modules/SponsorMatrix.sol\":7685:7702  creator.poollevel */\n  0x6c4c1a4f9839dca97a983c55cbfc33e7d08925bea4a675c4ea728373a4a17199\n    /* \"contracts/modules/SponsorMatrix.sol\":756:40143  contract Nanakshahi {... */\n  dup2\n  swap1\n  sstore\n    /* \"contracts/modules/SponsorMatrix.sol\":1899:1963  [75e18, 300e18, 1200e18, 4800e18, 19200e18, 76800e18, 307200e18] */\n  0x08\n    /* \"contracts/modules/SponsorMatrix.sol\":7717:7737  creator.boosterlevel */\n  0x6c4c1a4f9839dca97a983c55cbfc33e7d08925bea4a675c4ea728373a4a1719b\n    /* \"contracts/modules/SponsorMatrix.sol\":756:40143  contract Nanakshahi {... */\n  sstore\n    /* \"contracts/modules/SponsorMatrix.sol\":7752:7779  creator.directPoolQualified */\n  0x6c4c1a4f9839dca97a983c55cbfc33e7d08925bea4a675c4ea728373a4a17196\n    /* \"contracts/modules/SponsorMatrix.sol\":756:40143  contract Nanakshahi {... */\n  swap5\n  swap1\n  swap5\n  sstore\n  swap3\n  sload\n  swap2\n  swap3\n  swap1\n  swap2\n  dup2\n  swap1\n    /* \"contracts/modules/SponsorMatrix.sol\":7896:7902  i < 15 */\ntag_48:\n    /* \"contracts/modules/SponsorMatrix.sol\":1348:1863  [... */\n  0x0f\n    /* \"contracts/modules/SponsorMatrix.sol\":7896:7902  i < 15 */\n  dup3\n  lt\n  tag_49\n  jumpi\n  pop\n  pop\n    /* \"contracts/modules/SponsorMatrix.sol\":2115:2139  [3, 5, 7, 9, 11, 13, 15] */\n  0x0a\n    /* \"contracts/modules/SponsorMatrix.sol\":7973:7993  creator.totalDeposit */\n  dup4\n  add\n    /* \"contracts/modules/SponsorMatrix.sol\":756:40143  contract Nanakshahi {... */\n  sstore\n  sload(0x05)\n  0x00\n  swap2\n  dup3\n  mstore\n    /* \"contracts/modules/SponsorMatrix.sol\":8019:8030  addressToId */\n  0x2b\n    /* \"contracts/modules/SponsorMatrix.sol\":756:40143  contract Nanakshahi {... */\n  0x20\n  mstore\n  0x40\n  dup3\n  keccak256\n  sstore\n  dup1\n    /* \"contracts/modules/SponsorMatrix.sol\":8142:8145  j++ */\ntag_51:\n    /* \"contracts/modules/SponsorMatrix.sol\":1899:1963  [75e18, 300e18, 1200e18, 4800e18, 19200e18, 76800e18, 307200e18] */\n  0x08\n    /* \"contracts/modules/SponsorMatrix.sol\":756:40143  contract Nanakshahi {... */\n  sload\n    /* \"contracts/modules/SponsorMatrix.sol\":8117:8140  j < poolPackages.length */\n  dup3\n  lt\n  iszero\n  tag_52\n  jumpi\n    /* \"contracts/modules/SponsorMatrix.sol\":1899:1963  [75e18, 300e18, 1200e18, 4800e18, 19200e18, 76800e18, 307200e18] */\n  0x08\n    /* \"contracts/modules/SponsorMatrix.sol\":756:40143  contract Nanakshahi {... */\n  sload\n  dup3\n  lt\n  iszero\n  tag_54\n  jumpi\n    /* \"contracts/modules/SponsorMatrix.sol\":1899:1963  [75e18, 300e18, 1200e18, 4800e18, 19200e18, 76800e18, 307200e18] */\n  0x08\n  0x00\n    /* \"contracts/modules/SponsorMatrix.sol\":756:40143  contract Nanakshahi {... */\n  mstore\n  mload(0x00)\n  codecopy(0x00, data_a7c46294ffa3fad92dc8422b2e38b688ccf1b86172f5beaf864af9368d2844e5, 0x20)\n  mload(0x00)\n  swap1\n  0x00\n  mstore\n  dup3\n  add\n  sload\n    /* \"contracts/modules/SponsorMatrix.sol\":8162:8193  totalDeposit += poolPackages[j] */\n  tag_56\n  swap2\n  tag_5\n  jump\t// in\ntag_56:\n    /* \"contracts/modules/SponsorMatrix.sol\":756:40143  contract Nanakshahi {... */\n  sload(0x05)\n  mload(0x40)\n  swap2\n  swap3\n  swap1\n  swap2\n    /* \"contracts/modules/SponsorMatrix.sol\":1348:1863  [... */\n  0xa0\n    /* \"contracts/modules/SponsorMatrix.sol\":756:40143  contract Nanakshahi {... */\n  dup2\n  add\n  sub(shl(0x40, 0x01), 0x01)\n  dup2\n  gt\n  dup3\n  dup3\n  lt\n  or\n  tag_57\n  jumpi\n  0x01\n  swap4\n    /* \"contracts/modules/SponsorMatrix.sol\":2186:2187  4 */\n  0x04\n    /* \"contracts/modules/SponsorMatrix.sol\":756:40143  contract Nanakshahi {... */\n  swap2\n  0x40\n  mstore\n  dup1\n  dup4\n  mstore\n  0x20\n    /* \"contracts/modules/SponsorMatrix.sol\":8239:8428  UserPool({... */\n  dup4\n  add\n    /* \"contracts/modules/SponsorMatrix.sol\":756:40143  contract Nanakshahi {... */\n  dup2\n  dup2\n  mstore\n  0x40\n    /* \"contracts/modules/SponsorMatrix.sol\":8239:8428  UserPool({... */\n  dup5\n  add\n    /* \"contracts/modules/SponsorMatrix.sol\":756:40143  contract Nanakshahi {... */\n  dup6\n  dup2\n  mstore\n  0x60\n    /* \"contracts/modules/SponsorMatrix.sol\":8239:8428  UserPool({... */\n  dup6\n  add\n    /* \"contracts/modules/SponsorMatrix.sol\":756:40143  contract Nanakshahi {... */\n  swap2\n  0x00\n  dup4\n  mstore\n  0x80\n    /* \"contracts/modules/SponsorMatrix.sol\":8239:8428  UserPool({... */\n  dup7\n  add\n    /* \"contracts/modules/SponsorMatrix.sol\":756:40143  contract Nanakshahi {... */\n  swap4\n  0x00\n  dup6\n  mstore\n  dup8\n  0x00\n  mstore\n    /* \"contracts/modules/SponsorMatrix.sol\":8208:8219  userPooldtl */\n  0x22\n    /* \"contracts/modules/SponsorMatrix.sol\":756:40143  contract Nanakshahi {... */\n  0x20\n  mstore\n  keccak256(0x00, 0x40)\n  swap1\n  0x00\n  mstore\n  0x20\n  mstore\n  keccak256(0x00, 0x40)\n  swap6\n  mload\n  dup7\n  sstore\n  mload\n  dup8\n  dup7\n  add\n  sstore\n  mload\n    /* \"contracts/modules/SponsorMatrix.sol\":7205:7235  creatorWallet = _creatorWallet */\n  0x02\n    /* \"contracts/modules/SponsorMatrix.sol\":756:40143  contract Nanakshahi {... */\n  dup6\n  add\n  sstore\n  mload\n    /* \"contracts/modules/SponsorMatrix.sol\":2116:2117  3 */\n  0x03\n    /* \"contracts/modules/SponsorMatrix.sol\":756:40143  contract Nanakshahi {... */\n  dup5\n  add\n  sstore\n  mload\n  swap2\n  add\n  sstore\n  dup1\n  0x00\n  mstore\n    /* \"contracts/modules/SponsorMatrix.sol\":8443:8452  poolUsers */\n  0x25\n    /* \"contracts/modules/SponsorMatrix.sol\":756:40143  contract Nanakshahi {... */\n  0x20\n  mstore\n    /* \"contracts/modules/SponsorMatrix.sol\":8443:8474  poolUsers[j].push(defaultRefId) */\n  tag_59\n    /* \"contracts/modules/SponsorMatrix.sol\":756:40143  contract Nanakshahi {... */\n  keccak256(0x00, 0x40)\n  sload(0x05)\n    /* \"contracts/modules/SponsorMatrix.sol\":8443:8474  poolUsers[j].push(defaultRefId) */\n  swap1\n  tag_6\n  jump\t// in\ntag_59:\n    /* \"contracts/modules/SponsorMatrix.sol\":756:40143  contract Nanakshahi {... */\n  dup1\n  0x00\n  mstore\n    /* \"contracts/modules/SponsorMatrix.sol\":8489:8502  userIdPerPool */\n  0x24\n    /* \"contracts/modules/SponsorMatrix.sol\":756:40143  contract Nanakshahi {... */\n  0x20\n  mstore\n    /* \"contracts/modules/SponsorMatrix.sol\":8489:8538  userIdPerPool[j][defaultRefId].push(defaultRefId) */\n  tag_60\n    /* \"contracts/modules/SponsorMatrix.sol\":756:40143  contract Nanakshahi {... */\n  keccak256(0x00, 0x40)\n  sload(0x05)\n  swap1\n  dup2\n  0x00\n  mstore\n  0x20\n  mstore\n  keccak256(0x00, 0x40)\n    /* \"contracts/modules/SponsorMatrix.sol\":8489:8538  userIdPerPool[j][defaultRefId].push(defaultRefId) */\n  tag_6\n  jump\t// in\ntag_60:\n    /* \"contracts/modules/SponsorMatrix.sol\":756:40143  contract Nanakshahi {... */\n  add\n    /* \"contracts/modules/SponsorMatrix.sol\":8105:8115  uint j = 0 */\n  swap1\n  jump(tag_51)\n    /* \"contracts/modules/SponsorMatrix.sol\":756:40143  contract Nanakshahi {... */\ntag_57:\n  mstore(0x00, shl(0xe0, 0x4e487b71))\n  0x41\n    /* \"contracts/modules/SponsorMatrix.sol\":2186:2187  4 */\n  0x04\n    /* \"contracts/modules/SponsorMatrix.sol\":756:40143  contract Nanakshahi {... */\n  mstore\n    /* \"contracts/modules/SponsorMatrix.sol\":8489:8502  userIdPerPool */\n  0x24\n  0x00\n    /* \"contracts/modules/SponsorMatrix.sol\":756:40143  contract Nanakshahi {... */\n  revert\ntag_54:\n  mstore(0x00, shl(0xe0, 0x4e487b71))\n  0x32\n    /* \"contracts/modules/SponsorMatrix.sol\":2186:2187  4 */\n  0x04\n    /* \"contracts/modules/SponsorMatrix.sol\":756:40143  contract Nanakshahi {... */\n  mstore\n    /* \"contracts/modules/SponsorMatrix.sol\":8489:8502  userIdPerPool */\n  0x24\n  0x00\n    /* \"contracts/modules/SponsorMatrix.sol\":756:40143  contract Nanakshahi {... */\n  revert\n    /* \"contracts/modules/SponsorMatrix.sol\":8117:8140  j < poolPackages.length */\ntag_52:\n    /* \"contracts/modules/SponsorMatrix.sol\":8560:8579  creator.poolDeposit */\n  0x0c\n  dup4\n  add\n    /* \"contracts/modules/SponsorMatrix.sol\":756:40143  contract Nanakshahi {... */\n  sstore\n  pop\n  0x00\n  swap1\n  dup2\n    /* \"contracts/modules/SponsorMatrix.sol\":8650:8655  k < 8 */\ntag_61:\n    /* \"contracts/modules/SponsorMatrix.sol\":1899:1963  [75e18, 300e18, 1200e18, 4800e18, 19200e18, 76800e18, 307200e18] */\n  0x08\n    /* \"contracts/modules/SponsorMatrix.sol\":8650:8655  k < 8 */\n  dup2\n  lt\n  tag_62\n  jumpi\n    /* \"contracts/modules/SponsorMatrix.sol\":9015:9037  creator.boosterDeposit */\n  pop\n  0x0e\n  add\n    /* \"contracts/modules/SponsorMatrix.sol\":756:40143  contract Nanakshahi {... */\n  sstore\n  mload(0x40)\n  dataSize(sub_0)\n  swap1\n  dup2\n  dataOffset(sub_0)\n  dup3\n  codecopy\n  return\n    /* \"contracts/modules/SponsorMatrix.sol\":8657:8660  k++ */\ntag_62:\n    /* \"contracts/modules/SponsorMatrix.sol\":8694:8715  GlbBoosterPackages[k] */\n  swap1\n  swap2\n    /* \"contracts/modules/SponsorMatrix.sol\":2005:2075  [ 100e18, 200e18, 400e18, 800e18, 1600e18, 3200e18, 6400e18, 12800e18] */\n  0x09\n    /* \"contracts/modules/SponsorMatrix.sol\":756:40143  contract Nanakshahi {... */\n  sload\n  dup3\n  lt\n  iszero\n  tag_54\n  jumpi\n    /* \"contracts/modules/SponsorMatrix.sol\":2005:2075  [ 100e18, 200e18, 400e18, 800e18, 1600e18, 3200e18, 6400e18, 12800e18] */\n  0x09\n  0x00\n    /* \"contracts/modules/SponsorMatrix.sol\":756:40143  contract Nanakshahi {... */\n  mstore\n  mload(0x00)\n  codecopy(0x00, data_aef723aaf2a9471d0444688035cd22ee9e9408f4d3390ce0a2a80b76aeab390a, 0x20)\n  mload(0x00)\n  swap1\n  0x00\n  mstore\n  dup3\n  add\n  sload\n    /* \"contracts/modules/SponsorMatrix.sol\":8678:8715  totalDeposit += GlbBoosterPackages[k] */\n  tag_66\n  swap2\n  tag_5\n  jump\t// in\ntag_66:\n    /* \"contracts/modules/SponsorMatrix.sol\":756:40143  contract Nanakshahi {... */\n  sload(0x05)\n  mload(0x40)\n  swap2\n  swap3\n  swap1\n  swap2\n  0x80\n  dup2\n  add\n  sub(shl(0x40, 0x01), 0x01)\n  dup2\n  gt\n  dup3\n  dup3\n  lt\n  or\n  tag_57\n  jumpi\n  0x01\n  swap4\n    /* \"contracts/modules/SponsorMatrix.sol\":2116:2117  3 */\n  0x03\n    /* \"contracts/modules/SponsorMatrix.sol\":756:40143  contract Nanakshahi {... */\n  swap2\n  0x40\n  mstore\n  dup1\n  dup4\n  mstore\n  0x20\n    /* \"contracts/modules/SponsorMatrix.sol\":8764:8931  UserBooster({... */\n  dup4\n  add\n    /* \"contracts/modules/SponsorMatrix.sol\":756:40143  contract Nanakshahi {... */\n  dup5\n  dup2\n  mstore\n  0x40\n    /* \"contracts/modules/SponsorMatrix.sol\":8764:8931  UserBooster({... */\n  dup5\n  add\n    /* \"contracts/modules/SponsorMatrix.sol\":756:40143  contract Nanakshahi {... */\n  swap1\n  0x00\n  dup3\n  mstore\n  0x60\n    /* \"contracts/modules/SponsorMatrix.sol\":8764:8931  UserBooster({... */\n  dup6\n  add\n    /* \"contracts/modules/SponsorMatrix.sol\":756:40143  contract Nanakshahi {... */\n  swap3\n  0x00\n  dup5\n  mstore\n  dup7\n  0x00\n  mstore\n    /* \"contracts/modules/SponsorMatrix.sol\":8730:8744  userBoosterdtl */\n  0x27\n    /* \"contracts/modules/SponsorMatrix.sol\":756:40143  contract Nanakshahi {... */\n  0x20\n  mstore\n  keccak256(0x00, 0x40)\n  swap1\n  0x00\n  mstore\n  0x20\n  mstore\n  keccak256(0x00, 0x40)\n  swap5\n  mload\n  dup6\n  sstore\n  mload\n  dup7\n  dup6\n  add\n  sstore\n  mload\n    /* \"contracts/modules/SponsorMatrix.sol\":7205:7235  creatorWallet = _creatorWallet */\n  0x02\n    /* \"contracts/modules/SponsorMatrix.sol\":756:40143  contract Nanakshahi {... */\n  dup5\n  add\n  sstore\n  mload\n  swap2\n  add\n  sstore\n  dup1\n  0x00\n  mstore\n    /* \"contracts/modules/SponsorMatrix.sol\":8946:8958  boosterUsers */\n  0x29\n    /* \"contracts/modules/SponsorMatrix.sol\":756:40143  contract Nanakshahi {... */\n  0x20\n  mstore\n    /* \"contracts/modules/SponsorMatrix.sol\":8946:8980  boosterUsers[k].push(defaultRefId) */\n  tag_69\n    /* \"contracts/modules/SponsorMatrix.sol\":756:40143  contract Nanakshahi {... */\n  keccak256(0x00, 0x40)\n  sload(0x05)\n    /* \"contracts/modules/SponsorMatrix.sol\":8946:8980  boosterUsers[k].push(defaultRefId) */\n  swap1\n  tag_6\n  jump\t// in\ntag_69:\n    /* \"contracts/modules/SponsorMatrix.sol\":756:40143  contract Nanakshahi {... */\n  add\n    /* \"contracts/modules/SponsorMatrix.sol\":8638:8648  uint k = 0 */\n  swap2\n  swap1\n  swap2\n  jump(tag_61)\n    /* \"contracts/modules/SponsorMatrix.sol\":7904:7907  i++ */\ntag_49:\n    /* \"contracts/modules/SponsorMatrix.sol\":7940:7951  packages[i] */\n  swap1\n  swap2\n    /* \"contracts/modules/SponsorMatrix.sol\":756:40143  contract Nanakshahi {... */\n  dup2\n  dup4\n  lt\n  iszero\n  tag_54\n  jumpi\n    /* \"contracts/modules/SponsorMatrix.sol\":1348:1863  [... */\n  0x07\n  0x00\n    /* \"contracts/modules/SponsorMatrix.sol\":756:40143  contract Nanakshahi {... */\n  mstore\n  mload(0x00)\n  codecopy(0x00, data_607bca8f7c1c56da874da29cd62c3769b9880d38a258a91fc6dd1cfb6b4d1a8e, 0x20)\n  mload(0x00)\n  swap1\n  0x00\n  mstore\n  dup4\n  add\n  sload\n  0x01\n  swap2\n    /* \"contracts/modules/SponsorMatrix.sol\":7924:7951  totalDeposit += packages[i] */\n  tag_72\n  swap2\n    /* \"contracts/modules/SponsorMatrix.sol\":756:40143  contract Nanakshahi {... */\n  swap1\n    /* \"contracts/modules/SponsorMatrix.sol\":7924:7951  totalDeposit += packages[i] */\n  tag_5\n  jump\t// in\ntag_72:\n    /* \"contracts/modules/SponsorMatrix.sol\":7904:7907  i++ */\n  swap3\n    /* \"contracts/modules/SponsorMatrix.sol\":756:40143  contract Nanakshahi {... */\n  add\n    /* \"contracts/modules/SponsorMatrix.sol\":7884:7894  uint i = 0 */\n  swap1\n  jump(tag_48)\n    /* \"contracts/modules/SponsorMatrix.sol\":756:40143  contract Nanakshahi {... */\ntag_46:\n  0x01\n  swap1\n  0x20\n  0xff\n  dup5\n  mload\n  and\n  swap4\n  add\n  swap3\n  dup2\n    /* \"contracts/modules/SponsorMatrix.sol\":2255:2278  [0, 1, 1, 1, 1, 1, 1,1] */\n  0x19\n    /* \"contracts/modules/SponsorMatrix.sol\":756:40143  contract Nanakshahi {... */\n  add\n  sstore\n  add\n  jump(tag_45)\ntag_42:\n  0x01\n  swap1\n  0x20\n  0xff\n  dup5\n  mload\n  and\n  swap4\n  add\n  swap3\n  dup2\n    /* \"contracts/modules/SponsorMatrix.sol\":2185:2210  [4, 5, 6, 7, 8, 9, 10,11] */\n  0x11\n    /* \"contracts/modules/SponsorMatrix.sol\":756:40143  contract Nanakshahi {... */\n  add\n  sstore\n  add\n  jump(tag_41)\ntag_38:\n  0x01\n  swap1\n  0x20\n  0xff\n  dup5\n  mload\n  and\n  swap4\n  add\n  swap3\n  dup2\n    /* \"contracts/modules/SponsorMatrix.sol\":2115:2139  [3, 5, 7, 9, 11, 13, 15] */\n  0x0a\n    /* \"contracts/modules/SponsorMatrix.sol\":756:40143  contract Nanakshahi {... */\n  add\n  sstore\n  add\n  jump(tag_37)\ntag_34:\n  dup2\n  mload\n  sub(shl(0x50, 0x01), 0x01)\n  and\n  dup2\n  dup5\n  add\n  sstore\n  0x20\n  swap1\n  swap2\n  add\n  swap1\n  0x01\n  add\n  jump(tag_33)\ntag_31:\n    /* \"contracts/modules/SponsorMatrix.sol\":2005:2075  [ 100e18, 200e18, 400e18, 800e18, 1600e18, 3200e18, 6400e18, 12800e18] */\n  0x09\n  0x00\n    /* \"contracts/modules/SponsorMatrix.sol\":756:40143  contract Nanakshahi {... */\n  mstore\n  tag_73\n  swap1\n  mload(0x00)\n  codecopy(0x00, data_aef723aaf2a9471d0444688035cd22ee9e9408f4d3390ce0a2a80b76aeab390a, 0x20)\n  mload(0x00)\n  swap1\n  0x00\n  mstore\n  add\n  0x6e1540171b6c0c960b71a7020d9f60077f6af931a8bbf590da0223dacf75c7b7\n  tag_4\n  jump\t// in\ntag_73:\n  0x00\n  jump(tag_32)\ntag_28:\n  dup2\n  mload\n  sub(shl(0x50, 0x01), 0x01)\n  and\n  dup2\n  dup5\n  add\n  sstore\n  0x20\n  swap1\n  swap2\n  add\n  swap1\n  0x01\n  add\n  jump(tag_27)\ntag_25:\n    /* \"contracts/modules/SponsorMatrix.sol\":1899:1963  [75e18, 300e18, 1200e18, 4800e18, 19200e18, 76800e18, 307200e18] */\n  0x08\n  0x00\n    /* \"contracts/modules/SponsorMatrix.sol\":756:40143  contract Nanakshahi {... */\n  mstore\n  tag_74\n  swap1\n  mload(0x00)\n  codecopy(0x00, data_a7c46294ffa3fad92dc8422b2e38b688ccf1b86172f5beaf864af9368d2844e5, 0x20)\n  mload(0x00)\n  swap1\n  0x00\n  mstore\n  add\n  0xf3f7a9fe364faab93b216da50a3214154f22a0a2b415b23a84c8169e8b636eea\n  tag_4\n  jump\t// in\ntag_74:\n  0x00\n  jump(tag_26)\ntag_22:\n  dup2\n  mload\n  sub(shl(0x50, 0x01), 0x01)\n  and\n  dup2\n  dup5\n  add\n  sstore\n  0x20\n  swap1\n  swap2\n  add\n  swap1\n  0x01\n  add\n  jump(tag_21)\ntag_19:\n    /* \"contracts/modules/SponsorMatrix.sol\":1348:1863  [... */\n  0x07\n  0x00\n    /* \"contracts/modules/SponsorMatrix.sol\":756:40143  contract Nanakshahi {... */\n  mstore\n  tag_75\n  swap1\n  mload(0x00)\n  codecopy(0x00, data_607bca8f7c1c56da874da29cd62c3769b9880d38a258a91fc6dd1cfb6b4d1a8e, 0x20)\n  mload(0x00)\n  swap1\n  0x00\n  mstore\n  add\n  0xa66cc928b5edb82af9bd49922954155ab7b0942694bea4ce44661d9a8736c697\n  tag_4\n  jump\t// in\ntag_75:\n  0x00\n  jump(tag_20)\ntag_11:\n  0x00\n  dup1\n  revert\ntag_1:\n  mload(0x40)\n  swap1\n  0xe0\n  dup3\n  add\n  sub(shl(0x40, 0x01), 0x01)\n  dup2\n  gt\n  dup4\n  dup3\n  lt\n  or\n  tag_57\n  jumpi\n  0x40\n  mstore\n  jump\t// out\ntag_2:\n  mload(0x40)\n  swap1\n  0x0100\n  dup3\n  add\n  sub(shl(0x40, 0x01), 0x01)\n  dup2\n  gt\n  dup4\n  dup3\n  lt\n  or\n  tag_57\n  jumpi\n  0x40\n  mstore\n  jump\t// out\ntag_3:\n  mload\n  swap1\n  sub(shl(0xa0, 0x01), 0x01)\n  dup3\n  and\n  dup3\n  sub\n  tag_11\n  jumpi\n  jump\t// out\ntag_4:\n  dup2\n  dup2\n  lt\n  tag_83\n  jumpi\n  pop\n  pop\n  jump\t// out\ntag_83:\n  0x00\n  dup2\n  sstore\n  0x01\n  add\n  jump(tag_4)\ntag_5:\n  swap2\n  swap1\n  dup3\n  add\n  dup1\n  swap3\n  gt\n  tag_85\n  jumpi\n  jump\t// out\ntag_85:\n  mstore(0x00, shl(0xe0, 0x4e487b71))\n  mstore(0x04, 0x11)\n  revert(0x00, 0x24)\ntag_6:\n  dup1\n  sload\n  swap1\n  0x010000000000000000\n  dup3\n  lt\n  iszero\n  tag_57\n  jumpi\n  0x01\n  dup3\n  add\n  dup1\n  dup3\n  sstore\n  dup3\n  lt\n  iszero\n  tag_54\n  jumpi\n  0x00\n  mstore\n  keccak256(0x00, 0x20)\n  add\n  sstore\n  jump\t// out\nstop\ndata_607bca8f7c1c56da874da29cd62c3769b9880d38a258a91fc6dd1cfb6b4d1a8e a66cc928b5edb82af9bd49922954155ab7b0942694bea4ce44661d9a8736c688\ndata_a7c46294ffa3fad92dc8422b2e38b688ccf1b86172f5beaf864af9368d2844e5 f3f7a9fe364faab93b216da50a3214154f22a0a2b415b23a84c8169e8b636ee3\ndata_aef723aaf2a9471d0444688035cd22ee9e9408f4d3390ce0a2a80b76aeab390a 6e1540171b6c0c960b71a7020d9f60077f6af931a8bbf590da0223dacf75c7af\n\nsub_0: assembly {\n        /* \"contracts/modules/SponsorMatrix.sol\":756:40143  contract Nanakshahi {... */\n      0x80\n      dup1\n      0x40\n      mstore\n      jumpi(tag_46, iszero(lt(calldatasize, 0x04)))\n      0x00\n      dup1\n      revert\n    tag_46:\n      shr(0xe0, calldataload(0x00))\n      swap1\n      dup2\n      0x01be02b2\n      eq\n      tag_48\n      jumpi\n      pop\n      dup1\n      0x01c234a8\n      eq\n      tag_50\n      jumpi\n      dup1\n      0x0ef81b74\n      eq\n      tag_52\n      jumpi\n      dup1\n      0x0f2b7cc9\n      eq\n      tag_54\n      jumpi\n      dup1\n      0x18ab487f\n      eq\n      tag_56\n      jumpi\n      dup1\n      0x1f6ab899\n      eq\n      tag_58\n      jumpi\n      dup1\n      0x2132d204\n      eq\n      tag_60\n      jumpi\n      dup1\n      0x24513088\n      eq\n      tag_62\n      jumpi\n      dup1\n      0x2c831633\n      eq\n      tag_64\n      jumpi\n      dup1\n      0x2f48ab7d\n      eq\n      tag_66\n      jumpi\n      dup1\n      0x32bc298c\n      eq\n      tag_68\n      jumpi\n      dup1\n      0x32fcd966\n      eq\n      tag_70\n      jumpi\n      dup1\n      0x365b98b2\n      eq\n      tag_72\n      jumpi\n      dup1\n      0x375b43b4\n      eq\n      tag_74\n      jumpi\n      dup1\n      0x39ab3603\n      eq\n      tag_76\n      jumpi\n      dup1\n      0x4060160a\n      eq\n      tag_78\n      jumpi\n      dup1\n      0x45977d03\n      eq\n      tag_80\n      jumpi\n      dup1\n      0x46b9dece\n      eq\n      tag_82\n      jumpi\n      dup1\n      0x52a8c4c4\n      eq\n      tag_84\n      jumpi\n      dup1\n      0x58c7d352\n      eq\n      tag_86\n      jumpi\n      dup1\n      0x5aabf7f1\n      eq\n      tag_88\n      jumpi\n      dup1\n      0x5ec64a44\n      eq\n      tag_90\n      jumpi\n      dup1\n      0x67d52d4d\n      eq\n      tag_92\n      jumpi\n      dup1\n      0x70c8d770\n      eq\n      tag_94\n      jumpi\n      dup1\n      0x78f6ad6d\n      eq\n      tag_96\n      jumpi\n      dup1\n      0x7cdc65f2\n      eq\n      tag_98\n      jumpi\n      dup1\n      0x81a0b816\n      eq\n      tag_100\n      jumpi\n      dup1\n      0x88afbe3e\n      eq\n      tag_102\n      jumpi\n      dup1\n      0x8d58644c\n      eq\n      tag_104\n      jumpi\n      dup1\n      0x8da5cb5b\n      eq\n      tag_106\n      jumpi\n      dup1\n      0x8e222e24\n      eq\n      tag_108\n      jumpi\n      dup1\n      0x8f030ece\n      eq\n      tag_110\n      jumpi\n      dup1\n      0x907c84a7\n      eq\n      tag_112\n      jumpi\n      dup1\n      0x956a3228\n      eq\n      tag_114\n      jumpi\n      dup1\n      0x9c383486\n      eq\n      tag_116\n      jumpi\n      dup1\n      0x9e234631\n      eq\n      tag_118\n      jumpi\n      dup1\n      0xae4708dc\n      eq\n      tag_120\n      jumpi\n      dup1\n      0xbc1fa7c0\n      eq\n      tag_122\n      jumpi\n      dup1\n      0xbd1aae40\n      eq\n      tag_124\n      jumpi\n      dup1\n      0xbf724672\n      eq\n      tag_126\n      jumpi\n      dup1\n      0xbff1f9e1\n      eq\n      tag_128\n      jumpi\n      dup1\n      0xc216212a\n      eq\n      tag_130\n      jumpi\n      dup1\n      0xc7bb62e8\n      eq\n      tag_132\n      jumpi\n      dup1\n      0xcb0e0d7d\n      eq\n      tag_134\n      jumpi\n      dup1\n      0xce79c2c3\n      eq\n      tag_136\n      jumpi\n      dup1\n      0xd0a2fd79\n      eq\n      tag_138\n      jumpi\n      dup1\n      0xd54d6ddb\n      eq\n      tag_140\n      jumpi\n      dup1\n      0xe9e34a16\n      eq\n      tag_142\n      jumpi\n      dup1\n      0xec597e6f\n      eq\n      tag_144\n      jumpi\n      dup1\n      0xf207564e\n      eq\n      tag_146\n      jumpi\n      0xf5d74d93\n      eq\n      tag_148\n      jumpi\n      0x00\n      dup1\n      revert\n    tag_148:\n      jumpi(tag_152, callvalue)\n      jumpi(tag_152, slt(add(not(0x03), calldatasize), 0x00))\n      sload(0x04)\n      mload(0x40)\n      sub(shl(0xa0, 0x01), 0x01)\n      swap1\n      swap2\n      and\n      dup2\n      mstore\n      0x20\n      swap1\n      return\n    tag_152:\n      0x00\n      dup1\n      revert\n    tag_146:\n      jumpi(tag_152, callvalue)\n      jumpi(tag_152, slt(add(not(0x03), calldatasize), 0x20))\n      calldataload(0x04)\n        /* \"contracts/modules/SponsorMatrix.sol\":22832:22842  msg.sender */\n      caller\n        /* \"contracts/modules/SponsorMatrix.sol\":756:40143  contract Nanakshahi {... */\n      0x00\n      mstore\n        /* \"contracts/modules/SponsorMatrix.sol\":22820:22831  addressToId */\n      0x2b\n        /* \"contracts/modules/SponsorMatrix.sol\":756:40143  contract Nanakshahi {... */\n      0x20\n      mstore\n      jumpi(tag_158, sload(keccak256(0x00, 0x40)))\n      dup1\n      0x00\n      mstore\n        /* \"contracts/modules/SponsorMatrix.sol\":22890:22895  users */\n      0x2c\n        /* \"contracts/modules/SponsorMatrix.sol\":756:40143  contract Nanakshahi {... */\n      0x20\n      mstore\n        /* \"contracts/modules/SponsorMatrix.sol\":22890:22910  users[_sponsorId].id */\n      0x03\n        /* \"contracts/modules/SponsorMatrix.sol\":756:40143  contract Nanakshahi {... */\n      keccak256(0x00, 0x40)\n        /* \"contracts/modules/SponsorMatrix.sol\":22890:22910  users[_sponsorId].id */\n      add\n        /* \"contracts/modules/SponsorMatrix.sol\":756:40143  contract Nanakshahi {... */\n      sload\n        /* \"contracts/modules/SponsorMatrix.sol\":22890:22914  users[_sponsorId].id > 0 */\n      iszero\n        /* \"contracts/modules/SponsorMatrix.sol\":756:40143  contract Nanakshahi {... */\n      tag_160\n      jumpi\n      0x00\n      dup1\n      sload\n      0x20\n      swap1\n        /* \"contracts/modules/SponsorMatrix.sol\":23003:23060  usdt.transferFrom(msg.sender, address(this), packages[0]) */\n      tag_162\n      swap1\n      sub(shl(0xa0, 0x01), 0x01)\n        /* \"contracts/modules/SponsorMatrix.sol\":756:40143  contract Nanakshahi {... */\n      and\n        /* \"contracts/modules/SponsorMatrix.sol\":23048:23059  packages[0] */\n      tag_163\n      tag_5\n      jump\t// in\n    tag_163:\n        /* \"contracts/modules/SponsorMatrix.sol\":756:40143  contract Nanakshahi {... */\n      swap1\n      sload\n      mload(0x40)\n      shl(0xe0, 0x23b872dd)\n        /* \"contracts/modules/SponsorMatrix.sol\":23003:23060  usdt.transferFrom(msg.sender, address(this), packages[0]) */\n      dup2\n      mstore\n        /* \"contracts/modules/SponsorMatrix.sol\":22832:22842  msg.sender */\n      caller\n        /* \"contracts/modules/SponsorMatrix.sol\":756:40143  contract Nanakshahi {... */\n      0x04\n        /* \"contracts/modules/SponsorMatrix.sol\":23003:23060  usdt.transferFrom(msg.sender, address(this), packages[0]) */\n      dup3\n      add\n        /* \"contracts/modules/SponsorMatrix.sol\":756:40143  contract Nanakshahi {... */\n      mstore\n        /* \"contracts/modules/SponsorMatrix.sol\":23041:23045  this */\n      address\n        /* \"contracts/modules/SponsorMatrix.sol\":756:40143  contract Nanakshahi {... */\n      0x24\n      dup3\n      add\n      mstore\n        /* \"contracts/modules/SponsorMatrix.sol\":22890:22910  users[_sponsorId].id */\n      0x03\n        /* \"contracts/modules/SponsorMatrix.sol\":756:40143  contract Nanakshahi {... */\n      swap3\n      swap1\n      swap3\n      shl\n      shr\n      0x44\n      dup3\n      add\n      mstore\n      swap4\n      dup5\n      swap3\n      dup4\n      swap2\n      swap1\n      dup3\n      swap1\n      0x64\n      dup3\n      add\n      swap1\n      jump\n        /* \"contracts/modules/SponsorMatrix.sol\":23003:23060  usdt.transferFrom(msg.sender, address(this), packages[0]) */\n    tag_162:\n      sub\n      swap3\n      gas\n      call\n      dup1\n      iszero\n      tag_164\n      jumpi\n      tag_166\n      jumpi\n        /* \"contracts/modules/SponsorMatrix.sol\":756:40143  contract Nanakshahi {... */\n    tag_167:\n      pop\n        /* \"contracts/modules/SponsorMatrix.sol\":23136:23148  defaultRefId */\n      0x05\n        /* \"contracts/modules/SponsorMatrix.sol\":756:40143  contract Nanakshahi {... */\n      sload\n        /* \"contracts/modules/SponsorMatrix.sol\":23152:23162  totalUsers */\n      0x06\n        /* \"contracts/modules/SponsorMatrix.sol\":756:40143  contract Nanakshahi {... */\n      sload\n        /* \"contracts/modules/SponsorMatrix.sol\":23136:23148  defaultRefId */\n      0x05\n        /* \"contracts/modules/SponsorMatrix.sol\":756:40143  contract Nanakshahi {... */\n      dup2\n      mul\n      swap1\n      dup1\n      dup3\n      div\n        /* \"contracts/modules/SponsorMatrix.sol\":23136:23148  defaultRefId */\n      0x05\n        /* \"contracts/modules/SponsorMatrix.sol\":756:40143  contract Nanakshahi {... */\n      eq\n      swap1\n      iszero\n      or\n      iszero\n      tag_199\n      jumpi\n        /* \"contracts/modules/SponsorMatrix.sol\":23136:23167  defaultRefId + (totalUsers * 5) */\n      tag_170\n      swap2\n      tag_14\n      jump\t// in\n    tag_170:\n        /* \"contracts/modules/SponsorMatrix.sol\":22832:22842  msg.sender */\n      swap1\n      caller\n        /* \"contracts/modules/SponsorMatrix.sol\":756:40143  contract Nanakshahi {... */\n      0x00\n      mstore\n        /* \"contracts/modules/SponsorMatrix.sol\":22820:22831  addressToId */\n      0x2b\n        /* \"contracts/modules/SponsorMatrix.sol\":756:40143  contract Nanakshahi {... */\n      0x20\n      mstore\n      dup2\n      keccak256(0x00, 0x40)\n      sstore\n      dup2\n      0x00\n      mstore\n        /* \"contracts/modules/SponsorMatrix.sol\":22890:22895  users */\n      0x2c\n        /* \"contracts/modules/SponsorMatrix.sol\":756:40143  contract Nanakshahi {... */\n      0x20\n      mstore\n      keccak256(0x00, 0x40)\n        /* \"contracts/modules/SponsorMatrix.sol\":22832:22842  msg.sender */\n      swap1\n      caller\n        /* \"contracts/modules/SponsorMatrix.sol\":756:40143  contract Nanakshahi {... */\n      shl(0xa0, 0xffffffffffffffffffffffff)\n      dup4\n      sload\n      and\n      or\n      dup3\n      sstore\n        /* \"contracts/modules/SponsorMatrix.sol\":23335:23350  block.timestamp */\n      timestamp\n        /* \"contracts/modules/SponsorMatrix.sol\":23317:23332  user.checkpoint */\n      0x02\n      dup4\n      add\n        /* \"contracts/modules/SponsorMatrix.sol\":756:40143  contract Nanakshahi {... */\n      sstore\n        /* \"contracts/modules/SponsorMatrix.sol\":23361:23368  user.id */\n      dup3\n        /* \"contracts/modules/SponsorMatrix.sol\":22890:22910  users[_sponsorId].id */\n      0x03\n        /* \"contracts/modules/SponsorMatrix.sol\":23361:23368  user.id */\n      dup4\n      add\n        /* \"contracts/modules/SponsorMatrix.sol\":756:40143  contract Nanakshahi {... */\n      sstore\n      0x04\n        /* \"contracts/modules/SponsorMatrix.sol\":23391:23405  user.sponsorId */\n      dup3\n      add\n        /* \"contracts/modules/SponsorMatrix.sol\":756:40143  contract Nanakshahi {... */\n      dup2\n      dup2\n      sstore\n      0x01\n        /* \"contracts/modules/SponsorMatrix.sol\":23152:23162  totalUsers */\n      0x06\n        /* \"contracts/modules/SponsorMatrix.sol\":23429:23439  user.level */\n      dup5\n      add\n        /* \"contracts/modules/SponsorMatrix.sol\":756:40143  contract Nanakshahi {... */\n      sstore\n        /* \"contracts/modules/SponsorMatrix.sol\":23474:23485  packages[0] */\n      tag_171\n      tag_5\n      jump\t// in\n    tag_171:\n        /* \"contracts/modules/SponsorMatrix.sol\":756:40143  contract Nanakshahi {... */\n      swap1\n      sload\n      swap1\n        /* \"contracts/modules/SponsorMatrix.sol\":22890:22910  users[_sponsorId].id */\n      0x03\n        /* \"contracts/modules/SponsorMatrix.sol\":756:40143  contract Nanakshahi {... */\n      shl\n      shr\n        /* \"contracts/modules/SponsorMatrix.sol\":23454:23471  user.totalDeposit */\n      0x0a\n      dup5\n      add\n        /* \"contracts/modules/SponsorMatrix.sol\":756:40143  contract Nanakshahi {... */\n      sstore\n        /* \"contracts/modules/SponsorMatrix.sol\":23335:23350  block.timestamp */\n      timestamp\n        /* \"contracts/modules/SponsorMatrix.sol\":23496:23517  user.registrationTime */\n      0x0f\n      dup5\n      add\n        /* \"contracts/modules/SponsorMatrix.sol\":756:40143  contract Nanakshahi {... */\n      sstore\n      dup2\n      0x00\n      mstore\n        /* \"contracts/modules/SponsorMatrix.sol\":22890:22895  users */\n      0x2c\n        /* \"contracts/modules/SponsorMatrix.sol\":756:40143  contract Nanakshahi {... */\n      0x20\n      mstore\n        /* \"contracts/modules/SponsorMatrix.sol\":23048:23056  packages */\n      0x07\n        /* \"contracts/modules/SponsorMatrix.sol\":756:40143  contract Nanakshahi {... */\n      keccak256(0x00, 0x40)\n        /* \"contracts/modules/SponsorMatrix.sol\":23601:23629  users[_sponsorId].directTeam */\n      add\n        /* \"contracts/modules/SponsorMatrix.sol\":756:40143  contract Nanakshahi {... */\n      dup1\n      sload\n      swap1\n      0x01\n      dup3\n      add\n      dup1\n      swap3\n      gt\n      tag_199\n      jumpi\n      sstore\n      dup2\n      0x00\n      mstore\n        /* \"contracts/modules/SponsorMatrix.sol\":23645:23660  directReferrals */\n      0x31\n        /* \"contracts/modules/SponsorMatrix.sol\":756:40143  contract Nanakshahi {... */\n      0x20\n      mstore\n        /* \"contracts/modules/SponsorMatrix.sol\":23645:23688  directReferrals[_sponsorId].push(newUserId) */\n      tag_174\n        /* \"contracts/modules/SponsorMatrix.sol\":756:40143  contract Nanakshahi {... */\n      dup5\n      keccak256(0x00, 0x40)\n        /* \"contracts/modules/SponsorMatrix.sol\":23645:23688  directReferrals[_sponsorId].push(newUserId) */\n      tag_31\n      jump\t// in\n    tag_174:\n        /* \"contracts/modules/SponsorMatrix.sol\":23699:23716  registeredUserIds */\n      0x38\n        /* \"contracts/modules/SponsorMatrix.sol\":756:40143  contract Nanakshahi {... */\n      sload\n      shl(0x40, 0x01)\n      dup2\n      lt\n      iszero\n      tag_175\n      jumpi\n      dup1\n      0x01\n      tag_177\n      swap3\n      add\n        /* \"contracts/modules/SponsorMatrix.sol\":23699:23716  registeredUserIds */\n      0x38\n        /* \"contracts/modules/SponsorMatrix.sol\":756:40143  contract Nanakshahi {... */\n      sstore\n        /* \"contracts/modules/SponsorMatrix.sol\":23699:23716  registeredUserIds */\n      0x38\n        /* \"contracts/modules/SponsorMatrix.sol\":756:40143  contract Nanakshahi {... */\n      tag_6\n      jump\t// in\n    tag_177:\n      dup2\n      sload\n      swap1\n        /* \"contracts/modules/SponsorMatrix.sol\":22890:22910  users[_sponsorId].id */\n      0x03\n        /* \"contracts/modules/SponsorMatrix.sol\":756:40143  contract Nanakshahi {... */\n      shl\n      swap1\n      dup7\n      dup3\n      shl\n      swap2\n      not(0x00)\n      swap1\n      shl\n      not\n      and\n      or\n      swap1\n      sstore\n        /* \"contracts/modules/SponsorMatrix.sol\":23770:23789  communityAccPerUser */\n      0x32\n        /* \"contracts/modules/SponsorMatrix.sol\":756:40143  contract Nanakshahi {... */\n      sload\n      dup5\n      0x00\n      mstore\n        /* \"contracts/modules/SponsorMatrix.sol\":23743:23756  communityDebt */\n      0x33\n        /* \"contracts/modules/SponsorMatrix.sol\":756:40143  contract Nanakshahi {... */\n      0x20\n      mstore\n      keccak256(0x00, 0x40)\n      sstore\n      0x00\n      0x00\n      swap1\n      dup4\n      0x00\n      mstore\n        /* \"contracts/modules/SponsorMatrix.sol\":30340:30352  matrixDirect */\n      0x30\n        /* \"contracts/modules/SponsorMatrix.sol\":756:40143  contract Nanakshahi {... */\n      0x20\n      mstore\n        /* \"contracts/modules/SponsorMatrix.sol\":23317:23332  user.checkpoint */\n      0x02\n        /* \"contracts/modules/SponsorMatrix.sol\":756:40143  contract Nanakshahi {... */\n      sload(keccak256(0x00, 0x40))\n        /* \"contracts/modules/SponsorMatrix.sol\":30340:30368  matrixDirect[_sponsorId] < 2 */\n      lt\n        /* \"contracts/modules/SponsorMatrix.sol\":30337:31337  if(matrixDirect[_sponsorId] < 2) {... */\n      0x00\n        /* \"contracts/modules/SponsorMatrix.sol\":23317:23332  user.checkpoint */\n      eq\n      tag_178\n      jumpi\n        /* \"contracts/modules/SponsorMatrix.sol\":756:40143  contract Nanakshahi {... */\n      pop\n      pop\n      dup4\n      0x00\n      mstore\n        /* \"contracts/modules/SponsorMatrix.sol\":22890:22895  users */\n      0x2c\n        /* \"contracts/modules/SponsorMatrix.sol\":756:40143  contract Nanakshahi {... */\n      0x20\n      mstore\n      dup2\n        /* \"contracts/modules/SponsorMatrix.sol\":23136:23148  defaultRefId */\n      0x05\n        /* \"contracts/modules/SponsorMatrix.sol\":756:40143  contract Nanakshahi {... */\n      keccak256(0x00, 0x40)\n        /* \"contracts/modules/SponsorMatrix.sol\":30385:30411  users[_newUserId].uplineId */\n      add\n        /* \"contracts/modules/SponsorMatrix.sol\":756:40143  contract Nanakshahi {... */\n      sstore\n      dup2\n      0x00\n      mstore\n        /* \"contracts/modules/SponsorMatrix.sol\":30340:30352  matrixDirect */\n      0x30\n        /* \"contracts/modules/SponsorMatrix.sol\":756:40143  contract Nanakshahi {... */\n      0x20\n      mstore\n      keccak256(0x00, 0x40)\n      dup1\n      sload\n      swap1\n      0x01\n      dup3\n      add\n      dup1\n      swap3\n      gt\n      tag_199\n      jumpi\n      sstore\n        /* \"contracts/modules/SponsorMatrix.sol\":30483:30504  uplineId = _sponsorId */\n      dup2\n        /* \"contracts/modules/SponsorMatrix.sol\":30337:31337  if(matrixDirect[_sponsorId] < 2) {... */\n    tag_182:\n        /* \"contracts/modules/SponsorMatrix.sol\":756:40143  contract Nanakshahi {... */\n      0x00\n        /* \"contracts/modules/SponsorMatrix.sol\":31399:31632  for(uint k=0; k<maxLayers; k++) {... */\n      swap1\n        /* \"contracts/modules/SponsorMatrix.sol\":31413:31424  k<maxLayers */\n    tag_183:\n        /* \"contracts/modules/SponsorMatrix.sol\":23496:23517  user.registrationTime */\n      0x0f\n        /* \"contracts/modules/SponsorMatrix.sol\":31413:31424  k<maxLayers */\n      dup3\n      lt\n      tag_184\n      jumpi\n        /* \"contracts/modules/SponsorMatrix.sol\":31399:31632  for(uint k=0; k<maxLayers; k++) {... */\n    tag_185:\n        /* \"contracts/modules/SponsorMatrix.sol\":23967:23978  packages[0] */\n      pop\n      pop\n        /* \"contracts/modules/SponsorMatrix.sol\":23917:24083  user.deposits.push(Deposit({... */\n      tag_186\n        /* \"contracts/modules/SponsorMatrix.sol\":23967:23978  packages[0] */\n      tag_187\n      tag_5\n      jump\t// in\n    tag_187:\n        /* \"contracts/modules/SponsorMatrix.sol\":756:40143  contract Nanakshahi {... */\n      swap1\n      sload\n      mload(0x40)\n      swap2\n        /* \"contracts/modules/SponsorMatrix.sol\":22890:22910  users[_sponsorId].id */\n      0x03\n        /* \"contracts/modules/SponsorMatrix.sol\":756:40143  contract Nanakshahi {... */\n      shl\n      shr\n      tag_188\n      dup3\n      tag_15\n      jump\t// in\n    tag_188:\n      dup2\n      mstore\n      0x00\n      0x20\n        /* \"contracts/modules/SponsorMatrix.sol\":23936:24082  Deposit({... */\n      dup3\n      add\n        /* \"contracts/modules/SponsorMatrix.sol\":756:40143  contract Nanakshahi {... */\n      mstore\n        /* \"contracts/modules/SponsorMatrix.sol\":23335:23350  block.timestamp */\n      timestamp\n        /* \"contracts/modules/SponsorMatrix.sol\":756:40143  contract Nanakshahi {... */\n      0x40\n        /* \"contracts/modules/SponsorMatrix.sol\":23936:24082  Deposit({... */\n      dup3\n      add\n        /* \"contracts/modules/SponsorMatrix.sol\":756:40143  contract Nanakshahi {... */\n      mstore\n      0x01\n        /* \"contracts/modules/SponsorMatrix.sol\":23936:24082  Deposit({... */\n      0x60\n      dup3\n      add\n        /* \"contracts/modules/SponsorMatrix.sol\":756:40143  contract Nanakshahi {... */\n      mstore\n      0x01\n        /* \"contracts/modules/SponsorMatrix.sol\":23917:23930  user.deposits */\n      dup6\n      add\n        /* \"contracts/modules/SponsorMatrix.sol\":23917:24083  user.deposits.push(Deposit({... */\n      tag_18\n      jump\t// in\n    tag_186:\n        /* \"contracts/modules/SponsorMatrix.sol\":24149:24160  packages[0] */\n      tag_189\n      tag_5\n      jump\t// in\n    tag_189:\n        /* \"contracts/modules/SponsorMatrix.sol\":756:40143  contract Nanakshahi {... */\n      swap1\n      sload\n      swap1\n        /* \"contracts/modules/SponsorMatrix.sol\":22890:22910  users[_sponsorId].id */\n      0x03\n        /* \"contracts/modules/SponsorMatrix.sol\":756:40143  contract Nanakshahi {... */\n      shl\n      shr\n      swap1\n        /* \"contracts/modules/SponsorMatrix.sol\":23136:23148  defaultRefId */\n      0x05\n        /* \"contracts/modules/SponsorMatrix.sol\":756:40143  contract Nanakshahi {... */\n      dup3\n      mul\n      dup3\n      iszero\n      swap3\n      dup1\n      dup3\n      div\n        /* \"contracts/modules/SponsorMatrix.sol\":23136:23148  defaultRefId */\n      0x05\n        /* \"contracts/modules/SponsorMatrix.sol\":756:40143  contract Nanakshahi {... */\n      eq\n      dup5\n      or\n      iszero\n      tag_199\n      jumpi\n        /* \"contracts/modules/SponsorMatrix.sol\":24289:24291  60 */\n      0x3c\n        /* \"contracts/modules/SponsorMatrix.sol\":756:40143  contract Nanakshahi {... */\n      dup2\n      mul\n      swap4\n      dup2\n      dup6\n      div\n        /* \"contracts/modules/SponsorMatrix.sol\":24289:24291  60 */\n      0x3c\n        /* \"contracts/modules/SponsorMatrix.sol\":756:40143  contract Nanakshahi {... */\n      eq\n      dup2\n      or\n      iszero\n      tag_199\n      jumpi\n        /* \"contracts/modules/SponsorMatrix.sol\":24516:24518  25 */\n      0x19\n        /* \"contracts/modules/SponsorMatrix.sol\":756:40143  contract Nanakshahi {... */\n      dup3\n      mul\n      swap2\n      dup3\n      div\n        /* \"contracts/modules/SponsorMatrix.sol\":24516:24518  25 */\n      0x19\n        /* \"contracts/modules/SponsorMatrix.sol\":756:40143  contract Nanakshahi {... */\n      eq\n      or\n      iszero\n      tag_199\n      jumpi\n        /* \"contracts/modules/SponsorMatrix.sol\":24813:24884  _distributeSponsorIncome(user.sponsorId, newUserId, remainingAmount, 1) */\n      tag_196\n        /* \"contracts/modules/SponsorMatrix.sol\":756:40143  contract Nanakshahi {... */\n      swap4\n        /* \"contracts/modules/SponsorMatrix.sol\":24730:24742  creatorShare */\n      tag_197\n        /* \"contracts/modules/SponsorMatrix.sol\":24215:24218  100 */\n      0x64\n        /* \"contracts/modules/SponsorMatrix.sol\":756:40143  contract Nanakshahi {... */\n      dup10\n      swap5\n        /* \"contracts/modules/SponsorMatrix.sol\":24646:24660  communityShare */\n      tag_198\n        /* \"contracts/modules/SponsorMatrix.sol\":756:40143  contract Nanakshahi {... */\n      dup3\n      dup1\n      swap7\n      div\n        /* \"contracts/modules/SponsorMatrix.sol\":24646:24660  communityShare */\n      tag_37\n      jump\t// in\n    tag_198:\n        /* \"contracts/modules/SponsorMatrix.sol\":756:40143  contract Nanakshahi {... */\n      div\n        /* \"contracts/modules/SponsorMatrix.sol\":24730:24742  creatorShare */\n      tag_38\n      jump\t// in\n    tag_197:\n        /* \"contracts/modules/SponsorMatrix.sol\":756:40143  contract Nanakshahi {... */\n      div\n      swap2\n      sload\n        /* \"contracts/modules/SponsorMatrix.sol\":24813:24884  _distributeSponsorIncome(user.sponsorId, newUserId, remainingAmount, 1) */\n      tag_39\n      jump\t// in\n    tag_196:\n        /* \"contracts/modules/SponsorMatrix.sol\":23152:23162  totalUsers */\n      0x06\n        /* \"contracts/modules/SponsorMatrix.sol\":756:40143  contract Nanakshahi {... */\n      sload\n      0x01\n      dup2\n      add\n      dup1\n      swap2\n      gt\n      tag_199\n      jumpi\n        /* \"contracts/modules/SponsorMatrix.sol\":23152:23162  totalUsers */\n      0x06\n        /* \"contracts/modules/SponsorMatrix.sol\":756:40143  contract Nanakshahi {... */\n      sstore\n      0x00\n      mstore\n        /* \"contracts/modules/SponsorMatrix.sol\":22890:22895  users */\n      0x2c\n        /* \"contracts/modules/SponsorMatrix.sol\":756:40143  contract Nanakshahi {... */\n      0x20\n      mstore\n        /* \"contracts/modules/SponsorMatrix.sol\":23136:23148  defaultRefId */\n      0x05\n        /* \"contracts/modules/SponsorMatrix.sol\":756:40143  contract Nanakshahi {... */\n      0x01\n      dup1\n      0xa0\n      shl\n      sub\n      sload(keccak256(0x00, 0x40))\n      and\n        /* \"contracts/modules/SponsorMatrix.sol\":25009:25022  user.uplineId */\n      swap2\n      add\n        /* \"contracts/modules/SponsorMatrix.sol\":756:40143  contract Nanakshahi {... */\n      sload\n      mload(0x40)\n      swap1\n      dup2\n      mstore\n        /* \"contracts/modules/SponsorMatrix.sol\":24946:25023  Registration(msg.sender, users[_sponsorId].account, newUserId, user.uplineId) */\n      0x309bb360e8b69c23937ccc5fb01f9aeeead1c95a99604e175113ff82f2b1723a\n        /* \"contracts/modules/SponsorMatrix.sol\":756:40143  contract Nanakshahi {... */\n      0x20\n        /* \"contracts/modules/SponsorMatrix.sol\":22832:22842  msg.sender */\n      caller\n        /* \"contracts/modules/SponsorMatrix.sol\":24946:25023  Registration(msg.sender, users[_sponsorId].account, newUserId, user.uplineId) */\n      swap3\n      log4\n        /* \"contracts/modules/SponsorMatrix.sol\":756:40143  contract Nanakshahi {... */\n      stop\n    tag_199:\n      mstore(0x00, shl(0xe0, 0x4e487b71))\n      mstore(0x04, 0x11)\n      revert(0x00, 0x24)\n        /* \"contracts/modules/SponsorMatrix.sol\":31426:31429  k++ */\n    tag_184:\n        /* \"contracts/modules/SponsorMatrix.sol\":31449:31462  uplineId == 0 */\n      dup1\n      iszero\n        /* \"contracts/modules/SponsorMatrix.sol\":31446:31469  if(uplineId == 0) break */\n      tag_201\n      jumpi\n        /* \"contracts/modules/SponsorMatrix.sol\":756:40143  contract Nanakshahi {... */\n      dup1\n      0x00\n      mstore\n        /* \"contracts/modules/SponsorMatrix.sol\":22890:22895  users */\n      0x2c\n        /* \"contracts/modules/SponsorMatrix.sol\":756:40143  contract Nanakshahi {... */\n      0x20\n      mstore\n        /* \"contracts/modules/SponsorMatrix.sol\":31484:31515  users[uplineId].totalMatrixTeam */\n      0x09\n        /* \"contracts/modules/SponsorMatrix.sol\":756:40143  contract Nanakshahi {... */\n      keccak256(0x00, 0x40)\n        /* \"contracts/modules/SponsorMatrix.sol\":31484:31515  users[uplineId].totalMatrixTeam */\n      add\n        /* \"contracts/modules/SponsorMatrix.sol\":756:40143  contract Nanakshahi {... */\n      dup1\n      sload\n      swap1\n      0x01\n      dup3\n      add\n      dup1\n      swap3\n      gt\n      tag_199\n      jumpi\n      sstore\n      dup1\n      0x00\n      mstore\n        /* \"contracts/modules/SponsorMatrix.sol\":31535:31540  teams */\n      0x2f\n        /* \"contracts/modules/SponsorMatrix.sol\":756:40143  contract Nanakshahi {... */\n      0x20\n      mstore\n      keccak256(0x00, 0x40)\n      dup3\n      0x00\n      mstore\n      0x20\n      mstore\n        /* \"contracts/modules/SponsorMatrix.sol\":31535:31570  teams[uplineId][k].push(_newUserId) */\n      tag_205\n        /* \"contracts/modules/SponsorMatrix.sol\":756:40143  contract Nanakshahi {... */\n      dup7\n      keccak256(0x00, 0x40)\n        /* \"contracts/modules/SponsorMatrix.sol\":31535:31570  teams[uplineId][k].push(_newUserId) */\n      tag_31\n      jump\t// in\n    tag_205:\n        /* \"contracts/modules/SponsorMatrix.sol\":756:40143  contract Nanakshahi {... */\n      0x00\n      mstore\n        /* \"contracts/modules/SponsorMatrix.sol\":22890:22895  users */\n      0x2c\n        /* \"contracts/modules/SponsorMatrix.sol\":756:40143  contract Nanakshahi {... */\n      0x20\n      mstore\n      0x01\n        /* \"contracts/modules/SponsorMatrix.sol\":23136:23148  defaultRefId */\n      0x05\n        /* \"contracts/modules/SponsorMatrix.sol\":756:40143  contract Nanakshahi {... */\n      keccak256(0x00, 0x40)\n        /* \"contracts/modules/SponsorMatrix.sol\":31596:31620  users[uplineId].uplineId */\n      add\n        /* \"contracts/modules/SponsorMatrix.sol\":756:40143  contract Nanakshahi {... */\n      sload\n        /* \"contracts/modules/SponsorMatrix.sol\":31426:31429  k++ */\n      swap2\n        /* \"contracts/modules/SponsorMatrix.sol\":756:40143  contract Nanakshahi {... */\n      add\n        /* \"contracts/modules/SponsorMatrix.sol\":31403:31411  uint k=0 */\n      swap1\n      jump(tag_183)\n        /* \"contracts/modules/SponsorMatrix.sol\":31446:31469  if(uplineId == 0) break */\n    tag_201:\n        /* \"contracts/modules/SponsorMatrix.sol\":31464:31469  break */\n      jump(tag_185)\n        /* \"contracts/modules/SponsorMatrix.sol\":30337:31337  if(matrixDirect[_sponsorId] < 2) {... */\n    tag_178:\n        /* \"contracts/modules/SponsorMatrix.sol\":756:40143  contract Nanakshahi {... */\n      0x00\n        /* \"contracts/modules/SponsorMatrix.sol\":30635:30646  i<maxLayers */\n    tag_206:\n        /* \"contracts/modules/SponsorMatrix.sol\":23496:23517  user.registrationTime */\n      0x0f\n        /* \"contracts/modules/SponsorMatrix.sol\":30635:30646  i<maxLayers */\n      dup2\n      lt\n      tag_207\n      jumpi\n        /* \"contracts/modules/SponsorMatrix.sol\":30621:31326  for(uint i=0; i<maxLayers; i++) { // Use a reasonable max depth for 2x2 matrix... */\n    tag_208:\n        /* \"contracts/modules/SponsorMatrix.sol\":30337:31337  if(matrixDirect[_sponsorId] < 2) {... */\n      pop\n      pop\n      jump(tag_182)\n        /* \"contracts/modules/SponsorMatrix.sol\":30648:30651  i++ */\n    tag_207:\n        /* \"contracts/modules/SponsorMatrix.sol\":30717:30734  if(isFound) break */\n      dup2\n      tag_209\n      jumpi\n        /* \"contracts/modules/SponsorMatrix.sol\":756:40143  contract Nanakshahi {... */\n      dup5\n      0x00\n      mstore\n        /* \"contracts/modules/SponsorMatrix.sol\":30756:30761  teams */\n      0x2f\n        /* \"contracts/modules/SponsorMatrix.sol\":756:40143  contract Nanakshahi {... */\n      0x20\n      mstore\n      keccak256(0x00, 0x40)\n      0x01\n      dup3\n      add\n      dup1\n      dup4\n      gt\n      tag_199\n      jumpi\n      0x00\n      mstore\n      0x20\n      mstore\n      sload(keccak256(0x00, 0x40))\n        /* \"contracts/modules/SponsorMatrix.sol\":23317:23332  user.checkpoint */\n      0x02\n        /* \"contracts/modules/SponsorMatrix.sol\":756:40143  contract Nanakshahi {... */\n      dup3\n      add\n      dup1\n      dup4\n      gt\n      tag_199\n      jumpi\n      0xff\n      dup2\n      gt\n      tag_199\n      jumpi\n      0x01\n      swap1\n      shl\n      gt\n        /* \"contracts/modules/SponsorMatrix.sol\":30753:31311  if(teams[_sponsorId][i+1].length < 2 ** (i+2)) {... */\n      tag_217\n      jumpi\n        /* \"contracts/modules/SponsorMatrix.sol\":30648:30651  i++ */\n    tag_218:\n        /* \"contracts/modules/SponsorMatrix.sol\":756:40143  contract Nanakshahi {... */\n      0x01\n      add\n        /* \"contracts/modules/SponsorMatrix.sol\":30625:30633  uint i=0 */\n      jump(tag_206)\n        /* \"contracts/modules/SponsorMatrix.sol\":30753:31311  if(teams[_sponsorId][i+1].length < 2 ** (i+2)) {... */\n    tag_217:\n        /* \"contracts/modules/SponsorMatrix.sol\":30827:30835  uint j=0 */\n      swap4\n      swap3\n        /* \"contracts/modules/SponsorMatrix.sol\":756:40143  contract Nanakshahi {... */\n      0x00\n        /* \"contracts/modules/SponsorMatrix.sol\":30827:30835  uint j=0 */\n      swap6\n      swap2\n      swap6\n        /* \"contracts/modules/SponsorMatrix.sol\":30868:30871  j++ */\n    tag_219:\n        /* \"contracts/modules/SponsorMatrix.sol\":756:40143  contract Nanakshahi {... */\n      dup5\n      0x00\n      mstore\n        /* \"contracts/modules/SponsorMatrix.sol\":30756:30761  teams */\n      0x2f\n        /* \"contracts/modules/SponsorMatrix.sol\":756:40143  contract Nanakshahi {... */\n      0x20\n      mstore\n      keccak256(0x00, 0x40)\n      dup7\n      0x00\n      mstore\n      0x20\n      mstore\n      sload(keccak256(0x00, 0x40))\n        /* \"contracts/modules/SponsorMatrix.sol\":30837:30866  j<teams[_sponsorId][i].length */\n      dup2\n      lt\n      iszero\n      tag_220\n      jumpi\n        /* \"contracts/modules/SponsorMatrix.sol\":30898:30915  if(isFound) break */\n      dup7\n      tag_222\n      jumpi\n        /* \"contracts/modules/SponsorMatrix.sol\":756:40143  contract Nanakshahi {... */\n      dup5\n      0x00\n      mstore\n        /* \"contracts/modules/SponsorMatrix.sol\":30756:30761  teams */\n      0x2f\n        /* \"contracts/modules/SponsorMatrix.sol\":756:40143  contract Nanakshahi {... */\n      0x20\n      mstore\n      keccak256(0x00, 0x40)\n      dup7\n      0x00\n      mstore\n      0x20\n      mstore\n        /* \"contracts/modules/SponsorMatrix.sol\":30954:30977  teams[_sponsorId][i][j] */\n      tag_224\n        /* \"contracts/modules/SponsorMatrix.sol\":756:40143  contract Nanakshahi {... */\n      dup2\n      keccak256(0x00, 0x40)\n        /* \"contracts/modules/SponsorMatrix.sol\":30954:30977  teams[_sponsorId][i][j] */\n      tag_6\n      jump\t// in\n    tag_224:\n        /* \"contracts/modules/SponsorMatrix.sol\":756:40143  contract Nanakshahi {... */\n      swap1\n      sload\n      swap1\n        /* \"contracts/modules/SponsorMatrix.sol\":22890:22910  users[_sponsorId].id */\n      0x03\n        /* \"contracts/modules/SponsorMatrix.sol\":756:40143  contract Nanakshahi {... */\n      shl\n      shr\n      dup1\n      0x00\n      mstore\n        /* \"contracts/modules/SponsorMatrix.sol\":30340:30352  matrixDirect */\n      0x30\n        /* \"contracts/modules/SponsorMatrix.sol\":756:40143  contract Nanakshahi {... */\n      0x20\n      mstore\n        /* \"contracts/modules/SponsorMatrix.sol\":23317:23332  user.checkpoint */\n      0x02\n        /* \"contracts/modules/SponsorMatrix.sol\":756:40143  contract Nanakshahi {... */\n      sload(keccak256(0x00, 0x40))\n        /* \"contracts/modules/SponsorMatrix.sol\":31007:31029  matrixDirect[temp] < 2 */\n      lt\n        /* \"contracts/modules/SponsorMatrix.sol\":31004:31268  if(matrixDirect[temp] < 2) {... */\n      tag_225\n      jumpi\n        /* \"contracts/modules/SponsorMatrix.sol\":30868:30871  j++ */\n    tag_226:\n      pop\n        /* \"contracts/modules/SponsorMatrix.sol\":756:40143  contract Nanakshahi {... */\n      0x01\n      add\n        /* \"contracts/modules/SponsorMatrix.sol\":30827:30835  uint j=0 */\n      jump(tag_219)\n        /* \"contracts/modules/SponsorMatrix.sol\":31004:31268  if(matrixDirect[temp] < 2) {... */\n    tag_225:\n        /* \"contracts/modules/SponsorMatrix.sol\":756:40143  contract Nanakshahi {... */\n      swap2\n      swap4\n      pop\n      swap6\n      pop\n      dup7\n      0x00\n      mstore\n        /* \"contracts/modules/SponsorMatrix.sol\":22890:22895  users */\n      0x2c\n        /* \"contracts/modules/SponsorMatrix.sol\":756:40143  contract Nanakshahi {... */\n      0x20\n      mstore\n      dup1\n        /* \"contracts/modules/SponsorMatrix.sol\":23136:23148  defaultRefId */\n      0x05\n        /* \"contracts/modules/SponsorMatrix.sol\":756:40143  contract Nanakshahi {... */\n      keccak256(0x00, 0x40)\n        /* \"contracts/modules/SponsorMatrix.sol\":31062:31088  users[_newUserId].uplineId */\n      add\n        /* \"contracts/modules/SponsorMatrix.sol\":756:40143  contract Nanakshahi {... */\n      sstore\n      dup1\n      0x00\n      mstore\n        /* \"contracts/modules/SponsorMatrix.sol\":30340:30352  matrixDirect */\n      0x30\n        /* \"contracts/modules/SponsorMatrix.sol\":756:40143  contract Nanakshahi {... */\n      0x20\n      mstore\n      keccak256(0x00, 0x40)\n      dup1\n      sload\n      swap1\n      0x01\n      dup3\n      add\n      dup1\n      swap3\n      gt\n      tag_199\n      jumpi\n      sstore\n        /* \"contracts/modules/SponsorMatrix.sol\":31226:31240  isFound = true */\n      swap2\n        /* \"contracts/modules/SponsorMatrix.sol\":756:40143  contract Nanakshahi {... */\n      0x01\n        /* \"contracts/modules/SponsorMatrix.sol\":31226:31240  isFound = true */\n      dup1\n        /* \"contracts/modules/SponsorMatrix.sol\":31004:31268  if(matrixDirect[temp] < 2) {... */\n      swap7\n      swap1\n      jump(tag_226)\n        /* \"contracts/modules/SponsorMatrix.sol\":30898:30915  if(isFound) break */\n    tag_222:\n        /* \"contracts/modules/SponsorMatrix.sol\":30910:30915  break */\n      pop\n      swap3\n      swap4\n        /* \"contracts/modules/SponsorMatrix.sol\":756:40143  contract Nanakshahi {... */\n      0x01\n        /* \"contracts/modules/SponsorMatrix.sol\":30910:30915  break */\n      swap1\n      swap6\n      swap2\n      swap6\n        /* \"contracts/modules/SponsorMatrix.sol\":30823:31292  for(uint j=0; j<teams[_sponsorId][i].length; j++) {... */\n    tag_229:\n        /* \"contracts/modules/SponsorMatrix.sol\":30753:31311  if(teams[_sponsorId][i+1].length < 2 ** (i+2)) {... */\n      swap1\n      pop\n      jump(tag_218)\n        /* \"contracts/modules/SponsorMatrix.sol\":30837:30866  j<teams[_sponsorId][i].length */\n    tag_220:\n      pop\n      swap3\n      swap4\n        /* \"contracts/modules/SponsorMatrix.sol\":756:40143  contract Nanakshahi {... */\n      0x01\n        /* \"contracts/modules/SponsorMatrix.sol\":30837:30866  j<teams[_sponsorId][i].length */\n      swap1\n      swap6\n      swap2\n      swap6\n      jump(tag_229)\n        /* \"contracts/modules/SponsorMatrix.sol\":30717:30734  if(isFound) break */\n    tag_209:\n        /* \"contracts/modules/SponsorMatrix.sol\":30729:30734  break */\n      jump(tag_208)\n        /* \"contracts/modules/SponsorMatrix.sol\":756:40143  contract Nanakshahi {... */\n    tag_175:\n      mstore(0x00, shl(0xe0, 0x4e487b71))\n      mstore(0x04, 0x41)\n      revert(0x00, 0x24)\n        /* \"contracts/modules/SponsorMatrix.sol\":23003:23060  usdt.transferFrom(msg.sender, address(this), packages[0]) */\n    tag_166:\n      tag_230\n      swap1\n        /* \"contracts/modules/SponsorMatrix.sol\":756:40143  contract Nanakshahi {... */\n      0x20\n        /* \"contracts/modules/SponsorMatrix.sol\":23003:23060  usdt.transferFrom(msg.sender, address(this), packages[0]) */\n      returndatasize\n        /* \"contracts/modules/SponsorMatrix.sol\":756:40143  contract Nanakshahi {... */\n      0x20\n        /* \"contracts/modules/SponsorMatrix.sol\":23003:23060  usdt.transferFrom(msg.sender, address(this), packages[0]) */\n      gt\n      tag_231\n      jumpi\n    tag_232:\n      tag_233\n      dup2\n      dup4\n      tag_17\n      jump\t// in\n    tag_233:\n      dup2\n      add\n      swap1\n      tag_23\n      jump\t// in\n    tag_230:\n      jump(tag_167)\n    tag_231:\n      pop\n      returndatasize\n      jump(tag_232)\n    tag_164:\n        /* \"contracts/modules/SponsorMatrix.sol\":756:40143  contract Nanakshahi {... */\n      mload(0x40)\n      returndatasize\n      0x00\n      dup3\n      returndatacopy\n      returndatasize\n      swap1\n      revert\n    tag_160:\n      mload(0x40)\n      shl(0xe5, 0x461bcd)\n      dup2\n      mstore\n      0x20\n      0x04\n      dup3\n      add\n      mstore\n      0x0f\n      0x24\n      dup3\n      add\n      mstore\n      shl(0x89, 0x24b73b30b634b21039b837b739b7b9)\n      0x44\n      dup3\n      add\n      mstore\n      0x64\n      swap1\n      revert\n    tag_158:\n      mload(0x40)\n      shl(0xe5, 0x461bcd)\n      dup2\n      mstore\n      0x20\n      0x04\n      dup3\n      add\n      mstore\n      0x12\n      0x24\n      dup3\n      add\n      mstore\n      shl(0x72, 0x105b1c9958591e481c9959da5cdd195c9959)\n      0x44\n      dup3\n      add\n      mstore\n      0x64\n      swap1\n      revert\n    tag_144:\n      jumpi(tag_152, callvalue)\n      jumpi(tag_152, slt(add(not(0x03), calldatasize), 0x00))\n      0x20\n        /* \"contracts/modules/SponsorMatrix.sol\":947:971  uint public defaultRefId */\n      0x05\n        /* \"contracts/modules/SponsorMatrix.sol\":756:40143  contract Nanakshahi {... */\n      sload\n      mload(0x40)\n      swap1\n      dup2\n      mstore\n      return\n    tag_142:\n      jumpi(tag_152, callvalue)\n      jumpi(tag_152, slt(add(not(0x03), calldatasize), 0x00))\n        /* \"contracts/modules/SponsorMatrix.sol\":873:903  address public systemMaintance */\n      0x03\n        /* \"contracts/modules/SponsorMatrix.sol\":756:40143  contract Nanakshahi {... */\n      sload\n      mload(0x40)\n      sub(shl(0xa0, 0x01), 0x01)\n      swap1\n      swap2\n      and\n      dup2\n      mstore\n      0x20\n      swap1\n      return\n    tag_140:\n      jumpi(tag_152, callvalue)\n      jumpi(tag_152, slt(add(not(0x03), calldatasize), 0x20))\n      tag_246\n      calldataload(0x04)\n      tag_30\n      jump\t// in\n    tag_246:\n      stop\n    tag_138:\n      jumpi(tag_152, callvalue)\n      jumpi(tag_152, slt(add(not(0x03), calldatasize), 0x20))\n      calldataload(0x04)\n      0x08\n        /* \"contracts/modules/SponsorMatrix.sol\":2146:2210  uint[8] public minLevelForGlbBooster = [4, 5, 6, 7, 8, 9, 10,11] */\n      dup2\n      lt\n      iszero\n      tag_152\n      jumpi\n        /* \"contracts/modules/SponsorMatrix.sol\":756:40143  contract Nanakshahi {... */\n      0x20\n      swap1\n        /* \"contracts/modules/SponsorMatrix.sol\":2146:2210  uint[8] public minLevelForGlbBooster = [4, 5, 6, 7, 8, 9, 10,11] */\n      0x11\n        /* \"contracts/modules/SponsorMatrix.sol\":756:40143  contract Nanakshahi {... */\n      add\n      sload\n      mload(0x40)\n      swap1\n      dup2\n      mstore\n      return\n    tag_136:\n      jumpi(tag_152, callvalue)\n      tag_255\n      calldatasize\n      tag_7\n      jump\t// in\n    tag_255:\n      swap1\n      0x00\n      mstore\n        /* \"contracts/modules/SponsorMatrix.sol\":4463:4525  mapping(uint =>  mapping(uint => UserPool)) public userPooldtl */\n      0x22\n        /* \"contracts/modules/SponsorMatrix.sol\":756:40143  contract Nanakshahi {... */\n      0x20\n      mstore\n      keccak256(0x00, 0x40)\n      swap1\n      0x00\n      mstore\n      0x20\n      mstore\n      keccak256(0x00, 0x40)\n      dup1\n      sload\n      tag_256\n        /* \"contracts/modules/SponsorMatrix.sol\":4463:4525  mapping(uint =>  mapping(uint => UserPool)) public userPooldtl */\n      0x01\n      dup4\n      add\n        /* \"contracts/modules/SponsorMatrix.sol\":756:40143  contract Nanakshahi {... */\n      sload\n        /* \"contracts/modules/SponsorMatrix.sol\":4463:4525  mapping(uint =>  mapping(uint => UserPool)) public userPooldtl */\n      swap3\n      0x02\n      dup2\n      add\n        /* \"contracts/modules/SponsorMatrix.sol\":756:40143  contract Nanakshahi {... */\n      sload\n        /* \"contracts/modules/SponsorMatrix.sol\":4463:4525  mapping(uint =>  mapping(uint => UserPool)) public userPooldtl */\n      swap1\n        /* \"contracts/modules/SponsorMatrix.sol\":756:40143  contract Nanakshahi {... */\n      0x04\n        /* \"contracts/modules/SponsorMatrix.sol\":4463:4525  mapping(uint =>  mapping(uint => UserPool)) public userPooldtl */\n      0x03\n      dup3\n      add\n        /* \"contracts/modules/SponsorMatrix.sol\":756:40143  contract Nanakshahi {... */\n      sload\n        /* \"contracts/modules/SponsorMatrix.sol\":4463:4525  mapping(uint =>  mapping(uint => UserPool)) public userPooldtl */\n      swap2\n      add\n        /* \"contracts/modules/SponsorMatrix.sol\":756:40143  contract Nanakshahi {... */\n      sload\n      swap2\n      mload(0x40)\n      swap6\n      dup7\n      swap6\n      dup7\n      swap2\n      swap3\n      0x80\n      swap4\n      swap7\n      swap6\n      swap5\n      swap2\n      swap7\n      0xa0\n      dup5\n      add\n      swap8\n      dup5\n      mstore\n      0x20\n      dup5\n      add\n      mstore\n      0x40\n      dup4\n      add\n      mstore\n      0x60\n      dup3\n      add\n      mstore\n      add\n      mstore\n      jump\n    tag_256:\n      sub\n      swap1\n      return\n    tag_134:\n      jumpi(tag_152, callvalue)\n      jumpi(tag_152, slt(add(not(0x03), calldatasize), 0x20))\n      calldataload(0x04)\n      sub(shl(0xa0, 0x01), 0x01)\n      dup2\n      and\n      swap1\n      dup2\n      swap1\n      sub\n      tag_152\n      jumpi\n      0x00\n      mstore\n        /* \"contracts/modules/SponsorMatrix.sol\":5515:5558  mapping(address => uint) public addressToId */\n      0x2b\n        /* \"contracts/modules/SponsorMatrix.sol\":756:40143  contract Nanakshahi {... */\n      0x20\n      mstore\n      0x20\n      sload(keccak256(0x00, 0x40))\n      mload(0x40)\n      swap1\n      dup2\n      mstore\n      return\n    tag_132:\n      jumpi(tag_152, callvalue)\n      tag_265\n      calldatasize\n      tag_7\n      jump\t// in\n    tag_265:\n      swap1\n      0x00\n      mstore\n        /* \"contracts/modules/SponsorMatrix.sol\":5054:5097  mapping(uint => uint[]) public boosterUsers */\n      0x29\n        /* \"contracts/modules/SponsorMatrix.sol\":756:40143  contract Nanakshahi {... */\n      0x20\n      mstore\n      keccak256(0x00, 0x40)\n      dup1\n      sload\n        /* \"contracts/modules/SponsorMatrix.sol\":5054:5097  mapping(uint => uint[]) public boosterUsers */\n      dup3\n      lt\n      iszero\n      tag_152\n      jumpi\n        /* \"contracts/modules/SponsorMatrix.sol\":756:40143  contract Nanakshahi {... */\n      0x20\n        /* \"contracts/modules/SponsorMatrix.sol\":5054:5097  mapping(uint => uint[]) public boosterUsers */\n      swap2\n      tag_268\n      swap2\n      tag_6\n      jump\t// in\n    tag_268:\n        /* \"contracts/modules/SponsorMatrix.sol\":756:40143  contract Nanakshahi {... */\n      swap1\n      sload\n      swap1\n      0x03\n      shl\n      shr\n      mload(0x40)\n      swap1\n      dup2\n      mstore\n      return\n    tag_130:\n      jumpi(tag_152, callvalue)\n      jumpi(tag_152, slt(add(not(0x03), calldatasize), 0x20))\n      calldataload(0x04)\n        /* \"contracts/modules/SponsorMatrix.sol\":1323:1863  uint[] public packages = [... */\n      0x07\n        /* \"contracts/modules/SponsorMatrix.sol\":756:40143  contract Nanakshahi {... */\n      sload\n        /* \"contracts/modules/SponsorMatrix.sol\":1323:1863  uint[] public packages = [... */\n      dup2\n      lt\n      iszero\n      tag_152\n      jumpi\n      tag_268\n        /* \"contracts/modules/SponsorMatrix.sol\":756:40143  contract Nanakshahi {... */\n      0x20\n        /* \"contracts/modules/SponsorMatrix.sol\":1323:1863  uint[] public packages = [... */\n      swap2\n      tag_3\n      jump\t// in\n        /* \"contracts/modules/SponsorMatrix.sol\":756:40143  contract Nanakshahi {... */\n    tag_128:\n      jumpi(tag_152, callvalue)\n      jumpi(tag_152, slt(add(not(0x03), calldatasize), 0x00))\n      0x20\n        /* \"contracts/modules/SponsorMatrix.sol\":978:1000  uint public totalUsers */\n      0x06\n        /* \"contracts/modules/SponsorMatrix.sol\":756:40143  contract Nanakshahi {... */\n      sload\n      mload(0x40)\n      swap1\n      dup2\n      mstore\n      return\n    tag_126:\n      jumpi(tag_152, callvalue)\n      tag_282\n      calldatasize\n      tag_7\n      jump\t// in\n    tag_282:\n      swap1\n      0x00\n      mstore\n        /* \"contracts/modules/SponsorMatrix.sol\":4385:4454  mapping(uint =>  mapping(uint => UserPoolTopup)) public userPooltopup */\n      0x21\n        /* \"contracts/modules/SponsorMatrix.sol\":756:40143  contract Nanakshahi {... */\n      0x20\n      mstore\n      keccak256(0x00, 0x40)\n      swap1\n      0x00\n      mstore\n      0x20\n      mstore\n      0x40\n      dup1\n      0x00\n      keccak256\n        /* \"contracts/modules/SponsorMatrix.sol\":4385:4454  mapping(uint =>  mapping(uint => UserPoolTopup)) public userPooltopup */\n      0x01\n        /* \"contracts/modules/SponsorMatrix.sol\":756:40143  contract Nanakshahi {... */\n      dup2\n      sload\n        /* \"contracts/modules/SponsorMatrix.sol\":4385:4454  mapping(uint =>  mapping(uint => UserPoolTopup)) public userPooltopup */\n      swap2\n      add\n        /* \"contracts/modules/SponsorMatrix.sol\":756:40143  contract Nanakshahi {... */\n      sload\n      dup3\n      mload\n      swap2\n      dup3\n      mstore\n      0x20\n      dup3\n      add\n      mstore\n      return\n    tag_124:\n      jumpi(tag_152, callvalue)\n      tag_285\n      calldatasize\n      tag_7\n      jump\t// in\n    tag_285:\n      swap1\n      0x00\n      mstore\n        /* \"contracts/modules/SponsorMatrix.sol\":4799:4856  mapping(uint => mapping(uint => bool)) public userHasPool */\n      0x26\n        /* \"contracts/modules/SponsorMatrix.sol\":756:40143  contract Nanakshahi {... */\n      0x20\n      mstore\n      keccak256(0x00, 0x40)\n      swap1\n      0x00\n      mstore\n      0x20\n      mstore\n      0x20\n      and(sload(keccak256(0x00, 0x40)), 0xff)\n      mload(0x40)\n      swap1\n      iszero\n      iszero\n      dup2\n      mstore\n      return\n    tag_122:\n      jumpi(tag_152, callvalue)\n      jumpi(tag_152, slt(add(not(0x03), calldatasize), 0x20))\n      calldataload(0x04)\n      dup1\n      0x00\n      mstore\n        /* \"contracts/modules/SponsorMatrix.sol\":15431:15436  users */\n      0x2c\n        /* \"contracts/modules/SponsorMatrix.sol\":756:40143  contract Nanakshahi {... */\n      0x20\n      mstore\n      keccak256(0x00, 0x40)\n        /* \"contracts/modules/SponsorMatrix.sol\":15456:15511  require(user.account == msg.sender, \"Not your account\") */\n      tag_290\n        /* \"contracts/modules/SponsorMatrix.sol\":756:40143  contract Nanakshahi {... */\n      0x01\n      dup1\n      0xa0\n      shl\n      sub\n      dup3\n      sload\n      and\n        /* \"contracts/modules/SponsorMatrix.sol\":15480:15490  msg.sender */\n      caller\n        /* \"contracts/modules/SponsorMatrix.sol\":15464:15490  user.account == msg.sender */\n      eq\n        /* \"contracts/modules/SponsorMatrix.sol\":15456:15511  require(user.account == msg.sender, \"Not your account\") */\n      tag_11\n      jump\t// in\n    tag_290:\n        /* \"contracts/modules/SponsorMatrix.sol\":15530:15547  user.boosterlevel */\n      0x0d\n      dup2\n      add\n        /* \"contracts/modules/SponsorMatrix.sol\":756:40143  contract Nanakshahi {... */\n      swap1\n      dup2\n      sload\n        /* \"contracts/modules/SponsorMatrix.sol\":15530:15551  user.boosterlevel < 8 */\n      swap2\n        /* \"contracts/modules/SponsorMatrix.sol\":15550:15551  8 */\n      0x08\n        /* \"contracts/modules/SponsorMatrix.sol\":15530:15551  user.boosterlevel < 8 */\n      dup4\n      lt\n        /* \"contracts/modules/SponsorMatrix.sol\":15522:15568  require(user.boosterlevel < 8, \"At max level\") */\n      tag_291\n      dup2\n      tag_21\n      jump\t// in\n    tag_291:\n        /* \"contracts/modules/SponsorMatrix.sol\":756:40143  contract Nanakshahi {... */\n      iszero\n      tag_292\n      jumpi\n      dup3\n        /* \"contracts/modules/SponsorMatrix.sol\":15739:15760  minLevelForGlbBooster */\n      0x11\n        /* \"contracts/modules/SponsorMatrix.sol\":756:40143  contract Nanakshahi {... */\n      add\n      sload\n      dup4\n        /* \"contracts/modules/SponsorMatrix.sol\":15838:15858  minPoolForGlbBooster */\n      0x19\n        /* \"contracts/modules/SponsorMatrix.sol\":756:40143  contract Nanakshahi {... */\n      add\n      sload\n        /* \"contracts/modules/SponsorMatrix.sol\":15982:15992  user.level */\n      swap1\n      0x06\n      dup5\n      add\n        /* \"contracts/modules/SponsorMatrix.sol\":756:40143  contract Nanakshahi {... */\n      sload\n        /* \"contracts/modules/SponsorMatrix.sol\":15982:16009  user.level >= requiredLevel */\n      lt\n      iszero\n        /* \"contracts/modules/SponsorMatrix.sol\":15982:16043  user.level >= requiredLevel && user.poollevel >= requiredPool */\n      swap1\n      dup2\n      tag_294\n      jumpi\n        /* \"contracts/modules/SponsorMatrix.sol\":756:40143  contract Nanakshahi {... */\n    tag_295:\n      pop\n      iszero\n      tag_296\n      jumpi\n        /* \"contracts/modules/SponsorMatrix.sol\":16149:16161  nextPool > 0 */\n      dup3\n        /* \"contracts/modules/SponsorMatrix.sol\":16145:16255  if (nextPool > 0) {... */\n      tag_298\n      jumpi\n        /* \"contracts/modules/SponsorMatrix.sol\":756:40143  contract Nanakshahi {... */\n    tag_299:\n      dup4\n      0x00\n      mstore\n        /* \"contracts/modules/SponsorMatrix.sol\":16274:16288  userHasbooster */\n      0x2a\n        /* \"contracts/modules/SponsorMatrix.sol\":756:40143  contract Nanakshahi {... */\n      0x20\n      mstore\n      keccak256(0x00, 0x40)\n      dup4\n      0x00\n      mstore\n      0x20\n      mstore\n        /* \"contracts/modules/SponsorMatrix.sol\":16265:16334  require(!userHasbooster[_userId][nextPool], \"Pool already purchased\") */\n      tag_300\n        /* \"contracts/modules/SponsorMatrix.sol\":756:40143  contract Nanakshahi {... */\n      and(sload(keccak256(0x00, 0x40)), 0xff)\n        /* \"contracts/modules/SponsorMatrix.sol\":16273:16307  !userHasbooster[_userId][nextPool] */\n      iszero\n        /* \"contracts/modules/SponsorMatrix.sol\":16265:16334  require(!userHasbooster[_userId][nextPool], \"Pool already purchased\") */\n      tag_22\n      jump\t// in\n    tag_300:\n        /* \"contracts/modules/SponsorMatrix.sol\":16367:16395  GlbBoosterPackages[nextPool] */\n      tag_301\n      dup4\n      tag_4\n      jump\t// in\n    tag_301:\n        /* \"contracts/modules/SponsorMatrix.sol\":756:40143  contract Nanakshahi {... */\n      swap1\n      sload\n      0x00\n      dup1\n      sload\n      mload(0x40)\n      shl(0xe0, 0x23b872dd)\n        /* \"contracts/modules/SponsorMatrix.sol\":16463:16521  usdt.transferFrom(msg.sender, address(this), packagePrice) */\n      dup2\n      mstore\n        /* \"contracts/modules/SponsorMatrix.sol\":15480:15490  msg.sender */\n      caller\n        /* \"contracts/modules/SponsorMatrix.sol\":756:40143  contract Nanakshahi {... */\n      0x04\n        /* \"contracts/modules/SponsorMatrix.sol\":16463:16521  usdt.transferFrom(msg.sender, address(this), packagePrice) */\n      dup3\n      add\n        /* \"contracts/modules/SponsorMatrix.sol\":756:40143  contract Nanakshahi {... */\n      mstore\n        /* \"contracts/modules/SponsorMatrix.sol\":16501:16505  this */\n      address\n        /* \"contracts/modules/SponsorMatrix.sol\":756:40143  contract Nanakshahi {... */\n      0x24\n      dup3\n      add\n      mstore\n      0x03\n      swap5\n      swap1\n      swap5\n      shl\n      swap3\n      swap1\n      swap3\n      shr\n      0x44\n      dup5\n      add\n      dup2\n      swap1\n      mstore\n      swap4\n      swap3\n      swap2\n      0x20\n      swap2\n      dup4\n      swap2\n      0x64\n      swap2\n      dup4\n      swap2\n      sub(shl(0xa0, 0x01), 0x01)\n      and\n        /* \"contracts/modules/SponsorMatrix.sol\":16463:16521  usdt.transferFrom(msg.sender, address(this), packagePrice) */\n      gas\n      call\n      dup1\n      iszero\n      tag_164\n      jumpi\n      tag_305\n      jumpi\n        /* \"contracts/modules/SponsorMatrix.sol\":756:40143  contract Nanakshahi {... */\n    tag_306:\n      pop\n      dup1\n      sload\n      swap3\n      0x01\n      dup5\n      add\n      dup1\n      swap5\n      gt\n      tag_199\n      jumpi\n        /* \"contracts/modules/SponsorMatrix.sol\":16763:16931  user.deposits.push(Deposit({... */\n      tag_309\n        /* \"contracts/modules/SponsorMatrix.sol\":756:40143  contract Nanakshahi {... */\n      swap4\n      0x01\n      swap3\n      sstore\n      dup6\n      0x00\n      mstore\n        /* \"contracts/modules/SponsorMatrix.sol\":16274:16288  userHasbooster */\n      0x2a\n        /* \"contracts/modules/SponsorMatrix.sol\":756:40143  contract Nanakshahi {... */\n      0x20\n      mstore\n      keccak256(0x00, 0x40)\n      dup6\n      0x00\n      mstore\n      0x20\n      mstore\n      keccak256(0x00, 0x40)\n      dup3\n      not(0xff)\n      dup3\n      sload\n      and\n      or\n      swap1\n      sstore\n        /* \"contracts/modules/SponsorMatrix.sol\":16626:16645  user.boosterDeposit */\n      0x0e\n      dup2\n      add\n        /* \"contracts/modules/SponsorMatrix.sol\":16626:16661  user.boosterDeposit += packagePrice */\n      tag_310\n        /* \"contracts/modules/SponsorMatrix.sol\":756:40143  contract Nanakshahi {... */\n      dup5\n      dup3\n      sload\n        /* \"contracts/modules/SponsorMatrix.sol\":16626:16661  user.boosterDeposit += packagePrice */\n      tag_14\n      jump\t// in\n    tag_310:\n        /* \"contracts/modules/SponsorMatrix.sol\":756:40143  contract Nanakshahi {... */\n      swap1\n      sstore\n        /* \"contracts/modules/SponsorMatrix.sol\":16707:16719  packagePrice */\n      tag_311\n      dup4\n      dup8\n      dup8\n      tag_44\n      jump\t// in\n    tag_311:\n        /* \"contracts/modules/SponsorMatrix.sol\":756:40143  contract Nanakshahi {... */\n      mload(0x40)\n      swap3\n      tag_312\n      dup5\n      tag_15\n      jump\t// in\n    tag_312:\n      dup4\n      mstore\n      0x00\n      0x20\n        /* \"contracts/modules/SponsorMatrix.sol\":16782:16930  Deposit({... */\n      dup5\n      add\n        /* \"contracts/modules/SponsorMatrix.sol\":756:40143  contract Nanakshahi {... */\n      mstore\n        /* \"contracts/modules/SponsorMatrix.sol\":16874:16889  block.timestamp */\n      timestamp\n        /* \"contracts/modules/SponsorMatrix.sol\":756:40143  contract Nanakshahi {... */\n      0x40\n        /* \"contracts/modules/SponsorMatrix.sol\":16782:16930  Deposit({... */\n      dup5\n      add\n        /* \"contracts/modules/SponsorMatrix.sol\":756:40143  contract Nanakshahi {... */\n      mstore\n        /* \"contracts/modules/SponsorMatrix.sol\":16916:16918  11 */\n      0x0b\n        /* \"contracts/modules/SponsorMatrix.sol\":16782:16930  Deposit({... */\n      0x60\n      dup5\n      add\n        /* \"contracts/modules/SponsorMatrix.sol\":756:40143  contract Nanakshahi {... */\n      mstore\n        /* \"contracts/modules/SponsorMatrix.sol\":16763:16776  user.deposits */\n      add\n        /* \"contracts/modules/SponsorMatrix.sol\":16763:16931  user.deposits.push(Deposit({... */\n      tag_18\n      jump\t// in\n    tag_309:\n        /* \"contracts/modules/SponsorMatrix.sol\":756:40143  contract Nanakshahi {... */\n      0x01\n      dup2\n      add\n      dup1\n      swap2\n      gt\n      tag_199\n      jumpi\n      mload(0x40)\n      swap1\n      dup2\n      mstore\n      0x40\n      0x20\n      dup3\n      add\n      mstore\n      0x07\n      0x40\n      dup3\n      add\n      mstore\n      shl(0xc9, 0x2137b7b9ba32b9)\n        /* \"contracts/modules/SponsorMatrix.sol\":16782:16930  Deposit({... */\n      0x60\n        /* \"contracts/modules/SponsorMatrix.sol\":756:40143  contract Nanakshahi {... */\n      dup3\n      add\n      mstore\n      mload(0x00)\n      codecopy(0x00, data_92fb4c3df386bc0d49f8847c66cda554c07c2df42e065e03d639278ecf8d94a7, 0x20)\n      mload(0x00)\n      swap1\n      0x00\n      mstore\n      0x80\n        /* \"contracts/modules/SponsorMatrix.sol\":15480:15490  msg.sender */\n      caller\n        /* \"contracts/modules/SponsorMatrix.sol\":16949:17002  Upgrade(msg.sender, _userId, nextPool + 1, \"Booster\") */\n      swap3\n      log3\n        /* \"contracts/modules/SponsorMatrix.sol\":756:40143  contract Nanakshahi {... */\n      stop\n        /* \"contracts/modules/SponsorMatrix.sol\":16463:16521  usdt.transferFrom(msg.sender, address(this), packagePrice) */\n    tag_305:\n      tag_315\n      swap1\n        /* \"contracts/modules/SponsorMatrix.sol\":756:40143  contract Nanakshahi {... */\n      0x20\n        /* \"contracts/modules/SponsorMatrix.sol\":16463:16521  usdt.transferFrom(msg.sender, address(this), packagePrice) */\n      returndatasize\n        /* \"contracts/modules/SponsorMatrix.sol\":756:40143  contract Nanakshahi {... */\n      0x20\n        /* \"contracts/modules/SponsorMatrix.sol\":16463:16521  usdt.transferFrom(msg.sender, address(this), packagePrice) */\n      gt\n      tag_231\n      jumpi\n      tag_233\n      dup2\n      dup4\n      tag_17\n      jump\t// in\n    tag_315:\n      jump(tag_306)\n        /* \"contracts/modules/SponsorMatrix.sol\":16145:16255  if (nextPool > 0) {... */\n    tag_298:\n      jump(tag_299)\n        /* \"contracts/modules/SponsorMatrix.sol\":756:40143  contract Nanakshahi {... */\n    tag_296:\n      mload(0x40)\n      shl(0xe5, 0x461bcd)\n      dup2\n      mstore\n      0x20\n      0x04\n      dup3\n      add\n      mstore\n      0x15\n      0x24\n      dup3\n      add\n      mstore\n      shl(0x5a, 0x155c19dc9859194814db1bdd08185b9908141bdbdb)\n      0x44\n      dup3\n      add\n      mstore\n      0x64\n      swap1\n      revert\n        /* \"contracts/modules/SponsorMatrix.sol\":15982:16043  user.level >= requiredLevel && user.poollevel >= requiredPool */\n    tag_294:\n        /* \"contracts/modules/SponsorMatrix.sol\":16013:16027  user.poollevel */\n      swap1\n      pop\n      0x0b\n      dup4\n      add\n        /* \"contracts/modules/SponsorMatrix.sol\":756:40143  contract Nanakshahi {... */\n      sload\n        /* \"contracts/modules/SponsorMatrix.sol\":16013:16043  user.poollevel >= requiredPool */\n      lt\n      iszero\n        /* \"contracts/modules/SponsorMatrix.sol\":15982:16043  user.level >= requiredLevel && user.poollevel >= requiredPool */\n      dup6\n      jump(tag_295)\n        /* \"contracts/modules/SponsorMatrix.sol\":756:40143  contract Nanakshahi {... */\n    tag_292:\n      mstore(0x00, shl(0xe0, 0x4e487b71))\n      mstore(0x04, 0x32)\n      revert(0x00, 0x24)\n    tag_120:\n      jumpi(tag_152, callvalue)\n      jumpi(tag_152, slt(add(not(0x03), calldatasize), 0x20))\n      calldataload(0x04)\n        /* \"contracts/modules/SponsorMatrix.sol\":1870:1963  uint[] public poolPackages = [75e18, 300e18, 1200e18, 4800e18, 19200e18, 76800e18, 307200e18] */\n      0x08\n        /* \"contracts/modules/SponsorMatrix.sol\":756:40143  contract Nanakshahi {... */\n      sload\n        /* \"contracts/modules/SponsorMatrix.sol\":1870:1963  uint[] public poolPackages = [75e18, 300e18, 1200e18, 4800e18, 19200e18, 76800e18, 307200e18] */\n      dup2\n      lt\n      iszero\n      tag_152\n      jumpi\n      tag_268\n        /* \"contracts/modules/SponsorMatrix.sol\":756:40143  contract Nanakshahi {... */\n      0x20\n        /* \"contracts/modules/SponsorMatrix.sol\":1870:1963  uint[] public poolPackages = [75e18, 300e18, 1200e18, 4800e18, 19200e18, 76800e18, 307200e18] */\n      swap2\n      tag_2\n      jump\t// in\n        /* \"contracts/modules/SponsorMatrix.sol\":756:40143  contract Nanakshahi {... */\n    tag_118:\n      jumpi(tag_152, callvalue)\n      jumpi(tag_152, slt(add(not(0x03), calldatasize), 0x20))\n      calldataload(0x04)\n        /* \"contracts/modules/SponsorMatrix.sol\":1970:2075  uint[] public GlbBoosterPackages = [ 100e18, 200e18, 400e18, 800e18, 1600e18, 3200e18, 6400e18, 12800e18] */\n      0x09\n        /* \"contracts/modules/SponsorMatrix.sol\":756:40143  contract Nanakshahi {... */\n      sload\n        /* \"contracts/modules/SponsorMatrix.sol\":1970:2075  uint[] public GlbBoosterPackages = [ 100e18, 200e18, 400e18, 800e18, 1600e18, 3200e18, 6400e18, 12800e18] */\n      dup2\n      lt\n      iszero\n      tag_152\n      jumpi\n      tag_268\n        /* \"contracts/modules/SponsorMatrix.sol\":756:40143  contract Nanakshahi {... */\n      0x20\n        /* \"contracts/modules/SponsorMatrix.sol\":1970:2075  uint[] public GlbBoosterPackages = [ 100e18, 200e18, 400e18, 800e18, 1600e18, 3200e18, 6400e18, 12800e18] */\n      swap2\n      tag_4\n      jump\t// in\n        /* \"contracts/modules/SponsorMatrix.sol\":756:40143  contract Nanakshahi {... */\n    tag_116:\n      jumpi(tag_152, callvalue)\n      tag_335\n      calldatasize\n      tag_7\n      jump\t// in\n    tag_335:\n      swap1\n      0x00\n      mstore\n        /* \"contracts/modules/SponsorMatrix.sol\":5137:5197  mapping(uint => mapping(uint => bool)) public userHasbooster */\n      0x2a\n        /* \"contracts/modules/SponsorMatrix.sol\":756:40143  contract Nanakshahi {... */\n      0x20\n      mstore\n      keccak256(0x00, 0x40)\n      swap1\n      0x00\n      mstore\n      0x20\n      mstore\n      0x20\n      and(sload(keccak256(0x00, 0x40)), 0xff)\n      mload(0x40)\n      swap1\n      iszero\n      iszero\n      dup2\n      mstore\n      return\n    tag_114:\n      jumpi(tag_152, callvalue)\n      jumpi(tag_152, slt(add(not(0x03), calldatasize), 0x20))\n      calldataload(0x04)\n      0x08\n        /* \"contracts/modules/SponsorMatrix.sol\":2217:2278  uint[8] public minPoolForGlbBooster = [0, 1, 1, 1, 1, 1, 1,1] */\n      dup2\n      lt\n      iszero\n      tag_152\n      jumpi\n        /* \"contracts/modules/SponsorMatrix.sol\":756:40143  contract Nanakshahi {... */\n      0x20\n      swap1\n        /* \"contracts/modules/SponsorMatrix.sol\":2217:2278  uint[8] public minPoolForGlbBooster = [0, 1, 1, 1, 1, 1, 1,1] */\n      0x19\n        /* \"contracts/modules/SponsorMatrix.sol\":756:40143  contract Nanakshahi {... */\n      add\n      sload\n      mload(0x40)\n      swap1\n      dup2\n      mstore\n      return\n    tag_112:\n      jumpi(tag_152, callvalue)\n      tag_344\n      calldatasize\n      tag_7\n      jump\t// in\n    tag_344:\n      swap1\n      0x00\n      mstore\n        /* \"contracts/modules/SponsorMatrix.sol\":4904:4972  mapping(uint =>  mapping(uint => UserBooster)) public userBoosterdtl */\n      0x27\n        /* \"contracts/modules/SponsorMatrix.sol\":756:40143  contract Nanakshahi {... */\n      0x20\n      mstore\n      keccak256(0x00, 0x40)\n      swap1\n      0x00\n      mstore\n      0x20\n      mstore\n      0x80\n      keccak256(0x00, 0x40)\n      dup1\n      sload\n        /* \"contracts/modules/SponsorMatrix.sol\":4904:4972  mapping(uint =>  mapping(uint => UserBooster)) public userBoosterdtl */\n      swap1\n      0x01\n      dup2\n      add\n        /* \"contracts/modules/SponsorMatrix.sol\":756:40143  contract Nanakshahi {... */\n      sload\n        /* \"contracts/modules/SponsorMatrix.sol\":4904:4972  mapping(uint =>  mapping(uint => UserBooster)) public userBoosterdtl */\n      swap1\n      0x03\n      0x02\n      dup3\n      add\n        /* \"contracts/modules/SponsorMatrix.sol\":756:40143  contract Nanakshahi {... */\n      sload\n        /* \"contracts/modules/SponsorMatrix.sol\":4904:4972  mapping(uint =>  mapping(uint => UserBooster)) public userBoosterdtl */\n      swap2\n      add\n        /* \"contracts/modules/SponsorMatrix.sol\":756:40143  contract Nanakshahi {... */\n      sload\n      swap2\n      mload(0x40)\n      swap4\n      dup5\n      mstore\n      0x20\n      dup5\n      add\n      mstore\n      0x40\n      dup4\n      add\n      mstore\n      0x60\n      dup3\n      add\n      mstore\n      return\n    tag_110:\n      jumpi(tag_152, callvalue)\n      tag_347\n      calldatasize\n      tag_1\n      jump\t// in\n    tag_347:\n      swap2\n      0x00\n      mstore\n        /* \"contracts/modules/SponsorMatrix.sol\":4532:4592  mapping(uint => mapping(uint => uint[])) public userChildren */\n      0x23\n        /* \"contracts/modules/SponsorMatrix.sol\":756:40143  contract Nanakshahi {... */\n      0x20\n      mstore\n      keccak256(0x00, 0x40)\n      swap1\n      0x00\n      mstore\n      0x20\n      mstore\n      keccak256(0x00, 0x40)\n      dup1\n      sload\n        /* \"contracts/modules/SponsorMatrix.sol\":4532:4592  mapping(uint => mapping(uint => uint[])) public userChildren */\n      dup3\n      lt\n      iszero\n      tag_152\n      jumpi\n        /* \"contracts/modules/SponsorMatrix.sol\":756:40143  contract Nanakshahi {... */\n      0x20\n        /* \"contracts/modules/SponsorMatrix.sol\":4532:4592  mapping(uint => mapping(uint => uint[])) public userChildren */\n      swap2\n      tag_268\n      swap2\n      tag_6\n      jump\t// in\n        /* \"contracts/modules/SponsorMatrix.sol\":756:40143  contract Nanakshahi {... */\n    tag_108:\n      jumpi(tag_152, callvalue)\n      0xffffffff\n      tag_353\n      calldatasize\n      tag_8\n      jump\t// in\n    tag_353:\n      swap2\n      and\n      swap1\n      dup2\n      0x00\n      mstore\n        /* \"contracts/modules/SponsorMatrix.sol\":11097:11102  users */\n      0x2c\n        /* \"contracts/modules/SponsorMatrix.sol\":756:40143  contract Nanakshahi {... */\n      0x20\n      mstore\n      keccak256(0x00, 0x40)\n        /* \"contracts/modules/SponsorMatrix.sol\":11122:11177  require(user.account == msg.sender, \"Not your account\") */\n      tag_354\n        /* \"contracts/modules/SponsorMatrix.sol\":756:40143  contract Nanakshahi {... */\n      0x01\n      dup1\n      0xa0\n      shl\n      sub\n      dup3\n      sload\n      and\n        /* \"contracts/modules/SponsorMatrix.sol\":11146:11156  msg.sender */\n      caller\n        /* \"contracts/modules/SponsorMatrix.sol\":11130:11156  user.account == msg.sender */\n      eq\n        /* \"contracts/modules/SponsorMatrix.sol\":11122:11177  require(user.account == msg.sender, \"Not your account\") */\n      tag_11\n      jump\t// in\n    tag_354:\n        /* \"contracts/modules/SponsorMatrix.sol\":11196:11210  user.poollevel */\n      0x0b\n      dup2\n      add\n        /* \"contracts/modules/SponsorMatrix.sol\":756:40143  contract Nanakshahi {... */\n      swap2\n        /* \"contracts/modules/SponsorMatrix.sol\":11188:11230  require(user.poollevel < 7, \"At max pool\") */\n      tag_355\n        /* \"contracts/modules/SponsorMatrix.sol\":11213:11214  7 */\n      0x07\n        /* \"contracts/modules/SponsorMatrix.sol\":756:40143  contract Nanakshahi {... */\n      dup5\n      sload\n        /* \"contracts/modules/SponsorMatrix.sol\":11196:11214  user.poollevel < 7 */\n      lt\n        /* \"contracts/modules/SponsorMatrix.sol\":11188:11230  require(user.poollevel < 7, \"At max pool\") */\n      tag_12\n      jump\t// in\n    tag_355:\n        /* \"contracts/modules/SponsorMatrix.sol\":11341:11342  1 */\n      0x01\n        /* \"contracts/modules/SponsorMatrix.sol\":756:40143  contract Nanakshahi {... */\n      dup2\n      add\n      swap3\n      dup4\n      dup3\n      gt\n      tag_199\n      jumpi\n        /* \"contracts/modules/SponsorMatrix.sol\":11345:11357  poolPackages */\n      0x08\n        /* \"contracts/modules/SponsorMatrix.sol\":756:40143  contract Nanakshahi {... */\n      sload\n        /* \"contracts/modules/SponsorMatrix.sol\":11331:11364  _poolId + 1 < poolPackages.length */\n      dup5\n      lt\n        /* \"contracts/modules/SponsorMatrix.sol\":756:40143  contract Nanakshahi {... */\n      iszero\n      tag_358\n      jumpi\n        /* \"contracts/modules/SponsorMatrix.sol\":11409:11434  poolPackages[_poolId + 1] */\n      tag_360\n      dup5\n      tag_2\n      jump\t// in\n    tag_360:\n        /* \"contracts/modules/SponsorMatrix.sol\":756:40143  contract Nanakshahi {... */\n      swap1\n      sload\n      swap1\n      0x03\n      shl\n      shr\n      dup3\n      0x00\n      mstore\n        /* \"contracts/modules/SponsorMatrix.sol\":11681:11694  userPooltopup */\n      0x21\n        /* \"contracts/modules/SponsorMatrix.sol\":756:40143  contract Nanakshahi {... */\n      0x20\n      mstore\n      keccak256(0x00, 0x40)\n      dup7\n      0x00\n      mstore\n      0x20\n      mstore\n      keccak256(0x00, 0x40)\n      dup1\n      sload\n        /* \"contracts/modules/SponsorMatrix.sol\":11731:11762  top.nextPoolAmt >= packagePrice */\n      dup3\n      dup2\n      lt\n        /* \"contracts/modules/SponsorMatrix.sol\":756:40143  contract Nanakshahi {... */\n      tag_361\n      jumpi\n      dup8\n      0x00\n      mstore\n        /* \"contracts/modules/SponsorMatrix.sol\":11815:11826  userHasPool */\n      0x26\n        /* \"contracts/modules/SponsorMatrix.sol\":756:40143  contract Nanakshahi {... */\n      0x20\n      mstore\n      keccak256(0x00, 0x40)\n      dup8\n      0x00\n      mstore\n      0x20\n      mstore\n      jumpi(tag_363, and(sload(keccak256(0x00, 0x40)), 0xff))\n        /* \"contracts/modules/SponsorMatrix.sol\":11917:11948  top.nextPoolAmt -= packagePrice */\n      dup3\n      tag_365\n      swap2\n      tag_13\n      jump\t// in\n    tag_365:\n        /* \"contracts/modules/SponsorMatrix.sol\":756:40143  contract Nanakshahi {... */\n      swap1\n      sstore\n      dup2\n      sload\n      swap2\n        /* \"contracts/modules/SponsorMatrix.sol\":11341:11342  1 */\n      0x01\n        /* \"contracts/modules/SponsorMatrix.sol\":756:40143  contract Nanakshahi {... */\n      dup4\n      add\n      dup1\n      swap4\n      gt\n      tag_199\n      jumpi\n      0x02\n      swap5\n        /* \"contracts/modules/SponsorMatrix.sol\":12239:12431  user.deposits.push(Deposit({... */\n      tag_368\n        /* \"contracts/modules/SponsorMatrix.sol\":756:40143  contract Nanakshahi {... */\n      swap4\n        /* \"contracts/modules/SponsorMatrix.sol\":11341:11342  1 */\n      0x01\n        /* \"contracts/modules/SponsorMatrix.sol\":756:40143  contract Nanakshahi {... */\n      swap3\n      sstore\n        /* \"contracts/modules/SponsorMatrix.sol\":12026:12042  user.poolDeposit */\n      0x0c\n      dup2\n      add\n        /* \"contracts/modules/SponsorMatrix.sol\":12026:12058  user.poolDeposit += packagePrice */\n      tag_369\n        /* \"contracts/modules/SponsorMatrix.sol\":756:40143  contract Nanakshahi {... */\n      dup5\n      dup3\n      sload\n        /* \"contracts/modules/SponsorMatrix.sol\":12026:12058  user.poolDeposit += packagePrice */\n      tag_14\n      jump\t// in\n    tag_369:\n        /* \"contracts/modules/SponsorMatrix.sol\":756:40143  contract Nanakshahi {... */\n      swap1\n      sstore\n      dup8\n      0x00\n      mstore\n        /* \"contracts/modules/SponsorMatrix.sol\":11815:11826  userHasPool */\n      0x26\n        /* \"contracts/modules/SponsorMatrix.sol\":756:40143  contract Nanakshahi {... */\n      0x20\n      mstore\n      keccak256(0x00, 0x40)\n      dup8\n      0x00\n      mstore\n      0x20\n      mstore\n      keccak256(0x00, 0x40)\n      dup3\n      not(0xff)\n      dup3\n      sload\n      and\n      or\n      swap1\n      sstore\n        /* \"contracts/modules/SponsorMatrix.sol\":12152:12199  _placeInPool(targetPool, _userId, packagePrice) */\n      tag_311\n      dup4\n      dup10\n      dup10\n      tag_35\n      jump\t// in\n        /* \"contracts/modules/SponsorMatrix.sol\":12239:12431  user.deposits.push(Deposit({... */\n    tag_368:\n        /* \"contracts/modules/SponsorMatrix.sol\":756:40143  contract Nanakshahi {... */\n      add\n      dup1\n      swap2\n      gt\n      tag_199\n      jumpi\n      mload(0x40)\n      swap1\n      dup2\n      mstore\n      0x40\n      0x20\n      dup3\n      add\n      mstore\n      0x16\n      0x40\n      dup3\n      add\n      mstore\n      shl(0x50, 0x506f6f6c205570677261646520284561726e696e6729)\n        /* \"contracts/modules/SponsorMatrix.sol\":12258:12430  Deposit({... */\n      0x60\n        /* \"contracts/modules/SponsorMatrix.sol\":756:40143  contract Nanakshahi {... */\n      dup3\n      add\n      mstore\n      mload(0x00)\n      codecopy(0x00, data_92fb4c3df386bc0d49f8847c66cda554c07c2df42e065e03d639278ecf8d94a7, 0x20)\n      mload(0x00)\n      swap1\n      0x00\n      mstore\n      0x80\n        /* \"contracts/modules/SponsorMatrix.sol\":11146:11156  msg.sender */\n      caller\n        /* \"contracts/modules/SponsorMatrix.sol\":12449:12519  Upgrade(msg.sender, _userId, targetPool + 1, \"Pool Upgrade (Earning)\") */\n      swap3\n      log3\n        /* \"contracts/modules/SponsorMatrix.sol\":756:40143  contract Nanakshahi {... */\n      stop\n    tag_363:\n      mload(0x40)\n      shl(0xe5, 0x461bcd)\n      dup2\n      mstore\n      0x20\n      0x04\n      dup3\n      add\n      mstore\n      0x1b\n      0x24\n      dup3\n      add\n      mstore\n      0x416c726561647920707572636861736564206e65787420706f6f6c0000000000\n      0x44\n      dup3\n      add\n      mstore\n      0x64\n      swap1\n      revert\n    tag_361:\n      mload(0x40)\n      shl(0xe5, 0x461bcd)\n      dup2\n      mstore\n      0x20\n      0x04\n      dup3\n      add\n      mstore\n      0x1c\n      0x24\n      dup3\n      add\n      mstore\n      0x4e6f7420656e6f756768206e65787420706f6f6c2062616c616e636500000000\n      0x44\n      dup3\n      add\n      mstore\n      0x64\n      swap1\n      revert\n    tag_358:\n      mload(0x40)\n      shl(0xe5, 0x461bcd)\n      dup2\n      mstore\n      0x20\n      0x04\n      dup3\n      add\n      mstore\n      0x0e\n      0x24\n      dup3\n      add\n      mstore\n      shl(0x92, 0x139bc81a1a59da195c881c1bdbdb)\n      0x44\n      dup3\n      add\n      mstore\n      0x64\n      swap1\n      revert\n    tag_106:\n      jumpi(tag_152, callvalue)\n      jumpi(tag_152, slt(add(not(0x03), calldatasize), 0x00))\n      sload(0x01)\n      mload(0x40)\n      sub(shl(0xa0, 0x01), 0x01)\n      swap1\n      swap2\n      and\n      dup2\n      mstore\n      0x20\n      swap1\n      return\n    tag_104:\n      jumpi(tag_152, callvalue)\n      tag_380\n      calldatasize\n      tag_1\n      jump\t// in\n    tag_380:\n      swap2\n      0x00\n      mstore\n        /* \"contracts/modules/SponsorMatrix.sol\":4622:4683  mapping(uint => mapping(uint => uint[])) public userIdPerPool */\n      0x24\n        /* \"contracts/modules/SponsorMatrix.sol\":756:40143  contract Nanakshahi {... */\n      0x20\n      mstore\n      keccak256(0x00, 0x40)\n      swap1\n      0x00\n      mstore\n      0x20\n      mstore\n      keccak256(0x00, 0x40)\n      dup1\n      sload\n        /* \"contracts/modules/SponsorMatrix.sol\":4622:4683  mapping(uint => mapping(uint => uint[])) public userIdPerPool */\n      dup3\n      lt\n      iszero\n      tag_152\n      jumpi\n        /* \"contracts/modules/SponsorMatrix.sol\":756:40143  contract Nanakshahi {... */\n      0x20\n        /* \"contracts/modules/SponsorMatrix.sol\":4622:4683  mapping(uint => mapping(uint => uint[])) public userIdPerPool */\n      swap2\n      tag_268\n      swap2\n      tag_6\n      jump\t// in\n        /* \"contracts/modules/SponsorMatrix.sol\":756:40143  contract Nanakshahi {... */\n    tag_102:\n      jumpi(tag_152, callvalue)\n      jumpi(tag_152, slt(add(not(0x03), calldatasize), 0x20))\n      mstore(0x00, calldataload(0x04))\n        /* \"contracts/modules/SponsorMatrix.sol\":5837:5878  mapping(uint => uint) public matrixDirect */\n      0x30\n        /* \"contracts/modules/SponsorMatrix.sol\":756:40143  contract Nanakshahi {... */\n      0x20\n      mstore\n      0x20\n      sload(keccak256(0x00, 0x40))\n      mload(0x40)\n      swap1\n      dup2\n      mstore\n      return\n    tag_100:\n      jumpi(tag_152, callvalue)\n      jumpi(tag_152, slt(add(not(0x03), calldatasize), 0x00))\n        /* \"contracts/modules/SponsorMatrix.sol\":6270:6302  address public lastLotteryWinner */\n      0x35\n        /* \"contracts/modules/SponsorMatrix.sol\":756:40143  contract Nanakshahi {... */\n      sload\n      mload(0x40)\n      sub(shl(0xa0, 0x01), 0x01)\n      swap1\n      swap2\n      and\n      dup2\n      mstore\n      0x20\n      swap1\n      return\n    tag_98:\n      jumpi(tag_152, callvalue)\n      jumpi(tag_152, slt(add(not(0x03), calldatasize), 0x00))\n        /* \"contracts/modules/SponsorMatrix.sol\":835:863  address public creatorWallet */\n      0x02\n        /* \"contracts/modules/SponsorMatrix.sol\":756:40143  contract Nanakshahi {... */\n      sload\n      mload(0x40)\n      sub(shl(0xa0, 0x01), 0x01)\n      swap1\n      swap2\n      and\n      dup2\n      mstore\n      0x20\n      swap1\n      return\n    tag_96:\n      jumpi(tag_152, callvalue)\n      jumpi(tag_152, slt(add(not(0x03), calldatasize), 0x00))\n      0x20\n        /* \"contracts/modules/SponsorMatrix.sol\":6085:6119  uint256 public communityAccPerUser */\n      0x32\n        /* \"contracts/modules/SponsorMatrix.sol\":756:40143  contract Nanakshahi {... */\n      sload\n      mload(0x40)\n      swap1\n      dup2\n      mstore\n      return\n    tag_94:\n      jumpi(tag_152, callvalue)\n      tag_402\n      calldatasize\n      tag_7\n      jump\t// in\n    tag_402:\n      swap1\n      0x00\n      mstore\n        /* \"contracts/modules/SponsorMatrix.sol\":5690:5736  mapping(uint => Income[]) public incomeHistory */\n      0x2e\n        /* \"contracts/modules/SponsorMatrix.sol\":756:40143  contract Nanakshahi {... */\n      0x20\n      mstore\n      keccak256(0x00, 0x40)\n      swap1\n      dup2\n      sload\n        /* \"contracts/modules/SponsorMatrix.sol\":5690:5736  mapping(uint => Income[]) public incomeHistory */\n      dup2\n      lt\n      iszero\n      tag_152\n      jumpi\n      tag_405\n      swap2\n      tag_9\n      jump\t// in\n    tag_405:\n      pop\n        /* \"contracts/modules/SponsorMatrix.sol\":756:40143  contract Nanakshahi {... */\n      dup1\n      sload\n        /* \"contracts/modules/SponsorMatrix.sol\":5690:5736  mapping(uint => Income[]) public incomeHistory */\n      0x01\n      dup3\n      add\n        /* \"contracts/modules/SponsorMatrix.sol\":756:40143  contract Nanakshahi {... */\n      sload\n        /* \"contracts/modules/SponsorMatrix.sol\":5690:5736  mapping(uint => Income[]) public incomeHistory */\n      0x02\n      dup4\n      add\n        /* \"contracts/modules/SponsorMatrix.sol\":756:40143  contract Nanakshahi {... */\n      sload\n        /* \"contracts/modules/SponsorMatrix.sol\":5690:5736  mapping(uint => Income[]) public incomeHistory */\n      0x03\n      dup5\n      add\n        /* \"contracts/modules/SponsorMatrix.sol\":756:40143  contract Nanakshahi {... */\n      sload\n      0x04\n        /* \"contracts/modules/SponsorMatrix.sol\":5690:5736  mapping(uint => Income[]) public incomeHistory */\n      swap1\n      swap5\n      add\n        /* \"contracts/modules/SponsorMatrix.sol\":756:40143  contract Nanakshahi {... */\n      sload\n      0x40\n      dup1\n      mload\n      swap5\n      dup6\n      mstore\n      0x20\n      dup6\n      add\n      swap4\n      swap1\n      swap4\n      mstore\n      swap2\n      dup4\n      add\n      mstore\n      0x60\n      dup3\n      add\n      swap3\n      swap1\n      swap3\n      mstore\n      0x80\n      dup2\n      add\n      swap2\n      swap1\n      swap2\n      mstore\n      0xa0\n      swap1\n      return\n    tag_92:\n      jumpi(tag_152, callvalue)\n      jumpi(tag_152, slt(add(not(0x03), calldatasize), 0x20))\n      0x60\n      tag_411\n      calldataload(0x04)\n      tag_26\n      jump\t// in\n    tag_411:\n      swap2\n      swap1\n      0x20\n      mload(0x40)\n      swap4\n      dup5\n      swap3\n      iszero\n      iszero\n      dup4\n      mstore\n      0x40\n      dup3\n      dup5\n      add\n      mstore\n      dup1\n      mload\n      swap2\n      dup3\n      swap2\n      dup3\n      0x40\n      dup7\n      add\n      mstore\n      add\n      dup5\n      dup5\n      add\n      mcopy\n      0x00\n      dup3\n      dup3\n      add\n      dup5\n      add\n      mstore\n      0x1f\n      add\n      not(0x1f)\n      and\n      dup2\n      add\n      sub\n      add\n      swap1\n      return\n    tag_90:\n      jumpi(tag_152, callvalue)\n      tag_414\n      calldatasize\n      tag_7\n      jump\t// in\n    tag_414:\n      swap1\n      0x00\n      mstore\n        /* \"contracts/modules/SponsorMatrix.sol\":5921:5967  mapping(uint => uint[]) public directReferrals */\n      0x31\n        /* \"contracts/modules/SponsorMatrix.sol\":756:40143  contract Nanakshahi {... */\n      0x20\n      mstore\n      keccak256(0x00, 0x40)\n      dup1\n      sload\n        /* \"contracts/modules/SponsorMatrix.sol\":5921:5967  mapping(uint => uint[]) public directReferrals */\n      dup3\n      lt\n      iszero\n      tag_152\n      jumpi\n        /* \"contracts/modules/SponsorMatrix.sol\":756:40143  contract Nanakshahi {... */\n      0x20\n        /* \"contracts/modules/SponsorMatrix.sol\":5921:5967  mapping(uint => uint[]) public directReferrals */\n      swap2\n      tag_268\n      swap2\n      tag_6\n      jump\t// in\n        /* \"contracts/modules/SponsorMatrix.sol\":756:40143  contract Nanakshahi {... */\n    tag_88:\n      jumpi(tag_152, callvalue)\n      tag_420\n      calldatasize\n      tag_1\n      jump\t// in\n    tag_420:\n      swap2\n      0x00\n      mstore\n        /* \"contracts/modules/SponsorMatrix.sol\":5743:5796  mapping(uint => mapping(uint => uint[])) public teams */\n      0x2f\n        /* \"contracts/modules/SponsorMatrix.sol\":756:40143  contract Nanakshahi {... */\n      0x20\n      mstore\n      keccak256(0x00, 0x40)\n      swap1\n      0x00\n      mstore\n      0x20\n      mstore\n      keccak256(0x00, 0x40)\n      dup1\n      sload\n        /* \"contracts/modules/SponsorMatrix.sol\":5743:5796  mapping(uint => mapping(uint => uint[])) public teams */\n      dup3\n      lt\n      iszero\n      tag_152\n      jumpi\n        /* \"contracts/modules/SponsorMatrix.sol\":756:40143  contract Nanakshahi {... */\n      0x20\n        /* \"contracts/modules/SponsorMatrix.sol\":5743:5796  mapping(uint => mapping(uint => uint[])) public teams */\n      swap2\n      tag_268\n      swap2\n      tag_6\n      jump\t// in\n        /* \"contracts/modules/SponsorMatrix.sol\":756:40143  contract Nanakshahi {... */\n    tag_86:\n      jumpi(tag_152, callvalue)\n      jumpi(tag_152, slt(add(not(0x03), calldatasize), 0x00))\n      0x20\n      mload(0x40)\n        /* \"contracts/modules/SponsorMatrix.sol\":1260:1262  10 */\n      0x0a\n        /* \"contracts/modules/SponsorMatrix.sol\":756:40143  contract Nanakshahi {... */\n      dup2\n      mstore\n      return\n    tag_84:\n      jumpi(tag_152, callvalue)\n      jumpi(tag_152, slt(add(not(0x03), calldatasize), 0x00))\n      0x20\n        /* \"contracts/modules/SponsorMatrix.sol\":6342:6378  uint public lotteryInterval = 1 days */\n      0x37\n        /* \"contracts/modules/SponsorMatrix.sol\":756:40143  contract Nanakshahi {... */\n      sload\n      mload(0x40)\n      swap1\n      dup2\n      mstore\n      return\n    tag_82:\n      jumpi(tag_152, callvalue)\n      jumpi(tag_152, slt(add(not(0x03), calldatasize), 0x20))\n      mstore(0x00, calldataload(0x04))\n        /* \"contracts/modules/SponsorMatrix.sol\":5606:5652  mapping(uint => UserIncome) public userIncomes */\n      0x2d\n        /* \"contracts/modules/SponsorMatrix.sol\":756:40143  contract Nanakshahi {... */\n      0x20\n      mstore\n      0x0140\n      keccak256(0x00, 0x40)\n      dup1\n      sload\n        /* \"contracts/modules/SponsorMatrix.sol\":5606:5652  mapping(uint => UserIncome) public userIncomes */\n      swap1\n        /* \"contracts/modules/SponsorMatrix.sol\":756:40143  contract Nanakshahi {... */\n      0x01\n        /* \"contracts/modules/SponsorMatrix.sol\":5606:5652  mapping(uint => UserIncome) public userIncomes */\n      dup2\n      add\n        /* \"contracts/modules/SponsorMatrix.sol\":756:40143  contract Nanakshahi {... */\n      sload\n        /* \"contracts/modules/SponsorMatrix.sol\":5606:5652  mapping(uint => UserIncome) public userIncomes */\n      swap1\n      0x02\n      dup2\n      add\n        /* \"contracts/modules/SponsorMatrix.sol\":756:40143  contract Nanakshahi {... */\n      sload\n        /* \"contracts/modules/SponsorMatrix.sol\":5606:5652  mapping(uint => UserIncome) public userIncomes */\n      0x03\n      dup3\n      add\n        /* \"contracts/modules/SponsorMatrix.sol\":756:40143  contract Nanakshahi {... */\n      sload\n      0x04\n        /* \"contracts/modules/SponsorMatrix.sol\":5606:5652  mapping(uint => UserIncome) public userIncomes */\n      dup4\n      add\n        /* \"contracts/modules/SponsorMatrix.sol\":756:40143  contract Nanakshahi {... */\n      sload\n        /* \"contracts/modules/SponsorMatrix.sol\":5606:5652  mapping(uint => UserIncome) public userIncomes */\n      0x05\n      dup5\n      add\n        /* \"contracts/modules/SponsorMatrix.sol\":756:40143  contract Nanakshahi {... */\n      sload\n        /* \"contracts/modules/SponsorMatrix.sol\":5606:5652  mapping(uint => UserIncome) public userIncomes */\n      swap1\n      0x06\n      dup6\n      add\n        /* \"contracts/modules/SponsorMatrix.sol\":756:40143  contract Nanakshahi {... */\n      sload\n        /* \"contracts/modules/SponsorMatrix.sol\":5606:5652  mapping(uint => UserIncome) public userIncomes */\n      swap3\n      0x07\n      dup7\n      add\n        /* \"contracts/modules/SponsorMatrix.sol\":756:40143  contract Nanakshahi {... */\n      sload\n        /* \"contracts/modules/SponsorMatrix.sol\":5606:5652  mapping(uint => UserIncome) public userIncomes */\n      swap5\n      0x09\n      0x08\n      dup9\n      add\n        /* \"contracts/modules/SponsorMatrix.sol\":756:40143  contract Nanakshahi {... */\n      sload\n        /* \"contracts/modules/SponsorMatrix.sol\":5606:5652  mapping(uint => UserIncome) public userIncomes */\n      swap8\n      add\n        /* \"contracts/modules/SponsorMatrix.sol\":756:40143  contract Nanakshahi {... */\n      sload\n      swap8\n      mload(0x40)\n      swap10\n      dup11\n      mstore\n      0x20\n      dup11\n      add\n      mstore\n      0x40\n      dup10\n      add\n      mstore\n      0x60\n      dup9\n      add\n      mstore\n      0x80\n      dup8\n      add\n      mstore\n      0xa0\n      dup7\n      add\n      mstore\n      0xc0\n      dup6\n      add\n      mstore\n      0xe0\n      dup5\n      add\n      mstore\n      0x0100\n      dup4\n      add\n      mstore\n      0x0120\n      dup3\n      add\n      mstore\n      return\n    tag_80:\n      jumpi(tag_152, callvalue)\n      jumpi(tag_152, slt(add(not(0x03), calldatasize), 0x20))\n      calldataload(0x04)\n      dup1\n      0x00\n      mstore\n        /* \"contracts/modules/SponsorMatrix.sol\":25114:25119  users */\n      0x2c\n        /* \"contracts/modules/SponsorMatrix.sol\":756:40143  contract Nanakshahi {... */\n      0x20\n      mstore\n      keccak256(0x00, 0x40)\n        /* \"contracts/modules/SponsorMatrix.sol\":25139:25194  require(user.account == msg.sender, \"Not your account\") */\n      tag_440\n        /* \"contracts/modules/SponsorMatrix.sol\":756:40143  contract Nanakshahi {... */\n      0x01\n      dup1\n      0xa0\n      shl\n      sub\n      dup3\n      sload\n      and\n        /* \"contracts/modules/SponsorMatrix.sol\":25163:25173  msg.sender */\n      caller\n        /* \"contracts/modules/SponsorMatrix.sol\":25147:25173  user.account == msg.sender */\n      eq\n        /* \"contracts/modules/SponsorMatrix.sol\":25139:25194  require(user.account == msg.sender, \"Not your account\") */\n      tag_11\n      jump\t// in\n    tag_440:\n        /* \"contracts/modules/SponsorMatrix.sol\":25213:25223  user.level */\n      0x06\n      dup2\n      add\n        /* \"contracts/modules/SponsorMatrix.sol\":756:40143  contract Nanakshahi {... */\n      swap1\n      dup2\n      sload\n        /* \"contracts/modules/SponsorMatrix.sol\":25213:25228  user.level < 15 */\n      swap2\n        /* \"contracts/modules/SponsorMatrix.sol\":25226:25228  15 */\n      0x0f\n        /* \"contracts/modules/SponsorMatrix.sol\":25213:25228  user.level < 15 */\n      dup4\n      lt\n        /* \"contracts/modules/SponsorMatrix.sol\":756:40143  contract Nanakshahi {... */\n      iszero\n      tag_441\n      jumpi\n        /* \"contracts/modules/SponsorMatrix.sol\":25332:25351  packages[nextLevel] */\n      tag_443\n      dup4\n      tag_3\n      jump\t// in\n    tag_443:\n        /* \"contracts/modules/SponsorMatrix.sol\":756:40143  contract Nanakshahi {... */\n      swap1\n      sload\n      0x00\n      dup1\n      sload\n      mload(0x40)\n      shl(0xe0, 0x23b872dd)\n        /* \"contracts/modules/SponsorMatrix.sol\":25419:25477  usdt.transferFrom(msg.sender, address(this), packagePrice) */\n      dup2\n      mstore\n        /* \"contracts/modules/SponsorMatrix.sol\":25163:25173  msg.sender */\n      caller\n        /* \"contracts/modules/SponsorMatrix.sol\":756:40143  contract Nanakshahi {... */\n      0x04\n        /* \"contracts/modules/SponsorMatrix.sol\":25419:25477  usdt.transferFrom(msg.sender, address(this), packagePrice) */\n      dup3\n      add\n        /* \"contracts/modules/SponsorMatrix.sol\":756:40143  contract Nanakshahi {... */\n      mstore\n        /* \"contracts/modules/SponsorMatrix.sol\":25457:25461  this */\n      address\n        /* \"contracts/modules/SponsorMatrix.sol\":756:40143  contract Nanakshahi {... */\n      0x24\n      dup3\n      add\n      mstore\n      0x03\n      swap5\n      swap1\n      swap5\n      shl\n      swap3\n      swap1\n      swap3\n      shr\n      0x44\n      dup5\n      add\n      dup2\n      swap1\n      mstore\n      swap4\n      swap3\n      swap2\n      0x20\n      swap2\n      dup4\n      swap2\n      0x64\n      swap2\n      dup4\n      swap2\n      sub(shl(0xa0, 0x01), 0x01)\n      and\n        /* \"contracts/modules/SponsorMatrix.sol\":25419:25477  usdt.transferFrom(msg.sender, address(this), packagePrice) */\n      gas\n      call\n      dup1\n      iszero\n      tag_164\n      jumpi\n      tag_447\n      jumpi\n        /* \"contracts/modules/SponsorMatrix.sol\":756:40143  contract Nanakshahi {... */\n    tag_448:\n      pop\n      dup1\n      sload\n      swap1\n      0x01\n      dup3\n      add\n      dup1\n      swap3\n      gt\n      tag_199\n      jumpi\n      sstore\n        /* \"contracts/modules/SponsorMatrix.sol\":25524:25541  user.totalDeposit */\n      0x0a\n      dup3\n      add\n        /* \"contracts/modules/SponsorMatrix.sol\":25524:25557  user.totalDeposit += packagePrice */\n      tag_451\n        /* \"contracts/modules/SponsorMatrix.sol\":756:40143  contract Nanakshahi {... */\n      dup3\n      dup3\n      sload\n        /* \"contracts/modules/SponsorMatrix.sol\":25524:25557  user.totalDeposit += packagePrice */\n      tag_14\n      jump\t// in\n    tag_451:\n        /* \"contracts/modules/SponsorMatrix.sol\":756:40143  contract Nanakshahi {... */\n      swap1\n      sstore\n        /* \"contracts/modules/SponsorMatrix.sol\":25602:25769  user.deposits.push(Deposit({... */\n      tag_452\n        /* \"contracts/modules/SponsorMatrix.sol\":756:40143  contract Nanakshahi {... */\n      mload(0x40)\n      tag_453\n      dup2\n      tag_15\n      jump\t// in\n    tag_453:\n      dup3\n      dup2\n      mstore\n      0x00\n      0x20\n        /* \"contracts/modules/SponsorMatrix.sol\":25621:25768  Deposit({... */\n      dup3\n      add\n        /* \"contracts/modules/SponsorMatrix.sol\":756:40143  contract Nanakshahi {... */\n      mstore\n        /* \"contracts/modules/SponsorMatrix.sol\":25713:25728  block.timestamp */\n      timestamp\n        /* \"contracts/modules/SponsorMatrix.sol\":756:40143  contract Nanakshahi {... */\n      0x40\n        /* \"contracts/modules/SponsorMatrix.sol\":25621:25768  Deposit({... */\n      dup3\n      add\n        /* \"contracts/modules/SponsorMatrix.sol\":756:40143  contract Nanakshahi {... */\n      mstore\n      0x01\n        /* \"contracts/modules/SponsorMatrix.sol\":25621:25768  Deposit({... */\n      0x60\n      dup3\n      add\n        /* \"contracts/modules/SponsorMatrix.sol\":756:40143  contract Nanakshahi {... */\n      mstore\n      0x01\n        /* \"contracts/modules/SponsorMatrix.sol\":25602:25615  user.deposits */\n      dup5\n      add\n        /* \"contracts/modules/SponsorMatrix.sol\":25602:25769  user.deposits.push(Deposit({... */\n      tag_18\n      jump\t// in\n    tag_452:\n        /* \"contracts/modules/SponsorMatrix.sol\":25850:25851  5 */\n      0x05\n        /* \"contracts/modules/SponsorMatrix.sol\":756:40143  contract Nanakshahi {... */\n      dup2\n      mul\n      dup2\n      iszero\n      swap1\n      dup3\n      dup2\n      div\n        /* \"contracts/modules/SponsorMatrix.sol\":25850:25851  5 */\n      0x05\n        /* \"contracts/modules/SponsorMatrix.sol\":756:40143  contract Nanakshahi {... */\n      eq\n      dup3\n      or\n      iszero\n      tag_199\n      jumpi\n        /* \"contracts/modules/SponsorMatrix.sol\":26010:26012  35 */\n      0x23\n        /* \"contracts/modules/SponsorMatrix.sol\":756:40143  contract Nanakshahi {... */\n      dup4\n      mul\n      dup4\n      dup2\n      div\n        /* \"contracts/modules/SponsorMatrix.sol\":26010:26012  35 */\n      0x23\n        /* \"contracts/modules/SponsorMatrix.sol\":756:40143  contract Nanakshahi {... */\n      eq\n      dup4\n      or\n      iszero\n      tag_199\n      jumpi\n        /* \"contracts/modules/SponsorMatrix.sol\":26125:26137  creatorShare */\n      tag_458\n        /* \"contracts/modules/SponsorMatrix.sol\":756:40143  contract Nanakshahi {... */\n      swap2\n        /* \"contracts/modules/SponsorMatrix.sol\":26051:26065  communityShare */\n      tag_198\n        /* \"contracts/modules/SponsorMatrix.sol\":25854:25857  100 */\n      0x64\n        /* \"contracts/modules/SponsorMatrix.sol\":756:40143  contract Nanakshahi {... */\n      dup1\n      swap4\n      div\n        /* \"contracts/modules/SponsorMatrix.sol\":26051:26065  communityShare */\n      tag_37\n      jump\t// in\n        /* \"contracts/modules/SponsorMatrix.sol\":26125:26137  creatorShare */\n    tag_458:\n        /* \"contracts/modules/SponsorMatrix.sol\":25226:25228  15 */\n      0x0f\n        /* \"contracts/modules/SponsorMatrix.sol\":756:40143  contract Nanakshahi {... */\n      dup3\n      mul\n      swap2\n      dup3\n      div\n        /* \"contracts/modules/SponsorMatrix.sol\":25226:25228  15 */\n      0x0f\n        /* \"contracts/modules/SponsorMatrix.sol\":756:40143  contract Nanakshahi {... */\n      eq\n      or\n      iszero\n      tag_199\n      jumpi\n        /* \"contracts/modules/SponsorMatrix.sol\":25854:25857  100 */\n      0x64\n        /* \"contracts/modules/SponsorMatrix.sol\":756:40143  contract Nanakshahi {... */\n      swap1\n      div\n        /* \"contracts/modules/SponsorMatrix.sol\":26361:26375  user.sponsorId */\n      swap2\n        /* \"contracts/modules/SponsorMatrix.sol\":756:40143  contract Nanakshahi {... */\n      0x04\n        /* \"contracts/modules/SponsorMatrix.sol\":26361:26375  user.sponsorId */\n      dup3\n      add\n        /* \"contracts/modules/SponsorMatrix.sol\":756:40143  contract Nanakshahi {... */\n      sload\n      0x01\n      dup3\n      add\n      swap4\n      dup5\n      dup4\n      gt\n      tag_199\n      jumpi\n        /* \"contracts/modules/SponsorMatrix.sol\":26401:26414  nextLevel + 1 */\n      dup6\n        /* \"contracts/modules/SponsorMatrix.sol\":25850:25851  5 */\n      0x05\n        /* \"contracts/modules/SponsorMatrix.sol\":26710:26719  nextLevel */\n      tag_464\n        /* \"contracts/modules/SponsorMatrix.sol\":26401:26414  nextLevel + 1 */\n      swap6\n      tag_465\n      dup9\n      dup6\n      dup6\n      dup3\n      swap9\n      tag_40\n      jump\t// in\n    tag_465:\n        /* \"contracts/modules/SponsorMatrix.sol\":26506:26519  user.uplineId */\n      add\n        /* \"contracts/modules/SponsorMatrix.sol\":26544:26557  nextLevel + 1 */\n      tag_466\n        /* \"contracts/modules/SponsorMatrix.sol\":756:40143  contract Nanakshahi {... */\n      dup5\n      dup5\n      dup5\n      dup5\n      sload\n        /* \"contracts/modules/SponsorMatrix.sol\":26544:26557  nextLevel + 1 */\n      tag_42\n      jump\t// in\n    tag_466:\n        /* \"contracts/modules/SponsorMatrix.sol\":756:40143  contract Nanakshahi {... */\n      sload\n        /* \"contracts/modules/SponsorMatrix.sol\":26710:26719  nextLevel */\n      tag_43\n      jump\t// in\n    tag_464:\n        /* \"contracts/modules/SponsorMatrix.sol\":756:40143  contract Nanakshahi {... */\n      mload(0x40)\n      swap1\n      dup2\n      mstore\n      0x40\n      0x20\n      dup3\n      add\n      mstore\n      0x04\n      0x40\n      dup3\n      add\n      mstore\n      shl(0xe2, 0x14db1bdd)\n        /* \"contracts/modules/SponsorMatrix.sol\":25621:25768  Deposit({... */\n      0x60\n        /* \"contracts/modules/SponsorMatrix.sol\":756:40143  contract Nanakshahi {... */\n      dup3\n      add\n      mstore\n      mload(0x00)\n      codecopy(0x00, data_92fb4c3df386bc0d49f8847c66cda554c07c2df42e065e03d639278ecf8d94a7, 0x20)\n      mload(0x00)\n      swap1\n      0x00\n      mstore\n      0x80\n        /* \"contracts/modules/SponsorMatrix.sol\":25163:25173  msg.sender */\n      caller\n        /* \"contracts/modules/SponsorMatrix.sol\":26757:26808  Upgrade(msg.sender, _userId, nextLevel + 1, \"Slot\") */\n      swap3\n      log3\n        /* \"contracts/modules/SponsorMatrix.sol\":756:40143  contract Nanakshahi {... */\n      stop\n        /* \"contracts/modules/SponsorMatrix.sol\":25419:25477  usdt.transferFrom(msg.sender, address(this), packagePrice) */\n    tag_447:\n      tag_467\n      swap1\n        /* \"contracts/modules/SponsorMatrix.sol\":756:40143  contract Nanakshahi {... */\n      0x20\n        /* \"contracts/modules/SponsorMatrix.sol\":25419:25477  usdt.transferFrom(msg.sender, address(this), packagePrice) */\n      returndatasize\n        /* \"contracts/modules/SponsorMatrix.sol\":756:40143  contract Nanakshahi {... */\n      0x20\n        /* \"contracts/modules/SponsorMatrix.sol\":25419:25477  usdt.transferFrom(msg.sender, address(this), packagePrice) */\n      gt\n      tag_231\n      jumpi\n      tag_233\n      dup2\n      dup4\n      tag_17\n      jump\t// in\n    tag_467:\n      jump(tag_448)\n        /* \"contracts/modules/SponsorMatrix.sol\":756:40143  contract Nanakshahi {... */\n    tag_441:\n      mload(0x40)\n      shl(0xe5, 0x461bcd)\n      dup2\n      mstore\n      0x20\n      0x04\n      dup3\n      add\n      mstore\n      0x14\n      0x24\n      dup3\n      add\n      mstore\n      shl(0x62, 0x105b1c9958591e48185d081b585e081b195d995b)\n      0x44\n      dup3\n      add\n      mstore\n      0x64\n      swap1\n      revert\n    tag_78:\n      jumpi(tag_152, callvalue)\n      jumpi(tag_152, slt(add(not(0x03), calldatasize), 0x20))\n      calldataload(0x04)\n      dup1\n      0x00\n      mstore\n        /* \"contracts/modules/SponsorMatrix.sol\":12616:12621  users */\n      0x2c\n        /* \"contracts/modules/SponsorMatrix.sol\":756:40143  contract Nanakshahi {... */\n      0x20\n      mstore\n      keccak256(0x00, 0x40)\n        /* \"contracts/modules/SponsorMatrix.sol\":12641:12696  require(user.account == msg.sender, \"Not your account\") */\n      tag_475\n        /* \"contracts/modules/SponsorMatrix.sol\":756:40143  contract Nanakshahi {... */\n      0x01\n      dup1\n      0xa0\n      shl\n      sub\n      dup3\n      sload\n      and\n        /* \"contracts/modules/SponsorMatrix.sol\":12665:12675  msg.sender */\n      caller\n        /* \"contracts/modules/SponsorMatrix.sol\":12649:12675  user.account == msg.sender */\n      eq\n        /* \"contracts/modules/SponsorMatrix.sol\":12641:12696  require(user.account == msg.sender, \"Not your account\") */\n      tag_11\n      jump\t// in\n    tag_475:\n        /* \"contracts/modules/SponsorMatrix.sol\":12715:12729  user.poollevel */\n      0x0b\n      dup2\n      add\n        /* \"contracts/modules/SponsorMatrix.sol\":756:40143  contract Nanakshahi {... */\n      swap1\n      dup2\n      sload\n        /* \"contracts/modules/SponsorMatrix.sol\":12715:12733  user.poollevel < 7 */\n      swap2\n        /* \"contracts/modules/SponsorMatrix.sol\":12732:12733  7 */\n      0x07\n        /* \"contracts/modules/SponsorMatrix.sol\":12715:12733  user.poollevel < 7 */\n      dup4\n      lt\n        /* \"contracts/modules/SponsorMatrix.sol\":12707:12750  require(user.poollevel < 7, \"At max level\") */\n      tag_476\n      dup2\n      tag_21\n      jump\t// in\n    tag_476:\n        /* \"contracts/modules/SponsorMatrix.sol\":756:40143  contract Nanakshahi {... */\n      iszero\n      tag_292\n      jumpi\n      dup3\n        /* \"contracts/modules/SponsorMatrix.sol\":12913:12928  minLevelForPool */\n      0x0a\n        /* \"contracts/modules/SponsorMatrix.sol\":756:40143  contract Nanakshahi {... */\n      add\n      sload\n        /* \"contracts/modules/SponsorMatrix.sol\":13054:13064  user.level */\n      0x06\n      dup4\n      add\n        /* \"contracts/modules/SponsorMatrix.sol\":756:40143  contract Nanakshahi {... */\n      sload\n        /* \"contracts/modules/SponsorMatrix.sol\":13054:13081  user.level >= requiredLevel */\n      lt\n        /* \"contracts/modules/SponsorMatrix.sol\":756:40143  contract Nanakshahi {... */\n      tag_479\n      jumpi\n        /* \"contracts/modules/SponsorMatrix.sol\":13190:13202  nextPool > 0 */\n      dup3\n      iszero\n      swap1\n      dup2\n      iszero\n        /* \"contracts/modules/SponsorMatrix.sol\":13186:13293  if (nextPool > 0) {... */\n      tag_481\n      jumpi\n        /* \"contracts/modules/SponsorMatrix.sol\":756:40143  contract Nanakshahi {... */\n    tag_482:\n      dup5\n      0x00\n      mstore\n        /* \"contracts/modules/SponsorMatrix.sol\":13312:13323  userHasPool */\n      0x26\n        /* \"contracts/modules/SponsorMatrix.sol\":756:40143  contract Nanakshahi {... */\n      0x20\n      mstore\n      keccak256(0x00, 0x40)\n      dup5\n      0x00\n      mstore\n      0x20\n      mstore\n        /* \"contracts/modules/SponsorMatrix.sol\":13303:13369  require(!userHasPool[_userId][nextPool], \"Pool already purchased\") */\n      tag_483\n        /* \"contracts/modules/SponsorMatrix.sol\":756:40143  contract Nanakshahi {... */\n      and(sload(keccak256(0x00, 0x40)), 0xff)\n        /* \"contracts/modules/SponsorMatrix.sol\":13311:13342  !userHasPool[_userId][nextPool] */\n      iszero\n        /* \"contracts/modules/SponsorMatrix.sol\":13303:13369  require(!userHasPool[_userId][nextPool], \"Pool already purchased\") */\n      tag_22\n      jump\t// in\n    tag_483:\n        /* \"contracts/modules/SponsorMatrix.sol\":13414:13436  poolPackages[nextPool] */\n      tag_484\n      dup5\n      tag_2\n      jump\t// in\n    tag_484:\n        /* \"contracts/modules/SponsorMatrix.sol\":756:40143  contract Nanakshahi {... */\n      swap1\n      sload\n      0x00\n      dup1\n      sload\n      mload(0x40)\n      shl(0xe0, 0x23b872dd)\n        /* \"contracts/modules/SponsorMatrix.sol\":13504:13562  usdt.transferFrom(msg.sender, address(this), packagePrice) */\n      dup2\n      mstore\n        /* \"contracts/modules/SponsorMatrix.sol\":12665:12675  msg.sender */\n      caller\n        /* \"contracts/modules/SponsorMatrix.sol\":756:40143  contract Nanakshahi {... */\n      0x04\n        /* \"contracts/modules/SponsorMatrix.sol\":13504:13562  usdt.transferFrom(msg.sender, address(this), packagePrice) */\n      dup3\n      add\n        /* \"contracts/modules/SponsorMatrix.sol\":756:40143  contract Nanakshahi {... */\n      mstore\n        /* \"contracts/modules/SponsorMatrix.sol\":13542:13546  this */\n      address\n        /* \"contracts/modules/SponsorMatrix.sol\":756:40143  contract Nanakshahi {... */\n      0x24\n      dup3\n      add\n      mstore\n      0x03\n      swap5\n      swap1\n      swap5\n      shl\n      swap3\n      swap1\n      swap3\n      shr\n      0x44\n      dup5\n      add\n      dup2\n      swap1\n      mstore\n      swap5\n      swap3\n      swap2\n      0x20\n      swap2\n      dup4\n      swap2\n      0x64\n      swap2\n      dup4\n      swap2\n      sub(shl(0xa0, 0x01), 0x01)\n      and\n        /* \"contracts/modules/SponsorMatrix.sol\":13504:13562  usdt.transferFrom(msg.sender, address(this), packagePrice) */\n      gas\n      call\n      dup1\n      iszero\n      tag_164\n      jumpi\n      tag_488\n      jumpi\n        /* \"contracts/modules/SponsorMatrix.sol\":756:40143  contract Nanakshahi {... */\n    tag_489:\n        /* \"contracts/modules/SponsorMatrix.sol\":13583:13817  if(nextPool == 0){... */\n      pop\n      tag_490\n      jumpi\n        /* \"contracts/modules/SponsorMatrix.sol\":756:40143  contract Nanakshahi {... */\n    tag_491:\n      dup1\n      sload\n      swap3\n      0x01\n      dup5\n      add\n      dup1\n      swap5\n      gt\n      tag_199\n      jumpi\n        /* \"contracts/modules/SponsorMatrix.sol\":14037:14205  user.deposits.push(Deposit({... */\n      tag_494\n        /* \"contracts/modules/SponsorMatrix.sol\":756:40143  contract Nanakshahi {... */\n      swap4\n      0x01\n      swap3\n      sstore\n      dup6\n      0x00\n      mstore\n        /* \"contracts/modules/SponsorMatrix.sol\":13312:13323  userHasPool */\n      0x26\n        /* \"contracts/modules/SponsorMatrix.sol\":756:40143  contract Nanakshahi {... */\n      0x20\n      mstore\n      keccak256(0x00, 0x40)\n      dup6\n      0x00\n      mstore\n      0x20\n      mstore\n      keccak256(0x00, 0x40)\n      dup3\n      not(0xff)\n      dup3\n      sload\n      and\n      or\n      swap1\n      sstore\n        /* \"contracts/modules/SponsorMatrix.sol\":13905:13921  user.poolDeposit */\n      0x0c\n      dup2\n      add\n        /* \"contracts/modules/SponsorMatrix.sol\":13905:13937  user.poolDeposit += packagePrice */\n      tag_495\n        /* \"contracts/modules/SponsorMatrix.sol\":756:40143  contract Nanakshahi {... */\n      dup5\n      dup3\n      sload\n        /* \"contracts/modules/SponsorMatrix.sol\":13905:13937  user.poolDeposit += packagePrice */\n      tag_14\n      jump\t// in\n    tag_495:\n        /* \"contracts/modules/SponsorMatrix.sol\":756:40143  contract Nanakshahi {... */\n      swap1\n      sstore\n        /* \"contracts/modules/SponsorMatrix.sol\":13981:13993  packagePrice */\n      tag_496\n      dup4\n      dup8\n      dup8\n      tag_35\n      jump\t// in\n    tag_496:\n        /* \"contracts/modules/SponsorMatrix.sol\":756:40143  contract Nanakshahi {... */\n      mload(0x40)\n      swap3\n      tag_497\n      dup5\n      tag_15\n      jump\t// in\n    tag_497:\n      dup4\n      mstore\n      0x00\n      0x20\n        /* \"contracts/modules/SponsorMatrix.sol\":14056:14204  Deposit({... */\n      dup5\n      add\n        /* \"contracts/modules/SponsorMatrix.sol\":756:40143  contract Nanakshahi {... */\n      mstore\n        /* \"contracts/modules/SponsorMatrix.sol\":14148:14163  block.timestamp */\n      timestamp\n        /* \"contracts/modules/SponsorMatrix.sol\":756:40143  contract Nanakshahi {... */\n      0x40\n        /* \"contracts/modules/SponsorMatrix.sol\":14056:14204  Deposit({... */\n      dup5\n      add\n        /* \"contracts/modules/SponsorMatrix.sol\":756:40143  contract Nanakshahi {... */\n      mstore\n        /* \"contracts/modules/SponsorMatrix.sol\":12913:12928  minLevelForPool */\n      0x0a\n        /* \"contracts/modules/SponsorMatrix.sol\":14056:14204  Deposit({... */\n      0x60\n      dup5\n      add\n        /* \"contracts/modules/SponsorMatrix.sol\":756:40143  contract Nanakshahi {... */\n      mstore\n        /* \"contracts/modules/SponsorMatrix.sol\":14037:14050  user.deposits */\n      add\n        /* \"contracts/modules/SponsorMatrix.sol\":14037:14205  user.deposits.push(Deposit({... */\n      tag_18\n      jump\t// in\n    tag_494:\n        /* \"contracts/modules/SponsorMatrix.sol\":756:40143  contract Nanakshahi {... */\n      0x01\n      dup2\n      add\n      dup1\n      swap2\n      gt\n      tag_199\n      jumpi\n      mload(0x40)\n      swap1\n      dup2\n      mstore\n      0x40\n      0x20\n      dup3\n      add\n      mstore\n      0x04\n      0x40\n      dup3\n      add\n      mstore\n      shl(0xe2, 0x141bdbdb)\n        /* \"contracts/modules/SponsorMatrix.sol\":14056:14204  Deposit({... */\n      0x60\n        /* \"contracts/modules/SponsorMatrix.sol\":756:40143  contract Nanakshahi {... */\n      dup3\n      add\n      mstore\n      mload(0x00)\n      codecopy(0x00, data_92fb4c3df386bc0d49f8847c66cda554c07c2df42e065e03d639278ecf8d94a7, 0x20)\n      mload(0x00)\n      swap1\n      0x00\n      mstore\n      0x80\n        /* \"contracts/modules/SponsorMatrix.sol\":12665:12675  msg.sender */\n      caller\n        /* \"contracts/modules/SponsorMatrix.sol\":14223:14273  Upgrade(msg.sender, _userId, nextPool + 1, \"Pool\") */\n      swap3\n      log3\n        /* \"contracts/modules/SponsorMatrix.sol\":756:40143  contract Nanakshahi {... */\n      stop\n        /* \"contracts/modules/SponsorMatrix.sol\":13583:13817  if(nextPool == 0){... */\n    tag_490:\n        /* \"contracts/modules/SponsorMatrix.sol\":756:40143  contract Nanakshahi {... */\n      0x04\n        /* \"contracts/modules/SponsorMatrix.sol\":13633:13647  user.sponsorId */\n      dup4\n      add\n        /* \"contracts/modules/SponsorMatrix.sol\":756:40143  contract Nanakshahi {... */\n      sload\n      dup1\n      0x00\n      mstore\n        /* \"contracts/modules/SponsorMatrix.sol\":12616:12621  users */\n      0x2c\n        /* \"contracts/modules/SponsorMatrix.sol\":756:40143  contract Nanakshahi {... */\n      0x20\n      mstore\n        /* \"contracts/modules/SponsorMatrix.sol\":13665:13699  users[_sponsorId].registrationTime */\n      0x0f\n        /* \"contracts/modules/SponsorMatrix.sol\":756:40143  contract Nanakshahi {... */\n      keccak256(0x00, 0x40)\n        /* \"contracts/modules/SponsorMatrix.sol\":13665:13699  users[_sponsorId].registrationTime */\n      add\n        /* \"contracts/modules/SponsorMatrix.sol\":756:40143  contract Nanakshahi {... */\n      sload\n        /* \"contracts/modules/SponsorMatrix.sol\":13702:13708  172800 */\n      0x02a300\n        /* \"contracts/modules/SponsorMatrix.sol\":756:40143  contract Nanakshahi {... */\n      dup2\n      add\n      dup1\n      swap2\n      gt\n      tag_199\n      jumpi\n        /* \"contracts/modules/SponsorMatrix.sol\":13712:13727  block.timestamp */\n      timestamp\n      lt\n        /* \"contracts/modules/SponsorMatrix.sol\":13665:13727  users[_sponsorId].registrationTime + 172800 <= block.timestamp */\n      iszero\n        /* \"contracts/modules/SponsorMatrix.sol\":13662:13806  if(users[_sponsorId].registrationTime + 172800 <= block.timestamp){... */\n      tag_502\n      jumpi\n        /* \"contracts/modules/SponsorMatrix.sol\":13583:13817  if(nextPool == 0){... */\n    tag_503:\n      pop\n      jump(tag_491)\n        /* \"contracts/modules/SponsorMatrix.sol\":13662:13806  if(users[_sponsorId].registrationTime + 172800 <= block.timestamp){... */\n    tag_502:\n        /* \"contracts/modules/SponsorMatrix.sol\":756:40143  contract Nanakshahi {... */\n      0x00\n      mstore\n        /* \"contracts/modules/SponsorMatrix.sol\":12616:12621  users */\n      0x2c\n        /* \"contracts/modules/SponsorMatrix.sol\":756:40143  contract Nanakshahi {... */\n      0x20\n      mstore\n        /* \"contracts/modules/SponsorMatrix.sol\":13414:13426  poolPackages */\n      0x08\n        /* \"contracts/modules/SponsorMatrix.sol\":756:40143  contract Nanakshahi {... */\n      keccak256(0x00, 0x40)\n        /* \"contracts/modules/SponsorMatrix.sol\":13748:13785  users[_sponsorId].directPoolQualified */\n      add\n        /* \"contracts/modules/SponsorMatrix.sol\":756:40143  contract Nanakshahi {... */\n      dup1\n      sload\n      swap1\n      0x01\n      dup3\n      add\n      dup1\n      swap3\n      gt\n      tag_199\n      jumpi\n      sstore\n        /* \"contracts/modules/SponsorMatrix.sol\":13662:13806  if(users[_sponsorId].registrationTime + 172800 <= block.timestamp){... */\n      dup6\n      jump(tag_503)\n        /* \"contracts/modules/SponsorMatrix.sol\":13504:13562  usdt.transferFrom(msg.sender, address(this), packagePrice) */\n    tag_488:\n      tag_506\n      swap1\n        /* \"contracts/modules/SponsorMatrix.sol\":756:40143  contract Nanakshahi {... */\n      0x20\n        /* \"contracts/modules/SponsorMatrix.sol\":13504:13562  usdt.transferFrom(msg.sender, address(this), packagePrice) */\n      returndatasize\n        /* \"contracts/modules/SponsorMatrix.sol\":756:40143  contract Nanakshahi {... */\n      0x20\n        /* \"contracts/modules/SponsorMatrix.sol\":13504:13562  usdt.transferFrom(msg.sender, address(this), packagePrice) */\n      gt\n      tag_231\n      jumpi\n      tag_233\n      dup2\n      dup4\n      tag_17\n      jump\t// in\n    tag_506:\n      jump(tag_489)\n        /* \"contracts/modules/SponsorMatrix.sol\":13186:13293  if (nextPool > 0) {... */\n    tag_481:\n      jump(tag_482)\n        /* \"contracts/modules/SponsorMatrix.sol\":756:40143  contract Nanakshahi {... */\n    tag_479:\n      mload(0x40)\n      shl(0xe5, 0x461bcd)\n      dup2\n      mstore\n      0x20\n      0x04\n      dup3\n      add\n      mstore\n      0x18\n      0x24\n      dup3\n      add\n      mstore\n      0x5570677261646520796f7572206c6576656c2066697273740000000000000000\n      0x44\n      dup3\n      add\n      mstore\n      0x64\n      swap1\n      revert\n    tag_76:\n      jumpi(tag_152, callvalue)\n      jumpi(tag_152, slt(add(not(0x03), calldatasize), 0x20))\n      calldataload(0x04)\n        /* \"contracts/modules/SponsorMatrix.sol\":6385:6416  uint[] public registeredUserIds */\n      0x38\n        /* \"contracts/modules/SponsorMatrix.sol\":756:40143  contract Nanakshahi {... */\n      sload\n        /* \"contracts/modules/SponsorMatrix.sol\":6385:6416  uint[] public registeredUserIds */\n      dup2\n      lt\n      iszero\n      tag_152\n      jumpi\n      0x38\n        /* \"contracts/modules/SponsorMatrix.sol\":756:40143  contract Nanakshahi {... */\n      sload\n      dup2\n      lt\n      iszero\n      tag_292\n      jumpi\n        /* \"contracts/modules/SponsorMatrix.sol\":6385:6416  uint[] public registeredUserIds */\n      0x38\n        /* \"contracts/modules/SponsorMatrix.sol\":756:40143  contract Nanakshahi {... */\n      0x00\n      mstore\n      0x38395c5dceade9603479b177b68959049485df8aa97b39f3533039af5f456199\n      add\n      sload\n      mload(0x40)\n      swap1\n      dup2\n      mstore\n      0x20\n      swap1\n      return\n    tag_74:\n      jumpi(tag_152, callvalue)\n      jumpi(tag_152, slt(add(not(0x03), calldatasize), 0x00))\n      0x20\n      mload(0x40)\n        /* \"contracts/modules/SponsorMatrix.sol\":1201:1203  15 */\n      0x0f\n        /* \"contracts/modules/SponsorMatrix.sol\":756:40143  contract Nanakshahi {... */\n      dup2\n      mstore\n      return\n    tag_72:\n      jumpi(tag_152, callvalue)\n      jumpi(tag_152, slt(add(not(0x03), calldatasize), 0x20))\n      mstore(0x00, calldataload(0x04))\n        /* \"contracts/modules/SponsorMatrix.sol\":5565:5599  mapping(uint => User) public users */\n      0x2c\n        /* \"contracts/modules/SponsorMatrix.sol\":756:40143  contract Nanakshahi {... */\n      0x20\n      mstore\n      keccak256(0x00, 0x40)\n      shl(0xa0, 0x01)\n      0x01\n      swap1\n      sub\n      dup2\n      sload\n      and\n        /* \"contracts/modules/SponsorMatrix.sol\":5565:5599  mapping(uint => User) public users */\n      0x02\n      dup3\n      add\n        /* \"contracts/modules/SponsorMatrix.sol\":756:40143  contract Nanakshahi {... */\n      sload\n        /* \"contracts/modules/SponsorMatrix.sol\":5565:5599  mapping(uint => User) public users */\n      swap2\n      0x03\n      dup2\n      add\n        /* \"contracts/modules/SponsorMatrix.sol\":756:40143  contract Nanakshahi {... */\n      sload\n      0x04\n        /* \"contracts/modules/SponsorMatrix.sol\":5565:5599  mapping(uint => User) public users */\n      dup3\n      add\n        /* \"contracts/modules/SponsorMatrix.sol\":756:40143  contract Nanakshahi {... */\n      sload\n        /* \"contracts/modules/SponsorMatrix.sol\":5565:5599  mapping(uint => User) public users */\n      0x05\n      dup4\n      add\n        /* \"contracts/modules/SponsorMatrix.sol\":756:40143  contract Nanakshahi {... */\n      sload\n        /* \"contracts/modules/SponsorMatrix.sol\":5565:5599  mapping(uint => User) public users */\n      0x06\n      dup5\n      add\n        /* \"contracts/modules/SponsorMatrix.sol\":756:40143  contract Nanakshahi {... */\n      sload\n        /* \"contracts/modules/SponsorMatrix.sol\":5565:5599  mapping(uint => User) public users */\n      0x07\n      dup6\n      add\n        /* \"contracts/modules/SponsorMatrix.sol\":756:40143  contract Nanakshahi {... */\n      sload\n        /* \"contracts/modules/SponsorMatrix.sol\":5565:5599  mapping(uint => User) public users */\n      0x08\n      dup7\n      add\n        /* \"contracts/modules/SponsorMatrix.sol\":756:40143  contract Nanakshahi {... */\n      sload\n        /* \"contracts/modules/SponsorMatrix.sol\":5565:5599  mapping(uint => User) public users */\n      0x09\n      dup8\n      add\n        /* \"contracts/modules/SponsorMatrix.sol\":756:40143  contract Nanakshahi {... */\n      sload\n        /* \"contracts/modules/SponsorMatrix.sol\":5565:5599  mapping(uint => User) public users */\n      swap2\n      0x0a\n      dup9\n      add\n        /* \"contracts/modules/SponsorMatrix.sol\":756:40143  contract Nanakshahi {... */\n      sload\n        /* \"contracts/modules/SponsorMatrix.sol\":5565:5599  mapping(uint => User) public users */\n      swap4\n      0x0b\n      dup10\n      add\n        /* \"contracts/modules/SponsorMatrix.sol\":756:40143  contract Nanakshahi {... */\n      sload\n        /* \"contracts/modules/SponsorMatrix.sol\":5565:5599  mapping(uint => User) public users */\n      swap6\n      0x0c\n      dup11\n      add\n        /* \"contracts/modules/SponsorMatrix.sol\":756:40143  contract Nanakshahi {... */\n      sload\n        /* \"contracts/modules/SponsorMatrix.sol\":5565:5599  mapping(uint => User) public users */\n      swap8\n      0x0d\n      dup12\n      add\n        /* \"contracts/modules/SponsorMatrix.sol\":756:40143  contract Nanakshahi {... */\n      sload\n        /* \"contracts/modules/SponsorMatrix.sol\":5565:5599  mapping(uint => User) public users */\n      swap10\n      0x0e\n      dup13\n      add\n        /* \"contracts/modules/SponsorMatrix.sol\":756:40143  contract Nanakshahi {... */\n      sload\n        /* \"contracts/modules/SponsorMatrix.sol\":5565:5599  mapping(uint => User) public users */\n      swap12\n      0x0f\n      add\n        /* \"contracts/modules/SponsorMatrix.sol\":756:40143  contract Nanakshahi {... */\n      sload\n      swap13\n      mload(0x40)\n      swap15\n      dup16\n      swap2\n      dup3\n      mstore\n      0x20\n      dup3\n      add\n      mstore\n      0x40\n      add\n      mstore\n      0x60\n      dup14\n      add\n      mstore\n      0x80\n      dup13\n      add\n      mstore\n      0xa0\n      dup12\n      add\n      mstore\n      0xc0\n      dup11\n      add\n      mstore\n      0xe0\n      dup10\n      add\n      mstore\n      0x0100\n      dup9\n      add\n      mstore\n      0x0120\n      dup8\n      add\n      mstore\n      0x0140\n      dup7\n      add\n      mstore\n      0x0160\n      dup6\n      add\n      mstore\n      0x0180\n      dup5\n      add\n      mstore\n      0x01a0\n      dup4\n      add\n      mstore\n      0x01c0\n      dup3\n      add\n      mstore\n      0x01e0\n      swap1\n      return\n    tag_70:\n      jumpi(tag_152, callvalue)\n      jumpi(tag_152, slt(add(not(0x03), calldatasize), 0x00))\n      0x20\n      mload(0x40)\n        /* \"contracts/modules/SponsorMatrix.sol\":6074:6078  1e18 */\n      0x0de0b6b3a7640000\n        /* \"contracts/modules/SponsorMatrix.sol\":756:40143  contract Nanakshahi {... */\n      dup2\n      mstore\n      return\n    tag_68:\n      jumpi(tag_152, callvalue)\n      jumpi(tag_152, slt(add(not(0x03), calldatasize), 0x00))\n      0x20\n      mload(0x40)\n        /* \"contracts/modules/SponsorMatrix.sol\":1143:1149  1 days */\n      0x015180\n        /* \"contracts/modules/SponsorMatrix.sol\":756:40143  contract Nanakshahi {... */\n      dup2\n      mstore\n      return\n    tag_66:\n      jumpi(tag_152, callvalue)\n      jumpi(tag_152, slt(add(not(0x03), calldatasize), 0x00))\n      sload(0x00)\n      mload(0x40)\n      sub(shl(0xa0, 0x01), 0x01)\n      swap1\n      swap2\n      and\n      dup2\n      mstore\n      0x20\n      swap1\n      return\n    tag_64:\n      jumpi(tag_152, callvalue)\n      jumpi(tag_152, slt(add(not(0x03), calldatasize), 0x00))\n      0x20\n        /* \"contracts/modules/SponsorMatrix.sol\":6240:6263  uint public lotteryPool */\n      0x34\n        /* \"contracts/modules/SponsorMatrix.sol\":756:40143  contract Nanakshahi {... */\n      sload\n      mload(0x40)\n      swap1\n      dup2\n      mstore\n      return\n    tag_62:\n      jumpi(tag_152, callvalue)\n      jumpi(tag_152, slt(add(not(0x03), calldatasize), 0x20))\n      0x40\n      tag_546\n      calldataload(0x04)\n      tag_20\n      jump\t// in\n    tag_546:\n      dup3\n      mload\n      swap2\n      dup3\n      mstore\n      0x20\n      dup3\n      add\n      mstore\n      return\n    tag_60:\n      jumpi(tag_152, callvalue)\n      jumpi(tag_152, slt(add(not(0x03), calldatasize), 0x20))\n      calldataload(0x04)\n      0x07\n        /* \"contracts/modules/SponsorMatrix.sol\":2082:2139  uint[7] public minLevelForPool = [3, 5, 7, 9, 11, 13, 15] */\n      dup2\n      lt\n      iszero\n      tag_152\n      jumpi\n        /* \"contracts/modules/SponsorMatrix.sol\":756:40143  contract Nanakshahi {... */\n      0x20\n      swap1\n        /* \"contracts/modules/SponsorMatrix.sol\":2082:2139  uint[7] public minLevelForPool = [3, 5, 7, 9, 11, 13, 15] */\n      0x0a\n        /* \"contracts/modules/SponsorMatrix.sol\":756:40143  contract Nanakshahi {... */\n      add\n      sload\n      mload(0x40)\n      swap1\n      dup2\n      mstore\n      return\n    tag_58:\n      jumpi(tag_152, callvalue)\n      0xffffffff\n      tag_555\n      calldatasize\n      tag_8\n      jump\t// in\n    tag_555:\n      swap2\n      and\n      swap1\n      dup2\n      0x00\n      mstore\n        /* \"contracts/modules/SponsorMatrix.sol\":9864:9869  users */\n      0x2c\n        /* \"contracts/modules/SponsorMatrix.sol\":756:40143  contract Nanakshahi {... */\n      0x20\n      mstore\n      keccak256(0x00, 0x40)\n        /* \"contracts/modules/SponsorMatrix.sol\":9889:9944  require(user.account == msg.sender, \"Not your account\") */\n      tag_556\n        /* \"contracts/modules/SponsorMatrix.sol\":756:40143  contract Nanakshahi {... */\n      0x01\n      dup1\n      0xa0\n      shl\n      sub\n      dup3\n      sload\n      and\n        /* \"contracts/modules/SponsorMatrix.sol\":9913:9923  msg.sender */\n      caller\n        /* \"contracts/modules/SponsorMatrix.sol\":9897:9923  user.account == msg.sender */\n      eq\n        /* \"contracts/modules/SponsorMatrix.sol\":9889:9944  require(user.account == msg.sender, \"Not your account\") */\n      tag_11\n      jump\t// in\n    tag_556:\n        /* \"contracts/modules/SponsorMatrix.sol\":9955:9997  require(user.poollevel < 7, \"At max pool\") */\n      tag_557\n        /* \"contracts/modules/SponsorMatrix.sol\":9980:9981  7 */\n      0x07\n        /* \"contracts/modules/SponsorMatrix.sol\":9963:9977  user.poollevel */\n      0x0b\n      dup4\n      add\n        /* \"contracts/modules/SponsorMatrix.sol\":756:40143  contract Nanakshahi {... */\n      sload\n        /* \"contracts/modules/SponsorMatrix.sol\":9963:9981  user.poollevel < 7 */\n      lt\n        /* \"contracts/modules/SponsorMatrix.sol\":9955:9997  require(user.poollevel < 7, \"At max pool\") */\n      tag_12\n      jump\t// in\n    tag_557:\n        /* \"contracts/modules/SponsorMatrix.sol\":10142:10163  poolPackages[_poolId] */\n      tag_558\n      dup3\n      tag_2\n      jump\t// in\n    tag_558:\n        /* \"contracts/modules/SponsorMatrix.sol\":756:40143  contract Nanakshahi {... */\n      swap1\n      sload\n      swap1\n      0x03\n      shl\n      shr\n      dup3\n      0x00\n      mstore\n        /* \"contracts/modules/SponsorMatrix.sol\":10208:10221  userPooltopup */\n      0x21\n        /* \"contracts/modules/SponsorMatrix.sol\":756:40143  contract Nanakshahi {... */\n      0x20\n      mstore\n      keccak256(0x00, 0x40)\n      dup5\n      0x00\n      mstore\n      0x20\n      mstore\n        /* \"contracts/modules/SponsorMatrix.sol\":10258:10272  top.reTopupAmt */\n      0x01\n        /* \"contracts/modules/SponsorMatrix.sol\":756:40143  contract Nanakshahi {... */\n      keccak256(0x00, 0x40)\n        /* \"contracts/modules/SponsorMatrix.sol\":10258:10272  top.reTopupAmt */\n      add\n        /* \"contracts/modules/SponsorMatrix.sol\":756:40143  contract Nanakshahi {... */\n      swap2\n      dup3\n      sload\n        /* \"contracts/modules/SponsorMatrix.sol\":10258:10288  top.reTopupAmt >= packagePrice */\n      swap1\n      dup3\n      dup3\n      lt\n        /* \"contracts/modules/SponsorMatrix.sol\":756:40143  contract Nanakshahi {... */\n      tag_559\n      jumpi\n        /* \"contracts/modules/SponsorMatrix.sol\":10588:10780  user.deposits.push(Deposit({... */\n      tag_561\n        /* \"contracts/modules/SponsorMatrix.sol\":10359:10389  top.reTopupAmt -= packagePrice */\n      swap4\n      tag_562\n      dup5\n        /* \"contracts/modules/SponsorMatrix.sol\":10258:10272  top.reTopupAmt */\n      0x01\n        /* \"contracts/modules/SponsorMatrix.sol\":10359:10389  top.reTopupAmt -= packagePrice */\n      swap5\n      tag_13\n      jump\t// in\n    tag_562:\n        /* \"contracts/modules/SponsorMatrix.sol\":756:40143  contract Nanakshahi {... */\n      swap1\n      sstore\n        /* \"contracts/modules/SponsorMatrix.sol\":10429:10445  user.poolDeposit */\n      0x0c\n      dup2\n      add\n        /* \"contracts/modules/SponsorMatrix.sol\":10429:10461  user.poolDeposit += packagePrice */\n      tag_495\n        /* \"contracts/modules/SponsorMatrix.sol\":756:40143  contract Nanakshahi {... */\n      dup5\n      dup3\n      sload\n        /* \"contracts/modules/SponsorMatrix.sol\":10429:10461  user.poolDeposit += packagePrice */\n      tag_14\n      jump\t// in\n        /* \"contracts/modules/SponsorMatrix.sol\":10588:10780  user.deposits.push(Deposit({... */\n    tag_561:\n        /* \"contracts/modules/SponsorMatrix.sol\":756:40143  contract Nanakshahi {... */\n      mload(0x40)\n      swap1\n      dup2\n      mstore\n      0x40\n      0x20\n      dup3\n      add\n      mstore\n      0x16\n      0x40\n      dup3\n      add\n      mstore\n      shl(0x50, 0x506f6f6c205265546f70757020284561726e696e6729)\n        /* \"contracts/modules/SponsorMatrix.sol\":10607:10779  Deposit({... */\n      0x60\n        /* \"contracts/modules/SponsorMatrix.sol\":756:40143  contract Nanakshahi {... */\n      dup3\n      add\n      mstore\n      mload(0x00)\n      codecopy(0x00, data_92fb4c3df386bc0d49f8847c66cda554c07c2df42e065e03d639278ecf8d94a7, 0x20)\n      mload(0x00)\n      swap1\n      0x00\n      mstore\n      0x80\n        /* \"contracts/modules/SponsorMatrix.sol\":9913:9923  msg.sender */\n      caller\n        /* \"contracts/modules/SponsorMatrix.sol\":10798:10861  Upgrade(msg.sender, _userId, _poolId, \"Pool ReTopup (Earning)\") */\n      swap3\n      log3\n        /* \"contracts/modules/SponsorMatrix.sol\":756:40143  contract Nanakshahi {... */\n      stop\n    tag_559:\n      mload(0x40)\n      shl(0xe5, 0x461bcd)\n      dup2\n      mstore\n      0x20\n      0x04\n      dup3\n      add\n      mstore\n      0x1a\n      0x24\n      dup3\n      add\n      mstore\n      0x4e6f7420656e6f756768207265546f7075702062616c616e6365000000000000\n      0x44\n      dup3\n      add\n      mstore\n      0x64\n      swap1\n      revert\n    tag_56:\n      jumpi(tag_152, callvalue)\n      jumpi(tag_152, slt(add(not(0x03), calldatasize), 0x20))\n      mstore(0x00, calldataload(0x04))\n        /* \"contracts/modules/SponsorMatrix.sol\":6164:6209  mapping(uint => uint256) public communityDebt */\n      0x33\n        /* \"contracts/modules/SponsorMatrix.sol\":756:40143  contract Nanakshahi {... */\n      0x20\n      mstore\n      0x20\n      sload(keccak256(0x00, 0x40))\n      mload(0x40)\n      swap1\n      dup2\n      mstore\n      return\n    tag_54:\n      jumpi(tag_152, callvalue)\n      tag_572\n      calldatasize\n      tag_7\n      jump\t// in\n    tag_572:\n      swap1\n      0x00\n      mstore\n        /* \"contracts/modules/SponsorMatrix.sol\":4722:4762  mapping(uint => uint[]) public poolUsers */\n      0x25\n        /* \"contracts/modules/SponsorMatrix.sol\":756:40143  contract Nanakshahi {... */\n      0x20\n      mstore\n      keccak256(0x00, 0x40)\n      dup1\n      sload\n        /* \"contracts/modules/SponsorMatrix.sol\":4722:4762  mapping(uint => uint[]) public poolUsers */\n      dup3\n      lt\n      iszero\n      tag_152\n      jumpi\n        /* \"contracts/modules/SponsorMatrix.sol\":756:40143  contract Nanakshahi {... */\n      0x20\n        /* \"contracts/modules/SponsorMatrix.sol\":4722:4762  mapping(uint => uint[]) public poolUsers */\n      swap2\n      tag_268\n      swap2\n      tag_6\n      jump\t// in\n        /* \"contracts/modules/SponsorMatrix.sol\":756:40143  contract Nanakshahi {... */\n    tag_52:\n      jumpi(tag_152, callvalue)\n      tag_578\n      calldatasize\n      tag_1\n      jump\t// in\n    tag_578:\n      swap2\n      0x00\n      mstore\n        /* \"contracts/modules/SponsorMatrix.sol\":4979:5047  mapping(uint =>  mapping(uint => uint[])) public userBoosterChildren */\n      0x28\n        /* \"contracts/modules/SponsorMatrix.sol\":756:40143  contract Nanakshahi {... */\n      0x20\n      mstore\n      keccak256(0x00, 0x40)\n      swap1\n      0x00\n      mstore\n      0x20\n      mstore\n      keccak256(0x00, 0x40)\n      dup1\n      sload\n        /* \"contracts/modules/SponsorMatrix.sol\":4979:5047  mapping(uint =>  mapping(uint => uint[])) public userBoosterChildren */\n      dup3\n      lt\n      iszero\n      tag_152\n      jumpi\n        /* \"contracts/modules/SponsorMatrix.sol\":756:40143  contract Nanakshahi {... */\n      0x20\n        /* \"contracts/modules/SponsorMatrix.sol\":4979:5047  mapping(uint =>  mapping(uint => uint[])) public userBoosterChildren */\n      swap2\n      tag_268\n      swap2\n      tag_6\n      jump\t// in\n        /* \"contracts/modules/SponsorMatrix.sol\":756:40143  contract Nanakshahi {... */\n    tag_50:\n      jumpi(tag_152, callvalue)\n      jumpi(tag_152, slt(add(not(0x03), calldatasize), 0x00))\n      0x20\n      mload(0x40)\n        /* \"contracts/modules/SponsorMatrix.sol\":1095:1100  10000 */\n      0x2710\n        /* \"contracts/modules/SponsorMatrix.sol\":756:40143  contract Nanakshahi {... */\n      dup2\n      mstore\n      return\n    tag_48:\n      jumpi(tag_152, callvalue)\n      jumpi(tag_152, slt(add(not(0x03), calldatasize), 0x00))\n      0x20\n      swap1\n        /* \"contracts/modules/SponsorMatrix.sol\":6309:6335  uint public lastLotteryRun */\n      0x36\n        /* \"contracts/modules/SponsorMatrix.sol\":756:40143  contract Nanakshahi {... */\n      sload\n      dup2\n      mstore\n      return\n    tag_1:\n      0x60\n      swap1\n      not(0x03)\n      add\n      slt\n      tag_152\n      jumpi\n      calldataload(0x04)\n      swap1\n      calldataload(0x24)\n      swap1\n      calldataload(0x44)\n      swap1\n      jump\t// out\n    tag_2:\n        /* \"contracts/modules/SponsorMatrix.sol\":10142:10154  poolPackages */\n      0x08\n        /* \"contracts/modules/SponsorMatrix.sol\":756:40143  contract Nanakshahi {... */\n      sload\n      dup2\n      lt\n      iszero\n      tag_292\n      jumpi\n        /* \"contracts/modules/SponsorMatrix.sol\":10142:10154  poolPackages */\n      0x08\n      0x00\n        /* \"contracts/modules/SponsorMatrix.sol\":756:40143  contract Nanakshahi {... */\n      mstore\n      keccak256(0x00, 0x20)\n      add\n      swap1\n      0x00\n      swap1\n      jump\t// out\n    tag_3:\n        /* \"contracts/modules/SponsorMatrix.sol\":25332:25340  packages */\n      0x07\n        /* \"contracts/modules/SponsorMatrix.sol\":756:40143  contract Nanakshahi {... */\n      sload\n      dup2\n      lt\n      iszero\n      tag_292\n      jumpi\n        /* \"contracts/modules/SponsorMatrix.sol\":25332:25340  packages */\n      0x07\n      0x00\n        /* \"contracts/modules/SponsorMatrix.sol\":756:40143  contract Nanakshahi {... */\n      mstore\n      keccak256(0x00, 0x20)\n      add\n      swap1\n      0x00\n      swap1\n      jump\t// out\n    tag_4:\n        /* \"contracts/modules/SponsorMatrix.sol\":1970:2075  uint[] public GlbBoosterPackages = [ 100e18, 200e18, 400e18, 800e18, 1600e18, 3200e18, 6400e18, 12800e18] */\n      0x09\n        /* \"contracts/modules/SponsorMatrix.sol\":756:40143  contract Nanakshahi {... */\n      sload\n      dup2\n      lt\n      iszero\n      tag_292\n      jumpi\n        /* \"contracts/modules/SponsorMatrix.sol\":1970:2075  uint[] public GlbBoosterPackages = [ 100e18, 200e18, 400e18, 800e18, 1600e18, 3200e18, 6400e18, 12800e18] */\n      0x09\n      0x00\n        /* \"contracts/modules/SponsorMatrix.sol\":756:40143  contract Nanakshahi {... */\n      mstore\n      keccak256(0x00, 0x20)\n      add\n      swap1\n      0x00\n      swap1\n      jump\t// out\n    tag_5:\n        /* \"contracts/modules/SponsorMatrix.sol\":23048:23056  packages */\n      0x07\n        /* \"contracts/modules/SponsorMatrix.sol\":756:40143  contract Nanakshahi {... */\n      sload\n      iszero\n      tag_292\n      jumpi\n        /* \"contracts/modules/SponsorMatrix.sol\":23048:23056  packages */\n      0x07\n        /* \"contracts/modules/SponsorMatrix.sol\":756:40143  contract Nanakshahi {... */\n      0x00\n      swap1\n      dup2\n      mstore\n      0xa66cc928b5edb82af9bd49922954155ab7b0942694bea4ce44661d9a8736c688\n      swap2\n      jump\t// out\n    tag_6:\n      dup1\n      sload\n      dup3\n      lt\n      iszero\n      tag_292\n      jumpi\n      0x00\n      mstore\n      keccak256(0x00, 0x20)\n      add\n      swap1\n      0x00\n      swap1\n      jump\t// out\n    tag_7:\n      0x40\n      swap1\n      not(0x03)\n      add\n      slt\n      tag_152\n      jumpi\n      calldataload(0x04)\n      swap1\n      calldataload(0x24)\n      swap1\n      jump\t// out\n    tag_8:\n      0x40\n      swap1\n      not(0x03)\n      add\n      slt\n      tag_152\n      jumpi\n      calldataload(0x04)\n      0xffffffff\n      dup2\n      and\n      dup2\n      sub\n      tag_152\n      jumpi\n      swap1\n      calldataload(0x24)\n      swap1\n      jump\t// out\n    tag_9:\n      dup1\n      sload\n      dup3\n      lt\n      iszero\n      tag_292\n      jumpi\n      0x00\n      mstore\n      0x05\n      keccak256(0x00, 0x20)\n      swap2\n      mul\n      add\n      swap1\n      0x00\n      swap1\n      jump\t// out\n    tag_11:\n      iszero\n      tag_610\n      jumpi\n      jump\t// out\n    tag_610:\n      mload(0x40)\n      shl(0xe5, 0x461bcd)\n      dup2\n      mstore\n      0x20\n      0x04\n      dup3\n      add\n      mstore\n      0x10\n      0x24\n      dup3\n      add\n      mstore\n      shl(0x82, 0x139bdd081e5bdd5c881858d8dbdd5b9d)\n      0x44\n      dup3\n      add\n      mstore\n      0x64\n      swap1\n      revert\n    tag_12:\n      iszero\n      tag_612\n      jumpi\n      jump\t// out\n    tag_612:\n      mload(0x40)\n      shl(0xe5, 0x461bcd)\n      dup2\n      mstore\n      0x20\n      0x04\n      dup3\n      add\n      mstore\n      0x0b\n      0x24\n      dup3\n      add\n      mstore\n      shl(0xaa, 0x105d081b585e081c1bdbdb)\n      0x44\n      dup3\n      add\n      mstore\n      0x64\n      swap1\n      revert\n    tag_13:\n      swap2\n      swap1\n      dup3\n      sub\n      swap2\n      dup3\n      gt\n      tag_199\n      jumpi\n      jump\t// out\n    tag_14:\n      swap2\n      swap1\n      dup3\n      add\n      dup1\n      swap3\n      gt\n      tag_199\n      jumpi\n      jump\t// out\n    tag_15:\n      0x80\n      dup2\n      add\n      swap1\n      dup2\n      lt\n      0xffffffffffffffff\n      dup3\n      gt\n      or\n      tag_175\n      jumpi\n      0x40\n      mstore\n      jump\t// out\n    tag_16:\n      0xa0\n      dup2\n      add\n      swap1\n      dup2\n      lt\n      0xffffffffffffffff\n      dup3\n      gt\n      or\n      tag_175\n      jumpi\n      0x40\n      mstore\n      jump\t// out\n    tag_17:\n      swap1\n      0x1f\n      dup1\n      not\n      swap2\n      add\n      and\n      dup2\n      add\n      swap1\n      dup2\n      lt\n      0xffffffffffffffff\n      dup3\n      gt\n      or\n      tag_175\n      jumpi\n      0x40\n      mstore\n      jump\t// out\n    tag_18:\n      dup1\n      sload\n      shl(0x40, 0x01)\n      dup2\n      lt\n      iszero\n      tag_175\n      jumpi\n      0x01\n      dup2\n      add\n      dup1\n      dup4\n      sstore\n      dup2\n      lt\n      iszero\n      tag_292\n      jumpi\n      0x03\n      0x60\n      swap2\n      0xff\n      swap4\n      0x00\n      mstore\n      keccak256(0x00, 0x20)\n      swap1\n      0x02\n      shl\n      add\n      dup5\n      mload\n      dup2\n      sstore\n      0x20\n      dup6\n      add\n      mload\n      0x01\n      dup3\n      add\n      sstore\n      0x40\n      dup6\n      add\n      mload\n      0x02\n      dup3\n      add\n      sstore\n      add\n      swap3\n      add\n      mload\n      and\n      not(0xff)\n      dup3\n      sload\n      and\n      or\n      swap1\n      sstore\n      jump\t// out\n    tag_19:\n      dup2\n      iszero\n      tag_628\n      jumpi\n      div\n      swap1\n      jump\t// out\n    tag_628:\n      mstore(0x00, shl(0xe0, 0x4e487b71))\n      mstore(0x04, 0x12)\n      revert(0x00, 0x24)\n        /* \"contracts/modules/SponsorMatrix.sol\":29694:30130  function pendingCommunity(uint _userId) external view returns (uint pendingGross, uint pendingAfterCap) {... */\n    tag_20:\n      swap1\n        /* \"contracts/modules/SponsorMatrix.sol\":756:40143  contract Nanakshahi {... */\n      dup2\n      0x00\n      mstore\n        /* \"contracts/modules/SponsorMatrix.sol\":29813:29818  users */\n      0x2c\n        /* \"contracts/modules/SponsorMatrix.sol\":756:40143  contract Nanakshahi {... */\n      0x20\n      mstore\n        /* \"contracts/modules/SponsorMatrix.sol\":29813:29830  users[_userId].id */\n      0x03\n        /* \"contracts/modules/SponsorMatrix.sol\":756:40143  contract Nanakshahi {... */\n      keccak256(0x00, 0x40)\n        /* \"contracts/modules/SponsorMatrix.sol\":29813:29830  users[_userId].id */\n      add\n        /* \"contracts/modules/SponsorMatrix.sol\":756:40143  contract Nanakshahi {... */\n      sload\n        /* \"contracts/modules/SponsorMatrix.sol\":29813:29835  users[_userId].id == 0 */\n      iszero\n        /* \"contracts/modules/SponsorMatrix.sol\":29809:29850  if (users[_userId].id == 0) return (0, 0) */\n      tag_630\n      jumpi\n        /* \"contracts/modules/SponsorMatrix.sol\":29875:29894  communityAccPerUser */\n      0x32\n        /* \"contracts/modules/SponsorMatrix.sol\":756:40143  contract Nanakshahi {... */\n      sload\n      dup3\n      0x00\n      mstore\n        /* \"contracts/modules/SponsorMatrix.sol\":29920:29933  communityDebt */\n      0x33\n        /* \"contracts/modules/SponsorMatrix.sol\":756:40143  contract Nanakshahi {... */\n      0x20\n      mstore\n      sload(keccak256(0x00, 0x40))\n        /* \"contracts/modules/SponsorMatrix.sol\":29957:29968  acc <= debt */\n      swap1\n      dup2\n      dup2\n      gt\n      iszero\n        /* \"contracts/modules/SponsorMatrix.sol\":29953:29983  if (acc <= debt) return (0, 0) */\n      tag_632\n      jumpi\n        /* \"contracts/modules/SponsorMatrix.sol\":30008:30018  acc - debt */\n      tag_634\n        /* \"contracts/modules/SponsorMatrix.sol\":30057:30092  _applyGlobalCapping(_userId, gross) */\n      tag_635\n        /* \"contracts/modules/SponsorMatrix.sol\":30008:30018  acc - debt */\n      swap3\n        /* \"contracts/modules/SponsorMatrix.sol\":6074:6078  1e18 */\n      0x0de0b6b3a7640000\n        /* \"contracts/modules/SponsorMatrix.sol\":30008:30018  acc - debt */\n      swap3\n      tag_13\n      jump\t// in\n    tag_634:\n        /* \"contracts/modules/SponsorMatrix.sol\":756:40143  contract Nanakshahi {... */\n      div\n        /* \"contracts/modules/SponsorMatrix.sol\":30057:30092  _applyGlobalCapping(_userId, gross) */\n      dup1\n      swap4\n      tag_36\n      jump\t// in\n    tag_635:\n        /* \"contracts/modules/SponsorMatrix.sol\":29694:30130  function pendingCommunity(uint _userId) external view returns (uint pendingGross, uint pendingAfterCap) {... */\n      swap1\n      jump\t// out\n        /* \"contracts/modules/SponsorMatrix.sol\":29953:29983  if (acc <= debt) return (0, 0) */\n    tag_632:\n        /* \"contracts/modules/SponsorMatrix.sol\":29970:29983  return (0, 0) */\n      pop\n      pop\n      swap1\n      pop\n      0x00\n      swap1\n      0x00\n      swap1\n      jump\t// out\n        /* \"contracts/modules/SponsorMatrix.sol\":29809:29850  if (users[_userId].id == 0) return (0, 0) */\n    tag_630:\n      0x00\n      swap2\n      pop\n      dup2\n      swap1\n        /* \"contracts/modules/SponsorMatrix.sol\":29837:29850  return (0, 0) */\n      jump\t// out\n        /* \"contracts/modules/SponsorMatrix.sol\":756:40143  contract Nanakshahi {... */\n    tag_21:\n      iszero\n      tag_636\n      jumpi\n      jump\t// out\n    tag_636:\n      mload(0x40)\n      shl(0xe5, 0x461bcd)\n      dup2\n      mstore\n      0x20\n      0x04\n      dup3\n      add\n      mstore\n      0x0c\n      0x24\n      dup3\n      add\n      mstore\n      shl(0xa2, 0x105d081b585e081b195d995b)\n      0x44\n      dup3\n      add\n      mstore\n      0x64\n      swap1\n      revert\n    tag_22:\n      iszero\n      tag_638\n      jumpi\n      jump\t// out\n    tag_638:\n      mload(0x40)\n      shl(0xe5, 0x461bcd)\n      dup2\n      mstore\n      0x20\n      0x04\n      dup3\n      add\n      mstore\n      0x16\n      0x24\n      dup3\n      add\n      mstore\n      shl(0x52, 0x141bdbdb08185b1c9958591e481c1d5c98da185cd959)\n      0x44\n      dup3\n      add\n      mstore\n      0x64\n      swap1\n      revert\n    tag_23:\n      swap1\n      dup2\n      0x20\n      swap2\n      sub\n      slt\n      tag_152\n      jumpi\n      mload\n      dup1\n      iszero\n      iszero\n      dup2\n      sub\n      tag_152\n      jumpi\n      swap1\n      jump\t// out\n    tag_25:\n      dup2\n      dup2\n      mul\n      swap3\n      swap2\n      dup2\n      iszero\n      swap2\n      dup5\n      div\n      eq\n      or\n      iszero\n      tag_199\n      jumpi\n      jump\t// out\n        /* \"contracts/modules/SponsorMatrix.sol\":9068:9751  function canBuyNextPool(uint userId) public view returns (bool eligible, string memory reason) {... */\n    tag_26:\n        /* \"contracts/modules/SponsorMatrix.sol\":756:40143  contract Nanakshahi {... */\n      0x60\n      swap1\n      0x00\n      mstore\n        /* \"contracts/modules/SponsorMatrix.sol\":9194:9199  users */\n      0x2c\n        /* \"contracts/modules/SponsorMatrix.sol\":756:40143  contract Nanakshahi {... */\n      0x20\n      mstore\n      keccak256(0x00, 0x40)\n        /* \"contracts/modules/SponsorMatrix.sol\":9234:9248  user.poollevel */\n      0x0b\n      dup2\n      add\n        /* \"contracts/modules/SponsorMatrix.sol\":756:40143  contract Nanakshahi {... */\n      sload\n      swap2\n        /* \"contracts/modules/SponsorMatrix.sol\":9275:9287  poolPackages */\n      0x08\n        /* \"contracts/modules/SponsorMatrix.sol\":756:40143  contract Nanakshahi {... */\n      sload\n        /* \"contracts/modules/SponsorMatrix.sol\":9263:9294  nextPool >= poolPackages.length */\n      dup4\n      lt\n      iszero\n        /* \"contracts/modules/SponsorMatrix.sol\":9259:9376  if (nextPool >= poolPackages.length) {... */\n      tag_646\n      jumpi\n        /* \"contracts/modules/SponsorMatrix.sol\":756:40143  contract Nanakshahi {... */\n      pop\n      0x07\n      dup3\n      lt\n      iszero\n      tag_292\n      jumpi\n        /* \"contracts/modules/SponsorMatrix.sol\":9451:9461  user.level */\n      0x06\n        /* \"contracts/modules/SponsorMatrix.sol\":756:40143  contract Nanakshahi {... */\n      dup3\n        /* \"contracts/modules/SponsorMatrix.sol\":9409:9424  minLevelForPool */\n      0x0a\n        /* \"contracts/modules/SponsorMatrix.sol\":756:40143  contract Nanakshahi {... */\n      add\n      sload\n        /* \"contracts/modules/SponsorMatrix.sol\":9451:9461  user.level */\n      swap2\n      add\n        /* \"contracts/modules/SponsorMatrix.sol\":756:40143  contract Nanakshahi {... */\n      sload\n        /* \"contracts/modules/SponsorMatrix.sol\":9451:9477  user.level < requiredLevel */\n      lt\n        /* \"contracts/modules/SponsorMatrix.sol\":9447:9562  if (user.level < requiredLevel) {... */\n      tag_650\n      jumpi\n        /* \"contracts/modules/SponsorMatrix.sol\":9578:9590  nextPool > 0 */\n      iszero\n      iszero\n        /* \"contracts/modules/SponsorMatrix.sol\":9578:9619  nextPool > 0 && user.poollevel < nextPool */\n      dup1\n      tag_652\n      jumpi\n        /* \"contracts/modules/SponsorMatrix.sol\":9068:9751  function canBuyNextPool(uint userId) public view returns (bool eligible, string memory reason) {... */\n    tag_653:\n        /* \"contracts/modules/SponsorMatrix.sol\":9574:9689  if (nextPool > 0 && user.poollevel < nextPool) {... */\n      tag_654\n      jumpi\n        /* \"contracts/modules/SponsorMatrix.sol\":9709:9713  true */\n      0x01\n        /* \"contracts/modules/SponsorMatrix.sol\":756:40143  contract Nanakshahi {... */\n      swap1\n      mload(0x40)\n      tag_656\n      0x40\n      dup3\n      tag_17\n      jump\t// in\n    tag_656:\n      0x19\n      dup2\n      mstore\n      0x456c696769626c6520746f20627579206e65787420706f6f6c00000000000000\n      0x20\n      dup3\n      add\n      mstore\n        /* \"contracts/modules/SponsorMatrix.sol\":9068:9751  function canBuyNextPool(uint userId) public view returns (bool eligible, string memory reason) {... */\n      swap1\n      jump\t// out\n        /* \"contracts/modules/SponsorMatrix.sol\":9574:9689  if (nextPool > 0 && user.poollevel < nextPool) {... */\n    tag_654:\n        /* \"contracts/modules/SponsorMatrix.sol\":756:40143  contract Nanakshahi {... */\n      0x00\n      swap1\n      mload(0x40)\n      tag_657\n      0x40\n      dup3\n      tag_17\n      jump\t// in\n    tag_657:\n      0x17\n      dup2\n      mstore\n      0x4275792070726576696f757320706f6f6c206669727374000000000000000000\n      0x20\n      dup3\n      add\n      mstore\n        /* \"contracts/modules/SponsorMatrix.sol\":9636:9677  return (false, \"Buy previous pool first\") */\n      swap1\n      jump\t// out\n        /* \"contracts/modules/SponsorMatrix.sol\":9578:9619  nextPool > 0 && user.poollevel < nextPool */\n    tag_652:\n      pop\n        /* \"contracts/modules/SponsorMatrix.sol\":756:40143  contract Nanakshahi {... */\n      0x00\n        /* \"contracts/modules/SponsorMatrix.sol\":9578:9619  nextPool > 0 && user.poollevel < nextPool */\n      jump(tag_653)\n        /* \"contracts/modules/SponsorMatrix.sol\":9447:9562  if (user.level < requiredLevel) {... */\n    tag_650:\n        /* \"contracts/modules/SponsorMatrix.sol\":9494:9550  return (false, \"You need to reach a higher level first\") */\n      pop\n        /* \"contracts/modules/SponsorMatrix.sol\":756:40143  contract Nanakshahi {... */\n      0x00\n      swap1\n      mload(0x40)\n      tag_658\n      0x60\n      dup3\n      tag_17\n      jump\t// in\n    tag_658:\n      0x26\n      dup2\n      mstore\n      0x596f75206e65656420746f207265616368206120686967686572206c6576656c\n      0x20\n      dup3\n      add\n      mstore\n      shl(0xd2, 0x08199a5c9cdd)\n      0x40\n      dup3\n      add\n      mstore\n        /* \"contracts/modules/SponsorMatrix.sol\":9494:9550  return (false, \"You need to reach a higher level first\") */\n      swap1\n      jump\t// out\n        /* \"contracts/modules/SponsorMatrix.sol\":9259:9376  if (nextPool >= poolPackages.length) {... */\n    tag_646:\n        /* \"contracts/modules/SponsorMatrix.sol\":9311:9364  return (false, \"You are already at the highest pool\") */\n      swap3\n      swap2\n      pop\n      pop\n        /* \"contracts/modules/SponsorMatrix.sol\":756:40143  contract Nanakshahi {... */\n      0x00\n      swap2\n      tag_659\n      mload(0x40)\n      swap2\n      dup3\n      tag_17\n      jump\t// in\n    tag_659:\n      0x23\n      dup2\n      mstore\n      0x596f752061726520616c72656164792061742074686520686967686573742070\n      0x20\n      dup3\n      add\n      mstore\n      shl(0xea, 0x1bdbdb)\n      0x40\n      dup3\n      add\n      mstore\n        /* \"contracts/modules/SponsorMatrix.sol\":9311:9364  return (false, \"You are already at the highest pool\") */\n      swap1\n      jump\t// out\n        /* \"contracts/modules/SponsorMatrix.sol\":756:40143  contract Nanakshahi {... */\n    tag_28:\n      dup1\n      sload\n      shl(0x40, 0x01)\n      dup2\n      lt\n      iszero\n      tag_175\n      jumpi\n      tag_662\n      swap2\n      0x01\n      dup3\n      add\n      dup2\n      sstore\n      tag_9\n      jump\t// in\n    tag_662:\n      swap2\n      swap1\n      swap2\n      tag_663\n      jumpi\n      dup1\n      mload\n      dup3\n      sstore\n      0x20\n      dup2\n      add\n      mload\n      0x01\n      dup4\n      add\n      sstore\n      0x40\n      dup2\n      add\n      mload\n      0x02\n      dup4\n      add\n      sstore\n      0x60\n      dup2\n      add\n      mload\n      0x03\n      dup4\n      add\n      sstore\n      0x80\n      add\n      mload\n      0x04\n      swap1\n      swap2\n      add\n      sstore\n      jump\t// out\n    tag_665:\n      jump\t// out\n    tag_663:\n      mstore(0x00, shl(0xe0, 0x4e487b71))\n      mstore(0x04, 0x00)\n      revert(0x00, 0x24)\n        /* \"contracts/modules/SponsorMatrix.sol\":27937:29684  function claimCommunity(uint _userId) external {... */\n    tag_30:\n        /* \"contracts/modules/SponsorMatrix.sol\":756:40143  contract Nanakshahi {... */\n      dup1\n      0x00\n      mstore\n        /* \"contracts/modules/SponsorMatrix.sol\":28016:28021  users */\n      0x2c\n        /* \"contracts/modules/SponsorMatrix.sol\":756:40143  contract Nanakshahi {... */\n      0x20\n      mstore\n      keccak256(0x00, 0x40)\n        /* \"contracts/modules/SponsorMatrix.sol\":28053:28057  u.id */\n      swap1\n      0x03\n      dup3\n      add\n        /* \"contracts/modules/SponsorMatrix.sol\":756:40143  contract Nanakshahi {... */\n      sload\n        /* \"contracts/modules/SponsorMatrix.sol\":28053:28062  u.id != 0 */\n      iszero\n        /* \"contracts/modules/SponsorMatrix.sol\":756:40143  contract Nanakshahi {... */\n      tag_666\n      jumpi\n        /* \"contracts/modules/SponsorMatrix.sol\":28096:28148  require(u.account == msg.sender, \"Not your account\") */\n      tag_668\n        /* \"contracts/modules/SponsorMatrix.sol\":756:40143  contract Nanakshahi {... */\n      0x01\n      dup1\n      0xa0\n      shl\n      sub\n      dup4\n      sload\n      and\n        /* \"contracts/modules/SponsorMatrix.sol\":28117:28127  msg.sender */\n      caller\n        /* \"contracts/modules/SponsorMatrix.sol\":28104:28127  u.account == msg.sender */\n      eq\n        /* \"contracts/modules/SponsorMatrix.sol\":28096:28148  require(u.account == msg.sender, \"Not your account\") */\n      tag_11\n      jump\t// in\n    tag_668:\n        /* \"contracts/modules/SponsorMatrix.sol\":28245:28264  communityAccPerUser */\n      0x32\n        /* \"contracts/modules/SponsorMatrix.sol\":756:40143  contract Nanakshahi {... */\n      sload\n      swap2\n      dup2\n      0x00\n      mstore\n        /* \"contracts/modules/SponsorMatrix.sol\":28294:28307  communityDebt */\n      0x33\n        /* \"contracts/modules/SponsorMatrix.sol\":756:40143  contract Nanakshahi {... */\n      0x20\n      mstore\n      sload(keccak256(0x00, 0x40))\n        /* \"contracts/modules/SponsorMatrix.sol\":28337:28356  accumulated == debt */\n      dup1\n      dup5\n      eq\n        /* \"contracts/modules/SponsorMatrix.sol\":28333:28419  if (accumulated == debt) {... */\n      tag_669\n      jumpi\n        /* \"contracts/modules/SponsorMatrix.sol\":28454:28472  accumulated - debt */\n      tag_671\n        /* \"contracts/modules/SponsorMatrix.sol\":6074:6078  1e18 */\n      0x0de0b6b3a7640000\n        /* \"contracts/modules/SponsorMatrix.sol\":28454:28472  accumulated - debt */\n      swap2\n      dup6\n      tag_13\n      jump\t// in\n    tag_671:\n        /* \"contracts/modules/SponsorMatrix.sol\":756:40143  contract Nanakshahi {... */\n      div\n        /* \"contracts/modules/SponsorMatrix.sol\":28508:28520  accrued == 0 */\n      swap2\n      dup3\n      iszero\n        /* \"contracts/modules/SponsorMatrix.sol\":28504:28637  if (accrued == 0) {... */\n      tag_672\n      jumpi\n        /* \"contracts/modules/SponsorMatrix.sol\":28714:28751  _applyGlobalCapping(_userId, accrued) */\n      tag_674\n      dup4\n      dup3\n      tag_36\n      jump\t// in\n    tag_674:\n        /* \"contracts/modules/SponsorMatrix.sol\":756:40143  contract Nanakshahi {... */\n      swap4\n      dup2\n      0x00\n      mstore\n        /* \"contracts/modules/SponsorMatrix.sol\":28294:28307  communityDebt */\n      0x33\n        /* \"contracts/modules/SponsorMatrix.sol\":756:40143  contract Nanakshahi {... */\n      0x20\n      mstore\n      keccak256(0x00, 0x40)\n      sstore\n        /* \"contracts/modules/SponsorMatrix.sol\":28898:28905  pay > 0 */\n      dup4\n      dup1\n        /* \"contracts/modules/SponsorMatrix.sol\":28894:29515  if (pay > 0) {... */\n      tag_675\n      jumpi\n        /* \"contracts/modules/SponsorMatrix.sol\":27937:29684  function claimCommunity(uint _userId) external {... */\n    tag_676:\n        /* \"contracts/modules/SponsorMatrix.sol\":29594:29607  accrued > pay */\n      swap2\n      pop\n      pop\n      dup2\n      gt\n        /* \"contracts/modules/SponsorMatrix.sol\":29590:29673  if (accrued > pay) {... */\n      tag_677\n      jumpi\n        /* \"contracts/modules/SponsorMatrix.sol\":27937:29684  function claimCommunity(uint _userId) external {... */\n      pop\n      pop\n      jump\t// out\n        /* \"contracts/modules/SponsorMatrix.sol\":29590:29673  if (accrued > pay) {... */\n    tag_677:\n        /* \"contracts/modules/SponsorMatrix.sol\":29643:29656  accrued - pay */\n      tag_665\n      swap2\n      tag_680\n      swap2\n      tag_13\n      jump\t// in\n    tag_680:\n      tag_38\n      jump\t// in\n        /* \"contracts/modules/SponsorMatrix.sol\":28894:29515  if (pay > 0) {... */\n    tag_675:\n        /* \"contracts/modules/SponsorMatrix.sol\":29445:29474  usdt.transfer(u.account, pay) */\n      tag_681\n        /* \"contracts/modules/SponsorMatrix.sol\":756:40143  contract Nanakshahi {... */\n      swap3\n        /* \"contracts/modules/SponsorMatrix.sol\":29110:29384  incomeHistory[_userId].push(Income({... */\n      tag_682\n        /* \"contracts/modules/SponsorMatrix.sol\":756:40143  contract Nanakshahi {... */\n      dup4\n      0x20\n      swap5\n      0x00\n      mstore\n        /* \"contracts/modules/SponsorMatrix.sol\":28951:28962  userIncomes */\n      0x2d\n        /* \"contracts/modules/SponsorMatrix.sol\":756:40143  contract Nanakshahi {... */\n      dup6\n      mstore\n        /* \"contracts/modules/SponsorMatrix.sol\":29031:29050  inc.communityIncome */\n      0x07\n        /* \"contracts/modules/SponsorMatrix.sol\":756:40143  contract Nanakshahi {... */\n      keccak256(0x00, 0x40)\n        /* \"contracts/modules/SponsorMatrix.sol\":28990:29012  inc.totalIncome += pay */\n      tag_683\n        /* \"contracts/modules/SponsorMatrix.sol\":756:40143  contract Nanakshahi {... */\n      dup7\n      dup3\n      sload\n        /* \"contracts/modules/SponsorMatrix.sol\":28990:29012  inc.totalIncome += pay */\n      tag_14\n      jump\t// in\n    tag_683:\n        /* \"contracts/modules/SponsorMatrix.sol\":756:40143  contract Nanakshahi {... */\n      dup2\n      sstore\n        /* \"contracts/modules/SponsorMatrix.sol\":29031:29050  inc.communityIncome */\n      add\n        /* \"contracts/modules/SponsorMatrix.sol\":29031:29057  inc.communityIncome += pay */\n      tag_684\n        /* \"contracts/modules/SponsorMatrix.sol\":756:40143  contract Nanakshahi {... */\n      dup6\n      dup3\n      sload\n        /* \"contracts/modules/SponsorMatrix.sol\":29031:29057  inc.communityIncome += pay */\n      tag_14\n      jump\t// in\n    tag_684:\n        /* \"contracts/modules/SponsorMatrix.sol\":756:40143  contract Nanakshahi {... */\n      swap1\n      sstore\n      dup1\n      0x00\n      mstore\n        /* \"contracts/modules/SponsorMatrix.sol\":29110:29123  incomeHistory */\n      0x2e\n        /* \"contracts/modules/SponsorMatrix.sol\":756:40143  contract Nanakshahi {... */\n      dup6\n      mstore\n      keccak256(0x00, 0x40)\n      mload(0x40)\n      swap2\n      tag_685\n      dup4\n      tag_16\n      jump\t// in\n    tag_685:\n      dup3\n      mstore\n        /* \"contracts/modules/SponsorMatrix.sol\":29138:29383  Income({... */\n      dup5\n      dup7\n      dup4\n      add\n        /* \"contracts/modules/SponsorMatrix.sol\":756:40143  contract Nanakshahi {... */\n      mstore\n        /* \"contracts/modules/SponsorMatrix.sol\":29258:29259  1 */\n      0x01\n        /* \"contracts/modules/SponsorMatrix.sol\":756:40143  contract Nanakshahi {... */\n      0x40\n        /* \"contracts/modules/SponsorMatrix.sol\":29138:29383  Income({... */\n      dup4\n      add\n        /* \"contracts/modules/SponsorMatrix.sol\":756:40143  contract Nanakshahi {... */\n      mstore\n        /* \"contracts/modules/SponsorMatrix.sol\":29293:29308  block.timestamp */\n      timestamp\n        /* \"contracts/modules/SponsorMatrix.sol\":29138:29383  Income({... */\n      0x60\n      dup4\n      add\n        /* \"contracts/modules/SponsorMatrix.sol\":756:40143  contract Nanakshahi {... */\n      mstore\n        /* \"contracts/modules/SponsorMatrix.sol\":29343:29344  9 */\n      0x09\n        /* \"contracts/modules/SponsorMatrix.sol\":29138:29383  Income({... */\n      0x80\n      dup4\n      add\n        /* \"contracts/modules/SponsorMatrix.sol\":756:40143  contract Nanakshahi {... */\n      mstore\n        /* \"contracts/modules/SponsorMatrix.sol\":29110:29384  incomeHistory[_userId].push(Income({... */\n      tag_28\n      jump\t// in\n    tag_682:\n      0x00\n        /* \"contracts/modules/SponsorMatrix.sol\":756:40143  contract Nanakshahi {... */\n      dup1\n      sload\n      swap2\n      sload\n      mload(0x40)\n      shl(0xe0, 0xa9059cbb)\n        /* \"contracts/modules/SponsorMatrix.sol\":29445:29474  usdt.transfer(u.account, pay) */\n      dup2\n      mstore\n      sub(shl(0xa0, 0x01), 0x01)\n        /* \"contracts/modules/SponsorMatrix.sol\":756:40143  contract Nanakshahi {... */\n      swap2\n      dup3\n      and\n        /* \"contracts/modules/SponsorMatrix.sol\":29445:29474  usdt.transfer(u.account, pay) */\n      0x04\n      dup3\n      add\n        /* \"contracts/modules/SponsorMatrix.sol\":756:40143  contract Nanakshahi {... */\n      mstore\n      0x24\n      dup2\n      add\n      swap5\n      swap1\n      swap5\n      mstore\n      swap3\n      swap5\n      dup6\n      swap4\n      swap1\n      swap3\n      and\n      swap2\n      dup4\n      swap2\n      swap1\n      dup3\n      swap1\n      0x44\n      dup3\n      add\n      swap1\n      jump\n        /* \"contracts/modules/SponsorMatrix.sol\":29445:29474  usdt.transfer(u.account, pay) */\n    tag_681:\n      sub\n      swap3\n      gas\n      call\n      swap1\n      dup2\n      iszero\n      tag_164\n      jumpi\n      0x00\n      swap2\n      tag_688\n      jumpi\n        /* \"contracts/modules/SponsorMatrix.sol\":28894:29515  if (pay > 0) {... */\n    tag_689:\n        /* \"contracts/modules/SponsorMatrix.sol\":756:40143  contract Nanakshahi {... */\n      pop\n      iszero\n      tag_690\n      jumpi\n        /* \"contracts/modules/SponsorMatrix.sol\":28894:29515  if (pay > 0) {... */\n      0x00\n      dup1\n      dup4\n      jump(tag_676)\n        /* \"contracts/modules/SponsorMatrix.sol\":756:40143  contract Nanakshahi {... */\n    tag_690:\n      mload(0x40)\n      shl(0xe5, 0x461bcd)\n      dup2\n      mstore\n      0x20\n        /* \"contracts/modules/SponsorMatrix.sol\":29445:29474  usdt.transfer(u.account, pay) */\n      0x04\n        /* \"contracts/modules/SponsorMatrix.sol\":756:40143  contract Nanakshahi {... */\n      dup3\n      add\n      mstore\n      0x14\n      0x24\n      dup3\n      add\n      mstore\n      shl(0x62, 0x1554d115081d1c985b9cd9995c8819985a5b1959)\n      0x44\n      dup3\n      add\n      mstore\n      0x64\n      swap1\n      revert\n        /* \"contracts/modules/SponsorMatrix.sol\":29445:29474  usdt.transfer(u.account, pay) */\n    tag_688:\n      tag_692\n      swap2\n      pop\n        /* \"contracts/modules/SponsorMatrix.sol\":756:40143  contract Nanakshahi {... */\n      0x20\n        /* \"contracts/modules/SponsorMatrix.sol\":29445:29474  usdt.transfer(u.account, pay) */\n      returndatasize\n        /* \"contracts/modules/SponsorMatrix.sol\":756:40143  contract Nanakshahi {... */\n      0x20\n        /* \"contracts/modules/SponsorMatrix.sol\":29445:29474  usdt.transfer(u.account, pay) */\n      gt\n      tag_231\n      jumpi\n      tag_233\n      dup2\n      dup4\n      tag_17\n      jump\t// in\n    tag_692:\n      0x00\n      jump(tag_689)\n        /* \"contracts/modules/SponsorMatrix.sol\":28504:28637  if (accrued == 0) {... */\n    tag_672:\n        /* \"contracts/modules/SponsorMatrix.sol\":756:40143  contract Nanakshahi {... */\n      swap2\n      pop\n      pop\n      0x00\n      mstore\n        /* \"contracts/modules/SponsorMatrix.sol\":28294:28307  communityDebt */\n      0x33\n        /* \"contracts/modules/SponsorMatrix.sol\":756:40143  contract Nanakshahi {... */\n      0x20\n      mstore\n      keccak256(0x00, 0x40)\n      sstore\n        /* \"contracts/modules/SponsorMatrix.sol\":28615:28622  return; */\n      jump\t// out\n        /* \"contracts/modules/SponsorMatrix.sol\":28333:28419  if (accumulated == debt) {... */\n    tag_669:\n        /* \"contracts/modules/SponsorMatrix.sol\":28377:28384  return; */\n      pop\n      pop\n      pop\n      pop\n      jump\t// out\n        /* \"contracts/modules/SponsorMatrix.sol\":756:40143  contract Nanakshahi {... */\n    tag_666:\n      mload(0x40)\n      shl(0xe5, 0x461bcd)\n      dup2\n      mstore\n      0x20\n      0x04\n      dup3\n      add\n      mstore\n      0x0e\n      0x24\n      dup3\n      add\n      mstore\n      shl(0x92, 0x155cd95c881b9bdd08199bdd5b99)\n      0x44\n      dup3\n      add\n      mstore\n      0x64\n      swap1\n      revert\n    tag_31:\n      dup1\n      sload\n      shl(0x40, 0x01)\n      dup2\n      lt\n      iszero\n      tag_175\n      jumpi\n      tag_698\n      swap2\n      0x01\n      dup3\n      add\n      dup2\n      sstore\n      tag_6\n      jump\t// in\n    tag_698:\n      dup2\n      swap3\n      swap2\n      sload\n      swap1\n      0x03\n      shl\n      swap2\n      dup3\n      shl\n      swap2\n      not(0x00)\n      swap1\n      shl\n      not\n      and\n      or\n      swap1\n      sstore\n      jump\t// out\n    tag_32:\n      iszero\n      tag_699\n      jumpi\n      jump\t// out\n    tag_699:\n      mload(0x40)\n      shl(0xe5, 0x461bcd)\n      dup2\n      mstore\n      0x20\n      0x04\n      dup3\n      add\n      mstore\n      0x07\n      0x24\n      dup3\n      add\n      mstore\n      shl(0xca, 0x125b9d985b1a59)\n      0x44\n      dup3\n      add\n      mstore\n      0x64\n      swap1\n      revert\n    tag_33:\n      iszero\n      tag_701\n      jumpi\n      jump\t// out\n    tag_701:\n      mload(0x40)\n      shl(0xe5, 0x461bcd)\n      dup2\n      mstore\n      0x20\n      0x04\n      dup3\n      add\n      mstore\n      0x10\n      0x24\n      dup3\n      add\n      mstore\n      shl(0x82, 0x125b98dbdc9c9958dd08185b5bdd5b9d)\n      0x44\n      dup3\n      add\n      mstore\n      0x64\n      swap1\n      revert\n    tag_34:\n      dup1\n      mload\n      dup3\n      lt\n      iszero\n      tag_292\n      jumpi\n      0x20\n      swap2\n      0x05\n      shl\n      add\n      add\n      swap1\n      jump\t// out\n        /* \"contracts/modules/SponsorMatrix.sol\":14295:15339  function _placeInPool(uint256 poolId, uint userMainId, uint packagePrice) private {... */\n    tag_35:\n      swap2\n      swap1\n        /* \"contracts/modules/SponsorMatrix.sol\":14388:14436  require(poolId < poolPackages.length, \"Invalid\") */\n      tag_705\n        /* \"contracts/modules/SponsorMatrix.sol\":14405:14417  poolPackages */\n      0x08\n        /* \"contracts/modules/SponsorMatrix.sol\":756:40143  contract Nanakshahi {... */\n      sload\n        /* \"contracts/modules/SponsorMatrix.sol\":14396:14424  poolId < poolPackages.length */\n      dup5\n      lt\n        /* \"contracts/modules/SponsorMatrix.sol\":14388:14436  require(poolId < poolPackages.length, \"Invalid\") */\n      tag_32\n      jump\t// in\n    tag_705:\n        /* \"contracts/modules/SponsorMatrix.sol\":14447:14509  require(msg.value == poolPackages[poolId], \"Incorrect amount\") */\n      tag_706\n        /* \"contracts/modules/SponsorMatrix.sol\":14468:14488  poolPackages[poolId] */\n      tag_707\n      dup5\n      tag_2\n      jump\t// in\n    tag_707:\n        /* \"contracts/modules/SponsorMatrix.sol\":756:40143  contract Nanakshahi {... */\n      swap1\n      sload\n      swap1\n      0x03\n      shl\n      shr\n        /* \"contracts/modules/SponsorMatrix.sol\":14455:14464  msg.value */\n      callvalue\n        /* \"contracts/modules/SponsorMatrix.sol\":14455:14488  msg.value == poolPackages[poolId] */\n      eq\n        /* \"contracts/modules/SponsorMatrix.sol\":14447:14509  require(msg.value == poolPackages[poolId], \"Incorrect amount\") */\n      tag_33\n      jump\t// in\n    tag_706:\n        /* \"contracts/modules/SponsorMatrix.sol\":756:40143  contract Nanakshahi {... */\n      dup3\n      0x00\n      mstore\n        /* \"contracts/modules/SponsorMatrix.sol\":14548:14557  poolUsers */\n      0x25\n        /* \"contracts/modules/SponsorMatrix.sol\":756:40143  contract Nanakshahi {... */\n      0x20\n      mstore\n      keccak256(0x00, 0x40)\n      swap3\n      mload(0x40)\n      dup1\n      dup6\n      0x20\n      dup3\n      swap8\n      sload\n      swap4\n      dup5\n      dup2\n      mstore\n      add\n      swap1\n      0x00\n      mstore\n      keccak256(0x00, 0x20)\n      swap3\n      0x00\n    tag_708:\n      dup2\n      dup2\n      lt\n      tag_709\n      jumpi\n      pop\n      pop\n      tag_711\n      swap3\n      pop\n      sub\n      dup6\n      tag_17\n      jump\t// in\n    tag_711:\n      dup4\n      mload\n      swap4\n        /* \"contracts/modules/SponsorMatrix.sol\":14685:14711  defaultRefId + uint(index) */\n      tag_712\n        /* \"contracts/modules/SponsorMatrix.sol\":756:40143  contract Nanakshahi {... */\n      dup6\n        /* \"contracts/modules/SponsorMatrix.sol\":14685:14697  defaultRefId */\n      0x05\n        /* \"contracts/modules/SponsorMatrix.sol\":756:40143  contract Nanakshahi {... */\n      sload\n        /* \"contracts/modules/SponsorMatrix.sol\":14685:14711  defaultRefId + uint(index) */\n      tag_14\n      jump\t// in\n    tag_712:\n        /* \"contracts/modules/SponsorMatrix.sol\":756:40143  contract Nanakshahi {... */\n      swap1\n      dup3\n      0x00\n      mstore\n        /* \"contracts/modules/SponsorMatrix.sol\":14548:14557  poolUsers */\n      0x25\n        /* \"contracts/modules/SponsorMatrix.sol\":756:40143  contract Nanakshahi {... */\n      0x20\n      mstore\n        /* \"contracts/modules/SponsorMatrix.sol\":14722:14755  poolUsers[poolId].push(newUserId) */\n      tag_713\n        /* \"contracts/modules/SponsorMatrix.sol\":756:40143  contract Nanakshahi {... */\n      dup3\n      keccak256(0x00, 0x40)\n        /* \"contracts/modules/SponsorMatrix.sol\":14722:14755  poolUsers[poolId].push(newUserId) */\n      tag_31\n      jump\t// in\n    tag_713:\n      not(0x00)\n        /* \"contracts/modules/SponsorMatrix.sol\":756:40143  contract Nanakshahi {... */\n      dup7\n      add\n      swap6\n      dup7\n      gt\n      tag_199\n      jumpi\n        /* \"contracts/modules/SponsorMatrix.sol\":14860:14881  usersLen[parentIndex] */\n      tag_716\n        /* \"contracts/modules/SponsorMatrix.sol\":15208:15254  userChildren[poolId][parentId].push(newUserId) */\n      tag_717\n        /* \"contracts/modules/SponsorMatrix.sol\":756:40143  contract Nanakshahi {... */\n      swap2\n      0x03\n        /* \"contracts/modules/SponsorMatrix.sol\":15318:15330  packagePrice */\n      tag_665\n        /* \"contracts/modules/SponsorMatrix.sol\":756:40143  contract Nanakshahi {... */\n      swap9\n      div\n        /* \"contracts/modules/SponsorMatrix.sol\":14860:14881  usersLen[parentIndex] */\n      swap1\n      tag_34\n      jump\t// in\n    tag_716:\n        /* \"contracts/modules/SponsorMatrix.sol\":756:40143  contract Nanakshahi {... */\n      mload\n      swap2\n      tag_719\n      mload(0x40)\n      tag_720\n      dup2\n      tag_16\n      jump\t// in\n    tag_720:\n      dup3\n      dup2\n      mstore\n      0x20\n        /* \"contracts/modules/SponsorMatrix.sol\":14928:15124  UserPool({... */\n      dup1\n      dup3\n      add\n        /* \"contracts/modules/SponsorMatrix.sol\":756:40143  contract Nanakshahi {... */\n      dup9\n      dup2\n      mstore\n      0x40\n        /* \"contracts/modules/SponsorMatrix.sol\":14928:15124  UserPool({... */\n      dup1\n      dup5\n      add\n        /* \"contracts/modules/SponsorMatrix.sol\":756:40143  contract Nanakshahi {... */\n      dup10\n      dup2\n      mstore\n        /* \"contracts/modules/SponsorMatrix.sol\":14928:15124  UserPool({... */\n      0x60\n      dup6\n      add\n        /* \"contracts/modules/SponsorMatrix.sol\":756:40143  contract Nanakshahi {... */\n      dup10\n      dup2\n      mstore\n      0x00\n        /* \"contracts/modules/SponsorMatrix.sol\":14928:15124  UserPool({... */\n      0x80\n      dup8\n      add\n        /* \"contracts/modules/SponsorMatrix.sol\":756:40143  contract Nanakshahi {... */\n      dup2\n      dup2\n      mstore\n      dup13\n      dup3\n      mstore\n        /* \"contracts/modules/SponsorMatrix.sol\":14895:14906  userPooldtl */\n      0x22\n        /* \"contracts/modules/SponsorMatrix.sol\":756:40143  contract Nanakshahi {... */\n      dup8\n      mstore\n      dup5\n      dup3\n      keccak256\n      dup11\n      dup4\n      mstore\n      swap1\n      swap7\n      mstore\n      swap3\n      swap1\n      swap3\n      keccak256\n      swap5\n      mload\n      dup6\n      sstore\n      swap2\n      mload\n      0x01\n      dup6\n      add\n      sstore\n      swap1\n      mload\n      0x02\n      dup5\n      add\n      sstore\n      mload\n      0x03\n      dup4\n      add\n      sstore\n      mload\n      0x04\n      swap1\n      swap2\n      add\n      sstore\n      jump\n    tag_719:\n      dup4\n      0x00\n      mstore\n        /* \"contracts/modules/SponsorMatrix.sol\":15148:15161  userIdPerPool */\n      0x24\n        /* \"contracts/modules/SponsorMatrix.sol\":756:40143  contract Nanakshahi {... */\n      0x20\n      mstore\n      keccak256(0x00, 0x40)\n      dup6\n      0x00\n      mstore\n      0x20\n      mstore\n        /* \"contracts/modules/SponsorMatrix.sol\":15148:15197  userIdPerPool[poolId][userMainId].push(newUserId) */\n      tag_721\n        /* \"contracts/modules/SponsorMatrix.sol\":756:40143  contract Nanakshahi {... */\n      dup2\n      keccak256(0x00, 0x40)\n        /* \"contracts/modules/SponsorMatrix.sol\":15148:15197  userIdPerPool[poolId][userMainId].push(newUserId) */\n      tag_31\n      jump\t// in\n    tag_721:\n        /* \"contracts/modules/SponsorMatrix.sol\":756:40143  contract Nanakshahi {... */\n      dup4\n      0x00\n      mstore\n        /* \"contracts/modules/SponsorMatrix.sol\":15208:15220  userChildren */\n      0x23\n        /* \"contracts/modules/SponsorMatrix.sol\":756:40143  contract Nanakshahi {... */\n      0x20\n      mstore\n      keccak256(0x00, 0x40)\n      dup4\n      0x00\n      mstore\n      0x20\n      mstore\n      keccak256(0x00, 0x40)\n        /* \"contracts/modules/SponsorMatrix.sol\":15208:15254  userChildren[poolId][parentId].push(newUserId) */\n      tag_31\n      jump\t// in\n    tag_717:\n        /* \"contracts/modules/SponsorMatrix.sol\":15318:15330  packagePrice */\n      tag_45\n      jump\t// in\n        /* \"contracts/modules/SponsorMatrix.sol\":756:40143  contract Nanakshahi {... */\n    tag_709:\n      dup5\n      sload\n      dup4\n      mstore\n      0x01\n      swap5\n      dup6\n      add\n      swap5\n      dup10\n      swap5\n      pop\n      0x20\n      swap1\n      swap4\n      add\n      swap3\n      add\n      jump(tag_708)\n        /* \"contracts/modules/SponsorMatrix.sol\":26828:27595  function _applyGlobalCapping(uint _userId, uint _amount) internal view returns (uint) {... */\n    tag_36:\n        /* \"contracts/modules/SponsorMatrix.sol\":756:40143  contract Nanakshahi {... */\n      dup1\n      0x00\n      mstore\n        /* \"contracts/modules/SponsorMatrix.sol\":26941:26946  users */\n      0x2c\n        /* \"contracts/modules/SponsorMatrix.sol\":756:40143  contract Nanakshahi {... */\n      0x20\n      mstore\n      keccak256(0x00, 0x40)\n      swap1\n      0x00\n      mstore\n        /* \"contracts/modules/SponsorMatrix.sol\":26990:27001  userIncomes */\n      0x2d\n        /* \"contracts/modules/SponsorMatrix.sol\":756:40143  contract Nanakshahi {... */\n      0x20\n      mstore\n        /* \"contracts/modules/SponsorMatrix.sol\":27366:27383  user.totalDeposit */\n      0x0a\n        /* \"contracts/modules/SponsorMatrix.sol\":27366:27405  user.totalDeposit * _ROI_CAP_MULTIPLIER */\n      tag_722\n        /* \"contracts/modules/SponsorMatrix.sol\":756:40143  contract Nanakshahi {... */\n      keccak256(0x00, 0x40)\n        /* \"contracts/modules/SponsorMatrix.sol\":27222:27267  uint _ROI_CAP_MULTIPLIER = ROI_CAP_MULTIPLIER */\n      swap3\n        /* \"contracts/modules/SponsorMatrix.sol\":1201:1203  15 */\n      0x0f\n        /* \"contracts/modules/SponsorMatrix.sol\":27276:27300  user.directPoolQualified */\n      swap1\n        /* \"contracts/modules/SponsorMatrix.sol\":27301:27302  1 */\n      0x01\n        /* \"contracts/modules/SponsorMatrix.sol\":27276:27300  user.directPoolQualified */\n      0x08\n      dup3\n      add\n        /* \"contracts/modules/SponsorMatrix.sol\":756:40143  contract Nanakshahi {... */\n      sload\n        /* \"contracts/modules/SponsorMatrix.sol\":27276:27302  user.directPoolQualified>1 */\n      gt\n        /* \"contracts/modules/SponsorMatrix.sol\":27273:27343  if(user.directPoolQualified>1){... */\n      tag_723\n      jumpi\n        /* \"contracts/modules/SponsorMatrix.sol\":26828:27595  function _applyGlobalCapping(uint _userId, uint _amount) internal view returns (uint) {... */\n    tag_724:\n        /* \"contracts/modules/SponsorMatrix.sol\":27366:27383  user.totalDeposit */\n      dup4\n      add\n        /* \"contracts/modules/SponsorMatrix.sol\":756:40143  contract Nanakshahi {... */\n      sload\n        /* \"contracts/modules/SponsorMatrix.sol\":27366:27405  user.totalDeposit * _ROI_CAP_MULTIPLIER */\n      tag_25\n      jump\t// in\n    tag_722:\n        /* \"contracts/modules/SponsorMatrix.sol\":756:40143  contract Nanakshahi {... */\n      div\n      swap1\n      sload\n        /* \"contracts/modules/SponsorMatrix.sol\":27437:27468  income.totalIncome >= maxIncome */\n      dup2\n      dup2\n      lt\n      iszero\n        /* \"contracts/modules/SponsorMatrix.sol\":27433:27478  if (income.totalIncome >= maxIncome) return 0 */\n      tag_725\n      jumpi\n        /* \"contracts/modules/SponsorMatrix.sol\":27504:27534  maxIncome - income.totalIncome */\n      tag_727\n      swap2\n      tag_13\n      jump\t// in\n    tag_727:\n        /* \"contracts/modules/SponsorMatrix.sol\":27548:27591  (_amount > remaining) ? remaining : _amount */\n      swap1\n        /* \"contracts/modules/SponsorMatrix.sol\":27549:27568  _amount > remaining */\n      dup2\n      dup2\n      gt\n      iszero\n      tag_728\n      jumpi\n        /* \"contracts/modules/SponsorMatrix.sol\":27548:27591  (_amount > remaining) ? remaining : _amount */\n      pop\n        /* \"contracts/modules/SponsorMatrix.sol\":26828:27595  function _applyGlobalCapping(uint _userId, uint _amount) internal view returns (uint) {... */\n      swap1\n      jump\t// out\n        /* \"contracts/modules/SponsorMatrix.sol\":27548:27591  (_amount > remaining) ? remaining : _amount */\n    tag_728:\n      swap1\n      pop\n        /* \"contracts/modules/SponsorMatrix.sol\":26828:27595  function _applyGlobalCapping(uint _userId, uint _amount) internal view returns (uint) {... */\n      swap1\n      jump\t// out\n        /* \"contracts/modules/SponsorMatrix.sol\":27433:27478  if (income.totalIncome >= maxIncome) return 0 */\n    tag_725:\n        /* \"contracts/modules/SponsorMatrix.sol\":27470:27478  return 0 */\n      pop\n      pop\n      pop\n        /* \"contracts/modules/SponsorMatrix.sol\":756:40143  contract Nanakshahi {... */\n      0x00\n        /* \"contracts/modules/SponsorMatrix.sol\":27470:27478  return 0 */\n      swap1\n      jump\t// out\n        /* \"contracts/modules/SponsorMatrix.sol\":27273:27343  if(user.directPoolQualified>1){... */\n    tag_723:\n        /* \"contracts/modules/SponsorMatrix.sol\":27334:27336  20 */\n      0x14\n      swap2\n      pop\n        /* \"contracts/modules/SponsorMatrix.sol\":27273:27343  if(user.directPoolQualified>1){... */\n      jump(tag_724)\n        /* \"contracts/modules/SponsorMatrix.sol\":27603:27927  function _accrueCommunityBonus(uint _totalAmount) internal {... */\n    tag_37:\n        /* \"contracts/modules/SponsorMatrix.sol\":27682:27699  registeredUserIds */\n      0x38\n        /* \"contracts/modules/SponsorMatrix.sol\":756:40143  contract Nanakshahi {... */\n      sload\n        /* \"contracts/modules/SponsorMatrix.sol\":27721:27727  n == 0 */\n      swap1\n      dup2\n      iszero\n        /* \"contracts/modules/SponsorMatrix.sol\":27721:27748  n == 0 || _totalAmount == 0 */\n      dup1\n      iszero\n      tag_731\n      jumpi\n        /* \"contracts/modules/SponsorMatrix.sol\":27603:27927  function _accrueCommunityBonus(uint _totalAmount) internal {... */\n    tag_732:\n        /* \"contracts/modules/SponsorMatrix.sol\":27717:27852  if (n == 0 || _totalAmount == 0) {... */\n      tag_733\n      jumpi\n        /* \"contracts/modules/SponsorMatrix.sol\":6074:6078  1e18 */\n      0x0de0b6b3a7640000\n        /* \"contracts/modules/SponsorMatrix.sol\":756:40143  contract Nanakshahi {... */\n      dup2\n      mul\n      swap1\n      dup1\n      dup3\n      div\n        /* \"contracts/modules/SponsorMatrix.sol\":6074:6078  1e18 */\n      0x0de0b6b3a7640000\n        /* \"contracts/modules/SponsorMatrix.sol\":756:40143  contract Nanakshahi {... */\n      eq\n      swap1\n      iszero\n      or\n      iszero\n      tag_199\n      jumpi\n        /* \"contracts/modules/SponsorMatrix.sol\":27862:27919  communityAccPerUser += (_totalAmount * ACC_PRECISION) / n */\n      tag_737\n        /* \"contracts/modules/SponsorMatrix.sol\":27885:27919  (_totalAmount * ACC_PRECISION) / n */\n      swap2\n      tag_738\n      swap2\n      tag_19\n      jump\t// in\n    tag_738:\n        /* \"contracts/modules/SponsorMatrix.sol\":27862:27919  communityAccPerUser += (_totalAmount * ACC_PRECISION) / n */\n      0x32\n        /* \"contracts/modules/SponsorMatrix.sol\":756:40143  contract Nanakshahi {... */\n      sload\n        /* \"contracts/modules/SponsorMatrix.sol\":27862:27919  communityAccPerUser += (_totalAmount * ACC_PRECISION) / n */\n      tag_14\n      jump\t// in\n    tag_737:\n      0x32\n        /* \"contracts/modules/SponsorMatrix.sol\":756:40143  contract Nanakshahi {... */\n      sstore\n        /* \"contracts/modules/SponsorMatrix.sol\":27603:27927  function _accrueCommunityBonus(uint _totalAmount) internal {... */\n      jump\t// out\n        /* \"contracts/modules/SponsorMatrix.sol\":27717:27852  if (n == 0 || _totalAmount == 0) {... */\n    tag_733:\n        /* \"contracts/modules/SponsorMatrix.sol\":27769:27785  _totalAmount > 0 */\n      dup1\n      swap2\n      pop\n        /* \"contracts/modules/SponsorMatrix.sol\":27765:27820  if (_totalAmount > 0) { _sendToCreator(_totalAmount); } */\n      tag_739\n      jumpi\n        /* \"contracts/modules/SponsorMatrix.sol\":27834:27841  return; */\n      pop\n      jump\t// out\n        /* \"contracts/modules/SponsorMatrix.sol\":27765:27820  if (_totalAmount > 0) { _sendToCreator(_totalAmount); } */\n    tag_739:\n        /* \"contracts/modules/SponsorMatrix.sol\":27804:27816  _totalAmount */\n      tag_665\n      swap1\n      tag_38\n      jump\t// in\n        /* \"contracts/modules/SponsorMatrix.sol\":27721:27748  n == 0 || _totalAmount == 0 */\n    tag_731:\n        /* \"contracts/modules/SponsorMatrix.sol\":27731:27748  _totalAmount == 0 */\n      pop\n      dup1\n      iszero\n        /* \"contracts/modules/SponsorMatrix.sol\":27721:27748  n == 0 || _totalAmount == 0 */\n      jump(tag_732)\n        /* \"contracts/modules/SponsorMatrix.sol\":22139:22745  function _sendToCreator(uint _amount) private {... */\n    tag_38:\n        /* \"contracts/modules/SponsorMatrix.sol\":22200:22213  creatorWallet */\n      0x02\n        /* \"contracts/modules/SponsorMatrix.sol\":756:40143  contract Nanakshahi {... */\n      sload\n      sub(shl(0xa0, 0x01), 0x01)\n      and\n      swap1\n        /* \"contracts/modules/SponsorMatrix.sol\":22200:22227  creatorWallet != address(0) */\n      dup2\n      iszero\n        /* \"contracts/modules/SponsorMatrix.sol\":756:40143  contract Nanakshahi {... */\n      tag_742\n      jumpi\n      0x00\n      dup1\n      sload\n      mload(0x40)\n      shl(0xe0, 0xa9059cbb)\n        /* \"contracts/modules/SponsorMatrix.sol\":22346:22383  usdt.transfer(creatorWallet, _amount) */\n      dup2\n      mstore\n      sub(shl(0xa0, 0x01), 0x01)\n        /* \"contracts/modules/SponsorMatrix.sol\":756:40143  contract Nanakshahi {... */\n      swap5\n      dup6\n      and\n        /* \"contracts/modules/SponsorMatrix.sol\":22346:22383  usdt.transfer(creatorWallet, _amount) */\n      0x04\n      dup3\n      add\n        /* \"contracts/modules/SponsorMatrix.sol\":756:40143  contract Nanakshahi {... */\n      mstore\n      0x24\n      dup2\n      add\n      dup5\n      swap1\n      mstore\n      swap4\n        /* \"contracts/modules/SponsorMatrix.sol\":22346:22383  usdt.transfer(creatorWallet, _amount) */\n      0x20\n      swap3\n        /* \"contracts/modules/SponsorMatrix.sol\":756:40143  contract Nanakshahi {... */\n      dup6\n      swap3\n      0x44\n      swap3\n      dup5\n      swap3\n      swap2\n      and\n        /* \"contracts/modules/SponsorMatrix.sol\":22346:22383  usdt.transfer(creatorWallet, _amount) */\n      gas\n      call\n      swap2\n      dup3\n      iszero\n      tag_164\n      jumpi\n        /* \"contracts/modules/SponsorMatrix.sol\":22555:22741  incomeHistory[defaultRefId].push(Income({... */\n      tag_665\n        /* \"contracts/modules/SponsorMatrix.sol\":22346:22383  usdt.transfer(creatorWallet, _amount) */\n      swap3\n      tag_748\n      jumpi\n        /* \"contracts/modules/SponsorMatrix.sol\":22139:22745  function _sendToCreator(uint _amount) private {... */\n    tag_749:\n        /* \"contracts/modules/SponsorMatrix.sol\":756:40143  contract Nanakshahi {... */\n      pop\n        /* \"contracts/modules/SponsorMatrix.sol\":22490:22502  defaultRefId */\n      0x05\n        /* \"contracts/modules/SponsorMatrix.sol\":756:40143  contract Nanakshahi {... */\n      sload\n      0x00\n      mstore\n        /* \"contracts/modules/SponsorMatrix.sol\":22478:22489  userIncomes */\n      0x2d\n        /* \"contracts/modules/SponsorMatrix.sol\":22346:22383  usdt.transfer(creatorWallet, _amount) */\n      0x20\n        /* \"contracts/modules/SponsorMatrix.sol\":756:40143  contract Nanakshahi {... */\n      mstore\n      keccak256(0x00, 0x40)\n        /* \"contracts/modules/SponsorMatrix.sol\":22510:22546  creatorIncome.totalIncome += _amount */\n      tag_750\n        /* \"contracts/modules/SponsorMatrix.sol\":756:40143  contract Nanakshahi {... */\n      dup3\n      dup3\n      sload\n        /* \"contracts/modules/SponsorMatrix.sol\":22510:22546  creatorIncome.totalIncome += _amount */\n      tag_14\n      jump\t// in\n    tag_750:\n        /* \"contracts/modules/SponsorMatrix.sol\":756:40143  contract Nanakshahi {... */\n      swap1\n      sstore\n        /* \"contracts/modules/SponsorMatrix.sol\":22490:22502  defaultRefId */\n      0x05\n        /* \"contracts/modules/SponsorMatrix.sol\":756:40143  contract Nanakshahi {... */\n      sload\n      0x00\n      mstore\n        /* \"contracts/modules/SponsorMatrix.sol\":22555:22568  incomeHistory */\n      0x2e\n        /* \"contracts/modules/SponsorMatrix.sol\":22346:22383  usdt.transfer(creatorWallet, _amount) */\n      0x20\n        /* \"contracts/modules/SponsorMatrix.sol\":756:40143  contract Nanakshahi {... */\n      mstore\n      keccak256(0x00, 0x40)\n      mload(0x40)\n      swap2\n      tag_751\n      dup4\n      tag_16\n      jump\t// in\n    tag_751:\n      0x00\n      dup4\n      mstore\n        /* \"contracts/modules/SponsorMatrix.sol\":22346:22383  usdt.transfer(creatorWallet, _amount) */\n      0x20\n        /* \"contracts/modules/SponsorMatrix.sol\":22588:22740  Income({... */\n      dup4\n      add\n        /* \"contracts/modules/SponsorMatrix.sol\":756:40143  contract Nanakshahi {... */\n      mstore\n      0x00\n      0x40\n        /* \"contracts/modules/SponsorMatrix.sol\":22588:22740  Income({... */\n      dup4\n      add\n        /* \"contracts/modules/SponsorMatrix.sol\":756:40143  contract Nanakshahi {... */\n      mstore\n        /* \"contracts/modules/SponsorMatrix.sol\":22693:22708  block.timestamp */\n      timestamp\n        /* \"contracts/modules/SponsorMatrix.sol\":22588:22740  Income({... */\n      0x60\n      dup4\n      add\n        /* \"contracts/modules/SponsorMatrix.sol\":756:40143  contract Nanakshahi {... */\n      mstore\n        /* \"contracts/modules/SponsorMatrix.sol\":22490:22502  defaultRefId */\n      0x05\n        /* \"contracts/modules/SponsorMatrix.sol\":22588:22740  Income({... */\n      0x80\n      dup4\n      add\n        /* \"contracts/modules/SponsorMatrix.sol\":756:40143  contract Nanakshahi {... */\n      mstore\n        /* \"contracts/modules/SponsorMatrix.sol\":22555:22741  incomeHistory[defaultRefId].push(Income({... */\n      tag_28\n      jump\t// in\n        /* \"contracts/modules/SponsorMatrix.sol\":22346:22383  usdt.transfer(creatorWallet, _amount) */\n    tag_748:\n      tag_752\n      swap1\n      0x20\n      jumpi(tag_231, gt(0x20, returndatasize))\n      tag_233\n      dup2\n      dup4\n      tag_17\n      jump\t// in\n    tag_752:\n      jump(tag_749)\n        /* \"contracts/modules/SponsorMatrix.sol\":756:40143  contract Nanakshahi {... */\n    tag_742:\n      mload(0x40)\n      shl(0xe5, 0x461bcd)\n      dup2\n      mstore\n      0x20\n      0x04\n      dup3\n      add\n      mstore\n      0x11\n      0x24\n      dup3\n      add\n      mstore\n      shl(0x7a, 0x199959481859191c9cc81b9bdd081cd95d)\n      0x44\n      dup3\n      add\n      mstore\n      0x64\n      swap1\n      revert\n        /* \"contracts/modules/SponsorMatrix.sol\":31651:32927  function _distributeSponsorIncome(uint _sponsorId, uint _fromId, uint _amount, uint _packageLevel) private {... */\n    tag_39:\n        /* \"contracts/modules/SponsorMatrix.sol\":31773:31788  _sponsorId == 0 */\n      dup1\n      iszero\n        /* \"contracts/modules/SponsorMatrix.sol\":31773:31818  _sponsorId == 0 || _sponsorId == defaultRefId */\n      dup1\n      iszero\n      tag_756\n      jumpi\n        /* \"contracts/modules/SponsorMatrix.sol\":31651:32927  function _distributeSponsorIncome(uint _sponsorId, uint _fromId, uint _amount, uint _packageLevel) private {... */\n    tag_757:\n        /* \"contracts/modules/SponsorMatrix.sol\":31769:31891  if (_sponsorId == 0 || _sponsorId == defaultRefId) {... */\n      tag_758\n      jumpi\n        /* \"contracts/modules/SponsorMatrix.sol\":31787:31788  0 */\n      0x00\n        /* \"contracts/modules/SponsorMatrix.sol\":756:40143  contract Nanakshahi {... */\n      dup2\n      dup2\n      mstore\n        /* \"contracts/modules/SponsorMatrix.sol\":31934:31939  users */\n      0x2c\n        /* \"contracts/modules/SponsorMatrix.sol\":756:40143  contract Nanakshahi {... */\n      0x20\n      swap1\n      dup2\n      mstore\n      0x40\n      dup1\n      dup4\n      keccak256\n      dup4\n      sload\n      dup2\n      sload\n      swap3\n      mload\n      shl(0xe0, 0xa9059cbb)\n        /* \"contracts/modules/SponsorMatrix.sol\":32184:32223  usdt.transfer(sponsor.account, _amount) */\n      dup2\n      mstore\n      sub(shl(0xa0, 0x01), 0x01)\n        /* \"contracts/modules/SponsorMatrix.sol\":756:40143  contract Nanakshahi {... */\n      swap4\n      dup5\n      and\n        /* \"contracts/modules/SponsorMatrix.sol\":32184:32223  usdt.transfer(sponsor.account, _amount) */\n      0x04\n      dup3\n      add\n        /* \"contracts/modules/SponsorMatrix.sol\":756:40143  contract Nanakshahi {... */\n      mstore\n      0x24\n      dup2\n      add\n      dup10\n      swap1\n      mstore\n      swap2\n      swap6\n      swap5\n      swap2\n      swap4\n      swap3\n      dup5\n      swap3\n      0x44\n      swap3\n      dup5\n      swap3\n      and\n        /* \"contracts/modules/SponsorMatrix.sol\":32184:32223  usdt.transfer(sponsor.account, _amount) */\n      gas\n      call\n      dup1\n      iszero\n      tag_164\n      jumpi\n      tag_763\n      jumpi\n        /* \"contracts/modules/SponsorMatrix.sol\":31651:32927  function _distributeSponsorIncome(uint _sponsorId, uint _fromId, uint _amount, uint _packageLevel) private {... */\n    tag_764:\n        /* \"contracts/modules/SponsorMatrix.sol\":756:40143  contract Nanakshahi {... */\n      pop\n      dup1\n        /* \"contracts/modules/SponsorMatrix.sol\":31787:31788  0 */\n      0x00\n        /* \"contracts/modules/SponsorMatrix.sol\":756:40143  contract Nanakshahi {... */\n      mstore\n        /* \"contracts/modules/SponsorMatrix.sol\":32337:32348  userIncomes */\n      0x2d\n        /* \"contracts/modules/SponsorMatrix.sol\":756:40143  contract Nanakshahi {... */\n      0x20\n      mstore\n        /* \"contracts/modules/SponsorMatrix.sol\":23442:23443  1 */\n      0x01\n        /* \"contracts/modules/SponsorMatrix.sol\":756:40143  contract Nanakshahi {... */\n      0x40\n        /* \"contracts/modules/SponsorMatrix.sol\":31787:31788  0 */\n      0x00\n        /* \"contracts/modules/SponsorMatrix.sol\":756:40143  contract Nanakshahi {... */\n      keccak256\n        /* \"contracts/modules/SponsorMatrix.sol\":32375:32411  sponsorIncome.totalIncome += _amount */\n      tag_765\n        /* \"contracts/modules/SponsorMatrix.sol\":756:40143  contract Nanakshahi {... */\n      dup7\n      dup3\n      sload\n        /* \"contracts/modules/SponsorMatrix.sol\":32375:32411  sponsorIncome.totalIncome += _amount */\n      tag_14\n      jump\t// in\n    tag_765:\n        /* \"contracts/modules/SponsorMatrix.sol\":756:40143  contract Nanakshahi {... */\n      dup2\n      sstore\n        /* \"contracts/modules/SponsorMatrix.sol\":32426:32453  sponsorIncome.sponsorIncome */\n      add\n        /* \"contracts/modules/SponsorMatrix.sol\":32426:32464  sponsorIncome.sponsorIncome += _amount */\n      tag_766\n        /* \"contracts/modules/SponsorMatrix.sol\":756:40143  contract Nanakshahi {... */\n      dup6\n      dup3\n      sload\n        /* \"contracts/modules/SponsorMatrix.sol\":32426:32464  sponsorIncome.sponsorIncome += _amount */\n      tag_14\n      jump\t// in\n    tag_766:\n        /* \"contracts/modules/SponsorMatrix.sol\":756:40143  contract Nanakshahi {... */\n      swap1\n      sstore\n        /* \"contracts/modules/SponsorMatrix.sol\":31787:31788  0 */\n      0x00\n        /* \"contracts/modules/SponsorMatrix.sol\":756:40143  contract Nanakshahi {... */\n      mstore\n        /* \"contracts/modules/SponsorMatrix.sol\":32523:32536  incomeHistory */\n      0x2e\n        /* \"contracts/modules/SponsorMatrix.sol\":756:40143  contract Nanakshahi {... */\n      0x20\n      mstore\n        /* \"contracts/modules/SponsorMatrix.sol\":32523:32791  incomeHistory[_sponsorId].push(Income({... */\n      tag_767\n        /* \"contracts/modules/SponsorMatrix.sol\":756:40143  contract Nanakshahi {... */\n      0x40\n        /* \"contracts/modules/SponsorMatrix.sol\":31787:31788  0 */\n      0x00\n        /* \"contracts/modules/SponsorMatrix.sol\":756:40143  contract Nanakshahi {... */\n      keccak256\n      mload(0x40)\n      swap1\n      tag_768\n      dup3\n      tag_16\n      jump\t// in\n    tag_768:\n      dup5\n      dup3\n      mstore\n        /* \"contracts/modules/SponsorMatrix.sol\":32554:32790  Income({... */\n      dup6\n        /* \"contracts/modules/SponsorMatrix.sol\":756:40143  contract Nanakshahi {... */\n      0x20\n        /* \"contracts/modules/SponsorMatrix.sol\":32554:32790  Income({... */\n      dup4\n      add\n        /* \"contracts/modules/SponsorMatrix.sol\":756:40143  contract Nanakshahi {... */\n      mstore\n        /* \"contracts/modules/SponsorMatrix.sol\":23442:23443  1 */\n      0x01\n        /* \"contracts/modules/SponsorMatrix.sol\":756:40143  contract Nanakshahi {... */\n      0x40\n        /* \"contracts/modules/SponsorMatrix.sol\":32554:32790  Income({... */\n      dup4\n      add\n        /* \"contracts/modules/SponsorMatrix.sol\":756:40143  contract Nanakshahi {... */\n      mstore\n        /* \"contracts/modules/SponsorMatrix.sol\":32709:32724  block.timestamp */\n      timestamp\n        /* \"contracts/modules/SponsorMatrix.sol\":32554:32790  Income({... */\n      0x60\n      dup4\n      add\n        /* \"contracts/modules/SponsorMatrix.sol\":756:40143  contract Nanakshahi {... */\n      mstore\n        /* \"contracts/modules/SponsorMatrix.sol\":23442:23443  1 */\n      0x01\n        /* \"contracts/modules/SponsorMatrix.sol\":32554:32790  Income({... */\n      0x80\n      dup4\n      add\n        /* \"contracts/modules/SponsorMatrix.sol\":756:40143  contract Nanakshahi {... */\n      mstore\n        /* \"contracts/modules/SponsorMatrix.sol\":32523:32791  incomeHistory[_sponsorId].push(Income({... */\n      tag_28\n      jump\t// in\n    tag_767:\n        /* \"contracts/modules/SponsorMatrix.sol\":756:40143  contract Nanakshahi {... */\n      0x01\n      dup1\n      0xa0\n      shl\n      sub\n      swap1\n      sload\n      and\n      swap1\n        /* \"contracts/modules/SponsorMatrix.sol\":31787:31788  0 */\n      0x00\n        /* \"contracts/modules/SponsorMatrix.sol\":756:40143  contract Nanakshahi {... */\n      mstore\n        /* \"contracts/modules/SponsorMatrix.sol\":31934:31939  users */\n      0x2c\n        /* \"contracts/modules/SponsorMatrix.sol\":756:40143  contract Nanakshahi {... */\n      0x20\n      mstore\n      mload(0x00)\n      codecopy(0x00, data_51678340555b44277c2bba9423d75ebead61331b9cde789c13d0820d4f537e29, 0x20)\n      mload(0x00)\n      swap1\n      0x00\n      mstore\n        /* \"contracts/modules/SponsorMatrix.sol\":32554:32790  Income({... */\n      0x60\n        /* \"contracts/modules/SponsorMatrix.sol\":756:40143  contract Nanakshahi {... */\n      0x01\n      dup1\n      0xa0\n      shl\n      sub\n      0x40\n        /* \"contracts/modules/SponsorMatrix.sol\":31787:31788  0 */\n      0x00\n        /* \"contracts/modules/SponsorMatrix.sol\":756:40143  contract Nanakshahi {... */\n      keccak256\n      sload\n      and\n      swap4\n      mload(0x40)\n      swap1\n      dup2\n      mstore\n        /* \"contracts/modules/SponsorMatrix.sol\":23442:23443  1 */\n      0x01\n        /* \"contracts/modules/SponsorMatrix.sol\":756:40143  contract Nanakshahi {... */\n      0x20\n      dup3\n      add\n      mstore\n        /* \"contracts/modules/SponsorMatrix.sol\":23442:23443  1 */\n      0x01\n        /* \"contracts/modules/SponsorMatrix.sol\":756:40143  contract Nanakshahi {... */\n      0x40\n      dup3\n      add\n      mstore\n        /* \"contracts/modules/SponsorMatrix.sol\":32825:32910  IncomeDistributed(sponsor.account, users[_fromId].account, _amount, _packageLevel, 1) */\n      log3\n        /* \"contracts/modules/SponsorMatrix.sol\":31651:32927  function _distributeSponsorIncome(uint _sponsorId, uint _fromId, uint _amount, uint _packageLevel) private {... */\n      jump\t// out\n        /* \"contracts/modules/SponsorMatrix.sol\":32184:32223  usdt.transfer(sponsor.account, _amount) */\n    tag_763:\n      tag_769\n      swap1\n        /* \"contracts/modules/SponsorMatrix.sol\":756:40143  contract Nanakshahi {... */\n      0x20\n        /* \"contracts/modules/SponsorMatrix.sol\":32184:32223  usdt.transfer(sponsor.account, _amount) */\n      returndatasize\n        /* \"contracts/modules/SponsorMatrix.sol\":756:40143  contract Nanakshahi {... */\n      0x20\n        /* \"contracts/modules/SponsorMatrix.sol\":32184:32223  usdt.transfer(sponsor.account, _amount) */\n      gt\n      tag_231\n      jumpi\n      tag_233\n      dup2\n      dup4\n      tag_17\n      jump\t// in\n    tag_769:\n      jump(tag_764)\n        /* \"contracts/modules/SponsorMatrix.sol\":31769:31891  if (_sponsorId == 0 || _sponsorId == defaultRefId) {... */\n    tag_758:\n        /* \"contracts/modules/SponsorMatrix.sol\":31850:31857  _amount */\n      pop\n      pop\n      tag_665\n      swap1\n      tag_38\n      jump\t// in\n        /* \"contracts/modules/SponsorMatrix.sol\":31773:31818  _sponsorId == 0 || _sponsorId == defaultRefId */\n    tag_756:\n        /* \"contracts/modules/SponsorMatrix.sol\":756:40143  contract Nanakshahi {... */\n      pop\n        /* \"contracts/modules/SponsorMatrix.sol\":31806:31818  defaultRefId */\n      0x05\n        /* \"contracts/modules/SponsorMatrix.sol\":756:40143  contract Nanakshahi {... */\n      sload\n        /* \"contracts/modules/SponsorMatrix.sol\":31792:31818  _sponsorId == defaultRefId */\n      dup2\n      eq\n        /* \"contracts/modules/SponsorMatrix.sol\":31773:31818  _sponsorId == 0 || _sponsorId == defaultRefId */\n      jump(tag_757)\n        /* \"contracts/modules/SponsorMatrix.sol\":31651:32927  function _distributeSponsorIncome(uint _sponsorId, uint _fromId, uint _amount, uint _packageLevel) private {... */\n    tag_40:\n      swap1\n      swap2\n        /* \"contracts/modules/SponsorMatrix.sol\":31773:31788  _sponsorId == 0 */\n      dup2\n      iszero\n        /* \"contracts/modules/SponsorMatrix.sol\":31773:31818  _sponsorId == 0 || _sponsorId == defaultRefId */\n      dup1\n      iszero\n      tag_774\n      jumpi\n        /* \"contracts/modules/SponsorMatrix.sol\":31651:32927  function _distributeSponsorIncome(uint _sponsorId, uint _fromId, uint _amount, uint _packageLevel) private {... */\n    tag_775:\n        /* \"contracts/modules/SponsorMatrix.sol\":31769:31891  if (_sponsorId == 0 || _sponsorId == defaultRefId) {... */\n      tag_776\n      jumpi\n        /* \"contracts/modules/SponsorMatrix.sol\":756:40143  contract Nanakshahi {... */\n      dup2\n        /* \"contracts/modules/SponsorMatrix.sol\":31787:31788  0 */\n      0x00\n        /* \"contracts/modules/SponsorMatrix.sol\":756:40143  contract Nanakshahi {... */\n      mstore\n        /* \"contracts/modules/SponsorMatrix.sol\":31934:31939  users */\n      0x2c\n        /* \"contracts/modules/SponsorMatrix.sol\":756:40143  contract Nanakshahi {... */\n      0x20\n      mstore\n      0x40\n        /* \"contracts/modules/SponsorMatrix.sol\":31787:31788  0 */\n      0x00\n        /* \"contracts/modules/SponsorMatrix.sol\":756:40143  contract Nanakshahi {... */\n      keccak256\n        /* \"contracts/modules/SponsorMatrix.sol\":31993:31994  1 */\n      0x01\n        /* \"contracts/modules/SponsorMatrix.sol\":31976:31994  _packageLevel != 1 */\n      dup6\n      sub\n        /* \"contracts/modules/SponsorMatrix.sol\":31972:32162  if (_packageLevel != 1)... */\n      tag_778\n      jumpi\n        /* \"contracts/modules/SponsorMatrix.sol\":31651:32927  function _distributeSponsorIncome(uint _sponsorId, uint _fromId, uint _amount, uint _packageLevel) private {... */\n    tag_779:\n        /* \"contracts/modules/SponsorMatrix.sol\":31787:31788  0 */\n      0x00\n        /* \"contracts/modules/SponsorMatrix.sol\":756:40143  contract Nanakshahi {... */\n      dup1\n      sload\n      dup3\n      sload\n      mload(0x40)\n      shl(0xe0, 0xa9059cbb)\n        /* \"contracts/modules/SponsorMatrix.sol\":32184:32223  usdt.transfer(sponsor.account, _amount) */\n      dup2\n      mstore\n      sub(shl(0xa0, 0x01), 0x01)\n        /* \"contracts/modules/SponsorMatrix.sol\":756:40143  contract Nanakshahi {... */\n      swap2\n      dup3\n      and\n        /* \"contracts/modules/SponsorMatrix.sol\":32184:32223  usdt.transfer(sponsor.account, _amount) */\n      0x04\n      dup3\n      add\n        /* \"contracts/modules/SponsorMatrix.sol\":756:40143  contract Nanakshahi {... */\n      mstore\n      0x24\n      dup2\n      add\n      dup7\n      swap1\n      mstore\n      swap6\n      swap5\n      swap4\n      swap3\n      0x20\n      swap3\n      dup8\n      swap3\n      0x44\n      swap3\n      dup5\n      swap3\n        /* \"contracts/modules/SponsorMatrix.sol\":31787:31788  0 */\n      swap1\n      swap2\n        /* \"contracts/modules/SponsorMatrix.sol\":756:40143  contract Nanakshahi {... */\n      and\n        /* \"contracts/modules/SponsorMatrix.sol\":32184:32223  usdt.transfer(sponsor.account, _amount) */\n      gas\n      call\n      swap3\n      dup4\n      iszero\n      tag_164\n      jumpi\n      mload(0x00)\n      codecopy(0x00, data_51678340555b44277c2bba9423d75ebead61331b9cde789c13d0820d4f537e29, 0x20)\n      mload(0x00)\n      swap1\n      0x00\n      mstore\n      swap5\n        /* \"contracts/modules/SponsorMatrix.sol\":32554:32790  Income({... */\n      0x60\n        /* \"contracts/modules/SponsorMatrix.sol\":32184:32223  usdt.transfer(sponsor.account, _amount) */\n      swap5\n      tag_783\n      jumpi\n        /* \"contracts/modules/SponsorMatrix.sol\":31651:32927  function _distributeSponsorIncome(uint _sponsorId, uint _fromId, uint _amount, uint _packageLevel) private {... */\n    tag_784:\n        /* \"contracts/modules/SponsorMatrix.sol\":756:40143  contract Nanakshahi {... */\n      pop\n      dup1\n        /* \"contracts/modules/SponsorMatrix.sol\":31787:31788  0 */\n      0x00\n        /* \"contracts/modules/SponsorMatrix.sol\":756:40143  contract Nanakshahi {... */\n      mstore\n        /* \"contracts/modules/SponsorMatrix.sol\":32337:32348  userIncomes */\n      0x2d\n        /* \"contracts/modules/SponsorMatrix.sol\":756:40143  contract Nanakshahi {... */\n      0x20\n      mstore\n        /* \"contracts/modules/SponsorMatrix.sol\":31993:31994  1 */\n      0x01\n        /* \"contracts/modules/SponsorMatrix.sol\":756:40143  contract Nanakshahi {... */\n      0x40\n        /* \"contracts/modules/SponsorMatrix.sol\":31787:31788  0 */\n      0x00\n        /* \"contracts/modules/SponsorMatrix.sol\":756:40143  contract Nanakshahi {... */\n      keccak256\n        /* \"contracts/modules/SponsorMatrix.sol\":32375:32411  sponsorIncome.totalIncome += _amount */\n      tag_785\n        /* \"contracts/modules/SponsorMatrix.sol\":756:40143  contract Nanakshahi {... */\n      dup6\n      dup3\n      sload\n        /* \"contracts/modules/SponsorMatrix.sol\":32375:32411  sponsorIncome.totalIncome += _amount */\n      tag_14\n      jump\t// in\n    tag_785:\n        /* \"contracts/modules/SponsorMatrix.sol\":756:40143  contract Nanakshahi {... */\n      dup2\n      sstore\n        /* \"contracts/modules/SponsorMatrix.sol\":32426:32453  sponsorIncome.sponsorIncome */\n      add\n        /* \"contracts/modules/SponsorMatrix.sol\":32426:32464  sponsorIncome.sponsorIncome += _amount */\n      tag_786\n        /* \"contracts/modules/SponsorMatrix.sol\":756:40143  contract Nanakshahi {... */\n      dup5\n      dup3\n      sload\n        /* \"contracts/modules/SponsorMatrix.sol\":32426:32464  sponsorIncome.sponsorIncome += _amount */\n      tag_14\n      jump\t// in\n    tag_786:\n        /* \"contracts/modules/SponsorMatrix.sol\":756:40143  contract Nanakshahi {... */\n      swap1\n      sstore\n        /* \"contracts/modules/SponsorMatrix.sol\":31787:31788  0 */\n      0x00\n        /* \"contracts/modules/SponsorMatrix.sol\":756:40143  contract Nanakshahi {... */\n      mstore\n        /* \"contracts/modules/SponsorMatrix.sol\":32523:32536  incomeHistory */\n      0x2e\n        /* \"contracts/modules/SponsorMatrix.sol\":756:40143  contract Nanakshahi {... */\n      0x20\n      mstore\n        /* \"contracts/modules/SponsorMatrix.sol\":32523:32791  incomeHistory[_sponsorId].push(Income({... */\n      tag_787\n        /* \"contracts/modules/SponsorMatrix.sol\":756:40143  contract Nanakshahi {... */\n      0x40\n        /* \"contracts/modules/SponsorMatrix.sol\":31787:31788  0 */\n      0x00\n        /* \"contracts/modules/SponsorMatrix.sol\":756:40143  contract Nanakshahi {... */\n      keccak256\n      mload(0x40)\n      swap1\n      tag_788\n      dup3\n      tag_16\n      jump\t// in\n    tag_788:\n      dup8\n      dup3\n      mstore\n        /* \"contracts/modules/SponsorMatrix.sol\":32554:32790  Income({... */\n      dup5\n        /* \"contracts/modules/SponsorMatrix.sol\":756:40143  contract Nanakshahi {... */\n      0x20\n        /* \"contracts/modules/SponsorMatrix.sol\":32554:32790  Income({... */\n      dup4\n      add\n        /* \"contracts/modules/SponsorMatrix.sol\":756:40143  contract Nanakshahi {... */\n      mstore\n        /* \"contracts/modules/SponsorMatrix.sol\":32554:32790  Income({... */\n      dup9\n        /* \"contracts/modules/SponsorMatrix.sol\":756:40143  contract Nanakshahi {... */\n      0x40\n        /* \"contracts/modules/SponsorMatrix.sol\":32554:32790  Income({... */\n      dup4\n      add\n        /* \"contracts/modules/SponsorMatrix.sol\":756:40143  contract Nanakshahi {... */\n      mstore\n        /* \"contracts/modules/SponsorMatrix.sol\":32709:32724  block.timestamp */\n      timestamp\n        /* \"contracts/modules/SponsorMatrix.sol\":32554:32790  Income({... */\n      dup7\n      dup4\n      add\n        /* \"contracts/modules/SponsorMatrix.sol\":756:40143  contract Nanakshahi {... */\n      mstore\n        /* \"contracts/modules/SponsorMatrix.sol\":31993:31994  1 */\n      0x01\n        /* \"contracts/modules/SponsorMatrix.sol\":32554:32790  Income({... */\n      0x80\n      dup4\n      add\n        /* \"contracts/modules/SponsorMatrix.sol\":756:40143  contract Nanakshahi {... */\n      mstore\n        /* \"contracts/modules/SponsorMatrix.sol\":32523:32791  incomeHistory[_sponsorId].push(Income({... */\n      tag_28\n      jump\t// in\n    tag_787:\n        /* \"contracts/modules/SponsorMatrix.sol\":756:40143  contract Nanakshahi {... */\n      0x01\n      dup1\n      0xa0\n      shl\n      sub\n      swap1\n      sload\n      and\n      swap4\n        /* \"contracts/modules/SponsorMatrix.sol\":31787:31788  0 */\n      0x00\n        /* \"contracts/modules/SponsorMatrix.sol\":756:40143  contract Nanakshahi {... */\n      mstore\n        /* \"contracts/modules/SponsorMatrix.sol\":31934:31939  users */\n      0x2c\n        /* \"contracts/modules/SponsorMatrix.sol\":756:40143  contract Nanakshahi {... */\n      0x20\n      mstore\n      0x01\n      dup1\n      0xa0\n      shl\n      sub\n      0x40\n        /* \"contracts/modules/SponsorMatrix.sol\":31787:31788  0 */\n      0x00\n        /* \"contracts/modules/SponsorMatrix.sol\":756:40143  contract Nanakshahi {... */\n      keccak256\n      sload\n      and\n      swap5\n      mload(0x40)\n      swap2\n      dup3\n      mstore\n      0x20\n      dup3\n      add\n      mstore\n        /* \"contracts/modules/SponsorMatrix.sol\":31993:31994  1 */\n      0x01\n        /* \"contracts/modules/SponsorMatrix.sol\":756:40143  contract Nanakshahi {... */\n      0x40\n      dup3\n      add\n      mstore\n        /* \"contracts/modules/SponsorMatrix.sol\":32825:32910  IncomeDistributed(sponsor.account, users[_fromId].account, _amount, _packageLevel, 1) */\n      log3\n        /* \"contracts/modules/SponsorMatrix.sol\":31651:32927  function _distributeSponsorIncome(uint _sponsorId, uint _fromId, uint _amount, uint _packageLevel) private {... */\n      jump\t// out\n        /* \"contracts/modules/SponsorMatrix.sol\":32184:32223  usdt.transfer(sponsor.account, _amount) */\n    tag_783:\n      tag_789\n      swap1\n        /* \"contracts/modules/SponsorMatrix.sol\":756:40143  contract Nanakshahi {... */\n      0x20\n        /* \"contracts/modules/SponsorMatrix.sol\":32184:32223  usdt.transfer(sponsor.account, _amount) */\n      returndatasize\n        /* \"contracts/modules/SponsorMatrix.sol\":756:40143  contract Nanakshahi {... */\n      0x20\n        /* \"contracts/modules/SponsorMatrix.sol\":32184:32223  usdt.transfer(sponsor.account, _amount) */\n      gt\n      tag_231\n      jumpi\n      tag_233\n      dup2\n      dup4\n      tag_17\n      jump\t// in\n    tag_789:\n      jump(tag_784)\n        /* \"contracts/modules/SponsorMatrix.sol\":31972:32162  if (_packageLevel != 1)... */\n    tag_778:\n        /* \"contracts/modules/SponsorMatrix.sol\":32044:32045  2 */\n      0x02\n        /* \"contracts/modules/SponsorMatrix.sol\":32023:32041  sponsor.directTeam */\n      0x07\n      dup3\n      add\n        /* \"contracts/modules/SponsorMatrix.sol\":756:40143  contract Nanakshahi {... */\n      sload\n        /* \"contracts/modules/SponsorMatrix.sol\":32023:32045  sponsor.directTeam < 2 */\n      lt\n        /* \"contracts/modules/SponsorMatrix.sol\":32020:32151  if(sponsor.directTeam < 2)... */\n      iszero\n        /* \"contracts/modules/SponsorMatrix.sol\":31972:32162  if (_packageLevel != 1)... */\n      tag_779\n        /* \"contracts/modules/SponsorMatrix.sol\":32020:32151  if(sponsor.directTeam < 2)... */\n      jumpi\n    tag_793:\n        /* \"contracts/modules/SponsorMatrix.sol\":32098:32105  _amount */\n      pop\n      swap2\n      pop\n      pop\n      tag_665\n      swap2\n      pop\n      tag_38\n      jump\t// in\n        /* \"contracts/modules/SponsorMatrix.sol\":31769:31891  if (_sponsorId == 0 || _sponsorId == defaultRefId) {... */\n    tag_776:\n        /* \"contracts/modules/SponsorMatrix.sol\":31850:31857  _amount */\n      swap2\n      pop\n      pop\n      tag_665\n      swap2\n      pop\n      tag_38\n      jump\t// in\n        /* \"contracts/modules/SponsorMatrix.sol\":31773:31818  _sponsorId == 0 || _sponsorId == defaultRefId */\n    tag_774:\n        /* \"contracts/modules/SponsorMatrix.sol\":756:40143  contract Nanakshahi {... */\n      pop\n        /* \"contracts/modules/SponsorMatrix.sol\":31806:31818  defaultRefId */\n      0x05\n        /* \"contracts/modules/SponsorMatrix.sol\":756:40143  contract Nanakshahi {... */\n      sload\n        /* \"contracts/modules/SponsorMatrix.sol\":31792:31818  _sponsorId == defaultRefId */\n      dup3\n      eq\n        /* \"contracts/modules/SponsorMatrix.sol\":31773:31818  _sponsorId == 0 || _sponsorId == defaultRefId */\n      jump(tag_775)\n        /* \"contracts/modules/SponsorMatrix.sol\":756:40143  contract Nanakshahi {... */\n    tag_41:\n      not(0x00)\n      dup2\n      eq\n      tag_199\n      jumpi\n      0x01\n      add\n      swap1\n      jump\t// out\n        /* \"contracts/modules/SponsorMatrix.sol\":32941:35060  function _distributeMatrixIncome(uint _uplineId,uint _fromId,uint _amount, uint _packageLevel) private {... */\n    tag_42:\n      swap4\n      swap2\n      swap4\n      swap3\n      swap1\n      swap3\n        /* \"contracts/modules/SponsorMatrix.sol\":33210:33211  1 */\n      0x01\n        /* \"contracts/modules/SponsorMatrix.sol\":756:40143  contract Nanakshahi {... */\n      swap1\n        /* \"contracts/modules/SponsorMatrix.sol\":33238:33250  defaultRefId */\n      0x05\n        /* \"contracts/modules/SponsorMatrix.sol\":756:40143  contract Nanakshahi {... */\n      sload\n        /* \"contracts/modules/SponsorMatrix.sol\":33225:33250  _uplineId == defaultRefId */\n      dup2\n      eq\n        /* \"contracts/modules/SponsorMatrix.sol\":33225:33268  _uplineId == defaultRefId || _uplineId == 0 */\n      dup1\n      iszero\n      tag_799\n      jumpi\n        /* \"contracts/modules/SponsorMatrix.sol\":32941:35060  function _distributeMatrixIncome(uint _uplineId,uint _fromId,uint _amount, uint _packageLevel) private {... */\n    tag_800:\n        /* \"contracts/modules/SponsorMatrix.sol\":33222:33350  if(_uplineId == defaultRefId || _uplineId == 0)... */\n      tag_811\n      jumpi\n        /* \"contracts/modules/SponsorMatrix.sol\":33397:33740  while(depth < _packageLevel)... */\n      swap1\n        /* \"contracts/modules/SponsorMatrix.sol\":33403:33424  depth < _packageLevel */\n    tag_803:\n      dup3\n      dup2\n      lt\n      tag_804\n      jumpi\n        /* \"contracts/modules/SponsorMatrix.sol\":33750:33776  uint currentId = uplineId_ */\n      pop\n        /* \"contracts/modules/SponsorMatrix.sol\":33787:33796  depth = 0 */\n      swap3\n      0x00\n        /* \"contracts/modules/SponsorMatrix.sol\":33807:34945  while (currentId != 0 && currentId != defaultRefId && depth < maxLayers) {... */\n      swap4\n    tag_806:\n        /* \"contracts/modules/SponsorMatrix.sol\":33814:33828  currentId != 0 */\n      dup1\n      iszero\n      iszero\n        /* \"contracts/modules/SponsorMatrix.sol\":33814:33857  currentId != 0 && currentId != defaultRefId */\n      dup1\n      tag_807\n      jumpi\n        /* \"contracts/modules/SponsorMatrix.sol\":33807:34945  while (currentId != 0 && currentId != defaultRefId && depth < maxLayers) {... */\n    tag_808:\n        /* \"contracts/modules/SponsorMatrix.sol\":33814:33878  currentId != 0 && currentId != defaultRefId && depth < maxLayers */\n      dup1\n      tag_809\n      jumpi\n        /* \"contracts/modules/SponsorMatrix.sol\":33807:34945  while (currentId != 0 && currentId != defaultRefId && depth < maxLayers) {... */\n    tag_810:\n        /* \"contracts/modules/SponsorMatrix.sol\":33814:33878  currentId != 0 && currentId != defaultRefId && depth < maxLayers */\n      iszero\n      tag_811\n      jumpi\n        /* \"contracts/modules/SponsorMatrix.sol\":756:40143  contract Nanakshahi {... */\n      dup1\n      0x00\n      mstore\n        /* \"contracts/modules/SponsorMatrix.sol\":33484:33489  users */\n      0x2c\n        /* \"contracts/modules/SponsorMatrix.sol\":756:40143  contract Nanakshahi {... */\n      0x20\n      mstore\n      keccak256(0x00, 0x40)\n        /* \"contracts/modules/SponsorMatrix.sol\":34027:34035  up.level */\n      swap1\n      dup4\n      0x06\n      dup4\n      add\n        /* \"contracts/modules/SponsorMatrix.sol\":756:40143  contract Nanakshahi {... */\n      sload\n        /* \"contracts/modules/SponsorMatrix.sol\":34027:34052  up.level >= _packageLevel */\n      lt\n      iszero\n        /* \"contracts/modules/SponsorMatrix.sol\":34023:34824  if (up.level >= _packageLevel) // up.directTeam >= 2 && ... */\n      tag_813\n      jumpi\n        /* \"contracts/modules/SponsorMatrix.sol\":34900:34911  up.uplineId */\n      pop\n        /* \"contracts/modules/SponsorMatrix.sol\":33238:33250  defaultRefId */\n      0x05\n        /* \"contracts/modules/SponsorMatrix.sol\":34926:34933  depth++ */\n      tag_815\n        /* \"contracts/modules/SponsorMatrix.sol\":34900:34911  up.uplineId */\n      swap2\n      add\n        /* \"contracts/modules/SponsorMatrix.sol\":756:40143  contract Nanakshahi {... */\n      sload\n        /* \"contracts/modules/SponsorMatrix.sol\":34926:34933  depth++ */\n      swap5\n      tag_41\n      jump\t// in\n    tag_815:\n        /* \"contracts/modules/SponsorMatrix.sol\":33807:34945  while (currentId != 0 && currentId != defaultRefId && depth < maxLayers) {... */\n      swap4\n      jump(tag_806)\n        /* \"contracts/modules/SponsorMatrix.sol\":34023:34824  if (up.level >= _packageLevel) // up.directTeam >= 2 && ... */\n    tag_813:\n      0x00\n        /* \"contracts/modules/SponsorMatrix.sol\":756:40143  contract Nanakshahi {... */\n      dup1\n      sload\n      dup4\n      sload\n      mload(0x40)\n      shl(0xe0, 0xa9059cbb)\n        /* \"contracts/modules/SponsorMatrix.sol\":34173:34207  usdt.transfer(up.account, _amount) */\n      dup2\n      mstore\n      sub(shl(0xa0, 0x01), 0x01)\n        /* \"contracts/modules/SponsorMatrix.sol\":756:40143  contract Nanakshahi {... */\n      swap2\n      dup3\n      and\n        /* \"contracts/modules/SponsorMatrix.sol\":34173:34207  usdt.transfer(up.account, _amount) */\n      0x04\n      dup3\n      add\n        /* \"contracts/modules/SponsorMatrix.sol\":756:40143  contract Nanakshahi {... */\n      mstore\n      0x24\n      dup2\n      add\n      dup12\n      swap1\n      mstore\n      swap8\n      swap10\n      swap7\n      swap9\n      pop\n      swap5\n      swap7\n      swap6\n      swap3\n      swap5\n      swap3\n      swap4\n      swap3\n      0x20\n      swap3\n      dup8\n      swap3\n      0x44\n      swap3\n      dup5\n      swap3\n      swap2\n      and\n        /* \"contracts/modules/SponsorMatrix.sol\":34173:34207  usdt.transfer(up.account, _amount) */\n      gas\n      call\n      swap3\n      dup4\n      iszero\n      tag_164\n      jumpi\n      mload(0x00)\n      codecopy(0x00, data_51678340555b44277c2bba9423d75ebead61331b9cde789c13d0820d4f537e29, 0x20)\n      mload(0x00)\n      swap1\n      0x00\n      mstore\n      swap5\n        /* \"contracts/modules/SponsorMatrix.sol\":34417:34676  Income({... */\n      0x60\n        /* \"contracts/modules/SponsorMatrix.sol\":34173:34207  usdt.transfer(up.account, _amount) */\n      swap5\n      tag_819\n      jumpi\n        /* \"contracts/modules/SponsorMatrix.sol\":34023:34824  if (up.level >= _packageLevel) // up.directTeam >= 2 && ... */\n    tag_820:\n        /* \"contracts/modules/SponsorMatrix.sol\":756:40143  contract Nanakshahi {... */\n      pop\n      dup1\n      0x00\n      mstore\n        /* \"contracts/modules/SponsorMatrix.sol\":34253:34264  userIncomes */\n      0x2d\n        /* \"contracts/modules/SponsorMatrix.sol\":756:40143  contract Nanakshahi {... */\n      0x20\n      mstore\n        /* \"contracts/modules/SponsorMatrix.sol\":34339:34355  inc.matrixIncome */\n      0x02\n        /* \"contracts/modules/SponsorMatrix.sol\":756:40143  contract Nanakshahi {... */\n      keccak256(0x00, 0x40)\n        /* \"contracts/modules/SponsorMatrix.sol\":34294:34320  inc.totalIncome += _amount */\n      tag_821\n        /* \"contracts/modules/SponsorMatrix.sol\":756:40143  contract Nanakshahi {... */\n      dup6\n      dup3\n      sload\n        /* \"contracts/modules/SponsorMatrix.sol\":34294:34320  inc.totalIncome += _amount */\n      tag_14\n      jump\t// in\n    tag_821:\n        /* \"contracts/modules/SponsorMatrix.sol\":756:40143  contract Nanakshahi {... */\n      dup2\n      sstore\n        /* \"contracts/modules/SponsorMatrix.sol\":34339:34355  inc.matrixIncome */\n      add\n        /* \"contracts/modules/SponsorMatrix.sol\":34339:34366  inc.matrixIncome += _amount */\n      tag_822\n        /* \"contracts/modules/SponsorMatrix.sol\":756:40143  contract Nanakshahi {... */\n      dup5\n      dup3\n      sload\n        /* \"contracts/modules/SponsorMatrix.sol\":34339:34366  inc.matrixIncome += _amount */\n      tag_14\n      jump\t// in\n    tag_822:\n        /* \"contracts/modules/SponsorMatrix.sol\":756:40143  contract Nanakshahi {... */\n      swap1\n      sstore\n      0x00\n      mstore\n        /* \"contracts/modules/SponsorMatrix.sol\":34387:34400  incomeHistory */\n      0x2e\n        /* \"contracts/modules/SponsorMatrix.sol\":756:40143  contract Nanakshahi {... */\n      0x20\n      mstore\n        /* \"contracts/modules/SponsorMatrix.sol\":34387:34677  incomeHistory[currentId].push(Income({... */\n      tag_823\n        /* \"contracts/modules/SponsorMatrix.sol\":756:40143  contract Nanakshahi {... */\n      keccak256(0x00, 0x40)\n      mload(0x40)\n      swap1\n      tag_824\n      dup3\n      tag_16\n      jump\t// in\n    tag_824:\n      dup8\n      dup3\n      mstore\n        /* \"contracts/modules/SponsorMatrix.sol\":34417:34676  Income({... */\n      dup5\n        /* \"contracts/modules/SponsorMatrix.sol\":756:40143  contract Nanakshahi {... */\n      0x20\n        /* \"contracts/modules/SponsorMatrix.sol\":34417:34676  Income({... */\n      dup4\n      add\n        /* \"contracts/modules/SponsorMatrix.sol\":756:40143  contract Nanakshahi {... */\n      mstore\n        /* \"contracts/modules/SponsorMatrix.sol\":34417:34676  Income({... */\n      dup9\n        /* \"contracts/modules/SponsorMatrix.sol\":756:40143  contract Nanakshahi {... */\n      0x40\n        /* \"contracts/modules/SponsorMatrix.sol\":34417:34676  Income({... */\n      dup4\n      add\n        /* \"contracts/modules/SponsorMatrix.sol\":756:40143  contract Nanakshahi {... */\n      mstore\n        /* \"contracts/modules/SponsorMatrix.sol\":34588:34603  block.timestamp */\n      timestamp\n        /* \"contracts/modules/SponsorMatrix.sol\":34417:34676  Income({... */\n      dup7\n      dup4\n      add\n        /* \"contracts/modules/SponsorMatrix.sol\":756:40143  contract Nanakshahi {... */\n      mstore\n        /* \"contracts/modules/SponsorMatrix.sol\":34339:34355  inc.matrixIncome */\n      0x02\n        /* \"contracts/modules/SponsorMatrix.sol\":34417:34676  Income({... */\n      0x80\n      dup4\n      add\n        /* \"contracts/modules/SponsorMatrix.sol\":756:40143  contract Nanakshahi {... */\n      mstore\n        /* \"contracts/modules/SponsorMatrix.sol\":34387:34677  incomeHistory[currentId].push(Income({... */\n      tag_28\n      jump\t// in\n    tag_823:\n        /* \"contracts/modules/SponsorMatrix.sol\":756:40143  contract Nanakshahi {... */\n      0x01\n      dup1\n      0xa0\n      shl\n      sub\n      swap1\n      sload\n      and\n      swap4\n      0x00\n      mstore\n        /* \"contracts/modules/SponsorMatrix.sol\":33484:33489  users */\n      0x2c\n        /* \"contracts/modules/SponsorMatrix.sol\":756:40143  contract Nanakshahi {... */\n      0x20\n      mstore\n      0x01\n      dup1\n      0xa0\n      shl\n      sub\n      sload(keccak256(0x00, 0x40))\n      and\n      swap5\n      mload(0x40)\n      swap2\n      dup3\n      mstore\n      0x20\n        /* \"contracts/modules/SponsorMatrix.sol\":1041:1043  15 */\n      dup3\n      add\n        /* \"contracts/modules/SponsorMatrix.sol\":756:40143  contract Nanakshahi {... */\n      mstore\n        /* \"contracts/modules/SponsorMatrix.sol\":34339:34355  inc.matrixIncome */\n      0x02\n        /* \"contracts/modules/SponsorMatrix.sol\":756:40143  contract Nanakshahi {... */\n      0x40\n        /* \"contracts/modules/SponsorMatrix.sol\":1041:1043  15 */\n      dup3\n      add\n        /* \"contracts/modules/SponsorMatrix.sol\":756:40143  contract Nanakshahi {... */\n      mstore\n        /* \"contracts/modules/SponsorMatrix.sol\":34703:34783  IncomeDistributed(up.account, users[_fromId].account, _amount, _packageLevel, 2) */\n      log3\n        /* \"contracts/modules/SponsorMatrix.sol\":34802:34809  return; */\n      jump\t// out\n        /* \"contracts/modules/SponsorMatrix.sol\":34173:34207  usdt.transfer(up.account, _amount) */\n    tag_819:\n      tag_825\n      swap1\n        /* \"contracts/modules/SponsorMatrix.sol\":756:40143  contract Nanakshahi {... */\n      0x20\n        /* \"contracts/modules/SponsorMatrix.sol\":34173:34207  usdt.transfer(up.account, _amount) */\n      returndatasize\n      dup2\n      gt\n      tag_231\n      jumpi\n      tag_233\n      dup2\n      dup4\n      tag_17\n      jump\t// in\n    tag_825:\n      jump(tag_820)\n        /* \"contracts/modules/SponsorMatrix.sol\":33814:33878  currentId != 0 && currentId != defaultRefId && depth < maxLayers */\n    tag_811:\n      pop\n      pop\n      pop\n      swap2\n        /* \"contracts/modules/SponsorMatrix.sol\":35044:35051  _amount */\n      tag_665\n        /* \"contracts/modules/SponsorMatrix.sol\":33814:33878  currentId != 0 && currentId != defaultRefId && depth < maxLayers */\n      swap2\n      pop\n        /* \"contracts/modules/SponsorMatrix.sol\":35044:35051  _amount */\n      tag_38\n      jump\t// in\n        /* \"contracts/modules/SponsorMatrix.sol\":33814:33878  currentId != 0 && currentId != defaultRefId && depth < maxLayers */\n    tag_809:\n        /* \"contracts/modules/SponsorMatrix.sol\":33861:33878  depth < maxLayers */\n      pop\n        /* \"contracts/modules/SponsorMatrix.sol\":1201:1203  15 */\n      0x0f\n        /* \"contracts/modules/SponsorMatrix.sol\":33861:33878  depth < maxLayers */\n      dup6\n      lt\n        /* \"contracts/modules/SponsorMatrix.sol\":33814:33878  currentId != 0 && currentId != defaultRefId && depth < maxLayers */\n      jump(tag_810)\n        /* \"contracts/modules/SponsorMatrix.sol\":33814:33857  currentId != 0 && currentId != defaultRefId */\n    tag_807:\n        /* \"contracts/modules/SponsorMatrix.sol\":756:40143  contract Nanakshahi {... */\n      pop\n        /* \"contracts/modules/SponsorMatrix.sol\":33238:33250  defaultRefId */\n      0x05\n        /* \"contracts/modules/SponsorMatrix.sol\":756:40143  contract Nanakshahi {... */\n      sload\n        /* \"contracts/modules/SponsorMatrix.sol\":33832:33857  currentId != defaultRefId */\n      dup2\n      eq\n      iszero\n        /* \"contracts/modules/SponsorMatrix.sol\":33814:33857  currentId != 0 && currentId != defaultRefId */\n      jump(tag_808)\n        /* \"contracts/modules/SponsorMatrix.sol\":33397:33740  while(depth < _packageLevel)... */\n    tag_804:\n        /* \"contracts/modules/SponsorMatrix.sol\":33450:33457  depth++ */\n      tag_830\n      swap1\n      tag_41\n      jump\t// in\n    tag_830:\n        /* \"contracts/modules/SponsorMatrix.sol\":756:40143  contract Nanakshahi {... */\n      swap1\n      0x00\n      mstore\n        /* \"contracts/modules/SponsorMatrix.sol\":33484:33489  users */\n      0x2c\n        /* \"contracts/modules/SponsorMatrix.sol\":756:40143  contract Nanakshahi {... */\n      0x20\n      mstore\n        /* \"contracts/modules/SponsorMatrix.sol\":33238:33250  defaultRefId */\n      0x05\n        /* \"contracts/modules/SponsorMatrix.sol\":756:40143  contract Nanakshahi {... */\n      keccak256(0x00, 0x40)\n        /* \"contracts/modules/SponsorMatrix.sol\":33484:33509  users[uplineId_].uplineId */\n      add\n        /* \"contracts/modules/SponsorMatrix.sol\":756:40143  contract Nanakshahi {... */\n      sload\n      swap1\n        /* \"contracts/modules/SponsorMatrix.sol\":33238:33250  defaultRefId */\n      0x05\n        /* \"contracts/modules/SponsorMatrix.sol\":756:40143  contract Nanakshahi {... */\n      sload\n        /* \"contracts/modules/SponsorMatrix.sol\":33529:33554  uplineId_ == defaultRefId */\n      dup3\n      eq\n        /* \"contracts/modules/SponsorMatrix.sol\":33529:33572  uplineId_ == defaultRefId || uplineId_ == 0 */\n      dup1\n      iszero\n      tag_831\n      jumpi\n        /* \"contracts/modules/SponsorMatrix.sol\":33397:33740  while(depth < _packageLevel)... */\n    tag_832:\n        /* \"contracts/modules/SponsorMatrix.sol\":33526:33729  if(uplineId_ == defaultRefId || uplineId_ == 0)... */\n      iszero\n        /* \"contracts/modules/SponsorMatrix.sol\":33397:33740  while(depth < _packageLevel)... */\n      tag_803\n        /* \"contracts/modules/SponsorMatrix.sol\":33526:33729  if(uplineId_ == defaultRefId || uplineId_ == 0)... */\n      jumpi\n        /* \"contracts/modules/SponsorMatrix.sol\":33664:33671  _amount */\n      pop\n      pop\n      pop\n      swap2\n      tag_665\n      swap2\n      pop\n      tag_38\n      jump\t// in\n        /* \"contracts/modules/SponsorMatrix.sol\":33529:33572  uplineId_ == defaultRefId || uplineId_ == 0 */\n    tag_831:\n        /* \"contracts/modules/SponsorMatrix.sol\":33558:33572  uplineId_ == 0 */\n      pop\n      dup2\n      iszero\n        /* \"contracts/modules/SponsorMatrix.sol\":33529:33572  uplineId_ == defaultRefId || uplineId_ == 0 */\n      jump(tag_832)\n        /* \"contracts/modules/SponsorMatrix.sol\":33225:33268  _uplineId == defaultRefId || _uplineId == 0 */\n    tag_799:\n        /* \"contracts/modules/SponsorMatrix.sol\":33254:33268  _uplineId == 0 */\n      pop\n      dup1\n      iszero\n        /* \"contracts/modules/SponsorMatrix.sol\":33225:33268  _uplineId == defaultRefId || _uplineId == 0 */\n      jump(tag_800)\n        /* \"contracts/modules/SponsorMatrix.sol\":37032:38887  function _distributeLevelBoosterIncome(... */\n    tag_43:\n      swap4\n      swap2\n      swap1\n      swap3\n      swap4\n        /* \"contracts/modules/SponsorMatrix.sol\":37225:37238  _startId == 0 */\n      dup1\n      iszero\n        /* \"contracts/modules/SponsorMatrix.sol\":37225:37266  _startId == 0 || _startId == defaultRefId */\n      dup1\n      iszero\n      tag_837\n      jumpi\n        /* \"contracts/modules/SponsorMatrix.sol\":37032:38887  function _distributeLevelBoosterIncome(... */\n    tag_838:\n        /* \"contracts/modules/SponsorMatrix.sol\":37221:37339  if (_startId == 0 || _startId == defaultRefId) {... */\n      tag_793\n      jumpi\n        /* \"contracts/modules/SponsorMatrix.sol\":37427:37450  levelsToDistribute == 0 */\n      dup3\n      iszero\n        /* \"contracts/modules/SponsorMatrix.sol\":37423:37523  if (levelsToDistribute == 0) {... */\n      tag_793\n      jumpi\n        /* \"contracts/modules/SponsorMatrix.sol\":37613:37660  _amount - (amountPerLevel * levelsToDistribute) */\n      tag_843\n        /* \"contracts/modules/SponsorMatrix.sol\":37557:37585  _amount / levelsToDistribute */\n      tag_844\n      dup5\n      dup5\n      tag_19\n      jump\t// in\n    tag_844:\n        /* \"contracts/modules/SponsorMatrix.sol\":37624:37659  amountPerLevel * levelsToDistribute */\n      swap3\n      tag_845\n      dup6\n      dup6\n      tag_25\n      jump\t// in\n    tag_845:\n        /* \"contracts/modules/SponsorMatrix.sol\":37613:37660  _amount - (amountPerLevel * levelsToDistribute) */\n      swap1\n      tag_13\n      jump\t// in\n    tag_843:\n        /* \"contracts/modules/SponsorMatrix.sol\":37671:37688  uint spilover = 1 */\n      swap5\n        /* \"contracts/modules/SponsorMatrix.sol\":37687:37688  1 */\n      0x01\n        /* \"contracts/modules/SponsorMatrix.sol\":37699:37725  uint baselineId = _startId */\n      swap2\n        /* \"contracts/modules/SponsorMatrix.sol\":37743:37753  uint i = 0 */\n      swap5\n        /* \"contracts/modules/SponsorMatrix.sol\":37237:37238  0 */\n      0x00\n        /* \"contracts/modules/SponsorMatrix.sol\":37755:37777  i < levelsToDistribute */\n    tag_846:\n      dup6\n      dup2\n      lt\n      tag_847\n      jumpi\n        /* \"contracts/modules/SponsorMatrix.sol\":38813:38826  remainder > 0 */\n      pop\n      pop\n      pop\n      pop\n      pop\n      pop\n      pop\n      dup1\n        /* \"contracts/modules/SponsorMatrix.sol\":38809:38880  if (remainder > 0) {... */\n      tag_739\n      jumpi\n        /* \"contracts/modules/SponsorMatrix.sol\":37032:38887  function _distributeLevelBoosterIncome(... */\n      pop\n      jump\t// out\n        /* \"contracts/modules/SponsorMatrix.sol\":37779:37782  i++ */\n    tag_847:\n        /* \"contracts/modules/SponsorMatrix.sol\":37960:37975  baselineId != 0 */\n      dup7\n      iszero\n      iszero\n        /* \"contracts/modules/SponsorMatrix.sol\":37960:38005  baselineId != 0 && baselineId != defaultRefId */\n      dup1\n      tag_852\n      jumpi\n        /* \"contracts/modules/SponsorMatrix.sol\":37779:37782  i++ */\n    tag_853:\n        /* \"contracts/modules/SponsorMatrix.sol\":37956:38620  if (baselineId != 0 && baselineId != defaultRefId) ... */\n      tag_854\n      jumpi\n        /* \"contracts/modules/SponsorMatrix.sol\":37779:37782  i++ */\n    tag_855:\n        /* \"contracts/modules/SponsorMatrix.sol\":37687:37688  1 */\n      0x01\n        /* \"contracts/modules/SponsorMatrix.sol\":38664:38679  baselineId == 0 */\n      swap1\n      dup8\n      iszero\n        /* \"contracts/modules/SponsorMatrix.sol\":38664:38709  baselineId == 0 || baselineId == defaultRefId */\n      dup1\n      iszero\n      tag_856\n      jumpi\n        /* \"contracts/modules/SponsorMatrix.sol\":37779:37782  i++ */\n    tag_857:\n        /* \"contracts/modules/SponsorMatrix.sol\":38660:38776  if (baselineId == 0 || baselineId == defaultRefId) {... */\n      tag_858\n      jumpi\n        /* \"contracts/modules/SponsorMatrix.sol\":37779:37782  i++ */\n    tag_859:\n        /* \"contracts/modules/SponsorMatrix.sol\":756:40143  contract Nanakshahi {... */\n      add\n        /* \"contracts/modules/SponsorMatrix.sol\":37743:37753  uint i = 0 */\n      jump(tag_846)\n        /* \"contracts/modules/SponsorMatrix.sol\":38660:38776  if (baselineId == 0 || baselineId == defaultRefId) {... */\n    tag_858:\n        /* \"contracts/modules/SponsorMatrix.sol\":38745:38759  amountPerLevel */\n      tag_860\n      dup7\n      tag_38\n      jump\t// in\n    tag_860:\n        /* \"contracts/modules/SponsorMatrix.sol\":38660:38776  if (baselineId == 0 || baselineId == defaultRefId) {... */\n      jump(tag_859)\n        /* \"contracts/modules/SponsorMatrix.sol\":38664:38709  baselineId == 0 || baselineId == defaultRefId */\n    tag_856:\n        /* \"contracts/modules/SponsorMatrix.sol\":756:40143  contract Nanakshahi {... */\n      pop\n        /* \"contracts/modules/SponsorMatrix.sol\":38697:38709  defaultRefId */\n      0x05\n        /* \"contracts/modules/SponsorMatrix.sol\":756:40143  contract Nanakshahi {... */\n      sload\n        /* \"contracts/modules/SponsorMatrix.sol\":38683:38709  baselineId == defaultRefId */\n      dup9\n      eq\n        /* \"contracts/modules/SponsorMatrix.sol\":38664:38709  baselineId == 0 || baselineId == defaultRefId */\n      jump(tag_857)\n        /* \"contracts/modules/SponsorMatrix.sol\":37956:38620  if (baselineId != 0 && baselineId != defaultRefId) ... */\n    tag_854:\n        /* \"contracts/modules/SponsorMatrix.sol\":756:40143  contract Nanakshahi {... */\n      swap3\n      dup7\n        /* \"contracts/modules/SponsorMatrix.sol\":37237:37238  0 */\n      0x00\n        /* \"contracts/modules/SponsorMatrix.sol\":756:40143  contract Nanakshahi {... */\n      swap8\n      swap3\n      swap8\n      mstore\n        /* \"contracts/modules/SponsorMatrix.sol\":38043:38048  users */\n      0x2c\n        /* \"contracts/modules/SponsorMatrix.sol\":756:40143  contract Nanakshahi {... */\n      0x20\n      mstore\n      dup3\n        /* \"contracts/modules/SponsorMatrix.sol\":38043:38066  users[baselineId].level */\n      0x06\n        /* \"contracts/modules/SponsorMatrix.sol\":756:40143  contract Nanakshahi {... */\n      0x40\n        /* \"contracts/modules/SponsorMatrix.sol\":37237:37238  0 */\n      0x00\n        /* \"contracts/modules/SponsorMatrix.sol\":756:40143  contract Nanakshahi {... */\n      keccak256\n        /* \"contracts/modules/SponsorMatrix.sol\":38043:38066  users[baselineId].level */\n      add\n        /* \"contracts/modules/SponsorMatrix.sol\":756:40143  contract Nanakshahi {... */\n      sload\n        /* \"contracts/modules/SponsorMatrix.sol\":38043:38083  users[baselineId].level >= _packageLevel */\n      lt\n      iszero\n        /* \"contracts/modules/SponsorMatrix.sol\":38040:38599  if(users[baselineId].level >= _packageLevel)... */\n      0x00\n        /* \"contracts/modules/SponsorMatrix.sol\":38043:38083  users[baselineId].level >= _packageLevel */\n      eq\n      tag_861\n      jumpi\n        /* \"contracts/modules/SponsorMatrix.sol\":37237:37238  0 */\n      0x00\n        /* \"contracts/modules/SponsorMatrix.sol\":38142:38152  j<spilover */\n    tag_863:\n      dup2\n      dup2\n      lt\n      tag_864\n      jumpi\n        /* \"contracts/modules/SponsorMatrix.sol\":756:40143  contract Nanakshahi {... */\n      pop\n      pop\n        /* \"contracts/modules/SponsorMatrix.sol\":37237:37238  0 */\n      0x00\n        /* \"contracts/modules/SponsorMatrix.sol\":756:40143  contract Nanakshahi {... */\n      mstore\n        /* \"contracts/modules/SponsorMatrix.sol\":38043:38048  users */\n      0x2c\n        /* \"contracts/modules/SponsorMatrix.sol\":756:40143  contract Nanakshahi {... */\n      0x20\n      mstore\n        /* \"contracts/modules/SponsorMatrix.sol\":38362:38388  users[baselineId].uplineId */\n      0x05\n        /* \"contracts/modules/SponsorMatrix.sol\":756:40143  contract Nanakshahi {... */\n      0x40\n        /* \"contracts/modules/SponsorMatrix.sol\":37237:37238  0 */\n      0x00\n        /* \"contracts/modules/SponsorMatrix.sol\":756:40143  contract Nanakshahi {... */\n      keccak256\n        /* \"contracts/modules/SponsorMatrix.sol\":38362:38388  users[baselineId].uplineId */\n      add\n        /* \"contracts/modules/SponsorMatrix.sol\":756:40143  contract Nanakshahi {... */\n      sload\n        /* \"contracts/modules/SponsorMatrix.sol\":38411:38423  spilover = 1 */\n      swap5\n        /* \"contracts/modules/SponsorMatrix.sol\":37687:37688  1 */\n      0x01\n        /* \"contracts/modules/SponsorMatrix.sol\":38411:38423  spilover = 1 */\n      dup1\n        /* \"contracts/modules/SponsorMatrix.sol\":38040:38599  if(users[baselineId].level >= _packageLevel)... */\n      swap4\n    tag_866:\n        /* \"contracts/modules/SponsorMatrix.sol\":37956:38620  if (baselineId != 0 && baselineId != defaultRefId) ... */\n      swap1\n      pop\n      jump(tag_855)\n        /* \"contracts/modules/SponsorMatrix.sol\":38154:38157  j++ */\n    tag_864:\n        /* \"contracts/modules/SponsorMatrix.sol\":37237:37238  0 */\n      0x00\n        /* \"contracts/modules/SponsorMatrix.sol\":756:40143  contract Nanakshahi {... */\n      dup4\n      dup2\n      mstore\n        /* \"contracts/modules/SponsorMatrix.sol\":38043:38048  users */\n      0x2c\n        /* \"contracts/modules/SponsorMatrix.sol\":756:40143  contract Nanakshahi {... */\n      0x20\n      swap1\n      dup2\n      mstore\n      0x40\n      dup1\n      dup4\n      keccak256\n      sload\n      dup4\n      sload\n      swap2\n      mload\n      shl(0xe0, 0xa9059cbb)\n        /* \"contracts/modules/SponsorMatrix.sol\":39105:39130  usdt.transfer(to, amount) */\n      dup2\n      mstore\n      sub(shl(0xa0, 0x01), 0x01)\n        /* \"contracts/modules/SponsorMatrix.sol\":756:40143  contract Nanakshahi {... */\n      swap2\n      dup3\n      and\n        /* \"contracts/modules/SponsorMatrix.sol\":39105:39130  usdt.transfer(to, amount) */\n      0x04\n      dup3\n      add\n        /* \"contracts/modules/SponsorMatrix.sol\":756:40143  contract Nanakshahi {... */\n      dup2\n      swap1\n      mstore\n      0x24\n      dup3\n      add\n      dup13\n      swap1\n      mstore\n      swap1\n      swap6\n      swap5\n      swap1\n      swap4\n      swap3\n      dup7\n      swap3\n      0x44\n      swap3\n      dup5\n      swap3\n        /* \"contracts/modules/SponsorMatrix.sol\":37237:37238  0 */\n      swap1\n      swap2\n        /* \"contracts/modules/SponsorMatrix.sol\":756:40143  contract Nanakshahi {... */\n      and\n        /* \"contracts/modules/SponsorMatrix.sol\":39105:39130  usdt.transfer(to, amount) */\n      gas\n      call\n      swap3\n      dup4\n      iszero\n      tag_164\n      jumpi\n        /* \"contracts/modules/SponsorMatrix.sol\":37687:37688  1 */\n      0x01\n        /* \"contracts/modules/SponsorMatrix.sol\":39105:39130  usdt.transfer(to, amount) */\n      swap4\n      tag_870\n      jumpi\n        /* \"contracts/modules/SponsorMatrix.sol\":38154:38157  j++ */\n    tag_871:\n        /* \"contracts/modules/SponsorMatrix.sol\":756:40143  contract Nanakshahi {... */\n      pop\n      dup5\n        /* \"contracts/modules/SponsorMatrix.sol\":37237:37238  0 */\n      0x00\n        /* \"contracts/modules/SponsorMatrix.sol\":756:40143  contract Nanakshahi {... */\n      mstore\n        /* \"contracts/modules/SponsorMatrix.sol\":39168:39179  userIncomes */\n      0x2d\n        /* \"contracts/modules/SponsorMatrix.sol\":756:40143  contract Nanakshahi {... */\n      0x20\n      mstore\n        /* \"contracts/modules/SponsorMatrix.sol\":39238:39260  inc.levelBoosterIncome */\n      0x03\n        /* \"contracts/modules/SponsorMatrix.sol\":756:40143  contract Nanakshahi {... */\n      0x40\n        /* \"contracts/modules/SponsorMatrix.sol\":37237:37238  0 */\n      0x00\n        /* \"contracts/modules/SponsorMatrix.sol\":756:40143  contract Nanakshahi {... */\n      keccak256\n        /* \"contracts/modules/SponsorMatrix.sol\":39202:39227  inc.totalIncome += amount */\n      tag_872\n        /* \"contracts/modules/SponsorMatrix.sol\":756:40143  contract Nanakshahi {... */\n      dup11\n      dup3\n      sload\n        /* \"contracts/modules/SponsorMatrix.sol\":39202:39227  inc.totalIncome += amount */\n      tag_14\n      jump\t// in\n    tag_872:\n        /* \"contracts/modules/SponsorMatrix.sol\":756:40143  contract Nanakshahi {... */\n      dup2\n      sstore\n        /* \"contracts/modules/SponsorMatrix.sol\":39238:39260  inc.levelBoosterIncome */\n      add\n        /* \"contracts/modules/SponsorMatrix.sol\":39238:39270  inc.levelBoosterIncome += amount */\n      tag_873\n        /* \"contracts/modules/SponsorMatrix.sol\":756:40143  contract Nanakshahi {... */\n      dup10\n      dup3\n      sload\n        /* \"contracts/modules/SponsorMatrix.sol\":39238:39270  inc.levelBoosterIncome += amount */\n      tag_14\n      jump\t// in\n    tag_873:\n        /* \"contracts/modules/SponsorMatrix.sol\":756:40143  contract Nanakshahi {... */\n      swap1\n      sstore\n      dup5\n        /* \"contracts/modules/SponsorMatrix.sol\":37237:37238  0 */\n      0x00\n        /* \"contracts/modules/SponsorMatrix.sol\":756:40143  contract Nanakshahi {... */\n      mstore\n        /* \"contracts/modules/SponsorMatrix.sol\":39283:39296  incomeHistory */\n      0x2e\n        /* \"contracts/modules/SponsorMatrix.sol\":756:40143  contract Nanakshahi {... */\n      0x20\n      mstore\n        /* \"contracts/modules/SponsorMatrix.sol\":39283:39530  incomeHistory[receiverId].push(Income({... */\n      tag_874\n        /* \"contracts/modules/SponsorMatrix.sol\":756:40143  contract Nanakshahi {... */\n      0x40\n        /* \"contracts/modules/SponsorMatrix.sol\":37237:37238  0 */\n      0x00\n        /* \"contracts/modules/SponsorMatrix.sol\":756:40143  contract Nanakshahi {... */\n      keccak256\n      mload(0x40)\n      swap1\n      tag_875\n      dup3\n      tag_16\n      jump\t// in\n    tag_875:\n      dup13\n      dup3\n      mstore\n        /* \"contracts/modules/SponsorMatrix.sol\":39314:39529  Income({... */\n      dup11\n        /* \"contracts/modules/SponsorMatrix.sol\":756:40143  contract Nanakshahi {... */\n      0x20\n        /* \"contracts/modules/SponsorMatrix.sol\":39314:39529  Income({... */\n      dup4\n      add\n        /* \"contracts/modules/SponsorMatrix.sol\":756:40143  contract Nanakshahi {... */\n      mstore\n        /* \"contracts/modules/SponsorMatrix.sol\":39314:39529  Income({... */\n      dup9\n        /* \"contracts/modules/SponsorMatrix.sol\":756:40143  contract Nanakshahi {... */\n      0x40\n        /* \"contracts/modules/SponsorMatrix.sol\":39314:39529  Income({... */\n      dup4\n      add\n        /* \"contracts/modules/SponsorMatrix.sol\":756:40143  contract Nanakshahi {... */\n      mstore\n        /* \"contracts/modules/SponsorMatrix.sol\":39450:39465  block.timestamp */\n      timestamp\n        /* \"contracts/modules/SponsorMatrix.sol\":39314:39529  Income({... */\n      0x60\n      dup4\n      add\n        /* \"contracts/modules/SponsorMatrix.sol\":756:40143  contract Nanakshahi {... */\n      mstore\n        /* \"contracts/modules/SponsorMatrix.sol\":39105:39130  usdt.transfer(to, amount) */\n      0x04\n        /* \"contracts/modules/SponsorMatrix.sol\":39314:39529  Income({... */\n      0x80\n      dup4\n      add\n        /* \"contracts/modules/SponsorMatrix.sol\":756:40143  contract Nanakshahi {... */\n      mstore\n        /* \"contracts/modules/SponsorMatrix.sol\":39283:39530  incomeHistory[receiverId].push(Income({... */\n      tag_28\n      jump\t// in\n    tag_874:\n        /* \"contracts/modules/SponsorMatrix.sol\":756:40143  contract Nanakshahi {... */\n      dup10\n        /* \"contracts/modules/SponsorMatrix.sol\":37237:37238  0 */\n      0x00\n        /* \"contracts/modules/SponsorMatrix.sol\":756:40143  contract Nanakshahi {... */\n      mstore\n        /* \"contracts/modules/SponsorMatrix.sol\":38043:38048  users */\n      0x2c\n        /* \"contracts/modules/SponsorMatrix.sol\":756:40143  contract Nanakshahi {... */\n      0x20\n      mstore\n      dup3\n      dup1\n      0xa0\n      shl\n      sub\n      0x40\n        /* \"contracts/modules/SponsorMatrix.sol\":37237:37238  0 */\n      0x00\n        /* \"contracts/modules/SponsorMatrix.sol\":756:40143  contract Nanakshahi {... */\n      keccak256\n      sload\n      and\n      swap1\n      mload(0x00)\n      codecopy(0x00, data_51678340555b44277c2bba9423d75ebead61331b9cde789c13d0820d4f537e29, 0x20)\n      mload(0x00)\n      swap1\n      0x00\n      mstore\n        /* \"contracts/modules/SponsorMatrix.sol\":39314:39529  Income({... */\n      0x60\n        /* \"contracts/modules/SponsorMatrix.sol\":756:40143  contract Nanakshahi {... */\n      mload(0x40)\n      dup12\n      dup2\n      mstore\n      dup10\n      0x20\n      dup3\n      add\n      mstore\n        /* \"contracts/modules/SponsorMatrix.sol\":39105:39130  usdt.transfer(to, amount) */\n      0x04\n        /* \"contracts/modules/SponsorMatrix.sol\":756:40143  contract Nanakshahi {... */\n      0x40\n      dup3\n      add\n      mstore\n        /* \"contracts/modules/SponsorMatrix.sol\":39548:39617  IncomeDistributed(to, users[fromId].account, amount, packageLevel, 4) */\n      log3\n        /* \"contracts/modules/SponsorMatrix.sol\":756:40143  contract Nanakshahi {... */\n      add\n        /* \"contracts/modules/SponsorMatrix.sol\":38132:38140  uint j=0 */\n      jump(tag_863)\n        /* \"contracts/modules/SponsorMatrix.sol\":39105:39130  usdt.transfer(to, amount) */\n    tag_870:\n      tag_876\n      swap1\n        /* \"contracts/modules/SponsorMatrix.sol\":756:40143  contract Nanakshahi {... */\n      0x20\n        /* \"contracts/modules/SponsorMatrix.sol\":39105:39130  usdt.transfer(to, amount) */\n      returndatasize\n      dup2\n      gt\n      tag_231\n      jumpi\n      tag_233\n      dup2\n      dup4\n      tag_17\n      jump\t// in\n    tag_876:\n      jump(tag_871)\n        /* \"contracts/modules/SponsorMatrix.sol\":38040:38599  if(users[baselineId].level >= _packageLevel)... */\n    tag_861:\n        /* \"contracts/modules/SponsorMatrix.sol\":756:40143  contract Nanakshahi {... */\n      swap6\n      swap1\n        /* \"contracts/modules/SponsorMatrix.sol\":37237:37238  0 */\n      0x00\n        /* \"contracts/modules/SponsorMatrix.sol\":756:40143  contract Nanakshahi {... */\n      mstore\n        /* \"contracts/modules/SponsorMatrix.sol\":38043:38048  users */\n      0x2c\n        /* \"contracts/modules/SponsorMatrix.sol\":756:40143  contract Nanakshahi {... */\n      0x20\n      mstore\n        /* \"contracts/modules/SponsorMatrix.sol\":37687:37688  1 */\n      0x01\n        /* \"contracts/modules/SponsorMatrix.sol\":38569:38579  spilover++ */\n      tag_880\n        /* \"contracts/modules/SponsorMatrix.sol\":38520:38546  users[baselineId].uplineId */\n      0x05\n        /* \"contracts/modules/SponsorMatrix.sol\":756:40143  contract Nanakshahi {... */\n      0x40\n        /* \"contracts/modules/SponsorMatrix.sol\":37237:37238  0 */\n      0x00\n        /* \"contracts/modules/SponsorMatrix.sol\":756:40143  contract Nanakshahi {... */\n      keccak256\n        /* \"contracts/modules/SponsorMatrix.sol\":38520:38546  users[baselineId].uplineId */\n      add\n        /* \"contracts/modules/SponsorMatrix.sol\":756:40143  contract Nanakshahi {... */\n      sload\n        /* \"contracts/modules/SponsorMatrix.sol\":38569:38579  spilover++ */\n      swap8\n      tag_41\n      jump\t// in\n    tag_880:\n        /* \"contracts/modules/SponsorMatrix.sol\":38040:38599  if(users[baselineId].level >= _packageLevel)... */\n      swap4\n      jump(tag_866)\n        /* \"contracts/modules/SponsorMatrix.sol\":37960:38005  baselineId != 0 && baselineId != defaultRefId */\n    tag_852:\n        /* \"contracts/modules/SponsorMatrix.sol\":756:40143  contract Nanakshahi {... */\n      pop\n        /* \"contracts/modules/SponsorMatrix.sol\":37993:38005  defaultRefId */\n      0x05\n        /* \"contracts/modules/SponsorMatrix.sol\":756:40143  contract Nanakshahi {... */\n      sload\n        /* \"contracts/modules/SponsorMatrix.sol\":37979:38005  baselineId != defaultRefId */\n      dup8\n      eq\n      iszero\n        /* \"contracts/modules/SponsorMatrix.sol\":37960:38005  baselineId != 0 && baselineId != defaultRefId */\n      jump(tag_853)\n        /* \"contracts/modules/SponsorMatrix.sol\":37225:37266  _startId == 0 || _startId == defaultRefId */\n    tag_837:\n        /* \"contracts/modules/SponsorMatrix.sol\":756:40143  contract Nanakshahi {... */\n      pop\n        /* \"contracts/modules/SponsorMatrix.sol\":37254:37266  defaultRefId */\n      0x05\n        /* \"contracts/modules/SponsorMatrix.sol\":756:40143  contract Nanakshahi {... */\n      sload\n        /* \"contracts/modules/SponsorMatrix.sol\":37242:37266  _startId == defaultRefId */\n      dup2\n      eq\n        /* \"contracts/modules/SponsorMatrix.sol\":37225:37266  _startId == 0 || _startId == defaultRefId */\n      jump(tag_838)\n        /* \"contracts/modules/SponsorMatrix.sol\":17024:18503  function _placeInBooster(uint256 poolId, uint userMainId, uint packagePrice) private {... */\n    tag_44:\n        /* \"contracts/modules/SponsorMatrix.sol\":17120:17174  require(poolId < GlbBoosterPackages.length, \"Invalid\") */\n      tag_883\n        /* \"contracts/modules/SponsorMatrix.sol\":17137:17155  GlbBoosterPackages */\n      0x09\n        /* \"contracts/modules/SponsorMatrix.sol\":756:40143  contract Nanakshahi {... */\n      sload\n        /* \"contracts/modules/SponsorMatrix.sol\":17128:17162  poolId < GlbBoosterPackages.length */\n      dup3\n      lt\n        /* \"contracts/modules/SponsorMatrix.sol\":17120:17174  require(poolId < GlbBoosterPackages.length, \"Invalid\") */\n      tag_32\n      jump\t// in\n    tag_883:\n        /* \"contracts/modules/SponsorMatrix.sol\":17185:17253  require(msg.value == GlbBoosterPackages[poolId], \"Incorrect amount\") */\n      tag_884\n        /* \"contracts/modules/SponsorMatrix.sol\":17206:17232  GlbBoosterPackages[poolId] */\n      tag_707\n      dup3\n      tag_4\n      jump\t// in\n        /* \"contracts/modules/SponsorMatrix.sol\":17185:17253  require(msg.value == GlbBoosterPackages[poolId], \"Incorrect amount\") */\n    tag_884:\n        /* \"contracts/modules/SponsorMatrix.sol\":756:40143  contract Nanakshahi {... */\n      dup1\n      0x00\n      mstore\n        /* \"contracts/modules/SponsorMatrix.sol\":17292:17304  boosterUsers */\n      0x29\n        /* \"contracts/modules/SponsorMatrix.sol\":756:40143  contract Nanakshahi {... */\n      0x20\n      mstore\n      keccak256(0x00, 0x40)\n      mload(0x40)\n      dup1\n      dup3\n      0x20\n      dup3\n      swap5\n      sload\n      swap4\n      dup5\n      dup2\n      mstore\n      add\n      swap1\n      0x00\n      mstore\n      keccak256(0x00, 0x20)\n      swap3\n      0x00\n    tag_886:\n      dup2\n      dup2\n      lt\n      tag_887\n      jumpi\n      pop\n      pop\n      tag_889\n      swap3\n      pop\n      sub\n      dup3\n      tag_17\n      jump\t// in\n    tag_889:\n      dup1\n      mload\n      swap1\n      dup3\n      0x00\n      mstore\n        /* \"contracts/modules/SponsorMatrix.sol\":17292:17304  boosterUsers */\n      0x29\n        /* \"contracts/modules/SponsorMatrix.sol\":756:40143  contract Nanakshahi {... */\n      0x20\n      mstore\n        /* \"contracts/modules/SponsorMatrix.sol\":17484:17521  boosterUsers[poolId].push(userMainId) */\n      tag_890\n        /* \"contracts/modules/SponsorMatrix.sol\":756:40143  contract Nanakshahi {... */\n      dup5\n      keccak256(0x00, 0x40)\n        /* \"contracts/modules/SponsorMatrix.sol\":17484:17521  boosterUsers[poolId].push(userMainId) */\n      tag_31\n      jump\t// in\n    tag_890:\n      not(0x00)\n        /* \"contracts/modules/SponsorMatrix.sol\":756:40143  contract Nanakshahi {... */\n      dup3\n      add\n      swap2\n      dup3\n      gt\n      tag_199\n      jumpi\n      0x03\n        /* \"contracts/modules/SponsorMatrix.sol\":17626:17647  usersLen[parentIndex] */\n      tag_893\n        /* \"contracts/modules/SponsorMatrix.sol\":756:40143  contract Nanakshahi {... */\n      swap3\n      div\n        /* \"contracts/modules/SponsorMatrix.sol\":17626:17647  usersLen[parentIndex] */\n      swap1\n      tag_34\n      jump\t// in\n    tag_893:\n        /* \"contracts/modules/SponsorMatrix.sol\":756:40143  contract Nanakshahi {... */\n      mload\n      swap1\n      mload(0x40)\n      tag_894\n      dup2\n      tag_15\n      jump\t// in\n    tag_894:\n      dup4\n      dup2\n      mstore\n      0x03\n      0x20\n        /* \"contracts/modules/SponsorMatrix.sol\":17697:17875  UserBooster({... */\n      dup3\n      add\n        /* \"contracts/modules/SponsorMatrix.sol\":756:40143  contract Nanakshahi {... */\n      dup4\n      dup2\n      mstore\n      0x40\n        /* \"contracts/modules/SponsorMatrix.sol\":17697:17875  UserBooster({... */\n      dup4\n      add\n        /* \"contracts/modules/SponsorMatrix.sol\":756:40143  contract Nanakshahi {... */\n      dup6\n      dup2\n      mstore\n        /* \"contracts/modules/SponsorMatrix.sol\":17697:17875  UserBooster({... */\n      0x60\n      dup5\n      add\n        /* \"contracts/modules/SponsorMatrix.sol\":756:40143  contract Nanakshahi {... */\n      swap2\n      0x00\n      dup4\n      mstore\n      dup6\n      0x00\n      mstore\n        /* \"contracts/modules/SponsorMatrix.sol\":17660:17674  userBoosterdtl */\n      0x27\n        /* \"contracts/modules/SponsorMatrix.sol\":756:40143  contract Nanakshahi {... */\n      0x20\n      mstore\n      keccak256(0x00, 0x40)\n      dup9\n      0x00\n      mstore\n      0x20\n      mstore\n      keccak256(0x00, 0x40)\n      swap5\n      mload\n      dup6\n      sstore\n      mload\n      0x01\n      dup6\n      add\n      sstore\n      mload\n      0x02\n      dup5\n      add\n      sstore\n      mload\n      swap2\n      add\n      sstore\n      dup1\n      0x00\n      mstore\n        /* \"contracts/modules/SponsorMatrix.sol\":17886:17905  userBoosterChildren */\n      0x28\n        /* \"contracts/modules/SponsorMatrix.sol\":756:40143  contract Nanakshahi {... */\n      0x20\n      mstore\n      keccak256(0x00, 0x40)\n      dup3\n      0x00\n      mstore\n      0x20\n      mstore\n        /* \"contracts/modules/SponsorMatrix.sol\":17886:17940  userBoosterChildren[poolId][parentId].push(userMainId) */\n      tag_895\n        /* \"contracts/modules/SponsorMatrix.sol\":756:40143  contract Nanakshahi {... */\n      dup4\n      keccak256(0x00, 0x40)\n        /* \"contracts/modules/SponsorMatrix.sol\":17886:17940  userBoosterChildren[poolId][parentId].push(userMainId) */\n      tag_31\n      jump\t// in\n    tag_895:\n        /* \"contracts/modules/SponsorMatrix.sol\":17957:17970  parentId == 0 */\n      dup2\n      iszero\n        /* \"contracts/modules/SponsorMatrix.sol\":17957:17998  parentId == 0 || parentId == defaultRefId */\n      dup1\n      iszero\n      tag_896\n      jumpi\n        /* \"contracts/modules/SponsorMatrix.sol\":756:40143  contract Nanakshahi {... */\n    tag_897:\n        /* \"contracts/modules/SponsorMatrix.sol\":17953:18076  if (parentId == 0 || parentId == defaultRefId) {... */\n      tag_900\n      jumpi\n      0x00\n        /* \"contracts/modules/SponsorMatrix.sol\":756:40143  contract Nanakshahi {... */\n      mstore\n        /* \"contracts/modules/SponsorMatrix.sol\":17660:17674  userBoosterdtl */\n      0x27\n        /* \"contracts/modules/SponsorMatrix.sol\":756:40143  contract Nanakshahi {... */\n      0x20\n      mstore\n      keccak256(0x00, 0x40)\n      dup2\n      0x00\n      mstore\n      0x20\n      mstore\n      0x03\n      keccak256(0x00, 0x40)\n        /* \"contracts/modules/SponsorMatrix.sol\":18163:18179  userB.bonusCount */\n      add\n        /* \"contracts/modules/SponsorMatrix.sol\":756:40143  contract Nanakshahi {... */\n      0x03\n      dup2\n      sload\n        /* \"contracts/modules/SponsorMatrix.sol\":18163:18181  userB.bonusCount<3 */\n      lt\n        /* \"contracts/modules/SponsorMatrix.sol\":18159:18404  if( userB.bonusCount<3)... */\n      0x00\n        /* \"contracts/modules/SponsorMatrix.sol\":756:40143  contract Nanakshahi {... */\n      eq\n      tag_900\n      jumpi\n      dup1\n      sload\n      swap1\n      0x01\n      dup3\n      add\n      dup1\n      swap3\n      gt\n      tag_199\n      jumpi\n      sstore\n      dup1\n      0x00\n      mstore\n        /* \"contracts/modules/SponsorMatrix.sol\":21329:21340  userIncomes */\n      0x2d\n        /* \"contracts/modules/SponsorMatrix.sol\":756:40143  contract Nanakshahi {... */\n      0x20\n      mstore\n        /* \"contracts/modules/SponsorMatrix.sol\":17137:17155  GlbBoosterPackages */\n      0x09\n        /* \"contracts/modules/SponsorMatrix.sol\":756:40143  contract Nanakshahi {... */\n      keccak256(0x00, 0x40)\n        /* \"contracts/modules/SponsorMatrix.sol\":21363:21388  inc.totalIncome += amount */\n      tag_904\n        /* \"contracts/modules/SponsorMatrix.sol\":756:40143  contract Nanakshahi {... */\n      dup6\n      dup3\n      sload\n        /* \"contracts/modules/SponsorMatrix.sol\":21363:21388  inc.totalIncome += amount */\n      tag_14\n      jump\t// in\n    tag_904:\n        /* \"contracts/modules/SponsorMatrix.sol\":756:40143  contract Nanakshahi {... */\n      dup2\n      sstore\n        /* \"contracts/modules/SponsorMatrix.sol\":21519:21536  inc.boosterIncome */\n      add\n        /* \"contracts/modules/SponsorMatrix.sol\":21519:21546  inc.boosterIncome += amount */\n      tag_905\n        /* \"contracts/modules/SponsorMatrix.sol\":756:40143  contract Nanakshahi {... */\n      dup5\n      dup3\n      sload\n        /* \"contracts/modules/SponsorMatrix.sol\":21519:21546  inc.boosterIncome += amount */\n      tag_14\n      jump\t// in\n    tag_905:\n        /* \"contracts/modules/SponsorMatrix.sol\":756:40143  contract Nanakshahi {... */\n      swap1\n      sstore\n      dup1\n      0x00\n      mstore\n        /* \"contracts/modules/SponsorMatrix.sol\":21589:21602  incomeHistory */\n      0x2e\n        /* \"contracts/modules/SponsorMatrix.sol\":756:40143  contract Nanakshahi {... */\n      0x20\n      mstore\n        /* \"contracts/modules/SponsorMatrix.sol\":21589:21846  incomeHistory[receiverId].push(Income({... */\n      tag_906\n        /* \"contracts/modules/SponsorMatrix.sol\":756:40143  contract Nanakshahi {... */\n      keccak256(0x00, 0x40)\n      mload(0x40)\n      swap1\n      tag_907\n      dup3\n      tag_16\n      jump\t// in\n    tag_907:\n      dup5\n      dup3\n      mstore\n        /* \"contracts/modules/SponsorMatrix.sol\":21620:21845  Income({... */\n      dup6\n        /* \"contracts/modules/SponsorMatrix.sol\":756:40143  contract Nanakshahi {... */\n      0x20\n        /* \"contracts/modules/SponsorMatrix.sol\":21620:21845  Income({... */\n      dup4\n      add\n        /* \"contracts/modules/SponsorMatrix.sol\":756:40143  contract Nanakshahi {... */\n      mstore\n      0x01\n      0x40\n        /* \"contracts/modules/SponsorMatrix.sol\":21620:21845  Income({... */\n      dup4\n      add\n        /* \"contracts/modules/SponsorMatrix.sol\":756:40143  contract Nanakshahi {... */\n      mstore\n        /* \"contracts/modules/SponsorMatrix.sol\":21756:21771  block.timestamp */\n      timestamp\n        /* \"contracts/modules/SponsorMatrix.sol\":17697:17875  UserBooster({... */\n      0x60\n        /* \"contracts/modules/SponsorMatrix.sol\":21620:21845  Income({... */\n      dup4\n      add\n        /* \"contracts/modules/SponsorMatrix.sol\":756:40143  contract Nanakshahi {... */\n      mstore\n        /* \"contracts/modules/SponsorMatrix.sol\":18297:18299  11 */\n      0x0b\n        /* \"contracts/modules/SponsorMatrix.sol\":21620:21845  Income({... */\n      0x80\n      dup4\n      add\n        /* \"contracts/modules/SponsorMatrix.sol\":756:40143  contract Nanakshahi {... */\n      mstore\n        /* \"contracts/modules/SponsorMatrix.sol\":21589:21846  incomeHistory[receiverId].push(Income({... */\n      tag_28\n      jump\t// in\n    tag_906:\n      0x00\n        /* \"contracts/modules/SponsorMatrix.sol\":756:40143  contract Nanakshahi {... */\n      swap1\n      dup2\n      mstore\n        /* \"contracts/modules/SponsorMatrix.sol\":21872:21877  users */\n      0x2c\n        /* \"contracts/modules/SponsorMatrix.sol\":756:40143  contract Nanakshahi {... */\n      0x20\n      mstore\n      0x40\n      swap1\n      keccak256\n      sload\n      sub(shl(0xa0, 0x01), 0x01)\n      and\n      swap1\n      dup3\n      iszero\n        /* \"contracts/modules/SponsorMatrix.sol\":21934:21936  95 */\n      0x5f\n        /* \"contracts/modules/SponsorMatrix.sol\":756:40143  contract Nanakshahi {... */\n      dup5\n      dup2\n      mul\n      swap1\n      dup6\n      dup3\n      div\n      eq\n      dup3\n      or\n      iszero\n      tag_199\n      jumpi\n      0x00\n      dup1\n      sload\n      mload(0x40)\n      shl(0xe0, 0xa9059cbb)\n        /* \"contracts/modules/SponsorMatrix.sol\":21953:21981  usdt.transfer(to, netamount) */\n      dup2\n      mstore\n      sub(shl(0xa0, 0x01), 0x01)\n        /* \"contracts/modules/SponsorMatrix.sol\":756:40143  contract Nanakshahi {... */\n      dup8\n      dup2\n      and\n        /* \"contracts/modules/SponsorMatrix.sol\":21953:21981  usdt.transfer(to, netamount) */\n      0x04\n      dup4\n      add\n        /* \"contracts/modules/SponsorMatrix.sol\":756:40143  contract Nanakshahi {... */\n      mstore\n        /* \"contracts/modules/SponsorMatrix.sol\":21939:21942  100 */\n      0x64\n        /* \"contracts/modules/SponsorMatrix.sol\":756:40143  contract Nanakshahi {... */\n      swap1\n      swap5\n      div\n      0x24\n      dup3\n      add\n      mstore\n      swap3\n      0x20\n      swap3\n      dup5\n      swap3\n      0x44\n      swap3\n      dup5\n      swap3\n      swap2\n      and\n        /* \"contracts/modules/SponsorMatrix.sol\":21953:21981  usdt.transfer(to, netamount) */\n      gas\n      call\n      dup1\n      iszero\n      tag_164\n      jumpi\n      tag_913\n      jumpi\n        /* \"contracts/modules/SponsorMatrix.sol\":18159:18404  if( userB.bonusCount<3)... */\n    tag_914:\n        /* \"contracts/modules/SponsorMatrix.sol\":756:40143  contract Nanakshahi {... */\n      pop\n        /* \"contracts/modules/SponsorMatrix.sol\":22015:22016  5 */\n      0x05\n        /* \"contracts/modules/SponsorMatrix.sol\":756:40143  contract Nanakshahi {... */\n      dup5\n      mul\n      swap1\n      dup5\n      dup3\n      div\n        /* \"contracts/modules/SponsorMatrix.sol\":22015:22016  5 */\n      0x05\n        /* \"contracts/modules/SponsorMatrix.sol\":756:40143  contract Nanakshahi {... */\n      eq\n      or\n      iszero\n      tag_199\n      jumpi\n        /* \"contracts/modules/SponsorMatrix.sol\":21939:21942  100 */\n      0x64\n        /* \"contracts/modules/SponsorMatrix.sol\":22007:22023  (amount*5) / 100 */\n      tag_917\n        /* \"contracts/modules/SponsorMatrix.sol\":756:40143  contract Nanakshahi {... */\n      swap2\n      div\n        /* \"contracts/modules/SponsorMatrix.sol\":22007:22023  (amount*5) / 100 */\n      tag_38\n      jump\t// in\n    tag_917:\n      0x00\n        /* \"contracts/modules/SponsorMatrix.sol\":756:40143  contract Nanakshahi {... */\n      mstore\n        /* \"contracts/modules/SponsorMatrix.sol\":21872:21877  users */\n      0x2c\n        /* \"contracts/modules/SponsorMatrix.sol\":756:40143  contract Nanakshahi {... */\n      0x20\n      mstore\n      mload(0x00)\n      codecopy(0x00, data_51678340555b44277c2bba9423d75ebead61331b9cde789c13d0820d4f537e29, 0x20)\n      mload(0x00)\n      swap1\n      0x00\n      mstore\n        /* \"contracts/modules/SponsorMatrix.sol\":17697:17875  UserBooster({... */\n      0x60\n        /* \"contracts/modules/SponsorMatrix.sol\":756:40143  contract Nanakshahi {... */\n      0x01\n      dup1\n      0xa0\n      shl\n      sub\n      sload(keccak256(0x00, 0x40))\n      and\n      swap4\n      mload(0x40)\n      swap1\n      dup2\n      mstore\n      0x01\n      0x20\n      dup3\n      add\n      mstore\n        /* \"contracts/modules/SponsorMatrix.sol\":18297:18299  11 */\n      0x0b\n        /* \"contracts/modules/SponsorMatrix.sol\":756:40143  contract Nanakshahi {... */\n      0x40\n      dup3\n      add\n      mstore\n        /* \"contracts/modules/SponsorMatrix.sol\":22042:22121  IncomeDistributed(to, users[fromId].account, amount, packageLevel, _incomeType) */\n      log3\n        /* \"contracts/modules/SponsorMatrix.sol\":17024:18503  function _placeInBooster(uint256 poolId, uint userMainId, uint packagePrice) private {... */\n      jump\t// out\n        /* \"contracts/modules/SponsorMatrix.sol\":21953:21981  usdt.transfer(to, netamount) */\n    tag_913:\n      tag_918\n      swap1\n        /* \"contracts/modules/SponsorMatrix.sol\":756:40143  contract Nanakshahi {... */\n      0x20\n        /* \"contracts/modules/SponsorMatrix.sol\":21953:21981  usdt.transfer(to, netamount) */\n      returndatasize\n        /* \"contracts/modules/SponsorMatrix.sol\":756:40143  contract Nanakshahi {... */\n      0x20\n        /* \"contracts/modules/SponsorMatrix.sol\":21953:21981  usdt.transfer(to, netamount) */\n      gt\n      tag_231\n      jumpi\n      tag_233\n      dup2\n      dup4\n      tag_17\n      jump\t// in\n    tag_918:\n      jump(tag_914)\n        /* \"contracts/modules/SponsorMatrix.sol\":18159:18404  if( userB.bonusCount<3)... */\n    tag_900:\n        /* \"contracts/modules/SponsorMatrix.sol\":18358:18370  packagePrice */\n      pop\n      pop\n      pop\n      tag_665\n      swap1\n      tag_38\n      jump\t// in\n        /* \"contracts/modules/SponsorMatrix.sol\":17957:17998  parentId == 0 || parentId == defaultRefId */\n    tag_896:\n        /* \"contracts/modules/SponsorMatrix.sol\":756:40143  contract Nanakshahi {... */\n      pop\n        /* \"contracts/modules/SponsorMatrix.sol\":17986:17998  defaultRefId */\n      0x05\n        /* \"contracts/modules/SponsorMatrix.sol\":756:40143  contract Nanakshahi {... */\n      sload\n        /* \"contracts/modules/SponsorMatrix.sol\":17974:17998  parentId == defaultRefId */\n      dup3\n      eq\n        /* \"contracts/modules/SponsorMatrix.sol\":17957:17998  parentId == 0 || parentId == defaultRefId */\n      jump(tag_897)\n        /* \"contracts/modules/SponsorMatrix.sol\":756:40143  contract Nanakshahi {... */\n    tag_887:\n      dup5\n      sload\n      dup4\n      mstore\n      0x01\n      swap5\n      dup6\n      add\n      swap5\n      dup7\n      swap5\n      pop\n      0x20\n      swap1\n      swap4\n      add\n      swap3\n      add\n      jump(tag_886)\n        /* \"contracts/modules/SponsorMatrix.sol\":19815:21108  function _distributePoolIncome( uint _parentId, uint _poolId, uint _userMainId, uint _amount) private {... */\n    tag_45:\n      swap2\n      swap3\n        /* \"contracts/modules/SponsorMatrix.sol\":19934:19948  _parentId == 0 */\n      dup3\n      iszero\n        /* \"contracts/modules/SponsorMatrix.sol\":19934:19977  _parentId == 0 || _parentId == defaultRefId */\n      dup1\n      iszero\n      tag_924\n      jumpi\n        /* \"contracts/modules/SponsorMatrix.sol\":19815:21108  function _distributePoolIncome( uint _parentId, uint _poolId, uint _userMainId, uint _amount) private {... */\n    tag_925:\n        /* \"contracts/modules/SponsorMatrix.sol\":19930:20050  if (_parentId == 0 || _parentId == defaultRefId) {... */\n      tag_776\n      jumpi\n        /* \"contracts/modules/SponsorMatrix.sol\":20101:20102  3 */\n      0x03\n        /* \"contracts/modules/SponsorMatrix.sol\":756:40143  contract Nanakshahi {... */\n      swap1\n      div\n        /* \"contracts/modules/SponsorMatrix.sol\":20121:20129  uint i=0 */\n      swap1\n        /* \"contracts/modules/SponsorMatrix.sol\":19947:19948  0 */\n      0x00\n        /* \"contracts/modules/SponsorMatrix.sol\":20131:20134  i<3 */\n    tag_928:\n        /* \"contracts/modules/SponsorMatrix.sol\":20101:20102  3 */\n      0x03\n        /* \"contracts/modules/SponsorMatrix.sol\":20131:20134  i<3 */\n      dup2\n      lt\n      tag_929\n      jumpi\n        /* \"contracts/modules/SponsorMatrix.sol\":19815:21108  function _distributePoolIncome( uint _parentId, uint _poolId, uint _userMainId, uint _amount) private {... */\n      pop\n      pop\n      pop\n      pop\n      pop\n      jump\t// out\n        /* \"contracts/modules/SponsorMatrix.sol\":20136:20139  i++ */\n    tag_929:\n        /* \"contracts/modules/SponsorMatrix.sol\":756:40143  contract Nanakshahi {... */\n      dup2\n        /* \"contracts/modules/SponsorMatrix.sol\":19947:19948  0 */\n      0x00\n        /* \"contracts/modules/SponsorMatrix.sol\":756:40143  contract Nanakshahi {... */\n      mstore\n        /* \"contracts/modules/SponsorMatrix.sol\":20193:20204  userPooldtl */\n      0x22\n        /* \"contracts/modules/SponsorMatrix.sol\":756:40143  contract Nanakshahi {... */\n      0x20\n      mstore\n      0x40\n        /* \"contracts/modules/SponsorMatrix.sol\":19947:19948  0 */\n      0x00\n        /* \"contracts/modules/SponsorMatrix.sol\":756:40143  contract Nanakshahi {... */\n      keccak256\n      dup5\n        /* \"contracts/modules/SponsorMatrix.sol\":19947:19948  0 */\n      0x00\n        /* \"contracts/modules/SponsorMatrix.sol\":756:40143  contract Nanakshahi {... */\n      mstore\n      0x20\n      mstore\n      0x40\n        /* \"contracts/modules/SponsorMatrix.sol\":19947:19948  0 */\n      0x00\n        /* \"contracts/modules/SponsorMatrix.sol\":756:40143  contract Nanakshahi {... */\n      keccak256\n        /* \"contracts/modules/SponsorMatrix.sol\":20259:20271  userp.mainid */\n      swap1\n        /* \"contracts/modules/SponsorMatrix.sol\":20306:20322  userp.bonusCount */\n      0x04\n        /* \"contracts/modules/SponsorMatrix.sol\":756:40143  contract Nanakshahi {... */\n      0x01\n        /* \"contracts/modules/SponsorMatrix.sol\":20259:20271  userp.mainid */\n      dup4\n      add\n        /* \"contracts/modules/SponsorMatrix.sol\":756:40143  contract Nanakshahi {... */\n      sload\n        /* \"contracts/modules/SponsorMatrix.sol\":20306:20322  userp.bonusCount */\n      swap3\n      add\n        /* \"contracts/modules/SponsorMatrix.sol\":756:40143  contract Nanakshahi {... */\n      swap2\n      dup3\n      sload\n        /* \"contracts/modules/SponsorMatrix.sol\":20323:20325  39 */\n      0x27\n        /* \"contracts/modules/SponsorMatrix.sol\":20306:20325  userp.bonusCount<39 */\n      dup2\n      lt\n        /* \"contracts/modules/SponsorMatrix.sol\":20303:21081  if(userp.bonusCount<39)... */\n      tag_931\n      jumpi\n        /* \"contracts/modules/SponsorMatrix.sol\":20136:20139  i++ */\n    tag_932:\n      pop\n      pop\n        /* \"contracts/modules/SponsorMatrix.sol\":756:40143  contract Nanakshahi {... */\n      0x01\n        /* \"contracts/modules/SponsorMatrix.sol\":20136:20139  i++ */\n      swap2\n      pop\n        /* \"contracts/modules/SponsorMatrix.sol\":756:40143  contract Nanakshahi {... */\n      add\n        /* \"contracts/modules/SponsorMatrix.sol\":20121:20129  uint i=0 */\n      jump(tag_928)\n        /* \"contracts/modules/SponsorMatrix.sol\":20303:21081  if(userp.bonusCount<39)... */\n    tag_931:\n        /* \"contracts/modules/SponsorMatrix.sol\":20379:20381  24 */\n      0x18\n        /* \"contracts/modules/SponsorMatrix.sol\":20362:20381  userp.bonusCount<24 */\n      dup2\n      lt\n        /* \"contracts/modules/SponsorMatrix.sol\":20359:20531  if(userp.bonusCount<24){... */\n      tag_933\n      jumpi\n        /* \"contracts/modules/SponsorMatrix.sol\":20303:21081  if(userp.bonusCount<39)... */\n    tag_934:\n        /* \"contracts/modules/SponsorMatrix.sol\":756:40143  contract Nanakshahi {... */\n      pop\n      dup3\n      sload\n        /* \"contracts/modules/SponsorMatrix.sol\":20379:20381  24 */\n      0x18\n        /* \"contracts/modules/SponsorMatrix.sol\":20552:20572  userp.bonusCount>=24 */\n      dup2\n      lt\n      iszero\n        /* \"contracts/modules/SponsorMatrix.sol\":20552:20595  userp.bonusCount>=24 && userp.bonusCount<36 */\n      dup1\n      tag_935\n      jumpi\n        /* \"contracts/modules/SponsorMatrix.sol\":20303:21081  if(userp.bonusCount<39)... */\n    tag_936:\n        /* \"contracts/modules/SponsorMatrix.sol\":20549:20810  if(userp.bonusCount>=24 && userp.bonusCount<36){... */\n      tag_937\n      jumpi\n        /* \"contracts/modules/SponsorMatrix.sol\":20303:21081  if(userp.bonusCount<39)... */\n    tag_938:\n        /* \"contracts/modules/SponsorMatrix.sol\":756:40143  contract Nanakshahi {... */\n      pop\n      dup3\n      sload\n        /* \"contracts/modules/SponsorMatrix.sol\":20849:20851  36 */\n      0x24\n        /* \"contracts/modules/SponsorMatrix.sol\":20831:20851  userp.bonusCount>=36 */\n      dup2\n      lt\n        /* \"contracts/modules/SponsorMatrix.sol\":20303:21081  if(userp.bonusCount<39)... */\n      tag_932\n        /* \"contracts/modules/SponsorMatrix.sol\":20828:21066  if(userp.bonusCount>=36 ){... */\n      jumpi\n        /* \"contracts/modules/SponsorMatrix.sol\":756:40143  contract Nanakshahi {... */\n      0x01\n      dup2\n      add\n      dup1\n      swap2\n      gt\n      tag_199\n      jumpi\n      0x01\n      swap4\n      sstore\n      dup4\n        /* \"contracts/modules/SponsorMatrix.sol\":19947:19948  0 */\n      0x00\n        /* \"contracts/modules/SponsorMatrix.sol\":756:40143  contract Nanakshahi {... */\n      mstore\n        /* \"contracts/modules/SponsorMatrix.sol\":20920:20933  userPooltopup */\n      0x21\n        /* \"contracts/modules/SponsorMatrix.sol\":756:40143  contract Nanakshahi {... */\n      0x20\n      mstore\n      0x40\n        /* \"contracts/modules/SponsorMatrix.sol\":19947:19948  0 */\n      0x00\n        /* \"contracts/modules/SponsorMatrix.sol\":756:40143  contract Nanakshahi {... */\n      keccak256\n      swap1\n        /* \"contracts/modules/SponsorMatrix.sol\":19947:19948  0 */\n      0x00\n        /* \"contracts/modules/SponsorMatrix.sol\":756:40143  contract Nanakshahi {... */\n      mstore\n      0x20\n      mstore\n      dup2\n      0x40\n        /* \"contracts/modules/SponsorMatrix.sol\":19947:19948  0 */\n      0x00\n        /* \"contracts/modules/SponsorMatrix.sol\":756:40143  contract Nanakshahi {... */\n      keccak256\n        /* \"contracts/modules/SponsorMatrix.sol\":20920:20967  userPooltopup[_poolId][parentMainId].reTopupAmt */\n      add\n        /* \"contracts/modules/SponsorMatrix.sol\":20920:20986  userPooltopup[_poolId][parentMainId].reTopupAmt += _amountPerLevel */\n      tag_943\n        /* \"contracts/modules/SponsorMatrix.sol\":756:40143  contract Nanakshahi {... */\n      dup6\n      dup3\n      sload\n        /* \"contracts/modules/SponsorMatrix.sol\":20920:20986  userPooltopup[_poolId][parentMainId].reTopupAmt += _amountPerLevel */\n      tag_14\n      jump\t// in\n    tag_943:\n        /* \"contracts/modules/SponsorMatrix.sol\":756:40143  contract Nanakshahi {... */\n      swap1\n      sstore\n        /* \"contracts/modules/SponsorMatrix.sol\":20828:21066  if(userp.bonusCount>=36 ){... */\n      0x00\n      dup1\n        /* \"contracts/modules/SponsorMatrix.sol\":20303:21081  if(userp.bonusCount<39)... */\n      jump(tag_932)\n        /* \"contracts/modules/SponsorMatrix.sol\":20549:20810  if(userp.bonusCount>=24 && userp.bonusCount<36){... */\n    tag_937:\n        /* \"contracts/modules/SponsorMatrix.sol\":756:40143  contract Nanakshahi {... */\n      0x01\n      dup2\n      add\n      dup1\n      swap2\n      gt\n      tag_199\n      jumpi\n      dup4\n      sstore\n      dup4\n        /* \"contracts/modules/SponsorMatrix.sol\":19947:19948  0 */\n      0x00\n        /* \"contracts/modules/SponsorMatrix.sol\":756:40143  contract Nanakshahi {... */\n      mstore\n        /* \"contracts/modules/SponsorMatrix.sol\":20662:20675  userPooltopup */\n      0x21\n        /* \"contracts/modules/SponsorMatrix.sol\":756:40143  contract Nanakshahi {... */\n      0x20\n      mstore\n      0x40\n        /* \"contracts/modules/SponsorMatrix.sol\":19947:19948  0 */\n      0x00\n        /* \"contracts/modules/SponsorMatrix.sol\":756:40143  contract Nanakshahi {... */\n      keccak256\n      dup2\n        /* \"contracts/modules/SponsorMatrix.sol\":19947:19948  0 */\n      0x00\n        /* \"contracts/modules/SponsorMatrix.sol\":756:40143  contract Nanakshahi {... */\n      mstore\n      0x20\n      mstore\n      0x40\n        /* \"contracts/modules/SponsorMatrix.sol\":19947:19948  0 */\n      0x00\n        /* \"contracts/modules/SponsorMatrix.sol\":756:40143  contract Nanakshahi {... */\n      keccak256\n        /* \"contracts/modules/SponsorMatrix.sol\":20662:20729  userPooltopup[_poolId][parentMainId].nextPoolAmt += _amountPerLevel */\n      tag_946\n        /* \"contracts/modules/SponsorMatrix.sol\":756:40143  contract Nanakshahi {... */\n      dup7\n      dup3\n      sload\n        /* \"contracts/modules/SponsorMatrix.sol\":20662:20729  userPooltopup[_poolId][parentMainId].nextPoolAmt += _amountPerLevel */\n      tag_14\n      jump\t// in\n    tag_946:\n        /* \"contracts/modules/SponsorMatrix.sol\":756:40143  contract Nanakshahi {... */\n      swap1\n      sstore\n        /* \"contracts/modules/SponsorMatrix.sol\":20549:20810  if(userp.bonusCount>=24 && userp.bonusCount<36){... */\n      0x00\n      jump(tag_938)\n        /* \"contracts/modules/SponsorMatrix.sol\":20552:20595  userp.bonusCount>=24 && userp.bonusCount<36 */\n    tag_935:\n        /* \"contracts/modules/SponsorMatrix.sol\":20576:20595  userp.bonusCount<36 */\n      pop\n        /* \"contracts/modules/SponsorMatrix.sol\":20593:20595  36 */\n      0x24\n        /* \"contracts/modules/SponsorMatrix.sol\":20576:20595  userp.bonusCount<36 */\n      dup2\n      lt\n        /* \"contracts/modules/SponsorMatrix.sol\":20552:20595  userp.bonusCount>=24 && userp.bonusCount<36 */\n      jump(tag_936)\n        /* \"contracts/modules/SponsorMatrix.sol\":20359:20531  if(userp.bonusCount<24){... */\n    tag_933:\n        /* \"contracts/modules/SponsorMatrix.sol\":756:40143  contract Nanakshahi {... */\n      0x01\n      dup2\n      add\n      dup1\n      swap2\n      gt\n      tag_199\n      jumpi\n      dup4\n      sstore\n      dup1\n        /* \"contracts/modules/SponsorMatrix.sol\":19947:19948  0 */\n      0x00\n        /* \"contracts/modules/SponsorMatrix.sol\":756:40143  contract Nanakshahi {... */\n      mstore\n        /* \"contracts/modules/SponsorMatrix.sol\":21329:21340  userIncomes */\n      0x2d\n        /* \"contracts/modules/SponsorMatrix.sol\":756:40143  contract Nanakshahi {... */\n      0x20\n      mstore\n        /* \"contracts/modules/SponsorMatrix.sol\":21436:21450  inc.poolIncome */\n      0x08\n        /* \"contracts/modules/SponsorMatrix.sol\":756:40143  contract Nanakshahi {... */\n      0x40\n        /* \"contracts/modules/SponsorMatrix.sol\":19947:19948  0 */\n      0x00\n        /* \"contracts/modules/SponsorMatrix.sol\":756:40143  contract Nanakshahi {... */\n      keccak256\n        /* \"contracts/modules/SponsorMatrix.sol\":21363:21388  inc.totalIncome += amount */\n      tag_949\n        /* \"contracts/modules/SponsorMatrix.sol\":756:40143  contract Nanakshahi {... */\n      dup8\n      dup3\n      sload\n        /* \"contracts/modules/SponsorMatrix.sol\":21363:21388  inc.totalIncome += amount */\n      tag_14\n      jump\t// in\n    tag_949:\n        /* \"contracts/modules/SponsorMatrix.sol\":756:40143  contract Nanakshahi {... */\n      dup2\n      sstore\n        /* \"contracts/modules/SponsorMatrix.sol\":21436:21450  inc.poolIncome */\n      add\n        /* \"contracts/modules/SponsorMatrix.sol\":21436:21460  inc.poolIncome += amount */\n      tag_950\n        /* \"contracts/modules/SponsorMatrix.sol\":756:40143  contract Nanakshahi {... */\n      dup7\n      dup3\n      sload\n        /* \"contracts/modules/SponsorMatrix.sol\":21436:21460  inc.poolIncome += amount */\n      tag_14\n      jump\t// in\n    tag_950:\n        /* \"contracts/modules/SponsorMatrix.sol\":756:40143  contract Nanakshahi {... */\n      swap1\n      sstore\n      dup1\n        /* \"contracts/modules/SponsorMatrix.sol\":19947:19948  0 */\n      0x00\n        /* \"contracts/modules/SponsorMatrix.sol\":756:40143  contract Nanakshahi {... */\n      mstore\n        /* \"contracts/modules/SponsorMatrix.sol\":21589:21602  incomeHistory */\n      0x2e\n        /* \"contracts/modules/SponsorMatrix.sol\":756:40143  contract Nanakshahi {... */\n      0x20\n      mstore\n        /* \"contracts/modules/SponsorMatrix.sol\":21589:21846  incomeHistory[receiverId].push(Income({... */\n      tag_951\n        /* \"contracts/modules/SponsorMatrix.sol\":756:40143  contract Nanakshahi {... */\n      0x40\n        /* \"contracts/modules/SponsorMatrix.sol\":19947:19948  0 */\n      0x00\n        /* \"contracts/modules/SponsorMatrix.sol\":756:40143  contract Nanakshahi {... */\n      keccak256\n      mload(0x40)\n      swap1\n      tag_952\n      dup3\n      tag_16\n      jump\t// in\n    tag_952:\n      dup10\n      dup3\n      mstore\n        /* \"contracts/modules/SponsorMatrix.sol\":21620:21845  Income({... */\n      dup8\n        /* \"contracts/modules/SponsorMatrix.sol\":756:40143  contract Nanakshahi {... */\n      0x20\n        /* \"contracts/modules/SponsorMatrix.sol\":21620:21845  Income({... */\n      dup4\n      add\n        /* \"contracts/modules/SponsorMatrix.sol\":756:40143  contract Nanakshahi {... */\n      mstore\n      0x01\n      0x40\n        /* \"contracts/modules/SponsorMatrix.sol\":21620:21845  Income({... */\n      dup4\n      add\n        /* \"contracts/modules/SponsorMatrix.sol\":756:40143  contract Nanakshahi {... */\n      mstore\n        /* \"contracts/modules/SponsorMatrix.sol\":21756:21771  block.timestamp */\n      timestamp\n        /* \"contracts/modules/SponsorMatrix.sol\":21620:21845  Income({... */\n      0x60\n      dup4\n      add\n        /* \"contracts/modules/SponsorMatrix.sol\":756:40143  contract Nanakshahi {... */\n      mstore\n        /* \"contracts/modules/SponsorMatrix.sol\":20508:20510  10 */\n      0x0a\n        /* \"contracts/modules/SponsorMatrix.sol\":21620:21845  Income({... */\n      0x80\n      dup4\n      add\n        /* \"contracts/modules/SponsorMatrix.sol\":756:40143  contract Nanakshahi {... */\n      mstore\n        /* \"contracts/modules/SponsorMatrix.sol\":21589:21846  incomeHistory[receiverId].push(Income({... */\n      tag_28\n      jump\t// in\n    tag_951:\n        /* \"contracts/modules/SponsorMatrix.sol\":19947:19948  0 */\n      0x00\n        /* \"contracts/modules/SponsorMatrix.sol\":756:40143  contract Nanakshahi {... */\n      dup2\n      dup2\n      mstore\n        /* \"contracts/modules/SponsorMatrix.sol\":21872:21877  users */\n      0x2c\n        /* \"contracts/modules/SponsorMatrix.sol\":756:40143  contract Nanakshahi {... */\n      0x20\n      mstore\n      0x40\n      swap1\n      keccak256\n      sload\n      sub(shl(0xa0, 0x01), 0x01)\n      and\n      dup6\n      iszero\n        /* \"contracts/modules/SponsorMatrix.sol\":21934:21936  95 */\n      0x5f\n        /* \"contracts/modules/SponsorMatrix.sol\":756:40143  contract Nanakshahi {... */\n      dup8\n      dup2\n      mul\n      swap1\n      dup9\n      dup3\n      div\n      eq\n      dup3\n      or\n      iszero\n      tag_199\n      jumpi\n        /* \"contracts/modules/SponsorMatrix.sol\":19947:19948  0 */\n      0x00\n        /* \"contracts/modules/SponsorMatrix.sol\":756:40143  contract Nanakshahi {... */\n      dup1\n      sload\n      mload(0x40)\n      shl(0xe0, 0xa9059cbb)\n        /* \"contracts/modules/SponsorMatrix.sol\":21953:21981  usdt.transfer(to, netamount) */\n      dup2\n      mstore\n      sub(shl(0xa0, 0x01), 0x01)\n        /* \"contracts/modules/SponsorMatrix.sol\":756:40143  contract Nanakshahi {... */\n      dup7\n      dup2\n      and\n        /* \"contracts/modules/SponsorMatrix.sol\":20306:20322  userp.bonusCount */\n      0x04\n        /* \"contracts/modules/SponsorMatrix.sol\":21953:21981  usdt.transfer(to, netamount) */\n      dup4\n      add\n        /* \"contracts/modules/SponsorMatrix.sol\":756:40143  contract Nanakshahi {... */\n      mstore\n        /* \"contracts/modules/SponsorMatrix.sol\":21939:21942  100 */\n      0x64\n        /* \"contracts/modules/SponsorMatrix.sol\":756:40143  contract Nanakshahi {... */\n      swap1\n      swap5\n      div\n      0x24\n      dup3\n      add\n      mstore\n      swap3\n      0x20\n      swap3\n      dup5\n      swap3\n      0x44\n      swap3\n      dup5\n      swap3\n        /* \"contracts/modules/SponsorMatrix.sol\":19947:19948  0 */\n      swap2\n        /* \"contracts/modules/SponsorMatrix.sol\":756:40143  contract Nanakshahi {... */\n      and\n        /* \"contracts/modules/SponsorMatrix.sol\":21953:21981  usdt.transfer(to, netamount) */\n      gas\n      call\n      dup1\n      iszero\n      tag_164\n      jumpi\n      tag_958\n      jumpi\n        /* \"contracts/modules/SponsorMatrix.sol\":20359:20531  if(userp.bonusCount<24){... */\n    tag_959:\n        /* \"contracts/modules/SponsorMatrix.sol\":756:40143  contract Nanakshahi {... */\n      pop\n        /* \"contracts/modules/SponsorMatrix.sol\":22015:22016  5 */\n      0x05\n        /* \"contracts/modules/SponsorMatrix.sol\":756:40143  contract Nanakshahi {... */\n      dup8\n      mul\n      swap1\n      dup8\n      dup3\n      div\n        /* \"contracts/modules/SponsorMatrix.sol\":22015:22016  5 */\n      0x05\n        /* \"contracts/modules/SponsorMatrix.sol\":756:40143  contract Nanakshahi {... */\n      eq\n      or\n      iszero\n      tag_199\n      jumpi\n        /* \"contracts/modules/SponsorMatrix.sol\":21939:21942  100 */\n      0x64\n        /* \"contracts/modules/SponsorMatrix.sol\":22007:22023  (amount*5) / 100 */\n      tag_962\n        /* \"contracts/modules/SponsorMatrix.sol\":756:40143  contract Nanakshahi {... */\n      swap2\n      div\n        /* \"contracts/modules/SponsorMatrix.sol\":22007:22023  (amount*5) / 100 */\n      tag_38\n      jump\t// in\n    tag_962:\n        /* \"contracts/modules/SponsorMatrix.sol\":756:40143  contract Nanakshahi {... */\n      dup8\n        /* \"contracts/modules/SponsorMatrix.sol\":19947:19948  0 */\n      0x00\n        /* \"contracts/modules/SponsorMatrix.sol\":756:40143  contract Nanakshahi {... */\n      mstore\n        /* \"contracts/modules/SponsorMatrix.sol\":21872:21877  users */\n      0x2c\n        /* \"contracts/modules/SponsorMatrix.sol\":756:40143  contract Nanakshahi {... */\n      0x20\n      mstore\n      0x01\n      dup1\n      0xa0\n      shl\n      sub\n      0x40\n        /* \"contracts/modules/SponsorMatrix.sol\":19947:19948  0 */\n      0x00\n        /* \"contracts/modules/SponsorMatrix.sol\":756:40143  contract Nanakshahi {... */\n      keccak256\n      sload\n      and\n      swap1\n      mload(0x00)\n      codecopy(0x00, data_51678340555b44277c2bba9423d75ebead61331b9cde789c13d0820d4f537e29, 0x20)\n      mload(0x00)\n      swap1\n      0x00\n      mstore\n        /* \"contracts/modules/SponsorMatrix.sol\":21620:21845  Income({... */\n      0x60\n        /* \"contracts/modules/SponsorMatrix.sol\":756:40143  contract Nanakshahi {... */\n      mload(0x40)\n      dup10\n      dup2\n      mstore\n      0x01\n      0x20\n      dup3\n      add\n      mstore\n        /* \"contracts/modules/SponsorMatrix.sol\":20508:20510  10 */\n      0x0a\n        /* \"contracts/modules/SponsorMatrix.sol\":756:40143  contract Nanakshahi {... */\n      0x40\n      dup3\n      add\n      mstore\n        /* \"contracts/modules/SponsorMatrix.sol\":22042:22121  IncomeDistributed(to, users[fromId].account, amount, packageLevel, _incomeType) */\n      log3\n        /* \"contracts/modules/SponsorMatrix.sol\":20359:20531  if(userp.bonusCount<24){... */\n      0x00\n      jump(tag_934)\n        /* \"contracts/modules/SponsorMatrix.sol\":21953:21981  usdt.transfer(to, netamount) */\n    tag_958:\n      tag_963\n      swap1\n        /* \"contracts/modules/SponsorMatrix.sol\":756:40143  contract Nanakshahi {... */\n      0x20\n        /* \"contracts/modules/SponsorMatrix.sol\":21953:21981  usdt.transfer(to, netamount) */\n      returndatasize\n      dup2\n      gt\n      tag_231\n      jumpi\n      tag_233\n      dup2\n      dup4\n      tag_17\n      jump\t// in\n    tag_963:\n      jump(tag_959)\n        /* \"contracts/modules/SponsorMatrix.sol\":19934:19977  _parentId == 0 || _parentId == defaultRefId */\n    tag_924:\n        /* \"contracts/modules/SponsorMatrix.sol\":756:40143  contract Nanakshahi {... */\n      pop\n        /* \"contracts/modules/SponsorMatrix.sol\":19965:19977  defaultRefId */\n      0x05\n        /* \"contracts/modules/SponsorMatrix.sol\":756:40143  contract Nanakshahi {... */\n      sload\n        /* \"contracts/modules/SponsorMatrix.sol\":19952:19977  _parentId == defaultRefId */\n      dup4\n      eq\n        /* \"contracts/modules/SponsorMatrix.sol\":19934:19977  _parentId == 0 || _parentId == defaultRefId */\n      jump(tag_925)\n    stop\n    data_51678340555b44277c2bba9423d75ebead61331b9cde789c13d0820d4f537e29 e17b61d324ce17328f433d0ab62581c0f0aa997312bae80fbdfcd2aa9b91d6e3\n    data_92fb4c3df386bc0d49f8847c66cda554c07c2df42e065e03d639278ecf8d94a7 babb6a363fd9a057996d09882c0b74b710d121707d19eeffd91c51c3171a7c91\n\n    auxdata: 0xa2646970667358221220972c413ac1dcfca8099b0818dfa96ecd576a58f37c56fcbadb4945ee4abd6fc864736f6c634300081e0033\n}\n",
				"bytecode": {
					"linkReferences": {},
					"object": "6080604052346108d957604051601f613c6038819003918201601f19168301916001600160401b03831184841017610638578084926080946040528339810103126108d95761004d8161091c565b6100596020830161091c565b610071606061006a6040860161091c565b940161091c565b6040519092906101e081016001600160401b038111828210176106385760405267d02ab486cedc0000815268015af1d78b58c4000060208201526802b5e3af16b1880000604082015268056bc75e2d631000006060820152680ad78ebc5ac620000060808201526815af1d78b58c40000060a0820152682b5e3af16b1880000060c08201526856bc75e2d63100000060e082015268ad78ebc5ac6200000061010082015269015af1d78b58c40000006101208201526902b5e3af16b18800000061014082015269056bc75e2d6310000000610160820152690ad78ebc5ac6200000006101808201526915af1d78b58c400000006101a0820152692b5e3af16b18800000006101c0820152600754600f60075580600f10610896575b5060075f5260205f20905f5b600f8110610879575050506101ab6108dd565b680410d586a20a4c00008152681043561a8829300000602082015268410d586a20a4c0000060408201526901043561a882930000006060820152690410d586a20a4c0000006080820152691043561a88293000000060a082015269410d586a20a4c000000060c0820152600854600760085580600710610836575b5060085f5260205f20905f5b60078110610819575050506102456108fc565b68056bc75e2d631000008152680ad78ebc5ac620000060208201526815af1d78b58c4000006040820152682b5e3af16b1880000060608201526856bc75e2d631000000608082015268ad78ebc5ac6200000060a082015269015af1d78b58c400000060c08201526902b5e3af16b18800000060e08201526009546008600955806008106107d6575b5060095f5260205f20905f5b600881106107b9575050506102ec6108dd565b60038152600560208201526007604082015260096060820152600b6080820152600d60a0820152600f60c08201525f5b600781106107a157505061032e6108fc565b6004815260056020820152600660408201526007606082015260086080820152600960a0820152600a60c0820152600b60e08201525f5b600881106107895750506103776108fc565b5f815260016020820152600160408201526001606082015260016080820152600160a0820152600160c0820152600160e08201525f5b60088110610771575050620151806037555f80546001600160a01b03199081166001600160a01b0393841617825560028054821694841694851781556003805483169785169790971790965560048054821695909316949094179091556103e860058190556001600655808252602c6020527f6c4c1a4f9839dca97a983c55cbfc33e7d08925bea4a675c4ea728373a4a1718e8054909416831784557f6c4c1a4f9839dca97a983c55cbfc33e7d08925bea4a675c4ea728373a4a1719155600f7f6c4c1a4f9839dca97a983c55cbfc33e7d08925bea4a675c4ea728373a4a1719455427f6c4c1a4f9839dca97a983c55cbfc33e7d08925bea4a675c4ea728373a4a1719d5560077f6c4c1a4f9839dca97a983c55cbfc33e7d08925bea4a675c4ea728373a4a1719981905560087f6c4c1a4f9839dca97a983c55cbfc33e7d08925bea4a675c4ea728373a4a1719b557f6c4c1a4f9839dca97a983c55cbfc33e7d08925bea4a675c4ea728373a4a171969490945592549192909181905b600f821061073d575050600a8301556005545f918252602b6020526040822055805b6008548210156106605760085482101561064c5760085f525f516020613c205f395f51905f5282015461057e91610946565b6005546040519192909160a081016001600160401b0381118282101761063857600193600491604052808352602083018181526040840185815260608501915f835260808601935f8552875f52602260205260405f20905f5260205260405f2095518655518786015551600285015551600384015551910155805f52602560205261060f60405f2060055490610967565b805f52602460205261063160405f2060055490815f5260205260405f20610967565b019061054c565b634e487b7160e01b5f52604160045260245ffd5b634e487b7160e01b5f52603260045260245ffd5b600c830155505f90815b600881106106865750600e015560405161326c90816109948239f35b909160095482101561064c5760095f525f516020613c405f395f51905f528201546106b091610946565b60055460405191929091608081016001600160401b03811182821017610638576001936003916040528083526020830184815260408401905f825260608501925f8452865f52602760205260405f20905f5260205260405f2094518555518685015551600284015551910155805f52602960205261073460405f2060055490610967565b0191909161066a565b90918183101561064c5760075f525f516020613c005f395f51905f528301546001916107699190610946565b92019061052a565b600190602060ff8451169301928160190155016103ad565b600190602060ff845116930192816011015501610365565b600190602060ff84511693019281600a01550161031c565b81516001600160501b0316818401556020909101906001016102d9565b60095f52610813905f516020613c405f395f51905f52017f6e1540171b6c0c960b71a7020d9f60077f6af931a8bbf590da0223dacf75c7b7610930565b5f6102cd565b81516001600160501b031681840155602090910190600101610232565b60085f52610873905f516020613c205f395f51905f52017ff3f7a9fe364faab93b216da50a3214154f22a0a2b415b23a84c8169e8b636eea610930565b5f610226565b81516001600160501b031681840155602090910190600101610198565b60075f526108d3905f516020613c005f395f51905f52017fa66cc928b5edb82af9bd49922954155ab7b0942694bea4ce44661d9a8736c697610930565b5f61018c565b5f80fd5b6040519060e082016001600160401b0381118382101761063857604052565b6040519061010082016001600160401b0381118382101761063857604052565b51906001600160a01b03821682036108d957565b81811061093b575050565b5f8155600101610930565b9190820180921161095357565b634e487b7160e01b5f52601160045260245ffd5b80549068010000000000000000821015610638576001820180825582101561064c575f5260205f20015556fe6080806040526004361015610012575f80fd5b5f3560e01c90816301be02b214611abe5750806301c234a814611aa25780630ef81b7414611a695780630f2b7cc914611a3a57806318ab487f14611a105780631f6ab899146118e85780632132d204146118bc57806324513088146118925780632c831633146118755780632f48ab7d1461184e57806332bc298c1461183157806332fcd9661461180f578063365b98b21461173d578063375b43b41461172257806339ab3603146116c85780634060160a1461146857806345977d031461126657806346b9dece146111d857806352a8c4c4146111bb57806358c7d352146111a05780635aabf7f1146111675780635ec64a441461113857806367d52d4d146110e157806370c8d7701461107457806378f6ad6d146110575780637cdc65f21461102f57806381a0b8161461100757806388afbe3e14610fdd5780638d58644c14610fa45780638da5cb5b14610f7c5780638e222e2414610d605780638f030ece14610d27578063907c84a714610cd6578063956a322814610caa5780639c38348614610c765780639e23463114610c4d578063ae4708dc14610c24578063bc1fa7c0146109f2578063bd1aae40146109be578063bf72467214610986578063bff1f9e114610969578063c216212a14610940578063c7bb62e814610902578063cb0e0d7d146108c6578063ce79c2c314610857578063d0a2fd791461082b578063d54d6ddb1461080d578063e9e34a16146107e5578063ec597e6f146107c8578063f207564e146102795763f5d74d931461024d575f80fd5b34610275575f366003190112610275576004546040516001600160a01b039091168152602090f35b5f80fd5b3461027557602036600319011261027557600435335f52602b60205260405f205461078e57805f52602c602052600360405f20015415610757575f8054602090610304906001600160a01b03166102ce611b3a565b90546040516323b872dd60e01b815233600482015230602482015260039290921b1c604482015293849283919082906064820190565b03925af1801561074c5761071f575b5060055460065460058102908082046005149015171561056b5761033691611c59565b90335f52602b6020528160405f2055815f52602c60205260405f2090336bffffffffffffffffffffffff60a01b835416178255426002830155826003830155600482018181556001600684015561038b611b3a565b90549060031b1c600a84015542600f840155815f52602c602052600760405f20018054906001820180921161056b5755815f5260316020526103d08460405f20612212565b603854600160401b81101561070b578060016103f192016038556038611b6c565b81549060031b9086821b915f19901b1916179055603254845f52603360205260405f20555f5f90835f526030602052600260405f2054105f146105e0575050835f52602c60205281600560405f200155815f52603060205260405f208054906001820180921161056b5755815b5f905b600f821061057f575b50506104a8610477611b3a565b90546040519160031b1c61048a82611c66565b81525f60208201524260408201526001606082015260018501611cc0565b6104b0611b3a565b90549060031b1c906005820282159280820460051484171561056b57603c810293818504603c1481171561056b5760198202918204601914171561056b576105139361050b60648994610505828096046124a3565b0461250a565b049154612610565b6006546001810180911161056b576006555f52602c602052600560018060a01b0360405f2054169101546040519081527f309bb360e8b69c23937ccc5fb01f9aeeead1c95a99604e175113ff82f2b1723a60203392a4005b634e487b7160e01b5f52601160045260245ffd5b80156105db57805f52602c602052600960405f20018054906001820180921161056b5755805f52602f60205260405f20825f526020526105c28660405f20612212565b5f52602c6020526001600560405f200154910190610461565b61046a565b5f5b600f81106105f2575b505061045e565b8161070657845f52602f60205260405f206001820180831161056b575f5260205260405f20546002820180831161056b5760ff811161056b576001901b1161063d575b6001016105e2565b93925f9591955b845f52602f60205260405f20865f5260205260405f20548110156106f857866106e757845f52602f60205260405f20865f526020526106868160405f20611b6c565b90549060031b1c805f526030602052600260405f2054106106ab575b50600101610644565b9193509550865f52602c60205280600560405f200155805f52603060205260405f208054906001820180921161056b57559160018096906106a2565b5092936001909591955b9050610635565b5092936001909591956106f1565b6105eb565b634e487b7160e01b5f52604160045260245ffd5b6107409060203d602011610745575b6107388183611c9e565b810190611e16565b610313565b503d61072e565b6040513d5f823e3d90fd5b60405162461bcd60e51b815260206004820152600f60248201526e24b73b30b634b21039b837b739b7b960891b6044820152606490fd5b60405162461bcd60e51b8152602060048201526012602482015271105b1c9958591e481c9959da5cdd195c995960721b6044820152606490fd5b34610275575f366003190112610275576020600554604051908152f35b34610275575f366003190112610275576003546040516001600160a01b039091168152602090f35b3461027557602036600319011261027557610829600435612006565b005b346102755760203660031901126102755760043560088110156102755760209060110154604051908152f35b346102755761086536611b81565b905f52602260205260405f20905f5260205260405f2080546108c26001830154926002810154906004600382015491015491604051958695869192608093969594919660a084019784526020840152604083015260608201520152565b0390f35b34610275576020366003190112610275576004356001600160a01b03811690819003610275575f52602b602052602060405f2054604051908152f35b346102755761091036611b81565b905f52602960205260405f2080548210156102755760209161093191611b6c565b90549060031b1c604051908152f35b346102755760203660031901126102755760043560075481101561027557610931602091611b0a565b34610275575f366003190112610275576020600654604051908152f35b346102755761099436611b81565b905f52602160205260405f20905f526020526040805f206001815491015482519182526020820152f35b34610275576109cc36611b81565b905f52602660205260405f20905f52602052602060ff60405f2054166040519015158152f35b3461027557602036600319011261027557600435805f52602c60205260405f20610a2660018060a01b038254163314611bd3565b600d81019081549160088310610a3b81611d96565b15610c10578260110154836019015490600684015410159081610c01575b5015610bc45782610bbf575b835f52602a60205260405f20835f52602052610a8860ff60405f20541615611dd1565b610a9183611b22565b90545f80546040516323b872dd60e01b815233600482015230602482015260039490941b9290921c60448401819052939291602091839160649183916001600160a01b03165af1801561074c57610ba2575b508054926001840180941161056b57610b5e9360019255855f52602a60205260405f20855f5260205260405f208260ff19825416179055600e8101610b29848254611c59565b9055610b36838787612cde565b60405192610b4384611c66565b83525f6020840152426040840152600b606084015201611cc0565b6001810180911161056b576040519081526040602082015260076040820152662137b7b9ba32b960c91b60608201525f5160206132175f395f51905f5260803392a3005b610bba9060203d602011610745576107388183611c9e565b610ae3565b610a65565b60405162461bcd60e51b8152602060048201526015602482015274155c19dc9859194814db1bdd08185b9908141bdbdb605a1b6044820152606490fd5b9050600b830154101585610a59565b634e487b7160e01b5f52603260045260245ffd5b346102755760203660031901126102755760043560085481101561027557610931602091611af2565b346102755760203660031901126102755760043560095481101561027557610931602091611b22565b3461027557610c8436611b81565b905f52602a60205260405f20905f52602052602060ff60405f2054166040519015158152f35b346102755760203660031901126102755760043560088110156102755760209060190154604051908152f35b3461027557610ce436611b81565b905f52602760205260405f20905f52602052608060405f208054906001810154906003600282015491015491604051938452602084015260408301526060820152f35b3461027557610d3536611ad8565b915f52602360205260405f20905f5260205260405f2080548210156102755760209161093191611b6c565b346102755763ffffffff610d7336611b97565b911690815f52602c60205260405f20610d9660018060a01b038254163314611bd3565b600b810191610da86007845410611c12565b600181019283821161056b57600854841015610f4657610dc784611af2565b90549060031b1c825f52602160205260405f20865f5260205260405f208054828110610f0157875f52602660205260405f20875f5260205260ff60405f205416610ebc5782610e1591611c4c565b90558154916001830180931161056b57600294610e6c9360019255600c8101610e3f848254611c59565b9055875f52602660205260405f20875f5260205260405f208260ff19825416179055610b368389896122cf565b0180911161056b57604051908152604060208201526016604082015275506f6f6c205570677261646520284561726e696e672960501b60608201525f5160206132175f395f51905f5260803392a3005b60405162461bcd60e51b815260206004820152601b60248201527f416c726561647920707572636861736564206e65787420706f6f6c00000000006044820152606490fd5b60405162461bcd60e51b815260206004820152601c60248201527f4e6f7420656e6f756768206e65787420706f6f6c2062616c616e6365000000006044820152606490fd5b60405162461bcd60e51b815260206004820152600e60248201526d139bc81a1a59da195c881c1bdbdb60921b6044820152606490fd5b34610275575f366003190112610275576001546040516001600160a01b039091168152602090f35b3461027557610fb236611ad8565b915f52602460205260405f20905f5260205260405f2080548210156102755760209161093191611b6c565b34610275576020366003190112610275576004355f526030602052602060405f2054604051908152f35b34610275575f366003190112610275576035546040516001600160a01b039091168152602090f35b34610275575f366003190112610275576002546040516001600160a01b039091168152602090f35b34610275575f366003190112610275576020603254604051908152f35b346102755761108236611b81565b905f52602e60205260405f20908154811015610275576110a191611bba565b508054600182015460028301546003840154600490940154604080519485526020850193909352918301526060820192909252608081019190915260a090f35b346102755760203660031901126102755760606110ff600435611e41565b91906020604051938492151583526040828401528051918291826040860152018484015e5f828201840152601f01601f19168101030190f35b346102755761114636611b81565b905f52603160205260405f2080548210156102755760209161093191611b6c565b346102755761117536611ad8565b915f52602f60205260405f20905f5260205260405f2080548210156102755760209161093191611b6c565b34610275575f366003190112610275576020604051600a8152f35b34610275575f366003190112610275576020603754604051908152f35b34610275576020366003190112610275576004355f52602d60205261014060405f208054906001810154906002810154600382015460048301546005840154906006850154926007860154946009600888015497015497604051998a5260208a015260408901526060880152608087015260a086015260c085015260e0840152610100830152610120820152f35b3461027557602036600319011261027557600435805f52602c60205260405f2061129a60018060a01b038254163314611bd3565b6006810190815491600f83101561142c576112b483611b0a565b90545f80546040516323b872dd60e01b815233600482015230602482015260039490941b9290921c60448401819052939291602091839160649183916001600160a01b03165af1801561074c5761140f575b508054906001820180921161056b5755600a8201611325828254611c59565b905561135560405161133681611c66565b8281525f60208201524260408201526001606082015260018401611cc0565b6005810281159082810460051482171561056b576023830283810460231483171561056b5761138b9161050560648093046124a3565b600f8202918204600f14171561056b5760649004916004820154600182019384831161056b578560056113d9956113c58885858298612750565b016113d384848484546128c7565b54612ab5565b60405190815260406020820152600460408201526314db1bdd60e21b60608201525f5160206132175f395f51905f5260803392a3005b6114279060203d602011610745576107388183611c9e565b611306565b60405162461bcd60e51b8152602060048201526014602482015273105b1c9958591e48185d081b585e081b195d995b60621b6044820152606490fd5b3461027557602036600319011261027557600435805f52602c60205260405f2061149c60018060a01b038254163314611bd3565b600b810190815491600783106114b181611d96565b15610c105782600a015460068301541061168357821590811561167e575b845f52602660205260405f20845f526020526114f260ff60405f20541615611dd1565b6114fb84611af2565b90545f80546040516323b872dd60e01b815233600482015230602482015260039490941b9290921c60448401819052949291602091839160649183916001600160a01b03165af1801561074c57611661575b5061160e575b8054926001840180941161056b576115cd9360019255855f52602660205260405f20855f5260205260405f208260ff19825416179055600c8101611598848254611c59565b90556115a58387876122cf565b604051926115b284611c66565b83525f6020840152426040840152600a606084015201611cc0565b6001810180911161056b57604051908152604060208201526004604082015263141bdbdb60e21b60608201525f5160206132175f395f51905f5260803392a3005b6004830154805f52602c602052600f60405f2001546202a300810180911161056b5742101561163e575b50611553565b5f52602c602052600860405f20018054906001820180921161056b575585611638565b6116799060203d602011610745576107388183611c9e565b61154d565b6114cf565b60405162461bcd60e51b815260206004820152601860248201527f5570677261646520796f7572206c6576656c20666972737400000000000000006044820152606490fd5b346102755760203660031901126102755760043560385481101561027557603854811015610c105760385f527f38395c5dceade9603479b177b68959049485df8aa97b39f3533039af5f4561990154604051908152602090f35b34610275575f366003190112610275576020604051600f8152f35b34610275576020366003190112610275576004355f52602c60205260405f20600160a01b60019003815416600282015491600381015460048201546005830154600684015460078501546008860154600987015491600a88015493600b89015495600c8a015497600d8b015499600e8c01549b600f01549c6040519e8f91825260208201526040015260608d015260808c015260a08b015260c08a015260e08901526101008801526101208701526101408601526101608501526101808401526101a08301526101c08201526101e090f35b34610275575f366003190112610275576020604051670de0b6b3a76400008152f35b34610275575f366003190112610275576020604051620151808152f35b34610275575f366003190112610275575f546040516001600160a01b039091168152602090f35b34610275575f366003190112610275576020603454604051908152f35b346102755760203660031901126102755760406118b0600435611d35565b82519182526020820152f35b3461027557602036600319011261027557600435600781101561027557602090600a0154604051908152f35b346102755763ffffffff6118fb36611b97565b911690815f52602c60205260405f2061191e60018060a01b038254163314611bd3565b61192e6007600b83015410611c12565b61193782611af2565b90549060031b1c825f52602160205260405f20845f52602052600160405f2001918254908282106119cb576119839361197284600194611c4c565b9055600c8101611598848254611c59565b604051908152604060208201526016604082015275506f6f6c205265546f70757020284561726e696e672960501b60608201525f5160206132175f395f51905f5260803392a3005b60405162461bcd60e51b815260206004820152601a60248201527f4e6f7420656e6f756768207265546f7075702062616c616e63650000000000006044820152606490fd5b34610275576020366003190112610275576004355f526033602052602060405f2054604051908152f35b3461027557611a4836611b81565b905f52602560205260405f2080548210156102755760209161093191611b6c565b3461027557611a7736611ad8565b915f52602860205260405f20905f5260205260405f2080548210156102755760209161093191611b6c565b34610275575f3660031901126102755760206040516127108152f35b34610275575f366003190112610275576020906036548152f35b606090600319011261027557600435906024359060443590565b600854811015610c105760085f5260205f2001905f90565b600754811015610c105760075f5260205f2001905f90565b600954811015610c105760095f5260205f2001905f90565b60075415610c105760075f9081527fa66cc928b5edb82af9bd49922954155ab7b0942694bea4ce44661d9a8736c68891565b8054821015610c10575f5260205f2001905f90565b6040906003190112610275576004359060243590565b60409060031901126102755760043563ffffffff81168103610275579060243590565b8054821015610c10575f52600560205f20910201905f90565b15611bda57565b60405162461bcd60e51b815260206004820152601060248201526f139bdd081e5bdd5c881858d8dbdd5b9d60821b6044820152606490fd5b15611c1957565b60405162461bcd60e51b815260206004820152600b60248201526a105d081b585e081c1bdbdb60aa1b6044820152606490fd5b9190820391821161056b57565b9190820180921161056b57565b6080810190811067ffffffffffffffff82111761070b57604052565b60a0810190811067ffffffffffffffff82111761070b57604052565b90601f8019910116810190811067ffffffffffffffff82111761070b57604052565b8054600160401b81101561070b5760018101808355811015610c1057600360609160ff935f5260205f209060021b01845181556020850151600182015560408501516002820155019201511660ff19825416179055565b8115611d21570490565b634e487b7160e01b5f52601260045260245ffd5b90815f52602c602052600360405f20015415611d8f57603254825f52603360205260405f20549081811115611d8557611d7a611d8292670de0b6b3a764000092611c4c565b048093612437565b90565b505090505f905f90565b5f91508190565b15611d9d57565b60405162461bcd60e51b815260206004820152600c60248201526b105d081b585e081b195d995b60a21b6044820152606490fd5b15611dd857565b60405162461bcd60e51b8152602060048201526016602482015275141bdbdb08185b1c9958591e481c1d5c98da185cd95960521b6044820152606490fd5b90816020910312610275575180151581036102755790565b8181029291811591840414171561056b57565b6060905f52602c60205260405f20600b81015491600854831015611f5357506007821015610c1057600682600a015491015410611f0657151580611eff575b611ec257600190604051611e95604082611c9e565b601981527f456c696769626c6520746f20627579206e65787420706f6f6c00000000000000602082015290565b5f90604051611ed2604082611c9e565b601781527f4275792070726576696f757320706f6f6c206669727374000000000000000000602082015290565b505f611e80565b505f90604051611f17606082611c9e565b602681527f596f75206e65656420746f207265616368206120686967686572206c6576656c60208201526508199a5c9cdd60d21b604082015290565b929150505f91611f666040519182611c9e565b602381527f596f752061726520616c726561647920617420746865206869676865737420706020820152621bdbdb60ea1b604082015290565b8054600160401b81101561070b57611fbc91600182018155611bba565b919091611ff3578051825560208101516001830155604081015160028301556060810151600383015560800151600490910155565b565b634e487b7160e01b5f525f60045260245ffd5b805f52602c60205260405f20906003820154156121dc5761203160018060a01b038354163314611bd3565b60325491815f52603360205260405f20548084146121d65761205c670de0b6b3a76400009185611c4c565b049182156121c55761206e8382612437565b93815f52603360205260405f205583806120a2575b9150508111612090575050565b611ff19161209d91611c4c565b61250a565b61214a9261210c836020945f52602d8552600760405f206120c4868254611c59565b8155016120d2858254611c59565b9055805f52602e855260405f20604051916120ec83611c82565b825284868301526001604083015242606083015260096080830152611f9f565b5f8054915460405163a9059cbb60e01b81526001600160a01b0391821660048201526024810194909452929485939092169183919082906044820190565b03925af190811561074c575f916121a6575b501561216a575f8083612083565b60405162461bcd60e51b81526020600482015260146024820152731554d115081d1c985b9cd9995c8819985a5b195960621b6044820152606490fd5b6121bf915060203d602011610745576107388183611c9e565b5f61215c565b9150505f52603360205260405f2055565b50505050565b60405162461bcd60e51b815260206004820152600e60248201526d155cd95c881b9bdd08199bdd5b9960921b6044820152606490fd5b8054600160401b81101561070b5761222f91600182018155611b6c565b819291549060031b91821b915f19901b1916179055565b1561224d57565b60405162461bcd60e51b8152602060048201526007602482015266125b9d985b1a5960ca1b6044820152606490fd5b1561228357565b60405162461bcd60e51b815260206004820152601060248201526f125b98dbdc9c9958dd08185b5bdd5b9d60821b6044820152606490fd5b8051821015610c105760209160051b010190565b91906122de6008548410612246565b6122f86122ea84611af2565b90549060031b1c341461227c565b825f52602560205260405f2092604051808560208297549384815201905f5260205f20925f5b81811061241e57505061233392500385611c9e565b83519361234285600554611c59565b90825f5260256020526123588260405f20612212565b5f19860195861161056b57612377612419916003611ff19804906122bb565b51916123df60405161238881611c82565b82815260208082018881526040808401898152606085018981525f608087018181528c8252602287528482208a83529096529290922094518555915160018501559051600284015551600383015551600490910155565b835f52602460205260405f20855f526020526123fe8160405f20612212565b835f52602360205260405f20835f5260205260405f20612212565b612f8f565b845483526001948501948994506020909301920161231e565b805f52602c60205260405f20905f52602d602052600a61246d60405f2092600f90600160088201541161249a575b830154611e2e565b049054818110156124935761248191611c4c565b908181111561248e575090565b905090565b5050505f90565b60149150612465565b6038549081158015612502575b6124ef57670de0b6b3a7640000810290808204670de0b6b3a7640000149015171561056b576124ea916124e291611d17565b603254611c59565b603255565b8091506124f95750565b611ff19061250a565b5080156124b0565b6002546001600160a01b03169081156125d7575f805460405163a9059cbb60e01b81526001600160a01b03948516600482015260248101849052936020928592604492849291165af191821561074c57611ff1926125ba575b506005545f52602d60205260405f2061257d828254611c59565b90556005545f52602e60205260405f206040519161259a83611c82565b5f835260208301525f604083015242606083015260056080830152611f9f565b6125d29060203d602011610745576107388183611c9e565b612563565b60405162461bcd60e51b8152602060048201526011602482015270199959481859191c9cc81b9bdd081cd95d607a1b6044820152606490fd5b80158015612745575b61273a575f818152602c6020908152604080832083548154925163a9059cbb60e01b81526001600160a01b0393841660048201526024810189905291959491939284926044928492165af1801561074c5761271d575b50805f52602d602052600160405f20612689868254611c59565b815501612697858254611c59565b90555f52602e6020526126d660405f20604051906126b482611c82565b8482528560208301526001604083015242606083015260016080830152611f9f565b60018060a01b03905416905f52602c6020525f5160206131f75f395f51905f52606060018060a01b0360405f205416936040519081526001602082015260016040820152a3565b6127359060203d602011610745576107388183611c9e565b61266f565b5050611ff19061250a565b506005548114612619565b9091811580156128ae575b6128a157815f52602c60205260405f2060018503612885575b5f8054825460405163a9059cbb60e01b81526001600160a01b0391821660048201526024810186905295949392602092879260449284929091165af192831561074c575f5160206131f75f395f51905f5294606094612868575b50805f52602d602052600160405f206127e8858254611c59565b8155016127f6848254611c59565b90555f52602e60205261283360405f206040519061281382611c82565b878252846020830152886040830152428683015260016080830152611f9f565b60018060a01b03905416935f52602c60205260018060a01b0360405f20541694604051918252602082015260016040820152a3565b6128809060203d602011610745576107388183611c9e565b6127ce565b600260078201541015612774575b50915050611ff1915061250a565b915050611ff1915061250a565b50600554821461275b565b5f19811461056b5760010190565b93919392909260019060055481148015612aad575b612a4857905b828110612a6c5750925f935b80151580612a60575b80612a56575b15612a4857805f52602c60205260405f209083600683015410156129305750600561292a910154946128b9565b936128ee565b5f8054835460405163a9059cbb60e01b81526001600160a01b039182166004820152602481018b9052979996985094969592949293926020928792604492849291165af192831561074c575f5160206131f75f395f51905f5294606094612a2c575b50805f52602d602052600260405f206129ac858254611c59565b8155016129ba848254611c59565b90555f52602e6020526129f760405f20604051906129d782611c82565b878252846020830152886040830152428683015260026080830152611f9f565b60018060a01b03905416935f52602c60205260018060a01b0360405f20541694604051918252602082015260026040820152a3565b612a439060203d8111610745576107388183611c9e565b612992565b50505091611ff1915061250a565b50600f85106128fd565b506005548114156128f7565b612a75906128b9565b905f52602c602052600560405f2001549060055482148015612aa5575b156128e25750505091611ff1915061250a565b508115612a92565b5080156128dc565b939190929380158015612cd3575b61289357821561289357612aeb612ada8484611d17565b92612ae58585611e2e565b90611c4c565b94600191945f5b858110612b085750505050505050806124f95750565b86151580612cc7575b612b46575b60019087158015612b3b575b612b2d575b01612af2565b612b368661250a565b612b27565b506005548814612b22565b92865f97929752602c60205282600660405f20015410155f14612ca5575f5b818110612b8a5750505f52602c602052600560405f20015494600180935b9050612b16565b5f838152602c60209081526040808320548354915163a9059cbb60e01b81526001600160a01b0391821660048201819052602482018c9052909594909392869260449284929091165af192831561074c57600193612c89575b50845f52602d602052600360405f20612bfd8a8254611c59565b815501612c0b898254611c59565b9055845f52602e602052612c4a60405f2060405190612c2982611c82565b8c82528a602083015288604083015242606083015260046080830152611f9f565b895f52602c602052828060a01b0360405f205416905f5160206131f75f395f51905f5260606040518b815289602082015260046040820152a301612b65565b612ca09060203d8111610745576107388183611c9e565b612be3565b95905f52602c6020526001612cc1600560405f200154976128b9565b93612b83565b50600554871415612b11565b506005548114612ac3565b612ceb6009548210612246565b612cf76122ea82611b22565b805f52602960205260405f20604051808260208294549384815201905f5260205f20925f5b818110612f76575050612d3192500382611c9e565b805190825f526029602052612d498460405f20612212565b5f19820191821161056b576003612d619204906122bb565b5190604051612d6f81611c66565b8381526003602082018381526040830185815260608401915f8352855f52602760205260405f20885f5260205260405f209451855551600185015551600284015551910155805f52602860205260405f20825f52602052612dd38360405f20612212565b81158015612f6b575b612f5f575f52602760205260405f20815f52602052600360405f200160038154105f14612f5f578054906001820180921161056b5755805f52602d602052600960405f20612e2b858254611c59565b815501612e39848254611c59565b9055805f52602e602052612e7960405f2060405190612e5782611c82565b84825285602083015260016040830152426060830152600b6080830152611f9f565b5f908152602c60205260409020546001600160a01b0316908215605f848102908582041482171561056b575f805460405163a9059cbb60e01b81526001600160a01b03878116600483015260649094046024820152926020928492604492849291165af1801561074c57612f42575b506005840290848204600514171561056b576064612f06910461250a565b5f52602c6020525f5160206131f75f395f51905f52606060018060a01b0360405f2054169360405190815260016020820152600b6040820152a3565b612f5a9060203d602011610745576107388183611c9e565b612ee8565b505050611ff19061250a565b506005548214612ddc565b8454835260019485019486945060209093019201612d1c565b9192821580156131eb575b6128a15760039004905f5b60038110612fb4575050505050565b815f52602260205260405f20845f5260205260405f209060046001830154920191825460278110612fec575b50506001915001612fa5565b6018811061308e575b508254601881101580613084575b61304e575b50825460248110612fe0576001810180911161056b5760019355835f52602160205260405f20905f526020528160405f2001613045858254611c59565b90555f80612fe0565b6001810180911161056b578355835f52602160205260405f20815f5260205260405f2061307c868254611c59565b90555f613008565b5060248110613003565b6001810180911161056b578355805f52602d602052600860405f206130b4878254611c59565b8155016130c2868254611c59565b9055805f52602e60205261310260405f20604051906130e082611c82565b89825287602083015260016040830152426060830152600a6080830152611f9f565b5f818152602c60205260409020546001600160a01b03168515605f878102908882041482171561056b575f805460405163a9059cbb60e01b81526001600160a01b03868116600483015260649094046024820152926020928492604492849291165af1801561074c576131cf575b506005870290878204600514171561056b57606461318e910461250a565b875f52602c60205260018060a01b0360405f205416905f5160206131f75f395f51905f52606060405189815260016020820152600a6040820152a35f612ff5565b6131e69060203d8111610745576107388183611c9e565b613170565b506005548314612f9a56fee17b61d324ce17328f433d0ab62581c0f0aa997312bae80fbdfcd2aa9b91d6e3babb6a363fd9a057996d09882c0b74b710d121707d19eeffd91c51c3171a7c91a2646970667358221220972c413ac1dcfca8099b0818dfa96ecd576a58f37c56fcbadb4945ee4abd6fc864736f6c634300081e0033a66cc928b5edb82af9bd49922954155ab7b0942694bea4ce44661d9a8736c688f3f7a9fe364faab93b216da50a3214154f22a0a2b415b23a84c8169e8b636ee36e1540171b6c0c960b71a7020d9f60077f6af931a8bbf590da0223dacf75c7af",
					"opcodes": "PUSH1 0x80 PUSH1 0x40 MSTORE CALLVALUE PUSH2 0x8D9 JUMPI PUSH1 0x40 MLOAD PUSH1 0x1F PUSH2 0x3C60 CODESIZE DUP2 SWAP1 SUB SWAP2 DUP3 ADD PUSH1 0x1F NOT AND DUP4 ADD SWAP2 PUSH1 0x1 PUSH1 0x1 PUSH1 0x40 SHL SUB DUP4 GT DUP5 DUP5 LT OR PUSH2 0x638 JUMPI DUP1 DUP5 SWAP3 PUSH1 0x80 SWAP5 PUSH1 0x40 MSTORE DUP4 CODECOPY DUP2 ADD SUB SLT PUSH2 0x8D9 JUMPI PUSH2 0x4D DUP2 PUSH2 0x91C JUMP JUMPDEST PUSH2 0x59 PUSH1 0x20 DUP4 ADD PUSH2 0x91C JUMP JUMPDEST PUSH2 0x71 PUSH1 0x60 PUSH2 0x6A PUSH1 0x40 DUP7 ADD PUSH2 0x91C JUMP JUMPDEST SWAP5 ADD PUSH2 0x91C JUMP JUMPDEST PUSH1 0x40 MLOAD SWAP1 SWAP3 SWAP1 PUSH2 0x1E0 DUP2 ADD PUSH1 0x1 PUSH1 0x1 PUSH1 0x40 SHL SUB DUP2 GT DUP3 DUP3 LT OR PUSH2 0x638 JUMPI PUSH1 0x40 MSTORE PUSH8 0xD02AB486CEDC0000 DUP2 MSTORE PUSH9 0x15AF1D78B58C40000 PUSH1 0x20 DUP3 ADD MSTORE PUSH9 0x2B5E3AF16B1880000 PUSH1 0x40 DUP3 ADD MSTORE PUSH9 0x56BC75E2D63100000 PUSH1 0x60 DUP3 ADD MSTORE PUSH9 0xAD78EBC5AC6200000 PUSH1 0x80 DUP3 ADD MSTORE PUSH9 0x15AF1D78B58C400000 PUSH1 0xA0 DUP3 ADD MSTORE PUSH9 0x2B5E3AF16B18800000 PUSH1 0xC0 DUP3 ADD MSTORE PUSH9 0x56BC75E2D631000000 PUSH1 0xE0 DUP3 ADD MSTORE PUSH9 0xAD78EBC5AC62000000 PUSH2 0x100 DUP3 ADD MSTORE PUSH10 0x15AF1D78B58C4000000 PUSH2 0x120 DUP3 ADD MSTORE PUSH10 0x2B5E3AF16B188000000 PUSH2 0x140 DUP3 ADD MSTORE PUSH10 0x56BC75E2D6310000000 PUSH2 0x160 DUP3 ADD MSTORE PUSH10 0xAD78EBC5AC620000000 PUSH2 0x180 DUP3 ADD MSTORE PUSH10 0x15AF1D78B58C40000000 PUSH2 0x1A0 DUP3 ADD MSTORE PUSH10 0x2B5E3AF16B1880000000 PUSH2 0x1C0 DUP3 ADD MSTORE PUSH1 0x7 SLOAD PUSH1 0xF PUSH1 0x7 SSTORE DUP1 PUSH1 0xF LT PUSH2 0x896 JUMPI JUMPDEST POP PUSH1 0x7 PUSH0 MSTORE PUSH1 0x20 PUSH0 KECCAK256 SWAP1 PUSH0 JUMPDEST PUSH1 0xF DUP2 LT PUSH2 0x879 JUMPI POP POP POP PUSH2 0x1AB PUSH2 0x8DD JUMP JUMPDEST PUSH9 0x410D586A20A4C0000 DUP2 MSTORE PUSH9 0x1043561A8829300000 PUSH1 0x20 DUP3 ADD MSTORE PUSH9 0x410D586A20A4C00000 PUSH1 0x40 DUP3 ADD MSTORE PUSH10 0x1043561A88293000000 PUSH1 0x60 DUP3 ADD MSTORE PUSH10 0x410D586A20A4C000000 PUSH1 0x80 DUP3 ADD MSTORE PUSH10 0x1043561A882930000000 PUSH1 0xA0 DUP3 ADD MSTORE PUSH10 0x410D586A20A4C0000000 PUSH1 0xC0 DUP3 ADD MSTORE PUSH1 0x8 SLOAD PUSH1 0x7 PUSH1 0x8 SSTORE DUP1 PUSH1 0x7 LT PUSH2 0x836 JUMPI JUMPDEST POP PUSH1 0x8 PUSH0 MSTORE PUSH1 0x20 PUSH0 KECCAK256 SWAP1 PUSH0 JUMPDEST PUSH1 0x7 DUP2 LT PUSH2 0x819 JUMPI POP POP POP PUSH2 0x245 PUSH2 0x8FC JUMP JUMPDEST PUSH9 0x56BC75E2D63100000 DUP2 MSTORE PUSH9 0xAD78EBC5AC6200000 PUSH1 0x20 DUP3 ADD MSTORE PUSH9 0x15AF1D78B58C400000 PUSH1 0x40 DUP3 ADD MSTORE PUSH9 0x2B5E3AF16B18800000 PUSH1 0x60 DUP3 ADD MSTORE PUSH9 0x56BC75E2D631000000 PUSH1 0x80 DUP3 ADD MSTORE PUSH9 0xAD78EBC5AC62000000 PUSH1 0xA0 DUP3 ADD MSTORE PUSH10 0x15AF1D78B58C4000000 PUSH1 0xC0 DUP3 ADD MSTORE PUSH10 0x2B5E3AF16B188000000 PUSH1 0xE0 DUP3 ADD MSTORE PUSH1 0x9 SLOAD PUSH1 0x8 PUSH1 0x9 SSTORE DUP1 PUSH1 0x8 LT PUSH2 0x7D6 JUMPI JUMPDEST POP PUSH1 0x9 PUSH0 MSTORE PUSH1 0x20 PUSH0 KECCAK256 SWAP1 PUSH0 JUMPDEST PUSH1 0x8 DUP2 LT PUSH2 0x7B9 JUMPI POP POP POP PUSH2 0x2EC PUSH2 0x8DD JUMP JUMPDEST PUSH1 0x3 DUP2 MSTORE PUSH1 0x5 PUSH1 0x20 DUP3 ADD MSTORE PUSH1 0x7 PUSH1 0x40 DUP3 ADD MSTORE PUSH1 0x9 PUSH1 0x60 DUP3 ADD MSTORE PUSH1 0xB PUSH1 0x80 DUP3 ADD MSTORE PUSH1 0xD PUSH1 0xA0 DUP3 ADD MSTORE PUSH1 0xF PUSH1 0xC0 DUP3 ADD MSTORE PUSH0 JUMPDEST PUSH1 0x7 DUP2 LT PUSH2 0x7A1 JUMPI POP POP PUSH2 0x32E PUSH2 0x8FC JUMP JUMPDEST PUSH1 0x4 DUP2 MSTORE PUSH1 0x5 PUSH1 0x20 DUP3 ADD MSTORE PUSH1 0x6 PUSH1 0x40 DUP3 ADD MSTORE PUSH1 0x7 PUSH1 0x60 DUP3 ADD MSTORE PUSH1 0x8 PUSH1 0x80 DUP3 ADD MSTORE PUSH1 0x9 PUSH1 0xA0 DUP3 ADD MSTORE PUSH1 0xA PUSH1 0xC0 DUP3 ADD MSTORE PUSH1 0xB PUSH1 0xE0 DUP3 ADD MSTORE PUSH0 JUMPDEST PUSH1 0x8 DUP2 LT PUSH2 0x789 JUMPI POP POP PUSH2 0x377 PUSH2 0x8FC JUMP JUMPDEST PUSH0 DUP2 MSTORE PUSH1 0x1 PUSH1 0x20 DUP3 ADD MSTORE PUSH1 0x1 PUSH1 0x40 DUP3 ADD MSTORE PUSH1 0x1 PUSH1 0x60 DUP3 ADD MSTORE PUSH1 0x1 PUSH1 0x80 DUP3 ADD MSTORE PUSH1 0x1 PUSH1 0xA0 DUP3 ADD MSTORE PUSH1 0x1 PUSH1 0xC0 DUP3 ADD MSTORE PUSH1 0x1 PUSH1 0xE0 DUP3 ADD MSTORE PUSH0 JUMPDEST PUSH1 0x8 DUP2 LT PUSH2 0x771 JUMPI POP POP PUSH3 0x15180 PUSH1 0x37 SSTORE PUSH0 DUP1 SLOAD PUSH1 0x1 PUSH1 0x1 PUSH1 0xA0 SHL SUB NOT SWAP1 DUP2 AND PUSH1 0x1 PUSH1 0x1 PUSH1 0xA0 SHL SUB SWAP4 DUP5 AND OR DUP3 SSTORE PUSH1 0x2 DUP1 SLOAD DUP3 AND SWAP5 DUP5 AND SWAP5 DUP6 OR DUP2 SSTORE PUSH1 0x3 DUP1 SLOAD DUP4 AND SWAP8 DUP6 AND SWAP8 SWAP1 SWAP8 OR SWAP1 SWAP7 SSTORE PUSH1 0x4 DUP1 SLOAD DUP3 AND SWAP6 SWAP1 SWAP4 AND SWAP5 SWAP1 SWAP5 OR SWAP1 SWAP2 SSTORE PUSH2 0x3E8 PUSH1 0x5 DUP2 SWAP1 SSTORE PUSH1 0x1 PUSH1 0x6 SSTORE DUP1 DUP3 MSTORE PUSH1 0x2C PUSH1 0x20 MSTORE PUSH32 0x6C4C1A4F9839DCA97A983C55CBFC33E7D08925BEA4A675C4EA728373A4A1718E DUP1 SLOAD SWAP1 SWAP5 AND DUP4 OR DUP5 SSTORE PUSH32 0x6C4C1A4F9839DCA97A983C55CBFC33E7D08925BEA4A675C4EA728373A4A17191 SSTORE PUSH1 0xF PUSH32 0x6C4C1A4F9839DCA97A983C55CBFC33E7D08925BEA4A675C4EA728373A4A17194 SSTORE TIMESTAMP PUSH32 0x6C4C1A4F9839DCA97A983C55CBFC33E7D08925BEA4A675C4EA728373A4A1719D SSTORE PUSH1 0x7 PUSH32 0x6C4C1A4F9839DCA97A983C55CBFC33E7D08925BEA4A675C4EA728373A4A17199 DUP2 SWAP1 SSTORE PUSH1 0x8 PUSH32 0x6C4C1A4F9839DCA97A983C55CBFC33E7D08925BEA4A675C4EA728373A4A1719B SSTORE PUSH32 0x6C4C1A4F9839DCA97A983C55CBFC33E7D08925BEA4A675C4EA728373A4A17196 SWAP5 SWAP1 SWAP5 SSTORE SWAP3 SLOAD SWAP2 SWAP3 SWAP1 SWAP2 DUP2 SWAP1 JUMPDEST PUSH1 0xF DUP3 LT PUSH2 0x73D JUMPI POP POP PUSH1 0xA DUP4 ADD SSTORE PUSH1 0x5 SLOAD PUSH0 SWAP2 DUP3 MSTORE PUSH1 0x2B PUSH1 0x20 MSTORE PUSH1 0x40 DUP3 KECCAK256 SSTORE DUP1 JUMPDEST PUSH1 0x8 SLOAD DUP3 LT ISZERO PUSH2 0x660 JUMPI PUSH1 0x8 SLOAD DUP3 LT ISZERO PUSH2 0x64C JUMPI PUSH1 0x8 PUSH0 MSTORE PUSH0 MLOAD PUSH1 0x20 PUSH2 0x3C20 PUSH0 CODECOPY PUSH0 MLOAD SWAP1 PUSH0 MSTORE DUP3 ADD SLOAD PUSH2 0x57E SWAP2 PUSH2 0x946 JUMP JUMPDEST PUSH1 0x5 SLOAD PUSH1 0x40 MLOAD SWAP2 SWAP3 SWAP1 SWAP2 PUSH1 0xA0 DUP2 ADD PUSH1 0x1 PUSH1 0x1 PUSH1 0x40 SHL SUB DUP2 GT DUP3 DUP3 LT OR PUSH2 0x638 JUMPI PUSH1 0x1 SWAP4 PUSH1 0x4 SWAP2 PUSH1 0x40 MSTORE DUP1 DUP4 MSTORE PUSH1 0x20 DUP4 ADD DUP2 DUP2 MSTORE PUSH1 0x40 DUP5 ADD DUP6 DUP2 MSTORE PUSH1 0x60 DUP6 ADD SWAP2 PUSH0 DUP4 MSTORE PUSH1 0x80 DUP7 ADD SWAP4 PUSH0 DUP6 MSTORE DUP8 PUSH0 MSTORE PUSH1 0x22 PUSH1 0x20 MSTORE PUSH1 0x40 PUSH0 KECCAK256 SWAP1 PUSH0 MSTORE PUSH1 0x20 MSTORE PUSH1 0x40 PUSH0 KECCAK256 SWAP6 MLOAD DUP7 SSTORE MLOAD DUP8 DUP7 ADD SSTORE MLOAD PUSH1 0x2 DUP6 ADD SSTORE MLOAD PUSH1 0x3 DUP5 ADD SSTORE MLOAD SWAP2 ADD SSTORE DUP1 PUSH0 MSTORE PUSH1 0x25 PUSH1 0x20 MSTORE PUSH2 0x60F PUSH1 0x40 PUSH0 KECCAK256 PUSH1 0x5 SLOAD SWAP1 PUSH2 0x967 JUMP JUMPDEST DUP1 PUSH0 MSTORE PUSH1 0x24 PUSH1 0x20 MSTORE PUSH2 0x631 PUSH1 0x40 PUSH0 KECCAK256 PUSH1 0x5 SLOAD SWAP1 DUP2 PUSH0 MSTORE PUSH1 0x20 MSTORE PUSH1 0x40 PUSH0 KECCAK256 PUSH2 0x967 JUMP JUMPDEST ADD SWAP1 PUSH2 0x54C JUMP JUMPDEST PUSH4 0x4E487B71 PUSH1 0xE0 SHL PUSH0 MSTORE PUSH1 0x41 PUSH1 0x4 MSTORE PUSH1 0x24 PUSH0 REVERT JUMPDEST PUSH4 0x4E487B71 PUSH1 0xE0 SHL PUSH0 MSTORE PUSH1 0x32 PUSH1 0x4 MSTORE PUSH1 0x24 PUSH0 REVERT JUMPDEST PUSH1 0xC DUP4 ADD SSTORE POP PUSH0 SWAP1 DUP2 JUMPDEST PUSH1 0x8 DUP2 LT PUSH2 0x686 JUMPI POP PUSH1 0xE ADD SSTORE PUSH1 0x40 MLOAD PUSH2 0x326C SWAP1 DUP2 PUSH2 0x994 DUP3 CODECOPY RETURN JUMPDEST SWAP1 SWAP2 PUSH1 0x9 SLOAD DUP3 LT ISZERO PUSH2 0x64C JUMPI PUSH1 0x9 PUSH0 MSTORE PUSH0 MLOAD PUSH1 0x20 PUSH2 0x3C40 PUSH0 CODECOPY PUSH0 MLOAD SWAP1 PUSH0 MSTORE DUP3 ADD SLOAD PUSH2 0x6B0 SWAP2 PUSH2 0x946 JUMP JUMPDEST PUSH1 0x5 SLOAD PUSH1 0x40 MLOAD SWAP2 SWAP3 SWAP1 SWAP2 PUSH1 0x80 DUP2 ADD PUSH1 0x1 PUSH1 0x1 PUSH1 0x40 SHL SUB DUP2 GT DUP3 DUP3 LT OR PUSH2 0x638 JUMPI PUSH1 0x1 SWAP4 PUSH1 0x3 SWAP2 PUSH1 0x40 MSTORE DUP1 DUP4 MSTORE PUSH1 0x20 DUP4 ADD DUP5 DUP2 MSTORE PUSH1 0x40 DUP5 ADD SWAP1 PUSH0 DUP3 MSTORE PUSH1 0x60 DUP6 ADD SWAP3 PUSH0 DUP5 MSTORE DUP7 PUSH0 MSTORE PUSH1 0x27 PUSH1 0x20 MSTORE PUSH1 0x40 PUSH0 KECCAK256 SWAP1 PUSH0 MSTORE PUSH1 0x20 MSTORE PUSH1 0x40 PUSH0 KECCAK256 SWAP5 MLOAD DUP6 SSTORE MLOAD DUP7 DUP6 ADD SSTORE MLOAD PUSH1 0x2 DUP5 ADD SSTORE MLOAD SWAP2 ADD SSTORE DUP1 PUSH0 MSTORE PUSH1 0x29 PUSH1 0x20 MSTORE PUSH2 0x734 PUSH1 0x40 PUSH0 KECCAK256 PUSH1 0x5 SLOAD SWAP1 PUSH2 0x967 JUMP JUMPDEST ADD SWAP2 SWAP1 SWAP2 PUSH2 0x66A JUMP JUMPDEST SWAP1 SWAP2 DUP2 DUP4 LT ISZERO PUSH2 0x64C JUMPI PUSH1 0x7 PUSH0 MSTORE PUSH0 MLOAD PUSH1 0x20 PUSH2 0x3C00 PUSH0 CODECOPY PUSH0 MLOAD SWAP1 PUSH0 MSTORE DUP4 ADD SLOAD PUSH1 0x1 SWAP2 PUSH2 0x769 SWAP2 SWAP1 PUSH2 0x946 JUMP JUMPDEST SWAP3 ADD SWAP1 PUSH2 0x52A JUMP JUMPDEST PUSH1 0x1 SWAP1 PUSH1 0x20 PUSH1 0xFF DUP5 MLOAD AND SWAP4 ADD SWAP3 DUP2 PUSH1 0x19 ADD SSTORE ADD PUSH2 0x3AD JUMP JUMPDEST PUSH1 0x1 SWAP1 PUSH1 0x20 PUSH1 0xFF DUP5 MLOAD AND SWAP4 ADD SWAP3 DUP2 PUSH1 0x11 ADD SSTORE ADD PUSH2 0x365 JUMP JUMPDEST PUSH1 0x1 SWAP1 PUSH1 0x20 PUSH1 0xFF DUP5 MLOAD AND SWAP4 ADD SWAP3 DUP2 PUSH1 0xA ADD SSTORE ADD PUSH2 0x31C JUMP JUMPDEST DUP2 MLOAD PUSH1 0x1 PUSH1 0x1 PUSH1 0x50 SHL SUB AND DUP2 DUP5 ADD SSTORE PUSH1 0x20 SWAP1 SWAP2 ADD SWAP1 PUSH1 0x1 ADD PUSH2 0x2D9 JUMP JUMPDEST PUSH1 0x9 PUSH0 MSTORE PUSH2 0x813 SWAP1 PUSH0 MLOAD PUSH1 0x20 PUSH2 0x3C40 PUSH0 CODECOPY PUSH0 MLOAD SWAP1 PUSH0 MSTORE ADD PUSH32 0x6E1540171B6C0C960B71A7020D9F60077F6AF931A8BBF590DA0223DACF75C7B7 PUSH2 0x930 JUMP JUMPDEST PUSH0 PUSH2 0x2CD JUMP JUMPDEST DUP2 MLOAD PUSH1 0x1 PUSH1 0x1 PUSH1 0x50 SHL SUB AND DUP2 DUP5 ADD SSTORE PUSH1 0x20 SWAP1 SWAP2 ADD SWAP1 PUSH1 0x1 ADD PUSH2 0x232 JUMP JUMPDEST PUSH1 0x8 PUSH0 MSTORE PUSH2 0x873 SWAP1 PUSH0 MLOAD PUSH1 0x20 PUSH2 0x3C20 PUSH0 CODECOPY PUSH0 MLOAD SWAP1 PUSH0 MSTORE ADD PUSH32 0xF3F7A9FE364FAAB93B216DA50A3214154F22A0A2B415B23A84C8169E8B636EEA PUSH2 0x930 JUMP JUMPDEST PUSH0 PUSH2 0x226 JUMP JUMPDEST DUP2 MLOAD PUSH1 0x1 PUSH1 0x1 PUSH1 0x50 SHL SUB AND DUP2 DUP5 ADD SSTORE PUSH1 0x20 SWAP1 SWAP2 ADD SWAP1 PUSH1 0x1 ADD PUSH2 0x198 JUMP JUMPDEST PUSH1 0x7 PUSH0 MSTORE PUSH2 0x8D3 SWAP1 PUSH0 MLOAD PUSH1 0x20 PUSH2 0x3C00 PUSH0 CODECOPY PUSH0 MLOAD SWAP1 PUSH0 MSTORE ADD PUSH32 0xA66CC928B5EDB82AF9BD49922954155AB7B0942694BEA4CE44661D9A8736C697 PUSH2 0x930 JUMP JUMPDEST PUSH0 PUSH2 0x18C JUMP JUMPDEST PUSH0 DUP1 REVERT JUMPDEST PUSH1 0x40 MLOAD SWAP1 PUSH1 0xE0 DUP3 ADD PUSH1 0x1 PUSH1 0x1 PUSH1 0x40 SHL SUB DUP2 GT DUP4 DUP3 LT OR PUSH2 0x638 JUMPI PUSH1 0x40 MSTORE JUMP JUMPDEST PUSH1 0x40 MLOAD SWAP1 PUSH2 0x100 DUP3 ADD PUSH1 0x1 PUSH1 0x1 PUSH1 0x40 SHL SUB DUP2 GT DUP4 DUP3 LT OR PUSH2 0x638 JUMPI PUSH1 0x40 MSTORE JUMP JUMPDEST MLOAD SWAP1 PUSH1 0x1 PUSH1 0x1 PUSH1 0xA0 SHL SUB DUP3 AND DUP3 SUB PUSH2 0x8D9 JUMPI JUMP JUMPDEST DUP2 DUP2 LT PUSH2 0x93B JUMPI POP POP JUMP JUMPDEST PUSH0 DUP2 SSTORE PUSH1 0x1 ADD PUSH2 0x930 JUMP JUMPDEST SWAP2 SWAP1 DUP3 ADD DUP1 SWAP3 GT PUSH2 0x953 JUMPI JUMP JUMPDEST PUSH4 0x4E487B71 PUSH1 0xE0 SHL PUSH0 MSTORE PUSH1 0x11 PUSH1 0x4 MSTORE PUSH1 0x24 PUSH0 REVERT JUMPDEST DUP1 SLOAD SWAP1 PUSH9 0x10000000000000000 DUP3 LT ISZERO PUSH2 0x638 JUMPI PUSH1 0x1 DUP3 ADD DUP1 DUP3 SSTORE DUP3 LT ISZERO PUSH2 0x64C JUMPI PUSH0 MSTORE PUSH1 0x20 PUSH0 KECCAK256 ADD SSTORE JUMP INVALID PUSH1 0x80 DUP1 PUSH1 0x40 MSTORE PUSH1 0x4 CALLDATASIZE LT ISZERO PUSH2 0x12 JUMPI PUSH0 DUP1 REVERT JUMPDEST PUSH0 CALLDATALOAD PUSH1 0xE0 SHR SWAP1 DUP2 PUSH4 0x1BE02B2 EQ PUSH2 0x1ABE JUMPI POP DUP1 PUSH4 0x1C234A8 EQ PUSH2 0x1AA2 JUMPI DUP1 PUSH4 0xEF81B74 EQ PUSH2 0x1A69 JUMPI DUP1 PUSH4 0xF2B7CC9 EQ PUSH2 0x1A3A JUMPI DUP1 PUSH4 0x18AB487F EQ PUSH2 0x1A10 JUMPI DUP1 PUSH4 0x1F6AB899 EQ PUSH2 0x18E8 JUMPI DUP1 PUSH4 0x2132D204 EQ PUSH2 0x18BC JUMPI DUP1 PUSH4 0x24513088 EQ PUSH2 0x1892 JUMPI DUP1 PUSH4 0x2C831633 EQ PUSH2 0x1875 JUMPI DUP1 PUSH4 0x2F48AB7D EQ PUSH2 0x184E JUMPI DUP1 PUSH4 0x32BC298C EQ PUSH2 0x1831 JUMPI DUP1 PUSH4 0x32FCD966 EQ PUSH2 0x180F JUMPI DUP1 PUSH4 0x365B98B2 EQ PUSH2 0x173D JUMPI DUP1 PUSH4 0x375B43B4 EQ PUSH2 0x1722 JUMPI DUP1 PUSH4 0x39AB3603 EQ PUSH2 0x16C8 JUMPI DUP1 PUSH4 0x4060160A EQ PUSH2 0x1468 JUMPI DUP1 PUSH4 0x45977D03 EQ PUSH2 0x1266 JUMPI DUP1 PUSH4 0x46B9DECE EQ PUSH2 0x11D8 JUMPI DUP1 PUSH4 0x52A8C4C4 EQ PUSH2 0x11BB JUMPI DUP1 PUSH4 0x58C7D352 EQ PUSH2 0x11A0 JUMPI DUP1 PUSH4 0x5AABF7F1 EQ PUSH2 0x1167 JUMPI DUP1 PUSH4 0x5EC64A44 EQ PUSH2 0x1138 JUMPI DUP1 PUSH4 0x67D52D4D EQ PUSH2 0x10E1 JUMPI DUP1 PUSH4 0x70C8D770 EQ PUSH2 0x1074 JUMPI DUP1 PUSH4 0x78F6AD6D EQ PUSH2 0x1057 JUMPI DUP1 PUSH4 0x7CDC65F2 EQ PUSH2 0x102F JUMPI DUP1 PUSH4 0x81A0B816 EQ PUSH2 0x1007 JUMPI DUP1 PUSH4 0x88AFBE3E EQ PUSH2 0xFDD JUMPI DUP1 PUSH4 0x8D58644C EQ PUSH2 0xFA4 JUMPI DUP1 PUSH4 0x8DA5CB5B EQ PUSH2 0xF7C JUMPI DUP1 PUSH4 0x8E222E24 EQ PUSH2 0xD60 JUMPI DUP1 PUSH4 0x8F030ECE EQ PUSH2 0xD27 JUMPI DUP1 PUSH4 0x907C84A7 EQ PUSH2 0xCD6 JUMPI DUP1 PUSH4 0x956A3228 EQ PUSH2 0xCAA JUMPI DUP1 PUSH4 0x9C383486 EQ PUSH2 0xC76 JUMPI DUP1 PUSH4 0x9E234631 EQ PUSH2 0xC4D JUMPI DUP1 PUSH4 0xAE4708DC EQ PUSH2 0xC24 JUMPI DUP1 PUSH4 0xBC1FA7C0 EQ PUSH2 0x9F2 JUMPI DUP1 PUSH4 0xBD1AAE40 EQ PUSH2 0x9BE JUMPI DUP1 PUSH4 0xBF724672 EQ PUSH2 0x986 JUMPI DUP1 PUSH4 0xBFF1F9E1 EQ PUSH2 0x969 JUMPI DUP1 PUSH4 0xC216212A EQ PUSH2 0x940 JUMPI DUP1 PUSH4 0xC7BB62E8 EQ PUSH2 0x902 JUMPI DUP1 PUSH4 0xCB0E0D7D EQ PUSH2 0x8C6 JUMPI DUP1 PUSH4 0xCE79C2C3 EQ PUSH2 0x857 JUMPI DUP1 PUSH4 0xD0A2FD79 EQ PUSH2 0x82B JUMPI DUP1 PUSH4 0xD54D6DDB EQ PUSH2 0x80D JUMPI DUP1 PUSH4 0xE9E34A16 EQ PUSH2 0x7E5 JUMPI DUP1 PUSH4 0xEC597E6F EQ PUSH2 0x7C8 JUMPI DUP1 PUSH4 0xF207564E EQ PUSH2 0x279 JUMPI PUSH4 0xF5D74D93 EQ PUSH2 0x24D JUMPI PUSH0 DUP1 REVERT JUMPDEST CALLVALUE PUSH2 0x275 JUMPI PUSH0 CALLDATASIZE PUSH1 0x3 NOT ADD SLT PUSH2 0x275 JUMPI PUSH1 0x4 SLOAD PUSH1 0x40 MLOAD PUSH1 0x1 PUSH1 0x1 PUSH1 0xA0 SHL SUB SWAP1 SWAP2 AND DUP2 MSTORE PUSH1 0x20 SWAP1 RETURN JUMPDEST PUSH0 DUP1 REVERT JUMPDEST CALLVALUE PUSH2 0x275 JUMPI PUSH1 0x20 CALLDATASIZE PUSH1 0x3 NOT ADD SLT PUSH2 0x275 JUMPI PUSH1 0x4 CALLDATALOAD CALLER PUSH0 MSTORE PUSH1 0x2B PUSH1 0x20 MSTORE PUSH1 0x40 PUSH0 KECCAK256 SLOAD PUSH2 0x78E JUMPI DUP1 PUSH0 MSTORE PUSH1 0x2C PUSH1 0x20 MSTORE PUSH1 0x3 PUSH1 0x40 PUSH0 KECCAK256 ADD SLOAD ISZERO PUSH2 0x757 JUMPI PUSH0 DUP1 SLOAD PUSH1 0x20 SWAP1 PUSH2 0x304 SWAP1 PUSH1 0x1 PUSH1 0x1 PUSH1 0xA0 SHL SUB AND PUSH2 0x2CE PUSH2 0x1B3A JUMP JUMPDEST SWAP1 SLOAD PUSH1 0x40 MLOAD PUSH4 0x23B872DD PUSH1 0xE0 SHL DUP2 MSTORE CALLER PUSH1 0x4 DUP3 ADD MSTORE ADDRESS PUSH1 0x24 DUP3 ADD MSTORE PUSH1 0x3 SWAP3 SWAP1 SWAP3 SHL SHR PUSH1 0x44 DUP3 ADD MSTORE SWAP4 DUP5 SWAP3 DUP4 SWAP2 SWAP1 DUP3 SWAP1 PUSH1 0x64 DUP3 ADD SWAP1 JUMP JUMPDEST SUB SWAP3 GAS CALL DUP1 ISZERO PUSH2 0x74C JUMPI PUSH2 0x71F JUMPI JUMPDEST POP PUSH1 0x5 SLOAD PUSH1 0x6 SLOAD PUSH1 0x5 DUP2 MUL SWAP1 DUP1 DUP3 DIV PUSH1 0x5 EQ SWAP1 ISZERO OR ISZERO PUSH2 0x56B JUMPI PUSH2 0x336 SWAP2 PUSH2 0x1C59 JUMP JUMPDEST SWAP1 CALLER PUSH0 MSTORE PUSH1 0x2B PUSH1 0x20 MSTORE DUP2 PUSH1 0x40 PUSH0 KECCAK256 SSTORE DUP2 PUSH0 MSTORE PUSH1 0x2C PUSH1 0x20 MSTORE PUSH1 0x40 PUSH0 KECCAK256 SWAP1 CALLER PUSH12 0xFFFFFFFFFFFFFFFFFFFFFFFF PUSH1 0xA0 SHL DUP4 SLOAD AND OR DUP3 SSTORE TIMESTAMP PUSH1 0x2 DUP4 ADD SSTORE DUP3 PUSH1 0x3 DUP4 ADD SSTORE PUSH1 0x4 DUP3 ADD DUP2 DUP2 SSTORE PUSH1 0x1 PUSH1 0x6 DUP5 ADD SSTORE PUSH2 0x38B PUSH2 0x1B3A JUMP JUMPDEST SWAP1 SLOAD SWAP1 PUSH1 0x3 SHL SHR PUSH1 0xA DUP5 ADD SSTORE TIMESTAMP PUSH1 0xF DUP5 ADD SSTORE DUP2 PUSH0 MSTORE PUSH1 0x2C PUSH1 0x20 MSTORE PUSH1 0x7 PUSH1 0x40 PUSH0 KECCAK256 ADD DUP1 SLOAD SWAP1 PUSH1 0x1 DUP3 ADD DUP1 SWAP3 GT PUSH2 0x56B JUMPI SSTORE DUP2 PUSH0 MSTORE PUSH1 0x31 PUSH1 0x20 MSTORE PUSH2 0x3D0 DUP5 PUSH1 0x40 PUSH0 KECCAK256 PUSH2 0x2212 JUMP JUMPDEST PUSH1 0x38 SLOAD PUSH1 0x1 PUSH1 0x40 SHL DUP2 LT ISZERO PUSH2 0x70B JUMPI DUP1 PUSH1 0x1 PUSH2 0x3F1 SWAP3 ADD PUSH1 0x38 SSTORE PUSH1 0x38 PUSH2 0x1B6C JUMP JUMPDEST DUP2 SLOAD SWAP1 PUSH1 0x3 SHL SWAP1 DUP7 DUP3 SHL SWAP2 PUSH0 NOT SWAP1 SHL NOT AND OR SWAP1 SSTORE PUSH1 0x32 SLOAD DUP5 PUSH0 MSTORE PUSH1 0x33 PUSH1 0x20 MSTORE PUSH1 0x40 PUSH0 KECCAK256 SSTORE PUSH0 PUSH0 SWAP1 DUP4 PUSH0 MSTORE PUSH1 0x30 PUSH1 0x20 MSTORE PUSH1 0x2 PUSH1 0x40 PUSH0 KECCAK256 SLOAD LT PUSH0 EQ PUSH2 0x5E0 JUMPI POP POP DUP4 PUSH0 MSTORE PUSH1 0x2C PUSH1 0x20 MSTORE DUP2 PUSH1 0x5 PUSH1 0x40 PUSH0 KECCAK256 ADD SSTORE DUP2 PUSH0 MSTORE PUSH1 0x30 PUSH1 0x20 MSTORE PUSH1 0x40 PUSH0 KECCAK256 DUP1 SLOAD SWAP1 PUSH1 0x1 DUP3 ADD DUP1 SWAP3 GT PUSH2 0x56B JUMPI SSTORE DUP2 JUMPDEST PUSH0 SWAP1 JUMPDEST PUSH1 0xF DUP3 LT PUSH2 0x57F JUMPI JUMPDEST POP POP PUSH2 0x4A8 PUSH2 0x477 PUSH2 0x1B3A JUMP JUMPDEST SWAP1 SLOAD PUSH1 0x40 MLOAD SWAP2 PUSH1 0x3 SHL SHR PUSH2 0x48A DUP3 PUSH2 0x1C66 JUMP JUMPDEST DUP2 MSTORE PUSH0 PUSH1 0x20 DUP3 ADD MSTORE TIMESTAMP PUSH1 0x40 DUP3 ADD MSTORE PUSH1 0x1 PUSH1 0x60 DUP3 ADD MSTORE PUSH1 0x1 DUP6 ADD PUSH2 0x1CC0 JUMP JUMPDEST PUSH2 0x4B0 PUSH2 0x1B3A JUMP JUMPDEST SWAP1 SLOAD SWAP1 PUSH1 0x3 SHL SHR SWAP1 PUSH1 0x5 DUP3 MUL DUP3 ISZERO SWAP3 DUP1 DUP3 DIV PUSH1 0x5 EQ DUP5 OR ISZERO PUSH2 0x56B JUMPI PUSH1 0x3C DUP2 MUL SWAP4 DUP2 DUP6 DIV PUSH1 0x3C EQ DUP2 OR ISZERO PUSH2 0x56B JUMPI PUSH1 0x19 DUP3 MUL SWAP2 DUP3 DIV PUSH1 0x19 EQ OR ISZERO PUSH2 0x56B JUMPI PUSH2 0x513 SWAP4 PUSH2 0x50B PUSH1 0x64 DUP10 SWAP5 PUSH2 0x505 DUP3 DUP1 SWAP7 DIV PUSH2 0x24A3 JUMP JUMPDEST DIV PUSH2 0x250A JUMP JUMPDEST DIV SWAP2 SLOAD PUSH2 0x2610 JUMP JUMPDEST PUSH1 0x6 SLOAD PUSH1 0x1 DUP2 ADD DUP1 SWAP2 GT PUSH2 0x56B JUMPI PUSH1 0x6 SSTORE PUSH0 MSTORE PUSH1 0x2C PUSH1 0x20 MSTORE PUSH1 0x5 PUSH1 0x1 DUP1 PUSH1 0xA0 SHL SUB PUSH1 0x40 PUSH0 KECCAK256 SLOAD AND SWAP2 ADD SLOAD PUSH1 0x40 MLOAD SWAP1 DUP2 MSTORE PUSH32 0x309BB360E8B69C23937CCC5FB01F9AEEEAD1C95A99604E175113FF82F2B1723A PUSH1 0x20 CALLER SWAP3 LOG4 STOP JUMPDEST PUSH4 0x4E487B71 PUSH1 0xE0 SHL PUSH0 MSTORE PUSH1 0x11 PUSH1 0x4 MSTORE PUSH1 0x24 PUSH0 REVERT JUMPDEST DUP1 ISZERO PUSH2 0x5DB JUMPI DUP1 PUSH0 MSTORE PUSH1 0x2C PUSH1 0x20 MSTORE PUSH1 0x9 PUSH1 0x40 PUSH0 KECCAK256 ADD DUP1 SLOAD SWAP1 PUSH1 0x1 DUP3 ADD DUP1 SWAP3 GT PUSH2 0x56B JUMPI SSTORE DUP1 PUSH0 MSTORE PUSH1 0x2F PUSH1 0x20 MSTORE PUSH1 0x40 PUSH0 KECCAK256 DUP3 PUSH0 MSTORE PUSH1 0x20 MSTORE PUSH2 0x5C2 DUP7 PUSH1 0x40 PUSH0 KECCAK256 PUSH2 0x2212 JUMP JUMPDEST PUSH0 MSTORE PUSH1 0x2C PUSH1 0x20 MSTORE PUSH1 0x1 PUSH1 0x5 PUSH1 0x40 PUSH0 KECCAK256 ADD SLOAD SWAP2 ADD SWAP1 PUSH2 0x461 JUMP JUMPDEST PUSH2 0x46A JUMP JUMPDEST PUSH0 JUMPDEST PUSH1 0xF DUP2 LT PUSH2 0x5F2 JUMPI JUMPDEST POP POP PUSH2 0x45E JUMP JUMPDEST DUP2 PUSH2 0x706 JUMPI DUP5 PUSH0 MSTORE PUSH1 0x2F PUSH1 0x20 MSTORE PUSH1 0x40 PUSH0 KECCAK256 PUSH1 0x1 DUP3 ADD DUP1 DUP4 GT PUSH2 0x56B JUMPI PUSH0 MSTORE PUSH1 0x20 MSTORE PUSH1 0x40 PUSH0 KECCAK256 SLOAD PUSH1 0x2 DUP3 ADD DUP1 DUP4 GT PUSH2 0x56B JUMPI PUSH1 0xFF DUP2 GT PUSH2 0x56B JUMPI PUSH1 0x1 SWAP1 SHL GT PUSH2 0x63D JUMPI JUMPDEST PUSH1 0x1 ADD PUSH2 0x5E2 JUMP JUMPDEST SWAP4 SWAP3 PUSH0 SWAP6 SWAP2 SWAP6 JUMPDEST DUP5 PUSH0 MSTORE PUSH1 0x2F PUSH1 0x20 MSTORE PUSH1 0x40 PUSH0 KECCAK256 DUP7 PUSH0 MSTORE PUSH1 0x20 MSTORE PUSH1 0x40 PUSH0 KECCAK256 SLOAD DUP2 LT ISZERO PUSH2 0x6F8 JUMPI DUP7 PUSH2 0x6E7 JUMPI DUP5 PUSH0 MSTORE PUSH1 0x2F PUSH1 0x20 MSTORE PUSH1 0x40 PUSH0 KECCAK256 DUP7 PUSH0 MSTORE PUSH1 0x20 MSTORE PUSH2 0x686 DUP2 PUSH1 0x40 PUSH0 KECCAK256 PUSH2 0x1B6C JUMP JUMPDEST SWAP1 SLOAD SWAP1 PUSH1 0x3 SHL SHR DUP1 PUSH0 MSTORE PUSH1 0x30 PUSH1 0x20 MSTORE PUSH1 0x2 PUSH1 0x40 PUSH0 KECCAK256 SLOAD LT PUSH2 0x6AB JUMPI JUMPDEST POP PUSH1 0x1 ADD PUSH2 0x644 JUMP JUMPDEST SWAP2 SWAP4 POP SWAP6 POP DUP7 PUSH0 MSTORE PUSH1 0x2C PUSH1 0x20 MSTORE DUP1 PUSH1 0x5 PUSH1 0x40 PUSH0 KECCAK256 ADD SSTORE DUP1 PUSH0 MSTORE PUSH1 0x30 PUSH1 0x20 MSTORE PUSH1 0x40 PUSH0 KECCAK256 DUP1 SLOAD SWAP1 PUSH1 0x1 DUP3 ADD DUP1 SWAP3 GT PUSH2 0x56B JUMPI SSTORE SWAP2 PUSH1 0x1 DUP1 SWAP7 SWAP1 PUSH2 0x6A2 JUMP JUMPDEST POP SWAP3 SWAP4 PUSH1 0x1 SWAP1 SWAP6 SWAP2 SWAP6 JUMPDEST SWAP1 POP PUSH2 0x635 JUMP JUMPDEST POP SWAP3 SWAP4 PUSH1 0x1 SWAP1 SWAP6 SWAP2 SWAP6 PUSH2 0x6F1 JUMP JUMPDEST PUSH2 0x5EB JUMP JUMPDEST PUSH4 0x4E487B71 PUSH1 0xE0 SHL PUSH0 MSTORE PUSH1 0x41 PUSH1 0x4 MSTORE PUSH1 0x24 PUSH0 REVERT JUMPDEST PUSH2 0x740 SWAP1 PUSH1 0x20 RETURNDATASIZE PUSH1 0x20 GT PUSH2 0x745 JUMPI JUMPDEST PUSH2 0x738 DUP2 DUP4 PUSH2 0x1C9E JUMP JUMPDEST DUP2 ADD SWAP1 PUSH2 0x1E16 JUMP JUMPDEST PUSH2 0x313 JUMP JUMPDEST POP RETURNDATASIZE PUSH2 0x72E JUMP JUMPDEST PUSH1 0x40 MLOAD RETURNDATASIZE PUSH0 DUP3 RETURNDATACOPY RETURNDATASIZE SWAP1 REVERT JUMPDEST PUSH1 0x40 MLOAD PUSH3 0x461BCD PUSH1 0xE5 SHL DUP2 MSTORE PUSH1 0x20 PUSH1 0x4 DUP3 ADD MSTORE PUSH1 0xF PUSH1 0x24 DUP3 ADD MSTORE PUSH15 0x24B73B30B634B21039B837B739B7B9 PUSH1 0x89 SHL PUSH1 0x44 DUP3 ADD MSTORE PUSH1 0x64 SWAP1 REVERT JUMPDEST PUSH1 0x40 MLOAD PUSH3 0x461BCD PUSH1 0xE5 SHL DUP2 MSTORE PUSH1 0x20 PUSH1 0x4 DUP3 ADD MSTORE PUSH1 0x12 PUSH1 0x24 DUP3 ADD MSTORE PUSH18 0x105B1C9958591E481C9959DA5CDD195C9959 PUSH1 0x72 SHL PUSH1 0x44 DUP3 ADD MSTORE PUSH1 0x64 SWAP1 REVERT JUMPDEST CALLVALUE PUSH2 0x275 JUMPI PUSH0 CALLDATASIZE PUSH1 0x3 NOT ADD SLT PUSH2 0x275 JUMPI PUSH1 0x20 PUSH1 0x5 SLOAD PUSH1 0x40 MLOAD SWAP1 DUP2 MSTORE RETURN JUMPDEST CALLVALUE PUSH2 0x275 JUMPI PUSH0 CALLDATASIZE PUSH1 0x3 NOT ADD SLT PUSH2 0x275 JUMPI PUSH1 0x3 SLOAD PUSH1 0x40 MLOAD PUSH1 0x1 PUSH1 0x1 PUSH1 0xA0 SHL SUB SWAP1 SWAP2 AND DUP2 MSTORE PUSH1 0x20 SWAP1 RETURN JUMPDEST CALLVALUE PUSH2 0x275 JUMPI PUSH1 0x20 CALLDATASIZE PUSH1 0x3 NOT ADD SLT PUSH2 0x275 JUMPI PUSH2 0x829 PUSH1 0x4 CALLDATALOAD PUSH2 0x2006 JUMP JUMPDEST STOP JUMPDEST CALLVALUE PUSH2 0x275 JUMPI PUSH1 0x20 CALLDATASIZE PUSH1 0x3 NOT ADD SLT PUSH2 0x275 JUMPI PUSH1 0x4 CALLDATALOAD PUSH1 0x8 DUP2 LT ISZERO PUSH2 0x275 JUMPI PUSH1 0x20 SWAP1 PUSH1 0x11 ADD SLOAD PUSH1 0x40 MLOAD SWAP1 DUP2 MSTORE RETURN JUMPDEST CALLVALUE PUSH2 0x275 JUMPI PUSH2 0x865 CALLDATASIZE PUSH2 0x1B81 JUMP JUMPDEST SWAP1 PUSH0 MSTORE PUSH1 0x22 PUSH1 0x20 MSTORE PUSH1 0x40 PUSH0 KECCAK256 SWAP1 PUSH0 MSTORE PUSH1 0x20 MSTORE PUSH1 0x40 PUSH0 KECCAK256 DUP1 SLOAD PUSH2 0x8C2 PUSH1 0x1 DUP4 ADD SLOAD SWAP3 PUSH1 0x2 DUP2 ADD SLOAD SWAP1 PUSH1 0x4 PUSH1 0x3 DUP3 ADD SLOAD SWAP2 ADD SLOAD SWAP2 PUSH1 0x40 MLOAD SWAP6 DUP7 SWAP6 DUP7 SWAP2 SWAP3 PUSH1 0x80 SWAP4 SWAP7 SWAP6 SWAP5 SWAP2 SWAP7 PUSH1 0xA0 DUP5 ADD SWAP8 DUP5 MSTORE PUSH1 0x20 DUP5 ADD MSTORE PUSH1 0x40 DUP4 ADD MSTORE PUSH1 0x60 DUP3 ADD MSTORE ADD MSTORE JUMP JUMPDEST SUB SWAP1 RETURN JUMPDEST CALLVALUE PUSH2 0x275 JUMPI PUSH1 0x20 CALLDATASIZE PUSH1 0x3 NOT ADD SLT PUSH2 0x275 JUMPI PUSH1 0x4 CALLDATALOAD PUSH1 0x1 PUSH1 0x1 PUSH1 0xA0 SHL SUB DUP2 AND SWAP1 DUP2 SWAP1 SUB PUSH2 0x275 JUMPI PUSH0 MSTORE PUSH1 0x2B PUSH1 0x20 MSTORE PUSH1 0x20 PUSH1 0x40 PUSH0 KECCAK256 SLOAD PUSH1 0x40 MLOAD SWAP1 DUP2 MSTORE RETURN JUMPDEST CALLVALUE PUSH2 0x275 JUMPI PUSH2 0x910 CALLDATASIZE PUSH2 0x1B81 JUMP JUMPDEST SWAP1 PUSH0 MSTORE PUSH1 0x29 PUSH1 0x20 MSTORE PUSH1 0x40 PUSH0 KECCAK256 DUP1 SLOAD DUP3 LT ISZERO PUSH2 0x275 JUMPI PUSH1 0x20 SWAP2 PUSH2 0x931 SWAP2 PUSH2 0x1B6C JUMP JUMPDEST SWAP1 SLOAD SWAP1 PUSH1 0x3 SHL SHR PUSH1 0x40 MLOAD SWAP1 DUP2 MSTORE RETURN JUMPDEST CALLVALUE PUSH2 0x275 JUMPI PUSH1 0x20 CALLDATASIZE PUSH1 0x3 NOT ADD SLT PUSH2 0x275 JUMPI PUSH1 0x4 CALLDATALOAD PUSH1 0x7 SLOAD DUP2 LT ISZERO PUSH2 0x275 JUMPI PUSH2 0x931 PUSH1 0x20 SWAP2 PUSH2 0x1B0A JUMP JUMPDEST CALLVALUE PUSH2 0x275 JUMPI PUSH0 CALLDATASIZE PUSH1 0x3 NOT ADD SLT PUSH2 0x275 JUMPI PUSH1 0x20 PUSH1 0x6 SLOAD PUSH1 0x40 MLOAD SWAP1 DUP2 MSTORE RETURN JUMPDEST CALLVALUE PUSH2 0x275 JUMPI PUSH2 0x994 CALLDATASIZE PUSH2 0x1B81 JUMP JUMPDEST SWAP1 PUSH0 MSTORE PUSH1 0x21 PUSH1 0x20 MSTORE PUSH1 0x40 PUSH0 KECCAK256 SWAP1 PUSH0 MSTORE PUSH1 0x20 MSTORE PUSH1 0x40 DUP1 PUSH0 KECCAK256 PUSH1 0x1 DUP2 SLOAD SWAP2 ADD SLOAD DUP3 MLOAD SWAP2 DUP3 MSTORE PUSH1 0x20 DUP3 ADD MSTORE RETURN JUMPDEST CALLVALUE PUSH2 0x275 JUMPI PUSH2 0x9CC CALLDATASIZE PUSH2 0x1B81 JUMP JUMPDEST SWAP1 PUSH0 MSTORE PUSH1 0x26 PUSH1 0x20 MSTORE PUSH1 0x40 PUSH0 KECCAK256 SWAP1 PUSH0 MSTORE PUSH1 0x20 MSTORE PUSH1 0x20 PUSH1 0xFF PUSH1 0x40 PUSH0 KECCAK256 SLOAD AND PUSH1 0x40 MLOAD SWAP1 ISZERO ISZERO DUP2 MSTORE RETURN JUMPDEST CALLVALUE PUSH2 0x275 JUMPI PUSH1 0x20 CALLDATASIZE PUSH1 0x3 NOT ADD SLT PUSH2 0x275 JUMPI PUSH1 0x4 CALLDATALOAD DUP1 PUSH0 MSTORE PUSH1 0x2C PUSH1 0x20 MSTORE PUSH1 0x40 PUSH0 KECCAK256 PUSH2 0xA26 PUSH1 0x1 DUP1 PUSH1 0xA0 SHL SUB DUP3 SLOAD AND CALLER EQ PUSH2 0x1BD3 JUMP JUMPDEST PUSH1 0xD DUP2 ADD SWAP1 DUP2 SLOAD SWAP2 PUSH1 0x8 DUP4 LT PUSH2 0xA3B DUP2 PUSH2 0x1D96 JUMP JUMPDEST ISZERO PUSH2 0xC10 JUMPI DUP3 PUSH1 0x11 ADD SLOAD DUP4 PUSH1 0x19 ADD SLOAD SWAP1 PUSH1 0x6 DUP5 ADD SLOAD LT ISZERO SWAP1 DUP2 PUSH2 0xC01 JUMPI JUMPDEST POP ISZERO PUSH2 0xBC4 JUMPI DUP3 PUSH2 0xBBF JUMPI JUMPDEST DUP4 PUSH0 MSTORE PUSH1 0x2A PUSH1 0x20 MSTORE PUSH1 0x40 PUSH0 KECCAK256 DUP4 PUSH0 MSTORE PUSH1 0x20 MSTORE PUSH2 0xA88 PUSH1 0xFF PUSH1 0x40 PUSH0 KECCAK256 SLOAD AND ISZERO PUSH2 0x1DD1 JUMP JUMPDEST PUSH2 0xA91 DUP4 PUSH2 0x1B22 JUMP JUMPDEST SWAP1 SLOAD PUSH0 DUP1 SLOAD PUSH1 0x40 MLOAD PUSH4 0x23B872DD PUSH1 0xE0 SHL DUP2 MSTORE CALLER PUSH1 0x4 DUP3 ADD MSTORE ADDRESS PUSH1 0x24 DUP3 ADD MSTORE PUSH1 0x3 SWAP5 SWAP1 SWAP5 SHL SWAP3 SWAP1 SWAP3 SHR PUSH1 0x44 DUP5 ADD DUP2 SWAP1 MSTORE SWAP4 SWAP3 SWAP2 PUSH1 0x20 SWAP2 DUP4 SWAP2 PUSH1 0x64 SWAP2 DUP4 SWAP2 PUSH1 0x1 PUSH1 0x1 PUSH1 0xA0 SHL SUB AND GAS CALL DUP1 ISZERO PUSH2 0x74C JUMPI PUSH2 0xBA2 JUMPI JUMPDEST POP DUP1 SLOAD SWAP3 PUSH1 0x1 DUP5 ADD DUP1 SWAP5 GT PUSH2 0x56B JUMPI PUSH2 0xB5E SWAP4 PUSH1 0x1 SWAP3 SSTORE DUP6 PUSH0 MSTORE PUSH1 0x2A PUSH1 0x20 MSTORE PUSH1 0x40 PUSH0 KECCAK256 DUP6 PUSH0 MSTORE PUSH1 0x20 MSTORE PUSH1 0x40 PUSH0 KECCAK256 DUP3 PUSH1 0xFF NOT DUP3 SLOAD AND OR SWAP1 SSTORE PUSH1 0xE DUP2 ADD PUSH2 0xB29 DUP5 DUP3 SLOAD PUSH2 0x1C59 JUMP JUMPDEST SWAP1 SSTORE PUSH2 0xB36 DUP4 DUP8 DUP8 PUSH2 0x2CDE JUMP JUMPDEST PUSH1 0x40 MLOAD SWAP3 PUSH2 0xB43 DUP5 PUSH2 0x1C66 JUMP JUMPDEST DUP4 MSTORE PUSH0 PUSH1 0x20 DUP5 ADD MSTORE TIMESTAMP PUSH1 0x40 DUP5 ADD MSTORE PUSH1 0xB PUSH1 0x60 DUP5 ADD MSTORE ADD PUSH2 0x1CC0 JUMP JUMPDEST PUSH1 0x1 DUP2 ADD DUP1 SWAP2 GT PUSH2 0x56B JUMPI PUSH1 0x40 MLOAD SWAP1 DUP2 MSTORE PUSH1 0x40 PUSH1 0x20 DUP3 ADD MSTORE PUSH1 0x7 PUSH1 0x40 DUP3 ADD MSTORE PUSH7 0x2137B7B9BA32B9 PUSH1 0xC9 SHL PUSH1 0x60 DUP3 ADD MSTORE PUSH0 MLOAD PUSH1 0x20 PUSH2 0x3217 PUSH0 CODECOPY PUSH0 MLOAD SWAP1 PUSH0 MSTORE PUSH1 0x80 CALLER SWAP3 LOG3 STOP JUMPDEST PUSH2 0xBBA SWAP1 PUSH1 0x20 RETURNDATASIZE PUSH1 0x20 GT PUSH2 0x745 JUMPI PUSH2 0x738 DUP2 DUP4 PUSH2 0x1C9E JUMP JUMPDEST PUSH2 0xAE3 JUMP JUMPDEST PUSH2 0xA65 JUMP JUMPDEST PUSH1 0x40 MLOAD PUSH3 0x461BCD PUSH1 0xE5 SHL DUP2 MSTORE PUSH1 0x20 PUSH1 0x4 DUP3 ADD MSTORE PUSH1 0x15 PUSH1 0x24 DUP3 ADD MSTORE PUSH21 0x155C19DC9859194814DB1BDD08185B9908141BDBDB PUSH1 0x5A SHL PUSH1 0x44 DUP3 ADD MSTORE PUSH1 0x64 SWAP1 REVERT JUMPDEST SWAP1 POP PUSH1 0xB DUP4 ADD SLOAD LT ISZERO DUP6 PUSH2 0xA59 JUMP JUMPDEST PUSH4 0x4E487B71 PUSH1 0xE0 SHL PUSH0 MSTORE PUSH1 0x32 PUSH1 0x4 MSTORE PUSH1 0x24 PUSH0 REVERT JUMPDEST CALLVALUE PUSH2 0x275 JUMPI PUSH1 0x20 CALLDATASIZE PUSH1 0x3 NOT ADD SLT PUSH2 0x275 JUMPI PUSH1 0x4 CALLDATALOAD PUSH1 0x8 SLOAD DUP2 LT ISZERO PUSH2 0x275 JUMPI PUSH2 0x931 PUSH1 0x20 SWAP2 PUSH2 0x1AF2 JUMP JUMPDEST CALLVALUE PUSH2 0x275 JUMPI PUSH1 0x20 CALLDATASIZE PUSH1 0x3 NOT ADD SLT PUSH2 0x275 JUMPI PUSH1 0x4 CALLDATALOAD PUSH1 0x9 SLOAD DUP2 LT ISZERO PUSH2 0x275 JUMPI PUSH2 0x931 PUSH1 0x20 SWAP2 PUSH2 0x1B22 JUMP JUMPDEST CALLVALUE PUSH2 0x275 JUMPI PUSH2 0xC84 CALLDATASIZE PUSH2 0x1B81 JUMP JUMPDEST SWAP1 PUSH0 MSTORE PUSH1 0x2A PUSH1 0x20 MSTORE PUSH1 0x40 PUSH0 KECCAK256 SWAP1 PUSH0 MSTORE PUSH1 0x20 MSTORE PUSH1 0x20 PUSH1 0xFF PUSH1 0x40 PUSH0 KECCAK256 SLOAD AND PUSH1 0x40 MLOAD SWAP1 ISZERO ISZERO DUP2 MSTORE RETURN JUMPDEST CALLVALUE PUSH2 0x275 JUMPI PUSH1 0x20 CALLDATASIZE PUSH1 0x3 NOT ADD SLT PUSH2 0x275 JUMPI PUSH1 0x4 CALLDATALOAD PUSH1 0x8 DUP2 LT ISZERO PUSH2 0x275 JUMPI PUSH1 0x20 SWAP1 PUSH1 0x19 ADD SLOAD PUSH1 0x40 MLOAD SWAP1 DUP2 MSTORE RETURN JUMPDEST CALLVALUE PUSH2 0x275 JUMPI PUSH2 0xCE4 CALLDATASIZE PUSH2 0x1B81 JUMP JUMPDEST SWAP1 PUSH0 MSTORE PUSH1 0x27 PUSH1 0x20 MSTORE PUSH1 0x40 PUSH0 KECCAK256 SWAP1 PUSH0 MSTORE PUSH1 0x20 MSTORE PUSH1 0x80 PUSH1 0x40 PUSH0 KECCAK256 DUP1 SLOAD SWAP1 PUSH1 0x1 DUP2 ADD SLOAD SWAP1 PUSH1 0x3 PUSH1 0x2 DUP3 ADD SLOAD SWAP2 ADD SLOAD SWAP2 PUSH1 0x40 MLOAD SWAP4 DUP5 MSTORE PUSH1 0x20 DUP5 ADD MSTORE PUSH1 0x40 DUP4 ADD MSTORE PUSH1 0x60 DUP3 ADD MSTORE RETURN JUMPDEST CALLVALUE PUSH2 0x275 JUMPI PUSH2 0xD35 CALLDATASIZE PUSH2 0x1AD8 JUMP JUMPDEST SWAP2 PUSH0 MSTORE PUSH1 0x23 PUSH1 0x20 MSTORE PUSH1 0x40 PUSH0 KECCAK256 SWAP1 PUSH0 MSTORE PUSH1 0x20 MSTORE PUSH1 0x40 PUSH0 KECCAK256 DUP1 SLOAD DUP3 LT ISZERO PUSH2 0x275 JUMPI PUSH1 0x20 SWAP2 PUSH2 0x931 SWAP2 PUSH2 0x1B6C JUMP JUMPDEST CALLVALUE PUSH2 0x275 JUMPI PUSH4 0xFFFFFFFF PUSH2 0xD73 CALLDATASIZE PUSH2 0x1B97 JUMP JUMPDEST SWAP2 AND SWAP1 DUP2 PUSH0 MSTORE PUSH1 0x2C PUSH1 0x20 MSTORE PUSH1 0x40 PUSH0 KECCAK256 PUSH2 0xD96 PUSH1 0x1 DUP1 PUSH1 0xA0 SHL SUB DUP3 SLOAD AND CALLER EQ PUSH2 0x1BD3 JUMP JUMPDEST PUSH1 0xB DUP2 ADD SWAP2 PUSH2 0xDA8 PUSH1 0x7 DUP5 SLOAD LT PUSH2 0x1C12 JUMP JUMPDEST PUSH1 0x1 DUP2 ADD SWAP3 DUP4 DUP3 GT PUSH2 0x56B JUMPI PUSH1 0x8 SLOAD DUP5 LT ISZERO PUSH2 0xF46 JUMPI PUSH2 0xDC7 DUP5 PUSH2 0x1AF2 JUMP JUMPDEST SWAP1 SLOAD SWAP1 PUSH1 0x3 SHL SHR DUP3 PUSH0 MSTORE PUSH1 0x21 PUSH1 0x20 MSTORE PUSH1 0x40 PUSH0 KECCAK256 DUP7 PUSH0 MSTORE PUSH1 0x20 MSTORE PUSH1 0x40 PUSH0 KECCAK256 DUP1 SLOAD DUP3 DUP2 LT PUSH2 0xF01 JUMPI DUP8 PUSH0 MSTORE PUSH1 0x26 PUSH1 0x20 MSTORE PUSH1 0x40 PUSH0 KECCAK256 DUP8 PUSH0 MSTORE PUSH1 0x20 MSTORE PUSH1 0xFF PUSH1 0x40 PUSH0 KECCAK256 SLOAD AND PUSH2 0xEBC JUMPI DUP3 PUSH2 0xE15 SWAP2 PUSH2 0x1C4C JUMP JUMPDEST SWAP1 SSTORE DUP2 SLOAD SWAP2 PUSH1 0x1 DUP4 ADD DUP1 SWAP4 GT PUSH2 0x56B JUMPI PUSH1 0x2 SWAP5 PUSH2 0xE6C SWAP4 PUSH1 0x1 SWAP3 SSTORE PUSH1 0xC DUP2 ADD PUSH2 0xE3F DUP5 DUP3 SLOAD PUSH2 0x1C59 JUMP JUMPDEST SWAP1 SSTORE DUP8 PUSH0 MSTORE PUSH1 0x26 PUSH1 0x20 MSTORE PUSH1 0x40 PUSH0 KECCAK256 DUP8 PUSH0 MSTORE PUSH1 0x20 MSTORE PUSH1 0x40 PUSH0 KECCAK256 DUP3 PUSH1 0xFF NOT DUP3 SLOAD AND OR SWAP1 SSTORE PUSH2 0xB36 DUP4 DUP10 DUP10 PUSH2 0x22CF JUMP JUMPDEST ADD DUP1 SWAP2 GT PUSH2 0x56B JUMPI PUSH1 0x40 MLOAD SWAP1 DUP2 MSTORE PUSH1 0x40 PUSH1 0x20 DUP3 ADD MSTORE PUSH1 0x16 PUSH1 0x40 DUP3 ADD MSTORE PUSH22 0x506F6F6C205570677261646520284561726E696E6729 PUSH1 0x50 SHL PUSH1 0x60 DUP3 ADD MSTORE PUSH0 MLOAD PUSH1 0x20 PUSH2 0x3217 PUSH0 CODECOPY PUSH0 MLOAD SWAP1 PUSH0 MSTORE PUSH1 0x80 CALLER SWAP3 LOG3 STOP JUMPDEST PUSH1 0x40 MLOAD PUSH3 0x461BCD PUSH1 0xE5 SHL DUP2 MSTORE PUSH1 0x20 PUSH1 0x4 DUP3 ADD MSTORE PUSH1 0x1B PUSH1 0x24 DUP3 ADD MSTORE PUSH32 0x416C726561647920707572636861736564206E65787420706F6F6C0000000000 PUSH1 0x44 DUP3 ADD MSTORE PUSH1 0x64 SWAP1 REVERT JUMPDEST PUSH1 0x40 MLOAD PUSH3 0x461BCD PUSH1 0xE5 SHL DUP2 MSTORE PUSH1 0x20 PUSH1 0x4 DUP3 ADD MSTORE PUSH1 0x1C PUSH1 0x24 DUP3 ADD MSTORE PUSH32 0x4E6F7420656E6F756768206E65787420706F6F6C2062616C616E636500000000 PUSH1 0x44 DUP3 ADD MSTORE PUSH1 0x64 SWAP1 REVERT JUMPDEST PUSH1 0x40 MLOAD PUSH3 0x461BCD PUSH1 0xE5 SHL DUP2 MSTORE PUSH1 0x20 PUSH1 0x4 DUP3 ADD MSTORE PUSH1 0xE PUSH1 0x24 DUP3 ADD MSTORE PUSH14 0x139BC81A1A59DA195C881C1BDBDB PUSH1 0x92 SHL PUSH1 0x44 DUP3 ADD MSTORE PUSH1 0x64 SWAP1 REVERT JUMPDEST CALLVALUE PUSH2 0x275 JUMPI PUSH0 CALLDATASIZE PUSH1 0x3 NOT ADD SLT PUSH2 0x275 JUMPI PUSH1 0x1 SLOAD PUSH1 0x40 MLOAD PUSH1 0x1 PUSH1 0x1 PUSH1 0xA0 SHL SUB SWAP1 SWAP2 AND DUP2 MSTORE PUSH1 0x20 SWAP1 RETURN JUMPDEST CALLVALUE PUSH2 0x275 JUMPI PUSH2 0xFB2 CALLDATASIZE PUSH2 0x1AD8 JUMP JUMPDEST SWAP2 PUSH0 MSTORE PUSH1 0x24 PUSH1 0x20 MSTORE PUSH1 0x40 PUSH0 KECCAK256 SWAP1 PUSH0 MSTORE PUSH1 0x20 MSTORE PUSH1 0x40 PUSH0 KECCAK256 DUP1 SLOAD DUP3 LT ISZERO PUSH2 0x275 JUMPI PUSH1 0x20 SWAP2 PUSH2 0x931 SWAP2 PUSH2 0x1B6C JUMP JUMPDEST CALLVALUE PUSH2 0x275 JUMPI PUSH1 0x20 CALLDATASIZE PUSH1 0x3 NOT ADD SLT PUSH2 0x275 JUMPI PUSH1 0x4 CALLDATALOAD PUSH0 MSTORE PUSH1 0x30 PUSH1 0x20 MSTORE PUSH1 0x20 PUSH1 0x40 PUSH0 KECCAK256 SLOAD PUSH1 0x40 MLOAD SWAP1 DUP2 MSTORE RETURN JUMPDEST CALLVALUE PUSH2 0x275 JUMPI PUSH0 CALLDATASIZE PUSH1 0x3 NOT ADD SLT PUSH2 0x275 JUMPI PUSH1 0x35 SLOAD PUSH1 0x40 MLOAD PUSH1 0x1 PUSH1 0x1 PUSH1 0xA0 SHL SUB SWAP1 SWAP2 AND DUP2 MSTORE PUSH1 0x20 SWAP1 RETURN JUMPDEST CALLVALUE PUSH2 0x275 JUMPI PUSH0 CALLDATASIZE PUSH1 0x3 NOT ADD SLT PUSH2 0x275 JUMPI PUSH1 0x2 SLOAD PUSH1 0x40 MLOAD PUSH1 0x1 PUSH1 0x1 PUSH1 0xA0 SHL SUB SWAP1 SWAP2 AND DUP2 MSTORE PUSH1 0x20 SWAP1 RETURN JUMPDEST CALLVALUE PUSH2 0x275 JUMPI PUSH0 CALLDATASIZE PUSH1 0x3 NOT ADD SLT PUSH2 0x275 JUMPI PUSH1 0x20 PUSH1 0x32 SLOAD PUSH1 0x40 MLOAD SWAP1 DUP2 MSTORE RETURN JUMPDEST CALLVALUE PUSH2 0x275 JUMPI PUSH2 0x1082 CALLDATASIZE PUSH2 0x1B81 JUMP JUMPDEST SWAP1 PUSH0 MSTORE PUSH1 0x2E PUSH1 0x20 MSTORE PUSH1 0x40 PUSH0 KECCAK256 SWAP1 DUP2 SLOAD DUP2 LT ISZERO PUSH2 0x275 JUMPI PUSH2 0x10A1 SWAP2 PUSH2 0x1BBA JUMP JUMPDEST POP DUP1 SLOAD PUSH1 0x1 DUP3 ADD SLOAD PUSH1 0x2 DUP4 ADD SLOAD PUSH1 0x3 DUP5 ADD SLOAD PUSH1 0x4 SWAP1 SWAP5 ADD SLOAD PUSH1 0x40 DUP1 MLOAD SWAP5 DUP6 MSTORE PUSH1 0x20 DUP6 ADD SWAP4 SWAP1 SWAP4 MSTORE SWAP2 DUP4 ADD MSTORE PUSH1 0x60 DUP3 ADD SWAP3 SWAP1 SWAP3 MSTORE PUSH1 0x80 DUP2 ADD SWAP2 SWAP1 SWAP2 MSTORE PUSH1 0xA0 SWAP1 RETURN JUMPDEST CALLVALUE PUSH2 0x275 JUMPI PUSH1 0x20 CALLDATASIZE PUSH1 0x3 NOT ADD SLT PUSH2 0x275 JUMPI PUSH1 0x60 PUSH2 0x10FF PUSH1 0x4 CALLDATALOAD PUSH2 0x1E41 JUMP JUMPDEST SWAP2 SWAP1 PUSH1 0x20 PUSH1 0x40 MLOAD SWAP4 DUP5 SWAP3 ISZERO ISZERO DUP4 MSTORE PUSH1 0x40 DUP3 DUP5 ADD MSTORE DUP1 MLOAD SWAP2 DUP3 SWAP2 DUP3 PUSH1 0x40 DUP7 ADD MSTORE ADD DUP5 DUP5 ADD MCOPY PUSH0 DUP3 DUP3 ADD DUP5 ADD MSTORE PUSH1 0x1F ADD PUSH1 0x1F NOT AND DUP2 ADD SUB ADD SWAP1 RETURN JUMPDEST CALLVALUE PUSH2 0x275 JUMPI PUSH2 0x1146 CALLDATASIZE PUSH2 0x1B81 JUMP JUMPDEST SWAP1 PUSH0 MSTORE PUSH1 0x31 PUSH1 0x20 MSTORE PUSH1 0x40 PUSH0 KECCAK256 DUP1 SLOAD DUP3 LT ISZERO PUSH2 0x275 JUMPI PUSH1 0x20 SWAP2 PUSH2 0x931 SWAP2 PUSH2 0x1B6C JUMP JUMPDEST CALLVALUE PUSH2 0x275 JUMPI PUSH2 0x1175 CALLDATASIZE PUSH2 0x1AD8 JUMP JUMPDEST SWAP2 PUSH0 MSTORE PUSH1 0x2F PUSH1 0x20 MSTORE PUSH1 0x40 PUSH0 KECCAK256 SWAP1 PUSH0 MSTORE PUSH1 0x20 MSTORE PUSH1 0x40 PUSH0 KECCAK256 DUP1 SLOAD DUP3 LT ISZERO PUSH2 0x275 JUMPI PUSH1 0x20 SWAP2 PUSH2 0x931 SWAP2 PUSH2 0x1B6C JUMP JUMPDEST CALLVALUE PUSH2 0x275 JUMPI PUSH0 CALLDATASIZE PUSH1 0x3 NOT ADD SLT PUSH2 0x275 JUMPI PUSH1 0x20 PUSH1 0x40 MLOAD PUSH1 0xA DUP2 MSTORE RETURN JUMPDEST CALLVALUE PUSH2 0x275 JUMPI PUSH0 CALLDATASIZE PUSH1 0x3 NOT ADD SLT PUSH2 0x275 JUMPI PUSH1 0x20 PUSH1 0x37 SLOAD PUSH1 0x40 MLOAD SWAP1 DUP2 MSTORE RETURN JUMPDEST CALLVALUE PUSH2 0x275 JUMPI PUSH1 0x20 CALLDATASIZE PUSH1 0x3 NOT ADD SLT PUSH2 0x275 JUMPI PUSH1 0x4 CALLDATALOAD PUSH0 MSTORE PUSH1 0x2D PUSH1 0x20 MSTORE PUSH2 0x140 PUSH1 0x40 PUSH0 KECCAK256 DUP1 SLOAD SWAP1 PUSH1 0x1 DUP2 ADD SLOAD SWAP1 PUSH1 0x2 DUP2 ADD SLOAD PUSH1 0x3 DUP3 ADD SLOAD PUSH1 0x4 DUP4 ADD SLOAD PUSH1 0x5 DUP5 ADD SLOAD SWAP1 PUSH1 0x6 DUP6 ADD SLOAD SWAP3 PUSH1 0x7 DUP7 ADD SLOAD SWAP5 PUSH1 0x9 PUSH1 0x8 DUP9 ADD SLOAD SWAP8 ADD SLOAD SWAP8 PUSH1 0x40 MLOAD SWAP10 DUP11 MSTORE PUSH1 0x20 DUP11 ADD MSTORE PUSH1 0x40 DUP10 ADD MSTORE PUSH1 0x60 DUP9 ADD MSTORE PUSH1 0x80 DUP8 ADD MSTORE PUSH1 0xA0 DUP7 ADD MSTORE PUSH1 0xC0 DUP6 ADD MSTORE PUSH1 0xE0 DUP5 ADD MSTORE PUSH2 0x100 DUP4 ADD MSTORE PUSH2 0x120 DUP3 ADD MSTORE RETURN JUMPDEST CALLVALUE PUSH2 0x275 JUMPI PUSH1 0x20 CALLDATASIZE PUSH1 0x3 NOT ADD SLT PUSH2 0x275 JUMPI PUSH1 0x4 CALLDATALOAD DUP1 PUSH0 MSTORE PUSH1 0x2C PUSH1 0x20 MSTORE PUSH1 0x40 PUSH0 KECCAK256 PUSH2 0x129A PUSH1 0x1 DUP1 PUSH1 0xA0 SHL SUB DUP3 SLOAD AND CALLER EQ PUSH2 0x1BD3 JUMP JUMPDEST PUSH1 0x6 DUP2 ADD SWAP1 DUP2 SLOAD SWAP2 PUSH1 0xF DUP4 LT ISZERO PUSH2 0x142C JUMPI PUSH2 0x12B4 DUP4 PUSH2 0x1B0A JUMP JUMPDEST SWAP1 SLOAD PUSH0 DUP1 SLOAD PUSH1 0x40 MLOAD PUSH4 0x23B872DD PUSH1 0xE0 SHL DUP2 MSTORE CALLER PUSH1 0x4 DUP3 ADD MSTORE ADDRESS PUSH1 0x24 DUP3 ADD MSTORE PUSH1 0x3 SWAP5 SWAP1 SWAP5 SHL SWAP3 SWAP1 SWAP3 SHR PUSH1 0x44 DUP5 ADD DUP2 SWAP1 MSTORE SWAP4 SWAP3 SWAP2 PUSH1 0x20 SWAP2 DUP4 SWAP2 PUSH1 0x64 SWAP2 DUP4 SWAP2 PUSH1 0x1 PUSH1 0x1 PUSH1 0xA0 SHL SUB AND GAS CALL DUP1 ISZERO PUSH2 0x74C JUMPI PUSH2 0x140F JUMPI JUMPDEST POP DUP1 SLOAD SWAP1 PUSH1 0x1 DUP3 ADD DUP1 SWAP3 GT PUSH2 0x56B JUMPI SSTORE PUSH1 0xA DUP3 ADD PUSH2 0x1325 DUP3 DUP3 SLOAD PUSH2 0x1C59 JUMP JUMPDEST SWAP1 SSTORE PUSH2 0x1355 PUSH1 0x40 MLOAD PUSH2 0x1336 DUP2 PUSH2 0x1C66 JUMP JUMPDEST DUP3 DUP2 MSTORE PUSH0 PUSH1 0x20 DUP3 ADD MSTORE TIMESTAMP PUSH1 0x40 DUP3 ADD MSTORE PUSH1 0x1 PUSH1 0x60 DUP3 ADD MSTORE PUSH1 0x1 DUP5 ADD PUSH2 0x1CC0 JUMP JUMPDEST PUSH1 0x5 DUP2 MUL DUP2 ISZERO SWAP1 DUP3 DUP2 DIV PUSH1 0x5 EQ DUP3 OR ISZERO PUSH2 0x56B JUMPI PUSH1 0x23 DUP4 MUL DUP4 DUP2 DIV PUSH1 0x23 EQ DUP4 OR ISZERO PUSH2 0x56B JUMPI PUSH2 0x138B SWAP2 PUSH2 0x505 PUSH1 0x64 DUP1 SWAP4 DIV PUSH2 0x24A3 JUMP JUMPDEST PUSH1 0xF DUP3 MUL SWAP2 DUP3 DIV PUSH1 0xF EQ OR ISZERO PUSH2 0x56B JUMPI PUSH1 0x64 SWAP1 DIV SWAP2 PUSH1 0x4 DUP3 ADD SLOAD PUSH1 0x1 DUP3 ADD SWAP4 DUP5 DUP4 GT PUSH2 0x56B JUMPI DUP6 PUSH1 0x5 PUSH2 0x13D9 SWAP6 PUSH2 0x13C5 DUP9 DUP6 DUP6 DUP3 SWAP9 PUSH2 0x2750 JUMP JUMPDEST ADD PUSH2 0x13D3 DUP5 DUP5 DUP5 DUP5 SLOAD PUSH2 0x28C7 JUMP JUMPDEST SLOAD PUSH2 0x2AB5 JUMP JUMPDEST PUSH1 0x40 MLOAD SWAP1 DUP2 MSTORE PUSH1 0x40 PUSH1 0x20 DUP3 ADD MSTORE PUSH1 0x4 PUSH1 0x40 DUP3 ADD MSTORE PUSH4 0x14DB1BDD PUSH1 0xE2 SHL PUSH1 0x60 DUP3 ADD MSTORE PUSH0 MLOAD PUSH1 0x20 PUSH2 0x3217 PUSH0 CODECOPY PUSH0 MLOAD SWAP1 PUSH0 MSTORE PUSH1 0x80 CALLER SWAP3 LOG3 STOP JUMPDEST PUSH2 0x1427 SWAP1 PUSH1 0x20 RETURNDATASIZE PUSH1 0x20 GT PUSH2 0x745 JUMPI PUSH2 0x738 DUP2 DUP4 PUSH2 0x1C9E JUMP JUMPDEST PUSH2 0x1306 JUMP JUMPDEST PUSH1 0x40 MLOAD PUSH3 0x461BCD PUSH1 0xE5 SHL DUP2 MSTORE PUSH1 0x20 PUSH1 0x4 DUP3 ADD MSTORE PUSH1 0x14 PUSH1 0x24 DUP3 ADD MSTORE PUSH20 0x105B1C9958591E48185D081B585E081B195D995B PUSH1 0x62 SHL PUSH1 0x44 DUP3 ADD MSTORE PUSH1 0x64 SWAP1 REVERT JUMPDEST CALLVALUE PUSH2 0x275 JUMPI PUSH1 0x20 CALLDATASIZE PUSH1 0x3 NOT ADD SLT PUSH2 0x275 JUMPI PUSH1 0x4 CALLDATALOAD DUP1 PUSH0 MSTORE PUSH1 0x2C PUSH1 0x20 MSTORE PUSH1 0x40 PUSH0 KECCAK256 PUSH2 0x149C PUSH1 0x1 DUP1 PUSH1 0xA0 SHL SUB DUP3 SLOAD AND CALLER EQ PUSH2 0x1BD3 JUMP JUMPDEST PUSH1 0xB DUP2 ADD SWAP1 DUP2 SLOAD SWAP2 PUSH1 0x7 DUP4 LT PUSH2 0x14B1 DUP2 PUSH2 0x1D96 JUMP JUMPDEST ISZERO PUSH2 0xC10 JUMPI DUP3 PUSH1 0xA ADD SLOAD PUSH1 0x6 DUP4 ADD SLOAD LT PUSH2 0x1683 JUMPI DUP3 ISZERO SWAP1 DUP2 ISZERO PUSH2 0x167E JUMPI JUMPDEST DUP5 PUSH0 MSTORE PUSH1 0x26 PUSH1 0x20 MSTORE PUSH1 0x40 PUSH0 KECCAK256 DUP5 PUSH0 MSTORE PUSH1 0x20 MSTORE PUSH2 0x14F2 PUSH1 0xFF PUSH1 0x40 PUSH0 KECCAK256 SLOAD AND ISZERO PUSH2 0x1DD1 JUMP JUMPDEST PUSH2 0x14FB DUP5 PUSH2 0x1AF2 JUMP JUMPDEST SWAP1 SLOAD PUSH0 DUP1 SLOAD PUSH1 0x40 MLOAD PUSH4 0x23B872DD PUSH1 0xE0 SHL DUP2 MSTORE CALLER PUSH1 0x4 DUP3 ADD MSTORE ADDRESS PUSH1 0x24 DUP3 ADD MSTORE PUSH1 0x3 SWAP5 SWAP1 SWAP5 SHL SWAP3 SWAP1 SWAP3 SHR PUSH1 0x44 DUP5 ADD DUP2 SWAP1 MSTORE SWAP5 SWAP3 SWAP2 PUSH1 0x20 SWAP2 DUP4 SWAP2 PUSH1 0x64 SWAP2 DUP4 SWAP2 PUSH1 0x1 PUSH1 0x1 PUSH1 0xA0 SHL SUB AND GAS CALL DUP1 ISZERO PUSH2 0x74C JUMPI PUSH2 0x1661 JUMPI JUMPDEST POP PUSH2 0x160E JUMPI JUMPDEST DUP1 SLOAD SWAP3 PUSH1 0x1 DUP5 ADD DUP1 SWAP5 GT PUSH2 0x56B JUMPI PUSH2 0x15CD SWAP4 PUSH1 0x1 SWAP3 SSTORE DUP6 PUSH0 MSTORE PUSH1 0x26 PUSH1 0x20 MSTORE PUSH1 0x40 PUSH0 KECCAK256 DUP6 PUSH0 MSTORE PUSH1 0x20 MSTORE PUSH1 0x40 PUSH0 KECCAK256 DUP3 PUSH1 0xFF NOT DUP3 SLOAD AND OR SWAP1 SSTORE PUSH1 0xC DUP2 ADD PUSH2 0x1598 DUP5 DUP3 SLOAD PUSH2 0x1C59 JUMP JUMPDEST SWAP1 SSTORE PUSH2 0x15A5 DUP4 DUP8 DUP8 PUSH2 0x22CF JUMP JUMPDEST PUSH1 0x40 MLOAD SWAP3 PUSH2 0x15B2 DUP5 PUSH2 0x1C66 JUMP JUMPDEST DUP4 MSTORE PUSH0 PUSH1 0x20 DUP5 ADD MSTORE TIMESTAMP PUSH1 0x40 DUP5 ADD MSTORE PUSH1 0xA PUSH1 0x60 DUP5 ADD MSTORE ADD PUSH2 0x1CC0 JUMP JUMPDEST PUSH1 0x1 DUP2 ADD DUP1 SWAP2 GT PUSH2 0x56B JUMPI PUSH1 0x40 MLOAD SWAP1 DUP2 MSTORE PUSH1 0x40 PUSH1 0x20 DUP3 ADD MSTORE PUSH1 0x4 PUSH1 0x40 DUP3 ADD MSTORE PUSH4 0x141BDBDB PUSH1 0xE2 SHL PUSH1 0x60 DUP3 ADD MSTORE PUSH0 MLOAD PUSH1 0x20 PUSH2 0x3217 PUSH0 CODECOPY PUSH0 MLOAD SWAP1 PUSH0 MSTORE PUSH1 0x80 CALLER SWAP3 LOG3 STOP JUMPDEST PUSH1 0x4 DUP4 ADD SLOAD DUP1 PUSH0 MSTORE PUSH1 0x2C PUSH1 0x20 MSTORE PUSH1 0xF PUSH1 0x40 PUSH0 KECCAK256 ADD SLOAD PUSH3 0x2A300 DUP2 ADD DUP1 SWAP2 GT PUSH2 0x56B JUMPI TIMESTAMP LT ISZERO PUSH2 0x163E JUMPI JUMPDEST POP PUSH2 0x1553 JUMP JUMPDEST PUSH0 MSTORE PUSH1 0x2C PUSH1 0x20 MSTORE PUSH1 0x8 PUSH1 0x40 PUSH0 KECCAK256 ADD DUP1 SLOAD SWAP1 PUSH1 0x1 DUP3 ADD DUP1 SWAP3 GT PUSH2 0x56B JUMPI SSTORE DUP6 PUSH2 0x1638 JUMP JUMPDEST PUSH2 0x1679 SWAP1 PUSH1 0x20 RETURNDATASIZE PUSH1 0x20 GT PUSH2 0x745 JUMPI PUSH2 0x738 DUP2 DUP4 PUSH2 0x1C9E JUMP JUMPDEST PUSH2 0x154D JUMP JUMPDEST PUSH2 0x14CF JUMP JUMPDEST PUSH1 0x40 MLOAD PUSH3 0x461BCD PUSH1 0xE5 SHL DUP2 MSTORE PUSH1 0x20 PUSH1 0x4 DUP3 ADD MSTORE PUSH1 0x18 PUSH1 0x24 DUP3 ADD MSTORE PUSH32 0x5570677261646520796F7572206C6576656C2066697273740000000000000000 PUSH1 0x44 DUP3 ADD MSTORE PUSH1 0x64 SWAP1 REVERT JUMPDEST CALLVALUE PUSH2 0x275 JUMPI PUSH1 0x20 CALLDATASIZE PUSH1 0x3 NOT ADD SLT PUSH2 0x275 JUMPI PUSH1 0x4 CALLDATALOAD PUSH1 0x38 SLOAD DUP2 LT ISZERO PUSH2 0x275 JUMPI PUSH1 0x38 SLOAD DUP2 LT ISZERO PUSH2 0xC10 JUMPI PUSH1 0x38 PUSH0 MSTORE PUSH32 0x38395C5DCEADE9603479B177B68959049485DF8AA97B39F3533039AF5F456199 ADD SLOAD PUSH1 0x40 MLOAD SWAP1 DUP2 MSTORE PUSH1 0x20 SWAP1 RETURN JUMPDEST CALLVALUE PUSH2 0x275 JUMPI PUSH0 CALLDATASIZE PUSH1 0x3 NOT ADD SLT PUSH2 0x275 JUMPI PUSH1 0x20 PUSH1 0x40 MLOAD PUSH1 0xF DUP2 MSTORE RETURN JUMPDEST CALLVALUE PUSH2 0x275 JUMPI PUSH1 0x20 CALLDATASIZE PUSH1 0x3 NOT ADD SLT PUSH2 0x275 JUMPI PUSH1 0x4 CALLDATALOAD PUSH0 MSTORE PUSH1 0x2C PUSH1 0x20 MSTORE PUSH1 0x40 PUSH0 KECCAK256 PUSH1 0x1 PUSH1 0xA0 SHL PUSH1 0x1 SWAP1 SUB DUP2 SLOAD AND PUSH1 0x2 DUP3 ADD SLOAD SWAP2 PUSH1 0x3 DUP2 ADD SLOAD PUSH1 0x4 DUP3 ADD SLOAD PUSH1 0x5 DUP4 ADD SLOAD PUSH1 0x6 DUP5 ADD SLOAD PUSH1 0x7 DUP6 ADD SLOAD PUSH1 0x8 DUP7 ADD SLOAD PUSH1 0x9 DUP8 ADD SLOAD SWAP2 PUSH1 0xA DUP9 ADD SLOAD SWAP4 PUSH1 0xB DUP10 ADD SLOAD SWAP6 PUSH1 0xC DUP11 ADD SLOAD SWAP8 PUSH1 0xD DUP12 ADD SLOAD SWAP10 PUSH1 0xE DUP13 ADD SLOAD SWAP12 PUSH1 0xF ADD SLOAD SWAP13 PUSH1 0x40 MLOAD SWAP15 DUP16 SWAP2 DUP3 MSTORE PUSH1 0x20 DUP3 ADD MSTORE PUSH1 0x40 ADD MSTORE PUSH1 0x60 DUP14 ADD MSTORE PUSH1 0x80 DUP13 ADD MSTORE PUSH1 0xA0 DUP12 ADD MSTORE PUSH1 0xC0 DUP11 ADD MSTORE PUSH1 0xE0 DUP10 ADD MSTORE PUSH2 0x100 DUP9 ADD MSTORE PUSH2 0x120 DUP8 ADD MSTORE PUSH2 0x140 DUP7 ADD MSTORE PUSH2 0x160 DUP6 ADD MSTORE PUSH2 0x180 DUP5 ADD MSTORE PUSH2 0x1A0 DUP4 ADD MSTORE PUSH2 0x1C0 DUP3 ADD MSTORE PUSH2 0x1E0 SWAP1 RETURN JUMPDEST CALLVALUE PUSH2 0x275 JUMPI PUSH0 CALLDATASIZE PUSH1 0x3 NOT ADD SLT PUSH2 0x275 JUMPI PUSH1 0x20 PUSH1 0x40 MLOAD PUSH8 0xDE0B6B3A7640000 DUP2 MSTORE RETURN JUMPDEST CALLVALUE PUSH2 0x275 JUMPI PUSH0 CALLDATASIZE PUSH1 0x3 NOT ADD SLT PUSH2 0x275 JUMPI PUSH1 0x20 PUSH1 0x40 MLOAD PUSH3 0x15180 DUP2 MSTORE RETURN JUMPDEST CALLVALUE PUSH2 0x275 JUMPI PUSH0 CALLDATASIZE PUSH1 0x3 NOT ADD SLT PUSH2 0x275 JUMPI PUSH0 SLOAD PUSH1 0x40 MLOAD PUSH1 0x1 PUSH1 0x1 PUSH1 0xA0 SHL SUB SWAP1 SWAP2 AND DUP2 MSTORE PUSH1 0x20 SWAP1 RETURN JUMPDEST CALLVALUE PUSH2 0x275 JUMPI PUSH0 CALLDATASIZE PUSH1 0x3 NOT ADD SLT PUSH2 0x275 JUMPI PUSH1 0x20 PUSH1 0x34 SLOAD PUSH1 0x40 MLOAD SWAP1 DUP2 MSTORE RETURN JUMPDEST CALLVALUE PUSH2 0x275 JUMPI PUSH1 0x20 CALLDATASIZE PUSH1 0x3 NOT ADD SLT PUSH2 0x275 JUMPI PUSH1 0x40 PUSH2 0x18B0 PUSH1 0x4 CALLDATALOAD PUSH2 0x1D35 JUMP JUMPDEST DUP3 MLOAD SWAP2 DUP3 MSTORE PUSH1 0x20 DUP3 ADD MSTORE RETURN JUMPDEST CALLVALUE PUSH2 0x275 JUMPI PUSH1 0x20 CALLDATASIZE PUSH1 0x3 NOT ADD SLT PUSH2 0x275 JUMPI PUSH1 0x4 CALLDATALOAD PUSH1 0x7 DUP2 LT ISZERO PUSH2 0x275 JUMPI PUSH1 0x20 SWAP1 PUSH1 0xA ADD SLOAD PUSH1 0x40 MLOAD SWAP1 DUP2 MSTORE RETURN JUMPDEST CALLVALUE PUSH2 0x275 JUMPI PUSH4 0xFFFFFFFF PUSH2 0x18FB CALLDATASIZE PUSH2 0x1B97 JUMP JUMPDEST SWAP2 AND SWAP1 DUP2 PUSH0 MSTORE PUSH1 0x2C PUSH1 0x20 MSTORE PUSH1 0x40 PUSH0 KECCAK256 PUSH2 0x191E PUSH1 0x1 DUP1 PUSH1 0xA0 SHL SUB DUP3 SLOAD AND CALLER EQ PUSH2 0x1BD3 JUMP JUMPDEST PUSH2 0x192E PUSH1 0x7 PUSH1 0xB DUP4 ADD SLOAD LT PUSH2 0x1C12 JUMP JUMPDEST PUSH2 0x1937 DUP3 PUSH2 0x1AF2 JUMP JUMPDEST SWAP1 SLOAD SWAP1 PUSH1 0x3 SHL SHR DUP3 PUSH0 MSTORE PUSH1 0x21 PUSH1 0x20 MSTORE PUSH1 0x40 PUSH0 KECCAK256 DUP5 PUSH0 MSTORE PUSH1 0x20 MSTORE PUSH1 0x1 PUSH1 0x40 PUSH0 KECCAK256 ADD SWAP2 DUP3 SLOAD SWAP1 DUP3 DUP3 LT PUSH2 0x19CB JUMPI PUSH2 0x1983 SWAP4 PUSH2 0x1972 DUP5 PUSH1 0x1 SWAP5 PUSH2 0x1C4C JUMP JUMPDEST SWAP1 SSTORE PUSH1 0xC DUP2 ADD PUSH2 0x1598 DUP5 DUP3 SLOAD PUSH2 0x1C59 JUMP JUMPDEST PUSH1 0x40 MLOAD SWAP1 DUP2 MSTORE PUSH1 0x40 PUSH1 0x20 DUP3 ADD MSTORE PUSH1 0x16 PUSH1 0x40 DUP3 ADD MSTORE PUSH22 0x506F6F6C205265546F70757020284561726E696E6729 PUSH1 0x50 SHL PUSH1 0x60 DUP3 ADD MSTORE PUSH0 MLOAD PUSH1 0x20 PUSH2 0x3217 PUSH0 CODECOPY PUSH0 MLOAD SWAP1 PUSH0 MSTORE PUSH1 0x80 CALLER SWAP3 LOG3 STOP JUMPDEST PUSH1 0x40 MLOAD PUSH3 0x461BCD PUSH1 0xE5 SHL DUP2 MSTORE PUSH1 0x20 PUSH1 0x4 DUP3 ADD MSTORE PUSH1 0x1A PUSH1 0x24 DUP3 ADD MSTORE PUSH32 0x4E6F7420656E6F756768207265546F7075702062616C616E6365000000000000 PUSH1 0x44 DUP3 ADD MSTORE PUSH1 0x64 SWAP1 REVERT JUMPDEST CALLVALUE PUSH2 0x275 JUMPI PUSH1 0x20 CALLDATASIZE PUSH1 0x3 NOT ADD SLT PUSH2 0x275 JUMPI PUSH1 0x4 CALLDATALOAD PUSH0 MSTORE PUSH1 0x33 PUSH1 0x20 MSTORE PUSH1 0x20 PUSH1 0x40 PUSH0 KECCAK256 SLOAD PUSH1 0x40 MLOAD SWAP1 DUP2 MSTORE RETURN JUMPDEST CALLVALUE PUSH2 0x275 JUMPI PUSH2 0x1A48 CALLDATASIZE PUSH2 0x1B81 JUMP JUMPDEST SWAP1 PUSH0 MSTORE PUSH1 0x25 PUSH1 0x20 MSTORE PUSH1 0x40 PUSH0 KECCAK256 DUP1 SLOAD DUP3 LT ISZERO PUSH2 0x275 JUMPI PUSH1 0x20 SWAP2 PUSH2 0x931 SWAP2 PUSH2 0x1B6C JUMP JUMPDEST CALLVALUE PUSH2 0x275 JUMPI PUSH2 0x1A77 CALLDATASIZE PUSH2 0x1AD8 JUMP JUMPDEST SWAP2 PUSH0 MSTORE PUSH1 0x28 PUSH1 0x20 MSTORE PUSH1 0x40 PUSH0 KECCAK256 SWAP1 PUSH0 MSTORE PUSH1 0x20 MSTORE PUSH1 0x40 PUSH0 KECCAK256 DUP1 SLOAD DUP3 LT ISZERO PUSH2 0x275 JUMPI PUSH1 0x20 SWAP2 PUSH2 0x931 SWAP2 PUSH2 0x1B6C JUMP JUMPDEST CALLVALUE PUSH2 0x275 JUMPI PUSH0 CALLDATASIZE PUSH1 0x3 NOT ADD SLT PUSH2 0x275 JUMPI PUSH1 0x20 PUSH1 0x40 MLOAD PUSH2 0x2710 DUP2 MSTORE RETURN JUMPDEST CALLVALUE PUSH2 0x275 JUMPI PUSH0 CALLDATASIZE PUSH1 0x3 NOT ADD SLT PUSH2 0x275 JUMPI PUSH1 0x20 SWAP1 PUSH1 0x36 SLOAD DUP2 MSTORE RETURN JUMPDEST PUSH1 0x60 SWAP1 PUSH1 0x3 NOT ADD SLT PUSH2 0x275 JUMPI PUSH1 0x4 CALLDATALOAD SWAP1 PUSH1 0x24 CALLDATALOAD SWAP1 PUSH1 0x44 CALLDATALOAD SWAP1 JUMP JUMPDEST PUSH1 0x8 SLOAD DUP2 LT ISZERO PUSH2 0xC10 JUMPI PUSH1 0x8 PUSH0 MSTORE PUSH1 0x20 PUSH0 KECCAK256 ADD SWAP1 PUSH0 SWAP1 JUMP JUMPDEST PUSH1 0x7 SLOAD DUP2 LT ISZERO PUSH2 0xC10 JUMPI PUSH1 0x7 PUSH0 MSTORE PUSH1 0x20 PUSH0 KECCAK256 ADD SWAP1 PUSH0 SWAP1 JUMP JUMPDEST PUSH1 0x9 SLOAD DUP2 LT ISZERO PUSH2 0xC10 JUMPI PUSH1 0x9 PUSH0 MSTORE PUSH1 0x20 PUSH0 KECCAK256 ADD SWAP1 PUSH0 SWAP1 JUMP JUMPDEST PUSH1 0x7 SLOAD ISZERO PUSH2 0xC10 JUMPI PUSH1 0x7 PUSH0 SWAP1 DUP2 MSTORE PUSH32 0xA66CC928B5EDB82AF9BD49922954155AB7B0942694BEA4CE44661D9A8736C688 SWAP2 JUMP JUMPDEST DUP1 SLOAD DUP3 LT ISZERO PUSH2 0xC10 JUMPI PUSH0 MSTORE PUSH1 0x20 PUSH0 KECCAK256 ADD SWAP1 PUSH0 SWAP1 JUMP JUMPDEST PUSH1 0x40 SWAP1 PUSH1 0x3 NOT ADD SLT PUSH2 0x275 JUMPI PUSH1 0x4 CALLDATALOAD SWAP1 PUSH1 0x24 CALLDATALOAD SWAP1 JUMP JUMPDEST PUSH1 0x40 SWAP1 PUSH1 0x3 NOT ADD SLT PUSH2 0x275 JUMPI PUSH1 0x4 CALLDATALOAD PUSH4 0xFFFFFFFF DUP2 AND DUP2 SUB PUSH2 0x275 JUMPI SWAP1 PUSH1 0x24 CALLDATALOAD SWAP1 JUMP JUMPDEST DUP1 SLOAD DUP3 LT ISZERO PUSH2 0xC10 JUMPI PUSH0 MSTORE PUSH1 0x5 PUSH1 0x20 PUSH0 KECCAK256 SWAP2 MUL ADD SWAP1 PUSH0 SWAP1 JUMP JUMPDEST ISZERO PUSH2 0x1BDA JUMPI JUMP JUMPDEST PUSH1 0x40 MLOAD PUSH3 0x461BCD PUSH1 0xE5 SHL DUP2 MSTORE PUSH1 0x20 PUSH1 0x4 DUP3 ADD MSTORE PUSH1 0x10 PUSH1 0x24 DUP3 ADD MSTORE PUSH16 0x139BDD081E5BDD5C881858D8DBDD5B9D PUSH1 0x82 SHL PUSH1 0x44 DUP3 ADD MSTORE PUSH1 0x64 SWAP1 REVERT JUMPDEST ISZERO PUSH2 0x1C19 JUMPI JUMP JUMPDEST PUSH1 0x40 MLOAD PUSH3 0x461BCD PUSH1 0xE5 SHL DUP2 MSTORE PUSH1 0x20 PUSH1 0x4 DUP3 ADD MSTORE PUSH1 0xB PUSH1 0x24 DUP3 ADD MSTORE PUSH11 0x105D081B585E081C1BDBDB PUSH1 0xAA SHL PUSH1 0x44 DUP3 ADD MSTORE PUSH1 0x64 SWAP1 REVERT JUMPDEST SWAP2 SWAP1 DUP3 SUB SWAP2 DUP3 GT PUSH2 0x56B JUMPI JUMP JUMPDEST SWAP2 SWAP1 DUP3 ADD DUP1 SWAP3 GT PUSH2 0x56B JUMPI JUMP JUMPDEST PUSH1 0x80 DUP2 ADD SWAP1 DUP2 LT PUSH8 0xFFFFFFFFFFFFFFFF DUP3 GT OR PUSH2 0x70B JUMPI PUSH1 0x40 MSTORE JUMP JUMPDEST PUSH1 0xA0 DUP2 ADD SWAP1 DUP2 LT PUSH8 0xFFFFFFFFFFFFFFFF DUP3 GT OR PUSH2 0x70B JUMPI PUSH1 0x40 MSTORE JUMP JUMPDEST SWAP1 PUSH1 0x1F DUP1 NOT SWAP2 ADD AND DUP2 ADD SWAP1 DUP2 LT PUSH8 0xFFFFFFFFFFFFFFFF DUP3 GT OR PUSH2 0x70B JUMPI PUSH1 0x40 MSTORE JUMP JUMPDEST DUP1 SLOAD PUSH1 0x1 PUSH1 0x40 SHL DUP2 LT ISZERO PUSH2 0x70B JUMPI PUSH1 0x1 DUP2 ADD DUP1 DUP4 SSTORE DUP2 LT ISZERO PUSH2 0xC10 JUMPI PUSH1 0x3 PUSH1 0x60 SWAP2 PUSH1 0xFF SWAP4 PUSH0 MSTORE PUSH1 0x20 PUSH0 KECCAK256 SWAP1 PUSH1 0x2 SHL ADD DUP5 MLOAD DUP2 SSTORE PUSH1 0x20 DUP6 ADD MLOAD PUSH1 0x1 DUP3 ADD SSTORE PUSH1 0x40 DUP6 ADD MLOAD PUSH1 0x2 DUP3 ADD SSTORE ADD SWAP3 ADD MLOAD AND PUSH1 0xFF NOT DUP3 SLOAD AND OR SWAP1 SSTORE JUMP JUMPDEST DUP2 ISZERO PUSH2 0x1D21 JUMPI DIV SWAP1 JUMP JUMPDEST PUSH4 0x4E487B71 PUSH1 0xE0 SHL PUSH0 MSTORE PUSH1 0x12 PUSH1 0x4 MSTORE PUSH1 0x24 PUSH0 REVERT JUMPDEST SWAP1 DUP2 PUSH0 MSTORE PUSH1 0x2C PUSH1 0x20 MSTORE PUSH1 0x3 PUSH1 0x40 PUSH0 KECCAK256 ADD SLOAD ISZERO PUSH2 0x1D8F JUMPI PUSH1 0x32 SLOAD DUP3 PUSH0 MSTORE PUSH1 0x33 PUSH1 0x20 MSTORE PUSH1 0x40 PUSH0 KECCAK256 SLOAD SWAP1 DUP2 DUP2 GT ISZERO PUSH2 0x1D85 JUMPI PUSH2 0x1D7A PUSH2 0x1D82 SWAP3 PUSH8 0xDE0B6B3A7640000 SWAP3 PUSH2 0x1C4C JUMP JUMPDEST DIV DUP1 SWAP4 PUSH2 0x2437 JUMP JUMPDEST SWAP1 JUMP JUMPDEST POP POP SWAP1 POP PUSH0 SWAP1 PUSH0 SWAP1 JUMP JUMPDEST PUSH0 SWAP2 POP DUP2 SWAP1 JUMP JUMPDEST ISZERO PUSH2 0x1D9D JUMPI JUMP JUMPDEST PUSH1 0x40 MLOAD PUSH3 0x461BCD PUSH1 0xE5 SHL DUP2 MSTORE PUSH1 0x20 PUSH1 0x4 DUP3 ADD MSTORE PUSH1 0xC PUSH1 0x24 DUP3 ADD MSTORE PUSH12 0x105D081B585E081B195D995B PUSH1 0xA2 SHL PUSH1 0x44 DUP3 ADD MSTORE PUSH1 0x64 SWAP1 REVERT JUMPDEST ISZERO PUSH2 0x1DD8 JUMPI JUMP JUMPDEST PUSH1 0x40 MLOAD PUSH3 0x461BCD PUSH1 0xE5 SHL DUP2 MSTORE PUSH1 0x20 PUSH1 0x4 DUP3 ADD MSTORE PUSH1 0x16 PUSH1 0x24 DUP3 ADD MSTORE PUSH22 0x141BDBDB08185B1C9958591E481C1D5C98DA185CD959 PUSH1 0x52 SHL PUSH1 0x44 DUP3 ADD MSTORE PUSH1 0x64 SWAP1 REVERT JUMPDEST SWAP1 DUP2 PUSH1 0x20 SWAP2 SUB SLT PUSH2 0x275 JUMPI MLOAD DUP1 ISZERO ISZERO DUP2 SUB PUSH2 0x275 JUMPI SWAP1 JUMP JUMPDEST DUP2 DUP2 MUL SWAP3 SWAP2 DUP2 ISZERO SWAP2 DUP5 DIV EQ OR ISZERO PUSH2 0x56B JUMPI JUMP JUMPDEST PUSH1 0x60 SWAP1 PUSH0 MSTORE PUSH1 0x2C PUSH1 0x20 MSTORE PUSH1 0x40 PUSH0 KECCAK256 PUSH1 0xB DUP2 ADD SLOAD SWAP2 PUSH1 0x8 SLOAD DUP4 LT ISZERO PUSH2 0x1F53 JUMPI POP PUSH1 0x7 DUP3 LT ISZERO PUSH2 0xC10 JUMPI PUSH1 0x6 DUP3 PUSH1 0xA ADD SLOAD SWAP2 ADD SLOAD LT PUSH2 0x1F06 JUMPI ISZERO ISZERO DUP1 PUSH2 0x1EFF JUMPI JUMPDEST PUSH2 0x1EC2 JUMPI PUSH1 0x1 SWAP1 PUSH1 0x40 MLOAD PUSH2 0x1E95 PUSH1 0x40 DUP3 PUSH2 0x1C9E JUMP JUMPDEST PUSH1 0x19 DUP2 MSTORE PUSH32 0x456C696769626C6520746F20627579206E65787420706F6F6C00000000000000 PUSH1 0x20 DUP3 ADD MSTORE SWAP1 JUMP JUMPDEST PUSH0 SWAP1 PUSH1 0x40 MLOAD PUSH2 0x1ED2 PUSH1 0x40 DUP3 PUSH2 0x1C9E JUMP JUMPDEST PUSH1 0x17 DUP2 MSTORE PUSH32 0x4275792070726576696F757320706F6F6C206669727374000000000000000000 PUSH1 0x20 DUP3 ADD MSTORE SWAP1 JUMP JUMPDEST POP PUSH0 PUSH2 0x1E80 JUMP JUMPDEST POP PUSH0 SWAP1 PUSH1 0x40 MLOAD PUSH2 0x1F17 PUSH1 0x60 DUP3 PUSH2 0x1C9E JUMP JUMPDEST PUSH1 0x26 DUP2 MSTORE PUSH32 0x596F75206E65656420746F207265616368206120686967686572206C6576656C PUSH1 0x20 DUP3 ADD MSTORE PUSH6 0x8199A5C9CDD PUSH1 0xD2 SHL PUSH1 0x40 DUP3 ADD MSTORE SWAP1 JUMP JUMPDEST SWAP3 SWAP2 POP POP PUSH0 SWAP2 PUSH2 0x1F66 PUSH1 0x40 MLOAD SWAP2 DUP3 PUSH2 0x1C9E JUMP JUMPDEST PUSH1 0x23 DUP2 MSTORE PUSH32 0x596F752061726520616C72656164792061742074686520686967686573742070 PUSH1 0x20 DUP3 ADD MSTORE PUSH3 0x1BDBDB PUSH1 0xEA SHL PUSH1 0x40 DUP3 ADD MSTORE SWAP1 JUMP JUMPDEST DUP1 SLOAD PUSH1 0x1 PUSH1 0x40 SHL DUP2 LT ISZERO PUSH2 0x70B JUMPI PUSH2 0x1FBC SWAP2 PUSH1 0x1 DUP3 ADD DUP2 SSTORE PUSH2 0x1BBA JUMP JUMPDEST SWAP2 SWAP1 SWAP2 PUSH2 0x1FF3 JUMPI DUP1 MLOAD DUP3 SSTORE PUSH1 0x20 DUP2 ADD MLOAD PUSH1 0x1 DUP4 ADD SSTORE PUSH1 0x40 DUP2 ADD MLOAD PUSH1 0x2 DUP4 ADD SSTORE PUSH1 0x60 DUP2 ADD MLOAD PUSH1 0x3 DUP4 ADD SSTORE PUSH1 0x80 ADD MLOAD PUSH1 0x4 SWAP1 SWAP2 ADD SSTORE JUMP JUMPDEST JUMP JUMPDEST PUSH4 0x4E487B71 PUSH1 0xE0 SHL PUSH0 MSTORE PUSH0 PUSH1 0x4 MSTORE PUSH1 0x24 PUSH0 REVERT JUMPDEST DUP1 PUSH0 MSTORE PUSH1 0x2C PUSH1 0x20 MSTORE PUSH1 0x40 PUSH0 KECCAK256 SWAP1 PUSH1 0x3 DUP3 ADD SLOAD ISZERO PUSH2 0x21DC JUMPI PUSH2 0x2031 PUSH1 0x1 DUP1 PUSH1 0xA0 SHL SUB DUP4 SLOAD AND CALLER EQ PUSH2 0x1BD3 JUMP JUMPDEST PUSH1 0x32 SLOAD SWAP2 DUP2 PUSH0 MSTORE PUSH1 0x33 PUSH1 0x20 MSTORE PUSH1 0x40 PUSH0 KECCAK256 SLOAD DUP1 DUP5 EQ PUSH2 0x21D6 JUMPI PUSH2 0x205C PUSH8 0xDE0B6B3A7640000 SWAP2 DUP6 PUSH2 0x1C4C JUMP JUMPDEST DIV SWAP2 DUP3 ISZERO PUSH2 0x21C5 JUMPI PUSH2 0x206E DUP4 DUP3 PUSH2 0x2437 JUMP JUMPDEST SWAP4 DUP2 PUSH0 MSTORE PUSH1 0x33 PUSH1 0x20 MSTORE PUSH1 0x40 PUSH0 KECCAK256 SSTORE DUP4 DUP1 PUSH2 0x20A2 JUMPI JUMPDEST SWAP2 POP POP DUP2 GT PUSH2 0x2090 JUMPI POP POP JUMP JUMPDEST PUSH2 0x1FF1 SWAP2 PUSH2 0x209D SWAP2 PUSH2 0x1C4C JUMP JUMPDEST PUSH2 0x250A JUMP JUMPDEST PUSH2 0x214A SWAP3 PUSH2 0x210C DUP4 PUSH1 0x20 SWAP5 PUSH0 MSTORE PUSH1 0x2D DUP6 MSTORE PUSH1 0x7 PUSH1 0x40 PUSH0 KECCAK256 PUSH2 0x20C4 DUP7 DUP3 SLOAD PUSH2 0x1C59 JUMP JUMPDEST DUP2 SSTORE ADD PUSH2 0x20D2 DUP6 DUP3 SLOAD PUSH2 0x1C59 JUMP JUMPDEST SWAP1 SSTORE DUP1 PUSH0 MSTORE PUSH1 0x2E DUP6 MSTORE PUSH1 0x40 PUSH0 KECCAK256 PUSH1 0x40 MLOAD SWAP2 PUSH2 0x20EC DUP4 PUSH2 0x1C82 JUMP JUMPDEST DUP3 MSTORE DUP5 DUP7 DUP4 ADD MSTORE PUSH1 0x1 PUSH1 0x40 DUP4 ADD MSTORE TIMESTAMP PUSH1 0x60 DUP4 ADD MSTORE PUSH1 0x9 PUSH1 0x80 DUP4 ADD MSTORE PUSH2 0x1F9F JUMP JUMPDEST PUSH0 DUP1 SLOAD SWAP2 SLOAD PUSH1 0x40 MLOAD PUSH4 0xA9059CBB PUSH1 0xE0 SHL DUP2 MSTORE PUSH1 0x1 PUSH1 0x1 PUSH1 0xA0 SHL SUB SWAP2 DUP3 AND PUSH1 0x4 DUP3 ADD MSTORE PUSH1 0x24 DUP2 ADD SWAP5 SWAP1 SWAP5 MSTORE SWAP3 SWAP5 DUP6 SWAP4 SWAP1 SWAP3 AND SWAP2 DUP4 SWAP2 SWAP1 DUP3 SWAP1 PUSH1 0x44 DUP3 ADD SWAP1 JUMP JUMPDEST SUB SWAP3 GAS CALL SWAP1 DUP2 ISZERO PUSH2 0x74C JUMPI PUSH0 SWAP2 PUSH2 0x21A6 JUMPI JUMPDEST POP ISZERO PUSH2 0x216A JUMPI PUSH0 DUP1 DUP4 PUSH2 0x2083 JUMP JUMPDEST PUSH1 0x40 MLOAD PUSH3 0x461BCD PUSH1 0xE5 SHL DUP2 MSTORE PUSH1 0x20 PUSH1 0x4 DUP3 ADD MSTORE PUSH1 0x14 PUSH1 0x24 DUP3 ADD MSTORE PUSH20 0x1554D115081D1C985B9CD9995C8819985A5B1959 PUSH1 0x62 SHL PUSH1 0x44 DUP3 ADD MSTORE PUSH1 0x64 SWAP1 REVERT JUMPDEST PUSH2 0x21BF SWAP2 POP PUSH1 0x20 RETURNDATASIZE PUSH1 0x20 GT PUSH2 0x745 JUMPI PUSH2 0x738 DUP2 DUP4 PUSH2 0x1C9E JUMP JUMPDEST PUSH0 PUSH2 0x215C JUMP JUMPDEST SWAP2 POP POP PUSH0 MSTORE PUSH1 0x33 PUSH1 0x20 MSTORE PUSH1 0x40 PUSH0 KECCAK256 SSTORE JUMP JUMPDEST POP POP POP POP JUMP JUMPDEST PUSH1 0x40 MLOAD PUSH3 0x461BCD PUSH1 0xE5 SHL DUP2 MSTORE PUSH1 0x20 PUSH1 0x4 DUP3 ADD MSTORE PUSH1 0xE PUSH1 0x24 DUP3 ADD MSTORE PUSH14 0x155CD95C881B9BDD08199BDD5B99 PUSH1 0x92 SHL PUSH1 0x44 DUP3 ADD MSTORE PUSH1 0x64 SWAP1 REVERT JUMPDEST DUP1 SLOAD PUSH1 0x1 PUSH1 0x40 SHL DUP2 LT ISZERO PUSH2 0x70B JUMPI PUSH2 0x222F SWAP2 PUSH1 0x1 DUP3 ADD DUP2 SSTORE PUSH2 0x1B6C JUMP JUMPDEST DUP2 SWAP3 SWAP2 SLOAD SWAP1 PUSH1 0x3 SHL SWAP2 DUP3 SHL SWAP2 PUSH0 NOT SWAP1 SHL NOT AND OR SWAP1 SSTORE JUMP JUMPDEST ISZERO PUSH2 0x224D JUMPI JUMP JUMPDEST PUSH1 0x40 MLOAD PUSH3 0x461BCD PUSH1 0xE5 SHL DUP2 MSTORE PUSH1 0x20 PUSH1 0x4 DUP3 ADD MSTORE PUSH1 0x7 PUSH1 0x24 DUP3 ADD MSTORE PUSH7 0x125B9D985B1A59 PUSH1 0xCA SHL PUSH1 0x44 DUP3 ADD MSTORE PUSH1 0x64 SWAP1 REVERT JUMPDEST ISZERO PUSH2 0x2283 JUMPI JUMP JUMPDEST PUSH1 0x40 MLOAD PUSH3 0x461BCD PUSH1 0xE5 SHL DUP2 MSTORE PUSH1 0x20 PUSH1 0x4 DUP3 ADD MSTORE PUSH1 0x10 PUSH1 0x24 DUP3 ADD MSTORE PUSH16 0x125B98DBDC9C9958DD08185B5BDD5B9D PUSH1 0x82 SHL PUSH1 0x44 DUP3 ADD MSTORE PUSH1 0x64 SWAP1 REVERT JUMPDEST DUP1 MLOAD DUP3 LT ISZERO PUSH2 0xC10 JUMPI PUSH1 0x20 SWAP2 PUSH1 0x5 SHL ADD ADD SWAP1 JUMP JUMPDEST SWAP2 SWAP1 PUSH2 0x22DE PUSH1 0x8 SLOAD DUP5 LT PUSH2 0x2246 JUMP JUMPDEST PUSH2 0x22F8 PUSH2 0x22EA DUP5 PUSH2 0x1AF2 JUMP JUMPDEST SWAP1 SLOAD SWAP1 PUSH1 0x3 SHL SHR CALLVALUE EQ PUSH2 0x227C JUMP JUMPDEST DUP3 PUSH0 MSTORE PUSH1 0x25 PUSH1 0x20 MSTORE PUSH1 0x40 PUSH0 KECCAK256 SWAP3 PUSH1 0x40 MLOAD DUP1 DUP6 PUSH1 0x20 DUP3 SWAP8 SLOAD SWAP4 DUP5 DUP2 MSTORE ADD SWAP1 PUSH0 MSTORE PUSH1 0x20 PUSH0 KECCAK256 SWAP3 PUSH0 JUMPDEST DUP2 DUP2 LT PUSH2 0x241E JUMPI POP POP PUSH2 0x2333 SWAP3 POP SUB DUP6 PUSH2 0x1C9E JUMP JUMPDEST DUP4 MLOAD SWAP4 PUSH2 0x2342 DUP6 PUSH1 0x5 SLOAD PUSH2 0x1C59 JUMP JUMPDEST SWAP1 DUP3 PUSH0 MSTORE PUSH1 0x25 PUSH1 0x20 MSTORE PUSH2 0x2358 DUP3 PUSH1 0x40 PUSH0 KECCAK256 PUSH2 0x2212 JUMP JUMPDEST PUSH0 NOT DUP7 ADD SWAP6 DUP7 GT PUSH2 0x56B JUMPI PUSH2 0x2377 PUSH2 0x2419 SWAP2 PUSH1 0x3 PUSH2 0x1FF1 SWAP9 DIV SWAP1 PUSH2 0x22BB JUMP JUMPDEST MLOAD SWAP2 PUSH2 0x23DF PUSH1 0x40 MLOAD PUSH2 0x2388 DUP2 PUSH2 0x1C82 JUMP JUMPDEST DUP3 DUP2 MSTORE PUSH1 0x20 DUP1 DUP3 ADD DUP9 DUP2 MSTORE PUSH1 0x40 DUP1 DUP5 ADD DUP10 DUP2 MSTORE PUSH1 0x60 DUP6 ADD DUP10 DUP2 MSTORE PUSH0 PUSH1 0x80 DUP8 ADD DUP2 DUP2 MSTORE DUP13 DUP3 MSTORE PUSH1 0x22 DUP8 MSTORE DUP5 DUP3 KECCAK256 DUP11 DUP4 MSTORE SWAP1 SWAP7 MSTORE SWAP3 SWAP1 SWAP3 KECCAK256 SWAP5 MLOAD DUP6 SSTORE SWAP2 MLOAD PUSH1 0x1 DUP6 ADD SSTORE SWAP1 MLOAD PUSH1 0x2 DUP5 ADD SSTORE MLOAD PUSH1 0x3 DUP4 ADD SSTORE MLOAD PUSH1 0x4 SWAP1 SWAP2 ADD SSTORE JUMP JUMPDEST DUP4 PUSH0 MSTORE PUSH1 0x24 PUSH1 0x20 MSTORE PUSH1 0x40 PUSH0 KECCAK256 DUP6 PUSH0 MSTORE PUSH1 0x20 MSTORE PUSH2 0x23FE DUP2 PUSH1 0x40 PUSH0 KECCAK256 PUSH2 0x2212 JUMP JUMPDEST DUP4 PUSH0 MSTORE PUSH1 0x23 PUSH1 0x20 MSTORE PUSH1 0x40 PUSH0 KECCAK256 DUP4 PUSH0 MSTORE PUSH1 0x20 MSTORE PUSH1 0x40 PUSH0 KECCAK256 PUSH2 0x2212 JUMP JUMPDEST PUSH2 0x2F8F JUMP JUMPDEST DUP5 SLOAD DUP4 MSTORE PUSH1 0x1 SWAP5 DUP6 ADD SWAP5 DUP10 SWAP5 POP PUSH1 0x20 SWAP1 SWAP4 ADD SWAP3 ADD PUSH2 0x231E JUMP JUMPDEST DUP1 PUSH0 MSTORE PUSH1 0x2C PUSH1 0x20 MSTORE PUSH1 0x40 PUSH0 KECCAK256 SWAP1 PUSH0 MSTORE PUSH1 0x2D PUSH1 0x20 MSTORE PUSH1 0xA PUSH2 0x246D PUSH1 0x40 PUSH0 KECCAK256 SWAP3 PUSH1 0xF SWAP1 PUSH1 0x1 PUSH1 0x8 DUP3 ADD SLOAD GT PUSH2 0x249A JUMPI JUMPDEST DUP4 ADD SLOAD PUSH2 0x1E2E JUMP JUMPDEST DIV SWAP1 SLOAD DUP2 DUP2 LT ISZERO PUSH2 0x2493 JUMPI PUSH2 0x2481 SWAP2 PUSH2 0x1C4C JUMP JUMPDEST SWAP1 DUP2 DUP2 GT ISZERO PUSH2 0x248E JUMPI POP SWAP1 JUMP JUMPDEST SWAP1 POP SWAP1 JUMP JUMPDEST POP POP POP PUSH0 SWAP1 JUMP JUMPDEST PUSH1 0x14 SWAP2 POP PUSH2 0x2465 JUMP JUMPDEST PUSH1 0x38 SLOAD SWAP1 DUP2 ISZERO DUP1 ISZERO PUSH2 0x2502 JUMPI JUMPDEST PUSH2 0x24EF JUMPI PUSH8 0xDE0B6B3A7640000 DUP2 MUL SWAP1 DUP1 DUP3 DIV PUSH8 0xDE0B6B3A7640000 EQ SWAP1 ISZERO OR ISZERO PUSH2 0x56B JUMPI PUSH2 0x24EA SWAP2 PUSH2 0x24E2 SWAP2 PUSH2 0x1D17 JUMP JUMPDEST PUSH1 0x32 SLOAD PUSH2 0x1C59 JUMP JUMPDEST PUSH1 0x32 SSTORE JUMP JUMPDEST DUP1 SWAP2 POP PUSH2 0x24F9 JUMPI POP JUMP JUMPDEST PUSH2 0x1FF1 SWAP1 PUSH2 0x250A JUMP JUMPDEST POP DUP1 ISZERO PUSH2 0x24B0 JUMP JUMPDEST PUSH1 0x2 SLOAD PUSH1 0x1 PUSH1 0x1 PUSH1 0xA0 SHL SUB AND SWAP1 DUP2 ISZERO PUSH2 0x25D7 JUMPI PUSH0 DUP1 SLOAD PUSH1 0x40 MLOAD PUSH4 0xA9059CBB PUSH1 0xE0 SHL DUP2 MSTORE PUSH1 0x1 PUSH1 0x1 PUSH1 0xA0 SHL SUB SWAP5 DUP6 AND PUSH1 0x4 DUP3 ADD MSTORE PUSH1 0x24 DUP2 ADD DUP5 SWAP1 MSTORE SWAP4 PUSH1 0x20 SWAP3 DUP6 SWAP3 PUSH1 0x44 SWAP3 DUP5 SWAP3 SWAP2 AND GAS CALL SWAP2 DUP3 ISZERO PUSH2 0x74C JUMPI PUSH2 0x1FF1 SWAP3 PUSH2 0x25BA JUMPI JUMPDEST POP PUSH1 0x5 SLOAD PUSH0 MSTORE PUSH1 0x2D PUSH1 0x20 MSTORE PUSH1 0x40 PUSH0 KECCAK256 PUSH2 0x257D DUP3 DUP3 SLOAD PUSH2 0x1C59 JUMP JUMPDEST SWAP1 SSTORE PUSH1 0x5 SLOAD PUSH0 MSTORE PUSH1 0x2E PUSH1 0x20 MSTORE PUSH1 0x40 PUSH0 KECCAK256 PUSH1 0x40 MLOAD SWAP2 PUSH2 0x259A DUP4 PUSH2 0x1C82 JUMP JUMPDEST PUSH0 DUP4 MSTORE PUSH1 0x20 DUP4 ADD MSTORE PUSH0 PUSH1 0x40 DUP4 ADD MSTORE TIMESTAMP PUSH1 0x60 DUP4 ADD MSTORE PUSH1 0x5 PUSH1 0x80 DUP4 ADD MSTORE PUSH2 0x1F9F JUMP JUMPDEST PUSH2 0x25D2 SWAP1 PUSH1 0x20 RETURNDATASIZE PUSH1 0x20 GT PUSH2 0x745 JUMPI PUSH2 0x738 DUP2 DUP4 PUSH2 0x1C9E JUMP JUMPDEST PUSH2 0x2563 JUMP JUMPDEST PUSH1 0x40 MLOAD PUSH3 0x461BCD PUSH1 0xE5 SHL DUP2 MSTORE PUSH1 0x20 PUSH1 0x4 DUP3 ADD MSTORE PUSH1 0x11 PUSH1 0x24 DUP3 ADD MSTORE PUSH17 0x199959481859191C9CC81B9BDD081CD95D PUSH1 0x7A SHL PUSH1 0x44 DUP3 ADD MSTORE PUSH1 0x64 SWAP1 REVERT JUMPDEST DUP1 ISZERO DUP1 ISZERO PUSH2 0x2745 JUMPI JUMPDEST PUSH2 0x273A JUMPI PUSH0 DUP2 DUP2 MSTORE PUSH1 0x2C PUSH1 0x20 SWAP1 DUP2 MSTORE PUSH1 0x40 DUP1 DUP4 KECCAK256 DUP4 SLOAD DUP2 SLOAD SWAP3 MLOAD PUSH4 0xA9059CBB PUSH1 0xE0 SHL DUP2 MSTORE PUSH1 0x1 PUSH1 0x1 PUSH1 0xA0 SHL SUB SWAP4 DUP5 AND PUSH1 0x4 DUP3 ADD MSTORE PUSH1 0x24 DUP2 ADD DUP10 SWAP1 MSTORE SWAP2 SWAP6 SWAP5 SWAP2 SWAP4 SWAP3 DUP5 SWAP3 PUSH1 0x44 SWAP3 DUP5 SWAP3 AND GAS CALL DUP1 ISZERO PUSH2 0x74C JUMPI PUSH2 0x271D JUMPI JUMPDEST POP DUP1 PUSH0 MSTORE PUSH1 0x2D PUSH1 0x20 MSTORE PUSH1 0x1 PUSH1 0x40 PUSH0 KECCAK256 PUSH2 0x2689 DUP7 DUP3 SLOAD PUSH2 0x1C59 JUMP JUMPDEST DUP2 SSTORE ADD PUSH2 0x2697 DUP6 DUP3 SLOAD PUSH2 0x1C59 JUMP JUMPDEST SWAP1 SSTORE PUSH0 MSTORE PUSH1 0x2E PUSH1 0x20 MSTORE PUSH2 0x26D6 PUSH1 0x40 PUSH0 KECCAK256 PUSH1 0x40 MLOAD SWAP1 PUSH2 0x26B4 DUP3 PUSH2 0x1C82 JUMP JUMPDEST DUP5 DUP3 MSTORE DUP6 PUSH1 0x20 DUP4 ADD MSTORE PUSH1 0x1 PUSH1 0x40 DUP4 ADD MSTORE TIMESTAMP PUSH1 0x60 DUP4 ADD MSTORE PUSH1 0x1 PUSH1 0x80 DUP4 ADD MSTORE PUSH2 0x1F9F JUMP JUMPDEST PUSH1 0x1 DUP1 PUSH1 0xA0 SHL SUB SWAP1 SLOAD AND SWAP1 PUSH0 MSTORE PUSH1 0x2C PUSH1 0x20 MSTORE PUSH0 MLOAD PUSH1 0x20 PUSH2 0x31F7 PUSH0 CODECOPY PUSH0 MLOAD SWAP1 PUSH0 MSTORE PUSH1 0x60 PUSH1 0x1 DUP1 PUSH1 0xA0 SHL SUB PUSH1 0x40 PUSH0 KECCAK256 SLOAD AND SWAP4 PUSH1 0x40 MLOAD SWAP1 DUP2 MSTORE PUSH1 0x1 PUSH1 0x20 DUP3 ADD MSTORE PUSH1 0x1 PUSH1 0x40 DUP3 ADD MSTORE LOG3 JUMP JUMPDEST PUSH2 0x2735 SWAP1 PUSH1 0x20 RETURNDATASIZE PUSH1 0x20 GT PUSH2 0x745 JUMPI PUSH2 0x738 DUP2 DUP4 PUSH2 0x1C9E JUMP JUMPDEST PUSH2 0x266F JUMP JUMPDEST POP POP PUSH2 0x1FF1 SWAP1 PUSH2 0x250A JUMP JUMPDEST POP PUSH1 0x5 SLOAD DUP2 EQ PUSH2 0x2619 JUMP JUMPDEST SWAP1 SWAP2 DUP2 ISZERO DUP1 ISZERO PUSH2 0x28AE JUMPI JUMPDEST PUSH2 0x28A1 JUMPI DUP2 PUSH0 MSTORE PUSH1 0x2C PUSH1 0x20 MSTORE PUSH1 0x40 PUSH0 KECCAK256 PUSH1 0x1 DUP6 SUB PUSH2 0x2885 JUMPI JUMPDEST PUSH0 DUP1 SLOAD DUP3 SLOAD PUSH1 0x40 MLOAD PUSH4 0xA9059CBB PUSH1 0xE0 SHL DUP2 MSTORE PUSH1 0x1 PUSH1 0x1 PUSH1 0xA0 SHL SUB SWAP2 DUP3 AND PUSH1 0x4 DUP3 ADD MSTORE PUSH1 0x24 DUP2 ADD DUP7 SWAP1 MSTORE SWAP6 SWAP5 SWAP4 SWAP3 PUSH1 0x20 SWAP3 DUP8 SWAP3 PUSH1 0x44 SWAP3 DUP5 SWAP3 SWAP1 SWAP2 AND GAS CALL SWAP3 DUP4 ISZERO PUSH2 0x74C JUMPI PUSH0 MLOAD PUSH1 0x20 PUSH2 0x31F7 PUSH0 CODECOPY PUSH0 MLOAD SWAP1 PUSH0 MSTORE SWAP5 PUSH1 0x60 SWAP5 PUSH2 0x2868 JUMPI JUMPDEST POP DUP1 PUSH0 MSTORE PUSH1 0x2D PUSH1 0x20 MSTORE PUSH1 0x1 PUSH1 0x40 PUSH0 KECCAK256 PUSH2 0x27E8 DUP6 DUP3 SLOAD PUSH2 0x1C59 JUMP JUMPDEST DUP2 SSTORE ADD PUSH2 0x27F6 DUP5 DUP3 SLOAD PUSH2 0x1C59 JUMP JUMPDEST SWAP1 SSTORE PUSH0 MSTORE PUSH1 0x2E PUSH1 0x20 MSTORE PUSH2 0x2833 PUSH1 0x40 PUSH0 KECCAK256 PUSH1 0x40 MLOAD SWAP1 PUSH2 0x2813 DUP3 PUSH2 0x1C82 JUMP JUMPDEST DUP8 DUP3 MSTORE DUP5 PUSH1 0x20 DUP4 ADD MSTORE DUP9 PUSH1 0x40 DUP4 ADD MSTORE TIMESTAMP DUP7 DUP4 ADD MSTORE PUSH1 0x1 PUSH1 0x80 DUP4 ADD MSTORE PUSH2 0x1F9F JUMP JUMPDEST PUSH1 0x1 DUP1 PUSH1 0xA0 SHL SUB SWAP1 SLOAD AND SWAP4 PUSH0 MSTORE PUSH1 0x2C PUSH1 0x20 MSTORE PUSH1 0x1 DUP1 PUSH1 0xA0 SHL SUB PUSH1 0x40 PUSH0 KECCAK256 SLOAD AND SWAP5 PUSH1 0x40 MLOAD SWAP2 DUP3 MSTORE PUSH1 0x20 DUP3 ADD MSTORE PUSH1 0x1 PUSH1 0x40 DUP3 ADD MSTORE LOG3 JUMP JUMPDEST PUSH2 0x2880 SWAP1 PUSH1 0x20 RETURNDATASIZE PUSH1 0x20 GT PUSH2 0x745 JUMPI PUSH2 0x738 DUP2 DUP4 PUSH2 0x1C9E JUMP JUMPDEST PUSH2 0x27CE JUMP JUMPDEST PUSH1 0x2 PUSH1 0x7 DUP3 ADD SLOAD LT ISZERO PUSH2 0x2774 JUMPI JUMPDEST POP SWAP2 POP POP PUSH2 0x1FF1 SWAP2 POP PUSH2 0x250A JUMP JUMPDEST SWAP2 POP POP PUSH2 0x1FF1 SWAP2 POP PUSH2 0x250A JUMP JUMPDEST POP PUSH1 0x5 SLOAD DUP3 EQ PUSH2 0x275B JUMP JUMPDEST PUSH0 NOT DUP2 EQ PUSH2 0x56B JUMPI PUSH1 0x1 ADD SWAP1 JUMP JUMPDEST SWAP4 SWAP2 SWAP4 SWAP3 SWAP1 SWAP3 PUSH1 0x1 SWAP1 PUSH1 0x5 SLOAD DUP2 EQ DUP1 ISZERO PUSH2 0x2AAD JUMPI JUMPDEST PUSH2 0x2A48 JUMPI SWAP1 JUMPDEST DUP3 DUP2 LT PUSH2 0x2A6C JUMPI POP SWAP3 PUSH0 SWAP4 JUMPDEST DUP1 ISZERO ISZERO DUP1 PUSH2 0x2A60 JUMPI JUMPDEST DUP1 PUSH2 0x2A56 JUMPI JUMPDEST ISZERO PUSH2 0x2A48 JUMPI DUP1 PUSH0 MSTORE PUSH1 0x2C PUSH1 0x20 MSTORE PUSH1 0x40 PUSH0 KECCAK256 SWAP1 DUP4 PUSH1 0x6 DUP4 ADD SLOAD LT ISZERO PUSH2 0x2930 JUMPI POP PUSH1 0x5 PUSH2 0x292A SWAP2 ADD SLOAD SWAP5 PUSH2 0x28B9 JUMP JUMPDEST SWAP4 PUSH2 0x28EE JUMP JUMPDEST PUSH0 DUP1 SLOAD DUP4 SLOAD PUSH1 0x40 MLOAD PUSH4 0xA9059CBB PUSH1 0xE0 SHL DUP2 MSTORE PUSH1 0x1 PUSH1 0x1 PUSH1 0xA0 SHL SUB SWAP2 DUP3 AND PUSH1 0x4 DUP3 ADD MSTORE PUSH1 0x24 DUP2 ADD DUP12 SWAP1 MSTORE SWAP8 SWAP10 SWAP7 SWAP9 POP SWAP5 SWAP7 SWAP6 SWAP3 SWAP5 SWAP3 SWAP4 SWAP3 PUSH1 0x20 SWAP3 DUP8 SWAP3 PUSH1 0x44 SWAP3 DUP5 SWAP3 SWAP2 AND GAS CALL SWAP3 DUP4 ISZERO PUSH2 0x74C JUMPI PUSH0 MLOAD PUSH1 0x20 PUSH2 0x31F7 PUSH0 CODECOPY PUSH0 MLOAD SWAP1 PUSH0 MSTORE SWAP5 PUSH1 0x60 SWAP5 PUSH2 0x2A2C JUMPI JUMPDEST POP DUP1 PUSH0 MSTORE PUSH1 0x2D PUSH1 0x20 MSTORE PUSH1 0x2 PUSH1 0x40 PUSH0 KECCAK256 PUSH2 0x29AC DUP6 DUP3 SLOAD PUSH2 0x1C59 JUMP JUMPDEST DUP2 SSTORE ADD PUSH2 0x29BA DUP5 DUP3 SLOAD PUSH2 0x1C59 JUMP JUMPDEST SWAP1 SSTORE PUSH0 MSTORE PUSH1 0x2E PUSH1 0x20 MSTORE PUSH2 0x29F7 PUSH1 0x40 PUSH0 KECCAK256 PUSH1 0x40 MLOAD SWAP1 PUSH2 0x29D7 DUP3 PUSH2 0x1C82 JUMP JUMPDEST DUP8 DUP3 MSTORE DUP5 PUSH1 0x20 DUP4 ADD MSTORE DUP9 PUSH1 0x40 DUP4 ADD MSTORE TIMESTAMP DUP7 DUP4 ADD MSTORE PUSH1 0x2 PUSH1 0x80 DUP4 ADD MSTORE PUSH2 0x1F9F JUMP JUMPDEST PUSH1 0x1 DUP1 PUSH1 0xA0 SHL SUB SWAP1 SLOAD AND SWAP4 PUSH0 MSTORE PUSH1 0x2C PUSH1 0x20 MSTORE PUSH1 0x1 DUP1 PUSH1 0xA0 SHL SUB PUSH1 0x40 PUSH0 KECCAK256 SLOAD AND SWAP5 PUSH1 0x40 MLOAD SWAP2 DUP3 MSTORE PUSH1 0x20 DUP3 ADD MSTORE PUSH1 0x2 PUSH1 0x40 DUP3 ADD MSTORE LOG3 JUMP JUMPDEST PUSH2 0x2A43 SWAP1 PUSH1 0x20 RETURNDATASIZE DUP2 GT PUSH2 0x745 JUMPI PUSH2 0x738 DUP2 DUP4 PUSH2 0x1C9E JUMP JUMPDEST PUSH2 0x2992 JUMP JUMPDEST POP POP POP SWAP2 PUSH2 0x1FF1 SWAP2 POP PUSH2 0x250A JUMP JUMPDEST POP PUSH1 0xF DUP6 LT PUSH2 0x28FD JUMP JUMPDEST POP PUSH1 0x5 SLOAD DUP2 EQ ISZERO PUSH2 0x28F7 JUMP JUMPDEST PUSH2 0x2A75 SWAP1 PUSH2 0x28B9 JUMP JUMPDEST SWAP1 PUSH0 MSTORE PUSH1 0x2C PUSH1 0x20 MSTORE PUSH1 0x5 PUSH1 0x40 PUSH0 KECCAK256 ADD SLOAD SWAP1 PUSH1 0x5 SLOAD DUP3 EQ DUP1 ISZERO PUSH2 0x2AA5 JUMPI JUMPDEST ISZERO PUSH2 0x28E2 JUMPI POP POP POP SWAP2 PUSH2 0x1FF1 SWAP2 POP PUSH2 0x250A JUMP JUMPDEST POP DUP2 ISZERO PUSH2 0x2A92 JUMP JUMPDEST POP DUP1 ISZERO PUSH2 0x28DC JUMP JUMPDEST SWAP4 SWAP2 SWAP1 SWAP3 SWAP4 DUP1 ISZERO DUP1 ISZERO PUSH2 0x2CD3 JUMPI JUMPDEST PUSH2 0x2893 JUMPI DUP3 ISZERO PUSH2 0x2893 JUMPI PUSH2 0x2AEB PUSH2 0x2ADA DUP5 DUP5 PUSH2 0x1D17 JUMP JUMPDEST SWAP3 PUSH2 0x2AE5 DUP6 DUP6 PUSH2 0x1E2E JUMP JUMPDEST SWAP1 PUSH2 0x1C4C JUMP JUMPDEST SWAP5 PUSH1 0x1 SWAP2 SWAP5 PUSH0 JUMPDEST DUP6 DUP2 LT PUSH2 0x2B08 JUMPI POP POP POP POP POP POP POP DUP1 PUSH2 0x24F9 JUMPI POP JUMP JUMPDEST DUP7 ISZERO ISZERO DUP1 PUSH2 0x2CC7 JUMPI JUMPDEST PUSH2 0x2B46 JUMPI JUMPDEST PUSH1 0x1 SWAP1 DUP8 ISZERO DUP1 ISZERO PUSH2 0x2B3B JUMPI JUMPDEST PUSH2 0x2B2D JUMPI JUMPDEST ADD PUSH2 0x2AF2 JUMP JUMPDEST PUSH2 0x2B36 DUP7 PUSH2 0x250A JUMP JUMPDEST PUSH2 0x2B27 JUMP JUMPDEST POP PUSH1 0x5 SLOAD DUP9 EQ PUSH2 0x2B22 JUMP JUMPDEST SWAP3 DUP7 PUSH0 SWAP8 SWAP3 SWAP8 MSTORE PUSH1 0x2C PUSH1 0x20 MSTORE DUP3 PUSH1 0x6 PUSH1 0x40 PUSH0 KECCAK256 ADD SLOAD LT ISZERO PUSH0 EQ PUSH2 0x2CA5 JUMPI PUSH0 JUMPDEST DUP2 DUP2 LT PUSH2 0x2B8A JUMPI POP POP PUSH0 MSTORE PUSH1 0x2C PUSH1 0x20 MSTORE PUSH1 0x5 PUSH1 0x40 PUSH0 KECCAK256 ADD SLOAD SWAP5 PUSH1 0x1 DUP1 SWAP4 JUMPDEST SWAP1 POP PUSH2 0x2B16 JUMP JUMPDEST PUSH0 DUP4 DUP2 MSTORE PUSH1 0x2C PUSH1 0x20 SWAP1 DUP2 MSTORE PUSH1 0x40 DUP1 DUP4 KECCAK256 SLOAD DUP4 SLOAD SWAP2 MLOAD PUSH4 0xA9059CBB PUSH1 0xE0 SHL DUP2 MSTORE PUSH1 0x1 PUSH1 0x1 PUSH1 0xA0 SHL SUB SWAP2 DUP3 AND PUSH1 0x4 DUP3 ADD DUP2 SWAP1 MSTORE PUSH1 0x24 DUP3 ADD DUP13 SWAP1 MSTORE SWAP1 SWAP6 SWAP5 SWAP1 SWAP4 SWAP3 DUP7 SWAP3 PUSH1 0x44 SWAP3 DUP5 SWAP3 SWAP1 SWAP2 AND GAS CALL SWAP3 DUP4 ISZERO PUSH2 0x74C JUMPI PUSH1 0x1 SWAP4 PUSH2 0x2C89 JUMPI JUMPDEST POP DUP5 PUSH0 MSTORE PUSH1 0x2D PUSH1 0x20 MSTORE PUSH1 0x3 PUSH1 0x40 PUSH0 KECCAK256 PUSH2 0x2BFD DUP11 DUP3 SLOAD PUSH2 0x1C59 JUMP JUMPDEST DUP2 SSTORE ADD PUSH2 0x2C0B DUP10 DUP3 SLOAD PUSH2 0x1C59 JUMP JUMPDEST SWAP1 SSTORE DUP5 PUSH0 MSTORE PUSH1 0x2E PUSH1 0x20 MSTORE PUSH2 0x2C4A PUSH1 0x40 PUSH0 KECCAK256 PUSH1 0x40 MLOAD SWAP1 PUSH2 0x2C29 DUP3 PUSH2 0x1C82 JUMP JUMPDEST DUP13 DUP3 MSTORE DUP11 PUSH1 0x20 DUP4 ADD MSTORE DUP9 PUSH1 0x40 DUP4 ADD MSTORE TIMESTAMP PUSH1 0x60 DUP4 ADD MSTORE PUSH1 0x4 PUSH1 0x80 DUP4 ADD MSTORE PUSH2 0x1F9F JUMP JUMPDEST DUP10 PUSH0 MSTORE PUSH1 0x2C PUSH1 0x20 MSTORE DUP3 DUP1 PUSH1 0xA0 SHL SUB PUSH1 0x40 PUSH0 KECCAK256 SLOAD AND SWAP1 PUSH0 MLOAD PUSH1 0x20 PUSH2 0x31F7 PUSH0 CODECOPY PUSH0 MLOAD SWAP1 PUSH0 MSTORE PUSH1 0x60 PUSH1 0x40 MLOAD DUP12 DUP2 MSTORE DUP10 PUSH1 0x20 DUP3 ADD MSTORE PUSH1 0x4 PUSH1 0x40 DUP3 ADD MSTORE LOG3 ADD PUSH2 0x2B65 JUMP JUMPDEST PUSH2 0x2CA0 SWAP1 PUSH1 0x20 RETURNDATASIZE DUP2 GT PUSH2 0x745 JUMPI PUSH2 0x738 DUP2 DUP4 PUSH2 0x1C9E JUMP JUMPDEST PUSH2 0x2BE3 JUMP JUMPDEST SWAP6 SWAP1 PUSH0 MSTORE PUSH1 0x2C PUSH1 0x20 MSTORE PUSH1 0x1 PUSH2 0x2CC1 PUSH1 0x5 PUSH1 0x40 PUSH0 KECCAK256 ADD SLOAD SWAP8 PUSH2 0x28B9 JUMP JUMPDEST SWAP4 PUSH2 0x2B83 JUMP JUMPDEST POP PUSH1 0x5 SLOAD DUP8 EQ ISZERO PUSH2 0x2B11 JUMP JUMPDEST POP PUSH1 0x5 SLOAD DUP2 EQ PUSH2 0x2AC3 JUMP JUMPDEST PUSH2 0x2CEB PUSH1 0x9 SLOAD DUP3 LT PUSH2 0x2246 JUMP JUMPDEST PUSH2 0x2CF7 PUSH2 0x22EA DUP3 PUSH2 0x1B22 JUMP JUMPDEST DUP1 PUSH0 MSTORE PUSH1 0x29 PUSH1 0x20 MSTORE PUSH1 0x40 PUSH0 KECCAK256 PUSH1 0x40 MLOAD DUP1 DUP3 PUSH1 0x20 DUP3 SWAP5 SLOAD SWAP4 DUP5 DUP2 MSTORE ADD SWAP1 PUSH0 MSTORE PUSH1 0x20 PUSH0 KECCAK256 SWAP3 PUSH0 JUMPDEST DUP2 DUP2 LT PUSH2 0x2F76 JUMPI POP POP PUSH2 0x2D31 SWAP3 POP SUB DUP3 PUSH2 0x1C9E JUMP JUMPDEST DUP1 MLOAD SWAP1 DUP3 PUSH0 MSTORE PUSH1 0x29 PUSH1 0x20 MSTORE PUSH2 0x2D49 DUP5 PUSH1 0x40 PUSH0 KECCAK256 PUSH2 0x2212 JUMP JUMPDEST PUSH0 NOT DUP3 ADD SWAP2 DUP3 GT PUSH2 0x56B JUMPI PUSH1 0x3 PUSH2 0x2D61 SWAP3 DIV SWAP1 PUSH2 0x22BB JUMP JUMPDEST MLOAD SWAP1 PUSH1 0x40 MLOAD PUSH2 0x2D6F DUP2 PUSH2 0x1C66 JUMP JUMPDEST DUP4 DUP2 MSTORE PUSH1 0x3 PUSH1 0x20 DUP3 ADD DUP4 DUP2 MSTORE PUSH1 0x40 DUP4 ADD DUP6 DUP2 MSTORE PUSH1 0x60 DUP5 ADD SWAP2 PUSH0 DUP4 MSTORE DUP6 PUSH0 MSTORE PUSH1 0x27 PUSH1 0x20 MSTORE PUSH1 0x40 PUSH0 KECCAK256 DUP9 PUSH0 MSTORE PUSH1 0x20 MSTORE PUSH1 0x40 PUSH0 KECCAK256 SWAP5 MLOAD DUP6 SSTORE MLOAD PUSH1 0x1 DUP6 ADD SSTORE MLOAD PUSH1 0x2 DUP5 ADD SSTORE MLOAD SWAP2 ADD SSTORE DUP1 PUSH0 MSTORE PUSH1 0x28 PUSH1 0x20 MSTORE PUSH1 0x40 PUSH0 KECCAK256 DUP3 PUSH0 MSTORE PUSH1 0x20 MSTORE PUSH2 0x2DD3 DUP4 PUSH1 0x40 PUSH0 KECCAK256 PUSH2 0x2212 JUMP JUMPDEST DUP2 ISZERO DUP1 ISZERO PUSH2 0x2F6B JUMPI JUMPDEST PUSH2 0x2F5F JUMPI PUSH0 MSTORE PUSH1 0x27 PUSH1 0x20 MSTORE PUSH1 0x40 PUSH0 KECCAK256 DUP2 PUSH0 MSTORE PUSH1 0x20 MSTORE PUSH1 0x3 PUSH1 0x40 PUSH0 KECCAK256 ADD PUSH1 0x3 DUP2 SLOAD LT PUSH0 EQ PUSH2 0x2F5F JUMPI DUP1 SLOAD SWAP1 PUSH1 0x1 DUP3 ADD DUP1 SWAP3 GT PUSH2 0x56B JUMPI SSTORE DUP1 PUSH0 MSTORE PUSH1 0x2D PUSH1 0x20 MSTORE PUSH1 0x9 PUSH1 0x40 PUSH0 KECCAK256 PUSH2 0x2E2B DUP6 DUP3 SLOAD PUSH2 0x1C59 JUMP JUMPDEST DUP2 SSTORE ADD PUSH2 0x2E39 DUP5 DUP3 SLOAD PUSH2 0x1C59 JUMP JUMPDEST SWAP1 SSTORE DUP1 PUSH0 MSTORE PUSH1 0x2E PUSH1 0x20 MSTORE PUSH2 0x2E79 PUSH1 0x40 PUSH0 KECCAK256 PUSH1 0x40 MLOAD SWAP1 PUSH2 0x2E57 DUP3 PUSH2 0x1C82 JUMP JUMPDEST DUP5 DUP3 MSTORE DUP6 PUSH1 0x20 DUP4 ADD MSTORE PUSH1 0x1 PUSH1 0x40 DUP4 ADD MSTORE TIMESTAMP PUSH1 0x60 DUP4 ADD MSTORE PUSH1 0xB PUSH1 0x80 DUP4 ADD MSTORE PUSH2 0x1F9F JUMP JUMPDEST PUSH0 SWAP1 DUP2 MSTORE PUSH1 0x2C PUSH1 0x20 MSTORE PUSH1 0x40 SWAP1 KECCAK256 SLOAD PUSH1 0x1 PUSH1 0x1 PUSH1 0xA0 SHL SUB AND SWAP1 DUP3 ISZERO PUSH1 0x5F DUP5 DUP2 MUL SWAP1 DUP6 DUP3 DIV EQ DUP3 OR ISZERO PUSH2 0x56B JUMPI PUSH0 DUP1 SLOAD PUSH1 0x40 MLOAD PUSH4 0xA9059CBB PUSH1 0xE0 SHL DUP2 MSTORE PUSH1 0x1 PUSH1 0x1 PUSH1 0xA0 SHL SUB DUP8 DUP2 AND PUSH1 0x4 DUP4 ADD MSTORE PUSH1 0x64 SWAP1 SWAP5 DIV PUSH1 0x24 DUP3 ADD MSTORE SWAP3 PUSH1 0x20 SWAP3 DUP5 SWAP3 PUSH1 0x44 SWAP3 DUP5 SWAP3 SWAP2 AND GAS CALL DUP1 ISZERO PUSH2 0x74C JUMPI PUSH2 0x2F42 JUMPI JUMPDEST POP PUSH1 0x5 DUP5 MUL SWAP1 DUP5 DUP3 DIV PUSH1 0x5 EQ OR ISZERO PUSH2 0x56B JUMPI PUSH1 0x64 PUSH2 0x2F06 SWAP2 DIV PUSH2 0x250A JUMP JUMPDEST PUSH0 MSTORE PUSH1 0x2C PUSH1 0x20 MSTORE PUSH0 MLOAD PUSH1 0x20 PUSH2 0x31F7 PUSH0 CODECOPY PUSH0 MLOAD SWAP1 PUSH0 MSTORE PUSH1 0x60 PUSH1 0x1 DUP1 PUSH1 0xA0 SHL SUB PUSH1 0x40 PUSH0 KECCAK256 SLOAD AND SWAP4 PUSH1 0x40 MLOAD SWAP1 DUP2 MSTORE PUSH1 0x1 PUSH1 0x20 DUP3 ADD MSTORE PUSH1 0xB PUSH1 0x40 DUP3 ADD MSTORE LOG3 JUMP JUMPDEST PUSH2 0x2F5A SWAP1 PUSH1 0x20 RETURNDATASIZE PUSH1 0x20 GT PUSH2 0x745 JUMPI PUSH2 0x738 DUP2 DUP4 PUSH2 0x1C9E JUMP JUMPDEST PUSH2 0x2EE8 JUMP JUMPDEST POP POP POP PUSH2 0x1FF1 SWAP1 PUSH2 0x250A JUMP JUMPDEST POP PUSH1 0x5 SLOAD DUP3 EQ PUSH2 0x2DDC JUMP JUMPDEST DUP5 SLOAD DUP4 MSTORE PUSH1 0x1 SWAP5 DUP6 ADD SWAP5 DUP7 SWAP5 POP PUSH1 0x20 SWAP1 SWAP4 ADD SWAP3 ADD PUSH2 0x2D1C JUMP JUMPDEST SWAP2 SWAP3 DUP3 ISZERO DUP1 ISZERO PUSH2 0x31EB JUMPI JUMPDEST PUSH2 0x28A1 JUMPI PUSH1 0x3 SWAP1 DIV SWAP1 PUSH0 JUMPDEST PUSH1 0x3 DUP2 LT PUSH2 0x2FB4 JUMPI POP POP POP POP POP JUMP JUMPDEST DUP2 PUSH0 MSTORE PUSH1 0x22 PUSH1 0x20 MSTORE PUSH1 0x40 PUSH0 KECCAK256 DUP5 PUSH0 MSTORE PUSH1 0x20 MSTORE PUSH1 0x40 PUSH0 KECCAK256 SWAP1 PUSH1 0x4 PUSH1 0x1 DUP4 ADD SLOAD SWAP3 ADD SWAP2 DUP3 SLOAD PUSH1 0x27 DUP2 LT PUSH2 0x2FEC JUMPI JUMPDEST POP POP PUSH1 0x1 SWAP2 POP ADD PUSH2 0x2FA5 JUMP JUMPDEST PUSH1 0x18 DUP2 LT PUSH2 0x308E JUMPI JUMPDEST POP DUP3 SLOAD PUSH1 0x18 DUP2 LT ISZERO DUP1 PUSH2 0x3084 JUMPI JUMPDEST PUSH2 0x304E JUMPI JUMPDEST POP DUP3 SLOAD PUSH1 0x24 DUP2 LT PUSH2 0x2FE0 JUMPI PUSH1 0x1 DUP2 ADD DUP1 SWAP2 GT PUSH2 0x56B JUMPI PUSH1 0x1 SWAP4 SSTORE DUP4 PUSH0 MSTORE PUSH1 0x21 PUSH1 0x20 MSTORE PUSH1 0x40 PUSH0 KECCAK256 SWAP1 PUSH0 MSTORE PUSH1 0x20 MSTORE DUP2 PUSH1 0x40 PUSH0 KECCAK256 ADD PUSH2 0x3045 DUP6 DUP3 SLOAD PUSH2 0x1C59 JUMP JUMPDEST SWAP1 SSTORE PUSH0 DUP1 PUSH2 0x2FE0 JUMP JUMPDEST PUSH1 0x1 DUP2 ADD DUP1 SWAP2 GT PUSH2 0x56B JUMPI DUP4 SSTORE DUP4 PUSH0 MSTORE PUSH1 0x21 PUSH1 0x20 MSTORE PUSH1 0x40 PUSH0 KECCAK256 DUP2 PUSH0 MSTORE PUSH1 0x20 MSTORE PUSH1 0x40 PUSH0 KECCAK256 PUSH2 0x307C DUP7 DUP3 SLOAD PUSH2 0x1C59 JUMP JUMPDEST SWAP1 SSTORE PUSH0 PUSH2 0x3008 JUMP JUMPDEST POP PUSH1 0x24 DUP2 LT PUSH2 0x3003 JUMP JUMPDEST PUSH1 0x1 DUP2 ADD DUP1 SWAP2 GT PUSH2 0x56B JUMPI DUP4 SSTORE DUP1 PUSH0 MSTORE PUSH1 0x2D PUSH1 0x20 MSTORE PUSH1 0x8 PUSH1 0x40 PUSH0 KECCAK256 PUSH2 0x30B4 DUP8 DUP3 SLOAD PUSH2 0x1C59 JUMP JUMPDEST DUP2 SSTORE ADD PUSH2 0x30C2 DUP7 DUP3 SLOAD PUSH2 0x1C59 JUMP JUMPDEST SWAP1 SSTORE DUP1 PUSH0 MSTORE PUSH1 0x2E PUSH1 0x20 MSTORE PUSH2 0x3102 PUSH1 0x40 PUSH0 KECCAK256 PUSH1 0x40 MLOAD SWAP1 PUSH2 0x30E0 DUP3 PUSH2 0x1C82 JUMP JUMPDEST DUP10 DUP3 MSTORE DUP8 PUSH1 0x20 DUP4 ADD MSTORE PUSH1 0x1 PUSH1 0x40 DUP4 ADD MSTORE TIMESTAMP PUSH1 0x60 DUP4 ADD MSTORE PUSH1 0xA PUSH1 0x80 DUP4 ADD MSTORE PUSH2 0x1F9F JUMP JUMPDEST PUSH0 DUP2 DUP2 MSTORE PUSH1 0x2C PUSH1 0x20 MSTORE PUSH1 0x40 SWAP1 KECCAK256 SLOAD PUSH1 0x1 PUSH1 0x1 PUSH1 0xA0 SHL SUB AND DUP6 ISZERO PUSH1 0x5F DUP8 DUP2 MUL SWAP1 DUP9 DUP3 DIV EQ DUP3 OR ISZERO PUSH2 0x56B JUMPI PUSH0 DUP1 SLOAD PUSH1 0x40 MLOAD PUSH4 0xA9059CBB PUSH1 0xE0 SHL DUP2 MSTORE PUSH1 0x1 PUSH1 0x1 PUSH1 0xA0 SHL SUB DUP7 DUP2 AND PUSH1 0x4 DUP4 ADD MSTORE PUSH1 0x64 SWAP1 SWAP5 DIV PUSH1 0x24 DUP3 ADD MSTORE SWAP3 PUSH1 0x20 SWAP3 DUP5 SWAP3 PUSH1 0x44 SWAP3 DUP5 SWAP3 SWAP2 AND GAS CALL DUP1 ISZERO PUSH2 0x74C JUMPI PUSH2 0x31CF JUMPI JUMPDEST POP PUSH1 0x5 DUP8 MUL SWAP1 DUP8 DUP3 DIV PUSH1 0x5 EQ OR ISZERO PUSH2 0x56B JUMPI PUSH1 0x64 PUSH2 0x318E SWAP2 DIV PUSH2 0x250A JUMP JUMPDEST DUP8 PUSH0 MSTORE PUSH1 0x2C PUSH1 0x20 MSTORE PUSH1 0x1 DUP1 PUSH1 0xA0 SHL SUB PUSH1 0x40 PUSH0 KECCAK256 SLOAD AND SWAP1 PUSH0 MLOAD PUSH1 0x20 PUSH2 0x31F7 PUSH0 CODECOPY PUSH0 MLOAD SWAP1 PUSH0 MSTORE PUSH1 0x60 PUSH1 0x40 MLOAD DUP10 DUP2 MSTORE PUSH1 0x1 PUSH1 0x20 DUP3 ADD MSTORE PUSH1 0xA PUSH1 0x40 DUP3 ADD MSTORE LOG3 PUSH0 PUSH2 0x2FF5 JUMP JUMPDEST PUSH2 0x31E6 SWAP1 PUSH1 0x20 RETURNDATASIZE DUP2 GT PUSH2 0x745 JUMPI PUSH2 0x738 DUP2 DUP4 PUSH2 0x1C9E JUMP JUMPDEST PUSH2 0x3170 JUMP JUMPDEST POP PUSH1 0x5 SLOAD DUP4 EQ PUSH2 0x2F9A JUMP INVALID RJUMPI 0x7B61 0xD3 0x24 0xCE OR ORIGIN DUP16 NUMBER RETURNDATASIZE EXP 0xB6 0x25 DUP2 0xC0 CREATE 0xAA SWAP10 PUSH20 0x12BAE80FBDFCD2AA9B91D6E3BABB6A363FD9A057 SWAP10 PUSH14 0x9882C0B74B710D121707D19EEFF 0xD9 SHR MLOAD 0xC3 OR BYTE PUSH29 0x91A2646970667358221220972C413AC1DCFCA8099B0818DFA96ECD576A PC RETURN PUSH29 0x56FCBADB4945EE4ABD6FC864736F6C634300081E0033A66CC928B5EDB8 0x2A EXTDELEGATECALL 0xBD BLOBHASH SWAP3 0x29 SLOAD ISZERO GAS 0xB7 0xB0 SWAP5 0x26 SWAP5 0xBE LOG4 0xCE PREVRANDAO PUSH7 0x1D9A8736C688F3 0xF7 0xA9 INVALID CALLDATASIZE 0x4F 0xAA 0xB9 EXTCODESIZE 0x21 PUSH14 0xA50A3214154F22A0A2B415B23A84 0xC8 AND SWAP15 DUP12 PUSH4 0x6EE36E15 BLOCKHASH OR SHL PUSH13 0xC960B71A7020D9F60077F6AF9 BALANCE 0xA8 0xBB CREATE2 SWAP1 0xDA MUL 0x23 0xDA 0xCF PUSH22 0xC7AF0000000000000000000000000000000000000000 "
				},
				"gasEstimates": {
					"creation": {
						"codeDepositCost": "2581600",
						"executionCost": "infinite",
						"totalCost": "infinite"
					},
					"external": {
						"ACC_PRECISION()": "395",
						"GlbBoosterPackages(uint256)": "7382",
						"PERCENTS_DIVIDER()": "175",
						"ROI_CAP_DIVIDER()": "571",
						"ROI_CAP_MULTIPLIER()": "439",
						"RetopPoolByEarning(uint32,uint256)": "infinite",
						"TIME_STEP()": "373",
						"addressToId(address)": "3313",
						"boosterUsers(uint256,uint256)": "7639",
						"canBuyNextPool(uint256)": "9573",
						"claimCommunity(uint256)": "infinite",
						"communityAccPerUser()": "2784",
						"communityDebt(uint256)": "2409",
						"creatorWallet()": "2830",
						"defaultRefId()": "3312",
						"directReferrals(uint256,uint256)": "7177",
						"incomeHistory(uint256,uint256)": "15754",
						"lastLotteryRun()": "2248",
						"lastLotteryWinner()": "2852",
						"lotteryInterval()": "2652",
						"lotteryPool()": "2432",
						"matrixDirect(uint256)": "2915",
						"minLevelForGlbBooster(uint256)": "3284",
						"minLevelForPool(uint256)": "2426",
						"minPoolForGlbBooster(uint256)": "3020",
						"owner()": "2918",
						"packages(uint256)": "7514",
						"pendingCommunity(uint256)": "infinite",
						"poolPackages(uint256)": "7404",
						"poolUsers(uint256,uint256)": "6781",
						"register(uint256)": "infinite",
						"registeredUserIds(uint256)": "6835",
						"systemMaintance()": "3314",
						"teamDevelopment()": "3377",
						"teams(uint256,uint256,uint256)": "7225",
						"totalUsers()": "3136",
						"upgrade(uint256)": "infinite",
						"upgradeBooster(uint256)": "infinite",
						"upgradePool(uint256)": "infinite",
						"upgradePoolByEarning(uint32,uint256)": "infinite",
						"usdt()": "2477",
						"userBoosterChildren(uint256,uint256,uint256)": "6829",
						"userBoosterdtl(uint256,uint256)": "9512",
						"userChildren(uint256,uint256,uint256)": "7467",
						"userHasPool(uint256,uint256)": "3272",
						"userHasbooster(uint256,uint256)": "3184",
						"userIdPerPool(uint256,uint256,uint256)": "7401",
						"userIncomes(uint256)": "21832",
						"userPooldtl(uint256,uint256)": "11957",
						"userPooltopup(uint256,uint256)": "5409",
						"users(uint256)": "32372"
					},
					"internal": {
						"_accrueCommunityBonus(uint256)": "infinite",
						"_applyGlobalCapping(uint256,uint256)": "6721",
						"_distributeBoosterlIncome(uint256,uint256,uint256,uint256)": "infinite",
						"_distributeLevelBoosterIncome(uint256,uint256,uint256,uint256,uint256)": "infinite",
						"_distributeLevelIncome(uint256,uint256,uint256,uint256,uint256)": "infinite",
						"_distributeMatrixIncome(uint256,uint256,uint256,uint256)": "infinite",
						"_distributePoolIncome(uint256,uint256,uint256,uint256)": "infinite",
						"_distributeSponsorIncome(uint256,uint256,uint256,uint256)": "infinite",
						"_findEligibleSponsor(uint256,uint256)": "infinite",
						"_payLevelBooster(uint256,uint256,uint256,uint256)": "infinite",
						"_payPoolIncome(uint256,uint256,uint256,uint256,uint256)": "infinite",
						"_placeInBooster(uint256,uint256,uint256)": "infinite",
						"_placeInMatrix(uint256,uint256)": "infinite",
						"_placeInPool(uint256,uint256,uint256)": "infinite",
						"_sendToCreator(uint256)": "infinite"
					}
				},
				"methodIdentifiers": {
					"ACC_PRECISION()": "32fcd966",
					"GlbBoosterPackages(uint256)": "9e234631",
					"PERCENTS_DIVIDER()": "01c234a8",
					"ROI_CAP_DIVIDER()": "58c7d352",
					"ROI_CAP_MULTIPLIER()": "375b43b4",
					"RetopPoolByEarning(uint32,uint256)": "1f6ab899",
					"TIME_STEP()": "32bc298c",
					"addressToId(address)": "cb0e0d7d",
					"boosterUsers(uint256,uint256)": "c7bb62e8",
					"canBuyNextPool(uint256)": "67d52d4d",
					"claimCommunity(uint256)": "d54d6ddb",
					"communityAccPerUser()": "78f6ad6d",
					"communityDebt(uint256)": "18ab487f",
					"creatorWallet()": "7cdc65f2",
					"defaultRefId()": "ec597e6f",
					"directReferrals(uint256,uint256)": "5ec64a44",
					"incomeHistory(uint256,uint256)": "70c8d770",
					"lastLotteryRun()": "01be02b2",
					"lastLotteryWinner()": "81a0b816",
					"lotteryInterval()": "52a8c4c4",
					"lotteryPool()": "2c831633",
					"matrixDirect(uint256)": "88afbe3e",
					"minLevelForGlbBooster(uint256)": "d0a2fd79",
					"minLevelForPool(uint256)": "2132d204",
					"minPoolForGlbBooster(uint256)": "956a3228",
					"owner()": "8da5cb5b",
					"packages(uint256)": "c216212a",
					"pendingCommunity(uint256)": "24513088",
					"poolPackages(uint256)": "ae4708dc",
					"poolUsers(uint256,uint256)": "0f2b7cc9",
					"register(uint256)": "f207564e",
					"registeredUserIds(uint256)": "39ab3603",
					"systemMaintance()": "e9e34a16",
					"teamDevelopment()": "f5d74d93",
					"teams(uint256,uint256,uint256)": "5aabf7f1",
					"totalUsers()": "bff1f9e1",
					"upgrade(uint256)": "45977d03",
					"upgradeBooster(uint256)": "bc1fa7c0",
					"upgradePool(uint256)": "4060160a",
					"upgradePoolByEarning(uint32,uint256)": "8e222e24",
					"usdt()": "2f48ab7d",
					"userBoosterChildren(uint256,uint256,uint256)": "0ef81b74",
					"userBoosterdtl(uint256,uint256)": "907c84a7",
					"userChildren(uint256,uint256,uint256)": "8f030ece",
					"userHasPool(uint256,uint256)": "bd1aae40",
					"userHasbooster(uint256,uint256)": "9c383486",
					"userIdPerPool(uint256,uint256,uint256)": "8d58644c",
					"userIncomes(uint256)": "46b9dece",
					"userPooldtl(uint256,uint256)": "ce79c2c3",
					"userPooltopup(uint256,uint256)": "bf724672",
					"users(uint256)": "365b98b2"
				}
			},
			"storageLayout": {
				"storage": [
					{
						"astId": 71,
						"contract": "contracts/modules/SponsorMatrix.sol:Nanakshahi",
						"label": "usdt",
						"offset": 0,
						"slot": "0",
						"type": "t_contract(IERC20)68"
					},
					{
						"astId": 73,
						"contract": "contracts/modules/SponsorMatrix.sol:Nanakshahi",
						"label": "owner",
						"offset": 0,
						"slot": "1",
						"type": "t_address"
					},
					{
						"astId": 75,
						"contract": "contracts/modules/SponsorMatrix.sol:Nanakshahi",
						"label": "creatorWallet",
						"offset": 0,
						"slot": "2",
						"type": "t_address"
					},
					{
						"astId": 77,
						"contract": "contracts/modules/SponsorMatrix.sol:Nanakshahi",
						"label": "systemMaintance",
						"offset": 0,
						"slot": "3",
						"type": "t_address"
					},
					{
						"astId": 79,
						"contract": "contracts/modules/SponsorMatrix.sol:Nanakshahi",
						"label": "teamDevelopment",
						"offset": 0,
						"slot": "4",
						"type": "t_address"
					},
					{
						"astId": 81,
						"contract": "contracts/modules/SponsorMatrix.sol:Nanakshahi",
						"label": "defaultRefId",
						"offset": 0,
						"slot": "5",
						"type": "t_uint256"
					},
					{
						"astId": 83,
						"contract": "contracts/modules/SponsorMatrix.sol:Nanakshahi",
						"label": "totalUsers",
						"offset": 0,
						"slot": "6",
						"type": "t_uint256"
					},
					{
						"astId": 147,
						"contract": "contracts/modules/SponsorMatrix.sol:Nanakshahi",
						"label": "packages",
						"offset": 0,
						"slot": "7",
						"type": "t_array(t_uint256)dyn_storage"
					},
					{
						"astId": 158,
						"contract": "contracts/modules/SponsorMatrix.sol:Nanakshahi",
						"label": "poolPackages",
						"offset": 0,
						"slot": "8",
						"type": "t_array(t_uint256)dyn_storage"
					},
					{
						"astId": 170,
						"contract": "contracts/modules/SponsorMatrix.sol:Nanakshahi",
						"label": "GlbBoosterPackages",
						"offset": 0,
						"slot": "9",
						"type": "t_array(t_uint256)dyn_storage"
					},
					{
						"astId": 182,
						"contract": "contracts/modules/SponsorMatrix.sol:Nanakshahi",
						"label": "minLevelForPool",
						"offset": 0,
						"slot": "10",
						"type": "t_array(t_uint256)7_storage"
					},
					{
						"astId": 195,
						"contract": "contracts/modules/SponsorMatrix.sol:Nanakshahi",
						"label": "minLevelForGlbBooster",
						"offset": 0,
						"slot": "17",
						"type": "t_array(t_uint256)8_storage"
					},
					{
						"astId": 208,
						"contract": "contracts/modules/SponsorMatrix.sol:Nanakshahi",
						"label": "minPoolForGlbBooster",
						"offset": 0,
						"slot": "25",
						"type": "t_array(t_uint256)8_storage"
					},
					{
						"astId": 316,
						"contract": "contracts/modules/SponsorMatrix.sol:Nanakshahi",
						"label": "userPooltopup",
						"offset": 0,
						"slot": "33",
						"type": "t_mapping(t_uint256,t_mapping(t_uint256,t_struct(UserPoolTopup)309_storage))"
					},
					{
						"astId": 323,
						"contract": "contracts/modules/SponsorMatrix.sol:Nanakshahi",
						"label": "userPooldtl",
						"offset": 0,
						"slot": "34",
						"type": "t_mapping(t_uint256,t_mapping(t_uint256,t_struct(UserPool)295_storage))"
					},
					{
						"astId": 330,
						"contract": "contracts/modules/SponsorMatrix.sol:Nanakshahi",
						"label": "userChildren",
						"offset": 0,
						"slot": "35",
						"type": "t_mapping(t_uint256,t_mapping(t_uint256,t_array(t_uint256)dyn_storage))"
					},
					{
						"astId": 337,
						"contract": "contracts/modules/SponsorMatrix.sol:Nanakshahi",
						"label": "userIdPerPool",
						"offset": 0,
						"slot": "36",
						"type": "t_mapping(t_uint256,t_mapping(t_uint256,t_array(t_uint256)dyn_storage))"
					},
					{
						"astId": 342,
						"contract": "contracts/modules/SponsorMatrix.sol:Nanakshahi",
						"label": "poolUsers",
						"offset": 0,
						"slot": "37",
						"type": "t_mapping(t_uint256,t_array(t_uint256)dyn_storage)"
					},
					{
						"astId": 348,
						"contract": "contracts/modules/SponsorMatrix.sol:Nanakshahi",
						"label": "userHasPool",
						"offset": 0,
						"slot": "38",
						"type": "t_mapping(t_uint256,t_mapping(t_uint256,t_bool))"
					},
					{
						"astId": 355,
						"contract": "contracts/modules/SponsorMatrix.sol:Nanakshahi",
						"label": "userBoosterdtl",
						"offset": 0,
						"slot": "39",
						"type": "t_mapping(t_uint256,t_mapping(t_uint256,t_struct(UserBooster)304_storage))"
					},
					{
						"astId": 362,
						"contract": "contracts/modules/SponsorMatrix.sol:Nanakshahi",
						"label": "userBoosterChildren",
						"offset": 0,
						"slot": "40",
						"type": "t_mapping(t_uint256,t_mapping(t_uint256,t_array(t_uint256)dyn_storage))"
					},
					{
						"astId": 367,
						"contract": "contracts/modules/SponsorMatrix.sol:Nanakshahi",
						"label": "boosterUsers",
						"offset": 0,
						"slot": "41",
						"type": "t_mapping(t_uint256,t_array(t_uint256)dyn_storage)"
					},
					{
						"astId": 373,
						"contract": "contracts/modules/SponsorMatrix.sol:Nanakshahi",
						"label": "userHasbooster",
						"offset": 0,
						"slot": "42",
						"type": "t_mapping(t_uint256,t_mapping(t_uint256,t_bool))"
					},
					{
						"astId": 399,
						"contract": "contracts/modules/SponsorMatrix.sol:Nanakshahi",
						"label": "addressToId",
						"offset": 0,
						"slot": "43",
						"type": "t_mapping(t_address,t_uint256)"
					},
					{
						"astId": 404,
						"contract": "contracts/modules/SponsorMatrix.sol:Nanakshahi",
						"label": "users",
						"offset": 0,
						"slot": "44",
						"type": "t_mapping(t_uint256,t_struct(User)252_storage)"
					},
					{
						"astId": 409,
						"contract": "contracts/modules/SponsorMatrix.sol:Nanakshahi",
						"label": "userIncomes",
						"offset": 0,
						"slot": "45",
						"type": "t_mapping(t_uint256,t_struct(UserIncome)273_storage)"
					},
					{
						"astId": 415,
						"contract": "contracts/modules/SponsorMatrix.sol:Nanakshahi",
						"label": "incomeHistory",
						"offset": 0,
						"slot": "46",
						"type": "t_mapping(t_uint256,t_array(t_struct(Income)284_storage)dyn_storage)"
					},
					{
						"astId": 422,
						"contract": "contracts/modules/SponsorMatrix.sol:Nanakshahi",
						"label": "teams",
						"offset": 0,
						"slot": "47",
						"type": "t_mapping(t_uint256,t_mapping(t_uint256,t_array(t_uint256)dyn_storage))"
					},
					{
						"astId": 426,
						"contract": "contracts/modules/SponsorMatrix.sol:Nanakshahi",
						"label": "matrixDirect",
						"offset": 0,
						"slot": "48",
						"type": "t_mapping(t_uint256,t_uint256)"
					},
					{
						"astId": 431,
						"contract": "contracts/modules/SponsorMatrix.sol:Nanakshahi",
						"label": "directReferrals",
						"offset": 0,
						"slot": "49",
						"type": "t_mapping(t_uint256,t_array(t_uint256)dyn_storage)"
					},
					{
						"astId": 436,
						"contract": "contracts/modules/SponsorMatrix.sol:Nanakshahi",
						"label": "communityAccPerUser",
						"offset": 0,
						"slot": "50",
						"type": "t_uint256"
					},
					{
						"astId": 440,
						"contract": "contracts/modules/SponsorMatrix.sol:Nanakshahi",
						"label": "communityDebt",
						"offset": 0,
						"slot": "51",
						"type": "t_mapping(t_uint256,t_uint256)"
					},
					{
						"astId": 442,
						"contract": "contracts/modules/SponsorMatrix.sol:Nanakshahi",
						"label": "lotteryPool",
						"offset": 0,
						"slot": "52",
						"type": "t_uint256"
					},
					{
						"astId": 444,
						"contract": "contracts/modules/SponsorMatrix.sol:Nanakshahi",
						"label": "lastLotteryWinner",
						"offset": 0,
						"slot": "53",
						"type": "t_address"
					},
					{
						"astId": 446,
						"contract": "contracts/modules/SponsorMatrix.sol:Nanakshahi",
						"label": "lastLotteryRun",
						"offset": 0,
						"slot": "54",
						"type": "t_uint256"
					},
					{
						"astId": 449,
						"contract": "contracts/modules/SponsorMatrix.sol:Nanakshahi",
						"label": "lotteryInterval",
						"offset": 0,
						"slot": "55",
						"type": "t_uint256"
					},
					{
						"astId": 452,
						"contract": "contracts/modules/SponsorMatrix.sol:Nanakshahi",
						"label": "registeredUserIds",
						"offset": 0,
						"slot": "56",
						"type": "t_array(t_uint256)dyn_storage"
					},
					{
						"astId": 454,
						"contract": "contracts/modules/SponsorMatrix.sol:Nanakshahi",
						"label": "nonce",
						"offset": 0,
						"slot": "57",
						"type": "t_uint256"
					},
					{
						"astId": 456,
						"contract": "contracts/modules/SponsorMatrix.sol:Nanakshahi",
						"label": "lastWinnerId",
						"offset": 0,
						"slot": "58",
						"type": "t_uint256"
					}
				],
				"types": {
					"t_address": {
						"encoding": "inplace",
						"label": "address",
						"numberOfBytes": "20"
					},
					"t_array(t_struct(Deposit)217_storage)dyn_storage": {
						"base": "t_struct(Deposit)217_storage",
						"encoding": "dynamic_array",
						"label": "struct Nanakshahi.Deposit[]",
						"numberOfBytes": "32"
					},
					"t_array(t_struct(Income)284_storage)dyn_storage": {
						"base": "t_struct(Income)284_storage",
						"encoding": "dynamic_array",
						"label": "struct Nanakshahi.Income[]",
						"numberOfBytes": "32"
					},
					"t_array(t_uint256)7_storage": {
						"base": "t_uint256",
						"encoding": "inplace",
						"label": "uint256[7]",
						"numberOfBytes": "224"
					},
					"t_array(t_uint256)8_storage": {
						"base": "t_uint256",
						"encoding": "inplace",
						"label": "uint256[8]",
						"numberOfBytes": "256"
					},
					"t_array(t_uint256)dyn_storage": {
						"base": "t_uint256",
						"encoding": "dynamic_array",
						"label": "uint256[]",
						"numberOfBytes": "32"
					},
					"t_bool": {
						"encoding": "inplace",
						"label": "bool",
						"numberOfBytes": "1"
					},
					"t_contract(IERC20)68": {
						"encoding": "inplace",
						"label": "contract IERC20",
						"numberOfBytes": "20"
					},
					"t_mapping(t_address,t_uint256)": {
						"encoding": "mapping",
						"key": "t_address",
						"label": "mapping(address => uint256)",
						"numberOfBytes": "32",
						"value": "t_uint256"
					},
					"t_mapping(t_uint256,t_array(t_struct(Income)284_storage)dyn_storage)": {
						"encoding": "mapping",
						"key": "t_uint256",
						"label": "mapping(uint256 => struct Nanakshahi.Income[])",
						"numberOfBytes": "32",
						"value": "t_array(t_struct(Income)284_storage)dyn_storage"
					},
					"t_mapping(t_uint256,t_array(t_uint256)dyn_storage)": {
						"encoding": "mapping",
						"key": "t_uint256",
						"label": "mapping(uint256 => uint256[])",
						"numberOfBytes": "32",
						"value": "t_array(t_uint256)dyn_storage"
					},
					"t_mapping(t_uint256,t_bool)": {
						"encoding": "mapping",
						"key": "t_uint256",
						"label": "mapping(uint256 => bool)",
						"numberOfBytes": "32",
						"value": "t_bool"
					},
					"t_mapping(t_uint256,t_mapping(t_uint256,t_array(t_uint256)dyn_storage))": {
						"encoding": "mapping",
						"key": "t_uint256",
						"label": "mapping(uint256 => mapping(uint256 => uint256[]))",
						"numberOfBytes": "32",
						"value": "t_mapping(t_uint256,t_array(t_uint256)dyn_storage)"
					},
					"t_mapping(t_uint256,t_mapping(t_uint256,t_bool))": {
						"encoding": "mapping",
						"key": "t_uint256",
						"label": "mapping(uint256 => mapping(uint256 => bool))",
						"numberOfBytes": "32",
						"value": "t_mapping(t_uint256,t_bool)"
					},
					"t_mapping(t_uint256,t_mapping(t_uint256,t_struct(UserBooster)304_storage))": {
						"encoding": "mapping",
						"key": "t_uint256",
						"label": "mapping(uint256 => mapping(uint256 => struct Nanakshahi.UserBooster))",
						"numberOfBytes": "32",
						"value": "t_mapping(t_uint256,t_struct(UserBooster)304_storage)"
					},
					"t_mapping(t_uint256,t_mapping(t_uint256,t_struct(UserPool)295_storage))": {
						"encoding": "mapping",
						"key": "t_uint256",
						"label": "mapping(uint256 => mapping(uint256 => struct Nanakshahi.UserPool))",
						"numberOfBytes": "32",
						"value": "t_mapping(t_uint256,t_struct(UserPool)295_storage)"
					},
					"t_mapping(t_uint256,t_mapping(t_uint256,t_struct(UserPoolTopup)309_storage))": {
						"encoding": "mapping",
						"key": "t_uint256",
						"label": "mapping(uint256 => mapping(uint256 => struct Nanakshahi.UserPoolTopup))",
						"numberOfBytes": "32",
						"value": "t_mapping(t_uint256,t_struct(UserPoolTopup)309_storage)"
					},
					"t_mapping(t_uint256,t_struct(User)252_storage)": {
						"encoding": "mapping",
						"key": "t_uint256",
						"label": "mapping(uint256 => struct Nanakshahi.User)",
						"numberOfBytes": "32",
						"value": "t_struct(User)252_storage"
					},
					"t_mapping(t_uint256,t_struct(UserBooster)304_storage)": {
						"encoding": "mapping",
						"key": "t_uint256",
						"label": "mapping(uint256 => struct Nanakshahi.UserBooster)",
						"numberOfBytes": "32",
						"value": "t_struct(UserBooster)304_storage"
					},
					"t_mapping(t_uint256,t_struct(UserIncome)273_storage)": {
						"encoding": "mapping",
						"key": "t_uint256",
						"label": "mapping(uint256 => struct Nanakshahi.UserIncome)",
						"numberOfBytes": "32",
						"value": "t_struct(UserIncome)273_storage"
					},
					"t_mapping(t_uint256,t_struct(UserPool)295_storage)": {
						"encoding": "mapping",
						"key": "t_uint256",
						"label": "mapping(uint256 => struct Nanakshahi.UserPool)",
						"numberOfBytes": "32",
						"value": "t_struct(UserPool)295_storage"
					},
					"t_mapping(t_uint256,t_struct(UserPoolTopup)309_storage)": {
						"encoding": "mapping",
						"key": "t_uint256",
						"label": "mapping(uint256 => struct Nanakshahi.UserPoolTopup)",
						"numberOfBytes": "32",
						"value": "t_struct(UserPoolTopup)309_storage"
					},
					"t_mapping(t_uint256,t_uint256)": {
						"encoding": "mapping",
						"key": "t_uint256",
						"label": "mapping(uint256 => uint256)",
						"numberOfBytes": "32",
						"value": "t_uint256"
					},
					"t_struct(Deposit)217_storage": {
						"encoding": "inplace",
						"label": "struct Nanakshahi.Deposit",
						"members": [
							{
								"astId": 210,
								"contract": "contracts/modules/SponsorMatrix.sol:Nanakshahi",
								"label": "amount",
								"offset": 0,
								"slot": "0",
								"type": "t_uint256"
							},
							{
								"astId": 212,
								"contract": "contracts/modules/SponsorMatrix.sol:Nanakshahi",
								"label": "withdrawn",
								"offset": 0,
								"slot": "1",
								"type": "t_uint256"
							},
							{
								"astId": 214,
								"contract": "contracts/modules/SponsorMatrix.sol:Nanakshahi",
								"label": "start",
								"offset": 0,
								"slot": "2",
								"type": "t_uint256"
							},
							{
								"astId": 216,
								"contract": "contracts/modules/SponsorMatrix.sol:Nanakshahi",
								"label": "depositType",
								"offset": 0,
								"slot": "3",
								"type": "t_uint8"
							}
						],
						"numberOfBytes": "128"
					},
					"t_struct(Income)284_storage": {
						"encoding": "inplace",
						"label": "struct Nanakshahi.Income",
						"members": [
							{
								"astId": 275,
								"contract": "contracts/modules/SponsorMatrix.sol:Nanakshahi",
								"label": "fromUserId",
								"offset": 0,
								"slot": "0",
								"type": "t_uint256"
							},
							{
								"astId": 277,
								"contract": "contracts/modules/SponsorMatrix.sol:Nanakshahi",
								"label": "amount",
								"offset": 0,
								"slot": "1",
								"type": "t_uint256"
							},
							{
								"astId": 279,
								"contract": "contracts/modules/SponsorMatrix.sol:Nanakshahi",
								"label": "packageLevel",
								"offset": 0,
								"slot": "2",
								"type": "t_uint256"
							},
							{
								"astId": 281,
								"contract": "contracts/modules/SponsorMatrix.sol:Nanakshahi",
								"label": "timestamp",
								"offset": 0,
								"slot": "3",
								"type": "t_uint256"
							},
							{
								"astId": 283,
								"contract": "contracts/modules/SponsorMatrix.sol:Nanakshahi",
								"label": "incomeType",
								"offset": 0,
								"slot": "4",
								"type": "t_uint256"
							}
						],
						"numberOfBytes": "160"
					},
					"t_struct(User)252_storage": {
						"encoding": "inplace",
						"label": "struct Nanakshahi.User",
						"members": [
							{
								"astId": 219,
								"contract": "contracts/modules/SponsorMatrix.sol:Nanakshahi",
								"label": "account",
								"offset": 0,
								"slot": "0",
								"type": "t_address"
							},
							{
								"astId": 223,
								"contract": "contracts/modules/SponsorMatrix.sol:Nanakshahi",
								"label": "deposits",
								"offset": 0,
								"slot": "1",
								"type": "t_array(t_struct(Deposit)217_storage)dyn_storage"
							},
							{
								"astId": 225,
								"contract": "contracts/modules/SponsorMatrix.sol:Nanakshahi",
								"label": "checkpoint",
								"offset": 0,
								"slot": "2",
								"type": "t_uint256"
							},
							{
								"astId": 227,
								"contract": "contracts/modules/SponsorMatrix.sol:Nanakshahi",
								"label": "id",
								"offset": 0,
								"slot": "3",
								"type": "t_uint256"
							},
							{
								"astId": 229,
								"contract": "contracts/modules/SponsorMatrix.sol:Nanakshahi",
								"label": "sponsorId",
								"offset": 0,
								"slot": "4",
								"type": "t_uint256"
							},
							{
								"astId": 231,
								"contract": "contracts/modules/SponsorMatrix.sol:Nanakshahi",
								"label": "uplineId",
								"offset": 0,
								"slot": "5",
								"type": "t_uint256"
							},
							{
								"astId": 233,
								"contract": "contracts/modules/SponsorMatrix.sol:Nanakshahi",
								"label": "level",
								"offset": 0,
								"slot": "6",
								"type": "t_uint256"
							},
							{
								"astId": 235,
								"contract": "contracts/modules/SponsorMatrix.sol:Nanakshahi",
								"label": "directTeam",
								"offset": 0,
								"slot": "7",
								"type": "t_uint256"
							},
							{
								"astId": 237,
								"contract": "contracts/modules/SponsorMatrix.sol:Nanakshahi",
								"label": "directPoolQualified",
								"offset": 0,
								"slot": "8",
								"type": "t_uint256"
							},
							{
								"astId": 239,
								"contract": "contracts/modules/SponsorMatrix.sol:Nanakshahi",
								"label": "totalMatrixTeam",
								"offset": 0,
								"slot": "9",
								"type": "t_uint256"
							},
							{
								"astId": 241,
								"contract": "contracts/modules/SponsorMatrix.sol:Nanakshahi",
								"label": "totalDeposit",
								"offset": 0,
								"slot": "10",
								"type": "t_uint256"
							},
							{
								"astId": 243,
								"contract": "contracts/modules/SponsorMatrix.sol:Nanakshahi",
								"label": "poollevel",
								"offset": 0,
								"slot": "11",
								"type": "t_uint256"
							},
							{
								"astId": 245,
								"contract": "contracts/modules/SponsorMatrix.sol:Nanakshahi",
								"label": "poolDeposit",
								"offset": 0,
								"slot": "12",
								"type": "t_uint256"
							},
							{
								"astId": 247,
								"contract": "contracts/modules/SponsorMatrix.sol:Nanakshahi",
								"label": "boosterlevel",
								"offset": 0,
								"slot": "13",
								"type": "t_uint256"
							},
							{
								"astId": 249,
								"contract": "contracts/modules/SponsorMatrix.sol:Nanakshahi",
								"label": "boosterDeposit",
								"offset": 0,
								"slot": "14",
								"type": "t_uint256"
							},
							{
								"astId": 251,
								"contract": "contracts/modules/SponsorMatrix.sol:Nanakshahi",
								"label": "registrationTime",
								"offset": 0,
								"slot": "15",
								"type": "t_uint256"
							}
						],
						"numberOfBytes": "512"
					},
					"t_struct(UserBooster)304_storage": {
						"encoding": "inplace",
						"label": "struct Nanakshahi.UserBooster",
						"members": [
							{
								"astId": 297,
								"contract": "contracts/modules/SponsorMatrix.sol:Nanakshahi",
								"label": "id",
								"offset": 0,
								"slot": "0",
								"type": "t_uint256"
							},
							{
								"astId": 299,
								"contract": "contracts/modules/SponsorMatrix.sol:Nanakshahi",
								"label": "poolId",
								"offset": 0,
								"slot": "1",
								"type": "t_uint256"
							},
							{
								"astId": 301,
								"contract": "contracts/modules/SponsorMatrix.sol:Nanakshahi",
								"label": "parentId",
								"offset": 0,
								"slot": "2",
								"type": "t_uint256"
							},
							{
								"astId": 303,
								"contract": "contracts/modules/SponsorMatrix.sol:Nanakshahi",
								"label": "bonusCount",
								"offset": 0,
								"slot": "3",
								"type": "t_uint256"
							}
						],
						"numberOfBytes": "128"
					},
					"t_struct(UserIncome)273_storage": {
						"encoding": "inplace",
						"label": "struct Nanakshahi.UserIncome",
						"members": [
							{
								"astId": 254,
								"contract": "contracts/modules/SponsorMatrix.sol:Nanakshahi",
								"label": "totalIncome",
								"offset": 0,
								"slot": "0",
								"type": "t_uint256"
							},
							{
								"astId": 256,
								"contract": "contracts/modules/SponsorMatrix.sol:Nanakshahi",
								"label": "sponsorIncome",
								"offset": 0,
								"slot": "1",
								"type": "t_uint256"
							},
							{
								"astId": 258,
								"contract": "contracts/modules/SponsorMatrix.sol:Nanakshahi",
								"label": "matrixIncome",
								"offset": 0,
								"slot": "2",
								"type": "t_uint256"
							},
							{
								"astId": 260,
								"contract": "contracts/modules/SponsorMatrix.sol:Nanakshahi",
								"label": "levelBoosterIncome",
								"offset": 0,
								"slot": "3",
								"type": "t_uint256"
							},
							{
								"astId": 262,
								"contract": "contracts/modules/SponsorMatrix.sol:Nanakshahi",
								"label": "levelIncome",
								"offset": 0,
								"slot": "4",
								"type": "t_uint256"
							},
							{
								"astId": 264,
								"contract": "contracts/modules/SponsorMatrix.sol:Nanakshahi",
								"label": "royaltyIncome",
								"offset": 0,
								"slot": "5",
								"type": "t_uint256"
							},
							{
								"astId": 266,
								"contract": "contracts/modules/SponsorMatrix.sol:Nanakshahi",
								"label": "royaltyIncomeClaimed",
								"offset": 0,
								"slot": "6",
								"type": "t_uint256"
							},
							{
								"astId": 268,
								"contract": "contracts/modules/SponsorMatrix.sol:Nanakshahi",
								"label": "communityIncome",
								"offset": 0,
								"slot": "7",
								"type": "t_uint256"
							},
							{
								"astId": 270,
								"contract": "contracts/modules/SponsorMatrix.sol:Nanakshahi",
								"label": "poolIncome",
								"offset": 0,
								"slot": "8",
								"type": "t_uint256"
							},
							{
								"astId": 272,
								"contract": "contracts/modules/SponsorMatrix.sol:Nanakshahi",
								"label": "boosterIncome",
								"offset": 0,
								"slot": "9",
								"type": "t_uint256"
							}
						],
						"numberOfBytes": "320"
					},
					"t_struct(UserPool)295_storage": {
						"encoding": "inplace",
						"label": "struct Nanakshahi.UserPool",
						"members": [
							{
								"astId": 286,
								"contract": "contracts/modules/SponsorMatrix.sol:Nanakshahi",
								"label": "id",
								"offset": 0,
								"slot": "0",
								"type": "t_uint256"
							},
							{
								"astId": 288,
								"contract": "contracts/modules/SponsorMatrix.sol:Nanakshahi",
								"label": "mainid",
								"offset": 0,
								"slot": "1",
								"type": "t_uint256"
							},
							{
								"astId": 290,
								"contract": "contracts/modules/SponsorMatrix.sol:Nanakshahi",
								"label": "poolId",
								"offset": 0,
								"slot": "2",
								"type": "t_uint256"
							},
							{
								"astId": 292,
								"contract": "contracts/modules/SponsorMatrix.sol:Nanakshahi",
								"label": "parentId",
								"offset": 0,
								"slot": "3",
								"type": "t_uint256"
							},
							{
								"astId": 294,
								"contract": "contracts/modules/SponsorMatrix.sol:Nanakshahi",
								"label": "bonusCount",
								"offset": 0,
								"slot": "4",
								"type": "t_uint256"
							}
						],
						"numberOfBytes": "160"
					},
					"t_struct(UserPoolTopup)309_storage": {
						"encoding": "inplace",
						"label": "struct Nanakshahi.UserPoolTopup",
						"members": [
							{
								"astId": 306,
								"contract": "contracts/modules/SponsorMatrix.sol:Nanakshahi",
								"label": "nextPoolAmt",
								"offset": 0,
								"slot": "0",
								"type": "t_uint256"
							},
							{
								"astId": 308,
								"contract": "contracts/modules/SponsorMatrix.sol:Nanakshahi",
								"label": "reTopupAmt",
								"offset": 0,
								"slot": "1",
								"type": "t_uint256"
							}
						],
						"numberOfBytes": "64"
					},
					"t_uint256": {
						"encoding": "inplace",
						"label": "uint256",
						"numberOfBytes": "32"
					},
					"t_uint8": {
						"encoding": "inplace",
						"label": "uint8",
						"numberOfBytes": "1"
					}
				}
			},
			"userdoc": {
				"kind": "user",
				"methods": {},
				"version": 1
			}
		}
	}
}