{
	"contracts/modules/ContestRoyalty.sol": {
		"ContestRoyalty": {
			"abi": [
				{
					"inputs": [],
					"stateMutability": "nonpayable",
					"type": "constructor"
				},
				{
					"anonymous": false,
					"inputs": [
						{
							"indexed": false,
							"internalType": "uint256",
							"name": "amount",
							"type": "uint256"
						},
						{
							"indexed": false,
							"internalType": "uint256",
							"name": "usersCount",
							"type": "uint256"
						},
						{
							"indexed": false,
							"internalType": "uint256",
							"name": "perUser",
							"type": "uint256"
						}
					],
					"name": "CommunityBonusDistributed",
					"type": "event"
				},
				{
					"anonymous": false,
					"inputs": [
						{
							"indexed": true,
							"internalType": "address",
							"name": "to",
							"type": "address"
						},
						{
							"indexed": true,
							"internalType": "address",
							"name": "from",
							"type": "address"
						},
						{
							"indexed": false,
							"internalType": "uint256",
							"name": "amount",
							"type": "uint256"
						},
						{
							"indexed": false,
							"internalType": "uint256",
							"name": "packageLevel",
							"type": "uint256"
						},
						{
							"indexed": false,
							"internalType": "uint256",
							"name": "incomeType",
							"type": "uint256"
						}
					],
					"name": "IncomeDistributed",
					"type": "event"
				},
				{
					"anonymous": false,
					"inputs": [
						{
							"indexed": true,
							"internalType": "address",
							"name": "winner",
							"type": "address"
						},
						{
							"indexed": true,
							"internalType": "uint256",
							"name": "fromUserId",
							"type": "uint256"
						},
						{
							"indexed": false,
							"internalType": "uint256",
							"name": "amount",
							"type": "uint256"
						},
						{
							"indexed": false,
							"internalType": "uint256",
							"name": "timestamp",
							"type": "uint256"
						}
					],
					"name": "LotteryReward",
					"type": "event"
				},
				{
					"anonymous": false,
					"inputs": [
						{
							"indexed": true,
							"internalType": "address",
							"name": "user",
							"type": "address"
						},
						{
							"indexed": true,
							"internalType": "address",
							"name": "sponsor",
							"type": "address"
						},
						{
							"indexed": true,
							"internalType": "uint256",
							"name": "userId",
							"type": "uint256"
						},
						{
							"indexed": false,
							"internalType": "uint256",
							"name": "uplineId",
							"type": "uint256"
						}
					],
					"name": "Registration",
					"type": "event"
				},
				{
					"anonymous": false,
					"inputs": [
						{
							"indexed": true,
							"internalType": "address",
							"name": "user",
							"type": "address"
						},
						{
							"indexed": false,
							"internalType": "string",
							"name": "period",
							"type": "string"
						},
						{
							"indexed": false,
							"internalType": "uint256",
							"name": "roundId",
							"type": "uint256"
						},
						{
							"indexed": false,
							"internalType": "uint256",
							"name": "amount",
							"type": "uint256"
						}
					],
					"name": "RewardClaimed",
					"type": "event"
				},
				{
					"anonymous": false,
					"inputs": [
						{
							"indexed": true,
							"internalType": "address",
							"name": "to",
							"type": "address"
						},
						{
							"indexed": false,
							"internalType": "uint256",
							"name": "amount",
							"type": "uint256"
						},
						{
							"indexed": false,
							"internalType": "string",
							"name": "level",
							"type": "string"
						}
					],
					"name": "RewardSent",
					"type": "event"
				},
				{
					"anonymous": false,
					"inputs": [
						{
							"indexed": false,
							"internalType": "string",
							"name": "period",
							"type": "string"
						},
						{
							"indexed": false,
							"internalType": "uint256",
							"name": "roundId",
							"type": "uint256"
						},
						{
							"indexed": false,
							"internalType": "uint256",
							"name": "users",
							"type": "uint256"
						},
						{
							"indexed": false,
							"internalType": "uint256",
							"name": "perUser",
							"type": "uint256"
						}
					],
					"name": "RoundEnded",
					"type": "event"
				},
				{
					"anonymous": false,
					"inputs": [
						{
							"indexed": true,
							"internalType": "address",
							"name": "user",
							"type": "address"
						},
						{
							"indexed": true,
							"internalType": "uint256",
							"name": "userId",
							"type": "uint256"
						},
						{
							"indexed": false,
							"internalType": "uint256",
							"name": "packageLevel",
							"type": "uint256"
						},
						{
							"indexed": false,
							"internalType": "string",
							"name": "depositType",
							"type": "string"
						}
					],
					"name": "Upgrade",
					"type": "event"
				},
				{
					"anonymous": false,
					"inputs": [
						{
							"indexed": true,
							"internalType": "uint8",
							"name": "matrixId",
							"type": "uint8"
						},
						{
							"indexed": true,
							"internalType": "uint32",
							"name": "userId",
							"type": "uint32"
						},
						{
							"indexed": true,
							"internalType": "address",
							"name": "user",
							"type": "address"
						},
						{
							"indexed": false,
							"internalType": "uint32",
							"name": "parentId",
							"type": "uint32"
						},
						{
							"indexed": false,
							"internalType": "address",
							"name": "parentAddr",
							"type": "address"
						},
						{
							"indexed": false,
							"internalType": "uint8",
							"name": "position",
							"type": "uint8"
						}
					],
					"name": "UserJoined",
					"type": "event"
				},
				{
					"anonymous": false,
					"inputs": [
						{
							"indexed": true,
							"internalType": "address",
							"name": "user",
							"type": "address"
						},
						{
							"indexed": false,
							"internalType": "string",
							"name": "period",
							"type": "string"
						},
						{
							"indexed": false,
							"internalType": "uint256",
							"name": "roundId",
							"type": "uint256"
						}
					],
					"name": "UserQualified",
					"type": "event"
				},
				{
					"inputs": [],
					"name": "ACC_PRECISION",
					"outputs": [
						{
							"internalType": "uint256",
							"name": "",
							"type": "uint256"
						}
					],
					"stateMutability": "view",
					"type": "function"
				},
				{
					"inputs": [],
					"name": "MONTH_DURATION",
					"outputs": [
						{
							"internalType": "uint256",
							"name": "",
							"type": "uint256"
						}
					],
					"stateMutability": "view",
					"type": "function"
				},
				{
					"inputs": [],
					"name": "PERCENTS_DIVIDER",
					"outputs": [
						{
							"internalType": "uint256",
							"name": "",
							"type": "uint256"
						}
					],
					"stateMutability": "view",
					"type": "function"
				},
				{
					"inputs": [],
					"name": "ROI_CAP_DIVIDER",
					"outputs": [
						{
							"internalType": "uint256",
							"name": "",
							"type": "uint256"
						}
					],
					"stateMutability": "view",
					"type": "function"
				},
				{
					"inputs": [],
					"name": "ROI_CAP_MULTIPLIER",
					"outputs": [
						{
							"internalType": "uint256",
							"name": "",
							"type": "uint256"
						}
					],
					"stateMutability": "view",
					"type": "function"
				},
				{
					"inputs": [],
					"name": "TIME_STEP",
					"outputs": [
						{
							"internalType": "uint256",
							"name": "",
							"type": "uint256"
						}
					],
					"stateMutability": "view",
					"type": "function"
				},
				{
					"inputs": [],
					"name": "WEEK_DURATION",
					"outputs": [
						{
							"internalType": "uint256",
							"name": "",
							"type": "uint256"
						}
					],
					"stateMutability": "view",
					"type": "function"
				},
				{
					"inputs": [
						{
							"internalType": "uint256",
							"name": "roundId",
							"type": "uint256"
						}
					],
					"name": "claimMonthlyReward",
					"outputs": [],
					"stateMutability": "nonpayable",
					"type": "function"
				},
				{
					"inputs": [
						{
							"internalType": "uint256",
							"name": "roundId",
							"type": "uint256"
						}
					],
					"name": "claimWeeklyReward",
					"outputs": [],
					"stateMutability": "nonpayable",
					"type": "function"
				},
				{
					"inputs": [],
					"name": "communityAccPerUser",
					"outputs": [
						{
							"internalType": "uint256",
							"name": "",
							"type": "uint256"
						}
					],
					"stateMutability": "view",
					"type": "function"
				},
				{
					"inputs": [],
					"name": "creatorWallet",
					"outputs": [
						{
							"internalType": "address",
							"name": "",
							"type": "address"
						}
					],
					"stateMutability": "view",
					"type": "function"
				},
				{
					"inputs": [],
					"name": "currentMonthlyRound",
					"outputs": [
						{
							"internalType": "uint256",
							"name": "",
							"type": "uint256"
						}
					],
					"stateMutability": "view",
					"type": "function"
				},
				{
					"inputs": [],
					"name": "currentWeeklyRound",
					"outputs": [
						{
							"internalType": "uint256",
							"name": "",
							"type": "uint256"
						}
					],
					"stateMutability": "view",
					"type": "function"
				},
				{
					"inputs": [],
					"name": "defaultRefId",
					"outputs": [
						{
							"internalType": "uint256",
							"name": "",
							"type": "uint256"
						}
					],
					"stateMutability": "view",
					"type": "function"
				},
				{
					"inputs": [
						{
							"internalType": "address",
							"name": "user",
							"type": "address"
						},
						{
							"internalType": "uint256",
							"name": "roundId",
							"type": "uint256"
						},
						{
							"internalType": "bool",
							"name": "isWeekly",
							"type": "bool"
						}
					],
					"name": "getUserRoundStatus",
					"outputs": [
						{
							"internalType": "bool",
							"name": "qualified",
							"type": "bool"
						},
						{
							"internalType": "bool",
							"name": "claimed",
							"type": "bool"
						},
						{
							"internalType": "uint256",
							"name": "rewardAmount",
							"type": "uint256"
						},
						{
							"internalType": "bool",
							"name": "roundClosed",
							"type": "bool"
						}
					],
					"stateMutability": "view",
					"type": "function"
				},
				{
					"inputs": [
						{
							"internalType": "uint256",
							"name": "",
							"type": "uint256"
						}
					],
					"name": "glbBoosterPackages",
					"outputs": [
						{
							"internalType": "uint256",
							"name": "",
							"type": "uint256"
						}
					],
					"stateMutability": "view",
					"type": "function"
				},
				{
					"inputs": [
						{
							"internalType": "uint256",
							"name": "",
							"type": "uint256"
						},
						{
							"internalType": "address",
							"name": "",
							"type": "address"
						}
					],
					"name": "hasClaimedMonthly",
					"outputs": [
						{
							"internalType": "bool",
							"name": "",
							"type": "bool"
						}
					],
					"stateMutability": "view",
					"type": "function"
				},
				{
					"inputs": [
						{
							"internalType": "uint256",
							"name": "",
							"type": "uint256"
						},
						{
							"internalType": "address",
							"name": "",
							"type": "address"
						}
					],
					"name": "hasClaimedWeekly",
					"outputs": [
						{
							"internalType": "bool",
							"name": "",
							"type": "bool"
						}
					],
					"stateMutability": "view",
					"type": "function"
				},
				{
					"inputs": [
						{
							"internalType": "uint256",
							"name": "",
							"type": "uint256"
						},
						{
							"internalType": "address",
							"name": "",
							"type": "address"
						}
					],
					"name": "isMonthlyQualified",
					"outputs": [
						{
							"internalType": "bool",
							"name": "",
							"type": "bool"
						}
					],
					"stateMutability": "view",
					"type": "function"
				},
				{
					"inputs": [
						{
							"internalType": "uint256",
							"name": "",
							"type": "uint256"
						},
						{
							"internalType": "address",
							"name": "",
							"type": "address"
						}
					],
					"name": "isWeeklyQualified",
					"outputs": [
						{
							"internalType": "bool",
							"name": "",
							"type": "bool"
						}
					],
					"stateMutability": "view",
					"type": "function"
				},
				{
					"inputs": [],
					"name": "lastMonthlyReset",
					"outputs": [
						{
							"internalType": "uint256",
							"name": "",
							"type": "uint256"
						}
					],
					"stateMutability": "view",
					"type": "function"
				},
				{
					"inputs": [],
					"name": "lastWeeklyReset",
					"outputs": [
						{
							"internalType": "uint256",
							"name": "",
							"type": "uint256"
						}
					],
					"stateMutability": "view",
					"type": "function"
				},
				{
					"inputs": [
						{
							"internalType": "uint256",
							"name": "",
							"type": "uint256"
						}
					],
					"name": "minLevelForGlbBooster",
					"outputs": [
						{
							"internalType": "uint256",
							"name": "",
							"type": "uint256"
						}
					],
					"stateMutability": "view",
					"type": "function"
				},
				{
					"inputs": [
						{
							"internalType": "uint256",
							"name": "",
							"type": "uint256"
						}
					],
					"name": "minLevelForPool",
					"outputs": [
						{
							"internalType": "uint256",
							"name": "",
							"type": "uint256"
						}
					],
					"stateMutability": "view",
					"type": "function"
				},
				{
					"inputs": [
						{
							"internalType": "uint256",
							"name": "",
							"type": "uint256"
						}
					],
					"name": "minPoolForGlbBooster",
					"outputs": [
						{
							"internalType": "uint256",
							"name": "",
							"type": "uint256"
						}
					],
					"stateMutability": "view",
					"type": "function"
				},
				{
					"inputs": [
						{
							"internalType": "uint256",
							"name": "",
							"type": "uint256"
						}
					],
					"name": "monthlyRounds",
					"outputs": [
						{
							"internalType": "uint256",
							"name": "id",
							"type": "uint256"
						},
						{
							"internalType": "uint256",
							"name": "totalUsers",
							"type": "uint256"
						},
						{
							"internalType": "uint256",
							"name": "totalReward",
							"type": "uint256"
						},
						{
							"internalType": "uint256",
							"name": "perUserReward",
							"type": "uint256"
						},
						{
							"internalType": "uint256",
							"name": "startTime",
							"type": "uint256"
						},
						{
							"internalType": "uint256",
							"name": "endTime",
							"type": "uint256"
						},
						{
							"internalType": "bool",
							"name": "closed",
							"type": "bool"
						}
					],
					"stateMutability": "view",
					"type": "function"
				},
				{
					"inputs": [
						{
							"internalType": "uint256",
							"name": "",
							"type": "uint256"
						}
					],
					"name": "packages",
					"outputs": [
						{
							"internalType": "uint256",
							"name": "",
							"type": "uint256"
						}
					],
					"stateMutability": "view",
					"type": "function"
				},
				{
					"inputs": [
						{
							"internalType": "uint256",
							"name": "",
							"type": "uint256"
						}
					],
					"name": "poolPackages",
					"outputs": [
						{
							"internalType": "uint256",
							"name": "",
							"type": "uint256"
						}
					],
					"stateMutability": "view",
					"type": "function"
				},
				{
					"inputs": [
						{
							"internalType": "uint256",
							"name": "",
							"type": "uint256"
						}
					],
					"name": "qualifiedMonthly",
					"outputs": [
						{
							"internalType": "address",
							"name": "",
							"type": "address"
						}
					],
					"stateMutability": "view",
					"type": "function"
				},
				{
					"inputs": [
						{
							"internalType": "uint256",
							"name": "",
							"type": "uint256"
						}
					],
					"name": "qualifiedWeekly",
					"outputs": [
						{
							"internalType": "address",
							"name": "",
							"type": "address"
						}
					],
					"stateMutability": "view",
					"type": "function"
				},
				{
					"inputs": [],
					"name": "qualifyMonthly",
					"outputs": [],
					"stateMutability": "payable",
					"type": "function"
				},
				{
					"inputs": [],
					"name": "qualifyWeekly",
					"outputs": [],
					"stateMutability": "payable",
					"type": "function"
				},
				{
					"inputs": [
						{
							"internalType": "uint256",
							"name": "",
							"type": "uint256"
						}
					],
					"name": "registeredUserIds",
					"outputs": [
						{
							"internalType": "uint256",
							"name": "",
							"type": "uint256"
						}
					],
					"stateMutability": "view",
					"type": "function"
				},
				{
					"inputs": [],
					"name": "systemMaintance",
					"outputs": [
						{
							"internalType": "address",
							"name": "",
							"type": "address"
						}
					],
					"stateMutability": "view",
					"type": "function"
				},
				{
					"inputs": [],
					"name": "teamDevelopment",
					"outputs": [
						{
							"internalType": "address",
							"name": "",
							"type": "address"
						}
					],
					"stateMutability": "view",
					"type": "function"
				},
				{
					"inputs": [],
					"name": "totalUsers",
					"outputs": [
						{
							"internalType": "uint256",
							"name": "",
							"type": "uint256"
						}
					],
					"stateMutability": "view",
					"type": "function"
				},
				{
					"inputs": [],
					"name": "usdt",
					"outputs": [
						{
							"internalType": "contract IERC20",
							"name": "",
							"type": "address"
						}
					],
					"stateMutability": "view",
					"type": "function"
				},
				{
					"inputs": [
						{
							"internalType": "uint256",
							"name": "",
							"type": "uint256"
						}
					],
					"name": "weeklyRounds",
					"outputs": [
						{
							"internalType": "uint256",
							"name": "id",
							"type": "uint256"
						},
						{
							"internalType": "uint256",
							"name": "totalUsers",
							"type": "uint256"
						},
						{
							"internalType": "uint256",
							"name": "totalReward",
							"type": "uint256"
						},
						{
							"internalType": "uint256",
							"name": "perUserReward",
							"type": "uint256"
						},
						{
							"internalType": "uint256",
							"name": "startTime",
							"type": "uint256"
						},
						{
							"internalType": "uint256",
							"name": "endTime",
							"type": "uint256"
						},
						{
							"internalType": "bool",
							"name": "closed",
							"type": "bool"
						}
					],
					"stateMutability": "view",
					"type": "function"
				}
			],
			"devdoc": {
				"kind": "dev",
				"methods": {},
				"version": 1
			},
			"evm": {
				"assembly": "    /* \"contracts/modules/ContestRoyalty.sol\":90:6393  contract ContestRoyalty is Storage  {... */\n  mstore(0x40, 0x80)\n  jumpi(tag_4, callvalue)\n  mload(0x40)\n  0x01e0\n  dup2\n  add\n  sub(shl(0x40, 0x01), 0x01)\n  dup2\n  gt\n  dup3\n  dup3\n  lt\n  or\n  tag_6\n  jumpi\n  0x40\n  mstore\n    /* \"contracts/modules/Storage.sol\":702:711  15 * 1e18 */\n  0xd02ab486cedc0000\n    /* \"contracts/modules/ContestRoyalty.sol\":90:6393  contract ContestRoyalty is Storage  {... */\n  dup2\n  mstore\n    /* \"contracts/modules/Storage.sol\":734:743  25 * 1e18 */\n  0x015af1d78b58c40000\n    /* \"contracts/modules/Storage.sol\":691:1206  [... */\n  0x20\n  dup3\n  add\n    /* \"contracts/modules/ContestRoyalty.sol\":90:6393  contract ContestRoyalty is Storage  {... */\n  mstore\n    /* \"contracts/modules/Storage.sol\":766:775  50 * 1e18 */\n  0x02b5e3af16b1880000\n    /* \"contracts/modules/ContestRoyalty.sol\":90:6393  contract ContestRoyalty is Storage  {... */\n  0x40\n    /* \"contracts/modules/Storage.sol\":691:1206  [... */\n  dup3\n  add\n    /* \"contracts/modules/ContestRoyalty.sol\":90:6393  contract ContestRoyalty is Storage  {... */\n  mstore\n    /* \"contracts/modules/Storage.sol\":798:808  100 * 1e18 */\n  0x056bc75e2d63100000\n    /* \"contracts/modules/Storage.sol\":691:1206  [... */\n  0x60\n  dup3\n  add\n    /* \"contracts/modules/ContestRoyalty.sol\":90:6393  contract ContestRoyalty is Storage  {... */\n  mstore\n    /* \"contracts/modules/Storage.sol\":831:841  200 * 1e18 */\n  0x0ad78ebc5ac6200000\n    /* \"contracts/modules/Storage.sol\":691:1206  [... */\n  0x80\n  dup3\n  add\n    /* \"contracts/modules/ContestRoyalty.sol\":90:6393  contract ContestRoyalty is Storage  {... */\n  mstore\n    /* \"contracts/modules/Storage.sol\":864:874  400 * 1e18 */\n  0x15af1d78b58c400000\n    /* \"contracts/modules/Storage.sol\":691:1206  [... */\n  0xa0\n  dup3\n  add\n    /* \"contracts/modules/ContestRoyalty.sol\":90:6393  contract ContestRoyalty is Storage  {... */\n  mstore\n    /* \"contracts/modules/Storage.sol\":897:907  800 * 1e18 */\n  0x2b5e3af16b18800000\n    /* \"contracts/modules/Storage.sol\":691:1206  [... */\n  0xc0\n  dup3\n  add\n    /* \"contracts/modules/ContestRoyalty.sol\":90:6393  contract ContestRoyalty is Storage  {... */\n  mstore\n    /* \"contracts/modules/Storage.sol\":930:941  1600 * 1e18 */\n  0x56bc75e2d631000000\n    /* \"contracts/modules/Storage.sol\":691:1206  [... */\n  0xe0\n  dup3\n  add\n    /* \"contracts/modules/ContestRoyalty.sol\":90:6393  contract ContestRoyalty is Storage  {... */\n  mstore\n    /* \"contracts/modules/Storage.sol\":964:975  3200 * 1e18 */\n  0xad78ebc5ac62000000\n    /* \"contracts/modules/Storage.sol\":691:1206  [... */\n  0x0100\n  dup3\n  add\n    /* \"contracts/modules/ContestRoyalty.sol\":90:6393  contract ContestRoyalty is Storage  {... */\n  mstore\n    /* \"contracts/modules/Storage.sol\":998:1009  6400 * 1e18 */\n  0x015af1d78b58c4000000\n    /* \"contracts/modules/Storage.sol\":691:1206  [... */\n  0x0120\n  dup3\n  add\n    /* \"contracts/modules/ContestRoyalty.sol\":90:6393  contract ContestRoyalty is Storage  {... */\n  mstore\n    /* \"contracts/modules/Storage.sol\":1032:1044  12800 * 1e18 */\n  0x02b5e3af16b188000000\n    /* \"contracts/modules/Storage.sol\":691:1206  [... */\n  0x0140\n  dup3\n  add\n    /* \"contracts/modules/ContestRoyalty.sol\":90:6393  contract ContestRoyalty is Storage  {... */\n  mstore\n    /* \"contracts/modules/Storage.sol\":1067:1079  25600 * 1e18 */\n  0x056bc75e2d6310000000\n    /* \"contracts/modules/Storage.sol\":691:1206  [... */\n  0x0160\n  dup3\n  add\n    /* \"contracts/modules/ContestRoyalty.sol\":90:6393  contract ContestRoyalty is Storage  {... */\n  mstore\n    /* \"contracts/modules/Storage.sol\":1102:1114  51200 * 1e18 */\n  0x0ad78ebc5ac620000000\n    /* \"contracts/modules/Storage.sol\":691:1206  [... */\n  0x0180\n  dup3\n  add\n    /* \"contracts/modules/ContestRoyalty.sol\":90:6393  contract ContestRoyalty is Storage  {... */\n  mstore\n    /* \"contracts/modules/Storage.sol\":1137:1150  102400 * 1e18 */\n  0x15af1d78b58c40000000\n    /* \"contracts/modules/Storage.sol\":691:1206  [... */\n  0x01a0\n  dup3\n  add\n    /* \"contracts/modules/ContestRoyalty.sol\":90:6393  contract ContestRoyalty is Storage  {... */\n  mstore\n    /* \"contracts/modules/Storage.sol\":1173:1186  204800 * 1e18 */\n  0x2b5e3af16b1880000000\n    /* \"contracts/modules/Storage.sol\":691:1206  [... */\n  0x01c0\n  dup3\n  add\n    /* \"contracts/modules/ContestRoyalty.sol\":90:6393  contract ContestRoyalty is Storage  {... */\n  mstore\n    /* \"contracts/modules/Storage.sol\":691:1206  [... */\n  0x06\n    /* \"contracts/modules/ContestRoyalty.sol\":90:6393  contract ContestRoyalty is Storage  {... */\n  sload\n    /* \"contracts/modules/Storage.sol\":691:1206  [... */\n  0x0f\n  0x06\n    /* \"contracts/modules/ContestRoyalty.sol\":90:6393  contract ContestRoyalty is Storage  {... */\n  sstore\n  dup1\n    /* \"contracts/modules/Storage.sol\":691:1206  [... */\n  0x0f\n    /* \"contracts/modules/ContestRoyalty.sol\":90:6393  contract ContestRoyalty is Storage  {... */\n  lt\n  tag_8\n  jumpi\ntag_9:\n  pop\n    /* \"contracts/modules/Storage.sol\":691:1206  [... */\n  0x06\n  0x00\n    /* \"contracts/modules/ContestRoyalty.sol\":90:6393  contract ContestRoyalty is Storage  {... */\n  mstore\n    /* \"contracts/modules/Storage.sol\":691:1206  [... */\n  0x20\n  0x00\n    /* \"contracts/modules/ContestRoyalty.sol\":90:6393  contract ContestRoyalty is Storage  {... */\n  keccak256\n  swap1\n  0x00\ntag_10:\n    /* \"contracts/modules/Storage.sol\":691:1206  [... */\n  0x0f\n    /* \"contracts/modules/ContestRoyalty.sol\":90:6393  contract ContestRoyalty is Storage  {... */\n  dup2\n  lt\n  tag_11\n  jumpi\n  tag_13\n  tag_1\n  jump\t// in\ntag_13:\n    /* \"contracts/modules/Storage.sol\":1243:1248  75e18 */\n  0x0410d586a20a4c0000\n    /* \"contracts/modules/ContestRoyalty.sol\":90:6393  contract ContestRoyalty is Storage  {... */\n  dup2\n  mstore\n    /* \"contracts/modules/Storage.sol\":1250:1256  300e18 */\n  0x1043561a8829300000\n    /* \"contracts/modules/Storage.sol\":691:1206  [... */\n  0x20\n    /* \"contracts/modules/Storage.sol\":1242:1306  [75e18, 300e18, 1200e18, 4800e18, 19200e18, 76800e18, 307200e18] */\n  dup3\n  add\n    /* \"contracts/modules/ContestRoyalty.sol\":90:6393  contract ContestRoyalty is Storage  {... */\n  mstore\n    /* \"contracts/modules/Storage.sol\":1258:1265  1200e18 */\n  0x410d586a20a4c00000\n    /* \"contracts/modules/ContestRoyalty.sol\":90:6393  contract ContestRoyalty is Storage  {... */\n  0x40\n    /* \"contracts/modules/Storage.sol\":1242:1306  [75e18, 300e18, 1200e18, 4800e18, 19200e18, 76800e18, 307200e18] */\n  dup3\n  add\n    /* \"contracts/modules/ContestRoyalty.sol\":90:6393  contract ContestRoyalty is Storage  {... */\n  mstore\n    /* \"contracts/modules/Storage.sol\":1267:1274  4800e18 */\n  0x01043561a88293000000\n    /* \"contracts/modules/Storage.sol\":691:1206  [... */\n  0x60\n    /* \"contracts/modules/Storage.sol\":1242:1306  [75e18, 300e18, 1200e18, 4800e18, 19200e18, 76800e18, 307200e18] */\n  dup3\n  add\n    /* \"contracts/modules/ContestRoyalty.sol\":90:6393  contract ContestRoyalty is Storage  {... */\n  mstore\n    /* \"contracts/modules/Storage.sol\":1276:1284  19200e18 */\n  0x0410d586a20a4c000000\n    /* \"contracts/modules/Storage.sol\":691:1206  [... */\n  0x80\n    /* \"contracts/modules/Storage.sol\":1242:1306  [75e18, 300e18, 1200e18, 4800e18, 19200e18, 76800e18, 307200e18] */\n  dup3\n  add\n    /* \"contracts/modules/ContestRoyalty.sol\":90:6393  contract ContestRoyalty is Storage  {... */\n  mstore\n    /* \"contracts/modules/Storage.sol\":1286:1294  76800e18 */\n  0x1043561a882930000000\n    /* \"contracts/modules/Storage.sol\":691:1206  [... */\n  0xa0\n    /* \"contracts/modules/Storage.sol\":1242:1306  [75e18, 300e18, 1200e18, 4800e18, 19200e18, 76800e18, 307200e18] */\n  dup3\n  add\n    /* \"contracts/modules/ContestRoyalty.sol\":90:6393  contract ContestRoyalty is Storage  {... */\n  mstore\n    /* \"contracts/modules/Storage.sol\":1296:1305  307200e18 */\n  0x410d586a20a4c0000000\n    /* \"contracts/modules/Storage.sol\":691:1206  [... */\n  0xc0\n    /* \"contracts/modules/Storage.sol\":1242:1306  [75e18, 300e18, 1200e18, 4800e18, 19200e18, 76800e18, 307200e18] */\n  dup3\n  add\n    /* \"contracts/modules/ContestRoyalty.sol\":90:6393  contract ContestRoyalty is Storage  {... */\n  mstore\n    /* \"contracts/modules/Storage.sol\":1242:1306  [75e18, 300e18, 1200e18, 4800e18, 19200e18, 76800e18, 307200e18] */\n  0x07\n    /* \"contracts/modules/ContestRoyalty.sol\":90:6393  contract ContestRoyalty is Storage  {... */\n  sload\n    /* \"contracts/modules/Storage.sol\":1242:1306  [75e18, 300e18, 1200e18, 4800e18, 19200e18, 76800e18, 307200e18] */\n  0x07\n    /* \"contracts/modules/ContestRoyalty.sol\":90:6393  contract ContestRoyalty is Storage  {... */\n  dup1\n  sstore\n  dup1\n    /* \"contracts/modules/Storage.sol\":1242:1306  [75e18, 300e18, 1200e18, 4800e18, 19200e18, 76800e18, 307200e18] */\n  0x07\n    /* \"contracts/modules/ContestRoyalty.sol\":90:6393  contract ContestRoyalty is Storage  {... */\n  lt\n  tag_14\n  jumpi\ntag_15:\n  pop\n    /* \"contracts/modules/Storage.sol\":1242:1306  [75e18, 300e18, 1200e18, 4800e18, 19200e18, 76800e18, 307200e18] */\n  0x07\n  0x00\n    /* \"contracts/modules/ContestRoyalty.sol\":90:6393  contract ContestRoyalty is Storage  {... */\n  mstore\n    /* \"contracts/modules/Storage.sol\":691:1206  [... */\n  0x20\n  0x00\n    /* \"contracts/modules/ContestRoyalty.sol\":90:6393  contract ContestRoyalty is Storage  {... */\n  keccak256\n  swap1\n  0x00\ntag_16:\n    /* \"contracts/modules/Storage.sol\":1242:1306  [75e18, 300e18, 1200e18, 4800e18, 19200e18, 76800e18, 307200e18] */\n  0x07\n    /* \"contracts/modules/ContestRoyalty.sol\":90:6393  contract ContestRoyalty is Storage  {... */\n  dup2\n  lt\n  tag_17\n  jumpi\n  tag_19\n  tag_2\n  jump\t// in\ntag_19:\n    /* \"contracts/modules/Storage.sol\":798:808  100 * 1e18 */\n  0x056bc75e2d63100000\n    /* \"contracts/modules/ContestRoyalty.sol\":90:6393  contract ContestRoyalty is Storage  {... */\n  dup2\n  mstore\n    /* \"contracts/modules/Storage.sol\":831:841  200 * 1e18 */\n  0x0ad78ebc5ac6200000\n    /* \"contracts/modules/Storage.sol\":691:1206  [... */\n  0x20\n    /* \"contracts/modules/Storage.sol\":1348:1418  [ 100e18, 200e18, 400e18, 800e18, 1600e18, 3200e18, 6400e18, 12800e18] */\n  dup3\n  add\n    /* \"contracts/modules/ContestRoyalty.sol\":90:6393  contract ContestRoyalty is Storage  {... */\n  mstore\n    /* \"contracts/modules/Storage.sol\":864:874  400 * 1e18 */\n  0x15af1d78b58c400000\n    /* \"contracts/modules/ContestRoyalty.sol\":90:6393  contract ContestRoyalty is Storage  {... */\n  0x40\n    /* \"contracts/modules/Storage.sol\":1348:1418  [ 100e18, 200e18, 400e18, 800e18, 1600e18, 3200e18, 6400e18, 12800e18] */\n  dup3\n  add\n    /* \"contracts/modules/ContestRoyalty.sol\":90:6393  contract ContestRoyalty is Storage  {... */\n  mstore\n    /* \"contracts/modules/Storage.sol\":897:907  800 * 1e18 */\n  0x2b5e3af16b18800000\n    /* \"contracts/modules/Storage.sol\":691:1206  [... */\n  0x60\n    /* \"contracts/modules/Storage.sol\":1348:1418  [ 100e18, 200e18, 400e18, 800e18, 1600e18, 3200e18, 6400e18, 12800e18] */\n  dup3\n  add\n    /* \"contracts/modules/ContestRoyalty.sol\":90:6393  contract ContestRoyalty is Storage  {... */\n  mstore\n    /* \"contracts/modules/Storage.sol\":930:941  1600 * 1e18 */\n  0x56bc75e2d631000000\n    /* \"contracts/modules/Storage.sol\":691:1206  [... */\n  0x80\n    /* \"contracts/modules/Storage.sol\":1348:1418  [ 100e18, 200e18, 400e18, 800e18, 1600e18, 3200e18, 6400e18, 12800e18] */\n  dup3\n  add\n    /* \"contracts/modules/ContestRoyalty.sol\":90:6393  contract ContestRoyalty is Storage  {... */\n  mstore\n    /* \"contracts/modules/Storage.sol\":964:975  3200 * 1e18 */\n  0xad78ebc5ac62000000\n    /* \"contracts/modules/Storage.sol\":691:1206  [... */\n  0xa0\n    /* \"contracts/modules/Storage.sol\":1348:1418  [ 100e18, 200e18, 400e18, 800e18, 1600e18, 3200e18, 6400e18, 12800e18] */\n  dup3\n  add\n    /* \"contracts/modules/ContestRoyalty.sol\":90:6393  contract ContestRoyalty is Storage  {... */\n  mstore\n    /* \"contracts/modules/Storage.sol\":998:1009  6400 * 1e18 */\n  0x015af1d78b58c4000000\n    /* \"contracts/modules/Storage.sol\":691:1206  [... */\n  0xc0\n    /* \"contracts/modules/Storage.sol\":1348:1418  [ 100e18, 200e18, 400e18, 800e18, 1600e18, 3200e18, 6400e18, 12800e18] */\n  dup3\n  add\n    /* \"contracts/modules/ContestRoyalty.sol\":90:6393  contract ContestRoyalty is Storage  {... */\n  mstore\n    /* \"contracts/modules/Storage.sol\":1032:1044  12800 * 1e18 */\n  0x02b5e3af16b188000000\n    /* \"contracts/modules/Storage.sol\":691:1206  [... */\n  0xe0\n    /* \"contracts/modules/Storage.sol\":1348:1418  [ 100e18, 200e18, 400e18, 800e18, 1600e18, 3200e18, 6400e18, 12800e18] */\n  dup3\n  add\n    /* \"contracts/modules/ContestRoyalty.sol\":90:6393  contract ContestRoyalty is Storage  {... */\n  mstore\n    /* \"contracts/modules/Storage.sol\":1348:1418  [ 100e18, 200e18, 400e18, 800e18, 1600e18, 3200e18, 6400e18, 12800e18] */\n  0x08\n    /* \"contracts/modules/ContestRoyalty.sol\":90:6393  contract ContestRoyalty is Storage  {... */\n  sload\n    /* \"contracts/modules/Storage.sol\":1348:1418  [ 100e18, 200e18, 400e18, 800e18, 1600e18, 3200e18, 6400e18, 12800e18] */\n  0x08\n    /* \"contracts/modules/ContestRoyalty.sol\":90:6393  contract ContestRoyalty is Storage  {... */\n  dup1\n  sstore\n  dup1\n    /* \"contracts/modules/Storage.sol\":1348:1418  [ 100e18, 200e18, 400e18, 800e18, 1600e18, 3200e18, 6400e18, 12800e18] */\n  0x08\n    /* \"contracts/modules/ContestRoyalty.sol\":90:6393  contract ContestRoyalty is Storage  {... */\n  lt\n  tag_20\n  jumpi\ntag_21:\n  pop\n    /* \"contracts/modules/Storage.sol\":1348:1418  [ 100e18, 200e18, 400e18, 800e18, 1600e18, 3200e18, 6400e18, 12800e18] */\n  0x08\n  0x00\n    /* \"contracts/modules/ContestRoyalty.sol\":90:6393  contract ContestRoyalty is Storage  {... */\n  mstore\n    /* \"contracts/modules/Storage.sol\":691:1206  [... */\n  0x20\n  0x00\n    /* \"contracts/modules/ContestRoyalty.sol\":90:6393  contract ContestRoyalty is Storage  {... */\n  keccak256\n  swap1\n  0x00\ntag_22:\n    /* \"contracts/modules/Storage.sol\":1348:1418  [ 100e18, 200e18, 400e18, 800e18, 1600e18, 3200e18, 6400e18, 12800e18] */\n  0x08\n    /* \"contracts/modules/ContestRoyalty.sol\":90:6393  contract ContestRoyalty is Storage  {... */\n  dup2\n  lt\n  tag_23\n  jumpi\n  tag_25\n  tag_1\n  jump\t// in\ntag_25:\n    /* \"contracts/modules/Storage.sol\":1459:1460  3 */\n  0x03\n    /* \"contracts/modules/ContestRoyalty.sol\":90:6393  contract ContestRoyalty is Storage  {... */\n  dup2\n  mstore\n  0x05\n    /* \"contracts/modules/Storage.sol\":691:1206  [... */\n  0x20\n    /* \"contracts/modules/Storage.sol\":1458:1482  [3, 5, 7, 9, 11, 13, 15] */\n  dup3\n  add\n    /* \"contracts/modules/ContestRoyalty.sol\":90:6393  contract ContestRoyalty is Storage  {... */\n  mstore\n    /* \"contracts/modules/Storage.sol\":1242:1306  [75e18, 300e18, 1200e18, 4800e18, 19200e18, 76800e18, 307200e18] */\n  0x07\n    /* \"contracts/modules/ContestRoyalty.sol\":90:6393  contract ContestRoyalty is Storage  {... */\n  0x40\n    /* \"contracts/modules/Storage.sol\":1458:1482  [3, 5, 7, 9, 11, 13, 15] */\n  dup3\n  add\n    /* \"contracts/modules/ContestRoyalty.sol\":90:6393  contract ContestRoyalty is Storage  {... */\n  mstore\n    /* \"contracts/modules/Storage.sol\":1468:1469  9 */\n  0x09\n    /* \"contracts/modules/Storage.sol\":691:1206  [... */\n  0x60\n    /* \"contracts/modules/Storage.sol\":1458:1482  [3, 5, 7, 9, 11, 13, 15] */\n  dup3\n  add\n    /* \"contracts/modules/ContestRoyalty.sol\":90:6393  contract ContestRoyalty is Storage  {... */\n  mstore\n    /* \"contracts/modules/Storage.sol\":1471:1473  11 */\n  0x0b\n    /* \"contracts/modules/Storage.sol\":691:1206  [... */\n  0x80\n    /* \"contracts/modules/Storage.sol\":1458:1482  [3, 5, 7, 9, 11, 13, 15] */\n  dup3\n  add\n    /* \"contracts/modules/ContestRoyalty.sol\":90:6393  contract ContestRoyalty is Storage  {... */\n  mstore\n    /* \"contracts/modules/Storage.sol\":1475:1477  13 */\n  0x0d\n    /* \"contracts/modules/Storage.sol\":691:1206  [... */\n  0xa0\n    /* \"contracts/modules/Storage.sol\":1458:1482  [3, 5, 7, 9, 11, 13, 15] */\n  dup3\n  add\n    /* \"contracts/modules/ContestRoyalty.sol\":90:6393  contract ContestRoyalty is Storage  {... */\n  mstore\n    /* \"contracts/modules/Storage.sol\":691:1206  [... */\n  0x0f\n  0xc0\n    /* \"contracts/modules/Storage.sol\":1458:1482  [3, 5, 7, 9, 11, 13, 15] */\n  dup3\n  add\n    /* \"contracts/modules/ContestRoyalty.sol\":90:6393  contract ContestRoyalty is Storage  {... */\n  mstore\n  0x00\ntag_26:\n    /* \"contracts/modules/Storage.sol\":1242:1306  [75e18, 300e18, 1200e18, 4800e18, 19200e18, 76800e18, 307200e18] */\n  0x07\n    /* \"contracts/modules/ContestRoyalty.sol\":90:6393  contract ContestRoyalty is Storage  {... */\n  dup2\n  lt\n  tag_27\n  jumpi\n  tag_29\n  tag_2\n  jump\t// in\ntag_29:\n    /* \"contracts/modules/Storage.sol\":1529:1530  4 */\n  0x04\n    /* \"contracts/modules/ContestRoyalty.sol\":90:6393  contract ContestRoyalty is Storage  {... */\n  dup2\n  mstore\n  0x05\n    /* \"contracts/modules/Storage.sol\":691:1206  [... */\n  0x20\n    /* \"contracts/modules/Storage.sol\":1528:1553  [4, 5, 6, 7, 8, 9, 10,11] */\n  dup3\n  add\n    /* \"contracts/modules/ContestRoyalty.sol\":90:6393  contract ContestRoyalty is Storage  {... */\n  mstore\n    /* \"contracts/modules/Storage.sol\":691:1206  [... */\n  0x06\n    /* \"contracts/modules/ContestRoyalty.sol\":90:6393  contract ContestRoyalty is Storage  {... */\n  0x40\n    /* \"contracts/modules/Storage.sol\":1528:1553  [4, 5, 6, 7, 8, 9, 10,11] */\n  dup3\n  add\n    /* \"contracts/modules/ContestRoyalty.sol\":90:6393  contract ContestRoyalty is Storage  {... */\n  mstore\n    /* \"contracts/modules/Storage.sol\":1242:1306  [75e18, 300e18, 1200e18, 4800e18, 19200e18, 76800e18, 307200e18] */\n  0x07\n    /* \"contracts/modules/Storage.sol\":691:1206  [... */\n  0x60\n    /* \"contracts/modules/Storage.sol\":1528:1553  [4, 5, 6, 7, 8, 9, 10,11] */\n  dup3\n  add\n    /* \"contracts/modules/ContestRoyalty.sol\":90:6393  contract ContestRoyalty is Storage  {... */\n  mstore\n    /* \"contracts/modules/Storage.sol\":1348:1418  [ 100e18, 200e18, 400e18, 800e18, 1600e18, 3200e18, 6400e18, 12800e18] */\n  0x08\n    /* \"contracts/modules/Storage.sol\":691:1206  [... */\n  0x80\n    /* \"contracts/modules/Storage.sol\":1528:1553  [4, 5, 6, 7, 8, 9, 10,11] */\n  dup3\n  add\n    /* \"contracts/modules/ContestRoyalty.sol\":90:6393  contract ContestRoyalty is Storage  {... */\n  mstore\n    /* \"contracts/modules/Storage.sol\":1468:1469  9 */\n  0x09\n    /* \"contracts/modules/Storage.sol\":691:1206  [... */\n  0xa0\n    /* \"contracts/modules/Storage.sol\":1528:1553  [4, 5, 6, 7, 8, 9, 10,11] */\n  dup3\n  add\n    /* \"contracts/modules/ContestRoyalty.sol\":90:6393  contract ContestRoyalty is Storage  {... */\n  mstore\n    /* \"contracts/modules/Storage.sol\":1547:1549  10 */\n  0x0a\n    /* \"contracts/modules/Storage.sol\":691:1206  [... */\n  0xc0\n    /* \"contracts/modules/Storage.sol\":1528:1553  [4, 5, 6, 7, 8, 9, 10,11] */\n  dup3\n  add\n    /* \"contracts/modules/ContestRoyalty.sol\":90:6393  contract ContestRoyalty is Storage  {... */\n  mstore\n    /* \"contracts/modules/Storage.sol\":1471:1473  11 */\n  0x0b\n    /* \"contracts/modules/Storage.sol\":691:1206  [... */\n  0xe0\n    /* \"contracts/modules/Storage.sol\":1528:1553  [4, 5, 6, 7, 8, 9, 10,11] */\n  dup3\n  add\n    /* \"contracts/modules/ContestRoyalty.sol\":90:6393  contract ContestRoyalty is Storage  {... */\n  mstore\n  0x00\ntag_30:\n    /* \"contracts/modules/Storage.sol\":1348:1418  [ 100e18, 200e18, 400e18, 800e18, 1600e18, 3200e18, 6400e18, 12800e18] */\n  0x08\n    /* \"contracts/modules/ContestRoyalty.sol\":90:6393  contract ContestRoyalty is Storage  {... */\n  dup2\n  lt\n  tag_31\n  jumpi\n  tag_33\n  tag_2\n  jump\t// in\ntag_33:\n  0x00\n  dup2\n  mstore\n  0x01\n    /* \"contracts/modules/Storage.sol\":691:1206  [... */\n  0x20\n    /* \"contracts/modules/Storage.sol\":1598:1621  [0, 1, 1, 1, 1, 1, 1,1] */\n  dup3\n  add\n    /* \"contracts/modules/ContestRoyalty.sol\":90:6393  contract ContestRoyalty is Storage  {... */\n  mstore\n  0x01\n  0x40\n    /* \"contracts/modules/Storage.sol\":1598:1621  [0, 1, 1, 1, 1, 1, 1,1] */\n  dup3\n  add\n    /* \"contracts/modules/ContestRoyalty.sol\":90:6393  contract ContestRoyalty is Storage  {... */\n  mstore\n  0x01\n    /* \"contracts/modules/Storage.sol\":691:1206  [... */\n  0x60\n    /* \"contracts/modules/Storage.sol\":1598:1621  [0, 1, 1, 1, 1, 1, 1,1] */\n  dup3\n  add\n    /* \"contracts/modules/ContestRoyalty.sol\":90:6393  contract ContestRoyalty is Storage  {... */\n  mstore\n  0x01\n    /* \"contracts/modules/Storage.sol\":691:1206  [... */\n  0x80\n    /* \"contracts/modules/Storage.sol\":1598:1621  [0, 1, 1, 1, 1, 1, 1,1] */\n  dup3\n  add\n    /* \"contracts/modules/ContestRoyalty.sol\":90:6393  contract ContestRoyalty is Storage  {... */\n  mstore\n  0x01\n    /* \"contracts/modules/Storage.sol\":691:1206  [... */\n  0xa0\n    /* \"contracts/modules/Storage.sol\":1598:1621  [0, 1, 1, 1, 1, 1, 1,1] */\n  dup3\n  add\n    /* \"contracts/modules/ContestRoyalty.sol\":90:6393  contract ContestRoyalty is Storage  {... */\n  mstore\n  0x01\n    /* \"contracts/modules/Storage.sol\":691:1206  [... */\n  0xc0\n    /* \"contracts/modules/Storage.sol\":1598:1621  [0, 1, 1, 1, 1, 1, 1,1] */\n  dup3\n  add\n    /* \"contracts/modules/ContestRoyalty.sol\":90:6393  contract ContestRoyalty is Storage  {... */\n  mstore\n  0x01\n    /* \"contracts/modules/Storage.sol\":691:1206  [... */\n  0xe0\n    /* \"contracts/modules/Storage.sol\":1598:1621  [0, 1, 1, 1, 1, 1, 1,1] */\n  dup3\n  add\n    /* \"contracts/modules/ContestRoyalty.sol\":90:6393  contract ContestRoyalty is Storage  {... */\n  mstore\n  0x00\ntag_34:\n    /* \"contracts/modules/Storage.sol\":1348:1418  [ 100e18, 200e18, 400e18, 800e18, 1600e18, 3200e18, 6400e18, 12800e18] */\n  0x08\n    /* \"contracts/modules/ContestRoyalty.sol\":90:6393  contract ContestRoyalty is Storage  {... */\n  dup2\n  lt\n  tag_35\n  jumpi\n  0x01\n    /* \"contracts/modules/ContestRoyalty.sol\":272:273  1 */\n  0x35\n    /* \"contracts/modules/ContestRoyalty.sol\":90:6393  contract ContestRoyalty is Storage  {... */\n  dup2\n  swap1\n  sstore\n    /* \"contracts/modules/ContestRoyalty.sol\":314:315  1 */\n  0x36\n    /* \"contracts/modules/ContestRoyalty.sol\":90:6393  contract ContestRoyalty is Storage  {... */\n  dup2\n  swap1\n  sstore\n    /* \"contracts/modules/ContestRoyalty.sol\":1422:1437  block.timestamp */\n  timestamp\n    /* \"contracts/modules/ContestRoyalty.sol\":1404:1437  lastWeeklyReset = block.timestamp */\n  0x37\n    /* \"contracts/modules/ContestRoyalty.sol\":90:6393  contract ContestRoyalty is Storage  {... */\n  dup2\n  swap1\n  sstore\n    /* \"contracts/modules/ContestRoyalty.sol\":1448:1482  lastMonthlyReset = block.timestamp */\n  0x38\n    /* \"contracts/modules/ContestRoyalty.sol\":90:6393  contract ContestRoyalty is Storage  {... */\n  dup2\n  swap1\n  sstore\n  0x00\n  swap2\n  swap1\n  swap2\n  mstore\n    /* \"contracts/modules/ContestRoyalty.sol\":1493:1535  weeklyRounds[currentWeeklyRound].startTime */\n  0xb4f71959f268062715079d04bfdf1cfdd2a9ebbcca39849d90bf5f6795576c54\n    /* \"contracts/modules/ContestRoyalty.sol\":90:6393  contract ContestRoyalty is Storage  {... */\n  dup2\n  swap1\n  sstore\n    /* \"contracts/modules/ContestRoyalty.sol\":1564:1577  monthlyRounds */\n  0x3c\n    /* \"contracts/modules/Storage.sol\":691:1206  [... */\n  0x20\n    /* \"contracts/modules/ContestRoyalty.sol\":90:6393  contract ContestRoyalty is Storage  {... */\n  mstore\n    /* \"contracts/modules/ContestRoyalty.sol\":1564:1608  monthlyRounds[currentMonthlyRound].startTime */\n  0xa3f0af13bbc24f9a599303045bb90dfcdb939abd7adcca60700cc08fa292f795\n    /* \"contracts/modules/ContestRoyalty.sol\":90:6393  contract ContestRoyalty is Storage  {... */\n  sstore\n  mload(0x40)\n  dataSize(sub_0)\n  swap1\n  dup2\n  dataOffset(sub_0)\n  dup3\n  codecopy\n  return\ntag_35:\n  0x01\n  swap1\n    /* \"contracts/modules/Storage.sol\":691:1206  [... */\n  0x20\n    /* \"contracts/modules/ContestRoyalty.sol\":90:6393  contract ContestRoyalty is Storage  {... */\n  0xff\n  dup5\n  mload\n  and\n  swap4\n  add\n  swap3\n  dup2\n    /* \"contracts/modules/Storage.sol\":1598:1621  [0, 1, 1, 1, 1, 1, 1,1] */\n  0x18\n    /* \"contracts/modules/ContestRoyalty.sol\":90:6393  contract ContestRoyalty is Storage  {... */\n  add\n  sstore\n  add\n  jump(tag_34)\ntag_31:\n  0x01\n  swap1\n    /* \"contracts/modules/Storage.sol\":691:1206  [... */\n  0x20\n    /* \"contracts/modules/ContestRoyalty.sol\":90:6393  contract ContestRoyalty is Storage  {... */\n  0xff\n  dup5\n  mload\n  and\n  swap4\n  add\n  swap3\n  dup2\n    /* \"contracts/modules/Storage.sol\":1528:1553  [4, 5, 6, 7, 8, 9, 10,11] */\n  0x10\n    /* \"contracts/modules/ContestRoyalty.sol\":90:6393  contract ContestRoyalty is Storage  {... */\n  add\n  sstore\n  add\n  jump(tag_30)\ntag_27:\n  0x01\n  swap1\n    /* \"contracts/modules/Storage.sol\":691:1206  [... */\n  0x20\n    /* \"contracts/modules/ContestRoyalty.sol\":90:6393  contract ContestRoyalty is Storage  {... */\n  0xff\n  dup5\n  mload\n  and\n  swap4\n  add\n  swap3\n  dup2\n    /* \"contracts/modules/Storage.sol\":1468:1469  9 */\n  0x09\n    /* \"contracts/modules/ContestRoyalty.sol\":90:6393  contract ContestRoyalty is Storage  {... */\n  add\n  sstore\n  add\n  jump(tag_26)\ntag_23:\n  dup2\n  mload\n  sub(shl(0x50, 0x01), 0x01)\n  and\n  dup2\n  dup5\n  add\n  sstore\n    /* \"contracts/modules/Storage.sol\":691:1206  [... */\n  0x20\n    /* \"contracts/modules/ContestRoyalty.sol\":90:6393  contract ContestRoyalty is Storage  {... */\n  swap1\n  swap2\n  add\n  swap1\n  0x01\n  add\n  jump(tag_22)\ntag_20:\n    /* \"contracts/modules/Storage.sol\":1348:1418  [ 100e18, 200e18, 400e18, 800e18, 1600e18, 3200e18, 6400e18, 12800e18] */\n  0x08\n  0x00\n    /* \"contracts/modules/ContestRoyalty.sol\":90:6393  contract ContestRoyalty is Storage  {... */\n  mstore\n  tag_37\n  swap1\n  0xf3f7a9fe364faab93b216da50a3214154f22a0a2b415b23a84c8169e8b636ee3\n  add\n  0xf3f7a9fe364faab93b216da50a3214154f22a0a2b415b23a84c8169e8b636eeb\n  tag_3\n  jump\t// in\ntag_37:\n  dup2\n  jump(tag_21)\ntag_17:\n  dup2\n  mload\n  sub(shl(0x50, 0x01), 0x01)\n  and\n  dup2\n  dup5\n  add\n  sstore\n    /* \"contracts/modules/Storage.sol\":691:1206  [... */\n  0x20\n    /* \"contracts/modules/ContestRoyalty.sol\":90:6393  contract ContestRoyalty is Storage  {... */\n  swap1\n  swap2\n  add\n  swap1\n  0x01\n  add\n  jump(tag_16)\ntag_14:\n    /* \"contracts/modules/Storage.sol\":1242:1306  [75e18, 300e18, 1200e18, 4800e18, 19200e18, 76800e18, 307200e18] */\n  0x07\n  0x00\n    /* \"contracts/modules/ContestRoyalty.sol\":90:6393  contract ContestRoyalty is Storage  {... */\n  mstore\n  tag_38\n  swap1\n  0xa66cc928b5edb82af9bd49922954155ab7b0942694bea4ce44661d9a8736c688\n  add\n  0xa66cc928b5edb82af9bd49922954155ab7b0942694bea4ce44661d9a8736c68f\n  tag_3\n  jump\t// in\ntag_38:\n  dup2\n  jump(tag_15)\ntag_11:\n  dup2\n  mload\n  sub(shl(0x50, 0x01), 0x01)\n  and\n  dup2\n  dup5\n  add\n  sstore\n    /* \"contracts/modules/Storage.sol\":691:1206  [... */\n  0x20\n    /* \"contracts/modules/ContestRoyalty.sol\":90:6393  contract ContestRoyalty is Storage  {... */\n  swap1\n  swap2\n  add\n  swap1\n  0x01\n  add\n  jump(tag_10)\ntag_8:\n    /* \"contracts/modules/Storage.sol\":691:1206  [... */\n  0x06\n  0x00\n    /* \"contracts/modules/ContestRoyalty.sol\":90:6393  contract ContestRoyalty is Storage  {... */\n  mstore\n  tag_39\n  swap1\n  0xf652222313e28459528d920b65115c16c04f3efc82aaedc97be59f3f377c0d3f\n  add\n  0xf652222313e28459528d920b65115c16c04f3efc82aaedc97be59f3f377c0d4e\n  tag_3\n  jump\t// in\ntag_39:\n  0x00\n  jump(tag_9)\ntag_6:\n  mstore(0x00, shl(0xe0, 0x4e487b71))\n  mstore(0x04, 0x41)\n  revert(0x00, 0x24)\ntag_4:\n  0x00\n  dup1\n  revert\ntag_1:\n  mload(0x40)\n  swap1\n  0xe0\n  dup3\n  add\n  sub(shl(0x40, 0x01), 0x01)\n  dup2\n  gt\n  dup4\n  dup3\n  lt\n  or\n  tag_6\n  jumpi\n  0x40\n  mstore\n  jump\t// out\ntag_2:\n  mload(0x40)\n  swap1\n  0x0100\n  dup3\n  add\n  sub(shl(0x40, 0x01), 0x01)\n  dup2\n  gt\n  dup4\n  dup3\n  lt\n  or\n  tag_6\n  jumpi\n  0x40\n  mstore\n  jump\t// out\ntag_3:\n  dup2\n  dup2\n  lt\n  tag_45\n  jumpi\n  pop\n  pop\n  jump\t// out\ntag_45:\n  0x00\n  dup2\n  sstore\n  0x01\n  add\n  jump(tag_3)\nstop\n\nsub_0: assembly {\n        /* \"contracts/modules/ContestRoyalty.sol\":90:6393  contract ContestRoyalty is Storage  {... */\n      0x80\n      dup1\n      0x40\n      mstore\n      jumpi(tag_15, iszero(lt(calldatasize, 0x04)))\n      0x00\n      dup1\n      revert\n    tag_15:\n      shr(0xe0, calldataload(0x00))\n      swap1\n      dup2\n      0x01c234a8\n      eq\n      tag_17\n      jumpi\n      pop\n      dup1\n      0x0a3f5a42\n      eq\n      tag_19\n      jumpi\n      dup1\n      0x1c1da18e\n      eq\n      tag_21\n      jumpi\n      dup1\n      0x2132d204\n      eq\n      tag_23\n      jumpi\n      dup1\n      0x2350268f\n      eq\n      tag_25\n      jumpi\n      dup1\n      0x2a891534\n      eq\n      tag_27\n      jumpi\n      dup1\n      0x2f48ab7d\n      eq\n      tag_29\n      jumpi\n      dup1\n      0x32bc298c\n      eq\n      tag_31\n      jumpi\n      dup1\n      0x32fcd966\n      eq\n      tag_33\n      jumpi\n      dup1\n      0x375b43b4\n      eq\n      tag_35\n      jumpi\n      dup1\n      0x39ab3603\n      eq\n      tag_37\n      jumpi\n      dup1\n      0x51a4f04e\n      eq\n      tag_39\n      jumpi\n      dup1\n      0x58c7d352\n      eq\n      tag_41\n      jumpi\n      dup1\n      0x5e5bb367\n      eq\n      tag_43\n      jumpi\n      dup1\n      0x6b77c79d\n      eq\n      tag_45\n      jumpi\n      dup1\n      0x76f5f700\n      eq\n      tag_47\n      jumpi\n      dup1\n      0x78f6ad6d\n      eq\n      tag_49\n      jumpi\n      dup1\n      0x7cdc65f2\n      eq\n      tag_51\n      jumpi\n      dup1\n      0x956a3228\n      eq\n      tag_53\n      jumpi\n      dup1\n      0x9680003d\n      eq\n      tag_55\n      jumpi\n      dup1\n      0xa058dc09\n      eq\n      tag_57\n      jumpi\n      dup1\n      0xa22b9e87\n      eq\n      tag_59\n      jumpi\n      dup1\n      0xa56b1815\n      eq\n      tag_61\n      jumpi\n      dup1\n      0xa6791eae\n      eq\n      tag_63\n      jumpi\n      dup1\n      0xa80fee55\n      eq\n      tag_65\n      jumpi\n      dup1\n      0xad127e6b\n      eq\n      tag_67\n      jumpi\n      dup1\n      0xae4708dc\n      eq\n      tag_69\n      jumpi\n      dup1\n      0xb4ba97fc\n      eq\n      tag_71\n      jumpi\n      dup1\n      0xbff1f9e1\n      eq\n      tag_73\n      jumpi\n      dup1\n      0xc1c13b2f\n      eq\n      tag_75\n      jumpi\n      dup1\n      0xc216212a\n      eq\n      tag_77\n      jumpi\n      dup1\n      0xc9ed0708\n      eq\n      tag_79\n      jumpi\n      dup1\n      0xca8e9121\n      eq\n      tag_81\n      jumpi\n      dup1\n      0xd0a2fd79\n      eq\n      tag_83\n      jumpi\n      dup1\n      0xe9e34a16\n      eq\n      tag_85\n      jumpi\n      dup1\n      0xec597e6f\n      eq\n      tag_87\n      jumpi\n      dup1\n      0xef4549eb\n      eq\n      tag_89\n      jumpi\n      0xf5d74d93\n      eq\n      tag_91\n      jumpi\n      0x00\n      dup1\n      revert\n    tag_91:\n      jumpi(tag_95, callvalue)\n      jumpi(tag_95, slt(add(not(0x03), calldatasize), 0x00))\n        /* \"contracts/modules/Storage.sol\":252:282  address public teamDevelopment */\n      0x03\n        /* \"contracts/modules/ContestRoyalty.sol\":90:6393  contract ContestRoyalty is Storage  {... */\n      sload\n      mload(0x40)\n      sub(shl(0xa0, 0x01), 0x01)\n      swap1\n      swap2\n      and\n      dup2\n      mstore\n      0x20\n      swap1\n      return\n    tag_95:\n      0x00\n      dup1\n      revert\n    tag_89:\n      jumpi(tag_95, callvalue)\n      jumpi(tag_95, slt(add(not(0x03), calldatasize), 0x20))\n      mstore(0x00, calldataload(0x04))\n        /* \"contracts/modules/ContestRoyalty.sol\":730:777  mapping(uint => RoundInfo) public monthlyRounds */\n      0x3c\n        /* \"contracts/modules/ContestRoyalty.sol\":90:6393  contract ContestRoyalty is Storage  {... */\n      0x20\n      mstore\n      keccak256(0x00, 0x40)\n      dup1\n      sload\n      tag_101\n      0x01\n        /* \"contracts/modules/ContestRoyalty.sol\":730:777  mapping(uint => RoundInfo) public monthlyRounds */\n      dup4\n      add\n        /* \"contracts/modules/ContestRoyalty.sol\":90:6393  contract ContestRoyalty is Storage  {... */\n      sload\n        /* \"contracts/modules/ContestRoyalty.sol\":730:777  mapping(uint => RoundInfo) public monthlyRounds */\n      swap3\n      0x02\n      dup2\n      add\n        /* \"contracts/modules/ContestRoyalty.sol\":90:6393  contract ContestRoyalty is Storage  {... */\n      sload\n        /* \"contracts/modules/ContestRoyalty.sol\":730:777  mapping(uint => RoundInfo) public monthlyRounds */\n      swap1\n      0x03\n      dup2\n      add\n        /* \"contracts/modules/ContestRoyalty.sol\":90:6393  contract ContestRoyalty is Storage  {... */\n      sload\n      0x04\n        /* \"contracts/modules/ContestRoyalty.sol\":730:777  mapping(uint => RoundInfo) public monthlyRounds */\n      dup3\n      add\n        /* \"contracts/modules/ContestRoyalty.sol\":90:6393  contract ContestRoyalty is Storage  {... */\n      sload\n        /* \"contracts/modules/ContestRoyalty.sol\":730:777  mapping(uint => RoundInfo) public monthlyRounds */\n      swap1\n        /* \"contracts/modules/ContestRoyalty.sol\":90:6393  contract ContestRoyalty is Storage  {... */\n      0xff\n        /* \"contracts/modules/ContestRoyalty.sol\":730:777  mapping(uint => RoundInfo) public monthlyRounds */\n      0x06\n      0x05\n      dup6\n      add\n        /* \"contracts/modules/ContestRoyalty.sol\":90:6393  contract ContestRoyalty is Storage  {... */\n      sload\n        /* \"contracts/modules/ContestRoyalty.sol\":730:777  mapping(uint => RoundInfo) public monthlyRounds */\n      swap5\n      add\n        /* \"contracts/modules/ContestRoyalty.sol\":90:6393  contract ContestRoyalty is Storage  {... */\n      sload\n      and\n      swap4\n      mload(0x40)\n      swap8\n      dup9\n      swap8\n      dup9\n      swap6\n      swap3\n      0xc0\n      swap6\n      swap3\n      swap9\n      swap8\n      swap5\n      swap2\n      swap9\n      0xe0\n      dup9\n      add\n      swap10\n      dup9\n      mstore\n      0x20\n      dup9\n      add\n      mstore\n      0x40\n      dup8\n      add\n      mstore\n      0x60\n      dup7\n      add\n      mstore\n      0x80\n      dup6\n      add\n      mstore\n      0xa0\n      dup5\n      add\n      mstore\n      iszero\n      iszero\n      swap2\n      add\n      mstore\n      jump\n    tag_101:\n      sub\n      swap1\n      return\n    tag_87:\n      jumpi(tag_95, callvalue)\n      jumpi(tag_95, slt(add(not(0x03), calldatasize), 0x00))\n      0x20\n      sload(0x04)\n      mload(0x40)\n      swap1\n      dup2\n      mstore\n      return\n    tag_85:\n      jumpi(tag_95, callvalue)\n      jumpi(tag_95, slt(add(not(0x03), calldatasize), 0x00))\n        /* \"contracts/modules/Storage.sol\":215:245  address public systemMaintance */\n      0x02\n        /* \"contracts/modules/ContestRoyalty.sol\":90:6393  contract ContestRoyalty is Storage  {... */\n      sload\n      mload(0x40)\n      sub(shl(0xa0, 0x01), 0x01)\n      swap1\n      swap2\n      and\n      dup2\n      mstore\n      0x20\n      swap1\n      return\n    tag_83:\n      jumpi(tag_95, callvalue)\n      jumpi(tag_95, slt(add(not(0x03), calldatasize), 0x20))\n      calldataload(0x04)\n      0x08\n        /* \"contracts/modules/Storage.sol\":1489:1553  uint[8] public minLevelForGlbBooster = [4, 5, 6, 7, 8, 9, 10,11] */\n      dup2\n      lt\n      iszero\n      tag_95\n      jumpi\n        /* \"contracts/modules/ContestRoyalty.sol\":90:6393  contract ContestRoyalty is Storage  {... */\n      0x20\n      swap1\n        /* \"contracts/modules/Storage.sol\":1489:1553  uint[8] public minLevelForGlbBooster = [4, 5, 6, 7, 8, 9, 10,11] */\n      0x10\n        /* \"contracts/modules/ContestRoyalty.sol\":90:6393  contract ContestRoyalty is Storage  {... */\n      add\n      sload\n      mload(0x40)\n      swap1\n      dup2\n      mstore\n      return\n    tag_81:\n      jumpi(tag_95, callvalue)\n      jumpi(tag_95, slt(add(not(0x03), calldatasize), 0x00))\n      0x20\n        /* \"contracts/modules/ContestRoyalty.sol\":239:273  uint public currentWeeklyRound = 1 */\n      0x35\n        /* \"contracts/modules/ContestRoyalty.sol\":90:6393  contract ContestRoyalty is Storage  {... */\n      sload\n      mload(0x40)\n      swap1\n      dup2\n      mstore\n      return\n    tag_79:\n      jumpi(tag_95, callvalue)\n      jumpi(tag_95, slt(add(not(0x03), calldatasize), 0x00))\n      0x20\n        /* \"contracts/modules/ContestRoyalty.sol\":280:315  uint public currentMonthlyRound = 1 */\n      0x36\n        /* \"contracts/modules/ContestRoyalty.sol\":90:6393  contract ContestRoyalty is Storage  {... */\n      sload\n      mload(0x40)\n      swap1\n      dup2\n      mstore\n      return\n    tag_77:\n      jumpi(tag_95, callvalue)\n      jumpi(tag_95, slt(add(not(0x03), calldatasize), 0x20))\n      calldataload(0x04)\n        /* \"contracts/modules/Storage.sol\":666:1206  uint[] public packages = [... */\n      0x06\n        /* \"contracts/modules/ContestRoyalty.sol\":90:6393  contract ContestRoyalty is Storage  {... */\n      sload\n        /* \"contracts/modules/Storage.sol\":666:1206  uint[] public packages = [... */\n      dup2\n      lt\n      iszero\n      tag_95\n      jumpi\n      0x06\n        /* \"contracts/modules/ContestRoyalty.sol\":90:6393  contract ContestRoyalty is Storage  {... */\n      sload\n      dup2\n      lt\n      iszero\n      tag_130\n      jumpi\n        /* \"contracts/modules/Storage.sol\":666:1206  uint[] public packages = [... */\n      0x06\n        /* \"contracts/modules/ContestRoyalty.sol\":90:6393  contract ContestRoyalty is Storage  {... */\n      0x00\n      mstore\n      0xf652222313e28459528d920b65115c16c04f3efc82aaedc97be59f3f377c0d3f\n      add\n      sload\n      mload(0x40)\n      swap1\n      dup2\n      mstore\n      0x20\n      swap1\n      return\n    tag_130:\n      mstore(0x00, shl(0xe0, 0x4e487b71))\n      mstore(0x04, 0x32)\n      revert(0x00, 0x24)\n    tag_75:\n      jumpi(tag_95, callvalue)\n      jumpi(tag_95, slt(add(not(0x03), calldatasize), 0x00))\n      0x20\n        /* \"contracts/modules/ContestRoyalty.sol\":322:349  uint public lastWeeklyReset */\n      0x37\n        /* \"contracts/modules/ContestRoyalty.sol\":90:6393  contract ContestRoyalty is Storage  {... */\n      sload\n      mload(0x40)\n      swap1\n      dup2\n      mstore\n      return\n    tag_73:\n      jumpi(tag_95, callvalue)\n      jumpi(tag_95, slt(add(not(0x03), calldatasize), 0x00))\n      0x20\n        /* \"contracts/modules/Storage.sol\":320:342  uint public totalUsers */\n      0x05\n        /* \"contracts/modules/ContestRoyalty.sol\":90:6393  contract ContestRoyalty is Storage  {... */\n      sload\n      mload(0x40)\n      swap1\n      dup2\n      mstore\n      return\n    tag_71:\n      jumpi(tag_95, callvalue)\n      jumpi(tag_95, slt(add(not(0x03), calldatasize), 0x40))\n      tag_144\n      tag_1\n      jump\t// in\n    tag_144:\n      mstore(0x00, calldataload(0x04))\n        /* \"contracts/modules/ContestRoyalty.sol\":815:881  mapping(uint => mapping(address => bool)) public isWeeklyQualified */\n      0x3d\n        /* \"contracts/modules/ContestRoyalty.sol\":90:6393  contract ContestRoyalty is Storage  {... */\n      0x20\n      mstore\n      keccak256(0x00, 0x40)\n        /* \"contracts/modules/ContestRoyalty.sol\":815:881  mapping(uint => mapping(address => bool)) public isWeeklyQualified */\n      swap1\n        /* \"contracts/modules/ContestRoyalty.sol\":90:6393  contract ContestRoyalty is Storage  {... */\n      0x01\n      dup1\n      0xa0\n      shl\n      sub\n      and\n      0x00\n      mstore\n      0x20\n      mstore\n      0x20\n      and(sload(keccak256(0x00, 0x40)), 0xff)\n      mload(0x40)\n      swap1\n      iszero\n      iszero\n      dup2\n      mstore\n      return\n    tag_69:\n      jumpi(tag_95, callvalue)\n      jumpi(tag_95, slt(add(not(0x03), calldatasize), 0x20))\n      calldataload(0x04)\n        /* \"contracts/modules/Storage.sol\":1213:1306  uint[] public poolPackages = [75e18, 300e18, 1200e18, 4800e18, 19200e18, 76800e18, 307200e18] */\n      0x07\n        /* \"contracts/modules/ContestRoyalty.sol\":90:6393  contract ContestRoyalty is Storage  {... */\n      sload\n        /* \"contracts/modules/Storage.sol\":1213:1306  uint[] public poolPackages = [75e18, 300e18, 1200e18, 4800e18, 19200e18, 76800e18, 307200e18] */\n      dup2\n      lt\n      iszero\n      tag_95\n      jumpi\n      0x07\n        /* \"contracts/modules/ContestRoyalty.sol\":90:6393  contract ContestRoyalty is Storage  {... */\n      sload\n      dup2\n      lt\n      iszero\n      tag_130\n      jumpi\n        /* \"contracts/modules/Storage.sol\":1213:1306  uint[] public poolPackages = [75e18, 300e18, 1200e18, 4800e18, 19200e18, 76800e18, 307200e18] */\n      0x07\n        /* \"contracts/modules/ContestRoyalty.sol\":90:6393  contract ContestRoyalty is Storage  {... */\n      0x00\n      mstore\n      0xa66cc928b5edb82af9bd49922954155ab7b0942694bea4ce44661d9a8736c688\n      add\n      sload\n      mload(0x40)\n      swap1\n      dup2\n      mstore\n      0x20\n      swap1\n      return\n    tag_67:\n      jumpi(tag_95, callvalue)\n      jumpi(tag_95, slt(add(not(0x03), calldatasize), 0x20))\n      calldataload(0x04)\n        /* \"contracts/modules/ContestRoyalty.sol\":393:425  address[] public qualifiedWeekly */\n      0x39\n        /* \"contracts/modules/ContestRoyalty.sol\":90:6393  contract ContestRoyalty is Storage  {... */\n      sload\n        /* \"contracts/modules/ContestRoyalty.sol\":393:425  address[] public qualifiedWeekly */\n      dup2\n      lt\n      iszero\n      tag_95\n      jumpi\n      0x39\n        /* \"contracts/modules/ContestRoyalty.sol\":90:6393  contract ContestRoyalty is Storage  {... */\n      sload\n      dup2\n      lt\n      iszero\n      tag_130\n      jumpi\n        /* \"contracts/modules/ContestRoyalty.sol\":393:425  address[] public qualifiedWeekly */\n      0x39\n        /* \"contracts/modules/ContestRoyalty.sol\":90:6393  contract ContestRoyalty is Storage  {... */\n      0x00\n      mstore\n      0xdc16fef70f8d5ddbc01ee3d903d1e69c18a3c7be080eb86a81e0578814ee58d3\n      add\n      sload\n      mload(0x40)\n      sub(shl(0xa0, 0x01), 0x01)\n      swap1\n      swap2\n      and\n      dup2\n      mstore\n      0x20\n      swap1\n      return\n    tag_65:\n      jumpi(tag_95, callvalue)\n      jumpi(tag_95, slt(add(not(0x03), calldatasize), 0x20))\n      calldataload(0x04)\n        /* \"contracts/modules/ContestRoyalty.sol\":432:465  address[] public qualifiedMonthly */\n      0x3a\n        /* \"contracts/modules/ContestRoyalty.sol\":90:6393  contract ContestRoyalty is Storage  {... */\n      sload\n        /* \"contracts/modules/ContestRoyalty.sol\":432:465  address[] public qualifiedMonthly */\n      dup2\n      lt\n      iszero\n      tag_95\n      jumpi\n      0x3a\n        /* \"contracts/modules/ContestRoyalty.sol\":90:6393  contract ContestRoyalty is Storage  {... */\n      sload\n      dup2\n      lt\n      iszero\n      tag_130\n      jumpi\n        /* \"contracts/modules/ContestRoyalty.sol\":432:465  address[] public qualifiedMonthly */\n      0x3a\n        /* \"contracts/modules/ContestRoyalty.sol\":90:6393  contract ContestRoyalty is Storage  {... */\n      0x00\n      mstore\n      0xa2999d817b6757290b50e8ecf3fa939673403dd35c97de392fdb343b4015ce9e\n      add\n      sload\n      mload(0x40)\n      sub(shl(0xa0, 0x01), 0x01)\n      swap1\n      swap2\n      and\n      dup2\n      mstore\n      0x20\n      swap1\n      return\n    tag_63:\n      jumpi(tag_95, callvalue)\n      jumpi(tag_95, slt(add(not(0x03), calldatasize), 0x00))\n      0x20\n        /* \"contracts/modules/ContestRoyalty.sol\":356:384  uint public lastMonthlyReset */\n      0x38\n        /* \"contracts/modules/ContestRoyalty.sol\":90:6393  contract ContestRoyalty is Storage  {... */\n      sload\n      mload(0x40)\n      swap1\n      dup2\n      mstore\n      return\n    tag_61:\n      jumpi(tag_95, callvalue)\n      jumpi(tag_95, slt(add(not(0x03), calldatasize), 0x20))\n      mstore(0x00, calldataload(0x04))\n        /* \"contracts/modules/ContestRoyalty.sol\":677:723  mapping(uint => RoundInfo) public weeklyRounds */\n      0x3b\n        /* \"contracts/modules/ContestRoyalty.sol\":90:6393  contract ContestRoyalty is Storage  {... */\n      0x20\n      mstore\n      keccak256(0x00, 0x40)\n      dup1\n      sload\n      tag_101\n      0x01\n        /* \"contracts/modules/ContestRoyalty.sol\":677:723  mapping(uint => RoundInfo) public weeklyRounds */\n      dup4\n      add\n        /* \"contracts/modules/ContestRoyalty.sol\":90:6393  contract ContestRoyalty is Storage  {... */\n      sload\n        /* \"contracts/modules/ContestRoyalty.sol\":677:723  mapping(uint => RoundInfo) public weeklyRounds */\n      swap3\n      0x02\n      dup2\n      add\n        /* \"contracts/modules/ContestRoyalty.sol\":90:6393  contract ContestRoyalty is Storage  {... */\n      sload\n        /* \"contracts/modules/ContestRoyalty.sol\":677:723  mapping(uint => RoundInfo) public weeklyRounds */\n      swap1\n      0x03\n      dup2\n      add\n        /* \"contracts/modules/ContestRoyalty.sol\":90:6393  contract ContestRoyalty is Storage  {... */\n      sload\n      0x04\n        /* \"contracts/modules/ContestRoyalty.sol\":677:723  mapping(uint => RoundInfo) public weeklyRounds */\n      dup3\n      add\n        /* \"contracts/modules/ContestRoyalty.sol\":90:6393  contract ContestRoyalty is Storage  {... */\n      sload\n        /* \"contracts/modules/ContestRoyalty.sol\":677:723  mapping(uint => RoundInfo) public weeklyRounds */\n      swap1\n        /* \"contracts/modules/ContestRoyalty.sol\":90:6393  contract ContestRoyalty is Storage  {... */\n      0xff\n        /* \"contracts/modules/ContestRoyalty.sol\":677:723  mapping(uint => RoundInfo) public weeklyRounds */\n      0x06\n      0x05\n      dup6\n      add\n        /* \"contracts/modules/ContestRoyalty.sol\":90:6393  contract ContestRoyalty is Storage  {... */\n      sload\n        /* \"contracts/modules/ContestRoyalty.sol\":677:723  mapping(uint => RoundInfo) public weeklyRounds */\n      swap5\n      add\n        /* \"contracts/modules/ContestRoyalty.sol\":90:6393  contract ContestRoyalty is Storage  {... */\n      sload\n      and\n      swap4\n      mload(0x40)\n      swap8\n      dup9\n      swap8\n      dup9\n      swap6\n      swap3\n      0xc0\n      swap6\n      swap3\n      swap9\n      swap8\n      swap5\n      swap2\n      swap9\n      0xe0\n      dup9\n      add\n      swap10\n      dup9\n      mstore\n      0x20\n      dup9\n      add\n      mstore\n      0x40\n      dup8\n      add\n      mstore\n      0x60\n      dup7\n      add\n      mstore\n      0x80\n      dup6\n      add\n      mstore\n      0xa0\n      dup5\n      add\n      mstore\n      iszero\n      iszero\n      swap2\n      add\n      mstore\n      jump\n    tag_59:\n      jumpi(tag_95, callvalue)\n      jumpi(tag_95, slt(add(not(0x03), calldatasize), 0x40))\n      tag_182\n      tag_1\n      jump\t// in\n    tag_182:\n      mstore(0x00, calldataload(0x04))\n        /* \"contracts/modules/ContestRoyalty.sol\":985:1050  mapping(uint => mapping(address => bool)) public hasClaimedWeekly */\n      0x3f\n        /* \"contracts/modules/ContestRoyalty.sol\":90:6393  contract ContestRoyalty is Storage  {... */\n      0x20\n      mstore\n      keccak256(0x00, 0x40)\n        /* \"contracts/modules/ContestRoyalty.sol\":985:1050  mapping(uint => mapping(address => bool)) public hasClaimedWeekly */\n      swap1\n        /* \"contracts/modules/ContestRoyalty.sol\":90:6393  contract ContestRoyalty is Storage  {... */\n      0x01\n      dup1\n      0xa0\n      shl\n      sub\n      and\n      0x00\n      mstore\n      0x20\n      mstore\n      0x20\n      and(sload(keccak256(0x00, 0x40)), 0xff)\n      mload(0x40)\n      swap1\n      iszero\n      iszero\n      dup2\n      mstore\n      return\n    tag_57:\n      jumpi(tag_95, slt(add(not(0x03), calldatasize), 0x00))\n        /* \"contracts/modules/ContestRoyalty.sol\":4798:4814  lastMonthlyReset */\n      0x38\n        /* \"contracts/modules/ContestRoyalty.sol\":90:6393  contract ContestRoyalty is Storage  {... */\n      sload\n        /* \"contracts/modules/ContestRoyalty.sol\":223:230  30 days */\n      0x278d00\n        /* \"contracts/modules/ContestRoyalty.sol\":90:6393  contract ContestRoyalty is Storage  {... */\n      dup2\n      add\n      dup1\n      dup3\n      gt\n      tag_185\n      jumpi\n        /* \"contracts/modules/ContestRoyalty.sol\":4779:4794  block.timestamp */\n      timestamp\n        /* \"contracts/modules/ContestRoyalty.sol\":4779:4831  block.timestamp >= lastMonthlyReset + MONTH_DURATION */\n      lt\n      iszero\n        /* \"contracts/modules/ContestRoyalty.sol\":4775:4878  if (block.timestamp >= lastMonthlyReset + MONTH_DURATION) {... */\n      tag_187\n      jumpi\n        /* \"contracts/modules/ContestRoyalty.sol\":90:6393  contract ContestRoyalty is Storage  {... */\n    tag_188:\n      pop\n        /* \"contracts/modules/ContestRoyalty.sol\":2145:2164  currentMonthlyRound */\n      0x36\n        /* \"contracts/modules/ContestRoyalty.sol\":90:6393  contract ContestRoyalty is Storage  {... */\n      sload\n      0x00\n      mstore\n        /* \"contracts/modules/ContestRoyalty.sol\":2126:2144  isMonthlyQualified */\n      0x3e\n        /* \"contracts/modules/ContestRoyalty.sol\":90:6393  contract ContestRoyalty is Storage  {... */\n      0x20\n      mstore\n      keccak256(0x00, 0x40)\n      0x01\n      dup1\n      0xa0\n      shl\n      sub\n        /* \"contracts/modules/ContestRoyalty.sol\":2166:2176  msg.sender */\n      caller\n        /* \"contracts/modules/ContestRoyalty.sol\":90:6393  contract ContestRoyalty is Storage  {... */\n      and\n      0x00\n      mstore\n      0x20\n      mstore\n        /* \"contracts/modules/ContestRoyalty.sol\":2117:2199  require(!isMonthlyQualified[currentMonthlyRound][msg.sender], \"Already qualified\") */\n      tag_189\n        /* \"contracts/modules/ContestRoyalty.sol\":90:6393  contract ContestRoyalty is Storage  {... */\n      and(sload(keccak256(0x00, 0x40)), 0xff)\n        /* \"contracts/modules/ContestRoyalty.sol\":2125:2177  !isMonthlyQualified[currentMonthlyRound][msg.sender] */\n      iszero\n        /* \"contracts/modules/ContestRoyalty.sol\":2117:2199  require(!isMonthlyQualified[currentMonthlyRound][msg.sender], \"Already qualified\") */\n      tag_12\n      jump\t// in\n    tag_189:\n        /* \"contracts/modules/ContestRoyalty.sol\":2210:2226  qualifiedMonthly */\n      0x3a\n        /* \"contracts/modules/ContestRoyalty.sol\":90:6393  contract ContestRoyalty is Storage  {... */\n      sload\n      shl(0x40, 0x01)\n      dup2\n      lt\n      iszero\n      tag_190\n      jumpi\n      dup1\n      0x01\n      tag_192\n      swap3\n      add\n        /* \"contracts/modules/ContestRoyalty.sol\":2210:2226  qualifiedMonthly */\n      0x3a\n        /* \"contracts/modules/ContestRoyalty.sol\":90:6393  contract ContestRoyalty is Storage  {... */\n      sstore\n        /* \"contracts/modules/ContestRoyalty.sol\":2210:2226  qualifiedMonthly */\n      0x3a\n        /* \"contracts/modules/ContestRoyalty.sol\":90:6393  contract ContestRoyalty is Storage  {... */\n      tag_2\n      jump\t// in\n    tag_192:\n      dup2\n      sload\n      swap1\n      0x03\n      shl\n        /* \"contracts/modules/ContestRoyalty.sol\":2166:2176  msg.sender */\n      swap1\n      caller\n        /* \"contracts/modules/ContestRoyalty.sol\":90:6393  contract ContestRoyalty is Storage  {... */\n      dup3\n      shl\n      swap2\n      0x01\n      dup1\n      0xa0\n      shl\n      sub\n      swap1\n      shl\n      not\n      and\n      or\n      swap1\n      sstore\n        /* \"contracts/modules/ContestRoyalty.sol\":2145:2164  currentMonthlyRound */\n      0x36\n        /* \"contracts/modules/ContestRoyalty.sol\":90:6393  contract ContestRoyalty is Storage  {... */\n      sload\n      0x00\n      mstore\n        /* \"contracts/modules/ContestRoyalty.sol\":2126:2144  isMonthlyQualified */\n      0x3e\n        /* \"contracts/modules/ContestRoyalty.sol\":90:6393  contract ContestRoyalty is Storage  {... */\n      0x20\n      mstore\n      keccak256(0x00, 0x40)\n      0x01\n      dup1\n      0xa0\n      shl\n      sub\n        /* \"contracts/modules/ContestRoyalty.sol\":2166:2176  msg.sender */\n      caller\n        /* \"contracts/modules/ContestRoyalty.sol\":90:6393  contract ContestRoyalty is Storage  {... */\n      and\n      0x00\n      mstore\n      0x20\n      mstore\n      keccak256(0x00, 0x40)\n      0x01\n      not(0xff)\n      dup3\n      sload\n      and\n      or\n      swap1\n      sstore\n        /* \"contracts/modules/ContestRoyalty.sol\":2145:2164  currentMonthlyRound */\n      0x36\n        /* \"contracts/modules/ContestRoyalty.sol\":90:6393  contract ContestRoyalty is Storage  {... */\n      sload\n        /* \"contracts/modules/ContestRoyalty.sol\":2328:2385  UserQualified(msg.sender, \"Monthly\", currentMonthlyRound) */\n      0x577158c2e8120577a90c3a1ee00ad3d7acbadba003577f10f7ba8ae958c5af42\n        /* \"contracts/modules/ContestRoyalty.sol\":90:6393  contract ContestRoyalty is Storage  {... */\n      mload(0x40)\n      0x40\n      dup2\n      mstore\n      tag_193\n      0x40\n      dup3\n      add\n      0x40\n      swap1\n      0x07\n      dup2\n      mstore\n      shl(0xc8, 0x4d6f6e74686c79)\n      0x20\n      dup3\n      add\n      mstore\n      add\n      swap1\n      jump\n    tag_193:\n      swap3\n      0x20\n      dup3\n      add\n      mstore\n        /* \"contracts/modules/ContestRoyalty.sol\":2166:2176  msg.sender */\n      dup1\n      caller\n        /* \"contracts/modules/ContestRoyalty.sol\":2328:2385  UserQualified(msg.sender, \"Monthly\", currentMonthlyRound) */\n      swap4\n      sub\n      swap1\n      log2\n        /* \"contracts/modules/ContestRoyalty.sol\":90:6393  contract ContestRoyalty is Storage  {... */\n      stop\n    tag_190:\n      mstore(0x00, shl(0xe0, 0x4e487b71))\n      mstore(0x04, 0x41)\n      revert(0x00, 0x24)\n        /* \"contracts/modules/ContestRoyalty.sol\":4775:4878  if (block.timestamp >= lastMonthlyReset + MONTH_DURATION) {... */\n    tag_187:\n        /* \"contracts/modules/ContestRoyalty.sol\":5685:5701  qualifiedMonthly */\n      0x3a\n        /* \"contracts/modules/ContestRoyalty.sol\":90:6393  contract ContestRoyalty is Storage  {... */\n      sload\n        /* \"contracts/modules/ContestRoyalty.sol\":6221:6242  currentMonthlyRound++ */\n      tag_194\n      swap2\n        /* \"contracts/modules/ContestRoyalty.sol\":5732:5753  address(this).balance */\n      selfbalance\n        /* \"contracts/modules/ContestRoyalty.sol\":90:6393  contract ContestRoyalty is Storage  {... */\n      0x01\n      shr\n      swap2\n        /* \"contracts/modules/ContestRoyalty.sol\":6150:6208  RoundEnded(\"Monthly\", currentMonthlyRound, users, perUser) */\n      0xb486e0c214f6d65e1072cc27c74ada7881ca4cc7d3b577a0c141f48ba0fbfbf5\n      swap2\n        /* \"contracts/modules/ContestRoyalty.sol\":90:6393  contract ContestRoyalty is Storage  {... */\n      tag_195\n      swap1\n        /* \"contracts/modules/ContestRoyalty.sol\":5783:5792  users > 0 */\n      dup3\n      iszero\n      tag_196\n      jumpi\n        /* \"contracts/modules/ContestRoyalty.sol\":90:6393  contract ContestRoyalty is Storage  {... */\n      0x06\n        /* \"contracts/modules/ContestRoyalty.sol\":5795:5808  total / users */\n      tag_198\n      dup5\n      dup8\n      tag_13\n      jump\t// in\n    tag_198:\n        /* \"contracts/modules/ContestRoyalty.sol\":5783:5812  users > 0 ? total / users : 0 */\n      swap6\n    tag_199:\n        /* \"contracts/modules/ContestRoyalty.sol\":5891:5910  currentMonthlyRound */\n      0x36\n        /* \"contracts/modules/ContestRoyalty.sol\":90:6393  contract ContestRoyalty is Storage  {... */\n      sload\n      swap1\n      tag_200\n      tag_4\n      jump\t// in\n    tag_200:\n      swap4\n      dup3\n      dup6\n      mstore\n        /* \"contracts/modules/ContestRoyalty.sol\":5862:6132  RoundInfo({... */\n      0x20\n      dup6\n      add\n        /* \"contracts/modules/ContestRoyalty.sol\":90:6393  contract ContestRoyalty is Storage  {... */\n      swap2\n      dup8\n      dup4\n      mstore\n      0x40\n        /* \"contracts/modules/ContestRoyalty.sol\":5862:6132  RoundInfo({... */\n      dup7\n      add\n        /* \"contracts/modules/ContestRoyalty.sol\":90:6393  contract ContestRoyalty is Storage  {... */\n      swap1\n      dup2\n      mstore\n        /* \"contracts/modules/ContestRoyalty.sol\":5862:6132  RoundInfo({... */\n      0x60\n      dup7\n      add\n        /* \"contracts/modules/ContestRoyalty.sol\":90:6393  contract ContestRoyalty is Storage  {... */\n      swap1\n      dup11\n      dup3\n      mstore\n        /* \"contracts/modules/ContestRoyalty.sol\":5862:6132  RoundInfo({... */\n      0x80\n      dup8\n      add\n        /* \"contracts/modules/ContestRoyalty.sol\":90:6393  contract ContestRoyalty is Storage  {... */\n      swap3\n      dup4\n      mstore\n        /* \"contracts/modules/ContestRoyalty.sol\":5862:6132  RoundInfo({... */\n      0xa0\n      dup8\n      add\n        /* \"contracts/modules/ContestRoyalty.sol\":4779:4794  block.timestamp */\n      swap4\n      timestamp\n        /* \"contracts/modules/ContestRoyalty.sol\":90:6393  contract ContestRoyalty is Storage  {... */\n      dup6\n      mstore\n        /* \"contracts/modules/ContestRoyalty.sol\":5862:6132  RoundInfo({... */\n      0xc0\n      dup9\n      add\n        /* \"contracts/modules/ContestRoyalty.sol\":90:6393  contract ContestRoyalty is Storage  {... */\n      swap6\n      0x01\n      dup8\n      mstore\n      0x00\n      mstore\n        /* \"contracts/modules/ContestRoyalty.sol\":5825:5838  monthlyRounds */\n      0x3c\n        /* \"contracts/modules/ContestRoyalty.sol\":5862:6132  RoundInfo({... */\n      0x20\n        /* \"contracts/modules/ContestRoyalty.sol\":90:6393  contract ContestRoyalty is Storage  {... */\n      mstore\n      keccak256(0x00, 0x40)\n      swap8\n      mload\n      dup9\n      sstore\n      mload\n      0x01\n      dup9\n      add\n      sstore\n      mload\n        /* \"contracts/modules/ContestRoyalty.sol\":5756:5757  2 */\n      0x02\n        /* \"contracts/modules/ContestRoyalty.sol\":90:6393  contract ContestRoyalty is Storage  {... */\n      dup8\n      add\n      sstore\n      mload\n      0x03\n      dup7\n      add\n      sstore\n      mload\n      0x04\n      dup6\n      add\n      sstore\n      mload\n      0x05\n      dup5\n      add\n      sstore\n      mload\n      iszero\n      iszero\n      swap2\n      add\n      swap1\n      0xff\n      dup1\n      not\n      dup4\n      sload\n      and\n      swap2\n      iszero\n      iszero\n      and\n      or\n      swap1\n      sstore\n      jump\n    tag_195:\n        /* \"contracts/modules/ContestRoyalty.sol\":5891:5910  currentMonthlyRound */\n      0x36\n        /* \"contracts/modules/ContestRoyalty.sol\":90:6393  contract ContestRoyalty is Storage  {... */\n      sload\n      swap3\n      mload(0x40)\n      swap2\n      dup3\n      swap2\n        /* \"contracts/modules/ContestRoyalty.sol\":5862:6132  RoundInfo({... */\n      0x80\n        /* \"contracts/modules/ContestRoyalty.sol\":90:6393  contract ContestRoyalty is Storage  {... */\n      dup4\n      mstore\n      tag_201\n        /* \"contracts/modules/ContestRoyalty.sol\":5862:6132  RoundInfo({... */\n      0x80\n        /* \"contracts/modules/ContestRoyalty.sol\":90:6393  contract ContestRoyalty is Storage  {... */\n      dup5\n      add\n      0x40\n      swap1\n      0x07\n      dup2\n      mstore\n      shl(0xc8, 0x4d6f6e74686c79)\n      0x20\n      dup3\n      add\n      mstore\n      add\n      swap1\n      jump\n    tag_201:\n      swap2\n      dup7\n        /* \"contracts/modules/ContestRoyalty.sol\":5862:6132  RoundInfo({... */\n      0x20\n        /* \"contracts/modules/ContestRoyalty.sol\":90:6393  contract ContestRoyalty is Storage  {... */\n      dup6\n      add\n      mstore\n      0x40\n      dup5\n      add\n      mstore\n        /* \"contracts/modules/ContestRoyalty.sol\":5862:6132  RoundInfo({... */\n      0x60\n        /* \"contracts/modules/ContestRoyalty.sol\":90:6393  contract ContestRoyalty is Storage  {... */\n      dup4\n      add\n      mstore\n        /* \"contracts/modules/ContestRoyalty.sol\":6150:6208  RoundEnded(\"Monthly\", currentMonthlyRound, users, perUser) */\n      sub\n      swap1\n      log1\n        /* \"contracts/modules/ContestRoyalty.sol\":6221:6242  currentMonthlyRound++ */\n      tag_14\n      jump\t// in\n    tag_194:\n        /* \"contracts/modules/ContestRoyalty.sol\":5891:5910  currentMonthlyRound */\n      0x36\n        /* \"contracts/modules/ContestRoyalty.sol\":90:6393  contract ContestRoyalty is Storage  {... */\n      sstore\n        /* \"contracts/modules/ContestRoyalty.sol\":4779:4794  block.timestamp */\n      timestamp\n        /* \"contracts/modules/ContestRoyalty.sol\":4798:4814  lastMonthlyReset */\n      0x38\n        /* \"contracts/modules/ContestRoyalty.sol\":90:6393  contract ContestRoyalty is Storage  {... */\n      sstore\n        /* \"contracts/modules/ContestRoyalty.sol\":5685:5701  qualifiedMonthly */\n      0x3a\n        /* \"contracts/modules/ContestRoyalty.sol\":90:6393  contract ContestRoyalty is Storage  {... */\n      sload\n      0x00\n        /* \"contracts/modules/ContestRoyalty.sol\":5685:5701  qualifiedMonthly */\n      0x3a\n        /* \"contracts/modules/ContestRoyalty.sol\":90:6393  contract ContestRoyalty is Storage  {... */\n      sstore\n      dup1\n      iszero\n        /* \"contracts/modules/ContestRoyalty.sol\":4775:4878  if (block.timestamp >= lastMonthlyReset + MONTH_DURATION) {... */\n      tag_188\n        /* \"contracts/modules/ContestRoyalty.sol\":90:6393  contract ContestRoyalty is Storage  {... */\n      jumpi\n        /* \"contracts/modules/ContestRoyalty.sol\":5685:5701  qualifiedMonthly */\n      0x3a\n        /* \"contracts/modules/ContestRoyalty.sol\":90:6393  contract ContestRoyalty is Storage  {... */\n      0x00\n      mstore\n      0xa2999d817b6757290b50e8ecf3fa939673403dd35c97de392fdb343b4015ce9e\n      swap1\n      dup2\n      add\n      swap1\n    tag_204:\n      dup2\n      dup2\n      lt\n      tag_205\n      jumpi\n      pop\n        /* \"contracts/modules/ContestRoyalty.sol\":4775:4878  if (block.timestamp >= lastMonthlyReset + MONTH_DURATION) {... */\n      jump(tag_188)\n        /* \"contracts/modules/ContestRoyalty.sol\":90:6393  contract ContestRoyalty is Storage  {... */\n    tag_205:\n      0x00\n      dup2\n      sstore\n      0x01\n      add\n      jump(tag_204)\n        /* \"contracts/modules/ContestRoyalty.sol\":5783:5812  users > 0 ? total / users : 0 */\n    tag_196:\n        /* \"contracts/modules/ContestRoyalty.sol\":90:6393  contract ContestRoyalty is Storage  {... */\n      0x06\n      0x00\n        /* \"contracts/modules/ContestRoyalty.sol\":5783:5812  users > 0 ? total / users : 0 */\n      swap6\n      jump(tag_199)\n        /* \"contracts/modules/ContestRoyalty.sol\":90:6393  contract ContestRoyalty is Storage  {... */\n    tag_185:\n      mstore(0x00, shl(0xe0, 0x4e487b71))\n      mstore(0x04, 0x11)\n      revert(0x00, 0x24)\n    tag_55:\n      jumpi(tag_95, callvalue)\n      jumpi(tag_95, slt(add(not(0x03), calldatasize), 0x60))\n      calldataload(0x04)\n      sub(shl(0xa0, 0x01), 0x01)\n      dup2\n      and\n      dup2\n      sub\n      tag_95\n      jumpi\n      calldataload(0x24)\n      calldataload(0x44)\n      swap2\n      dup3\n      iszero\n      iszero\n      dup4\n      sub\n      tag_95\n      jumpi\n      0x80\n      swap3\n        /* \"contracts/modules/ContestRoyalty.sol\":3957:4512  if (isWeekly) {... */\n      iszero\n      tag_215\n      jumpi\n        /* \"contracts/modules/ContestRoyalty.sol\":90:6393  contract ContestRoyalty is Storage  {... */\n      dup2\n      0x00\n      mstore\n        /* \"contracts/modules/ContestRoyalty.sol\":4007:4019  weeklyRounds */\n      0x3b\n        /* \"contracts/modules/ContestRoyalty.sol\":90:6393  contract ContestRoyalty is Storage  {... */\n      0x20\n      mstore\n      keccak256(0x00, 0x40)\n      swap1\n      tag_217\n      tag_4\n      jump\t// in\n    tag_217:\n      swap1\n      dup3\n      sload\n      dup3\n      mstore\n      0x01\n      dup4\n      add\n      sload\n      0x20\n      dup4\n      add\n      mstore\n      0x02\n      dup4\n      add\n      sload\n      0x40\n      dup4\n      add\n      mstore\n      0xc0\n      0xff\n      0x06\n      0x03\n      dup7\n      add\n      sload\n      swap6\n      0x60\n      dup7\n      add\n      swap7\n      dup8\n      mstore\n      0x04\n      dup2\n      add\n      sload\n      dup10\n      dup8\n      add\n      mstore\n      0x05\n      dup2\n      add\n      sload\n      0xa0\n      dup8\n      add\n      mstore\n      add\n      sload\n      and\n      swap3\n      add\n      swap2\n      iszero\n      iszero\n      dup3\n      mstore\n      dup4\n      0x00\n      mstore\n        /* \"contracts/modules/ContestRoyalty.sol\":4055:4072  isWeeklyQualified */\n      0x3d\n        /* \"contracts/modules/ContestRoyalty.sol\":90:6393  contract ContestRoyalty is Storage  {... */\n      0x20\n      mstore\n      keccak256(0x00, 0x40)\n      0x01\n      dup1\n      0xa0\n      shl\n      sub\n      dup3\n      and\n      0x00\n      mstore\n      0x20\n      mstore\n      and(sload(keccak256(0x00, 0x40)), 0xff)\n      swap4\n      0x00\n      mstore\n        /* \"contracts/modules/ContestRoyalty.sol\":4112:4128  hasClaimedWeekly */\n      0x3f\n        /* \"contracts/modules/ContestRoyalty.sol\":90:6393  contract ContestRoyalty is Storage  {... */\n      0x20\n      mstore\n      keccak256(0x00, 0x40)\n        /* \"contracts/modules/ContestRoyalty.sol\":4112:4143  hasClaimedWeekly[roundId][user] */\n      swap1\n        /* \"contracts/modules/ContestRoyalty.sol\":90:6393  contract ContestRoyalty is Storage  {... */\n      0x01\n      dup1\n      0xa0\n      shl\n      sub\n      and\n      0x00\n      mstore\n      0x20\n      mstore\n      and(sload(keccak256(0x00, 0x40)), 0xff)\n      swap2\n      mload\n      swap1\n      mload\n      iszero\n      iszero\n        /* \"contracts/modules/ContestRoyalty.sol\":3957:4512  if (isWeekly) {... */\n      swap2\n    tag_218:\n        /* \"contracts/modules/ContestRoyalty.sol\":90:6393  contract ContestRoyalty is Storage  {... */\n      mload(0x40)\n      swap4\n      iszero\n      iszero\n      dup5\n      mstore\n      iszero\n      iszero\n      0x20\n      dup5\n      add\n      mstore\n      0x40\n      dup4\n      add\n      mstore\n      iszero\n      iszero\n      0x60\n      dup3\n      add\n      mstore\n      return\n        /* \"contracts/modules/ContestRoyalty.sol\":3957:4512  if (isWeekly) {... */\n    tag_215:\n        /* \"contracts/modules/ContestRoyalty.sol\":90:6393  contract ContestRoyalty is Storage  {... */\n      dup2\n      0x00\n      mstore\n        /* \"contracts/modules/ContestRoyalty.sol\":4279:4292  monthlyRounds */\n      0x3c\n        /* \"contracts/modules/ContestRoyalty.sol\":90:6393  contract ContestRoyalty is Storage  {... */\n      0x20\n      mstore\n      keccak256(0x00, 0x40)\n      swap1\n      tag_219\n      tag_4\n      jump\t// in\n    tag_219:\n      swap1\n      dup3\n      sload\n      dup3\n      mstore\n      0x01\n      dup4\n      add\n      sload\n      0x20\n      dup4\n      add\n      mstore\n      0x02\n      dup4\n      add\n      sload\n      0x40\n      dup4\n      add\n      mstore\n      0xc0\n      0xff\n      0x06\n      0x03\n      dup7\n      add\n      sload\n      swap6\n      0x60\n      dup7\n      add\n      swap7\n      dup8\n      mstore\n      0x04\n      dup2\n      add\n      sload\n      dup10\n      dup8\n      add\n      mstore\n      0x05\n      dup2\n      add\n      sload\n      0xa0\n      dup8\n      add\n      mstore\n      add\n      sload\n      and\n      swap3\n      add\n      swap2\n      iszero\n      iszero\n      dup3\n      mstore\n      dup4\n      0x00\n      mstore\n        /* \"contracts/modules/ContestRoyalty.sol\":4328:4346  isMonthlyQualified */\n      0x3e\n        /* \"contracts/modules/ContestRoyalty.sol\":90:6393  contract ContestRoyalty is Storage  {... */\n      0x20\n      mstore\n      keccak256(0x00, 0x40)\n      0x01\n      dup1\n      0xa0\n      shl\n      sub\n      dup3\n      and\n      0x00\n      mstore\n      0x20\n      mstore\n      and(sload(keccak256(0x00, 0x40)), 0xff)\n      swap4\n      0x00\n      mstore\n      mstore(0x20, 0x40)\n      keccak256(0x00, 0x40)\n        /* \"contracts/modules/ContestRoyalty.sol\":4386:4418  hasClaimedMonthly[roundId][user] */\n      swap1\n        /* \"contracts/modules/ContestRoyalty.sol\":90:6393  contract ContestRoyalty is Storage  {... */\n      0x01\n      dup1\n      0xa0\n      shl\n      sub\n      and\n      0x00\n      mstore\n      0x20\n      mstore\n      and(sload(keccak256(0x00, 0x40)), 0xff)\n      swap2\n      mload\n      swap1\n      mload\n      iszero\n      iszero\n        /* \"contracts/modules/ContestRoyalty.sol\":3957:4512  if (isWeekly) {... */\n      swap2\n      jump(tag_218)\n        /* \"contracts/modules/ContestRoyalty.sol\":90:6393  contract ContestRoyalty is Storage  {... */\n    tag_53:\n      jumpi(tag_95, callvalue)\n      jumpi(tag_95, slt(add(not(0x03), calldatasize), 0x20))\n      calldataload(0x04)\n      0x08\n        /* \"contracts/modules/Storage.sol\":1560:1621  uint[8] public minPoolForGlbBooster = [0, 1, 1, 1, 1, 1, 1,1] */\n      dup2\n      lt\n      iszero\n      tag_95\n      jumpi\n        /* \"contracts/modules/ContestRoyalty.sol\":90:6393  contract ContestRoyalty is Storage  {... */\n      0x20\n      swap1\n        /* \"contracts/modules/Storage.sol\":1560:1621  uint[8] public minPoolForGlbBooster = [0, 1, 1, 1, 1, 1, 1,1] */\n      0x18\n        /* \"contracts/modules/ContestRoyalty.sol\":90:6393  contract ContestRoyalty is Storage  {... */\n      add\n      sload\n      mload(0x40)\n      swap1\n      dup2\n      mstore\n      return\n    tag_51:\n      jumpi(tag_95, callvalue)\n      jumpi(tag_95, slt(add(not(0x03), calldatasize), 0x00))\n      sload(0x01)\n      mload(0x40)\n      sub(shl(0xa0, 0x01), 0x01)\n      swap1\n      swap2\n      and\n      dup2\n      mstore\n      0x20\n      swap1\n      return\n    tag_49:\n      jumpi(tag_95, callvalue)\n      jumpi(tag_95, slt(add(not(0x03), calldatasize), 0x00))\n      0x20\n        /* \"contracts/modules/Storage.sol\":5448:5482  uint256 public communityAccPerUser */\n      0x31\n        /* \"contracts/modules/ContestRoyalty.sol\":90:6393  contract ContestRoyalty is Storage  {... */\n      sload\n      mload(0x40)\n      swap1\n      dup2\n      mstore\n      return\n    tag_47:\n      jumpi(tag_95, callvalue)\n      jumpi(tag_95, slt(add(not(0x03), calldatasize), 0x00))\n      0x20\n      mload(0x40)\n        /* \"contracts/modules/ContestRoyalty.sol\":172:178  7 days */\n      0x093a80\n        /* \"contracts/modules/ContestRoyalty.sol\":90:6393  contract ContestRoyalty is Storage  {... */\n      dup2\n      mstore\n      return\n    tag_45:\n      jumpi(tag_95, slt(add(not(0x03), calldatasize), 0x00))\n        /* \"contracts/modules/ContestRoyalty.sol\":4633:4648  lastWeeklyReset */\n      0x37\n        /* \"contracts/modules/ContestRoyalty.sol\":90:6393  contract ContestRoyalty is Storage  {... */\n      sload\n        /* \"contracts/modules/ContestRoyalty.sol\":172:178  7 days */\n      0x093a80\n        /* \"contracts/modules/ContestRoyalty.sol\":90:6393  contract ContestRoyalty is Storage  {... */\n      dup2\n      add\n      dup1\n      dup3\n      gt\n      tag_185\n      jumpi\n        /* \"contracts/modules/ContestRoyalty.sol\":4614:4629  block.timestamp */\n      timestamp\n        /* \"contracts/modules/ContestRoyalty.sol\":4614:4664  block.timestamp >= lastWeeklyReset + WEEK_DURATION */\n      lt\n      iszero\n        /* \"contracts/modules/ContestRoyalty.sol\":4610:4710  if (block.timestamp >= lastWeeklyReset + WEEK_DURATION) {... */\n      tag_242\n      jumpi\n        /* \"contracts/modules/ContestRoyalty.sol\":90:6393  contract ContestRoyalty is Storage  {... */\n    tag_243:\n      pop\n        /* \"contracts/modules/ContestRoyalty.sol\":1782:1800  currentWeeklyRound */\n      0x35\n        /* \"contracts/modules/ContestRoyalty.sol\":90:6393  contract ContestRoyalty is Storage  {... */\n      sload\n      0x00\n      mstore\n        /* \"contracts/modules/ContestRoyalty.sol\":1764:1781  isWeeklyQualified */\n      0x3d\n        /* \"contracts/modules/ContestRoyalty.sol\":90:6393  contract ContestRoyalty is Storage  {... */\n      0x20\n      mstore\n      keccak256(0x00, 0x40)\n      0x01\n      dup1\n      0xa0\n      shl\n      sub\n        /* \"contracts/modules/ContestRoyalty.sol\":1802:1812  msg.sender */\n      caller\n        /* \"contracts/modules/ContestRoyalty.sol\":90:6393  contract ContestRoyalty is Storage  {... */\n      and\n      0x00\n      mstore\n      0x20\n      mstore\n        /* \"contracts/modules/ContestRoyalty.sol\":1755:1835  require(!isWeeklyQualified[currentWeeklyRound][msg.sender], \"Already qualified\") */\n      tag_244\n        /* \"contracts/modules/ContestRoyalty.sol\":90:6393  contract ContestRoyalty is Storage  {... */\n      and(sload(keccak256(0x00, 0x40)), 0xff)\n        /* \"contracts/modules/ContestRoyalty.sol\":1763:1813  !isWeeklyQualified[currentWeeklyRound][msg.sender] */\n      iszero\n        /* \"contracts/modules/ContestRoyalty.sol\":1755:1835  require(!isWeeklyQualified[currentWeeklyRound][msg.sender], \"Already qualified\") */\n      tag_12\n      jump\t// in\n    tag_244:\n        /* \"contracts/modules/ContestRoyalty.sol\":1846:1861  qualifiedWeekly */\n      0x39\n        /* \"contracts/modules/ContestRoyalty.sol\":90:6393  contract ContestRoyalty is Storage  {... */\n      sload\n      shl(0x40, 0x01)\n      dup2\n      lt\n      iszero\n      tag_190\n      jumpi\n      dup1\n      0x01\n      tag_247\n      swap3\n      add\n        /* \"contracts/modules/ContestRoyalty.sol\":1846:1861  qualifiedWeekly */\n      0x39\n        /* \"contracts/modules/ContestRoyalty.sol\":90:6393  contract ContestRoyalty is Storage  {... */\n      sstore\n        /* \"contracts/modules/ContestRoyalty.sol\":1846:1861  qualifiedWeekly */\n      0x39\n        /* \"contracts/modules/ContestRoyalty.sol\":90:6393  contract ContestRoyalty is Storage  {... */\n      tag_2\n      jump\t// in\n    tag_247:\n      dup2\n      sload\n      swap1\n      0x03\n      shl\n        /* \"contracts/modules/ContestRoyalty.sol\":1802:1812  msg.sender */\n      swap1\n      caller\n        /* \"contracts/modules/ContestRoyalty.sol\":90:6393  contract ContestRoyalty is Storage  {... */\n      dup3\n      shl\n      swap2\n      0x01\n      dup1\n      0xa0\n      shl\n      sub\n      swap1\n      shl\n      not\n      and\n      or\n      swap1\n      sstore\n        /* \"contracts/modules/ContestRoyalty.sol\":1782:1800  currentWeeklyRound */\n      0x35\n        /* \"contracts/modules/ContestRoyalty.sol\":90:6393  contract ContestRoyalty is Storage  {... */\n      sload\n      0x00\n      mstore\n        /* \"contracts/modules/ContestRoyalty.sol\":1764:1781  isWeeklyQualified */\n      0x3d\n        /* \"contracts/modules/ContestRoyalty.sol\":90:6393  contract ContestRoyalty is Storage  {... */\n      0x20\n      mstore\n      keccak256(0x00, 0x40)\n      0x01\n      dup1\n      0xa0\n      shl\n      sub\n        /* \"contracts/modules/ContestRoyalty.sol\":1802:1812  msg.sender */\n      caller\n        /* \"contracts/modules/ContestRoyalty.sol\":90:6393  contract ContestRoyalty is Storage  {... */\n      and\n      0x00\n      mstore\n      0x20\n      mstore\n      keccak256(0x00, 0x40)\n      0x01\n      not(0xff)\n      dup3\n      sload\n      and\n      or\n      swap1\n      sstore\n        /* \"contracts/modules/ContestRoyalty.sol\":1782:1800  currentWeeklyRound */\n      0x35\n        /* \"contracts/modules/ContestRoyalty.sol\":90:6393  contract ContestRoyalty is Storage  {... */\n      sload\n        /* \"contracts/modules/ContestRoyalty.sol\":1961:2016  UserQualified(msg.sender, \"Weekly\", currentWeeklyRound) */\n      0x577158c2e8120577a90c3a1ee00ad3d7acbadba003577f10f7ba8ae958c5af42\n        /* \"contracts/modules/ContestRoyalty.sol\":90:6393  contract ContestRoyalty is Storage  {... */\n      mload(0x40)\n      0x40\n      dup2\n      mstore\n      tag_193\n      0x40\n      dup3\n      add\n      0x40\n      swap1\n      0x06\n      dup2\n      mstore\n      shl(0xd0, 0x5765656b6c79)\n      0x20\n      dup3\n      add\n      mstore\n      add\n      swap1\n      jump\n        /* \"contracts/modules/ContestRoyalty.sol\":4610:4710  if (block.timestamp >= lastWeeklyReset + WEEK_DURATION) {... */\n    tag_242:\n        /* \"contracts/modules/ContestRoyalty.sol\":4982:4997  qualifiedWeekly */\n      0x39\n        /* \"contracts/modules/ContestRoyalty.sol\":90:6393  contract ContestRoyalty is Storage  {... */\n      sload\n        /* \"contracts/modules/ContestRoyalty.sol\":5511:5531  currentWeeklyRound++ */\n      tag_249\n      swap2\n        /* \"contracts/modules/ContestRoyalty.sol\":5028:5049  address(this).balance */\n      selfbalance\n        /* \"contracts/modules/ContestRoyalty.sol\":90:6393  contract ContestRoyalty is Storage  {... */\n      0x01\n      shr\n      swap2\n        /* \"contracts/modules/ContestRoyalty.sol\":5442:5498  RoundEnded(\"Weekly\", currentWeeklyRound, users, perUser) */\n      0xb486e0c214f6d65e1072cc27c74ada7881ca4cc7d3b577a0c141f48ba0fbfbf5\n      swap2\n        /* \"contracts/modules/ContestRoyalty.sol\":90:6393  contract ContestRoyalty is Storage  {... */\n      tag_250\n      swap1\n        /* \"contracts/modules/ContestRoyalty.sol\":5079:5088  users > 0 */\n      dup3\n      iszero\n      tag_251\n      jumpi\n        /* \"contracts/modules/ContestRoyalty.sol\":90:6393  contract ContestRoyalty is Storage  {... */\n      0x06\n        /* \"contracts/modules/ContestRoyalty.sol\":5091:5104  total / users */\n      tag_253\n      dup5\n      dup8\n      tag_13\n      jump\t// in\n    tag_253:\n        /* \"contracts/modules/ContestRoyalty.sol\":5079:5108  users > 0 ? total / users : 0 */\n      swap6\n    tag_254:\n        /* \"contracts/modules/ContestRoyalty.sol\":5185:5203  currentWeeklyRound */\n      0x35\n        /* \"contracts/modules/ContestRoyalty.sol\":90:6393  contract ContestRoyalty is Storage  {... */\n      sload\n      swap1\n      tag_255\n      tag_4\n      jump\t// in\n    tag_255:\n      swap4\n      dup3\n      dup6\n      mstore\n        /* \"contracts/modules/ContestRoyalty.sol\":5156:5424  RoundInfo({... */\n      0x20\n      dup6\n      add\n        /* \"contracts/modules/ContestRoyalty.sol\":90:6393  contract ContestRoyalty is Storage  {... */\n      swap2\n      dup8\n      dup4\n      mstore\n      0x40\n        /* \"contracts/modules/ContestRoyalty.sol\":5156:5424  RoundInfo({... */\n      dup7\n      add\n        /* \"contracts/modules/ContestRoyalty.sol\":90:6393  contract ContestRoyalty is Storage  {... */\n      swap1\n      dup2\n      mstore\n        /* \"contracts/modules/ContestRoyalty.sol\":5156:5424  RoundInfo({... */\n      0x60\n      dup7\n      add\n        /* \"contracts/modules/ContestRoyalty.sol\":90:6393  contract ContestRoyalty is Storage  {... */\n      swap1\n      dup11\n      dup3\n      mstore\n        /* \"contracts/modules/ContestRoyalty.sol\":5156:5424  RoundInfo({... */\n      0x80\n      dup8\n      add\n        /* \"contracts/modules/ContestRoyalty.sol\":90:6393  contract ContestRoyalty is Storage  {... */\n      swap3\n      dup4\n      mstore\n        /* \"contracts/modules/ContestRoyalty.sol\":5156:5424  RoundInfo({... */\n      0xa0\n      dup8\n      add\n        /* \"contracts/modules/ContestRoyalty.sol\":4614:4629  block.timestamp */\n      swap4\n      timestamp\n        /* \"contracts/modules/ContestRoyalty.sol\":90:6393  contract ContestRoyalty is Storage  {... */\n      dup6\n      mstore\n        /* \"contracts/modules/ContestRoyalty.sol\":5156:5424  RoundInfo({... */\n      0xc0\n      dup9\n      add\n        /* \"contracts/modules/ContestRoyalty.sol\":90:6393  contract ContestRoyalty is Storage  {... */\n      swap6\n      0x01\n      dup8\n      mstore\n      0x00\n      mstore\n        /* \"contracts/modules/ContestRoyalty.sol\":5121:5133  weeklyRounds */\n      0x3b\n        /* \"contracts/modules/ContestRoyalty.sol\":5156:5424  RoundInfo({... */\n      0x20\n        /* \"contracts/modules/ContestRoyalty.sol\":90:6393  contract ContestRoyalty is Storage  {... */\n      mstore\n      keccak256(0x00, 0x40)\n      swap8\n      mload\n      dup9\n      sstore\n      mload\n      0x01\n      dup9\n      add\n      sstore\n      mload\n        /* \"contracts/modules/ContestRoyalty.sol\":5052:5053  2 */\n      0x02\n        /* \"contracts/modules/ContestRoyalty.sol\":90:6393  contract ContestRoyalty is Storage  {... */\n      dup8\n      add\n      sstore\n      mload\n      0x03\n      dup7\n      add\n      sstore\n      mload\n      0x04\n      dup6\n      add\n      sstore\n      mload\n      0x05\n      dup5\n      add\n      sstore\n      mload\n      iszero\n      iszero\n      swap2\n      add\n      swap1\n      0xff\n      dup1\n      not\n      dup4\n      sload\n      and\n      swap2\n      iszero\n      iszero\n      and\n      or\n      swap1\n      sstore\n      jump\n    tag_250:\n        /* \"contracts/modules/ContestRoyalty.sol\":5185:5203  currentWeeklyRound */\n      0x35\n        /* \"contracts/modules/ContestRoyalty.sol\":90:6393  contract ContestRoyalty is Storage  {... */\n      sload\n      swap3\n      mload(0x40)\n      swap2\n      dup3\n      swap2\n        /* \"contracts/modules/ContestRoyalty.sol\":5156:5424  RoundInfo({... */\n      0x80\n        /* \"contracts/modules/ContestRoyalty.sol\":90:6393  contract ContestRoyalty is Storage  {... */\n      dup4\n      mstore\n      tag_201\n        /* \"contracts/modules/ContestRoyalty.sol\":5156:5424  RoundInfo({... */\n      0x80\n        /* \"contracts/modules/ContestRoyalty.sol\":90:6393  contract ContestRoyalty is Storage  {... */\n      dup5\n      add\n      0x40\n      swap1\n      0x06\n      dup2\n      mstore\n      shl(0xd0, 0x5765656b6c79)\n      0x20\n      dup3\n      add\n      mstore\n      add\n      swap1\n      jump\n        /* \"contracts/modules/ContestRoyalty.sol\":5511:5531  currentWeeklyRound++ */\n    tag_249:\n        /* \"contracts/modules/ContestRoyalty.sol\":5185:5203  currentWeeklyRound */\n      0x35\n        /* \"contracts/modules/ContestRoyalty.sol\":90:6393  contract ContestRoyalty is Storage  {... */\n      sstore\n        /* \"contracts/modules/ContestRoyalty.sol\":4614:4629  block.timestamp */\n      timestamp\n        /* \"contracts/modules/ContestRoyalty.sol\":4633:4648  lastWeeklyReset */\n      0x37\n        /* \"contracts/modules/ContestRoyalty.sol\":90:6393  contract ContestRoyalty is Storage  {... */\n      sstore\n        /* \"contracts/modules/ContestRoyalty.sol\":4982:4997  qualifiedWeekly */\n      0x39\n        /* \"contracts/modules/ContestRoyalty.sol\":90:6393  contract ContestRoyalty is Storage  {... */\n      sload\n      0x00\n        /* \"contracts/modules/ContestRoyalty.sol\":4982:4997  qualifiedWeekly */\n      0x39\n        /* \"contracts/modules/ContestRoyalty.sol\":90:6393  contract ContestRoyalty is Storage  {... */\n      sstore\n      dup1\n      iszero\n        /* \"contracts/modules/ContestRoyalty.sol\":4610:4710  if (block.timestamp >= lastWeeklyReset + WEEK_DURATION) {... */\n      tag_243\n        /* \"contracts/modules/ContestRoyalty.sol\":90:6393  contract ContestRoyalty is Storage  {... */\n      jumpi\n        /* \"contracts/modules/ContestRoyalty.sol\":4982:4997  qualifiedWeekly */\n      0x39\n        /* \"contracts/modules/ContestRoyalty.sol\":90:6393  contract ContestRoyalty is Storage  {... */\n      0x00\n      mstore\n      0xdc16fef70f8d5ddbc01ee3d903d1e69c18a3c7be080eb86a81e0578814ee58d3\n      swap1\n      dup2\n      add\n      swap1\n    tag_259:\n      dup2\n      dup2\n      lt\n      tag_260\n      jumpi\n      pop\n        /* \"contracts/modules/ContestRoyalty.sol\":4610:4710  if (block.timestamp >= lastWeeklyReset + WEEK_DURATION) {... */\n      jump(tag_243)\n        /* \"contracts/modules/ContestRoyalty.sol\":90:6393  contract ContestRoyalty is Storage  {... */\n    tag_260:\n      0x00\n      dup2\n      sstore\n      0x01\n      add\n      jump(tag_259)\n        /* \"contracts/modules/ContestRoyalty.sol\":5079:5108  users > 0 ? total / users : 0 */\n    tag_251:\n        /* \"contracts/modules/ContestRoyalty.sol\":90:6393  contract ContestRoyalty is Storage  {... */\n      0x06\n      0x00\n        /* \"contracts/modules/ContestRoyalty.sol\":5079:5108  users > 0 ? total / users : 0 */\n      swap6\n      jump(tag_254)\n        /* \"contracts/modules/ContestRoyalty.sol\":90:6393  contract ContestRoyalty is Storage  {... */\n    tag_43:\n      jumpi(tag_95, callvalue)\n      jumpi(tag_95, slt(add(not(0x03), calldatasize), 0x40))\n      tag_266\n      tag_1\n      jump\t// in\n    tag_266:\n      mstore(0x00, calldataload(0x04))\n        /* \"contracts/modules/ContestRoyalty.sol\":888:955  mapping(uint => mapping(address => bool)) public isMonthlyQualified */\n      0x3e\n        /* \"contracts/modules/ContestRoyalty.sol\":90:6393  contract ContestRoyalty is Storage  {... */\n      0x20\n      mstore\n      keccak256(0x00, 0x40)\n        /* \"contracts/modules/ContestRoyalty.sol\":888:955  mapping(uint => mapping(address => bool)) public isMonthlyQualified */\n      swap1\n        /* \"contracts/modules/ContestRoyalty.sol\":90:6393  contract ContestRoyalty is Storage  {... */\n      0x01\n      dup1\n      0xa0\n      shl\n      sub\n      and\n      0x00\n      mstore\n      0x20\n      mstore\n      0x20\n      and(sload(keccak256(0x00, 0x40)), 0xff)\n      mload(0x40)\n      swap1\n      iszero\n      iszero\n      dup2\n      mstore\n      return\n    tag_41:\n      jumpi(tag_95, callvalue)\n      jumpi(tag_95, slt(add(not(0x03), calldatasize), 0x00))\n      0x20\n      mload(0x40)\n        /* \"contracts/modules/Storage.sol\":603:605  10 */\n      0x0a\n        /* \"contracts/modules/ContestRoyalty.sol\":90:6393  contract ContestRoyalty is Storage  {... */\n      dup2\n      mstore\n      return\n    tag_39:\n      jumpi(tag_95, callvalue)\n      jumpi(tag_95, slt(add(not(0x03), calldatasize), 0x20))\n      calldataload(0x04)\n      dup1\n      0x00\n      mstore\n        /* \"contracts/modules/ContestRoyalty.sol\":3118:3131  monthlyRounds */\n      0x3c\n        /* \"contracts/modules/ContestRoyalty.sol\":90:6393  contract ContestRoyalty is Storage  {... */\n      0x20\n      mstore\n        /* \"contracts/modules/ContestRoyalty.sol\":3569:3631  RewardClaimed(msg.sender, \"Monthly\", roundId, r.perUserReward) */\n      0x1a3be26d9ba470ad16bb376aa13666c5c90511b63416723049a5adffeaefa647\n        /* \"contracts/modules/ContestRoyalty.sol\":90:6393  contract ContestRoyalty is Storage  {... */\n      keccak256(0x00, 0x40)\n        /* \"contracts/modules/ContestRoyalty.sol\":3151:3192  require(r.closed, \"Round not closed yet\") */\n      tag_275\n        /* \"contracts/modules/ContestRoyalty.sol\":90:6393  contract ContestRoyalty is Storage  {... */\n      0xc0\n      tag_276\n      tag_4\n      jump\t// in\n    tag_276:\n      dup4\n      sload\n      dup2\n      mstore\n      0x01\n      dup5\n      add\n      sload\n      0x20\n      dup3\n      add\n      mstore\n      0x02\n      dup5\n      add\n      sload\n      0x40\n      dup3\n      add\n      mstore\n      0xff\n      0x06\n      0x03\n      dup7\n      add\n      sload\n      swap6\n      0x60\n      dup5\n      add\n      swap7\n      dup8\n      mstore\n      0x04\n      dup2\n      add\n      sload\n      0x80\n      dup6\n      add\n      mstore\n      0x05\n      dup2\n      add\n      sload\n      0xa0\n      dup6\n      add\n      mstore\n      add\n      sload\n      and\n      iszero\n      iszero\n      swap2\n      dup3\n      swap2\n      add\n      mstore\n        /* \"contracts/modules/ContestRoyalty.sol\":3151:3192  require(r.closed, \"Round not closed yet\") */\n      tag_5\n      jump\t// in\n    tag_275:\n        /* \"contracts/modules/ContestRoyalty.sol\":90:6393  contract ContestRoyalty is Storage  {... */\n      0x00\n      dup4\n      dup2\n      mstore\n        /* \"contracts/modules/ContestRoyalty.sol\":3211:3229  isMonthlyQualified */\n      0x3e\n        /* \"contracts/modules/ContestRoyalty.sol\":90:6393  contract ContestRoyalty is Storage  {... */\n      0x20\n      swap1\n      dup2\n      mstore\n      0x40\n      dup1\n      dup4\n      keccak256\n        /* \"contracts/modules/ContestRoyalty.sol\":3239:3249  msg.sender */\n      caller\n        /* \"contracts/modules/ContestRoyalty.sol\":90:6393  contract ContestRoyalty is Storage  {... */\n      dup5\n      mstore\n      swap1\n      swap2\n      mstore\n      swap1\n      keccak256\n      sload\n        /* \"contracts/modules/ContestRoyalty.sol\":3203:3268  require(isMonthlyQualified[roundId][msg.sender], \"Not qualified\") */\n      tag_277\n      swap1\n        /* \"contracts/modules/ContestRoyalty.sol\":90:6393  contract ContestRoyalty is Storage  {... */\n      0xff\n      and\n        /* \"contracts/modules/ContestRoyalty.sol\":3203:3268  require(isMonthlyQualified[roundId][msg.sender], \"Not qualified\") */\n      tag_6\n      jump\t// in\n    tag_277:\n        /* \"contracts/modules/ContestRoyalty.sol\":90:6393  contract ContestRoyalty is Storage  {... */\n      0x00\n      dup4\n      dup2\n      mstore\n      0x40\n      0x20\n      dup2\n      dup2\n      mstore\n      dup2\n      dup4\n      keccak256\n        /* \"contracts/modules/ContestRoyalty.sol\":3239:3249  msg.sender */\n      caller\n        /* \"contracts/modules/ContestRoyalty.sol\":90:6393  contract ContestRoyalty is Storage  {... */\n      dup5\n      mstore\n      swap1\n      mstore\n      swap1\n      keccak256\n      sload\n        /* \"contracts/modules/ContestRoyalty.sol\":3279:3346  require(!hasClaimedMonthly[roundId][msg.sender], \"Already claimed\") */\n      tag_278\n      swap1\n        /* \"contracts/modules/ContestRoyalty.sol\":90:6393  contract ContestRoyalty is Storage  {... */\n      0xff\n      and\n        /* \"contracts/modules/ContestRoyalty.sol\":3287:3326  !hasClaimedMonthly[roundId][msg.sender] */\n      iszero\n        /* \"contracts/modules/ContestRoyalty.sol\":3279:3346  require(!hasClaimedMonthly[roundId][msg.sender], \"Already claimed\") */\n      tag_7\n      jump\t// in\n    tag_278:\n        /* \"contracts/modules/ContestRoyalty.sol\":3357:3398  require(r.perUserReward > 0, \"No reward\") */\n      tag_279\n        /* \"contracts/modules/ContestRoyalty.sol\":90:6393  contract ContestRoyalty is Storage  {... */\n      dup2\n      mload\n        /* \"contracts/modules/ContestRoyalty.sol\":3365:3384  r.perUserReward > 0 */\n      iszero\n      iszero\n        /* \"contracts/modules/ContestRoyalty.sol\":3357:3398  require(r.perUserReward > 0, \"No reward\") */\n      tag_8\n      jump\t// in\n    tag_279:\n        /* \"contracts/modules/ContestRoyalty.sol\":90:6393  contract ContestRoyalty is Storage  {... */\n      0x00\n      dup4\n      dup2\n      mstore\n      0x40\n      0x20\n      dup2\n      dup2\n      mstore\n      dup2\n      dup4\n      keccak256\n        /* \"contracts/modules/ContestRoyalty.sol\":3239:3249  msg.sender */\n      caller\n        /* \"contracts/modules/ContestRoyalty.sol\":90:6393  contract ContestRoyalty is Storage  {... */\n      dup5\n      mstore\n      swap1\n      mstore\n      swap1\n      dup2\n      swap1\n      keccak256\n      dup1\n      sload\n      not(0xff)\n      and\n      0x01\n      or\n      swap1\n      sstore\n      swap1\n      mload\n      swap1\n      mload\n      0x60\n      dup1\n      dup3\n      mstore\n      0x07\n      swap1\n      dup3\n      add\n      mstore\n      shl(0xc8, 0x4d6f6e74686c79)\n      0x80\n      dup3\n      add\n      mstore\n      swap1\n      0xa0\n      dup3\n      add\n    tag_280:\n      swap4\n      0x20\n      dup4\n      add\n      mstore\n      0x40\n      dup3\n      add\n      mstore\n        /* \"contracts/modules/ContestRoyalty.sol\":3239:3249  msg.sender */\n      dup1\n      caller\n        /* \"contracts/modules/ContestRoyalty.sol\":3569:3631  RewardClaimed(msg.sender, \"Monthly\", roundId, r.perUserReward) */\n      swap4\n      sub\n      swap1\n      log2\n        /* \"contracts/modules/ContestRoyalty.sol\":90:6393  contract ContestRoyalty is Storage  {... */\n      stop\n    tag_37:\n      jumpi(tag_95, callvalue)\n      jumpi(tag_95, slt(add(not(0x03), calldatasize), 0x20))\n      calldataload(0x04)\n        /* \"contracts/modules/Storage.sol\":5758:5789  uint[] public registeredUserIds */\n      0x33\n        /* \"contracts/modules/ContestRoyalty.sol\":90:6393  contract ContestRoyalty is Storage  {... */\n      sload\n        /* \"contracts/modules/Storage.sol\":5758:5789  uint[] public registeredUserIds */\n      dup2\n      lt\n      iszero\n      tag_95\n      jumpi\n      0x33\n        /* \"contracts/modules/ContestRoyalty.sol\":90:6393  contract ContestRoyalty is Storage  {... */\n      sload\n      dup2\n      lt\n      iszero\n      tag_130\n      jumpi\n        /* \"contracts/modules/Storage.sol\":5758:5789  uint[] public registeredUserIds */\n      0x33\n        /* \"contracts/modules/ContestRoyalty.sol\":90:6393  contract ContestRoyalty is Storage  {... */\n      0x00\n      mstore\n      0x82a75bdeeae8604d839476ae9efd8b0e15aa447e21bfd7f41283bb54e22c9a82\n      add\n      sload\n      mload(0x40)\n      swap1\n      dup2\n      mstore\n      0x20\n      swap1\n      return\n    tag_35:\n      jumpi(tag_95, callvalue)\n      jumpi(tag_95, slt(add(not(0x03), calldatasize), 0x00))\n      0x20\n      mload(0x40)\n        /* \"contracts/modules/Storage.sol\":544:546  15 */\n      0x0f\n        /* \"contracts/modules/ContestRoyalty.sol\":90:6393  contract ContestRoyalty is Storage  {... */\n      dup2\n      mstore\n      return\n    tag_33:\n      jumpi(tag_95, callvalue)\n      jumpi(tag_95, slt(add(not(0x03), calldatasize), 0x00))\n      0x20\n      mload(0x40)\n        /* \"contracts/modules/Storage.sol\":5437:5441  1e18 */\n      0x0de0b6b3a7640000\n        /* \"contracts/modules/ContestRoyalty.sol\":90:6393  contract ContestRoyalty is Storage  {... */\n      dup2\n      mstore\n      return\n    tag_31:\n      jumpi(tag_95, callvalue)\n      jumpi(tag_95, slt(add(not(0x03), calldatasize), 0x00))\n      0x20\n      mload(0x40)\n        /* \"contracts/modules/Storage.sol\":486:492  1 days */\n      0x015180\n        /* \"contracts/modules/ContestRoyalty.sol\":90:6393  contract ContestRoyalty is Storage  {... */\n      dup2\n      mstore\n      return\n    tag_29:\n      jumpi(tag_95, callvalue)\n      jumpi(tag_95, slt(add(not(0x03), calldatasize), 0x00))\n      sload(0x00)\n      mload(0x40)\n      sub(shl(0xa0, 0x01), 0x01)\n      swap1\n      swap2\n      and\n      dup2\n      mstore\n      0x20\n      swap1\n      return\n    tag_27:\n      jumpi(tag_95, callvalue)\n      jumpi(tag_95, slt(add(not(0x03), calldatasize), 0x00))\n      0x20\n      mload(0x40)\n        /* \"contracts/modules/ContestRoyalty.sol\":223:230  30 days */\n      0x278d00\n        /* \"contracts/modules/ContestRoyalty.sol\":90:6393  contract ContestRoyalty is Storage  {... */\n      dup2\n      mstore\n      return\n    tag_25:\n      jumpi(tag_95, callvalue)\n      jumpi(tag_95, slt(add(not(0x03), calldatasize), 0x20))\n      calldataload(0x04)\n        /* \"contracts/modules/Storage.sol\":1313:1418  uint[] public glbBoosterPackages = [ 100e18, 200e18, 400e18, 800e18, 1600e18, 3200e18, 6400e18, 12800e18] */\n      0x08\n        /* \"contracts/modules/ContestRoyalty.sol\":90:6393  contract ContestRoyalty is Storage  {... */\n      sload\n        /* \"contracts/modules/Storage.sol\":1313:1418  uint[] public glbBoosterPackages = [ 100e18, 200e18, 400e18, 800e18, 1600e18, 3200e18, 6400e18, 12800e18] */\n      dup2\n      lt\n      iszero\n      tag_95\n      jumpi\n      0x08\n        /* \"contracts/modules/ContestRoyalty.sol\":90:6393  contract ContestRoyalty is Storage  {... */\n      sload\n      dup2\n      lt\n      iszero\n      tag_130\n      jumpi\n        /* \"contracts/modules/Storage.sol\":1313:1418  uint[] public glbBoosterPackages = [ 100e18, 200e18, 400e18, 800e18, 1600e18, 3200e18, 6400e18, 12800e18] */\n      0x08\n        /* \"contracts/modules/ContestRoyalty.sol\":90:6393  contract ContestRoyalty is Storage  {... */\n      0x00\n      mstore\n      0xf3f7a9fe364faab93b216da50a3214154f22a0a2b415b23a84c8169e8b636ee3\n      add\n      sload\n      mload(0x40)\n      swap1\n      dup2\n      mstore\n      0x20\n      swap1\n      return\n    tag_23:\n      jumpi(tag_95, callvalue)\n      jumpi(tag_95, slt(add(not(0x03), calldatasize), 0x20))\n      calldataload(0x04)\n      0x07\n        /* \"contracts/modules/Storage.sol\":1425:1482  uint[7] public minLevelForPool = [3, 5, 7, 9, 11, 13, 15] */\n      dup2\n      lt\n      iszero\n      tag_95\n      jumpi\n        /* \"contracts/modules/ContestRoyalty.sol\":90:6393  contract ContestRoyalty is Storage  {... */\n      0x20\n      swap1\n        /* \"contracts/modules/Storage.sol\":1425:1482  uint[7] public minLevelForPool = [3, 5, 7, 9, 11, 13, 15] */\n      0x09\n        /* \"contracts/modules/ContestRoyalty.sol\":90:6393  contract ContestRoyalty is Storage  {... */\n      add\n      sload\n      mload(0x40)\n      swap1\n      dup2\n      mstore\n      return\n    tag_21:\n      jumpi(tag_95, callvalue)\n      jumpi(tag_95, slt(add(not(0x03), calldatasize), 0x40))\n      tag_327\n      tag_1\n      jump\t// in\n    tag_327:\n      mstore(0x00, calldataload(0x04))\n      mstore(0x20, 0x40)\n      keccak256(0x00, 0x40)\n        /* \"contracts/modules/ContestRoyalty.sol\":1057:1123  mapping(uint => mapping(address => bool)) public hasClaimedMonthly */\n      swap1\n        /* \"contracts/modules/ContestRoyalty.sol\":90:6393  contract ContestRoyalty is Storage  {... */\n      0x01\n      dup1\n      0xa0\n      shl\n      sub\n      and\n      0x00\n      mstore\n      0x20\n      mstore\n      0x20\n      and(sload(keccak256(0x00, 0x40)), 0xff)\n      mload(0x40)\n      swap1\n      iszero\n      iszero\n      dup2\n      mstore\n      return\n    tag_19:\n      jumpi(tag_95, callvalue)\n      jumpi(tag_95, slt(add(not(0x03), calldatasize), 0x20))\n      calldataload(0x04)\n      dup1\n      0x00\n      mstore\n        /* \"contracts/modules/ContestRoyalty.sol\":2512:2524  weeklyRounds */\n      0x3b\n        /* \"contracts/modules/ContestRoyalty.sol\":90:6393  contract ContestRoyalty is Storage  {... */\n      0x20\n      mstore\n        /* \"contracts/modules/ContestRoyalty.sol\":2958:3019  RewardClaimed(msg.sender, \"Weekly\", roundId, r.perUserReward) */\n      0x1a3be26d9ba470ad16bb376aa13666c5c90511b63416723049a5adffeaefa647\n        /* \"contracts/modules/ContestRoyalty.sol\":90:6393  contract ContestRoyalty is Storage  {... */\n      keccak256(0x00, 0x40)\n        /* \"contracts/modules/ContestRoyalty.sol\":2544:2585  require(r.closed, \"Round not closed yet\") */\n      tag_332\n        /* \"contracts/modules/ContestRoyalty.sol\":90:6393  contract ContestRoyalty is Storage  {... */\n      0xc0\n      tag_276\n      tag_4\n      jump\t// in\n        /* \"contracts/modules/ContestRoyalty.sol\":2544:2585  require(r.closed, \"Round not closed yet\") */\n    tag_332:\n        /* \"contracts/modules/ContestRoyalty.sol\":90:6393  contract ContestRoyalty is Storage  {... */\n      0x00\n      dup4\n      dup2\n      mstore\n        /* \"contracts/modules/ContestRoyalty.sol\":2604:2621  isWeeklyQualified */\n      0x3d\n        /* \"contracts/modules/ContestRoyalty.sol\":90:6393  contract ContestRoyalty is Storage  {... */\n      0x20\n      swap1\n      dup2\n      mstore\n      0x40\n      dup1\n      dup4\n      keccak256\n        /* \"contracts/modules/ContestRoyalty.sol\":2631:2641  msg.sender */\n      caller\n        /* \"contracts/modules/ContestRoyalty.sol\":90:6393  contract ContestRoyalty is Storage  {... */\n      dup5\n      mstore\n      swap1\n      swap2\n      mstore\n      swap1\n      keccak256\n      sload\n        /* \"contracts/modules/ContestRoyalty.sol\":2596:2660  require(isWeeklyQualified[roundId][msg.sender], \"Not qualified\") */\n      tag_334\n      swap1\n        /* \"contracts/modules/ContestRoyalty.sol\":90:6393  contract ContestRoyalty is Storage  {... */\n      0xff\n      and\n        /* \"contracts/modules/ContestRoyalty.sol\":2596:2660  require(isWeeklyQualified[roundId][msg.sender], \"Not qualified\") */\n      tag_6\n      jump\t// in\n    tag_334:\n        /* \"contracts/modules/ContestRoyalty.sol\":90:6393  contract ContestRoyalty is Storage  {... */\n      0x00\n      dup4\n      dup2\n      mstore\n        /* \"contracts/modules/ContestRoyalty.sol\":2680:2696  hasClaimedWeekly */\n      0x3f\n        /* \"contracts/modules/ContestRoyalty.sol\":90:6393  contract ContestRoyalty is Storage  {... */\n      0x20\n      swap1\n      dup2\n      mstore\n      0x40\n      dup1\n      dup4\n      keccak256\n        /* \"contracts/modules/ContestRoyalty.sol\":2631:2641  msg.sender */\n      caller\n        /* \"contracts/modules/ContestRoyalty.sol\":90:6393  contract ContestRoyalty is Storage  {... */\n      dup5\n      mstore\n      swap1\n      swap2\n      mstore\n      swap1\n      keccak256\n      sload\n        /* \"contracts/modules/ContestRoyalty.sol\":2671:2737  require(!hasClaimedWeekly[roundId][msg.sender], \"Already claimed\") */\n      tag_335\n      swap1\n        /* \"contracts/modules/ContestRoyalty.sol\":90:6393  contract ContestRoyalty is Storage  {... */\n      0xff\n      and\n        /* \"contracts/modules/ContestRoyalty.sol\":2679:2717  !hasClaimedWeekly[roundId][msg.sender] */\n      iszero\n        /* \"contracts/modules/ContestRoyalty.sol\":2671:2737  require(!hasClaimedWeekly[roundId][msg.sender], \"Already claimed\") */\n      tag_7\n      jump\t// in\n    tag_335:\n        /* \"contracts/modules/ContestRoyalty.sol\":2748:2789  require(r.perUserReward > 0, \"No reward\") */\n      tag_336\n        /* \"contracts/modules/ContestRoyalty.sol\":90:6393  contract ContestRoyalty is Storage  {... */\n      dup2\n      mload\n        /* \"contracts/modules/ContestRoyalty.sol\":2756:2775  r.perUserReward > 0 */\n      iszero\n      iszero\n        /* \"contracts/modules/ContestRoyalty.sol\":2748:2789  require(r.perUserReward > 0, \"No reward\") */\n      tag_8\n      jump\t// in\n    tag_336:\n        /* \"contracts/modules/ContestRoyalty.sol\":90:6393  contract ContestRoyalty is Storage  {... */\n      0x00\n      dup4\n      dup2\n      mstore\n        /* \"contracts/modules/ContestRoyalty.sol\":2680:2696  hasClaimedWeekly */\n      0x3f\n        /* \"contracts/modules/ContestRoyalty.sol\":90:6393  contract ContestRoyalty is Storage  {... */\n      0x20\n      swap1\n      dup2\n      mstore\n      0x40\n      dup1\n      dup4\n      keccak256\n        /* \"contracts/modules/ContestRoyalty.sol\":2631:2641  msg.sender */\n      caller\n        /* \"contracts/modules/ContestRoyalty.sol\":90:6393  contract ContestRoyalty is Storage  {... */\n      dup5\n      mstore\n      swap1\n      swap2\n      mstore\n      swap1\n      dup2\n      swap1\n      keccak256\n      dup1\n      sload\n      not(0xff)\n      and\n      0x01\n      or\n      swap1\n      sstore\n      swap1\n      mload\n      swap1\n      mload\n      0x60\n      dup1\n      dup3\n      mstore\n      0x06\n      swap1\n      dup3\n      add\n      mstore\n      shl(0xd0, 0x5765656b6c79)\n      0x80\n      dup3\n      add\n      mstore\n      swap1\n      0xa0\n      dup3\n      add\n      jump(tag_280)\n    tag_17:\n      jumpi(tag_95, callvalue)\n      jumpi(tag_95, slt(add(not(0x03), calldatasize), 0x00))\n      dup1\n        /* \"contracts/modules/Storage.sol\":438:443  10000 */\n      0x2710\n        /* \"contracts/modules/ContestRoyalty.sol\":90:6393  contract ContestRoyalty is Storage  {... */\n      0x20\n      swap3\n      mstore\n      return\n    tag_1:\n      calldataload(0x24)\n      swap1\n      sub(shl(0xa0, 0x01), 0x01)\n      dup3\n      and\n      dup3\n      sub\n      tag_95\n      jumpi\n      jump\t// out\n    tag_2:\n      dup1\n      sload\n      dup3\n      lt\n      iszero\n      tag_130\n      jumpi\n      0x00\n      mstore\n      keccak256(0x00, 0x20)\n      add\n      swap1\n      0x00\n      swap1\n      jump\t// out\n    tag_4:\n      mload(0x40)\n      swap1\n      0xe0\n      dup3\n      add\n      dup3\n      dup2\n      lt\n      0xffffffffffffffff\n      dup3\n      gt\n      or\n      tag_190\n      jumpi\n      0x40\n      mstore\n      jump\t// out\n    tag_5:\n      iszero\n      tag_348\n      jumpi\n      jump\t// out\n    tag_348:\n      mload(0x40)\n      shl(0xe5, 0x461bcd)\n      dup2\n      mstore\n      0x20\n      0x04\n      dup3\n      add\n      mstore\n      0x14\n      0x24\n      dup3\n      add\n      mstore\n      shl(0x62, 0x149bdd5b99081b9bdd0818db1bdcd959081e595d)\n      0x44\n      dup3\n      add\n      mstore\n      0x64\n      swap1\n      revert\n    tag_6:\n      iszero\n      tag_350\n      jumpi\n      jump\t// out\n    tag_350:\n      mload(0x40)\n      shl(0xe5, 0x461bcd)\n      dup2\n      mstore\n      0x20\n      0x04\n      dup3\n      add\n      mstore\n      0x0d\n      0x24\n      dup3\n      add\n      mstore\n      shl(0x9a, 0x139bdd081c5d585b1a599a5959)\n      0x44\n      dup3\n      add\n      mstore\n      0x64\n      swap1\n      revert\n    tag_7:\n      iszero\n      tag_352\n      jumpi\n      jump\t// out\n    tag_352:\n      mload(0x40)\n      shl(0xe5, 0x461bcd)\n      dup2\n      mstore\n      0x20\n      0x04\n      dup3\n      add\n      mstore\n      0x0f\n      0x24\n      dup3\n      add\n      mstore\n      shl(0x8a, 0x105b1c9958591e4818db185a5b5959)\n      0x44\n      dup3\n      add\n      mstore\n      0x64\n      swap1\n      revert\n    tag_8:\n      iszero\n      tag_354\n      jumpi\n      jump\t// out\n    tag_354:\n      mload(0x40)\n      shl(0xe5, 0x461bcd)\n      dup2\n      mstore\n      0x20\n      0x04\n      dup3\n      add\n      mstore\n      0x09\n      0x24\n      dup3\n      add\n      mstore\n      shl(0xba, 0x139bc81c995dd85c99)\n      0x44\n      dup3\n      add\n      mstore\n      0x64\n      swap1\n      revert\n    tag_12:\n      iszero\n      tag_356\n      jumpi\n      jump\t// out\n    tag_356:\n      mload(0x40)\n      shl(0xe5, 0x461bcd)\n      dup2\n      mstore\n      0x20\n      0x04\n      dup3\n      add\n      mstore\n      0x11\n      0x24\n      dup3\n      add\n      mstore\n      shl(0x7a, 0x105b1c9958591e481c5d585b1a599a5959)\n      0x44\n      dup3\n      add\n      mstore\n      0x64\n      swap1\n      revert\n    tag_13:\n      dup2\n      iszero\n      tag_358\n      jumpi\n      div\n      swap1\n      jump\t// out\n    tag_358:\n      mstore(0x00, shl(0xe0, 0x4e487b71))\n      mstore(0x04, 0x12)\n      revert(0x00, 0x24)\n    tag_14:\n      not(0x00)\n      dup2\n      eq\n      tag_185\n      jumpi\n      0x01\n      add\n      swap1\n      jump\t// out\n\n    auxdata: 0xa26469706673582212203434842095c2063896fd9abe2431753cdf728cdaa6d554d4529810a7ec41b1a464736f6c634300081e0033\n}\n",
				"bytecode": {
					"linkReferences": {},
					"object": "608060405234610566576040516101e081016001600160401b038111828210176105525760405267d02ab486cedc0000815268015af1d78b58c4000060208201526802b5e3af16b1880000604082015268056bc75e2d631000006060820152680ad78ebc5ac620000060808201526815af1d78b58c40000060a0820152682b5e3af16b1880000060c08201526856bc75e2d63100000060e082015268ad78ebc5ac6200000061010082015269015af1d78b58c40000006101208201526902b5e3af16b18800000061014082015269056bc75e2d6310000000610160820152690ad78ebc5ac6200000006101808201526915af1d78b58c400000006101a0820152692b5e3af16b18800000006101c0820152600654600f60065580600f106104fc575b5060065f5260205f20905f5b600f81106104df5761013d61056a565b680410d586a20a4c00008152681043561a8829300000602082015268410d586a20a4c0000060408201526901043561a882930000006060820152690410d586a20a4c0000006080820152691043561a88293000000060a082015269410d586a20a4c000000060c08201526007546007805580600710610489575b5060075f5260205f20905f5b6007811061046c576101d3610589565b68056bc75e2d631000008152680ad78ebc5ac620000060208201526815af1d78b58c4000006040820152682b5e3af16b1880000060608201526856bc75e2d631000000608082015268ad78ebc5ac6200000060a082015269015af1d78b58c400000060c08201526902b5e3af16b18800000060e08201526008546008805580600810610416575b5060085f5260205f20905f5b600881106103f95761027661056a565b60038152600560208201526007604082015260096060820152600b6080820152600d60a0820152600f60c08201525f5b600781106103e1576102b6610589565b6004815260056020820152600660408201526007606082015260086080820152600960a0820152600a60c0820152600b60e08201525f5b600881106103c9576102fd610589565b5f815260016020820152600160408201526001606082015260016080820152600160a0820152600160c0820152600160e08201525f5b600881106103b15760016035819055603681905542603781905560388190555f919091527fb4f71959f268062715079d04bfdf1cfdd2a9ebbcca39849d90bf5f6795576c54819055603c6020527fa3f0af13bbc24f9a599303045bb90dfcdb939abd7adcca60700cc08fa292f795556040516113b790816105c08239f35b600190602060ff845116930192816018015501610333565b600190602060ff8451169301928160100155016102ed565b600190602060ff8451169301928160090155016102a6565b81516001600160501b031681840155602090910190600101610266565b60085f52610466907ff3f7a9fe364faab93b216da50a3214154f22a0a2b415b23a84c8169e8b636ee3017ff3f7a9fe364faab93b216da50a3214154f22a0a2b415b23a84c8169e8b636eeb6105a9565b8161025a565b81516001600160501b0316818401556020909101906001016101c3565b60075f526104d9907fa66cc928b5edb82af9bd49922954155ab7b0942694bea4ce44661d9a8736c688017fa66cc928b5edb82af9bd49922954155ab7b0942694bea4ce44661d9a8736c68f6105a9565b816101b7565b81516001600160501b03168184015560209091019060010161012d565b60065f5261054c907ff652222313e28459528d920b65115c16c04f3efc82aaedc97be59f3f377c0d3f017ff652222313e28459528d920b65115c16c04f3efc82aaedc97be59f3f377c0d4e6105a9565b5f610121565b634e487b7160e01b5f52604160045260245ffd5b5f80fd5b6040519060e082016001600160401b0381118382101761055257604052565b6040519061010082016001600160401b0381118382101761055257604052565b8181106105b4575050565b5f81556001016105a956fe6080806040526004361015610012575f80fd5b5f3560e01c90816301c234a8146111bb575080630a3f5a42146110c95780631c1da18e146110805780632132d204146110545780632350268f14610ffa5780632a89153414610fdd5780632f48ab7d14610fb657806332bc298c14610f9957806332fcd96614610f77578063375b43b414610f5c57806339ab360314610f0257806351a4f04e14610dba57806358c7d35214610d9f5780635e5bb36714610d565780636b77c79d14610afe57806376f5f70014610ae157806378f6ad6d14610ac45780637cdc65f214610a9c578063956a322814610a705780639680003d146108bf578063a058dc0914610616578063a22b9e87146105cd578063a56b18151461054b578063a6791eae1461052e578063a80fee55146104ca578063ad127e6b14610466578063ae4708dc1461040c578063b4ba97fc146103c3578063bff1f9e1146103a6578063c1c13b2f14610389578063c216212a1461031b578063c9ed0708146102fe578063ca8e9121146102e1578063d0a2fd79146102b5578063e9e34a161461028d578063ec597e6f14610270578063ef4549eb146101ea5763f5d74d93146101be575f80fd5b346101e6575f3660031901126101e6576003546040516001600160a01b039091168152602090f35b5f80fd5b346101e65760203660031901126101e6576004355f52603c60205260405f20805461026c600183015492600281015490600381015460048201549060ff60066005850154940154169360405197889788959260c09592989794919860e08801998852602088015260408701526060860152608085015260a08401521515910152565b0390f35b346101e6575f3660031901126101e6576020600454604051908152f35b346101e6575f3660031901126101e6576002546040516001600160a01b039091168152602090f35b346101e65760203660031901126101e65760043560088110156101e65760209060100154604051908152f35b346101e6575f3660031901126101e6576020603554604051908152f35b346101e6575f3660031901126101e6576020603654604051908152f35b346101e65760203660031901126101e6576004356006548110156101e6576006548110156103755760065f527ff652222313e28459528d920b65115c16c04f3efc82aaedc97be59f3f377c0d3f0154604051908152602090f35b634e487b7160e01b5f52603260045260245ffd5b346101e6575f3660031901126101e6576020603754604051908152f35b346101e6575f3660031901126101e6576020600554604051908152f35b346101e65760403660031901126101e6576103dc6111d5565b6004355f52603d60205260405f209060018060a01b03165f52602052602060ff60405f2054166040519015158152f35b346101e65760203660031901126101e6576004356007548110156101e6576007548110156103755760075f527fa66cc928b5edb82af9bd49922954155ab7b0942694bea4ce44661d9a8736c6880154604051908152602090f35b346101e65760203660031901126101e6576004356039548110156101e6576039548110156103755760395f527fdc16fef70f8d5ddbc01ee3d903d1e69c18a3c7be080eb86a81e0578814ee58d301546040516001600160a01b039091168152602090f35b346101e65760203660031901126101e657600435603a548110156101e657603a5481101561037557603a5f527fa2999d817b6757290b50e8ecf3fa939673403dd35c97de392fdb343b4015ce9e01546040516001600160a01b039091168152602090f35b346101e6575f3660031901126101e6576020603854604051908152f35b346101e65760203660031901126101e6576004355f52603b60205260405f20805461026c600183015492600281015490600381015460048201549060ff60066005850154940154169360405197889788959260c09592989794919860e08801998852602088015260408701526060860152608085015260a08401521515910152565b346101e65760403660031901126101e6576105e66111d5565b6004355f52603f60205260405f209060018060a01b03165f52602052602060ff60405f2054166040519015158152f35b5f3660031901126101e65760385462278d0081018082116108ab5742101561073b575b506036545f52603e60205260405f2060018060a01b0333165f5260205261066760ff60405f20541615611315565b603a54600160401b811015610727578060016106889201603a55603a6111eb565b81549060031b9033821b9160018060a01b03901b19161790556036545f52603e60205260405f2060018060a01b0333165f5260205260405f20600160ff198254161790556036547f577158c2e8120577a90c3a1ee00ad3d7acbadba003577f10f7ba8ae958c5af42604051604081526107196040820160409060078152664d6f6e74686c7960c81b60208201520190565b9260208201528033930390a2005b634e487b7160e01b5f52604160045260245ffd5b603a5461084c914760011c917fb486e0c214f6d65e1072cc27c74ada7881ca4cc7d3b577a0c141f48ba0fbfbf5916108039082156108a257600661077f8487611355565b955b6036549061078d611200565b9382855260208501918783526040860190815260608601908a82526080870192835260a087019342855260c0880195600187525f52603c60205260405f209751885551600188015551600287015551600386015551600485015551600584015551151591019060ff801983541691151516179055565b60365492604051918291608083526108336080840160409060078152664d6f6e74686c7960c81b60208201520190565b91866020850152604084015260608301520390a1611373565b60365542603855603a545f603a55801561063957603a5f527fa2999d817b6757290b50e8ecf3fa939673403dd35c97de392fdb343b4015ce9e908101905b8181106108975750610639565b5f815560010161088a565b60065f95610781565b634e487b7160e01b5f52601160045260245ffd5b346101e65760603660031901126101e6576004356001600160a01b03811681036101e6576024356044359182151583036101e657608092156109c257815f52603b60205260405f2090610910611200565b9082548252600183015460208301526002830154604083015260c060ff600660038601549560608601968752600481015489870152600581015460a087015201541692019115158252835f52603d60205260405f2060018060a01b0382165f5260205260ff60405f205416935f52603f60205260405f209060018060a01b03165f5260205260ff60405f205416915190511515915b604051931515845215156020840152604083015215156060820152f35b815f52603c60205260405f20906109d7611200565b9082548252600183015460208301526002830154604083015260c060ff600660038601549560608601968752600481015489870152600581015460a087015201541692019115158252835f52603e60205260405f2060018060a01b0382165f5260205260ff60405f205416935f52604060205260405f209060018060a01b03165f5260205260ff60405f205416915190511515916109a5565b346101e65760203660031901126101e65760043560088110156101e65760209060180154604051908152f35b346101e6575f3660031901126101e6576001546040516001600160a01b039091168152602090f35b346101e6575f3660031901126101e6576020603154604051908152f35b346101e6575f3660031901126101e657602060405162093a808152f35b5f3660031901126101e65760375462093a8081018082116108ab57421015610c00575b506035545f52603d60205260405f2060018060a01b0333165f52602052610b4f60ff60405f20541615611315565b603954600160401b81101561072757806001610b70920160395560396111eb565b81549060031b9033821b9160018060a01b03901b19161790556035545f52603d60205260405f2060018060a01b0333165f5260205260405f20600160ff198254161790556035547f577158c2e8120577a90c3a1ee00ad3d7acbadba003577f10f7ba8ae958c5af42604051604081526107196040820160409060068152655765656b6c7960d01b60208201520190565b603954610cf7914760011c917fb486e0c214f6d65e1072cc27c74ada7881ca4cc7d3b577a0c141f48ba0fbfbf591610cc8908215610d4d576006610c448487611355565b955b60355490610c52611200565b9382855260208501918783526040860190815260608601908a82526080870192835260a087019342855260c0880195600187525f52603b60205260405f209751885551600188015551600287015551600386015551600485015551600584015551151591019060ff801983541691151516179055565b60355492604051918291608083526108336080840160409060068152655765656b6c7960d01b60208201520190565b603555426037556039545f6039558015610b215760395f527fdc16fef70f8d5ddbc01ee3d903d1e69c18a3c7be080eb86a81e0578814ee58d3908101905b818110610d425750610b21565b5f8155600101610d35565b60065f95610c46565b346101e65760403660031901126101e657610d6f6111d5565b6004355f52603e60205260405f209060018060a01b03165f52602052602060ff60405f2054166040519015158152f35b346101e6575f3660031901126101e6576020604051600a8152f35b346101e65760203660031901126101e657600435805f52603c6020527f1a3be26d9ba470ad16bb376aa13666c5c90511b63416723049a5adffeaefa64760405f20610e5460c0610e08611200565b83548152600184015460208201526002840154604082015260ff60066003860154956060840196875260048101546080850152600581015460a085015201541615159182910152611220565b5f838152603e60209081526040808320338452909152902054610e799060ff16611263565b5f838152604060208181528183203384529052902054610e9c9060ff161561129f565b610ea8815115156112dd565b5f83815260406020818152818320338452905290819020805460ff19166001179055905190516060808252600790820152664d6f6e74686c7960c81b60808201529060a082015b93602083015260408201528033930390a2005b346101e65760203660031901126101e6576004356033548110156101e6576033548110156103755760335f527f82a75bdeeae8604d839476ae9efd8b0e15aa447e21bfd7f41283bb54e22c9a820154604051908152602090f35b346101e6575f3660031901126101e6576020604051600f8152f35b346101e6575f3660031901126101e6576020604051670de0b6b3a76400008152f35b346101e6575f3660031901126101e6576020604051620151808152f35b346101e6575f3660031901126101e6575f546040516001600160a01b039091168152602090f35b346101e6575f3660031901126101e657602060405162278d008152f35b346101e65760203660031901126101e6576004356008548110156101e6576008548110156103755760085f527ff3f7a9fe364faab93b216da50a3214154f22a0a2b415b23a84c8169e8b636ee30154604051908152602090f35b346101e65760203660031901126101e65760043560078110156101e65760209060090154604051908152f35b346101e65760403660031901126101e6576110996111d5565b6004355f52604060205260405f209060018060a01b03165f52602052602060ff60405f2054166040519015158152f35b346101e65760203660031901126101e657600435805f52603b6020527f1a3be26d9ba470ad16bb376aa13666c5c90511b63416723049a5adffeaefa64760405f2061111760c0610e08611200565b5f838152603d6020908152604080832033845290915290205461113c9060ff16611263565b5f838152603f602090815260408083203384529091529020546111629060ff161561129f565b61116e815115156112dd565b5f838152603f6020908152604080832033845290915290819020805460ff19166001179055905190516060808252600690820152655765656b6c7960d01b60808201529060a08201610eef565b346101e6575f3660031901126101e6578061271060209252f35b602435906001600160a01b03821682036101e657565b8054821015610375575f5260205f2001905f90565b6040519060e0820182811067ffffffffffffffff82111761072757604052565b1561122757565b60405162461bcd60e51b8152602060048201526014602482015273149bdd5b99081b9bdd0818db1bdcd959081e595d60621b6044820152606490fd5b1561126a57565b60405162461bcd60e51b815260206004820152600d60248201526c139bdd081c5d585b1a599a5959609a1b6044820152606490fd5b156112a657565b60405162461bcd60e51b815260206004820152600f60248201526e105b1c9958591e4818db185a5b5959608a1b6044820152606490fd5b156112e457565b60405162461bcd60e51b8152602060048201526009602482015268139bc81c995dd85c9960ba1b6044820152606490fd5b1561131c57565b60405162461bcd60e51b8152602060048201526011602482015270105b1c9958591e481c5d585b1a599a5959607a1b6044820152606490fd5b811561135f570490565b634e487b7160e01b5f52601260045260245ffd5b5f1981146108ab576001019056fea26469706673582212203434842095c2063896fd9abe2431753cdf728cdaa6d554d4529810a7ec41b1a464736f6c634300081e0033",
					"opcodes": "PUSH1 0x80 PUSH1 0x40 MSTORE CALLVALUE PUSH2 0x566 JUMPI PUSH1 0x40 MLOAD PUSH2 0x1E0 DUP2 ADD PUSH1 0x1 PUSH1 0x1 PUSH1 0x40 SHL SUB DUP2 GT DUP3 DUP3 LT OR PUSH2 0x552 JUMPI PUSH1 0x40 MSTORE PUSH8 0xD02AB486CEDC0000 DUP2 MSTORE PUSH9 0x15AF1D78B58C40000 PUSH1 0x20 DUP3 ADD MSTORE PUSH9 0x2B5E3AF16B1880000 PUSH1 0x40 DUP3 ADD MSTORE PUSH9 0x56BC75E2D63100000 PUSH1 0x60 DUP3 ADD MSTORE PUSH9 0xAD78EBC5AC6200000 PUSH1 0x80 DUP3 ADD MSTORE PUSH9 0x15AF1D78B58C400000 PUSH1 0xA0 DUP3 ADD MSTORE PUSH9 0x2B5E3AF16B18800000 PUSH1 0xC0 DUP3 ADD MSTORE PUSH9 0x56BC75E2D631000000 PUSH1 0xE0 DUP3 ADD MSTORE PUSH9 0xAD78EBC5AC62000000 PUSH2 0x100 DUP3 ADD MSTORE PUSH10 0x15AF1D78B58C4000000 PUSH2 0x120 DUP3 ADD MSTORE PUSH10 0x2B5E3AF16B188000000 PUSH2 0x140 DUP3 ADD MSTORE PUSH10 0x56BC75E2D6310000000 PUSH2 0x160 DUP3 ADD MSTORE PUSH10 0xAD78EBC5AC620000000 PUSH2 0x180 DUP3 ADD MSTORE PUSH10 0x15AF1D78B58C40000000 PUSH2 0x1A0 DUP3 ADD MSTORE PUSH10 0x2B5E3AF16B1880000000 PUSH2 0x1C0 DUP3 ADD MSTORE PUSH1 0x6 SLOAD PUSH1 0xF PUSH1 0x6 SSTORE DUP1 PUSH1 0xF LT PUSH2 0x4FC JUMPI JUMPDEST POP PUSH1 0x6 PUSH0 MSTORE PUSH1 0x20 PUSH0 KECCAK256 SWAP1 PUSH0 JUMPDEST PUSH1 0xF DUP2 LT PUSH2 0x4DF JUMPI PUSH2 0x13D PUSH2 0x56A JUMP JUMPDEST PUSH9 0x410D586A20A4C0000 DUP2 MSTORE PUSH9 0x1043561A8829300000 PUSH1 0x20 DUP3 ADD MSTORE PUSH9 0x410D586A20A4C00000 PUSH1 0x40 DUP3 ADD MSTORE PUSH10 0x1043561A88293000000 PUSH1 0x60 DUP3 ADD MSTORE PUSH10 0x410D586A20A4C000000 PUSH1 0x80 DUP3 ADD MSTORE PUSH10 0x1043561A882930000000 PUSH1 0xA0 DUP3 ADD MSTORE PUSH10 0x410D586A20A4C0000000 PUSH1 0xC0 DUP3 ADD MSTORE PUSH1 0x7 SLOAD PUSH1 0x7 DUP1 SSTORE DUP1 PUSH1 0x7 LT PUSH2 0x489 JUMPI JUMPDEST POP PUSH1 0x7 PUSH0 MSTORE PUSH1 0x20 PUSH0 KECCAK256 SWAP1 PUSH0 JUMPDEST PUSH1 0x7 DUP2 LT PUSH2 0x46C JUMPI PUSH2 0x1D3 PUSH2 0x589 JUMP JUMPDEST PUSH9 0x56BC75E2D63100000 DUP2 MSTORE PUSH9 0xAD78EBC5AC6200000 PUSH1 0x20 DUP3 ADD MSTORE PUSH9 0x15AF1D78B58C400000 PUSH1 0x40 DUP3 ADD MSTORE PUSH9 0x2B5E3AF16B18800000 PUSH1 0x60 DUP3 ADD MSTORE PUSH9 0x56BC75E2D631000000 PUSH1 0x80 DUP3 ADD MSTORE PUSH9 0xAD78EBC5AC62000000 PUSH1 0xA0 DUP3 ADD MSTORE PUSH10 0x15AF1D78B58C4000000 PUSH1 0xC0 DUP3 ADD MSTORE PUSH10 0x2B5E3AF16B188000000 PUSH1 0xE0 DUP3 ADD MSTORE PUSH1 0x8 SLOAD PUSH1 0x8 DUP1 SSTORE DUP1 PUSH1 0x8 LT PUSH2 0x416 JUMPI JUMPDEST POP PUSH1 0x8 PUSH0 MSTORE PUSH1 0x20 PUSH0 KECCAK256 SWAP1 PUSH0 JUMPDEST PUSH1 0x8 DUP2 LT PUSH2 0x3F9 JUMPI PUSH2 0x276 PUSH2 0x56A JUMP JUMPDEST PUSH1 0x3 DUP2 MSTORE PUSH1 0x5 PUSH1 0x20 DUP3 ADD MSTORE PUSH1 0x7 PUSH1 0x40 DUP3 ADD MSTORE PUSH1 0x9 PUSH1 0x60 DUP3 ADD MSTORE PUSH1 0xB PUSH1 0x80 DUP3 ADD MSTORE PUSH1 0xD PUSH1 0xA0 DUP3 ADD MSTORE PUSH1 0xF PUSH1 0xC0 DUP3 ADD MSTORE PUSH0 JUMPDEST PUSH1 0x7 DUP2 LT PUSH2 0x3E1 JUMPI PUSH2 0x2B6 PUSH2 0x589 JUMP JUMPDEST PUSH1 0x4 DUP2 MSTORE PUSH1 0x5 PUSH1 0x20 DUP3 ADD MSTORE PUSH1 0x6 PUSH1 0x40 DUP3 ADD MSTORE PUSH1 0x7 PUSH1 0x60 DUP3 ADD MSTORE PUSH1 0x8 PUSH1 0x80 DUP3 ADD MSTORE PUSH1 0x9 PUSH1 0xA0 DUP3 ADD MSTORE PUSH1 0xA PUSH1 0xC0 DUP3 ADD MSTORE PUSH1 0xB PUSH1 0xE0 DUP3 ADD MSTORE PUSH0 JUMPDEST PUSH1 0x8 DUP2 LT PUSH2 0x3C9 JUMPI PUSH2 0x2FD PUSH2 0x589 JUMP JUMPDEST PUSH0 DUP2 MSTORE PUSH1 0x1 PUSH1 0x20 DUP3 ADD MSTORE PUSH1 0x1 PUSH1 0x40 DUP3 ADD MSTORE PUSH1 0x1 PUSH1 0x60 DUP3 ADD MSTORE PUSH1 0x1 PUSH1 0x80 DUP3 ADD MSTORE PUSH1 0x1 PUSH1 0xA0 DUP3 ADD MSTORE PUSH1 0x1 PUSH1 0xC0 DUP3 ADD MSTORE PUSH1 0x1 PUSH1 0xE0 DUP3 ADD MSTORE PUSH0 JUMPDEST PUSH1 0x8 DUP2 LT PUSH2 0x3B1 JUMPI PUSH1 0x1 PUSH1 0x35 DUP2 SWAP1 SSTORE PUSH1 0x36 DUP2 SWAP1 SSTORE TIMESTAMP PUSH1 0x37 DUP2 SWAP1 SSTORE PUSH1 0x38 DUP2 SWAP1 SSTORE PUSH0 SWAP2 SWAP1 SWAP2 MSTORE PUSH32 0xB4F71959F268062715079D04BFDF1CFDD2A9EBBCCA39849D90BF5F6795576C54 DUP2 SWAP1 SSTORE PUSH1 0x3C PUSH1 0x20 MSTORE PUSH32 0xA3F0AF13BBC24F9A599303045BB90DFCDB939ABD7ADCCA60700CC08FA292F795 SSTORE PUSH1 0x40 MLOAD PUSH2 0x13B7 SWAP1 DUP2 PUSH2 0x5C0 DUP3 CODECOPY RETURN JUMPDEST PUSH1 0x1 SWAP1 PUSH1 0x20 PUSH1 0xFF DUP5 MLOAD AND SWAP4 ADD SWAP3 DUP2 PUSH1 0x18 ADD SSTORE ADD PUSH2 0x333 JUMP JUMPDEST PUSH1 0x1 SWAP1 PUSH1 0x20 PUSH1 0xFF DUP5 MLOAD AND SWAP4 ADD SWAP3 DUP2 PUSH1 0x10 ADD SSTORE ADD PUSH2 0x2ED JUMP JUMPDEST PUSH1 0x1 SWAP1 PUSH1 0x20 PUSH1 0xFF DUP5 MLOAD AND SWAP4 ADD SWAP3 DUP2 PUSH1 0x9 ADD SSTORE ADD PUSH2 0x2A6 JUMP JUMPDEST DUP2 MLOAD PUSH1 0x1 PUSH1 0x1 PUSH1 0x50 SHL SUB AND DUP2 DUP5 ADD SSTORE PUSH1 0x20 SWAP1 SWAP2 ADD SWAP1 PUSH1 0x1 ADD PUSH2 0x266 JUMP JUMPDEST PUSH1 0x8 PUSH0 MSTORE PUSH2 0x466 SWAP1 PUSH32 0xF3F7A9FE364FAAB93B216DA50A3214154F22A0A2B415B23A84C8169E8B636EE3 ADD PUSH32 0xF3F7A9FE364FAAB93B216DA50A3214154F22A0A2B415B23A84C8169E8B636EEB PUSH2 0x5A9 JUMP JUMPDEST DUP2 PUSH2 0x25A JUMP JUMPDEST DUP2 MLOAD PUSH1 0x1 PUSH1 0x1 PUSH1 0x50 SHL SUB AND DUP2 DUP5 ADD SSTORE PUSH1 0x20 SWAP1 SWAP2 ADD SWAP1 PUSH1 0x1 ADD PUSH2 0x1C3 JUMP JUMPDEST PUSH1 0x7 PUSH0 MSTORE PUSH2 0x4D9 SWAP1 PUSH32 0xA66CC928B5EDB82AF9BD49922954155AB7B0942694BEA4CE44661D9A8736C688 ADD PUSH32 0xA66CC928B5EDB82AF9BD49922954155AB7B0942694BEA4CE44661D9A8736C68F PUSH2 0x5A9 JUMP JUMPDEST DUP2 PUSH2 0x1B7 JUMP JUMPDEST DUP2 MLOAD PUSH1 0x1 PUSH1 0x1 PUSH1 0x50 SHL SUB AND DUP2 DUP5 ADD SSTORE PUSH1 0x20 SWAP1 SWAP2 ADD SWAP1 PUSH1 0x1 ADD PUSH2 0x12D JUMP JUMPDEST PUSH1 0x6 PUSH0 MSTORE PUSH2 0x54C SWAP1 PUSH32 0xF652222313E28459528D920B65115C16C04F3EFC82AAEDC97BE59F3F377C0D3F ADD PUSH32 0xF652222313E28459528D920B65115C16C04F3EFC82AAEDC97BE59F3F377C0D4E PUSH2 0x5A9 JUMP JUMPDEST PUSH0 PUSH2 0x121 JUMP JUMPDEST PUSH4 0x4E487B71 PUSH1 0xE0 SHL PUSH0 MSTORE PUSH1 0x41 PUSH1 0x4 MSTORE PUSH1 0x24 PUSH0 REVERT JUMPDEST PUSH0 DUP1 REVERT JUMPDEST PUSH1 0x40 MLOAD SWAP1 PUSH1 0xE0 DUP3 ADD PUSH1 0x1 PUSH1 0x1 PUSH1 0x40 SHL SUB DUP2 GT DUP4 DUP3 LT OR PUSH2 0x552 JUMPI PUSH1 0x40 MSTORE JUMP JUMPDEST PUSH1 0x40 MLOAD SWAP1 PUSH2 0x100 DUP3 ADD PUSH1 0x1 PUSH1 0x1 PUSH1 0x40 SHL SUB DUP2 GT DUP4 DUP3 LT OR PUSH2 0x552 JUMPI PUSH1 0x40 MSTORE JUMP JUMPDEST DUP2 DUP2 LT PUSH2 0x5B4 JUMPI POP POP JUMP JUMPDEST PUSH0 DUP2 SSTORE PUSH1 0x1 ADD PUSH2 0x5A9 JUMP INVALID PUSH1 0x80 DUP1 PUSH1 0x40 MSTORE PUSH1 0x4 CALLDATASIZE LT ISZERO PUSH2 0x12 JUMPI PUSH0 DUP1 REVERT JUMPDEST PUSH0 CALLDATALOAD PUSH1 0xE0 SHR SWAP1 DUP2 PUSH4 0x1C234A8 EQ PUSH2 0x11BB JUMPI POP DUP1 PUSH4 0xA3F5A42 EQ PUSH2 0x10C9 JUMPI DUP1 PUSH4 0x1C1DA18E EQ PUSH2 0x1080 JUMPI DUP1 PUSH4 0x2132D204 EQ PUSH2 0x1054 JUMPI DUP1 PUSH4 0x2350268F EQ PUSH2 0xFFA JUMPI DUP1 PUSH4 0x2A891534 EQ PUSH2 0xFDD JUMPI DUP1 PUSH4 0x2F48AB7D EQ PUSH2 0xFB6 JUMPI DUP1 PUSH4 0x32BC298C EQ PUSH2 0xF99 JUMPI DUP1 PUSH4 0x32FCD966 EQ PUSH2 0xF77 JUMPI DUP1 PUSH4 0x375B43B4 EQ PUSH2 0xF5C JUMPI DUP1 PUSH4 0x39AB3603 EQ PUSH2 0xF02 JUMPI DUP1 PUSH4 0x51A4F04E EQ PUSH2 0xDBA JUMPI DUP1 PUSH4 0x58C7D352 EQ PUSH2 0xD9F JUMPI DUP1 PUSH4 0x5E5BB367 EQ PUSH2 0xD56 JUMPI DUP1 PUSH4 0x6B77C79D EQ PUSH2 0xAFE JUMPI DUP1 PUSH4 0x76F5F700 EQ PUSH2 0xAE1 JUMPI DUP1 PUSH4 0x78F6AD6D EQ PUSH2 0xAC4 JUMPI DUP1 PUSH4 0x7CDC65F2 EQ PUSH2 0xA9C JUMPI DUP1 PUSH4 0x956A3228 EQ PUSH2 0xA70 JUMPI DUP1 PUSH4 0x9680003D EQ PUSH2 0x8BF JUMPI DUP1 PUSH4 0xA058DC09 EQ PUSH2 0x616 JUMPI DUP1 PUSH4 0xA22B9E87 EQ PUSH2 0x5CD JUMPI DUP1 PUSH4 0xA56B1815 EQ PUSH2 0x54B JUMPI DUP1 PUSH4 0xA6791EAE EQ PUSH2 0x52E JUMPI DUP1 PUSH4 0xA80FEE55 EQ PUSH2 0x4CA JUMPI DUP1 PUSH4 0xAD127E6B EQ PUSH2 0x466 JUMPI DUP1 PUSH4 0xAE4708DC EQ PUSH2 0x40C JUMPI DUP1 PUSH4 0xB4BA97FC EQ PUSH2 0x3C3 JUMPI DUP1 PUSH4 0xBFF1F9E1 EQ PUSH2 0x3A6 JUMPI DUP1 PUSH4 0xC1C13B2F EQ PUSH2 0x389 JUMPI DUP1 PUSH4 0xC216212A EQ PUSH2 0x31B JUMPI DUP1 PUSH4 0xC9ED0708 EQ PUSH2 0x2FE JUMPI DUP1 PUSH4 0xCA8E9121 EQ PUSH2 0x2E1 JUMPI DUP1 PUSH4 0xD0A2FD79 EQ PUSH2 0x2B5 JUMPI DUP1 PUSH4 0xE9E34A16 EQ PUSH2 0x28D JUMPI DUP1 PUSH4 0xEC597E6F EQ PUSH2 0x270 JUMPI DUP1 PUSH4 0xEF4549EB EQ PUSH2 0x1EA JUMPI PUSH4 0xF5D74D93 EQ PUSH2 0x1BE JUMPI PUSH0 DUP1 REVERT JUMPDEST CALLVALUE PUSH2 0x1E6 JUMPI PUSH0 CALLDATASIZE PUSH1 0x3 NOT ADD SLT PUSH2 0x1E6 JUMPI PUSH1 0x3 SLOAD PUSH1 0x40 MLOAD PUSH1 0x1 PUSH1 0x1 PUSH1 0xA0 SHL SUB SWAP1 SWAP2 AND DUP2 MSTORE PUSH1 0x20 SWAP1 RETURN JUMPDEST PUSH0 DUP1 REVERT JUMPDEST CALLVALUE PUSH2 0x1E6 JUMPI PUSH1 0x20 CALLDATASIZE PUSH1 0x3 NOT ADD SLT PUSH2 0x1E6 JUMPI PUSH1 0x4 CALLDATALOAD PUSH0 MSTORE PUSH1 0x3C PUSH1 0x20 MSTORE PUSH1 0x40 PUSH0 KECCAK256 DUP1 SLOAD PUSH2 0x26C PUSH1 0x1 DUP4 ADD SLOAD SWAP3 PUSH1 0x2 DUP2 ADD SLOAD SWAP1 PUSH1 0x3 DUP2 ADD SLOAD PUSH1 0x4 DUP3 ADD SLOAD SWAP1 PUSH1 0xFF PUSH1 0x6 PUSH1 0x5 DUP6 ADD SLOAD SWAP5 ADD SLOAD AND SWAP4 PUSH1 0x40 MLOAD SWAP8 DUP9 SWAP8 DUP9 SWAP6 SWAP3 PUSH1 0xC0 SWAP6 SWAP3 SWAP9 SWAP8 SWAP5 SWAP2 SWAP9 PUSH1 0xE0 DUP9 ADD SWAP10 DUP9 MSTORE PUSH1 0x20 DUP9 ADD MSTORE PUSH1 0x40 DUP8 ADD MSTORE PUSH1 0x60 DUP7 ADD MSTORE PUSH1 0x80 DUP6 ADD MSTORE PUSH1 0xA0 DUP5 ADD MSTORE ISZERO ISZERO SWAP2 ADD MSTORE JUMP JUMPDEST SUB SWAP1 RETURN JUMPDEST CALLVALUE PUSH2 0x1E6 JUMPI PUSH0 CALLDATASIZE PUSH1 0x3 NOT ADD SLT PUSH2 0x1E6 JUMPI PUSH1 0x20 PUSH1 0x4 SLOAD PUSH1 0x40 MLOAD SWAP1 DUP2 MSTORE RETURN JUMPDEST CALLVALUE PUSH2 0x1E6 JUMPI PUSH0 CALLDATASIZE PUSH1 0x3 NOT ADD SLT PUSH2 0x1E6 JUMPI PUSH1 0x2 SLOAD PUSH1 0x40 MLOAD PUSH1 0x1 PUSH1 0x1 PUSH1 0xA0 SHL SUB SWAP1 SWAP2 AND DUP2 MSTORE PUSH1 0x20 SWAP1 RETURN JUMPDEST CALLVALUE PUSH2 0x1E6 JUMPI PUSH1 0x20 CALLDATASIZE PUSH1 0x3 NOT ADD SLT PUSH2 0x1E6 JUMPI PUSH1 0x4 CALLDATALOAD PUSH1 0x8 DUP2 LT ISZERO PUSH2 0x1E6 JUMPI PUSH1 0x20 SWAP1 PUSH1 0x10 ADD SLOAD PUSH1 0x40 MLOAD SWAP1 DUP2 MSTORE RETURN JUMPDEST CALLVALUE PUSH2 0x1E6 JUMPI PUSH0 CALLDATASIZE PUSH1 0x3 NOT ADD SLT PUSH2 0x1E6 JUMPI PUSH1 0x20 PUSH1 0x35 SLOAD PUSH1 0x40 MLOAD SWAP1 DUP2 MSTORE RETURN JUMPDEST CALLVALUE PUSH2 0x1E6 JUMPI PUSH0 CALLDATASIZE PUSH1 0x3 NOT ADD SLT PUSH2 0x1E6 JUMPI PUSH1 0x20 PUSH1 0x36 SLOAD PUSH1 0x40 MLOAD SWAP1 DUP2 MSTORE RETURN JUMPDEST CALLVALUE PUSH2 0x1E6 JUMPI PUSH1 0x20 CALLDATASIZE PUSH1 0x3 NOT ADD SLT PUSH2 0x1E6 JUMPI PUSH1 0x4 CALLDATALOAD PUSH1 0x6 SLOAD DUP2 LT ISZERO PUSH2 0x1E6 JUMPI PUSH1 0x6 SLOAD DUP2 LT ISZERO PUSH2 0x375 JUMPI PUSH1 0x6 PUSH0 MSTORE PUSH32 0xF652222313E28459528D920B65115C16C04F3EFC82AAEDC97BE59F3F377C0D3F ADD SLOAD PUSH1 0x40 MLOAD SWAP1 DUP2 MSTORE PUSH1 0x20 SWAP1 RETURN JUMPDEST PUSH4 0x4E487B71 PUSH1 0xE0 SHL PUSH0 MSTORE PUSH1 0x32 PUSH1 0x4 MSTORE PUSH1 0x24 PUSH0 REVERT JUMPDEST CALLVALUE PUSH2 0x1E6 JUMPI PUSH0 CALLDATASIZE PUSH1 0x3 NOT ADD SLT PUSH2 0x1E6 JUMPI PUSH1 0x20 PUSH1 0x37 SLOAD PUSH1 0x40 MLOAD SWAP1 DUP2 MSTORE RETURN JUMPDEST CALLVALUE PUSH2 0x1E6 JUMPI PUSH0 CALLDATASIZE PUSH1 0x3 NOT ADD SLT PUSH2 0x1E6 JUMPI PUSH1 0x20 PUSH1 0x5 SLOAD PUSH1 0x40 MLOAD SWAP1 DUP2 MSTORE RETURN JUMPDEST CALLVALUE PUSH2 0x1E6 JUMPI PUSH1 0x40 CALLDATASIZE PUSH1 0x3 NOT ADD SLT PUSH2 0x1E6 JUMPI PUSH2 0x3DC PUSH2 0x11D5 JUMP JUMPDEST PUSH1 0x4 CALLDATALOAD PUSH0 MSTORE PUSH1 0x3D PUSH1 0x20 MSTORE PUSH1 0x40 PUSH0 KECCAK256 SWAP1 PUSH1 0x1 DUP1 PUSH1 0xA0 SHL SUB AND PUSH0 MSTORE PUSH1 0x20 MSTORE PUSH1 0x20 PUSH1 0xFF PUSH1 0x40 PUSH0 KECCAK256 SLOAD AND PUSH1 0x40 MLOAD SWAP1 ISZERO ISZERO DUP2 MSTORE RETURN JUMPDEST CALLVALUE PUSH2 0x1E6 JUMPI PUSH1 0x20 CALLDATASIZE PUSH1 0x3 NOT ADD SLT PUSH2 0x1E6 JUMPI PUSH1 0x4 CALLDATALOAD PUSH1 0x7 SLOAD DUP2 LT ISZERO PUSH2 0x1E6 JUMPI PUSH1 0x7 SLOAD DUP2 LT ISZERO PUSH2 0x375 JUMPI PUSH1 0x7 PUSH0 MSTORE PUSH32 0xA66CC928B5EDB82AF9BD49922954155AB7B0942694BEA4CE44661D9A8736C688 ADD SLOAD PUSH1 0x40 MLOAD SWAP1 DUP2 MSTORE PUSH1 0x20 SWAP1 RETURN JUMPDEST CALLVALUE PUSH2 0x1E6 JUMPI PUSH1 0x20 CALLDATASIZE PUSH1 0x3 NOT ADD SLT PUSH2 0x1E6 JUMPI PUSH1 0x4 CALLDATALOAD PUSH1 0x39 SLOAD DUP2 LT ISZERO PUSH2 0x1E6 JUMPI PUSH1 0x39 SLOAD DUP2 LT ISZERO PUSH2 0x375 JUMPI PUSH1 0x39 PUSH0 MSTORE PUSH32 0xDC16FEF70F8D5DDBC01EE3D903D1E69C18A3C7BE080EB86A81E0578814EE58D3 ADD SLOAD PUSH1 0x40 MLOAD PUSH1 0x1 PUSH1 0x1 PUSH1 0xA0 SHL SUB SWAP1 SWAP2 AND DUP2 MSTORE PUSH1 0x20 SWAP1 RETURN JUMPDEST CALLVALUE PUSH2 0x1E6 JUMPI PUSH1 0x20 CALLDATASIZE PUSH1 0x3 NOT ADD SLT PUSH2 0x1E6 JUMPI PUSH1 0x4 CALLDATALOAD PUSH1 0x3A SLOAD DUP2 LT ISZERO PUSH2 0x1E6 JUMPI PUSH1 0x3A SLOAD DUP2 LT ISZERO PUSH2 0x375 JUMPI PUSH1 0x3A PUSH0 MSTORE PUSH32 0xA2999D817B6757290B50E8ECF3FA939673403DD35C97DE392FDB343B4015CE9E ADD SLOAD PUSH1 0x40 MLOAD PUSH1 0x1 PUSH1 0x1 PUSH1 0xA0 SHL SUB SWAP1 SWAP2 AND DUP2 MSTORE PUSH1 0x20 SWAP1 RETURN JUMPDEST CALLVALUE PUSH2 0x1E6 JUMPI PUSH0 CALLDATASIZE PUSH1 0x3 NOT ADD SLT PUSH2 0x1E6 JUMPI PUSH1 0x20 PUSH1 0x38 SLOAD PUSH1 0x40 MLOAD SWAP1 DUP2 MSTORE RETURN JUMPDEST CALLVALUE PUSH2 0x1E6 JUMPI PUSH1 0x20 CALLDATASIZE PUSH1 0x3 NOT ADD SLT PUSH2 0x1E6 JUMPI PUSH1 0x4 CALLDATALOAD PUSH0 MSTORE PUSH1 0x3B PUSH1 0x20 MSTORE PUSH1 0x40 PUSH0 KECCAK256 DUP1 SLOAD PUSH2 0x26C PUSH1 0x1 DUP4 ADD SLOAD SWAP3 PUSH1 0x2 DUP2 ADD SLOAD SWAP1 PUSH1 0x3 DUP2 ADD SLOAD PUSH1 0x4 DUP3 ADD SLOAD SWAP1 PUSH1 0xFF PUSH1 0x6 PUSH1 0x5 DUP6 ADD SLOAD SWAP5 ADD SLOAD AND SWAP4 PUSH1 0x40 MLOAD SWAP8 DUP9 SWAP8 DUP9 SWAP6 SWAP3 PUSH1 0xC0 SWAP6 SWAP3 SWAP9 SWAP8 SWAP5 SWAP2 SWAP9 PUSH1 0xE0 DUP9 ADD SWAP10 DUP9 MSTORE PUSH1 0x20 DUP9 ADD MSTORE PUSH1 0x40 DUP8 ADD MSTORE PUSH1 0x60 DUP7 ADD MSTORE PUSH1 0x80 DUP6 ADD MSTORE PUSH1 0xA0 DUP5 ADD MSTORE ISZERO ISZERO SWAP2 ADD MSTORE JUMP JUMPDEST CALLVALUE PUSH2 0x1E6 JUMPI PUSH1 0x40 CALLDATASIZE PUSH1 0x3 NOT ADD SLT PUSH2 0x1E6 JUMPI PUSH2 0x5E6 PUSH2 0x11D5 JUMP JUMPDEST PUSH1 0x4 CALLDATALOAD PUSH0 MSTORE PUSH1 0x3F PUSH1 0x20 MSTORE PUSH1 0x40 PUSH0 KECCAK256 SWAP1 PUSH1 0x1 DUP1 PUSH1 0xA0 SHL SUB AND PUSH0 MSTORE PUSH1 0x20 MSTORE PUSH1 0x20 PUSH1 0xFF PUSH1 0x40 PUSH0 KECCAK256 SLOAD AND PUSH1 0x40 MLOAD SWAP1 ISZERO ISZERO DUP2 MSTORE RETURN JUMPDEST PUSH0 CALLDATASIZE PUSH1 0x3 NOT ADD SLT PUSH2 0x1E6 JUMPI PUSH1 0x38 SLOAD PUSH3 0x278D00 DUP2 ADD DUP1 DUP3 GT PUSH2 0x8AB JUMPI TIMESTAMP LT ISZERO PUSH2 0x73B JUMPI JUMPDEST POP PUSH1 0x36 SLOAD PUSH0 MSTORE PUSH1 0x3E PUSH1 0x20 MSTORE PUSH1 0x40 PUSH0 KECCAK256 PUSH1 0x1 DUP1 PUSH1 0xA0 SHL SUB CALLER AND PUSH0 MSTORE PUSH1 0x20 MSTORE PUSH2 0x667 PUSH1 0xFF PUSH1 0x40 PUSH0 KECCAK256 SLOAD AND ISZERO PUSH2 0x1315 JUMP JUMPDEST PUSH1 0x3A SLOAD PUSH1 0x1 PUSH1 0x40 SHL DUP2 LT ISZERO PUSH2 0x727 JUMPI DUP1 PUSH1 0x1 PUSH2 0x688 SWAP3 ADD PUSH1 0x3A SSTORE PUSH1 0x3A PUSH2 0x11EB JUMP JUMPDEST DUP2 SLOAD SWAP1 PUSH1 0x3 SHL SWAP1 CALLER DUP3 SHL SWAP2 PUSH1 0x1 DUP1 PUSH1 0xA0 SHL SUB SWAP1 SHL NOT AND OR SWAP1 SSTORE PUSH1 0x36 SLOAD PUSH0 MSTORE PUSH1 0x3E PUSH1 0x20 MSTORE PUSH1 0x40 PUSH0 KECCAK256 PUSH1 0x1 DUP1 PUSH1 0xA0 SHL SUB CALLER AND PUSH0 MSTORE PUSH1 0x20 MSTORE PUSH1 0x40 PUSH0 KECCAK256 PUSH1 0x1 PUSH1 0xFF NOT DUP3 SLOAD AND OR SWAP1 SSTORE PUSH1 0x36 SLOAD PUSH32 0x577158C2E8120577A90C3A1EE00AD3D7ACBADBA003577F10F7BA8AE958C5AF42 PUSH1 0x40 MLOAD PUSH1 0x40 DUP2 MSTORE PUSH2 0x719 PUSH1 0x40 DUP3 ADD PUSH1 0x40 SWAP1 PUSH1 0x7 DUP2 MSTORE PUSH7 0x4D6F6E74686C79 PUSH1 0xC8 SHL PUSH1 0x20 DUP3 ADD MSTORE ADD SWAP1 JUMP JUMPDEST SWAP3 PUSH1 0x20 DUP3 ADD MSTORE DUP1 CALLER SWAP4 SUB SWAP1 LOG2 STOP JUMPDEST PUSH4 0x4E487B71 PUSH1 0xE0 SHL PUSH0 MSTORE PUSH1 0x41 PUSH1 0x4 MSTORE PUSH1 0x24 PUSH0 REVERT JUMPDEST PUSH1 0x3A SLOAD PUSH2 0x84C SWAP2 SELFBALANCE PUSH1 0x1 SHR SWAP2 PUSH32 0xB486E0C214F6D65E1072CC27C74ADA7881CA4CC7D3B577A0C141F48BA0FBFBF5 SWAP2 PUSH2 0x803 SWAP1 DUP3 ISZERO PUSH2 0x8A2 JUMPI PUSH1 0x6 PUSH2 0x77F DUP5 DUP8 PUSH2 0x1355 JUMP JUMPDEST SWAP6 JUMPDEST PUSH1 0x36 SLOAD SWAP1 PUSH2 0x78D PUSH2 0x1200 JUMP JUMPDEST SWAP4 DUP3 DUP6 MSTORE PUSH1 0x20 DUP6 ADD SWAP2 DUP8 DUP4 MSTORE PUSH1 0x40 DUP7 ADD SWAP1 DUP2 MSTORE PUSH1 0x60 DUP7 ADD SWAP1 DUP11 DUP3 MSTORE PUSH1 0x80 DUP8 ADD SWAP3 DUP4 MSTORE PUSH1 0xA0 DUP8 ADD SWAP4 TIMESTAMP DUP6 MSTORE PUSH1 0xC0 DUP9 ADD SWAP6 PUSH1 0x1 DUP8 MSTORE PUSH0 MSTORE PUSH1 0x3C PUSH1 0x20 MSTORE PUSH1 0x40 PUSH0 KECCAK256 SWAP8 MLOAD DUP9 SSTORE MLOAD PUSH1 0x1 DUP9 ADD SSTORE MLOAD PUSH1 0x2 DUP8 ADD SSTORE MLOAD PUSH1 0x3 DUP7 ADD SSTORE MLOAD PUSH1 0x4 DUP6 ADD SSTORE MLOAD PUSH1 0x5 DUP5 ADD SSTORE MLOAD ISZERO ISZERO SWAP2 ADD SWAP1 PUSH1 0xFF DUP1 NOT DUP4 SLOAD AND SWAP2 ISZERO ISZERO AND OR SWAP1 SSTORE JUMP JUMPDEST PUSH1 0x36 SLOAD SWAP3 PUSH1 0x40 MLOAD SWAP2 DUP3 SWAP2 PUSH1 0x80 DUP4 MSTORE PUSH2 0x833 PUSH1 0x80 DUP5 ADD PUSH1 0x40 SWAP1 PUSH1 0x7 DUP2 MSTORE PUSH7 0x4D6F6E74686C79 PUSH1 0xC8 SHL PUSH1 0x20 DUP3 ADD MSTORE ADD SWAP1 JUMP JUMPDEST SWAP2 DUP7 PUSH1 0x20 DUP6 ADD MSTORE PUSH1 0x40 DUP5 ADD MSTORE PUSH1 0x60 DUP4 ADD MSTORE SUB SWAP1 LOG1 PUSH2 0x1373 JUMP JUMPDEST PUSH1 0x36 SSTORE TIMESTAMP PUSH1 0x38 SSTORE PUSH1 0x3A SLOAD PUSH0 PUSH1 0x3A SSTORE DUP1 ISZERO PUSH2 0x639 JUMPI PUSH1 0x3A PUSH0 MSTORE PUSH32 0xA2999D817B6757290B50E8ECF3FA939673403DD35C97DE392FDB343B4015CE9E SWAP1 DUP2 ADD SWAP1 JUMPDEST DUP2 DUP2 LT PUSH2 0x897 JUMPI POP PUSH2 0x639 JUMP JUMPDEST PUSH0 DUP2 SSTORE PUSH1 0x1 ADD PUSH2 0x88A JUMP JUMPDEST PUSH1 0x6 PUSH0 SWAP6 PUSH2 0x781 JUMP JUMPDEST PUSH4 0x4E487B71 PUSH1 0xE0 SHL PUSH0 MSTORE PUSH1 0x11 PUSH1 0x4 MSTORE PUSH1 0x24 PUSH0 REVERT JUMPDEST CALLVALUE PUSH2 0x1E6 JUMPI PUSH1 0x60 CALLDATASIZE PUSH1 0x3 NOT ADD SLT PUSH2 0x1E6 JUMPI PUSH1 0x4 CALLDATALOAD PUSH1 0x1 PUSH1 0x1 PUSH1 0xA0 SHL SUB DUP2 AND DUP2 SUB PUSH2 0x1E6 JUMPI PUSH1 0x24 CALLDATALOAD PUSH1 0x44 CALLDATALOAD SWAP2 DUP3 ISZERO ISZERO DUP4 SUB PUSH2 0x1E6 JUMPI PUSH1 0x80 SWAP3 ISZERO PUSH2 0x9C2 JUMPI DUP2 PUSH0 MSTORE PUSH1 0x3B PUSH1 0x20 MSTORE PUSH1 0x40 PUSH0 KECCAK256 SWAP1 PUSH2 0x910 PUSH2 0x1200 JUMP JUMPDEST SWAP1 DUP3 SLOAD DUP3 MSTORE PUSH1 0x1 DUP4 ADD SLOAD PUSH1 0x20 DUP4 ADD MSTORE PUSH1 0x2 DUP4 ADD SLOAD PUSH1 0x40 DUP4 ADD MSTORE PUSH1 0xC0 PUSH1 0xFF PUSH1 0x6 PUSH1 0x3 DUP7 ADD SLOAD SWAP6 PUSH1 0x60 DUP7 ADD SWAP7 DUP8 MSTORE PUSH1 0x4 DUP2 ADD SLOAD DUP10 DUP8 ADD MSTORE PUSH1 0x5 DUP2 ADD SLOAD PUSH1 0xA0 DUP8 ADD MSTORE ADD SLOAD AND SWAP3 ADD SWAP2 ISZERO ISZERO DUP3 MSTORE DUP4 PUSH0 MSTORE PUSH1 0x3D PUSH1 0x20 MSTORE PUSH1 0x40 PUSH0 KECCAK256 PUSH1 0x1 DUP1 PUSH1 0xA0 SHL SUB DUP3 AND PUSH0 MSTORE PUSH1 0x20 MSTORE PUSH1 0xFF PUSH1 0x40 PUSH0 KECCAK256 SLOAD AND SWAP4 PUSH0 MSTORE PUSH1 0x3F PUSH1 0x20 MSTORE PUSH1 0x40 PUSH0 KECCAK256 SWAP1 PUSH1 0x1 DUP1 PUSH1 0xA0 SHL SUB AND PUSH0 MSTORE PUSH1 0x20 MSTORE PUSH1 0xFF PUSH1 0x40 PUSH0 KECCAK256 SLOAD AND SWAP2 MLOAD SWAP1 MLOAD ISZERO ISZERO SWAP2 JUMPDEST PUSH1 0x40 MLOAD SWAP4 ISZERO ISZERO DUP5 MSTORE ISZERO ISZERO PUSH1 0x20 DUP5 ADD MSTORE PUSH1 0x40 DUP4 ADD MSTORE ISZERO ISZERO PUSH1 0x60 DUP3 ADD MSTORE RETURN JUMPDEST DUP2 PUSH0 MSTORE PUSH1 0x3C PUSH1 0x20 MSTORE PUSH1 0x40 PUSH0 KECCAK256 SWAP1 PUSH2 0x9D7 PUSH2 0x1200 JUMP JUMPDEST SWAP1 DUP3 SLOAD DUP3 MSTORE PUSH1 0x1 DUP4 ADD SLOAD PUSH1 0x20 DUP4 ADD MSTORE PUSH1 0x2 DUP4 ADD SLOAD PUSH1 0x40 DUP4 ADD MSTORE PUSH1 0xC0 PUSH1 0xFF PUSH1 0x6 PUSH1 0x3 DUP7 ADD SLOAD SWAP6 PUSH1 0x60 DUP7 ADD SWAP7 DUP8 MSTORE PUSH1 0x4 DUP2 ADD SLOAD DUP10 DUP8 ADD MSTORE PUSH1 0x5 DUP2 ADD SLOAD PUSH1 0xA0 DUP8 ADD MSTORE ADD SLOAD AND SWAP3 ADD SWAP2 ISZERO ISZERO DUP3 MSTORE DUP4 PUSH0 MSTORE PUSH1 0x3E PUSH1 0x20 MSTORE PUSH1 0x40 PUSH0 KECCAK256 PUSH1 0x1 DUP1 PUSH1 0xA0 SHL SUB DUP3 AND PUSH0 MSTORE PUSH1 0x20 MSTORE PUSH1 0xFF PUSH1 0x40 PUSH0 KECCAK256 SLOAD AND SWAP4 PUSH0 MSTORE PUSH1 0x40 PUSH1 0x20 MSTORE PUSH1 0x40 PUSH0 KECCAK256 SWAP1 PUSH1 0x1 DUP1 PUSH1 0xA0 SHL SUB AND PUSH0 MSTORE PUSH1 0x20 MSTORE PUSH1 0xFF PUSH1 0x40 PUSH0 KECCAK256 SLOAD AND SWAP2 MLOAD SWAP1 MLOAD ISZERO ISZERO SWAP2 PUSH2 0x9A5 JUMP JUMPDEST CALLVALUE PUSH2 0x1E6 JUMPI PUSH1 0x20 CALLDATASIZE PUSH1 0x3 NOT ADD SLT PUSH2 0x1E6 JUMPI PUSH1 0x4 CALLDATALOAD PUSH1 0x8 DUP2 LT ISZERO PUSH2 0x1E6 JUMPI PUSH1 0x20 SWAP1 PUSH1 0x18 ADD SLOAD PUSH1 0x40 MLOAD SWAP1 DUP2 MSTORE RETURN JUMPDEST CALLVALUE PUSH2 0x1E6 JUMPI PUSH0 CALLDATASIZE PUSH1 0x3 NOT ADD SLT PUSH2 0x1E6 JUMPI PUSH1 0x1 SLOAD PUSH1 0x40 MLOAD PUSH1 0x1 PUSH1 0x1 PUSH1 0xA0 SHL SUB SWAP1 SWAP2 AND DUP2 MSTORE PUSH1 0x20 SWAP1 RETURN JUMPDEST CALLVALUE PUSH2 0x1E6 JUMPI PUSH0 CALLDATASIZE PUSH1 0x3 NOT ADD SLT PUSH2 0x1E6 JUMPI PUSH1 0x20 PUSH1 0x31 SLOAD PUSH1 0x40 MLOAD SWAP1 DUP2 MSTORE RETURN JUMPDEST CALLVALUE PUSH2 0x1E6 JUMPI PUSH0 CALLDATASIZE PUSH1 0x3 NOT ADD SLT PUSH2 0x1E6 JUMPI PUSH1 0x20 PUSH1 0x40 MLOAD PUSH3 0x93A80 DUP2 MSTORE RETURN JUMPDEST PUSH0 CALLDATASIZE PUSH1 0x3 NOT ADD SLT PUSH2 0x1E6 JUMPI PUSH1 0x37 SLOAD PUSH3 0x93A80 DUP2 ADD DUP1 DUP3 GT PUSH2 0x8AB JUMPI TIMESTAMP LT ISZERO PUSH2 0xC00 JUMPI JUMPDEST POP PUSH1 0x35 SLOAD PUSH0 MSTORE PUSH1 0x3D PUSH1 0x20 MSTORE PUSH1 0x40 PUSH0 KECCAK256 PUSH1 0x1 DUP1 PUSH1 0xA0 SHL SUB CALLER AND PUSH0 MSTORE PUSH1 0x20 MSTORE PUSH2 0xB4F PUSH1 0xFF PUSH1 0x40 PUSH0 KECCAK256 SLOAD AND ISZERO PUSH2 0x1315 JUMP JUMPDEST PUSH1 0x39 SLOAD PUSH1 0x1 PUSH1 0x40 SHL DUP2 LT ISZERO PUSH2 0x727 JUMPI DUP1 PUSH1 0x1 PUSH2 0xB70 SWAP3 ADD PUSH1 0x39 SSTORE PUSH1 0x39 PUSH2 0x11EB JUMP JUMPDEST DUP2 SLOAD SWAP1 PUSH1 0x3 SHL SWAP1 CALLER DUP3 SHL SWAP2 PUSH1 0x1 DUP1 PUSH1 0xA0 SHL SUB SWAP1 SHL NOT AND OR SWAP1 SSTORE PUSH1 0x35 SLOAD PUSH0 MSTORE PUSH1 0x3D PUSH1 0x20 MSTORE PUSH1 0x40 PUSH0 KECCAK256 PUSH1 0x1 DUP1 PUSH1 0xA0 SHL SUB CALLER AND PUSH0 MSTORE PUSH1 0x20 MSTORE PUSH1 0x40 PUSH0 KECCAK256 PUSH1 0x1 PUSH1 0xFF NOT DUP3 SLOAD AND OR SWAP1 SSTORE PUSH1 0x35 SLOAD PUSH32 0x577158C2E8120577A90C3A1EE00AD3D7ACBADBA003577F10F7BA8AE958C5AF42 PUSH1 0x40 MLOAD PUSH1 0x40 DUP2 MSTORE PUSH2 0x719 PUSH1 0x40 DUP3 ADD PUSH1 0x40 SWAP1 PUSH1 0x6 DUP2 MSTORE PUSH6 0x5765656B6C79 PUSH1 0xD0 SHL PUSH1 0x20 DUP3 ADD MSTORE ADD SWAP1 JUMP JUMPDEST PUSH1 0x39 SLOAD PUSH2 0xCF7 SWAP2 SELFBALANCE PUSH1 0x1 SHR SWAP2 PUSH32 0xB486E0C214F6D65E1072CC27C74ADA7881CA4CC7D3B577A0C141F48BA0FBFBF5 SWAP2 PUSH2 0xCC8 SWAP1 DUP3 ISZERO PUSH2 0xD4D JUMPI PUSH1 0x6 PUSH2 0xC44 DUP5 DUP8 PUSH2 0x1355 JUMP JUMPDEST SWAP6 JUMPDEST PUSH1 0x35 SLOAD SWAP1 PUSH2 0xC52 PUSH2 0x1200 JUMP JUMPDEST SWAP4 DUP3 DUP6 MSTORE PUSH1 0x20 DUP6 ADD SWAP2 DUP8 DUP4 MSTORE PUSH1 0x40 DUP7 ADD SWAP1 DUP2 MSTORE PUSH1 0x60 DUP7 ADD SWAP1 DUP11 DUP3 MSTORE PUSH1 0x80 DUP8 ADD SWAP3 DUP4 MSTORE PUSH1 0xA0 DUP8 ADD SWAP4 TIMESTAMP DUP6 MSTORE PUSH1 0xC0 DUP9 ADD SWAP6 PUSH1 0x1 DUP8 MSTORE PUSH0 MSTORE PUSH1 0x3B PUSH1 0x20 MSTORE PUSH1 0x40 PUSH0 KECCAK256 SWAP8 MLOAD DUP9 SSTORE MLOAD PUSH1 0x1 DUP9 ADD SSTORE MLOAD PUSH1 0x2 DUP8 ADD SSTORE MLOAD PUSH1 0x3 DUP7 ADD SSTORE MLOAD PUSH1 0x4 DUP6 ADD SSTORE MLOAD PUSH1 0x5 DUP5 ADD SSTORE MLOAD ISZERO ISZERO SWAP2 ADD SWAP1 PUSH1 0xFF DUP1 NOT DUP4 SLOAD AND SWAP2 ISZERO ISZERO AND OR SWAP1 SSTORE JUMP JUMPDEST PUSH1 0x35 SLOAD SWAP3 PUSH1 0x40 MLOAD SWAP2 DUP3 SWAP2 PUSH1 0x80 DUP4 MSTORE PUSH2 0x833 PUSH1 0x80 DUP5 ADD PUSH1 0x40 SWAP1 PUSH1 0x6 DUP2 MSTORE PUSH6 0x5765656B6C79 PUSH1 0xD0 SHL PUSH1 0x20 DUP3 ADD MSTORE ADD SWAP1 JUMP JUMPDEST PUSH1 0x35 SSTORE TIMESTAMP PUSH1 0x37 SSTORE PUSH1 0x39 SLOAD PUSH0 PUSH1 0x39 SSTORE DUP1 ISZERO PUSH2 0xB21 JUMPI PUSH1 0x39 PUSH0 MSTORE PUSH32 0xDC16FEF70F8D5DDBC01EE3D903D1E69C18A3C7BE080EB86A81E0578814EE58D3 SWAP1 DUP2 ADD SWAP1 JUMPDEST DUP2 DUP2 LT PUSH2 0xD42 JUMPI POP PUSH2 0xB21 JUMP JUMPDEST PUSH0 DUP2 SSTORE PUSH1 0x1 ADD PUSH2 0xD35 JUMP JUMPDEST PUSH1 0x6 PUSH0 SWAP6 PUSH2 0xC46 JUMP JUMPDEST CALLVALUE PUSH2 0x1E6 JUMPI PUSH1 0x40 CALLDATASIZE PUSH1 0x3 NOT ADD SLT PUSH2 0x1E6 JUMPI PUSH2 0xD6F PUSH2 0x11D5 JUMP JUMPDEST PUSH1 0x4 CALLDATALOAD PUSH0 MSTORE PUSH1 0x3E PUSH1 0x20 MSTORE PUSH1 0x40 PUSH0 KECCAK256 SWAP1 PUSH1 0x1 DUP1 PUSH1 0xA0 SHL SUB AND PUSH0 MSTORE PUSH1 0x20 MSTORE PUSH1 0x20 PUSH1 0xFF PUSH1 0x40 PUSH0 KECCAK256 SLOAD AND PUSH1 0x40 MLOAD SWAP1 ISZERO ISZERO DUP2 MSTORE RETURN JUMPDEST CALLVALUE PUSH2 0x1E6 JUMPI PUSH0 CALLDATASIZE PUSH1 0x3 NOT ADD SLT PUSH2 0x1E6 JUMPI PUSH1 0x20 PUSH1 0x40 MLOAD PUSH1 0xA DUP2 MSTORE RETURN JUMPDEST CALLVALUE PUSH2 0x1E6 JUMPI PUSH1 0x20 CALLDATASIZE PUSH1 0x3 NOT ADD SLT PUSH2 0x1E6 JUMPI PUSH1 0x4 CALLDATALOAD DUP1 PUSH0 MSTORE PUSH1 0x3C PUSH1 0x20 MSTORE PUSH32 0x1A3BE26D9BA470AD16BB376AA13666C5C90511B63416723049A5ADFFEAEFA647 PUSH1 0x40 PUSH0 KECCAK256 PUSH2 0xE54 PUSH1 0xC0 PUSH2 0xE08 PUSH2 0x1200 JUMP JUMPDEST DUP4 SLOAD DUP2 MSTORE PUSH1 0x1 DUP5 ADD SLOAD PUSH1 0x20 DUP3 ADD MSTORE PUSH1 0x2 DUP5 ADD SLOAD PUSH1 0x40 DUP3 ADD MSTORE PUSH1 0xFF PUSH1 0x6 PUSH1 0x3 DUP7 ADD SLOAD SWAP6 PUSH1 0x60 DUP5 ADD SWAP7 DUP8 MSTORE PUSH1 0x4 DUP2 ADD SLOAD PUSH1 0x80 DUP6 ADD MSTORE PUSH1 0x5 DUP2 ADD SLOAD PUSH1 0xA0 DUP6 ADD MSTORE ADD SLOAD AND ISZERO ISZERO SWAP2 DUP3 SWAP2 ADD MSTORE PUSH2 0x1220 JUMP JUMPDEST PUSH0 DUP4 DUP2 MSTORE PUSH1 0x3E PUSH1 0x20 SWAP1 DUP2 MSTORE PUSH1 0x40 DUP1 DUP4 KECCAK256 CALLER DUP5 MSTORE SWAP1 SWAP2 MSTORE SWAP1 KECCAK256 SLOAD PUSH2 0xE79 SWAP1 PUSH1 0xFF AND PUSH2 0x1263 JUMP JUMPDEST PUSH0 DUP4 DUP2 MSTORE PUSH1 0x40 PUSH1 0x20 DUP2 DUP2 MSTORE DUP2 DUP4 KECCAK256 CALLER DUP5 MSTORE SWAP1 MSTORE SWAP1 KECCAK256 SLOAD PUSH2 0xE9C SWAP1 PUSH1 0xFF AND ISZERO PUSH2 0x129F JUMP JUMPDEST PUSH2 0xEA8 DUP2 MLOAD ISZERO ISZERO PUSH2 0x12DD JUMP JUMPDEST PUSH0 DUP4 DUP2 MSTORE PUSH1 0x40 PUSH1 0x20 DUP2 DUP2 MSTORE DUP2 DUP4 KECCAK256 CALLER DUP5 MSTORE SWAP1 MSTORE SWAP1 DUP2 SWAP1 KECCAK256 DUP1 SLOAD PUSH1 0xFF NOT AND PUSH1 0x1 OR SWAP1 SSTORE SWAP1 MLOAD SWAP1 MLOAD PUSH1 0x60 DUP1 DUP3 MSTORE PUSH1 0x7 SWAP1 DUP3 ADD MSTORE PUSH7 0x4D6F6E74686C79 PUSH1 0xC8 SHL PUSH1 0x80 DUP3 ADD MSTORE SWAP1 PUSH1 0xA0 DUP3 ADD JUMPDEST SWAP4 PUSH1 0x20 DUP4 ADD MSTORE PUSH1 0x40 DUP3 ADD MSTORE DUP1 CALLER SWAP4 SUB SWAP1 LOG2 STOP JUMPDEST CALLVALUE PUSH2 0x1E6 JUMPI PUSH1 0x20 CALLDATASIZE PUSH1 0x3 NOT ADD SLT PUSH2 0x1E6 JUMPI PUSH1 0x4 CALLDATALOAD PUSH1 0x33 SLOAD DUP2 LT ISZERO PUSH2 0x1E6 JUMPI PUSH1 0x33 SLOAD DUP2 LT ISZERO PUSH2 0x375 JUMPI PUSH1 0x33 PUSH0 MSTORE PUSH32 0x82A75BDEEAE8604D839476AE9EFD8B0E15AA447E21BFD7F41283BB54E22C9A82 ADD SLOAD PUSH1 0x40 MLOAD SWAP1 DUP2 MSTORE PUSH1 0x20 SWAP1 RETURN JUMPDEST CALLVALUE PUSH2 0x1E6 JUMPI PUSH0 CALLDATASIZE PUSH1 0x3 NOT ADD SLT PUSH2 0x1E6 JUMPI PUSH1 0x20 PUSH1 0x40 MLOAD PUSH1 0xF DUP2 MSTORE RETURN JUMPDEST CALLVALUE PUSH2 0x1E6 JUMPI PUSH0 CALLDATASIZE PUSH1 0x3 NOT ADD SLT PUSH2 0x1E6 JUMPI PUSH1 0x20 PUSH1 0x40 MLOAD PUSH8 0xDE0B6B3A7640000 DUP2 MSTORE RETURN JUMPDEST CALLVALUE PUSH2 0x1E6 JUMPI PUSH0 CALLDATASIZE PUSH1 0x3 NOT ADD SLT PUSH2 0x1E6 JUMPI PUSH1 0x20 PUSH1 0x40 MLOAD PUSH3 0x15180 DUP2 MSTORE RETURN JUMPDEST CALLVALUE PUSH2 0x1E6 JUMPI PUSH0 CALLDATASIZE PUSH1 0x3 NOT ADD SLT PUSH2 0x1E6 JUMPI PUSH0 SLOAD PUSH1 0x40 MLOAD PUSH1 0x1 PUSH1 0x1 PUSH1 0xA0 SHL SUB SWAP1 SWAP2 AND DUP2 MSTORE PUSH1 0x20 SWAP1 RETURN JUMPDEST CALLVALUE PUSH2 0x1E6 JUMPI PUSH0 CALLDATASIZE PUSH1 0x3 NOT ADD SLT PUSH2 0x1E6 JUMPI PUSH1 0x20 PUSH1 0x40 MLOAD PUSH3 0x278D00 DUP2 MSTORE RETURN JUMPDEST CALLVALUE PUSH2 0x1E6 JUMPI PUSH1 0x20 CALLDATASIZE PUSH1 0x3 NOT ADD SLT PUSH2 0x1E6 JUMPI PUSH1 0x4 CALLDATALOAD PUSH1 0x8 SLOAD DUP2 LT ISZERO PUSH2 0x1E6 JUMPI PUSH1 0x8 SLOAD DUP2 LT ISZERO PUSH2 0x375 JUMPI PUSH1 0x8 PUSH0 MSTORE PUSH32 0xF3F7A9FE364FAAB93B216DA50A3214154F22A0A2B415B23A84C8169E8B636EE3 ADD SLOAD PUSH1 0x40 MLOAD SWAP1 DUP2 MSTORE PUSH1 0x20 SWAP1 RETURN JUMPDEST CALLVALUE PUSH2 0x1E6 JUMPI PUSH1 0x20 CALLDATASIZE PUSH1 0x3 NOT ADD SLT PUSH2 0x1E6 JUMPI PUSH1 0x4 CALLDATALOAD PUSH1 0x7 DUP2 LT ISZERO PUSH2 0x1E6 JUMPI PUSH1 0x20 SWAP1 PUSH1 0x9 ADD SLOAD PUSH1 0x40 MLOAD SWAP1 DUP2 MSTORE RETURN JUMPDEST CALLVALUE PUSH2 0x1E6 JUMPI PUSH1 0x40 CALLDATASIZE PUSH1 0x3 NOT ADD SLT PUSH2 0x1E6 JUMPI PUSH2 0x1099 PUSH2 0x11D5 JUMP JUMPDEST PUSH1 0x4 CALLDATALOAD PUSH0 MSTORE PUSH1 0x40 PUSH1 0x20 MSTORE PUSH1 0x40 PUSH0 KECCAK256 SWAP1 PUSH1 0x1 DUP1 PUSH1 0xA0 SHL SUB AND PUSH0 MSTORE PUSH1 0x20 MSTORE PUSH1 0x20 PUSH1 0xFF PUSH1 0x40 PUSH0 KECCAK256 SLOAD AND PUSH1 0x40 MLOAD SWAP1 ISZERO ISZERO DUP2 MSTORE RETURN JUMPDEST CALLVALUE PUSH2 0x1E6 JUMPI PUSH1 0x20 CALLDATASIZE PUSH1 0x3 NOT ADD SLT PUSH2 0x1E6 JUMPI PUSH1 0x4 CALLDATALOAD DUP1 PUSH0 MSTORE PUSH1 0x3B PUSH1 0x20 MSTORE PUSH32 0x1A3BE26D9BA470AD16BB376AA13666C5C90511B63416723049A5ADFFEAEFA647 PUSH1 0x40 PUSH0 KECCAK256 PUSH2 0x1117 PUSH1 0xC0 PUSH2 0xE08 PUSH2 0x1200 JUMP JUMPDEST PUSH0 DUP4 DUP2 MSTORE PUSH1 0x3D PUSH1 0x20 SWAP1 DUP2 MSTORE PUSH1 0x40 DUP1 DUP4 KECCAK256 CALLER DUP5 MSTORE SWAP1 SWAP2 MSTORE SWAP1 KECCAK256 SLOAD PUSH2 0x113C SWAP1 PUSH1 0xFF AND PUSH2 0x1263 JUMP JUMPDEST PUSH0 DUP4 DUP2 MSTORE PUSH1 0x3F PUSH1 0x20 SWAP1 DUP2 MSTORE PUSH1 0x40 DUP1 DUP4 KECCAK256 CALLER DUP5 MSTORE SWAP1 SWAP2 MSTORE SWAP1 KECCAK256 SLOAD PUSH2 0x1162 SWAP1 PUSH1 0xFF AND ISZERO PUSH2 0x129F JUMP JUMPDEST PUSH2 0x116E DUP2 MLOAD ISZERO ISZERO PUSH2 0x12DD JUMP JUMPDEST PUSH0 DUP4 DUP2 MSTORE PUSH1 0x3F PUSH1 0x20 SWAP1 DUP2 MSTORE PUSH1 0x40 DUP1 DUP4 KECCAK256 CALLER DUP5 MSTORE SWAP1 SWAP2 MSTORE SWAP1 DUP2 SWAP1 KECCAK256 DUP1 SLOAD PUSH1 0xFF NOT AND PUSH1 0x1 OR SWAP1 SSTORE SWAP1 MLOAD SWAP1 MLOAD PUSH1 0x60 DUP1 DUP3 MSTORE PUSH1 0x6 SWAP1 DUP3 ADD MSTORE PUSH6 0x5765656B6C79 PUSH1 0xD0 SHL PUSH1 0x80 DUP3 ADD MSTORE SWAP1 PUSH1 0xA0 DUP3 ADD PUSH2 0xEEF JUMP JUMPDEST CALLVALUE PUSH2 0x1E6 JUMPI PUSH0 CALLDATASIZE PUSH1 0x3 NOT ADD SLT PUSH2 0x1E6 JUMPI DUP1 PUSH2 0x2710 PUSH1 0x20 SWAP3 MSTORE RETURN JUMPDEST PUSH1 0x24 CALLDATALOAD SWAP1 PUSH1 0x1 PUSH1 0x1 PUSH1 0xA0 SHL SUB DUP3 AND DUP3 SUB PUSH2 0x1E6 JUMPI JUMP JUMPDEST DUP1 SLOAD DUP3 LT ISZERO PUSH2 0x375 JUMPI PUSH0 MSTORE PUSH1 0x20 PUSH0 KECCAK256 ADD SWAP1 PUSH0 SWAP1 JUMP JUMPDEST PUSH1 0x40 MLOAD SWAP1 PUSH1 0xE0 DUP3 ADD DUP3 DUP2 LT PUSH8 0xFFFFFFFFFFFFFFFF DUP3 GT OR PUSH2 0x727 JUMPI PUSH1 0x40 MSTORE JUMP JUMPDEST ISZERO PUSH2 0x1227 JUMPI JUMP JUMPDEST PUSH1 0x40 MLOAD PUSH3 0x461BCD PUSH1 0xE5 SHL DUP2 MSTORE PUSH1 0x20 PUSH1 0x4 DUP3 ADD MSTORE PUSH1 0x14 PUSH1 0x24 DUP3 ADD MSTORE PUSH20 0x149BDD5B99081B9BDD0818DB1BDCD959081E595D PUSH1 0x62 SHL PUSH1 0x44 DUP3 ADD MSTORE PUSH1 0x64 SWAP1 REVERT JUMPDEST ISZERO PUSH2 0x126A JUMPI JUMP JUMPDEST PUSH1 0x40 MLOAD PUSH3 0x461BCD PUSH1 0xE5 SHL DUP2 MSTORE PUSH1 0x20 PUSH1 0x4 DUP3 ADD MSTORE PUSH1 0xD PUSH1 0x24 DUP3 ADD MSTORE PUSH13 0x139BDD081C5D585B1A599A5959 PUSH1 0x9A SHL PUSH1 0x44 DUP3 ADD MSTORE PUSH1 0x64 SWAP1 REVERT JUMPDEST ISZERO PUSH2 0x12A6 JUMPI JUMP JUMPDEST PUSH1 0x40 MLOAD PUSH3 0x461BCD PUSH1 0xE5 SHL DUP2 MSTORE PUSH1 0x20 PUSH1 0x4 DUP3 ADD MSTORE PUSH1 0xF PUSH1 0x24 DUP3 ADD MSTORE PUSH15 0x105B1C9958591E4818DB185A5B5959 PUSH1 0x8A SHL PUSH1 0x44 DUP3 ADD MSTORE PUSH1 0x64 SWAP1 REVERT JUMPDEST ISZERO PUSH2 0x12E4 JUMPI JUMP JUMPDEST PUSH1 0x40 MLOAD PUSH3 0x461BCD PUSH1 0xE5 SHL DUP2 MSTORE PUSH1 0x20 PUSH1 0x4 DUP3 ADD MSTORE PUSH1 0x9 PUSH1 0x24 DUP3 ADD MSTORE PUSH9 0x139BC81C995DD85C99 PUSH1 0xBA SHL PUSH1 0x44 DUP3 ADD MSTORE PUSH1 0x64 SWAP1 REVERT JUMPDEST ISZERO PUSH2 0x131C JUMPI JUMP JUMPDEST PUSH1 0x40 MLOAD PUSH3 0x461BCD PUSH1 0xE5 SHL DUP2 MSTORE PUSH1 0x20 PUSH1 0x4 DUP3 ADD MSTORE PUSH1 0x11 PUSH1 0x24 DUP3 ADD MSTORE PUSH17 0x105B1C9958591E481C5D585B1A599A5959 PUSH1 0x7A SHL PUSH1 0x44 DUP3 ADD MSTORE PUSH1 0x64 SWAP1 REVERT JUMPDEST DUP2 ISZERO PUSH2 0x135F JUMPI DIV SWAP1 JUMP JUMPDEST PUSH4 0x4E487B71 PUSH1 0xE0 SHL PUSH0 MSTORE PUSH1 0x12 PUSH1 0x4 MSTORE PUSH1 0x24 PUSH0 REVERT JUMPDEST PUSH0 NOT DUP2 EQ PUSH2 0x8AB JUMPI PUSH1 0x1 ADD SWAP1 JUMP INVALID LOG2 PUSH5 0x6970667358 0x22 SLT KECCAK256 CALLVALUE CALLVALUE DUP5 KECCAK256 SWAP6 0xC2 MOD CODESIZE SWAP7 REVERT SWAP11 0xBE 0x24 BALANCE PUSH22 0x3CDF728CDAA6D554D4529810A7EC41B1A464736F6C63 NUMBER STOP ADDMOD 0x1E STOP CALLER "
				},
				"gasEstimates": {
					"creation": {
						"codeDepositCost": "1009400",
						"executionCost": "infinite",
						"totalCost": "infinite"
					},
					"external": {
						"ACC_PRECISION()": "329",
						"MONTH_DURATION()": "263",
						"PERCENTS_DIVIDER()": "148",
						"ROI_CAP_DIVIDER()": "417",
						"ROI_CAP_MULTIPLIER()": "351",
						"TIME_STEP()": "307",
						"WEEK_DURATION()": "483",
						"claimMonthlyReward(uint256)": "46969",
						"claimWeeklyReward(uint256)": "46772",
						"communityAccPerUser()": "2608",
						"creatorWallet()": "2654",
						"currentMonthlyRound()": "2938",
						"currentWeeklyRound()": "2960",
						"defaultRefId()": "3026",
						"getUserRoundStatus(address,uint256,bool)": "20307",
						"glbBoosterPackages(uint256)": "6615",
						"hasClaimedMonthly(uint256,address)": "2529",
						"hasClaimedWeekly(uint256,address)": "2947",
						"isMonthlyQualified(uint256,address)": "2771",
						"isWeeklyQualified(uint256,address)": "3079",
						"lastMonthlyReset()": "2762",
						"lastWeeklyReset()": "2894",
						"minLevelForGlbBooster(uint256)": "3020",
						"minLevelForPool(uint256)": "2360",
						"minPoolForGlbBooster(uint256)": "2690",
						"monthlyRounds(uint256)": "15947",
						"packages(uint256)": "7187",
						"poolPackages(uint256)": "7099",
						"qualifiedMonthly(uint256)": "7076",
						"qualifiedWeekly(uint256)": "7098",
						"qualifyMonthly()": "infinite",
						"qualifyWeekly()": "infinite",
						"registeredUserIds(uint256)": "6747",
						"systemMaintance()": "3028",
						"teamDevelopment()": "3091",
						"totalUsers()": "2872",
						"usdt()": "2411",
						"weeklyRounds(uint256)": "15639"
					},
					"internal": {
						"_checkMonthlyRound()": "infinite",
						"_checkWeeklyRound()": "infinite",
						"_endMonthlyRound()": "infinite",
						"_endWeeklyRound()": "infinite"
					}
				},
				"methodIdentifiers": {
					"ACC_PRECISION()": "32fcd966",
					"MONTH_DURATION()": "2a891534",
					"PERCENTS_DIVIDER()": "01c234a8",
					"ROI_CAP_DIVIDER()": "58c7d352",
					"ROI_CAP_MULTIPLIER()": "375b43b4",
					"TIME_STEP()": "32bc298c",
					"WEEK_DURATION()": "76f5f700",
					"claimMonthlyReward(uint256)": "51a4f04e",
					"claimWeeklyReward(uint256)": "0a3f5a42",
					"communityAccPerUser()": "78f6ad6d",
					"creatorWallet()": "7cdc65f2",
					"currentMonthlyRound()": "c9ed0708",
					"currentWeeklyRound()": "ca8e9121",
					"defaultRefId()": "ec597e6f",
					"getUserRoundStatus(address,uint256,bool)": "9680003d",
					"glbBoosterPackages(uint256)": "2350268f",
					"hasClaimedMonthly(uint256,address)": "1c1da18e",
					"hasClaimedWeekly(uint256,address)": "a22b9e87",
					"isMonthlyQualified(uint256,address)": "5e5bb367",
					"isWeeklyQualified(uint256,address)": "b4ba97fc",
					"lastMonthlyReset()": "a6791eae",
					"lastWeeklyReset()": "c1c13b2f",
					"minLevelForGlbBooster(uint256)": "d0a2fd79",
					"minLevelForPool(uint256)": "2132d204",
					"minPoolForGlbBooster(uint256)": "956a3228",
					"monthlyRounds(uint256)": "ef4549eb",
					"packages(uint256)": "c216212a",
					"poolPackages(uint256)": "ae4708dc",
					"qualifiedMonthly(uint256)": "a80fee55",
					"qualifiedWeekly(uint256)": "ad127e6b",
					"qualifyMonthly()": "a058dc09",
					"qualifyWeekly()": "6b77c79d",
					"registeredUserIds(uint256)": "39ab3603",
					"systemMaintance()": "e9e34a16",
					"teamDevelopment()": "f5d74d93",
					"totalUsers()": "bff1f9e1",
					"usdt()": "2f48ab7d",
					"weeklyRounds(uint256)": "a56b1815"
				}
			},
			"storageLayout": {
				"storage": [
					{
						"astId": 667,
						"contract": "contracts/modules/ContestRoyalty.sol:ContestRoyalty",
						"label": "usdt",
						"offset": 0,
						"slot": "0",
						"type": "t_contract(IERC20)68"
					},
					{
						"astId": 669,
						"contract": "contracts/modules/ContestRoyalty.sol:ContestRoyalty",
						"label": "creatorWallet",
						"offset": 0,
						"slot": "1",
						"type": "t_address"
					},
					{
						"astId": 671,
						"contract": "contracts/modules/ContestRoyalty.sol:ContestRoyalty",
						"label": "systemMaintance",
						"offset": 0,
						"slot": "2",
						"type": "t_address"
					},
					{
						"astId": 673,
						"contract": "contracts/modules/ContestRoyalty.sol:ContestRoyalty",
						"label": "teamDevelopment",
						"offset": 0,
						"slot": "3",
						"type": "t_address"
					},
					{
						"astId": 675,
						"contract": "contracts/modules/ContestRoyalty.sol:ContestRoyalty",
						"label": "defaultRefId",
						"offset": 0,
						"slot": "4",
						"type": "t_uint256"
					},
					{
						"astId": 677,
						"contract": "contracts/modules/ContestRoyalty.sol:ContestRoyalty",
						"label": "totalUsers",
						"offset": 0,
						"slot": "5",
						"type": "t_uint256"
					},
					{
						"astId": 741,
						"contract": "contracts/modules/ContestRoyalty.sol:ContestRoyalty",
						"label": "packages",
						"offset": 0,
						"slot": "6",
						"type": "t_array(t_uint256)dyn_storage"
					},
					{
						"astId": 752,
						"contract": "contracts/modules/ContestRoyalty.sol:ContestRoyalty",
						"label": "poolPackages",
						"offset": 0,
						"slot": "7",
						"type": "t_array(t_uint256)dyn_storage"
					},
					{
						"astId": 764,
						"contract": "contracts/modules/ContestRoyalty.sol:ContestRoyalty",
						"label": "glbBoosterPackages",
						"offset": 0,
						"slot": "8",
						"type": "t_array(t_uint256)dyn_storage"
					},
					{
						"astId": 776,
						"contract": "contracts/modules/ContestRoyalty.sol:ContestRoyalty",
						"label": "minLevelForPool",
						"offset": 0,
						"slot": "9",
						"type": "t_array(t_uint256)7_storage"
					},
					{
						"astId": 789,
						"contract": "contracts/modules/ContestRoyalty.sol:ContestRoyalty",
						"label": "minLevelForGlbBooster",
						"offset": 0,
						"slot": "16",
						"type": "t_array(t_uint256)8_storage"
					},
					{
						"astId": 802,
						"contract": "contracts/modules/ContestRoyalty.sol:ContestRoyalty",
						"label": "minPoolForGlbBooster",
						"offset": 0,
						"slot": "24",
						"type": "t_array(t_uint256)8_storage"
					},
					{
						"astId": 910,
						"contract": "contracts/modules/ContestRoyalty.sol:ContestRoyalty",
						"label": "userPooltopup",
						"offset": 0,
						"slot": "32",
						"type": "t_mapping(t_uint256,t_mapping(t_uint256,t_struct(UserPoolTopup)894_storage))"
					},
					{
						"astId": 917,
						"contract": "contracts/modules/ContestRoyalty.sol:ContestRoyalty",
						"label": "userPooldtl",
						"offset": 0,
						"slot": "33",
						"type": "t_mapping(t_uint256,t_mapping(t_uint256,t_struct(UserPool)889_storage))"
					},
					{
						"astId": 924,
						"contract": "contracts/modules/ContestRoyalty.sol:ContestRoyalty",
						"label": "userChildren",
						"offset": 0,
						"slot": "34",
						"type": "t_mapping(t_uint256,t_mapping(t_uint256,t_array(t_uint256)dyn_storage))"
					},
					{
						"astId": 931,
						"contract": "contracts/modules/ContestRoyalty.sol:ContestRoyalty",
						"label": "userIdPerPool",
						"offset": 0,
						"slot": "35",
						"type": "t_mapping(t_uint256,t_mapping(t_uint256,t_array(t_uint256)dyn_storage))"
					},
					{
						"astId": 936,
						"contract": "contracts/modules/ContestRoyalty.sol:ContestRoyalty",
						"label": "poolUsers",
						"offset": 0,
						"slot": "36",
						"type": "t_mapping(t_uint256,t_array(t_uint256)dyn_storage)"
					},
					{
						"astId": 942,
						"contract": "contracts/modules/ContestRoyalty.sol:ContestRoyalty",
						"label": "userHasPool",
						"offset": 0,
						"slot": "37",
						"type": "t_mapping(t_uint256,t_mapping(t_uint256,t_bool))"
					},
					{
						"astId": 949,
						"contract": "contracts/modules/ContestRoyalty.sol:ContestRoyalty",
						"label": "userBoosterdtl",
						"offset": 0,
						"slot": "38",
						"type": "t_mapping(t_uint256,t_mapping(t_uint256,t_struct(UserBooster)903_storage))"
					},
					{
						"astId": 956,
						"contract": "contracts/modules/ContestRoyalty.sol:ContestRoyalty",
						"label": "userBoosterChildren",
						"offset": 0,
						"slot": "39",
						"type": "t_mapping(t_uint256,t_mapping(t_uint256,t_array(t_uint256)dyn_storage))"
					},
					{
						"astId": 961,
						"contract": "contracts/modules/ContestRoyalty.sol:ContestRoyalty",
						"label": "boosterUsers",
						"offset": 0,
						"slot": "40",
						"type": "t_mapping(t_uint256,t_array(t_uint256)dyn_storage)"
					},
					{
						"astId": 967,
						"contract": "contracts/modules/ContestRoyalty.sol:ContestRoyalty",
						"label": "userHasbooster",
						"offset": 0,
						"slot": "41",
						"type": "t_mapping(t_uint256,t_mapping(t_uint256,t_bool))"
					},
					{
						"astId": 993,
						"contract": "contracts/modules/ContestRoyalty.sol:ContestRoyalty",
						"label": "addressToId",
						"offset": 0,
						"slot": "42",
						"type": "t_mapping(t_address,t_uint256)"
					},
					{
						"astId": 998,
						"contract": "contracts/modules/ContestRoyalty.sol:ContestRoyalty",
						"label": "users",
						"offset": 0,
						"slot": "43",
						"type": "t_mapping(t_uint256,t_struct(User)846_storage)"
					},
					{
						"astId": 1003,
						"contract": "contracts/modules/ContestRoyalty.sol:ContestRoyalty",
						"label": "userIncomes",
						"offset": 0,
						"slot": "44",
						"type": "t_mapping(t_uint256,t_struct(UserIncome)867_storage)"
					},
					{
						"astId": 1009,
						"contract": "contracts/modules/ContestRoyalty.sol:ContestRoyalty",
						"label": "incomeHistory",
						"offset": 0,
						"slot": "45",
						"type": "t_mapping(t_uint256,t_array(t_struct(Income)878_storage)dyn_storage)"
					},
					{
						"astId": 1016,
						"contract": "contracts/modules/ContestRoyalty.sol:ContestRoyalty",
						"label": "teams",
						"offset": 0,
						"slot": "46",
						"type": "t_mapping(t_uint256,t_mapping(t_uint256,t_array(t_uint256)dyn_storage))"
					},
					{
						"astId": 1020,
						"contract": "contracts/modules/ContestRoyalty.sol:ContestRoyalty",
						"label": "matrixDirect",
						"offset": 0,
						"slot": "47",
						"type": "t_mapping(t_uint256,t_uint256)"
					},
					{
						"astId": 1025,
						"contract": "contracts/modules/ContestRoyalty.sol:ContestRoyalty",
						"label": "directReferrals",
						"offset": 0,
						"slot": "48",
						"type": "t_mapping(t_uint256,t_array(t_uint256)dyn_storage)"
					},
					{
						"astId": 1030,
						"contract": "contracts/modules/ContestRoyalty.sol:ContestRoyalty",
						"label": "communityAccPerUser",
						"offset": 0,
						"slot": "49",
						"type": "t_uint256"
					},
					{
						"astId": 1034,
						"contract": "contracts/modules/ContestRoyalty.sol:ContestRoyalty",
						"label": "communityDebt",
						"offset": 0,
						"slot": "50",
						"type": "t_mapping(t_uint256,t_uint256)"
					},
					{
						"astId": 1037,
						"contract": "contracts/modules/ContestRoyalty.sol:ContestRoyalty",
						"label": "registeredUserIds",
						"offset": 0,
						"slot": "51",
						"type": "t_array(t_uint256)dyn_storage"
					},
					{
						"astId": 1039,
						"contract": "contracts/modules/ContestRoyalty.sol:ContestRoyalty",
						"label": "nonce",
						"offset": 0,
						"slot": "52",
						"type": "t_uint256"
					},
					{
						"astId": 82,
						"contract": "contracts/modules/ContestRoyalty.sol:ContestRoyalty",
						"label": "currentWeeklyRound",
						"offset": 0,
						"slot": "53",
						"type": "t_uint256"
					},
					{
						"astId": 85,
						"contract": "contracts/modules/ContestRoyalty.sol:ContestRoyalty",
						"label": "currentMonthlyRound",
						"offset": 0,
						"slot": "54",
						"type": "t_uint256"
					},
					{
						"astId": 87,
						"contract": "contracts/modules/ContestRoyalty.sol:ContestRoyalty",
						"label": "lastWeeklyReset",
						"offset": 0,
						"slot": "55",
						"type": "t_uint256"
					},
					{
						"astId": 89,
						"contract": "contracts/modules/ContestRoyalty.sol:ContestRoyalty",
						"label": "lastMonthlyReset",
						"offset": 0,
						"slot": "56",
						"type": "t_uint256"
					},
					{
						"astId": 92,
						"contract": "contracts/modules/ContestRoyalty.sol:ContestRoyalty",
						"label": "qualifiedWeekly",
						"offset": 0,
						"slot": "57",
						"type": "t_array(t_address)dyn_storage"
					},
					{
						"astId": 95,
						"contract": "contracts/modules/ContestRoyalty.sol:ContestRoyalty",
						"label": "qualifiedMonthly",
						"offset": 0,
						"slot": "58",
						"type": "t_array(t_address)dyn_storage"
					},
					{
						"astId": 115,
						"contract": "contracts/modules/ContestRoyalty.sol:ContestRoyalty",
						"label": "weeklyRounds",
						"offset": 0,
						"slot": "59",
						"type": "t_mapping(t_uint256,t_struct(RoundInfo)110_storage)"
					},
					{
						"astId": 120,
						"contract": "contracts/modules/ContestRoyalty.sol:ContestRoyalty",
						"label": "monthlyRounds",
						"offset": 0,
						"slot": "60",
						"type": "t_mapping(t_uint256,t_struct(RoundInfo)110_storage)"
					},
					{
						"astId": 126,
						"contract": "contracts/modules/ContestRoyalty.sol:ContestRoyalty",
						"label": "isWeeklyQualified",
						"offset": 0,
						"slot": "61",
						"type": "t_mapping(t_uint256,t_mapping(t_address,t_bool))"
					},
					{
						"astId": 132,
						"contract": "contracts/modules/ContestRoyalty.sol:ContestRoyalty",
						"label": "isMonthlyQualified",
						"offset": 0,
						"slot": "62",
						"type": "t_mapping(t_uint256,t_mapping(t_address,t_bool))"
					},
					{
						"astId": 138,
						"contract": "contracts/modules/ContestRoyalty.sol:ContestRoyalty",
						"label": "hasClaimedWeekly",
						"offset": 0,
						"slot": "63",
						"type": "t_mapping(t_uint256,t_mapping(t_address,t_bool))"
					},
					{
						"astId": 144,
						"contract": "contracts/modules/ContestRoyalty.sol:ContestRoyalty",
						"label": "hasClaimedMonthly",
						"offset": 0,
						"slot": "64",
						"type": "t_mapping(t_uint256,t_mapping(t_address,t_bool))"
					}
				],
				"types": {
					"t_address": {
						"encoding": "inplace",
						"label": "address",
						"numberOfBytes": "20"
					},
					"t_array(t_address)dyn_storage": {
						"base": "t_address",
						"encoding": "dynamic_array",
						"label": "address[]",
						"numberOfBytes": "32"
					},
					"t_array(t_struct(Deposit)811_storage)dyn_storage": {
						"base": "t_struct(Deposit)811_storage",
						"encoding": "dynamic_array",
						"label": "struct Storage.Deposit[]",
						"numberOfBytes": "32"
					},
					"t_array(t_struct(Income)878_storage)dyn_storage": {
						"base": "t_struct(Income)878_storage",
						"encoding": "dynamic_array",
						"label": "struct Storage.Income[]",
						"numberOfBytes": "32"
					},
					"t_array(t_uint256)7_storage": {
						"base": "t_uint256",
						"encoding": "inplace",
						"label": "uint256[7]",
						"numberOfBytes": "224"
					},
					"t_array(t_uint256)8_storage": {
						"base": "t_uint256",
						"encoding": "inplace",
						"label": "uint256[8]",
						"numberOfBytes": "256"
					},
					"t_array(t_uint256)dyn_storage": {
						"base": "t_uint256",
						"encoding": "dynamic_array",
						"label": "uint256[]",
						"numberOfBytes": "32"
					},
					"t_bool": {
						"encoding": "inplace",
						"label": "bool",
						"numberOfBytes": "1"
					},
					"t_contract(IERC20)68": {
						"encoding": "inplace",
						"label": "contract IERC20",
						"numberOfBytes": "20"
					},
					"t_mapping(t_address,t_bool)": {
						"encoding": "mapping",
						"key": "t_address",
						"label": "mapping(address => bool)",
						"numberOfBytes": "32",
						"value": "t_bool"
					},
					"t_mapping(t_address,t_uint256)": {
						"encoding": "mapping",
						"key": "t_address",
						"label": "mapping(address => uint256)",
						"numberOfBytes": "32",
						"value": "t_uint256"
					},
					"t_mapping(t_uint256,t_array(t_struct(Income)878_storage)dyn_storage)": {
						"encoding": "mapping",
						"key": "t_uint256",
						"label": "mapping(uint256 => struct Storage.Income[])",
						"numberOfBytes": "32",
						"value": "t_array(t_struct(Income)878_storage)dyn_storage"
					},
					"t_mapping(t_uint256,t_array(t_uint256)dyn_storage)": {
						"encoding": "mapping",
						"key": "t_uint256",
						"label": "mapping(uint256 => uint256[])",
						"numberOfBytes": "32",
						"value": "t_array(t_uint256)dyn_storage"
					},
					"t_mapping(t_uint256,t_bool)": {
						"encoding": "mapping",
						"key": "t_uint256",
						"label": "mapping(uint256 => bool)",
						"numberOfBytes": "32",
						"value": "t_bool"
					},
					"t_mapping(t_uint256,t_mapping(t_address,t_bool))": {
						"encoding": "mapping",
						"key": "t_uint256",
						"label": "mapping(uint256 => mapping(address => bool))",
						"numberOfBytes": "32",
						"value": "t_mapping(t_address,t_bool)"
					},
					"t_mapping(t_uint256,t_mapping(t_uint256,t_array(t_uint256)dyn_storage))": {
						"encoding": "mapping",
						"key": "t_uint256",
						"label": "mapping(uint256 => mapping(uint256 => uint256[]))",
						"numberOfBytes": "32",
						"value": "t_mapping(t_uint256,t_array(t_uint256)dyn_storage)"
					},
					"t_mapping(t_uint256,t_mapping(t_uint256,t_bool))": {
						"encoding": "mapping",
						"key": "t_uint256",
						"label": "mapping(uint256 => mapping(uint256 => bool))",
						"numberOfBytes": "32",
						"value": "t_mapping(t_uint256,t_bool)"
					},
					"t_mapping(t_uint256,t_mapping(t_uint256,t_struct(UserBooster)903_storage))": {
						"encoding": "mapping",
						"key": "t_uint256",
						"label": "mapping(uint256 => mapping(uint256 => struct Storage.UserBooster))",
						"numberOfBytes": "32",
						"value": "t_mapping(t_uint256,t_struct(UserBooster)903_storage)"
					},
					"t_mapping(t_uint256,t_mapping(t_uint256,t_struct(UserPool)889_storage))": {
						"encoding": "mapping",
						"key": "t_uint256",
						"label": "mapping(uint256 => mapping(uint256 => struct Storage.UserPool))",
						"numberOfBytes": "32",
						"value": "t_mapping(t_uint256,t_struct(UserPool)889_storage)"
					},
					"t_mapping(t_uint256,t_mapping(t_uint256,t_struct(UserPoolTopup)894_storage))": {
						"encoding": "mapping",
						"key": "t_uint256",
						"label": "mapping(uint256 => mapping(uint256 => struct Storage.UserPoolTopup))",
						"numberOfBytes": "32",
						"value": "t_mapping(t_uint256,t_struct(UserPoolTopup)894_storage)"
					},
					"t_mapping(t_uint256,t_struct(RoundInfo)110_storage)": {
						"encoding": "mapping",
						"key": "t_uint256",
						"label": "mapping(uint256 => struct ContestRoyalty.RoundInfo)",
						"numberOfBytes": "32",
						"value": "t_struct(RoundInfo)110_storage"
					},
					"t_mapping(t_uint256,t_struct(User)846_storage)": {
						"encoding": "mapping",
						"key": "t_uint256",
						"label": "mapping(uint256 => struct Storage.User)",
						"numberOfBytes": "32",
						"value": "t_struct(User)846_storage"
					},
					"t_mapping(t_uint256,t_struct(UserBooster)903_storage)": {
						"encoding": "mapping",
						"key": "t_uint256",
						"label": "mapping(uint256 => struct Storage.UserBooster)",
						"numberOfBytes": "32",
						"value": "t_struct(UserBooster)903_storage"
					},
					"t_mapping(t_uint256,t_struct(UserIncome)867_storage)": {
						"encoding": "mapping",
						"key": "t_uint256",
						"label": "mapping(uint256 => struct Storage.UserIncome)",
						"numberOfBytes": "32",
						"value": "t_struct(UserIncome)867_storage"
					},
					"t_mapping(t_uint256,t_struct(UserPool)889_storage)": {
						"encoding": "mapping",
						"key": "t_uint256",
						"label": "mapping(uint256 => struct Storage.UserPool)",
						"numberOfBytes": "32",
						"value": "t_struct(UserPool)889_storage"
					},
					"t_mapping(t_uint256,t_struct(UserPoolTopup)894_storage)": {
						"encoding": "mapping",
						"key": "t_uint256",
						"label": "mapping(uint256 => struct Storage.UserPoolTopup)",
						"numberOfBytes": "32",
						"value": "t_struct(UserPoolTopup)894_storage"
					},
					"t_mapping(t_uint256,t_uint256)": {
						"encoding": "mapping",
						"key": "t_uint256",
						"label": "mapping(uint256 => uint256)",
						"numberOfBytes": "32",
						"value": "t_uint256"
					},
					"t_struct(Deposit)811_storage": {
						"encoding": "inplace",
						"label": "struct Storage.Deposit",
						"members": [
							{
								"astId": 804,
								"contract": "contracts/modules/ContestRoyalty.sol:ContestRoyalty",
								"label": "amount",
								"offset": 0,
								"slot": "0",
								"type": "t_uint256"
							},
							{
								"astId": 806,
								"contract": "contracts/modules/ContestRoyalty.sol:ContestRoyalty",
								"label": "withdrawn",
								"offset": 0,
								"slot": "1",
								"type": "t_uint256"
							},
							{
								"astId": 808,
								"contract": "contracts/modules/ContestRoyalty.sol:ContestRoyalty",
								"label": "start",
								"offset": 0,
								"slot": "2",
								"type": "t_uint256"
							},
							{
								"astId": 810,
								"contract": "contracts/modules/ContestRoyalty.sol:ContestRoyalty",
								"label": "depositType",
								"offset": 0,
								"slot": "3",
								"type": "t_uint8"
							}
						],
						"numberOfBytes": "128"
					},
					"t_struct(Income)878_storage": {
						"encoding": "inplace",
						"label": "struct Storage.Income",
						"members": [
							{
								"astId": 869,
								"contract": "contracts/modules/ContestRoyalty.sol:ContestRoyalty",
								"label": "fromUserId",
								"offset": 0,
								"slot": "0",
								"type": "t_uint256"
							},
							{
								"astId": 871,
								"contract": "contracts/modules/ContestRoyalty.sol:ContestRoyalty",
								"label": "amount",
								"offset": 0,
								"slot": "1",
								"type": "t_uint256"
							},
							{
								"astId": 873,
								"contract": "contracts/modules/ContestRoyalty.sol:ContestRoyalty",
								"label": "packageLevel",
								"offset": 0,
								"slot": "2",
								"type": "t_uint256"
							},
							{
								"astId": 875,
								"contract": "contracts/modules/ContestRoyalty.sol:ContestRoyalty",
								"label": "timestamp",
								"offset": 0,
								"slot": "3",
								"type": "t_uint256"
							},
							{
								"astId": 877,
								"contract": "contracts/modules/ContestRoyalty.sol:ContestRoyalty",
								"label": "incomeType",
								"offset": 0,
								"slot": "4",
								"type": "t_uint256"
							}
						],
						"numberOfBytes": "160"
					},
					"t_struct(RoundInfo)110_storage": {
						"encoding": "inplace",
						"label": "struct ContestRoyalty.RoundInfo",
						"members": [
							{
								"astId": 97,
								"contract": "contracts/modules/ContestRoyalty.sol:ContestRoyalty",
								"label": "id",
								"offset": 0,
								"slot": "0",
								"type": "t_uint256"
							},
							{
								"astId": 99,
								"contract": "contracts/modules/ContestRoyalty.sol:ContestRoyalty",
								"label": "totalUsers",
								"offset": 0,
								"slot": "1",
								"type": "t_uint256"
							},
							{
								"astId": 101,
								"contract": "contracts/modules/ContestRoyalty.sol:ContestRoyalty",
								"label": "totalReward",
								"offset": 0,
								"slot": "2",
								"type": "t_uint256"
							},
							{
								"astId": 103,
								"contract": "contracts/modules/ContestRoyalty.sol:ContestRoyalty",
								"label": "perUserReward",
								"offset": 0,
								"slot": "3",
								"type": "t_uint256"
							},
							{
								"astId": 105,
								"contract": "contracts/modules/ContestRoyalty.sol:ContestRoyalty",
								"label": "startTime",
								"offset": 0,
								"slot": "4",
								"type": "t_uint256"
							},
							{
								"astId": 107,
								"contract": "contracts/modules/ContestRoyalty.sol:ContestRoyalty",
								"label": "endTime",
								"offset": 0,
								"slot": "5",
								"type": "t_uint256"
							},
							{
								"astId": 109,
								"contract": "contracts/modules/ContestRoyalty.sol:ContestRoyalty",
								"label": "closed",
								"offset": 0,
								"slot": "6",
								"type": "t_bool"
							}
						],
						"numberOfBytes": "224"
					},
					"t_struct(User)846_storage": {
						"encoding": "inplace",
						"label": "struct Storage.User",
						"members": [
							{
								"astId": 813,
								"contract": "contracts/modules/ContestRoyalty.sol:ContestRoyalty",
								"label": "account",
								"offset": 0,
								"slot": "0",
								"type": "t_address"
							},
							{
								"astId": 817,
								"contract": "contracts/modules/ContestRoyalty.sol:ContestRoyalty",
								"label": "deposits",
								"offset": 0,
								"slot": "1",
								"type": "t_array(t_struct(Deposit)811_storage)dyn_storage"
							},
							{
								"astId": 819,
								"contract": "contracts/modules/ContestRoyalty.sol:ContestRoyalty",
								"label": "checkpoint",
								"offset": 0,
								"slot": "2",
								"type": "t_uint256"
							},
							{
								"astId": 821,
								"contract": "contracts/modules/ContestRoyalty.sol:ContestRoyalty",
								"label": "id",
								"offset": 0,
								"slot": "3",
								"type": "t_uint256"
							},
							{
								"astId": 823,
								"contract": "contracts/modules/ContestRoyalty.sol:ContestRoyalty",
								"label": "sponsorId",
								"offset": 0,
								"slot": "4",
								"type": "t_uint256"
							},
							{
								"astId": 825,
								"contract": "contracts/modules/ContestRoyalty.sol:ContestRoyalty",
								"label": "uplineId",
								"offset": 0,
								"slot": "5",
								"type": "t_uint256"
							},
							{
								"astId": 827,
								"contract": "contracts/modules/ContestRoyalty.sol:ContestRoyalty",
								"label": "level",
								"offset": 0,
								"slot": "6",
								"type": "t_uint256"
							},
							{
								"astId": 829,
								"contract": "contracts/modules/ContestRoyalty.sol:ContestRoyalty",
								"label": "directTeam",
								"offset": 0,
								"slot": "7",
								"type": "t_uint256"
							},
							{
								"astId": 831,
								"contract": "contracts/modules/ContestRoyalty.sol:ContestRoyalty",
								"label": "directPoolQualified",
								"offset": 0,
								"slot": "8",
								"type": "t_uint256"
							},
							{
								"astId": 833,
								"contract": "contracts/modules/ContestRoyalty.sol:ContestRoyalty",
								"label": "totalMatrixTeam",
								"offset": 0,
								"slot": "9",
								"type": "t_uint256"
							},
							{
								"astId": 835,
								"contract": "contracts/modules/ContestRoyalty.sol:ContestRoyalty",
								"label": "totalDeposit",
								"offset": 0,
								"slot": "10",
								"type": "t_uint256"
							},
							{
								"astId": 837,
								"contract": "contracts/modules/ContestRoyalty.sol:ContestRoyalty",
								"label": "poollevel",
								"offset": 0,
								"slot": "11",
								"type": "t_uint256"
							},
							{
								"astId": 839,
								"contract": "contracts/modules/ContestRoyalty.sol:ContestRoyalty",
								"label": "poolDeposit",
								"offset": 0,
								"slot": "12",
								"type": "t_uint256"
							},
							{
								"astId": 841,
								"contract": "contracts/modules/ContestRoyalty.sol:ContestRoyalty",
								"label": "boosterlevel",
								"offset": 0,
								"slot": "13",
								"type": "t_uint256"
							},
							{
								"astId": 843,
								"contract": "contracts/modules/ContestRoyalty.sol:ContestRoyalty",
								"label": "boosterDeposit",
								"offset": 0,
								"slot": "14",
								"type": "t_uint256"
							},
							{
								"astId": 845,
								"contract": "contracts/modules/ContestRoyalty.sol:ContestRoyalty",
								"label": "registrationTime",
								"offset": 0,
								"slot": "15",
								"type": "t_uint256"
							}
						],
						"numberOfBytes": "512"
					},
					"t_struct(UserBooster)903_storage": {
						"encoding": "inplace",
						"label": "struct Storage.UserBooster",
						"members": [
							{
								"astId": 896,
								"contract": "contracts/modules/ContestRoyalty.sol:ContestRoyalty",
								"label": "id",
								"offset": 0,
								"slot": "0",
								"type": "t_uint256"
							},
							{
								"astId": 898,
								"contract": "contracts/modules/ContestRoyalty.sol:ContestRoyalty",
								"label": "poolId",
								"offset": 0,
								"slot": "1",
								"type": "t_uint256"
							},
							{
								"astId": 900,
								"contract": "contracts/modules/ContestRoyalty.sol:ContestRoyalty",
								"label": "parentId",
								"offset": 0,
								"slot": "2",
								"type": "t_uint256"
							},
							{
								"astId": 902,
								"contract": "contracts/modules/ContestRoyalty.sol:ContestRoyalty",
								"label": "bonusCount",
								"offset": 0,
								"slot": "3",
								"type": "t_uint256"
							}
						],
						"numberOfBytes": "128"
					},
					"t_struct(UserIncome)867_storage": {
						"encoding": "inplace",
						"label": "struct Storage.UserIncome",
						"members": [
							{
								"astId": 848,
								"contract": "contracts/modules/ContestRoyalty.sol:ContestRoyalty",
								"label": "totalIncome",
								"offset": 0,
								"slot": "0",
								"type": "t_uint256"
							},
							{
								"astId": 850,
								"contract": "contracts/modules/ContestRoyalty.sol:ContestRoyalty",
								"label": "sponsorIncome",
								"offset": 0,
								"slot": "1",
								"type": "t_uint256"
							},
							{
								"astId": 852,
								"contract": "contracts/modules/ContestRoyalty.sol:ContestRoyalty",
								"label": "matrixIncome",
								"offset": 0,
								"slot": "2",
								"type": "t_uint256"
							},
							{
								"astId": 854,
								"contract": "contracts/modules/ContestRoyalty.sol:ContestRoyalty",
								"label": "levelBoosterIncome",
								"offset": 0,
								"slot": "3",
								"type": "t_uint256"
							},
							{
								"astId": 856,
								"contract": "contracts/modules/ContestRoyalty.sol:ContestRoyalty",
								"label": "levelIncome",
								"offset": 0,
								"slot": "4",
								"type": "t_uint256"
							},
							{
								"astId": 858,
								"contract": "contracts/modules/ContestRoyalty.sol:ContestRoyalty",
								"label": "royaltyIncome",
								"offset": 0,
								"slot": "5",
								"type": "t_uint256"
							},
							{
								"astId": 860,
								"contract": "contracts/modules/ContestRoyalty.sol:ContestRoyalty",
								"label": "royaltyIncomeClaimed",
								"offset": 0,
								"slot": "6",
								"type": "t_uint256"
							},
							{
								"astId": 862,
								"contract": "contracts/modules/ContestRoyalty.sol:ContestRoyalty",
								"label": "communityIncome",
								"offset": 0,
								"slot": "7",
								"type": "t_uint256"
							},
							{
								"astId": 864,
								"contract": "contracts/modules/ContestRoyalty.sol:ContestRoyalty",
								"label": "poolIncome",
								"offset": 0,
								"slot": "8",
								"type": "t_uint256"
							},
							{
								"astId": 866,
								"contract": "contracts/modules/ContestRoyalty.sol:ContestRoyalty",
								"label": "boosterIncome",
								"offset": 0,
								"slot": "9",
								"type": "t_uint256"
							}
						],
						"numberOfBytes": "320"
					},
					"t_struct(UserPool)889_storage": {
						"encoding": "inplace",
						"label": "struct Storage.UserPool",
						"members": [
							{
								"astId": 880,
								"contract": "contracts/modules/ContestRoyalty.sol:ContestRoyalty",
								"label": "id",
								"offset": 0,
								"slot": "0",
								"type": "t_uint256"
							},
							{
								"astId": 882,
								"contract": "contracts/modules/ContestRoyalty.sol:ContestRoyalty",
								"label": "mainid",
								"offset": 0,
								"slot": "1",
								"type": "t_uint256"
							},
							{
								"astId": 884,
								"contract": "contracts/modules/ContestRoyalty.sol:ContestRoyalty",
								"label": "poolId",
								"offset": 0,
								"slot": "2",
								"type": "t_uint256"
							},
							{
								"astId": 886,
								"contract": "contracts/modules/ContestRoyalty.sol:ContestRoyalty",
								"label": "parentId",
								"offset": 0,
								"slot": "3",
								"type": "t_uint256"
							},
							{
								"astId": 888,
								"contract": "contracts/modules/ContestRoyalty.sol:ContestRoyalty",
								"label": "bonusCount",
								"offset": 0,
								"slot": "4",
								"type": "t_uint256"
							}
						],
						"numberOfBytes": "160"
					},
					"t_struct(UserPoolTopup)894_storage": {
						"encoding": "inplace",
						"label": "struct Storage.UserPoolTopup",
						"members": [
							{
								"astId": 891,
								"contract": "contracts/modules/ContestRoyalty.sol:ContestRoyalty",
								"label": "nextPoolAmt",
								"offset": 0,
								"slot": "0",
								"type": "t_uint256"
							},
							{
								"astId": 893,
								"contract": "contracts/modules/ContestRoyalty.sol:ContestRoyalty",
								"label": "reTopupAmt",
								"offset": 0,
								"slot": "1",
								"type": "t_uint256"
							}
						],
						"numberOfBytes": "64"
					},
					"t_uint256": {
						"encoding": "inplace",
						"label": "uint256",
						"numberOfBytes": "32"
					},
					"t_uint8": {
						"encoding": "inplace",
						"label": "uint8",
						"numberOfBytes": "1"
					}
				}
			},
			"userdoc": {
				"kind": "user",
				"methods": {},
				"version": 1
			}
		}
	}
}