{
	"contracts/modules/ContestRoyalty.sol": {
		"ContestRoyalty": {
			"abi": [
				{
					"inputs": [],
					"stateMutability": "nonpayable",
					"type": "constructor"
				},
				{
					"inputs": [
						{
							"internalType": "address",
							"name": "token",
							"type": "address"
						}
					],
					"name": "SafeERC20FailedOperation",
					"type": "error"
				},
				{
					"anonymous": false,
					"inputs": [
						{
							"indexed": false,
							"internalType": "uint256",
							"name": "amount",
							"type": "uint256"
						},
						{
							"indexed": false,
							"internalType": "uint256",
							"name": "usersCount",
							"type": "uint256"
						},
						{
							"indexed": false,
							"internalType": "uint256",
							"name": "perUser",
							"type": "uint256"
						}
					],
					"name": "CommunityBonusDistributed",
					"type": "event"
				},
				{
					"anonymous": false,
					"inputs": [
						{
							"indexed": true,
							"internalType": "address",
							"name": "to",
							"type": "address"
						},
						{
							"indexed": true,
							"internalType": "address",
							"name": "from",
							"type": "address"
						},
						{
							"indexed": false,
							"internalType": "uint256",
							"name": "amount",
							"type": "uint256"
						},
						{
							"indexed": false,
							"internalType": "uint256",
							"name": "packageLevel",
							"type": "uint256"
						},
						{
							"indexed": false,
							"internalType": "uint256",
							"name": "incomeType",
							"type": "uint256"
						}
					],
					"name": "IncomeDistributed",
					"type": "event"
				},
				{
					"anonymous": false,
					"inputs": [
						{
							"indexed": true,
							"internalType": "address",
							"name": "to",
							"type": "address"
						},
						{
							"indexed": true,
							"internalType": "address",
							"name": "from",
							"type": "address"
						},
						{
							"indexed": false,
							"internalType": "uint256",
							"name": "amount",
							"type": "uint256"
						},
						{
							"indexed": false,
							"internalType": "uint256",
							"name": "packageLevel",
							"type": "uint256"
						},
						{
							"indexed": false,
							"internalType": "enum Storage.IncomeType",
							"name": "incomeType",
							"type": "uint8"
						},
						{
							"indexed": false,
							"internalType": "uint256",
							"name": "timestamp",
							"type": "uint256"
						}
					],
					"name": "IncomeDistribution",
					"type": "event"
				},
				{
					"anonymous": false,
					"inputs": [
						{
							"indexed": true,
							"internalType": "address",
							"name": "winner",
							"type": "address"
						},
						{
							"indexed": true,
							"internalType": "uint256",
							"name": "fromUserId",
							"type": "uint256"
						},
						{
							"indexed": false,
							"internalType": "uint256",
							"name": "amount",
							"type": "uint256"
						},
						{
							"indexed": false,
							"internalType": "uint256",
							"name": "timestamp",
							"type": "uint256"
						}
					],
					"name": "LotteryReward",
					"type": "event"
				},
				{
					"anonymous": false,
					"inputs": [
						{
							"indexed": false,
							"internalType": "uint256",
							"name": "roundId",
							"type": "uint256"
						},
						{
							"indexed": false,
							"internalType": "uint256",
							"name": "totalUsers",
							"type": "uint256"
						},
						{
							"indexed": false,
							"internalType": "uint256",
							"name": "perUserReward",
							"type": "uint256"
						},
						{
							"indexed": false,
							"internalType": "uint256",
							"name": "totalReward",
							"type": "uint256"
						},
						{
							"indexed": false,
							"internalType": "uint256",
							"name": "totalDistributed",
							"type": "uint256"
						},
						{
							"indexed": false,
							"internalType": "uint256",
							"name": "leftoverReward",
							"type": "uint256"
						},
						{
							"indexed": false,
							"internalType": "uint256",
							"name": "endTime",
							"type": "uint256"
						}
					],
					"name": "MonthlyClosed",
					"type": "event"
				},
				{
					"anonymous": false,
					"inputs": [
						{
							"indexed": false,
							"internalType": "uint256",
							"name": "roundId",
							"type": "uint256"
						},
						{
							"indexed": false,
							"internalType": "uint256",
							"name": "userId",
							"type": "uint256"
						},
						{
							"indexed": false,
							"internalType": "uint256",
							"name": "joinTime",
							"type": "uint256"
						}
					],
					"name": "MonthlyContestQualified",
					"type": "event"
				},
				{
					"anonymous": false,
					"inputs": [
						{
							"indexed": false,
							"internalType": "uint256",
							"name": "roundId",
							"type": "uint256"
						},
						{
							"indexed": false,
							"internalType": "uint256",
							"name": "userId",
							"type": "uint256"
						},
						{
							"indexed": false,
							"internalType": "uint256",
							"name": "perUserReward",
							"type": "uint256"
						},
						{
							"indexed": false,
							"internalType": "uint256",
							"name": "claimTime",
							"type": "uint256"
						}
					],
					"name": "MonthlyRewardClaim",
					"type": "event"
				},
				{
					"anonymous": false,
					"inputs": [
						{
							"indexed": true,
							"internalType": "address",
							"name": "user",
							"type": "address"
						},
						{
							"indexed": true,
							"internalType": "address",
							"name": "sponsor",
							"type": "address"
						},
						{
							"indexed": true,
							"internalType": "uint256",
							"name": "userId",
							"type": "uint256"
						},
						{
							"indexed": false,
							"internalType": "uint256",
							"name": "uplineId",
							"type": "uint256"
						}
					],
					"name": "Registration",
					"type": "event"
				},
				{
					"anonymous": false,
					"inputs": [
						{
							"indexed": true,
							"internalType": "address",
							"name": "to",
							"type": "address"
						},
						{
							"indexed": false,
							"internalType": "uint256",
							"name": "amount",
							"type": "uint256"
						},
						{
							"indexed": false,
							"internalType": "string",
							"name": "level",
							"type": "string"
						}
					],
					"name": "RewardSent",
					"type": "event"
				},
				{
					"anonymous": false,
					"inputs": [
						{
							"indexed": true,
							"internalType": "address",
							"name": "user",
							"type": "address"
						},
						{
							"indexed": true,
							"internalType": "uint256",
							"name": "userId",
							"type": "uint256"
						},
						{
							"indexed": false,
							"internalType": "uint256",
							"name": "packageLevel",
							"type": "uint256"
						},
						{
							"indexed": false,
							"internalType": "string",
							"name": "depositType",
							"type": "string"
						}
					],
					"name": "Upgrade",
					"type": "event"
				},
				{
					"anonymous": false,
					"inputs": [
						{
							"indexed": true,
							"internalType": "uint8",
							"name": "matrixId",
							"type": "uint8"
						},
						{
							"indexed": true,
							"internalType": "uint32",
							"name": "userId",
							"type": "uint32"
						},
						{
							"indexed": true,
							"internalType": "address",
							"name": "user",
							"type": "address"
						},
						{
							"indexed": false,
							"internalType": "uint32",
							"name": "parentId",
							"type": "uint32"
						},
						{
							"indexed": false,
							"internalType": "address",
							"name": "parentAddr",
							"type": "address"
						},
						{
							"indexed": false,
							"internalType": "uint8",
							"name": "position",
							"type": "uint8"
						}
					],
					"name": "UserJoined",
					"type": "event"
				},
				{
					"anonymous": false,
					"inputs": [
						{
							"indexed": false,
							"internalType": "uint256",
							"name": "roundId",
							"type": "uint256"
						},
						{
							"indexed": false,
							"internalType": "uint256",
							"name": "totalUsers",
							"type": "uint256"
						},
						{
							"indexed": false,
							"internalType": "uint256",
							"name": "perUserReward",
							"type": "uint256"
						},
						{
							"indexed": false,
							"internalType": "uint256",
							"name": "totalReward",
							"type": "uint256"
						},
						{
							"indexed": false,
							"internalType": "uint256",
							"name": "totalDistributed",
							"type": "uint256"
						},
						{
							"indexed": false,
							"internalType": "uint256",
							"name": "leftoverReward",
							"type": "uint256"
						},
						{
							"indexed": false,
							"internalType": "uint256",
							"name": "endTime",
							"type": "uint256"
						}
					],
					"name": "WeeklyClosed",
					"type": "event"
				},
				{
					"anonymous": false,
					"inputs": [
						{
							"indexed": false,
							"internalType": "uint256",
							"name": "roundId",
							"type": "uint256"
						},
						{
							"indexed": false,
							"internalType": "uint256",
							"name": "userId",
							"type": "uint256"
						},
						{
							"indexed": false,
							"internalType": "uint256",
							"name": "joinTime",
							"type": "uint256"
						}
					],
					"name": "WeeklyContestQualified",
					"type": "event"
				},
				{
					"anonymous": false,
					"inputs": [
						{
							"indexed": false,
							"internalType": "uint256",
							"name": "roundId",
							"type": "uint256"
						},
						{
							"indexed": false,
							"internalType": "uint256",
							"name": "userId",
							"type": "uint256"
						},
						{
							"indexed": false,
							"internalType": "uint256",
							"name": "perUserReward",
							"type": "uint256"
						},
						{
							"indexed": false,
							"internalType": "uint256",
							"name": "claimTime",
							"type": "uint256"
						}
					],
					"name": "WeeklyRewardClaim",
					"type": "event"
				},
				{
					"inputs": [],
					"name": "ACC_PRECISION",
					"outputs": [
						{
							"internalType": "uint256",
							"name": "",
							"type": "uint256"
						}
					],
					"stateMutability": "view",
					"type": "function"
				},
				{
					"inputs": [],
					"name": "MONTH_DURATION",
					"outputs": [
						{
							"internalType": "uint256",
							"name": "",
							"type": "uint256"
						}
					],
					"stateMutability": "view",
					"type": "function"
				},
				{
					"inputs": [],
					"name": "PERCENTS_DIVIDER",
					"outputs": [
						{
							"internalType": "uint256",
							"name": "",
							"type": "uint256"
						}
					],
					"stateMutability": "view",
					"type": "function"
				},
				{
					"inputs": [],
					"name": "ROI_CAP_DIVIDER",
					"outputs": [
						{
							"internalType": "uint256",
							"name": "",
							"type": "uint256"
						}
					],
					"stateMutability": "view",
					"type": "function"
				},
				{
					"inputs": [],
					"name": "ROI_CAP_MULTIPLIER",
					"outputs": [
						{
							"internalType": "uint256",
							"name": "",
							"type": "uint256"
						}
					],
					"stateMutability": "view",
					"type": "function"
				},
				{
					"inputs": [],
					"name": "TIME_STEP",
					"outputs": [
						{
							"internalType": "uint256",
							"name": "",
							"type": "uint256"
						}
					],
					"stateMutability": "view",
					"type": "function"
				},
				{
					"inputs": [],
					"name": "WEEK_DURATION",
					"outputs": [
						{
							"internalType": "uint256",
							"name": "",
							"type": "uint256"
						}
					],
					"stateMutability": "view",
					"type": "function"
				},
				{
					"inputs": [],
					"name": "WeeklyCapping",
					"outputs": [
						{
							"internalType": "uint256",
							"name": "",
							"type": "uint256"
						}
					],
					"stateMutability": "view",
					"type": "function"
				},
				{
					"inputs": [],
					"name": "WeeklyTotalReward",
					"outputs": [
						{
							"internalType": "uint256",
							"name": "",
							"type": "uint256"
						}
					],
					"stateMutability": "view",
					"type": "function"
				},
				{
					"inputs": [
						{
							"internalType": "uint256",
							"name": "_userId",
							"type": "uint256"
						},
						{
							"internalType": "uint256",
							"name": "_roundId",
							"type": "uint256"
						}
					],
					"name": "canClaimMonthlyReward",
					"outputs": [
						{
							"internalType": "bool",
							"name": "",
							"type": "bool"
						}
					],
					"stateMutability": "view",
					"type": "function"
				},
				{
					"inputs": [
						{
							"internalType": "uint256",
							"name": "_userId",
							"type": "uint256"
						},
						{
							"internalType": "uint256",
							"name": "_roundId",
							"type": "uint256"
						}
					],
					"name": "claimMonthlyContestReward",
					"outputs": [],
					"stateMutability": "nonpayable",
					"type": "function"
				},
				{
					"inputs": [
						{
							"internalType": "uint256",
							"name": "_userId",
							"type": "uint256"
						},
						{
							"internalType": "uint256",
							"name": "_roundId",
							"type": "uint256"
						}
					],
					"name": "claimWeeklyContestReward",
					"outputs": [],
					"stateMutability": "nonpayable",
					"type": "function"
				},
				{
					"inputs": [],
					"name": "communityAccPerUser",
					"outputs": [
						{
							"internalType": "uint256",
							"name": "",
							"type": "uint256"
						}
					],
					"stateMutability": "view",
					"type": "function"
				},
				{
					"inputs": [],
					"name": "creatorWallet",
					"outputs": [
						{
							"internalType": "address",
							"name": "",
							"type": "address"
						}
					],
					"stateMutability": "view",
					"type": "function"
				},
				{
					"inputs": [],
					"name": "currentMonthlyRound",
					"outputs": [
						{
							"internalType": "uint256",
							"name": "",
							"type": "uint256"
						}
					],
					"stateMutability": "view",
					"type": "function"
				},
				{
					"inputs": [],
					"name": "currentMonthlyStartTime",
					"outputs": [
						{
							"internalType": "uint256",
							"name": "",
							"type": "uint256"
						}
					],
					"stateMutability": "view",
					"type": "function"
				},
				{
					"inputs": [],
					"name": "currentWeeklyRound",
					"outputs": [
						{
							"internalType": "uint256",
							"name": "",
							"type": "uint256"
						}
					],
					"stateMutability": "view",
					"type": "function"
				},
				{
					"inputs": [],
					"name": "currentWeeklyStartTime",
					"outputs": [
						{
							"internalType": "uint256",
							"name": "",
							"type": "uint256"
						}
					],
					"stateMutability": "view",
					"type": "function"
				},
				{
					"inputs": [],
					"name": "defaultRefId",
					"outputs": [
						{
							"internalType": "uint256",
							"name": "",
							"type": "uint256"
						}
					],
					"stateMutability": "view",
					"type": "function"
				},
				{
					"inputs": [
						{
							"internalType": "uint256",
							"name": "",
							"type": "uint256"
						}
					],
					"name": "glbBoosterPackages",
					"outputs": [
						{
							"internalType": "uint256",
							"name": "",
							"type": "uint256"
						}
					],
					"stateMutability": "view",
					"type": "function"
				},
				{
					"inputs": [
						{
							"internalType": "uint256",
							"name": "",
							"type": "uint256"
						}
					],
					"name": "minLevelForGlbBooster",
					"outputs": [
						{
							"internalType": "uint256",
							"name": "",
							"type": "uint256"
						}
					],
					"stateMutability": "view",
					"type": "function"
				},
				{
					"inputs": [
						{
							"internalType": "uint256",
							"name": "",
							"type": "uint256"
						}
					],
					"name": "minLevelForPool",
					"outputs": [
						{
							"internalType": "uint256",
							"name": "",
							"type": "uint256"
						}
					],
					"stateMutability": "view",
					"type": "function"
				},
				{
					"inputs": [
						{
							"internalType": "uint256",
							"name": "",
							"type": "uint256"
						}
					],
					"name": "minPoolForGlbBooster",
					"outputs": [
						{
							"internalType": "uint256",
							"name": "",
							"type": "uint256"
						}
					],
					"stateMutability": "view",
					"type": "function"
				},
				{
					"inputs": [],
					"name": "monthlyCapping",
					"outputs": [
						{
							"internalType": "uint256",
							"name": "",
							"type": "uint256"
						}
					],
					"stateMutability": "view",
					"type": "function"
				},
				{
					"inputs": [],
					"name": "monthlyTotalReward",
					"outputs": [
						{
							"internalType": "uint256",
							"name": "",
							"type": "uint256"
						}
					],
					"stateMutability": "view",
					"type": "function"
				},
				{
					"inputs": [
						{
							"internalType": "uint256",
							"name": "",
							"type": "uint256"
						}
					],
					"name": "packages",
					"outputs": [
						{
							"internalType": "uint256",
							"name": "",
							"type": "uint256"
						}
					],
					"stateMutability": "view",
					"type": "function"
				},
				{
					"inputs": [
						{
							"internalType": "uint256",
							"name": "",
							"type": "uint256"
						}
					],
					"name": "poolPackages",
					"outputs": [
						{
							"internalType": "uint256",
							"name": "",
							"type": "uint256"
						}
					],
					"stateMutability": "view",
					"type": "function"
				},
				{
					"inputs": [
						{
							"internalType": "uint256",
							"name": "",
							"type": "uint256"
						}
					],
					"name": "registeredUserIds",
					"outputs": [
						{
							"internalType": "uint256",
							"name": "",
							"type": "uint256"
						}
					],
					"stateMutability": "view",
					"type": "function"
				},
				{
					"inputs": [],
					"name": "systemMaintance",
					"outputs": [
						{
							"internalType": "address",
							"name": "",
							"type": "address"
						}
					],
					"stateMutability": "view",
					"type": "function"
				},
				{
					"inputs": [],
					"name": "teamDevelopment",
					"outputs": [
						{
							"internalType": "address",
							"name": "",
							"type": "address"
						}
					],
					"stateMutability": "view",
					"type": "function"
				},
				{
					"inputs": [],
					"name": "totalUsers",
					"outputs": [
						{
							"internalType": "uint256",
							"name": "",
							"type": "uint256"
						}
					],
					"stateMutability": "view",
					"type": "function"
				},
				{
					"inputs": [],
					"name": "usdt",
					"outputs": [
						{
							"internalType": "contract IERC20",
							"name": "",
							"type": "address"
						}
					],
					"stateMutability": "view",
					"type": "function"
				}
			],
			"devdoc": {
				"errors": {
					"SafeERC20FailedOperation(address)": [
						{
							"details": "An operation with an ERC-20 token failed."
						}
					]
				},
				"kind": "dev",
				"methods": {},
				"version": 1
			},
			"evm": {
				"assembly": "    /* \"contracts/modules/ContestRoyalty.sol\":90:8188  contract ContestRoyalty is Storage  {... */\n  mstore(0x40, 0x80)\n  jumpi(tag_4, callvalue)\n    /* \"@openzeppelin/contracts/security/ReentrancyGuard.sol\":1716:1717  1 */\n  0x01\n    /* \"@openzeppelin/contracts/security/ReentrancyGuard.sol\":1821:1843  _status = _NOT_ENTERED */\n  0x00\n    /* \"contracts/modules/ContestRoyalty.sol\":90:8188  contract ContestRoyalty is Storage  {... */\n  sstore\n  mload(0x40)\n  0x01e0\n  dup2\n  add\n  sub(shl(0x40, 0x01), 0x01)\n  dup2\n  gt\n  dup3\n  dup3\n  lt\n  or\n  tag_6\n  jumpi\n  0x40\n  mstore\n    /* \"contracts/modules/Storage.sol\":1324:1333  15 * 1e18 */\n  0xd02ab486cedc0000\n    /* \"contracts/modules/ContestRoyalty.sol\":90:8188  contract ContestRoyalty is Storage  {... */\n  dup2\n  mstore\n    /* \"contracts/modules/Storage.sol\":1356:1365  25 * 1e18 */\n  0x015af1d78b58c40000\n    /* \"contracts/modules/Storage.sol\":1313:1828  [... */\n  0x20\n  dup3\n  add\n    /* \"contracts/modules/ContestRoyalty.sol\":90:8188  contract ContestRoyalty is Storage  {... */\n  mstore\n    /* \"contracts/modules/Storage.sol\":1388:1397  50 * 1e18 */\n  0x02b5e3af16b1880000\n    /* \"contracts/modules/ContestRoyalty.sol\":90:8188  contract ContestRoyalty is Storage  {... */\n  0x40\n    /* \"contracts/modules/Storage.sol\":1313:1828  [... */\n  dup3\n  add\n    /* \"contracts/modules/ContestRoyalty.sol\":90:8188  contract ContestRoyalty is Storage  {... */\n  mstore\n    /* \"contracts/modules/Storage.sol\":1420:1430  100 * 1e18 */\n  0x056bc75e2d63100000\n    /* \"contracts/modules/Storage.sol\":1313:1828  [... */\n  0x60\n  dup3\n  add\n    /* \"contracts/modules/ContestRoyalty.sol\":90:8188  contract ContestRoyalty is Storage  {... */\n  mstore\n    /* \"contracts/modules/Storage.sol\":1453:1463  200 * 1e18 */\n  0x0ad78ebc5ac6200000\n    /* \"contracts/modules/Storage.sol\":1313:1828  [... */\n  0x80\n  dup3\n  add\n    /* \"contracts/modules/ContestRoyalty.sol\":90:8188  contract ContestRoyalty is Storage  {... */\n  mstore\n    /* \"contracts/modules/Storage.sol\":1486:1496  400 * 1e18 */\n  0x15af1d78b58c400000\n    /* \"contracts/modules/Storage.sol\":1313:1828  [... */\n  0xa0\n  dup3\n  add\n    /* \"contracts/modules/ContestRoyalty.sol\":90:8188  contract ContestRoyalty is Storage  {... */\n  mstore\n    /* \"contracts/modules/Storage.sol\":1519:1529  800 * 1e18 */\n  0x2b5e3af16b18800000\n    /* \"contracts/modules/Storage.sol\":1313:1828  [... */\n  0xc0\n  dup3\n  add\n    /* \"contracts/modules/ContestRoyalty.sol\":90:8188  contract ContestRoyalty is Storage  {... */\n  mstore\n    /* \"contracts/modules/Storage.sol\":1552:1563  1600 * 1e18 */\n  0x56bc75e2d631000000\n    /* \"contracts/modules/Storage.sol\":1313:1828  [... */\n  0xe0\n  dup3\n  add\n    /* \"contracts/modules/ContestRoyalty.sol\":90:8188  contract ContestRoyalty is Storage  {... */\n  mstore\n    /* \"contracts/modules/Storage.sol\":1586:1597  3200 * 1e18 */\n  0xad78ebc5ac62000000\n    /* \"contracts/modules/Storage.sol\":1313:1828  [... */\n  0x0100\n  dup3\n  add\n    /* \"contracts/modules/ContestRoyalty.sol\":90:8188  contract ContestRoyalty is Storage  {... */\n  mstore\n    /* \"contracts/modules/Storage.sol\":1620:1631  6400 * 1e18 */\n  0x015af1d78b58c4000000\n    /* \"contracts/modules/Storage.sol\":1313:1828  [... */\n  0x0120\n  dup3\n  add\n    /* \"contracts/modules/ContestRoyalty.sol\":90:8188  contract ContestRoyalty is Storage  {... */\n  mstore\n    /* \"contracts/modules/Storage.sol\":1654:1666  12800 * 1e18 */\n  0x02b5e3af16b188000000\n    /* \"contracts/modules/Storage.sol\":1313:1828  [... */\n  0x0140\n  dup3\n  add\n    /* \"contracts/modules/ContestRoyalty.sol\":90:8188  contract ContestRoyalty is Storage  {... */\n  mstore\n    /* \"contracts/modules/Storage.sol\":1689:1701  25600 * 1e18 */\n  0x056bc75e2d6310000000\n    /* \"contracts/modules/Storage.sol\":1313:1828  [... */\n  0x0160\n  dup3\n  add\n    /* \"contracts/modules/ContestRoyalty.sol\":90:8188  contract ContestRoyalty is Storage  {... */\n  mstore\n    /* \"contracts/modules/Storage.sol\":1724:1736  51200 * 1e18 */\n  0x0ad78ebc5ac620000000\n    /* \"contracts/modules/Storage.sol\":1313:1828  [... */\n  0x0180\n  dup3\n  add\n    /* \"contracts/modules/ContestRoyalty.sol\":90:8188  contract ContestRoyalty is Storage  {... */\n  mstore\n    /* \"contracts/modules/Storage.sol\":1759:1772  102400 * 1e18 */\n  0x15af1d78b58c40000000\n    /* \"contracts/modules/Storage.sol\":1313:1828  [... */\n  0x01a0\n  dup3\n  add\n    /* \"contracts/modules/ContestRoyalty.sol\":90:8188  contract ContestRoyalty is Storage  {... */\n  mstore\n    /* \"contracts/modules/Storage.sol\":1795:1808  204800 * 1e18 */\n  0x2b5e3af16b1880000000\n    /* \"contracts/modules/Storage.sol\":1313:1828  [... */\n  0x01c0\n  dup3\n  add\n    /* \"contracts/modules/ContestRoyalty.sol\":90:8188  contract ContestRoyalty is Storage  {... */\n  mstore\n    /* \"contracts/modules/Storage.sol\":1313:1828  [... */\n  0x0b\n    /* \"contracts/modules/ContestRoyalty.sol\":90:8188  contract ContestRoyalty is Storage  {... */\n  sload\n    /* \"contracts/modules/Storage.sol\":1313:1828  [... */\n  0x0f\n  0x0b\n    /* \"contracts/modules/ContestRoyalty.sol\":90:8188  contract ContestRoyalty is Storage  {... */\n  sstore\n  dup1\n    /* \"contracts/modules/Storage.sol\":1313:1828  [... */\n  0x0f\n    /* \"contracts/modules/ContestRoyalty.sol\":90:8188  contract ContestRoyalty is Storage  {... */\n  lt\n  tag_8\n  jumpi\ntag_9:\n  pop\n    /* \"contracts/modules/Storage.sol\":1313:1828  [... */\n  0x0b\n    /* \"@openzeppelin/contracts/security/ReentrancyGuard.sol\":1821:1843  _status = _NOT_ENTERED */\n  0x00\n    /* \"contracts/modules/ContestRoyalty.sol\":90:8188  contract ContestRoyalty is Storage  {... */\n  mstore\n    /* \"contracts/modules/Storage.sol\":1313:1828  [... */\n  0x20\n    /* \"@openzeppelin/contracts/security/ReentrancyGuard.sol\":1821:1843  _status = _NOT_ENTERED */\n  0x00\n    /* \"contracts/modules/ContestRoyalty.sol\":90:8188  contract ContestRoyalty is Storage  {... */\n  keccak256\n  swap1\n    /* \"@openzeppelin/contracts/security/ReentrancyGuard.sol\":1821:1843  _status = _NOT_ENTERED */\n  0x00\n    /* \"contracts/modules/ContestRoyalty.sol\":90:8188  contract ContestRoyalty is Storage  {... */\ntag_10:\n    /* \"contracts/modules/Storage.sol\":1313:1828  [... */\n  0x0f\n    /* \"contracts/modules/ContestRoyalty.sol\":90:8188  contract ContestRoyalty is Storage  {... */\n  dup2\n  lt\n  tag_11\n  jumpi\n  tag_13\n  tag_1\n  jump\t// in\ntag_13:\n    /* \"contracts/modules/Storage.sol\":5586:5591  75e18 */\n  0x0410d586a20a4c0000\n    /* \"contracts/modules/ContestRoyalty.sol\":90:8188  contract ContestRoyalty is Storage  {... */\n  dup2\n  mstore\n    /* \"contracts/modules/Storage.sol\":5593:5599  300e18 */\n  0x1043561a8829300000\n    /* \"contracts/modules/Storage.sol\":1313:1828  [... */\n  0x20\n    /* \"contracts/modules/Storage.sol\":5585:5649  [75e18, 300e18, 1200e18, 4800e18, 19200e18, 76800e18, 307200e18] */\n  dup3\n  add\n    /* \"contracts/modules/ContestRoyalty.sol\":90:8188  contract ContestRoyalty is Storage  {... */\n  mstore\n    /* \"contracts/modules/Storage.sol\":5601:5608  1200e18 */\n  0x410d586a20a4c00000\n    /* \"contracts/modules/ContestRoyalty.sol\":90:8188  contract ContestRoyalty is Storage  {... */\n  0x40\n    /* \"contracts/modules/Storage.sol\":5585:5649  [75e18, 300e18, 1200e18, 4800e18, 19200e18, 76800e18, 307200e18] */\n  dup3\n  add\n    /* \"contracts/modules/ContestRoyalty.sol\":90:8188  contract ContestRoyalty is Storage  {... */\n  mstore\n    /* \"contracts/modules/Storage.sol\":5610:5617  4800e18 */\n  0x01043561a88293000000\n    /* \"contracts/modules/Storage.sol\":1313:1828  [... */\n  0x60\n    /* \"contracts/modules/Storage.sol\":5585:5649  [75e18, 300e18, 1200e18, 4800e18, 19200e18, 76800e18, 307200e18] */\n  dup3\n  add\n    /* \"contracts/modules/ContestRoyalty.sol\":90:8188  contract ContestRoyalty is Storage  {... */\n  mstore\n    /* \"contracts/modules/Storage.sol\":5619:5627  19200e18 */\n  0x0410d586a20a4c000000\n    /* \"contracts/modules/Storage.sol\":1313:1828  [... */\n  0x80\n    /* \"contracts/modules/Storage.sol\":5585:5649  [75e18, 300e18, 1200e18, 4800e18, 19200e18, 76800e18, 307200e18] */\n  dup3\n  add\n    /* \"contracts/modules/ContestRoyalty.sol\":90:8188  contract ContestRoyalty is Storage  {... */\n  mstore\n    /* \"contracts/modules/Storage.sol\":5629:5637  76800e18 */\n  0x1043561a882930000000\n    /* \"contracts/modules/Storage.sol\":1313:1828  [... */\n  0xa0\n    /* \"contracts/modules/Storage.sol\":5585:5649  [75e18, 300e18, 1200e18, 4800e18, 19200e18, 76800e18, 307200e18] */\n  dup3\n  add\n    /* \"contracts/modules/ContestRoyalty.sol\":90:8188  contract ContestRoyalty is Storage  {... */\n  mstore\n    /* \"contracts/modules/Storage.sol\":5639:5648  307200e18 */\n  0x410d586a20a4c0000000\n    /* \"contracts/modules/Storage.sol\":1313:1828  [... */\n  0xc0\n    /* \"contracts/modules/Storage.sol\":5585:5649  [75e18, 300e18, 1200e18, 4800e18, 19200e18, 76800e18, 307200e18] */\n  dup3\n  add\n    /* \"contracts/modules/ContestRoyalty.sol\":90:8188  contract ContestRoyalty is Storage  {... */\n  mstore\n    /* \"contracts/modules/Storage.sol\":5585:5649  [75e18, 300e18, 1200e18, 4800e18, 19200e18, 76800e18, 307200e18] */\n  0x13\n    /* \"contracts/modules/ContestRoyalty.sol\":90:8188  contract ContestRoyalty is Storage  {... */\n  sload\n    /* \"contracts/modules/Storage.sol\":5585:5649  [75e18, 300e18, 1200e18, 4800e18, 19200e18, 76800e18, 307200e18] */\n  0x07\n  0x13\n    /* \"contracts/modules/ContestRoyalty.sol\":90:8188  contract ContestRoyalty is Storage  {... */\n  sstore\n  dup1\n    /* \"contracts/modules/Storage.sol\":5585:5649  [75e18, 300e18, 1200e18, 4800e18, 19200e18, 76800e18, 307200e18] */\n  0x07\n    /* \"contracts/modules/ContestRoyalty.sol\":90:8188  contract ContestRoyalty is Storage  {... */\n  lt\n  tag_14\n  jumpi\ntag_15:\n  pop\n    /* \"contracts/modules/Storage.sol\":5585:5649  [75e18, 300e18, 1200e18, 4800e18, 19200e18, 76800e18, 307200e18] */\n  0x13\n    /* \"@openzeppelin/contracts/security/ReentrancyGuard.sol\":1821:1843  _status = _NOT_ENTERED */\n  0x00\n    /* \"contracts/modules/ContestRoyalty.sol\":90:8188  contract ContestRoyalty is Storage  {... */\n  mstore\n    /* \"contracts/modules/Storage.sol\":1313:1828  [... */\n  0x20\n    /* \"@openzeppelin/contracts/security/ReentrancyGuard.sol\":1821:1843  _status = _NOT_ENTERED */\n  0x00\n    /* \"contracts/modules/ContestRoyalty.sol\":90:8188  contract ContestRoyalty is Storage  {... */\n  keccak256\n  swap1\n    /* \"@openzeppelin/contracts/security/ReentrancyGuard.sol\":1821:1843  _status = _NOT_ENTERED */\n  0x00\n    /* \"contracts/modules/ContestRoyalty.sol\":90:8188  contract ContestRoyalty is Storage  {... */\ntag_16:\n    /* \"contracts/modules/Storage.sol\":5585:5649  [75e18, 300e18, 1200e18, 4800e18, 19200e18, 76800e18, 307200e18] */\n  0x07\n    /* \"contracts/modules/ContestRoyalty.sol\":90:8188  contract ContestRoyalty is Storage  {... */\n  dup2\n  lt\n  tag_17\n  jumpi\n  tag_19\n  tag_2\n  jump\t// in\ntag_19:\n    /* \"contracts/modules/Storage.sol\":1420:1430  100 * 1e18 */\n  0x056bc75e2d63100000\n    /* \"contracts/modules/ContestRoyalty.sol\":90:8188  contract ContestRoyalty is Storage  {... */\n  dup2\n  mstore\n    /* \"contracts/modules/Storage.sol\":1453:1463  200 * 1e18 */\n  0x0ad78ebc5ac6200000\n    /* \"contracts/modules/Storage.sol\":1313:1828  [... */\n  0x20\n    /* \"contracts/modules/Storage.sol\":5691:5761  [ 100e18, 200e18, 400e18, 800e18, 1600e18, 3200e18, 6400e18, 12800e18] */\n  dup3\n  add\n    /* \"contracts/modules/ContestRoyalty.sol\":90:8188  contract ContestRoyalty is Storage  {... */\n  mstore\n    /* \"contracts/modules/Storage.sol\":1486:1496  400 * 1e18 */\n  0x15af1d78b58c400000\n    /* \"contracts/modules/ContestRoyalty.sol\":90:8188  contract ContestRoyalty is Storage  {... */\n  0x40\n    /* \"contracts/modules/Storage.sol\":5691:5761  [ 100e18, 200e18, 400e18, 800e18, 1600e18, 3200e18, 6400e18, 12800e18] */\n  dup3\n  add\n    /* \"contracts/modules/ContestRoyalty.sol\":90:8188  contract ContestRoyalty is Storage  {... */\n  mstore\n    /* \"contracts/modules/Storage.sol\":1519:1529  800 * 1e18 */\n  0x2b5e3af16b18800000\n    /* \"contracts/modules/Storage.sol\":1313:1828  [... */\n  0x60\n    /* \"contracts/modules/Storage.sol\":5691:5761  [ 100e18, 200e18, 400e18, 800e18, 1600e18, 3200e18, 6400e18, 12800e18] */\n  dup3\n  add\n    /* \"contracts/modules/ContestRoyalty.sol\":90:8188  contract ContestRoyalty is Storage  {... */\n  mstore\n    /* \"contracts/modules/Storage.sol\":1552:1563  1600 * 1e18 */\n  0x56bc75e2d631000000\n    /* \"contracts/modules/Storage.sol\":1313:1828  [... */\n  0x80\n    /* \"contracts/modules/Storage.sol\":5691:5761  [ 100e18, 200e18, 400e18, 800e18, 1600e18, 3200e18, 6400e18, 12800e18] */\n  dup3\n  add\n    /* \"contracts/modules/ContestRoyalty.sol\":90:8188  contract ContestRoyalty is Storage  {... */\n  mstore\n    /* \"contracts/modules/Storage.sol\":1586:1597  3200 * 1e18 */\n  0xad78ebc5ac62000000\n    /* \"contracts/modules/Storage.sol\":1313:1828  [... */\n  0xa0\n    /* \"contracts/modules/Storage.sol\":5691:5761  [ 100e18, 200e18, 400e18, 800e18, 1600e18, 3200e18, 6400e18, 12800e18] */\n  dup3\n  add\n    /* \"contracts/modules/ContestRoyalty.sol\":90:8188  contract ContestRoyalty is Storage  {... */\n  mstore\n    /* \"contracts/modules/Storage.sol\":1620:1631  6400 * 1e18 */\n  0x015af1d78b58c4000000\n    /* \"contracts/modules/Storage.sol\":1313:1828  [... */\n  0xc0\n    /* \"contracts/modules/Storage.sol\":5691:5761  [ 100e18, 200e18, 400e18, 800e18, 1600e18, 3200e18, 6400e18, 12800e18] */\n  dup3\n  add\n    /* \"contracts/modules/ContestRoyalty.sol\":90:8188  contract ContestRoyalty is Storage  {... */\n  mstore\n    /* \"contracts/modules/Storage.sol\":1654:1666  12800 * 1e18 */\n  0x02b5e3af16b188000000\n    /* \"contracts/modules/Storage.sol\":1313:1828  [... */\n  0xe0\n    /* \"contracts/modules/Storage.sol\":5691:5761  [ 100e18, 200e18, 400e18, 800e18, 1600e18, 3200e18, 6400e18, 12800e18] */\n  dup3\n  add\n    /* \"contracts/modules/ContestRoyalty.sol\":90:8188  contract ContestRoyalty is Storage  {... */\n  mstore\n    /* \"contracts/modules/Storage.sol\":5691:5761  [ 100e18, 200e18, 400e18, 800e18, 1600e18, 3200e18, 6400e18, 12800e18] */\n  0x14\n    /* \"contracts/modules/ContestRoyalty.sol\":90:8188  contract ContestRoyalty is Storage  {... */\n  sload\n    /* \"contracts/modules/Storage.sol\":5691:5761  [ 100e18, 200e18, 400e18, 800e18, 1600e18, 3200e18, 6400e18, 12800e18] */\n  0x08\n  0x14\n    /* \"contracts/modules/ContestRoyalty.sol\":90:8188  contract ContestRoyalty is Storage  {... */\n  sstore\n  dup1\n    /* \"contracts/modules/Storage.sol\":5691:5761  [ 100e18, 200e18, 400e18, 800e18, 1600e18, 3200e18, 6400e18, 12800e18] */\n  0x08\n    /* \"contracts/modules/ContestRoyalty.sol\":90:8188  contract ContestRoyalty is Storage  {... */\n  lt\n  tag_20\n  jumpi\ntag_21:\n  pop\n    /* \"contracts/modules/Storage.sol\":5691:5761  [ 100e18, 200e18, 400e18, 800e18, 1600e18, 3200e18, 6400e18, 12800e18] */\n  0x14\n    /* \"@openzeppelin/contracts/security/ReentrancyGuard.sol\":1821:1843  _status = _NOT_ENTERED */\n  0x00\n    /* \"contracts/modules/ContestRoyalty.sol\":90:8188  contract ContestRoyalty is Storage  {... */\n  mstore\n    /* \"contracts/modules/Storage.sol\":1313:1828  [... */\n  0x20\n    /* \"@openzeppelin/contracts/security/ReentrancyGuard.sol\":1821:1843  _status = _NOT_ENTERED */\n  0x00\n    /* \"contracts/modules/ContestRoyalty.sol\":90:8188  contract ContestRoyalty is Storage  {... */\n  keccak256\n  swap1\n    /* \"@openzeppelin/contracts/security/ReentrancyGuard.sol\":1821:1843  _status = _NOT_ENTERED */\n  0x00\n    /* \"contracts/modules/ContestRoyalty.sol\":90:8188  contract ContestRoyalty is Storage  {... */\ntag_22:\n    /* \"contracts/modules/Storage.sol\":5691:5761  [ 100e18, 200e18, 400e18, 800e18, 1600e18, 3200e18, 6400e18, 12800e18] */\n  0x08\n    /* \"contracts/modules/ContestRoyalty.sol\":90:8188  contract ContestRoyalty is Storage  {... */\n  dup2\n  lt\n  tag_23\n  jumpi\n  tag_25\n  tag_1\n  jump\t// in\ntag_25:\n    /* \"contracts/modules/Storage.sol\":5802:5803  3 */\n  0x03\n    /* \"contracts/modules/ContestRoyalty.sol\":90:8188  contract ContestRoyalty is Storage  {... */\n  dup2\n  mstore\n  0x05\n    /* \"contracts/modules/Storage.sol\":1313:1828  [... */\n  0x20\n    /* \"contracts/modules/Storage.sol\":5801:5825  [3, 5, 7, 9, 11, 13, 15] */\n  dup3\n  add\n    /* \"contracts/modules/ContestRoyalty.sol\":90:8188  contract ContestRoyalty is Storage  {... */\n  mstore\n    /* \"contracts/modules/Storage.sol\":5585:5649  [75e18, 300e18, 1200e18, 4800e18, 19200e18, 76800e18, 307200e18] */\n  0x07\n    /* \"contracts/modules/ContestRoyalty.sol\":90:8188  contract ContestRoyalty is Storage  {... */\n  0x40\n    /* \"contracts/modules/Storage.sol\":5801:5825  [3, 5, 7, 9, 11, 13, 15] */\n  dup3\n  add\n    /* \"contracts/modules/ContestRoyalty.sol\":90:8188  contract ContestRoyalty is Storage  {... */\n  mstore\n    /* \"contracts/modules/Storage.sol\":5811:5812  9 */\n  0x09\n    /* \"contracts/modules/Storage.sol\":1313:1828  [... */\n  0x60\n    /* \"contracts/modules/Storage.sol\":5801:5825  [3, 5, 7, 9, 11, 13, 15] */\n  dup3\n  add\n    /* \"contracts/modules/ContestRoyalty.sol\":90:8188  contract ContestRoyalty is Storage  {... */\n  mstore\n    /* \"contracts/modules/Storage.sol\":1313:1828  [... */\n  0x0b\n  0x80\n    /* \"contracts/modules/Storage.sol\":5801:5825  [3, 5, 7, 9, 11, 13, 15] */\n  dup3\n  add\n    /* \"contracts/modules/ContestRoyalty.sol\":90:8188  contract ContestRoyalty is Storage  {... */\n  mstore\n    /* \"contracts/modules/Storage.sol\":5818:5820  13 */\n  0x0d\n    /* \"contracts/modules/Storage.sol\":1313:1828  [... */\n  0xa0\n    /* \"contracts/modules/Storage.sol\":5801:5825  [3, 5, 7, 9, 11, 13, 15] */\n  dup3\n  add\n    /* \"contracts/modules/ContestRoyalty.sol\":90:8188  contract ContestRoyalty is Storage  {... */\n  mstore\n    /* \"contracts/modules/Storage.sol\":1313:1828  [... */\n  0x0f\n  0xc0\n    /* \"contracts/modules/Storage.sol\":5801:5825  [3, 5, 7, 9, 11, 13, 15] */\n  dup3\n  add\n    /* \"contracts/modules/ContestRoyalty.sol\":90:8188  contract ContestRoyalty is Storage  {... */\n  mstore\n    /* \"@openzeppelin/contracts/security/ReentrancyGuard.sol\":1821:1843  _status = _NOT_ENTERED */\n  0x00\n    /* \"contracts/modules/ContestRoyalty.sol\":90:8188  contract ContestRoyalty is Storage  {... */\ntag_26:\n    /* \"contracts/modules/Storage.sol\":5585:5649  [75e18, 300e18, 1200e18, 4800e18, 19200e18, 76800e18, 307200e18] */\n  0x07\n    /* \"contracts/modules/ContestRoyalty.sol\":90:8188  contract ContestRoyalty is Storage  {... */\n  dup2\n  lt\n  tag_27\n  jumpi\n  tag_29\n  tag_2\n  jump\t// in\ntag_29:\n    /* \"contracts/modules/Storage.sol\":5872:5873  4 */\n  0x04\n    /* \"contracts/modules/ContestRoyalty.sol\":90:8188  contract ContestRoyalty is Storage  {... */\n  dup2\n  mstore\n  0x05\n    /* \"contracts/modules/Storage.sol\":1313:1828  [... */\n  0x20\n    /* \"contracts/modules/Storage.sol\":5871:5896  [4, 5, 6, 7, 8, 9, 10,11] */\n  dup3\n  add\n    /* \"contracts/modules/ContestRoyalty.sol\":90:8188  contract ContestRoyalty is Storage  {... */\n  mstore\n    /* \"contracts/modules/Storage.sol\":5878:5879  6 */\n  0x06\n    /* \"contracts/modules/ContestRoyalty.sol\":90:8188  contract ContestRoyalty is Storage  {... */\n  0x40\n    /* \"contracts/modules/Storage.sol\":5871:5896  [4, 5, 6, 7, 8, 9, 10,11] */\n  dup3\n  add\n    /* \"contracts/modules/ContestRoyalty.sol\":90:8188  contract ContestRoyalty is Storage  {... */\n  mstore\n    /* \"contracts/modules/Storage.sol\":5585:5649  [75e18, 300e18, 1200e18, 4800e18, 19200e18, 76800e18, 307200e18] */\n  0x07\n    /* \"contracts/modules/Storage.sol\":1313:1828  [... */\n  0x60\n    /* \"contracts/modules/Storage.sol\":5871:5896  [4, 5, 6, 7, 8, 9, 10,11] */\n  dup3\n  add\n    /* \"contracts/modules/ContestRoyalty.sol\":90:8188  contract ContestRoyalty is Storage  {... */\n  mstore\n    /* \"contracts/modules/Storage.sol\":5691:5761  [ 100e18, 200e18, 400e18, 800e18, 1600e18, 3200e18, 6400e18, 12800e18] */\n  0x08\n    /* \"contracts/modules/Storage.sol\":1313:1828  [... */\n  0x80\n    /* \"contracts/modules/Storage.sol\":5871:5896  [4, 5, 6, 7, 8, 9, 10,11] */\n  dup3\n  add\n    /* \"contracts/modules/ContestRoyalty.sol\":90:8188  contract ContestRoyalty is Storage  {... */\n  mstore\n    /* \"contracts/modules/Storage.sol\":5811:5812  9 */\n  0x09\n    /* \"contracts/modules/Storage.sol\":1313:1828  [... */\n  0xa0\n    /* \"contracts/modules/Storage.sol\":5871:5896  [4, 5, 6, 7, 8, 9, 10,11] */\n  dup3\n  add\n    /* \"contracts/modules/ContestRoyalty.sol\":90:8188  contract ContestRoyalty is Storage  {... */\n  mstore\n    /* \"contracts/modules/Storage.sol\":5890:5892  10 */\n  0x0a\n    /* \"contracts/modules/Storage.sol\":1313:1828  [... */\n  0xc0\n    /* \"contracts/modules/Storage.sol\":5871:5896  [4, 5, 6, 7, 8, 9, 10,11] */\n  dup3\n  add\n    /* \"contracts/modules/ContestRoyalty.sol\":90:8188  contract ContestRoyalty is Storage  {... */\n  mstore\n    /* \"contracts/modules/Storage.sol\":1313:1828  [... */\n  0x0b\n  0xe0\n    /* \"contracts/modules/Storage.sol\":5871:5896  [4, 5, 6, 7, 8, 9, 10,11] */\n  dup3\n  add\n    /* \"contracts/modules/ContestRoyalty.sol\":90:8188  contract ContestRoyalty is Storage  {... */\n  mstore\n    /* \"@openzeppelin/contracts/security/ReentrancyGuard.sol\":1821:1843  _status = _NOT_ENTERED */\n  0x00\n    /* \"contracts/modules/ContestRoyalty.sol\":90:8188  contract ContestRoyalty is Storage  {... */\ntag_30:\n    /* \"contracts/modules/Storage.sol\":5691:5761  [ 100e18, 200e18, 400e18, 800e18, 1600e18, 3200e18, 6400e18, 12800e18] */\n  0x08\n    /* \"contracts/modules/ContestRoyalty.sol\":90:8188  contract ContestRoyalty is Storage  {... */\n  dup2\n  lt\n  tag_31\n  jumpi\n  tag_33\n  tag_2\n  jump\t// in\ntag_33:\n    /* \"@openzeppelin/contracts/security/ReentrancyGuard.sol\":1821:1843  _status = _NOT_ENTERED */\n  0x00\n    /* \"contracts/modules/ContestRoyalty.sol\":90:8188  contract ContestRoyalty is Storage  {... */\n  dup2\n  mstore\n    /* \"@openzeppelin/contracts/security/ReentrancyGuard.sol\":1716:1717  1 */\n  0x01\n    /* \"contracts/modules/Storage.sol\":1313:1828  [... */\n  0x20\n    /* \"contracts/modules/Storage.sol\":5941:5964  [0, 1, 1, 1, 1, 1, 1,1] */\n  dup3\n  add\n    /* \"contracts/modules/ContestRoyalty.sol\":90:8188  contract ContestRoyalty is Storage  {... */\n  mstore\n    /* \"@openzeppelin/contracts/security/ReentrancyGuard.sol\":1716:1717  1 */\n  0x01\n    /* \"contracts/modules/ContestRoyalty.sol\":90:8188  contract ContestRoyalty is Storage  {... */\n  0x40\n    /* \"contracts/modules/Storage.sol\":5941:5964  [0, 1, 1, 1, 1, 1, 1,1] */\n  dup3\n  add\n    /* \"contracts/modules/ContestRoyalty.sol\":90:8188  contract ContestRoyalty is Storage  {... */\n  mstore\n    /* \"@openzeppelin/contracts/security/ReentrancyGuard.sol\":1716:1717  1 */\n  0x01\n    /* \"contracts/modules/Storage.sol\":1313:1828  [... */\n  0x60\n    /* \"contracts/modules/Storage.sol\":5941:5964  [0, 1, 1, 1, 1, 1, 1,1] */\n  dup3\n  add\n    /* \"contracts/modules/ContestRoyalty.sol\":90:8188  contract ContestRoyalty is Storage  {... */\n  mstore\n    /* \"@openzeppelin/contracts/security/ReentrancyGuard.sol\":1716:1717  1 */\n  0x01\n    /* \"contracts/modules/Storage.sol\":1313:1828  [... */\n  0x80\n    /* \"contracts/modules/Storage.sol\":5941:5964  [0, 1, 1, 1, 1, 1, 1,1] */\n  dup3\n  add\n    /* \"contracts/modules/ContestRoyalty.sol\":90:8188  contract ContestRoyalty is Storage  {... */\n  mstore\n    /* \"@openzeppelin/contracts/security/ReentrancyGuard.sol\":1716:1717  1 */\n  0x01\n    /* \"contracts/modules/Storage.sol\":1313:1828  [... */\n  0xa0\n    /* \"contracts/modules/Storage.sol\":5941:5964  [0, 1, 1, 1, 1, 1, 1,1] */\n  dup3\n  add\n    /* \"contracts/modules/ContestRoyalty.sol\":90:8188  contract ContestRoyalty is Storage  {... */\n  mstore\n    /* \"@openzeppelin/contracts/security/ReentrancyGuard.sol\":1716:1717  1 */\n  0x01\n    /* \"contracts/modules/Storage.sol\":1313:1828  [... */\n  0xc0\n    /* \"contracts/modules/Storage.sol\":5941:5964  [0, 1, 1, 1, 1, 1, 1,1] */\n  dup3\n  add\n    /* \"contracts/modules/ContestRoyalty.sol\":90:8188  contract ContestRoyalty is Storage  {... */\n  mstore\n    /* \"@openzeppelin/contracts/security/ReentrancyGuard.sol\":1716:1717  1 */\n  0x01\n    /* \"contracts/modules/Storage.sol\":1313:1828  [... */\n  0xe0\n    /* \"contracts/modules/Storage.sol\":5941:5964  [0, 1, 1, 1, 1, 1, 1,1] */\n  dup3\n  add\n    /* \"contracts/modules/ContestRoyalty.sol\":90:8188  contract ContestRoyalty is Storage  {... */\n  mstore\n    /* \"@openzeppelin/contracts/security/ReentrancyGuard.sol\":1821:1843  _status = _NOT_ENTERED */\n  0x00\n    /* \"contracts/modules/ContestRoyalty.sol\":90:8188  contract ContestRoyalty is Storage  {... */\ntag_34:\n    /* \"contracts/modules/Storage.sol\":5691:5761  [ 100e18, 200e18, 400e18, 800e18, 1600e18, 3200e18, 6400e18, 12800e18] */\n  0x08\n    /* \"contracts/modules/ContestRoyalty.sol\":90:8188  contract ContestRoyalty is Storage  {... */\n  dup2\n  lt\n  tag_35\n  jumpi\n    /* \"contracts/modules/ContestRoyalty.sol\":191:206  block.timestamp */\n  timestamp\n    /* \"contracts/modules/Storage.sol\":7539:7540  0 */\n  0x37\n    /* \"contracts/modules/ContestRoyalty.sol\":90:8188  contract ContestRoyalty is Storage  {... */\n  sstore\n    /* \"contracts/modules/ContestRoyalty.sol\":191:206  block.timestamp */\n  timestamp\n    /* \"contracts/modules/Storage.sol\":8999:9000  0 */\n  0x3e\n    /* \"contracts/modules/ContestRoyalty.sol\":90:8188  contract ContestRoyalty is Storage  {... */\n  sstore\n    /* \"@openzeppelin/contracts/security/ReentrancyGuard.sol\":1821:1843  _status = _NOT_ENTERED */\n  0x00\n    /* \"contracts/modules/Storage.sol\":7581:7582  0 */\n  0x38\n    /* \"contracts/modules/ContestRoyalty.sol\":90:8188  contract ContestRoyalty is Storage  {... */\n  sstore\n    /* \"@openzeppelin/contracts/security/ReentrancyGuard.sol\":1716:1717  1 */\n  0x01\n    /* \"contracts/modules/Storage.sol\":7494:7495  0 */\n  0x36\n    /* \"contracts/modules/ContestRoyalty.sol\":90:8188  contract ContestRoyalty is Storage  {... */\n  sstore\n    /* \"@openzeppelin/contracts/security/ReentrancyGuard.sol\":1821:1843  _status = _NOT_ENTERED */\n  0x00\n    /* \"contracts/modules/Storage.sol\":9040:9041  0 */\n  0x3f\n    /* \"contracts/modules/ContestRoyalty.sol\":90:8188  contract ContestRoyalty is Storage  {... */\n  sstore\n    /* \"@openzeppelin/contracts/security/ReentrancyGuard.sol\":1716:1717  1 */\n  0x01\n    /* \"contracts/modules/Storage.sol\":8953:8954  1 */\n  0x3d\n    /* \"contracts/modules/ContestRoyalty.sol\":90:8188  contract ContestRoyalty is Storage  {... */\n  sstore\n  mload(0x40)\n  dataSize(sub_0)\n  swap1\n  dup2\n  dataOffset(sub_0)\n  dup3\n  codecopy\n  return\ntag_35:\n    /* \"@openzeppelin/contracts/security/ReentrancyGuard.sol\":1716:1717  1 */\n  0x01\n    /* \"contracts/modules/ContestRoyalty.sol\":90:8188  contract ContestRoyalty is Storage  {... */\n  swap1\n    /* \"contracts/modules/Storage.sol\":1313:1828  [... */\n  0x20\n    /* \"contracts/modules/ContestRoyalty.sol\":90:8188  contract ContestRoyalty is Storage  {... */\n  0xff\n  dup5\n  mload\n  and\n  swap4\n  add\n  swap3\n  dup2\n    /* \"contracts/modules/Storage.sol\":5941:5964  [0, 1, 1, 1, 1, 1, 1,1] */\n  0x24\n    /* \"contracts/modules/ContestRoyalty.sol\":90:8188  contract ContestRoyalty is Storage  {... */\n  add\n  sstore\n  add\n  jump(tag_34)\ntag_31:\n    /* \"@openzeppelin/contracts/security/ReentrancyGuard.sol\":1716:1717  1 */\n  0x01\n    /* \"contracts/modules/ContestRoyalty.sol\":90:8188  contract ContestRoyalty is Storage  {... */\n  swap1\n    /* \"contracts/modules/Storage.sol\":1313:1828  [... */\n  0x20\n    /* \"contracts/modules/ContestRoyalty.sol\":90:8188  contract ContestRoyalty is Storage  {... */\n  0xff\n  dup5\n  mload\n  and\n  swap4\n  add\n  swap3\n  dup2\n    /* \"contracts/modules/Storage.sol\":5871:5896  [4, 5, 6, 7, 8, 9, 10,11] */\n  0x1c\n    /* \"contracts/modules/ContestRoyalty.sol\":90:8188  contract ContestRoyalty is Storage  {... */\n  add\n  sstore\n  add\n  jump(tag_30)\ntag_27:\n    /* \"@openzeppelin/contracts/security/ReentrancyGuard.sol\":1716:1717  1 */\n  0x01\n    /* \"contracts/modules/ContestRoyalty.sol\":90:8188  contract ContestRoyalty is Storage  {... */\n  swap1\n    /* \"contracts/modules/Storage.sol\":1313:1828  [... */\n  0x20\n    /* \"contracts/modules/ContestRoyalty.sol\":90:8188  contract ContestRoyalty is Storage  {... */\n  0xff\n  dup5\n  mload\n  and\n  swap4\n  add\n  swap3\n  dup2\n    /* \"contracts/modules/Storage.sol\":5801:5825  [3, 5, 7, 9, 11, 13, 15] */\n  0x15\n    /* \"contracts/modules/ContestRoyalty.sol\":90:8188  contract ContestRoyalty is Storage  {... */\n  add\n  sstore\n  add\n  jump(tag_26)\ntag_23:\n  dup2\n  mload\n  sub(shl(0x50, 0x01), 0x01)\n  and\n  dup2\n  dup5\n  add\n  sstore\n    /* \"contracts/modules/Storage.sol\":1313:1828  [... */\n  0x20\n    /* \"contracts/modules/ContestRoyalty.sol\":90:8188  contract ContestRoyalty is Storage  {... */\n  swap1\n  swap2\n  add\n  swap1\n    /* \"@openzeppelin/contracts/security/ReentrancyGuard.sol\":1716:1717  1 */\n  0x01\n    /* \"contracts/modules/ContestRoyalty.sol\":90:8188  contract ContestRoyalty is Storage  {... */\n  add\n  jump(tag_22)\ntag_20:\n    /* \"contracts/modules/Storage.sol\":5691:5761  [ 100e18, 200e18, 400e18, 800e18, 1600e18, 3200e18, 6400e18, 12800e18] */\n  0x14\n    /* \"@openzeppelin/contracts/security/ReentrancyGuard.sol\":1821:1843  _status = _NOT_ENTERED */\n  0x00\n    /* \"contracts/modules/ContestRoyalty.sol\":90:8188  contract ContestRoyalty is Storage  {... */\n  mstore\n  tag_37\n  swap1\n  0xce6d7b5282bd9a3661ae061feed1dbda4e52ab073b1f9285be6e155d9c38d4ec\n  add\n  0xce6d7b5282bd9a3661ae061feed1dbda4e52ab073b1f9285be6e155d9c38d4f4\n  tag_3\n  jump\t// in\ntag_37:\n  dup2\n  jump(tag_21)\ntag_17:\n  dup2\n  mload\n  sub(shl(0x50, 0x01), 0x01)\n  and\n  dup2\n  dup5\n  add\n  sstore\n    /* \"contracts/modules/Storage.sol\":1313:1828  [... */\n  0x20\n    /* \"contracts/modules/ContestRoyalty.sol\":90:8188  contract ContestRoyalty is Storage  {... */\n  swap1\n  swap2\n  add\n  swap1\n    /* \"@openzeppelin/contracts/security/ReentrancyGuard.sol\":1716:1717  1 */\n  0x01\n    /* \"contracts/modules/ContestRoyalty.sol\":90:8188  contract ContestRoyalty is Storage  {... */\n  add\n  jump(tag_16)\ntag_14:\n    /* \"contracts/modules/Storage.sol\":5585:5649  [75e18, 300e18, 1200e18, 4800e18, 19200e18, 76800e18, 307200e18] */\n  0x13\n    /* \"@openzeppelin/contracts/security/ReentrancyGuard.sol\":1821:1843  _status = _NOT_ENTERED */\n  0x00\n    /* \"contracts/modules/ContestRoyalty.sol\":90:8188  contract ContestRoyalty is Storage  {... */\n  mstore\n  tag_38\n  swap1\n  0x66de8ffda797e3de9c05e8fc57b3bf0ec28a930d40b0d285d93c06501cf6a090\n  add\n  0x66de8ffda797e3de9c05e8fc57b3bf0ec28a930d40b0d285d93c06501cf6a097\n  tag_3\n  jump\t// in\ntag_38:\n  dup2\n  jump(tag_15)\ntag_11:\n  dup2\n  mload\n  sub(shl(0x50, 0x01), 0x01)\n  and\n  dup2\n  dup5\n  add\n  sstore\n    /* \"contracts/modules/Storage.sol\":1313:1828  [... */\n  0x20\n    /* \"contracts/modules/ContestRoyalty.sol\":90:8188  contract ContestRoyalty is Storage  {... */\n  swap1\n  swap2\n  add\n  swap1\n    /* \"@openzeppelin/contracts/security/ReentrancyGuard.sol\":1716:1717  1 */\n  0x01\n    /* \"contracts/modules/ContestRoyalty.sol\":90:8188  contract ContestRoyalty is Storage  {... */\n  add\n  jump(tag_10)\ntag_8:\n    /* \"contracts/modules/Storage.sol\":1313:1828  [... */\n  0x0b\n    /* \"@openzeppelin/contracts/security/ReentrancyGuard.sol\":1821:1843  _status = _NOT_ENTERED */\n  0x00\n    /* \"contracts/modules/ContestRoyalty.sol\":90:8188  contract ContestRoyalty is Storage  {... */\n  mstore\n  tag_39\n  swap1\n  0x0175b7a638427703f0dbe7bb9bbf987a2551717b34e79f33b5b1008d1fa01db9\n  add\n  0x0175b7a638427703f0dbe7bb9bbf987a2551717b34e79f33b5b1008d1fa01dc8\n  tag_3\n  jump\t// in\ntag_39:\n  0x00\n  jump(tag_9)\ntag_6:\n  shl(0xe0, 0x4e487b71)\n    /* \"@openzeppelin/contracts/security/ReentrancyGuard.sol\":1821:1843  _status = _NOT_ENTERED */\n  0x00\n    /* \"contracts/modules/ContestRoyalty.sol\":90:8188  contract ContestRoyalty is Storage  {... */\n  mstore\n  mstore(0x04, 0x41)\n  0x24\n    /* \"@openzeppelin/contracts/security/ReentrancyGuard.sol\":1821:1843  _status = _NOT_ENTERED */\n  0x00\n    /* \"contracts/modules/ContestRoyalty.sol\":90:8188  contract ContestRoyalty is Storage  {... */\n  revert\ntag_4:\n  0x00\n  dup1\n  revert\ntag_1:\n  mload(0x40)\n  swap1\n  0xe0\n  dup3\n  add\n  sub(shl(0x40, 0x01), 0x01)\n  dup2\n  gt\n  dup4\n  dup3\n  lt\n  or\n  tag_6\n  jumpi\n  0x40\n  mstore\n  jump\t// out\ntag_2:\n  mload(0x40)\n  swap1\n  0x0100\n  dup3\n  add\n  sub(shl(0x40, 0x01), 0x01)\n  dup2\n  gt\n  dup4\n  dup3\n  lt\n  or\n  tag_6\n  jumpi\n  0x40\n  mstore\n  jump\t// out\ntag_3:\n  dup2\n  dup2\n  lt\n  tag_45\n  jumpi\n  pop\n  pop\n  jump\t// out\ntag_45:\n  0x00\n  dup2\n  sstore\n  0x01\n  add\n  jump(tag_3)\nstop\n\nsub_0: assembly {\n        /* \"contracts/modules/ContestRoyalty.sol\":90:8188  contract ContestRoyalty is Storage  {... */\n      0x80\n      dup1\n      0x40\n      mstore\n      jumpi(tag_10, iszero(lt(calldatasize, 0x04)))\n      0x00\n      dup1\n      revert\n    tag_10:\n      0x00\n      swap1\n      shr(0xe0, calldataload(0x00))\n      swap1\n      dup2\n      0x01c234a8\n      eq\n      tag_12\n      jumpi\n      pop\n      dup1\n      0x16298056\n      eq\n      tag_14\n      jumpi\n      dup1\n      0x2132d204\n      eq\n      tag_16\n      jumpi\n      dup1\n      0x2350268f\n      eq\n      tag_18\n      jumpi\n      dup1\n      0x2a891534\n      eq\n      tag_20\n      jumpi\n      dup1\n      0x2f48ab7d\n      eq\n      tag_22\n      jumpi\n      dup1\n      0x3080b5bc\n      eq\n      tag_24\n      jumpi\n      dup1\n      0x32bc298c\n      eq\n      tag_26\n      jumpi\n      dup1\n      0x32fcd966\n      eq\n      tag_28\n      jumpi\n      dup1\n      0x375b43b4\n      eq\n      tag_30\n      jumpi\n      dup1\n      0x39ab3603\n      eq\n      tag_32\n      jumpi\n      dup1\n      0x4c2215e3\n      eq\n      tag_34\n      jumpi\n      dup1\n      0x58c7d352\n      eq\n      tag_36\n      jumpi\n      dup1\n      0x76f5f700\n      eq\n      tag_38\n      jumpi\n      dup1\n      0x78f6ad6d\n      eq\n      tag_40\n      jumpi\n      dup1\n      0x7cdc65f2\n      eq\n      tag_42\n      jumpi\n      dup1\n      0x7d846e38\n      eq\n      tag_44\n      jumpi\n      dup1\n      0x956a3228\n      eq\n      tag_46\n      jumpi\n      dup1\n      0xa59d17d1\n      eq\n      tag_48\n      jumpi\n      dup1\n      0xae4708dc\n      eq\n      tag_50\n      jumpi\n      dup1\n      0xbff1f9e1\n      eq\n      tag_52\n      jumpi\n      dup1\n      0xc216212a\n      eq\n      tag_54\n      jumpi\n      dup1\n      0xc8df2908\n      eq\n      tag_56\n      jumpi\n      dup1\n      0xc9ed0708\n      eq\n      tag_58\n      jumpi\n      dup1\n      0xca8e9121\n      eq\n      tag_60\n      jumpi\n      dup1\n      0xd0a2fd79\n      eq\n      tag_62\n      jumpi\n      dup1\n      0xe898fc38\n      eq\n      tag_64\n      jumpi\n      dup1\n      0xe9e34a16\n      eq\n      tag_66\n      jumpi\n      dup1\n      0xebe0ff15\n      eq\n      tag_68\n      jumpi\n      dup1\n      0xec597e6f\n      eq\n      tag_70\n      jumpi\n      dup1\n      0xf5d74d93\n      eq\n      tag_72\n      jumpi\n      0xfddc806f\n      eq\n      tag_74\n      jumpi\n      0x00\n      dup1\n      revert\n    tag_74:\n      jumpi(tag_78, callvalue)\n      dup1\n      add(calldatasize, not(0x03))\n      slt\n      tag_78\n      jumpi\n      0x20\n        /* \"contracts/modules/Storage.sol\":7502:7540  uint public currentWeeklyStartTime = 0 */\n      0x37\n        /* \"contracts/modules/ContestRoyalty.sol\":90:8188  contract ContestRoyalty is Storage  {... */\n      sload\n      mload(0x40)\n      swap1\n      dup2\n      mstore\n      return\n    tag_78:\n      dup1\n      revert\n    tag_72:\n      pop\n      jumpi(tag_78, callvalue)\n      dup1\n      add(calldatasize, not(0x03))\n      slt\n      tag_78\n      jumpi\n      sload(0x04)\n      mload(0x40)\n      sub(shl(0xa0, 0x01), 0x01)\n      swap1\n      swap2\n      and\n      dup2\n      mstore\n      0x20\n      swap1\n      return\n    tag_70:\n      pop\n      jumpi(tag_78, callvalue)\n      dup1\n      add(calldatasize, not(0x03))\n      slt\n      tag_78\n      jumpi\n      0x20\n        /* \"contracts/modules/Storage.sol\":534:558  uint public defaultRefId */\n      0x05\n        /* \"contracts/modules/ContestRoyalty.sol\":90:8188  contract ContestRoyalty is Storage  {... */\n      sload\n      mload(0x40)\n      swap1\n      dup2\n      mstore\n      return\n    tag_68:\n      pop\n      jumpi(tag_78, callvalue)\n      dup1\n      add(calldatasize, not(0x03))\n      slt\n      tag_78\n      jumpi\n      0x20\n      mload(0x40)\n        /* \"contracts/modules/Storage.sol\":7442:7449  1000e18 */\n      0x3635c9adc5dea00000\n        /* \"contracts/modules/ContestRoyalty.sol\":90:8188  contract ContestRoyalty is Storage  {... */\n      dup2\n      mstore\n      return\n    tag_66:\n      pop\n      jumpi(tag_78, callvalue)\n      dup1\n      add(calldatasize, not(0x03))\n      slt\n      tag_78\n      jumpi\n        /* \"contracts/modules/Storage.sol\":460:490  address public systemMaintance */\n      0x03\n        /* \"contracts/modules/ContestRoyalty.sol\":90:8188  contract ContestRoyalty is Storage  {... */\n      sload\n      mload(0x40)\n      sub(shl(0xa0, 0x01), 0x01)\n      swap1\n      swap2\n      and\n      dup2\n      mstore\n      0x20\n      swap1\n      return\n    tag_64:\n      pop\n      jumpi(tag_78, callvalue)\n      dup1\n      add(calldatasize, not(0x03))\n      slt\n      tag_78\n      jumpi\n      0x20\n        /* \"contracts/modules/Storage.sol\":8961:9000  uint public currentMonthlyStartTime = 0 */\n      0x3e\n        /* \"contracts/modules/ContestRoyalty.sol\":90:8188  contract ContestRoyalty is Storage  {... */\n      sload\n      mload(0x40)\n      swap1\n      dup2\n      mstore\n      return\n    tag_62:\n      pop\n      jumpi(tag_78, callvalue)\n      jumpi(tag_78, slt(add(not(0x03), calldatasize), 0x20))\n      calldataload(0x04)\n      0x08\n        /* \"contracts/modules/Storage.sol\":5832:5896  uint[8] public minLevelForGlbBooster = [4, 5, 6, 7, 8, 9, 10,11] */\n      dup2\n      lt\n      iszero\n      tag_104\n      jumpi\n        /* \"contracts/modules/ContestRoyalty.sol\":90:8188  contract ContestRoyalty is Storage  {... */\n      0x20\n      swap2\n      pop\n        /* \"contracts/modules/Storage.sol\":5832:5896  uint[8] public minLevelForGlbBooster = [4, 5, 6, 7, 8, 9, 10,11] */\n      0x1c\n        /* \"contracts/modules/ContestRoyalty.sol\":90:8188  contract ContestRoyalty is Storage  {... */\n      add\n      sload\n      mload(0x40)\n      swap1\n      dup2\n      mstore\n      return\n        /* \"contracts/modules/Storage.sol\":5832:5896  uint[8] public minLevelForGlbBooster = [4, 5, 6, 7, 8, 9, 10,11] */\n    tag_104:\n      pop\n        /* \"contracts/modules/ContestRoyalty.sol\":90:8188  contract ContestRoyalty is Storage  {... */\n      dup1\n      revert\n    tag_60:\n      pop\n      jumpi(tag_78, callvalue)\n      dup1\n      add(calldatasize, not(0x03))\n      slt\n      tag_78\n      jumpi\n      0x20\n        /* \"contracts/modules/Storage.sol\":7461:7495  uint public currentWeeklyRound = 0 */\n      0x36\n        /* \"contracts/modules/ContestRoyalty.sol\":90:8188  contract ContestRoyalty is Storage  {... */\n      sload\n      mload(0x40)\n      swap1\n      dup2\n      mstore\n      return\n    tag_58:\n      pop\n      jumpi(tag_78, callvalue)\n      dup1\n      add(calldatasize, not(0x03))\n      slt\n      tag_78\n      jumpi\n      0x20\n        /* \"contracts/modules/Storage.sol\":8919:8954  uint public currentMonthlyRound = 1 */\n      0x3d\n        /* \"contracts/modules/ContestRoyalty.sol\":90:8188  contract ContestRoyalty is Storage  {... */\n      sload\n      mload(0x40)\n      swap1\n      dup2\n      mstore\n      return\n    tag_56:\n      pop\n      jumpi(tag_78, callvalue)\n      dup1\n      add(calldatasize, not(0x03))\n      slt\n      tag_78\n      jumpi\n      0x20\n      mload(0x40)\n        /* \"contracts/modules/Storage.sol\":8898:8906  10000e18 */\n      0x021e19e0c9bab2400000\n        /* \"contracts/modules/ContestRoyalty.sol\":90:8188  contract ContestRoyalty is Storage  {... */\n      dup2\n      mstore\n      return\n    tag_54:\n      pop\n      jumpi(tag_78, callvalue)\n      jumpi(tag_78, slt(add(not(0x03), calldatasize), 0x20))\n      calldataload(0x04)\n      swap1\n        /* \"contracts/modules/Storage.sol\":1288:1828  uint[] public packages = [... */\n      0x0b\n        /* \"contracts/modules/ContestRoyalty.sol\":90:8188  contract ContestRoyalty is Storage  {... */\n      sload\n        /* \"contracts/modules/Storage.sol\":1288:1828  uint[] public packages = [... */\n      dup3\n      lt\n      iszero\n      tag_78\n      jumpi\n      0x0b\n        /* \"contracts/modules/ContestRoyalty.sol\":90:8188  contract ContestRoyalty is Storage  {... */\n      sload\n      dup3\n      lt\n      iszero\n      tag_124\n      jumpi\n      0x20\n      swap2\n        /* \"contracts/modules/Storage.sol\":1288:1828  uint[] public packages = [... */\n      0x0b\n        /* \"contracts/modules/ContestRoyalty.sol\":90:8188  contract ContestRoyalty is Storage  {... */\n      dup3\n      mstore\n      dup3\n      dup3\n      keccak256\n      add\n      sload\n      swap1\n      0x03\n      shl\n      shr\n      mload(0x40)\n      swap1\n      dup2\n      mstore\n      return\n    tag_124:\n      shl(0xe0, 0x4e487b71)\n      dup2\n      mstore\n      mstore(0x04, 0x32)\n      0x24\n      swap1\n      revert\n    tag_52:\n      pop\n      jumpi(tag_78, callvalue)\n      dup1\n      add(calldatasize, not(0x03))\n      slt\n      tag_78\n      jumpi\n      0x20\n        /* \"contracts/modules/Storage.sol\":565:587  uint public totalUsers */\n      0x06\n        /* \"contracts/modules/ContestRoyalty.sol\":90:8188  contract ContestRoyalty is Storage  {... */\n      sload\n      mload(0x40)\n      swap1\n      dup2\n      mstore\n      return\n    tag_50:\n      pop\n      jumpi(tag_78, callvalue)\n      jumpi(tag_78, slt(add(not(0x03), calldatasize), 0x20))\n      calldataload(0x04)\n      swap1\n        /* \"contracts/modules/Storage.sol\":5556:5649  uint[] public poolPackages = [75e18, 300e18, 1200e18, 4800e18, 19200e18, 76800e18, 307200e18] */\n      0x13\n        /* \"contracts/modules/ContestRoyalty.sol\":90:8188  contract ContestRoyalty is Storage  {... */\n      sload\n        /* \"contracts/modules/Storage.sol\":5556:5649  uint[] public poolPackages = [75e18, 300e18, 1200e18, 4800e18, 19200e18, 76800e18, 307200e18] */\n      dup3\n      lt\n      iszero\n      tag_78\n      jumpi\n      0x13\n        /* \"contracts/modules/ContestRoyalty.sol\":90:8188  contract ContestRoyalty is Storage  {... */\n      sload\n      dup3\n      lt\n      iszero\n      tag_124\n      jumpi\n      0x20\n      swap2\n        /* \"contracts/modules/Storage.sol\":5556:5649  uint[] public poolPackages = [75e18, 300e18, 1200e18, 4800e18, 19200e18, 76800e18, 307200e18] */\n      0x13\n        /* \"contracts/modules/ContestRoyalty.sol\":90:8188  contract ContestRoyalty is Storage  {... */\n      dup3\n      mstore\n      dup3\n      dup3\n      keccak256\n      add\n      sload\n      swap1\n      0x03\n      shl\n      shr\n      mload(0x40)\n      swap1\n      dup2\n      mstore\n      return\n    tag_48:\n      pop\n      jumpi(tag_78, callvalue)\n      dup1\n      add(calldatasize, not(0x03))\n      slt\n      tag_78\n      jumpi\n      0x20\n        /* \"contracts/modules/Storage.sol\":9007:9041  uint public monthlyTotalReward = 0 */\n      0x3f\n        /* \"contracts/modules/ContestRoyalty.sol\":90:8188  contract ContestRoyalty is Storage  {... */\n      sload\n      mload(0x40)\n      swap1\n      dup2\n      mstore\n      return\n    tag_46:\n      pop\n      jumpi(tag_78, callvalue)\n      jumpi(tag_78, slt(add(not(0x03), calldatasize), 0x20))\n      calldataload(0x04)\n      0x08\n        /* \"contracts/modules/Storage.sol\":5903:5964  uint[8] public minPoolForGlbBooster = [0, 1, 1, 1, 1, 1, 1,1] */\n      dup2\n      lt\n      iszero\n      tag_104\n      jumpi\n        /* \"contracts/modules/ContestRoyalty.sol\":90:8188  contract ContestRoyalty is Storage  {... */\n      0x20\n      swap2\n      pop\n        /* \"contracts/modules/Storage.sol\":5903:5964  uint[8] public minPoolForGlbBooster = [0, 1, 1, 1, 1, 1, 1,1] */\n      0x24\n        /* \"contracts/modules/ContestRoyalty.sol\":90:8188  contract ContestRoyalty is Storage  {... */\n      add\n      sload\n      mload(0x40)\n      swap1\n      dup2\n      mstore\n      return\n    tag_44:\n      pop\n      jumpi(tag_78, callvalue)\n      0x20\n      tag_150\n      tag_151\n      calldatasize\n      tag_1\n      jump\t// in\n    tag_151:\n      swap1\n      tag_8\n      jump\t// in\n    tag_150:\n      mload(0x40)\n      swap1\n      iszero\n      iszero\n      dup2\n      mstore\n      return\n    tag_42:\n      pop\n      jumpi(tag_78, callvalue)\n      dup1\n      add(calldatasize, not(0x03))\n      slt\n      tag_78\n      jumpi\n        /* \"contracts/modules/Storage.sol\":422:450  address public creatorWallet */\n      0x02\n        /* \"contracts/modules/ContestRoyalty.sol\":90:8188  contract ContestRoyalty is Storage  {... */\n      sload\n      mload(0x40)\n      sub(shl(0xa0, 0x01), 0x01)\n      swap1\n      swap2\n      and\n      dup2\n      mstore\n      0x20\n      swap1\n      return\n    tag_40:\n      pop\n      jumpi(tag_78, callvalue)\n      dup1\n      add(calldatasize, not(0x03))\n      slt\n      tag_78\n      jumpi\n      0x20\n        /* \"contracts/modules/Storage.sol\":1131:1165  uint256 public communityAccPerUser */\n      0x09\n        /* \"contracts/modules/ContestRoyalty.sol\":90:8188  contract ContestRoyalty is Storage  {... */\n      sload\n      mload(0x40)\n      swap1\n      dup2\n      mstore\n      return\n    tag_38:\n      pop\n      jumpi(tag_78, callvalue)\n      dup1\n      add(calldatasize, not(0x03))\n      slt\n      tag_78\n      jumpi\n      0x20\n      mload(0x40)\n        /* \"contracts/modules/Storage.sol\":7389:7395  7 days */\n      0x093a80\n        /* \"contracts/modules/ContestRoyalty.sol\":90:8188  contract ContestRoyalty is Storage  {... */\n      dup2\n      mstore\n      return\n    tag_36:\n      pop\n      jumpi(tag_78, callvalue)\n      dup1\n      add(calldatasize, not(0x03))\n      slt\n      tag_78\n      jumpi\n      0x20\n      mload(0x40)\n        /* \"contracts/modules/Storage.sol\":848:850  10 */\n      0x0a\n        /* \"contracts/modules/ContestRoyalty.sol\":90:8188  contract ContestRoyalty is Storage  {... */\n      dup2\n      mstore\n      return\n    tag_34:\n      pop\n      jumpi(tag_78, callvalue)\n      tag_170\n      calldatasize\n      tag_1\n      jump\t// in\n    tag_170:\n        /* \"@openzeppelin/contracts/security/ReentrancyGuard.sol\":2227:2330  modifier nonReentrant() {... */\n      swap2\n      swap1\n      tag_171\n      tag_9\n      jump\t// in\n    tag_171:\n        /* \"contracts/modules/ContestRoyalty.sol\":90:8188  contract ContestRoyalty is Storage  {... */\n      dup1\n      dup3\n      mstore\n        /* \"contracts/modules/ContestRoyalty.sol\":3335:3340  users */\n      0x0d\n        /* \"contracts/modules/ContestRoyalty.sol\":90:8188  contract ContestRoyalty is Storage  {... */\n      0x20\n      mstore\n        /* \"contracts/modules/ContestRoyalty.sol\":3406:3460  require(userAddress == msg.sender, \"Not your account\") */\n      tag_172\n        /* \"contracts/modules/ContestRoyalty.sol\":90:8188  contract ContestRoyalty is Storage  {... */\n      0x01\n      dup1\n      0xa0\n      shl\n      sub\n      0x40\n      dup5\n      keccak256\n      sload\n      and\n        /* \"contracts/modules/ContestRoyalty.sol\":3429:3439  msg.sender */\n      caller\n        /* \"contracts/modules/ContestRoyalty.sol\":3414:3439  userAddress == msg.sender */\n      eq\n        /* \"contracts/modules/ContestRoyalty.sol\":3406:3460  require(userAddress == msg.sender, \"Not your account\") */\n      tag_2\n      jump\t// in\n    tag_172:\n        /* \"contracts/modules/ContestRoyalty.sol\":3479:3490  _userId > 0 */\n      dup1\n      iszero\n      iszero\n        /* \"contracts/modules/ContestRoyalty.sol\":3479:3506  _userId > 0 && _roundId > 0 */\n      dup1\n      tag_173\n      jumpi\n        /* \"contracts/modules/ContestRoyalty.sol\":90:8188  contract ContestRoyalty is Storage  {... */\n    tag_174:\n        /* \"contracts/modules/ContestRoyalty.sol\":3479:3552  _userId > 0 && _roundId > 0 && monthlyRoyaltydtl[_roundId].closed == true */\n      dup1\n      tag_175\n      jumpi\n        /* \"contracts/modules/ContestRoyalty.sol\":90:8188  contract ContestRoyalty is Storage  {... */\n    tag_176:\n        /* \"contracts/modules/ContestRoyalty.sol\":3479:3586  _userId > 0 && _roundId > 0 && monthlyRoyaltydtl[_roundId].closed == true && _roundId < currentMonthlyRound */\n      dup1\n      tag_177\n      jumpi\n        /* \"contracts/modules/ContestRoyalty.sol\":90:8188  contract ContestRoyalty is Storage  {... */\n    tag_178:\n        /* \"contracts/modules/ContestRoyalty.sol\":3471:3639  require(_userId > 0 && _roundId > 0 && monthlyRoyaltydtl[_roundId].closed == true && _roundId < currentMonthlyRound, \"Invalid userId or roundId or round or not closed\") */\n      tag_179\n      swap1\n      tag_3\n      jump\t// in\n    tag_179:\n        /* \"contracts/modules/ContestRoyalty.sol\":90:8188  contract ContestRoyalty is Storage  {... */\n      dup1\n      dup3\n      mstore\n        /* \"contracts/modules/ContestRoyalty.sol\":3692:3713  monthlyRoyaltyUserdtl */\n      0x42\n        /* \"contracts/modules/ContestRoyalty.sol\":90:8188  contract ContestRoyalty is Storage  {... */\n      0x20\n      mstore\n      0x40\n      dup3\n      keccak256\n      swap2\n      dup4\n      dup2\n      mstore\n      mstore(0x20, 0x40)\n      0x40\n      dup2\n      keccak256\n        /* \"contracts/modules/ContestRoyalty.sol\":3826:3849  userRoyalty.isQualified */\n      swap3\n        /* \"contracts/modules/ContestRoyalty.sol\":3853:3857  true */\n      0x01\n        /* \"contracts/modules/ContestRoyalty.sol\":90:8188  contract ContestRoyalty is Storage  {... */\n      0xff\n        /* \"contracts/modules/ContestRoyalty.sol\":3826:3849  userRoyalty.isQualified */\n      0x05\n      dup4\n      add\n        /* \"contracts/modules/ContestRoyalty.sol\":90:8188  contract ContestRoyalty is Storage  {... */\n      sload\n      and\n      iszero\n      iszero\n        /* \"contracts/modules/ContestRoyalty.sol\":3826:3857  userRoyalty.isQualified == true */\n      sub\n        /* \"contracts/modules/ContestRoyalty.sol\":90:8188  contract ContestRoyalty is Storage  {... */\n      tag_180\n      jumpi\n      0x04\n        /* \"contracts/modules/ContestRoyalty.sol\":3896:3917  userRoyalty.isClaimed */\n      dup2\n      add\n        /* \"contracts/modules/ContestRoyalty.sol\":90:8188  contract ContestRoyalty is Storage  {... */\n      dup6\n      dup4\n      mstore\n      dup1\n      0x20\n      mstore\n      0xff\n      0x40\n      dup5\n      keccak256\n      sload\n      and\n      tag_182\n      jumpi\n        /* \"contracts/modules/ContestRoyalty.sol\":3981:4014  currentMonthRoyalty.perUserReward */\n      0x03\n      dup6\n      add\n        /* \"contracts/modules/ContestRoyalty.sol\":90:8188  contract ContestRoyalty is Storage  {... */\n      sload\n        /* \"contracts/modules/ContestRoyalty.sol\":3981:4018  currentMonthRoyalty.perUserReward > 0 */\n      swap5\n      dup6\n      iszero\n      swap3\n        /* \"contracts/modules/ContestRoyalty.sol\":3973:4041  require(currentMonthRoyalty.perUserReward > 0, \"No reward to claim\") */\n      tag_184\n        /* \"contracts/modules/ContestRoyalty.sol\":3981:4018  currentMonthRoyalty.perUserReward > 0 */\n      dup5\n      iszero\n        /* \"contracts/modules/ContestRoyalty.sol\":3973:4041  require(currentMonthRoyalty.perUserReward > 0, \"No reward to claim\") */\n      tag_4\n      jump\t// in\n    tag_184:\n        /* \"contracts/modules/ContestRoyalty.sol\":4060:4092  currentMonthRoyalty.claimedCount */\n      dup8\n        /* \"contracts/modules/ContestRoyalty.sol\":4095:4125  currentMonthRoyalty.totalUsers */\n      0x02\n        /* \"contracts/modules/ContestRoyalty.sol\":90:8188  contract ContestRoyalty is Storage  {... */\n      0x04\n        /* \"contracts/modules/ContestRoyalty.sol\":4060:4092  currentMonthRoyalty.claimedCount */\n      dup5\n      add\n        /* \"contracts/modules/ContestRoyalty.sol\":90:8188  contract ContestRoyalty is Storage  {... */\n      swap3\n        /* \"contracts/modules/ContestRoyalty.sol\":4052:4147  require(currentMonthRoyalty.claimedCount < currentMonthRoyalty.totalUsers, \"All users claimed\") */\n      tag_185\n        /* \"contracts/modules/ContestRoyalty.sol\":90:8188  contract ContestRoyalty is Storage  {... */\n      dup3\n      dup6\n      sload\n        /* \"contracts/modules/ContestRoyalty.sol\":4095:4125  currentMonthRoyalty.totalUsers */\n      swap7\n      add\n        /* \"contracts/modules/ContestRoyalty.sol\":90:8188  contract ContestRoyalty is Storage  {... */\n      sload\n        /* \"contracts/modules/ContestRoyalty.sol\":4060:4125  currentMonthRoyalty.claimedCount < currentMonthRoyalty.totalUsers */\n      dup7\n      lt\n        /* \"contracts/modules/ContestRoyalty.sol\":4052:4147  require(currentMonthRoyalty.claimedCount < currentMonthRoyalty.totalUsers, \"All users claimed\") */\n      tag_5\n      jump\t// in\n    tag_185:\n        /* \"contracts/modules/ContestRoyalty.sol\":4166:4194  userRoyalty.qualifiedRoundId */\n      add\n        /* \"contracts/modules/ContestRoyalty.sol\":90:8188  contract ContestRoyalty is Storage  {... */\n      sload\n        /* \"contracts/modules/ContestRoyalty.sol\":4166:4206  userRoyalty.qualifiedRoundId <= _roundId */\n      gt\n        /* \"contracts/modules/ContestRoyalty.sol\":90:8188  contract ContestRoyalty is Storage  {... */\n      tag_186\n      jumpi\n        /* \"contracts/modules/ContestRoyalty.sol\":3853:3857  true */\n      0x01\n        /* \"contracts/modules/ContestRoyalty.sol\":90:8188  contract ContestRoyalty is Storage  {... */\n      dup3\n      add\n      dup1\n      swap3\n      gt\n      tag_188\n      jumpi\n      sstore\n      dup6\n      dup4\n      mstore\n      0x20\n      swap1\n      dup2\n      mstore\n      0x40\n      dup1\n      dup5\n      keccak256\n      dup1\n      sload\n      not(0xff)\n      and\n        /* \"contracts/modules/ContestRoyalty.sol\":3853:3857  true */\n      0x01\n        /* \"contracts/modules/ContestRoyalty.sol\":90:8188  contract ContestRoyalty is Storage  {... */\n      or\n      swap1\n      sstore\n      dup5\n      dup5\n      mstore\n        /* \"contracts/modules/ContestRoyalty.sol\":3335:3340  users */\n      0x0d\n        /* \"contracts/modules/ContestRoyalty.sol\":90:8188  contract ContestRoyalty is Storage  {... */\n      swap1\n      swap2\n      mstore\n      dup3\n      keccak256\n      sload\n      sub(shl(0xa0, 0x01), 0x01)\n      and\n      swap1\n        /* \"contracts/modules/Storage.sol\":11211:11236  userAddress != address(0) */\n      dup2\n      iszero\n        /* \"contracts/modules/ContestRoyalty.sol\":90:8188  contract ContestRoyalty is Storage  {... */\n      tag_190\n      jumpi\n      tag_192\n      jumpi\n      dup3\n      dup3\n      mstore\n        /* \"contracts/modules/Storage.sol\":11439:11450  userIncomes */\n      0x0e\n        /* \"contracts/modules/ContestRoyalty.sol\":90:8188  contract ContestRoyalty is Storage  {... */\n      0x20\n      mstore\n      0x0a\n      0x40\n      dup4\n      keccak256\n        /* \"contracts/modules/Storage.sol\":11466:11495  income.totalIncome += _amount */\n      tag_194\n        /* \"contracts/modules/ContestRoyalty.sol\":90:8188  contract ContestRoyalty is Storage  {... */\n      dup7\n      dup3\n      sload\n        /* \"contracts/modules/Storage.sol\":11466:11495  income.totalIncome += _amount */\n      tag_6\n      jump\t// in\n    tag_194:\n        /* \"contracts/modules/ContestRoyalty.sol\":90:8188  contract ContestRoyalty is Storage  {... */\n      dup2\n      sstore\n        /* \"contracts/modules/Storage.sol\":12213:12234  income.monthlyRoyalty */\n      add\n        /* \"contracts/modules/Storage.sol\":12213:12245  income.monthlyRoyalty += _amount */\n      tag_195\n        /* \"contracts/modules/ContestRoyalty.sol\":90:8188  contract ContestRoyalty is Storage  {... */\n      dup6\n      dup3\n      sload\n        /* \"contracts/modules/Storage.sol\":12213:12245  income.monthlyRoyalty += _amount */\n      tag_6\n      jump\t// in\n    tag_195:\n        /* \"contracts/modules/ContestRoyalty.sol\":90:8188  contract ContestRoyalty is Storage  {... */\n      swap1\n      sstore\n      0x01\n      dup1\n      0xa0\n      shl\n      sub\n        /* \"contracts/modules/ContestRoyalty.sol\":3853:3857  true */\n      0x01\n        /* \"contracts/modules/ContestRoyalty.sol\":90:8188  contract ContestRoyalty is Storage  {... */\n      sload\n      and\n      mload(0x40)\n      0x20\n        /* \"@openzeppelin/contracts/token/ERC20/utils/SafeERC20.sol\":1328:1371  abi.encodeCall(token.transfer, (to, value)) */\n      dup2\n      add\n        /* \"contracts/modules/ContestRoyalty.sol\":90:8188  contract ContestRoyalty is Storage  {... */\n      swap1\n      shl(0xe0, 0xa9059cbb)\n        /* \"@openzeppelin/contracts/token/ERC20/utils/SafeERC20.sol\":1328:1371  abi.encodeCall(token.transfer, (to, value)) */\n      dup3\n      mstore\n      dup4\n      0x24\n      dup3\n      add\n        /* \"contracts/modules/ContestRoyalty.sol\":90:8188  contract ContestRoyalty is Storage  {... */\n      mstore\n      dup7\n      0x44\n      dup3\n      add\n      mstore\n      0x44\n        /* \"@openzeppelin/contracts/token/ERC20/utils/SafeERC20.sol\":1328:1371  abi.encodeCall(token.transfer, (to, value)) */\n      dup2\n      mstore\n        /* \"contracts/modules/ContestRoyalty.sol\":90:8188  contract ContestRoyalty is Storage  {... */\n      0x80\n      dup2\n      add\n      dup2\n      dup2\n      lt\n      0xffffffffffffffff\n      dup3\n      gt\n      or\n      tag_196\n      jumpi\n      0x40\n      mstore\n        /* \"@openzeppelin/contracts/token/ERC20/utils/SafeERC20.sol\":8507:8928  assembly (\"memory-safe\") {... */\n      mload\n        /* \"contracts/modules/ContestRoyalty.sol\":90:8188  contract ContestRoyalty is Storage  {... */\n      0x20\n      swap2\n      dup6\n      swap2\n        /* \"@openzeppelin/contracts/token/ERC20/utils/SafeERC20.sol\":8507:8928  assembly (\"memory-safe\") {... */\n      swap1\n        /* \"contracts/modules/ContestRoyalty.sol\":90:8188  contract ContestRoyalty is Storage  {... */\n      dup3\n        /* \"@openzeppelin/contracts/token/ERC20/utils/SafeERC20.sol\":8507:8928  assembly (\"memory-safe\") {... */\n      dup6\n      gas\n      call\n      iszero\n      tag_198\n      jumpi\n      dup3\n      mload\n      returndatasize\n        /* \"@openzeppelin/contracts/token/ERC20/utils/SafeERC20.sol\":8942:8957  returnSize == 0 */\n      tag_200\n      jumpi\n        /* \"@openzeppelin/contracts/token/ERC20/utils/SafeERC20.sol\":8960:8986  address(token).code.length */\n      pop\n      dup1\n      extcodesize\n        /* \"@openzeppelin/contracts/token/ERC20/utils/SafeERC20.sol\":8960:8991  address(token).code.length == 0 */\n      iszero\n        /* \"@openzeppelin/contracts/token/ERC20/utils/SafeERC20.sol\":8942:9010  returnSize == 0 ? address(token).code.length == 0 : returnValue != 1 */\n    tag_202:\n        /* \"@openzeppelin/contracts/token/ERC20/utils/SafeERC20.sol\":8938:9084  if (returnSize == 0 ? address(token).code.length == 0 : returnValue != 1) {... */\n      tag_203\n      jumpi\n      pop\n        /* \"contracts/modules/ContestRoyalty.sol\":90:8188  contract ContestRoyalty is Storage  {... */\n      dup3\n      dup3\n      mstore\n        /* \"contracts/modules/ContestRoyalty.sol\":3335:3340  users */\n      0x0d\n        /* \"contracts/modules/ContestRoyalty.sol\":90:8188  contract ContestRoyalty is Storage  {... */\n      0x20\n      swap1\n      dup2\n      mstore\n      0x40\n      dup1\n      dup5\n      keccak256\n      sload\n      swap1\n      mload\n      dup7\n      dup2\n      mstore\n      swap2\n      dup3\n      add\n      dup5\n      swap1\n      mstore\n      sub(shl(0xa0, 0x01), 0x01)\n      and\n      swap3\n      dup1\n      tag_205\n      jumpi\n      pop\n      swap2\n        /* \"contracts/modules/ContestRoyalty.sol\":4517:4580  MonthlyRewardClaim(_roundId, _userId, amount,  block.timestamp) */\n      0x8211032682f8fd8be8ff252e0a106cdb6ad4b10427152b4d93c2bc9a1f11c3c2\n        /* \"contracts/modules/ContestRoyalty.sol\":90:8188  contract ContestRoyalty is Storage  {... */\n      swap6\n      swap2\n        /* \"contracts/modules/Storage.sol\":12831:12944  IncomeDistribution(userAddress, users[_fromUserId].account, _amount,_packageLevel, _incomeType, block.timestamp ) */\n      0x0f67c60bc8519c61563ac616d368a6df646202c88d10744d736438bc4fbe2816\n        /* \"contracts/modules/ContestRoyalty.sol\":90:8188  contract ContestRoyalty is Storage  {... */\n      0x80\n      dup6\n        /* \"contracts/modules/ContestRoyalty.sol\":4459:4484  IncomeType.MonthlyRoyalty */\n      0x08\n        /* \"contracts/modules/ContestRoyalty.sol\":90:8188  contract ContestRoyalty is Storage  {... */\n      0x40\n        /* \"contracts/modules/ContestRoyalty.sol\":4517:4580  MonthlyRewardClaim(_roundId, _userId, amount,  block.timestamp) */\n      tag_207\n        /* \"contracts/modules/ContestRoyalty.sol\":90:8188  contract ContestRoyalty is Storage  {... */\n      swap9\n      add\n      mstore\n        /* \"contracts/modules/Storage.sol\":12927:12942  block.timestamp */\n      timestamp\n        /* \"contracts/modules/ContestRoyalty.sol\":90:8188  contract ContestRoyalty is Storage  {... */\n      0x60\n      dup3\n      add\n      mstore\n        /* \"contracts/modules/Storage.sol\":12831:12944  IncomeDistribution(userAddress, users[_fromUserId].account, _amount,_packageLevel, _incomeType, block.timestamp ) */\n      log3\n        /* \"contracts/modules/ContestRoyalty.sol\":90:8188  contract ContestRoyalty is Storage  {... */\n      mload(0x40)\n        /* \"contracts/modules/Storage.sol\":12927:12942  block.timestamp */\n      swap4\n      dup5\n      swap4\n      timestamp\n        /* \"contracts/modules/ContestRoyalty.sol\":4517:4580  MonthlyRewardClaim(_roundId, _userId, amount,  block.timestamp) */\n      swap3\n      dup6\n        /* \"contracts/modules/ContestRoyalty.sol\":90:8188  contract ContestRoyalty is Storage  {... */\n      swap1\n      swap5\n      swap4\n      swap3\n      0x60\n      swap3\n      0x80\n      dup4\n      add\n      swap7\n      dup4\n      mstore\n      0x20\n      dup4\n      add\n      mstore\n      0x40\n      dup3\n      add\n      mstore\n      add\n      mstore\n      jump\n        /* \"contracts/modules/ContestRoyalty.sol\":4517:4580  MonthlyRewardClaim(_roundId, _userId, amount,  block.timestamp) */\n    tag_207:\n      sub\n      swap1\n      log1\n        /* \"contracts/modules/ContestRoyalty.sol\":3853:3857  true */\n      0x01\n      0x00\n        /* \"contracts/modules/ContestRoyalty.sol\":90:8188  contract ContestRoyalty is Storage  {... */\n      sstore\n      stop\n    tag_205:\n      shl(0xe0, 0x4e487b71)\n      dup2\n      mstore\n      mstore(0x04, 0x21)\n        /* \"@openzeppelin/contracts/token/ERC20/utils/SafeERC20.sol\":1328:1371  abi.encodeCall(token.transfer, (to, value)) */\n      0x24\n      swap1\n        /* \"contracts/modules/ContestRoyalty.sol\":90:8188  contract ContestRoyalty is Storage  {... */\n      revert\n        /* \"@openzeppelin/contracts/token/ERC20/utils/SafeERC20.sol\":8938:9084  if (returnSize == 0 ? address(token).code.length == 0 : returnValue != 1) {... */\n    tag_203:\n      shl(0xe0, 0x5274afe7)\n        /* \"@openzeppelin/contracts/token/ERC20/utils/SafeERC20.sol\":9033:9073  SafeERC20FailedOperation(address(token)) */\n      dup4\n      mstore\n        /* \"contracts/modules/ContestRoyalty.sol\":90:8188  contract ContestRoyalty is Storage  {... */\n      0x04\n      mstore\n        /* \"@openzeppelin/contracts/token/ERC20/utils/SafeERC20.sol\":1328:1371  abi.encodeCall(token.transfer, (to, value)) */\n      0x24\n        /* \"@openzeppelin/contracts/token/ERC20/utils/SafeERC20.sol\":9033:9073  SafeERC20FailedOperation(address(token)) */\n      dup3\n      revert\n        /* \"@openzeppelin/contracts/token/ERC20/utils/SafeERC20.sol\":8942:9010  returnSize == 0 ? address(token).code.length == 0 : returnValue != 1 */\n    tag_200:\n        /* \"contracts/modules/ContestRoyalty.sol\":3853:3857  true */\n      0x01\n        /* \"@openzeppelin/contracts/token/ERC20/utils/SafeERC20.sol\":8994:9010  returnValue != 1 */\n      eq\n      iszero\n        /* \"@openzeppelin/contracts/token/ERC20/utils/SafeERC20.sol\":8942:9010  returnSize == 0 ? address(token).code.length == 0 : returnValue != 1 */\n      jump(tag_202)\n        /* \"@openzeppelin/contracts/token/ERC20/utils/SafeERC20.sol\":8507:8928  assembly (\"memory-safe\") {... */\n    tag_198:\n        /* \"contracts/modules/ContestRoyalty.sol\":90:8188  contract ContestRoyalty is Storage  {... */\n      0x40\n        /* \"@openzeppelin/contracts/token/ERC20/utils/SafeERC20.sol\":8507:8928  assembly (\"memory-safe\") {... */\n      mload\n      returndatasize\n      dup5\n      dup3\n      returndatacopy\n      returndatasize\n      swap1\n      revert\n        /* \"contracts/modules/ContestRoyalty.sol\":90:8188  contract ContestRoyalty is Storage  {... */\n    tag_196:\n      shl(0xe0, 0x4e487b71)\n      dup7\n      mstore\n      mstore(0x04, 0x41)\n        /* \"@openzeppelin/contracts/token/ERC20/utils/SafeERC20.sol\":1328:1371  abi.encodeCall(token.transfer, (to, value)) */\n      0x24\n        /* \"contracts/modules/ContestRoyalty.sol\":90:8188  contract ContestRoyalty is Storage  {... */\n      dup7\n      revert\n    tag_192:\n      mload(0x40)\n      shl(0xe5, 0x461bcd)\n      dup2\n      mstore\n      0x20\n      0x04\n      dup3\n      add\n      mstore\n      0x0b\n      0x24\n      dup3\n      add\n      mstore\n      shl(0xaa, 0x16995c9bc8185b5bdd5b9d)\n      0x44\n      dup3\n      add\n      mstore\n      0x64\n      swap1\n      revert\n    tag_190:\n      mload(0x40)\n      shl(0xe5, 0x461bcd)\n      dup2\n      mstore\n      0x20\n      0x04\n      dup3\n      add\n      mstore\n      0x0c\n      0x24\n      dup3\n      add\n      mstore\n      shl(0xa1, 0x24b73b30b634b2103ab9b2b9)\n      0x44\n      dup3\n      add\n      mstore\n      0x64\n      swap1\n      revert\n    tag_188:\n      shl(0xe0, 0x4e487b71)\n      dup6\n      mstore\n      mstore(0x04, 0x11)\n      0x24\n      dup6\n      revert\n    tag_186:\n      mload(0x40)\n      shl(0xe5, 0x461bcd)\n      dup2\n      mstore\n      0x20\n      0x04\n      dup3\n      add\n      mstore\n      0x15\n      0x24\n      dup3\n      add\n      mstore\n      shl(0x58, 0x4e6f7420656c696769626c6520746f20636c61696d)\n      0x44\n      dup3\n      add\n      mstore\n      0x64\n      swap1\n      revert\n    tag_182:\n      mload(0x40)\n      shl(0xe5, 0x461bcd)\n      dup2\n      mstore\n      0x20\n      0x04\n      dup3\n      add\n      mstore\n      0x1e\n      0x24\n      dup3\n      add\n      mstore\n      0x416c726561647920636c61696d656420666f72207468697320726f756e640000\n      0x44\n      dup3\n      add\n      mstore\n      0x64\n      swap1\n      revert\n    tag_180:\n      mload(0x40)\n      shl(0xe5, 0x461bcd)\n      dup2\n      mstore\n      0x20\n      0x04\n      dup3\n      add\n      mstore\n      0x0e\n      0x24\n      dup3\n      add\n      mstore\n      shl(0x95, 0x02737ba1038bab0b634b334b2b21)\n      0x44\n      dup3\n      add\n      mstore\n      0x64\n      swap1\n      revert\n        /* \"contracts/modules/ContestRoyalty.sol\":3479:3586  _userId > 0 && _roundId > 0 && monthlyRoyaltydtl[_roundId].closed == true && _roundId < currentMonthlyRound */\n    tag_177:\n      pop\n        /* \"contracts/modules/ContestRoyalty.sol\":3567:3586  currentMonthlyRound */\n      0x3d\n        /* \"contracts/modules/ContestRoyalty.sol\":90:8188  contract ContestRoyalty is Storage  {... */\n      sload\n        /* \"contracts/modules/ContestRoyalty.sol\":3556:3586  _roundId < currentMonthlyRound */\n      dup4\n      lt\n        /* \"contracts/modules/ContestRoyalty.sol\":3479:3586  _userId > 0 && _roundId > 0 && monthlyRoyaltydtl[_roundId].closed == true && _roundId < currentMonthlyRound */\n      jump(tag_178)\n        /* \"contracts/modules/ContestRoyalty.sol\":3479:3552  _userId > 0 && _roundId > 0 && monthlyRoyaltydtl[_roundId].closed == true */\n    tag_175:\n        /* \"contracts/modules/ContestRoyalty.sol\":90:8188  contract ContestRoyalty is Storage  {... */\n      pop\n      dup3\n      dup3\n      mstore\n      mstore(0x20, 0x40)\n        /* \"contracts/modules/ContestRoyalty.sol\":3548:3552  true */\n      0x01\n        /* \"contracts/modules/ContestRoyalty.sol\":90:8188  contract ContestRoyalty is Storage  {... */\n      0xff\n        /* \"contracts/modules/ContestRoyalty.sol\":3510:3544  monthlyRoyaltydtl[_roundId].closed */\n      0x08\n        /* \"contracts/modules/ContestRoyalty.sol\":90:8188  contract ContestRoyalty is Storage  {... */\n      0x40\n      dup6\n      keccak256\n        /* \"contracts/modules/ContestRoyalty.sol\":3510:3544  monthlyRoyaltydtl[_roundId].closed */\n      add\n        /* \"contracts/modules/ContestRoyalty.sol\":90:8188  contract ContestRoyalty is Storage  {... */\n      sload\n      and\n      iszero\n      iszero\n        /* \"contracts/modules/ContestRoyalty.sol\":3510:3552  monthlyRoyaltydtl[_roundId].closed == true */\n      eq\n        /* \"contracts/modules/ContestRoyalty.sol\":3479:3552  _userId > 0 && _roundId > 0 && monthlyRoyaltydtl[_roundId].closed == true */\n      jump(tag_176)\n        /* \"contracts/modules/ContestRoyalty.sol\":3479:3506  _userId > 0 && _roundId > 0 */\n    tag_173:\n        /* \"contracts/modules/ContestRoyalty.sol\":3494:3506  _roundId > 0 */\n      pop\n      dup3\n      iszero\n      iszero\n        /* \"contracts/modules/ContestRoyalty.sol\":3479:3506  _userId > 0 && _roundId > 0 */\n      jump(tag_174)\n        /* \"contracts/modules/ContestRoyalty.sol\":90:8188  contract ContestRoyalty is Storage  {... */\n    tag_32:\n      pop\n      jumpi(tag_78, callvalue)\n      jumpi(tag_78, slt(add(not(0x03), calldatasize), 0x20))\n      calldataload(0x04)\n      swap1\n        /* \"contracts/modules/Storage.sol\":864:895  uint[] public registeredUserIds */\n      0x07\n        /* \"contracts/modules/ContestRoyalty.sol\":90:8188  contract ContestRoyalty is Storage  {... */\n      sload\n        /* \"contracts/modules/Storage.sol\":864:895  uint[] public registeredUserIds */\n      dup3\n      lt\n      iszero\n      tag_78\n      jumpi\n      0x07\n        /* \"contracts/modules/ContestRoyalty.sol\":90:8188  contract ContestRoyalty is Storage  {... */\n      sload\n      dup3\n      lt\n      iszero\n      tag_124\n      jumpi\n      0x20\n      swap2\n        /* \"contracts/modules/Storage.sol\":864:895  uint[] public registeredUserIds */\n      0x07\n        /* \"contracts/modules/ContestRoyalty.sol\":90:8188  contract ContestRoyalty is Storage  {... */\n      dup3\n      mstore\n      dup3\n      dup3\n      keccak256\n      add\n      sload\n      swap1\n      0x03\n      shl\n      shr\n      mload(0x40)\n      swap1\n      dup2\n      mstore\n      return\n    tag_30:\n      pop\n      jumpi(tag_78, callvalue)\n      dup1\n      add(calldatasize, not(0x03))\n      slt\n      tag_78\n      jumpi\n      0x20\n      mload(0x40)\n        /* \"contracts/modules/Storage.sol\":789:791  15 */\n      0x0f\n        /* \"contracts/modules/ContestRoyalty.sol\":90:8188  contract ContestRoyalty is Storage  {... */\n      dup2\n      mstore\n      return\n    tag_28:\n      pop\n      jumpi(tag_78, callvalue)\n      dup1\n      add(calldatasize, not(0x03))\n      slt\n      tag_78\n      jumpi\n      0x20\n      mload(0x40)\n        /* \"contracts/modules/Storage.sol\":1120:1124  1e18 */\n      0x0de0b6b3a7640000\n        /* \"contracts/modules/ContestRoyalty.sol\":90:8188  contract ContestRoyalty is Storage  {... */\n      dup2\n      mstore\n      return\n    tag_26:\n      pop\n      jumpi(tag_78, callvalue)\n      dup1\n      add(calldatasize, not(0x03))\n      slt\n      tag_78\n      jumpi\n      0x20\n      mload(0x40)\n        /* \"contracts/modules/Storage.sol\":731:737  1 days */\n      0x015180\n        /* \"contracts/modules/ContestRoyalty.sol\":90:8188  contract ContestRoyalty is Storage  {... */\n      dup2\n      mstore\n      return\n    tag_24:\n      pop\n      jumpi(tag_78, callvalue)\n      dup1\n      add(calldatasize, not(0x03))\n      slt\n      tag_78\n      jumpi\n      0x20\n        /* \"contracts/modules/Storage.sol\":7549:7582  uint public WeeklyTotalReward = 0 */\n      0x38\n        /* \"contracts/modules/ContestRoyalty.sol\":90:8188  contract ContestRoyalty is Storage  {... */\n      sload\n      mload(0x40)\n      swap1\n      dup2\n      mstore\n      return\n    tag_22:\n      pop\n      jumpi(tag_78, callvalue)\n      dup1\n      add(calldatasize, not(0x03))\n      slt\n      tag_78\n      jumpi\n      sload(0x01)\n      mload(0x40)\n      sub(shl(0xa0, 0x01), 0x01)\n      swap1\n      swap2\n      and\n      dup2\n      mstore\n      0x20\n      swap1\n      return\n    tag_20:\n      pop\n      jumpi(tag_78, callvalue)\n      dup1\n      add(calldatasize, not(0x03))\n      slt\n      tag_78\n      jumpi\n      0x20\n      mload(0x40)\n        /* \"contracts/modules/Storage.sol\":8846:8853  30 days */\n      0x278d00\n        /* \"contracts/modules/ContestRoyalty.sol\":90:8188  contract ContestRoyalty is Storage  {... */\n      dup2\n      mstore\n      return\n    tag_18:\n      pop\n      jumpi(tag_78, callvalue)\n      jumpi(tag_78, slt(add(not(0x03), calldatasize), 0x20))\n      calldataload(0x04)\n      swap1\n        /* \"contracts/modules/Storage.sol\":5656:5761  uint[] public glbBoosterPackages = [ 100e18, 200e18, 400e18, 800e18, 1600e18, 3200e18, 6400e18, 12800e18] */\n      0x14\n        /* \"contracts/modules/ContestRoyalty.sol\":90:8188  contract ContestRoyalty is Storage  {... */\n      sload\n        /* \"contracts/modules/Storage.sol\":5656:5761  uint[] public glbBoosterPackages = [ 100e18, 200e18, 400e18, 800e18, 1600e18, 3200e18, 6400e18, 12800e18] */\n      dup3\n      lt\n      iszero\n      tag_78\n      jumpi\n      0x14\n        /* \"contracts/modules/ContestRoyalty.sol\":90:8188  contract ContestRoyalty is Storage  {... */\n      sload\n      dup3\n      lt\n      iszero\n      tag_124\n      jumpi\n      0x20\n      swap2\n        /* \"contracts/modules/Storage.sol\":5656:5761  uint[] public glbBoosterPackages = [ 100e18, 200e18, 400e18, 800e18, 1600e18, 3200e18, 6400e18, 12800e18] */\n      0x14\n        /* \"contracts/modules/ContestRoyalty.sol\":90:8188  contract ContestRoyalty is Storage  {... */\n      dup3\n      mstore\n      dup3\n      dup3\n      keccak256\n      add\n      sload\n      swap1\n      0x03\n      shl\n      shr\n      mload(0x40)\n      swap1\n      dup2\n      mstore\n      return\n    tag_16:\n      pop\n      jumpi(tag_78, callvalue)\n      jumpi(tag_78, slt(add(not(0x03), calldatasize), 0x20))\n      calldataload(0x04)\n      0x07\n        /* \"contracts/modules/Storage.sol\":5768:5825  uint[7] public minLevelForPool = [3, 5, 7, 9, 11, 13, 15] */\n      dup2\n      lt\n      iszero\n      tag_104\n      jumpi\n        /* \"contracts/modules/ContestRoyalty.sol\":90:8188  contract ContestRoyalty is Storage  {... */\n      0x20\n      swap2\n      pop\n        /* \"contracts/modules/Storage.sol\":5768:5825  uint[7] public minLevelForPool = [3, 5, 7, 9, 11, 13, 15] */\n      0x15\n        /* \"contracts/modules/ContestRoyalty.sol\":90:8188  contract ContestRoyalty is Storage  {... */\n      add\n      sload\n      mload(0x40)\n      swap1\n      dup2\n      mstore\n      return\n    tag_14:\n      jumpi(tag_254, callvalue)\n      tag_256\n      calldatasize\n      tag_1\n      jump\t// in\n    tag_256:\n        /* \"@openzeppelin/contracts/security/ReentrancyGuard.sol\":2227:2330  modifier nonReentrant() {... */\n      swap1\n      tag_257\n      tag_9\n      jump\t// in\n    tag_257:\n        /* \"contracts/modules/ContestRoyalty.sol\":90:8188  contract ContestRoyalty is Storage  {... */\n      dup1\n      0x00\n      mstore\n        /* \"contracts/modules/ContestRoyalty.sol\":6947:6952  users */\n      0x0d\n        /* \"contracts/modules/ContestRoyalty.sol\":90:8188  contract ContestRoyalty is Storage  {... */\n      0x20\n      mstore\n        /* \"contracts/modules/ContestRoyalty.sol\":7018:7072  require(userAddress == msg.sender, \"Not your account\") */\n      tag_258\n        /* \"contracts/modules/ContestRoyalty.sol\":90:8188  contract ContestRoyalty is Storage  {... */\n      0x01\n      dup1\n      0xa0\n      shl\n      sub\n      sload(keccak256(0x00, 0x40))\n      and\n        /* \"contracts/modules/ContestRoyalty.sol\":7041:7051  msg.sender */\n      caller\n        /* \"contracts/modules/ContestRoyalty.sol\":7026:7051  userAddress == msg.sender */\n      eq\n        /* \"contracts/modules/ContestRoyalty.sol\":7018:7072  require(userAddress == msg.sender, \"Not your account\") */\n      tag_2\n      jump\t// in\n    tag_258:\n        /* \"contracts/modules/ContestRoyalty.sol\":7091:7102  _userId > 0 */\n      dup1\n      iszero\n      iszero\n        /* \"contracts/modules/ContestRoyalty.sol\":7091:7118  _userId > 0 && _roundId > 0 */\n      dup1\n      tag_259\n      jumpi\n        /* \"contracts/modules/ContestRoyalty.sol\":90:8188  contract ContestRoyalty is Storage  {... */\n    tag_260:\n        /* \"contracts/modules/ContestRoyalty.sol\":7091:7163  _userId > 0 && _roundId > 0 && weeklyContestdtl[_roundId].closed == true */\n      dup1\n      tag_261\n      jumpi\n        /* \"contracts/modules/ContestRoyalty.sol\":90:8188  contract ContestRoyalty is Storage  {... */\n    tag_262:\n        /* \"contracts/modules/ContestRoyalty.sol\":7091:7196  _userId > 0 && _roundId > 0 && weeklyContestdtl[_roundId].closed == true && _roundId < currentWeeklyRound */\n      dup1\n      tag_263\n      jumpi\n        /* \"contracts/modules/ContestRoyalty.sol\":90:8188  contract ContestRoyalty is Storage  {... */\n    tag_264:\n        /* \"contracts/modules/ContestRoyalty.sol\":7083:7249  require(_userId > 0 && _roundId > 0 && weeklyContestdtl[_roundId].closed == true && _roundId < currentWeeklyRound, \"Invalid userId or roundId or round or not closed\") */\n      tag_265\n      swap1\n      tag_3\n      jump\t// in\n    tag_265:\n        /* \"contracts/modules/ContestRoyalty.sol\":90:8188  contract ContestRoyalty is Storage  {... */\n      dup2\n      0x00\n      mstore\n        /* \"contracts/modules/ContestRoyalty.sol\":7295:7308  weeklyUserdtl */\n      0x3b\n        /* \"contracts/modules/ContestRoyalty.sol\":90:8188  contract ContestRoyalty is Storage  {... */\n      0x20\n      mstore\n      keccak256(0x00, 0x40)\n      dup2\n      0x00\n      mstore\n      0x20\n      mstore\n      keccak256(0x00, 0x40)\n      swap1\n      dup3\n      0x00\n      mstore\n        /* \"contracts/modules/ContestRoyalty.sol\":7380:7396  weeklyContestdtl */\n      0x39\n        /* \"contracts/modules/ContestRoyalty.sol\":90:8188  contract ContestRoyalty is Storage  {... */\n      0x20\n      mstore\n      0x04\n      keccak256(0x00, 0x40)\n        /* \"contracts/modules/ContestRoyalty.sol\":7425:7450  weeklyuserdtl.isQualified */\n      swap3\n      add\n        /* \"contracts/modules/ContestRoyalty.sol\":90:8188  contract ContestRoyalty is Storage  {... */\n      swap2\n      dup3\n      sload\n        /* \"contracts/modules/ContestRoyalty.sol\":7454:7458  true */\n      0x01\n        /* \"contracts/modules/ContestRoyalty.sol\":90:8188  contract ContestRoyalty is Storage  {... */\n      0xff\n      dup3\n      0x08\n      shr\n      and\n      iszero\n      iszero\n        /* \"contracts/modules/ContestRoyalty.sol\":7425:7458  weeklyuserdtl.isQualified == true */\n      eq\n        /* \"contracts/modules/ContestRoyalty.sol\":7425:7494  weeklyuserdtl.isQualified == true && weeklyuserdtl.isClaimed == false */\n      swap1\n      dup2\n      tag_266\n      jumpi\n        /* \"contracts/modules/ContestRoyalty.sol\":90:8188  contract ContestRoyalty is Storage  {... */\n    tag_267:\n      pop\n      iszero\n      tag_268\n      jumpi\n        /* \"contracts/modules/ContestRoyalty.sol\":7550:7581  curentWeekContest.perUserReward */\n      0x03\n      dup2\n      add\n        /* \"contracts/modules/ContestRoyalty.sol\":90:8188  contract ContestRoyalty is Storage  {... */\n      sload\n        /* \"contracts/modules/ContestRoyalty.sol\":7550:7585  curentWeekContest.perUserReward > 0 */\n      swap3\n      dup4\n      iszero\n      swap2\n        /* \"contracts/modules/ContestRoyalty.sol\":7542:7608  require(curentWeekContest.perUserReward > 0, \"No reward to claim\") */\n      tag_270\n        /* \"contracts/modules/ContestRoyalty.sol\":7550:7585  curentWeekContest.perUserReward > 0 */\n      dup4\n      iszero\n        /* \"contracts/modules/ContestRoyalty.sol\":7542:7608  require(curentWeekContest.perUserReward > 0, \"No reward to claim\") */\n      tag_4\n      jump\t// in\n    tag_270:\n        /* \"contracts/modules/ContestRoyalty.sol\":90:8188  contract ContestRoyalty is Storage  {... */\n      0x04\n        /* \"contracts/modules/ContestRoyalty.sol\":7627:7657  curentWeekContest.claimedCount */\n      dup2\n      add\n        /* \"contracts/modules/ContestRoyalty.sol\":7619:7710  require(curentWeekContest.claimedCount < curentWeekContest.totalUsers, \"All users claimed\") */\n      tag_271\n        /* \"contracts/modules/ContestRoyalty.sol\":7660:7688  curentWeekContest.totalUsers */\n      0x02\n        /* \"contracts/modules/ContestRoyalty.sol\":90:8188  contract ContestRoyalty is Storage  {... */\n      dup3\n      sload\n        /* \"contracts/modules/ContestRoyalty.sol\":7660:7688  curentWeekContest.totalUsers */\n      swap4\n      add\n        /* \"contracts/modules/ContestRoyalty.sol\":90:8188  contract ContestRoyalty is Storage  {... */\n      sload\n        /* \"contracts/modules/ContestRoyalty.sol\":7627:7688  curentWeekContest.claimedCount < curentWeekContest.totalUsers */\n      dup4\n      lt\n        /* \"contracts/modules/ContestRoyalty.sol\":7619:7710  require(curentWeekContest.claimedCount < curentWeekContest.totalUsers, \"All users claimed\") */\n      tag_5\n      jump\t// in\n    tag_271:\n        /* \"contracts/modules/ContestRoyalty.sol\":7454:7458  true */\n      0x01\n        /* \"contracts/modules/ContestRoyalty.sol\":90:8188  contract ContestRoyalty is Storage  {... */\n      dup3\n      add\n      dup1\n      swap3\n      gt\n      tag_272\n      jumpi\n      sstore\n      dup1\n      sload\n      not(0xff)\n      and\n        /* \"contracts/modules/ContestRoyalty.sol\":7454:7458  true */\n      0x01\n        /* \"contracts/modules/ContestRoyalty.sol\":90:8188  contract ContestRoyalty is Storage  {... */\n      or\n      swap1\n      sstore\n      0x00\n      dup3\n      dup2\n      mstore\n        /* \"contracts/modules/ContestRoyalty.sol\":6947:6952  users */\n      0x0d\n        /* \"contracts/modules/ContestRoyalty.sol\":90:8188  contract ContestRoyalty is Storage  {... */\n      0x20\n      mstore\n      0x40\n      swap1\n      keccak256\n      sload\n      sub(shl(0xa0, 0x01), 0x01)\n      and\n      swap1\n        /* \"contracts/modules/Storage.sol\":11211:11236  userAddress != address(0) */\n      dup2\n      iszero\n        /* \"contracts/modules/ContestRoyalty.sol\":90:8188  contract ContestRoyalty is Storage  {... */\n      tag_190\n      jumpi\n      tag_192\n      jumpi\n      dup2\n      0x00\n      mstore\n        /* \"contracts/modules/Storage.sol\":11439:11450  userIncomes */\n      0x0e\n        /* \"contracts/modules/ContestRoyalty.sol\":90:8188  contract ContestRoyalty is Storage  {... */\n      0x20\n      mstore\n        /* \"contracts/modules/Storage.sol\":12118:12144  income.weeklyContestIncome */\n      0x09\n        /* \"contracts/modules/ContestRoyalty.sol\":90:8188  contract ContestRoyalty is Storage  {... */\n      keccak256(0x00, 0x40)\n        /* \"contracts/modules/Storage.sol\":11466:11495  income.totalIncome += _amount */\n      tag_278\n        /* \"contracts/modules/ContestRoyalty.sol\":90:8188  contract ContestRoyalty is Storage  {... */\n      dup6\n      dup3\n      sload\n        /* \"contracts/modules/Storage.sol\":11466:11495  income.totalIncome += _amount */\n      tag_6\n      jump\t// in\n    tag_278:\n        /* \"contracts/modules/ContestRoyalty.sol\":90:8188  contract ContestRoyalty is Storage  {... */\n      dup2\n      sstore\n        /* \"contracts/modules/Storage.sol\":12118:12144  income.weeklyContestIncome */\n      add\n        /* \"contracts/modules/Storage.sol\":12118:12155  income.weeklyContestIncome += _amount */\n      tag_279\n        /* \"contracts/modules/ContestRoyalty.sol\":90:8188  contract ContestRoyalty is Storage  {... */\n      dup5\n      dup3\n      sload\n        /* \"contracts/modules/Storage.sol\":12118:12155  income.weeklyContestIncome += _amount */\n      tag_6\n      jump\t// in\n    tag_279:\n        /* \"contracts/modules/ContestRoyalty.sol\":90:8188  contract ContestRoyalty is Storage  {... */\n      swap1\n      sstore\n      0x01\n      dup1\n      0xa0\n      shl\n      sub\n        /* \"contracts/modules/ContestRoyalty.sol\":7454:7458  true */\n      0x01\n        /* \"contracts/modules/ContestRoyalty.sol\":90:8188  contract ContestRoyalty is Storage  {... */\n      sload\n      and\n      mload(0x40)\n      0x20\n        /* \"@openzeppelin/contracts/token/ERC20/utils/SafeERC20.sol\":1328:1371  abi.encodeCall(token.transfer, (to, value)) */\n      dup2\n      add\n        /* \"contracts/modules/ContestRoyalty.sol\":90:8188  contract ContestRoyalty is Storage  {... */\n      shl(0xe0, 0xa9059cbb)\n        /* \"@openzeppelin/contracts/token/ERC20/utils/SafeERC20.sol\":1328:1371  abi.encodeCall(token.transfer, (to, value)) */\n      dup2\n      mstore\n      dup4\n      0x24\n      dup4\n      add\n        /* \"contracts/modules/ContestRoyalty.sol\":90:8188  contract ContestRoyalty is Storage  {... */\n      mstore\n      dup6\n      0x44\n      dup4\n      add\n      mstore\n      0x44\n        /* \"@openzeppelin/contracts/token/ERC20/utils/SafeERC20.sol\":1328:1371  abi.encodeCall(token.transfer, (to, value)) */\n      dup3\n      mstore\n        /* \"contracts/modules/ContestRoyalty.sol\":90:8188  contract ContestRoyalty is Storage  {... */\n      0x80\n      dup3\n      add\n      swap1\n      dup3\n      dup3\n      lt\n      0xffffffffffffffff\n      dup4\n      gt\n      or\n      tag_280\n      jumpi\n      0x20\n      swap3\n      0x00\n      swap3\n      0x40\n      mstore\n        /* \"@openzeppelin/contracts/token/ERC20/utils/SafeERC20.sol\":8507:8928  assembly (\"memory-safe\") {... */\n      mload\n      swap1\n      dup3\n      dup6\n      gas\n      call\n      iszero\n      tag_282\n      jumpi\n        /* \"contracts/modules/ContestRoyalty.sol\":90:8188  contract ContestRoyalty is Storage  {... */\n      0x00\n        /* \"@openzeppelin/contracts/token/ERC20/utils/SafeERC20.sol\":8507:8928  assembly (\"memory-safe\") {... */\n      mload\n      returndatasize\n        /* \"@openzeppelin/contracts/token/ERC20/utils/SafeERC20.sol\":8942:8957  returnSize == 0 */\n      tag_284\n      jumpi\n        /* \"@openzeppelin/contracts/token/ERC20/utils/SafeERC20.sol\":8960:8986  address(token).code.length */\n      pop\n      dup1\n      extcodesize\n        /* \"@openzeppelin/contracts/token/ERC20/utils/SafeERC20.sol\":8960:8991  address(token).code.length == 0 */\n      iszero\n        /* \"@openzeppelin/contracts/token/ERC20/utils/SafeERC20.sol\":8942:9010  returnSize == 0 ? address(token).code.length == 0 : returnValue != 1 */\n    tag_286:\n        /* \"@openzeppelin/contracts/token/ERC20/utils/SafeERC20.sol\":8938:9084  if (returnSize == 0 ? address(token).code.length == 0 : returnValue != 1) {... */\n      tag_287\n      jumpi\n        /* \"contracts/modules/ContestRoyalty.sol\":90:8188  contract ContestRoyalty is Storage  {... */\n      pop\n        /* \"contracts/modules/ContestRoyalty.sol\":7984:8046  WeeklyRewardClaim(_roundId, _userId, amount,  block.timestamp) */\n      0x96ee4f374d0394c5383b347dc3b7ec04a1eceddcd2e25521157bce21c42b24d5\n        /* \"contracts/modules/ContestRoyalty.sol\":90:8188  contract ContestRoyalty is Storage  {... */\n      swap4\n        /* \"contracts/modules/ContestRoyalty.sol\":7984:8046  WeeklyRewardClaim(_roundId, _userId, amount,  block.timestamp) */\n      tag_207\n        /* \"contracts/modules/ContestRoyalty.sol\":90:8188  contract ContestRoyalty is Storage  {... */\n      swap2\n      dup4\n      0x00\n      mstore\n        /* \"contracts/modules/ContestRoyalty.sol\":6947:6952  users */\n      0x0d\n        /* \"contracts/modules/ContestRoyalty.sol\":90:8188  contract ContestRoyalty is Storage  {... */\n      0x20\n      mstore\n      0x01\n      dup1\n      0xa0\n      shl\n      sub\n      sload(keccak256(0x00, 0x40))\n      and\n      swap1\n        /* \"contracts/modules/Storage.sol\":12831:12944  IncomeDistribution(userAddress, users[_fromUserId].account, _amount,_packageLevel, _incomeType, block.timestamp ) */\n      0x0f67c60bc8519c61563ac616d368a6df646202c88d10744d736438bc4fbe2816\n        /* \"contracts/modules/ContestRoyalty.sol\":90:8188  contract ContestRoyalty is Storage  {... */\n      0x80\n      mload(0x40)\n      dup9\n      dup2\n      mstore\n      0x00\n      0x20\n      dup3\n      add\n      mstore\n        /* \"contracts/modules/ContestRoyalty.sol\":7927:7951  IncomeType.WeeklyContest */\n      0x07\n        /* \"contracts/modules/ContestRoyalty.sol\":90:8188  contract ContestRoyalty is Storage  {... */\n      0x40\n      dup3\n      add\n      mstore\n        /* \"contracts/modules/Storage.sol\":12927:12942  block.timestamp */\n      timestamp\n        /* \"contracts/modules/ContestRoyalty.sol\":90:8188  contract ContestRoyalty is Storage  {... */\n      0x60\n      dup3\n      add\n      mstore\n        /* \"contracts/modules/Storage.sol\":12831:12944  IncomeDistribution(userAddress, users[_fromUserId].account, _amount,_packageLevel, _incomeType, block.timestamp ) */\n      log3\n        /* \"contracts/modules/ContestRoyalty.sol\":90:8188  contract ContestRoyalty is Storage  {... */\n      mload(0x40)\n        /* \"contracts/modules/Storage.sol\":12927:12942  block.timestamp */\n      swap4\n      dup5\n      swap4\n      timestamp\n        /* \"contracts/modules/ContestRoyalty.sol\":7984:8046  WeeklyRewardClaim(_roundId, _userId, amount,  block.timestamp) */\n      swap3\n      dup6\n        /* \"contracts/modules/ContestRoyalty.sol\":90:8188  contract ContestRoyalty is Storage  {... */\n      swap1\n      swap5\n      swap4\n      swap3\n      0x60\n      swap3\n      0x80\n      dup4\n      add\n      swap7\n      dup4\n      mstore\n      0x20\n      dup4\n      add\n      mstore\n      0x40\n      dup3\n      add\n      mstore\n      add\n      mstore\n      jump\n        /* \"@openzeppelin/contracts/token/ERC20/utils/SafeERC20.sol\":8938:9084  if (returnSize == 0 ? address(token).code.length == 0 : returnValue != 1) {... */\n    tag_287:\n        /* \"@openzeppelin/contracts/token/ERC20/utils/SafeERC20.sol\":9033:9073  SafeERC20FailedOperation(address(token)) */\n      shl(0xe0, 0x5274afe7)\n        /* \"contracts/modules/ContestRoyalty.sol\":90:8188  contract ContestRoyalty is Storage  {... */\n      0x00\n        /* \"@openzeppelin/contracts/token/ERC20/utils/SafeERC20.sol\":9033:9073  SafeERC20FailedOperation(address(token)) */\n      mstore\n        /* \"contracts/modules/ContestRoyalty.sol\":90:8188  contract ContestRoyalty is Storage  {... */\n      0x04\n      mstore\n        /* \"@openzeppelin/contracts/token/ERC20/utils/SafeERC20.sol\":1328:1371  abi.encodeCall(token.transfer, (to, value)) */\n      0x24\n        /* \"contracts/modules/ContestRoyalty.sol\":90:8188  contract ContestRoyalty is Storage  {... */\n      0x00\n        /* \"@openzeppelin/contracts/token/ERC20/utils/SafeERC20.sol\":9033:9073  SafeERC20FailedOperation(address(token)) */\n      revert\n        /* \"@openzeppelin/contracts/token/ERC20/utils/SafeERC20.sol\":8942:9010  returnSize == 0 ? address(token).code.length == 0 : returnValue != 1 */\n    tag_284:\n        /* \"contracts/modules/ContestRoyalty.sol\":7454:7458  true */\n      0x01\n        /* \"@openzeppelin/contracts/token/ERC20/utils/SafeERC20.sol\":8994:9010  returnValue != 1 */\n      eq\n      iszero\n        /* \"@openzeppelin/contracts/token/ERC20/utils/SafeERC20.sol\":8942:9010  returnSize == 0 ? address(token).code.length == 0 : returnValue != 1 */\n      jump(tag_286)\n        /* \"@openzeppelin/contracts/token/ERC20/utils/SafeERC20.sol\":8507:8928  assembly (\"memory-safe\") {... */\n    tag_282:\n        /* \"contracts/modules/ContestRoyalty.sol\":90:8188  contract ContestRoyalty is Storage  {... */\n      0x40\n        /* \"@openzeppelin/contracts/token/ERC20/utils/SafeERC20.sol\":8507:8928  assembly (\"memory-safe\") {... */\n      mload\n      returndatasize\n        /* \"contracts/modules/ContestRoyalty.sol\":90:8188  contract ContestRoyalty is Storage  {... */\n      0x00\n        /* \"@openzeppelin/contracts/token/ERC20/utils/SafeERC20.sol\":8507:8928  assembly (\"memory-safe\") {... */\n      dup3\n      returndatacopy\n      returndatasize\n      swap1\n      revert\n        /* \"contracts/modules/ContestRoyalty.sol\":90:8188  contract ContestRoyalty is Storage  {... */\n    tag_280:\n      mstore(0x00, shl(0xe0, 0x4e487b71))\n      mstore(0x04, 0x41)\n        /* \"@openzeppelin/contracts/token/ERC20/utils/SafeERC20.sol\":1328:1371  abi.encodeCall(token.transfer, (to, value)) */\n      0x24\n        /* \"contracts/modules/ContestRoyalty.sol\":90:8188  contract ContestRoyalty is Storage  {... */\n      0x00\n      revert\n    tag_272:\n      mstore(0x00, shl(0xe0, 0x4e487b71))\n      mstore(0x04, 0x11)\n      revert(0x00, 0x24)\n    tag_268:\n      0x64\n      mload(0x40)\n      shl(0xe5, 0x461bcd)\n      dup2\n      mstore\n      0x20\n      0x04\n      dup3\n      add\n      mstore\n      0x20\n      0x24\n      dup3\n      add\n      mstore\n      0x4e6f74207175616c6966696564206f7220616c726561647920636c61696d6564\n      0x44\n      dup3\n      add\n      mstore\n      revert\n        /* \"contracts/modules/ContestRoyalty.sol\":7425:7494  weeklyuserdtl.isQualified == true && weeklyuserdtl.isClaimed == false */\n    tag_266:\n        /* \"contracts/modules/ContestRoyalty.sol\":90:8188  contract ContestRoyalty is Storage  {... */\n      0xff\n      swap2\n      pop\n      and\n      iszero\n        /* \"contracts/modules/ContestRoyalty.sol\":7425:7494  weeklyuserdtl.isQualified == true && weeklyuserdtl.isClaimed == false */\n      dup6\n      jump(tag_267)\n        /* \"contracts/modules/ContestRoyalty.sol\":7091:7196  _userId > 0 && _roundId > 0 && weeklyContestdtl[_roundId].closed == true && _roundId < currentWeeklyRound */\n    tag_263:\n      pop\n        /* \"contracts/modules/ContestRoyalty.sol\":7178:7196  currentWeeklyRound */\n      0x36\n        /* \"contracts/modules/ContestRoyalty.sol\":90:8188  contract ContestRoyalty is Storage  {... */\n      sload\n        /* \"contracts/modules/ContestRoyalty.sol\":7167:7196  _roundId < currentWeeklyRound */\n      dup3\n      lt\n        /* \"contracts/modules/ContestRoyalty.sol\":7091:7196  _userId > 0 && _roundId > 0 && weeklyContestdtl[_roundId].closed == true && _roundId < currentWeeklyRound */\n      jump(tag_264)\n        /* \"contracts/modules/ContestRoyalty.sol\":7091:7163  _userId > 0 && _roundId > 0 && weeklyContestdtl[_roundId].closed == true */\n    tag_261:\n        /* \"contracts/modules/ContestRoyalty.sol\":90:8188  contract ContestRoyalty is Storage  {... */\n      pop\n      dup2\n      0x00\n      mstore\n        /* \"contracts/modules/ContestRoyalty.sol\":7122:7138  weeklyContestdtl */\n      0x39\n        /* \"contracts/modules/ContestRoyalty.sol\":90:8188  contract ContestRoyalty is Storage  {... */\n      0x20\n      mstore\n        /* \"contracts/modules/ContestRoyalty.sol\":7159:7163  true */\n      0x01\n        /* \"contracts/modules/ContestRoyalty.sol\":90:8188  contract ContestRoyalty is Storage  {... */\n      0xff\n        /* \"contracts/modules/ContestRoyalty.sol\":7122:7155  weeklyContestdtl[_roundId].closed */\n      0x08\n        /* \"contracts/modules/ContestRoyalty.sol\":90:8188  contract ContestRoyalty is Storage  {... */\n      keccak256(0x00, 0x40)\n        /* \"contracts/modules/ContestRoyalty.sol\":7122:7155  weeklyContestdtl[_roundId].closed */\n      add\n        /* \"contracts/modules/ContestRoyalty.sol\":90:8188  contract ContestRoyalty is Storage  {... */\n      sload\n      and\n      iszero\n      iszero\n        /* \"contracts/modules/ContestRoyalty.sol\":7122:7163  weeklyContestdtl[_roundId].closed == true */\n      eq\n        /* \"contracts/modules/ContestRoyalty.sol\":7091:7163  _userId > 0 && _roundId > 0 && weeklyContestdtl[_roundId].closed == true */\n      jump(tag_262)\n        /* \"contracts/modules/ContestRoyalty.sol\":7091:7118  _userId > 0 && _roundId > 0 */\n    tag_259:\n        /* \"contracts/modules/ContestRoyalty.sol\":7106:7118  _roundId > 0 */\n      pop\n      dup2\n      iszero\n      iszero\n        /* \"contracts/modules/ContestRoyalty.sol\":7091:7118  _userId > 0 && _roundId > 0 */\n      jump(tag_260)\n        /* \"contracts/modules/ContestRoyalty.sol\":90:8188  contract ContestRoyalty is Storage  {... */\n    tag_254:\n      0x00\n      dup1\n      revert\n    tag_12:\n      jumpi(tag_254, callvalue)\n      jumpi(tag_254, slt(add(not(0x03), calldatasize), 0x00))\n      dup1\n        /* \"contracts/modules/Storage.sol\":683:688  10000 */\n      0x2710\n        /* \"contracts/modules/ContestRoyalty.sol\":90:8188  contract ContestRoyalty is Storage  {... */\n      0x20\n      swap3\n      mstore\n      return\n    tag_1:\n      0x40\n      swap1\n      not(0x03)\n      add\n      slt\n      tag_254\n      jumpi\n      calldataload(0x04)\n      swap1\n      calldataload(0x24)\n      swap1\n      jump\t// out\n    tag_2:\n      iszero\n      tag_296\n      jumpi\n      jump\t// out\n    tag_296:\n      mload(0x40)\n      shl(0xe5, 0x461bcd)\n      dup2\n      mstore\n      0x20\n      0x04\n      dup3\n      add\n      mstore\n      0x10\n      0x24\n      dup3\n      add\n      mstore\n      shl(0x82, 0x139bdd081e5bdd5c881858d8dbdd5b9d)\n      0x44\n      dup3\n      add\n      mstore\n      0x64\n      swap1\n      revert\n    tag_3:\n      iszero\n      tag_298\n      jumpi\n      jump\t// out\n    tag_298:\n      mload(0x40)\n      shl(0xe5, 0x461bcd)\n      dup2\n      mstore\n      0x20\n      0x04\n      dup3\n      add\n      mstore\n      0x30\n      0x24\n      dup3\n      add\n      mstore\n      0x496e76616c696420757365724964206f7220726f756e644964206f7220726f75\n      0x44\n      dup3\n      add\n      mstore\n      shl(0x82, 0x1b99081bdc881b9bdd0818db1bdcd959)\n      0x64\n      dup3\n      add\n      mstore\n      0x84\n      swap1\n      revert\n    tag_4:\n      iszero\n      tag_300\n      jumpi\n      jump\t// out\n    tag_300:\n      mload(0x40)\n      shl(0xe5, 0x461bcd)\n      dup2\n      mstore\n      0x20\n      0x04\n      dup3\n      add\n      mstore\n      0x12\n      0x24\n      dup3\n      add\n      mstore\n      shl(0x70, 0x4e6f2072657761726420746f20636c61696d)\n      0x44\n      dup3\n      add\n      mstore\n      0x64\n      swap1\n      revert\n    tag_5:\n      iszero\n      tag_302\n      jumpi\n      jump\t// out\n    tag_302:\n      mload(0x40)\n      shl(0xe5, 0x461bcd)\n      dup2\n      mstore\n      0x20\n      0x04\n      dup3\n      add\n      mstore\n      0x11\n      0x24\n      dup3\n      add\n      mstore\n      shl(0x7a, 0x105b1b081d5cd95c9cc818db185a5b5959)\n      0x44\n      dup3\n      add\n      mstore\n      0x64\n      swap1\n      revert\n    tag_6:\n      swap2\n      swap1\n      dup3\n      add\n      dup1\n      swap3\n      gt\n      tag_272\n      jumpi\n      jump\t// out\n        /* \"contracts/modules/ContestRoyalty.sol\":2652:3200  function canClaimMonthlyReward(uint _userId, uint _roundId) external view returns (bool) {... */\n    tag_8:\n        /* \"contracts/modules/ContestRoyalty.sol\":90:8188  contract ContestRoyalty is Storage  {... */\n      0x00\n      mstore\n        /* \"contracts/modules/ContestRoyalty.sol\":2789:2810  monthlyRoyaltyUserdtl */\n      0x42\n        /* \"contracts/modules/ContestRoyalty.sol\":90:8188  contract ContestRoyalty is Storage  {... */\n      0x20\n      mstore\n      keccak256(0x00, 0x40)\n      dup2\n      0x00\n      mstore\n      mstore(0x20, 0x40)\n      keccak256(0x00, 0x40)\n        /* \"contracts/modules/ContestRoyalty.sol\":2910:2924  royalty.closed */\n      swap1\n        /* \"contracts/modules/ContestRoyalty.sol\":90:8188  contract ContestRoyalty is Storage  {... */\n      0xff\n        /* \"contracts/modules/ContestRoyalty.sol\":2910:2924  royalty.closed */\n      0x08\n      dup4\n      add\n        /* \"contracts/modules/ContestRoyalty.sol\":90:8188  contract ContestRoyalty is Storage  {... */\n      sload\n      and\n        /* \"contracts/modules/ContestRoyalty.sol\":2909:2924  !royalty.closed */\n      iszero\n        /* \"contracts/modules/ContestRoyalty.sol\":90:8188  contract ContestRoyalty is Storage  {... */\n      swap3\n      dup4\n      iszero\n        /* \"contracts/modules/ContestRoyalty.sol\":2909:2968  !royalty.closed ||... */\n      tag_306\n      jumpi\n        /* \"contracts/modules/ContestRoyalty.sol\":2652:3200  function canClaimMonthlyReward(uint _userId, uint _roundId) external view returns (bool) {... */\n    tag_307:\n        /* \"contracts/modules/ContestRoyalty.sol\":2909:3005  !royalty.closed ||... */\n      dup4\n      iszero\n      tag_308\n      jumpi\n        /* \"contracts/modules/ContestRoyalty.sol\":2652:3200  function canClaimMonthlyReward(uint _userId, uint _roundId) external view returns (bool) {... */\n    tag_309:\n        /* \"contracts/modules/ContestRoyalty.sol\":2909:3057  !royalty.closed ||... */\n      dup4\n      iszero\n      tag_310\n      jumpi\n        /* \"contracts/modules/ContestRoyalty.sol\":2652:3200  function canClaimMonthlyReward(uint _userId, uint _roundId) external view returns (bool) {... */\n    tag_311:\n        /* \"contracts/modules/ContestRoyalty.sol\":2909:3101  !royalty.closed ||... */\n      dup4\n      iszero\n      tag_312\n      jumpi\n        /* \"contracts/modules/ContestRoyalty.sol\":2652:3200  function canClaimMonthlyReward(uint _userId, uint _roundId) external view returns (bool) {... */\n    tag_313:\n        /* \"contracts/modules/ContestRoyalty.sol\":2909:3140  !royalty.closed ||... */\n      pop\n      pop\n      dup2\n      iszero\n      tag_314\n      jumpi\n        /* \"contracts/modules/ContestRoyalty.sol\":2652:3200  function canClaimMonthlyReward(uint _userId, uint _roundId) external view returns (bool) {... */\n    tag_315:\n        /* \"contracts/modules/ContestRoyalty.sol\":2895:3179  if (... */\n      pop\n      tag_316\n      jumpi\n        /* \"contracts/modules/ContestRoyalty.sol\":3192:3196  true */\n      0x01\n        /* \"contracts/modules/ContestRoyalty.sol\":2652:3200  function canClaimMonthlyReward(uint _userId, uint _roundId) external view returns (bool) {... */\n      swap1\n      jump\t// out\n        /* \"contracts/modules/ContestRoyalty.sol\":2895:3179  if (... */\n    tag_316:\n        /* \"contracts/modules/ContestRoyalty.sol\":90:8188  contract ContestRoyalty is Storage  {... */\n      0x00\n        /* \"contracts/modules/ContestRoyalty.sol\":3159:3171  return false */\n      swap1\n      jump\t// out\n        /* \"contracts/modules/ContestRoyalty.sol\":2909:3140  !royalty.closed ||... */\n    tag_314:\n        /* \"contracts/modules/ContestRoyalty.sol\":3114:3135  royalty.perUserReward */\n      0x03\n      swap2\n      pop\n      add\n        /* \"contracts/modules/ContestRoyalty.sol\":90:8188  contract ContestRoyalty is Storage  {... */\n      sload\n        /* \"contracts/modules/ContestRoyalty.sol\":3114:3140  royalty.perUserReward == 0 */\n      iszero\n        /* \"contracts/modules/ContestRoyalty.sol\":2909:3140  !royalty.closed ||... */\n      0x00\n      jump(tag_315)\n        /* \"contracts/modules/ContestRoyalty.sol\":2909:3101  !royalty.closed ||... */\n    tag_312:\n        /* \"contracts/modules/ContestRoyalty.sol\":3070:3091  userRoyalty.isClaimed */\n      0x04\n        /* \"contracts/modules/ContestRoyalty.sol\":90:8188  contract ContestRoyalty is Storage  {... */\n      swap3\n      swap4\n      pop\n      0x00\n      mstore\n        /* \"contracts/modules/ContestRoyalty.sol\":3070:3091  userRoyalty.isClaimed */\n      add\n        /* \"contracts/modules/ContestRoyalty.sol\":90:8188  contract ContestRoyalty is Storage  {... */\n      0x20\n      mstore\n      and(sload(keccak256(0x00, 0x40)), 0xff)\n        /* \"contracts/modules/ContestRoyalty.sol\":2909:3101  !royalty.closed ||... */\n      swap1\n      0x00\n      dup1\n      jump(tag_313)\n        /* \"contracts/modules/ContestRoyalty.sol\":2909:3057  !royalty.closed ||... */\n    tag_310:\n        /* \"contracts/modules/ContestRoyalty.sol\":3018:3046  userRoyalty.qualifiedRoundId */\n      dup1\n      swap4\n      pop\n      0x02\n      dup3\n      add\n        /* \"contracts/modules/ContestRoyalty.sol\":90:8188  contract ContestRoyalty is Storage  {... */\n      sload\n        /* \"contracts/modules/ContestRoyalty.sol\":3018:3057  userRoyalty.qualifiedRoundId > _roundId */\n      gt\n        /* \"contracts/modules/ContestRoyalty.sol\":2909:3057  !royalty.closed ||... */\n      swap3\n      jump(tag_311)\n        /* \"contracts/modules/ContestRoyalty.sol\":2909:3005  !royalty.closed ||... */\n    tag_308:\n        /* \"contracts/modules/ContestRoyalty.sol\":2982:3005  userRoyalty.isQualified */\n      0x05\n      dup3\n      add\n        /* \"contracts/modules/ContestRoyalty.sol\":90:8188  contract ContestRoyalty is Storage  {... */\n      sload\n      0xff\n      and\n        /* \"contracts/modules/ContestRoyalty.sol\":2981:3005  !userRoyalty.isQualified */\n      iszero\n      swap4\n      pop\n        /* \"contracts/modules/ContestRoyalty.sol\":2909:3005  !royalty.closed ||... */\n      jump(tag_309)\n        /* \"contracts/modules/ContestRoyalty.sol\":2909:2968  !royalty.closed ||... */\n    tag_306:\n        /* \"contracts/modules/ContestRoyalty.sol\":2949:2968  currentMonthlyRound */\n      0x3d\n        /* \"contracts/modules/ContestRoyalty.sol\":90:8188  contract ContestRoyalty is Storage  {... */\n      sload\n        /* \"contracts/modules/ContestRoyalty.sol\":2937:2968  _roundId >= currentMonthlyRound */\n      dup2\n      lt\n      iszero\n      swap4\n      pop\n        /* \"contracts/modules/ContestRoyalty.sol\":2909:2968  !royalty.closed ||... */\n      jump(tag_307)\n        /* \"@openzeppelin/contracts/security/ReentrancyGuard.sol\":2336:2623  function _nonReentrantBefore() private {... */\n    tag_9:\n        /* \"@openzeppelin/contracts/security/ReentrancyGuard.sol\":1759:1760  2 */\n      0x02\n        /* \"@openzeppelin/contracts/security/ReentrancyGuard.sol\":2468:2475  _status */\n      0x00\n        /* \"contracts/modules/ContestRoyalty.sol\":90:8188  contract ContestRoyalty is Storage  {... */\n      sload\n        /* \"@openzeppelin/contracts/security/ReentrancyGuard.sol\":2468:2487  _status != _ENTERED */\n      eq\n        /* \"@openzeppelin/contracts/security/ReentrancyGuard.sol\":1759:1760  2 */\n      tag_318\n      jumpi\n      0x02\n        /* \"@openzeppelin/contracts/security/ReentrancyGuard.sol\":2468:2475  _status */\n      0x00\n        /* \"contracts/modules/ContestRoyalty.sol\":90:8188  contract ContestRoyalty is Storage  {... */\n      sstore\n        /* \"@openzeppelin/contracts/security/ReentrancyGuard.sol\":2336:2623  function _nonReentrantBefore() private {... */\n      jump\t// out\n        /* \"@openzeppelin/contracts/security/ReentrancyGuard.sol\":1759:1760  2 */\n    tag_318:\n        /* \"contracts/modules/ContestRoyalty.sol\":90:8188  contract ContestRoyalty is Storage  {... */\n      mload(0x40)\n      shl(0xe5, 0x461bcd)\n        /* \"@openzeppelin/contracts/security/ReentrancyGuard.sol\":1759:1760  2 */\n      dup2\n      mstore\n      0x20\n      0x04\n      dup3\n      add\n      mstore\n      0x1f\n      0x24\n      dup3\n      add\n        /* \"contracts/modules/ContestRoyalty.sol\":90:8188  contract ContestRoyalty is Storage  {... */\n      mstore\n        /* \"@openzeppelin/contracts/security/ReentrancyGuard.sol\":1759:1760  2 */\n      0x5265656e7472616e637947756172643a207265656e7472616e742063616c6c00\n        /* \"contracts/modules/ContestRoyalty.sol\":90:8188  contract ContestRoyalty is Storage  {... */\n      0x44\n      dup3\n      add\n        /* \"@openzeppelin/contracts/security/ReentrancyGuard.sol\":1759:1760  2 */\n      mstore\n      0x64\n      swap1\n      revert\n\n    auxdata: 0xa2646970667358221220115d7a8c9ffcc543c2c281d50a8f84d518624e899d2e32db685393b8d4fea2c864736f6c634300081e0033\n}\n",
				"bytecode": {
					"linkReferences": {},
					"object": "60806040523461051f5760015f556040516101e081016001600160401b0381118282101761050b5760405267d02ab486cedc0000815268015af1d78b58c4000060208201526802b5e3af16b1880000604082015268056bc75e2d631000006060820152680ad78ebc5ac620000060808201526815af1d78b58c40000060a0820152682b5e3af16b1880000060c08201526856bc75e2d63100000060e082015268ad78ebc5ac6200000061010082015269015af1d78b58c40000006101208201526902b5e3af16b18800000061014082015269056bc75e2d6310000000610160820152690ad78ebc5ac6200000006101808201526915af1d78b58c400000006101a0820152692b5e3af16b18800000006101c0820152600b54600f600b5580600f106104b5575b50600b5f5260205f20905f5b600f811061049857610141610523565b680410d586a20a4c00008152681043561a8829300000602082015268410d586a20a4c0000060408201526901043561a882930000006060820152690410d586a20a4c0000006080820152691043561a88293000000060a082015269410d586a20a4c000000060c0820152601354600760135580600710610442575b5060135f5260205f20905f5b60078110610425576101d8610542565b68056bc75e2d631000008152680ad78ebc5ac620000060208201526815af1d78b58c4000006040820152682b5e3af16b1880000060608201526856bc75e2d631000000608082015268ad78ebc5ac6200000060a082015269015af1d78b58c400000060c08201526902b5e3af16b18800000060e08201526014546008601455806008106103cf575b5060145f5260205f20905f5b600881106103b25761027c610523565b60038152600560208201526007604082015260096060820152600b6080820152600d60a0820152600f60c08201525f5b6007811061039a576102bc610542565b6004815260056020820152600660408201526007606082015260086080820152600960a0820152600a60c0820152600b60e08201525f5b6008811061038257610303610542565b5f815260016020820152600160408201526001606082015260016080820152600160a0820152600160c0820152600160e08201525f5b6008811061036a574260375542603e555f60385560016036555f603f556001603d55604051610f9590816105798239f35b600190602060ff845116930192816024015501610339565b600190602060ff84511693019281601c0155016102f3565b600190602060ff8451169301928160150155016102ac565b81516001600160501b03168184015560209091019060010161026c565b60145f5261041f907fce6d7b5282bd9a3661ae061feed1dbda4e52ab073b1f9285be6e155d9c38d4ec017fce6d7b5282bd9a3661ae061feed1dbda4e52ab073b1f9285be6e155d9c38d4f4610562565b81610260565b81516001600160501b0316818401556020909101906001016101c8565b60135f52610492907f66de8ffda797e3de9c05e8fc57b3bf0ec28a930d40b0d285d93c06501cf6a090017f66de8ffda797e3de9c05e8fc57b3bf0ec28a930d40b0d285d93c06501cf6a097610562565b816101bc565b81516001600160501b031681840155602090910190600101610131565b600b5f52610505907f0175b7a638427703f0dbe7bb9bbf987a2551717b34e79f33b5b1008d1fa01db9017f0175b7a638427703f0dbe7bb9bbf987a2551717b34e79f33b5b1008d1fa01dc8610562565b5f610125565b634e487b7160e01b5f52604160045260245ffd5b5f80fd5b6040519060e082016001600160401b0381118382101761050b57604052565b6040519061010082016001600160401b0381118382101761050b57604052565b81811061056d575050565b5f815560010161056256fe6080806040526004361015610012575f80fd5b5f905f3560e01c90816301c234a814610d00575080631629805614610a055780632132d204146109d75780632350268f146109945780632a891534146109765780632f48ab7d1461094d5780633080b5bc1461092f57806332bc298c1461091157806332fcd966146108ee578063375b43b4146108d257806339ab36031461088f5780634c2215e31461048c57806358c7d3521461047057806376f5f7001461045257806378f6ad6d146104345780637cdc65f21461040b5780637d846e38146103e7578063956a3228146103b9578063a59d17d11461039b578063ae4708dc14610358578063bff1f9e11461033a578063c216212a146102e3578063c8df2908146102be578063c9ed0708146102a0578063ca8e912114610282578063d0a2fd7914610250578063e898fc3814610232578063e9e34a1614610209578063ebe0ff15146101e5578063ec597e6f146101c7578063f5d74d931461019e5763fddc806f1461017e575f80fd5b3461019b578060031936011261019b576020603754604051908152f35b80fd5b503461019b578060031936011261019b576004546040516001600160a01b039091168152602090f35b503461019b578060031936011261019b576020600554604051908152f35b503461019b578060031936011261019b576020604051683635c9adc5dea000008152f35b503461019b578060031936011261019b576003546040516001600160a01b039091168152602090f35b503461019b578060031936011261019b576020603e54604051908152f35b503461019b57602036600319011261019b57600435600881101561027e5760209150601c0154604051908152f35b5080fd5b503461019b578060031936011261019b576020603654604051908152f35b503461019b578060031936011261019b576020603d54604051908152f35b503461019b578060031936011261019b57602060405169021e19e0c9bab24000008152f35b503461019b57602036600319011261019b5760043590600b5482101561019b57600b5482101561032657602091600b825282822001549060031b1c604051908152f35b634e487b7160e01b81526032600452602490fd5b503461019b578060031936011261019b576020600654604051908152f35b503461019b57602036600319011261019b576004359060135482101561019b57601354821015610326576020916013825282822001549060031b1c604051908152f35b503461019b578060031936011261019b576020603f54604051908152f35b503461019b57602036600319011261019b57600435600881101561027e576020915060240154604051908152f35b503461019b5760206104016103fb36610d1a565b90610e62565b6040519015158152f35b503461019b578060031936011261019b576002546040516001600160a01b039091168152602090f35b503461019b578060031936011261019b576020600954604051908152f35b503461019b578060031936011261019b57602060405162093a808152f35b503461019b578060031936011261019b576020604051600a8152f35b503461019b5761049b36610d1a565b91906104a5610f0b565b808252600d6020526104c460018060a01b036040842054163314610d30565b80151580610886575b80610868575b8061085d575b6104e290610d6f565b8082526042602052604082209183815260406020526040812092600160ff60058301541615150361082757600481018583528060205260ff6040842054166107e2576003850154948515926105378415610dd4565b876002600484019261054f8285549601548610610e15565b0154116107a55760018201809211610791575585835260209081526040808420805460ff19166001179055848452600d9091528220546001600160a01b031690811561075d5761072a57828252600e602052600a604083206105b2868254610e55565b8155016105c0858254610e55565b905560018060a01b0360015416604051602081019063a9059cbb60e01b8252836024820152866044820152604481526080810181811067ffffffffffffffff821117610716576040525160209185919082855af11561070b5782513d6107025750803b155b6106f05750828252600d602090815260408084205490518681529182018490526001600160a01b031692806106dc5750917f8211032682f8fd8be8ff252e0a106cdb6ad4b10427152b4d93c2bc9a1f11c3c295917f0f67c60bc8519c61563ac616d368a6df646202c88d10744d736438bc4fbe2816608085600860406106d3980152426060820152a36040519384934292859094939260609260808301968352602083015260408201520152565b0390a160015f55005b634e487b7160e01b81526021600452602490fd5b635274afe760e01b8352600452602482fd5b60011415610625565b6040513d84823e3d90fd5b634e487b7160e01b86526041600452602486fd5b60405162461bcd60e51b815260206004820152600b60248201526a16995c9bc8185b5bdd5b9d60aa1b6044820152606490fd5b60405162461bcd60e51b815260206004820152600c60248201526b24b73b30b634b2103ab9b2b960a11b6044820152606490fd5b634e487b7160e01b85526011600452602485fd5b60405162461bcd60e51b81526020600482015260156024820152744e6f7420656c696769626c6520746f20636c61696d60581b6044820152606490fd5b60405162461bcd60e51b815260206004820152601e60248201527f416c726561647920636c61696d656420666f72207468697320726f756e6400006044820152606490fd5b60405162461bcd60e51b815260206004820152600e60248201526d02737ba1038bab0b634b334b2b2160951b6044820152606490fd5b50603d5483106104d9565b508282526040602052600160ff6008604085200154161515146104d3565b508215156104cd565b503461019b57602036600319011261019b576004359060075482101561019b57600754821015610326576020916007825282822001549060031b1c604051908152f35b503461019b578060031936011261019b576020604051600f8152f35b503461019b578060031936011261019b576020604051670de0b6b3a76400008152f35b503461019b578060031936011261019b576020604051620151808152f35b503461019b578060031936011261019b576020603854604051908152f35b503461019b578060031936011261019b576001546040516001600160a01b039091168152602090f35b503461019b578060031936011261019b57602060405162278d008152f35b503461019b57602036600319011261019b576004359060145482101561019b57601454821015610326576020916014825282822001549060031b1c604051908152f35b503461019b57602036600319011261019b57600435600781101561027e576020915060150154604051908152f35b34610cfc57610a1336610d1a565b90610a1c610f0b565b805f52600d602052610a3b60018060a01b0360405f2054163314610d30565b80151580610cf3575b80610cd5575b80610cca575b610a5990610d6f565b815f52603b60205260405f20815f5260205260405f2090825f526039602052600460405f209201918254600160ff8260081c161515149081610cbe575b5015610c7a57600381015492831591610aaf8315610dd4565b60048101610ac4600282549301548310610e15565b60018201809211610c665755805460ff191660011790555f828152600d60205260409020546001600160a01b031690811561075d5761072a57815f52600e602052600960405f20610b16858254610e55565b815501610b24848254610e55565b905560018060a01b03600154166040516020810163a9059cbb60e01b815283602483015285604483015260448252608082019082821067ffffffffffffffff831117610c52576020925f92604052519082855af115610c47575f513d610c3e5750803b155b610c2c57507f96ee4f374d0394c5383b347dc3b7ec04a1eceddcd2e25521157bce21c42b24d5936106d391835f52600d60205260018060a01b0360405f205416907f0f67c60bc8519c61563ac616d368a6df646202c88d10744d736438bc4fbe281660806040518881525f602082015260076040820152426060820152a36040519384934292859094939260609260808301968352602083015260408201520152565b635274afe760e01b5f5260045260245ffd5b60011415610b89565b6040513d5f823e3d90fd5b634e487b7160e01b5f52604160045260245ffd5b634e487b7160e01b5f52601160045260245ffd5b606460405162461bcd60e51b815260206004820152602060248201527f4e6f74207175616c6966696564206f7220616c726561647920636c61696d65646044820152fd5b60ff9150161585610a96565b506036548210610a50565b50815f526039602052600160ff600860405f20015416151514610a4a565b50811515610a44565b5f80fd5b34610cfc575f366003190112610cfc578061271060209252f35b6040906003190112610cfc576004359060243590565b15610d3757565b60405162461bcd60e51b815260206004820152601060248201526f139bdd081e5bdd5c881858d8dbdd5b9d60821b6044820152606490fd5b15610d7657565b60405162461bcd60e51b815260206004820152603060248201527f496e76616c696420757365724964206f7220726f756e644964206f7220726f7560448201526f1b99081bdc881b9bdd0818db1bdcd95960821b6064820152608490fd5b15610ddb57565b60405162461bcd60e51b81526020600482015260126024820152714e6f2072657761726420746f20636c61696d60701b6044820152606490fd5b15610e1c57565b60405162461bcd60e51b8152602060048201526011602482015270105b1b081d5cd95c9cc818db185a5b5959607a1b6044820152606490fd5b91908201809211610c6657565b5f52604260205260405f20815f52604060205260405f209060ff60088301541615928315610efe575b8315610eee575b8315610edf575b8315610ec4575b50508115610eb7575b50610eb357600190565b5f90565b600391500154155f610ea9565b60049293505f520160205260ff60405f205416905f80610ea0565b80935060028201541192610e99565b600582015460ff16159350610e92565b603d548110159350610e8b565b60025f5414610f1a5760025f55565b60405162461bcd60e51b815260206004820152601f60248201527f5265656e7472616e637947756172643a207265656e7472616e742063616c6c006044820152606490fdfea2646970667358221220115d7a8c9ffcc543c2c281d50a8f84d518624e899d2e32db685393b8d4fea2c864736f6c634300081e0033",
					"opcodes": "PUSH1 0x80 PUSH1 0x40 MSTORE CALLVALUE PUSH2 0x51F JUMPI PUSH1 0x1 PUSH0 SSTORE PUSH1 0x40 MLOAD PUSH2 0x1E0 DUP2 ADD PUSH1 0x1 PUSH1 0x1 PUSH1 0x40 SHL SUB DUP2 GT DUP3 DUP3 LT OR PUSH2 0x50B JUMPI PUSH1 0x40 MSTORE PUSH8 0xD02AB486CEDC0000 DUP2 MSTORE PUSH9 0x15AF1D78B58C40000 PUSH1 0x20 DUP3 ADD MSTORE PUSH9 0x2B5E3AF16B1880000 PUSH1 0x40 DUP3 ADD MSTORE PUSH9 0x56BC75E2D63100000 PUSH1 0x60 DUP3 ADD MSTORE PUSH9 0xAD78EBC5AC6200000 PUSH1 0x80 DUP3 ADD MSTORE PUSH9 0x15AF1D78B58C400000 PUSH1 0xA0 DUP3 ADD MSTORE PUSH9 0x2B5E3AF16B18800000 PUSH1 0xC0 DUP3 ADD MSTORE PUSH9 0x56BC75E2D631000000 PUSH1 0xE0 DUP3 ADD MSTORE PUSH9 0xAD78EBC5AC62000000 PUSH2 0x100 DUP3 ADD MSTORE PUSH10 0x15AF1D78B58C4000000 PUSH2 0x120 DUP3 ADD MSTORE PUSH10 0x2B5E3AF16B188000000 PUSH2 0x140 DUP3 ADD MSTORE PUSH10 0x56BC75E2D6310000000 PUSH2 0x160 DUP3 ADD MSTORE PUSH10 0xAD78EBC5AC620000000 PUSH2 0x180 DUP3 ADD MSTORE PUSH10 0x15AF1D78B58C40000000 PUSH2 0x1A0 DUP3 ADD MSTORE PUSH10 0x2B5E3AF16B1880000000 PUSH2 0x1C0 DUP3 ADD MSTORE PUSH1 0xB SLOAD PUSH1 0xF PUSH1 0xB SSTORE DUP1 PUSH1 0xF LT PUSH2 0x4B5 JUMPI JUMPDEST POP PUSH1 0xB PUSH0 MSTORE PUSH1 0x20 PUSH0 KECCAK256 SWAP1 PUSH0 JUMPDEST PUSH1 0xF DUP2 LT PUSH2 0x498 JUMPI PUSH2 0x141 PUSH2 0x523 JUMP JUMPDEST PUSH9 0x410D586A20A4C0000 DUP2 MSTORE PUSH9 0x1043561A8829300000 PUSH1 0x20 DUP3 ADD MSTORE PUSH9 0x410D586A20A4C00000 PUSH1 0x40 DUP3 ADD MSTORE PUSH10 0x1043561A88293000000 PUSH1 0x60 DUP3 ADD MSTORE PUSH10 0x410D586A20A4C000000 PUSH1 0x80 DUP3 ADD MSTORE PUSH10 0x1043561A882930000000 PUSH1 0xA0 DUP3 ADD MSTORE PUSH10 0x410D586A20A4C0000000 PUSH1 0xC0 DUP3 ADD MSTORE PUSH1 0x13 SLOAD PUSH1 0x7 PUSH1 0x13 SSTORE DUP1 PUSH1 0x7 LT PUSH2 0x442 JUMPI JUMPDEST POP PUSH1 0x13 PUSH0 MSTORE PUSH1 0x20 PUSH0 KECCAK256 SWAP1 PUSH0 JUMPDEST PUSH1 0x7 DUP2 LT PUSH2 0x425 JUMPI PUSH2 0x1D8 PUSH2 0x542 JUMP JUMPDEST PUSH9 0x56BC75E2D63100000 DUP2 MSTORE PUSH9 0xAD78EBC5AC6200000 PUSH1 0x20 DUP3 ADD MSTORE PUSH9 0x15AF1D78B58C400000 PUSH1 0x40 DUP3 ADD MSTORE PUSH9 0x2B5E3AF16B18800000 PUSH1 0x60 DUP3 ADD MSTORE PUSH9 0x56BC75E2D631000000 PUSH1 0x80 DUP3 ADD MSTORE PUSH9 0xAD78EBC5AC62000000 PUSH1 0xA0 DUP3 ADD MSTORE PUSH10 0x15AF1D78B58C4000000 PUSH1 0xC0 DUP3 ADD MSTORE PUSH10 0x2B5E3AF16B188000000 PUSH1 0xE0 DUP3 ADD MSTORE PUSH1 0x14 SLOAD PUSH1 0x8 PUSH1 0x14 SSTORE DUP1 PUSH1 0x8 LT PUSH2 0x3CF JUMPI JUMPDEST POP PUSH1 0x14 PUSH0 MSTORE PUSH1 0x20 PUSH0 KECCAK256 SWAP1 PUSH0 JUMPDEST PUSH1 0x8 DUP2 LT PUSH2 0x3B2 JUMPI PUSH2 0x27C PUSH2 0x523 JUMP JUMPDEST PUSH1 0x3 DUP2 MSTORE PUSH1 0x5 PUSH1 0x20 DUP3 ADD MSTORE PUSH1 0x7 PUSH1 0x40 DUP3 ADD MSTORE PUSH1 0x9 PUSH1 0x60 DUP3 ADD MSTORE PUSH1 0xB PUSH1 0x80 DUP3 ADD MSTORE PUSH1 0xD PUSH1 0xA0 DUP3 ADD MSTORE PUSH1 0xF PUSH1 0xC0 DUP3 ADD MSTORE PUSH0 JUMPDEST PUSH1 0x7 DUP2 LT PUSH2 0x39A JUMPI PUSH2 0x2BC PUSH2 0x542 JUMP JUMPDEST PUSH1 0x4 DUP2 MSTORE PUSH1 0x5 PUSH1 0x20 DUP3 ADD MSTORE PUSH1 0x6 PUSH1 0x40 DUP3 ADD MSTORE PUSH1 0x7 PUSH1 0x60 DUP3 ADD MSTORE PUSH1 0x8 PUSH1 0x80 DUP3 ADD MSTORE PUSH1 0x9 PUSH1 0xA0 DUP3 ADD MSTORE PUSH1 0xA PUSH1 0xC0 DUP3 ADD MSTORE PUSH1 0xB PUSH1 0xE0 DUP3 ADD MSTORE PUSH0 JUMPDEST PUSH1 0x8 DUP2 LT PUSH2 0x382 JUMPI PUSH2 0x303 PUSH2 0x542 JUMP JUMPDEST PUSH0 DUP2 MSTORE PUSH1 0x1 PUSH1 0x20 DUP3 ADD MSTORE PUSH1 0x1 PUSH1 0x40 DUP3 ADD MSTORE PUSH1 0x1 PUSH1 0x60 DUP3 ADD MSTORE PUSH1 0x1 PUSH1 0x80 DUP3 ADD MSTORE PUSH1 0x1 PUSH1 0xA0 DUP3 ADD MSTORE PUSH1 0x1 PUSH1 0xC0 DUP3 ADD MSTORE PUSH1 0x1 PUSH1 0xE0 DUP3 ADD MSTORE PUSH0 JUMPDEST PUSH1 0x8 DUP2 LT PUSH2 0x36A JUMPI TIMESTAMP PUSH1 0x37 SSTORE TIMESTAMP PUSH1 0x3E SSTORE PUSH0 PUSH1 0x38 SSTORE PUSH1 0x1 PUSH1 0x36 SSTORE PUSH0 PUSH1 0x3F SSTORE PUSH1 0x1 PUSH1 0x3D SSTORE PUSH1 0x40 MLOAD PUSH2 0xF95 SWAP1 DUP2 PUSH2 0x579 DUP3 CODECOPY RETURN JUMPDEST PUSH1 0x1 SWAP1 PUSH1 0x20 PUSH1 0xFF DUP5 MLOAD AND SWAP4 ADD SWAP3 DUP2 PUSH1 0x24 ADD SSTORE ADD PUSH2 0x339 JUMP JUMPDEST PUSH1 0x1 SWAP1 PUSH1 0x20 PUSH1 0xFF DUP5 MLOAD AND SWAP4 ADD SWAP3 DUP2 PUSH1 0x1C ADD SSTORE ADD PUSH2 0x2F3 JUMP JUMPDEST PUSH1 0x1 SWAP1 PUSH1 0x20 PUSH1 0xFF DUP5 MLOAD AND SWAP4 ADD SWAP3 DUP2 PUSH1 0x15 ADD SSTORE ADD PUSH2 0x2AC JUMP JUMPDEST DUP2 MLOAD PUSH1 0x1 PUSH1 0x1 PUSH1 0x50 SHL SUB AND DUP2 DUP5 ADD SSTORE PUSH1 0x20 SWAP1 SWAP2 ADD SWAP1 PUSH1 0x1 ADD PUSH2 0x26C JUMP JUMPDEST PUSH1 0x14 PUSH0 MSTORE PUSH2 0x41F SWAP1 PUSH32 0xCE6D7B5282BD9A3661AE061FEED1DBDA4E52AB073B1F9285BE6E155D9C38D4EC ADD PUSH32 0xCE6D7B5282BD9A3661AE061FEED1DBDA4E52AB073B1F9285BE6E155D9C38D4F4 PUSH2 0x562 JUMP JUMPDEST DUP2 PUSH2 0x260 JUMP JUMPDEST DUP2 MLOAD PUSH1 0x1 PUSH1 0x1 PUSH1 0x50 SHL SUB AND DUP2 DUP5 ADD SSTORE PUSH1 0x20 SWAP1 SWAP2 ADD SWAP1 PUSH1 0x1 ADD PUSH2 0x1C8 JUMP JUMPDEST PUSH1 0x13 PUSH0 MSTORE PUSH2 0x492 SWAP1 PUSH32 0x66DE8FFDA797E3DE9C05E8FC57B3BF0EC28A930D40B0D285D93C06501CF6A090 ADD PUSH32 0x66DE8FFDA797E3DE9C05E8FC57B3BF0EC28A930D40B0D285D93C06501CF6A097 PUSH2 0x562 JUMP JUMPDEST DUP2 PUSH2 0x1BC JUMP JUMPDEST DUP2 MLOAD PUSH1 0x1 PUSH1 0x1 PUSH1 0x50 SHL SUB AND DUP2 DUP5 ADD SSTORE PUSH1 0x20 SWAP1 SWAP2 ADD SWAP1 PUSH1 0x1 ADD PUSH2 0x131 JUMP JUMPDEST PUSH1 0xB PUSH0 MSTORE PUSH2 0x505 SWAP1 PUSH32 0x175B7A638427703F0DBE7BB9BBF987A2551717B34E79F33B5B1008D1FA01DB9 ADD PUSH32 0x175B7A638427703F0DBE7BB9BBF987A2551717B34E79F33B5B1008D1FA01DC8 PUSH2 0x562 JUMP JUMPDEST PUSH0 PUSH2 0x125 JUMP JUMPDEST PUSH4 0x4E487B71 PUSH1 0xE0 SHL PUSH0 MSTORE PUSH1 0x41 PUSH1 0x4 MSTORE PUSH1 0x24 PUSH0 REVERT JUMPDEST PUSH0 DUP1 REVERT JUMPDEST PUSH1 0x40 MLOAD SWAP1 PUSH1 0xE0 DUP3 ADD PUSH1 0x1 PUSH1 0x1 PUSH1 0x40 SHL SUB DUP2 GT DUP4 DUP3 LT OR PUSH2 0x50B JUMPI PUSH1 0x40 MSTORE JUMP JUMPDEST PUSH1 0x40 MLOAD SWAP1 PUSH2 0x100 DUP3 ADD PUSH1 0x1 PUSH1 0x1 PUSH1 0x40 SHL SUB DUP2 GT DUP4 DUP3 LT OR PUSH2 0x50B JUMPI PUSH1 0x40 MSTORE JUMP JUMPDEST DUP2 DUP2 LT PUSH2 0x56D JUMPI POP POP JUMP JUMPDEST PUSH0 DUP2 SSTORE PUSH1 0x1 ADD PUSH2 0x562 JUMP INVALID PUSH1 0x80 DUP1 PUSH1 0x40 MSTORE PUSH1 0x4 CALLDATASIZE LT ISZERO PUSH2 0x12 JUMPI PUSH0 DUP1 REVERT JUMPDEST PUSH0 SWAP1 PUSH0 CALLDATALOAD PUSH1 0xE0 SHR SWAP1 DUP2 PUSH4 0x1C234A8 EQ PUSH2 0xD00 JUMPI POP DUP1 PUSH4 0x16298056 EQ PUSH2 0xA05 JUMPI DUP1 PUSH4 0x2132D204 EQ PUSH2 0x9D7 JUMPI DUP1 PUSH4 0x2350268F EQ PUSH2 0x994 JUMPI DUP1 PUSH4 0x2A891534 EQ PUSH2 0x976 JUMPI DUP1 PUSH4 0x2F48AB7D EQ PUSH2 0x94D JUMPI DUP1 PUSH4 0x3080B5BC EQ PUSH2 0x92F JUMPI DUP1 PUSH4 0x32BC298C EQ PUSH2 0x911 JUMPI DUP1 PUSH4 0x32FCD966 EQ PUSH2 0x8EE JUMPI DUP1 PUSH4 0x375B43B4 EQ PUSH2 0x8D2 JUMPI DUP1 PUSH4 0x39AB3603 EQ PUSH2 0x88F JUMPI DUP1 PUSH4 0x4C2215E3 EQ PUSH2 0x48C JUMPI DUP1 PUSH4 0x58C7D352 EQ PUSH2 0x470 JUMPI DUP1 PUSH4 0x76F5F700 EQ PUSH2 0x452 JUMPI DUP1 PUSH4 0x78F6AD6D EQ PUSH2 0x434 JUMPI DUP1 PUSH4 0x7CDC65F2 EQ PUSH2 0x40B JUMPI DUP1 PUSH4 0x7D846E38 EQ PUSH2 0x3E7 JUMPI DUP1 PUSH4 0x956A3228 EQ PUSH2 0x3B9 JUMPI DUP1 PUSH4 0xA59D17D1 EQ PUSH2 0x39B JUMPI DUP1 PUSH4 0xAE4708DC EQ PUSH2 0x358 JUMPI DUP1 PUSH4 0xBFF1F9E1 EQ PUSH2 0x33A JUMPI DUP1 PUSH4 0xC216212A EQ PUSH2 0x2E3 JUMPI DUP1 PUSH4 0xC8DF2908 EQ PUSH2 0x2BE JUMPI DUP1 PUSH4 0xC9ED0708 EQ PUSH2 0x2A0 JUMPI DUP1 PUSH4 0xCA8E9121 EQ PUSH2 0x282 JUMPI DUP1 PUSH4 0xD0A2FD79 EQ PUSH2 0x250 JUMPI DUP1 PUSH4 0xE898FC38 EQ PUSH2 0x232 JUMPI DUP1 PUSH4 0xE9E34A16 EQ PUSH2 0x209 JUMPI DUP1 PUSH4 0xEBE0FF15 EQ PUSH2 0x1E5 JUMPI DUP1 PUSH4 0xEC597E6F EQ PUSH2 0x1C7 JUMPI DUP1 PUSH4 0xF5D74D93 EQ PUSH2 0x19E JUMPI PUSH4 0xFDDC806F EQ PUSH2 0x17E JUMPI PUSH0 DUP1 REVERT JUMPDEST CALLVALUE PUSH2 0x19B JUMPI DUP1 PUSH1 0x3 NOT CALLDATASIZE ADD SLT PUSH2 0x19B JUMPI PUSH1 0x20 PUSH1 0x37 SLOAD PUSH1 0x40 MLOAD SWAP1 DUP2 MSTORE RETURN JUMPDEST DUP1 REVERT JUMPDEST POP CALLVALUE PUSH2 0x19B JUMPI DUP1 PUSH1 0x3 NOT CALLDATASIZE ADD SLT PUSH2 0x19B JUMPI PUSH1 0x4 SLOAD PUSH1 0x40 MLOAD PUSH1 0x1 PUSH1 0x1 PUSH1 0xA0 SHL SUB SWAP1 SWAP2 AND DUP2 MSTORE PUSH1 0x20 SWAP1 RETURN JUMPDEST POP CALLVALUE PUSH2 0x19B JUMPI DUP1 PUSH1 0x3 NOT CALLDATASIZE ADD SLT PUSH2 0x19B JUMPI PUSH1 0x20 PUSH1 0x5 SLOAD PUSH1 0x40 MLOAD SWAP1 DUP2 MSTORE RETURN JUMPDEST POP CALLVALUE PUSH2 0x19B JUMPI DUP1 PUSH1 0x3 NOT CALLDATASIZE ADD SLT PUSH2 0x19B JUMPI PUSH1 0x20 PUSH1 0x40 MLOAD PUSH9 0x3635C9ADC5DEA00000 DUP2 MSTORE RETURN JUMPDEST POP CALLVALUE PUSH2 0x19B JUMPI DUP1 PUSH1 0x3 NOT CALLDATASIZE ADD SLT PUSH2 0x19B JUMPI PUSH1 0x3 SLOAD PUSH1 0x40 MLOAD PUSH1 0x1 PUSH1 0x1 PUSH1 0xA0 SHL SUB SWAP1 SWAP2 AND DUP2 MSTORE PUSH1 0x20 SWAP1 RETURN JUMPDEST POP CALLVALUE PUSH2 0x19B JUMPI DUP1 PUSH1 0x3 NOT CALLDATASIZE ADD SLT PUSH2 0x19B JUMPI PUSH1 0x20 PUSH1 0x3E SLOAD PUSH1 0x40 MLOAD SWAP1 DUP2 MSTORE RETURN JUMPDEST POP CALLVALUE PUSH2 0x19B JUMPI PUSH1 0x20 CALLDATASIZE PUSH1 0x3 NOT ADD SLT PUSH2 0x19B JUMPI PUSH1 0x4 CALLDATALOAD PUSH1 0x8 DUP2 LT ISZERO PUSH2 0x27E JUMPI PUSH1 0x20 SWAP2 POP PUSH1 0x1C ADD SLOAD PUSH1 0x40 MLOAD SWAP1 DUP2 MSTORE RETURN JUMPDEST POP DUP1 REVERT JUMPDEST POP CALLVALUE PUSH2 0x19B JUMPI DUP1 PUSH1 0x3 NOT CALLDATASIZE ADD SLT PUSH2 0x19B JUMPI PUSH1 0x20 PUSH1 0x36 SLOAD PUSH1 0x40 MLOAD SWAP1 DUP2 MSTORE RETURN JUMPDEST POP CALLVALUE PUSH2 0x19B JUMPI DUP1 PUSH1 0x3 NOT CALLDATASIZE ADD SLT PUSH2 0x19B JUMPI PUSH1 0x20 PUSH1 0x3D SLOAD PUSH1 0x40 MLOAD SWAP1 DUP2 MSTORE RETURN JUMPDEST POP CALLVALUE PUSH2 0x19B JUMPI DUP1 PUSH1 0x3 NOT CALLDATASIZE ADD SLT PUSH2 0x19B JUMPI PUSH1 0x20 PUSH1 0x40 MLOAD PUSH10 0x21E19E0C9BAB2400000 DUP2 MSTORE RETURN JUMPDEST POP CALLVALUE PUSH2 0x19B JUMPI PUSH1 0x20 CALLDATASIZE PUSH1 0x3 NOT ADD SLT PUSH2 0x19B JUMPI PUSH1 0x4 CALLDATALOAD SWAP1 PUSH1 0xB SLOAD DUP3 LT ISZERO PUSH2 0x19B JUMPI PUSH1 0xB SLOAD DUP3 LT ISZERO PUSH2 0x326 JUMPI PUSH1 0x20 SWAP2 PUSH1 0xB DUP3 MSTORE DUP3 DUP3 KECCAK256 ADD SLOAD SWAP1 PUSH1 0x3 SHL SHR PUSH1 0x40 MLOAD SWAP1 DUP2 MSTORE RETURN JUMPDEST PUSH4 0x4E487B71 PUSH1 0xE0 SHL DUP2 MSTORE PUSH1 0x32 PUSH1 0x4 MSTORE PUSH1 0x24 SWAP1 REVERT JUMPDEST POP CALLVALUE PUSH2 0x19B JUMPI DUP1 PUSH1 0x3 NOT CALLDATASIZE ADD SLT PUSH2 0x19B JUMPI PUSH1 0x20 PUSH1 0x6 SLOAD PUSH1 0x40 MLOAD SWAP1 DUP2 MSTORE RETURN JUMPDEST POP CALLVALUE PUSH2 0x19B JUMPI PUSH1 0x20 CALLDATASIZE PUSH1 0x3 NOT ADD SLT PUSH2 0x19B JUMPI PUSH1 0x4 CALLDATALOAD SWAP1 PUSH1 0x13 SLOAD DUP3 LT ISZERO PUSH2 0x19B JUMPI PUSH1 0x13 SLOAD DUP3 LT ISZERO PUSH2 0x326 JUMPI PUSH1 0x20 SWAP2 PUSH1 0x13 DUP3 MSTORE DUP3 DUP3 KECCAK256 ADD SLOAD SWAP1 PUSH1 0x3 SHL SHR PUSH1 0x40 MLOAD SWAP1 DUP2 MSTORE RETURN JUMPDEST POP CALLVALUE PUSH2 0x19B JUMPI DUP1 PUSH1 0x3 NOT CALLDATASIZE ADD SLT PUSH2 0x19B JUMPI PUSH1 0x20 PUSH1 0x3F SLOAD PUSH1 0x40 MLOAD SWAP1 DUP2 MSTORE RETURN JUMPDEST POP CALLVALUE PUSH2 0x19B JUMPI PUSH1 0x20 CALLDATASIZE PUSH1 0x3 NOT ADD SLT PUSH2 0x19B JUMPI PUSH1 0x4 CALLDATALOAD PUSH1 0x8 DUP2 LT ISZERO PUSH2 0x27E JUMPI PUSH1 0x20 SWAP2 POP PUSH1 0x24 ADD SLOAD PUSH1 0x40 MLOAD SWAP1 DUP2 MSTORE RETURN JUMPDEST POP CALLVALUE PUSH2 0x19B JUMPI PUSH1 0x20 PUSH2 0x401 PUSH2 0x3FB CALLDATASIZE PUSH2 0xD1A JUMP JUMPDEST SWAP1 PUSH2 0xE62 JUMP JUMPDEST PUSH1 0x40 MLOAD SWAP1 ISZERO ISZERO DUP2 MSTORE RETURN JUMPDEST POP CALLVALUE PUSH2 0x19B JUMPI DUP1 PUSH1 0x3 NOT CALLDATASIZE ADD SLT PUSH2 0x19B JUMPI PUSH1 0x2 SLOAD PUSH1 0x40 MLOAD PUSH1 0x1 PUSH1 0x1 PUSH1 0xA0 SHL SUB SWAP1 SWAP2 AND DUP2 MSTORE PUSH1 0x20 SWAP1 RETURN JUMPDEST POP CALLVALUE PUSH2 0x19B JUMPI DUP1 PUSH1 0x3 NOT CALLDATASIZE ADD SLT PUSH2 0x19B JUMPI PUSH1 0x20 PUSH1 0x9 SLOAD PUSH1 0x40 MLOAD SWAP1 DUP2 MSTORE RETURN JUMPDEST POP CALLVALUE PUSH2 0x19B JUMPI DUP1 PUSH1 0x3 NOT CALLDATASIZE ADD SLT PUSH2 0x19B JUMPI PUSH1 0x20 PUSH1 0x40 MLOAD PUSH3 0x93A80 DUP2 MSTORE RETURN JUMPDEST POP CALLVALUE PUSH2 0x19B JUMPI DUP1 PUSH1 0x3 NOT CALLDATASIZE ADD SLT PUSH2 0x19B JUMPI PUSH1 0x20 PUSH1 0x40 MLOAD PUSH1 0xA DUP2 MSTORE RETURN JUMPDEST POP CALLVALUE PUSH2 0x19B JUMPI PUSH2 0x49B CALLDATASIZE PUSH2 0xD1A JUMP JUMPDEST SWAP2 SWAP1 PUSH2 0x4A5 PUSH2 0xF0B JUMP JUMPDEST DUP1 DUP3 MSTORE PUSH1 0xD PUSH1 0x20 MSTORE PUSH2 0x4C4 PUSH1 0x1 DUP1 PUSH1 0xA0 SHL SUB PUSH1 0x40 DUP5 KECCAK256 SLOAD AND CALLER EQ PUSH2 0xD30 JUMP JUMPDEST DUP1 ISZERO ISZERO DUP1 PUSH2 0x886 JUMPI JUMPDEST DUP1 PUSH2 0x868 JUMPI JUMPDEST DUP1 PUSH2 0x85D JUMPI JUMPDEST PUSH2 0x4E2 SWAP1 PUSH2 0xD6F JUMP JUMPDEST DUP1 DUP3 MSTORE PUSH1 0x42 PUSH1 0x20 MSTORE PUSH1 0x40 DUP3 KECCAK256 SWAP2 DUP4 DUP2 MSTORE PUSH1 0x40 PUSH1 0x20 MSTORE PUSH1 0x40 DUP2 KECCAK256 SWAP3 PUSH1 0x1 PUSH1 0xFF PUSH1 0x5 DUP4 ADD SLOAD AND ISZERO ISZERO SUB PUSH2 0x827 JUMPI PUSH1 0x4 DUP2 ADD DUP6 DUP4 MSTORE DUP1 PUSH1 0x20 MSTORE PUSH1 0xFF PUSH1 0x40 DUP5 KECCAK256 SLOAD AND PUSH2 0x7E2 JUMPI PUSH1 0x3 DUP6 ADD SLOAD SWAP5 DUP6 ISZERO SWAP3 PUSH2 0x537 DUP5 ISZERO PUSH2 0xDD4 JUMP JUMPDEST DUP8 PUSH1 0x2 PUSH1 0x4 DUP5 ADD SWAP3 PUSH2 0x54F DUP3 DUP6 SLOAD SWAP7 ADD SLOAD DUP7 LT PUSH2 0xE15 JUMP JUMPDEST ADD SLOAD GT PUSH2 0x7A5 JUMPI PUSH1 0x1 DUP3 ADD DUP1 SWAP3 GT PUSH2 0x791 JUMPI SSTORE DUP6 DUP4 MSTORE PUSH1 0x20 SWAP1 DUP2 MSTORE PUSH1 0x40 DUP1 DUP5 KECCAK256 DUP1 SLOAD PUSH1 0xFF NOT AND PUSH1 0x1 OR SWAP1 SSTORE DUP5 DUP5 MSTORE PUSH1 0xD SWAP1 SWAP2 MSTORE DUP3 KECCAK256 SLOAD PUSH1 0x1 PUSH1 0x1 PUSH1 0xA0 SHL SUB AND SWAP1 DUP2 ISZERO PUSH2 0x75D JUMPI PUSH2 0x72A JUMPI DUP3 DUP3 MSTORE PUSH1 0xE PUSH1 0x20 MSTORE PUSH1 0xA PUSH1 0x40 DUP4 KECCAK256 PUSH2 0x5B2 DUP7 DUP3 SLOAD PUSH2 0xE55 JUMP JUMPDEST DUP2 SSTORE ADD PUSH2 0x5C0 DUP6 DUP3 SLOAD PUSH2 0xE55 JUMP JUMPDEST SWAP1 SSTORE PUSH1 0x1 DUP1 PUSH1 0xA0 SHL SUB PUSH1 0x1 SLOAD AND PUSH1 0x40 MLOAD PUSH1 0x20 DUP2 ADD SWAP1 PUSH4 0xA9059CBB PUSH1 0xE0 SHL DUP3 MSTORE DUP4 PUSH1 0x24 DUP3 ADD MSTORE DUP7 PUSH1 0x44 DUP3 ADD MSTORE PUSH1 0x44 DUP2 MSTORE PUSH1 0x80 DUP2 ADD DUP2 DUP2 LT PUSH8 0xFFFFFFFFFFFFFFFF DUP3 GT OR PUSH2 0x716 JUMPI PUSH1 0x40 MSTORE MLOAD PUSH1 0x20 SWAP2 DUP6 SWAP2 SWAP1 DUP3 DUP6 GAS CALL ISZERO PUSH2 0x70B JUMPI DUP3 MLOAD RETURNDATASIZE PUSH2 0x702 JUMPI POP DUP1 EXTCODESIZE ISZERO JUMPDEST PUSH2 0x6F0 JUMPI POP DUP3 DUP3 MSTORE PUSH1 0xD PUSH1 0x20 SWAP1 DUP2 MSTORE PUSH1 0x40 DUP1 DUP5 KECCAK256 SLOAD SWAP1 MLOAD DUP7 DUP2 MSTORE SWAP2 DUP3 ADD DUP5 SWAP1 MSTORE PUSH1 0x1 PUSH1 0x1 PUSH1 0xA0 SHL SUB AND SWAP3 DUP1 PUSH2 0x6DC JUMPI POP SWAP2 PUSH32 0x8211032682F8FD8BE8FF252E0A106CDB6AD4B10427152B4D93C2BC9A1F11C3C2 SWAP6 SWAP2 PUSH32 0xF67C60BC8519C61563AC616D368A6DF646202C88D10744D736438BC4FBE2816 PUSH1 0x80 DUP6 PUSH1 0x8 PUSH1 0x40 PUSH2 0x6D3 SWAP9 ADD MSTORE TIMESTAMP PUSH1 0x60 DUP3 ADD MSTORE LOG3 PUSH1 0x40 MLOAD SWAP4 DUP5 SWAP4 TIMESTAMP SWAP3 DUP6 SWAP1 SWAP5 SWAP4 SWAP3 PUSH1 0x60 SWAP3 PUSH1 0x80 DUP4 ADD SWAP7 DUP4 MSTORE PUSH1 0x20 DUP4 ADD MSTORE PUSH1 0x40 DUP3 ADD MSTORE ADD MSTORE JUMP JUMPDEST SUB SWAP1 LOG1 PUSH1 0x1 PUSH0 SSTORE STOP JUMPDEST PUSH4 0x4E487B71 PUSH1 0xE0 SHL DUP2 MSTORE PUSH1 0x21 PUSH1 0x4 MSTORE PUSH1 0x24 SWAP1 REVERT JUMPDEST PUSH4 0x5274AFE7 PUSH1 0xE0 SHL DUP4 MSTORE PUSH1 0x4 MSTORE PUSH1 0x24 DUP3 REVERT JUMPDEST PUSH1 0x1 EQ ISZERO PUSH2 0x625 JUMP JUMPDEST PUSH1 0x40 MLOAD RETURNDATASIZE DUP5 DUP3 RETURNDATACOPY RETURNDATASIZE SWAP1 REVERT JUMPDEST PUSH4 0x4E487B71 PUSH1 0xE0 SHL DUP7 MSTORE PUSH1 0x41 PUSH1 0x4 MSTORE PUSH1 0x24 DUP7 REVERT JUMPDEST PUSH1 0x40 MLOAD PUSH3 0x461BCD PUSH1 0xE5 SHL DUP2 MSTORE PUSH1 0x20 PUSH1 0x4 DUP3 ADD MSTORE PUSH1 0xB PUSH1 0x24 DUP3 ADD MSTORE PUSH11 0x16995C9BC8185B5BDD5B9D PUSH1 0xAA SHL PUSH1 0x44 DUP3 ADD MSTORE PUSH1 0x64 SWAP1 REVERT JUMPDEST PUSH1 0x40 MLOAD PUSH3 0x461BCD PUSH1 0xE5 SHL DUP2 MSTORE PUSH1 0x20 PUSH1 0x4 DUP3 ADD MSTORE PUSH1 0xC PUSH1 0x24 DUP3 ADD MSTORE PUSH12 0x24B73B30B634B2103AB9B2B9 PUSH1 0xA1 SHL PUSH1 0x44 DUP3 ADD MSTORE PUSH1 0x64 SWAP1 REVERT JUMPDEST PUSH4 0x4E487B71 PUSH1 0xE0 SHL DUP6 MSTORE PUSH1 0x11 PUSH1 0x4 MSTORE PUSH1 0x24 DUP6 REVERT JUMPDEST PUSH1 0x40 MLOAD PUSH3 0x461BCD PUSH1 0xE5 SHL DUP2 MSTORE PUSH1 0x20 PUSH1 0x4 DUP3 ADD MSTORE PUSH1 0x15 PUSH1 0x24 DUP3 ADD MSTORE PUSH21 0x4E6F7420656C696769626C6520746F20636C61696D PUSH1 0x58 SHL PUSH1 0x44 DUP3 ADD MSTORE PUSH1 0x64 SWAP1 REVERT JUMPDEST PUSH1 0x40 MLOAD PUSH3 0x461BCD PUSH1 0xE5 SHL DUP2 MSTORE PUSH1 0x20 PUSH1 0x4 DUP3 ADD MSTORE PUSH1 0x1E PUSH1 0x24 DUP3 ADD MSTORE PUSH32 0x416C726561647920636C61696D656420666F72207468697320726F756E640000 PUSH1 0x44 DUP3 ADD MSTORE PUSH1 0x64 SWAP1 REVERT JUMPDEST PUSH1 0x40 MLOAD PUSH3 0x461BCD PUSH1 0xE5 SHL DUP2 MSTORE PUSH1 0x20 PUSH1 0x4 DUP3 ADD MSTORE PUSH1 0xE PUSH1 0x24 DUP3 ADD MSTORE PUSH14 0x2737BA1038BAB0B634B334B2B21 PUSH1 0x95 SHL PUSH1 0x44 DUP3 ADD MSTORE PUSH1 0x64 SWAP1 REVERT JUMPDEST POP PUSH1 0x3D SLOAD DUP4 LT PUSH2 0x4D9 JUMP JUMPDEST POP DUP3 DUP3 MSTORE PUSH1 0x40 PUSH1 0x20 MSTORE PUSH1 0x1 PUSH1 0xFF PUSH1 0x8 PUSH1 0x40 DUP6 KECCAK256 ADD SLOAD AND ISZERO ISZERO EQ PUSH2 0x4D3 JUMP JUMPDEST POP DUP3 ISZERO ISZERO PUSH2 0x4CD JUMP JUMPDEST POP CALLVALUE PUSH2 0x19B JUMPI PUSH1 0x20 CALLDATASIZE PUSH1 0x3 NOT ADD SLT PUSH2 0x19B JUMPI PUSH1 0x4 CALLDATALOAD SWAP1 PUSH1 0x7 SLOAD DUP3 LT ISZERO PUSH2 0x19B JUMPI PUSH1 0x7 SLOAD DUP3 LT ISZERO PUSH2 0x326 JUMPI PUSH1 0x20 SWAP2 PUSH1 0x7 DUP3 MSTORE DUP3 DUP3 KECCAK256 ADD SLOAD SWAP1 PUSH1 0x3 SHL SHR PUSH1 0x40 MLOAD SWAP1 DUP2 MSTORE RETURN JUMPDEST POP CALLVALUE PUSH2 0x19B JUMPI DUP1 PUSH1 0x3 NOT CALLDATASIZE ADD SLT PUSH2 0x19B JUMPI PUSH1 0x20 PUSH1 0x40 MLOAD PUSH1 0xF DUP2 MSTORE RETURN JUMPDEST POP CALLVALUE PUSH2 0x19B JUMPI DUP1 PUSH1 0x3 NOT CALLDATASIZE ADD SLT PUSH2 0x19B JUMPI PUSH1 0x20 PUSH1 0x40 MLOAD PUSH8 0xDE0B6B3A7640000 DUP2 MSTORE RETURN JUMPDEST POP CALLVALUE PUSH2 0x19B JUMPI DUP1 PUSH1 0x3 NOT CALLDATASIZE ADD SLT PUSH2 0x19B JUMPI PUSH1 0x20 PUSH1 0x40 MLOAD PUSH3 0x15180 DUP2 MSTORE RETURN JUMPDEST POP CALLVALUE PUSH2 0x19B JUMPI DUP1 PUSH1 0x3 NOT CALLDATASIZE ADD SLT PUSH2 0x19B JUMPI PUSH1 0x20 PUSH1 0x38 SLOAD PUSH1 0x40 MLOAD SWAP1 DUP2 MSTORE RETURN JUMPDEST POP CALLVALUE PUSH2 0x19B JUMPI DUP1 PUSH1 0x3 NOT CALLDATASIZE ADD SLT PUSH2 0x19B JUMPI PUSH1 0x1 SLOAD PUSH1 0x40 MLOAD PUSH1 0x1 PUSH1 0x1 PUSH1 0xA0 SHL SUB SWAP1 SWAP2 AND DUP2 MSTORE PUSH1 0x20 SWAP1 RETURN JUMPDEST POP CALLVALUE PUSH2 0x19B JUMPI DUP1 PUSH1 0x3 NOT CALLDATASIZE ADD SLT PUSH2 0x19B JUMPI PUSH1 0x20 PUSH1 0x40 MLOAD PUSH3 0x278D00 DUP2 MSTORE RETURN JUMPDEST POP CALLVALUE PUSH2 0x19B JUMPI PUSH1 0x20 CALLDATASIZE PUSH1 0x3 NOT ADD SLT PUSH2 0x19B JUMPI PUSH1 0x4 CALLDATALOAD SWAP1 PUSH1 0x14 SLOAD DUP3 LT ISZERO PUSH2 0x19B JUMPI PUSH1 0x14 SLOAD DUP3 LT ISZERO PUSH2 0x326 JUMPI PUSH1 0x20 SWAP2 PUSH1 0x14 DUP3 MSTORE DUP3 DUP3 KECCAK256 ADD SLOAD SWAP1 PUSH1 0x3 SHL SHR PUSH1 0x40 MLOAD SWAP1 DUP2 MSTORE RETURN JUMPDEST POP CALLVALUE PUSH2 0x19B JUMPI PUSH1 0x20 CALLDATASIZE PUSH1 0x3 NOT ADD SLT PUSH2 0x19B JUMPI PUSH1 0x4 CALLDATALOAD PUSH1 0x7 DUP2 LT ISZERO PUSH2 0x27E JUMPI PUSH1 0x20 SWAP2 POP PUSH1 0x15 ADD SLOAD PUSH1 0x40 MLOAD SWAP1 DUP2 MSTORE RETURN JUMPDEST CALLVALUE PUSH2 0xCFC JUMPI PUSH2 0xA13 CALLDATASIZE PUSH2 0xD1A JUMP JUMPDEST SWAP1 PUSH2 0xA1C PUSH2 0xF0B JUMP JUMPDEST DUP1 PUSH0 MSTORE PUSH1 0xD PUSH1 0x20 MSTORE PUSH2 0xA3B PUSH1 0x1 DUP1 PUSH1 0xA0 SHL SUB PUSH1 0x40 PUSH0 KECCAK256 SLOAD AND CALLER EQ PUSH2 0xD30 JUMP JUMPDEST DUP1 ISZERO ISZERO DUP1 PUSH2 0xCF3 JUMPI JUMPDEST DUP1 PUSH2 0xCD5 JUMPI JUMPDEST DUP1 PUSH2 0xCCA JUMPI JUMPDEST PUSH2 0xA59 SWAP1 PUSH2 0xD6F JUMP JUMPDEST DUP2 PUSH0 MSTORE PUSH1 0x3B PUSH1 0x20 MSTORE PUSH1 0x40 PUSH0 KECCAK256 DUP2 PUSH0 MSTORE PUSH1 0x20 MSTORE PUSH1 0x40 PUSH0 KECCAK256 SWAP1 DUP3 PUSH0 MSTORE PUSH1 0x39 PUSH1 0x20 MSTORE PUSH1 0x4 PUSH1 0x40 PUSH0 KECCAK256 SWAP3 ADD SWAP2 DUP3 SLOAD PUSH1 0x1 PUSH1 0xFF DUP3 PUSH1 0x8 SHR AND ISZERO ISZERO EQ SWAP1 DUP2 PUSH2 0xCBE JUMPI JUMPDEST POP ISZERO PUSH2 0xC7A JUMPI PUSH1 0x3 DUP2 ADD SLOAD SWAP3 DUP4 ISZERO SWAP2 PUSH2 0xAAF DUP4 ISZERO PUSH2 0xDD4 JUMP JUMPDEST PUSH1 0x4 DUP2 ADD PUSH2 0xAC4 PUSH1 0x2 DUP3 SLOAD SWAP4 ADD SLOAD DUP4 LT PUSH2 0xE15 JUMP JUMPDEST PUSH1 0x1 DUP3 ADD DUP1 SWAP3 GT PUSH2 0xC66 JUMPI SSTORE DUP1 SLOAD PUSH1 0xFF NOT AND PUSH1 0x1 OR SWAP1 SSTORE PUSH0 DUP3 DUP2 MSTORE PUSH1 0xD PUSH1 0x20 MSTORE PUSH1 0x40 SWAP1 KECCAK256 SLOAD PUSH1 0x1 PUSH1 0x1 PUSH1 0xA0 SHL SUB AND SWAP1 DUP2 ISZERO PUSH2 0x75D JUMPI PUSH2 0x72A JUMPI DUP2 PUSH0 MSTORE PUSH1 0xE PUSH1 0x20 MSTORE PUSH1 0x9 PUSH1 0x40 PUSH0 KECCAK256 PUSH2 0xB16 DUP6 DUP3 SLOAD PUSH2 0xE55 JUMP JUMPDEST DUP2 SSTORE ADD PUSH2 0xB24 DUP5 DUP3 SLOAD PUSH2 0xE55 JUMP JUMPDEST SWAP1 SSTORE PUSH1 0x1 DUP1 PUSH1 0xA0 SHL SUB PUSH1 0x1 SLOAD AND PUSH1 0x40 MLOAD PUSH1 0x20 DUP2 ADD PUSH4 0xA9059CBB PUSH1 0xE0 SHL DUP2 MSTORE DUP4 PUSH1 0x24 DUP4 ADD MSTORE DUP6 PUSH1 0x44 DUP4 ADD MSTORE PUSH1 0x44 DUP3 MSTORE PUSH1 0x80 DUP3 ADD SWAP1 DUP3 DUP3 LT PUSH8 0xFFFFFFFFFFFFFFFF DUP4 GT OR PUSH2 0xC52 JUMPI PUSH1 0x20 SWAP3 PUSH0 SWAP3 PUSH1 0x40 MSTORE MLOAD SWAP1 DUP3 DUP6 GAS CALL ISZERO PUSH2 0xC47 JUMPI PUSH0 MLOAD RETURNDATASIZE PUSH2 0xC3E JUMPI POP DUP1 EXTCODESIZE ISZERO JUMPDEST PUSH2 0xC2C JUMPI POP PUSH32 0x96EE4F374D0394C5383B347DC3B7EC04A1ECEDDCD2E25521157BCE21C42B24D5 SWAP4 PUSH2 0x6D3 SWAP2 DUP4 PUSH0 MSTORE PUSH1 0xD PUSH1 0x20 MSTORE PUSH1 0x1 DUP1 PUSH1 0xA0 SHL SUB PUSH1 0x40 PUSH0 KECCAK256 SLOAD AND SWAP1 PUSH32 0xF67C60BC8519C61563AC616D368A6DF646202C88D10744D736438BC4FBE2816 PUSH1 0x80 PUSH1 0x40 MLOAD DUP9 DUP2 MSTORE PUSH0 PUSH1 0x20 DUP3 ADD MSTORE PUSH1 0x7 PUSH1 0x40 DUP3 ADD MSTORE TIMESTAMP PUSH1 0x60 DUP3 ADD MSTORE LOG3 PUSH1 0x40 MLOAD SWAP4 DUP5 SWAP4 TIMESTAMP SWAP3 DUP6 SWAP1 SWAP5 SWAP4 SWAP3 PUSH1 0x60 SWAP3 PUSH1 0x80 DUP4 ADD SWAP7 DUP4 MSTORE PUSH1 0x20 DUP4 ADD MSTORE PUSH1 0x40 DUP3 ADD MSTORE ADD MSTORE JUMP JUMPDEST PUSH4 0x5274AFE7 PUSH1 0xE0 SHL PUSH0 MSTORE PUSH1 0x4 MSTORE PUSH1 0x24 PUSH0 REVERT JUMPDEST PUSH1 0x1 EQ ISZERO PUSH2 0xB89 JUMP JUMPDEST PUSH1 0x40 MLOAD RETURNDATASIZE PUSH0 DUP3 RETURNDATACOPY RETURNDATASIZE SWAP1 REVERT JUMPDEST PUSH4 0x4E487B71 PUSH1 0xE0 SHL PUSH0 MSTORE PUSH1 0x41 PUSH1 0x4 MSTORE PUSH1 0x24 PUSH0 REVERT JUMPDEST PUSH4 0x4E487B71 PUSH1 0xE0 SHL PUSH0 MSTORE PUSH1 0x11 PUSH1 0x4 MSTORE PUSH1 0x24 PUSH0 REVERT JUMPDEST PUSH1 0x64 PUSH1 0x40 MLOAD PUSH3 0x461BCD PUSH1 0xE5 SHL DUP2 MSTORE PUSH1 0x20 PUSH1 0x4 DUP3 ADD MSTORE PUSH1 0x20 PUSH1 0x24 DUP3 ADD MSTORE PUSH32 0x4E6F74207175616C6966696564206F7220616C726561647920636C61696D6564 PUSH1 0x44 DUP3 ADD MSTORE REVERT JUMPDEST PUSH1 0xFF SWAP2 POP AND ISZERO DUP6 PUSH2 0xA96 JUMP JUMPDEST POP PUSH1 0x36 SLOAD DUP3 LT PUSH2 0xA50 JUMP JUMPDEST POP DUP2 PUSH0 MSTORE PUSH1 0x39 PUSH1 0x20 MSTORE PUSH1 0x1 PUSH1 0xFF PUSH1 0x8 PUSH1 0x40 PUSH0 KECCAK256 ADD SLOAD AND ISZERO ISZERO EQ PUSH2 0xA4A JUMP JUMPDEST POP DUP2 ISZERO ISZERO PUSH2 0xA44 JUMP JUMPDEST PUSH0 DUP1 REVERT JUMPDEST CALLVALUE PUSH2 0xCFC JUMPI PUSH0 CALLDATASIZE PUSH1 0x3 NOT ADD SLT PUSH2 0xCFC JUMPI DUP1 PUSH2 0x2710 PUSH1 0x20 SWAP3 MSTORE RETURN JUMPDEST PUSH1 0x40 SWAP1 PUSH1 0x3 NOT ADD SLT PUSH2 0xCFC JUMPI PUSH1 0x4 CALLDATALOAD SWAP1 PUSH1 0x24 CALLDATALOAD SWAP1 JUMP JUMPDEST ISZERO PUSH2 0xD37 JUMPI JUMP JUMPDEST PUSH1 0x40 MLOAD PUSH3 0x461BCD PUSH1 0xE5 SHL DUP2 MSTORE PUSH1 0x20 PUSH1 0x4 DUP3 ADD MSTORE PUSH1 0x10 PUSH1 0x24 DUP3 ADD MSTORE PUSH16 0x139BDD081E5BDD5C881858D8DBDD5B9D PUSH1 0x82 SHL PUSH1 0x44 DUP3 ADD MSTORE PUSH1 0x64 SWAP1 REVERT JUMPDEST ISZERO PUSH2 0xD76 JUMPI JUMP JUMPDEST PUSH1 0x40 MLOAD PUSH3 0x461BCD PUSH1 0xE5 SHL DUP2 MSTORE PUSH1 0x20 PUSH1 0x4 DUP3 ADD MSTORE PUSH1 0x30 PUSH1 0x24 DUP3 ADD MSTORE PUSH32 0x496E76616C696420757365724964206F7220726F756E644964206F7220726F75 PUSH1 0x44 DUP3 ADD MSTORE PUSH16 0x1B99081BDC881B9BDD0818DB1BDCD959 PUSH1 0x82 SHL PUSH1 0x64 DUP3 ADD MSTORE PUSH1 0x84 SWAP1 REVERT JUMPDEST ISZERO PUSH2 0xDDB JUMPI JUMP JUMPDEST PUSH1 0x40 MLOAD PUSH3 0x461BCD PUSH1 0xE5 SHL DUP2 MSTORE PUSH1 0x20 PUSH1 0x4 DUP3 ADD MSTORE PUSH1 0x12 PUSH1 0x24 DUP3 ADD MSTORE PUSH18 0x4E6F2072657761726420746F20636C61696D PUSH1 0x70 SHL PUSH1 0x44 DUP3 ADD MSTORE PUSH1 0x64 SWAP1 REVERT JUMPDEST ISZERO PUSH2 0xE1C JUMPI JUMP JUMPDEST PUSH1 0x40 MLOAD PUSH3 0x461BCD PUSH1 0xE5 SHL DUP2 MSTORE PUSH1 0x20 PUSH1 0x4 DUP3 ADD MSTORE PUSH1 0x11 PUSH1 0x24 DUP3 ADD MSTORE PUSH17 0x105B1B081D5CD95C9CC818DB185A5B5959 PUSH1 0x7A SHL PUSH1 0x44 DUP3 ADD MSTORE PUSH1 0x64 SWAP1 REVERT JUMPDEST SWAP2 SWAP1 DUP3 ADD DUP1 SWAP3 GT PUSH2 0xC66 JUMPI JUMP JUMPDEST PUSH0 MSTORE PUSH1 0x42 PUSH1 0x20 MSTORE PUSH1 0x40 PUSH0 KECCAK256 DUP2 PUSH0 MSTORE PUSH1 0x40 PUSH1 0x20 MSTORE PUSH1 0x40 PUSH0 KECCAK256 SWAP1 PUSH1 0xFF PUSH1 0x8 DUP4 ADD SLOAD AND ISZERO SWAP3 DUP4 ISZERO PUSH2 0xEFE JUMPI JUMPDEST DUP4 ISZERO PUSH2 0xEEE JUMPI JUMPDEST DUP4 ISZERO PUSH2 0xEDF JUMPI JUMPDEST DUP4 ISZERO PUSH2 0xEC4 JUMPI JUMPDEST POP POP DUP2 ISZERO PUSH2 0xEB7 JUMPI JUMPDEST POP PUSH2 0xEB3 JUMPI PUSH1 0x1 SWAP1 JUMP JUMPDEST PUSH0 SWAP1 JUMP JUMPDEST PUSH1 0x3 SWAP2 POP ADD SLOAD ISZERO PUSH0 PUSH2 0xEA9 JUMP JUMPDEST PUSH1 0x4 SWAP3 SWAP4 POP PUSH0 MSTORE ADD PUSH1 0x20 MSTORE PUSH1 0xFF PUSH1 0x40 PUSH0 KECCAK256 SLOAD AND SWAP1 PUSH0 DUP1 PUSH2 0xEA0 JUMP JUMPDEST DUP1 SWAP4 POP PUSH1 0x2 DUP3 ADD SLOAD GT SWAP3 PUSH2 0xE99 JUMP JUMPDEST PUSH1 0x5 DUP3 ADD SLOAD PUSH1 0xFF AND ISZERO SWAP4 POP PUSH2 0xE92 JUMP JUMPDEST PUSH1 0x3D SLOAD DUP2 LT ISZERO SWAP4 POP PUSH2 0xE8B JUMP JUMPDEST PUSH1 0x2 PUSH0 SLOAD EQ PUSH2 0xF1A JUMPI PUSH1 0x2 PUSH0 SSTORE JUMP JUMPDEST PUSH1 0x40 MLOAD PUSH3 0x461BCD PUSH1 0xE5 SHL DUP2 MSTORE PUSH1 0x20 PUSH1 0x4 DUP3 ADD MSTORE PUSH1 0x1F PUSH1 0x24 DUP3 ADD MSTORE PUSH32 0x5265656E7472616E637947756172643A207265656E7472616E742063616C6C00 PUSH1 0x44 DUP3 ADD MSTORE PUSH1 0x64 SWAP1 REVERT INVALID LOG2 PUSH5 0x6970667358 0x22 SLT KECCAK256 GT TSTORE PUSH27 0x8C9FFCC543C2C281D50A8F84D518624E899D2E32DB685393B8D4FE LOG2 0xC8 PUSH5 0x736F6C6343 STOP ADDMOD 0x1E STOP CALLER "
				},
				"gasEstimates": {
					"creation": {
						"codeDepositCost": "797800",
						"executionCost": "infinite",
						"totalCost": "infinite"
					},
					"external": {
						"ACC_PRECISION()": "337",
						"MONTH_DURATION()": "249",
						"PERCENTS_DIVIDER()": "153",
						"ROI_CAP_DIVIDER()": "425",
						"ROI_CAP_MULTIPLIER()": "359",
						"TIME_STEP()": "315",
						"WEEK_DURATION()": "447",
						"WeeklyCapping()": "777",
						"WeeklyTotalReward()": "2396",
						"canClaimMonthlyReward(uint256,uint256)": "13690",
						"claimMonthlyContestReward(uint256,uint256)": "infinite",
						"claimWeeklyContestReward(uint256,uint256)": "infinite",
						"communityAccPerUser()": "2572",
						"creatorWallet()": "2618",
						"currentMonthlyRound()": "2770",
						"currentMonthlyStartTime()": "2836",
						"currentWeeklyRound()": "2792",
						"currentWeeklyStartTime()": "2941",
						"defaultRefId()": "2902",
						"glbBoosterPackages(uint256)": "6655",
						"minLevelForGlbBooster(uint256)": "2853",
						"minLevelForPool(uint256)": "2347",
						"minPoolForGlbBooster(uint256)": "2677",
						"monthlyCapping()": "645",
						"monthlyTotalReward()": "2660",
						"packages(uint256)": "7051",
						"poolPackages(uint256)": "7007",
						"registeredUserIds(uint256)": "6809",
						"systemMaintance()": "2882",
						"teamDevelopment()": "2948",
						"totalUsers()": "2704",
						"usdt()": "2398"
					},
					"internal": {
						"_closeMonthlyContest()": "infinite",
						"_closeWeeklyContest()": "infinite"
					}
				},
				"methodIdentifiers": {
					"ACC_PRECISION()": "32fcd966",
					"MONTH_DURATION()": "2a891534",
					"PERCENTS_DIVIDER()": "01c234a8",
					"ROI_CAP_DIVIDER()": "58c7d352",
					"ROI_CAP_MULTIPLIER()": "375b43b4",
					"TIME_STEP()": "32bc298c",
					"WEEK_DURATION()": "76f5f700",
					"WeeklyCapping()": "ebe0ff15",
					"WeeklyTotalReward()": "3080b5bc",
					"canClaimMonthlyReward(uint256,uint256)": "7d846e38",
					"claimMonthlyContestReward(uint256,uint256)": "4c2215e3",
					"claimWeeklyContestReward(uint256,uint256)": "16298056",
					"communityAccPerUser()": "78f6ad6d",
					"creatorWallet()": "7cdc65f2",
					"currentMonthlyRound()": "c9ed0708",
					"currentMonthlyStartTime()": "e898fc38",
					"currentWeeklyRound()": "ca8e9121",
					"currentWeeklyStartTime()": "fddc806f",
					"defaultRefId()": "ec597e6f",
					"glbBoosterPackages(uint256)": "2350268f",
					"minLevelForGlbBooster(uint256)": "d0a2fd79",
					"minLevelForPool(uint256)": "2132d204",
					"minPoolForGlbBooster(uint256)": "956a3228",
					"monthlyCapping()": "c8df2908",
					"monthlyTotalReward()": "a59d17d1",
					"packages(uint256)": "c216212a",
					"poolPackages(uint256)": "ae4708dc",
					"registeredUserIds(uint256)": "39ab3603",
					"systemMaintance()": "e9e34a16",
					"teamDevelopment()": "f5d74d93",
					"totalUsers()": "bff1f9e1",
					"usdt()": "2f48ab7d"
				}
			},
			"storageLayout": {
				"storage": [
					{
						"astId": 100,
						"contract": "contracts/modules/ContestRoyalty.sol:ContestRoyalty",
						"label": "_status",
						"offset": 0,
						"slot": "0",
						"type": "t_uint256"
					},
					{
						"astId": 1424,
						"contract": "contracts/modules/ContestRoyalty.sol:ContestRoyalty",
						"label": "usdt",
						"offset": 0,
						"slot": "1",
						"type": "t_contract(IERC20)232"
					},
					{
						"astId": 1426,
						"contract": "contracts/modules/ContestRoyalty.sol:ContestRoyalty",
						"label": "creatorWallet",
						"offset": 0,
						"slot": "2",
						"type": "t_address"
					},
					{
						"astId": 1428,
						"contract": "contracts/modules/ContestRoyalty.sol:ContestRoyalty",
						"label": "systemMaintance",
						"offset": 0,
						"slot": "3",
						"type": "t_address"
					},
					{
						"astId": 1430,
						"contract": "contracts/modules/ContestRoyalty.sol:ContestRoyalty",
						"label": "teamDevelopment",
						"offset": 0,
						"slot": "4",
						"type": "t_address"
					},
					{
						"astId": 1432,
						"contract": "contracts/modules/ContestRoyalty.sol:ContestRoyalty",
						"label": "defaultRefId",
						"offset": 0,
						"slot": "5",
						"type": "t_uint256"
					},
					{
						"astId": 1434,
						"contract": "contracts/modules/ContestRoyalty.sol:ContestRoyalty",
						"label": "totalUsers",
						"offset": 0,
						"slot": "6",
						"type": "t_uint256"
					},
					{
						"astId": 1452,
						"contract": "contracts/modules/ContestRoyalty.sol:ContestRoyalty",
						"label": "registeredUserIds",
						"offset": 0,
						"slot": "7",
						"type": "t_array(t_uint256)dyn_storage"
					},
					{
						"astId": 1454,
						"contract": "contracts/modules/ContestRoyalty.sol:ContestRoyalty",
						"label": "nonce",
						"offset": 0,
						"slot": "8",
						"type": "t_uint256"
					},
					{
						"astId": 1459,
						"contract": "contracts/modules/ContestRoyalty.sol:ContestRoyalty",
						"label": "communityAccPerUser",
						"offset": 0,
						"slot": "9",
						"type": "t_uint256"
					},
					{
						"astId": 1463,
						"contract": "contracts/modules/ContestRoyalty.sol:ContestRoyalty",
						"label": "communityDebt",
						"offset": 0,
						"slot": "10",
						"type": "t_mapping(t_uint256,t_uint256)"
					},
					{
						"astId": 1512,
						"contract": "contracts/modules/ContestRoyalty.sol:ContestRoyalty",
						"label": "packages",
						"offset": 0,
						"slot": "11",
						"type": "t_array(t_uint256)dyn_storage"
					},
					{
						"astId": 1607,
						"contract": "contracts/modules/ContestRoyalty.sol:ContestRoyalty",
						"label": "addressToId",
						"offset": 0,
						"slot": "12",
						"type": "t_mapping(t_address,t_uint256)"
					},
					{
						"astId": 1612,
						"contract": "contracts/modules/ContestRoyalty.sol:ContestRoyalty",
						"label": "users",
						"offset": 0,
						"slot": "13",
						"type": "t_mapping(t_uint256,t_struct(User)1556_storage)"
					},
					{
						"astId": 1617,
						"contract": "contracts/modules/ContestRoyalty.sol:ContestRoyalty",
						"label": "userIncomes",
						"offset": 0,
						"slot": "14",
						"type": "t_mapping(t_uint256,t_struct(UserIncome)1581_storage)"
					},
					{
						"astId": 1623,
						"contract": "contracts/modules/ContestRoyalty.sol:ContestRoyalty",
						"label": "incomeHistory",
						"offset": 0,
						"slot": "15",
						"type": "t_mapping(t_uint256,t_array(t_struct(Income)1592_storage)dyn_storage)"
					},
					{
						"astId": 1630,
						"contract": "contracts/modules/ContestRoyalty.sol:ContestRoyalty",
						"label": "teams",
						"offset": 0,
						"slot": "16",
						"type": "t_mapping(t_uint256,t_mapping(t_uint256,t_array(t_uint256)dyn_storage))"
					},
					{
						"astId": 1634,
						"contract": "contracts/modules/ContestRoyalty.sol:ContestRoyalty",
						"label": "matrixDirect",
						"offset": 0,
						"slot": "17",
						"type": "t_mapping(t_uint256,t_uint256)"
					},
					{
						"astId": 1639,
						"contract": "contracts/modules/ContestRoyalty.sol:ContestRoyalty",
						"label": "directReferrals",
						"offset": 0,
						"slot": "18",
						"type": "t_mapping(t_uint256,t_array(t_uint256)dyn_storage)"
					},
					{
						"astId": 1737,
						"contract": "contracts/modules/ContestRoyalty.sol:ContestRoyalty",
						"label": "poolPackages",
						"offset": 0,
						"slot": "19",
						"type": "t_array(t_uint256)dyn_storage"
					},
					{
						"astId": 1749,
						"contract": "contracts/modules/ContestRoyalty.sol:ContestRoyalty",
						"label": "glbBoosterPackages",
						"offset": 0,
						"slot": "20",
						"type": "t_array(t_uint256)dyn_storage"
					},
					{
						"astId": 1761,
						"contract": "contracts/modules/ContestRoyalty.sol:ContestRoyalty",
						"label": "minLevelForPool",
						"offset": 0,
						"slot": "21",
						"type": "t_array(t_uint256)7_storage"
					},
					{
						"astId": 1774,
						"contract": "contracts/modules/ContestRoyalty.sol:ContestRoyalty",
						"label": "minLevelForGlbBooster",
						"offset": 0,
						"slot": "28",
						"type": "t_array(t_uint256)8_storage"
					},
					{
						"astId": 1787,
						"contract": "contracts/modules/ContestRoyalty.sol:ContestRoyalty",
						"label": "minPoolForGlbBooster",
						"offset": 0,
						"slot": "36",
						"type": "t_array(t_uint256)8_storage"
					},
					{
						"astId": 1821,
						"contract": "contracts/modules/ContestRoyalty.sol:ContestRoyalty",
						"label": "userPooltopup",
						"offset": 0,
						"slot": "44",
						"type": "t_mapping(t_uint256,t_mapping(t_uint256,t_struct(UserPoolTopup)1803_storage))"
					},
					{
						"astId": 1828,
						"contract": "contracts/modules/ContestRoyalty.sol:ContestRoyalty",
						"label": "userPooldtl",
						"offset": 0,
						"slot": "45",
						"type": "t_mapping(t_uint256,t_mapping(t_uint256,t_struct(UserPool)1798_storage))"
					},
					{
						"astId": 1835,
						"contract": "contracts/modules/ContestRoyalty.sol:ContestRoyalty",
						"label": "userChildren",
						"offset": 0,
						"slot": "46",
						"type": "t_mapping(t_uint256,t_mapping(t_uint256,t_array(t_uint256)dyn_storage))"
					},
					{
						"astId": 1842,
						"contract": "contracts/modules/ContestRoyalty.sol:ContestRoyalty",
						"label": "userIdPerPool",
						"offset": 0,
						"slot": "47",
						"type": "t_mapping(t_uint256,t_mapping(t_uint256,t_array(t_uint256)dyn_storage))"
					},
					{
						"astId": 1847,
						"contract": "contracts/modules/ContestRoyalty.sol:ContestRoyalty",
						"label": "poolUsers",
						"offset": 0,
						"slot": "48",
						"type": "t_mapping(t_uint256,t_array(t_uint256)dyn_storage)"
					},
					{
						"astId": 1853,
						"contract": "contracts/modules/ContestRoyalty.sol:ContestRoyalty",
						"label": "userHasPool",
						"offset": 0,
						"slot": "49",
						"type": "t_mapping(t_uint256,t_mapping(t_uint256,t_bool))"
					},
					{
						"astId": 1860,
						"contract": "contracts/modules/ContestRoyalty.sol:ContestRoyalty",
						"label": "userBoosterdtl",
						"offset": 0,
						"slot": "50",
						"type": "t_mapping(t_uint256,t_mapping(t_uint256,t_struct(UserBooster)1814_storage))"
					},
					{
						"astId": 1867,
						"contract": "contracts/modules/ContestRoyalty.sol:ContestRoyalty",
						"label": "userBoosterChildren",
						"offset": 0,
						"slot": "51",
						"type": "t_mapping(t_uint256,t_mapping(t_uint256,t_array(t_uint256)dyn_storage))"
					},
					{
						"astId": 1872,
						"contract": "contracts/modules/ContestRoyalty.sol:ContestRoyalty",
						"label": "boosterUsers",
						"offset": 0,
						"slot": "52",
						"type": "t_mapping(t_uint256,t_array(t_uint256)dyn_storage)"
					},
					{
						"astId": 1878,
						"contract": "contracts/modules/ContestRoyalty.sol:ContestRoyalty",
						"label": "userHasbooster",
						"offset": 0,
						"slot": "53",
						"type": "t_mapping(t_uint256,t_mapping(t_uint256,t_bool))"
					},
					{
						"astId": 1887,
						"contract": "contracts/modules/ContestRoyalty.sol:ContestRoyalty",
						"label": "currentWeeklyRound",
						"offset": 0,
						"slot": "54",
						"type": "t_uint256"
					},
					{
						"astId": 1890,
						"contract": "contracts/modules/ContestRoyalty.sol:ContestRoyalty",
						"label": "currentWeeklyStartTime",
						"offset": 0,
						"slot": "55",
						"type": "t_uint256"
					},
					{
						"astId": 1893,
						"contract": "contracts/modules/ContestRoyalty.sol:ContestRoyalty",
						"label": "WeeklyTotalReward",
						"offset": 0,
						"slot": "56",
						"type": "t_uint256"
					},
					{
						"astId": 1930,
						"contract": "contracts/modules/ContestRoyalty.sol:ContestRoyalty",
						"label": "weeklyContestdtl",
						"offset": 0,
						"slot": "57",
						"type": "t_mapping(t_uint256,t_struct(WeeklyContest)1912_storage)"
					},
					{
						"astId": 1935,
						"contract": "contracts/modules/ContestRoyalty.sol:ContestRoyalty",
						"label": "weeklyQualifiedUsers",
						"offset": 0,
						"slot": "58",
						"type": "t_mapping(t_uint256,t_array(t_uint256)dyn_storage)"
					},
					{
						"astId": 1942,
						"contract": "contracts/modules/ContestRoyalty.sol:ContestRoyalty",
						"label": "weeklyUserdtl",
						"offset": 0,
						"slot": "59",
						"type": "t_mapping(t_uint256,t_mapping(t_uint256,t_struct(weeklyUser)1925_storage))"
					},
					{
						"astId": 1949,
						"contract": "contracts/modules/ContestRoyalty.sol:ContestRoyalty",
						"label": "weeklyUserDirects",
						"offset": 0,
						"slot": "60",
						"type": "t_mapping(t_uint256,t_mapping(t_uint256,t_array(t_uint256)dyn_storage))"
					},
					{
						"astId": 1992,
						"contract": "contracts/modules/ContestRoyalty.sol:ContestRoyalty",
						"label": "currentMonthlyRound",
						"offset": 0,
						"slot": "61",
						"type": "t_uint256"
					},
					{
						"astId": 1995,
						"contract": "contracts/modules/ContestRoyalty.sol:ContestRoyalty",
						"label": "currentMonthlyStartTime",
						"offset": 0,
						"slot": "62",
						"type": "t_uint256"
					},
					{
						"astId": 1998,
						"contract": "contracts/modules/ContestRoyalty.sol:ContestRoyalty",
						"label": "monthlyTotalReward",
						"offset": 0,
						"slot": "63",
						"type": "t_uint256"
					},
					{
						"astId": 2037,
						"contract": "contracts/modules/ContestRoyalty.sol:ContestRoyalty",
						"label": "monthlyRoyaltydtl",
						"offset": 0,
						"slot": "64",
						"type": "t_mapping(t_uint256,t_struct(monthlyRoyalty)2017_storage)"
					},
					{
						"astId": 2040,
						"contract": "contracts/modules/ContestRoyalty.sol:ContestRoyalty",
						"label": "monthlyQualifiedUsers",
						"offset": 0,
						"slot": "65",
						"type": "t_array(t_uint256)dyn_storage"
					},
					{
						"astId": 2045,
						"contract": "contracts/modules/ContestRoyalty.sol:ContestRoyalty",
						"label": "monthlyRoyaltyUserdtl",
						"offset": 0,
						"slot": "66",
						"type": "t_mapping(t_uint256,t_struct(monthlyRoyaltyUser)2032_storage)"
					},
					{
						"astId": 2050,
						"contract": "contracts/modules/ContestRoyalty.sol:ContestRoyalty",
						"label": "monthlyUserDirects",
						"offset": 0,
						"slot": "67",
						"type": "t_mapping(t_uint256,t_array(t_uint256)dyn_storage)"
					}
				],
				"types": {
					"t_address": {
						"encoding": "inplace",
						"label": "address",
						"numberOfBytes": "20"
					},
					"t_array(t_struct(Deposit)1521_storage)dyn_storage": {
						"base": "t_struct(Deposit)1521_storage",
						"encoding": "dynamic_array",
						"label": "struct Storage.Deposit[]",
						"numberOfBytes": "32"
					},
					"t_array(t_struct(Income)1592_storage)dyn_storage": {
						"base": "t_struct(Income)1592_storage",
						"encoding": "dynamic_array",
						"label": "struct Storage.Income[]",
						"numberOfBytes": "32"
					},
					"t_array(t_uint256)7_storage": {
						"base": "t_uint256",
						"encoding": "inplace",
						"label": "uint256[7]",
						"numberOfBytes": "224"
					},
					"t_array(t_uint256)8_storage": {
						"base": "t_uint256",
						"encoding": "inplace",
						"label": "uint256[8]",
						"numberOfBytes": "256"
					},
					"t_array(t_uint256)dyn_storage": {
						"base": "t_uint256",
						"encoding": "dynamic_array",
						"label": "uint256[]",
						"numberOfBytes": "32"
					},
					"t_bool": {
						"encoding": "inplace",
						"label": "bool",
						"numberOfBytes": "1"
					},
					"t_contract(IERC20)232": {
						"encoding": "inplace",
						"label": "contract IERC20",
						"numberOfBytes": "20"
					},
					"t_mapping(t_address,t_uint256)": {
						"encoding": "mapping",
						"key": "t_address",
						"label": "mapping(address => uint256)",
						"numberOfBytes": "32",
						"value": "t_uint256"
					},
					"t_mapping(t_uint256,t_array(t_struct(Income)1592_storage)dyn_storage)": {
						"encoding": "mapping",
						"key": "t_uint256",
						"label": "mapping(uint256 => struct Storage.Income[])",
						"numberOfBytes": "32",
						"value": "t_array(t_struct(Income)1592_storage)dyn_storage"
					},
					"t_mapping(t_uint256,t_array(t_uint256)dyn_storage)": {
						"encoding": "mapping",
						"key": "t_uint256",
						"label": "mapping(uint256 => uint256[])",
						"numberOfBytes": "32",
						"value": "t_array(t_uint256)dyn_storage"
					},
					"t_mapping(t_uint256,t_bool)": {
						"encoding": "mapping",
						"key": "t_uint256",
						"label": "mapping(uint256 => bool)",
						"numberOfBytes": "32",
						"value": "t_bool"
					},
					"t_mapping(t_uint256,t_mapping(t_uint256,t_array(t_uint256)dyn_storage))": {
						"encoding": "mapping",
						"key": "t_uint256",
						"label": "mapping(uint256 => mapping(uint256 => uint256[]))",
						"numberOfBytes": "32",
						"value": "t_mapping(t_uint256,t_array(t_uint256)dyn_storage)"
					},
					"t_mapping(t_uint256,t_mapping(t_uint256,t_bool))": {
						"encoding": "mapping",
						"key": "t_uint256",
						"label": "mapping(uint256 => mapping(uint256 => bool))",
						"numberOfBytes": "32",
						"value": "t_mapping(t_uint256,t_bool)"
					},
					"t_mapping(t_uint256,t_mapping(t_uint256,t_struct(UserBooster)1814_storage))": {
						"encoding": "mapping",
						"key": "t_uint256",
						"label": "mapping(uint256 => mapping(uint256 => struct Storage.UserBooster))",
						"numberOfBytes": "32",
						"value": "t_mapping(t_uint256,t_struct(UserBooster)1814_storage)"
					},
					"t_mapping(t_uint256,t_mapping(t_uint256,t_struct(UserPool)1798_storage))": {
						"encoding": "mapping",
						"key": "t_uint256",
						"label": "mapping(uint256 => mapping(uint256 => struct Storage.UserPool))",
						"numberOfBytes": "32",
						"value": "t_mapping(t_uint256,t_struct(UserPool)1798_storage)"
					},
					"t_mapping(t_uint256,t_mapping(t_uint256,t_struct(UserPoolTopup)1803_storage))": {
						"encoding": "mapping",
						"key": "t_uint256",
						"label": "mapping(uint256 => mapping(uint256 => struct Storage.UserPoolTopup))",
						"numberOfBytes": "32",
						"value": "t_mapping(t_uint256,t_struct(UserPoolTopup)1803_storage)"
					},
					"t_mapping(t_uint256,t_mapping(t_uint256,t_struct(weeklyUser)1925_storage))": {
						"encoding": "mapping",
						"key": "t_uint256",
						"label": "mapping(uint256 => mapping(uint256 => struct Storage.weeklyUser))",
						"numberOfBytes": "32",
						"value": "t_mapping(t_uint256,t_struct(weeklyUser)1925_storage)"
					},
					"t_mapping(t_uint256,t_struct(User)1556_storage)": {
						"encoding": "mapping",
						"key": "t_uint256",
						"label": "mapping(uint256 => struct Storage.User)",
						"numberOfBytes": "32",
						"value": "t_struct(User)1556_storage"
					},
					"t_mapping(t_uint256,t_struct(UserBooster)1814_storage)": {
						"encoding": "mapping",
						"key": "t_uint256",
						"label": "mapping(uint256 => struct Storage.UserBooster)",
						"numberOfBytes": "32",
						"value": "t_struct(UserBooster)1814_storage"
					},
					"t_mapping(t_uint256,t_struct(UserIncome)1581_storage)": {
						"encoding": "mapping",
						"key": "t_uint256",
						"label": "mapping(uint256 => struct Storage.UserIncome)",
						"numberOfBytes": "32",
						"value": "t_struct(UserIncome)1581_storage"
					},
					"t_mapping(t_uint256,t_struct(UserPool)1798_storage)": {
						"encoding": "mapping",
						"key": "t_uint256",
						"label": "mapping(uint256 => struct Storage.UserPool)",
						"numberOfBytes": "32",
						"value": "t_struct(UserPool)1798_storage"
					},
					"t_mapping(t_uint256,t_struct(UserPoolTopup)1803_storage)": {
						"encoding": "mapping",
						"key": "t_uint256",
						"label": "mapping(uint256 => struct Storage.UserPoolTopup)",
						"numberOfBytes": "32",
						"value": "t_struct(UserPoolTopup)1803_storage"
					},
					"t_mapping(t_uint256,t_struct(WeeklyContest)1912_storage)": {
						"encoding": "mapping",
						"key": "t_uint256",
						"label": "mapping(uint256 => struct Storage.WeeklyContest)",
						"numberOfBytes": "32",
						"value": "t_struct(WeeklyContest)1912_storage"
					},
					"t_mapping(t_uint256,t_struct(monthlyRoyalty)2017_storage)": {
						"encoding": "mapping",
						"key": "t_uint256",
						"label": "mapping(uint256 => struct Storage.monthlyRoyalty)",
						"numberOfBytes": "32",
						"value": "t_struct(monthlyRoyalty)2017_storage"
					},
					"t_mapping(t_uint256,t_struct(monthlyRoyaltyUser)2032_storage)": {
						"encoding": "mapping",
						"key": "t_uint256",
						"label": "mapping(uint256 => struct Storage.monthlyRoyaltyUser)",
						"numberOfBytes": "32",
						"value": "t_struct(monthlyRoyaltyUser)2032_storage"
					},
					"t_mapping(t_uint256,t_struct(weeklyUser)1925_storage)": {
						"encoding": "mapping",
						"key": "t_uint256",
						"label": "mapping(uint256 => struct Storage.weeklyUser)",
						"numberOfBytes": "32",
						"value": "t_struct(weeklyUser)1925_storage"
					},
					"t_mapping(t_uint256,t_uint256)": {
						"encoding": "mapping",
						"key": "t_uint256",
						"label": "mapping(uint256 => uint256)",
						"numberOfBytes": "32",
						"value": "t_uint256"
					},
					"t_struct(Deposit)1521_storage": {
						"encoding": "inplace",
						"label": "struct Storage.Deposit",
						"members": [
							{
								"astId": 1514,
								"contract": "contracts/modules/ContestRoyalty.sol:ContestRoyalty",
								"label": "amount",
								"offset": 0,
								"slot": "0",
								"type": "t_uint256"
							},
							{
								"astId": 1516,
								"contract": "contracts/modules/ContestRoyalty.sol:ContestRoyalty",
								"label": "withdrawn",
								"offset": 0,
								"slot": "1",
								"type": "t_uint256"
							},
							{
								"astId": 1518,
								"contract": "contracts/modules/ContestRoyalty.sol:ContestRoyalty",
								"label": "start",
								"offset": 0,
								"slot": "2",
								"type": "t_uint256"
							},
							{
								"astId": 1520,
								"contract": "contracts/modules/ContestRoyalty.sol:ContestRoyalty",
								"label": "depositType",
								"offset": 0,
								"slot": "3",
								"type": "t_uint8"
							}
						],
						"numberOfBytes": "128"
					},
					"t_struct(Income)1592_storage": {
						"encoding": "inplace",
						"label": "struct Storage.Income",
						"members": [
							{
								"astId": 1583,
								"contract": "contracts/modules/ContestRoyalty.sol:ContestRoyalty",
								"label": "fromUserId",
								"offset": 0,
								"slot": "0",
								"type": "t_uint256"
							},
							{
								"astId": 1585,
								"contract": "contracts/modules/ContestRoyalty.sol:ContestRoyalty",
								"label": "amount",
								"offset": 0,
								"slot": "1",
								"type": "t_uint256"
							},
							{
								"astId": 1587,
								"contract": "contracts/modules/ContestRoyalty.sol:ContestRoyalty",
								"label": "packageLevel",
								"offset": 0,
								"slot": "2",
								"type": "t_uint256"
							},
							{
								"astId": 1589,
								"contract": "contracts/modules/ContestRoyalty.sol:ContestRoyalty",
								"label": "timestamp",
								"offset": 0,
								"slot": "3",
								"type": "t_uint256"
							},
							{
								"astId": 1591,
								"contract": "contracts/modules/ContestRoyalty.sol:ContestRoyalty",
								"label": "incomeType",
								"offset": 0,
								"slot": "4",
								"type": "t_uint256"
							}
						],
						"numberOfBytes": "160"
					},
					"t_struct(User)1556_storage": {
						"encoding": "inplace",
						"label": "struct Storage.User",
						"members": [
							{
								"astId": 1523,
								"contract": "contracts/modules/ContestRoyalty.sol:ContestRoyalty",
								"label": "account",
								"offset": 0,
								"slot": "0",
								"type": "t_address"
							},
							{
								"astId": 1527,
								"contract": "contracts/modules/ContestRoyalty.sol:ContestRoyalty",
								"label": "deposits",
								"offset": 0,
								"slot": "1",
								"type": "t_array(t_struct(Deposit)1521_storage)dyn_storage"
							},
							{
								"astId": 1529,
								"contract": "contracts/modules/ContestRoyalty.sol:ContestRoyalty",
								"label": "checkpoint",
								"offset": 0,
								"slot": "2",
								"type": "t_uint256"
							},
							{
								"astId": 1531,
								"contract": "contracts/modules/ContestRoyalty.sol:ContestRoyalty",
								"label": "id",
								"offset": 0,
								"slot": "3",
								"type": "t_uint256"
							},
							{
								"astId": 1533,
								"contract": "contracts/modules/ContestRoyalty.sol:ContestRoyalty",
								"label": "sponsorId",
								"offset": 0,
								"slot": "4",
								"type": "t_uint256"
							},
							{
								"astId": 1535,
								"contract": "contracts/modules/ContestRoyalty.sol:ContestRoyalty",
								"label": "uplineId",
								"offset": 0,
								"slot": "5",
								"type": "t_uint256"
							},
							{
								"astId": 1537,
								"contract": "contracts/modules/ContestRoyalty.sol:ContestRoyalty",
								"label": "level",
								"offset": 0,
								"slot": "6",
								"type": "t_uint256"
							},
							{
								"astId": 1539,
								"contract": "contracts/modules/ContestRoyalty.sol:ContestRoyalty",
								"label": "directTeam",
								"offset": 0,
								"slot": "7",
								"type": "t_uint256"
							},
							{
								"astId": 1541,
								"contract": "contracts/modules/ContestRoyalty.sol:ContestRoyalty",
								"label": "directPoolQualified",
								"offset": 0,
								"slot": "8",
								"type": "t_uint256"
							},
							{
								"astId": 1543,
								"contract": "contracts/modules/ContestRoyalty.sol:ContestRoyalty",
								"label": "totalMatrixTeam",
								"offset": 0,
								"slot": "9",
								"type": "t_uint256"
							},
							{
								"astId": 1545,
								"contract": "contracts/modules/ContestRoyalty.sol:ContestRoyalty",
								"label": "totalDeposit",
								"offset": 0,
								"slot": "10",
								"type": "t_uint256"
							},
							{
								"astId": 1547,
								"contract": "contracts/modules/ContestRoyalty.sol:ContestRoyalty",
								"label": "poollevel",
								"offset": 0,
								"slot": "11",
								"type": "t_uint256"
							},
							{
								"astId": 1549,
								"contract": "contracts/modules/ContestRoyalty.sol:ContestRoyalty",
								"label": "poolDeposit",
								"offset": 0,
								"slot": "12",
								"type": "t_uint256"
							},
							{
								"astId": 1551,
								"contract": "contracts/modules/ContestRoyalty.sol:ContestRoyalty",
								"label": "boosterlevel",
								"offset": 0,
								"slot": "13",
								"type": "t_uint256"
							},
							{
								"astId": 1553,
								"contract": "contracts/modules/ContestRoyalty.sol:ContestRoyalty",
								"label": "boosterDeposit",
								"offset": 0,
								"slot": "14",
								"type": "t_uint256"
							},
							{
								"astId": 1555,
								"contract": "contracts/modules/ContestRoyalty.sol:ContestRoyalty",
								"label": "registrationTime",
								"offset": 0,
								"slot": "15",
								"type": "t_uint256"
							}
						],
						"numberOfBytes": "512"
					},
					"t_struct(UserBooster)1814_storage": {
						"encoding": "inplace",
						"label": "struct Storage.UserBooster",
						"members": [
							{
								"astId": 1805,
								"contract": "contracts/modules/ContestRoyalty.sol:ContestRoyalty",
								"label": "id",
								"offset": 0,
								"slot": "0",
								"type": "t_uint256"
							},
							{
								"astId": 1807,
								"contract": "contracts/modules/ContestRoyalty.sol:ContestRoyalty",
								"label": "poolId",
								"offset": 0,
								"slot": "1",
								"type": "t_uint256"
							},
							{
								"astId": 1809,
								"contract": "contracts/modules/ContestRoyalty.sol:ContestRoyalty",
								"label": "parentId",
								"offset": 0,
								"slot": "2",
								"type": "t_uint256"
							},
							{
								"astId": 1811,
								"contract": "contracts/modules/ContestRoyalty.sol:ContestRoyalty",
								"label": "bonusCount",
								"offset": 0,
								"slot": "3",
								"type": "t_uint256"
							},
							{
								"astId": 1813,
								"contract": "contracts/modules/ContestRoyalty.sol:ContestRoyalty",
								"label": "joinTime",
								"offset": 0,
								"slot": "4",
								"type": "t_uint256"
							}
						],
						"numberOfBytes": "160"
					},
					"t_struct(UserIncome)1581_storage": {
						"encoding": "inplace",
						"label": "struct Storage.UserIncome",
						"members": [
							{
								"astId": 1558,
								"contract": "contracts/modules/ContestRoyalty.sol:ContestRoyalty",
								"label": "totalIncome",
								"offset": 0,
								"slot": "0",
								"type": "t_uint256"
							},
							{
								"astId": 1560,
								"contract": "contracts/modules/ContestRoyalty.sol:ContestRoyalty",
								"label": "sponsorIncome",
								"offset": 0,
								"slot": "1",
								"type": "t_uint256"
							},
							{
								"astId": 1562,
								"contract": "contracts/modules/ContestRoyalty.sol:ContestRoyalty",
								"label": "matrixIncome",
								"offset": 0,
								"slot": "2",
								"type": "t_uint256"
							},
							{
								"astId": 1564,
								"contract": "contracts/modules/ContestRoyalty.sol:ContestRoyalty",
								"label": "levelBoosterIncome",
								"offset": 0,
								"slot": "3",
								"type": "t_uint256"
							},
							{
								"astId": 1566,
								"contract": "contracts/modules/ContestRoyalty.sol:ContestRoyalty",
								"label": "royaltyIncome",
								"offset": 0,
								"slot": "4",
								"type": "t_uint256"
							},
							{
								"astId": 1568,
								"contract": "contracts/modules/ContestRoyalty.sol:ContestRoyalty",
								"label": "royaltyIncomeClaimed",
								"offset": 0,
								"slot": "5",
								"type": "t_uint256"
							},
							{
								"astId": 1570,
								"contract": "contracts/modules/ContestRoyalty.sol:ContestRoyalty",
								"label": "communityIncome",
								"offset": 0,
								"slot": "6",
								"type": "t_uint256"
							},
							{
								"astId": 1572,
								"contract": "contracts/modules/ContestRoyalty.sol:ContestRoyalty",
								"label": "poolIncome",
								"offset": 0,
								"slot": "7",
								"type": "t_uint256"
							},
							{
								"astId": 1574,
								"contract": "contracts/modules/ContestRoyalty.sol:ContestRoyalty",
								"label": "boosterIncome",
								"offset": 0,
								"slot": "8",
								"type": "t_uint256"
							},
							{
								"astId": 1576,
								"contract": "contracts/modules/ContestRoyalty.sol:ContestRoyalty",
								"label": "weeklyContestIncome",
								"offset": 0,
								"slot": "9",
								"type": "t_uint256"
							},
							{
								"astId": 1578,
								"contract": "contracts/modules/ContestRoyalty.sol:ContestRoyalty",
								"label": "monthlyRoyalty",
								"offset": 0,
								"slot": "10",
								"type": "t_uint256"
							},
							{
								"astId": 1580,
								"contract": "contracts/modules/ContestRoyalty.sol:ContestRoyalty",
								"label": "monthlyTopRoyalty",
								"offset": 0,
								"slot": "11",
								"type": "t_uint256"
							}
						],
						"numberOfBytes": "384"
					},
					"t_struct(UserPool)1798_storage": {
						"encoding": "inplace",
						"label": "struct Storage.UserPool",
						"members": [
							{
								"astId": 1789,
								"contract": "contracts/modules/ContestRoyalty.sol:ContestRoyalty",
								"label": "id",
								"offset": 0,
								"slot": "0",
								"type": "t_uint256"
							},
							{
								"astId": 1791,
								"contract": "contracts/modules/ContestRoyalty.sol:ContestRoyalty",
								"label": "mainid",
								"offset": 0,
								"slot": "1",
								"type": "t_uint256"
							},
							{
								"astId": 1793,
								"contract": "contracts/modules/ContestRoyalty.sol:ContestRoyalty",
								"label": "poolId",
								"offset": 0,
								"slot": "2",
								"type": "t_uint256"
							},
							{
								"astId": 1795,
								"contract": "contracts/modules/ContestRoyalty.sol:ContestRoyalty",
								"label": "parentId",
								"offset": 0,
								"slot": "3",
								"type": "t_uint256"
							},
							{
								"astId": 1797,
								"contract": "contracts/modules/ContestRoyalty.sol:ContestRoyalty",
								"label": "bonusCount",
								"offset": 0,
								"slot": "4",
								"type": "t_uint256"
							}
						],
						"numberOfBytes": "160"
					},
					"t_struct(UserPoolTopup)1803_storage": {
						"encoding": "inplace",
						"label": "struct Storage.UserPoolTopup",
						"members": [
							{
								"astId": 1800,
								"contract": "contracts/modules/ContestRoyalty.sol:ContestRoyalty",
								"label": "nextPoolAmt",
								"offset": 0,
								"slot": "0",
								"type": "t_uint256"
							},
							{
								"astId": 1802,
								"contract": "contracts/modules/ContestRoyalty.sol:ContestRoyalty",
								"label": "reTopupAmt",
								"offset": 0,
								"slot": "1",
								"type": "t_uint256"
							}
						],
						"numberOfBytes": "64"
					},
					"t_struct(WeeklyContest)1912_storage": {
						"encoding": "inplace",
						"label": "struct Storage.WeeklyContest",
						"members": [
							{
								"astId": 1895,
								"contract": "contracts/modules/ContestRoyalty.sol:ContestRoyalty",
								"label": "roundId",
								"offset": 0,
								"slot": "0",
								"type": "t_uint256"
							},
							{
								"astId": 1897,
								"contract": "contracts/modules/ContestRoyalty.sol:ContestRoyalty",
								"label": "totalReward",
								"offset": 0,
								"slot": "1",
								"type": "t_uint256"
							},
							{
								"astId": 1899,
								"contract": "contracts/modules/ContestRoyalty.sol:ContestRoyalty",
								"label": "totalUsers",
								"offset": 0,
								"slot": "2",
								"type": "t_uint256"
							},
							{
								"astId": 1901,
								"contract": "contracts/modules/ContestRoyalty.sol:ContestRoyalty",
								"label": "perUserReward",
								"offset": 0,
								"slot": "3",
								"type": "t_uint256"
							},
							{
								"astId": 1903,
								"contract": "contracts/modules/ContestRoyalty.sol:ContestRoyalty",
								"label": "claimedCount",
								"offset": 0,
								"slot": "4",
								"type": "t_uint256"
							},
							{
								"astId": 1905,
								"contract": "contracts/modules/ContestRoyalty.sol:ContestRoyalty",
								"label": "startTime",
								"offset": 0,
								"slot": "5",
								"type": "t_uint256"
							},
							{
								"astId": 1907,
								"contract": "contracts/modules/ContestRoyalty.sol:ContestRoyalty",
								"label": "endTime",
								"offset": 0,
								"slot": "6",
								"type": "t_uint256"
							},
							{
								"astId": 1909,
								"contract": "contracts/modules/ContestRoyalty.sol:ContestRoyalty",
								"label": "carryForward",
								"offset": 0,
								"slot": "7",
								"type": "t_uint256"
							},
							{
								"astId": 1911,
								"contract": "contracts/modules/ContestRoyalty.sol:ContestRoyalty",
								"label": "closed",
								"offset": 0,
								"slot": "8",
								"type": "t_bool"
							}
						],
						"numberOfBytes": "288"
					},
					"t_struct(monthlyRoyalty)2017_storage": {
						"encoding": "inplace",
						"label": "struct Storage.monthlyRoyalty",
						"members": [
							{
								"astId": 2000,
								"contract": "contracts/modules/ContestRoyalty.sol:ContestRoyalty",
								"label": "roundId",
								"offset": 0,
								"slot": "0",
								"type": "t_uint256"
							},
							{
								"astId": 2002,
								"contract": "contracts/modules/ContestRoyalty.sol:ContestRoyalty",
								"label": "totalReward",
								"offset": 0,
								"slot": "1",
								"type": "t_uint256"
							},
							{
								"astId": 2004,
								"contract": "contracts/modules/ContestRoyalty.sol:ContestRoyalty",
								"label": "totalUsers",
								"offset": 0,
								"slot": "2",
								"type": "t_uint256"
							},
							{
								"astId": 2006,
								"contract": "contracts/modules/ContestRoyalty.sol:ContestRoyalty",
								"label": "perUserReward",
								"offset": 0,
								"slot": "3",
								"type": "t_uint256"
							},
							{
								"astId": 2008,
								"contract": "contracts/modules/ContestRoyalty.sol:ContestRoyalty",
								"label": "claimedCount",
								"offset": 0,
								"slot": "4",
								"type": "t_uint256"
							},
							{
								"astId": 2010,
								"contract": "contracts/modules/ContestRoyalty.sol:ContestRoyalty",
								"label": "startTime",
								"offset": 0,
								"slot": "5",
								"type": "t_uint256"
							},
							{
								"astId": 2012,
								"contract": "contracts/modules/ContestRoyalty.sol:ContestRoyalty",
								"label": "endTime",
								"offset": 0,
								"slot": "6",
								"type": "t_uint256"
							},
							{
								"astId": 2014,
								"contract": "contracts/modules/ContestRoyalty.sol:ContestRoyalty",
								"label": "carryForward",
								"offset": 0,
								"slot": "7",
								"type": "t_uint256"
							},
							{
								"astId": 2016,
								"contract": "contracts/modules/ContestRoyalty.sol:ContestRoyalty",
								"label": "closed",
								"offset": 0,
								"slot": "8",
								"type": "t_bool"
							}
						],
						"numberOfBytes": "288"
					},
					"t_struct(monthlyRoyaltyUser)2032_storage": {
						"encoding": "inplace",
						"label": "struct Storage.monthlyRoyaltyUser",
						"members": [
							{
								"astId": 2019,
								"contract": "contracts/modules/ContestRoyalty.sol:ContestRoyalty",
								"label": "id",
								"offset": 0,
								"slot": "0",
								"type": "t_uint256"
							},
							{
								"astId": 2021,
								"contract": "contracts/modules/ContestRoyalty.sol:ContestRoyalty",
								"label": "joinTime",
								"offset": 0,
								"slot": "1",
								"type": "t_uint256"
							},
							{
								"astId": 2023,
								"contract": "contracts/modules/ContestRoyalty.sol:ContestRoyalty",
								"label": "qualifiedRoundId",
								"offset": 0,
								"slot": "2",
								"type": "t_uint256"
							},
							{
								"astId": 2025,
								"contract": "contracts/modules/ContestRoyalty.sol:ContestRoyalty",
								"label": "claimTime",
								"offset": 0,
								"slot": "3",
								"type": "t_uint256"
							},
							{
								"astId": 2029,
								"contract": "contracts/modules/ContestRoyalty.sol:ContestRoyalty",
								"label": "isClaimed",
								"offset": 0,
								"slot": "4",
								"type": "t_mapping(t_uint256,t_bool)"
							},
							{
								"astId": 2031,
								"contract": "contracts/modules/ContestRoyalty.sol:ContestRoyalty",
								"label": "isQualified",
								"offset": 0,
								"slot": "5",
								"type": "t_bool"
							}
						],
						"numberOfBytes": "192"
					},
					"t_struct(weeklyUser)1925_storage": {
						"encoding": "inplace",
						"label": "struct Storage.weeklyUser",
						"members": [
							{
								"astId": 1914,
								"contract": "contracts/modules/ContestRoyalty.sol:ContestRoyalty",
								"label": "id",
								"offset": 0,
								"slot": "0",
								"type": "t_uint256"
							},
							{
								"astId": 1916,
								"contract": "contracts/modules/ContestRoyalty.sol:ContestRoyalty",
								"label": "joinTime",
								"offset": 0,
								"slot": "1",
								"type": "t_uint256"
							},
							{
								"astId": 1918,
								"contract": "contracts/modules/ContestRoyalty.sol:ContestRoyalty",
								"label": "roundId",
								"offset": 0,
								"slot": "2",
								"type": "t_uint256"
							},
							{
								"astId": 1920,
								"contract": "contracts/modules/ContestRoyalty.sol:ContestRoyalty",
								"label": "claimTime",
								"offset": 0,
								"slot": "3",
								"type": "t_uint256"
							},
							{
								"astId": 1922,
								"contract": "contracts/modules/ContestRoyalty.sol:ContestRoyalty",
								"label": "isClaimed",
								"offset": 0,
								"slot": "4",
								"type": "t_bool"
							},
							{
								"astId": 1924,
								"contract": "contracts/modules/ContestRoyalty.sol:ContestRoyalty",
								"label": "isQualified",
								"offset": 1,
								"slot": "4",
								"type": "t_bool"
							}
						],
						"numberOfBytes": "160"
					},
					"t_uint256": {
						"encoding": "inplace",
						"label": "uint256",
						"numberOfBytes": "32"
					},
					"t_uint8": {
						"encoding": "inplace",
						"label": "uint8",
						"numberOfBytes": "1"
					}
				}
			},
			"userdoc": {
				"kind": "user",
				"methods": {},
				"version": 1
			}
		}
	}
}