{
	"contracts/modules/ContestRoyalty.sol": {
		"ContestRoyalty": {
			"abi": [
				{
					"inputs": [],
					"stateMutability": "nonpayable",
					"type": "constructor"
				},
				{
					"anonymous": false,
					"inputs": [
						{
							"indexed": true,
							"internalType": "address",
							"name": "previousOwner",
							"type": "address"
						},
						{
							"indexed": true,
							"internalType": "address",
							"name": "newOwner",
							"type": "address"
						}
					],
					"name": "OwnershipTransferred",
					"type": "event"
				},
				{
					"anonymous": false,
					"inputs": [
						{
							"indexed": true,
							"internalType": "address",
							"name": "user",
							"type": "address"
						},
						{
							"indexed": false,
							"internalType": "string",
							"name": "period",
							"type": "string"
						},
						{
							"indexed": false,
							"internalType": "uint256",
							"name": "roundId",
							"type": "uint256"
						},
						{
							"indexed": false,
							"internalType": "uint256",
							"name": "amount",
							"type": "uint256"
						}
					],
					"name": "RewardClaimed",
					"type": "event"
				},
				{
					"anonymous": false,
					"inputs": [
						{
							"indexed": false,
							"internalType": "string",
							"name": "period",
							"type": "string"
						},
						{
							"indexed": false,
							"internalType": "uint256",
							"name": "roundId",
							"type": "uint256"
						},
						{
							"indexed": false,
							"internalType": "uint256",
							"name": "users",
							"type": "uint256"
						},
						{
							"indexed": false,
							"internalType": "uint256",
							"name": "perUser",
							"type": "uint256"
						}
					],
					"name": "RoundEnded",
					"type": "event"
				},
				{
					"anonymous": false,
					"inputs": [
						{
							"indexed": true,
							"internalType": "address",
							"name": "user",
							"type": "address"
						},
						{
							"indexed": false,
							"internalType": "string",
							"name": "period",
							"type": "string"
						},
						{
							"indexed": false,
							"internalType": "uint256",
							"name": "roundId",
							"type": "uint256"
						}
					],
					"name": "UserQualified",
					"type": "event"
				},
				{
					"inputs": [],
					"name": "MONTH_DURATION",
					"outputs": [
						{
							"internalType": "uint256",
							"name": "",
							"type": "uint256"
						}
					],
					"stateMutability": "view",
					"type": "function"
				},
				{
					"inputs": [],
					"name": "WEEK_DURATION",
					"outputs": [
						{
							"internalType": "uint256",
							"name": "",
							"type": "uint256"
						}
					],
					"stateMutability": "view",
					"type": "function"
				},
				{
					"inputs": [
						{
							"internalType": "uint256",
							"name": "roundId",
							"type": "uint256"
						}
					],
					"name": "claimMonthlyReward",
					"outputs": [],
					"stateMutability": "nonpayable",
					"type": "function"
				},
				{
					"inputs": [
						{
							"internalType": "uint256",
							"name": "roundId",
							"type": "uint256"
						}
					],
					"name": "claimWeeklyReward",
					"outputs": [],
					"stateMutability": "nonpayable",
					"type": "function"
				},
				{
					"inputs": [],
					"name": "currentMonthlyRound",
					"outputs": [
						{
							"internalType": "uint256",
							"name": "",
							"type": "uint256"
						}
					],
					"stateMutability": "view",
					"type": "function"
				},
				{
					"inputs": [],
					"name": "currentWeeklyRound",
					"outputs": [
						{
							"internalType": "uint256",
							"name": "",
							"type": "uint256"
						}
					],
					"stateMutability": "view",
					"type": "function"
				},
				{
					"inputs": [
						{
							"internalType": "address",
							"name": "user",
							"type": "address"
						},
						{
							"internalType": "uint256",
							"name": "roundId",
							"type": "uint256"
						},
						{
							"internalType": "bool",
							"name": "isWeekly",
							"type": "bool"
						}
					],
					"name": "getUserRoundStatus",
					"outputs": [
						{
							"internalType": "bool",
							"name": "qualified",
							"type": "bool"
						},
						{
							"internalType": "bool",
							"name": "claimed",
							"type": "bool"
						},
						{
							"internalType": "uint256",
							"name": "rewardAmount",
							"type": "uint256"
						},
						{
							"internalType": "bool",
							"name": "roundClosed",
							"type": "bool"
						}
					],
					"stateMutability": "view",
					"type": "function"
				},
				{
					"inputs": [
						{
							"internalType": "uint256",
							"name": "",
							"type": "uint256"
						},
						{
							"internalType": "address",
							"name": "",
							"type": "address"
						}
					],
					"name": "hasClaimedMonthly",
					"outputs": [
						{
							"internalType": "bool",
							"name": "",
							"type": "bool"
						}
					],
					"stateMutability": "view",
					"type": "function"
				},
				{
					"inputs": [
						{
							"internalType": "uint256",
							"name": "",
							"type": "uint256"
						},
						{
							"internalType": "address",
							"name": "",
							"type": "address"
						}
					],
					"name": "hasClaimedWeekly",
					"outputs": [
						{
							"internalType": "bool",
							"name": "",
							"type": "bool"
						}
					],
					"stateMutability": "view",
					"type": "function"
				},
				{
					"inputs": [
						{
							"internalType": "uint256",
							"name": "",
							"type": "uint256"
						},
						{
							"internalType": "address",
							"name": "",
							"type": "address"
						}
					],
					"name": "isMonthlyQualified",
					"outputs": [
						{
							"internalType": "bool",
							"name": "",
							"type": "bool"
						}
					],
					"stateMutability": "view",
					"type": "function"
				},
				{
					"inputs": [
						{
							"internalType": "uint256",
							"name": "",
							"type": "uint256"
						},
						{
							"internalType": "address",
							"name": "",
							"type": "address"
						}
					],
					"name": "isWeeklyQualified",
					"outputs": [
						{
							"internalType": "bool",
							"name": "",
							"type": "bool"
						}
					],
					"stateMutability": "view",
					"type": "function"
				},
				{
					"inputs": [],
					"name": "lastMonthlyReset",
					"outputs": [
						{
							"internalType": "uint256",
							"name": "",
							"type": "uint256"
						}
					],
					"stateMutability": "view",
					"type": "function"
				},
				{
					"inputs": [],
					"name": "lastWeeklyReset",
					"outputs": [
						{
							"internalType": "uint256",
							"name": "",
							"type": "uint256"
						}
					],
					"stateMutability": "view",
					"type": "function"
				},
				{
					"inputs": [
						{
							"internalType": "uint256",
							"name": "",
							"type": "uint256"
						}
					],
					"name": "monthlyRounds",
					"outputs": [
						{
							"internalType": "uint256",
							"name": "id",
							"type": "uint256"
						},
						{
							"internalType": "uint256",
							"name": "totalUsers",
							"type": "uint256"
						},
						{
							"internalType": "uint256",
							"name": "totalReward",
							"type": "uint256"
						},
						{
							"internalType": "uint256",
							"name": "perUserReward",
							"type": "uint256"
						},
						{
							"internalType": "uint256",
							"name": "startTime",
							"type": "uint256"
						},
						{
							"internalType": "uint256",
							"name": "endTime",
							"type": "uint256"
						},
						{
							"internalType": "bool",
							"name": "closed",
							"type": "bool"
						}
					],
					"stateMutability": "view",
					"type": "function"
				},
				{
					"inputs": [],
					"name": "owner",
					"outputs": [
						{
							"internalType": "address",
							"name": "",
							"type": "address"
						}
					],
					"stateMutability": "view",
					"type": "function"
				},
				{
					"inputs": [
						{
							"internalType": "uint256",
							"name": "",
							"type": "uint256"
						}
					],
					"name": "qualifiedMonthly",
					"outputs": [
						{
							"internalType": "address",
							"name": "",
							"type": "address"
						}
					],
					"stateMutability": "view",
					"type": "function"
				},
				{
					"inputs": [
						{
							"internalType": "uint256",
							"name": "",
							"type": "uint256"
						}
					],
					"name": "qualifiedWeekly",
					"outputs": [
						{
							"internalType": "address",
							"name": "",
							"type": "address"
						}
					],
					"stateMutability": "view",
					"type": "function"
				},
				{
					"inputs": [],
					"name": "qualifyMonthly",
					"outputs": [],
					"stateMutability": "payable",
					"type": "function"
				},
				{
					"inputs": [],
					"name": "qualifyWeekly",
					"outputs": [],
					"stateMutability": "payable",
					"type": "function"
				},
				{
					"inputs": [
						{
							"internalType": "address",
							"name": "newOwner",
							"type": "address"
						}
					],
					"name": "transferOwnership",
					"outputs": [],
					"stateMutability": "nonpayable",
					"type": "function"
				},
				{
					"inputs": [
						{
							"internalType": "uint256",
							"name": "",
							"type": "uint256"
						}
					],
					"name": "weeklyRounds",
					"outputs": [
						{
							"internalType": "uint256",
							"name": "id",
							"type": "uint256"
						},
						{
							"internalType": "uint256",
							"name": "totalUsers",
							"type": "uint256"
						},
						{
							"internalType": "uint256",
							"name": "totalReward",
							"type": "uint256"
						},
						{
							"internalType": "uint256",
							"name": "perUserReward",
							"type": "uint256"
						},
						{
							"internalType": "uint256",
							"name": "startTime",
							"type": "uint256"
						},
						{
							"internalType": "uint256",
							"name": "endTime",
							"type": "uint256"
						},
						{
							"internalType": "bool",
							"name": "closed",
							"type": "bool"
						}
					],
					"stateMutability": "view",
					"type": "function"
				}
			],
			"devdoc": {
				"kind": "dev",
				"methods": {},
				"version": 1
			},
			"evm": {
				"assembly": "    /* \"contracts/modules/ContestRoyalty.sol\":94:6396  contract ContestRoyalty is Ownable {... */\n  mstore(0x40, 0x80)\n    /* \"contracts/modules/ContestRoyalty.sol\":275:276  1 */\n  0x01\n    /* \"contracts/modules/ContestRoyalty.sol\":242:276  uint public currentWeeklyRound = 1 */\n  dup1\n  sstore\n    /* \"contracts/modules/ContestRoyalty.sol\":317:318  1 */\n  0x01\n    /* \"contracts/modules/ContestRoyalty.sol\":283:318  uint public currentMonthlyRound = 1 */\n  0x02\n  sstore\n    /* \"contracts/modules/ContestRoyalty.sol\":1382:1637  constructor() {... */\n  callvalue\n  dup1\n  iszero\n  tag_1\n  jumpi\n  0x00\n  dup1\n  revert\ntag_1:\n  pop\n    /* \"contracts/core/Ownable.sol\":239:249  msg.sender */\n  caller\n    /* \"contracts/core/Ownable.sol\":231:236  owner */\n  0x00\n  dup1\n    /* \"contracts/core/Ownable.sol\":231:249  owner = msg.sender */\n  0x0100\n  exp\n  dup2\n  sload\n  dup2\n  0xffffffffffffffffffffffffffffffffffffffff\n  mul\n  not\n  and\n  swap1\n  dup4\n  0xffffffffffffffffffffffffffffffffffffffff\n  and\n  mul\n  or\n  swap1\n  sstore\n  pop\n    /* \"contracts/core/Ownable.sol\":298:303  owner */\n  0x00\n  dup1\n  sload\n  swap1\n  0x0100\n  exp\n  swap1\n  div\n  0xffffffffffffffffffffffffffffffffffffffff\n  and\n    /* \"contracts/core/Ownable.sol\":265:304  OwnershipTransferred(address(0), owner) */\n  0xffffffffffffffffffffffffffffffffffffffff\n  and\n    /* \"contracts/core/Ownable.sol\":294:295  0 */\n  0x00\n    /* \"contracts/core/Ownable.sol\":265:304  OwnershipTransferred(address(0), owner) */\n  0xffffffffffffffffffffffffffffffffffffffff\n  and\n  0x8be0079c531659141344cd1fd0a4f28419497f9722a3daafe3b4186f6b6457e0\n  mload(0x40)\n  mload(0x40)\n  dup1\n  swap2\n  sub\n  swap1\n  log3\n    /* \"contracts/modules/ContestRoyalty.sol\":1425:1440  block.timestamp */\n  timestamp\n    /* \"contracts/modules/ContestRoyalty.sol\":1407:1422  lastWeeklyReset */\n  0x03\n    /* \"contracts/modules/ContestRoyalty.sol\":1407:1440  lastWeeklyReset = block.timestamp */\n  dup2\n  swap1\n  sstore\n  pop\n    /* \"contracts/modules/ContestRoyalty.sol\":1470:1485  block.timestamp */\n  timestamp\n    /* \"contracts/modules/ContestRoyalty.sol\":1451:1467  lastMonthlyReset */\n  0x04\n    /* \"contracts/modules/ContestRoyalty.sol\":1451:1485  lastMonthlyReset = block.timestamp */\n  dup2\n  swap1\n  sstore\n  pop\n    /* \"contracts/modules/ContestRoyalty.sol\":1541:1556  block.timestamp */\n  timestamp\n    /* \"contracts/modules/ContestRoyalty.sol\":1496:1508  weeklyRounds */\n  0x07\n    /* \"contracts/modules/ContestRoyalty.sol\":1496:1528  weeklyRounds[currentWeeklyRound] */\n  0x00\n    /* \"contracts/modules/ContestRoyalty.sol\":1509:1527  currentWeeklyRound */\n  sload(0x01)\n    /* \"contracts/modules/ContestRoyalty.sol\":1496:1528  weeklyRounds[currentWeeklyRound] */\n  dup2\n  mstore\n  0x20\n  add\n  swap1\n  dup2\n  mstore\n  0x20\n  add\n  0x00\n  keccak256\n    /* \"contracts/modules/ContestRoyalty.sol\":1496:1538  weeklyRounds[currentWeeklyRound].startTime */\n  0x04\n  add\n    /* \"contracts/modules/ContestRoyalty.sol\":1496:1556  weeklyRounds[currentWeeklyRound].startTime = block.timestamp */\n  dup2\n  swap1\n  sstore\n  pop\n    /* \"contracts/modules/ContestRoyalty.sol\":1614:1629  block.timestamp */\n  timestamp\n    /* \"contracts/modules/ContestRoyalty.sol\":1567:1580  monthlyRounds */\n  0x08\n    /* \"contracts/modules/ContestRoyalty.sol\":1567:1601  monthlyRounds[currentMonthlyRound] */\n  0x00\n    /* \"contracts/modules/ContestRoyalty.sol\":1581:1600  currentMonthlyRound */\n  sload(0x02)\n    /* \"contracts/modules/ContestRoyalty.sol\":1567:1601  monthlyRounds[currentMonthlyRound] */\n  dup2\n  mstore\n  0x20\n  add\n  swap1\n  dup2\n  mstore\n  0x20\n  add\n  0x00\n  keccak256\n    /* \"contracts/modules/ContestRoyalty.sol\":1567:1611  monthlyRounds[currentMonthlyRound].startTime */\n  0x04\n  add\n    /* \"contracts/modules/ContestRoyalty.sol\":1567:1629  monthlyRounds[currentMonthlyRound].startTime = block.timestamp */\n  dup2\n  swap1\n  sstore\n  pop\n    /* \"contracts/modules/ContestRoyalty.sol\":94:6396  contract ContestRoyalty is Ownable {... */\n  dataSize(sub_0)\n  dup1\n  dataOffset(sub_0)\n  0x00\n  codecopy\n  0x00\n  return\nstop\n\nsub_0: assembly {\n        /* \"contracts/modules/ContestRoyalty.sol\":94:6396  contract ContestRoyalty is Ownable {... */\n      mstore(0x40, 0x80)\n      jumpi(tag_1, lt(calldatasize, 0x04))\n      shr(0xe0, calldataload(0x00))\n      dup1\n      0xa22b9e87\n      gt\n      tag_23\n      jumpi\n      dup1\n      0xb4ba97fc\n      gt\n      tag_24\n      jumpi\n      dup1\n      0xb4ba97fc\n      eq\n      tag_17\n      jumpi\n      dup1\n      0xc1c13b2f\n      eq\n      tag_18\n      jumpi\n      dup1\n      0xc9ed0708\n      eq\n      tag_19\n      jumpi\n      dup1\n      0xca8e9121\n      eq\n      tag_20\n      jumpi\n      dup1\n      0xef4549eb\n      eq\n      tag_21\n      jumpi\n      dup1\n      0xf2fde38b\n      eq\n      tag_22\n      jumpi\n      jump(tag_1)\n    tag_24:\n      dup1\n      0xa22b9e87\n      eq\n      tag_12\n      jumpi\n      dup1\n      0xa56b1815\n      eq\n      tag_13\n      jumpi\n      dup1\n      0xa6791eae\n      eq\n      tag_14\n      jumpi\n      dup1\n      0xa80fee55\n      eq\n      tag_15\n      jumpi\n      dup1\n      0xad127e6b\n      eq\n      tag_16\n      jumpi\n      jump(tag_1)\n    tag_23:\n      dup1\n      0x6b77c79d\n      gt\n      tag_25\n      jumpi\n      dup1\n      0x6b77c79d\n      eq\n      tag_7\n      jumpi\n      dup1\n      0x76f5f700\n      eq\n      tag_8\n      jumpi\n      dup1\n      0x8da5cb5b\n      eq\n      tag_9\n      jumpi\n      dup1\n      0x9680003d\n      eq\n      tag_10\n      jumpi\n      dup1\n      0xa058dc09\n      eq\n      tag_11\n      jumpi\n      jump(tag_1)\n    tag_25:\n      dup1\n      0x0a3f5a42\n      eq\n      tag_2\n      jumpi\n      dup1\n      0x1c1da18e\n      eq\n      tag_3\n      jumpi\n      dup1\n      0x2a891534\n      eq\n      tag_4\n      jumpi\n      dup1\n      0x51a4f04e\n      eq\n      tag_5\n      jumpi\n      dup1\n      0x5e5bb367\n      eq\n      tag_6\n      jumpi\n    tag_1:\n      0x00\n      dup1\n      revert\n        /* \"contracts/modules/ContestRoyalty.sol\":2433:3030  function claimWeeklyReward(uint roundId) external {... */\n    tag_2:\n      callvalue\n      dup1\n      iszero\n      tag_26\n      jumpi\n      0x00\n      dup1\n      revert\n    tag_26:\n      pop\n      tag_27\n      0x04\n      dup1\n      calldatasize\n      sub\n      dup2\n      add\n      swap1\n      tag_28\n      swap2\n      swap1\n      tag_29\n      jump\t// in\n    tag_28:\n      tag_30\n      jump\t// in\n    tag_27:\n      stop\n        /* \"contracts/modules/ContestRoyalty.sol\":1060:1126  mapping(uint => mapping(address => bool)) public hasClaimedMonthly */\n    tag_3:\n      callvalue\n      dup1\n      iszero\n      tag_31\n      jumpi\n      0x00\n      dup1\n      revert\n    tag_31:\n      pop\n      tag_32\n      0x04\n      dup1\n      calldatasize\n      sub\n      dup2\n      add\n      swap1\n      tag_33\n      swap2\n      swap1\n      tag_34\n      jump\t// in\n    tag_33:\n      tag_35\n      jump\t// in\n    tag_32:\n      mload(0x40)\n      tag_36\n      swap2\n      swap1\n      tag_37\n      jump\t// in\n    tag_36:\n      mload(0x40)\n      dup1\n      swap2\n      sub\n      swap1\n      return\n        /* \"contracts/modules/ContestRoyalty.sol\":188:233  uint public constant MONTH_DURATION = 30 days */\n    tag_4:\n      callvalue\n      dup1\n      iszero\n      tag_38\n      jumpi\n      0x00\n      dup1\n      revert\n    tag_38:\n      pop\n      tag_39\n      tag_40\n      jump\t// in\n    tag_39:\n      mload(0x40)\n      tag_41\n      swap2\n      swap1\n      tag_42\n      jump\t// in\n    tag_41:\n      mload(0x40)\n      dup1\n      swap2\n      sub\n      swap1\n      return\n        /* \"contracts/modules/ContestRoyalty.sol\":3038:3642  function claimMonthlyReward(uint roundId) external {... */\n    tag_5:\n      callvalue\n      dup1\n      iszero\n      tag_43\n      jumpi\n      0x00\n      dup1\n      revert\n    tag_43:\n      pop\n      tag_44\n      0x04\n      dup1\n      calldatasize\n      sub\n      dup2\n      add\n      swap1\n      tag_45\n      swap2\n      swap1\n      tag_29\n      jump\t// in\n    tag_45:\n      tag_46\n      jump\t// in\n    tag_44:\n      stop\n        /* \"contracts/modules/ContestRoyalty.sol\":891:958  mapping(uint => mapping(address => bool)) public isMonthlyQualified */\n    tag_6:\n      callvalue\n      dup1\n      iszero\n      tag_47\n      jumpi\n      0x00\n      dup1\n      revert\n    tag_47:\n      pop\n      tag_48\n      0x04\n      dup1\n      calldatasize\n      sub\n      dup2\n      add\n      swap1\n      tag_49\n      swap2\n      swap1\n      tag_34\n      jump\t// in\n    tag_49:\n      tag_50\n      jump\t// in\n    tag_48:\n      mload(0x40)\n      tag_51\n      swap2\n      swap1\n      tag_37\n      jump\t// in\n    tag_51:\n      mload(0x40)\n      dup1\n      swap2\n      sub\n      swap1\n      return\n        /* \"contracts/modules/ContestRoyalty.sol\":1675:2027  function qualifyWeekly() external payable {... */\n    tag_7:\n      tag_52\n      tag_53\n      jump\t// in\n    tag_52:\n      stop\n        /* \"contracts/modules/ContestRoyalty.sol\":138:181  uint public constant WEEK_DURATION = 7 days */\n    tag_8:\n      callvalue\n      dup1\n      iszero\n      tag_54\n      jumpi\n      0x00\n      dup1\n      revert\n    tag_54:\n      pop\n      tag_55\n      tag_56\n      jump\t// in\n    tag_55:\n      mload(0x40)\n      tag_57\n      swap2\n      swap1\n      tag_42\n      jump\t// in\n    tag_57:\n      mload(0x40)\n      dup1\n      swap2\n      sub\n      swap1\n      return\n        /* \"contracts/core/Ownable.sol\":85:105  address public owner */\n    tag_9:\n      callvalue\n      dup1\n      iszero\n      tag_58\n      jumpi\n      0x00\n      dup1\n      revert\n    tag_58:\n      pop\n      tag_59\n      tag_60\n      jump\t// in\n    tag_59:\n      mload(0x40)\n      tag_61\n      swap2\n      swap1\n      tag_62\n      jump\t// in\n    tag_61:\n      mload(0x40)\n      dup1\n      swap2\n      sub\n      swap1\n      return\n        /* \"contracts/modules/ContestRoyalty.sol\":3693:4522  function getUserRoundStatus(address user, uint roundId, bool isWeekly)... */\n    tag_10:\n      callvalue\n      dup1\n      iszero\n      tag_63\n      jumpi\n      0x00\n      dup1\n      revert\n    tag_63:\n      pop\n      tag_64\n      0x04\n      dup1\n      calldatasize\n      sub\n      dup2\n      add\n      swap1\n      tag_65\n      swap2\n      swap1\n      tag_66\n      jump\t// in\n    tag_65:\n      tag_67\n      jump\t// in\n    tag_64:\n      mload(0x40)\n      tag_68\n      swap5\n      swap4\n      swap3\n      swap2\n      swap1\n      tag_69\n      jump\t// in\n    tag_68:\n      mload(0x40)\n      dup1\n      swap2\n      sub\n      swap1\n      return\n        /* \"contracts/modules/ContestRoyalty.sol\":2035:2396  function qualifyMonthly() external payable {... */\n    tag_11:\n      tag_70\n      tag_71\n      jump\t// in\n    tag_70:\n      stop\n        /* \"contracts/modules/ContestRoyalty.sol\":988:1053  mapping(uint => mapping(address => bool)) public hasClaimedWeekly */\n    tag_12:\n      callvalue\n      dup1\n      iszero\n      tag_72\n      jumpi\n      0x00\n      dup1\n      revert\n    tag_72:\n      pop\n      tag_73\n      0x04\n      dup1\n      calldatasize\n      sub\n      dup2\n      add\n      swap1\n      tag_74\n      swap2\n      swap1\n      tag_34\n      jump\t// in\n    tag_74:\n      tag_75\n      jump\t// in\n    tag_73:\n      mload(0x40)\n      tag_76\n      swap2\n      swap1\n      tag_37\n      jump\t// in\n    tag_76:\n      mload(0x40)\n      dup1\n      swap2\n      sub\n      swap1\n      return\n        /* \"contracts/modules/ContestRoyalty.sol\":680:726  mapping(uint => RoundInfo) public weeklyRounds */\n    tag_13:\n      callvalue\n      dup1\n      iszero\n      tag_77\n      jumpi\n      0x00\n      dup1\n      revert\n    tag_77:\n      pop\n      tag_78\n      0x04\n      dup1\n      calldatasize\n      sub\n      dup2\n      add\n      swap1\n      tag_79\n      swap2\n      swap1\n      tag_29\n      jump\t// in\n    tag_79:\n      tag_80\n      jump\t// in\n    tag_78:\n      mload(0x40)\n      tag_81\n      swap8\n      swap7\n      swap6\n      swap5\n      swap4\n      swap3\n      swap2\n      swap1\n      tag_82\n      jump\t// in\n    tag_81:\n      mload(0x40)\n      dup1\n      swap2\n      sub\n      swap1\n      return\n        /* \"contracts/modules/ContestRoyalty.sol\":359:387  uint public lastMonthlyReset */\n    tag_14:\n      callvalue\n      dup1\n      iszero\n      tag_83\n      jumpi\n      0x00\n      dup1\n      revert\n    tag_83:\n      pop\n      tag_84\n      tag_85\n      jump\t// in\n    tag_84:\n      mload(0x40)\n      tag_86\n      swap2\n      swap1\n      tag_42\n      jump\t// in\n    tag_86:\n      mload(0x40)\n      dup1\n      swap2\n      sub\n      swap1\n      return\n        /* \"contracts/modules/ContestRoyalty.sol\":435:468  address[] public qualifiedMonthly */\n    tag_15:\n      callvalue\n      dup1\n      iszero\n      tag_87\n      jumpi\n      0x00\n      dup1\n      revert\n    tag_87:\n      pop\n      tag_88\n      0x04\n      dup1\n      calldatasize\n      sub\n      dup2\n      add\n      swap1\n      tag_89\n      swap2\n      swap1\n      tag_29\n      jump\t// in\n    tag_89:\n      tag_90\n      jump\t// in\n    tag_88:\n      mload(0x40)\n      tag_91\n      swap2\n      swap1\n      tag_62\n      jump\t// in\n    tag_91:\n      mload(0x40)\n      dup1\n      swap2\n      sub\n      swap1\n      return\n        /* \"contracts/modules/ContestRoyalty.sol\":396:428  address[] public qualifiedWeekly */\n    tag_16:\n      callvalue\n      dup1\n      iszero\n      tag_92\n      jumpi\n      0x00\n      dup1\n      revert\n    tag_92:\n      pop\n      tag_93\n      0x04\n      dup1\n      calldatasize\n      sub\n      dup2\n      add\n      swap1\n      tag_94\n      swap2\n      swap1\n      tag_29\n      jump\t// in\n    tag_94:\n      tag_95\n      jump\t// in\n    tag_93:\n      mload(0x40)\n      tag_96\n      swap2\n      swap1\n      tag_62\n      jump\t// in\n    tag_96:\n      mload(0x40)\n      dup1\n      swap2\n      sub\n      swap1\n      return\n        /* \"contracts/modules/ContestRoyalty.sol\":818:884  mapping(uint => mapping(address => bool)) public isWeeklyQualified */\n    tag_17:\n      callvalue\n      dup1\n      iszero\n      tag_97\n      jumpi\n      0x00\n      dup1\n      revert\n    tag_97:\n      pop\n      tag_98\n      0x04\n      dup1\n      calldatasize\n      sub\n      dup2\n      add\n      swap1\n      tag_99\n      swap2\n      swap1\n      tag_34\n      jump\t// in\n    tag_99:\n      tag_100\n      jump\t// in\n    tag_98:\n      mload(0x40)\n      tag_101\n      swap2\n      swap1\n      tag_37\n      jump\t// in\n    tag_101:\n      mload(0x40)\n      dup1\n      swap2\n      sub\n      swap1\n      return\n        /* \"contracts/modules/ContestRoyalty.sol\":325:352  uint public lastWeeklyReset */\n    tag_18:\n      callvalue\n      dup1\n      iszero\n      tag_102\n      jumpi\n      0x00\n      dup1\n      revert\n    tag_102:\n      pop\n      tag_103\n      tag_104\n      jump\t// in\n    tag_103:\n      mload(0x40)\n      tag_105\n      swap2\n      swap1\n      tag_42\n      jump\t// in\n    tag_105:\n      mload(0x40)\n      dup1\n      swap2\n      sub\n      swap1\n      return\n        /* \"contracts/modules/ContestRoyalty.sol\":283:318  uint public currentMonthlyRound = 1 */\n    tag_19:\n      callvalue\n      dup1\n      iszero\n      tag_106\n      jumpi\n      0x00\n      dup1\n      revert\n    tag_106:\n      pop\n      tag_107\n      tag_108\n      jump\t// in\n    tag_107:\n      mload(0x40)\n      tag_109\n      swap2\n      swap1\n      tag_42\n      jump\t// in\n    tag_109:\n      mload(0x40)\n      dup1\n      swap2\n      sub\n      swap1\n      return\n        /* \"contracts/modules/ContestRoyalty.sol\":242:276  uint public currentWeeklyRound = 1 */\n    tag_20:\n      callvalue\n      dup1\n      iszero\n      tag_110\n      jumpi\n      0x00\n      dup1\n      revert\n    tag_110:\n      pop\n      tag_111\n      tag_112\n      jump\t// in\n    tag_111:\n      mload(0x40)\n      tag_113\n      swap2\n      swap1\n      tag_42\n      jump\t// in\n    tag_113:\n      mload(0x40)\n      dup1\n      swap2\n      sub\n      swap1\n      return\n        /* \"contracts/modules/ContestRoyalty.sol\":733:780  mapping(uint => RoundInfo) public monthlyRounds */\n    tag_21:\n      callvalue\n      dup1\n      iszero\n      tag_114\n      jumpi\n      0x00\n      dup1\n      revert\n    tag_114:\n      pop\n      tag_115\n      0x04\n      dup1\n      calldatasize\n      sub\n      dup2\n      add\n      swap1\n      tag_116\n      swap2\n      swap1\n      tag_29\n      jump\t// in\n    tag_116:\n      tag_117\n      jump\t// in\n    tag_115:\n      mload(0x40)\n      tag_118\n      swap8\n      swap7\n      swap6\n      swap5\n      swap4\n      swap3\n      swap2\n      swap1\n      tag_82\n      jump\t// in\n    tag_118:\n      mload(0x40)\n      dup1\n      swap2\n      sub\n      swap1\n      return\n        /* \"contracts/core/Ownable.sol\":444:666  function transferOwnership(address newOwner) external onlyOwner {... */\n    tag_22:\n      callvalue\n      dup1\n      iszero\n      tag_119\n      jumpi\n      0x00\n      dup1\n      revert\n    tag_119:\n      pop\n      tag_120\n      0x04\n      dup1\n      calldatasize\n      sub\n      dup2\n      add\n      swap1\n      tag_121\n      swap2\n      swap1\n      tag_122\n      jump\t// in\n    tag_121:\n      tag_123\n      jump\t// in\n    tag_120:\n      stop\n        /* \"contracts/modules/ContestRoyalty.sol\":2433:3030  function claimWeeklyReward(uint roundId) external {... */\n    tag_30:\n        /* \"contracts/modules/ContestRoyalty.sol\":2494:2512  RoundInfo memory r */\n      0x00\n        /* \"contracts/modules/ContestRoyalty.sol\":2515:2527  weeklyRounds */\n      0x07\n        /* \"contracts/modules/ContestRoyalty.sol\":2515:2536  weeklyRounds[roundId] */\n      0x00\n        /* \"contracts/modules/ContestRoyalty.sol\":2528:2535  roundId */\n      dup4\n        /* \"contracts/modules/ContestRoyalty.sol\":2515:2536  weeklyRounds[roundId] */\n      dup2\n      mstore\n      0x20\n      add\n      swap1\n      dup2\n      mstore\n      0x20\n      add\n      0x00\n      keccak256\n        /* \"contracts/modules/ContestRoyalty.sol\":2494:2536  RoundInfo memory r = weeklyRounds[roundId] */\n      mload(0x40)\n      dup1\n      0xe0\n      add\n      0x40\n      mstore\n      swap1\n      dup2\n      0x00\n      dup3\n      add\n      sload\n      dup2\n      mstore\n      0x20\n      add\n      0x01\n      dup3\n      add\n      sload\n      dup2\n      mstore\n      0x20\n      add\n      0x02\n      dup3\n      add\n      sload\n      dup2\n      mstore\n      0x20\n      add\n      0x03\n      dup3\n      add\n      sload\n      dup2\n      mstore\n      0x20\n      add\n      0x04\n      dup3\n      add\n      sload\n      dup2\n      mstore\n      0x20\n      add\n      0x05\n      dup3\n      add\n      sload\n      dup2\n      mstore\n      0x20\n      add\n      0x06\n      dup3\n      add\n      0x00\n      swap1\n      sload\n      swap1\n      0x0100\n      exp\n      swap1\n      div\n      0xff\n      and\n      iszero\n      iszero\n      iszero\n      iszero\n      dup2\n      mstore\n      pop\n      pop\n      swap1\n      pop\n        /* \"contracts/modules/ContestRoyalty.sol\":2555:2556  r */\n      dup1\n        /* \"contracts/modules/ContestRoyalty.sol\":2555:2563  r.closed */\n      0xc0\n      add\n      mload\n        /* \"contracts/modules/ContestRoyalty.sol\":2547:2588  require(r.closed, \"Round not closed yet\") */\n      tag_125\n      jumpi\n      mload(0x40)\n      0x08c379a000000000000000000000000000000000000000000000000000000000\n      dup2\n      mstore\n      0x04\n      add\n      tag_126\n      swap1\n      tag_127\n      jump\t// in\n    tag_126:\n      mload(0x40)\n      dup1\n      swap2\n      sub\n      swap1\n      revert\n    tag_125:\n        /* \"contracts/modules/ContestRoyalty.sol\":2607:2624  isWeeklyQualified */\n      0x09\n        /* \"contracts/modules/ContestRoyalty.sol\":2607:2633  isWeeklyQualified[roundId] */\n      0x00\n        /* \"contracts/modules/ContestRoyalty.sol\":2625:2632  roundId */\n      dup4\n        /* \"contracts/modules/ContestRoyalty.sol\":2607:2633  isWeeklyQualified[roundId] */\n      dup2\n      mstore\n      0x20\n      add\n      swap1\n      dup2\n      mstore\n      0x20\n      add\n      0x00\n      keccak256\n        /* \"contracts/modules/ContestRoyalty.sol\":2607:2645  isWeeklyQualified[roundId][msg.sender] */\n      0x00\n        /* \"contracts/modules/ContestRoyalty.sol\":2634:2644  msg.sender */\n      caller\n        /* \"contracts/modules/ContestRoyalty.sol\":2607:2645  isWeeklyQualified[roundId][msg.sender] */\n      0xffffffffffffffffffffffffffffffffffffffff\n      and\n      0xffffffffffffffffffffffffffffffffffffffff\n      and\n      dup2\n      mstore\n      0x20\n      add\n      swap1\n      dup2\n      mstore\n      0x20\n      add\n      0x00\n      keccak256\n      0x00\n      swap1\n      sload\n      swap1\n      0x0100\n      exp\n      swap1\n      div\n      0xff\n      and\n        /* \"contracts/modules/ContestRoyalty.sol\":2599:2663  require(isWeeklyQualified[roundId][msg.sender], \"Not qualified\") */\n      tag_128\n      jumpi\n      mload(0x40)\n      0x08c379a000000000000000000000000000000000000000000000000000000000\n      dup2\n      mstore\n      0x04\n      add\n      tag_129\n      swap1\n      tag_130\n      jump\t// in\n    tag_129:\n      mload(0x40)\n      dup1\n      swap2\n      sub\n      swap1\n      revert\n    tag_128:\n        /* \"contracts/modules/ContestRoyalty.sol\":2683:2699  hasClaimedWeekly */\n      0x0b\n        /* \"contracts/modules/ContestRoyalty.sol\":2683:2708  hasClaimedWeekly[roundId] */\n      0x00\n        /* \"contracts/modules/ContestRoyalty.sol\":2700:2707  roundId */\n      dup4\n        /* \"contracts/modules/ContestRoyalty.sol\":2683:2708  hasClaimedWeekly[roundId] */\n      dup2\n      mstore\n      0x20\n      add\n      swap1\n      dup2\n      mstore\n      0x20\n      add\n      0x00\n      keccak256\n        /* \"contracts/modules/ContestRoyalty.sol\":2683:2720  hasClaimedWeekly[roundId][msg.sender] */\n      0x00\n        /* \"contracts/modules/ContestRoyalty.sol\":2709:2719  msg.sender */\n      caller\n        /* \"contracts/modules/ContestRoyalty.sol\":2683:2720  hasClaimedWeekly[roundId][msg.sender] */\n      0xffffffffffffffffffffffffffffffffffffffff\n      and\n      0xffffffffffffffffffffffffffffffffffffffff\n      and\n      dup2\n      mstore\n      0x20\n      add\n      swap1\n      dup2\n      mstore\n      0x20\n      add\n      0x00\n      keccak256\n      0x00\n      swap1\n      sload\n      swap1\n      0x0100\n      exp\n      swap1\n      div\n      0xff\n      and\n        /* \"contracts/modules/ContestRoyalty.sol\":2682:2720  !hasClaimedWeekly[roundId][msg.sender] */\n      iszero\n        /* \"contracts/modules/ContestRoyalty.sol\":2674:2740  require(!hasClaimedWeekly[roundId][msg.sender], \"Already claimed\") */\n      tag_131\n      jumpi\n      mload(0x40)\n      0x08c379a000000000000000000000000000000000000000000000000000000000\n      dup2\n      mstore\n      0x04\n      add\n      tag_132\n      swap1\n      tag_133\n      jump\t// in\n    tag_132:\n      mload(0x40)\n      dup1\n      swap2\n      sub\n      swap1\n      revert\n    tag_131:\n        /* \"contracts/modules/ContestRoyalty.sol\":2777:2778  0 */\n      0x00\n        /* \"contracts/modules/ContestRoyalty.sol\":2759:2760  r */\n      dup2\n        /* \"contracts/modules/ContestRoyalty.sol\":2759:2774  r.perUserReward */\n      0x60\n      add\n      mload\n        /* \"contracts/modules/ContestRoyalty.sol\":2759:2778  r.perUserReward > 0 */\n      gt\n        /* \"contracts/modules/ContestRoyalty.sol\":2751:2792  require(r.perUserReward > 0, \"No reward\") */\n      tag_134\n      jumpi\n      mload(0x40)\n      0x08c379a000000000000000000000000000000000000000000000000000000000\n      dup2\n      mstore\n      0x04\n      add\n      tag_135\n      swap1\n      tag_136\n      jump\t// in\n    tag_135:\n      mload(0x40)\n      dup1\n      swap2\n      sub\n      swap1\n      revert\n    tag_134:\n        /* \"contracts/modules/ContestRoyalty.sol\":2845:2849  true */\n      0x01\n        /* \"contracts/modules/ContestRoyalty.sol\":2805:2821  hasClaimedWeekly */\n      0x0b\n        /* \"contracts/modules/ContestRoyalty.sol\":2805:2830  hasClaimedWeekly[roundId] */\n      0x00\n        /* \"contracts/modules/ContestRoyalty.sol\":2822:2829  roundId */\n      dup5\n        /* \"contracts/modules/ContestRoyalty.sol\":2805:2830  hasClaimedWeekly[roundId] */\n      dup2\n      mstore\n      0x20\n      add\n      swap1\n      dup2\n      mstore\n      0x20\n      add\n      0x00\n      keccak256\n        /* \"contracts/modules/ContestRoyalty.sol\":2805:2842  hasClaimedWeekly[roundId][msg.sender] */\n      0x00\n        /* \"contracts/modules/ContestRoyalty.sol\":2831:2841  msg.sender */\n      caller\n        /* \"contracts/modules/ContestRoyalty.sol\":2805:2842  hasClaimedWeekly[roundId][msg.sender] */\n      0xffffffffffffffffffffffffffffffffffffffff\n      and\n      0xffffffffffffffffffffffffffffffffffffffff\n      and\n      dup2\n      mstore\n      0x20\n      add\n      swap1\n      dup2\n      mstore\n      0x20\n      add\n      0x00\n      keccak256\n      0x00\n        /* \"contracts/modules/ContestRoyalty.sol\":2805:2849  hasClaimedWeekly[roundId][msg.sender] = true */\n      0x0100\n      exp\n      dup2\n      sload\n      dup2\n      0xff\n      mul\n      not\n      and\n      swap1\n      dup4\n      iszero\n      iszero\n      mul\n      or\n      swap1\n      sstore\n      pop\n        /* \"contracts/modules/ContestRoyalty.sol\":2975:2985  msg.sender */\n      caller\n        /* \"contracts/modules/ContestRoyalty.sol\":2961:3022  RewardClaimed(msg.sender, \"Weekly\", roundId, r.perUserReward) */\n      0xffffffffffffffffffffffffffffffffffffffff\n      and\n      0x1a3be26d9ba470ad16bb376aa13666c5c90511b63416723049a5adffeaefa647\n        /* \"contracts/modules/ContestRoyalty.sol\":2997:3004  roundId */\n      dup4\n        /* \"contracts/modules/ContestRoyalty.sol\":3006:3007  r */\n      dup4\n        /* \"contracts/modules/ContestRoyalty.sol\":3006:3021  r.perUserReward */\n      0x60\n      add\n      mload\n        /* \"contracts/modules/ContestRoyalty.sol\":2961:3022  RewardClaimed(msg.sender, \"Weekly\", roundId, r.perUserReward) */\n      mload(0x40)\n      tag_137\n      swap3\n      swap2\n      swap1\n      tag_138\n      jump\t// in\n    tag_137:\n      mload(0x40)\n      dup1\n      swap2\n      sub\n      swap1\n      log2\n        /* \"contracts/modules/ContestRoyalty.sol\":2483:3030  {... */\n      pop\n        /* \"contracts/modules/ContestRoyalty.sol\":2433:3030  function claimWeeklyReward(uint roundId) external {... */\n      pop\n      jump\t// out\n        /* \"contracts/modules/ContestRoyalty.sol\":1060:1126  mapping(uint => mapping(address => bool)) public hasClaimedMonthly */\n    tag_35:\n      mstore(0x20, 0x0c)\n      dup2\n      0x00\n      mstore\n      mstore(0x20, keccak256(0x00, 0x40))\n      dup1\n      0x00\n      mstore\n      keccak256(0x00, 0x40)\n      0x00\n      swap2\n      pop\n      swap2\n      pop\n      swap1\n      sload\n      swap1\n      0x0100\n      exp\n      swap1\n      div\n      0xff\n      and\n      dup2\n      jump\t// out\n        /* \"contracts/modules/ContestRoyalty.sol\":188:233  uint public constant MONTH_DURATION = 30 days */\n    tag_40:\n        /* \"contracts/modules/ContestRoyalty.sol\":226:233  30 days */\n      0x278d00\n        /* \"contracts/modules/ContestRoyalty.sol\":188:233  uint public constant MONTH_DURATION = 30 days */\n      dup2\n      jump\t// out\n        /* \"contracts/modules/ContestRoyalty.sol\":3038:3642  function claimMonthlyReward(uint roundId) external {... */\n    tag_46:\n        /* \"contracts/modules/ContestRoyalty.sol\":3100:3118  RoundInfo memory r */\n      0x00\n        /* \"contracts/modules/ContestRoyalty.sol\":3121:3134  monthlyRounds */\n      0x08\n        /* \"contracts/modules/ContestRoyalty.sol\":3121:3143  monthlyRounds[roundId] */\n      0x00\n        /* \"contracts/modules/ContestRoyalty.sol\":3135:3142  roundId */\n      dup4\n        /* \"contracts/modules/ContestRoyalty.sol\":3121:3143  monthlyRounds[roundId] */\n      dup2\n      mstore\n      0x20\n      add\n      swap1\n      dup2\n      mstore\n      0x20\n      add\n      0x00\n      keccak256\n        /* \"contracts/modules/ContestRoyalty.sol\":3100:3143  RoundInfo memory r = monthlyRounds[roundId] */\n      mload(0x40)\n      dup1\n      0xe0\n      add\n      0x40\n      mstore\n      swap1\n      dup2\n      0x00\n      dup3\n      add\n      sload\n      dup2\n      mstore\n      0x20\n      add\n      0x01\n      dup3\n      add\n      sload\n      dup2\n      mstore\n      0x20\n      add\n      0x02\n      dup3\n      add\n      sload\n      dup2\n      mstore\n      0x20\n      add\n      0x03\n      dup3\n      add\n      sload\n      dup2\n      mstore\n      0x20\n      add\n      0x04\n      dup3\n      add\n      sload\n      dup2\n      mstore\n      0x20\n      add\n      0x05\n      dup3\n      add\n      sload\n      dup2\n      mstore\n      0x20\n      add\n      0x06\n      dup3\n      add\n      0x00\n      swap1\n      sload\n      swap1\n      0x0100\n      exp\n      swap1\n      div\n      0xff\n      and\n      iszero\n      iszero\n      iszero\n      iszero\n      dup2\n      mstore\n      pop\n      pop\n      swap1\n      pop\n        /* \"contracts/modules/ContestRoyalty.sol\":3162:3163  r */\n      dup1\n        /* \"contracts/modules/ContestRoyalty.sol\":3162:3170  r.closed */\n      0xc0\n      add\n      mload\n        /* \"contracts/modules/ContestRoyalty.sol\":3154:3195  require(r.closed, \"Round not closed yet\") */\n      tag_140\n      jumpi\n      mload(0x40)\n      0x08c379a000000000000000000000000000000000000000000000000000000000\n      dup2\n      mstore\n      0x04\n      add\n      tag_141\n      swap1\n      tag_127\n      jump\t// in\n    tag_141:\n      mload(0x40)\n      dup1\n      swap2\n      sub\n      swap1\n      revert\n    tag_140:\n        /* \"contracts/modules/ContestRoyalty.sol\":3214:3232  isMonthlyQualified */\n      0x0a\n        /* \"contracts/modules/ContestRoyalty.sol\":3214:3241  isMonthlyQualified[roundId] */\n      0x00\n        /* \"contracts/modules/ContestRoyalty.sol\":3233:3240  roundId */\n      dup4\n        /* \"contracts/modules/ContestRoyalty.sol\":3214:3241  isMonthlyQualified[roundId] */\n      dup2\n      mstore\n      0x20\n      add\n      swap1\n      dup2\n      mstore\n      0x20\n      add\n      0x00\n      keccak256\n        /* \"contracts/modules/ContestRoyalty.sol\":3214:3253  isMonthlyQualified[roundId][msg.sender] */\n      0x00\n        /* \"contracts/modules/ContestRoyalty.sol\":3242:3252  msg.sender */\n      caller\n        /* \"contracts/modules/ContestRoyalty.sol\":3214:3253  isMonthlyQualified[roundId][msg.sender] */\n      0xffffffffffffffffffffffffffffffffffffffff\n      and\n      0xffffffffffffffffffffffffffffffffffffffff\n      and\n      dup2\n      mstore\n      0x20\n      add\n      swap1\n      dup2\n      mstore\n      0x20\n      add\n      0x00\n      keccak256\n      0x00\n      swap1\n      sload\n      swap1\n      0x0100\n      exp\n      swap1\n      div\n      0xff\n      and\n        /* \"contracts/modules/ContestRoyalty.sol\":3206:3271  require(isMonthlyQualified[roundId][msg.sender], \"Not qualified\") */\n      tag_142\n      jumpi\n      mload(0x40)\n      0x08c379a000000000000000000000000000000000000000000000000000000000\n      dup2\n      mstore\n      0x04\n      add\n      tag_143\n      swap1\n      tag_130\n      jump\t// in\n    tag_143:\n      mload(0x40)\n      dup1\n      swap2\n      sub\n      swap1\n      revert\n    tag_142:\n        /* \"contracts/modules/ContestRoyalty.sol\":3291:3308  hasClaimedMonthly */\n      0x0c\n        /* \"contracts/modules/ContestRoyalty.sol\":3291:3317  hasClaimedMonthly[roundId] */\n      0x00\n        /* \"contracts/modules/ContestRoyalty.sol\":3309:3316  roundId */\n      dup4\n        /* \"contracts/modules/ContestRoyalty.sol\":3291:3317  hasClaimedMonthly[roundId] */\n      dup2\n      mstore\n      0x20\n      add\n      swap1\n      dup2\n      mstore\n      0x20\n      add\n      0x00\n      keccak256\n        /* \"contracts/modules/ContestRoyalty.sol\":3291:3329  hasClaimedMonthly[roundId][msg.sender] */\n      0x00\n        /* \"contracts/modules/ContestRoyalty.sol\":3318:3328  msg.sender */\n      caller\n        /* \"contracts/modules/ContestRoyalty.sol\":3291:3329  hasClaimedMonthly[roundId][msg.sender] */\n      0xffffffffffffffffffffffffffffffffffffffff\n      and\n      0xffffffffffffffffffffffffffffffffffffffff\n      and\n      dup2\n      mstore\n      0x20\n      add\n      swap1\n      dup2\n      mstore\n      0x20\n      add\n      0x00\n      keccak256\n      0x00\n      swap1\n      sload\n      swap1\n      0x0100\n      exp\n      swap1\n      div\n      0xff\n      and\n        /* \"contracts/modules/ContestRoyalty.sol\":3290:3329  !hasClaimedMonthly[roundId][msg.sender] */\n      iszero\n        /* \"contracts/modules/ContestRoyalty.sol\":3282:3349  require(!hasClaimedMonthly[roundId][msg.sender], \"Already claimed\") */\n      tag_144\n      jumpi\n      mload(0x40)\n      0x08c379a000000000000000000000000000000000000000000000000000000000\n      dup2\n      mstore\n      0x04\n      add\n      tag_145\n      swap1\n      tag_133\n      jump\t// in\n    tag_145:\n      mload(0x40)\n      dup1\n      swap2\n      sub\n      swap1\n      revert\n    tag_144:\n        /* \"contracts/modules/ContestRoyalty.sol\":3386:3387  0 */\n      0x00\n        /* \"contracts/modules/ContestRoyalty.sol\":3368:3369  r */\n      dup2\n        /* \"contracts/modules/ContestRoyalty.sol\":3368:3383  r.perUserReward */\n      0x60\n      add\n      mload\n        /* \"contracts/modules/ContestRoyalty.sol\":3368:3387  r.perUserReward > 0 */\n      gt\n        /* \"contracts/modules/ContestRoyalty.sol\":3360:3401  require(r.perUserReward > 0, \"No reward\") */\n      tag_146\n      jumpi\n      mload(0x40)\n      0x08c379a000000000000000000000000000000000000000000000000000000000\n      dup2\n      mstore\n      0x04\n      add\n      tag_147\n      swap1\n      tag_136\n      jump\t// in\n    tag_147:\n      mload(0x40)\n      dup1\n      swap2\n      sub\n      swap1\n      revert\n    tag_146:\n        /* \"contracts/modules/ContestRoyalty.sol\":3455:3459  true */\n      0x01\n        /* \"contracts/modules/ContestRoyalty.sol\":3414:3431  hasClaimedMonthly */\n      0x0c\n        /* \"contracts/modules/ContestRoyalty.sol\":3414:3440  hasClaimedMonthly[roundId] */\n      0x00\n        /* \"contracts/modules/ContestRoyalty.sol\":3432:3439  roundId */\n      dup5\n        /* \"contracts/modules/ContestRoyalty.sol\":3414:3440  hasClaimedMonthly[roundId] */\n      dup2\n      mstore\n      0x20\n      add\n      swap1\n      dup2\n      mstore\n      0x20\n      add\n      0x00\n      keccak256\n        /* \"contracts/modules/ContestRoyalty.sol\":3414:3452  hasClaimedMonthly[roundId][msg.sender] */\n      0x00\n        /* \"contracts/modules/ContestRoyalty.sol\":3441:3451  msg.sender */\n      caller\n        /* \"contracts/modules/ContestRoyalty.sol\":3414:3452  hasClaimedMonthly[roundId][msg.sender] */\n      0xffffffffffffffffffffffffffffffffffffffff\n      and\n      0xffffffffffffffffffffffffffffffffffffffff\n      and\n      dup2\n      mstore\n      0x20\n      add\n      swap1\n      dup2\n      mstore\n      0x20\n      add\n      0x00\n      keccak256\n      0x00\n        /* \"contracts/modules/ContestRoyalty.sol\":3414:3459  hasClaimedMonthly[roundId][msg.sender] = true */\n      0x0100\n      exp\n      dup2\n      sload\n      dup2\n      0xff\n      mul\n      not\n      and\n      swap1\n      dup4\n      iszero\n      iszero\n      mul\n      or\n      swap1\n      sstore\n      pop\n        /* \"contracts/modules/ContestRoyalty.sol\":3586:3596  msg.sender */\n      caller\n        /* \"contracts/modules/ContestRoyalty.sol\":3572:3634  RewardClaimed(msg.sender, \"Monthly\", roundId, r.perUserReward) */\n      0xffffffffffffffffffffffffffffffffffffffff\n      and\n      0x1a3be26d9ba470ad16bb376aa13666c5c90511b63416723049a5adffeaefa647\n        /* \"contracts/modules/ContestRoyalty.sol\":3609:3616  roundId */\n      dup4\n        /* \"contracts/modules/ContestRoyalty.sol\":3618:3619  r */\n      dup4\n        /* \"contracts/modules/ContestRoyalty.sol\":3618:3633  r.perUserReward */\n      0x60\n      add\n      mload\n        /* \"contracts/modules/ContestRoyalty.sol\":3572:3634  RewardClaimed(msg.sender, \"Monthly\", roundId, r.perUserReward) */\n      mload(0x40)\n      tag_148\n      swap3\n      swap2\n      swap1\n      tag_149\n      jump\t// in\n    tag_148:\n      mload(0x40)\n      dup1\n      swap2\n      sub\n      swap1\n      log2\n        /* \"contracts/modules/ContestRoyalty.sol\":3089:3642  {... */\n      pop\n        /* \"contracts/modules/ContestRoyalty.sol\":3038:3642  function claimMonthlyReward(uint roundId) external {... */\n      pop\n      jump\t// out\n        /* \"contracts/modules/ContestRoyalty.sol\":891:958  mapping(uint => mapping(address => bool)) public isMonthlyQualified */\n    tag_50:\n      mstore(0x20, 0x0a)\n      dup2\n      0x00\n      mstore\n      mstore(0x20, keccak256(0x00, 0x40))\n      dup1\n      0x00\n      mstore\n      keccak256(0x00, 0x40)\n      0x00\n      swap2\n      pop\n      swap2\n      pop\n      swap1\n      sload\n      swap1\n      0x0100\n      exp\n      swap1\n      div\n      0xff\n      and\n      dup2\n      jump\t// out\n        /* \"contracts/modules/ContestRoyalty.sol\":1675:2027  function qualifyWeekly() external payable {... */\n    tag_53:\n        /* \"contracts/modules/ContestRoyalty.sol\":1728:1747  _checkWeeklyRound() */\n      tag_151\n        /* \"contracts/modules/ContestRoyalty.sol\":1728:1745  _checkWeeklyRound */\n      tag_152\n        /* \"contracts/modules/ContestRoyalty.sol\":1728:1747  _checkWeeklyRound() */\n      jump\t// in\n    tag_151:\n        /* \"contracts/modules/ContestRoyalty.sol\":1767:1784  isWeeklyQualified */\n      0x09\n        /* \"contracts/modules/ContestRoyalty.sol\":1767:1804  isWeeklyQualified[currentWeeklyRound] */\n      0x00\n        /* \"contracts/modules/ContestRoyalty.sol\":1785:1803  currentWeeklyRound */\n      sload(0x01)\n        /* \"contracts/modules/ContestRoyalty.sol\":1767:1804  isWeeklyQualified[currentWeeklyRound] */\n      dup2\n      mstore\n      0x20\n      add\n      swap1\n      dup2\n      mstore\n      0x20\n      add\n      0x00\n      keccak256\n        /* \"contracts/modules/ContestRoyalty.sol\":1767:1816  isWeeklyQualified[currentWeeklyRound][msg.sender] */\n      0x00\n        /* \"contracts/modules/ContestRoyalty.sol\":1805:1815  msg.sender */\n      caller\n        /* \"contracts/modules/ContestRoyalty.sol\":1767:1816  isWeeklyQualified[currentWeeklyRound][msg.sender] */\n      0xffffffffffffffffffffffffffffffffffffffff\n      and\n      0xffffffffffffffffffffffffffffffffffffffff\n      and\n      dup2\n      mstore\n      0x20\n      add\n      swap1\n      dup2\n      mstore\n      0x20\n      add\n      0x00\n      keccak256\n      0x00\n      swap1\n      sload\n      swap1\n      0x0100\n      exp\n      swap1\n      div\n      0xff\n      and\n        /* \"contracts/modules/ContestRoyalty.sol\":1766:1816  !isWeeklyQualified[currentWeeklyRound][msg.sender] */\n      iszero\n        /* \"contracts/modules/ContestRoyalty.sol\":1758:1838  require(!isWeeklyQualified[currentWeeklyRound][msg.sender], \"Already qualified\") */\n      tag_153\n      jumpi\n      mload(0x40)\n      0x08c379a000000000000000000000000000000000000000000000000000000000\n      dup2\n      mstore\n      0x04\n      add\n      tag_154\n      swap1\n      tag_155\n      jump\t// in\n    tag_154:\n      mload(0x40)\n      dup1\n      swap2\n      sub\n      swap1\n      revert\n    tag_153:\n        /* \"contracts/modules/ContestRoyalty.sol\":1849:1864  qualifiedWeekly */\n      0x05\n        /* \"contracts/modules/ContestRoyalty.sol\":1870:1880  msg.sender */\n      caller\n        /* \"contracts/modules/ContestRoyalty.sol\":1849:1881  qualifiedWeekly.push(msg.sender) */\n      swap1\n      dup1\n      0x01\n      dup2\n      sload\n      add\n      dup1\n      dup3\n      sstore\n      dup1\n      swap2\n      pop\n      pop\n      0x01\n      swap1\n      sub\n      swap1\n      0x00\n      mstore\n      keccak256(0x00, 0x20)\n      add\n      0x00\n      swap1\n      swap2\n      swap1\n      swap2\n      swap1\n      swap2\n      0x0100\n      exp\n      dup2\n      sload\n      dup2\n      0xffffffffffffffffffffffffffffffffffffffff\n      mul\n      not\n      and\n      swap1\n      dup4\n      0xffffffffffffffffffffffffffffffffffffffff\n      and\n      mul\n      or\n      swap1\n      sstore\n      pop\n        /* \"contracts/modules/ContestRoyalty.sol\":1944:1948  true */\n      0x01\n        /* \"contracts/modules/ContestRoyalty.sol\":1892:1909  isWeeklyQualified */\n      0x09\n        /* \"contracts/modules/ContestRoyalty.sol\":1892:1929  isWeeklyQualified[currentWeeklyRound] */\n      0x00\n        /* \"contracts/modules/ContestRoyalty.sol\":1910:1928  currentWeeklyRound */\n      sload(0x01)\n        /* \"contracts/modules/ContestRoyalty.sol\":1892:1929  isWeeklyQualified[currentWeeklyRound] */\n      dup2\n      mstore\n      0x20\n      add\n      swap1\n      dup2\n      mstore\n      0x20\n      add\n      0x00\n      keccak256\n        /* \"contracts/modules/ContestRoyalty.sol\":1892:1941  isWeeklyQualified[currentWeeklyRound][msg.sender] */\n      0x00\n        /* \"contracts/modules/ContestRoyalty.sol\":1930:1940  msg.sender */\n      caller\n        /* \"contracts/modules/ContestRoyalty.sol\":1892:1941  isWeeklyQualified[currentWeeklyRound][msg.sender] */\n      0xffffffffffffffffffffffffffffffffffffffff\n      and\n      0xffffffffffffffffffffffffffffffffffffffff\n      and\n      dup2\n      mstore\n      0x20\n      add\n      swap1\n      dup2\n      mstore\n      0x20\n      add\n      0x00\n      keccak256\n      0x00\n        /* \"contracts/modules/ContestRoyalty.sol\":1892:1948  isWeeklyQualified[currentWeeklyRound][msg.sender] = true */\n      0x0100\n      exp\n      dup2\n      sload\n      dup2\n      0xff\n      mul\n      not\n      and\n      swap1\n      dup4\n      iszero\n      iszero\n      mul\n      or\n      swap1\n      sstore\n      pop\n        /* \"contracts/modules/ContestRoyalty.sol\":1978:1988  msg.sender */\n      caller\n        /* \"contracts/modules/ContestRoyalty.sol\":1964:2019  UserQualified(msg.sender, \"Weekly\", currentWeeklyRound) */\n      0xffffffffffffffffffffffffffffffffffffffff\n      and\n      0x577158c2e8120577a90c3a1ee00ad3d7acbadba003577f10f7ba8ae958c5af42\n        /* \"contracts/modules/ContestRoyalty.sol\":2000:2018  currentWeeklyRound */\n      sload(0x01)\n        /* \"contracts/modules/ContestRoyalty.sol\":1964:2019  UserQualified(msg.sender, \"Weekly\", currentWeeklyRound) */\n      mload(0x40)\n      tag_157\n      swap2\n      swap1\n      tag_158\n      jump\t// in\n    tag_157:\n      mload(0x40)\n      dup1\n      swap2\n      sub\n      swap1\n      log2\n        /* \"contracts/modules/ContestRoyalty.sol\":1675:2027  function qualifyWeekly() external payable {... */\n      jump\t// out\n        /* \"contracts/modules/ContestRoyalty.sol\":138:181  uint public constant WEEK_DURATION = 7 days */\n    tag_56:\n        /* \"contracts/modules/ContestRoyalty.sol\":175:181  7 days */\n      0x093a80\n        /* \"contracts/modules/ContestRoyalty.sol\":138:181  uint public constant WEEK_DURATION = 7 days */\n      dup2\n      jump\t// out\n        /* \"contracts/core/Ownable.sol\":85:105  address public owner */\n    tag_60:\n      0x00\n      dup1\n      sload\n      swap1\n      0x0100\n      exp\n      swap1\n      div\n      0xffffffffffffffffffffffffffffffffffffffff\n      and\n      dup2\n      jump\t// out\n        /* \"contracts/modules/ContestRoyalty.sol\":3693:4522  function getUserRoundStatus(address user, uint roundId, bool isWeekly)... */\n    tag_67:\n        /* \"contracts/modules/ContestRoyalty.sol\":3828:3842  bool qualified */\n      0x00\n        /* \"contracts/modules/ContestRoyalty.sol\":3857:3869  bool claimed */\n      dup1\n        /* \"contracts/modules/ContestRoyalty.sol\":3884:3901  uint rewardAmount */\n      0x00\n        /* \"contracts/modules/ContestRoyalty.sol\":3916:3932  bool roundClosed */\n      dup1\n        /* \"contracts/modules/ContestRoyalty.sol\":3964:3972  isWeekly */\n      dup5\n        /* \"contracts/modules/ContestRoyalty.sol\":3960:4515  if (isWeekly) {... */\n      iszero\n      tag_160\n      jumpi\n        /* \"contracts/modules/ContestRoyalty.sol\":3989:4007  RoundInfo memory r */\n      0x00\n        /* \"contracts/modules/ContestRoyalty.sol\":4010:4022  weeklyRounds */\n      0x07\n        /* \"contracts/modules/ContestRoyalty.sol\":4010:4031  weeklyRounds[roundId] */\n      0x00\n        /* \"contracts/modules/ContestRoyalty.sol\":4023:4030  roundId */\n      dup9\n        /* \"contracts/modules/ContestRoyalty.sol\":4010:4031  weeklyRounds[roundId] */\n      dup2\n      mstore\n      0x20\n      add\n      swap1\n      dup2\n      mstore\n      0x20\n      add\n      0x00\n      keccak256\n        /* \"contracts/modules/ContestRoyalty.sol\":3989:4031  RoundInfo memory r = weeklyRounds[roundId] */\n      mload(0x40)\n      dup1\n      0xe0\n      add\n      0x40\n      mstore\n      swap1\n      dup2\n      0x00\n      dup3\n      add\n      sload\n      dup2\n      mstore\n      0x20\n      add\n      0x01\n      dup3\n      add\n      sload\n      dup2\n      mstore\n      0x20\n      add\n      0x02\n      dup3\n      add\n      sload\n      dup2\n      mstore\n      0x20\n      add\n      0x03\n      dup3\n      add\n      sload\n      dup2\n      mstore\n      0x20\n      add\n      0x04\n      dup3\n      add\n      sload\n      dup2\n      mstore\n      0x20\n      add\n      0x05\n      dup3\n      add\n      sload\n      dup2\n      mstore\n      0x20\n      add\n      0x06\n      dup3\n      add\n      0x00\n      swap1\n      sload\n      swap1\n      0x0100\n      exp\n      swap1\n      div\n      0xff\n      and\n      iszero\n      iszero\n      iszero\n      iszero\n      dup2\n      mstore\n      pop\n      pop\n      swap1\n      pop\n        /* \"contracts/modules/ContestRoyalty.sol\":4058:4075  isWeeklyQualified */\n      0x09\n        /* \"contracts/modules/ContestRoyalty.sol\":4058:4084  isWeeklyQualified[roundId] */\n      0x00\n        /* \"contracts/modules/ContestRoyalty.sol\":4076:4083  roundId */\n      dup9\n        /* \"contracts/modules/ContestRoyalty.sol\":4058:4084  isWeeklyQualified[roundId] */\n      dup2\n      mstore\n      0x20\n      add\n      swap1\n      dup2\n      mstore\n      0x20\n      add\n      0x00\n      keccak256\n        /* \"contracts/modules/ContestRoyalty.sol\":4058:4090  isWeeklyQualified[roundId][user] */\n      0x00\n        /* \"contracts/modules/ContestRoyalty.sol\":4085:4089  user */\n      dup10\n        /* \"contracts/modules/ContestRoyalty.sol\":4058:4090  isWeeklyQualified[roundId][user] */\n      0xffffffffffffffffffffffffffffffffffffffff\n      and\n      0xffffffffffffffffffffffffffffffffffffffff\n      and\n      dup2\n      mstore\n      0x20\n      add\n      swap1\n      dup2\n      mstore\n      0x20\n      add\n      0x00\n      keccak256\n      0x00\n      swap1\n      sload\n      swap1\n      0x0100\n      exp\n      swap1\n      div\n      0xff\n      and\n        /* \"contracts/modules/ContestRoyalty.sol\":4046:4090  qualified = isWeeklyQualified[roundId][user] */\n      swap5\n      pop\n        /* \"contracts/modules/ContestRoyalty.sol\":4115:4131  hasClaimedWeekly */\n      0x0b\n        /* \"contracts/modules/ContestRoyalty.sol\":4115:4140  hasClaimedWeekly[roundId] */\n      0x00\n        /* \"contracts/modules/ContestRoyalty.sol\":4132:4139  roundId */\n      dup9\n        /* \"contracts/modules/ContestRoyalty.sol\":4115:4140  hasClaimedWeekly[roundId] */\n      dup2\n      mstore\n      0x20\n      add\n      swap1\n      dup2\n      mstore\n      0x20\n      add\n      0x00\n      keccak256\n        /* \"contracts/modules/ContestRoyalty.sol\":4115:4146  hasClaimedWeekly[roundId][user] */\n      0x00\n        /* \"contracts/modules/ContestRoyalty.sol\":4141:4145  user */\n      dup10\n        /* \"contracts/modules/ContestRoyalty.sol\":4115:4146  hasClaimedWeekly[roundId][user] */\n      0xffffffffffffffffffffffffffffffffffffffff\n      and\n      0xffffffffffffffffffffffffffffffffffffffff\n      and\n      dup2\n      mstore\n      0x20\n      add\n      swap1\n      dup2\n      mstore\n      0x20\n      add\n      0x00\n      keccak256\n      0x00\n      swap1\n      sload\n      swap1\n      0x0100\n      exp\n      swap1\n      div\n      0xff\n      and\n        /* \"contracts/modules/ContestRoyalty.sol\":4105:4146  claimed = hasClaimedWeekly[roundId][user] */\n      swap4\n      pop\n        /* \"contracts/modules/ContestRoyalty.sol\":4176:4177  r */\n      dup1\n        /* \"contracts/modules/ContestRoyalty.sol\":4176:4191  r.perUserReward */\n      0x60\n      add\n      mload\n        /* \"contracts/modules/ContestRoyalty.sol\":4161:4191  rewardAmount = r.perUserReward */\n      swap3\n      pop\n        /* \"contracts/modules/ContestRoyalty.sol\":4220:4221  r */\n      dup1\n        /* \"contracts/modules/ContestRoyalty.sol\":4220:4228  r.closed */\n      0xc0\n      add\n      mload\n        /* \"contracts/modules/ContestRoyalty.sol\":4206:4228  roundClosed = r.closed */\n      swap2\n      pop\n        /* \"contracts/modules/ContestRoyalty.sol\":3974:4240  {... */\n      pop\n        /* \"contracts/modules/ContestRoyalty.sol\":3960:4515  if (isWeekly) {... */\n      jump(tag_161)\n    tag_160:\n        /* \"contracts/modules/ContestRoyalty.sol\":4261:4279  RoundInfo memory r */\n      0x00\n        /* \"contracts/modules/ContestRoyalty.sol\":4282:4295  monthlyRounds */\n      0x08\n        /* \"contracts/modules/ContestRoyalty.sol\":4282:4304  monthlyRounds[roundId] */\n      0x00\n        /* \"contracts/modules/ContestRoyalty.sol\":4296:4303  roundId */\n      dup9\n        /* \"contracts/modules/ContestRoyalty.sol\":4282:4304  monthlyRounds[roundId] */\n      dup2\n      mstore\n      0x20\n      add\n      swap1\n      dup2\n      mstore\n      0x20\n      add\n      0x00\n      keccak256\n        /* \"contracts/modules/ContestRoyalty.sol\":4261:4304  RoundInfo memory r = monthlyRounds[roundId] */\n      mload(0x40)\n      dup1\n      0xe0\n      add\n      0x40\n      mstore\n      swap1\n      dup2\n      0x00\n      dup3\n      add\n      sload\n      dup2\n      mstore\n      0x20\n      add\n      0x01\n      dup3\n      add\n      sload\n      dup2\n      mstore\n      0x20\n      add\n      0x02\n      dup3\n      add\n      sload\n      dup2\n      mstore\n      0x20\n      add\n      0x03\n      dup3\n      add\n      sload\n      dup2\n      mstore\n      0x20\n      add\n      0x04\n      dup3\n      add\n      sload\n      dup2\n      mstore\n      0x20\n      add\n      0x05\n      dup3\n      add\n      sload\n      dup2\n      mstore\n      0x20\n      add\n      0x06\n      dup3\n      add\n      0x00\n      swap1\n      sload\n      swap1\n      0x0100\n      exp\n      swap1\n      div\n      0xff\n      and\n      iszero\n      iszero\n      iszero\n      iszero\n      dup2\n      mstore\n      pop\n      pop\n      swap1\n      pop\n        /* \"contracts/modules/ContestRoyalty.sol\":4331:4349  isMonthlyQualified */\n      0x0a\n        /* \"contracts/modules/ContestRoyalty.sol\":4331:4358  isMonthlyQualified[roundId] */\n      0x00\n        /* \"contracts/modules/ContestRoyalty.sol\":4350:4357  roundId */\n      dup9\n        /* \"contracts/modules/ContestRoyalty.sol\":4331:4358  isMonthlyQualified[roundId] */\n      dup2\n      mstore\n      0x20\n      add\n      swap1\n      dup2\n      mstore\n      0x20\n      add\n      0x00\n      keccak256\n        /* \"contracts/modules/ContestRoyalty.sol\":4331:4364  isMonthlyQualified[roundId][user] */\n      0x00\n        /* \"contracts/modules/ContestRoyalty.sol\":4359:4363  user */\n      dup10\n        /* \"contracts/modules/ContestRoyalty.sol\":4331:4364  isMonthlyQualified[roundId][user] */\n      0xffffffffffffffffffffffffffffffffffffffff\n      and\n      0xffffffffffffffffffffffffffffffffffffffff\n      and\n      dup2\n      mstore\n      0x20\n      add\n      swap1\n      dup2\n      mstore\n      0x20\n      add\n      0x00\n      keccak256\n      0x00\n      swap1\n      sload\n      swap1\n      0x0100\n      exp\n      swap1\n      div\n      0xff\n      and\n        /* \"contracts/modules/ContestRoyalty.sol\":4319:4364  qualified = isMonthlyQualified[roundId][user] */\n      swap5\n      pop\n        /* \"contracts/modules/ContestRoyalty.sol\":4389:4406  hasClaimedMonthly */\n      0x0c\n        /* \"contracts/modules/ContestRoyalty.sol\":4389:4415  hasClaimedMonthly[roundId] */\n      0x00\n        /* \"contracts/modules/ContestRoyalty.sol\":4407:4414  roundId */\n      dup9\n        /* \"contracts/modules/ContestRoyalty.sol\":4389:4415  hasClaimedMonthly[roundId] */\n      dup2\n      mstore\n      0x20\n      add\n      swap1\n      dup2\n      mstore\n      0x20\n      add\n      0x00\n      keccak256\n        /* \"contracts/modules/ContestRoyalty.sol\":4389:4421  hasClaimedMonthly[roundId][user] */\n      0x00\n        /* \"contracts/modules/ContestRoyalty.sol\":4416:4420  user */\n      dup10\n        /* \"contracts/modules/ContestRoyalty.sol\":4389:4421  hasClaimedMonthly[roundId][user] */\n      0xffffffffffffffffffffffffffffffffffffffff\n      and\n      0xffffffffffffffffffffffffffffffffffffffff\n      and\n      dup2\n      mstore\n      0x20\n      add\n      swap1\n      dup2\n      mstore\n      0x20\n      add\n      0x00\n      keccak256\n      0x00\n      swap1\n      sload\n      swap1\n      0x0100\n      exp\n      swap1\n      div\n      0xff\n      and\n        /* \"contracts/modules/ContestRoyalty.sol\":4379:4421  claimed = hasClaimedMonthly[roundId][user] */\n      swap4\n      pop\n        /* \"contracts/modules/ContestRoyalty.sol\":4451:4452  r */\n      dup1\n        /* \"contracts/modules/ContestRoyalty.sol\":4451:4466  r.perUserReward */\n      0x60\n      add\n      mload\n        /* \"contracts/modules/ContestRoyalty.sol\":4436:4466  rewardAmount = r.perUserReward */\n      swap3\n      pop\n        /* \"contracts/modules/ContestRoyalty.sol\":4495:4496  r */\n      dup1\n        /* \"contracts/modules/ContestRoyalty.sol\":4495:4503  r.closed */\n      0xc0\n      add\n      mload\n        /* \"contracts/modules/ContestRoyalty.sol\":4481:4503  roundClosed = r.closed */\n      swap2\n      pop\n        /* \"contracts/modules/ContestRoyalty.sol\":4246:4515  {... */\n      pop\n        /* \"contracts/modules/ContestRoyalty.sol\":3960:4515  if (isWeekly) {... */\n    tag_161:\n        /* \"contracts/modules/ContestRoyalty.sol\":3693:4522  function getUserRoundStatus(address user, uint roundId, bool isWeekly)... */\n      swap4\n      pop\n      swap4\n      pop\n      swap4\n      pop\n      swap4\n      jump\t// out\n        /* \"contracts/modules/ContestRoyalty.sol\":2035:2396  function qualifyMonthly() external payable {... */\n    tag_71:\n        /* \"contracts/modules/ContestRoyalty.sol\":2089:2109  _checkMonthlyRound() */\n      tag_163\n        /* \"contracts/modules/ContestRoyalty.sol\":2089:2107  _checkMonthlyRound */\n      tag_164\n        /* \"contracts/modules/ContestRoyalty.sol\":2089:2109  _checkMonthlyRound() */\n      jump\t// in\n    tag_163:\n        /* \"contracts/modules/ContestRoyalty.sol\":2129:2147  isMonthlyQualified */\n      0x0a\n        /* \"contracts/modules/ContestRoyalty.sol\":2129:2168  isMonthlyQualified[currentMonthlyRound] */\n      0x00\n        /* \"contracts/modules/ContestRoyalty.sol\":2148:2167  currentMonthlyRound */\n      sload(0x02)\n        /* \"contracts/modules/ContestRoyalty.sol\":2129:2168  isMonthlyQualified[currentMonthlyRound] */\n      dup2\n      mstore\n      0x20\n      add\n      swap1\n      dup2\n      mstore\n      0x20\n      add\n      0x00\n      keccak256\n        /* \"contracts/modules/ContestRoyalty.sol\":2129:2180  isMonthlyQualified[currentMonthlyRound][msg.sender] */\n      0x00\n        /* \"contracts/modules/ContestRoyalty.sol\":2169:2179  msg.sender */\n      caller\n        /* \"contracts/modules/ContestRoyalty.sol\":2129:2180  isMonthlyQualified[currentMonthlyRound][msg.sender] */\n      0xffffffffffffffffffffffffffffffffffffffff\n      and\n      0xffffffffffffffffffffffffffffffffffffffff\n      and\n      dup2\n      mstore\n      0x20\n      add\n      swap1\n      dup2\n      mstore\n      0x20\n      add\n      0x00\n      keccak256\n      0x00\n      swap1\n      sload\n      swap1\n      0x0100\n      exp\n      swap1\n      div\n      0xff\n      and\n        /* \"contracts/modules/ContestRoyalty.sol\":2128:2180  !isMonthlyQualified[currentMonthlyRound][msg.sender] */\n      iszero\n        /* \"contracts/modules/ContestRoyalty.sol\":2120:2202  require(!isMonthlyQualified[currentMonthlyRound][msg.sender], \"Already qualified\") */\n      tag_165\n      jumpi\n      mload(0x40)\n      0x08c379a000000000000000000000000000000000000000000000000000000000\n      dup2\n      mstore\n      0x04\n      add\n      tag_166\n      swap1\n      tag_155\n      jump\t// in\n    tag_166:\n      mload(0x40)\n      dup1\n      swap2\n      sub\n      swap1\n      revert\n    tag_165:\n        /* \"contracts/modules/ContestRoyalty.sol\":2213:2229  qualifiedMonthly */\n      0x06\n        /* \"contracts/modules/ContestRoyalty.sol\":2235:2245  msg.sender */\n      caller\n        /* \"contracts/modules/ContestRoyalty.sol\":2213:2246  qualifiedMonthly.push(msg.sender) */\n      swap1\n      dup1\n      0x01\n      dup2\n      sload\n      add\n      dup1\n      dup3\n      sstore\n      dup1\n      swap2\n      pop\n      pop\n      0x01\n      swap1\n      sub\n      swap1\n      0x00\n      mstore\n      keccak256(0x00, 0x20)\n      add\n      0x00\n      swap1\n      swap2\n      swap1\n      swap2\n      swap1\n      swap2\n      0x0100\n      exp\n      dup2\n      sload\n      dup2\n      0xffffffffffffffffffffffffffffffffffffffff\n      mul\n      not\n      and\n      swap1\n      dup4\n      0xffffffffffffffffffffffffffffffffffffffff\n      and\n      mul\n      or\n      swap1\n      sstore\n      pop\n        /* \"contracts/modules/ContestRoyalty.sol\":2311:2315  true */\n      0x01\n        /* \"contracts/modules/ContestRoyalty.sol\":2257:2275  isMonthlyQualified */\n      0x0a\n        /* \"contracts/modules/ContestRoyalty.sol\":2257:2296  isMonthlyQualified[currentMonthlyRound] */\n      0x00\n        /* \"contracts/modules/ContestRoyalty.sol\":2276:2295  currentMonthlyRound */\n      sload(0x02)\n        /* \"contracts/modules/ContestRoyalty.sol\":2257:2296  isMonthlyQualified[currentMonthlyRound] */\n      dup2\n      mstore\n      0x20\n      add\n      swap1\n      dup2\n      mstore\n      0x20\n      add\n      0x00\n      keccak256\n        /* \"contracts/modules/ContestRoyalty.sol\":2257:2308  isMonthlyQualified[currentMonthlyRound][msg.sender] */\n      0x00\n        /* \"contracts/modules/ContestRoyalty.sol\":2297:2307  msg.sender */\n      caller\n        /* \"contracts/modules/ContestRoyalty.sol\":2257:2308  isMonthlyQualified[currentMonthlyRound][msg.sender] */\n      0xffffffffffffffffffffffffffffffffffffffff\n      and\n      0xffffffffffffffffffffffffffffffffffffffff\n      and\n      dup2\n      mstore\n      0x20\n      add\n      swap1\n      dup2\n      mstore\n      0x20\n      add\n      0x00\n      keccak256\n      0x00\n        /* \"contracts/modules/ContestRoyalty.sol\":2257:2315  isMonthlyQualified[currentMonthlyRound][msg.sender] = true */\n      0x0100\n      exp\n      dup2\n      sload\n      dup2\n      0xff\n      mul\n      not\n      and\n      swap1\n      dup4\n      iszero\n      iszero\n      mul\n      or\n      swap1\n      sstore\n      pop\n        /* \"contracts/modules/ContestRoyalty.sol\":2345:2355  msg.sender */\n      caller\n        /* \"contracts/modules/ContestRoyalty.sol\":2331:2388  UserQualified(msg.sender, \"Monthly\", currentMonthlyRound) */\n      0xffffffffffffffffffffffffffffffffffffffff\n      and\n      0x577158c2e8120577a90c3a1ee00ad3d7acbadba003577f10f7ba8ae958c5af42\n        /* \"contracts/modules/ContestRoyalty.sol\":2368:2387  currentMonthlyRound */\n      sload(0x02)\n        /* \"contracts/modules/ContestRoyalty.sol\":2331:2388  UserQualified(msg.sender, \"Monthly\", currentMonthlyRound) */\n      mload(0x40)\n      tag_168\n      swap2\n      swap1\n      tag_169\n      jump\t// in\n    tag_168:\n      mload(0x40)\n      dup1\n      swap2\n      sub\n      swap1\n      log2\n        /* \"contracts/modules/ContestRoyalty.sol\":2035:2396  function qualifyMonthly() external payable {... */\n      jump\t// out\n        /* \"contracts/modules/ContestRoyalty.sol\":988:1053  mapping(uint => mapping(address => bool)) public hasClaimedWeekly */\n    tag_75:\n      mstore(0x20, 0x0b)\n      dup2\n      0x00\n      mstore\n      mstore(0x20, keccak256(0x00, 0x40))\n      dup1\n      0x00\n      mstore\n      keccak256(0x00, 0x40)\n      0x00\n      swap2\n      pop\n      swap2\n      pop\n      swap1\n      sload\n      swap1\n      0x0100\n      exp\n      swap1\n      div\n      0xff\n      and\n      dup2\n      jump\t// out\n        /* \"contracts/modules/ContestRoyalty.sol\":680:726  mapping(uint => RoundInfo) public weeklyRounds */\n    tag_80:\n      mstore(0x20, 0x07)\n      dup1\n      0x00\n      mstore\n      keccak256(0x00, 0x40)\n      0x00\n      swap2\n      pop\n      swap1\n      pop\n      dup1\n      0x00\n      add\n      sload\n      swap1\n      dup1\n      0x01\n      add\n      sload\n      swap1\n      dup1\n      0x02\n      add\n      sload\n      swap1\n      dup1\n      0x03\n      add\n      sload\n      swap1\n      dup1\n      0x04\n      add\n      sload\n      swap1\n      dup1\n      0x05\n      add\n      sload\n      swap1\n      dup1\n      0x06\n      add\n      0x00\n      swap1\n      sload\n      swap1\n      0x0100\n      exp\n      swap1\n      div\n      0xff\n      and\n      swap1\n      pop\n      dup8\n      jump\t// out\n        /* \"contracts/modules/ContestRoyalty.sol\":359:387  uint public lastMonthlyReset */\n    tag_85:\n      sload(0x04)\n      dup2\n      jump\t// out\n        /* \"contracts/modules/ContestRoyalty.sol\":435:468  address[] public qualifiedMonthly */\n    tag_90:\n      0x06\n      dup2\n      dup2\n      sload\n      dup2\n      lt\n      tag_170\n      jumpi\n      0x00\n      dup1\n      revert\n    tag_170:\n      swap1\n      0x00\n      mstore\n      keccak256(0x00, 0x20)\n      add\n      0x00\n      swap2\n      pop\n      sload\n      swap1\n      0x0100\n      exp\n      swap1\n      div\n      0xffffffffffffffffffffffffffffffffffffffff\n      and\n      dup2\n      jump\t// out\n        /* \"contracts/modules/ContestRoyalty.sol\":396:428  address[] public qualifiedWeekly */\n    tag_95:\n      0x05\n      dup2\n      dup2\n      sload\n      dup2\n      lt\n      tag_172\n      jumpi\n      0x00\n      dup1\n      revert\n    tag_172:\n      swap1\n      0x00\n      mstore\n      keccak256(0x00, 0x20)\n      add\n      0x00\n      swap2\n      pop\n      sload\n      swap1\n      0x0100\n      exp\n      swap1\n      div\n      0xffffffffffffffffffffffffffffffffffffffff\n      and\n      dup2\n      jump\t// out\n        /* \"contracts/modules/ContestRoyalty.sol\":818:884  mapping(uint => mapping(address => bool)) public isWeeklyQualified */\n    tag_100:\n      mstore(0x20, 0x09)\n      dup2\n      0x00\n      mstore\n      mstore(0x20, keccak256(0x00, 0x40))\n      dup1\n      0x00\n      mstore\n      keccak256(0x00, 0x40)\n      0x00\n      swap2\n      pop\n      swap2\n      pop\n      swap1\n      sload\n      swap1\n      0x0100\n      exp\n      swap1\n      div\n      0xff\n      and\n      dup2\n      jump\t// out\n        /* \"contracts/modules/ContestRoyalty.sol\":325:352  uint public lastWeeklyReset */\n    tag_104:\n      sload(0x03)\n      dup2\n      jump\t// out\n        /* \"contracts/modules/ContestRoyalty.sol\":283:318  uint public currentMonthlyRound = 1 */\n    tag_108:\n      sload(0x02)\n      dup2\n      jump\t// out\n        /* \"contracts/modules/ContestRoyalty.sol\":242:276  uint public currentWeeklyRound = 1 */\n    tag_112:\n      sload(0x01)\n      dup2\n      jump\t// out\n        /* \"contracts/modules/ContestRoyalty.sol\":733:780  mapping(uint => RoundInfo) public monthlyRounds */\n    tag_117:\n      mstore(0x20, 0x08)\n      dup1\n      0x00\n      mstore\n      keccak256(0x00, 0x40)\n      0x00\n      swap2\n      pop\n      swap1\n      pop\n      dup1\n      0x00\n      add\n      sload\n      swap1\n      dup1\n      0x01\n      add\n      sload\n      swap1\n      dup1\n      0x02\n      add\n      sload\n      swap1\n      dup1\n      0x03\n      add\n      sload\n      swap1\n      dup1\n      0x04\n      add\n      sload\n      swap1\n      dup1\n      0x05\n      add\n      sload\n      swap1\n      dup1\n      0x06\n      add\n      0x00\n      swap1\n      sload\n      swap1\n      0x0100\n      exp\n      swap1\n      div\n      0xff\n      and\n      swap1\n      pop\n      dup8\n      jump\t// out\n        /* \"contracts/core/Ownable.sol\":444:666  function transferOwnership(address newOwner) external onlyOwner {... */\n    tag_123:\n        /* \"contracts/core/Ownable.sol\":374:379  owner */\n      0x00\n      dup1\n      sload\n      swap1\n      0x0100\n      exp\n      swap1\n      div\n      0xffffffffffffffffffffffffffffffffffffffff\n      and\n        /* \"contracts/core/Ownable.sol\":360:379  msg.sender == owner */\n      0xffffffffffffffffffffffffffffffffffffffff\n      and\n        /* \"contracts/core/Ownable.sol\":360:370  msg.sender */\n      caller\n        /* \"contracts/core/Ownable.sol\":360:379  msg.sender == owner */\n      0xffffffffffffffffffffffffffffffffffffffff\n      and\n      eq\n        /* \"contracts/core/Ownable.sol\":352:416  require(msg.sender == owner, \"Ownable: caller is not the owner\") */\n      tag_175\n      jumpi\n      mload(0x40)\n      0x08c379a000000000000000000000000000000000000000000000000000000000\n      dup2\n      mstore\n      0x04\n      add\n      tag_176\n      swap1\n      tag_177\n      jump\t// in\n    tag_176:\n      mload(0x40)\n      dup1\n      swap2\n      sub\n      swap1\n      revert\n    tag_175:\n        /* \"contracts/core/Ownable.sol\":547:548  0 */\n      0x00\n        /* \"contracts/core/Ownable.sol\":527:549  newOwner != address(0) */\n      0xffffffffffffffffffffffffffffffffffffffff\n      and\n        /* \"contracts/core/Ownable.sol\":527:535  newOwner */\n      dup2\n        /* \"contracts/core/Ownable.sol\":527:549  newOwner != address(0) */\n      0xffffffffffffffffffffffffffffffffffffffff\n      and\n      sub\n        /* \"contracts/core/Ownable.sol\":519:578  require(newOwner != address(0), \"New owner cannot be zero\") */\n      tag_179\n      jumpi\n      mload(0x40)\n      0x08c379a000000000000000000000000000000000000000000000000000000000\n      dup2\n      mstore\n      0x04\n      add\n      tag_180\n      swap1\n      tag_181\n      jump\t// in\n    tag_180:\n      mload(0x40)\n      dup1\n      swap2\n      sub\n      swap1\n      revert\n    tag_179:\n        /* \"contracts/core/Ownable.sol\":622:630  newOwner */\n      dup1\n        /* \"contracts/core/Ownable.sol\":594:631  OwnershipTransferred(owner, newOwner) */\n      0xffffffffffffffffffffffffffffffffffffffff\n      and\n        /* \"contracts/core/Ownable.sol\":615:620  owner */\n      0x00\n      dup1\n      sload\n      swap1\n      0x0100\n      exp\n      swap1\n      div\n      0xffffffffffffffffffffffffffffffffffffffff\n      and\n        /* \"contracts/core/Ownable.sol\":594:631  OwnershipTransferred(owner, newOwner) */\n      0xffffffffffffffffffffffffffffffffffffffff\n      and\n      0x8be0079c531659141344cd1fd0a4f28419497f9722a3daafe3b4186f6b6457e0\n      mload(0x40)\n      mload(0x40)\n      dup1\n      swap2\n      sub\n      swap1\n      log3\n        /* \"contracts/core/Ownable.sol\":650:658  newOwner */\n      dup1\n        /* \"contracts/core/Ownable.sol\":642:647  owner */\n      0x00\n      dup1\n        /* \"contracts/core/Ownable.sol\":642:658  owner = newOwner */\n      0x0100\n      exp\n      dup2\n      sload\n      dup2\n      0xffffffffffffffffffffffffffffffffffffffff\n      mul\n      not\n      and\n      swap1\n      dup4\n      0xffffffffffffffffffffffffffffffffffffffff\n      and\n      mul\n      or\n      swap1\n      sstore\n      pop\n        /* \"contracts/core/Ownable.sol\":444:666  function transferOwnership(address newOwner) external onlyOwner {... */\n      pop\n      jump\t// out\n        /* \"contracts/modules/ContestRoyalty.sol\":4564:4720  function _checkWeeklyRound() internal {... */\n    tag_152:\n        /* \"contracts/modules/ContestRoyalty.sol\":175:181  7 days */\n      0x093a80\n        /* \"contracts/modules/ContestRoyalty.sol\":4636:4651  lastWeeklyReset */\n      sload(0x03)\n        /* \"contracts/modules/ContestRoyalty.sol\":4636:4667  lastWeeklyReset + WEEK_DURATION */\n      tag_183\n      swap2\n      swap1\n      tag_184\n      jump\t// in\n    tag_183:\n        /* \"contracts/modules/ContestRoyalty.sol\":4617:4632  block.timestamp */\n      timestamp\n        /* \"contracts/modules/ContestRoyalty.sol\":4617:4667  block.timestamp >= lastWeeklyReset + WEEK_DURATION */\n      lt\n        /* \"contracts/modules/ContestRoyalty.sol\":4613:4713  if (block.timestamp >= lastWeeklyReset + WEEK_DURATION) {... */\n      tag_185\n      jumpi\n        /* \"contracts/modules/ContestRoyalty.sol\":4684:4701  _endWeeklyRound() */\n      tag_186\n        /* \"contracts/modules/ContestRoyalty.sol\":4684:4699  _endWeeklyRound */\n      tag_187\n        /* \"contracts/modules/ContestRoyalty.sol\":4684:4701  _endWeeklyRound() */\n      jump\t// in\n    tag_186:\n        /* \"contracts/modules/ContestRoyalty.sol\":4613:4713  if (block.timestamp >= lastWeeklyReset + WEEK_DURATION) {... */\n    tag_185:\n        /* \"contracts/modules/ContestRoyalty.sol\":4564:4720  function _checkWeeklyRound() internal {... */\n      jump\t// out\n        /* \"contracts/modules/ContestRoyalty.sol\":4728:4888  function _checkMonthlyRound() internal {... */\n    tag_164:\n        /* \"contracts/modules/ContestRoyalty.sol\":226:233  30 days */\n      0x278d00\n        /* \"contracts/modules/ContestRoyalty.sol\":4801:4817  lastMonthlyReset */\n      sload(0x04)\n        /* \"contracts/modules/ContestRoyalty.sol\":4801:4834  lastMonthlyReset + MONTH_DURATION */\n      tag_189\n      swap2\n      swap1\n      tag_184\n      jump\t// in\n    tag_189:\n        /* \"contracts/modules/ContestRoyalty.sol\":4782:4797  block.timestamp */\n      timestamp\n        /* \"contracts/modules/ContestRoyalty.sol\":4782:4834  block.timestamp >= lastMonthlyReset + MONTH_DURATION */\n      lt\n        /* \"contracts/modules/ContestRoyalty.sol\":4778:4881  if (block.timestamp >= lastMonthlyReset + MONTH_DURATION) {... */\n      tag_190\n      jumpi\n        /* \"contracts/modules/ContestRoyalty.sol\":4851:4869  _endMonthlyRound() */\n      tag_191\n        /* \"contracts/modules/ContestRoyalty.sol\":4851:4867  _endMonthlyRound */\n      tag_192\n        /* \"contracts/modules/ContestRoyalty.sol\":4851:4869  _endMonthlyRound() */\n      jump\t// in\n    tag_191:\n        /* \"contracts/modules/ContestRoyalty.sol\":4778:4881  if (block.timestamp >= lastMonthlyReset + MONTH_DURATION) {... */\n    tag_190:\n        /* \"contracts/modules/ContestRoyalty.sol\":4728:4888  function _checkMonthlyRound() internal {... */\n      jump\t// out\n        /* \"contracts/modules/ContestRoyalty.sol\":4925:5619  function _endWeeklyRound() internal {... */\n    tag_187:\n        /* \"contracts/modules/ContestRoyalty.sol\":4972:4982  uint users */\n      0x00\n        /* \"contracts/modules/ContestRoyalty.sol\":4985:5000  qualifiedWeekly */\n      0x05\n        /* \"contracts/modules/ContestRoyalty.sol\":4985:5007  qualifiedWeekly.length */\n      dup1\n      sload\n      swap1\n      pop\n        /* \"contracts/modules/ContestRoyalty.sol\":4972:5007  uint users = qualifiedWeekly.length */\n      swap1\n      pop\n        /* \"contracts/modules/ContestRoyalty.sol\":5018:5028  uint total */\n      0x00\n        /* \"contracts/modules/ContestRoyalty.sol\":5055:5056  2 */\n      0x02\n        /* \"contracts/modules/ContestRoyalty.sol\":5031:5052  address(this).balance */\n      selfbalance\n        /* \"contracts/modules/ContestRoyalty.sol\":5031:5056  address(this).balance / 2 */\n      tag_194\n      swap2\n      swap1\n      tag_195\n      jump\t// in\n    tag_194:\n        /* \"contracts/modules/ContestRoyalty.sol\":5018:5056  uint total = address(this).balance / 2 */\n      swap1\n      pop\n        /* \"contracts/modules/ContestRoyalty.sol\":5067:5079  uint perUser */\n      0x00\n        /* \"contracts/modules/ContestRoyalty.sol\":5090:5091  0 */\n      dup1\n        /* \"contracts/modules/ContestRoyalty.sol\":5082:5087  users */\n      dup4\n        /* \"contracts/modules/ContestRoyalty.sol\":5082:5091  users > 0 */\n      gt\n        /* \"contracts/modules/ContestRoyalty.sol\":5082:5111  users > 0 ? total / users : 0 */\n      tag_196\n      jumpi\n        /* \"contracts/modules/ContestRoyalty.sol\":5110:5111  0 */\n      0x00\n        /* \"contracts/modules/ContestRoyalty.sol\":5082:5111  users > 0 ? total / users : 0 */\n      jump(tag_197)\n    tag_196:\n        /* \"contracts/modules/ContestRoyalty.sol\":5102:5107  users */\n      dup3\n        /* \"contracts/modules/ContestRoyalty.sol\":5094:5099  total */\n      dup3\n        /* \"contracts/modules/ContestRoyalty.sol\":5094:5107  total / users */\n      tag_198\n      swap2\n      swap1\n      tag_195\n      jump\t// in\n    tag_198:\n        /* \"contracts/modules/ContestRoyalty.sol\":5082:5111  users > 0 ? total / users : 0 */\n    tag_197:\n        /* \"contracts/modules/ContestRoyalty.sol\":5067:5111  uint perUser = users > 0 ? total / users : 0 */\n      swap1\n      pop\n        /* \"contracts/modules/ContestRoyalty.sol\":5159:5427  RoundInfo({... */\n      mload(0x40)\n      dup1\n      0xe0\n      add\n      0x40\n      mstore\n      dup1\n        /* \"contracts/modules/ContestRoyalty.sol\":5188:5206  currentWeeklyRound */\n      sload(0x01)\n        /* \"contracts/modules/ContestRoyalty.sol\":5159:5427  RoundInfo({... */\n      dup2\n      mstore\n      0x20\n      add\n        /* \"contracts/modules/ContestRoyalty.sol\":5233:5238  users */\n      dup5\n        /* \"contracts/modules/ContestRoyalty.sol\":5159:5427  RoundInfo({... */\n      dup2\n      mstore\n      0x20\n      add\n        /* \"contracts/modules/ContestRoyalty.sol\":5266:5271  total */\n      dup4\n        /* \"contracts/modules/ContestRoyalty.sol\":5159:5427  RoundInfo({... */\n      dup2\n      mstore\n      0x20\n      add\n        /* \"contracts/modules/ContestRoyalty.sol\":5301:5308  perUser */\n      dup3\n        /* \"contracts/modules/ContestRoyalty.sol\":5159:5427  RoundInfo({... */\n      dup2\n      mstore\n      0x20\n      add\n        /* \"contracts/modules/ContestRoyalty.sol\":5334:5349  lastWeeklyReset */\n      sload(0x03)\n        /* \"contracts/modules/ContestRoyalty.sol\":5159:5427  RoundInfo({... */\n      dup2\n      mstore\n      0x20\n      add\n        /* \"contracts/modules/ContestRoyalty.sol\":5373:5388  block.timestamp */\n      timestamp\n        /* \"contracts/modules/ContestRoyalty.sol\":5159:5427  RoundInfo({... */\n      dup2\n      mstore\n      0x20\n      add\n        /* \"contracts/modules/ContestRoyalty.sol\":5411:5415  true */\n      0x01\n        /* \"contracts/modules/ContestRoyalty.sol\":5159:5427  RoundInfo({... */\n      iszero\n      iszero\n      dup2\n      mstore\n      pop\n        /* \"contracts/modules/ContestRoyalty.sol\":5124:5136  weeklyRounds */\n      0x07\n        /* \"contracts/modules/ContestRoyalty.sol\":5124:5156  weeklyRounds[currentWeeklyRound] */\n      0x00\n        /* \"contracts/modules/ContestRoyalty.sol\":5137:5155  currentWeeklyRound */\n      sload(0x01)\n        /* \"contracts/modules/ContestRoyalty.sol\":5124:5156  weeklyRounds[currentWeeklyRound] */\n      dup2\n      mstore\n      0x20\n      add\n      swap1\n      dup2\n      mstore\n      0x20\n      add\n      0x00\n      keccak256\n        /* \"contracts/modules/ContestRoyalty.sol\":5124:5427  weeklyRounds[currentWeeklyRound] = RoundInfo({... */\n      0x00\n      dup3\n      add\n      mload\n      dup2\n      0x00\n      add\n      sstore\n      0x20\n      dup3\n      add\n      mload\n      dup2\n      0x01\n      add\n      sstore\n      0x40\n      dup3\n      add\n      mload\n      dup2\n      0x02\n      add\n      sstore\n      0x60\n      dup3\n      add\n      mload\n      dup2\n      0x03\n      add\n      sstore\n      0x80\n      dup3\n      add\n      mload\n      dup2\n      0x04\n      add\n      sstore\n      0xa0\n      dup3\n      add\n      mload\n      dup2\n      0x05\n      add\n      sstore\n      0xc0\n      dup3\n      add\n      mload\n      dup2\n      0x06\n      add\n      exp(0x0100, 0x00)\n      dup2\n      sload\n      dup2\n      0xff\n      mul\n      not\n      and\n      swap1\n      dup4\n      iszero\n      iszero\n      mul\n      or\n      swap1\n      sstore\n      pop\n      swap1\n      pop\n      pop\n        /* \"contracts/modules/ContestRoyalty.sol\":5445:5501  RoundEnded(\"Weekly\", currentWeeklyRound, users, perUser) */\n      0xb486e0c214f6d65e1072cc27c74ada7881ca4cc7d3b577a0c141f48ba0fbfbf5\n        /* \"contracts/modules/ContestRoyalty.sol\":5466:5484  currentWeeklyRound */\n      sload(0x01)\n        /* \"contracts/modules/ContestRoyalty.sol\":5486:5491  users */\n      dup5\n        /* \"contracts/modules/ContestRoyalty.sol\":5493:5500  perUser */\n      dup4\n        /* \"contracts/modules/ContestRoyalty.sol\":5445:5501  RoundEnded(\"Weekly\", currentWeeklyRound, users, perUser) */\n      mload(0x40)\n      tag_199\n      swap4\n      swap3\n      swap2\n      swap1\n      tag_200\n      jump\t// in\n    tag_199:\n      mload(0x40)\n      dup1\n      swap2\n      sub\n      swap1\n      log1\n        /* \"contracts/modules/ContestRoyalty.sol\":5514:5532  currentWeeklyRound */\n      0x01\n      0x00\n        /* \"contracts/modules/ContestRoyalty.sol\":5514:5534  currentWeeklyRound++ */\n      dup2\n      sload\n      dup1\n      swap3\n      swap2\n      swap1\n      tag_201\n      swap1\n      tag_202\n      jump\t// in\n    tag_201:\n      swap2\n      swap1\n      pop\n      sstore\n      pop\n        /* \"contracts/modules/ContestRoyalty.sol\":5563:5578  block.timestamp */\n      timestamp\n        /* \"contracts/modules/ContestRoyalty.sol\":5545:5560  lastWeeklyReset */\n      0x03\n        /* \"contracts/modules/ContestRoyalty.sol\":5545:5578  lastWeeklyReset = block.timestamp */\n      dup2\n      swap1\n      sstore\n      pop\n        /* \"contracts/modules/ContestRoyalty.sol\":5596:5611  qualifiedWeekly */\n      0x05\n      0x00\n        /* \"contracts/modules/ContestRoyalty.sol\":5589:5611  delete qualifiedWeekly */\n      tag_203\n      swap2\n      swap1\n      tag_204\n      jump\t// in\n    tag_203:\n        /* \"contracts/modules/ContestRoyalty.sol\":4961:5619  {... */\n      pop\n      pop\n      pop\n        /* \"contracts/modules/ContestRoyalty.sol\":4925:5619  function _endWeeklyRound() internal {... */\n      jump\t// out\n        /* \"contracts/modules/ContestRoyalty.sol\":5627:6332  function _endMonthlyRound() internal {... */\n    tag_192:\n        /* \"contracts/modules/ContestRoyalty.sol\":5675:5685  uint users */\n      0x00\n        /* \"contracts/modules/ContestRoyalty.sol\":5688:5704  qualifiedMonthly */\n      0x06\n        /* \"contracts/modules/ContestRoyalty.sol\":5688:5711  qualifiedMonthly.length */\n      dup1\n      sload\n      swap1\n      pop\n        /* \"contracts/modules/ContestRoyalty.sol\":5675:5711  uint users = qualifiedMonthly.length */\n      swap1\n      pop\n        /* \"contracts/modules/ContestRoyalty.sol\":5722:5732  uint total */\n      0x00\n        /* \"contracts/modules/ContestRoyalty.sol\":5759:5760  2 */\n      0x02\n        /* \"contracts/modules/ContestRoyalty.sol\":5735:5756  address(this).balance */\n      selfbalance\n        /* \"contracts/modules/ContestRoyalty.sol\":5735:5760  address(this).balance / 2 */\n      tag_206\n      swap2\n      swap1\n      tag_195\n      jump\t// in\n    tag_206:\n        /* \"contracts/modules/ContestRoyalty.sol\":5722:5760  uint total = address(this).balance / 2 */\n      swap1\n      pop\n        /* \"contracts/modules/ContestRoyalty.sol\":5771:5783  uint perUser */\n      0x00\n        /* \"contracts/modules/ContestRoyalty.sol\":5794:5795  0 */\n      dup1\n        /* \"contracts/modules/ContestRoyalty.sol\":5786:5791  users */\n      dup4\n        /* \"contracts/modules/ContestRoyalty.sol\":5786:5795  users > 0 */\n      gt\n        /* \"contracts/modules/ContestRoyalty.sol\":5786:5815  users > 0 ? total / users : 0 */\n      tag_207\n      jumpi\n        /* \"contracts/modules/ContestRoyalty.sol\":5814:5815  0 */\n      0x00\n        /* \"contracts/modules/ContestRoyalty.sol\":5786:5815  users > 0 ? total / users : 0 */\n      jump(tag_208)\n    tag_207:\n        /* \"contracts/modules/ContestRoyalty.sol\":5806:5811  users */\n      dup3\n        /* \"contracts/modules/ContestRoyalty.sol\":5798:5803  total */\n      dup3\n        /* \"contracts/modules/ContestRoyalty.sol\":5798:5811  total / users */\n      tag_209\n      swap2\n      swap1\n      tag_195\n      jump\t// in\n    tag_209:\n        /* \"contracts/modules/ContestRoyalty.sol\":5786:5815  users > 0 ? total / users : 0 */\n    tag_208:\n        /* \"contracts/modules/ContestRoyalty.sol\":5771:5815  uint perUser = users > 0 ? total / users : 0 */\n      swap1\n      pop\n        /* \"contracts/modules/ContestRoyalty.sol\":5865:6135  RoundInfo({... */\n      mload(0x40)\n      dup1\n      0xe0\n      add\n      0x40\n      mstore\n      dup1\n        /* \"contracts/modules/ContestRoyalty.sol\":5894:5913  currentMonthlyRound */\n      sload(0x02)\n        /* \"contracts/modules/ContestRoyalty.sol\":5865:6135  RoundInfo({... */\n      dup2\n      mstore\n      0x20\n      add\n        /* \"contracts/modules/ContestRoyalty.sol\":5940:5945  users */\n      dup5\n        /* \"contracts/modules/ContestRoyalty.sol\":5865:6135  RoundInfo({... */\n      dup2\n      mstore\n      0x20\n      add\n        /* \"contracts/modules/ContestRoyalty.sol\":5973:5978  total */\n      dup4\n        /* \"contracts/modules/ContestRoyalty.sol\":5865:6135  RoundInfo({... */\n      dup2\n      mstore\n      0x20\n      add\n        /* \"contracts/modules/ContestRoyalty.sol\":6008:6015  perUser */\n      dup3\n        /* \"contracts/modules/ContestRoyalty.sol\":5865:6135  RoundInfo({... */\n      dup2\n      mstore\n      0x20\n      add\n        /* \"contracts/modules/ContestRoyalty.sol\":6041:6057  lastMonthlyReset */\n      sload(0x04)\n        /* \"contracts/modules/ContestRoyalty.sol\":5865:6135  RoundInfo({... */\n      dup2\n      mstore\n      0x20\n      add\n        /* \"contracts/modules/ContestRoyalty.sol\":6081:6096  block.timestamp */\n      timestamp\n        /* \"contracts/modules/ContestRoyalty.sol\":5865:6135  RoundInfo({... */\n      dup2\n      mstore\n      0x20\n      add\n        /* \"contracts/modules/ContestRoyalty.sol\":6119:6123  true */\n      0x01\n        /* \"contracts/modules/ContestRoyalty.sol\":5865:6135  RoundInfo({... */\n      iszero\n      iszero\n      dup2\n      mstore\n      pop\n        /* \"contracts/modules/ContestRoyalty.sol\":5828:5841  monthlyRounds */\n      0x08\n        /* \"contracts/modules/ContestRoyalty.sol\":5828:5862  monthlyRounds[currentMonthlyRound] */\n      0x00\n        /* \"contracts/modules/ContestRoyalty.sol\":5842:5861  currentMonthlyRound */\n      sload(0x02)\n        /* \"contracts/modules/ContestRoyalty.sol\":5828:5862  monthlyRounds[currentMonthlyRound] */\n      dup2\n      mstore\n      0x20\n      add\n      swap1\n      dup2\n      mstore\n      0x20\n      add\n      0x00\n      keccak256\n        /* \"contracts/modules/ContestRoyalty.sol\":5828:6135  monthlyRounds[currentMonthlyRound] = RoundInfo({... */\n      0x00\n      dup3\n      add\n      mload\n      dup2\n      0x00\n      add\n      sstore\n      0x20\n      dup3\n      add\n      mload\n      dup2\n      0x01\n      add\n      sstore\n      0x40\n      dup3\n      add\n      mload\n      dup2\n      0x02\n      add\n      sstore\n      0x60\n      dup3\n      add\n      mload\n      dup2\n      0x03\n      add\n      sstore\n      0x80\n      dup3\n      add\n      mload\n      dup2\n      0x04\n      add\n      sstore\n      0xa0\n      dup3\n      add\n      mload\n      dup2\n      0x05\n      add\n      sstore\n      0xc0\n      dup3\n      add\n      mload\n      dup2\n      0x06\n      add\n      exp(0x0100, 0x00)\n      dup2\n      sload\n      dup2\n      0xff\n      mul\n      not\n      and\n      swap1\n      dup4\n      iszero\n      iszero\n      mul\n      or\n      swap1\n      sstore\n      pop\n      swap1\n      pop\n      pop\n        /* \"contracts/modules/ContestRoyalty.sol\":6153:6211  RoundEnded(\"Monthly\", currentMonthlyRound, users, perUser) */\n      0xb486e0c214f6d65e1072cc27c74ada7881ca4cc7d3b577a0c141f48ba0fbfbf5\n        /* \"contracts/modules/ContestRoyalty.sol\":6175:6194  currentMonthlyRound */\n      sload(0x02)\n        /* \"contracts/modules/ContestRoyalty.sol\":6196:6201  users */\n      dup5\n        /* \"contracts/modules/ContestRoyalty.sol\":6203:6210  perUser */\n      dup4\n        /* \"contracts/modules/ContestRoyalty.sol\":6153:6211  RoundEnded(\"Monthly\", currentMonthlyRound, users, perUser) */\n      mload(0x40)\n      tag_210\n      swap4\n      swap3\n      swap2\n      swap1\n      tag_211\n      jump\t// in\n    tag_210:\n      mload(0x40)\n      dup1\n      swap2\n      sub\n      swap1\n      log1\n        /* \"contracts/modules/ContestRoyalty.sol\":6224:6243  currentMonthlyRound */\n      0x02\n      0x00\n        /* \"contracts/modules/ContestRoyalty.sol\":6224:6245  currentMonthlyRound++ */\n      dup2\n      sload\n      dup1\n      swap3\n      swap2\n      swap1\n      tag_212\n      swap1\n      tag_202\n      jump\t// in\n    tag_212:\n      swap2\n      swap1\n      pop\n      sstore\n      pop\n        /* \"contracts/modules/ContestRoyalty.sol\":6275:6290  block.timestamp */\n      timestamp\n        /* \"contracts/modules/ContestRoyalty.sol\":6256:6272  lastMonthlyReset */\n      0x04\n        /* \"contracts/modules/ContestRoyalty.sol\":6256:6290  lastMonthlyReset = block.timestamp */\n      dup2\n      swap1\n      sstore\n      pop\n        /* \"contracts/modules/ContestRoyalty.sol\":6308:6324  qualifiedMonthly */\n      0x06\n      0x00\n        /* \"contracts/modules/ContestRoyalty.sol\":6301:6324  delete qualifiedMonthly */\n      tag_213\n      swap2\n      swap1\n      tag_204\n      jump\t// in\n    tag_213:\n        /* \"contracts/modules/ContestRoyalty.sol\":5664:6332  {... */\n      pop\n      pop\n      pop\n        /* \"contracts/modules/ContestRoyalty.sol\":5627:6332  function _endMonthlyRound() internal {... */\n      jump\t// out\n    tag_204:\n      pop\n      dup1\n      sload\n      0x00\n      dup3\n      sstore\n      swap1\n      0x00\n      mstore\n      keccak256(0x00, 0x20)\n      swap1\n      dup2\n      add\n      swap1\n      tag_215\n      swap2\n      swap1\n      tag_216\n      jump\t// in\n    tag_215:\n      pop\n      jump\t// out\n    tag_216:\n    tag_217:\n      dup1\n      dup3\n      gt\n      iszero\n      tag_218\n      jumpi\n      0x00\n      dup2\n      0x00\n      swap1\n      sstore\n      pop\n      0x01\n      add\n      jump(tag_217)\n    tag_218:\n      pop\n      swap1\n      jump\t// out\n        /* \"#utility.yul\":88:205   */\n    tag_220:\n        /* \"#utility.yul\":197:198   */\n      0x00\n        /* \"#utility.yul\":194:195   */\n      dup1\n        /* \"#utility.yul\":187:199   */\n      revert\n        /* \"#utility.yul\":334:411   */\n    tag_222:\n        /* \"#utility.yul\":371:378   */\n      0x00\n        /* \"#utility.yul\":400:405   */\n      dup2\n        /* \"#utility.yul\":389:405   */\n      swap1\n      pop\n        /* \"#utility.yul\":334:411   */\n      swap2\n      swap1\n      pop\n      jump\t// out\n        /* \"#utility.yul\":417:539   */\n    tag_223:\n        /* \"#utility.yul\":490:514   */\n      tag_262\n        /* \"#utility.yul\":508:513   */\n      dup2\n        /* \"#utility.yul\":490:514   */\n      tag_222\n      jump\t// in\n    tag_262:\n        /* \"#utility.yul\":483:488   */\n      dup2\n        /* \"#utility.yul\":480:515   */\n      eq\n        /* \"#utility.yul\":470:533   */\n      tag_263\n      jumpi\n        /* \"#utility.yul\":529:530   */\n      0x00\n        /* \"#utility.yul\":526:527   */\n      dup1\n        /* \"#utility.yul\":519:531   */\n      revert\n        /* \"#utility.yul\":470:533   */\n    tag_263:\n        /* \"#utility.yul\":417:539   */\n      pop\n      jump\t// out\n        /* \"#utility.yul\":545:684   */\n    tag_224:\n        /* \"#utility.yul\":591:596   */\n      0x00\n        /* \"#utility.yul\":629:635   */\n      dup2\n        /* \"#utility.yul\":616:636   */\n      calldataload\n        /* \"#utility.yul\":607:636   */\n      swap1\n      pop\n        /* \"#utility.yul\":645:678   */\n      tag_265\n        /* \"#utility.yul\":672:677   */\n      dup2\n        /* \"#utility.yul\":645:678   */\n      tag_223\n      jump\t// in\n    tag_265:\n        /* \"#utility.yul\":545:684   */\n      swap3\n      swap2\n      pop\n      pop\n      jump\t// out\n        /* \"#utility.yul\":690:1019   */\n    tag_29:\n        /* \"#utility.yul\":749:755   */\n      0x00\n        /* \"#utility.yul\":798:800   */\n      0x20\n        /* \"#utility.yul\":786:795   */\n      dup3\n        /* \"#utility.yul\":777:784   */\n      dup5\n        /* \"#utility.yul\":773:796   */\n      sub\n        /* \"#utility.yul\":769:801   */\n      slt\n        /* \"#utility.yul\":766:885   */\n      iszero\n      tag_267\n      jumpi\n        /* \"#utility.yul\":804:883   */\n      tag_268\n      tag_220\n      jump\t// in\n    tag_268:\n        /* \"#utility.yul\":766:885   */\n    tag_267:\n        /* \"#utility.yul\":924:925   */\n      0x00\n        /* \"#utility.yul\":949:1002   */\n      tag_269\n        /* \"#utility.yul\":994:1001   */\n      dup5\n        /* \"#utility.yul\":985:991   */\n      dup3\n        /* \"#utility.yul\":974:983   */\n      dup6\n        /* \"#utility.yul\":970:992   */\n      add\n        /* \"#utility.yul\":949:1002   */\n      tag_224\n      jump\t// in\n    tag_269:\n        /* \"#utility.yul\":939:1002   */\n      swap2\n      pop\n        /* \"#utility.yul\":895:1012   */\n      pop\n        /* \"#utility.yul\":690:1019   */\n      swap3\n      swap2\n      pop\n      pop\n      jump\t// out\n        /* \"#utility.yul\":1025:1151   */\n    tag_225:\n        /* \"#utility.yul\":1062:1069   */\n      0x00\n        /* \"#utility.yul\":1102:1144   */\n      0xffffffffffffffffffffffffffffffffffffffff\n        /* \"#utility.yul\":1095:1100   */\n      dup3\n        /* \"#utility.yul\":1091:1145   */\n      and\n        /* \"#utility.yul\":1080:1145   */\n      swap1\n      pop\n        /* \"#utility.yul\":1025:1151   */\n      swap2\n      swap1\n      pop\n      jump\t// out\n        /* \"#utility.yul\":1157:1253   */\n    tag_226:\n        /* \"#utility.yul\":1194:1201   */\n      0x00\n        /* \"#utility.yul\":1223:1247   */\n      tag_272\n        /* \"#utility.yul\":1241:1246   */\n      dup3\n        /* \"#utility.yul\":1223:1247   */\n      tag_225\n      jump\t// in\n    tag_272:\n        /* \"#utility.yul\":1212:1247   */\n      swap1\n      pop\n        /* \"#utility.yul\":1157:1253   */\n      swap2\n      swap1\n      pop\n      jump\t// out\n        /* \"#utility.yul\":1259:1381   */\n    tag_227:\n        /* \"#utility.yul\":1332:1356   */\n      tag_274\n        /* \"#utility.yul\":1350:1355   */\n      dup2\n        /* \"#utility.yul\":1332:1356   */\n      tag_226\n      jump\t// in\n    tag_274:\n        /* \"#utility.yul\":1325:1330   */\n      dup2\n        /* \"#utility.yul\":1322:1357   */\n      eq\n        /* \"#utility.yul\":1312:1375   */\n      tag_275\n      jumpi\n        /* \"#utility.yul\":1371:1372   */\n      0x00\n        /* \"#utility.yul\":1368:1369   */\n      dup1\n        /* \"#utility.yul\":1361:1373   */\n      revert\n        /* \"#utility.yul\":1312:1375   */\n    tag_275:\n        /* \"#utility.yul\":1259:1381   */\n      pop\n      jump\t// out\n        /* \"#utility.yul\":1387:1526   */\n    tag_228:\n        /* \"#utility.yul\":1433:1438   */\n      0x00\n        /* \"#utility.yul\":1471:1477   */\n      dup2\n        /* \"#utility.yul\":1458:1478   */\n      calldataload\n        /* \"#utility.yul\":1449:1478   */\n      swap1\n      pop\n        /* \"#utility.yul\":1487:1520   */\n      tag_277\n        /* \"#utility.yul\":1514:1519   */\n      dup2\n        /* \"#utility.yul\":1487:1520   */\n      tag_227\n      jump\t// in\n    tag_277:\n        /* \"#utility.yul\":1387:1526   */\n      swap3\n      swap2\n      pop\n      pop\n      jump\t// out\n        /* \"#utility.yul\":1532:2006   */\n    tag_34:\n        /* \"#utility.yul\":1600:1606   */\n      0x00\n        /* \"#utility.yul\":1608:1614   */\n      dup1\n        /* \"#utility.yul\":1657:1659   */\n      0x40\n        /* \"#utility.yul\":1645:1654   */\n      dup4\n        /* \"#utility.yul\":1636:1643   */\n      dup6\n        /* \"#utility.yul\":1632:1655   */\n      sub\n        /* \"#utility.yul\":1628:1660   */\n      slt\n        /* \"#utility.yul\":1625:1744   */\n      iszero\n      tag_279\n      jumpi\n        /* \"#utility.yul\":1663:1742   */\n      tag_280\n      tag_220\n      jump\t// in\n    tag_280:\n        /* \"#utility.yul\":1625:1744   */\n    tag_279:\n        /* \"#utility.yul\":1783:1784   */\n      0x00\n        /* \"#utility.yul\":1808:1861   */\n      tag_281\n        /* \"#utility.yul\":1853:1860   */\n      dup6\n        /* \"#utility.yul\":1844:1850   */\n      dup3\n        /* \"#utility.yul\":1833:1842   */\n      dup7\n        /* \"#utility.yul\":1829:1851   */\n      add\n        /* \"#utility.yul\":1808:1861   */\n      tag_224\n      jump\t// in\n    tag_281:\n        /* \"#utility.yul\":1798:1861   */\n      swap3\n      pop\n        /* \"#utility.yul\":1754:1871   */\n      pop\n        /* \"#utility.yul\":1910:1912   */\n      0x20\n        /* \"#utility.yul\":1936:1989   */\n      tag_282\n        /* \"#utility.yul\":1981:1988   */\n      dup6\n        /* \"#utility.yul\":1972:1978   */\n      dup3\n        /* \"#utility.yul\":1961:1970   */\n      dup7\n        /* \"#utility.yul\":1957:1979   */\n      add\n        /* \"#utility.yul\":1936:1989   */\n      tag_228\n      jump\t// in\n    tag_282:\n        /* \"#utility.yul\":1926:1989   */\n      swap2\n      pop\n        /* \"#utility.yul\":1881:1999   */\n      pop\n        /* \"#utility.yul\":1532:2006   */\n      swap3\n      pop\n      swap3\n      swap1\n      pop\n      jump\t// out\n        /* \"#utility.yul\":2012:2102   */\n    tag_229:\n        /* \"#utility.yul\":2046:2053   */\n      0x00\n        /* \"#utility.yul\":2089:2094   */\n      dup2\n        /* \"#utility.yul\":2082:2095   */\n      iszero\n        /* \"#utility.yul\":2075:2096   */\n      iszero\n        /* \"#utility.yul\":2064:2096   */\n      swap1\n      pop\n        /* \"#utility.yul\":2012:2102   */\n      swap2\n      swap1\n      pop\n      jump\t// out\n        /* \"#utility.yul\":2108:2217   */\n    tag_230:\n        /* \"#utility.yul\":2189:2210   */\n      tag_285\n        /* \"#utility.yul\":2204:2209   */\n      dup2\n        /* \"#utility.yul\":2189:2210   */\n      tag_229\n      jump\t// in\n    tag_285:\n        /* \"#utility.yul\":2184:2187   */\n      dup3\n        /* \"#utility.yul\":2177:2211   */\n      mstore\n        /* \"#utility.yul\":2108:2217   */\n      pop\n      pop\n      jump\t// out\n        /* \"#utility.yul\":2223:2433   */\n    tag_37:\n        /* \"#utility.yul\":2310:2314   */\n      0x00\n        /* \"#utility.yul\":2348:2350   */\n      0x20\n        /* \"#utility.yul\":2337:2346   */\n      dup3\n        /* \"#utility.yul\":2333:2351   */\n      add\n        /* \"#utility.yul\":2325:2351   */\n      swap1\n      pop\n        /* \"#utility.yul\":2361:2426   */\n      tag_287\n        /* \"#utility.yul\":2423:2424   */\n      0x00\n        /* \"#utility.yul\":2412:2421   */\n      dup4\n        /* \"#utility.yul\":2408:2425   */\n      add\n        /* \"#utility.yul\":2399:2405   */\n      dup5\n        /* \"#utility.yul\":2361:2426   */\n      tag_230\n      jump\t// in\n    tag_287:\n        /* \"#utility.yul\":2223:2433   */\n      swap3\n      swap2\n      pop\n      pop\n      jump\t// out\n        /* \"#utility.yul\":2439:2557   */\n    tag_231:\n        /* \"#utility.yul\":2526:2550   */\n      tag_289\n        /* \"#utility.yul\":2544:2549   */\n      dup2\n        /* \"#utility.yul\":2526:2550   */\n      tag_222\n      jump\t// in\n    tag_289:\n        /* \"#utility.yul\":2521:2524   */\n      dup3\n        /* \"#utility.yul\":2514:2551   */\n      mstore\n        /* \"#utility.yul\":2439:2557   */\n      pop\n      pop\n      jump\t// out\n        /* \"#utility.yul\":2563:2785   */\n    tag_42:\n        /* \"#utility.yul\":2656:2660   */\n      0x00\n        /* \"#utility.yul\":2694:2696   */\n      0x20\n        /* \"#utility.yul\":2683:2692   */\n      dup3\n        /* \"#utility.yul\":2679:2697   */\n      add\n        /* \"#utility.yul\":2671:2697   */\n      swap1\n      pop\n        /* \"#utility.yul\":2707:2778   */\n      tag_291\n        /* \"#utility.yul\":2775:2776   */\n      0x00\n        /* \"#utility.yul\":2764:2773   */\n      dup4\n        /* \"#utility.yul\":2760:2777   */\n      add\n        /* \"#utility.yul\":2751:2757   */\n      dup5\n        /* \"#utility.yul\":2707:2778   */\n      tag_231\n      jump\t// in\n    tag_291:\n        /* \"#utility.yul\":2563:2785   */\n      swap3\n      swap2\n      pop\n      pop\n      jump\t// out\n        /* \"#utility.yul\":2791:2909   */\n    tag_232:\n        /* \"#utility.yul\":2878:2902   */\n      tag_293\n        /* \"#utility.yul\":2896:2901   */\n      dup2\n        /* \"#utility.yul\":2878:2902   */\n      tag_226\n      jump\t// in\n    tag_293:\n        /* \"#utility.yul\":2873:2876   */\n      dup3\n        /* \"#utility.yul\":2866:2903   */\n      mstore\n        /* \"#utility.yul\":2791:2909   */\n      pop\n      pop\n      jump\t// out\n        /* \"#utility.yul\":2915:3137   */\n    tag_62:\n        /* \"#utility.yul\":3008:3012   */\n      0x00\n        /* \"#utility.yul\":3046:3048   */\n      0x20\n        /* \"#utility.yul\":3035:3044   */\n      dup3\n        /* \"#utility.yul\":3031:3049   */\n      add\n        /* \"#utility.yul\":3023:3049   */\n      swap1\n      pop\n        /* \"#utility.yul\":3059:3130   */\n      tag_295\n        /* \"#utility.yul\":3127:3128   */\n      0x00\n        /* \"#utility.yul\":3116:3125   */\n      dup4\n        /* \"#utility.yul\":3112:3129   */\n      add\n        /* \"#utility.yul\":3103:3109   */\n      dup5\n        /* \"#utility.yul\":3059:3130   */\n      tag_232\n      jump\t// in\n    tag_295:\n        /* \"#utility.yul\":2915:3137   */\n      swap3\n      swap2\n      pop\n      pop\n      jump\t// out\n        /* \"#utility.yul\":3143:3259   */\n    tag_233:\n        /* \"#utility.yul\":3213:3234   */\n      tag_297\n        /* \"#utility.yul\":3228:3233   */\n      dup2\n        /* \"#utility.yul\":3213:3234   */\n      tag_229\n      jump\t// in\n    tag_297:\n        /* \"#utility.yul\":3206:3211   */\n      dup2\n        /* \"#utility.yul\":3203:3235   */\n      eq\n        /* \"#utility.yul\":3193:3253   */\n      tag_298\n      jumpi\n        /* \"#utility.yul\":3249:3250   */\n      0x00\n        /* \"#utility.yul\":3246:3247   */\n      dup1\n        /* \"#utility.yul\":3239:3251   */\n      revert\n        /* \"#utility.yul\":3193:3253   */\n    tag_298:\n        /* \"#utility.yul\":3143:3259   */\n      pop\n      jump\t// out\n        /* \"#utility.yul\":3265:3398   */\n    tag_234:\n        /* \"#utility.yul\":3308:3313   */\n      0x00\n        /* \"#utility.yul\":3346:3352   */\n      dup2\n        /* \"#utility.yul\":3333:3353   */\n      calldataload\n        /* \"#utility.yul\":3324:3353   */\n      swap1\n      pop\n        /* \"#utility.yul\":3362:3392   */\n      tag_300\n        /* \"#utility.yul\":3386:3391   */\n      dup2\n        /* \"#utility.yul\":3362:3392   */\n      tag_233\n      jump\t// in\n    tag_300:\n        /* \"#utility.yul\":3265:3398   */\n      swap3\n      swap2\n      pop\n      pop\n      jump\t// out\n        /* \"#utility.yul\":3404:4017   */\n    tag_66:\n        /* \"#utility.yul\":3478:3484   */\n      0x00\n        /* \"#utility.yul\":3486:3492   */\n      dup1\n        /* \"#utility.yul\":3494:3500   */\n      0x00\n        /* \"#utility.yul\":3543:3545   */\n      0x60\n        /* \"#utility.yul\":3531:3540   */\n      dup5\n        /* \"#utility.yul\":3522:3529   */\n      dup7\n        /* \"#utility.yul\":3518:3541   */\n      sub\n        /* \"#utility.yul\":3514:3546   */\n      slt\n        /* \"#utility.yul\":3511:3630   */\n      iszero\n      tag_302\n      jumpi\n        /* \"#utility.yul\":3549:3628   */\n      tag_303\n      tag_220\n      jump\t// in\n    tag_303:\n        /* \"#utility.yul\":3511:3630   */\n    tag_302:\n        /* \"#utility.yul\":3669:3670   */\n      0x00\n        /* \"#utility.yul\":3694:3747   */\n      tag_304\n        /* \"#utility.yul\":3739:3746   */\n      dup7\n        /* \"#utility.yul\":3730:3736   */\n      dup3\n        /* \"#utility.yul\":3719:3728   */\n      dup8\n        /* \"#utility.yul\":3715:3737   */\n      add\n        /* \"#utility.yul\":3694:3747   */\n      tag_228\n      jump\t// in\n    tag_304:\n        /* \"#utility.yul\":3684:3747   */\n      swap4\n      pop\n        /* \"#utility.yul\":3640:3757   */\n      pop\n        /* \"#utility.yul\":3796:3798   */\n      0x20\n        /* \"#utility.yul\":3822:3875   */\n      tag_305\n        /* \"#utility.yul\":3867:3874   */\n      dup7\n        /* \"#utility.yul\":3858:3864   */\n      dup3\n        /* \"#utility.yul\":3847:3856   */\n      dup8\n        /* \"#utility.yul\":3843:3865   */\n      add\n        /* \"#utility.yul\":3822:3875   */\n      tag_224\n      jump\t// in\n    tag_305:\n        /* \"#utility.yul\":3812:3875   */\n      swap3\n      pop\n        /* \"#utility.yul\":3767:3885   */\n      pop\n        /* \"#utility.yul\":3924:3926   */\n      0x40\n        /* \"#utility.yul\":3950:4000   */\n      tag_306\n        /* \"#utility.yul\":3992:3999   */\n      dup7\n        /* \"#utility.yul\":3983:3989   */\n      dup3\n        /* \"#utility.yul\":3972:3981   */\n      dup8\n        /* \"#utility.yul\":3968:3990   */\n      add\n        /* \"#utility.yul\":3950:4000   */\n      tag_234\n      jump\t// in\n    tag_306:\n        /* \"#utility.yul\":3940:4000   */\n      swap2\n      pop\n        /* \"#utility.yul\":3895:4010   */\n      pop\n        /* \"#utility.yul\":3404:4017   */\n      swap3\n      pop\n      swap3\n      pop\n      swap3\n      jump\t// out\n        /* \"#utility.yul\":4023:4540   */\n    tag_69:\n        /* \"#utility.yul\":4182:4186   */\n      0x00\n        /* \"#utility.yul\":4220:4223   */\n      0x80\n        /* \"#utility.yul\":4209:4218   */\n      dup3\n        /* \"#utility.yul\":4205:4224   */\n      add\n        /* \"#utility.yul\":4197:4224   */\n      swap1\n      pop\n        /* \"#utility.yul\":4234:4299   */\n      tag_308\n        /* \"#utility.yul\":4296:4297   */\n      0x00\n        /* \"#utility.yul\":4285:4294   */\n      dup4\n        /* \"#utility.yul\":4281:4298   */\n      add\n        /* \"#utility.yul\":4272:4278   */\n      dup8\n        /* \"#utility.yul\":4234:4299   */\n      tag_230\n      jump\t// in\n    tag_308:\n        /* \"#utility.yul\":4309:4375   */\n      tag_309\n        /* \"#utility.yul\":4371:4373   */\n      0x20\n        /* \"#utility.yul\":4360:4369   */\n      dup4\n        /* \"#utility.yul\":4356:4374   */\n      add\n        /* \"#utility.yul\":4347:4353   */\n      dup7\n        /* \"#utility.yul\":4309:4375   */\n      tag_230\n      jump\t// in\n    tag_309:\n        /* \"#utility.yul\":4385:4457   */\n      tag_310\n        /* \"#utility.yul\":4453:4455   */\n      0x40\n        /* \"#utility.yul\":4442:4451   */\n      dup4\n        /* \"#utility.yul\":4438:4456   */\n      add\n        /* \"#utility.yul\":4429:4435   */\n      dup6\n        /* \"#utility.yul\":4385:4457   */\n      tag_231\n      jump\t// in\n    tag_310:\n        /* \"#utility.yul\":4467:4533   */\n      tag_311\n        /* \"#utility.yul\":4529:4531   */\n      0x60\n        /* \"#utility.yul\":4518:4527   */\n      dup4\n        /* \"#utility.yul\":4514:4532   */\n      add\n        /* \"#utility.yul\":4505:4511   */\n      dup5\n        /* \"#utility.yul\":4467:4533   */\n      tag_230\n      jump\t// in\n    tag_311:\n        /* \"#utility.yul\":4023:4540   */\n      swap6\n      swap5\n      pop\n      pop\n      pop\n      pop\n      pop\n      jump\t// out\n        /* \"#utility.yul\":4546:5420   */\n    tag_82:\n        /* \"#utility.yul\":4801:4805   */\n      0x00\n        /* \"#utility.yul\":4839:4842   */\n      0xe0\n        /* \"#utility.yul\":4828:4837   */\n      dup3\n        /* \"#utility.yul\":4824:4843   */\n      add\n        /* \"#utility.yul\":4816:4843   */\n      swap1\n      pop\n        /* \"#utility.yul\":4853:4924   */\n      tag_313\n        /* \"#utility.yul\":4921:4922   */\n      0x00\n        /* \"#utility.yul\":4910:4919   */\n      dup4\n        /* \"#utility.yul\":4906:4923   */\n      add\n        /* \"#utility.yul\":4897:4903   */\n      dup11\n        /* \"#utility.yul\":4853:4924   */\n      tag_231\n      jump\t// in\n    tag_313:\n        /* \"#utility.yul\":4934:5006   */\n      tag_314\n        /* \"#utility.yul\":5002:5004   */\n      0x20\n        /* \"#utility.yul\":4991:5000   */\n      dup4\n        /* \"#utility.yul\":4987:5005   */\n      add\n        /* \"#utility.yul\":4978:4984   */\n      dup10\n        /* \"#utility.yul\":4934:5006   */\n      tag_231\n      jump\t// in\n    tag_314:\n        /* \"#utility.yul\":5016:5088   */\n      tag_315\n        /* \"#utility.yul\":5084:5086   */\n      0x40\n        /* \"#utility.yul\":5073:5082   */\n      dup4\n        /* \"#utility.yul\":5069:5087   */\n      add\n        /* \"#utility.yul\":5060:5066   */\n      dup9\n        /* \"#utility.yul\":5016:5088   */\n      tag_231\n      jump\t// in\n    tag_315:\n        /* \"#utility.yul\":5098:5170   */\n      tag_316\n        /* \"#utility.yul\":5166:5168   */\n      0x60\n        /* \"#utility.yul\":5155:5164   */\n      dup4\n        /* \"#utility.yul\":5151:5169   */\n      add\n        /* \"#utility.yul\":5142:5148   */\n      dup8\n        /* \"#utility.yul\":5098:5170   */\n      tag_231\n      jump\t// in\n    tag_316:\n        /* \"#utility.yul\":5180:5253   */\n      tag_317\n        /* \"#utility.yul\":5248:5251   */\n      0x80\n        /* \"#utility.yul\":5237:5246   */\n      dup4\n        /* \"#utility.yul\":5233:5252   */\n      add\n        /* \"#utility.yul\":5224:5230   */\n      dup7\n        /* \"#utility.yul\":5180:5253   */\n      tag_231\n      jump\t// in\n    tag_317:\n        /* \"#utility.yul\":5263:5336   */\n      tag_318\n        /* \"#utility.yul\":5331:5334   */\n      0xa0\n        /* \"#utility.yul\":5320:5329   */\n      dup4\n        /* \"#utility.yul\":5316:5335   */\n      add\n        /* \"#utility.yul\":5307:5313   */\n      dup6\n        /* \"#utility.yul\":5263:5336   */\n      tag_231\n      jump\t// in\n    tag_318:\n        /* \"#utility.yul\":5346:5413   */\n      tag_319\n        /* \"#utility.yul\":5408:5411   */\n      0xc0\n        /* \"#utility.yul\":5397:5406   */\n      dup4\n        /* \"#utility.yul\":5393:5412   */\n      add\n        /* \"#utility.yul\":5384:5390   */\n      dup5\n        /* \"#utility.yul\":5346:5413   */\n      tag_230\n      jump\t// in\n    tag_319:\n        /* \"#utility.yul\":4546:5420   */\n      swap9\n      swap8\n      pop\n      pop\n      pop\n      pop\n      pop\n      pop\n      pop\n      pop\n      jump\t// out\n        /* \"#utility.yul\":5426:5755   */\n    tag_122:\n        /* \"#utility.yul\":5485:5491   */\n      0x00\n        /* \"#utility.yul\":5534:5536   */\n      0x20\n        /* \"#utility.yul\":5522:5531   */\n      dup3\n        /* \"#utility.yul\":5513:5520   */\n      dup5\n        /* \"#utility.yul\":5509:5532   */\n      sub\n        /* \"#utility.yul\":5505:5537   */\n      slt\n        /* \"#utility.yul\":5502:5621   */\n      iszero\n      tag_321\n      jumpi\n        /* \"#utility.yul\":5540:5619   */\n      tag_322\n      tag_220\n      jump\t// in\n    tag_322:\n        /* \"#utility.yul\":5502:5621   */\n    tag_321:\n        /* \"#utility.yul\":5660:5661   */\n      0x00\n        /* \"#utility.yul\":5685:5738   */\n      tag_323\n        /* \"#utility.yul\":5730:5737   */\n      dup5\n        /* \"#utility.yul\":5721:5727   */\n      dup3\n        /* \"#utility.yul\":5710:5719   */\n      dup6\n        /* \"#utility.yul\":5706:5728   */\n      add\n        /* \"#utility.yul\":5685:5738   */\n      tag_228\n      jump\t// in\n    tag_323:\n        /* \"#utility.yul\":5675:5738   */\n      swap2\n      pop\n        /* \"#utility.yul\":5631:5748   */\n      pop\n        /* \"#utility.yul\":5426:5755   */\n      swap3\n      swap2\n      pop\n      pop\n      jump\t// out\n        /* \"#utility.yul\":5761:5930   */\n    tag_235:\n        /* \"#utility.yul\":5845:5856   */\n      0x00\n        /* \"#utility.yul\":5879:5885   */\n      dup3\n        /* \"#utility.yul\":5874:5877   */\n      dup3\n        /* \"#utility.yul\":5867:5886   */\n      mstore\n        /* \"#utility.yul\":5919:5923   */\n      0x20\n        /* \"#utility.yul\":5914:5917   */\n      dup3\n        /* \"#utility.yul\":5910:5924   */\n      add\n        /* \"#utility.yul\":5895:5924   */\n      swap1\n      pop\n        /* \"#utility.yul\":5761:5930   */\n      swap3\n      swap2\n      pop\n      pop\n      jump\t// out\n        /* \"#utility.yul\":5936:6106   */\n    tag_236:\n        /* \"#utility.yul\":6076:6098   */\n      0x526f756e64206e6f7420636c6f73656420796574000000000000000000000000\n        /* \"#utility.yul\":6072:6073   */\n      0x00\n        /* \"#utility.yul\":6064:6070   */\n      dup3\n        /* \"#utility.yul\":6060:6074   */\n      add\n        /* \"#utility.yul\":6053:6099   */\n      mstore\n        /* \"#utility.yul\":5936:6106   */\n      pop\n      jump\t// out\n        /* \"#utility.yul\":6112:6478   */\n    tag_237:\n        /* \"#utility.yul\":6254:6257   */\n      0x00\n        /* \"#utility.yul\":6275:6342   */\n      tag_327\n        /* \"#utility.yul\":6339:6341   */\n      0x14\n        /* \"#utility.yul\":6334:6337   */\n      dup4\n        /* \"#utility.yul\":6275:6342   */\n      tag_235\n      jump\t// in\n    tag_327:\n        /* \"#utility.yul\":6268:6342   */\n      swap2\n      pop\n        /* \"#utility.yul\":6351:6444   */\n      tag_328\n        /* \"#utility.yul\":6440:6443   */\n      dup3\n        /* \"#utility.yul\":6351:6444   */\n      tag_236\n      jump\t// in\n    tag_328:\n        /* \"#utility.yul\":6469:6471   */\n      0x20\n        /* \"#utility.yul\":6464:6467   */\n      dup3\n        /* \"#utility.yul\":6460:6472   */\n      add\n        /* \"#utility.yul\":6453:6472   */\n      swap1\n      pop\n        /* \"#utility.yul\":6112:6478   */\n      swap2\n      swap1\n      pop\n      jump\t// out\n        /* \"#utility.yul\":6484:6903   */\n    tag_127:\n        /* \"#utility.yul\":6650:6654   */\n      0x00\n        /* \"#utility.yul\":6688:6690   */\n      0x20\n        /* \"#utility.yul\":6677:6686   */\n      dup3\n        /* \"#utility.yul\":6673:6691   */\n      add\n        /* \"#utility.yul\":6665:6691   */\n      swap1\n      pop\n        /* \"#utility.yul\":6737:6746   */\n      dup2\n        /* \"#utility.yul\":6731:6735   */\n      dup2\n        /* \"#utility.yul\":6727:6747   */\n      sub\n        /* \"#utility.yul\":6723:6724   */\n      0x00\n        /* \"#utility.yul\":6712:6721   */\n      dup4\n        /* \"#utility.yul\":6708:6725   */\n      add\n        /* \"#utility.yul\":6701:6748   */\n      mstore\n        /* \"#utility.yul\":6765:6896   */\n      tag_330\n        /* \"#utility.yul\":6891:6895   */\n      dup2\n        /* \"#utility.yul\":6765:6896   */\n      tag_237\n      jump\t// in\n    tag_330:\n        /* \"#utility.yul\":6757:6896   */\n      swap1\n      pop\n        /* \"#utility.yul\":6484:6903   */\n      swap2\n      swap1\n      pop\n      jump\t// out\n        /* \"#utility.yul\":6909:7072   */\n    tag_238:\n        /* \"#utility.yul\":7049:7064   */\n      0x4e6f74207175616c696669656400000000000000000000000000000000000000\n        /* \"#utility.yul\":7045:7046   */\n      0x00\n        /* \"#utility.yul\":7037:7043   */\n      dup3\n        /* \"#utility.yul\":7033:7047   */\n      add\n        /* \"#utility.yul\":7026:7065   */\n      mstore\n        /* \"#utility.yul\":6909:7072   */\n      pop\n      jump\t// out\n        /* \"#utility.yul\":7078:7444   */\n    tag_239:\n        /* \"#utility.yul\":7220:7223   */\n      0x00\n        /* \"#utility.yul\":7241:7308   */\n      tag_333\n        /* \"#utility.yul\":7305:7307   */\n      0x0d\n        /* \"#utility.yul\":7300:7303   */\n      dup4\n        /* \"#utility.yul\":7241:7308   */\n      tag_235\n      jump\t// in\n    tag_333:\n        /* \"#utility.yul\":7234:7308   */\n      swap2\n      pop\n        /* \"#utility.yul\":7317:7410   */\n      tag_334\n        /* \"#utility.yul\":7406:7409   */\n      dup3\n        /* \"#utility.yul\":7317:7410   */\n      tag_238\n      jump\t// in\n    tag_334:\n        /* \"#utility.yul\":7435:7437   */\n      0x20\n        /* \"#utility.yul\":7430:7433   */\n      dup3\n        /* \"#utility.yul\":7426:7438   */\n      add\n        /* \"#utility.yul\":7419:7438   */\n      swap1\n      pop\n        /* \"#utility.yul\":7078:7444   */\n      swap2\n      swap1\n      pop\n      jump\t// out\n        /* \"#utility.yul\":7450:7869   */\n    tag_130:\n        /* \"#utility.yul\":7616:7620   */\n      0x00\n        /* \"#utility.yul\":7654:7656   */\n      0x20\n        /* \"#utility.yul\":7643:7652   */\n      dup3\n        /* \"#utility.yul\":7639:7657   */\n      add\n        /* \"#utility.yul\":7631:7657   */\n      swap1\n      pop\n        /* \"#utility.yul\":7703:7712   */\n      dup2\n        /* \"#utility.yul\":7697:7701   */\n      dup2\n        /* \"#utility.yul\":7693:7713   */\n      sub\n        /* \"#utility.yul\":7689:7690   */\n      0x00\n        /* \"#utility.yul\":7678:7687   */\n      dup4\n        /* \"#utility.yul\":7674:7691   */\n      add\n        /* \"#utility.yul\":7667:7714   */\n      mstore\n        /* \"#utility.yul\":7731:7862   */\n      tag_336\n        /* \"#utility.yul\":7857:7861   */\n      dup2\n        /* \"#utility.yul\":7731:7862   */\n      tag_239\n      jump\t// in\n    tag_336:\n        /* \"#utility.yul\":7723:7862   */\n      swap1\n      pop\n        /* \"#utility.yul\":7450:7869   */\n      swap2\n      swap1\n      pop\n      jump\t// out\n        /* \"#utility.yul\":7875:8040   */\n    tag_240:\n        /* \"#utility.yul\":8015:8032   */\n      0x416c726561647920636c61696d65640000000000000000000000000000000000\n        /* \"#utility.yul\":8011:8012   */\n      0x00\n        /* \"#utility.yul\":8003:8009   */\n      dup3\n        /* \"#utility.yul\":7999:8013   */\n      add\n        /* \"#utility.yul\":7992:8033   */\n      mstore\n        /* \"#utility.yul\":7875:8040   */\n      pop\n      jump\t// out\n        /* \"#utility.yul\":8046:8412   */\n    tag_241:\n        /* \"#utility.yul\":8188:8191   */\n      0x00\n        /* \"#utility.yul\":8209:8276   */\n      tag_339\n        /* \"#utility.yul\":8273:8275   */\n      0x0f\n        /* \"#utility.yul\":8268:8271   */\n      dup4\n        /* \"#utility.yul\":8209:8276   */\n      tag_235\n      jump\t// in\n    tag_339:\n        /* \"#utility.yul\":8202:8276   */\n      swap2\n      pop\n        /* \"#utility.yul\":8285:8378   */\n      tag_340\n        /* \"#utility.yul\":8374:8377   */\n      dup3\n        /* \"#utility.yul\":8285:8378   */\n      tag_240\n      jump\t// in\n    tag_340:\n        /* \"#utility.yul\":8403:8405   */\n      0x20\n        /* \"#utility.yul\":8398:8401   */\n      dup3\n        /* \"#utility.yul\":8394:8406   */\n      add\n        /* \"#utility.yul\":8387:8406   */\n      swap1\n      pop\n        /* \"#utility.yul\":8046:8412   */\n      swap2\n      swap1\n      pop\n      jump\t// out\n        /* \"#utility.yul\":8418:8837   */\n    tag_133:\n        /* \"#utility.yul\":8584:8588   */\n      0x00\n        /* \"#utility.yul\":8622:8624   */\n      0x20\n        /* \"#utility.yul\":8611:8620   */\n      dup3\n        /* \"#utility.yul\":8607:8625   */\n      add\n        /* \"#utility.yul\":8599:8625   */\n      swap1\n      pop\n        /* \"#utility.yul\":8671:8680   */\n      dup2\n        /* \"#utility.yul\":8665:8669   */\n      dup2\n        /* \"#utility.yul\":8661:8681   */\n      sub\n        /* \"#utility.yul\":8657:8658   */\n      0x00\n        /* \"#utility.yul\":8646:8655   */\n      dup4\n        /* \"#utility.yul\":8642:8659   */\n      add\n        /* \"#utility.yul\":8635:8682   */\n      mstore\n        /* \"#utility.yul\":8699:8830   */\n      tag_342\n        /* \"#utility.yul\":8825:8829   */\n      dup2\n        /* \"#utility.yul\":8699:8830   */\n      tag_241\n      jump\t// in\n    tag_342:\n        /* \"#utility.yul\":8691:8830   */\n      swap1\n      pop\n        /* \"#utility.yul\":8418:8837   */\n      swap2\n      swap1\n      pop\n      jump\t// out\n        /* \"#utility.yul\":8843:9002   */\n    tag_242:\n        /* \"#utility.yul\":8983:8994   */\n      0x4e6f207265776172640000000000000000000000000000000000000000000000\n        /* \"#utility.yul\":8979:8980   */\n      0x00\n        /* \"#utility.yul\":8971:8977   */\n      dup3\n        /* \"#utility.yul\":8967:8981   */\n      add\n        /* \"#utility.yul\":8960:8995   */\n      mstore\n        /* \"#utility.yul\":8843:9002   */\n      pop\n      jump\t// out\n        /* \"#utility.yul\":9008:9373   */\n    tag_243:\n        /* \"#utility.yul\":9150:9153   */\n      0x00\n        /* \"#utility.yul\":9171:9237   */\n      tag_345\n        /* \"#utility.yul\":9235:9236   */\n      0x09\n        /* \"#utility.yul\":9230:9233   */\n      dup4\n        /* \"#utility.yul\":9171:9237   */\n      tag_235\n      jump\t// in\n    tag_345:\n        /* \"#utility.yul\":9164:9237   */\n      swap2\n      pop\n        /* \"#utility.yul\":9246:9339   */\n      tag_346\n        /* \"#utility.yul\":9335:9338   */\n      dup3\n        /* \"#utility.yul\":9246:9339   */\n      tag_242\n      jump\t// in\n    tag_346:\n        /* \"#utility.yul\":9364:9366   */\n      0x20\n        /* \"#utility.yul\":9359:9362   */\n      dup3\n        /* \"#utility.yul\":9355:9367   */\n      add\n        /* \"#utility.yul\":9348:9367   */\n      swap1\n      pop\n        /* \"#utility.yul\":9008:9373   */\n      swap2\n      swap1\n      pop\n      jump\t// out\n        /* \"#utility.yul\":9379:9798   */\n    tag_136:\n        /* \"#utility.yul\":9545:9549   */\n      0x00\n        /* \"#utility.yul\":9583:9585   */\n      0x20\n        /* \"#utility.yul\":9572:9581   */\n      dup3\n        /* \"#utility.yul\":9568:9586   */\n      add\n        /* \"#utility.yul\":9560:9586   */\n      swap1\n      pop\n        /* \"#utility.yul\":9632:9641   */\n      dup2\n        /* \"#utility.yul\":9626:9630   */\n      dup2\n        /* \"#utility.yul\":9622:9642   */\n      sub\n        /* \"#utility.yul\":9618:9619   */\n      0x00\n        /* \"#utility.yul\":9607:9616   */\n      dup4\n        /* \"#utility.yul\":9603:9620   */\n      add\n        /* \"#utility.yul\":9596:9643   */\n      mstore\n        /* \"#utility.yul\":9660:9791   */\n      tag_348\n        /* \"#utility.yul\":9786:9790   */\n      dup2\n        /* \"#utility.yul\":9660:9791   */\n      tag_243\n      jump\t// in\n    tag_348:\n        /* \"#utility.yul\":9652:9791   */\n      swap1\n      pop\n        /* \"#utility.yul\":9379:9798   */\n      swap2\n      swap1\n      pop\n      jump\t// out\n        /* \"#utility.yul\":9804:9960   */\n    tag_244:\n        /* \"#utility.yul\":9944:9952   */\n      0x5765656b6c790000000000000000000000000000000000000000000000000000\n        /* \"#utility.yul\":9940:9941   */\n      0x00\n        /* \"#utility.yul\":9932:9938   */\n      dup3\n        /* \"#utility.yul\":9928:9942   */\n      add\n        /* \"#utility.yul\":9921:9953   */\n      mstore\n        /* \"#utility.yul\":9804:9960   */\n      pop\n      jump\t// out\n        /* \"#utility.yul\":9966:10331   */\n    tag_245:\n        /* \"#utility.yul\":10108:10111   */\n      0x00\n        /* \"#utility.yul\":10129:10195   */\n      tag_351\n        /* \"#utility.yul\":10193:10194   */\n      0x06\n        /* \"#utility.yul\":10188:10191   */\n      dup4\n        /* \"#utility.yul\":10129:10195   */\n      tag_235\n      jump\t// in\n    tag_351:\n        /* \"#utility.yul\":10122:10195   */\n      swap2\n      pop\n        /* \"#utility.yul\":10204:10297   */\n      tag_352\n        /* \"#utility.yul\":10293:10296   */\n      dup3\n        /* \"#utility.yul\":10204:10297   */\n      tag_244\n      jump\t// in\n    tag_352:\n        /* \"#utility.yul\":10322:10324   */\n      0x20\n        /* \"#utility.yul\":10317:10320   */\n      dup3\n        /* \"#utility.yul\":10313:10325   */\n      add\n        /* \"#utility.yul\":10306:10325   */\n      swap1\n      pop\n        /* \"#utility.yul\":9966:10331   */\n      swap2\n      swap1\n      pop\n      jump\t// out\n        /* \"#utility.yul\":10337:10976   */\n    tag_138:\n        /* \"#utility.yul\":10559:10563   */\n      0x00\n        /* \"#utility.yul\":10597:10599   */\n      0x60\n        /* \"#utility.yul\":10586:10595   */\n      dup3\n        /* \"#utility.yul\":10582:10600   */\n      add\n        /* \"#utility.yul\":10574:10600   */\n      swap1\n      pop\n        /* \"#utility.yul\":10646:10655   */\n      dup2\n        /* \"#utility.yul\":10640:10644   */\n      dup2\n        /* \"#utility.yul\":10636:10656   */\n      sub\n        /* \"#utility.yul\":10632:10633   */\n      0x00\n        /* \"#utility.yul\":10621:10630   */\n      dup4\n        /* \"#utility.yul\":10617:10634   */\n      add\n        /* \"#utility.yul\":10610:10657   */\n      mstore\n        /* \"#utility.yul\":10674:10805   */\n      tag_354\n        /* \"#utility.yul\":10800:10804   */\n      dup2\n        /* \"#utility.yul\":10674:10805   */\n      tag_245\n      jump\t// in\n    tag_354:\n        /* \"#utility.yul\":10666:10805   */\n      swap1\n      pop\n        /* \"#utility.yul\":10815:10887   */\n      tag_355\n        /* \"#utility.yul\":10883:10885   */\n      0x20\n        /* \"#utility.yul\":10872:10881   */\n      dup4\n        /* \"#utility.yul\":10868:10886   */\n      add\n        /* \"#utility.yul\":10859:10865   */\n      dup6\n        /* \"#utility.yul\":10815:10887   */\n      tag_231\n      jump\t// in\n    tag_355:\n        /* \"#utility.yul\":10897:10969   */\n      tag_356\n        /* \"#utility.yul\":10965:10967   */\n      0x40\n        /* \"#utility.yul\":10954:10963   */\n      dup4\n        /* \"#utility.yul\":10950:10968   */\n      add\n        /* \"#utility.yul\":10941:10947   */\n      dup5\n        /* \"#utility.yul\":10897:10969   */\n      tag_231\n      jump\t// in\n    tag_356:\n        /* \"#utility.yul\":10337:10976   */\n      swap4\n      swap3\n      pop\n      pop\n      pop\n      jump\t// out\n        /* \"#utility.yul\":10982:11139   */\n    tag_246:\n        /* \"#utility.yul\":11122:11131   */\n      0x4d6f6e74686c7900000000000000000000000000000000000000000000000000\n        /* \"#utility.yul\":11118:11119   */\n      0x00\n        /* \"#utility.yul\":11110:11116   */\n      dup3\n        /* \"#utility.yul\":11106:11120   */\n      add\n        /* \"#utility.yul\":11099:11132   */\n      mstore\n        /* \"#utility.yul\":10982:11139   */\n      pop\n      jump\t// out\n        /* \"#utility.yul\":11145:11510   */\n    tag_247:\n        /* \"#utility.yul\":11287:11290   */\n      0x00\n        /* \"#utility.yul\":11308:11374   */\n      tag_359\n        /* \"#utility.yul\":11372:11373   */\n      0x07\n        /* \"#utility.yul\":11367:11370   */\n      dup4\n        /* \"#utility.yul\":11308:11374   */\n      tag_235\n      jump\t// in\n    tag_359:\n        /* \"#utility.yul\":11301:11374   */\n      swap2\n      pop\n        /* \"#utility.yul\":11383:11476   */\n      tag_360\n        /* \"#utility.yul\":11472:11475   */\n      dup3\n        /* \"#utility.yul\":11383:11476   */\n      tag_246\n      jump\t// in\n    tag_360:\n        /* \"#utility.yul\":11501:11503   */\n      0x20\n        /* \"#utility.yul\":11496:11499   */\n      dup3\n        /* \"#utility.yul\":11492:11504   */\n      add\n        /* \"#utility.yul\":11485:11504   */\n      swap1\n      pop\n        /* \"#utility.yul\":11145:11510   */\n      swap2\n      swap1\n      pop\n      jump\t// out\n        /* \"#utility.yul\":11516:12155   */\n    tag_149:\n        /* \"#utility.yul\":11738:11742   */\n      0x00\n        /* \"#utility.yul\":11776:11778   */\n      0x60\n        /* \"#utility.yul\":11765:11774   */\n      dup3\n        /* \"#utility.yul\":11761:11779   */\n      add\n        /* \"#utility.yul\":11753:11779   */\n      swap1\n      pop\n        /* \"#utility.yul\":11825:11834   */\n      dup2\n        /* \"#utility.yul\":11819:11823   */\n      dup2\n        /* \"#utility.yul\":11815:11835   */\n      sub\n        /* \"#utility.yul\":11811:11812   */\n      0x00\n        /* \"#utility.yul\":11800:11809   */\n      dup4\n        /* \"#utility.yul\":11796:11813   */\n      add\n        /* \"#utility.yul\":11789:11836   */\n      mstore\n        /* \"#utility.yul\":11853:11984   */\n      tag_362\n        /* \"#utility.yul\":11979:11983   */\n      dup2\n        /* \"#utility.yul\":11853:11984   */\n      tag_247\n      jump\t// in\n    tag_362:\n        /* \"#utility.yul\":11845:11984   */\n      swap1\n      pop\n        /* \"#utility.yul\":11994:12066   */\n      tag_363\n        /* \"#utility.yul\":12062:12064   */\n      0x20\n        /* \"#utility.yul\":12051:12060   */\n      dup4\n        /* \"#utility.yul\":12047:12065   */\n      add\n        /* \"#utility.yul\":12038:12044   */\n      dup6\n        /* \"#utility.yul\":11994:12066   */\n      tag_231\n      jump\t// in\n    tag_363:\n        /* \"#utility.yul\":12076:12148   */\n      tag_364\n        /* \"#utility.yul\":12144:12146   */\n      0x40\n        /* \"#utility.yul\":12133:12142   */\n      dup4\n        /* \"#utility.yul\":12129:12147   */\n      add\n        /* \"#utility.yul\":12120:12126   */\n      dup5\n        /* \"#utility.yul\":12076:12148   */\n      tag_231\n      jump\t// in\n    tag_364:\n        /* \"#utility.yul\":11516:12155   */\n      swap4\n      swap3\n      pop\n      pop\n      pop\n      jump\t// out\n        /* \"#utility.yul\":12161:12328   */\n    tag_248:\n        /* \"#utility.yul\":12301:12320   */\n      0x416c7265616479207175616c6966696564000000000000000000000000000000\n        /* \"#utility.yul\":12297:12298   */\n      0x00\n        /* \"#utility.yul\":12289:12295   */\n      dup3\n        /* \"#utility.yul\":12285:12299   */\n      add\n        /* \"#utility.yul\":12278:12321   */\n      mstore\n        /* \"#utility.yul\":12161:12328   */\n      pop\n      jump\t// out\n        /* \"#utility.yul\":12334:12700   */\n    tag_249:\n        /* \"#utility.yul\":12476:12479   */\n      0x00\n        /* \"#utility.yul\":12497:12564   */\n      tag_367\n        /* \"#utility.yul\":12561:12563   */\n      0x11\n        /* \"#utility.yul\":12556:12559   */\n      dup4\n        /* \"#utility.yul\":12497:12564   */\n      tag_235\n      jump\t// in\n    tag_367:\n        /* \"#utility.yul\":12490:12564   */\n      swap2\n      pop\n        /* \"#utility.yul\":12573:12666   */\n      tag_368\n        /* \"#utility.yul\":12662:12665   */\n      dup3\n        /* \"#utility.yul\":12573:12666   */\n      tag_248\n      jump\t// in\n    tag_368:\n        /* \"#utility.yul\":12691:12693   */\n      0x20\n        /* \"#utility.yul\":12686:12689   */\n      dup3\n        /* \"#utility.yul\":12682:12694   */\n      add\n        /* \"#utility.yul\":12675:12694   */\n      swap1\n      pop\n        /* \"#utility.yul\":12334:12700   */\n      swap2\n      swap1\n      pop\n      jump\t// out\n        /* \"#utility.yul\":12706:13125   */\n    tag_155:\n        /* \"#utility.yul\":12872:12876   */\n      0x00\n        /* \"#utility.yul\":12910:12912   */\n      0x20\n        /* \"#utility.yul\":12899:12908   */\n      dup3\n        /* \"#utility.yul\":12895:12913   */\n      add\n        /* \"#utility.yul\":12887:12913   */\n      swap1\n      pop\n        /* \"#utility.yul\":12959:12968   */\n      dup2\n        /* \"#utility.yul\":12953:12957   */\n      dup2\n        /* \"#utility.yul\":12949:12969   */\n      sub\n        /* \"#utility.yul\":12945:12946   */\n      0x00\n        /* \"#utility.yul\":12934:12943   */\n      dup4\n        /* \"#utility.yul\":12930:12947   */\n      add\n        /* \"#utility.yul\":12923:12970   */\n      mstore\n        /* \"#utility.yul\":12987:13118   */\n      tag_370\n        /* \"#utility.yul\":13113:13117   */\n      dup2\n        /* \"#utility.yul\":12987:13118   */\n      tag_249\n      jump\t// in\n    tag_370:\n        /* \"#utility.yul\":12979:13118   */\n      swap1\n      pop\n        /* \"#utility.yul\":12706:13125   */\n      swap2\n      swap1\n      pop\n      jump\t// out\n        /* \"#utility.yul\":13131:13660   */\n    tag_158:\n        /* \"#utility.yul\":13325:13329   */\n      0x00\n        /* \"#utility.yul\":13363:13365   */\n      0x40\n        /* \"#utility.yul\":13352:13361   */\n      dup3\n        /* \"#utility.yul\":13348:13366   */\n      add\n        /* \"#utility.yul\":13340:13366   */\n      swap1\n      pop\n        /* \"#utility.yul\":13412:13421   */\n      dup2\n        /* \"#utility.yul\":13406:13410   */\n      dup2\n        /* \"#utility.yul\":13402:13422   */\n      sub\n        /* \"#utility.yul\":13398:13399   */\n      0x00\n        /* \"#utility.yul\":13387:13396   */\n      dup4\n        /* \"#utility.yul\":13383:13400   */\n      add\n        /* \"#utility.yul\":13376:13423   */\n      mstore\n        /* \"#utility.yul\":13440:13571   */\n      tag_372\n        /* \"#utility.yul\":13566:13570   */\n      dup2\n        /* \"#utility.yul\":13440:13571   */\n      tag_245\n      jump\t// in\n    tag_372:\n        /* \"#utility.yul\":13432:13571   */\n      swap1\n      pop\n        /* \"#utility.yul\":13581:13653   */\n      tag_373\n        /* \"#utility.yul\":13649:13651   */\n      0x20\n        /* \"#utility.yul\":13638:13647   */\n      dup4\n        /* \"#utility.yul\":13634:13652   */\n      add\n        /* \"#utility.yul\":13625:13631   */\n      dup5\n        /* \"#utility.yul\":13581:13653   */\n      tag_231\n      jump\t// in\n    tag_373:\n        /* \"#utility.yul\":13131:13660   */\n      swap3\n      swap2\n      pop\n      pop\n      jump\t// out\n        /* \"#utility.yul\":13666:14195   */\n    tag_169:\n        /* \"#utility.yul\":13860:13864   */\n      0x00\n        /* \"#utility.yul\":13898:13900   */\n      0x40\n        /* \"#utility.yul\":13887:13896   */\n      dup3\n        /* \"#utility.yul\":13883:13901   */\n      add\n        /* \"#utility.yul\":13875:13901   */\n      swap1\n      pop\n        /* \"#utility.yul\":13947:13956   */\n      dup2\n        /* \"#utility.yul\":13941:13945   */\n      dup2\n        /* \"#utility.yul\":13937:13957   */\n      sub\n        /* \"#utility.yul\":13933:13934   */\n      0x00\n        /* \"#utility.yul\":13922:13931   */\n      dup4\n        /* \"#utility.yul\":13918:13935   */\n      add\n        /* \"#utility.yul\":13911:13958   */\n      mstore\n        /* \"#utility.yul\":13975:14106   */\n      tag_375\n        /* \"#utility.yul\":14101:14105   */\n      dup2\n        /* \"#utility.yul\":13975:14106   */\n      tag_247\n      jump\t// in\n    tag_375:\n        /* \"#utility.yul\":13967:14106   */\n      swap1\n      pop\n        /* \"#utility.yul\":14116:14188   */\n      tag_376\n        /* \"#utility.yul\":14184:14186   */\n      0x20\n        /* \"#utility.yul\":14173:14182   */\n      dup4\n        /* \"#utility.yul\":14169:14187   */\n      add\n        /* \"#utility.yul\":14160:14166   */\n      dup5\n        /* \"#utility.yul\":14116:14188   */\n      tag_231\n      jump\t// in\n    tag_376:\n        /* \"#utility.yul\":13666:14195   */\n      swap3\n      swap2\n      pop\n      pop\n      jump\t// out\n        /* \"#utility.yul\":14201:14383   */\n    tag_250:\n        /* \"#utility.yul\":14341:14375   */\n      0x4f776e61626c653a2063616c6c6572206973206e6f7420746865206f776e6572\n        /* \"#utility.yul\":14337:14338   */\n      0x00\n        /* \"#utility.yul\":14329:14335   */\n      dup3\n        /* \"#utility.yul\":14325:14339   */\n      add\n        /* \"#utility.yul\":14318:14376   */\n      mstore\n        /* \"#utility.yul\":14201:14383   */\n      pop\n      jump\t// out\n        /* \"#utility.yul\":14389:14755   */\n    tag_251:\n        /* \"#utility.yul\":14531:14534   */\n      0x00\n        /* \"#utility.yul\":14552:14619   */\n      tag_379\n        /* \"#utility.yul\":14616:14618   */\n      0x20\n        /* \"#utility.yul\":14611:14614   */\n      dup4\n        /* \"#utility.yul\":14552:14619   */\n      tag_235\n      jump\t// in\n    tag_379:\n        /* \"#utility.yul\":14545:14619   */\n      swap2\n      pop\n        /* \"#utility.yul\":14628:14721   */\n      tag_380\n        /* \"#utility.yul\":14717:14720   */\n      dup3\n        /* \"#utility.yul\":14628:14721   */\n      tag_250\n      jump\t// in\n    tag_380:\n        /* \"#utility.yul\":14746:14748   */\n      0x20\n        /* \"#utility.yul\":14741:14744   */\n      dup3\n        /* \"#utility.yul\":14737:14749   */\n      add\n        /* \"#utility.yul\":14730:14749   */\n      swap1\n      pop\n        /* \"#utility.yul\":14389:14755   */\n      swap2\n      swap1\n      pop\n      jump\t// out\n        /* \"#utility.yul\":14761:15180   */\n    tag_177:\n        /* \"#utility.yul\":14927:14931   */\n      0x00\n        /* \"#utility.yul\":14965:14967   */\n      0x20\n        /* \"#utility.yul\":14954:14963   */\n      dup3\n        /* \"#utility.yul\":14950:14968   */\n      add\n        /* \"#utility.yul\":14942:14968   */\n      swap1\n      pop\n        /* \"#utility.yul\":15014:15023   */\n      dup2\n        /* \"#utility.yul\":15008:15012   */\n      dup2\n        /* \"#utility.yul\":15004:15024   */\n      sub\n        /* \"#utility.yul\":15000:15001   */\n      0x00\n        /* \"#utility.yul\":14989:14998   */\n      dup4\n        /* \"#utility.yul\":14985:15002   */\n      add\n        /* \"#utility.yul\":14978:15025   */\n      mstore\n        /* \"#utility.yul\":15042:15173   */\n      tag_382\n        /* \"#utility.yul\":15168:15172   */\n      dup2\n        /* \"#utility.yul\":15042:15173   */\n      tag_251\n      jump\t// in\n    tag_382:\n        /* \"#utility.yul\":15034:15173   */\n      swap1\n      pop\n        /* \"#utility.yul\":14761:15180   */\n      swap2\n      swap1\n      pop\n      jump\t// out\n        /* \"#utility.yul\":15186:15360   */\n    tag_252:\n        /* \"#utility.yul\":15326:15352   */\n      0x4e6577206f776e65722063616e6e6f74206265207a65726f0000000000000000\n        /* \"#utility.yul\":15322:15323   */\n      0x00\n        /* \"#utility.yul\":15314:15320   */\n      dup3\n        /* \"#utility.yul\":15310:15324   */\n      add\n        /* \"#utility.yul\":15303:15353   */\n      mstore\n        /* \"#utility.yul\":15186:15360   */\n      pop\n      jump\t// out\n        /* \"#utility.yul\":15366:15732   */\n    tag_253:\n        /* \"#utility.yul\":15508:15511   */\n      0x00\n        /* \"#utility.yul\":15529:15596   */\n      tag_385\n        /* \"#utility.yul\":15593:15595   */\n      0x18\n        /* \"#utility.yul\":15588:15591   */\n      dup4\n        /* \"#utility.yul\":15529:15596   */\n      tag_235\n      jump\t// in\n    tag_385:\n        /* \"#utility.yul\":15522:15596   */\n      swap2\n      pop\n        /* \"#utility.yul\":15605:15698   */\n      tag_386\n        /* \"#utility.yul\":15694:15697   */\n      dup3\n        /* \"#utility.yul\":15605:15698   */\n      tag_252\n      jump\t// in\n    tag_386:\n        /* \"#utility.yul\":15723:15725   */\n      0x20\n        /* \"#utility.yul\":15718:15721   */\n      dup3\n        /* \"#utility.yul\":15714:15726   */\n      add\n        /* \"#utility.yul\":15707:15726   */\n      swap1\n      pop\n        /* \"#utility.yul\":15366:15732   */\n      swap2\n      swap1\n      pop\n      jump\t// out\n        /* \"#utility.yul\":15738:16157   */\n    tag_181:\n        /* \"#utility.yul\":15904:15908   */\n      0x00\n        /* \"#utility.yul\":15942:15944   */\n      0x20\n        /* \"#utility.yul\":15931:15940   */\n      dup3\n        /* \"#utility.yul\":15927:15945   */\n      add\n        /* \"#utility.yul\":15919:15945   */\n      swap1\n      pop\n        /* \"#utility.yul\":15991:16000   */\n      dup2\n        /* \"#utility.yul\":15985:15989   */\n      dup2\n        /* \"#utility.yul\":15981:16001   */\n      sub\n        /* \"#utility.yul\":15977:15978   */\n      0x00\n        /* \"#utility.yul\":15966:15975   */\n      dup4\n        /* \"#utility.yul\":15962:15979   */\n      add\n        /* \"#utility.yul\":15955:16002   */\n      mstore\n        /* \"#utility.yul\":16019:16150   */\n      tag_388\n        /* \"#utility.yul\":16145:16149   */\n      dup2\n        /* \"#utility.yul\":16019:16150   */\n      tag_253\n      jump\t// in\n    tag_388:\n        /* \"#utility.yul\":16011:16150   */\n      swap1\n      pop\n        /* \"#utility.yul\":15738:16157   */\n      swap2\n      swap1\n      pop\n      jump\t// out\n        /* \"#utility.yul\":16163:16343   */\n    tag_254:\n        /* \"#utility.yul\":16211:16288   */\n      0x4e487b7100000000000000000000000000000000000000000000000000000000\n        /* \"#utility.yul\":16208:16209   */\n      0x00\n        /* \"#utility.yul\":16201:16289   */\n      mstore\n        /* \"#utility.yul\":16308:16312   */\n      0x11\n        /* \"#utility.yul\":16305:16306   */\n      0x04\n        /* \"#utility.yul\":16298:16313   */\n      mstore\n        /* \"#utility.yul\":16332:16336   */\n      0x24\n        /* \"#utility.yul\":16329:16330   */\n      0x00\n        /* \"#utility.yul\":16322:16337   */\n      revert\n        /* \"#utility.yul\":16349:16540   */\n    tag_184:\n        /* \"#utility.yul\":16389:16392   */\n      0x00\n        /* \"#utility.yul\":16408:16428   */\n      tag_391\n        /* \"#utility.yul\":16426:16427   */\n      dup3\n        /* \"#utility.yul\":16408:16428   */\n      tag_222\n      jump\t// in\n    tag_391:\n        /* \"#utility.yul\":16403:16428   */\n      swap2\n      pop\n        /* \"#utility.yul\":16442:16462   */\n      tag_392\n        /* \"#utility.yul\":16460:16461   */\n      dup4\n        /* \"#utility.yul\":16442:16462   */\n      tag_222\n      jump\t// in\n    tag_392:\n        /* \"#utility.yul\":16437:16462   */\n      swap3\n      pop\n        /* \"#utility.yul\":16485:16486   */\n      dup3\n        /* \"#utility.yul\":16482:16483   */\n      dup3\n        /* \"#utility.yul\":16478:16487   */\n      add\n        /* \"#utility.yul\":16471:16487   */\n      swap1\n      pop\n        /* \"#utility.yul\":16506:16509   */\n      dup1\n        /* \"#utility.yul\":16503:16504   */\n      dup3\n        /* \"#utility.yul\":16500:16510   */\n      gt\n        /* \"#utility.yul\":16497:16533   */\n      iszero\n      tag_393\n      jumpi\n        /* \"#utility.yul\":16513:16531   */\n      tag_394\n      tag_254\n      jump\t// in\n    tag_394:\n        /* \"#utility.yul\":16497:16533   */\n    tag_393:\n        /* \"#utility.yul\":16349:16540   */\n      swap3\n      swap2\n      pop\n      pop\n      jump\t// out\n        /* \"#utility.yul\":16546:16726   */\n    tag_255:\n        /* \"#utility.yul\":16594:16671   */\n      0x4e487b7100000000000000000000000000000000000000000000000000000000\n        /* \"#utility.yul\":16591:16592   */\n      0x00\n        /* \"#utility.yul\":16584:16672   */\n      mstore\n        /* \"#utility.yul\":16691:16695   */\n      0x12\n        /* \"#utility.yul\":16688:16689   */\n      0x04\n        /* \"#utility.yul\":16681:16696   */\n      mstore\n        /* \"#utility.yul\":16715:16719   */\n      0x24\n        /* \"#utility.yul\":16712:16713   */\n      0x00\n        /* \"#utility.yul\":16705:16720   */\n      revert\n        /* \"#utility.yul\":16732:16917   */\n    tag_195:\n        /* \"#utility.yul\":16772:16773   */\n      0x00\n        /* \"#utility.yul\":16789:16809   */\n      tag_397\n        /* \"#utility.yul\":16807:16808   */\n      dup3\n        /* \"#utility.yul\":16789:16809   */\n      tag_222\n      jump\t// in\n    tag_397:\n        /* \"#utility.yul\":16784:16809   */\n      swap2\n      pop\n        /* \"#utility.yul\":16823:16843   */\n      tag_398\n        /* \"#utility.yul\":16841:16842   */\n      dup4\n        /* \"#utility.yul\":16823:16843   */\n      tag_222\n      jump\t// in\n    tag_398:\n        /* \"#utility.yul\":16818:16843   */\n      swap3\n      pop\n        /* \"#utility.yul\":16862:16863   */\n      dup3\n        /* \"#utility.yul\":16852:16887   */\n      tag_399\n      jumpi\n        /* \"#utility.yul\":16867:16885   */\n      tag_400\n      tag_255\n      jump\t// in\n    tag_400:\n        /* \"#utility.yul\":16852:16887   */\n    tag_399:\n        /* \"#utility.yul\":16909:16910   */\n      dup3\n        /* \"#utility.yul\":16906:16907   */\n      dup3\n        /* \"#utility.yul\":16902:16911   */\n      div\n        /* \"#utility.yul\":16897:16911   */\n      swap1\n      pop\n        /* \"#utility.yul\":16732:16917   */\n      swap3\n      swap2\n      pop\n      pop\n      jump\t// out\n        /* \"#utility.yul\":16923:17673   */\n    tag_200:\n        /* \"#utility.yul\":17173:17177   */\n      0x00\n        /* \"#utility.yul\":17211:17214   */\n      0x80\n        /* \"#utility.yul\":17200:17209   */\n      dup3\n        /* \"#utility.yul\":17196:17215   */\n      add\n        /* \"#utility.yul\":17188:17215   */\n      swap1\n      pop\n        /* \"#utility.yul\":17261:17270   */\n      dup2\n        /* \"#utility.yul\":17255:17259   */\n      dup2\n        /* \"#utility.yul\":17251:17271   */\n      sub\n        /* \"#utility.yul\":17247:17248   */\n      0x00\n        /* \"#utility.yul\":17236:17245   */\n      dup4\n        /* \"#utility.yul\":17232:17249   */\n      add\n        /* \"#utility.yul\":17225:17272   */\n      mstore\n        /* \"#utility.yul\":17289:17420   */\n      tag_402\n        /* \"#utility.yul\":17415:17419   */\n      dup2\n        /* \"#utility.yul\":17289:17420   */\n      tag_245\n      jump\t// in\n    tag_402:\n        /* \"#utility.yul\":17281:17420   */\n      swap1\n      pop\n        /* \"#utility.yul\":17430:17502   */\n      tag_403\n        /* \"#utility.yul\":17498:17500   */\n      0x20\n        /* \"#utility.yul\":17487:17496   */\n      dup4\n        /* \"#utility.yul\":17483:17501   */\n      add\n        /* \"#utility.yul\":17474:17480   */\n      dup7\n        /* \"#utility.yul\":17430:17502   */\n      tag_231\n      jump\t// in\n    tag_403:\n        /* \"#utility.yul\":17512:17584   */\n      tag_404\n        /* \"#utility.yul\":17580:17582   */\n      0x40\n        /* \"#utility.yul\":17569:17578   */\n      dup4\n        /* \"#utility.yul\":17565:17583   */\n      add\n        /* \"#utility.yul\":17556:17562   */\n      dup6\n        /* \"#utility.yul\":17512:17584   */\n      tag_231\n      jump\t// in\n    tag_404:\n        /* \"#utility.yul\":17594:17666   */\n      tag_405\n        /* \"#utility.yul\":17662:17664   */\n      0x60\n        /* \"#utility.yul\":17651:17660   */\n      dup4\n        /* \"#utility.yul\":17647:17665   */\n      add\n        /* \"#utility.yul\":17638:17644   */\n      dup5\n        /* \"#utility.yul\":17594:17666   */\n      tag_231\n      jump\t// in\n    tag_405:\n        /* \"#utility.yul\":16923:17673   */\n      swap5\n      swap4\n      pop\n      pop\n      pop\n      pop\n      jump\t// out\n        /* \"#utility.yul\":17679:17912   */\n    tag_202:\n        /* \"#utility.yul\":17718:17721   */\n      0x00\n        /* \"#utility.yul\":17741:17765   */\n      tag_407\n        /* \"#utility.yul\":17759:17764   */\n      dup3\n        /* \"#utility.yul\":17741:17765   */\n      tag_222\n      jump\t// in\n    tag_407:\n        /* \"#utility.yul\":17732:17765   */\n      swap2\n      pop\n        /* \"#utility.yul\":17787:17853   */\n      0xffffffffffffffffffffffffffffffffffffffffffffffffffffffffffffffff\n        /* \"#utility.yul\":17780:17785   */\n      dup3\n        /* \"#utility.yul\":17777:17854   */\n      sub\n        /* \"#utility.yul\":17774:17877   */\n      tag_408\n      jumpi\n        /* \"#utility.yul\":17857:17875   */\n      tag_409\n      tag_254\n      jump\t// in\n    tag_409:\n        /* \"#utility.yul\":17774:17877   */\n    tag_408:\n        /* \"#utility.yul\":17904:17905   */\n      0x01\n        /* \"#utility.yul\":17897:17902   */\n      dup3\n        /* \"#utility.yul\":17893:17906   */\n      add\n        /* \"#utility.yul\":17886:17906   */\n      swap1\n      pop\n        /* \"#utility.yul\":17679:17912   */\n      swap2\n      swap1\n      pop\n      jump\t// out\n        /* \"#utility.yul\":17918:18668   */\n    tag_211:\n        /* \"#utility.yul\":18168:18172   */\n      0x00\n        /* \"#utility.yul\":18206:18209   */\n      0x80\n        /* \"#utility.yul\":18195:18204   */\n      dup3\n        /* \"#utility.yul\":18191:18210   */\n      add\n        /* \"#utility.yul\":18183:18210   */\n      swap1\n      pop\n        /* \"#utility.yul\":18256:18265   */\n      dup2\n        /* \"#utility.yul\":18250:18254   */\n      dup2\n        /* \"#utility.yul\":18246:18266   */\n      sub\n        /* \"#utility.yul\":18242:18243   */\n      0x00\n        /* \"#utility.yul\":18231:18240   */\n      dup4\n        /* \"#utility.yul\":18227:18244   */\n      add\n        /* \"#utility.yul\":18220:18267   */\n      mstore\n        /* \"#utility.yul\":18284:18415   */\n      tag_411\n        /* \"#utility.yul\":18410:18414   */\n      dup2\n        /* \"#utility.yul\":18284:18415   */\n      tag_247\n      jump\t// in\n    tag_411:\n        /* \"#utility.yul\":18276:18415   */\n      swap1\n      pop\n        /* \"#utility.yul\":18425:18497   */\n      tag_412\n        /* \"#utility.yul\":18493:18495   */\n      0x20\n        /* \"#utility.yul\":18482:18491   */\n      dup4\n        /* \"#utility.yul\":18478:18496   */\n      add\n        /* \"#utility.yul\":18469:18475   */\n      dup7\n        /* \"#utility.yul\":18425:18497   */\n      tag_231\n      jump\t// in\n    tag_412:\n        /* \"#utility.yul\":18507:18579   */\n      tag_413\n        /* \"#utility.yul\":18575:18577   */\n      0x40\n        /* \"#utility.yul\":18564:18573   */\n      dup4\n        /* \"#utility.yul\":18560:18578   */\n      add\n        /* \"#utility.yul\":18551:18557   */\n      dup6\n        /* \"#utility.yul\":18507:18579   */\n      tag_231\n      jump\t// in\n    tag_413:\n        /* \"#utility.yul\":18589:18661   */\n      tag_414\n        /* \"#utility.yul\":18657:18659   */\n      0x60\n        /* \"#utility.yul\":18646:18655   */\n      dup4\n        /* \"#utility.yul\":18642:18660   */\n      add\n        /* \"#utility.yul\":18633:18639   */\n      dup5\n        /* \"#utility.yul\":18589:18661   */\n      tag_231\n      jump\t// in\n    tag_414:\n        /* \"#utility.yul\":17918:18668   */\n      swap5\n      swap4\n      pop\n      pop\n      pop\n      pop\n      jump\t// out\n\n    auxdata: 0xa2646970667358221220d48dabc03d34d8484bc92b49107cbc8d2bc858b2401c76a1f666dd9264351a0364736f6c63430008140033\n}\n",
				"bytecode": {
					"linkReferences": {},
					"object": "6080604052600180556001600255348015610018575f80fd5b50335f806101000a81548173ffffffffffffffffffffffffffffffffffffffff021916908373ffffffffffffffffffffffffffffffffffffffff1602179055505f8054906101000a900473ffffffffffffffffffffffffffffffffffffffff1673ffffffffffffffffffffffffffffffffffffffff165f73ffffffffffffffffffffffffffffffffffffffff167f8be0079c531659141344cd1fd0a4f28419497f9722a3daafe3b4186f6b6457e060405160405180910390a342600381905550426004819055504260075f60015481526020019081526020015f20600401819055504260085f60025481526020019081526020015f206004018190555061208b806101225f395ff3fe608060405260043610610129575f3560e01c8063a22b9e87116100aa578063b4ba97fc1161006e578063b4ba97fc146103e6578063c1c13b2f14610422578063c9ed07081461044c578063ca8e912114610476578063ef4549eb146104a0578063f2fde38b146104e257610129565b8063a22b9e87146102c6578063a56b181514610302578063a6791eae14610344578063a80fee551461036e578063ad127e6b146103aa57610129565b80636b77c79d116100f15780636b77c79d1461021f57806376f5f700146102295780638da5cb5b146102535780639680003d1461027d578063a058dc09146102bc57610129565b80630a3f5a421461012d5780631c1da18e146101555780632a8915341461019157806351a4f04e146101bb5780635e5bb367146101e3575b5f80fd5b348015610138575f80fd5b50610153600480360381019061014e91906117de565b61050a565b005b348015610160575f80fd5b5061017b60048036038101906101769190611863565b6107f5565b60405161018891906118bb565b60405180910390f35b34801561019c575f80fd5b506101a561081f565b6040516101b291906118e3565b60405180910390f35b3480156101c6575f80fd5b506101e160048036038101906101dc91906117de565b610826565b005b3480156101ee575f80fd5b5061020960048036038101906102049190611863565b610b11565b60405161021691906118bb565b60405180910390f35b610227610b3b565b005b348015610234575f80fd5b5061023d610cf6565b60405161024a91906118e3565b60405180910390f35b34801561025e575f80fd5b50610267610cfd565b604051610274919061190b565b60405180910390f35b348015610288575f80fd5b506102a3600480360381019061029e919061194e565b610d20565b6040516102b3949392919061199e565b60405180910390f35b6102c4610fab565b005b3480156102d1575f80fd5b506102ec60048036038101906102e79190611863565b611166565b6040516102f991906118bb565b60405180910390f35b34801561030d575f80fd5b50610328600480360381019061032391906117de565b611190565b60405161033b97969594939291906119e1565b60405180910390f35b34801561034f575f80fd5b506103586111da565b60405161036591906118e3565b60405180910390f35b348015610379575f80fd5b50610394600480360381019061038f91906117de565b6111e0565b6040516103a1919061190b565b60405180910390f35b3480156103b5575f80fd5b506103d060048036038101906103cb91906117de565b61121b565b6040516103dd919061190b565b60405180910390f35b3480156103f1575f80fd5b5061040c60048036038101906104079190611863565b611256565b60405161041991906118bb565b60405180910390f35b34801561042d575f80fd5b50610436611280565b60405161044391906118e3565b60405180910390f35b348015610457575f80fd5b50610460611286565b60405161046d91906118e3565b60405180910390f35b348015610481575f80fd5b5061048a61128c565b60405161049791906118e3565b60405180910390f35b3480156104ab575f80fd5b506104c660048036038101906104c191906117de565b611292565b6040516104d997969594939291906119e1565b60405180910390f35b3480156104ed575f80fd5b5061050860048036038101906105039190611a4e565b6112dc565b005b5f60075f8381526020019081526020015f206040518060e00160405290815f82015481526020016001820154815260200160028201548152602001600382015481526020016004820154815260200160058201548152602001600682015f9054906101000a900460ff16151515158152505090508060c001516105c2576040517f08c379a00000000000000000000000000000000000000000000000000000000081526004016105b990611ad3565b60405180910390fd5b60095f8381526020019081526020015f205f3373ffffffffffffffffffffffffffffffffffffffff1673ffffffffffffffffffffffffffffffffffffffff1681526020019081526020015f205f9054906101000a900460ff1661065a576040517f08c379a000000000000000000000000000000000000000000000000000000000815260040161065190611b3b565b60405180910390fd5b600b5f8381526020019081526020015f205f3373ffffffffffffffffffffffffffffffffffffffff1673ffffffffffffffffffffffffffffffffffffffff1681526020019081526020015f205f9054906101000a900460ff16156106f3576040517f08c379a00000000000000000000000000000000000000000000000000000000081526004016106ea90611ba3565b60405180910390fd5b5f816060015111610739576040517f08c379a000000000000000000000000000000000000000000000000000000000815260040161073090611c0b565b60405180910390fd5b6001600b5f8481526020019081526020015f205f3373ffffffffffffffffffffffffffffffffffffffff1673ffffffffffffffffffffffffffffffffffffffff1681526020019081526020015f205f6101000a81548160ff0219169083151502179055503373ffffffffffffffffffffffffffffffffffffffff167f1a3be26d9ba470ad16bb376aa13666c5c90511b63416723049a5adffeaefa6478383606001516040516107e9929190611c73565b60405180910390a25050565b600c602052815f5260405f20602052805f5260405f205f915091509054906101000a900460ff1681565b62278d0081565b5f60085f8381526020019081526020015f206040518060e00160405290815f82015481526020016001820154815260200160028201548152602001600382015481526020016004820154815260200160058201548152602001600682015f9054906101000a900460ff16151515158152505090508060c001516108de576040517f08c379a00000000000000000000000000000000000000000000000000000000081526004016108d590611ad3565b60405180910390fd5b600a5f8381526020019081526020015f205f3373ffffffffffffffffffffffffffffffffffffffff1673ffffffffffffffffffffffffffffffffffffffff1681526020019081526020015f205f9054906101000a900460ff16610976576040517f08c379a000000000000000000000000000000000000000000000000000000000815260040161096d90611b3b565b60405180910390fd5b600c5f8381526020019081526020015f205f3373ffffffffffffffffffffffffffffffffffffffff1673ffffffffffffffffffffffffffffffffffffffff1681526020019081526020015f205f9054906101000a900460ff1615610a0f576040517f08c379a0000000000000000000000000000000000000000000000000000000008152600401610a0690611ba3565b60405180910390fd5b5f816060015111610a55576040517f08c379a0000000000000000000000000000000000000000000000000000000008152600401610a4c90611c0b565b60405180910390fd5b6001600c5f8481526020019081526020015f205f3373ffffffffffffffffffffffffffffffffffffffff1673ffffffffffffffffffffffffffffffffffffffff1681526020019081526020015f205f6101000a81548160ff0219169083151502179055503373ffffffffffffffffffffffffffffffffffffffff167f1a3be26d9ba470ad16bb376aa13666c5c90511b63416723049a5adffeaefa647838360600151604051610b05929190611cf7565b60405180910390a25050565b600a602052815f5260405f20602052805f5260405f205f915091509054906101000a900460ff1681565b610b43611492565b60095f60015481526020019081526020015f205f3373ffffffffffffffffffffffffffffffffffffffff1673ffffffffffffffffffffffffffffffffffffffff1681526020019081526020015f205f9054906101000a900460ff1615610bde576040517f08c379a0000000000000000000000000000000000000000000000000000000008152600401610bd590611d7b565b60405180910390fd5b600533908060018154018082558091505060019003905f5260205f20015f9091909190916101000a81548173ffffffffffffffffffffffffffffffffffffffff021916908373ffffffffffffffffffffffffffffffffffffffff160217905550600160095f60015481526020019081526020015f205f3373ffffffffffffffffffffffffffffffffffffffff1673ffffffffffffffffffffffffffffffffffffffff1681526020019081526020015f205f6101000a81548160ff0219169083151502179055503373ffffffffffffffffffffffffffffffffffffffff167f577158c2e8120577a90c3a1ee00ad3d7acbadba003577f10f7ba8ae958c5af42600154604051610cec9190611d99565b60405180910390a2565b62093a8081565b5f8054906101000a900473ffffffffffffffffffffffffffffffffffffffff1681565b5f805f808415610e68575f60075f8881526020019081526020015f206040518060e00160405290815f82015481526020016001820154815260200160028201548152602001600382015481526020016004820154815260200160058201548152602001600682015f9054906101000a900460ff161515151581525050905060095f8881526020019081526020015f205f8973ffffffffffffffffffffffffffffffffffffffff1673ffffffffffffffffffffffffffffffffffffffff1681526020019081526020015f205f9054906101000a900460ff169450600b5f8881526020019081526020015f205f8973ffffffffffffffffffffffffffffffffffffffff1673ffffffffffffffffffffffffffffffffffffffff1681526020019081526020015f205f9054906101000a900460ff169350806060015192508060c00151915050610fa2565b5f60085f8881526020019081526020015f206040518060e00160405290815f82015481526020016001820154815260200160028201548152602001600382015481526020016004820154815260200160058201548152602001600682015f9054906101000a900460ff1615151515815250509050600a5f8881526020019081526020015f205f8973ffffffffffffffffffffffffffffffffffffffff1673ffffffffffffffffffffffffffffffffffffffff1681526020019081526020015f205f9054906101000a900460ff169450600c5f8881526020019081526020015f205f8973ffffffffffffffffffffffffffffffffffffffff1673ffffffffffffffffffffffffffffffffffffffff1681526020019081526020015f205f9054906101000a900460ff169350806060015192508060c001519150505b93509350935093565b610fb36114b4565b600a5f60025481526020019081526020015f205f3373ffffffffffffffffffffffffffffffffffffffff1673ffffffffffffffffffffffffffffffffffffffff1681526020019081526020015f205f9054906101000a900460ff161561104e576040517f08c379a000000000000000000000000000000000000000000000000000000000815260040161104590611d7b565b60405180910390fd5b600633908060018154018082558091505060019003905f5260205f20015f9091909190916101000a81548173ffffffffffffffffffffffffffffffffffffffff021916908373ffffffffffffffffffffffffffffffffffffffff1602179055506001600a5f60025481526020019081526020015f205f3373ffffffffffffffffffffffffffffffffffffffff1673ffffffffffffffffffffffffffffffffffffffff1681526020019081526020015f205f6101000a81548160ff0219169083151502179055503373ffffffffffffffffffffffffffffffffffffffff167f577158c2e8120577a90c3a1ee00ad3d7acbadba003577f10f7ba8ae958c5af4260025460405161115c9190611dc5565b60405180910390a2565b600b602052815f5260405f20602052805f5260405f205f915091509054906101000a900460ff1681565b6007602052805f5260405f205f91509050805f015490806001015490806002015490806003015490806004015490806005015490806006015f9054906101000a900460ff16905087565b60045481565b600681815481106111ef575f80fd5b905f5260205f20015f915054906101000a900473ffffffffffffffffffffffffffffffffffffffff1681565b6005818154811061122a575f80fd5b905f5260205f20015f915054906101000a900473ffffffffffffffffffffffffffffffffffffffff1681565b6009602052815f5260405f20602052805f5260405f205f915091509054906101000a900460ff1681565b60035481565b60025481565b60015481565b6008602052805f5260405f205f91509050805f015490806001015490806002015490806003015490806004015490806005015490806006015f9054906101000a900460ff16905087565b5f8054906101000a900473ffffffffffffffffffffffffffffffffffffffff1673ffffffffffffffffffffffffffffffffffffffff163373ffffffffffffffffffffffffffffffffffffffff1614611369576040517f08c379a000000000000000000000000000000000000000000000000000000000815260040161136090611e3b565b60405180910390fd5b5f73ffffffffffffffffffffffffffffffffffffffff168173ffffffffffffffffffffffffffffffffffffffff16036113d7576040517f08c379a00000000000000000000000000000000000000000000000000000000081526004016113ce90611ea3565b60405180910390fd5b8073ffffffffffffffffffffffffffffffffffffffff165f8054906101000a900473ffffffffffffffffffffffffffffffffffffffff1673ffffffffffffffffffffffffffffffffffffffff167f8be0079c531659141344cd1fd0a4f28419497f9722a3daafe3b4186f6b6457e060405160405180910390a3805f806101000a81548173ffffffffffffffffffffffffffffffffffffffff021916908373ffffffffffffffffffffffffffffffffffffffff16021790555050565b62093a806003546114a39190611eee565b42106114b2576114b16114d6565b5b565b62278d006004546114c59190611eee565b42106114d4576114d3611622565b5b565b5f60058054905090505f6002476114ed9190611f4e565b90505f8083116114fd575f61150a565b82826115099190611f4e565b5b90506040518060e00160405280600154815260200184815260200183815260200182815260200160035481526020014281526020016001151581525060075f60015481526020019081526020015f205f820151815f01556020820151816001015560408201518160020155606082015181600301556080820151816004015560a0820151816005015560c0820151816006015f6101000a81548160ff0219169083151502179055509050507fb486e0c214f6d65e1072cc27c74ada7881ca4cc7d3b577a0c141f48ba0fbfbf560015484836040516115ea93929190611f7e565b60405180910390a160015f81548092919061160490611fc6565b91905055504260038190555060055f61161d919061176e565b505050565b5f60068054905090505f6002476116399190611f4e565b90505f808311611649575f611656565b82826116559190611f4e565b5b90506040518060e00160405280600254815260200184815260200183815260200182815260200160045481526020014281526020016001151581525060085f60025481526020019081526020015f205f820151815f01556020820151816001015560408201518160020155606082015181600301556080820151816004015560a0820151816005015560c0820151816006015f6101000a81548160ff0219169083151502179055509050507fb486e0c214f6d65e1072cc27c74ada7881ca4cc7d3b577a0c141f48ba0fbfbf560025484836040516117369392919061200d565b60405180910390a160025f81548092919061175090611fc6565b91905055504260048190555060065f611769919061176e565b505050565b5080545f8255905f5260205f2090810190611789919061178c565b50565b5b808211156117a3575f815f90555060010161178d565b5090565b5f80fd5b5f819050919050565b6117bd816117ab565b81146117c7575f80fd5b50565b5f813590506117d8816117b4565b92915050565b5f602082840312156117f3576117f26117a7565b5b5f611800848285016117ca565b91505092915050565b5f73ffffffffffffffffffffffffffffffffffffffff82169050919050565b5f61183282611809565b9050919050565b61184281611828565b811461184c575f80fd5b50565b5f8135905061185d81611839565b92915050565b5f8060408385031215611879576118786117a7565b5b5f611886858286016117ca565b92505060206118978582860161184f565b9150509250929050565b5f8115159050919050565b6118b5816118a1565b82525050565b5f6020820190506118ce5f8301846118ac565b92915050565b6118dd816117ab565b82525050565b5f6020820190506118f65f8301846118d4565b92915050565b61190581611828565b82525050565b5f60208201905061191e5f8301846118fc565b92915050565b61192d816118a1565b8114611937575f80fd5b50565b5f8135905061194881611924565b92915050565b5f805f60608486031215611965576119646117a7565b5b5f6119728682870161184f565b9350506020611983868287016117ca565b92505060406119948682870161193a565b9150509250925092565b5f6080820190506119b15f8301876118ac565b6119be60208301866118ac565b6119cb60408301856118d4565b6119d860608301846118ac565b95945050505050565b5f60e0820190506119f45f83018a6118d4565b611a0160208301896118d4565b611a0e60408301886118d4565b611a1b60608301876118d4565b611a2860808301866118d4565b611a3560a08301856118d4565b611a4260c08301846118ac565b98975050505050505050565b5f60208284031215611a6357611a626117a7565b5b5f611a708482850161184f565b91505092915050565b5f82825260208201905092915050565b7f526f756e64206e6f7420636c6f736564207965740000000000000000000000005f82015250565b5f611abd601483611a79565b9150611ac882611a89565b602082019050919050565b5f6020820190508181035f830152611aea81611ab1565b9050919050565b7f4e6f74207175616c6966696564000000000000000000000000000000000000005f82015250565b5f611b25600d83611a79565b9150611b3082611af1565b602082019050919050565b5f6020820190508181035f830152611b5281611b19565b9050919050565b7f416c726561647920636c61696d656400000000000000000000000000000000005f82015250565b5f611b8d600f83611a79565b9150611b9882611b59565b602082019050919050565b5f6020820190508181035f830152611bba81611b81565b9050919050565b7f4e6f2072657761726400000000000000000000000000000000000000000000005f82015250565b5f611bf5600983611a79565b9150611c0082611bc1565b602082019050919050565b5f6020820190508181035f830152611c2281611be9565b9050919050565b7f5765656b6c7900000000000000000000000000000000000000000000000000005f82015250565b5f611c5d600683611a79565b9150611c6882611c29565b602082019050919050565b5f6060820190508181035f830152611c8a81611c51565b9050611c9960208301856118d4565b611ca660408301846118d4565b9392505050565b7f4d6f6e74686c79000000000000000000000000000000000000000000000000005f82015250565b5f611ce1600783611a79565b9150611cec82611cad565b602082019050919050565b5f6060820190508181035f830152611d0e81611cd5565b9050611d1d60208301856118d4565b611d2a60408301846118d4565b9392505050565b7f416c7265616479207175616c69666965640000000000000000000000000000005f82015250565b5f611d65601183611a79565b9150611d7082611d31565b602082019050919050565b5f6020820190508181035f830152611d9281611d59565b9050919050565b5f6040820190508181035f830152611db081611c51565b9050611dbf60208301846118d4565b92915050565b5f6040820190508181035f830152611ddc81611cd5565b9050611deb60208301846118d4565b92915050565b7f4f776e61626c653a2063616c6c6572206973206e6f7420746865206f776e65725f82015250565b5f611e25602083611a79565b9150611e3082611df1565b602082019050919050565b5f6020820190508181035f830152611e5281611e19565b9050919050565b7f4e6577206f776e65722063616e6e6f74206265207a65726f00000000000000005f82015250565b5f611e8d601883611a79565b9150611e9882611e59565b602082019050919050565b5f6020820190508181035f830152611eba81611e81565b9050919050565b7f4e487b71000000000000000000000000000000000000000000000000000000005f52601160045260245ffd5b5f611ef8826117ab565b9150611f03836117ab565b9250828201905080821115611f1b57611f1a611ec1565b5b92915050565b7f4e487b71000000000000000000000000000000000000000000000000000000005f52601260045260245ffd5b5f611f58826117ab565b9150611f63836117ab565b925082611f7357611f72611f21565b5b828204905092915050565b5f6080820190508181035f830152611f9581611c51565b9050611fa460208301866118d4565b611fb160408301856118d4565b611fbe60608301846118d4565b949350505050565b5f611fd0826117ab565b91507fffffffffffffffffffffffffffffffffffffffffffffffffffffffffffffffff820361200257612001611ec1565b5b600182019050919050565b5f6080820190508181035f83015261202481611cd5565b905061203360208301866118d4565b61204060408301856118d4565b61204d60608301846118d4565b94935050505056fea2646970667358221220d48dabc03d34d8484bc92b49107cbc8d2bc858b2401c76a1f666dd9264351a0364736f6c63430008140033",
					"opcodes": "PUSH1 0x80 PUSH1 0x40 MSTORE PUSH1 0x1 DUP1 SSTORE PUSH1 0x1 PUSH1 0x2 SSTORE CALLVALUE DUP1 ISZERO PUSH2 0x18 JUMPI PUSH0 DUP1 REVERT JUMPDEST POP CALLER PUSH0 DUP1 PUSH2 0x100 EXP DUP2 SLOAD DUP2 PUSH20 0xFFFFFFFFFFFFFFFFFFFFFFFFFFFFFFFFFFFFFFFF MUL NOT AND SWAP1 DUP4 PUSH20 0xFFFFFFFFFFFFFFFFFFFFFFFFFFFFFFFFFFFFFFFF AND MUL OR SWAP1 SSTORE POP PUSH0 DUP1 SLOAD SWAP1 PUSH2 0x100 EXP SWAP1 DIV PUSH20 0xFFFFFFFFFFFFFFFFFFFFFFFFFFFFFFFFFFFFFFFF AND PUSH20 0xFFFFFFFFFFFFFFFFFFFFFFFFFFFFFFFFFFFFFFFF AND PUSH0 PUSH20 0xFFFFFFFFFFFFFFFFFFFFFFFFFFFFFFFFFFFFFFFF AND PUSH32 0x8BE0079C531659141344CD1FD0A4F28419497F9722A3DAAFE3B4186F6B6457E0 PUSH1 0x40 MLOAD PUSH1 0x40 MLOAD DUP1 SWAP2 SUB SWAP1 LOG3 TIMESTAMP PUSH1 0x3 DUP2 SWAP1 SSTORE POP TIMESTAMP PUSH1 0x4 DUP2 SWAP1 SSTORE POP TIMESTAMP PUSH1 0x7 PUSH0 PUSH1 0x1 SLOAD DUP2 MSTORE PUSH1 0x20 ADD SWAP1 DUP2 MSTORE PUSH1 0x20 ADD PUSH0 KECCAK256 PUSH1 0x4 ADD DUP2 SWAP1 SSTORE POP TIMESTAMP PUSH1 0x8 PUSH0 PUSH1 0x2 SLOAD DUP2 MSTORE PUSH1 0x20 ADD SWAP1 DUP2 MSTORE PUSH1 0x20 ADD PUSH0 KECCAK256 PUSH1 0x4 ADD DUP2 SWAP1 SSTORE POP PUSH2 0x208B DUP1 PUSH2 0x122 PUSH0 CODECOPY PUSH0 RETURN INVALID PUSH1 0x80 PUSH1 0x40 MSTORE PUSH1 0x4 CALLDATASIZE LT PUSH2 0x129 JUMPI PUSH0 CALLDATALOAD PUSH1 0xE0 SHR DUP1 PUSH4 0xA22B9E87 GT PUSH2 0xAA JUMPI DUP1 PUSH4 0xB4BA97FC GT PUSH2 0x6E JUMPI DUP1 PUSH4 0xB4BA97FC EQ PUSH2 0x3E6 JUMPI DUP1 PUSH4 0xC1C13B2F EQ PUSH2 0x422 JUMPI DUP1 PUSH4 0xC9ED0708 EQ PUSH2 0x44C JUMPI DUP1 PUSH4 0xCA8E9121 EQ PUSH2 0x476 JUMPI DUP1 PUSH4 0xEF4549EB EQ PUSH2 0x4A0 JUMPI DUP1 PUSH4 0xF2FDE38B EQ PUSH2 0x4E2 JUMPI PUSH2 0x129 JUMP JUMPDEST DUP1 PUSH4 0xA22B9E87 EQ PUSH2 0x2C6 JUMPI DUP1 PUSH4 0xA56B1815 EQ PUSH2 0x302 JUMPI DUP1 PUSH4 0xA6791EAE EQ PUSH2 0x344 JUMPI DUP1 PUSH4 0xA80FEE55 EQ PUSH2 0x36E JUMPI DUP1 PUSH4 0xAD127E6B EQ PUSH2 0x3AA JUMPI PUSH2 0x129 JUMP JUMPDEST DUP1 PUSH4 0x6B77C79D GT PUSH2 0xF1 JUMPI DUP1 PUSH4 0x6B77C79D EQ PUSH2 0x21F JUMPI DUP1 PUSH4 0x76F5F700 EQ PUSH2 0x229 JUMPI DUP1 PUSH4 0x8DA5CB5B EQ PUSH2 0x253 JUMPI DUP1 PUSH4 0x9680003D EQ PUSH2 0x27D JUMPI DUP1 PUSH4 0xA058DC09 EQ PUSH2 0x2BC JUMPI PUSH2 0x129 JUMP JUMPDEST DUP1 PUSH4 0xA3F5A42 EQ PUSH2 0x12D JUMPI DUP1 PUSH4 0x1C1DA18E EQ PUSH2 0x155 JUMPI DUP1 PUSH4 0x2A891534 EQ PUSH2 0x191 JUMPI DUP1 PUSH4 0x51A4F04E EQ PUSH2 0x1BB JUMPI DUP1 PUSH4 0x5E5BB367 EQ PUSH2 0x1E3 JUMPI JUMPDEST PUSH0 DUP1 REVERT JUMPDEST CALLVALUE DUP1 ISZERO PUSH2 0x138 JUMPI PUSH0 DUP1 REVERT JUMPDEST POP PUSH2 0x153 PUSH1 0x4 DUP1 CALLDATASIZE SUB DUP2 ADD SWAP1 PUSH2 0x14E SWAP2 SWAP1 PUSH2 0x17DE JUMP JUMPDEST PUSH2 0x50A JUMP JUMPDEST STOP JUMPDEST CALLVALUE DUP1 ISZERO PUSH2 0x160 JUMPI PUSH0 DUP1 REVERT JUMPDEST POP PUSH2 0x17B PUSH1 0x4 DUP1 CALLDATASIZE SUB DUP2 ADD SWAP1 PUSH2 0x176 SWAP2 SWAP1 PUSH2 0x1863 JUMP JUMPDEST PUSH2 0x7F5 JUMP JUMPDEST PUSH1 0x40 MLOAD PUSH2 0x188 SWAP2 SWAP1 PUSH2 0x18BB JUMP JUMPDEST PUSH1 0x40 MLOAD DUP1 SWAP2 SUB SWAP1 RETURN JUMPDEST CALLVALUE DUP1 ISZERO PUSH2 0x19C JUMPI PUSH0 DUP1 REVERT JUMPDEST POP PUSH2 0x1A5 PUSH2 0x81F JUMP JUMPDEST PUSH1 0x40 MLOAD PUSH2 0x1B2 SWAP2 SWAP1 PUSH2 0x18E3 JUMP JUMPDEST PUSH1 0x40 MLOAD DUP1 SWAP2 SUB SWAP1 RETURN JUMPDEST CALLVALUE DUP1 ISZERO PUSH2 0x1C6 JUMPI PUSH0 DUP1 REVERT JUMPDEST POP PUSH2 0x1E1 PUSH1 0x4 DUP1 CALLDATASIZE SUB DUP2 ADD SWAP1 PUSH2 0x1DC SWAP2 SWAP1 PUSH2 0x17DE JUMP JUMPDEST PUSH2 0x826 JUMP JUMPDEST STOP JUMPDEST CALLVALUE DUP1 ISZERO PUSH2 0x1EE JUMPI PUSH0 DUP1 REVERT JUMPDEST POP PUSH2 0x209 PUSH1 0x4 DUP1 CALLDATASIZE SUB DUP2 ADD SWAP1 PUSH2 0x204 SWAP2 SWAP1 PUSH2 0x1863 JUMP JUMPDEST PUSH2 0xB11 JUMP JUMPDEST PUSH1 0x40 MLOAD PUSH2 0x216 SWAP2 SWAP1 PUSH2 0x18BB JUMP JUMPDEST PUSH1 0x40 MLOAD DUP1 SWAP2 SUB SWAP1 RETURN JUMPDEST PUSH2 0x227 PUSH2 0xB3B JUMP JUMPDEST STOP JUMPDEST CALLVALUE DUP1 ISZERO PUSH2 0x234 JUMPI PUSH0 DUP1 REVERT JUMPDEST POP PUSH2 0x23D PUSH2 0xCF6 JUMP JUMPDEST PUSH1 0x40 MLOAD PUSH2 0x24A SWAP2 SWAP1 PUSH2 0x18E3 JUMP JUMPDEST PUSH1 0x40 MLOAD DUP1 SWAP2 SUB SWAP1 RETURN JUMPDEST CALLVALUE DUP1 ISZERO PUSH2 0x25E JUMPI PUSH0 DUP1 REVERT JUMPDEST POP PUSH2 0x267 PUSH2 0xCFD JUMP JUMPDEST PUSH1 0x40 MLOAD PUSH2 0x274 SWAP2 SWAP1 PUSH2 0x190B JUMP JUMPDEST PUSH1 0x40 MLOAD DUP1 SWAP2 SUB SWAP1 RETURN JUMPDEST CALLVALUE DUP1 ISZERO PUSH2 0x288 JUMPI PUSH0 DUP1 REVERT JUMPDEST POP PUSH2 0x2A3 PUSH1 0x4 DUP1 CALLDATASIZE SUB DUP2 ADD SWAP1 PUSH2 0x29E SWAP2 SWAP1 PUSH2 0x194E JUMP JUMPDEST PUSH2 0xD20 JUMP JUMPDEST PUSH1 0x40 MLOAD PUSH2 0x2B3 SWAP5 SWAP4 SWAP3 SWAP2 SWAP1 PUSH2 0x199E JUMP JUMPDEST PUSH1 0x40 MLOAD DUP1 SWAP2 SUB SWAP1 RETURN JUMPDEST PUSH2 0x2C4 PUSH2 0xFAB JUMP JUMPDEST STOP JUMPDEST CALLVALUE DUP1 ISZERO PUSH2 0x2D1 JUMPI PUSH0 DUP1 REVERT JUMPDEST POP PUSH2 0x2EC PUSH1 0x4 DUP1 CALLDATASIZE SUB DUP2 ADD SWAP1 PUSH2 0x2E7 SWAP2 SWAP1 PUSH2 0x1863 JUMP JUMPDEST PUSH2 0x1166 JUMP JUMPDEST PUSH1 0x40 MLOAD PUSH2 0x2F9 SWAP2 SWAP1 PUSH2 0x18BB JUMP JUMPDEST PUSH1 0x40 MLOAD DUP1 SWAP2 SUB SWAP1 RETURN JUMPDEST CALLVALUE DUP1 ISZERO PUSH2 0x30D JUMPI PUSH0 DUP1 REVERT JUMPDEST POP PUSH2 0x328 PUSH1 0x4 DUP1 CALLDATASIZE SUB DUP2 ADD SWAP1 PUSH2 0x323 SWAP2 SWAP1 PUSH2 0x17DE JUMP JUMPDEST PUSH2 0x1190 JUMP JUMPDEST PUSH1 0x40 MLOAD PUSH2 0x33B SWAP8 SWAP7 SWAP6 SWAP5 SWAP4 SWAP3 SWAP2 SWAP1 PUSH2 0x19E1 JUMP JUMPDEST PUSH1 0x40 MLOAD DUP1 SWAP2 SUB SWAP1 RETURN JUMPDEST CALLVALUE DUP1 ISZERO PUSH2 0x34F JUMPI PUSH0 DUP1 REVERT JUMPDEST POP PUSH2 0x358 PUSH2 0x11DA JUMP JUMPDEST PUSH1 0x40 MLOAD PUSH2 0x365 SWAP2 SWAP1 PUSH2 0x18E3 JUMP JUMPDEST PUSH1 0x40 MLOAD DUP1 SWAP2 SUB SWAP1 RETURN JUMPDEST CALLVALUE DUP1 ISZERO PUSH2 0x379 JUMPI PUSH0 DUP1 REVERT JUMPDEST POP PUSH2 0x394 PUSH1 0x4 DUP1 CALLDATASIZE SUB DUP2 ADD SWAP1 PUSH2 0x38F SWAP2 SWAP1 PUSH2 0x17DE JUMP JUMPDEST PUSH2 0x11E0 JUMP JUMPDEST PUSH1 0x40 MLOAD PUSH2 0x3A1 SWAP2 SWAP1 PUSH2 0x190B JUMP JUMPDEST PUSH1 0x40 MLOAD DUP1 SWAP2 SUB SWAP1 RETURN JUMPDEST CALLVALUE DUP1 ISZERO PUSH2 0x3B5 JUMPI PUSH0 DUP1 REVERT JUMPDEST POP PUSH2 0x3D0 PUSH1 0x4 DUP1 CALLDATASIZE SUB DUP2 ADD SWAP1 PUSH2 0x3CB SWAP2 SWAP1 PUSH2 0x17DE JUMP JUMPDEST PUSH2 0x121B JUMP JUMPDEST PUSH1 0x40 MLOAD PUSH2 0x3DD SWAP2 SWAP1 PUSH2 0x190B JUMP JUMPDEST PUSH1 0x40 MLOAD DUP1 SWAP2 SUB SWAP1 RETURN JUMPDEST CALLVALUE DUP1 ISZERO PUSH2 0x3F1 JUMPI PUSH0 DUP1 REVERT JUMPDEST POP PUSH2 0x40C PUSH1 0x4 DUP1 CALLDATASIZE SUB DUP2 ADD SWAP1 PUSH2 0x407 SWAP2 SWAP1 PUSH2 0x1863 JUMP JUMPDEST PUSH2 0x1256 JUMP JUMPDEST PUSH1 0x40 MLOAD PUSH2 0x419 SWAP2 SWAP1 PUSH2 0x18BB JUMP JUMPDEST PUSH1 0x40 MLOAD DUP1 SWAP2 SUB SWAP1 RETURN JUMPDEST CALLVALUE DUP1 ISZERO PUSH2 0x42D JUMPI PUSH0 DUP1 REVERT JUMPDEST POP PUSH2 0x436 PUSH2 0x1280 JUMP JUMPDEST PUSH1 0x40 MLOAD PUSH2 0x443 SWAP2 SWAP1 PUSH2 0x18E3 JUMP JUMPDEST PUSH1 0x40 MLOAD DUP1 SWAP2 SUB SWAP1 RETURN JUMPDEST CALLVALUE DUP1 ISZERO PUSH2 0x457 JUMPI PUSH0 DUP1 REVERT JUMPDEST POP PUSH2 0x460 PUSH2 0x1286 JUMP JUMPDEST PUSH1 0x40 MLOAD PUSH2 0x46D SWAP2 SWAP1 PUSH2 0x18E3 JUMP JUMPDEST PUSH1 0x40 MLOAD DUP1 SWAP2 SUB SWAP1 RETURN JUMPDEST CALLVALUE DUP1 ISZERO PUSH2 0x481 JUMPI PUSH0 DUP1 REVERT JUMPDEST POP PUSH2 0x48A PUSH2 0x128C JUMP JUMPDEST PUSH1 0x40 MLOAD PUSH2 0x497 SWAP2 SWAP1 PUSH2 0x18E3 JUMP JUMPDEST PUSH1 0x40 MLOAD DUP1 SWAP2 SUB SWAP1 RETURN JUMPDEST CALLVALUE DUP1 ISZERO PUSH2 0x4AB JUMPI PUSH0 DUP1 REVERT JUMPDEST POP PUSH2 0x4C6 PUSH1 0x4 DUP1 CALLDATASIZE SUB DUP2 ADD SWAP1 PUSH2 0x4C1 SWAP2 SWAP1 PUSH2 0x17DE JUMP JUMPDEST PUSH2 0x1292 JUMP JUMPDEST PUSH1 0x40 MLOAD PUSH2 0x4D9 SWAP8 SWAP7 SWAP6 SWAP5 SWAP4 SWAP3 SWAP2 SWAP1 PUSH2 0x19E1 JUMP JUMPDEST PUSH1 0x40 MLOAD DUP1 SWAP2 SUB SWAP1 RETURN JUMPDEST CALLVALUE DUP1 ISZERO PUSH2 0x4ED JUMPI PUSH0 DUP1 REVERT JUMPDEST POP PUSH2 0x508 PUSH1 0x4 DUP1 CALLDATASIZE SUB DUP2 ADD SWAP1 PUSH2 0x503 SWAP2 SWAP1 PUSH2 0x1A4E JUMP JUMPDEST PUSH2 0x12DC JUMP JUMPDEST STOP JUMPDEST PUSH0 PUSH1 0x7 PUSH0 DUP4 DUP2 MSTORE PUSH1 0x20 ADD SWAP1 DUP2 MSTORE PUSH1 0x20 ADD PUSH0 KECCAK256 PUSH1 0x40 MLOAD DUP1 PUSH1 0xE0 ADD PUSH1 0x40 MSTORE SWAP1 DUP2 PUSH0 DUP3 ADD SLOAD DUP2 MSTORE PUSH1 0x20 ADD PUSH1 0x1 DUP3 ADD SLOAD DUP2 MSTORE PUSH1 0x20 ADD PUSH1 0x2 DUP3 ADD SLOAD DUP2 MSTORE PUSH1 0x20 ADD PUSH1 0x3 DUP3 ADD SLOAD DUP2 MSTORE PUSH1 0x20 ADD PUSH1 0x4 DUP3 ADD SLOAD DUP2 MSTORE PUSH1 0x20 ADD PUSH1 0x5 DUP3 ADD SLOAD DUP2 MSTORE PUSH1 0x20 ADD PUSH1 0x6 DUP3 ADD PUSH0 SWAP1 SLOAD SWAP1 PUSH2 0x100 EXP SWAP1 DIV PUSH1 0xFF AND ISZERO ISZERO ISZERO ISZERO DUP2 MSTORE POP POP SWAP1 POP DUP1 PUSH1 0xC0 ADD MLOAD PUSH2 0x5C2 JUMPI PUSH1 0x40 MLOAD PUSH32 0x8C379A000000000000000000000000000000000000000000000000000000000 DUP2 MSTORE PUSH1 0x4 ADD PUSH2 0x5B9 SWAP1 PUSH2 0x1AD3 JUMP JUMPDEST PUSH1 0x40 MLOAD DUP1 SWAP2 SUB SWAP1 REVERT JUMPDEST PUSH1 0x9 PUSH0 DUP4 DUP2 MSTORE PUSH1 0x20 ADD SWAP1 DUP2 MSTORE PUSH1 0x20 ADD PUSH0 KECCAK256 PUSH0 CALLER PUSH20 0xFFFFFFFFFFFFFFFFFFFFFFFFFFFFFFFFFFFFFFFF AND PUSH20 0xFFFFFFFFFFFFFFFFFFFFFFFFFFFFFFFFFFFFFFFF AND DUP2 MSTORE PUSH1 0x20 ADD SWAP1 DUP2 MSTORE PUSH1 0x20 ADD PUSH0 KECCAK256 PUSH0 SWAP1 SLOAD SWAP1 PUSH2 0x100 EXP SWAP1 DIV PUSH1 0xFF AND PUSH2 0x65A JUMPI PUSH1 0x40 MLOAD PUSH32 0x8C379A000000000000000000000000000000000000000000000000000000000 DUP2 MSTORE PUSH1 0x4 ADD PUSH2 0x651 SWAP1 PUSH2 0x1B3B JUMP JUMPDEST PUSH1 0x40 MLOAD DUP1 SWAP2 SUB SWAP1 REVERT JUMPDEST PUSH1 0xB PUSH0 DUP4 DUP2 MSTORE PUSH1 0x20 ADD SWAP1 DUP2 MSTORE PUSH1 0x20 ADD PUSH0 KECCAK256 PUSH0 CALLER PUSH20 0xFFFFFFFFFFFFFFFFFFFFFFFFFFFFFFFFFFFFFFFF AND PUSH20 0xFFFFFFFFFFFFFFFFFFFFFFFFFFFFFFFFFFFFFFFF AND DUP2 MSTORE PUSH1 0x20 ADD SWAP1 DUP2 MSTORE PUSH1 0x20 ADD PUSH0 KECCAK256 PUSH0 SWAP1 SLOAD SWAP1 PUSH2 0x100 EXP SWAP1 DIV PUSH1 0xFF AND ISZERO PUSH2 0x6F3 JUMPI PUSH1 0x40 MLOAD PUSH32 0x8C379A000000000000000000000000000000000000000000000000000000000 DUP2 MSTORE PUSH1 0x4 ADD PUSH2 0x6EA SWAP1 PUSH2 0x1BA3 JUMP JUMPDEST PUSH1 0x40 MLOAD DUP1 SWAP2 SUB SWAP1 REVERT JUMPDEST PUSH0 DUP2 PUSH1 0x60 ADD MLOAD GT PUSH2 0x739 JUMPI PUSH1 0x40 MLOAD PUSH32 0x8C379A000000000000000000000000000000000000000000000000000000000 DUP2 MSTORE PUSH1 0x4 ADD PUSH2 0x730 SWAP1 PUSH2 0x1C0B JUMP JUMPDEST PUSH1 0x40 MLOAD DUP1 SWAP2 SUB SWAP1 REVERT JUMPDEST PUSH1 0x1 PUSH1 0xB PUSH0 DUP5 DUP2 MSTORE PUSH1 0x20 ADD SWAP1 DUP2 MSTORE PUSH1 0x20 ADD PUSH0 KECCAK256 PUSH0 CALLER PUSH20 0xFFFFFFFFFFFFFFFFFFFFFFFFFFFFFFFFFFFFFFFF AND PUSH20 0xFFFFFFFFFFFFFFFFFFFFFFFFFFFFFFFFFFFFFFFF AND DUP2 MSTORE PUSH1 0x20 ADD SWAP1 DUP2 MSTORE PUSH1 0x20 ADD PUSH0 KECCAK256 PUSH0 PUSH2 0x100 EXP DUP2 SLOAD DUP2 PUSH1 0xFF MUL NOT AND SWAP1 DUP4 ISZERO ISZERO MUL OR SWAP1 SSTORE POP CALLER PUSH20 0xFFFFFFFFFFFFFFFFFFFFFFFFFFFFFFFFFFFFFFFF AND PUSH32 0x1A3BE26D9BA470AD16BB376AA13666C5C90511B63416723049A5ADFFEAEFA647 DUP4 DUP4 PUSH1 0x60 ADD MLOAD PUSH1 0x40 MLOAD PUSH2 0x7E9 SWAP3 SWAP2 SWAP1 PUSH2 0x1C73 JUMP JUMPDEST PUSH1 0x40 MLOAD DUP1 SWAP2 SUB SWAP1 LOG2 POP POP JUMP JUMPDEST PUSH1 0xC PUSH1 0x20 MSTORE DUP2 PUSH0 MSTORE PUSH1 0x40 PUSH0 KECCAK256 PUSH1 0x20 MSTORE DUP1 PUSH0 MSTORE PUSH1 0x40 PUSH0 KECCAK256 PUSH0 SWAP2 POP SWAP2 POP SWAP1 SLOAD SWAP1 PUSH2 0x100 EXP SWAP1 DIV PUSH1 0xFF AND DUP2 JUMP JUMPDEST PUSH3 0x278D00 DUP2 JUMP JUMPDEST PUSH0 PUSH1 0x8 PUSH0 DUP4 DUP2 MSTORE PUSH1 0x20 ADD SWAP1 DUP2 MSTORE PUSH1 0x20 ADD PUSH0 KECCAK256 PUSH1 0x40 MLOAD DUP1 PUSH1 0xE0 ADD PUSH1 0x40 MSTORE SWAP1 DUP2 PUSH0 DUP3 ADD SLOAD DUP2 MSTORE PUSH1 0x20 ADD PUSH1 0x1 DUP3 ADD SLOAD DUP2 MSTORE PUSH1 0x20 ADD PUSH1 0x2 DUP3 ADD SLOAD DUP2 MSTORE PUSH1 0x20 ADD PUSH1 0x3 DUP3 ADD SLOAD DUP2 MSTORE PUSH1 0x20 ADD PUSH1 0x4 DUP3 ADD SLOAD DUP2 MSTORE PUSH1 0x20 ADD PUSH1 0x5 DUP3 ADD SLOAD DUP2 MSTORE PUSH1 0x20 ADD PUSH1 0x6 DUP3 ADD PUSH0 SWAP1 SLOAD SWAP1 PUSH2 0x100 EXP SWAP1 DIV PUSH1 0xFF AND ISZERO ISZERO ISZERO ISZERO DUP2 MSTORE POP POP SWAP1 POP DUP1 PUSH1 0xC0 ADD MLOAD PUSH2 0x8DE JUMPI PUSH1 0x40 MLOAD PUSH32 0x8C379A000000000000000000000000000000000000000000000000000000000 DUP2 MSTORE PUSH1 0x4 ADD PUSH2 0x8D5 SWAP1 PUSH2 0x1AD3 JUMP JUMPDEST PUSH1 0x40 MLOAD DUP1 SWAP2 SUB SWAP1 REVERT JUMPDEST PUSH1 0xA PUSH0 DUP4 DUP2 MSTORE PUSH1 0x20 ADD SWAP1 DUP2 MSTORE PUSH1 0x20 ADD PUSH0 KECCAK256 PUSH0 CALLER PUSH20 0xFFFFFFFFFFFFFFFFFFFFFFFFFFFFFFFFFFFFFFFF AND PUSH20 0xFFFFFFFFFFFFFFFFFFFFFFFFFFFFFFFFFFFFFFFF AND DUP2 MSTORE PUSH1 0x20 ADD SWAP1 DUP2 MSTORE PUSH1 0x20 ADD PUSH0 KECCAK256 PUSH0 SWAP1 SLOAD SWAP1 PUSH2 0x100 EXP SWAP1 DIV PUSH1 0xFF AND PUSH2 0x976 JUMPI PUSH1 0x40 MLOAD PUSH32 0x8C379A000000000000000000000000000000000000000000000000000000000 DUP2 MSTORE PUSH1 0x4 ADD PUSH2 0x96D SWAP1 PUSH2 0x1B3B JUMP JUMPDEST PUSH1 0x40 MLOAD DUP1 SWAP2 SUB SWAP1 REVERT JUMPDEST PUSH1 0xC PUSH0 DUP4 DUP2 MSTORE PUSH1 0x20 ADD SWAP1 DUP2 MSTORE PUSH1 0x20 ADD PUSH0 KECCAK256 PUSH0 CALLER PUSH20 0xFFFFFFFFFFFFFFFFFFFFFFFFFFFFFFFFFFFFFFFF AND PUSH20 0xFFFFFFFFFFFFFFFFFFFFFFFFFFFFFFFFFFFFFFFF AND DUP2 MSTORE PUSH1 0x20 ADD SWAP1 DUP2 MSTORE PUSH1 0x20 ADD PUSH0 KECCAK256 PUSH0 SWAP1 SLOAD SWAP1 PUSH2 0x100 EXP SWAP1 DIV PUSH1 0xFF AND ISZERO PUSH2 0xA0F JUMPI PUSH1 0x40 MLOAD PUSH32 0x8C379A000000000000000000000000000000000000000000000000000000000 DUP2 MSTORE PUSH1 0x4 ADD PUSH2 0xA06 SWAP1 PUSH2 0x1BA3 JUMP JUMPDEST PUSH1 0x40 MLOAD DUP1 SWAP2 SUB SWAP1 REVERT JUMPDEST PUSH0 DUP2 PUSH1 0x60 ADD MLOAD GT PUSH2 0xA55 JUMPI PUSH1 0x40 MLOAD PUSH32 0x8C379A000000000000000000000000000000000000000000000000000000000 DUP2 MSTORE PUSH1 0x4 ADD PUSH2 0xA4C SWAP1 PUSH2 0x1C0B JUMP JUMPDEST PUSH1 0x40 MLOAD DUP1 SWAP2 SUB SWAP1 REVERT JUMPDEST PUSH1 0x1 PUSH1 0xC PUSH0 DUP5 DUP2 MSTORE PUSH1 0x20 ADD SWAP1 DUP2 MSTORE PUSH1 0x20 ADD PUSH0 KECCAK256 PUSH0 CALLER PUSH20 0xFFFFFFFFFFFFFFFFFFFFFFFFFFFFFFFFFFFFFFFF AND PUSH20 0xFFFFFFFFFFFFFFFFFFFFFFFFFFFFFFFFFFFFFFFF AND DUP2 MSTORE PUSH1 0x20 ADD SWAP1 DUP2 MSTORE PUSH1 0x20 ADD PUSH0 KECCAK256 PUSH0 PUSH2 0x100 EXP DUP2 SLOAD DUP2 PUSH1 0xFF MUL NOT AND SWAP1 DUP4 ISZERO ISZERO MUL OR SWAP1 SSTORE POP CALLER PUSH20 0xFFFFFFFFFFFFFFFFFFFFFFFFFFFFFFFFFFFFFFFF AND PUSH32 0x1A3BE26D9BA470AD16BB376AA13666C5C90511B63416723049A5ADFFEAEFA647 DUP4 DUP4 PUSH1 0x60 ADD MLOAD PUSH1 0x40 MLOAD PUSH2 0xB05 SWAP3 SWAP2 SWAP1 PUSH2 0x1CF7 JUMP JUMPDEST PUSH1 0x40 MLOAD DUP1 SWAP2 SUB SWAP1 LOG2 POP POP JUMP JUMPDEST PUSH1 0xA PUSH1 0x20 MSTORE DUP2 PUSH0 MSTORE PUSH1 0x40 PUSH0 KECCAK256 PUSH1 0x20 MSTORE DUP1 PUSH0 MSTORE PUSH1 0x40 PUSH0 KECCAK256 PUSH0 SWAP2 POP SWAP2 POP SWAP1 SLOAD SWAP1 PUSH2 0x100 EXP SWAP1 DIV PUSH1 0xFF AND DUP2 JUMP JUMPDEST PUSH2 0xB43 PUSH2 0x1492 JUMP JUMPDEST PUSH1 0x9 PUSH0 PUSH1 0x1 SLOAD DUP2 MSTORE PUSH1 0x20 ADD SWAP1 DUP2 MSTORE PUSH1 0x20 ADD PUSH0 KECCAK256 PUSH0 CALLER PUSH20 0xFFFFFFFFFFFFFFFFFFFFFFFFFFFFFFFFFFFFFFFF AND PUSH20 0xFFFFFFFFFFFFFFFFFFFFFFFFFFFFFFFFFFFFFFFF AND DUP2 MSTORE PUSH1 0x20 ADD SWAP1 DUP2 MSTORE PUSH1 0x20 ADD PUSH0 KECCAK256 PUSH0 SWAP1 SLOAD SWAP1 PUSH2 0x100 EXP SWAP1 DIV PUSH1 0xFF AND ISZERO PUSH2 0xBDE JUMPI PUSH1 0x40 MLOAD PUSH32 0x8C379A000000000000000000000000000000000000000000000000000000000 DUP2 MSTORE PUSH1 0x4 ADD PUSH2 0xBD5 SWAP1 PUSH2 0x1D7B JUMP JUMPDEST PUSH1 0x40 MLOAD DUP1 SWAP2 SUB SWAP1 REVERT JUMPDEST PUSH1 0x5 CALLER SWAP1 DUP1 PUSH1 0x1 DUP2 SLOAD ADD DUP1 DUP3 SSTORE DUP1 SWAP2 POP POP PUSH1 0x1 SWAP1 SUB SWAP1 PUSH0 MSTORE PUSH1 0x20 PUSH0 KECCAK256 ADD PUSH0 SWAP1 SWAP2 SWAP1 SWAP2 SWAP1 SWAP2 PUSH2 0x100 EXP DUP2 SLOAD DUP2 PUSH20 0xFFFFFFFFFFFFFFFFFFFFFFFFFFFFFFFFFFFFFFFF MUL NOT AND SWAP1 DUP4 PUSH20 0xFFFFFFFFFFFFFFFFFFFFFFFFFFFFFFFFFFFFFFFF AND MUL OR SWAP1 SSTORE POP PUSH1 0x1 PUSH1 0x9 PUSH0 PUSH1 0x1 SLOAD DUP2 MSTORE PUSH1 0x20 ADD SWAP1 DUP2 MSTORE PUSH1 0x20 ADD PUSH0 KECCAK256 PUSH0 CALLER PUSH20 0xFFFFFFFFFFFFFFFFFFFFFFFFFFFFFFFFFFFFFFFF AND PUSH20 0xFFFFFFFFFFFFFFFFFFFFFFFFFFFFFFFFFFFFFFFF AND DUP2 MSTORE PUSH1 0x20 ADD SWAP1 DUP2 MSTORE PUSH1 0x20 ADD PUSH0 KECCAK256 PUSH0 PUSH2 0x100 EXP DUP2 SLOAD DUP2 PUSH1 0xFF MUL NOT AND SWAP1 DUP4 ISZERO ISZERO MUL OR SWAP1 SSTORE POP CALLER PUSH20 0xFFFFFFFFFFFFFFFFFFFFFFFFFFFFFFFFFFFFFFFF AND PUSH32 0x577158C2E8120577A90C3A1EE00AD3D7ACBADBA003577F10F7BA8AE958C5AF42 PUSH1 0x1 SLOAD PUSH1 0x40 MLOAD PUSH2 0xCEC SWAP2 SWAP1 PUSH2 0x1D99 JUMP JUMPDEST PUSH1 0x40 MLOAD DUP1 SWAP2 SUB SWAP1 LOG2 JUMP JUMPDEST PUSH3 0x93A80 DUP2 JUMP JUMPDEST PUSH0 DUP1 SLOAD SWAP1 PUSH2 0x100 EXP SWAP1 DIV PUSH20 0xFFFFFFFFFFFFFFFFFFFFFFFFFFFFFFFFFFFFFFFF AND DUP2 JUMP JUMPDEST PUSH0 DUP1 PUSH0 DUP1 DUP5 ISZERO PUSH2 0xE68 JUMPI PUSH0 PUSH1 0x7 PUSH0 DUP9 DUP2 MSTORE PUSH1 0x20 ADD SWAP1 DUP2 MSTORE PUSH1 0x20 ADD PUSH0 KECCAK256 PUSH1 0x40 MLOAD DUP1 PUSH1 0xE0 ADD PUSH1 0x40 MSTORE SWAP1 DUP2 PUSH0 DUP3 ADD SLOAD DUP2 MSTORE PUSH1 0x20 ADD PUSH1 0x1 DUP3 ADD SLOAD DUP2 MSTORE PUSH1 0x20 ADD PUSH1 0x2 DUP3 ADD SLOAD DUP2 MSTORE PUSH1 0x20 ADD PUSH1 0x3 DUP3 ADD SLOAD DUP2 MSTORE PUSH1 0x20 ADD PUSH1 0x4 DUP3 ADD SLOAD DUP2 MSTORE PUSH1 0x20 ADD PUSH1 0x5 DUP3 ADD SLOAD DUP2 MSTORE PUSH1 0x20 ADD PUSH1 0x6 DUP3 ADD PUSH0 SWAP1 SLOAD SWAP1 PUSH2 0x100 EXP SWAP1 DIV PUSH1 0xFF AND ISZERO ISZERO ISZERO ISZERO DUP2 MSTORE POP POP SWAP1 POP PUSH1 0x9 PUSH0 DUP9 DUP2 MSTORE PUSH1 0x20 ADD SWAP1 DUP2 MSTORE PUSH1 0x20 ADD PUSH0 KECCAK256 PUSH0 DUP10 PUSH20 0xFFFFFFFFFFFFFFFFFFFFFFFFFFFFFFFFFFFFFFFF AND PUSH20 0xFFFFFFFFFFFFFFFFFFFFFFFFFFFFFFFFFFFFFFFF AND DUP2 MSTORE PUSH1 0x20 ADD SWAP1 DUP2 MSTORE PUSH1 0x20 ADD PUSH0 KECCAK256 PUSH0 SWAP1 SLOAD SWAP1 PUSH2 0x100 EXP SWAP1 DIV PUSH1 0xFF AND SWAP5 POP PUSH1 0xB PUSH0 DUP9 DUP2 MSTORE PUSH1 0x20 ADD SWAP1 DUP2 MSTORE PUSH1 0x20 ADD PUSH0 KECCAK256 PUSH0 DUP10 PUSH20 0xFFFFFFFFFFFFFFFFFFFFFFFFFFFFFFFFFFFFFFFF AND PUSH20 0xFFFFFFFFFFFFFFFFFFFFFFFFFFFFFFFFFFFFFFFF AND DUP2 MSTORE PUSH1 0x20 ADD SWAP1 DUP2 MSTORE PUSH1 0x20 ADD PUSH0 KECCAK256 PUSH0 SWAP1 SLOAD SWAP1 PUSH2 0x100 EXP SWAP1 DIV PUSH1 0xFF AND SWAP4 POP DUP1 PUSH1 0x60 ADD MLOAD SWAP3 POP DUP1 PUSH1 0xC0 ADD MLOAD SWAP2 POP POP PUSH2 0xFA2 JUMP JUMPDEST PUSH0 PUSH1 0x8 PUSH0 DUP9 DUP2 MSTORE PUSH1 0x20 ADD SWAP1 DUP2 MSTORE PUSH1 0x20 ADD PUSH0 KECCAK256 PUSH1 0x40 MLOAD DUP1 PUSH1 0xE0 ADD PUSH1 0x40 MSTORE SWAP1 DUP2 PUSH0 DUP3 ADD SLOAD DUP2 MSTORE PUSH1 0x20 ADD PUSH1 0x1 DUP3 ADD SLOAD DUP2 MSTORE PUSH1 0x20 ADD PUSH1 0x2 DUP3 ADD SLOAD DUP2 MSTORE PUSH1 0x20 ADD PUSH1 0x3 DUP3 ADD SLOAD DUP2 MSTORE PUSH1 0x20 ADD PUSH1 0x4 DUP3 ADD SLOAD DUP2 MSTORE PUSH1 0x20 ADD PUSH1 0x5 DUP3 ADD SLOAD DUP2 MSTORE PUSH1 0x20 ADD PUSH1 0x6 DUP3 ADD PUSH0 SWAP1 SLOAD SWAP1 PUSH2 0x100 EXP SWAP1 DIV PUSH1 0xFF AND ISZERO ISZERO ISZERO ISZERO DUP2 MSTORE POP POP SWAP1 POP PUSH1 0xA PUSH0 DUP9 DUP2 MSTORE PUSH1 0x20 ADD SWAP1 DUP2 MSTORE PUSH1 0x20 ADD PUSH0 KECCAK256 PUSH0 DUP10 PUSH20 0xFFFFFFFFFFFFFFFFFFFFFFFFFFFFFFFFFFFFFFFF AND PUSH20 0xFFFFFFFFFFFFFFFFFFFFFFFFFFFFFFFFFFFFFFFF AND DUP2 MSTORE PUSH1 0x20 ADD SWAP1 DUP2 MSTORE PUSH1 0x20 ADD PUSH0 KECCAK256 PUSH0 SWAP1 SLOAD SWAP1 PUSH2 0x100 EXP SWAP1 DIV PUSH1 0xFF AND SWAP5 POP PUSH1 0xC PUSH0 DUP9 DUP2 MSTORE PUSH1 0x20 ADD SWAP1 DUP2 MSTORE PUSH1 0x20 ADD PUSH0 KECCAK256 PUSH0 DUP10 PUSH20 0xFFFFFFFFFFFFFFFFFFFFFFFFFFFFFFFFFFFFFFFF AND PUSH20 0xFFFFFFFFFFFFFFFFFFFFFFFFFFFFFFFFFFFFFFFF AND DUP2 MSTORE PUSH1 0x20 ADD SWAP1 DUP2 MSTORE PUSH1 0x20 ADD PUSH0 KECCAK256 PUSH0 SWAP1 SLOAD SWAP1 PUSH2 0x100 EXP SWAP1 DIV PUSH1 0xFF AND SWAP4 POP DUP1 PUSH1 0x60 ADD MLOAD SWAP3 POP DUP1 PUSH1 0xC0 ADD MLOAD SWAP2 POP POP JUMPDEST SWAP4 POP SWAP4 POP SWAP4 POP SWAP4 JUMP JUMPDEST PUSH2 0xFB3 PUSH2 0x14B4 JUMP JUMPDEST PUSH1 0xA PUSH0 PUSH1 0x2 SLOAD DUP2 MSTORE PUSH1 0x20 ADD SWAP1 DUP2 MSTORE PUSH1 0x20 ADD PUSH0 KECCAK256 PUSH0 CALLER PUSH20 0xFFFFFFFFFFFFFFFFFFFFFFFFFFFFFFFFFFFFFFFF AND PUSH20 0xFFFFFFFFFFFFFFFFFFFFFFFFFFFFFFFFFFFFFFFF AND DUP2 MSTORE PUSH1 0x20 ADD SWAP1 DUP2 MSTORE PUSH1 0x20 ADD PUSH0 KECCAK256 PUSH0 SWAP1 SLOAD SWAP1 PUSH2 0x100 EXP SWAP1 DIV PUSH1 0xFF AND ISZERO PUSH2 0x104E JUMPI PUSH1 0x40 MLOAD PUSH32 0x8C379A000000000000000000000000000000000000000000000000000000000 DUP2 MSTORE PUSH1 0x4 ADD PUSH2 0x1045 SWAP1 PUSH2 0x1D7B JUMP JUMPDEST PUSH1 0x40 MLOAD DUP1 SWAP2 SUB SWAP1 REVERT JUMPDEST PUSH1 0x6 CALLER SWAP1 DUP1 PUSH1 0x1 DUP2 SLOAD ADD DUP1 DUP3 SSTORE DUP1 SWAP2 POP POP PUSH1 0x1 SWAP1 SUB SWAP1 PUSH0 MSTORE PUSH1 0x20 PUSH0 KECCAK256 ADD PUSH0 SWAP1 SWAP2 SWAP1 SWAP2 SWAP1 SWAP2 PUSH2 0x100 EXP DUP2 SLOAD DUP2 PUSH20 0xFFFFFFFFFFFFFFFFFFFFFFFFFFFFFFFFFFFFFFFF MUL NOT AND SWAP1 DUP4 PUSH20 0xFFFFFFFFFFFFFFFFFFFFFFFFFFFFFFFFFFFFFFFF AND MUL OR SWAP1 SSTORE POP PUSH1 0x1 PUSH1 0xA PUSH0 PUSH1 0x2 SLOAD DUP2 MSTORE PUSH1 0x20 ADD SWAP1 DUP2 MSTORE PUSH1 0x20 ADD PUSH0 KECCAK256 PUSH0 CALLER PUSH20 0xFFFFFFFFFFFFFFFFFFFFFFFFFFFFFFFFFFFFFFFF AND PUSH20 0xFFFFFFFFFFFFFFFFFFFFFFFFFFFFFFFFFFFFFFFF AND DUP2 MSTORE PUSH1 0x20 ADD SWAP1 DUP2 MSTORE PUSH1 0x20 ADD PUSH0 KECCAK256 PUSH0 PUSH2 0x100 EXP DUP2 SLOAD DUP2 PUSH1 0xFF MUL NOT AND SWAP1 DUP4 ISZERO ISZERO MUL OR SWAP1 SSTORE POP CALLER PUSH20 0xFFFFFFFFFFFFFFFFFFFFFFFFFFFFFFFFFFFFFFFF AND PUSH32 0x577158C2E8120577A90C3A1EE00AD3D7ACBADBA003577F10F7BA8AE958C5AF42 PUSH1 0x2 SLOAD PUSH1 0x40 MLOAD PUSH2 0x115C SWAP2 SWAP1 PUSH2 0x1DC5 JUMP JUMPDEST PUSH1 0x40 MLOAD DUP1 SWAP2 SUB SWAP1 LOG2 JUMP JUMPDEST PUSH1 0xB PUSH1 0x20 MSTORE DUP2 PUSH0 MSTORE PUSH1 0x40 PUSH0 KECCAK256 PUSH1 0x20 MSTORE DUP1 PUSH0 MSTORE PUSH1 0x40 PUSH0 KECCAK256 PUSH0 SWAP2 POP SWAP2 POP SWAP1 SLOAD SWAP1 PUSH2 0x100 EXP SWAP1 DIV PUSH1 0xFF AND DUP2 JUMP JUMPDEST PUSH1 0x7 PUSH1 0x20 MSTORE DUP1 PUSH0 MSTORE PUSH1 0x40 PUSH0 KECCAK256 PUSH0 SWAP2 POP SWAP1 POP DUP1 PUSH0 ADD SLOAD SWAP1 DUP1 PUSH1 0x1 ADD SLOAD SWAP1 DUP1 PUSH1 0x2 ADD SLOAD SWAP1 DUP1 PUSH1 0x3 ADD SLOAD SWAP1 DUP1 PUSH1 0x4 ADD SLOAD SWAP1 DUP1 PUSH1 0x5 ADD SLOAD SWAP1 DUP1 PUSH1 0x6 ADD PUSH0 SWAP1 SLOAD SWAP1 PUSH2 0x100 EXP SWAP1 DIV PUSH1 0xFF AND SWAP1 POP DUP8 JUMP JUMPDEST PUSH1 0x4 SLOAD DUP2 JUMP JUMPDEST PUSH1 0x6 DUP2 DUP2 SLOAD DUP2 LT PUSH2 0x11EF JUMPI PUSH0 DUP1 REVERT JUMPDEST SWAP1 PUSH0 MSTORE PUSH1 0x20 PUSH0 KECCAK256 ADD PUSH0 SWAP2 POP SLOAD SWAP1 PUSH2 0x100 EXP SWAP1 DIV PUSH20 0xFFFFFFFFFFFFFFFFFFFFFFFFFFFFFFFFFFFFFFFF AND DUP2 JUMP JUMPDEST PUSH1 0x5 DUP2 DUP2 SLOAD DUP2 LT PUSH2 0x122A JUMPI PUSH0 DUP1 REVERT JUMPDEST SWAP1 PUSH0 MSTORE PUSH1 0x20 PUSH0 KECCAK256 ADD PUSH0 SWAP2 POP SLOAD SWAP1 PUSH2 0x100 EXP SWAP1 DIV PUSH20 0xFFFFFFFFFFFFFFFFFFFFFFFFFFFFFFFFFFFFFFFF AND DUP2 JUMP JUMPDEST PUSH1 0x9 PUSH1 0x20 MSTORE DUP2 PUSH0 MSTORE PUSH1 0x40 PUSH0 KECCAK256 PUSH1 0x20 MSTORE DUP1 PUSH0 MSTORE PUSH1 0x40 PUSH0 KECCAK256 PUSH0 SWAP2 POP SWAP2 POP SWAP1 SLOAD SWAP1 PUSH2 0x100 EXP SWAP1 DIV PUSH1 0xFF AND DUP2 JUMP JUMPDEST PUSH1 0x3 SLOAD DUP2 JUMP JUMPDEST PUSH1 0x2 SLOAD DUP2 JUMP JUMPDEST PUSH1 0x1 SLOAD DUP2 JUMP JUMPDEST PUSH1 0x8 PUSH1 0x20 MSTORE DUP1 PUSH0 MSTORE PUSH1 0x40 PUSH0 KECCAK256 PUSH0 SWAP2 POP SWAP1 POP DUP1 PUSH0 ADD SLOAD SWAP1 DUP1 PUSH1 0x1 ADD SLOAD SWAP1 DUP1 PUSH1 0x2 ADD SLOAD SWAP1 DUP1 PUSH1 0x3 ADD SLOAD SWAP1 DUP1 PUSH1 0x4 ADD SLOAD SWAP1 DUP1 PUSH1 0x5 ADD SLOAD SWAP1 DUP1 PUSH1 0x6 ADD PUSH0 SWAP1 SLOAD SWAP1 PUSH2 0x100 EXP SWAP1 DIV PUSH1 0xFF AND SWAP1 POP DUP8 JUMP JUMPDEST PUSH0 DUP1 SLOAD SWAP1 PUSH2 0x100 EXP SWAP1 DIV PUSH20 0xFFFFFFFFFFFFFFFFFFFFFFFFFFFFFFFFFFFFFFFF AND PUSH20 0xFFFFFFFFFFFFFFFFFFFFFFFFFFFFFFFFFFFFFFFF AND CALLER PUSH20 0xFFFFFFFFFFFFFFFFFFFFFFFFFFFFFFFFFFFFFFFF AND EQ PUSH2 0x1369 JUMPI PUSH1 0x40 MLOAD PUSH32 0x8C379A000000000000000000000000000000000000000000000000000000000 DUP2 MSTORE PUSH1 0x4 ADD PUSH2 0x1360 SWAP1 PUSH2 0x1E3B JUMP JUMPDEST PUSH1 0x40 MLOAD DUP1 SWAP2 SUB SWAP1 REVERT JUMPDEST PUSH0 PUSH20 0xFFFFFFFFFFFFFFFFFFFFFFFFFFFFFFFFFFFFFFFF AND DUP2 PUSH20 0xFFFFFFFFFFFFFFFFFFFFFFFFFFFFFFFFFFFFFFFF AND SUB PUSH2 0x13D7 JUMPI PUSH1 0x40 MLOAD PUSH32 0x8C379A000000000000000000000000000000000000000000000000000000000 DUP2 MSTORE PUSH1 0x4 ADD PUSH2 0x13CE SWAP1 PUSH2 0x1EA3 JUMP JUMPDEST PUSH1 0x40 MLOAD DUP1 SWAP2 SUB SWAP1 REVERT JUMPDEST DUP1 PUSH20 0xFFFFFFFFFFFFFFFFFFFFFFFFFFFFFFFFFFFFFFFF AND PUSH0 DUP1 SLOAD SWAP1 PUSH2 0x100 EXP SWAP1 DIV PUSH20 0xFFFFFFFFFFFFFFFFFFFFFFFFFFFFFFFFFFFFFFFF AND PUSH20 0xFFFFFFFFFFFFFFFFFFFFFFFFFFFFFFFFFFFFFFFF AND PUSH32 0x8BE0079C531659141344CD1FD0A4F28419497F9722A3DAAFE3B4186F6B6457E0 PUSH1 0x40 MLOAD PUSH1 0x40 MLOAD DUP1 SWAP2 SUB SWAP1 LOG3 DUP1 PUSH0 DUP1 PUSH2 0x100 EXP DUP2 SLOAD DUP2 PUSH20 0xFFFFFFFFFFFFFFFFFFFFFFFFFFFFFFFFFFFFFFFF MUL NOT AND SWAP1 DUP4 PUSH20 0xFFFFFFFFFFFFFFFFFFFFFFFFFFFFFFFFFFFFFFFF AND MUL OR SWAP1 SSTORE POP POP JUMP JUMPDEST PUSH3 0x93A80 PUSH1 0x3 SLOAD PUSH2 0x14A3 SWAP2 SWAP1 PUSH2 0x1EEE JUMP JUMPDEST TIMESTAMP LT PUSH2 0x14B2 JUMPI PUSH2 0x14B1 PUSH2 0x14D6 JUMP JUMPDEST JUMPDEST JUMP JUMPDEST PUSH3 0x278D00 PUSH1 0x4 SLOAD PUSH2 0x14C5 SWAP2 SWAP1 PUSH2 0x1EEE JUMP JUMPDEST TIMESTAMP LT PUSH2 0x14D4 JUMPI PUSH2 0x14D3 PUSH2 0x1622 JUMP JUMPDEST JUMPDEST JUMP JUMPDEST PUSH0 PUSH1 0x5 DUP1 SLOAD SWAP1 POP SWAP1 POP PUSH0 PUSH1 0x2 SELFBALANCE PUSH2 0x14ED SWAP2 SWAP1 PUSH2 0x1F4E JUMP JUMPDEST SWAP1 POP PUSH0 DUP1 DUP4 GT PUSH2 0x14FD JUMPI PUSH0 PUSH2 0x150A JUMP JUMPDEST DUP3 DUP3 PUSH2 0x1509 SWAP2 SWAP1 PUSH2 0x1F4E JUMP JUMPDEST JUMPDEST SWAP1 POP PUSH1 0x40 MLOAD DUP1 PUSH1 0xE0 ADD PUSH1 0x40 MSTORE DUP1 PUSH1 0x1 SLOAD DUP2 MSTORE PUSH1 0x20 ADD DUP5 DUP2 MSTORE PUSH1 0x20 ADD DUP4 DUP2 MSTORE PUSH1 0x20 ADD DUP3 DUP2 MSTORE PUSH1 0x20 ADD PUSH1 0x3 SLOAD DUP2 MSTORE PUSH1 0x20 ADD TIMESTAMP DUP2 MSTORE PUSH1 0x20 ADD PUSH1 0x1 ISZERO ISZERO DUP2 MSTORE POP PUSH1 0x7 PUSH0 PUSH1 0x1 SLOAD DUP2 MSTORE PUSH1 0x20 ADD SWAP1 DUP2 MSTORE PUSH1 0x20 ADD PUSH0 KECCAK256 PUSH0 DUP3 ADD MLOAD DUP2 PUSH0 ADD SSTORE PUSH1 0x20 DUP3 ADD MLOAD DUP2 PUSH1 0x1 ADD SSTORE PUSH1 0x40 DUP3 ADD MLOAD DUP2 PUSH1 0x2 ADD SSTORE PUSH1 0x60 DUP3 ADD MLOAD DUP2 PUSH1 0x3 ADD SSTORE PUSH1 0x80 DUP3 ADD MLOAD DUP2 PUSH1 0x4 ADD SSTORE PUSH1 0xA0 DUP3 ADD MLOAD DUP2 PUSH1 0x5 ADD SSTORE PUSH1 0xC0 DUP3 ADD MLOAD DUP2 PUSH1 0x6 ADD PUSH0 PUSH2 0x100 EXP DUP2 SLOAD DUP2 PUSH1 0xFF MUL NOT AND SWAP1 DUP4 ISZERO ISZERO MUL OR SWAP1 SSTORE POP SWAP1 POP POP PUSH32 0xB486E0C214F6D65E1072CC27C74ADA7881CA4CC7D3B577A0C141F48BA0FBFBF5 PUSH1 0x1 SLOAD DUP5 DUP4 PUSH1 0x40 MLOAD PUSH2 0x15EA SWAP4 SWAP3 SWAP2 SWAP1 PUSH2 0x1F7E JUMP JUMPDEST PUSH1 0x40 MLOAD DUP1 SWAP2 SUB SWAP1 LOG1 PUSH1 0x1 PUSH0 DUP2 SLOAD DUP1 SWAP3 SWAP2 SWAP1 PUSH2 0x1604 SWAP1 PUSH2 0x1FC6 JUMP JUMPDEST SWAP2 SWAP1 POP SSTORE POP TIMESTAMP PUSH1 0x3 DUP2 SWAP1 SSTORE POP PUSH1 0x5 PUSH0 PUSH2 0x161D SWAP2 SWAP1 PUSH2 0x176E JUMP JUMPDEST POP POP POP JUMP JUMPDEST PUSH0 PUSH1 0x6 DUP1 SLOAD SWAP1 POP SWAP1 POP PUSH0 PUSH1 0x2 SELFBALANCE PUSH2 0x1639 SWAP2 SWAP1 PUSH2 0x1F4E JUMP JUMPDEST SWAP1 POP PUSH0 DUP1 DUP4 GT PUSH2 0x1649 JUMPI PUSH0 PUSH2 0x1656 JUMP JUMPDEST DUP3 DUP3 PUSH2 0x1655 SWAP2 SWAP1 PUSH2 0x1F4E JUMP JUMPDEST JUMPDEST SWAP1 POP PUSH1 0x40 MLOAD DUP1 PUSH1 0xE0 ADD PUSH1 0x40 MSTORE DUP1 PUSH1 0x2 SLOAD DUP2 MSTORE PUSH1 0x20 ADD DUP5 DUP2 MSTORE PUSH1 0x20 ADD DUP4 DUP2 MSTORE PUSH1 0x20 ADD DUP3 DUP2 MSTORE PUSH1 0x20 ADD PUSH1 0x4 SLOAD DUP2 MSTORE PUSH1 0x20 ADD TIMESTAMP DUP2 MSTORE PUSH1 0x20 ADD PUSH1 0x1 ISZERO ISZERO DUP2 MSTORE POP PUSH1 0x8 PUSH0 PUSH1 0x2 SLOAD DUP2 MSTORE PUSH1 0x20 ADD SWAP1 DUP2 MSTORE PUSH1 0x20 ADD PUSH0 KECCAK256 PUSH0 DUP3 ADD MLOAD DUP2 PUSH0 ADD SSTORE PUSH1 0x20 DUP3 ADD MLOAD DUP2 PUSH1 0x1 ADD SSTORE PUSH1 0x40 DUP3 ADD MLOAD DUP2 PUSH1 0x2 ADD SSTORE PUSH1 0x60 DUP3 ADD MLOAD DUP2 PUSH1 0x3 ADD SSTORE PUSH1 0x80 DUP3 ADD MLOAD DUP2 PUSH1 0x4 ADD SSTORE PUSH1 0xA0 DUP3 ADD MLOAD DUP2 PUSH1 0x5 ADD SSTORE PUSH1 0xC0 DUP3 ADD MLOAD DUP2 PUSH1 0x6 ADD PUSH0 PUSH2 0x100 EXP DUP2 SLOAD DUP2 PUSH1 0xFF MUL NOT AND SWAP1 DUP4 ISZERO ISZERO MUL OR SWAP1 SSTORE POP SWAP1 POP POP PUSH32 0xB486E0C214F6D65E1072CC27C74ADA7881CA4CC7D3B577A0C141F48BA0FBFBF5 PUSH1 0x2 SLOAD DUP5 DUP4 PUSH1 0x40 MLOAD PUSH2 0x1736 SWAP4 SWAP3 SWAP2 SWAP1 PUSH2 0x200D JUMP JUMPDEST PUSH1 0x40 MLOAD DUP1 SWAP2 SUB SWAP1 LOG1 PUSH1 0x2 PUSH0 DUP2 SLOAD DUP1 SWAP3 SWAP2 SWAP1 PUSH2 0x1750 SWAP1 PUSH2 0x1FC6 JUMP JUMPDEST SWAP2 SWAP1 POP SSTORE POP TIMESTAMP PUSH1 0x4 DUP2 SWAP1 SSTORE POP PUSH1 0x6 PUSH0 PUSH2 0x1769 SWAP2 SWAP1 PUSH2 0x176E JUMP JUMPDEST POP POP POP JUMP JUMPDEST POP DUP1 SLOAD PUSH0 DUP3 SSTORE SWAP1 PUSH0 MSTORE PUSH1 0x20 PUSH0 KECCAK256 SWAP1 DUP2 ADD SWAP1 PUSH2 0x1789 SWAP2 SWAP1 PUSH2 0x178C JUMP JUMPDEST POP JUMP JUMPDEST JUMPDEST DUP1 DUP3 GT ISZERO PUSH2 0x17A3 JUMPI PUSH0 DUP2 PUSH0 SWAP1 SSTORE POP PUSH1 0x1 ADD PUSH2 0x178D JUMP JUMPDEST POP SWAP1 JUMP JUMPDEST PUSH0 DUP1 REVERT JUMPDEST PUSH0 DUP2 SWAP1 POP SWAP2 SWAP1 POP JUMP JUMPDEST PUSH2 0x17BD DUP2 PUSH2 0x17AB JUMP JUMPDEST DUP2 EQ PUSH2 0x17C7 JUMPI PUSH0 DUP1 REVERT JUMPDEST POP JUMP JUMPDEST PUSH0 DUP2 CALLDATALOAD SWAP1 POP PUSH2 0x17D8 DUP2 PUSH2 0x17B4 JUMP JUMPDEST SWAP3 SWAP2 POP POP JUMP JUMPDEST PUSH0 PUSH1 0x20 DUP3 DUP5 SUB SLT ISZERO PUSH2 0x17F3 JUMPI PUSH2 0x17F2 PUSH2 0x17A7 JUMP JUMPDEST JUMPDEST PUSH0 PUSH2 0x1800 DUP5 DUP3 DUP6 ADD PUSH2 0x17CA JUMP JUMPDEST SWAP2 POP POP SWAP3 SWAP2 POP POP JUMP JUMPDEST PUSH0 PUSH20 0xFFFFFFFFFFFFFFFFFFFFFFFFFFFFFFFFFFFFFFFF DUP3 AND SWAP1 POP SWAP2 SWAP1 POP JUMP JUMPDEST PUSH0 PUSH2 0x1832 DUP3 PUSH2 0x1809 JUMP JUMPDEST SWAP1 POP SWAP2 SWAP1 POP JUMP JUMPDEST PUSH2 0x1842 DUP2 PUSH2 0x1828 JUMP JUMPDEST DUP2 EQ PUSH2 0x184C JUMPI PUSH0 DUP1 REVERT JUMPDEST POP JUMP JUMPDEST PUSH0 DUP2 CALLDATALOAD SWAP1 POP PUSH2 0x185D DUP2 PUSH2 0x1839 JUMP JUMPDEST SWAP3 SWAP2 POP POP JUMP JUMPDEST PUSH0 DUP1 PUSH1 0x40 DUP4 DUP6 SUB SLT ISZERO PUSH2 0x1879 JUMPI PUSH2 0x1878 PUSH2 0x17A7 JUMP JUMPDEST JUMPDEST PUSH0 PUSH2 0x1886 DUP6 DUP3 DUP7 ADD PUSH2 0x17CA JUMP JUMPDEST SWAP3 POP POP PUSH1 0x20 PUSH2 0x1897 DUP6 DUP3 DUP7 ADD PUSH2 0x184F JUMP JUMPDEST SWAP2 POP POP SWAP3 POP SWAP3 SWAP1 POP JUMP JUMPDEST PUSH0 DUP2 ISZERO ISZERO SWAP1 POP SWAP2 SWAP1 POP JUMP JUMPDEST PUSH2 0x18B5 DUP2 PUSH2 0x18A1 JUMP JUMPDEST DUP3 MSTORE POP POP JUMP JUMPDEST PUSH0 PUSH1 0x20 DUP3 ADD SWAP1 POP PUSH2 0x18CE PUSH0 DUP4 ADD DUP5 PUSH2 0x18AC JUMP JUMPDEST SWAP3 SWAP2 POP POP JUMP JUMPDEST PUSH2 0x18DD DUP2 PUSH2 0x17AB JUMP JUMPDEST DUP3 MSTORE POP POP JUMP JUMPDEST PUSH0 PUSH1 0x20 DUP3 ADD SWAP1 POP PUSH2 0x18F6 PUSH0 DUP4 ADD DUP5 PUSH2 0x18D4 JUMP JUMPDEST SWAP3 SWAP2 POP POP JUMP JUMPDEST PUSH2 0x1905 DUP2 PUSH2 0x1828 JUMP JUMPDEST DUP3 MSTORE POP POP JUMP JUMPDEST PUSH0 PUSH1 0x20 DUP3 ADD SWAP1 POP PUSH2 0x191E PUSH0 DUP4 ADD DUP5 PUSH2 0x18FC JUMP JUMPDEST SWAP3 SWAP2 POP POP JUMP JUMPDEST PUSH2 0x192D DUP2 PUSH2 0x18A1 JUMP JUMPDEST DUP2 EQ PUSH2 0x1937 JUMPI PUSH0 DUP1 REVERT JUMPDEST POP JUMP JUMPDEST PUSH0 DUP2 CALLDATALOAD SWAP1 POP PUSH2 0x1948 DUP2 PUSH2 0x1924 JUMP JUMPDEST SWAP3 SWAP2 POP POP JUMP JUMPDEST PUSH0 DUP1 PUSH0 PUSH1 0x60 DUP5 DUP7 SUB SLT ISZERO PUSH2 0x1965 JUMPI PUSH2 0x1964 PUSH2 0x17A7 JUMP JUMPDEST JUMPDEST PUSH0 PUSH2 0x1972 DUP7 DUP3 DUP8 ADD PUSH2 0x184F JUMP JUMPDEST SWAP4 POP POP PUSH1 0x20 PUSH2 0x1983 DUP7 DUP3 DUP8 ADD PUSH2 0x17CA JUMP JUMPDEST SWAP3 POP POP PUSH1 0x40 PUSH2 0x1994 DUP7 DUP3 DUP8 ADD PUSH2 0x193A JUMP JUMPDEST SWAP2 POP POP SWAP3 POP SWAP3 POP SWAP3 JUMP JUMPDEST PUSH0 PUSH1 0x80 DUP3 ADD SWAP1 POP PUSH2 0x19B1 PUSH0 DUP4 ADD DUP8 PUSH2 0x18AC JUMP JUMPDEST PUSH2 0x19BE PUSH1 0x20 DUP4 ADD DUP7 PUSH2 0x18AC JUMP JUMPDEST PUSH2 0x19CB PUSH1 0x40 DUP4 ADD DUP6 PUSH2 0x18D4 JUMP JUMPDEST PUSH2 0x19D8 PUSH1 0x60 DUP4 ADD DUP5 PUSH2 0x18AC JUMP JUMPDEST SWAP6 SWAP5 POP POP POP POP POP JUMP JUMPDEST PUSH0 PUSH1 0xE0 DUP3 ADD SWAP1 POP PUSH2 0x19F4 PUSH0 DUP4 ADD DUP11 PUSH2 0x18D4 JUMP JUMPDEST PUSH2 0x1A01 PUSH1 0x20 DUP4 ADD DUP10 PUSH2 0x18D4 JUMP JUMPDEST PUSH2 0x1A0E PUSH1 0x40 DUP4 ADD DUP9 PUSH2 0x18D4 JUMP JUMPDEST PUSH2 0x1A1B PUSH1 0x60 DUP4 ADD DUP8 PUSH2 0x18D4 JUMP JUMPDEST PUSH2 0x1A28 PUSH1 0x80 DUP4 ADD DUP7 PUSH2 0x18D4 JUMP JUMPDEST PUSH2 0x1A35 PUSH1 0xA0 DUP4 ADD DUP6 PUSH2 0x18D4 JUMP JUMPDEST PUSH2 0x1A42 PUSH1 0xC0 DUP4 ADD DUP5 PUSH2 0x18AC JUMP JUMPDEST SWAP9 SWAP8 POP POP POP POP POP POP POP POP JUMP JUMPDEST PUSH0 PUSH1 0x20 DUP3 DUP5 SUB SLT ISZERO PUSH2 0x1A63 JUMPI PUSH2 0x1A62 PUSH2 0x17A7 JUMP JUMPDEST JUMPDEST PUSH0 PUSH2 0x1A70 DUP5 DUP3 DUP6 ADD PUSH2 0x184F JUMP JUMPDEST SWAP2 POP POP SWAP3 SWAP2 POP POP JUMP JUMPDEST PUSH0 DUP3 DUP3 MSTORE PUSH1 0x20 DUP3 ADD SWAP1 POP SWAP3 SWAP2 POP POP JUMP JUMPDEST PUSH32 0x526F756E64206E6F7420636C6F73656420796574000000000000000000000000 PUSH0 DUP3 ADD MSTORE POP JUMP JUMPDEST PUSH0 PUSH2 0x1ABD PUSH1 0x14 DUP4 PUSH2 0x1A79 JUMP JUMPDEST SWAP2 POP PUSH2 0x1AC8 DUP3 PUSH2 0x1A89 JUMP JUMPDEST PUSH1 0x20 DUP3 ADD SWAP1 POP SWAP2 SWAP1 POP JUMP JUMPDEST PUSH0 PUSH1 0x20 DUP3 ADD SWAP1 POP DUP2 DUP2 SUB PUSH0 DUP4 ADD MSTORE PUSH2 0x1AEA DUP2 PUSH2 0x1AB1 JUMP JUMPDEST SWAP1 POP SWAP2 SWAP1 POP JUMP JUMPDEST PUSH32 0x4E6F74207175616C696669656400000000000000000000000000000000000000 PUSH0 DUP3 ADD MSTORE POP JUMP JUMPDEST PUSH0 PUSH2 0x1B25 PUSH1 0xD DUP4 PUSH2 0x1A79 JUMP JUMPDEST SWAP2 POP PUSH2 0x1B30 DUP3 PUSH2 0x1AF1 JUMP JUMPDEST PUSH1 0x20 DUP3 ADD SWAP1 POP SWAP2 SWAP1 POP JUMP JUMPDEST PUSH0 PUSH1 0x20 DUP3 ADD SWAP1 POP DUP2 DUP2 SUB PUSH0 DUP4 ADD MSTORE PUSH2 0x1B52 DUP2 PUSH2 0x1B19 JUMP JUMPDEST SWAP1 POP SWAP2 SWAP1 POP JUMP JUMPDEST PUSH32 0x416C726561647920636C61696D65640000000000000000000000000000000000 PUSH0 DUP3 ADD MSTORE POP JUMP JUMPDEST PUSH0 PUSH2 0x1B8D PUSH1 0xF DUP4 PUSH2 0x1A79 JUMP JUMPDEST SWAP2 POP PUSH2 0x1B98 DUP3 PUSH2 0x1B59 JUMP JUMPDEST PUSH1 0x20 DUP3 ADD SWAP1 POP SWAP2 SWAP1 POP JUMP JUMPDEST PUSH0 PUSH1 0x20 DUP3 ADD SWAP1 POP DUP2 DUP2 SUB PUSH0 DUP4 ADD MSTORE PUSH2 0x1BBA DUP2 PUSH2 0x1B81 JUMP JUMPDEST SWAP1 POP SWAP2 SWAP1 POP JUMP JUMPDEST PUSH32 0x4E6F207265776172640000000000000000000000000000000000000000000000 PUSH0 DUP3 ADD MSTORE POP JUMP JUMPDEST PUSH0 PUSH2 0x1BF5 PUSH1 0x9 DUP4 PUSH2 0x1A79 JUMP JUMPDEST SWAP2 POP PUSH2 0x1C00 DUP3 PUSH2 0x1BC1 JUMP JUMPDEST PUSH1 0x20 DUP3 ADD SWAP1 POP SWAP2 SWAP1 POP JUMP JUMPDEST PUSH0 PUSH1 0x20 DUP3 ADD SWAP1 POP DUP2 DUP2 SUB PUSH0 DUP4 ADD MSTORE PUSH2 0x1C22 DUP2 PUSH2 0x1BE9 JUMP JUMPDEST SWAP1 POP SWAP2 SWAP1 POP JUMP JUMPDEST PUSH32 0x5765656B6C790000000000000000000000000000000000000000000000000000 PUSH0 DUP3 ADD MSTORE POP JUMP JUMPDEST PUSH0 PUSH2 0x1C5D PUSH1 0x6 DUP4 PUSH2 0x1A79 JUMP JUMPDEST SWAP2 POP PUSH2 0x1C68 DUP3 PUSH2 0x1C29 JUMP JUMPDEST PUSH1 0x20 DUP3 ADD SWAP1 POP SWAP2 SWAP1 POP JUMP JUMPDEST PUSH0 PUSH1 0x60 DUP3 ADD SWAP1 POP DUP2 DUP2 SUB PUSH0 DUP4 ADD MSTORE PUSH2 0x1C8A DUP2 PUSH2 0x1C51 JUMP JUMPDEST SWAP1 POP PUSH2 0x1C99 PUSH1 0x20 DUP4 ADD DUP6 PUSH2 0x18D4 JUMP JUMPDEST PUSH2 0x1CA6 PUSH1 0x40 DUP4 ADD DUP5 PUSH2 0x18D4 JUMP JUMPDEST SWAP4 SWAP3 POP POP POP JUMP JUMPDEST PUSH32 0x4D6F6E74686C7900000000000000000000000000000000000000000000000000 PUSH0 DUP3 ADD MSTORE POP JUMP JUMPDEST PUSH0 PUSH2 0x1CE1 PUSH1 0x7 DUP4 PUSH2 0x1A79 JUMP JUMPDEST SWAP2 POP PUSH2 0x1CEC DUP3 PUSH2 0x1CAD JUMP JUMPDEST PUSH1 0x20 DUP3 ADD SWAP1 POP SWAP2 SWAP1 POP JUMP JUMPDEST PUSH0 PUSH1 0x60 DUP3 ADD SWAP1 POP DUP2 DUP2 SUB PUSH0 DUP4 ADD MSTORE PUSH2 0x1D0E DUP2 PUSH2 0x1CD5 JUMP JUMPDEST SWAP1 POP PUSH2 0x1D1D PUSH1 0x20 DUP4 ADD DUP6 PUSH2 0x18D4 JUMP JUMPDEST PUSH2 0x1D2A PUSH1 0x40 DUP4 ADD DUP5 PUSH2 0x18D4 JUMP JUMPDEST SWAP4 SWAP3 POP POP POP JUMP JUMPDEST PUSH32 0x416C7265616479207175616C6966696564000000000000000000000000000000 PUSH0 DUP3 ADD MSTORE POP JUMP JUMPDEST PUSH0 PUSH2 0x1D65 PUSH1 0x11 DUP4 PUSH2 0x1A79 JUMP JUMPDEST SWAP2 POP PUSH2 0x1D70 DUP3 PUSH2 0x1D31 JUMP JUMPDEST PUSH1 0x20 DUP3 ADD SWAP1 POP SWAP2 SWAP1 POP JUMP JUMPDEST PUSH0 PUSH1 0x20 DUP3 ADD SWAP1 POP DUP2 DUP2 SUB PUSH0 DUP4 ADD MSTORE PUSH2 0x1D92 DUP2 PUSH2 0x1D59 JUMP JUMPDEST SWAP1 POP SWAP2 SWAP1 POP JUMP JUMPDEST PUSH0 PUSH1 0x40 DUP3 ADD SWAP1 POP DUP2 DUP2 SUB PUSH0 DUP4 ADD MSTORE PUSH2 0x1DB0 DUP2 PUSH2 0x1C51 JUMP JUMPDEST SWAP1 POP PUSH2 0x1DBF PUSH1 0x20 DUP4 ADD DUP5 PUSH2 0x18D4 JUMP JUMPDEST SWAP3 SWAP2 POP POP JUMP JUMPDEST PUSH0 PUSH1 0x40 DUP3 ADD SWAP1 POP DUP2 DUP2 SUB PUSH0 DUP4 ADD MSTORE PUSH2 0x1DDC DUP2 PUSH2 0x1CD5 JUMP JUMPDEST SWAP1 POP PUSH2 0x1DEB PUSH1 0x20 DUP4 ADD DUP5 PUSH2 0x18D4 JUMP JUMPDEST SWAP3 SWAP2 POP POP JUMP JUMPDEST PUSH32 0x4F776E61626C653A2063616C6C6572206973206E6F7420746865206F776E6572 PUSH0 DUP3 ADD MSTORE POP JUMP JUMPDEST PUSH0 PUSH2 0x1E25 PUSH1 0x20 DUP4 PUSH2 0x1A79 JUMP JUMPDEST SWAP2 POP PUSH2 0x1E30 DUP3 PUSH2 0x1DF1 JUMP JUMPDEST PUSH1 0x20 DUP3 ADD SWAP1 POP SWAP2 SWAP1 POP JUMP JUMPDEST PUSH0 PUSH1 0x20 DUP3 ADD SWAP1 POP DUP2 DUP2 SUB PUSH0 DUP4 ADD MSTORE PUSH2 0x1E52 DUP2 PUSH2 0x1E19 JUMP JUMPDEST SWAP1 POP SWAP2 SWAP1 POP JUMP JUMPDEST PUSH32 0x4E6577206F776E65722063616E6E6F74206265207A65726F0000000000000000 PUSH0 DUP3 ADD MSTORE POP JUMP JUMPDEST PUSH0 PUSH2 0x1E8D PUSH1 0x18 DUP4 PUSH2 0x1A79 JUMP JUMPDEST SWAP2 POP PUSH2 0x1E98 DUP3 PUSH2 0x1E59 JUMP JUMPDEST PUSH1 0x20 DUP3 ADD SWAP1 POP SWAP2 SWAP1 POP JUMP JUMPDEST PUSH0 PUSH1 0x20 DUP3 ADD SWAP1 POP DUP2 DUP2 SUB PUSH0 DUP4 ADD MSTORE PUSH2 0x1EBA DUP2 PUSH2 0x1E81 JUMP JUMPDEST SWAP1 POP SWAP2 SWAP1 POP JUMP JUMPDEST PUSH32 0x4E487B7100000000000000000000000000000000000000000000000000000000 PUSH0 MSTORE PUSH1 0x11 PUSH1 0x4 MSTORE PUSH1 0x24 PUSH0 REVERT JUMPDEST PUSH0 PUSH2 0x1EF8 DUP3 PUSH2 0x17AB JUMP JUMPDEST SWAP2 POP PUSH2 0x1F03 DUP4 PUSH2 0x17AB JUMP JUMPDEST SWAP3 POP DUP3 DUP3 ADD SWAP1 POP DUP1 DUP3 GT ISZERO PUSH2 0x1F1B JUMPI PUSH2 0x1F1A PUSH2 0x1EC1 JUMP JUMPDEST JUMPDEST SWAP3 SWAP2 POP POP JUMP JUMPDEST PUSH32 0x4E487B7100000000000000000000000000000000000000000000000000000000 PUSH0 MSTORE PUSH1 0x12 PUSH1 0x4 MSTORE PUSH1 0x24 PUSH0 REVERT JUMPDEST PUSH0 PUSH2 0x1F58 DUP3 PUSH2 0x17AB JUMP JUMPDEST SWAP2 POP PUSH2 0x1F63 DUP4 PUSH2 0x17AB JUMP JUMPDEST SWAP3 POP DUP3 PUSH2 0x1F73 JUMPI PUSH2 0x1F72 PUSH2 0x1F21 JUMP JUMPDEST JUMPDEST DUP3 DUP3 DIV SWAP1 POP SWAP3 SWAP2 POP POP JUMP JUMPDEST PUSH0 PUSH1 0x80 DUP3 ADD SWAP1 POP DUP2 DUP2 SUB PUSH0 DUP4 ADD MSTORE PUSH2 0x1F95 DUP2 PUSH2 0x1C51 JUMP JUMPDEST SWAP1 POP PUSH2 0x1FA4 PUSH1 0x20 DUP4 ADD DUP7 PUSH2 0x18D4 JUMP JUMPDEST PUSH2 0x1FB1 PUSH1 0x40 DUP4 ADD DUP6 PUSH2 0x18D4 JUMP JUMPDEST PUSH2 0x1FBE PUSH1 0x60 DUP4 ADD DUP5 PUSH2 0x18D4 JUMP JUMPDEST SWAP5 SWAP4 POP POP POP POP JUMP JUMPDEST PUSH0 PUSH2 0x1FD0 DUP3 PUSH2 0x17AB JUMP JUMPDEST SWAP2 POP PUSH32 0xFFFFFFFFFFFFFFFFFFFFFFFFFFFFFFFFFFFFFFFFFFFFFFFFFFFFFFFFFFFFFFFF DUP3 SUB PUSH2 0x2002 JUMPI PUSH2 0x2001 PUSH2 0x1EC1 JUMP JUMPDEST JUMPDEST PUSH1 0x1 DUP3 ADD SWAP1 POP SWAP2 SWAP1 POP JUMP JUMPDEST PUSH0 PUSH1 0x80 DUP3 ADD SWAP1 POP DUP2 DUP2 SUB PUSH0 DUP4 ADD MSTORE PUSH2 0x2024 DUP2 PUSH2 0x1CD5 JUMP JUMPDEST SWAP1 POP PUSH2 0x2033 PUSH1 0x20 DUP4 ADD DUP7 PUSH2 0x18D4 JUMP JUMPDEST PUSH2 0x2040 PUSH1 0x40 DUP4 ADD DUP6 PUSH2 0x18D4 JUMP JUMPDEST PUSH2 0x204D PUSH1 0x60 DUP4 ADD DUP5 PUSH2 0x18D4 JUMP JUMPDEST SWAP5 SWAP4 POP POP POP POP JUMP INVALID LOG2 PUSH5 0x6970667358 0x22 SLT KECCAK256 0xD4 DUP14 0xAB 0xC0 RETURNDATASIZE CALLVALUE 0xD8 BASEFEE 0x4B 0xC9 0x2B 0x49 LT PUSH29 0xBC8D2BC858B2401C76A1F666DD9264351A0364736F6C63430008140033 "
				},
				"gasEstimates": {
					"creation": {
						"codeDepositCost": "1666200",
						"executionCost": "166717",
						"totalCost": "1832917"
					},
					"external": {
						"MONTH_DURATION()": "393",
						"WEEK_DURATION()": "370",
						"claimMonthlyReward(uint256)": "infinite",
						"claimWeeklyReward(uint256)": "infinite",
						"currentMonthlyRound()": "2491",
						"currentWeeklyRound()": "2513",
						"getUserRoundStatus(address,uint256,bool)": "infinite",
						"hasClaimedMonthly(uint256,address)": "3117",
						"hasClaimedWeekly(uint256,address)": "3094",
						"isMonthlyQualified(uint256,address)": "3183",
						"isWeeklyQualified(uint256,address)": "3093",
						"lastMonthlyReset()": "2492",
						"lastWeeklyReset()": "2469",
						"monthlyRounds(uint256)": "infinite",
						"owner()": "2572",
						"qualifiedMonthly(uint256)": "5033",
						"qualifiedWeekly(uint256)": "5055",
						"qualifyMonthly()": "infinite",
						"qualifyWeekly()": "infinite",
						"transferOwnership(address)": "30724",
						"weeklyRounds(uint256)": "infinite"
					},
					"internal": {
						"_checkMonthlyRound()": "infinite",
						"_checkWeeklyRound()": "infinite",
						"_endMonthlyRound()": "infinite",
						"_endWeeklyRound()": "infinite"
					}
				},
				"methodIdentifiers": {
					"MONTH_DURATION()": "2a891534",
					"WEEK_DURATION()": "76f5f700",
					"claimMonthlyReward(uint256)": "51a4f04e",
					"claimWeeklyReward(uint256)": "0a3f5a42",
					"currentMonthlyRound()": "c9ed0708",
					"currentWeeklyRound()": "ca8e9121",
					"getUserRoundStatus(address,uint256,bool)": "9680003d",
					"hasClaimedMonthly(uint256,address)": "1c1da18e",
					"hasClaimedWeekly(uint256,address)": "a22b9e87",
					"isMonthlyQualified(uint256,address)": "5e5bb367",
					"isWeeklyQualified(uint256,address)": "b4ba97fc",
					"lastMonthlyReset()": "a6791eae",
					"lastWeeklyReset()": "c1c13b2f",
					"monthlyRounds(uint256)": "ef4549eb",
					"owner()": "8da5cb5b",
					"qualifiedMonthly(uint256)": "a80fee55",
					"qualifiedWeekly(uint256)": "ad127e6b",
					"qualifyMonthly()": "a058dc09",
					"qualifyWeekly()": "6b77c79d",
					"transferOwnership(address)": "f2fde38b",
					"weeklyRounds(uint256)": "a56b1815"
				}
			},
			"storageLayout": {
				"storage": [
					{
						"astId": 3,
						"contract": "contracts/modules/ContestRoyalty.sol:ContestRoyalty",
						"label": "owner",
						"offset": 0,
						"slot": "0",
						"type": "t_address"
					},
					{
						"astId": 80,
						"contract": "contracts/modules/ContestRoyalty.sol:ContestRoyalty",
						"label": "currentWeeklyRound",
						"offset": 0,
						"slot": "1",
						"type": "t_uint256"
					},
					{
						"astId": 83,
						"contract": "contracts/modules/ContestRoyalty.sol:ContestRoyalty",
						"label": "currentMonthlyRound",
						"offset": 0,
						"slot": "2",
						"type": "t_uint256"
					},
					{
						"astId": 85,
						"contract": "contracts/modules/ContestRoyalty.sol:ContestRoyalty",
						"label": "lastWeeklyReset",
						"offset": 0,
						"slot": "3",
						"type": "t_uint256"
					},
					{
						"astId": 87,
						"contract": "contracts/modules/ContestRoyalty.sol:ContestRoyalty",
						"label": "lastMonthlyReset",
						"offset": 0,
						"slot": "4",
						"type": "t_uint256"
					},
					{
						"astId": 90,
						"contract": "contracts/modules/ContestRoyalty.sol:ContestRoyalty",
						"label": "qualifiedWeekly",
						"offset": 0,
						"slot": "5",
						"type": "t_array(t_address)dyn_storage"
					},
					{
						"astId": 93,
						"contract": "contracts/modules/ContestRoyalty.sol:ContestRoyalty",
						"label": "qualifiedMonthly",
						"offset": 0,
						"slot": "6",
						"type": "t_array(t_address)dyn_storage"
					},
					{
						"astId": 113,
						"contract": "contracts/modules/ContestRoyalty.sol:ContestRoyalty",
						"label": "weeklyRounds",
						"offset": 0,
						"slot": "7",
						"type": "t_mapping(t_uint256,t_struct(RoundInfo)108_storage)"
					},
					{
						"astId": 118,
						"contract": "contracts/modules/ContestRoyalty.sol:ContestRoyalty",
						"label": "monthlyRounds",
						"offset": 0,
						"slot": "8",
						"type": "t_mapping(t_uint256,t_struct(RoundInfo)108_storage)"
					},
					{
						"astId": 124,
						"contract": "contracts/modules/ContestRoyalty.sol:ContestRoyalty",
						"label": "isWeeklyQualified",
						"offset": 0,
						"slot": "9",
						"type": "t_mapping(t_uint256,t_mapping(t_address,t_bool))"
					},
					{
						"astId": 130,
						"contract": "contracts/modules/ContestRoyalty.sol:ContestRoyalty",
						"label": "isMonthlyQualified",
						"offset": 0,
						"slot": "10",
						"type": "t_mapping(t_uint256,t_mapping(t_address,t_bool))"
					},
					{
						"astId": 136,
						"contract": "contracts/modules/ContestRoyalty.sol:ContestRoyalty",
						"label": "hasClaimedWeekly",
						"offset": 0,
						"slot": "11",
						"type": "t_mapping(t_uint256,t_mapping(t_address,t_bool))"
					},
					{
						"astId": 142,
						"contract": "contracts/modules/ContestRoyalty.sol:ContestRoyalty",
						"label": "hasClaimedMonthly",
						"offset": 0,
						"slot": "12",
						"type": "t_mapping(t_uint256,t_mapping(t_address,t_bool))"
					}
				],
				"types": {
					"t_address": {
						"encoding": "inplace",
						"label": "address",
						"numberOfBytes": "20"
					},
					"t_array(t_address)dyn_storage": {
						"base": "t_address",
						"encoding": "dynamic_array",
						"label": "address[]",
						"numberOfBytes": "32"
					},
					"t_bool": {
						"encoding": "inplace",
						"label": "bool",
						"numberOfBytes": "1"
					},
					"t_mapping(t_address,t_bool)": {
						"encoding": "mapping",
						"key": "t_address",
						"label": "mapping(address => bool)",
						"numberOfBytes": "32",
						"value": "t_bool"
					},
					"t_mapping(t_uint256,t_mapping(t_address,t_bool))": {
						"encoding": "mapping",
						"key": "t_uint256",
						"label": "mapping(uint256 => mapping(address => bool))",
						"numberOfBytes": "32",
						"value": "t_mapping(t_address,t_bool)"
					},
					"t_mapping(t_uint256,t_struct(RoundInfo)108_storage)": {
						"encoding": "mapping",
						"key": "t_uint256",
						"label": "mapping(uint256 => struct ContestRoyalty.RoundInfo)",
						"numberOfBytes": "32",
						"value": "t_struct(RoundInfo)108_storage"
					},
					"t_struct(RoundInfo)108_storage": {
						"encoding": "inplace",
						"label": "struct ContestRoyalty.RoundInfo",
						"members": [
							{
								"astId": 95,
								"contract": "contracts/modules/ContestRoyalty.sol:ContestRoyalty",
								"label": "id",
								"offset": 0,
								"slot": "0",
								"type": "t_uint256"
							},
							{
								"astId": 97,
								"contract": "contracts/modules/ContestRoyalty.sol:ContestRoyalty",
								"label": "totalUsers",
								"offset": 0,
								"slot": "1",
								"type": "t_uint256"
							},
							{
								"astId": 99,
								"contract": "contracts/modules/ContestRoyalty.sol:ContestRoyalty",
								"label": "totalReward",
								"offset": 0,
								"slot": "2",
								"type": "t_uint256"
							},
							{
								"astId": 101,
								"contract": "contracts/modules/ContestRoyalty.sol:ContestRoyalty",
								"label": "perUserReward",
								"offset": 0,
								"slot": "3",
								"type": "t_uint256"
							},
							{
								"astId": 103,
								"contract": "contracts/modules/ContestRoyalty.sol:ContestRoyalty",
								"label": "startTime",
								"offset": 0,
								"slot": "4",
								"type": "t_uint256"
							},
							{
								"astId": 105,
								"contract": "contracts/modules/ContestRoyalty.sol:ContestRoyalty",
								"label": "endTime",
								"offset": 0,
								"slot": "5",
								"type": "t_uint256"
							},
							{
								"astId": 107,
								"contract": "contracts/modules/ContestRoyalty.sol:ContestRoyalty",
								"label": "closed",
								"offset": 0,
								"slot": "6",
								"type": "t_bool"
							}
						],
						"numberOfBytes": "224"
					},
					"t_uint256": {
						"encoding": "inplace",
						"label": "uint256",
						"numberOfBytes": "32"
					}
				}
			},
			"userdoc": {
				"kind": "user",
				"methods": {},
				"version": 1
			}
		}
	}
}