{
	"contracts/modules/Storage.sol": {
		"Storage": {
			"abi": [
				{
					"inputs": [],
					"stateMutability": "nonpayable",
					"type": "constructor"
				},
				{
					"anonymous": false,
					"inputs": [
						{
							"indexed": false,
							"internalType": "uint256",
							"name": "amount",
							"type": "uint256"
						},
						{
							"indexed": false,
							"internalType": "uint256",
							"name": "usersCount",
							"type": "uint256"
						},
						{
							"indexed": false,
							"internalType": "uint256",
							"name": "perUser",
							"type": "uint256"
						}
					],
					"name": "CommunityBonusDistributed",
					"type": "event"
				},
				{
					"anonymous": false,
					"inputs": [
						{
							"indexed": true,
							"internalType": "address",
							"name": "to",
							"type": "address"
						},
						{
							"indexed": true,
							"internalType": "address",
							"name": "from",
							"type": "address"
						},
						{
							"indexed": false,
							"internalType": "uint256",
							"name": "amount",
							"type": "uint256"
						},
						{
							"indexed": false,
							"internalType": "uint256",
							"name": "packageLevel",
							"type": "uint256"
						},
						{
							"indexed": false,
							"internalType": "uint256",
							"name": "incomeType",
							"type": "uint256"
						}
					],
					"name": "IncomeDistributed",
					"type": "event"
				},
				{
					"anonymous": false,
					"inputs": [
						{
							"indexed": true,
							"internalType": "address",
							"name": "to",
							"type": "address"
						},
						{
							"indexed": true,
							"internalType": "uint256",
							"name": "toId",
							"type": "uint256"
						},
						{
							"indexed": true,
							"internalType": "uint256",
							"name": "fromId",
							"type": "uint256"
						},
						{
							"indexed": false,
							"internalType": "uint256",
							"name": "amount",
							"type": "uint256"
						},
						{
							"indexed": false,
							"internalType": "uint256",
							"name": "packageLevel",
							"type": "uint256"
						},
						{
							"indexed": false,
							"internalType": "enum Storage.IncomeType",
							"name": "incomeType",
							"type": "uint8"
						},
						{
							"indexed": false,
							"internalType": "uint256",
							"name": "timestamp",
							"type": "uint256"
						}
					],
					"name": "IncomeDistribution",
					"type": "event"
				},
				{
					"anonymous": false,
					"inputs": [
						{
							"indexed": true,
							"internalType": "address",
							"name": "winner",
							"type": "address"
						},
						{
							"indexed": true,
							"internalType": "uint256",
							"name": "fromUserId",
							"type": "uint256"
						},
						{
							"indexed": false,
							"internalType": "uint256",
							"name": "amount",
							"type": "uint256"
						},
						{
							"indexed": false,
							"internalType": "uint256",
							"name": "timestamp",
							"type": "uint256"
						}
					],
					"name": "LotteryReward",
					"type": "event"
				},
				{
					"anonymous": false,
					"inputs": [
						{
							"indexed": false,
							"internalType": "uint256",
							"name": "roundId",
							"type": "uint256"
						},
						{
							"indexed": false,
							"internalType": "uint256",
							"name": "totalUsers",
							"type": "uint256"
						},
						{
							"indexed": false,
							"internalType": "uint256",
							"name": "perUserReward",
							"type": "uint256"
						},
						{
							"indexed": false,
							"internalType": "uint256",
							"name": "totalReward",
							"type": "uint256"
						},
						{
							"indexed": false,
							"internalType": "uint256",
							"name": "totalDistributed",
							"type": "uint256"
						},
						{
							"indexed": false,
							"internalType": "uint256",
							"name": "leftoverReward",
							"type": "uint256"
						},
						{
							"indexed": false,
							"internalType": "uint256",
							"name": "endTime",
							"type": "uint256"
						}
					],
					"name": "MonthlyClosed",
					"type": "event"
				},
				{
					"anonymous": false,
					"inputs": [
						{
							"indexed": false,
							"internalType": "uint256",
							"name": "roundId",
							"type": "uint256"
						},
						{
							"indexed": false,
							"internalType": "uint256",
							"name": "userId",
							"type": "uint256"
						},
						{
							"indexed": false,
							"internalType": "uint256",
							"name": "perUserReward",
							"type": "uint256"
						},
						{
							"indexed": false,
							"internalType": "uint256",
							"name": "claimTime",
							"type": "uint256"
						}
					],
					"name": "MonthlyRewardClaim",
					"type": "event"
				},
				{
					"anonymous": false,
					"inputs": [
						{
							"indexed": false,
							"internalType": "uint256",
							"name": "roundId",
							"type": "uint256"
						},
						{
							"indexed": false,
							"internalType": "uint256",
							"name": "userId",
							"type": "uint256"
						},
						{
							"indexed": false,
							"internalType": "uint256",
							"name": "joinTime",
							"type": "uint256"
						}
					],
					"name": "MonthlyRoyaltyQualified",
					"type": "event"
				},
				{
					"anonymous": false,
					"inputs": [
						{
							"indexed": true,
							"internalType": "address",
							"name": "user",
							"type": "address"
						},
						{
							"indexed": true,
							"internalType": "address",
							"name": "sponsor",
							"type": "address"
						},
						{
							"indexed": true,
							"internalType": "uint256",
							"name": "userId",
							"type": "uint256"
						},
						{
							"indexed": false,
							"internalType": "uint256",
							"name": "uplineId",
							"type": "uint256"
						}
					],
					"name": "Registration",
					"type": "event"
				},
				{
					"anonymous": false,
					"inputs": [
						{
							"indexed": true,
							"internalType": "address",
							"name": "to",
							"type": "address"
						},
						{
							"indexed": false,
							"internalType": "uint256",
							"name": "amount",
							"type": "uint256"
						},
						{
							"indexed": false,
							"internalType": "string",
							"name": "level",
							"type": "string"
						}
					],
					"name": "RewardSent",
					"type": "event"
				},
				{
					"anonymous": false,
					"inputs": [
						{
							"indexed": false,
							"internalType": "uint256",
							"name": "roundId",
							"type": "uint256"
						},
						{
							"indexed": false,
							"internalType": "uint256",
							"name": "totalUsers",
							"type": "uint256"
						},
						{
							"indexed": false,
							"internalType": "uint256",
							"name": "perUserReward",
							"type": "uint256"
						},
						{
							"indexed": false,
							"internalType": "uint256",
							"name": "totalReward",
							"type": "uint256"
						},
						{
							"indexed": false,
							"internalType": "uint256",
							"name": "totalDistributed",
							"type": "uint256"
						},
						{
							"indexed": false,
							"internalType": "uint256",
							"name": "leftoverReward",
							"type": "uint256"
						},
						{
							"indexed": false,
							"internalType": "uint256",
							"name": "endTime",
							"type": "uint256"
						}
					],
					"name": "TopRoyaltyClosed",
					"type": "event"
				},
				{
					"anonymous": false,
					"inputs": [
						{
							"indexed": false,
							"internalType": "uint256",
							"name": "roundId",
							"type": "uint256"
						},
						{
							"indexed": false,
							"internalType": "uint256",
							"name": "userId",
							"type": "uint256"
						},
						{
							"indexed": false,
							"internalType": "uint256",
							"name": "joinTime",
							"type": "uint256"
						}
					],
					"name": "TopRoyaltyQualified",
					"type": "event"
				},
				{
					"anonymous": false,
					"inputs": [
						{
							"indexed": false,
							"internalType": "uint256",
							"name": "roundId",
							"type": "uint256"
						},
						{
							"indexed": false,
							"internalType": "uint256",
							"name": "userId",
							"type": "uint256"
						},
						{
							"indexed": false,
							"internalType": "uint256",
							"name": "perUserReward",
							"type": "uint256"
						},
						{
							"indexed": false,
							"internalType": "uint256",
							"name": "claimTime",
							"type": "uint256"
						}
					],
					"name": "TopRoyaltyRewardClaim",
					"type": "event"
				},
				{
					"anonymous": false,
					"inputs": [
						{
							"indexed": true,
							"internalType": "address",
							"name": "user",
							"type": "address"
						},
						{
							"indexed": true,
							"internalType": "uint256",
							"name": "userId",
							"type": "uint256"
						},
						{
							"indexed": false,
							"internalType": "uint256",
							"name": "packageLevel",
							"type": "uint256"
						},
						{
							"indexed": false,
							"internalType": "uint256",
							"name": "packagePrice",
							"type": "uint256"
						},
						{
							"indexed": false,
							"internalType": "string",
							"name": "depositType",
							"type": "string"
						},
						{
							"indexed": false,
							"internalType": "uint256",
							"name": "upgradeTime",
							"type": "uint256"
						}
					],
					"name": "Upgrade",
					"type": "event"
				},
				{
					"anonymous": false,
					"inputs": [
						{
							"indexed": true,
							"internalType": "uint8",
							"name": "matrixId",
							"type": "uint8"
						},
						{
							"indexed": true,
							"internalType": "uint32",
							"name": "userId",
							"type": "uint32"
						},
						{
							"indexed": true,
							"internalType": "address",
							"name": "user",
							"type": "address"
						},
						{
							"indexed": false,
							"internalType": "uint32",
							"name": "parentId",
							"type": "uint32"
						},
						{
							"indexed": false,
							"internalType": "address",
							"name": "parentAddr",
							"type": "address"
						},
						{
							"indexed": false,
							"internalType": "uint8",
							"name": "position",
							"type": "uint8"
						}
					],
					"name": "UserJoined",
					"type": "event"
				},
				{
					"anonymous": false,
					"inputs": [
						{
							"indexed": false,
							"internalType": "uint256",
							"name": "roundId",
							"type": "uint256"
						},
						{
							"indexed": false,
							"internalType": "uint256",
							"name": "totalUsers",
							"type": "uint256"
						},
						{
							"indexed": false,
							"internalType": "uint256",
							"name": "perUserReward",
							"type": "uint256"
						},
						{
							"indexed": false,
							"internalType": "uint256",
							"name": "totalReward",
							"type": "uint256"
						},
						{
							"indexed": false,
							"internalType": "uint256",
							"name": "totalDistributed",
							"type": "uint256"
						},
						{
							"indexed": false,
							"internalType": "uint256",
							"name": "leftoverReward",
							"type": "uint256"
						},
						{
							"indexed": false,
							"internalType": "uint256",
							"name": "endTime",
							"type": "uint256"
						}
					],
					"name": "WeeklyClosed",
					"type": "event"
				},
				{
					"anonymous": false,
					"inputs": [
						{
							"indexed": false,
							"internalType": "uint256",
							"name": "roundId",
							"type": "uint256"
						},
						{
							"indexed": false,
							"internalType": "uint256",
							"name": "userId",
							"type": "uint256"
						},
						{
							"indexed": false,
							"internalType": "uint256",
							"name": "joinTime",
							"type": "uint256"
						}
					],
					"name": "WeeklyContestQualified",
					"type": "event"
				},
				{
					"anonymous": false,
					"inputs": [
						{
							"indexed": false,
							"internalType": "uint256",
							"name": "roundId",
							"type": "uint256"
						},
						{
							"indexed": false,
							"internalType": "uint256",
							"name": "userId",
							"type": "uint256"
						},
						{
							"indexed": false,
							"internalType": "uint256",
							"name": "perUserReward",
							"type": "uint256"
						},
						{
							"indexed": false,
							"internalType": "uint256",
							"name": "claimTime",
							"type": "uint256"
						}
					],
					"name": "WeeklyRewardClaim",
					"type": "event"
				},
				{
					"inputs": [],
					"name": "ACC_PRECISION",
					"outputs": [
						{
							"internalType": "uint256",
							"name": "",
							"type": "uint256"
						}
					],
					"stateMutability": "view",
					"type": "function"
				},
				{
					"inputs": [],
					"name": "MONTHLY_ROYALTY_DIRECT",
					"outputs": [
						{
							"internalType": "uint256",
							"name": "",
							"type": "uint256"
						}
					],
					"stateMutability": "view",
					"type": "function"
				},
				{
					"inputs": [],
					"name": "MONTHLY_ROYALTY_LEVEL",
					"outputs": [
						{
							"internalType": "uint256",
							"name": "",
							"type": "uint256"
						}
					],
					"stateMutability": "view",
					"type": "function"
				},
				{
					"inputs": [],
					"name": "MONTHLY_ROYALTY_TIME",
					"outputs": [
						{
							"internalType": "uint256",
							"name": "",
							"type": "uint256"
						}
					],
					"stateMutability": "view",
					"type": "function"
				},
				{
					"inputs": [],
					"name": "MONTH_DURATION",
					"outputs": [
						{
							"internalType": "uint256",
							"name": "",
							"type": "uint256"
						}
					],
					"stateMutability": "view",
					"type": "function"
				},
				{
					"inputs": [],
					"name": "PERCENTS_DIVIDER",
					"outputs": [
						{
							"internalType": "uint256",
							"name": "",
							"type": "uint256"
						}
					],
					"stateMutability": "view",
					"type": "function"
				},
				{
					"inputs": [],
					"name": "ROI_2X_TIME",
					"outputs": [
						{
							"internalType": "uint256",
							"name": "",
							"type": "uint256"
						}
					],
					"stateMutability": "view",
					"type": "function"
				},
				{
					"inputs": [],
					"name": "ROI_CAP_DIVIDER",
					"outputs": [
						{
							"internalType": "uint256",
							"name": "",
							"type": "uint256"
						}
					],
					"stateMutability": "view",
					"type": "function"
				},
				{
					"inputs": [],
					"name": "ROI_CAP_MULTIPLIER",
					"outputs": [
						{
							"internalType": "uint256",
							"name": "",
							"type": "uint256"
						}
					],
					"stateMutability": "view",
					"type": "function"
				},
				{
					"inputs": [],
					"name": "TIME_STEP",
					"outputs": [
						{
							"internalType": "uint256",
							"name": "",
							"type": "uint256"
						}
					],
					"stateMutability": "view",
					"type": "function"
				},
				{
					"inputs": [],
					"name": "TOP_ROYALTY_DIRECT",
					"outputs": [
						{
							"internalType": "uint256",
							"name": "",
							"type": "uint256"
						}
					],
					"stateMutability": "view",
					"type": "function"
				},
				{
					"inputs": [],
					"name": "TOP_ROYALTY_LEVEL",
					"outputs": [
						{
							"internalType": "uint256",
							"name": "",
							"type": "uint256"
						}
					],
					"stateMutability": "view",
					"type": "function"
				},
				{
					"inputs": [],
					"name": "TOP_ROYALTY_TIME",
					"outputs": [
						{
							"internalType": "uint256",
							"name": "",
							"type": "uint256"
						}
					],
					"stateMutability": "view",
					"type": "function"
				},
				{
					"inputs": [],
					"name": "WEEK_DURATION",
					"outputs": [
						{
							"internalType": "uint256",
							"name": "",
							"type": "uint256"
						}
					],
					"stateMutability": "view",
					"type": "function"
				},
				{
					"inputs": [],
					"name": "WeeklyCapping",
					"outputs": [
						{
							"internalType": "uint256",
							"name": "",
							"type": "uint256"
						}
					],
					"stateMutability": "view",
					"type": "function"
				},
				{
					"inputs": [],
					"name": "WeeklyTotalReward",
					"outputs": [
						{
							"internalType": "uint256",
							"name": "",
							"type": "uint256"
						}
					],
					"stateMutability": "view",
					"type": "function"
				},
				{
					"inputs": [
						{
							"internalType": "address",
							"name": "",
							"type": "address"
						}
					],
					"name": "addressToId",
					"outputs": [
						{
							"internalType": "uint256",
							"name": "",
							"type": "uint256"
						}
					],
					"stateMutability": "view",
					"type": "function"
				},
				{
					"inputs": [
						{
							"internalType": "uint256",
							"name": "",
							"type": "uint256"
						},
						{
							"internalType": "uint256",
							"name": "",
							"type": "uint256"
						}
					],
					"name": "boosterUsers",
					"outputs": [
						{
							"internalType": "uint256",
							"name": "",
							"type": "uint256"
						}
					],
					"stateMutability": "view",
					"type": "function"
				},
				{
					"inputs": [
						{
							"internalType": "uint256",
							"name": "",
							"type": "uint256"
						}
					],
					"name": "communityAccPerPackage",
					"outputs": [
						{
							"internalType": "uint256",
							"name": "",
							"type": "uint256"
						}
					],
					"stateMutability": "view",
					"type": "function"
				},
				{
					"inputs": [],
					"name": "communityAccPerUser",
					"outputs": [
						{
							"internalType": "uint256",
							"name": "",
							"type": "uint256"
						}
					],
					"stateMutability": "view",
					"type": "function"
				},
				{
					"inputs": [
						{
							"internalType": "uint256",
							"name": "",
							"type": "uint256"
						},
						{
							"internalType": "uint256",
							"name": "",
							"type": "uint256"
						}
					],
					"name": "communityDebt",
					"outputs": [
						{
							"internalType": "uint256",
							"name": "",
							"type": "uint256"
						}
					],
					"stateMutability": "view",
					"type": "function"
				},
				{
					"inputs": [],
					"name": "creatorWallet",
					"outputs": [
						{
							"internalType": "address",
							"name": "",
							"type": "address"
						}
					],
					"stateMutability": "view",
					"type": "function"
				},
				{
					"inputs": [],
					"name": "currentMonthlyRound",
					"outputs": [
						{
							"internalType": "uint256",
							"name": "",
							"type": "uint256"
						}
					],
					"stateMutability": "view",
					"type": "function"
				},
				{
					"inputs": [],
					"name": "currentMonthlyStartTime",
					"outputs": [
						{
							"internalType": "uint256",
							"name": "",
							"type": "uint256"
						}
					],
					"stateMutability": "view",
					"type": "function"
				},
				{
					"inputs": [],
					"name": "currentWeeklyRound",
					"outputs": [
						{
							"internalType": "uint256",
							"name": "",
							"type": "uint256"
						}
					],
					"stateMutability": "view",
					"type": "function"
				},
				{
					"inputs": [],
					"name": "currentWeeklyStartTime",
					"outputs": [
						{
							"internalType": "uint256",
							"name": "",
							"type": "uint256"
						}
					],
					"stateMutability": "view",
					"type": "function"
				},
				{
					"inputs": [],
					"name": "defaultRefId",
					"outputs": [
						{
							"internalType": "uint256",
							"name": "",
							"type": "uint256"
						}
					],
					"stateMutability": "view",
					"type": "function"
				},
				{
					"inputs": [
						{
							"internalType": "uint256",
							"name": "",
							"type": "uint256"
						},
						{
							"internalType": "uint256",
							"name": "",
							"type": "uint256"
						}
					],
					"name": "directReferrals",
					"outputs": [
						{
							"internalType": "uint256",
							"name": "",
							"type": "uint256"
						}
					],
					"stateMutability": "view",
					"type": "function"
				},
				{
					"inputs": [
						{
							"internalType": "uint256",
							"name": "",
							"type": "uint256"
						}
					],
					"name": "glbBoosterPackages",
					"outputs": [
						{
							"internalType": "uint256",
							"name": "",
							"type": "uint256"
						}
					],
					"stateMutability": "view",
					"type": "function"
				},
				{
					"inputs": [
						{
							"internalType": "uint256",
							"name": "",
							"type": "uint256"
						},
						{
							"internalType": "uint256",
							"name": "",
							"type": "uint256"
						}
					],
					"name": "incomeHistory",
					"outputs": [
						{
							"internalType": "uint256",
							"name": "fromUserId",
							"type": "uint256"
						},
						{
							"internalType": "uint256",
							"name": "amount",
							"type": "uint256"
						},
						{
							"internalType": "uint256",
							"name": "packageLevel",
							"type": "uint256"
						},
						{
							"internalType": "uint256",
							"name": "timestamp",
							"type": "uint256"
						},
						{
							"internalType": "uint256",
							"name": "incomeType",
							"type": "uint256"
						}
					],
					"stateMutability": "view",
					"type": "function"
				},
				{
					"inputs": [
						{
							"internalType": "uint256",
							"name": "",
							"type": "uint256"
						}
					],
					"name": "matrixDirect",
					"outputs": [
						{
							"internalType": "uint256",
							"name": "",
							"type": "uint256"
						}
					],
					"stateMutability": "view",
					"type": "function"
				},
				{
					"inputs": [
						{
							"internalType": "uint256",
							"name": "",
							"type": "uint256"
						}
					],
					"name": "minLevelForGlbBooster",
					"outputs": [
						{
							"internalType": "uint256",
							"name": "",
							"type": "uint256"
						}
					],
					"stateMutability": "view",
					"type": "function"
				},
				{
					"inputs": [
						{
							"internalType": "uint256",
							"name": "",
							"type": "uint256"
						}
					],
					"name": "minLevelForPool",
					"outputs": [
						{
							"internalType": "uint256",
							"name": "",
							"type": "uint256"
						}
					],
					"stateMutability": "view",
					"type": "function"
				},
				{
					"inputs": [
						{
							"internalType": "uint256",
							"name": "",
							"type": "uint256"
						}
					],
					"name": "minPoolForGlbBooster",
					"outputs": [
						{
							"internalType": "uint256",
							"name": "",
							"type": "uint256"
						}
					],
					"stateMutability": "view",
					"type": "function"
				},
				{
					"inputs": [],
					"name": "monthlyCapping",
					"outputs": [
						{
							"internalType": "uint256",
							"name": "",
							"type": "uint256"
						}
					],
					"stateMutability": "view",
					"type": "function"
				},
				{
					"inputs": [
						{
							"internalType": "uint256",
							"name": "",
							"type": "uint256"
						}
					],
					"name": "monthlyQualifiedUsers",
					"outputs": [
						{
							"internalType": "uint256",
							"name": "",
							"type": "uint256"
						}
					],
					"stateMutability": "view",
					"type": "function"
				},
				{
					"inputs": [
						{
							"internalType": "uint256",
							"name": "",
							"type": "uint256"
						}
					],
					"name": "monthlyRoyaltyUserdtl",
					"outputs": [
						{
							"internalType": "uint256",
							"name": "joinTime",
							"type": "uint256"
						},
						{
							"internalType": "uint256",
							"name": "qualifiedRoundId",
							"type": "uint256"
						},
						{
							"internalType": "uint256",
							"name": "claimTime",
							"type": "uint256"
						},
						{
							"internalType": "bool",
							"name": "isQualified",
							"type": "bool"
						}
					],
					"stateMutability": "view",
					"type": "function"
				},
				{
					"inputs": [
						{
							"internalType": "uint256",
							"name": "",
							"type": "uint256"
						}
					],
					"name": "monthlyRoyaltydtl",
					"outputs": [
						{
							"internalType": "uint256",
							"name": "roundId",
							"type": "uint256"
						},
						{
							"internalType": "uint256",
							"name": "totalReward",
							"type": "uint256"
						},
						{
							"internalType": "uint256",
							"name": "totalUsers",
							"type": "uint256"
						},
						{
							"internalType": "uint256",
							"name": "perUserReward",
							"type": "uint256"
						},
						{
							"internalType": "uint256",
							"name": "claimedCount",
							"type": "uint256"
						},
						{
							"internalType": "uint256",
							"name": "startTime",
							"type": "uint256"
						},
						{
							"internalType": "uint256",
							"name": "endTime",
							"type": "uint256"
						},
						{
							"internalType": "uint256",
							"name": "carryForward",
							"type": "uint256"
						},
						{
							"internalType": "bool",
							"name": "closed",
							"type": "bool"
						}
					],
					"stateMutability": "view",
					"type": "function"
				},
				{
					"inputs": [],
					"name": "monthlyTotalReward",
					"outputs": [
						{
							"internalType": "uint256",
							"name": "",
							"type": "uint256"
						}
					],
					"stateMutability": "view",
					"type": "function"
				},
				{
					"inputs": [
						{
							"internalType": "uint256",
							"name": "",
							"type": "uint256"
						},
						{
							"internalType": "uint256",
							"name": "",
							"type": "uint256"
						}
					],
					"name": "monthlyUserDirects",
					"outputs": [
						{
							"internalType": "uint256",
							"name": "",
							"type": "uint256"
						}
					],
					"stateMutability": "view",
					"type": "function"
				},
				{
					"inputs": [
						{
							"internalType": "uint256",
							"name": "",
							"type": "uint256"
						}
					],
					"name": "packageQualifiedUsers",
					"outputs": [
						{
							"internalType": "uint256",
							"name": "",
							"type": "uint256"
						}
					],
					"stateMutability": "view",
					"type": "function"
				},
				{
					"inputs": [
						{
							"internalType": "uint256",
							"name": "",
							"type": "uint256"
						}
					],
					"name": "packages",
					"outputs": [
						{
							"internalType": "uint256",
							"name": "",
							"type": "uint256"
						}
					],
					"stateMutability": "view",
					"type": "function"
				},
				{
					"inputs": [
						{
							"internalType": "uint256",
							"name": "",
							"type": "uint256"
						}
					],
					"name": "poolPackages",
					"outputs": [
						{
							"internalType": "uint256",
							"name": "",
							"type": "uint256"
						}
					],
					"stateMutability": "view",
					"type": "function"
				},
				{
					"inputs": [
						{
							"internalType": "uint256",
							"name": "",
							"type": "uint256"
						},
						{
							"internalType": "uint256",
							"name": "",
							"type": "uint256"
						}
					],
					"name": "poolUsers",
					"outputs": [
						{
							"internalType": "uint256",
							"name": "",
							"type": "uint256"
						}
					],
					"stateMutability": "view",
					"type": "function"
				},
				{
					"inputs": [
						{
							"internalType": "uint256",
							"name": "",
							"type": "uint256"
						}
					],
					"name": "registeredUserIds",
					"outputs": [
						{
							"internalType": "uint256",
							"name": "",
							"type": "uint256"
						}
					],
					"stateMutability": "view",
					"type": "function"
				},
				{
					"inputs": [],
					"name": "systemMaintance",
					"outputs": [
						{
							"internalType": "address",
							"name": "",
							"type": "address"
						}
					],
					"stateMutability": "view",
					"type": "function"
				},
				{
					"inputs": [],
					"name": "teamDevelopment",
					"outputs": [
						{
							"internalType": "address",
							"name": "",
							"type": "address"
						}
					],
					"stateMutability": "view",
					"type": "function"
				},
				{
					"inputs": [
						{
							"internalType": "uint256",
							"name": "",
							"type": "uint256"
						},
						{
							"internalType": "uint256",
							"name": "",
							"type": "uint256"
						},
						{
							"internalType": "uint256",
							"name": "",
							"type": "uint256"
						}
					],
					"name": "teams",
					"outputs": [
						{
							"internalType": "uint256",
							"name": "",
							"type": "uint256"
						}
					],
					"stateMutability": "view",
					"type": "function"
				},
				{
					"inputs": [
						{
							"internalType": "uint256",
							"name": "",
							"type": "uint256"
						}
					],
					"name": "topRoyaltyQualifiedUsers",
					"outputs": [
						{
							"internalType": "uint256",
							"name": "",
							"type": "uint256"
						}
					],
					"stateMutability": "view",
					"type": "function"
				},
				{
					"inputs": [],
					"name": "topRoyaltyReward",
					"outputs": [
						{
							"internalType": "uint256",
							"name": "",
							"type": "uint256"
						}
					],
					"stateMutability": "view",
					"type": "function"
				},
				{
					"inputs": [],
					"name": "topRoyaltyRound",
					"outputs": [
						{
							"internalType": "uint256",
							"name": "",
							"type": "uint256"
						}
					],
					"stateMutability": "view",
					"type": "function"
				},
				{
					"inputs": [],
					"name": "topRoyaltyStartTime",
					"outputs": [
						{
							"internalType": "uint256",
							"name": "",
							"type": "uint256"
						}
					],
					"stateMutability": "view",
					"type": "function"
				},
				{
					"inputs": [
						{
							"internalType": "uint256",
							"name": "",
							"type": "uint256"
						},
						{
							"internalType": "uint256",
							"name": "",
							"type": "uint256"
						}
					],
					"name": "topRoyaltyUserDirects",
					"outputs": [
						{
							"internalType": "uint256",
							"name": "",
							"type": "uint256"
						}
					],
					"stateMutability": "view",
					"type": "function"
				},
				{
					"inputs": [
						{
							"internalType": "uint256",
							"name": "",
							"type": "uint256"
						}
					],
					"name": "topRoyaltyUserdtl",
					"outputs": [
						{
							"internalType": "uint256",
							"name": "joinTime",
							"type": "uint256"
						},
						{
							"internalType": "uint256",
							"name": "qualifiedRoundId",
							"type": "uint256"
						},
						{
							"internalType": "uint256",
							"name": "claimTime",
							"type": "uint256"
						},
						{
							"internalType": "bool",
							"name": "isQualified",
							"type": "bool"
						}
					],
					"stateMutability": "view",
					"type": "function"
				},
				{
					"inputs": [
						{
							"internalType": "uint256",
							"name": "",
							"type": "uint256"
						}
					],
					"name": "topRoyaltydtl",
					"outputs": [
						{
							"internalType": "uint256",
							"name": "roundId",
							"type": "uint256"
						},
						{
							"internalType": "uint256",
							"name": "totalReward",
							"type": "uint256"
						},
						{
							"internalType": "uint256",
							"name": "totalUsers",
							"type": "uint256"
						},
						{
							"internalType": "uint256",
							"name": "perUserReward",
							"type": "uint256"
						},
						{
							"internalType": "uint256",
							"name": "claimedCount",
							"type": "uint256"
						},
						{
							"internalType": "uint256",
							"name": "startTime",
							"type": "uint256"
						},
						{
							"internalType": "uint256",
							"name": "endTime",
							"type": "uint256"
						},
						{
							"internalType": "uint256",
							"name": "carryForward",
							"type": "uint256"
						},
						{
							"internalType": "bool",
							"name": "closed",
							"type": "bool"
						}
					],
					"stateMutability": "view",
					"type": "function"
				},
				{
					"inputs": [],
					"name": "totalUsers",
					"outputs": [
						{
							"internalType": "uint256",
							"name": "",
							"type": "uint256"
						}
					],
					"stateMutability": "view",
					"type": "function"
				},
				{
					"inputs": [],
					"name": "usdt",
					"outputs": [
						{
							"internalType": "contract IERC20",
							"name": "",
							"type": "address"
						}
					],
					"stateMutability": "view",
					"type": "function"
				},
				{
					"inputs": [
						{
							"internalType": "uint256",
							"name": "",
							"type": "uint256"
						},
						{
							"internalType": "uint256",
							"name": "",
							"type": "uint256"
						},
						{
							"internalType": "uint256",
							"name": "",
							"type": "uint256"
						}
					],
					"name": "userBoosterChildren",
					"outputs": [
						{
							"internalType": "uint256",
							"name": "",
							"type": "uint256"
						}
					],
					"stateMutability": "view",
					"type": "function"
				},
				{
					"inputs": [
						{
							"internalType": "uint256",
							"name": "",
							"type": "uint256"
						},
						{
							"internalType": "uint256",
							"name": "",
							"type": "uint256"
						}
					],
					"name": "userBoosterdtl",
					"outputs": [
						{
							"internalType": "uint256",
							"name": "id",
							"type": "uint256"
						},
						{
							"internalType": "uint256",
							"name": "poolId",
							"type": "uint256"
						},
						{
							"internalType": "uint256",
							"name": "parentId",
							"type": "uint256"
						},
						{
							"internalType": "uint256",
							"name": "bonusCount",
							"type": "uint256"
						},
						{
							"internalType": "uint256",
							"name": "joinTime",
							"type": "uint256"
						}
					],
					"stateMutability": "view",
					"type": "function"
				},
				{
					"inputs": [
						{
							"internalType": "uint256",
							"name": "",
							"type": "uint256"
						},
						{
							"internalType": "uint256",
							"name": "",
							"type": "uint256"
						},
						{
							"internalType": "uint256",
							"name": "",
							"type": "uint256"
						}
					],
					"name": "userChildren",
					"outputs": [
						{
							"internalType": "uint256",
							"name": "",
							"type": "uint256"
						}
					],
					"stateMutability": "view",
					"type": "function"
				},
				{
					"inputs": [
						{
							"internalType": "uint256",
							"name": "",
							"type": "uint256"
						},
						{
							"internalType": "uint256",
							"name": "",
							"type": "uint256"
						}
					],
					"name": "userHasPool",
					"outputs": [
						{
							"internalType": "bool",
							"name": "",
							"type": "bool"
						}
					],
					"stateMutability": "view",
					"type": "function"
				},
				{
					"inputs": [
						{
							"internalType": "uint256",
							"name": "",
							"type": "uint256"
						},
						{
							"internalType": "uint256",
							"name": "",
							"type": "uint256"
						}
					],
					"name": "userHasbooster",
					"outputs": [
						{
							"internalType": "bool",
							"name": "",
							"type": "bool"
						}
					],
					"stateMutability": "view",
					"type": "function"
				},
				{
					"inputs": [
						{
							"internalType": "uint256",
							"name": "",
							"type": "uint256"
						},
						{
							"internalType": "uint256",
							"name": "",
							"type": "uint256"
						},
						{
							"internalType": "uint256",
							"name": "",
							"type": "uint256"
						}
					],
					"name": "userIdPerPool",
					"outputs": [
						{
							"internalType": "uint256",
							"name": "",
							"type": "uint256"
						}
					],
					"stateMutability": "view",
					"type": "function"
				},
				{
					"inputs": [
						{
							"internalType": "uint256",
							"name": "",
							"type": "uint256"
						}
					],
					"name": "userIncomes",
					"outputs": [
						{
							"internalType": "uint256",
							"name": "totalIncome",
							"type": "uint256"
						},
						{
							"internalType": "uint256",
							"name": "sponsorIncome",
							"type": "uint256"
						},
						{
							"internalType": "uint256",
							"name": "matrixIncome",
							"type": "uint256"
						},
						{
							"internalType": "uint256",
							"name": "levelBoosterIncome",
							"type": "uint256"
						},
						{
							"internalType": "uint256",
							"name": "royaltyIncome",
							"type": "uint256"
						},
						{
							"internalType": "uint256",
							"name": "royaltyIncomeClaimed",
							"type": "uint256"
						},
						{
							"internalType": "uint256",
							"name": "communityIncome",
							"type": "uint256"
						},
						{
							"internalType": "uint256",
							"name": "poolIncome",
							"type": "uint256"
						},
						{
							"internalType": "uint256",
							"name": "boosterIncome",
							"type": "uint256"
						},
						{
							"internalType": "uint256",
							"name": "weeklyContestIncome",
							"type": "uint256"
						},
						{
							"internalType": "uint256",
							"name": "monthlyRoyalty",
							"type": "uint256"
						},
						{
							"internalType": "uint256",
							"name": "topRoyalty",
							"type": "uint256"
						}
					],
					"stateMutability": "view",
					"type": "function"
				},
				{
					"inputs": [
						{
							"internalType": "uint256",
							"name": "",
							"type": "uint256"
						},
						{
							"internalType": "uint256",
							"name": "",
							"type": "uint256"
						}
					],
					"name": "userPackage",
					"outputs": [
						{
							"internalType": "uint256",
							"name": "roiCap",
							"type": "uint256"
						},
						{
							"internalType": "uint256",
							"name": "currentIncome",
							"type": "uint256"
						},
						{
							"internalType": "uint256",
							"name": "closingAmount",
							"type": "uint256"
						},
						{
							"internalType": "bool",
							"name": "qualified",
							"type": "bool"
						},
						{
							"internalType": "bool",
							"name": "closed",
							"type": "bool"
						}
					],
					"stateMutability": "view",
					"type": "function"
				},
				{
					"inputs": [
						{
							"internalType": "uint256",
							"name": "",
							"type": "uint256"
						},
						{
							"internalType": "uint256",
							"name": "",
							"type": "uint256"
						}
					],
					"name": "userPooldtl",
					"outputs": [
						{
							"internalType": "uint256",
							"name": "id",
							"type": "uint256"
						},
						{
							"internalType": "uint256",
							"name": "mainid",
							"type": "uint256"
						},
						{
							"internalType": "uint256",
							"name": "poolId",
							"type": "uint256"
						},
						{
							"internalType": "uint256",
							"name": "parentId",
							"type": "uint256"
						},
						{
							"internalType": "uint256",
							"name": "bonusCount",
							"type": "uint256"
						}
					],
					"stateMutability": "view",
					"type": "function"
				},
				{
					"inputs": [
						{
							"internalType": "uint256",
							"name": "",
							"type": "uint256"
						},
						{
							"internalType": "uint256",
							"name": "",
							"type": "uint256"
						}
					],
					"name": "userPooltopup",
					"outputs": [
						{
							"internalType": "uint256",
							"name": "nextPoolAmt",
							"type": "uint256"
						},
						{
							"internalType": "uint256",
							"name": "reTopupAmt",
							"type": "uint256"
						}
					],
					"stateMutability": "view",
					"type": "function"
				},
				{
					"inputs": [
						{
							"internalType": "uint256",
							"name": "",
							"type": "uint256"
						}
					],
					"name": "users",
					"outputs": [
						{
							"internalType": "address",
							"name": "account",
							"type": "address"
						},
						{
							"internalType": "uint256",
							"name": "checkpoint",
							"type": "uint256"
						},
						{
							"internalType": "uint256",
							"name": "id",
							"type": "uint256"
						},
						{
							"internalType": "uint256",
							"name": "sponsorId",
							"type": "uint256"
						},
						{
							"internalType": "uint256",
							"name": "uplineId",
							"type": "uint256"
						},
						{
							"internalType": "uint256",
							"name": "level",
							"type": "uint256"
						},
						{
							"internalType": "uint256",
							"name": "directTeam",
							"type": "uint256"
						},
						{
							"internalType": "uint256",
							"name": "directPoolQualified",
							"type": "uint256"
						},
						{
							"internalType": "uint256",
							"name": "totalMatrixTeam",
							"type": "uint256"
						},
						{
							"internalType": "uint256",
							"name": "totalDeposit",
							"type": "uint256"
						},
						{
							"internalType": "uint256",
							"name": "roiCap",
							"type": "uint256"
						},
						{
							"internalType": "uint256",
							"name": "poollevel",
							"type": "uint256"
						},
						{
							"internalType": "uint256",
							"name": "poolDeposit",
							"type": "uint256"
						},
						{
							"internalType": "uint256",
							"name": "poolStartTime",
							"type": "uint256"
						},
						{
							"internalType": "uint256",
							"name": "boosterlevel",
							"type": "uint256"
						},
						{
							"internalType": "uint256",
							"name": "boosterDeposit",
							"type": "uint256"
						},
						{
							"internalType": "uint256",
							"name": "registrationTime",
							"type": "uint256"
						},
						{
							"internalType": "uint256",
							"name": "level10Time",
							"type": "uint256"
						},
						{
							"internalType": "uint256",
							"name": "level15Time",
							"type": "uint256"
						},
						{
							"internalType": "uint256",
							"name": "monthlyUserDirectCount",
							"type": "uint256"
						},
						{
							"internalType": "uint256",
							"name": "topRoyaltyDirectCount",
							"type": "uint256"
						}
					],
					"stateMutability": "view",
					"type": "function"
				},
				{
					"inputs": [
						{
							"internalType": "uint256",
							"name": "",
							"type": "uint256"
						}
					],
					"name": "weeklyContestdtl",
					"outputs": [
						{
							"internalType": "uint256",
							"name": "roundId",
							"type": "uint256"
						},
						{
							"internalType": "uint256",
							"name": "totalReward",
							"type": "uint256"
						},
						{
							"internalType": "uint256",
							"name": "totalUsers",
							"type": "uint256"
						},
						{
							"internalType": "uint256",
							"name": "perUserReward",
							"type": "uint256"
						},
						{
							"internalType": "uint256",
							"name": "claimedCount",
							"type": "uint256"
						},
						{
							"internalType": "uint256",
							"name": "startTime",
							"type": "uint256"
						},
						{
							"internalType": "uint256",
							"name": "endTime",
							"type": "uint256"
						},
						{
							"internalType": "uint256",
							"name": "carryForward",
							"type": "uint256"
						},
						{
							"internalType": "bool",
							"name": "closed",
							"type": "bool"
						}
					],
					"stateMutability": "view",
					"type": "function"
				},
				{
					"inputs": [
						{
							"internalType": "uint256",
							"name": "",
							"type": "uint256"
						},
						{
							"internalType": "uint256",
							"name": "",
							"type": "uint256"
						}
					],
					"name": "weeklyQualifiedUsers",
					"outputs": [
						{
							"internalType": "uint256",
							"name": "",
							"type": "uint256"
						}
					],
					"stateMutability": "view",
					"type": "function"
				},
				{
					"inputs": [
						{
							"internalType": "uint256",
							"name": "",
							"type": "uint256"
						},
						{
							"internalType": "uint256",
							"name": "",
							"type": "uint256"
						},
						{
							"internalType": "uint256",
							"name": "",
							"type": "uint256"
						}
					],
					"name": "weeklyUserDirects",
					"outputs": [
						{
							"internalType": "uint256",
							"name": "",
							"type": "uint256"
						}
					],
					"stateMutability": "view",
					"type": "function"
				},
				{
					"inputs": [
						{
							"internalType": "uint256",
							"name": "",
							"type": "uint256"
						},
						{
							"internalType": "uint256",
							"name": "",
							"type": "uint256"
						}
					],
					"name": "weeklyUserdtl",
					"outputs": [
						{
							"internalType": "uint256",
							"name": "joinTime",
							"type": "uint256"
						},
						{
							"internalType": "uint256",
							"name": "roundId",
							"type": "uint256"
						},
						{
							"internalType": "uint256",
							"name": "claimTime",
							"type": "uint256"
						},
						{
							"internalType": "bool",
							"name": "isClaimed",
							"type": "bool"
						},
						{
							"internalType": "bool",
							"name": "isQualified",
							"type": "bool"
						}
					],
					"stateMutability": "view",
					"type": "function"
				}
			],
			"devdoc": {
				"kind": "dev",
				"methods": {},
				"version": 1
			},
			"evm": {
				"assembly": "    /* \"contracts/modules/Storage.sol\":292:27896  contract Storage is ReentrancyGuard {... */\n  mstore(0x40, 0x80)\n  jumpi(tag_4, callvalue)\n    /* \"@openzeppelin/contracts/security/ReentrancyGuard.sol\":1716:1717  1 */\n  0x01\n    /* \"@openzeppelin/contracts/security/ReentrancyGuard.sol\":1821:1843  _status = _NOT_ENTERED */\n  0x00\n    /* \"contracts/modules/Storage.sol\":292:27896  contract Storage is ReentrancyGuard {... */\n  sstore\n  mload(0x40)\n  0x01e0\n  dup2\n  add\n  sub(shl(0x40, 0x01), 0x01)\n  dup2\n  gt\n  dup3\n  dup3\n  lt\n  or\n  tag_6\n  jumpi\n  0x40\n  mstore\n    /* \"contracts/modules/Storage.sol\":2222:2231  15 * 1e18 */\n  0xd02ab486cedc0000\n    /* \"contracts/modules/Storage.sol\":292:27896  contract Storage is ReentrancyGuard {... */\n  dup2\n  mstore\n    /* \"contracts/modules/Storage.sol\":2254:2263  25 * 1e18 */\n  0x015af1d78b58c40000\n    /* \"contracts/modules/Storage.sol\":2211:2726  [... */\n  0x20\n  dup3\n  add\n    /* \"contracts/modules/Storage.sol\":292:27896  contract Storage is ReentrancyGuard {... */\n  mstore\n    /* \"contracts/modules/Storage.sol\":2286:2295  50 * 1e18 */\n  0x02b5e3af16b1880000\n    /* \"contracts/modules/Storage.sol\":292:27896  contract Storage is ReentrancyGuard {... */\n  0x40\n    /* \"contracts/modules/Storage.sol\":2211:2726  [... */\n  dup3\n  add\n    /* \"contracts/modules/Storage.sol\":292:27896  contract Storage is ReentrancyGuard {... */\n  mstore\n    /* \"contracts/modules/Storage.sol\":2318:2328  100 * 1e18 */\n  0x056bc75e2d63100000\n    /* \"contracts/modules/Storage.sol\":2211:2726  [... */\n  0x60\n  dup3\n  add\n    /* \"contracts/modules/Storage.sol\":292:27896  contract Storage is ReentrancyGuard {... */\n  mstore\n    /* \"contracts/modules/Storage.sol\":2351:2361  200 * 1e18 */\n  0x0ad78ebc5ac6200000\n    /* \"contracts/modules/Storage.sol\":2211:2726  [... */\n  0x80\n  dup3\n  add\n    /* \"contracts/modules/Storage.sol\":292:27896  contract Storage is ReentrancyGuard {... */\n  mstore\n    /* \"contracts/modules/Storage.sol\":2384:2394  400 * 1e18 */\n  0x15af1d78b58c400000\n    /* \"contracts/modules/Storage.sol\":2211:2726  [... */\n  0xa0\n  dup3\n  add\n    /* \"contracts/modules/Storage.sol\":292:27896  contract Storage is ReentrancyGuard {... */\n  mstore\n    /* \"contracts/modules/Storage.sol\":2417:2427  800 * 1e18 */\n  0x2b5e3af16b18800000\n    /* \"contracts/modules/Storage.sol\":2211:2726  [... */\n  0xc0\n  dup3\n  add\n    /* \"contracts/modules/Storage.sol\":292:27896  contract Storage is ReentrancyGuard {... */\n  mstore\n    /* \"contracts/modules/Storage.sol\":2450:2461  1600 * 1e18 */\n  0x56bc75e2d631000000\n    /* \"contracts/modules/Storage.sol\":2211:2726  [... */\n  0xe0\n  dup3\n  add\n    /* \"contracts/modules/Storage.sol\":292:27896  contract Storage is ReentrancyGuard {... */\n  mstore\n    /* \"contracts/modules/Storage.sol\":2484:2495  3200 * 1e18 */\n  0xad78ebc5ac62000000\n    /* \"contracts/modules/Storage.sol\":2211:2726  [... */\n  0x0100\n  dup3\n  add\n    /* \"contracts/modules/Storage.sol\":292:27896  contract Storage is ReentrancyGuard {... */\n  mstore\n    /* \"contracts/modules/Storage.sol\":2518:2529  6400 * 1e18 */\n  0x015af1d78b58c4000000\n    /* \"contracts/modules/Storage.sol\":2211:2726  [... */\n  0x0120\n  dup3\n  add\n    /* \"contracts/modules/Storage.sol\":292:27896  contract Storage is ReentrancyGuard {... */\n  mstore\n    /* \"contracts/modules/Storage.sol\":2552:2564  12800 * 1e18 */\n  0x02b5e3af16b188000000\n    /* \"contracts/modules/Storage.sol\":2211:2726  [... */\n  0x0140\n  dup3\n  add\n    /* \"contracts/modules/Storage.sol\":292:27896  contract Storage is ReentrancyGuard {... */\n  mstore\n    /* \"contracts/modules/Storage.sol\":2587:2599  25600 * 1e18 */\n  0x056bc75e2d6310000000\n    /* \"contracts/modules/Storage.sol\":2211:2726  [... */\n  0x0160\n  dup3\n  add\n    /* \"contracts/modules/Storage.sol\":292:27896  contract Storage is ReentrancyGuard {... */\n  mstore\n    /* \"contracts/modules/Storage.sol\":2622:2634  51200 * 1e18 */\n  0x0ad78ebc5ac620000000\n    /* \"contracts/modules/Storage.sol\":2211:2726  [... */\n  0x0180\n  dup3\n  add\n    /* \"contracts/modules/Storage.sol\":292:27896  contract Storage is ReentrancyGuard {... */\n  mstore\n    /* \"contracts/modules/Storage.sol\":2657:2670  102400 * 1e18 */\n  0x15af1d78b58c40000000\n    /* \"contracts/modules/Storage.sol\":2211:2726  [... */\n  0x01a0\n  dup3\n  add\n    /* \"contracts/modules/Storage.sol\":292:27896  contract Storage is ReentrancyGuard {... */\n  mstore\n    /* \"contracts/modules/Storage.sol\":2693:2706  204800 * 1e18 */\n  0x2b5e3af16b1880000000\n    /* \"contracts/modules/Storage.sol\":2211:2726  [... */\n  0x01c0\n  dup3\n  add\n    /* \"contracts/modules/Storage.sol\":292:27896  contract Storage is ReentrancyGuard {... */\n  mstore\n    /* \"contracts/modules/Storage.sol\":2211:2726  [... */\n  0x0d\n    /* \"contracts/modules/Storage.sol\":292:27896  contract Storage is ReentrancyGuard {... */\n  sload\n    /* \"contracts/modules/Storage.sol\":2211:2726  [... */\n  0x0f\n  0x0d\n    /* \"contracts/modules/Storage.sol\":292:27896  contract Storage is ReentrancyGuard {... */\n  sstore\n  dup1\n    /* \"contracts/modules/Storage.sol\":2211:2726  [... */\n  0x0f\n    /* \"contracts/modules/Storage.sol\":292:27896  contract Storage is ReentrancyGuard {... */\n  lt\n  tag_8\n  jumpi\ntag_9:\n  pop\n    /* \"contracts/modules/Storage.sol\":2211:2726  [... */\n  0x0d\n    /* \"@openzeppelin/contracts/security/ReentrancyGuard.sol\":1821:1843  _status = _NOT_ENTERED */\n  0x00\n    /* \"contracts/modules/Storage.sol\":292:27896  contract Storage is ReentrancyGuard {... */\n  mstore\n    /* \"contracts/modules/Storage.sol\":2211:2726  [... */\n  0x20\n    /* \"@openzeppelin/contracts/security/ReentrancyGuard.sol\":1821:1843  _status = _NOT_ENTERED */\n  0x00\n    /* \"contracts/modules/Storage.sol\":292:27896  contract Storage is ReentrancyGuard {... */\n  keccak256\n  swap1\n    /* \"@openzeppelin/contracts/security/ReentrancyGuard.sol\":1821:1843  _status = _NOT_ENTERED */\n  0x00\n    /* \"contracts/modules/Storage.sol\":292:27896  contract Storage is ReentrancyGuard {... */\ntag_10:\n    /* \"contracts/modules/Storage.sol\":2211:2726  [... */\n  0x0f\n    /* \"contracts/modules/Storage.sol\":292:27896  contract Storage is ReentrancyGuard {... */\n  dup2\n  lt\n  tag_11\n  jumpi\n  tag_13\n  tag_1\n  jump\t// in\ntag_13:\n    /* \"contracts/modules/Storage.sol\":7006:7011  75e18 */\n  0x0410d586a20a4c0000\n    /* \"contracts/modules/Storage.sol\":292:27896  contract Storage is ReentrancyGuard {... */\n  dup2\n  mstore\n    /* \"contracts/modules/Storage.sol\":7013:7019  300e18 */\n  0x1043561a8829300000\n    /* \"contracts/modules/Storage.sol\":2211:2726  [... */\n  0x20\n    /* \"contracts/modules/Storage.sol\":7005:7069  [75e18, 300e18, 1200e18, 4800e18, 19200e18, 76800e18, 307200e18] */\n  dup3\n  add\n    /* \"contracts/modules/Storage.sol\":292:27896  contract Storage is ReentrancyGuard {... */\n  mstore\n    /* \"contracts/modules/Storage.sol\":7021:7028  1200e18 */\n  0x410d586a20a4c00000\n    /* \"contracts/modules/Storage.sol\":292:27896  contract Storage is ReentrancyGuard {... */\n  0x40\n    /* \"contracts/modules/Storage.sol\":7005:7069  [75e18, 300e18, 1200e18, 4800e18, 19200e18, 76800e18, 307200e18] */\n  dup3\n  add\n    /* \"contracts/modules/Storage.sol\":292:27896  contract Storage is ReentrancyGuard {... */\n  mstore\n    /* \"contracts/modules/Storage.sol\":7030:7037  4800e18 */\n  0x01043561a88293000000\n    /* \"contracts/modules/Storage.sol\":2211:2726  [... */\n  0x60\n    /* \"contracts/modules/Storage.sol\":7005:7069  [75e18, 300e18, 1200e18, 4800e18, 19200e18, 76800e18, 307200e18] */\n  dup3\n  add\n    /* \"contracts/modules/Storage.sol\":292:27896  contract Storage is ReentrancyGuard {... */\n  mstore\n    /* \"contracts/modules/Storage.sol\":7039:7047  19200e18 */\n  0x0410d586a20a4c000000\n    /* \"contracts/modules/Storage.sol\":2211:2726  [... */\n  0x80\n    /* \"contracts/modules/Storage.sol\":7005:7069  [75e18, 300e18, 1200e18, 4800e18, 19200e18, 76800e18, 307200e18] */\n  dup3\n  add\n    /* \"contracts/modules/Storage.sol\":292:27896  contract Storage is ReentrancyGuard {... */\n  mstore\n    /* \"contracts/modules/Storage.sol\":7049:7057  76800e18 */\n  0x1043561a882930000000\n    /* \"contracts/modules/Storage.sol\":2211:2726  [... */\n  0xa0\n    /* \"contracts/modules/Storage.sol\":7005:7069  [75e18, 300e18, 1200e18, 4800e18, 19200e18, 76800e18, 307200e18] */\n  dup3\n  add\n    /* \"contracts/modules/Storage.sol\":292:27896  contract Storage is ReentrancyGuard {... */\n  mstore\n    /* \"contracts/modules/Storage.sol\":7059:7068  307200e18 */\n  0x410d586a20a4c0000000\n    /* \"contracts/modules/Storage.sol\":2211:2726  [... */\n  0xc0\n    /* \"contracts/modules/Storage.sol\":7005:7069  [75e18, 300e18, 1200e18, 4800e18, 19200e18, 76800e18, 307200e18] */\n  dup3\n  add\n    /* \"contracts/modules/Storage.sol\":292:27896  contract Storage is ReentrancyGuard {... */\n  mstore\n    /* \"contracts/modules/Storage.sol\":7005:7069  [75e18, 300e18, 1200e18, 4800e18, 19200e18, 76800e18, 307200e18] */\n  0x16\n    /* \"contracts/modules/Storage.sol\":292:27896  contract Storage is ReentrancyGuard {... */\n  sload\n    /* \"contracts/modules/Storage.sol\":7005:7069  [75e18, 300e18, 1200e18, 4800e18, 19200e18, 76800e18, 307200e18] */\n  0x07\n  0x16\n    /* \"contracts/modules/Storage.sol\":292:27896  contract Storage is ReentrancyGuard {... */\n  sstore\n  dup1\n    /* \"contracts/modules/Storage.sol\":7005:7069  [75e18, 300e18, 1200e18, 4800e18, 19200e18, 76800e18, 307200e18] */\n  0x07\n    /* \"contracts/modules/Storage.sol\":292:27896  contract Storage is ReentrancyGuard {... */\n  lt\n  tag_14\n  jumpi\ntag_15:\n  pop\n    /* \"contracts/modules/Storage.sol\":7005:7069  [75e18, 300e18, 1200e18, 4800e18, 19200e18, 76800e18, 307200e18] */\n  0x16\n    /* \"@openzeppelin/contracts/security/ReentrancyGuard.sol\":1821:1843  _status = _NOT_ENTERED */\n  0x00\n    /* \"contracts/modules/Storage.sol\":292:27896  contract Storage is ReentrancyGuard {... */\n  mstore\n    /* \"contracts/modules/Storage.sol\":2211:2726  [... */\n  0x20\n    /* \"@openzeppelin/contracts/security/ReentrancyGuard.sol\":1821:1843  _status = _NOT_ENTERED */\n  0x00\n    /* \"contracts/modules/Storage.sol\":292:27896  contract Storage is ReentrancyGuard {... */\n  keccak256\n  swap1\n    /* \"@openzeppelin/contracts/security/ReentrancyGuard.sol\":1821:1843  _status = _NOT_ENTERED */\n  0x00\n    /* \"contracts/modules/Storage.sol\":292:27896  contract Storage is ReentrancyGuard {... */\ntag_16:\n    /* \"contracts/modules/Storage.sol\":7005:7069  [75e18, 300e18, 1200e18, 4800e18, 19200e18, 76800e18, 307200e18] */\n  0x07\n    /* \"contracts/modules/Storage.sol\":292:27896  contract Storage is ReentrancyGuard {... */\n  dup2\n  lt\n  tag_17\n  jumpi\n  tag_19\n  tag_2\n  jump\t// in\ntag_19:\n    /* \"contracts/modules/Storage.sol\":2318:2328  100 * 1e18 */\n  0x056bc75e2d63100000\n    /* \"contracts/modules/Storage.sol\":292:27896  contract Storage is ReentrancyGuard {... */\n  dup2\n  mstore\n    /* \"contracts/modules/Storage.sol\":2351:2361  200 * 1e18 */\n  0x0ad78ebc5ac6200000\n    /* \"contracts/modules/Storage.sol\":2211:2726  [... */\n  0x20\n    /* \"contracts/modules/Storage.sol\":7111:7181  [ 100e18, 200e18, 400e18, 800e18, 1600e18, 3200e18, 6400e18, 12800e18] */\n  dup3\n  add\n    /* \"contracts/modules/Storage.sol\":292:27896  contract Storage is ReentrancyGuard {... */\n  mstore\n    /* \"contracts/modules/Storage.sol\":2384:2394  400 * 1e18 */\n  0x15af1d78b58c400000\n    /* \"contracts/modules/Storage.sol\":292:27896  contract Storage is ReentrancyGuard {... */\n  0x40\n    /* \"contracts/modules/Storage.sol\":7111:7181  [ 100e18, 200e18, 400e18, 800e18, 1600e18, 3200e18, 6400e18, 12800e18] */\n  dup3\n  add\n    /* \"contracts/modules/Storage.sol\":292:27896  contract Storage is ReentrancyGuard {... */\n  mstore\n    /* \"contracts/modules/Storage.sol\":2417:2427  800 * 1e18 */\n  0x2b5e3af16b18800000\n    /* \"contracts/modules/Storage.sol\":2211:2726  [... */\n  0x60\n    /* \"contracts/modules/Storage.sol\":7111:7181  [ 100e18, 200e18, 400e18, 800e18, 1600e18, 3200e18, 6400e18, 12800e18] */\n  dup3\n  add\n    /* \"contracts/modules/Storage.sol\":292:27896  contract Storage is ReentrancyGuard {... */\n  mstore\n    /* \"contracts/modules/Storage.sol\":2450:2461  1600 * 1e18 */\n  0x56bc75e2d631000000\n    /* \"contracts/modules/Storage.sol\":2211:2726  [... */\n  0x80\n    /* \"contracts/modules/Storage.sol\":7111:7181  [ 100e18, 200e18, 400e18, 800e18, 1600e18, 3200e18, 6400e18, 12800e18] */\n  dup3\n  add\n    /* \"contracts/modules/Storage.sol\":292:27896  contract Storage is ReentrancyGuard {... */\n  mstore\n    /* \"contracts/modules/Storage.sol\":2484:2495  3200 * 1e18 */\n  0xad78ebc5ac62000000\n    /* \"contracts/modules/Storage.sol\":2211:2726  [... */\n  0xa0\n    /* \"contracts/modules/Storage.sol\":7111:7181  [ 100e18, 200e18, 400e18, 800e18, 1600e18, 3200e18, 6400e18, 12800e18] */\n  dup3\n  add\n    /* \"contracts/modules/Storage.sol\":292:27896  contract Storage is ReentrancyGuard {... */\n  mstore\n    /* \"contracts/modules/Storage.sol\":2518:2529  6400 * 1e18 */\n  0x015af1d78b58c4000000\n    /* \"contracts/modules/Storage.sol\":2211:2726  [... */\n  0xc0\n    /* \"contracts/modules/Storage.sol\":7111:7181  [ 100e18, 200e18, 400e18, 800e18, 1600e18, 3200e18, 6400e18, 12800e18] */\n  dup3\n  add\n    /* \"contracts/modules/Storage.sol\":292:27896  contract Storage is ReentrancyGuard {... */\n  mstore\n    /* \"contracts/modules/Storage.sol\":2552:2564  12800 * 1e18 */\n  0x02b5e3af16b188000000\n    /* \"contracts/modules/Storage.sol\":2211:2726  [... */\n  0xe0\n    /* \"contracts/modules/Storage.sol\":7111:7181  [ 100e18, 200e18, 400e18, 800e18, 1600e18, 3200e18, 6400e18, 12800e18] */\n  dup3\n  add\n    /* \"contracts/modules/Storage.sol\":292:27896  contract Storage is ReentrancyGuard {... */\n  mstore\n    /* \"contracts/modules/Storage.sol\":7111:7181  [ 100e18, 200e18, 400e18, 800e18, 1600e18, 3200e18, 6400e18, 12800e18] */\n  0x17\n    /* \"contracts/modules/Storage.sol\":292:27896  contract Storage is ReentrancyGuard {... */\n  sload\n    /* \"contracts/modules/Storage.sol\":7111:7181  [ 100e18, 200e18, 400e18, 800e18, 1600e18, 3200e18, 6400e18, 12800e18] */\n  0x08\n  0x17\n    /* \"contracts/modules/Storage.sol\":292:27896  contract Storage is ReentrancyGuard {... */\n  sstore\n  dup1\n    /* \"contracts/modules/Storage.sol\":7111:7181  [ 100e18, 200e18, 400e18, 800e18, 1600e18, 3200e18, 6400e18, 12800e18] */\n  0x08\n    /* \"contracts/modules/Storage.sol\":292:27896  contract Storage is ReentrancyGuard {... */\n  lt\n  tag_20\n  jumpi\ntag_21:\n  pop\n    /* \"contracts/modules/Storage.sol\":7111:7181  [ 100e18, 200e18, 400e18, 800e18, 1600e18, 3200e18, 6400e18, 12800e18] */\n  0x17\n    /* \"@openzeppelin/contracts/security/ReentrancyGuard.sol\":1821:1843  _status = _NOT_ENTERED */\n  0x00\n    /* \"contracts/modules/Storage.sol\":292:27896  contract Storage is ReentrancyGuard {... */\n  mstore\n    /* \"contracts/modules/Storage.sol\":2211:2726  [... */\n  0x20\n    /* \"@openzeppelin/contracts/security/ReentrancyGuard.sol\":1821:1843  _status = _NOT_ENTERED */\n  0x00\n    /* \"contracts/modules/Storage.sol\":292:27896  contract Storage is ReentrancyGuard {... */\n  keccak256\n  swap1\n    /* \"@openzeppelin/contracts/security/ReentrancyGuard.sol\":1821:1843  _status = _NOT_ENTERED */\n  0x00\n    /* \"contracts/modules/Storage.sol\":292:27896  contract Storage is ReentrancyGuard {... */\ntag_22:\n    /* \"contracts/modules/Storage.sol\":7111:7181  [ 100e18, 200e18, 400e18, 800e18, 1600e18, 3200e18, 6400e18, 12800e18] */\n  0x08\n    /* \"contracts/modules/Storage.sol\":292:27896  contract Storage is ReentrancyGuard {... */\n  dup2\n  lt\n  tag_23\n  jumpi\n  tag_25\n  tag_1\n  jump\t// in\ntag_25:\n    /* \"contracts/modules/Storage.sol\":7222:7223  3 */\n  0x03\n    /* \"contracts/modules/Storage.sol\":292:27896  contract Storage is ReentrancyGuard {... */\n  dup2\n  mstore\n  0x05\n    /* \"contracts/modules/Storage.sol\":2211:2726  [... */\n  0x20\n    /* \"contracts/modules/Storage.sol\":7221:7245  [3, 5, 7, 9, 11, 13, 15] */\n  dup3\n  add\n    /* \"contracts/modules/Storage.sol\":292:27896  contract Storage is ReentrancyGuard {... */\n  mstore\n    /* \"contracts/modules/Storage.sol\":7005:7069  [75e18, 300e18, 1200e18, 4800e18, 19200e18, 76800e18, 307200e18] */\n  0x07\n    /* \"contracts/modules/Storage.sol\":292:27896  contract Storage is ReentrancyGuard {... */\n  0x40\n    /* \"contracts/modules/Storage.sol\":7221:7245  [3, 5, 7, 9, 11, 13, 15] */\n  dup3\n  add\n    /* \"contracts/modules/Storage.sol\":292:27896  contract Storage is ReentrancyGuard {... */\n  mstore\n    /* \"contracts/modules/Storage.sol\":7231:7232  9 */\n  0x09\n    /* \"contracts/modules/Storage.sol\":2211:2726  [... */\n  0x60\n    /* \"contracts/modules/Storage.sol\":7221:7245  [3, 5, 7, 9, 11, 13, 15] */\n  dup3\n  add\n    /* \"contracts/modules/Storage.sol\":292:27896  contract Storage is ReentrancyGuard {... */\n  mstore\n    /* \"contracts/modules/Storage.sol\":7234:7236  11 */\n  0x0b\n    /* \"contracts/modules/Storage.sol\":2211:2726  [... */\n  0x80\n    /* \"contracts/modules/Storage.sol\":7221:7245  [3, 5, 7, 9, 11, 13, 15] */\n  dup3\n  add\n    /* \"contracts/modules/Storage.sol\":292:27896  contract Storage is ReentrancyGuard {... */\n  mstore\n    /* \"contracts/modules/Storage.sol\":2211:2726  [... */\n  0x0d\n  0xa0\n    /* \"contracts/modules/Storage.sol\":7221:7245  [3, 5, 7, 9, 11, 13, 15] */\n  dup3\n  add\n    /* \"contracts/modules/Storage.sol\":292:27896  contract Storage is ReentrancyGuard {... */\n  mstore\n    /* \"contracts/modules/Storage.sol\":2211:2726  [... */\n  0x0f\n  0xc0\n    /* \"contracts/modules/Storage.sol\":7221:7245  [3, 5, 7, 9, 11, 13, 15] */\n  dup3\n  add\n    /* \"contracts/modules/Storage.sol\":292:27896  contract Storage is ReentrancyGuard {... */\n  mstore\n    /* \"@openzeppelin/contracts/security/ReentrancyGuard.sol\":1821:1843  _status = _NOT_ENTERED */\n  0x00\n    /* \"contracts/modules/Storage.sol\":292:27896  contract Storage is ReentrancyGuard {... */\ntag_26:\n    /* \"contracts/modules/Storage.sol\":7005:7069  [75e18, 300e18, 1200e18, 4800e18, 19200e18, 76800e18, 307200e18] */\n  0x07\n    /* \"contracts/modules/Storage.sol\":292:27896  contract Storage is ReentrancyGuard {... */\n  dup2\n  lt\n  tag_27\n  jumpi\n  tag_29\n  tag_2\n  jump\t// in\ntag_29:\n    /* \"contracts/modules/Storage.sol\":7292:7293  4 */\n  0x04\n    /* \"contracts/modules/Storage.sol\":292:27896  contract Storage is ReentrancyGuard {... */\n  dup2\n  mstore\n  0x05\n    /* \"contracts/modules/Storage.sol\":2211:2726  [... */\n  0x20\n    /* \"contracts/modules/Storage.sol\":7291:7316  [4, 5, 6, 7, 8, 9, 10,11] */\n  dup3\n  add\n    /* \"contracts/modules/Storage.sol\":292:27896  contract Storage is ReentrancyGuard {... */\n  mstore\n    /* \"contracts/modules/Storage.sol\":7298:7299  6 */\n  0x06\n    /* \"contracts/modules/Storage.sol\":292:27896  contract Storage is ReentrancyGuard {... */\n  0x40\n    /* \"contracts/modules/Storage.sol\":7291:7316  [4, 5, 6, 7, 8, 9, 10,11] */\n  dup3\n  add\n    /* \"contracts/modules/Storage.sol\":292:27896  contract Storage is ReentrancyGuard {... */\n  mstore\n    /* \"contracts/modules/Storage.sol\":7005:7069  [75e18, 300e18, 1200e18, 4800e18, 19200e18, 76800e18, 307200e18] */\n  0x07\n    /* \"contracts/modules/Storage.sol\":2211:2726  [... */\n  0x60\n    /* \"contracts/modules/Storage.sol\":7291:7316  [4, 5, 6, 7, 8, 9, 10,11] */\n  dup3\n  add\n    /* \"contracts/modules/Storage.sol\":292:27896  contract Storage is ReentrancyGuard {... */\n  mstore\n    /* \"contracts/modules/Storage.sol\":7111:7181  [ 100e18, 200e18, 400e18, 800e18, 1600e18, 3200e18, 6400e18, 12800e18] */\n  0x08\n    /* \"contracts/modules/Storage.sol\":2211:2726  [... */\n  0x80\n    /* \"contracts/modules/Storage.sol\":7291:7316  [4, 5, 6, 7, 8, 9, 10,11] */\n  dup3\n  add\n    /* \"contracts/modules/Storage.sol\":292:27896  contract Storage is ReentrancyGuard {... */\n  mstore\n    /* \"contracts/modules/Storage.sol\":7231:7232  9 */\n  0x09\n    /* \"contracts/modules/Storage.sol\":2211:2726  [... */\n  0xa0\n    /* \"contracts/modules/Storage.sol\":7291:7316  [4, 5, 6, 7, 8, 9, 10,11] */\n  dup3\n  add\n    /* \"contracts/modules/Storage.sol\":292:27896  contract Storage is ReentrancyGuard {... */\n  mstore\n    /* \"contracts/modules/Storage.sol\":7310:7312  10 */\n  0x0a\n    /* \"contracts/modules/Storage.sol\":2211:2726  [... */\n  0xc0\n    /* \"contracts/modules/Storage.sol\":7291:7316  [4, 5, 6, 7, 8, 9, 10,11] */\n  dup3\n  add\n    /* \"contracts/modules/Storage.sol\":292:27896  contract Storage is ReentrancyGuard {... */\n  mstore\n    /* \"contracts/modules/Storage.sol\":7234:7236  11 */\n  0x0b\n    /* \"contracts/modules/Storage.sol\":2211:2726  [... */\n  0xe0\n    /* \"contracts/modules/Storage.sol\":7291:7316  [4, 5, 6, 7, 8, 9, 10,11] */\n  dup3\n  add\n    /* \"contracts/modules/Storage.sol\":292:27896  contract Storage is ReentrancyGuard {... */\n  mstore\n    /* \"@openzeppelin/contracts/security/ReentrancyGuard.sol\":1821:1843  _status = _NOT_ENTERED */\n  0x00\n    /* \"contracts/modules/Storage.sol\":292:27896  contract Storage is ReentrancyGuard {... */\ntag_30:\n    /* \"contracts/modules/Storage.sol\":7111:7181  [ 100e18, 200e18, 400e18, 800e18, 1600e18, 3200e18, 6400e18, 12800e18] */\n  0x08\n    /* \"contracts/modules/Storage.sol\":292:27896  contract Storage is ReentrancyGuard {... */\n  dup2\n  lt\n  tag_31\n  jumpi\n  tag_33\n  tag_2\n  jump\t// in\ntag_33:\n    /* \"@openzeppelin/contracts/security/ReentrancyGuard.sol\":1821:1843  _status = _NOT_ENTERED */\n  0x00\n    /* \"contracts/modules/Storage.sol\":292:27896  contract Storage is ReentrancyGuard {... */\n  dup2\n  mstore\n    /* \"@openzeppelin/contracts/security/ReentrancyGuard.sol\":1716:1717  1 */\n  0x01\n    /* \"contracts/modules/Storage.sol\":2211:2726  [... */\n  0x20\n    /* \"contracts/modules/Storage.sol\":7361:7384  [0, 1, 1, 1, 1, 1, 1,1] */\n  dup3\n  add\n    /* \"contracts/modules/Storage.sol\":292:27896  contract Storage is ReentrancyGuard {... */\n  mstore\n    /* \"@openzeppelin/contracts/security/ReentrancyGuard.sol\":1716:1717  1 */\n  0x01\n    /* \"contracts/modules/Storage.sol\":292:27896  contract Storage is ReentrancyGuard {... */\n  0x40\n    /* \"contracts/modules/Storage.sol\":7361:7384  [0, 1, 1, 1, 1, 1, 1,1] */\n  dup3\n  add\n    /* \"contracts/modules/Storage.sol\":292:27896  contract Storage is ReentrancyGuard {... */\n  mstore\n    /* \"@openzeppelin/contracts/security/ReentrancyGuard.sol\":1716:1717  1 */\n  0x01\n    /* \"contracts/modules/Storage.sol\":2211:2726  [... */\n  0x60\n    /* \"contracts/modules/Storage.sol\":7361:7384  [0, 1, 1, 1, 1, 1, 1,1] */\n  dup3\n  add\n    /* \"contracts/modules/Storage.sol\":292:27896  contract Storage is ReentrancyGuard {... */\n  mstore\n    /* \"@openzeppelin/contracts/security/ReentrancyGuard.sol\":1716:1717  1 */\n  0x01\n    /* \"contracts/modules/Storage.sol\":2211:2726  [... */\n  0x80\n    /* \"contracts/modules/Storage.sol\":7361:7384  [0, 1, 1, 1, 1, 1, 1,1] */\n  dup3\n  add\n    /* \"contracts/modules/Storage.sol\":292:27896  contract Storage is ReentrancyGuard {... */\n  mstore\n    /* \"@openzeppelin/contracts/security/ReentrancyGuard.sol\":1716:1717  1 */\n  0x01\n    /* \"contracts/modules/Storage.sol\":2211:2726  [... */\n  0xa0\n    /* \"contracts/modules/Storage.sol\":7361:7384  [0, 1, 1, 1, 1, 1, 1,1] */\n  dup3\n  add\n    /* \"contracts/modules/Storage.sol\":292:27896  contract Storage is ReentrancyGuard {... */\n  mstore\n    /* \"@openzeppelin/contracts/security/ReentrancyGuard.sol\":1716:1717  1 */\n  0x01\n    /* \"contracts/modules/Storage.sol\":2211:2726  [... */\n  0xc0\n    /* \"contracts/modules/Storage.sol\":7361:7384  [0, 1, 1, 1, 1, 1, 1,1] */\n  dup3\n  add\n    /* \"contracts/modules/Storage.sol\":292:27896  contract Storage is ReentrancyGuard {... */\n  mstore\n    /* \"@openzeppelin/contracts/security/ReentrancyGuard.sol\":1716:1717  1 */\n  0x01\n    /* \"contracts/modules/Storage.sol\":2211:2726  [... */\n  0xe0\n    /* \"contracts/modules/Storage.sol\":7361:7384  [0, 1, 1, 1, 1, 1, 1,1] */\n  dup3\n  add\n    /* \"contracts/modules/Storage.sol\":292:27896  contract Storage is ReentrancyGuard {... */\n  mstore\n    /* \"@openzeppelin/contracts/security/ReentrancyGuard.sol\":1821:1843  _status = _NOT_ENTERED */\n  0x00\n    /* \"contracts/modules/Storage.sol\":292:27896  contract Storage is ReentrancyGuard {... */\ntag_34:\n    /* \"contracts/modules/Storage.sol\":7111:7181  [ 100e18, 200e18, 400e18, 800e18, 1600e18, 3200e18, 6400e18, 12800e18] */\n  0x08\n    /* \"contracts/modules/Storage.sol\":292:27896  contract Storage is ReentrancyGuard {... */\n  dup2\n  lt\n  tag_35\n  jumpi\n    /* \"@openzeppelin/contracts/security/ReentrancyGuard.sol\":1821:1843  _status = _NOT_ENTERED */\n  0x00\n    /* \"contracts/modules/Storage.sol\":8893:8894  0 */\n  0x39\n    /* \"contracts/modules/Storage.sol\":292:27896  contract Storage is ReentrancyGuard {... */\n  sstore\n    /* \"@openzeppelin/contracts/security/ReentrancyGuard.sol\":1821:1843  _status = _NOT_ENTERED */\n  0x00\n    /* \"contracts/modules/Storage.sol\":8938:8939  0 */\n  0x3a\n    /* \"contracts/modules/Storage.sol\":292:27896  contract Storage is ReentrancyGuard {... */\n  sstore\n    /* \"@openzeppelin/contracts/security/ReentrancyGuard.sol\":1821:1843  _status = _NOT_ENTERED */\n  0x00\n    /* \"contracts/modules/Storage.sol\":8980:8981  0 */\n  0x3b\n    /* \"contracts/modules/Storage.sol\":292:27896  contract Storage is ReentrancyGuard {... */\n  sstore\n    /* \"@openzeppelin/contracts/security/ReentrancyGuard.sol\":1716:1717  1 */\n  0x01\n    /* \"contracts/modules/Storage.sol\":292:27896  contract Storage is ReentrancyGuard {... */\n  0x40\n  sstore\n    /* \"@openzeppelin/contracts/security/ReentrancyGuard.sol\":1821:1843  _status = _NOT_ENTERED */\n  0x00\n    /* \"contracts/modules/Storage.sol\":10389:10390  0 */\n  0x41\n    /* \"contracts/modules/Storage.sol\":292:27896  contract Storage is ReentrancyGuard {... */\n  sstore\n    /* \"@openzeppelin/contracts/security/ReentrancyGuard.sol\":1821:1843  _status = _NOT_ENTERED */\n  0x00\n    /* \"contracts/modules/Storage.sol\":10430:10431  0 */\n  0x42\n    /* \"contracts/modules/Storage.sol\":292:27896  contract Storage is ReentrancyGuard {... */\n  sstore\n    /* \"@openzeppelin/contracts/security/ReentrancyGuard.sol\":1716:1717  1 */\n  0x01\n    /* \"contracts/modules/Storage.sol\":11650:11651  1 */\n  0x47\n    /* \"contracts/modules/Storage.sol\":292:27896  contract Storage is ReentrancyGuard {... */\n  sstore\n    /* \"@openzeppelin/contracts/security/ReentrancyGuard.sol\":1821:1843  _status = _NOT_ENTERED */\n  0x00\n    /* \"contracts/modules/Storage.sol\":11692:11693  0 */\n  0x48\n    /* \"contracts/modules/Storage.sol\":292:27896  contract Storage is ReentrancyGuard {... */\n  sstore\n    /* \"@openzeppelin/contracts/security/ReentrancyGuard.sol\":1821:1843  _status = _NOT_ENTERED */\n  0x00\n    /* \"contracts/modules/Storage.sol\":11731:11732  0 */\n  0x49\n    /* \"contracts/modules/Storage.sol\":292:27896  contract Storage is ReentrancyGuard {... */\n  sstore\n  mload(0x40)\n  dataSize(sub_0)\n  swap1\n  dup2\n  dataOffset(sub_0)\n  dup3\n  codecopy\n  return\ntag_35:\n    /* \"@openzeppelin/contracts/security/ReentrancyGuard.sol\":1716:1717  1 */\n  0x01\n    /* \"contracts/modules/Storage.sol\":292:27896  contract Storage is ReentrancyGuard {... */\n  swap1\n    /* \"contracts/modules/Storage.sol\":2211:2726  [... */\n  0x20\n    /* \"contracts/modules/Storage.sol\":292:27896  contract Storage is ReentrancyGuard {... */\n  0xff\n  dup5\n  mload\n  and\n  swap4\n  add\n  swap3\n  dup2\n    /* \"contracts/modules/Storage.sol\":7361:7384  [0, 1, 1, 1, 1, 1, 1,1] */\n  0x27\n    /* \"contracts/modules/Storage.sol\":292:27896  contract Storage is ReentrancyGuard {... */\n  add\n  sstore\n  add\n  jump(tag_34)\ntag_31:\n    /* \"@openzeppelin/contracts/security/ReentrancyGuard.sol\":1716:1717  1 */\n  0x01\n    /* \"contracts/modules/Storage.sol\":292:27896  contract Storage is ReentrancyGuard {... */\n  swap1\n    /* \"contracts/modules/Storage.sol\":2211:2726  [... */\n  0x20\n    /* \"contracts/modules/Storage.sol\":292:27896  contract Storage is ReentrancyGuard {... */\n  0xff\n  dup5\n  mload\n  and\n  swap4\n  add\n  swap3\n  dup2\n  0x1f\n  add\n  sstore\n  add\n  jump(tag_30)\ntag_27:\n    /* \"@openzeppelin/contracts/security/ReentrancyGuard.sol\":1716:1717  1 */\n  0x01\n    /* \"contracts/modules/Storage.sol\":292:27896  contract Storage is ReentrancyGuard {... */\n  swap1\n    /* \"contracts/modules/Storage.sol\":2211:2726  [... */\n  0x20\n    /* \"contracts/modules/Storage.sol\":292:27896  contract Storage is ReentrancyGuard {... */\n  0xff\n  dup5\n  mload\n  and\n  swap4\n  add\n  swap3\n  dup2\n    /* \"contracts/modules/Storage.sol\":7221:7245  [3, 5, 7, 9, 11, 13, 15] */\n  0x18\n    /* \"contracts/modules/Storage.sol\":292:27896  contract Storage is ReentrancyGuard {... */\n  add\n  sstore\n  add\n  jump(tag_26)\ntag_23:\n  dup2\n  mload\n  sub(shl(0x50, 0x01), 0x01)\n  and\n  dup2\n  dup5\n  add\n  sstore\n    /* \"contracts/modules/Storage.sol\":2211:2726  [... */\n  0x20\n    /* \"contracts/modules/Storage.sol\":292:27896  contract Storage is ReentrancyGuard {... */\n  swap1\n  swap2\n  add\n  swap1\n    /* \"@openzeppelin/contracts/security/ReentrancyGuard.sol\":1716:1717  1 */\n  0x01\n    /* \"contracts/modules/Storage.sol\":292:27896  contract Storage is ReentrancyGuard {... */\n  add\n  jump(tag_22)\ntag_20:\n    /* \"contracts/modules/Storage.sol\":7111:7181  [ 100e18, 200e18, 400e18, 800e18, 1600e18, 3200e18, 6400e18, 12800e18] */\n  0x17\n    /* \"@openzeppelin/contracts/security/ReentrancyGuard.sol\":1821:1843  _status = _NOT_ENTERED */\n  0x00\n    /* \"contracts/modules/Storage.sol\":292:27896  contract Storage is ReentrancyGuard {... */\n  mstore\n  tag_37\n  swap1\n  0xc624b66cc0138b8fabc209247f72d758e1cf3343756d543badbf24212bed8c15\n  add\n  0xc624b66cc0138b8fabc209247f72d758e1cf3343756d543badbf24212bed8c1d\n  tag_3\n  jump\t// in\ntag_37:\n  dup2\n  jump(tag_21)\ntag_17:\n  dup2\n  mload\n  sub(shl(0x50, 0x01), 0x01)\n  and\n  dup2\n  dup5\n  add\n  sstore\n    /* \"contracts/modules/Storage.sol\":2211:2726  [... */\n  0x20\n    /* \"contracts/modules/Storage.sol\":292:27896  contract Storage is ReentrancyGuard {... */\n  swap1\n  swap2\n  add\n  swap1\n    /* \"@openzeppelin/contracts/security/ReentrancyGuard.sol\":1716:1717  1 */\n  0x01\n    /* \"contracts/modules/Storage.sol\":292:27896  contract Storage is ReentrancyGuard {... */\n  add\n  jump(tag_16)\ntag_14:\n    /* \"contracts/modules/Storage.sol\":7005:7069  [75e18, 300e18, 1200e18, 4800e18, 19200e18, 76800e18, 307200e18] */\n  0x16\n    /* \"@openzeppelin/contracts/security/ReentrancyGuard.sol\":1821:1843  _status = _NOT_ENTERED */\n  0x00\n    /* \"contracts/modules/Storage.sol\":292:27896  contract Storage is ReentrancyGuard {... */\n  mstore\n  tag_38\n  swap1\n  0xd833147d7dc355ba459fc788f669e58cfaf9dc25ddcd0702e87d69c7b5124289\n  add\n  0xd833147d7dc355ba459fc788f669e58cfaf9dc25ddcd0702e87d69c7b5124290\n  tag_3\n  jump\t// in\ntag_38:\n  dup2\n  jump(tag_15)\ntag_11:\n  dup2\n  mload\n  sub(shl(0x50, 0x01), 0x01)\n  and\n  dup2\n  dup5\n  add\n  sstore\n    /* \"contracts/modules/Storage.sol\":2211:2726  [... */\n  0x20\n    /* \"contracts/modules/Storage.sol\":292:27896  contract Storage is ReentrancyGuard {... */\n  swap1\n  swap2\n  add\n  swap1\n    /* \"@openzeppelin/contracts/security/ReentrancyGuard.sol\":1716:1717  1 */\n  0x01\n    /* \"contracts/modules/Storage.sol\":292:27896  contract Storage is ReentrancyGuard {... */\n  add\n  jump(tag_10)\ntag_8:\n    /* \"contracts/modules/Storage.sol\":2211:2726  [... */\n  0x0d\n    /* \"@openzeppelin/contracts/security/ReentrancyGuard.sol\":1821:1843  _status = _NOT_ENTERED */\n  0x00\n    /* \"contracts/modules/Storage.sol\":292:27896  contract Storage is ReentrancyGuard {... */\n  mstore\n  tag_39\n  swap1\n  0xd7b6990105719101dabeb77144f2a3385c8033acd3af97e9423a695e81ad1eb5\n  add\n  0xd7b6990105719101dabeb77144f2a3385c8033acd3af97e9423a695e81ad1ec4\n  tag_3\n  jump\t// in\ntag_39:\n  0x00\n  jump(tag_9)\ntag_6:\n  shl(0xe0, 0x4e487b71)\n    /* \"@openzeppelin/contracts/security/ReentrancyGuard.sol\":1821:1843  _status = _NOT_ENTERED */\n  0x00\n    /* \"contracts/modules/Storage.sol\":292:27896  contract Storage is ReentrancyGuard {... */\n  mstore\n  mstore(0x04, 0x41)\n  0x24\n    /* \"@openzeppelin/contracts/security/ReentrancyGuard.sol\":1821:1843  _status = _NOT_ENTERED */\n  0x00\n    /* \"contracts/modules/Storage.sol\":292:27896  contract Storage is ReentrancyGuard {... */\n  revert\ntag_4:\n  0x00\n  dup1\n  revert\ntag_1:\n  mload(0x40)\n  swap1\n  0xe0\n  dup3\n  add\n  sub(shl(0x40, 0x01), 0x01)\n  dup2\n  gt\n  dup4\n  dup3\n  lt\n  or\n  tag_6\n  jumpi\n  0x40\n  mstore\n  jump\t// out\ntag_2:\n  mload(0x40)\n  swap1\n  0x0100\n  dup3\n  add\n  sub(shl(0x40, 0x01), 0x01)\n  dup2\n  gt\n  dup4\n  dup3\n  lt\n  or\n  tag_6\n  jumpi\n  0x40\n  mstore\n  jump\t// out\ntag_3:\n  dup2\n  dup2\n  lt\n  tag_45\n  jumpi\n  pop\n  pop\n  jump\t// out\ntag_45:\n  0x00\n  dup2\n  sstore\n  0x01\n  add\n  jump(tag_3)\nstop\n\nsub_0: assembly {\n        /* \"contracts/modules/Storage.sol\":292:27896  contract Storage is ReentrancyGuard {... */\n      0x01a0\n      dup1\n      0x40\n      mstore\n      jumpi(tag_10, iszero(lt(calldatasize, 0x04)))\n      0x00\n      dup1\n      revert\n    tag_10:\n      shr(0xe0, calldataload(0x00))\n      swap1\n      dup2\n      0x54815d\n      eq\n      tag_12\n      jumpi\n      pop\n      dup1\n      0x01c234a8\n      eq\n      tag_14\n      jumpi\n      dup1\n      0x056b4d1f\n      eq\n      tag_16\n      jumpi\n      dup1\n      0x0676d0d6\n      eq\n      tag_18\n      jumpi\n      dup1\n      0x0a5c5d69\n      eq\n      tag_20\n      jumpi\n      dup1\n      0x0ef81b74\n      eq\n      tag_22\n      jumpi\n      dup1\n      0x0f2b7cc9\n      eq\n      tag_24\n      jumpi\n      dup1\n      0x2132d204\n      eq\n      tag_26\n      jumpi\n      dup1\n      0x2350268f\n      eq\n      tag_28\n      jumpi\n      dup1\n      0x23fd338e\n      eq\n      tag_68\n      jumpi\n      dup1\n      0x2a891534\n      eq\n      tag_32\n      jumpi\n      dup1\n      0x2ae0ee0d\n      eq\n      tag_50\n      jumpi\n      dup1\n      0x2d66014f\n      eq\n      tag_36\n      jumpi\n      dup1\n      0x2f48ab7d\n      eq\n      tag_38\n      jumpi\n      dup1\n      0x3080b5bc\n      eq\n      tag_40\n      jumpi\n      dup1\n      0x31bb6a30\n      eq\n      tag_42\n      jumpi\n      dup1\n      0x32bc298c\n      eq\n      tag_44\n      jumpi\n      dup1\n      0x32fcd966\n      eq\n      tag_46\n      jumpi\n      dup1\n      0x365b98b2\n      eq\n      tag_48\n      jumpi\n      dup1\n      0x375b43b4\n      eq\n      tag_50\n      jumpi\n      dup1\n      0x39ab3603\n      eq\n      tag_52\n      jumpi\n      dup1\n      0x3a5084b3\n      eq\n      tag_54\n      jumpi\n      dup1\n      0x4036436c\n      eq\n      tag_56\n      jumpi\n      dup1\n      0x45cb537c\n      eq\n      tag_58\n      jumpi\n      dup1\n      0x46b9dece\n      eq\n      tag_60\n      jumpi\n      dup1\n      0x4b8cbf9b\n      eq\n      tag_62\n      jumpi\n      dup1\n      0x4d12ae0f\n      eq\n      tag_64\n      jumpi\n      dup1\n      0x4d4cc5ca\n      eq\n      tag_66\n      jumpi\n      dup1\n      0x58c7d352\n      eq\n      tag_68\n      jumpi\n      dup1\n      0x5aabf7f1\n      eq\n      tag_70\n      jumpi\n      dup1\n      0x5b58ce6c\n      eq\n      tag_72\n      jumpi\n      dup1\n      0x5b62d1d5\n      eq\n      tag_74\n      jumpi\n      dup1\n      0x5ec64a44\n      eq\n      tag_76\n      jumpi\n      dup1\n      0x6a424782\n      eq\n      tag_78\n      jumpi\n      dup1\n      0x705fee2d\n      eq\n      tag_80\n      jumpi\n      dup1\n      0x70c8d770\n      eq\n      tag_82\n      jumpi\n      dup1\n      0x76f5f700\n      eq\n      tag_84\n      jumpi\n      dup1\n      0x78f6ad6d\n      eq\n      tag_86\n      jumpi\n      dup1\n      0x7cdc65f2\n      eq\n      tag_88\n      jumpi\n      dup1\n      0x88afbe3e\n      eq\n      tag_90\n      jumpi\n      dup1\n      0x89043ece\n      eq\n      tag_92\n      jumpi\n      dup1\n      0x8d58644c\n      eq\n      tag_94\n      jumpi\n      dup1\n      0x8f030ece\n      eq\n      tag_96\n      jumpi\n      dup1\n      0x907c84a7\n      eq\n      tag_98\n      jumpi\n      dup1\n      0x956a3228\n      eq\n      tag_100\n      jumpi\n      dup1\n      0x9b40ab97\n      eq\n      tag_102\n      jumpi\n      dup1\n      0x9c383486\n      eq\n      tag_104\n      jumpi\n      dup1\n      0xa59d17d1\n      eq\n      tag_106\n      jumpi\n      dup1\n      0xa5e52b99\n      eq\n      tag_108\n      jumpi\n      dup1\n      0xae4708dc\n      eq\n      tag_110\n      jumpi\n      dup1\n      0xbd1aae40\n      eq\n      tag_112\n      jumpi\n      dup1\n      0xbf724672\n      eq\n      tag_114\n      jumpi\n      dup1\n      0xbff1f9e1\n      eq\n      tag_116\n      jumpi\n      dup1\n      0xc216212a\n      eq\n      tag_118\n      jumpi\n      dup1\n      0xc4eb42a5\n      eq\n      tag_120\n      jumpi\n      dup1\n      0xc7bb62e8\n      eq\n      tag_122\n      jumpi\n      dup1\n      0xc8df2908\n      eq\n      tag_124\n      jumpi\n      dup1\n      0xc9ed0708\n      eq\n      tag_126\n      jumpi\n      dup1\n      0xca8e9121\n      eq\n      tag_128\n      jumpi\n      dup1\n      0xcb0e0d7d\n      eq\n      tag_130\n      jumpi\n      dup1\n      0xce79c2c3\n      eq\n      tag_132\n      jumpi\n      dup1\n      0xd0a2fd79\n      eq\n      tag_134\n      jumpi\n      dup1\n      0xd2f0490d\n      eq\n      tag_136\n      jumpi\n      dup1\n      0xdb27cc71\n      eq\n      tag_138\n      jumpi\n      dup1\n      0xe898fc38\n      eq\n      tag_140\n      jumpi\n      dup1\n      0xe9e34a16\n      eq\n      tag_142\n      jumpi\n      dup1\n      0xebe0ff15\n      eq\n      tag_144\n      jumpi\n      dup1\n      0xec597e6f\n      eq\n      tag_146\n      jumpi\n      dup1\n      0xf5748c4f\n      eq\n      tag_148\n      jumpi\n      dup1\n      0xf5d74d93\n      eq\n      tag_150\n      jumpi\n      dup1\n      0xf7a24806\n      eq\n      tag_152\n      jumpi\n      0xfddc806f\n      eq\n      tag_154\n      jumpi\n      0x00\n      dup1\n      revert\n    tag_154:\n      jumpi(tag_158, callvalue)\n      jumpi(tag_158, slt(add(not(0x03), calldatasize), 0x00))\n      0x20\n        /* \"contracts/modules/Storage.sol\":8901:8939  uint public currentWeeklyStartTime = 0 */\n      0x3a\n        /* \"contracts/modules/Storage.sol\":292:27896  contract Storage is ReentrancyGuard {... */\n      sload\n      mload(0x40)\n      swap1\n      dup2\n      mstore\n      return\n    tag_158:\n      0x00\n      dup1\n      revert\n    tag_152:\n      jumpi(tag_158, callvalue)\n      tag_162\n      calldatasize\n      tag_1\n      jump\t// in\n    tag_162:\n      swap1\n      0x00\n      mstore\n        /* \"contracts/modules/Storage.sol\":11152:11201  mapping(uint => uint[]) public monthlyUserDirects */\n      0x46\n        /* \"contracts/modules/Storage.sol\":292:27896  contract Storage is ReentrancyGuard {... */\n      0x20\n      mstore\n      keccak256(0x00, 0x40)\n      dup1\n      sload\n        /* \"contracts/modules/Storage.sol\":11152:11201  mapping(uint => uint[]) public monthlyUserDirects */\n      dup3\n      lt\n      iszero\n      tag_158\n      jumpi\n        /* \"contracts/modules/Storage.sol\":292:27896  contract Storage is ReentrancyGuard {... */\n      0x20\n        /* \"contracts/modules/Storage.sol\":11152:11201  mapping(uint => uint[]) public monthlyUserDirects */\n      swap2\n      tag_165\n      swap2\n      tag_4\n      jump\t// in\n    tag_165:\n        /* \"contracts/modules/Storage.sol\":292:27896  contract Storage is ReentrancyGuard {... */\n      swap1\n      sload\n      swap1\n      0x03\n      shl\n      shr\n      mload(0x40)\n      swap1\n      dup2\n      mstore\n      return\n    tag_150:\n      jumpi(tag_158, callvalue)\n      jumpi(tag_158, slt(add(not(0x03), calldatasize), 0x00))\n      sload(0x04)\n      mload(0x40)\n      sub(shl(0xa0, 0x01), 0x01)\n      swap1\n      swap2\n      and\n      dup2\n      mstore\n      0x20\n      swap1\n      return\n    tag_148:\n      jumpi(tag_158, callvalue)\n      jumpi(tag_158, slt(add(not(0x03), calldatasize), 0x20))\n      calldataload(0x04)\n        /* \"contracts/modules/Storage.sol\":12294:12332  uint[] public topRoyaltyQualifiedUsers */\n      0x4b\n        /* \"contracts/modules/Storage.sol\":292:27896  contract Storage is ReentrancyGuard {... */\n      sload\n        /* \"contracts/modules/Storage.sol\":12294:12332  uint[] public topRoyaltyQualifiedUsers */\n      dup2\n      lt\n      iszero\n      tag_158\n      jumpi\n      0x4b\n        /* \"contracts/modules/Storage.sol\":292:27896  contract Storage is ReentrancyGuard {... */\n      sload\n      dup2\n      lt\n      iszero\n      tag_176\n      jumpi\n        /* \"contracts/modules/Storage.sol\":12294:12332  uint[] public topRoyaltyQualifiedUsers */\n      0x4b\n        /* \"contracts/modules/Storage.sol\":292:27896  contract Storage is ReentrancyGuard {... */\n      0x00\n      mstore\n      0x17b0af156a929edf60c351f3df2d53ed643fdd750aef9eda90dc7c8759a104a8\n      add\n      sload\n      mload(0x40)\n      swap1\n      dup2\n      mstore\n      0x20\n      swap1\n      return\n    tag_176:\n      mstore(0x00, shl(0xe0, 0x4e487b71))\n      mstore(0x04, 0x32)\n      revert(0x00, 0x24)\n    tag_146:\n      jumpi(tag_158, callvalue)\n      jumpi(tag_158, slt(add(not(0x03), calldatasize), 0x00))\n      0x20\n        /* \"contracts/modules/Storage.sol\":534:558  uint public defaultRefId */\n      0x05\n        /* \"contracts/modules/Storage.sol\":292:27896  contract Storage is ReentrancyGuard {... */\n      sload\n      mload(0x40)\n      swap1\n      dup2\n      mstore\n      return\n    tag_144:\n      jumpi(tag_158, callvalue)\n      jumpi(tag_158, slt(add(not(0x03), calldatasize), 0x00))\n      0x20\n      mload(0x40)\n        /* \"contracts/modules/Storage.sol\":8841:8848  1000e18 */\n      0x3635c9adc5dea00000\n        /* \"contracts/modules/Storage.sol\":292:27896  contract Storage is ReentrancyGuard {... */\n      dup2\n      mstore\n      return\n    tag_142:\n      jumpi(tag_158, callvalue)\n      jumpi(tag_158, slt(add(not(0x03), calldatasize), 0x00))\n        /* \"contracts/modules/Storage.sol\":460:490  address public systemMaintance */\n      0x03\n        /* \"contracts/modules/Storage.sol\":292:27896  contract Storage is ReentrancyGuard {... */\n      sload\n      mload(0x40)\n      sub(shl(0xa0, 0x01), 0x01)\n      swap1\n      swap2\n      and\n      dup2\n      mstore\n      0x20\n      swap1\n      return\n    tag_140:\n      jumpi(tag_158, callvalue)\n      jumpi(tag_158, slt(add(not(0x03), calldatasize), 0x00))\n      0x20\n        /* \"contracts/modules/Storage.sol\":10351:10390  uint public currentMonthlyStartTime = 0 */\n      0x41\n        /* \"contracts/modules/Storage.sol\":292:27896  contract Storage is ReentrancyGuard {... */\n      sload\n      mload(0x40)\n      swap1\n      dup2\n      mstore\n      return\n    tag_138:\n      jumpi(tag_158, callvalue)\n      jumpi(tag_158, slt(add(not(0x03), calldatasize), 0x20))\n      mstore(0x00, calldataload(0x04))\n        /* \"contracts/modules/Storage.sol\":12369:12425  mapping(uint => topRoyaltyUser) public topRoyaltyUserdtl */\n      0x4c\n        /* \"contracts/modules/Storage.sol\":292:27896  contract Storage is ReentrancyGuard {... */\n      0x20\n      mstore\n      keccak256(0x00, 0x40)\n      dup1\n      sload\n      tag_198\n      0x01\n        /* \"contracts/modules/Storage.sol\":12369:12425  mapping(uint => topRoyaltyUser) public topRoyaltyUserdtl */\n      dup4\n      add\n        /* \"contracts/modules/Storage.sol\":292:27896  contract Storage is ReentrancyGuard {... */\n      sload\n        /* \"contracts/modules/Storage.sol\":12369:12425  mapping(uint => topRoyaltyUser) public topRoyaltyUserdtl */\n      swap3\n        /* \"contracts/modules/Storage.sol\":292:27896  contract Storage is ReentrancyGuard {... */\n      0xff\n      0x04\n        /* \"contracts/modules/Storage.sol\":12369:12425  mapping(uint => topRoyaltyUser) public topRoyaltyUserdtl */\n      0x02\n      dup4\n      add\n        /* \"contracts/modules/Storage.sol\":292:27896  contract Storage is ReentrancyGuard {... */\n      sload\n        /* \"contracts/modules/Storage.sol\":12369:12425  mapping(uint => topRoyaltyUser) public topRoyaltyUserdtl */\n      swap3\n      add\n        /* \"contracts/modules/Storage.sol\":292:27896  contract Storage is ReentrancyGuard {... */\n      sload\n      and\n      swap1\n      mload(0x40)\n      swap5\n      dup6\n      swap5\n      dup6\n      swap3\n      0x60\n      swap3\n      swap6\n      swap5\n      swap2\n      swap6\n      0x80\n      dup6\n      add\n      swap7\n      dup6\n      mstore\n      0x20\n      dup6\n      add\n      mstore\n      0x40\n      dup5\n      add\n      mstore\n      iszero\n      iszero\n      swap2\n      add\n      mstore\n      jump\n    tag_198:\n      sub\n      swap1\n      return\n    tag_136:\n      jumpi(tag_158, callvalue)\n      jumpi(tag_158, slt(add(not(0x03), calldatasize), 0x00))\n      0x20\n      mload(0x40)\n        /* \"contracts/modules/Storage.sol\":1187:1188  5 */\n      0x05\n        /* \"contracts/modules/Storage.sol\":292:27896  contract Storage is ReentrancyGuard {... */\n      dup2\n      mstore\n      return\n    tag_134:\n      jumpi(tag_158, callvalue)\n      jumpi(tag_158, slt(add(not(0x03), calldatasize), 0x20))\n      calldataload(0x04)\n      0x08\n        /* \"contracts/modules/Storage.sol\":7252:7316  uint[8] public minLevelForGlbBooster = [4, 5, 6, 7, 8, 9, 10,11] */\n      dup2\n      lt\n      iszero\n      tag_158\n      jumpi\n        /* \"contracts/modules/Storage.sol\":292:27896  contract Storage is ReentrancyGuard {... */\n      0x20\n      swap1\n        /* \"contracts/modules/Storage.sol\":7252:7316  uint[8] public minLevelForGlbBooster = [4, 5, 6, 7, 8, 9, 10,11] */\n      0x1f\n        /* \"contracts/modules/Storage.sol\":292:27896  contract Storage is ReentrancyGuard {... */\n      add\n      sload\n      mload(0x40)\n      swap1\n      dup2\n      mstore\n      return\n    tag_132:\n      jumpi(tag_158, callvalue)\n      tag_211\n      calldatasize\n      tag_1\n      jump\t// in\n    tag_211:\n      swap1\n      0x00\n      mstore\n        /* \"contracts/modules/Storage.sol\":7977:8039  mapping(uint =>  mapping(uint => UserPool)) public userPooldtl */\n      0x30\n        /* \"contracts/modules/Storage.sol\":292:27896  contract Storage is ReentrancyGuard {... */\n      0x20\n      mstore\n      keccak256(0x00, 0x40)\n      swap1\n      0x00\n      mstore\n      0x20\n      mstore\n      keccak256(0x00, 0x40)\n      dup1\n      sload\n      tag_198\n        /* \"contracts/modules/Storage.sol\":7977:8039  mapping(uint =>  mapping(uint => UserPool)) public userPooldtl */\n      0x01\n      dup4\n      add\n        /* \"contracts/modules/Storage.sol\":292:27896  contract Storage is ReentrancyGuard {... */\n      sload\n        /* \"contracts/modules/Storage.sol\":7977:8039  mapping(uint =>  mapping(uint => UserPool)) public userPooldtl */\n      swap3\n      0x02\n      dup2\n      add\n        /* \"contracts/modules/Storage.sol\":292:27896  contract Storage is ReentrancyGuard {... */\n      sload\n        /* \"contracts/modules/Storage.sol\":7977:8039  mapping(uint =>  mapping(uint => UserPool)) public userPooldtl */\n      swap1\n        /* \"contracts/modules/Storage.sol\":292:27896  contract Storage is ReentrancyGuard {... */\n      0x04\n        /* \"contracts/modules/Storage.sol\":7977:8039  mapping(uint =>  mapping(uint => UserPool)) public userPooldtl */\n      0x03\n      dup3\n      add\n        /* \"contracts/modules/Storage.sol\":292:27896  contract Storage is ReentrancyGuard {... */\n      sload\n        /* \"contracts/modules/Storage.sol\":7977:8039  mapping(uint =>  mapping(uint => UserPool)) public userPooldtl */\n      swap2\n      add\n        /* \"contracts/modules/Storage.sol\":292:27896  contract Storage is ReentrancyGuard {... */\n      sload\n      swap2\n      mload(0x40)\n      swap6\n      dup7\n      swap6\n      dup7\n      swap2\n      swap3\n      0x80\n      swap4\n      swap7\n      swap6\n      swap5\n      swap2\n      swap7\n      0xa0\n      dup5\n      add\n      swap8\n      dup5\n      mstore\n      0x20\n      dup5\n      add\n      mstore\n      0x40\n      dup4\n      add\n      mstore\n      0x60\n      dup3\n      add\n      mstore\n      add\n      mstore\n      jump\n    tag_130:\n      jumpi(tag_158, callvalue)\n      jumpi(tag_158, slt(add(not(0x03), calldatasize), 0x20))\n      calldataload(0x04)\n      sub(shl(0xa0, 0x01), 0x01)\n      dup2\n      and\n      swap1\n      dup2\n      swap1\n      sub\n      tag_158\n      jumpi\n      0x00\n      mstore\n        /* \"contracts/modules/Storage.sol\":5506:5549  mapping(address => uint) public addressToId */\n      0x0f\n        /* \"contracts/modules/Storage.sol\":292:27896  contract Storage is ReentrancyGuard {... */\n      0x20\n      mstore\n      0x20\n      sload(keccak256(0x00, 0x40))\n      mload(0x40)\n      swap1\n      dup2\n      mstore\n      return\n    tag_128:\n      jumpi(tag_158, callvalue)\n      jumpi(tag_158, slt(add(not(0x03), calldatasize), 0x00))\n      0x20\n        /* \"contracts/modules/Storage.sol\":8860:8894  uint public currentWeeklyRound = 0 */\n      0x39\n        /* \"contracts/modules/Storage.sol\":292:27896  contract Storage is ReentrancyGuard {... */\n      sload\n      mload(0x40)\n      swap1\n      dup2\n      mstore\n      return\n    tag_126:\n      jumpi(tag_158, callvalue)\n      jumpi(tag_158, slt(add(not(0x03), calldatasize), 0x00))\n      0x20\n      sload(0x40)\n      mload(0x40)\n      swap1\n      dup2\n      mstore\n      return\n    tag_124:\n      jumpi(tag_158, callvalue)\n      jumpi(tag_158, slt(add(not(0x03), calldatasize), 0x00))\n      0x20\n      mload(0x40)\n        /* \"contracts/modules/Storage.sol\":10288:10296  10000e18 */\n      0x021e19e0c9bab2400000\n        /* \"contracts/modules/Storage.sol\":292:27896  contract Storage is ReentrancyGuard {... */\n      dup2\n      mstore\n      return\n    tag_122:\n      jumpi(tag_158, callvalue)\n      tag_233\n      calldatasize\n      tag_1\n      jump\t// in\n    tag_233:\n      swap1\n      0x00\n      mstore\n        /* \"contracts/modules/Storage.sol\":8568:8611  mapping(uint => uint[]) public boosterUsers */\n      0x37\n        /* \"contracts/modules/Storage.sol\":292:27896  contract Storage is ReentrancyGuard {... */\n      0x20\n      mstore\n      keccak256(0x00, 0x40)\n      dup1\n      sload\n        /* \"contracts/modules/Storage.sol\":8568:8611  mapping(uint => uint[]) public boosterUsers */\n      dup3\n      lt\n      iszero\n      tag_158\n      jumpi\n        /* \"contracts/modules/Storage.sol\":292:27896  contract Storage is ReentrancyGuard {... */\n      0x20\n        /* \"contracts/modules/Storage.sol\":8568:8611  mapping(uint => uint[]) public boosterUsers */\n      swap2\n      tag_165\n      swap2\n      tag_4\n      jump\t// in\n        /* \"contracts/modules/Storage.sol\":292:27896  contract Storage is ReentrancyGuard {... */\n    tag_120:\n      jumpi(tag_158, callvalue)\n      jumpi(tag_158, slt(add(not(0x03), calldatasize), 0x20))\n      mstore(0x00, calldataload(0x04))\n        /* \"contracts/modules/Storage.sol\":9437:9492  mapping (uint => WeeklyContest) public weeklyContestdtl */\n      0x3c\n        /* \"contracts/modules/Storage.sol\":292:27896  contract Storage is ReentrancyGuard {... */\n      0x20\n      mstore\n      keccak256(0x00, 0x40)\n      dup1\n      sload\n      tag_198\n      0x01\n        /* \"contracts/modules/Storage.sol\":9437:9492  mapping (uint => WeeklyContest) public weeklyContestdtl */\n      dup4\n      add\n        /* \"contracts/modules/Storage.sol\":292:27896  contract Storage is ReentrancyGuard {... */\n      sload\n        /* \"contracts/modules/Storage.sol\":9437:9492  mapping (uint => WeeklyContest) public weeklyContestdtl */\n      swap3\n      0x02\n      dup2\n      add\n        /* \"contracts/modules/Storage.sol\":292:27896  contract Storage is ReentrancyGuard {... */\n      sload\n        /* \"contracts/modules/Storage.sol\":9437:9492  mapping (uint => WeeklyContest) public weeklyContestdtl */\n      swap1\n      0x03\n      dup2\n      add\n        /* \"contracts/modules/Storage.sol\":292:27896  contract Storage is ReentrancyGuard {... */\n      sload\n      0x04\n        /* \"contracts/modules/Storage.sol\":9437:9492  mapping (uint => WeeklyContest) public weeklyContestdtl */\n      dup3\n      add\n        /* \"contracts/modules/Storage.sol\":292:27896  contract Storage is ReentrancyGuard {... */\n      sload\n        /* \"contracts/modules/Storage.sol\":9437:9492  mapping (uint => WeeklyContest) public weeklyContestdtl */\n      0x05\n      dup4\n      add\n        /* \"contracts/modules/Storage.sol\":292:27896  contract Storage is ReentrancyGuard {... */\n      sload\n        /* \"contracts/modules/Storage.sol\":9437:9492  mapping (uint => WeeklyContest) public weeklyContestdtl */\n      swap1\n      0x06\n      dup5\n      add\n        /* \"contracts/modules/Storage.sol\":292:27896  contract Storage is ReentrancyGuard {... */\n      sload\n        /* \"contracts/modules/Storage.sol\":9437:9492  mapping (uint => WeeklyContest) public weeklyContestdtl */\n      swap3\n        /* \"contracts/modules/Storage.sol\":292:27896  contract Storage is ReentrancyGuard {... */\n      0xff\n        /* \"contracts/modules/Storage.sol\":9437:9492  mapping (uint => WeeklyContest) public weeklyContestdtl */\n      0x08\n      0x07\n      dup8\n      add\n        /* \"contracts/modules/Storage.sol\":292:27896  contract Storage is ReentrancyGuard {... */\n      sload\n        /* \"contracts/modules/Storage.sol\":9437:9492  mapping (uint => WeeklyContest) public weeklyContestdtl */\n      swap7\n      add\n        /* \"contracts/modules/Storage.sol\":292:27896  contract Storage is ReentrancyGuard {... */\n      sload\n      and\n      swap6\n      mload(0x40)\n      swap10\n      dup11\n      swap10\n      dup11\n      tag_3\n      jump\t// in\n    tag_118:\n      jumpi(tag_158, callvalue)\n      jumpi(tag_158, slt(add(not(0x03), calldatasize), 0x20))\n      calldataload(0x04)\n        /* \"contracts/modules/Storage.sol\":2186:2726  uint[] public packages = [... */\n      0x0d\n        /* \"contracts/modules/Storage.sol\":292:27896  contract Storage is ReentrancyGuard {... */\n      sload\n        /* \"contracts/modules/Storage.sol\":2186:2726  uint[] public packages = [... */\n      dup2\n      lt\n      iszero\n      tag_158\n      jumpi\n      0x0d\n        /* \"contracts/modules/Storage.sol\":292:27896  contract Storage is ReentrancyGuard {... */\n      sload\n      dup2\n      lt\n      iszero\n      tag_176\n      jumpi\n        /* \"contracts/modules/Storage.sol\":2186:2726  uint[] public packages = [... */\n      0x0d\n        /* \"contracts/modules/Storage.sol\":292:27896  contract Storage is ReentrancyGuard {... */\n      0x00\n      mstore\n      0xd7b6990105719101dabeb77144f2a3385c8033acd3af97e9423a695e81ad1eb5\n      add\n      sload\n      mload(0x40)\n      swap1\n      dup2\n      mstore\n      0x20\n      swap1\n      return\n    tag_116:\n      jumpi(tag_158, callvalue)\n      jumpi(tag_158, slt(add(not(0x03), calldatasize), 0x00))\n      0x20\n        /* \"contracts/modules/Storage.sol\":565:587  uint public totalUsers */\n      0x06\n        /* \"contracts/modules/Storage.sol\":292:27896  contract Storage is ReentrancyGuard {... */\n      sload\n      mload(0x40)\n      swap1\n      dup2\n      mstore\n      return\n    tag_114:\n      jumpi(tag_158, callvalue)\n      tag_256\n      calldatasize\n      tag_1\n      jump\t// in\n    tag_256:\n      swap1\n      0x00\n      mstore\n        /* \"contracts/modules/Storage.sol\":7899:7968  mapping(uint =>  mapping(uint => UserPoolTopup)) public userPooltopup */\n      0x2f\n        /* \"contracts/modules/Storage.sol\":292:27896  contract Storage is ReentrancyGuard {... */\n      0x20\n      mstore\n      keccak256(0x00, 0x40)\n      swap1\n      0x00\n      mstore\n      0x20\n      mstore\n      0x40\n      dup1\n      0x00\n      keccak256\n        /* \"contracts/modules/Storage.sol\":7899:7968  mapping(uint =>  mapping(uint => UserPoolTopup)) public userPooltopup */\n      0x01\n        /* \"contracts/modules/Storage.sol\":292:27896  contract Storage is ReentrancyGuard {... */\n      dup2\n      sload\n        /* \"contracts/modules/Storage.sol\":7899:7968  mapping(uint =>  mapping(uint => UserPoolTopup)) public userPooltopup */\n      swap2\n      add\n        /* \"contracts/modules/Storage.sol\":292:27896  contract Storage is ReentrancyGuard {... */\n      sload\n      dup3\n      mload\n      swap2\n      dup3\n      mstore\n      0x20\n      dup3\n      add\n      mstore\n      return\n    tag_112:\n      jumpi(tag_158, callvalue)\n      tag_259\n      calldatasize\n      tag_1\n      jump\t// in\n    tag_259:\n      swap1\n      0x00\n      mstore\n        /* \"contracts/modules/Storage.sol\":8313:8370  mapping(uint => mapping(uint => bool)) public userHasPool */\n      0x34\n        /* \"contracts/modules/Storage.sol\":292:27896  contract Storage is ReentrancyGuard {... */\n      0x20\n      mstore\n      keccak256(0x00, 0x40)\n      swap1\n      0x00\n      mstore\n      0x20\n      mstore\n      0x20\n      and(sload(keccak256(0x00, 0x40)), 0xff)\n      mload(0x40)\n      swap1\n      iszero\n      iszero\n      dup2\n      mstore\n      return\n    tag_110:\n      jumpi(tag_158, callvalue)\n      jumpi(tag_158, slt(add(not(0x03), calldatasize), 0x20))\n      calldataload(0x04)\n        /* \"contracts/modules/Storage.sol\":6976:7069  uint[] public poolPackages = [75e18, 300e18, 1200e18, 4800e18, 19200e18, 76800e18, 307200e18] */\n      0x16\n        /* \"contracts/modules/Storage.sol\":292:27896  contract Storage is ReentrancyGuard {... */\n      sload\n        /* \"contracts/modules/Storage.sol\":6976:7069  uint[] public poolPackages = [75e18, 300e18, 1200e18, 4800e18, 19200e18, 76800e18, 307200e18] */\n      dup2\n      lt\n      iszero\n      tag_158\n      jumpi\n      0x16\n        /* \"contracts/modules/Storage.sol\":292:27896  contract Storage is ReentrancyGuard {... */\n      sload\n      dup2\n      lt\n      iszero\n      tag_176\n      jumpi\n        /* \"contracts/modules/Storage.sol\":6976:7069  uint[] public poolPackages = [75e18, 300e18, 1200e18, 4800e18, 19200e18, 76800e18, 307200e18] */\n      0x16\n        /* \"contracts/modules/Storage.sol\":292:27896  contract Storage is ReentrancyGuard {... */\n      0x00\n      mstore\n      0xd833147d7dc355ba459fc788f669e58cfaf9dc25ddcd0702e87d69c7b5124289\n      add\n      sload\n      mload(0x40)\n      swap1\n      dup2\n      mstore\n      0x20\n      swap1\n      return\n    tag_108:\n      jumpi(tag_158, callvalue)\n      jumpi(tag_158, slt(add(not(0x03), calldatasize), 0x00))\n      0x20\n      mload(0x40)\n        /* \"contracts/modules/Storage.sol\":842:850  100 days */\n      0x83d600\n        /* \"contracts/modules/Storage.sol\":292:27896  contract Storage is ReentrancyGuard {... */\n      dup2\n      mstore\n      return\n    tag_106:\n      jumpi(tag_158, callvalue)\n      jumpi(tag_158, slt(add(not(0x03), calldatasize), 0x00))\n      0x20\n        /* \"contracts/modules/Storage.sol\":10397:10431  uint public monthlyTotalReward = 0 */\n      0x42\n        /* \"contracts/modules/Storage.sol\":292:27896  contract Storage is ReentrancyGuard {... */\n      sload\n      mload(0x40)\n      swap1\n      dup2\n      mstore\n      return\n    tag_104:\n      jumpi(tag_158, callvalue)\n      tag_278\n      calldatasize\n      tag_1\n      jump\t// in\n    tag_278:\n      swap1\n      0x00\n      mstore\n        /* \"contracts/modules/Storage.sol\":8651:8711  mapping(uint => mapping(uint => bool)) public userHasbooster */\n      0x38\n        /* \"contracts/modules/Storage.sol\":292:27896  contract Storage is ReentrancyGuard {... */\n      0x20\n      mstore\n      keccak256(0x00, 0x40)\n      swap1\n      0x00\n      mstore\n      0x20\n      mstore\n      0x20\n      and(sload(keccak256(0x00, 0x40)), 0xff)\n      mload(0x40)\n      swap1\n      iszero\n      iszero\n      dup2\n      mstore\n      return\n    tag_102:\n      jumpi(tag_158, callvalue)\n      jumpi(tag_158, slt(add(not(0x03), calldatasize), 0x00))\n      0x20\n        /* \"contracts/modules/Storage.sol\":11658:11693  uint public topRoyaltyStartTime = 0 */\n      0x48\n        /* \"contracts/modules/Storage.sol\":292:27896  contract Storage is ReentrancyGuard {... */\n      sload\n      mload(0x40)\n      swap1\n      dup2\n      mstore\n      return\n    tag_100:\n      jumpi(tag_158, callvalue)\n      jumpi(tag_158, slt(add(not(0x03), calldatasize), 0x20))\n      calldataload(0x04)\n      0x08\n        /* \"contracts/modules/Storage.sol\":7323:7384  uint[8] public minPoolForGlbBooster = [0, 1, 1, 1, 1, 1, 1,1] */\n      dup2\n      lt\n      iszero\n      tag_158\n      jumpi\n        /* \"contracts/modules/Storage.sol\":292:27896  contract Storage is ReentrancyGuard {... */\n      0x20\n      swap1\n        /* \"contracts/modules/Storage.sol\":7323:7384  uint[8] public minPoolForGlbBooster = [0, 1, 1, 1, 1, 1, 1,1] */\n      0x27\n        /* \"contracts/modules/Storage.sol\":292:27896  contract Storage is ReentrancyGuard {... */\n      add\n      sload\n      mload(0x40)\n      swap1\n      dup2\n      mstore\n      return\n    tag_98:\n      jumpi(tag_158, callvalue)\n      tag_291\n      calldatasize\n      tag_1\n      jump\t// in\n    tag_291:\n      swap1\n      0x00\n      mstore\n        /* \"contracts/modules/Storage.sol\":8418:8486  mapping(uint =>  mapping(uint => UserBooster)) public userBoosterdtl */\n      0x35\n        /* \"contracts/modules/Storage.sol\":292:27896  contract Storage is ReentrancyGuard {... */\n      0x20\n      mstore\n      keccak256(0x00, 0x40)\n      swap1\n      0x00\n      mstore\n      0x20\n      mstore\n      keccak256(0x00, 0x40)\n      dup1\n      sload\n      tag_198\n        /* \"contracts/modules/Storage.sol\":8418:8486  mapping(uint =>  mapping(uint => UserBooster)) public userBoosterdtl */\n      0x01\n      dup4\n      add\n        /* \"contracts/modules/Storage.sol\":292:27896  contract Storage is ReentrancyGuard {... */\n      sload\n        /* \"contracts/modules/Storage.sol\":8418:8486  mapping(uint =>  mapping(uint => UserBooster)) public userBoosterdtl */\n      swap3\n      0x02\n      dup2\n      add\n        /* \"contracts/modules/Storage.sol\":292:27896  contract Storage is ReentrancyGuard {... */\n      sload\n        /* \"contracts/modules/Storage.sol\":8418:8486  mapping(uint =>  mapping(uint => UserBooster)) public userBoosterdtl */\n      swap1\n        /* \"contracts/modules/Storage.sol\":292:27896  contract Storage is ReentrancyGuard {... */\n      0x04\n        /* \"contracts/modules/Storage.sol\":8418:8486  mapping(uint =>  mapping(uint => UserBooster)) public userBoosterdtl */\n      0x03\n      dup3\n      add\n        /* \"contracts/modules/Storage.sol\":292:27896  contract Storage is ReentrancyGuard {... */\n      sload\n        /* \"contracts/modules/Storage.sol\":8418:8486  mapping(uint =>  mapping(uint => UserBooster)) public userBoosterdtl */\n      swap2\n      add\n        /* \"contracts/modules/Storage.sol\":292:27896  contract Storage is ReentrancyGuard {... */\n      sload\n      swap2\n      mload(0x40)\n      swap6\n      dup7\n      swap6\n      dup7\n      swap2\n      swap3\n      0x80\n      swap4\n      swap7\n      swap6\n      swap5\n      swap2\n      swap7\n      0xa0\n      dup5\n      add\n      swap8\n      dup5\n      mstore\n      0x20\n      dup5\n      add\n      mstore\n      0x40\n      dup4\n      add\n      mstore\n      0x60\n      dup3\n      add\n      mstore\n      add\n      mstore\n      jump\n    tag_96:\n      jumpi(tag_158, callvalue)\n      tag_295\n      calldatasize\n      tag_5\n      jump\t// in\n    tag_295:\n      swap2\n      0x00\n      mstore\n        /* \"contracts/modules/Storage.sol\":8046:8106  mapping(uint => mapping(uint => uint[])) public userChildren */\n      0x31\n        /* \"contracts/modules/Storage.sol\":292:27896  contract Storage is ReentrancyGuard {... */\n      0x20\n      mstore\n      keccak256(0x00, 0x40)\n      swap1\n      0x00\n      mstore\n      0x20\n      mstore\n      keccak256(0x00, 0x40)\n      dup1\n      sload\n        /* \"contracts/modules/Storage.sol\":8046:8106  mapping(uint => mapping(uint => uint[])) public userChildren */\n      dup3\n      lt\n      iszero\n      tag_158\n      jumpi\n        /* \"contracts/modules/Storage.sol\":292:27896  contract Storage is ReentrancyGuard {... */\n      0x20\n        /* \"contracts/modules/Storage.sol\":8046:8106  mapping(uint => mapping(uint => uint[])) public userChildren */\n      swap2\n      tag_165\n      swap2\n      tag_4\n      jump\t// in\n        /* \"contracts/modules/Storage.sol\":292:27896  contract Storage is ReentrancyGuard {... */\n    tag_94:\n      jumpi(tag_158, callvalue)\n      tag_301\n      calldatasize\n      tag_5\n      jump\t// in\n    tag_301:\n      swap2\n      0x00\n      mstore\n        /* \"contracts/modules/Storage.sol\":8136:8197  mapping(uint => mapping(uint => uint[])) public userIdPerPool */\n      0x32\n        /* \"contracts/modules/Storage.sol\":292:27896  contract Storage is ReentrancyGuard {... */\n      0x20\n      mstore\n      keccak256(0x00, 0x40)\n      swap1\n      0x00\n      mstore\n      0x20\n      mstore\n      keccak256(0x00, 0x40)\n      dup1\n      sload\n        /* \"contracts/modules/Storage.sol\":8136:8197  mapping(uint => mapping(uint => uint[])) public userIdPerPool */\n      dup3\n      lt\n      iszero\n      tag_158\n      jumpi\n        /* \"contracts/modules/Storage.sol\":292:27896  contract Storage is ReentrancyGuard {... */\n      0x20\n        /* \"contracts/modules/Storage.sol\":8136:8197  mapping(uint => mapping(uint => uint[])) public userIdPerPool */\n      swap2\n      tag_165\n      swap2\n      tag_4\n      jump\t// in\n        /* \"contracts/modules/Storage.sol\":292:27896  contract Storage is ReentrancyGuard {... */\n    tag_92:\n      jumpi(tag_158, callvalue)\n      tag_307\n      calldatasize\n      tag_1\n      jump\t// in\n    tag_307:\n      swap1\n      0x00\n      mstore\n        /* \"contracts/modules/Storage.sol\":1927:1995  mapping(uint256 => mapping(uint256 => uint256)) public communityDebt */\n      0x0b\n        /* \"contracts/modules/Storage.sol\":292:27896  contract Storage is ReentrancyGuard {... */\n      0x20\n      mstore\n      keccak256(0x00, 0x40)\n      swap1\n      0x00\n      mstore\n      0x20\n      mstore\n      0x20\n      sload(keccak256(0x00, 0x40))\n      mload(0x40)\n      swap1\n      dup2\n      mstore\n      return\n    tag_90:\n      jumpi(tag_158, callvalue)\n      jumpi(tag_158, slt(add(not(0x03), calldatasize), 0x20))\n      mstore(0x00, calldataload(0x04))\n        /* \"contracts/modules/Storage.sol\":5828:5869  mapping(uint => uint) public matrixDirect */\n      0x14\n        /* \"contracts/modules/Storage.sol\":292:27896  contract Storage is ReentrancyGuard {... */\n      0x20\n      mstore\n      0x20\n      sload(keccak256(0x00, 0x40))\n      mload(0x40)\n      swap1\n      dup2\n      mstore\n      return\n    tag_88:\n      jumpi(tag_158, callvalue)\n      jumpi(tag_158, slt(add(not(0x03), calldatasize), 0x00))\n        /* \"contracts/modules/Storage.sol\":422:450  address public creatorWallet */\n      0x02\n        /* \"contracts/modules/Storage.sol\":292:27896  contract Storage is ReentrancyGuard {... */\n      sload\n      mload(0x40)\n      sub(shl(0xa0, 0x01), 0x01)\n      swap1\n      swap2\n      and\n      dup2\n      mstore\n      0x20\n      swap1\n      return\n    tag_86:\n      jumpi(tag_158, callvalue)\n      jumpi(tag_158, slt(add(not(0x03), calldatasize), 0x00))\n      0x20\n        /* \"contracts/modules/Storage.sol\":1530:1564  uint256 public communityAccPerUser */\n      0x09\n        /* \"contracts/modules/Storage.sol\":292:27896  contract Storage is ReentrancyGuard {... */\n      sload\n      mload(0x40)\n      swap1\n      dup2\n      mstore\n      return\n    tag_84:\n      jumpi(tag_158, callvalue)\n      jumpi(tag_158, slt(add(not(0x03), calldatasize), 0x00))\n      0x20\n      mload(0x40)\n        /* \"contracts/modules/Storage.sol\":8788:8794  7 days */\n      0x093a80\n        /* \"contracts/modules/Storage.sol\":292:27896  contract Storage is ReentrancyGuard {... */\n      dup2\n      mstore\n      return\n    tag_82:\n      jumpi(tag_158, callvalue)\n      tag_326\n      calldatasize\n      tag_1\n      jump\t// in\n    tag_326:\n      swap1\n      0x00\n      mstore\n        /* \"contracts/modules/Storage.sol\":5681:5727  mapping(uint => Income[]) public incomeHistory */\n      0x12\n        /* \"contracts/modules/Storage.sol\":292:27896  contract Storage is ReentrancyGuard {... */\n      0x20\n      mstore\n      keccak256(0x00, 0x40)\n      dup1\n      sload\n        /* \"contracts/modules/Storage.sol\":5681:5727  mapping(uint => Income[]) public incomeHistory */\n      dup3\n      lt\n      iszero\n      tag_158\n      jumpi\n        /* \"contracts/modules/Storage.sol\":292:27896  contract Storage is ReentrancyGuard {... */\n      0x00\n      mstore\n      0x05\n      keccak256(0x00, 0x20)\n      swap2\n      mul\n      add\n      dup1\n      sload\n      tag_198\n        /* \"contracts/modules/Storage.sol\":5681:5727  mapping(uint => Income[]) public incomeHistory */\n      0x01\n      dup4\n      add\n        /* \"contracts/modules/Storage.sol\":292:27896  contract Storage is ReentrancyGuard {... */\n      sload\n        /* \"contracts/modules/Storage.sol\":5681:5727  mapping(uint => Income[]) public incomeHistory */\n      swap3\n      0x02\n      dup2\n      add\n        /* \"contracts/modules/Storage.sol\":292:27896  contract Storage is ReentrancyGuard {... */\n      sload\n        /* \"contracts/modules/Storage.sol\":5681:5727  mapping(uint => Income[]) public incomeHistory */\n      swap1\n        /* \"contracts/modules/Storage.sol\":292:27896  contract Storage is ReentrancyGuard {... */\n      0x04\n        /* \"contracts/modules/Storage.sol\":5681:5727  mapping(uint => Income[]) public incomeHistory */\n      0x03\n      dup3\n      add\n        /* \"contracts/modules/Storage.sol\":292:27896  contract Storage is ReentrancyGuard {... */\n      sload\n        /* \"contracts/modules/Storage.sol\":5681:5727  mapping(uint => Income[]) public incomeHistory */\n      swap2\n      add\n        /* \"contracts/modules/Storage.sol\":292:27896  contract Storage is ReentrancyGuard {... */\n      sload\n      swap2\n      mload(0x40)\n      swap6\n      dup7\n      swap6\n      dup7\n      swap2\n      swap3\n      0x80\n      swap4\n      swap7\n      swap6\n      swap5\n      swap2\n      swap7\n      0xa0\n      dup5\n      add\n      swap8\n      dup5\n      mstore\n      0x20\n      dup5\n      add\n      mstore\n      0x40\n      dup4\n      add\n      mstore\n      0x60\n      dup3\n      add\n      mstore\n      add\n      mstore\n      jump\n    tag_80:\n      jumpi(tag_158, callvalue)\n      jumpi(tag_158, slt(add(not(0x03), calldatasize), 0x00))\n      0x20\n      mload(0x40)\n        /* \"contracts/modules/Storage.sol\":900:908  450 days */\n      0x02514300\n        /* \"contracts/modules/Storage.sol\":292:27896  contract Storage is ReentrancyGuard {... */\n      dup2\n      mstore\n      return\n    tag_78:\n      jumpi(tag_158, callvalue)\n      jumpi(tag_158, slt(add(not(0x03), calldatasize), 0x20))\n      mstore(0x00, calldataload(0x04))\n        /* \"contracts/modules/Storage.sol\":10912:10969  mapping (uint => monthlyRoyalty) public monthlyRoyaltydtl */\n      0x43\n        /* \"contracts/modules/Storage.sol\":292:27896  contract Storage is ReentrancyGuard {... */\n      0x20\n      mstore\n      keccak256(0x00, 0x40)\n      dup1\n      sload\n      tag_198\n      0x01\n        /* \"contracts/modules/Storage.sol\":10912:10969  mapping (uint => monthlyRoyalty) public monthlyRoyaltydtl */\n      dup4\n      add\n        /* \"contracts/modules/Storage.sol\":292:27896  contract Storage is ReentrancyGuard {... */\n      sload\n        /* \"contracts/modules/Storage.sol\":10912:10969  mapping (uint => monthlyRoyalty) public monthlyRoyaltydtl */\n      swap3\n      0x02\n      dup2\n      add\n        /* \"contracts/modules/Storage.sol\":292:27896  contract Storage is ReentrancyGuard {... */\n      sload\n        /* \"contracts/modules/Storage.sol\":10912:10969  mapping (uint => monthlyRoyalty) public monthlyRoyaltydtl */\n      swap1\n      0x03\n      dup2\n      add\n        /* \"contracts/modules/Storage.sol\":292:27896  contract Storage is ReentrancyGuard {... */\n      sload\n      0x04\n        /* \"contracts/modules/Storage.sol\":10912:10969  mapping (uint => monthlyRoyalty) public monthlyRoyaltydtl */\n      dup3\n      add\n        /* \"contracts/modules/Storage.sol\":292:27896  contract Storage is ReentrancyGuard {... */\n      sload\n        /* \"contracts/modules/Storage.sol\":10912:10969  mapping (uint => monthlyRoyalty) public monthlyRoyaltydtl */\n      0x05\n      dup4\n      add\n        /* \"contracts/modules/Storage.sol\":292:27896  contract Storage is ReentrancyGuard {... */\n      sload\n        /* \"contracts/modules/Storage.sol\":10912:10969  mapping (uint => monthlyRoyalty) public monthlyRoyaltydtl */\n      swap1\n      0x06\n      dup5\n      add\n        /* \"contracts/modules/Storage.sol\":292:27896  contract Storage is ReentrancyGuard {... */\n      sload\n        /* \"contracts/modules/Storage.sol\":10912:10969  mapping (uint => monthlyRoyalty) public monthlyRoyaltydtl */\n      swap3\n        /* \"contracts/modules/Storage.sol\":292:27896  contract Storage is ReentrancyGuard {... */\n      0xff\n        /* \"contracts/modules/Storage.sol\":10912:10969  mapping (uint => monthlyRoyalty) public monthlyRoyaltydtl */\n      0x08\n      0x07\n      dup8\n      add\n        /* \"contracts/modules/Storage.sol\":292:27896  contract Storage is ReentrancyGuard {... */\n      sload\n        /* \"contracts/modules/Storage.sol\":10912:10969  mapping (uint => monthlyRoyalty) public monthlyRoyaltydtl */\n      swap7\n      add\n        /* \"contracts/modules/Storage.sol\":292:27896  contract Storage is ReentrancyGuard {... */\n      sload\n      and\n      swap6\n      mload(0x40)\n      swap10\n      dup11\n      swap10\n      dup11\n      tag_3\n      jump\t// in\n    tag_76:\n      jumpi(tag_158, callvalue)\n      tag_341\n      calldatasize\n      tag_1\n      jump\t// in\n    tag_341:\n      swap1\n      0x00\n      mstore\n        /* \"contracts/modules/Storage.sol\":5912:5958  mapping(uint => uint[]) public directReferrals */\n      0x15\n        /* \"contracts/modules/Storage.sol\":292:27896  contract Storage is ReentrancyGuard {... */\n      0x20\n      mstore\n      keccak256(0x00, 0x40)\n      dup1\n      sload\n        /* \"contracts/modules/Storage.sol\":5912:5958  mapping(uint => uint[]) public directReferrals */\n      dup3\n      lt\n      iszero\n      tag_158\n      jumpi\n        /* \"contracts/modules/Storage.sol\":292:27896  contract Storage is ReentrancyGuard {... */\n      0x20\n        /* \"contracts/modules/Storage.sol\":5912:5958  mapping(uint => uint[]) public directReferrals */\n      swap2\n      tag_165\n      swap2\n      tag_4\n      jump\t// in\n        /* \"contracts/modules/Storage.sol\":292:27896  contract Storage is ReentrancyGuard {... */\n    tag_74:\n      jumpi(tag_158, callvalue)\n      jumpi(tag_158, slt(add(not(0x03), calldatasize), 0x00))\n      0x20\n        /* \"contracts/modules/Storage.sol\":11700:11732  uint public topRoyaltyReward = 0 */\n      0x49\n        /* \"contracts/modules/Storage.sol\":292:27896  contract Storage is ReentrancyGuard {... */\n      sload\n      mload(0x40)\n      swap1\n      dup2\n      mstore\n      return\n    tag_72:\n      jumpi(tag_158, callvalue)\n      tag_351\n      calldatasize\n      tag_1\n      jump\t// in\n    tag_351:\n      0x00\n      swap2\n      dup3\n      mstore\n        /* \"contracts/modules/Storage.sol\":5434:5498  mapping(uint => mapping(uint => UserPackage)) public userPackage */\n      0x0e\n        /* \"contracts/modules/Storage.sol\":292:27896  contract Storage is ReentrancyGuard {... */\n      0x20\n      swap1\n      dup2\n      mstore\n      0x40\n      dup1\n      dup5\n      keccak256\n      swap3\n      dup5\n      mstore\n      swap2\n      dup2\n      mstore\n      swap2\n      dup2\n      swap1\n      keccak256\n      dup1\n      sload\n        /* \"contracts/modules/Storage.sol\":5434:5498  mapping(uint => mapping(uint => UserPackage)) public userPackage */\n      0x01\n      dup3\n      add\n        /* \"contracts/modules/Storage.sol\":292:27896  contract Storage is ReentrancyGuard {... */\n      sload\n        /* \"contracts/modules/Storage.sol\":5434:5498  mapping(uint => mapping(uint => UserPackage)) public userPackage */\n      0x02\n      dup4\n      add\n        /* \"contracts/modules/Storage.sol\":292:27896  contract Storage is ReentrancyGuard {... */\n      sload\n        /* \"contracts/modules/Storage.sol\":5434:5498  mapping(uint => mapping(uint => UserPackage)) public userPackage */\n      0x03\n      swap1\n      swap4\n      add\n        /* \"contracts/modules/Storage.sol\":292:27896  contract Storage is ReentrancyGuard {... */\n      sload\n      dup5\n      mload\n      swap3\n      dup4\n      mstore\n      swap5\n      dup3\n      add\n      mstore\n      swap2\n      dup3\n      add\n      mstore\n      0xff\n      dup1\n      dup4\n      and\n      iszero\n      iszero\n      0x60\n      dup4\n      add\n      mstore\n      0x08\n      swap3\n      swap1\n      swap3\n      shr\n      swap1\n      swap2\n      and\n      iszero\n      iszero\n      0x80\n      dup3\n      add\n      mstore\n      0xa0\n      swap1\n      return\n    tag_70:\n      jumpi(tag_158, callvalue)\n      tag_355\n      calldatasize\n      tag_5\n      jump\t// in\n    tag_355:\n      swap2\n      0x00\n      mstore\n        /* \"contracts/modules/Storage.sol\":5734:5787  mapping(uint => mapping(uint => uint[])) public teams */\n      0x13\n        /* \"contracts/modules/Storage.sol\":292:27896  contract Storage is ReentrancyGuard {... */\n      0x20\n      mstore\n      keccak256(0x00, 0x40)\n      swap1\n      0x00\n      mstore\n      0x20\n      mstore\n      keccak256(0x00, 0x40)\n      dup1\n      sload\n        /* \"contracts/modules/Storage.sol\":5734:5787  mapping(uint => mapping(uint => uint[])) public teams */\n      dup3\n      lt\n      iszero\n      tag_158\n      jumpi\n        /* \"contracts/modules/Storage.sol\":292:27896  contract Storage is ReentrancyGuard {... */\n      0x20\n        /* \"contracts/modules/Storage.sol\":5734:5787  mapping(uint => mapping(uint => uint[])) public teams */\n      swap2\n      tag_165\n      swap2\n      tag_4\n      jump\t// in\n        /* \"contracts/modules/Storage.sol\":292:27896  contract Storage is ReentrancyGuard {... */\n    tag_68:\n      tag_6\n      jump\t// in\n    tag_66:\n      jumpi(tag_158, callvalue)\n      tag_361\n      calldatasize\n      tag_5\n      jump\t// in\n    tag_361:\n      swap2\n      0x00\n      mstore\n        /* \"contracts/modules/Storage.sol\":9706:9771  mapping(uint => mapping(uint => uint[])) public weeklyUserDirects */\n      0x3f\n        /* \"contracts/modules/Storage.sol\":292:27896  contract Storage is ReentrancyGuard {... */\n      0x20\n      mstore\n      keccak256(0x00, 0x40)\n      swap1\n      0x00\n      mstore\n      0x20\n      mstore\n      keccak256(0x00, 0x40)\n      dup1\n      sload\n        /* \"contracts/modules/Storage.sol\":9706:9771  mapping(uint => mapping(uint => uint[])) public weeklyUserDirects */\n      dup3\n      lt\n      iszero\n      tag_158\n      jumpi\n        /* \"contracts/modules/Storage.sol\":292:27896  contract Storage is ReentrancyGuard {... */\n      0x20\n        /* \"contracts/modules/Storage.sol\":9706:9771  mapping(uint => mapping(uint => uint[])) public weeklyUserDirects */\n      swap2\n      tag_165\n      swap2\n      tag_4\n      jump\t// in\n        /* \"contracts/modules/Storage.sol\":292:27896  contract Storage is ReentrancyGuard {... */\n    tag_64:\n      jumpi(tag_158, callvalue)\n      tag_367\n      calldatasize\n      tag_1\n      jump\t// in\n    tag_367:\n      swap1\n      0x00\n      mstore\n        /* \"contracts/modules/Storage.sol\":12432:12484  mapping(uint => uint[]) public topRoyaltyUserDirects */\n      0x4d\n        /* \"contracts/modules/Storage.sol\":292:27896  contract Storage is ReentrancyGuard {... */\n      0x20\n      mstore\n      keccak256(0x00, 0x40)\n      dup1\n      sload\n        /* \"contracts/modules/Storage.sol\":12432:12484  mapping(uint => uint[]) public topRoyaltyUserDirects */\n      dup3\n      lt\n      iszero\n      tag_158\n      jumpi\n        /* \"contracts/modules/Storage.sol\":292:27896  contract Storage is ReentrancyGuard {... */\n      0x20\n        /* \"contracts/modules/Storage.sol\":12432:12484  mapping(uint => uint[]) public topRoyaltyUserDirects */\n      swap2\n      tag_165\n      swap2\n      tag_4\n      jump\t// in\n        /* \"contracts/modules/Storage.sol\":292:27896  contract Storage is ReentrancyGuard {... */\n    tag_62:\n      jumpi(tag_158, callvalue)\n      jumpi(tag_158, slt(add(not(0x03), calldatasize), 0x00))\n      0x20\n        /* \"contracts/modules/Storage.sol\":11620:11651  uint public topRoyaltyRound = 1 */\n      0x47\n        /* \"contracts/modules/Storage.sol\":292:27896  contract Storage is ReentrancyGuard {... */\n      sload\n      mload(0x40)\n      swap1\n      dup2\n      mstore\n      return\n    tag_60:\n      jumpi(tag_158, callvalue)\n      jumpi(tag_158, slt(add(not(0x03), calldatasize), 0x20))\n      mstore(0x00, calldataload(0x04))\n        /* \"contracts/modules/Storage.sol\":5597:5643  mapping(uint => UserIncome) public userIncomes */\n      0x11\n        /* \"contracts/modules/Storage.sol\":292:27896  contract Storage is ReentrancyGuard {... */\n      0x20\n      mstore\n      0x0180\n      keccak256(0x00, 0x40)\n      dup1\n      sload\n        /* \"contracts/modules/Storage.sol\":5597:5643  mapping(uint => UserIncome) public userIncomes */\n      swap1\n        /* \"contracts/modules/Storage.sol\":292:27896  contract Storage is ReentrancyGuard {... */\n      0x01\n        /* \"contracts/modules/Storage.sol\":5597:5643  mapping(uint => UserIncome) public userIncomes */\n      dup2\n      add\n        /* \"contracts/modules/Storage.sol\":292:27896  contract Storage is ReentrancyGuard {... */\n      sload\n        /* \"contracts/modules/Storage.sol\":5597:5643  mapping(uint => UserIncome) public userIncomes */\n      swap1\n      0x02\n      dup2\n      add\n        /* \"contracts/modules/Storage.sol\":292:27896  contract Storage is ReentrancyGuard {... */\n      sload\n        /* \"contracts/modules/Storage.sol\":5597:5643  mapping(uint => UserIncome) public userIncomes */\n      0x03\n      dup3\n      add\n        /* \"contracts/modules/Storage.sol\":292:27896  contract Storage is ReentrancyGuard {... */\n      sload\n      0x04\n        /* \"contracts/modules/Storage.sol\":5597:5643  mapping(uint => UserIncome) public userIncomes */\n      dup4\n      add\n        /* \"contracts/modules/Storage.sol\":292:27896  contract Storage is ReentrancyGuard {... */\n      sload\n        /* \"contracts/modules/Storage.sol\":5597:5643  mapping(uint => UserIncome) public userIncomes */\n      0x05\n      dup5\n      add\n        /* \"contracts/modules/Storage.sol\":292:27896  contract Storage is ReentrancyGuard {... */\n      sload\n        /* \"contracts/modules/Storage.sol\":5597:5643  mapping(uint => UserIncome) public userIncomes */\n      0x06\n      dup6\n      add\n        /* \"contracts/modules/Storage.sol\":292:27896  contract Storage is ReentrancyGuard {... */\n      sload\n        /* \"contracts/modules/Storage.sol\":5597:5643  mapping(uint => UserIncome) public userIncomes */\n      swap1\n      0x07\n      dup7\n      add\n        /* \"contracts/modules/Storage.sol\":292:27896  contract Storage is ReentrancyGuard {... */\n      sload\n        /* \"contracts/modules/Storage.sol\":5597:5643  mapping(uint => UserIncome) public userIncomes */\n      swap3\n      0x08\n      dup8\n      add\n        /* \"contracts/modules/Storage.sol\":292:27896  contract Storage is ReentrancyGuard {... */\n      sload\n        /* \"contracts/modules/Storage.sol\":5597:5643  mapping(uint => UserIncome) public userIncomes */\n      swap5\n      0x09\n      dup9\n      add\n        /* \"contracts/modules/Storage.sol\":292:27896  contract Storage is ReentrancyGuard {... */\n      sload\n        /* \"contracts/modules/Storage.sol\":5597:5643  mapping(uint => UserIncome) public userIncomes */\n      swap7\n      0x0b\n      0x0a\n      dup11\n      add\n        /* \"contracts/modules/Storage.sol\":292:27896  contract Storage is ReentrancyGuard {... */\n      sload\n        /* \"contracts/modules/Storage.sol\":5597:5643  mapping(uint => UserIncome) public userIncomes */\n      swap10\n      add\n        /* \"contracts/modules/Storage.sol\":292:27896  contract Storage is ReentrancyGuard {... */\n      sload\n      swap10\n      mload(0x40)\n      swap12\n      dup13\n      mstore\n      0x20\n      dup13\n      add\n      mstore\n      0x40\n      dup12\n      add\n      mstore\n      0x60\n      dup11\n      add\n      mstore\n      0x80\n      dup10\n      add\n      mstore\n      0xa0\n      dup9\n      add\n      mstore\n      0xc0\n      dup8\n      add\n      mstore\n      0xe0\n      dup7\n      add\n      mstore\n      0x0100\n      dup6\n      add\n      mstore\n      0x0120\n      dup5\n      add\n      mstore\n      0x0140\n      dup4\n      add\n      mstore\n      0x0160\n      dup3\n      add\n      mstore\n      return\n    tag_58:\n      jumpi(tag_158, callvalue)\n      jumpi(tag_158, slt(add(not(0x03), calldatasize), 0x20))\n      mstore(0x00, calldataload(0x04))\n        /* \"contracts/modules/Storage.sol\":1818:1875  mapping(uint256 => uint256) public communityAccPerPackage */\n      0x0a\n        /* \"contracts/modules/Storage.sol\":292:27896  contract Storage is ReentrancyGuard {... */\n      0x20\n      mstore\n      0x20\n      sload(keccak256(0x00, 0x40))\n      mload(0x40)\n      swap1\n      dup2\n      mstore\n      return\n    tag_56:\n      jumpi(tag_158, callvalue)\n      jumpi(tag_158, slt(add(not(0x03), calldatasize), 0x20))\n      mstore(0x00, calldataload(0x04))\n        /* \"contracts/modules/Storage.sol\":11081:11145  mapping(uint => monthlyRoyaltyUser) public monthlyRoyaltyUserdtl */\n      0x45\n        /* \"contracts/modules/Storage.sol\":292:27896  contract Storage is ReentrancyGuard {... */\n      0x20\n      mstore\n      keccak256(0x00, 0x40)\n      dup1\n      sload\n      tag_198\n      0x01\n        /* \"contracts/modules/Storage.sol\":11081:11145  mapping(uint => monthlyRoyaltyUser) public monthlyRoyaltyUserdtl */\n      dup4\n      add\n        /* \"contracts/modules/Storage.sol\":292:27896  contract Storage is ReentrancyGuard {... */\n      sload\n        /* \"contracts/modules/Storage.sol\":11081:11145  mapping(uint => monthlyRoyaltyUser) public monthlyRoyaltyUserdtl */\n      swap3\n        /* \"contracts/modules/Storage.sol\":292:27896  contract Storage is ReentrancyGuard {... */\n      0xff\n      0x04\n        /* \"contracts/modules/Storage.sol\":11081:11145  mapping(uint => monthlyRoyaltyUser) public monthlyRoyaltyUserdtl */\n      0x02\n      dup4\n      add\n        /* \"contracts/modules/Storage.sol\":292:27896  contract Storage is ReentrancyGuard {... */\n      sload\n        /* \"contracts/modules/Storage.sol\":11081:11145  mapping(uint => monthlyRoyaltyUser) public monthlyRoyaltyUserdtl */\n      swap3\n      add\n        /* \"contracts/modules/Storage.sol\":292:27896  contract Storage is ReentrancyGuard {... */\n      sload\n      and\n      swap1\n      mload(0x40)\n      swap5\n      dup6\n      swap5\n      dup6\n      swap3\n      0x60\n      swap3\n      swap6\n      swap5\n      swap2\n      swap6\n      0x80\n      dup6\n      add\n      swap7\n      dup6\n      mstore\n      0x20\n      dup6\n      add\n      mstore\n      0x40\n      dup5\n      add\n      mstore\n      iszero\n      iszero\n      swap2\n      add\n      mstore\n      jump\n    tag_54:\n      jumpi(tag_158, callvalue)\n      jumpi(tag_158, slt(add(not(0x03), calldatasize), 0x00))\n      0x20\n      mload(0x40)\n        /* \"contracts/modules/Storage.sol\":782:788  2 days */\n      0x02a300\n        /* \"contracts/modules/Storage.sol\":292:27896  contract Storage is ReentrancyGuard {... */\n      dup2\n      mstore\n      return\n    tag_52:\n      jumpi(tag_158, callvalue)\n      jumpi(tag_158, slt(add(not(0x03), calldatasize), 0x20))\n      calldataload(0x04)\n        /* \"contracts/modules/Storage.sol\":1257:1288  uint[] public registeredUserIds */\n      0x07\n        /* \"contracts/modules/Storage.sol\":292:27896  contract Storage is ReentrancyGuard {... */\n      sload\n        /* \"contracts/modules/Storage.sol\":1257:1288  uint[] public registeredUserIds */\n      dup2\n      lt\n      iszero\n      tag_158\n      jumpi\n      0x07\n        /* \"contracts/modules/Storage.sol\":292:27896  contract Storage is ReentrancyGuard {... */\n      sload\n      dup2\n      lt\n      iszero\n      tag_176\n      jumpi\n        /* \"contracts/modules/Storage.sol\":1257:1288  uint[] public registeredUserIds */\n      0x07\n        /* \"contracts/modules/Storage.sol\":292:27896  contract Storage is ReentrancyGuard {... */\n      0x00\n      mstore\n      0xa66cc928b5edb82af9bd49922954155ab7b0942694bea4ce44661d9a8736c688\n      add\n      sload\n      mload(0x40)\n      swap1\n      dup2\n      mstore\n      0x20\n      swap1\n      return\n    tag_50:\n      tag_7\n      jump\t// in\n    tag_48:\n      jumpi(tag_158, callvalue)\n      jumpi(tag_158, slt(add(not(0x03), calldatasize), 0x20))\n      mstore(0x00, calldataload(0x04))\n        /* \"contracts/modules/Storage.sol\":5556:5590  mapping(uint => User) public users */\n      0x10\n        /* \"contracts/modules/Storage.sol\":292:27896  contract Storage is ReentrancyGuard {... */\n      0x20\n      mstore\n      mstore(0x0180, keccak256(0x00, 0x40))\n      0x01\n      dup1\n      0xa0\n      shl\n      sub\n        /* \"contracts/modules/Storage.sol\":5556:5590  mapping(uint => User) public users */\n      mload(0x0180)\n        /* \"contracts/modules/Storage.sol\":292:27896  contract Storage is ReentrancyGuard {... */\n      sload\n      and\n        /* \"contracts/modules/Storage.sol\":5556:5590  mapping(uint => User) public users */\n      add(mload(0x0180), 0x02)\n        /* \"contracts/modules/Storage.sol\":292:27896  contract Storage is ReentrancyGuard {... */\n      sload\n      0x0100\n      mstore\n        /* \"contracts/modules/Storage.sol\":5556:5590  mapping(uint => User) public users */\n      add(mload(0x0180), 0x03)\n        /* \"contracts/modules/Storage.sol\":292:27896  contract Storage is ReentrancyGuard {... */\n      sload\n      0x0140\n      mstore\n      0x04\n        /* \"contracts/modules/Storage.sol\":5556:5590  mapping(uint => User) public users */\n      mload(0x0180)\n      add\n        /* \"contracts/modules/Storage.sol\":292:27896  contract Storage is ReentrancyGuard {... */\n      sload\n        /* \"contracts/modules/Storage.sol\":5556:5590  mapping(uint => User) public users */\n      add(mload(0x0180), 0x05)\n        /* \"contracts/modules/Storage.sol\":292:27896  contract Storage is ReentrancyGuard {... */\n      sload\n        /* \"contracts/modules/Storage.sol\":5556:5590  mapping(uint => User) public users */\n      add(mload(0x0180), 0x06)\n        /* \"contracts/modules/Storage.sol\":292:27896  contract Storage is ReentrancyGuard {... */\n      sload\n        /* \"contracts/modules/Storage.sol\":5556:5590  mapping(uint => User) public users */\n      add(mload(0x0180), 0x07)\n        /* \"contracts/modules/Storage.sol\":292:27896  contract Storage is ReentrancyGuard {... */\n      sload\n        /* \"contracts/modules/Storage.sol\":5556:5590  mapping(uint => User) public users */\n      add(mload(0x0180), 0x08)\n        /* \"contracts/modules/Storage.sol\":292:27896  contract Storage is ReentrancyGuard {... */\n      sload\n        /* \"contracts/modules/Storage.sol\":5556:5590  mapping(uint => User) public users */\n      add(mload(0x0180), 0x09)\n        /* \"contracts/modules/Storage.sol\":292:27896  contract Storage is ReentrancyGuard {... */\n      sload\n        /* \"contracts/modules/Storage.sol\":5556:5590  mapping(uint => User) public users */\n      add(mload(0x0180), 0x0a)\n        /* \"contracts/modules/Storage.sol\":292:27896  contract Storage is ReentrancyGuard {... */\n      sload\n        /* \"contracts/modules/Storage.sol\":5556:5590  mapping(uint => User) public users */\n      swap1\n      add(mload(0x0180), 0x0b)\n        /* \"contracts/modules/Storage.sol\":292:27896  contract Storage is ReentrancyGuard {... */\n      sload\n        /* \"contracts/modules/Storage.sol\":5556:5590  mapping(uint => User) public users */\n      swap3\n      add(mload(0x0180), 0x0c)\n        /* \"contracts/modules/Storage.sol\":292:27896  contract Storage is ReentrancyGuard {... */\n      sload\n        /* \"contracts/modules/Storage.sol\":5556:5590  mapping(uint => User) public users */\n      swap5\n      add(mload(0x0180), 0x0d)\n        /* \"contracts/modules/Storage.sol\":292:27896  contract Storage is ReentrancyGuard {... */\n      sload\n        /* \"contracts/modules/Storage.sol\":5556:5590  mapping(uint => User) public users */\n      swap7\n      add(mload(0x0180), 0x0e)\n        /* \"contracts/modules/Storage.sol\":292:27896  contract Storage is ReentrancyGuard {... */\n      sload\n        /* \"contracts/modules/Storage.sol\":5556:5590  mapping(uint => User) public users */\n      swap9\n      add(mload(0x0180), 0x0f)\n        /* \"contracts/modules/Storage.sol\":292:27896  contract Storage is ReentrancyGuard {... */\n      sload\n        /* \"contracts/modules/Storage.sol\":5556:5590  mapping(uint => User) public users */\n      swap11\n      add(mload(0x0180), 0x10)\n        /* \"contracts/modules/Storage.sol\":292:27896  contract Storage is ReentrancyGuard {... */\n      sload\n        /* \"contracts/modules/Storage.sol\":5556:5590  mapping(uint => User) public users */\n      swap13\n      add(mload(0x0180), 0x11)\n        /* \"contracts/modules/Storage.sol\":292:27896  contract Storage is ReentrancyGuard {... */\n      sload\n      0x80\n      mstore\n        /* \"contracts/modules/Storage.sol\":5556:5590  mapping(uint => User) public users */\n      add(mload(0x0180), 0x12)\n        /* \"contracts/modules/Storage.sol\":292:27896  contract Storage is ReentrancyGuard {... */\n      sload\n      0xc0\n      mstore\n        /* \"contracts/modules/Storage.sol\":5556:5590  mapping(uint => User) public users */\n      add(mload(0x0180), 0x13)\n        /* \"contracts/modules/Storage.sol\":292:27896  contract Storage is ReentrancyGuard {... */\n      sload\n      0x0160\n      mstore\n        /* \"contracts/modules/Storage.sol\":5556:5590  mapping(uint => User) public users */\n      add(mload(0x0180), 0x14)\n        /* \"contracts/modules/Storage.sol\":292:27896  contract Storage is ReentrancyGuard {... */\n      sload\n      0x0120\n      mstore\n        /* \"contracts/modules/Storage.sol\":5556:5590  mapping(uint => User) public users */\n      add(mload(0x0180), 0x15)\n        /* \"contracts/modules/Storage.sol\":292:27896  contract Storage is ReentrancyGuard {... */\n      sload\n      0xe0\n      mstore\n      mstore(0xa0, mload(0x40))\n      mload(0xa0)\n      mstore\n      mstore(add(mload(0xa0), 0x20), mload(0x0100))\n      mstore(add(mload(0xa0), 0x40), mload(0x0140))\n      add(mload(0xa0), 0x60)\n      mstore\n      add(mload(0xa0), 0x80)\n      mstore\n      0xa0\n      dup1\n      mload\n      add\n      mstore\n      add(mload(0xa0), 0xc0)\n      mstore\n      add(mload(0xa0), 0xe0)\n      mstore\n      add(mload(0xa0), 0x0100)\n      mstore\n      add(mload(0xa0), 0x0120)\n      mstore\n      add(mload(0xa0), 0x0140)\n      mstore\n      add(mload(0xa0), 0x0160)\n      mstore\n      add(mload(0xa0), 0x0180)\n      mstore\n      add(mload(0xa0), 0x01a0)\n      mstore\n      add(mload(0xa0), 0x01c0)\n      mstore\n      add(mload(0xa0), 0x01e0)\n      mstore\n      mstore(add(mload(0xa0), 0x0200), mload(0x80))\n      mstore(add(mload(0xa0), 0x0220), mload(0xc0))\n      mstore(add(mload(0xa0), 0x0240), mload(0x0160))\n      mstore(add(mload(0xa0), 0x0260), mload(0x0120))\n      mstore(add(mload(0xa0), 0x0280), mload(0xe0))\n      return(mload(0xa0), 0x02a0)\n    tag_46:\n      jumpi(tag_158, callvalue)\n      jumpi(tag_158, slt(add(not(0x03), calldatasize), 0x00))\n      0x20\n      mload(0x40)\n        /* \"contracts/modules/Storage.sol\":1513:1517  1e18 */\n      0x0de0b6b3a7640000\n        /* \"contracts/modules/Storage.sol\":292:27896  contract Storage is ReentrancyGuard {... */\n      dup2\n      mstore\n      return\n    tag_44:\n      jumpi(tag_158, callvalue)\n      jumpi(tag_158, slt(add(not(0x03), calldatasize), 0x00))\n      0x20\n      mload(0x40)\n        /* \"contracts/modules/Storage.sol\":731:737  1 days */\n      0x015180\n        /* \"contracts/modules/Storage.sol\":292:27896  contract Storage is ReentrancyGuard {... */\n      dup2\n      mstore\n      return\n    tag_42:\n      jumpi(tag_158, callvalue)\n      jumpi(tag_158, slt(add(not(0x03), calldatasize), 0x00))\n      0x20\n      mload(0x40)\n        /* \"contracts/modules/Storage.sol\":1240:1241  2 */\n      0x02\n        /* \"contracts/modules/Storage.sol\":292:27896  contract Storage is ReentrancyGuard {... */\n      dup2\n      mstore\n      return\n    tag_40:\n      jumpi(tag_158, callvalue)\n      jumpi(tag_158, slt(add(not(0x03), calldatasize), 0x00))\n      0x20\n        /* \"contracts/modules/Storage.sol\":8948:8981  uint public WeeklyTotalReward = 0 */\n      0x3b\n        /* \"contracts/modules/Storage.sol\":292:27896  contract Storage is ReentrancyGuard {... */\n      sload\n      mload(0x40)\n      swap1\n      dup2\n      mstore\n      return\n    tag_38:\n      jumpi(tag_158, callvalue)\n      jumpi(tag_158, slt(add(not(0x03), calldatasize), 0x00))\n      sload(0x01)\n      mload(0x40)\n      sub(shl(0xa0, 0x01), 0x01)\n      swap1\n      swap2\n      and\n      dup2\n      mstore\n      0x20\n      swap1\n      return\n    tag_36:\n      jumpi(tag_158, callvalue)\n      jumpi(tag_158, slt(add(not(0x03), calldatasize), 0x20))\n      calldataload(0x04)\n        /* \"contracts/modules/Storage.sol\":11005:11040  uint[] public monthlyQualifiedUsers */\n      0x44\n        /* \"contracts/modules/Storage.sol\":292:27896  contract Storage is ReentrancyGuard {... */\n      sload\n        /* \"contracts/modules/Storage.sol\":11005:11040  uint[] public monthlyQualifiedUsers */\n      dup2\n      lt\n      iszero\n      tag_158\n      jumpi\n      0x44\n        /* \"contracts/modules/Storage.sol\":292:27896  contract Storage is ReentrancyGuard {... */\n      sload\n      dup2\n      lt\n      iszero\n      tag_176\n      jumpi\n        /* \"contracts/modules/Storage.sol\":11005:11040  uint[] public monthlyQualifiedUsers */\n      0x44\n        /* \"contracts/modules/Storage.sol\":292:27896  contract Storage is ReentrancyGuard {... */\n      0x00\n      mstore\n      0x9b22d3d61959b4d3528b1d8ba932c96fbe302b36a1aad1d95cab54f9e0a135ea\n      add\n      sload\n      mload(0x40)\n      swap1\n      dup2\n      mstore\n      0x20\n      swap1\n      return\n    tag_32:\n      jumpi(tag_158, callvalue)\n      jumpi(tag_158, slt(add(not(0x03), calldatasize), 0x00))\n      0x20\n      mload(0x40)\n        /* \"contracts/modules/Storage.sol\":10236:10243  30 days */\n      0x278d00\n        /* \"contracts/modules/Storage.sol\":292:27896  contract Storage is ReentrancyGuard {... */\n      dup2\n      mstore\n      return\n    tag_28:\n      jumpi(tag_158, callvalue)\n      jumpi(tag_158, slt(add(not(0x03), calldatasize), 0x20))\n      calldataload(0x04)\n        /* \"contracts/modules/Storage.sol\":7076:7181  uint[] public glbBoosterPackages = [ 100e18, 200e18, 400e18, 800e18, 1600e18, 3200e18, 6400e18, 12800e18] */\n      0x17\n        /* \"contracts/modules/Storage.sol\":292:27896  contract Storage is ReentrancyGuard {... */\n      sload\n        /* \"contracts/modules/Storage.sol\":7076:7181  uint[] public glbBoosterPackages = [ 100e18, 200e18, 400e18, 800e18, 1600e18, 3200e18, 6400e18, 12800e18] */\n      dup2\n      lt\n      iszero\n      tag_158\n      jumpi\n      0x17\n        /* \"contracts/modules/Storage.sol\":292:27896  contract Storage is ReentrancyGuard {... */\n      sload\n      dup2\n      lt\n      iszero\n      tag_176\n      jumpi\n        /* \"contracts/modules/Storage.sol\":7076:7181  uint[] public glbBoosterPackages = [ 100e18, 200e18, 400e18, 800e18, 1600e18, 3200e18, 6400e18, 12800e18] */\n      0x17\n        /* \"contracts/modules/Storage.sol\":292:27896  contract Storage is ReentrancyGuard {... */\n      0x00\n      mstore\n      0xc624b66cc0138b8fabc209247f72d758e1cf3343756d543badbf24212bed8c15\n      add\n      sload\n      mload(0x40)\n      swap1\n      dup2\n      mstore\n      0x20\n      swap1\n      return\n    tag_26:\n      jumpi(tag_158, callvalue)\n      jumpi(tag_158, slt(add(not(0x03), calldatasize), 0x20))\n      calldataload(0x04)\n      0x07\n        /* \"contracts/modules/Storage.sol\":7188:7245  uint[7] public minLevelForPool = [3, 5, 7, 9, 11, 13, 15] */\n      dup2\n      lt\n      iszero\n      tag_158\n      jumpi\n        /* \"contracts/modules/Storage.sol\":292:27896  contract Storage is ReentrancyGuard {... */\n      0x20\n      swap1\n        /* \"contracts/modules/Storage.sol\":7188:7245  uint[7] public minLevelForPool = [3, 5, 7, 9, 11, 13, 15] */\n      0x18\n        /* \"contracts/modules/Storage.sol\":292:27896  contract Storage is ReentrancyGuard {... */\n      add\n      sload\n      mload(0x40)\n      swap1\n      dup2\n      mstore\n      return\n    tag_24:\n      jumpi(tag_158, callvalue)\n      tag_452\n      calldatasize\n      tag_1\n      jump\t// in\n    tag_452:\n      swap1\n      0x00\n      mstore\n        /* \"contracts/modules/Storage.sol\":8236:8276  mapping(uint => uint[]) public poolUsers */\n      0x33\n        /* \"contracts/modules/Storage.sol\":292:27896  contract Storage is ReentrancyGuard {... */\n      0x20\n      mstore\n      keccak256(0x00, 0x40)\n      dup1\n      sload\n        /* \"contracts/modules/Storage.sol\":8236:8276  mapping(uint => uint[]) public poolUsers */\n      dup3\n      lt\n      iszero\n      tag_158\n      jumpi\n        /* \"contracts/modules/Storage.sol\":292:27896  contract Storage is ReentrancyGuard {... */\n      0x20\n        /* \"contracts/modules/Storage.sol\":8236:8276  mapping(uint => uint[]) public poolUsers */\n      swap2\n      tag_165\n      swap2\n      tag_4\n      jump\t// in\n        /* \"contracts/modules/Storage.sol\":292:27896  contract Storage is ReentrancyGuard {... */\n    tag_22:\n      jumpi(tag_158, callvalue)\n      tag_458\n      calldatasize\n      tag_5\n      jump\t// in\n    tag_458:\n      swap2\n      0x00\n      mstore\n        /* \"contracts/modules/Storage.sol\":8493:8561  mapping(uint =>  mapping(uint => uint[])) public userBoosterChildren */\n      0x36\n        /* \"contracts/modules/Storage.sol\":292:27896  contract Storage is ReentrancyGuard {... */\n      0x20\n      mstore\n      keccak256(0x00, 0x40)\n      swap1\n      0x00\n      mstore\n      0x20\n      mstore\n      keccak256(0x00, 0x40)\n      dup1\n      sload\n        /* \"contracts/modules/Storage.sol\":8493:8561  mapping(uint =>  mapping(uint => uint[])) public userBoosterChildren */\n      dup3\n      lt\n      iszero\n      tag_158\n      jumpi\n        /* \"contracts/modules/Storage.sol\":292:27896  contract Storage is ReentrancyGuard {... */\n      0x20\n        /* \"contracts/modules/Storage.sol\":8493:8561  mapping(uint =>  mapping(uint => uint[])) public userBoosterChildren */\n      swap2\n      tag_165\n      swap2\n      tag_4\n      jump\t// in\n        /* \"contracts/modules/Storage.sol\":292:27896  contract Storage is ReentrancyGuard {... */\n    tag_20:\n      jumpi(tag_158, callvalue)\n      tag_464\n      calldatasize\n      tag_1\n      jump\t// in\n    tag_464:\n      swap1\n      0x00\n      mstore\n        /* \"contracts/modules/Storage.sol\":9527:9577  mapping(uint=> uint[]) public weeklyQualifiedUsers */\n      0x3d\n        /* \"contracts/modules/Storage.sol\":292:27896  contract Storage is ReentrancyGuard {... */\n      0x20\n      mstore\n      keccak256(0x00, 0x40)\n      dup1\n      sload\n        /* \"contracts/modules/Storage.sol\":9527:9577  mapping(uint=> uint[]) public weeklyQualifiedUsers */\n      dup3\n      lt\n      iszero\n      tag_158\n      jumpi\n        /* \"contracts/modules/Storage.sol\":292:27896  contract Storage is ReentrancyGuard {... */\n      0x20\n        /* \"contracts/modules/Storage.sol\":9527:9577  mapping(uint=> uint[]) public weeklyQualifiedUsers */\n      swap2\n      tag_165\n      swap2\n      tag_4\n      jump\t// in\n        /* \"contracts/modules/Storage.sol\":292:27896  contract Storage is ReentrancyGuard {... */\n    tag_18:\n      jumpi(tag_158, callvalue)\n      jumpi(tag_158, slt(add(not(0x03), calldatasize), 0x20))\n      mstore(0x00, calldataload(0x04))\n        /* \"contracts/modules/Storage.sol\":2093:2149  mapping(uint256 => uint256) public packageQualifiedUsers */\n      0x0c\n        /* \"contracts/modules/Storage.sol\":292:27896  contract Storage is ReentrancyGuard {... */\n      0x20\n      mstore\n      0x20\n      sload(keccak256(0x00, 0x40))\n      mload(0x40)\n      swap1\n      dup2\n      mstore\n      return\n    tag_16:\n      jumpi(tag_158, callvalue)\n      jumpi(tag_158, slt(add(not(0x03), calldatasize), 0x20))\n      mstore(0x00, calldataload(0x04))\n        /* \"contracts/modules/Storage.sol\":12205:12254  mapping (uint => topRoyalty) public topRoyaltydtl */\n      0x4a\n        /* \"contracts/modules/Storage.sol\":292:27896  contract Storage is ReentrancyGuard {... */\n      0x20\n      mstore\n      keccak256(0x00, 0x40)\n      dup1\n      sload\n      tag_198\n      0x01\n        /* \"contracts/modules/Storage.sol\":12205:12254  mapping (uint => topRoyalty) public topRoyaltydtl */\n      dup4\n      add\n        /* \"contracts/modules/Storage.sol\":292:27896  contract Storage is ReentrancyGuard {... */\n      sload\n        /* \"contracts/modules/Storage.sol\":12205:12254  mapping (uint => topRoyalty) public topRoyaltydtl */\n      swap3\n      0x02\n      dup2\n      add\n        /* \"contracts/modules/Storage.sol\":292:27896  contract Storage is ReentrancyGuard {... */\n      sload\n        /* \"contracts/modules/Storage.sol\":12205:12254  mapping (uint => topRoyalty) public topRoyaltydtl */\n      swap1\n      0x03\n      dup2\n      add\n        /* \"contracts/modules/Storage.sol\":292:27896  contract Storage is ReentrancyGuard {... */\n      sload\n      0x04\n        /* \"contracts/modules/Storage.sol\":12205:12254  mapping (uint => topRoyalty) public topRoyaltydtl */\n      dup3\n      add\n        /* \"contracts/modules/Storage.sol\":292:27896  contract Storage is ReentrancyGuard {... */\n      sload\n        /* \"contracts/modules/Storage.sol\":12205:12254  mapping (uint => topRoyalty) public topRoyaltydtl */\n      0x05\n      dup4\n      add\n        /* \"contracts/modules/Storage.sol\":292:27896  contract Storage is ReentrancyGuard {... */\n      sload\n        /* \"contracts/modules/Storage.sol\":12205:12254  mapping (uint => topRoyalty) public topRoyaltydtl */\n      swap1\n      0x06\n      dup5\n      add\n        /* \"contracts/modules/Storage.sol\":292:27896  contract Storage is ReentrancyGuard {... */\n      sload\n        /* \"contracts/modules/Storage.sol\":12205:12254  mapping (uint => topRoyalty) public topRoyaltydtl */\n      swap3\n        /* \"contracts/modules/Storage.sol\":292:27896  contract Storage is ReentrancyGuard {... */\n      0xff\n        /* \"contracts/modules/Storage.sol\":12205:12254  mapping (uint => topRoyalty) public topRoyaltydtl */\n      0x08\n      0x07\n      dup8\n      add\n        /* \"contracts/modules/Storage.sol\":292:27896  contract Storage is ReentrancyGuard {... */\n      sload\n        /* \"contracts/modules/Storage.sol\":12205:12254  mapping (uint => topRoyalty) public topRoyaltydtl */\n      swap7\n      add\n        /* \"contracts/modules/Storage.sol\":292:27896  contract Storage is ReentrancyGuard {... */\n      sload\n      and\n      swap6\n      mload(0x40)\n      swap10\n      dup11\n      swap10\n      dup11\n      tag_3\n      jump\t// in\n    tag_14:\n      jumpi(tag_158, callvalue)\n      jumpi(tag_158, slt(add(not(0x03), calldatasize), 0x00))\n      0x20\n      mload(0x40)\n        /* \"contracts/modules/Storage.sol\":683:688  10000 */\n      0x2710\n        /* \"contracts/modules/Storage.sol\":292:27896  contract Storage is ReentrancyGuard {... */\n      dup2\n      mstore\n      return\n    tag_12:\n      jumpi(tag_158, callvalue)\n      tag_483\n      calldatasize\n      tag_1\n      jump\t// in\n    tag_483:\n      swap1\n      0x00\n      mstore\n        /* \"contracts/modules/Storage.sol\":9607:9672  mapping(uint => mapping(uint => weeklyUser)) public weeklyUserdtl */\n      0x3e\n        /* \"contracts/modules/Storage.sol\":292:27896  contract Storage is ReentrancyGuard {... */\n      0x20\n      mstore\n      keccak256(0x00, 0x40)\n      swap1\n      0x00\n      mstore\n      0x20\n      mstore\n      dup1\n      tag_198\n      keccak256(0x00, 0x40)\n      dup1\n      sload\n        /* \"contracts/modules/Storage.sol\":9607:9672  mapping(uint => mapping(uint => weeklyUser)) public weeklyUserdtl */\n      0x01\n      dup3\n      add\n        /* \"contracts/modules/Storage.sol\":292:27896  contract Storage is ReentrancyGuard {... */\n      sload\n        /* \"contracts/modules/Storage.sol\":9607:9672  mapping(uint => mapping(uint => weeklyUser)) public weeklyUserdtl */\n      swap2\n      0x03\n      0x02\n      dup3\n      add\n        /* \"contracts/modules/Storage.sol\":292:27896  contract Storage is ReentrancyGuard {... */\n      sload\n        /* \"contracts/modules/Storage.sol\":9607:9672  mapping(uint => mapping(uint => weeklyUser)) public weeklyUserdtl */\n      swap2\n      add\n        /* \"contracts/modules/Storage.sol\":292:27896  contract Storage is ReentrancyGuard {... */\n      sload\n      swap3\n      0xff\n      dup1\n      dup6\n      0x08\n      shr\n      and\n      swap5\n      and\n      swap3\n      dup7\n      swap4\n      swap1\n      swap6\n      swap5\n      swap2\n      swap3\n      0x80\n      swap4\n      0xa0\n      dup7\n      add\n      swap8\n      dup7\n      mstore\n      0x20\n      dup7\n      add\n      mstore\n      0x40\n      dup6\n      add\n      mstore\n      iszero\n      iszero\n      0x60\n      dup5\n      add\n      mstore\n      iszero\n      iszero\n      swap2\n      add\n      mstore\n      jump\n    tag_1:\n      0x40\n      swap1\n      not(0x03)\n      add\n      slt\n      tag_158\n      jumpi\n      calldataload(0x04)\n      swap1\n      calldataload(0x24)\n      swap1\n      jump\t// out\n    tag_3:\n      swap8\n      swap5\n      swap2\n      swap3\n      0x0100\n      swap8\n      swap5\n      swap2\n      swap11\n      swap10\n      swap7\n      swap4\n      0x0120\n      dup11\n      add\n      swap12\n      dup11\n      mstore\n      0x20\n      dup11\n      add\n      mstore\n      0x40\n      dup10\n      add\n      mstore\n      0x60\n      dup9\n      add\n      mstore\n      0x80\n      dup8\n      add\n      mstore\n      0xa0\n      dup7\n      add\n      mstore\n      0xc0\n      dup6\n      add\n      mstore\n      0xe0\n      dup5\n      add\n      mstore\n      iszero\n      iszero\n      swap2\n      add\n      mstore\n      jump\t// out\n    tag_4:\n      dup1\n      sload\n      dup3\n      lt\n      iszero\n      tag_176\n      jumpi\n      0x00\n      mstore\n      keccak256(0x00, 0x20)\n      add\n      swap1\n      0x00\n      swap1\n      jump\t// out\n    tag_5:\n      0x60\n      swap1\n      not(0x03)\n      add\n      slt\n      tag_158\n      jumpi\n      calldataload(0x04)\n      swap1\n      calldataload(0x24)\n      swap1\n      calldataload(0x44)\n      swap1\n      jump\t// out\n    tag_6:\n      jumpi(tag_158, callvalue)\n      jumpi(tag_158, slt(add(not(0x03), calldatasize), 0x00))\n      0x20\n      mload(0x40)\n        /* \"contracts/modules/Storage.sol\":1076:1078  10 */\n      0x0a\n        /* \"contracts/modules/Storage.sol\":292:27896  contract Storage is ReentrancyGuard {... */\n      dup2\n      mstore\n      return\n    tag_7:\n      jumpi(tag_158, callvalue)\n      jumpi(tag_158, slt(add(not(0x03), calldatasize), 0x00))\n      0x20\n      mload(0x40)\n        /* \"contracts/modules/Storage.sol\":1129:1131  15 */\n      0x0f\n        /* \"contracts/modules/Storage.sol\":292:27896  contract Storage is ReentrancyGuard {... */\n      dup2\n      mstore\n      return\n\n    auxdata: 0xa26469706673582212202907b9ee6b74ce82063dec0ff80de841c98d10f2df9adf798789eaf28c06537c64736f6c634300081e0033\n}\n",
				"bytecode": {
					"linkReferences": {},
					"object": "60806040523461052b5760015f556040516101e081016001600160401b038111828210176105175760405267d02ab486cedc0000815268015af1d78b58c4000060208201526802b5e3af16b1880000604082015268056bc75e2d631000006060820152680ad78ebc5ac620000060808201526815af1d78b58c40000060a0820152682b5e3af16b1880000060c08201526856bc75e2d63100000060e082015268ad78ebc5ac6200000061010082015269015af1d78b58c40000006101208201526902b5e3af16b18800000061014082015269056bc75e2d6310000000610160820152690ad78ebc5ac6200000006101808201526915af1d78b58c400000006101a0820152692b5e3af16b18800000006101c0820152600d54600f600d5580600f106104c1575b50600d5f5260205f20905f5b600f81106104a45761014161052f565b680410d586a20a4c00008152681043561a8829300000602082015268410d586a20a4c0000060408201526901043561a882930000006060820152690410d586a20a4c0000006080820152691043561a88293000000060a082015269410d586a20a4c000000060c082015260165460076016558060071061044e575b5060165f5260205f20905f5b60078110610431576101d861054e565b68056bc75e2d631000008152680ad78ebc5ac620000060208201526815af1d78b58c4000006040820152682b5e3af16b1880000060608201526856bc75e2d631000000608082015268ad78ebc5ac6200000060a082015269015af1d78b58c400000060c08201526902b5e3af16b18800000060e08201526017546008601755806008106103db575b5060175f5260205f20905f5b600881106103be5761027c61052f565b60038152600560208201526007604082015260096060820152600b6080820152600d60a0820152600f60c08201525f5b600781106103a6576102bc61054e565b6004815260056020820152600660408201526007606082015260086080820152600960a0820152600a60c0820152600b60e08201525f5b6008811061038e5761030361054e565b5f815260016020820152600160408201526001606082015260016080820152600160a0820152600160c0820152600160e08201525f5b60088110610376575f6039555f603a555f603b5560016040555f6041555f60425560016047555f6048555f60495560405161147890816105858239f35b600190602060ff845116930192816027015501610339565b600190602060ff84511693019281601f0155016102f3565b600190602060ff8451169301928160180155016102ac565b81516001600160501b03168184015560209091019060010161026c565b60175f5261042b907fc624b66cc0138b8fabc209247f72d758e1cf3343756d543badbf24212bed8c15017fc624b66cc0138b8fabc209247f72d758e1cf3343756d543badbf24212bed8c1d61056e565b81610260565b81516001600160501b0316818401556020909101906001016101c8565b60165f5261049e907fd833147d7dc355ba459fc788f669e58cfaf9dc25ddcd0702e87d69c7b5124289017fd833147d7dc355ba459fc788f669e58cfaf9dc25ddcd0702e87d69c7b512429061056e565b816101bc565b81516001600160501b031681840155602090910190600101610131565b600d5f52610511907fd7b6990105719101dabeb77144f2a3385c8033acd3af97e9423a695e81ad1eb5017fd7b6990105719101dabeb77144f2a3385c8033acd3af97e9423a695e81ad1ec461056e565b5f610125565b634e487b7160e01b5f52604160045260245ffd5b5f80fd5b6040519060e082016001600160401b0381118382101761051757604052565b6040519061010082016001600160401b0381118382101761051757604052565b818110610579575050565b5f815560010161056e56fe6101a0806040526004361015610013575f80fd5b5f3560e01c90816254815d146113185750806301c234a8146112fc578063056b4d1f1461129c5780630676d0d6146112725780630a5c5d69146112435780630ef81b741461120a5780630f2b7cc9146111db5780632132d204146111af5780632350268f1461115557806323fd338e14610c585780632a891534146111385780632ae0ee0d14610e875780632d66014f146110de5780632f48ab7d146110b65780633080b5bc1461109957806331bb6a301461107e57806332bc298c1461106157806332fcd9661461103f578063365b98b214610e8c578063375b43b414610e8757806339ab360314610e2d5780633a5084b314610e105780634036436c14610db157806345cb537c14610d8757806346b9dece14610ce25780634b8cbf9b14610cc55780634d12ae0f14610c965780634d4cc5ca14610c5d57806358c7d35214610c585780635aabf7f114610c1f5780635b58ce6c14610bb75780635b62d1d514610b9a5780635ec64a4414610b6b5780636a42478214610b0b578063705fee2d14610aed57806370c8d77014610a7857806376f5f70014610a5b57806378f6ad6d14610a3e5780637cdc65f214610a1657806388afbe3e146109ec57806389043ece146109bd5780638d58644c146109845780638f030ece1461094b578063907c84a7146108e0578063956a3228146108b45780639b40ab97146108975780639c38348614610863578063a59d17d114610846578063a5e52b9914610829578063ae4708dc146107cf578063bd1aae401461079b578063bf72467214610763578063bff1f9e114610746578063c216212a146106ec578063c4eb42a51461068c578063c7bb62e81461065d578063c8df290814610639578063c9ed07081461061c578063ca8e9121146105ff578063cb0e0d7d146105c3578063ce79c2c314610558578063d0a2fd791461052c578063d2f0490d14610511578063db27cc71146104ae578063e898fc3814610491578063e9e34a1614610469578063ebe0ff1514610446578063ec597e6f14610429578063f5748c4f146103bb578063f5d74d9314610393578063f7a24806146103555763fddc806f14610334575f80fd5b34610351575f366003190112610351576020603a54604051908152f35b5f80fd5b346103515761036336611387565b905f52604660205260405f20805482101561035157602091610384916113dd565b90549060031b1c604051908152f35b34610351575f366003190112610351576004546040516001600160a01b039091168152602090f35b3461035157602036600319011261035157600435604b5481101561035157604b5481101561041557604b5f527f17b0af156a929edf60c351f3df2d53ed643fdd750aef9eda90dc7c8759a104a80154604051908152602090f35b634e487b7160e01b5f52603260045260245ffd5b34610351575f366003190112610351576020600554604051908152f35b34610351575f366003190112610351576020604051683635c9adc5dea000008152f35b34610351575f366003190112610351576003546040516001600160a01b039091168152602090f35b34610351575f366003190112610351576020604154604051908152f35b34610351576020366003190112610351576004355f52604c60205260405f20805461050d60018301549260ff60046002830154920154169060405194859485926060929594919560808501968552602085015260408401521515910152565b0390f35b34610351575f36600319011261035157602060405160058152f35b3461035157602036600319011261035157600435600881101561035157602090601f0154604051908152f35b346103515761056636611387565b905f52603060205260405f20905f5260205260405f20805461050d6001830154926002810154906004600382015491015491604051958695869192608093969594919660a084019784526020840152604083015260608201520152565b34610351576020366003190112610351576004356001600160a01b03811690819003610351575f52600f602052602060405f2054604051908152f35b34610351575f366003190112610351576020603954604051908152f35b34610351575f366003190112610351576020604054604051908152f35b34610351575f36600319011261035157602060405169021e19e0c9bab24000008152f35b346103515761066b36611387565b905f52603760205260405f20805482101561035157602091610384916113dd565b34610351576020366003190112610351576004355f52603c60205260405f20805461050d6001830154926002810154906003810154600482015460058301549060068401549260ff600860078701549601541695604051998a998a61139d565b3461035157602036600319011261035157600435600d5481101561035157600d5481101561041557600d5f527fd7b6990105719101dabeb77144f2a3385c8033acd3af97e9423a695e81ad1eb50154604051908152602090f35b34610351575f366003190112610351576020600654604051908152f35b346103515761077136611387565b905f52602f60205260405f20905f526020526040805f206001815491015482519182526020820152f35b34610351576107a936611387565b905f52603460205260405f20905f52602052602060ff60405f2054166040519015158152f35b3461035157602036600319011261035157600435601654811015610351576016548110156104155760165f527fd833147d7dc355ba459fc788f669e58cfaf9dc25ddcd0702e87d69c7b51242890154604051908152602090f35b34610351575f3660031901126103515760206040516283d6008152f35b34610351575f366003190112610351576020604254604051908152f35b346103515761087136611387565b905f52603860205260405f20905f52602052602060ff60405f2054166040519015158152f35b34610351575f366003190112610351576020604854604051908152f35b346103515760203660031901126103515760043560088110156103515760209060270154604051908152f35b34610351576108ee36611387565b905f52603560205260405f20905f5260205260405f20805461050d6001830154926002810154906004600382015491015491604051958695869192608093969594919660a084019784526020840152604083015260608201520152565b3461035157610959366113f2565b915f52603160205260405f20905f5260205260405f20805482101561035157602091610384916113dd565b3461035157610992366113f2565b915f52603260205260405f20905f5260205260405f20805482101561035157602091610384916113dd565b34610351576109cb36611387565b905f52600b60205260405f20905f52602052602060405f2054604051908152f35b34610351576020366003190112610351576004355f526014602052602060405f2054604051908152f35b34610351575f366003190112610351576002546040516001600160a01b039091168152602090f35b34610351575f366003190112610351576020600954604051908152f35b34610351575f36600319011261035157602060405162093a808152f35b3461035157610a8636611387565b905f52601260205260405f208054821015610351575f52600560205f20910201805461050d6001830154926002810154906004600382015491015491604051958695869192608093969594919660a084019784526020840152604083015260608201520152565b34610351575f36600319011261035157602060405163025143008152f35b34610351576020366003190112610351576004355f52604360205260405f20805461050d6001830154926002810154906003810154600482015460058301549060068401549260ff600860078701549601541695604051998a998a61139d565b3461035157610b7936611387565b905f52601560205260405f20805482101561035157602091610384916113dd565b34610351575f366003190112610351576020604954604051908152f35b3461035157610bc536611387565b5f918252600e60209081526040808420928452918152918190208054600182015460028301546003909301548451928352948201529182015260ff8083161515606083015260089290921c9091161515608082015260a090f35b3461035157610c2d366113f2565b915f52601360205260405f20905f5260205260405f20805482101561035157602091610384916113dd565b61140c565b3461035157610c6b366113f2565b915f52603f60205260405f20905f5260205260405f20805482101561035157602091610384916113dd565b3461035157610ca436611387565b905f52604d60205260405f20805482101561035157602091610384916113dd565b34610351575f366003190112610351576020604754604051908152f35b34610351576020366003190112610351576004355f52601160205261018060405f208054906001810154906002810154600382015460048301546005840154600685015490600786015492600887015494600988015496600b600a8a0154990154996040519b8c5260208c015260408b015260608a0152608089015260a088015260c087015260e0860152610100850152610120840152610140830152610160820152f35b34610351576020366003190112610351576004355f52600a602052602060405f2054604051908152f35b34610351576020366003190112610351576004355f52604560205260405f20805461050d60018301549260ff60046002830154920154169060405194859485926060929594919560808501968552602085015260408401521515910152565b34610351575f3660031901126103515760206040516202a3008152f35b3461035157602036600319011261035157600435600754811015610351576007548110156104155760075f527fa66cc928b5edb82af9bd49922954155ab7b0942694bea4ce44661d9a8736c6880154604051908152602090f35b611427565b34610351576020366003190112610351576004355f52601060205260405f206101805260018060a01b03610180515416600261018051015461010052600361018051015461014052600461018051015460056101805101546006610180510154600761018051015460086101805101546009610180510154600a61018051015490600b61018051015492600c61018051015494600d61018051015496600e61018051015498600f6101805101549a60106101805101549c6011610180510154608052601261018051015460c052601361018051015461016052601461018051015461012052601561018051015460e05260405160a05260a0515261010051602060a051015261014051604060a0510152606060a0510152608060a051015260a08051015260c060a051015260e060a051015261010060a051015261012060a051015261014060a051015261016060a051015261018060a05101526101a060a05101526101c060a05101526101e060a051015260805161020060a051015260c05161022060a05101526101605161024060a05101526101205161026060a051015260e05161028060a05101526102a060a051f35b34610351575f366003190112610351576020604051670de0b6b3a76400008152f35b34610351575f366003190112610351576020604051620151808152f35b34610351575f36600319011261035157602060405160028152f35b34610351575f366003190112610351576020603b54604051908152f35b34610351575f366003190112610351576001546040516001600160a01b039091168152602090f35b3461035157602036600319011261035157600435604454811015610351576044548110156104155760445f527f9b22d3d61959b4d3528b1d8ba932c96fbe302b36a1aad1d95cab54f9e0a135ea0154604051908152602090f35b34610351575f36600319011261035157602060405162278d008152f35b3461035157602036600319011261035157600435601754811015610351576017548110156104155760175f527fc624b66cc0138b8fabc209247f72d758e1cf3343756d543badbf24212bed8c150154604051908152602090f35b346103515760203660031901126103515760043560078110156103515760209060180154604051908152f35b34610351576111e936611387565b905f52603360205260405f20805482101561035157602091610384916113dd565b3461035157611218366113f2565b915f52603660205260405f20905f5260205260405f20805482101561035157602091610384916113dd565b346103515761125136611387565b905f52603d60205260405f20805482101561035157602091610384916113dd565b34610351576020366003190112610351576004355f52600c602052602060405f2054604051908152f35b34610351576020366003190112610351576004355f52604a60205260405f20805461050d6001830154926002810154906003810154600482015460058301549060068401549260ff600860078701549601541695604051998a998a61139d565b34610351575f3660031901126103515760206040516127108152f35b346103515761132636611387565b905f52603e60205260405f20905f526020528061050d60405f208054600182015491600360028201549101549260ff808560081c169416928693909594919260809360a0860197865260208601526040850152151560608401521515910152565b6040906003190112610351576004359060243590565b979491926101009794919a9996936101208a019b8a5260208a015260408901526060880152608087015260a086015260c085015260e08401521515910152565b8054821015610415575f5260205f2001905f90565b606090600319011261035157600435906024359060443590565b34610351575f366003190112610351576020604051600a8152f35b34610351575f366003190112610351576020604051600f8152f3fea26469706673582212202907b9ee6b74ce82063dec0ff80de841c98d10f2df9adf798789eaf28c06537c64736f6c634300081e0033",
					"opcodes": "PUSH1 0x80 PUSH1 0x40 MSTORE CALLVALUE PUSH2 0x52B JUMPI PUSH1 0x1 PUSH0 SSTORE PUSH1 0x40 MLOAD PUSH2 0x1E0 DUP2 ADD PUSH1 0x1 PUSH1 0x1 PUSH1 0x40 SHL SUB DUP2 GT DUP3 DUP3 LT OR PUSH2 0x517 JUMPI PUSH1 0x40 MSTORE PUSH8 0xD02AB486CEDC0000 DUP2 MSTORE PUSH9 0x15AF1D78B58C40000 PUSH1 0x20 DUP3 ADD MSTORE PUSH9 0x2B5E3AF16B1880000 PUSH1 0x40 DUP3 ADD MSTORE PUSH9 0x56BC75E2D63100000 PUSH1 0x60 DUP3 ADD MSTORE PUSH9 0xAD78EBC5AC6200000 PUSH1 0x80 DUP3 ADD MSTORE PUSH9 0x15AF1D78B58C400000 PUSH1 0xA0 DUP3 ADD MSTORE PUSH9 0x2B5E3AF16B18800000 PUSH1 0xC0 DUP3 ADD MSTORE PUSH9 0x56BC75E2D631000000 PUSH1 0xE0 DUP3 ADD MSTORE PUSH9 0xAD78EBC5AC62000000 PUSH2 0x100 DUP3 ADD MSTORE PUSH10 0x15AF1D78B58C4000000 PUSH2 0x120 DUP3 ADD MSTORE PUSH10 0x2B5E3AF16B188000000 PUSH2 0x140 DUP3 ADD MSTORE PUSH10 0x56BC75E2D6310000000 PUSH2 0x160 DUP3 ADD MSTORE PUSH10 0xAD78EBC5AC620000000 PUSH2 0x180 DUP3 ADD MSTORE PUSH10 0x15AF1D78B58C40000000 PUSH2 0x1A0 DUP3 ADD MSTORE PUSH10 0x2B5E3AF16B1880000000 PUSH2 0x1C0 DUP3 ADD MSTORE PUSH1 0xD SLOAD PUSH1 0xF PUSH1 0xD SSTORE DUP1 PUSH1 0xF LT PUSH2 0x4C1 JUMPI JUMPDEST POP PUSH1 0xD PUSH0 MSTORE PUSH1 0x20 PUSH0 KECCAK256 SWAP1 PUSH0 JUMPDEST PUSH1 0xF DUP2 LT PUSH2 0x4A4 JUMPI PUSH2 0x141 PUSH2 0x52F JUMP JUMPDEST PUSH9 0x410D586A20A4C0000 DUP2 MSTORE PUSH9 0x1043561A8829300000 PUSH1 0x20 DUP3 ADD MSTORE PUSH9 0x410D586A20A4C00000 PUSH1 0x40 DUP3 ADD MSTORE PUSH10 0x1043561A88293000000 PUSH1 0x60 DUP3 ADD MSTORE PUSH10 0x410D586A20A4C000000 PUSH1 0x80 DUP3 ADD MSTORE PUSH10 0x1043561A882930000000 PUSH1 0xA0 DUP3 ADD MSTORE PUSH10 0x410D586A20A4C0000000 PUSH1 0xC0 DUP3 ADD MSTORE PUSH1 0x16 SLOAD PUSH1 0x7 PUSH1 0x16 SSTORE DUP1 PUSH1 0x7 LT PUSH2 0x44E JUMPI JUMPDEST POP PUSH1 0x16 PUSH0 MSTORE PUSH1 0x20 PUSH0 KECCAK256 SWAP1 PUSH0 JUMPDEST PUSH1 0x7 DUP2 LT PUSH2 0x431 JUMPI PUSH2 0x1D8 PUSH2 0x54E JUMP JUMPDEST PUSH9 0x56BC75E2D63100000 DUP2 MSTORE PUSH9 0xAD78EBC5AC6200000 PUSH1 0x20 DUP3 ADD MSTORE PUSH9 0x15AF1D78B58C400000 PUSH1 0x40 DUP3 ADD MSTORE PUSH9 0x2B5E3AF16B18800000 PUSH1 0x60 DUP3 ADD MSTORE PUSH9 0x56BC75E2D631000000 PUSH1 0x80 DUP3 ADD MSTORE PUSH9 0xAD78EBC5AC62000000 PUSH1 0xA0 DUP3 ADD MSTORE PUSH10 0x15AF1D78B58C4000000 PUSH1 0xC0 DUP3 ADD MSTORE PUSH10 0x2B5E3AF16B188000000 PUSH1 0xE0 DUP3 ADD MSTORE PUSH1 0x17 SLOAD PUSH1 0x8 PUSH1 0x17 SSTORE DUP1 PUSH1 0x8 LT PUSH2 0x3DB JUMPI JUMPDEST POP PUSH1 0x17 PUSH0 MSTORE PUSH1 0x20 PUSH0 KECCAK256 SWAP1 PUSH0 JUMPDEST PUSH1 0x8 DUP2 LT PUSH2 0x3BE JUMPI PUSH2 0x27C PUSH2 0x52F JUMP JUMPDEST PUSH1 0x3 DUP2 MSTORE PUSH1 0x5 PUSH1 0x20 DUP3 ADD MSTORE PUSH1 0x7 PUSH1 0x40 DUP3 ADD MSTORE PUSH1 0x9 PUSH1 0x60 DUP3 ADD MSTORE PUSH1 0xB PUSH1 0x80 DUP3 ADD MSTORE PUSH1 0xD PUSH1 0xA0 DUP3 ADD MSTORE PUSH1 0xF PUSH1 0xC0 DUP3 ADD MSTORE PUSH0 JUMPDEST PUSH1 0x7 DUP2 LT PUSH2 0x3A6 JUMPI PUSH2 0x2BC PUSH2 0x54E JUMP JUMPDEST PUSH1 0x4 DUP2 MSTORE PUSH1 0x5 PUSH1 0x20 DUP3 ADD MSTORE PUSH1 0x6 PUSH1 0x40 DUP3 ADD MSTORE PUSH1 0x7 PUSH1 0x60 DUP3 ADD MSTORE PUSH1 0x8 PUSH1 0x80 DUP3 ADD MSTORE PUSH1 0x9 PUSH1 0xA0 DUP3 ADD MSTORE PUSH1 0xA PUSH1 0xC0 DUP3 ADD MSTORE PUSH1 0xB PUSH1 0xE0 DUP3 ADD MSTORE PUSH0 JUMPDEST PUSH1 0x8 DUP2 LT PUSH2 0x38E JUMPI PUSH2 0x303 PUSH2 0x54E JUMP JUMPDEST PUSH0 DUP2 MSTORE PUSH1 0x1 PUSH1 0x20 DUP3 ADD MSTORE PUSH1 0x1 PUSH1 0x40 DUP3 ADD MSTORE PUSH1 0x1 PUSH1 0x60 DUP3 ADD MSTORE PUSH1 0x1 PUSH1 0x80 DUP3 ADD MSTORE PUSH1 0x1 PUSH1 0xA0 DUP3 ADD MSTORE PUSH1 0x1 PUSH1 0xC0 DUP3 ADD MSTORE PUSH1 0x1 PUSH1 0xE0 DUP3 ADD MSTORE PUSH0 JUMPDEST PUSH1 0x8 DUP2 LT PUSH2 0x376 JUMPI PUSH0 PUSH1 0x39 SSTORE PUSH0 PUSH1 0x3A SSTORE PUSH0 PUSH1 0x3B SSTORE PUSH1 0x1 PUSH1 0x40 SSTORE PUSH0 PUSH1 0x41 SSTORE PUSH0 PUSH1 0x42 SSTORE PUSH1 0x1 PUSH1 0x47 SSTORE PUSH0 PUSH1 0x48 SSTORE PUSH0 PUSH1 0x49 SSTORE PUSH1 0x40 MLOAD PUSH2 0x1478 SWAP1 DUP2 PUSH2 0x585 DUP3 CODECOPY RETURN JUMPDEST PUSH1 0x1 SWAP1 PUSH1 0x20 PUSH1 0xFF DUP5 MLOAD AND SWAP4 ADD SWAP3 DUP2 PUSH1 0x27 ADD SSTORE ADD PUSH2 0x339 JUMP JUMPDEST PUSH1 0x1 SWAP1 PUSH1 0x20 PUSH1 0xFF DUP5 MLOAD AND SWAP4 ADD SWAP3 DUP2 PUSH1 0x1F ADD SSTORE ADD PUSH2 0x2F3 JUMP JUMPDEST PUSH1 0x1 SWAP1 PUSH1 0x20 PUSH1 0xFF DUP5 MLOAD AND SWAP4 ADD SWAP3 DUP2 PUSH1 0x18 ADD SSTORE ADD PUSH2 0x2AC JUMP JUMPDEST DUP2 MLOAD PUSH1 0x1 PUSH1 0x1 PUSH1 0x50 SHL SUB AND DUP2 DUP5 ADD SSTORE PUSH1 0x20 SWAP1 SWAP2 ADD SWAP1 PUSH1 0x1 ADD PUSH2 0x26C JUMP JUMPDEST PUSH1 0x17 PUSH0 MSTORE PUSH2 0x42B SWAP1 PUSH32 0xC624B66CC0138B8FABC209247F72D758E1CF3343756D543BADBF24212BED8C15 ADD PUSH32 0xC624B66CC0138B8FABC209247F72D758E1CF3343756D543BADBF24212BED8C1D PUSH2 0x56E JUMP JUMPDEST DUP2 PUSH2 0x260 JUMP JUMPDEST DUP2 MLOAD PUSH1 0x1 PUSH1 0x1 PUSH1 0x50 SHL SUB AND DUP2 DUP5 ADD SSTORE PUSH1 0x20 SWAP1 SWAP2 ADD SWAP1 PUSH1 0x1 ADD PUSH2 0x1C8 JUMP JUMPDEST PUSH1 0x16 PUSH0 MSTORE PUSH2 0x49E SWAP1 PUSH32 0xD833147D7DC355BA459FC788F669E58CFAF9DC25DDCD0702E87D69C7B5124289 ADD PUSH32 0xD833147D7DC355BA459FC788F669E58CFAF9DC25DDCD0702E87D69C7B5124290 PUSH2 0x56E JUMP JUMPDEST DUP2 PUSH2 0x1BC JUMP JUMPDEST DUP2 MLOAD PUSH1 0x1 PUSH1 0x1 PUSH1 0x50 SHL SUB AND DUP2 DUP5 ADD SSTORE PUSH1 0x20 SWAP1 SWAP2 ADD SWAP1 PUSH1 0x1 ADD PUSH2 0x131 JUMP JUMPDEST PUSH1 0xD PUSH0 MSTORE PUSH2 0x511 SWAP1 PUSH32 0xD7B6990105719101DABEB77144F2A3385C8033ACD3AF97E9423A695E81AD1EB5 ADD PUSH32 0xD7B6990105719101DABEB77144F2A3385C8033ACD3AF97E9423A695E81AD1EC4 PUSH2 0x56E JUMP JUMPDEST PUSH0 PUSH2 0x125 JUMP JUMPDEST PUSH4 0x4E487B71 PUSH1 0xE0 SHL PUSH0 MSTORE PUSH1 0x41 PUSH1 0x4 MSTORE PUSH1 0x24 PUSH0 REVERT JUMPDEST PUSH0 DUP1 REVERT JUMPDEST PUSH1 0x40 MLOAD SWAP1 PUSH1 0xE0 DUP3 ADD PUSH1 0x1 PUSH1 0x1 PUSH1 0x40 SHL SUB DUP2 GT DUP4 DUP3 LT OR PUSH2 0x517 JUMPI PUSH1 0x40 MSTORE JUMP JUMPDEST PUSH1 0x40 MLOAD SWAP1 PUSH2 0x100 DUP3 ADD PUSH1 0x1 PUSH1 0x1 PUSH1 0x40 SHL SUB DUP2 GT DUP4 DUP3 LT OR PUSH2 0x517 JUMPI PUSH1 0x40 MSTORE JUMP JUMPDEST DUP2 DUP2 LT PUSH2 0x579 JUMPI POP POP JUMP JUMPDEST PUSH0 DUP2 SSTORE PUSH1 0x1 ADD PUSH2 0x56E JUMP INVALID PUSH2 0x1A0 DUP1 PUSH1 0x40 MSTORE PUSH1 0x4 CALLDATASIZE LT ISZERO PUSH2 0x13 JUMPI PUSH0 DUP1 REVERT JUMPDEST PUSH0 CALLDATALOAD PUSH1 0xE0 SHR SWAP1 DUP2 PUSH3 0x54815D EQ PUSH2 0x1318 JUMPI POP DUP1 PUSH4 0x1C234A8 EQ PUSH2 0x12FC JUMPI DUP1 PUSH4 0x56B4D1F EQ PUSH2 0x129C JUMPI DUP1 PUSH4 0x676D0D6 EQ PUSH2 0x1272 JUMPI DUP1 PUSH4 0xA5C5D69 EQ PUSH2 0x1243 JUMPI DUP1 PUSH4 0xEF81B74 EQ PUSH2 0x120A JUMPI DUP1 PUSH4 0xF2B7CC9 EQ PUSH2 0x11DB JUMPI DUP1 PUSH4 0x2132D204 EQ PUSH2 0x11AF JUMPI DUP1 PUSH4 0x2350268F EQ PUSH2 0x1155 JUMPI DUP1 PUSH4 0x23FD338E EQ PUSH2 0xC58 JUMPI DUP1 PUSH4 0x2A891534 EQ PUSH2 0x1138 JUMPI DUP1 PUSH4 0x2AE0EE0D EQ PUSH2 0xE87 JUMPI DUP1 PUSH4 0x2D66014F EQ PUSH2 0x10DE JUMPI DUP1 PUSH4 0x2F48AB7D EQ PUSH2 0x10B6 JUMPI DUP1 PUSH4 0x3080B5BC EQ PUSH2 0x1099 JUMPI DUP1 PUSH4 0x31BB6A30 EQ PUSH2 0x107E JUMPI DUP1 PUSH4 0x32BC298C EQ PUSH2 0x1061 JUMPI DUP1 PUSH4 0x32FCD966 EQ PUSH2 0x103F JUMPI DUP1 PUSH4 0x365B98B2 EQ PUSH2 0xE8C JUMPI DUP1 PUSH4 0x375B43B4 EQ PUSH2 0xE87 JUMPI DUP1 PUSH4 0x39AB3603 EQ PUSH2 0xE2D JUMPI DUP1 PUSH4 0x3A5084B3 EQ PUSH2 0xE10 JUMPI DUP1 PUSH4 0x4036436C EQ PUSH2 0xDB1 JUMPI DUP1 PUSH4 0x45CB537C EQ PUSH2 0xD87 JUMPI DUP1 PUSH4 0x46B9DECE EQ PUSH2 0xCE2 JUMPI DUP1 PUSH4 0x4B8CBF9B EQ PUSH2 0xCC5 JUMPI DUP1 PUSH4 0x4D12AE0F EQ PUSH2 0xC96 JUMPI DUP1 PUSH4 0x4D4CC5CA EQ PUSH2 0xC5D JUMPI DUP1 PUSH4 0x58C7D352 EQ PUSH2 0xC58 JUMPI DUP1 PUSH4 0x5AABF7F1 EQ PUSH2 0xC1F JUMPI DUP1 PUSH4 0x5B58CE6C EQ PUSH2 0xBB7 JUMPI DUP1 PUSH4 0x5B62D1D5 EQ PUSH2 0xB9A JUMPI DUP1 PUSH4 0x5EC64A44 EQ PUSH2 0xB6B JUMPI DUP1 PUSH4 0x6A424782 EQ PUSH2 0xB0B JUMPI DUP1 PUSH4 0x705FEE2D EQ PUSH2 0xAED JUMPI DUP1 PUSH4 0x70C8D770 EQ PUSH2 0xA78 JUMPI DUP1 PUSH4 0x76F5F700 EQ PUSH2 0xA5B JUMPI DUP1 PUSH4 0x78F6AD6D EQ PUSH2 0xA3E JUMPI DUP1 PUSH4 0x7CDC65F2 EQ PUSH2 0xA16 JUMPI DUP1 PUSH4 0x88AFBE3E EQ PUSH2 0x9EC JUMPI DUP1 PUSH4 0x89043ECE EQ PUSH2 0x9BD JUMPI DUP1 PUSH4 0x8D58644C EQ PUSH2 0x984 JUMPI DUP1 PUSH4 0x8F030ECE EQ PUSH2 0x94B JUMPI DUP1 PUSH4 0x907C84A7 EQ PUSH2 0x8E0 JUMPI DUP1 PUSH4 0x956A3228 EQ PUSH2 0x8B4 JUMPI DUP1 PUSH4 0x9B40AB97 EQ PUSH2 0x897 JUMPI DUP1 PUSH4 0x9C383486 EQ PUSH2 0x863 JUMPI DUP1 PUSH4 0xA59D17D1 EQ PUSH2 0x846 JUMPI DUP1 PUSH4 0xA5E52B99 EQ PUSH2 0x829 JUMPI DUP1 PUSH4 0xAE4708DC EQ PUSH2 0x7CF JUMPI DUP1 PUSH4 0xBD1AAE40 EQ PUSH2 0x79B JUMPI DUP1 PUSH4 0xBF724672 EQ PUSH2 0x763 JUMPI DUP1 PUSH4 0xBFF1F9E1 EQ PUSH2 0x746 JUMPI DUP1 PUSH4 0xC216212A EQ PUSH2 0x6EC JUMPI DUP1 PUSH4 0xC4EB42A5 EQ PUSH2 0x68C JUMPI DUP1 PUSH4 0xC7BB62E8 EQ PUSH2 0x65D JUMPI DUP1 PUSH4 0xC8DF2908 EQ PUSH2 0x639 JUMPI DUP1 PUSH4 0xC9ED0708 EQ PUSH2 0x61C JUMPI DUP1 PUSH4 0xCA8E9121 EQ PUSH2 0x5FF JUMPI DUP1 PUSH4 0xCB0E0D7D EQ PUSH2 0x5C3 JUMPI DUP1 PUSH4 0xCE79C2C3 EQ PUSH2 0x558 JUMPI DUP1 PUSH4 0xD0A2FD79 EQ PUSH2 0x52C JUMPI DUP1 PUSH4 0xD2F0490D EQ PUSH2 0x511 JUMPI DUP1 PUSH4 0xDB27CC71 EQ PUSH2 0x4AE JUMPI DUP1 PUSH4 0xE898FC38 EQ PUSH2 0x491 JUMPI DUP1 PUSH4 0xE9E34A16 EQ PUSH2 0x469 JUMPI DUP1 PUSH4 0xEBE0FF15 EQ PUSH2 0x446 JUMPI DUP1 PUSH4 0xEC597E6F EQ PUSH2 0x429 JUMPI DUP1 PUSH4 0xF5748C4F EQ PUSH2 0x3BB JUMPI DUP1 PUSH4 0xF5D74D93 EQ PUSH2 0x393 JUMPI DUP1 PUSH4 0xF7A24806 EQ PUSH2 0x355 JUMPI PUSH4 0xFDDC806F EQ PUSH2 0x334 JUMPI PUSH0 DUP1 REVERT JUMPDEST CALLVALUE PUSH2 0x351 JUMPI PUSH0 CALLDATASIZE PUSH1 0x3 NOT ADD SLT PUSH2 0x351 JUMPI PUSH1 0x20 PUSH1 0x3A SLOAD PUSH1 0x40 MLOAD SWAP1 DUP2 MSTORE RETURN JUMPDEST PUSH0 DUP1 REVERT JUMPDEST CALLVALUE PUSH2 0x351 JUMPI PUSH2 0x363 CALLDATASIZE PUSH2 0x1387 JUMP JUMPDEST SWAP1 PUSH0 MSTORE PUSH1 0x46 PUSH1 0x20 MSTORE PUSH1 0x40 PUSH0 KECCAK256 DUP1 SLOAD DUP3 LT ISZERO PUSH2 0x351 JUMPI PUSH1 0x20 SWAP2 PUSH2 0x384 SWAP2 PUSH2 0x13DD JUMP JUMPDEST SWAP1 SLOAD SWAP1 PUSH1 0x3 SHL SHR PUSH1 0x40 MLOAD SWAP1 DUP2 MSTORE RETURN JUMPDEST CALLVALUE PUSH2 0x351 JUMPI PUSH0 CALLDATASIZE PUSH1 0x3 NOT ADD SLT PUSH2 0x351 JUMPI PUSH1 0x4 SLOAD PUSH1 0x40 MLOAD PUSH1 0x1 PUSH1 0x1 PUSH1 0xA0 SHL SUB SWAP1 SWAP2 AND DUP2 MSTORE PUSH1 0x20 SWAP1 RETURN JUMPDEST CALLVALUE PUSH2 0x351 JUMPI PUSH1 0x20 CALLDATASIZE PUSH1 0x3 NOT ADD SLT PUSH2 0x351 JUMPI PUSH1 0x4 CALLDATALOAD PUSH1 0x4B SLOAD DUP2 LT ISZERO PUSH2 0x351 JUMPI PUSH1 0x4B SLOAD DUP2 LT ISZERO PUSH2 0x415 JUMPI PUSH1 0x4B PUSH0 MSTORE PUSH32 0x17B0AF156A929EDF60C351F3DF2D53ED643FDD750AEF9EDA90DC7C8759A104A8 ADD SLOAD PUSH1 0x40 MLOAD SWAP1 DUP2 MSTORE PUSH1 0x20 SWAP1 RETURN JUMPDEST PUSH4 0x4E487B71 PUSH1 0xE0 SHL PUSH0 MSTORE PUSH1 0x32 PUSH1 0x4 MSTORE PUSH1 0x24 PUSH0 REVERT JUMPDEST CALLVALUE PUSH2 0x351 JUMPI PUSH0 CALLDATASIZE PUSH1 0x3 NOT ADD SLT PUSH2 0x351 JUMPI PUSH1 0x20 PUSH1 0x5 SLOAD PUSH1 0x40 MLOAD SWAP1 DUP2 MSTORE RETURN JUMPDEST CALLVALUE PUSH2 0x351 JUMPI PUSH0 CALLDATASIZE PUSH1 0x3 NOT ADD SLT PUSH2 0x351 JUMPI PUSH1 0x20 PUSH1 0x40 MLOAD PUSH9 0x3635C9ADC5DEA00000 DUP2 MSTORE RETURN JUMPDEST CALLVALUE PUSH2 0x351 JUMPI PUSH0 CALLDATASIZE PUSH1 0x3 NOT ADD SLT PUSH2 0x351 JUMPI PUSH1 0x3 SLOAD PUSH1 0x40 MLOAD PUSH1 0x1 PUSH1 0x1 PUSH1 0xA0 SHL SUB SWAP1 SWAP2 AND DUP2 MSTORE PUSH1 0x20 SWAP1 RETURN JUMPDEST CALLVALUE PUSH2 0x351 JUMPI PUSH0 CALLDATASIZE PUSH1 0x3 NOT ADD SLT PUSH2 0x351 JUMPI PUSH1 0x20 PUSH1 0x41 SLOAD PUSH1 0x40 MLOAD SWAP1 DUP2 MSTORE RETURN JUMPDEST CALLVALUE PUSH2 0x351 JUMPI PUSH1 0x20 CALLDATASIZE PUSH1 0x3 NOT ADD SLT PUSH2 0x351 JUMPI PUSH1 0x4 CALLDATALOAD PUSH0 MSTORE PUSH1 0x4C PUSH1 0x20 MSTORE PUSH1 0x40 PUSH0 KECCAK256 DUP1 SLOAD PUSH2 0x50D PUSH1 0x1 DUP4 ADD SLOAD SWAP3 PUSH1 0xFF PUSH1 0x4 PUSH1 0x2 DUP4 ADD SLOAD SWAP3 ADD SLOAD AND SWAP1 PUSH1 0x40 MLOAD SWAP5 DUP6 SWAP5 DUP6 SWAP3 PUSH1 0x60 SWAP3 SWAP6 SWAP5 SWAP2 SWAP6 PUSH1 0x80 DUP6 ADD SWAP7 DUP6 MSTORE PUSH1 0x20 DUP6 ADD MSTORE PUSH1 0x40 DUP5 ADD MSTORE ISZERO ISZERO SWAP2 ADD MSTORE JUMP JUMPDEST SUB SWAP1 RETURN JUMPDEST CALLVALUE PUSH2 0x351 JUMPI PUSH0 CALLDATASIZE PUSH1 0x3 NOT ADD SLT PUSH2 0x351 JUMPI PUSH1 0x20 PUSH1 0x40 MLOAD PUSH1 0x5 DUP2 MSTORE RETURN JUMPDEST CALLVALUE PUSH2 0x351 JUMPI PUSH1 0x20 CALLDATASIZE PUSH1 0x3 NOT ADD SLT PUSH2 0x351 JUMPI PUSH1 0x4 CALLDATALOAD PUSH1 0x8 DUP2 LT ISZERO PUSH2 0x351 JUMPI PUSH1 0x20 SWAP1 PUSH1 0x1F ADD SLOAD PUSH1 0x40 MLOAD SWAP1 DUP2 MSTORE RETURN JUMPDEST CALLVALUE PUSH2 0x351 JUMPI PUSH2 0x566 CALLDATASIZE PUSH2 0x1387 JUMP JUMPDEST SWAP1 PUSH0 MSTORE PUSH1 0x30 PUSH1 0x20 MSTORE PUSH1 0x40 PUSH0 KECCAK256 SWAP1 PUSH0 MSTORE PUSH1 0x20 MSTORE PUSH1 0x40 PUSH0 KECCAK256 DUP1 SLOAD PUSH2 0x50D PUSH1 0x1 DUP4 ADD SLOAD SWAP3 PUSH1 0x2 DUP2 ADD SLOAD SWAP1 PUSH1 0x4 PUSH1 0x3 DUP3 ADD SLOAD SWAP2 ADD SLOAD SWAP2 PUSH1 0x40 MLOAD SWAP6 DUP7 SWAP6 DUP7 SWAP2 SWAP3 PUSH1 0x80 SWAP4 SWAP7 SWAP6 SWAP5 SWAP2 SWAP7 PUSH1 0xA0 DUP5 ADD SWAP8 DUP5 MSTORE PUSH1 0x20 DUP5 ADD MSTORE PUSH1 0x40 DUP4 ADD MSTORE PUSH1 0x60 DUP3 ADD MSTORE ADD MSTORE JUMP JUMPDEST CALLVALUE PUSH2 0x351 JUMPI PUSH1 0x20 CALLDATASIZE PUSH1 0x3 NOT ADD SLT PUSH2 0x351 JUMPI PUSH1 0x4 CALLDATALOAD PUSH1 0x1 PUSH1 0x1 PUSH1 0xA0 SHL SUB DUP2 AND SWAP1 DUP2 SWAP1 SUB PUSH2 0x351 JUMPI PUSH0 MSTORE PUSH1 0xF PUSH1 0x20 MSTORE PUSH1 0x20 PUSH1 0x40 PUSH0 KECCAK256 SLOAD PUSH1 0x40 MLOAD SWAP1 DUP2 MSTORE RETURN JUMPDEST CALLVALUE PUSH2 0x351 JUMPI PUSH0 CALLDATASIZE PUSH1 0x3 NOT ADD SLT PUSH2 0x351 JUMPI PUSH1 0x20 PUSH1 0x39 SLOAD PUSH1 0x40 MLOAD SWAP1 DUP2 MSTORE RETURN JUMPDEST CALLVALUE PUSH2 0x351 JUMPI PUSH0 CALLDATASIZE PUSH1 0x3 NOT ADD SLT PUSH2 0x351 JUMPI PUSH1 0x20 PUSH1 0x40 SLOAD PUSH1 0x40 MLOAD SWAP1 DUP2 MSTORE RETURN JUMPDEST CALLVALUE PUSH2 0x351 JUMPI PUSH0 CALLDATASIZE PUSH1 0x3 NOT ADD SLT PUSH2 0x351 JUMPI PUSH1 0x20 PUSH1 0x40 MLOAD PUSH10 0x21E19E0C9BAB2400000 DUP2 MSTORE RETURN JUMPDEST CALLVALUE PUSH2 0x351 JUMPI PUSH2 0x66B CALLDATASIZE PUSH2 0x1387 JUMP JUMPDEST SWAP1 PUSH0 MSTORE PUSH1 0x37 PUSH1 0x20 MSTORE PUSH1 0x40 PUSH0 KECCAK256 DUP1 SLOAD DUP3 LT ISZERO PUSH2 0x351 JUMPI PUSH1 0x20 SWAP2 PUSH2 0x384 SWAP2 PUSH2 0x13DD JUMP JUMPDEST CALLVALUE PUSH2 0x351 JUMPI PUSH1 0x20 CALLDATASIZE PUSH1 0x3 NOT ADD SLT PUSH2 0x351 JUMPI PUSH1 0x4 CALLDATALOAD PUSH0 MSTORE PUSH1 0x3C PUSH1 0x20 MSTORE PUSH1 0x40 PUSH0 KECCAK256 DUP1 SLOAD PUSH2 0x50D PUSH1 0x1 DUP4 ADD SLOAD SWAP3 PUSH1 0x2 DUP2 ADD SLOAD SWAP1 PUSH1 0x3 DUP2 ADD SLOAD PUSH1 0x4 DUP3 ADD SLOAD PUSH1 0x5 DUP4 ADD SLOAD SWAP1 PUSH1 0x6 DUP5 ADD SLOAD SWAP3 PUSH1 0xFF PUSH1 0x8 PUSH1 0x7 DUP8 ADD SLOAD SWAP7 ADD SLOAD AND SWAP6 PUSH1 0x40 MLOAD SWAP10 DUP11 SWAP10 DUP11 PUSH2 0x139D JUMP JUMPDEST CALLVALUE PUSH2 0x351 JUMPI PUSH1 0x20 CALLDATASIZE PUSH1 0x3 NOT ADD SLT PUSH2 0x351 JUMPI PUSH1 0x4 CALLDATALOAD PUSH1 0xD SLOAD DUP2 LT ISZERO PUSH2 0x351 JUMPI PUSH1 0xD SLOAD DUP2 LT ISZERO PUSH2 0x415 JUMPI PUSH1 0xD PUSH0 MSTORE PUSH32 0xD7B6990105719101DABEB77144F2A3385C8033ACD3AF97E9423A695E81AD1EB5 ADD SLOAD PUSH1 0x40 MLOAD SWAP1 DUP2 MSTORE PUSH1 0x20 SWAP1 RETURN JUMPDEST CALLVALUE PUSH2 0x351 JUMPI PUSH0 CALLDATASIZE PUSH1 0x3 NOT ADD SLT PUSH2 0x351 JUMPI PUSH1 0x20 PUSH1 0x6 SLOAD PUSH1 0x40 MLOAD SWAP1 DUP2 MSTORE RETURN JUMPDEST CALLVALUE PUSH2 0x351 JUMPI PUSH2 0x771 CALLDATASIZE PUSH2 0x1387 JUMP JUMPDEST SWAP1 PUSH0 MSTORE PUSH1 0x2F PUSH1 0x20 MSTORE PUSH1 0x40 PUSH0 KECCAK256 SWAP1 PUSH0 MSTORE PUSH1 0x20 MSTORE PUSH1 0x40 DUP1 PUSH0 KECCAK256 PUSH1 0x1 DUP2 SLOAD SWAP2 ADD SLOAD DUP3 MLOAD SWAP2 DUP3 MSTORE PUSH1 0x20 DUP3 ADD MSTORE RETURN JUMPDEST CALLVALUE PUSH2 0x351 JUMPI PUSH2 0x7A9 CALLDATASIZE PUSH2 0x1387 JUMP JUMPDEST SWAP1 PUSH0 MSTORE PUSH1 0x34 PUSH1 0x20 MSTORE PUSH1 0x40 PUSH0 KECCAK256 SWAP1 PUSH0 MSTORE PUSH1 0x20 MSTORE PUSH1 0x20 PUSH1 0xFF PUSH1 0x40 PUSH0 KECCAK256 SLOAD AND PUSH1 0x40 MLOAD SWAP1 ISZERO ISZERO DUP2 MSTORE RETURN JUMPDEST CALLVALUE PUSH2 0x351 JUMPI PUSH1 0x20 CALLDATASIZE PUSH1 0x3 NOT ADD SLT PUSH2 0x351 JUMPI PUSH1 0x4 CALLDATALOAD PUSH1 0x16 SLOAD DUP2 LT ISZERO PUSH2 0x351 JUMPI PUSH1 0x16 SLOAD DUP2 LT ISZERO PUSH2 0x415 JUMPI PUSH1 0x16 PUSH0 MSTORE PUSH32 0xD833147D7DC355BA459FC788F669E58CFAF9DC25DDCD0702E87D69C7B5124289 ADD SLOAD PUSH1 0x40 MLOAD SWAP1 DUP2 MSTORE PUSH1 0x20 SWAP1 RETURN JUMPDEST CALLVALUE PUSH2 0x351 JUMPI PUSH0 CALLDATASIZE PUSH1 0x3 NOT ADD SLT PUSH2 0x351 JUMPI PUSH1 0x20 PUSH1 0x40 MLOAD PUSH3 0x83D600 DUP2 MSTORE RETURN JUMPDEST CALLVALUE PUSH2 0x351 JUMPI PUSH0 CALLDATASIZE PUSH1 0x3 NOT ADD SLT PUSH2 0x351 JUMPI PUSH1 0x20 PUSH1 0x42 SLOAD PUSH1 0x40 MLOAD SWAP1 DUP2 MSTORE RETURN JUMPDEST CALLVALUE PUSH2 0x351 JUMPI PUSH2 0x871 CALLDATASIZE PUSH2 0x1387 JUMP JUMPDEST SWAP1 PUSH0 MSTORE PUSH1 0x38 PUSH1 0x20 MSTORE PUSH1 0x40 PUSH0 KECCAK256 SWAP1 PUSH0 MSTORE PUSH1 0x20 MSTORE PUSH1 0x20 PUSH1 0xFF PUSH1 0x40 PUSH0 KECCAK256 SLOAD AND PUSH1 0x40 MLOAD SWAP1 ISZERO ISZERO DUP2 MSTORE RETURN JUMPDEST CALLVALUE PUSH2 0x351 JUMPI PUSH0 CALLDATASIZE PUSH1 0x3 NOT ADD SLT PUSH2 0x351 JUMPI PUSH1 0x20 PUSH1 0x48 SLOAD PUSH1 0x40 MLOAD SWAP1 DUP2 MSTORE RETURN JUMPDEST CALLVALUE PUSH2 0x351 JUMPI PUSH1 0x20 CALLDATASIZE PUSH1 0x3 NOT ADD SLT PUSH2 0x351 JUMPI PUSH1 0x4 CALLDATALOAD PUSH1 0x8 DUP2 LT ISZERO PUSH2 0x351 JUMPI PUSH1 0x20 SWAP1 PUSH1 0x27 ADD SLOAD PUSH1 0x40 MLOAD SWAP1 DUP2 MSTORE RETURN JUMPDEST CALLVALUE PUSH2 0x351 JUMPI PUSH2 0x8EE CALLDATASIZE PUSH2 0x1387 JUMP JUMPDEST SWAP1 PUSH0 MSTORE PUSH1 0x35 PUSH1 0x20 MSTORE PUSH1 0x40 PUSH0 KECCAK256 SWAP1 PUSH0 MSTORE PUSH1 0x20 MSTORE PUSH1 0x40 PUSH0 KECCAK256 DUP1 SLOAD PUSH2 0x50D PUSH1 0x1 DUP4 ADD SLOAD SWAP3 PUSH1 0x2 DUP2 ADD SLOAD SWAP1 PUSH1 0x4 PUSH1 0x3 DUP3 ADD SLOAD SWAP2 ADD SLOAD SWAP2 PUSH1 0x40 MLOAD SWAP6 DUP7 SWAP6 DUP7 SWAP2 SWAP3 PUSH1 0x80 SWAP4 SWAP7 SWAP6 SWAP5 SWAP2 SWAP7 PUSH1 0xA0 DUP5 ADD SWAP8 DUP5 MSTORE PUSH1 0x20 DUP5 ADD MSTORE PUSH1 0x40 DUP4 ADD MSTORE PUSH1 0x60 DUP3 ADD MSTORE ADD MSTORE JUMP JUMPDEST CALLVALUE PUSH2 0x351 JUMPI PUSH2 0x959 CALLDATASIZE PUSH2 0x13F2 JUMP JUMPDEST SWAP2 PUSH0 MSTORE PUSH1 0x31 PUSH1 0x20 MSTORE PUSH1 0x40 PUSH0 KECCAK256 SWAP1 PUSH0 MSTORE PUSH1 0x20 MSTORE PUSH1 0x40 PUSH0 KECCAK256 DUP1 SLOAD DUP3 LT ISZERO PUSH2 0x351 JUMPI PUSH1 0x20 SWAP2 PUSH2 0x384 SWAP2 PUSH2 0x13DD JUMP JUMPDEST CALLVALUE PUSH2 0x351 JUMPI PUSH2 0x992 CALLDATASIZE PUSH2 0x13F2 JUMP JUMPDEST SWAP2 PUSH0 MSTORE PUSH1 0x32 PUSH1 0x20 MSTORE PUSH1 0x40 PUSH0 KECCAK256 SWAP1 PUSH0 MSTORE PUSH1 0x20 MSTORE PUSH1 0x40 PUSH0 KECCAK256 DUP1 SLOAD DUP3 LT ISZERO PUSH2 0x351 JUMPI PUSH1 0x20 SWAP2 PUSH2 0x384 SWAP2 PUSH2 0x13DD JUMP JUMPDEST CALLVALUE PUSH2 0x351 JUMPI PUSH2 0x9CB CALLDATASIZE PUSH2 0x1387 JUMP JUMPDEST SWAP1 PUSH0 MSTORE PUSH1 0xB PUSH1 0x20 MSTORE PUSH1 0x40 PUSH0 KECCAK256 SWAP1 PUSH0 MSTORE PUSH1 0x20 MSTORE PUSH1 0x20 PUSH1 0x40 PUSH0 KECCAK256 SLOAD PUSH1 0x40 MLOAD SWAP1 DUP2 MSTORE RETURN JUMPDEST CALLVALUE PUSH2 0x351 JUMPI PUSH1 0x20 CALLDATASIZE PUSH1 0x3 NOT ADD SLT PUSH2 0x351 JUMPI PUSH1 0x4 CALLDATALOAD PUSH0 MSTORE PUSH1 0x14 PUSH1 0x20 MSTORE PUSH1 0x20 PUSH1 0x40 PUSH0 KECCAK256 SLOAD PUSH1 0x40 MLOAD SWAP1 DUP2 MSTORE RETURN JUMPDEST CALLVALUE PUSH2 0x351 JUMPI PUSH0 CALLDATASIZE PUSH1 0x3 NOT ADD SLT PUSH2 0x351 JUMPI PUSH1 0x2 SLOAD PUSH1 0x40 MLOAD PUSH1 0x1 PUSH1 0x1 PUSH1 0xA0 SHL SUB SWAP1 SWAP2 AND DUP2 MSTORE PUSH1 0x20 SWAP1 RETURN JUMPDEST CALLVALUE PUSH2 0x351 JUMPI PUSH0 CALLDATASIZE PUSH1 0x3 NOT ADD SLT PUSH2 0x351 JUMPI PUSH1 0x20 PUSH1 0x9 SLOAD PUSH1 0x40 MLOAD SWAP1 DUP2 MSTORE RETURN JUMPDEST CALLVALUE PUSH2 0x351 JUMPI PUSH0 CALLDATASIZE PUSH1 0x3 NOT ADD SLT PUSH2 0x351 JUMPI PUSH1 0x20 PUSH1 0x40 MLOAD PUSH3 0x93A80 DUP2 MSTORE RETURN JUMPDEST CALLVALUE PUSH2 0x351 JUMPI PUSH2 0xA86 CALLDATASIZE PUSH2 0x1387 JUMP JUMPDEST SWAP1 PUSH0 MSTORE PUSH1 0x12 PUSH1 0x20 MSTORE PUSH1 0x40 PUSH0 KECCAK256 DUP1 SLOAD DUP3 LT ISZERO PUSH2 0x351 JUMPI PUSH0 MSTORE PUSH1 0x5 PUSH1 0x20 PUSH0 KECCAK256 SWAP2 MUL ADD DUP1 SLOAD PUSH2 0x50D PUSH1 0x1 DUP4 ADD SLOAD SWAP3 PUSH1 0x2 DUP2 ADD SLOAD SWAP1 PUSH1 0x4 PUSH1 0x3 DUP3 ADD SLOAD SWAP2 ADD SLOAD SWAP2 PUSH1 0x40 MLOAD SWAP6 DUP7 SWAP6 DUP7 SWAP2 SWAP3 PUSH1 0x80 SWAP4 SWAP7 SWAP6 SWAP5 SWAP2 SWAP7 PUSH1 0xA0 DUP5 ADD SWAP8 DUP5 MSTORE PUSH1 0x20 DUP5 ADD MSTORE PUSH1 0x40 DUP4 ADD MSTORE PUSH1 0x60 DUP3 ADD MSTORE ADD MSTORE JUMP JUMPDEST CALLVALUE PUSH2 0x351 JUMPI PUSH0 CALLDATASIZE PUSH1 0x3 NOT ADD SLT PUSH2 0x351 JUMPI PUSH1 0x20 PUSH1 0x40 MLOAD PUSH4 0x2514300 DUP2 MSTORE RETURN JUMPDEST CALLVALUE PUSH2 0x351 JUMPI PUSH1 0x20 CALLDATASIZE PUSH1 0x3 NOT ADD SLT PUSH2 0x351 JUMPI PUSH1 0x4 CALLDATALOAD PUSH0 MSTORE PUSH1 0x43 PUSH1 0x20 MSTORE PUSH1 0x40 PUSH0 KECCAK256 DUP1 SLOAD PUSH2 0x50D PUSH1 0x1 DUP4 ADD SLOAD SWAP3 PUSH1 0x2 DUP2 ADD SLOAD SWAP1 PUSH1 0x3 DUP2 ADD SLOAD PUSH1 0x4 DUP3 ADD SLOAD PUSH1 0x5 DUP4 ADD SLOAD SWAP1 PUSH1 0x6 DUP5 ADD SLOAD SWAP3 PUSH1 0xFF PUSH1 0x8 PUSH1 0x7 DUP8 ADD SLOAD SWAP7 ADD SLOAD AND SWAP6 PUSH1 0x40 MLOAD SWAP10 DUP11 SWAP10 DUP11 PUSH2 0x139D JUMP JUMPDEST CALLVALUE PUSH2 0x351 JUMPI PUSH2 0xB79 CALLDATASIZE PUSH2 0x1387 JUMP JUMPDEST SWAP1 PUSH0 MSTORE PUSH1 0x15 PUSH1 0x20 MSTORE PUSH1 0x40 PUSH0 KECCAK256 DUP1 SLOAD DUP3 LT ISZERO PUSH2 0x351 JUMPI PUSH1 0x20 SWAP2 PUSH2 0x384 SWAP2 PUSH2 0x13DD JUMP JUMPDEST CALLVALUE PUSH2 0x351 JUMPI PUSH0 CALLDATASIZE PUSH1 0x3 NOT ADD SLT PUSH2 0x351 JUMPI PUSH1 0x20 PUSH1 0x49 SLOAD PUSH1 0x40 MLOAD SWAP1 DUP2 MSTORE RETURN JUMPDEST CALLVALUE PUSH2 0x351 JUMPI PUSH2 0xBC5 CALLDATASIZE PUSH2 0x1387 JUMP JUMPDEST PUSH0 SWAP2 DUP3 MSTORE PUSH1 0xE PUSH1 0x20 SWAP1 DUP2 MSTORE PUSH1 0x40 DUP1 DUP5 KECCAK256 SWAP3 DUP5 MSTORE SWAP2 DUP2 MSTORE SWAP2 DUP2 SWAP1 KECCAK256 DUP1 SLOAD PUSH1 0x1 DUP3 ADD SLOAD PUSH1 0x2 DUP4 ADD SLOAD PUSH1 0x3 SWAP1 SWAP4 ADD SLOAD DUP5 MLOAD SWAP3 DUP4 MSTORE SWAP5 DUP3 ADD MSTORE SWAP2 DUP3 ADD MSTORE PUSH1 0xFF DUP1 DUP4 AND ISZERO ISZERO PUSH1 0x60 DUP4 ADD MSTORE PUSH1 0x8 SWAP3 SWAP1 SWAP3 SHR SWAP1 SWAP2 AND ISZERO ISZERO PUSH1 0x80 DUP3 ADD MSTORE PUSH1 0xA0 SWAP1 RETURN JUMPDEST CALLVALUE PUSH2 0x351 JUMPI PUSH2 0xC2D CALLDATASIZE PUSH2 0x13F2 JUMP JUMPDEST SWAP2 PUSH0 MSTORE PUSH1 0x13 PUSH1 0x20 MSTORE PUSH1 0x40 PUSH0 KECCAK256 SWAP1 PUSH0 MSTORE PUSH1 0x20 MSTORE PUSH1 0x40 PUSH0 KECCAK256 DUP1 SLOAD DUP3 LT ISZERO PUSH2 0x351 JUMPI PUSH1 0x20 SWAP2 PUSH2 0x384 SWAP2 PUSH2 0x13DD JUMP JUMPDEST PUSH2 0x140C JUMP JUMPDEST CALLVALUE PUSH2 0x351 JUMPI PUSH2 0xC6B CALLDATASIZE PUSH2 0x13F2 JUMP JUMPDEST SWAP2 PUSH0 MSTORE PUSH1 0x3F PUSH1 0x20 MSTORE PUSH1 0x40 PUSH0 KECCAK256 SWAP1 PUSH0 MSTORE PUSH1 0x20 MSTORE PUSH1 0x40 PUSH0 KECCAK256 DUP1 SLOAD DUP3 LT ISZERO PUSH2 0x351 JUMPI PUSH1 0x20 SWAP2 PUSH2 0x384 SWAP2 PUSH2 0x13DD JUMP JUMPDEST CALLVALUE PUSH2 0x351 JUMPI PUSH2 0xCA4 CALLDATASIZE PUSH2 0x1387 JUMP JUMPDEST SWAP1 PUSH0 MSTORE PUSH1 0x4D PUSH1 0x20 MSTORE PUSH1 0x40 PUSH0 KECCAK256 DUP1 SLOAD DUP3 LT ISZERO PUSH2 0x351 JUMPI PUSH1 0x20 SWAP2 PUSH2 0x384 SWAP2 PUSH2 0x13DD JUMP JUMPDEST CALLVALUE PUSH2 0x351 JUMPI PUSH0 CALLDATASIZE PUSH1 0x3 NOT ADD SLT PUSH2 0x351 JUMPI PUSH1 0x20 PUSH1 0x47 SLOAD PUSH1 0x40 MLOAD SWAP1 DUP2 MSTORE RETURN JUMPDEST CALLVALUE PUSH2 0x351 JUMPI PUSH1 0x20 CALLDATASIZE PUSH1 0x3 NOT ADD SLT PUSH2 0x351 JUMPI PUSH1 0x4 CALLDATALOAD PUSH0 MSTORE PUSH1 0x11 PUSH1 0x20 MSTORE PUSH2 0x180 PUSH1 0x40 PUSH0 KECCAK256 DUP1 SLOAD SWAP1 PUSH1 0x1 DUP2 ADD SLOAD SWAP1 PUSH1 0x2 DUP2 ADD SLOAD PUSH1 0x3 DUP3 ADD SLOAD PUSH1 0x4 DUP4 ADD SLOAD PUSH1 0x5 DUP5 ADD SLOAD PUSH1 0x6 DUP6 ADD SLOAD SWAP1 PUSH1 0x7 DUP7 ADD SLOAD SWAP3 PUSH1 0x8 DUP8 ADD SLOAD SWAP5 PUSH1 0x9 DUP9 ADD SLOAD SWAP7 PUSH1 0xB PUSH1 0xA DUP11 ADD SLOAD SWAP10 ADD SLOAD SWAP10 PUSH1 0x40 MLOAD SWAP12 DUP13 MSTORE PUSH1 0x20 DUP13 ADD MSTORE PUSH1 0x40 DUP12 ADD MSTORE PUSH1 0x60 DUP11 ADD MSTORE PUSH1 0x80 DUP10 ADD MSTORE PUSH1 0xA0 DUP9 ADD MSTORE PUSH1 0xC0 DUP8 ADD MSTORE PUSH1 0xE0 DUP7 ADD MSTORE PUSH2 0x100 DUP6 ADD MSTORE PUSH2 0x120 DUP5 ADD MSTORE PUSH2 0x140 DUP4 ADD MSTORE PUSH2 0x160 DUP3 ADD MSTORE RETURN JUMPDEST CALLVALUE PUSH2 0x351 JUMPI PUSH1 0x20 CALLDATASIZE PUSH1 0x3 NOT ADD SLT PUSH2 0x351 JUMPI PUSH1 0x4 CALLDATALOAD PUSH0 MSTORE PUSH1 0xA PUSH1 0x20 MSTORE PUSH1 0x20 PUSH1 0x40 PUSH0 KECCAK256 SLOAD PUSH1 0x40 MLOAD SWAP1 DUP2 MSTORE RETURN JUMPDEST CALLVALUE PUSH2 0x351 JUMPI PUSH1 0x20 CALLDATASIZE PUSH1 0x3 NOT ADD SLT PUSH2 0x351 JUMPI PUSH1 0x4 CALLDATALOAD PUSH0 MSTORE PUSH1 0x45 PUSH1 0x20 MSTORE PUSH1 0x40 PUSH0 KECCAK256 DUP1 SLOAD PUSH2 0x50D PUSH1 0x1 DUP4 ADD SLOAD SWAP3 PUSH1 0xFF PUSH1 0x4 PUSH1 0x2 DUP4 ADD SLOAD SWAP3 ADD SLOAD AND SWAP1 PUSH1 0x40 MLOAD SWAP5 DUP6 SWAP5 DUP6 SWAP3 PUSH1 0x60 SWAP3 SWAP6 SWAP5 SWAP2 SWAP6 PUSH1 0x80 DUP6 ADD SWAP7 DUP6 MSTORE PUSH1 0x20 DUP6 ADD MSTORE PUSH1 0x40 DUP5 ADD MSTORE ISZERO ISZERO SWAP2 ADD MSTORE JUMP JUMPDEST CALLVALUE PUSH2 0x351 JUMPI PUSH0 CALLDATASIZE PUSH1 0x3 NOT ADD SLT PUSH2 0x351 JUMPI PUSH1 0x20 PUSH1 0x40 MLOAD PUSH3 0x2A300 DUP2 MSTORE RETURN JUMPDEST CALLVALUE PUSH2 0x351 JUMPI PUSH1 0x20 CALLDATASIZE PUSH1 0x3 NOT ADD SLT PUSH2 0x351 JUMPI PUSH1 0x4 CALLDATALOAD PUSH1 0x7 SLOAD DUP2 LT ISZERO PUSH2 0x351 JUMPI PUSH1 0x7 SLOAD DUP2 LT ISZERO PUSH2 0x415 JUMPI PUSH1 0x7 PUSH0 MSTORE PUSH32 0xA66CC928B5EDB82AF9BD49922954155AB7B0942694BEA4CE44661D9A8736C688 ADD SLOAD PUSH1 0x40 MLOAD SWAP1 DUP2 MSTORE PUSH1 0x20 SWAP1 RETURN JUMPDEST PUSH2 0x1427 JUMP JUMPDEST CALLVALUE PUSH2 0x351 JUMPI PUSH1 0x20 CALLDATASIZE PUSH1 0x3 NOT ADD SLT PUSH2 0x351 JUMPI PUSH1 0x4 CALLDATALOAD PUSH0 MSTORE PUSH1 0x10 PUSH1 0x20 MSTORE PUSH1 0x40 PUSH0 KECCAK256 PUSH2 0x180 MSTORE PUSH1 0x1 DUP1 PUSH1 0xA0 SHL SUB PUSH2 0x180 MLOAD SLOAD AND PUSH1 0x2 PUSH2 0x180 MLOAD ADD SLOAD PUSH2 0x100 MSTORE PUSH1 0x3 PUSH2 0x180 MLOAD ADD SLOAD PUSH2 0x140 MSTORE PUSH1 0x4 PUSH2 0x180 MLOAD ADD SLOAD PUSH1 0x5 PUSH2 0x180 MLOAD ADD SLOAD PUSH1 0x6 PUSH2 0x180 MLOAD ADD SLOAD PUSH1 0x7 PUSH2 0x180 MLOAD ADD SLOAD PUSH1 0x8 PUSH2 0x180 MLOAD ADD SLOAD PUSH1 0x9 PUSH2 0x180 MLOAD ADD SLOAD PUSH1 0xA PUSH2 0x180 MLOAD ADD SLOAD SWAP1 PUSH1 0xB PUSH2 0x180 MLOAD ADD SLOAD SWAP3 PUSH1 0xC PUSH2 0x180 MLOAD ADD SLOAD SWAP5 PUSH1 0xD PUSH2 0x180 MLOAD ADD SLOAD SWAP7 PUSH1 0xE PUSH2 0x180 MLOAD ADD SLOAD SWAP9 PUSH1 0xF PUSH2 0x180 MLOAD ADD SLOAD SWAP11 PUSH1 0x10 PUSH2 0x180 MLOAD ADD SLOAD SWAP13 PUSH1 0x11 PUSH2 0x180 MLOAD ADD SLOAD PUSH1 0x80 MSTORE PUSH1 0x12 PUSH2 0x180 MLOAD ADD SLOAD PUSH1 0xC0 MSTORE PUSH1 0x13 PUSH2 0x180 MLOAD ADD SLOAD PUSH2 0x160 MSTORE PUSH1 0x14 PUSH2 0x180 MLOAD ADD SLOAD PUSH2 0x120 MSTORE PUSH1 0x15 PUSH2 0x180 MLOAD ADD SLOAD PUSH1 0xE0 MSTORE PUSH1 0x40 MLOAD PUSH1 0xA0 MSTORE PUSH1 0xA0 MLOAD MSTORE PUSH2 0x100 MLOAD PUSH1 0x20 PUSH1 0xA0 MLOAD ADD MSTORE PUSH2 0x140 MLOAD PUSH1 0x40 PUSH1 0xA0 MLOAD ADD MSTORE PUSH1 0x60 PUSH1 0xA0 MLOAD ADD MSTORE PUSH1 0x80 PUSH1 0xA0 MLOAD ADD MSTORE PUSH1 0xA0 DUP1 MLOAD ADD MSTORE PUSH1 0xC0 PUSH1 0xA0 MLOAD ADD MSTORE PUSH1 0xE0 PUSH1 0xA0 MLOAD ADD MSTORE PUSH2 0x100 PUSH1 0xA0 MLOAD ADD MSTORE PUSH2 0x120 PUSH1 0xA0 MLOAD ADD MSTORE PUSH2 0x140 PUSH1 0xA0 MLOAD ADD MSTORE PUSH2 0x160 PUSH1 0xA0 MLOAD ADD MSTORE PUSH2 0x180 PUSH1 0xA0 MLOAD ADD MSTORE PUSH2 0x1A0 PUSH1 0xA0 MLOAD ADD MSTORE PUSH2 0x1C0 PUSH1 0xA0 MLOAD ADD MSTORE PUSH2 0x1E0 PUSH1 0xA0 MLOAD ADD MSTORE PUSH1 0x80 MLOAD PUSH2 0x200 PUSH1 0xA0 MLOAD ADD MSTORE PUSH1 0xC0 MLOAD PUSH2 0x220 PUSH1 0xA0 MLOAD ADD MSTORE PUSH2 0x160 MLOAD PUSH2 0x240 PUSH1 0xA0 MLOAD ADD MSTORE PUSH2 0x120 MLOAD PUSH2 0x260 PUSH1 0xA0 MLOAD ADD MSTORE PUSH1 0xE0 MLOAD PUSH2 0x280 PUSH1 0xA0 MLOAD ADD MSTORE PUSH2 0x2A0 PUSH1 0xA0 MLOAD RETURN JUMPDEST CALLVALUE PUSH2 0x351 JUMPI PUSH0 CALLDATASIZE PUSH1 0x3 NOT ADD SLT PUSH2 0x351 JUMPI PUSH1 0x20 PUSH1 0x40 MLOAD PUSH8 0xDE0B6B3A7640000 DUP2 MSTORE RETURN JUMPDEST CALLVALUE PUSH2 0x351 JUMPI PUSH0 CALLDATASIZE PUSH1 0x3 NOT ADD SLT PUSH2 0x351 JUMPI PUSH1 0x20 PUSH1 0x40 MLOAD PUSH3 0x15180 DUP2 MSTORE RETURN JUMPDEST CALLVALUE PUSH2 0x351 JUMPI PUSH0 CALLDATASIZE PUSH1 0x3 NOT ADD SLT PUSH2 0x351 JUMPI PUSH1 0x20 PUSH1 0x40 MLOAD PUSH1 0x2 DUP2 MSTORE RETURN JUMPDEST CALLVALUE PUSH2 0x351 JUMPI PUSH0 CALLDATASIZE PUSH1 0x3 NOT ADD SLT PUSH2 0x351 JUMPI PUSH1 0x20 PUSH1 0x3B SLOAD PUSH1 0x40 MLOAD SWAP1 DUP2 MSTORE RETURN JUMPDEST CALLVALUE PUSH2 0x351 JUMPI PUSH0 CALLDATASIZE PUSH1 0x3 NOT ADD SLT PUSH2 0x351 JUMPI PUSH1 0x1 SLOAD PUSH1 0x40 MLOAD PUSH1 0x1 PUSH1 0x1 PUSH1 0xA0 SHL SUB SWAP1 SWAP2 AND DUP2 MSTORE PUSH1 0x20 SWAP1 RETURN JUMPDEST CALLVALUE PUSH2 0x351 JUMPI PUSH1 0x20 CALLDATASIZE PUSH1 0x3 NOT ADD SLT PUSH2 0x351 JUMPI PUSH1 0x4 CALLDATALOAD PUSH1 0x44 SLOAD DUP2 LT ISZERO PUSH2 0x351 JUMPI PUSH1 0x44 SLOAD DUP2 LT ISZERO PUSH2 0x415 JUMPI PUSH1 0x44 PUSH0 MSTORE PUSH32 0x9B22D3D61959B4D3528B1D8BA932C96FBE302B36A1AAD1D95CAB54F9E0A135EA ADD SLOAD PUSH1 0x40 MLOAD SWAP1 DUP2 MSTORE PUSH1 0x20 SWAP1 RETURN JUMPDEST CALLVALUE PUSH2 0x351 JUMPI PUSH0 CALLDATASIZE PUSH1 0x3 NOT ADD SLT PUSH2 0x351 JUMPI PUSH1 0x20 PUSH1 0x40 MLOAD PUSH3 0x278D00 DUP2 MSTORE RETURN JUMPDEST CALLVALUE PUSH2 0x351 JUMPI PUSH1 0x20 CALLDATASIZE PUSH1 0x3 NOT ADD SLT PUSH2 0x351 JUMPI PUSH1 0x4 CALLDATALOAD PUSH1 0x17 SLOAD DUP2 LT ISZERO PUSH2 0x351 JUMPI PUSH1 0x17 SLOAD DUP2 LT ISZERO PUSH2 0x415 JUMPI PUSH1 0x17 PUSH0 MSTORE PUSH32 0xC624B66CC0138B8FABC209247F72D758E1CF3343756D543BADBF24212BED8C15 ADD SLOAD PUSH1 0x40 MLOAD SWAP1 DUP2 MSTORE PUSH1 0x20 SWAP1 RETURN JUMPDEST CALLVALUE PUSH2 0x351 JUMPI PUSH1 0x20 CALLDATASIZE PUSH1 0x3 NOT ADD SLT PUSH2 0x351 JUMPI PUSH1 0x4 CALLDATALOAD PUSH1 0x7 DUP2 LT ISZERO PUSH2 0x351 JUMPI PUSH1 0x20 SWAP1 PUSH1 0x18 ADD SLOAD PUSH1 0x40 MLOAD SWAP1 DUP2 MSTORE RETURN JUMPDEST CALLVALUE PUSH2 0x351 JUMPI PUSH2 0x11E9 CALLDATASIZE PUSH2 0x1387 JUMP JUMPDEST SWAP1 PUSH0 MSTORE PUSH1 0x33 PUSH1 0x20 MSTORE PUSH1 0x40 PUSH0 KECCAK256 DUP1 SLOAD DUP3 LT ISZERO PUSH2 0x351 JUMPI PUSH1 0x20 SWAP2 PUSH2 0x384 SWAP2 PUSH2 0x13DD JUMP JUMPDEST CALLVALUE PUSH2 0x351 JUMPI PUSH2 0x1218 CALLDATASIZE PUSH2 0x13F2 JUMP JUMPDEST SWAP2 PUSH0 MSTORE PUSH1 0x36 PUSH1 0x20 MSTORE PUSH1 0x40 PUSH0 KECCAK256 SWAP1 PUSH0 MSTORE PUSH1 0x20 MSTORE PUSH1 0x40 PUSH0 KECCAK256 DUP1 SLOAD DUP3 LT ISZERO PUSH2 0x351 JUMPI PUSH1 0x20 SWAP2 PUSH2 0x384 SWAP2 PUSH2 0x13DD JUMP JUMPDEST CALLVALUE PUSH2 0x351 JUMPI PUSH2 0x1251 CALLDATASIZE PUSH2 0x1387 JUMP JUMPDEST SWAP1 PUSH0 MSTORE PUSH1 0x3D PUSH1 0x20 MSTORE PUSH1 0x40 PUSH0 KECCAK256 DUP1 SLOAD DUP3 LT ISZERO PUSH2 0x351 JUMPI PUSH1 0x20 SWAP2 PUSH2 0x384 SWAP2 PUSH2 0x13DD JUMP JUMPDEST CALLVALUE PUSH2 0x351 JUMPI PUSH1 0x20 CALLDATASIZE PUSH1 0x3 NOT ADD SLT PUSH2 0x351 JUMPI PUSH1 0x4 CALLDATALOAD PUSH0 MSTORE PUSH1 0xC PUSH1 0x20 MSTORE PUSH1 0x20 PUSH1 0x40 PUSH0 KECCAK256 SLOAD PUSH1 0x40 MLOAD SWAP1 DUP2 MSTORE RETURN JUMPDEST CALLVALUE PUSH2 0x351 JUMPI PUSH1 0x20 CALLDATASIZE PUSH1 0x3 NOT ADD SLT PUSH2 0x351 JUMPI PUSH1 0x4 CALLDATALOAD PUSH0 MSTORE PUSH1 0x4A PUSH1 0x20 MSTORE PUSH1 0x40 PUSH0 KECCAK256 DUP1 SLOAD PUSH2 0x50D PUSH1 0x1 DUP4 ADD SLOAD SWAP3 PUSH1 0x2 DUP2 ADD SLOAD SWAP1 PUSH1 0x3 DUP2 ADD SLOAD PUSH1 0x4 DUP3 ADD SLOAD PUSH1 0x5 DUP4 ADD SLOAD SWAP1 PUSH1 0x6 DUP5 ADD SLOAD SWAP3 PUSH1 0xFF PUSH1 0x8 PUSH1 0x7 DUP8 ADD SLOAD SWAP7 ADD SLOAD AND SWAP6 PUSH1 0x40 MLOAD SWAP10 DUP11 SWAP10 DUP11 PUSH2 0x139D JUMP JUMPDEST CALLVALUE PUSH2 0x351 JUMPI PUSH0 CALLDATASIZE PUSH1 0x3 NOT ADD SLT PUSH2 0x351 JUMPI PUSH1 0x20 PUSH1 0x40 MLOAD PUSH2 0x2710 DUP2 MSTORE RETURN JUMPDEST CALLVALUE PUSH2 0x351 JUMPI PUSH2 0x1326 CALLDATASIZE PUSH2 0x1387 JUMP JUMPDEST SWAP1 PUSH0 MSTORE PUSH1 0x3E PUSH1 0x20 MSTORE PUSH1 0x40 PUSH0 KECCAK256 SWAP1 PUSH0 MSTORE PUSH1 0x20 MSTORE DUP1 PUSH2 0x50D PUSH1 0x40 PUSH0 KECCAK256 DUP1 SLOAD PUSH1 0x1 DUP3 ADD SLOAD SWAP2 PUSH1 0x3 PUSH1 0x2 DUP3 ADD SLOAD SWAP2 ADD SLOAD SWAP3 PUSH1 0xFF DUP1 DUP6 PUSH1 0x8 SHR AND SWAP5 AND SWAP3 DUP7 SWAP4 SWAP1 SWAP6 SWAP5 SWAP2 SWAP3 PUSH1 0x80 SWAP4 PUSH1 0xA0 DUP7 ADD SWAP8 DUP7 MSTORE PUSH1 0x20 DUP7 ADD MSTORE PUSH1 0x40 DUP6 ADD MSTORE ISZERO ISZERO PUSH1 0x60 DUP5 ADD MSTORE ISZERO ISZERO SWAP2 ADD MSTORE JUMP JUMPDEST PUSH1 0x40 SWAP1 PUSH1 0x3 NOT ADD SLT PUSH2 0x351 JUMPI PUSH1 0x4 CALLDATALOAD SWAP1 PUSH1 0x24 CALLDATALOAD SWAP1 JUMP JUMPDEST SWAP8 SWAP5 SWAP2 SWAP3 PUSH2 0x100 SWAP8 SWAP5 SWAP2 SWAP11 SWAP10 SWAP7 SWAP4 PUSH2 0x120 DUP11 ADD SWAP12 DUP11 MSTORE PUSH1 0x20 DUP11 ADD MSTORE PUSH1 0x40 DUP10 ADD MSTORE PUSH1 0x60 DUP9 ADD MSTORE PUSH1 0x80 DUP8 ADD MSTORE PUSH1 0xA0 DUP7 ADD MSTORE PUSH1 0xC0 DUP6 ADD MSTORE PUSH1 0xE0 DUP5 ADD MSTORE ISZERO ISZERO SWAP2 ADD MSTORE JUMP JUMPDEST DUP1 SLOAD DUP3 LT ISZERO PUSH2 0x415 JUMPI PUSH0 MSTORE PUSH1 0x20 PUSH0 KECCAK256 ADD SWAP1 PUSH0 SWAP1 JUMP JUMPDEST PUSH1 0x60 SWAP1 PUSH1 0x3 NOT ADD SLT PUSH2 0x351 JUMPI PUSH1 0x4 CALLDATALOAD SWAP1 PUSH1 0x24 CALLDATALOAD SWAP1 PUSH1 0x44 CALLDATALOAD SWAP1 JUMP JUMPDEST CALLVALUE PUSH2 0x351 JUMPI PUSH0 CALLDATASIZE PUSH1 0x3 NOT ADD SLT PUSH2 0x351 JUMPI PUSH1 0x20 PUSH1 0x40 MLOAD PUSH1 0xA DUP2 MSTORE RETURN JUMPDEST CALLVALUE PUSH2 0x351 JUMPI PUSH0 CALLDATASIZE PUSH1 0x3 NOT ADD SLT PUSH2 0x351 JUMPI PUSH1 0x20 PUSH1 0x40 MLOAD PUSH1 0xF DUP2 MSTORE RETURN INVALID LOG2 PUSH5 0x6970667358 0x22 SLT KECCAK256 0x29 SMOD 0xB9 RETURNCONTRACT 0x6B PUSH21 0xCE82063DEC0FF80DE841C98D10F2DF9ADF798789EA CALLCODE DUP13 MOD MSTORE8 PUSH29 0x64736F6C634300081E0033000000000000000000000000000000000000 "
				},
				"gasEstimates": {
					"creation": {
						"codeDepositCost": "1048000",
						"executionCost": "infinite",
						"totalCost": "infinite"
					},
					"external": {
						"ACC_PRECISION()": "554",
						"MONTHLY_ROYALTY_DIRECT()": "1544",
						"MONTHLY_ROYALTY_LEVEL()": "390",
						"MONTHLY_ROYALTY_TIME()": "1236",
						"MONTH_DURATION()": "400",
						"PERCENTS_DIVIDER()": "202",
						"ROI_2X_TIME()": "642",
						"ROI_CAP_DIVIDER()": "808",
						"ROI_CAP_MULTIPLIER()": "610",
						"TIME_STEP()": "532",
						"TOP_ROYALTY_DIRECT()": "510",
						"TOP_ROYALTY_LEVEL()": "434",
						"TOP_ROYALTY_TIME()": "928",
						"WEEK_DURATION()": "972",
						"WeeklyCapping()": "1632",
						"WeeklyTotalReward()": "2591",
						"addressToId(address)": "3692",
						"boosterUsers(uint256,uint256)": "7952",
						"communityAccPerPackage(uint256)": "2854",
						"communityAccPerUser()": "3097",
						"communityDebt(uint256,uint256)": "3331",
						"creatorWallet()": "3143",
						"currentMonthlyRound()": "3537",
						"currentMonthlyStartTime()": "3691",
						"currentWeeklyRound()": "3559",
						"currentWeeklyStartTime()": "3842",
						"defaultRefId()": "3757",
						"directReferrals(uint256,uint256)": "7446",
						"glbBoosterPackages(uint256)": "6730",
						"incomeHistory(uint256,uint256)": "13910",
						"matrixDirect(uint256)": "3206",
						"minLevelForGlbBooster(uint256)": "3663",
						"minLevelForPool(uint256)": "2475",
						"minPoolForGlbBooster(uint256)": "3289",
						"monthlyCapping()": "1412",
						"monthlyQualifiedUsers(uint256)": "6818",
						"monthlyRoyaltyUserdtl(uint256)": "9279",
						"monthlyRoyaltydtl(uint256)": "20177",
						"monthlyTotalReward()": "3317",
						"monthlyUserDirects(uint256,uint256)": "8282",
						"packageQualifiedUsers(uint256)": "2414",
						"packages(uint256)": "7720",
						"poolPackages(uint256)": "7632",
						"poolUsers(uint256,uint256)": "6874",
						"registeredUserIds(uint256)": "6994",
						"systemMaintance()": "3737",
						"teamDevelopment()": "3825",
						"teams(uint256,uint256,uint256)": "7450",
						"topRoyaltyQualifiedUsers(uint256)": "8050",
						"topRoyaltyReward()": "2965",
						"topRoyaltyRound()": "2833",
						"topRoyaltyStartTime()": "3273",
						"topRoyaltyUserDirects(uint256,uint256)": "7314",
						"topRoyaltyUserdtl(uint256)": "10181",
						"topRoyaltydtl(uint256)": "19495",
						"totalUsers()": "3427",
						"usdt()": "2593",
						"userBoosterChildren(uint256,uint256,uint256)": "6922",
						"userBoosterdtl(uint256,uint256)": "11962",
						"userChildren(uint256,uint256,uint256)": "7736",
						"userHasPool(uint256,uint256)": "3563",
						"userHasbooster(uint256,uint256)": "3475",
						"userIdPerPool(uint256,uint256,uint256)": "7714",
						"userIncomes(uint256)": "26265",
						"userPackage(uint256,uint256)": "9576",
						"userPooldtl(uint256,uint256)": "12336",
						"userPooltopup(uint256,uint256)": "5700",
						"users(uint256)": "45493",
						"weeklyContestdtl(uint256)": "20639",
						"weeklyQualifiedUsers(uint256,uint256)": "6830",
						"weeklyUserDirects(uint256,uint256,uint256)": "7406",
						"weeklyUserdtl(uint256,uint256)": "8929"
					},
					"internal": {
						"_closeContestRoyalty()": "infinite",
						"_closeMonthlyRoyalty()": "infinite",
						"_closeTopRoyalty()": "infinite",
						"_closeWeeklyContest()": "infinite",
						"_distributeIncome(uint256,uint256,uint256,uint256,enum Storage.IncomeType)": "infinite",
						"_monthlyRoyaltyQualifier(uint256,uint256)": "infinite",
						"_sendToCreator(uint256)": "infinite",
						"_topRoyaltyQualifier(uint256,uint256)": "infinite",
						"_tryMonthlyRoyaltyQualify(uint256,uint256)": "infinite",
						"_tryTopRoyaltyQualify(uint256,uint256)": "infinite",
						"_tryWeeklyContestQualify(uint256,uint256)": "infinite",
						"_weeklyContestQualifier(uint256,uint256)": "infinite"
					}
				},
				"methodIdentifiers": {
					"ACC_PRECISION()": "32fcd966",
					"MONTHLY_ROYALTY_DIRECT()": "d2f0490d",
					"MONTHLY_ROYALTY_LEVEL()": "23fd338e",
					"MONTHLY_ROYALTY_TIME()": "a5e52b99",
					"MONTH_DURATION()": "2a891534",
					"PERCENTS_DIVIDER()": "01c234a8",
					"ROI_2X_TIME()": "3a5084b3",
					"ROI_CAP_DIVIDER()": "58c7d352",
					"ROI_CAP_MULTIPLIER()": "375b43b4",
					"TIME_STEP()": "32bc298c",
					"TOP_ROYALTY_DIRECT()": "31bb6a30",
					"TOP_ROYALTY_LEVEL()": "2ae0ee0d",
					"TOP_ROYALTY_TIME()": "705fee2d",
					"WEEK_DURATION()": "76f5f700",
					"WeeklyCapping()": "ebe0ff15",
					"WeeklyTotalReward()": "3080b5bc",
					"addressToId(address)": "cb0e0d7d",
					"boosterUsers(uint256,uint256)": "c7bb62e8",
					"communityAccPerPackage(uint256)": "45cb537c",
					"communityAccPerUser()": "78f6ad6d",
					"communityDebt(uint256,uint256)": "89043ece",
					"creatorWallet()": "7cdc65f2",
					"currentMonthlyRound()": "c9ed0708",
					"currentMonthlyStartTime()": "e898fc38",
					"currentWeeklyRound()": "ca8e9121",
					"currentWeeklyStartTime()": "fddc806f",
					"defaultRefId()": "ec597e6f",
					"directReferrals(uint256,uint256)": "5ec64a44",
					"glbBoosterPackages(uint256)": "2350268f",
					"incomeHistory(uint256,uint256)": "70c8d770",
					"matrixDirect(uint256)": "88afbe3e",
					"minLevelForGlbBooster(uint256)": "d0a2fd79",
					"minLevelForPool(uint256)": "2132d204",
					"minPoolForGlbBooster(uint256)": "956a3228",
					"monthlyCapping()": "c8df2908",
					"monthlyQualifiedUsers(uint256)": "2d66014f",
					"monthlyRoyaltyUserdtl(uint256)": "4036436c",
					"monthlyRoyaltydtl(uint256)": "6a424782",
					"monthlyTotalReward()": "a59d17d1",
					"monthlyUserDirects(uint256,uint256)": "f7a24806",
					"packageQualifiedUsers(uint256)": "0676d0d6",
					"packages(uint256)": "c216212a",
					"poolPackages(uint256)": "ae4708dc",
					"poolUsers(uint256,uint256)": "0f2b7cc9",
					"registeredUserIds(uint256)": "39ab3603",
					"systemMaintance()": "e9e34a16",
					"teamDevelopment()": "f5d74d93",
					"teams(uint256,uint256,uint256)": "5aabf7f1",
					"topRoyaltyQualifiedUsers(uint256)": "f5748c4f",
					"topRoyaltyReward()": "5b62d1d5",
					"topRoyaltyRound()": "4b8cbf9b",
					"topRoyaltyStartTime()": "9b40ab97",
					"topRoyaltyUserDirects(uint256,uint256)": "4d12ae0f",
					"topRoyaltyUserdtl(uint256)": "db27cc71",
					"topRoyaltydtl(uint256)": "056b4d1f",
					"totalUsers()": "bff1f9e1",
					"usdt()": "2f48ab7d",
					"userBoosterChildren(uint256,uint256,uint256)": "0ef81b74",
					"userBoosterdtl(uint256,uint256)": "907c84a7",
					"userChildren(uint256,uint256,uint256)": "8f030ece",
					"userHasPool(uint256,uint256)": "bd1aae40",
					"userHasbooster(uint256,uint256)": "9c383486",
					"userIdPerPool(uint256,uint256,uint256)": "8d58644c",
					"userIncomes(uint256)": "46b9dece",
					"userPackage(uint256,uint256)": "5b58ce6c",
					"userPooldtl(uint256,uint256)": "ce79c2c3",
					"userPooltopup(uint256,uint256)": "bf724672",
					"users(uint256)": "365b98b2",
					"weeklyContestdtl(uint256)": "c4eb42a5",
					"weeklyQualifiedUsers(uint256,uint256)": "0a5c5d69",
					"weeklyUserDirects(uint256,uint256,uint256)": "4d4cc5ca",
					"weeklyUserdtl(uint256,uint256)": "0054815d"
				}
			},
			"storageLayout": {
				"storage": [
					{
						"astId": 100,
						"contract": "contracts/modules/Storage.sol:Storage",
						"label": "_status",
						"offset": 0,
						"slot": "0",
						"type": "t_uint256"
					},
					{
						"astId": 722,
						"contract": "contracts/modules/Storage.sol:Storage",
						"label": "usdt",
						"offset": 0,
						"slot": "1",
						"type": "t_contract(IERC20)232"
					},
					{
						"astId": 724,
						"contract": "contracts/modules/Storage.sol:Storage",
						"label": "creatorWallet",
						"offset": 0,
						"slot": "2",
						"type": "t_address"
					},
					{
						"astId": 726,
						"contract": "contracts/modules/Storage.sol:Storage",
						"label": "systemMaintance",
						"offset": 0,
						"slot": "3",
						"type": "t_address"
					},
					{
						"astId": 728,
						"contract": "contracts/modules/Storage.sol:Storage",
						"label": "teamDevelopment",
						"offset": 0,
						"slot": "4",
						"type": "t_address"
					},
					{
						"astId": 730,
						"contract": "contracts/modules/Storage.sol:Storage",
						"label": "defaultRefId",
						"offset": 0,
						"slot": "5",
						"type": "t_uint256"
					},
					{
						"astId": 732,
						"contract": "contracts/modules/Storage.sol:Storage",
						"label": "totalUsers",
						"offset": 0,
						"slot": "6",
						"type": "t_uint256"
					},
					{
						"astId": 771,
						"contract": "contracts/modules/Storage.sol:Storage",
						"label": "registeredUserIds",
						"offset": 0,
						"slot": "7",
						"type": "t_array(t_uint256)dyn_storage"
					},
					{
						"astId": 773,
						"contract": "contracts/modules/Storage.sol:Storage",
						"label": "nonce",
						"offset": 0,
						"slot": "8",
						"type": "t_uint256"
					},
					{
						"astId": 778,
						"contract": "contracts/modules/Storage.sol:Storage",
						"label": "communityAccPerUser",
						"offset": 0,
						"slot": "9",
						"type": "t_uint256"
					},
					{
						"astId": 782,
						"contract": "contracts/modules/Storage.sol:Storage",
						"label": "communityAccPerPackage",
						"offset": 0,
						"slot": "10",
						"type": "t_mapping(t_uint256,t_uint256)"
					},
					{
						"astId": 788,
						"contract": "contracts/modules/Storage.sol:Storage",
						"label": "communityDebt",
						"offset": 0,
						"slot": "11",
						"type": "t_mapping(t_uint256,t_mapping(t_uint256,t_uint256))"
					},
					{
						"astId": 792,
						"contract": "contracts/modules/Storage.sol:Storage",
						"label": "packageQualifiedUsers",
						"offset": 0,
						"slot": "12",
						"type": "t_mapping(t_uint256,t_uint256)"
					},
					{
						"astId": 841,
						"contract": "contracts/modules/Storage.sol:Storage",
						"label": "packages",
						"offset": 0,
						"slot": "13",
						"type": "t_array(t_uint256)dyn_storage"
					},
					{
						"astId": 962,
						"contract": "contracts/modules/Storage.sol:Storage",
						"label": "userPackage",
						"offset": 0,
						"slot": "14",
						"type": "t_mapping(t_uint256,t_mapping(t_uint256,t_struct(UserPackage)933_storage))"
					},
					{
						"astId": 966,
						"contract": "contracts/modules/Storage.sol:Storage",
						"label": "addressToId",
						"offset": 0,
						"slot": "15",
						"type": "t_mapping(t_address,t_uint256)"
					},
					{
						"astId": 971,
						"contract": "contracts/modules/Storage.sol:Storage",
						"label": "users",
						"offset": 0,
						"slot": "16",
						"type": "t_mapping(t_uint256,t_struct(User)897_storage)"
					},
					{
						"astId": 976,
						"contract": "contracts/modules/Storage.sol:Storage",
						"label": "userIncomes",
						"offset": 0,
						"slot": "17",
						"type": "t_mapping(t_uint256,t_struct(UserIncome)922_storage)"
					},
					{
						"astId": 982,
						"contract": "contracts/modules/Storage.sol:Storage",
						"label": "incomeHistory",
						"offset": 0,
						"slot": "18",
						"type": "t_mapping(t_uint256,t_array(t_struct(Income)944_storage)dyn_storage)"
					},
					{
						"astId": 989,
						"contract": "contracts/modules/Storage.sol:Storage",
						"label": "teams",
						"offset": 0,
						"slot": "19",
						"type": "t_mapping(t_uint256,t_mapping(t_uint256,t_array(t_uint256)dyn_storage))"
					},
					{
						"astId": 993,
						"contract": "contracts/modules/Storage.sol:Storage",
						"label": "matrixDirect",
						"offset": 0,
						"slot": "20",
						"type": "t_mapping(t_uint256,t_uint256)"
					},
					{
						"astId": 998,
						"contract": "contracts/modules/Storage.sol:Storage",
						"label": "directReferrals",
						"offset": 0,
						"slot": "21",
						"type": "t_mapping(t_uint256,t_array(t_uint256)dyn_storage)"
					},
					{
						"astId": 1102,
						"contract": "contracts/modules/Storage.sol:Storage",
						"label": "poolPackages",
						"offset": 0,
						"slot": "22",
						"type": "t_array(t_uint256)dyn_storage"
					},
					{
						"astId": 1114,
						"contract": "contracts/modules/Storage.sol:Storage",
						"label": "glbBoosterPackages",
						"offset": 0,
						"slot": "23",
						"type": "t_array(t_uint256)dyn_storage"
					},
					{
						"astId": 1126,
						"contract": "contracts/modules/Storage.sol:Storage",
						"label": "minLevelForPool",
						"offset": 0,
						"slot": "24",
						"type": "t_array(t_uint256)7_storage"
					},
					{
						"astId": 1139,
						"contract": "contracts/modules/Storage.sol:Storage",
						"label": "minLevelForGlbBooster",
						"offset": 0,
						"slot": "31",
						"type": "t_array(t_uint256)8_storage"
					},
					{
						"astId": 1152,
						"contract": "contracts/modules/Storage.sol:Storage",
						"label": "minPoolForGlbBooster",
						"offset": 0,
						"slot": "39",
						"type": "t_array(t_uint256)8_storage"
					},
					{
						"astId": 1186,
						"contract": "contracts/modules/Storage.sol:Storage",
						"label": "userPooltopup",
						"offset": 0,
						"slot": "47",
						"type": "t_mapping(t_uint256,t_mapping(t_uint256,t_struct(UserPoolTopup)1168_storage))"
					},
					{
						"astId": 1193,
						"contract": "contracts/modules/Storage.sol:Storage",
						"label": "userPooldtl",
						"offset": 0,
						"slot": "48",
						"type": "t_mapping(t_uint256,t_mapping(t_uint256,t_struct(UserPool)1163_storage))"
					},
					{
						"astId": 1200,
						"contract": "contracts/modules/Storage.sol:Storage",
						"label": "userChildren",
						"offset": 0,
						"slot": "49",
						"type": "t_mapping(t_uint256,t_mapping(t_uint256,t_array(t_uint256)dyn_storage))"
					},
					{
						"astId": 1207,
						"contract": "contracts/modules/Storage.sol:Storage",
						"label": "userIdPerPool",
						"offset": 0,
						"slot": "50",
						"type": "t_mapping(t_uint256,t_mapping(t_uint256,t_array(t_uint256)dyn_storage))"
					},
					{
						"astId": 1212,
						"contract": "contracts/modules/Storage.sol:Storage",
						"label": "poolUsers",
						"offset": 0,
						"slot": "51",
						"type": "t_mapping(t_uint256,t_array(t_uint256)dyn_storage)"
					},
					{
						"astId": 1218,
						"contract": "contracts/modules/Storage.sol:Storage",
						"label": "userHasPool",
						"offset": 0,
						"slot": "52",
						"type": "t_mapping(t_uint256,t_mapping(t_uint256,t_bool))"
					},
					{
						"astId": 1225,
						"contract": "contracts/modules/Storage.sol:Storage",
						"label": "userBoosterdtl",
						"offset": 0,
						"slot": "53",
						"type": "t_mapping(t_uint256,t_mapping(t_uint256,t_struct(UserBooster)1179_storage))"
					},
					{
						"astId": 1232,
						"contract": "contracts/modules/Storage.sol:Storage",
						"label": "userBoosterChildren",
						"offset": 0,
						"slot": "54",
						"type": "t_mapping(t_uint256,t_mapping(t_uint256,t_array(t_uint256)dyn_storage))"
					},
					{
						"astId": 1237,
						"contract": "contracts/modules/Storage.sol:Storage",
						"label": "boosterUsers",
						"offset": 0,
						"slot": "55",
						"type": "t_mapping(t_uint256,t_array(t_uint256)dyn_storage)"
					},
					{
						"astId": 1243,
						"contract": "contracts/modules/Storage.sol:Storage",
						"label": "userHasbooster",
						"offset": 0,
						"slot": "56",
						"type": "t_mapping(t_uint256,t_mapping(t_uint256,t_bool))"
					},
					{
						"astId": 1252,
						"contract": "contracts/modules/Storage.sol:Storage",
						"label": "currentWeeklyRound",
						"offset": 0,
						"slot": "57",
						"type": "t_uint256"
					},
					{
						"astId": 1255,
						"contract": "contracts/modules/Storage.sol:Storage",
						"label": "currentWeeklyStartTime",
						"offset": 0,
						"slot": "58",
						"type": "t_uint256"
					},
					{
						"astId": 1258,
						"contract": "contracts/modules/Storage.sol:Storage",
						"label": "WeeklyTotalReward",
						"offset": 0,
						"slot": "59",
						"type": "t_uint256"
					},
					{
						"astId": 1293,
						"contract": "contracts/modules/Storage.sol:Storage",
						"label": "weeklyContestdtl",
						"offset": 0,
						"slot": "60",
						"type": "t_mapping(t_uint256,t_struct(WeeklyContest)1277_storage)"
					},
					{
						"astId": 1298,
						"contract": "contracts/modules/Storage.sol:Storage",
						"label": "weeklyQualifiedUsers",
						"offset": 0,
						"slot": "61",
						"type": "t_mapping(t_uint256,t_array(t_uint256)dyn_storage)"
					},
					{
						"astId": 1305,
						"contract": "contracts/modules/Storage.sol:Storage",
						"label": "weeklyUserdtl",
						"offset": 0,
						"slot": "62",
						"type": "t_mapping(t_uint256,t_mapping(t_uint256,t_struct(weeklyUser)1288_storage))"
					},
					{
						"astId": 1312,
						"contract": "contracts/modules/Storage.sol:Storage",
						"label": "weeklyUserDirects",
						"offset": 0,
						"slot": "63",
						"type": "t_mapping(t_uint256,t_mapping(t_uint256,t_array(t_uint256)dyn_storage))"
					},
					{
						"astId": 1355,
						"contract": "contracts/modules/Storage.sol:Storage",
						"label": "currentMonthlyRound",
						"offset": 0,
						"slot": "64",
						"type": "t_uint256"
					},
					{
						"astId": 1358,
						"contract": "contracts/modules/Storage.sol:Storage",
						"label": "currentMonthlyStartTime",
						"offset": 0,
						"slot": "65",
						"type": "t_uint256"
					},
					{
						"astId": 1361,
						"contract": "contracts/modules/Storage.sol:Storage",
						"label": "monthlyTotalReward",
						"offset": 0,
						"slot": "66",
						"type": "t_uint256"
					},
					{
						"astId": 1398,
						"contract": "contracts/modules/Storage.sol:Storage",
						"label": "monthlyRoyaltydtl",
						"offset": 0,
						"slot": "67",
						"type": "t_mapping(t_uint256,t_struct(monthlyRoyalty)1380_storage)"
					},
					{
						"astId": 1401,
						"contract": "contracts/modules/Storage.sol:Storage",
						"label": "monthlyQualifiedUsers",
						"offset": 0,
						"slot": "68",
						"type": "t_array(t_uint256)dyn_storage"
					},
					{
						"astId": 1406,
						"contract": "contracts/modules/Storage.sol:Storage",
						"label": "monthlyRoyaltyUserdtl",
						"offset": 0,
						"slot": "69",
						"type": "t_mapping(t_uint256,t_struct(monthlyRoyaltyUser)1393_storage)"
					},
					{
						"astId": 1411,
						"contract": "contracts/modules/Storage.sol:Storage",
						"label": "monthlyUserDirects",
						"offset": 0,
						"slot": "70",
						"type": "t_mapping(t_uint256,t_array(t_uint256)dyn_storage)"
					},
					{
						"astId": 1448,
						"contract": "contracts/modules/Storage.sol:Storage",
						"label": "topRoyaltyRound",
						"offset": 0,
						"slot": "71",
						"type": "t_uint256"
					},
					{
						"astId": 1451,
						"contract": "contracts/modules/Storage.sol:Storage",
						"label": "topRoyaltyStartTime",
						"offset": 0,
						"slot": "72",
						"type": "t_uint256"
					},
					{
						"astId": 1454,
						"contract": "contracts/modules/Storage.sol:Storage",
						"label": "topRoyaltyReward",
						"offset": 0,
						"slot": "73",
						"type": "t_uint256"
					},
					{
						"astId": 1491,
						"contract": "contracts/modules/Storage.sol:Storage",
						"label": "topRoyaltydtl",
						"offset": 0,
						"slot": "74",
						"type": "t_mapping(t_uint256,t_struct(topRoyalty)1473_storage)"
					},
					{
						"astId": 1494,
						"contract": "contracts/modules/Storage.sol:Storage",
						"label": "topRoyaltyQualifiedUsers",
						"offset": 0,
						"slot": "75",
						"type": "t_array(t_uint256)dyn_storage"
					},
					{
						"astId": 1499,
						"contract": "contracts/modules/Storage.sol:Storage",
						"label": "topRoyaltyUserdtl",
						"offset": 0,
						"slot": "76",
						"type": "t_mapping(t_uint256,t_struct(topRoyaltyUser)1486_storage)"
					},
					{
						"astId": 1504,
						"contract": "contracts/modules/Storage.sol:Storage",
						"label": "topRoyaltyUserDirects",
						"offset": 0,
						"slot": "77",
						"type": "t_mapping(t_uint256,t_array(t_uint256)dyn_storage)"
					}
				],
				"types": {
					"t_address": {
						"encoding": "inplace",
						"label": "address",
						"numberOfBytes": "20"
					},
					"t_array(t_struct(Deposit)850_storage)dyn_storage": {
						"base": "t_struct(Deposit)850_storage",
						"encoding": "dynamic_array",
						"label": "struct Storage.Deposit[]",
						"numberOfBytes": "32"
					},
					"t_array(t_struct(Income)944_storage)dyn_storage": {
						"base": "t_struct(Income)944_storage",
						"encoding": "dynamic_array",
						"label": "struct Storage.Income[]",
						"numberOfBytes": "32"
					},
					"t_array(t_uint256)7_storage": {
						"base": "t_uint256",
						"encoding": "inplace",
						"label": "uint256[7]",
						"numberOfBytes": "224"
					},
					"t_array(t_uint256)8_storage": {
						"base": "t_uint256",
						"encoding": "inplace",
						"label": "uint256[8]",
						"numberOfBytes": "256"
					},
					"t_array(t_uint256)dyn_storage": {
						"base": "t_uint256",
						"encoding": "dynamic_array",
						"label": "uint256[]",
						"numberOfBytes": "32"
					},
					"t_bool": {
						"encoding": "inplace",
						"label": "bool",
						"numberOfBytes": "1"
					},
					"t_contract(IERC20)232": {
						"encoding": "inplace",
						"label": "contract IERC20",
						"numberOfBytes": "20"
					},
					"t_mapping(t_address,t_uint256)": {
						"encoding": "mapping",
						"key": "t_address",
						"label": "mapping(address => uint256)",
						"numberOfBytes": "32",
						"value": "t_uint256"
					},
					"t_mapping(t_uint256,t_array(t_struct(Income)944_storage)dyn_storage)": {
						"encoding": "mapping",
						"key": "t_uint256",
						"label": "mapping(uint256 => struct Storage.Income[])",
						"numberOfBytes": "32",
						"value": "t_array(t_struct(Income)944_storage)dyn_storage"
					},
					"t_mapping(t_uint256,t_array(t_uint256)dyn_storage)": {
						"encoding": "mapping",
						"key": "t_uint256",
						"label": "mapping(uint256 => uint256[])",
						"numberOfBytes": "32",
						"value": "t_array(t_uint256)dyn_storage"
					},
					"t_mapping(t_uint256,t_bool)": {
						"encoding": "mapping",
						"key": "t_uint256",
						"label": "mapping(uint256 => bool)",
						"numberOfBytes": "32",
						"value": "t_bool"
					},
					"t_mapping(t_uint256,t_mapping(t_uint256,t_array(t_uint256)dyn_storage))": {
						"encoding": "mapping",
						"key": "t_uint256",
						"label": "mapping(uint256 => mapping(uint256 => uint256[]))",
						"numberOfBytes": "32",
						"value": "t_mapping(t_uint256,t_array(t_uint256)dyn_storage)"
					},
					"t_mapping(t_uint256,t_mapping(t_uint256,t_bool))": {
						"encoding": "mapping",
						"key": "t_uint256",
						"label": "mapping(uint256 => mapping(uint256 => bool))",
						"numberOfBytes": "32",
						"value": "t_mapping(t_uint256,t_bool)"
					},
					"t_mapping(t_uint256,t_mapping(t_uint256,t_struct(UserBooster)1179_storage))": {
						"encoding": "mapping",
						"key": "t_uint256",
						"label": "mapping(uint256 => mapping(uint256 => struct Storage.UserBooster))",
						"numberOfBytes": "32",
						"value": "t_mapping(t_uint256,t_struct(UserBooster)1179_storage)"
					},
					"t_mapping(t_uint256,t_mapping(t_uint256,t_struct(UserPackage)933_storage))": {
						"encoding": "mapping",
						"key": "t_uint256",
						"label": "mapping(uint256 => mapping(uint256 => struct Storage.UserPackage))",
						"numberOfBytes": "32",
						"value": "t_mapping(t_uint256,t_struct(UserPackage)933_storage)"
					},
					"t_mapping(t_uint256,t_mapping(t_uint256,t_struct(UserPool)1163_storage))": {
						"encoding": "mapping",
						"key": "t_uint256",
						"label": "mapping(uint256 => mapping(uint256 => struct Storage.UserPool))",
						"numberOfBytes": "32",
						"value": "t_mapping(t_uint256,t_struct(UserPool)1163_storage)"
					},
					"t_mapping(t_uint256,t_mapping(t_uint256,t_struct(UserPoolTopup)1168_storage))": {
						"encoding": "mapping",
						"key": "t_uint256",
						"label": "mapping(uint256 => mapping(uint256 => struct Storage.UserPoolTopup))",
						"numberOfBytes": "32",
						"value": "t_mapping(t_uint256,t_struct(UserPoolTopup)1168_storage)"
					},
					"t_mapping(t_uint256,t_mapping(t_uint256,t_struct(weeklyUser)1288_storage))": {
						"encoding": "mapping",
						"key": "t_uint256",
						"label": "mapping(uint256 => mapping(uint256 => struct Storage.weeklyUser))",
						"numberOfBytes": "32",
						"value": "t_mapping(t_uint256,t_struct(weeklyUser)1288_storage)"
					},
					"t_mapping(t_uint256,t_mapping(t_uint256,t_uint256))": {
						"encoding": "mapping",
						"key": "t_uint256",
						"label": "mapping(uint256 => mapping(uint256 => uint256))",
						"numberOfBytes": "32",
						"value": "t_mapping(t_uint256,t_uint256)"
					},
					"t_mapping(t_uint256,t_struct(User)897_storage)": {
						"encoding": "mapping",
						"key": "t_uint256",
						"label": "mapping(uint256 => struct Storage.User)",
						"numberOfBytes": "32",
						"value": "t_struct(User)897_storage"
					},
					"t_mapping(t_uint256,t_struct(UserBooster)1179_storage)": {
						"encoding": "mapping",
						"key": "t_uint256",
						"label": "mapping(uint256 => struct Storage.UserBooster)",
						"numberOfBytes": "32",
						"value": "t_struct(UserBooster)1179_storage"
					},
					"t_mapping(t_uint256,t_struct(UserIncome)922_storage)": {
						"encoding": "mapping",
						"key": "t_uint256",
						"label": "mapping(uint256 => struct Storage.UserIncome)",
						"numberOfBytes": "32",
						"value": "t_struct(UserIncome)922_storage"
					},
					"t_mapping(t_uint256,t_struct(UserPackage)933_storage)": {
						"encoding": "mapping",
						"key": "t_uint256",
						"label": "mapping(uint256 => struct Storage.UserPackage)",
						"numberOfBytes": "32",
						"value": "t_struct(UserPackage)933_storage"
					},
					"t_mapping(t_uint256,t_struct(UserPool)1163_storage)": {
						"encoding": "mapping",
						"key": "t_uint256",
						"label": "mapping(uint256 => struct Storage.UserPool)",
						"numberOfBytes": "32",
						"value": "t_struct(UserPool)1163_storage"
					},
					"t_mapping(t_uint256,t_struct(UserPoolTopup)1168_storage)": {
						"encoding": "mapping",
						"key": "t_uint256",
						"label": "mapping(uint256 => struct Storage.UserPoolTopup)",
						"numberOfBytes": "32",
						"value": "t_struct(UserPoolTopup)1168_storage"
					},
					"t_mapping(t_uint256,t_struct(WeeklyContest)1277_storage)": {
						"encoding": "mapping",
						"key": "t_uint256",
						"label": "mapping(uint256 => struct Storage.WeeklyContest)",
						"numberOfBytes": "32",
						"value": "t_struct(WeeklyContest)1277_storage"
					},
					"t_mapping(t_uint256,t_struct(monthlyRoyalty)1380_storage)": {
						"encoding": "mapping",
						"key": "t_uint256",
						"label": "mapping(uint256 => struct Storage.monthlyRoyalty)",
						"numberOfBytes": "32",
						"value": "t_struct(monthlyRoyalty)1380_storage"
					},
					"t_mapping(t_uint256,t_struct(monthlyRoyaltyUser)1393_storage)": {
						"encoding": "mapping",
						"key": "t_uint256",
						"label": "mapping(uint256 => struct Storage.monthlyRoyaltyUser)",
						"numberOfBytes": "32",
						"value": "t_struct(monthlyRoyaltyUser)1393_storage"
					},
					"t_mapping(t_uint256,t_struct(topRoyalty)1473_storage)": {
						"encoding": "mapping",
						"key": "t_uint256",
						"label": "mapping(uint256 => struct Storage.topRoyalty)",
						"numberOfBytes": "32",
						"value": "t_struct(topRoyalty)1473_storage"
					},
					"t_mapping(t_uint256,t_struct(topRoyaltyUser)1486_storage)": {
						"encoding": "mapping",
						"key": "t_uint256",
						"label": "mapping(uint256 => struct Storage.topRoyaltyUser)",
						"numberOfBytes": "32",
						"value": "t_struct(topRoyaltyUser)1486_storage"
					},
					"t_mapping(t_uint256,t_struct(weeklyUser)1288_storage)": {
						"encoding": "mapping",
						"key": "t_uint256",
						"label": "mapping(uint256 => struct Storage.weeklyUser)",
						"numberOfBytes": "32",
						"value": "t_struct(weeklyUser)1288_storage"
					},
					"t_mapping(t_uint256,t_uint256)": {
						"encoding": "mapping",
						"key": "t_uint256",
						"label": "mapping(uint256 => uint256)",
						"numberOfBytes": "32",
						"value": "t_uint256"
					},
					"t_struct(Deposit)850_storage": {
						"encoding": "inplace",
						"label": "struct Storage.Deposit",
						"members": [
							{
								"astId": 843,
								"contract": "contracts/modules/Storage.sol:Storage",
								"label": "amount",
								"offset": 0,
								"slot": "0",
								"type": "t_uint256"
							},
							{
								"astId": 845,
								"contract": "contracts/modules/Storage.sol:Storage",
								"label": "withdrawn",
								"offset": 0,
								"slot": "1",
								"type": "t_uint256"
							},
							{
								"astId": 847,
								"contract": "contracts/modules/Storage.sol:Storage",
								"label": "start",
								"offset": 0,
								"slot": "2",
								"type": "t_uint256"
							},
							{
								"astId": 849,
								"contract": "contracts/modules/Storage.sol:Storage",
								"label": "depositType",
								"offset": 0,
								"slot": "3",
								"type": "t_uint8"
							}
						],
						"numberOfBytes": "128"
					},
					"t_struct(Income)944_storage": {
						"encoding": "inplace",
						"label": "struct Storage.Income",
						"members": [
							{
								"astId": 935,
								"contract": "contracts/modules/Storage.sol:Storage",
								"label": "fromUserId",
								"offset": 0,
								"slot": "0",
								"type": "t_uint256"
							},
							{
								"astId": 937,
								"contract": "contracts/modules/Storage.sol:Storage",
								"label": "amount",
								"offset": 0,
								"slot": "1",
								"type": "t_uint256"
							},
							{
								"astId": 939,
								"contract": "contracts/modules/Storage.sol:Storage",
								"label": "packageLevel",
								"offset": 0,
								"slot": "2",
								"type": "t_uint256"
							},
							{
								"astId": 941,
								"contract": "contracts/modules/Storage.sol:Storage",
								"label": "timestamp",
								"offset": 0,
								"slot": "3",
								"type": "t_uint256"
							},
							{
								"astId": 943,
								"contract": "contracts/modules/Storage.sol:Storage",
								"label": "incomeType",
								"offset": 0,
								"slot": "4",
								"type": "t_uint256"
							}
						],
						"numberOfBytes": "160"
					},
					"t_struct(User)897_storage": {
						"encoding": "inplace",
						"label": "struct Storage.User",
						"members": [
							{
								"astId": 852,
								"contract": "contracts/modules/Storage.sol:Storage",
								"label": "account",
								"offset": 0,
								"slot": "0",
								"type": "t_address"
							},
							{
								"astId": 856,
								"contract": "contracts/modules/Storage.sol:Storage",
								"label": "deposits",
								"offset": 0,
								"slot": "1",
								"type": "t_array(t_struct(Deposit)850_storage)dyn_storage"
							},
							{
								"astId": 858,
								"contract": "contracts/modules/Storage.sol:Storage",
								"label": "checkpoint",
								"offset": 0,
								"slot": "2",
								"type": "t_uint256"
							},
							{
								"astId": 860,
								"contract": "contracts/modules/Storage.sol:Storage",
								"label": "id",
								"offset": 0,
								"slot": "3",
								"type": "t_uint256"
							},
							{
								"astId": 862,
								"contract": "contracts/modules/Storage.sol:Storage",
								"label": "sponsorId",
								"offset": 0,
								"slot": "4",
								"type": "t_uint256"
							},
							{
								"astId": 864,
								"contract": "contracts/modules/Storage.sol:Storage",
								"label": "uplineId",
								"offset": 0,
								"slot": "5",
								"type": "t_uint256"
							},
							{
								"astId": 866,
								"contract": "contracts/modules/Storage.sol:Storage",
								"label": "level",
								"offset": 0,
								"slot": "6",
								"type": "t_uint256"
							},
							{
								"astId": 868,
								"contract": "contracts/modules/Storage.sol:Storage",
								"label": "directTeam",
								"offset": 0,
								"slot": "7",
								"type": "t_uint256"
							},
							{
								"astId": 870,
								"contract": "contracts/modules/Storage.sol:Storage",
								"label": "directPoolQualified",
								"offset": 0,
								"slot": "8",
								"type": "t_uint256"
							},
							{
								"astId": 872,
								"contract": "contracts/modules/Storage.sol:Storage",
								"label": "totalMatrixTeam",
								"offset": 0,
								"slot": "9",
								"type": "t_uint256"
							},
							{
								"astId": 874,
								"contract": "contracts/modules/Storage.sol:Storage",
								"label": "totalDeposit",
								"offset": 0,
								"slot": "10",
								"type": "t_uint256"
							},
							{
								"astId": 876,
								"contract": "contracts/modules/Storage.sol:Storage",
								"label": "roiCap",
								"offset": 0,
								"slot": "11",
								"type": "t_uint256"
							},
							{
								"astId": 878,
								"contract": "contracts/modules/Storage.sol:Storage",
								"label": "poollevel",
								"offset": 0,
								"slot": "12",
								"type": "t_uint256"
							},
							{
								"astId": 880,
								"contract": "contracts/modules/Storage.sol:Storage",
								"label": "poolDeposit",
								"offset": 0,
								"slot": "13",
								"type": "t_uint256"
							},
							{
								"astId": 882,
								"contract": "contracts/modules/Storage.sol:Storage",
								"label": "poolStartTime",
								"offset": 0,
								"slot": "14",
								"type": "t_uint256"
							},
							{
								"astId": 884,
								"contract": "contracts/modules/Storage.sol:Storage",
								"label": "boosterlevel",
								"offset": 0,
								"slot": "15",
								"type": "t_uint256"
							},
							{
								"astId": 886,
								"contract": "contracts/modules/Storage.sol:Storage",
								"label": "boosterDeposit",
								"offset": 0,
								"slot": "16",
								"type": "t_uint256"
							},
							{
								"astId": 888,
								"contract": "contracts/modules/Storage.sol:Storage",
								"label": "registrationTime",
								"offset": 0,
								"slot": "17",
								"type": "t_uint256"
							},
							{
								"astId": 890,
								"contract": "contracts/modules/Storage.sol:Storage",
								"label": "level10Time",
								"offset": 0,
								"slot": "18",
								"type": "t_uint256"
							},
							{
								"astId": 892,
								"contract": "contracts/modules/Storage.sol:Storage",
								"label": "level15Time",
								"offset": 0,
								"slot": "19",
								"type": "t_uint256"
							},
							{
								"astId": 894,
								"contract": "contracts/modules/Storage.sol:Storage",
								"label": "monthlyUserDirectCount",
								"offset": 0,
								"slot": "20",
								"type": "t_uint256"
							},
							{
								"astId": 896,
								"contract": "contracts/modules/Storage.sol:Storage",
								"label": "topRoyaltyDirectCount",
								"offset": 0,
								"slot": "21",
								"type": "t_uint256"
							}
						],
						"numberOfBytes": "704"
					},
					"t_struct(UserBooster)1179_storage": {
						"encoding": "inplace",
						"label": "struct Storage.UserBooster",
						"members": [
							{
								"astId": 1170,
								"contract": "contracts/modules/Storage.sol:Storage",
								"label": "id",
								"offset": 0,
								"slot": "0",
								"type": "t_uint256"
							},
							{
								"astId": 1172,
								"contract": "contracts/modules/Storage.sol:Storage",
								"label": "poolId",
								"offset": 0,
								"slot": "1",
								"type": "t_uint256"
							},
							{
								"astId": 1174,
								"contract": "contracts/modules/Storage.sol:Storage",
								"label": "parentId",
								"offset": 0,
								"slot": "2",
								"type": "t_uint256"
							},
							{
								"astId": 1176,
								"contract": "contracts/modules/Storage.sol:Storage",
								"label": "bonusCount",
								"offset": 0,
								"slot": "3",
								"type": "t_uint256"
							},
							{
								"astId": 1178,
								"contract": "contracts/modules/Storage.sol:Storage",
								"label": "joinTime",
								"offset": 0,
								"slot": "4",
								"type": "t_uint256"
							}
						],
						"numberOfBytes": "160"
					},
					"t_struct(UserIncome)922_storage": {
						"encoding": "inplace",
						"label": "struct Storage.UserIncome",
						"members": [
							{
								"astId": 899,
								"contract": "contracts/modules/Storage.sol:Storage",
								"label": "totalIncome",
								"offset": 0,
								"slot": "0",
								"type": "t_uint256"
							},
							{
								"astId": 901,
								"contract": "contracts/modules/Storage.sol:Storage",
								"label": "sponsorIncome",
								"offset": 0,
								"slot": "1",
								"type": "t_uint256"
							},
							{
								"astId": 903,
								"contract": "contracts/modules/Storage.sol:Storage",
								"label": "matrixIncome",
								"offset": 0,
								"slot": "2",
								"type": "t_uint256"
							},
							{
								"astId": 905,
								"contract": "contracts/modules/Storage.sol:Storage",
								"label": "levelBoosterIncome",
								"offset": 0,
								"slot": "3",
								"type": "t_uint256"
							},
							{
								"astId": 907,
								"contract": "contracts/modules/Storage.sol:Storage",
								"label": "royaltyIncome",
								"offset": 0,
								"slot": "4",
								"type": "t_uint256"
							},
							{
								"astId": 909,
								"contract": "contracts/modules/Storage.sol:Storage",
								"label": "royaltyIncomeClaimed",
								"offset": 0,
								"slot": "5",
								"type": "t_uint256"
							},
							{
								"astId": 911,
								"contract": "contracts/modules/Storage.sol:Storage",
								"label": "communityIncome",
								"offset": 0,
								"slot": "6",
								"type": "t_uint256"
							},
							{
								"astId": 913,
								"contract": "contracts/modules/Storage.sol:Storage",
								"label": "poolIncome",
								"offset": 0,
								"slot": "7",
								"type": "t_uint256"
							},
							{
								"astId": 915,
								"contract": "contracts/modules/Storage.sol:Storage",
								"label": "boosterIncome",
								"offset": 0,
								"slot": "8",
								"type": "t_uint256"
							},
							{
								"astId": 917,
								"contract": "contracts/modules/Storage.sol:Storage",
								"label": "weeklyContestIncome",
								"offset": 0,
								"slot": "9",
								"type": "t_uint256"
							},
							{
								"astId": 919,
								"contract": "contracts/modules/Storage.sol:Storage",
								"label": "monthlyRoyalty",
								"offset": 0,
								"slot": "10",
								"type": "t_uint256"
							},
							{
								"astId": 921,
								"contract": "contracts/modules/Storage.sol:Storage",
								"label": "topRoyalty",
								"offset": 0,
								"slot": "11",
								"type": "t_uint256"
							}
						],
						"numberOfBytes": "384"
					},
					"t_struct(UserPackage)933_storage": {
						"encoding": "inplace",
						"label": "struct Storage.UserPackage",
						"members": [
							{
								"astId": 924,
								"contract": "contracts/modules/Storage.sol:Storage",
								"label": "roiCap",
								"offset": 0,
								"slot": "0",
								"type": "t_uint256"
							},
							{
								"astId": 926,
								"contract": "contracts/modules/Storage.sol:Storage",
								"label": "currentIncome",
								"offset": 0,
								"slot": "1",
								"type": "t_uint256"
							},
							{
								"astId": 928,
								"contract": "contracts/modules/Storage.sol:Storage",
								"label": "closingAmount",
								"offset": 0,
								"slot": "2",
								"type": "t_uint256"
							},
							{
								"astId": 930,
								"contract": "contracts/modules/Storage.sol:Storage",
								"label": "qualified",
								"offset": 0,
								"slot": "3",
								"type": "t_bool"
							},
							{
								"astId": 932,
								"contract": "contracts/modules/Storage.sol:Storage",
								"label": "closed",
								"offset": 1,
								"slot": "3",
								"type": "t_bool"
							}
						],
						"numberOfBytes": "128"
					},
					"t_struct(UserPool)1163_storage": {
						"encoding": "inplace",
						"label": "struct Storage.UserPool",
						"members": [
							{
								"astId": 1154,
								"contract": "contracts/modules/Storage.sol:Storage",
								"label": "id",
								"offset": 0,
								"slot": "0",
								"type": "t_uint256"
							},
							{
								"astId": 1156,
								"contract": "contracts/modules/Storage.sol:Storage",
								"label": "mainid",
								"offset": 0,
								"slot": "1",
								"type": "t_uint256"
							},
							{
								"astId": 1158,
								"contract": "contracts/modules/Storage.sol:Storage",
								"label": "poolId",
								"offset": 0,
								"slot": "2",
								"type": "t_uint256"
							},
							{
								"astId": 1160,
								"contract": "contracts/modules/Storage.sol:Storage",
								"label": "parentId",
								"offset": 0,
								"slot": "3",
								"type": "t_uint256"
							},
							{
								"astId": 1162,
								"contract": "contracts/modules/Storage.sol:Storage",
								"label": "bonusCount",
								"offset": 0,
								"slot": "4",
								"type": "t_uint256"
							}
						],
						"numberOfBytes": "160"
					},
					"t_struct(UserPoolTopup)1168_storage": {
						"encoding": "inplace",
						"label": "struct Storage.UserPoolTopup",
						"members": [
							{
								"astId": 1165,
								"contract": "contracts/modules/Storage.sol:Storage",
								"label": "nextPoolAmt",
								"offset": 0,
								"slot": "0",
								"type": "t_uint256"
							},
							{
								"astId": 1167,
								"contract": "contracts/modules/Storage.sol:Storage",
								"label": "reTopupAmt",
								"offset": 0,
								"slot": "1",
								"type": "t_uint256"
							}
						],
						"numberOfBytes": "64"
					},
					"t_struct(WeeklyContest)1277_storage": {
						"encoding": "inplace",
						"label": "struct Storage.WeeklyContest",
						"members": [
							{
								"astId": 1260,
								"contract": "contracts/modules/Storage.sol:Storage",
								"label": "roundId",
								"offset": 0,
								"slot": "0",
								"type": "t_uint256"
							},
							{
								"astId": 1262,
								"contract": "contracts/modules/Storage.sol:Storage",
								"label": "totalReward",
								"offset": 0,
								"slot": "1",
								"type": "t_uint256"
							},
							{
								"astId": 1264,
								"contract": "contracts/modules/Storage.sol:Storage",
								"label": "totalUsers",
								"offset": 0,
								"slot": "2",
								"type": "t_uint256"
							},
							{
								"astId": 1266,
								"contract": "contracts/modules/Storage.sol:Storage",
								"label": "perUserReward",
								"offset": 0,
								"slot": "3",
								"type": "t_uint256"
							},
							{
								"astId": 1268,
								"contract": "contracts/modules/Storage.sol:Storage",
								"label": "claimedCount",
								"offset": 0,
								"slot": "4",
								"type": "t_uint256"
							},
							{
								"astId": 1270,
								"contract": "contracts/modules/Storage.sol:Storage",
								"label": "startTime",
								"offset": 0,
								"slot": "5",
								"type": "t_uint256"
							},
							{
								"astId": 1272,
								"contract": "contracts/modules/Storage.sol:Storage",
								"label": "endTime",
								"offset": 0,
								"slot": "6",
								"type": "t_uint256"
							},
							{
								"astId": 1274,
								"contract": "contracts/modules/Storage.sol:Storage",
								"label": "carryForward",
								"offset": 0,
								"slot": "7",
								"type": "t_uint256"
							},
							{
								"astId": 1276,
								"contract": "contracts/modules/Storage.sol:Storage",
								"label": "closed",
								"offset": 0,
								"slot": "8",
								"type": "t_bool"
							}
						],
						"numberOfBytes": "288"
					},
					"t_struct(monthlyRoyalty)1380_storage": {
						"encoding": "inplace",
						"label": "struct Storage.monthlyRoyalty",
						"members": [
							{
								"astId": 1363,
								"contract": "contracts/modules/Storage.sol:Storage",
								"label": "roundId",
								"offset": 0,
								"slot": "0",
								"type": "t_uint256"
							},
							{
								"astId": 1365,
								"contract": "contracts/modules/Storage.sol:Storage",
								"label": "totalReward",
								"offset": 0,
								"slot": "1",
								"type": "t_uint256"
							},
							{
								"astId": 1367,
								"contract": "contracts/modules/Storage.sol:Storage",
								"label": "totalUsers",
								"offset": 0,
								"slot": "2",
								"type": "t_uint256"
							},
							{
								"astId": 1369,
								"contract": "contracts/modules/Storage.sol:Storage",
								"label": "perUserReward",
								"offset": 0,
								"slot": "3",
								"type": "t_uint256"
							},
							{
								"astId": 1371,
								"contract": "contracts/modules/Storage.sol:Storage",
								"label": "claimedCount",
								"offset": 0,
								"slot": "4",
								"type": "t_uint256"
							},
							{
								"astId": 1373,
								"contract": "contracts/modules/Storage.sol:Storage",
								"label": "startTime",
								"offset": 0,
								"slot": "5",
								"type": "t_uint256"
							},
							{
								"astId": 1375,
								"contract": "contracts/modules/Storage.sol:Storage",
								"label": "endTime",
								"offset": 0,
								"slot": "6",
								"type": "t_uint256"
							},
							{
								"astId": 1377,
								"contract": "contracts/modules/Storage.sol:Storage",
								"label": "carryForward",
								"offset": 0,
								"slot": "7",
								"type": "t_uint256"
							},
							{
								"astId": 1379,
								"contract": "contracts/modules/Storage.sol:Storage",
								"label": "closed",
								"offset": 0,
								"slot": "8",
								"type": "t_bool"
							}
						],
						"numberOfBytes": "288"
					},
					"t_struct(monthlyRoyaltyUser)1393_storage": {
						"encoding": "inplace",
						"label": "struct Storage.monthlyRoyaltyUser",
						"members": [
							{
								"astId": 1382,
								"contract": "contracts/modules/Storage.sol:Storage",
								"label": "joinTime",
								"offset": 0,
								"slot": "0",
								"type": "t_uint256"
							},
							{
								"astId": 1384,
								"contract": "contracts/modules/Storage.sol:Storage",
								"label": "qualifiedRoundId",
								"offset": 0,
								"slot": "1",
								"type": "t_uint256"
							},
							{
								"astId": 1386,
								"contract": "contracts/modules/Storage.sol:Storage",
								"label": "claimTime",
								"offset": 0,
								"slot": "2",
								"type": "t_uint256"
							},
							{
								"astId": 1390,
								"contract": "contracts/modules/Storage.sol:Storage",
								"label": "isClaimed",
								"offset": 0,
								"slot": "3",
								"type": "t_mapping(t_uint256,t_bool)"
							},
							{
								"astId": 1392,
								"contract": "contracts/modules/Storage.sol:Storage",
								"label": "isQualified",
								"offset": 0,
								"slot": "4",
								"type": "t_bool"
							}
						],
						"numberOfBytes": "160"
					},
					"t_struct(topRoyalty)1473_storage": {
						"encoding": "inplace",
						"label": "struct Storage.topRoyalty",
						"members": [
							{
								"astId": 1456,
								"contract": "contracts/modules/Storage.sol:Storage",
								"label": "roundId",
								"offset": 0,
								"slot": "0",
								"type": "t_uint256"
							},
							{
								"astId": 1458,
								"contract": "contracts/modules/Storage.sol:Storage",
								"label": "totalReward",
								"offset": 0,
								"slot": "1",
								"type": "t_uint256"
							},
							{
								"astId": 1460,
								"contract": "contracts/modules/Storage.sol:Storage",
								"label": "totalUsers",
								"offset": 0,
								"slot": "2",
								"type": "t_uint256"
							},
							{
								"astId": 1462,
								"contract": "contracts/modules/Storage.sol:Storage",
								"label": "perUserReward",
								"offset": 0,
								"slot": "3",
								"type": "t_uint256"
							},
							{
								"astId": 1464,
								"contract": "contracts/modules/Storage.sol:Storage",
								"label": "claimedCount",
								"offset": 0,
								"slot": "4",
								"type": "t_uint256"
							},
							{
								"astId": 1466,
								"contract": "contracts/modules/Storage.sol:Storage",
								"label": "startTime",
								"offset": 0,
								"slot": "5",
								"type": "t_uint256"
							},
							{
								"astId": 1468,
								"contract": "contracts/modules/Storage.sol:Storage",
								"label": "endTime",
								"offset": 0,
								"slot": "6",
								"type": "t_uint256"
							},
							{
								"astId": 1470,
								"contract": "contracts/modules/Storage.sol:Storage",
								"label": "carryForward",
								"offset": 0,
								"slot": "7",
								"type": "t_uint256"
							},
							{
								"astId": 1472,
								"contract": "contracts/modules/Storage.sol:Storage",
								"label": "closed",
								"offset": 0,
								"slot": "8",
								"type": "t_bool"
							}
						],
						"numberOfBytes": "288"
					},
					"t_struct(topRoyaltyUser)1486_storage": {
						"encoding": "inplace",
						"label": "struct Storage.topRoyaltyUser",
						"members": [
							{
								"astId": 1475,
								"contract": "contracts/modules/Storage.sol:Storage",
								"label": "joinTime",
								"offset": 0,
								"slot": "0",
								"type": "t_uint256"
							},
							{
								"astId": 1477,
								"contract": "contracts/modules/Storage.sol:Storage",
								"label": "qualifiedRoundId",
								"offset": 0,
								"slot": "1",
								"type": "t_uint256"
							},
							{
								"astId": 1479,
								"contract": "contracts/modules/Storage.sol:Storage",
								"label": "claimTime",
								"offset": 0,
								"slot": "2",
								"type": "t_uint256"
							},
							{
								"astId": 1483,
								"contract": "contracts/modules/Storage.sol:Storage",
								"label": "isClaimed",
								"offset": 0,
								"slot": "3",
								"type": "t_mapping(t_uint256,t_bool)"
							},
							{
								"astId": 1485,
								"contract": "contracts/modules/Storage.sol:Storage",
								"label": "isQualified",
								"offset": 0,
								"slot": "4",
								"type": "t_bool"
							}
						],
						"numberOfBytes": "160"
					},
					"t_struct(weeklyUser)1288_storage": {
						"encoding": "inplace",
						"label": "struct Storage.weeklyUser",
						"members": [
							{
								"astId": 1279,
								"contract": "contracts/modules/Storage.sol:Storage",
								"label": "joinTime",
								"offset": 0,
								"slot": "0",
								"type": "t_uint256"
							},
							{
								"astId": 1281,
								"contract": "contracts/modules/Storage.sol:Storage",
								"label": "roundId",
								"offset": 0,
								"slot": "1",
								"type": "t_uint256"
							},
							{
								"astId": 1283,
								"contract": "contracts/modules/Storage.sol:Storage",
								"label": "claimTime",
								"offset": 0,
								"slot": "2",
								"type": "t_uint256"
							},
							{
								"astId": 1285,
								"contract": "contracts/modules/Storage.sol:Storage",
								"label": "isClaimed",
								"offset": 0,
								"slot": "3",
								"type": "t_bool"
							},
							{
								"astId": 1287,
								"contract": "contracts/modules/Storage.sol:Storage",
								"label": "isQualified",
								"offset": 1,
								"slot": "3",
								"type": "t_bool"
							}
						],
						"numberOfBytes": "128"
					},
					"t_uint256": {
						"encoding": "inplace",
						"label": "uint256",
						"numberOfBytes": "32"
					},
					"t_uint8": {
						"encoding": "inplace",
						"label": "uint8",
						"numberOfBytes": "1"
					}
				}
			},
			"userdoc": {
				"kind": "user",
				"methods": {},
				"version": 1
			}
		}
	}
}