{
	"contracts/config/constant.sol": {
		"Constants": {
			"abi": [
				{
					"inputs": [],
					"name": "PERCENTS_DIVIDER",
					"outputs": [
						{
							"internalType": "uint256",
							"name": "",
							"type": "uint256"
						}
					],
					"stateMutability": "view",
					"type": "function"
				},
				{
					"inputs": [],
					"name": "ROI_CAP_DIVIDER",
					"outputs": [
						{
							"internalType": "uint256",
							"name": "",
							"type": "uint256"
						}
					],
					"stateMutability": "view",
					"type": "function"
				},
				{
					"inputs": [],
					"name": "ROI_CAP_MULTIPLIER",
					"outputs": [
						{
							"internalType": "uint256",
							"name": "",
							"type": "uint256"
						}
					],
					"stateMutability": "view",
					"type": "function"
				},
				{
					"inputs": [],
					"name": "TIME_STEP",
					"outputs": [
						{
							"internalType": "uint256",
							"name": "",
							"type": "uint256"
						}
					],
					"stateMutability": "view",
					"type": "function"
				}
			],
			"devdoc": {
				"details": "Centralized configuration for all modules (rewards, matrix, timing)",
				"kind": "dev",
				"methods": {},
				"title": "Constants",
				"version": 1
			},
			"evm": {
				"assembly": "    /* \"contracts/config/constant.sol\":169:4061  library Constants {... */\n  dataSize(sub_0)\n  dataOffset(sub_0)\n  0x0b\n  dup3\n  dup3\n  dup3\n  codecopy\n  dup1\n  mload\n  0x00\n  byte\n  0x73\n  eq\n  tag_1\n  jumpi\n  mstore(0x00, 0x4e487b7100000000000000000000000000000000000000000000000000000000)\n  mstore(0x04, 0x00)\n  revert(0x00, 0x24)\ntag_1:\n  mstore(0x00, address)\n  0x73\n  dup2\n  mstore8\n  dup3\n  dup2\n  return\nstop\n\nsub_0: assembly {\n        /* \"contracts/config/constant.sol\":169:4061  library Constants {... */\n      eq(address, deployTimeAddress())\n      mstore(0x40, 0x80)\n      jumpi(tag_1, lt(calldatasize, 0x04))\n      shr(0xe0, calldataload(0x00))\n      dup1\n      0x01c234a8\n      eq\n      tag_2\n      jumpi\n      dup1\n      0x32bc298c\n      eq\n      tag_3\n      jumpi\n      dup1\n      0x375b43b4\n      eq\n      tag_4\n      jumpi\n      dup1\n      0x58c7d352\n      eq\n      tag_5\n      jumpi\n    tag_1:\n      revert(0x00, 0x00)\n        /* \"contracts/config/constant.sol\":196:244  uint256 public constant PERCENTS_DIVIDER = 10000 */\n    tag_2:\n      tag_6\n      tag_7\n      jump\t// in\n    tag_6:\n      mload(0x40)\n      tag_8\n      swap2\n      swap1\n      tag_9\n      jump\t// in\n    tag_8:\n      mload(0x40)\n      dup1\n      swap2\n      sub\n      swap1\n      return\n        /* \"contracts/config/constant.sol\":251:293  uint256 public constant TIME_STEP = 1 days */\n    tag_3:\n      tag_10\n      tag_11\n      jump\t// in\n    tag_10:\n      mload(0x40)\n      tag_12\n      swap2\n      swap1\n      tag_9\n      jump\t// in\n    tag_12:\n      mload(0x40)\n      dup1\n      swap2\n      sub\n      swap1\n      return\n        /* \"contracts/config/constant.sol\":300:347  uint256 public constant ROI_CAP_MULTIPLIER = 25 */\n    tag_4:\n      tag_13\n      tag_14\n      jump\t// in\n    tag_13:\n      mload(0x40)\n      tag_15\n      swap2\n      swap1\n      tag_9\n      jump\t// in\n    tag_15:\n      mload(0x40)\n      dup1\n      swap2\n      sub\n      swap1\n      return\n        /* \"contracts/config/constant.sol\":362:406  uint256 public constant ROI_CAP_DIVIDER = 10 */\n    tag_5:\n      tag_16\n      tag_17\n      jump\t// in\n    tag_16:\n      mload(0x40)\n      tag_18\n      swap2\n      swap1\n      tag_9\n      jump\t// in\n    tag_18:\n      mload(0x40)\n      dup1\n      swap2\n      sub\n      swap1\n      return\n        /* \"contracts/config/constant.sol\":196:244  uint256 public constant PERCENTS_DIVIDER = 10000 */\n    tag_7:\n        /* \"contracts/config/constant.sol\":239:244  10000 */\n      0x2710\n        /* \"contracts/config/constant.sol\":196:244  uint256 public constant PERCENTS_DIVIDER = 10000 */\n      dup2\n      jump\t// out\n        /* \"contracts/config/constant.sol\":251:293  uint256 public constant TIME_STEP = 1 days */\n    tag_11:\n        /* \"contracts/config/constant.sol\":287:293  1 days */\n      0x015180\n        /* \"contracts/config/constant.sol\":251:293  uint256 public constant TIME_STEP = 1 days */\n      dup2\n      jump\t// out\n        /* \"contracts/config/constant.sol\":300:347  uint256 public constant ROI_CAP_MULTIPLIER = 25 */\n    tag_14:\n        /* \"contracts/config/constant.sol\":345:347  25 */\n      0x19\n        /* \"contracts/config/constant.sol\":300:347  uint256 public constant ROI_CAP_MULTIPLIER = 25 */\n      dup2\n      jump\t// out\n        /* \"contracts/config/constant.sol\":362:406  uint256 public constant ROI_CAP_DIVIDER = 10 */\n    tag_17:\n        /* \"contracts/config/constant.sol\":404:406  10 */\n      0x0a\n        /* \"contracts/config/constant.sol\":362:406  uint256 public constant ROI_CAP_DIVIDER = 10 */\n      dup2\n      jump\t// out\n        /* \"#utility.yul\":7:84   */\n    tag_19:\n        /* \"#utility.yul\":44:51   */\n      0x00\n        /* \"#utility.yul\":73:78   */\n      dup2\n        /* \"#utility.yul\":62:78   */\n      swap1\n      pop\n        /* \"#utility.yul\":7:84   */\n      swap2\n      swap1\n      pop\n      jump\t// out\n        /* \"#utility.yul\":90:216   */\n    tag_20:\n        /* \"#utility.yul\":185:209   */\n      tag_24\n        /* \"#utility.yul\":203:208   */\n      dup2\n        /* \"#utility.yul\":185:209   */\n      tag_19\n      jump\t// in\n    tag_24:\n        /* \"#utility.yul\":180:183   */\n      dup3\n        /* \"#utility.yul\":173:210   */\n      mstore\n        /* \"#utility.yul\":90:216   */\n      pop\n      pop\n      jump\t// out\n        /* \"#utility.yul\":222:460   */\n    tag_9:\n        /* \"#utility.yul\":323:327   */\n      0x00\n        /* \"#utility.yul\":361:363   */\n      0x20\n        /* \"#utility.yul\":350:359   */\n      dup3\n        /* \"#utility.yul\":346:364   */\n      add\n        /* \"#utility.yul\":338:364   */\n      swap1\n      pop\n        /* \"#utility.yul\":374:453   */\n      tag_26\n        /* \"#utility.yul\":450:451   */\n      0x00\n        /* \"#utility.yul\":439:448   */\n      dup4\n        /* \"#utility.yul\":435:452   */\n      add\n        /* \"#utility.yul\":426:432   */\n      dup5\n        /* \"#utility.yul\":374:453   */\n      tag_20\n      jump\t// in\n    tag_26:\n        /* \"#utility.yul\":222:460   */\n      swap3\n      swap2\n      pop\n      pop\n      jump\t// out\n\n    auxdata: 0xa2646970667358221220ab6a459b79b08feb9c0919a0c18871e534a2937b611c4b9e81c3a75207943a0a64736f6c634300081e0033\n}\n",
				"bytecode": {
					"linkReferences": {},
					"object": "61014f61004d600b8282823980515f1a6073146041577f4e487b71000000000000000000000000000000000000000000000000000000005f525f60045260245ffd5b305f52607381538281f3fe7300000000000000000000000000000000000000003014608060405260043610610055575f3560e01c806301c234a81461005957806332bc298c14610077578063375b43b41461009557806358c7d352146100b3575b5f5ffd5b6100616100d1565b60405161006e9190610100565b60405180910390f35b61007f6100d7565b60405161008c9190610100565b60405180910390f35b61009d6100de565b6040516100aa9190610100565b60405180910390f35b6100bb6100e3565b6040516100c89190610100565b60405180910390f35b61271081565b6201518081565b601981565b600a81565b5f819050919050565b6100fa816100e8565b82525050565b5f6020820190506101135f8301846100f1565b9291505056fea2646970667358221220ab6a459b79b08feb9c0919a0c18871e534a2937b611c4b9e81c3a75207943a0a64736f6c634300081e0033",
					"opcodes": "PUSH2 0x14F PUSH2 0x4D PUSH1 0xB DUP3 DUP3 DUP3 CODECOPY DUP1 MLOAD PUSH0 BYTE PUSH1 0x73 EQ PUSH1 0x41 JUMPI PUSH32 0x4E487B7100000000000000000000000000000000000000000000000000000000 PUSH0 MSTORE PUSH0 PUSH1 0x4 MSTORE PUSH1 0x24 PUSH0 REVERT JUMPDEST ADDRESS PUSH0 MSTORE PUSH1 0x73 DUP2 MSTORE8 DUP3 DUP2 RETURN INVALID PUSH20 0x0 ADDRESS EQ PUSH1 0x80 PUSH1 0x40 MSTORE PUSH1 0x4 CALLDATASIZE LT PUSH2 0x55 JUMPI PUSH0 CALLDATALOAD PUSH1 0xE0 SHR DUP1 PUSH4 0x1C234A8 EQ PUSH2 0x59 JUMPI DUP1 PUSH4 0x32BC298C EQ PUSH2 0x77 JUMPI DUP1 PUSH4 0x375B43B4 EQ PUSH2 0x95 JUMPI DUP1 PUSH4 0x58C7D352 EQ PUSH2 0xB3 JUMPI JUMPDEST PUSH0 PUSH0 REVERT JUMPDEST PUSH2 0x61 PUSH2 0xD1 JUMP JUMPDEST PUSH1 0x40 MLOAD PUSH2 0x6E SWAP2 SWAP1 PUSH2 0x100 JUMP JUMPDEST PUSH1 0x40 MLOAD DUP1 SWAP2 SUB SWAP1 RETURN JUMPDEST PUSH2 0x7F PUSH2 0xD7 JUMP JUMPDEST PUSH1 0x40 MLOAD PUSH2 0x8C SWAP2 SWAP1 PUSH2 0x100 JUMP JUMPDEST PUSH1 0x40 MLOAD DUP1 SWAP2 SUB SWAP1 RETURN JUMPDEST PUSH2 0x9D PUSH2 0xDE JUMP JUMPDEST PUSH1 0x40 MLOAD PUSH2 0xAA SWAP2 SWAP1 PUSH2 0x100 JUMP JUMPDEST PUSH1 0x40 MLOAD DUP1 SWAP2 SUB SWAP1 RETURN JUMPDEST PUSH2 0xBB PUSH2 0xE3 JUMP JUMPDEST PUSH1 0x40 MLOAD PUSH2 0xC8 SWAP2 SWAP1 PUSH2 0x100 JUMP JUMPDEST PUSH1 0x40 MLOAD DUP1 SWAP2 SUB SWAP1 RETURN JUMPDEST PUSH2 0x2710 DUP2 JUMP JUMPDEST PUSH3 0x15180 DUP2 JUMP JUMPDEST PUSH1 0x19 DUP2 JUMP JUMPDEST PUSH1 0xA DUP2 JUMP JUMPDEST PUSH0 DUP2 SWAP1 POP SWAP2 SWAP1 POP JUMP JUMPDEST PUSH2 0xFA DUP2 PUSH2 0xE8 JUMP JUMPDEST DUP3 MSTORE POP POP JUMP JUMPDEST PUSH0 PUSH1 0x20 DUP3 ADD SWAP1 POP PUSH2 0x113 PUSH0 DUP4 ADD DUP5 PUSH2 0xF1 JUMP JUMPDEST SWAP3 SWAP2 POP POP JUMP INVALID LOG2 PUSH5 0x6970667358 0x22 SLT KECCAK256 0xAB PUSH11 0x459B79B08FEB9C0919A0C1 DUP9 PUSH18 0xE534A2937B611C4B9E81C3A75207943A0A64 PUSH20 0x6F6C634300081E00330000000000000000000000 "
				},
				"gasEstimates": {
					"creation": {
						"codeDepositCost": "67000",
						"executionCost": "140",
						"totalCost": "67140"
					},
					"external": {
						"PERCENTS_DIVIDER()": "287",
						"ROI_CAP_DIVIDER()": "353",
						"ROI_CAP_MULTIPLIER()": "331",
						"TIME_STEP()": "309"
					}
				},
				"methodIdentifiers": {
					"PERCENTS_DIVIDER()": "01c234a8",
					"ROI_CAP_DIVIDER()": "58c7d352",
					"ROI_CAP_MULTIPLIER()": "375b43b4",
					"TIME_STEP()": "32bc298c"
				}
			},
			"storageLayout": {
				"storage": [],
				"types": null
			},
			"userdoc": {
				"kind": "user",
				"methods": {},
				"version": 1
			}
		}
	}
}