{
	"contracts/modules/Storage.sol": {
		"Storage": {
			"abi": [
				{
					"inputs": [],
					"stateMutability": "nonpayable",
					"type": "constructor"
				},
				{
					"anonymous": false,
					"inputs": [
						{
							"indexed": false,
							"internalType": "uint256",
							"name": "amount",
							"type": "uint256"
						},
						{
							"indexed": false,
							"internalType": "uint256",
							"name": "usersCount",
							"type": "uint256"
						},
						{
							"indexed": false,
							"internalType": "uint256",
							"name": "perUser",
							"type": "uint256"
						}
					],
					"name": "CommunityBonusDistributed",
					"type": "event"
				},
				{
					"anonymous": false,
					"inputs": [
						{
							"indexed": true,
							"internalType": "address",
							"name": "to",
							"type": "address"
						},
						{
							"indexed": true,
							"internalType": "address",
							"name": "from",
							"type": "address"
						},
						{
							"indexed": false,
							"internalType": "uint256",
							"name": "amount",
							"type": "uint256"
						},
						{
							"indexed": false,
							"internalType": "uint256",
							"name": "packageLevel",
							"type": "uint256"
						},
						{
							"indexed": false,
							"internalType": "uint256",
							"name": "incomeType",
							"type": "uint256"
						}
					],
					"name": "IncomeDistributed",
					"type": "event"
				},
				{
					"anonymous": false,
					"inputs": [
						{
							"indexed": true,
							"internalType": "address",
							"name": "winner",
							"type": "address"
						},
						{
							"indexed": true,
							"internalType": "uint256",
							"name": "fromUserId",
							"type": "uint256"
						},
						{
							"indexed": false,
							"internalType": "uint256",
							"name": "amount",
							"type": "uint256"
						},
						{
							"indexed": false,
							"internalType": "uint256",
							"name": "timestamp",
							"type": "uint256"
						}
					],
					"name": "LotteryReward",
					"type": "event"
				},
				{
					"anonymous": false,
					"inputs": [
						{
							"indexed": true,
							"internalType": "address",
							"name": "user",
							"type": "address"
						},
						{
							"indexed": true,
							"internalType": "address",
							"name": "sponsor",
							"type": "address"
						},
						{
							"indexed": true,
							"internalType": "uint256",
							"name": "userId",
							"type": "uint256"
						},
						{
							"indexed": false,
							"internalType": "uint256",
							"name": "uplineId",
							"type": "uint256"
						}
					],
					"name": "Registration",
					"type": "event"
				},
				{
					"anonymous": false,
					"inputs": [
						{
							"indexed": true,
							"internalType": "address",
							"name": "to",
							"type": "address"
						},
						{
							"indexed": false,
							"internalType": "uint256",
							"name": "amount",
							"type": "uint256"
						},
						{
							"indexed": false,
							"internalType": "string",
							"name": "level",
							"type": "string"
						}
					],
					"name": "RewardSent",
					"type": "event"
				},
				{
					"anonymous": false,
					"inputs": [
						{
							"indexed": true,
							"internalType": "address",
							"name": "user",
							"type": "address"
						},
						{
							"indexed": true,
							"internalType": "uint256",
							"name": "userId",
							"type": "uint256"
						},
						{
							"indexed": false,
							"internalType": "uint256",
							"name": "packageLevel",
							"type": "uint256"
						},
						{
							"indexed": false,
							"internalType": "string",
							"name": "depositType",
							"type": "string"
						}
					],
					"name": "Upgrade",
					"type": "event"
				},
				{
					"anonymous": false,
					"inputs": [
						{
							"indexed": true,
							"internalType": "uint8",
							"name": "matrixId",
							"type": "uint8"
						},
						{
							"indexed": true,
							"internalType": "uint32",
							"name": "userId",
							"type": "uint32"
						},
						{
							"indexed": true,
							"internalType": "address",
							"name": "user",
							"type": "address"
						},
						{
							"indexed": false,
							"internalType": "uint32",
							"name": "parentId",
							"type": "uint32"
						},
						{
							"indexed": false,
							"internalType": "address",
							"name": "parentAddr",
							"type": "address"
						},
						{
							"indexed": false,
							"internalType": "uint8",
							"name": "position",
							"type": "uint8"
						}
					],
					"name": "UserJoined",
					"type": "event"
				},
				{
					"anonymous": false,
					"inputs": [
						{
							"indexed": false,
							"internalType": "uint256",
							"name": "roundId",
							"type": "uint256"
						},
						{
							"indexed": false,
							"internalType": "uint256",
							"name": "totalUsers",
							"type": "uint256"
						},
						{
							"indexed": false,
							"internalType": "uint256",
							"name": "perUserReward",
							"type": "uint256"
						},
						{
							"indexed": false,
							"internalType": "uint256",
							"name": "distributedAmount",
							"type": "uint256"
						},
						{
							"indexed": false,
							"internalType": "uint256",
							"name": "leftoverReward",
							"type": "uint256"
						},
						{
							"indexed": false,
							"internalType": "uint256",
							"name": "endTime",
							"type": "uint256"
						}
					],
					"name": "WeeklyClosed",
					"type": "event"
				},
				{
					"anonymous": false,
					"inputs": [
						{
							"indexed": false,
							"internalType": "uint256",
							"name": "roundId",
							"type": "uint256"
						},
						{
							"indexed": false,
							"internalType": "uint256",
							"name": "userId",
							"type": "uint256"
						},
						{
							"indexed": false,
							"internalType": "uint256",
							"name": "joinTime",
							"type": "uint256"
						}
					],
					"name": "WeeklyContestQualified",
					"type": "event"
				},
				{
					"anonymous": false,
					"inputs": [
						{
							"indexed": false,
							"internalType": "uint256",
							"name": "roundId",
							"type": "uint256"
						},
						{
							"indexed": false,
							"internalType": "uint256",
							"name": "userId",
							"type": "uint256"
						},
						{
							"indexed": false,
							"internalType": "uint256",
							"name": "perUserReward",
							"type": "uint256"
						},
						{
							"indexed": false,
							"internalType": "uint256",
							"name": "claimTime",
							"type": "uint256"
						}
					],
					"name": "WeeklyRewardClaim",
					"type": "event"
				},
				{
					"inputs": [],
					"name": "ACC_PRECISION",
					"outputs": [
						{
							"internalType": "uint256",
							"name": "",
							"type": "uint256"
						}
					],
					"stateMutability": "view",
					"type": "function"
				},
				{
					"inputs": [],
					"name": "MONTH_DURATION",
					"outputs": [
						{
							"internalType": "uint256",
							"name": "",
							"type": "uint256"
						}
					],
					"stateMutability": "view",
					"type": "function"
				},
				{
					"inputs": [],
					"name": "PERCENTS_DIVIDER",
					"outputs": [
						{
							"internalType": "uint256",
							"name": "",
							"type": "uint256"
						}
					],
					"stateMutability": "view",
					"type": "function"
				},
				{
					"inputs": [],
					"name": "ROI_CAP_DIVIDER",
					"outputs": [
						{
							"internalType": "uint256",
							"name": "",
							"type": "uint256"
						}
					],
					"stateMutability": "view",
					"type": "function"
				},
				{
					"inputs": [],
					"name": "ROI_CAP_MULTIPLIER",
					"outputs": [
						{
							"internalType": "uint256",
							"name": "",
							"type": "uint256"
						}
					],
					"stateMutability": "view",
					"type": "function"
				},
				{
					"inputs": [],
					"name": "TIME_STEP",
					"outputs": [
						{
							"internalType": "uint256",
							"name": "",
							"type": "uint256"
						}
					],
					"stateMutability": "view",
					"type": "function"
				},
				{
					"inputs": [],
					"name": "WEEK_DURATION",
					"outputs": [
						{
							"internalType": "uint256",
							"name": "",
							"type": "uint256"
						}
					],
					"stateMutability": "view",
					"type": "function"
				},
				{
					"inputs": [],
					"name": "WeeklyCapping",
					"outputs": [
						{
							"internalType": "uint256",
							"name": "",
							"type": "uint256"
						}
					],
					"stateMutability": "view",
					"type": "function"
				},
				{
					"inputs": [],
					"name": "WeeklyTotalReward",
					"outputs": [
						{
							"internalType": "uint256",
							"name": "",
							"type": "uint256"
						}
					],
					"stateMutability": "view",
					"type": "function"
				},
				{
					"inputs": [],
					"name": "communityAccPerUser",
					"outputs": [
						{
							"internalType": "uint256",
							"name": "",
							"type": "uint256"
						}
					],
					"stateMutability": "view",
					"type": "function"
				},
				{
					"inputs": [],
					"name": "creatorWallet",
					"outputs": [
						{
							"internalType": "address",
							"name": "",
							"type": "address"
						}
					],
					"stateMutability": "view",
					"type": "function"
				},
				{
					"inputs": [],
					"name": "currentMonthlyRound",
					"outputs": [
						{
							"internalType": "uint256",
							"name": "",
							"type": "uint256"
						}
					],
					"stateMutability": "view",
					"type": "function"
				},
				{
					"inputs": [],
					"name": "currentMonthlyStartTime",
					"outputs": [
						{
							"internalType": "uint256",
							"name": "",
							"type": "uint256"
						}
					],
					"stateMutability": "view",
					"type": "function"
				},
				{
					"inputs": [],
					"name": "currentWeeklyRound",
					"outputs": [
						{
							"internalType": "uint256",
							"name": "",
							"type": "uint256"
						}
					],
					"stateMutability": "view",
					"type": "function"
				},
				{
					"inputs": [],
					"name": "currentWeeklyStartTime",
					"outputs": [
						{
							"internalType": "uint256",
							"name": "",
							"type": "uint256"
						}
					],
					"stateMutability": "view",
					"type": "function"
				},
				{
					"inputs": [],
					"name": "defaultRefId",
					"outputs": [
						{
							"internalType": "uint256",
							"name": "",
							"type": "uint256"
						}
					],
					"stateMutability": "view",
					"type": "function"
				},
				{
					"inputs": [
						{
							"internalType": "uint256",
							"name": "",
							"type": "uint256"
						}
					],
					"name": "glbBoosterPackages",
					"outputs": [
						{
							"internalType": "uint256",
							"name": "",
							"type": "uint256"
						}
					],
					"stateMutability": "view",
					"type": "function"
				},
				{
					"inputs": [
						{
							"internalType": "uint256",
							"name": "",
							"type": "uint256"
						}
					],
					"name": "minLevelForGlbBooster",
					"outputs": [
						{
							"internalType": "uint256",
							"name": "",
							"type": "uint256"
						}
					],
					"stateMutability": "view",
					"type": "function"
				},
				{
					"inputs": [
						{
							"internalType": "uint256",
							"name": "",
							"type": "uint256"
						}
					],
					"name": "minLevelForPool",
					"outputs": [
						{
							"internalType": "uint256",
							"name": "",
							"type": "uint256"
						}
					],
					"stateMutability": "view",
					"type": "function"
				},
				{
					"inputs": [
						{
							"internalType": "uint256",
							"name": "",
							"type": "uint256"
						}
					],
					"name": "minPoolForGlbBooster",
					"outputs": [
						{
							"internalType": "uint256",
							"name": "",
							"type": "uint256"
						}
					],
					"stateMutability": "view",
					"type": "function"
				},
				{
					"inputs": [],
					"name": "monthlyCapping",
					"outputs": [
						{
							"internalType": "uint256",
							"name": "",
							"type": "uint256"
						}
					],
					"stateMutability": "view",
					"type": "function"
				},
				{
					"inputs": [
						{
							"internalType": "uint256",
							"name": "",
							"type": "uint256"
						}
					],
					"name": "packages",
					"outputs": [
						{
							"internalType": "uint256",
							"name": "",
							"type": "uint256"
						}
					],
					"stateMutability": "view",
					"type": "function"
				},
				{
					"inputs": [
						{
							"internalType": "uint256",
							"name": "",
							"type": "uint256"
						}
					],
					"name": "poolPackages",
					"outputs": [
						{
							"internalType": "uint256",
							"name": "",
							"type": "uint256"
						}
					],
					"stateMutability": "view",
					"type": "function"
				},
				{
					"inputs": [
						{
							"internalType": "uint256",
							"name": "",
							"type": "uint256"
						}
					],
					"name": "registeredUserIds",
					"outputs": [
						{
							"internalType": "uint256",
							"name": "",
							"type": "uint256"
						}
					],
					"stateMutability": "view",
					"type": "function"
				},
				{
					"inputs": [],
					"name": "systemMaintance",
					"outputs": [
						{
							"internalType": "address",
							"name": "",
							"type": "address"
						}
					],
					"stateMutability": "view",
					"type": "function"
				},
				{
					"inputs": [],
					"name": "teamDevelopment",
					"outputs": [
						{
							"internalType": "address",
							"name": "",
							"type": "address"
						}
					],
					"stateMutability": "view",
					"type": "function"
				},
				{
					"inputs": [],
					"name": "totalUsers",
					"outputs": [
						{
							"internalType": "uint256",
							"name": "",
							"type": "uint256"
						}
					],
					"stateMutability": "view",
					"type": "function"
				},
				{
					"inputs": [],
					"name": "usdt",
					"outputs": [
						{
							"internalType": "contract IERC20",
							"name": "",
							"type": "address"
						}
					],
					"stateMutability": "view",
					"type": "function"
				}
			],
			"devdoc": {
				"kind": "dev",
				"methods": {},
				"version": 1
			},
			"evm": {
				"assembly": "    /* \"contracts/modules/Storage.sol\":292:12762  contract Storage is ReentrancyGuard {... */\n  mstore(0x40, 0x80)\n  jumpi(tag_4, callvalue)\n    /* \"@openzeppelin/contracts/security/ReentrancyGuard.sol\":1716:1717  1 */\n  0x01\n    /* \"@openzeppelin/contracts/security/ReentrancyGuard.sol\":1821:1843  _status = _NOT_ENTERED */\n  0x00\n    /* \"contracts/modules/Storage.sol\":292:12762  contract Storage is ReentrancyGuard {... */\n  sstore\n  mload(0x40)\n  0x01e0\n  dup2\n  add\n  sub(shl(0x40, 0x01), 0x01)\n  dup2\n  gt\n  dup3\n  dup3\n  lt\n  or\n  tag_6\n  jumpi\n  0x40\n  mstore\n    /* \"contracts/modules/Storage.sol\":1324:1333  15 * 1e18 */\n  0xd02ab486cedc0000\n    /* \"contracts/modules/Storage.sol\":292:12762  contract Storage is ReentrancyGuard {... */\n  dup2\n  mstore\n    /* \"contracts/modules/Storage.sol\":1356:1365  25 * 1e18 */\n  0x015af1d78b58c40000\n    /* \"contracts/modules/Storage.sol\":1313:1828  [... */\n  0x20\n  dup3\n  add\n    /* \"contracts/modules/Storage.sol\":292:12762  contract Storage is ReentrancyGuard {... */\n  mstore\n    /* \"contracts/modules/Storage.sol\":1388:1397  50 * 1e18 */\n  0x02b5e3af16b1880000\n    /* \"contracts/modules/Storage.sol\":292:12762  contract Storage is ReentrancyGuard {... */\n  0x40\n    /* \"contracts/modules/Storage.sol\":1313:1828  [... */\n  dup3\n  add\n    /* \"contracts/modules/Storage.sol\":292:12762  contract Storage is ReentrancyGuard {... */\n  mstore\n    /* \"contracts/modules/Storage.sol\":1420:1430  100 * 1e18 */\n  0x056bc75e2d63100000\n    /* \"contracts/modules/Storage.sol\":1313:1828  [... */\n  0x60\n  dup3\n  add\n    /* \"contracts/modules/Storage.sol\":292:12762  contract Storage is ReentrancyGuard {... */\n  mstore\n    /* \"contracts/modules/Storage.sol\":1453:1463  200 * 1e18 */\n  0x0ad78ebc5ac6200000\n    /* \"contracts/modules/Storage.sol\":1313:1828  [... */\n  0x80\n  dup3\n  add\n    /* \"contracts/modules/Storage.sol\":292:12762  contract Storage is ReentrancyGuard {... */\n  mstore\n    /* \"contracts/modules/Storage.sol\":1486:1496  400 * 1e18 */\n  0x15af1d78b58c400000\n    /* \"contracts/modules/Storage.sol\":1313:1828  [... */\n  0xa0\n  dup3\n  add\n    /* \"contracts/modules/Storage.sol\":292:12762  contract Storage is ReentrancyGuard {... */\n  mstore\n    /* \"contracts/modules/Storage.sol\":1519:1529  800 * 1e18 */\n  0x2b5e3af16b18800000\n    /* \"contracts/modules/Storage.sol\":1313:1828  [... */\n  0xc0\n  dup3\n  add\n    /* \"contracts/modules/Storage.sol\":292:12762  contract Storage is ReentrancyGuard {... */\n  mstore\n    /* \"contracts/modules/Storage.sol\":1552:1563  1600 * 1e18 */\n  0x56bc75e2d631000000\n    /* \"contracts/modules/Storage.sol\":1313:1828  [... */\n  0xe0\n  dup3\n  add\n    /* \"contracts/modules/Storage.sol\":292:12762  contract Storage is ReentrancyGuard {... */\n  mstore\n    /* \"contracts/modules/Storage.sol\":1586:1597  3200 * 1e18 */\n  0xad78ebc5ac62000000\n    /* \"contracts/modules/Storage.sol\":1313:1828  [... */\n  0x0100\n  dup3\n  add\n    /* \"contracts/modules/Storage.sol\":292:12762  contract Storage is ReentrancyGuard {... */\n  mstore\n    /* \"contracts/modules/Storage.sol\":1620:1631  6400 * 1e18 */\n  0x015af1d78b58c4000000\n    /* \"contracts/modules/Storage.sol\":1313:1828  [... */\n  0x0120\n  dup3\n  add\n    /* \"contracts/modules/Storage.sol\":292:12762  contract Storage is ReentrancyGuard {... */\n  mstore\n    /* \"contracts/modules/Storage.sol\":1654:1666  12800 * 1e18 */\n  0x02b5e3af16b188000000\n    /* \"contracts/modules/Storage.sol\":1313:1828  [... */\n  0x0140\n  dup3\n  add\n    /* \"contracts/modules/Storage.sol\":292:12762  contract Storage is ReentrancyGuard {... */\n  mstore\n    /* \"contracts/modules/Storage.sol\":1689:1701  25600 * 1e18 */\n  0x056bc75e2d6310000000\n    /* \"contracts/modules/Storage.sol\":1313:1828  [... */\n  0x0160\n  dup3\n  add\n    /* \"contracts/modules/Storage.sol\":292:12762  contract Storage is ReentrancyGuard {... */\n  mstore\n    /* \"contracts/modules/Storage.sol\":1724:1736  51200 * 1e18 */\n  0x0ad78ebc5ac620000000\n    /* \"contracts/modules/Storage.sol\":1313:1828  [... */\n  0x0180\n  dup3\n  add\n    /* \"contracts/modules/Storage.sol\":292:12762  contract Storage is ReentrancyGuard {... */\n  mstore\n    /* \"contracts/modules/Storage.sol\":1759:1772  102400 * 1e18 */\n  0x15af1d78b58c40000000\n    /* \"contracts/modules/Storage.sol\":1313:1828  [... */\n  0x01a0\n  dup3\n  add\n    /* \"contracts/modules/Storage.sol\":292:12762  contract Storage is ReentrancyGuard {... */\n  mstore\n    /* \"contracts/modules/Storage.sol\":1795:1808  204800 * 1e18 */\n  0x2b5e3af16b1880000000\n    /* \"contracts/modules/Storage.sol\":1313:1828  [... */\n  0x01c0\n  dup3\n  add\n    /* \"contracts/modules/Storage.sol\":292:12762  contract Storage is ReentrancyGuard {... */\n  mstore\n    /* \"contracts/modules/Storage.sol\":1313:1828  [... */\n  0x0b\n    /* \"contracts/modules/Storage.sol\":292:12762  contract Storage is ReentrancyGuard {... */\n  sload\n    /* \"contracts/modules/Storage.sol\":1313:1828  [... */\n  0x0f\n  0x0b\n    /* \"contracts/modules/Storage.sol\":292:12762  contract Storage is ReentrancyGuard {... */\n  sstore\n  dup1\n    /* \"contracts/modules/Storage.sol\":1313:1828  [... */\n  0x0f\n    /* \"contracts/modules/Storage.sol\":292:12762  contract Storage is ReentrancyGuard {... */\n  lt\n  tag_8\n  jumpi\ntag_9:\n  pop\n    /* \"contracts/modules/Storage.sol\":1313:1828  [... */\n  0x0b\n    /* \"@openzeppelin/contracts/security/ReentrancyGuard.sol\":1821:1843  _status = _NOT_ENTERED */\n  0x00\n    /* \"contracts/modules/Storage.sol\":292:12762  contract Storage is ReentrancyGuard {... */\n  mstore\n    /* \"contracts/modules/Storage.sol\":1313:1828  [... */\n  0x20\n    /* \"@openzeppelin/contracts/security/ReentrancyGuard.sol\":1821:1843  _status = _NOT_ENTERED */\n  0x00\n    /* \"contracts/modules/Storage.sol\":292:12762  contract Storage is ReentrancyGuard {... */\n  keccak256\n  swap1\n    /* \"@openzeppelin/contracts/security/ReentrancyGuard.sol\":1821:1843  _status = _NOT_ENTERED */\n  0x00\n    /* \"contracts/modules/Storage.sol\":292:12762  contract Storage is ReentrancyGuard {... */\ntag_10:\n    /* \"contracts/modules/Storage.sol\":1313:1828  [... */\n  0x0f\n    /* \"contracts/modules/Storage.sol\":292:12762  contract Storage is ReentrancyGuard {... */\n  dup2\n  lt\n  tag_11\n  jumpi\n  tag_13\n  tag_1\n  jump\t// in\ntag_13:\n    /* \"contracts/modules/Storage.sol\":5058:5063  75e18 */\n  0x0410d586a20a4c0000\n    /* \"contracts/modules/Storage.sol\":292:12762  contract Storage is ReentrancyGuard {... */\n  dup2\n  mstore\n    /* \"contracts/modules/Storage.sol\":5065:5071  300e18 */\n  0x1043561a8829300000\n    /* \"contracts/modules/Storage.sol\":1313:1828  [... */\n  0x20\n    /* \"contracts/modules/Storage.sol\":5057:5121  [75e18, 300e18, 1200e18, 4800e18, 19200e18, 76800e18, 307200e18] */\n  dup3\n  add\n    /* \"contracts/modules/Storage.sol\":292:12762  contract Storage is ReentrancyGuard {... */\n  mstore\n    /* \"contracts/modules/Storage.sol\":5073:5080  1200e18 */\n  0x410d586a20a4c00000\n    /* \"contracts/modules/Storage.sol\":292:12762  contract Storage is ReentrancyGuard {... */\n  0x40\n    /* \"contracts/modules/Storage.sol\":5057:5121  [75e18, 300e18, 1200e18, 4800e18, 19200e18, 76800e18, 307200e18] */\n  dup3\n  add\n    /* \"contracts/modules/Storage.sol\":292:12762  contract Storage is ReentrancyGuard {... */\n  mstore\n    /* \"contracts/modules/Storage.sol\":5082:5089  4800e18 */\n  0x01043561a88293000000\n    /* \"contracts/modules/Storage.sol\":1313:1828  [... */\n  0x60\n    /* \"contracts/modules/Storage.sol\":5057:5121  [75e18, 300e18, 1200e18, 4800e18, 19200e18, 76800e18, 307200e18] */\n  dup3\n  add\n    /* \"contracts/modules/Storage.sol\":292:12762  contract Storage is ReentrancyGuard {... */\n  mstore\n    /* \"contracts/modules/Storage.sol\":5091:5099  19200e18 */\n  0x0410d586a20a4c000000\n    /* \"contracts/modules/Storage.sol\":1313:1828  [... */\n  0x80\n    /* \"contracts/modules/Storage.sol\":5057:5121  [75e18, 300e18, 1200e18, 4800e18, 19200e18, 76800e18, 307200e18] */\n  dup3\n  add\n    /* \"contracts/modules/Storage.sol\":292:12762  contract Storage is ReentrancyGuard {... */\n  mstore\n    /* \"contracts/modules/Storage.sol\":5101:5109  76800e18 */\n  0x1043561a882930000000\n    /* \"contracts/modules/Storage.sol\":1313:1828  [... */\n  0xa0\n    /* \"contracts/modules/Storage.sol\":5057:5121  [75e18, 300e18, 1200e18, 4800e18, 19200e18, 76800e18, 307200e18] */\n  dup3\n  add\n    /* \"contracts/modules/Storage.sol\":292:12762  contract Storage is ReentrancyGuard {... */\n  mstore\n    /* \"contracts/modules/Storage.sol\":5111:5120  307200e18 */\n  0x410d586a20a4c0000000\n    /* \"contracts/modules/Storage.sol\":1313:1828  [... */\n  0xc0\n    /* \"contracts/modules/Storage.sol\":5057:5121  [75e18, 300e18, 1200e18, 4800e18, 19200e18, 76800e18, 307200e18] */\n  dup3\n  add\n    /* \"contracts/modules/Storage.sol\":292:12762  contract Storage is ReentrancyGuard {... */\n  mstore\n    /* \"contracts/modules/Storage.sol\":5057:5121  [75e18, 300e18, 1200e18, 4800e18, 19200e18, 76800e18, 307200e18] */\n  0x13\n    /* \"contracts/modules/Storage.sol\":292:12762  contract Storage is ReentrancyGuard {... */\n  sload\n    /* \"contracts/modules/Storage.sol\":5057:5121  [75e18, 300e18, 1200e18, 4800e18, 19200e18, 76800e18, 307200e18] */\n  0x07\n  0x13\n    /* \"contracts/modules/Storage.sol\":292:12762  contract Storage is ReentrancyGuard {... */\n  sstore\n  dup1\n    /* \"contracts/modules/Storage.sol\":5057:5121  [75e18, 300e18, 1200e18, 4800e18, 19200e18, 76800e18, 307200e18] */\n  0x07\n    /* \"contracts/modules/Storage.sol\":292:12762  contract Storage is ReentrancyGuard {... */\n  lt\n  tag_14\n  jumpi\ntag_15:\n  pop\n    /* \"contracts/modules/Storage.sol\":5057:5121  [75e18, 300e18, 1200e18, 4800e18, 19200e18, 76800e18, 307200e18] */\n  0x13\n    /* \"@openzeppelin/contracts/security/ReentrancyGuard.sol\":1821:1843  _status = _NOT_ENTERED */\n  0x00\n    /* \"contracts/modules/Storage.sol\":292:12762  contract Storage is ReentrancyGuard {... */\n  mstore\n    /* \"contracts/modules/Storage.sol\":1313:1828  [... */\n  0x20\n    /* \"@openzeppelin/contracts/security/ReentrancyGuard.sol\":1821:1843  _status = _NOT_ENTERED */\n  0x00\n    /* \"contracts/modules/Storage.sol\":292:12762  contract Storage is ReentrancyGuard {... */\n  keccak256\n  swap1\n    /* \"@openzeppelin/contracts/security/ReentrancyGuard.sol\":1821:1843  _status = _NOT_ENTERED */\n  0x00\n    /* \"contracts/modules/Storage.sol\":292:12762  contract Storage is ReentrancyGuard {... */\ntag_16:\n    /* \"contracts/modules/Storage.sol\":5057:5121  [75e18, 300e18, 1200e18, 4800e18, 19200e18, 76800e18, 307200e18] */\n  0x07\n    /* \"contracts/modules/Storage.sol\":292:12762  contract Storage is ReentrancyGuard {... */\n  dup2\n  lt\n  tag_17\n  jumpi\n  tag_19\n  tag_2\n  jump\t// in\ntag_19:\n    /* \"contracts/modules/Storage.sol\":1420:1430  100 * 1e18 */\n  0x056bc75e2d63100000\n    /* \"contracts/modules/Storage.sol\":292:12762  contract Storage is ReentrancyGuard {... */\n  dup2\n  mstore\n    /* \"contracts/modules/Storage.sol\":1453:1463  200 * 1e18 */\n  0x0ad78ebc5ac6200000\n    /* \"contracts/modules/Storage.sol\":1313:1828  [... */\n  0x20\n    /* \"contracts/modules/Storage.sol\":5163:5233  [ 100e18, 200e18, 400e18, 800e18, 1600e18, 3200e18, 6400e18, 12800e18] */\n  dup3\n  add\n    /* \"contracts/modules/Storage.sol\":292:12762  contract Storage is ReentrancyGuard {... */\n  mstore\n    /* \"contracts/modules/Storage.sol\":1486:1496  400 * 1e18 */\n  0x15af1d78b58c400000\n    /* \"contracts/modules/Storage.sol\":292:12762  contract Storage is ReentrancyGuard {... */\n  0x40\n    /* \"contracts/modules/Storage.sol\":5163:5233  [ 100e18, 200e18, 400e18, 800e18, 1600e18, 3200e18, 6400e18, 12800e18] */\n  dup3\n  add\n    /* \"contracts/modules/Storage.sol\":292:12762  contract Storage is ReentrancyGuard {... */\n  mstore\n    /* \"contracts/modules/Storage.sol\":1519:1529  800 * 1e18 */\n  0x2b5e3af16b18800000\n    /* \"contracts/modules/Storage.sol\":1313:1828  [... */\n  0x60\n    /* \"contracts/modules/Storage.sol\":5163:5233  [ 100e18, 200e18, 400e18, 800e18, 1600e18, 3200e18, 6400e18, 12800e18] */\n  dup3\n  add\n    /* \"contracts/modules/Storage.sol\":292:12762  contract Storage is ReentrancyGuard {... */\n  mstore\n    /* \"contracts/modules/Storage.sol\":1552:1563  1600 * 1e18 */\n  0x56bc75e2d631000000\n    /* \"contracts/modules/Storage.sol\":1313:1828  [... */\n  0x80\n    /* \"contracts/modules/Storage.sol\":5163:5233  [ 100e18, 200e18, 400e18, 800e18, 1600e18, 3200e18, 6400e18, 12800e18] */\n  dup3\n  add\n    /* \"contracts/modules/Storage.sol\":292:12762  contract Storage is ReentrancyGuard {... */\n  mstore\n    /* \"contracts/modules/Storage.sol\":1586:1597  3200 * 1e18 */\n  0xad78ebc5ac62000000\n    /* \"contracts/modules/Storage.sol\":1313:1828  [... */\n  0xa0\n    /* \"contracts/modules/Storage.sol\":5163:5233  [ 100e18, 200e18, 400e18, 800e18, 1600e18, 3200e18, 6400e18, 12800e18] */\n  dup3\n  add\n    /* \"contracts/modules/Storage.sol\":292:12762  contract Storage is ReentrancyGuard {... */\n  mstore\n    /* \"contracts/modules/Storage.sol\":1620:1631  6400 * 1e18 */\n  0x015af1d78b58c4000000\n    /* \"contracts/modules/Storage.sol\":1313:1828  [... */\n  0xc0\n    /* \"contracts/modules/Storage.sol\":5163:5233  [ 100e18, 200e18, 400e18, 800e18, 1600e18, 3200e18, 6400e18, 12800e18] */\n  dup3\n  add\n    /* \"contracts/modules/Storage.sol\":292:12762  contract Storage is ReentrancyGuard {... */\n  mstore\n    /* \"contracts/modules/Storage.sol\":1654:1666  12800 * 1e18 */\n  0x02b5e3af16b188000000\n    /* \"contracts/modules/Storage.sol\":1313:1828  [... */\n  0xe0\n    /* \"contracts/modules/Storage.sol\":5163:5233  [ 100e18, 200e18, 400e18, 800e18, 1600e18, 3200e18, 6400e18, 12800e18] */\n  dup3\n  add\n    /* \"contracts/modules/Storage.sol\":292:12762  contract Storage is ReentrancyGuard {... */\n  mstore\n    /* \"contracts/modules/Storage.sol\":5163:5233  [ 100e18, 200e18, 400e18, 800e18, 1600e18, 3200e18, 6400e18, 12800e18] */\n  0x14\n    /* \"contracts/modules/Storage.sol\":292:12762  contract Storage is ReentrancyGuard {... */\n  sload\n    /* \"contracts/modules/Storage.sol\":5163:5233  [ 100e18, 200e18, 400e18, 800e18, 1600e18, 3200e18, 6400e18, 12800e18] */\n  0x08\n  0x14\n    /* \"contracts/modules/Storage.sol\":292:12762  contract Storage is ReentrancyGuard {... */\n  sstore\n  dup1\n    /* \"contracts/modules/Storage.sol\":5163:5233  [ 100e18, 200e18, 400e18, 800e18, 1600e18, 3200e18, 6400e18, 12800e18] */\n  0x08\n    /* \"contracts/modules/Storage.sol\":292:12762  contract Storage is ReentrancyGuard {... */\n  lt\n  tag_20\n  jumpi\ntag_21:\n  pop\n    /* \"contracts/modules/Storage.sol\":5163:5233  [ 100e18, 200e18, 400e18, 800e18, 1600e18, 3200e18, 6400e18, 12800e18] */\n  0x14\n    /* \"@openzeppelin/contracts/security/ReentrancyGuard.sol\":1821:1843  _status = _NOT_ENTERED */\n  0x00\n    /* \"contracts/modules/Storage.sol\":292:12762  contract Storage is ReentrancyGuard {... */\n  mstore\n    /* \"contracts/modules/Storage.sol\":1313:1828  [... */\n  0x20\n    /* \"@openzeppelin/contracts/security/ReentrancyGuard.sol\":1821:1843  _status = _NOT_ENTERED */\n  0x00\n    /* \"contracts/modules/Storage.sol\":292:12762  contract Storage is ReentrancyGuard {... */\n  keccak256\n  swap1\n    /* \"@openzeppelin/contracts/security/ReentrancyGuard.sol\":1821:1843  _status = _NOT_ENTERED */\n  0x00\n    /* \"contracts/modules/Storage.sol\":292:12762  contract Storage is ReentrancyGuard {... */\ntag_22:\n    /* \"contracts/modules/Storage.sol\":5163:5233  [ 100e18, 200e18, 400e18, 800e18, 1600e18, 3200e18, 6400e18, 12800e18] */\n  0x08\n    /* \"contracts/modules/Storage.sol\":292:12762  contract Storage is ReentrancyGuard {... */\n  dup2\n  lt\n  tag_23\n  jumpi\n  tag_25\n  tag_1\n  jump\t// in\ntag_25:\n    /* \"contracts/modules/Storage.sol\":5274:5275  3 */\n  0x03\n    /* \"contracts/modules/Storage.sol\":292:12762  contract Storage is ReentrancyGuard {... */\n  dup2\n  mstore\n  0x05\n    /* \"contracts/modules/Storage.sol\":1313:1828  [... */\n  0x20\n    /* \"contracts/modules/Storage.sol\":5273:5297  [3, 5, 7, 9, 11, 13, 15] */\n  dup3\n  add\n    /* \"contracts/modules/Storage.sol\":292:12762  contract Storage is ReentrancyGuard {... */\n  mstore\n    /* \"contracts/modules/Storage.sol\":5057:5121  [75e18, 300e18, 1200e18, 4800e18, 19200e18, 76800e18, 307200e18] */\n  0x07\n    /* \"contracts/modules/Storage.sol\":292:12762  contract Storage is ReentrancyGuard {... */\n  0x40\n    /* \"contracts/modules/Storage.sol\":5273:5297  [3, 5, 7, 9, 11, 13, 15] */\n  dup3\n  add\n    /* \"contracts/modules/Storage.sol\":292:12762  contract Storage is ReentrancyGuard {... */\n  mstore\n    /* \"contracts/modules/Storage.sol\":5283:5284  9 */\n  0x09\n    /* \"contracts/modules/Storage.sol\":1313:1828  [... */\n  0x60\n    /* \"contracts/modules/Storage.sol\":5273:5297  [3, 5, 7, 9, 11, 13, 15] */\n  dup3\n  add\n    /* \"contracts/modules/Storage.sol\":292:12762  contract Storage is ReentrancyGuard {... */\n  mstore\n    /* \"contracts/modules/Storage.sol\":1313:1828  [... */\n  0x0b\n  0x80\n    /* \"contracts/modules/Storage.sol\":5273:5297  [3, 5, 7, 9, 11, 13, 15] */\n  dup3\n  add\n    /* \"contracts/modules/Storage.sol\":292:12762  contract Storage is ReentrancyGuard {... */\n  mstore\n    /* \"contracts/modules/Storage.sol\":5290:5292  13 */\n  0x0d\n    /* \"contracts/modules/Storage.sol\":1313:1828  [... */\n  0xa0\n    /* \"contracts/modules/Storage.sol\":5273:5297  [3, 5, 7, 9, 11, 13, 15] */\n  dup3\n  add\n    /* \"contracts/modules/Storage.sol\":292:12762  contract Storage is ReentrancyGuard {... */\n  mstore\n    /* \"contracts/modules/Storage.sol\":1313:1828  [... */\n  0x0f\n  0xc0\n    /* \"contracts/modules/Storage.sol\":5273:5297  [3, 5, 7, 9, 11, 13, 15] */\n  dup3\n  add\n    /* \"contracts/modules/Storage.sol\":292:12762  contract Storage is ReentrancyGuard {... */\n  mstore\n    /* \"@openzeppelin/contracts/security/ReentrancyGuard.sol\":1821:1843  _status = _NOT_ENTERED */\n  0x00\n    /* \"contracts/modules/Storage.sol\":292:12762  contract Storage is ReentrancyGuard {... */\ntag_26:\n    /* \"contracts/modules/Storage.sol\":5057:5121  [75e18, 300e18, 1200e18, 4800e18, 19200e18, 76800e18, 307200e18] */\n  0x07\n    /* \"contracts/modules/Storage.sol\":292:12762  contract Storage is ReentrancyGuard {... */\n  dup2\n  lt\n  tag_27\n  jumpi\n  tag_29\n  tag_2\n  jump\t// in\ntag_29:\n    /* \"contracts/modules/Storage.sol\":5344:5345  4 */\n  0x04\n    /* \"contracts/modules/Storage.sol\":292:12762  contract Storage is ReentrancyGuard {... */\n  dup2\n  mstore\n  0x05\n    /* \"contracts/modules/Storage.sol\":1313:1828  [... */\n  0x20\n    /* \"contracts/modules/Storage.sol\":5343:5368  [4, 5, 6, 7, 8, 9, 10,11] */\n  dup3\n  add\n    /* \"contracts/modules/Storage.sol\":292:12762  contract Storage is ReentrancyGuard {... */\n  mstore\n    /* \"contracts/modules/Storage.sol\":5350:5351  6 */\n  0x06\n    /* \"contracts/modules/Storage.sol\":292:12762  contract Storage is ReentrancyGuard {... */\n  0x40\n    /* \"contracts/modules/Storage.sol\":5343:5368  [4, 5, 6, 7, 8, 9, 10,11] */\n  dup3\n  add\n    /* \"contracts/modules/Storage.sol\":292:12762  contract Storage is ReentrancyGuard {... */\n  mstore\n    /* \"contracts/modules/Storage.sol\":5057:5121  [75e18, 300e18, 1200e18, 4800e18, 19200e18, 76800e18, 307200e18] */\n  0x07\n    /* \"contracts/modules/Storage.sol\":1313:1828  [... */\n  0x60\n    /* \"contracts/modules/Storage.sol\":5343:5368  [4, 5, 6, 7, 8, 9, 10,11] */\n  dup3\n  add\n    /* \"contracts/modules/Storage.sol\":292:12762  contract Storage is ReentrancyGuard {... */\n  mstore\n    /* \"contracts/modules/Storage.sol\":5163:5233  [ 100e18, 200e18, 400e18, 800e18, 1600e18, 3200e18, 6400e18, 12800e18] */\n  0x08\n    /* \"contracts/modules/Storage.sol\":1313:1828  [... */\n  0x80\n    /* \"contracts/modules/Storage.sol\":5343:5368  [4, 5, 6, 7, 8, 9, 10,11] */\n  dup3\n  add\n    /* \"contracts/modules/Storage.sol\":292:12762  contract Storage is ReentrancyGuard {... */\n  mstore\n    /* \"contracts/modules/Storage.sol\":5283:5284  9 */\n  0x09\n    /* \"contracts/modules/Storage.sol\":1313:1828  [... */\n  0xa0\n    /* \"contracts/modules/Storage.sol\":5343:5368  [4, 5, 6, 7, 8, 9, 10,11] */\n  dup3\n  add\n    /* \"contracts/modules/Storage.sol\":292:12762  contract Storage is ReentrancyGuard {... */\n  mstore\n    /* \"contracts/modules/Storage.sol\":5362:5364  10 */\n  0x0a\n    /* \"contracts/modules/Storage.sol\":1313:1828  [... */\n  0xc0\n    /* \"contracts/modules/Storage.sol\":5343:5368  [4, 5, 6, 7, 8, 9, 10,11] */\n  dup3\n  add\n    /* \"contracts/modules/Storage.sol\":292:12762  contract Storage is ReentrancyGuard {... */\n  mstore\n    /* \"contracts/modules/Storage.sol\":1313:1828  [... */\n  0x0b\n  0xe0\n    /* \"contracts/modules/Storage.sol\":5343:5368  [4, 5, 6, 7, 8, 9, 10,11] */\n  dup3\n  add\n    /* \"contracts/modules/Storage.sol\":292:12762  contract Storage is ReentrancyGuard {... */\n  mstore\n    /* \"@openzeppelin/contracts/security/ReentrancyGuard.sol\":1821:1843  _status = _NOT_ENTERED */\n  0x00\n    /* \"contracts/modules/Storage.sol\":292:12762  contract Storage is ReentrancyGuard {... */\ntag_30:\n    /* \"contracts/modules/Storage.sol\":5163:5233  [ 100e18, 200e18, 400e18, 800e18, 1600e18, 3200e18, 6400e18, 12800e18] */\n  0x08\n    /* \"contracts/modules/Storage.sol\":292:12762  contract Storage is ReentrancyGuard {... */\n  dup2\n  lt\n  tag_31\n  jumpi\n  tag_33\n  tag_2\n  jump\t// in\ntag_33:\n    /* \"@openzeppelin/contracts/security/ReentrancyGuard.sol\":1821:1843  _status = _NOT_ENTERED */\n  0x00\n    /* \"contracts/modules/Storage.sol\":292:12762  contract Storage is ReentrancyGuard {... */\n  dup2\n  mstore\n    /* \"@openzeppelin/contracts/security/ReentrancyGuard.sol\":1716:1717  1 */\n  0x01\n    /* \"contracts/modules/Storage.sol\":1313:1828  [... */\n  0x20\n    /* \"contracts/modules/Storage.sol\":5413:5436  [0, 1, 1, 1, 1, 1, 1,1] */\n  dup3\n  add\n    /* \"contracts/modules/Storage.sol\":292:12762  contract Storage is ReentrancyGuard {... */\n  mstore\n    /* \"@openzeppelin/contracts/security/ReentrancyGuard.sol\":1716:1717  1 */\n  0x01\n    /* \"contracts/modules/Storage.sol\":292:12762  contract Storage is ReentrancyGuard {... */\n  0x40\n    /* \"contracts/modules/Storage.sol\":5413:5436  [0, 1, 1, 1, 1, 1, 1,1] */\n  dup3\n  add\n    /* \"contracts/modules/Storage.sol\":292:12762  contract Storage is ReentrancyGuard {... */\n  mstore\n    /* \"@openzeppelin/contracts/security/ReentrancyGuard.sol\":1716:1717  1 */\n  0x01\n    /* \"contracts/modules/Storage.sol\":1313:1828  [... */\n  0x60\n    /* \"contracts/modules/Storage.sol\":5413:5436  [0, 1, 1, 1, 1, 1, 1,1] */\n  dup3\n  add\n    /* \"contracts/modules/Storage.sol\":292:12762  contract Storage is ReentrancyGuard {... */\n  mstore\n    /* \"@openzeppelin/contracts/security/ReentrancyGuard.sol\":1716:1717  1 */\n  0x01\n    /* \"contracts/modules/Storage.sol\":1313:1828  [... */\n  0x80\n    /* \"contracts/modules/Storage.sol\":5413:5436  [0, 1, 1, 1, 1, 1, 1,1] */\n  dup3\n  add\n    /* \"contracts/modules/Storage.sol\":292:12762  contract Storage is ReentrancyGuard {... */\n  mstore\n    /* \"@openzeppelin/contracts/security/ReentrancyGuard.sol\":1716:1717  1 */\n  0x01\n    /* \"contracts/modules/Storage.sol\":1313:1828  [... */\n  0xa0\n    /* \"contracts/modules/Storage.sol\":5413:5436  [0, 1, 1, 1, 1, 1, 1,1] */\n  dup3\n  add\n    /* \"contracts/modules/Storage.sol\":292:12762  contract Storage is ReentrancyGuard {... */\n  mstore\n    /* \"@openzeppelin/contracts/security/ReentrancyGuard.sol\":1716:1717  1 */\n  0x01\n    /* \"contracts/modules/Storage.sol\":1313:1828  [... */\n  0xc0\n    /* \"contracts/modules/Storage.sol\":5413:5436  [0, 1, 1, 1, 1, 1, 1,1] */\n  dup3\n  add\n    /* \"contracts/modules/Storage.sol\":292:12762  contract Storage is ReentrancyGuard {... */\n  mstore\n    /* \"@openzeppelin/contracts/security/ReentrancyGuard.sol\":1716:1717  1 */\n  0x01\n    /* \"contracts/modules/Storage.sol\":1313:1828  [... */\n  0xe0\n    /* \"contracts/modules/Storage.sol\":5413:5436  [0, 1, 1, 1, 1, 1, 1,1] */\n  dup3\n  add\n    /* \"contracts/modules/Storage.sol\":292:12762  contract Storage is ReentrancyGuard {... */\n  mstore\n    /* \"@openzeppelin/contracts/security/ReentrancyGuard.sol\":1821:1843  _status = _NOT_ENTERED */\n  0x00\n    /* \"contracts/modules/Storage.sol\":292:12762  contract Storage is ReentrancyGuard {... */\ntag_34:\n    /* \"contracts/modules/Storage.sol\":5163:5233  [ 100e18, 200e18, 400e18, 800e18, 1600e18, 3200e18, 6400e18, 12800e18] */\n  0x08\n    /* \"contracts/modules/Storage.sol\":292:12762  contract Storage is ReentrancyGuard {... */\n  dup2\n  lt\n  tag_35\n  jumpi\n    /* \"@openzeppelin/contracts/security/ReentrancyGuard.sol\":1716:1717  1 */\n  0x01\n    /* \"contracts/modules/Storage.sol\":7098:7099  1 */\n  0x36\n    /* \"contracts/modules/Storage.sol\":292:12762  contract Storage is ReentrancyGuard {... */\n  sstore\n    /* \"@openzeppelin/contracts/security/ReentrancyGuard.sol\":1716:1717  1 */\n  0x01\n    /* \"contracts/modules/Storage.sol\":7144:7145  1 */\n  0x37\n    /* \"contracts/modules/Storage.sol\":292:12762  contract Storage is ReentrancyGuard {... */\n  sstore\n    /* \"@openzeppelin/contracts/security/ReentrancyGuard.sol\":1821:1843  _status = _NOT_ENTERED */\n  0x00\n    /* \"contracts/modules/Storage.sol\":7189:7190  0 */\n  0x38\n    /* \"contracts/modules/Storage.sol\":292:12762  contract Storage is ReentrancyGuard {... */\n  sstore\n    /* \"@openzeppelin/contracts/security/ReentrancyGuard.sol\":1821:1843  _status = _NOT_ENTERED */\n  0x00\n    /* \"contracts/modules/Storage.sol\":7235:7236  0 */\n  0x39\n    /* \"contracts/modules/Storage.sol\":292:12762  contract Storage is ReentrancyGuard {... */\n  sstore\n    /* \"@openzeppelin/contracts/security/ReentrancyGuard.sol\":1821:1843  _status = _NOT_ENTERED */\n  0x00\n    /* \"contracts/modules/Storage.sol\":7275:7276  0 */\n  0x3a\n    /* \"contracts/modules/Storage.sol\":292:12762  contract Storage is ReentrancyGuard {... */\n  sstore\n  mload(0x40)\n  dataSize(sub_0)\n  swap1\n  dup2\n  dataOffset(sub_0)\n  dup3\n  codecopy\n  return\ntag_35:\n    /* \"@openzeppelin/contracts/security/ReentrancyGuard.sol\":1716:1717  1 */\n  0x01\n    /* \"contracts/modules/Storage.sol\":292:12762  contract Storage is ReentrancyGuard {... */\n  swap1\n    /* \"contracts/modules/Storage.sol\":1313:1828  [... */\n  0x20\n    /* \"contracts/modules/Storage.sol\":292:12762  contract Storage is ReentrancyGuard {... */\n  0xff\n  dup5\n  mload\n  and\n  swap4\n  add\n  swap3\n  dup2\n    /* \"contracts/modules/Storage.sol\":5413:5436  [0, 1, 1, 1, 1, 1, 1,1] */\n  0x24\n    /* \"contracts/modules/Storage.sol\":292:12762  contract Storage is ReentrancyGuard {... */\n  add\n  sstore\n  add\n  jump(tag_34)\ntag_31:\n    /* \"@openzeppelin/contracts/security/ReentrancyGuard.sol\":1716:1717  1 */\n  0x01\n    /* \"contracts/modules/Storage.sol\":292:12762  contract Storage is ReentrancyGuard {... */\n  swap1\n    /* \"contracts/modules/Storage.sol\":1313:1828  [... */\n  0x20\n    /* \"contracts/modules/Storage.sol\":292:12762  contract Storage is ReentrancyGuard {... */\n  0xff\n  dup5\n  mload\n  and\n  swap4\n  add\n  swap3\n  dup2\n    /* \"contracts/modules/Storage.sol\":5343:5368  [4, 5, 6, 7, 8, 9, 10,11] */\n  0x1c\n    /* \"contracts/modules/Storage.sol\":292:12762  contract Storage is ReentrancyGuard {... */\n  add\n  sstore\n  add\n  jump(tag_30)\ntag_27:\n    /* \"@openzeppelin/contracts/security/ReentrancyGuard.sol\":1716:1717  1 */\n  0x01\n    /* \"contracts/modules/Storage.sol\":292:12762  contract Storage is ReentrancyGuard {... */\n  swap1\n    /* \"contracts/modules/Storage.sol\":1313:1828  [... */\n  0x20\n    /* \"contracts/modules/Storage.sol\":292:12762  contract Storage is ReentrancyGuard {... */\n  0xff\n  dup5\n  mload\n  and\n  swap4\n  add\n  swap3\n  dup2\n    /* \"contracts/modules/Storage.sol\":5273:5297  [3, 5, 7, 9, 11, 13, 15] */\n  0x15\n    /* \"contracts/modules/Storage.sol\":292:12762  contract Storage is ReentrancyGuard {... */\n  add\n  sstore\n  add\n  jump(tag_26)\ntag_23:\n  dup2\n  mload\n  sub(shl(0x50, 0x01), 0x01)\n  and\n  dup2\n  dup5\n  add\n  sstore\n    /* \"contracts/modules/Storage.sol\":1313:1828  [... */\n  0x20\n    /* \"contracts/modules/Storage.sol\":292:12762  contract Storage is ReentrancyGuard {... */\n  swap1\n  swap2\n  add\n  swap1\n    /* \"@openzeppelin/contracts/security/ReentrancyGuard.sol\":1716:1717  1 */\n  0x01\n    /* \"contracts/modules/Storage.sol\":292:12762  contract Storage is ReentrancyGuard {... */\n  add\n  jump(tag_22)\ntag_20:\n    /* \"contracts/modules/Storage.sol\":5163:5233  [ 100e18, 200e18, 400e18, 800e18, 1600e18, 3200e18, 6400e18, 12800e18] */\n  0x14\n    /* \"@openzeppelin/contracts/security/ReentrancyGuard.sol\":1821:1843  _status = _NOT_ENTERED */\n  0x00\n    /* \"contracts/modules/Storage.sol\":292:12762  contract Storage is ReentrancyGuard {... */\n  mstore\n  tag_37\n  swap1\n  0xce6d7b5282bd9a3661ae061feed1dbda4e52ab073b1f9285be6e155d9c38d4ec\n  add\n  0xce6d7b5282bd9a3661ae061feed1dbda4e52ab073b1f9285be6e155d9c38d4f4\n  tag_3\n  jump\t// in\ntag_37:\n  dup2\n  jump(tag_21)\ntag_17:\n  dup2\n  mload\n  sub(shl(0x50, 0x01), 0x01)\n  and\n  dup2\n  dup5\n  add\n  sstore\n    /* \"contracts/modules/Storage.sol\":1313:1828  [... */\n  0x20\n    /* \"contracts/modules/Storage.sol\":292:12762  contract Storage is ReentrancyGuard {... */\n  swap1\n  swap2\n  add\n  swap1\n    /* \"@openzeppelin/contracts/security/ReentrancyGuard.sol\":1716:1717  1 */\n  0x01\n    /* \"contracts/modules/Storage.sol\":292:12762  contract Storage is ReentrancyGuard {... */\n  add\n  jump(tag_16)\ntag_14:\n    /* \"contracts/modules/Storage.sol\":5057:5121  [75e18, 300e18, 1200e18, 4800e18, 19200e18, 76800e18, 307200e18] */\n  0x13\n    /* \"@openzeppelin/contracts/security/ReentrancyGuard.sol\":1821:1843  _status = _NOT_ENTERED */\n  0x00\n    /* \"contracts/modules/Storage.sol\":292:12762  contract Storage is ReentrancyGuard {... */\n  mstore\n  tag_38\n  swap1\n  0x66de8ffda797e3de9c05e8fc57b3bf0ec28a930d40b0d285d93c06501cf6a090\n  add\n  0x66de8ffda797e3de9c05e8fc57b3bf0ec28a930d40b0d285d93c06501cf6a097\n  tag_3\n  jump\t// in\ntag_38:\n  dup2\n  jump(tag_15)\ntag_11:\n  dup2\n  mload\n  sub(shl(0x50, 0x01), 0x01)\n  and\n  dup2\n  dup5\n  add\n  sstore\n    /* \"contracts/modules/Storage.sol\":1313:1828  [... */\n  0x20\n    /* \"contracts/modules/Storage.sol\":292:12762  contract Storage is ReentrancyGuard {... */\n  swap1\n  swap2\n  add\n  swap1\n    /* \"@openzeppelin/contracts/security/ReentrancyGuard.sol\":1716:1717  1 */\n  0x01\n    /* \"contracts/modules/Storage.sol\":292:12762  contract Storage is ReentrancyGuard {... */\n  add\n  jump(tag_10)\ntag_8:\n    /* \"contracts/modules/Storage.sol\":1313:1828  [... */\n  0x0b\n    /* \"@openzeppelin/contracts/security/ReentrancyGuard.sol\":1821:1843  _status = _NOT_ENTERED */\n  0x00\n    /* \"contracts/modules/Storage.sol\":292:12762  contract Storage is ReentrancyGuard {... */\n  mstore\n  tag_39\n  swap1\n  0x0175b7a638427703f0dbe7bb9bbf987a2551717b34e79f33b5b1008d1fa01db9\n  add\n  0x0175b7a638427703f0dbe7bb9bbf987a2551717b34e79f33b5b1008d1fa01dc8\n  tag_3\n  jump\t// in\ntag_39:\n  0x00\n  jump(tag_9)\ntag_6:\n  shl(0xe0, 0x4e487b71)\n    /* \"@openzeppelin/contracts/security/ReentrancyGuard.sol\":1821:1843  _status = _NOT_ENTERED */\n  0x00\n    /* \"contracts/modules/Storage.sol\":292:12762  contract Storage is ReentrancyGuard {... */\n  mstore\n  mstore(0x04, 0x41)\n  0x24\n    /* \"@openzeppelin/contracts/security/ReentrancyGuard.sol\":1821:1843  _status = _NOT_ENTERED */\n  0x00\n    /* \"contracts/modules/Storage.sol\":292:12762  contract Storage is ReentrancyGuard {... */\n  revert\ntag_4:\n  0x00\n  dup1\n  revert\ntag_1:\n  mload(0x40)\n  swap1\n  0xe0\n  dup3\n  add\n  sub(shl(0x40, 0x01), 0x01)\n  dup2\n  gt\n  dup4\n  dup3\n  lt\n  or\n  tag_6\n  jumpi\n  0x40\n  mstore\n  jump\t// out\ntag_2:\n  mload(0x40)\n  swap1\n  0x0100\n  dup3\n  add\n  sub(shl(0x40, 0x01), 0x01)\n  dup2\n  gt\n  dup4\n  dup3\n  lt\n  or\n  tag_6\n  jumpi\n  0x40\n  mstore\n  jump\t// out\ntag_3:\n  dup2\n  dup2\n  lt\n  tag_45\n  jumpi\n  pop\n  pop\n  jump\t// out\ntag_45:\n  0x00\n  dup2\n  sstore\n  0x01\n  add\n  jump(tag_3)\nstop\n\nsub_0: assembly {\n        /* \"contracts/modules/Storage.sol\":292:12762  contract Storage is ReentrancyGuard {... */\n      0x80\n      dup1\n      0x40\n      mstore\n      jumpi(tag_1, iszero(lt(calldatasize, 0x04)))\n      0x00\n      dup1\n      revert\n    tag_1:\n      shr(0xe0, calldataload(0x00))\n      swap1\n      dup2\n      0x01c234a8\n      eq\n      tag_3\n      jumpi\n      pop\n      dup1\n      0x2132d204\n      eq\n      tag_5\n      jumpi\n      dup1\n      0x2350268f\n      eq\n      tag_7\n      jumpi\n      dup1\n      0x2a891534\n      eq\n      tag_9\n      jumpi\n      dup1\n      0x2f48ab7d\n      eq\n      tag_11\n      jumpi\n      dup1\n      0x3080b5bc\n      eq\n      tag_13\n      jumpi\n      dup1\n      0x32bc298c\n      eq\n      tag_15\n      jumpi\n      dup1\n      0x32fcd966\n      eq\n      tag_17\n      jumpi\n      dup1\n      0x375b43b4\n      eq\n      tag_19\n      jumpi\n      dup1\n      0x39ab3603\n      eq\n      tag_21\n      jumpi\n      dup1\n      0x58c7d352\n      eq\n      tag_23\n      jumpi\n      dup1\n      0x76f5f700\n      eq\n      tag_25\n      jumpi\n      dup1\n      0x78f6ad6d\n      eq\n      tag_27\n      jumpi\n      dup1\n      0x7cdc65f2\n      eq\n      tag_29\n      jumpi\n      dup1\n      0x956a3228\n      eq\n      tag_31\n      jumpi\n      dup1\n      0xae4708dc\n      eq\n      tag_33\n      jumpi\n      dup1\n      0xbff1f9e1\n      eq\n      tag_35\n      jumpi\n      dup1\n      0xc216212a\n      eq\n      tag_37\n      jumpi\n      dup1\n      0xc8df2908\n      eq\n      tag_39\n      jumpi\n      dup1\n      0xc9ed0708\n      eq\n      tag_41\n      jumpi\n      dup1\n      0xca8e9121\n      eq\n      tag_43\n      jumpi\n      dup1\n      0xd0a2fd79\n      eq\n      tag_45\n      jumpi\n      dup1\n      0xe898fc38\n      eq\n      tag_47\n      jumpi\n      dup1\n      0xe9e34a16\n      eq\n      tag_49\n      jumpi\n      dup1\n      0xebe0ff15\n      eq\n      tag_51\n      jumpi\n      dup1\n      0xec597e6f\n      eq\n      tag_53\n      jumpi\n      dup1\n      0xf5d74d93\n      eq\n      tag_55\n      jumpi\n      0xfddc806f\n      eq\n      tag_57\n      jumpi\n      0x00\n      dup1\n      revert\n    tag_57:\n      jumpi(tag_61, callvalue)\n      jumpi(tag_61, slt(add(not(0x03), calldatasize), 0x00))\n      0x20\n        /* \"contracts/modules/Storage.sol\":7152:7190  uint public currentWeeklyStartTime = 0 */\n      0x38\n        /* \"contracts/modules/Storage.sol\":292:12762  contract Storage is ReentrancyGuard {... */\n      sload\n      mload(0x40)\n      swap1\n      dup2\n      mstore\n      return\n    tag_61:\n      0x00\n      dup1\n      revert\n    tag_55:\n      jumpi(tag_61, callvalue)\n      jumpi(tag_61, slt(add(not(0x03), calldatasize), 0x00))\n      sload(0x04)\n      mload(0x40)\n      sub(shl(0xa0, 0x01), 0x01)\n      swap1\n      swap2\n      and\n      dup2\n      mstore\n      0x20\n      swap1\n      return\n    tag_53:\n      jumpi(tag_61, callvalue)\n      jumpi(tag_61, slt(add(not(0x03), calldatasize), 0x00))\n      0x20\n        /* \"contracts/modules/Storage.sol\":534:558  uint public defaultRefId */\n      0x05\n        /* \"contracts/modules/Storage.sol\":292:12762  contract Storage is ReentrancyGuard {... */\n      sload\n      mload(0x40)\n      swap1\n      dup2\n      mstore\n      return\n    tag_51:\n      jumpi(tag_61, callvalue)\n      jumpi(tag_61, slt(add(not(0x03), calldatasize), 0x00))\n      0x20\n      mload(0x40)\n        /* \"contracts/modules/Storage.sol\":6996:7003  1000e18 */\n      0x3635c9adc5dea00000\n        /* \"contracts/modules/Storage.sol\":292:12762  contract Storage is ReentrancyGuard {... */\n      dup2\n      mstore\n      return\n    tag_49:\n      jumpi(tag_61, callvalue)\n      jumpi(tag_61, slt(add(not(0x03), calldatasize), 0x00))\n        /* \"contracts/modules/Storage.sol\":460:490  address public systemMaintance */\n      0x03\n        /* \"contracts/modules/Storage.sol\":292:12762  contract Storage is ReentrancyGuard {... */\n      sload\n      mload(0x40)\n      sub(shl(0xa0, 0x01), 0x01)\n      swap1\n      swap2\n      and\n      dup2\n      mstore\n      0x20\n      swap1\n      return\n    tag_47:\n      jumpi(tag_61, callvalue)\n      jumpi(tag_61, slt(add(not(0x03), calldatasize), 0x00))\n      0x20\n        /* \"contracts/modules/Storage.sol\":7197:7236  uint public currentMonthlyStartTime = 0 */\n      0x39\n        /* \"contracts/modules/Storage.sol\":292:12762  contract Storage is ReentrancyGuard {... */\n      sload\n      mload(0x40)\n      swap1\n      dup2\n      mstore\n      return\n    tag_45:\n      jumpi(tag_61, callvalue)\n      jumpi(tag_61, slt(add(not(0x03), calldatasize), 0x20))\n      calldataload(0x04)\n      0x08\n        /* \"contracts/modules/Storage.sol\":5304:5368  uint[8] public minLevelForGlbBooster = [4, 5, 6, 7, 8, 9, 10,11] */\n      dup2\n      lt\n      iszero\n      tag_61\n      jumpi\n        /* \"contracts/modules/Storage.sol\":292:12762  contract Storage is ReentrancyGuard {... */\n      0x20\n      swap1\n        /* \"contracts/modules/Storage.sol\":5304:5368  uint[8] public minLevelForGlbBooster = [4, 5, 6, 7, 8, 9, 10,11] */\n      0x1c\n        /* \"contracts/modules/Storage.sol\":292:12762  contract Storage is ReentrancyGuard {... */\n      add\n      sload\n      mload(0x40)\n      swap1\n      dup2\n      mstore\n      return\n    tag_43:\n      jumpi(tag_61, callvalue)\n      jumpi(tag_61, slt(add(not(0x03), calldatasize), 0x00))\n      0x20\n        /* \"contracts/modules/Storage.sol\":7065:7099  uint public currentWeeklyRound = 1 */\n      0x36\n        /* \"contracts/modules/Storage.sol\":292:12762  contract Storage is ReentrancyGuard {... */\n      sload\n      mload(0x40)\n      swap1\n      dup2\n      mstore\n      return\n    tag_41:\n      jumpi(tag_61, callvalue)\n      jumpi(tag_61, slt(add(not(0x03), calldatasize), 0x00))\n      0x20\n        /* \"contracts/modules/Storage.sol\":7110:7145  uint public currentMonthlyRound = 1 */\n      0x37\n        /* \"contracts/modules/Storage.sol\":292:12762  contract Storage is ReentrancyGuard {... */\n      sload\n      mload(0x40)\n      swap1\n      dup2\n      mstore\n      return\n    tag_39:\n      jumpi(tag_61, callvalue)\n      jumpi(tag_61, slt(add(not(0x03), calldatasize), 0x00))\n      0x20\n      mload(0x40)\n        /* \"contracts/modules/Storage.sol\":7048:7056  10000e18 */\n      0x021e19e0c9bab2400000\n        /* \"contracts/modules/Storage.sol\":292:12762  contract Storage is ReentrancyGuard {... */\n      dup2\n      mstore\n      return\n    tag_37:\n      jumpi(tag_61, callvalue)\n      jumpi(tag_61, slt(add(not(0x03), calldatasize), 0x20))\n      calldataload(0x04)\n        /* \"contracts/modules/Storage.sol\":1288:1828  uint[] public packages = [... */\n      0x0b\n        /* \"contracts/modules/Storage.sol\":292:12762  contract Storage is ReentrancyGuard {... */\n      sload\n        /* \"contracts/modules/Storage.sol\":1288:1828  uint[] public packages = [... */\n      dup2\n      lt\n      iszero\n      tag_61\n      jumpi\n      0x0b\n        /* \"contracts/modules/Storage.sol\":292:12762  contract Storage is ReentrancyGuard {... */\n      sload\n      dup2\n      lt\n      iszero\n      tag_107\n      jumpi\n        /* \"contracts/modules/Storage.sol\":1288:1828  uint[] public packages = [... */\n      0x0b\n        /* \"contracts/modules/Storage.sol\":292:12762  contract Storage is ReentrancyGuard {... */\n      0x00\n      mstore\n      0x0175b7a638427703f0dbe7bb9bbf987a2551717b34e79f33b5b1008d1fa01db9\n      add\n      sload\n      mload(0x40)\n      swap1\n      dup2\n      mstore\n      0x20\n      swap1\n      return\n    tag_107:\n      mstore(0x00, shl(0xe0, 0x4e487b71))\n      mstore(0x04, 0x32)\n      revert(0x00, 0x24)\n    tag_35:\n      jumpi(tag_61, callvalue)\n      jumpi(tag_61, slt(add(not(0x03), calldatasize), 0x00))\n      0x20\n        /* \"contracts/modules/Storage.sol\":565:587  uint public totalUsers */\n      0x06\n        /* \"contracts/modules/Storage.sol\":292:12762  contract Storage is ReentrancyGuard {... */\n      sload\n      mload(0x40)\n      swap1\n      dup2\n      mstore\n      return\n    tag_33:\n      jumpi(tag_61, callvalue)\n      jumpi(tag_61, slt(add(not(0x03), calldatasize), 0x20))\n      calldataload(0x04)\n        /* \"contracts/modules/Storage.sol\":5028:5121  uint[] public poolPackages = [75e18, 300e18, 1200e18, 4800e18, 19200e18, 76800e18, 307200e18] */\n      0x13\n        /* \"contracts/modules/Storage.sol\":292:12762  contract Storage is ReentrancyGuard {... */\n      sload\n        /* \"contracts/modules/Storage.sol\":5028:5121  uint[] public poolPackages = [75e18, 300e18, 1200e18, 4800e18, 19200e18, 76800e18, 307200e18] */\n      dup2\n      lt\n      iszero\n      tag_61\n      jumpi\n      0x13\n        /* \"contracts/modules/Storage.sol\":292:12762  contract Storage is ReentrancyGuard {... */\n      sload\n      dup2\n      lt\n      iszero\n      tag_107\n      jumpi\n        /* \"contracts/modules/Storage.sol\":5028:5121  uint[] public poolPackages = [75e18, 300e18, 1200e18, 4800e18, 19200e18, 76800e18, 307200e18] */\n      0x13\n        /* \"contracts/modules/Storage.sol\":292:12762  contract Storage is ReentrancyGuard {... */\n      0x00\n      mstore\n      0x66de8ffda797e3de9c05e8fc57b3bf0ec28a930d40b0d285d93c06501cf6a090\n      add\n      sload\n      mload(0x40)\n      swap1\n      dup2\n      mstore\n      0x20\n      swap1\n      return\n    tag_31:\n      jumpi(tag_61, callvalue)\n      jumpi(tag_61, slt(add(not(0x03), calldatasize), 0x20))\n      calldataload(0x04)\n      0x08\n        /* \"contracts/modules/Storage.sol\":5375:5436  uint[8] public minPoolForGlbBooster = [0, 1, 1, 1, 1, 1, 1,1] */\n      dup2\n      lt\n      iszero\n      tag_61\n      jumpi\n        /* \"contracts/modules/Storage.sol\":292:12762  contract Storage is ReentrancyGuard {... */\n      0x20\n      swap1\n        /* \"contracts/modules/Storage.sol\":5375:5436  uint[8] public minPoolForGlbBooster = [0, 1, 1, 1, 1, 1, 1,1] */\n      0x24\n        /* \"contracts/modules/Storage.sol\":292:12762  contract Storage is ReentrancyGuard {... */\n      add\n      sload\n      mload(0x40)\n      swap1\n      dup2\n      mstore\n      return\n    tag_29:\n      jumpi(tag_61, callvalue)\n      jumpi(tag_61, slt(add(not(0x03), calldatasize), 0x00))\n        /* \"contracts/modules/Storage.sol\":422:450  address public creatorWallet */\n      0x02\n        /* \"contracts/modules/Storage.sol\":292:12762  contract Storage is ReentrancyGuard {... */\n      sload\n      mload(0x40)\n      sub(shl(0xa0, 0x01), 0x01)\n      swap1\n      swap2\n      and\n      dup2\n      mstore\n      0x20\n      swap1\n      return\n    tag_27:\n      jumpi(tag_61, callvalue)\n      jumpi(tag_61, slt(add(not(0x03), calldatasize), 0x00))\n      0x20\n        /* \"contracts/modules/Storage.sol\":1131:1165  uint256 public communityAccPerUser */\n      0x09\n        /* \"contracts/modules/Storage.sol\":292:12762  contract Storage is ReentrancyGuard {... */\n      sload\n      mload(0x40)\n      swap1\n      dup2\n      mstore\n      return\n    tag_25:\n      jumpi(tag_61, callvalue)\n      jumpi(tag_61, slt(add(not(0x03), calldatasize), 0x00))\n      0x20\n      mload(0x40)\n        /* \"contracts/modules/Storage.sol\":6894:6900  7 days */\n      0x093a80\n        /* \"contracts/modules/Storage.sol\":292:12762  contract Storage is ReentrancyGuard {... */\n      dup2\n      mstore\n      return\n    tag_23:\n      jumpi(tag_61, callvalue)\n      jumpi(tag_61, slt(add(not(0x03), calldatasize), 0x00))\n      0x20\n      mload(0x40)\n        /* \"contracts/modules/Storage.sol\":848:850  10 */\n      0x0a\n        /* \"contracts/modules/Storage.sol\":292:12762  contract Storage is ReentrancyGuard {... */\n      dup2\n      mstore\n      return\n    tag_21:\n      jumpi(tag_61, callvalue)\n      jumpi(tag_61, slt(add(not(0x03), calldatasize), 0x20))\n      calldataload(0x04)\n        /* \"contracts/modules/Storage.sol\":864:895  uint[] public registeredUserIds */\n      0x07\n        /* \"contracts/modules/Storage.sol\":292:12762  contract Storage is ReentrancyGuard {... */\n      sload\n        /* \"contracts/modules/Storage.sol\":864:895  uint[] public registeredUserIds */\n      dup2\n      lt\n      iszero\n      tag_61\n      jumpi\n      0x07\n        /* \"contracts/modules/Storage.sol\":292:12762  contract Storage is ReentrancyGuard {... */\n      sload\n      dup2\n      lt\n      iszero\n      tag_107\n      jumpi\n        /* \"contracts/modules/Storage.sol\":864:895  uint[] public registeredUserIds */\n      0x07\n        /* \"contracts/modules/Storage.sol\":292:12762  contract Storage is ReentrancyGuard {... */\n      0x00\n      mstore\n      0xa66cc928b5edb82af9bd49922954155ab7b0942694bea4ce44661d9a8736c688\n      add\n      sload\n      mload(0x40)\n      swap1\n      dup2\n      mstore\n      0x20\n      swap1\n      return\n    tag_19:\n      jumpi(tag_61, callvalue)\n      jumpi(tag_61, slt(add(not(0x03), calldatasize), 0x00))\n      0x20\n      mload(0x40)\n        /* \"contracts/modules/Storage.sol\":789:791  15 */\n      0x0f\n        /* \"contracts/modules/Storage.sol\":292:12762  contract Storage is ReentrancyGuard {... */\n      dup2\n      mstore\n      return\n    tag_17:\n      jumpi(tag_61, callvalue)\n      jumpi(tag_61, slt(add(not(0x03), calldatasize), 0x00))\n      0x20\n      mload(0x40)\n        /* \"contracts/modules/Storage.sol\":1120:1124  1e18 */\n      0x0de0b6b3a7640000\n        /* \"contracts/modules/Storage.sol\":292:12762  contract Storage is ReentrancyGuard {... */\n      dup2\n      mstore\n      return\n    tag_15:\n      jumpi(tag_61, callvalue)\n      jumpi(tag_61, slt(add(not(0x03), calldatasize), 0x00))\n      0x20\n      mload(0x40)\n        /* \"contracts/modules/Storage.sol\":731:737  1 days */\n      0x015180\n        /* \"contracts/modules/Storage.sol\":292:12762  contract Storage is ReentrancyGuard {... */\n      dup2\n      mstore\n      return\n    tag_13:\n      jumpi(tag_61, callvalue)\n      jumpi(tag_61, slt(add(not(0x03), calldatasize), 0x00))\n      0x20\n        /* \"contracts/modules/Storage.sol\":7243:7276  uint public WeeklyTotalReward = 0 */\n      0x3a\n        /* \"contracts/modules/Storage.sol\":292:12762  contract Storage is ReentrancyGuard {... */\n      sload\n      mload(0x40)\n      swap1\n      dup2\n      mstore\n      return\n    tag_11:\n      jumpi(tag_61, callvalue)\n      jumpi(tag_61, slt(add(not(0x03), calldatasize), 0x00))\n      sload(0x01)\n      mload(0x40)\n      sub(shl(0xa0, 0x01), 0x01)\n      swap1\n      swap2\n      and\n      dup2\n      mstore\n      0x20\n      swap1\n      return\n    tag_9:\n      jumpi(tag_61, callvalue)\n      jumpi(tag_61, slt(add(not(0x03), calldatasize), 0x00))\n      0x20\n      mload(0x40)\n        /* \"contracts/modules/Storage.sol\":6945:6952  30 days */\n      0x278d00\n        /* \"contracts/modules/Storage.sol\":292:12762  contract Storage is ReentrancyGuard {... */\n      dup2\n      mstore\n      return\n    tag_7:\n      jumpi(tag_61, callvalue)\n      jumpi(tag_61, slt(add(not(0x03), calldatasize), 0x20))\n      calldataload(0x04)\n        /* \"contracts/modules/Storage.sol\":5128:5233  uint[] public glbBoosterPackages = [ 100e18, 200e18, 400e18, 800e18, 1600e18, 3200e18, 6400e18, 12800e18] */\n      0x14\n        /* \"contracts/modules/Storage.sol\":292:12762  contract Storage is ReentrancyGuard {... */\n      sload\n        /* \"contracts/modules/Storage.sol\":5128:5233  uint[] public glbBoosterPackages = [ 100e18, 200e18, 400e18, 800e18, 1600e18, 3200e18, 6400e18, 12800e18] */\n      dup2\n      lt\n      iszero\n      tag_61\n      jumpi\n      0x14\n        /* \"contracts/modules/Storage.sol\":292:12762  contract Storage is ReentrancyGuard {... */\n      sload\n      dup2\n      lt\n      iszero\n      tag_107\n      jumpi\n        /* \"contracts/modules/Storage.sol\":5128:5233  uint[] public glbBoosterPackages = [ 100e18, 200e18, 400e18, 800e18, 1600e18, 3200e18, 6400e18, 12800e18] */\n      0x14\n        /* \"contracts/modules/Storage.sol\":292:12762  contract Storage is ReentrancyGuard {... */\n      0x00\n      mstore\n      0xce6d7b5282bd9a3661ae061feed1dbda4e52ab073b1f9285be6e155d9c38d4ec\n      add\n      sload\n      mload(0x40)\n      swap1\n      dup2\n      mstore\n      0x20\n      swap1\n      return\n    tag_5:\n      jumpi(tag_61, callvalue)\n      jumpi(tag_61, slt(add(not(0x03), calldatasize), 0x20))\n      calldataload(0x04)\n      0x07\n        /* \"contracts/modules/Storage.sol\":5240:5297  uint[7] public minLevelForPool = [3, 5, 7, 9, 11, 13, 15] */\n      dup2\n      lt\n      iszero\n      tag_61\n      jumpi\n        /* \"contracts/modules/Storage.sol\":292:12762  contract Storage is ReentrancyGuard {... */\n      0x20\n      swap1\n        /* \"contracts/modules/Storage.sol\":5240:5297  uint[7] public minLevelForPool = [3, 5, 7, 9, 11, 13, 15] */\n      0x15\n        /* \"contracts/modules/Storage.sol\":292:12762  contract Storage is ReentrancyGuard {... */\n      add\n      sload\n      mload(0x40)\n      swap1\n      dup2\n      mstore\n      return\n    tag_3:\n      jumpi(tag_61, callvalue)\n      jumpi(tag_61, slt(add(not(0x03), calldatasize), 0x00))\n      dup1\n        /* \"contracts/modules/Storage.sol\":683:688  10000 */\n      0x2710\n        /* \"contracts/modules/Storage.sol\":292:12762  contract Storage is ReentrancyGuard {... */\n      0x20\n      swap3\n      mstore\n      return\n\n    auxdata: 0xa26469706673582212201cb761b14094df1a2cdc627edf54a9487f516e189e6cdbbbd06803ac85c6201664736f6c634300081e0033\n}\n",
				"bytecode": {
					"linkReferences": {},
					"object": "60806040523461051b5760015f556040516101e081016001600160401b038111828210176105075760405267d02ab486cedc0000815268015af1d78b58c4000060208201526802b5e3af16b1880000604082015268056bc75e2d631000006060820152680ad78ebc5ac620000060808201526815af1d78b58c40000060a0820152682b5e3af16b1880000060c08201526856bc75e2d63100000060e082015268ad78ebc5ac6200000061010082015269015af1d78b58c40000006101208201526902b5e3af16b18800000061014082015269056bc75e2d6310000000610160820152690ad78ebc5ac6200000006101808201526915af1d78b58c400000006101a0820152692b5e3af16b18800000006101c0820152600b54600f600b5580600f106104b1575b50600b5f5260205f20905f5b600f81106104945761014161051f565b680410d586a20a4c00008152681043561a8829300000602082015268410d586a20a4c0000060408201526901043561a882930000006060820152690410d586a20a4c0000006080820152691043561a88293000000060a082015269410d586a20a4c000000060c082015260135460076013558060071061043e575b5060135f5260205f20905f5b60078110610421576101d861053e565b68056bc75e2d631000008152680ad78ebc5ac620000060208201526815af1d78b58c4000006040820152682b5e3af16b1880000060608201526856bc75e2d631000000608082015268ad78ebc5ac6200000060a082015269015af1d78b58c400000060c08201526902b5e3af16b18800000060e08201526014546008601455806008106103cb575b5060145f5260205f20905f5b600881106103ae5761027c61051f565b60038152600560208201526007604082015260096060820152600b6080820152600d60a0820152600f60c08201525f5b60078110610396576102bc61053e565b6004815260056020820152600660408201526007606082015260086080820152600960a0820152600a60c0820152600b60e08201525f5b6008811061037e5761030361053e565b5f815260016020820152600160408201526001606082015260016080820152600160a0820152600160c0820152600160e08201525f5b6008811061036657600160365560016037555f6038555f6039555f603a5560405161062290816105758239f35b600190602060ff845116930192816024015501610339565b600190602060ff84511693019281601c0155016102f3565b600190602060ff8451169301928160150155016102ac565b81516001600160501b03168184015560209091019060010161026c565b60145f5261041b907fce6d7b5282bd9a3661ae061feed1dbda4e52ab073b1f9285be6e155d9c38d4ec017fce6d7b5282bd9a3661ae061feed1dbda4e52ab073b1f9285be6e155d9c38d4f461055e565b81610260565b81516001600160501b0316818401556020909101906001016101c8565b60135f5261048e907f66de8ffda797e3de9c05e8fc57b3bf0ec28a930d40b0d285d93c06501cf6a090017f66de8ffda797e3de9c05e8fc57b3bf0ec28a930d40b0d285d93c06501cf6a09761055e565b816101bc565b81516001600160501b031681840155602090910190600101610131565b600b5f52610501907f0175b7a638427703f0dbe7bb9bbf987a2551717b34e79f33b5b1008d1fa01db9017f0175b7a638427703f0dbe7bb9bbf987a2551717b34e79f33b5b1008d1fa01dc861055e565b5f610125565b634e487b7160e01b5f52604160045260245ffd5b5f80fd5b6040519060e082016001600160401b0381118382101761050757604052565b6040519061010082016001600160401b0381118382101761050757604052565b818110610569575050565b5f815560010161055e56fe6080806040526004361015610012575f80fd5b5f3560e01c90816301c234a8146105d2575080632132d204146105a65780632350268f1461054c5780632a8915341461052f5780632f48ab7d146105075780633080b5bc146104ea57806332bc298c146104cd57806332fcd966146104ab578063375b43b41461049057806339ab36031461043657806358c7d3521461041b57806376f5f700146103fe57806378f6ad6d146103e15780637cdc65f2146103b9578063956a32281461038d578063ae4708dc14610333578063bff1f9e114610316578063c216212a146102a8578063c8df290814610284578063c9ed070814610267578063ca8e91211461024a578063d0a2fd791461021e578063e898fc3814610201578063e9e34a16146101d9578063ebe0ff15146101b6578063ec597e6f14610199578063f5d74d93146101715763fddc806f14610150575f80fd5b3461016d575f36600319011261016d576020603854604051908152f35b5f80fd5b3461016d575f36600319011261016d576004546040516001600160a01b039091168152602090f35b3461016d575f36600319011261016d576020600554604051908152f35b3461016d575f36600319011261016d576020604051683635c9adc5dea000008152f35b3461016d575f36600319011261016d576003546040516001600160a01b039091168152602090f35b3461016d575f36600319011261016d576020603954604051908152f35b3461016d57602036600319011261016d57600435600881101561016d57602090601c0154604051908152f35b3461016d575f36600319011261016d576020603654604051908152f35b3461016d575f36600319011261016d576020603754604051908152f35b3461016d575f36600319011261016d57602060405169021e19e0c9bab24000008152f35b3461016d57602036600319011261016d57600435600b5481101561016d57600b5481101561030257600b5f527f0175b7a638427703f0dbe7bb9bbf987a2551717b34e79f33b5b1008d1fa01db90154604051908152602090f35b634e487b7160e01b5f52603260045260245ffd5b3461016d575f36600319011261016d576020600654604051908152f35b3461016d57602036600319011261016d5760043560135481101561016d576013548110156103025760135f527f66de8ffda797e3de9c05e8fc57b3bf0ec28a930d40b0d285d93c06501cf6a0900154604051908152602090f35b3461016d57602036600319011261016d57600435600881101561016d5760209060240154604051908152f35b3461016d575f36600319011261016d576002546040516001600160a01b039091168152602090f35b3461016d575f36600319011261016d576020600954604051908152f35b3461016d575f36600319011261016d57602060405162093a808152f35b3461016d575f36600319011261016d576020604051600a8152f35b3461016d57602036600319011261016d5760043560075481101561016d576007548110156103025760075f527fa66cc928b5edb82af9bd49922954155ab7b0942694bea4ce44661d9a8736c6880154604051908152602090f35b3461016d575f36600319011261016d576020604051600f8152f35b3461016d575f36600319011261016d576020604051670de0b6b3a76400008152f35b3461016d575f36600319011261016d576020604051620151808152f35b3461016d575f36600319011261016d576020603a54604051908152f35b3461016d575f36600319011261016d576001546040516001600160a01b039091168152602090f35b3461016d575f36600319011261016d57602060405162278d008152f35b3461016d57602036600319011261016d5760043560145481101561016d576014548110156103025760145f527fce6d7b5282bd9a3661ae061feed1dbda4e52ab073b1f9285be6e155d9c38d4ec0154604051908152602090f35b3461016d57602036600319011261016d57600435600781101561016d5760209060150154604051908152f35b3461016d575f36600319011261016d578061271060209252f3fea26469706673582212201cb761b14094df1a2cdc627edf54a9487f516e189e6cdbbbd06803ac85c6201664736f6c634300081e0033",
					"opcodes": "PUSH1 0x80 PUSH1 0x40 MSTORE CALLVALUE PUSH2 0x51B JUMPI PUSH1 0x1 PUSH0 SSTORE PUSH1 0x40 MLOAD PUSH2 0x1E0 DUP2 ADD PUSH1 0x1 PUSH1 0x1 PUSH1 0x40 SHL SUB DUP2 GT DUP3 DUP3 LT OR PUSH2 0x507 JUMPI PUSH1 0x40 MSTORE PUSH8 0xD02AB486CEDC0000 DUP2 MSTORE PUSH9 0x15AF1D78B58C40000 PUSH1 0x20 DUP3 ADD MSTORE PUSH9 0x2B5E3AF16B1880000 PUSH1 0x40 DUP3 ADD MSTORE PUSH9 0x56BC75E2D63100000 PUSH1 0x60 DUP3 ADD MSTORE PUSH9 0xAD78EBC5AC6200000 PUSH1 0x80 DUP3 ADD MSTORE PUSH9 0x15AF1D78B58C400000 PUSH1 0xA0 DUP3 ADD MSTORE PUSH9 0x2B5E3AF16B18800000 PUSH1 0xC0 DUP3 ADD MSTORE PUSH9 0x56BC75E2D631000000 PUSH1 0xE0 DUP3 ADD MSTORE PUSH9 0xAD78EBC5AC62000000 PUSH2 0x100 DUP3 ADD MSTORE PUSH10 0x15AF1D78B58C4000000 PUSH2 0x120 DUP3 ADD MSTORE PUSH10 0x2B5E3AF16B188000000 PUSH2 0x140 DUP3 ADD MSTORE PUSH10 0x56BC75E2D6310000000 PUSH2 0x160 DUP3 ADD MSTORE PUSH10 0xAD78EBC5AC620000000 PUSH2 0x180 DUP3 ADD MSTORE PUSH10 0x15AF1D78B58C40000000 PUSH2 0x1A0 DUP3 ADD MSTORE PUSH10 0x2B5E3AF16B1880000000 PUSH2 0x1C0 DUP3 ADD MSTORE PUSH1 0xB SLOAD PUSH1 0xF PUSH1 0xB SSTORE DUP1 PUSH1 0xF LT PUSH2 0x4B1 JUMPI JUMPDEST POP PUSH1 0xB PUSH0 MSTORE PUSH1 0x20 PUSH0 KECCAK256 SWAP1 PUSH0 JUMPDEST PUSH1 0xF DUP2 LT PUSH2 0x494 JUMPI PUSH2 0x141 PUSH2 0x51F JUMP JUMPDEST PUSH9 0x410D586A20A4C0000 DUP2 MSTORE PUSH9 0x1043561A8829300000 PUSH1 0x20 DUP3 ADD MSTORE PUSH9 0x410D586A20A4C00000 PUSH1 0x40 DUP3 ADD MSTORE PUSH10 0x1043561A88293000000 PUSH1 0x60 DUP3 ADD MSTORE PUSH10 0x410D586A20A4C000000 PUSH1 0x80 DUP3 ADD MSTORE PUSH10 0x1043561A882930000000 PUSH1 0xA0 DUP3 ADD MSTORE PUSH10 0x410D586A20A4C0000000 PUSH1 0xC0 DUP3 ADD MSTORE PUSH1 0x13 SLOAD PUSH1 0x7 PUSH1 0x13 SSTORE DUP1 PUSH1 0x7 LT PUSH2 0x43E JUMPI JUMPDEST POP PUSH1 0x13 PUSH0 MSTORE PUSH1 0x20 PUSH0 KECCAK256 SWAP1 PUSH0 JUMPDEST PUSH1 0x7 DUP2 LT PUSH2 0x421 JUMPI PUSH2 0x1D8 PUSH2 0x53E JUMP JUMPDEST PUSH9 0x56BC75E2D63100000 DUP2 MSTORE PUSH9 0xAD78EBC5AC6200000 PUSH1 0x20 DUP3 ADD MSTORE PUSH9 0x15AF1D78B58C400000 PUSH1 0x40 DUP3 ADD MSTORE PUSH9 0x2B5E3AF16B18800000 PUSH1 0x60 DUP3 ADD MSTORE PUSH9 0x56BC75E2D631000000 PUSH1 0x80 DUP3 ADD MSTORE PUSH9 0xAD78EBC5AC62000000 PUSH1 0xA0 DUP3 ADD MSTORE PUSH10 0x15AF1D78B58C4000000 PUSH1 0xC0 DUP3 ADD MSTORE PUSH10 0x2B5E3AF16B188000000 PUSH1 0xE0 DUP3 ADD MSTORE PUSH1 0x14 SLOAD PUSH1 0x8 PUSH1 0x14 SSTORE DUP1 PUSH1 0x8 LT PUSH2 0x3CB JUMPI JUMPDEST POP PUSH1 0x14 PUSH0 MSTORE PUSH1 0x20 PUSH0 KECCAK256 SWAP1 PUSH0 JUMPDEST PUSH1 0x8 DUP2 LT PUSH2 0x3AE JUMPI PUSH2 0x27C PUSH2 0x51F JUMP JUMPDEST PUSH1 0x3 DUP2 MSTORE PUSH1 0x5 PUSH1 0x20 DUP3 ADD MSTORE PUSH1 0x7 PUSH1 0x40 DUP3 ADD MSTORE PUSH1 0x9 PUSH1 0x60 DUP3 ADD MSTORE PUSH1 0xB PUSH1 0x80 DUP3 ADD MSTORE PUSH1 0xD PUSH1 0xA0 DUP3 ADD MSTORE PUSH1 0xF PUSH1 0xC0 DUP3 ADD MSTORE PUSH0 JUMPDEST PUSH1 0x7 DUP2 LT PUSH2 0x396 JUMPI PUSH2 0x2BC PUSH2 0x53E JUMP JUMPDEST PUSH1 0x4 DUP2 MSTORE PUSH1 0x5 PUSH1 0x20 DUP3 ADD MSTORE PUSH1 0x6 PUSH1 0x40 DUP3 ADD MSTORE PUSH1 0x7 PUSH1 0x60 DUP3 ADD MSTORE PUSH1 0x8 PUSH1 0x80 DUP3 ADD MSTORE PUSH1 0x9 PUSH1 0xA0 DUP3 ADD MSTORE PUSH1 0xA PUSH1 0xC0 DUP3 ADD MSTORE PUSH1 0xB PUSH1 0xE0 DUP3 ADD MSTORE PUSH0 JUMPDEST PUSH1 0x8 DUP2 LT PUSH2 0x37E JUMPI PUSH2 0x303 PUSH2 0x53E JUMP JUMPDEST PUSH0 DUP2 MSTORE PUSH1 0x1 PUSH1 0x20 DUP3 ADD MSTORE PUSH1 0x1 PUSH1 0x40 DUP3 ADD MSTORE PUSH1 0x1 PUSH1 0x60 DUP3 ADD MSTORE PUSH1 0x1 PUSH1 0x80 DUP3 ADD MSTORE PUSH1 0x1 PUSH1 0xA0 DUP3 ADD MSTORE PUSH1 0x1 PUSH1 0xC0 DUP3 ADD MSTORE PUSH1 0x1 PUSH1 0xE0 DUP3 ADD MSTORE PUSH0 JUMPDEST PUSH1 0x8 DUP2 LT PUSH2 0x366 JUMPI PUSH1 0x1 PUSH1 0x36 SSTORE PUSH1 0x1 PUSH1 0x37 SSTORE PUSH0 PUSH1 0x38 SSTORE PUSH0 PUSH1 0x39 SSTORE PUSH0 PUSH1 0x3A SSTORE PUSH1 0x40 MLOAD PUSH2 0x622 SWAP1 DUP2 PUSH2 0x575 DUP3 CODECOPY RETURN JUMPDEST PUSH1 0x1 SWAP1 PUSH1 0x20 PUSH1 0xFF DUP5 MLOAD AND SWAP4 ADD SWAP3 DUP2 PUSH1 0x24 ADD SSTORE ADD PUSH2 0x339 JUMP JUMPDEST PUSH1 0x1 SWAP1 PUSH1 0x20 PUSH1 0xFF DUP5 MLOAD AND SWAP4 ADD SWAP3 DUP2 PUSH1 0x1C ADD SSTORE ADD PUSH2 0x2F3 JUMP JUMPDEST PUSH1 0x1 SWAP1 PUSH1 0x20 PUSH1 0xFF DUP5 MLOAD AND SWAP4 ADD SWAP3 DUP2 PUSH1 0x15 ADD SSTORE ADD PUSH2 0x2AC JUMP JUMPDEST DUP2 MLOAD PUSH1 0x1 PUSH1 0x1 PUSH1 0x50 SHL SUB AND DUP2 DUP5 ADD SSTORE PUSH1 0x20 SWAP1 SWAP2 ADD SWAP1 PUSH1 0x1 ADD PUSH2 0x26C JUMP JUMPDEST PUSH1 0x14 PUSH0 MSTORE PUSH2 0x41B SWAP1 PUSH32 0xCE6D7B5282BD9A3661AE061FEED1DBDA4E52AB073B1F9285BE6E155D9C38D4EC ADD PUSH32 0xCE6D7B5282BD9A3661AE061FEED1DBDA4E52AB073B1F9285BE6E155D9C38D4F4 PUSH2 0x55E JUMP JUMPDEST DUP2 PUSH2 0x260 JUMP JUMPDEST DUP2 MLOAD PUSH1 0x1 PUSH1 0x1 PUSH1 0x50 SHL SUB AND DUP2 DUP5 ADD SSTORE PUSH1 0x20 SWAP1 SWAP2 ADD SWAP1 PUSH1 0x1 ADD PUSH2 0x1C8 JUMP JUMPDEST PUSH1 0x13 PUSH0 MSTORE PUSH2 0x48E SWAP1 PUSH32 0x66DE8FFDA797E3DE9C05E8FC57B3BF0EC28A930D40B0D285D93C06501CF6A090 ADD PUSH32 0x66DE8FFDA797E3DE9C05E8FC57B3BF0EC28A930D40B0D285D93C06501CF6A097 PUSH2 0x55E JUMP JUMPDEST DUP2 PUSH2 0x1BC JUMP JUMPDEST DUP2 MLOAD PUSH1 0x1 PUSH1 0x1 PUSH1 0x50 SHL SUB AND DUP2 DUP5 ADD SSTORE PUSH1 0x20 SWAP1 SWAP2 ADD SWAP1 PUSH1 0x1 ADD PUSH2 0x131 JUMP JUMPDEST PUSH1 0xB PUSH0 MSTORE PUSH2 0x501 SWAP1 PUSH32 0x175B7A638427703F0DBE7BB9BBF987A2551717B34E79F33B5B1008D1FA01DB9 ADD PUSH32 0x175B7A638427703F0DBE7BB9BBF987A2551717B34E79F33B5B1008D1FA01DC8 PUSH2 0x55E JUMP JUMPDEST PUSH0 PUSH2 0x125 JUMP JUMPDEST PUSH4 0x4E487B71 PUSH1 0xE0 SHL PUSH0 MSTORE PUSH1 0x41 PUSH1 0x4 MSTORE PUSH1 0x24 PUSH0 REVERT JUMPDEST PUSH0 DUP1 REVERT JUMPDEST PUSH1 0x40 MLOAD SWAP1 PUSH1 0xE0 DUP3 ADD PUSH1 0x1 PUSH1 0x1 PUSH1 0x40 SHL SUB DUP2 GT DUP4 DUP3 LT OR PUSH2 0x507 JUMPI PUSH1 0x40 MSTORE JUMP JUMPDEST PUSH1 0x40 MLOAD SWAP1 PUSH2 0x100 DUP3 ADD PUSH1 0x1 PUSH1 0x1 PUSH1 0x40 SHL SUB DUP2 GT DUP4 DUP3 LT OR PUSH2 0x507 JUMPI PUSH1 0x40 MSTORE JUMP JUMPDEST DUP2 DUP2 LT PUSH2 0x569 JUMPI POP POP JUMP JUMPDEST PUSH0 DUP2 SSTORE PUSH1 0x1 ADD PUSH2 0x55E JUMP INVALID PUSH1 0x80 DUP1 PUSH1 0x40 MSTORE PUSH1 0x4 CALLDATASIZE LT ISZERO PUSH2 0x12 JUMPI PUSH0 DUP1 REVERT JUMPDEST PUSH0 CALLDATALOAD PUSH1 0xE0 SHR SWAP1 DUP2 PUSH4 0x1C234A8 EQ PUSH2 0x5D2 JUMPI POP DUP1 PUSH4 0x2132D204 EQ PUSH2 0x5A6 JUMPI DUP1 PUSH4 0x2350268F EQ PUSH2 0x54C JUMPI DUP1 PUSH4 0x2A891534 EQ PUSH2 0x52F JUMPI DUP1 PUSH4 0x2F48AB7D EQ PUSH2 0x507 JUMPI DUP1 PUSH4 0x3080B5BC EQ PUSH2 0x4EA JUMPI DUP1 PUSH4 0x32BC298C EQ PUSH2 0x4CD JUMPI DUP1 PUSH4 0x32FCD966 EQ PUSH2 0x4AB JUMPI DUP1 PUSH4 0x375B43B4 EQ PUSH2 0x490 JUMPI DUP1 PUSH4 0x39AB3603 EQ PUSH2 0x436 JUMPI DUP1 PUSH4 0x58C7D352 EQ PUSH2 0x41B JUMPI DUP1 PUSH4 0x76F5F700 EQ PUSH2 0x3FE JUMPI DUP1 PUSH4 0x78F6AD6D EQ PUSH2 0x3E1 JUMPI DUP1 PUSH4 0x7CDC65F2 EQ PUSH2 0x3B9 JUMPI DUP1 PUSH4 0x956A3228 EQ PUSH2 0x38D JUMPI DUP1 PUSH4 0xAE4708DC EQ PUSH2 0x333 JUMPI DUP1 PUSH4 0xBFF1F9E1 EQ PUSH2 0x316 JUMPI DUP1 PUSH4 0xC216212A EQ PUSH2 0x2A8 JUMPI DUP1 PUSH4 0xC8DF2908 EQ PUSH2 0x284 JUMPI DUP1 PUSH4 0xC9ED0708 EQ PUSH2 0x267 JUMPI DUP1 PUSH4 0xCA8E9121 EQ PUSH2 0x24A JUMPI DUP1 PUSH4 0xD0A2FD79 EQ PUSH2 0x21E JUMPI DUP1 PUSH4 0xE898FC38 EQ PUSH2 0x201 JUMPI DUP1 PUSH4 0xE9E34A16 EQ PUSH2 0x1D9 JUMPI DUP1 PUSH4 0xEBE0FF15 EQ PUSH2 0x1B6 JUMPI DUP1 PUSH4 0xEC597E6F EQ PUSH2 0x199 JUMPI DUP1 PUSH4 0xF5D74D93 EQ PUSH2 0x171 JUMPI PUSH4 0xFDDC806F EQ PUSH2 0x150 JUMPI PUSH0 DUP1 REVERT JUMPDEST CALLVALUE PUSH2 0x16D JUMPI PUSH0 CALLDATASIZE PUSH1 0x3 NOT ADD SLT PUSH2 0x16D JUMPI PUSH1 0x20 PUSH1 0x38 SLOAD PUSH1 0x40 MLOAD SWAP1 DUP2 MSTORE RETURN JUMPDEST PUSH0 DUP1 REVERT JUMPDEST CALLVALUE PUSH2 0x16D JUMPI PUSH0 CALLDATASIZE PUSH1 0x3 NOT ADD SLT PUSH2 0x16D JUMPI PUSH1 0x4 SLOAD PUSH1 0x40 MLOAD PUSH1 0x1 PUSH1 0x1 PUSH1 0xA0 SHL SUB SWAP1 SWAP2 AND DUP2 MSTORE PUSH1 0x20 SWAP1 RETURN JUMPDEST CALLVALUE PUSH2 0x16D JUMPI PUSH0 CALLDATASIZE PUSH1 0x3 NOT ADD SLT PUSH2 0x16D JUMPI PUSH1 0x20 PUSH1 0x5 SLOAD PUSH1 0x40 MLOAD SWAP1 DUP2 MSTORE RETURN JUMPDEST CALLVALUE PUSH2 0x16D JUMPI PUSH0 CALLDATASIZE PUSH1 0x3 NOT ADD SLT PUSH2 0x16D JUMPI PUSH1 0x20 PUSH1 0x40 MLOAD PUSH9 0x3635C9ADC5DEA00000 DUP2 MSTORE RETURN JUMPDEST CALLVALUE PUSH2 0x16D JUMPI PUSH0 CALLDATASIZE PUSH1 0x3 NOT ADD SLT PUSH2 0x16D JUMPI PUSH1 0x3 SLOAD PUSH1 0x40 MLOAD PUSH1 0x1 PUSH1 0x1 PUSH1 0xA0 SHL SUB SWAP1 SWAP2 AND DUP2 MSTORE PUSH1 0x20 SWAP1 RETURN JUMPDEST CALLVALUE PUSH2 0x16D JUMPI PUSH0 CALLDATASIZE PUSH1 0x3 NOT ADD SLT PUSH2 0x16D JUMPI PUSH1 0x20 PUSH1 0x39 SLOAD PUSH1 0x40 MLOAD SWAP1 DUP2 MSTORE RETURN JUMPDEST CALLVALUE PUSH2 0x16D JUMPI PUSH1 0x20 CALLDATASIZE PUSH1 0x3 NOT ADD SLT PUSH2 0x16D JUMPI PUSH1 0x4 CALLDATALOAD PUSH1 0x8 DUP2 LT ISZERO PUSH2 0x16D JUMPI PUSH1 0x20 SWAP1 PUSH1 0x1C ADD SLOAD PUSH1 0x40 MLOAD SWAP1 DUP2 MSTORE RETURN JUMPDEST CALLVALUE PUSH2 0x16D JUMPI PUSH0 CALLDATASIZE PUSH1 0x3 NOT ADD SLT PUSH2 0x16D JUMPI PUSH1 0x20 PUSH1 0x36 SLOAD PUSH1 0x40 MLOAD SWAP1 DUP2 MSTORE RETURN JUMPDEST CALLVALUE PUSH2 0x16D JUMPI PUSH0 CALLDATASIZE PUSH1 0x3 NOT ADD SLT PUSH2 0x16D JUMPI PUSH1 0x20 PUSH1 0x37 SLOAD PUSH1 0x40 MLOAD SWAP1 DUP2 MSTORE RETURN JUMPDEST CALLVALUE PUSH2 0x16D JUMPI PUSH0 CALLDATASIZE PUSH1 0x3 NOT ADD SLT PUSH2 0x16D JUMPI PUSH1 0x20 PUSH1 0x40 MLOAD PUSH10 0x21E19E0C9BAB2400000 DUP2 MSTORE RETURN JUMPDEST CALLVALUE PUSH2 0x16D JUMPI PUSH1 0x20 CALLDATASIZE PUSH1 0x3 NOT ADD SLT PUSH2 0x16D JUMPI PUSH1 0x4 CALLDATALOAD PUSH1 0xB SLOAD DUP2 LT ISZERO PUSH2 0x16D JUMPI PUSH1 0xB SLOAD DUP2 LT ISZERO PUSH2 0x302 JUMPI PUSH1 0xB PUSH0 MSTORE PUSH32 0x175B7A638427703F0DBE7BB9BBF987A2551717B34E79F33B5B1008D1FA01DB9 ADD SLOAD PUSH1 0x40 MLOAD SWAP1 DUP2 MSTORE PUSH1 0x20 SWAP1 RETURN JUMPDEST PUSH4 0x4E487B71 PUSH1 0xE0 SHL PUSH0 MSTORE PUSH1 0x32 PUSH1 0x4 MSTORE PUSH1 0x24 PUSH0 REVERT JUMPDEST CALLVALUE PUSH2 0x16D JUMPI PUSH0 CALLDATASIZE PUSH1 0x3 NOT ADD SLT PUSH2 0x16D JUMPI PUSH1 0x20 PUSH1 0x6 SLOAD PUSH1 0x40 MLOAD SWAP1 DUP2 MSTORE RETURN JUMPDEST CALLVALUE PUSH2 0x16D JUMPI PUSH1 0x20 CALLDATASIZE PUSH1 0x3 NOT ADD SLT PUSH2 0x16D JUMPI PUSH1 0x4 CALLDATALOAD PUSH1 0x13 SLOAD DUP2 LT ISZERO PUSH2 0x16D JUMPI PUSH1 0x13 SLOAD DUP2 LT ISZERO PUSH2 0x302 JUMPI PUSH1 0x13 PUSH0 MSTORE PUSH32 0x66DE8FFDA797E3DE9C05E8FC57B3BF0EC28A930D40B0D285D93C06501CF6A090 ADD SLOAD PUSH1 0x40 MLOAD SWAP1 DUP2 MSTORE PUSH1 0x20 SWAP1 RETURN JUMPDEST CALLVALUE PUSH2 0x16D JUMPI PUSH1 0x20 CALLDATASIZE PUSH1 0x3 NOT ADD SLT PUSH2 0x16D JUMPI PUSH1 0x4 CALLDATALOAD PUSH1 0x8 DUP2 LT ISZERO PUSH2 0x16D JUMPI PUSH1 0x20 SWAP1 PUSH1 0x24 ADD SLOAD PUSH1 0x40 MLOAD SWAP1 DUP2 MSTORE RETURN JUMPDEST CALLVALUE PUSH2 0x16D JUMPI PUSH0 CALLDATASIZE PUSH1 0x3 NOT ADD SLT PUSH2 0x16D JUMPI PUSH1 0x2 SLOAD PUSH1 0x40 MLOAD PUSH1 0x1 PUSH1 0x1 PUSH1 0xA0 SHL SUB SWAP1 SWAP2 AND DUP2 MSTORE PUSH1 0x20 SWAP1 RETURN JUMPDEST CALLVALUE PUSH2 0x16D JUMPI PUSH0 CALLDATASIZE PUSH1 0x3 NOT ADD SLT PUSH2 0x16D JUMPI PUSH1 0x20 PUSH1 0x9 SLOAD PUSH1 0x40 MLOAD SWAP1 DUP2 MSTORE RETURN JUMPDEST CALLVALUE PUSH2 0x16D JUMPI PUSH0 CALLDATASIZE PUSH1 0x3 NOT ADD SLT PUSH2 0x16D JUMPI PUSH1 0x20 PUSH1 0x40 MLOAD PUSH3 0x93A80 DUP2 MSTORE RETURN JUMPDEST CALLVALUE PUSH2 0x16D JUMPI PUSH0 CALLDATASIZE PUSH1 0x3 NOT ADD SLT PUSH2 0x16D JUMPI PUSH1 0x20 PUSH1 0x40 MLOAD PUSH1 0xA DUP2 MSTORE RETURN JUMPDEST CALLVALUE PUSH2 0x16D JUMPI PUSH1 0x20 CALLDATASIZE PUSH1 0x3 NOT ADD SLT PUSH2 0x16D JUMPI PUSH1 0x4 CALLDATALOAD PUSH1 0x7 SLOAD DUP2 LT ISZERO PUSH2 0x16D JUMPI PUSH1 0x7 SLOAD DUP2 LT ISZERO PUSH2 0x302 JUMPI PUSH1 0x7 PUSH0 MSTORE PUSH32 0xA66CC928B5EDB82AF9BD49922954155AB7B0942694BEA4CE44661D9A8736C688 ADD SLOAD PUSH1 0x40 MLOAD SWAP1 DUP2 MSTORE PUSH1 0x20 SWAP1 RETURN JUMPDEST CALLVALUE PUSH2 0x16D JUMPI PUSH0 CALLDATASIZE PUSH1 0x3 NOT ADD SLT PUSH2 0x16D JUMPI PUSH1 0x20 PUSH1 0x40 MLOAD PUSH1 0xF DUP2 MSTORE RETURN JUMPDEST CALLVALUE PUSH2 0x16D JUMPI PUSH0 CALLDATASIZE PUSH1 0x3 NOT ADD SLT PUSH2 0x16D JUMPI PUSH1 0x20 PUSH1 0x40 MLOAD PUSH8 0xDE0B6B3A7640000 DUP2 MSTORE RETURN JUMPDEST CALLVALUE PUSH2 0x16D JUMPI PUSH0 CALLDATASIZE PUSH1 0x3 NOT ADD SLT PUSH2 0x16D JUMPI PUSH1 0x20 PUSH1 0x40 MLOAD PUSH3 0x15180 DUP2 MSTORE RETURN JUMPDEST CALLVALUE PUSH2 0x16D JUMPI PUSH0 CALLDATASIZE PUSH1 0x3 NOT ADD SLT PUSH2 0x16D JUMPI PUSH1 0x20 PUSH1 0x3A SLOAD PUSH1 0x40 MLOAD SWAP1 DUP2 MSTORE RETURN JUMPDEST CALLVALUE PUSH2 0x16D JUMPI PUSH0 CALLDATASIZE PUSH1 0x3 NOT ADD SLT PUSH2 0x16D JUMPI PUSH1 0x1 SLOAD PUSH1 0x40 MLOAD PUSH1 0x1 PUSH1 0x1 PUSH1 0xA0 SHL SUB SWAP1 SWAP2 AND DUP2 MSTORE PUSH1 0x20 SWAP1 RETURN JUMPDEST CALLVALUE PUSH2 0x16D JUMPI PUSH0 CALLDATASIZE PUSH1 0x3 NOT ADD SLT PUSH2 0x16D JUMPI PUSH1 0x20 PUSH1 0x40 MLOAD PUSH3 0x278D00 DUP2 MSTORE RETURN JUMPDEST CALLVALUE PUSH2 0x16D JUMPI PUSH1 0x20 CALLDATASIZE PUSH1 0x3 NOT ADD SLT PUSH2 0x16D JUMPI PUSH1 0x4 CALLDATALOAD PUSH1 0x14 SLOAD DUP2 LT ISZERO PUSH2 0x16D JUMPI PUSH1 0x14 SLOAD DUP2 LT ISZERO PUSH2 0x302 JUMPI PUSH1 0x14 PUSH0 MSTORE PUSH32 0xCE6D7B5282BD9A3661AE061FEED1DBDA4E52AB073B1F9285BE6E155D9C38D4EC ADD SLOAD PUSH1 0x40 MLOAD SWAP1 DUP2 MSTORE PUSH1 0x20 SWAP1 RETURN JUMPDEST CALLVALUE PUSH2 0x16D JUMPI PUSH1 0x20 CALLDATASIZE PUSH1 0x3 NOT ADD SLT PUSH2 0x16D JUMPI PUSH1 0x4 CALLDATALOAD PUSH1 0x7 DUP2 LT ISZERO PUSH2 0x16D JUMPI PUSH1 0x20 SWAP1 PUSH1 0x15 ADD SLOAD PUSH1 0x40 MLOAD SWAP1 DUP2 MSTORE RETURN JUMPDEST CALLVALUE PUSH2 0x16D JUMPI PUSH0 CALLDATASIZE PUSH1 0x3 NOT ADD SLT PUSH2 0x16D JUMPI DUP1 PUSH2 0x2710 PUSH1 0x20 SWAP3 MSTORE RETURN INVALID LOG2 PUSH5 0x6970667358 0x22 SLT KECCAK256 SHR 0xB7 PUSH2 0xB140 SWAP5 0xDF BYTE 0x2C 0xDC PUSH3 0x7EDF54 0xA9 BASEFEE PUSH32 0x516E189E6CDBBBD06803AC85C6201664736F6C634300081E0033000000000000 "
				},
				"gasEstimates": {
					"creation": {
						"codeDepositCost": "314000",
						"executionCost": "infinite",
						"totalCost": "infinite"
					},
					"external": {
						"ACC_PRECISION()": "307",
						"MONTH_DURATION()": "219",
						"PERCENTS_DIVIDER()": "148",
						"ROI_CAP_DIVIDER()": "373",
						"ROI_CAP_MULTIPLIER()": "329",
						"TIME_STEP()": "285",
						"WEEK_DURATION()": "395",
						"WeeklyCapping()": "681",
						"WeeklyTotalReward()": "2366",
						"communityAccPerUser()": "2520",
						"creatorWallet()": "2566",
						"currentMonthlyRound()": "2674",
						"currentMonthlyStartTime()": "2740",
						"currentWeeklyRound()": "2696",
						"currentWeeklyStartTime()": "2847",
						"defaultRefId()": "2806",
						"glbBoosterPackages(uint256)": "6571",
						"minLevelForGlbBooster(uint256)": "2756",
						"minLevelForPool(uint256)": "2316",
						"minPoolForGlbBooster(uint256)": "2602",
						"monthlyCapping()": "549",
						"packages(uint256)": "6901",
						"poolPackages(uint256)": "6857",
						"registeredUserIds(uint256)": "6725",
						"systemMaintance()": "2786",
						"teamDevelopment()": "2852",
						"totalUsers()": "2608",
						"usdt()": "2368"
					},
					"internal": {
						"_distributeIncome(uint256,uint256,uint256,uint256,uint256)": "infinite",
						"_sendToCreator(uint256)": "infinite",
						"_tryWeeklyContestQualify(uint256,uint256)": "infinite",
						"_weeklyContestQualifier(uint256,uint256)": "infinite"
					}
				},
				"methodIdentifiers": {
					"ACC_PRECISION()": "32fcd966",
					"MONTH_DURATION()": "2a891534",
					"PERCENTS_DIVIDER()": "01c234a8",
					"ROI_CAP_DIVIDER()": "58c7d352",
					"ROI_CAP_MULTIPLIER()": "375b43b4",
					"TIME_STEP()": "32bc298c",
					"WEEK_DURATION()": "76f5f700",
					"WeeklyCapping()": "ebe0ff15",
					"WeeklyTotalReward()": "3080b5bc",
					"communityAccPerUser()": "78f6ad6d",
					"creatorWallet()": "7cdc65f2",
					"currentMonthlyRound()": "c9ed0708",
					"currentMonthlyStartTime()": "e898fc38",
					"currentWeeklyRound()": "ca8e9121",
					"currentWeeklyStartTime()": "fddc806f",
					"defaultRefId()": "ec597e6f",
					"glbBoosterPackages(uint256)": "2350268f",
					"minLevelForGlbBooster(uint256)": "d0a2fd79",
					"minLevelForPool(uint256)": "2132d204",
					"minPoolForGlbBooster(uint256)": "956a3228",
					"monthlyCapping()": "c8df2908",
					"packages(uint256)": "c216212a",
					"poolPackages(uint256)": "ae4708dc",
					"registeredUserIds(uint256)": "39ab3603",
					"systemMaintance()": "e9e34a16",
					"teamDevelopment()": "f5d74d93",
					"totalUsers()": "bff1f9e1",
					"usdt()": "2f48ab7d"
				}
			},
			"storageLayout": {
				"storage": [
					{
						"astId": 100,
						"contract": "contracts/modules/Storage.sol:Storage",
						"label": "_status",
						"offset": 0,
						"slot": "0",
						"type": "t_uint256"
					},
					{
						"astId": 1919,
						"contract": "contracts/modules/Storage.sol:Storage",
						"label": "usdt",
						"offset": 0,
						"slot": "1",
						"type": "t_contract(IERC20)232"
					},
					{
						"astId": 1921,
						"contract": "contracts/modules/Storage.sol:Storage",
						"label": "creatorWallet",
						"offset": 0,
						"slot": "2",
						"type": "t_address"
					},
					{
						"astId": 1923,
						"contract": "contracts/modules/Storage.sol:Storage",
						"label": "systemMaintance",
						"offset": 0,
						"slot": "3",
						"type": "t_address"
					},
					{
						"astId": 1925,
						"contract": "contracts/modules/Storage.sol:Storage",
						"label": "teamDevelopment",
						"offset": 0,
						"slot": "4",
						"type": "t_address"
					},
					{
						"astId": 1927,
						"contract": "contracts/modules/Storage.sol:Storage",
						"label": "defaultRefId",
						"offset": 0,
						"slot": "5",
						"type": "t_uint256"
					},
					{
						"astId": 1929,
						"contract": "contracts/modules/Storage.sol:Storage",
						"label": "totalUsers",
						"offset": 0,
						"slot": "6",
						"type": "t_uint256"
					},
					{
						"astId": 1947,
						"contract": "contracts/modules/Storage.sol:Storage",
						"label": "registeredUserIds",
						"offset": 0,
						"slot": "7",
						"type": "t_array(t_uint256)dyn_storage"
					},
					{
						"astId": 1949,
						"contract": "contracts/modules/Storage.sol:Storage",
						"label": "nonce",
						"offset": 0,
						"slot": "8",
						"type": "t_uint256"
					},
					{
						"astId": 1954,
						"contract": "contracts/modules/Storage.sol:Storage",
						"label": "communityAccPerUser",
						"offset": 0,
						"slot": "9",
						"type": "t_uint256"
					},
					{
						"astId": 1958,
						"contract": "contracts/modules/Storage.sol:Storage",
						"label": "communityDebt",
						"offset": 0,
						"slot": "10",
						"type": "t_mapping(t_uint256,t_uint256)"
					},
					{
						"astId": 2007,
						"contract": "contracts/modules/Storage.sol:Storage",
						"label": "packages",
						"offset": 0,
						"slot": "11",
						"type": "t_array(t_uint256)dyn_storage"
					},
					{
						"astId": 2093,
						"contract": "contracts/modules/Storage.sol:Storage",
						"label": "addressToId",
						"offset": 0,
						"slot": "12",
						"type": "t_mapping(t_address,t_uint256)"
					},
					{
						"astId": 2098,
						"contract": "contracts/modules/Storage.sol:Storage",
						"label": "users",
						"offset": 0,
						"slot": "13",
						"type": "t_mapping(t_uint256,t_struct(User)2051_storage)"
					},
					{
						"astId": 2103,
						"contract": "contracts/modules/Storage.sol:Storage",
						"label": "userIncomes",
						"offset": 0,
						"slot": "14",
						"type": "t_mapping(t_uint256,t_struct(UserIncome)2078_storage)"
					},
					{
						"astId": 2109,
						"contract": "contracts/modules/Storage.sol:Storage",
						"label": "incomeHistory",
						"offset": 0,
						"slot": "15",
						"type": "t_mapping(t_uint256,t_array(t_struct(Income)2089_storage)dyn_storage)"
					},
					{
						"astId": 2116,
						"contract": "contracts/modules/Storage.sol:Storage",
						"label": "teams",
						"offset": 0,
						"slot": "16",
						"type": "t_mapping(t_uint256,t_mapping(t_uint256,t_array(t_uint256)dyn_storage))"
					},
					{
						"astId": 2120,
						"contract": "contracts/modules/Storage.sol:Storage",
						"label": "matrixDirect",
						"offset": 0,
						"slot": "17",
						"type": "t_mapping(t_uint256,t_uint256)"
					},
					{
						"astId": 2125,
						"contract": "contracts/modules/Storage.sol:Storage",
						"label": "directReferrals",
						"offset": 0,
						"slot": "18",
						"type": "t_mapping(t_uint256,t_array(t_uint256)dyn_storage)"
					},
					{
						"astId": 2208,
						"contract": "contracts/modules/Storage.sol:Storage",
						"label": "poolPackages",
						"offset": 0,
						"slot": "19",
						"type": "t_array(t_uint256)dyn_storage"
					},
					{
						"astId": 2220,
						"contract": "contracts/modules/Storage.sol:Storage",
						"label": "glbBoosterPackages",
						"offset": 0,
						"slot": "20",
						"type": "t_array(t_uint256)dyn_storage"
					},
					{
						"astId": 2232,
						"contract": "contracts/modules/Storage.sol:Storage",
						"label": "minLevelForPool",
						"offset": 0,
						"slot": "21",
						"type": "t_array(t_uint256)7_storage"
					},
					{
						"astId": 2245,
						"contract": "contracts/modules/Storage.sol:Storage",
						"label": "minLevelForGlbBooster",
						"offset": 0,
						"slot": "28",
						"type": "t_array(t_uint256)8_storage"
					},
					{
						"astId": 2258,
						"contract": "contracts/modules/Storage.sol:Storage",
						"label": "minPoolForGlbBooster",
						"offset": 0,
						"slot": "36",
						"type": "t_array(t_uint256)8_storage"
					},
					{
						"astId": 2292,
						"contract": "contracts/modules/Storage.sol:Storage",
						"label": "userPooltopup",
						"offset": 0,
						"slot": "44",
						"type": "t_mapping(t_uint256,t_mapping(t_uint256,t_struct(UserPoolTopup)2274_storage))"
					},
					{
						"astId": 2299,
						"contract": "contracts/modules/Storage.sol:Storage",
						"label": "userPooldtl",
						"offset": 0,
						"slot": "45",
						"type": "t_mapping(t_uint256,t_mapping(t_uint256,t_struct(UserPool)2269_storage))"
					},
					{
						"astId": 2306,
						"contract": "contracts/modules/Storage.sol:Storage",
						"label": "userChildren",
						"offset": 0,
						"slot": "46",
						"type": "t_mapping(t_uint256,t_mapping(t_uint256,t_array(t_uint256)dyn_storage))"
					},
					{
						"astId": 2313,
						"contract": "contracts/modules/Storage.sol:Storage",
						"label": "userIdPerPool",
						"offset": 0,
						"slot": "47",
						"type": "t_mapping(t_uint256,t_mapping(t_uint256,t_array(t_uint256)dyn_storage))"
					},
					{
						"astId": 2318,
						"contract": "contracts/modules/Storage.sol:Storage",
						"label": "poolUsers",
						"offset": 0,
						"slot": "48",
						"type": "t_mapping(t_uint256,t_array(t_uint256)dyn_storage)"
					},
					{
						"astId": 2324,
						"contract": "contracts/modules/Storage.sol:Storage",
						"label": "userHasPool",
						"offset": 0,
						"slot": "49",
						"type": "t_mapping(t_uint256,t_mapping(t_uint256,t_bool))"
					},
					{
						"astId": 2331,
						"contract": "contracts/modules/Storage.sol:Storage",
						"label": "userBoosterdtl",
						"offset": 0,
						"slot": "50",
						"type": "t_mapping(t_uint256,t_mapping(t_uint256,t_struct(UserBooster)2285_storage))"
					},
					{
						"astId": 2338,
						"contract": "contracts/modules/Storage.sol:Storage",
						"label": "userBoosterChildren",
						"offset": 0,
						"slot": "51",
						"type": "t_mapping(t_uint256,t_mapping(t_uint256,t_array(t_uint256)dyn_storage))"
					},
					{
						"astId": 2343,
						"contract": "contracts/modules/Storage.sol:Storage",
						"label": "boosterUsers",
						"offset": 0,
						"slot": "52",
						"type": "t_mapping(t_uint256,t_array(t_uint256)dyn_storage)"
					},
					{
						"astId": 2349,
						"contract": "contracts/modules/Storage.sol:Storage",
						"label": "userHasbooster",
						"offset": 0,
						"slot": "53",
						"type": "t_mapping(t_uint256,t_mapping(t_uint256,t_bool))"
					},
					{
						"astId": 2364,
						"contract": "contracts/modules/Storage.sol:Storage",
						"label": "currentWeeklyRound",
						"offset": 0,
						"slot": "54",
						"type": "t_uint256"
					},
					{
						"astId": 2367,
						"contract": "contracts/modules/Storage.sol:Storage",
						"label": "currentMonthlyRound",
						"offset": 0,
						"slot": "55",
						"type": "t_uint256"
					},
					{
						"astId": 2370,
						"contract": "contracts/modules/Storage.sol:Storage",
						"label": "currentWeeklyStartTime",
						"offset": 0,
						"slot": "56",
						"type": "t_uint256"
					},
					{
						"astId": 2373,
						"contract": "contracts/modules/Storage.sol:Storage",
						"label": "currentMonthlyStartTime",
						"offset": 0,
						"slot": "57",
						"type": "t_uint256"
					},
					{
						"astId": 2376,
						"contract": "contracts/modules/Storage.sol:Storage",
						"label": "WeeklyTotalReward",
						"offset": 0,
						"slot": "58",
						"type": "t_uint256"
					},
					{
						"astId": 2413,
						"contract": "contracts/modules/Storage.sol:Storage",
						"label": "weeklyContestdtl",
						"offset": 0,
						"slot": "59",
						"type": "t_mapping(t_uint256,t_struct(WeeklyContest)2395_storage)"
					},
					{
						"astId": 2418,
						"contract": "contracts/modules/Storage.sol:Storage",
						"label": "weeklyQualifiedUsers",
						"offset": 0,
						"slot": "60",
						"type": "t_mapping(t_uint256,t_array(t_uint256)dyn_storage)"
					},
					{
						"astId": 2425,
						"contract": "contracts/modules/Storage.sol:Storage",
						"label": "weeklyUserdtl",
						"offset": 0,
						"slot": "61",
						"type": "t_mapping(t_uint256,t_mapping(t_uint256,t_struct(weeklyUser)2408_storage))"
					},
					{
						"astId": 2432,
						"contract": "contracts/modules/Storage.sol:Storage",
						"label": "weeklyUserDirects",
						"offset": 0,
						"slot": "62",
						"type": "t_mapping(t_uint256,t_mapping(t_uint256,t_array(t_uint256)dyn_storage))"
					}
				],
				"types": {
					"t_address": {
						"encoding": "inplace",
						"label": "address",
						"numberOfBytes": "20"
					},
					"t_array(t_struct(Deposit)2016_storage)dyn_storage": {
						"base": "t_struct(Deposit)2016_storage",
						"encoding": "dynamic_array",
						"label": "struct Storage.Deposit[]",
						"numberOfBytes": "32"
					},
					"t_array(t_struct(Income)2089_storage)dyn_storage": {
						"base": "t_struct(Income)2089_storage",
						"encoding": "dynamic_array",
						"label": "struct Storage.Income[]",
						"numberOfBytes": "32"
					},
					"t_array(t_uint256)7_storage": {
						"base": "t_uint256",
						"encoding": "inplace",
						"label": "uint256[7]",
						"numberOfBytes": "224"
					},
					"t_array(t_uint256)8_storage": {
						"base": "t_uint256",
						"encoding": "inplace",
						"label": "uint256[8]",
						"numberOfBytes": "256"
					},
					"t_array(t_uint256)dyn_storage": {
						"base": "t_uint256",
						"encoding": "dynamic_array",
						"label": "uint256[]",
						"numberOfBytes": "32"
					},
					"t_bool": {
						"encoding": "inplace",
						"label": "bool",
						"numberOfBytes": "1"
					},
					"t_contract(IERC20)232": {
						"encoding": "inplace",
						"label": "contract IERC20",
						"numberOfBytes": "20"
					},
					"t_mapping(t_address,t_uint256)": {
						"encoding": "mapping",
						"key": "t_address",
						"label": "mapping(address => uint256)",
						"numberOfBytes": "32",
						"value": "t_uint256"
					},
					"t_mapping(t_uint256,t_array(t_struct(Income)2089_storage)dyn_storage)": {
						"encoding": "mapping",
						"key": "t_uint256",
						"label": "mapping(uint256 => struct Storage.Income[])",
						"numberOfBytes": "32",
						"value": "t_array(t_struct(Income)2089_storage)dyn_storage"
					},
					"t_mapping(t_uint256,t_array(t_uint256)dyn_storage)": {
						"encoding": "mapping",
						"key": "t_uint256",
						"label": "mapping(uint256 => uint256[])",
						"numberOfBytes": "32",
						"value": "t_array(t_uint256)dyn_storage"
					},
					"t_mapping(t_uint256,t_bool)": {
						"encoding": "mapping",
						"key": "t_uint256",
						"label": "mapping(uint256 => bool)",
						"numberOfBytes": "32",
						"value": "t_bool"
					},
					"t_mapping(t_uint256,t_mapping(t_uint256,t_array(t_uint256)dyn_storage))": {
						"encoding": "mapping",
						"key": "t_uint256",
						"label": "mapping(uint256 => mapping(uint256 => uint256[]))",
						"numberOfBytes": "32",
						"value": "t_mapping(t_uint256,t_array(t_uint256)dyn_storage)"
					},
					"t_mapping(t_uint256,t_mapping(t_uint256,t_bool))": {
						"encoding": "mapping",
						"key": "t_uint256",
						"label": "mapping(uint256 => mapping(uint256 => bool))",
						"numberOfBytes": "32",
						"value": "t_mapping(t_uint256,t_bool)"
					},
					"t_mapping(t_uint256,t_mapping(t_uint256,t_struct(UserBooster)2285_storage))": {
						"encoding": "mapping",
						"key": "t_uint256",
						"label": "mapping(uint256 => mapping(uint256 => struct Storage.UserBooster))",
						"numberOfBytes": "32",
						"value": "t_mapping(t_uint256,t_struct(UserBooster)2285_storage)"
					},
					"t_mapping(t_uint256,t_mapping(t_uint256,t_struct(UserPool)2269_storage))": {
						"encoding": "mapping",
						"key": "t_uint256",
						"label": "mapping(uint256 => mapping(uint256 => struct Storage.UserPool))",
						"numberOfBytes": "32",
						"value": "t_mapping(t_uint256,t_struct(UserPool)2269_storage)"
					},
					"t_mapping(t_uint256,t_mapping(t_uint256,t_struct(UserPoolTopup)2274_storage))": {
						"encoding": "mapping",
						"key": "t_uint256",
						"label": "mapping(uint256 => mapping(uint256 => struct Storage.UserPoolTopup))",
						"numberOfBytes": "32",
						"value": "t_mapping(t_uint256,t_struct(UserPoolTopup)2274_storage)"
					},
					"t_mapping(t_uint256,t_mapping(t_uint256,t_struct(weeklyUser)2408_storage))": {
						"encoding": "mapping",
						"key": "t_uint256",
						"label": "mapping(uint256 => mapping(uint256 => struct Storage.weeklyUser))",
						"numberOfBytes": "32",
						"value": "t_mapping(t_uint256,t_struct(weeklyUser)2408_storage)"
					},
					"t_mapping(t_uint256,t_struct(User)2051_storage)": {
						"encoding": "mapping",
						"key": "t_uint256",
						"label": "mapping(uint256 => struct Storage.User)",
						"numberOfBytes": "32",
						"value": "t_struct(User)2051_storage"
					},
					"t_mapping(t_uint256,t_struct(UserBooster)2285_storage)": {
						"encoding": "mapping",
						"key": "t_uint256",
						"label": "mapping(uint256 => struct Storage.UserBooster)",
						"numberOfBytes": "32",
						"value": "t_struct(UserBooster)2285_storage"
					},
					"t_mapping(t_uint256,t_struct(UserIncome)2078_storage)": {
						"encoding": "mapping",
						"key": "t_uint256",
						"label": "mapping(uint256 => struct Storage.UserIncome)",
						"numberOfBytes": "32",
						"value": "t_struct(UserIncome)2078_storage"
					},
					"t_mapping(t_uint256,t_struct(UserPool)2269_storage)": {
						"encoding": "mapping",
						"key": "t_uint256",
						"label": "mapping(uint256 => struct Storage.UserPool)",
						"numberOfBytes": "32",
						"value": "t_struct(UserPool)2269_storage"
					},
					"t_mapping(t_uint256,t_struct(UserPoolTopup)2274_storage)": {
						"encoding": "mapping",
						"key": "t_uint256",
						"label": "mapping(uint256 => struct Storage.UserPoolTopup)",
						"numberOfBytes": "32",
						"value": "t_struct(UserPoolTopup)2274_storage"
					},
					"t_mapping(t_uint256,t_struct(WeeklyContest)2395_storage)": {
						"encoding": "mapping",
						"key": "t_uint256",
						"label": "mapping(uint256 => struct Storage.WeeklyContest)",
						"numberOfBytes": "32",
						"value": "t_struct(WeeklyContest)2395_storage"
					},
					"t_mapping(t_uint256,t_struct(weeklyUser)2408_storage)": {
						"encoding": "mapping",
						"key": "t_uint256",
						"label": "mapping(uint256 => struct Storage.weeklyUser)",
						"numberOfBytes": "32",
						"value": "t_struct(weeklyUser)2408_storage"
					},
					"t_mapping(t_uint256,t_uint256)": {
						"encoding": "mapping",
						"key": "t_uint256",
						"label": "mapping(uint256 => uint256)",
						"numberOfBytes": "32",
						"value": "t_uint256"
					},
					"t_struct(Deposit)2016_storage": {
						"encoding": "inplace",
						"label": "struct Storage.Deposit",
						"members": [
							{
								"astId": 2009,
								"contract": "contracts/modules/Storage.sol:Storage",
								"label": "amount",
								"offset": 0,
								"slot": "0",
								"type": "t_uint256"
							},
							{
								"astId": 2011,
								"contract": "contracts/modules/Storage.sol:Storage",
								"label": "withdrawn",
								"offset": 0,
								"slot": "1",
								"type": "t_uint256"
							},
							{
								"astId": 2013,
								"contract": "contracts/modules/Storage.sol:Storage",
								"label": "start",
								"offset": 0,
								"slot": "2",
								"type": "t_uint256"
							},
							{
								"astId": 2015,
								"contract": "contracts/modules/Storage.sol:Storage",
								"label": "depositType",
								"offset": 0,
								"slot": "3",
								"type": "t_uint8"
							}
						],
						"numberOfBytes": "128"
					},
					"t_struct(Income)2089_storage": {
						"encoding": "inplace",
						"label": "struct Storage.Income",
						"members": [
							{
								"astId": 2080,
								"contract": "contracts/modules/Storage.sol:Storage",
								"label": "fromUserId",
								"offset": 0,
								"slot": "0",
								"type": "t_uint256"
							},
							{
								"astId": 2082,
								"contract": "contracts/modules/Storage.sol:Storage",
								"label": "amount",
								"offset": 0,
								"slot": "1",
								"type": "t_uint256"
							},
							{
								"astId": 2084,
								"contract": "contracts/modules/Storage.sol:Storage",
								"label": "packageLevel",
								"offset": 0,
								"slot": "2",
								"type": "t_uint256"
							},
							{
								"astId": 2086,
								"contract": "contracts/modules/Storage.sol:Storage",
								"label": "timestamp",
								"offset": 0,
								"slot": "3",
								"type": "t_uint256"
							},
							{
								"astId": 2088,
								"contract": "contracts/modules/Storage.sol:Storage",
								"label": "incomeType",
								"offset": 0,
								"slot": "4",
								"type": "t_uint256"
							}
						],
						"numberOfBytes": "160"
					},
					"t_struct(User)2051_storage": {
						"encoding": "inplace",
						"label": "struct Storage.User",
						"members": [
							{
								"astId": 2018,
								"contract": "contracts/modules/Storage.sol:Storage",
								"label": "account",
								"offset": 0,
								"slot": "0",
								"type": "t_address"
							},
							{
								"astId": 2022,
								"contract": "contracts/modules/Storage.sol:Storage",
								"label": "deposits",
								"offset": 0,
								"slot": "1",
								"type": "t_array(t_struct(Deposit)2016_storage)dyn_storage"
							},
							{
								"astId": 2024,
								"contract": "contracts/modules/Storage.sol:Storage",
								"label": "checkpoint",
								"offset": 0,
								"slot": "2",
								"type": "t_uint256"
							},
							{
								"astId": 2026,
								"contract": "contracts/modules/Storage.sol:Storage",
								"label": "id",
								"offset": 0,
								"slot": "3",
								"type": "t_uint256"
							},
							{
								"astId": 2028,
								"contract": "contracts/modules/Storage.sol:Storage",
								"label": "sponsorId",
								"offset": 0,
								"slot": "4",
								"type": "t_uint256"
							},
							{
								"astId": 2030,
								"contract": "contracts/modules/Storage.sol:Storage",
								"label": "uplineId",
								"offset": 0,
								"slot": "5",
								"type": "t_uint256"
							},
							{
								"astId": 2032,
								"contract": "contracts/modules/Storage.sol:Storage",
								"label": "level",
								"offset": 0,
								"slot": "6",
								"type": "t_uint256"
							},
							{
								"astId": 2034,
								"contract": "contracts/modules/Storage.sol:Storage",
								"label": "directTeam",
								"offset": 0,
								"slot": "7",
								"type": "t_uint256"
							},
							{
								"astId": 2036,
								"contract": "contracts/modules/Storage.sol:Storage",
								"label": "directPoolQualified",
								"offset": 0,
								"slot": "8",
								"type": "t_uint256"
							},
							{
								"astId": 2038,
								"contract": "contracts/modules/Storage.sol:Storage",
								"label": "totalMatrixTeam",
								"offset": 0,
								"slot": "9",
								"type": "t_uint256"
							},
							{
								"astId": 2040,
								"contract": "contracts/modules/Storage.sol:Storage",
								"label": "totalDeposit",
								"offset": 0,
								"slot": "10",
								"type": "t_uint256"
							},
							{
								"astId": 2042,
								"contract": "contracts/modules/Storage.sol:Storage",
								"label": "poollevel",
								"offset": 0,
								"slot": "11",
								"type": "t_uint256"
							},
							{
								"astId": 2044,
								"contract": "contracts/modules/Storage.sol:Storage",
								"label": "poolDeposit",
								"offset": 0,
								"slot": "12",
								"type": "t_uint256"
							},
							{
								"astId": 2046,
								"contract": "contracts/modules/Storage.sol:Storage",
								"label": "boosterlevel",
								"offset": 0,
								"slot": "13",
								"type": "t_uint256"
							},
							{
								"astId": 2048,
								"contract": "contracts/modules/Storage.sol:Storage",
								"label": "boosterDeposit",
								"offset": 0,
								"slot": "14",
								"type": "t_uint256"
							},
							{
								"astId": 2050,
								"contract": "contracts/modules/Storage.sol:Storage",
								"label": "registrationTime",
								"offset": 0,
								"slot": "15",
								"type": "t_uint256"
							}
						],
						"numberOfBytes": "512"
					},
					"t_struct(UserBooster)2285_storage": {
						"encoding": "inplace",
						"label": "struct Storage.UserBooster",
						"members": [
							{
								"astId": 2276,
								"contract": "contracts/modules/Storage.sol:Storage",
								"label": "id",
								"offset": 0,
								"slot": "0",
								"type": "t_uint256"
							},
							{
								"astId": 2278,
								"contract": "contracts/modules/Storage.sol:Storage",
								"label": "poolId",
								"offset": 0,
								"slot": "1",
								"type": "t_uint256"
							},
							{
								"astId": 2280,
								"contract": "contracts/modules/Storage.sol:Storage",
								"label": "parentId",
								"offset": 0,
								"slot": "2",
								"type": "t_uint256"
							},
							{
								"astId": 2282,
								"contract": "contracts/modules/Storage.sol:Storage",
								"label": "bonusCount",
								"offset": 0,
								"slot": "3",
								"type": "t_uint256"
							},
							{
								"astId": 2284,
								"contract": "contracts/modules/Storage.sol:Storage",
								"label": "joinTime",
								"offset": 0,
								"slot": "4",
								"type": "t_uint256"
							}
						],
						"numberOfBytes": "160"
					},
					"t_struct(UserIncome)2078_storage": {
						"encoding": "inplace",
						"label": "struct Storage.UserIncome",
						"members": [
							{
								"astId": 2053,
								"contract": "contracts/modules/Storage.sol:Storage",
								"label": "totalIncome",
								"offset": 0,
								"slot": "0",
								"type": "t_uint256"
							},
							{
								"astId": 2055,
								"contract": "contracts/modules/Storage.sol:Storage",
								"label": "sponsorIncome",
								"offset": 0,
								"slot": "1",
								"type": "t_uint256"
							},
							{
								"astId": 2057,
								"contract": "contracts/modules/Storage.sol:Storage",
								"label": "matrixIncome",
								"offset": 0,
								"slot": "2",
								"type": "t_uint256"
							},
							{
								"astId": 2059,
								"contract": "contracts/modules/Storage.sol:Storage",
								"label": "levelBoosterIncome",
								"offset": 0,
								"slot": "3",
								"type": "t_uint256"
							},
							{
								"astId": 2061,
								"contract": "contracts/modules/Storage.sol:Storage",
								"label": "levelIncome",
								"offset": 0,
								"slot": "4",
								"type": "t_uint256"
							},
							{
								"astId": 2063,
								"contract": "contracts/modules/Storage.sol:Storage",
								"label": "royaltyIncome",
								"offset": 0,
								"slot": "5",
								"type": "t_uint256"
							},
							{
								"astId": 2065,
								"contract": "contracts/modules/Storage.sol:Storage",
								"label": "royaltyIncomeClaimed",
								"offset": 0,
								"slot": "6",
								"type": "t_uint256"
							},
							{
								"astId": 2067,
								"contract": "contracts/modules/Storage.sol:Storage",
								"label": "communityIncome",
								"offset": 0,
								"slot": "7",
								"type": "t_uint256"
							},
							{
								"astId": 2069,
								"contract": "contracts/modules/Storage.sol:Storage",
								"label": "poolIncome",
								"offset": 0,
								"slot": "8",
								"type": "t_uint256"
							},
							{
								"astId": 2071,
								"contract": "contracts/modules/Storage.sol:Storage",
								"label": "boosterIncome",
								"offset": 0,
								"slot": "9",
								"type": "t_uint256"
							},
							{
								"astId": 2073,
								"contract": "contracts/modules/Storage.sol:Storage",
								"label": "weeklyContestIncome",
								"offset": 0,
								"slot": "10",
								"type": "t_uint256"
							},
							{
								"astId": 2075,
								"contract": "contracts/modules/Storage.sol:Storage",
								"label": "monthlyRoyalty",
								"offset": 0,
								"slot": "11",
								"type": "t_uint256"
							},
							{
								"astId": 2077,
								"contract": "contracts/modules/Storage.sol:Storage",
								"label": "monthlyTopRoyalty",
								"offset": 0,
								"slot": "12",
								"type": "t_uint256"
							}
						],
						"numberOfBytes": "416"
					},
					"t_struct(UserPool)2269_storage": {
						"encoding": "inplace",
						"label": "struct Storage.UserPool",
						"members": [
							{
								"astId": 2260,
								"contract": "contracts/modules/Storage.sol:Storage",
								"label": "id",
								"offset": 0,
								"slot": "0",
								"type": "t_uint256"
							},
							{
								"astId": 2262,
								"contract": "contracts/modules/Storage.sol:Storage",
								"label": "mainid",
								"offset": 0,
								"slot": "1",
								"type": "t_uint256"
							},
							{
								"astId": 2264,
								"contract": "contracts/modules/Storage.sol:Storage",
								"label": "poolId",
								"offset": 0,
								"slot": "2",
								"type": "t_uint256"
							},
							{
								"astId": 2266,
								"contract": "contracts/modules/Storage.sol:Storage",
								"label": "parentId",
								"offset": 0,
								"slot": "3",
								"type": "t_uint256"
							},
							{
								"astId": 2268,
								"contract": "contracts/modules/Storage.sol:Storage",
								"label": "bonusCount",
								"offset": 0,
								"slot": "4",
								"type": "t_uint256"
							}
						],
						"numberOfBytes": "160"
					},
					"t_struct(UserPoolTopup)2274_storage": {
						"encoding": "inplace",
						"label": "struct Storage.UserPoolTopup",
						"members": [
							{
								"astId": 2271,
								"contract": "contracts/modules/Storage.sol:Storage",
								"label": "nextPoolAmt",
								"offset": 0,
								"slot": "0",
								"type": "t_uint256"
							},
							{
								"astId": 2273,
								"contract": "contracts/modules/Storage.sol:Storage",
								"label": "reTopupAmt",
								"offset": 0,
								"slot": "1",
								"type": "t_uint256"
							}
						],
						"numberOfBytes": "64"
					},
					"t_struct(WeeklyContest)2395_storage": {
						"encoding": "inplace",
						"label": "struct Storage.WeeklyContest",
						"members": [
							{
								"astId": 2378,
								"contract": "contracts/modules/Storage.sol:Storage",
								"label": "roundId",
								"offset": 0,
								"slot": "0",
								"type": "t_uint256"
							},
							{
								"astId": 2380,
								"contract": "contracts/modules/Storage.sol:Storage",
								"label": "totalReward",
								"offset": 0,
								"slot": "1",
								"type": "t_uint256"
							},
							{
								"astId": 2382,
								"contract": "contracts/modules/Storage.sol:Storage",
								"label": "totalUsers",
								"offset": 0,
								"slot": "2",
								"type": "t_uint256"
							},
							{
								"astId": 2384,
								"contract": "contracts/modules/Storage.sol:Storage",
								"label": "perUserReward",
								"offset": 0,
								"slot": "3",
								"type": "t_uint256"
							},
							{
								"astId": 2386,
								"contract": "contracts/modules/Storage.sol:Storage",
								"label": "claimedCount",
								"offset": 0,
								"slot": "4",
								"type": "t_uint256"
							},
							{
								"astId": 2388,
								"contract": "contracts/modules/Storage.sol:Storage",
								"label": "startTime",
								"offset": 0,
								"slot": "5",
								"type": "t_uint256"
							},
							{
								"astId": 2390,
								"contract": "contracts/modules/Storage.sol:Storage",
								"label": "endTime",
								"offset": 0,
								"slot": "6",
								"type": "t_uint256"
							},
							{
								"astId": 2392,
								"contract": "contracts/modules/Storage.sol:Storage",
								"label": "carryForward",
								"offset": 0,
								"slot": "7",
								"type": "t_uint256"
							},
							{
								"astId": 2394,
								"contract": "contracts/modules/Storage.sol:Storage",
								"label": "closed",
								"offset": 0,
								"slot": "8",
								"type": "t_bool"
							}
						],
						"numberOfBytes": "288"
					},
					"t_struct(weeklyUser)2408_storage": {
						"encoding": "inplace",
						"label": "struct Storage.weeklyUser",
						"members": [
							{
								"astId": 2397,
								"contract": "contracts/modules/Storage.sol:Storage",
								"label": "id",
								"offset": 0,
								"slot": "0",
								"type": "t_uint256"
							},
							{
								"astId": 2399,
								"contract": "contracts/modules/Storage.sol:Storage",
								"label": "joinTime",
								"offset": 0,
								"slot": "1",
								"type": "t_uint256"
							},
							{
								"astId": 2401,
								"contract": "contracts/modules/Storage.sol:Storage",
								"label": "roundId",
								"offset": 0,
								"slot": "2",
								"type": "t_uint256"
							},
							{
								"astId": 2403,
								"contract": "contracts/modules/Storage.sol:Storage",
								"label": "claimTime",
								"offset": 0,
								"slot": "3",
								"type": "t_uint256"
							},
							{
								"astId": 2405,
								"contract": "contracts/modules/Storage.sol:Storage",
								"label": "isClaimed",
								"offset": 0,
								"slot": "4",
								"type": "t_bool"
							},
							{
								"astId": 2407,
								"contract": "contracts/modules/Storage.sol:Storage",
								"label": "isQualified",
								"offset": 1,
								"slot": "4",
								"type": "t_bool"
							}
						],
						"numberOfBytes": "160"
					},
					"t_uint256": {
						"encoding": "inplace",
						"label": "uint256",
						"numberOfBytes": "32"
					},
					"t_uint8": {
						"encoding": "inplace",
						"label": "uint8",
						"numberOfBytes": "1"
					}
				}
			},
			"userdoc": {
				"kind": "user",
				"methods": {},
				"version": 1
			}
		}
	}
}