{
	"contracts/modules/InfinityPool.sol": {
		"InfinityPool": {
			"abi": [
				{
					"inputs": [],
					"stateMutability": "nonpayable",
					"type": "constructor"
				},
				{
					"inputs": [
						{
							"internalType": "address",
							"name": "token",
							"type": "address"
						}
					],
					"name": "SafeERC20FailedOperation",
					"type": "error"
				},
				{
					"anonymous": false,
					"inputs": [
						{
							"indexed": false,
							"internalType": "uint256",
							"name": "amount",
							"type": "uint256"
						},
						{
							"indexed": false,
							"internalType": "uint256",
							"name": "usersCount",
							"type": "uint256"
						},
						{
							"indexed": false,
							"internalType": "uint256",
							"name": "perUser",
							"type": "uint256"
						}
					],
					"name": "CommunityBonusDistributed",
					"type": "event"
				},
				{
					"anonymous": false,
					"inputs": [
						{
							"indexed": true,
							"internalType": "address",
							"name": "to",
							"type": "address"
						},
						{
							"indexed": true,
							"internalType": "address",
							"name": "from",
							"type": "address"
						},
						{
							"indexed": false,
							"internalType": "uint256",
							"name": "amount",
							"type": "uint256"
						},
						{
							"indexed": false,
							"internalType": "uint256",
							"name": "packageLevel",
							"type": "uint256"
						},
						{
							"indexed": false,
							"internalType": "uint256",
							"name": "incomeType",
							"type": "uint256"
						}
					],
					"name": "IncomeDistributed",
					"type": "event"
				},
				{
					"anonymous": false,
					"inputs": [
						{
							"indexed": true,
							"internalType": "address",
							"name": "winner",
							"type": "address"
						},
						{
							"indexed": true,
							"internalType": "uint256",
							"name": "fromUserId",
							"type": "uint256"
						},
						{
							"indexed": false,
							"internalType": "uint256",
							"name": "amount",
							"type": "uint256"
						},
						{
							"indexed": false,
							"internalType": "uint256",
							"name": "timestamp",
							"type": "uint256"
						}
					],
					"name": "LotteryReward",
					"type": "event"
				},
				{
					"anonymous": false,
					"inputs": [
						{
							"indexed": true,
							"internalType": "address",
							"name": "user",
							"type": "address"
						},
						{
							"indexed": true,
							"internalType": "address",
							"name": "sponsor",
							"type": "address"
						},
						{
							"indexed": true,
							"internalType": "uint256",
							"name": "userId",
							"type": "uint256"
						},
						{
							"indexed": false,
							"internalType": "uint256",
							"name": "uplineId",
							"type": "uint256"
						}
					],
					"name": "Registration",
					"type": "event"
				},
				{
					"anonymous": false,
					"inputs": [
						{
							"indexed": true,
							"internalType": "address",
							"name": "to",
							"type": "address"
						},
						{
							"indexed": false,
							"internalType": "uint256",
							"name": "amount",
							"type": "uint256"
						},
						{
							"indexed": false,
							"internalType": "string",
							"name": "level",
							"type": "string"
						}
					],
					"name": "RewardSent",
					"type": "event"
				},
				{
					"anonymous": false,
					"inputs": [
						{
							"indexed": true,
							"internalType": "address",
							"name": "user",
							"type": "address"
						},
						{
							"indexed": true,
							"internalType": "uint256",
							"name": "userId",
							"type": "uint256"
						},
						{
							"indexed": false,
							"internalType": "uint256",
							"name": "packageLevel",
							"type": "uint256"
						},
						{
							"indexed": false,
							"internalType": "string",
							"name": "depositType",
							"type": "string"
						}
					],
					"name": "Upgrade",
					"type": "event"
				},
				{
					"anonymous": false,
					"inputs": [
						{
							"indexed": true,
							"internalType": "uint8",
							"name": "matrixId",
							"type": "uint8"
						},
						{
							"indexed": true,
							"internalType": "uint32",
							"name": "userId",
							"type": "uint32"
						},
						{
							"indexed": true,
							"internalType": "address",
							"name": "user",
							"type": "address"
						},
						{
							"indexed": false,
							"internalType": "uint32",
							"name": "parentId",
							"type": "uint32"
						},
						{
							"indexed": false,
							"internalType": "address",
							"name": "parentAddr",
							"type": "address"
						},
						{
							"indexed": false,
							"internalType": "uint8",
							"name": "position",
							"type": "uint8"
						}
					],
					"name": "UserJoined",
					"type": "event"
				},
				{
					"anonymous": false,
					"inputs": [
						{
							"indexed": false,
							"internalType": "uint256",
							"name": "roundId",
							"type": "uint256"
						},
						{
							"indexed": false,
							"internalType": "uint256",
							"name": "totalUsers",
							"type": "uint256"
						},
						{
							"indexed": false,
							"internalType": "uint256",
							"name": "perUserReward",
							"type": "uint256"
						},
						{
							"indexed": false,
							"internalType": "uint256",
							"name": "distributedAmount",
							"type": "uint256"
						},
						{
							"indexed": false,
							"internalType": "uint256",
							"name": "leftoverReward",
							"type": "uint256"
						},
						{
							"indexed": false,
							"internalType": "uint256",
							"name": "endTime",
							"type": "uint256"
						}
					],
					"name": "WeeklyClosed",
					"type": "event"
				},
				{
					"anonymous": false,
					"inputs": [
						{
							"indexed": false,
							"internalType": "uint256",
							"name": "roundId",
							"type": "uint256"
						},
						{
							"indexed": false,
							"internalType": "uint256",
							"name": "userId",
							"type": "uint256"
						},
						{
							"indexed": false,
							"internalType": "uint256",
							"name": "joinTime",
							"type": "uint256"
						}
					],
					"name": "WeeklyContestQualified",
					"type": "event"
				},
				{
					"anonymous": false,
					"inputs": [
						{
							"indexed": false,
							"internalType": "uint256",
							"name": "roundId",
							"type": "uint256"
						},
						{
							"indexed": false,
							"internalType": "uint256",
							"name": "userId",
							"type": "uint256"
						},
						{
							"indexed": false,
							"internalType": "uint256",
							"name": "perUserReward",
							"type": "uint256"
						},
						{
							"indexed": false,
							"internalType": "uint256",
							"name": "claimTime",
							"type": "uint256"
						}
					],
					"name": "WeeklyRewardClaim",
					"type": "event"
				},
				{
					"inputs": [],
					"name": "ACC_PRECISION",
					"outputs": [
						{
							"internalType": "uint256",
							"name": "",
							"type": "uint256"
						}
					],
					"stateMutability": "view",
					"type": "function"
				},
				{
					"inputs": [],
					"name": "MONTH_DURATION",
					"outputs": [
						{
							"internalType": "uint256",
							"name": "",
							"type": "uint256"
						}
					],
					"stateMutability": "view",
					"type": "function"
				},
				{
					"inputs": [],
					"name": "PERCENTS_DIVIDER",
					"outputs": [
						{
							"internalType": "uint256",
							"name": "",
							"type": "uint256"
						}
					],
					"stateMutability": "view",
					"type": "function"
				},
				{
					"inputs": [],
					"name": "ROI_CAP_DIVIDER",
					"outputs": [
						{
							"internalType": "uint256",
							"name": "",
							"type": "uint256"
						}
					],
					"stateMutability": "view",
					"type": "function"
				},
				{
					"inputs": [],
					"name": "ROI_CAP_MULTIPLIER",
					"outputs": [
						{
							"internalType": "uint256",
							"name": "",
							"type": "uint256"
						}
					],
					"stateMutability": "view",
					"type": "function"
				},
				{
					"inputs": [
						{
							"internalType": "uint256",
							"name": "_userId",
							"type": "uint256"
						},
						{
							"internalType": "uint256",
							"name": "_poolId",
							"type": "uint256"
						}
					],
					"name": "RetopPoolByEarning",
					"outputs": [],
					"stateMutability": "nonpayable",
					"type": "function"
				},
				{
					"inputs": [],
					"name": "TIME_STEP",
					"outputs": [
						{
							"internalType": "uint256",
							"name": "",
							"type": "uint256"
						}
					],
					"stateMutability": "view",
					"type": "function"
				},
				{
					"inputs": [],
					"name": "WEEK_DURATION",
					"outputs": [
						{
							"internalType": "uint256",
							"name": "",
							"type": "uint256"
						}
					],
					"stateMutability": "view",
					"type": "function"
				},
				{
					"inputs": [],
					"name": "WeeklyCapping",
					"outputs": [
						{
							"internalType": "uint256",
							"name": "",
							"type": "uint256"
						}
					],
					"stateMutability": "view",
					"type": "function"
				},
				{
					"inputs": [],
					"name": "WeeklyTotalReward",
					"outputs": [
						{
							"internalType": "uint256",
							"name": "",
							"type": "uint256"
						}
					],
					"stateMutability": "view",
					"type": "function"
				},
				{
					"inputs": [
						{
							"internalType": "uint256",
							"name": "userId",
							"type": "uint256"
						}
					],
					"name": "canBuyNextPool",
					"outputs": [
						{
							"internalType": "bool",
							"name": "eligible",
							"type": "bool"
						},
						{
							"internalType": "string",
							"name": "reason",
							"type": "string"
						}
					],
					"stateMutability": "view",
					"type": "function"
				},
				{
					"inputs": [],
					"name": "communityAccPerUser",
					"outputs": [
						{
							"internalType": "uint256",
							"name": "",
							"type": "uint256"
						}
					],
					"stateMutability": "view",
					"type": "function"
				},
				{
					"inputs": [],
					"name": "creatorWallet",
					"outputs": [
						{
							"internalType": "address",
							"name": "",
							"type": "address"
						}
					],
					"stateMutability": "view",
					"type": "function"
				},
				{
					"inputs": [],
					"name": "currentMonthlyRound",
					"outputs": [
						{
							"internalType": "uint256",
							"name": "",
							"type": "uint256"
						}
					],
					"stateMutability": "view",
					"type": "function"
				},
				{
					"inputs": [],
					"name": "currentMonthlyStartTime",
					"outputs": [
						{
							"internalType": "uint256",
							"name": "",
							"type": "uint256"
						}
					],
					"stateMutability": "view",
					"type": "function"
				},
				{
					"inputs": [],
					"name": "currentWeeklyRound",
					"outputs": [
						{
							"internalType": "uint256",
							"name": "",
							"type": "uint256"
						}
					],
					"stateMutability": "view",
					"type": "function"
				},
				{
					"inputs": [],
					"name": "currentWeeklyStartTime",
					"outputs": [
						{
							"internalType": "uint256",
							"name": "",
							"type": "uint256"
						}
					],
					"stateMutability": "view",
					"type": "function"
				},
				{
					"inputs": [],
					"name": "defaultRefId",
					"outputs": [
						{
							"internalType": "uint256",
							"name": "",
							"type": "uint256"
						}
					],
					"stateMutability": "view",
					"type": "function"
				},
				{
					"inputs": [
						{
							"internalType": "uint256",
							"name": "",
							"type": "uint256"
						}
					],
					"name": "glbBoosterPackages",
					"outputs": [
						{
							"internalType": "uint256",
							"name": "",
							"type": "uint256"
						}
					],
					"stateMutability": "view",
					"type": "function"
				},
				{
					"inputs": [
						{
							"internalType": "uint256",
							"name": "",
							"type": "uint256"
						}
					],
					"name": "minLevelForGlbBooster",
					"outputs": [
						{
							"internalType": "uint256",
							"name": "",
							"type": "uint256"
						}
					],
					"stateMutability": "view",
					"type": "function"
				},
				{
					"inputs": [
						{
							"internalType": "uint256",
							"name": "",
							"type": "uint256"
						}
					],
					"name": "minLevelForPool",
					"outputs": [
						{
							"internalType": "uint256",
							"name": "",
							"type": "uint256"
						}
					],
					"stateMutability": "view",
					"type": "function"
				},
				{
					"inputs": [
						{
							"internalType": "uint256",
							"name": "",
							"type": "uint256"
						}
					],
					"name": "minPoolForGlbBooster",
					"outputs": [
						{
							"internalType": "uint256",
							"name": "",
							"type": "uint256"
						}
					],
					"stateMutability": "view",
					"type": "function"
				},
				{
					"inputs": [],
					"name": "monthlyCapping",
					"outputs": [
						{
							"internalType": "uint256",
							"name": "",
							"type": "uint256"
						}
					],
					"stateMutability": "view",
					"type": "function"
				},
				{
					"inputs": [
						{
							"internalType": "uint256",
							"name": "",
							"type": "uint256"
						}
					],
					"name": "packages",
					"outputs": [
						{
							"internalType": "uint256",
							"name": "",
							"type": "uint256"
						}
					],
					"stateMutability": "view",
					"type": "function"
				},
				{
					"inputs": [
						{
							"internalType": "uint256",
							"name": "",
							"type": "uint256"
						}
					],
					"name": "poolPackages",
					"outputs": [
						{
							"internalType": "uint256",
							"name": "",
							"type": "uint256"
						}
					],
					"stateMutability": "view",
					"type": "function"
				},
				{
					"inputs": [
						{
							"internalType": "uint256",
							"name": "",
							"type": "uint256"
						}
					],
					"name": "registeredUserIds",
					"outputs": [
						{
							"internalType": "uint256",
							"name": "",
							"type": "uint256"
						}
					],
					"stateMutability": "view",
					"type": "function"
				},
				{
					"inputs": [],
					"name": "systemMaintance",
					"outputs": [
						{
							"internalType": "address",
							"name": "",
							"type": "address"
						}
					],
					"stateMutability": "view",
					"type": "function"
				},
				{
					"inputs": [],
					"name": "teamDevelopment",
					"outputs": [
						{
							"internalType": "address",
							"name": "",
							"type": "address"
						}
					],
					"stateMutability": "view",
					"type": "function"
				},
				{
					"inputs": [],
					"name": "totalUsers",
					"outputs": [
						{
							"internalType": "uint256",
							"name": "",
							"type": "uint256"
						}
					],
					"stateMutability": "view",
					"type": "function"
				},
				{
					"inputs": [
						{
							"internalType": "uint256",
							"name": "_userId",
							"type": "uint256"
						}
					],
					"name": "upgradeBooster",
					"outputs": [],
					"stateMutability": "nonpayable",
					"type": "function"
				},
				{
					"inputs": [
						{
							"internalType": "uint256",
							"name": "_userId",
							"type": "uint256"
						}
					],
					"name": "upgradePool",
					"outputs": [],
					"stateMutability": "nonpayable",
					"type": "function"
				},
				{
					"inputs": [
						{
							"internalType": "uint32",
							"name": "_userId",
							"type": "uint32"
						},
						{
							"internalType": "uint256",
							"name": "_poolId",
							"type": "uint256"
						}
					],
					"name": "upgradePoolByEarning",
					"outputs": [],
					"stateMutability": "nonpayable",
					"type": "function"
				},
				{
					"inputs": [],
					"name": "usdt",
					"outputs": [
						{
							"internalType": "contract IERC20",
							"name": "",
							"type": "address"
						}
					],
					"stateMutability": "view",
					"type": "function"
				}
			],
			"devdoc": {
				"errors": {
					"SafeERC20FailedOperation(address)": [
						{
							"details": "An operation with an ERC-20 token failed."
						}
					]
				},
				"kind": "dev",
				"methods": {},
				"version": 1
			},
			"evm": {
				"assembly": "    /* \"contracts/modules/InfinityPool.sol\":102:13066  contract InfinityPool is Storage {... */\n  mstore(0x40, 0x80)\n  jumpi(tag_4, callvalue)\n    /* \"@openzeppelin/contracts/security/ReentrancyGuard.sol\":1716:1717  1 */\n  0x01\n    /* \"@openzeppelin/contracts/security/ReentrancyGuard.sol\":1821:1843  _status = _NOT_ENTERED */\n  0x00\n    /* \"contracts/modules/InfinityPool.sol\":102:13066  contract InfinityPool is Storage {... */\n  sstore\n  mload(0x40)\n  0x01e0\n  dup2\n  add\n  sub(shl(0x40, 0x01), 0x01)\n  dup2\n  gt\n  dup3\n  dup3\n  lt\n  or\n  tag_6\n  jumpi\n  0x40\n  mstore\n    /* \"contracts/modules/Storage.sol\":1324:1333  15 * 1e18 */\n  0xd02ab486cedc0000\n    /* \"contracts/modules/InfinityPool.sol\":102:13066  contract InfinityPool is Storage {... */\n  dup2\n  mstore\n    /* \"contracts/modules/Storage.sol\":1356:1365  25 * 1e18 */\n  0x015af1d78b58c40000\n    /* \"contracts/modules/Storage.sol\":1313:1828  [... */\n  0x20\n  dup3\n  add\n    /* \"contracts/modules/InfinityPool.sol\":102:13066  contract InfinityPool is Storage {... */\n  mstore\n    /* \"contracts/modules/Storage.sol\":1388:1397  50 * 1e18 */\n  0x02b5e3af16b1880000\n    /* \"contracts/modules/InfinityPool.sol\":102:13066  contract InfinityPool is Storage {... */\n  0x40\n    /* \"contracts/modules/Storage.sol\":1313:1828  [... */\n  dup3\n  add\n    /* \"contracts/modules/InfinityPool.sol\":102:13066  contract InfinityPool is Storage {... */\n  mstore\n    /* \"contracts/modules/Storage.sol\":1420:1430  100 * 1e18 */\n  0x056bc75e2d63100000\n    /* \"contracts/modules/Storage.sol\":1313:1828  [... */\n  0x60\n  dup3\n  add\n    /* \"contracts/modules/InfinityPool.sol\":102:13066  contract InfinityPool is Storage {... */\n  mstore\n    /* \"contracts/modules/Storage.sol\":1453:1463  200 * 1e18 */\n  0x0ad78ebc5ac6200000\n    /* \"contracts/modules/Storage.sol\":1313:1828  [... */\n  0x80\n  dup3\n  add\n    /* \"contracts/modules/InfinityPool.sol\":102:13066  contract InfinityPool is Storage {... */\n  mstore\n    /* \"contracts/modules/Storage.sol\":1486:1496  400 * 1e18 */\n  0x15af1d78b58c400000\n    /* \"contracts/modules/Storage.sol\":1313:1828  [... */\n  0xa0\n  dup3\n  add\n    /* \"contracts/modules/InfinityPool.sol\":102:13066  contract InfinityPool is Storage {... */\n  mstore\n    /* \"contracts/modules/Storage.sol\":1519:1529  800 * 1e18 */\n  0x2b5e3af16b18800000\n    /* \"contracts/modules/Storage.sol\":1313:1828  [... */\n  0xc0\n  dup3\n  add\n    /* \"contracts/modules/InfinityPool.sol\":102:13066  contract InfinityPool is Storage {... */\n  mstore\n    /* \"contracts/modules/Storage.sol\":1552:1563  1600 * 1e18 */\n  0x56bc75e2d631000000\n    /* \"contracts/modules/Storage.sol\":1313:1828  [... */\n  0xe0\n  dup3\n  add\n    /* \"contracts/modules/InfinityPool.sol\":102:13066  contract InfinityPool is Storage {... */\n  mstore\n    /* \"contracts/modules/Storage.sol\":1586:1597  3200 * 1e18 */\n  0xad78ebc5ac62000000\n    /* \"contracts/modules/Storage.sol\":1313:1828  [... */\n  0x0100\n  dup3\n  add\n    /* \"contracts/modules/InfinityPool.sol\":102:13066  contract InfinityPool is Storage {... */\n  mstore\n    /* \"contracts/modules/Storage.sol\":1620:1631  6400 * 1e18 */\n  0x015af1d78b58c4000000\n    /* \"contracts/modules/Storage.sol\":1313:1828  [... */\n  0x0120\n  dup3\n  add\n    /* \"contracts/modules/InfinityPool.sol\":102:13066  contract InfinityPool is Storage {... */\n  mstore\n    /* \"contracts/modules/Storage.sol\":1654:1666  12800 * 1e18 */\n  0x02b5e3af16b188000000\n    /* \"contracts/modules/Storage.sol\":1313:1828  [... */\n  0x0140\n  dup3\n  add\n    /* \"contracts/modules/InfinityPool.sol\":102:13066  contract InfinityPool is Storage {... */\n  mstore\n    /* \"contracts/modules/Storage.sol\":1689:1701  25600 * 1e18 */\n  0x056bc75e2d6310000000\n    /* \"contracts/modules/Storage.sol\":1313:1828  [... */\n  0x0160\n  dup3\n  add\n    /* \"contracts/modules/InfinityPool.sol\":102:13066  contract InfinityPool is Storage {... */\n  mstore\n    /* \"contracts/modules/Storage.sol\":1724:1736  51200 * 1e18 */\n  0x0ad78ebc5ac620000000\n    /* \"contracts/modules/Storage.sol\":1313:1828  [... */\n  0x0180\n  dup3\n  add\n    /* \"contracts/modules/InfinityPool.sol\":102:13066  contract InfinityPool is Storage {... */\n  mstore\n    /* \"contracts/modules/Storage.sol\":1759:1772  102400 * 1e18 */\n  0x15af1d78b58c40000000\n    /* \"contracts/modules/Storage.sol\":1313:1828  [... */\n  0x01a0\n  dup3\n  add\n    /* \"contracts/modules/InfinityPool.sol\":102:13066  contract InfinityPool is Storage {... */\n  mstore\n    /* \"contracts/modules/Storage.sol\":1795:1808  204800 * 1e18 */\n  0x2b5e3af16b1880000000\n    /* \"contracts/modules/Storage.sol\":1313:1828  [... */\n  0x01c0\n  dup3\n  add\n    /* \"contracts/modules/InfinityPool.sol\":102:13066  contract InfinityPool is Storage {... */\n  mstore\n    /* \"contracts/modules/Storage.sol\":1313:1828  [... */\n  0x0b\n    /* \"contracts/modules/InfinityPool.sol\":102:13066  contract InfinityPool is Storage {... */\n  sload\n    /* \"contracts/modules/Storage.sol\":1313:1828  [... */\n  0x0f\n  0x0b\n    /* \"contracts/modules/InfinityPool.sol\":102:13066  contract InfinityPool is Storage {... */\n  sstore\n  dup1\n    /* \"contracts/modules/Storage.sol\":1313:1828  [... */\n  0x0f\n    /* \"contracts/modules/InfinityPool.sol\":102:13066  contract InfinityPool is Storage {... */\n  lt\n  tag_8\n  jumpi\ntag_9:\n  pop\n    /* \"contracts/modules/Storage.sol\":1313:1828  [... */\n  0x0b\n    /* \"@openzeppelin/contracts/security/ReentrancyGuard.sol\":1821:1843  _status = _NOT_ENTERED */\n  0x00\n    /* \"contracts/modules/InfinityPool.sol\":102:13066  contract InfinityPool is Storage {... */\n  mstore\n    /* \"contracts/modules/Storage.sol\":1313:1828  [... */\n  0x20\n    /* \"@openzeppelin/contracts/security/ReentrancyGuard.sol\":1821:1843  _status = _NOT_ENTERED */\n  0x00\n    /* \"contracts/modules/InfinityPool.sol\":102:13066  contract InfinityPool is Storage {... */\n  keccak256\n  swap1\n    /* \"@openzeppelin/contracts/security/ReentrancyGuard.sol\":1821:1843  _status = _NOT_ENTERED */\n  0x00\n    /* \"contracts/modules/InfinityPool.sol\":102:13066  contract InfinityPool is Storage {... */\ntag_10:\n    /* \"contracts/modules/Storage.sol\":1313:1828  [... */\n  0x0f\n    /* \"contracts/modules/InfinityPool.sol\":102:13066  contract InfinityPool is Storage {... */\n  dup2\n  lt\n  tag_11\n  jumpi\n  tag_13\n  tag_1\n  jump\t// in\ntag_13:\n    /* \"contracts/modules/Storage.sol\":5058:5063  75e18 */\n  0x0410d586a20a4c0000\n    /* \"contracts/modules/InfinityPool.sol\":102:13066  contract InfinityPool is Storage {... */\n  dup2\n  mstore\n    /* \"contracts/modules/Storage.sol\":5065:5071  300e18 */\n  0x1043561a8829300000\n    /* \"contracts/modules/Storage.sol\":1313:1828  [... */\n  0x20\n    /* \"contracts/modules/Storage.sol\":5057:5121  [75e18, 300e18, 1200e18, 4800e18, 19200e18, 76800e18, 307200e18] */\n  dup3\n  add\n    /* \"contracts/modules/InfinityPool.sol\":102:13066  contract InfinityPool is Storage {... */\n  mstore\n    /* \"contracts/modules/Storage.sol\":5073:5080  1200e18 */\n  0x410d586a20a4c00000\n    /* \"contracts/modules/InfinityPool.sol\":102:13066  contract InfinityPool is Storage {... */\n  0x40\n    /* \"contracts/modules/Storage.sol\":5057:5121  [75e18, 300e18, 1200e18, 4800e18, 19200e18, 76800e18, 307200e18] */\n  dup3\n  add\n    /* \"contracts/modules/InfinityPool.sol\":102:13066  contract InfinityPool is Storage {... */\n  mstore\n    /* \"contracts/modules/Storage.sol\":5082:5089  4800e18 */\n  0x01043561a88293000000\n    /* \"contracts/modules/Storage.sol\":1313:1828  [... */\n  0x60\n    /* \"contracts/modules/Storage.sol\":5057:5121  [75e18, 300e18, 1200e18, 4800e18, 19200e18, 76800e18, 307200e18] */\n  dup3\n  add\n    /* \"contracts/modules/InfinityPool.sol\":102:13066  contract InfinityPool is Storage {... */\n  mstore\n    /* \"contracts/modules/Storage.sol\":5091:5099  19200e18 */\n  0x0410d586a20a4c000000\n    /* \"contracts/modules/Storage.sol\":1313:1828  [... */\n  0x80\n    /* \"contracts/modules/Storage.sol\":5057:5121  [75e18, 300e18, 1200e18, 4800e18, 19200e18, 76800e18, 307200e18] */\n  dup3\n  add\n    /* \"contracts/modules/InfinityPool.sol\":102:13066  contract InfinityPool is Storage {... */\n  mstore\n    /* \"contracts/modules/Storage.sol\":5101:5109  76800e18 */\n  0x1043561a882930000000\n    /* \"contracts/modules/Storage.sol\":1313:1828  [... */\n  0xa0\n    /* \"contracts/modules/Storage.sol\":5057:5121  [75e18, 300e18, 1200e18, 4800e18, 19200e18, 76800e18, 307200e18] */\n  dup3\n  add\n    /* \"contracts/modules/InfinityPool.sol\":102:13066  contract InfinityPool is Storage {... */\n  mstore\n    /* \"contracts/modules/Storage.sol\":5111:5120  307200e18 */\n  0x410d586a20a4c0000000\n    /* \"contracts/modules/Storage.sol\":1313:1828  [... */\n  0xc0\n    /* \"contracts/modules/Storage.sol\":5057:5121  [75e18, 300e18, 1200e18, 4800e18, 19200e18, 76800e18, 307200e18] */\n  dup3\n  add\n    /* \"contracts/modules/InfinityPool.sol\":102:13066  contract InfinityPool is Storage {... */\n  mstore\n    /* \"contracts/modules/Storage.sol\":5057:5121  [75e18, 300e18, 1200e18, 4800e18, 19200e18, 76800e18, 307200e18] */\n  0x13\n    /* \"contracts/modules/InfinityPool.sol\":102:13066  contract InfinityPool is Storage {... */\n  sload\n    /* \"contracts/modules/Storage.sol\":5057:5121  [75e18, 300e18, 1200e18, 4800e18, 19200e18, 76800e18, 307200e18] */\n  0x07\n  0x13\n    /* \"contracts/modules/InfinityPool.sol\":102:13066  contract InfinityPool is Storage {... */\n  sstore\n  dup1\n    /* \"contracts/modules/Storage.sol\":5057:5121  [75e18, 300e18, 1200e18, 4800e18, 19200e18, 76800e18, 307200e18] */\n  0x07\n    /* \"contracts/modules/InfinityPool.sol\":102:13066  contract InfinityPool is Storage {... */\n  lt\n  tag_14\n  jumpi\ntag_15:\n  pop\n    /* \"contracts/modules/Storage.sol\":5057:5121  [75e18, 300e18, 1200e18, 4800e18, 19200e18, 76800e18, 307200e18] */\n  0x13\n    /* \"@openzeppelin/contracts/security/ReentrancyGuard.sol\":1821:1843  _status = _NOT_ENTERED */\n  0x00\n    /* \"contracts/modules/InfinityPool.sol\":102:13066  contract InfinityPool is Storage {... */\n  mstore\n    /* \"contracts/modules/Storage.sol\":1313:1828  [... */\n  0x20\n    /* \"@openzeppelin/contracts/security/ReentrancyGuard.sol\":1821:1843  _status = _NOT_ENTERED */\n  0x00\n    /* \"contracts/modules/InfinityPool.sol\":102:13066  contract InfinityPool is Storage {... */\n  keccak256\n  swap1\n    /* \"@openzeppelin/contracts/security/ReentrancyGuard.sol\":1821:1843  _status = _NOT_ENTERED */\n  0x00\n    /* \"contracts/modules/InfinityPool.sol\":102:13066  contract InfinityPool is Storage {... */\ntag_16:\n    /* \"contracts/modules/Storage.sol\":5057:5121  [75e18, 300e18, 1200e18, 4800e18, 19200e18, 76800e18, 307200e18] */\n  0x07\n    /* \"contracts/modules/InfinityPool.sol\":102:13066  contract InfinityPool is Storage {... */\n  dup2\n  lt\n  tag_17\n  jumpi\n  tag_19\n  tag_2\n  jump\t// in\ntag_19:\n    /* \"contracts/modules/Storage.sol\":1420:1430  100 * 1e18 */\n  0x056bc75e2d63100000\n    /* \"contracts/modules/InfinityPool.sol\":102:13066  contract InfinityPool is Storage {... */\n  dup2\n  mstore\n    /* \"contracts/modules/Storage.sol\":1453:1463  200 * 1e18 */\n  0x0ad78ebc5ac6200000\n    /* \"contracts/modules/Storage.sol\":1313:1828  [... */\n  0x20\n    /* \"contracts/modules/Storage.sol\":5163:5233  [ 100e18, 200e18, 400e18, 800e18, 1600e18, 3200e18, 6400e18, 12800e18] */\n  dup3\n  add\n    /* \"contracts/modules/InfinityPool.sol\":102:13066  contract InfinityPool is Storage {... */\n  mstore\n    /* \"contracts/modules/Storage.sol\":1486:1496  400 * 1e18 */\n  0x15af1d78b58c400000\n    /* \"contracts/modules/InfinityPool.sol\":102:13066  contract InfinityPool is Storage {... */\n  0x40\n    /* \"contracts/modules/Storage.sol\":5163:5233  [ 100e18, 200e18, 400e18, 800e18, 1600e18, 3200e18, 6400e18, 12800e18] */\n  dup3\n  add\n    /* \"contracts/modules/InfinityPool.sol\":102:13066  contract InfinityPool is Storage {... */\n  mstore\n    /* \"contracts/modules/Storage.sol\":1519:1529  800 * 1e18 */\n  0x2b5e3af16b18800000\n    /* \"contracts/modules/Storage.sol\":1313:1828  [... */\n  0x60\n    /* \"contracts/modules/Storage.sol\":5163:5233  [ 100e18, 200e18, 400e18, 800e18, 1600e18, 3200e18, 6400e18, 12800e18] */\n  dup3\n  add\n    /* \"contracts/modules/InfinityPool.sol\":102:13066  contract InfinityPool is Storage {... */\n  mstore\n    /* \"contracts/modules/Storage.sol\":1552:1563  1600 * 1e18 */\n  0x56bc75e2d631000000\n    /* \"contracts/modules/Storage.sol\":1313:1828  [... */\n  0x80\n    /* \"contracts/modules/Storage.sol\":5163:5233  [ 100e18, 200e18, 400e18, 800e18, 1600e18, 3200e18, 6400e18, 12800e18] */\n  dup3\n  add\n    /* \"contracts/modules/InfinityPool.sol\":102:13066  contract InfinityPool is Storage {... */\n  mstore\n    /* \"contracts/modules/Storage.sol\":1586:1597  3200 * 1e18 */\n  0xad78ebc5ac62000000\n    /* \"contracts/modules/Storage.sol\":1313:1828  [... */\n  0xa0\n    /* \"contracts/modules/Storage.sol\":5163:5233  [ 100e18, 200e18, 400e18, 800e18, 1600e18, 3200e18, 6400e18, 12800e18] */\n  dup3\n  add\n    /* \"contracts/modules/InfinityPool.sol\":102:13066  contract InfinityPool is Storage {... */\n  mstore\n    /* \"contracts/modules/Storage.sol\":1620:1631  6400 * 1e18 */\n  0x015af1d78b58c4000000\n    /* \"contracts/modules/Storage.sol\":1313:1828  [... */\n  0xc0\n    /* \"contracts/modules/Storage.sol\":5163:5233  [ 100e18, 200e18, 400e18, 800e18, 1600e18, 3200e18, 6400e18, 12800e18] */\n  dup3\n  add\n    /* \"contracts/modules/InfinityPool.sol\":102:13066  contract InfinityPool is Storage {... */\n  mstore\n    /* \"contracts/modules/Storage.sol\":1654:1666  12800 * 1e18 */\n  0x02b5e3af16b188000000\n    /* \"contracts/modules/Storage.sol\":1313:1828  [... */\n  0xe0\n    /* \"contracts/modules/Storage.sol\":5163:5233  [ 100e18, 200e18, 400e18, 800e18, 1600e18, 3200e18, 6400e18, 12800e18] */\n  dup3\n  add\n    /* \"contracts/modules/InfinityPool.sol\":102:13066  contract InfinityPool is Storage {... */\n  mstore\n    /* \"contracts/modules/Storage.sol\":5163:5233  [ 100e18, 200e18, 400e18, 800e18, 1600e18, 3200e18, 6400e18, 12800e18] */\n  0x14\n    /* \"contracts/modules/InfinityPool.sol\":102:13066  contract InfinityPool is Storage {... */\n  sload\n    /* \"contracts/modules/Storage.sol\":5163:5233  [ 100e18, 200e18, 400e18, 800e18, 1600e18, 3200e18, 6400e18, 12800e18] */\n  0x08\n  0x14\n    /* \"contracts/modules/InfinityPool.sol\":102:13066  contract InfinityPool is Storage {... */\n  sstore\n  dup1\n    /* \"contracts/modules/Storage.sol\":5163:5233  [ 100e18, 200e18, 400e18, 800e18, 1600e18, 3200e18, 6400e18, 12800e18] */\n  0x08\n    /* \"contracts/modules/InfinityPool.sol\":102:13066  contract InfinityPool is Storage {... */\n  lt\n  tag_20\n  jumpi\ntag_21:\n  pop\n    /* \"contracts/modules/Storage.sol\":5163:5233  [ 100e18, 200e18, 400e18, 800e18, 1600e18, 3200e18, 6400e18, 12800e18] */\n  0x14\n    /* \"@openzeppelin/contracts/security/ReentrancyGuard.sol\":1821:1843  _status = _NOT_ENTERED */\n  0x00\n    /* \"contracts/modules/InfinityPool.sol\":102:13066  contract InfinityPool is Storage {... */\n  mstore\n    /* \"contracts/modules/Storage.sol\":1313:1828  [... */\n  0x20\n    /* \"@openzeppelin/contracts/security/ReentrancyGuard.sol\":1821:1843  _status = _NOT_ENTERED */\n  0x00\n    /* \"contracts/modules/InfinityPool.sol\":102:13066  contract InfinityPool is Storage {... */\n  keccak256\n  swap1\n    /* \"@openzeppelin/contracts/security/ReentrancyGuard.sol\":1821:1843  _status = _NOT_ENTERED */\n  0x00\n    /* \"contracts/modules/InfinityPool.sol\":102:13066  contract InfinityPool is Storage {... */\ntag_22:\n    /* \"contracts/modules/Storage.sol\":5163:5233  [ 100e18, 200e18, 400e18, 800e18, 1600e18, 3200e18, 6400e18, 12800e18] */\n  0x08\n    /* \"contracts/modules/InfinityPool.sol\":102:13066  contract InfinityPool is Storage {... */\n  dup2\n  lt\n  tag_23\n  jumpi\n  tag_25\n  tag_1\n  jump\t// in\ntag_25:\n    /* \"contracts/modules/Storage.sol\":5274:5275  3 */\n  0x03\n    /* \"contracts/modules/InfinityPool.sol\":102:13066  contract InfinityPool is Storage {... */\n  dup2\n  mstore\n  0x05\n    /* \"contracts/modules/Storage.sol\":1313:1828  [... */\n  0x20\n    /* \"contracts/modules/Storage.sol\":5273:5297  [3, 5, 7, 9, 11, 13, 15] */\n  dup3\n  add\n    /* \"contracts/modules/InfinityPool.sol\":102:13066  contract InfinityPool is Storage {... */\n  mstore\n    /* \"contracts/modules/Storage.sol\":5057:5121  [75e18, 300e18, 1200e18, 4800e18, 19200e18, 76800e18, 307200e18] */\n  0x07\n    /* \"contracts/modules/InfinityPool.sol\":102:13066  contract InfinityPool is Storage {... */\n  0x40\n    /* \"contracts/modules/Storage.sol\":5273:5297  [3, 5, 7, 9, 11, 13, 15] */\n  dup3\n  add\n    /* \"contracts/modules/InfinityPool.sol\":102:13066  contract InfinityPool is Storage {... */\n  mstore\n    /* \"contracts/modules/Storage.sol\":5283:5284  9 */\n  0x09\n    /* \"contracts/modules/Storage.sol\":1313:1828  [... */\n  0x60\n    /* \"contracts/modules/Storage.sol\":5273:5297  [3, 5, 7, 9, 11, 13, 15] */\n  dup3\n  add\n    /* \"contracts/modules/InfinityPool.sol\":102:13066  contract InfinityPool is Storage {... */\n  mstore\n    /* \"contracts/modules/Storage.sol\":1313:1828  [... */\n  0x0b\n  0x80\n    /* \"contracts/modules/Storage.sol\":5273:5297  [3, 5, 7, 9, 11, 13, 15] */\n  dup3\n  add\n    /* \"contracts/modules/InfinityPool.sol\":102:13066  contract InfinityPool is Storage {... */\n  mstore\n    /* \"contracts/modules/Storage.sol\":5290:5292  13 */\n  0x0d\n    /* \"contracts/modules/Storage.sol\":1313:1828  [... */\n  0xa0\n    /* \"contracts/modules/Storage.sol\":5273:5297  [3, 5, 7, 9, 11, 13, 15] */\n  dup3\n  add\n    /* \"contracts/modules/InfinityPool.sol\":102:13066  contract InfinityPool is Storage {... */\n  mstore\n    /* \"contracts/modules/Storage.sol\":1313:1828  [... */\n  0x0f\n  0xc0\n    /* \"contracts/modules/Storage.sol\":5273:5297  [3, 5, 7, 9, 11, 13, 15] */\n  dup3\n  add\n    /* \"contracts/modules/InfinityPool.sol\":102:13066  contract InfinityPool is Storage {... */\n  mstore\n    /* \"@openzeppelin/contracts/security/ReentrancyGuard.sol\":1821:1843  _status = _NOT_ENTERED */\n  0x00\n    /* \"contracts/modules/InfinityPool.sol\":102:13066  contract InfinityPool is Storage {... */\ntag_26:\n    /* \"contracts/modules/Storage.sol\":5057:5121  [75e18, 300e18, 1200e18, 4800e18, 19200e18, 76800e18, 307200e18] */\n  0x07\n    /* \"contracts/modules/InfinityPool.sol\":102:13066  contract InfinityPool is Storage {... */\n  dup2\n  lt\n  tag_27\n  jumpi\n  tag_29\n  tag_2\n  jump\t// in\ntag_29:\n    /* \"contracts/modules/Storage.sol\":5344:5345  4 */\n  0x04\n    /* \"contracts/modules/InfinityPool.sol\":102:13066  contract InfinityPool is Storage {... */\n  dup2\n  mstore\n  0x05\n    /* \"contracts/modules/Storage.sol\":1313:1828  [... */\n  0x20\n    /* \"contracts/modules/Storage.sol\":5343:5368  [4, 5, 6, 7, 8, 9, 10,11] */\n  dup3\n  add\n    /* \"contracts/modules/InfinityPool.sol\":102:13066  contract InfinityPool is Storage {... */\n  mstore\n    /* \"contracts/modules/Storage.sol\":5350:5351  6 */\n  0x06\n    /* \"contracts/modules/InfinityPool.sol\":102:13066  contract InfinityPool is Storage {... */\n  0x40\n    /* \"contracts/modules/Storage.sol\":5343:5368  [4, 5, 6, 7, 8, 9, 10,11] */\n  dup3\n  add\n    /* \"contracts/modules/InfinityPool.sol\":102:13066  contract InfinityPool is Storage {... */\n  mstore\n    /* \"contracts/modules/Storage.sol\":5057:5121  [75e18, 300e18, 1200e18, 4800e18, 19200e18, 76800e18, 307200e18] */\n  0x07\n    /* \"contracts/modules/Storage.sol\":1313:1828  [... */\n  0x60\n    /* \"contracts/modules/Storage.sol\":5343:5368  [4, 5, 6, 7, 8, 9, 10,11] */\n  dup3\n  add\n    /* \"contracts/modules/InfinityPool.sol\":102:13066  contract InfinityPool is Storage {... */\n  mstore\n    /* \"contracts/modules/Storage.sol\":5163:5233  [ 100e18, 200e18, 400e18, 800e18, 1600e18, 3200e18, 6400e18, 12800e18] */\n  0x08\n    /* \"contracts/modules/Storage.sol\":1313:1828  [... */\n  0x80\n    /* \"contracts/modules/Storage.sol\":5343:5368  [4, 5, 6, 7, 8, 9, 10,11] */\n  dup3\n  add\n    /* \"contracts/modules/InfinityPool.sol\":102:13066  contract InfinityPool is Storage {... */\n  mstore\n    /* \"contracts/modules/Storage.sol\":5283:5284  9 */\n  0x09\n    /* \"contracts/modules/Storage.sol\":1313:1828  [... */\n  0xa0\n    /* \"contracts/modules/Storage.sol\":5343:5368  [4, 5, 6, 7, 8, 9, 10,11] */\n  dup3\n  add\n    /* \"contracts/modules/InfinityPool.sol\":102:13066  contract InfinityPool is Storage {... */\n  mstore\n    /* \"contracts/modules/Storage.sol\":5362:5364  10 */\n  0x0a\n    /* \"contracts/modules/Storage.sol\":1313:1828  [... */\n  0xc0\n    /* \"contracts/modules/Storage.sol\":5343:5368  [4, 5, 6, 7, 8, 9, 10,11] */\n  dup3\n  add\n    /* \"contracts/modules/InfinityPool.sol\":102:13066  contract InfinityPool is Storage {... */\n  mstore\n    /* \"contracts/modules/Storage.sol\":1313:1828  [... */\n  0x0b\n  0xe0\n    /* \"contracts/modules/Storage.sol\":5343:5368  [4, 5, 6, 7, 8, 9, 10,11] */\n  dup3\n  add\n    /* \"contracts/modules/InfinityPool.sol\":102:13066  contract InfinityPool is Storage {... */\n  mstore\n    /* \"@openzeppelin/contracts/security/ReentrancyGuard.sol\":1821:1843  _status = _NOT_ENTERED */\n  0x00\n    /* \"contracts/modules/InfinityPool.sol\":102:13066  contract InfinityPool is Storage {... */\ntag_30:\n    /* \"contracts/modules/Storage.sol\":5163:5233  [ 100e18, 200e18, 400e18, 800e18, 1600e18, 3200e18, 6400e18, 12800e18] */\n  0x08\n    /* \"contracts/modules/InfinityPool.sol\":102:13066  contract InfinityPool is Storage {... */\n  dup2\n  lt\n  tag_31\n  jumpi\n  tag_33\n  tag_2\n  jump\t// in\ntag_33:\n    /* \"@openzeppelin/contracts/security/ReentrancyGuard.sol\":1821:1843  _status = _NOT_ENTERED */\n  0x00\n    /* \"contracts/modules/InfinityPool.sol\":102:13066  contract InfinityPool is Storage {... */\n  dup2\n  mstore\n    /* \"@openzeppelin/contracts/security/ReentrancyGuard.sol\":1716:1717  1 */\n  0x01\n    /* \"contracts/modules/Storage.sol\":1313:1828  [... */\n  0x20\n    /* \"contracts/modules/Storage.sol\":5413:5436  [0, 1, 1, 1, 1, 1, 1,1] */\n  dup3\n  add\n    /* \"contracts/modules/InfinityPool.sol\":102:13066  contract InfinityPool is Storage {... */\n  mstore\n    /* \"@openzeppelin/contracts/security/ReentrancyGuard.sol\":1716:1717  1 */\n  0x01\n    /* \"contracts/modules/InfinityPool.sol\":102:13066  contract InfinityPool is Storage {... */\n  0x40\n    /* \"contracts/modules/Storage.sol\":5413:5436  [0, 1, 1, 1, 1, 1, 1,1] */\n  dup3\n  add\n    /* \"contracts/modules/InfinityPool.sol\":102:13066  contract InfinityPool is Storage {... */\n  mstore\n    /* \"@openzeppelin/contracts/security/ReentrancyGuard.sol\":1716:1717  1 */\n  0x01\n    /* \"contracts/modules/Storage.sol\":1313:1828  [... */\n  0x60\n    /* \"contracts/modules/Storage.sol\":5413:5436  [0, 1, 1, 1, 1, 1, 1,1] */\n  dup3\n  add\n    /* \"contracts/modules/InfinityPool.sol\":102:13066  contract InfinityPool is Storage {... */\n  mstore\n    /* \"@openzeppelin/contracts/security/ReentrancyGuard.sol\":1716:1717  1 */\n  0x01\n    /* \"contracts/modules/Storage.sol\":1313:1828  [... */\n  0x80\n    /* \"contracts/modules/Storage.sol\":5413:5436  [0, 1, 1, 1, 1, 1, 1,1] */\n  dup3\n  add\n    /* \"contracts/modules/InfinityPool.sol\":102:13066  contract InfinityPool is Storage {... */\n  mstore\n    /* \"@openzeppelin/contracts/security/ReentrancyGuard.sol\":1716:1717  1 */\n  0x01\n    /* \"contracts/modules/Storage.sol\":1313:1828  [... */\n  0xa0\n    /* \"contracts/modules/Storage.sol\":5413:5436  [0, 1, 1, 1, 1, 1, 1,1] */\n  dup3\n  add\n    /* \"contracts/modules/InfinityPool.sol\":102:13066  contract InfinityPool is Storage {... */\n  mstore\n    /* \"@openzeppelin/contracts/security/ReentrancyGuard.sol\":1716:1717  1 */\n  0x01\n    /* \"contracts/modules/Storage.sol\":1313:1828  [... */\n  0xc0\n    /* \"contracts/modules/Storage.sol\":5413:5436  [0, 1, 1, 1, 1, 1, 1,1] */\n  dup3\n  add\n    /* \"contracts/modules/InfinityPool.sol\":102:13066  contract InfinityPool is Storage {... */\n  mstore\n    /* \"@openzeppelin/contracts/security/ReentrancyGuard.sol\":1716:1717  1 */\n  0x01\n    /* \"contracts/modules/Storage.sol\":1313:1828  [... */\n  0xe0\n    /* \"contracts/modules/Storage.sol\":5413:5436  [0, 1, 1, 1, 1, 1, 1,1] */\n  dup3\n  add\n    /* \"contracts/modules/InfinityPool.sol\":102:13066  contract InfinityPool is Storage {... */\n  mstore\n    /* \"@openzeppelin/contracts/security/ReentrancyGuard.sol\":1821:1843  _status = _NOT_ENTERED */\n  0x00\n    /* \"contracts/modules/InfinityPool.sol\":102:13066  contract InfinityPool is Storage {... */\ntag_34:\n    /* \"contracts/modules/Storage.sol\":5163:5233  [ 100e18, 200e18, 400e18, 800e18, 1600e18, 3200e18, 6400e18, 12800e18] */\n  0x08\n    /* \"contracts/modules/InfinityPool.sol\":102:13066  contract InfinityPool is Storage {... */\n  dup2\n  lt\n  tag_35\n  jumpi\n    /* \"@openzeppelin/contracts/security/ReentrancyGuard.sol\":1716:1717  1 */\n  0x01\n    /* \"contracts/modules/Storage.sol\":7098:7099  1 */\n  0x36\n    /* \"contracts/modules/InfinityPool.sol\":102:13066  contract InfinityPool is Storage {... */\n  sstore\n    /* \"@openzeppelin/contracts/security/ReentrancyGuard.sol\":1716:1717  1 */\n  0x01\n    /* \"contracts/modules/Storage.sol\":7144:7145  1 */\n  0x37\n    /* \"contracts/modules/InfinityPool.sol\":102:13066  contract InfinityPool is Storage {... */\n  sstore\n    /* \"@openzeppelin/contracts/security/ReentrancyGuard.sol\":1821:1843  _status = _NOT_ENTERED */\n  0x00\n    /* \"contracts/modules/Storage.sol\":7189:7190  0 */\n  0x38\n    /* \"contracts/modules/InfinityPool.sol\":102:13066  contract InfinityPool is Storage {... */\n  sstore\n    /* \"@openzeppelin/contracts/security/ReentrancyGuard.sol\":1821:1843  _status = _NOT_ENTERED */\n  0x00\n    /* \"contracts/modules/Storage.sol\":7235:7236  0 */\n  0x39\n    /* \"contracts/modules/InfinityPool.sol\":102:13066  contract InfinityPool is Storage {... */\n  sstore\n    /* \"@openzeppelin/contracts/security/ReentrancyGuard.sol\":1821:1843  _status = _NOT_ENTERED */\n  0x00\n    /* \"contracts/modules/Storage.sol\":7275:7276  0 */\n  0x3a\n    /* \"contracts/modules/InfinityPool.sol\":102:13066  contract InfinityPool is Storage {... */\n  sstore\n  mload(0x40)\n  dataSize(sub_0)\n  swap1\n  dup2\n  dataOffset(sub_0)\n  dup3\n  codecopy\n  return\ntag_35:\n    /* \"@openzeppelin/contracts/security/ReentrancyGuard.sol\":1716:1717  1 */\n  0x01\n    /* \"contracts/modules/InfinityPool.sol\":102:13066  contract InfinityPool is Storage {... */\n  swap1\n    /* \"contracts/modules/Storage.sol\":1313:1828  [... */\n  0x20\n    /* \"contracts/modules/InfinityPool.sol\":102:13066  contract InfinityPool is Storage {... */\n  0xff\n  dup5\n  mload\n  and\n  swap4\n  add\n  swap3\n  dup2\n    /* \"contracts/modules/Storage.sol\":5413:5436  [0, 1, 1, 1, 1, 1, 1,1] */\n  0x24\n    /* \"contracts/modules/InfinityPool.sol\":102:13066  contract InfinityPool is Storage {... */\n  add\n  sstore\n  add\n  jump(tag_34)\ntag_31:\n    /* \"@openzeppelin/contracts/security/ReentrancyGuard.sol\":1716:1717  1 */\n  0x01\n    /* \"contracts/modules/InfinityPool.sol\":102:13066  contract InfinityPool is Storage {... */\n  swap1\n    /* \"contracts/modules/Storage.sol\":1313:1828  [... */\n  0x20\n    /* \"contracts/modules/InfinityPool.sol\":102:13066  contract InfinityPool is Storage {... */\n  0xff\n  dup5\n  mload\n  and\n  swap4\n  add\n  swap3\n  dup2\n    /* \"contracts/modules/Storage.sol\":5343:5368  [4, 5, 6, 7, 8, 9, 10,11] */\n  0x1c\n    /* \"contracts/modules/InfinityPool.sol\":102:13066  contract InfinityPool is Storage {... */\n  add\n  sstore\n  add\n  jump(tag_30)\ntag_27:\n    /* \"@openzeppelin/contracts/security/ReentrancyGuard.sol\":1716:1717  1 */\n  0x01\n    /* \"contracts/modules/InfinityPool.sol\":102:13066  contract InfinityPool is Storage {... */\n  swap1\n    /* \"contracts/modules/Storage.sol\":1313:1828  [... */\n  0x20\n    /* \"contracts/modules/InfinityPool.sol\":102:13066  contract InfinityPool is Storage {... */\n  0xff\n  dup5\n  mload\n  and\n  swap4\n  add\n  swap3\n  dup2\n    /* \"contracts/modules/Storage.sol\":5273:5297  [3, 5, 7, 9, 11, 13, 15] */\n  0x15\n    /* \"contracts/modules/InfinityPool.sol\":102:13066  contract InfinityPool is Storage {... */\n  add\n  sstore\n  add\n  jump(tag_26)\ntag_23:\n  dup2\n  mload\n  sub(shl(0x50, 0x01), 0x01)\n  and\n  dup2\n  dup5\n  add\n  sstore\n    /* \"contracts/modules/Storage.sol\":1313:1828  [... */\n  0x20\n    /* \"contracts/modules/InfinityPool.sol\":102:13066  contract InfinityPool is Storage {... */\n  swap1\n  swap2\n  add\n  swap1\n    /* \"@openzeppelin/contracts/security/ReentrancyGuard.sol\":1716:1717  1 */\n  0x01\n    /* \"contracts/modules/InfinityPool.sol\":102:13066  contract InfinityPool is Storage {... */\n  add\n  jump(tag_22)\ntag_20:\n    /* \"contracts/modules/Storage.sol\":5163:5233  [ 100e18, 200e18, 400e18, 800e18, 1600e18, 3200e18, 6400e18, 12800e18] */\n  0x14\n    /* \"@openzeppelin/contracts/security/ReentrancyGuard.sol\":1821:1843  _status = _NOT_ENTERED */\n  0x00\n    /* \"contracts/modules/InfinityPool.sol\":102:13066  contract InfinityPool is Storage {... */\n  mstore\n  tag_37\n  swap1\n  0xce6d7b5282bd9a3661ae061feed1dbda4e52ab073b1f9285be6e155d9c38d4ec\n  add\n  0xce6d7b5282bd9a3661ae061feed1dbda4e52ab073b1f9285be6e155d9c38d4f4\n  tag_3\n  jump\t// in\ntag_37:\n  dup2\n  jump(tag_21)\ntag_17:\n  dup2\n  mload\n  sub(shl(0x50, 0x01), 0x01)\n  and\n  dup2\n  dup5\n  add\n  sstore\n    /* \"contracts/modules/Storage.sol\":1313:1828  [... */\n  0x20\n    /* \"contracts/modules/InfinityPool.sol\":102:13066  contract InfinityPool is Storage {... */\n  swap1\n  swap2\n  add\n  swap1\n    /* \"@openzeppelin/contracts/security/ReentrancyGuard.sol\":1716:1717  1 */\n  0x01\n    /* \"contracts/modules/InfinityPool.sol\":102:13066  contract InfinityPool is Storage {... */\n  add\n  jump(tag_16)\ntag_14:\n    /* \"contracts/modules/Storage.sol\":5057:5121  [75e18, 300e18, 1200e18, 4800e18, 19200e18, 76800e18, 307200e18] */\n  0x13\n    /* \"@openzeppelin/contracts/security/ReentrancyGuard.sol\":1821:1843  _status = _NOT_ENTERED */\n  0x00\n    /* \"contracts/modules/InfinityPool.sol\":102:13066  contract InfinityPool is Storage {... */\n  mstore\n  tag_38\n  swap1\n  0x66de8ffda797e3de9c05e8fc57b3bf0ec28a930d40b0d285d93c06501cf6a090\n  add\n  0x66de8ffda797e3de9c05e8fc57b3bf0ec28a930d40b0d285d93c06501cf6a097\n  tag_3\n  jump\t// in\ntag_38:\n  dup2\n  jump(tag_15)\ntag_11:\n  dup2\n  mload\n  sub(shl(0x50, 0x01), 0x01)\n  and\n  dup2\n  dup5\n  add\n  sstore\n    /* \"contracts/modules/Storage.sol\":1313:1828  [... */\n  0x20\n    /* \"contracts/modules/InfinityPool.sol\":102:13066  contract InfinityPool is Storage {... */\n  swap1\n  swap2\n  add\n  swap1\n    /* \"@openzeppelin/contracts/security/ReentrancyGuard.sol\":1716:1717  1 */\n  0x01\n    /* \"contracts/modules/InfinityPool.sol\":102:13066  contract InfinityPool is Storage {... */\n  add\n  jump(tag_10)\ntag_8:\n    /* \"contracts/modules/Storage.sol\":1313:1828  [... */\n  0x0b\n    /* \"@openzeppelin/contracts/security/ReentrancyGuard.sol\":1821:1843  _status = _NOT_ENTERED */\n  0x00\n    /* \"contracts/modules/InfinityPool.sol\":102:13066  contract InfinityPool is Storage {... */\n  mstore\n  tag_39\n  swap1\n  0x0175b7a638427703f0dbe7bb9bbf987a2551717b34e79f33b5b1008d1fa01db9\n  add\n  0x0175b7a638427703f0dbe7bb9bbf987a2551717b34e79f33b5b1008d1fa01dc8\n  tag_3\n  jump\t// in\ntag_39:\n  0x00\n  jump(tag_9)\ntag_6:\n  shl(0xe0, 0x4e487b71)\n    /* \"@openzeppelin/contracts/security/ReentrancyGuard.sol\":1821:1843  _status = _NOT_ENTERED */\n  0x00\n    /* \"contracts/modules/InfinityPool.sol\":102:13066  contract InfinityPool is Storage {... */\n  mstore\n  mstore(0x04, 0x41)\n  0x24\n    /* \"@openzeppelin/contracts/security/ReentrancyGuard.sol\":1821:1843  _status = _NOT_ENTERED */\n  0x00\n    /* \"contracts/modules/InfinityPool.sol\":102:13066  contract InfinityPool is Storage {... */\n  revert\ntag_4:\n  0x00\n  dup1\n  revert\ntag_1:\n  mload(0x40)\n  swap1\n  0xe0\n  dup3\n  add\n  sub(shl(0x40, 0x01), 0x01)\n  dup2\n  gt\n  dup4\n  dup3\n  lt\n  or\n  tag_6\n  jumpi\n  0x40\n  mstore\n  jump\t// out\ntag_2:\n  mload(0x40)\n  swap1\n  0x0100\n  dup3\n  add\n  sub(shl(0x40, 0x01), 0x01)\n  dup2\n  gt\n  dup4\n  dup3\n  lt\n  or\n  tag_6\n  jumpi\n  0x40\n  mstore\n  jump\t// out\ntag_3:\n  dup2\n  dup2\n  lt\n  tag_45\n  jumpi\n  pop\n  pop\n  jump\t// out\ntag_45:\n  0x00\n  dup2\n  sstore\n  0x01\n  add\n  jump(tag_3)\nstop\n\nsub_0: assembly {\n        /* \"contracts/modules/InfinityPool.sol\":102:13066  contract InfinityPool is Storage {... */\n      0x80\n      dup1\n      0x40\n      mstore\n      jumpi(tag_28, iszero(lt(calldatasize, 0x04)))\n      0x00\n      dup1\n      revert\n    tag_28:\n      shr(0xe0, calldataload(0x00))\n      swap1\n      dup2\n      0x01c234a8\n      eq\n      tag_30\n      jumpi\n      pop\n      dup1\n      0x2132d204\n      eq\n      tag_32\n      jumpi\n      dup1\n      0x2350268f\n      eq\n      tag_34\n      jumpi\n      dup1\n      0x2a891534\n      eq\n      tag_36\n      jumpi\n      dup1\n      0x2f48ab7d\n      eq\n      tag_38\n      jumpi\n      dup1\n      0x3080b5bc\n      eq\n      tag_40\n      jumpi\n      dup1\n      0x32bc298c\n      eq\n      tag_42\n      jumpi\n      dup1\n      0x32fcd966\n      eq\n      tag_44\n      jumpi\n      dup1\n      0x375b43b4\n      eq\n      tag_46\n      jumpi\n      dup1\n      0x39ab3603\n      eq\n      tag_48\n      jumpi\n      dup1\n      0x4060160a\n      eq\n      tag_50\n      jumpi\n      dup1\n      0x58c7d352\n      eq\n      tag_52\n      jumpi\n      dup1\n      0x67d52d4d\n      eq\n      tag_54\n      jumpi\n      dup1\n      0x76f5f700\n      eq\n      tag_56\n      jumpi\n      dup1\n      0x7848f0a3\n      eq\n      tag_58\n      jumpi\n      dup1\n      0x78f6ad6d\n      eq\n      tag_60\n      jumpi\n      dup1\n      0x7cdc65f2\n      eq\n      tag_62\n      jumpi\n      dup1\n      0x8e222e24\n      eq\n      tag_64\n      jumpi\n      dup1\n      0x956a3228\n      eq\n      tag_66\n      jumpi\n      dup1\n      0xae4708dc\n      eq\n      tag_68\n      jumpi\n      dup1\n      0xbc1fa7c0\n      eq\n      tag_70\n      jumpi\n      dup1\n      0xbff1f9e1\n      eq\n      tag_72\n      jumpi\n      dup1\n      0xc216212a\n      eq\n      tag_74\n      jumpi\n      dup1\n      0xc8df2908\n      eq\n      tag_76\n      jumpi\n      dup1\n      0xc9ed0708\n      eq\n      tag_78\n      jumpi\n      dup1\n      0xca8e9121\n      eq\n      tag_80\n      jumpi\n      dup1\n      0xd0a2fd79\n      eq\n      tag_82\n      jumpi\n      dup1\n      0xe898fc38\n      eq\n      tag_84\n      jumpi\n      dup1\n      0xe9e34a16\n      eq\n      tag_86\n      jumpi\n      dup1\n      0xebe0ff15\n      eq\n      tag_88\n      jumpi\n      dup1\n      0xec597e6f\n      eq\n      tag_90\n      jumpi\n      dup1\n      0xf5d74d93\n      eq\n      tag_92\n      jumpi\n      0xfddc806f\n      eq\n      tag_94\n      jumpi\n      0x00\n      dup1\n      revert\n    tag_94:\n      jumpi(tag_98, callvalue)\n      jumpi(tag_98, slt(add(not(0x03), calldatasize), 0x00))\n      0x20\n        /* \"contracts/modules/Storage.sol\":7152:7190  uint public currentWeeklyStartTime = 0 */\n      0x38\n        /* \"contracts/modules/InfinityPool.sol\":102:13066  contract InfinityPool is Storage {... */\n      sload\n      mload(0x40)\n      swap1\n      dup2\n      mstore\n      return\n    tag_98:\n      0x00\n      dup1\n      revert\n    tag_92:\n      jumpi(tag_98, callvalue)\n      jumpi(tag_98, slt(add(not(0x03), calldatasize), 0x00))\n      sload(0x04)\n      mload(0x40)\n      sub(shl(0xa0, 0x01), 0x01)\n      swap1\n      swap2\n      and\n      dup2\n      mstore\n      0x20\n      swap1\n      return\n    tag_90:\n      jumpi(tag_98, callvalue)\n      jumpi(tag_98, slt(add(not(0x03), calldatasize), 0x00))\n      0x20\n        /* \"contracts/modules/Storage.sol\":534:558  uint public defaultRefId */\n      0x05\n        /* \"contracts/modules/InfinityPool.sol\":102:13066  contract InfinityPool is Storage {... */\n      sload\n      mload(0x40)\n      swap1\n      dup2\n      mstore\n      return\n    tag_88:\n      jumpi(tag_98, callvalue)\n      jumpi(tag_98, slt(add(not(0x03), calldatasize), 0x00))\n      0x20\n      mload(0x40)\n        /* \"contracts/modules/Storage.sol\":6996:7003  1000e18 */\n      0x3635c9adc5dea00000\n        /* \"contracts/modules/InfinityPool.sol\":102:13066  contract InfinityPool is Storage {... */\n      dup2\n      mstore\n      return\n    tag_86:\n      jumpi(tag_98, callvalue)\n      jumpi(tag_98, slt(add(not(0x03), calldatasize), 0x00))\n        /* \"contracts/modules/Storage.sol\":460:490  address public systemMaintance */\n      0x03\n        /* \"contracts/modules/InfinityPool.sol\":102:13066  contract InfinityPool is Storage {... */\n      sload\n      mload(0x40)\n      sub(shl(0xa0, 0x01), 0x01)\n      swap1\n      swap2\n      and\n      dup2\n      mstore\n      0x20\n      swap1\n      return\n    tag_84:\n      jumpi(tag_98, callvalue)\n      jumpi(tag_98, slt(add(not(0x03), calldatasize), 0x00))\n      0x20\n        /* \"contracts/modules/Storage.sol\":7197:7236  uint public currentMonthlyStartTime = 0 */\n      0x39\n        /* \"contracts/modules/InfinityPool.sol\":102:13066  contract InfinityPool is Storage {... */\n      sload\n      mload(0x40)\n      swap1\n      dup2\n      mstore\n      return\n    tag_82:\n      jumpi(tag_98, callvalue)\n      jumpi(tag_98, slt(add(not(0x03), calldatasize), 0x20))\n      calldataload(0x04)\n      0x08\n        /* \"contracts/modules/Storage.sol\":5304:5368  uint[8] public minLevelForGlbBooster = [4, 5, 6, 7, 8, 9, 10,11] */\n      dup2\n      lt\n      iszero\n      tag_98\n      jumpi\n        /* \"contracts/modules/InfinityPool.sol\":102:13066  contract InfinityPool is Storage {... */\n      0x20\n      swap1\n        /* \"contracts/modules/Storage.sol\":5304:5368  uint[8] public minLevelForGlbBooster = [4, 5, 6, 7, 8, 9, 10,11] */\n      0x1c\n        /* \"contracts/modules/InfinityPool.sol\":102:13066  contract InfinityPool is Storage {... */\n      add\n      sload\n      mload(0x40)\n      swap1\n      dup2\n      mstore\n      return\n    tag_80:\n      jumpi(tag_98, callvalue)\n      jumpi(tag_98, slt(add(not(0x03), calldatasize), 0x00))\n      0x20\n        /* \"contracts/modules/Storage.sol\":7065:7099  uint public currentWeeklyRound = 1 */\n      0x36\n        /* \"contracts/modules/InfinityPool.sol\":102:13066  contract InfinityPool is Storage {... */\n      sload\n      mload(0x40)\n      swap1\n      dup2\n      mstore\n      return\n    tag_78:\n      jumpi(tag_98, callvalue)\n      jumpi(tag_98, slt(add(not(0x03), calldatasize), 0x00))\n      0x20\n        /* \"contracts/modules/Storage.sol\":7110:7145  uint public currentMonthlyRound = 1 */\n      0x37\n        /* \"contracts/modules/InfinityPool.sol\":102:13066  contract InfinityPool is Storage {... */\n      sload\n      mload(0x40)\n      swap1\n      dup2\n      mstore\n      return\n    tag_76:\n      jumpi(tag_98, callvalue)\n      jumpi(tag_98, slt(add(not(0x03), calldatasize), 0x00))\n      0x20\n      mload(0x40)\n        /* \"contracts/modules/Storage.sol\":7048:7056  10000e18 */\n      0x021e19e0c9bab2400000\n        /* \"contracts/modules/InfinityPool.sol\":102:13066  contract InfinityPool is Storage {... */\n      dup2\n      mstore\n      return\n    tag_74:\n      jumpi(tag_98, callvalue)\n      jumpi(tag_98, slt(add(not(0x03), calldatasize), 0x20))\n      calldataload(0x04)\n        /* \"contracts/modules/Storage.sol\":1288:1828  uint[] public packages = [... */\n      0x0b\n        /* \"contracts/modules/InfinityPool.sol\":102:13066  contract InfinityPool is Storage {... */\n      sload\n        /* \"contracts/modules/Storage.sol\":1288:1828  uint[] public packages = [... */\n      dup2\n      lt\n      iszero\n      tag_98\n      jumpi\n      0x0b\n        /* \"contracts/modules/InfinityPool.sol\":102:13066  contract InfinityPool is Storage {... */\n      sload\n      dup2\n      lt\n      iszero\n      tag_144\n      jumpi\n        /* \"contracts/modules/Storage.sol\":1288:1828  uint[] public packages = [... */\n      0x0b\n        /* \"contracts/modules/InfinityPool.sol\":102:13066  contract InfinityPool is Storage {... */\n      0x00\n      mstore\n      0x0175b7a638427703f0dbe7bb9bbf987a2551717b34e79f33b5b1008d1fa01db9\n      add\n      sload\n      mload(0x40)\n      swap1\n      dup2\n      mstore\n      0x20\n      swap1\n      return\n    tag_144:\n      mstore(0x00, shl(0xe0, 0x4e487b71))\n      mstore(0x04, 0x32)\n      revert(0x00, 0x24)\n    tag_72:\n      jumpi(tag_98, callvalue)\n      jumpi(tag_98, slt(add(not(0x03), calldatasize), 0x00))\n      0x20\n        /* \"contracts/modules/Storage.sol\":565:587  uint public totalUsers */\n      0x06\n        /* \"contracts/modules/InfinityPool.sol\":102:13066  contract InfinityPool is Storage {... */\n      sload\n      mload(0x40)\n      swap1\n      dup2\n      mstore\n      return\n    tag_70:\n      jumpi(tag_98, callvalue)\n      jumpi(tag_98, slt(add(not(0x03), calldatasize), 0x20))\n      calldataload(0x04)\n      dup1\n      0x00\n      mstore\n        /* \"contracts/modules/InfinityPool.sol\":9259:9264  users */\n      0x0d\n        /* \"contracts/modules/InfinityPool.sol\":102:13066  contract InfinityPool is Storage {... */\n      0x20\n      mstore\n      keccak256(0x00, 0x40)\n        /* \"contracts/modules/InfinityPool.sol\":9284:9339  require(user.account == msg.sender, \"Not your account\") */\n      tag_154\n        /* \"contracts/modules/InfinityPool.sol\":102:13066  contract InfinityPool is Storage {... */\n      0x01\n      dup1\n      0xa0\n      shl\n      sub\n      dup3\n      sload\n      and\n        /* \"contracts/modules/InfinityPool.sol\":9308:9318  msg.sender */\n      caller\n        /* \"contracts/modules/InfinityPool.sol\":9292:9318  user.account == msg.sender */\n      eq\n        /* \"contracts/modules/InfinityPool.sol\":9284:9339  require(user.account == msg.sender, \"Not your account\") */\n      tag_4\n      jump\t// in\n    tag_154:\n        /* \"contracts/modules/InfinityPool.sol\":9259:9264  users */\n      0x0d\n        /* \"contracts/modules/InfinityPool.sol\":9358:9375  user.boosterlevel */\n      dup2\n      add\n        /* \"contracts/modules/InfinityPool.sol\":102:13066  contract InfinityPool is Storage {... */\n      swap1\n      dup2\n      sload\n        /* \"contracts/modules/InfinityPool.sol\":9358:9379  user.boosterlevel < 8 */\n      swap2\n        /* \"contracts/modules/InfinityPool.sol\":9378:9379  8 */\n      0x08\n        /* \"contracts/modules/InfinityPool.sol\":9358:9379  user.boosterlevel < 8 */\n      dup4\n      lt\n        /* \"contracts/modules/InfinityPool.sol\":9350:9396  require(user.boosterlevel < 8, \"At max level\") */\n      tag_155\n      dup2\n      tag_5\n      jump\t// in\n    tag_155:\n        /* \"contracts/modules/InfinityPool.sol\":102:13066  contract InfinityPool is Storage {... */\n      iszero\n      tag_144\n      jumpi\n      dup3\n        /* \"contracts/modules/InfinityPool.sol\":9567:9588  minLevelForGlbBooster */\n      0x1c\n        /* \"contracts/modules/InfinityPool.sol\":102:13066  contract InfinityPool is Storage {... */\n      add\n      sload\n      dup4\n        /* \"contracts/modules/InfinityPool.sol\":9666:9686  minPoolForGlbBooster */\n      0x24\n        /* \"contracts/modules/InfinityPool.sol\":102:13066  contract InfinityPool is Storage {... */\n      add\n      sload\n        /* \"contracts/modules/InfinityPool.sol\":9810:9820  user.level */\n      swap1\n      0x06\n      dup5\n      add\n        /* \"contracts/modules/InfinityPool.sol\":102:13066  contract InfinityPool is Storage {... */\n      sload\n        /* \"contracts/modules/InfinityPool.sol\":9810:9837  user.level >= requiredLevel */\n      lt\n      iszero\n        /* \"contracts/modules/InfinityPool.sol\":9810:9871  user.level >= requiredLevel && user.poollevel >= requiredPool */\n      swap1\n      dup2\n      tag_158\n      jumpi\n        /* \"contracts/modules/InfinityPool.sol\":102:13066  contract InfinityPool is Storage {... */\n    tag_159:\n      pop\n      iszero\n      tag_160\n      jumpi\n        /* \"contracts/modules/InfinityPool.sol\":9977:9989  nextPool > 0 */\n      dup3\n        /* \"contracts/modules/InfinityPool.sol\":9973:10083  if (nextPool > 0) {... */\n      tag_162\n      jumpi\n        /* \"contracts/modules/InfinityPool.sol\":102:13066  contract InfinityPool is Storage {... */\n    tag_163:\n      dup4\n      0x00\n      mstore\n        /* \"contracts/modules/InfinityPool.sol\":10102:10116  userHasbooster */\n      0x35\n        /* \"contracts/modules/InfinityPool.sol\":102:13066  contract InfinityPool is Storage {... */\n      0x20\n      mstore\n      keccak256(0x00, 0x40)\n      dup4\n      0x00\n      mstore\n      0x20\n      mstore\n        /* \"contracts/modules/InfinityPool.sol\":10093:10162  require(!userHasbooster[_userId][nextPool], \"Pool already purchased\") */\n      tag_164\n        /* \"contracts/modules/InfinityPool.sol\":102:13066  contract InfinityPool is Storage {... */\n      and(sload(keccak256(0x00, 0x40)), 0xff)\n        /* \"contracts/modules/InfinityPool.sol\":10101:10135  !userHasbooster[_userId][nextPool] */\n      iszero\n        /* \"contracts/modules/InfinityPool.sol\":10093:10162  require(!userHasbooster[_userId][nextPool], \"Pool already purchased\") */\n      tag_6\n      jump\t// in\n    tag_164:\n        /* \"contracts/modules/InfinityPool.sol\":10195:10223  glbBoosterPackages[nextPool] */\n      tag_165\n      dup4\n      tag_1\n      jump\t// in\n    tag_165:\n        /* \"contracts/modules/InfinityPool.sol\":102:13066  contract InfinityPool is Storage {... */\n      swap1\n      sload\n      sload(0x01)\n      mload(0x40)\n      shl(0xe0, 0x23b872dd)\n        /* \"contracts/modules/InfinityPool.sol\":10291:10349  usdt.transferFrom(msg.sender, address(this), packagePrice) */\n      dup2\n      mstore\n        /* \"contracts/modules/InfinityPool.sol\":9308:9318  msg.sender */\n      caller\n        /* \"contracts/modules/InfinityPool.sol\":102:13066  contract InfinityPool is Storage {... */\n      0x04\n        /* \"contracts/modules/InfinityPool.sol\":10291:10349  usdt.transferFrom(msg.sender, address(this), packagePrice) */\n      dup3\n      add\n        /* \"contracts/modules/InfinityPool.sol\":102:13066  contract InfinityPool is Storage {... */\n      mstore\n        /* \"contracts/modules/InfinityPool.sol\":10329:10333  this */\n      address\n        /* \"contracts/modules/InfinityPool.sol\":102:13066  contract InfinityPool is Storage {... */\n      0x24\n      dup3\n      add\n      mstore\n      0x03\n      swap4\n      swap1\n      swap4\n      shl\n      swap2\n      swap1\n      swap2\n      shr\n      0x44\n      dup4\n      add\n      dup2\n      swap1\n      mstore\n      swap3\n      swap2\n      swap1\n      0x20\n      swap1\n      dup3\n      swap1\n      0x64\n      swap1\n      dup3\n      swap1\n      0x00\n      swap1\n      sub(shl(0xa0, 0x01), 0x01)\n      and\n        /* \"contracts/modules/InfinityPool.sol\":10291:10349  usdt.transferFrom(msg.sender, address(this), packagePrice) */\n      gas\n      call\n      dup1\n      iszero\n      tag_167\n      jumpi\n      tag_169\n      jumpi\n        /* \"contracts/modules/InfinityPool.sol\":102:13066  contract InfinityPool is Storage {... */\n    tag_170:\n      pop\n      dup1\n      sload\n      swap3\n      0x01\n      dup5\n      add\n      dup1\n      swap5\n      gt\n      tag_177\n      jumpi\n        /* \"contracts/modules/InfinityPool.sol\":10591:10759  user.deposits.push(Deposit({... */\n      tag_173\n        /* \"contracts/modules/InfinityPool.sol\":102:13066  contract InfinityPool is Storage {... */\n      swap4\n      0x01\n      swap3\n      sstore\n      dup6\n      0x00\n      mstore\n        /* \"contracts/modules/InfinityPool.sol\":10102:10116  userHasbooster */\n      0x35\n        /* \"contracts/modules/InfinityPool.sol\":102:13066  contract InfinityPool is Storage {... */\n      0x20\n      mstore\n      keccak256(0x00, 0x40)\n      dup6\n      0x00\n      mstore\n      0x20\n      mstore\n      keccak256(0x00, 0x40)\n      dup3\n      not(0xff)\n      dup3\n      sload\n      and\n      or\n      swap1\n      sstore\n        /* \"contracts/modules/InfinityPool.sol\":10454:10473  user.boosterDeposit */\n      0x0e\n      dup2\n      add\n        /* \"contracts/modules/InfinityPool.sol\":10454:10489  user.boosterDeposit += packagePrice */\n      tag_174\n        /* \"contracts/modules/InfinityPool.sol\":102:13066  contract InfinityPool is Storage {... */\n      dup5\n      dup3\n      sload\n        /* \"contracts/modules/InfinityPool.sol\":10454:10489  user.boosterDeposit += packagePrice */\n      tag_12\n      jump\t// in\n    tag_174:\n        /* \"contracts/modules/InfinityPool.sol\":102:13066  contract InfinityPool is Storage {... */\n      swap1\n      sstore\n        /* \"contracts/modules/InfinityPool.sol\":10535:10547  packagePrice */\n      tag_175\n      dup4\n      dup8\n      dup8\n      tag_22\n      jump\t// in\n    tag_175:\n        /* \"contracts/modules/InfinityPool.sol\":102:13066  contract InfinityPool is Storage {... */\n      mload(0x40)\n      swap3\n      tag_176\n      dup5\n      tag_7\n      jump\t// in\n    tag_176:\n      dup4\n      mstore\n      0x00\n      0x20\n        /* \"contracts/modules/InfinityPool.sol\":10610:10758  Deposit({... */\n      dup5\n      add\n        /* \"contracts/modules/InfinityPool.sol\":102:13066  contract InfinityPool is Storage {... */\n      mstore\n        /* \"contracts/modules/InfinityPool.sol\":10702:10717  block.timestamp */\n      timestamp\n        /* \"contracts/modules/InfinityPool.sol\":102:13066  contract InfinityPool is Storage {... */\n      0x40\n        /* \"contracts/modules/InfinityPool.sol\":10610:10758  Deposit({... */\n      dup5\n      add\n        /* \"contracts/modules/InfinityPool.sol\":102:13066  contract InfinityPool is Storage {... */\n      mstore\n        /* \"contracts/modules/InfinityPool.sol\":10744:10746  11 */\n      0x0b\n        /* \"contracts/modules/InfinityPool.sol\":10610:10758  Deposit({... */\n      0x60\n      dup5\n      add\n        /* \"contracts/modules/InfinityPool.sol\":102:13066  contract InfinityPool is Storage {... */\n      mstore\n        /* \"contracts/modules/InfinityPool.sol\":10591:10604  user.deposits */\n      add\n        /* \"contracts/modules/InfinityPool.sol\":10591:10759  user.deposits.push(Deposit({... */\n      tag_13\n      jump\t// in\n    tag_173:\n        /* \"contracts/modules/InfinityPool.sol\":102:13066  contract InfinityPool is Storage {... */\n      0x01\n      dup2\n      add\n      dup1\n      swap2\n      gt\n      tag_177\n      jumpi\n      mload(0x40)\n      swap1\n      dup2\n      mstore\n      0x40\n      0x20\n      dup3\n      add\n      mstore\n      0x07\n      0x40\n      dup3\n      add\n      mstore\n      shl(0xc9, 0x2137b7b9ba32b9)\n        /* \"contracts/modules/InfinityPool.sol\":10610:10758  Deposit({... */\n      0x60\n        /* \"contracts/modules/InfinityPool.sol\":102:13066  contract InfinityPool is Storage {... */\n      dup3\n      add\n      mstore\n      mload(0x00)\n      codecopy(0x00, data_92fb4c3df386bc0d49f8847c66cda554c07c2df42e065e03d639278ecf8d94a7, 0x20)\n      mload(0x00)\n      swap1\n      0x00\n      mstore\n      0x80\n        /* \"contracts/modules/InfinityPool.sol\":9308:9318  msg.sender */\n      caller\n        /* \"contracts/modules/InfinityPool.sol\":10777:10830  Upgrade(msg.sender, _userId, nextPool + 1, \"Booster\") */\n      swap3\n      log3\n        /* \"contracts/modules/InfinityPool.sol\":102:13066  contract InfinityPool is Storage {... */\n      stop\n    tag_177:\n      mstore(0x00, shl(0xe0, 0x4e487b71))\n      mstore(0x04, 0x11)\n        /* \"contracts/modules/InfinityPool.sol\":9666:9686  minPoolForGlbBooster */\n      0x24\n        /* \"contracts/modules/InfinityPool.sol\":102:13066  contract InfinityPool is Storage {... */\n      0x00\n      revert\n        /* \"contracts/modules/InfinityPool.sol\":10291:10349  usdt.transferFrom(msg.sender, address(this), packagePrice) */\n    tag_169:\n      tag_179\n      swap1\n        /* \"contracts/modules/InfinityPool.sol\":102:13066  contract InfinityPool is Storage {... */\n      0x20\n        /* \"contracts/modules/InfinityPool.sol\":10291:10349  usdt.transferFrom(msg.sender, address(this), packagePrice) */\n      returndatasize\n        /* \"contracts/modules/InfinityPool.sol\":102:13066  contract InfinityPool is Storage {... */\n      0x20\n        /* \"contracts/modules/InfinityPool.sol\":10291:10349  usdt.transferFrom(msg.sender, address(this), packagePrice) */\n      gt\n      tag_180\n      jumpi\n    tag_181:\n      tag_182\n      dup2\n      dup4\n      tag_9\n      jump\t// in\n    tag_182:\n      dup2\n      add\n      swap1\n      tag_10\n      jump\t// in\n    tag_179:\n      jump(tag_170)\n    tag_180:\n      pop\n      returndatasize\n      jump(tag_181)\n    tag_167:\n        /* \"contracts/modules/InfinityPool.sol\":102:13066  contract InfinityPool is Storage {... */\n      mload(0x40)\n      returndatasize\n      0x00\n      dup3\n      returndatacopy\n      returndatasize\n      swap1\n      revert\n        /* \"contracts/modules/InfinityPool.sol\":9973:10083  if (nextPool > 0) {... */\n    tag_162:\n      jump(tag_163)\n        /* \"contracts/modules/InfinityPool.sol\":102:13066  contract InfinityPool is Storage {... */\n    tag_160:\n      mload(0x40)\n      shl(0xe5, 0x461bcd)\n      dup2\n      mstore\n      0x20\n      0x04\n      dup3\n      add\n      mstore\n      0x15\n        /* \"contracts/modules/InfinityPool.sol\":9666:9686  minPoolForGlbBooster */\n      0x24\n        /* \"contracts/modules/InfinityPool.sol\":102:13066  contract InfinityPool is Storage {... */\n      dup3\n      add\n      mstore\n      shl(0x5a, 0x155c19dc9859194814db1bdd08185b9908141bdbdb)\n      0x44\n      dup3\n      add\n      mstore\n      0x64\n      swap1\n      revert\n        /* \"contracts/modules/InfinityPool.sol\":9810:9871  user.level >= requiredLevel && user.poollevel >= requiredPool */\n    tag_158:\n        /* \"contracts/modules/InfinityPool.sol\":9841:9855  user.poollevel */\n      swap1\n      pop\n      0x0b\n      dup4\n      add\n        /* \"contracts/modules/InfinityPool.sol\":102:13066  contract InfinityPool is Storage {... */\n      sload\n        /* \"contracts/modules/InfinityPool.sol\":9841:9871  user.poollevel >= requiredPool */\n      lt\n      iszero\n        /* \"contracts/modules/InfinityPool.sol\":9810:9871  user.level >= requiredLevel && user.poollevel >= requiredPool */\n      dup6\n      jump(tag_159)\n        /* \"contracts/modules/InfinityPool.sol\":102:13066  contract InfinityPool is Storage {... */\n    tag_68:\n      jumpi(tag_98, callvalue)\n      jumpi(tag_98, slt(add(not(0x03), calldatasize), 0x20))\n      calldataload(0x04)\n        /* \"contracts/modules/Storage.sol\":5028:5121  uint[] public poolPackages = [75e18, 300e18, 1200e18, 4800e18, 19200e18, 76800e18, 307200e18] */\n      0x13\n        /* \"contracts/modules/InfinityPool.sol\":102:13066  contract InfinityPool is Storage {... */\n      sload\n        /* \"contracts/modules/Storage.sol\":5028:5121  uint[] public poolPackages = [75e18, 300e18, 1200e18, 4800e18, 19200e18, 76800e18, 307200e18] */\n      dup2\n      lt\n      iszero\n      tag_98\n      jumpi\n      tag_189\n        /* \"contracts/modules/InfinityPool.sol\":102:13066  contract InfinityPool is Storage {... */\n      0x20\n        /* \"contracts/modules/Storage.sol\":5028:5121  uint[] public poolPackages = [75e18, 300e18, 1200e18, 4800e18, 19200e18, 76800e18, 307200e18] */\n      swap2\n      tag_2\n      jump\t// in\n    tag_189:\n        /* \"contracts/modules/InfinityPool.sol\":102:13066  contract InfinityPool is Storage {... */\n      swap1\n      sload\n      swap1\n      0x03\n      shl\n      shr\n      mload(0x40)\n      swap1\n      dup2\n      mstore\n      return\n    tag_66:\n      jumpi(tag_98, callvalue)\n      jumpi(tag_98, slt(add(not(0x03), calldatasize), 0x20))\n      calldataload(0x04)\n      0x08\n        /* \"contracts/modules/Storage.sol\":5375:5436  uint[8] public minPoolForGlbBooster = [0, 1, 1, 1, 1, 1, 1,1] */\n      dup2\n      lt\n      iszero\n      tag_98\n      jumpi\n        /* \"contracts/modules/InfinityPool.sol\":102:13066  contract InfinityPool is Storage {... */\n      0x20\n      swap1\n        /* \"contracts/modules/Storage.sol\":5375:5436  uint[8] public minPoolForGlbBooster = [0, 1, 1, 1, 1, 1, 1,1] */\n      0x24\n        /* \"contracts/modules/InfinityPool.sol\":102:13066  contract InfinityPool is Storage {... */\n      add\n      sload\n      mload(0x40)\n      swap1\n      dup2\n      mstore\n      return\n    tag_64:\n      jumpi(tag_98, callvalue)\n      jumpi(tag_98, slt(add(not(0x03), calldatasize), 0x40))\n      calldataload(0x04)\n      0xffffffff\n      dup2\n      and\n      dup1\n      swap2\n      sub\n      tag_98\n      jumpi\n      calldataload(0x24)\n      dup2\n      0x00\n      mstore\n        /* \"contracts/modules/InfinityPool.sol\":2220:2225  users */\n      0x0d\n        /* \"contracts/modules/InfinityPool.sol\":102:13066  contract InfinityPool is Storage {... */\n      0x20\n      mstore\n      keccak256(0x00, 0x40)\n        /* \"contracts/modules/InfinityPool.sol\":2245:2300  require(user.account == msg.sender, \"Not your account\") */\n      tag_202\n        /* \"contracts/modules/InfinityPool.sol\":102:13066  contract InfinityPool is Storage {... */\n      0x01\n      dup1\n      0xa0\n      shl\n      sub\n      dup3\n      sload\n      and\n        /* \"contracts/modules/InfinityPool.sol\":2269:2279  msg.sender */\n      caller\n        /* \"contracts/modules/InfinityPool.sol\":2253:2279  user.account == msg.sender */\n      eq\n        /* \"contracts/modules/InfinityPool.sol\":2245:2300  require(user.account == msg.sender, \"Not your account\") */\n      tag_4\n      jump\t// in\n    tag_202:\n        /* \"contracts/modules/InfinityPool.sol\":2319:2333  user.poollevel */\n      0x0b\n      dup2\n      add\n        /* \"contracts/modules/InfinityPool.sol\":102:13066  contract InfinityPool is Storage {... */\n      swap2\n        /* \"contracts/modules/InfinityPool.sol\":2311:2353  require(user.poollevel < 7, \"At max pool\") */\n      tag_203\n        /* \"contracts/modules/InfinityPool.sol\":2336:2337  7 */\n      0x07\n        /* \"contracts/modules/InfinityPool.sol\":102:13066  contract InfinityPool is Storage {... */\n      dup5\n      sload\n        /* \"contracts/modules/InfinityPool.sol\":2319:2337  user.poollevel < 7 */\n      lt\n        /* \"contracts/modules/InfinityPool.sol\":2311:2353  require(user.poollevel < 7, \"At max pool\") */\n      tag_15\n      jump\t// in\n    tag_203:\n        /* \"contracts/modules/InfinityPool.sol\":102:13066  contract InfinityPool is Storage {... */\n      0x01\n      dup2\n      add\n      swap3\n      dup4\n      dup3\n      gt\n      tag_177\n      jumpi\n        /* \"contracts/modules/InfinityPool.sol\":2468:2480  poolPackages */\n      0x13\n        /* \"contracts/modules/InfinityPool.sol\":102:13066  contract InfinityPool is Storage {... */\n      sload\n        /* \"contracts/modules/InfinityPool.sol\":2454:2487  _poolId + 1 < poolPackages.length */\n      dup5\n      lt\n        /* \"contracts/modules/InfinityPool.sol\":102:13066  contract InfinityPool is Storage {... */\n      iszero\n      tag_206\n      jumpi\n        /* \"contracts/modules/InfinityPool.sol\":2532:2557  poolPackages[_poolId + 1] */\n      tag_208\n      dup5\n      tag_2\n      jump\t// in\n    tag_208:\n        /* \"contracts/modules/InfinityPool.sol\":102:13066  contract InfinityPool is Storage {... */\n      swap1\n      sload\n      swap1\n      0x03\n      shl\n      shr\n      dup3\n      0x00\n      mstore\n        /* \"contracts/modules/InfinityPool.sol\":2804:2817  userPooltopup */\n      0x2c\n        /* \"contracts/modules/InfinityPool.sol\":102:13066  contract InfinityPool is Storage {... */\n      0x20\n      mstore\n      keccak256(0x00, 0x40)\n      dup7\n      0x00\n      mstore\n      0x20\n      mstore\n      keccak256(0x00, 0x40)\n      dup1\n      sload\n        /* \"contracts/modules/InfinityPool.sol\":2854:2885  top.nextPoolAmt >= packagePrice */\n      dup3\n      dup2\n      lt\n        /* \"contracts/modules/InfinityPool.sol\":102:13066  contract InfinityPool is Storage {... */\n      tag_209\n      jumpi\n      dup8\n      0x00\n      mstore\n        /* \"contracts/modules/InfinityPool.sol\":2938:2949  userHasPool */\n      0x31\n        /* \"contracts/modules/InfinityPool.sol\":102:13066  contract InfinityPool is Storage {... */\n      0x20\n      mstore\n      keccak256(0x00, 0x40)\n      dup8\n      0x00\n      mstore\n      0x20\n      mstore\n      jumpi(tag_211, and(sload(keccak256(0x00, 0x40)), 0xff))\n        /* \"contracts/modules/InfinityPool.sol\":3040:3071  top.nextPoolAmt -= packagePrice */\n      dup3\n      tag_213\n      swap2\n      tag_16\n      jump\t// in\n    tag_213:\n        /* \"contracts/modules/InfinityPool.sol\":102:13066  contract InfinityPool is Storage {... */\n      swap1\n      sstore\n      dup2\n      sload\n      swap2\n      0x01\n      dup4\n      add\n      dup1\n      swap4\n      gt\n      tag_177\n      jumpi\n      0x02\n      swap5\n        /* \"contracts/modules/InfinityPool.sol\":3362:3554  user.deposits.push(Deposit({... */\n      tag_216\n        /* \"contracts/modules/InfinityPool.sol\":102:13066  contract InfinityPool is Storage {... */\n      swap4\n      0x01\n      swap3\n      sstore\n        /* \"contracts/modules/InfinityPool.sol\":3149:3165  user.poolDeposit */\n      0x0c\n      dup2\n      add\n        /* \"contracts/modules/InfinityPool.sol\":3149:3181  user.poolDeposit += packagePrice */\n      tag_217\n        /* \"contracts/modules/InfinityPool.sol\":102:13066  contract InfinityPool is Storage {... */\n      dup5\n      dup3\n      sload\n        /* \"contracts/modules/InfinityPool.sol\":3149:3181  user.poolDeposit += packagePrice */\n      tag_12\n      jump\t// in\n    tag_217:\n        /* \"contracts/modules/InfinityPool.sol\":102:13066  contract InfinityPool is Storage {... */\n      swap1\n      sstore\n      dup8\n      0x00\n      mstore\n        /* \"contracts/modules/InfinityPool.sol\":2938:2949  userHasPool */\n      0x31\n        /* \"contracts/modules/InfinityPool.sol\":102:13066  contract InfinityPool is Storage {... */\n      0x20\n      mstore\n      keccak256(0x00, 0x40)\n      dup8\n      0x00\n      mstore\n      0x20\n      mstore\n      keccak256(0x00, 0x40)\n      dup3\n      not(0xff)\n      dup3\n      sload\n      and\n      or\n      swap1\n      sstore\n        /* \"contracts/modules/InfinityPool.sol\":3275:3322  _placeInPool(targetPool, _userId, packagePrice) */\n      tag_175\n      dup4\n      dup10\n      dup10\n      tag_21\n      jump\t// in\n        /* \"contracts/modules/InfinityPool.sol\":3362:3554  user.deposits.push(Deposit({... */\n    tag_216:\n        /* \"contracts/modules/InfinityPool.sol\":102:13066  contract InfinityPool is Storage {... */\n      add\n      dup1\n      swap2\n      gt\n      tag_177\n      jumpi\n      mload(0x40)\n      swap1\n      dup2\n      mstore\n      0x40\n      0x20\n      dup3\n      add\n      mstore\n      0x16\n      0x40\n      dup3\n      add\n      mstore\n      shl(0x50, 0x506f6f6c205570677261646520284561726e696e6729)\n        /* \"contracts/modules/InfinityPool.sol\":3381:3553  Deposit({... */\n      0x60\n        /* \"contracts/modules/InfinityPool.sol\":102:13066  contract InfinityPool is Storage {... */\n      dup3\n      add\n      mstore\n      mload(0x00)\n      codecopy(0x00, data_92fb4c3df386bc0d49f8847c66cda554c07c2df42e065e03d639278ecf8d94a7, 0x20)\n      mload(0x00)\n      swap1\n      0x00\n      mstore\n      0x80\n        /* \"contracts/modules/InfinityPool.sol\":2269:2279  msg.sender */\n      caller\n        /* \"contracts/modules/InfinityPool.sol\":3572:3642  Upgrade(msg.sender, _userId, targetPool + 1, \"Pool Upgrade (Earning)\") */\n      swap3\n      log3\n        /* \"contracts/modules/InfinityPool.sol\":102:13066  contract InfinityPool is Storage {... */\n      stop\n    tag_211:\n      mload(0x40)\n      shl(0xe5, 0x461bcd)\n      dup2\n      mstore\n      0x20\n      0x04\n      dup3\n      add\n      mstore\n      0x1b\n      0x24\n      dup3\n      add\n      mstore\n      0x416c726561647920707572636861736564206e65787420706f6f6c0000000000\n      0x44\n      dup3\n      add\n      mstore\n      0x64\n      swap1\n      revert\n    tag_209:\n      mload(0x40)\n      shl(0xe5, 0x461bcd)\n      dup2\n      mstore\n      0x20\n      0x04\n      dup3\n      add\n      mstore\n      0x1c\n      0x24\n      dup3\n      add\n      mstore\n      0x4e6f7420656e6f756768206e65787420706f6f6c2062616c616e636500000000\n      0x44\n      dup3\n      add\n      mstore\n      0x64\n      swap1\n      revert\n    tag_206:\n      mload(0x40)\n      shl(0xe5, 0x461bcd)\n      dup2\n      mstore\n      0x20\n      0x04\n      dup3\n      add\n      mstore\n      0x0e\n      0x24\n      dup3\n      add\n      mstore\n      shl(0x92, 0x139bc81a1a59da195c881c1bdbdb)\n      0x44\n      dup3\n      add\n      mstore\n      0x64\n      swap1\n      revert\n    tag_62:\n      jumpi(tag_98, callvalue)\n      jumpi(tag_98, slt(add(not(0x03), calldatasize), 0x00))\n        /* \"contracts/modules/Storage.sol\":422:450  address public creatorWallet */\n      0x02\n        /* \"contracts/modules/InfinityPool.sol\":102:13066  contract InfinityPool is Storage {... */\n      sload\n      mload(0x40)\n      sub(shl(0xa0, 0x01), 0x01)\n      swap1\n      swap2\n      and\n      dup2\n      mstore\n      0x20\n      swap1\n      return\n    tag_60:\n      jumpi(tag_98, callvalue)\n      jumpi(tag_98, slt(add(not(0x03), calldatasize), 0x00))\n      0x20\n        /* \"contracts/modules/Storage.sol\":1131:1165  uint256 public communityAccPerUser */\n      0x09\n        /* \"contracts/modules/InfinityPool.sol\":102:13066  contract InfinityPool is Storage {... */\n      sload\n      mload(0x40)\n      swap1\n      dup2\n      mstore\n      return\n    tag_58:\n      jumpi(tag_98, callvalue)\n      jumpi(tag_98, slt(add(not(0x03), calldatasize), 0x40))\n      calldataload(0x04)\n      calldataload(0x24)\n      dup2\n      0x00\n      mstore\n        /* \"contracts/modules/InfinityPool.sol\":987:992  users */\n      0x0d\n        /* \"contracts/modules/InfinityPool.sol\":102:13066  contract InfinityPool is Storage {... */\n      0x20\n      mstore\n      keccak256(0x00, 0x40)\n        /* \"contracts/modules/InfinityPool.sol\":1012:1067  require(user.account == msg.sender, \"Not your account\") */\n      tag_234\n        /* \"contracts/modules/InfinityPool.sol\":102:13066  contract InfinityPool is Storage {... */\n      0x01\n      dup1\n      0xa0\n      shl\n      sub\n      dup3\n      sload\n      and\n        /* \"contracts/modules/InfinityPool.sol\":1036:1046  msg.sender */\n      caller\n        /* \"contracts/modules/InfinityPool.sol\":1020:1046  user.account == msg.sender */\n      eq\n        /* \"contracts/modules/InfinityPool.sol\":1012:1067  require(user.account == msg.sender, \"Not your account\") */\n      tag_4\n      jump\t// in\n    tag_234:\n        /* \"contracts/modules/InfinityPool.sol\":1078:1120  require(user.poollevel < 7, \"At max pool\") */\n      tag_235\n        /* \"contracts/modules/InfinityPool.sol\":1103:1104  7 */\n      0x07\n        /* \"contracts/modules/InfinityPool.sol\":1086:1100  user.poollevel */\n      0x0b\n      dup4\n      add\n        /* \"contracts/modules/InfinityPool.sol\":102:13066  contract InfinityPool is Storage {... */\n      sload\n        /* \"contracts/modules/InfinityPool.sol\":1086:1104  user.poollevel < 7 */\n      lt\n        /* \"contracts/modules/InfinityPool.sol\":1078:1120  require(user.poollevel < 7, \"At max pool\") */\n      tag_15\n      jump\t// in\n    tag_235:\n        /* \"contracts/modules/InfinityPool.sol\":1265:1286  poolPackages[_poolId] */\n      tag_236\n      dup3\n      tag_2\n      jump\t// in\n    tag_236:\n        /* \"contracts/modules/InfinityPool.sol\":102:13066  contract InfinityPool is Storage {... */\n      swap1\n      sload\n      swap1\n      0x03\n      shl\n      shr\n      dup3\n      0x00\n      mstore\n        /* \"contracts/modules/InfinityPool.sol\":1331:1344  userPooltopup */\n      0x2c\n        /* \"contracts/modules/InfinityPool.sol\":102:13066  contract InfinityPool is Storage {... */\n      0x20\n      mstore\n      keccak256(0x00, 0x40)\n      dup5\n      0x00\n      mstore\n      0x20\n      mstore\n      0x01\n      keccak256(0x00, 0x40)\n        /* \"contracts/modules/InfinityPool.sol\":1381:1395  top.reTopupAmt */\n      add\n        /* \"contracts/modules/InfinityPool.sol\":102:13066  contract InfinityPool is Storage {... */\n      swap2\n      dup3\n      sload\n        /* \"contracts/modules/InfinityPool.sol\":1381:1411  top.reTopupAmt >= packagePrice */\n      swap1\n      dup3\n      dup3\n      lt\n        /* \"contracts/modules/InfinityPool.sol\":102:13066  contract InfinityPool is Storage {... */\n      tag_237\n      jumpi\n        /* \"contracts/modules/InfinityPool.sol\":1711:1903  user.deposits.push(Deposit({... */\n      tag_239\n        /* \"contracts/modules/InfinityPool.sol\":1482:1512  top.reTopupAmt -= packagePrice */\n      swap4\n      tag_240\n      dup5\n        /* \"contracts/modules/InfinityPool.sol\":102:13066  contract InfinityPool is Storage {... */\n      0x01\n        /* \"contracts/modules/InfinityPool.sol\":1482:1512  top.reTopupAmt -= packagePrice */\n      swap5\n      tag_16\n      jump\t// in\n    tag_240:\n        /* \"contracts/modules/InfinityPool.sol\":102:13066  contract InfinityPool is Storage {... */\n      swap1\n      sstore\n        /* \"contracts/modules/InfinityPool.sol\":1552:1568  user.poolDeposit */\n      0x0c\n      dup2\n      add\n        /* \"contracts/modules/InfinityPool.sol\":1552:1584  user.poolDeposit += packagePrice */\n      tag_241\n        /* \"contracts/modules/InfinityPool.sol\":102:13066  contract InfinityPool is Storage {... */\n      dup5\n      dup3\n      sload\n        /* \"contracts/modules/InfinityPool.sol\":1552:1584  user.poolDeposit += packagePrice */\n      tag_12\n      jump\t// in\n    tag_241:\n        /* \"contracts/modules/InfinityPool.sol\":102:13066  contract InfinityPool is Storage {... */\n      swap1\n      sstore\n        /* \"contracts/modules/InfinityPool.sol\":1669:1681  packagePrice */\n      tag_242\n      dup4\n      dup8\n      dup8\n      tag_21\n      jump\t// in\n    tag_242:\n        /* \"contracts/modules/InfinityPool.sol\":102:13066  contract InfinityPool is Storage {... */\n      mload(0x40)\n      swap3\n      tag_243\n      dup5\n      tag_7\n      jump\t// in\n    tag_243:\n      dup4\n      mstore\n      0x00\n      0x20\n        /* \"contracts/modules/InfinityPool.sol\":1730:1902  Deposit({... */\n      dup5\n      add\n        /* \"contracts/modules/InfinityPool.sol\":102:13066  contract InfinityPool is Storage {... */\n      mstore\n        /* \"contracts/modules/InfinityPool.sol\":1822:1837  block.timestamp */\n      timestamp\n        /* \"contracts/modules/InfinityPool.sol\":102:13066  contract InfinityPool is Storage {... */\n      0x40\n        /* \"contracts/modules/InfinityPool.sol\":1730:1902  Deposit({... */\n      dup5\n      add\n        /* \"contracts/modules/InfinityPool.sol\":102:13066  contract InfinityPool is Storage {... */\n      mstore\n        /* \"contracts/modules/InfinityPool.sol\":1865:1867  10 */\n      0x0a\n        /* \"contracts/modules/InfinityPool.sol\":1730:1902  Deposit({... */\n      0x60\n      dup5\n      add\n        /* \"contracts/modules/InfinityPool.sol\":102:13066  contract InfinityPool is Storage {... */\n      mstore\n        /* \"contracts/modules/InfinityPool.sol\":1711:1724  user.deposits */\n      add\n        /* \"contracts/modules/InfinityPool.sol\":1711:1903  user.deposits.push(Deposit({... */\n      tag_13\n      jump\t// in\n    tag_239:\n        /* \"contracts/modules/InfinityPool.sol\":102:13066  contract InfinityPool is Storage {... */\n      mload(0x40)\n      swap1\n      dup2\n      mstore\n      0x40\n      0x20\n      dup3\n      add\n      mstore\n      0x16\n      0x40\n      dup3\n      add\n      mstore\n      shl(0x50, 0x506f6f6c205265546f70757020284561726e696e6729)\n        /* \"contracts/modules/InfinityPool.sol\":1730:1902  Deposit({... */\n      0x60\n        /* \"contracts/modules/InfinityPool.sol\":102:13066  contract InfinityPool is Storage {... */\n      dup3\n      add\n      mstore\n      mload(0x00)\n      codecopy(0x00, data_92fb4c3df386bc0d49f8847c66cda554c07c2df42e065e03d639278ecf8d94a7, 0x20)\n      mload(0x00)\n      swap1\n      0x00\n      mstore\n      0x80\n        /* \"contracts/modules/InfinityPool.sol\":1036:1046  msg.sender */\n      caller\n        /* \"contracts/modules/InfinityPool.sol\":1921:1984  Upgrade(msg.sender, _userId, _poolId, \"Pool ReTopup (Earning)\") */\n      swap3\n      log3\n        /* \"contracts/modules/InfinityPool.sol\":102:13066  contract InfinityPool is Storage {... */\n      stop\n    tag_237:\n      mload(0x40)\n      shl(0xe5, 0x461bcd)\n      dup2\n      mstore\n      0x20\n      0x04\n      dup3\n      add\n      mstore\n      0x1a\n      0x24\n      dup3\n      add\n      mstore\n      0x4e6f7420656e6f756768207265546f7075702062616c616e6365000000000000\n      0x44\n      dup3\n      add\n      mstore\n      0x64\n      swap1\n      revert\n    tag_56:\n      jumpi(tag_98, callvalue)\n      jumpi(tag_98, slt(add(not(0x03), calldatasize), 0x00))\n      0x20\n      mload(0x40)\n        /* \"contracts/modules/Storage.sol\":6894:6900  7 days */\n      0x093a80\n        /* \"contracts/modules/InfinityPool.sol\":102:13066  contract InfinityPool is Storage {... */\n      dup2\n      mstore\n      return\n    tag_54:\n      jumpi(tag_98, callvalue)\n      jumpi(tag_98, slt(add(not(0x03), calldatasize), 0x20))\n      0x60\n      tag_252\n      calldataload(0x04)\n      tag_14\n      jump\t// in\n    tag_252:\n      swap2\n      swap1\n      0x20\n      mload(0x40)\n      swap4\n      dup5\n      swap3\n      iszero\n      iszero\n      dup4\n      mstore\n      0x40\n      dup3\n      dup5\n      add\n      mstore\n      dup1\n      mload\n      swap2\n      dup3\n      swap2\n      dup3\n      0x40\n      dup7\n      add\n      mstore\n      add\n      dup5\n      dup5\n      add\n      mcopy\n      0x00\n      dup3\n      dup3\n      add\n      dup5\n      add\n      mstore\n      0x1f\n      add\n      not(0x1f)\n      and\n      dup2\n      add\n      sub\n      add\n      swap1\n      return\n    tag_52:\n      jumpi(tag_98, callvalue)\n      jumpi(tag_98, slt(add(not(0x03), calldatasize), 0x00))\n      0x20\n      mload(0x40)\n        /* \"contracts/modules/Storage.sol\":848:850  10 */\n      0x0a\n        /* \"contracts/modules/InfinityPool.sol\":102:13066  contract InfinityPool is Storage {... */\n      dup2\n      mstore\n      return\n    tag_50:\n      jumpi(tag_98, callvalue)\n      jumpi(tag_98, slt(add(not(0x03), calldatasize), 0x20))\n      calldataload(0x04)\n      dup1\n      0x00\n      mstore\n        /* \"contracts/modules/InfinityPool.sol\":3739:3744  users */\n      0x0d\n        /* \"contracts/modules/InfinityPool.sol\":102:13066  contract InfinityPool is Storage {... */\n      0x20\n      mstore\n      keccak256(0x00, 0x40)\n        /* \"contracts/modules/InfinityPool.sol\":3764:3819  require(user.account == msg.sender, \"Not your account\") */\n      tag_261\n        /* \"contracts/modules/InfinityPool.sol\":102:13066  contract InfinityPool is Storage {... */\n      0x01\n      dup1\n      0xa0\n      shl\n      sub\n      dup3\n      sload\n      and\n        /* \"contracts/modules/InfinityPool.sol\":3788:3798  msg.sender */\n      caller\n        /* \"contracts/modules/InfinityPool.sol\":3772:3798  user.account == msg.sender */\n      eq\n        /* \"contracts/modules/InfinityPool.sol\":3764:3819  require(user.account == msg.sender, \"Not your account\") */\n      tag_4\n      jump\t// in\n    tag_261:\n        /* \"contracts/modules/InfinityPool.sol\":3838:3852  user.poollevel */\n      0x0b\n      dup2\n      add\n        /* \"contracts/modules/InfinityPool.sol\":102:13066  contract InfinityPool is Storage {... */\n      swap1\n      dup2\n      sload\n        /* \"contracts/modules/InfinityPool.sol\":3838:3856  user.poollevel < 7 */\n      swap2\n        /* \"contracts/modules/InfinityPool.sol\":3855:3856  7 */\n      0x07\n        /* \"contracts/modules/InfinityPool.sol\":3838:3856  user.poollevel < 7 */\n      dup4\n      lt\n        /* \"contracts/modules/InfinityPool.sol\":3830:3873  require(user.poollevel < 7, \"At max level\") */\n      tag_262\n      dup2\n      tag_5\n      jump\t// in\n    tag_262:\n        /* \"contracts/modules/InfinityPool.sol\":102:13066  contract InfinityPool is Storage {... */\n      iszero\n      tag_144\n      jumpi\n      dup3\n        /* \"contracts/modules/InfinityPool.sol\":4036:4051  minLevelForPool */\n      0x15\n        /* \"contracts/modules/InfinityPool.sol\":102:13066  contract InfinityPool is Storage {... */\n      add\n      sload\n        /* \"contracts/modules/InfinityPool.sol\":4177:4187  user.level */\n      0x06\n      dup4\n      add\n        /* \"contracts/modules/InfinityPool.sol\":102:13066  contract InfinityPool is Storage {... */\n      sload\n        /* \"contracts/modules/InfinityPool.sol\":4177:4204  user.level >= requiredLevel */\n      lt\n        /* \"contracts/modules/InfinityPool.sol\":102:13066  contract InfinityPool is Storage {... */\n      tag_265\n      jumpi\n        /* \"contracts/modules/InfinityPool.sol\":4313:4325  nextPool > 0 */\n      dup3\n      iszero\n      swap1\n      dup2\n      iszero\n        /* \"contracts/modules/InfinityPool.sol\":4309:4416  if (nextPool > 0) {... */\n      tag_267\n      jumpi\n        /* \"contracts/modules/InfinityPool.sol\":102:13066  contract InfinityPool is Storage {... */\n    tag_268:\n      dup5\n      0x00\n      mstore\n        /* \"contracts/modules/InfinityPool.sol\":4435:4446  userHasPool */\n      0x31\n        /* \"contracts/modules/InfinityPool.sol\":102:13066  contract InfinityPool is Storage {... */\n      0x20\n      mstore\n      keccak256(0x00, 0x40)\n      dup5\n      0x00\n      mstore\n      0x20\n      mstore\n        /* \"contracts/modules/InfinityPool.sol\":4426:4492  require(!userHasPool[_userId][nextPool], \"Pool already purchased\") */\n      tag_269\n        /* \"contracts/modules/InfinityPool.sol\":102:13066  contract InfinityPool is Storage {... */\n      and(sload(keccak256(0x00, 0x40)), 0xff)\n        /* \"contracts/modules/InfinityPool.sol\":4434:4465  !userHasPool[_userId][nextPool] */\n      iszero\n        /* \"contracts/modules/InfinityPool.sol\":4426:4492  require(!userHasPool[_userId][nextPool], \"Pool already purchased\") */\n      tag_6\n      jump\t// in\n    tag_269:\n        /* \"contracts/modules/InfinityPool.sol\":4537:4559  poolPackages[nextPool] */\n      tag_270\n      dup5\n      tag_2\n      jump\t// in\n    tag_270:\n        /* \"contracts/modules/InfinityPool.sol\":102:13066  contract InfinityPool is Storage {... */\n      swap1\n      sload\n      sload(0x01)\n      mload(0x40)\n      shl(0xe0, 0x23b872dd)\n        /* \"contracts/modules/InfinityPool.sol\":4627:4685  usdt.transferFrom(msg.sender, address(this), packagePrice) */\n      dup2\n      mstore\n        /* \"contracts/modules/InfinityPool.sol\":3788:3798  msg.sender */\n      caller\n        /* \"contracts/modules/InfinityPool.sol\":102:13066  contract InfinityPool is Storage {... */\n      0x04\n        /* \"contracts/modules/InfinityPool.sol\":4627:4685  usdt.transferFrom(msg.sender, address(this), packagePrice) */\n      dup3\n      add\n        /* \"contracts/modules/InfinityPool.sol\":102:13066  contract InfinityPool is Storage {... */\n      mstore\n        /* \"contracts/modules/InfinityPool.sol\":4665:4669  this */\n      address\n        /* \"contracts/modules/InfinityPool.sol\":102:13066  contract InfinityPool is Storage {... */\n      0x24\n      dup3\n      add\n      mstore\n      0x03\n      swap4\n      swap1\n      swap4\n      shl\n      swap2\n      swap1\n      swap2\n      shr\n      0x44\n      dup4\n      add\n      dup2\n      swap1\n      mstore\n      swap4\n      swap2\n      swap1\n      0x20\n      swap1\n      dup3\n      swap1\n      0x64\n      swap1\n      dup3\n      swap1\n      0x00\n      swap1\n      sub(shl(0xa0, 0x01), 0x01)\n      and\n        /* \"contracts/modules/InfinityPool.sol\":4627:4685  usdt.transferFrom(msg.sender, address(this), packagePrice) */\n      gas\n      call\n      dup1\n      iszero\n      tag_167\n      jumpi\n      tag_274\n      jumpi\n        /* \"contracts/modules/InfinityPool.sol\":102:13066  contract InfinityPool is Storage {... */\n    tag_275:\n        /* \"contracts/modules/InfinityPool.sol\":4706:4940  if(nextPool == 0){... */\n      pop\n      tag_276\n      jumpi\n        /* \"contracts/modules/InfinityPool.sol\":102:13066  contract InfinityPool is Storage {... */\n    tag_277:\n      dup1\n      sload\n      swap3\n      0x01\n      dup5\n      add\n      dup1\n      swap5\n      gt\n      tag_177\n      jumpi\n        /* \"contracts/modules/InfinityPool.sol\":5160:5328  user.deposits.push(Deposit({... */\n      tag_280\n        /* \"contracts/modules/InfinityPool.sol\":102:13066  contract InfinityPool is Storage {... */\n      swap4\n      0x01\n      swap3\n      sstore\n      dup6\n      0x00\n      mstore\n        /* \"contracts/modules/InfinityPool.sol\":4435:4446  userHasPool */\n      0x31\n        /* \"contracts/modules/InfinityPool.sol\":102:13066  contract InfinityPool is Storage {... */\n      0x20\n      mstore\n      keccak256(0x00, 0x40)\n      dup6\n      0x00\n      mstore\n      0x20\n      mstore\n      keccak256(0x00, 0x40)\n      dup3\n      not(0xff)\n      dup3\n      sload\n      and\n      or\n      swap1\n      sstore\n        /* \"contracts/modules/InfinityPool.sol\":5028:5044  user.poolDeposit */\n      0x0c\n      dup2\n      add\n        /* \"contracts/modules/InfinityPool.sol\":5028:5060  user.poolDeposit += packagePrice */\n      tag_241\n        /* \"contracts/modules/InfinityPool.sol\":102:13066  contract InfinityPool is Storage {... */\n      dup5\n      dup3\n      sload\n        /* \"contracts/modules/InfinityPool.sol\":5028:5060  user.poolDeposit += packagePrice */\n      tag_12\n      jump\t// in\n        /* \"contracts/modules/InfinityPool.sol\":5160:5328  user.deposits.push(Deposit({... */\n    tag_280:\n        /* \"contracts/modules/InfinityPool.sol\":102:13066  contract InfinityPool is Storage {... */\n      0x01\n      dup2\n      add\n      dup1\n      swap2\n      gt\n      tag_177\n      jumpi\n      mload(0x40)\n      swap1\n      dup2\n      mstore\n      0x40\n      0x20\n      dup3\n      add\n      mstore\n      0x04\n      0x40\n      dup3\n      add\n      mstore\n      shl(0xe2, 0x141bdbdb)\n        /* \"contracts/modules/InfinityPool.sol\":5179:5327  Deposit({... */\n      0x60\n        /* \"contracts/modules/InfinityPool.sol\":102:13066  contract InfinityPool is Storage {... */\n      dup3\n      add\n      mstore\n      mload(0x00)\n      codecopy(0x00, data_92fb4c3df386bc0d49f8847c66cda554c07c2df42e065e03d639278ecf8d94a7, 0x20)\n      mload(0x00)\n      swap1\n      0x00\n      mstore\n      0x80\n        /* \"contracts/modules/InfinityPool.sol\":3788:3798  msg.sender */\n      caller\n        /* \"contracts/modules/InfinityPool.sol\":5346:5396  Upgrade(msg.sender, _userId, nextPool + 1, \"Pool\") */\n      swap3\n      log3\n        /* \"contracts/modules/InfinityPool.sol\":102:13066  contract InfinityPool is Storage {... */\n      stop\n        /* \"contracts/modules/InfinityPool.sol\":4706:4940  if(nextPool == 0){... */\n    tag_276:\n        /* \"contracts/modules/InfinityPool.sol\":102:13066  contract InfinityPool is Storage {... */\n      0x04\n        /* \"contracts/modules/InfinityPool.sol\":4756:4770  user.sponsorId */\n      dup4\n      add\n        /* \"contracts/modules/InfinityPool.sol\":102:13066  contract InfinityPool is Storage {... */\n      sload\n      dup1\n      0x00\n      mstore\n        /* \"contracts/modules/InfinityPool.sol\":3739:3744  users */\n      0x0d\n        /* \"contracts/modules/InfinityPool.sol\":102:13066  contract InfinityPool is Storage {... */\n      0x20\n      mstore\n        /* \"contracts/modules/InfinityPool.sol\":4788:4822  users[_sponsorId].registrationTime */\n      0x0f\n        /* \"contracts/modules/InfinityPool.sol\":102:13066  contract InfinityPool is Storage {... */\n      keccak256(0x00, 0x40)\n        /* \"contracts/modules/InfinityPool.sol\":4788:4822  users[_sponsorId].registrationTime */\n      add\n        /* \"contracts/modules/InfinityPool.sol\":102:13066  contract InfinityPool is Storage {... */\n      sload\n        /* \"contracts/modules/InfinityPool.sol\":4825:4831  172800 */\n      0x02a300\n        /* \"contracts/modules/InfinityPool.sol\":102:13066  contract InfinityPool is Storage {... */\n      dup2\n      add\n      dup1\n      swap2\n      gt\n      tag_177\n      jumpi\n        /* \"contracts/modules/InfinityPool.sol\":4835:4850  block.timestamp */\n      timestamp\n      lt\n        /* \"contracts/modules/InfinityPool.sol\":4788:4850  users[_sponsorId].registrationTime + 172800 <= block.timestamp */\n      iszero\n        /* \"contracts/modules/InfinityPool.sol\":4785:4929  if(users[_sponsorId].registrationTime + 172800 <= block.timestamp){... */\n      tag_288\n      jumpi\n        /* \"contracts/modules/InfinityPool.sol\":4706:4940  if(nextPool == 0){... */\n    tag_289:\n      pop\n      jump(tag_277)\n        /* \"contracts/modules/InfinityPool.sol\":4785:4929  if(users[_sponsorId].registrationTime + 172800 <= block.timestamp){... */\n    tag_288:\n        /* \"contracts/modules/InfinityPool.sol\":102:13066  contract InfinityPool is Storage {... */\n      0x00\n      mstore\n        /* \"contracts/modules/InfinityPool.sol\":3739:3744  users */\n      0x0d\n        /* \"contracts/modules/InfinityPool.sol\":102:13066  contract InfinityPool is Storage {... */\n      0x20\n      mstore\n        /* \"contracts/modules/InfinityPool.sol\":4871:4908  users[_sponsorId].directPoolQualified */\n      0x08\n        /* \"contracts/modules/InfinityPool.sol\":102:13066  contract InfinityPool is Storage {... */\n      keccak256(0x00, 0x40)\n        /* \"contracts/modules/InfinityPool.sol\":4871:4908  users[_sponsorId].directPoolQualified */\n      add\n        /* \"contracts/modules/InfinityPool.sol\":102:13066  contract InfinityPool is Storage {... */\n      dup1\n      sload\n      swap1\n      0x01\n      dup3\n      add\n      dup1\n      swap3\n      gt\n      tag_177\n      jumpi\n      sstore\n        /* \"contracts/modules/InfinityPool.sol\":4785:4929  if(users[_sponsorId].registrationTime + 172800 <= block.timestamp){... */\n      dup6\n      jump(tag_289)\n        /* \"contracts/modules/InfinityPool.sol\":4627:4685  usdt.transferFrom(msg.sender, address(this), packagePrice) */\n    tag_274:\n      tag_292\n      swap1\n        /* \"contracts/modules/InfinityPool.sol\":102:13066  contract InfinityPool is Storage {... */\n      0x20\n        /* \"contracts/modules/InfinityPool.sol\":4627:4685  usdt.transferFrom(msg.sender, address(this), packagePrice) */\n      returndatasize\n        /* \"contracts/modules/InfinityPool.sol\":102:13066  contract InfinityPool is Storage {... */\n      0x20\n        /* \"contracts/modules/InfinityPool.sol\":4627:4685  usdt.transferFrom(msg.sender, address(this), packagePrice) */\n      gt\n      tag_180\n      jumpi\n      tag_182\n      dup2\n      dup4\n      tag_9\n      jump\t// in\n    tag_292:\n      jump(tag_275)\n        /* \"contracts/modules/InfinityPool.sol\":4309:4416  if (nextPool > 0) {... */\n    tag_267:\n      jump(tag_268)\n        /* \"contracts/modules/InfinityPool.sol\":102:13066  contract InfinityPool is Storage {... */\n    tag_265:\n      mload(0x40)\n      shl(0xe5, 0x461bcd)\n      dup2\n      mstore\n      0x20\n      0x04\n      dup3\n      add\n      mstore\n      0x18\n      0x24\n      dup3\n      add\n      mstore\n      0x5570677261646520796f7572206c6576656c2066697273740000000000000000\n      0x44\n      dup3\n      add\n      mstore\n      0x64\n      swap1\n      revert\n    tag_48:\n      jumpi(tag_98, callvalue)\n      jumpi(tag_98, slt(add(not(0x03), calldatasize), 0x20))\n      calldataload(0x04)\n        /* \"contracts/modules/Storage.sol\":864:895  uint[] public registeredUserIds */\n      0x07\n        /* \"contracts/modules/InfinityPool.sol\":102:13066  contract InfinityPool is Storage {... */\n      sload\n        /* \"contracts/modules/Storage.sol\":864:895  uint[] public registeredUserIds */\n      dup2\n      lt\n      iszero\n      tag_98\n      jumpi\n      0x07\n        /* \"contracts/modules/InfinityPool.sol\":102:13066  contract InfinityPool is Storage {... */\n      sload\n      dup2\n      lt\n      iszero\n      tag_144\n      jumpi\n        /* \"contracts/modules/Storage.sol\":864:895  uint[] public registeredUserIds */\n      0x07\n        /* \"contracts/modules/InfinityPool.sol\":102:13066  contract InfinityPool is Storage {... */\n      0x00\n      mstore\n      0xa66cc928b5edb82af9bd49922954155ab7b0942694bea4ce44661d9a8736c688\n      add\n      sload\n      mload(0x40)\n      swap1\n      dup2\n      mstore\n      0x20\n      swap1\n      return\n    tag_46:\n      jumpi(tag_98, callvalue)\n      jumpi(tag_98, slt(add(not(0x03), calldatasize), 0x00))\n      0x20\n      mload(0x40)\n        /* \"contracts/modules/Storage.sol\":789:791  15 */\n      0x0f\n        /* \"contracts/modules/InfinityPool.sol\":102:13066  contract InfinityPool is Storage {... */\n      dup2\n      mstore\n      return\n    tag_44:\n      jumpi(tag_98, callvalue)\n      jumpi(tag_98, slt(add(not(0x03), calldatasize), 0x00))\n      0x20\n      mload(0x40)\n        /* \"contracts/modules/Storage.sol\":1120:1124  1e18 */\n      0x0de0b6b3a7640000\n        /* \"contracts/modules/InfinityPool.sol\":102:13066  contract InfinityPool is Storage {... */\n      dup2\n      mstore\n      return\n    tag_42:\n      jumpi(tag_98, callvalue)\n      jumpi(tag_98, slt(add(not(0x03), calldatasize), 0x00))\n      0x20\n      mload(0x40)\n        /* \"contracts/modules/Storage.sol\":731:737  1 days */\n      0x015180\n        /* \"contracts/modules/InfinityPool.sol\":102:13066  contract InfinityPool is Storage {... */\n      dup2\n      mstore\n      return\n    tag_40:\n      jumpi(tag_98, callvalue)\n      jumpi(tag_98, slt(add(not(0x03), calldatasize), 0x00))\n      0x20\n        /* \"contracts/modules/Storage.sol\":7243:7276  uint public WeeklyTotalReward = 0 */\n      0x3a\n        /* \"contracts/modules/InfinityPool.sol\":102:13066  contract InfinityPool is Storage {... */\n      sload\n      mload(0x40)\n      swap1\n      dup2\n      mstore\n      return\n    tag_38:\n      jumpi(tag_98, callvalue)\n      jumpi(tag_98, slt(add(not(0x03), calldatasize), 0x00))\n      sload(0x01)\n      mload(0x40)\n      sub(shl(0xa0, 0x01), 0x01)\n      swap1\n      swap2\n      and\n      dup2\n      mstore\n      0x20\n      swap1\n      return\n    tag_36:\n      jumpi(tag_98, callvalue)\n      jumpi(tag_98, slt(add(not(0x03), calldatasize), 0x00))\n      0x20\n      mload(0x40)\n        /* \"contracts/modules/Storage.sol\":6945:6952  30 days */\n      0x278d00\n        /* \"contracts/modules/InfinityPool.sol\":102:13066  contract InfinityPool is Storage {... */\n      dup2\n      mstore\n      return\n    tag_34:\n      jumpi(tag_98, callvalue)\n      jumpi(tag_98, slt(add(not(0x03), calldatasize), 0x20))\n      calldataload(0x04)\n        /* \"contracts/modules/Storage.sol\":5128:5233  uint[] public glbBoosterPackages = [ 100e18, 200e18, 400e18, 800e18, 1600e18, 3200e18, 6400e18, 12800e18] */\n      0x14\n        /* \"contracts/modules/InfinityPool.sol\":102:13066  contract InfinityPool is Storage {... */\n      sload\n        /* \"contracts/modules/Storage.sol\":5128:5233  uint[] public glbBoosterPackages = [ 100e18, 200e18, 400e18, 800e18, 1600e18, 3200e18, 6400e18, 12800e18] */\n      dup2\n      lt\n      iszero\n      tag_98\n      jumpi\n      tag_189\n        /* \"contracts/modules/InfinityPool.sol\":102:13066  contract InfinityPool is Storage {... */\n      0x20\n        /* \"contracts/modules/Storage.sol\":5128:5233  uint[] public glbBoosterPackages = [ 100e18, 200e18, 400e18, 800e18, 1600e18, 3200e18, 6400e18, 12800e18] */\n      swap2\n      tag_1\n      jump\t// in\n        /* \"contracts/modules/InfinityPool.sol\":102:13066  contract InfinityPool is Storage {... */\n    tag_32:\n      jumpi(tag_98, callvalue)\n      jumpi(tag_98, slt(add(not(0x03), calldatasize), 0x20))\n      calldataload(0x04)\n      0x07\n        /* \"contracts/modules/Storage.sol\":5240:5297  uint[7] public minLevelForPool = [3, 5, 7, 9, 11, 13, 15] */\n      dup2\n      lt\n      iszero\n      tag_98\n      jumpi\n        /* \"contracts/modules/InfinityPool.sol\":102:13066  contract InfinityPool is Storage {... */\n      0x20\n      swap1\n        /* \"contracts/modules/Storage.sol\":5240:5297  uint[7] public minLevelForPool = [3, 5, 7, 9, 11, 13, 15] */\n      0x15\n        /* \"contracts/modules/InfinityPool.sol\":102:13066  contract InfinityPool is Storage {... */\n      add\n      sload\n      mload(0x40)\n      swap1\n      dup2\n      mstore\n      return\n    tag_30:\n      jumpi(tag_98, callvalue)\n      jumpi(tag_98, slt(add(not(0x03), calldatasize), 0x00))\n      dup1\n        /* \"contracts/modules/Storage.sol\":683:688  10000 */\n      0x2710\n        /* \"contracts/modules/InfinityPool.sol\":102:13066  contract InfinityPool is Storage {... */\n      0x20\n      swap3\n      mstore\n      return\n    tag_1:\n        /* \"contracts/modules/Storage.sol\":5128:5233  uint[] public glbBoosterPackages = [ 100e18, 200e18, 400e18, 800e18, 1600e18, 3200e18, 6400e18, 12800e18] */\n      0x14\n        /* \"contracts/modules/InfinityPool.sol\":102:13066  contract InfinityPool is Storage {... */\n      sload\n      dup2\n      lt\n      iszero\n      tag_144\n      jumpi\n        /* \"contracts/modules/Storage.sol\":5128:5233  uint[] public glbBoosterPackages = [ 100e18, 200e18, 400e18, 800e18, 1600e18, 3200e18, 6400e18, 12800e18] */\n      0x14\n      0x00\n        /* \"contracts/modules/InfinityPool.sol\":102:13066  contract InfinityPool is Storage {... */\n      mstore\n      keccak256(0x00, 0x20)\n      add\n      swap1\n      0x00\n      swap1\n      jump\t// out\n    tag_2:\n        /* \"contracts/modules/InfinityPool.sol\":4537:4549  poolPackages */\n      0x13\n        /* \"contracts/modules/InfinityPool.sol\":102:13066  contract InfinityPool is Storage {... */\n      sload\n      dup2\n      lt\n      iszero\n      tag_144\n      jumpi\n        /* \"contracts/modules/InfinityPool.sol\":4537:4549  poolPackages */\n      0x13\n      0x00\n        /* \"contracts/modules/InfinityPool.sol\":102:13066  contract InfinityPool is Storage {... */\n      mstore\n      keccak256(0x00, 0x20)\n      add\n      swap1\n      0x00\n      swap1\n      jump\t// out\n    tag_3:\n      dup1\n      sload\n      dup3\n      lt\n      iszero\n      tag_144\n      jumpi\n      0x00\n      mstore\n      keccak256(0x00, 0x20)\n      add\n      swap1\n      0x00\n      swap1\n      jump\t// out\n    tag_4:\n      iszero\n      tag_351\n      jumpi\n      jump\t// out\n    tag_351:\n      mload(0x40)\n      shl(0xe5, 0x461bcd)\n      dup2\n      mstore\n      0x20\n      0x04\n      dup3\n      add\n      mstore\n      0x10\n      0x24\n      dup3\n      add\n      mstore\n      shl(0x82, 0x139bdd081e5bdd5c881858d8dbdd5b9d)\n      0x44\n      dup3\n      add\n      mstore\n      0x64\n      swap1\n      revert\n    tag_5:\n      iszero\n      tag_353\n      jumpi\n      jump\t// out\n    tag_353:\n      mload(0x40)\n      shl(0xe5, 0x461bcd)\n      dup2\n      mstore\n      0x20\n      0x04\n      dup3\n      add\n      mstore\n      0x0c\n      0x24\n      dup3\n      add\n      mstore\n      shl(0xa2, 0x105d081b585e081b195d995b)\n      0x44\n      dup3\n      add\n      mstore\n      0x64\n      swap1\n      revert\n    tag_6:\n      iszero\n      tag_355\n      jumpi\n      jump\t// out\n    tag_355:\n      mload(0x40)\n      shl(0xe5, 0x461bcd)\n      dup2\n      mstore\n      0x20\n      0x04\n      dup3\n      add\n      mstore\n      0x16\n      0x24\n      dup3\n      add\n      mstore\n      shl(0x52, 0x141bdbdb08185b1c9958591e481c1d5c98da185cd959)\n      0x44\n      dup3\n      add\n      mstore\n      0x64\n      swap1\n      revert\n    tag_7:\n      0x80\n      dup2\n      add\n      swap1\n      dup2\n      lt\n      0xffffffffffffffff\n      dup3\n      gt\n      or\n      tag_357\n      jumpi\n      0x40\n      mstore\n      jump\t// out\n    tag_357:\n      mstore(0x00, shl(0xe0, 0x4e487b71))\n      mstore(0x04, 0x41)\n      revert(0x00, 0x24)\n    tag_8:\n      0xa0\n      dup2\n      add\n      swap1\n      dup2\n      lt\n      0xffffffffffffffff\n      dup3\n      gt\n      or\n      tag_357\n      jumpi\n      0x40\n      mstore\n      jump\t// out\n    tag_9:\n      swap1\n      0x1f\n      dup1\n      not\n      swap2\n      add\n      and\n      dup2\n      add\n      swap1\n      dup2\n      lt\n      0xffffffffffffffff\n      dup3\n      gt\n      or\n      tag_357\n      jumpi\n      0x40\n      mstore\n      jump\t// out\n    tag_10:\n      swap1\n      dup2\n      0x20\n      swap2\n      sub\n      slt\n      tag_98\n      jumpi\n      mload\n      dup1\n      iszero\n      iszero\n      dup2\n      sub\n      tag_98\n      jumpi\n      swap1\n      jump\t// out\n    tag_12:\n      swap2\n      swap1\n      dup3\n      add\n      dup1\n      swap3\n      gt\n      tag_177\n      jumpi\n      jump\t// out\n    tag_13:\n      dup1\n      sload\n      shl(0x40, 0x01)\n      dup2\n      lt\n      iszero\n      tag_357\n      jumpi\n      0x01\n      dup2\n      add\n      dup1\n      dup4\n      sstore\n      dup2\n      lt\n      iszero\n      tag_144\n      jumpi\n      0x03\n      0x60\n      swap2\n      0xff\n      swap4\n      0x00\n      mstore\n      keccak256(0x00, 0x20)\n      swap1\n      0x02\n      shl\n      add\n      dup5\n      mload\n      dup2\n      sstore\n      0x20\n      dup6\n      add\n      mload\n      0x01\n      dup3\n      add\n      sstore\n      0x40\n      dup6\n      add\n      mload\n      0x02\n      dup3\n      add\n      sstore\n      add\n      swap3\n      add\n      mload\n      and\n      not(0xff)\n      dup3\n      sload\n      and\n      or\n      swap1\n      sstore\n      jump\t// out\n        /* \"contracts/modules/InfinityPool.sol\":193:876  function canBuyNextPool(uint userId) public view returns (bool eligible, string memory reason) {... */\n    tag_14:\n        /* \"contracts/modules/InfinityPool.sol\":102:13066  contract InfinityPool is Storage {... */\n      0x60\n      swap1\n      0x00\n      mstore\n        /* \"contracts/modules/InfinityPool.sol\":319:324  users */\n      0x0d\n        /* \"contracts/modules/InfinityPool.sol\":102:13066  contract InfinityPool is Storage {... */\n      0x20\n      mstore\n      keccak256(0x00, 0x40)\n        /* \"contracts/modules/InfinityPool.sol\":359:373  user.poollevel */\n      0x0b\n      dup2\n      add\n        /* \"contracts/modules/InfinityPool.sol\":102:13066  contract InfinityPool is Storage {... */\n      sload\n      swap2\n        /* \"contracts/modules/InfinityPool.sol\":400:412  poolPackages */\n      0x13\n        /* \"contracts/modules/InfinityPool.sol\":102:13066  contract InfinityPool is Storage {... */\n      sload\n        /* \"contracts/modules/InfinityPool.sol\":388:419  nextPool >= poolPackages.length */\n      dup4\n      lt\n      iszero\n        /* \"contracts/modules/InfinityPool.sol\":384:501  if (nextPool >= poolPackages.length) {... */\n      tag_373\n      jumpi\n        /* \"contracts/modules/InfinityPool.sol\":102:13066  contract InfinityPool is Storage {... */\n      pop\n      0x07\n      dup3\n      lt\n      iszero\n      tag_144\n      jumpi\n        /* \"contracts/modules/InfinityPool.sol\":576:586  user.level */\n      0x06\n        /* \"contracts/modules/InfinityPool.sol\":102:13066  contract InfinityPool is Storage {... */\n      dup3\n        /* \"contracts/modules/InfinityPool.sol\":534:549  minLevelForPool */\n      0x15\n        /* \"contracts/modules/InfinityPool.sol\":102:13066  contract InfinityPool is Storage {... */\n      add\n      sload\n        /* \"contracts/modules/InfinityPool.sol\":576:586  user.level */\n      swap2\n      add\n        /* \"contracts/modules/InfinityPool.sol\":102:13066  contract InfinityPool is Storage {... */\n      sload\n        /* \"contracts/modules/InfinityPool.sol\":576:602  user.level < requiredLevel */\n      lt\n        /* \"contracts/modules/InfinityPool.sol\":572:687  if (user.level < requiredLevel) {... */\n      tag_377\n      jumpi\n        /* \"contracts/modules/InfinityPool.sol\":703:715  nextPool > 0 */\n      iszero\n      iszero\n        /* \"contracts/modules/InfinityPool.sol\":703:744  nextPool > 0 && user.poollevel < nextPool */\n      dup1\n      tag_379\n      jumpi\n        /* \"contracts/modules/InfinityPool.sol\":193:876  function canBuyNextPool(uint userId) public view returns (bool eligible, string memory reason) {... */\n    tag_380:\n        /* \"contracts/modules/InfinityPool.sol\":699:814  if (nextPool > 0 && user.poollevel < nextPool) {... */\n      tag_381\n      jumpi\n        /* \"contracts/modules/InfinityPool.sol\":834:838  true */\n      0x01\n        /* \"contracts/modules/InfinityPool.sol\":102:13066  contract InfinityPool is Storage {... */\n      swap1\n      mload(0x40)\n      tag_383\n      0x40\n      dup3\n      tag_9\n      jump\t// in\n    tag_383:\n      0x19\n      dup2\n      mstore\n      0x456c696769626c6520746f20627579206e65787420706f6f6c00000000000000\n      0x20\n      dup3\n      add\n      mstore\n        /* \"contracts/modules/InfinityPool.sol\":193:876  function canBuyNextPool(uint userId) public view returns (bool eligible, string memory reason) {... */\n      swap1\n      jump\t// out\n        /* \"contracts/modules/InfinityPool.sol\":699:814  if (nextPool > 0 && user.poollevel < nextPool) {... */\n    tag_381:\n        /* \"contracts/modules/InfinityPool.sol\":102:13066  contract InfinityPool is Storage {... */\n      0x00\n      swap1\n      mload(0x40)\n      tag_384\n      0x40\n      dup3\n      tag_9\n      jump\t// in\n    tag_384:\n      0x17\n      dup2\n      mstore\n      0x4275792070726576696f757320706f6f6c206669727374000000000000000000\n      0x20\n      dup3\n      add\n      mstore\n        /* \"contracts/modules/InfinityPool.sol\":761:802  return (false, \"Buy previous pool first\") */\n      swap1\n      jump\t// out\n        /* \"contracts/modules/InfinityPool.sol\":703:744  nextPool > 0 && user.poollevel < nextPool */\n    tag_379:\n      pop\n        /* \"contracts/modules/InfinityPool.sol\":102:13066  contract InfinityPool is Storage {... */\n      0x00\n        /* \"contracts/modules/InfinityPool.sol\":703:744  nextPool > 0 && user.poollevel < nextPool */\n      jump(tag_380)\n        /* \"contracts/modules/InfinityPool.sol\":572:687  if (user.level < requiredLevel) {... */\n    tag_377:\n        /* \"contracts/modules/InfinityPool.sol\":619:675  return (false, \"You need to reach a higher level first\") */\n      pop\n        /* \"contracts/modules/InfinityPool.sol\":102:13066  contract InfinityPool is Storage {... */\n      0x00\n      swap1\n      mload(0x40)\n      tag_385\n      0x60\n      dup3\n      tag_9\n      jump\t// in\n    tag_385:\n      0x26\n      dup2\n      mstore\n      0x596f75206e65656420746f207265616368206120686967686572206c6576656c\n      0x20\n      dup3\n      add\n      mstore\n      shl(0xd2, 0x08199a5c9cdd)\n      0x40\n      dup3\n      add\n      mstore\n        /* \"contracts/modules/InfinityPool.sol\":619:675  return (false, \"You need to reach a higher level first\") */\n      swap1\n      jump\t// out\n        /* \"contracts/modules/InfinityPool.sol\":384:501  if (nextPool >= poolPackages.length) {... */\n    tag_373:\n        /* \"contracts/modules/InfinityPool.sol\":436:489  return (false, \"You are already at the highest pool\") */\n      swap3\n      swap2\n      pop\n      pop\n        /* \"contracts/modules/InfinityPool.sol\":102:13066  contract InfinityPool is Storage {... */\n      0x00\n      swap2\n      tag_386\n      mload(0x40)\n      swap2\n      dup3\n      tag_9\n      jump\t// in\n    tag_386:\n      0x23\n      dup2\n      mstore\n      0x596f752061726520616c72656164792061742074686520686967686573742070\n      0x20\n      dup3\n      add\n      mstore\n      shl(0xea, 0x1bdbdb)\n      0x40\n      dup3\n      add\n      mstore\n        /* \"contracts/modules/InfinityPool.sol\":436:489  return (false, \"You are already at the highest pool\") */\n      swap1\n      jump\t// out\n        /* \"contracts/modules/InfinityPool.sol\":102:13066  contract InfinityPool is Storage {... */\n    tag_15:\n      iszero\n      tag_387\n      jumpi\n      jump\t// out\n    tag_387:\n      mload(0x40)\n      shl(0xe5, 0x461bcd)\n      dup2\n      mstore\n      0x20\n      0x04\n      dup3\n      add\n      mstore\n      0x0b\n      0x24\n      dup3\n      add\n      mstore\n      shl(0xaa, 0x105d081b585e081c1bdbdb)\n      0x44\n      dup3\n      add\n      mstore\n      0x64\n      swap1\n      revert\n    tag_16:\n      swap2\n      swap1\n      dup3\n      sub\n      swap2\n      dup3\n      gt\n      tag_177\n      jumpi\n      jump\t// out\n    tag_17:\n      iszero\n      tag_391\n      jumpi\n      jump\t// out\n    tag_391:\n      mload(0x40)\n      shl(0xe5, 0x461bcd)\n      dup2\n      mstore\n      0x20\n      0x04\n      dup3\n      add\n      mstore\n      0x07\n      0x24\n      dup3\n      add\n      mstore\n      shl(0xca, 0x125b9d985b1a59)\n      0x44\n      dup3\n      add\n      mstore\n      0x64\n      swap1\n      revert\n    tag_18:\n      iszero\n      tag_393\n      jumpi\n      jump\t// out\n    tag_393:\n      mload(0x40)\n      shl(0xe5, 0x461bcd)\n      dup2\n      mstore\n      0x20\n      0x04\n      dup3\n      add\n      mstore\n      0x10\n      0x24\n      dup3\n      add\n      mstore\n      shl(0x82, 0x125b98dbdc9c9958dd08185b5bdd5b9d)\n      0x44\n      dup3\n      add\n      mstore\n      0x64\n      swap1\n      revert\n    tag_19:\n      dup1\n      sload\n      shl(0x40, 0x01)\n      dup2\n      lt\n      iszero\n      tag_357\n      jumpi\n      tag_397\n      swap2\n      0x01\n      dup3\n      add\n      dup2\n      sstore\n      tag_3\n      jump\t// in\n    tag_397:\n      dup2\n      swap3\n      swap2\n      sload\n      swap1\n      0x03\n      shl\n      swap2\n      dup3\n      shl\n      swap2\n      not(0x00)\n      swap1\n      shl\n      not\n      and\n      or\n      swap1\n      sstore\n      jump\t// out\n        /* \"contracts/modules/InfinityPool.sol\":5418:6526  function _placeInPool(uint256 poolId, uint userMainId, uint packagePrice) private {... */\n    tag_21:\n      swap3\n      swap2\n        /* \"contracts/modules/InfinityPool.sol\":5511:5559  require(poolId < poolPackages.length, \"Invalid\") */\n      tag_398\n        /* \"contracts/modules/InfinityPool.sol\":5528:5540  poolPackages */\n      0x13\n        /* \"contracts/modules/InfinityPool.sol\":102:13066  contract InfinityPool is Storage {... */\n      sload\n        /* \"contracts/modules/InfinityPool.sol\":5519:5547  poolId < poolPackages.length */\n      dup6\n      lt\n        /* \"contracts/modules/InfinityPool.sol\":5511:5559  require(poolId < poolPackages.length, \"Invalid\") */\n      tag_17\n      jump\t// in\n    tag_398:\n        /* \"contracts/modules/InfinityPool.sol\":5570:5632  require(msg.value == poolPackages[poolId], \"Incorrect amount\") */\n      tag_399\n        /* \"contracts/modules/InfinityPool.sol\":5591:5611  poolPackages[poolId] */\n      tag_400\n      dup6\n      tag_2\n      jump\t// in\n    tag_400:\n        /* \"contracts/modules/InfinityPool.sol\":102:13066  contract InfinityPool is Storage {... */\n      swap1\n      sload\n      swap1\n      0x03\n      shl\n      shr\n        /* \"contracts/modules/InfinityPool.sol\":5578:5587  msg.value */\n      callvalue\n        /* \"contracts/modules/InfinityPool.sol\":5578:5611  msg.value == poolPackages[poolId] */\n      eq\n        /* \"contracts/modules/InfinityPool.sol\":5570:5632  require(msg.value == poolPackages[poolId], \"Incorrect amount\") */\n      tag_18\n      jump\t// in\n    tag_399:\n        /* \"contracts/modules/InfinityPool.sol\":102:13066  contract InfinityPool is Storage {... */\n      dup4\n      0x00\n      mstore\n        /* \"contracts/modules/InfinityPool.sol\":5723:5732  poolUsers */\n      0x30\n        /* \"contracts/modules/InfinityPool.sol\":102:13066  contract InfinityPool is Storage {... */\n      0x20\n      mstore\n      sload(keccak256(0x00, 0x40))\n        /* \"contracts/modules/InfinityPool.sol\":5838:5864  defaultRefId + uint(index) */\n      tag_401\n        /* \"contracts/modules/InfinityPool.sol\":102:13066  contract InfinityPool is Storage {... */\n      dup2\n        /* \"contracts/modules/InfinityPool.sol\":5838:5850  defaultRefId */\n      0x05\n        /* \"contracts/modules/InfinityPool.sol\":102:13066  contract InfinityPool is Storage {... */\n      sload\n        /* \"contracts/modules/InfinityPool.sol\":5838:5864  defaultRefId + uint(index) */\n      tag_12\n      jump\t// in\n    tag_401:\n        /* \"contracts/modules/InfinityPool.sol\":102:13066  contract InfinityPool is Storage {... */\n      swap1\n      dup6\n      0x00\n      mstore\n        /* \"contracts/modules/InfinityPool.sol\":5723:5732  poolUsers */\n      0x30\n        /* \"contracts/modules/InfinityPool.sol\":102:13066  contract InfinityPool is Storage {... */\n      0x20\n      mstore\n        /* \"contracts/modules/InfinityPool.sol\":5875:5908  poolUsers[poolId].push(newUserId) */\n      tag_402\n        /* \"contracts/modules/InfinityPool.sol\":102:13066  contract InfinityPool is Storage {... */\n      dup3\n      keccak256(0x00, 0x40)\n        /* \"contracts/modules/InfinityPool.sol\":5875:5908  poolUsers[poolId].push(newUserId) */\n      tag_19\n      jump\t// in\n    tag_402:\n      not(0x00)\n        /* \"contracts/modules/InfinityPool.sol\":102:13066  contract InfinityPool is Storage {... */\n      dup2\n      add\n      swap1\n      dup2\n      gt\n      tag_177\n      jumpi\n        /* \"contracts/modules/InfinityPool.sol\":6013:6043  poolUsers[poolId][parentIndex] */\n      tag_405\n        /* \"contracts/modules/InfinityPool.sol\":102:13066  contract InfinityPool is Storage {... */\n      0x03\n        /* \"contracts/modules/InfinityPool.sol\":6395:6441  userChildren[poolId][parentId].push(newUserId) */\n      tag_406\n        /* \"contracts/modules/InfinityPool.sol\":102:13066  contract InfinityPool is Storage {... */\n      swap3\n      dup9\n      0x00\n      mstore\n        /* \"contracts/modules/InfinityPool.sol\":5723:5732  poolUsers */\n      0x30\n        /* \"contracts/modules/InfinityPool.sol\":102:13066  contract InfinityPool is Storage {... */\n      0x20\n      mstore\n      div\n      keccak256(0x00, 0x40)\n        /* \"contracts/modules/InfinityPool.sol\":6013:6043  poolUsers[poolId][parentIndex] */\n      tag_3\n      jump\t// in\n    tag_405:\n        /* \"contracts/modules/InfinityPool.sol\":102:13066  contract InfinityPool is Storage {... */\n      swap1\n      sload\n      swap1\n      0x03\n      shl\n      shr\n      swap2\n      tag_407\n      mload(0x40)\n      tag_408\n      dup2\n      tag_8\n      jump\t// in\n    tag_408:\n      dup3\n      dup2\n      mstore\n      0x20\n        /* \"contracts/modules/InfinityPool.sol\":6115:6311  UserPool({... */\n      dup1\n      dup3\n      add\n        /* \"contracts/modules/InfinityPool.sol\":102:13066  contract InfinityPool is Storage {... */\n      dup9\n      dup2\n      mstore\n      0x40\n        /* \"contracts/modules/InfinityPool.sol\":6115:6311  UserPool({... */\n      dup1\n      dup5\n      add\n        /* \"contracts/modules/InfinityPool.sol\":102:13066  contract InfinityPool is Storage {... */\n      dup13\n      dup2\n      mstore\n        /* \"contracts/modules/InfinityPool.sol\":6115:6311  UserPool({... */\n      0x60\n      dup6\n      add\n        /* \"contracts/modules/InfinityPool.sol\":102:13066  contract InfinityPool is Storage {... */\n      dup10\n      dup2\n      mstore\n      0x00\n        /* \"contracts/modules/InfinityPool.sol\":6115:6311  UserPool({... */\n      0x80\n      dup8\n      add\n        /* \"contracts/modules/InfinityPool.sol\":102:13066  contract InfinityPool is Storage {... */\n      dup2\n      dup2\n      mstore\n      dup16\n      dup3\n      mstore\n        /* \"contracts/modules/InfinityPool.sol\":6082:6093  userPooldtl */\n      0x2d\n        /* \"contracts/modules/InfinityPool.sol\":102:13066  contract InfinityPool is Storage {... */\n      dup8\n      mstore\n      dup5\n      dup3\n      keccak256\n      dup11\n      dup4\n      mstore\n      swap1\n      swap7\n      mstore\n      swap3\n      swap1\n      swap3\n      keccak256\n      swap5\n      mload\n      dup6\n      sstore\n      swap2\n      mload\n      0x01\n      dup6\n      add\n      sstore\n      swap1\n      mload\n      0x02\n      dup5\n      add\n      sstore\n      mload\n      0x03\n      dup4\n      add\n      sstore\n      mload\n      0x04\n      swap1\n      swap2\n      add\n      sstore\n      jump\n    tag_407:\n      dup7\n      0x00\n      mstore\n        /* \"contracts/modules/InfinityPool.sol\":6335:6348  userIdPerPool */\n      0x2f\n        /* \"contracts/modules/InfinityPool.sol\":102:13066  contract InfinityPool is Storage {... */\n      0x20\n      mstore\n      keccak256(0x00, 0x40)\n      dup6\n      0x00\n      mstore\n      0x20\n      mstore\n        /* \"contracts/modules/InfinityPool.sol\":6335:6384  userIdPerPool[poolId][userMainId].push(newUserId) */\n      tag_409\n        /* \"contracts/modules/InfinityPool.sol\":102:13066  contract InfinityPool is Storage {... */\n      dup2\n      keccak256(0x00, 0x40)\n        /* \"contracts/modules/InfinityPool.sol\":6335:6384  userIdPerPool[poolId][userMainId].push(newUserId) */\n      tag_19\n      jump\t// in\n    tag_409:\n        /* \"contracts/modules/InfinityPool.sol\":102:13066  contract InfinityPool is Storage {... */\n      dup7\n      0x00\n      mstore\n        /* \"contracts/modules/InfinityPool.sol\":6395:6407  userChildren */\n      0x2e\n        /* \"contracts/modules/InfinityPool.sol\":102:13066  contract InfinityPool is Storage {... */\n      0x20\n      mstore\n      keccak256(0x00, 0x40)\n      dup4\n      0x00\n      mstore\n      0x20\n      mstore\n      keccak256(0x00, 0x40)\n        /* \"contracts/modules/InfinityPool.sol\":6395:6441  userChildren[poolId][parentId].push(newUserId) */\n      tag_19\n      jump\t// in\n    tag_406:\n        /* \"contracts/modules/InfinityPool.sol\":102:13066  contract InfinityPool is Storage {... */\n      0x03\n      dup3\n      div\n        /* \"contracts/modules/InfinityPool.sol\":6750:6775  uint totalDistributed = 0 */\n      swap5\n      0x00\n        /* \"contracts/modules/InfinityPool.sol\":6792:6800  uint i=0 */\n      swap4\n      0x00\n        /* \"contracts/modules/InfinityPool.sol\":6788:7969  for(uint i=0; i<3; i++){... */\n      swap3\n        /* \"contracts/modules/InfinityPool.sol\":6802:6805  i<3 */\n    tag_410:\n        /* \"contracts/modules/InfinityPool.sol\":102:13066  contract InfinityPool is Storage {... */\n      0x03\n        /* \"contracts/modules/InfinityPool.sol\":6802:6805  i<3 */\n      dup5\n      lt\n      tag_411\n      jumpi\n        /* \"contracts/modules/InfinityPool.sol\":6788:7969  for(uint i=0; i<3; i++){... */\n    tag_412:\n        /* \"contracts/modules/InfinityPool.sol\":8081:8107  _amount - totalDistributed */\n      pop\n      pop\n      pop\n      pop\n      tag_413\n      swap3\n      swap4\n      pop\n      tag_16\n      jump\t// in\n    tag_413:\n        /* \"contracts/modules/InfinityPool.sol\":8122:8136  _remaining > 0 */\n      dup1\n        /* \"contracts/modules/InfinityPool.sol\":8118:8191  if (_remaining > 0) {... */\n      tag_414\n      jumpi\n        /* \"contracts/modules/InfinityPool.sol\":5418:6526  function _placeInPool(uint256 poolId, uint userMainId, uint packagePrice) private {... */\n      pop\n      jump\t// out\n        /* \"contracts/modules/InfinityPool.sol\":8118:8191  if (_remaining > 0) {... */\n    tag_414:\n        /* \"contracts/modules/InfinityPool.sol\":8168:8178  _remaining */\n      tag_416\n      swap1\n      tag_25\n      jump\t// in\n    tag_416:\n        /* \"contracts/modules/InfinityPool.sol\":5418:6526  function _placeInPool(uint256 poolId, uint userMainId, uint packagePrice) private {... */\n      jump\t// out\n        /* \"contracts/modules/InfinityPool.sol\":6807:6810  i++ */\n    tag_411:\n        /* \"contracts/modules/InfinityPool.sol\":6843:6861  currentParent == 0 */\n      dup1\n      iszero\n        /* \"contracts/modules/InfinityPool.sol\":6843:6894  currentParent == 0 || currentParent == defaultRefId */\n      dup1\n      iszero\n      tag_417\n      jumpi\n        /* \"contracts/modules/InfinityPool.sol\":6807:6810  i++ */\n    tag_418:\n        /* \"contracts/modules/InfinityPool.sol\":6839:7174  if (currentParent == 0 || currentParent == defaultRefId) {... */\n      tag_419\n      jumpi\n        /* \"contracts/modules/InfinityPool.sol\":102:13066  contract InfinityPool is Storage {... */\n      dup3\n      0x00\n      mstore\n        /* \"contracts/modules/InfinityPool.sol\":6082:6093  userPooldtl */\n      0x2d\n        /* \"contracts/modules/InfinityPool.sol\":102:13066  contract InfinityPool is Storage {... */\n      0x20\n      mstore\n      keccak256(0x00, 0x40)\n      swap1\n      0x00\n      mstore\n      0x20\n      mstore\n      keccak256(0x00, 0x40)\n        /* \"contracts/modules/InfinityPool.sol\":7285:7297  userp.mainid */\n      swap5\n      dup8\n        /* \"contracts/modules/InfinityPool.sol\":5980:5981  1 */\n      0x01\n        /* \"contracts/modules/InfinityPool.sol\":7285:7297  userp.mainid */\n      dup8\n      add\n        /* \"contracts/modules/InfinityPool.sol\":102:13066  contract InfinityPool is Storage {... */\n      sload\n        /* \"contracts/modules/InfinityPool.sol\":7333:7349  userp.bonusCount */\n      0x04\n      dup9\n      add\n        /* \"contracts/modules/InfinityPool.sol\":102:13066  contract InfinityPool is Storage {... */\n      dup1\n      sload\n        /* \"contracts/modules/InfinityPool.sol\":7352:7354  39 */\n      0x27\n        /* \"contracts/modules/InfinityPool.sol\":7333:7354  userp.bonusCount < 39 */\n      dup2\n      lt\n        /* \"contracts/modules/InfinityPool.sol\":7329:7826  if (userp.bonusCount < 39) {... */\n      tag_421\n      jumpi\n        /* \"contracts/modules/InfinityPool.sol\":6807:6810  i++ */\n    tag_422:\n        /* \"contracts/modules/InfinityPool.sol\":7849:7883  totalDistributed += amountPerLevel */\n      pop\n      pop\n      pop\n      tag_423\n        /* \"contracts/modules/InfinityPool.sol\":102:13066  contract InfinityPool is Storage {... */\n      0x03\n        /* \"contracts/modules/InfinityPool.sol\":7849:7883  totalDistributed += amountPerLevel */\n      swap2\n        /* \"contracts/modules/InfinityPool.sol\":5980:5981  1 */\n      0x01\n        /* \"contracts/modules/InfinityPool.sol\":7849:7883  totalDistributed += amountPerLevel */\n      swap4\n      tag_12\n      jump\t// in\n    tag_423:\n        /* \"contracts/modules/InfinityPool.sol\":7943:7957  userp.parentId */\n      swap7\n      add\n        /* \"contracts/modules/InfinityPool.sol\":102:13066  contract InfinityPool is Storage {... */\n      sload\n        /* \"contracts/modules/InfinityPool.sol\":6807:6810  i++ */\n      swap4\n        /* \"contracts/modules/InfinityPool.sol\":102:13066  contract InfinityPool is Storage {... */\n      add\n        /* \"contracts/modules/InfinityPool.sol\":6792:6800  uint i=0 */\n      swap3\n      jump(tag_410)\n        /* \"contracts/modules/InfinityPool.sol\":7329:7826  if (userp.bonusCount < 39) {... */\n    tag_421:\n        /* \"contracts/modules/InfinityPool.sol\":102:13066  contract InfinityPool is Storage {... */\n      swap1\n      swap2\n      swap3\n      pop\n        /* \"contracts/modules/InfinityPool.sol\":5980:5981  1 */\n      0x01\n        /* \"contracts/modules/InfinityPool.sol\":102:13066  contract InfinityPool is Storage {... */\n      dup2\n      add\n      dup1\n      swap2\n      gt\n      tag_177\n      jumpi\n      swap1\n      dup2\n      swap1\n      sstore\n      dup10\n      swap1\n        /* \"contracts/modules/InfinityPool.sol\":7441:7443  24 */\n      0x18\n        /* \"contracts/modules/InfinityPool.sol\":7421:7443  userp.bonusCount <= 24 */\n      dup2\n      gt\n        /* \"contracts/modules/InfinityPool.sol\":7441:7443  24 */\n      tag_426\n      jumpi\n        /* \"contracts/modules/InfinityPool.sol\":102:13066  contract InfinityPool is Storage {... */\n      pop\n      pop\n      dup1\n      0x00\n      mstore\n        /* \"contracts/modules/InfinityPool.sol\":8365:8376  userIncomes */\n      0x0e\n        /* \"contracts/modules/InfinityPool.sol\":102:13066  contract InfinityPool is Storage {... */\n      0x20\n      mstore\n        /* \"contracts/modules/InfinityPool.sol\":8472:8486  inc.poolIncome */\n      0x08\n        /* \"contracts/modules/InfinityPool.sol\":102:13066  contract InfinityPool is Storage {... */\n      keccak256(0x00, 0x40)\n        /* \"contracts/modules/InfinityPool.sol\":8399:8424  inc.totalIncome += amount */\n      tag_428\n        /* \"contracts/modules/InfinityPool.sol\":102:13066  contract InfinityPool is Storage {... */\n      dup12\n      dup3\n      sload\n        /* \"contracts/modules/InfinityPool.sol\":8399:8424  inc.totalIncome += amount */\n      tag_12\n      jump\t// in\n    tag_428:\n        /* \"contracts/modules/InfinityPool.sol\":102:13066  contract InfinityPool is Storage {... */\n      dup2\n      sstore\n        /* \"contracts/modules/InfinityPool.sol\":8472:8486  inc.poolIncome */\n      add\n        /* \"contracts/modules/InfinityPool.sol\":8472:8496  inc.poolIncome += amount */\n      tag_429\n        /* \"contracts/modules/InfinityPool.sol\":102:13066  contract InfinityPool is Storage {... */\n      dup11\n      dup3\n      sload\n        /* \"contracts/modules/InfinityPool.sol\":8472:8496  inc.poolIncome += amount */\n      tag_12\n      jump\t// in\n    tag_429:\n        /* \"contracts/modules/InfinityPool.sol\":102:13066  contract InfinityPool is Storage {... */\n      swap1\n      sstore\n      dup1\n      0x00\n      mstore\n        /* \"contracts/modules/InfinityPool.sol\":8625:8638  incomeHistory */\n      0x0f\n        /* \"contracts/modules/InfinityPool.sol\":102:13066  contract InfinityPool is Storage {... */\n      0x20\n      mstore\n        /* \"contracts/modules/InfinityPool.sol\":8625:8882  incomeHistory[receiverId].push(Income({... */\n      tag_430\n        /* \"contracts/modules/InfinityPool.sol\":102:13066  contract InfinityPool is Storage {... */\n      keccak256(0x00, 0x40)\n      mload(0x40)\n      swap1\n      tag_431\n      dup3\n      tag_8\n      jump\t// in\n    tag_431:\n      dup6\n      dup3\n      mstore\n        /* \"contracts/modules/InfinityPool.sol\":8656:8881  Income({... */\n      dup12\n        /* \"contracts/modules/InfinityPool.sol\":102:13066  contract InfinityPool is Storage {... */\n      0x20\n        /* \"contracts/modules/InfinityPool.sol\":8656:8881  Income({... */\n      dup4\n      add\n        /* \"contracts/modules/InfinityPool.sol\":102:13066  contract InfinityPool is Storage {... */\n      mstore\n        /* \"contracts/modules/InfinityPool.sol\":5980:5981  1 */\n      0x01\n        /* \"contracts/modules/InfinityPool.sol\":102:13066  contract InfinityPool is Storage {... */\n      0x40\n        /* \"contracts/modules/InfinityPool.sol\":8656:8881  Income({... */\n      dup4\n      add\n        /* \"contracts/modules/InfinityPool.sol\":102:13066  contract InfinityPool is Storage {... */\n      mstore\n        /* \"contracts/modules/InfinityPool.sol\":8792:8807  block.timestamp */\n      timestamp\n        /* \"contracts/modules/InfinityPool.sol\":6115:6311  UserPool({... */\n      0x60\n        /* \"contracts/modules/InfinityPool.sol\":8656:8881  Income({... */\n      dup4\n      add\n        /* \"contracts/modules/InfinityPool.sol\":102:13066  contract InfinityPool is Storage {... */\n      mstore\n        /* \"contracts/modules/InfinityPool.sol\":7529:7531  10 */\n      0x0a\n        /* \"contracts/modules/InfinityPool.sol\":6115:6311  UserPool({... */\n      0x80\n        /* \"contracts/modules/InfinityPool.sol\":8656:8881  Income({... */\n      dup4\n      add\n        /* \"contracts/modules/InfinityPool.sol\":102:13066  contract InfinityPool is Storage {... */\n      mstore\n        /* \"contracts/modules/InfinityPool.sol\":8625:8882  incomeHistory[receiverId].push(Income({... */\n      tag_24\n      jump\t// in\n    tag_430:\n      0x00\n        /* \"contracts/modules/InfinityPool.sol\":102:13066  contract InfinityPool is Storage {... */\n      swap1\n      dup2\n      mstore\n        /* \"contracts/modules/InfinityPool.sol\":8908:8913  users */\n      0x0d\n        /* \"contracts/modules/InfinityPool.sol\":102:13066  contract InfinityPool is Storage {... */\n      0x20\n      mstore\n      0x40\n      swap1\n      keccak256\n      sload\n      dup9\n      iszero\n      swap2\n      swap1\n      sub(shl(0xa0, 0x01), 0x01)\n      and\n        /* \"contracts/modules/InfinityPool.sol\":8970:8972  95 */\n      0x5f\n        /* \"contracts/modules/InfinityPool.sol\":102:13066  contract InfinityPool is Storage {... */\n      dup11\n      dup2\n      mul\n      swap1\n      dup12\n      dup3\n      div\n      eq\n      dup5\n      or\n      iszero\n      tag_177\n      jumpi\n      sload(0x01)\n      mload(0x40)\n      shl(0xe0, 0xa9059cbb)\n        /* \"contracts/modules/InfinityPool.sol\":8989:9017  usdt.transfer(to, netamount) */\n      dup2\n      mstore\n      sub(shl(0xa0, 0x01), 0x01)\n        /* \"contracts/modules/InfinityPool.sol\":102:13066  contract InfinityPool is Storage {... */\n      dup5\n      dup2\n      and\n        /* \"contracts/modules/InfinityPool.sol\":7333:7349  userp.bonusCount */\n      0x04\n        /* \"contracts/modules/InfinityPool.sol\":8989:9017  usdt.transfer(to, netamount) */\n      dup4\n      add\n        /* \"contracts/modules/InfinityPool.sol\":102:13066  contract InfinityPool is Storage {... */\n      mstore\n        /* \"contracts/modules/InfinityPool.sol\":8975:8978  100 */\n      0x64\n        /* \"contracts/modules/InfinityPool.sol\":102:13066  contract InfinityPool is Storage {... */\n      swap1\n      swap4\n      div\n      0x24\n      dup3\n      add\n      mstore\n      swap2\n      0x20\n      swap2\n      dup4\n      swap2\n      0x44\n      swap2\n      dup4\n      swap2\n      0x00\n      swap2\n      and\n        /* \"contracts/modules/InfinityPool.sol\":8989:9017  usdt.transfer(to, netamount) */\n      gas\n      call\n      dup1\n      iszero\n      tag_167\n      jumpi\n      tag_437\n      jumpi\n        /* \"contracts/modules/InfinityPool.sol\":7417:7809  if (userp.bonusCount <= 24) {... */\n    tag_438:\n        /* \"contracts/modules/InfinityPool.sol\":102:13066  contract InfinityPool is Storage {... */\n      pop\n        /* \"contracts/modules/InfinityPool.sol\":5838:5850  defaultRefId */\n      0x05\n        /* \"contracts/modules/InfinityPool.sol\":102:13066  contract InfinityPool is Storage {... */\n      dup11\n      mul\n      swap3\n      dup11\n      dup5\n      div\n        /* \"contracts/modules/InfinityPool.sol\":5838:5850  defaultRefId */\n      0x05\n        /* \"contracts/modules/InfinityPool.sol\":102:13066  contract InfinityPool is Storage {... */\n      eq\n      or\n      iszero\n      tag_177\n      jumpi\n      dup10\n      0x03\n      swap3\n        /* \"contracts/modules/InfinityPool.sol\":7849:7883  totalDistributed += amountPerLevel */\n      tag_423\n        /* \"contracts/modules/InfinityPool.sol\":102:13066  contract InfinityPool is Storage {... */\n      swap3\n        /* \"contracts/modules/InfinityPool.sol\":9043:9059  (amount*5) / 100 */\n      tag_441\n        /* \"contracts/modules/InfinityPool.sol\":8975:8978  100 */\n      0x64\n        /* \"contracts/modules/InfinityPool.sol\":5980:5981  1 */\n      0x01\n        /* \"contracts/modules/InfinityPool.sol\":102:13066  contract InfinityPool is Storage {... */\n      swap8\n      div\n        /* \"contracts/modules/InfinityPool.sol\":9043:9059  (amount*5) / 100 */\n      tag_25\n      jump\t// in\n    tag_441:\n        /* \"contracts/modules/InfinityPool.sol\":102:13066  contract InfinityPool is Storage {... */\n      dup7\n      0x00\n      mstore\n        /* \"contracts/modules/InfinityPool.sol\":8908:8913  users */\n      0x0d\n        /* \"contracts/modules/InfinityPool.sol\":102:13066  contract InfinityPool is Storage {... */\n      0x20\n      mstore\n      dup6\n      dup1\n      0xa0\n      shl\n      sub\n      sload(keccak256(0x00, 0x40))\n      and\n      swap1\n        /* \"contracts/modules/InfinityPool.sol\":9078:9157  IncomeDistributed(to, users[fromId].account, amount, packageLevel, _incomeType) */\n      0xe17b61d324ce17328f433d0ab62581c0f0aa997312bae80fbdfcd2aa9b91d6e3\n        /* \"contracts/modules/InfinityPool.sol\":6115:6311  UserPool({... */\n      0x60\n        /* \"contracts/modules/InfinityPool.sol\":102:13066  contract InfinityPool is Storage {... */\n      mload(0x40)\n      dup7\n      dup2\n      mstore\n      dup10\n      0x20\n      dup3\n      add\n      mstore\n        /* \"contracts/modules/InfinityPool.sol\":7529:7531  10 */\n      0x0a\n        /* \"contracts/modules/InfinityPool.sol\":102:13066  contract InfinityPool is Storage {... */\n      0x40\n      dup3\n      add\n      mstore\n        /* \"contracts/modules/InfinityPool.sol\":9078:9157  IncomeDistributed(to, users[fromId].account, amount, packageLevel, _incomeType) */\n      log3\n        /* \"contracts/modules/InfinityPool.sol\":7417:7809  if (userp.bonusCount <= 24) {... */\n    tag_442:\n        /* \"contracts/modules/InfinityPool.sol\":7329:7826  if (userp.bonusCount < 39) {... */\n      swap4\n      dup2\n      swap4\n      pop\n      jump(tag_422)\n        /* \"contracts/modules/InfinityPool.sol\":8989:9017  usdt.transfer(to, netamount) */\n    tag_437:\n      tag_443\n      swap1\n        /* \"contracts/modules/InfinityPool.sol\":102:13066  contract InfinityPool is Storage {... */\n      0x20\n        /* \"contracts/modules/InfinityPool.sol\":8989:9017  usdt.transfer(to, netamount) */\n      returndatasize\n      dup2\n      gt\n      tag_180\n      jumpi\n      tag_182\n      dup2\n      dup4\n      tag_9\n      jump\t// in\n    tag_443:\n      jump(tag_438)\n        /* \"contracts/modules/InfinityPool.sol\":7417:7809  if (userp.bonusCount <= 24) {... */\n    tag_426:\n        /* \"contracts/modules/InfinityPool.sol\":5980:5981  1 */\n      0x01\n      swap4\n        /* \"contracts/modules/InfinityPool.sol\":102:13066  contract InfinityPool is Storage {... */\n      0x03\n      swap4\n        /* \"contracts/modules/InfinityPool.sol\":7849:7883  totalDistributed += amountPerLevel */\n      tag_423\n      swap4\n        /* \"contracts/modules/InfinityPool.sol\":7562:7584  userp.bonusCount <= 36 */\n      swap3\n        /* \"contracts/modules/InfinityPool.sol\":7582:7584  36 */\n      0x24\n      lt\n      tag_447\n      jumpi\n        /* \"contracts/modules/InfinityPool.sol\":102:13066  contract InfinityPool is Storage {... */\n      dup8\n      0x00\n      mstore\n        /* \"contracts/modules/InfinityPool.sol\":7609:7622  userPooltopup */\n      0x2c\n        /* \"contracts/modules/InfinityPool.sol\":102:13066  contract InfinityPool is Storage {... */\n      0x20\n      mstore\n      keccak256(0x00, 0x40)\n      swap1\n      0x00\n      mstore\n      0x20\n      mstore\n      keccak256(0x00, 0x40)\n        /* \"contracts/modules/InfinityPool.sol\":7609:7675  userPooltopup[_poolId][parentMainId].nextPoolAmt += amountPerLevel */\n      tag_449\n        /* \"contracts/modules/InfinityPool.sol\":102:13066  contract InfinityPool is Storage {... */\n      dup4\n      dup3\n      sload\n        /* \"contracts/modules/InfinityPool.sol\":7609:7675  userPooltopup[_poolId][parentMainId].nextPoolAmt += amountPerLevel */\n      tag_12\n      jump\t// in\n    tag_449:\n        /* \"contracts/modules/InfinityPool.sol\":102:13066  contract InfinityPool is Storage {... */\n      swap1\n      sstore\n        /* \"contracts/modules/InfinityPool.sol\":7417:7809  if (userp.bonusCount <= 24) {... */\n      jump(tag_442)\n        /* \"contracts/modules/InfinityPool.sol\":7558:7809  if (userp.bonusCount <= 36) {... */\n    tag_447:\n        /* \"contracts/modules/InfinityPool.sol\":102:13066  contract InfinityPool is Storage {... */\n      dup8\n      0x00\n      mstore\n        /* \"contracts/modules/InfinityPool.sol\":7724:7737  userPooltopup */\n      0x2c\n        /* \"contracts/modules/InfinityPool.sol\":102:13066  contract InfinityPool is Storage {... */\n      0x20\n      mstore\n      keccak256(0x00, 0x40)\n      swap1\n      0x00\n      mstore\n      0x20\n      mstore\n      dup5\n      keccak256(0x00, 0x40)\n        /* \"contracts/modules/InfinityPool.sol\":7724:7771  userPooltopup[_poolId][parentMainId].reTopupAmt */\n      add\n        /* \"contracts/modules/InfinityPool.sol\":7724:7789  userPooltopup[_poolId][parentMainId].reTopupAmt += amountPerLevel */\n      tag_449\n        /* \"contracts/modules/InfinityPool.sol\":102:13066  contract InfinityPool is Storage {... */\n      dup4\n      dup3\n      sload\n        /* \"contracts/modules/InfinityPool.sol\":7724:7789  userPooltopup[_poolId][parentMainId].reTopupAmt += amountPerLevel */\n      tag_12\n      jump\t// in\n        /* \"contracts/modules/InfinityPool.sol\":6839:7174  if (currentParent == 0 || currentParent == defaultRefId) {... */\n    tag_419:\n        /* \"contracts/modules/InfinityPool.sol\":7003:7029  _amount - totalDistributed */\n      pop\n      pop\n      pop\n      pop\n        /* \"contracts/modules/InfinityPool.sol\":8081:8107  _amount - totalDistributed */\n      tag_413\n        /* \"contracts/modules/InfinityPool.sol\":7003:7029  _amount - totalDistributed */\n      swap3\n      swap4\n      pop\n      tag_452\n      dup3\n      dup3\n      tag_16\n      jump\t// in\n    tag_452:\n        /* \"contracts/modules/InfinityPool.sol\":7052:7065  remaining > 0 */\n      dup1\n        /* \"contracts/modules/InfinityPool.sol\":7048:7135  if (remaining > 0) {... */\n      tag_453\n      jumpi\n        /* \"contracts/modules/InfinityPool.sol\":6839:7174  if (currentParent == 0 || currentParent == defaultRefId) {... */\n    tag_454:\n        /* \"contracts/modules/InfinityPool.sol\":7153:7158  break */\n      dup5\n      swap4\n      dup2\n      dup1\n      jump(tag_412)\n        /* \"contracts/modules/InfinityPool.sol\":7048:7135  if (remaining > 0) {... */\n    tag_453:\n        /* \"contracts/modules/InfinityPool.sol\":7105:7114  remaining */\n      tag_455\n      swap1\n      tag_25\n      jump\t// in\n    tag_455:\n        /* \"contracts/modules/InfinityPool.sol\":7048:7135  if (remaining > 0) {... */\n      0x00\n      jump(tag_454)\n        /* \"contracts/modules/InfinityPool.sol\":6843:6894  currentParent == 0 || currentParent == defaultRefId */\n    tag_417:\n        /* \"contracts/modules/InfinityPool.sol\":102:13066  contract InfinityPool is Storage {... */\n      pop\n        /* \"contracts/modules/InfinityPool.sol\":5838:5850  defaultRefId */\n      0x05\n        /* \"contracts/modules/InfinityPool.sol\":102:13066  contract InfinityPool is Storage {... */\n      sload\n        /* \"contracts/modules/InfinityPool.sol\":6865:6894  currentParent == defaultRefId */\n      dup2\n      eq\n        /* \"contracts/modules/InfinityPool.sol\":6843:6894  currentParent == 0 || currentParent == defaultRefId */\n      jump(tag_418)\n        /* \"contracts/modules/InfinityPool.sol\":10852:13052  function _placeInBooster(uint256 poolId, uint userMainId, uint packagePrice) private {... */\n    tag_22:\n        /* \"contracts/modules/InfinityPool.sol\":10948:11002  require(poolId < glbBoosterPackages.length, \"Invalid\") */\n      tag_456\n        /* \"contracts/modules/InfinityPool.sol\":10965:10983  glbBoosterPackages */\n      0x14\n        /* \"contracts/modules/InfinityPool.sol\":102:13066  contract InfinityPool is Storage {... */\n      sload\n        /* \"contracts/modules/InfinityPool.sol\":10956:10990  poolId < glbBoosterPackages.length */\n      dup3\n      lt\n        /* \"contracts/modules/InfinityPool.sol\":10948:11002  require(poolId < glbBoosterPackages.length, \"Invalid\") */\n      tag_17\n      jump\t// in\n    tag_456:\n        /* \"contracts/modules/InfinityPool.sol\":11013:11081  require(msg.value == glbBoosterPackages[poolId], \"Incorrect amount\") */\n      tag_457\n        /* \"contracts/modules/InfinityPool.sol\":11034:11060  glbBoosterPackages[poolId] */\n      tag_400\n      dup3\n      tag_1\n      jump\t// in\n        /* \"contracts/modules/InfinityPool.sol\":11013:11081  require(msg.value == glbBoosterPackages[poolId], \"Incorrect amount\") */\n    tag_457:\n      0x00\n        /* \"contracts/modules/InfinityPool.sol\":102:13066  contract InfinityPool is Storage {... */\n      dup2\n      dup2\n      mstore\n        /* \"contracts/modules/InfinityPool.sol\":11175:11187  boosterUsers */\n      0x34\n        /* \"contracts/modules/InfinityPool.sol\":102:13066  contract InfinityPool is Storage {... */\n      0x20\n      mstore\n      0x40\n      swap1\n      keccak256\n      dup1\n      sload\n      swap1\n        /* \"contracts/modules/InfinityPool.sol\":11345:11382  boosterUsers[poolId].push(userMainId) */\n      tag_459\n      swap1\n        /* \"contracts/modules/InfinityPool.sol\":102:13066  contract InfinityPool is Storage {... */\n      dup5\n      swap1\n        /* \"contracts/modules/InfinityPool.sol\":11345:11382  boosterUsers[poolId].push(userMainId) */\n      tag_19\n      jump\t// in\n    tag_459:\n      not(0x00)\n        /* \"contracts/modules/InfinityPool.sol\":102:13066  contract InfinityPool is Storage {... */\n      dup2\n      add\n      swap1\n      dup2\n      gt\n      tag_177\n      jumpi\n      0x03\n        /* \"contracts/modules/InfinityPool.sol\":11487:11520  boosterUsers[poolId][parentIndex] */\n      tag_462\n        /* \"contracts/modules/InfinityPool.sol\":102:13066  contract InfinityPool is Storage {... */\n      swap2\n      dup4\n      0x00\n      mstore\n        /* \"contracts/modules/InfinityPool.sol\":11175:11187  boosterUsers */\n      0x34\n        /* \"contracts/modules/InfinityPool.sol\":102:13066  contract InfinityPool is Storage {... */\n      0x20\n      mstore\n      div\n      keccak256(0x00, 0x40)\n        /* \"contracts/modules/InfinityPool.sol\":11487:11520  boosterUsers[poolId][parentIndex] */\n      tag_3\n      jump\t// in\n    tag_462:\n        /* \"contracts/modules/InfinityPool.sol\":102:13066  contract InfinityPool is Storage {... */\n      swap1\n      sload\n      swap1\n      0x03\n      shl\n      shr\n      swap1\n      tag_463\n      mload(0x40)\n      tag_464\n      dup2\n      tag_8\n      jump\t// in\n    tag_464:\n      dup5\n      dup2\n      mstore\n      0x20\n        /* \"contracts/modules/InfinityPool.sol\":11595:11817  UserBooster({... */\n      dup1\n      dup3\n      add\n        /* \"contracts/modules/InfinityPool.sol\":102:13066  contract InfinityPool is Storage {... */\n      dup5\n      dup2\n      mstore\n      0x40\n        /* \"contracts/modules/InfinityPool.sol\":11595:11817  UserBooster({... */\n      dup1\n      dup5\n      add\n        /* \"contracts/modules/InfinityPool.sol\":102:13066  contract InfinityPool is Storage {... */\n      dup8\n      dup2\n      mstore\n      0x00\n        /* \"contracts/modules/InfinityPool.sol\":11595:11817  UserBooster({... */\n      0x60\n      dup7\n      add\n        /* \"contracts/modules/InfinityPool.sol\":102:13066  contract InfinityPool is Storage {... */\n      dup2\n      dup2\n      mstore\n        /* \"contracts/modules/InfinityPool.sol\":11786:11801  block.timestamp */\n      timestamp\n        /* \"contracts/modules/InfinityPool.sol\":11595:11817  UserBooster({... */\n      0x80\n      dup9\n      add\n        /* \"contracts/modules/InfinityPool.sol\":102:13066  contract InfinityPool is Storage {... */\n      swap1\n      dup2\n      mstore\n      dup10\n      dup4\n      mstore\n        /* \"contracts/modules/InfinityPool.sol\":11558:11572  userBoosterdtl */\n      0x32\n        /* \"contracts/modules/InfinityPool.sol\":102:13066  contract InfinityPool is Storage {... */\n      dup8\n      mstore\n      dup5\n      dup4\n      keccak256\n      dup13\n      dup5\n      mstore\n      swap1\n      swap7\n      mstore\n      swap3\n      swap1\n      keccak256\n      swap5\n      mload\n      dup6\n      sstore\n      swap2\n      mload\n      0x01\n      dup6\n      add\n      sstore\n      swap1\n      mload\n      0x02\n      dup5\n      add\n      sstore\n      mload\n      0x03\n      dup4\n      add\n      sstore\n      mload\n      0x04\n      swap1\n      swap2\n      add\n      sstore\n      jump\n    tag_463:\n      dup1\n      0x00\n      mstore\n        /* \"contracts/modules/InfinityPool.sol\":11828:11847  userBoosterChildren */\n      0x33\n        /* \"contracts/modules/InfinityPool.sol\":102:13066  contract InfinityPool is Storage {... */\n      0x20\n      mstore\n      keccak256(0x00, 0x40)\n      dup3\n      0x00\n      mstore\n      0x20\n      mstore\n        /* \"contracts/modules/InfinityPool.sol\":11828:11882  userBoosterChildren[poolId][parentId].push(userMainId) */\n      tag_465\n        /* \"contracts/modules/InfinityPool.sol\":102:13066  contract InfinityPool is Storage {... */\n      dup4\n      keccak256(0x00, 0x40)\n        /* \"contracts/modules/InfinityPool.sol\":11828:11882  userBoosterChildren[poolId][parentId].push(userMainId) */\n      tag_19\n      jump\t// in\n    tag_465:\n        /* \"contracts/modules/InfinityPool.sol\":11454:11455  1 */\n      0x01\n        /* \"contracts/modules/InfinityPool.sol\":11907:11918  poolId == 1 */\n      dup2\n      eq\n        /* \"contracts/modules/InfinityPool.sol\":11904:12488  if(poolId == 1  ){... */\n      tag_466\n      jumpi\n        /* \"contracts/modules/InfinityPool.sol\":10852:13052  function _placeInBooster(uint256 poolId, uint userMainId, uint packagePrice) private {... */\n    tag_467:\n        /* \"contracts/modules/InfinityPool.sol\":12506:12519  parentId == 0 */\n      dup2\n      iszero\n        /* \"contracts/modules/InfinityPool.sol\":12506:12547  parentId == 0 || parentId == defaultRefId */\n      dup1\n      iszero\n      tag_468\n      jumpi\n        /* \"contracts/modules/InfinityPool.sol\":10852:13052  function _placeInBooster(uint256 poolId, uint userMainId, uint packagePrice) private {... */\n    tag_469:\n        /* \"contracts/modules/InfinityPool.sol\":12502:12625  if (parentId == 0 || parentId == defaultRefId) {... */\n      tag_472\n      jumpi\n      0x00\n        /* \"contracts/modules/InfinityPool.sol\":102:13066  contract InfinityPool is Storage {... */\n      mstore\n        /* \"contracts/modules/InfinityPool.sol\":11558:11572  userBoosterdtl */\n      0x32\n        /* \"contracts/modules/InfinityPool.sol\":102:13066  contract InfinityPool is Storage {... */\n      0x20\n      mstore\n      keccak256(0x00, 0x40)\n      dup2\n      0x00\n      mstore\n      0x20\n      mstore\n      0x03\n      keccak256(0x00, 0x40)\n        /* \"contracts/modules/InfinityPool.sol\":12712:12728  userB.bonusCount */\n      add\n        /* \"contracts/modules/InfinityPool.sol\":102:13066  contract InfinityPool is Storage {... */\n      0x03\n      dup2\n      sload\n        /* \"contracts/modules/InfinityPool.sol\":12712:12730  userB.bonusCount<3 */\n      lt\n        /* \"contracts/modules/InfinityPool.sol\":12708:12953  if( userB.bonusCount<3)... */\n      0x00\n        /* \"contracts/modules/InfinityPool.sol\":102:13066  contract InfinityPool is Storage {... */\n      eq\n      tag_472\n      jumpi\n      dup1\n      sload\n      swap1\n        /* \"contracts/modules/InfinityPool.sol\":11454:11455  1 */\n      0x01\n        /* \"contracts/modules/InfinityPool.sol\":102:13066  contract InfinityPool is Storage {... */\n      dup3\n      add\n      dup1\n      swap3\n      gt\n      tag_177\n      jumpi\n      sstore\n      dup1\n      0x00\n      mstore\n        /* \"contracts/modules/InfinityPool.sol\":8365:8376  userIncomes */\n      0x0e\n        /* \"contracts/modules/InfinityPool.sol\":102:13066  contract InfinityPool is Storage {... */\n      0x20\n      mstore\n        /* \"contracts/modules/InfinityPool.sol\":8555:8572  inc.boosterIncome */\n      0x09\n        /* \"contracts/modules/InfinityPool.sol\":102:13066  contract InfinityPool is Storage {... */\n      keccak256(0x00, 0x40)\n        /* \"contracts/modules/InfinityPool.sol\":8399:8424  inc.totalIncome += amount */\n      tag_476\n        /* \"contracts/modules/InfinityPool.sol\":102:13066  contract InfinityPool is Storage {... */\n      dup6\n      dup3\n      sload\n        /* \"contracts/modules/InfinityPool.sol\":8399:8424  inc.totalIncome += amount */\n      tag_12\n      jump\t// in\n    tag_476:\n        /* \"contracts/modules/InfinityPool.sol\":102:13066  contract InfinityPool is Storage {... */\n      dup2\n      sstore\n        /* \"contracts/modules/InfinityPool.sol\":8555:8572  inc.boosterIncome */\n      add\n        /* \"contracts/modules/InfinityPool.sol\":8555:8582  inc.boosterIncome += amount */\n      tag_477\n        /* \"contracts/modules/InfinityPool.sol\":102:13066  contract InfinityPool is Storage {... */\n      dup5\n      dup3\n      sload\n        /* \"contracts/modules/InfinityPool.sol\":8555:8582  inc.boosterIncome += amount */\n      tag_12\n      jump\t// in\n    tag_477:\n        /* \"contracts/modules/InfinityPool.sol\":102:13066  contract InfinityPool is Storage {... */\n      swap1\n      sstore\n      dup1\n      0x00\n      mstore\n        /* \"contracts/modules/InfinityPool.sol\":8625:8638  incomeHistory */\n      0x0f\n        /* \"contracts/modules/InfinityPool.sol\":102:13066  contract InfinityPool is Storage {... */\n      0x20\n      mstore\n        /* \"contracts/modules/InfinityPool.sol\":8625:8882  incomeHistory[receiverId].push(Income({... */\n      tag_478\n        /* \"contracts/modules/InfinityPool.sol\":102:13066  contract InfinityPool is Storage {... */\n      keccak256(0x00, 0x40)\n      mload(0x40)\n      swap1\n      tag_479\n      dup3\n      tag_8\n      jump\t// in\n    tag_479:\n      dup5\n      dup3\n      mstore\n        /* \"contracts/modules/InfinityPool.sol\":8656:8881  Income({... */\n      dup6\n        /* \"contracts/modules/InfinityPool.sol\":102:13066  contract InfinityPool is Storage {... */\n      0x20\n        /* \"contracts/modules/InfinityPool.sol\":8656:8881  Income({... */\n      dup4\n      add\n        /* \"contracts/modules/InfinityPool.sol\":102:13066  contract InfinityPool is Storage {... */\n      mstore\n        /* \"contracts/modules/InfinityPool.sol\":11454:11455  1 */\n      0x01\n        /* \"contracts/modules/InfinityPool.sol\":102:13066  contract InfinityPool is Storage {... */\n      0x40\n        /* \"contracts/modules/InfinityPool.sol\":8656:8881  Income({... */\n      dup4\n      add\n        /* \"contracts/modules/InfinityPool.sol\":102:13066  contract InfinityPool is Storage {... */\n      mstore\n        /* \"contracts/modules/InfinityPool.sol\":11786:11801  block.timestamp */\n      timestamp\n        /* \"contracts/modules/InfinityPool.sol\":11595:11817  UserBooster({... */\n      0x60\n        /* \"contracts/modules/InfinityPool.sol\":8656:8881  Income({... */\n      dup4\n      add\n        /* \"contracts/modules/InfinityPool.sol\":102:13066  contract InfinityPool is Storage {... */\n      mstore\n        /* \"contracts/modules/InfinityPool.sol\":12846:12848  11 */\n      0x0b\n        /* \"contracts/modules/InfinityPool.sol\":11595:11817  UserBooster({... */\n      0x80\n        /* \"contracts/modules/InfinityPool.sol\":8656:8881  Income({... */\n      dup4\n      add\n        /* \"contracts/modules/InfinityPool.sol\":102:13066  contract InfinityPool is Storage {... */\n      mstore\n        /* \"contracts/modules/InfinityPool.sol\":8625:8882  incomeHistory[receiverId].push(Income({... */\n      tag_24\n      jump\t// in\n    tag_478:\n      0x00\n        /* \"contracts/modules/InfinityPool.sol\":102:13066  contract InfinityPool is Storage {... */\n      swap1\n      dup2\n      mstore\n        /* \"contracts/modules/InfinityPool.sol\":8908:8913  users */\n      0x0d\n        /* \"contracts/modules/InfinityPool.sol\":102:13066  contract InfinityPool is Storage {... */\n      0x20\n      mstore\n      0x40\n      swap1\n      keccak256\n      sload\n      sub(shl(0xa0, 0x01), 0x01)\n      and\n      swap1\n      dup3\n      iszero\n        /* \"contracts/modules/InfinityPool.sol\":8970:8972  95 */\n      0x5f\n        /* \"contracts/modules/InfinityPool.sol\":102:13066  contract InfinityPool is Storage {... */\n      dup5\n      dup2\n      mul\n      swap1\n      dup6\n      dup3\n      div\n      eq\n      dup3\n      or\n      iszero\n      tag_177\n      jumpi\n      sload(0x01)\n      mload(0x40)\n      shl(0xe0, 0xa9059cbb)\n        /* \"contracts/modules/InfinityPool.sol\":8989:9017  usdt.transfer(to, netamount) */\n      dup2\n      mstore\n      sub(shl(0xa0, 0x01), 0x01)\n        /* \"contracts/modules/InfinityPool.sol\":102:13066  contract InfinityPool is Storage {... */\n      dup7\n      dup2\n      and\n        /* \"contracts/modules/InfinityPool.sol\":8989:9017  usdt.transfer(to, netamount) */\n      0x04\n      dup4\n      add\n        /* \"contracts/modules/InfinityPool.sol\":102:13066  contract InfinityPool is Storage {... */\n      mstore\n        /* \"contracts/modules/InfinityPool.sol\":8975:8978  100 */\n      0x64\n        /* \"contracts/modules/InfinityPool.sol\":102:13066  contract InfinityPool is Storage {... */\n      swap1\n      swap4\n      div\n      0x24\n      dup3\n      add\n      mstore\n      swap2\n      0x20\n      swap2\n      dup4\n      swap2\n      0x44\n      swap2\n      dup4\n      swap2\n      0x00\n      swap2\n      and\n        /* \"contracts/modules/InfinityPool.sol\":8989:9017  usdt.transfer(to, netamount) */\n      gas\n      call\n      dup1\n      iszero\n      tag_167\n      jumpi\n      tag_485\n      jumpi\n        /* \"contracts/modules/InfinityPool.sol\":12708:12953  if( userB.bonusCount<3)... */\n    tag_486:\n        /* \"contracts/modules/InfinityPool.sol\":102:13066  contract InfinityPool is Storage {... */\n      pop\n        /* \"contracts/modules/InfinityPool.sol\":9051:9052  5 */\n      0x05\n        /* \"contracts/modules/InfinityPool.sol\":102:13066  contract InfinityPool is Storage {... */\n      dup5\n      mul\n      swap1\n      dup5\n      dup3\n      div\n        /* \"contracts/modules/InfinityPool.sol\":9051:9052  5 */\n      0x05\n        /* \"contracts/modules/InfinityPool.sol\":102:13066  contract InfinityPool is Storage {... */\n      eq\n      or\n      iszero\n      tag_177\n      jumpi\n        /* \"contracts/modules/InfinityPool.sol\":8975:8978  100 */\n      0x64\n        /* \"contracts/modules/InfinityPool.sol\":9043:9059  (amount*5) / 100 */\n      tag_489\n        /* \"contracts/modules/InfinityPool.sol\":102:13066  contract InfinityPool is Storage {... */\n      swap2\n      div\n        /* \"contracts/modules/InfinityPool.sol\":9043:9059  (amount*5) / 100 */\n      tag_25\n      jump\t// in\n    tag_489:\n      0x00\n        /* \"contracts/modules/InfinityPool.sol\":102:13066  contract InfinityPool is Storage {... */\n      mstore\n        /* \"contracts/modules/InfinityPool.sol\":8908:8913  users */\n      0x0d\n        /* \"contracts/modules/InfinityPool.sol\":102:13066  contract InfinityPool is Storage {... */\n      0x20\n      mstore\n        /* \"contracts/modules/InfinityPool.sol\":9078:9157  IncomeDistributed(to, users[fromId].account, amount, packageLevel, _incomeType) */\n      0xe17b61d324ce17328f433d0ab62581c0f0aa997312bae80fbdfcd2aa9b91d6e3\n        /* \"contracts/modules/InfinityPool.sol\":11595:11817  UserBooster({... */\n      0x60\n        /* \"contracts/modules/InfinityPool.sol\":102:13066  contract InfinityPool is Storage {... */\n      0x01\n      dup1\n      0xa0\n      shl\n      sub\n      sload(keccak256(0x00, 0x40))\n      and\n      swap4\n      mload(0x40)\n        /* \"contracts/modules/InfinityPool.sol\":9078:9157  IncomeDistributed(to, users[fromId].account, amount, packageLevel, _incomeType) */\n      swap1\n        /* \"contracts/modules/InfinityPool.sol\":102:13066  contract InfinityPool is Storage {... */\n      dup2\n      mstore\n        /* \"contracts/modules/InfinityPool.sol\":11454:11455  1 */\n      0x01\n        /* \"contracts/modules/InfinityPool.sol\":102:13066  contract InfinityPool is Storage {... */\n      0x20\n      dup3\n      add\n      mstore\n        /* \"contracts/modules/InfinityPool.sol\":12846:12848  11 */\n      0x0b\n        /* \"contracts/modules/InfinityPool.sol\":102:13066  contract InfinityPool is Storage {... */\n      0x40\n      dup3\n      add\n      mstore\n        /* \"contracts/modules/InfinityPool.sol\":9078:9157  IncomeDistributed(to, users[fromId].account, amount, packageLevel, _incomeType) */\n      log3\n        /* \"contracts/modules/InfinityPool.sol\":10852:13052  function _placeInBooster(uint256 poolId, uint userMainId, uint packagePrice) private {... */\n      jump\t// out\n        /* \"contracts/modules/InfinityPool.sol\":8989:9017  usdt.transfer(to, netamount) */\n    tag_485:\n      tag_490\n      swap1\n        /* \"contracts/modules/InfinityPool.sol\":102:13066  contract InfinityPool is Storage {... */\n      0x20\n        /* \"contracts/modules/InfinityPool.sol\":8989:9017  usdt.transfer(to, netamount) */\n      returndatasize\n        /* \"contracts/modules/InfinityPool.sol\":102:13066  contract InfinityPool is Storage {... */\n      0x20\n        /* \"contracts/modules/InfinityPool.sol\":8989:9017  usdt.transfer(to, netamount) */\n      gt\n      tag_180\n      jumpi\n      tag_182\n      dup2\n      dup4\n      tag_9\n      jump\t// in\n    tag_490:\n      jump(tag_486)\n        /* \"contracts/modules/InfinityPool.sol\":12708:12953  if( userB.bonusCount<3)... */\n    tag_472:\n        /* \"contracts/modules/InfinityPool.sol\":12907:12919  packagePrice */\n      pop\n      pop\n      pop\n      tag_416\n      swap1\n      tag_25\n      jump\t// in\n        /* \"contracts/modules/InfinityPool.sol\":12506:12547  parentId == 0 || parentId == defaultRefId */\n    tag_468:\n        /* \"contracts/modules/InfinityPool.sol\":102:13066  contract InfinityPool is Storage {... */\n      pop\n        /* \"contracts/modules/InfinityPool.sol\":12535:12547  defaultRefId */\n      0x05\n        /* \"contracts/modules/InfinityPool.sol\":102:13066  contract InfinityPool is Storage {... */\n      sload\n        /* \"contracts/modules/InfinityPool.sol\":12523:12547  parentId == defaultRefId */\n      dup3\n      eq\n        /* \"contracts/modules/InfinityPool.sol\":12506:12547  parentId == 0 || parentId == defaultRefId */\n      jump(tag_469)\n        /* \"contracts/modules/InfinityPool.sol\":11904:12488  if(poolId == 1  ){... */\n    tag_466:\n        /* \"contracts/modules/InfinityPool.sol\":102:13066  contract InfinityPool is Storage {... */\n      dup3\n      0x00\n      mstore\n        /* \"contracts/modules/InfinityPool.sol\":11958:11963  users */\n      0x0d\n        /* \"contracts/modules/InfinityPool.sol\":102:13066  contract InfinityPool is Storage {... */\n      0x20\n      mstore\n      keccak256(0x00, 0x40)\n      mload(0x40)\n      0x0200\n      dup2\n      add\n      dup2\n      dup2\n      lt\n      0xffffffffffffffff\n      dup3\n      gt\n      or\n      tag_357\n      jumpi\n      0x40\n      mstore\n      dup2\n      sload\n      sub(shl(0xa0, 0x01), 0x01)\n      and\n      dup2\n      mstore\n      0x01\n      dup3\n      add\n      dup1\n      sload\n      0xffffffffffffffff\n      dup2\n      gt\n      tag_357\n      jumpi\n      mload(0x40)\n      swap2\n      tag_500\n      0x20\n      dup4\n      0x05\n      shl\n      add\n      dup5\n      tag_9\n      jump\t// in\n    tag_500:\n      dup2\n      dup4\n      mstore\n      0x20\n      dup4\n      add\n      swap1\n      0x00\n      mstore\n      keccak256(0x00, 0x20)\n      0x00\n      swap2\n    tag_501:\n      dup4\n      dup4\n      lt\n      tag_502\n      jumpi\n      pop\n      pop\n      pop\n      pop\n      0x20\n      dup3\n      add\n      mstore\n      0x02\n      dup3\n      add\n      sload\n      0x40\n      dup3\n      add\n      mstore\n      0x03\n      dup3\n      add\n      sload\n        /* \"contracts/modules/InfinityPool.sol\":11595:11817  UserBooster({... */\n      0x60\n        /* \"contracts/modules/InfinityPool.sol\":102:13066  contract InfinityPool is Storage {... */\n      dup3\n      add\n      mstore\n      0x01e0\n      0x0f\n      0x04\n      dup5\n      add\n      sload\n      swap4\n        /* \"contracts/modules/InfinityPool.sol\":11595:11817  UserBooster({... */\n      0x80\n        /* \"contracts/modules/InfinityPool.sol\":102:13066  contract InfinityPool is Storage {... */\n      dup5\n      add\n      swap5\n      dup6\n      mstore\n      0x05\n      dup2\n      add\n      sload\n      0xa0\n      dup6\n      add\n      mstore\n      0x06\n      dup2\n      add\n      sload\n      0xc0\n      dup6\n      add\n      mstore\n      0x07\n      dup2\n      add\n      sload\n      0xe0\n      dup6\n      add\n      mstore\n      0x08\n      dup2\n      add\n      sload\n      0x0100\n      dup6\n      add\n      mstore\n      0x09\n      dup2\n      add\n      sload\n      0x0120\n      dup6\n      add\n      mstore\n      0x0a\n      dup2\n      add\n      sload\n      0x0140\n      dup6\n      add\n      mstore\n      0x0b\n      dup2\n      add\n      sload\n      0x0160\n      dup6\n      add\n      mstore\n      0x0c\n      dup2\n      add\n      sload\n      0x0180\n      dup6\n      add\n      mstore\n        /* \"contracts/modules/InfinityPool.sol\":11958:11963  users */\n      0x0d\n        /* \"contracts/modules/InfinityPool.sol\":102:13066  contract InfinityPool is Storage {... */\n      dup2\n      add\n      sload\n      0x01a0\n      dup6\n      add\n      mstore\n      0x0e\n      dup2\n      add\n      sload\n      0x01c0\n      dup6\n      add\n      mstore\n      add\n      sload\n      swap2\n      add\n      swap1\n      dup2\n      mstore\n        /* \"contracts/modules/InfinityPool.sol\":12008:12026  currentWeeklyRound */\n      0x36\n        /* \"contracts/modules/InfinityPool.sol\":102:13066  contract InfinityPool is Storage {... */\n      sload\n      0x00\n      mstore\n        /* \"contracts/modules/InfinityPool.sol\":11990:12007  weeklyUserDirects */\n      0x3e\n        /* \"contracts/modules/InfinityPool.sol\":102:13066  contract InfinityPool is Storage {... */\n      0x20\n      mstore\n      keccak256(0x00, 0x40)\n      dup3\n      mload\n      0x00\n      mstore\n      0x20\n      mstore\n        /* \"contracts/modules/InfinityPool.sol\":11990:12063  weeklyUserDirects[currentWeeklyRound][userdtl.sponsorId].push(userMainId) */\n      tag_504\n        /* \"contracts/modules/InfinityPool.sol\":102:13066  contract InfinityPool is Storage {... */\n      dup6\n      keccak256(0x00, 0x40)\n        /* \"contracts/modules/InfinityPool.sol\":11990:12063  weeklyUserDirects[currentWeeklyRound][userdtl.sponsorId].push(userMainId) */\n      tag_19\n      jump\t// in\n    tag_504:\n        /* \"contracts/modules/InfinityPool.sol\":12008:12026  currentWeeklyRound */\n      0x36\n        /* \"contracts/modules/InfinityPool.sol\":102:13066  contract InfinityPool is Storage {... */\n      sload\n      swap1\n      dup2\n      0x00\n      mstore\n        /* \"contracts/modules/InfinityPool.sol\":11990:12007  weeklyUserDirects */\n      0x3e\n        /* \"contracts/modules/InfinityPool.sol\":102:13066  contract InfinityPool is Storage {... */\n      0x20\n      mstore\n      keccak256(0x00, 0x40)\n      dup4\n      mload\n      0x00\n      mstore\n      0x20\n      mstore\n      sload(keccak256(0x00, 0x40))\n      swap1\n      mload\n      swap2\n        /* \"contracts/modules/Storage.sol\":731:737  1 days */\n      0x015180\n        /* \"contracts/modules/InfinityPool.sol\":102:13066  contract InfinityPool is Storage {... */\n      dup4\n      add\n      dup1\n      swap4\n      gt\n      tag_177\n      jumpi\n      0x05\n        /* \"contracts/modules/InfinityPool.sol\":11786:11801  block.timestamp */\n      swap3\n      timestamp\n      gt\n        /* \"contracts/modules/InfinityPool.sol\":12181:12236  userdtl.registrationTime + TIME_STEP >= block.timestamp */\n      iszero\n        /* \"contracts/modules/InfinityPool.sol\":12178:12328  if(userdtl.registrationTime + TIME_STEP >= block.timestamp){... */\n      tag_507\n      jumpi\n        /* \"contracts/modules/InfinityPool.sol\":102:13066  contract InfinityPool is Storage {... */\n    tag_508:\n        /* \"contracts/modules/InfinityPool.sol\":12346:12363  directsCount >= 5 */\n      pop\n      lt\n      iszero\n        /* \"contracts/modules/InfinityPool.sol\":12342:12463  if( directsCount >= 5){... */\n      tag_509\n      jumpi\n        /* \"contracts/modules/InfinityPool.sol\":102:13066  contract InfinityPool is Storage {... */\n    tag_510:\n        /* \"contracts/modules/InfinityPool.sol\":11904:12488  if(poolId == 1  ){... */\n      pop\n      jump(tag_467)\n        /* \"contracts/modules/InfinityPool.sol\":12342:12463  if( directsCount >= 5){... */\n    tag_509:\n        /* \"contracts/modules/InfinityPool.sol\":102:13066  contract InfinityPool is Storage {... */\n      mload\n        /* \"contracts/modules/InfinityPool.sol\":12008:12026  currentWeeklyRound */\n      0x36\n        /* \"contracts/modules/InfinityPool.sol\":102:13066  contract InfinityPool is Storage {... */\n      sload\n        /* \"contracts/modules/InfinityPool.sol\":12428:12446  currentWeeklyRound */\n      tag_511\n      swap2\n      tag_23\n      jump\t// in\n    tag_511:\n        /* \"contracts/modules/InfinityPool.sol\":12342:12463  if( directsCount >= 5){... */\n      0x00\n      jump(tag_510)\n        /* \"contracts/modules/InfinityPool.sol\":12178:12328  if(userdtl.registrationTime + TIME_STEP >= block.timestamp){... */\n    tag_507:\n        /* \"contracts/modules/InfinityPool.sol\":12293:12311  currentWeeklyRound */\n      tag_512\n      swap1\n      dup8\n      tag_23\n      jump\t// in\n    tag_512:\n        /* \"contracts/modules/InfinityPool.sol\":12178:12328  if(userdtl.registrationTime + TIME_STEP >= block.timestamp){... */\n      0x00\n      jump(tag_508)\n        /* \"contracts/modules/InfinityPool.sol\":102:13066  contract InfinityPool is Storage {... */\n    tag_502:\n      0x04\n      0x20\n        /* \"contracts/modules/InfinityPool.sol\":11454:11455  1 */\n      0x01\n        /* \"contracts/modules/InfinityPool.sol\":102:13066  contract InfinityPool is Storage {... */\n      swap3\n      mload(0x40)\n      tag_513\n      dup2\n      tag_7\n      jump\t// in\n    tag_513:\n      dup6\n      sload\n      dup2\n      mstore\n      dup5\n      dup7\n      add\n      sload\n      dup4\n      dup3\n      add\n      mstore\n      0x02\n      dup7\n      add\n      sload\n      0x40\n      dup3\n      add\n      mstore\n      0xff\n      0x03\n      dup8\n      add\n      sload\n      and\n        /* \"contracts/modules/InfinityPool.sol\":11595:11817  UserBooster({... */\n      0x60\n        /* \"contracts/modules/InfinityPool.sol\":102:13066  contract InfinityPool is Storage {... */\n      dup3\n      add\n      mstore\n      dup2\n      mstore\n      add\n      swap3\n      add\n      swap3\n      add\n      swap2\n      swap1\n      jump(tag_501)\n        /* \"contracts/modules/Storage.sol\":11038:11251  function _tryWeeklyContestQualify(uint _userId, uint _roundId)internal {... */\n    tag_23:\n      swap1\n        /* \"contracts/modules/InfinityPool.sol\":102:13066  contract InfinityPool is Storage {... */\n      dup1\n      0x00\n      mstore\n        /* \"contracts/modules/Storage.sol\":11125:11138  weeklyUserdtl */\n      0x3d\n        /* \"contracts/modules/InfinityPool.sol\":102:13066  contract InfinityPool is Storage {... */\n      0x20\n      mstore\n      keccak256(0x00, 0x40)\n      dup3\n      0x00\n      mstore\n      0x20\n      mstore\n      0xff\n        /* \"contracts/modules/Storage.sol\":11125:11169  weeklyUserdtl[_roundId][_userId].isQualified */\n      0x04\n        /* \"contracts/modules/InfinityPool.sol\":102:13066  contract InfinityPool is Storage {... */\n      keccak256(0x00, 0x40)\n        /* \"contracts/modules/Storage.sol\":11125:11169  weeklyUserdtl[_roundId][_userId].isQualified */\n      add\n        /* \"contracts/modules/InfinityPool.sol\":102:13066  contract InfinityPool is Storage {... */\n      sload\n      0x08\n      shr\n      and\n        /* \"contracts/modules/Storage.sol\":11124:11169  !weeklyUserdtl[_roundId][_userId].isQualified */\n      iszero\n        /* \"contracts/modules/Storage.sol\":11120:11244  if (!weeklyUserdtl[_roundId][_userId].isQualified) {... */\n      tag_514\n      jumpi\n        /* \"contracts/modules/Storage.sol\":11038:11251  function _tryWeeklyContestQualify(uint _userId, uint _roundId)internal {... */\n      pop\n      pop\n      jump\t// out\n        /* \"contracts/modules/Storage.sol\":11120:11244  if (!weeklyUserdtl[_roundId][_userId].isQualified) {... */\n    tag_514:\n        /* \"contracts/modules/Storage.sol\":11223:11231  _roundId */\n      tag_416\n      swap2\n      tag_27\n      jump\t// in\n        /* \"contracts/modules/InfinityPool.sol\":102:13066  contract InfinityPool is Storage {... */\n    tag_24:\n      swap1\n      dup2\n      sload\n      shl(0x40, 0x01)\n      dup2\n      lt\n      iszero\n      tag_357\n      jumpi\n      0x01\n      dup2\n      add\n      dup1\n      dup5\n      sstore\n      dup2\n      lt\n      iszero\n      tag_144\n      jumpi\n      tag_416\n      swap3\n      0x00\n      mstore\n      0x05\n      keccak256(0x00, 0x20)\n      swap2\n      mul\n      add\n      swap1\n      0x80\n      0x04\n      swap2\n      dup1\n      mload\n      dup5\n      sstore\n      0x20\n      dup2\n      add\n      mload\n      0x01\n      dup6\n      add\n      sstore\n      0x40\n      dup2\n      add\n      mload\n      0x02\n      dup6\n      add\n      sstore\n      0x60\n      dup2\n      add\n      mload\n      0x03\n      dup6\n      add\n      sstore\n      add\n      mload\n      swap2\n      add\n      sstore\n      jump\n        /* \"contracts/modules/Storage.sol\":8483:9094  function _sendToCreator(uint _amount) internal {... */\n    tag_25:\n        /* \"contracts/modules/Storage.sol\":8545:8558  creatorWallet */\n      0x02\n        /* \"contracts/modules/InfinityPool.sol\":102:13066  contract InfinityPool is Storage {... */\n      sload\n      sub(shl(0xa0, 0x01), 0x01)\n      and\n        /* \"contracts/modules/Storage.sol\":8545:8572  creatorWallet != address(0) */\n      dup1\n      iszero\n        /* \"contracts/modules/InfinityPool.sol\":102:13066  contract InfinityPool is Storage {... */\n      tag_522\n      jumpi\n      sload(0x01)\n      mload(0x40)\n      shl(0xe0, 0xa9059cbb)\n        /* \"@openzeppelin/contracts/token/ERC20/utils/SafeERC20.sol\":1328:1371  abi.encodeCall(token.transfer, (to, value)) */\n      0x20\n      dup1\n      dup4\n      add\n      swap2\n      dup3\n      mstore\n      sub(shl(0xa0, 0x01), 0x01)\n        /* \"contracts/modules/InfinityPool.sol\":102:13066  contract InfinityPool is Storage {... */\n      swap5\n      dup6\n      and\n        /* \"@openzeppelin/contracts/token/ERC20/utils/SafeERC20.sol\":1328:1371  abi.encodeCall(token.transfer, (to, value)) */\n      0x24\n      dup5\n      add\n        /* \"contracts/modules/InfinityPool.sol\":102:13066  contract InfinityPool is Storage {... */\n      mstore\n      0x44\n      dup1\n      dup5\n      add\n      dup8\n      swap1\n      mstore\n        /* \"@openzeppelin/contracts/token/ERC20/utils/SafeERC20.sol\":1328:1371  abi.encodeCall(token.transfer, (to, value)) */\n      dup4\n      mstore\n        /* \"contracts/modules/InfinityPool.sol\":102:13066  contract InfinityPool is Storage {... */\n      swap4\n      swap1\n      swap3\n      and\n      swap3\n        /* \"@openzeppelin/contracts/token/ERC20/utils/SafeERC20.sol\":1328:1371  abi.encodeCall(token.transfer, (to, value)) */\n      swap2\n      0x00\n      swap2\n      tag_524\n        /* \"contracts/modules/InfinityPool.sol\":102:13066  contract InfinityPool is Storage {... */\n      0x64\n      dup3\n        /* \"@openzeppelin/contracts/token/ERC20/utils/SafeERC20.sol\":1328:1371  abi.encodeCall(token.transfer, (to, value)) */\n      tag_9\n      jump\t// in\n    tag_524:\n        /* \"@openzeppelin/contracts/token/ERC20/utils/SafeERC20.sol\":8507:8928  assembly (\"memory-safe\") {... */\n      mload\n      swap1\n      dup3\n      dup6\n      gas\n      call\n      iszero\n      tag_167\n      jumpi\n      mload(0x00)\n      returndatasize\n        /* \"@openzeppelin/contracts/token/ERC20/utils/SafeERC20.sol\":8942:8957  returnSize == 0 */\n      tag_528\n      jumpi\n        /* \"@openzeppelin/contracts/token/ERC20/utils/SafeERC20.sol\":8960:8986  address(token).code.length */\n      pop\n      dup1\n      extcodesize\n        /* \"@openzeppelin/contracts/token/ERC20/utils/SafeERC20.sol\":8960:8991  address(token).code.length == 0 */\n      iszero\n        /* \"@openzeppelin/contracts/token/ERC20/utils/SafeERC20.sol\":8942:9010  returnSize == 0 ? address(token).code.length == 0 : returnValue != 1 */\n    tag_530:\n        /* \"@openzeppelin/contracts/token/ERC20/utils/SafeERC20.sol\":8938:9084  if (returnSize == 0 ? address(token).code.length == 0 : returnValue != 1) {... */\n      tag_531\n      jumpi\n        /* \"contracts/modules/InfinityPool.sol\":102:13066  contract InfinityPool is Storage {... */\n      pop\n        /* \"contracts/modules/Storage.sol\":8904:9090  incomeHistory[defaultRefId].push(Income({... */\n      tag_416\n        /* \"contracts/modules/InfinityPool.sol\":102:13066  contract InfinityPool is Storage {... */\n      swap1\n        /* \"contracts/modules/Storage.sol\":8839:8851  defaultRefId */\n      0x05\n        /* \"contracts/modules/InfinityPool.sol\":102:13066  contract InfinityPool is Storage {... */\n      sload\n      0x00\n      mstore\n        /* \"contracts/modules/Storage.sol\":8827:8838  userIncomes */\n      0x0e\n        /* \"@openzeppelin/contracts/token/ERC20/utils/SafeERC20.sol\":1328:1371  abi.encodeCall(token.transfer, (to, value)) */\n      0x20\n        /* \"contracts/modules/InfinityPool.sol\":102:13066  contract InfinityPool is Storage {... */\n      mstore\n      keccak256(0x00, 0x40)\n        /* \"contracts/modules/Storage.sol\":8859:8895  creatorIncome.totalIncome += _amount */\n      tag_534\n        /* \"contracts/modules/InfinityPool.sol\":102:13066  contract InfinityPool is Storage {... */\n      dup3\n      dup3\n      sload\n        /* \"contracts/modules/Storage.sol\":8859:8895  creatorIncome.totalIncome += _amount */\n      tag_12\n      jump\t// in\n    tag_534:\n        /* \"contracts/modules/InfinityPool.sol\":102:13066  contract InfinityPool is Storage {... */\n      swap1\n      sstore\n        /* \"contracts/modules/Storage.sol\":8839:8851  defaultRefId */\n      0x05\n        /* \"contracts/modules/InfinityPool.sol\":102:13066  contract InfinityPool is Storage {... */\n      sload\n      0x00\n      mstore\n        /* \"contracts/modules/Storage.sol\":8904:8917  incomeHistory */\n      0x0f\n        /* \"@openzeppelin/contracts/token/ERC20/utils/SafeERC20.sol\":1328:1371  abi.encodeCall(token.transfer, (to, value)) */\n      0x20\n        /* \"contracts/modules/InfinityPool.sol\":102:13066  contract InfinityPool is Storage {... */\n      mstore\n      keccak256(0x00, 0x40)\n      mload(0x40)\n      swap2\n      tag_535\n      dup4\n      tag_8\n      jump\t// in\n    tag_535:\n      0x00\n      dup4\n      mstore\n        /* \"@openzeppelin/contracts/token/ERC20/utils/SafeERC20.sol\":1328:1371  abi.encodeCall(token.transfer, (to, value)) */\n      0x20\n        /* \"contracts/modules/Storage.sol\":8937:9089  Income({... */\n      dup4\n      add\n        /* \"contracts/modules/InfinityPool.sol\":102:13066  contract InfinityPool is Storage {... */\n      mstore\n      0x00\n      0x40\n        /* \"contracts/modules/Storage.sol\":8937:9089  Income({... */\n      dup4\n      add\n        /* \"contracts/modules/InfinityPool.sol\":102:13066  contract InfinityPool is Storage {... */\n      mstore\n        /* \"contracts/modules/Storage.sol\":9042:9057  block.timestamp */\n      timestamp\n        /* \"contracts/modules/Storage.sol\":8937:9089  Income({... */\n      0x60\n      dup4\n      add\n        /* \"contracts/modules/InfinityPool.sol\":102:13066  contract InfinityPool is Storage {... */\n      mstore\n        /* \"contracts/modules/Storage.sol\":8839:8851  defaultRefId */\n      0x05\n        /* \"contracts/modules/Storage.sol\":8937:9089  Income({... */\n      0x80\n      dup4\n      add\n        /* \"contracts/modules/InfinityPool.sol\":102:13066  contract InfinityPool is Storage {... */\n      mstore\n        /* \"contracts/modules/Storage.sol\":8904:9090  incomeHistory[defaultRefId].push(Income({... */\n      tag_24\n      jump\t// in\n        /* \"@openzeppelin/contracts/token/ERC20/utils/SafeERC20.sol\":8938:9084  if (returnSize == 0 ? address(token).code.length == 0 : returnValue != 1) {... */\n    tag_531:\n        /* \"@openzeppelin/contracts/token/ERC20/utils/SafeERC20.sol\":9033:9073  SafeERC20FailedOperation(address(token)) */\n      mstore(0x00, shl(0xe0, 0x5274afe7))\n      0x04\n        /* \"contracts/modules/InfinityPool.sol\":102:13066  contract InfinityPool is Storage {... */\n      mstore\n        /* \"@openzeppelin/contracts/token/ERC20/utils/SafeERC20.sol\":1328:1371  abi.encodeCall(token.transfer, (to, value)) */\n      0x24\n      0x00\n        /* \"@openzeppelin/contracts/token/ERC20/utils/SafeERC20.sol\":9033:9073  SafeERC20FailedOperation(address(token)) */\n      revert\n        /* \"@openzeppelin/contracts/token/ERC20/utils/SafeERC20.sol\":8942:9010  returnSize == 0 ? address(token).code.length == 0 : returnValue != 1 */\n    tag_528:\n        /* \"contracts/modules/Storage.sol\":8691:8695  usdt */\n      0x01\n        /* \"@openzeppelin/contracts/token/ERC20/utils/SafeERC20.sol\":8994:9010  returnValue != 1 */\n      eq\n      iszero\n        /* \"@openzeppelin/contracts/token/ERC20/utils/SafeERC20.sol\":8942:9010  returnSize == 0 ? address(token).code.length == 0 : returnValue != 1 */\n      jump(tag_530)\n        /* \"contracts/modules/InfinityPool.sol\":102:13066  contract InfinityPool is Storage {... */\n    tag_522:\n      mload(0x40)\n      shl(0xe5, 0x461bcd)\n      dup2\n      mstore\n      0x20\n      0x04\n      dup3\n      add\n      mstore\n      0x11\n      0x24\n      dup3\n      add\n      mstore\n      shl(0x7a, 0x199959481859191c9cc81b9bdd081cd95d)\n      0x44\n      dup3\n      add\n      mstore\n      0x64\n      swap1\n      revert\n        /* \"contracts/modules/Storage.sol\":11257:12759  function _weeklyContestQualifier(uint _userId, uint _roundId)internal {... */\n    tag_27:\n      swap1\n        /* \"contracts/modules/Storage.sol\":11367:11385  currentWeeklyRound */\n      0x36\n        /* \"contracts/modules/InfinityPool.sol\":102:13066  contract InfinityPool is Storage {... */\n      sload\n      swap1\n        /* \"contracts/modules/Storage.sol\":11412:11442  _roundId == currentWeeklyRound */\n      dup2\n      dup2\n      sub\n        /* \"contracts/modules/InfinityPool.sol\":102:13066  contract InfinityPool is Storage {... */\n      tag_536\n      jumpi\n      0x00\n      mstore\n        /* \"contracts/modules/Storage.sol\":11480:11496  weeklyContestdtl */\n      0x3b\n        /* \"contracts/modules/InfinityPool.sol\":102:13066  contract InfinityPool is Storage {... */\n      0x20\n      mstore\n      0xff\n        /* \"contracts/modules/Storage.sol\":11480:11513  weeklyContestdtl[_roundId].closed */\n      0x08\n        /* \"contracts/modules/InfinityPool.sol\":102:13066  contract InfinityPool is Storage {... */\n      keccak256(0x00, 0x40)\n        /* \"contracts/modules/Storage.sol\":11480:11513  weeklyContestdtl[_roundId].closed */\n      add\n        /* \"contracts/modules/InfinityPool.sol\":102:13066  contract InfinityPool is Storage {... */\n      sload\n      and\n      tag_538\n      jumpi\n      0x00\n      dup3\n      dup2\n      mstore\n      mstore(0x20, 0x0d07fe408fa264e656a9c06e272928e4d4bb400d93cd5b5e74ac592f6170c2fd)\n      0x40\n      swap1\n      dup2\n      swap1\n      keccak256\n      swap1\n      mload\n      swap1\n      0x04\n      swap1\n      tag_540\n      dup4\n      tag_8\n      jump\t// in\n    tag_540:\n      dup1\n      sload\n      dup4\n      mstore\n        /* \"contracts/modules/Storage.sol\":11596:11597  1 */\n      0x01\n        /* \"contracts/modules/InfinityPool.sol\":102:13066  contract InfinityPool is Storage {... */\n      dup2\n      add\n      sload\n      0x20\n      dup5\n      add\n      mstore\n      0x02\n      dup2\n      add\n      sload\n      0x40\n      dup5\n      add\n      mstore\n      0x03\n      dup2\n      add\n      sload\n      0x60\n      dup5\n      add\n      mstore\n      add\n      sload\n      0x80\n      dup3\n      add\n      swap1\n      dup2\n      mstore\n      dup3\n      0x00\n      mstore\n        /* \"contracts/modules/Storage.sol\":11644:11661  weeklyUserDirects */\n      0x3e\n        /* \"contracts/modules/InfinityPool.sol\":102:13066  contract InfinityPool is Storage {... */\n      0x20\n      mstore\n      keccak256(0x00, 0x40)\n      dup5\n      0x00\n      mstore\n      0x20\n      mstore\n      dup4\n        /* \"contracts/modules/Storage.sol\":11695:11696  5 */\n      0x05\n        /* \"contracts/modules/InfinityPool.sol\":102:13066  contract InfinityPool is Storage {... */\n      sload(keccak256(0x00, 0x40))\n        /* \"contracts/modules/Storage.sol\":11644:11696  weeklyUserDirects[currentRound][_userId].length >= 5 */\n      lt\n        /* \"contracts/modules/InfinityPool.sol\":102:13066  contract InfinityPool is Storage {... */\n      swap3\n      mload\n        /* \"contracts/modules/Storage.sol\":11746:11778  userBoosterJoinDtl.id == _userId */\n      eq\n        /* \"contracts/modules/Storage.sol\":11746:11870  userBoosterJoinDtl.id == _userId && ... */\n      swap1\n      dup2\n      tag_541\n      jumpi\n        /* \"contracts/modules/Storage.sol\":11257:12759  function _weeklyContestQualifier(uint _userId, uint _roundId)internal {... */\n    tag_542:\n        /* \"contracts/modules/Storage.sol\":11644:11696  weeklyUserDirects[currentRound][_userId].length >= 5 */\n      pop\n      dup2\n      iszero\n        /* \"contracts/modules/Storage.sol\":11900:11936  hasEnoughDirects || boosterEarlyJoin */\n      swap2\n      tag_543\n      jumpi\n        /* \"contracts/modules/Storage.sol\":11257:12759  function _weeklyContestQualifier(uint _userId, uint _roundId)internal {... */\n    tag_544:\n        /* \"contracts/modules/InfinityPool.sol\":102:13066  contract InfinityPool is Storage {... */\n      pop\n      iszero\n      tag_545\n      jumpi\n      dup1\n      0x00\n      mstore\n        /* \"contracts/modules/Storage.sol\":12337:12350  weeklyUserdtl */\n      0x3d\n        /* \"contracts/modules/InfinityPool.sol\":102:13066  contract InfinityPool is Storage {... */\n      0x20\n      mstore\n      keccak256(0x00, 0x40)\n      dup3\n      0x00\n      mstore\n      0x20\n      mstore\n      keccak256(0x00, 0x40)\n        /* \"contracts/modules/Storage.sol\":12388:12413  weeklyuserdtl.isQualified */\n      swap2\n        /* \"contracts/modules/InfinityPool.sol\":102:13066  contract InfinityPool is Storage {... */\n      0x04\n        /* \"contracts/modules/Storage.sol\":12388:12413  weeklyuserdtl.isQualified */\n      dup4\n      add\n        /* \"contracts/modules/InfinityPool.sol\":102:13066  contract InfinityPool is Storage {... */\n      dup1\n      sload\n      swap4\n      0xff\n      dup6\n        /* \"contracts/modules/Storage.sol\":11480:11513  weeklyContestdtl[_roundId].closed */\n      0x08\n        /* \"contracts/modules/InfinityPool.sol\":102:13066  contract InfinityPool is Storage {... */\n      shr\n      and\n        /* \"contracts/modules/Storage.sol\":12384:12422  if (weeklyuserdtl.isQualified) return; */\n      tag_547\n      jumpi\n        /* \"contracts/modules/Storage.sol\":12689:12751  WeeklyContestQualified(currentRound, _userId, block.timestamp) */\n      0x360cb96d3e85b4fc299ddfa9a572850fc70961c86f0f1703f033143b0e5a82cf\n        /* \"contracts/modules/InfinityPool.sol\":102:13066  contract InfinityPool is Storage {... */\n      swap5\n      dup5\n      0x02\n      0x0100\n      swap4\n      dup7\n      dup2\n      sstore\n        /* \"contracts/modules/Storage.sol\":12563:12578  block.timestamp */\n      timestamp\n        /* \"contracts/modules/Storage.sol\":11596:11597  1 */\n      0x01\n        /* \"contracts/modules/Storage.sol\":12538:12560  weeklyuserdtl.joinTime */\n      dup3\n      add\n        /* \"contracts/modules/InfinityPool.sol\":102:13066  contract InfinityPool is Storage {... */\n      sstore\n        /* \"contracts/modules/Storage.sol\":12589:12610  weeklyuserdtl.roundId */\n      add\n        /* \"contracts/modules/InfinityPool.sol\":102:13066  contract InfinityPool is Storage {... */\n      sstore\n      not(0xff00)\n      and\n      or\n      swap1\n      sstore\n      mload(0x40)\n        /* \"contracts/modules/Storage.sol\":12689:12751  WeeklyContestQualified(currentRound, _userId, block.timestamp) */\n      swap2\n      dup3\n      swap2\n        /* \"contracts/modules/InfinityPool.sol\":102:13066  contract InfinityPool is Storage {... */\n      0x60\n      dup4\n      add\n      swap2\n      dup4\n      mstore\n      0x20\n      dup4\n      add\n      mstore\n        /* \"contracts/modules/Storage.sol\":12563:12578  block.timestamp */\n      timestamp\n        /* \"contracts/modules/InfinityPool.sol\":102:13066  contract InfinityPool is Storage {... */\n      0x40\n      dup4\n      add\n      mstore\n        /* \"contracts/modules/Storage.sol\":12689:12751  WeeklyContestQualified(currentRound, _userId, block.timestamp) */\n      sub\n      swap1\n      log1\n        /* \"contracts/modules/Storage.sol\":11257:12759  function _weeklyContestQualifier(uint _userId, uint _roundId)internal {... */\n      jump\t// out\n        /* \"contracts/modules/Storage.sol\":12384:12422  if (weeklyuserdtl.isQualified) return; */\n    tag_547:\n        /* \"contracts/modules/Storage.sol\":12415:12422  return; */\n      pop\n      pop\n      pop\n      pop\n      pop\n      jump\t// out\n        /* \"contracts/modules/InfinityPool.sol\":102:13066  contract InfinityPool is Storage {... */\n    tag_545:\n      mload(0x40)\n      shl(0xe5, 0x461bcd)\n      dup2\n      mstore\n      0x20\n      0x04\n      dup3\n      add\n      mstore\n      0x1f\n      0x24\n      dup3\n      add\n      mstore\n      0x4e6f7420656c696769626c6520666f72207765656b6c7920636f6e7465737400\n      0x44\n      dup3\n      add\n      mstore\n      0x64\n      swap1\n      revert\n        /* \"contracts/modules/Storage.sol\":11900:11936  hasEnoughDirects || boosterEarlyJoin */\n    tag_543:\n      swap1\n      pop\n      0x00\n      jump(tag_544)\n        /* \"contracts/modules/Storage.sol\":11746:11870  userBoosterJoinDtl.id == _userId && ... */\n    tag_541:\n        /* \"contracts/modules/InfinityPool.sol\":102:13066  contract InfinityPool is Storage {... */\n      swap1\n      pop\n      mload\n      dup4\n      0x00\n      mstore\n        /* \"contracts/modules/Storage.sol\":11827:11832  users */\n      0x0d\n        /* \"contracts/modules/InfinityPool.sol\":102:13066  contract InfinityPool is Storage {... */\n      0x20\n      mstore\n        /* \"contracts/modules/Storage.sol\":11827:11858  users[_userId].registrationTime */\n      0x0f\n        /* \"contracts/modules/InfinityPool.sol\":102:13066  contract InfinityPool is Storage {... */\n      keccak256(0x00, 0x40)\n        /* \"contracts/modules/Storage.sol\":11827:11858  users[_userId].registrationTime */\n      add\n        /* \"contracts/modules/InfinityPool.sol\":102:13066  contract InfinityPool is Storage {... */\n      sload\n      swap1\n        /* \"contracts/modules/Storage.sol\":731:737  1 days */\n      0x015180\n        /* \"contracts/modules/InfinityPool.sol\":102:13066  contract InfinityPool is Storage {... */\n      dup3\n      add\n      dup1\n      swap3\n      gt\n      tag_177\n      jumpi\n        /* \"contracts/modules/Storage.sol\":11796:11870  userBoosterJoinDtl.joinTime <= users[_userId].registrationTime + TIME_STEP */\n      gt\n      iszero\n        /* \"contracts/modules/Storage.sol\":11746:11870  userBoosterJoinDtl.id == _userId && ... */\n      0x00\n      jump(tag_542)\n        /* \"contracts/modules/InfinityPool.sol\":102:13066  contract InfinityPool is Storage {... */\n    tag_538:\n      mload(0x40)\n      shl(0xe5, 0x461bcd)\n      dup2\n      mstore\n      0x20\n      0x04\n      dup3\n      add\n      mstore\n      0x0c\n      0x24\n      dup3\n      add\n      mstore\n      shl(0xa2, 0x149bdd5b990818db1bdcd959)\n      0x44\n      dup3\n      add\n      mstore\n      0x64\n      swap1\n      revert\n    tag_536:\n      mload(0x40)\n      shl(0xe5, 0x461bcd)\n      dup2\n      mstore\n      0x20\n      0x04\n      dup3\n      add\n      mstore\n      0x0d\n      0x24\n      dup3\n      add\n      mstore\n      shl(0x9a, 0x125b9d985b1a59081c9bdd5b99)\n      0x44\n      dup3\n      add\n      mstore\n      0x64\n      swap1\n      revert\n    stop\n    data_92fb4c3df386bc0d49f8847c66cda554c07c2df42e065e03d639278ecf8d94a7 babb6a363fd9a057996d09882c0b74b710d121707d19eeffd91c51c3171a7c91\n\n    auxdata: 0xa264697066735822122042e0053f21b04a4e35a7a6be6ef44bde4d88c4349eb2336c7980bfeb09fd2f0b64736f6c634300081e0033\n}\n",
				"bytecode": {
					"linkReferences": {},
					"object": "60806040523461051b5760015f556040516101e081016001600160401b038111828210176105075760405267d02ab486cedc0000815268015af1d78b58c4000060208201526802b5e3af16b1880000604082015268056bc75e2d631000006060820152680ad78ebc5ac620000060808201526815af1d78b58c40000060a0820152682b5e3af16b1880000060c08201526856bc75e2d63100000060e082015268ad78ebc5ac6200000061010082015269015af1d78b58c40000006101208201526902b5e3af16b18800000061014082015269056bc75e2d6310000000610160820152690ad78ebc5ac6200000006101808201526915af1d78b58c400000006101a0820152692b5e3af16b18800000006101c0820152600b54600f600b5580600f106104b1575b50600b5f5260205f20905f5b600f81106104945761014161051f565b680410d586a20a4c00008152681043561a8829300000602082015268410d586a20a4c0000060408201526901043561a882930000006060820152690410d586a20a4c0000006080820152691043561a88293000000060a082015269410d586a20a4c000000060c082015260135460076013558060071061043e575b5060135f5260205f20905f5b60078110610421576101d861053e565b68056bc75e2d631000008152680ad78ebc5ac620000060208201526815af1d78b58c4000006040820152682b5e3af16b1880000060608201526856bc75e2d631000000608082015268ad78ebc5ac6200000060a082015269015af1d78b58c400000060c08201526902b5e3af16b18800000060e08201526014546008601455806008106103cb575b5060145f5260205f20905f5b600881106103ae5761027c61051f565b60038152600560208201526007604082015260096060820152600b6080820152600d60a0820152600f60c08201525f5b60078110610396576102bc61053e565b6004815260056020820152600660408201526007606082015260086080820152600960a0820152600a60c0820152600b60e08201525f5b6008811061037e5761030361053e565b5f815260016020820152600160408201526001606082015260016080820152600160a0820152600160c0820152600160e08201525f5b6008811061036657600160365560016037555f6038555f6039555f603a55604051611ef790816105758239f35b600190602060ff845116930192816024015501610339565b600190602060ff84511693019281601c0155016102f3565b600190602060ff8451169301928160150155016102ac565b81516001600160501b03168184015560209091019060010161026c565b60145f5261041b907fce6d7b5282bd9a3661ae061feed1dbda4e52ab073b1f9285be6e155d9c38d4ec017fce6d7b5282bd9a3661ae061feed1dbda4e52ab073b1f9285be6e155d9c38d4f461055e565b81610260565b81516001600160501b0316818401556020909101906001016101c8565b60135f5261048e907f66de8ffda797e3de9c05e8fc57b3bf0ec28a930d40b0d285d93c06501cf6a090017f66de8ffda797e3de9c05e8fc57b3bf0ec28a930d40b0d285d93c06501cf6a09761055e565b816101bc565b81516001600160501b031681840155602090910190600101610131565b600b5f52610501907f0175b7a638427703f0dbe7bb9bbf987a2551717b34e79f33b5b1008d1fa01db9017f0175b7a638427703f0dbe7bb9bbf987a2551717b34e79f33b5b1008d1fa01dc861055e565b5f610125565b634e487b7160e01b5f52604160045260245ffd5b5f80fd5b6040519060e082016001600160401b0381118382101761050757604052565b6040519061010082016001600160401b0381118382101761050757604052565b818110610569575050565b5f815560010161055e56fe6080806040526004361015610012575f80fd5b5f3560e01c90816301c234a814610e12575080632132d20414610de65780632350268f14610dbd5780632a89153414610da05780632f48ab7d14610d785780633080b5bc14610d5b57806332bc298c14610d3e57806332fcd96614610d1c578063375b43b414610d0157806339ab360314610ca75780634060160a14610a7a57806358c7d35214610a5f57806367d52d4d14610a0857806376f5f700146109eb5780637848f0a31461088d57806378f6ad6d146108705780637cdc65f2146108485780638e222e241461061d578063956a3228146105f1578063ae4708dc146105b9578063bc1fa7c01461036a578063bff1f9e11461034d578063c216212a146102df578063c8df2908146102bb578063c9ed07081461029e578063ca8e912114610281578063d0a2fd7914610255578063e898fc3814610238578063e9e34a1614610210578063ebe0ff15146101ed578063ec597e6f146101d0578063f5d74d93146101a85763fddc806f14610187575f80fd5b346101a4575f3660031901126101a4576020603854604051908152f35b5f80fd5b346101a4575f3660031901126101a4576004546040516001600160a01b039091168152602090f35b346101a4575f3660031901126101a4576020600554604051908152f35b346101a4575f3660031901126101a4576020604051683635c9adc5dea000008152f35b346101a4575f3660031901126101a4576003546040516001600160a01b039091168152602090f35b346101a4575f3660031901126101a4576020603954604051908152f35b346101a45760203660031901126101a45760043560088110156101a457602090601c0154604051908152f35b346101a4575f3660031901126101a4576020603654604051908152f35b346101a4575f3660031901126101a4576020603754604051908152f35b346101a4575f3660031901126101a457602060405169021e19e0c9bab24000008152f35b346101a45760203660031901126101a457600435600b548110156101a457600b5481101561033957600b5f527f0175b7a638427703f0dbe7bb9bbf987a2551717b34e79f33b5b1008d1fa01db90154604051908152602090f35b634e487b7160e01b5f52603260045260245ffd5b346101a4575f3660031901126101a4576020600654604051908152f35b346101a45760203660031901126101a457600435805f52600d60205260405f2061039e60018060a01b038254163314610e71565b600d810190815491600883106103b381610eb0565b156103395782601c01548360240154906006840154101590816105aa575b501561056d5782610568575b835f52603560205260405f20835f5260205261040060ff60405f20541615610eeb565b61040983610e2c565b90546001546040516323b872dd60e01b815233600482015230602482015260039390931b9190911c60448301819052929190602090829060649082905f906001600160a01b03165af1801561055d57610530575b508054926001840180941161051c576104d89360019255855f52603560205260405f20855f5260205260405f208260ff19825416179055600e81016104a3848254610fb6565b90556104b0838787611643565b604051926104bd84610f30565b83525f6020840152426040840152600b606084015201610fc3565b6001810180911161051c576040519081526040602082015260076040820152662137b7b9ba32b960c91b60608201525f516020611ea25f395f51905f5260803392a3005b634e487b7160e01b5f52601160045260245ffd5b6105519060203d602011610556575b6105498183610f7c565b810190610f9e565b61045d565b503d61053f565b6040513d5f823e3d90fd5b6103dd565b60405162461bcd60e51b8152602060048201526015602482015274155c19dc9859194814db1bdd08185b9908141bdbdb605a1b6044820152606490fd5b9050600b8301541015856103d1565b346101a45760203660031901126101a4576004356013548110156101a4576105e2602091610e44565b90549060031b1c604051908152f35b346101a45760203660031901126101a45760043560088110156101a45760209060240154604051908152f35b346101a45760403660031901126101a45760043563ffffffff81168091036101a457602435815f52600d60205260405f2061066260018060a01b038254163314610e71565b600b8101916106746007845410611178565b600181019283821161051c576013548410156108125761069384610e44565b90549060031b1c825f52602c60205260405f20865f5260205260405f2080548281106107cd57875f52603160205260405f20875f5260205260ff60405f20541661078857826106e1916111b2565b90558154916001830180931161051c576002946107389360019255600c810161070b848254610fb6565b9055875f52603160205260405f20875f5260205260405f208260ff198254161790556104b0838989611268565b0180911161051c57604051908152604060208201526016604082015275506f6f6c205570677261646520284561726e696e672960501b60608201525f516020611ea25f395f51905f5260803392a3005b60405162461bcd60e51b815260206004820152601b60248201527f416c726561647920707572636861736564206e65787420706f6f6c00000000006044820152606490fd5b60405162461bcd60e51b815260206004820152601c60248201527f4e6f7420656e6f756768206e65787420706f6f6c2062616c616e6365000000006044820152606490fd5b60405162461bcd60e51b815260206004820152600e60248201526d139bc81a1a59da195c881c1bdbdb60921b6044820152606490fd5b346101a4575f3660031901126101a4576002546040516001600160a01b039091168152602090f35b346101a4575f3660031901126101a4576020600954604051908152f35b346101a45760403660031901126101a457600435602435815f52600d60205260405f206108c460018060a01b038254163314610e71565b6108d46007600b83015410611178565b6108dd82610e44565b90549060031b1c825f52602c60205260405f20845f52602052600160405f2001918254908282106109a65761095e93610918846001946111b2565b9055600c8101610929848254610fb6565b9055610936838787611268565b6040519261094384610f30565b83525f6020840152426040840152600a606084015201610fc3565b604051908152604060208201526016604082015275506f6f6c205265546f70757020284561726e696e672960501b60608201525f516020611ea25f395f51905f5260803392a3005b60405162461bcd60e51b815260206004820152601a60248201527f4e6f7420656e6f756768207265546f7075702062616c616e63650000000000006044820152606490fd5b346101a4575f3660031901126101a457602060405162093a808152f35b346101a45760203660031901126101a4576060610a2660043561101a565b91906020604051938492151583526040828401528051918291826040860152018484015e5f828201840152601f01601f19168101030190f35b346101a4575f3660031901126101a4576020604051600a8152f35b346101a45760203660031901126101a457600435805f52600d60205260405f20610aae60018060a01b038254163314610e71565b600b81019081549160078310610ac381610eb0565b15610339578260150154600683015410610c62578215908115610c5d575b845f52603160205260405f20845f52602052610b0460ff60405f20541615610eeb565b610b0d84610e44565b90546001546040516323b872dd60e01b815233600482015230602482015260039390931b9190911c60448301819052939190602090829060649082905f906001600160a01b03165af1801561055d57610c40575b50610bed575b8054926001840180941161051c57610bac9360019255855f52603160205260405f20855f5260205260405f208260ff19825416179055600c8101610929848254610fb6565b6001810180911161051c57604051908152604060208201526004604082015263141bdbdb60e21b60608201525f516020611ea25f395f51905f5260803392a3005b6004830154805f52600d602052600f60405f2001546202a300810180911161051c57421015610c1d575b50610b67565b5f52600d602052600860405f20018054906001820180921161051c575585610c17565b610c589060203d602011610556576105498183610f7c565b610b61565b610ae1565b60405162461bcd60e51b815260206004820152601860248201527f5570677261646520796f7572206c6576656c20666972737400000000000000006044820152606490fd5b346101a45760203660031901126101a4576004356007548110156101a4576007548110156103395760075f527fa66cc928b5edb82af9bd49922954155ab7b0942694bea4ce44661d9a8736c6880154604051908152602090f35b346101a4575f3660031901126101a4576020604051600f8152f35b346101a4575f3660031901126101a4576020604051670de0b6b3a76400008152f35b346101a4575f3660031901126101a4576020604051620151808152f35b346101a4575f3660031901126101a4576020603a54604051908152f35b346101a4575f3660031901126101a4576001546040516001600160a01b039091168152602090f35b346101a4575f3660031901126101a457602060405162278d008152f35b346101a45760203660031901126101a4576004356014548110156101a4576105e2602091610e2c565b346101a45760203660031901126101a45760043560078110156101a45760209060150154604051908152f35b346101a4575f3660031901126101a4578061271060209252f35b6014548110156103395760145f5260205f2001905f90565b6013548110156103395760135f5260205f2001905f90565b8054821015610339575f5260205f2001905f90565b15610e7857565b60405162461bcd60e51b815260206004820152601060248201526f139bdd081e5bdd5c881858d8dbdd5b9d60821b6044820152606490fd5b15610eb757565b60405162461bcd60e51b815260206004820152600c60248201526b105d081b585e081b195d995b60a21b6044820152606490fd5b15610ef257565b60405162461bcd60e51b8152602060048201526016602482015275141bdbdb08185b1c9958591e481c1d5c98da185cd95960521b6044820152606490fd5b6080810190811067ffffffffffffffff821117610f4c57604052565b634e487b7160e01b5f52604160045260245ffd5b60a0810190811067ffffffffffffffff821117610f4c57604052565b90601f8019910116810190811067ffffffffffffffff821117610f4c57604052565b908160209103126101a4575180151581036101a45790565b9190820180921161051c57565b8054600160401b811015610f4c576001810180835581101561033957600360609160ff935f5260205f209060021b01845181556020850151600182015560408501516002820155019201511660ff19825416179055565b6060905f52600d60205260405f20600b8101549160135483101561112c575060078210156103395760068260150154910154106110df571515806110d8575b61109b5760019060405161106e604082610f7c565b601981527f456c696769626c6520746f20627579206e65787420706f6f6c00000000000000602082015290565b5f906040516110ab604082610f7c565b601781527f4275792070726576696f757320706f6f6c206669727374000000000000000000602082015290565b505f611059565b505f906040516110f0606082610f7c565b602681527f596f75206e65656420746f207265616368206120686967686572206c6576656c60208201526508199a5c9cdd60d21b604082015290565b929150505f9161113f6040519182610f7c565b602381527f596f752061726520616c726561647920617420746865206869676865737420706020820152621bdbdb60ea1b604082015290565b1561117f57565b60405162461bcd60e51b815260206004820152600b60248201526a105d081b585e081c1bdbdb60aa1b6044820152606490fd5b9190820391821161051c57565b156111c657565b60405162461bcd60e51b8152602060048201526007602482015266125b9d985b1a5960ca1b6044820152606490fd5b156111fc57565b60405162461bcd60e51b815260206004820152601060248201526f125b98dbdc9c9958dd08185b5bdd5b9d60821b6044820152606490fd5b8054600160401b811015610f4c5761125191600182018155610e5c565b819291549060031b91821b915f19901b1916179055565b929161127760135485106111bf565b61129161128385610e44565b90549060031b1c34146111f5565b835f52603060205260405f20546112aa81600554610fb6565b90855f5260306020526112c08260405f20611234565b5f19810190811161051c576112e6600361138e92885f5260306020520460405f20610e5c565b90549060031b1c916113546040516112fd81610f60565b828152602080820188815260408084018c8152606085018981525f608087018181528f8252602d87528482208a83529096529290922094518555915160018501559051600284015551600383015551600490910155565b865f52602f60205260405f20855f526020526113738160405f20611234565b865f52602e60205260405f20835f5260205260405f20611234565b60038204945f935f925b600384106113c3575b505050506113b09293506111b2565b806113b85750565b6113c190611b5c565b565b80158015611638575b61160657825f52602d60205260405f20905f5260205260405f209487600187015460048801805460278110611418575b50505061140d600391600193610fb6565b960154930192611398565b909192506001810180911161051c57908190558990601881116115a9575050805f52600e602052600860405f206114508b8254610fb6565b81550161145e8a8254610fb6565b9055805f52600f60205261149e60405f206040519061147c82610f60565b8582528b602083015260016040830152426060830152600a6080830152611b01565b5f908152600d6020526040902054881591906001600160a01b0316605f8a8102908b82041484171561051c5760015460405163a9059cbb60e01b81526001600160a01b0384811660048301526064909304602482015291602091839160449183915f91165af1801561055d5761158d575b5060058a02928a8404600514171561051c578960039261140d92611537606460019704611b5c565b865f52600d602052858060a01b0360405f205416907fe17b61d324ce17328f433d0ab62581c0f0aa997312bae80fbdfcd2aa9b91d6e36060604051868152896020820152600a6040820152a35b938193506113fc565b6115a49060203d8111610556576105498183610f7c565b61150f565b60019360039361140d93926024106115e357875f52602c60205260405f20905f5260205260405f206115dc838254610fb6565b9055611584565b875f52602c60205260405f20905f526020528460405f20016115dc838254610fb6565b505050506113b092935061161a82826111b2565b80611629575b849381806113a1565b61163290611b5c565b5f611620565b5060055481146113cc565b61165060145482106111bf565b61165c61128382610e2c565b5f818152603460205260409020805490611677908490611234565b5f19810190811161051c57600361169a91835f5260346020520460405f20610e5c565b90549060031b1c906117086040516116b181610f60565b848152602080820184815260408084018781525f606086018181524260808801908152898352603287528483208c845290965292902094518555915160018501559051600284015551600383015551600490910155565b805f52603360205260405f20825f526020526117278360405f20611234565b600181146118e7575b811580156118dc575b6118d0575f52603260205260405f20815f52602052600360405f200160038154105f146118d0578054906001820180921161051c5755805f52600e602052600960405f20611788858254610fb6565b815501611796848254610fb6565b9055805f52600f6020526117d660405f20604051906117b482610f60565b84825285602083015260016040830152426060830152600b6080830152611b01565b5f908152600d60205260409020546001600160a01b0316908215605f848102908582041482171561051c5760015460405163a9059cbb60e01b81526001600160a01b0386811660048301526064909304602482015291602091839160449183915f91165af1801561055d576118b3575b506005840290848204600514171561051c5760646118649104611b5c565b5f52600d6020527fe17b61d324ce17328f433d0ab62581c0f0aa997312bae80fbdfcd2aa9b91d6e3606060018060a01b0360405f2054169360405190815260016020820152600b6040820152a3565b6118cb9060203d602011610556576105498183610f7c565b611846565b5050506113c190611b5c565b506005548214611739565b825f52600d60205260405f20604051610200810181811067ffffffffffffffff821117610f4c5760405281546001600160a01b0316815260018201805467ffffffffffffffff8111610f4c576040519161194760208360051b0184610f7c565b81835260208301905f5260205f205f915b838310611a8a5750505050602082015260028201546040820152600382015460608201526101e0600f60048401549360808401948552600581015460a0850152600681015460c0850152600781015460e085015260088101546101008501526009810154610120850152600a810154610140850152600b810154610160850152600c810154610180850152600d8101546101a0850152600e8101546101c0850152015491019081526036545f52603e60205260405f2082515f52602052611a228560405f20611234565b60365490815f52603e60205260405f2083515f5260205260405f205490519162015180830180931161051c57600592421115611a7a575b501015611a67575b50611730565b51603654611a7491611ace565b5f611a61565b611a849087611ace565b5f611a59565b60046020600192604051611a9d81610f30565b8554815284860154838201526002860154604082015260ff6003870154166060820152815201920192019190611958565b90805f52603d60205260405f20825f5260205260ff600460405f20015460081c1615611af8575050565b6113c191611c7b565b908154600160401b811015610f4c5760018101808455811015610339576113c1925f52600560205f20910201906080600491805184556020810151600185015560408101516002850155606081015160038501550151910155565b6002546001600160a01b03168015611c425760015460405163a9059cbb60e01b60208083019182526001600160a01b039485166024840152604480840187905283529390921692915f91611bb1606482610f7c565b519082855af11561055d575f513d611c395750803b155b611c2757506113c1906005545f52600e60205260405f20611bea828254610fb6565b90556005545f52600f60205260405f2060405191611c0783610f60565b5f835260208301525f604083015242606083015260056080830152611b01565b635274afe760e01b5f5260045260245ffd5b60011415611bc8565b60405162461bcd60e51b8152602060048201526011602482015270199959481859191c9cc81b9bdd081cd95d607a1b6044820152606490fd5b9060365490818103611e6c575f52603b60205260ff600860405f20015416611e38575f8281527f0d07fe408fa264e656a9c06e272928e4d4bb400d93cd5b5e74ac592f6170c2fd602052604090819020905190600490611cda83610f60565b80548352600181015460208401526002810154604084015260038101546060840152015460808201908152825f52603e60205260405f20845f5260205283600560405f2054109251149081611e0f575b50811591611e07575b5015611dc257805f52603d60205260405f20825f5260205260405f20916004830180549360ff8560081c16611dbb577f360cb96d3e85b4fc299ddfa9a572850fc70961c86f0f1703f033143b0e5a82cf9484600261010093868155426001820155015561ff0019161790556040519182916060830191835260208301524260408301520390a1565b5050505050565b60405162461bcd60e51b815260206004820152601f60248201527f4e6f7420656c696769626c6520666f72207765656b6c7920636f6e74657374006044820152606490fd5b90505f611d33565b905051835f52600d602052600f60405f2001549062015180820180921161051c5711155f611d2a565b60405162461bcd60e51b815260206004820152600c60248201526b149bdd5b990818db1bdcd95960a21b6044820152606490fd5b60405162461bcd60e51b815260206004820152600d60248201526c125b9d985b1a59081c9bdd5b99609a1b6044820152606490fdfebabb6a363fd9a057996d09882c0b74b710d121707d19eeffd91c51c3171a7c91a264697066735822122042e0053f21b04a4e35a7a6be6ef44bde4d88c4349eb2336c7980bfeb09fd2f0b64736f6c634300081e0033",
					"opcodes": "PUSH1 0x80 PUSH1 0x40 MSTORE CALLVALUE PUSH2 0x51B JUMPI PUSH1 0x1 PUSH0 SSTORE PUSH1 0x40 MLOAD PUSH2 0x1E0 DUP2 ADD PUSH1 0x1 PUSH1 0x1 PUSH1 0x40 SHL SUB DUP2 GT DUP3 DUP3 LT OR PUSH2 0x507 JUMPI PUSH1 0x40 MSTORE PUSH8 0xD02AB486CEDC0000 DUP2 MSTORE PUSH9 0x15AF1D78B58C40000 PUSH1 0x20 DUP3 ADD MSTORE PUSH9 0x2B5E3AF16B1880000 PUSH1 0x40 DUP3 ADD MSTORE PUSH9 0x56BC75E2D63100000 PUSH1 0x60 DUP3 ADD MSTORE PUSH9 0xAD78EBC5AC6200000 PUSH1 0x80 DUP3 ADD MSTORE PUSH9 0x15AF1D78B58C400000 PUSH1 0xA0 DUP3 ADD MSTORE PUSH9 0x2B5E3AF16B18800000 PUSH1 0xC0 DUP3 ADD MSTORE PUSH9 0x56BC75E2D631000000 PUSH1 0xE0 DUP3 ADD MSTORE PUSH9 0xAD78EBC5AC62000000 PUSH2 0x100 DUP3 ADD MSTORE PUSH10 0x15AF1D78B58C4000000 PUSH2 0x120 DUP3 ADD MSTORE PUSH10 0x2B5E3AF16B188000000 PUSH2 0x140 DUP3 ADD MSTORE PUSH10 0x56BC75E2D6310000000 PUSH2 0x160 DUP3 ADD MSTORE PUSH10 0xAD78EBC5AC620000000 PUSH2 0x180 DUP3 ADD MSTORE PUSH10 0x15AF1D78B58C40000000 PUSH2 0x1A0 DUP3 ADD MSTORE PUSH10 0x2B5E3AF16B1880000000 PUSH2 0x1C0 DUP3 ADD MSTORE PUSH1 0xB SLOAD PUSH1 0xF PUSH1 0xB SSTORE DUP1 PUSH1 0xF LT PUSH2 0x4B1 JUMPI JUMPDEST POP PUSH1 0xB PUSH0 MSTORE PUSH1 0x20 PUSH0 KECCAK256 SWAP1 PUSH0 JUMPDEST PUSH1 0xF DUP2 LT PUSH2 0x494 JUMPI PUSH2 0x141 PUSH2 0x51F JUMP JUMPDEST PUSH9 0x410D586A20A4C0000 DUP2 MSTORE PUSH9 0x1043561A8829300000 PUSH1 0x20 DUP3 ADD MSTORE PUSH9 0x410D586A20A4C00000 PUSH1 0x40 DUP3 ADD MSTORE PUSH10 0x1043561A88293000000 PUSH1 0x60 DUP3 ADD MSTORE PUSH10 0x410D586A20A4C000000 PUSH1 0x80 DUP3 ADD MSTORE PUSH10 0x1043561A882930000000 PUSH1 0xA0 DUP3 ADD MSTORE PUSH10 0x410D586A20A4C0000000 PUSH1 0xC0 DUP3 ADD MSTORE PUSH1 0x13 SLOAD PUSH1 0x7 PUSH1 0x13 SSTORE DUP1 PUSH1 0x7 LT PUSH2 0x43E JUMPI JUMPDEST POP PUSH1 0x13 PUSH0 MSTORE PUSH1 0x20 PUSH0 KECCAK256 SWAP1 PUSH0 JUMPDEST PUSH1 0x7 DUP2 LT PUSH2 0x421 JUMPI PUSH2 0x1D8 PUSH2 0x53E JUMP JUMPDEST PUSH9 0x56BC75E2D63100000 DUP2 MSTORE PUSH9 0xAD78EBC5AC6200000 PUSH1 0x20 DUP3 ADD MSTORE PUSH9 0x15AF1D78B58C400000 PUSH1 0x40 DUP3 ADD MSTORE PUSH9 0x2B5E3AF16B18800000 PUSH1 0x60 DUP3 ADD MSTORE PUSH9 0x56BC75E2D631000000 PUSH1 0x80 DUP3 ADD MSTORE PUSH9 0xAD78EBC5AC62000000 PUSH1 0xA0 DUP3 ADD MSTORE PUSH10 0x15AF1D78B58C4000000 PUSH1 0xC0 DUP3 ADD MSTORE PUSH10 0x2B5E3AF16B188000000 PUSH1 0xE0 DUP3 ADD MSTORE PUSH1 0x14 SLOAD PUSH1 0x8 PUSH1 0x14 SSTORE DUP1 PUSH1 0x8 LT PUSH2 0x3CB JUMPI JUMPDEST POP PUSH1 0x14 PUSH0 MSTORE PUSH1 0x20 PUSH0 KECCAK256 SWAP1 PUSH0 JUMPDEST PUSH1 0x8 DUP2 LT PUSH2 0x3AE JUMPI PUSH2 0x27C PUSH2 0x51F JUMP JUMPDEST PUSH1 0x3 DUP2 MSTORE PUSH1 0x5 PUSH1 0x20 DUP3 ADD MSTORE PUSH1 0x7 PUSH1 0x40 DUP3 ADD MSTORE PUSH1 0x9 PUSH1 0x60 DUP3 ADD MSTORE PUSH1 0xB PUSH1 0x80 DUP3 ADD MSTORE PUSH1 0xD PUSH1 0xA0 DUP3 ADD MSTORE PUSH1 0xF PUSH1 0xC0 DUP3 ADD MSTORE PUSH0 JUMPDEST PUSH1 0x7 DUP2 LT PUSH2 0x396 JUMPI PUSH2 0x2BC PUSH2 0x53E JUMP JUMPDEST PUSH1 0x4 DUP2 MSTORE PUSH1 0x5 PUSH1 0x20 DUP3 ADD MSTORE PUSH1 0x6 PUSH1 0x40 DUP3 ADD MSTORE PUSH1 0x7 PUSH1 0x60 DUP3 ADD MSTORE PUSH1 0x8 PUSH1 0x80 DUP3 ADD MSTORE PUSH1 0x9 PUSH1 0xA0 DUP3 ADD MSTORE PUSH1 0xA PUSH1 0xC0 DUP3 ADD MSTORE PUSH1 0xB PUSH1 0xE0 DUP3 ADD MSTORE PUSH0 JUMPDEST PUSH1 0x8 DUP2 LT PUSH2 0x37E JUMPI PUSH2 0x303 PUSH2 0x53E JUMP JUMPDEST PUSH0 DUP2 MSTORE PUSH1 0x1 PUSH1 0x20 DUP3 ADD MSTORE PUSH1 0x1 PUSH1 0x40 DUP3 ADD MSTORE PUSH1 0x1 PUSH1 0x60 DUP3 ADD MSTORE PUSH1 0x1 PUSH1 0x80 DUP3 ADD MSTORE PUSH1 0x1 PUSH1 0xA0 DUP3 ADD MSTORE PUSH1 0x1 PUSH1 0xC0 DUP3 ADD MSTORE PUSH1 0x1 PUSH1 0xE0 DUP3 ADD MSTORE PUSH0 JUMPDEST PUSH1 0x8 DUP2 LT PUSH2 0x366 JUMPI PUSH1 0x1 PUSH1 0x36 SSTORE PUSH1 0x1 PUSH1 0x37 SSTORE PUSH0 PUSH1 0x38 SSTORE PUSH0 PUSH1 0x39 SSTORE PUSH0 PUSH1 0x3A SSTORE PUSH1 0x40 MLOAD PUSH2 0x1EF7 SWAP1 DUP2 PUSH2 0x575 DUP3 CODECOPY RETURN JUMPDEST PUSH1 0x1 SWAP1 PUSH1 0x20 PUSH1 0xFF DUP5 MLOAD AND SWAP4 ADD SWAP3 DUP2 PUSH1 0x24 ADD SSTORE ADD PUSH2 0x339 JUMP JUMPDEST PUSH1 0x1 SWAP1 PUSH1 0x20 PUSH1 0xFF DUP5 MLOAD AND SWAP4 ADD SWAP3 DUP2 PUSH1 0x1C ADD SSTORE ADD PUSH2 0x2F3 JUMP JUMPDEST PUSH1 0x1 SWAP1 PUSH1 0x20 PUSH1 0xFF DUP5 MLOAD AND SWAP4 ADD SWAP3 DUP2 PUSH1 0x15 ADD SSTORE ADD PUSH2 0x2AC JUMP JUMPDEST DUP2 MLOAD PUSH1 0x1 PUSH1 0x1 PUSH1 0x50 SHL SUB AND DUP2 DUP5 ADD SSTORE PUSH1 0x20 SWAP1 SWAP2 ADD SWAP1 PUSH1 0x1 ADD PUSH2 0x26C JUMP JUMPDEST PUSH1 0x14 PUSH0 MSTORE PUSH2 0x41B SWAP1 PUSH32 0xCE6D7B5282BD9A3661AE061FEED1DBDA4E52AB073B1F9285BE6E155D9C38D4EC ADD PUSH32 0xCE6D7B5282BD9A3661AE061FEED1DBDA4E52AB073B1F9285BE6E155D9C38D4F4 PUSH2 0x55E JUMP JUMPDEST DUP2 PUSH2 0x260 JUMP JUMPDEST DUP2 MLOAD PUSH1 0x1 PUSH1 0x1 PUSH1 0x50 SHL SUB AND DUP2 DUP5 ADD SSTORE PUSH1 0x20 SWAP1 SWAP2 ADD SWAP1 PUSH1 0x1 ADD PUSH2 0x1C8 JUMP JUMPDEST PUSH1 0x13 PUSH0 MSTORE PUSH2 0x48E SWAP1 PUSH32 0x66DE8FFDA797E3DE9C05E8FC57B3BF0EC28A930D40B0D285D93C06501CF6A090 ADD PUSH32 0x66DE8FFDA797E3DE9C05E8FC57B3BF0EC28A930D40B0D285D93C06501CF6A097 PUSH2 0x55E JUMP JUMPDEST DUP2 PUSH2 0x1BC JUMP JUMPDEST DUP2 MLOAD PUSH1 0x1 PUSH1 0x1 PUSH1 0x50 SHL SUB AND DUP2 DUP5 ADD SSTORE PUSH1 0x20 SWAP1 SWAP2 ADD SWAP1 PUSH1 0x1 ADD PUSH2 0x131 JUMP JUMPDEST PUSH1 0xB PUSH0 MSTORE PUSH2 0x501 SWAP1 PUSH32 0x175B7A638427703F0DBE7BB9BBF987A2551717B34E79F33B5B1008D1FA01DB9 ADD PUSH32 0x175B7A638427703F0DBE7BB9BBF987A2551717B34E79F33B5B1008D1FA01DC8 PUSH2 0x55E JUMP JUMPDEST PUSH0 PUSH2 0x125 JUMP JUMPDEST PUSH4 0x4E487B71 PUSH1 0xE0 SHL PUSH0 MSTORE PUSH1 0x41 PUSH1 0x4 MSTORE PUSH1 0x24 PUSH0 REVERT JUMPDEST PUSH0 DUP1 REVERT JUMPDEST PUSH1 0x40 MLOAD SWAP1 PUSH1 0xE0 DUP3 ADD PUSH1 0x1 PUSH1 0x1 PUSH1 0x40 SHL SUB DUP2 GT DUP4 DUP3 LT OR PUSH2 0x507 JUMPI PUSH1 0x40 MSTORE JUMP JUMPDEST PUSH1 0x40 MLOAD SWAP1 PUSH2 0x100 DUP3 ADD PUSH1 0x1 PUSH1 0x1 PUSH1 0x40 SHL SUB DUP2 GT DUP4 DUP3 LT OR PUSH2 0x507 JUMPI PUSH1 0x40 MSTORE JUMP JUMPDEST DUP2 DUP2 LT PUSH2 0x569 JUMPI POP POP JUMP JUMPDEST PUSH0 DUP2 SSTORE PUSH1 0x1 ADD PUSH2 0x55E JUMP INVALID PUSH1 0x80 DUP1 PUSH1 0x40 MSTORE PUSH1 0x4 CALLDATASIZE LT ISZERO PUSH2 0x12 JUMPI PUSH0 DUP1 REVERT JUMPDEST PUSH0 CALLDATALOAD PUSH1 0xE0 SHR SWAP1 DUP2 PUSH4 0x1C234A8 EQ PUSH2 0xE12 JUMPI POP DUP1 PUSH4 0x2132D204 EQ PUSH2 0xDE6 JUMPI DUP1 PUSH4 0x2350268F EQ PUSH2 0xDBD JUMPI DUP1 PUSH4 0x2A891534 EQ PUSH2 0xDA0 JUMPI DUP1 PUSH4 0x2F48AB7D EQ PUSH2 0xD78 JUMPI DUP1 PUSH4 0x3080B5BC EQ PUSH2 0xD5B JUMPI DUP1 PUSH4 0x32BC298C EQ PUSH2 0xD3E JUMPI DUP1 PUSH4 0x32FCD966 EQ PUSH2 0xD1C JUMPI DUP1 PUSH4 0x375B43B4 EQ PUSH2 0xD01 JUMPI DUP1 PUSH4 0x39AB3603 EQ PUSH2 0xCA7 JUMPI DUP1 PUSH4 0x4060160A EQ PUSH2 0xA7A JUMPI DUP1 PUSH4 0x58C7D352 EQ PUSH2 0xA5F JUMPI DUP1 PUSH4 0x67D52D4D EQ PUSH2 0xA08 JUMPI DUP1 PUSH4 0x76F5F700 EQ PUSH2 0x9EB JUMPI DUP1 PUSH4 0x7848F0A3 EQ PUSH2 0x88D JUMPI DUP1 PUSH4 0x78F6AD6D EQ PUSH2 0x870 JUMPI DUP1 PUSH4 0x7CDC65F2 EQ PUSH2 0x848 JUMPI DUP1 PUSH4 0x8E222E24 EQ PUSH2 0x61D JUMPI DUP1 PUSH4 0x956A3228 EQ PUSH2 0x5F1 JUMPI DUP1 PUSH4 0xAE4708DC EQ PUSH2 0x5B9 JUMPI DUP1 PUSH4 0xBC1FA7C0 EQ PUSH2 0x36A JUMPI DUP1 PUSH4 0xBFF1F9E1 EQ PUSH2 0x34D JUMPI DUP1 PUSH4 0xC216212A EQ PUSH2 0x2DF JUMPI DUP1 PUSH4 0xC8DF2908 EQ PUSH2 0x2BB JUMPI DUP1 PUSH4 0xC9ED0708 EQ PUSH2 0x29E JUMPI DUP1 PUSH4 0xCA8E9121 EQ PUSH2 0x281 JUMPI DUP1 PUSH4 0xD0A2FD79 EQ PUSH2 0x255 JUMPI DUP1 PUSH4 0xE898FC38 EQ PUSH2 0x238 JUMPI DUP1 PUSH4 0xE9E34A16 EQ PUSH2 0x210 JUMPI DUP1 PUSH4 0xEBE0FF15 EQ PUSH2 0x1ED JUMPI DUP1 PUSH4 0xEC597E6F EQ PUSH2 0x1D0 JUMPI DUP1 PUSH4 0xF5D74D93 EQ PUSH2 0x1A8 JUMPI PUSH4 0xFDDC806F EQ PUSH2 0x187 JUMPI PUSH0 DUP1 REVERT JUMPDEST CALLVALUE PUSH2 0x1A4 JUMPI PUSH0 CALLDATASIZE PUSH1 0x3 NOT ADD SLT PUSH2 0x1A4 JUMPI PUSH1 0x20 PUSH1 0x38 SLOAD PUSH1 0x40 MLOAD SWAP1 DUP2 MSTORE RETURN JUMPDEST PUSH0 DUP1 REVERT JUMPDEST CALLVALUE PUSH2 0x1A4 JUMPI PUSH0 CALLDATASIZE PUSH1 0x3 NOT ADD SLT PUSH2 0x1A4 JUMPI PUSH1 0x4 SLOAD PUSH1 0x40 MLOAD PUSH1 0x1 PUSH1 0x1 PUSH1 0xA0 SHL SUB SWAP1 SWAP2 AND DUP2 MSTORE PUSH1 0x20 SWAP1 RETURN JUMPDEST CALLVALUE PUSH2 0x1A4 JUMPI PUSH0 CALLDATASIZE PUSH1 0x3 NOT ADD SLT PUSH2 0x1A4 JUMPI PUSH1 0x20 PUSH1 0x5 SLOAD PUSH1 0x40 MLOAD SWAP1 DUP2 MSTORE RETURN JUMPDEST CALLVALUE PUSH2 0x1A4 JUMPI PUSH0 CALLDATASIZE PUSH1 0x3 NOT ADD SLT PUSH2 0x1A4 JUMPI PUSH1 0x20 PUSH1 0x40 MLOAD PUSH9 0x3635C9ADC5DEA00000 DUP2 MSTORE RETURN JUMPDEST CALLVALUE PUSH2 0x1A4 JUMPI PUSH0 CALLDATASIZE PUSH1 0x3 NOT ADD SLT PUSH2 0x1A4 JUMPI PUSH1 0x3 SLOAD PUSH1 0x40 MLOAD PUSH1 0x1 PUSH1 0x1 PUSH1 0xA0 SHL SUB SWAP1 SWAP2 AND DUP2 MSTORE PUSH1 0x20 SWAP1 RETURN JUMPDEST CALLVALUE PUSH2 0x1A4 JUMPI PUSH0 CALLDATASIZE PUSH1 0x3 NOT ADD SLT PUSH2 0x1A4 JUMPI PUSH1 0x20 PUSH1 0x39 SLOAD PUSH1 0x40 MLOAD SWAP1 DUP2 MSTORE RETURN JUMPDEST CALLVALUE PUSH2 0x1A4 JUMPI PUSH1 0x20 CALLDATASIZE PUSH1 0x3 NOT ADD SLT PUSH2 0x1A4 JUMPI PUSH1 0x4 CALLDATALOAD PUSH1 0x8 DUP2 LT ISZERO PUSH2 0x1A4 JUMPI PUSH1 0x20 SWAP1 PUSH1 0x1C ADD SLOAD PUSH1 0x40 MLOAD SWAP1 DUP2 MSTORE RETURN JUMPDEST CALLVALUE PUSH2 0x1A4 JUMPI PUSH0 CALLDATASIZE PUSH1 0x3 NOT ADD SLT PUSH2 0x1A4 JUMPI PUSH1 0x20 PUSH1 0x36 SLOAD PUSH1 0x40 MLOAD SWAP1 DUP2 MSTORE RETURN JUMPDEST CALLVALUE PUSH2 0x1A4 JUMPI PUSH0 CALLDATASIZE PUSH1 0x3 NOT ADD SLT PUSH2 0x1A4 JUMPI PUSH1 0x20 PUSH1 0x37 SLOAD PUSH1 0x40 MLOAD SWAP1 DUP2 MSTORE RETURN JUMPDEST CALLVALUE PUSH2 0x1A4 JUMPI PUSH0 CALLDATASIZE PUSH1 0x3 NOT ADD SLT PUSH2 0x1A4 JUMPI PUSH1 0x20 PUSH1 0x40 MLOAD PUSH10 0x21E19E0C9BAB2400000 DUP2 MSTORE RETURN JUMPDEST CALLVALUE PUSH2 0x1A4 JUMPI PUSH1 0x20 CALLDATASIZE PUSH1 0x3 NOT ADD SLT PUSH2 0x1A4 JUMPI PUSH1 0x4 CALLDATALOAD PUSH1 0xB SLOAD DUP2 LT ISZERO PUSH2 0x1A4 JUMPI PUSH1 0xB SLOAD DUP2 LT ISZERO PUSH2 0x339 JUMPI PUSH1 0xB PUSH0 MSTORE PUSH32 0x175B7A638427703F0DBE7BB9BBF987A2551717B34E79F33B5B1008D1FA01DB9 ADD SLOAD PUSH1 0x40 MLOAD SWAP1 DUP2 MSTORE PUSH1 0x20 SWAP1 RETURN JUMPDEST PUSH4 0x4E487B71 PUSH1 0xE0 SHL PUSH0 MSTORE PUSH1 0x32 PUSH1 0x4 MSTORE PUSH1 0x24 PUSH0 REVERT JUMPDEST CALLVALUE PUSH2 0x1A4 JUMPI PUSH0 CALLDATASIZE PUSH1 0x3 NOT ADD SLT PUSH2 0x1A4 JUMPI PUSH1 0x20 PUSH1 0x6 SLOAD PUSH1 0x40 MLOAD SWAP1 DUP2 MSTORE RETURN JUMPDEST CALLVALUE PUSH2 0x1A4 JUMPI PUSH1 0x20 CALLDATASIZE PUSH1 0x3 NOT ADD SLT PUSH2 0x1A4 JUMPI PUSH1 0x4 CALLDATALOAD DUP1 PUSH0 MSTORE PUSH1 0xD PUSH1 0x20 MSTORE PUSH1 0x40 PUSH0 KECCAK256 PUSH2 0x39E PUSH1 0x1 DUP1 PUSH1 0xA0 SHL SUB DUP3 SLOAD AND CALLER EQ PUSH2 0xE71 JUMP JUMPDEST PUSH1 0xD DUP2 ADD SWAP1 DUP2 SLOAD SWAP2 PUSH1 0x8 DUP4 LT PUSH2 0x3B3 DUP2 PUSH2 0xEB0 JUMP JUMPDEST ISZERO PUSH2 0x339 JUMPI DUP3 PUSH1 0x1C ADD SLOAD DUP4 PUSH1 0x24 ADD SLOAD SWAP1 PUSH1 0x6 DUP5 ADD SLOAD LT ISZERO SWAP1 DUP2 PUSH2 0x5AA JUMPI JUMPDEST POP ISZERO PUSH2 0x56D JUMPI DUP3 PUSH2 0x568 JUMPI JUMPDEST DUP4 PUSH0 MSTORE PUSH1 0x35 PUSH1 0x20 MSTORE PUSH1 0x40 PUSH0 KECCAK256 DUP4 PUSH0 MSTORE PUSH1 0x20 MSTORE PUSH2 0x400 PUSH1 0xFF PUSH1 0x40 PUSH0 KECCAK256 SLOAD AND ISZERO PUSH2 0xEEB JUMP JUMPDEST PUSH2 0x409 DUP4 PUSH2 0xE2C JUMP JUMPDEST SWAP1 SLOAD PUSH1 0x1 SLOAD PUSH1 0x40 MLOAD PUSH4 0x23B872DD PUSH1 0xE0 SHL DUP2 MSTORE CALLER PUSH1 0x4 DUP3 ADD MSTORE ADDRESS PUSH1 0x24 DUP3 ADD MSTORE PUSH1 0x3 SWAP4 SWAP1 SWAP4 SHL SWAP2 SWAP1 SWAP2 SHR PUSH1 0x44 DUP4 ADD DUP2 SWAP1 MSTORE SWAP3 SWAP2 SWAP1 PUSH1 0x20 SWAP1 DUP3 SWAP1 PUSH1 0x64 SWAP1 DUP3 SWAP1 PUSH0 SWAP1 PUSH1 0x1 PUSH1 0x1 PUSH1 0xA0 SHL SUB AND GAS CALL DUP1 ISZERO PUSH2 0x55D JUMPI PUSH2 0x530 JUMPI JUMPDEST POP DUP1 SLOAD SWAP3 PUSH1 0x1 DUP5 ADD DUP1 SWAP5 GT PUSH2 0x51C JUMPI PUSH2 0x4D8 SWAP4 PUSH1 0x1 SWAP3 SSTORE DUP6 PUSH0 MSTORE PUSH1 0x35 PUSH1 0x20 MSTORE PUSH1 0x40 PUSH0 KECCAK256 DUP6 PUSH0 MSTORE PUSH1 0x20 MSTORE PUSH1 0x40 PUSH0 KECCAK256 DUP3 PUSH1 0xFF NOT DUP3 SLOAD AND OR SWAP1 SSTORE PUSH1 0xE DUP2 ADD PUSH2 0x4A3 DUP5 DUP3 SLOAD PUSH2 0xFB6 JUMP JUMPDEST SWAP1 SSTORE PUSH2 0x4B0 DUP4 DUP8 DUP8 PUSH2 0x1643 JUMP JUMPDEST PUSH1 0x40 MLOAD SWAP3 PUSH2 0x4BD DUP5 PUSH2 0xF30 JUMP JUMPDEST DUP4 MSTORE PUSH0 PUSH1 0x20 DUP5 ADD MSTORE TIMESTAMP PUSH1 0x40 DUP5 ADD MSTORE PUSH1 0xB PUSH1 0x60 DUP5 ADD MSTORE ADD PUSH2 0xFC3 JUMP JUMPDEST PUSH1 0x1 DUP2 ADD DUP1 SWAP2 GT PUSH2 0x51C JUMPI PUSH1 0x40 MLOAD SWAP1 DUP2 MSTORE PUSH1 0x40 PUSH1 0x20 DUP3 ADD MSTORE PUSH1 0x7 PUSH1 0x40 DUP3 ADD MSTORE PUSH7 0x2137B7B9BA32B9 PUSH1 0xC9 SHL PUSH1 0x60 DUP3 ADD MSTORE PUSH0 MLOAD PUSH1 0x20 PUSH2 0x1EA2 PUSH0 CODECOPY PUSH0 MLOAD SWAP1 PUSH0 MSTORE PUSH1 0x80 CALLER SWAP3 LOG3 STOP JUMPDEST PUSH4 0x4E487B71 PUSH1 0xE0 SHL PUSH0 MSTORE PUSH1 0x11 PUSH1 0x4 MSTORE PUSH1 0x24 PUSH0 REVERT JUMPDEST PUSH2 0x551 SWAP1 PUSH1 0x20 RETURNDATASIZE PUSH1 0x20 GT PUSH2 0x556 JUMPI JUMPDEST PUSH2 0x549 DUP2 DUP4 PUSH2 0xF7C JUMP JUMPDEST DUP2 ADD SWAP1 PUSH2 0xF9E JUMP JUMPDEST PUSH2 0x45D JUMP JUMPDEST POP RETURNDATASIZE PUSH2 0x53F JUMP JUMPDEST PUSH1 0x40 MLOAD RETURNDATASIZE PUSH0 DUP3 RETURNDATACOPY RETURNDATASIZE SWAP1 REVERT JUMPDEST PUSH2 0x3DD JUMP JUMPDEST PUSH1 0x40 MLOAD PUSH3 0x461BCD PUSH1 0xE5 SHL DUP2 MSTORE PUSH1 0x20 PUSH1 0x4 DUP3 ADD MSTORE PUSH1 0x15 PUSH1 0x24 DUP3 ADD MSTORE PUSH21 0x155C19DC9859194814DB1BDD08185B9908141BDBDB PUSH1 0x5A SHL PUSH1 0x44 DUP3 ADD MSTORE PUSH1 0x64 SWAP1 REVERT JUMPDEST SWAP1 POP PUSH1 0xB DUP4 ADD SLOAD LT ISZERO DUP6 PUSH2 0x3D1 JUMP JUMPDEST CALLVALUE PUSH2 0x1A4 JUMPI PUSH1 0x20 CALLDATASIZE PUSH1 0x3 NOT ADD SLT PUSH2 0x1A4 JUMPI PUSH1 0x4 CALLDATALOAD PUSH1 0x13 SLOAD DUP2 LT ISZERO PUSH2 0x1A4 JUMPI PUSH2 0x5E2 PUSH1 0x20 SWAP2 PUSH2 0xE44 JUMP JUMPDEST SWAP1 SLOAD SWAP1 PUSH1 0x3 SHL SHR PUSH1 0x40 MLOAD SWAP1 DUP2 MSTORE RETURN JUMPDEST CALLVALUE PUSH2 0x1A4 JUMPI PUSH1 0x20 CALLDATASIZE PUSH1 0x3 NOT ADD SLT PUSH2 0x1A4 JUMPI PUSH1 0x4 CALLDATALOAD PUSH1 0x8 DUP2 LT ISZERO PUSH2 0x1A4 JUMPI PUSH1 0x20 SWAP1 PUSH1 0x24 ADD SLOAD PUSH1 0x40 MLOAD SWAP1 DUP2 MSTORE RETURN JUMPDEST CALLVALUE PUSH2 0x1A4 JUMPI PUSH1 0x40 CALLDATASIZE PUSH1 0x3 NOT ADD SLT PUSH2 0x1A4 JUMPI PUSH1 0x4 CALLDATALOAD PUSH4 0xFFFFFFFF DUP2 AND DUP1 SWAP2 SUB PUSH2 0x1A4 JUMPI PUSH1 0x24 CALLDATALOAD DUP2 PUSH0 MSTORE PUSH1 0xD PUSH1 0x20 MSTORE PUSH1 0x40 PUSH0 KECCAK256 PUSH2 0x662 PUSH1 0x1 DUP1 PUSH1 0xA0 SHL SUB DUP3 SLOAD AND CALLER EQ PUSH2 0xE71 JUMP JUMPDEST PUSH1 0xB DUP2 ADD SWAP2 PUSH2 0x674 PUSH1 0x7 DUP5 SLOAD LT PUSH2 0x1178 JUMP JUMPDEST PUSH1 0x1 DUP2 ADD SWAP3 DUP4 DUP3 GT PUSH2 0x51C JUMPI PUSH1 0x13 SLOAD DUP5 LT ISZERO PUSH2 0x812 JUMPI PUSH2 0x693 DUP5 PUSH2 0xE44 JUMP JUMPDEST SWAP1 SLOAD SWAP1 PUSH1 0x3 SHL SHR DUP3 PUSH0 MSTORE PUSH1 0x2C PUSH1 0x20 MSTORE PUSH1 0x40 PUSH0 KECCAK256 DUP7 PUSH0 MSTORE PUSH1 0x20 MSTORE PUSH1 0x40 PUSH0 KECCAK256 DUP1 SLOAD DUP3 DUP2 LT PUSH2 0x7CD JUMPI DUP8 PUSH0 MSTORE PUSH1 0x31 PUSH1 0x20 MSTORE PUSH1 0x40 PUSH0 KECCAK256 DUP8 PUSH0 MSTORE PUSH1 0x20 MSTORE PUSH1 0xFF PUSH1 0x40 PUSH0 KECCAK256 SLOAD AND PUSH2 0x788 JUMPI DUP3 PUSH2 0x6E1 SWAP2 PUSH2 0x11B2 JUMP JUMPDEST SWAP1 SSTORE DUP2 SLOAD SWAP2 PUSH1 0x1 DUP4 ADD DUP1 SWAP4 GT PUSH2 0x51C JUMPI PUSH1 0x2 SWAP5 PUSH2 0x738 SWAP4 PUSH1 0x1 SWAP3 SSTORE PUSH1 0xC DUP2 ADD PUSH2 0x70B DUP5 DUP3 SLOAD PUSH2 0xFB6 JUMP JUMPDEST SWAP1 SSTORE DUP8 PUSH0 MSTORE PUSH1 0x31 PUSH1 0x20 MSTORE PUSH1 0x40 PUSH0 KECCAK256 DUP8 PUSH0 MSTORE PUSH1 0x20 MSTORE PUSH1 0x40 PUSH0 KECCAK256 DUP3 PUSH1 0xFF NOT DUP3 SLOAD AND OR SWAP1 SSTORE PUSH2 0x4B0 DUP4 DUP10 DUP10 PUSH2 0x1268 JUMP JUMPDEST ADD DUP1 SWAP2 GT PUSH2 0x51C JUMPI PUSH1 0x40 MLOAD SWAP1 DUP2 MSTORE PUSH1 0x40 PUSH1 0x20 DUP3 ADD MSTORE PUSH1 0x16 PUSH1 0x40 DUP3 ADD MSTORE PUSH22 0x506F6F6C205570677261646520284561726E696E6729 PUSH1 0x50 SHL PUSH1 0x60 DUP3 ADD MSTORE PUSH0 MLOAD PUSH1 0x20 PUSH2 0x1EA2 PUSH0 CODECOPY PUSH0 MLOAD SWAP1 PUSH0 MSTORE PUSH1 0x80 CALLER SWAP3 LOG3 STOP JUMPDEST PUSH1 0x40 MLOAD PUSH3 0x461BCD PUSH1 0xE5 SHL DUP2 MSTORE PUSH1 0x20 PUSH1 0x4 DUP3 ADD MSTORE PUSH1 0x1B PUSH1 0x24 DUP3 ADD MSTORE PUSH32 0x416C726561647920707572636861736564206E65787420706F6F6C0000000000 PUSH1 0x44 DUP3 ADD MSTORE PUSH1 0x64 SWAP1 REVERT JUMPDEST PUSH1 0x40 MLOAD PUSH3 0x461BCD PUSH1 0xE5 SHL DUP2 MSTORE PUSH1 0x20 PUSH1 0x4 DUP3 ADD MSTORE PUSH1 0x1C PUSH1 0x24 DUP3 ADD MSTORE PUSH32 0x4E6F7420656E6F756768206E65787420706F6F6C2062616C616E636500000000 PUSH1 0x44 DUP3 ADD MSTORE PUSH1 0x64 SWAP1 REVERT JUMPDEST PUSH1 0x40 MLOAD PUSH3 0x461BCD PUSH1 0xE5 SHL DUP2 MSTORE PUSH1 0x20 PUSH1 0x4 DUP3 ADD MSTORE PUSH1 0xE PUSH1 0x24 DUP3 ADD MSTORE PUSH14 0x139BC81A1A59DA195C881C1BDBDB PUSH1 0x92 SHL PUSH1 0x44 DUP3 ADD MSTORE PUSH1 0x64 SWAP1 REVERT JUMPDEST CALLVALUE PUSH2 0x1A4 JUMPI PUSH0 CALLDATASIZE PUSH1 0x3 NOT ADD SLT PUSH2 0x1A4 JUMPI PUSH1 0x2 SLOAD PUSH1 0x40 MLOAD PUSH1 0x1 PUSH1 0x1 PUSH1 0xA0 SHL SUB SWAP1 SWAP2 AND DUP2 MSTORE PUSH1 0x20 SWAP1 RETURN JUMPDEST CALLVALUE PUSH2 0x1A4 JUMPI PUSH0 CALLDATASIZE PUSH1 0x3 NOT ADD SLT PUSH2 0x1A4 JUMPI PUSH1 0x20 PUSH1 0x9 SLOAD PUSH1 0x40 MLOAD SWAP1 DUP2 MSTORE RETURN JUMPDEST CALLVALUE PUSH2 0x1A4 JUMPI PUSH1 0x40 CALLDATASIZE PUSH1 0x3 NOT ADD SLT PUSH2 0x1A4 JUMPI PUSH1 0x4 CALLDATALOAD PUSH1 0x24 CALLDATALOAD DUP2 PUSH0 MSTORE PUSH1 0xD PUSH1 0x20 MSTORE PUSH1 0x40 PUSH0 KECCAK256 PUSH2 0x8C4 PUSH1 0x1 DUP1 PUSH1 0xA0 SHL SUB DUP3 SLOAD AND CALLER EQ PUSH2 0xE71 JUMP JUMPDEST PUSH2 0x8D4 PUSH1 0x7 PUSH1 0xB DUP4 ADD SLOAD LT PUSH2 0x1178 JUMP JUMPDEST PUSH2 0x8DD DUP3 PUSH2 0xE44 JUMP JUMPDEST SWAP1 SLOAD SWAP1 PUSH1 0x3 SHL SHR DUP3 PUSH0 MSTORE PUSH1 0x2C PUSH1 0x20 MSTORE PUSH1 0x40 PUSH0 KECCAK256 DUP5 PUSH0 MSTORE PUSH1 0x20 MSTORE PUSH1 0x1 PUSH1 0x40 PUSH0 KECCAK256 ADD SWAP2 DUP3 SLOAD SWAP1 DUP3 DUP3 LT PUSH2 0x9A6 JUMPI PUSH2 0x95E SWAP4 PUSH2 0x918 DUP5 PUSH1 0x1 SWAP5 PUSH2 0x11B2 JUMP JUMPDEST SWAP1 SSTORE PUSH1 0xC DUP2 ADD PUSH2 0x929 DUP5 DUP3 SLOAD PUSH2 0xFB6 JUMP JUMPDEST SWAP1 SSTORE PUSH2 0x936 DUP4 DUP8 DUP8 PUSH2 0x1268 JUMP JUMPDEST PUSH1 0x40 MLOAD SWAP3 PUSH2 0x943 DUP5 PUSH2 0xF30 JUMP JUMPDEST DUP4 MSTORE PUSH0 PUSH1 0x20 DUP5 ADD MSTORE TIMESTAMP PUSH1 0x40 DUP5 ADD MSTORE PUSH1 0xA PUSH1 0x60 DUP5 ADD MSTORE ADD PUSH2 0xFC3 JUMP JUMPDEST PUSH1 0x40 MLOAD SWAP1 DUP2 MSTORE PUSH1 0x40 PUSH1 0x20 DUP3 ADD MSTORE PUSH1 0x16 PUSH1 0x40 DUP3 ADD MSTORE PUSH22 0x506F6F6C205265546F70757020284561726E696E6729 PUSH1 0x50 SHL PUSH1 0x60 DUP3 ADD MSTORE PUSH0 MLOAD PUSH1 0x20 PUSH2 0x1EA2 PUSH0 CODECOPY PUSH0 MLOAD SWAP1 PUSH0 MSTORE PUSH1 0x80 CALLER SWAP3 LOG3 STOP JUMPDEST PUSH1 0x40 MLOAD PUSH3 0x461BCD PUSH1 0xE5 SHL DUP2 MSTORE PUSH1 0x20 PUSH1 0x4 DUP3 ADD MSTORE PUSH1 0x1A PUSH1 0x24 DUP3 ADD MSTORE PUSH32 0x4E6F7420656E6F756768207265546F7075702062616C616E6365000000000000 PUSH1 0x44 DUP3 ADD MSTORE PUSH1 0x64 SWAP1 REVERT JUMPDEST CALLVALUE PUSH2 0x1A4 JUMPI PUSH0 CALLDATASIZE PUSH1 0x3 NOT ADD SLT PUSH2 0x1A4 JUMPI PUSH1 0x20 PUSH1 0x40 MLOAD PUSH3 0x93A80 DUP2 MSTORE RETURN JUMPDEST CALLVALUE PUSH2 0x1A4 JUMPI PUSH1 0x20 CALLDATASIZE PUSH1 0x3 NOT ADD SLT PUSH2 0x1A4 JUMPI PUSH1 0x60 PUSH2 0xA26 PUSH1 0x4 CALLDATALOAD PUSH2 0x101A JUMP JUMPDEST SWAP2 SWAP1 PUSH1 0x20 PUSH1 0x40 MLOAD SWAP4 DUP5 SWAP3 ISZERO ISZERO DUP4 MSTORE PUSH1 0x40 DUP3 DUP5 ADD MSTORE DUP1 MLOAD SWAP2 DUP3 SWAP2 DUP3 PUSH1 0x40 DUP7 ADD MSTORE ADD DUP5 DUP5 ADD MCOPY PUSH0 DUP3 DUP3 ADD DUP5 ADD MSTORE PUSH1 0x1F ADD PUSH1 0x1F NOT AND DUP2 ADD SUB ADD SWAP1 RETURN JUMPDEST CALLVALUE PUSH2 0x1A4 JUMPI PUSH0 CALLDATASIZE PUSH1 0x3 NOT ADD SLT PUSH2 0x1A4 JUMPI PUSH1 0x20 PUSH1 0x40 MLOAD PUSH1 0xA DUP2 MSTORE RETURN JUMPDEST CALLVALUE PUSH2 0x1A4 JUMPI PUSH1 0x20 CALLDATASIZE PUSH1 0x3 NOT ADD SLT PUSH2 0x1A4 JUMPI PUSH1 0x4 CALLDATALOAD DUP1 PUSH0 MSTORE PUSH1 0xD PUSH1 0x20 MSTORE PUSH1 0x40 PUSH0 KECCAK256 PUSH2 0xAAE PUSH1 0x1 DUP1 PUSH1 0xA0 SHL SUB DUP3 SLOAD AND CALLER EQ PUSH2 0xE71 JUMP JUMPDEST PUSH1 0xB DUP2 ADD SWAP1 DUP2 SLOAD SWAP2 PUSH1 0x7 DUP4 LT PUSH2 0xAC3 DUP2 PUSH2 0xEB0 JUMP JUMPDEST ISZERO PUSH2 0x339 JUMPI DUP3 PUSH1 0x15 ADD SLOAD PUSH1 0x6 DUP4 ADD SLOAD LT PUSH2 0xC62 JUMPI DUP3 ISZERO SWAP1 DUP2 ISZERO PUSH2 0xC5D JUMPI JUMPDEST DUP5 PUSH0 MSTORE PUSH1 0x31 PUSH1 0x20 MSTORE PUSH1 0x40 PUSH0 KECCAK256 DUP5 PUSH0 MSTORE PUSH1 0x20 MSTORE PUSH2 0xB04 PUSH1 0xFF PUSH1 0x40 PUSH0 KECCAK256 SLOAD AND ISZERO PUSH2 0xEEB JUMP JUMPDEST PUSH2 0xB0D DUP5 PUSH2 0xE44 JUMP JUMPDEST SWAP1 SLOAD PUSH1 0x1 SLOAD PUSH1 0x40 MLOAD PUSH4 0x23B872DD PUSH1 0xE0 SHL DUP2 MSTORE CALLER PUSH1 0x4 DUP3 ADD MSTORE ADDRESS PUSH1 0x24 DUP3 ADD MSTORE PUSH1 0x3 SWAP4 SWAP1 SWAP4 SHL SWAP2 SWAP1 SWAP2 SHR PUSH1 0x44 DUP4 ADD DUP2 SWAP1 MSTORE SWAP4 SWAP2 SWAP1 PUSH1 0x20 SWAP1 DUP3 SWAP1 PUSH1 0x64 SWAP1 DUP3 SWAP1 PUSH0 SWAP1 PUSH1 0x1 PUSH1 0x1 PUSH1 0xA0 SHL SUB AND GAS CALL DUP1 ISZERO PUSH2 0x55D JUMPI PUSH2 0xC40 JUMPI JUMPDEST POP PUSH2 0xBED JUMPI JUMPDEST DUP1 SLOAD SWAP3 PUSH1 0x1 DUP5 ADD DUP1 SWAP5 GT PUSH2 0x51C JUMPI PUSH2 0xBAC SWAP4 PUSH1 0x1 SWAP3 SSTORE DUP6 PUSH0 MSTORE PUSH1 0x31 PUSH1 0x20 MSTORE PUSH1 0x40 PUSH0 KECCAK256 DUP6 PUSH0 MSTORE PUSH1 0x20 MSTORE PUSH1 0x40 PUSH0 KECCAK256 DUP3 PUSH1 0xFF NOT DUP3 SLOAD AND OR SWAP1 SSTORE PUSH1 0xC DUP2 ADD PUSH2 0x929 DUP5 DUP3 SLOAD PUSH2 0xFB6 JUMP JUMPDEST PUSH1 0x1 DUP2 ADD DUP1 SWAP2 GT PUSH2 0x51C JUMPI PUSH1 0x40 MLOAD SWAP1 DUP2 MSTORE PUSH1 0x40 PUSH1 0x20 DUP3 ADD MSTORE PUSH1 0x4 PUSH1 0x40 DUP3 ADD MSTORE PUSH4 0x141BDBDB PUSH1 0xE2 SHL PUSH1 0x60 DUP3 ADD MSTORE PUSH0 MLOAD PUSH1 0x20 PUSH2 0x1EA2 PUSH0 CODECOPY PUSH0 MLOAD SWAP1 PUSH0 MSTORE PUSH1 0x80 CALLER SWAP3 LOG3 STOP JUMPDEST PUSH1 0x4 DUP4 ADD SLOAD DUP1 PUSH0 MSTORE PUSH1 0xD PUSH1 0x20 MSTORE PUSH1 0xF PUSH1 0x40 PUSH0 KECCAK256 ADD SLOAD PUSH3 0x2A300 DUP2 ADD DUP1 SWAP2 GT PUSH2 0x51C JUMPI TIMESTAMP LT ISZERO PUSH2 0xC1D JUMPI JUMPDEST POP PUSH2 0xB67 JUMP JUMPDEST PUSH0 MSTORE PUSH1 0xD PUSH1 0x20 MSTORE PUSH1 0x8 PUSH1 0x40 PUSH0 KECCAK256 ADD DUP1 SLOAD SWAP1 PUSH1 0x1 DUP3 ADD DUP1 SWAP3 GT PUSH2 0x51C JUMPI SSTORE DUP6 PUSH2 0xC17 JUMP JUMPDEST PUSH2 0xC58 SWAP1 PUSH1 0x20 RETURNDATASIZE PUSH1 0x20 GT PUSH2 0x556 JUMPI PUSH2 0x549 DUP2 DUP4 PUSH2 0xF7C JUMP JUMPDEST PUSH2 0xB61 JUMP JUMPDEST PUSH2 0xAE1 JUMP JUMPDEST PUSH1 0x40 MLOAD PUSH3 0x461BCD PUSH1 0xE5 SHL DUP2 MSTORE PUSH1 0x20 PUSH1 0x4 DUP3 ADD MSTORE PUSH1 0x18 PUSH1 0x24 DUP3 ADD MSTORE PUSH32 0x5570677261646520796F7572206C6576656C2066697273740000000000000000 PUSH1 0x44 DUP3 ADD MSTORE PUSH1 0x64 SWAP1 REVERT JUMPDEST CALLVALUE PUSH2 0x1A4 JUMPI PUSH1 0x20 CALLDATASIZE PUSH1 0x3 NOT ADD SLT PUSH2 0x1A4 JUMPI PUSH1 0x4 CALLDATALOAD PUSH1 0x7 SLOAD DUP2 LT ISZERO PUSH2 0x1A4 JUMPI PUSH1 0x7 SLOAD DUP2 LT ISZERO PUSH2 0x339 JUMPI PUSH1 0x7 PUSH0 MSTORE PUSH32 0xA66CC928B5EDB82AF9BD49922954155AB7B0942694BEA4CE44661D9A8736C688 ADD SLOAD PUSH1 0x40 MLOAD SWAP1 DUP2 MSTORE PUSH1 0x20 SWAP1 RETURN JUMPDEST CALLVALUE PUSH2 0x1A4 JUMPI PUSH0 CALLDATASIZE PUSH1 0x3 NOT ADD SLT PUSH2 0x1A4 JUMPI PUSH1 0x20 PUSH1 0x40 MLOAD PUSH1 0xF DUP2 MSTORE RETURN JUMPDEST CALLVALUE PUSH2 0x1A4 JUMPI PUSH0 CALLDATASIZE PUSH1 0x3 NOT ADD SLT PUSH2 0x1A4 JUMPI PUSH1 0x20 PUSH1 0x40 MLOAD PUSH8 0xDE0B6B3A7640000 DUP2 MSTORE RETURN JUMPDEST CALLVALUE PUSH2 0x1A4 JUMPI PUSH0 CALLDATASIZE PUSH1 0x3 NOT ADD SLT PUSH2 0x1A4 JUMPI PUSH1 0x20 PUSH1 0x40 MLOAD PUSH3 0x15180 DUP2 MSTORE RETURN JUMPDEST CALLVALUE PUSH2 0x1A4 JUMPI PUSH0 CALLDATASIZE PUSH1 0x3 NOT ADD SLT PUSH2 0x1A4 JUMPI PUSH1 0x20 PUSH1 0x3A SLOAD PUSH1 0x40 MLOAD SWAP1 DUP2 MSTORE RETURN JUMPDEST CALLVALUE PUSH2 0x1A4 JUMPI PUSH0 CALLDATASIZE PUSH1 0x3 NOT ADD SLT PUSH2 0x1A4 JUMPI PUSH1 0x1 SLOAD PUSH1 0x40 MLOAD PUSH1 0x1 PUSH1 0x1 PUSH1 0xA0 SHL SUB SWAP1 SWAP2 AND DUP2 MSTORE PUSH1 0x20 SWAP1 RETURN JUMPDEST CALLVALUE PUSH2 0x1A4 JUMPI PUSH0 CALLDATASIZE PUSH1 0x3 NOT ADD SLT PUSH2 0x1A4 JUMPI PUSH1 0x20 PUSH1 0x40 MLOAD PUSH3 0x278D00 DUP2 MSTORE RETURN JUMPDEST CALLVALUE PUSH2 0x1A4 JUMPI PUSH1 0x20 CALLDATASIZE PUSH1 0x3 NOT ADD SLT PUSH2 0x1A4 JUMPI PUSH1 0x4 CALLDATALOAD PUSH1 0x14 SLOAD DUP2 LT ISZERO PUSH2 0x1A4 JUMPI PUSH2 0x5E2 PUSH1 0x20 SWAP2 PUSH2 0xE2C JUMP JUMPDEST CALLVALUE PUSH2 0x1A4 JUMPI PUSH1 0x20 CALLDATASIZE PUSH1 0x3 NOT ADD SLT PUSH2 0x1A4 JUMPI PUSH1 0x4 CALLDATALOAD PUSH1 0x7 DUP2 LT ISZERO PUSH2 0x1A4 JUMPI PUSH1 0x20 SWAP1 PUSH1 0x15 ADD SLOAD PUSH1 0x40 MLOAD SWAP1 DUP2 MSTORE RETURN JUMPDEST CALLVALUE PUSH2 0x1A4 JUMPI PUSH0 CALLDATASIZE PUSH1 0x3 NOT ADD SLT PUSH2 0x1A4 JUMPI DUP1 PUSH2 0x2710 PUSH1 0x20 SWAP3 MSTORE RETURN JUMPDEST PUSH1 0x14 SLOAD DUP2 LT ISZERO PUSH2 0x339 JUMPI PUSH1 0x14 PUSH0 MSTORE PUSH1 0x20 PUSH0 KECCAK256 ADD SWAP1 PUSH0 SWAP1 JUMP JUMPDEST PUSH1 0x13 SLOAD DUP2 LT ISZERO PUSH2 0x339 JUMPI PUSH1 0x13 PUSH0 MSTORE PUSH1 0x20 PUSH0 KECCAK256 ADD SWAP1 PUSH0 SWAP1 JUMP JUMPDEST DUP1 SLOAD DUP3 LT ISZERO PUSH2 0x339 JUMPI PUSH0 MSTORE PUSH1 0x20 PUSH0 KECCAK256 ADD SWAP1 PUSH0 SWAP1 JUMP JUMPDEST ISZERO PUSH2 0xE78 JUMPI JUMP JUMPDEST PUSH1 0x40 MLOAD PUSH3 0x461BCD PUSH1 0xE5 SHL DUP2 MSTORE PUSH1 0x20 PUSH1 0x4 DUP3 ADD MSTORE PUSH1 0x10 PUSH1 0x24 DUP3 ADD MSTORE PUSH16 0x139BDD081E5BDD5C881858D8DBDD5B9D PUSH1 0x82 SHL PUSH1 0x44 DUP3 ADD MSTORE PUSH1 0x64 SWAP1 REVERT JUMPDEST ISZERO PUSH2 0xEB7 JUMPI JUMP JUMPDEST PUSH1 0x40 MLOAD PUSH3 0x461BCD PUSH1 0xE5 SHL DUP2 MSTORE PUSH1 0x20 PUSH1 0x4 DUP3 ADD MSTORE PUSH1 0xC PUSH1 0x24 DUP3 ADD MSTORE PUSH12 0x105D081B585E081B195D995B PUSH1 0xA2 SHL PUSH1 0x44 DUP3 ADD MSTORE PUSH1 0x64 SWAP1 REVERT JUMPDEST ISZERO PUSH2 0xEF2 JUMPI JUMP JUMPDEST PUSH1 0x40 MLOAD PUSH3 0x461BCD PUSH1 0xE5 SHL DUP2 MSTORE PUSH1 0x20 PUSH1 0x4 DUP3 ADD MSTORE PUSH1 0x16 PUSH1 0x24 DUP3 ADD MSTORE PUSH22 0x141BDBDB08185B1C9958591E481C1D5C98DA185CD959 PUSH1 0x52 SHL PUSH1 0x44 DUP3 ADD MSTORE PUSH1 0x64 SWAP1 REVERT JUMPDEST PUSH1 0x80 DUP2 ADD SWAP1 DUP2 LT PUSH8 0xFFFFFFFFFFFFFFFF DUP3 GT OR PUSH2 0xF4C JUMPI PUSH1 0x40 MSTORE JUMP JUMPDEST PUSH4 0x4E487B71 PUSH1 0xE0 SHL PUSH0 MSTORE PUSH1 0x41 PUSH1 0x4 MSTORE PUSH1 0x24 PUSH0 REVERT JUMPDEST PUSH1 0xA0 DUP2 ADD SWAP1 DUP2 LT PUSH8 0xFFFFFFFFFFFFFFFF DUP3 GT OR PUSH2 0xF4C JUMPI PUSH1 0x40 MSTORE JUMP JUMPDEST SWAP1 PUSH1 0x1F DUP1 NOT SWAP2 ADD AND DUP2 ADD SWAP1 DUP2 LT PUSH8 0xFFFFFFFFFFFFFFFF DUP3 GT OR PUSH2 0xF4C JUMPI PUSH1 0x40 MSTORE JUMP JUMPDEST SWAP1 DUP2 PUSH1 0x20 SWAP2 SUB SLT PUSH2 0x1A4 JUMPI MLOAD DUP1 ISZERO ISZERO DUP2 SUB PUSH2 0x1A4 JUMPI SWAP1 JUMP JUMPDEST SWAP2 SWAP1 DUP3 ADD DUP1 SWAP3 GT PUSH2 0x51C JUMPI JUMP JUMPDEST DUP1 SLOAD PUSH1 0x1 PUSH1 0x40 SHL DUP2 LT ISZERO PUSH2 0xF4C JUMPI PUSH1 0x1 DUP2 ADD DUP1 DUP4 SSTORE DUP2 LT ISZERO PUSH2 0x339 JUMPI PUSH1 0x3 PUSH1 0x60 SWAP2 PUSH1 0xFF SWAP4 PUSH0 MSTORE PUSH1 0x20 PUSH0 KECCAK256 SWAP1 PUSH1 0x2 SHL ADD DUP5 MLOAD DUP2 SSTORE PUSH1 0x20 DUP6 ADD MLOAD PUSH1 0x1 DUP3 ADD SSTORE PUSH1 0x40 DUP6 ADD MLOAD PUSH1 0x2 DUP3 ADD SSTORE ADD SWAP3 ADD MLOAD AND PUSH1 0xFF NOT DUP3 SLOAD AND OR SWAP1 SSTORE JUMP JUMPDEST PUSH1 0x60 SWAP1 PUSH0 MSTORE PUSH1 0xD PUSH1 0x20 MSTORE PUSH1 0x40 PUSH0 KECCAK256 PUSH1 0xB DUP2 ADD SLOAD SWAP2 PUSH1 0x13 SLOAD DUP4 LT ISZERO PUSH2 0x112C JUMPI POP PUSH1 0x7 DUP3 LT ISZERO PUSH2 0x339 JUMPI PUSH1 0x6 DUP3 PUSH1 0x15 ADD SLOAD SWAP2 ADD SLOAD LT PUSH2 0x10DF JUMPI ISZERO ISZERO DUP1 PUSH2 0x10D8 JUMPI JUMPDEST PUSH2 0x109B JUMPI PUSH1 0x1 SWAP1 PUSH1 0x40 MLOAD PUSH2 0x106E PUSH1 0x40 DUP3 PUSH2 0xF7C JUMP JUMPDEST PUSH1 0x19 DUP2 MSTORE PUSH32 0x456C696769626C6520746F20627579206E65787420706F6F6C00000000000000 PUSH1 0x20 DUP3 ADD MSTORE SWAP1 JUMP JUMPDEST PUSH0 SWAP1 PUSH1 0x40 MLOAD PUSH2 0x10AB PUSH1 0x40 DUP3 PUSH2 0xF7C JUMP JUMPDEST PUSH1 0x17 DUP2 MSTORE PUSH32 0x4275792070726576696F757320706F6F6C206669727374000000000000000000 PUSH1 0x20 DUP3 ADD MSTORE SWAP1 JUMP JUMPDEST POP PUSH0 PUSH2 0x1059 JUMP JUMPDEST POP PUSH0 SWAP1 PUSH1 0x40 MLOAD PUSH2 0x10F0 PUSH1 0x60 DUP3 PUSH2 0xF7C JUMP JUMPDEST PUSH1 0x26 DUP2 MSTORE PUSH32 0x596F75206E65656420746F207265616368206120686967686572206C6576656C PUSH1 0x20 DUP3 ADD MSTORE PUSH6 0x8199A5C9CDD PUSH1 0xD2 SHL PUSH1 0x40 DUP3 ADD MSTORE SWAP1 JUMP JUMPDEST SWAP3 SWAP2 POP POP PUSH0 SWAP2 PUSH2 0x113F PUSH1 0x40 MLOAD SWAP2 DUP3 PUSH2 0xF7C JUMP JUMPDEST PUSH1 0x23 DUP2 MSTORE PUSH32 0x596F752061726520616C72656164792061742074686520686967686573742070 PUSH1 0x20 DUP3 ADD MSTORE PUSH3 0x1BDBDB PUSH1 0xEA SHL PUSH1 0x40 DUP3 ADD MSTORE SWAP1 JUMP JUMPDEST ISZERO PUSH2 0x117F JUMPI JUMP JUMPDEST PUSH1 0x40 MLOAD PUSH3 0x461BCD PUSH1 0xE5 SHL DUP2 MSTORE PUSH1 0x20 PUSH1 0x4 DUP3 ADD MSTORE PUSH1 0xB PUSH1 0x24 DUP3 ADD MSTORE PUSH11 0x105D081B585E081C1BDBDB PUSH1 0xAA SHL PUSH1 0x44 DUP3 ADD MSTORE PUSH1 0x64 SWAP1 REVERT JUMPDEST SWAP2 SWAP1 DUP3 SUB SWAP2 DUP3 GT PUSH2 0x51C JUMPI JUMP JUMPDEST ISZERO PUSH2 0x11C6 JUMPI JUMP JUMPDEST PUSH1 0x40 MLOAD PUSH3 0x461BCD PUSH1 0xE5 SHL DUP2 MSTORE PUSH1 0x20 PUSH1 0x4 DUP3 ADD MSTORE PUSH1 0x7 PUSH1 0x24 DUP3 ADD MSTORE PUSH7 0x125B9D985B1A59 PUSH1 0xCA SHL PUSH1 0x44 DUP3 ADD MSTORE PUSH1 0x64 SWAP1 REVERT JUMPDEST ISZERO PUSH2 0x11FC JUMPI JUMP JUMPDEST PUSH1 0x40 MLOAD PUSH3 0x461BCD PUSH1 0xE5 SHL DUP2 MSTORE PUSH1 0x20 PUSH1 0x4 DUP3 ADD MSTORE PUSH1 0x10 PUSH1 0x24 DUP3 ADD MSTORE PUSH16 0x125B98DBDC9C9958DD08185B5BDD5B9D PUSH1 0x82 SHL PUSH1 0x44 DUP3 ADD MSTORE PUSH1 0x64 SWAP1 REVERT JUMPDEST DUP1 SLOAD PUSH1 0x1 PUSH1 0x40 SHL DUP2 LT ISZERO PUSH2 0xF4C JUMPI PUSH2 0x1251 SWAP2 PUSH1 0x1 DUP3 ADD DUP2 SSTORE PUSH2 0xE5C JUMP JUMPDEST DUP2 SWAP3 SWAP2 SLOAD SWAP1 PUSH1 0x3 SHL SWAP2 DUP3 SHL SWAP2 PUSH0 NOT SWAP1 SHL NOT AND OR SWAP1 SSTORE JUMP JUMPDEST SWAP3 SWAP2 PUSH2 0x1277 PUSH1 0x13 SLOAD DUP6 LT PUSH2 0x11BF JUMP JUMPDEST PUSH2 0x1291 PUSH2 0x1283 DUP6 PUSH2 0xE44 JUMP JUMPDEST SWAP1 SLOAD SWAP1 PUSH1 0x3 SHL SHR CALLVALUE EQ PUSH2 0x11F5 JUMP JUMPDEST DUP4 PUSH0 MSTORE PUSH1 0x30 PUSH1 0x20 MSTORE PUSH1 0x40 PUSH0 KECCAK256 SLOAD PUSH2 0x12AA DUP2 PUSH1 0x5 SLOAD PUSH2 0xFB6 JUMP JUMPDEST SWAP1 DUP6 PUSH0 MSTORE PUSH1 0x30 PUSH1 0x20 MSTORE PUSH2 0x12C0 DUP3 PUSH1 0x40 PUSH0 KECCAK256 PUSH2 0x1234 JUMP JUMPDEST PUSH0 NOT DUP2 ADD SWAP1 DUP2 GT PUSH2 0x51C JUMPI PUSH2 0x12E6 PUSH1 0x3 PUSH2 0x138E SWAP3 DUP9 PUSH0 MSTORE PUSH1 0x30 PUSH1 0x20 MSTORE DIV PUSH1 0x40 PUSH0 KECCAK256 PUSH2 0xE5C JUMP JUMPDEST SWAP1 SLOAD SWAP1 PUSH1 0x3 SHL SHR SWAP2 PUSH2 0x1354 PUSH1 0x40 MLOAD PUSH2 0x12FD DUP2 PUSH2 0xF60 JUMP JUMPDEST DUP3 DUP2 MSTORE PUSH1 0x20 DUP1 DUP3 ADD DUP9 DUP2 MSTORE PUSH1 0x40 DUP1 DUP5 ADD DUP13 DUP2 MSTORE PUSH1 0x60 DUP6 ADD DUP10 DUP2 MSTORE PUSH0 PUSH1 0x80 DUP8 ADD DUP2 DUP2 MSTORE DUP16 DUP3 MSTORE PUSH1 0x2D DUP8 MSTORE DUP5 DUP3 KECCAK256 DUP11 DUP4 MSTORE SWAP1 SWAP7 MSTORE SWAP3 SWAP1 SWAP3 KECCAK256 SWAP5 MLOAD DUP6 SSTORE SWAP2 MLOAD PUSH1 0x1 DUP6 ADD SSTORE SWAP1 MLOAD PUSH1 0x2 DUP5 ADD SSTORE MLOAD PUSH1 0x3 DUP4 ADD SSTORE MLOAD PUSH1 0x4 SWAP1 SWAP2 ADD SSTORE JUMP JUMPDEST DUP7 PUSH0 MSTORE PUSH1 0x2F PUSH1 0x20 MSTORE PUSH1 0x40 PUSH0 KECCAK256 DUP6 PUSH0 MSTORE PUSH1 0x20 MSTORE PUSH2 0x1373 DUP2 PUSH1 0x40 PUSH0 KECCAK256 PUSH2 0x1234 JUMP JUMPDEST DUP7 PUSH0 MSTORE PUSH1 0x2E PUSH1 0x20 MSTORE PUSH1 0x40 PUSH0 KECCAK256 DUP4 PUSH0 MSTORE PUSH1 0x20 MSTORE PUSH1 0x40 PUSH0 KECCAK256 PUSH2 0x1234 JUMP JUMPDEST PUSH1 0x3 DUP3 DIV SWAP5 PUSH0 SWAP4 PUSH0 SWAP3 JUMPDEST PUSH1 0x3 DUP5 LT PUSH2 0x13C3 JUMPI JUMPDEST POP POP POP POP PUSH2 0x13B0 SWAP3 SWAP4 POP PUSH2 0x11B2 JUMP JUMPDEST DUP1 PUSH2 0x13B8 JUMPI POP JUMP JUMPDEST PUSH2 0x13C1 SWAP1 PUSH2 0x1B5C JUMP JUMPDEST JUMP JUMPDEST DUP1 ISZERO DUP1 ISZERO PUSH2 0x1638 JUMPI JUMPDEST PUSH2 0x1606 JUMPI DUP3 PUSH0 MSTORE PUSH1 0x2D PUSH1 0x20 MSTORE PUSH1 0x40 PUSH0 KECCAK256 SWAP1 PUSH0 MSTORE PUSH1 0x20 MSTORE PUSH1 0x40 PUSH0 KECCAK256 SWAP5 DUP8 PUSH1 0x1 DUP8 ADD SLOAD PUSH1 0x4 DUP9 ADD DUP1 SLOAD PUSH1 0x27 DUP2 LT PUSH2 0x1418 JUMPI JUMPDEST POP POP POP PUSH2 0x140D PUSH1 0x3 SWAP2 PUSH1 0x1 SWAP4 PUSH2 0xFB6 JUMP JUMPDEST SWAP7 ADD SLOAD SWAP4 ADD SWAP3 PUSH2 0x1398 JUMP JUMPDEST SWAP1 SWAP2 SWAP3 POP PUSH1 0x1 DUP2 ADD DUP1 SWAP2 GT PUSH2 0x51C JUMPI SWAP1 DUP2 SWAP1 SSTORE DUP10 SWAP1 PUSH1 0x18 DUP2 GT PUSH2 0x15A9 JUMPI POP POP DUP1 PUSH0 MSTORE PUSH1 0xE PUSH1 0x20 MSTORE PUSH1 0x8 PUSH1 0x40 PUSH0 KECCAK256 PUSH2 0x1450 DUP12 DUP3 SLOAD PUSH2 0xFB6 JUMP JUMPDEST DUP2 SSTORE ADD PUSH2 0x145E DUP11 DUP3 SLOAD PUSH2 0xFB6 JUMP JUMPDEST SWAP1 SSTORE DUP1 PUSH0 MSTORE PUSH1 0xF PUSH1 0x20 MSTORE PUSH2 0x149E PUSH1 0x40 PUSH0 KECCAK256 PUSH1 0x40 MLOAD SWAP1 PUSH2 0x147C DUP3 PUSH2 0xF60 JUMP JUMPDEST DUP6 DUP3 MSTORE DUP12 PUSH1 0x20 DUP4 ADD MSTORE PUSH1 0x1 PUSH1 0x40 DUP4 ADD MSTORE TIMESTAMP PUSH1 0x60 DUP4 ADD MSTORE PUSH1 0xA PUSH1 0x80 DUP4 ADD MSTORE PUSH2 0x1B01 JUMP JUMPDEST PUSH0 SWAP1 DUP2 MSTORE PUSH1 0xD PUSH1 0x20 MSTORE PUSH1 0x40 SWAP1 KECCAK256 SLOAD DUP9 ISZERO SWAP2 SWAP1 PUSH1 0x1 PUSH1 0x1 PUSH1 0xA0 SHL SUB AND PUSH1 0x5F DUP11 DUP2 MUL SWAP1 DUP12 DUP3 DIV EQ DUP5 OR ISZERO PUSH2 0x51C JUMPI PUSH1 0x1 SLOAD PUSH1 0x40 MLOAD PUSH4 0xA9059CBB PUSH1 0xE0 SHL DUP2 MSTORE PUSH1 0x1 PUSH1 0x1 PUSH1 0xA0 SHL SUB DUP5 DUP2 AND PUSH1 0x4 DUP4 ADD MSTORE PUSH1 0x64 SWAP1 SWAP4 DIV PUSH1 0x24 DUP3 ADD MSTORE SWAP2 PUSH1 0x20 SWAP2 DUP4 SWAP2 PUSH1 0x44 SWAP2 DUP4 SWAP2 PUSH0 SWAP2 AND GAS CALL DUP1 ISZERO PUSH2 0x55D JUMPI PUSH2 0x158D JUMPI JUMPDEST POP PUSH1 0x5 DUP11 MUL SWAP3 DUP11 DUP5 DIV PUSH1 0x5 EQ OR ISZERO PUSH2 0x51C JUMPI DUP10 PUSH1 0x3 SWAP3 PUSH2 0x140D SWAP3 PUSH2 0x1537 PUSH1 0x64 PUSH1 0x1 SWAP8 DIV PUSH2 0x1B5C JUMP JUMPDEST DUP7 PUSH0 MSTORE PUSH1 0xD PUSH1 0x20 MSTORE DUP6 DUP1 PUSH1 0xA0 SHL SUB PUSH1 0x40 PUSH0 KECCAK256 SLOAD AND SWAP1 PUSH32 0xE17B61D324CE17328F433D0AB62581C0F0AA997312BAE80FBDFCD2AA9B91D6E3 PUSH1 0x60 PUSH1 0x40 MLOAD DUP7 DUP2 MSTORE DUP10 PUSH1 0x20 DUP3 ADD MSTORE PUSH1 0xA PUSH1 0x40 DUP3 ADD MSTORE LOG3 JUMPDEST SWAP4 DUP2 SWAP4 POP PUSH2 0x13FC JUMP JUMPDEST PUSH2 0x15A4 SWAP1 PUSH1 0x20 RETURNDATASIZE DUP2 GT PUSH2 0x556 JUMPI PUSH2 0x549 DUP2 DUP4 PUSH2 0xF7C JUMP JUMPDEST PUSH2 0x150F JUMP JUMPDEST PUSH1 0x1 SWAP4 PUSH1 0x3 SWAP4 PUSH2 0x140D SWAP4 SWAP3 PUSH1 0x24 LT PUSH2 0x15E3 JUMPI DUP8 PUSH0 MSTORE PUSH1 0x2C PUSH1 0x20 MSTORE PUSH1 0x40 PUSH0 KECCAK256 SWAP1 PUSH0 MSTORE PUSH1 0x20 MSTORE PUSH1 0x40 PUSH0 KECCAK256 PUSH2 0x15DC DUP4 DUP3 SLOAD PUSH2 0xFB6 JUMP JUMPDEST SWAP1 SSTORE PUSH2 0x1584 JUMP JUMPDEST DUP8 PUSH0 MSTORE PUSH1 0x2C PUSH1 0x20 MSTORE PUSH1 0x40 PUSH0 KECCAK256 SWAP1 PUSH0 MSTORE PUSH1 0x20 MSTORE DUP5 PUSH1 0x40 PUSH0 KECCAK256 ADD PUSH2 0x15DC DUP4 DUP3 SLOAD PUSH2 0xFB6 JUMP JUMPDEST POP POP POP POP PUSH2 0x13B0 SWAP3 SWAP4 POP PUSH2 0x161A DUP3 DUP3 PUSH2 0x11B2 JUMP JUMPDEST DUP1 PUSH2 0x1629 JUMPI JUMPDEST DUP5 SWAP4 DUP2 DUP1 PUSH2 0x13A1 JUMP JUMPDEST PUSH2 0x1632 SWAP1 PUSH2 0x1B5C JUMP JUMPDEST PUSH0 PUSH2 0x1620 JUMP JUMPDEST POP PUSH1 0x5 SLOAD DUP2 EQ PUSH2 0x13CC JUMP JUMPDEST PUSH2 0x1650 PUSH1 0x14 SLOAD DUP3 LT PUSH2 0x11BF JUMP JUMPDEST PUSH2 0x165C PUSH2 0x1283 DUP3 PUSH2 0xE2C JUMP JUMPDEST PUSH0 DUP2 DUP2 MSTORE PUSH1 0x34 PUSH1 0x20 MSTORE PUSH1 0x40 SWAP1 KECCAK256 DUP1 SLOAD SWAP1 PUSH2 0x1677 SWAP1 DUP5 SWAP1 PUSH2 0x1234 JUMP JUMPDEST PUSH0 NOT DUP2 ADD SWAP1 DUP2 GT PUSH2 0x51C JUMPI PUSH1 0x3 PUSH2 0x169A SWAP2 DUP4 PUSH0 MSTORE PUSH1 0x34 PUSH1 0x20 MSTORE DIV PUSH1 0x40 PUSH0 KECCAK256 PUSH2 0xE5C JUMP JUMPDEST SWAP1 SLOAD SWAP1 PUSH1 0x3 SHL SHR SWAP1 PUSH2 0x1708 PUSH1 0x40 MLOAD PUSH2 0x16B1 DUP2 PUSH2 0xF60 JUMP JUMPDEST DUP5 DUP2 MSTORE PUSH1 0x20 DUP1 DUP3 ADD DUP5 DUP2 MSTORE PUSH1 0x40 DUP1 DUP5 ADD DUP8 DUP2 MSTORE PUSH0 PUSH1 0x60 DUP7 ADD DUP2 DUP2 MSTORE TIMESTAMP PUSH1 0x80 DUP9 ADD SWAP1 DUP2 MSTORE DUP10 DUP4 MSTORE PUSH1 0x32 DUP8 MSTORE DUP5 DUP4 KECCAK256 DUP13 DUP5 MSTORE SWAP1 SWAP7 MSTORE SWAP3 SWAP1 KECCAK256 SWAP5 MLOAD DUP6 SSTORE SWAP2 MLOAD PUSH1 0x1 DUP6 ADD SSTORE SWAP1 MLOAD PUSH1 0x2 DUP5 ADD SSTORE MLOAD PUSH1 0x3 DUP4 ADD SSTORE MLOAD PUSH1 0x4 SWAP1 SWAP2 ADD SSTORE JUMP JUMPDEST DUP1 PUSH0 MSTORE PUSH1 0x33 PUSH1 0x20 MSTORE PUSH1 0x40 PUSH0 KECCAK256 DUP3 PUSH0 MSTORE PUSH1 0x20 MSTORE PUSH2 0x1727 DUP4 PUSH1 0x40 PUSH0 KECCAK256 PUSH2 0x1234 JUMP JUMPDEST PUSH1 0x1 DUP2 EQ PUSH2 0x18E7 JUMPI JUMPDEST DUP2 ISZERO DUP1 ISZERO PUSH2 0x18DC JUMPI JUMPDEST PUSH2 0x18D0 JUMPI PUSH0 MSTORE PUSH1 0x32 PUSH1 0x20 MSTORE PUSH1 0x40 PUSH0 KECCAK256 DUP2 PUSH0 MSTORE PUSH1 0x20 MSTORE PUSH1 0x3 PUSH1 0x40 PUSH0 KECCAK256 ADD PUSH1 0x3 DUP2 SLOAD LT PUSH0 EQ PUSH2 0x18D0 JUMPI DUP1 SLOAD SWAP1 PUSH1 0x1 DUP3 ADD DUP1 SWAP3 GT PUSH2 0x51C JUMPI SSTORE DUP1 PUSH0 MSTORE PUSH1 0xE PUSH1 0x20 MSTORE PUSH1 0x9 PUSH1 0x40 PUSH0 KECCAK256 PUSH2 0x1788 DUP6 DUP3 SLOAD PUSH2 0xFB6 JUMP JUMPDEST DUP2 SSTORE ADD PUSH2 0x1796 DUP5 DUP3 SLOAD PUSH2 0xFB6 JUMP JUMPDEST SWAP1 SSTORE DUP1 PUSH0 MSTORE PUSH1 0xF PUSH1 0x20 MSTORE PUSH2 0x17D6 PUSH1 0x40 PUSH0 KECCAK256 PUSH1 0x40 MLOAD SWAP1 PUSH2 0x17B4 DUP3 PUSH2 0xF60 JUMP JUMPDEST DUP5 DUP3 MSTORE DUP6 PUSH1 0x20 DUP4 ADD MSTORE PUSH1 0x1 PUSH1 0x40 DUP4 ADD MSTORE TIMESTAMP PUSH1 0x60 DUP4 ADD MSTORE PUSH1 0xB PUSH1 0x80 DUP4 ADD MSTORE PUSH2 0x1B01 JUMP JUMPDEST PUSH0 SWAP1 DUP2 MSTORE PUSH1 0xD PUSH1 0x20 MSTORE PUSH1 0x40 SWAP1 KECCAK256 SLOAD PUSH1 0x1 PUSH1 0x1 PUSH1 0xA0 SHL SUB AND SWAP1 DUP3 ISZERO PUSH1 0x5F DUP5 DUP2 MUL SWAP1 DUP6 DUP3 DIV EQ DUP3 OR ISZERO PUSH2 0x51C JUMPI PUSH1 0x1 SLOAD PUSH1 0x40 MLOAD PUSH4 0xA9059CBB PUSH1 0xE0 SHL DUP2 MSTORE PUSH1 0x1 PUSH1 0x1 PUSH1 0xA0 SHL SUB DUP7 DUP2 AND PUSH1 0x4 DUP4 ADD MSTORE PUSH1 0x64 SWAP1 SWAP4 DIV PUSH1 0x24 DUP3 ADD MSTORE SWAP2 PUSH1 0x20 SWAP2 DUP4 SWAP2 PUSH1 0x44 SWAP2 DUP4 SWAP2 PUSH0 SWAP2 AND GAS CALL DUP1 ISZERO PUSH2 0x55D JUMPI PUSH2 0x18B3 JUMPI JUMPDEST POP PUSH1 0x5 DUP5 MUL SWAP1 DUP5 DUP3 DIV PUSH1 0x5 EQ OR ISZERO PUSH2 0x51C JUMPI PUSH1 0x64 PUSH2 0x1864 SWAP2 DIV PUSH2 0x1B5C JUMP JUMPDEST PUSH0 MSTORE PUSH1 0xD PUSH1 0x20 MSTORE PUSH32 0xE17B61D324CE17328F433D0AB62581C0F0AA997312BAE80FBDFCD2AA9B91D6E3 PUSH1 0x60 PUSH1 0x1 DUP1 PUSH1 0xA0 SHL SUB PUSH1 0x40 PUSH0 KECCAK256 SLOAD AND SWAP4 PUSH1 0x40 MLOAD SWAP1 DUP2 MSTORE PUSH1 0x1 PUSH1 0x20 DUP3 ADD MSTORE PUSH1 0xB PUSH1 0x40 DUP3 ADD MSTORE LOG3 JUMP JUMPDEST PUSH2 0x18CB SWAP1 PUSH1 0x20 RETURNDATASIZE PUSH1 0x20 GT PUSH2 0x556 JUMPI PUSH2 0x549 DUP2 DUP4 PUSH2 0xF7C JUMP JUMPDEST PUSH2 0x1846 JUMP JUMPDEST POP POP POP PUSH2 0x13C1 SWAP1 PUSH2 0x1B5C JUMP JUMPDEST POP PUSH1 0x5 SLOAD DUP3 EQ PUSH2 0x1739 JUMP JUMPDEST DUP3 PUSH0 MSTORE PUSH1 0xD PUSH1 0x20 MSTORE PUSH1 0x40 PUSH0 KECCAK256 PUSH1 0x40 MLOAD PUSH2 0x200 DUP2 ADD DUP2 DUP2 LT PUSH8 0xFFFFFFFFFFFFFFFF DUP3 GT OR PUSH2 0xF4C JUMPI PUSH1 0x40 MSTORE DUP2 SLOAD PUSH1 0x1 PUSH1 0x1 PUSH1 0xA0 SHL SUB AND DUP2 MSTORE PUSH1 0x1 DUP3 ADD DUP1 SLOAD PUSH8 0xFFFFFFFFFFFFFFFF DUP2 GT PUSH2 0xF4C JUMPI PUSH1 0x40 MLOAD SWAP2 PUSH2 0x1947 PUSH1 0x20 DUP4 PUSH1 0x5 SHL ADD DUP5 PUSH2 0xF7C JUMP JUMPDEST DUP2 DUP4 MSTORE PUSH1 0x20 DUP4 ADD SWAP1 PUSH0 MSTORE PUSH1 0x20 PUSH0 KECCAK256 PUSH0 SWAP2 JUMPDEST DUP4 DUP4 LT PUSH2 0x1A8A JUMPI POP POP POP POP PUSH1 0x20 DUP3 ADD MSTORE PUSH1 0x2 DUP3 ADD SLOAD PUSH1 0x40 DUP3 ADD MSTORE PUSH1 0x3 DUP3 ADD SLOAD PUSH1 0x60 DUP3 ADD MSTORE PUSH2 0x1E0 PUSH1 0xF PUSH1 0x4 DUP5 ADD SLOAD SWAP4 PUSH1 0x80 DUP5 ADD SWAP5 DUP6 MSTORE PUSH1 0x5 DUP2 ADD SLOAD PUSH1 0xA0 DUP6 ADD MSTORE PUSH1 0x6 DUP2 ADD SLOAD PUSH1 0xC0 DUP6 ADD MSTORE PUSH1 0x7 DUP2 ADD SLOAD PUSH1 0xE0 DUP6 ADD MSTORE PUSH1 0x8 DUP2 ADD SLOAD PUSH2 0x100 DUP6 ADD MSTORE PUSH1 0x9 DUP2 ADD SLOAD PUSH2 0x120 DUP6 ADD MSTORE PUSH1 0xA DUP2 ADD SLOAD PUSH2 0x140 DUP6 ADD MSTORE PUSH1 0xB DUP2 ADD SLOAD PUSH2 0x160 DUP6 ADD MSTORE PUSH1 0xC DUP2 ADD SLOAD PUSH2 0x180 DUP6 ADD MSTORE PUSH1 0xD DUP2 ADD SLOAD PUSH2 0x1A0 DUP6 ADD MSTORE PUSH1 0xE DUP2 ADD SLOAD PUSH2 0x1C0 DUP6 ADD MSTORE ADD SLOAD SWAP2 ADD SWAP1 DUP2 MSTORE PUSH1 0x36 SLOAD PUSH0 MSTORE PUSH1 0x3E PUSH1 0x20 MSTORE PUSH1 0x40 PUSH0 KECCAK256 DUP3 MLOAD PUSH0 MSTORE PUSH1 0x20 MSTORE PUSH2 0x1A22 DUP6 PUSH1 0x40 PUSH0 KECCAK256 PUSH2 0x1234 JUMP JUMPDEST PUSH1 0x36 SLOAD SWAP1 DUP2 PUSH0 MSTORE PUSH1 0x3E PUSH1 0x20 MSTORE PUSH1 0x40 PUSH0 KECCAK256 DUP4 MLOAD PUSH0 MSTORE PUSH1 0x20 MSTORE PUSH1 0x40 PUSH0 KECCAK256 SLOAD SWAP1 MLOAD SWAP2 PUSH3 0x15180 DUP4 ADD DUP1 SWAP4 GT PUSH2 0x51C JUMPI PUSH1 0x5 SWAP3 TIMESTAMP GT ISZERO PUSH2 0x1A7A JUMPI JUMPDEST POP LT ISZERO PUSH2 0x1A67 JUMPI JUMPDEST POP PUSH2 0x1730 JUMP JUMPDEST MLOAD PUSH1 0x36 SLOAD PUSH2 0x1A74 SWAP2 PUSH2 0x1ACE JUMP JUMPDEST PUSH0 PUSH2 0x1A61 JUMP JUMPDEST PUSH2 0x1A84 SWAP1 DUP8 PUSH2 0x1ACE JUMP JUMPDEST PUSH0 PUSH2 0x1A59 JUMP JUMPDEST PUSH1 0x4 PUSH1 0x20 PUSH1 0x1 SWAP3 PUSH1 0x40 MLOAD PUSH2 0x1A9D DUP2 PUSH2 0xF30 JUMP JUMPDEST DUP6 SLOAD DUP2 MSTORE DUP5 DUP7 ADD SLOAD DUP4 DUP3 ADD MSTORE PUSH1 0x2 DUP7 ADD SLOAD PUSH1 0x40 DUP3 ADD MSTORE PUSH1 0xFF PUSH1 0x3 DUP8 ADD SLOAD AND PUSH1 0x60 DUP3 ADD MSTORE DUP2 MSTORE ADD SWAP3 ADD SWAP3 ADD SWAP2 SWAP1 PUSH2 0x1958 JUMP JUMPDEST SWAP1 DUP1 PUSH0 MSTORE PUSH1 0x3D PUSH1 0x20 MSTORE PUSH1 0x40 PUSH0 KECCAK256 DUP3 PUSH0 MSTORE PUSH1 0x20 MSTORE PUSH1 0xFF PUSH1 0x4 PUSH1 0x40 PUSH0 KECCAK256 ADD SLOAD PUSH1 0x8 SHR AND ISZERO PUSH2 0x1AF8 JUMPI POP POP JUMP JUMPDEST PUSH2 0x13C1 SWAP2 PUSH2 0x1C7B JUMP JUMPDEST SWAP1 DUP2 SLOAD PUSH1 0x1 PUSH1 0x40 SHL DUP2 LT ISZERO PUSH2 0xF4C JUMPI PUSH1 0x1 DUP2 ADD DUP1 DUP5 SSTORE DUP2 LT ISZERO PUSH2 0x339 JUMPI PUSH2 0x13C1 SWAP3 PUSH0 MSTORE PUSH1 0x5 PUSH1 0x20 PUSH0 KECCAK256 SWAP2 MUL ADD SWAP1 PUSH1 0x80 PUSH1 0x4 SWAP2 DUP1 MLOAD DUP5 SSTORE PUSH1 0x20 DUP2 ADD MLOAD PUSH1 0x1 DUP6 ADD SSTORE PUSH1 0x40 DUP2 ADD MLOAD PUSH1 0x2 DUP6 ADD SSTORE PUSH1 0x60 DUP2 ADD MLOAD PUSH1 0x3 DUP6 ADD SSTORE ADD MLOAD SWAP2 ADD SSTORE JUMP JUMPDEST PUSH1 0x2 SLOAD PUSH1 0x1 PUSH1 0x1 PUSH1 0xA0 SHL SUB AND DUP1 ISZERO PUSH2 0x1C42 JUMPI PUSH1 0x1 SLOAD PUSH1 0x40 MLOAD PUSH4 0xA9059CBB PUSH1 0xE0 SHL PUSH1 0x20 DUP1 DUP4 ADD SWAP2 DUP3 MSTORE PUSH1 0x1 PUSH1 0x1 PUSH1 0xA0 SHL SUB SWAP5 DUP6 AND PUSH1 0x24 DUP5 ADD MSTORE PUSH1 0x44 DUP1 DUP5 ADD DUP8 SWAP1 MSTORE DUP4 MSTORE SWAP4 SWAP1 SWAP3 AND SWAP3 SWAP2 PUSH0 SWAP2 PUSH2 0x1BB1 PUSH1 0x64 DUP3 PUSH2 0xF7C JUMP JUMPDEST MLOAD SWAP1 DUP3 DUP6 GAS CALL ISZERO PUSH2 0x55D JUMPI PUSH0 MLOAD RETURNDATASIZE PUSH2 0x1C39 JUMPI POP DUP1 EXTCODESIZE ISZERO JUMPDEST PUSH2 0x1C27 JUMPI POP PUSH2 0x13C1 SWAP1 PUSH1 0x5 SLOAD PUSH0 MSTORE PUSH1 0xE PUSH1 0x20 MSTORE PUSH1 0x40 PUSH0 KECCAK256 PUSH2 0x1BEA DUP3 DUP3 SLOAD PUSH2 0xFB6 JUMP JUMPDEST SWAP1 SSTORE PUSH1 0x5 SLOAD PUSH0 MSTORE PUSH1 0xF PUSH1 0x20 MSTORE PUSH1 0x40 PUSH0 KECCAK256 PUSH1 0x40 MLOAD SWAP2 PUSH2 0x1C07 DUP4 PUSH2 0xF60 JUMP JUMPDEST PUSH0 DUP4 MSTORE PUSH1 0x20 DUP4 ADD MSTORE PUSH0 PUSH1 0x40 DUP4 ADD MSTORE TIMESTAMP PUSH1 0x60 DUP4 ADD MSTORE PUSH1 0x5 PUSH1 0x80 DUP4 ADD MSTORE PUSH2 0x1B01 JUMP JUMPDEST PUSH4 0x5274AFE7 PUSH1 0xE0 SHL PUSH0 MSTORE PUSH1 0x4 MSTORE PUSH1 0x24 PUSH0 REVERT JUMPDEST PUSH1 0x1 EQ ISZERO PUSH2 0x1BC8 JUMP JUMPDEST PUSH1 0x40 MLOAD PUSH3 0x461BCD PUSH1 0xE5 SHL DUP2 MSTORE PUSH1 0x20 PUSH1 0x4 DUP3 ADD MSTORE PUSH1 0x11 PUSH1 0x24 DUP3 ADD MSTORE PUSH17 0x199959481859191C9CC81B9BDD081CD95D PUSH1 0x7A SHL PUSH1 0x44 DUP3 ADD MSTORE PUSH1 0x64 SWAP1 REVERT JUMPDEST SWAP1 PUSH1 0x36 SLOAD SWAP1 DUP2 DUP2 SUB PUSH2 0x1E6C JUMPI PUSH0 MSTORE PUSH1 0x3B PUSH1 0x20 MSTORE PUSH1 0xFF PUSH1 0x8 PUSH1 0x40 PUSH0 KECCAK256 ADD SLOAD AND PUSH2 0x1E38 JUMPI PUSH0 DUP3 DUP2 MSTORE PUSH32 0xD07FE408FA264E656A9C06E272928E4D4BB400D93CD5B5E74AC592F6170C2FD PUSH1 0x20 MSTORE PUSH1 0x40 SWAP1 DUP2 SWAP1 KECCAK256 SWAP1 MLOAD SWAP1 PUSH1 0x4 SWAP1 PUSH2 0x1CDA DUP4 PUSH2 0xF60 JUMP JUMPDEST DUP1 SLOAD DUP4 MSTORE PUSH1 0x1 DUP2 ADD SLOAD PUSH1 0x20 DUP5 ADD MSTORE PUSH1 0x2 DUP2 ADD SLOAD PUSH1 0x40 DUP5 ADD MSTORE PUSH1 0x3 DUP2 ADD SLOAD PUSH1 0x60 DUP5 ADD MSTORE ADD SLOAD PUSH1 0x80 DUP3 ADD SWAP1 DUP2 MSTORE DUP3 PUSH0 MSTORE PUSH1 0x3E PUSH1 0x20 MSTORE PUSH1 0x40 PUSH0 KECCAK256 DUP5 PUSH0 MSTORE PUSH1 0x20 MSTORE DUP4 PUSH1 0x5 PUSH1 0x40 PUSH0 KECCAK256 SLOAD LT SWAP3 MLOAD EQ SWAP1 DUP2 PUSH2 0x1E0F JUMPI JUMPDEST POP DUP2 ISZERO SWAP2 PUSH2 0x1E07 JUMPI JUMPDEST POP ISZERO PUSH2 0x1DC2 JUMPI DUP1 PUSH0 MSTORE PUSH1 0x3D PUSH1 0x20 MSTORE PUSH1 0x40 PUSH0 KECCAK256 DUP3 PUSH0 MSTORE PUSH1 0x20 MSTORE PUSH1 0x40 PUSH0 KECCAK256 SWAP2 PUSH1 0x4 DUP4 ADD DUP1 SLOAD SWAP4 PUSH1 0xFF DUP6 PUSH1 0x8 SHR AND PUSH2 0x1DBB JUMPI PUSH32 0x360CB96D3E85B4FC299DDFA9A572850FC70961C86F0F1703F033143B0E5A82CF SWAP5 DUP5 PUSH1 0x2 PUSH2 0x100 SWAP4 DUP7 DUP2 SSTORE TIMESTAMP PUSH1 0x1 DUP3 ADD SSTORE ADD SSTORE PUSH2 0xFF00 NOT AND OR SWAP1 SSTORE PUSH1 0x40 MLOAD SWAP2 DUP3 SWAP2 PUSH1 0x60 DUP4 ADD SWAP2 DUP4 MSTORE PUSH1 0x20 DUP4 ADD MSTORE TIMESTAMP PUSH1 0x40 DUP4 ADD MSTORE SUB SWAP1 LOG1 JUMP JUMPDEST POP POP POP POP POP JUMP JUMPDEST PUSH1 0x40 MLOAD PUSH3 0x461BCD PUSH1 0xE5 SHL DUP2 MSTORE PUSH1 0x20 PUSH1 0x4 DUP3 ADD MSTORE PUSH1 0x1F PUSH1 0x24 DUP3 ADD MSTORE PUSH32 0x4E6F7420656C696769626C6520666F72207765656B6C7920636F6E7465737400 PUSH1 0x44 DUP3 ADD MSTORE PUSH1 0x64 SWAP1 REVERT JUMPDEST SWAP1 POP PUSH0 PUSH2 0x1D33 JUMP JUMPDEST SWAP1 POP MLOAD DUP4 PUSH0 MSTORE PUSH1 0xD PUSH1 0x20 MSTORE PUSH1 0xF PUSH1 0x40 PUSH0 KECCAK256 ADD SLOAD SWAP1 PUSH3 0x15180 DUP3 ADD DUP1 SWAP3 GT PUSH2 0x51C JUMPI GT ISZERO PUSH0 PUSH2 0x1D2A JUMP JUMPDEST PUSH1 0x40 MLOAD PUSH3 0x461BCD PUSH1 0xE5 SHL DUP2 MSTORE PUSH1 0x20 PUSH1 0x4 DUP3 ADD MSTORE PUSH1 0xC PUSH1 0x24 DUP3 ADD MSTORE PUSH12 0x149BDD5B990818DB1BDCD959 PUSH1 0xA2 SHL PUSH1 0x44 DUP3 ADD MSTORE PUSH1 0x64 SWAP1 REVERT JUMPDEST PUSH1 0x40 MLOAD PUSH3 0x461BCD PUSH1 0xE5 SHL DUP2 MSTORE PUSH1 0x20 PUSH1 0x4 DUP3 ADD MSTORE PUSH1 0xD PUSH1 0x24 DUP3 ADD MSTORE PUSH13 0x125B9D985B1A59081C9BDD5B99 PUSH1 0x9A SHL PUSH1 0x44 DUP3 ADD MSTORE PUSH1 0x64 SWAP1 REVERT INVALID 0xBA 0xBB PUSH11 0x363FD9A057996D09882C0B PUSH21 0xB710D121707D19EEFFD91C51C3171A7C91A2646970 PUSH7 0x735822122042E0 SDIV EXTCODEHASH 0x21 0xB0 BLOBBASEFEE 0x4E CALLDATALOAD 0xA7 0xA6 0xBE PUSH15 0xF44BDE4D88C4349EB2336C7980BFEB MULMOD REVERT 0x2F SIGNEXTEND PUSH5 0x736F6C6343 STOP ADDMOD 0x1E STOP CALLER "
				},
				"gasEstimates": {
					"creation": {
						"codeDepositCost": "1585400",
						"executionCost": "infinite",
						"totalCost": "infinite"
					},
					"external": {
						"ACC_PRECISION()": "307",
						"MONTH_DURATION()": "219",
						"PERCENTS_DIVIDER()": "148",
						"ROI_CAP_DIVIDER()": "395",
						"ROI_CAP_MULTIPLIER()": "329",
						"RetopPoolByEarning(uint256,uint256)": "infinite",
						"TIME_STEP()": "285",
						"WEEK_DURATION()": "439",
						"WeeklyCapping()": "791",
						"WeeklyTotalReward()": "2366",
						"canBuyNextPool(uint256)": "9353",
						"communityAccPerUser()": "2586",
						"creatorWallet()": "2632",
						"currentMonthlyRound()": "2784",
						"currentMonthlyStartTime()": "2850",
						"currentWeeklyRound()": "2806",
						"currentWeeklyStartTime()": "2957",
						"defaultRefId()": "2916",
						"glbBoosterPackages(uint256)": "6656",
						"minLevelForGlbBooster(uint256)": "2866",
						"minLevelForPool(uint256)": "2316",
						"minPoolForGlbBooster(uint256)": "2690",
						"monthlyCapping()": "659",
						"packages(uint256)": "7011",
						"poolPackages(uint256)": "7030",
						"registeredUserIds(uint256)": "6725",
						"systemMaintance()": "2896",
						"teamDevelopment()": "2962",
						"totalUsers()": "2718",
						"upgradeBooster(uint256)": "infinite",
						"upgradePool(uint256)": "infinite",
						"upgradePoolByEarning(uint32,uint256)": "infinite",
						"usdt()": "2368"
					},
					"internal": {
						"_distributePoolIncome(uint256,uint256,uint256,uint256)": "infinite",
						"_payPoolIncome(uint256,uint256,uint256,uint256,uint256)": "infinite",
						"_placeInBooster(uint256,uint256,uint256)": "infinite",
						"_placeInPool(uint256,uint256,uint256)": "infinite"
					}
				},
				"methodIdentifiers": {
					"ACC_PRECISION()": "32fcd966",
					"MONTH_DURATION()": "2a891534",
					"PERCENTS_DIVIDER()": "01c234a8",
					"ROI_CAP_DIVIDER()": "58c7d352",
					"ROI_CAP_MULTIPLIER()": "375b43b4",
					"RetopPoolByEarning(uint256,uint256)": "7848f0a3",
					"TIME_STEP()": "32bc298c",
					"WEEK_DURATION()": "76f5f700",
					"WeeklyCapping()": "ebe0ff15",
					"WeeklyTotalReward()": "3080b5bc",
					"canBuyNextPool(uint256)": "67d52d4d",
					"communityAccPerUser()": "78f6ad6d",
					"creatorWallet()": "7cdc65f2",
					"currentMonthlyRound()": "c9ed0708",
					"currentMonthlyStartTime()": "e898fc38",
					"currentWeeklyRound()": "ca8e9121",
					"currentWeeklyStartTime()": "fddc806f",
					"defaultRefId()": "ec597e6f",
					"glbBoosterPackages(uint256)": "2350268f",
					"minLevelForGlbBooster(uint256)": "d0a2fd79",
					"minLevelForPool(uint256)": "2132d204",
					"minPoolForGlbBooster(uint256)": "956a3228",
					"monthlyCapping()": "c8df2908",
					"packages(uint256)": "c216212a",
					"poolPackages(uint256)": "ae4708dc",
					"registeredUserIds(uint256)": "39ab3603",
					"systemMaintance()": "e9e34a16",
					"teamDevelopment()": "f5d74d93",
					"totalUsers()": "bff1f9e1",
					"upgradeBooster(uint256)": "bc1fa7c0",
					"upgradePool(uint256)": "4060160a",
					"upgradePoolByEarning(uint32,uint256)": "8e222e24",
					"usdt()": "2f48ab7d"
				}
			},
			"storageLayout": {
				"storage": [
					{
						"astId": 100,
						"contract": "contracts/modules/InfinityPool.sol:InfinityPool",
						"label": "_status",
						"offset": 0,
						"slot": "0",
						"type": "t_uint256"
					},
					{
						"astId": 1919,
						"contract": "contracts/modules/InfinityPool.sol:InfinityPool",
						"label": "usdt",
						"offset": 0,
						"slot": "1",
						"type": "t_contract(IERC20)232"
					},
					{
						"astId": 1921,
						"contract": "contracts/modules/InfinityPool.sol:InfinityPool",
						"label": "creatorWallet",
						"offset": 0,
						"slot": "2",
						"type": "t_address"
					},
					{
						"astId": 1923,
						"contract": "contracts/modules/InfinityPool.sol:InfinityPool",
						"label": "systemMaintance",
						"offset": 0,
						"slot": "3",
						"type": "t_address"
					},
					{
						"astId": 1925,
						"contract": "contracts/modules/InfinityPool.sol:InfinityPool",
						"label": "teamDevelopment",
						"offset": 0,
						"slot": "4",
						"type": "t_address"
					},
					{
						"astId": 1927,
						"contract": "contracts/modules/InfinityPool.sol:InfinityPool",
						"label": "defaultRefId",
						"offset": 0,
						"slot": "5",
						"type": "t_uint256"
					},
					{
						"astId": 1929,
						"contract": "contracts/modules/InfinityPool.sol:InfinityPool",
						"label": "totalUsers",
						"offset": 0,
						"slot": "6",
						"type": "t_uint256"
					},
					{
						"astId": 1947,
						"contract": "contracts/modules/InfinityPool.sol:InfinityPool",
						"label": "registeredUserIds",
						"offset": 0,
						"slot": "7",
						"type": "t_array(t_uint256)dyn_storage"
					},
					{
						"astId": 1949,
						"contract": "contracts/modules/InfinityPool.sol:InfinityPool",
						"label": "nonce",
						"offset": 0,
						"slot": "8",
						"type": "t_uint256"
					},
					{
						"astId": 1954,
						"contract": "contracts/modules/InfinityPool.sol:InfinityPool",
						"label": "communityAccPerUser",
						"offset": 0,
						"slot": "9",
						"type": "t_uint256"
					},
					{
						"astId": 1958,
						"contract": "contracts/modules/InfinityPool.sol:InfinityPool",
						"label": "communityDebt",
						"offset": 0,
						"slot": "10",
						"type": "t_mapping(t_uint256,t_uint256)"
					},
					{
						"astId": 2007,
						"contract": "contracts/modules/InfinityPool.sol:InfinityPool",
						"label": "packages",
						"offset": 0,
						"slot": "11",
						"type": "t_array(t_uint256)dyn_storage"
					},
					{
						"astId": 2093,
						"contract": "contracts/modules/InfinityPool.sol:InfinityPool",
						"label": "addressToId",
						"offset": 0,
						"slot": "12",
						"type": "t_mapping(t_address,t_uint256)"
					},
					{
						"astId": 2098,
						"contract": "contracts/modules/InfinityPool.sol:InfinityPool",
						"label": "users",
						"offset": 0,
						"slot": "13",
						"type": "t_mapping(t_uint256,t_struct(User)2051_storage)"
					},
					{
						"astId": 2103,
						"contract": "contracts/modules/InfinityPool.sol:InfinityPool",
						"label": "userIncomes",
						"offset": 0,
						"slot": "14",
						"type": "t_mapping(t_uint256,t_struct(UserIncome)2078_storage)"
					},
					{
						"astId": 2109,
						"contract": "contracts/modules/InfinityPool.sol:InfinityPool",
						"label": "incomeHistory",
						"offset": 0,
						"slot": "15",
						"type": "t_mapping(t_uint256,t_array(t_struct(Income)2089_storage)dyn_storage)"
					},
					{
						"astId": 2116,
						"contract": "contracts/modules/InfinityPool.sol:InfinityPool",
						"label": "teams",
						"offset": 0,
						"slot": "16",
						"type": "t_mapping(t_uint256,t_mapping(t_uint256,t_array(t_uint256)dyn_storage))"
					},
					{
						"astId": 2120,
						"contract": "contracts/modules/InfinityPool.sol:InfinityPool",
						"label": "matrixDirect",
						"offset": 0,
						"slot": "17",
						"type": "t_mapping(t_uint256,t_uint256)"
					},
					{
						"astId": 2125,
						"contract": "contracts/modules/InfinityPool.sol:InfinityPool",
						"label": "directReferrals",
						"offset": 0,
						"slot": "18",
						"type": "t_mapping(t_uint256,t_array(t_uint256)dyn_storage)"
					},
					{
						"astId": 2208,
						"contract": "contracts/modules/InfinityPool.sol:InfinityPool",
						"label": "poolPackages",
						"offset": 0,
						"slot": "19",
						"type": "t_array(t_uint256)dyn_storage"
					},
					{
						"astId": 2220,
						"contract": "contracts/modules/InfinityPool.sol:InfinityPool",
						"label": "glbBoosterPackages",
						"offset": 0,
						"slot": "20",
						"type": "t_array(t_uint256)dyn_storage"
					},
					{
						"astId": 2232,
						"contract": "contracts/modules/InfinityPool.sol:InfinityPool",
						"label": "minLevelForPool",
						"offset": 0,
						"slot": "21",
						"type": "t_array(t_uint256)7_storage"
					},
					{
						"astId": 2245,
						"contract": "contracts/modules/InfinityPool.sol:InfinityPool",
						"label": "minLevelForGlbBooster",
						"offset": 0,
						"slot": "28",
						"type": "t_array(t_uint256)8_storage"
					},
					{
						"astId": 2258,
						"contract": "contracts/modules/InfinityPool.sol:InfinityPool",
						"label": "minPoolForGlbBooster",
						"offset": 0,
						"slot": "36",
						"type": "t_array(t_uint256)8_storage"
					},
					{
						"astId": 2292,
						"contract": "contracts/modules/InfinityPool.sol:InfinityPool",
						"label": "userPooltopup",
						"offset": 0,
						"slot": "44",
						"type": "t_mapping(t_uint256,t_mapping(t_uint256,t_struct(UserPoolTopup)2274_storage))"
					},
					{
						"astId": 2299,
						"contract": "contracts/modules/InfinityPool.sol:InfinityPool",
						"label": "userPooldtl",
						"offset": 0,
						"slot": "45",
						"type": "t_mapping(t_uint256,t_mapping(t_uint256,t_struct(UserPool)2269_storage))"
					},
					{
						"astId": 2306,
						"contract": "contracts/modules/InfinityPool.sol:InfinityPool",
						"label": "userChildren",
						"offset": 0,
						"slot": "46",
						"type": "t_mapping(t_uint256,t_mapping(t_uint256,t_array(t_uint256)dyn_storage))"
					},
					{
						"astId": 2313,
						"contract": "contracts/modules/InfinityPool.sol:InfinityPool",
						"label": "userIdPerPool",
						"offset": 0,
						"slot": "47",
						"type": "t_mapping(t_uint256,t_mapping(t_uint256,t_array(t_uint256)dyn_storage))"
					},
					{
						"astId": 2318,
						"contract": "contracts/modules/InfinityPool.sol:InfinityPool",
						"label": "poolUsers",
						"offset": 0,
						"slot": "48",
						"type": "t_mapping(t_uint256,t_array(t_uint256)dyn_storage)"
					},
					{
						"astId": 2324,
						"contract": "contracts/modules/InfinityPool.sol:InfinityPool",
						"label": "userHasPool",
						"offset": 0,
						"slot": "49",
						"type": "t_mapping(t_uint256,t_mapping(t_uint256,t_bool))"
					},
					{
						"astId": 2331,
						"contract": "contracts/modules/InfinityPool.sol:InfinityPool",
						"label": "userBoosterdtl",
						"offset": 0,
						"slot": "50",
						"type": "t_mapping(t_uint256,t_mapping(t_uint256,t_struct(UserBooster)2285_storage))"
					},
					{
						"astId": 2338,
						"contract": "contracts/modules/InfinityPool.sol:InfinityPool",
						"label": "userBoosterChildren",
						"offset": 0,
						"slot": "51",
						"type": "t_mapping(t_uint256,t_mapping(t_uint256,t_array(t_uint256)dyn_storage))"
					},
					{
						"astId": 2343,
						"contract": "contracts/modules/InfinityPool.sol:InfinityPool",
						"label": "boosterUsers",
						"offset": 0,
						"slot": "52",
						"type": "t_mapping(t_uint256,t_array(t_uint256)dyn_storage)"
					},
					{
						"astId": 2349,
						"contract": "contracts/modules/InfinityPool.sol:InfinityPool",
						"label": "userHasbooster",
						"offset": 0,
						"slot": "53",
						"type": "t_mapping(t_uint256,t_mapping(t_uint256,t_bool))"
					},
					{
						"astId": 2364,
						"contract": "contracts/modules/InfinityPool.sol:InfinityPool",
						"label": "currentWeeklyRound",
						"offset": 0,
						"slot": "54",
						"type": "t_uint256"
					},
					{
						"astId": 2367,
						"contract": "contracts/modules/InfinityPool.sol:InfinityPool",
						"label": "currentMonthlyRound",
						"offset": 0,
						"slot": "55",
						"type": "t_uint256"
					},
					{
						"astId": 2370,
						"contract": "contracts/modules/InfinityPool.sol:InfinityPool",
						"label": "currentWeeklyStartTime",
						"offset": 0,
						"slot": "56",
						"type": "t_uint256"
					},
					{
						"astId": 2373,
						"contract": "contracts/modules/InfinityPool.sol:InfinityPool",
						"label": "currentMonthlyStartTime",
						"offset": 0,
						"slot": "57",
						"type": "t_uint256"
					},
					{
						"astId": 2376,
						"contract": "contracts/modules/InfinityPool.sol:InfinityPool",
						"label": "WeeklyTotalReward",
						"offset": 0,
						"slot": "58",
						"type": "t_uint256"
					},
					{
						"astId": 2413,
						"contract": "contracts/modules/InfinityPool.sol:InfinityPool",
						"label": "weeklyContestdtl",
						"offset": 0,
						"slot": "59",
						"type": "t_mapping(t_uint256,t_struct(WeeklyContest)2395_storage)"
					},
					{
						"astId": 2418,
						"contract": "contracts/modules/InfinityPool.sol:InfinityPool",
						"label": "weeklyQualifiedUsers",
						"offset": 0,
						"slot": "60",
						"type": "t_mapping(t_uint256,t_array(t_uint256)dyn_storage)"
					},
					{
						"astId": 2425,
						"contract": "contracts/modules/InfinityPool.sol:InfinityPool",
						"label": "weeklyUserdtl",
						"offset": 0,
						"slot": "61",
						"type": "t_mapping(t_uint256,t_mapping(t_uint256,t_struct(weeklyUser)2408_storage))"
					},
					{
						"astId": 2432,
						"contract": "contracts/modules/InfinityPool.sol:InfinityPool",
						"label": "weeklyUserDirects",
						"offset": 0,
						"slot": "62",
						"type": "t_mapping(t_uint256,t_mapping(t_uint256,t_array(t_uint256)dyn_storage))"
					}
				],
				"types": {
					"t_address": {
						"encoding": "inplace",
						"label": "address",
						"numberOfBytes": "20"
					},
					"t_array(t_struct(Deposit)2016_storage)dyn_storage": {
						"base": "t_struct(Deposit)2016_storage",
						"encoding": "dynamic_array",
						"label": "struct Storage.Deposit[]",
						"numberOfBytes": "32"
					},
					"t_array(t_struct(Income)2089_storage)dyn_storage": {
						"base": "t_struct(Income)2089_storage",
						"encoding": "dynamic_array",
						"label": "struct Storage.Income[]",
						"numberOfBytes": "32"
					},
					"t_array(t_uint256)7_storage": {
						"base": "t_uint256",
						"encoding": "inplace",
						"label": "uint256[7]",
						"numberOfBytes": "224"
					},
					"t_array(t_uint256)8_storage": {
						"base": "t_uint256",
						"encoding": "inplace",
						"label": "uint256[8]",
						"numberOfBytes": "256"
					},
					"t_array(t_uint256)dyn_storage": {
						"base": "t_uint256",
						"encoding": "dynamic_array",
						"label": "uint256[]",
						"numberOfBytes": "32"
					},
					"t_bool": {
						"encoding": "inplace",
						"label": "bool",
						"numberOfBytes": "1"
					},
					"t_contract(IERC20)232": {
						"encoding": "inplace",
						"label": "contract IERC20",
						"numberOfBytes": "20"
					},
					"t_mapping(t_address,t_uint256)": {
						"encoding": "mapping",
						"key": "t_address",
						"label": "mapping(address => uint256)",
						"numberOfBytes": "32",
						"value": "t_uint256"
					},
					"t_mapping(t_uint256,t_array(t_struct(Income)2089_storage)dyn_storage)": {
						"encoding": "mapping",
						"key": "t_uint256",
						"label": "mapping(uint256 => struct Storage.Income[])",
						"numberOfBytes": "32",
						"value": "t_array(t_struct(Income)2089_storage)dyn_storage"
					},
					"t_mapping(t_uint256,t_array(t_uint256)dyn_storage)": {
						"encoding": "mapping",
						"key": "t_uint256",
						"label": "mapping(uint256 => uint256[])",
						"numberOfBytes": "32",
						"value": "t_array(t_uint256)dyn_storage"
					},
					"t_mapping(t_uint256,t_bool)": {
						"encoding": "mapping",
						"key": "t_uint256",
						"label": "mapping(uint256 => bool)",
						"numberOfBytes": "32",
						"value": "t_bool"
					},
					"t_mapping(t_uint256,t_mapping(t_uint256,t_array(t_uint256)dyn_storage))": {
						"encoding": "mapping",
						"key": "t_uint256",
						"label": "mapping(uint256 => mapping(uint256 => uint256[]))",
						"numberOfBytes": "32",
						"value": "t_mapping(t_uint256,t_array(t_uint256)dyn_storage)"
					},
					"t_mapping(t_uint256,t_mapping(t_uint256,t_bool))": {
						"encoding": "mapping",
						"key": "t_uint256",
						"label": "mapping(uint256 => mapping(uint256 => bool))",
						"numberOfBytes": "32",
						"value": "t_mapping(t_uint256,t_bool)"
					},
					"t_mapping(t_uint256,t_mapping(t_uint256,t_struct(UserBooster)2285_storage))": {
						"encoding": "mapping",
						"key": "t_uint256",
						"label": "mapping(uint256 => mapping(uint256 => struct Storage.UserBooster))",
						"numberOfBytes": "32",
						"value": "t_mapping(t_uint256,t_struct(UserBooster)2285_storage)"
					},
					"t_mapping(t_uint256,t_mapping(t_uint256,t_struct(UserPool)2269_storage))": {
						"encoding": "mapping",
						"key": "t_uint256",
						"label": "mapping(uint256 => mapping(uint256 => struct Storage.UserPool))",
						"numberOfBytes": "32",
						"value": "t_mapping(t_uint256,t_struct(UserPool)2269_storage)"
					},
					"t_mapping(t_uint256,t_mapping(t_uint256,t_struct(UserPoolTopup)2274_storage))": {
						"encoding": "mapping",
						"key": "t_uint256",
						"label": "mapping(uint256 => mapping(uint256 => struct Storage.UserPoolTopup))",
						"numberOfBytes": "32",
						"value": "t_mapping(t_uint256,t_struct(UserPoolTopup)2274_storage)"
					},
					"t_mapping(t_uint256,t_mapping(t_uint256,t_struct(weeklyUser)2408_storage))": {
						"encoding": "mapping",
						"key": "t_uint256",
						"label": "mapping(uint256 => mapping(uint256 => struct Storage.weeklyUser))",
						"numberOfBytes": "32",
						"value": "t_mapping(t_uint256,t_struct(weeklyUser)2408_storage)"
					},
					"t_mapping(t_uint256,t_struct(User)2051_storage)": {
						"encoding": "mapping",
						"key": "t_uint256",
						"label": "mapping(uint256 => struct Storage.User)",
						"numberOfBytes": "32",
						"value": "t_struct(User)2051_storage"
					},
					"t_mapping(t_uint256,t_struct(UserBooster)2285_storage)": {
						"encoding": "mapping",
						"key": "t_uint256",
						"label": "mapping(uint256 => struct Storage.UserBooster)",
						"numberOfBytes": "32",
						"value": "t_struct(UserBooster)2285_storage"
					},
					"t_mapping(t_uint256,t_struct(UserIncome)2078_storage)": {
						"encoding": "mapping",
						"key": "t_uint256",
						"label": "mapping(uint256 => struct Storage.UserIncome)",
						"numberOfBytes": "32",
						"value": "t_struct(UserIncome)2078_storage"
					},
					"t_mapping(t_uint256,t_struct(UserPool)2269_storage)": {
						"encoding": "mapping",
						"key": "t_uint256",
						"label": "mapping(uint256 => struct Storage.UserPool)",
						"numberOfBytes": "32",
						"value": "t_struct(UserPool)2269_storage"
					},
					"t_mapping(t_uint256,t_struct(UserPoolTopup)2274_storage)": {
						"encoding": "mapping",
						"key": "t_uint256",
						"label": "mapping(uint256 => struct Storage.UserPoolTopup)",
						"numberOfBytes": "32",
						"value": "t_struct(UserPoolTopup)2274_storage"
					},
					"t_mapping(t_uint256,t_struct(WeeklyContest)2395_storage)": {
						"encoding": "mapping",
						"key": "t_uint256",
						"label": "mapping(uint256 => struct Storage.WeeklyContest)",
						"numberOfBytes": "32",
						"value": "t_struct(WeeklyContest)2395_storage"
					},
					"t_mapping(t_uint256,t_struct(weeklyUser)2408_storage)": {
						"encoding": "mapping",
						"key": "t_uint256",
						"label": "mapping(uint256 => struct Storage.weeklyUser)",
						"numberOfBytes": "32",
						"value": "t_struct(weeklyUser)2408_storage"
					},
					"t_mapping(t_uint256,t_uint256)": {
						"encoding": "mapping",
						"key": "t_uint256",
						"label": "mapping(uint256 => uint256)",
						"numberOfBytes": "32",
						"value": "t_uint256"
					},
					"t_struct(Deposit)2016_storage": {
						"encoding": "inplace",
						"label": "struct Storage.Deposit",
						"members": [
							{
								"astId": 2009,
								"contract": "contracts/modules/InfinityPool.sol:InfinityPool",
								"label": "amount",
								"offset": 0,
								"slot": "0",
								"type": "t_uint256"
							},
							{
								"astId": 2011,
								"contract": "contracts/modules/InfinityPool.sol:InfinityPool",
								"label": "withdrawn",
								"offset": 0,
								"slot": "1",
								"type": "t_uint256"
							},
							{
								"astId": 2013,
								"contract": "contracts/modules/InfinityPool.sol:InfinityPool",
								"label": "start",
								"offset": 0,
								"slot": "2",
								"type": "t_uint256"
							},
							{
								"astId": 2015,
								"contract": "contracts/modules/InfinityPool.sol:InfinityPool",
								"label": "depositType",
								"offset": 0,
								"slot": "3",
								"type": "t_uint8"
							}
						],
						"numberOfBytes": "128"
					},
					"t_struct(Income)2089_storage": {
						"encoding": "inplace",
						"label": "struct Storage.Income",
						"members": [
							{
								"astId": 2080,
								"contract": "contracts/modules/InfinityPool.sol:InfinityPool",
								"label": "fromUserId",
								"offset": 0,
								"slot": "0",
								"type": "t_uint256"
							},
							{
								"astId": 2082,
								"contract": "contracts/modules/InfinityPool.sol:InfinityPool",
								"label": "amount",
								"offset": 0,
								"slot": "1",
								"type": "t_uint256"
							},
							{
								"astId": 2084,
								"contract": "contracts/modules/InfinityPool.sol:InfinityPool",
								"label": "packageLevel",
								"offset": 0,
								"slot": "2",
								"type": "t_uint256"
							},
							{
								"astId": 2086,
								"contract": "contracts/modules/InfinityPool.sol:InfinityPool",
								"label": "timestamp",
								"offset": 0,
								"slot": "3",
								"type": "t_uint256"
							},
							{
								"astId": 2088,
								"contract": "contracts/modules/InfinityPool.sol:InfinityPool",
								"label": "incomeType",
								"offset": 0,
								"slot": "4",
								"type": "t_uint256"
							}
						],
						"numberOfBytes": "160"
					},
					"t_struct(User)2051_storage": {
						"encoding": "inplace",
						"label": "struct Storage.User",
						"members": [
							{
								"astId": 2018,
								"contract": "contracts/modules/InfinityPool.sol:InfinityPool",
								"label": "account",
								"offset": 0,
								"slot": "0",
								"type": "t_address"
							},
							{
								"astId": 2022,
								"contract": "contracts/modules/InfinityPool.sol:InfinityPool",
								"label": "deposits",
								"offset": 0,
								"slot": "1",
								"type": "t_array(t_struct(Deposit)2016_storage)dyn_storage"
							},
							{
								"astId": 2024,
								"contract": "contracts/modules/InfinityPool.sol:InfinityPool",
								"label": "checkpoint",
								"offset": 0,
								"slot": "2",
								"type": "t_uint256"
							},
							{
								"astId": 2026,
								"contract": "contracts/modules/InfinityPool.sol:InfinityPool",
								"label": "id",
								"offset": 0,
								"slot": "3",
								"type": "t_uint256"
							},
							{
								"astId": 2028,
								"contract": "contracts/modules/InfinityPool.sol:InfinityPool",
								"label": "sponsorId",
								"offset": 0,
								"slot": "4",
								"type": "t_uint256"
							},
							{
								"astId": 2030,
								"contract": "contracts/modules/InfinityPool.sol:InfinityPool",
								"label": "uplineId",
								"offset": 0,
								"slot": "5",
								"type": "t_uint256"
							},
							{
								"astId": 2032,
								"contract": "contracts/modules/InfinityPool.sol:InfinityPool",
								"label": "level",
								"offset": 0,
								"slot": "6",
								"type": "t_uint256"
							},
							{
								"astId": 2034,
								"contract": "contracts/modules/InfinityPool.sol:InfinityPool",
								"label": "directTeam",
								"offset": 0,
								"slot": "7",
								"type": "t_uint256"
							},
							{
								"astId": 2036,
								"contract": "contracts/modules/InfinityPool.sol:InfinityPool",
								"label": "directPoolQualified",
								"offset": 0,
								"slot": "8",
								"type": "t_uint256"
							},
							{
								"astId": 2038,
								"contract": "contracts/modules/InfinityPool.sol:InfinityPool",
								"label": "totalMatrixTeam",
								"offset": 0,
								"slot": "9",
								"type": "t_uint256"
							},
							{
								"astId": 2040,
								"contract": "contracts/modules/InfinityPool.sol:InfinityPool",
								"label": "totalDeposit",
								"offset": 0,
								"slot": "10",
								"type": "t_uint256"
							},
							{
								"astId": 2042,
								"contract": "contracts/modules/InfinityPool.sol:InfinityPool",
								"label": "poollevel",
								"offset": 0,
								"slot": "11",
								"type": "t_uint256"
							},
							{
								"astId": 2044,
								"contract": "contracts/modules/InfinityPool.sol:InfinityPool",
								"label": "poolDeposit",
								"offset": 0,
								"slot": "12",
								"type": "t_uint256"
							},
							{
								"astId": 2046,
								"contract": "contracts/modules/InfinityPool.sol:InfinityPool",
								"label": "boosterlevel",
								"offset": 0,
								"slot": "13",
								"type": "t_uint256"
							},
							{
								"astId": 2048,
								"contract": "contracts/modules/InfinityPool.sol:InfinityPool",
								"label": "boosterDeposit",
								"offset": 0,
								"slot": "14",
								"type": "t_uint256"
							},
							{
								"astId": 2050,
								"contract": "contracts/modules/InfinityPool.sol:InfinityPool",
								"label": "registrationTime",
								"offset": 0,
								"slot": "15",
								"type": "t_uint256"
							}
						],
						"numberOfBytes": "512"
					},
					"t_struct(UserBooster)2285_storage": {
						"encoding": "inplace",
						"label": "struct Storage.UserBooster",
						"members": [
							{
								"astId": 2276,
								"contract": "contracts/modules/InfinityPool.sol:InfinityPool",
								"label": "id",
								"offset": 0,
								"slot": "0",
								"type": "t_uint256"
							},
							{
								"astId": 2278,
								"contract": "contracts/modules/InfinityPool.sol:InfinityPool",
								"label": "poolId",
								"offset": 0,
								"slot": "1",
								"type": "t_uint256"
							},
							{
								"astId": 2280,
								"contract": "contracts/modules/InfinityPool.sol:InfinityPool",
								"label": "parentId",
								"offset": 0,
								"slot": "2",
								"type": "t_uint256"
							},
							{
								"astId": 2282,
								"contract": "contracts/modules/InfinityPool.sol:InfinityPool",
								"label": "bonusCount",
								"offset": 0,
								"slot": "3",
								"type": "t_uint256"
							},
							{
								"astId": 2284,
								"contract": "contracts/modules/InfinityPool.sol:InfinityPool",
								"label": "joinTime",
								"offset": 0,
								"slot": "4",
								"type": "t_uint256"
							}
						],
						"numberOfBytes": "160"
					},
					"t_struct(UserIncome)2078_storage": {
						"encoding": "inplace",
						"label": "struct Storage.UserIncome",
						"members": [
							{
								"astId": 2053,
								"contract": "contracts/modules/InfinityPool.sol:InfinityPool",
								"label": "totalIncome",
								"offset": 0,
								"slot": "0",
								"type": "t_uint256"
							},
							{
								"astId": 2055,
								"contract": "contracts/modules/InfinityPool.sol:InfinityPool",
								"label": "sponsorIncome",
								"offset": 0,
								"slot": "1",
								"type": "t_uint256"
							},
							{
								"astId": 2057,
								"contract": "contracts/modules/InfinityPool.sol:InfinityPool",
								"label": "matrixIncome",
								"offset": 0,
								"slot": "2",
								"type": "t_uint256"
							},
							{
								"astId": 2059,
								"contract": "contracts/modules/InfinityPool.sol:InfinityPool",
								"label": "levelBoosterIncome",
								"offset": 0,
								"slot": "3",
								"type": "t_uint256"
							},
							{
								"astId": 2061,
								"contract": "contracts/modules/InfinityPool.sol:InfinityPool",
								"label": "levelIncome",
								"offset": 0,
								"slot": "4",
								"type": "t_uint256"
							},
							{
								"astId": 2063,
								"contract": "contracts/modules/InfinityPool.sol:InfinityPool",
								"label": "royaltyIncome",
								"offset": 0,
								"slot": "5",
								"type": "t_uint256"
							},
							{
								"astId": 2065,
								"contract": "contracts/modules/InfinityPool.sol:InfinityPool",
								"label": "royaltyIncomeClaimed",
								"offset": 0,
								"slot": "6",
								"type": "t_uint256"
							},
							{
								"astId": 2067,
								"contract": "contracts/modules/InfinityPool.sol:InfinityPool",
								"label": "communityIncome",
								"offset": 0,
								"slot": "7",
								"type": "t_uint256"
							},
							{
								"astId": 2069,
								"contract": "contracts/modules/InfinityPool.sol:InfinityPool",
								"label": "poolIncome",
								"offset": 0,
								"slot": "8",
								"type": "t_uint256"
							},
							{
								"astId": 2071,
								"contract": "contracts/modules/InfinityPool.sol:InfinityPool",
								"label": "boosterIncome",
								"offset": 0,
								"slot": "9",
								"type": "t_uint256"
							},
							{
								"astId": 2073,
								"contract": "contracts/modules/InfinityPool.sol:InfinityPool",
								"label": "weeklyContestIncome",
								"offset": 0,
								"slot": "10",
								"type": "t_uint256"
							},
							{
								"astId": 2075,
								"contract": "contracts/modules/InfinityPool.sol:InfinityPool",
								"label": "monthlyRoyalty",
								"offset": 0,
								"slot": "11",
								"type": "t_uint256"
							},
							{
								"astId": 2077,
								"contract": "contracts/modules/InfinityPool.sol:InfinityPool",
								"label": "monthlyTopRoyalty",
								"offset": 0,
								"slot": "12",
								"type": "t_uint256"
							}
						],
						"numberOfBytes": "416"
					},
					"t_struct(UserPool)2269_storage": {
						"encoding": "inplace",
						"label": "struct Storage.UserPool",
						"members": [
							{
								"astId": 2260,
								"contract": "contracts/modules/InfinityPool.sol:InfinityPool",
								"label": "id",
								"offset": 0,
								"slot": "0",
								"type": "t_uint256"
							},
							{
								"astId": 2262,
								"contract": "contracts/modules/InfinityPool.sol:InfinityPool",
								"label": "mainid",
								"offset": 0,
								"slot": "1",
								"type": "t_uint256"
							},
							{
								"astId": 2264,
								"contract": "contracts/modules/InfinityPool.sol:InfinityPool",
								"label": "poolId",
								"offset": 0,
								"slot": "2",
								"type": "t_uint256"
							},
							{
								"astId": 2266,
								"contract": "contracts/modules/InfinityPool.sol:InfinityPool",
								"label": "parentId",
								"offset": 0,
								"slot": "3",
								"type": "t_uint256"
							},
							{
								"astId": 2268,
								"contract": "contracts/modules/InfinityPool.sol:InfinityPool",
								"label": "bonusCount",
								"offset": 0,
								"slot": "4",
								"type": "t_uint256"
							}
						],
						"numberOfBytes": "160"
					},
					"t_struct(UserPoolTopup)2274_storage": {
						"encoding": "inplace",
						"label": "struct Storage.UserPoolTopup",
						"members": [
							{
								"astId": 2271,
								"contract": "contracts/modules/InfinityPool.sol:InfinityPool",
								"label": "nextPoolAmt",
								"offset": 0,
								"slot": "0",
								"type": "t_uint256"
							},
							{
								"astId": 2273,
								"contract": "contracts/modules/InfinityPool.sol:InfinityPool",
								"label": "reTopupAmt",
								"offset": 0,
								"slot": "1",
								"type": "t_uint256"
							}
						],
						"numberOfBytes": "64"
					},
					"t_struct(WeeklyContest)2395_storage": {
						"encoding": "inplace",
						"label": "struct Storage.WeeklyContest",
						"members": [
							{
								"astId": 2378,
								"contract": "contracts/modules/InfinityPool.sol:InfinityPool",
								"label": "roundId",
								"offset": 0,
								"slot": "0",
								"type": "t_uint256"
							},
							{
								"astId": 2380,
								"contract": "contracts/modules/InfinityPool.sol:InfinityPool",
								"label": "totalReward",
								"offset": 0,
								"slot": "1",
								"type": "t_uint256"
							},
							{
								"astId": 2382,
								"contract": "contracts/modules/InfinityPool.sol:InfinityPool",
								"label": "totalUsers",
								"offset": 0,
								"slot": "2",
								"type": "t_uint256"
							},
							{
								"astId": 2384,
								"contract": "contracts/modules/InfinityPool.sol:InfinityPool",
								"label": "perUserReward",
								"offset": 0,
								"slot": "3",
								"type": "t_uint256"
							},
							{
								"astId": 2386,
								"contract": "contracts/modules/InfinityPool.sol:InfinityPool",
								"label": "claimedCount",
								"offset": 0,
								"slot": "4",
								"type": "t_uint256"
							},
							{
								"astId": 2388,
								"contract": "contracts/modules/InfinityPool.sol:InfinityPool",
								"label": "startTime",
								"offset": 0,
								"slot": "5",
								"type": "t_uint256"
							},
							{
								"astId": 2390,
								"contract": "contracts/modules/InfinityPool.sol:InfinityPool",
								"label": "endTime",
								"offset": 0,
								"slot": "6",
								"type": "t_uint256"
							},
							{
								"astId": 2392,
								"contract": "contracts/modules/InfinityPool.sol:InfinityPool",
								"label": "carryForward",
								"offset": 0,
								"slot": "7",
								"type": "t_uint256"
							},
							{
								"astId": 2394,
								"contract": "contracts/modules/InfinityPool.sol:InfinityPool",
								"label": "closed",
								"offset": 0,
								"slot": "8",
								"type": "t_bool"
							}
						],
						"numberOfBytes": "288"
					},
					"t_struct(weeklyUser)2408_storage": {
						"encoding": "inplace",
						"label": "struct Storage.weeklyUser",
						"members": [
							{
								"astId": 2397,
								"contract": "contracts/modules/InfinityPool.sol:InfinityPool",
								"label": "id",
								"offset": 0,
								"slot": "0",
								"type": "t_uint256"
							},
							{
								"astId": 2399,
								"contract": "contracts/modules/InfinityPool.sol:InfinityPool",
								"label": "joinTime",
								"offset": 0,
								"slot": "1",
								"type": "t_uint256"
							},
							{
								"astId": 2401,
								"contract": "contracts/modules/InfinityPool.sol:InfinityPool",
								"label": "roundId",
								"offset": 0,
								"slot": "2",
								"type": "t_uint256"
							},
							{
								"astId": 2403,
								"contract": "contracts/modules/InfinityPool.sol:InfinityPool",
								"label": "claimTime",
								"offset": 0,
								"slot": "3",
								"type": "t_uint256"
							},
							{
								"astId": 2405,
								"contract": "contracts/modules/InfinityPool.sol:InfinityPool",
								"label": "isClaimed",
								"offset": 0,
								"slot": "4",
								"type": "t_bool"
							},
							{
								"astId": 2407,
								"contract": "contracts/modules/InfinityPool.sol:InfinityPool",
								"label": "isQualified",
								"offset": 1,
								"slot": "4",
								"type": "t_bool"
							}
						],
						"numberOfBytes": "160"
					},
					"t_uint256": {
						"encoding": "inplace",
						"label": "uint256",
						"numberOfBytes": "32"
					},
					"t_uint8": {
						"encoding": "inplace",
						"label": "uint8",
						"numberOfBytes": "1"
					}
				}
			},
			"userdoc": {
				"kind": "user",
				"methods": {},
				"version": 1
			}
		}
	}
}