{
	"contracts/modules/SponsorMatrix.sol": {
		"Nanakshahi": {
			"abi": [
				{
					"inputs": [
						{
							"internalType": "address",
							"name": "_usdt",
							"type": "address"
						},
						{
							"internalType": "address",
							"name": "_creatorWallet",
							"type": "address"
						},
						{
							"internalType": "address",
							"name": "_systemMaintance",
							"type": "address"
						},
						{
							"internalType": "address",
							"name": "_teamDevelopment",
							"type": "address"
						}
					],
					"stateMutability": "nonpayable",
					"type": "constructor"
				},
				{
					"anonymous": false,
					"inputs": [
						{
							"indexed": false,
							"internalType": "uint256",
							"name": "amount",
							"type": "uint256"
						},
						{
							"indexed": false,
							"internalType": "uint256",
							"name": "usersCount",
							"type": "uint256"
						},
						{
							"indexed": false,
							"internalType": "uint256",
							"name": "perUser",
							"type": "uint256"
						}
					],
					"name": "CommunityBonusDistributed",
					"type": "event"
				},
				{
					"anonymous": false,
					"inputs": [
						{
							"indexed": true,
							"internalType": "address",
							"name": "to",
							"type": "address"
						},
						{
							"indexed": true,
							"internalType": "address",
							"name": "from",
							"type": "address"
						},
						{
							"indexed": false,
							"internalType": "uint256",
							"name": "amount",
							"type": "uint256"
						},
						{
							"indexed": false,
							"internalType": "uint256",
							"name": "packageLevel",
							"type": "uint256"
						},
						{
							"indexed": false,
							"internalType": "uint256",
							"name": "incomeType",
							"type": "uint256"
						}
					],
					"name": "IncomeDistributed",
					"type": "event"
				},
				{
					"anonymous": false,
					"inputs": [
						{
							"indexed": true,
							"internalType": "address",
							"name": "winner",
							"type": "address"
						},
						{
							"indexed": true,
							"internalType": "uint256",
							"name": "fromUserId",
							"type": "uint256"
						},
						{
							"indexed": false,
							"internalType": "uint256",
							"name": "amount",
							"type": "uint256"
						},
						{
							"indexed": false,
							"internalType": "uint256",
							"name": "timestamp",
							"type": "uint256"
						}
					],
					"name": "LotteryReward",
					"type": "event"
				},
				{
					"anonymous": false,
					"inputs": [
						{
							"indexed": true,
							"internalType": "address",
							"name": "user",
							"type": "address"
						},
						{
							"indexed": true,
							"internalType": "address",
							"name": "sponsor",
							"type": "address"
						},
						{
							"indexed": true,
							"internalType": "uint256",
							"name": "userId",
							"type": "uint256"
						},
						{
							"indexed": false,
							"internalType": "uint256",
							"name": "uplineId",
							"type": "uint256"
						}
					],
					"name": "Registration",
					"type": "event"
				},
				{
					"anonymous": false,
					"inputs": [
						{
							"indexed": true,
							"internalType": "address",
							"name": "to",
							"type": "address"
						},
						{
							"indexed": false,
							"internalType": "uint256",
							"name": "amount",
							"type": "uint256"
						},
						{
							"indexed": false,
							"internalType": "string",
							"name": "level",
							"type": "string"
						}
					],
					"name": "RewardSent",
					"type": "event"
				},
				{
					"anonymous": false,
					"inputs": [
						{
							"indexed": true,
							"internalType": "address",
							"name": "user",
							"type": "address"
						},
						{
							"indexed": true,
							"internalType": "uint256",
							"name": "userId",
							"type": "uint256"
						},
						{
							"indexed": false,
							"internalType": "uint256",
							"name": "packageLevel",
							"type": "uint256"
						},
						{
							"indexed": false,
							"internalType": "string",
							"name": "depositType",
							"type": "string"
						}
					],
					"name": "Upgrade",
					"type": "event"
				},
				{
					"anonymous": false,
					"inputs": [
						{
							"indexed": true,
							"internalType": "uint8",
							"name": "matrixId",
							"type": "uint8"
						},
						{
							"indexed": true,
							"internalType": "uint32",
							"name": "userId",
							"type": "uint32"
						},
						{
							"indexed": true,
							"internalType": "address",
							"name": "user",
							"type": "address"
						},
						{
							"indexed": false,
							"internalType": "uint32",
							"name": "parentId",
							"type": "uint32"
						},
						{
							"indexed": false,
							"internalType": "address",
							"name": "parentAddr",
							"type": "address"
						},
						{
							"indexed": false,
							"internalType": "uint8",
							"name": "position",
							"type": "uint8"
						}
					],
					"name": "UserJoined",
					"type": "event"
				},
				{
					"inputs": [],
					"name": "ACC_PRECISION",
					"outputs": [
						{
							"internalType": "uint256",
							"name": "",
							"type": "uint256"
						}
					],
					"stateMutability": "view",
					"type": "function"
				},
				{
					"inputs": [
						{
							"internalType": "uint256",
							"name": "",
							"type": "uint256"
						}
					],
					"name": "GlbBoosterPackages",
					"outputs": [
						{
							"internalType": "uint256",
							"name": "",
							"type": "uint256"
						}
					],
					"stateMutability": "view",
					"type": "function"
				},
				{
					"inputs": [],
					"name": "PERCENTS_DIVIDER",
					"outputs": [
						{
							"internalType": "uint256",
							"name": "",
							"type": "uint256"
						}
					],
					"stateMutability": "view",
					"type": "function"
				},
				{
					"inputs": [],
					"name": "ROI_CAP_DIVIDER",
					"outputs": [
						{
							"internalType": "uint256",
							"name": "",
							"type": "uint256"
						}
					],
					"stateMutability": "view",
					"type": "function"
				},
				{
					"inputs": [],
					"name": "ROI_CAP_MULTIPLIER",
					"outputs": [
						{
							"internalType": "uint256",
							"name": "",
							"type": "uint256"
						}
					],
					"stateMutability": "view",
					"type": "function"
				},
				{
					"inputs": [
						{
							"internalType": "uint32",
							"name": "_userId",
							"type": "uint32"
						},
						{
							"internalType": "uint256",
							"name": "_poolId",
							"type": "uint256"
						}
					],
					"name": "RetopPoolByEarning",
					"outputs": [],
					"stateMutability": "nonpayable",
					"type": "function"
				},
				{
					"inputs": [],
					"name": "TIME_STEP",
					"outputs": [
						{
							"internalType": "uint256",
							"name": "",
							"type": "uint256"
						}
					],
					"stateMutability": "view",
					"type": "function"
				},
				{
					"inputs": [
						{
							"internalType": "address",
							"name": "",
							"type": "address"
						}
					],
					"name": "addressToId",
					"outputs": [
						{
							"internalType": "uint256",
							"name": "",
							"type": "uint256"
						}
					],
					"stateMutability": "view",
					"type": "function"
				},
				{
					"inputs": [
						{
							"internalType": "uint256",
							"name": "",
							"type": "uint256"
						},
						{
							"internalType": "uint256",
							"name": "",
							"type": "uint256"
						}
					],
					"name": "boosterUsers",
					"outputs": [
						{
							"internalType": "uint256",
							"name": "",
							"type": "uint256"
						}
					],
					"stateMutability": "view",
					"type": "function"
				},
				{
					"inputs": [
						{
							"internalType": "uint256",
							"name": "userId",
							"type": "uint256"
						}
					],
					"name": "canBuyNextPool",
					"outputs": [
						{
							"internalType": "bool",
							"name": "eligible",
							"type": "bool"
						},
						{
							"internalType": "string",
							"name": "reason",
							"type": "string"
						}
					],
					"stateMutability": "view",
					"type": "function"
				},
				{
					"inputs": [
						{
							"internalType": "uint256",
							"name": "_userId",
							"type": "uint256"
						}
					],
					"name": "claimCommunity",
					"outputs": [],
					"stateMutability": "nonpayable",
					"type": "function"
				},
				{
					"inputs": [],
					"name": "communityAccPerUser",
					"outputs": [
						{
							"internalType": "uint256",
							"name": "",
							"type": "uint256"
						}
					],
					"stateMutability": "view",
					"type": "function"
				},
				{
					"inputs": [
						{
							"internalType": "uint256",
							"name": "",
							"type": "uint256"
						}
					],
					"name": "communityDebt",
					"outputs": [
						{
							"internalType": "uint256",
							"name": "",
							"type": "uint256"
						}
					],
					"stateMutability": "view",
					"type": "function"
				},
				{
					"inputs": [],
					"name": "creatorWallet",
					"outputs": [
						{
							"internalType": "address",
							"name": "",
							"type": "address"
						}
					],
					"stateMutability": "view",
					"type": "function"
				},
				{
					"inputs": [],
					"name": "defaultRefId",
					"outputs": [
						{
							"internalType": "uint256",
							"name": "",
							"type": "uint256"
						}
					],
					"stateMutability": "view",
					"type": "function"
				},
				{
					"inputs": [
						{
							"internalType": "uint256",
							"name": "",
							"type": "uint256"
						},
						{
							"internalType": "uint256",
							"name": "",
							"type": "uint256"
						}
					],
					"name": "directReferrals",
					"outputs": [
						{
							"internalType": "uint256",
							"name": "",
							"type": "uint256"
						}
					],
					"stateMutability": "view",
					"type": "function"
				},
				{
					"inputs": [
						{
							"internalType": "uint256",
							"name": "",
							"type": "uint256"
						},
						{
							"internalType": "uint256",
							"name": "",
							"type": "uint256"
						}
					],
					"name": "incomeHistory",
					"outputs": [
						{
							"internalType": "uint256",
							"name": "fromUserId",
							"type": "uint256"
						},
						{
							"internalType": "uint256",
							"name": "amount",
							"type": "uint256"
						},
						{
							"internalType": "uint256",
							"name": "packageLevel",
							"type": "uint256"
						},
						{
							"internalType": "uint256",
							"name": "timestamp",
							"type": "uint256"
						},
						{
							"internalType": "uint256",
							"name": "incomeType",
							"type": "uint256"
						}
					],
					"stateMutability": "view",
					"type": "function"
				},
				{
					"inputs": [],
					"name": "lastLotteryRun",
					"outputs": [
						{
							"internalType": "uint256",
							"name": "",
							"type": "uint256"
						}
					],
					"stateMutability": "view",
					"type": "function"
				},
				{
					"inputs": [],
					"name": "lastLotteryWinner",
					"outputs": [
						{
							"internalType": "address",
							"name": "",
							"type": "address"
						}
					],
					"stateMutability": "view",
					"type": "function"
				},
				{
					"inputs": [],
					"name": "lotteryInterval",
					"outputs": [
						{
							"internalType": "uint256",
							"name": "",
							"type": "uint256"
						}
					],
					"stateMutability": "view",
					"type": "function"
				},
				{
					"inputs": [],
					"name": "lotteryPool",
					"outputs": [
						{
							"internalType": "uint256",
							"name": "",
							"type": "uint256"
						}
					],
					"stateMutability": "view",
					"type": "function"
				},
				{
					"inputs": [
						{
							"internalType": "uint256",
							"name": "",
							"type": "uint256"
						}
					],
					"name": "matrixDirect",
					"outputs": [
						{
							"internalType": "uint256",
							"name": "",
							"type": "uint256"
						}
					],
					"stateMutability": "view",
					"type": "function"
				},
				{
					"inputs": [
						{
							"internalType": "uint256",
							"name": "",
							"type": "uint256"
						}
					],
					"name": "minLevelForGlbBooster",
					"outputs": [
						{
							"internalType": "uint256",
							"name": "",
							"type": "uint256"
						}
					],
					"stateMutability": "view",
					"type": "function"
				},
				{
					"inputs": [
						{
							"internalType": "uint256",
							"name": "",
							"type": "uint256"
						}
					],
					"name": "minLevelForPool",
					"outputs": [
						{
							"internalType": "uint256",
							"name": "",
							"type": "uint256"
						}
					],
					"stateMutability": "view",
					"type": "function"
				},
				{
					"inputs": [],
					"name": "owner",
					"outputs": [
						{
							"internalType": "address",
							"name": "",
							"type": "address"
						}
					],
					"stateMutability": "view",
					"type": "function"
				},
				{
					"inputs": [
						{
							"internalType": "uint256",
							"name": "",
							"type": "uint256"
						}
					],
					"name": "packages",
					"outputs": [
						{
							"internalType": "uint256",
							"name": "",
							"type": "uint256"
						}
					],
					"stateMutability": "view",
					"type": "function"
				},
				{
					"inputs": [
						{
							"internalType": "uint256",
							"name": "_userId",
							"type": "uint256"
						}
					],
					"name": "pendingCommunity",
					"outputs": [
						{
							"internalType": "uint256",
							"name": "pendingGross",
							"type": "uint256"
						},
						{
							"internalType": "uint256",
							"name": "pendingAfterCap",
							"type": "uint256"
						}
					],
					"stateMutability": "view",
					"type": "function"
				},
				{
					"inputs": [
						{
							"internalType": "uint256",
							"name": "",
							"type": "uint256"
						}
					],
					"name": "poolPackages",
					"outputs": [
						{
							"internalType": "uint256",
							"name": "",
							"type": "uint256"
						}
					],
					"stateMutability": "view",
					"type": "function"
				},
				{
					"inputs": [
						{
							"internalType": "uint256",
							"name": "",
							"type": "uint256"
						},
						{
							"internalType": "uint256",
							"name": "",
							"type": "uint256"
						}
					],
					"name": "poolUsers",
					"outputs": [
						{
							"internalType": "uint256",
							"name": "",
							"type": "uint256"
						}
					],
					"stateMutability": "view",
					"type": "function"
				},
				{
					"inputs": [
						{
							"internalType": "uint256",
							"name": "_sponsorId",
							"type": "uint256"
						}
					],
					"name": "register",
					"outputs": [],
					"stateMutability": "nonpayable",
					"type": "function"
				},
				{
					"inputs": [
						{
							"internalType": "uint256",
							"name": "",
							"type": "uint256"
						}
					],
					"name": "registeredUserIds",
					"outputs": [
						{
							"internalType": "uint256",
							"name": "",
							"type": "uint256"
						}
					],
					"stateMutability": "view",
					"type": "function"
				},
				{
					"inputs": [],
					"name": "systemMaintance",
					"outputs": [
						{
							"internalType": "address",
							"name": "",
							"type": "address"
						}
					],
					"stateMutability": "view",
					"type": "function"
				},
				{
					"inputs": [],
					"name": "teamDevelopment",
					"outputs": [
						{
							"internalType": "address",
							"name": "",
							"type": "address"
						}
					],
					"stateMutability": "view",
					"type": "function"
				},
				{
					"inputs": [
						{
							"internalType": "uint256",
							"name": "",
							"type": "uint256"
						},
						{
							"internalType": "uint256",
							"name": "",
							"type": "uint256"
						},
						{
							"internalType": "uint256",
							"name": "",
							"type": "uint256"
						}
					],
					"name": "teams",
					"outputs": [
						{
							"internalType": "uint256",
							"name": "",
							"type": "uint256"
						}
					],
					"stateMutability": "view",
					"type": "function"
				},
				{
					"inputs": [],
					"name": "totalUsers",
					"outputs": [
						{
							"internalType": "uint256",
							"name": "",
							"type": "uint256"
						}
					],
					"stateMutability": "view",
					"type": "function"
				},
				{
					"inputs": [
						{
							"internalType": "uint256",
							"name": "_userId",
							"type": "uint256"
						}
					],
					"name": "upgrade",
					"outputs": [],
					"stateMutability": "nonpayable",
					"type": "function"
				},
				{
					"inputs": [
						{
							"internalType": "uint256",
							"name": "_userId",
							"type": "uint256"
						}
					],
					"name": "upgradeBooster",
					"outputs": [],
					"stateMutability": "nonpayable",
					"type": "function"
				},
				{
					"inputs": [
						{
							"internalType": "uint256",
							"name": "_userId",
							"type": "uint256"
						}
					],
					"name": "upgradePool",
					"outputs": [],
					"stateMutability": "nonpayable",
					"type": "function"
				},
				{
					"inputs": [
						{
							"internalType": "uint32",
							"name": "_userId",
							"type": "uint32"
						},
						{
							"internalType": "uint256",
							"name": "_poolId",
							"type": "uint256"
						}
					],
					"name": "upgradePoolByEarning",
					"outputs": [],
					"stateMutability": "nonpayable",
					"type": "function"
				},
				{
					"inputs": [],
					"name": "usdt",
					"outputs": [
						{
							"internalType": "contract IERC20",
							"name": "",
							"type": "address"
						}
					],
					"stateMutability": "view",
					"type": "function"
				},
				{
					"inputs": [
						{
							"internalType": "uint256",
							"name": "",
							"type": "uint256"
						},
						{
							"internalType": "uint256",
							"name": "",
							"type": "uint256"
						},
						{
							"internalType": "uint256",
							"name": "",
							"type": "uint256"
						}
					],
					"name": "userBoosterChildren",
					"outputs": [
						{
							"internalType": "uint256",
							"name": "",
							"type": "uint256"
						}
					],
					"stateMutability": "view",
					"type": "function"
				},
				{
					"inputs": [
						{
							"internalType": "uint256",
							"name": "",
							"type": "uint256"
						},
						{
							"internalType": "uint256",
							"name": "",
							"type": "uint256"
						}
					],
					"name": "userBoosterdtl",
					"outputs": [
						{
							"internalType": "uint256",
							"name": "id",
							"type": "uint256"
						},
						{
							"internalType": "uint256",
							"name": "poolId",
							"type": "uint256"
						},
						{
							"internalType": "uint256",
							"name": "parentId",
							"type": "uint256"
						},
						{
							"internalType": "uint256",
							"name": "bonusCount",
							"type": "uint256"
						}
					],
					"stateMutability": "view",
					"type": "function"
				},
				{
					"inputs": [
						{
							"internalType": "uint256",
							"name": "",
							"type": "uint256"
						},
						{
							"internalType": "uint256",
							"name": "",
							"type": "uint256"
						},
						{
							"internalType": "uint256",
							"name": "",
							"type": "uint256"
						}
					],
					"name": "userChildren",
					"outputs": [
						{
							"internalType": "uint256",
							"name": "",
							"type": "uint256"
						}
					],
					"stateMutability": "view",
					"type": "function"
				},
				{
					"inputs": [
						{
							"internalType": "uint256",
							"name": "",
							"type": "uint256"
						},
						{
							"internalType": "uint256",
							"name": "",
							"type": "uint256"
						}
					],
					"name": "userHasPool",
					"outputs": [
						{
							"internalType": "bool",
							"name": "",
							"type": "bool"
						}
					],
					"stateMutability": "view",
					"type": "function"
				},
				{
					"inputs": [
						{
							"internalType": "uint256",
							"name": "",
							"type": "uint256"
						},
						{
							"internalType": "uint256",
							"name": "",
							"type": "uint256"
						}
					],
					"name": "userHasbooster",
					"outputs": [
						{
							"internalType": "bool",
							"name": "",
							"type": "bool"
						}
					],
					"stateMutability": "view",
					"type": "function"
				},
				{
					"inputs": [
						{
							"internalType": "uint256",
							"name": "",
							"type": "uint256"
						},
						{
							"internalType": "uint256",
							"name": "",
							"type": "uint256"
						},
						{
							"internalType": "uint256",
							"name": "",
							"type": "uint256"
						}
					],
					"name": "userIdPerPool",
					"outputs": [
						{
							"internalType": "uint256",
							"name": "",
							"type": "uint256"
						}
					],
					"stateMutability": "view",
					"type": "function"
				},
				{
					"inputs": [
						{
							"internalType": "uint256",
							"name": "",
							"type": "uint256"
						}
					],
					"name": "userIncomes",
					"outputs": [
						{
							"internalType": "uint256",
							"name": "totalIncome",
							"type": "uint256"
						},
						{
							"internalType": "uint256",
							"name": "sponsorIncome",
							"type": "uint256"
						},
						{
							"internalType": "uint256",
							"name": "matrixIncome",
							"type": "uint256"
						},
						{
							"internalType": "uint256",
							"name": "levelBoosterIncome",
							"type": "uint256"
						},
						{
							"internalType": "uint256",
							"name": "levelIncome",
							"type": "uint256"
						},
						{
							"internalType": "uint256",
							"name": "royaltyIncome",
							"type": "uint256"
						},
						{
							"internalType": "uint256",
							"name": "royaltyIncomeClaimed",
							"type": "uint256"
						},
						{
							"internalType": "uint256",
							"name": "communityIncome",
							"type": "uint256"
						},
						{
							"internalType": "uint256",
							"name": "poolIncome",
							"type": "uint256"
						},
						{
							"internalType": "uint256",
							"name": "boosterIncome",
							"type": "uint256"
						}
					],
					"stateMutability": "view",
					"type": "function"
				},
				{
					"inputs": [
						{
							"internalType": "uint256",
							"name": "",
							"type": "uint256"
						},
						{
							"internalType": "uint256",
							"name": "",
							"type": "uint256"
						}
					],
					"name": "userPooldtl",
					"outputs": [
						{
							"internalType": "uint256",
							"name": "id",
							"type": "uint256"
						},
						{
							"internalType": "uint256",
							"name": "mainid",
							"type": "uint256"
						},
						{
							"internalType": "uint256",
							"name": "poolId",
							"type": "uint256"
						},
						{
							"internalType": "uint256",
							"name": "parentId",
							"type": "uint256"
						},
						{
							"internalType": "uint256",
							"name": "bonusCount",
							"type": "uint256"
						}
					],
					"stateMutability": "view",
					"type": "function"
				},
				{
					"inputs": [
						{
							"internalType": "uint256",
							"name": "",
							"type": "uint256"
						},
						{
							"internalType": "uint256",
							"name": "",
							"type": "uint256"
						}
					],
					"name": "userPooltopup",
					"outputs": [
						{
							"internalType": "uint256",
							"name": "nextPoolAmt",
							"type": "uint256"
						},
						{
							"internalType": "uint256",
							"name": "reTopupAmt",
							"type": "uint256"
						}
					],
					"stateMutability": "view",
					"type": "function"
				},
				{
					"inputs": [
						{
							"internalType": "uint256",
							"name": "",
							"type": "uint256"
						}
					],
					"name": "users",
					"outputs": [
						{
							"internalType": "address",
							"name": "account",
							"type": "address"
						},
						{
							"internalType": "uint256",
							"name": "checkpoint",
							"type": "uint256"
						},
						{
							"internalType": "uint256",
							"name": "id",
							"type": "uint256"
						},
						{
							"internalType": "uint256",
							"name": "sponsorId",
							"type": "uint256"
						},
						{
							"internalType": "uint256",
							"name": "uplineId",
							"type": "uint256"
						},
						{
							"internalType": "uint256",
							"name": "level",
							"type": "uint256"
						},
						{
							"internalType": "uint256",
							"name": "directTeam",
							"type": "uint256"
						},
						{
							"internalType": "uint256",
							"name": "totalMatrixTeam",
							"type": "uint256"
						},
						{
							"internalType": "uint256",
							"name": "totalDeposit",
							"type": "uint256"
						},
						{
							"internalType": "uint256",
							"name": "poollevel",
							"type": "uint256"
						},
						{
							"internalType": "uint256",
							"name": "poolDeposit",
							"type": "uint256"
						},
						{
							"internalType": "uint256",
							"name": "boosterlevel",
							"type": "uint256"
						},
						{
							"internalType": "uint256",
							"name": "boosterDeposit",
							"type": "uint256"
						},
						{
							"internalType": "uint256",
							"name": "registrationTime",
							"type": "uint256"
						}
					],
					"stateMutability": "view",
					"type": "function"
				}
			],
			"devdoc": {
				"kind": "dev",
				"methods": {},
				"version": 1
			},
			"evm": {
				"assembly": "    /* \"contracts/modules/SponsorMatrix.sol\":756:37257  contract Nanakshahi {... */\n  mstore(0x40, 0x80)\n  jumpi(tag_11, callvalue)\n  mload(0x40)\n  0x1f\n  bytecodeSize\n  codesize\n  dup2\n  swap1\n  sub\n  swap2\n  dup3\n  add\n  not(0x1f)\n  and\n  dup4\n  add\n  swap2\n  sub(shl(0x40, 0x01), 0x01)\n  dup4\n  gt\n  dup5\n  dup5\n  lt\n  or\n  tag_53\n  jumpi\n  dup1\n  dup5\n  swap3\n  0x80\n  swap5\n  0x40\n  mstore\n  dup4\n  codecopy\n  dup2\n  add\n  sub\n  slt\n  tag_11\n  jumpi\n  tag_13\n  dup2\n  tag_3\n  jump\t// in\ntag_13:\n  tag_14\n  0x20\n  dup4\n  add\n  tag_3\n  jump\t// in\ntag_14:\n  tag_15\n  0x60\n  tag_16\n  0x40\n  dup7\n  add\n  tag_3\n  jump\t// in\ntag_16:\n  swap5\n  add\n  tag_3\n  jump\t// in\ntag_15:\n  mload(0x40)\n  swap1\n  swap3\n  swap1\n  0x01e0\n  dup2\n  add\n  sub(shl(0x40, 0x01), 0x01)\n  dup2\n  gt\n  dup3\n  dup3\n  lt\n  or\n  tag_53\n  jumpi\n  0x40\n  mstore\n    /* \"contracts/modules/SponsorMatrix.sol\":1359:1368  15 * 1e18 */\n  0xd02ab486cedc0000\n    /* \"contracts/modules/SponsorMatrix.sol\":756:37257  contract Nanakshahi {... */\n  dup2\n  mstore\n    /* \"contracts/modules/SponsorMatrix.sol\":1391:1400  25 * 1e18 */\n  0x015af1d78b58c40000\n    /* \"contracts/modules/SponsorMatrix.sol\":756:37257  contract Nanakshahi {... */\n  0x20\n    /* \"contracts/modules/SponsorMatrix.sol\":1348:1863  [... */\n  dup3\n  add\n    /* \"contracts/modules/SponsorMatrix.sol\":756:37257  contract Nanakshahi {... */\n  mstore\n    /* \"contracts/modules/SponsorMatrix.sol\":1423:1432  50 * 1e18 */\n  0x02b5e3af16b1880000\n    /* \"contracts/modules/SponsorMatrix.sol\":756:37257  contract Nanakshahi {... */\n  0x40\n    /* \"contracts/modules/SponsorMatrix.sol\":1348:1863  [... */\n  dup3\n  add\n    /* \"contracts/modules/SponsorMatrix.sol\":756:37257  contract Nanakshahi {... */\n  mstore\n    /* \"contracts/modules/SponsorMatrix.sol\":1455:1465  100 * 1e18 */\n  0x056bc75e2d63100000\n    /* \"contracts/modules/SponsorMatrix.sol\":756:37257  contract Nanakshahi {... */\n  0x60\n    /* \"contracts/modules/SponsorMatrix.sol\":1348:1863  [... */\n  dup3\n  add\n    /* \"contracts/modules/SponsorMatrix.sol\":756:37257  contract Nanakshahi {... */\n  mstore\n    /* \"contracts/modules/SponsorMatrix.sol\":1488:1498  200 * 1e18 */\n  0x0ad78ebc5ac6200000\n    /* \"contracts/modules/SponsorMatrix.sol\":756:37257  contract Nanakshahi {... */\n  0x80\n    /* \"contracts/modules/SponsorMatrix.sol\":1348:1863  [... */\n  dup3\n  add\n    /* \"contracts/modules/SponsorMatrix.sol\":756:37257  contract Nanakshahi {... */\n  mstore\n    /* \"contracts/modules/SponsorMatrix.sol\":1521:1531  400 * 1e18 */\n  0x15af1d78b58c400000\n    /* \"contracts/modules/SponsorMatrix.sol\":1348:1863  [... */\n  0xa0\n  dup3\n  add\n    /* \"contracts/modules/SponsorMatrix.sol\":756:37257  contract Nanakshahi {... */\n  mstore\n    /* \"contracts/modules/SponsorMatrix.sol\":1554:1564  800 * 1e18 */\n  0x2b5e3af16b18800000\n    /* \"contracts/modules/SponsorMatrix.sol\":1348:1863  [... */\n  0xc0\n  dup3\n  add\n    /* \"contracts/modules/SponsorMatrix.sol\":756:37257  contract Nanakshahi {... */\n  mstore\n    /* \"contracts/modules/SponsorMatrix.sol\":1587:1598  1600 * 1e18 */\n  0x56bc75e2d631000000\n    /* \"contracts/modules/SponsorMatrix.sol\":1348:1863  [... */\n  0xe0\n  dup3\n  add\n    /* \"contracts/modules/SponsorMatrix.sol\":756:37257  contract Nanakshahi {... */\n  mstore\n    /* \"contracts/modules/SponsorMatrix.sol\":1621:1632  3200 * 1e18 */\n  0xad78ebc5ac62000000\n    /* \"contracts/modules/SponsorMatrix.sol\":1348:1863  [... */\n  0x0100\n  dup3\n  add\n    /* \"contracts/modules/SponsorMatrix.sol\":756:37257  contract Nanakshahi {... */\n  mstore\n    /* \"contracts/modules/SponsorMatrix.sol\":1655:1666  6400 * 1e18 */\n  0x015af1d78b58c4000000\n    /* \"contracts/modules/SponsorMatrix.sol\":1348:1863  [... */\n  0x0120\n  dup3\n  add\n    /* \"contracts/modules/SponsorMatrix.sol\":756:37257  contract Nanakshahi {... */\n  mstore\n    /* \"contracts/modules/SponsorMatrix.sol\":1689:1701  12800 * 1e18 */\n  0x02b5e3af16b188000000\n    /* \"contracts/modules/SponsorMatrix.sol\":1348:1863  [... */\n  0x0140\n  dup3\n  add\n    /* \"contracts/modules/SponsorMatrix.sol\":756:37257  contract Nanakshahi {... */\n  mstore\n    /* \"contracts/modules/SponsorMatrix.sol\":1724:1736  25600 * 1e18 */\n  0x056bc75e2d6310000000\n    /* \"contracts/modules/SponsorMatrix.sol\":1348:1863  [... */\n  0x0160\n  dup3\n  add\n    /* \"contracts/modules/SponsorMatrix.sol\":756:37257  contract Nanakshahi {... */\n  mstore\n    /* \"contracts/modules/SponsorMatrix.sol\":1759:1771  51200 * 1e18 */\n  0x0ad78ebc5ac620000000\n    /* \"contracts/modules/SponsorMatrix.sol\":1348:1863  [... */\n  0x0180\n  dup3\n  add\n    /* \"contracts/modules/SponsorMatrix.sol\":756:37257  contract Nanakshahi {... */\n  mstore\n    /* \"contracts/modules/SponsorMatrix.sol\":1794:1807  102400 * 1e18 */\n  0x15af1d78b58c40000000\n    /* \"contracts/modules/SponsorMatrix.sol\":1348:1863  [... */\n  0x01a0\n  dup3\n  add\n    /* \"contracts/modules/SponsorMatrix.sol\":756:37257  contract Nanakshahi {... */\n  mstore\n    /* \"contracts/modules/SponsorMatrix.sol\":1830:1843  204800 * 1e18 */\n  0x2b5e3af16b1880000000\n    /* \"contracts/modules/SponsorMatrix.sol\":1348:1863  [... */\n  0x01c0\n  dup3\n  add\n    /* \"contracts/modules/SponsorMatrix.sol\":756:37257  contract Nanakshahi {... */\n  mstore\n    /* \"contracts/modules/SponsorMatrix.sol\":1348:1863  [... */\n  0x07\n    /* \"contracts/modules/SponsorMatrix.sol\":756:37257  contract Nanakshahi {... */\n  sload\n    /* \"contracts/modules/SponsorMatrix.sol\":1348:1863  [... */\n  0x0f\n  0x07\n    /* \"contracts/modules/SponsorMatrix.sol\":756:37257  contract Nanakshahi {... */\n  sstore\n  dup1\n    /* \"contracts/modules/SponsorMatrix.sol\":1348:1863  [... */\n  0x0f\n    /* \"contracts/modules/SponsorMatrix.sol\":756:37257  contract Nanakshahi {... */\n  lt\n  tag_19\n  jumpi\ntag_20:\n  pop\n    /* \"contracts/modules/SponsorMatrix.sol\":1348:1863  [... */\n  0x07\n  0x00\n    /* \"contracts/modules/SponsorMatrix.sol\":756:37257  contract Nanakshahi {... */\n  mstore\n  keccak256(0x00, 0x20)\n  swap1\n  0x00\ntag_21:\n    /* \"contracts/modules/SponsorMatrix.sol\":1348:1863  [... */\n  0x0f\n    /* \"contracts/modules/SponsorMatrix.sol\":756:37257  contract Nanakshahi {... */\n  dup2\n  lt\n  tag_22\n  jumpi\n  pop\n  pop\n  pop\n  tag_24\n  tag_1\n  jump\t// in\ntag_24:\n    /* \"contracts/modules/SponsorMatrix.sol\":1391:1400  25 * 1e18 */\n  0x015af1d78b58c40000\n    /* \"contracts/modules/SponsorMatrix.sol\":756:37257  contract Nanakshahi {... */\n  dup2\n  mstore\n    /* \"contracts/modules/SponsorMatrix.sol\":1455:1465  100 * 1e18 */\n  0x056bc75e2d63100000\n    /* \"contracts/modules/SponsorMatrix.sol\":756:37257  contract Nanakshahi {... */\n  0x20\n    /* \"contracts/modules/SponsorMatrix.sol\":1899:1961  [25e18, 100e18, 400e18, 1600e18, 6400e18, 25600e18, 102400e18] */\n  dup3\n  add\n    /* \"contracts/modules/SponsorMatrix.sol\":756:37257  contract Nanakshahi {... */\n  mstore\n    /* \"contracts/modules/SponsorMatrix.sol\":1521:1531  400 * 1e18 */\n  0x15af1d78b58c400000\n    /* \"contracts/modules/SponsorMatrix.sol\":756:37257  contract Nanakshahi {... */\n  0x40\n    /* \"contracts/modules/SponsorMatrix.sol\":1899:1961  [25e18, 100e18, 400e18, 1600e18, 6400e18, 25600e18, 102400e18] */\n  dup3\n  add\n    /* \"contracts/modules/SponsorMatrix.sol\":756:37257  contract Nanakshahi {... */\n  mstore\n    /* \"contracts/modules/SponsorMatrix.sol\":1587:1598  1600 * 1e18 */\n  0x56bc75e2d631000000\n    /* \"contracts/modules/SponsorMatrix.sol\":756:37257  contract Nanakshahi {... */\n  0x60\n    /* \"contracts/modules/SponsorMatrix.sol\":1899:1961  [25e18, 100e18, 400e18, 1600e18, 6400e18, 25600e18, 102400e18] */\n  dup3\n  add\n    /* \"contracts/modules/SponsorMatrix.sol\":756:37257  contract Nanakshahi {... */\n  mstore\n    /* \"contracts/modules/SponsorMatrix.sol\":1655:1666  6400 * 1e18 */\n  0x015af1d78b58c4000000\n    /* \"contracts/modules/SponsorMatrix.sol\":756:37257  contract Nanakshahi {... */\n  0x80\n    /* \"contracts/modules/SponsorMatrix.sol\":1899:1961  [25e18, 100e18, 400e18, 1600e18, 6400e18, 25600e18, 102400e18] */\n  dup3\n  add\n    /* \"contracts/modules/SponsorMatrix.sol\":756:37257  contract Nanakshahi {... */\n  mstore\n    /* \"contracts/modules/SponsorMatrix.sol\":1724:1736  25600 * 1e18 */\n  0x056bc75e2d6310000000\n    /* \"contracts/modules/SponsorMatrix.sol\":1348:1863  [... */\n  0xa0\n    /* \"contracts/modules/SponsorMatrix.sol\":1899:1961  [25e18, 100e18, 400e18, 1600e18, 6400e18, 25600e18, 102400e18] */\n  dup3\n  add\n    /* \"contracts/modules/SponsorMatrix.sol\":756:37257  contract Nanakshahi {... */\n  mstore\n    /* \"contracts/modules/SponsorMatrix.sol\":1794:1807  102400 * 1e18 */\n  0x15af1d78b58c40000000\n    /* \"contracts/modules/SponsorMatrix.sol\":1348:1863  [... */\n  0xc0\n    /* \"contracts/modules/SponsorMatrix.sol\":1899:1961  [25e18, 100e18, 400e18, 1600e18, 6400e18, 25600e18, 102400e18] */\n  dup3\n  add\n    /* \"contracts/modules/SponsorMatrix.sol\":756:37257  contract Nanakshahi {... */\n  mstore\n    /* \"contracts/modules/SponsorMatrix.sol\":1899:1961  [25e18, 100e18, 400e18, 1600e18, 6400e18, 25600e18, 102400e18] */\n  0x08\n    /* \"contracts/modules/SponsorMatrix.sol\":756:37257  contract Nanakshahi {... */\n  sload\n    /* \"contracts/modules/SponsorMatrix.sol\":1348:1863  [... */\n  0x07\n    /* \"contracts/modules/SponsorMatrix.sol\":1899:1961  [25e18, 100e18, 400e18, 1600e18, 6400e18, 25600e18, 102400e18] */\n  0x08\n    /* \"contracts/modules/SponsorMatrix.sol\":756:37257  contract Nanakshahi {... */\n  sstore\n  dup1\n    /* \"contracts/modules/SponsorMatrix.sol\":1348:1863  [... */\n  0x07\n    /* \"contracts/modules/SponsorMatrix.sol\":756:37257  contract Nanakshahi {... */\n  lt\n  tag_25\n  jumpi\ntag_26:\n  pop\n    /* \"contracts/modules/SponsorMatrix.sol\":1899:1961  [25e18, 100e18, 400e18, 1600e18, 6400e18, 25600e18, 102400e18] */\n  0x08\n  0x00\n    /* \"contracts/modules/SponsorMatrix.sol\":756:37257  contract Nanakshahi {... */\n  mstore\n  keccak256(0x00, 0x20)\n  swap1\n  0x00\ntag_27:\n    /* \"contracts/modules/SponsorMatrix.sol\":1348:1863  [... */\n  0x07\n    /* \"contracts/modules/SponsorMatrix.sol\":756:37257  contract Nanakshahi {... */\n  dup2\n  lt\n  tag_28\n  jumpi\n  pop\n  pop\n  pop\n  tag_30\n  tag_2\n  jump\t// in\ntag_30:\n    /* \"contracts/modules/SponsorMatrix.sol\":1455:1465  100 * 1e18 */\n  0x056bc75e2d63100000\n    /* \"contracts/modules/SponsorMatrix.sol\":756:37257  contract Nanakshahi {... */\n  dup2\n  mstore\n    /* \"contracts/modules/SponsorMatrix.sol\":1488:1498  200 * 1e18 */\n  0x0ad78ebc5ac6200000\n    /* \"contracts/modules/SponsorMatrix.sol\":756:37257  contract Nanakshahi {... */\n  0x20\n    /* \"contracts/modules/SponsorMatrix.sol\":2003:2073  [ 100e18, 200e18, 400e18, 800e18, 1600e18, 3200e18, 6400e18, 12800e18] */\n  dup3\n  add\n    /* \"contracts/modules/SponsorMatrix.sol\":756:37257  contract Nanakshahi {... */\n  mstore\n    /* \"contracts/modules/SponsorMatrix.sol\":1521:1531  400 * 1e18 */\n  0x15af1d78b58c400000\n    /* \"contracts/modules/SponsorMatrix.sol\":756:37257  contract Nanakshahi {... */\n  0x40\n    /* \"contracts/modules/SponsorMatrix.sol\":2003:2073  [ 100e18, 200e18, 400e18, 800e18, 1600e18, 3200e18, 6400e18, 12800e18] */\n  dup3\n  add\n    /* \"contracts/modules/SponsorMatrix.sol\":756:37257  contract Nanakshahi {... */\n  mstore\n    /* \"contracts/modules/SponsorMatrix.sol\":1554:1564  800 * 1e18 */\n  0x2b5e3af16b18800000\n    /* \"contracts/modules/SponsorMatrix.sol\":756:37257  contract Nanakshahi {... */\n  0x60\n    /* \"contracts/modules/SponsorMatrix.sol\":2003:2073  [ 100e18, 200e18, 400e18, 800e18, 1600e18, 3200e18, 6400e18, 12800e18] */\n  dup3\n  add\n    /* \"contracts/modules/SponsorMatrix.sol\":756:37257  contract Nanakshahi {... */\n  mstore\n    /* \"contracts/modules/SponsorMatrix.sol\":1587:1598  1600 * 1e18 */\n  0x56bc75e2d631000000\n    /* \"contracts/modules/SponsorMatrix.sol\":756:37257  contract Nanakshahi {... */\n  0x80\n    /* \"contracts/modules/SponsorMatrix.sol\":2003:2073  [ 100e18, 200e18, 400e18, 800e18, 1600e18, 3200e18, 6400e18, 12800e18] */\n  dup3\n  add\n    /* \"contracts/modules/SponsorMatrix.sol\":756:37257  contract Nanakshahi {... */\n  mstore\n    /* \"contracts/modules/SponsorMatrix.sol\":1621:1632  3200 * 1e18 */\n  0xad78ebc5ac62000000\n    /* \"contracts/modules/SponsorMatrix.sol\":1348:1863  [... */\n  0xa0\n    /* \"contracts/modules/SponsorMatrix.sol\":2003:2073  [ 100e18, 200e18, 400e18, 800e18, 1600e18, 3200e18, 6400e18, 12800e18] */\n  dup3\n  add\n    /* \"contracts/modules/SponsorMatrix.sol\":756:37257  contract Nanakshahi {... */\n  mstore\n    /* \"contracts/modules/SponsorMatrix.sol\":1655:1666  6400 * 1e18 */\n  0x015af1d78b58c4000000\n    /* \"contracts/modules/SponsorMatrix.sol\":1348:1863  [... */\n  0xc0\n    /* \"contracts/modules/SponsorMatrix.sol\":2003:2073  [ 100e18, 200e18, 400e18, 800e18, 1600e18, 3200e18, 6400e18, 12800e18] */\n  dup3\n  add\n    /* \"contracts/modules/SponsorMatrix.sol\":756:37257  contract Nanakshahi {... */\n  mstore\n    /* \"contracts/modules/SponsorMatrix.sol\":1689:1701  12800 * 1e18 */\n  0x02b5e3af16b188000000\n    /* \"contracts/modules/SponsorMatrix.sol\":1348:1863  [... */\n  0xe0\n    /* \"contracts/modules/SponsorMatrix.sol\":2003:2073  [ 100e18, 200e18, 400e18, 800e18, 1600e18, 3200e18, 6400e18, 12800e18] */\n  dup3\n  add\n    /* \"contracts/modules/SponsorMatrix.sol\":756:37257  contract Nanakshahi {... */\n  mstore\n    /* \"contracts/modules/SponsorMatrix.sol\":2003:2073  [ 100e18, 200e18, 400e18, 800e18, 1600e18, 3200e18, 6400e18, 12800e18] */\n  0x09\n    /* \"contracts/modules/SponsorMatrix.sol\":756:37257  contract Nanakshahi {... */\n  sload\n    /* \"contracts/modules/SponsorMatrix.sol\":1899:1961  [25e18, 100e18, 400e18, 1600e18, 6400e18, 25600e18, 102400e18] */\n  0x08\n    /* \"contracts/modules/SponsorMatrix.sol\":2003:2073  [ 100e18, 200e18, 400e18, 800e18, 1600e18, 3200e18, 6400e18, 12800e18] */\n  0x09\n    /* \"contracts/modules/SponsorMatrix.sol\":756:37257  contract Nanakshahi {... */\n  sstore\n  dup1\n    /* \"contracts/modules/SponsorMatrix.sol\":1899:1961  [25e18, 100e18, 400e18, 1600e18, 6400e18, 25600e18, 102400e18] */\n  0x08\n    /* \"contracts/modules/SponsorMatrix.sol\":756:37257  contract Nanakshahi {... */\n  lt\n  tag_31\n  jumpi\ntag_32:\n  pop\n    /* \"contracts/modules/SponsorMatrix.sol\":2003:2073  [ 100e18, 200e18, 400e18, 800e18, 1600e18, 3200e18, 6400e18, 12800e18] */\n  0x09\n  0x00\n    /* \"contracts/modules/SponsorMatrix.sol\":756:37257  contract Nanakshahi {... */\n  mstore\n  keccak256(0x00, 0x20)\n  swap1\n  0x00\ntag_33:\n    /* \"contracts/modules/SponsorMatrix.sol\":1899:1961  [25e18, 100e18, 400e18, 1600e18, 6400e18, 25600e18, 102400e18] */\n  0x08\n    /* \"contracts/modules/SponsorMatrix.sol\":756:37257  contract Nanakshahi {... */\n  dup2\n  lt\n  tag_34\n  jumpi\n  pop\n  pop\n  pop\n  tag_36\n  tag_1\n  jump\t// in\ntag_36:\n    /* \"contracts/modules/SponsorMatrix.sol\":2114:2115  3 */\n  0x03\n    /* \"contracts/modules/SponsorMatrix.sol\":756:37257  contract Nanakshahi {... */\n  dup2\n  mstore\n  0x05\n  0x20\n    /* \"contracts/modules/SponsorMatrix.sol\":2113:2137  [3, 5, 7, 9, 11, 13, 15] */\n  dup3\n  add\n    /* \"contracts/modules/SponsorMatrix.sol\":756:37257  contract Nanakshahi {... */\n  mstore\n    /* \"contracts/modules/SponsorMatrix.sol\":1348:1863  [... */\n  0x07\n    /* \"contracts/modules/SponsorMatrix.sol\":756:37257  contract Nanakshahi {... */\n  0x40\n    /* \"contracts/modules/SponsorMatrix.sol\":2113:2137  [3, 5, 7, 9, 11, 13, 15] */\n  dup3\n  add\n    /* \"contracts/modules/SponsorMatrix.sol\":756:37257  contract Nanakshahi {... */\n  mstore\n    /* \"contracts/modules/SponsorMatrix.sol\":2003:2073  [ 100e18, 200e18, 400e18, 800e18, 1600e18, 3200e18, 6400e18, 12800e18] */\n  0x09\n    /* \"contracts/modules/SponsorMatrix.sol\":756:37257  contract Nanakshahi {... */\n  0x60\n    /* \"contracts/modules/SponsorMatrix.sol\":2113:2137  [3, 5, 7, 9, 11, 13, 15] */\n  dup3\n  add\n    /* \"contracts/modules/SponsorMatrix.sol\":756:37257  contract Nanakshahi {... */\n  mstore\n    /* \"contracts/modules/SponsorMatrix.sol\":2126:2128  11 */\n  0x0b\n    /* \"contracts/modules/SponsorMatrix.sol\":756:37257  contract Nanakshahi {... */\n  0x80\n    /* \"contracts/modules/SponsorMatrix.sol\":2113:2137  [3, 5, 7, 9, 11, 13, 15] */\n  dup3\n  add\n    /* \"contracts/modules/SponsorMatrix.sol\":756:37257  contract Nanakshahi {... */\n  mstore\n    /* \"contracts/modules/SponsorMatrix.sol\":2130:2132  13 */\n  0x0d\n    /* \"contracts/modules/SponsorMatrix.sol\":1348:1863  [... */\n  0xa0\n    /* \"contracts/modules/SponsorMatrix.sol\":2113:2137  [3, 5, 7, 9, 11, 13, 15] */\n  dup3\n  add\n    /* \"contracts/modules/SponsorMatrix.sol\":756:37257  contract Nanakshahi {... */\n  mstore\n    /* \"contracts/modules/SponsorMatrix.sol\":1348:1863  [... */\n  0x0f\n  0xc0\n    /* \"contracts/modules/SponsorMatrix.sol\":2113:2137  [3, 5, 7, 9, 11, 13, 15] */\n  dup3\n  add\n    /* \"contracts/modules/SponsorMatrix.sol\":756:37257  contract Nanakshahi {... */\n  mstore\n  0x00\ntag_37:\n    /* \"contracts/modules/SponsorMatrix.sol\":1348:1863  [... */\n  0x07\n    /* \"contracts/modules/SponsorMatrix.sol\":756:37257  contract Nanakshahi {... */\n  dup2\n  lt\n  tag_38\n  jumpi\n  pop\n  pop\n  tag_40\n  tag_2\n  jump\t// in\ntag_40:\n    /* \"contracts/modules/SponsorMatrix.sol\":2184:2185  4 */\n  0x04\n    /* \"contracts/modules/SponsorMatrix.sol\":756:37257  contract Nanakshahi {... */\n  dup2\n  mstore\n  0x05\n  0x20\n    /* \"contracts/modules/SponsorMatrix.sol\":2183:2208  [4, 5, 6, 7, 8, 9, 10,11] */\n  dup3\n  add\n    /* \"contracts/modules/SponsorMatrix.sol\":756:37257  contract Nanakshahi {... */\n  mstore\n    /* \"contracts/modules/SponsorMatrix.sol\":2190:2191  6 */\n  0x06\n    /* \"contracts/modules/SponsorMatrix.sol\":756:37257  contract Nanakshahi {... */\n  0x40\n    /* \"contracts/modules/SponsorMatrix.sol\":2183:2208  [4, 5, 6, 7, 8, 9, 10,11] */\n  dup3\n  add\n    /* \"contracts/modules/SponsorMatrix.sol\":756:37257  contract Nanakshahi {... */\n  mstore\n    /* \"contracts/modules/SponsorMatrix.sol\":1348:1863  [... */\n  0x07\n    /* \"contracts/modules/SponsorMatrix.sol\":756:37257  contract Nanakshahi {... */\n  0x60\n    /* \"contracts/modules/SponsorMatrix.sol\":2183:2208  [4, 5, 6, 7, 8, 9, 10,11] */\n  dup3\n  add\n    /* \"contracts/modules/SponsorMatrix.sol\":756:37257  contract Nanakshahi {... */\n  mstore\n    /* \"contracts/modules/SponsorMatrix.sol\":1899:1961  [25e18, 100e18, 400e18, 1600e18, 6400e18, 25600e18, 102400e18] */\n  0x08\n    /* \"contracts/modules/SponsorMatrix.sol\":756:37257  contract Nanakshahi {... */\n  0x80\n    /* \"contracts/modules/SponsorMatrix.sol\":2183:2208  [4, 5, 6, 7, 8, 9, 10,11] */\n  dup3\n  add\n    /* \"contracts/modules/SponsorMatrix.sol\":756:37257  contract Nanakshahi {... */\n  mstore\n    /* \"contracts/modules/SponsorMatrix.sol\":2003:2073  [ 100e18, 200e18, 400e18, 800e18, 1600e18, 3200e18, 6400e18, 12800e18] */\n  0x09\n    /* \"contracts/modules/SponsorMatrix.sol\":1348:1863  [... */\n  0xa0\n    /* \"contracts/modules/SponsorMatrix.sol\":2183:2208  [4, 5, 6, 7, 8, 9, 10,11] */\n  dup3\n  add\n    /* \"contracts/modules/SponsorMatrix.sol\":756:37257  contract Nanakshahi {... */\n  mstore\n    /* \"contracts/modules/SponsorMatrix.sol\":2113:2137  [3, 5, 7, 9, 11, 13, 15] */\n  0x0a\n    /* \"contracts/modules/SponsorMatrix.sol\":1348:1863  [... */\n  0xc0\n    /* \"contracts/modules/SponsorMatrix.sol\":2183:2208  [4, 5, 6, 7, 8, 9, 10,11] */\n  dup3\n  add\n    /* \"contracts/modules/SponsorMatrix.sol\":756:37257  contract Nanakshahi {... */\n  mstore\n    /* \"contracts/modules/SponsorMatrix.sol\":2126:2128  11 */\n  0x0b\n    /* \"contracts/modules/SponsorMatrix.sol\":1348:1863  [... */\n  0xe0\n    /* \"contracts/modules/SponsorMatrix.sol\":2183:2208  [4, 5, 6, 7, 8, 9, 10,11] */\n  dup3\n  add\n    /* \"contracts/modules/SponsorMatrix.sol\":756:37257  contract Nanakshahi {... */\n  mstore\n  0x00\ntag_41:\n    /* \"contracts/modules/SponsorMatrix.sol\":1899:1961  [25e18, 100e18, 400e18, 1600e18, 6400e18, 25600e18, 102400e18] */\n  0x08\n    /* \"contracts/modules/SponsorMatrix.sol\":756:37257  contract Nanakshahi {... */\n  dup2\n  lt\n  tag_42\n  jumpi\n  pop\n  pop\n    /* \"contracts/modules/SponsorMatrix.sol\":6224:6230  1 days */\n  0x015180\n  0x2f\n    /* \"contracts/modules/SponsorMatrix.sol\":756:37257  contract Nanakshahi {... */\n  sstore\n  0x00\n  dup1\n  sload\n  not(sub(shl(0xa0, 0x01), 0x01))\n  swap1\n  dup2\n  and\n  sub(shl(0xa0, 0x01), 0x01)\n  swap4\n  dup5\n  and\n  or\n  dup3\n  sstore\n    /* \"contracts/modules/SponsorMatrix.sol\":7057:7087  creatorWallet = _creatorWallet */\n  0x02\n    /* \"contracts/modules/SponsorMatrix.sol\":756:37257  contract Nanakshahi {... */\n  dup1\n  sload\n  dup3\n  and\n  swap5\n  dup5\n  and\n  swap5\n  dup6\n  or\n  swap1\n  sstore\n    /* \"contracts/modules/SponsorMatrix.sol\":2114:2115  3 */\n  0x03\n    /* \"contracts/modules/SponsorMatrix.sol\":756:37257  contract Nanakshahi {... */\n  dup1\n  sload\n  dup3\n  and\n  swap7\n  dup5\n  and\n  swap7\n  swap1\n  swap7\n  or\n  swap1\n  swap6\n  sstore\n    /* \"contracts/modules/SponsorMatrix.sol\":2184:2185  4 */\n  0x04\n    /* \"contracts/modules/SponsorMatrix.sol\":756:37257  contract Nanakshahi {... */\n  dup1\n  sload\n  dup7\n  and\n  swap5\n  swap1\n  swap3\n  and\n  swap4\n  swap1\n  swap4\n  or\n  swap1\n  sstore\n    /* \"contracts/modules/SponsorMatrix.sol\":7203:7207  1000 */\n  0x03e8\n    /* \"contracts/modules/SponsorMatrix.sol\":756:37257  contract Nanakshahi {... */\n  0x05\n  dup2\n  swap1\n  sstore\n  0x01\n    /* \"contracts/modules/SponsorMatrix.sol\":2190:2191  6 */\n  0x06\n    /* \"contracts/modules/SponsorMatrix.sol\":756:37257  contract Nanakshahi {... */\n  sstore\n  dup1\n  dup4\n  mstore\n    /* \"contracts/modules/SponsorMatrix.sol\":7315:7320  users */\n  0x24\n    /* \"contracts/modules/SponsorMatrix.sol\":756:37257  contract Nanakshahi {... */\n  0x20\n  mstore\n  0x7785b2b245ffefa6a9e02fae93c7f43464cf93d9d4feb8428a1f466255a0ae7f\n  dup1\n  sload\n  swap1\n  swap5\n  and\n  dup3\n  or\n  dup5\n  sstore\n    /* \"contracts/modules/SponsorMatrix.sol\":7388:7398  creator.id */\n  0x7785b2b245ffefa6a9e02fae93c7f43464cf93d9d4feb8428a1f466255a0ae82\n    /* \"contracts/modules/SponsorMatrix.sol\":756:37257  contract Nanakshahi {... */\n  sstore\n    /* \"contracts/modules/SponsorMatrix.sol\":1348:1863  [... */\n  0x0f\n    /* \"contracts/modules/SponsorMatrix.sol\":7424:7437  creator.level */\n  0x7785b2b245ffefa6a9e02fae93c7f43464cf93d9d4feb8428a1f466255a0ae85\n    /* \"contracts/modules/SponsorMatrix.sol\":756:37257  contract Nanakshahi {... */\n  sstore\n    /* \"contracts/modules/SponsorMatrix.sol\":7511:7526  block.timestamp */\n  timestamp\n    /* \"contracts/modules/SponsorMatrix.sol\":7484:7508  creator.registrationTime */\n  0x7785b2b245ffefa6a9e02fae93c7f43464cf93d9d4feb8428a1f466255a0ae8d\n    /* \"contracts/modules/SponsorMatrix.sol\":756:37257  contract Nanakshahi {... */\n  sstore\n    /* \"contracts/modules/SponsorMatrix.sol\":1348:1863  [... */\n  0x07\n    /* \"contracts/modules/SponsorMatrix.sol\":7537:7554  creator.poollevel */\n  0x7785b2b245ffefa6a9e02fae93c7f43464cf93d9d4feb8428a1f466255a0ae89\n    /* \"contracts/modules/SponsorMatrix.sol\":756:37257  contract Nanakshahi {... */\n  dup2\n  swap1\n  sstore\n    /* \"contracts/modules/SponsorMatrix.sol\":1899:1961  [25e18, 100e18, 400e18, 1600e18, 6400e18, 25600e18, 102400e18] */\n  0x08\n    /* \"contracts/modules/SponsorMatrix.sol\":7569:7589  creator.boosterlevel */\n  0x7785b2b245ffefa6a9e02fae93c7f43464cf93d9d4feb8428a1f466255a0ae8b\n    /* \"contracts/modules/SponsorMatrix.sol\":756:37257  contract Nanakshahi {... */\n  sstore\n  sload\n  swap1\n  swap2\n  swap1\n  dup2\n  swap1\n    /* \"contracts/modules/SponsorMatrix.sol\":7706:7712  i < 15 */\ntag_44:\n    /* \"contracts/modules/SponsorMatrix.sol\":1348:1863  [... */\n  0x0f\n    /* \"contracts/modules/SponsorMatrix.sol\":7706:7712  i < 15 */\n  dup3\n  lt\n  tag_45\n  jumpi\n  pop\n  pop\n    /* \"contracts/modules/SponsorMatrix.sol\":2003:2073  [ 100e18, 200e18, 400e18, 800e18, 1600e18, 3200e18, 6400e18, 12800e18] */\n  0x09\n    /* \"contracts/modules/SponsorMatrix.sol\":7783:7803  creator.totalDeposit */\n  dup4\n  add\n    /* \"contracts/modules/SponsorMatrix.sol\":756:37257  contract Nanakshahi {... */\n  sstore\n  sload(0x05)\n  0x00\n  swap2\n  dup3\n  mstore\n    /* \"contracts/modules/SponsorMatrix.sol\":7829:7840  addressToId */\n  0x23\n    /* \"contracts/modules/SponsorMatrix.sol\":756:37257  contract Nanakshahi {... */\n  0x20\n  mstore\n  0x40\n  dup3\n  keccak256\n  sstore\n  dup1\n    /* \"contracts/modules/SponsorMatrix.sol\":7952:7955  j++ */\ntag_47:\n    /* \"contracts/modules/SponsorMatrix.sol\":1899:1961  [25e18, 100e18, 400e18, 1600e18, 6400e18, 25600e18, 102400e18] */\n  0x08\n    /* \"contracts/modules/SponsorMatrix.sol\":756:37257  contract Nanakshahi {... */\n  sload\n    /* \"contracts/modules/SponsorMatrix.sol\":7927:7950  j < poolPackages.length */\n  dup3\n  lt\n  iszero\n  tag_48\n  jumpi\n    /* \"contracts/modules/SponsorMatrix.sol\":1899:1961  [25e18, 100e18, 400e18, 1600e18, 6400e18, 25600e18, 102400e18] */\n  0x08\n    /* \"contracts/modules/SponsorMatrix.sol\":756:37257  contract Nanakshahi {... */\n  sload\n  dup3\n  lt\n  iszero\n  tag_50\n  jumpi\n    /* \"contracts/modules/SponsorMatrix.sol\":1899:1961  [25e18, 100e18, 400e18, 1600e18, 6400e18, 25600e18, 102400e18] */\n  0x08\n  0x00\n    /* \"contracts/modules/SponsorMatrix.sol\":756:37257  contract Nanakshahi {... */\n  mstore\n  mload(0x00)\n  codecopy(0x00, data_a7c46294ffa3fad92dc8422b2e38b688ccf1b86172f5beaf864af9368d2844e5, 0x20)\n  mload(0x00)\n  swap1\n  0x00\n  mstore\n  dup3\n  add\n  sload\n    /* \"contracts/modules/SponsorMatrix.sol\":7972:8003  totalDeposit += poolPackages[j] */\n  tag_52\n  swap2\n  tag_5\n  jump\t// in\ntag_52:\n    /* \"contracts/modules/SponsorMatrix.sol\":756:37257  contract Nanakshahi {... */\n  sload(0x05)\n  mload(0x40)\n  swap2\n  swap3\n  swap1\n  swap2\n    /* \"contracts/modules/SponsorMatrix.sol\":1348:1863  [... */\n  0xa0\n    /* \"contracts/modules/SponsorMatrix.sol\":756:37257  contract Nanakshahi {... */\n  dup2\n  add\n  sub(shl(0x40, 0x01), 0x01)\n  dup2\n  gt\n  dup3\n  dup3\n  lt\n  or\n  tag_53\n  jumpi\n  0x01\n  swap4\n    /* \"contracts/modules/SponsorMatrix.sol\":2184:2185  4 */\n  0x04\n    /* \"contracts/modules/SponsorMatrix.sol\":756:37257  contract Nanakshahi {... */\n  swap2\n  0x40\n  mstore\n  dup1\n  dup4\n  mstore\n  0x20\n    /* \"contracts/modules/SponsorMatrix.sol\":8049:8238  UserPool({... */\n  dup4\n  add\n    /* \"contracts/modules/SponsorMatrix.sol\":756:37257  contract Nanakshahi {... */\n  dup2\n  dup2\n  mstore\n  0x40\n    /* \"contracts/modules/SponsorMatrix.sol\":8049:8238  UserPool({... */\n  dup5\n  add\n    /* \"contracts/modules/SponsorMatrix.sol\":756:37257  contract Nanakshahi {... */\n  dup6\n  dup2\n  mstore\n  0x60\n    /* \"contracts/modules/SponsorMatrix.sol\":8049:8238  UserPool({... */\n  dup6\n  add\n    /* \"contracts/modules/SponsorMatrix.sol\":756:37257  contract Nanakshahi {... */\n  swap2\n  0x00\n  dup4\n  mstore\n  0x80\n    /* \"contracts/modules/SponsorMatrix.sol\":8049:8238  UserPool({... */\n  dup7\n  add\n    /* \"contracts/modules/SponsorMatrix.sol\":756:37257  contract Nanakshahi {... */\n  swap4\n  0x00\n  dup6\n  mstore\n  dup8\n  0x00\n  mstore\n    /* \"contracts/modules/SponsorMatrix.sol\":8018:8029  userPooldtl */\n  0x1a\n    /* \"contracts/modules/SponsorMatrix.sol\":756:37257  contract Nanakshahi {... */\n  0x20\n  mstore\n  keccak256(0x00, 0x40)\n  swap1\n  0x00\n  mstore\n  0x20\n  mstore\n  keccak256(0x00, 0x40)\n  swap6\n  mload\n  dup7\n  sstore\n  mload\n  dup8\n  dup7\n  add\n  sstore\n  mload\n    /* \"contracts/modules/SponsorMatrix.sol\":7057:7087  creatorWallet = _creatorWallet */\n  0x02\n    /* \"contracts/modules/SponsorMatrix.sol\":756:37257  contract Nanakshahi {... */\n  dup6\n  add\n  sstore\n  mload\n    /* \"contracts/modules/SponsorMatrix.sol\":2114:2115  3 */\n  0x03\n    /* \"contracts/modules/SponsorMatrix.sol\":756:37257  contract Nanakshahi {... */\n  dup5\n  add\n  sstore\n  mload\n  swap2\n  add\n  sstore\n  dup1\n  0x00\n  mstore\n    /* \"contracts/modules/SponsorMatrix.sol\":8253:8262  poolUsers */\n  0x1d\n    /* \"contracts/modules/SponsorMatrix.sol\":756:37257  contract Nanakshahi {... */\n  0x20\n  mstore\n    /* \"contracts/modules/SponsorMatrix.sol\":8253:8284  poolUsers[j].push(defaultRefId) */\n  tag_55\n    /* \"contracts/modules/SponsorMatrix.sol\":756:37257  contract Nanakshahi {... */\n  keccak256(0x00, 0x40)\n  sload(0x05)\n    /* \"contracts/modules/SponsorMatrix.sol\":8253:8284  poolUsers[j].push(defaultRefId) */\n  swap1\n  tag_6\n  jump\t// in\ntag_55:\n    /* \"contracts/modules/SponsorMatrix.sol\":756:37257  contract Nanakshahi {... */\n  dup1\n  0x00\n  mstore\n    /* \"contracts/modules/SponsorMatrix.sol\":8299:8312  userIdPerPool */\n  0x1c\n    /* \"contracts/modules/SponsorMatrix.sol\":756:37257  contract Nanakshahi {... */\n  0x20\n  mstore\n    /* \"contracts/modules/SponsorMatrix.sol\":8299:8348  userIdPerPool[j][defaultRefId].push(defaultRefId) */\n  tag_56\n    /* \"contracts/modules/SponsorMatrix.sol\":756:37257  contract Nanakshahi {... */\n  keccak256(0x00, 0x40)\n  sload(0x05)\n  swap1\n  dup2\n  0x00\n  mstore\n  0x20\n  mstore\n  keccak256(0x00, 0x40)\n    /* \"contracts/modules/SponsorMatrix.sol\":8299:8348  userIdPerPool[j][defaultRefId].push(defaultRefId) */\n  tag_6\n  jump\t// in\ntag_56:\n    /* \"contracts/modules/SponsorMatrix.sol\":756:37257  contract Nanakshahi {... */\n  add\n    /* \"contracts/modules/SponsorMatrix.sol\":7915:7925  uint j = 0 */\n  swap1\n  jump(tag_47)\n    /* \"contracts/modules/SponsorMatrix.sol\":756:37257  contract Nanakshahi {... */\ntag_53:\n  mstore(0x00, shl(0xe0, 0x4e487b71))\n  0x41\n    /* \"contracts/modules/SponsorMatrix.sol\":2184:2185  4 */\n  0x04\n    /* \"contracts/modules/SponsorMatrix.sol\":756:37257  contract Nanakshahi {... */\n  mstore\n    /* \"contracts/modules/SponsorMatrix.sol\":7315:7320  users */\n  0x24\n  0x00\n    /* \"contracts/modules/SponsorMatrix.sol\":756:37257  contract Nanakshahi {... */\n  revert\ntag_50:\n  mstore(0x00, shl(0xe0, 0x4e487b71))\n  0x32\n    /* \"contracts/modules/SponsorMatrix.sol\":2184:2185  4 */\n  0x04\n    /* \"contracts/modules/SponsorMatrix.sol\":756:37257  contract Nanakshahi {... */\n  mstore\n    /* \"contracts/modules/SponsorMatrix.sol\":7315:7320  users */\n  0x24\n  0x00\n    /* \"contracts/modules/SponsorMatrix.sol\":756:37257  contract Nanakshahi {... */\n  revert\n    /* \"contracts/modules/SponsorMatrix.sol\":7927:7950  j < poolPackages.length */\ntag_48:\n    /* \"contracts/modules/SponsorMatrix.sol\":2126:2128  11 */\n  0x0b\n    /* \"contracts/modules/SponsorMatrix.sol\":8370:8389  creator.poolDeposit */\n  dup4\n  add\n    /* \"contracts/modules/SponsorMatrix.sol\":756:37257  contract Nanakshahi {... */\n  sstore\n  pop\n  0x00\n  swap1\n  dup2\n    /* \"contracts/modules/SponsorMatrix.sol\":8460:8465  k < 8 */\ntag_57:\n    /* \"contracts/modules/SponsorMatrix.sol\":1899:1961  [25e18, 100e18, 400e18, 1600e18, 6400e18, 25600e18, 102400e18] */\n  0x08\n    /* \"contracts/modules/SponsorMatrix.sol\":8460:8465  k < 8 */\n  dup2\n  lt\n  tag_58\n  jumpi\n    /* \"contracts/modules/SponsorMatrix.sol\":8825:8847  creator.boosterDeposit */\n  pop\n    /* \"contracts/modules/SponsorMatrix.sol\":2130:2132  13 */\n  0x0d\n    /* \"contracts/modules/SponsorMatrix.sol\":8825:8847  creator.boosterDeposit */\n  add\n    /* \"contracts/modules/SponsorMatrix.sol\":756:37257  contract Nanakshahi {... */\n  sstore\n  mload(0x40)\n  dataSize(sub_0)\n  swap1\n  dup2\n  dataOffset(sub_0)\n  dup3\n  codecopy\n  return\n    /* \"contracts/modules/SponsorMatrix.sol\":8467:8470  k++ */\ntag_58:\n    /* \"contracts/modules/SponsorMatrix.sol\":8504:8525  GlbBoosterPackages[k] */\n  swap1\n  swap2\n    /* \"contracts/modules/SponsorMatrix.sol\":2003:2073  [ 100e18, 200e18, 400e18, 800e18, 1600e18, 3200e18, 6400e18, 12800e18] */\n  0x09\n    /* \"contracts/modules/SponsorMatrix.sol\":756:37257  contract Nanakshahi {... */\n  sload\n  dup3\n  lt\n  iszero\n  tag_50\n  jumpi\n    /* \"contracts/modules/SponsorMatrix.sol\":2003:2073  [ 100e18, 200e18, 400e18, 800e18, 1600e18, 3200e18, 6400e18, 12800e18] */\n  0x09\n  0x00\n    /* \"contracts/modules/SponsorMatrix.sol\":756:37257  contract Nanakshahi {... */\n  mstore\n  mload(0x00)\n  codecopy(0x00, data_aef723aaf2a9471d0444688035cd22ee9e9408f4d3390ce0a2a80b76aeab390a, 0x20)\n  mload(0x00)\n  swap1\n  0x00\n  mstore\n  dup3\n  add\n  sload\n    /* \"contracts/modules/SponsorMatrix.sol\":8488:8525  totalDeposit += GlbBoosterPackages[k] */\n  tag_62\n  swap2\n  tag_5\n  jump\t// in\ntag_62:\n    /* \"contracts/modules/SponsorMatrix.sol\":756:37257  contract Nanakshahi {... */\n  sload(0x05)\n  mload(0x40)\n  swap2\n  swap3\n  swap1\n  swap2\n  0x80\n  dup2\n  add\n  sub(shl(0x40, 0x01), 0x01)\n  dup2\n  gt\n  dup3\n  dup3\n  lt\n  or\n  tag_53\n  jumpi\n  0x01\n  swap4\n    /* \"contracts/modules/SponsorMatrix.sol\":2114:2115  3 */\n  0x03\n    /* \"contracts/modules/SponsorMatrix.sol\":756:37257  contract Nanakshahi {... */\n  swap2\n  0x40\n  mstore\n  dup1\n  dup4\n  mstore\n  0x20\n    /* \"contracts/modules/SponsorMatrix.sol\":8574:8741  UserBooster({... */\n  dup4\n  add\n    /* \"contracts/modules/SponsorMatrix.sol\":756:37257  contract Nanakshahi {... */\n  dup5\n  dup2\n  mstore\n  0x40\n    /* \"contracts/modules/SponsorMatrix.sol\":8574:8741  UserBooster({... */\n  dup5\n  add\n    /* \"contracts/modules/SponsorMatrix.sol\":756:37257  contract Nanakshahi {... */\n  swap1\n  0x00\n  dup3\n  mstore\n  0x60\n    /* \"contracts/modules/SponsorMatrix.sol\":8574:8741  UserBooster({... */\n  dup6\n  add\n    /* \"contracts/modules/SponsorMatrix.sol\":756:37257  contract Nanakshahi {... */\n  swap3\n  0x00\n  dup5\n  mstore\n  dup7\n  0x00\n  mstore\n  mstore(0x20, 0x1f)\n  keccak256(0x00, 0x40)\n  swap1\n  0x00\n  mstore\n  0x20\n  mstore\n  keccak256(0x00, 0x40)\n  swap5\n  mload\n  dup6\n  sstore\n  mload\n  dup7\n  dup6\n  add\n  sstore\n  mload\n    /* \"contracts/modules/SponsorMatrix.sol\":7057:7087  creatorWallet = _creatorWallet */\n  0x02\n    /* \"contracts/modules/SponsorMatrix.sol\":756:37257  contract Nanakshahi {... */\n  dup5\n  add\n  sstore\n  mload\n  swap2\n  add\n  sstore\n  dup1\n  0x00\n  mstore\n    /* \"contracts/modules/SponsorMatrix.sol\":8756:8768  boosterUsers */\n  0x21\n    /* \"contracts/modules/SponsorMatrix.sol\":756:37257  contract Nanakshahi {... */\n  0x20\n  mstore\n    /* \"contracts/modules/SponsorMatrix.sol\":8756:8790  boosterUsers[k].push(defaultRefId) */\n  tag_65\n    /* \"contracts/modules/SponsorMatrix.sol\":756:37257  contract Nanakshahi {... */\n  keccak256(0x00, 0x40)\n  sload(0x05)\n    /* \"contracts/modules/SponsorMatrix.sol\":8756:8790  boosterUsers[k].push(defaultRefId) */\n  swap1\n  tag_6\n  jump\t// in\ntag_65:\n    /* \"contracts/modules/SponsorMatrix.sol\":756:37257  contract Nanakshahi {... */\n  add\n    /* \"contracts/modules/SponsorMatrix.sol\":8448:8458  uint k = 0 */\n  swap2\n  swap1\n  swap2\n  jump(tag_57)\n    /* \"contracts/modules/SponsorMatrix.sol\":7714:7717  i++ */\ntag_45:\n    /* \"contracts/modules/SponsorMatrix.sol\":7750:7761  packages[i] */\n  swap1\n  swap2\n    /* \"contracts/modules/SponsorMatrix.sol\":756:37257  contract Nanakshahi {... */\n  dup2\n  dup4\n  lt\n  iszero\n  tag_50\n  jumpi\n    /* \"contracts/modules/SponsorMatrix.sol\":1348:1863  [... */\n  0x07\n  0x00\n    /* \"contracts/modules/SponsorMatrix.sol\":756:37257  contract Nanakshahi {... */\n  mstore\n  mload(0x00)\n  codecopy(0x00, data_607bca8f7c1c56da874da29cd62c3769b9880d38a258a91fc6dd1cfb6b4d1a8e, 0x20)\n  mload(0x00)\n  swap1\n  0x00\n  mstore\n  dup4\n  add\n  sload\n  0x01\n  swap2\n    /* \"contracts/modules/SponsorMatrix.sol\":7734:7761  totalDeposit += packages[i] */\n  tag_68\n  swap2\n    /* \"contracts/modules/SponsorMatrix.sol\":756:37257  contract Nanakshahi {... */\n  swap1\n    /* \"contracts/modules/SponsorMatrix.sol\":7734:7761  totalDeposit += packages[i] */\n  tag_5\n  jump\t// in\ntag_68:\n    /* \"contracts/modules/SponsorMatrix.sol\":7714:7717  i++ */\n  swap3\n    /* \"contracts/modules/SponsorMatrix.sol\":756:37257  contract Nanakshahi {... */\n  add\n    /* \"contracts/modules/SponsorMatrix.sol\":7694:7704  uint i = 0 */\n  swap1\n  jump(tag_44)\n    /* \"contracts/modules/SponsorMatrix.sol\":756:37257  contract Nanakshahi {... */\ntag_42:\n  0x01\n  swap1\n  0x20\n  0xff\n  dup5\n  mload\n  and\n  swap4\n  add\n  swap3\n  dup2\n    /* \"contracts/modules/SponsorMatrix.sol\":2183:2208  [4, 5, 6, 7, 8, 9, 10,11] */\n  0x11\n    /* \"contracts/modules/SponsorMatrix.sol\":756:37257  contract Nanakshahi {... */\n  add\n  sstore\n  add\n  jump(tag_41)\ntag_38:\n  0x01\n  swap1\n  0x20\n  0xff\n  dup5\n  mload\n  and\n  swap4\n  add\n  swap3\n  dup2\n    /* \"contracts/modules/SponsorMatrix.sol\":2113:2137  [3, 5, 7, 9, 11, 13, 15] */\n  0x0a\n    /* \"contracts/modules/SponsorMatrix.sol\":756:37257  contract Nanakshahi {... */\n  add\n  sstore\n  add\n  jump(tag_37)\ntag_34:\n  dup2\n  mload\n  sub(shl(0x50, 0x01), 0x01)\n  and\n  dup2\n  dup5\n  add\n  sstore\n  0x20\n  swap1\n  swap2\n  add\n  swap1\n  0x01\n  add\n  jump(tag_33)\ntag_31:\n    /* \"contracts/modules/SponsorMatrix.sol\":2003:2073  [ 100e18, 200e18, 400e18, 800e18, 1600e18, 3200e18, 6400e18, 12800e18] */\n  0x09\n  0x00\n    /* \"contracts/modules/SponsorMatrix.sol\":756:37257  contract Nanakshahi {... */\n  mstore\n  tag_69\n  swap1\n  mload(0x00)\n  codecopy(0x00, data_aef723aaf2a9471d0444688035cd22ee9e9408f4d3390ce0a2a80b76aeab390a, 0x20)\n  mload(0x00)\n  swap1\n  0x00\n  mstore\n  add\n  0x6e1540171b6c0c960b71a7020d9f60077f6af931a8bbf590da0223dacf75c7b7\n  tag_4\n  jump\t// in\ntag_69:\n  0x00\n  jump(tag_32)\ntag_28:\n  dup2\n  mload\n  sub(shl(0x50, 0x01), 0x01)\n  and\n  dup2\n  dup5\n  add\n  sstore\n  0x20\n  swap1\n  swap2\n  add\n  swap1\n  0x01\n  add\n  jump(tag_27)\ntag_25:\n    /* \"contracts/modules/SponsorMatrix.sol\":1899:1961  [25e18, 100e18, 400e18, 1600e18, 6400e18, 25600e18, 102400e18] */\n  0x08\n  0x00\n    /* \"contracts/modules/SponsorMatrix.sol\":756:37257  contract Nanakshahi {... */\n  mstore\n  tag_70\n  swap1\n  mload(0x00)\n  codecopy(0x00, data_a7c46294ffa3fad92dc8422b2e38b688ccf1b86172f5beaf864af9368d2844e5, 0x20)\n  mload(0x00)\n  swap1\n  0x00\n  mstore\n  add\n  0xf3f7a9fe364faab93b216da50a3214154f22a0a2b415b23a84c8169e8b636eea\n  tag_4\n  jump\t// in\ntag_70:\n  0x00\n  jump(tag_26)\ntag_22:\n  dup2\n  mload\n  sub(shl(0x50, 0x01), 0x01)\n  and\n  dup2\n  dup5\n  add\n  sstore\n  0x20\n  swap1\n  swap2\n  add\n  swap1\n  0x01\n  add\n  jump(tag_21)\ntag_19:\n    /* \"contracts/modules/SponsorMatrix.sol\":1348:1863  [... */\n  0x07\n  0x00\n    /* \"contracts/modules/SponsorMatrix.sol\":756:37257  contract Nanakshahi {... */\n  mstore\n  tag_71\n  swap1\n  mload(0x00)\n  codecopy(0x00, data_607bca8f7c1c56da874da29cd62c3769b9880d38a258a91fc6dd1cfb6b4d1a8e, 0x20)\n  mload(0x00)\n  swap1\n  0x00\n  mstore\n  add\n  0xa66cc928b5edb82af9bd49922954155ab7b0942694bea4ce44661d9a8736c697\n  tag_4\n  jump\t// in\ntag_71:\n  0x00\n  jump(tag_20)\ntag_11:\n  0x00\n  dup1\n  revert\ntag_1:\n  mload(0x40)\n  swap1\n  0xe0\n  dup3\n  add\n  sub(shl(0x40, 0x01), 0x01)\n  dup2\n  gt\n  dup4\n  dup3\n  lt\n  or\n  tag_53\n  jumpi\n  0x40\n  mstore\n  jump\t// out\ntag_2:\n  mload(0x40)\n  swap1\n  0x0100\n  dup3\n  add\n  sub(shl(0x40, 0x01), 0x01)\n  dup2\n  gt\n  dup4\n  dup3\n  lt\n  or\n  tag_53\n  jumpi\n  0x40\n  mstore\n  jump\t// out\ntag_3:\n  mload\n  swap1\n  sub(shl(0xa0, 0x01), 0x01)\n  dup3\n  and\n  dup3\n  sub\n  tag_11\n  jumpi\n  jump\t// out\ntag_4:\n  dup2\n  dup2\n  lt\n  tag_79\n  jumpi\n  pop\n  pop\n  jump\t// out\ntag_79:\n  0x00\n  dup2\n  sstore\n  0x01\n  add\n  jump(tag_4)\ntag_5:\n  swap2\n  swap1\n  dup3\n  add\n  dup1\n  swap3\n  gt\n  tag_81\n  jumpi\n  jump\t// out\ntag_81:\n  mstore(0x00, shl(0xe0, 0x4e487b71))\n  mstore(0x04, 0x11)\n  revert(0x00, 0x24)\ntag_6:\n  dup1\n  sload\n  swap1\n  0x010000000000000000\n  dup3\n  lt\n  iszero\n  tag_53\n  jumpi\n  0x01\n  dup3\n  add\n  dup1\n  dup3\n  sstore\n  dup3\n  lt\n  iszero\n  tag_50\n  jumpi\n  0x00\n  mstore\n  keccak256(0x00, 0x20)\n  add\n  sstore\n  jump\t// out\nstop\ndata_607bca8f7c1c56da874da29cd62c3769b9880d38a258a91fc6dd1cfb6b4d1a8e a66cc928b5edb82af9bd49922954155ab7b0942694bea4ce44661d9a8736c688\ndata_a7c46294ffa3fad92dc8422b2e38b688ccf1b86172f5beaf864af9368d2844e5 f3f7a9fe364faab93b216da50a3214154f22a0a2b415b23a84c8169e8b636ee3\ndata_aef723aaf2a9471d0444688035cd22ee9e9408f4d3390ce0a2a80b76aeab390a 6e1540171b6c0c960b71a7020d9f60077f6af931a8bbf590da0223dacf75c7af\n\nsub_0: assembly {\n        /* \"contracts/modules/SponsorMatrix.sol\":756:37257  contract Nanakshahi {... */\n      0x80\n      dup1\n      0x40\n      mstore\n      jumpi(tag_45, iszero(lt(calldatasize, 0x04)))\n      0x00\n      dup1\n      revert\n    tag_45:\n      shr(0xe0, calldataload(0x00))\n      swap1\n      dup2\n      0x01be02b2\n      eq\n      tag_47\n      jumpi\n      pop\n      dup1\n      0x01c234a8\n      eq\n      tag_49\n      jumpi\n      dup1\n      0x0ef81b74\n      eq\n      tag_51\n      jumpi\n        /* \"contracts/modules/SponsorMatrix.sol\":4831:4899  mapping(uint =>  mapping(uint => uint[])) public userBoosterChildren */\n      dup1\n        /* \"contracts/modules/SponsorMatrix.sol\":756:37257  contract Nanakshahi {... */\n      0x0f2b7cc9\n        /* \"contracts/modules/SponsorMatrix.sol\":4831:4899  mapping(uint =>  mapping(uint => uint[])) public userBoosterChildren */\n      eq\n      tag_53\n      jumpi\n        /* \"contracts/modules/SponsorMatrix.sol\":756:37257  contract Nanakshahi {... */\n      dup1\n      0x18ab487f\n      eq\n      tag_55\n      jumpi\n      dup1\n      0x1f6ab899\n      eq\n      tag_57\n      jumpi\n      dup1\n      0x2132d204\n      eq\n      tag_59\n      jumpi\n      dup1\n      0x24513088\n      eq\n      tag_61\n      jumpi\n      dup1\n      0x2c831633\n      eq\n      tag_63\n      jumpi\n      dup1\n      0x2f48ab7d\n      eq\n      tag_65\n      jumpi\n      dup1\n      0x32bc298c\n      eq\n      tag_67\n      jumpi\n      dup1\n      0x32fcd966\n      eq\n      tag_69\n      jumpi\n      dup1\n      0x365b98b2\n      eq\n      tag_71\n      jumpi\n      dup1\n      0x375b43b4\n      eq\n      tag_73\n      jumpi\n      dup1\n      0x39ab3603\n      eq\n      tag_75\n      jumpi\n      dup1\n      0x4060160a\n      eq\n      tag_77\n      jumpi\n      dup1\n      0x45977d03\n      eq\n      tag_79\n      jumpi\n      dup1\n      0x46b9dece\n      eq\n      tag_81\n      jumpi\n      dup1\n      0x52a8c4c4\n      eq\n      tag_83\n      jumpi\n      dup1\n      0x58c7d352\n      eq\n      tag_85\n      jumpi\n      dup1\n      0x5aabf7f1\n      eq\n      tag_87\n      jumpi\n      dup1\n      0x5ec64a44\n      eq\n      tag_89\n      jumpi\n      dup1\n      0x67d52d4d\n      eq\n      tag_91\n      jumpi\n      dup1\n      0x70c8d770\n      eq\n      tag_93\n      jumpi\n      dup1\n      0x78f6ad6d\n      eq\n      tag_95\n      jumpi\n      dup1\n      0x7cdc65f2\n      eq\n      tag_97\n      jumpi\n      dup1\n      0x81a0b816\n      eq\n      tag_99\n      jumpi\n      dup1\n      0x88afbe3e\n      eq\n      tag_101\n      jumpi\n      dup1\n      0x8d58644c\n      eq\n      tag_103\n      jumpi\n      dup1\n      0x8da5cb5b\n      eq\n      tag_105\n      jumpi\n      dup1\n      0x8e222e24\n      eq\n      tag_107\n      jumpi\n      dup1\n      0x8f030ece\n      eq\n      tag_109\n      jumpi\n      dup1\n      0x907c84a7\n      eq\n      tag_111\n      jumpi\n      dup1\n      0x9c383486\n      eq\n      tag_113\n      jumpi\n      dup1\n      0x9e234631\n      eq\n      tag_115\n      jumpi\n      dup1\n      0xae4708dc\n      eq\n      tag_117\n      jumpi\n      dup1\n      0xbc1fa7c0\n      eq\n      tag_119\n      jumpi\n      dup1\n      0xbd1aae40\n      eq\n      tag_121\n      jumpi\n      dup1\n      0xbf724672\n      eq\n      tag_123\n      jumpi\n      dup1\n      0xbff1f9e1\n      eq\n      tag_125\n      jumpi\n      dup1\n      0xc216212a\n      eq\n      tag_127\n      jumpi\n      dup1\n      0xc7bb62e8\n      eq\n      tag_129\n      jumpi\n      dup1\n      0xcb0e0d7d\n      eq\n      tag_131\n      jumpi\n      dup1\n      0xce79c2c3\n      eq\n      tag_133\n      jumpi\n      dup1\n      0xd0a2fd79\n      eq\n      tag_135\n      jumpi\n      dup1\n      0xd54d6ddb\n      eq\n      tag_137\n      jumpi\n      dup1\n      0xe9e34a16\n      eq\n      tag_139\n      jumpi\n      dup1\n      0xec597e6f\n      eq\n      tag_141\n      jumpi\n      dup1\n      0xf207564e\n      eq\n      tag_143\n      jumpi\n      0xf5d74d93\n      eq\n      tag_145\n      jumpi\n      0x00\n      dup1\n      revert\n    tag_145:\n      jumpi(tag_149, callvalue)\n      jumpi(tag_149, slt(add(not(0x03), calldatasize), 0x00))\n      sload(0x04)\n      mload(0x40)\n      sub(shl(0xa0, 0x01), 0x01)\n      swap1\n      swap2\n      and\n      dup2\n      mstore\n      0x20\n      swap1\n      return\n    tag_149:\n      0x00\n      dup1\n      revert\n    tag_143:\n      jumpi(tag_149, callvalue)\n      jumpi(tag_149, slt(add(not(0x03), calldatasize), 0x20))\n      calldataload(0x04)\n        /* \"contracts/modules/SponsorMatrix.sol\":20199:20209  msg.sender */\n      caller\n        /* \"contracts/modules/SponsorMatrix.sol\":756:37257  contract Nanakshahi {... */\n      0x00\n      mstore\n        /* \"contracts/modules/SponsorMatrix.sol\":20187:20198  addressToId */\n      0x23\n        /* \"contracts/modules/SponsorMatrix.sol\":756:37257  contract Nanakshahi {... */\n      0x20\n      mstore\n      jumpi(tag_155, sload(keccak256(0x00, 0x40)))\n      dup1\n      0x00\n      mstore\n        /* \"contracts/modules/SponsorMatrix.sol\":20257:20262  users */\n      0x24\n        /* \"contracts/modules/SponsorMatrix.sol\":756:37257  contract Nanakshahi {... */\n      0x20\n      mstore\n        /* \"contracts/modules/SponsorMatrix.sol\":20257:20277  users[_sponsorId].id */\n      0x03\n        /* \"contracts/modules/SponsorMatrix.sol\":756:37257  contract Nanakshahi {... */\n      keccak256(0x00, 0x40)\n        /* \"contracts/modules/SponsorMatrix.sol\":20257:20277  users[_sponsorId].id */\n      add\n        /* \"contracts/modules/SponsorMatrix.sol\":756:37257  contract Nanakshahi {... */\n      sload\n        /* \"contracts/modules/SponsorMatrix.sol\":20257:20281  users[_sponsorId].id > 0 */\n      iszero\n        /* \"contracts/modules/SponsorMatrix.sol\":756:37257  contract Nanakshahi {... */\n      tag_157\n      jumpi\n      0x00\n      dup1\n      sload\n      0x20\n      swap1\n        /* \"contracts/modules/SponsorMatrix.sol\":20370:20427  usdt.transferFrom(msg.sender, address(this), packages[0]) */\n      tag_159\n      swap1\n      sub(shl(0xa0, 0x01), 0x01)\n        /* \"contracts/modules/SponsorMatrix.sol\":756:37257  contract Nanakshahi {... */\n      and\n        /* \"contracts/modules/SponsorMatrix.sol\":20415:20426  packages[0] */\n      tag_160\n      tag_5\n      jump\t// in\n    tag_160:\n        /* \"contracts/modules/SponsorMatrix.sol\":756:37257  contract Nanakshahi {... */\n      swap1\n      sload\n      mload(0x40)\n      shl(0xe0, 0x23b872dd)\n        /* \"contracts/modules/SponsorMatrix.sol\":20370:20427  usdt.transferFrom(msg.sender, address(this), packages[0]) */\n      dup2\n      mstore\n        /* \"contracts/modules/SponsorMatrix.sol\":20199:20209  msg.sender */\n      caller\n        /* \"contracts/modules/SponsorMatrix.sol\":756:37257  contract Nanakshahi {... */\n      0x04\n        /* \"contracts/modules/SponsorMatrix.sol\":20370:20427  usdt.transferFrom(msg.sender, address(this), packages[0]) */\n      dup3\n      add\n        /* \"contracts/modules/SponsorMatrix.sol\":756:37257  contract Nanakshahi {... */\n      mstore\n        /* \"contracts/modules/SponsorMatrix.sol\":20408:20412  this */\n      address\n        /* \"contracts/modules/SponsorMatrix.sol\":756:37257  contract Nanakshahi {... */\n      0x24\n      dup3\n      add\n      mstore\n        /* \"contracts/modules/SponsorMatrix.sol\":20257:20277  users[_sponsorId].id */\n      0x03\n        /* \"contracts/modules/SponsorMatrix.sol\":756:37257  contract Nanakshahi {... */\n      swap3\n      swap1\n      swap3\n      shl\n      shr\n      0x44\n      dup3\n      add\n      mstore\n      swap4\n      dup5\n      swap3\n      dup4\n      swap2\n      swap1\n      dup3\n      swap1\n      0x64\n      dup3\n      add\n      swap1\n      jump\n        /* \"contracts/modules/SponsorMatrix.sol\":20370:20427  usdt.transferFrom(msg.sender, address(this), packages[0]) */\n    tag_159:\n      sub\n      swap3\n      gas\n      call\n      dup1\n      iszero\n      tag_161\n      jumpi\n      tag_163\n      jumpi\n        /* \"contracts/modules/SponsorMatrix.sol\":756:37257  contract Nanakshahi {... */\n    tag_164:\n      pop\n        /* \"contracts/modules/SponsorMatrix.sol\":20493:20505  defaultRefId */\n      0x05\n        /* \"contracts/modules/SponsorMatrix.sol\":756:37257  contract Nanakshahi {... */\n      sload\n        /* \"contracts/modules/SponsorMatrix.sol\":20509:20519  totalUsers */\n      0x06\n        /* \"contracts/modules/SponsorMatrix.sol\":756:37257  contract Nanakshahi {... */\n      sload\n        /* \"contracts/modules/SponsorMatrix.sol\":20493:20505  defaultRefId */\n      0x05\n        /* \"contracts/modules/SponsorMatrix.sol\":756:37257  contract Nanakshahi {... */\n      dup2\n      mul\n      swap1\n      dup1\n      dup3\n      div\n        /* \"contracts/modules/SponsorMatrix.sol\":20493:20505  defaultRefId */\n      0x05\n        /* \"contracts/modules/SponsorMatrix.sol\":756:37257  contract Nanakshahi {... */\n      eq\n      swap1\n      iszero\n      or\n      iszero\n      tag_199\n      jumpi\n        /* \"contracts/modules/SponsorMatrix.sol\":20493:20524  defaultRefId + (totalUsers * 5) */\n      tag_167\n      swap2\n      tag_14\n      jump\t// in\n    tag_167:\n        /* \"contracts/modules/SponsorMatrix.sol\":20199:20209  msg.sender */\n      swap1\n      caller\n        /* \"contracts/modules/SponsorMatrix.sol\":756:37257  contract Nanakshahi {... */\n      0x00\n      mstore\n        /* \"contracts/modules/SponsorMatrix.sol\":20187:20198  addressToId */\n      0x23\n        /* \"contracts/modules/SponsorMatrix.sol\":756:37257  contract Nanakshahi {... */\n      0x20\n      mstore\n      dup2\n      keccak256(0x00, 0x40)\n      sstore\n      dup2\n      0x00\n      mstore\n        /* \"contracts/modules/SponsorMatrix.sol\":20257:20262  users */\n      0x24\n        /* \"contracts/modules/SponsorMatrix.sol\":756:37257  contract Nanakshahi {... */\n      0x20\n      mstore\n      keccak256(0x00, 0x40)\n        /* \"contracts/modules/SponsorMatrix.sol\":20199:20209  msg.sender */\n      swap1\n      caller\n        /* \"contracts/modules/SponsorMatrix.sol\":756:37257  contract Nanakshahi {... */\n      shl(0xa0, 0xffffffffffffffffffffffff)\n      dup4\n      sload\n      and\n      or\n      dup3\n      sstore\n        /* \"contracts/modules/SponsorMatrix.sol\":20692:20707  block.timestamp */\n      timestamp\n        /* \"contracts/modules/SponsorMatrix.sol\":20674:20689  user.checkpoint */\n      0x02\n      dup4\n      add\n        /* \"contracts/modules/SponsorMatrix.sol\":756:37257  contract Nanakshahi {... */\n      sstore\n        /* \"contracts/modules/SponsorMatrix.sol\":20718:20725  user.id */\n      dup3\n        /* \"contracts/modules/SponsorMatrix.sol\":20257:20277  users[_sponsorId].id */\n      0x03\n        /* \"contracts/modules/SponsorMatrix.sol\":20718:20725  user.id */\n      dup4\n      add\n        /* \"contracts/modules/SponsorMatrix.sol\":756:37257  contract Nanakshahi {... */\n      sstore\n      0x04\n        /* \"contracts/modules/SponsorMatrix.sol\":20748:20762  user.sponsorId */\n      dup3\n      add\n        /* \"contracts/modules/SponsorMatrix.sol\":756:37257  contract Nanakshahi {... */\n      dup2\n      dup2\n      sstore\n      0x01\n        /* \"contracts/modules/SponsorMatrix.sol\":20509:20519  totalUsers */\n      0x06\n        /* \"contracts/modules/SponsorMatrix.sol\":20786:20796  user.level */\n      dup5\n      add\n        /* \"contracts/modules/SponsorMatrix.sol\":756:37257  contract Nanakshahi {... */\n      sstore\n        /* \"contracts/modules/SponsorMatrix.sol\":20831:20842  packages[0] */\n      tag_168\n      tag_5\n      jump\t// in\n    tag_168:\n        /* \"contracts/modules/SponsorMatrix.sol\":756:37257  contract Nanakshahi {... */\n      swap1\n      sload\n      swap1\n        /* \"contracts/modules/SponsorMatrix.sol\":20257:20277  users[_sponsorId].id */\n      0x03\n        /* \"contracts/modules/SponsorMatrix.sol\":756:37257  contract Nanakshahi {... */\n      shl\n      shr\n        /* \"contracts/modules/SponsorMatrix.sol\":20811:20828  user.totalDeposit */\n      0x09\n      dup5\n      add\n        /* \"contracts/modules/SponsorMatrix.sol\":756:37257  contract Nanakshahi {... */\n      sstore\n        /* \"contracts/modules/SponsorMatrix.sol\":20692:20707  block.timestamp */\n      timestamp\n        /* \"contracts/modules/SponsorMatrix.sol\":20853:20874  user.registrationTime */\n      0x0e\n      dup5\n      add\n        /* \"contracts/modules/SponsorMatrix.sol\":756:37257  contract Nanakshahi {... */\n      sstore\n      dup2\n      0x00\n      mstore\n        /* \"contracts/modules/SponsorMatrix.sol\":20257:20262  users */\n      0x24\n        /* \"contracts/modules/SponsorMatrix.sol\":756:37257  contract Nanakshahi {... */\n      0x20\n      mstore\n        /* \"contracts/modules/SponsorMatrix.sol\":20415:20423  packages */\n      0x07\n        /* \"contracts/modules/SponsorMatrix.sol\":756:37257  contract Nanakshahi {... */\n      keccak256(0x00, 0x40)\n        /* \"contracts/modules/SponsorMatrix.sol\":20958:20986  users[_sponsorId].directTeam */\n      add\n        /* \"contracts/modules/SponsorMatrix.sol\":756:37257  contract Nanakshahi {... */\n      dup1\n      sload\n      swap1\n      0x01\n      dup3\n      add\n      dup1\n      swap3\n      gt\n      tag_199\n      jumpi\n      sstore\n      dup2\n      0x00\n      mstore\n        /* \"contracts/modules/SponsorMatrix.sol\":21002:21017  directReferrals */\n      0x29\n        /* \"contracts/modules/SponsorMatrix.sol\":756:37257  contract Nanakshahi {... */\n      0x20\n      mstore\n        /* \"contracts/modules/SponsorMatrix.sol\":21002:21045  directReferrals[_sponsorId].push(newUserId) */\n      tag_171\n        /* \"contracts/modules/SponsorMatrix.sol\":756:37257  contract Nanakshahi {... */\n      dup5\n      keccak256(0x00, 0x40)\n        /* \"contracts/modules/SponsorMatrix.sol\":21002:21045  directReferrals[_sponsorId].push(newUserId) */\n      tag_31\n      jump\t// in\n    tag_171:\n        /* \"contracts/modules/SponsorMatrix.sol\":21056:21073  registeredUserIds */\n      0x30\n        /* \"contracts/modules/SponsorMatrix.sol\":756:37257  contract Nanakshahi {... */\n      sload\n      shl(0x40, 0x01)\n      dup2\n      lt\n      iszero\n      tag_172\n      jumpi\n      dup1\n      0x01\n      tag_174\n      swap3\n      add\n        /* \"contracts/modules/SponsorMatrix.sol\":21056:21073  registeredUserIds */\n      0x30\n        /* \"contracts/modules/SponsorMatrix.sol\":756:37257  contract Nanakshahi {... */\n      sstore\n        /* \"contracts/modules/SponsorMatrix.sol\":21056:21073  registeredUserIds */\n      0x30\n        /* \"contracts/modules/SponsorMatrix.sol\":756:37257  contract Nanakshahi {... */\n      tag_6\n      jump\t// in\n    tag_174:\n      dup2\n      sload\n      swap1\n        /* \"contracts/modules/SponsorMatrix.sol\":20257:20277  users[_sponsorId].id */\n      0x03\n        /* \"contracts/modules/SponsorMatrix.sol\":756:37257  contract Nanakshahi {... */\n      shl\n      swap1\n      dup7\n      dup3\n      shl\n      swap2\n      not(0x00)\n      swap1\n      shl\n      not\n      and\n      or\n      swap1\n      sstore\n        /* \"contracts/modules/SponsorMatrix.sol\":21127:21146  communityAccPerUser */\n      0x2a\n        /* \"contracts/modules/SponsorMatrix.sol\":756:37257  contract Nanakshahi {... */\n      sload\n      dup5\n      0x00\n      mstore\n        /* \"contracts/modules/SponsorMatrix.sol\":21100:21113  communityDebt */\n      0x2b\n        /* \"contracts/modules/SponsorMatrix.sol\":756:37257  contract Nanakshahi {... */\n      0x20\n      mstore\n      keccak256(0x00, 0x40)\n      sstore\n      0x00\n      0x00\n      swap1\n      dup4\n      0x00\n      mstore\n        /* \"contracts/modules/SponsorMatrix.sol\":27454:27466  matrixDirect */\n      0x28\n        /* \"contracts/modules/SponsorMatrix.sol\":756:37257  contract Nanakshahi {... */\n      0x20\n      mstore\n        /* \"contracts/modules/SponsorMatrix.sol\":20674:20689  user.checkpoint */\n      0x02\n        /* \"contracts/modules/SponsorMatrix.sol\":756:37257  contract Nanakshahi {... */\n      sload(keccak256(0x00, 0x40))\n        /* \"contracts/modules/SponsorMatrix.sol\":27454:27482  matrixDirect[_sponsorId] < 2 */\n      lt\n        /* \"contracts/modules/SponsorMatrix.sol\":27451:28451  if(matrixDirect[_sponsorId] < 2) {... */\n      0x00\n        /* \"contracts/modules/SponsorMatrix.sol\":20674:20689  user.checkpoint */\n      eq\n      tag_175\n      jumpi\n        /* \"contracts/modules/SponsorMatrix.sol\":756:37257  contract Nanakshahi {... */\n      pop\n      pop\n      dup4\n      0x00\n      mstore\n        /* \"contracts/modules/SponsorMatrix.sol\":20257:20262  users */\n      0x24\n        /* \"contracts/modules/SponsorMatrix.sol\":756:37257  contract Nanakshahi {... */\n      0x20\n      mstore\n      dup2\n        /* \"contracts/modules/SponsorMatrix.sol\":20493:20505  defaultRefId */\n      0x05\n        /* \"contracts/modules/SponsorMatrix.sol\":756:37257  contract Nanakshahi {... */\n      keccak256(0x00, 0x40)\n        /* \"contracts/modules/SponsorMatrix.sol\":27499:27525  users[_newUserId].uplineId */\n      add\n        /* \"contracts/modules/SponsorMatrix.sol\":756:37257  contract Nanakshahi {... */\n      sstore\n      dup2\n      0x00\n      mstore\n        /* \"contracts/modules/SponsorMatrix.sol\":27454:27466  matrixDirect */\n      0x28\n        /* \"contracts/modules/SponsorMatrix.sol\":756:37257  contract Nanakshahi {... */\n      0x20\n      mstore\n      keccak256(0x00, 0x40)\n      dup1\n      sload\n      swap1\n      0x01\n      dup3\n      add\n      dup1\n      swap3\n      gt\n      tag_199\n      jumpi\n      sstore\n        /* \"contracts/modules/SponsorMatrix.sol\":27597:27618  uplineId = _sponsorId */\n      dup2\n        /* \"contracts/modules/SponsorMatrix.sol\":27451:28451  if(matrixDirect[_sponsorId] < 2) {... */\n    tag_179:\n        /* \"contracts/modules/SponsorMatrix.sol\":756:37257  contract Nanakshahi {... */\n      0x00\n        /* \"contracts/modules/SponsorMatrix.sol\":28513:28746  for(uint k=0; k<maxLayers; k++) {... */\n      swap1\n        /* \"contracts/modules/SponsorMatrix.sol\":28527:28538  k<maxLayers */\n    tag_180:\n        /* \"contracts/modules/SponsorMatrix.sol\":1041:1043  15 */\n      0x0f\n        /* \"contracts/modules/SponsorMatrix.sol\":28527:28538  k<maxLayers */\n      dup3\n      lt\n      tag_181\n      jumpi\n        /* \"contracts/modules/SponsorMatrix.sol\":28513:28746  for(uint k=0; k<maxLayers; k++) {... */\n    tag_182:\n        /* \"contracts/modules/SponsorMatrix.sol\":21324:21335  packages[0] */\n      pop\n      pop\n        /* \"contracts/modules/SponsorMatrix.sol\":21274:21440  user.deposits.push(Deposit({... */\n      tag_183\n        /* \"contracts/modules/SponsorMatrix.sol\":21324:21335  packages[0] */\n      tag_184\n      tag_5\n      jump\t// in\n    tag_184:\n        /* \"contracts/modules/SponsorMatrix.sol\":756:37257  contract Nanakshahi {... */\n      swap1\n      sload\n      mload(0x40)\n      swap2\n        /* \"contracts/modules/SponsorMatrix.sol\":20257:20277  users[_sponsorId].id */\n      0x03\n        /* \"contracts/modules/SponsorMatrix.sol\":756:37257  contract Nanakshahi {... */\n      shl\n      shr\n      tag_185\n      dup3\n      tag_15\n      jump\t// in\n    tag_185:\n      dup2\n      mstore\n      0x00\n      0x20\n        /* \"contracts/modules/SponsorMatrix.sol\":21293:21439  Deposit({... */\n      dup3\n      add\n        /* \"contracts/modules/SponsorMatrix.sol\":756:37257  contract Nanakshahi {... */\n      mstore\n        /* \"contracts/modules/SponsorMatrix.sol\":20692:20707  block.timestamp */\n      timestamp\n        /* \"contracts/modules/SponsorMatrix.sol\":756:37257  contract Nanakshahi {... */\n      0x40\n        /* \"contracts/modules/SponsorMatrix.sol\":21293:21439  Deposit({... */\n      dup3\n      add\n        /* \"contracts/modules/SponsorMatrix.sol\":756:37257  contract Nanakshahi {... */\n      mstore\n      0x01\n        /* \"contracts/modules/SponsorMatrix.sol\":21293:21439  Deposit({... */\n      0x60\n      dup3\n      add\n        /* \"contracts/modules/SponsorMatrix.sol\":756:37257  contract Nanakshahi {... */\n      mstore\n      0x01\n        /* \"contracts/modules/SponsorMatrix.sol\":21274:21287  user.deposits */\n      dup6\n      add\n        /* \"contracts/modules/SponsorMatrix.sol\":21274:21440  user.deposits.push(Deposit({... */\n      tag_18\n      jump\t// in\n    tag_183:\n        /* \"contracts/modules/SponsorMatrix.sol\":21506:21517  packages[0] */\n      tag_186\n      tag_5\n      jump\t// in\n    tag_186:\n        /* \"contracts/modules/SponsorMatrix.sol\":756:37257  contract Nanakshahi {... */\n      swap1\n      sload\n      swap1\n        /* \"contracts/modules/SponsorMatrix.sol\":20257:20277  users[_sponsorId].id */\n      0x03\n        /* \"contracts/modules/SponsorMatrix.sol\":756:37257  contract Nanakshahi {... */\n      shl\n      shr\n      swap1\n        /* \"contracts/modules/SponsorMatrix.sol\":21568:21570  10 */\n      0x0a\n        /* \"contracts/modules/SponsorMatrix.sol\":756:37257  contract Nanakshahi {... */\n      dup3\n      mul\n      dup3\n      iszero\n      swap3\n      dup1\n      dup3\n      div\n        /* \"contracts/modules/SponsorMatrix.sol\":21568:21570  10 */\n      0x0a\n        /* \"contracts/modules/SponsorMatrix.sol\":756:37257  contract Nanakshahi {... */\n      eq\n      dup5\n      or\n      iszero\n      tag_199\n      jumpi\n        /* \"contracts/modules/SponsorMatrix.sol\":20187:20198  addressToId */\n      0x23\n        /* \"contracts/modules/SponsorMatrix.sol\":756:37257  contract Nanakshahi {... */\n      dup2\n      mul\n      swap4\n      dup2\n      dup6\n      div\n        /* \"contracts/modules/SponsorMatrix.sol\":20187:20198  addressToId */\n      0x23\n        /* \"contracts/modules/SponsorMatrix.sol\":756:37257  contract Nanakshahi {... */\n      eq\n      dup2\n      or\n      iszero\n      tag_199\n      jumpi\n        /* \"contracts/modules/SponsorMatrix.sol\":20493:20505  defaultRefId */\n      0x05\n        /* \"contracts/modules/SponsorMatrix.sol\":756:37257  contract Nanakshahi {... */\n      dup3\n      mul\n      dup3\n      dup2\n      div\n        /* \"contracts/modules/SponsorMatrix.sol\":20493:20505  defaultRefId */\n      0x05\n        /* \"contracts/modules/SponsorMatrix.sol\":756:37257  contract Nanakshahi {... */\n      eq\n      dup3\n      or\n      iszero\n      tag_199\n      jumpi\n        /* \"contracts/modules/SponsorMatrix.sol\":21573:21576  100 */\n      0x64\n        /* \"contracts/modules/SponsorMatrix.sol\":21691:21733  lotteryPool += totalPackagePrice * 5 / 100 */\n      tag_193\n        /* \"contracts/modules/SponsorMatrix.sol\":756:37257  contract Nanakshahi {... */\n      swap2\n      div\n        /* \"contracts/modules/SponsorMatrix.sol\":21691:21733  lotteryPool += totalPackagePrice * 5 / 100 */\n      0x2c\n        /* \"contracts/modules/SponsorMatrix.sol\":756:37257  contract Nanakshahi {... */\n      sload\n        /* \"contracts/modules/SponsorMatrix.sol\":21691:21733  lotteryPool += totalPackagePrice * 5 / 100 */\n      tag_14\n      jump\t// in\n    tag_193:\n      0x2c\n        /* \"contracts/modules/SponsorMatrix.sol\":756:37257  contract Nanakshahi {... */\n      sstore\n        /* \"contracts/modules/SponsorMatrix.sol\":21820:21822  50 */\n      0x32\n        /* \"contracts/modules/SponsorMatrix.sol\":756:37257  contract Nanakshahi {... */\n      dup3\n      mul\n      swap2\n      dup3\n      div\n        /* \"contracts/modules/SponsorMatrix.sol\":21820:21822  50 */\n      0x32\n        /* \"contracts/modules/SponsorMatrix.sol\":756:37257  contract Nanakshahi {... */\n      eq\n      or\n      iszero\n      tag_199\n      jumpi\n        /* \"contracts/modules/SponsorMatrix.sol\":22117:22188  _distributeSponsorIncome(user.sponsorId, newUserId, remainingAmount, 1) */\n      tag_196\n        /* \"contracts/modules/SponsorMatrix.sol\":756:37257  contract Nanakshahi {... */\n      swap4\n        /* \"contracts/modules/SponsorMatrix.sol\":22034:22046  creatorShare */\n      tag_197\n        /* \"contracts/modules/SponsorMatrix.sol\":21573:21576  100 */\n      0x64\n        /* \"contracts/modules/SponsorMatrix.sol\":756:37257  contract Nanakshahi {... */\n      dup10\n      swap5\n        /* \"contracts/modules/SponsorMatrix.sol\":21950:21964  communityShare */\n      tag_198\n        /* \"contracts/modules/SponsorMatrix.sol\":756:37257  contract Nanakshahi {... */\n      dup3\n      dup1\n      swap7\n      div\n        /* \"contracts/modules/SponsorMatrix.sol\":21950:21964  communityShare */\n      tag_37\n      jump\t// in\n    tag_198:\n        /* \"contracts/modules/SponsorMatrix.sol\":756:37257  contract Nanakshahi {... */\n      div\n        /* \"contracts/modules/SponsorMatrix.sol\":22034:22046  creatorShare */\n      tag_38\n      jump\t// in\n    tag_197:\n        /* \"contracts/modules/SponsorMatrix.sol\":756:37257  contract Nanakshahi {... */\n      div\n      swap2\n      sload\n        /* \"contracts/modules/SponsorMatrix.sol\":22117:22188  _distributeSponsorIncome(user.sponsorId, newUserId, remainingAmount, 1) */\n      tag_39\n      jump\t// in\n    tag_196:\n        /* \"contracts/modules/SponsorMatrix.sol\":20509:20519  totalUsers */\n      0x06\n        /* \"contracts/modules/SponsorMatrix.sol\":756:37257  contract Nanakshahi {... */\n      sload\n      0x01\n      dup2\n      add\n      dup1\n      swap2\n      gt\n      tag_199\n      jumpi\n        /* \"contracts/modules/SponsorMatrix.sol\":20509:20519  totalUsers */\n      0x06\n        /* \"contracts/modules/SponsorMatrix.sol\":756:37257  contract Nanakshahi {... */\n      sstore\n      0x00\n      mstore\n        /* \"contracts/modules/SponsorMatrix.sol\":20257:20262  users */\n      0x24\n        /* \"contracts/modules/SponsorMatrix.sol\":756:37257  contract Nanakshahi {... */\n      0x20\n      mstore\n        /* \"contracts/modules/SponsorMatrix.sol\":20493:20505  defaultRefId */\n      0x05\n        /* \"contracts/modules/SponsorMatrix.sol\":756:37257  contract Nanakshahi {... */\n      0x01\n      dup1\n      0xa0\n      shl\n      sub\n      sload(keccak256(0x00, 0x40))\n      and\n        /* \"contracts/modules/SponsorMatrix.sol\":22313:22326  user.uplineId */\n      swap2\n      add\n        /* \"contracts/modules/SponsorMatrix.sol\":756:37257  contract Nanakshahi {... */\n      sload\n      mload(0x40)\n      swap1\n      dup2\n      mstore\n        /* \"contracts/modules/SponsorMatrix.sol\":22250:22327  Registration(msg.sender, users[_sponsorId].account, newUserId, user.uplineId) */\n      0x309bb360e8b69c23937ccc5fb01f9aeeead1c95a99604e175113ff82f2b1723a\n        /* \"contracts/modules/SponsorMatrix.sol\":756:37257  contract Nanakshahi {... */\n      0x20\n        /* \"contracts/modules/SponsorMatrix.sol\":20199:20209  msg.sender */\n      caller\n        /* \"contracts/modules/SponsorMatrix.sol\":22250:22327  Registration(msg.sender, users[_sponsorId].account, newUserId, user.uplineId) */\n      swap3\n      log4\n        /* \"contracts/modules/SponsorMatrix.sol\":756:37257  contract Nanakshahi {... */\n      stop\n    tag_199:\n      mstore(0x00, shl(0xe0, 0x4e487b71))\n      mstore(0x04, 0x11)\n        /* \"contracts/modules/SponsorMatrix.sol\":20257:20262  users */\n      0x24\n        /* \"contracts/modules/SponsorMatrix.sol\":756:37257  contract Nanakshahi {... */\n      0x00\n      revert\n        /* \"contracts/modules/SponsorMatrix.sol\":28540:28543  k++ */\n    tag_181:\n        /* \"contracts/modules/SponsorMatrix.sol\":28563:28576  uplineId == 0 */\n      dup1\n      iszero\n        /* \"contracts/modules/SponsorMatrix.sol\":28560:28583  if(uplineId == 0) break */\n      tag_201\n      jumpi\n        /* \"contracts/modules/SponsorMatrix.sol\":756:37257  contract Nanakshahi {... */\n      dup1\n      0x00\n      mstore\n        /* \"contracts/modules/SponsorMatrix.sol\":20257:20262  users */\n      0x24\n        /* \"contracts/modules/SponsorMatrix.sol\":756:37257  contract Nanakshahi {... */\n      0x20\n      mstore\n        /* \"contracts/modules/SponsorMatrix.sol\":28598:28629  users[uplineId].totalMatrixTeam */\n      0x08\n        /* \"contracts/modules/SponsorMatrix.sol\":756:37257  contract Nanakshahi {... */\n      keccak256(0x00, 0x40)\n        /* \"contracts/modules/SponsorMatrix.sol\":28598:28629  users[uplineId].totalMatrixTeam */\n      add\n        /* \"contracts/modules/SponsorMatrix.sol\":756:37257  contract Nanakshahi {... */\n      dup1\n      sload\n      swap1\n      0x01\n      dup3\n      add\n      dup1\n      swap3\n      gt\n      tag_199\n      jumpi\n      sstore\n      dup1\n      0x00\n      mstore\n        /* \"contracts/modules/SponsorMatrix.sol\":28649:28654  teams */\n      0x27\n        /* \"contracts/modules/SponsorMatrix.sol\":756:37257  contract Nanakshahi {... */\n      0x20\n      mstore\n      keccak256(0x00, 0x40)\n      dup3\n      0x00\n      mstore\n      0x20\n      mstore\n        /* \"contracts/modules/SponsorMatrix.sol\":28649:28684  teams[uplineId][k].push(_newUserId) */\n      tag_205\n        /* \"contracts/modules/SponsorMatrix.sol\":756:37257  contract Nanakshahi {... */\n      dup7\n      keccak256(0x00, 0x40)\n        /* \"contracts/modules/SponsorMatrix.sol\":28649:28684  teams[uplineId][k].push(_newUserId) */\n      tag_31\n      jump\t// in\n    tag_205:\n        /* \"contracts/modules/SponsorMatrix.sol\":756:37257  contract Nanakshahi {... */\n      0x00\n      mstore\n        /* \"contracts/modules/SponsorMatrix.sol\":20257:20262  users */\n      0x24\n        /* \"contracts/modules/SponsorMatrix.sol\":756:37257  contract Nanakshahi {... */\n      0x20\n      mstore\n      0x01\n        /* \"contracts/modules/SponsorMatrix.sol\":20493:20505  defaultRefId */\n      0x05\n        /* \"contracts/modules/SponsorMatrix.sol\":756:37257  contract Nanakshahi {... */\n      keccak256(0x00, 0x40)\n        /* \"contracts/modules/SponsorMatrix.sol\":28710:28734  users[uplineId].uplineId */\n      add\n        /* \"contracts/modules/SponsorMatrix.sol\":756:37257  contract Nanakshahi {... */\n      sload\n        /* \"contracts/modules/SponsorMatrix.sol\":28540:28543  k++ */\n      swap2\n        /* \"contracts/modules/SponsorMatrix.sol\":756:37257  contract Nanakshahi {... */\n      add\n        /* \"contracts/modules/SponsorMatrix.sol\":28517:28525  uint k=0 */\n      swap1\n      jump(tag_180)\n        /* \"contracts/modules/SponsorMatrix.sol\":28560:28583  if(uplineId == 0) break */\n    tag_201:\n        /* \"contracts/modules/SponsorMatrix.sol\":28578:28583  break */\n      jump(tag_182)\n        /* \"contracts/modules/SponsorMatrix.sol\":27451:28451  if(matrixDirect[_sponsorId] < 2) {... */\n    tag_175:\n        /* \"contracts/modules/SponsorMatrix.sol\":756:37257  contract Nanakshahi {... */\n      0x00\n        /* \"contracts/modules/SponsorMatrix.sol\":27749:27760  i<maxLayers */\n    tag_206:\n        /* \"contracts/modules/SponsorMatrix.sol\":1041:1043  15 */\n      0x0f\n        /* \"contracts/modules/SponsorMatrix.sol\":27749:27760  i<maxLayers */\n      dup2\n      lt\n      tag_207\n      jumpi\n        /* \"contracts/modules/SponsorMatrix.sol\":27735:28440  for(uint i=0; i<maxLayers; i++) { // Use a reasonable max depth for 2x2 matrix... */\n    tag_208:\n        /* \"contracts/modules/SponsorMatrix.sol\":27451:28451  if(matrixDirect[_sponsorId] < 2) {... */\n      pop\n      pop\n      jump(tag_179)\n        /* \"contracts/modules/SponsorMatrix.sol\":27762:27765  i++ */\n    tag_207:\n        /* \"contracts/modules/SponsorMatrix.sol\":27831:27848  if(isFound) break */\n      dup2\n      tag_209\n      jumpi\n        /* \"contracts/modules/SponsorMatrix.sol\":756:37257  contract Nanakshahi {... */\n      dup5\n      0x00\n      mstore\n        /* \"contracts/modules/SponsorMatrix.sol\":27870:27875  teams */\n      0x27\n        /* \"contracts/modules/SponsorMatrix.sol\":756:37257  contract Nanakshahi {... */\n      0x20\n      mstore\n      keccak256(0x00, 0x40)\n      0x01\n      dup3\n      add\n      dup1\n      dup4\n      gt\n      tag_199\n      jumpi\n      0x00\n      mstore\n      0x20\n      mstore\n      sload(keccak256(0x00, 0x40))\n        /* \"contracts/modules/SponsorMatrix.sol\":20674:20689  user.checkpoint */\n      0x02\n        /* \"contracts/modules/SponsorMatrix.sol\":756:37257  contract Nanakshahi {... */\n      dup3\n      add\n      dup1\n      dup4\n      gt\n      tag_199\n      jumpi\n      0xff\n      dup2\n      gt\n      tag_199\n      jumpi\n      0x01\n      swap1\n      shl\n      gt\n        /* \"contracts/modules/SponsorMatrix.sol\":27867:28425  if(teams[_sponsorId][i+1].length < 2 ** (i+2)) {... */\n      tag_217\n      jumpi\n        /* \"contracts/modules/SponsorMatrix.sol\":27762:27765  i++ */\n    tag_218:\n        /* \"contracts/modules/SponsorMatrix.sol\":756:37257  contract Nanakshahi {... */\n      0x01\n      add\n        /* \"contracts/modules/SponsorMatrix.sol\":27739:27747  uint i=0 */\n      jump(tag_206)\n        /* \"contracts/modules/SponsorMatrix.sol\":27867:28425  if(teams[_sponsorId][i+1].length < 2 ** (i+2)) {... */\n    tag_217:\n        /* \"contracts/modules/SponsorMatrix.sol\":27941:27949  uint j=0 */\n      swap4\n      swap3\n        /* \"contracts/modules/SponsorMatrix.sol\":756:37257  contract Nanakshahi {... */\n      0x00\n        /* \"contracts/modules/SponsorMatrix.sol\":27941:27949  uint j=0 */\n      swap6\n      swap2\n      swap6\n        /* \"contracts/modules/SponsorMatrix.sol\":27982:27985  j++ */\n    tag_219:\n        /* \"contracts/modules/SponsorMatrix.sol\":756:37257  contract Nanakshahi {... */\n      dup5\n      0x00\n      mstore\n        /* \"contracts/modules/SponsorMatrix.sol\":27870:27875  teams */\n      0x27\n        /* \"contracts/modules/SponsorMatrix.sol\":756:37257  contract Nanakshahi {... */\n      0x20\n      mstore\n      keccak256(0x00, 0x40)\n      dup7\n      0x00\n      mstore\n      0x20\n      mstore\n      sload(keccak256(0x00, 0x40))\n        /* \"contracts/modules/SponsorMatrix.sol\":27951:27980  j<teams[_sponsorId][i].length */\n      dup2\n      lt\n      iszero\n      tag_220\n      jumpi\n        /* \"contracts/modules/SponsorMatrix.sol\":28012:28029  if(isFound) break */\n      dup7\n      tag_222\n      jumpi\n        /* \"contracts/modules/SponsorMatrix.sol\":756:37257  contract Nanakshahi {... */\n      dup5\n      0x00\n      mstore\n        /* \"contracts/modules/SponsorMatrix.sol\":27870:27875  teams */\n      0x27\n        /* \"contracts/modules/SponsorMatrix.sol\":756:37257  contract Nanakshahi {... */\n      0x20\n      mstore\n      keccak256(0x00, 0x40)\n      dup7\n      0x00\n      mstore\n      0x20\n      mstore\n        /* \"contracts/modules/SponsorMatrix.sol\":28068:28091  teams[_sponsorId][i][j] */\n      tag_224\n        /* \"contracts/modules/SponsorMatrix.sol\":756:37257  contract Nanakshahi {... */\n      dup2\n      keccak256(0x00, 0x40)\n        /* \"contracts/modules/SponsorMatrix.sol\":28068:28091  teams[_sponsorId][i][j] */\n      tag_6\n      jump\t// in\n    tag_224:\n        /* \"contracts/modules/SponsorMatrix.sol\":756:37257  contract Nanakshahi {... */\n      swap1\n      sload\n      swap1\n        /* \"contracts/modules/SponsorMatrix.sol\":20257:20277  users[_sponsorId].id */\n      0x03\n        /* \"contracts/modules/SponsorMatrix.sol\":756:37257  contract Nanakshahi {... */\n      shl\n      shr\n      dup1\n      0x00\n      mstore\n        /* \"contracts/modules/SponsorMatrix.sol\":27454:27466  matrixDirect */\n      0x28\n        /* \"contracts/modules/SponsorMatrix.sol\":756:37257  contract Nanakshahi {... */\n      0x20\n      mstore\n        /* \"contracts/modules/SponsorMatrix.sol\":20674:20689  user.checkpoint */\n      0x02\n        /* \"contracts/modules/SponsorMatrix.sol\":756:37257  contract Nanakshahi {... */\n      sload(keccak256(0x00, 0x40))\n        /* \"contracts/modules/SponsorMatrix.sol\":28121:28143  matrixDirect[temp] < 2 */\n      lt\n        /* \"contracts/modules/SponsorMatrix.sol\":28118:28382  if(matrixDirect[temp] < 2) {... */\n      tag_225\n      jumpi\n        /* \"contracts/modules/SponsorMatrix.sol\":27982:27985  j++ */\n    tag_226:\n      pop\n        /* \"contracts/modules/SponsorMatrix.sol\":756:37257  contract Nanakshahi {... */\n      0x01\n      add\n        /* \"contracts/modules/SponsorMatrix.sol\":27941:27949  uint j=0 */\n      jump(tag_219)\n        /* \"contracts/modules/SponsorMatrix.sol\":28118:28382  if(matrixDirect[temp] < 2) {... */\n    tag_225:\n        /* \"contracts/modules/SponsorMatrix.sol\":756:37257  contract Nanakshahi {... */\n      swap2\n      swap4\n      pop\n      swap6\n      pop\n      dup7\n      0x00\n      mstore\n        /* \"contracts/modules/SponsorMatrix.sol\":20257:20262  users */\n      0x24\n        /* \"contracts/modules/SponsorMatrix.sol\":756:37257  contract Nanakshahi {... */\n      0x20\n      mstore\n      dup1\n        /* \"contracts/modules/SponsorMatrix.sol\":20493:20505  defaultRefId */\n      0x05\n        /* \"contracts/modules/SponsorMatrix.sol\":756:37257  contract Nanakshahi {... */\n      keccak256(0x00, 0x40)\n        /* \"contracts/modules/SponsorMatrix.sol\":28176:28202  users[_newUserId].uplineId */\n      add\n        /* \"contracts/modules/SponsorMatrix.sol\":756:37257  contract Nanakshahi {... */\n      sstore\n      dup1\n      0x00\n      mstore\n        /* \"contracts/modules/SponsorMatrix.sol\":27454:27466  matrixDirect */\n      0x28\n        /* \"contracts/modules/SponsorMatrix.sol\":756:37257  contract Nanakshahi {... */\n      0x20\n      mstore\n      keccak256(0x00, 0x40)\n      dup1\n      sload\n      swap1\n      0x01\n      dup3\n      add\n      dup1\n      swap3\n      gt\n      tag_199\n      jumpi\n      sstore\n        /* \"contracts/modules/SponsorMatrix.sol\":28340:28354  isFound = true */\n      swap2\n        /* \"contracts/modules/SponsorMatrix.sol\":756:37257  contract Nanakshahi {... */\n      0x01\n        /* \"contracts/modules/SponsorMatrix.sol\":28340:28354  isFound = true */\n      dup1\n        /* \"contracts/modules/SponsorMatrix.sol\":28118:28382  if(matrixDirect[temp] < 2) {... */\n      swap7\n      swap1\n      jump(tag_226)\n        /* \"contracts/modules/SponsorMatrix.sol\":28012:28029  if(isFound) break */\n    tag_222:\n        /* \"contracts/modules/SponsorMatrix.sol\":28024:28029  break */\n      pop\n      swap3\n      swap4\n        /* \"contracts/modules/SponsorMatrix.sol\":756:37257  contract Nanakshahi {... */\n      0x01\n        /* \"contracts/modules/SponsorMatrix.sol\":28024:28029  break */\n      swap1\n      swap6\n      swap2\n      swap6\n        /* \"contracts/modules/SponsorMatrix.sol\":27937:28406  for(uint j=0; j<teams[_sponsorId][i].length; j++) {... */\n    tag_229:\n        /* \"contracts/modules/SponsorMatrix.sol\":27867:28425  if(teams[_sponsorId][i+1].length < 2 ** (i+2)) {... */\n      swap1\n      pop\n      jump(tag_218)\n        /* \"contracts/modules/SponsorMatrix.sol\":27951:27980  j<teams[_sponsorId][i].length */\n    tag_220:\n      pop\n      swap3\n      swap4\n        /* \"contracts/modules/SponsorMatrix.sol\":756:37257  contract Nanakshahi {... */\n      0x01\n        /* \"contracts/modules/SponsorMatrix.sol\":27951:27980  j<teams[_sponsorId][i].length */\n      swap1\n      swap6\n      swap2\n      swap6\n      jump(tag_229)\n        /* \"contracts/modules/SponsorMatrix.sol\":27831:27848  if(isFound) break */\n    tag_209:\n        /* \"contracts/modules/SponsorMatrix.sol\":27843:27848  break */\n      jump(tag_208)\n        /* \"contracts/modules/SponsorMatrix.sol\":756:37257  contract Nanakshahi {... */\n    tag_172:\n      mstore(0x00, shl(0xe0, 0x4e487b71))\n      mstore(0x04, 0x41)\n        /* \"contracts/modules/SponsorMatrix.sol\":20257:20262  users */\n      0x24\n        /* \"contracts/modules/SponsorMatrix.sol\":756:37257  contract Nanakshahi {... */\n      0x00\n      revert\n        /* \"contracts/modules/SponsorMatrix.sol\":20370:20427  usdt.transferFrom(msg.sender, address(this), packages[0]) */\n    tag_163:\n      tag_230\n      swap1\n        /* \"contracts/modules/SponsorMatrix.sol\":756:37257  contract Nanakshahi {... */\n      0x20\n        /* \"contracts/modules/SponsorMatrix.sol\":20370:20427  usdt.transferFrom(msg.sender, address(this), packages[0]) */\n      returndatasize\n        /* \"contracts/modules/SponsorMatrix.sol\":756:37257  contract Nanakshahi {... */\n      0x20\n        /* \"contracts/modules/SponsorMatrix.sol\":20370:20427  usdt.transferFrom(msg.sender, address(this), packages[0]) */\n      gt\n      tag_231\n      jumpi\n    tag_232:\n      tag_233\n      dup2\n      dup4\n      tag_17\n      jump\t// in\n    tag_233:\n      dup2\n      add\n      swap1\n      tag_24\n      jump\t// in\n    tag_230:\n      jump(tag_164)\n    tag_231:\n      pop\n      returndatasize\n      jump(tag_232)\n    tag_161:\n        /* \"contracts/modules/SponsorMatrix.sol\":756:37257  contract Nanakshahi {... */\n      mload(0x40)\n      returndatasize\n      0x00\n      dup3\n      returndatacopy\n      returndatasize\n      swap1\n      revert\n    tag_157:\n      mload(0x40)\n      shl(0xe5, 0x461bcd)\n      dup2\n      mstore\n      0x20\n      0x04\n      dup3\n      add\n      mstore\n      0x0f\n        /* \"contracts/modules/SponsorMatrix.sol\":20257:20262  users */\n      0x24\n        /* \"contracts/modules/SponsorMatrix.sol\":756:37257  contract Nanakshahi {... */\n      dup3\n      add\n      mstore\n      shl(0x89, 0x24b73b30b634b21039b837b739b7b9)\n      0x44\n      dup3\n      add\n      mstore\n      0x64\n      swap1\n      revert\n    tag_155:\n      mload(0x40)\n      shl(0xe5, 0x461bcd)\n      dup2\n      mstore\n      0x20\n      0x04\n      dup3\n      add\n      mstore\n      0x12\n      0x24\n      dup3\n      add\n      mstore\n      shl(0x72, 0x105b1c9958591e481c9959da5cdd195c9959)\n      0x44\n      dup3\n      add\n      mstore\n      0x64\n      swap1\n      revert\n    tag_141:\n      jumpi(tag_149, callvalue)\n      jumpi(tag_149, slt(add(not(0x03), calldatasize), 0x00))\n      0x20\n        /* \"contracts/modules/SponsorMatrix.sol\":947:971  uint public defaultRefId */\n      0x05\n        /* \"contracts/modules/SponsorMatrix.sol\":756:37257  contract Nanakshahi {... */\n      sload\n      mload(0x40)\n      swap1\n      dup2\n      mstore\n      return\n    tag_139:\n      jumpi(tag_149, callvalue)\n      jumpi(tag_149, slt(add(not(0x03), calldatasize), 0x00))\n        /* \"contracts/modules/SponsorMatrix.sol\":873:903  address public systemMaintance */\n      0x03\n        /* \"contracts/modules/SponsorMatrix.sol\":756:37257  contract Nanakshahi {... */\n      sload\n      mload(0x40)\n      sub(shl(0xa0, 0x01), 0x01)\n      swap1\n      swap2\n      and\n      dup2\n      mstore\n      0x20\n      swap1\n      return\n    tag_137:\n      jumpi(tag_149, callvalue)\n      jumpi(tag_149, slt(add(not(0x03), calldatasize), 0x20))\n      tag_246\n      calldataload(0x04)\n      tag_30\n      jump\t// in\n    tag_246:\n      stop\n    tag_135:\n      jumpi(tag_149, callvalue)\n      jumpi(tag_149, slt(add(not(0x03), calldatasize), 0x20))\n      calldataload(0x04)\n      0x08\n        /* \"contracts/modules/SponsorMatrix.sol\":2144:2208  uint[8] public minLevelForGlbBooster = [4, 5, 6, 7, 8, 9, 10,11] */\n      dup2\n      lt\n      iszero\n      tag_149\n      jumpi\n        /* \"contracts/modules/SponsorMatrix.sol\":756:37257  contract Nanakshahi {... */\n      0x20\n      swap1\n        /* \"contracts/modules/SponsorMatrix.sol\":2144:2208  uint[8] public minLevelForGlbBooster = [4, 5, 6, 7, 8, 9, 10,11] */\n      0x11\n        /* \"contracts/modules/SponsorMatrix.sol\":756:37257  contract Nanakshahi {... */\n      add\n      sload\n      mload(0x40)\n      swap1\n      dup2\n      mstore\n      return\n    tag_133:\n      jumpi(tag_149, callvalue)\n      tag_255\n      calldatasize\n      tag_7\n      jump\t// in\n    tag_255:\n      swap1\n      0x00\n      mstore\n        /* \"contracts/modules/SponsorMatrix.sol\":4315:4377  mapping(uint =>  mapping(uint => UserPool)) public userPooldtl */\n      0x1a\n        /* \"contracts/modules/SponsorMatrix.sol\":756:37257  contract Nanakshahi {... */\n      0x20\n      mstore\n      keccak256(0x00, 0x40)\n      swap1\n      0x00\n      mstore\n      0x20\n      mstore\n      keccak256(0x00, 0x40)\n      dup1\n      sload\n      tag_256\n        /* \"contracts/modules/SponsorMatrix.sol\":4315:4377  mapping(uint =>  mapping(uint => UserPool)) public userPooldtl */\n      0x01\n      dup4\n      add\n        /* \"contracts/modules/SponsorMatrix.sol\":756:37257  contract Nanakshahi {... */\n      sload\n        /* \"contracts/modules/SponsorMatrix.sol\":4315:4377  mapping(uint =>  mapping(uint => UserPool)) public userPooldtl */\n      swap3\n      0x02\n      dup2\n      add\n        /* \"contracts/modules/SponsorMatrix.sol\":756:37257  contract Nanakshahi {... */\n      sload\n        /* \"contracts/modules/SponsorMatrix.sol\":4315:4377  mapping(uint =>  mapping(uint => UserPool)) public userPooldtl */\n      swap1\n        /* \"contracts/modules/SponsorMatrix.sol\":756:37257  contract Nanakshahi {... */\n      0x04\n        /* \"contracts/modules/SponsorMatrix.sol\":4315:4377  mapping(uint =>  mapping(uint => UserPool)) public userPooldtl */\n      0x03\n      dup3\n      add\n        /* \"contracts/modules/SponsorMatrix.sol\":756:37257  contract Nanakshahi {... */\n      sload\n        /* \"contracts/modules/SponsorMatrix.sol\":4315:4377  mapping(uint =>  mapping(uint => UserPool)) public userPooldtl */\n      swap2\n      add\n        /* \"contracts/modules/SponsorMatrix.sol\":756:37257  contract Nanakshahi {... */\n      sload\n      swap2\n      mload(0x40)\n      swap6\n      dup7\n      swap6\n      dup7\n      swap2\n      swap3\n      0x80\n      swap4\n      swap7\n      swap6\n      swap5\n      swap2\n      swap7\n      0xa0\n      dup5\n      add\n      swap8\n      dup5\n      mstore\n      0x20\n      dup5\n      add\n      mstore\n      0x40\n      dup4\n      add\n      mstore\n      0x60\n      dup3\n      add\n      mstore\n      add\n      mstore\n      jump\n    tag_256:\n      sub\n      swap1\n      return\n    tag_131:\n      jumpi(tag_149, callvalue)\n      jumpi(tag_149, slt(add(not(0x03), calldatasize), 0x20))\n      calldataload(0x04)\n      sub(shl(0xa0, 0x01), 0x01)\n      dup2\n      and\n      swap1\n      dup2\n      swap1\n      sub\n      tag_149\n      jumpi\n      0x00\n      mstore\n        /* \"contracts/modules/SponsorMatrix.sol\":5367:5410  mapping(address => uint) public addressToId */\n      0x23\n        /* \"contracts/modules/SponsorMatrix.sol\":756:37257  contract Nanakshahi {... */\n      0x20\n      mstore\n      0x20\n      sload(keccak256(0x00, 0x40))\n      mload(0x40)\n      swap1\n      dup2\n      mstore\n      return\n    tag_129:\n      jumpi(tag_149, callvalue)\n      tag_265\n      calldatasize\n      tag_7\n      jump\t// in\n    tag_265:\n      swap1\n      0x00\n      mstore\n        /* \"contracts/modules/SponsorMatrix.sol\":4906:4949  mapping(uint => uint[]) public boosterUsers */\n      0x21\n        /* \"contracts/modules/SponsorMatrix.sol\":756:37257  contract Nanakshahi {... */\n      0x20\n      mstore\n      keccak256(0x00, 0x40)\n      dup1\n      sload\n        /* \"contracts/modules/SponsorMatrix.sol\":4906:4949  mapping(uint => uint[]) public boosterUsers */\n      dup3\n      lt\n      iszero\n      tag_149\n      jumpi\n        /* \"contracts/modules/SponsorMatrix.sol\":756:37257  contract Nanakshahi {... */\n      0x20\n        /* \"contracts/modules/SponsorMatrix.sol\":4906:4949  mapping(uint => uint[]) public boosterUsers */\n      swap2\n      tag_268\n      swap2\n      tag_6\n      jump\t// in\n    tag_268:\n        /* \"contracts/modules/SponsorMatrix.sol\":756:37257  contract Nanakshahi {... */\n      swap1\n      sload\n      swap1\n      0x03\n      shl\n      shr\n      mload(0x40)\n      swap1\n      dup2\n      mstore\n      return\n    tag_127:\n      jumpi(tag_149, callvalue)\n      jumpi(tag_149, slt(add(not(0x03), calldatasize), 0x20))\n      calldataload(0x04)\n        /* \"contracts/modules/SponsorMatrix.sol\":1323:1863  uint[] public packages = [... */\n      0x07\n        /* \"contracts/modules/SponsorMatrix.sol\":756:37257  contract Nanakshahi {... */\n      sload\n        /* \"contracts/modules/SponsorMatrix.sol\":1323:1863  uint[] public packages = [... */\n      dup2\n      lt\n      iszero\n      tag_149\n      jumpi\n      tag_268\n        /* \"contracts/modules/SponsorMatrix.sol\":756:37257  contract Nanakshahi {... */\n      0x20\n        /* \"contracts/modules/SponsorMatrix.sol\":1323:1863  uint[] public packages = [... */\n      swap2\n      tag_3\n      jump\t// in\n        /* \"contracts/modules/SponsorMatrix.sol\":756:37257  contract Nanakshahi {... */\n    tag_125:\n      jumpi(tag_149, callvalue)\n      jumpi(tag_149, slt(add(not(0x03), calldatasize), 0x00))\n      0x20\n        /* \"contracts/modules/SponsorMatrix.sol\":978:1000  uint public totalUsers */\n      0x06\n        /* \"contracts/modules/SponsorMatrix.sol\":756:37257  contract Nanakshahi {... */\n      sload\n      mload(0x40)\n      swap1\n      dup2\n      mstore\n      return\n    tag_123:\n      jumpi(tag_149, callvalue)\n      tag_282\n      calldatasize\n      tag_7\n      jump\t// in\n    tag_282:\n      swap1\n      0x00\n      mstore\n        /* \"contracts/modules/SponsorMatrix.sol\":4237:4306  mapping(uint =>  mapping(uint => UserPoolTopup)) public userPooltopup */\n      0x19\n        /* \"contracts/modules/SponsorMatrix.sol\":756:37257  contract Nanakshahi {... */\n      0x20\n      mstore\n      keccak256(0x00, 0x40)\n      swap1\n      0x00\n      mstore\n      0x20\n      mstore\n      0x40\n      dup1\n      0x00\n      keccak256\n        /* \"contracts/modules/SponsorMatrix.sol\":4237:4306  mapping(uint =>  mapping(uint => UserPoolTopup)) public userPooltopup */\n      0x01\n        /* \"contracts/modules/SponsorMatrix.sol\":756:37257  contract Nanakshahi {... */\n      dup2\n      sload\n        /* \"contracts/modules/SponsorMatrix.sol\":4237:4306  mapping(uint =>  mapping(uint => UserPoolTopup)) public userPooltopup */\n      swap2\n      add\n        /* \"contracts/modules/SponsorMatrix.sol\":756:37257  contract Nanakshahi {... */\n      sload\n      dup3\n      mload\n      swap2\n      dup3\n      mstore\n      0x20\n      dup3\n      add\n      mstore\n      return\n    tag_121:\n      jumpi(tag_149, callvalue)\n      tag_285\n      calldatasize\n      tag_7\n      jump\t// in\n    tag_285:\n      swap1\n      0x00\n      mstore\n        /* \"contracts/modules/SponsorMatrix.sol\":4651:4708  mapping(uint => mapping(uint => bool)) public userHasPool */\n      0x1e\n        /* \"contracts/modules/SponsorMatrix.sol\":756:37257  contract Nanakshahi {... */\n      0x20\n      mstore\n      keccak256(0x00, 0x40)\n      swap1\n      0x00\n      mstore\n      0x20\n      mstore\n      0x20\n      and(sload(keccak256(0x00, 0x40)), 0xff)\n      mload(0x40)\n      swap1\n      iszero\n      iszero\n      dup2\n      mstore\n      return\n    tag_119:\n      jumpi(tag_149, callvalue)\n      jumpi(tag_149, slt(add(not(0x03), calldatasize), 0x20))\n      calldataload(0x04)\n      dup1\n      0x00\n      mstore\n        /* \"contracts/modules/SponsorMatrix.sol\":14889:14894  users */\n      0x24\n        /* \"contracts/modules/SponsorMatrix.sol\":756:37257  contract Nanakshahi {... */\n      0x20\n      mstore\n      keccak256(0x00, 0x40)\n        /* \"contracts/modules/SponsorMatrix.sol\":14914:14969  require(user.account == msg.sender, \"Not your account\") */\n      tag_290\n        /* \"contracts/modules/SponsorMatrix.sol\":756:37257  contract Nanakshahi {... */\n      0x01\n      dup1\n      0xa0\n      shl\n      sub\n      dup3\n      sload\n      and\n        /* \"contracts/modules/SponsorMatrix.sol\":14938:14948  msg.sender */\n      caller\n        /* \"contracts/modules/SponsorMatrix.sol\":14922:14948  user.account == msg.sender */\n      eq\n        /* \"contracts/modules/SponsorMatrix.sol\":14914:14969  require(user.account == msg.sender, \"Not your account\") */\n      tag_11\n      jump\t// in\n    tag_290:\n        /* \"contracts/modules/SponsorMatrix.sol\":14988:15005  user.boosterlevel */\n      0x0c\n      dup2\n      add\n        /* \"contracts/modules/SponsorMatrix.sol\":756:37257  contract Nanakshahi {... */\n      swap1\n      dup2\n      sload\n        /* \"contracts/modules/SponsorMatrix.sol\":14988:15009  user.boosterlevel < 8 */\n      swap2\n        /* \"contracts/modules/SponsorMatrix.sol\":15008:15009  8 */\n      0x08\n        /* \"contracts/modules/SponsorMatrix.sol\":14988:15009  user.boosterlevel < 8 */\n      dup4\n      lt\n        /* \"contracts/modules/SponsorMatrix.sol\":14980:15026  require(user.boosterlevel < 8, \"At max level\") */\n      tag_291\n      dup2\n      tag_21\n      jump\t// in\n    tag_291:\n        /* \"contracts/modules/SponsorMatrix.sol\":756:37257  contract Nanakshahi {... */\n      iszero\n      tag_292\n      jumpi\n        /* \"contracts/modules/SponsorMatrix.sol\":15336:15400  require(user.level >= requiredLevel, \"Upgrade your level first\") */\n      tag_294\n        /* \"contracts/modules/SponsorMatrix.sol\":756:37257  contract Nanakshahi {... */\n      dup4\n        /* \"contracts/modules/SponsorMatrix.sol\":15197:15218  minLevelForGlbBooster */\n      0x11\n        /* \"contracts/modules/SponsorMatrix.sol\":756:37257  contract Nanakshahi {... */\n      add\n      sload\n        /* \"contracts/modules/SponsorMatrix.sol\":15344:15354  user.level */\n      0x06\n      dup5\n      add\n        /* \"contracts/modules/SponsorMatrix.sol\":756:37257  contract Nanakshahi {... */\n      sload\n        /* \"contracts/modules/SponsorMatrix.sol\":15344:15371  user.level >= requiredLevel */\n      lt\n      iszero\n        /* \"contracts/modules/SponsorMatrix.sol\":15336:15400  require(user.level >= requiredLevel, \"Upgrade your level first\") */\n      tag_22\n      jump\t// in\n    tag_294:\n        /* \"contracts/modules/SponsorMatrix.sol\":15480:15492  nextPool > 0 */\n      dup3\n        /* \"contracts/modules/SponsorMatrix.sol\":15476:15586  if (nextPool > 0) {... */\n      tag_295\n      jumpi\n        /* \"contracts/modules/SponsorMatrix.sol\":756:37257  contract Nanakshahi {... */\n    tag_296:\n      dup4\n      0x00\n      mstore\n        /* \"contracts/modules/SponsorMatrix.sol\":15605:15619  userHasbooster */\n      0x22\n        /* \"contracts/modules/SponsorMatrix.sol\":756:37257  contract Nanakshahi {... */\n      0x20\n      mstore\n      keccak256(0x00, 0x40)\n      dup4\n      0x00\n      mstore\n      0x20\n      mstore\n        /* \"contracts/modules/SponsorMatrix.sol\":15596:15665  require(!userHasbooster[_userId][nextPool], \"Pool already purchased\") */\n      tag_297\n        /* \"contracts/modules/SponsorMatrix.sol\":756:37257  contract Nanakshahi {... */\n      and(sload(keccak256(0x00, 0x40)), 0xff)\n        /* \"contracts/modules/SponsorMatrix.sol\":15604:15638  !userHasbooster[_userId][nextPool] */\n      iszero\n        /* \"contracts/modules/SponsorMatrix.sol\":15596:15665  require(!userHasbooster[_userId][nextPool], \"Pool already purchased\") */\n      tag_23\n      jump\t// in\n    tag_297:\n        /* \"contracts/modules/SponsorMatrix.sol\":15698:15726  GlbBoosterPackages[nextPool] */\n      tag_298\n      dup4\n      tag_4\n      jump\t// in\n    tag_298:\n        /* \"contracts/modules/SponsorMatrix.sol\":756:37257  contract Nanakshahi {... */\n      swap1\n      sload\n      0x00\n      dup1\n      sload\n      mload(0x40)\n      shl(0xe0, 0x23b872dd)\n        /* \"contracts/modules/SponsorMatrix.sol\":15794:15852  usdt.transferFrom(msg.sender, address(this), packagePrice) */\n      dup2\n      mstore\n        /* \"contracts/modules/SponsorMatrix.sol\":14938:14948  msg.sender */\n      caller\n        /* \"contracts/modules/SponsorMatrix.sol\":756:37257  contract Nanakshahi {... */\n      0x04\n        /* \"contracts/modules/SponsorMatrix.sol\":15794:15852  usdt.transferFrom(msg.sender, address(this), packagePrice) */\n      dup3\n      add\n        /* \"contracts/modules/SponsorMatrix.sol\":756:37257  contract Nanakshahi {... */\n      mstore\n        /* \"contracts/modules/SponsorMatrix.sol\":15832:15836  this */\n      address\n        /* \"contracts/modules/SponsorMatrix.sol\":756:37257  contract Nanakshahi {... */\n      0x24\n      dup3\n      add\n      mstore\n      0x03\n      swap5\n      swap1\n      swap5\n      shl\n      swap3\n      swap1\n      swap3\n      shr\n      0x44\n      dup5\n      add\n      dup2\n      swap1\n      mstore\n      swap4\n      swap3\n      swap2\n      0x20\n      swap2\n      dup4\n      swap2\n      0x64\n      swap2\n      dup4\n      swap2\n      sub(shl(0xa0, 0x01), 0x01)\n      and\n        /* \"contracts/modules/SponsorMatrix.sol\":15794:15852  usdt.transferFrom(msg.sender, address(this), packagePrice) */\n      gas\n      call\n      dup1\n      iszero\n      tag_161\n      jumpi\n      tag_302\n      jumpi\n        /* \"contracts/modules/SponsorMatrix.sol\":756:37257  contract Nanakshahi {... */\n    tag_303:\n      pop\n      dup1\n      sload\n      swap1\n      0x01\n      dup3\n      add\n      dup1\n      swap3\n      gt\n      tag_199\n      jumpi\n      sstore\n      dup4\n      0x00\n      mstore\n        /* \"contracts/modules/SponsorMatrix.sol\":15605:15619  userHasbooster */\n      0x22\n        /* \"contracts/modules/SponsorMatrix.sol\":756:37257  contract Nanakshahi {... */\n      0x20\n      mstore\n      keccak256(0x00, 0x40)\n      dup4\n      0x00\n      mstore\n      0x20\n      mstore\n      keccak256(0x00, 0x40)\n      0x01\n      not(0xff)\n      dup3\n      sload\n      and\n      or\n      swap1\n      sstore\n        /* \"contracts/modules/SponsorMatrix.sol\":15957:15976  user.boosterDeposit */\n      0x0d\n      dup3\n      add\n        /* \"contracts/modules/SponsorMatrix.sol\":15957:15992  user.boosterDeposit += packagePrice */\n      tag_306\n        /* \"contracts/modules/SponsorMatrix.sol\":756:37257  contract Nanakshahi {... */\n      dup3\n      dup3\n      sload\n        /* \"contracts/modules/SponsorMatrix.sol\":15957:15992  user.boosterDeposit += packagePrice */\n      tag_14\n      jump\t// in\n    tag_306:\n        /* \"contracts/modules/SponsorMatrix.sol\":756:37257  contract Nanakshahi {... */\n      swap1\n      sstore\n        /* \"contracts/modules/SponsorMatrix.sol\":16451:16505  require(poolId < GlbBoosterPackages.length, \"Invalid\") */\n      tag_307\n        /* \"contracts/modules/SponsorMatrix.sol\":15698:15716  GlbBoosterPackages */\n      0x09\n        /* \"contracts/modules/SponsorMatrix.sol\":756:37257  contract Nanakshahi {... */\n      sload\n        /* \"contracts/modules/SponsorMatrix.sol\":16459:16493  poolId < GlbBoosterPackages.length */\n      dup5\n      lt\n        /* \"contracts/modules/SponsorMatrix.sol\":16451:16505  require(poolId < GlbBoosterPackages.length, \"Invalid\") */\n      tag_32\n      jump\t// in\n    tag_307:\n        /* \"contracts/modules/SponsorMatrix.sol\":16516:16584  require(msg.value == GlbBoosterPackages[poolId], \"Incorrect amount\") */\n      tag_308\n        /* \"contracts/modules/SponsorMatrix.sol\":16537:16563  GlbBoosterPackages[poolId] */\n      tag_309\n      dup5\n      tag_4\n      jump\t// in\n    tag_309:\n        /* \"contracts/modules/SponsorMatrix.sol\":756:37257  contract Nanakshahi {... */\n      swap1\n      sload\n      swap1\n      0x03\n      shl\n      shr\n        /* \"contracts/modules/SponsorMatrix.sol\":16524:16563  msg.value == GlbBoosterPackages[poolId] */\n      iszero\n        /* \"contracts/modules/SponsorMatrix.sol\":16516:16584  require(msg.value == GlbBoosterPackages[poolId], \"Incorrect amount\") */\n      tag_33\n      jump\t// in\n    tag_308:\n        /* \"contracts/modules/SponsorMatrix.sol\":756:37257  contract Nanakshahi {... */\n      dup3\n      0x00\n      mstore\n        /* \"contracts/modules/SponsorMatrix.sol\":16623:16635  boosterUsers */\n      0x21\n        /* \"contracts/modules/SponsorMatrix.sol\":756:37257  contract Nanakshahi {... */\n      0x20\n      mstore\n      keccak256(0x00, 0x40)\n      mload(0x40)\n      dup1\n      dup3\n      0x20\n      dup3\n      swap5\n      sload\n      swap4\n      dup5\n      dup2\n      mstore\n      add\n      swap1\n      0x00\n      mstore\n      keccak256(0x00, 0x20)\n      swap3\n      0x00\n    tag_310:\n      dup2\n      dup2\n      lt\n      tag_311\n      jumpi\n      pop\n      pop\n      tag_313\n      swap3\n      pop\n      sub\n      dup3\n      tag_17\n      jump\t// in\n    tag_313:\n      dup1\n      mload\n      swap3\n      dup5\n      0x00\n      mstore\n        /* \"contracts/modules/SponsorMatrix.sol\":16623:16635  boosterUsers */\n      0x21\n        /* \"contracts/modules/SponsorMatrix.sol\":756:37257  contract Nanakshahi {... */\n      0x20\n      mstore\n        /* \"contracts/modules/SponsorMatrix.sol\":16815:16852  boosterUsers[poolId].push(userMainId) */\n      tag_314\n        /* \"contracts/modules/SponsorMatrix.sol\":756:37257  contract Nanakshahi {... */\n      dup7\n      keccak256(0x00, 0x40)\n        /* \"contracts/modules/SponsorMatrix.sol\":16815:16852  boosterUsers[poolId].push(userMainId) */\n      tag_31\n      jump\t// in\n    tag_314:\n      not(0x00)\n        /* \"contracts/modules/SponsorMatrix.sol\":756:37257  contract Nanakshahi {... */\n      dup5\n      add\n      swap4\n      dup5\n      gt\n      tag_199\n      jumpi\n        /* \"contracts/modules/SponsorMatrix.sol\":16957:16978  usersLen[parentIndex] */\n      tag_317\n        /* \"contracts/modules/SponsorMatrix.sol\":756:37257  contract Nanakshahi {... */\n      0x01\n      swap3\n      0x03\n        /* \"contracts/modules/SponsorMatrix.sol\":16094:16262  user.deposits.push(Deposit({... */\n      tag_318\n        /* \"contracts/modules/SponsorMatrix.sol\":756:37257  contract Nanakshahi {... */\n      swap7\n      div\n        /* \"contracts/modules/SponsorMatrix.sol\":16957:16978  usersLen[parentIndex] */\n      swap1\n      tag_34\n      jump\t// in\n    tag_317:\n        /* \"contracts/modules/SponsorMatrix.sol\":756:37257  contract Nanakshahi {... */\n      mload\n      mload(0x40)\n      tag_319\n      dup2\n      tag_15\n      jump\t// in\n    tag_319:\n      dup8\n      dup2\n      mstore\n      0x03\n      0x20\n        /* \"contracts/modules/SponsorMatrix.sol\":17029:17207  UserBooster({... */\n      dup3\n      add\n        /* \"contracts/modules/SponsorMatrix.sol\":756:37257  contract Nanakshahi {... */\n      dup9\n      dup2\n      mstore\n      0x40\n        /* \"contracts/modules/SponsorMatrix.sol\":17029:17207  UserBooster({... */\n      dup4\n      add\n        /* \"contracts/modules/SponsorMatrix.sol\":756:37257  contract Nanakshahi {... */\n      dup5\n      dup2\n      mstore\n        /* \"contracts/modules/SponsorMatrix.sol\":17029:17207  UserBooster({... */\n      0x60\n      dup5\n      add\n        /* \"contracts/modules/SponsorMatrix.sol\":756:37257  contract Nanakshahi {... */\n      swap2\n      0x00\n      dup4\n      mstore\n      dup11\n      0x00\n      mstore\n        /* \"contracts/modules/SponsorMatrix.sol\":16992:17006  userBoosterdtl */\n      0x1f\n        /* \"contracts/modules/SponsorMatrix.sol\":756:37257  contract Nanakshahi {... */\n      0x20\n      mstore\n      keccak256(0x00, 0x40)\n      dup13\n      0x00\n      mstore\n      0x20\n      mstore\n      keccak256(0x00, 0x40)\n      swap5\n      mload\n      dup6\n      sstore\n      mload\n      dup8\n      dup6\n      add\n      sstore\n      mload\n      0x02\n      dup5\n      add\n      sstore\n      mload\n      swap2\n      add\n      sstore\n      dup6\n      0x00\n      mstore\n      0x20\n      dup1\n      mstore\n      keccak256(0x00, 0x40)\n      swap1\n      0x00\n      mstore\n      0x20\n      mstore\n        /* \"contracts/modules/SponsorMatrix.sol\":17222:17276  userBoosterChildren[poolId][parentId].push(userMainId) */\n      tag_320\n        /* \"contracts/modules/SponsorMatrix.sol\":756:37257  contract Nanakshahi {... */\n      dup7\n      keccak256(0x00, 0x40)\n        /* \"contracts/modules/SponsorMatrix.sol\":17222:17276  userBoosterChildren[poolId][parentId].push(userMainId) */\n      tag_31\n      jump\t// in\n    tag_320:\n        /* \"contracts/modules/SponsorMatrix.sol\":756:37257  contract Nanakshahi {... */\n      mload(0x40)\n      swap3\n      tag_321\n      dup5\n      tag_15\n      jump\t// in\n    tag_321:\n      dup4\n      mstore\n      0x00\n      0x20\n        /* \"contracts/modules/SponsorMatrix.sol\":16113:16261  Deposit({... */\n      dup5\n      add\n        /* \"contracts/modules/SponsorMatrix.sol\":756:37257  contract Nanakshahi {... */\n      mstore\n        /* \"contracts/modules/SponsorMatrix.sol\":16205:16220  block.timestamp */\n      timestamp\n        /* \"contracts/modules/SponsorMatrix.sol\":756:37257  contract Nanakshahi {... */\n      0x40\n        /* \"contracts/modules/SponsorMatrix.sol\":16113:16261  Deposit({... */\n      dup5\n      add\n        /* \"contracts/modules/SponsorMatrix.sol\":756:37257  contract Nanakshahi {... */\n      mstore\n        /* \"contracts/modules/SponsorMatrix.sol\":16247:16249  11 */\n      0x0b\n        /* \"contracts/modules/SponsorMatrix.sol\":17029:17207  UserBooster({... */\n      0x60\n        /* \"contracts/modules/SponsorMatrix.sol\":16113:16261  Deposit({... */\n      dup5\n      add\n        /* \"contracts/modules/SponsorMatrix.sol\":756:37257  contract Nanakshahi {... */\n      mstore\n        /* \"contracts/modules/SponsorMatrix.sol\":16094:16107  user.deposits */\n      add\n        /* \"contracts/modules/SponsorMatrix.sol\":16094:16262  user.deposits.push(Deposit({... */\n      tag_18\n      jump\t// in\n    tag_318:\n        /* \"contracts/modules/SponsorMatrix.sol\":756:37257  contract Nanakshahi {... */\n      0x01\n      dup2\n      add\n      dup1\n      swap2\n      gt\n      tag_199\n      jumpi\n      mload(0x40)\n      swap1\n      dup2\n      mstore\n      0x40\n      0x20\n      dup3\n      add\n      mstore\n      0x07\n      0x40\n      dup3\n      add\n      mstore\n      shl(0xc9, 0x2137b7b9ba32b9)\n        /* \"contracts/modules/SponsorMatrix.sol\":17029:17207  UserBooster({... */\n      0x60\n        /* \"contracts/modules/SponsorMatrix.sol\":756:37257  contract Nanakshahi {... */\n      dup3\n      add\n      mstore\n      mload(0x00)\n      codecopy(0x00, data_92fb4c3df386bc0d49f8847c66cda554c07c2df42e065e03d639278ecf8d94a7, 0x20)\n      mload(0x00)\n      swap1\n      0x00\n      mstore\n      0x80\n        /* \"contracts/modules/SponsorMatrix.sol\":14938:14948  msg.sender */\n      caller\n        /* \"contracts/modules/SponsorMatrix.sol\":16280:16333  Upgrade(msg.sender, _userId, nextPool + 1, \"Booster\") */\n      swap3\n      log3\n        /* \"contracts/modules/SponsorMatrix.sol\":756:37257  contract Nanakshahi {... */\n      stop\n    tag_311:\n      dup5\n      sload\n      dup4\n      mstore\n      0x01\n      swap5\n      dup6\n      add\n      swap5\n      dup7\n      swap5\n      pop\n      0x20\n      swap1\n      swap4\n      add\n      swap3\n      add\n      jump(tag_310)\n        /* \"contracts/modules/SponsorMatrix.sol\":15794:15852  usdt.transferFrom(msg.sender, address(this), packagePrice) */\n    tag_302:\n      tag_324\n      swap1\n        /* \"contracts/modules/SponsorMatrix.sol\":756:37257  contract Nanakshahi {... */\n      0x20\n        /* \"contracts/modules/SponsorMatrix.sol\":15794:15852  usdt.transferFrom(msg.sender, address(this), packagePrice) */\n      returndatasize\n        /* \"contracts/modules/SponsorMatrix.sol\":756:37257  contract Nanakshahi {... */\n      0x20\n        /* \"contracts/modules/SponsorMatrix.sol\":15794:15852  usdt.transferFrom(msg.sender, address(this), packagePrice) */\n      gt\n      tag_231\n      jumpi\n      tag_233\n      dup2\n      dup4\n      tag_17\n      jump\t// in\n    tag_324:\n      jump(tag_303)\n        /* \"contracts/modules/SponsorMatrix.sol\":15476:15586  if (nextPool > 0) {... */\n    tag_295:\n      jump(tag_296)\n        /* \"contracts/modules/SponsorMatrix.sol\":756:37257  contract Nanakshahi {... */\n    tag_292:\n      mstore(0x00, shl(0xe0, 0x4e487b71))\n      mstore(0x04, 0x32)\n        /* \"contracts/modules/SponsorMatrix.sol\":14889:14894  users */\n      0x24\n        /* \"contracts/modules/SponsorMatrix.sol\":756:37257  contract Nanakshahi {... */\n      0x00\n      revert\n    tag_117:\n      jumpi(tag_149, callvalue)\n      jumpi(tag_149, slt(add(not(0x03), calldatasize), 0x20))\n      calldataload(0x04)\n        /* \"contracts/modules/SponsorMatrix.sol\":1870:1961  uint[] public poolPackages = [25e18, 100e18, 400e18, 1600e18, 6400e18, 25600e18, 102400e18] */\n      0x08\n        /* \"contracts/modules/SponsorMatrix.sol\":756:37257  contract Nanakshahi {... */\n      sload\n        /* \"contracts/modules/SponsorMatrix.sol\":1870:1961  uint[] public poolPackages = [25e18, 100e18, 400e18, 1600e18, 6400e18, 25600e18, 102400e18] */\n      dup2\n      lt\n      iszero\n      tag_149\n      jumpi\n      tag_268\n        /* \"contracts/modules/SponsorMatrix.sol\":756:37257  contract Nanakshahi {... */\n      0x20\n        /* \"contracts/modules/SponsorMatrix.sol\":1870:1961  uint[] public poolPackages = [25e18, 100e18, 400e18, 1600e18, 6400e18, 25600e18, 102400e18] */\n      swap2\n      tag_2\n      jump\t// in\n        /* \"contracts/modules/SponsorMatrix.sol\":756:37257  contract Nanakshahi {... */\n    tag_115:\n      jumpi(tag_149, callvalue)\n      jumpi(tag_149, slt(add(not(0x03), calldatasize), 0x20))\n      calldataload(0x04)\n        /* \"contracts/modules/SponsorMatrix.sol\":1968:2073  uint[] public GlbBoosterPackages = [ 100e18, 200e18, 400e18, 800e18, 1600e18, 3200e18, 6400e18, 12800e18] */\n      0x09\n        /* \"contracts/modules/SponsorMatrix.sol\":756:37257  contract Nanakshahi {... */\n      sload\n        /* \"contracts/modules/SponsorMatrix.sol\":1968:2073  uint[] public GlbBoosterPackages = [ 100e18, 200e18, 400e18, 800e18, 1600e18, 3200e18, 6400e18, 12800e18] */\n      dup2\n      lt\n      iszero\n      tag_149\n      jumpi\n      tag_268\n        /* \"contracts/modules/SponsorMatrix.sol\":756:37257  contract Nanakshahi {... */\n      0x20\n        /* \"contracts/modules/SponsorMatrix.sol\":1968:2073  uint[] public GlbBoosterPackages = [ 100e18, 200e18, 400e18, 800e18, 1600e18, 3200e18, 6400e18, 12800e18] */\n      swap2\n      tag_4\n      jump\t// in\n        /* \"contracts/modules/SponsorMatrix.sol\":756:37257  contract Nanakshahi {... */\n    tag_113:\n      jumpi(tag_149, callvalue)\n      tag_344\n      calldatasize\n      tag_7\n      jump\t// in\n    tag_344:\n      swap1\n      0x00\n      mstore\n        /* \"contracts/modules/SponsorMatrix.sol\":4989:5049  mapping(uint => mapping(uint => bool)) public userHasbooster */\n      0x22\n        /* \"contracts/modules/SponsorMatrix.sol\":756:37257  contract Nanakshahi {... */\n      0x20\n      mstore\n      keccak256(0x00, 0x40)\n      swap1\n      0x00\n      mstore\n      0x20\n      mstore\n      0x20\n      and(sload(keccak256(0x00, 0x40)), 0xff)\n      mload(0x40)\n      swap1\n      iszero\n      iszero\n      dup2\n      mstore\n      return\n    tag_111:\n      jumpi(tag_149, callvalue)\n      tag_347\n      calldatasize\n      tag_7\n      jump\t// in\n    tag_347:\n      swap1\n      0x00\n      mstore\n        /* \"contracts/modules/SponsorMatrix.sol\":4756:4824  mapping(uint =>  mapping(uint => UserBooster)) public userBoosterdtl */\n      0x1f\n        /* \"contracts/modules/SponsorMatrix.sol\":756:37257  contract Nanakshahi {... */\n      0x20\n      mstore\n      keccak256(0x00, 0x40)\n      swap1\n      0x00\n      mstore\n      0x20\n      mstore\n      0x80\n      keccak256(0x00, 0x40)\n      dup1\n      sload\n        /* \"contracts/modules/SponsorMatrix.sol\":4756:4824  mapping(uint =>  mapping(uint => UserBooster)) public userBoosterdtl */\n      swap1\n      0x01\n      dup2\n      add\n        /* \"contracts/modules/SponsorMatrix.sol\":756:37257  contract Nanakshahi {... */\n      sload\n        /* \"contracts/modules/SponsorMatrix.sol\":4756:4824  mapping(uint =>  mapping(uint => UserBooster)) public userBoosterdtl */\n      swap1\n      0x03\n      0x02\n      dup3\n      add\n        /* \"contracts/modules/SponsorMatrix.sol\":756:37257  contract Nanakshahi {... */\n      sload\n        /* \"contracts/modules/SponsorMatrix.sol\":4756:4824  mapping(uint =>  mapping(uint => UserBooster)) public userBoosterdtl */\n      swap2\n      add\n        /* \"contracts/modules/SponsorMatrix.sol\":756:37257  contract Nanakshahi {... */\n      sload\n      swap2\n      mload(0x40)\n      swap4\n      dup5\n      mstore\n      0x20\n      dup5\n      add\n      mstore\n      0x40\n      dup4\n      add\n      mstore\n      0x60\n      dup3\n      add\n      mstore\n      return\n    tag_109:\n      jumpi(tag_149, callvalue)\n      tag_350\n      calldatasize\n      tag_1\n      jump\t// in\n    tag_350:\n      swap2\n      0x00\n      mstore\n        /* \"contracts/modules/SponsorMatrix.sol\":4384:4444  mapping(uint => mapping(uint => uint[])) public userChildren */\n      0x1b\n        /* \"contracts/modules/SponsorMatrix.sol\":756:37257  contract Nanakshahi {... */\n      0x20\n      mstore\n      keccak256(0x00, 0x40)\n      swap1\n      0x00\n      mstore\n      0x20\n      mstore\n      keccak256(0x00, 0x40)\n      dup1\n      sload\n        /* \"contracts/modules/SponsorMatrix.sol\":4384:4444  mapping(uint => mapping(uint => uint[])) public userChildren */\n      dup3\n      lt\n      iszero\n      tag_149\n      jumpi\n        /* \"contracts/modules/SponsorMatrix.sol\":756:37257  contract Nanakshahi {... */\n      0x20\n        /* \"contracts/modules/SponsorMatrix.sol\":4384:4444  mapping(uint => mapping(uint => uint[])) public userChildren */\n      swap2\n      tag_268\n      swap2\n      tag_6\n      jump\t// in\n        /* \"contracts/modules/SponsorMatrix.sol\":756:37257  contract Nanakshahi {... */\n    tag_107:\n      jumpi(tag_149, callvalue)\n      0xffffffff\n      tag_356\n      calldatasize\n      tag_8\n      jump\t// in\n    tag_356:\n      swap2\n      and\n      swap1\n      dup2\n      0x00\n      mstore\n        /* \"contracts/modules/SponsorMatrix.sol\":10813:10818  users */\n      0x24\n        /* \"contracts/modules/SponsorMatrix.sol\":756:37257  contract Nanakshahi {... */\n      0x20\n      mstore\n      keccak256(0x00, 0x40)\n        /* \"contracts/modules/SponsorMatrix.sol\":10838:10893  require(user.account == msg.sender, \"Not your account\") */\n      tag_357\n        /* \"contracts/modules/SponsorMatrix.sol\":756:37257  contract Nanakshahi {... */\n      0x01\n      dup1\n      0xa0\n      shl\n      sub\n      dup3\n      sload\n      and\n        /* \"contracts/modules/SponsorMatrix.sol\":10862:10872  msg.sender */\n      caller\n        /* \"contracts/modules/SponsorMatrix.sol\":10846:10872  user.account == msg.sender */\n      eq\n        /* \"contracts/modules/SponsorMatrix.sol\":10838:10893  require(user.account == msg.sender, \"Not your account\") */\n      tag_11\n      jump\t// in\n    tag_357:\n        /* \"contracts/modules/SponsorMatrix.sol\":10912:10926  user.poollevel */\n      0x0a\n      dup2\n      add\n        /* \"contracts/modules/SponsorMatrix.sol\":756:37257  contract Nanakshahi {... */\n      swap2\n        /* \"contracts/modules/SponsorMatrix.sol\":10904:10946  require(user.poollevel < 7, \"At max pool\") */\n      tag_358\n        /* \"contracts/modules/SponsorMatrix.sol\":10929:10930  7 */\n      0x07\n        /* \"contracts/modules/SponsorMatrix.sol\":756:37257  contract Nanakshahi {... */\n      dup5\n      sload\n        /* \"contracts/modules/SponsorMatrix.sol\":10912:10930  user.poollevel < 7 */\n      lt\n        /* \"contracts/modules/SponsorMatrix.sol\":10904:10946  require(user.poollevel < 7, \"At max pool\") */\n      tag_12\n      jump\t// in\n    tag_358:\n        /* \"contracts/modules/SponsorMatrix.sol\":11057:11058  1 */\n      0x01\n        /* \"contracts/modules/SponsorMatrix.sol\":756:37257  contract Nanakshahi {... */\n      dup2\n      add\n      swap3\n      dup4\n      dup3\n      gt\n      tag_199\n      jumpi\n        /* \"contracts/modules/SponsorMatrix.sol\":11061:11073  poolPackages */\n      0x08\n        /* \"contracts/modules/SponsorMatrix.sol\":756:37257  contract Nanakshahi {... */\n      sload\n        /* \"contracts/modules/SponsorMatrix.sol\":11047:11080  _poolId + 1 < poolPackages.length */\n      dup5\n      lt\n        /* \"contracts/modules/SponsorMatrix.sol\":756:37257  contract Nanakshahi {... */\n      iszero\n      tag_361\n      jumpi\n        /* \"contracts/modules/SponsorMatrix.sol\":11125:11150  poolPackages[_poolId + 1] */\n      tag_363\n      dup5\n      tag_2\n      jump\t// in\n    tag_363:\n        /* \"contracts/modules/SponsorMatrix.sol\":756:37257  contract Nanakshahi {... */\n      swap1\n      sload\n      swap1\n      0x03\n      shl\n      shr\n        /* \"contracts/modules/SponsorMatrix.sol\":10929:10930  7 */\n      0x07\n        /* \"contracts/modules/SponsorMatrix.sol\":756:37257  contract Nanakshahi {... */\n      dup4\n      lt\n      iszero\n      tag_292\n      jumpi\n        /* \"contracts/modules/SponsorMatrix.sol\":11255:11319  require(user.level >= requiredLevel, \"Upgrade your level first\") */\n      tag_366\n        /* \"contracts/modules/SponsorMatrix.sol\":756:37257  contract Nanakshahi {... */\n      dup4\n        /* \"contracts/modules/SponsorMatrix.sol\":10912:10926  user.poollevel */\n      0x0a\n        /* \"contracts/modules/SponsorMatrix.sol\":756:37257  contract Nanakshahi {... */\n      add\n      sload\n        /* \"contracts/modules/SponsorMatrix.sol\":11263:11273  user.level */\n      0x06\n      dup7\n      add\n        /* \"contracts/modules/SponsorMatrix.sol\":756:37257  contract Nanakshahi {... */\n      sload\n        /* \"contracts/modules/SponsorMatrix.sol\":11263:11290  user.level >= requiredLevel */\n      lt\n      iszero\n        /* \"contracts/modules/SponsorMatrix.sol\":11255:11319  require(user.level >= requiredLevel, \"Upgrade your level first\") */\n      tag_22\n      jump\t// in\n    tag_366:\n        /* \"contracts/modules/SponsorMatrix.sol\":756:37257  contract Nanakshahi {... */\n      dup3\n      0x00\n      mstore\n        /* \"contracts/modules/SponsorMatrix.sol\":11393:11406  userPooltopup */\n      0x19\n        /* \"contracts/modules/SponsorMatrix.sol\":756:37257  contract Nanakshahi {... */\n      0x20\n      mstore\n      keccak256(0x00, 0x40)\n      dup7\n      0x00\n      mstore\n      0x20\n      mstore\n      keccak256(0x00, 0x40)\n      dup1\n      sload\n        /* \"contracts/modules/SponsorMatrix.sol\":11443:11474  top.nextPoolAmt >= packagePrice */\n      dup3\n      dup2\n      lt\n        /* \"contracts/modules/SponsorMatrix.sol\":756:37257  contract Nanakshahi {... */\n      tag_367\n      jumpi\n      dup8\n      0x00\n      mstore\n        /* \"contracts/modules/SponsorMatrix.sol\":11527:11538  userHasPool */\n      0x1e\n        /* \"contracts/modules/SponsorMatrix.sol\":756:37257  contract Nanakshahi {... */\n      0x20\n      mstore\n      keccak256(0x00, 0x40)\n      dup8\n      0x00\n      mstore\n      0x20\n      mstore\n      jumpi(tag_369, and(sload(keccak256(0x00, 0x40)), 0xff))\n        /* \"contracts/modules/SponsorMatrix.sol\":11629:11660  top.nextPoolAmt -= packagePrice */\n      dup3\n      tag_371\n      swap2\n      tag_13\n      jump\t// in\n    tag_371:\n        /* \"contracts/modules/SponsorMatrix.sol\":756:37257  contract Nanakshahi {... */\n      swap1\n      sstore\n      dup2\n      sload\n      swap2\n        /* \"contracts/modules/SponsorMatrix.sol\":11057:11058  1 */\n      0x01\n        /* \"contracts/modules/SponsorMatrix.sol\":756:37257  contract Nanakshahi {... */\n      dup4\n      add\n      dup1\n      swap4\n      gt\n      tag_199\n      jumpi\n      0x02\n      swap5\n        /* \"contracts/modules/SponsorMatrix.sol\":11951:12143  user.deposits.push(Deposit({... */\n      tag_374\n        /* \"contracts/modules/SponsorMatrix.sol\":756:37257  contract Nanakshahi {... */\n      swap4\n        /* \"contracts/modules/SponsorMatrix.sol\":11057:11058  1 */\n      0x01\n        /* \"contracts/modules/SponsorMatrix.sol\":756:37257  contract Nanakshahi {... */\n      swap3\n      sstore\n        /* \"contracts/modules/SponsorMatrix.sol\":11738:11754  user.poolDeposit */\n      0x0b\n      dup2\n      add\n        /* \"contracts/modules/SponsorMatrix.sol\":11738:11770  user.poolDeposit += packagePrice */\n      tag_375\n        /* \"contracts/modules/SponsorMatrix.sol\":756:37257  contract Nanakshahi {... */\n      dup5\n      dup3\n      sload\n        /* \"contracts/modules/SponsorMatrix.sol\":11738:11770  user.poolDeposit += packagePrice */\n      tag_14\n      jump\t// in\n    tag_375:\n        /* \"contracts/modules/SponsorMatrix.sol\":756:37257  contract Nanakshahi {... */\n      swap1\n      sstore\n      dup8\n      0x00\n      mstore\n        /* \"contracts/modules/SponsorMatrix.sol\":11527:11538  userHasPool */\n      0x1e\n        /* \"contracts/modules/SponsorMatrix.sol\":756:37257  contract Nanakshahi {... */\n      0x20\n      mstore\n      keccak256(0x00, 0x40)\n      dup8\n      0x00\n      mstore\n      0x20\n      mstore\n      keccak256(0x00, 0x40)\n      dup3\n      not(0xff)\n      dup3\n      sload\n      and\n      or\n      swap1\n      sstore\n        /* \"contracts/modules/SponsorMatrix.sol\":11864:11911  _placeInPool(targetPool, _userId, packagePrice) */\n      tag_320\n      dup4\n      dup10\n      dup10\n      tag_35\n      jump\t// in\n        /* \"contracts/modules/SponsorMatrix.sol\":11951:12143  user.deposits.push(Deposit({... */\n    tag_374:\n        /* \"contracts/modules/SponsorMatrix.sol\":756:37257  contract Nanakshahi {... */\n      add\n      dup1\n      swap2\n      gt\n      tag_199\n      jumpi\n      mload(0x40)\n      swap1\n      dup2\n      mstore\n      0x40\n      0x20\n      dup3\n      add\n      mstore\n      0x16\n      0x40\n      dup3\n      add\n      mstore\n      shl(0x50, 0x506f6f6c205570677261646520284561726e696e6729)\n        /* \"contracts/modules/SponsorMatrix.sol\":11970:12142  Deposit({... */\n      0x60\n        /* \"contracts/modules/SponsorMatrix.sol\":756:37257  contract Nanakshahi {... */\n      dup3\n      add\n      mstore\n      mload(0x00)\n      codecopy(0x00, data_92fb4c3df386bc0d49f8847c66cda554c07c2df42e065e03d639278ecf8d94a7, 0x20)\n      mload(0x00)\n      swap1\n      0x00\n      mstore\n      0x80\n        /* \"contracts/modules/SponsorMatrix.sol\":10862:10872  msg.sender */\n      caller\n        /* \"contracts/modules/SponsorMatrix.sol\":12161:12231  Upgrade(msg.sender, _userId, targetPool + 1, \"Pool Upgrade (Earning)\") */\n      swap3\n      log3\n        /* \"contracts/modules/SponsorMatrix.sol\":756:37257  contract Nanakshahi {... */\n      stop\n    tag_369:\n      mload(0x40)\n      shl(0xe5, 0x461bcd)\n      dup2\n      mstore\n      0x20\n      0x04\n      dup3\n      add\n      mstore\n      0x1b\n        /* \"contracts/modules/SponsorMatrix.sol\":10813:10818  users */\n      0x24\n        /* \"contracts/modules/SponsorMatrix.sol\":756:37257  contract Nanakshahi {... */\n      dup3\n      add\n      mstore\n      0x416c726561647920707572636861736564206e65787420706f6f6c0000000000\n      0x44\n      dup3\n      add\n      mstore\n      0x64\n      swap1\n      revert\n    tag_367:\n      mload(0x40)\n      shl(0xe5, 0x461bcd)\n      dup2\n      mstore\n      0x20\n      0x04\n      dup3\n      add\n      mstore\n      0x1c\n        /* \"contracts/modules/SponsorMatrix.sol\":10813:10818  users */\n      0x24\n        /* \"contracts/modules/SponsorMatrix.sol\":756:37257  contract Nanakshahi {... */\n      dup3\n      add\n      mstore\n      0x4e6f7420656e6f756768206e65787420706f6f6c2062616c616e636500000000\n      0x44\n      dup3\n      add\n      mstore\n      0x64\n      swap1\n      revert\n    tag_361:\n      mload(0x40)\n      shl(0xe5, 0x461bcd)\n      dup2\n      mstore\n      0x20\n      0x04\n      dup3\n      add\n      mstore\n      0x0e\n        /* \"contracts/modules/SponsorMatrix.sol\":10813:10818  users */\n      0x24\n        /* \"contracts/modules/SponsorMatrix.sol\":756:37257  contract Nanakshahi {... */\n      dup3\n      add\n      mstore\n      shl(0x92, 0x139bc81a1a59da195c881c1bdbdb)\n      0x44\n      dup3\n      add\n      mstore\n      0x64\n      swap1\n      revert\n    tag_105:\n      jumpi(tag_149, callvalue)\n      jumpi(tag_149, slt(add(not(0x03), calldatasize), 0x00))\n      sload(0x01)\n      mload(0x40)\n      sub(shl(0xa0, 0x01), 0x01)\n      swap1\n      swap2\n      and\n      dup2\n      mstore\n      0x20\n      swap1\n      return\n    tag_103:\n      jumpi(tag_149, callvalue)\n      tag_386\n      calldatasize\n      tag_1\n      jump\t// in\n    tag_386:\n      swap2\n      0x00\n      mstore\n        /* \"contracts/modules/SponsorMatrix.sol\":4474:4535  mapping(uint => mapping(uint => uint[])) public userIdPerPool */\n      0x1c\n        /* \"contracts/modules/SponsorMatrix.sol\":756:37257  contract Nanakshahi {... */\n      0x20\n      mstore\n      keccak256(0x00, 0x40)\n      swap1\n      0x00\n      mstore\n      0x20\n      mstore\n      keccak256(0x00, 0x40)\n      dup1\n      sload\n        /* \"contracts/modules/SponsorMatrix.sol\":4474:4535  mapping(uint => mapping(uint => uint[])) public userIdPerPool */\n      dup3\n      lt\n      iszero\n      tag_149\n      jumpi\n        /* \"contracts/modules/SponsorMatrix.sol\":756:37257  contract Nanakshahi {... */\n      0x20\n        /* \"contracts/modules/SponsorMatrix.sol\":4474:4535  mapping(uint => mapping(uint => uint[])) public userIdPerPool */\n      swap2\n      tag_268\n      swap2\n      tag_6\n      jump\t// in\n        /* \"contracts/modules/SponsorMatrix.sol\":756:37257  contract Nanakshahi {... */\n    tag_101:\n      jumpi(tag_149, callvalue)\n      jumpi(tag_149, slt(add(not(0x03), calldatasize), 0x20))\n      mstore(0x00, calldataload(0x04))\n        /* \"contracts/modules/SponsorMatrix.sol\":5689:5730  mapping(uint => uint) public matrixDirect */\n      0x28\n        /* \"contracts/modules/SponsorMatrix.sol\":756:37257  contract Nanakshahi {... */\n      0x20\n      mstore\n      0x20\n      sload(keccak256(0x00, 0x40))\n      mload(0x40)\n      swap1\n      dup2\n      mstore\n      return\n    tag_99:\n      jumpi(tag_149, callvalue)\n      jumpi(tag_149, slt(add(not(0x03), calldatasize), 0x00))\n        /* \"contracts/modules/SponsorMatrix.sol\":6122:6154  address public lastLotteryWinner */\n      0x2d\n        /* \"contracts/modules/SponsorMatrix.sol\":756:37257  contract Nanakshahi {... */\n      sload\n      mload(0x40)\n      sub(shl(0xa0, 0x01), 0x01)\n      swap1\n      swap2\n      and\n      dup2\n      mstore\n      0x20\n      swap1\n      return\n    tag_97:\n      jumpi(tag_149, callvalue)\n      jumpi(tag_149, slt(add(not(0x03), calldatasize), 0x00))\n        /* \"contracts/modules/SponsorMatrix.sol\":835:863  address public creatorWallet */\n      0x02\n        /* \"contracts/modules/SponsorMatrix.sol\":756:37257  contract Nanakshahi {... */\n      sload\n      mload(0x40)\n      sub(shl(0xa0, 0x01), 0x01)\n      swap1\n      swap2\n      and\n      dup2\n      mstore\n      0x20\n      swap1\n      return\n    tag_95:\n      jumpi(tag_149, callvalue)\n      jumpi(tag_149, slt(add(not(0x03), calldatasize), 0x00))\n      0x20\n        /* \"contracts/modules/SponsorMatrix.sol\":5937:5971  uint256 public communityAccPerUser */\n      0x2a\n        /* \"contracts/modules/SponsorMatrix.sol\":756:37257  contract Nanakshahi {... */\n      sload\n      mload(0x40)\n      swap1\n      dup2\n      mstore\n      return\n    tag_93:\n      jumpi(tag_149, callvalue)\n      tag_408\n      calldatasize\n      tag_7\n      jump\t// in\n    tag_408:\n      swap1\n      0x00\n      mstore\n        /* \"contracts/modules/SponsorMatrix.sol\":5542:5588  mapping(uint => Income[]) public incomeHistory */\n      0x26\n        /* \"contracts/modules/SponsorMatrix.sol\":756:37257  contract Nanakshahi {... */\n      0x20\n      mstore\n      keccak256(0x00, 0x40)\n      swap1\n      dup2\n      sload\n        /* \"contracts/modules/SponsorMatrix.sol\":5542:5588  mapping(uint => Income[]) public incomeHistory */\n      dup2\n      lt\n      iszero\n      tag_149\n      jumpi\n      tag_411\n      swap2\n      tag_9\n      jump\t// in\n    tag_411:\n      pop\n        /* \"contracts/modules/SponsorMatrix.sol\":756:37257  contract Nanakshahi {... */\n      dup1\n      sload\n        /* \"contracts/modules/SponsorMatrix.sol\":5542:5588  mapping(uint => Income[]) public incomeHistory */\n      0x01\n      dup3\n      add\n        /* \"contracts/modules/SponsorMatrix.sol\":756:37257  contract Nanakshahi {... */\n      sload\n        /* \"contracts/modules/SponsorMatrix.sol\":5542:5588  mapping(uint => Income[]) public incomeHistory */\n      0x02\n      dup4\n      add\n        /* \"contracts/modules/SponsorMatrix.sol\":756:37257  contract Nanakshahi {... */\n      sload\n        /* \"contracts/modules/SponsorMatrix.sol\":5542:5588  mapping(uint => Income[]) public incomeHistory */\n      0x03\n      dup5\n      add\n        /* \"contracts/modules/SponsorMatrix.sol\":756:37257  contract Nanakshahi {... */\n      sload\n      0x04\n        /* \"contracts/modules/SponsorMatrix.sol\":5542:5588  mapping(uint => Income[]) public incomeHistory */\n      swap1\n      swap5\n      add\n        /* \"contracts/modules/SponsorMatrix.sol\":756:37257  contract Nanakshahi {... */\n      sload\n      0x40\n      dup1\n      mload\n      swap5\n      dup6\n      mstore\n      0x20\n      dup6\n      add\n      swap4\n      swap1\n      swap4\n      mstore\n      swap2\n      dup4\n      add\n      mstore\n      0x60\n      dup3\n      add\n      swap3\n      swap1\n      swap3\n      mstore\n      0x80\n      dup2\n      add\n      swap2\n      swap1\n      swap2\n      mstore\n      0xa0\n      swap1\n      return\n    tag_91:\n      jumpi(tag_149, callvalue)\n      jumpi(tag_149, slt(add(not(0x03), calldatasize), 0x20))\n      0x60\n      tag_417\n      calldataload(0x04)\n      tag_26\n      jump\t// in\n    tag_417:\n      swap2\n      swap1\n      0x20\n      mload(0x40)\n      swap4\n      dup5\n      swap3\n      iszero\n      iszero\n      dup4\n      mstore\n      0x40\n      dup3\n      dup5\n      add\n      mstore\n      dup1\n      mload\n      swap2\n      dup3\n      swap2\n      dup3\n      0x40\n      dup7\n      add\n      mstore\n      add\n      dup5\n      dup5\n      add\n      mcopy\n      0x00\n      dup3\n      dup3\n      add\n      dup5\n      add\n      mstore\n      0x1f\n      add\n      not(0x1f)\n      and\n      dup2\n      add\n      sub\n      add\n      swap1\n      return\n    tag_89:\n      jumpi(tag_149, callvalue)\n      tag_420\n      calldatasize\n      tag_7\n      jump\t// in\n    tag_420:\n      swap1\n      0x00\n      mstore\n        /* \"contracts/modules/SponsorMatrix.sol\":5773:5819  mapping(uint => uint[]) public directReferrals */\n      0x29\n        /* \"contracts/modules/SponsorMatrix.sol\":756:37257  contract Nanakshahi {... */\n      0x20\n      mstore\n      keccak256(0x00, 0x40)\n      dup1\n      sload\n        /* \"contracts/modules/SponsorMatrix.sol\":5773:5819  mapping(uint => uint[]) public directReferrals */\n      dup3\n      lt\n      iszero\n      tag_149\n      jumpi\n        /* \"contracts/modules/SponsorMatrix.sol\":756:37257  contract Nanakshahi {... */\n      0x20\n        /* \"contracts/modules/SponsorMatrix.sol\":5773:5819  mapping(uint => uint[]) public directReferrals */\n      swap2\n      tag_268\n      swap2\n      tag_6\n      jump\t// in\n        /* \"contracts/modules/SponsorMatrix.sol\":756:37257  contract Nanakshahi {... */\n    tag_87:\n      jumpi(tag_149, callvalue)\n      tag_426\n      calldatasize\n      tag_1\n      jump\t// in\n    tag_426:\n      swap2\n      0x00\n      mstore\n        /* \"contracts/modules/SponsorMatrix.sol\":5595:5648  mapping(uint => mapping(uint => uint[])) public teams */\n      0x27\n        /* \"contracts/modules/SponsorMatrix.sol\":756:37257  contract Nanakshahi {... */\n      0x20\n      mstore\n      keccak256(0x00, 0x40)\n      swap1\n      0x00\n      mstore\n      0x20\n      mstore\n      keccak256(0x00, 0x40)\n      dup1\n      sload\n        /* \"contracts/modules/SponsorMatrix.sol\":5595:5648  mapping(uint => mapping(uint => uint[])) public teams */\n      dup3\n      lt\n      iszero\n      tag_149\n      jumpi\n        /* \"contracts/modules/SponsorMatrix.sol\":756:37257  contract Nanakshahi {... */\n      0x20\n        /* \"contracts/modules/SponsorMatrix.sol\":5595:5648  mapping(uint => mapping(uint => uint[])) public teams */\n      swap2\n      tag_268\n      swap2\n      tag_6\n      jump\t// in\n        /* \"contracts/modules/SponsorMatrix.sol\":756:37257  contract Nanakshahi {... */\n    tag_85:\n      jumpi(tag_149, callvalue)\n      jumpi(tag_149, slt(add(not(0x03), calldatasize), 0x00))\n      0x20\n      mload(0x40)\n        /* \"contracts/modules/SponsorMatrix.sol\":1260:1262  10 */\n      0x0a\n        /* \"contracts/modules/SponsorMatrix.sol\":756:37257  contract Nanakshahi {... */\n      dup2\n      mstore\n      return\n    tag_83:\n      jumpi(tag_149, callvalue)\n      jumpi(tag_149, slt(add(not(0x03), calldatasize), 0x00))\n      0x20\n        /* \"contracts/modules/SponsorMatrix.sol\":6194:6230  uint public lotteryInterval = 1 days */\n      0x2f\n        /* \"contracts/modules/SponsorMatrix.sol\":756:37257  contract Nanakshahi {... */\n      sload\n      mload(0x40)\n      swap1\n      dup2\n      mstore\n      return\n    tag_81:\n      jumpi(tag_149, callvalue)\n      jumpi(tag_149, slt(add(not(0x03), calldatasize), 0x20))\n      mstore(0x00, calldataload(0x04))\n        /* \"contracts/modules/SponsorMatrix.sol\":5458:5504  mapping(uint => UserIncome) public userIncomes */\n      0x25\n        /* \"contracts/modules/SponsorMatrix.sol\":756:37257  contract Nanakshahi {... */\n      0x20\n      mstore\n      0x0140\n      keccak256(0x00, 0x40)\n      dup1\n      sload\n        /* \"contracts/modules/SponsorMatrix.sol\":5458:5504  mapping(uint => UserIncome) public userIncomes */\n      swap1\n        /* \"contracts/modules/SponsorMatrix.sol\":756:37257  contract Nanakshahi {... */\n      0x01\n        /* \"contracts/modules/SponsorMatrix.sol\":5458:5504  mapping(uint => UserIncome) public userIncomes */\n      dup2\n      add\n        /* \"contracts/modules/SponsorMatrix.sol\":756:37257  contract Nanakshahi {... */\n      sload\n        /* \"contracts/modules/SponsorMatrix.sol\":5458:5504  mapping(uint => UserIncome) public userIncomes */\n      swap1\n      0x02\n      dup2\n      add\n        /* \"contracts/modules/SponsorMatrix.sol\":756:37257  contract Nanakshahi {... */\n      sload\n        /* \"contracts/modules/SponsorMatrix.sol\":5458:5504  mapping(uint => UserIncome) public userIncomes */\n      0x03\n      dup3\n      add\n        /* \"contracts/modules/SponsorMatrix.sol\":756:37257  contract Nanakshahi {... */\n      sload\n      0x04\n        /* \"contracts/modules/SponsorMatrix.sol\":5458:5504  mapping(uint => UserIncome) public userIncomes */\n      dup4\n      add\n        /* \"contracts/modules/SponsorMatrix.sol\":756:37257  contract Nanakshahi {... */\n      sload\n        /* \"contracts/modules/SponsorMatrix.sol\":5458:5504  mapping(uint => UserIncome) public userIncomes */\n      0x05\n      dup5\n      add\n        /* \"contracts/modules/SponsorMatrix.sol\":756:37257  contract Nanakshahi {... */\n      sload\n        /* \"contracts/modules/SponsorMatrix.sol\":5458:5504  mapping(uint => UserIncome) public userIncomes */\n      swap1\n      0x06\n      dup6\n      add\n        /* \"contracts/modules/SponsorMatrix.sol\":756:37257  contract Nanakshahi {... */\n      sload\n        /* \"contracts/modules/SponsorMatrix.sol\":5458:5504  mapping(uint => UserIncome) public userIncomes */\n      swap3\n      0x07\n      dup7\n      add\n        /* \"contracts/modules/SponsorMatrix.sol\":756:37257  contract Nanakshahi {... */\n      sload\n        /* \"contracts/modules/SponsorMatrix.sol\":5458:5504  mapping(uint => UserIncome) public userIncomes */\n      swap5\n      0x09\n      0x08\n      dup9\n      add\n        /* \"contracts/modules/SponsorMatrix.sol\":756:37257  contract Nanakshahi {... */\n      sload\n        /* \"contracts/modules/SponsorMatrix.sol\":5458:5504  mapping(uint => UserIncome) public userIncomes */\n      swap8\n      add\n        /* \"contracts/modules/SponsorMatrix.sol\":756:37257  contract Nanakshahi {... */\n      sload\n      swap8\n      mload(0x40)\n      swap10\n      dup11\n      mstore\n      0x20\n      dup11\n      add\n      mstore\n      0x40\n      dup10\n      add\n      mstore\n      0x60\n      dup9\n      add\n      mstore\n      0x80\n      dup8\n      add\n      mstore\n      0xa0\n      dup7\n      add\n      mstore\n      0xc0\n      dup6\n      add\n      mstore\n      0xe0\n      dup5\n      add\n      mstore\n      0x0100\n      dup4\n      add\n      mstore\n      0x0120\n      dup3\n      add\n      mstore\n      return\n    tag_79:\n      jumpi(tag_149, callvalue)\n      jumpi(tag_149, slt(add(not(0x03), calldatasize), 0x20))\n      calldataload(0x04)\n      dup1\n      0x00\n      mstore\n        /* \"contracts/modules/SponsorMatrix.sol\":22418:22423  users */\n      0x24\n        /* \"contracts/modules/SponsorMatrix.sol\":756:37257  contract Nanakshahi {... */\n      0x20\n      mstore\n      keccak256(0x00, 0x40)\n        /* \"contracts/modules/SponsorMatrix.sol\":22443:22498  require(user.account == msg.sender, \"Not your account\") */\n      tag_446\n        /* \"contracts/modules/SponsorMatrix.sol\":756:37257  contract Nanakshahi {... */\n      0x01\n      dup1\n      0xa0\n      shl\n      sub\n      dup3\n      sload\n      and\n        /* \"contracts/modules/SponsorMatrix.sol\":22467:22477  msg.sender */\n      caller\n        /* \"contracts/modules/SponsorMatrix.sol\":22451:22477  user.account == msg.sender */\n      eq\n        /* \"contracts/modules/SponsorMatrix.sol\":22443:22498  require(user.account == msg.sender, \"Not your account\") */\n      tag_11\n      jump\t// in\n    tag_446:\n        /* \"contracts/modules/SponsorMatrix.sol\":22517:22527  user.level */\n      0x06\n      dup2\n      add\n        /* \"contracts/modules/SponsorMatrix.sol\":756:37257  contract Nanakshahi {... */\n      swap1\n      dup2\n      sload\n        /* \"contracts/modules/SponsorMatrix.sol\":22517:22532  user.level < 15 */\n      swap2\n        /* \"contracts/modules/SponsorMatrix.sol\":22530:22532  15 */\n      0x0f\n        /* \"contracts/modules/SponsorMatrix.sol\":22517:22532  user.level < 15 */\n      dup4\n      lt\n        /* \"contracts/modules/SponsorMatrix.sol\":756:37257  contract Nanakshahi {... */\n      iszero\n      tag_447\n      jumpi\n        /* \"contracts/modules/SponsorMatrix.sol\":22636:22655  packages[nextLevel] */\n      tag_449\n      dup4\n      tag_3\n      jump\t// in\n    tag_449:\n        /* \"contracts/modules/SponsorMatrix.sol\":756:37257  contract Nanakshahi {... */\n      swap1\n      sload\n      0x00\n      dup1\n      sload\n      mload(0x40)\n      shl(0xe0, 0x23b872dd)\n        /* \"contracts/modules/SponsorMatrix.sol\":22723:22781  usdt.transferFrom(msg.sender, address(this), packagePrice) */\n      dup2\n      mstore\n        /* \"contracts/modules/SponsorMatrix.sol\":22467:22477  msg.sender */\n      caller\n        /* \"contracts/modules/SponsorMatrix.sol\":756:37257  contract Nanakshahi {... */\n      0x04\n        /* \"contracts/modules/SponsorMatrix.sol\":22723:22781  usdt.transferFrom(msg.sender, address(this), packagePrice) */\n      dup3\n      add\n        /* \"contracts/modules/SponsorMatrix.sol\":756:37257  contract Nanakshahi {... */\n      mstore\n        /* \"contracts/modules/SponsorMatrix.sol\":22761:22765  this */\n      address\n        /* \"contracts/modules/SponsorMatrix.sol\":756:37257  contract Nanakshahi {... */\n      0x24\n      dup3\n      add\n      mstore\n      0x03\n      swap5\n      swap1\n      swap5\n      shl\n      swap3\n      swap1\n      swap3\n      shr\n      0x44\n      dup5\n      add\n      dup2\n      swap1\n      mstore\n      swap4\n      swap3\n      swap2\n      0x20\n      swap2\n      dup4\n      swap2\n      0x64\n      swap2\n      dup4\n      swap2\n      sub(shl(0xa0, 0x01), 0x01)\n      and\n        /* \"contracts/modules/SponsorMatrix.sol\":22723:22781  usdt.transferFrom(msg.sender, address(this), packagePrice) */\n      gas\n      call\n      dup1\n      iszero\n      tag_161\n      jumpi\n      tag_453\n      jumpi\n        /* \"contracts/modules/SponsorMatrix.sol\":756:37257  contract Nanakshahi {... */\n    tag_454:\n      pop\n      dup1\n      sload\n      swap1\n      0x01\n      dup3\n      add\n      dup1\n      swap3\n      gt\n      tag_199\n      jumpi\n      sstore\n        /* \"contracts/modules/SponsorMatrix.sol\":22828:22845  user.totalDeposit */\n      0x09\n      dup3\n      add\n        /* \"contracts/modules/SponsorMatrix.sol\":22828:22861  user.totalDeposit += packagePrice */\n      tag_457\n        /* \"contracts/modules/SponsorMatrix.sol\":756:37257  contract Nanakshahi {... */\n      dup3\n      dup3\n      sload\n        /* \"contracts/modules/SponsorMatrix.sol\":22828:22861  user.totalDeposit += packagePrice */\n      tag_14\n      jump\t// in\n    tag_457:\n        /* \"contracts/modules/SponsorMatrix.sol\":756:37257  contract Nanakshahi {... */\n      swap1\n      sstore\n        /* \"contracts/modules/SponsorMatrix.sol\":22906:23073  user.deposits.push(Deposit({... */\n      tag_458\n        /* \"contracts/modules/SponsorMatrix.sol\":756:37257  contract Nanakshahi {... */\n      mload(0x40)\n      tag_459\n      dup2\n      tag_15\n      jump\t// in\n    tag_459:\n      dup3\n      dup2\n      mstore\n      0x00\n      0x20\n        /* \"contracts/modules/SponsorMatrix.sol\":22925:23072  Deposit({... */\n      dup3\n      add\n        /* \"contracts/modules/SponsorMatrix.sol\":756:37257  contract Nanakshahi {... */\n      mstore\n        /* \"contracts/modules/SponsorMatrix.sol\":23017:23032  block.timestamp */\n      timestamp\n        /* \"contracts/modules/SponsorMatrix.sol\":756:37257  contract Nanakshahi {... */\n      0x40\n        /* \"contracts/modules/SponsorMatrix.sol\":22925:23072  Deposit({... */\n      dup3\n      add\n        /* \"contracts/modules/SponsorMatrix.sol\":756:37257  contract Nanakshahi {... */\n      mstore\n      0x01\n        /* \"contracts/modules/SponsorMatrix.sol\":22925:23072  Deposit({... */\n      0x60\n      dup3\n      add\n        /* \"contracts/modules/SponsorMatrix.sol\":756:37257  contract Nanakshahi {... */\n      mstore\n      0x01\n        /* \"contracts/modules/SponsorMatrix.sol\":22906:22919  user.deposits */\n      dup5\n      add\n        /* \"contracts/modules/SponsorMatrix.sol\":22906:23073  user.deposits.push(Deposit({... */\n      tag_18\n      jump\t// in\n    tag_458:\n        /* \"contracts/modules/SponsorMatrix.sol\":23154:23155  5 */\n      0x05\n        /* \"contracts/modules/SponsorMatrix.sol\":756:37257  contract Nanakshahi {... */\n      dup2\n      mul\n      dup2\n      iszero\n      swap1\n      dup3\n      dup2\n      div\n        /* \"contracts/modules/SponsorMatrix.sol\":23154:23155  5 */\n      0x05\n        /* \"contracts/modules/SponsorMatrix.sol\":756:37257  contract Nanakshahi {... */\n      eq\n      dup3\n      or\n      iszero\n      tag_199\n      jumpi\n        /* \"contracts/modules/SponsorMatrix.sol\":23314:23316  35 */\n      0x23\n        /* \"contracts/modules/SponsorMatrix.sol\":756:37257  contract Nanakshahi {... */\n      dup4\n      mul\n      dup4\n      dup2\n      div\n        /* \"contracts/modules/SponsorMatrix.sol\":23314:23316  35 */\n      0x23\n        /* \"contracts/modules/SponsorMatrix.sol\":756:37257  contract Nanakshahi {... */\n      eq\n      dup4\n      or\n      iszero\n      tag_199\n      jumpi\n        /* \"contracts/modules/SponsorMatrix.sol\":23429:23441  creatorShare */\n      tag_464\n        /* \"contracts/modules/SponsorMatrix.sol\":756:37257  contract Nanakshahi {... */\n      swap2\n        /* \"contracts/modules/SponsorMatrix.sol\":23355:23369  communityShare */\n      tag_198\n        /* \"contracts/modules/SponsorMatrix.sol\":23158:23161  100 */\n      0x64\n        /* \"contracts/modules/SponsorMatrix.sol\":756:37257  contract Nanakshahi {... */\n      dup1\n      swap4\n      div\n        /* \"contracts/modules/SponsorMatrix.sol\":23355:23369  communityShare */\n      tag_37\n      jump\t// in\n        /* \"contracts/modules/SponsorMatrix.sol\":23429:23441  creatorShare */\n    tag_464:\n        /* \"contracts/modules/SponsorMatrix.sol\":22530:22532  15 */\n      0x0f\n        /* \"contracts/modules/SponsorMatrix.sol\":756:37257  contract Nanakshahi {... */\n      dup3\n      mul\n      swap2\n      dup3\n      div\n        /* \"contracts/modules/SponsorMatrix.sol\":22530:22532  15 */\n      0x0f\n        /* \"contracts/modules/SponsorMatrix.sol\":756:37257  contract Nanakshahi {... */\n      eq\n      or\n      iszero\n      tag_199\n      jumpi\n        /* \"contracts/modules/SponsorMatrix.sol\":23158:23161  100 */\n      0x64\n        /* \"contracts/modules/SponsorMatrix.sol\":756:37257  contract Nanakshahi {... */\n      swap1\n      div\n        /* \"contracts/modules/SponsorMatrix.sol\":23665:23679  user.sponsorId */\n      swap2\n        /* \"contracts/modules/SponsorMatrix.sol\":756:37257  contract Nanakshahi {... */\n      0x04\n        /* \"contracts/modules/SponsorMatrix.sol\":23665:23679  user.sponsorId */\n      dup3\n      add\n        /* \"contracts/modules/SponsorMatrix.sol\":756:37257  contract Nanakshahi {... */\n      sload\n      0x01\n      dup3\n      add\n      swap4\n      dup5\n      dup4\n      gt\n      tag_199\n      jumpi\n        /* \"contracts/modules/SponsorMatrix.sol\":23705:23718  nextLevel + 1 */\n      dup6\n        /* \"contracts/modules/SponsorMatrix.sol\":23154:23155  5 */\n      0x05\n        /* \"contracts/modules/SponsorMatrix.sol\":24014:24023  nextLevel */\n      tag_470\n        /* \"contracts/modules/SponsorMatrix.sol\":23705:23718  nextLevel + 1 */\n      swap6\n      tag_471\n      dup9\n      dup6\n      dup6\n      dup3\n      swap9\n      tag_40\n      jump\t// in\n    tag_471:\n        /* \"contracts/modules/SponsorMatrix.sol\":23810:23823  user.uplineId */\n      add\n        /* \"contracts/modules/SponsorMatrix.sol\":23848:23861  nextLevel + 1 */\n      tag_472\n        /* \"contracts/modules/SponsorMatrix.sol\":756:37257  contract Nanakshahi {... */\n      dup5\n      dup5\n      dup5\n      dup5\n      sload\n        /* \"contracts/modules/SponsorMatrix.sol\":23848:23861  nextLevel + 1 */\n      tag_42\n      jump\t// in\n    tag_472:\n        /* \"contracts/modules/SponsorMatrix.sol\":756:37257  contract Nanakshahi {... */\n      sload\n        /* \"contracts/modules/SponsorMatrix.sol\":24014:24023  nextLevel */\n      tag_43\n      jump\t// in\n    tag_470:\n        /* \"contracts/modules/SponsorMatrix.sol\":756:37257  contract Nanakshahi {... */\n      mload(0x40)\n      swap1\n      dup2\n      mstore\n      0x40\n      0x20\n      dup3\n      add\n      mstore\n      0x04\n      0x40\n      dup3\n      add\n      mstore\n      shl(0xe2, 0x14db1bdd)\n        /* \"contracts/modules/SponsorMatrix.sol\":22925:23072  Deposit({... */\n      0x60\n        /* \"contracts/modules/SponsorMatrix.sol\":756:37257  contract Nanakshahi {... */\n      dup3\n      add\n      mstore\n      mload(0x00)\n      codecopy(0x00, data_92fb4c3df386bc0d49f8847c66cda554c07c2df42e065e03d639278ecf8d94a7, 0x20)\n      mload(0x00)\n      swap1\n      0x00\n      mstore\n      0x80\n        /* \"contracts/modules/SponsorMatrix.sol\":22467:22477  msg.sender */\n      caller\n        /* \"contracts/modules/SponsorMatrix.sol\":24061:24112  Upgrade(msg.sender, _userId, nextLevel + 1, \"Slot\") */\n      swap3\n      log3\n        /* \"contracts/modules/SponsorMatrix.sol\":756:37257  contract Nanakshahi {... */\n      stop\n        /* \"contracts/modules/SponsorMatrix.sol\":22723:22781  usdt.transferFrom(msg.sender, address(this), packagePrice) */\n    tag_453:\n      tag_473\n      swap1\n        /* \"contracts/modules/SponsorMatrix.sol\":756:37257  contract Nanakshahi {... */\n      0x20\n        /* \"contracts/modules/SponsorMatrix.sol\":22723:22781  usdt.transferFrom(msg.sender, address(this), packagePrice) */\n      returndatasize\n        /* \"contracts/modules/SponsorMatrix.sol\":756:37257  contract Nanakshahi {... */\n      0x20\n        /* \"contracts/modules/SponsorMatrix.sol\":22723:22781  usdt.transferFrom(msg.sender, address(this), packagePrice) */\n      gt\n      tag_231\n      jumpi\n      tag_233\n      dup2\n      dup4\n      tag_17\n      jump\t// in\n    tag_473:\n      jump(tag_454)\n        /* \"contracts/modules/SponsorMatrix.sol\":756:37257  contract Nanakshahi {... */\n    tag_447:\n      mload(0x40)\n      shl(0xe5, 0x461bcd)\n      dup2\n      mstore\n      0x20\n      0x04\n      dup3\n      add\n      mstore\n      0x14\n        /* \"contracts/modules/SponsorMatrix.sol\":22418:22423  users */\n      0x24\n        /* \"contracts/modules/SponsorMatrix.sol\":756:37257  contract Nanakshahi {... */\n      dup3\n      add\n      mstore\n      shl(0x62, 0x105b1c9958591e48185d081b585e081b195d995b)\n      0x44\n      dup3\n      add\n      mstore\n      0x64\n      swap1\n      revert\n    tag_77:\n      jumpi(tag_149, callvalue)\n      jumpi(tag_149, slt(add(not(0x03), calldatasize), 0x20))\n      calldataload(0x04)\n      dup1\n      0x00\n      mstore\n        /* \"contracts/modules/SponsorMatrix.sol\":12328:12333  users */\n      0x24\n        /* \"contracts/modules/SponsorMatrix.sol\":756:37257  contract Nanakshahi {... */\n      0x20\n      mstore\n      keccak256(0x00, 0x40)\n        /* \"contracts/modules/SponsorMatrix.sol\":12353:12408  require(user.account == msg.sender, \"Not your account\") */\n      tag_481\n        /* \"contracts/modules/SponsorMatrix.sol\":756:37257  contract Nanakshahi {... */\n      0x01\n      dup1\n      0xa0\n      shl\n      sub\n      dup3\n      sload\n      and\n        /* \"contracts/modules/SponsorMatrix.sol\":12377:12387  msg.sender */\n      caller\n        /* \"contracts/modules/SponsorMatrix.sol\":12361:12387  user.account == msg.sender */\n      eq\n        /* \"contracts/modules/SponsorMatrix.sol\":12353:12408  require(user.account == msg.sender, \"Not your account\") */\n      tag_11\n      jump\t// in\n    tag_481:\n        /* \"contracts/modules/SponsorMatrix.sol\":12427:12441  user.poollevel */\n      0x0a\n      dup2\n      add\n        /* \"contracts/modules/SponsorMatrix.sol\":756:37257  contract Nanakshahi {... */\n      swap1\n      dup2\n      sload\n        /* \"contracts/modules/SponsorMatrix.sol\":12427:12445  user.poollevel < 7 */\n      swap2\n        /* \"contracts/modules/SponsorMatrix.sol\":12444:12445  7 */\n      0x07\n        /* \"contracts/modules/SponsorMatrix.sol\":12427:12445  user.poollevel < 7 */\n      dup4\n      lt\n        /* \"contracts/modules/SponsorMatrix.sol\":12419:12462  require(user.poollevel < 7, \"At max level\") */\n      tag_482\n      dup2\n      tag_21\n      jump\t// in\n    tag_482:\n        /* \"contracts/modules/SponsorMatrix.sol\":756:37257  contract Nanakshahi {... */\n      iszero\n      tag_292\n      jumpi\n        /* \"contracts/modules/SponsorMatrix.sol\":12758:12822  require(user.level >= requiredLevel, \"Upgrade your level first\") */\n      tag_485\n        /* \"contracts/modules/SponsorMatrix.sol\":756:37257  contract Nanakshahi {... */\n      dup4\n        /* \"contracts/modules/SponsorMatrix.sol\":12427:12441  user.poollevel */\n      0x0a\n        /* \"contracts/modules/SponsorMatrix.sol\":756:37257  contract Nanakshahi {... */\n      add\n      sload\n        /* \"contracts/modules/SponsorMatrix.sol\":12766:12776  user.level */\n      0x06\n      dup5\n      add\n        /* \"contracts/modules/SponsorMatrix.sol\":756:37257  contract Nanakshahi {... */\n      sload\n        /* \"contracts/modules/SponsorMatrix.sol\":12766:12793  user.level >= requiredLevel */\n      lt\n      iszero\n        /* \"contracts/modules/SponsorMatrix.sol\":12758:12822  require(user.level >= requiredLevel, \"Upgrade your level first\") */\n      tag_22\n      jump\t// in\n    tag_485:\n        /* \"contracts/modules/SponsorMatrix.sol\":12902:12914  nextPool > 0 */\n      dup3\n        /* \"contracts/modules/SponsorMatrix.sol\":12898:13005  if (nextPool > 0) {... */\n      tag_486\n      jumpi\n        /* \"contracts/modules/SponsorMatrix.sol\":756:37257  contract Nanakshahi {... */\n    tag_487:\n      dup4\n      0x00\n      mstore\n        /* \"contracts/modules/SponsorMatrix.sol\":13024:13035  userHasPool */\n      0x1e\n        /* \"contracts/modules/SponsorMatrix.sol\":756:37257  contract Nanakshahi {... */\n      0x20\n      mstore\n      keccak256(0x00, 0x40)\n      dup4\n      0x00\n      mstore\n      0x20\n      mstore\n        /* \"contracts/modules/SponsorMatrix.sol\":13015:13081  require(!userHasPool[_userId][nextPool], \"Pool already purchased\") */\n      tag_488\n        /* \"contracts/modules/SponsorMatrix.sol\":756:37257  contract Nanakshahi {... */\n      and(sload(keccak256(0x00, 0x40)), 0xff)\n        /* \"contracts/modules/SponsorMatrix.sol\":13023:13054  !userHasPool[_userId][nextPool] */\n      iszero\n        /* \"contracts/modules/SponsorMatrix.sol\":13015:13081  require(!userHasPool[_userId][nextPool], \"Pool already purchased\") */\n      tag_23\n      jump\t// in\n    tag_488:\n        /* \"contracts/modules/SponsorMatrix.sol\":13114:13137  poolPackages[nextLevel] */\n      tag_489\n      dup4\n      tag_2\n      jump\t// in\n    tag_489:\n        /* \"contracts/modules/SponsorMatrix.sol\":756:37257  contract Nanakshahi {... */\n      swap1\n      sload\n      0x00\n      dup1\n      sload\n      mload(0x40)\n      shl(0xe0, 0x23b872dd)\n        /* \"contracts/modules/SponsorMatrix.sol\":13205:13263  usdt.transferFrom(msg.sender, address(this), packagePrice) */\n      dup2\n      mstore\n        /* \"contracts/modules/SponsorMatrix.sol\":12377:12387  msg.sender */\n      caller\n        /* \"contracts/modules/SponsorMatrix.sol\":756:37257  contract Nanakshahi {... */\n      0x04\n        /* \"contracts/modules/SponsorMatrix.sol\":13205:13263  usdt.transferFrom(msg.sender, address(this), packagePrice) */\n      dup3\n      add\n        /* \"contracts/modules/SponsorMatrix.sol\":756:37257  contract Nanakshahi {... */\n      mstore\n        /* \"contracts/modules/SponsorMatrix.sol\":13243:13247  this */\n      address\n        /* \"contracts/modules/SponsorMatrix.sol\":756:37257  contract Nanakshahi {... */\n      0x24\n      dup3\n      add\n      mstore\n      0x03\n      swap5\n      swap1\n      swap5\n      shl\n      swap3\n      swap1\n      swap3\n      shr\n      0x44\n      dup5\n      add\n      dup2\n      swap1\n      mstore\n      swap4\n      swap3\n      swap2\n      0x20\n      swap2\n      dup4\n      swap2\n      0x64\n      swap2\n      dup4\n      swap2\n      sub(shl(0xa0, 0x01), 0x01)\n      and\n        /* \"contracts/modules/SponsorMatrix.sol\":13205:13263  usdt.transferFrom(msg.sender, address(this), packagePrice) */\n      gas\n      call\n      dup1\n      iszero\n      tag_161\n      jumpi\n      tag_493\n      jumpi\n        /* \"contracts/modules/SponsorMatrix.sol\":756:37257  contract Nanakshahi {... */\n    tag_494:\n      pop\n      dup1\n      sload\n      swap3\n      0x01\n      dup5\n      add\n      dup1\n      swap5\n      gt\n      tag_199\n      jumpi\n        /* \"contracts/modules/SponsorMatrix.sol\":13494:13662  user.deposits.push(Deposit({... */\n      tag_497\n        /* \"contracts/modules/SponsorMatrix.sol\":756:37257  contract Nanakshahi {... */\n      swap4\n      0x01\n      swap3\n      sstore\n      dup6\n      0x00\n      mstore\n        /* \"contracts/modules/SponsorMatrix.sol\":13024:13035  userHasPool */\n      0x1e\n        /* \"contracts/modules/SponsorMatrix.sol\":756:37257  contract Nanakshahi {... */\n      0x20\n      mstore\n      keccak256(0x00, 0x40)\n      dup6\n      0x00\n      mstore\n      0x20\n      mstore\n      keccak256(0x00, 0x40)\n      dup3\n      not(0xff)\n      dup3\n      sload\n      and\n      or\n      swap1\n      sstore\n        /* \"contracts/modules/SponsorMatrix.sol\":13362:13378  user.poolDeposit */\n      0x0b\n      dup2\n      add\n        /* \"contracts/modules/SponsorMatrix.sol\":13362:13394  user.poolDeposit += packagePrice */\n      tag_498\n        /* \"contracts/modules/SponsorMatrix.sol\":756:37257  contract Nanakshahi {... */\n      dup5\n      dup3\n      sload\n        /* \"contracts/modules/SponsorMatrix.sol\":13362:13394  user.poolDeposit += packagePrice */\n      tag_14\n      jump\t// in\n    tag_498:\n        /* \"contracts/modules/SponsorMatrix.sol\":756:37257  contract Nanakshahi {... */\n      swap1\n      sstore\n        /* \"contracts/modules/SponsorMatrix.sol\":13438:13450  packagePrice */\n      tag_499\n      dup4\n      dup8\n      dup8\n      tag_35\n      jump\t// in\n    tag_499:\n        /* \"contracts/modules/SponsorMatrix.sol\":756:37257  contract Nanakshahi {... */\n      mload(0x40)\n      swap3\n      tag_500\n      dup5\n      tag_15\n      jump\t// in\n    tag_500:\n      dup4\n      mstore\n      0x00\n      0x20\n        /* \"contracts/modules/SponsorMatrix.sol\":13513:13661  Deposit({... */\n      dup5\n      add\n        /* \"contracts/modules/SponsorMatrix.sol\":756:37257  contract Nanakshahi {... */\n      mstore\n        /* \"contracts/modules/SponsorMatrix.sol\":13605:13620  block.timestamp */\n      timestamp\n        /* \"contracts/modules/SponsorMatrix.sol\":756:37257  contract Nanakshahi {... */\n      0x40\n        /* \"contracts/modules/SponsorMatrix.sol\":13513:13661  Deposit({... */\n      dup5\n      add\n        /* \"contracts/modules/SponsorMatrix.sol\":756:37257  contract Nanakshahi {... */\n      mstore\n        /* \"contracts/modules/SponsorMatrix.sol\":12427:12441  user.poollevel */\n      0x0a\n        /* \"contracts/modules/SponsorMatrix.sol\":13513:13661  Deposit({... */\n      0x60\n      dup5\n      add\n        /* \"contracts/modules/SponsorMatrix.sol\":756:37257  contract Nanakshahi {... */\n      mstore\n        /* \"contracts/modules/SponsorMatrix.sol\":13494:13507  user.deposits */\n      add\n        /* \"contracts/modules/SponsorMatrix.sol\":13494:13662  user.deposits.push(Deposit({... */\n      tag_18\n      jump\t// in\n    tag_497:\n        /* \"contracts/modules/SponsorMatrix.sol\":756:37257  contract Nanakshahi {... */\n      0x01\n      dup2\n      add\n      dup1\n      swap2\n      gt\n      tag_199\n      jumpi\n      mload(0x40)\n      swap1\n      dup2\n      mstore\n      0x40\n      0x20\n      dup3\n      add\n      mstore\n      0x04\n      0x40\n      dup3\n      add\n      mstore\n      shl(0xe2, 0x141bdbdb)\n        /* \"contracts/modules/SponsorMatrix.sol\":13513:13661  Deposit({... */\n      0x60\n        /* \"contracts/modules/SponsorMatrix.sol\":756:37257  contract Nanakshahi {... */\n      dup3\n      add\n      mstore\n      mload(0x00)\n      codecopy(0x00, data_92fb4c3df386bc0d49f8847c66cda554c07c2df42e065e03d639278ecf8d94a7, 0x20)\n      mload(0x00)\n      swap1\n      0x00\n      mstore\n      0x80\n        /* \"contracts/modules/SponsorMatrix.sol\":12377:12387  msg.sender */\n      caller\n        /* \"contracts/modules/SponsorMatrix.sol\":13680:13731  Upgrade(msg.sender, _userId, nextLevel + 1, \"Pool\") */\n      swap3\n      log3\n        /* \"contracts/modules/SponsorMatrix.sol\":756:37257  contract Nanakshahi {... */\n      stop\n        /* \"contracts/modules/SponsorMatrix.sol\":13205:13263  usdt.transferFrom(msg.sender, address(this), packagePrice) */\n    tag_493:\n      tag_503\n      swap1\n        /* \"contracts/modules/SponsorMatrix.sol\":756:37257  contract Nanakshahi {... */\n      0x20\n        /* \"contracts/modules/SponsorMatrix.sol\":13205:13263  usdt.transferFrom(msg.sender, address(this), packagePrice) */\n      returndatasize\n        /* \"contracts/modules/SponsorMatrix.sol\":756:37257  contract Nanakshahi {... */\n      0x20\n        /* \"contracts/modules/SponsorMatrix.sol\":13205:13263  usdt.transferFrom(msg.sender, address(this), packagePrice) */\n      gt\n      tag_231\n      jumpi\n      tag_233\n      dup2\n      dup4\n      tag_17\n      jump\t// in\n    tag_503:\n      jump(tag_494)\n        /* \"contracts/modules/SponsorMatrix.sol\":12898:13005  if (nextPool > 0) {... */\n    tag_486:\n      jump(tag_487)\n        /* \"contracts/modules/SponsorMatrix.sol\":756:37257  contract Nanakshahi {... */\n    tag_75:\n      jumpi(tag_149, callvalue)\n      jumpi(tag_149, slt(add(not(0x03), calldatasize), 0x20))\n      calldataload(0x04)\n        /* \"contracts/modules/SponsorMatrix.sol\":6237:6268  uint[] public registeredUserIds */\n      0x30\n        /* \"contracts/modules/SponsorMatrix.sol\":756:37257  contract Nanakshahi {... */\n      sload\n        /* \"contracts/modules/SponsorMatrix.sol\":6237:6268  uint[] public registeredUserIds */\n      dup2\n      lt\n      iszero\n      tag_149\n      jumpi\n      0x30\n        /* \"contracts/modules/SponsorMatrix.sol\":756:37257  contract Nanakshahi {... */\n      sload\n      dup2\n      lt\n      iszero\n      tag_292\n      jumpi\n        /* \"contracts/modules/SponsorMatrix.sol\":6237:6268  uint[] public registeredUserIds */\n      0x30\n        /* \"contracts/modules/SponsorMatrix.sol\":756:37257  contract Nanakshahi {... */\n      0x00\n      mstore\n      0x6ff97a59c90d62cc7236ba3a37cd85351bf564556780cf8c1157a220f31f0cbb\n      add\n      sload\n      mload(0x40)\n      swap1\n      dup2\n      mstore\n      0x20\n      swap1\n      return\n    tag_73:\n      jumpi(tag_149, callvalue)\n      jumpi(tag_149, slt(add(not(0x03), calldatasize), 0x00))\n      0x20\n      mload(0x40)\n        /* \"contracts/modules/SponsorMatrix.sol\":1201:1203  25 */\n      0x19\n        /* \"contracts/modules/SponsorMatrix.sol\":756:37257  contract Nanakshahi {... */\n      dup2\n      mstore\n      return\n    tag_71:\n      jumpi(tag_149, callvalue)\n      jumpi(tag_149, slt(add(not(0x03), calldatasize), 0x20))\n      mstore(0x00, calldataload(0x04))\n        /* \"contracts/modules/SponsorMatrix.sol\":5417:5451  mapping(uint => User) public users */\n      0x24\n        /* \"contracts/modules/SponsorMatrix.sol\":756:37257  contract Nanakshahi {... */\n      0x20\n      mstore\n      0x01c0\n      keccak256(0x00, 0x40)\n      0x01\n      dup1\n      0xa0\n      shl\n      sub\n      dup2\n      sload\n      and\n        /* \"contracts/modules/SponsorMatrix.sol\":5417:5451  mapping(uint => User) public users */\n      swap1\n      0x02\n      dup2\n      add\n        /* \"contracts/modules/SponsorMatrix.sol\":756:37257  contract Nanakshahi {... */\n      sload\n        /* \"contracts/modules/SponsorMatrix.sol\":5417:5451  mapping(uint => User) public users */\n      swap1\n      0x03\n      dup2\n      add\n        /* \"contracts/modules/SponsorMatrix.sol\":756:37257  contract Nanakshahi {... */\n      sload\n      0x04\n        /* \"contracts/modules/SponsorMatrix.sol\":5417:5451  mapping(uint => User) public users */\n      dup3\n      add\n        /* \"contracts/modules/SponsorMatrix.sol\":756:37257  contract Nanakshahi {... */\n      sload\n        /* \"contracts/modules/SponsorMatrix.sol\":5417:5451  mapping(uint => User) public users */\n      0x05\n      dup4\n      add\n        /* \"contracts/modules/SponsorMatrix.sol\":756:37257  contract Nanakshahi {... */\n      sload\n        /* \"contracts/modules/SponsorMatrix.sol\":5417:5451  mapping(uint => User) public users */\n      0x06\n      dup5\n      add\n        /* \"contracts/modules/SponsorMatrix.sol\":756:37257  contract Nanakshahi {... */\n      sload\n        /* \"contracts/modules/SponsorMatrix.sol\":5417:5451  mapping(uint => User) public users */\n      0x07\n      dup6\n      add\n        /* \"contracts/modules/SponsorMatrix.sol\":756:37257  contract Nanakshahi {... */\n      sload\n        /* \"contracts/modules/SponsorMatrix.sol\":5417:5451  mapping(uint => User) public users */\n      0x08\n      dup7\n      add\n        /* \"contracts/modules/SponsorMatrix.sol\":756:37257  contract Nanakshahi {... */\n      sload\n        /* \"contracts/modules/SponsorMatrix.sol\":5417:5451  mapping(uint => User) public users */\n      swap1\n      0x09\n      dup8\n      add\n        /* \"contracts/modules/SponsorMatrix.sol\":756:37257  contract Nanakshahi {... */\n      sload\n        /* \"contracts/modules/SponsorMatrix.sol\":5417:5451  mapping(uint => User) public users */\n      swap3\n      0x0a\n      dup9\n      add\n        /* \"contracts/modules/SponsorMatrix.sol\":756:37257  contract Nanakshahi {... */\n      sload\n        /* \"contracts/modules/SponsorMatrix.sol\":5417:5451  mapping(uint => User) public users */\n      swap5\n      0x0b\n      dup10\n      add\n        /* \"contracts/modules/SponsorMatrix.sol\":756:37257  contract Nanakshahi {... */\n      sload\n        /* \"contracts/modules/SponsorMatrix.sol\":5417:5451  mapping(uint => User) public users */\n      swap7\n      0x0c\n      dup11\n      add\n        /* \"contracts/modules/SponsorMatrix.sol\":756:37257  contract Nanakshahi {... */\n      sload\n        /* \"contracts/modules/SponsorMatrix.sol\":5417:5451  mapping(uint => User) public users */\n      swap9\n      0x0e\n      0x0d\n      dup13\n      add\n        /* \"contracts/modules/SponsorMatrix.sol\":756:37257  contract Nanakshahi {... */\n      sload\n        /* \"contracts/modules/SponsorMatrix.sol\":5417:5451  mapping(uint => User) public users */\n      swap12\n      add\n        /* \"contracts/modules/SponsorMatrix.sol\":756:37257  contract Nanakshahi {... */\n      sload\n      swap12\n      0x20\n      mload(0x40)\n      swap15\n      dup16\n      swap1\n      dup2\n      mstore\n      add\n      mstore\n      0x40\n      dup14\n      add\n      mstore\n      0x60\n      dup13\n      add\n      mstore\n      0x80\n      dup12\n      add\n      mstore\n      0xa0\n      dup11\n      add\n      mstore\n      0xc0\n      dup10\n      add\n      mstore\n      0xe0\n      dup9\n      add\n      mstore\n      0x0100\n      dup8\n      add\n      mstore\n      0x0120\n      dup7\n      add\n      mstore\n      0x0140\n      dup6\n      add\n      mstore\n      0x0160\n      dup5\n      add\n      mstore\n      0x0180\n      dup4\n      add\n      mstore\n      0x01a0\n      dup3\n      add\n      mstore\n      return\n    tag_69:\n      jumpi(tag_149, callvalue)\n      jumpi(tag_149, slt(add(not(0x03), calldatasize), 0x00))\n      0x20\n      mload(0x40)\n        /* \"contracts/modules/SponsorMatrix.sol\":5926:5930  1e18 */\n      0x0de0b6b3a7640000\n        /* \"contracts/modules/SponsorMatrix.sol\":756:37257  contract Nanakshahi {... */\n      dup2\n      mstore\n      return\n    tag_67:\n      jumpi(tag_149, callvalue)\n      jumpi(tag_149, slt(add(not(0x03), calldatasize), 0x00))\n      0x20\n      mload(0x40)\n        /* \"contracts/modules/SponsorMatrix.sol\":1143:1149  1 days */\n      0x015180\n        /* \"contracts/modules/SponsorMatrix.sol\":756:37257  contract Nanakshahi {... */\n      dup2\n      mstore\n      return\n    tag_65:\n      jumpi(tag_149, callvalue)\n      jumpi(tag_149, slt(add(not(0x03), calldatasize), 0x00))\n      sload(0x00)\n      mload(0x40)\n      sub(shl(0xa0, 0x01), 0x01)\n      swap1\n      swap2\n      and\n      dup2\n      mstore\n      0x20\n      swap1\n      return\n    tag_63:\n      jumpi(tag_149, callvalue)\n      jumpi(tag_149, slt(add(not(0x03), calldatasize), 0x00))\n      0x20\n        /* \"contracts/modules/SponsorMatrix.sol\":6092:6115  uint public lotteryPool */\n      0x2c\n        /* \"contracts/modules/SponsorMatrix.sol\":756:37257  contract Nanakshahi {... */\n      sload\n      mload(0x40)\n      swap1\n      dup2\n      mstore\n      return\n    tag_61:\n      jumpi(tag_149, callvalue)\n      jumpi(tag_149, slt(add(not(0x03), calldatasize), 0x20))\n      0x40\n      tag_543\n      calldataload(0x04)\n      tag_20\n      jump\t// in\n    tag_543:\n      dup3\n      mload\n      swap2\n      dup3\n      mstore\n      0x20\n      dup3\n      add\n      mstore\n      return\n    tag_59:\n      jumpi(tag_149, callvalue)\n      jumpi(tag_149, slt(add(not(0x03), calldatasize), 0x20))\n      calldataload(0x04)\n      0x07\n        /* \"contracts/modules/SponsorMatrix.sol\":2080:2137  uint[7] public minLevelForPool = [3, 5, 7, 9, 11, 13, 15] */\n      dup2\n      lt\n      iszero\n      tag_149\n      jumpi\n        /* \"contracts/modules/SponsorMatrix.sol\":756:37257  contract Nanakshahi {... */\n      0x20\n      swap1\n        /* \"contracts/modules/SponsorMatrix.sol\":2080:2137  uint[7] public minLevelForPool = [3, 5, 7, 9, 11, 13, 15] */\n      0x0a\n        /* \"contracts/modules/SponsorMatrix.sol\":756:37257  contract Nanakshahi {... */\n      add\n      sload\n      mload(0x40)\n      swap1\n      dup2\n      mstore\n      return\n    tag_57:\n      jumpi(tag_149, callvalue)\n      0xffffffff\n      tag_552\n      calldatasize\n      tag_8\n      jump\t// in\n    tag_552:\n      swap2\n      and\n      swap1\n      dup2\n      0x00\n      mstore\n        /* \"contracts/modules/SponsorMatrix.sol\":9670:9675  users */\n      0x24\n        /* \"contracts/modules/SponsorMatrix.sol\":756:37257  contract Nanakshahi {... */\n      0x20\n      mstore\n      keccak256(0x00, 0x40)\n        /* \"contracts/modules/SponsorMatrix.sol\":9691:9746  require(user.account == msg.sender, \"Not your account\") */\n      tag_553\n        /* \"contracts/modules/SponsorMatrix.sol\":756:37257  contract Nanakshahi {... */\n      0x01\n      dup1\n      0xa0\n      shl\n      sub\n      dup3\n      sload\n      and\n        /* \"contracts/modules/SponsorMatrix.sol\":9715:9725  msg.sender */\n      caller\n        /* \"contracts/modules/SponsorMatrix.sol\":9699:9725  user.account == msg.sender */\n      eq\n        /* \"contracts/modules/SponsorMatrix.sol\":9691:9746  require(user.account == msg.sender, \"Not your account\") */\n      tag_11\n      jump\t// in\n    tag_553:\n        /* \"contracts/modules/SponsorMatrix.sol\":9753:9795  require(user.poollevel < 7, \"At max pool\") */\n      tag_554\n        /* \"contracts/modules/SponsorMatrix.sol\":9778:9779  7 */\n      0x07\n        /* \"contracts/modules/SponsorMatrix.sol\":9761:9775  user.poollevel */\n      0x0a\n      dup4\n      add\n        /* \"contracts/modules/SponsorMatrix.sol\":756:37257  contract Nanakshahi {... */\n      sload\n        /* \"contracts/modules/SponsorMatrix.sol\":9761:9779  user.poollevel < 7 */\n      lt\n        /* \"contracts/modules/SponsorMatrix.sol\":9753:9795  require(user.poollevel < 7, \"At max pool\") */\n      tag_12\n      jump\t// in\n    tag_554:\n        /* \"contracts/modules/SponsorMatrix.sol\":9928:9949  poolPackages[_poolId] */\n      tag_555\n      dup3\n      tag_2\n      jump\t// in\n    tag_555:\n        /* \"contracts/modules/SponsorMatrix.sol\":756:37257  contract Nanakshahi {... */\n      swap1\n      sload\n      swap1\n      0x03\n      shl\n      shr\n      dup3\n      0x00\n      mstore\n        /* \"contracts/modules/SponsorMatrix.sol\":9989:10002  userPooltopup */\n      0x19\n        /* \"contracts/modules/SponsorMatrix.sol\":756:37257  contract Nanakshahi {... */\n      0x20\n      mstore\n      keccak256(0x00, 0x40)\n      dup5\n      0x00\n      mstore\n      0x20\n      mstore\n        /* \"contracts/modules/SponsorMatrix.sol\":10035:10049  top.reTopupAmt */\n      0x01\n        /* \"contracts/modules/SponsorMatrix.sol\":756:37257  contract Nanakshahi {... */\n      keccak256(0x00, 0x40)\n        /* \"contracts/modules/SponsorMatrix.sol\":10035:10049  top.reTopupAmt */\n      add\n        /* \"contracts/modules/SponsorMatrix.sol\":756:37257  contract Nanakshahi {... */\n      swap2\n      dup3\n      sload\n        /* \"contracts/modules/SponsorMatrix.sol\":10035:10065  top.reTopupAmt >= packagePrice */\n      swap1\n      dup3\n      dup3\n      lt\n        /* \"contracts/modules/SponsorMatrix.sol\":756:37257  contract Nanakshahi {... */\n      tag_556\n      jumpi\n        /* \"contracts/modules/SponsorMatrix.sol\":10333:10505  user.deposits.push(Deposit({... */\n      tag_558\n        /* \"contracts/modules/SponsorMatrix.sol\":10128:10158  top.reTopupAmt -= packagePrice */\n      swap4\n      tag_559\n      dup5\n        /* \"contracts/modules/SponsorMatrix.sol\":10035:10049  top.reTopupAmt */\n      0x01\n        /* \"contracts/modules/SponsorMatrix.sol\":10128:10158  top.reTopupAmt -= packagePrice */\n      swap5\n      tag_13\n      jump\t// in\n    tag_559:\n        /* \"contracts/modules/SponsorMatrix.sol\":756:37257  contract Nanakshahi {... */\n      swap1\n      sstore\n        /* \"contracts/modules/SponsorMatrix.sol\":10190:10206  user.poolDeposit */\n      0x0b\n      dup2\n      add\n        /* \"contracts/modules/SponsorMatrix.sol\":10190:10222  user.poolDeposit += packagePrice */\n      tag_498\n        /* \"contracts/modules/SponsorMatrix.sol\":756:37257  contract Nanakshahi {... */\n      dup5\n      dup3\n      sload\n        /* \"contracts/modules/SponsorMatrix.sol\":10190:10222  user.poolDeposit += packagePrice */\n      tag_14\n      jump\t// in\n        /* \"contracts/modules/SponsorMatrix.sol\":10333:10505  user.deposits.push(Deposit({... */\n    tag_558:\n        /* \"contracts/modules/SponsorMatrix.sol\":756:37257  contract Nanakshahi {... */\n      mload(0x40)\n      swap1\n      dup2\n      mstore\n      0x40\n      0x20\n      dup3\n      add\n      mstore\n      0x16\n      0x40\n      dup3\n      add\n      mstore\n      shl(0x50, 0x506f6f6c205265546f70757020284561726e696e6729)\n        /* \"contracts/modules/SponsorMatrix.sol\":10352:10504  Deposit({... */\n      0x60\n        /* \"contracts/modules/SponsorMatrix.sol\":756:37257  contract Nanakshahi {... */\n      dup3\n      add\n      mstore\n      mload(0x00)\n      codecopy(0x00, data_92fb4c3df386bc0d49f8847c66cda554c07c2df42e065e03d639278ecf8d94a7, 0x20)\n      mload(0x00)\n      swap1\n      0x00\n      mstore\n      0x80\n        /* \"contracts/modules/SponsorMatrix.sol\":9715:9725  msg.sender */\n      caller\n        /* \"contracts/modules/SponsorMatrix.sol\":10519:10582  Upgrade(msg.sender, _userId, _poolId, \"Pool ReTopup (Earning)\") */\n      swap3\n      log3\n        /* \"contracts/modules/SponsorMatrix.sol\":756:37257  contract Nanakshahi {... */\n      stop\n    tag_556:\n      mload(0x40)\n      shl(0xe5, 0x461bcd)\n      dup2\n      mstore\n      0x20\n      0x04\n      dup3\n      add\n      mstore\n      0x1a\n        /* \"contracts/modules/SponsorMatrix.sol\":9670:9675  users */\n      0x24\n        /* \"contracts/modules/SponsorMatrix.sol\":756:37257  contract Nanakshahi {... */\n      dup3\n      add\n      mstore\n      0x4e6f7420656e6f756768207265546f7075702062616c616e6365000000000000\n      0x44\n      dup3\n      add\n      mstore\n      0x64\n      swap1\n      revert\n    tag_55:\n      jumpi(tag_149, callvalue)\n      jumpi(tag_149, slt(add(not(0x03), calldatasize), 0x20))\n      mstore(0x00, calldataload(0x04))\n        /* \"contracts/modules/SponsorMatrix.sol\":6016:6061  mapping(uint => uint256) public communityDebt */\n      0x2b\n        /* \"contracts/modules/SponsorMatrix.sol\":756:37257  contract Nanakshahi {... */\n      0x20\n      mstore\n      0x20\n      sload(keccak256(0x00, 0x40))\n      mload(0x40)\n      swap1\n      dup2\n      mstore\n      return\n    tag_53:\n      jumpi(tag_149, callvalue)\n      tag_569\n      calldatasize\n      tag_7\n      jump\t// in\n    tag_569:\n      swap1\n      0x00\n      mstore\n        /* \"contracts/modules/SponsorMatrix.sol\":4574:4614  mapping(uint => uint[]) public poolUsers */\n      0x1d\n        /* \"contracts/modules/SponsorMatrix.sol\":756:37257  contract Nanakshahi {... */\n      0x20\n      mstore\n      keccak256(0x00, 0x40)\n      dup1\n      sload\n        /* \"contracts/modules/SponsorMatrix.sol\":4574:4614  mapping(uint => uint[]) public poolUsers */\n      dup3\n      lt\n      iszero\n      tag_149\n      jumpi\n        /* \"contracts/modules/SponsorMatrix.sol\":756:37257  contract Nanakshahi {... */\n      0x20\n        /* \"contracts/modules/SponsorMatrix.sol\":4574:4614  mapping(uint => uint[]) public poolUsers */\n      swap2\n      tag_268\n      swap2\n      tag_6\n      jump\t// in\n        /* \"contracts/modules/SponsorMatrix.sol\":756:37257  contract Nanakshahi {... */\n    tag_51:\n      jumpi(tag_149, callvalue)\n      tag_575\n      calldatasize\n      tag_1\n      jump\t// in\n    tag_575:\n      swap2\n      0x00\n      mstore\n        /* \"contracts/modules/SponsorMatrix.sol\":4831:4899  mapping(uint =>  mapping(uint => uint[])) public userBoosterChildren */\n      0x20\n        /* \"contracts/modules/SponsorMatrix.sol\":756:37257  contract Nanakshahi {... */\n      dup1\n      mstore\n      keccak256(0x00, 0x40)\n      swap1\n      0x00\n      mstore\n        /* \"contracts/modules/SponsorMatrix.sol\":4831:4899  mapping(uint =>  mapping(uint => uint[])) public userBoosterChildren */\n      0x20\n        /* \"contracts/modules/SponsorMatrix.sol\":756:37257  contract Nanakshahi {... */\n      mstore\n      keccak256(0x00, 0x40)\n      dup1\n      sload\n        /* \"contracts/modules/SponsorMatrix.sol\":4831:4899  mapping(uint =>  mapping(uint => uint[])) public userBoosterChildren */\n      dup3\n      lt\n      iszero\n      tag_149\n      jumpi\n      0x20\n      swap2\n      tag_268\n      swap2\n      tag_6\n      jump\t// in\n        /* \"contracts/modules/SponsorMatrix.sol\":756:37257  contract Nanakshahi {... */\n    tag_49:\n      jumpi(tag_149, callvalue)\n      jumpi(tag_149, slt(add(not(0x03), calldatasize), 0x00))\n      0x20\n      mload(0x40)\n        /* \"contracts/modules/SponsorMatrix.sol\":1095:1100  10000 */\n      0x2710\n        /* \"contracts/modules/SponsorMatrix.sol\":756:37257  contract Nanakshahi {... */\n      dup2\n      mstore\n      return\n    tag_47:\n      jumpi(tag_149, callvalue)\n      jumpi(tag_149, slt(add(not(0x03), calldatasize), 0x00))\n      0x20\n      swap1\n        /* \"contracts/modules/SponsorMatrix.sol\":6161:6187  uint public lastLotteryRun */\n      0x2e\n        /* \"contracts/modules/SponsorMatrix.sol\":756:37257  contract Nanakshahi {... */\n      sload\n      dup2\n      mstore\n      return\n    tag_1:\n      0x60\n      swap1\n      not(0x03)\n      add\n      slt\n      tag_149\n      jumpi\n      calldataload(0x04)\n      swap1\n      calldataload(0x24)\n      swap1\n      calldataload(0x44)\n      swap1\n      jump\t// out\n    tag_2:\n        /* \"contracts/modules/SponsorMatrix.sol\":9928:9940  poolPackages */\n      0x08\n        /* \"contracts/modules/SponsorMatrix.sol\":756:37257  contract Nanakshahi {... */\n      sload\n      dup2\n      lt\n      iszero\n      tag_292\n      jumpi\n        /* \"contracts/modules/SponsorMatrix.sol\":9928:9940  poolPackages */\n      0x08\n      0x00\n        /* \"contracts/modules/SponsorMatrix.sol\":756:37257  contract Nanakshahi {... */\n      mstore\n      keccak256(0x00, 0x20)\n      add\n      swap1\n      0x00\n      swap1\n      jump\t// out\n    tag_3:\n        /* \"contracts/modules/SponsorMatrix.sol\":22636:22644  packages */\n      0x07\n        /* \"contracts/modules/SponsorMatrix.sol\":756:37257  contract Nanakshahi {... */\n      sload\n      dup2\n      lt\n      iszero\n      tag_292\n      jumpi\n        /* \"contracts/modules/SponsorMatrix.sol\":22636:22644  packages */\n      0x07\n      0x00\n        /* \"contracts/modules/SponsorMatrix.sol\":756:37257  contract Nanakshahi {... */\n      mstore\n      keccak256(0x00, 0x20)\n      add\n      swap1\n      0x00\n      swap1\n      jump\t// out\n    tag_4:\n        /* \"contracts/modules/SponsorMatrix.sol\":1968:2073  uint[] public GlbBoosterPackages = [ 100e18, 200e18, 400e18, 800e18, 1600e18, 3200e18, 6400e18, 12800e18] */\n      0x09\n        /* \"contracts/modules/SponsorMatrix.sol\":756:37257  contract Nanakshahi {... */\n      sload\n      dup2\n      lt\n      iszero\n      tag_292\n      jumpi\n        /* \"contracts/modules/SponsorMatrix.sol\":1968:2073  uint[] public GlbBoosterPackages = [ 100e18, 200e18, 400e18, 800e18, 1600e18, 3200e18, 6400e18, 12800e18] */\n      0x09\n      0x00\n        /* \"contracts/modules/SponsorMatrix.sol\":756:37257  contract Nanakshahi {... */\n      mstore\n      keccak256(0x00, 0x20)\n      add\n      swap1\n      0x00\n      swap1\n      jump\t// out\n    tag_5:\n        /* \"contracts/modules/SponsorMatrix.sol\":20415:20423  packages */\n      0x07\n        /* \"contracts/modules/SponsorMatrix.sol\":756:37257  contract Nanakshahi {... */\n      sload\n      iszero\n      tag_292\n      jumpi\n        /* \"contracts/modules/SponsorMatrix.sol\":20415:20423  packages */\n      0x07\n        /* \"contracts/modules/SponsorMatrix.sol\":756:37257  contract Nanakshahi {... */\n      0x00\n      swap1\n      dup2\n      mstore\n      0xa66cc928b5edb82af9bd49922954155ab7b0942694bea4ce44661d9a8736c688\n      swap2\n      jump\t// out\n    tag_6:\n      dup1\n      sload\n      dup3\n      lt\n      iszero\n      tag_292\n      jumpi\n      0x00\n      mstore\n      keccak256(0x00, 0x20)\n      add\n      swap1\n      0x00\n      swap1\n      jump\t// out\n    tag_7:\n      0x40\n      swap1\n      not(0x03)\n      add\n      slt\n      tag_149\n      jumpi\n      calldataload(0x04)\n      swap1\n      calldataload(0x24)\n      swap1\n      jump\t// out\n    tag_8:\n      0x40\n      swap1\n      not(0x03)\n      add\n      slt\n      tag_149\n      jumpi\n      calldataload(0x04)\n      0xffffffff\n      dup2\n      and\n      dup2\n      sub\n      tag_149\n      jumpi\n      swap1\n      calldataload(0x24)\n      swap1\n      jump\t// out\n    tag_9:\n      dup1\n      sload\n      dup3\n      lt\n      iszero\n      tag_292\n      jumpi\n      0x00\n      mstore\n      0x05\n      keccak256(0x00, 0x20)\n      swap2\n      mul\n      add\n      swap1\n      0x00\n      swap1\n      jump\t// out\n    tag_11:\n      iszero\n      tag_607\n      jumpi\n      jump\t// out\n    tag_607:\n      mload(0x40)\n      shl(0xe5, 0x461bcd)\n      dup2\n      mstore\n      0x20\n      0x04\n      dup3\n      add\n      mstore\n      0x10\n      0x24\n      dup3\n      add\n      mstore\n      shl(0x82, 0x139bdd081e5bdd5c881858d8dbdd5b9d)\n      0x44\n      dup3\n      add\n      mstore\n      0x64\n      swap1\n      revert\n    tag_12:\n      iszero\n      tag_609\n      jumpi\n      jump\t// out\n    tag_609:\n      mload(0x40)\n      shl(0xe5, 0x461bcd)\n      dup2\n      mstore\n      0x20\n      0x04\n      dup3\n      add\n      mstore\n      0x0b\n      0x24\n      dup3\n      add\n      mstore\n      shl(0xaa, 0x105d081b585e081c1bdbdb)\n      0x44\n      dup3\n      add\n      mstore\n      0x64\n      swap1\n      revert\n    tag_13:\n      swap2\n      swap1\n      dup3\n      sub\n      swap2\n      dup3\n      gt\n      tag_199\n      jumpi\n      jump\t// out\n    tag_14:\n      swap2\n      swap1\n      dup3\n      add\n      dup1\n      swap3\n      gt\n      tag_199\n      jumpi\n      jump\t// out\n    tag_15:\n      0x80\n      dup2\n      add\n      swap1\n      dup2\n      lt\n      0xffffffffffffffff\n      dup3\n      gt\n      or\n      tag_172\n      jumpi\n      0x40\n      mstore\n      jump\t// out\n    tag_16:\n      0xa0\n      dup2\n      add\n      swap1\n      dup2\n      lt\n      0xffffffffffffffff\n      dup3\n      gt\n      or\n      tag_172\n      jumpi\n      0x40\n      mstore\n      jump\t// out\n    tag_17:\n      swap1\n      0x1f\n      dup1\n      not\n      swap2\n      add\n      and\n      dup2\n      add\n      swap1\n      dup2\n      lt\n      0xffffffffffffffff\n      dup3\n      gt\n      or\n      tag_172\n      jumpi\n      0x40\n      mstore\n      jump\t// out\n    tag_18:\n      dup1\n      sload\n      shl(0x40, 0x01)\n      dup2\n      lt\n      iszero\n      tag_172\n      jumpi\n      0x01\n      dup2\n      add\n      dup1\n      dup4\n      sstore\n      dup2\n      lt\n      iszero\n      tag_292\n      jumpi\n      0x03\n      0x60\n      swap2\n      0xff\n      swap4\n      0x00\n      mstore\n      keccak256(0x00, 0x20)\n      swap1\n      0x02\n      shl\n      add\n      dup5\n      mload\n      dup2\n      sstore\n      0x20\n      dup6\n      add\n      mload\n      0x01\n      dup3\n      add\n      sstore\n      0x40\n      dup6\n      add\n      mload\n      0x02\n      dup3\n      add\n      sstore\n      add\n      swap3\n      add\n      mload\n      and\n      not(0xff)\n      dup3\n      sload\n      and\n      or\n      swap1\n      sstore\n      jump\t// out\n    tag_19:\n      dup2\n      iszero\n      tag_625\n      jumpi\n      div\n      swap1\n      jump\t// out\n    tag_625:\n      mstore(0x00, shl(0xe0, 0x4e487b71))\n      mstore(0x04, 0x12)\n      revert(0x00, 0x24)\n        /* \"contracts/modules/SponsorMatrix.sol\":26808:27244  function pendingCommunity(uint _userId) external view returns (uint pendingGross, uint pendingAfterCap) {... */\n    tag_20:\n      swap1\n        /* \"contracts/modules/SponsorMatrix.sol\":756:37257  contract Nanakshahi {... */\n      dup2\n      0x00\n      mstore\n        /* \"contracts/modules/SponsorMatrix.sol\":26927:26932  users */\n      0x24\n        /* \"contracts/modules/SponsorMatrix.sol\":756:37257  contract Nanakshahi {... */\n      0x20\n      mstore\n        /* \"contracts/modules/SponsorMatrix.sol\":26927:26944  users[_userId].id */\n      0x03\n        /* \"contracts/modules/SponsorMatrix.sol\":756:37257  contract Nanakshahi {... */\n      keccak256(0x00, 0x40)\n        /* \"contracts/modules/SponsorMatrix.sol\":26927:26944  users[_userId].id */\n      add\n        /* \"contracts/modules/SponsorMatrix.sol\":756:37257  contract Nanakshahi {... */\n      sload\n        /* \"contracts/modules/SponsorMatrix.sol\":26927:26949  users[_userId].id == 0 */\n      iszero\n        /* \"contracts/modules/SponsorMatrix.sol\":26923:26964  if (users[_userId].id == 0) return (0, 0) */\n      tag_627\n      jumpi\n        /* \"contracts/modules/SponsorMatrix.sol\":26989:27008  communityAccPerUser */\n      0x2a\n        /* \"contracts/modules/SponsorMatrix.sol\":756:37257  contract Nanakshahi {... */\n      sload\n      dup3\n      0x00\n      mstore\n        /* \"contracts/modules/SponsorMatrix.sol\":27034:27047  communityDebt */\n      0x2b\n        /* \"contracts/modules/SponsorMatrix.sol\":756:37257  contract Nanakshahi {... */\n      0x20\n      mstore\n      sload(keccak256(0x00, 0x40))\n        /* \"contracts/modules/SponsorMatrix.sol\":27071:27082  acc <= debt */\n      swap1\n      dup2\n      dup2\n      gt\n      iszero\n        /* \"contracts/modules/SponsorMatrix.sol\":27067:27097  if (acc <= debt) return (0, 0) */\n      tag_629\n      jumpi\n        /* \"contracts/modules/SponsorMatrix.sol\":27122:27132  acc - debt */\n      tag_631\n        /* \"contracts/modules/SponsorMatrix.sol\":27171:27206  _applyGlobalCapping(_userId, gross) */\n      tag_632\n        /* \"contracts/modules/SponsorMatrix.sol\":27122:27132  acc - debt */\n      swap3\n        /* \"contracts/modules/SponsorMatrix.sol\":5926:5930  1e18 */\n      0x0de0b6b3a7640000\n        /* \"contracts/modules/SponsorMatrix.sol\":27122:27132  acc - debt */\n      swap3\n      tag_13\n      jump\t// in\n    tag_631:\n        /* \"contracts/modules/SponsorMatrix.sol\":756:37257  contract Nanakshahi {... */\n      div\n        /* \"contracts/modules/SponsorMatrix.sol\":27171:27206  _applyGlobalCapping(_userId, gross) */\n      dup1\n      swap4\n      tag_36\n      jump\t// in\n    tag_632:\n        /* \"contracts/modules/SponsorMatrix.sol\":26808:27244  function pendingCommunity(uint _userId) external view returns (uint pendingGross, uint pendingAfterCap) {... */\n      swap1\n      jump\t// out\n        /* \"contracts/modules/SponsorMatrix.sol\":27067:27097  if (acc <= debt) return (0, 0) */\n    tag_629:\n        /* \"contracts/modules/SponsorMatrix.sol\":27084:27097  return (0, 0) */\n      pop\n      pop\n      swap1\n      pop\n      0x00\n      swap1\n      0x00\n      swap1\n      jump\t// out\n        /* \"contracts/modules/SponsorMatrix.sol\":26923:26964  if (users[_userId].id == 0) return (0, 0) */\n    tag_627:\n      0x00\n      swap2\n      pop\n      dup2\n      swap1\n        /* \"contracts/modules/SponsorMatrix.sol\":26951:26964  return (0, 0) */\n      jump\t// out\n        /* \"contracts/modules/SponsorMatrix.sol\":756:37257  contract Nanakshahi {... */\n    tag_21:\n      iszero\n      tag_633\n      jumpi\n      jump\t// out\n    tag_633:\n      mload(0x40)\n      shl(0xe5, 0x461bcd)\n      dup2\n      mstore\n      0x20\n      0x04\n      dup3\n      add\n      mstore\n      0x0c\n      0x24\n      dup3\n      add\n      mstore\n      shl(0xa2, 0x105d081b585e081b195d995b)\n      0x44\n      dup3\n      add\n      mstore\n      0x64\n      swap1\n      revert\n    tag_22:\n      iszero\n      tag_635\n      jumpi\n      jump\t// out\n    tag_635:\n      mload(0x40)\n      shl(0xe5, 0x461bcd)\n      dup2\n      mstore\n      0x20\n      0x04\n      dup3\n      add\n      mstore\n      0x18\n      0x24\n      dup3\n      add\n      mstore\n      0x5570677261646520796f7572206c6576656c2066697273740000000000000000\n      0x44\n      dup3\n      add\n      mstore\n      0x64\n      swap1\n      revert\n    tag_23:\n      iszero\n      tag_637\n      jumpi\n      jump\t// out\n    tag_637:\n      mload(0x40)\n      shl(0xe5, 0x461bcd)\n      dup2\n      mstore\n      0x20\n      0x04\n      dup3\n      add\n      mstore\n      0x16\n      0x24\n      dup3\n      add\n      mstore\n      shl(0x52, 0x141bdbdb08185b1c9958591e481c1d5c98da185cd959)\n      0x44\n      dup3\n      add\n      mstore\n      0x64\n      swap1\n      revert\n    tag_24:\n      swap1\n      dup2\n      0x20\n      swap2\n      sub\n      slt\n      tag_149\n      jumpi\n      mload\n      dup1\n      iszero\n      iszero\n      dup2\n      sub\n      tag_149\n      jumpi\n      swap1\n      jump\t// out\n        /* \"contracts/modules/SponsorMatrix.sol\":8878:9561  function canBuyNextPool(uint userId) public view returns (bool eligible, string memory reason) {... */\n    tag_26:\n        /* \"contracts/modules/SponsorMatrix.sol\":756:37257  contract Nanakshahi {... */\n      0x60\n      swap1\n      0x00\n      mstore\n        /* \"contracts/modules/SponsorMatrix.sol\":9004:9009  users */\n      0x24\n        /* \"contracts/modules/SponsorMatrix.sol\":756:37257  contract Nanakshahi {... */\n      0x20\n      mstore\n      keccak256(0x00, 0x40)\n        /* \"contracts/modules/SponsorMatrix.sol\":9044:9058  user.poollevel */\n      0x0a\n      dup2\n      add\n        /* \"contracts/modules/SponsorMatrix.sol\":756:37257  contract Nanakshahi {... */\n      sload\n      swap2\n        /* \"contracts/modules/SponsorMatrix.sol\":9085:9097  poolPackages */\n      0x08\n        /* \"contracts/modules/SponsorMatrix.sol\":756:37257  contract Nanakshahi {... */\n      sload\n        /* \"contracts/modules/SponsorMatrix.sol\":9073:9104  nextPool >= poolPackages.length */\n      dup4\n      lt\n      iszero\n        /* \"contracts/modules/SponsorMatrix.sol\":9069:9186  if (nextPool >= poolPackages.length) {... */\n      tag_643\n      jumpi\n        /* \"contracts/modules/SponsorMatrix.sol\":756:37257  contract Nanakshahi {... */\n      pop\n      0x07\n      dup3\n      lt\n      iszero\n      tag_292\n      jumpi\n        /* \"contracts/modules/SponsorMatrix.sol\":9261:9271  user.level */\n      0x06\n        /* \"contracts/modules/SponsorMatrix.sol\":756:37257  contract Nanakshahi {... */\n      dup3\n        /* \"contracts/modules/SponsorMatrix.sol\":9044:9058  user.poollevel */\n      0x0a\n        /* \"contracts/modules/SponsorMatrix.sol\":756:37257  contract Nanakshahi {... */\n      add\n      sload\n        /* \"contracts/modules/SponsorMatrix.sol\":9261:9271  user.level */\n      swap2\n      add\n        /* \"contracts/modules/SponsorMatrix.sol\":756:37257  contract Nanakshahi {... */\n      sload\n        /* \"contracts/modules/SponsorMatrix.sol\":9261:9287  user.level < requiredLevel */\n      lt\n        /* \"contracts/modules/SponsorMatrix.sol\":9257:9372  if (user.level < requiredLevel) {... */\n      tag_647\n      jumpi\n        /* \"contracts/modules/SponsorMatrix.sol\":9388:9400  nextPool > 0 */\n      iszero\n      iszero\n        /* \"contracts/modules/SponsorMatrix.sol\":9388:9429  nextPool > 0 && user.poollevel < nextPool */\n      dup1\n      tag_649\n      jumpi\n        /* \"contracts/modules/SponsorMatrix.sol\":8878:9561  function canBuyNextPool(uint userId) public view returns (bool eligible, string memory reason) {... */\n    tag_650:\n        /* \"contracts/modules/SponsorMatrix.sol\":9384:9499  if (nextPool > 0 && user.poollevel < nextPool) {... */\n      tag_651\n      jumpi\n        /* \"contracts/modules/SponsorMatrix.sol\":9519:9523  true */\n      0x01\n        /* \"contracts/modules/SponsorMatrix.sol\":756:37257  contract Nanakshahi {... */\n      swap1\n      mload(0x40)\n      tag_653\n      0x40\n      dup3\n      tag_17\n      jump\t// in\n    tag_653:\n      0x19\n      dup2\n      mstore\n      0x456c696769626c6520746f20627579206e65787420706f6f6c00000000000000\n      0x20\n      dup3\n      add\n      mstore\n        /* \"contracts/modules/SponsorMatrix.sol\":8878:9561  function canBuyNextPool(uint userId) public view returns (bool eligible, string memory reason) {... */\n      swap1\n      jump\t// out\n        /* \"contracts/modules/SponsorMatrix.sol\":9384:9499  if (nextPool > 0 && user.poollevel < nextPool) {... */\n    tag_651:\n        /* \"contracts/modules/SponsorMatrix.sol\":756:37257  contract Nanakshahi {... */\n      0x00\n      swap1\n      mload(0x40)\n      tag_654\n      0x40\n      dup3\n      tag_17\n      jump\t// in\n    tag_654:\n      0x17\n      dup2\n      mstore\n      0x4275792070726576696f757320706f6f6c206669727374000000000000000000\n      0x20\n      dup3\n      add\n      mstore\n        /* \"contracts/modules/SponsorMatrix.sol\":9446:9487  return (false, \"Buy previous pool first\") */\n      swap1\n      jump\t// out\n        /* \"contracts/modules/SponsorMatrix.sol\":9388:9429  nextPool > 0 && user.poollevel < nextPool */\n    tag_649:\n      pop\n        /* \"contracts/modules/SponsorMatrix.sol\":756:37257  contract Nanakshahi {... */\n      0x00\n        /* \"contracts/modules/SponsorMatrix.sol\":9388:9429  nextPool > 0 && user.poollevel < nextPool */\n      jump(tag_650)\n        /* \"contracts/modules/SponsorMatrix.sol\":9257:9372  if (user.level < requiredLevel) {... */\n    tag_647:\n        /* \"contracts/modules/SponsorMatrix.sol\":9304:9360  return (false, \"You need to reach a higher level first\") */\n      pop\n        /* \"contracts/modules/SponsorMatrix.sol\":756:37257  contract Nanakshahi {... */\n      0x00\n      swap1\n      mload(0x40)\n      tag_655\n      0x60\n      dup3\n      tag_17\n      jump\t// in\n    tag_655:\n      0x26\n      dup2\n      mstore\n      0x596f75206e65656420746f207265616368206120686967686572206c6576656c\n      0x20\n      dup3\n      add\n      mstore\n      shl(0xd2, 0x08199a5c9cdd)\n      0x40\n      dup3\n      add\n      mstore\n        /* \"contracts/modules/SponsorMatrix.sol\":9304:9360  return (false, \"You need to reach a higher level first\") */\n      swap1\n      jump\t// out\n        /* \"contracts/modules/SponsorMatrix.sol\":9069:9186  if (nextPool >= poolPackages.length) {... */\n    tag_643:\n        /* \"contracts/modules/SponsorMatrix.sol\":9121:9174  return (false, \"You are already at the highest pool\") */\n      swap3\n      swap2\n      pop\n      pop\n        /* \"contracts/modules/SponsorMatrix.sol\":756:37257  contract Nanakshahi {... */\n      0x00\n      swap2\n      tag_656\n      mload(0x40)\n      swap2\n      dup3\n      tag_17\n      jump\t// in\n    tag_656:\n      0x23\n      dup2\n      mstore\n      0x596f752061726520616c72656164792061742074686520686967686573742070\n      0x20\n      dup3\n      add\n      mstore\n      shl(0xea, 0x1bdbdb)\n      0x40\n      dup3\n      add\n      mstore\n        /* \"contracts/modules/SponsorMatrix.sol\":9121:9174  return (false, \"You are already at the highest pool\") */\n      swap1\n      jump\t// out\n        /* \"contracts/modules/SponsorMatrix.sol\":756:37257  contract Nanakshahi {... */\n    tag_28:\n      dup1\n      sload\n      shl(0x40, 0x01)\n      dup2\n      lt\n      iszero\n      tag_172\n      jumpi\n      tag_659\n      swap2\n      0x01\n      dup3\n      add\n      dup2\n      sstore\n      tag_9\n      jump\t// in\n    tag_659:\n      swap2\n      swap1\n      swap2\n      tag_660\n      jumpi\n      dup1\n      mload\n      dup3\n      sstore\n      0x20\n      dup2\n      add\n      mload\n      0x01\n      dup4\n      add\n      sstore\n      0x40\n      dup2\n      add\n      mload\n      0x02\n      dup4\n      add\n      sstore\n      0x60\n      dup2\n      add\n      mload\n      0x03\n      dup4\n      add\n      sstore\n      0x80\n      add\n      mload\n      0x04\n      swap1\n      swap2\n      add\n      sstore\n      jump\t// out\n    tag_662:\n      jump\t// out\n    tag_660:\n      mstore(0x00, shl(0xe0, 0x4e487b71))\n      mstore(0x04, 0x00)\n      revert(0x00, 0x24)\n        /* \"contracts/modules/SponsorMatrix.sol\":25051:26798  function claimCommunity(uint _userId) external {... */\n    tag_30:\n        /* \"contracts/modules/SponsorMatrix.sol\":756:37257  contract Nanakshahi {... */\n      dup1\n      0x00\n      mstore\n        /* \"contracts/modules/SponsorMatrix.sol\":25130:25135  users */\n      0x24\n        /* \"contracts/modules/SponsorMatrix.sol\":756:37257  contract Nanakshahi {... */\n      0x20\n      mstore\n      keccak256(0x00, 0x40)\n        /* \"contracts/modules/SponsorMatrix.sol\":25167:25171  u.id */\n      swap1\n      0x03\n      dup3\n      add\n        /* \"contracts/modules/SponsorMatrix.sol\":756:37257  contract Nanakshahi {... */\n      sload\n        /* \"contracts/modules/SponsorMatrix.sol\":25167:25176  u.id != 0 */\n      iszero\n        /* \"contracts/modules/SponsorMatrix.sol\":756:37257  contract Nanakshahi {... */\n      tag_663\n      jumpi\n        /* \"contracts/modules/SponsorMatrix.sol\":25210:25262  require(u.account == msg.sender, \"Not your account\") */\n      tag_665\n        /* \"contracts/modules/SponsorMatrix.sol\":756:37257  contract Nanakshahi {... */\n      0x01\n      dup1\n      0xa0\n      shl\n      sub\n      dup4\n      sload\n      and\n        /* \"contracts/modules/SponsorMatrix.sol\":25231:25241  msg.sender */\n      caller\n        /* \"contracts/modules/SponsorMatrix.sol\":25218:25241  u.account == msg.sender */\n      eq\n        /* \"contracts/modules/SponsorMatrix.sol\":25210:25262  require(u.account == msg.sender, \"Not your account\") */\n      tag_11\n      jump\t// in\n    tag_665:\n        /* \"contracts/modules/SponsorMatrix.sol\":25359:25378  communityAccPerUser */\n      0x2a\n        /* \"contracts/modules/SponsorMatrix.sol\":756:37257  contract Nanakshahi {... */\n      sload\n      swap2\n      dup2\n      0x00\n      mstore\n        /* \"contracts/modules/SponsorMatrix.sol\":25408:25421  communityDebt */\n      0x2b\n        /* \"contracts/modules/SponsorMatrix.sol\":756:37257  contract Nanakshahi {... */\n      0x20\n      mstore\n      sload(keccak256(0x00, 0x40))\n        /* \"contracts/modules/SponsorMatrix.sol\":25451:25470  accumulated == debt */\n      dup1\n      dup5\n      eq\n        /* \"contracts/modules/SponsorMatrix.sol\":25447:25533  if (accumulated == debt) {... */\n      tag_666\n      jumpi\n        /* \"contracts/modules/SponsorMatrix.sol\":25568:25586  accumulated - debt */\n      tag_668\n        /* \"contracts/modules/SponsorMatrix.sol\":5926:5930  1e18 */\n      0x0de0b6b3a7640000\n        /* \"contracts/modules/SponsorMatrix.sol\":25568:25586  accumulated - debt */\n      swap2\n      dup6\n      tag_13\n      jump\t// in\n    tag_668:\n        /* \"contracts/modules/SponsorMatrix.sol\":756:37257  contract Nanakshahi {... */\n      div\n        /* \"contracts/modules/SponsorMatrix.sol\":25622:25634  accrued == 0 */\n      swap2\n      dup3\n      iszero\n        /* \"contracts/modules/SponsorMatrix.sol\":25618:25751  if (accrued == 0) {... */\n      tag_669\n      jumpi\n        /* \"contracts/modules/SponsorMatrix.sol\":25828:25865  _applyGlobalCapping(_userId, accrued) */\n      tag_671\n      dup4\n      dup3\n      tag_36\n      jump\t// in\n    tag_671:\n        /* \"contracts/modules/SponsorMatrix.sol\":756:37257  contract Nanakshahi {... */\n      swap4\n      dup2\n      0x00\n      mstore\n        /* \"contracts/modules/SponsorMatrix.sol\":25408:25421  communityDebt */\n      0x2b\n        /* \"contracts/modules/SponsorMatrix.sol\":756:37257  contract Nanakshahi {... */\n      0x20\n      mstore\n      keccak256(0x00, 0x40)\n      sstore\n        /* \"contracts/modules/SponsorMatrix.sol\":26012:26019  pay > 0 */\n      dup4\n      dup1\n        /* \"contracts/modules/SponsorMatrix.sol\":26008:26629  if (pay > 0) {... */\n      tag_672\n      jumpi\n        /* \"contracts/modules/SponsorMatrix.sol\":25051:26798  function claimCommunity(uint _userId) external {... */\n    tag_673:\n        /* \"contracts/modules/SponsorMatrix.sol\":26708:26721  accrued > pay */\n      swap2\n      pop\n      pop\n      dup2\n      gt\n        /* \"contracts/modules/SponsorMatrix.sol\":26704:26787  if (accrued > pay) {... */\n      tag_674\n      jumpi\n        /* \"contracts/modules/SponsorMatrix.sol\":25051:26798  function claimCommunity(uint _userId) external {... */\n      pop\n      pop\n      jump\t// out\n        /* \"contracts/modules/SponsorMatrix.sol\":26704:26787  if (accrued > pay) {... */\n    tag_674:\n        /* \"contracts/modules/SponsorMatrix.sol\":26757:26770  accrued - pay */\n      tag_662\n      swap2\n      tag_677\n      swap2\n      tag_13\n      jump\t// in\n    tag_677:\n      tag_38\n      jump\t// in\n        /* \"contracts/modules/SponsorMatrix.sol\":26008:26629  if (pay > 0) {... */\n    tag_672:\n        /* \"contracts/modules/SponsorMatrix.sol\":26559:26588  usdt.transfer(u.account, pay) */\n      tag_678\n        /* \"contracts/modules/SponsorMatrix.sol\":756:37257  contract Nanakshahi {... */\n      swap3\n        /* \"contracts/modules/SponsorMatrix.sol\":26224:26498  incomeHistory[_userId].push(Income({... */\n      tag_679\n        /* \"contracts/modules/SponsorMatrix.sol\":756:37257  contract Nanakshahi {... */\n      dup4\n      0x20\n      swap5\n      0x00\n      mstore\n        /* \"contracts/modules/SponsorMatrix.sol\":26065:26076  userIncomes */\n      0x25\n        /* \"contracts/modules/SponsorMatrix.sol\":756:37257  contract Nanakshahi {... */\n      dup6\n      mstore\n        /* \"contracts/modules/SponsorMatrix.sol\":26145:26164  inc.communityIncome */\n      0x07\n        /* \"contracts/modules/SponsorMatrix.sol\":756:37257  contract Nanakshahi {... */\n      keccak256(0x00, 0x40)\n        /* \"contracts/modules/SponsorMatrix.sol\":26104:26126  inc.totalIncome += pay */\n      tag_680\n        /* \"contracts/modules/SponsorMatrix.sol\":756:37257  contract Nanakshahi {... */\n      dup7\n      dup3\n      sload\n        /* \"contracts/modules/SponsorMatrix.sol\":26104:26126  inc.totalIncome += pay */\n      tag_14\n      jump\t// in\n    tag_680:\n        /* \"contracts/modules/SponsorMatrix.sol\":756:37257  contract Nanakshahi {... */\n      dup2\n      sstore\n        /* \"contracts/modules/SponsorMatrix.sol\":26145:26164  inc.communityIncome */\n      add\n        /* \"contracts/modules/SponsorMatrix.sol\":26145:26171  inc.communityIncome += pay */\n      tag_681\n        /* \"contracts/modules/SponsorMatrix.sol\":756:37257  contract Nanakshahi {... */\n      dup6\n      dup3\n      sload\n        /* \"contracts/modules/SponsorMatrix.sol\":26145:26171  inc.communityIncome += pay */\n      tag_14\n      jump\t// in\n    tag_681:\n        /* \"contracts/modules/SponsorMatrix.sol\":756:37257  contract Nanakshahi {... */\n      swap1\n      sstore\n      dup1\n      0x00\n      mstore\n        /* \"contracts/modules/SponsorMatrix.sol\":26224:26237  incomeHistory */\n      0x26\n        /* \"contracts/modules/SponsorMatrix.sol\":756:37257  contract Nanakshahi {... */\n      dup6\n      mstore\n      keccak256(0x00, 0x40)\n      mload(0x40)\n      swap2\n      tag_682\n      dup4\n      tag_16\n      jump\t// in\n    tag_682:\n      dup3\n      mstore\n        /* \"contracts/modules/SponsorMatrix.sol\":26252:26497  Income({... */\n      dup5\n      dup7\n      dup4\n      add\n        /* \"contracts/modules/SponsorMatrix.sol\":756:37257  contract Nanakshahi {... */\n      mstore\n        /* \"contracts/modules/SponsorMatrix.sol\":26372:26373  1 */\n      0x01\n        /* \"contracts/modules/SponsorMatrix.sol\":756:37257  contract Nanakshahi {... */\n      0x40\n        /* \"contracts/modules/SponsorMatrix.sol\":26252:26497  Income({... */\n      dup4\n      add\n        /* \"contracts/modules/SponsorMatrix.sol\":756:37257  contract Nanakshahi {... */\n      mstore\n        /* \"contracts/modules/SponsorMatrix.sol\":26407:26422  block.timestamp */\n      timestamp\n        /* \"contracts/modules/SponsorMatrix.sol\":26252:26497  Income({... */\n      0x60\n      dup4\n      add\n        /* \"contracts/modules/SponsorMatrix.sol\":756:37257  contract Nanakshahi {... */\n      mstore\n        /* \"contracts/modules/SponsorMatrix.sol\":26457:26458  9 */\n      0x09\n        /* \"contracts/modules/SponsorMatrix.sol\":26252:26497  Income({... */\n      0x80\n      dup4\n      add\n        /* \"contracts/modules/SponsorMatrix.sol\":756:37257  contract Nanakshahi {... */\n      mstore\n        /* \"contracts/modules/SponsorMatrix.sol\":26224:26498  incomeHistory[_userId].push(Income({... */\n      tag_28\n      jump\t// in\n    tag_679:\n      0x00\n        /* \"contracts/modules/SponsorMatrix.sol\":756:37257  contract Nanakshahi {... */\n      dup1\n      sload\n      swap2\n      sload\n      mload(0x40)\n      shl(0xe0, 0xa9059cbb)\n        /* \"contracts/modules/SponsorMatrix.sol\":26559:26588  usdt.transfer(u.account, pay) */\n      dup2\n      mstore\n      sub(shl(0xa0, 0x01), 0x01)\n        /* \"contracts/modules/SponsorMatrix.sol\":756:37257  contract Nanakshahi {... */\n      swap2\n      dup3\n      and\n        /* \"contracts/modules/SponsorMatrix.sol\":26559:26588  usdt.transfer(u.account, pay) */\n      0x04\n      dup3\n      add\n        /* \"contracts/modules/SponsorMatrix.sol\":756:37257  contract Nanakshahi {... */\n      mstore\n      0x24\n      dup2\n      add\n      swap5\n      swap1\n      swap5\n      mstore\n      swap3\n      swap5\n      dup6\n      swap4\n      swap1\n      swap3\n      and\n      swap2\n      dup4\n      swap2\n      swap1\n      dup3\n      swap1\n      0x44\n      dup3\n      add\n      swap1\n      jump\n        /* \"contracts/modules/SponsorMatrix.sol\":26559:26588  usdt.transfer(u.account, pay) */\n    tag_678:\n      sub\n      swap3\n      gas\n      call\n      swap1\n      dup2\n      iszero\n      tag_161\n      jumpi\n      0x00\n      swap2\n      tag_685\n      jumpi\n        /* \"contracts/modules/SponsorMatrix.sol\":26008:26629  if (pay > 0) {... */\n    tag_686:\n        /* \"contracts/modules/SponsorMatrix.sol\":756:37257  contract Nanakshahi {... */\n      pop\n      iszero\n      tag_687\n      jumpi\n        /* \"contracts/modules/SponsorMatrix.sol\":26008:26629  if (pay > 0) {... */\n      0x00\n      dup1\n      dup4\n      jump(tag_673)\n        /* \"contracts/modules/SponsorMatrix.sol\":756:37257  contract Nanakshahi {... */\n    tag_687:\n      mload(0x40)\n      shl(0xe5, 0x461bcd)\n      dup2\n      mstore\n      0x20\n        /* \"contracts/modules/SponsorMatrix.sol\":26559:26588  usdt.transfer(u.account, pay) */\n      0x04\n        /* \"contracts/modules/SponsorMatrix.sol\":756:37257  contract Nanakshahi {... */\n      dup3\n      add\n      mstore\n      0x14\n        /* \"contracts/modules/SponsorMatrix.sol\":25130:25135  users */\n      0x24\n        /* \"contracts/modules/SponsorMatrix.sol\":756:37257  contract Nanakshahi {... */\n      dup3\n      add\n      mstore\n      shl(0x62, 0x1554d115081d1c985b9cd9995c8819985a5b1959)\n      0x44\n      dup3\n      add\n      mstore\n      0x64\n      swap1\n      revert\n        /* \"contracts/modules/SponsorMatrix.sol\":26559:26588  usdt.transfer(u.account, pay) */\n    tag_685:\n      tag_689\n      swap2\n      pop\n        /* \"contracts/modules/SponsorMatrix.sol\":756:37257  contract Nanakshahi {... */\n      0x20\n        /* \"contracts/modules/SponsorMatrix.sol\":26559:26588  usdt.transfer(u.account, pay) */\n      returndatasize\n        /* \"contracts/modules/SponsorMatrix.sol\":756:37257  contract Nanakshahi {... */\n      0x20\n        /* \"contracts/modules/SponsorMatrix.sol\":26559:26588  usdt.transfer(u.account, pay) */\n      gt\n      tag_231\n      jumpi\n      tag_233\n      dup2\n      dup4\n      tag_17\n      jump\t// in\n    tag_689:\n      0x00\n      jump(tag_686)\n        /* \"contracts/modules/SponsorMatrix.sol\":25618:25751  if (accrued == 0) {... */\n    tag_669:\n        /* \"contracts/modules/SponsorMatrix.sol\":756:37257  contract Nanakshahi {... */\n      swap2\n      pop\n      pop\n      0x00\n      mstore\n        /* \"contracts/modules/SponsorMatrix.sol\":25408:25421  communityDebt */\n      0x2b\n        /* \"contracts/modules/SponsorMatrix.sol\":756:37257  contract Nanakshahi {... */\n      0x20\n      mstore\n      keccak256(0x00, 0x40)\n      sstore\n        /* \"contracts/modules/SponsorMatrix.sol\":25729:25736  return; */\n      jump\t// out\n        /* \"contracts/modules/SponsorMatrix.sol\":25447:25533  if (accumulated == debt) {... */\n    tag_666:\n        /* \"contracts/modules/SponsorMatrix.sol\":25491:25498  return; */\n      pop\n      pop\n      pop\n      pop\n      jump\t// out\n        /* \"contracts/modules/SponsorMatrix.sol\":756:37257  contract Nanakshahi {... */\n    tag_663:\n      mload(0x40)\n      shl(0xe5, 0x461bcd)\n      dup2\n      mstore\n      0x20\n      0x04\n      dup3\n      add\n      mstore\n      0x0e\n        /* \"contracts/modules/SponsorMatrix.sol\":25130:25135  users */\n      0x24\n        /* \"contracts/modules/SponsorMatrix.sol\":756:37257  contract Nanakshahi {... */\n      dup3\n      add\n      mstore\n      shl(0x92, 0x155cd95c881b9bdd08199bdd5b99)\n      0x44\n      dup3\n      add\n      mstore\n      0x64\n      swap1\n      revert\n    tag_31:\n      dup1\n      sload\n      shl(0x40, 0x01)\n      dup2\n      lt\n      iszero\n      tag_172\n      jumpi\n      tag_695\n      swap2\n      0x01\n      dup3\n      add\n      dup2\n      sstore\n      tag_6\n      jump\t// in\n    tag_695:\n      dup2\n      swap3\n      swap2\n      sload\n      swap1\n      0x03\n      shl\n      swap2\n      dup3\n      shl\n      swap2\n      not(0x00)\n      swap1\n      shl\n      not\n      and\n      or\n      swap1\n      sstore\n      jump\t// out\n    tag_32:\n      iszero\n      tag_696\n      jumpi\n      jump\t// out\n    tag_696:\n      mload(0x40)\n      shl(0xe5, 0x461bcd)\n      dup2\n      mstore\n      0x20\n      0x04\n      dup3\n      add\n      mstore\n      0x07\n      0x24\n      dup3\n      add\n      mstore\n      shl(0xca, 0x125b9d985b1a59)\n      0x44\n      dup3\n      add\n      mstore\n      0x64\n      swap1\n      revert\n    tag_33:\n      iszero\n      tag_698\n      jumpi\n      jump\t// out\n    tag_698:\n      mload(0x40)\n      shl(0xe5, 0x461bcd)\n      dup2\n      mstore\n      0x20\n      0x04\n      dup3\n      add\n      mstore\n      0x10\n      0x24\n      dup3\n      add\n      mstore\n      shl(0x82, 0x125b98dbdc9c9958dd08185b5bdd5b9d)\n      0x44\n      dup3\n      add\n      mstore\n      0x64\n      swap1\n      revert\n    tag_34:\n      dup1\n      mload\n      dup3\n      lt\n      iszero\n      tag_292\n      jumpi\n      0x20\n      swap2\n      0x05\n      shl\n      add\n      add\n      swap1\n      jump\t// out\n        /* \"contracts/modules/SponsorMatrix.sol\":13753:14797  function _placeInPool(uint256 poolId, uint userMainId, uint packagePrice) private {... */\n    tag_35:\n      swap2\n      swap1\n        /* \"contracts/modules/SponsorMatrix.sol\":13846:13894  require(poolId < poolPackages.length, \"Invalid\") */\n      tag_702\n        /* \"contracts/modules/SponsorMatrix.sol\":13863:13875  poolPackages */\n      0x08\n        /* \"contracts/modules/SponsorMatrix.sol\":756:37257  contract Nanakshahi {... */\n      sload\n        /* \"contracts/modules/SponsorMatrix.sol\":13854:13882  poolId < poolPackages.length */\n      dup5\n      lt\n        /* \"contracts/modules/SponsorMatrix.sol\":13846:13894  require(poolId < poolPackages.length, \"Invalid\") */\n      tag_32\n      jump\t// in\n    tag_702:\n        /* \"contracts/modules/SponsorMatrix.sol\":13905:13967  require(msg.value == poolPackages[poolId], \"Incorrect amount\") */\n      tag_703\n        /* \"contracts/modules/SponsorMatrix.sol\":13926:13946  poolPackages[poolId] */\n      tag_704\n      dup5\n      tag_2\n      jump\t// in\n    tag_704:\n        /* \"contracts/modules/SponsorMatrix.sol\":756:37257  contract Nanakshahi {... */\n      swap1\n      sload\n      swap1\n      0x03\n      shl\n      shr\n        /* \"contracts/modules/SponsorMatrix.sol\":13913:13922  msg.value */\n      callvalue\n        /* \"contracts/modules/SponsorMatrix.sol\":13913:13946  msg.value == poolPackages[poolId] */\n      eq\n        /* \"contracts/modules/SponsorMatrix.sol\":13905:13967  require(msg.value == poolPackages[poolId], \"Incorrect amount\") */\n      tag_33\n      jump\t// in\n    tag_703:\n        /* \"contracts/modules/SponsorMatrix.sol\":756:37257  contract Nanakshahi {... */\n      dup3\n      0x00\n      mstore\n        /* \"contracts/modules/SponsorMatrix.sol\":14006:14015  poolUsers */\n      0x1d\n        /* \"contracts/modules/SponsorMatrix.sol\":756:37257  contract Nanakshahi {... */\n      0x20\n      mstore\n      keccak256(0x00, 0x40)\n      swap3\n      mload(0x40)\n      dup1\n      dup6\n      0x20\n      dup3\n      swap8\n      sload\n      swap4\n      dup5\n      dup2\n      mstore\n      add\n      swap1\n      0x00\n      mstore\n      keccak256(0x00, 0x20)\n      swap3\n      0x00\n    tag_705:\n      dup2\n      dup2\n      lt\n      tag_706\n      jumpi\n      pop\n      pop\n      tag_708\n      swap3\n      pop\n      sub\n      dup6\n      tag_17\n      jump\t// in\n    tag_708:\n      dup4\n      mload\n      swap4\n        /* \"contracts/modules/SponsorMatrix.sol\":14143:14169  defaultRefId + uint(index) */\n      tag_709\n        /* \"contracts/modules/SponsorMatrix.sol\":756:37257  contract Nanakshahi {... */\n      dup6\n        /* \"contracts/modules/SponsorMatrix.sol\":14143:14155  defaultRefId */\n      0x05\n        /* \"contracts/modules/SponsorMatrix.sol\":756:37257  contract Nanakshahi {... */\n      sload\n        /* \"contracts/modules/SponsorMatrix.sol\":14143:14169  defaultRefId + uint(index) */\n      tag_14\n      jump\t// in\n    tag_709:\n        /* \"contracts/modules/SponsorMatrix.sol\":756:37257  contract Nanakshahi {... */\n      swap1\n      dup3\n      0x00\n      mstore\n        /* \"contracts/modules/SponsorMatrix.sol\":14006:14015  poolUsers */\n      0x1d\n        /* \"contracts/modules/SponsorMatrix.sol\":756:37257  contract Nanakshahi {... */\n      0x20\n      mstore\n        /* \"contracts/modules/SponsorMatrix.sol\":14180:14213  poolUsers[poolId].push(newUserId) */\n      tag_710\n        /* \"contracts/modules/SponsorMatrix.sol\":756:37257  contract Nanakshahi {... */\n      dup3\n      keccak256(0x00, 0x40)\n        /* \"contracts/modules/SponsorMatrix.sol\":14180:14213  poolUsers[poolId].push(newUserId) */\n      tag_31\n      jump\t// in\n    tag_710:\n      not(0x00)\n        /* \"contracts/modules/SponsorMatrix.sol\":756:37257  contract Nanakshahi {... */\n      dup7\n      add\n      swap6\n      dup7\n      gt\n      tag_199\n      jumpi\n        /* \"contracts/modules/SponsorMatrix.sol\":14318:14339  usersLen[parentIndex] */\n      tag_713\n        /* \"contracts/modules/SponsorMatrix.sol\":14666:14712  userChildren[poolId][parentId].push(newUserId) */\n      tag_714\n        /* \"contracts/modules/SponsorMatrix.sol\":756:37257  contract Nanakshahi {... */\n      swap2\n      0x03\n        /* \"contracts/modules/SponsorMatrix.sol\":14776:14788  packagePrice */\n      tag_662\n        /* \"contracts/modules/SponsorMatrix.sol\":756:37257  contract Nanakshahi {... */\n      swap9\n      div\n        /* \"contracts/modules/SponsorMatrix.sol\":14318:14339  usersLen[parentIndex] */\n      swap1\n      tag_34\n      jump\t// in\n    tag_713:\n        /* \"contracts/modules/SponsorMatrix.sol\":756:37257  contract Nanakshahi {... */\n      mload\n      swap2\n      tag_716\n      mload(0x40)\n      tag_717\n      dup2\n      tag_16\n      jump\t// in\n    tag_717:\n      dup3\n      dup2\n      mstore\n      0x20\n        /* \"contracts/modules/SponsorMatrix.sol\":14386:14582  UserPool({... */\n      dup1\n      dup3\n      add\n        /* \"contracts/modules/SponsorMatrix.sol\":756:37257  contract Nanakshahi {... */\n      dup9\n      dup2\n      mstore\n      0x40\n        /* \"contracts/modules/SponsorMatrix.sol\":14386:14582  UserPool({... */\n      dup1\n      dup5\n      add\n        /* \"contracts/modules/SponsorMatrix.sol\":756:37257  contract Nanakshahi {... */\n      dup10\n      dup2\n      mstore\n        /* \"contracts/modules/SponsorMatrix.sol\":14386:14582  UserPool({... */\n      0x60\n      dup6\n      add\n        /* \"contracts/modules/SponsorMatrix.sol\":756:37257  contract Nanakshahi {... */\n      dup10\n      dup2\n      mstore\n      0x00\n        /* \"contracts/modules/SponsorMatrix.sol\":14386:14582  UserPool({... */\n      0x80\n      dup8\n      add\n        /* \"contracts/modules/SponsorMatrix.sol\":756:37257  contract Nanakshahi {... */\n      dup2\n      dup2\n      mstore\n      dup13\n      dup3\n      mstore\n        /* \"contracts/modules/SponsorMatrix.sol\":14353:14364  userPooldtl */\n      0x1a\n        /* \"contracts/modules/SponsorMatrix.sol\":756:37257  contract Nanakshahi {... */\n      dup8\n      mstore\n      dup5\n      dup3\n      keccak256\n      dup11\n      dup4\n      mstore\n      swap1\n      swap7\n      mstore\n      swap3\n      swap1\n      swap3\n      keccak256\n      swap5\n      mload\n      dup6\n      sstore\n      swap2\n      mload\n      0x01\n      dup6\n      add\n      sstore\n      swap1\n      mload\n      0x02\n      dup5\n      add\n      sstore\n      mload\n      0x03\n      dup4\n      add\n      sstore\n      mload\n      0x04\n      swap1\n      swap2\n      add\n      sstore\n      jump\n    tag_716:\n      dup4\n      0x00\n      mstore\n        /* \"contracts/modules/SponsorMatrix.sol\":14606:14619  userIdPerPool */\n      0x1c\n        /* \"contracts/modules/SponsorMatrix.sol\":756:37257  contract Nanakshahi {... */\n      0x20\n      mstore\n      keccak256(0x00, 0x40)\n      dup6\n      0x00\n      mstore\n      0x20\n      mstore\n        /* \"contracts/modules/SponsorMatrix.sol\":14606:14655  userIdPerPool[poolId][userMainId].push(newUserId) */\n      tag_718\n        /* \"contracts/modules/SponsorMatrix.sol\":756:37257  contract Nanakshahi {... */\n      dup2\n      keccak256(0x00, 0x40)\n        /* \"contracts/modules/SponsorMatrix.sol\":14606:14655  userIdPerPool[poolId][userMainId].push(newUserId) */\n      tag_31\n      jump\t// in\n    tag_718:\n        /* \"contracts/modules/SponsorMatrix.sol\":756:37257  contract Nanakshahi {... */\n      dup4\n      0x00\n      mstore\n        /* \"contracts/modules/SponsorMatrix.sol\":14666:14678  userChildren */\n      0x1b\n        /* \"contracts/modules/SponsorMatrix.sol\":756:37257  contract Nanakshahi {... */\n      0x20\n      mstore\n      keccak256(0x00, 0x40)\n      dup4\n      0x00\n      mstore\n      0x20\n      mstore\n      keccak256(0x00, 0x40)\n        /* \"contracts/modules/SponsorMatrix.sol\":14666:14712  userChildren[poolId][parentId].push(newUserId) */\n      tag_31\n      jump\t// in\n    tag_714:\n        /* \"contracts/modules/SponsorMatrix.sol\":14776:14788  packagePrice */\n      tag_44\n      jump\t// in\n        /* \"contracts/modules/SponsorMatrix.sol\":756:37257  contract Nanakshahi {... */\n    tag_706:\n      dup5\n      sload\n      dup4\n      mstore\n      0x01\n      swap5\n      dup6\n      add\n      swap5\n      dup10\n      swap5\n      pop\n      0x20\n      swap1\n      swap4\n      add\n      swap3\n      add\n      jump(tag_705)\n        /* \"contracts/modules/SponsorMatrix.sol\":24132:24709  function _applyGlobalCapping(uint _userId, uint _amount) internal view returns (uint) {... */\n    tag_36:\n        /* \"contracts/modules/SponsorMatrix.sol\":756:37257  contract Nanakshahi {... */\n      dup1\n      0x00\n      mstore\n        /* \"contracts/modules/SponsorMatrix.sol\":24245:24250  users */\n      0x24\n        /* \"contracts/modules/SponsorMatrix.sol\":756:37257  contract Nanakshahi {... */\n      0x20\n      mstore\n      keccak256(0x00, 0x40)\n      swap1\n      0x00\n      mstore\n        /* \"contracts/modules/SponsorMatrix.sol\":24294:24305  userIncomes */\n      0x25\n        /* \"contracts/modules/SponsorMatrix.sol\":756:37257  contract Nanakshahi {... */\n      0x20\n      mstore\n      keccak256(0x00, 0x40)\n        /* \"contracts/modules/SponsorMatrix.sol\":24392:24402  user.level */\n      swap1\n      0x06\n      dup2\n      add\n        /* \"contracts/modules/SponsorMatrix.sol\":756:37257  contract Nanakshahi {... */\n      sload\n        /* \"contracts/modules/SponsorMatrix.sol\":24406:24414  packages */\n      0x07\n        /* \"contracts/modules/SponsorMatrix.sol\":756:37257  contract Nanakshahi {... */\n      sload\n        /* \"contracts/modules/SponsorMatrix.sol\":24392:24421  user.level == packages.length */\n      eq\n        /* \"contracts/modules/SponsorMatrix.sol\":24388:24456  if (user.level == packages.length) {... */\n      tag_719\n      jumpi\n        /* \"contracts/modules/SponsorMatrix.sol\":24481:24498  user.totalDeposit */\n      0x09\n      add\n        /* \"contracts/modules/SponsorMatrix.sol\":756:37257  contract Nanakshahi {... */\n      sload\n        /* \"contracts/modules/SponsorMatrix.sol\":1201:1203  25 */\n      0x19\n        /* \"contracts/modules/SponsorMatrix.sol\":756:37257  contract Nanakshahi {... */\n      dup2\n      mul\n      swap1\n      dup1\n      dup3\n      div\n        /* \"contracts/modules/SponsorMatrix.sol\":1201:1203  25 */\n      0x19\n        /* \"contracts/modules/SponsorMatrix.sol\":756:37257  contract Nanakshahi {... */\n      eq\n      swap1\n      iszero\n      or\n      iszero\n      tag_199\n      jumpi\n        /* \"contracts/modules/SponsorMatrix.sol\":1260:1262  10 */\n      0x0a\n        /* \"contracts/modules/SponsorMatrix.sol\":756:37257  contract Nanakshahi {... */\n      swap1\n      div\n      swap1\n      sload\n        /* \"contracts/modules/SponsorMatrix.sol\":24551:24582  income.totalIncome >= maxIncome */\n      dup2\n      dup2\n      lt\n      iszero\n        /* \"contracts/modules/SponsorMatrix.sol\":24547:24592  if (income.totalIncome >= maxIncome) return 0 */\n      tag_723\n      jumpi\n        /* \"contracts/modules/SponsorMatrix.sol\":24618:24648  maxIncome - income.totalIncome */\n      tag_725\n      swap2\n      tag_13\n      jump\t// in\n    tag_725:\n        /* \"contracts/modules/SponsorMatrix.sol\":24662:24705  (_amount > remaining) ? remaining : _amount */\n      swap1\n        /* \"contracts/modules/SponsorMatrix.sol\":24663:24682  _amount > remaining */\n      dup2\n      dup2\n      gt\n      iszero\n      tag_726\n      jumpi\n        /* \"contracts/modules/SponsorMatrix.sol\":24662:24705  (_amount > remaining) ? remaining : _amount */\n      pop\n        /* \"contracts/modules/SponsorMatrix.sol\":24132:24709  function _applyGlobalCapping(uint _userId, uint _amount) internal view returns (uint) {... */\n      swap1\n      jump\t// out\n        /* \"contracts/modules/SponsorMatrix.sol\":24662:24705  (_amount > remaining) ? remaining : _amount */\n    tag_726:\n      swap1\n      pop\n        /* \"contracts/modules/SponsorMatrix.sol\":24132:24709  function _applyGlobalCapping(uint _userId, uint _amount) internal view returns (uint) {... */\n      swap1\n      jump\t// out\n        /* \"contracts/modules/SponsorMatrix.sol\":24547:24592  if (income.totalIncome >= maxIncome) return 0 */\n    tag_723:\n        /* \"contracts/modules/SponsorMatrix.sol\":24584:24592  return 0 */\n      pop\n      pop\n      pop\n        /* \"contracts/modules/SponsorMatrix.sol\":756:37257  contract Nanakshahi {... */\n      0x00\n        /* \"contracts/modules/SponsorMatrix.sol\":24584:24592  return 0 */\n      swap1\n      jump\t// out\n        /* \"contracts/modules/SponsorMatrix.sol\":24388:24456  if (user.level == packages.length) {... */\n    tag_719:\n        /* \"contracts/modules/SponsorMatrix.sol\":24434:24448  return _amount */\n      pop\n      pop\n      swap1\n      jump\t// out\n        /* \"contracts/modules/SponsorMatrix.sol\":24717:25041  function _accrueCommunityBonus(uint _totalAmount) internal {... */\n    tag_37:\n        /* \"contracts/modules/SponsorMatrix.sol\":24796:24813  registeredUserIds */\n      0x30\n        /* \"contracts/modules/SponsorMatrix.sol\":756:37257  contract Nanakshahi {... */\n      sload\n        /* \"contracts/modules/SponsorMatrix.sol\":24835:24841  n == 0 */\n      swap1\n      dup2\n      iszero\n        /* \"contracts/modules/SponsorMatrix.sol\":24835:24862  n == 0 || _totalAmount == 0 */\n      dup1\n      iszero\n      tag_729\n      jumpi\n        /* \"contracts/modules/SponsorMatrix.sol\":24717:25041  function _accrueCommunityBonus(uint _totalAmount) internal {... */\n    tag_730:\n        /* \"contracts/modules/SponsorMatrix.sol\":24831:24966  if (n == 0 || _totalAmount == 0) {... */\n      tag_731\n      jumpi\n        /* \"contracts/modules/SponsorMatrix.sol\":5926:5930  1e18 */\n      0x0de0b6b3a7640000\n        /* \"contracts/modules/SponsorMatrix.sol\":756:37257  contract Nanakshahi {... */\n      dup2\n      mul\n      swap1\n      dup1\n      dup3\n      div\n        /* \"contracts/modules/SponsorMatrix.sol\":5926:5930  1e18 */\n      0x0de0b6b3a7640000\n        /* \"contracts/modules/SponsorMatrix.sol\":756:37257  contract Nanakshahi {... */\n      eq\n      swap1\n      iszero\n      or\n      iszero\n      tag_199\n      jumpi\n        /* \"contracts/modules/SponsorMatrix.sol\":24976:25033  communityAccPerUser += (_totalAmount * ACC_PRECISION) / n */\n      tag_735\n        /* \"contracts/modules/SponsorMatrix.sol\":24999:25033  (_totalAmount * ACC_PRECISION) / n */\n      swap2\n      tag_736\n      swap2\n      tag_19\n      jump\t// in\n    tag_736:\n        /* \"contracts/modules/SponsorMatrix.sol\":24976:25033  communityAccPerUser += (_totalAmount * ACC_PRECISION) / n */\n      0x2a\n        /* \"contracts/modules/SponsorMatrix.sol\":756:37257  contract Nanakshahi {... */\n      sload\n        /* \"contracts/modules/SponsorMatrix.sol\":24976:25033  communityAccPerUser += (_totalAmount * ACC_PRECISION) / n */\n      tag_14\n      jump\t// in\n    tag_735:\n      0x2a\n        /* \"contracts/modules/SponsorMatrix.sol\":756:37257  contract Nanakshahi {... */\n      sstore\n        /* \"contracts/modules/SponsorMatrix.sol\":24717:25041  function _accrueCommunityBonus(uint _totalAmount) internal {... */\n      jump\t// out\n        /* \"contracts/modules/SponsorMatrix.sol\":24831:24966  if (n == 0 || _totalAmount == 0) {... */\n    tag_731:\n        /* \"contracts/modules/SponsorMatrix.sol\":24883:24899  _totalAmount > 0 */\n      dup1\n      swap2\n      pop\n        /* \"contracts/modules/SponsorMatrix.sol\":24879:24934  if (_totalAmount > 0) { _sendToCreator(_totalAmount); } */\n      tag_737\n      jumpi\n        /* \"contracts/modules/SponsorMatrix.sol\":24948:24955  return; */\n      pop\n      jump\t// out\n        /* \"contracts/modules/SponsorMatrix.sol\":24879:24934  if (_totalAmount > 0) { _sendToCreator(_totalAmount); } */\n    tag_737:\n        /* \"contracts/modules/SponsorMatrix.sol\":24918:24930  _totalAmount */\n      tag_662\n      swap1\n      tag_38\n      jump\t// in\n        /* \"contracts/modules/SponsorMatrix.sol\":24835:24862  n == 0 || _totalAmount == 0 */\n    tag_729:\n        /* \"contracts/modules/SponsorMatrix.sol\":24845:24862  _totalAmount == 0 */\n      pop\n      dup1\n      iszero\n        /* \"contracts/modules/SponsorMatrix.sol\":24835:24862  n == 0 || _totalAmount == 0 */\n      jump(tag_730)\n        /* \"contracts/modules/SponsorMatrix.sol\":19506:20112  function _sendToCreator(uint _amount) private {... */\n    tag_38:\n        /* \"contracts/modules/SponsorMatrix.sol\":19567:19580  creatorWallet */\n      0x02\n        /* \"contracts/modules/SponsorMatrix.sol\":756:37257  contract Nanakshahi {... */\n      sload\n      sub(shl(0xa0, 0x01), 0x01)\n      and\n      swap1\n        /* \"contracts/modules/SponsorMatrix.sol\":19567:19594  creatorWallet != address(0) */\n      dup2\n      iszero\n        /* \"contracts/modules/SponsorMatrix.sol\":756:37257  contract Nanakshahi {... */\n      tag_740\n      jumpi\n      0x00\n      dup1\n      sload\n      mload(0x40)\n      shl(0xe0, 0xa9059cbb)\n        /* \"contracts/modules/SponsorMatrix.sol\":19713:19750  usdt.transfer(creatorWallet, _amount) */\n      dup2\n      mstore\n      sub(shl(0xa0, 0x01), 0x01)\n        /* \"contracts/modules/SponsorMatrix.sol\":756:37257  contract Nanakshahi {... */\n      swap5\n      dup6\n      and\n        /* \"contracts/modules/SponsorMatrix.sol\":19713:19750  usdt.transfer(creatorWallet, _amount) */\n      0x04\n      dup3\n      add\n        /* \"contracts/modules/SponsorMatrix.sol\":756:37257  contract Nanakshahi {... */\n      mstore\n      0x24\n      dup2\n      add\n      dup5\n      swap1\n      mstore\n      swap4\n        /* \"contracts/modules/SponsorMatrix.sol\":19713:19750  usdt.transfer(creatorWallet, _amount) */\n      0x20\n      swap3\n        /* \"contracts/modules/SponsorMatrix.sol\":756:37257  contract Nanakshahi {... */\n      dup6\n      swap3\n      0x44\n      swap3\n      dup5\n      swap3\n      swap2\n      and\n        /* \"contracts/modules/SponsorMatrix.sol\":19713:19750  usdt.transfer(creatorWallet, _amount) */\n      gas\n      call\n      swap2\n      dup3\n      iszero\n      tag_161\n      jumpi\n        /* \"contracts/modules/SponsorMatrix.sol\":19922:20108  incomeHistory[defaultRefId].push(Income({... */\n      tag_662\n        /* \"contracts/modules/SponsorMatrix.sol\":19713:19750  usdt.transfer(creatorWallet, _amount) */\n      swap3\n      tag_746\n      jumpi\n        /* \"contracts/modules/SponsorMatrix.sol\":19506:20112  function _sendToCreator(uint _amount) private {... */\n    tag_747:\n        /* \"contracts/modules/SponsorMatrix.sol\":756:37257  contract Nanakshahi {... */\n      pop\n        /* \"contracts/modules/SponsorMatrix.sol\":19857:19869  defaultRefId */\n      0x05\n        /* \"contracts/modules/SponsorMatrix.sol\":756:37257  contract Nanakshahi {... */\n      sload\n      0x00\n      mstore\n        /* \"contracts/modules/SponsorMatrix.sol\":19845:19856  userIncomes */\n      0x25\n        /* \"contracts/modules/SponsorMatrix.sol\":19713:19750  usdt.transfer(creatorWallet, _amount) */\n      0x20\n        /* \"contracts/modules/SponsorMatrix.sol\":756:37257  contract Nanakshahi {... */\n      mstore\n      keccak256(0x00, 0x40)\n        /* \"contracts/modules/SponsorMatrix.sol\":19877:19913  creatorIncome.totalIncome += _amount */\n      tag_748\n        /* \"contracts/modules/SponsorMatrix.sol\":756:37257  contract Nanakshahi {... */\n      dup3\n      dup3\n      sload\n        /* \"contracts/modules/SponsorMatrix.sol\":19877:19913  creatorIncome.totalIncome += _amount */\n      tag_14\n      jump\t// in\n    tag_748:\n        /* \"contracts/modules/SponsorMatrix.sol\":756:37257  contract Nanakshahi {... */\n      swap1\n      sstore\n        /* \"contracts/modules/SponsorMatrix.sol\":19857:19869  defaultRefId */\n      0x05\n        /* \"contracts/modules/SponsorMatrix.sol\":756:37257  contract Nanakshahi {... */\n      sload\n      0x00\n      mstore\n        /* \"contracts/modules/SponsorMatrix.sol\":19922:19935  incomeHistory */\n      0x26\n        /* \"contracts/modules/SponsorMatrix.sol\":19713:19750  usdt.transfer(creatorWallet, _amount) */\n      0x20\n        /* \"contracts/modules/SponsorMatrix.sol\":756:37257  contract Nanakshahi {... */\n      mstore\n      keccak256(0x00, 0x40)\n      mload(0x40)\n      swap2\n      tag_749\n      dup4\n      tag_16\n      jump\t// in\n    tag_749:\n      0x00\n      dup4\n      mstore\n        /* \"contracts/modules/SponsorMatrix.sol\":19713:19750  usdt.transfer(creatorWallet, _amount) */\n      0x20\n        /* \"contracts/modules/SponsorMatrix.sol\":19955:20107  Income({... */\n      dup4\n      add\n        /* \"contracts/modules/SponsorMatrix.sol\":756:37257  contract Nanakshahi {... */\n      mstore\n      0x00\n      0x40\n        /* \"contracts/modules/SponsorMatrix.sol\":19955:20107  Income({... */\n      dup4\n      add\n        /* \"contracts/modules/SponsorMatrix.sol\":756:37257  contract Nanakshahi {... */\n      mstore\n        /* \"contracts/modules/SponsorMatrix.sol\":20060:20075  block.timestamp */\n      timestamp\n        /* \"contracts/modules/SponsorMatrix.sol\":19955:20107  Income({... */\n      0x60\n      dup4\n      add\n        /* \"contracts/modules/SponsorMatrix.sol\":756:37257  contract Nanakshahi {... */\n      mstore\n        /* \"contracts/modules/SponsorMatrix.sol\":19857:19869  defaultRefId */\n      0x05\n        /* \"contracts/modules/SponsorMatrix.sol\":19955:20107  Income({... */\n      0x80\n      dup4\n      add\n        /* \"contracts/modules/SponsorMatrix.sol\":756:37257  contract Nanakshahi {... */\n      mstore\n        /* \"contracts/modules/SponsorMatrix.sol\":19922:20108  incomeHistory[defaultRefId].push(Income({... */\n      tag_28\n      jump\t// in\n        /* \"contracts/modules/SponsorMatrix.sol\":19713:19750  usdt.transfer(creatorWallet, _amount) */\n    tag_746:\n      tag_750\n      swap1\n      0x20\n      jumpi(tag_231, gt(0x20, returndatasize))\n      tag_233\n      dup2\n      dup4\n      tag_17\n      jump\t// in\n    tag_750:\n      jump(tag_747)\n        /* \"contracts/modules/SponsorMatrix.sol\":756:37257  contract Nanakshahi {... */\n    tag_740:\n      mload(0x40)\n      shl(0xe5, 0x461bcd)\n      dup2\n      mstore\n      0x20\n      0x04\n      dup3\n      add\n      mstore\n      0x11\n      0x24\n      dup3\n      add\n      mstore\n      shl(0x7a, 0x199959481859191c9cc81b9bdd081cd95d)\n      0x44\n      dup3\n      add\n      mstore\n      0x64\n      swap1\n      revert\n        /* \"contracts/modules/SponsorMatrix.sol\":28765:30041  function _distributeSponsorIncome(uint _sponsorId, uint _fromId, uint _amount, uint _packageLevel) private {... */\n    tag_39:\n        /* \"contracts/modules/SponsorMatrix.sol\":28887:28902  _sponsorId == 0 */\n      dup1\n      iszero\n        /* \"contracts/modules/SponsorMatrix.sol\":28887:28932  _sponsorId == 0 || _sponsorId == defaultRefId */\n      dup1\n      iszero\n      tag_754\n      jumpi\n        /* \"contracts/modules/SponsorMatrix.sol\":28765:30041  function _distributeSponsorIncome(uint _sponsorId, uint _fromId, uint _amount, uint _packageLevel) private {... */\n    tag_755:\n        /* \"contracts/modules/SponsorMatrix.sol\":28883:29005  if (_sponsorId == 0 || _sponsorId == defaultRefId) {... */\n      tag_756\n      jumpi\n        /* \"contracts/modules/SponsorMatrix.sol\":28901:28902  0 */\n      0x00\n        /* \"contracts/modules/SponsorMatrix.sol\":756:37257  contract Nanakshahi {... */\n      dup2\n      dup2\n      mstore\n        /* \"contracts/modules/SponsorMatrix.sol\":29048:29053  users */\n      0x24\n        /* \"contracts/modules/SponsorMatrix.sol\":756:37257  contract Nanakshahi {... */\n      0x20\n      dup2\n      dup2\n      mstore\n      0x40\n      dup1\n      dup5\n      keccak256\n      dup5\n      sload\n      dup2\n      sload\n      swap3\n      mload\n      shl(0xe0, 0xa9059cbb)\n        /* \"contracts/modules/SponsorMatrix.sol\":29298:29337  usdt.transfer(sponsor.account, _amount) */\n      dup2\n      mstore\n      sub(shl(0xa0, 0x01), 0x01)\n        /* \"contracts/modules/SponsorMatrix.sol\":756:37257  contract Nanakshahi {... */\n      swap4\n      dup5\n      and\n        /* \"contracts/modules/SponsorMatrix.sol\":29298:29337  usdt.transfer(sponsor.account, _amount) */\n      0x04\n      dup3\n      add\n        /* \"contracts/modules/SponsorMatrix.sol\":756:37257  contract Nanakshahi {... */\n      mstore\n      swap5\n      dup6\n      add\n      dup10\n      swap1\n      mstore\n      swap1\n      swap6\n      swap5\n      dup5\n      swap3\n      0x44\n      swap3\n      dup5\n      swap3\n        /* \"contracts/modules/SponsorMatrix.sol\":28901:28902  0 */\n      swap2\n        /* \"contracts/modules/SponsorMatrix.sol\":756:37257  contract Nanakshahi {... */\n      and\n        /* \"contracts/modules/SponsorMatrix.sol\":29298:29337  usdt.transfer(sponsor.account, _amount) */\n      gas\n      call\n      dup1\n      iszero\n      tag_161\n      jumpi\n      tag_761\n      jumpi\n        /* \"contracts/modules/SponsorMatrix.sol\":28765:30041  function _distributeSponsorIncome(uint _sponsorId, uint _fromId, uint _amount, uint _packageLevel) private {... */\n    tag_762:\n        /* \"contracts/modules/SponsorMatrix.sol\":756:37257  contract Nanakshahi {... */\n      pop\n      dup1\n        /* \"contracts/modules/SponsorMatrix.sol\":28901:28902  0 */\n      0x00\n        /* \"contracts/modules/SponsorMatrix.sol\":756:37257  contract Nanakshahi {... */\n      mstore\n        /* \"contracts/modules/SponsorMatrix.sol\":29451:29462  userIncomes */\n      0x25\n        /* \"contracts/modules/SponsorMatrix.sol\":756:37257  contract Nanakshahi {... */\n      0x20\n      mstore\n        /* \"contracts/modules/SponsorMatrix.sol\":20799:20800  1 */\n      0x01\n        /* \"contracts/modules/SponsorMatrix.sol\":756:37257  contract Nanakshahi {... */\n      0x40\n        /* \"contracts/modules/SponsorMatrix.sol\":28901:28902  0 */\n      0x00\n        /* \"contracts/modules/SponsorMatrix.sol\":756:37257  contract Nanakshahi {... */\n      keccak256\n        /* \"contracts/modules/SponsorMatrix.sol\":29489:29525  sponsorIncome.totalIncome += _amount */\n      tag_763\n        /* \"contracts/modules/SponsorMatrix.sol\":756:37257  contract Nanakshahi {... */\n      dup7\n      dup3\n      sload\n        /* \"contracts/modules/SponsorMatrix.sol\":29489:29525  sponsorIncome.totalIncome += _amount */\n      tag_14\n      jump\t// in\n    tag_763:\n        /* \"contracts/modules/SponsorMatrix.sol\":756:37257  contract Nanakshahi {... */\n      dup2\n      sstore\n        /* \"contracts/modules/SponsorMatrix.sol\":29540:29567  sponsorIncome.sponsorIncome */\n      add\n        /* \"contracts/modules/SponsorMatrix.sol\":29540:29578  sponsorIncome.sponsorIncome += _amount */\n      tag_764\n        /* \"contracts/modules/SponsorMatrix.sol\":756:37257  contract Nanakshahi {... */\n      dup6\n      dup3\n      sload\n        /* \"contracts/modules/SponsorMatrix.sol\":29540:29578  sponsorIncome.sponsorIncome += _amount */\n      tag_14\n      jump\t// in\n    tag_764:\n        /* \"contracts/modules/SponsorMatrix.sol\":756:37257  contract Nanakshahi {... */\n      swap1\n      sstore\n        /* \"contracts/modules/SponsorMatrix.sol\":28901:28902  0 */\n      0x00\n        /* \"contracts/modules/SponsorMatrix.sol\":756:37257  contract Nanakshahi {... */\n      mstore\n        /* \"contracts/modules/SponsorMatrix.sol\":29637:29650  incomeHistory */\n      0x26\n        /* \"contracts/modules/SponsorMatrix.sol\":756:37257  contract Nanakshahi {... */\n      0x20\n      mstore\n        /* \"contracts/modules/SponsorMatrix.sol\":29637:29905  incomeHistory[_sponsorId].push(Income({... */\n      tag_765\n        /* \"contracts/modules/SponsorMatrix.sol\":756:37257  contract Nanakshahi {... */\n      0x40\n        /* \"contracts/modules/SponsorMatrix.sol\":28901:28902  0 */\n      0x00\n        /* \"contracts/modules/SponsorMatrix.sol\":756:37257  contract Nanakshahi {... */\n      keccak256\n      mload(0x40)\n      swap1\n      tag_766\n      dup3\n      tag_16\n      jump\t// in\n    tag_766:\n      dup5\n      dup3\n      mstore\n        /* \"contracts/modules/SponsorMatrix.sol\":29668:29904  Income({... */\n      dup6\n        /* \"contracts/modules/SponsorMatrix.sol\":756:37257  contract Nanakshahi {... */\n      0x20\n        /* \"contracts/modules/SponsorMatrix.sol\":29668:29904  Income({... */\n      dup4\n      add\n        /* \"contracts/modules/SponsorMatrix.sol\":756:37257  contract Nanakshahi {... */\n      mstore\n        /* \"contracts/modules/SponsorMatrix.sol\":20799:20800  1 */\n      0x01\n        /* \"contracts/modules/SponsorMatrix.sol\":756:37257  contract Nanakshahi {... */\n      0x40\n        /* \"contracts/modules/SponsorMatrix.sol\":29668:29904  Income({... */\n      dup4\n      add\n        /* \"contracts/modules/SponsorMatrix.sol\":756:37257  contract Nanakshahi {... */\n      mstore\n        /* \"contracts/modules/SponsorMatrix.sol\":29823:29838  block.timestamp */\n      timestamp\n        /* \"contracts/modules/SponsorMatrix.sol\":29668:29904  Income({... */\n      0x60\n      dup4\n      add\n        /* \"contracts/modules/SponsorMatrix.sol\":756:37257  contract Nanakshahi {... */\n      mstore\n        /* \"contracts/modules/SponsorMatrix.sol\":20799:20800  1 */\n      0x01\n        /* \"contracts/modules/SponsorMatrix.sol\":29668:29904  Income({... */\n      0x80\n      dup4\n      add\n        /* \"contracts/modules/SponsorMatrix.sol\":756:37257  contract Nanakshahi {... */\n      mstore\n        /* \"contracts/modules/SponsorMatrix.sol\":29637:29905  incomeHistory[_sponsorId].push(Income({... */\n      tag_28\n      jump\t// in\n    tag_765:\n        /* \"contracts/modules/SponsorMatrix.sol\":756:37257  contract Nanakshahi {... */\n      0x01\n      dup1\n      0xa0\n      shl\n      sub\n      swap1\n      sload\n      and\n      swap1\n        /* \"contracts/modules/SponsorMatrix.sol\":28901:28902  0 */\n      0x00\n        /* \"contracts/modules/SponsorMatrix.sol\":756:37257  contract Nanakshahi {... */\n      mstore\n        /* \"contracts/modules/SponsorMatrix.sol\":29048:29053  users */\n      0x24\n        /* \"contracts/modules/SponsorMatrix.sol\":756:37257  contract Nanakshahi {... */\n      0x20\n      mstore\n      mload(0x00)\n      codecopy(0x00, data_51678340555b44277c2bba9423d75ebead61331b9cde789c13d0820d4f537e29, 0x20)\n      mload(0x00)\n      swap1\n      0x00\n      mstore\n        /* \"contracts/modules/SponsorMatrix.sol\":29668:29904  Income({... */\n      0x60\n        /* \"contracts/modules/SponsorMatrix.sol\":756:37257  contract Nanakshahi {... */\n      0x01\n      dup1\n      0xa0\n      shl\n      sub\n      0x40\n        /* \"contracts/modules/SponsorMatrix.sol\":28901:28902  0 */\n      0x00\n        /* \"contracts/modules/SponsorMatrix.sol\":756:37257  contract Nanakshahi {... */\n      keccak256\n      sload\n      and\n      swap4\n      mload(0x40)\n      swap1\n      dup2\n      mstore\n        /* \"contracts/modules/SponsorMatrix.sol\":20799:20800  1 */\n      0x01\n        /* \"contracts/modules/SponsorMatrix.sol\":756:37257  contract Nanakshahi {... */\n      0x20\n      dup3\n      add\n      mstore\n        /* \"contracts/modules/SponsorMatrix.sol\":20799:20800  1 */\n      0x01\n        /* \"contracts/modules/SponsorMatrix.sol\":756:37257  contract Nanakshahi {... */\n      0x40\n      dup3\n      add\n      mstore\n        /* \"contracts/modules/SponsorMatrix.sol\":29939:30024  IncomeDistributed(sponsor.account, users[_fromId].account, _amount, _packageLevel, 1) */\n      log3\n        /* \"contracts/modules/SponsorMatrix.sol\":28765:30041  function _distributeSponsorIncome(uint _sponsorId, uint _fromId, uint _amount, uint _packageLevel) private {... */\n      jump\t// out\n        /* \"contracts/modules/SponsorMatrix.sol\":29298:29337  usdt.transfer(sponsor.account, _amount) */\n    tag_761:\n      tag_767\n      swap1\n        /* \"contracts/modules/SponsorMatrix.sol\":756:37257  contract Nanakshahi {... */\n      0x20\n        /* \"contracts/modules/SponsorMatrix.sol\":29298:29337  usdt.transfer(sponsor.account, _amount) */\n      returndatasize\n        /* \"contracts/modules/SponsorMatrix.sol\":756:37257  contract Nanakshahi {... */\n      0x20\n        /* \"contracts/modules/SponsorMatrix.sol\":29298:29337  usdt.transfer(sponsor.account, _amount) */\n      gt\n      tag_231\n      jumpi\n      tag_233\n      dup2\n      dup4\n      tag_17\n      jump\t// in\n    tag_767:\n      jump(tag_762)\n        /* \"contracts/modules/SponsorMatrix.sol\":28883:29005  if (_sponsorId == 0 || _sponsorId == defaultRefId) {... */\n    tag_756:\n        /* \"contracts/modules/SponsorMatrix.sol\":28964:28971  _amount */\n      pop\n      pop\n      tag_662\n      swap1\n      tag_38\n      jump\t// in\n        /* \"contracts/modules/SponsorMatrix.sol\":28887:28932  _sponsorId == 0 || _sponsorId == defaultRefId */\n    tag_754:\n        /* \"contracts/modules/SponsorMatrix.sol\":756:37257  contract Nanakshahi {... */\n      pop\n        /* \"contracts/modules/SponsorMatrix.sol\":28920:28932  defaultRefId */\n      0x05\n        /* \"contracts/modules/SponsorMatrix.sol\":756:37257  contract Nanakshahi {... */\n      sload\n        /* \"contracts/modules/SponsorMatrix.sol\":28906:28932  _sponsorId == defaultRefId */\n      dup2\n      eq\n        /* \"contracts/modules/SponsorMatrix.sol\":28887:28932  _sponsorId == 0 || _sponsorId == defaultRefId */\n      jump(tag_755)\n        /* \"contracts/modules/SponsorMatrix.sol\":28765:30041  function _distributeSponsorIncome(uint _sponsorId, uint _fromId, uint _amount, uint _packageLevel) private {... */\n    tag_40:\n      swap1\n      swap2\n        /* \"contracts/modules/SponsorMatrix.sol\":28887:28902  _sponsorId == 0 */\n      dup2\n      iszero\n        /* \"contracts/modules/SponsorMatrix.sol\":28887:28932  _sponsorId == 0 || _sponsorId == defaultRefId */\n      dup1\n      iszero\n      tag_772\n      jumpi\n        /* \"contracts/modules/SponsorMatrix.sol\":28765:30041  function _distributeSponsorIncome(uint _sponsorId, uint _fromId, uint _amount, uint _packageLevel) private {... */\n    tag_773:\n        /* \"contracts/modules/SponsorMatrix.sol\":28883:29005  if (_sponsorId == 0 || _sponsorId == defaultRefId) {... */\n      tag_774\n      jumpi\n        /* \"contracts/modules/SponsorMatrix.sol\":756:37257  contract Nanakshahi {... */\n      dup2\n        /* \"contracts/modules/SponsorMatrix.sol\":28901:28902  0 */\n      0x00\n        /* \"contracts/modules/SponsorMatrix.sol\":756:37257  contract Nanakshahi {... */\n      mstore\n        /* \"contracts/modules/SponsorMatrix.sol\":29048:29053  users */\n      0x24\n        /* \"contracts/modules/SponsorMatrix.sol\":756:37257  contract Nanakshahi {... */\n      0x20\n      mstore\n      0x40\n        /* \"contracts/modules/SponsorMatrix.sol\":28901:28902  0 */\n      0x00\n        /* \"contracts/modules/SponsorMatrix.sol\":756:37257  contract Nanakshahi {... */\n      keccak256\n        /* \"contracts/modules/SponsorMatrix.sol\":29107:29108  1 */\n      0x01\n        /* \"contracts/modules/SponsorMatrix.sol\":29090:29108  _packageLevel != 1 */\n      dup6\n      sub\n        /* \"contracts/modules/SponsorMatrix.sol\":29086:29276  if (_packageLevel != 1)... */\n      tag_776\n      jumpi\n        /* \"contracts/modules/SponsorMatrix.sol\":28765:30041  function _distributeSponsorIncome(uint _sponsorId, uint _fromId, uint _amount, uint _packageLevel) private {... */\n    tag_777:\n        /* \"contracts/modules/SponsorMatrix.sol\":28901:28902  0 */\n      0x00\n        /* \"contracts/modules/SponsorMatrix.sol\":756:37257  contract Nanakshahi {... */\n      dup1\n      sload\n      dup3\n      sload\n      mload(0x40)\n      shl(0xe0, 0xa9059cbb)\n        /* \"contracts/modules/SponsorMatrix.sol\":29298:29337  usdt.transfer(sponsor.account, _amount) */\n      dup2\n      mstore\n      sub(shl(0xa0, 0x01), 0x01)\n        /* \"contracts/modules/SponsorMatrix.sol\":756:37257  contract Nanakshahi {... */\n      swap2\n      dup3\n      and\n        /* \"contracts/modules/SponsorMatrix.sol\":29298:29337  usdt.transfer(sponsor.account, _amount) */\n      0x04\n      dup3\n      add\n        /* \"contracts/modules/SponsorMatrix.sol\":756:37257  contract Nanakshahi {... */\n      mstore\n      0x24\n      dup2\n      add\n      dup7\n      swap1\n      mstore\n      swap6\n      swap5\n      swap4\n      swap3\n      0x20\n      swap3\n      dup8\n      swap3\n      0x44\n      swap3\n      dup5\n      swap3\n        /* \"contracts/modules/SponsorMatrix.sol\":28901:28902  0 */\n      swap1\n      swap2\n        /* \"contracts/modules/SponsorMatrix.sol\":756:37257  contract Nanakshahi {... */\n      and\n        /* \"contracts/modules/SponsorMatrix.sol\":29298:29337  usdt.transfer(sponsor.account, _amount) */\n      gas\n      call\n      swap3\n      dup4\n      iszero\n      tag_161\n      jumpi\n      mload(0x00)\n      codecopy(0x00, data_51678340555b44277c2bba9423d75ebead61331b9cde789c13d0820d4f537e29, 0x20)\n      mload(0x00)\n      swap1\n      0x00\n      mstore\n      swap5\n        /* \"contracts/modules/SponsorMatrix.sol\":29668:29904  Income({... */\n      0x60\n        /* \"contracts/modules/SponsorMatrix.sol\":29298:29337  usdt.transfer(sponsor.account, _amount) */\n      swap5\n      tag_781\n      jumpi\n        /* \"contracts/modules/SponsorMatrix.sol\":28765:30041  function _distributeSponsorIncome(uint _sponsorId, uint _fromId, uint _amount, uint _packageLevel) private {... */\n    tag_782:\n        /* \"contracts/modules/SponsorMatrix.sol\":756:37257  contract Nanakshahi {... */\n      pop\n      dup1\n        /* \"contracts/modules/SponsorMatrix.sol\":28901:28902  0 */\n      0x00\n        /* \"contracts/modules/SponsorMatrix.sol\":756:37257  contract Nanakshahi {... */\n      mstore\n        /* \"contracts/modules/SponsorMatrix.sol\":29451:29462  userIncomes */\n      0x25\n        /* \"contracts/modules/SponsorMatrix.sol\":756:37257  contract Nanakshahi {... */\n      0x20\n      mstore\n        /* \"contracts/modules/SponsorMatrix.sol\":29107:29108  1 */\n      0x01\n        /* \"contracts/modules/SponsorMatrix.sol\":756:37257  contract Nanakshahi {... */\n      0x40\n        /* \"contracts/modules/SponsorMatrix.sol\":28901:28902  0 */\n      0x00\n        /* \"contracts/modules/SponsorMatrix.sol\":756:37257  contract Nanakshahi {... */\n      keccak256\n        /* \"contracts/modules/SponsorMatrix.sol\":29489:29525  sponsorIncome.totalIncome += _amount */\n      tag_783\n        /* \"contracts/modules/SponsorMatrix.sol\":756:37257  contract Nanakshahi {... */\n      dup6\n      dup3\n      sload\n        /* \"contracts/modules/SponsorMatrix.sol\":29489:29525  sponsorIncome.totalIncome += _amount */\n      tag_14\n      jump\t// in\n    tag_783:\n        /* \"contracts/modules/SponsorMatrix.sol\":756:37257  contract Nanakshahi {... */\n      dup2\n      sstore\n        /* \"contracts/modules/SponsorMatrix.sol\":29540:29567  sponsorIncome.sponsorIncome */\n      add\n        /* \"contracts/modules/SponsorMatrix.sol\":29540:29578  sponsorIncome.sponsorIncome += _amount */\n      tag_784\n        /* \"contracts/modules/SponsorMatrix.sol\":756:37257  contract Nanakshahi {... */\n      dup5\n      dup3\n      sload\n        /* \"contracts/modules/SponsorMatrix.sol\":29540:29578  sponsorIncome.sponsorIncome += _amount */\n      tag_14\n      jump\t// in\n    tag_784:\n        /* \"contracts/modules/SponsorMatrix.sol\":756:37257  contract Nanakshahi {... */\n      swap1\n      sstore\n        /* \"contracts/modules/SponsorMatrix.sol\":28901:28902  0 */\n      0x00\n        /* \"contracts/modules/SponsorMatrix.sol\":756:37257  contract Nanakshahi {... */\n      mstore\n        /* \"contracts/modules/SponsorMatrix.sol\":29637:29650  incomeHistory */\n      0x26\n        /* \"contracts/modules/SponsorMatrix.sol\":756:37257  contract Nanakshahi {... */\n      0x20\n      mstore\n        /* \"contracts/modules/SponsorMatrix.sol\":29637:29905  incomeHistory[_sponsorId].push(Income({... */\n      tag_785\n        /* \"contracts/modules/SponsorMatrix.sol\":756:37257  contract Nanakshahi {... */\n      0x40\n        /* \"contracts/modules/SponsorMatrix.sol\":28901:28902  0 */\n      0x00\n        /* \"contracts/modules/SponsorMatrix.sol\":756:37257  contract Nanakshahi {... */\n      keccak256\n      mload(0x40)\n      swap1\n      tag_786\n      dup3\n      tag_16\n      jump\t// in\n    tag_786:\n      dup8\n      dup3\n      mstore\n        /* \"contracts/modules/SponsorMatrix.sol\":29668:29904  Income({... */\n      dup5\n        /* \"contracts/modules/SponsorMatrix.sol\":756:37257  contract Nanakshahi {... */\n      0x20\n        /* \"contracts/modules/SponsorMatrix.sol\":29668:29904  Income({... */\n      dup4\n      add\n        /* \"contracts/modules/SponsorMatrix.sol\":756:37257  contract Nanakshahi {... */\n      mstore\n        /* \"contracts/modules/SponsorMatrix.sol\":29668:29904  Income({... */\n      dup9\n        /* \"contracts/modules/SponsorMatrix.sol\":756:37257  contract Nanakshahi {... */\n      0x40\n        /* \"contracts/modules/SponsorMatrix.sol\":29668:29904  Income({... */\n      dup4\n      add\n        /* \"contracts/modules/SponsorMatrix.sol\":756:37257  contract Nanakshahi {... */\n      mstore\n        /* \"contracts/modules/SponsorMatrix.sol\":29823:29838  block.timestamp */\n      timestamp\n        /* \"contracts/modules/SponsorMatrix.sol\":29668:29904  Income({... */\n      dup7\n      dup4\n      add\n        /* \"contracts/modules/SponsorMatrix.sol\":756:37257  contract Nanakshahi {... */\n      mstore\n        /* \"contracts/modules/SponsorMatrix.sol\":29107:29108  1 */\n      0x01\n        /* \"contracts/modules/SponsorMatrix.sol\":29668:29904  Income({... */\n      0x80\n      dup4\n      add\n        /* \"contracts/modules/SponsorMatrix.sol\":756:37257  contract Nanakshahi {... */\n      mstore\n        /* \"contracts/modules/SponsorMatrix.sol\":29637:29905  incomeHistory[_sponsorId].push(Income({... */\n      tag_28\n      jump\t// in\n    tag_785:\n        /* \"contracts/modules/SponsorMatrix.sol\":756:37257  contract Nanakshahi {... */\n      0x01\n      dup1\n      0xa0\n      shl\n      sub\n      swap1\n      sload\n      and\n      swap4\n        /* \"contracts/modules/SponsorMatrix.sol\":28901:28902  0 */\n      0x00\n        /* \"contracts/modules/SponsorMatrix.sol\":756:37257  contract Nanakshahi {... */\n      mstore\n        /* \"contracts/modules/SponsorMatrix.sol\":29048:29053  users */\n      0x24\n        /* \"contracts/modules/SponsorMatrix.sol\":756:37257  contract Nanakshahi {... */\n      0x20\n      mstore\n      0x01\n      dup1\n      0xa0\n      shl\n      sub\n      0x40\n        /* \"contracts/modules/SponsorMatrix.sol\":28901:28902  0 */\n      0x00\n        /* \"contracts/modules/SponsorMatrix.sol\":756:37257  contract Nanakshahi {... */\n      keccak256\n      sload\n      and\n      swap5\n      mload(0x40)\n      swap2\n      dup3\n      mstore\n      0x20\n      dup3\n      add\n      mstore\n        /* \"contracts/modules/SponsorMatrix.sol\":29107:29108  1 */\n      0x01\n        /* \"contracts/modules/SponsorMatrix.sol\":756:37257  contract Nanakshahi {... */\n      0x40\n      dup3\n      add\n      mstore\n        /* \"contracts/modules/SponsorMatrix.sol\":29939:30024  IncomeDistributed(sponsor.account, users[_fromId].account, _amount, _packageLevel, 1) */\n      log3\n        /* \"contracts/modules/SponsorMatrix.sol\":28765:30041  function _distributeSponsorIncome(uint _sponsorId, uint _fromId, uint _amount, uint _packageLevel) private {... */\n      jump\t// out\n        /* \"contracts/modules/SponsorMatrix.sol\":29298:29337  usdt.transfer(sponsor.account, _amount) */\n    tag_781:\n      tag_787\n      swap1\n        /* \"contracts/modules/SponsorMatrix.sol\":756:37257  contract Nanakshahi {... */\n      0x20\n        /* \"contracts/modules/SponsorMatrix.sol\":29298:29337  usdt.transfer(sponsor.account, _amount) */\n      returndatasize\n        /* \"contracts/modules/SponsorMatrix.sol\":756:37257  contract Nanakshahi {... */\n      0x20\n        /* \"contracts/modules/SponsorMatrix.sol\":29298:29337  usdt.transfer(sponsor.account, _amount) */\n      gt\n      tag_231\n      jumpi\n      tag_233\n      dup2\n      dup4\n      tag_17\n      jump\t// in\n    tag_787:\n      jump(tag_782)\n        /* \"contracts/modules/SponsorMatrix.sol\":29086:29276  if (_packageLevel != 1)... */\n    tag_776:\n        /* \"contracts/modules/SponsorMatrix.sol\":29158:29159  2 */\n      0x02\n        /* \"contracts/modules/SponsorMatrix.sol\":29137:29155  sponsor.directTeam */\n      0x07\n      dup3\n      add\n        /* \"contracts/modules/SponsorMatrix.sol\":756:37257  contract Nanakshahi {... */\n      sload\n        /* \"contracts/modules/SponsorMatrix.sol\":29137:29159  sponsor.directTeam < 2 */\n      lt\n        /* \"contracts/modules/SponsorMatrix.sol\":29134:29265  if(sponsor.directTeam < 2)... */\n      iszero\n        /* \"contracts/modules/SponsorMatrix.sol\":29086:29276  if (_packageLevel != 1)... */\n      tag_777\n        /* \"contracts/modules/SponsorMatrix.sol\":29134:29265  if(sponsor.directTeam < 2)... */\n      jumpi\n    tag_791:\n        /* \"contracts/modules/SponsorMatrix.sol\":29212:29219  _amount */\n      pop\n      swap2\n      pop\n      pop\n      tag_662\n      swap2\n      pop\n      tag_38\n      jump\t// in\n        /* \"contracts/modules/SponsorMatrix.sol\":28883:29005  if (_sponsorId == 0 || _sponsorId == defaultRefId) {... */\n    tag_774:\n        /* \"contracts/modules/SponsorMatrix.sol\":28964:28971  _amount */\n      swap2\n      pop\n      pop\n      tag_662\n      swap2\n      pop\n      tag_38\n      jump\t// in\n        /* \"contracts/modules/SponsorMatrix.sol\":28887:28932  _sponsorId == 0 || _sponsorId == defaultRefId */\n    tag_772:\n        /* \"contracts/modules/SponsorMatrix.sol\":756:37257  contract Nanakshahi {... */\n      pop\n        /* \"contracts/modules/SponsorMatrix.sol\":28920:28932  defaultRefId */\n      0x05\n        /* \"contracts/modules/SponsorMatrix.sol\":756:37257  contract Nanakshahi {... */\n      sload\n        /* \"contracts/modules/SponsorMatrix.sol\":28906:28932  _sponsorId == defaultRefId */\n      dup3\n      eq\n        /* \"contracts/modules/SponsorMatrix.sol\":28887:28932  _sponsorId == 0 || _sponsorId == defaultRefId */\n      jump(tag_773)\n        /* \"contracts/modules/SponsorMatrix.sol\":756:37257  contract Nanakshahi {... */\n    tag_41:\n      not(0x00)\n      dup2\n      eq\n      tag_199\n      jumpi\n      0x01\n      add\n      swap1\n      jump\t// out\n        /* \"contracts/modules/SponsorMatrix.sol\":30055:32174  function _distributeMatrixIncome(uint _uplineId,uint _fromId,uint _amount, uint _packageLevel) private {... */\n    tag_42:\n      swap4\n      swap2\n      swap4\n      swap3\n      swap1\n      swap3\n        /* \"contracts/modules/SponsorMatrix.sol\":30324:30325  1 */\n      0x01\n        /* \"contracts/modules/SponsorMatrix.sol\":756:37257  contract Nanakshahi {... */\n      swap1\n        /* \"contracts/modules/SponsorMatrix.sol\":30352:30364  defaultRefId */\n      0x05\n        /* \"contracts/modules/SponsorMatrix.sol\":756:37257  contract Nanakshahi {... */\n      sload\n        /* \"contracts/modules/SponsorMatrix.sol\":30339:30364  _uplineId == defaultRefId */\n      dup2\n      eq\n        /* \"contracts/modules/SponsorMatrix.sol\":30339:30382  _uplineId == defaultRefId || _uplineId == 0 */\n      dup1\n      iszero\n      tag_797\n      jumpi\n        /* \"contracts/modules/SponsorMatrix.sol\":30055:32174  function _distributeMatrixIncome(uint _uplineId,uint _fromId,uint _amount, uint _packageLevel) private {... */\n    tag_798:\n        /* \"contracts/modules/SponsorMatrix.sol\":30336:30464  if(_uplineId == defaultRefId || _uplineId == 0)... */\n      tag_809\n      jumpi\n        /* \"contracts/modules/SponsorMatrix.sol\":30511:30854  while(depth < _packageLevel)... */\n      swap1\n        /* \"contracts/modules/SponsorMatrix.sol\":30517:30538  depth < _packageLevel */\n    tag_801:\n      dup3\n      dup2\n      lt\n      tag_802\n      jumpi\n        /* \"contracts/modules/SponsorMatrix.sol\":30864:30890  uint currentId = uplineId_ */\n      pop\n        /* \"contracts/modules/SponsorMatrix.sol\":30901:30910  depth = 0 */\n      swap3\n      0x00\n        /* \"contracts/modules/SponsorMatrix.sol\":30921:32059  while (currentId != 0 && currentId != defaultRefId && depth < maxLayers) {... */\n      swap4\n    tag_804:\n        /* \"contracts/modules/SponsorMatrix.sol\":30928:30942  currentId != 0 */\n      dup1\n      iszero\n      iszero\n        /* \"contracts/modules/SponsorMatrix.sol\":30928:30971  currentId != 0 && currentId != defaultRefId */\n      dup1\n      tag_805\n      jumpi\n        /* \"contracts/modules/SponsorMatrix.sol\":30921:32059  while (currentId != 0 && currentId != defaultRefId && depth < maxLayers) {... */\n    tag_806:\n        /* \"contracts/modules/SponsorMatrix.sol\":30928:30992  currentId != 0 && currentId != defaultRefId && depth < maxLayers */\n      dup1\n      tag_807\n      jumpi\n        /* \"contracts/modules/SponsorMatrix.sol\":30921:32059  while (currentId != 0 && currentId != defaultRefId && depth < maxLayers) {... */\n    tag_808:\n        /* \"contracts/modules/SponsorMatrix.sol\":30928:30992  currentId != 0 && currentId != defaultRefId && depth < maxLayers */\n      iszero\n      tag_809\n      jumpi\n        /* \"contracts/modules/SponsorMatrix.sol\":756:37257  contract Nanakshahi {... */\n      dup1\n      0x00\n      mstore\n        /* \"contracts/modules/SponsorMatrix.sol\":30598:30603  users */\n      0x24\n        /* \"contracts/modules/SponsorMatrix.sol\":756:37257  contract Nanakshahi {... */\n      0x20\n      mstore\n      keccak256(0x00, 0x40)\n        /* \"contracts/modules/SponsorMatrix.sol\":31141:31149  up.level */\n      swap1\n      dup4\n      0x06\n      dup4\n      add\n        /* \"contracts/modules/SponsorMatrix.sol\":756:37257  contract Nanakshahi {... */\n      sload\n        /* \"contracts/modules/SponsorMatrix.sol\":31141:31166  up.level >= _packageLevel */\n      lt\n      iszero\n        /* \"contracts/modules/SponsorMatrix.sol\":31137:31938  if (up.level >= _packageLevel) // up.directTeam >= 2 && ... */\n      tag_811\n      jumpi\n        /* \"contracts/modules/SponsorMatrix.sol\":32014:32025  up.uplineId */\n      pop\n        /* \"contracts/modules/SponsorMatrix.sol\":30352:30364  defaultRefId */\n      0x05\n        /* \"contracts/modules/SponsorMatrix.sol\":32040:32047  depth++ */\n      tag_813\n        /* \"contracts/modules/SponsorMatrix.sol\":32014:32025  up.uplineId */\n      swap2\n      add\n        /* \"contracts/modules/SponsorMatrix.sol\":756:37257  contract Nanakshahi {... */\n      sload\n        /* \"contracts/modules/SponsorMatrix.sol\":32040:32047  depth++ */\n      swap5\n      tag_41\n      jump\t// in\n    tag_813:\n        /* \"contracts/modules/SponsorMatrix.sol\":30921:32059  while (currentId != 0 && currentId != defaultRefId && depth < maxLayers) {... */\n      swap4\n      jump(tag_804)\n        /* \"contracts/modules/SponsorMatrix.sol\":31137:31938  if (up.level >= _packageLevel) // up.directTeam >= 2 && ... */\n    tag_811:\n      0x00\n        /* \"contracts/modules/SponsorMatrix.sol\":756:37257  contract Nanakshahi {... */\n      dup1\n      sload\n      dup4\n      sload\n      mload(0x40)\n      shl(0xe0, 0xa9059cbb)\n        /* \"contracts/modules/SponsorMatrix.sol\":31287:31321  usdt.transfer(up.account, _amount) */\n      dup2\n      mstore\n      sub(shl(0xa0, 0x01), 0x01)\n        /* \"contracts/modules/SponsorMatrix.sol\":756:37257  contract Nanakshahi {... */\n      swap2\n      dup3\n      and\n        /* \"contracts/modules/SponsorMatrix.sol\":31287:31321  usdt.transfer(up.account, _amount) */\n      0x04\n      dup3\n      add\n        /* \"contracts/modules/SponsorMatrix.sol\":756:37257  contract Nanakshahi {... */\n      mstore\n      0x24\n      dup2\n      add\n      dup12\n      swap1\n      mstore\n      swap8\n      swap10\n      swap7\n      swap9\n      pop\n      swap5\n      swap7\n      swap6\n      swap3\n      swap5\n      swap3\n      swap4\n      swap3\n      0x20\n      swap3\n      dup8\n      swap3\n      0x44\n      swap3\n      dup5\n      swap3\n      swap2\n      and\n        /* \"contracts/modules/SponsorMatrix.sol\":31287:31321  usdt.transfer(up.account, _amount) */\n      gas\n      call\n      swap3\n      dup4\n      iszero\n      tag_161\n      jumpi\n      mload(0x00)\n      codecopy(0x00, data_51678340555b44277c2bba9423d75ebead61331b9cde789c13d0820d4f537e29, 0x20)\n      mload(0x00)\n      swap1\n      0x00\n      mstore\n      swap5\n        /* \"contracts/modules/SponsorMatrix.sol\":31531:31790  Income({... */\n      0x60\n        /* \"contracts/modules/SponsorMatrix.sol\":31287:31321  usdt.transfer(up.account, _amount) */\n      swap5\n      tag_817\n      jumpi\n        /* \"contracts/modules/SponsorMatrix.sol\":31137:31938  if (up.level >= _packageLevel) // up.directTeam >= 2 && ... */\n    tag_818:\n        /* \"contracts/modules/SponsorMatrix.sol\":756:37257  contract Nanakshahi {... */\n      pop\n      dup1\n      0x00\n      mstore\n        /* \"contracts/modules/SponsorMatrix.sol\":31367:31378  userIncomes */\n      0x25\n        /* \"contracts/modules/SponsorMatrix.sol\":756:37257  contract Nanakshahi {... */\n      0x20\n      mstore\n        /* \"contracts/modules/SponsorMatrix.sol\":31453:31469  inc.matrixIncome */\n      0x02\n        /* \"contracts/modules/SponsorMatrix.sol\":756:37257  contract Nanakshahi {... */\n      keccak256(0x00, 0x40)\n        /* \"contracts/modules/SponsorMatrix.sol\":31408:31434  inc.totalIncome += _amount */\n      tag_819\n        /* \"contracts/modules/SponsorMatrix.sol\":756:37257  contract Nanakshahi {... */\n      dup6\n      dup3\n      sload\n        /* \"contracts/modules/SponsorMatrix.sol\":31408:31434  inc.totalIncome += _amount */\n      tag_14\n      jump\t// in\n    tag_819:\n        /* \"contracts/modules/SponsorMatrix.sol\":756:37257  contract Nanakshahi {... */\n      dup2\n      sstore\n        /* \"contracts/modules/SponsorMatrix.sol\":31453:31469  inc.matrixIncome */\n      add\n        /* \"contracts/modules/SponsorMatrix.sol\":31453:31480  inc.matrixIncome += _amount */\n      tag_820\n        /* \"contracts/modules/SponsorMatrix.sol\":756:37257  contract Nanakshahi {... */\n      dup5\n      dup3\n      sload\n        /* \"contracts/modules/SponsorMatrix.sol\":31453:31480  inc.matrixIncome += _amount */\n      tag_14\n      jump\t// in\n    tag_820:\n        /* \"contracts/modules/SponsorMatrix.sol\":756:37257  contract Nanakshahi {... */\n      swap1\n      sstore\n      0x00\n      mstore\n        /* \"contracts/modules/SponsorMatrix.sol\":31501:31514  incomeHistory */\n      0x26\n        /* \"contracts/modules/SponsorMatrix.sol\":756:37257  contract Nanakshahi {... */\n      0x20\n      mstore\n        /* \"contracts/modules/SponsorMatrix.sol\":31501:31791  incomeHistory[currentId].push(Income({... */\n      tag_821\n        /* \"contracts/modules/SponsorMatrix.sol\":756:37257  contract Nanakshahi {... */\n      keccak256(0x00, 0x40)\n      mload(0x40)\n      swap1\n      tag_822\n      dup3\n      tag_16\n      jump\t// in\n    tag_822:\n      dup8\n      dup3\n      mstore\n        /* \"contracts/modules/SponsorMatrix.sol\":31531:31790  Income({... */\n      dup5\n        /* \"contracts/modules/SponsorMatrix.sol\":756:37257  contract Nanakshahi {... */\n      0x20\n        /* \"contracts/modules/SponsorMatrix.sol\":31531:31790  Income({... */\n      dup4\n      add\n        /* \"contracts/modules/SponsorMatrix.sol\":756:37257  contract Nanakshahi {... */\n      mstore\n        /* \"contracts/modules/SponsorMatrix.sol\":31531:31790  Income({... */\n      dup9\n        /* \"contracts/modules/SponsorMatrix.sol\":756:37257  contract Nanakshahi {... */\n      0x40\n        /* \"contracts/modules/SponsorMatrix.sol\":31531:31790  Income({... */\n      dup4\n      add\n        /* \"contracts/modules/SponsorMatrix.sol\":756:37257  contract Nanakshahi {... */\n      mstore\n        /* \"contracts/modules/SponsorMatrix.sol\":31702:31717  block.timestamp */\n      timestamp\n        /* \"contracts/modules/SponsorMatrix.sol\":31531:31790  Income({... */\n      dup7\n      dup4\n      add\n        /* \"contracts/modules/SponsorMatrix.sol\":756:37257  contract Nanakshahi {... */\n      mstore\n        /* \"contracts/modules/SponsorMatrix.sol\":31453:31469  inc.matrixIncome */\n      0x02\n        /* \"contracts/modules/SponsorMatrix.sol\":31531:31790  Income({... */\n      0x80\n      dup4\n      add\n        /* \"contracts/modules/SponsorMatrix.sol\":756:37257  contract Nanakshahi {... */\n      mstore\n        /* \"contracts/modules/SponsorMatrix.sol\":31501:31791  incomeHistory[currentId].push(Income({... */\n      tag_28\n      jump\t// in\n    tag_821:\n        /* \"contracts/modules/SponsorMatrix.sol\":756:37257  contract Nanakshahi {... */\n      0x01\n      dup1\n      0xa0\n      shl\n      sub\n      swap1\n      sload\n      and\n      swap4\n      0x00\n      mstore\n        /* \"contracts/modules/SponsorMatrix.sol\":30598:30603  users */\n      0x24\n        /* \"contracts/modules/SponsorMatrix.sol\":756:37257  contract Nanakshahi {... */\n      0x20\n      mstore\n      0x01\n      dup1\n      0xa0\n      shl\n      sub\n      sload(keccak256(0x00, 0x40))\n      and\n      swap5\n      mload(0x40)\n      swap2\n      dup3\n      mstore\n      0x20\n        /* \"contracts/modules/SponsorMatrix.sol\":1041:1043  15 */\n      dup3\n      add\n        /* \"contracts/modules/SponsorMatrix.sol\":756:37257  contract Nanakshahi {... */\n      mstore\n        /* \"contracts/modules/SponsorMatrix.sol\":31453:31469  inc.matrixIncome */\n      0x02\n        /* \"contracts/modules/SponsorMatrix.sol\":756:37257  contract Nanakshahi {... */\n      0x40\n        /* \"contracts/modules/SponsorMatrix.sol\":1041:1043  15 */\n      dup3\n      add\n        /* \"contracts/modules/SponsorMatrix.sol\":756:37257  contract Nanakshahi {... */\n      mstore\n        /* \"contracts/modules/SponsorMatrix.sol\":31817:31897  IncomeDistributed(up.account, users[_fromId].account, _amount, _packageLevel, 2) */\n      log3\n        /* \"contracts/modules/SponsorMatrix.sol\":31916:31923  return; */\n      jump\t// out\n        /* \"contracts/modules/SponsorMatrix.sol\":31287:31321  usdt.transfer(up.account, _amount) */\n    tag_817:\n      tag_823\n      swap1\n        /* \"contracts/modules/SponsorMatrix.sol\":756:37257  contract Nanakshahi {... */\n      0x20\n        /* \"contracts/modules/SponsorMatrix.sol\":31287:31321  usdt.transfer(up.account, _amount) */\n      returndatasize\n      dup2\n      gt\n      tag_231\n      jumpi\n      tag_233\n      dup2\n      dup4\n      tag_17\n      jump\t// in\n    tag_823:\n      jump(tag_818)\n        /* \"contracts/modules/SponsorMatrix.sol\":30928:30992  currentId != 0 && currentId != defaultRefId && depth < maxLayers */\n    tag_809:\n      pop\n      pop\n      pop\n      swap2\n        /* \"contracts/modules/SponsorMatrix.sol\":32158:32165  _amount */\n      tag_662\n        /* \"contracts/modules/SponsorMatrix.sol\":30928:30992  currentId != 0 && currentId != defaultRefId && depth < maxLayers */\n      swap2\n      pop\n        /* \"contracts/modules/SponsorMatrix.sol\":32158:32165  _amount */\n      tag_38\n      jump\t// in\n        /* \"contracts/modules/SponsorMatrix.sol\":30928:30992  currentId != 0 && currentId != defaultRefId && depth < maxLayers */\n    tag_807:\n        /* \"contracts/modules/SponsorMatrix.sol\":30975:30992  depth < maxLayers */\n      pop\n        /* \"contracts/modules/SponsorMatrix.sol\":1041:1043  15 */\n      0x0f\n        /* \"contracts/modules/SponsorMatrix.sol\":30975:30992  depth < maxLayers */\n      dup6\n      lt\n        /* \"contracts/modules/SponsorMatrix.sol\":30928:30992  currentId != 0 && currentId != defaultRefId && depth < maxLayers */\n      jump(tag_808)\n        /* \"contracts/modules/SponsorMatrix.sol\":30928:30971  currentId != 0 && currentId != defaultRefId */\n    tag_805:\n        /* \"contracts/modules/SponsorMatrix.sol\":756:37257  contract Nanakshahi {... */\n      pop\n        /* \"contracts/modules/SponsorMatrix.sol\":30352:30364  defaultRefId */\n      0x05\n        /* \"contracts/modules/SponsorMatrix.sol\":756:37257  contract Nanakshahi {... */\n      sload\n        /* \"contracts/modules/SponsorMatrix.sol\":30946:30971  currentId != defaultRefId */\n      dup2\n      eq\n      iszero\n        /* \"contracts/modules/SponsorMatrix.sol\":30928:30971  currentId != 0 && currentId != defaultRefId */\n      jump(tag_806)\n        /* \"contracts/modules/SponsorMatrix.sol\":30511:30854  while(depth < _packageLevel)... */\n    tag_802:\n        /* \"contracts/modules/SponsorMatrix.sol\":30564:30571  depth++ */\n      tag_828\n      swap1\n      tag_41\n      jump\t// in\n    tag_828:\n        /* \"contracts/modules/SponsorMatrix.sol\":756:37257  contract Nanakshahi {... */\n      swap1\n      0x00\n      mstore\n        /* \"contracts/modules/SponsorMatrix.sol\":30598:30603  users */\n      0x24\n        /* \"contracts/modules/SponsorMatrix.sol\":756:37257  contract Nanakshahi {... */\n      0x20\n      mstore\n        /* \"contracts/modules/SponsorMatrix.sol\":30352:30364  defaultRefId */\n      0x05\n        /* \"contracts/modules/SponsorMatrix.sol\":756:37257  contract Nanakshahi {... */\n      keccak256(0x00, 0x40)\n        /* \"contracts/modules/SponsorMatrix.sol\":30598:30623  users[uplineId_].uplineId */\n      add\n        /* \"contracts/modules/SponsorMatrix.sol\":756:37257  contract Nanakshahi {... */\n      sload\n      swap1\n        /* \"contracts/modules/SponsorMatrix.sol\":30352:30364  defaultRefId */\n      0x05\n        /* \"contracts/modules/SponsorMatrix.sol\":756:37257  contract Nanakshahi {... */\n      sload\n        /* \"contracts/modules/SponsorMatrix.sol\":30643:30668  uplineId_ == defaultRefId */\n      dup3\n      eq\n        /* \"contracts/modules/SponsorMatrix.sol\":30643:30686  uplineId_ == defaultRefId || uplineId_ == 0 */\n      dup1\n      iszero\n      tag_829\n      jumpi\n        /* \"contracts/modules/SponsorMatrix.sol\":30511:30854  while(depth < _packageLevel)... */\n    tag_830:\n        /* \"contracts/modules/SponsorMatrix.sol\":30640:30843  if(uplineId_ == defaultRefId || uplineId_ == 0)... */\n      iszero\n        /* \"contracts/modules/SponsorMatrix.sol\":30511:30854  while(depth < _packageLevel)... */\n      tag_801\n        /* \"contracts/modules/SponsorMatrix.sol\":30640:30843  if(uplineId_ == defaultRefId || uplineId_ == 0)... */\n      jumpi\n        /* \"contracts/modules/SponsorMatrix.sol\":30778:30785  _amount */\n      pop\n      pop\n      pop\n      swap2\n      tag_662\n      swap2\n      pop\n      tag_38\n      jump\t// in\n        /* \"contracts/modules/SponsorMatrix.sol\":30643:30686  uplineId_ == defaultRefId || uplineId_ == 0 */\n    tag_829:\n        /* \"contracts/modules/SponsorMatrix.sol\":30672:30686  uplineId_ == 0 */\n      pop\n      dup2\n      iszero\n        /* \"contracts/modules/SponsorMatrix.sol\":30643:30686  uplineId_ == defaultRefId || uplineId_ == 0 */\n      jump(tag_830)\n        /* \"contracts/modules/SponsorMatrix.sol\":30339:30382  _uplineId == defaultRefId || _uplineId == 0 */\n    tag_797:\n        /* \"contracts/modules/SponsorMatrix.sol\":30368:30382  _uplineId == 0 */\n      pop\n      dup1\n      iszero\n        /* \"contracts/modules/SponsorMatrix.sol\":30339:30382  _uplineId == defaultRefId || _uplineId == 0 */\n      jump(tag_798)\n        /* \"contracts/modules/SponsorMatrix.sol\":34146:36001  function _distributeLevelBoosterIncome(... */\n    tag_43:\n      swap4\n      swap2\n      swap1\n      swap3\n      swap4\n        /* \"contracts/modules/SponsorMatrix.sol\":34339:34352  _startId == 0 */\n      dup1\n      iszero\n        /* \"contracts/modules/SponsorMatrix.sol\":34339:34380  _startId == 0 || _startId == defaultRefId */\n      dup1\n      iszero\n      tag_835\n      jumpi\n        /* \"contracts/modules/SponsorMatrix.sol\":34146:36001  function _distributeLevelBoosterIncome(... */\n    tag_836:\n        /* \"contracts/modules/SponsorMatrix.sol\":34335:34453  if (_startId == 0 || _startId == defaultRefId) {... */\n      tag_791\n      jumpi\n        /* \"contracts/modules/SponsorMatrix.sol\":34541:34564  levelsToDistribute == 0 */\n      dup3\n      iszero\n        /* \"contracts/modules/SponsorMatrix.sol\":34537:34637  if (levelsToDistribute == 0) {... */\n      tag_791\n      jumpi\n        /* \"contracts/modules/SponsorMatrix.sol\":34671:34699  _amount / levelsToDistribute */\n      tag_841\n      dup4\n      dup4\n      tag_19\n      jump\t// in\n    tag_841:\n        /* \"contracts/modules/SponsorMatrix.sol\":34738:34773  amountPerLevel * levelsToDistribute */\n      swap2\n        /* \"contracts/modules/SponsorMatrix.sol\":756:37257  contract Nanakshahi {... */\n      dup4\n      dup4\n      mul\n      dup4\n      dup2\n      div\n      dup6\n      eq\n      dup5\n      iszero\n      or\n      iszero\n      tag_199\n      jumpi\n        /* \"contracts/modules/SponsorMatrix.sol\":34727:34774  _amount - (amountPerLevel * levelsToDistribute) */\n      tag_844\n      swap2\n      tag_13\n      jump\t// in\n    tag_844:\n        /* \"contracts/modules/SponsorMatrix.sol\":34785:34802  uint spilover = 1 */\n      swap5\n        /* \"contracts/modules/SponsorMatrix.sol\":34801:34802  1 */\n      0x01\n        /* \"contracts/modules/SponsorMatrix.sol\":34813:34839  uint baselineId = _startId */\n      swap2\n        /* \"contracts/modules/SponsorMatrix.sol\":34857:34867  uint i = 0 */\n      swap5\n        /* \"contracts/modules/SponsorMatrix.sol\":34351:34352  0 */\n      0x00\n        /* \"contracts/modules/SponsorMatrix.sol\":34869:34891  i < levelsToDistribute */\n    tag_845:\n      dup6\n      dup2\n      lt\n      tag_846\n      jumpi\n        /* \"contracts/modules/SponsorMatrix.sol\":35927:35940  remainder > 0 */\n      pop\n      pop\n      pop\n      pop\n      pop\n      pop\n      pop\n      dup1\n        /* \"contracts/modules/SponsorMatrix.sol\":35923:35994  if (remainder > 0) {... */\n      tag_737\n      jumpi\n        /* \"contracts/modules/SponsorMatrix.sol\":34146:36001  function _distributeLevelBoosterIncome(... */\n      pop\n      jump\t// out\n        /* \"contracts/modules/SponsorMatrix.sol\":34893:34896  i++ */\n    tag_846:\n        /* \"contracts/modules/SponsorMatrix.sol\":35074:35089  baselineId != 0 */\n      dup7\n      iszero\n      iszero\n        /* \"contracts/modules/SponsorMatrix.sol\":35074:35119  baselineId != 0 && baselineId != defaultRefId */\n      dup1\n      tag_851\n      jumpi\n        /* \"contracts/modules/SponsorMatrix.sol\":34893:34896  i++ */\n    tag_852:\n        /* \"contracts/modules/SponsorMatrix.sol\":35070:35734  if (baselineId != 0 && baselineId != defaultRefId) ... */\n      tag_853\n      jumpi\n        /* \"contracts/modules/SponsorMatrix.sol\":34893:34896  i++ */\n    tag_854:\n        /* \"contracts/modules/SponsorMatrix.sol\":34801:34802  1 */\n      0x01\n        /* \"contracts/modules/SponsorMatrix.sol\":35778:35793  baselineId == 0 */\n      swap1\n      dup8\n      iszero\n        /* \"contracts/modules/SponsorMatrix.sol\":35778:35823  baselineId == 0 || baselineId == defaultRefId */\n      dup1\n      iszero\n      tag_855\n      jumpi\n        /* \"contracts/modules/SponsorMatrix.sol\":34893:34896  i++ */\n    tag_856:\n        /* \"contracts/modules/SponsorMatrix.sol\":35774:35890  if (baselineId == 0 || baselineId == defaultRefId) {... */\n      tag_857\n      jumpi\n        /* \"contracts/modules/SponsorMatrix.sol\":34893:34896  i++ */\n    tag_858:\n        /* \"contracts/modules/SponsorMatrix.sol\":756:37257  contract Nanakshahi {... */\n      add\n        /* \"contracts/modules/SponsorMatrix.sol\":34857:34867  uint i = 0 */\n      jump(tag_845)\n        /* \"contracts/modules/SponsorMatrix.sol\":35774:35890  if (baselineId == 0 || baselineId == defaultRefId) {... */\n    tag_857:\n        /* \"contracts/modules/SponsorMatrix.sol\":35859:35873  amountPerLevel */\n      tag_859\n      dup7\n      tag_38\n      jump\t// in\n    tag_859:\n        /* \"contracts/modules/SponsorMatrix.sol\":35774:35890  if (baselineId == 0 || baselineId == defaultRefId) {... */\n      jump(tag_858)\n        /* \"contracts/modules/SponsorMatrix.sol\":35778:35823  baselineId == 0 || baselineId == defaultRefId */\n    tag_855:\n        /* \"contracts/modules/SponsorMatrix.sol\":756:37257  contract Nanakshahi {... */\n      pop\n        /* \"contracts/modules/SponsorMatrix.sol\":35811:35823  defaultRefId */\n      0x05\n        /* \"contracts/modules/SponsorMatrix.sol\":756:37257  contract Nanakshahi {... */\n      sload\n        /* \"contracts/modules/SponsorMatrix.sol\":35797:35823  baselineId == defaultRefId */\n      dup9\n      eq\n        /* \"contracts/modules/SponsorMatrix.sol\":35778:35823  baselineId == 0 || baselineId == defaultRefId */\n      jump(tag_856)\n        /* \"contracts/modules/SponsorMatrix.sol\":35070:35734  if (baselineId != 0 && baselineId != defaultRefId) ... */\n    tag_853:\n        /* \"contracts/modules/SponsorMatrix.sol\":756:37257  contract Nanakshahi {... */\n      swap3\n      dup7\n        /* \"contracts/modules/SponsorMatrix.sol\":34351:34352  0 */\n      0x00\n        /* \"contracts/modules/SponsorMatrix.sol\":756:37257  contract Nanakshahi {... */\n      swap8\n      swap3\n      swap8\n      mstore\n        /* \"contracts/modules/SponsorMatrix.sol\":35157:35162  users */\n      0x24\n        /* \"contracts/modules/SponsorMatrix.sol\":756:37257  contract Nanakshahi {... */\n      0x20\n      mstore\n      dup3\n        /* \"contracts/modules/SponsorMatrix.sol\":35157:35180  users[baselineId].level */\n      0x06\n        /* \"contracts/modules/SponsorMatrix.sol\":756:37257  contract Nanakshahi {... */\n      0x40\n        /* \"contracts/modules/SponsorMatrix.sol\":34351:34352  0 */\n      0x00\n        /* \"contracts/modules/SponsorMatrix.sol\":756:37257  contract Nanakshahi {... */\n      keccak256\n        /* \"contracts/modules/SponsorMatrix.sol\":35157:35180  users[baselineId].level */\n      add\n        /* \"contracts/modules/SponsorMatrix.sol\":756:37257  contract Nanakshahi {... */\n      sload\n        /* \"contracts/modules/SponsorMatrix.sol\":35157:35197  users[baselineId].level >= _packageLevel */\n      lt\n      iszero\n        /* \"contracts/modules/SponsorMatrix.sol\":35154:35713  if(users[baselineId].level >= _packageLevel)... */\n      0x00\n        /* \"contracts/modules/SponsorMatrix.sol\":35157:35197  users[baselineId].level >= _packageLevel */\n      eq\n      tag_860\n      jumpi\n        /* \"contracts/modules/SponsorMatrix.sol\":34351:34352  0 */\n      0x00\n        /* \"contracts/modules/SponsorMatrix.sol\":35256:35266  j<spilover */\n    tag_862:\n      dup2\n      dup2\n      lt\n      tag_863\n      jumpi\n        /* \"contracts/modules/SponsorMatrix.sol\":756:37257  contract Nanakshahi {... */\n      pop\n      pop\n        /* \"contracts/modules/SponsorMatrix.sol\":34351:34352  0 */\n      0x00\n        /* \"contracts/modules/SponsorMatrix.sol\":756:37257  contract Nanakshahi {... */\n      mstore\n        /* \"contracts/modules/SponsorMatrix.sol\":35157:35162  users */\n      0x24\n        /* \"contracts/modules/SponsorMatrix.sol\":756:37257  contract Nanakshahi {... */\n      0x20\n      mstore\n        /* \"contracts/modules/SponsorMatrix.sol\":35476:35502  users[baselineId].uplineId */\n      0x05\n        /* \"contracts/modules/SponsorMatrix.sol\":756:37257  contract Nanakshahi {... */\n      0x40\n        /* \"contracts/modules/SponsorMatrix.sol\":34351:34352  0 */\n      0x00\n        /* \"contracts/modules/SponsorMatrix.sol\":756:37257  contract Nanakshahi {... */\n      keccak256\n        /* \"contracts/modules/SponsorMatrix.sol\":35476:35502  users[baselineId].uplineId */\n      add\n        /* \"contracts/modules/SponsorMatrix.sol\":756:37257  contract Nanakshahi {... */\n      sload\n        /* \"contracts/modules/SponsorMatrix.sol\":35525:35537  spilover = 1 */\n      swap5\n        /* \"contracts/modules/SponsorMatrix.sol\":34801:34802  1 */\n      0x01\n        /* \"contracts/modules/SponsorMatrix.sol\":35525:35537  spilover = 1 */\n      dup1\n        /* \"contracts/modules/SponsorMatrix.sol\":35154:35713  if(users[baselineId].level >= _packageLevel)... */\n      swap4\n    tag_865:\n        /* \"contracts/modules/SponsorMatrix.sol\":35070:35734  if (baselineId != 0 && baselineId != defaultRefId) ... */\n      swap1\n      pop\n      jump(tag_854)\n        /* \"contracts/modules/SponsorMatrix.sol\":35268:35271  j++ */\n    tag_863:\n        /* \"contracts/modules/SponsorMatrix.sol\":34351:34352  0 */\n      0x00\n        /* \"contracts/modules/SponsorMatrix.sol\":756:37257  contract Nanakshahi {... */\n      dup4\n      dup2\n      mstore\n        /* \"contracts/modules/SponsorMatrix.sol\":35157:35162  users */\n      0x24\n        /* \"contracts/modules/SponsorMatrix.sol\":756:37257  contract Nanakshahi {... */\n      0x20\n      dup2\n      dup2\n      mstore\n      0x40\n      dup1\n      dup5\n      keccak256\n      sload\n      dup5\n      sload\n      swap2\n      mload\n      shl(0xe0, 0xa9059cbb)\n        /* \"contracts/modules/SponsorMatrix.sol\":36219:36244  usdt.transfer(to, amount) */\n      dup2\n      mstore\n      sub(shl(0xa0, 0x01), 0x01)\n        /* \"contracts/modules/SponsorMatrix.sol\":756:37257  contract Nanakshahi {... */\n      swap2\n      dup3\n      and\n        /* \"contracts/modules/SponsorMatrix.sol\":36219:36244  usdt.transfer(to, amount) */\n      0x04\n      dup3\n      add\n        /* \"contracts/modules/SponsorMatrix.sol\":756:37257  contract Nanakshahi {... */\n      dup2\n      swap1\n      mstore\n      swap5\n      dup2\n      add\n      dup13\n      swap1\n      mstore\n      swap6\n      swap5\n      dup7\n      swap3\n      0x44\n      swap3\n      dup5\n      swap3\n        /* \"contracts/modules/SponsorMatrix.sol\":34351:34352  0 */\n      swap2\n        /* \"contracts/modules/SponsorMatrix.sol\":756:37257  contract Nanakshahi {... */\n      and\n        /* \"contracts/modules/SponsorMatrix.sol\":36219:36244  usdt.transfer(to, amount) */\n      gas\n      call\n      swap3\n      dup4\n      iszero\n      tag_161\n      jumpi\n        /* \"contracts/modules/SponsorMatrix.sol\":34801:34802  1 */\n      0x01\n        /* \"contracts/modules/SponsorMatrix.sol\":36219:36244  usdt.transfer(to, amount) */\n      swap4\n      tag_869\n      jumpi\n        /* \"contracts/modules/SponsorMatrix.sol\":35268:35271  j++ */\n    tag_870:\n        /* \"contracts/modules/SponsorMatrix.sol\":756:37257  contract Nanakshahi {... */\n      pop\n      dup5\n        /* \"contracts/modules/SponsorMatrix.sol\":34351:34352  0 */\n      0x00\n        /* \"contracts/modules/SponsorMatrix.sol\":756:37257  contract Nanakshahi {... */\n      mstore\n        /* \"contracts/modules/SponsorMatrix.sol\":36282:36293  userIncomes */\n      0x25\n        /* \"contracts/modules/SponsorMatrix.sol\":756:37257  contract Nanakshahi {... */\n      0x20\n      mstore\n        /* \"contracts/modules/SponsorMatrix.sol\":36352:36374  inc.levelBoosterIncome */\n      0x03\n        /* \"contracts/modules/SponsorMatrix.sol\":756:37257  contract Nanakshahi {... */\n      0x40\n        /* \"contracts/modules/SponsorMatrix.sol\":34351:34352  0 */\n      0x00\n        /* \"contracts/modules/SponsorMatrix.sol\":756:37257  contract Nanakshahi {... */\n      keccak256\n        /* \"contracts/modules/SponsorMatrix.sol\":36316:36341  inc.totalIncome += amount */\n      tag_871\n        /* \"contracts/modules/SponsorMatrix.sol\":756:37257  contract Nanakshahi {... */\n      dup11\n      dup3\n      sload\n        /* \"contracts/modules/SponsorMatrix.sol\":36316:36341  inc.totalIncome += amount */\n      tag_14\n      jump\t// in\n    tag_871:\n        /* \"contracts/modules/SponsorMatrix.sol\":756:37257  contract Nanakshahi {... */\n      dup2\n      sstore\n        /* \"contracts/modules/SponsorMatrix.sol\":36352:36374  inc.levelBoosterIncome */\n      add\n        /* \"contracts/modules/SponsorMatrix.sol\":36352:36384  inc.levelBoosterIncome += amount */\n      tag_872\n        /* \"contracts/modules/SponsorMatrix.sol\":756:37257  contract Nanakshahi {... */\n      dup10\n      dup3\n      sload\n        /* \"contracts/modules/SponsorMatrix.sol\":36352:36384  inc.levelBoosterIncome += amount */\n      tag_14\n      jump\t// in\n    tag_872:\n        /* \"contracts/modules/SponsorMatrix.sol\":756:37257  contract Nanakshahi {... */\n      swap1\n      sstore\n      dup5\n        /* \"contracts/modules/SponsorMatrix.sol\":34351:34352  0 */\n      0x00\n        /* \"contracts/modules/SponsorMatrix.sol\":756:37257  contract Nanakshahi {... */\n      mstore\n        /* \"contracts/modules/SponsorMatrix.sol\":36397:36410  incomeHistory */\n      0x26\n        /* \"contracts/modules/SponsorMatrix.sol\":756:37257  contract Nanakshahi {... */\n      0x20\n      mstore\n        /* \"contracts/modules/SponsorMatrix.sol\":36397:36644  incomeHistory[receiverId].push(Income({... */\n      tag_873\n        /* \"contracts/modules/SponsorMatrix.sol\":756:37257  contract Nanakshahi {... */\n      0x40\n        /* \"contracts/modules/SponsorMatrix.sol\":34351:34352  0 */\n      0x00\n        /* \"contracts/modules/SponsorMatrix.sol\":756:37257  contract Nanakshahi {... */\n      keccak256\n      mload(0x40)\n      swap1\n      tag_874\n      dup3\n      tag_16\n      jump\t// in\n    tag_874:\n      dup13\n      dup3\n      mstore\n        /* \"contracts/modules/SponsorMatrix.sol\":36428:36643  Income({... */\n      dup11\n        /* \"contracts/modules/SponsorMatrix.sol\":756:37257  contract Nanakshahi {... */\n      0x20\n        /* \"contracts/modules/SponsorMatrix.sol\":36428:36643  Income({... */\n      dup4\n      add\n        /* \"contracts/modules/SponsorMatrix.sol\":756:37257  contract Nanakshahi {... */\n      mstore\n        /* \"contracts/modules/SponsorMatrix.sol\":36428:36643  Income({... */\n      dup9\n        /* \"contracts/modules/SponsorMatrix.sol\":756:37257  contract Nanakshahi {... */\n      0x40\n        /* \"contracts/modules/SponsorMatrix.sol\":36428:36643  Income({... */\n      dup4\n      add\n        /* \"contracts/modules/SponsorMatrix.sol\":756:37257  contract Nanakshahi {... */\n      mstore\n        /* \"contracts/modules/SponsorMatrix.sol\":36564:36579  block.timestamp */\n      timestamp\n        /* \"contracts/modules/SponsorMatrix.sol\":36428:36643  Income({... */\n      0x60\n      dup4\n      add\n        /* \"contracts/modules/SponsorMatrix.sol\":756:37257  contract Nanakshahi {... */\n      mstore\n        /* \"contracts/modules/SponsorMatrix.sol\":36219:36244  usdt.transfer(to, amount) */\n      0x04\n        /* \"contracts/modules/SponsorMatrix.sol\":36428:36643  Income({... */\n      0x80\n      dup4\n      add\n        /* \"contracts/modules/SponsorMatrix.sol\":756:37257  contract Nanakshahi {... */\n      mstore\n        /* \"contracts/modules/SponsorMatrix.sol\":36397:36644  incomeHistory[receiverId].push(Income({... */\n      tag_28\n      jump\t// in\n    tag_873:\n        /* \"contracts/modules/SponsorMatrix.sol\":756:37257  contract Nanakshahi {... */\n      dup10\n        /* \"contracts/modules/SponsorMatrix.sol\":34351:34352  0 */\n      0x00\n        /* \"contracts/modules/SponsorMatrix.sol\":756:37257  contract Nanakshahi {... */\n      mstore\n        /* \"contracts/modules/SponsorMatrix.sol\":35157:35162  users */\n      0x24\n        /* \"contracts/modules/SponsorMatrix.sol\":756:37257  contract Nanakshahi {... */\n      0x20\n      mstore\n      dup3\n      dup1\n      0xa0\n      shl\n      sub\n      0x40\n        /* \"contracts/modules/SponsorMatrix.sol\":34351:34352  0 */\n      0x00\n        /* \"contracts/modules/SponsorMatrix.sol\":756:37257  contract Nanakshahi {... */\n      keccak256\n      sload\n      and\n      swap1\n      mload(0x00)\n      codecopy(0x00, data_51678340555b44277c2bba9423d75ebead61331b9cde789c13d0820d4f537e29, 0x20)\n      mload(0x00)\n      swap1\n      0x00\n      mstore\n        /* \"contracts/modules/SponsorMatrix.sol\":36428:36643  Income({... */\n      0x60\n        /* \"contracts/modules/SponsorMatrix.sol\":756:37257  contract Nanakshahi {... */\n      mload(0x40)\n      dup12\n      dup2\n      mstore\n      dup10\n      0x20\n      dup3\n      add\n      mstore\n        /* \"contracts/modules/SponsorMatrix.sol\":36219:36244  usdt.transfer(to, amount) */\n      0x04\n        /* \"contracts/modules/SponsorMatrix.sol\":756:37257  contract Nanakshahi {... */\n      0x40\n      dup3\n      add\n      mstore\n        /* \"contracts/modules/SponsorMatrix.sol\":36662:36731  IncomeDistributed(to, users[fromId].account, amount, packageLevel, 4) */\n      log3\n        /* \"contracts/modules/SponsorMatrix.sol\":756:37257  contract Nanakshahi {... */\n      add\n        /* \"contracts/modules/SponsorMatrix.sol\":35246:35254  uint j=0 */\n      jump(tag_862)\n        /* \"contracts/modules/SponsorMatrix.sol\":36219:36244  usdt.transfer(to, amount) */\n    tag_869:\n      tag_875\n      swap1\n        /* \"contracts/modules/SponsorMatrix.sol\":756:37257  contract Nanakshahi {... */\n      0x20\n        /* \"contracts/modules/SponsorMatrix.sol\":36219:36244  usdt.transfer(to, amount) */\n      returndatasize\n      dup2\n      gt\n      tag_231\n      jumpi\n      tag_233\n      dup2\n      dup4\n      tag_17\n      jump\t// in\n    tag_875:\n      jump(tag_870)\n        /* \"contracts/modules/SponsorMatrix.sol\":35154:35713  if(users[baselineId].level >= _packageLevel)... */\n    tag_860:\n        /* \"contracts/modules/SponsorMatrix.sol\":756:37257  contract Nanakshahi {... */\n      swap6\n      swap1\n        /* \"contracts/modules/SponsorMatrix.sol\":34351:34352  0 */\n      0x00\n        /* \"contracts/modules/SponsorMatrix.sol\":756:37257  contract Nanakshahi {... */\n      mstore\n        /* \"contracts/modules/SponsorMatrix.sol\":35157:35162  users */\n      0x24\n        /* \"contracts/modules/SponsorMatrix.sol\":756:37257  contract Nanakshahi {... */\n      0x20\n      mstore\n        /* \"contracts/modules/SponsorMatrix.sol\":34801:34802  1 */\n      0x01\n        /* \"contracts/modules/SponsorMatrix.sol\":35683:35693  spilover++ */\n      tag_879\n        /* \"contracts/modules/SponsorMatrix.sol\":35634:35660  users[baselineId].uplineId */\n      0x05\n        /* \"contracts/modules/SponsorMatrix.sol\":756:37257  contract Nanakshahi {... */\n      0x40\n        /* \"contracts/modules/SponsorMatrix.sol\":34351:34352  0 */\n      0x00\n        /* \"contracts/modules/SponsorMatrix.sol\":756:37257  contract Nanakshahi {... */\n      keccak256\n        /* \"contracts/modules/SponsorMatrix.sol\":35634:35660  users[baselineId].uplineId */\n      add\n        /* \"contracts/modules/SponsorMatrix.sol\":756:37257  contract Nanakshahi {... */\n      sload\n        /* \"contracts/modules/SponsorMatrix.sol\":35683:35693  spilover++ */\n      swap8\n      tag_41\n      jump\t// in\n    tag_879:\n        /* \"contracts/modules/SponsorMatrix.sol\":35154:35713  if(users[baselineId].level >= _packageLevel)... */\n      swap4\n      jump(tag_865)\n        /* \"contracts/modules/SponsorMatrix.sol\":35074:35119  baselineId != 0 && baselineId != defaultRefId */\n    tag_851:\n        /* \"contracts/modules/SponsorMatrix.sol\":756:37257  contract Nanakshahi {... */\n      pop\n        /* \"contracts/modules/SponsorMatrix.sol\":35107:35119  defaultRefId */\n      0x05\n        /* \"contracts/modules/SponsorMatrix.sol\":756:37257  contract Nanakshahi {... */\n      sload\n        /* \"contracts/modules/SponsorMatrix.sol\":35093:35119  baselineId != defaultRefId */\n      dup8\n      eq\n      iszero\n        /* \"contracts/modules/SponsorMatrix.sol\":35074:35119  baselineId != 0 && baselineId != defaultRefId */\n      jump(tag_852)\n        /* \"contracts/modules/SponsorMatrix.sol\":34339:34380  _startId == 0 || _startId == defaultRefId */\n    tag_835:\n        /* \"contracts/modules/SponsorMatrix.sol\":756:37257  contract Nanakshahi {... */\n      pop\n        /* \"contracts/modules/SponsorMatrix.sol\":34368:34380  defaultRefId */\n      0x05\n        /* \"contracts/modules/SponsorMatrix.sol\":756:37257  contract Nanakshahi {... */\n      sload\n        /* \"contracts/modules/SponsorMatrix.sol\":34356:34380  _startId == defaultRefId */\n      dup2\n      eq\n        /* \"contracts/modules/SponsorMatrix.sol\":34339:34380  _startId == 0 || _startId == defaultRefId */\n      jump(tag_836)\n        /* \"contracts/modules/SponsorMatrix.sol\":17375:18664  function _distributePoolIncome( uint _parentId, uint _poolId, uint _userMainId, uint _amount) private {... */\n    tag_44:\n      swap2\n      swap3\n        /* \"contracts/modules/SponsorMatrix.sol\":17494:17508  _parentId == 0 */\n      dup3\n      iszero\n        /* \"contracts/modules/SponsorMatrix.sol\":17494:17537  _parentId == 0 || _parentId == defaultRefId */\n      dup1\n      iszero\n      tag_882\n      jumpi\n        /* \"contracts/modules/SponsorMatrix.sol\":17375:18664  function _distributePoolIncome( uint _parentId, uint _poolId, uint _userMainId, uint _amount) private {... */\n    tag_883:\n        /* \"contracts/modules/SponsorMatrix.sol\":17490:17610  if (_parentId == 0 || _parentId == defaultRefId) {... */\n      tag_774\n      jumpi\n        /* \"contracts/modules/SponsorMatrix.sol\":17661:17662  3 */\n      0x03\n        /* \"contracts/modules/SponsorMatrix.sol\":756:37257  contract Nanakshahi {... */\n      swap1\n      div\n        /* \"contracts/modules/SponsorMatrix.sol\":17681:17689  uint i=0 */\n      swap1\n        /* \"contracts/modules/SponsorMatrix.sol\":17507:17508  0 */\n      0x00\n        /* \"contracts/modules/SponsorMatrix.sol\":17691:17694  i<3 */\n    tag_886:\n        /* \"contracts/modules/SponsorMatrix.sol\":17661:17662  3 */\n      0x03\n        /* \"contracts/modules/SponsorMatrix.sol\":17691:17694  i<3 */\n      dup2\n      lt\n      tag_887\n      jumpi\n        /* \"contracts/modules/SponsorMatrix.sol\":17375:18664  function _distributePoolIncome( uint _parentId, uint _poolId, uint _userMainId, uint _amount) private {... */\n      pop\n      pop\n      pop\n      pop\n      pop\n      jump\t// out\n        /* \"contracts/modules/SponsorMatrix.sol\":17696:17699  i++ */\n    tag_887:\n        /* \"contracts/modules/SponsorMatrix.sol\":756:37257  contract Nanakshahi {... */\n      dup2\n        /* \"contracts/modules/SponsorMatrix.sol\":17507:17508  0 */\n      0x00\n        /* \"contracts/modules/SponsorMatrix.sol\":756:37257  contract Nanakshahi {... */\n      mstore\n        /* \"contracts/modules/SponsorMatrix.sol\":17753:17764  userPooldtl */\n      0x1a\n        /* \"contracts/modules/SponsorMatrix.sol\":756:37257  contract Nanakshahi {... */\n      0x20\n      mstore\n      0x40\n        /* \"contracts/modules/SponsorMatrix.sol\":17507:17508  0 */\n      0x00\n        /* \"contracts/modules/SponsorMatrix.sol\":756:37257  contract Nanakshahi {... */\n      keccak256\n      dup5\n        /* \"contracts/modules/SponsorMatrix.sol\":17507:17508  0 */\n      0x00\n        /* \"contracts/modules/SponsorMatrix.sol\":756:37257  contract Nanakshahi {... */\n      mstore\n      0x20\n      mstore\n      0x40\n        /* \"contracts/modules/SponsorMatrix.sol\":17507:17508  0 */\n      0x00\n        /* \"contracts/modules/SponsorMatrix.sol\":756:37257  contract Nanakshahi {... */\n      keccak256\n        /* \"contracts/modules/SponsorMatrix.sol\":17819:17831  userp.mainid */\n      swap1\n        /* \"contracts/modules/SponsorMatrix.sol\":17866:17882  userp.bonusCount */\n      0x04\n        /* \"contracts/modules/SponsorMatrix.sol\":756:37257  contract Nanakshahi {... */\n      0x01\n        /* \"contracts/modules/SponsorMatrix.sol\":17819:17831  userp.mainid */\n      dup4\n      add\n        /* \"contracts/modules/SponsorMatrix.sol\":756:37257  contract Nanakshahi {... */\n      sload\n        /* \"contracts/modules/SponsorMatrix.sol\":17866:17882  userp.bonusCount */\n      swap3\n      add\n        /* \"contracts/modules/SponsorMatrix.sol\":756:37257  contract Nanakshahi {... */\n      swap2\n      dup3\n      sload\n        /* \"contracts/modules/SponsorMatrix.sol\":17883:17885  39 */\n      0x27\n        /* \"contracts/modules/SponsorMatrix.sol\":17866:17885  userp.bonusCount<39 */\n      dup2\n      lt\n        /* \"contracts/modules/SponsorMatrix.sol\":17863:18637  if(userp.bonusCount<39)... */\n      tag_889\n      jumpi\n        /* \"contracts/modules/SponsorMatrix.sol\":17696:17699  i++ */\n    tag_890:\n      pop\n      pop\n        /* \"contracts/modules/SponsorMatrix.sol\":756:37257  contract Nanakshahi {... */\n      0x01\n        /* \"contracts/modules/SponsorMatrix.sol\":17696:17699  i++ */\n      swap2\n      pop\n        /* \"contracts/modules/SponsorMatrix.sol\":756:37257  contract Nanakshahi {... */\n      add\n        /* \"contracts/modules/SponsorMatrix.sol\":17681:17689  uint i=0 */\n      jump(tag_886)\n        /* \"contracts/modules/SponsorMatrix.sol\":17863:18637  if(userp.bonusCount<39)... */\n    tag_889:\n        /* \"contracts/modules/SponsorMatrix.sol\":17939:17941  24 */\n      0x18\n        /* \"contracts/modules/SponsorMatrix.sol\":17922:17941  userp.bonusCount<24 */\n      dup2\n      lt\n        /* \"contracts/modules/SponsorMatrix.sol\":17919:18087  if(userp.bonusCount<24){... */\n      tag_891\n      jumpi\n        /* \"contracts/modules/SponsorMatrix.sol\":17863:18637  if(userp.bonusCount<39)... */\n    tag_892:\n        /* \"contracts/modules/SponsorMatrix.sol\":756:37257  contract Nanakshahi {... */\n      pop\n      dup3\n      sload\n        /* \"contracts/modules/SponsorMatrix.sol\":17939:17941  24 */\n      0x18\n        /* \"contracts/modules/SponsorMatrix.sol\":18108:18128  userp.bonusCount>=24 */\n      dup2\n      lt\n      iszero\n        /* \"contracts/modules/SponsorMatrix.sol\":18108:18151  userp.bonusCount>=24 && userp.bonusCount<36 */\n      dup1\n      tag_893\n      jumpi\n        /* \"contracts/modules/SponsorMatrix.sol\":17863:18637  if(userp.bonusCount<39)... */\n    tag_894:\n        /* \"contracts/modules/SponsorMatrix.sol\":18105:18366  if(userp.bonusCount>=24 && userp.bonusCount<36){... */\n      tag_895\n      jumpi\n        /* \"contracts/modules/SponsorMatrix.sol\":17863:18637  if(userp.bonusCount<39)... */\n    tag_896:\n        /* \"contracts/modules/SponsorMatrix.sol\":756:37257  contract Nanakshahi {... */\n      pop\n      dup3\n      sload\n        /* \"contracts/modules/SponsorMatrix.sol\":18405:18407  36 */\n      0x24\n        /* \"contracts/modules/SponsorMatrix.sol\":18387:18407  userp.bonusCount>=36 */\n      dup2\n      lt\n        /* \"contracts/modules/SponsorMatrix.sol\":17863:18637  if(userp.bonusCount<39)... */\n      tag_890\n        /* \"contracts/modules/SponsorMatrix.sol\":18384:18622  if(userp.bonusCount>=36 ){... */\n      jumpi\n        /* \"contracts/modules/SponsorMatrix.sol\":756:37257  contract Nanakshahi {... */\n      0x01\n      dup2\n      add\n      dup1\n      swap2\n      gt\n      tag_199\n      jumpi\n      0x01\n      swap4\n      sstore\n      dup4\n        /* \"contracts/modules/SponsorMatrix.sol\":17507:17508  0 */\n      0x00\n        /* \"contracts/modules/SponsorMatrix.sol\":756:37257  contract Nanakshahi {... */\n      mstore\n        /* \"contracts/modules/SponsorMatrix.sol\":18476:18489  userPooltopup */\n      0x19\n        /* \"contracts/modules/SponsorMatrix.sol\":756:37257  contract Nanakshahi {... */\n      0x20\n      mstore\n      0x40\n        /* \"contracts/modules/SponsorMatrix.sol\":17507:17508  0 */\n      0x00\n        /* \"contracts/modules/SponsorMatrix.sol\":756:37257  contract Nanakshahi {... */\n      keccak256\n      swap1\n        /* \"contracts/modules/SponsorMatrix.sol\":17507:17508  0 */\n      0x00\n        /* \"contracts/modules/SponsorMatrix.sol\":756:37257  contract Nanakshahi {... */\n      mstore\n      0x20\n      mstore\n      dup2\n      0x40\n        /* \"contracts/modules/SponsorMatrix.sol\":17507:17508  0 */\n      0x00\n        /* \"contracts/modules/SponsorMatrix.sol\":756:37257  contract Nanakshahi {... */\n      keccak256\n        /* \"contracts/modules/SponsorMatrix.sol\":18476:18523  userPooltopup[_poolId][parentMainId].reTopupAmt */\n      add\n        /* \"contracts/modules/SponsorMatrix.sol\":18476:18542  userPooltopup[_poolId][parentMainId].reTopupAmt += _amountPerLevel */\n      tag_901\n        /* \"contracts/modules/SponsorMatrix.sol\":756:37257  contract Nanakshahi {... */\n      dup6\n      dup3\n      sload\n        /* \"contracts/modules/SponsorMatrix.sol\":18476:18542  userPooltopup[_poolId][parentMainId].reTopupAmt += _amountPerLevel */\n      tag_14\n      jump\t// in\n    tag_901:\n        /* \"contracts/modules/SponsorMatrix.sol\":756:37257  contract Nanakshahi {... */\n      swap1\n      sstore\n        /* \"contracts/modules/SponsorMatrix.sol\":18384:18622  if(userp.bonusCount>=36 ){... */\n      0x00\n      dup1\n        /* \"contracts/modules/SponsorMatrix.sol\":17863:18637  if(userp.bonusCount<39)... */\n      jump(tag_890)\n        /* \"contracts/modules/SponsorMatrix.sol\":18105:18366  if(userp.bonusCount>=24 && userp.bonusCount<36){... */\n    tag_895:\n        /* \"contracts/modules/SponsorMatrix.sol\":756:37257  contract Nanakshahi {... */\n      0x01\n      dup2\n      add\n      dup1\n      swap2\n      gt\n      tag_199\n      jumpi\n      dup4\n      sstore\n      dup4\n        /* \"contracts/modules/SponsorMatrix.sol\":17507:17508  0 */\n      0x00\n        /* \"contracts/modules/SponsorMatrix.sol\":756:37257  contract Nanakshahi {... */\n      mstore\n        /* \"contracts/modules/SponsorMatrix.sol\":18218:18231  userPooltopup */\n      0x19\n        /* \"contracts/modules/SponsorMatrix.sol\":756:37257  contract Nanakshahi {... */\n      0x20\n      mstore\n      0x40\n        /* \"contracts/modules/SponsorMatrix.sol\":17507:17508  0 */\n      0x00\n        /* \"contracts/modules/SponsorMatrix.sol\":756:37257  contract Nanakshahi {... */\n      keccak256\n      dup2\n        /* \"contracts/modules/SponsorMatrix.sol\":17507:17508  0 */\n      0x00\n        /* \"contracts/modules/SponsorMatrix.sol\":756:37257  contract Nanakshahi {... */\n      mstore\n      0x20\n      mstore\n      0x40\n        /* \"contracts/modules/SponsorMatrix.sol\":17507:17508  0 */\n      0x00\n        /* \"contracts/modules/SponsorMatrix.sol\":756:37257  contract Nanakshahi {... */\n      keccak256\n        /* \"contracts/modules/SponsorMatrix.sol\":18218:18285  userPooltopup[_poolId][parentMainId].nextPoolAmt += _amountPerLevel */\n      tag_904\n        /* \"contracts/modules/SponsorMatrix.sol\":756:37257  contract Nanakshahi {... */\n      dup7\n      dup3\n      sload\n        /* \"contracts/modules/SponsorMatrix.sol\":18218:18285  userPooltopup[_poolId][parentMainId].nextPoolAmt += _amountPerLevel */\n      tag_14\n      jump\t// in\n    tag_904:\n        /* \"contracts/modules/SponsorMatrix.sol\":756:37257  contract Nanakshahi {... */\n      swap1\n      sstore\n        /* \"contracts/modules/SponsorMatrix.sol\":18105:18366  if(userp.bonusCount>=24 && userp.bonusCount<36){... */\n      0x00\n      jump(tag_896)\n        /* \"contracts/modules/SponsorMatrix.sol\":18108:18151  userp.bonusCount>=24 && userp.bonusCount<36 */\n    tag_893:\n        /* \"contracts/modules/SponsorMatrix.sol\":18132:18151  userp.bonusCount<36 */\n      pop\n        /* \"contracts/modules/SponsorMatrix.sol\":18149:18151  36 */\n      0x24\n        /* \"contracts/modules/SponsorMatrix.sol\":18132:18151  userp.bonusCount<36 */\n      dup2\n      lt\n        /* \"contracts/modules/SponsorMatrix.sol\":18108:18151  userp.bonusCount>=24 && userp.bonusCount<36 */\n      jump(tag_894)\n        /* \"contracts/modules/SponsorMatrix.sol\":17919:18087  if(userp.bonusCount<24){... */\n    tag_891:\n        /* \"contracts/modules/SponsorMatrix.sol\":756:37257  contract Nanakshahi {... */\n      0x01\n      dup2\n      add\n      dup1\n      swap2\n      gt\n      tag_199\n      jumpi\n      dup4\n      sstore\n      dup1\n        /* \"contracts/modules/SponsorMatrix.sol\":17507:17508  0 */\n      0x00\n        /* \"contracts/modules/SponsorMatrix.sol\":756:37257  contract Nanakshahi {... */\n      mstore\n        /* \"contracts/modules/SponsorMatrix.sol\":18867:18878  userIncomes */\n      0x25\n        /* \"contracts/modules/SponsorMatrix.sol\":756:37257  contract Nanakshahi {... */\n      0x20\n      mstore\n        /* \"contracts/modules/SponsorMatrix.sol\":18937:18951  inc.poolIncome */\n      0x08\n        /* \"contracts/modules/SponsorMatrix.sol\":756:37257  contract Nanakshahi {... */\n      0x40\n        /* \"contracts/modules/SponsorMatrix.sol\":17507:17508  0 */\n      0x00\n        /* \"contracts/modules/SponsorMatrix.sol\":756:37257  contract Nanakshahi {... */\n      keccak256\n        /* \"contracts/modules/SponsorMatrix.sol\":18901:18926  inc.totalIncome += amount */\n      tag_907\n        /* \"contracts/modules/SponsorMatrix.sol\":756:37257  contract Nanakshahi {... */\n      dup8\n      dup3\n      sload\n        /* \"contracts/modules/SponsorMatrix.sol\":18901:18926  inc.totalIncome += amount */\n      tag_14\n      jump\t// in\n    tag_907:\n        /* \"contracts/modules/SponsorMatrix.sol\":756:37257  contract Nanakshahi {... */\n      dup2\n      sstore\n        /* \"contracts/modules/SponsorMatrix.sol\":18937:18951  inc.poolIncome */\n      add\n        /* \"contracts/modules/SponsorMatrix.sol\":18937:18961  inc.poolIncome += amount */\n      tag_908\n        /* \"contracts/modules/SponsorMatrix.sol\":756:37257  contract Nanakshahi {... */\n      dup7\n      dup3\n      sload\n        /* \"contracts/modules/SponsorMatrix.sol\":18937:18961  inc.poolIncome += amount */\n      tag_14\n      jump\t// in\n    tag_908:\n        /* \"contracts/modules/SponsorMatrix.sol\":756:37257  contract Nanakshahi {... */\n      swap1\n      sstore\n      dup1\n        /* \"contracts/modules/SponsorMatrix.sol\":17507:17508  0 */\n      0x00\n        /* \"contracts/modules/SponsorMatrix.sol\":756:37257  contract Nanakshahi {... */\n      mstore\n        /* \"contracts/modules/SponsorMatrix.sol\":18974:18987  incomeHistory */\n      0x26\n        /* \"contracts/modules/SponsorMatrix.sol\":756:37257  contract Nanakshahi {... */\n      0x20\n      mstore\n        /* \"contracts/modules/SponsorMatrix.sol\":18974:19222  incomeHistory[receiverId].push(Income({... */\n      tag_909\n        /* \"contracts/modules/SponsorMatrix.sol\":756:37257  contract Nanakshahi {... */\n      0x40\n        /* \"contracts/modules/SponsorMatrix.sol\":17507:17508  0 */\n      0x00\n        /* \"contracts/modules/SponsorMatrix.sol\":756:37257  contract Nanakshahi {... */\n      keccak256\n      mload(0x40)\n      swap1\n      tag_910\n      dup3\n      tag_16\n      jump\t// in\n    tag_910:\n      dup10\n      dup3\n      mstore\n        /* \"contracts/modules/SponsorMatrix.sol\":19005:19221  Income({... */\n      dup8\n        /* \"contracts/modules/SponsorMatrix.sol\":756:37257  contract Nanakshahi {... */\n      0x20\n        /* \"contracts/modules/SponsorMatrix.sol\":19005:19221  Income({... */\n      dup4\n      add\n        /* \"contracts/modules/SponsorMatrix.sol\":756:37257  contract Nanakshahi {... */\n      mstore\n      0x01\n      0x40\n        /* \"contracts/modules/SponsorMatrix.sol\":19005:19221  Income({... */\n      dup4\n      add\n        /* \"contracts/modules/SponsorMatrix.sol\":756:37257  contract Nanakshahi {... */\n      mstore\n        /* \"contracts/modules/SponsorMatrix.sol\":19141:19156  block.timestamp */\n      timestamp\n        /* \"contracts/modules/SponsorMatrix.sol\":19005:19221  Income({... */\n      0x60\n      dup4\n      add\n        /* \"contracts/modules/SponsorMatrix.sol\":756:37257  contract Nanakshahi {... */\n      mstore\n        /* \"contracts/modules/SponsorMatrix.sol\":19183:19185  10 */\n      0x0a\n        /* \"contracts/modules/SponsorMatrix.sol\":19005:19221  Income({... */\n      0x80\n      dup4\n      add\n        /* \"contracts/modules/SponsorMatrix.sol\":756:37257  contract Nanakshahi {... */\n      mstore\n        /* \"contracts/modules/SponsorMatrix.sol\":18974:19222  incomeHistory[receiverId].push(Income({... */\n      tag_28\n      jump\t// in\n    tag_909:\n        /* \"contracts/modules/SponsorMatrix.sol\":17507:17508  0 */\n      0x00\n        /* \"contracts/modules/SponsorMatrix.sol\":756:37257  contract Nanakshahi {... */\n      dup2\n      dup2\n      mstore\n        /* \"contracts/modules/SponsorMatrix.sol\":19248:19253  users */\n      0x24\n        /* \"contracts/modules/SponsorMatrix.sol\":756:37257  contract Nanakshahi {... */\n      0x20\n      mstore\n      0x40\n      swap1\n      keccak256\n      sload\n      sub(shl(0xa0, 0x01), 0x01)\n      and\n      dup6\n      iszero\n        /* \"contracts/modules/SponsorMatrix.sol\":19310:19312  95 */\n      0x5f\n        /* \"contracts/modules/SponsorMatrix.sol\":756:37257  contract Nanakshahi {... */\n      dup8\n      dup2\n      mul\n      swap1\n      dup9\n      dup3\n      div\n      eq\n      dup3\n      or\n      iszero\n      tag_199\n      jumpi\n        /* \"contracts/modules/SponsorMatrix.sol\":17507:17508  0 */\n      0x00\n        /* \"contracts/modules/SponsorMatrix.sol\":756:37257  contract Nanakshahi {... */\n      dup1\n      sload\n      mload(0x40)\n      shl(0xe0, 0xa9059cbb)\n        /* \"contracts/modules/SponsorMatrix.sol\":19329:19357  usdt.transfer(to, netamount) */\n      dup2\n      mstore\n      sub(shl(0xa0, 0x01), 0x01)\n        /* \"contracts/modules/SponsorMatrix.sol\":756:37257  contract Nanakshahi {... */\n      dup7\n      dup2\n      and\n        /* \"contracts/modules/SponsorMatrix.sol\":17866:17882  userp.bonusCount */\n      0x04\n        /* \"contracts/modules/SponsorMatrix.sol\":19329:19357  usdt.transfer(to, netamount) */\n      dup4\n      add\n        /* \"contracts/modules/SponsorMatrix.sol\":756:37257  contract Nanakshahi {... */\n      mstore\n        /* \"contracts/modules/SponsorMatrix.sol\":19315:19318  100 */\n      0x64\n        /* \"contracts/modules/SponsorMatrix.sol\":756:37257  contract Nanakshahi {... */\n      swap1\n      swap5\n      div\n      0x24\n      dup3\n      add\n      mstore\n      swap3\n      0x20\n      swap3\n      dup5\n      swap3\n      0x44\n      swap3\n      dup5\n      swap3\n        /* \"contracts/modules/SponsorMatrix.sol\":17507:17508  0 */\n      swap2\n        /* \"contracts/modules/SponsorMatrix.sol\":756:37257  contract Nanakshahi {... */\n      and\n        /* \"contracts/modules/SponsorMatrix.sol\":19329:19357  usdt.transfer(to, netamount) */\n      gas\n      call\n      dup1\n      iszero\n      tag_161\n      jumpi\n      tag_916\n      jumpi\n        /* \"contracts/modules/SponsorMatrix.sol\":17919:18087  if(userp.bonusCount<24){... */\n    tag_917:\n        /* \"contracts/modules/SponsorMatrix.sol\":756:37257  contract Nanakshahi {... */\n      pop\n        /* \"contracts/modules/SponsorMatrix.sol\":19391:19392  5 */\n      0x05\n        /* \"contracts/modules/SponsorMatrix.sol\":756:37257  contract Nanakshahi {... */\n      dup8\n      mul\n      swap1\n      dup8\n      dup3\n      div\n        /* \"contracts/modules/SponsorMatrix.sol\":19391:19392  5 */\n      0x05\n        /* \"contracts/modules/SponsorMatrix.sol\":756:37257  contract Nanakshahi {... */\n      eq\n      or\n      iszero\n      tag_199\n      jumpi\n        /* \"contracts/modules/SponsorMatrix.sol\":19315:19318  100 */\n      0x64\n        /* \"contracts/modules/SponsorMatrix.sol\":19383:19399  (amount*5) / 100 */\n      tag_920\n        /* \"contracts/modules/SponsorMatrix.sol\":756:37257  contract Nanakshahi {... */\n      swap2\n      div\n        /* \"contracts/modules/SponsorMatrix.sol\":19383:19399  (amount*5) / 100 */\n      tag_38\n      jump\t// in\n    tag_920:\n        /* \"contracts/modules/SponsorMatrix.sol\":756:37257  contract Nanakshahi {... */\n      dup8\n        /* \"contracts/modules/SponsorMatrix.sol\":17507:17508  0 */\n      0x00\n        /* \"contracts/modules/SponsorMatrix.sol\":756:37257  contract Nanakshahi {... */\n      mstore\n        /* \"contracts/modules/SponsorMatrix.sol\":19248:19253  users */\n      0x24\n        /* \"contracts/modules/SponsorMatrix.sol\":756:37257  contract Nanakshahi {... */\n      0x20\n      mstore\n      0x01\n      dup1\n      0xa0\n      shl\n      sub\n      0x40\n        /* \"contracts/modules/SponsorMatrix.sol\":17507:17508  0 */\n      0x00\n        /* \"contracts/modules/SponsorMatrix.sol\":756:37257  contract Nanakshahi {... */\n      keccak256\n      sload\n      and\n      swap1\n      mload(0x00)\n      codecopy(0x00, data_51678340555b44277c2bba9423d75ebead61331b9cde789c13d0820d4f537e29, 0x20)\n      mload(0x00)\n      swap1\n      0x00\n      mstore\n        /* \"contracts/modules/SponsorMatrix.sol\":19005:19221  Income({... */\n      0x60\n        /* \"contracts/modules/SponsorMatrix.sol\":756:37257  contract Nanakshahi {... */\n      mload(0x40)\n      dup10\n      dup2\n      mstore\n      0x01\n      0x20\n      dup3\n      add\n      mstore\n        /* \"contracts/modules/SponsorMatrix.sol\":19183:19185  10 */\n      0x0a\n        /* \"contracts/modules/SponsorMatrix.sol\":756:37257  contract Nanakshahi {... */\n      0x40\n      dup3\n      add\n      mstore\n        /* \"contracts/modules/SponsorMatrix.sol\":19418:19488  IncomeDistributed(to, users[fromId].account, amount, packageLevel, 10) */\n      log3\n        /* \"contracts/modules/SponsorMatrix.sol\":17919:18087  if(userp.bonusCount<24){... */\n      0x00\n      jump(tag_892)\n        /* \"contracts/modules/SponsorMatrix.sol\":19329:19357  usdt.transfer(to, netamount) */\n    tag_916:\n      tag_921\n      swap1\n        /* \"contracts/modules/SponsorMatrix.sol\":756:37257  contract Nanakshahi {... */\n      0x20\n        /* \"contracts/modules/SponsorMatrix.sol\":19329:19357  usdt.transfer(to, netamount) */\n      returndatasize\n      dup2\n      gt\n      tag_231\n      jumpi\n      tag_233\n      dup2\n      dup4\n      tag_17\n      jump\t// in\n    tag_921:\n      jump(tag_917)\n        /* \"contracts/modules/SponsorMatrix.sol\":17494:17537  _parentId == 0 || _parentId == defaultRefId */\n    tag_882:\n        /* \"contracts/modules/SponsorMatrix.sol\":756:37257  contract Nanakshahi {... */\n      pop\n        /* \"contracts/modules/SponsorMatrix.sol\":17525:17537  defaultRefId */\n      0x05\n        /* \"contracts/modules/SponsorMatrix.sol\":756:37257  contract Nanakshahi {... */\n      sload\n        /* \"contracts/modules/SponsorMatrix.sol\":17512:17537  _parentId == defaultRefId */\n      dup4\n      eq\n        /* \"contracts/modules/SponsorMatrix.sol\":17494:17537  _parentId == 0 || _parentId == defaultRefId */\n      jump(tag_883)\n    stop\n    data_51678340555b44277c2bba9423d75ebead61331b9cde789c13d0820d4f537e29 e17b61d324ce17328f433d0ab62581c0f0aa997312bae80fbdfcd2aa9b91d6e3\n    data_92fb4c3df386bc0d49f8847c66cda554c07c2df42e065e03d639278ecf8d94a7 babb6a363fd9a057996d09882c0b74b710d121707d19eeffd91c51c3171a7c91\n\n    auxdata: 0xa264697066735822122019dc330908ab1473887a4e386a20e0239b9cd0dab39b22ac4a9602b529f1d4ec64736f6c634300081e0033\n}\n",
				"bytecode": {
					"linkReferences": {},
					"object": "60806040523461085057604051601f61397738819003918201601f19168301916001600160401b038311848410176105c7578084926080946040528339810103126108505761004d81610893565b61005960208301610893565b610071606061006a60408601610893565b9401610893565b6040519092906101e081016001600160401b038111828210176105c75760405267d02ab486cedc0000815268015af1d78b58c4000060208201526802b5e3af16b1880000604082015268056bc75e2d631000006060820152680ad78ebc5ac620000060808201526815af1d78b58c40000060a0820152682b5e3af16b1880000060c08201526856bc75e2d63100000060e082015268ad78ebc5ac6200000061010082015269015af1d78b58c40000006101208201526902b5e3af16b18800000061014082015269056bc75e2d6310000000610160820152690ad78ebc5ac6200000006101808201526915af1d78b58c400000006101a0820152692b5e3af16b18800000006101c0820152600754600f60075580600f1061080d575b5060075f5260205f20905f5b600f81106107f0575050506101ab610854565b68015af1d78b58c40000815268056bc75e2d6310000060208201526815af1d78b58c40000060408201526856bc75e2d631000000606082015269015af1d78b58c4000000608082015269056bc75e2d631000000060a08201526915af1d78b58c4000000060c08201526008546007600855806007106107ad575b5060085f5260205f20905f5b6007811061079057505050610244610873565b68056bc75e2d631000008152680ad78ebc5ac620000060208201526815af1d78b58c4000006040820152682b5e3af16b1880000060608201526856bc75e2d631000000608082015268ad78ebc5ac6200000060a082015269015af1d78b58c400000060c08201526902b5e3af16b18800000060e082015260095460086009558060081061074d575b5060095f5260205f20905f5b60088110610730575050506102eb610854565b60038152600560208201526007604082015260096060820152600b6080820152600d60a0820152600f60c08201525f5b6007811061071857505061032d610873565b6004815260056020820152600660408201526007606082015260086080820152600960a0820152600a60c0820152600b60e08201525f5b6008811061070057505062015180602f555f80546001600160a01b03199081166001600160a01b03938416178255600280548216948416948517905560038054821696841696909617909555600480548616949092169390931790556103e86005819055600160065580835260246020527f7785b2b245ffefa6a9e02fae93c7f43464cf93d9d4feb8428a1f466255a0ae7f8054909416821784557f7785b2b245ffefa6a9e02fae93c7f43464cf93d9d4feb8428a1f466255a0ae8255600f7f7785b2b245ffefa6a9e02fae93c7f43464cf93d9d4feb8428a1f466255a0ae8555427f7785b2b245ffefa6a9e02fae93c7f43464cf93d9d4feb8428a1f466255a0ae8d5560077f7785b2b245ffefa6a9e02fae93c7f43464cf93d9d4feb8428a1f466255a0ae8981905560087f7785b2b245ffefa6a9e02fae93c7f43464cf93d9d4feb8428a1f466255a0ae8b555490919081905b600f82106106cc57505060098301556005545f91825260236020526040822055805b6008548210156105ef576008548210156105db5760085f525f5160206139375f395f51905f5282015461050d916108bd565b6005546040519192909160a081016001600160401b038111828210176105c757600193600491604052808352602083018181526040840185815260608501915f835260808601935f8552875f52601a60205260405f20905f5260205260405f2095518655518786015551600285015551600384015551910155805f52601d60205261059e60405f20600554906108de565b805f52601c6020526105c060405f2060055490815f5260205260405f206108de565b01906104db565b634e487b7160e01b5f52604160045260245ffd5b634e487b7160e01b5f52603260045260245ffd5b600b830155505f90815b600881106106155750600d015560405161300c908161090b8239f35b90916009548210156105db5760095f525f5160206139575f395f51905f5282015461063f916108bd565b60055460405191929091608081016001600160401b038111828210176105c7576001936003916040528083526020830184815260408401905f825260608501925f8452865f52601f60205260405f20905f5260205260405f2094518555518685015551600284015551910155805f5260216020526106c360405f20600554906108de565b019190916105f9565b9091818310156105db5760075f525f5160206139175f395f51905f528301546001916106f891906108bd565b9201906104b9565b600190602060ff845116930192816011015501610364565b600190602060ff84511693019281600a01550161031b565b81516001600160501b0316818401556020909101906001016102d8565b60095f5261078a905f5160206139575f395f51905f52017f6e1540171b6c0c960b71a7020d9f60077f6af931a8bbf590da0223dacf75c7b76108a7565b5f6102cc565b81516001600160501b031681840155602090910190600101610231565b60085f526107ea905f5160206139375f395f51905f52017ff3f7a9fe364faab93b216da50a3214154f22a0a2b415b23a84c8169e8b636eea6108a7565b5f610225565b81516001600160501b031681840155602090910190600101610198565b60075f5261084a905f5160206139175f395f51905f52017fa66cc928b5edb82af9bd49922954155ab7b0942694bea4ce44661d9a8736c6976108a7565b5f61018c565b5f80fd5b6040519060e082016001600160401b038111838210176105c757604052565b6040519061010082016001600160401b038111838210176105c757604052565b51906001600160a01b038216820361085057565b8181106108b2575050565b5f81556001016108a7565b919082018092116108ca57565b634e487b7160e01b5f52601160045260245ffd5b805490680100000000000000008210156105c757600182018082558210156105db575f5260205f20015556fe6080806040526004361015610012575f80fd5b5f3560e01c90816301be02b214611ad35750806301c234a814611ab75780630ef81b7414611a7f5780630f2b7cc914611a5057806318ab487f14611a265780631f6ab899146118fe5780632132d204146118d257806324513088146118a85780632c8316331461188b5780632f48ab7d1461186457806332bc298c1461184757806332fcd96614611825578063365b98b214611760578063375b43b41461174557806339ab3603146116eb5780634060160a1461152757806345977d031461132557806346b9dece1461129757806352a8c4c41461127a57806358c7d3521461125f5780635aabf7f1146112265780635ec64a44146111f757806367d52d4d146111a057806370c8d7701461113357806378f6ad6d146111165780637cdc65f2146110ee57806381a0b816146110c657806388afbe3e1461109c5780638d58644c146110635780638da5cb5b1461103b5780638e222e2414610e025780638f030ece14610dc9578063907c84a714610d785780639c38348614610d445780639e23463114610d1b578063ae4708dc14610cf2578063bc1fa7c014610a0a578063bd1aae40146109d6578063bf7246721461099e578063bff1f9e114610981578063c216212a14610958578063c7bb62e81461091a578063cb0e0d7d146108de578063ce79c2c31461086f578063d0a2fd7914610843578063d54d6ddb14610825578063e9e34a16146107fd578063ec597e6f146107e0578063f207564e1461026e5763f5d74d9314610242575f80fd5b3461026a575f36600319011261026a576004546040516001600160a01b039091168152602090f35b5f80fd5b3461026a57602036600319011261026a57600435335f52602360205260405f20546107a657805f526024602052600360405f2001541561076f575f80546020906102f9906001600160a01b03166102c3611b4f565b90546040516323b872dd60e01b815233600482015230602482015260039290921b1c604482015293849283919082906064820190565b03925af1801561076457610737575b506005546006546005810290808204600514901517156105835761032b91611c6e565b90335f5260236020528160405f2055815f52602460205260405f2090336bffffffffffffffffffffffff60a01b8354161782554260028301558260038301556004820181815560016006840155610380611b4f565b90549060031b1c600984015542600e840155815f526024602052600760405f2001805490600182018092116105835755815f5260296020526103c58460405f20612260565b603054600160401b811015610723578060016103e692016030556030611b81565b81549060031b9086821b915f19901b1916179055602a54845f52602b60205260405f20555f5f90835f526028602052600260405f2054105f146105f8575050835f52602460205281600560405f200155815f52602860205260405f20805490600182018092116105835755815b5f905b600f8210610597575b505061049d61046c611b4f565b90546040519160031b1c61047f82611c7b565b81525f60208201524260408201526001606082015260018501611cd5565b6104a5611b4f565b90549060031b1c90600a8202821592808204600a1484171561058357602381029381850460231481171561058357600582028281046005148217156105835760646104f39104602c54611c6e565b602c556032820291820460321417156105835761052b936105236064899461051d828096046124f7565b0461255e565b049154612664565b60065460018101809111610583576006555f526024602052600560018060a01b0360405f2054169101546040519081527f309bb360e8b69c23937ccc5fb01f9aeeead1c95a99604e175113ff82f2b1723a60203392a4005b634e487b7160e01b5f52601160045260245ffd5b80156105f357805f526024602052600860405f2001805490600182018092116105835755805f52602760205260405f20825f526020526105da8660405f20612260565b5f5260246020526001600560405f200154910190610456565b61045f565b5f5b600f811061060a575b5050610453565b8161071e57845f52602760205260405f2060018201808311610583575f5260205260405f2054600282018083116105835760ff8111610583576001901b11610655575b6001016105fa565b93925f9591955b845f52602760205260405f20865f5260205260405f205481101561071057866106ff57845f52602760205260405f20865f5260205261069e8160405f20611b81565b90549060031b1c805f526028602052600260405f2054106106c3575b5060010161065c565b9193509550865f52602460205280600560405f200155805f52602860205260405f208054906001820180921161058357559160018096906106ba565b5092936001909591955b905061064d565b509293600190959195610709565b610603565b634e487b7160e01b5f52604160045260245ffd5b6107589060203d60201161075d575b6107508183611cb3565b810190611e77565b610308565b503d610746565b6040513d5f823e3d90fd5b60405162461bcd60e51b815260206004820152600f60248201526e24b73b30b634b21039b837b739b7b960891b6044820152606490fd5b60405162461bcd60e51b8152602060048201526012602482015271105b1c9958591e481c9959da5cdd195c995960721b6044820152606490fd5b3461026a575f36600319011261026a576020600554604051908152f35b3461026a575f36600319011261026a576003546040516001600160a01b039091168152602090f35b3461026a57602036600319011261026a57610841600435612054565b005b3461026a57602036600319011261026a57600435600881101561026a5760209060110154604051908152f35b3461026a5761087d36611b96565b905f52601a60205260405f20905f5260205260405f2080546108da6001830154926002810154906004600382015491015491604051958695869192608093969594919660a084019784526020840152604083015260608201520152565b0390f35b3461026a57602036600319011261026a576004356001600160a01b0381169081900361026a575f526023602052602060405f2054604051908152f35b3461026a5761092836611b96565b905f52602160205260405f20805482101561026a5760209161094991611b81565b90549060031b1c604051908152f35b3461026a57602036600319011261026a5760043560075481101561026a57610949602091611b1f565b3461026a575f36600319011261026a576020600654604051908152f35b3461026a576109ac36611b96565b905f52601960205260405f20905f526020526040805f206001815491015482519182526020820152f35b3461026a576109e436611b96565b905f52601e60205260405f20905f52602052602060ff60405f2054166040519015158152f35b3461026a57602036600319011261026a57600435805f52602460205260405f20610a3e60018060a01b038254163314611be8565b600c81019081549160088310610a5381611dab565b15610cde57610a6c836011015460068401541015611de6565b82610cd9575b835f52602260205260405f20835f52602052610a9560ff60405f20541615611e32565b610a9e83611b37565b90545f80546040516323b872dd60e01b815233600482015230602482015260039490941b9290921c60448401819052939291602091839160649183916001600160a01b03165af1801561076457610cbc575b50805490600182018092116105835755835f52602260205260405f20835f5260205260405f20600160ff19825416179055600d8201610b30828254611c6e565b9055610b3f6009548410612294565b610b58610b4b84611b37565b90549060031b1c156122ca565b825f52602160205260405f20604051808260208294549384815201905f5260205f20925f5b818110610ca3575050610b9292500382611cb3565b805192845f526021602052610baa8660405f20612260565b5f19840193841161058357610bc86001926003610c5f960490612309565b51604051610bd581611c7b565b8781526003602082018881526040830184815260608401915f83528a5f52601f60205260405f208c5f5260205260405f2094518555518785015551600284015551910155855f526020805260405f20905f52602052610c378660405f20612260565b60405192610c4484611c7b565b83525f6020840152426040840152600b606084015201611cd5565b60018101809111610583576040519081526040602082015260076040820152662137b7b9ba32b960c91b60608201525f516020612fb75f395f51905f5260803392a3005b8454835260019485019486945060209093019201610b7d565b610cd49060203d60201161075d576107508183611cb3565b610af0565b610a72565b634e487b7160e01b5f52603260045260245ffd5b3461026a57602036600319011261026a5760043560085481101561026a57610949602091611b07565b3461026a57602036600319011261026a5760043560095481101561026a57610949602091611b37565b3461026a57610d5236611b96565b905f52602260205260405f20905f52602052602060ff60405f2054166040519015158152f35b3461026a57610d8636611b96565b905f52601f60205260405f20905f52602052608060405f208054906001810154906003600282015491015491604051938452602084015260408301526060820152f35b3461026a57610dd736611aed565b915f52601b60205260405f20905f5260205260405f20805482101561026a5760209161094991611b81565b3461026a5763ffffffff610e1536611bac565b911690815f52602460205260405f20610e3860018060a01b038254163314611be8565b600a810191610e4a6007845410611c27565b60018101928382116105835760085484101561100557610e6984611b07565b90549060031b1c6007831015610cde57610e8d83600a015460068601541015611de6565b825f52601960205260405f20865f5260205260405f208054828110610fc057875f52601e60205260405f20875f5260205260ff60405f205416610f7b5782610ed491611c61565b90558154916001830180931161058357600294610f2b9360019255600b8101610efe848254611c6e565b9055875f52601e60205260405f20875f5260205260405f208260ff19825416179055610c3783898961231d565b0180911161058357604051908152604060208201526016604082015275506f6f6c205570677261646520284561726e696e672960501b60608201525f516020612fb75f395f51905f5260803392a3005b60405162461bcd60e51b815260206004820152601b60248201527f416c726561647920707572636861736564206e65787420706f6f6c00000000006044820152606490fd5b60405162461bcd60e51b815260206004820152601c60248201527f4e6f7420656e6f756768206e65787420706f6f6c2062616c616e6365000000006044820152606490fd5b60405162461bcd60e51b815260206004820152600e60248201526d139bc81a1a59da195c881c1bdbdb60921b6044820152606490fd5b3461026a575f36600319011261026a576001546040516001600160a01b039091168152602090f35b3461026a5761107136611aed565b915f52601c60205260405f20905f5260205260405f20805482101561026a5760209161094991611b81565b3461026a57602036600319011261026a576004355f526028602052602060405f2054604051908152f35b3461026a575f36600319011261026a57602d546040516001600160a01b039091168152602090f35b3461026a575f36600319011261026a576002546040516001600160a01b039091168152602090f35b3461026a575f36600319011261026a576020602a54604051908152f35b3461026a5761114136611b96565b905f52602660205260405f2090815481101561026a5761116091611bcf565b508054600182015460028301546003840154600490940154604080519485526020850193909352918301526060820192909252608081019190915260a090f35b3461026a57602036600319011261026a5760606111be600435611e8f565b91906020604051938492151583526040828401528051918291826040860152018484015e5f828201840152601f01601f19168101030190f35b3461026a5761120536611b96565b905f52602960205260405f20805482101561026a5760209161094991611b81565b3461026a5761123436611aed565b915f52602760205260405f20905f5260205260405f20805482101561026a5760209161094991611b81565b3461026a575f36600319011261026a576020604051600a8152f35b3461026a575f36600319011261026a576020602f54604051908152f35b3461026a57602036600319011261026a576004355f52602560205261014060405f208054906001810154906002810154600382015460048301546005840154906006850154926007860154946009600888015497015497604051998a5260208a015260408901526060880152608087015260a086015260c085015260e0840152610100830152610120820152f35b3461026a57602036600319011261026a57600435805f52602460205260405f2061135960018060a01b038254163314611be8565b6006810190815491600f8310156114eb5761137383611b1f565b90545f80546040516323b872dd60e01b815233600482015230602482015260039490941b9290921c60448401819052939291602091839160649183916001600160a01b03165af18015610764576114ce575b50805490600182018092116105835755600982016113e4828254611c6e565b90556114146040516113f581611c7b565b8281525f60208201524260408201526001606082015260018401611cd5565b6005810281159082810460051482171561058357602383028381046023148317156105835761144a9161051d60648093046124f7565b600f8202918204600f14171561058357606490049160048201546001820193848311610583578560056114989561148488858582986127a1565b016114928484848454612918565b54612b06565b60405190815260406020820152600460408201526314db1bdd60e21b60608201525f516020612fb75f395f51905f5260803392a3005b6114e69060203d60201161075d576107508183611cb3565b6113c5565b60405162461bcd60e51b8152602060048201526014602482015273105b1c9958591e48185d081b585e081b195d995b60621b6044820152606490fd5b3461026a57602036600319011261026a57600435805f52602460205260405f2061155b60018060a01b038254163314611be8565b600a8101908154916007831061157081611dab565b15610cde5761158983600a015460068401541015611de6565b826116e6575b835f52601e60205260405f20835f526020526115b260ff60405f20541615611e32565b6115bb83611b07565b90545f80546040516323b872dd60e01b815233600482015230602482015260039490941b9290921c60448401819052939291602091839160649183916001600160a01b03165af18015610764576116c9575b5080549260018401809411610583576116889360019255855f52601e60205260405f20855f5260205260405f208260ff19825416179055600b8101611653848254611c6e565b905561166083878761231d565b6040519261166d84611c7b565b83525f6020840152426040840152600a606084015201611cd5565b6001810180911161058357604051908152604060208201526004604082015263141bdbdb60e21b60608201525f516020612fb75f395f51905f5260803392a3005b6116e19060203d60201161075d576107508183611cb3565b61160d565b61158f565b3461026a57602036600319011261026a5760043560305481101561026a57603054811015610cde5760305f527f6ff97a59c90d62cc7236ba3a37cd85351bf564556780cf8c1157a220f31f0cbb0154604051908152602090f35b3461026a575f36600319011261026a57602060405160198152f35b3461026a57602036600319011261026a576004355f5260246020526101c060405f2060018060a01b038154169060028101549060038101546004820154600583015460068401546007850154600886015490600987015492600a88015494600b89015496600c8a015498600e600d8c01549b01549b60206040519e8f908152015260408d015260608c015260808b015260a08a015260c089015260e08801526101008701526101208601526101408501526101608401526101808301526101a0820152f35b3461026a575f36600319011261026a576020604051670de0b6b3a76400008152f35b3461026a575f36600319011261026a576020604051620151808152f35b3461026a575f36600319011261026a575f546040516001600160a01b039091168152602090f35b3461026a575f36600319011261026a576020602c54604051908152f35b3461026a57602036600319011261026a5760406118c6600435611d4a565b82519182526020820152f35b3461026a57602036600319011261026a57600435600781101561026a57602090600a0154604051908152f35b3461026a5763ffffffff61191136611bac565b911690815f52602460205260405f2061193460018060a01b038254163314611be8565b6119446007600a83015410611c27565b61194d82611b07565b90549060031b1c825f52601960205260405f20845f52602052600160405f2001918254908282106119e1576119999361198884600194611c61565b9055600b8101611653848254611c6e565b604051908152604060208201526016604082015275506f6f6c205265546f70757020284561726e696e672960501b60608201525f516020612fb75f395f51905f5260803392a3005b60405162461bcd60e51b815260206004820152601a60248201527f4e6f7420656e6f756768207265546f7075702062616c616e63650000000000006044820152606490fd5b3461026a57602036600319011261026a576004355f52602b602052602060405f2054604051908152f35b3461026a57611a5e36611b96565b905f52601d60205260405f20805482101561026a5760209161094991611b81565b3461026a57611a8d36611aed565b915f526020805260405f20905f5260205260405f20805482101561026a5760209161094991611b81565b3461026a575f36600319011261026a5760206040516127108152f35b3461026a575f36600319011261026a57602090602e548152f35b606090600319011261026a57600435906024359060443590565b600854811015610cde5760085f5260205f2001905f90565b600754811015610cde5760075f5260205f2001905f90565b600954811015610cde5760095f5260205f2001905f90565b60075415610cde5760075f9081527fa66cc928b5edb82af9bd49922954155ab7b0942694bea4ce44661d9a8736c68891565b8054821015610cde575f5260205f2001905f90565b604090600319011261026a576004359060243590565b604090600319011261026a5760043563ffffffff8116810361026a579060243590565b8054821015610cde575f52600560205f20910201905f90565b15611bef57565b60405162461bcd60e51b815260206004820152601060248201526f139bdd081e5bdd5c881858d8dbdd5b9d60821b6044820152606490fd5b15611c2e57565b60405162461bcd60e51b815260206004820152600b60248201526a105d081b585e081c1bdbdb60aa1b6044820152606490fd5b9190820391821161058357565b9190820180921161058357565b6080810190811067ffffffffffffffff82111761072357604052565b60a0810190811067ffffffffffffffff82111761072357604052565b90601f8019910116810190811067ffffffffffffffff82111761072357604052565b8054600160401b8110156107235760018101808355811015610cde57600360609160ff935f5260205f209060021b01845181556020850151600182015560408501516002820155019201511660ff19825416179055565b8115611d36570490565b634e487b7160e01b5f52601260045260245ffd5b90815f526024602052600360405f20015415611da457602a54825f52602b60205260405f20549081811115611d9a57611d8f611d9792670de0b6b3a764000092611c61565b048093612485565b90565b505090505f905f90565b5f91508190565b15611db257565b60405162461bcd60e51b815260206004820152600c60248201526b105d081b585e081b195d995b60a21b6044820152606490fd5b15611ded57565b60405162461bcd60e51b815260206004820152601860248201527f5570677261646520796f7572206c6576656c20666972737400000000000000006044820152606490fd5b15611e3957565b60405162461bcd60e51b8152602060048201526016602482015275141bdbdb08185b1c9958591e481c1d5c98da185cd95960521b6044820152606490fd5b9081602091031261026a5751801515810361026a5790565b6060905f52602460205260405f20600a81015491600854831015611fa157506007821015610cde57600682600a015491015410611f5457151580611f4d575b611f1057600190604051611ee3604082611cb3565b601981527f456c696769626c6520746f20627579206e65787420706f6f6c00000000000000602082015290565b5f90604051611f20604082611cb3565b601781527f4275792070726576696f757320706f6f6c206669727374000000000000000000602082015290565b505f611ece565b505f90604051611f65606082611cb3565b602681527f596f75206e65656420746f207265616368206120686967686572206c6576656c60208201526508199a5c9cdd60d21b604082015290565b929150505f91611fb46040519182611cb3565b602381527f596f752061726520616c726561647920617420746865206869676865737420706020820152621bdbdb60ea1b604082015290565b8054600160401b8110156107235761200a91600182018155611bcf565b919091612041578051825560208101516001830155604081015160028301556060810151600383015560800151600490910155565b565b634e487b7160e01b5f525f60045260245ffd5b805f52602460205260405f209060038201541561222a5761207f60018060a01b038354163314611be8565b602a5491815f52602b60205260405f2054808414612224576120aa670de0b6b3a76400009185611c61565b04918215612213576120bc8382612485565b93815f52602b60205260405f205583806120f0575b91505081116120de575050565b61203f916120eb91611c61565b61255e565b6121989261215a836020945f5260258552600760405f20612112868254611c6e565b815501612120858254611c6e565b9055805f526026855260405f206040519161213a83611c97565b825284868301526001604083015242606083015260096080830152611fed565b5f8054915460405163a9059cbb60e01b81526001600160a01b0391821660048201526024810194909452929485939092169183919082906044820190565b03925af1908115610764575f916121f4575b50156121b8575f80836120d1565b60405162461bcd60e51b81526020600482015260146024820152731554d115081d1c985b9cd9995c8819985a5b195960621b6044820152606490fd5b61220d915060203d60201161075d576107508183611cb3565b5f6121aa565b9150505f52602b60205260405f2055565b50505050565b60405162461bcd60e51b815260206004820152600e60248201526d155cd95c881b9bdd08199bdd5b9960921b6044820152606490fd5b8054600160401b8110156107235761227d91600182018155611b81565b819291549060031b91821b915f19901b1916179055565b1561229b57565b60405162461bcd60e51b8152602060048201526007602482015266125b9d985b1a5960ca1b6044820152606490fd5b156122d157565b60405162461bcd60e51b815260206004820152601060248201526f125b98dbdc9c9958dd08185b5bdd5b9d60821b6044820152606490fd5b8051821015610cde5760209160051b010190565b919061232c6008548410612294565b61234661233884611b07565b90549060031b1c34146122ca565b825f52601d60205260405f2092604051808560208297549384815201905f5260205f20925f5b81811061246c57505061238192500385611cb3565b83519361239085600554611c6e565b90825f52601d6020526123a68260405f20612260565b5f198601958611610583576123c561246791600361203f980490612309565b519161242d6040516123d681611c97565b82815260208082018881526040808401898152606085018981525f608087018181528c8252601a87528482208a83529096529290922094518555915160018501559051600284015551600383015551600490910155565b835f52601c60205260405f20855f5260205261244c8160405f20612260565b835f52601b60205260405f20835f5260205260405f20612260565b612d2f565b845483526001948501948994506020909301920161236c565b805f52602460205260405f20905f52602560205260405f20906006810154600754146124f2576009015460198102908082046019149015171561058357600a90049054818110156124eb576124d991611c61565b90818111156124e6575090565b905090565b5050505f90565b505090565b6030549081158015612556575b61254357670de0b6b3a7640000810290808204670de0b6b3a764000014901517156105835761253e9161253691611d2c565b602a54611c6e565b602a55565b80915061254d5750565b61203f9061255e565b508015612504565b6002546001600160a01b031690811561262b575f805460405163a9059cbb60e01b81526001600160a01b03948516600482015260248101849052936020928592604492849291165af19182156107645761203f9261260e575b506005545f52602560205260405f206125d1828254611c6e565b90556005545f52602660205260405f20604051916125ee83611c97565b5f835260208301525f604083015242606083015260056080830152611fed565b6126269060203d60201161075d576107508183611cb3565b6125b7565b60405162461bcd60e51b8152602060048201526011602482015270199959481859191c9cc81b9bdd081cd95d607a1b6044820152606490fd5b80158015612796575b61278b575f81815260246020818152604080842084548154925163a9059cbb60e01b81526001600160a01b0393841660048201529485018990529095948492604492849291165af180156107645761276e575b50805f526025602052600160405f206126da868254611c6e565b8155016126e8858254611c6e565b90555f52602660205261272760405f206040519061270582611c97565b8482528560208301526001604083015242606083015260016080830152611fed565b60018060a01b03905416905f5260246020525f516020612f975f395f51905f52606060018060a01b0360405f205416936040519081526001602082015260016040820152a3565b6127869060203d60201161075d576107508183611cb3565b6126c0565b505061203f9061255e565b50600554811461266d565b9091811580156128ff575b6128f257815f52602460205260405f20600185036128d6575b5f8054825460405163a9059cbb60e01b81526001600160a01b0391821660048201526024810186905295949392602092879260449284929091165af1928315610764575f516020612f975f395f51905f52946060946128b9575b50805f526025602052600160405f20612839858254611c6e565b815501612847848254611c6e565b90555f52602660205261288460405f206040519061286482611c97565b878252846020830152886040830152428683015260016080830152611fed565b60018060a01b03905416935f52602460205260018060a01b0360405f20541694604051918252602082015260016040820152a3565b6128d19060203d60201161075d576107508183611cb3565b61281f565b6002600782015410156127c5575b5091505061203f915061255e565b91505061203f915061255e565b5060055482146127ac565b5f1981146105835760010190565b93919392909260019060055481148015612afe575b612a9957905b828110612abd5750925f935b80151580612ab1575b80612aa7575b15612a9957805f52602460205260405f209083600683015410156129815750600561297b9101549461290a565b9361293f565b5f8054835460405163a9059cbb60e01b81526001600160a01b039182166004820152602481018b9052979996985094969592949293926020928792604492849291165af1928315610764575f516020612f975f395f51905f5294606094612a7d575b50805f526025602052600260405f206129fd858254611c6e565b815501612a0b848254611c6e565b90555f526026602052612a4860405f2060405190612a2882611c97565b878252846020830152886040830152428683015260026080830152611fed565b60018060a01b03905416935f52602460205260018060a01b0360405f20541694604051918252602082015260026040820152a3565b612a949060203d811161075d576107508183611cb3565b6129e3565b5050509161203f915061255e565b50600f851061294e565b50600554811415612948565b612ac69061290a565b905f526024602052600560405f2001549060055482148015612af6575b15612933575050509161203f915061255e565b508115612ae3565b50801561292d565b939190929380158015612d24575b6128e45782156128e457612b288383611d2c565b9183830283810485148415171561058357612b4291611c61565b94600191945f5b858110612b5f57505050505050508061254d5750565b86151580612d18575b612b9d575b60019087158015612b92575b612b84575b01612b49565b612b8d8661255e565b612b7e565b506005548814612b79565b92865f97929752602460205282600660405f20015410155f14612cf6575f5b818110612be15750505f526024602052600560405f20015494600180935b9050612b6d565b5f838152602460208181526040808420548454915163a9059cbb60e01b81526001600160a01b03918216600482018190529481018c905295948692604492849291165af192831561076457600193612cda575b50845f526025602052600360405f20612c4e8a8254611c6e565b815501612c5c898254611c6e565b9055845f526026602052612c9b60405f2060405190612c7a82611c97565b8c82528a602083015288604083015242606083015260046080830152611fed565b895f526024602052828060a01b0360405f205416905f516020612f975f395f51905f5260606040518b815289602082015260046040820152a301612bbc565b612cf19060203d811161075d576107508183611cb3565b612c34565b95905f5260246020526001612d12600560405f2001549761290a565b93612bda565b50600554871415612b68565b506005548114612b14565b919282158015612f8b575b6128f25760039004905f5b60038110612d54575050505050565b815f52601a60205260405f20845f5260205260405f209060046001830154920191825460278110612d8c575b50506001915001612d45565b60188110612e2e575b508254601881101580612e24575b612dee575b50825460248110612d8057600181018091116105835760019355835f52601960205260405f20905f526020528160405f2001612de5858254611c6e565b90555f80612d80565b60018101809111610583578355835f52601960205260405f20815f5260205260405f20612e1c868254611c6e565b90555f612da8565b5060248110612da3565b60018101809111610583578355805f526025602052600860405f20612e54878254611c6e565b815501612e62868254611c6e565b9055805f526026602052612ea260405f2060405190612e8082611c97565b89825287602083015260016040830152426060830152600a6080830152611fed565b5f818152602460205260409020546001600160a01b03168515605f8781029088820414821715610583575f805460405163a9059cbb60e01b81526001600160a01b03868116600483015260649094046024820152926020928492604492849291165af1801561076457612f6f575b5060058702908782046005141715610583576064612f2e910461255e565b875f52602460205260018060a01b0360405f205416905f516020612f975f395f51905f52606060405189815260016020820152600a6040820152a35f612d95565b612f869060203d811161075d576107508183611cb3565b612f10565b506005548314612d3a56fee17b61d324ce17328f433d0ab62581c0f0aa997312bae80fbdfcd2aa9b91d6e3babb6a363fd9a057996d09882c0b74b710d121707d19eeffd91c51c3171a7c91a264697066735822122019dc330908ab1473887a4e386a20e0239b9cd0dab39b22ac4a9602b529f1d4ec64736f6c634300081e0033a66cc928b5edb82af9bd49922954155ab7b0942694bea4ce44661d9a8736c688f3f7a9fe364faab93b216da50a3214154f22a0a2b415b23a84c8169e8b636ee36e1540171b6c0c960b71a7020d9f60077f6af931a8bbf590da0223dacf75c7af",
					"opcodes": "PUSH1 0x80 PUSH1 0x40 MSTORE CALLVALUE PUSH2 0x850 JUMPI PUSH1 0x40 MLOAD PUSH1 0x1F PUSH2 0x3977 CODESIZE DUP2 SWAP1 SUB SWAP2 DUP3 ADD PUSH1 0x1F NOT AND DUP4 ADD SWAP2 PUSH1 0x1 PUSH1 0x1 PUSH1 0x40 SHL SUB DUP4 GT DUP5 DUP5 LT OR PUSH2 0x5C7 JUMPI DUP1 DUP5 SWAP3 PUSH1 0x80 SWAP5 PUSH1 0x40 MSTORE DUP4 CODECOPY DUP2 ADD SUB SLT PUSH2 0x850 JUMPI PUSH2 0x4D DUP2 PUSH2 0x893 JUMP JUMPDEST PUSH2 0x59 PUSH1 0x20 DUP4 ADD PUSH2 0x893 JUMP JUMPDEST PUSH2 0x71 PUSH1 0x60 PUSH2 0x6A PUSH1 0x40 DUP7 ADD PUSH2 0x893 JUMP JUMPDEST SWAP5 ADD PUSH2 0x893 JUMP JUMPDEST PUSH1 0x40 MLOAD SWAP1 SWAP3 SWAP1 PUSH2 0x1E0 DUP2 ADD PUSH1 0x1 PUSH1 0x1 PUSH1 0x40 SHL SUB DUP2 GT DUP3 DUP3 LT OR PUSH2 0x5C7 JUMPI PUSH1 0x40 MSTORE PUSH8 0xD02AB486CEDC0000 DUP2 MSTORE PUSH9 0x15AF1D78B58C40000 PUSH1 0x20 DUP3 ADD MSTORE PUSH9 0x2B5E3AF16B1880000 PUSH1 0x40 DUP3 ADD MSTORE PUSH9 0x56BC75E2D63100000 PUSH1 0x60 DUP3 ADD MSTORE PUSH9 0xAD78EBC5AC6200000 PUSH1 0x80 DUP3 ADD MSTORE PUSH9 0x15AF1D78B58C400000 PUSH1 0xA0 DUP3 ADD MSTORE PUSH9 0x2B5E3AF16B18800000 PUSH1 0xC0 DUP3 ADD MSTORE PUSH9 0x56BC75E2D631000000 PUSH1 0xE0 DUP3 ADD MSTORE PUSH9 0xAD78EBC5AC62000000 PUSH2 0x100 DUP3 ADD MSTORE PUSH10 0x15AF1D78B58C4000000 PUSH2 0x120 DUP3 ADD MSTORE PUSH10 0x2B5E3AF16B188000000 PUSH2 0x140 DUP3 ADD MSTORE PUSH10 0x56BC75E2D6310000000 PUSH2 0x160 DUP3 ADD MSTORE PUSH10 0xAD78EBC5AC620000000 PUSH2 0x180 DUP3 ADD MSTORE PUSH10 0x15AF1D78B58C40000000 PUSH2 0x1A0 DUP3 ADD MSTORE PUSH10 0x2B5E3AF16B1880000000 PUSH2 0x1C0 DUP3 ADD MSTORE PUSH1 0x7 SLOAD PUSH1 0xF PUSH1 0x7 SSTORE DUP1 PUSH1 0xF LT PUSH2 0x80D JUMPI JUMPDEST POP PUSH1 0x7 PUSH0 MSTORE PUSH1 0x20 PUSH0 KECCAK256 SWAP1 PUSH0 JUMPDEST PUSH1 0xF DUP2 LT PUSH2 0x7F0 JUMPI POP POP POP PUSH2 0x1AB PUSH2 0x854 JUMP JUMPDEST PUSH9 0x15AF1D78B58C40000 DUP2 MSTORE PUSH9 0x56BC75E2D63100000 PUSH1 0x20 DUP3 ADD MSTORE PUSH9 0x15AF1D78B58C400000 PUSH1 0x40 DUP3 ADD MSTORE PUSH9 0x56BC75E2D631000000 PUSH1 0x60 DUP3 ADD MSTORE PUSH10 0x15AF1D78B58C4000000 PUSH1 0x80 DUP3 ADD MSTORE PUSH10 0x56BC75E2D6310000000 PUSH1 0xA0 DUP3 ADD MSTORE PUSH10 0x15AF1D78B58C40000000 PUSH1 0xC0 DUP3 ADD MSTORE PUSH1 0x8 SLOAD PUSH1 0x7 PUSH1 0x8 SSTORE DUP1 PUSH1 0x7 LT PUSH2 0x7AD JUMPI JUMPDEST POP PUSH1 0x8 PUSH0 MSTORE PUSH1 0x20 PUSH0 KECCAK256 SWAP1 PUSH0 JUMPDEST PUSH1 0x7 DUP2 LT PUSH2 0x790 JUMPI POP POP POP PUSH2 0x244 PUSH2 0x873 JUMP JUMPDEST PUSH9 0x56BC75E2D63100000 DUP2 MSTORE PUSH9 0xAD78EBC5AC6200000 PUSH1 0x20 DUP3 ADD MSTORE PUSH9 0x15AF1D78B58C400000 PUSH1 0x40 DUP3 ADD MSTORE PUSH9 0x2B5E3AF16B18800000 PUSH1 0x60 DUP3 ADD MSTORE PUSH9 0x56BC75E2D631000000 PUSH1 0x80 DUP3 ADD MSTORE PUSH9 0xAD78EBC5AC62000000 PUSH1 0xA0 DUP3 ADD MSTORE PUSH10 0x15AF1D78B58C4000000 PUSH1 0xC0 DUP3 ADD MSTORE PUSH10 0x2B5E3AF16B188000000 PUSH1 0xE0 DUP3 ADD MSTORE PUSH1 0x9 SLOAD PUSH1 0x8 PUSH1 0x9 SSTORE DUP1 PUSH1 0x8 LT PUSH2 0x74D JUMPI JUMPDEST POP PUSH1 0x9 PUSH0 MSTORE PUSH1 0x20 PUSH0 KECCAK256 SWAP1 PUSH0 JUMPDEST PUSH1 0x8 DUP2 LT PUSH2 0x730 JUMPI POP POP POP PUSH2 0x2EB PUSH2 0x854 JUMP JUMPDEST PUSH1 0x3 DUP2 MSTORE PUSH1 0x5 PUSH1 0x20 DUP3 ADD MSTORE PUSH1 0x7 PUSH1 0x40 DUP3 ADD MSTORE PUSH1 0x9 PUSH1 0x60 DUP3 ADD MSTORE PUSH1 0xB PUSH1 0x80 DUP3 ADD MSTORE PUSH1 0xD PUSH1 0xA0 DUP3 ADD MSTORE PUSH1 0xF PUSH1 0xC0 DUP3 ADD MSTORE PUSH0 JUMPDEST PUSH1 0x7 DUP2 LT PUSH2 0x718 JUMPI POP POP PUSH2 0x32D PUSH2 0x873 JUMP JUMPDEST PUSH1 0x4 DUP2 MSTORE PUSH1 0x5 PUSH1 0x20 DUP3 ADD MSTORE PUSH1 0x6 PUSH1 0x40 DUP3 ADD MSTORE PUSH1 0x7 PUSH1 0x60 DUP3 ADD MSTORE PUSH1 0x8 PUSH1 0x80 DUP3 ADD MSTORE PUSH1 0x9 PUSH1 0xA0 DUP3 ADD MSTORE PUSH1 0xA PUSH1 0xC0 DUP3 ADD MSTORE PUSH1 0xB PUSH1 0xE0 DUP3 ADD MSTORE PUSH0 JUMPDEST PUSH1 0x8 DUP2 LT PUSH2 0x700 JUMPI POP POP PUSH3 0x15180 PUSH1 0x2F SSTORE PUSH0 DUP1 SLOAD PUSH1 0x1 PUSH1 0x1 PUSH1 0xA0 SHL SUB NOT SWAP1 DUP2 AND PUSH1 0x1 PUSH1 0x1 PUSH1 0xA0 SHL SUB SWAP4 DUP5 AND OR DUP3 SSTORE PUSH1 0x2 DUP1 SLOAD DUP3 AND SWAP5 DUP5 AND SWAP5 DUP6 OR SWAP1 SSTORE PUSH1 0x3 DUP1 SLOAD DUP3 AND SWAP7 DUP5 AND SWAP7 SWAP1 SWAP7 OR SWAP1 SWAP6 SSTORE PUSH1 0x4 DUP1 SLOAD DUP7 AND SWAP5 SWAP1 SWAP3 AND SWAP4 SWAP1 SWAP4 OR SWAP1 SSTORE PUSH2 0x3E8 PUSH1 0x5 DUP2 SWAP1 SSTORE PUSH1 0x1 PUSH1 0x6 SSTORE DUP1 DUP4 MSTORE PUSH1 0x24 PUSH1 0x20 MSTORE PUSH32 0x7785B2B245FFEFA6A9E02FAE93C7F43464CF93D9D4FEB8428A1F466255A0AE7F DUP1 SLOAD SWAP1 SWAP5 AND DUP3 OR DUP5 SSTORE PUSH32 0x7785B2B245FFEFA6A9E02FAE93C7F43464CF93D9D4FEB8428A1F466255A0AE82 SSTORE PUSH1 0xF PUSH32 0x7785B2B245FFEFA6A9E02FAE93C7F43464CF93D9D4FEB8428A1F466255A0AE85 SSTORE TIMESTAMP PUSH32 0x7785B2B245FFEFA6A9E02FAE93C7F43464CF93D9D4FEB8428A1F466255A0AE8D SSTORE PUSH1 0x7 PUSH32 0x7785B2B245FFEFA6A9E02FAE93C7F43464CF93D9D4FEB8428A1F466255A0AE89 DUP2 SWAP1 SSTORE PUSH1 0x8 PUSH32 0x7785B2B245FFEFA6A9E02FAE93C7F43464CF93D9D4FEB8428A1F466255A0AE8B SSTORE SLOAD SWAP1 SWAP2 SWAP1 DUP2 SWAP1 JUMPDEST PUSH1 0xF DUP3 LT PUSH2 0x6CC JUMPI POP POP PUSH1 0x9 DUP4 ADD SSTORE PUSH1 0x5 SLOAD PUSH0 SWAP2 DUP3 MSTORE PUSH1 0x23 PUSH1 0x20 MSTORE PUSH1 0x40 DUP3 KECCAK256 SSTORE DUP1 JUMPDEST PUSH1 0x8 SLOAD DUP3 LT ISZERO PUSH2 0x5EF JUMPI PUSH1 0x8 SLOAD DUP3 LT ISZERO PUSH2 0x5DB JUMPI PUSH1 0x8 PUSH0 MSTORE PUSH0 MLOAD PUSH1 0x20 PUSH2 0x3937 PUSH0 CODECOPY PUSH0 MLOAD SWAP1 PUSH0 MSTORE DUP3 ADD SLOAD PUSH2 0x50D SWAP2 PUSH2 0x8BD JUMP JUMPDEST PUSH1 0x5 SLOAD PUSH1 0x40 MLOAD SWAP2 SWAP3 SWAP1 SWAP2 PUSH1 0xA0 DUP2 ADD PUSH1 0x1 PUSH1 0x1 PUSH1 0x40 SHL SUB DUP2 GT DUP3 DUP3 LT OR PUSH2 0x5C7 JUMPI PUSH1 0x1 SWAP4 PUSH1 0x4 SWAP2 PUSH1 0x40 MSTORE DUP1 DUP4 MSTORE PUSH1 0x20 DUP4 ADD DUP2 DUP2 MSTORE PUSH1 0x40 DUP5 ADD DUP6 DUP2 MSTORE PUSH1 0x60 DUP6 ADD SWAP2 PUSH0 DUP4 MSTORE PUSH1 0x80 DUP7 ADD SWAP4 PUSH0 DUP6 MSTORE DUP8 PUSH0 MSTORE PUSH1 0x1A PUSH1 0x20 MSTORE PUSH1 0x40 PUSH0 KECCAK256 SWAP1 PUSH0 MSTORE PUSH1 0x20 MSTORE PUSH1 0x40 PUSH0 KECCAK256 SWAP6 MLOAD DUP7 SSTORE MLOAD DUP8 DUP7 ADD SSTORE MLOAD PUSH1 0x2 DUP6 ADD SSTORE MLOAD PUSH1 0x3 DUP5 ADD SSTORE MLOAD SWAP2 ADD SSTORE DUP1 PUSH0 MSTORE PUSH1 0x1D PUSH1 0x20 MSTORE PUSH2 0x59E PUSH1 0x40 PUSH0 KECCAK256 PUSH1 0x5 SLOAD SWAP1 PUSH2 0x8DE JUMP JUMPDEST DUP1 PUSH0 MSTORE PUSH1 0x1C PUSH1 0x20 MSTORE PUSH2 0x5C0 PUSH1 0x40 PUSH0 KECCAK256 PUSH1 0x5 SLOAD SWAP1 DUP2 PUSH0 MSTORE PUSH1 0x20 MSTORE PUSH1 0x40 PUSH0 KECCAK256 PUSH2 0x8DE JUMP JUMPDEST ADD SWAP1 PUSH2 0x4DB JUMP JUMPDEST PUSH4 0x4E487B71 PUSH1 0xE0 SHL PUSH0 MSTORE PUSH1 0x41 PUSH1 0x4 MSTORE PUSH1 0x24 PUSH0 REVERT JUMPDEST PUSH4 0x4E487B71 PUSH1 0xE0 SHL PUSH0 MSTORE PUSH1 0x32 PUSH1 0x4 MSTORE PUSH1 0x24 PUSH0 REVERT JUMPDEST PUSH1 0xB DUP4 ADD SSTORE POP PUSH0 SWAP1 DUP2 JUMPDEST PUSH1 0x8 DUP2 LT PUSH2 0x615 JUMPI POP PUSH1 0xD ADD SSTORE PUSH1 0x40 MLOAD PUSH2 0x300C SWAP1 DUP2 PUSH2 0x90B DUP3 CODECOPY RETURN JUMPDEST SWAP1 SWAP2 PUSH1 0x9 SLOAD DUP3 LT ISZERO PUSH2 0x5DB JUMPI PUSH1 0x9 PUSH0 MSTORE PUSH0 MLOAD PUSH1 0x20 PUSH2 0x3957 PUSH0 CODECOPY PUSH0 MLOAD SWAP1 PUSH0 MSTORE DUP3 ADD SLOAD PUSH2 0x63F SWAP2 PUSH2 0x8BD JUMP JUMPDEST PUSH1 0x5 SLOAD PUSH1 0x40 MLOAD SWAP2 SWAP3 SWAP1 SWAP2 PUSH1 0x80 DUP2 ADD PUSH1 0x1 PUSH1 0x1 PUSH1 0x40 SHL SUB DUP2 GT DUP3 DUP3 LT OR PUSH2 0x5C7 JUMPI PUSH1 0x1 SWAP4 PUSH1 0x3 SWAP2 PUSH1 0x40 MSTORE DUP1 DUP4 MSTORE PUSH1 0x20 DUP4 ADD DUP5 DUP2 MSTORE PUSH1 0x40 DUP5 ADD SWAP1 PUSH0 DUP3 MSTORE PUSH1 0x60 DUP6 ADD SWAP3 PUSH0 DUP5 MSTORE DUP7 PUSH0 MSTORE PUSH1 0x1F PUSH1 0x20 MSTORE PUSH1 0x40 PUSH0 KECCAK256 SWAP1 PUSH0 MSTORE PUSH1 0x20 MSTORE PUSH1 0x40 PUSH0 KECCAK256 SWAP5 MLOAD DUP6 SSTORE MLOAD DUP7 DUP6 ADD SSTORE MLOAD PUSH1 0x2 DUP5 ADD SSTORE MLOAD SWAP2 ADD SSTORE DUP1 PUSH0 MSTORE PUSH1 0x21 PUSH1 0x20 MSTORE PUSH2 0x6C3 PUSH1 0x40 PUSH0 KECCAK256 PUSH1 0x5 SLOAD SWAP1 PUSH2 0x8DE JUMP JUMPDEST ADD SWAP2 SWAP1 SWAP2 PUSH2 0x5F9 JUMP JUMPDEST SWAP1 SWAP2 DUP2 DUP4 LT ISZERO PUSH2 0x5DB JUMPI PUSH1 0x7 PUSH0 MSTORE PUSH0 MLOAD PUSH1 0x20 PUSH2 0x3917 PUSH0 CODECOPY PUSH0 MLOAD SWAP1 PUSH0 MSTORE DUP4 ADD SLOAD PUSH1 0x1 SWAP2 PUSH2 0x6F8 SWAP2 SWAP1 PUSH2 0x8BD JUMP JUMPDEST SWAP3 ADD SWAP1 PUSH2 0x4B9 JUMP JUMPDEST PUSH1 0x1 SWAP1 PUSH1 0x20 PUSH1 0xFF DUP5 MLOAD AND SWAP4 ADD SWAP3 DUP2 PUSH1 0x11 ADD SSTORE ADD PUSH2 0x364 JUMP JUMPDEST PUSH1 0x1 SWAP1 PUSH1 0x20 PUSH1 0xFF DUP5 MLOAD AND SWAP4 ADD SWAP3 DUP2 PUSH1 0xA ADD SSTORE ADD PUSH2 0x31B JUMP JUMPDEST DUP2 MLOAD PUSH1 0x1 PUSH1 0x1 PUSH1 0x50 SHL SUB AND DUP2 DUP5 ADD SSTORE PUSH1 0x20 SWAP1 SWAP2 ADD SWAP1 PUSH1 0x1 ADD PUSH2 0x2D8 JUMP JUMPDEST PUSH1 0x9 PUSH0 MSTORE PUSH2 0x78A SWAP1 PUSH0 MLOAD PUSH1 0x20 PUSH2 0x3957 PUSH0 CODECOPY PUSH0 MLOAD SWAP1 PUSH0 MSTORE ADD PUSH32 0x6E1540171B6C0C960B71A7020D9F60077F6AF931A8BBF590DA0223DACF75C7B7 PUSH2 0x8A7 JUMP JUMPDEST PUSH0 PUSH2 0x2CC JUMP JUMPDEST DUP2 MLOAD PUSH1 0x1 PUSH1 0x1 PUSH1 0x50 SHL SUB AND DUP2 DUP5 ADD SSTORE PUSH1 0x20 SWAP1 SWAP2 ADD SWAP1 PUSH1 0x1 ADD PUSH2 0x231 JUMP JUMPDEST PUSH1 0x8 PUSH0 MSTORE PUSH2 0x7EA SWAP1 PUSH0 MLOAD PUSH1 0x20 PUSH2 0x3937 PUSH0 CODECOPY PUSH0 MLOAD SWAP1 PUSH0 MSTORE ADD PUSH32 0xF3F7A9FE364FAAB93B216DA50A3214154F22A0A2B415B23A84C8169E8B636EEA PUSH2 0x8A7 JUMP JUMPDEST PUSH0 PUSH2 0x225 JUMP JUMPDEST DUP2 MLOAD PUSH1 0x1 PUSH1 0x1 PUSH1 0x50 SHL SUB AND DUP2 DUP5 ADD SSTORE PUSH1 0x20 SWAP1 SWAP2 ADD SWAP1 PUSH1 0x1 ADD PUSH2 0x198 JUMP JUMPDEST PUSH1 0x7 PUSH0 MSTORE PUSH2 0x84A SWAP1 PUSH0 MLOAD PUSH1 0x20 PUSH2 0x3917 PUSH0 CODECOPY PUSH0 MLOAD SWAP1 PUSH0 MSTORE ADD PUSH32 0xA66CC928B5EDB82AF9BD49922954155AB7B0942694BEA4CE44661D9A8736C697 PUSH2 0x8A7 JUMP JUMPDEST PUSH0 PUSH2 0x18C JUMP JUMPDEST PUSH0 DUP1 REVERT JUMPDEST PUSH1 0x40 MLOAD SWAP1 PUSH1 0xE0 DUP3 ADD PUSH1 0x1 PUSH1 0x1 PUSH1 0x40 SHL SUB DUP2 GT DUP4 DUP3 LT OR PUSH2 0x5C7 JUMPI PUSH1 0x40 MSTORE JUMP JUMPDEST PUSH1 0x40 MLOAD SWAP1 PUSH2 0x100 DUP3 ADD PUSH1 0x1 PUSH1 0x1 PUSH1 0x40 SHL SUB DUP2 GT DUP4 DUP3 LT OR PUSH2 0x5C7 JUMPI PUSH1 0x40 MSTORE JUMP JUMPDEST MLOAD SWAP1 PUSH1 0x1 PUSH1 0x1 PUSH1 0xA0 SHL SUB DUP3 AND DUP3 SUB PUSH2 0x850 JUMPI JUMP JUMPDEST DUP2 DUP2 LT PUSH2 0x8B2 JUMPI POP POP JUMP JUMPDEST PUSH0 DUP2 SSTORE PUSH1 0x1 ADD PUSH2 0x8A7 JUMP JUMPDEST SWAP2 SWAP1 DUP3 ADD DUP1 SWAP3 GT PUSH2 0x8CA JUMPI JUMP JUMPDEST PUSH4 0x4E487B71 PUSH1 0xE0 SHL PUSH0 MSTORE PUSH1 0x11 PUSH1 0x4 MSTORE PUSH1 0x24 PUSH0 REVERT JUMPDEST DUP1 SLOAD SWAP1 PUSH9 0x10000000000000000 DUP3 LT ISZERO PUSH2 0x5C7 JUMPI PUSH1 0x1 DUP3 ADD DUP1 DUP3 SSTORE DUP3 LT ISZERO PUSH2 0x5DB JUMPI PUSH0 MSTORE PUSH1 0x20 PUSH0 KECCAK256 ADD SSTORE JUMP INVALID PUSH1 0x80 DUP1 PUSH1 0x40 MSTORE PUSH1 0x4 CALLDATASIZE LT ISZERO PUSH2 0x12 JUMPI PUSH0 DUP1 REVERT JUMPDEST PUSH0 CALLDATALOAD PUSH1 0xE0 SHR SWAP1 DUP2 PUSH4 0x1BE02B2 EQ PUSH2 0x1AD3 JUMPI POP DUP1 PUSH4 0x1C234A8 EQ PUSH2 0x1AB7 JUMPI DUP1 PUSH4 0xEF81B74 EQ PUSH2 0x1A7F JUMPI DUP1 PUSH4 0xF2B7CC9 EQ PUSH2 0x1A50 JUMPI DUP1 PUSH4 0x18AB487F EQ PUSH2 0x1A26 JUMPI DUP1 PUSH4 0x1F6AB899 EQ PUSH2 0x18FE JUMPI DUP1 PUSH4 0x2132D204 EQ PUSH2 0x18D2 JUMPI DUP1 PUSH4 0x24513088 EQ PUSH2 0x18A8 JUMPI DUP1 PUSH4 0x2C831633 EQ PUSH2 0x188B JUMPI DUP1 PUSH4 0x2F48AB7D EQ PUSH2 0x1864 JUMPI DUP1 PUSH4 0x32BC298C EQ PUSH2 0x1847 JUMPI DUP1 PUSH4 0x32FCD966 EQ PUSH2 0x1825 JUMPI DUP1 PUSH4 0x365B98B2 EQ PUSH2 0x1760 JUMPI DUP1 PUSH4 0x375B43B4 EQ PUSH2 0x1745 JUMPI DUP1 PUSH4 0x39AB3603 EQ PUSH2 0x16EB JUMPI DUP1 PUSH4 0x4060160A EQ PUSH2 0x1527 JUMPI DUP1 PUSH4 0x45977D03 EQ PUSH2 0x1325 JUMPI DUP1 PUSH4 0x46B9DECE EQ PUSH2 0x1297 JUMPI DUP1 PUSH4 0x52A8C4C4 EQ PUSH2 0x127A JUMPI DUP1 PUSH4 0x58C7D352 EQ PUSH2 0x125F JUMPI DUP1 PUSH4 0x5AABF7F1 EQ PUSH2 0x1226 JUMPI DUP1 PUSH4 0x5EC64A44 EQ PUSH2 0x11F7 JUMPI DUP1 PUSH4 0x67D52D4D EQ PUSH2 0x11A0 JUMPI DUP1 PUSH4 0x70C8D770 EQ PUSH2 0x1133 JUMPI DUP1 PUSH4 0x78F6AD6D EQ PUSH2 0x1116 JUMPI DUP1 PUSH4 0x7CDC65F2 EQ PUSH2 0x10EE JUMPI DUP1 PUSH4 0x81A0B816 EQ PUSH2 0x10C6 JUMPI DUP1 PUSH4 0x88AFBE3E EQ PUSH2 0x109C JUMPI DUP1 PUSH4 0x8D58644C EQ PUSH2 0x1063 JUMPI DUP1 PUSH4 0x8DA5CB5B EQ PUSH2 0x103B JUMPI DUP1 PUSH4 0x8E222E24 EQ PUSH2 0xE02 JUMPI DUP1 PUSH4 0x8F030ECE EQ PUSH2 0xDC9 JUMPI DUP1 PUSH4 0x907C84A7 EQ PUSH2 0xD78 JUMPI DUP1 PUSH4 0x9C383486 EQ PUSH2 0xD44 JUMPI DUP1 PUSH4 0x9E234631 EQ PUSH2 0xD1B JUMPI DUP1 PUSH4 0xAE4708DC EQ PUSH2 0xCF2 JUMPI DUP1 PUSH4 0xBC1FA7C0 EQ PUSH2 0xA0A JUMPI DUP1 PUSH4 0xBD1AAE40 EQ PUSH2 0x9D6 JUMPI DUP1 PUSH4 0xBF724672 EQ PUSH2 0x99E JUMPI DUP1 PUSH4 0xBFF1F9E1 EQ PUSH2 0x981 JUMPI DUP1 PUSH4 0xC216212A EQ PUSH2 0x958 JUMPI DUP1 PUSH4 0xC7BB62E8 EQ PUSH2 0x91A JUMPI DUP1 PUSH4 0xCB0E0D7D EQ PUSH2 0x8DE JUMPI DUP1 PUSH4 0xCE79C2C3 EQ PUSH2 0x86F JUMPI DUP1 PUSH4 0xD0A2FD79 EQ PUSH2 0x843 JUMPI DUP1 PUSH4 0xD54D6DDB EQ PUSH2 0x825 JUMPI DUP1 PUSH4 0xE9E34A16 EQ PUSH2 0x7FD JUMPI DUP1 PUSH4 0xEC597E6F EQ PUSH2 0x7E0 JUMPI DUP1 PUSH4 0xF207564E EQ PUSH2 0x26E JUMPI PUSH4 0xF5D74D93 EQ PUSH2 0x242 JUMPI PUSH0 DUP1 REVERT JUMPDEST CALLVALUE PUSH2 0x26A JUMPI PUSH0 CALLDATASIZE PUSH1 0x3 NOT ADD SLT PUSH2 0x26A JUMPI PUSH1 0x4 SLOAD PUSH1 0x40 MLOAD PUSH1 0x1 PUSH1 0x1 PUSH1 0xA0 SHL SUB SWAP1 SWAP2 AND DUP2 MSTORE PUSH1 0x20 SWAP1 RETURN JUMPDEST PUSH0 DUP1 REVERT JUMPDEST CALLVALUE PUSH2 0x26A JUMPI PUSH1 0x20 CALLDATASIZE PUSH1 0x3 NOT ADD SLT PUSH2 0x26A JUMPI PUSH1 0x4 CALLDATALOAD CALLER PUSH0 MSTORE PUSH1 0x23 PUSH1 0x20 MSTORE PUSH1 0x40 PUSH0 KECCAK256 SLOAD PUSH2 0x7A6 JUMPI DUP1 PUSH0 MSTORE PUSH1 0x24 PUSH1 0x20 MSTORE PUSH1 0x3 PUSH1 0x40 PUSH0 KECCAK256 ADD SLOAD ISZERO PUSH2 0x76F JUMPI PUSH0 DUP1 SLOAD PUSH1 0x20 SWAP1 PUSH2 0x2F9 SWAP1 PUSH1 0x1 PUSH1 0x1 PUSH1 0xA0 SHL SUB AND PUSH2 0x2C3 PUSH2 0x1B4F JUMP JUMPDEST SWAP1 SLOAD PUSH1 0x40 MLOAD PUSH4 0x23B872DD PUSH1 0xE0 SHL DUP2 MSTORE CALLER PUSH1 0x4 DUP3 ADD MSTORE ADDRESS PUSH1 0x24 DUP3 ADD MSTORE PUSH1 0x3 SWAP3 SWAP1 SWAP3 SHL SHR PUSH1 0x44 DUP3 ADD MSTORE SWAP4 DUP5 SWAP3 DUP4 SWAP2 SWAP1 DUP3 SWAP1 PUSH1 0x64 DUP3 ADD SWAP1 JUMP JUMPDEST SUB SWAP3 GAS CALL DUP1 ISZERO PUSH2 0x764 JUMPI PUSH2 0x737 JUMPI JUMPDEST POP PUSH1 0x5 SLOAD PUSH1 0x6 SLOAD PUSH1 0x5 DUP2 MUL SWAP1 DUP1 DUP3 DIV PUSH1 0x5 EQ SWAP1 ISZERO OR ISZERO PUSH2 0x583 JUMPI PUSH2 0x32B SWAP2 PUSH2 0x1C6E JUMP JUMPDEST SWAP1 CALLER PUSH0 MSTORE PUSH1 0x23 PUSH1 0x20 MSTORE DUP2 PUSH1 0x40 PUSH0 KECCAK256 SSTORE DUP2 PUSH0 MSTORE PUSH1 0x24 PUSH1 0x20 MSTORE PUSH1 0x40 PUSH0 KECCAK256 SWAP1 CALLER PUSH12 0xFFFFFFFFFFFFFFFFFFFFFFFF PUSH1 0xA0 SHL DUP4 SLOAD AND OR DUP3 SSTORE TIMESTAMP PUSH1 0x2 DUP4 ADD SSTORE DUP3 PUSH1 0x3 DUP4 ADD SSTORE PUSH1 0x4 DUP3 ADD DUP2 DUP2 SSTORE PUSH1 0x1 PUSH1 0x6 DUP5 ADD SSTORE PUSH2 0x380 PUSH2 0x1B4F JUMP JUMPDEST SWAP1 SLOAD SWAP1 PUSH1 0x3 SHL SHR PUSH1 0x9 DUP5 ADD SSTORE TIMESTAMP PUSH1 0xE DUP5 ADD SSTORE DUP2 PUSH0 MSTORE PUSH1 0x24 PUSH1 0x20 MSTORE PUSH1 0x7 PUSH1 0x40 PUSH0 KECCAK256 ADD DUP1 SLOAD SWAP1 PUSH1 0x1 DUP3 ADD DUP1 SWAP3 GT PUSH2 0x583 JUMPI SSTORE DUP2 PUSH0 MSTORE PUSH1 0x29 PUSH1 0x20 MSTORE PUSH2 0x3C5 DUP5 PUSH1 0x40 PUSH0 KECCAK256 PUSH2 0x2260 JUMP JUMPDEST PUSH1 0x30 SLOAD PUSH1 0x1 PUSH1 0x40 SHL DUP2 LT ISZERO PUSH2 0x723 JUMPI DUP1 PUSH1 0x1 PUSH2 0x3E6 SWAP3 ADD PUSH1 0x30 SSTORE PUSH1 0x30 PUSH2 0x1B81 JUMP JUMPDEST DUP2 SLOAD SWAP1 PUSH1 0x3 SHL SWAP1 DUP7 DUP3 SHL SWAP2 PUSH0 NOT SWAP1 SHL NOT AND OR SWAP1 SSTORE PUSH1 0x2A SLOAD DUP5 PUSH0 MSTORE PUSH1 0x2B PUSH1 0x20 MSTORE PUSH1 0x40 PUSH0 KECCAK256 SSTORE PUSH0 PUSH0 SWAP1 DUP4 PUSH0 MSTORE PUSH1 0x28 PUSH1 0x20 MSTORE PUSH1 0x2 PUSH1 0x40 PUSH0 KECCAK256 SLOAD LT PUSH0 EQ PUSH2 0x5F8 JUMPI POP POP DUP4 PUSH0 MSTORE PUSH1 0x24 PUSH1 0x20 MSTORE DUP2 PUSH1 0x5 PUSH1 0x40 PUSH0 KECCAK256 ADD SSTORE DUP2 PUSH0 MSTORE PUSH1 0x28 PUSH1 0x20 MSTORE PUSH1 0x40 PUSH0 KECCAK256 DUP1 SLOAD SWAP1 PUSH1 0x1 DUP3 ADD DUP1 SWAP3 GT PUSH2 0x583 JUMPI SSTORE DUP2 JUMPDEST PUSH0 SWAP1 JUMPDEST PUSH1 0xF DUP3 LT PUSH2 0x597 JUMPI JUMPDEST POP POP PUSH2 0x49D PUSH2 0x46C PUSH2 0x1B4F JUMP JUMPDEST SWAP1 SLOAD PUSH1 0x40 MLOAD SWAP2 PUSH1 0x3 SHL SHR PUSH2 0x47F DUP3 PUSH2 0x1C7B JUMP JUMPDEST DUP2 MSTORE PUSH0 PUSH1 0x20 DUP3 ADD MSTORE TIMESTAMP PUSH1 0x40 DUP3 ADD MSTORE PUSH1 0x1 PUSH1 0x60 DUP3 ADD MSTORE PUSH1 0x1 DUP6 ADD PUSH2 0x1CD5 JUMP JUMPDEST PUSH2 0x4A5 PUSH2 0x1B4F JUMP JUMPDEST SWAP1 SLOAD SWAP1 PUSH1 0x3 SHL SHR SWAP1 PUSH1 0xA DUP3 MUL DUP3 ISZERO SWAP3 DUP1 DUP3 DIV PUSH1 0xA EQ DUP5 OR ISZERO PUSH2 0x583 JUMPI PUSH1 0x23 DUP2 MUL SWAP4 DUP2 DUP6 DIV PUSH1 0x23 EQ DUP2 OR ISZERO PUSH2 0x583 JUMPI PUSH1 0x5 DUP3 MUL DUP3 DUP2 DIV PUSH1 0x5 EQ DUP3 OR ISZERO PUSH2 0x583 JUMPI PUSH1 0x64 PUSH2 0x4F3 SWAP2 DIV PUSH1 0x2C SLOAD PUSH2 0x1C6E JUMP JUMPDEST PUSH1 0x2C SSTORE PUSH1 0x32 DUP3 MUL SWAP2 DUP3 DIV PUSH1 0x32 EQ OR ISZERO PUSH2 0x583 JUMPI PUSH2 0x52B SWAP4 PUSH2 0x523 PUSH1 0x64 DUP10 SWAP5 PUSH2 0x51D DUP3 DUP1 SWAP7 DIV PUSH2 0x24F7 JUMP JUMPDEST DIV PUSH2 0x255E JUMP JUMPDEST DIV SWAP2 SLOAD PUSH2 0x2664 JUMP JUMPDEST PUSH1 0x6 SLOAD PUSH1 0x1 DUP2 ADD DUP1 SWAP2 GT PUSH2 0x583 JUMPI PUSH1 0x6 SSTORE PUSH0 MSTORE PUSH1 0x24 PUSH1 0x20 MSTORE PUSH1 0x5 PUSH1 0x1 DUP1 PUSH1 0xA0 SHL SUB PUSH1 0x40 PUSH0 KECCAK256 SLOAD AND SWAP2 ADD SLOAD PUSH1 0x40 MLOAD SWAP1 DUP2 MSTORE PUSH32 0x309BB360E8B69C23937CCC5FB01F9AEEEAD1C95A99604E175113FF82F2B1723A PUSH1 0x20 CALLER SWAP3 LOG4 STOP JUMPDEST PUSH4 0x4E487B71 PUSH1 0xE0 SHL PUSH0 MSTORE PUSH1 0x11 PUSH1 0x4 MSTORE PUSH1 0x24 PUSH0 REVERT JUMPDEST DUP1 ISZERO PUSH2 0x5F3 JUMPI DUP1 PUSH0 MSTORE PUSH1 0x24 PUSH1 0x20 MSTORE PUSH1 0x8 PUSH1 0x40 PUSH0 KECCAK256 ADD DUP1 SLOAD SWAP1 PUSH1 0x1 DUP3 ADD DUP1 SWAP3 GT PUSH2 0x583 JUMPI SSTORE DUP1 PUSH0 MSTORE PUSH1 0x27 PUSH1 0x20 MSTORE PUSH1 0x40 PUSH0 KECCAK256 DUP3 PUSH0 MSTORE PUSH1 0x20 MSTORE PUSH2 0x5DA DUP7 PUSH1 0x40 PUSH0 KECCAK256 PUSH2 0x2260 JUMP JUMPDEST PUSH0 MSTORE PUSH1 0x24 PUSH1 0x20 MSTORE PUSH1 0x1 PUSH1 0x5 PUSH1 0x40 PUSH0 KECCAK256 ADD SLOAD SWAP2 ADD SWAP1 PUSH2 0x456 JUMP JUMPDEST PUSH2 0x45F JUMP JUMPDEST PUSH0 JUMPDEST PUSH1 0xF DUP2 LT PUSH2 0x60A JUMPI JUMPDEST POP POP PUSH2 0x453 JUMP JUMPDEST DUP2 PUSH2 0x71E JUMPI DUP5 PUSH0 MSTORE PUSH1 0x27 PUSH1 0x20 MSTORE PUSH1 0x40 PUSH0 KECCAK256 PUSH1 0x1 DUP3 ADD DUP1 DUP4 GT PUSH2 0x583 JUMPI PUSH0 MSTORE PUSH1 0x20 MSTORE PUSH1 0x40 PUSH0 KECCAK256 SLOAD PUSH1 0x2 DUP3 ADD DUP1 DUP4 GT PUSH2 0x583 JUMPI PUSH1 0xFF DUP2 GT PUSH2 0x583 JUMPI PUSH1 0x1 SWAP1 SHL GT PUSH2 0x655 JUMPI JUMPDEST PUSH1 0x1 ADD PUSH2 0x5FA JUMP JUMPDEST SWAP4 SWAP3 PUSH0 SWAP6 SWAP2 SWAP6 JUMPDEST DUP5 PUSH0 MSTORE PUSH1 0x27 PUSH1 0x20 MSTORE PUSH1 0x40 PUSH0 KECCAK256 DUP7 PUSH0 MSTORE PUSH1 0x20 MSTORE PUSH1 0x40 PUSH0 KECCAK256 SLOAD DUP2 LT ISZERO PUSH2 0x710 JUMPI DUP7 PUSH2 0x6FF JUMPI DUP5 PUSH0 MSTORE PUSH1 0x27 PUSH1 0x20 MSTORE PUSH1 0x40 PUSH0 KECCAK256 DUP7 PUSH0 MSTORE PUSH1 0x20 MSTORE PUSH2 0x69E DUP2 PUSH1 0x40 PUSH0 KECCAK256 PUSH2 0x1B81 JUMP JUMPDEST SWAP1 SLOAD SWAP1 PUSH1 0x3 SHL SHR DUP1 PUSH0 MSTORE PUSH1 0x28 PUSH1 0x20 MSTORE PUSH1 0x2 PUSH1 0x40 PUSH0 KECCAK256 SLOAD LT PUSH2 0x6C3 JUMPI JUMPDEST POP PUSH1 0x1 ADD PUSH2 0x65C JUMP JUMPDEST SWAP2 SWAP4 POP SWAP6 POP DUP7 PUSH0 MSTORE PUSH1 0x24 PUSH1 0x20 MSTORE DUP1 PUSH1 0x5 PUSH1 0x40 PUSH0 KECCAK256 ADD SSTORE DUP1 PUSH0 MSTORE PUSH1 0x28 PUSH1 0x20 MSTORE PUSH1 0x40 PUSH0 KECCAK256 DUP1 SLOAD SWAP1 PUSH1 0x1 DUP3 ADD DUP1 SWAP3 GT PUSH2 0x583 JUMPI SSTORE SWAP2 PUSH1 0x1 DUP1 SWAP7 SWAP1 PUSH2 0x6BA JUMP JUMPDEST POP SWAP3 SWAP4 PUSH1 0x1 SWAP1 SWAP6 SWAP2 SWAP6 JUMPDEST SWAP1 POP PUSH2 0x64D JUMP JUMPDEST POP SWAP3 SWAP4 PUSH1 0x1 SWAP1 SWAP6 SWAP2 SWAP6 PUSH2 0x709 JUMP JUMPDEST PUSH2 0x603 JUMP JUMPDEST PUSH4 0x4E487B71 PUSH1 0xE0 SHL PUSH0 MSTORE PUSH1 0x41 PUSH1 0x4 MSTORE PUSH1 0x24 PUSH0 REVERT JUMPDEST PUSH2 0x758 SWAP1 PUSH1 0x20 RETURNDATASIZE PUSH1 0x20 GT PUSH2 0x75D JUMPI JUMPDEST PUSH2 0x750 DUP2 DUP4 PUSH2 0x1CB3 JUMP JUMPDEST DUP2 ADD SWAP1 PUSH2 0x1E77 JUMP JUMPDEST PUSH2 0x308 JUMP JUMPDEST POP RETURNDATASIZE PUSH2 0x746 JUMP JUMPDEST PUSH1 0x40 MLOAD RETURNDATASIZE PUSH0 DUP3 RETURNDATACOPY RETURNDATASIZE SWAP1 REVERT JUMPDEST PUSH1 0x40 MLOAD PUSH3 0x461BCD PUSH1 0xE5 SHL DUP2 MSTORE PUSH1 0x20 PUSH1 0x4 DUP3 ADD MSTORE PUSH1 0xF PUSH1 0x24 DUP3 ADD MSTORE PUSH15 0x24B73B30B634B21039B837B739B7B9 PUSH1 0x89 SHL PUSH1 0x44 DUP3 ADD MSTORE PUSH1 0x64 SWAP1 REVERT JUMPDEST PUSH1 0x40 MLOAD PUSH3 0x461BCD PUSH1 0xE5 SHL DUP2 MSTORE PUSH1 0x20 PUSH1 0x4 DUP3 ADD MSTORE PUSH1 0x12 PUSH1 0x24 DUP3 ADD MSTORE PUSH18 0x105B1C9958591E481C9959DA5CDD195C9959 PUSH1 0x72 SHL PUSH1 0x44 DUP3 ADD MSTORE PUSH1 0x64 SWAP1 REVERT JUMPDEST CALLVALUE PUSH2 0x26A JUMPI PUSH0 CALLDATASIZE PUSH1 0x3 NOT ADD SLT PUSH2 0x26A JUMPI PUSH1 0x20 PUSH1 0x5 SLOAD PUSH1 0x40 MLOAD SWAP1 DUP2 MSTORE RETURN JUMPDEST CALLVALUE PUSH2 0x26A JUMPI PUSH0 CALLDATASIZE PUSH1 0x3 NOT ADD SLT PUSH2 0x26A JUMPI PUSH1 0x3 SLOAD PUSH1 0x40 MLOAD PUSH1 0x1 PUSH1 0x1 PUSH1 0xA0 SHL SUB SWAP1 SWAP2 AND DUP2 MSTORE PUSH1 0x20 SWAP1 RETURN JUMPDEST CALLVALUE PUSH2 0x26A JUMPI PUSH1 0x20 CALLDATASIZE PUSH1 0x3 NOT ADD SLT PUSH2 0x26A JUMPI PUSH2 0x841 PUSH1 0x4 CALLDATALOAD PUSH2 0x2054 JUMP JUMPDEST STOP JUMPDEST CALLVALUE PUSH2 0x26A JUMPI PUSH1 0x20 CALLDATASIZE PUSH1 0x3 NOT ADD SLT PUSH2 0x26A JUMPI PUSH1 0x4 CALLDATALOAD PUSH1 0x8 DUP2 LT ISZERO PUSH2 0x26A JUMPI PUSH1 0x20 SWAP1 PUSH1 0x11 ADD SLOAD PUSH1 0x40 MLOAD SWAP1 DUP2 MSTORE RETURN JUMPDEST CALLVALUE PUSH2 0x26A JUMPI PUSH2 0x87D CALLDATASIZE PUSH2 0x1B96 JUMP JUMPDEST SWAP1 PUSH0 MSTORE PUSH1 0x1A PUSH1 0x20 MSTORE PUSH1 0x40 PUSH0 KECCAK256 SWAP1 PUSH0 MSTORE PUSH1 0x20 MSTORE PUSH1 0x40 PUSH0 KECCAK256 DUP1 SLOAD PUSH2 0x8DA PUSH1 0x1 DUP4 ADD SLOAD SWAP3 PUSH1 0x2 DUP2 ADD SLOAD SWAP1 PUSH1 0x4 PUSH1 0x3 DUP3 ADD SLOAD SWAP2 ADD SLOAD SWAP2 PUSH1 0x40 MLOAD SWAP6 DUP7 SWAP6 DUP7 SWAP2 SWAP3 PUSH1 0x80 SWAP4 SWAP7 SWAP6 SWAP5 SWAP2 SWAP7 PUSH1 0xA0 DUP5 ADD SWAP8 DUP5 MSTORE PUSH1 0x20 DUP5 ADD MSTORE PUSH1 0x40 DUP4 ADD MSTORE PUSH1 0x60 DUP3 ADD MSTORE ADD MSTORE JUMP JUMPDEST SUB SWAP1 RETURN JUMPDEST CALLVALUE PUSH2 0x26A JUMPI PUSH1 0x20 CALLDATASIZE PUSH1 0x3 NOT ADD SLT PUSH2 0x26A JUMPI PUSH1 0x4 CALLDATALOAD PUSH1 0x1 PUSH1 0x1 PUSH1 0xA0 SHL SUB DUP2 AND SWAP1 DUP2 SWAP1 SUB PUSH2 0x26A JUMPI PUSH0 MSTORE PUSH1 0x23 PUSH1 0x20 MSTORE PUSH1 0x20 PUSH1 0x40 PUSH0 KECCAK256 SLOAD PUSH1 0x40 MLOAD SWAP1 DUP2 MSTORE RETURN JUMPDEST CALLVALUE PUSH2 0x26A JUMPI PUSH2 0x928 CALLDATASIZE PUSH2 0x1B96 JUMP JUMPDEST SWAP1 PUSH0 MSTORE PUSH1 0x21 PUSH1 0x20 MSTORE PUSH1 0x40 PUSH0 KECCAK256 DUP1 SLOAD DUP3 LT ISZERO PUSH2 0x26A JUMPI PUSH1 0x20 SWAP2 PUSH2 0x949 SWAP2 PUSH2 0x1B81 JUMP JUMPDEST SWAP1 SLOAD SWAP1 PUSH1 0x3 SHL SHR PUSH1 0x40 MLOAD SWAP1 DUP2 MSTORE RETURN JUMPDEST CALLVALUE PUSH2 0x26A JUMPI PUSH1 0x20 CALLDATASIZE PUSH1 0x3 NOT ADD SLT PUSH2 0x26A JUMPI PUSH1 0x4 CALLDATALOAD PUSH1 0x7 SLOAD DUP2 LT ISZERO PUSH2 0x26A JUMPI PUSH2 0x949 PUSH1 0x20 SWAP2 PUSH2 0x1B1F JUMP JUMPDEST CALLVALUE PUSH2 0x26A JUMPI PUSH0 CALLDATASIZE PUSH1 0x3 NOT ADD SLT PUSH2 0x26A JUMPI PUSH1 0x20 PUSH1 0x6 SLOAD PUSH1 0x40 MLOAD SWAP1 DUP2 MSTORE RETURN JUMPDEST CALLVALUE PUSH2 0x26A JUMPI PUSH2 0x9AC CALLDATASIZE PUSH2 0x1B96 JUMP JUMPDEST SWAP1 PUSH0 MSTORE PUSH1 0x19 PUSH1 0x20 MSTORE PUSH1 0x40 PUSH0 KECCAK256 SWAP1 PUSH0 MSTORE PUSH1 0x20 MSTORE PUSH1 0x40 DUP1 PUSH0 KECCAK256 PUSH1 0x1 DUP2 SLOAD SWAP2 ADD SLOAD DUP3 MLOAD SWAP2 DUP3 MSTORE PUSH1 0x20 DUP3 ADD MSTORE RETURN JUMPDEST CALLVALUE PUSH2 0x26A JUMPI PUSH2 0x9E4 CALLDATASIZE PUSH2 0x1B96 JUMP JUMPDEST SWAP1 PUSH0 MSTORE PUSH1 0x1E PUSH1 0x20 MSTORE PUSH1 0x40 PUSH0 KECCAK256 SWAP1 PUSH0 MSTORE PUSH1 0x20 MSTORE PUSH1 0x20 PUSH1 0xFF PUSH1 0x40 PUSH0 KECCAK256 SLOAD AND PUSH1 0x40 MLOAD SWAP1 ISZERO ISZERO DUP2 MSTORE RETURN JUMPDEST CALLVALUE PUSH2 0x26A JUMPI PUSH1 0x20 CALLDATASIZE PUSH1 0x3 NOT ADD SLT PUSH2 0x26A JUMPI PUSH1 0x4 CALLDATALOAD DUP1 PUSH0 MSTORE PUSH1 0x24 PUSH1 0x20 MSTORE PUSH1 0x40 PUSH0 KECCAK256 PUSH2 0xA3E PUSH1 0x1 DUP1 PUSH1 0xA0 SHL SUB DUP3 SLOAD AND CALLER EQ PUSH2 0x1BE8 JUMP JUMPDEST PUSH1 0xC DUP2 ADD SWAP1 DUP2 SLOAD SWAP2 PUSH1 0x8 DUP4 LT PUSH2 0xA53 DUP2 PUSH2 0x1DAB JUMP JUMPDEST ISZERO PUSH2 0xCDE JUMPI PUSH2 0xA6C DUP4 PUSH1 0x11 ADD SLOAD PUSH1 0x6 DUP5 ADD SLOAD LT ISZERO PUSH2 0x1DE6 JUMP JUMPDEST DUP3 PUSH2 0xCD9 JUMPI JUMPDEST DUP4 PUSH0 MSTORE PUSH1 0x22 PUSH1 0x20 MSTORE PUSH1 0x40 PUSH0 KECCAK256 DUP4 PUSH0 MSTORE PUSH1 0x20 MSTORE PUSH2 0xA95 PUSH1 0xFF PUSH1 0x40 PUSH0 KECCAK256 SLOAD AND ISZERO PUSH2 0x1E32 JUMP JUMPDEST PUSH2 0xA9E DUP4 PUSH2 0x1B37 JUMP JUMPDEST SWAP1 SLOAD PUSH0 DUP1 SLOAD PUSH1 0x40 MLOAD PUSH4 0x23B872DD PUSH1 0xE0 SHL DUP2 MSTORE CALLER PUSH1 0x4 DUP3 ADD MSTORE ADDRESS PUSH1 0x24 DUP3 ADD MSTORE PUSH1 0x3 SWAP5 SWAP1 SWAP5 SHL SWAP3 SWAP1 SWAP3 SHR PUSH1 0x44 DUP5 ADD DUP2 SWAP1 MSTORE SWAP4 SWAP3 SWAP2 PUSH1 0x20 SWAP2 DUP4 SWAP2 PUSH1 0x64 SWAP2 DUP4 SWAP2 PUSH1 0x1 PUSH1 0x1 PUSH1 0xA0 SHL SUB AND GAS CALL DUP1 ISZERO PUSH2 0x764 JUMPI PUSH2 0xCBC JUMPI JUMPDEST POP DUP1 SLOAD SWAP1 PUSH1 0x1 DUP3 ADD DUP1 SWAP3 GT PUSH2 0x583 JUMPI SSTORE DUP4 PUSH0 MSTORE PUSH1 0x22 PUSH1 0x20 MSTORE PUSH1 0x40 PUSH0 KECCAK256 DUP4 PUSH0 MSTORE PUSH1 0x20 MSTORE PUSH1 0x40 PUSH0 KECCAK256 PUSH1 0x1 PUSH1 0xFF NOT DUP3 SLOAD AND OR SWAP1 SSTORE PUSH1 0xD DUP3 ADD PUSH2 0xB30 DUP3 DUP3 SLOAD PUSH2 0x1C6E JUMP JUMPDEST SWAP1 SSTORE PUSH2 0xB3F PUSH1 0x9 SLOAD DUP5 LT PUSH2 0x2294 JUMP JUMPDEST PUSH2 0xB58 PUSH2 0xB4B DUP5 PUSH2 0x1B37 JUMP JUMPDEST SWAP1 SLOAD SWAP1 PUSH1 0x3 SHL SHR ISZERO PUSH2 0x22CA JUMP JUMPDEST DUP3 PUSH0 MSTORE PUSH1 0x21 PUSH1 0x20 MSTORE PUSH1 0x40 PUSH0 KECCAK256 PUSH1 0x40 MLOAD DUP1 DUP3 PUSH1 0x20 DUP3 SWAP5 SLOAD SWAP4 DUP5 DUP2 MSTORE ADD SWAP1 PUSH0 MSTORE PUSH1 0x20 PUSH0 KECCAK256 SWAP3 PUSH0 JUMPDEST DUP2 DUP2 LT PUSH2 0xCA3 JUMPI POP POP PUSH2 0xB92 SWAP3 POP SUB DUP3 PUSH2 0x1CB3 JUMP JUMPDEST DUP1 MLOAD SWAP3 DUP5 PUSH0 MSTORE PUSH1 0x21 PUSH1 0x20 MSTORE PUSH2 0xBAA DUP7 PUSH1 0x40 PUSH0 KECCAK256 PUSH2 0x2260 JUMP JUMPDEST PUSH0 NOT DUP5 ADD SWAP4 DUP5 GT PUSH2 0x583 JUMPI PUSH2 0xBC8 PUSH1 0x1 SWAP3 PUSH1 0x3 PUSH2 0xC5F SWAP7 DIV SWAP1 PUSH2 0x2309 JUMP JUMPDEST MLOAD PUSH1 0x40 MLOAD PUSH2 0xBD5 DUP2 PUSH2 0x1C7B JUMP JUMPDEST DUP8 DUP2 MSTORE PUSH1 0x3 PUSH1 0x20 DUP3 ADD DUP9 DUP2 MSTORE PUSH1 0x40 DUP4 ADD DUP5 DUP2 MSTORE PUSH1 0x60 DUP5 ADD SWAP2 PUSH0 DUP4 MSTORE DUP11 PUSH0 MSTORE PUSH1 0x1F PUSH1 0x20 MSTORE PUSH1 0x40 PUSH0 KECCAK256 DUP13 PUSH0 MSTORE PUSH1 0x20 MSTORE PUSH1 0x40 PUSH0 KECCAK256 SWAP5 MLOAD DUP6 SSTORE MLOAD DUP8 DUP6 ADD SSTORE MLOAD PUSH1 0x2 DUP5 ADD SSTORE MLOAD SWAP2 ADD SSTORE DUP6 PUSH0 MSTORE PUSH1 0x20 DUP1 MSTORE PUSH1 0x40 PUSH0 KECCAK256 SWAP1 PUSH0 MSTORE PUSH1 0x20 MSTORE PUSH2 0xC37 DUP7 PUSH1 0x40 PUSH0 KECCAK256 PUSH2 0x2260 JUMP JUMPDEST PUSH1 0x40 MLOAD SWAP3 PUSH2 0xC44 DUP5 PUSH2 0x1C7B JUMP JUMPDEST DUP4 MSTORE PUSH0 PUSH1 0x20 DUP5 ADD MSTORE TIMESTAMP PUSH1 0x40 DUP5 ADD MSTORE PUSH1 0xB PUSH1 0x60 DUP5 ADD MSTORE ADD PUSH2 0x1CD5 JUMP JUMPDEST PUSH1 0x1 DUP2 ADD DUP1 SWAP2 GT PUSH2 0x583 JUMPI PUSH1 0x40 MLOAD SWAP1 DUP2 MSTORE PUSH1 0x40 PUSH1 0x20 DUP3 ADD MSTORE PUSH1 0x7 PUSH1 0x40 DUP3 ADD MSTORE PUSH7 0x2137B7B9BA32B9 PUSH1 0xC9 SHL PUSH1 0x60 DUP3 ADD MSTORE PUSH0 MLOAD PUSH1 0x20 PUSH2 0x2FB7 PUSH0 CODECOPY PUSH0 MLOAD SWAP1 PUSH0 MSTORE PUSH1 0x80 CALLER SWAP3 LOG3 STOP JUMPDEST DUP5 SLOAD DUP4 MSTORE PUSH1 0x1 SWAP5 DUP6 ADD SWAP5 DUP7 SWAP5 POP PUSH1 0x20 SWAP1 SWAP4 ADD SWAP3 ADD PUSH2 0xB7D JUMP JUMPDEST PUSH2 0xCD4 SWAP1 PUSH1 0x20 RETURNDATASIZE PUSH1 0x20 GT PUSH2 0x75D JUMPI PUSH2 0x750 DUP2 DUP4 PUSH2 0x1CB3 JUMP JUMPDEST PUSH2 0xAF0 JUMP JUMPDEST PUSH2 0xA72 JUMP JUMPDEST PUSH4 0x4E487B71 PUSH1 0xE0 SHL PUSH0 MSTORE PUSH1 0x32 PUSH1 0x4 MSTORE PUSH1 0x24 PUSH0 REVERT JUMPDEST CALLVALUE PUSH2 0x26A JUMPI PUSH1 0x20 CALLDATASIZE PUSH1 0x3 NOT ADD SLT PUSH2 0x26A JUMPI PUSH1 0x4 CALLDATALOAD PUSH1 0x8 SLOAD DUP2 LT ISZERO PUSH2 0x26A JUMPI PUSH2 0x949 PUSH1 0x20 SWAP2 PUSH2 0x1B07 JUMP JUMPDEST CALLVALUE PUSH2 0x26A JUMPI PUSH1 0x20 CALLDATASIZE PUSH1 0x3 NOT ADD SLT PUSH2 0x26A JUMPI PUSH1 0x4 CALLDATALOAD PUSH1 0x9 SLOAD DUP2 LT ISZERO PUSH2 0x26A JUMPI PUSH2 0x949 PUSH1 0x20 SWAP2 PUSH2 0x1B37 JUMP JUMPDEST CALLVALUE PUSH2 0x26A JUMPI PUSH2 0xD52 CALLDATASIZE PUSH2 0x1B96 JUMP JUMPDEST SWAP1 PUSH0 MSTORE PUSH1 0x22 PUSH1 0x20 MSTORE PUSH1 0x40 PUSH0 KECCAK256 SWAP1 PUSH0 MSTORE PUSH1 0x20 MSTORE PUSH1 0x20 PUSH1 0xFF PUSH1 0x40 PUSH0 KECCAK256 SLOAD AND PUSH1 0x40 MLOAD SWAP1 ISZERO ISZERO DUP2 MSTORE RETURN JUMPDEST CALLVALUE PUSH2 0x26A JUMPI PUSH2 0xD86 CALLDATASIZE PUSH2 0x1B96 JUMP JUMPDEST SWAP1 PUSH0 MSTORE PUSH1 0x1F PUSH1 0x20 MSTORE PUSH1 0x40 PUSH0 KECCAK256 SWAP1 PUSH0 MSTORE PUSH1 0x20 MSTORE PUSH1 0x80 PUSH1 0x40 PUSH0 KECCAK256 DUP1 SLOAD SWAP1 PUSH1 0x1 DUP2 ADD SLOAD SWAP1 PUSH1 0x3 PUSH1 0x2 DUP3 ADD SLOAD SWAP2 ADD SLOAD SWAP2 PUSH1 0x40 MLOAD SWAP4 DUP5 MSTORE PUSH1 0x20 DUP5 ADD MSTORE PUSH1 0x40 DUP4 ADD MSTORE PUSH1 0x60 DUP3 ADD MSTORE RETURN JUMPDEST CALLVALUE PUSH2 0x26A JUMPI PUSH2 0xDD7 CALLDATASIZE PUSH2 0x1AED JUMP JUMPDEST SWAP2 PUSH0 MSTORE PUSH1 0x1B PUSH1 0x20 MSTORE PUSH1 0x40 PUSH0 KECCAK256 SWAP1 PUSH0 MSTORE PUSH1 0x20 MSTORE PUSH1 0x40 PUSH0 KECCAK256 DUP1 SLOAD DUP3 LT ISZERO PUSH2 0x26A JUMPI PUSH1 0x20 SWAP2 PUSH2 0x949 SWAP2 PUSH2 0x1B81 JUMP JUMPDEST CALLVALUE PUSH2 0x26A JUMPI PUSH4 0xFFFFFFFF PUSH2 0xE15 CALLDATASIZE PUSH2 0x1BAC JUMP JUMPDEST SWAP2 AND SWAP1 DUP2 PUSH0 MSTORE PUSH1 0x24 PUSH1 0x20 MSTORE PUSH1 0x40 PUSH0 KECCAK256 PUSH2 0xE38 PUSH1 0x1 DUP1 PUSH1 0xA0 SHL SUB DUP3 SLOAD AND CALLER EQ PUSH2 0x1BE8 JUMP JUMPDEST PUSH1 0xA DUP2 ADD SWAP2 PUSH2 0xE4A PUSH1 0x7 DUP5 SLOAD LT PUSH2 0x1C27 JUMP JUMPDEST PUSH1 0x1 DUP2 ADD SWAP3 DUP4 DUP3 GT PUSH2 0x583 JUMPI PUSH1 0x8 SLOAD DUP5 LT ISZERO PUSH2 0x1005 JUMPI PUSH2 0xE69 DUP5 PUSH2 0x1B07 JUMP JUMPDEST SWAP1 SLOAD SWAP1 PUSH1 0x3 SHL SHR PUSH1 0x7 DUP4 LT ISZERO PUSH2 0xCDE JUMPI PUSH2 0xE8D DUP4 PUSH1 0xA ADD SLOAD PUSH1 0x6 DUP7 ADD SLOAD LT ISZERO PUSH2 0x1DE6 JUMP JUMPDEST DUP3 PUSH0 MSTORE PUSH1 0x19 PUSH1 0x20 MSTORE PUSH1 0x40 PUSH0 KECCAK256 DUP7 PUSH0 MSTORE PUSH1 0x20 MSTORE PUSH1 0x40 PUSH0 KECCAK256 DUP1 SLOAD DUP3 DUP2 LT PUSH2 0xFC0 JUMPI DUP8 PUSH0 MSTORE PUSH1 0x1E PUSH1 0x20 MSTORE PUSH1 0x40 PUSH0 KECCAK256 DUP8 PUSH0 MSTORE PUSH1 0x20 MSTORE PUSH1 0xFF PUSH1 0x40 PUSH0 KECCAK256 SLOAD AND PUSH2 0xF7B JUMPI DUP3 PUSH2 0xED4 SWAP2 PUSH2 0x1C61 JUMP JUMPDEST SWAP1 SSTORE DUP2 SLOAD SWAP2 PUSH1 0x1 DUP4 ADD DUP1 SWAP4 GT PUSH2 0x583 JUMPI PUSH1 0x2 SWAP5 PUSH2 0xF2B SWAP4 PUSH1 0x1 SWAP3 SSTORE PUSH1 0xB DUP2 ADD PUSH2 0xEFE DUP5 DUP3 SLOAD PUSH2 0x1C6E JUMP JUMPDEST SWAP1 SSTORE DUP8 PUSH0 MSTORE PUSH1 0x1E PUSH1 0x20 MSTORE PUSH1 0x40 PUSH0 KECCAK256 DUP8 PUSH0 MSTORE PUSH1 0x20 MSTORE PUSH1 0x40 PUSH0 KECCAK256 DUP3 PUSH1 0xFF NOT DUP3 SLOAD AND OR SWAP1 SSTORE PUSH2 0xC37 DUP4 DUP10 DUP10 PUSH2 0x231D JUMP JUMPDEST ADD DUP1 SWAP2 GT PUSH2 0x583 JUMPI PUSH1 0x40 MLOAD SWAP1 DUP2 MSTORE PUSH1 0x40 PUSH1 0x20 DUP3 ADD MSTORE PUSH1 0x16 PUSH1 0x40 DUP3 ADD MSTORE PUSH22 0x506F6F6C205570677261646520284561726E696E6729 PUSH1 0x50 SHL PUSH1 0x60 DUP3 ADD MSTORE PUSH0 MLOAD PUSH1 0x20 PUSH2 0x2FB7 PUSH0 CODECOPY PUSH0 MLOAD SWAP1 PUSH0 MSTORE PUSH1 0x80 CALLER SWAP3 LOG3 STOP JUMPDEST PUSH1 0x40 MLOAD PUSH3 0x461BCD PUSH1 0xE5 SHL DUP2 MSTORE PUSH1 0x20 PUSH1 0x4 DUP3 ADD MSTORE PUSH1 0x1B PUSH1 0x24 DUP3 ADD MSTORE PUSH32 0x416C726561647920707572636861736564206E65787420706F6F6C0000000000 PUSH1 0x44 DUP3 ADD MSTORE PUSH1 0x64 SWAP1 REVERT JUMPDEST PUSH1 0x40 MLOAD PUSH3 0x461BCD PUSH1 0xE5 SHL DUP2 MSTORE PUSH1 0x20 PUSH1 0x4 DUP3 ADD MSTORE PUSH1 0x1C PUSH1 0x24 DUP3 ADD MSTORE PUSH32 0x4E6F7420656E6F756768206E65787420706F6F6C2062616C616E636500000000 PUSH1 0x44 DUP3 ADD MSTORE PUSH1 0x64 SWAP1 REVERT JUMPDEST PUSH1 0x40 MLOAD PUSH3 0x461BCD PUSH1 0xE5 SHL DUP2 MSTORE PUSH1 0x20 PUSH1 0x4 DUP3 ADD MSTORE PUSH1 0xE PUSH1 0x24 DUP3 ADD MSTORE PUSH14 0x139BC81A1A59DA195C881C1BDBDB PUSH1 0x92 SHL PUSH1 0x44 DUP3 ADD MSTORE PUSH1 0x64 SWAP1 REVERT JUMPDEST CALLVALUE PUSH2 0x26A JUMPI PUSH0 CALLDATASIZE PUSH1 0x3 NOT ADD SLT PUSH2 0x26A JUMPI PUSH1 0x1 SLOAD PUSH1 0x40 MLOAD PUSH1 0x1 PUSH1 0x1 PUSH1 0xA0 SHL SUB SWAP1 SWAP2 AND DUP2 MSTORE PUSH1 0x20 SWAP1 RETURN JUMPDEST CALLVALUE PUSH2 0x26A JUMPI PUSH2 0x1071 CALLDATASIZE PUSH2 0x1AED JUMP JUMPDEST SWAP2 PUSH0 MSTORE PUSH1 0x1C PUSH1 0x20 MSTORE PUSH1 0x40 PUSH0 KECCAK256 SWAP1 PUSH0 MSTORE PUSH1 0x20 MSTORE PUSH1 0x40 PUSH0 KECCAK256 DUP1 SLOAD DUP3 LT ISZERO PUSH2 0x26A JUMPI PUSH1 0x20 SWAP2 PUSH2 0x949 SWAP2 PUSH2 0x1B81 JUMP JUMPDEST CALLVALUE PUSH2 0x26A JUMPI PUSH1 0x20 CALLDATASIZE PUSH1 0x3 NOT ADD SLT PUSH2 0x26A JUMPI PUSH1 0x4 CALLDATALOAD PUSH0 MSTORE PUSH1 0x28 PUSH1 0x20 MSTORE PUSH1 0x20 PUSH1 0x40 PUSH0 KECCAK256 SLOAD PUSH1 0x40 MLOAD SWAP1 DUP2 MSTORE RETURN JUMPDEST CALLVALUE PUSH2 0x26A JUMPI PUSH0 CALLDATASIZE PUSH1 0x3 NOT ADD SLT PUSH2 0x26A JUMPI PUSH1 0x2D SLOAD PUSH1 0x40 MLOAD PUSH1 0x1 PUSH1 0x1 PUSH1 0xA0 SHL SUB SWAP1 SWAP2 AND DUP2 MSTORE PUSH1 0x20 SWAP1 RETURN JUMPDEST CALLVALUE PUSH2 0x26A JUMPI PUSH0 CALLDATASIZE PUSH1 0x3 NOT ADD SLT PUSH2 0x26A JUMPI PUSH1 0x2 SLOAD PUSH1 0x40 MLOAD PUSH1 0x1 PUSH1 0x1 PUSH1 0xA0 SHL SUB SWAP1 SWAP2 AND DUP2 MSTORE PUSH1 0x20 SWAP1 RETURN JUMPDEST CALLVALUE PUSH2 0x26A JUMPI PUSH0 CALLDATASIZE PUSH1 0x3 NOT ADD SLT PUSH2 0x26A JUMPI PUSH1 0x20 PUSH1 0x2A SLOAD PUSH1 0x40 MLOAD SWAP1 DUP2 MSTORE RETURN JUMPDEST CALLVALUE PUSH2 0x26A JUMPI PUSH2 0x1141 CALLDATASIZE PUSH2 0x1B96 JUMP JUMPDEST SWAP1 PUSH0 MSTORE PUSH1 0x26 PUSH1 0x20 MSTORE PUSH1 0x40 PUSH0 KECCAK256 SWAP1 DUP2 SLOAD DUP2 LT ISZERO PUSH2 0x26A JUMPI PUSH2 0x1160 SWAP2 PUSH2 0x1BCF JUMP JUMPDEST POP DUP1 SLOAD PUSH1 0x1 DUP3 ADD SLOAD PUSH1 0x2 DUP4 ADD SLOAD PUSH1 0x3 DUP5 ADD SLOAD PUSH1 0x4 SWAP1 SWAP5 ADD SLOAD PUSH1 0x40 DUP1 MLOAD SWAP5 DUP6 MSTORE PUSH1 0x20 DUP6 ADD SWAP4 SWAP1 SWAP4 MSTORE SWAP2 DUP4 ADD MSTORE PUSH1 0x60 DUP3 ADD SWAP3 SWAP1 SWAP3 MSTORE PUSH1 0x80 DUP2 ADD SWAP2 SWAP1 SWAP2 MSTORE PUSH1 0xA0 SWAP1 RETURN JUMPDEST CALLVALUE PUSH2 0x26A JUMPI PUSH1 0x20 CALLDATASIZE PUSH1 0x3 NOT ADD SLT PUSH2 0x26A JUMPI PUSH1 0x60 PUSH2 0x11BE PUSH1 0x4 CALLDATALOAD PUSH2 0x1E8F JUMP JUMPDEST SWAP2 SWAP1 PUSH1 0x20 PUSH1 0x40 MLOAD SWAP4 DUP5 SWAP3 ISZERO ISZERO DUP4 MSTORE PUSH1 0x40 DUP3 DUP5 ADD MSTORE DUP1 MLOAD SWAP2 DUP3 SWAP2 DUP3 PUSH1 0x40 DUP7 ADD MSTORE ADD DUP5 DUP5 ADD MCOPY PUSH0 DUP3 DUP3 ADD DUP5 ADD MSTORE PUSH1 0x1F ADD PUSH1 0x1F NOT AND DUP2 ADD SUB ADD SWAP1 RETURN JUMPDEST CALLVALUE PUSH2 0x26A JUMPI PUSH2 0x1205 CALLDATASIZE PUSH2 0x1B96 JUMP JUMPDEST SWAP1 PUSH0 MSTORE PUSH1 0x29 PUSH1 0x20 MSTORE PUSH1 0x40 PUSH0 KECCAK256 DUP1 SLOAD DUP3 LT ISZERO PUSH2 0x26A JUMPI PUSH1 0x20 SWAP2 PUSH2 0x949 SWAP2 PUSH2 0x1B81 JUMP JUMPDEST CALLVALUE PUSH2 0x26A JUMPI PUSH2 0x1234 CALLDATASIZE PUSH2 0x1AED JUMP JUMPDEST SWAP2 PUSH0 MSTORE PUSH1 0x27 PUSH1 0x20 MSTORE PUSH1 0x40 PUSH0 KECCAK256 SWAP1 PUSH0 MSTORE PUSH1 0x20 MSTORE PUSH1 0x40 PUSH0 KECCAK256 DUP1 SLOAD DUP3 LT ISZERO PUSH2 0x26A JUMPI PUSH1 0x20 SWAP2 PUSH2 0x949 SWAP2 PUSH2 0x1B81 JUMP JUMPDEST CALLVALUE PUSH2 0x26A JUMPI PUSH0 CALLDATASIZE PUSH1 0x3 NOT ADD SLT PUSH2 0x26A JUMPI PUSH1 0x20 PUSH1 0x40 MLOAD PUSH1 0xA DUP2 MSTORE RETURN JUMPDEST CALLVALUE PUSH2 0x26A JUMPI PUSH0 CALLDATASIZE PUSH1 0x3 NOT ADD SLT PUSH2 0x26A JUMPI PUSH1 0x20 PUSH1 0x2F SLOAD PUSH1 0x40 MLOAD SWAP1 DUP2 MSTORE RETURN JUMPDEST CALLVALUE PUSH2 0x26A JUMPI PUSH1 0x20 CALLDATASIZE PUSH1 0x3 NOT ADD SLT PUSH2 0x26A JUMPI PUSH1 0x4 CALLDATALOAD PUSH0 MSTORE PUSH1 0x25 PUSH1 0x20 MSTORE PUSH2 0x140 PUSH1 0x40 PUSH0 KECCAK256 DUP1 SLOAD SWAP1 PUSH1 0x1 DUP2 ADD SLOAD SWAP1 PUSH1 0x2 DUP2 ADD SLOAD PUSH1 0x3 DUP3 ADD SLOAD PUSH1 0x4 DUP4 ADD SLOAD PUSH1 0x5 DUP5 ADD SLOAD SWAP1 PUSH1 0x6 DUP6 ADD SLOAD SWAP3 PUSH1 0x7 DUP7 ADD SLOAD SWAP5 PUSH1 0x9 PUSH1 0x8 DUP9 ADD SLOAD SWAP8 ADD SLOAD SWAP8 PUSH1 0x40 MLOAD SWAP10 DUP11 MSTORE PUSH1 0x20 DUP11 ADD MSTORE PUSH1 0x40 DUP10 ADD MSTORE PUSH1 0x60 DUP9 ADD MSTORE PUSH1 0x80 DUP8 ADD MSTORE PUSH1 0xA0 DUP7 ADD MSTORE PUSH1 0xC0 DUP6 ADD MSTORE PUSH1 0xE0 DUP5 ADD MSTORE PUSH2 0x100 DUP4 ADD MSTORE PUSH2 0x120 DUP3 ADD MSTORE RETURN JUMPDEST CALLVALUE PUSH2 0x26A JUMPI PUSH1 0x20 CALLDATASIZE PUSH1 0x3 NOT ADD SLT PUSH2 0x26A JUMPI PUSH1 0x4 CALLDATALOAD DUP1 PUSH0 MSTORE PUSH1 0x24 PUSH1 0x20 MSTORE PUSH1 0x40 PUSH0 KECCAK256 PUSH2 0x1359 PUSH1 0x1 DUP1 PUSH1 0xA0 SHL SUB DUP3 SLOAD AND CALLER EQ PUSH2 0x1BE8 JUMP JUMPDEST PUSH1 0x6 DUP2 ADD SWAP1 DUP2 SLOAD SWAP2 PUSH1 0xF DUP4 LT ISZERO PUSH2 0x14EB JUMPI PUSH2 0x1373 DUP4 PUSH2 0x1B1F JUMP JUMPDEST SWAP1 SLOAD PUSH0 DUP1 SLOAD PUSH1 0x40 MLOAD PUSH4 0x23B872DD PUSH1 0xE0 SHL DUP2 MSTORE CALLER PUSH1 0x4 DUP3 ADD MSTORE ADDRESS PUSH1 0x24 DUP3 ADD MSTORE PUSH1 0x3 SWAP5 SWAP1 SWAP5 SHL SWAP3 SWAP1 SWAP3 SHR PUSH1 0x44 DUP5 ADD DUP2 SWAP1 MSTORE SWAP4 SWAP3 SWAP2 PUSH1 0x20 SWAP2 DUP4 SWAP2 PUSH1 0x64 SWAP2 DUP4 SWAP2 PUSH1 0x1 PUSH1 0x1 PUSH1 0xA0 SHL SUB AND GAS CALL DUP1 ISZERO PUSH2 0x764 JUMPI PUSH2 0x14CE JUMPI JUMPDEST POP DUP1 SLOAD SWAP1 PUSH1 0x1 DUP3 ADD DUP1 SWAP3 GT PUSH2 0x583 JUMPI SSTORE PUSH1 0x9 DUP3 ADD PUSH2 0x13E4 DUP3 DUP3 SLOAD PUSH2 0x1C6E JUMP JUMPDEST SWAP1 SSTORE PUSH2 0x1414 PUSH1 0x40 MLOAD PUSH2 0x13F5 DUP2 PUSH2 0x1C7B JUMP JUMPDEST DUP3 DUP2 MSTORE PUSH0 PUSH1 0x20 DUP3 ADD MSTORE TIMESTAMP PUSH1 0x40 DUP3 ADD MSTORE PUSH1 0x1 PUSH1 0x60 DUP3 ADD MSTORE PUSH1 0x1 DUP5 ADD PUSH2 0x1CD5 JUMP JUMPDEST PUSH1 0x5 DUP2 MUL DUP2 ISZERO SWAP1 DUP3 DUP2 DIV PUSH1 0x5 EQ DUP3 OR ISZERO PUSH2 0x583 JUMPI PUSH1 0x23 DUP4 MUL DUP4 DUP2 DIV PUSH1 0x23 EQ DUP4 OR ISZERO PUSH2 0x583 JUMPI PUSH2 0x144A SWAP2 PUSH2 0x51D PUSH1 0x64 DUP1 SWAP4 DIV PUSH2 0x24F7 JUMP JUMPDEST PUSH1 0xF DUP3 MUL SWAP2 DUP3 DIV PUSH1 0xF EQ OR ISZERO PUSH2 0x583 JUMPI PUSH1 0x64 SWAP1 DIV SWAP2 PUSH1 0x4 DUP3 ADD SLOAD PUSH1 0x1 DUP3 ADD SWAP4 DUP5 DUP4 GT PUSH2 0x583 JUMPI DUP6 PUSH1 0x5 PUSH2 0x1498 SWAP6 PUSH2 0x1484 DUP9 DUP6 DUP6 DUP3 SWAP9 PUSH2 0x27A1 JUMP JUMPDEST ADD PUSH2 0x1492 DUP5 DUP5 DUP5 DUP5 SLOAD PUSH2 0x2918 JUMP JUMPDEST SLOAD PUSH2 0x2B06 JUMP JUMPDEST PUSH1 0x40 MLOAD SWAP1 DUP2 MSTORE PUSH1 0x40 PUSH1 0x20 DUP3 ADD MSTORE PUSH1 0x4 PUSH1 0x40 DUP3 ADD MSTORE PUSH4 0x14DB1BDD PUSH1 0xE2 SHL PUSH1 0x60 DUP3 ADD MSTORE PUSH0 MLOAD PUSH1 0x20 PUSH2 0x2FB7 PUSH0 CODECOPY PUSH0 MLOAD SWAP1 PUSH0 MSTORE PUSH1 0x80 CALLER SWAP3 LOG3 STOP JUMPDEST PUSH2 0x14E6 SWAP1 PUSH1 0x20 RETURNDATASIZE PUSH1 0x20 GT PUSH2 0x75D JUMPI PUSH2 0x750 DUP2 DUP4 PUSH2 0x1CB3 JUMP JUMPDEST PUSH2 0x13C5 JUMP JUMPDEST PUSH1 0x40 MLOAD PUSH3 0x461BCD PUSH1 0xE5 SHL DUP2 MSTORE PUSH1 0x20 PUSH1 0x4 DUP3 ADD MSTORE PUSH1 0x14 PUSH1 0x24 DUP3 ADD MSTORE PUSH20 0x105B1C9958591E48185D081B585E081B195D995B PUSH1 0x62 SHL PUSH1 0x44 DUP3 ADD MSTORE PUSH1 0x64 SWAP1 REVERT JUMPDEST CALLVALUE PUSH2 0x26A JUMPI PUSH1 0x20 CALLDATASIZE PUSH1 0x3 NOT ADD SLT PUSH2 0x26A JUMPI PUSH1 0x4 CALLDATALOAD DUP1 PUSH0 MSTORE PUSH1 0x24 PUSH1 0x20 MSTORE PUSH1 0x40 PUSH0 KECCAK256 PUSH2 0x155B PUSH1 0x1 DUP1 PUSH1 0xA0 SHL SUB DUP3 SLOAD AND CALLER EQ PUSH2 0x1BE8 JUMP JUMPDEST PUSH1 0xA DUP2 ADD SWAP1 DUP2 SLOAD SWAP2 PUSH1 0x7 DUP4 LT PUSH2 0x1570 DUP2 PUSH2 0x1DAB JUMP JUMPDEST ISZERO PUSH2 0xCDE JUMPI PUSH2 0x1589 DUP4 PUSH1 0xA ADD SLOAD PUSH1 0x6 DUP5 ADD SLOAD LT ISZERO PUSH2 0x1DE6 JUMP JUMPDEST DUP3 PUSH2 0x16E6 JUMPI JUMPDEST DUP4 PUSH0 MSTORE PUSH1 0x1E PUSH1 0x20 MSTORE PUSH1 0x40 PUSH0 KECCAK256 DUP4 PUSH0 MSTORE PUSH1 0x20 MSTORE PUSH2 0x15B2 PUSH1 0xFF PUSH1 0x40 PUSH0 KECCAK256 SLOAD AND ISZERO PUSH2 0x1E32 JUMP JUMPDEST PUSH2 0x15BB DUP4 PUSH2 0x1B07 JUMP JUMPDEST SWAP1 SLOAD PUSH0 DUP1 SLOAD PUSH1 0x40 MLOAD PUSH4 0x23B872DD PUSH1 0xE0 SHL DUP2 MSTORE CALLER PUSH1 0x4 DUP3 ADD MSTORE ADDRESS PUSH1 0x24 DUP3 ADD MSTORE PUSH1 0x3 SWAP5 SWAP1 SWAP5 SHL SWAP3 SWAP1 SWAP3 SHR PUSH1 0x44 DUP5 ADD DUP2 SWAP1 MSTORE SWAP4 SWAP3 SWAP2 PUSH1 0x20 SWAP2 DUP4 SWAP2 PUSH1 0x64 SWAP2 DUP4 SWAP2 PUSH1 0x1 PUSH1 0x1 PUSH1 0xA0 SHL SUB AND GAS CALL DUP1 ISZERO PUSH2 0x764 JUMPI PUSH2 0x16C9 JUMPI JUMPDEST POP DUP1 SLOAD SWAP3 PUSH1 0x1 DUP5 ADD DUP1 SWAP5 GT PUSH2 0x583 JUMPI PUSH2 0x1688 SWAP4 PUSH1 0x1 SWAP3 SSTORE DUP6 PUSH0 MSTORE PUSH1 0x1E PUSH1 0x20 MSTORE PUSH1 0x40 PUSH0 KECCAK256 DUP6 PUSH0 MSTORE PUSH1 0x20 MSTORE PUSH1 0x40 PUSH0 KECCAK256 DUP3 PUSH1 0xFF NOT DUP3 SLOAD AND OR SWAP1 SSTORE PUSH1 0xB DUP2 ADD PUSH2 0x1653 DUP5 DUP3 SLOAD PUSH2 0x1C6E JUMP JUMPDEST SWAP1 SSTORE PUSH2 0x1660 DUP4 DUP8 DUP8 PUSH2 0x231D JUMP JUMPDEST PUSH1 0x40 MLOAD SWAP3 PUSH2 0x166D DUP5 PUSH2 0x1C7B JUMP JUMPDEST DUP4 MSTORE PUSH0 PUSH1 0x20 DUP5 ADD MSTORE TIMESTAMP PUSH1 0x40 DUP5 ADD MSTORE PUSH1 0xA PUSH1 0x60 DUP5 ADD MSTORE ADD PUSH2 0x1CD5 JUMP JUMPDEST PUSH1 0x1 DUP2 ADD DUP1 SWAP2 GT PUSH2 0x583 JUMPI PUSH1 0x40 MLOAD SWAP1 DUP2 MSTORE PUSH1 0x40 PUSH1 0x20 DUP3 ADD MSTORE PUSH1 0x4 PUSH1 0x40 DUP3 ADD MSTORE PUSH4 0x141BDBDB PUSH1 0xE2 SHL PUSH1 0x60 DUP3 ADD MSTORE PUSH0 MLOAD PUSH1 0x20 PUSH2 0x2FB7 PUSH0 CODECOPY PUSH0 MLOAD SWAP1 PUSH0 MSTORE PUSH1 0x80 CALLER SWAP3 LOG3 STOP JUMPDEST PUSH2 0x16E1 SWAP1 PUSH1 0x20 RETURNDATASIZE PUSH1 0x20 GT PUSH2 0x75D JUMPI PUSH2 0x750 DUP2 DUP4 PUSH2 0x1CB3 JUMP JUMPDEST PUSH2 0x160D JUMP JUMPDEST PUSH2 0x158F JUMP JUMPDEST CALLVALUE PUSH2 0x26A JUMPI PUSH1 0x20 CALLDATASIZE PUSH1 0x3 NOT ADD SLT PUSH2 0x26A JUMPI PUSH1 0x4 CALLDATALOAD PUSH1 0x30 SLOAD DUP2 LT ISZERO PUSH2 0x26A JUMPI PUSH1 0x30 SLOAD DUP2 LT ISZERO PUSH2 0xCDE JUMPI PUSH1 0x30 PUSH0 MSTORE PUSH32 0x6FF97A59C90D62CC7236BA3A37CD85351BF564556780CF8C1157A220F31F0CBB ADD SLOAD PUSH1 0x40 MLOAD SWAP1 DUP2 MSTORE PUSH1 0x20 SWAP1 RETURN JUMPDEST CALLVALUE PUSH2 0x26A JUMPI PUSH0 CALLDATASIZE PUSH1 0x3 NOT ADD SLT PUSH2 0x26A JUMPI PUSH1 0x20 PUSH1 0x40 MLOAD PUSH1 0x19 DUP2 MSTORE RETURN JUMPDEST CALLVALUE PUSH2 0x26A JUMPI PUSH1 0x20 CALLDATASIZE PUSH1 0x3 NOT ADD SLT PUSH2 0x26A JUMPI PUSH1 0x4 CALLDATALOAD PUSH0 MSTORE PUSH1 0x24 PUSH1 0x20 MSTORE PUSH2 0x1C0 PUSH1 0x40 PUSH0 KECCAK256 PUSH1 0x1 DUP1 PUSH1 0xA0 SHL SUB DUP2 SLOAD AND SWAP1 PUSH1 0x2 DUP2 ADD SLOAD SWAP1 PUSH1 0x3 DUP2 ADD SLOAD PUSH1 0x4 DUP3 ADD SLOAD PUSH1 0x5 DUP4 ADD SLOAD PUSH1 0x6 DUP5 ADD SLOAD PUSH1 0x7 DUP6 ADD SLOAD PUSH1 0x8 DUP7 ADD SLOAD SWAP1 PUSH1 0x9 DUP8 ADD SLOAD SWAP3 PUSH1 0xA DUP9 ADD SLOAD SWAP5 PUSH1 0xB DUP10 ADD SLOAD SWAP7 PUSH1 0xC DUP11 ADD SLOAD SWAP9 PUSH1 0xE PUSH1 0xD DUP13 ADD SLOAD SWAP12 ADD SLOAD SWAP12 PUSH1 0x20 PUSH1 0x40 MLOAD SWAP15 DUP16 SWAP1 DUP2 MSTORE ADD MSTORE PUSH1 0x40 DUP14 ADD MSTORE PUSH1 0x60 DUP13 ADD MSTORE PUSH1 0x80 DUP12 ADD MSTORE PUSH1 0xA0 DUP11 ADD MSTORE PUSH1 0xC0 DUP10 ADD MSTORE PUSH1 0xE0 DUP9 ADD MSTORE PUSH2 0x100 DUP8 ADD MSTORE PUSH2 0x120 DUP7 ADD MSTORE PUSH2 0x140 DUP6 ADD MSTORE PUSH2 0x160 DUP5 ADD MSTORE PUSH2 0x180 DUP4 ADD MSTORE PUSH2 0x1A0 DUP3 ADD MSTORE RETURN JUMPDEST CALLVALUE PUSH2 0x26A JUMPI PUSH0 CALLDATASIZE PUSH1 0x3 NOT ADD SLT PUSH2 0x26A JUMPI PUSH1 0x20 PUSH1 0x40 MLOAD PUSH8 0xDE0B6B3A7640000 DUP2 MSTORE RETURN JUMPDEST CALLVALUE PUSH2 0x26A JUMPI PUSH0 CALLDATASIZE PUSH1 0x3 NOT ADD SLT PUSH2 0x26A JUMPI PUSH1 0x20 PUSH1 0x40 MLOAD PUSH3 0x15180 DUP2 MSTORE RETURN JUMPDEST CALLVALUE PUSH2 0x26A JUMPI PUSH0 CALLDATASIZE PUSH1 0x3 NOT ADD SLT PUSH2 0x26A JUMPI PUSH0 SLOAD PUSH1 0x40 MLOAD PUSH1 0x1 PUSH1 0x1 PUSH1 0xA0 SHL SUB SWAP1 SWAP2 AND DUP2 MSTORE PUSH1 0x20 SWAP1 RETURN JUMPDEST CALLVALUE PUSH2 0x26A JUMPI PUSH0 CALLDATASIZE PUSH1 0x3 NOT ADD SLT PUSH2 0x26A JUMPI PUSH1 0x20 PUSH1 0x2C SLOAD PUSH1 0x40 MLOAD SWAP1 DUP2 MSTORE RETURN JUMPDEST CALLVALUE PUSH2 0x26A JUMPI PUSH1 0x20 CALLDATASIZE PUSH1 0x3 NOT ADD SLT PUSH2 0x26A JUMPI PUSH1 0x40 PUSH2 0x18C6 PUSH1 0x4 CALLDATALOAD PUSH2 0x1D4A JUMP JUMPDEST DUP3 MLOAD SWAP2 DUP3 MSTORE PUSH1 0x20 DUP3 ADD MSTORE RETURN JUMPDEST CALLVALUE PUSH2 0x26A JUMPI PUSH1 0x20 CALLDATASIZE PUSH1 0x3 NOT ADD SLT PUSH2 0x26A JUMPI PUSH1 0x4 CALLDATALOAD PUSH1 0x7 DUP2 LT ISZERO PUSH2 0x26A JUMPI PUSH1 0x20 SWAP1 PUSH1 0xA ADD SLOAD PUSH1 0x40 MLOAD SWAP1 DUP2 MSTORE RETURN JUMPDEST CALLVALUE PUSH2 0x26A JUMPI PUSH4 0xFFFFFFFF PUSH2 0x1911 CALLDATASIZE PUSH2 0x1BAC JUMP JUMPDEST SWAP2 AND SWAP1 DUP2 PUSH0 MSTORE PUSH1 0x24 PUSH1 0x20 MSTORE PUSH1 0x40 PUSH0 KECCAK256 PUSH2 0x1934 PUSH1 0x1 DUP1 PUSH1 0xA0 SHL SUB DUP3 SLOAD AND CALLER EQ PUSH2 0x1BE8 JUMP JUMPDEST PUSH2 0x1944 PUSH1 0x7 PUSH1 0xA DUP4 ADD SLOAD LT PUSH2 0x1C27 JUMP JUMPDEST PUSH2 0x194D DUP3 PUSH2 0x1B07 JUMP JUMPDEST SWAP1 SLOAD SWAP1 PUSH1 0x3 SHL SHR DUP3 PUSH0 MSTORE PUSH1 0x19 PUSH1 0x20 MSTORE PUSH1 0x40 PUSH0 KECCAK256 DUP5 PUSH0 MSTORE PUSH1 0x20 MSTORE PUSH1 0x1 PUSH1 0x40 PUSH0 KECCAK256 ADD SWAP2 DUP3 SLOAD SWAP1 DUP3 DUP3 LT PUSH2 0x19E1 JUMPI PUSH2 0x1999 SWAP4 PUSH2 0x1988 DUP5 PUSH1 0x1 SWAP5 PUSH2 0x1C61 JUMP JUMPDEST SWAP1 SSTORE PUSH1 0xB DUP2 ADD PUSH2 0x1653 DUP5 DUP3 SLOAD PUSH2 0x1C6E JUMP JUMPDEST PUSH1 0x40 MLOAD SWAP1 DUP2 MSTORE PUSH1 0x40 PUSH1 0x20 DUP3 ADD MSTORE PUSH1 0x16 PUSH1 0x40 DUP3 ADD MSTORE PUSH22 0x506F6F6C205265546F70757020284561726E696E6729 PUSH1 0x50 SHL PUSH1 0x60 DUP3 ADD MSTORE PUSH0 MLOAD PUSH1 0x20 PUSH2 0x2FB7 PUSH0 CODECOPY PUSH0 MLOAD SWAP1 PUSH0 MSTORE PUSH1 0x80 CALLER SWAP3 LOG3 STOP JUMPDEST PUSH1 0x40 MLOAD PUSH3 0x461BCD PUSH1 0xE5 SHL DUP2 MSTORE PUSH1 0x20 PUSH1 0x4 DUP3 ADD MSTORE PUSH1 0x1A PUSH1 0x24 DUP3 ADD MSTORE PUSH32 0x4E6F7420656E6F756768207265546F7075702062616C616E6365000000000000 PUSH1 0x44 DUP3 ADD MSTORE PUSH1 0x64 SWAP1 REVERT JUMPDEST CALLVALUE PUSH2 0x26A JUMPI PUSH1 0x20 CALLDATASIZE PUSH1 0x3 NOT ADD SLT PUSH2 0x26A JUMPI PUSH1 0x4 CALLDATALOAD PUSH0 MSTORE PUSH1 0x2B PUSH1 0x20 MSTORE PUSH1 0x20 PUSH1 0x40 PUSH0 KECCAK256 SLOAD PUSH1 0x40 MLOAD SWAP1 DUP2 MSTORE RETURN JUMPDEST CALLVALUE PUSH2 0x26A JUMPI PUSH2 0x1A5E CALLDATASIZE PUSH2 0x1B96 JUMP JUMPDEST SWAP1 PUSH0 MSTORE PUSH1 0x1D PUSH1 0x20 MSTORE PUSH1 0x40 PUSH0 KECCAK256 DUP1 SLOAD DUP3 LT ISZERO PUSH2 0x26A JUMPI PUSH1 0x20 SWAP2 PUSH2 0x949 SWAP2 PUSH2 0x1B81 JUMP JUMPDEST CALLVALUE PUSH2 0x26A JUMPI PUSH2 0x1A8D CALLDATASIZE PUSH2 0x1AED JUMP JUMPDEST SWAP2 PUSH0 MSTORE PUSH1 0x20 DUP1 MSTORE PUSH1 0x40 PUSH0 KECCAK256 SWAP1 PUSH0 MSTORE PUSH1 0x20 MSTORE PUSH1 0x40 PUSH0 KECCAK256 DUP1 SLOAD DUP3 LT ISZERO PUSH2 0x26A JUMPI PUSH1 0x20 SWAP2 PUSH2 0x949 SWAP2 PUSH2 0x1B81 JUMP JUMPDEST CALLVALUE PUSH2 0x26A JUMPI PUSH0 CALLDATASIZE PUSH1 0x3 NOT ADD SLT PUSH2 0x26A JUMPI PUSH1 0x20 PUSH1 0x40 MLOAD PUSH2 0x2710 DUP2 MSTORE RETURN JUMPDEST CALLVALUE PUSH2 0x26A JUMPI PUSH0 CALLDATASIZE PUSH1 0x3 NOT ADD SLT PUSH2 0x26A JUMPI PUSH1 0x20 SWAP1 PUSH1 0x2E SLOAD DUP2 MSTORE RETURN JUMPDEST PUSH1 0x60 SWAP1 PUSH1 0x3 NOT ADD SLT PUSH2 0x26A JUMPI PUSH1 0x4 CALLDATALOAD SWAP1 PUSH1 0x24 CALLDATALOAD SWAP1 PUSH1 0x44 CALLDATALOAD SWAP1 JUMP JUMPDEST PUSH1 0x8 SLOAD DUP2 LT ISZERO PUSH2 0xCDE JUMPI PUSH1 0x8 PUSH0 MSTORE PUSH1 0x20 PUSH0 KECCAK256 ADD SWAP1 PUSH0 SWAP1 JUMP JUMPDEST PUSH1 0x7 SLOAD DUP2 LT ISZERO PUSH2 0xCDE JUMPI PUSH1 0x7 PUSH0 MSTORE PUSH1 0x20 PUSH0 KECCAK256 ADD SWAP1 PUSH0 SWAP1 JUMP JUMPDEST PUSH1 0x9 SLOAD DUP2 LT ISZERO PUSH2 0xCDE JUMPI PUSH1 0x9 PUSH0 MSTORE PUSH1 0x20 PUSH0 KECCAK256 ADD SWAP1 PUSH0 SWAP1 JUMP JUMPDEST PUSH1 0x7 SLOAD ISZERO PUSH2 0xCDE JUMPI PUSH1 0x7 PUSH0 SWAP1 DUP2 MSTORE PUSH32 0xA66CC928B5EDB82AF9BD49922954155AB7B0942694BEA4CE44661D9A8736C688 SWAP2 JUMP JUMPDEST DUP1 SLOAD DUP3 LT ISZERO PUSH2 0xCDE JUMPI PUSH0 MSTORE PUSH1 0x20 PUSH0 KECCAK256 ADD SWAP1 PUSH0 SWAP1 JUMP JUMPDEST PUSH1 0x40 SWAP1 PUSH1 0x3 NOT ADD SLT PUSH2 0x26A JUMPI PUSH1 0x4 CALLDATALOAD SWAP1 PUSH1 0x24 CALLDATALOAD SWAP1 JUMP JUMPDEST PUSH1 0x40 SWAP1 PUSH1 0x3 NOT ADD SLT PUSH2 0x26A JUMPI PUSH1 0x4 CALLDATALOAD PUSH4 0xFFFFFFFF DUP2 AND DUP2 SUB PUSH2 0x26A JUMPI SWAP1 PUSH1 0x24 CALLDATALOAD SWAP1 JUMP JUMPDEST DUP1 SLOAD DUP3 LT ISZERO PUSH2 0xCDE JUMPI PUSH0 MSTORE PUSH1 0x5 PUSH1 0x20 PUSH0 KECCAK256 SWAP2 MUL ADD SWAP1 PUSH0 SWAP1 JUMP JUMPDEST ISZERO PUSH2 0x1BEF JUMPI JUMP JUMPDEST PUSH1 0x40 MLOAD PUSH3 0x461BCD PUSH1 0xE5 SHL DUP2 MSTORE PUSH1 0x20 PUSH1 0x4 DUP3 ADD MSTORE PUSH1 0x10 PUSH1 0x24 DUP3 ADD MSTORE PUSH16 0x139BDD081E5BDD5C881858D8DBDD5B9D PUSH1 0x82 SHL PUSH1 0x44 DUP3 ADD MSTORE PUSH1 0x64 SWAP1 REVERT JUMPDEST ISZERO PUSH2 0x1C2E JUMPI JUMP JUMPDEST PUSH1 0x40 MLOAD PUSH3 0x461BCD PUSH1 0xE5 SHL DUP2 MSTORE PUSH1 0x20 PUSH1 0x4 DUP3 ADD MSTORE PUSH1 0xB PUSH1 0x24 DUP3 ADD MSTORE PUSH11 0x105D081B585E081C1BDBDB PUSH1 0xAA SHL PUSH1 0x44 DUP3 ADD MSTORE PUSH1 0x64 SWAP1 REVERT JUMPDEST SWAP2 SWAP1 DUP3 SUB SWAP2 DUP3 GT PUSH2 0x583 JUMPI JUMP JUMPDEST SWAP2 SWAP1 DUP3 ADD DUP1 SWAP3 GT PUSH2 0x583 JUMPI JUMP JUMPDEST PUSH1 0x80 DUP2 ADD SWAP1 DUP2 LT PUSH8 0xFFFFFFFFFFFFFFFF DUP3 GT OR PUSH2 0x723 JUMPI PUSH1 0x40 MSTORE JUMP JUMPDEST PUSH1 0xA0 DUP2 ADD SWAP1 DUP2 LT PUSH8 0xFFFFFFFFFFFFFFFF DUP3 GT OR PUSH2 0x723 JUMPI PUSH1 0x40 MSTORE JUMP JUMPDEST SWAP1 PUSH1 0x1F DUP1 NOT SWAP2 ADD AND DUP2 ADD SWAP1 DUP2 LT PUSH8 0xFFFFFFFFFFFFFFFF DUP3 GT OR PUSH2 0x723 JUMPI PUSH1 0x40 MSTORE JUMP JUMPDEST DUP1 SLOAD PUSH1 0x1 PUSH1 0x40 SHL DUP2 LT ISZERO PUSH2 0x723 JUMPI PUSH1 0x1 DUP2 ADD DUP1 DUP4 SSTORE DUP2 LT ISZERO PUSH2 0xCDE JUMPI PUSH1 0x3 PUSH1 0x60 SWAP2 PUSH1 0xFF SWAP4 PUSH0 MSTORE PUSH1 0x20 PUSH0 KECCAK256 SWAP1 PUSH1 0x2 SHL ADD DUP5 MLOAD DUP2 SSTORE PUSH1 0x20 DUP6 ADD MLOAD PUSH1 0x1 DUP3 ADD SSTORE PUSH1 0x40 DUP6 ADD MLOAD PUSH1 0x2 DUP3 ADD SSTORE ADD SWAP3 ADD MLOAD AND PUSH1 0xFF NOT DUP3 SLOAD AND OR SWAP1 SSTORE JUMP JUMPDEST DUP2 ISZERO PUSH2 0x1D36 JUMPI DIV SWAP1 JUMP JUMPDEST PUSH4 0x4E487B71 PUSH1 0xE0 SHL PUSH0 MSTORE PUSH1 0x12 PUSH1 0x4 MSTORE PUSH1 0x24 PUSH0 REVERT JUMPDEST SWAP1 DUP2 PUSH0 MSTORE PUSH1 0x24 PUSH1 0x20 MSTORE PUSH1 0x3 PUSH1 0x40 PUSH0 KECCAK256 ADD SLOAD ISZERO PUSH2 0x1DA4 JUMPI PUSH1 0x2A SLOAD DUP3 PUSH0 MSTORE PUSH1 0x2B PUSH1 0x20 MSTORE PUSH1 0x40 PUSH0 KECCAK256 SLOAD SWAP1 DUP2 DUP2 GT ISZERO PUSH2 0x1D9A JUMPI PUSH2 0x1D8F PUSH2 0x1D97 SWAP3 PUSH8 0xDE0B6B3A7640000 SWAP3 PUSH2 0x1C61 JUMP JUMPDEST DIV DUP1 SWAP4 PUSH2 0x2485 JUMP JUMPDEST SWAP1 JUMP JUMPDEST POP POP SWAP1 POP PUSH0 SWAP1 PUSH0 SWAP1 JUMP JUMPDEST PUSH0 SWAP2 POP DUP2 SWAP1 JUMP JUMPDEST ISZERO PUSH2 0x1DB2 JUMPI JUMP JUMPDEST PUSH1 0x40 MLOAD PUSH3 0x461BCD PUSH1 0xE5 SHL DUP2 MSTORE PUSH1 0x20 PUSH1 0x4 DUP3 ADD MSTORE PUSH1 0xC PUSH1 0x24 DUP3 ADD MSTORE PUSH12 0x105D081B585E081B195D995B PUSH1 0xA2 SHL PUSH1 0x44 DUP3 ADD MSTORE PUSH1 0x64 SWAP1 REVERT JUMPDEST ISZERO PUSH2 0x1DED JUMPI JUMP JUMPDEST PUSH1 0x40 MLOAD PUSH3 0x461BCD PUSH1 0xE5 SHL DUP2 MSTORE PUSH1 0x20 PUSH1 0x4 DUP3 ADD MSTORE PUSH1 0x18 PUSH1 0x24 DUP3 ADD MSTORE PUSH32 0x5570677261646520796F7572206C6576656C2066697273740000000000000000 PUSH1 0x44 DUP3 ADD MSTORE PUSH1 0x64 SWAP1 REVERT JUMPDEST ISZERO PUSH2 0x1E39 JUMPI JUMP JUMPDEST PUSH1 0x40 MLOAD PUSH3 0x461BCD PUSH1 0xE5 SHL DUP2 MSTORE PUSH1 0x20 PUSH1 0x4 DUP3 ADD MSTORE PUSH1 0x16 PUSH1 0x24 DUP3 ADD MSTORE PUSH22 0x141BDBDB08185B1C9958591E481C1D5C98DA185CD959 PUSH1 0x52 SHL PUSH1 0x44 DUP3 ADD MSTORE PUSH1 0x64 SWAP1 REVERT JUMPDEST SWAP1 DUP2 PUSH1 0x20 SWAP2 SUB SLT PUSH2 0x26A JUMPI MLOAD DUP1 ISZERO ISZERO DUP2 SUB PUSH2 0x26A JUMPI SWAP1 JUMP JUMPDEST PUSH1 0x60 SWAP1 PUSH0 MSTORE PUSH1 0x24 PUSH1 0x20 MSTORE PUSH1 0x40 PUSH0 KECCAK256 PUSH1 0xA DUP2 ADD SLOAD SWAP2 PUSH1 0x8 SLOAD DUP4 LT ISZERO PUSH2 0x1FA1 JUMPI POP PUSH1 0x7 DUP3 LT ISZERO PUSH2 0xCDE JUMPI PUSH1 0x6 DUP3 PUSH1 0xA ADD SLOAD SWAP2 ADD SLOAD LT PUSH2 0x1F54 JUMPI ISZERO ISZERO DUP1 PUSH2 0x1F4D JUMPI JUMPDEST PUSH2 0x1F10 JUMPI PUSH1 0x1 SWAP1 PUSH1 0x40 MLOAD PUSH2 0x1EE3 PUSH1 0x40 DUP3 PUSH2 0x1CB3 JUMP JUMPDEST PUSH1 0x19 DUP2 MSTORE PUSH32 0x456C696769626C6520746F20627579206E65787420706F6F6C00000000000000 PUSH1 0x20 DUP3 ADD MSTORE SWAP1 JUMP JUMPDEST PUSH0 SWAP1 PUSH1 0x40 MLOAD PUSH2 0x1F20 PUSH1 0x40 DUP3 PUSH2 0x1CB3 JUMP JUMPDEST PUSH1 0x17 DUP2 MSTORE PUSH32 0x4275792070726576696F757320706F6F6C206669727374000000000000000000 PUSH1 0x20 DUP3 ADD MSTORE SWAP1 JUMP JUMPDEST POP PUSH0 PUSH2 0x1ECE JUMP JUMPDEST POP PUSH0 SWAP1 PUSH1 0x40 MLOAD PUSH2 0x1F65 PUSH1 0x60 DUP3 PUSH2 0x1CB3 JUMP JUMPDEST PUSH1 0x26 DUP2 MSTORE PUSH32 0x596F75206E65656420746F207265616368206120686967686572206C6576656C PUSH1 0x20 DUP3 ADD MSTORE PUSH6 0x8199A5C9CDD PUSH1 0xD2 SHL PUSH1 0x40 DUP3 ADD MSTORE SWAP1 JUMP JUMPDEST SWAP3 SWAP2 POP POP PUSH0 SWAP2 PUSH2 0x1FB4 PUSH1 0x40 MLOAD SWAP2 DUP3 PUSH2 0x1CB3 JUMP JUMPDEST PUSH1 0x23 DUP2 MSTORE PUSH32 0x596F752061726520616C72656164792061742074686520686967686573742070 PUSH1 0x20 DUP3 ADD MSTORE PUSH3 0x1BDBDB PUSH1 0xEA SHL PUSH1 0x40 DUP3 ADD MSTORE SWAP1 JUMP JUMPDEST DUP1 SLOAD PUSH1 0x1 PUSH1 0x40 SHL DUP2 LT ISZERO PUSH2 0x723 JUMPI PUSH2 0x200A SWAP2 PUSH1 0x1 DUP3 ADD DUP2 SSTORE PUSH2 0x1BCF JUMP JUMPDEST SWAP2 SWAP1 SWAP2 PUSH2 0x2041 JUMPI DUP1 MLOAD DUP3 SSTORE PUSH1 0x20 DUP2 ADD MLOAD PUSH1 0x1 DUP4 ADD SSTORE PUSH1 0x40 DUP2 ADD MLOAD PUSH1 0x2 DUP4 ADD SSTORE PUSH1 0x60 DUP2 ADD MLOAD PUSH1 0x3 DUP4 ADD SSTORE PUSH1 0x80 ADD MLOAD PUSH1 0x4 SWAP1 SWAP2 ADD SSTORE JUMP JUMPDEST JUMP JUMPDEST PUSH4 0x4E487B71 PUSH1 0xE0 SHL PUSH0 MSTORE PUSH0 PUSH1 0x4 MSTORE PUSH1 0x24 PUSH0 REVERT JUMPDEST DUP1 PUSH0 MSTORE PUSH1 0x24 PUSH1 0x20 MSTORE PUSH1 0x40 PUSH0 KECCAK256 SWAP1 PUSH1 0x3 DUP3 ADD SLOAD ISZERO PUSH2 0x222A JUMPI PUSH2 0x207F PUSH1 0x1 DUP1 PUSH1 0xA0 SHL SUB DUP4 SLOAD AND CALLER EQ PUSH2 0x1BE8 JUMP JUMPDEST PUSH1 0x2A SLOAD SWAP2 DUP2 PUSH0 MSTORE PUSH1 0x2B PUSH1 0x20 MSTORE PUSH1 0x40 PUSH0 KECCAK256 SLOAD DUP1 DUP5 EQ PUSH2 0x2224 JUMPI PUSH2 0x20AA PUSH8 0xDE0B6B3A7640000 SWAP2 DUP6 PUSH2 0x1C61 JUMP JUMPDEST DIV SWAP2 DUP3 ISZERO PUSH2 0x2213 JUMPI PUSH2 0x20BC DUP4 DUP3 PUSH2 0x2485 JUMP JUMPDEST SWAP4 DUP2 PUSH0 MSTORE PUSH1 0x2B PUSH1 0x20 MSTORE PUSH1 0x40 PUSH0 KECCAK256 SSTORE DUP4 DUP1 PUSH2 0x20F0 JUMPI JUMPDEST SWAP2 POP POP DUP2 GT PUSH2 0x20DE JUMPI POP POP JUMP JUMPDEST PUSH2 0x203F SWAP2 PUSH2 0x20EB SWAP2 PUSH2 0x1C61 JUMP JUMPDEST PUSH2 0x255E JUMP JUMPDEST PUSH2 0x2198 SWAP3 PUSH2 0x215A DUP4 PUSH1 0x20 SWAP5 PUSH0 MSTORE PUSH1 0x25 DUP6 MSTORE PUSH1 0x7 PUSH1 0x40 PUSH0 KECCAK256 PUSH2 0x2112 DUP7 DUP3 SLOAD PUSH2 0x1C6E JUMP JUMPDEST DUP2 SSTORE ADD PUSH2 0x2120 DUP6 DUP3 SLOAD PUSH2 0x1C6E JUMP JUMPDEST SWAP1 SSTORE DUP1 PUSH0 MSTORE PUSH1 0x26 DUP6 MSTORE PUSH1 0x40 PUSH0 KECCAK256 PUSH1 0x40 MLOAD SWAP2 PUSH2 0x213A DUP4 PUSH2 0x1C97 JUMP JUMPDEST DUP3 MSTORE DUP5 DUP7 DUP4 ADD MSTORE PUSH1 0x1 PUSH1 0x40 DUP4 ADD MSTORE TIMESTAMP PUSH1 0x60 DUP4 ADD MSTORE PUSH1 0x9 PUSH1 0x80 DUP4 ADD MSTORE PUSH2 0x1FED JUMP JUMPDEST PUSH0 DUP1 SLOAD SWAP2 SLOAD PUSH1 0x40 MLOAD PUSH4 0xA9059CBB PUSH1 0xE0 SHL DUP2 MSTORE PUSH1 0x1 PUSH1 0x1 PUSH1 0xA0 SHL SUB SWAP2 DUP3 AND PUSH1 0x4 DUP3 ADD MSTORE PUSH1 0x24 DUP2 ADD SWAP5 SWAP1 SWAP5 MSTORE SWAP3 SWAP5 DUP6 SWAP4 SWAP1 SWAP3 AND SWAP2 DUP4 SWAP2 SWAP1 DUP3 SWAP1 PUSH1 0x44 DUP3 ADD SWAP1 JUMP JUMPDEST SUB SWAP3 GAS CALL SWAP1 DUP2 ISZERO PUSH2 0x764 JUMPI PUSH0 SWAP2 PUSH2 0x21F4 JUMPI JUMPDEST POP ISZERO PUSH2 0x21B8 JUMPI PUSH0 DUP1 DUP4 PUSH2 0x20D1 JUMP JUMPDEST PUSH1 0x40 MLOAD PUSH3 0x461BCD PUSH1 0xE5 SHL DUP2 MSTORE PUSH1 0x20 PUSH1 0x4 DUP3 ADD MSTORE PUSH1 0x14 PUSH1 0x24 DUP3 ADD MSTORE PUSH20 0x1554D115081D1C985B9CD9995C8819985A5B1959 PUSH1 0x62 SHL PUSH1 0x44 DUP3 ADD MSTORE PUSH1 0x64 SWAP1 REVERT JUMPDEST PUSH2 0x220D SWAP2 POP PUSH1 0x20 RETURNDATASIZE PUSH1 0x20 GT PUSH2 0x75D JUMPI PUSH2 0x750 DUP2 DUP4 PUSH2 0x1CB3 JUMP JUMPDEST PUSH0 PUSH2 0x21AA JUMP JUMPDEST SWAP2 POP POP PUSH0 MSTORE PUSH1 0x2B PUSH1 0x20 MSTORE PUSH1 0x40 PUSH0 KECCAK256 SSTORE JUMP JUMPDEST POP POP POP POP JUMP JUMPDEST PUSH1 0x40 MLOAD PUSH3 0x461BCD PUSH1 0xE5 SHL DUP2 MSTORE PUSH1 0x20 PUSH1 0x4 DUP3 ADD MSTORE PUSH1 0xE PUSH1 0x24 DUP3 ADD MSTORE PUSH14 0x155CD95C881B9BDD08199BDD5B99 PUSH1 0x92 SHL PUSH1 0x44 DUP3 ADD MSTORE PUSH1 0x64 SWAP1 REVERT JUMPDEST DUP1 SLOAD PUSH1 0x1 PUSH1 0x40 SHL DUP2 LT ISZERO PUSH2 0x723 JUMPI PUSH2 0x227D SWAP2 PUSH1 0x1 DUP3 ADD DUP2 SSTORE PUSH2 0x1B81 JUMP JUMPDEST DUP2 SWAP3 SWAP2 SLOAD SWAP1 PUSH1 0x3 SHL SWAP2 DUP3 SHL SWAP2 PUSH0 NOT SWAP1 SHL NOT AND OR SWAP1 SSTORE JUMP JUMPDEST ISZERO PUSH2 0x229B JUMPI JUMP JUMPDEST PUSH1 0x40 MLOAD PUSH3 0x461BCD PUSH1 0xE5 SHL DUP2 MSTORE PUSH1 0x20 PUSH1 0x4 DUP3 ADD MSTORE PUSH1 0x7 PUSH1 0x24 DUP3 ADD MSTORE PUSH7 0x125B9D985B1A59 PUSH1 0xCA SHL PUSH1 0x44 DUP3 ADD MSTORE PUSH1 0x64 SWAP1 REVERT JUMPDEST ISZERO PUSH2 0x22D1 JUMPI JUMP JUMPDEST PUSH1 0x40 MLOAD PUSH3 0x461BCD PUSH1 0xE5 SHL DUP2 MSTORE PUSH1 0x20 PUSH1 0x4 DUP3 ADD MSTORE PUSH1 0x10 PUSH1 0x24 DUP3 ADD MSTORE PUSH16 0x125B98DBDC9C9958DD08185B5BDD5B9D PUSH1 0x82 SHL PUSH1 0x44 DUP3 ADD MSTORE PUSH1 0x64 SWAP1 REVERT JUMPDEST DUP1 MLOAD DUP3 LT ISZERO PUSH2 0xCDE JUMPI PUSH1 0x20 SWAP2 PUSH1 0x5 SHL ADD ADD SWAP1 JUMP JUMPDEST SWAP2 SWAP1 PUSH2 0x232C PUSH1 0x8 SLOAD DUP5 LT PUSH2 0x2294 JUMP JUMPDEST PUSH2 0x2346 PUSH2 0x2338 DUP5 PUSH2 0x1B07 JUMP JUMPDEST SWAP1 SLOAD SWAP1 PUSH1 0x3 SHL SHR CALLVALUE EQ PUSH2 0x22CA JUMP JUMPDEST DUP3 PUSH0 MSTORE PUSH1 0x1D PUSH1 0x20 MSTORE PUSH1 0x40 PUSH0 KECCAK256 SWAP3 PUSH1 0x40 MLOAD DUP1 DUP6 PUSH1 0x20 DUP3 SWAP8 SLOAD SWAP4 DUP5 DUP2 MSTORE ADD SWAP1 PUSH0 MSTORE PUSH1 0x20 PUSH0 KECCAK256 SWAP3 PUSH0 JUMPDEST DUP2 DUP2 LT PUSH2 0x246C JUMPI POP POP PUSH2 0x2381 SWAP3 POP SUB DUP6 PUSH2 0x1CB3 JUMP JUMPDEST DUP4 MLOAD SWAP4 PUSH2 0x2390 DUP6 PUSH1 0x5 SLOAD PUSH2 0x1C6E JUMP JUMPDEST SWAP1 DUP3 PUSH0 MSTORE PUSH1 0x1D PUSH1 0x20 MSTORE PUSH2 0x23A6 DUP3 PUSH1 0x40 PUSH0 KECCAK256 PUSH2 0x2260 JUMP JUMPDEST PUSH0 NOT DUP7 ADD SWAP6 DUP7 GT PUSH2 0x583 JUMPI PUSH2 0x23C5 PUSH2 0x2467 SWAP2 PUSH1 0x3 PUSH2 0x203F SWAP9 DIV SWAP1 PUSH2 0x2309 JUMP JUMPDEST MLOAD SWAP2 PUSH2 0x242D PUSH1 0x40 MLOAD PUSH2 0x23D6 DUP2 PUSH2 0x1C97 JUMP JUMPDEST DUP3 DUP2 MSTORE PUSH1 0x20 DUP1 DUP3 ADD DUP9 DUP2 MSTORE PUSH1 0x40 DUP1 DUP5 ADD DUP10 DUP2 MSTORE PUSH1 0x60 DUP6 ADD DUP10 DUP2 MSTORE PUSH0 PUSH1 0x80 DUP8 ADD DUP2 DUP2 MSTORE DUP13 DUP3 MSTORE PUSH1 0x1A DUP8 MSTORE DUP5 DUP3 KECCAK256 DUP11 DUP4 MSTORE SWAP1 SWAP7 MSTORE SWAP3 SWAP1 SWAP3 KECCAK256 SWAP5 MLOAD DUP6 SSTORE SWAP2 MLOAD PUSH1 0x1 DUP6 ADD SSTORE SWAP1 MLOAD PUSH1 0x2 DUP5 ADD SSTORE MLOAD PUSH1 0x3 DUP4 ADD SSTORE MLOAD PUSH1 0x4 SWAP1 SWAP2 ADD SSTORE JUMP JUMPDEST DUP4 PUSH0 MSTORE PUSH1 0x1C PUSH1 0x20 MSTORE PUSH1 0x40 PUSH0 KECCAK256 DUP6 PUSH0 MSTORE PUSH1 0x20 MSTORE PUSH2 0x244C DUP2 PUSH1 0x40 PUSH0 KECCAK256 PUSH2 0x2260 JUMP JUMPDEST DUP4 PUSH0 MSTORE PUSH1 0x1B PUSH1 0x20 MSTORE PUSH1 0x40 PUSH0 KECCAK256 DUP4 PUSH0 MSTORE PUSH1 0x20 MSTORE PUSH1 0x40 PUSH0 KECCAK256 PUSH2 0x2260 JUMP JUMPDEST PUSH2 0x2D2F JUMP JUMPDEST DUP5 SLOAD DUP4 MSTORE PUSH1 0x1 SWAP5 DUP6 ADD SWAP5 DUP10 SWAP5 POP PUSH1 0x20 SWAP1 SWAP4 ADD SWAP3 ADD PUSH2 0x236C JUMP JUMPDEST DUP1 PUSH0 MSTORE PUSH1 0x24 PUSH1 0x20 MSTORE PUSH1 0x40 PUSH0 KECCAK256 SWAP1 PUSH0 MSTORE PUSH1 0x25 PUSH1 0x20 MSTORE PUSH1 0x40 PUSH0 KECCAK256 SWAP1 PUSH1 0x6 DUP2 ADD SLOAD PUSH1 0x7 SLOAD EQ PUSH2 0x24F2 JUMPI PUSH1 0x9 ADD SLOAD PUSH1 0x19 DUP2 MUL SWAP1 DUP1 DUP3 DIV PUSH1 0x19 EQ SWAP1 ISZERO OR ISZERO PUSH2 0x583 JUMPI PUSH1 0xA SWAP1 DIV SWAP1 SLOAD DUP2 DUP2 LT ISZERO PUSH2 0x24EB JUMPI PUSH2 0x24D9 SWAP2 PUSH2 0x1C61 JUMP JUMPDEST SWAP1 DUP2 DUP2 GT ISZERO PUSH2 0x24E6 JUMPI POP SWAP1 JUMP JUMPDEST SWAP1 POP SWAP1 JUMP JUMPDEST POP POP POP PUSH0 SWAP1 JUMP JUMPDEST POP POP SWAP1 JUMP JUMPDEST PUSH1 0x30 SLOAD SWAP1 DUP2 ISZERO DUP1 ISZERO PUSH2 0x2556 JUMPI JUMPDEST PUSH2 0x2543 JUMPI PUSH8 0xDE0B6B3A7640000 DUP2 MUL SWAP1 DUP1 DUP3 DIV PUSH8 0xDE0B6B3A7640000 EQ SWAP1 ISZERO OR ISZERO PUSH2 0x583 JUMPI PUSH2 0x253E SWAP2 PUSH2 0x2536 SWAP2 PUSH2 0x1D2C JUMP JUMPDEST PUSH1 0x2A SLOAD PUSH2 0x1C6E JUMP JUMPDEST PUSH1 0x2A SSTORE JUMP JUMPDEST DUP1 SWAP2 POP PUSH2 0x254D JUMPI POP JUMP JUMPDEST PUSH2 0x203F SWAP1 PUSH2 0x255E JUMP JUMPDEST POP DUP1 ISZERO PUSH2 0x2504 JUMP JUMPDEST PUSH1 0x2 SLOAD PUSH1 0x1 PUSH1 0x1 PUSH1 0xA0 SHL SUB AND SWAP1 DUP2 ISZERO PUSH2 0x262B JUMPI PUSH0 DUP1 SLOAD PUSH1 0x40 MLOAD PUSH4 0xA9059CBB PUSH1 0xE0 SHL DUP2 MSTORE PUSH1 0x1 PUSH1 0x1 PUSH1 0xA0 SHL SUB SWAP5 DUP6 AND PUSH1 0x4 DUP3 ADD MSTORE PUSH1 0x24 DUP2 ADD DUP5 SWAP1 MSTORE SWAP4 PUSH1 0x20 SWAP3 DUP6 SWAP3 PUSH1 0x44 SWAP3 DUP5 SWAP3 SWAP2 AND GAS CALL SWAP2 DUP3 ISZERO PUSH2 0x764 JUMPI PUSH2 0x203F SWAP3 PUSH2 0x260E JUMPI JUMPDEST POP PUSH1 0x5 SLOAD PUSH0 MSTORE PUSH1 0x25 PUSH1 0x20 MSTORE PUSH1 0x40 PUSH0 KECCAK256 PUSH2 0x25D1 DUP3 DUP3 SLOAD PUSH2 0x1C6E JUMP JUMPDEST SWAP1 SSTORE PUSH1 0x5 SLOAD PUSH0 MSTORE PUSH1 0x26 PUSH1 0x20 MSTORE PUSH1 0x40 PUSH0 KECCAK256 PUSH1 0x40 MLOAD SWAP2 PUSH2 0x25EE DUP4 PUSH2 0x1C97 JUMP JUMPDEST PUSH0 DUP4 MSTORE PUSH1 0x20 DUP4 ADD MSTORE PUSH0 PUSH1 0x40 DUP4 ADD MSTORE TIMESTAMP PUSH1 0x60 DUP4 ADD MSTORE PUSH1 0x5 PUSH1 0x80 DUP4 ADD MSTORE PUSH2 0x1FED JUMP JUMPDEST PUSH2 0x2626 SWAP1 PUSH1 0x20 RETURNDATASIZE PUSH1 0x20 GT PUSH2 0x75D JUMPI PUSH2 0x750 DUP2 DUP4 PUSH2 0x1CB3 JUMP JUMPDEST PUSH2 0x25B7 JUMP JUMPDEST PUSH1 0x40 MLOAD PUSH3 0x461BCD PUSH1 0xE5 SHL DUP2 MSTORE PUSH1 0x20 PUSH1 0x4 DUP3 ADD MSTORE PUSH1 0x11 PUSH1 0x24 DUP3 ADD MSTORE PUSH17 0x199959481859191C9CC81B9BDD081CD95D PUSH1 0x7A SHL PUSH1 0x44 DUP3 ADD MSTORE PUSH1 0x64 SWAP1 REVERT JUMPDEST DUP1 ISZERO DUP1 ISZERO PUSH2 0x2796 JUMPI JUMPDEST PUSH2 0x278B JUMPI PUSH0 DUP2 DUP2 MSTORE PUSH1 0x24 PUSH1 0x20 DUP2 DUP2 MSTORE PUSH1 0x40 DUP1 DUP5 KECCAK256 DUP5 SLOAD DUP2 SLOAD SWAP3 MLOAD PUSH4 0xA9059CBB PUSH1 0xE0 SHL DUP2 MSTORE PUSH1 0x1 PUSH1 0x1 PUSH1 0xA0 SHL SUB SWAP4 DUP5 AND PUSH1 0x4 DUP3 ADD MSTORE SWAP5 DUP6 ADD DUP10 SWAP1 MSTORE SWAP1 SWAP6 SWAP5 DUP5 SWAP3 PUSH1 0x44 SWAP3 DUP5 SWAP3 SWAP2 AND GAS CALL DUP1 ISZERO PUSH2 0x764 JUMPI PUSH2 0x276E JUMPI JUMPDEST POP DUP1 PUSH0 MSTORE PUSH1 0x25 PUSH1 0x20 MSTORE PUSH1 0x1 PUSH1 0x40 PUSH0 KECCAK256 PUSH2 0x26DA DUP7 DUP3 SLOAD PUSH2 0x1C6E JUMP JUMPDEST DUP2 SSTORE ADD PUSH2 0x26E8 DUP6 DUP3 SLOAD PUSH2 0x1C6E JUMP JUMPDEST SWAP1 SSTORE PUSH0 MSTORE PUSH1 0x26 PUSH1 0x20 MSTORE PUSH2 0x2727 PUSH1 0x40 PUSH0 KECCAK256 PUSH1 0x40 MLOAD SWAP1 PUSH2 0x2705 DUP3 PUSH2 0x1C97 JUMP JUMPDEST DUP5 DUP3 MSTORE DUP6 PUSH1 0x20 DUP4 ADD MSTORE PUSH1 0x1 PUSH1 0x40 DUP4 ADD MSTORE TIMESTAMP PUSH1 0x60 DUP4 ADD MSTORE PUSH1 0x1 PUSH1 0x80 DUP4 ADD MSTORE PUSH2 0x1FED JUMP JUMPDEST PUSH1 0x1 DUP1 PUSH1 0xA0 SHL SUB SWAP1 SLOAD AND SWAP1 PUSH0 MSTORE PUSH1 0x24 PUSH1 0x20 MSTORE PUSH0 MLOAD PUSH1 0x20 PUSH2 0x2F97 PUSH0 CODECOPY PUSH0 MLOAD SWAP1 PUSH0 MSTORE PUSH1 0x60 PUSH1 0x1 DUP1 PUSH1 0xA0 SHL SUB PUSH1 0x40 PUSH0 KECCAK256 SLOAD AND SWAP4 PUSH1 0x40 MLOAD SWAP1 DUP2 MSTORE PUSH1 0x1 PUSH1 0x20 DUP3 ADD MSTORE PUSH1 0x1 PUSH1 0x40 DUP3 ADD MSTORE LOG3 JUMP JUMPDEST PUSH2 0x2786 SWAP1 PUSH1 0x20 RETURNDATASIZE PUSH1 0x20 GT PUSH2 0x75D JUMPI PUSH2 0x750 DUP2 DUP4 PUSH2 0x1CB3 JUMP JUMPDEST PUSH2 0x26C0 JUMP JUMPDEST POP POP PUSH2 0x203F SWAP1 PUSH2 0x255E JUMP JUMPDEST POP PUSH1 0x5 SLOAD DUP2 EQ PUSH2 0x266D JUMP JUMPDEST SWAP1 SWAP2 DUP2 ISZERO DUP1 ISZERO PUSH2 0x28FF JUMPI JUMPDEST PUSH2 0x28F2 JUMPI DUP2 PUSH0 MSTORE PUSH1 0x24 PUSH1 0x20 MSTORE PUSH1 0x40 PUSH0 KECCAK256 PUSH1 0x1 DUP6 SUB PUSH2 0x28D6 JUMPI JUMPDEST PUSH0 DUP1 SLOAD DUP3 SLOAD PUSH1 0x40 MLOAD PUSH4 0xA9059CBB PUSH1 0xE0 SHL DUP2 MSTORE PUSH1 0x1 PUSH1 0x1 PUSH1 0xA0 SHL SUB SWAP2 DUP3 AND PUSH1 0x4 DUP3 ADD MSTORE PUSH1 0x24 DUP2 ADD DUP7 SWAP1 MSTORE SWAP6 SWAP5 SWAP4 SWAP3 PUSH1 0x20 SWAP3 DUP8 SWAP3 PUSH1 0x44 SWAP3 DUP5 SWAP3 SWAP1 SWAP2 AND GAS CALL SWAP3 DUP4 ISZERO PUSH2 0x764 JUMPI PUSH0 MLOAD PUSH1 0x20 PUSH2 0x2F97 PUSH0 CODECOPY PUSH0 MLOAD SWAP1 PUSH0 MSTORE SWAP5 PUSH1 0x60 SWAP5 PUSH2 0x28B9 JUMPI JUMPDEST POP DUP1 PUSH0 MSTORE PUSH1 0x25 PUSH1 0x20 MSTORE PUSH1 0x1 PUSH1 0x40 PUSH0 KECCAK256 PUSH2 0x2839 DUP6 DUP3 SLOAD PUSH2 0x1C6E JUMP JUMPDEST DUP2 SSTORE ADD PUSH2 0x2847 DUP5 DUP3 SLOAD PUSH2 0x1C6E JUMP JUMPDEST SWAP1 SSTORE PUSH0 MSTORE PUSH1 0x26 PUSH1 0x20 MSTORE PUSH2 0x2884 PUSH1 0x40 PUSH0 KECCAK256 PUSH1 0x40 MLOAD SWAP1 PUSH2 0x2864 DUP3 PUSH2 0x1C97 JUMP JUMPDEST DUP8 DUP3 MSTORE DUP5 PUSH1 0x20 DUP4 ADD MSTORE DUP9 PUSH1 0x40 DUP4 ADD MSTORE TIMESTAMP DUP7 DUP4 ADD MSTORE PUSH1 0x1 PUSH1 0x80 DUP4 ADD MSTORE PUSH2 0x1FED JUMP JUMPDEST PUSH1 0x1 DUP1 PUSH1 0xA0 SHL SUB SWAP1 SLOAD AND SWAP4 PUSH0 MSTORE PUSH1 0x24 PUSH1 0x20 MSTORE PUSH1 0x1 DUP1 PUSH1 0xA0 SHL SUB PUSH1 0x40 PUSH0 KECCAK256 SLOAD AND SWAP5 PUSH1 0x40 MLOAD SWAP2 DUP3 MSTORE PUSH1 0x20 DUP3 ADD MSTORE PUSH1 0x1 PUSH1 0x40 DUP3 ADD MSTORE LOG3 JUMP JUMPDEST PUSH2 0x28D1 SWAP1 PUSH1 0x20 RETURNDATASIZE PUSH1 0x20 GT PUSH2 0x75D JUMPI PUSH2 0x750 DUP2 DUP4 PUSH2 0x1CB3 JUMP JUMPDEST PUSH2 0x281F JUMP JUMPDEST PUSH1 0x2 PUSH1 0x7 DUP3 ADD SLOAD LT ISZERO PUSH2 0x27C5 JUMPI JUMPDEST POP SWAP2 POP POP PUSH2 0x203F SWAP2 POP PUSH2 0x255E JUMP JUMPDEST SWAP2 POP POP PUSH2 0x203F SWAP2 POP PUSH2 0x255E JUMP JUMPDEST POP PUSH1 0x5 SLOAD DUP3 EQ PUSH2 0x27AC JUMP JUMPDEST PUSH0 NOT DUP2 EQ PUSH2 0x583 JUMPI PUSH1 0x1 ADD SWAP1 JUMP JUMPDEST SWAP4 SWAP2 SWAP4 SWAP3 SWAP1 SWAP3 PUSH1 0x1 SWAP1 PUSH1 0x5 SLOAD DUP2 EQ DUP1 ISZERO PUSH2 0x2AFE JUMPI JUMPDEST PUSH2 0x2A99 JUMPI SWAP1 JUMPDEST DUP3 DUP2 LT PUSH2 0x2ABD JUMPI POP SWAP3 PUSH0 SWAP4 JUMPDEST DUP1 ISZERO ISZERO DUP1 PUSH2 0x2AB1 JUMPI JUMPDEST DUP1 PUSH2 0x2AA7 JUMPI JUMPDEST ISZERO PUSH2 0x2A99 JUMPI DUP1 PUSH0 MSTORE PUSH1 0x24 PUSH1 0x20 MSTORE PUSH1 0x40 PUSH0 KECCAK256 SWAP1 DUP4 PUSH1 0x6 DUP4 ADD SLOAD LT ISZERO PUSH2 0x2981 JUMPI POP PUSH1 0x5 PUSH2 0x297B SWAP2 ADD SLOAD SWAP5 PUSH2 0x290A JUMP JUMPDEST SWAP4 PUSH2 0x293F JUMP JUMPDEST PUSH0 DUP1 SLOAD DUP4 SLOAD PUSH1 0x40 MLOAD PUSH4 0xA9059CBB PUSH1 0xE0 SHL DUP2 MSTORE PUSH1 0x1 PUSH1 0x1 PUSH1 0xA0 SHL SUB SWAP2 DUP3 AND PUSH1 0x4 DUP3 ADD MSTORE PUSH1 0x24 DUP2 ADD DUP12 SWAP1 MSTORE SWAP8 SWAP10 SWAP7 SWAP9 POP SWAP5 SWAP7 SWAP6 SWAP3 SWAP5 SWAP3 SWAP4 SWAP3 PUSH1 0x20 SWAP3 DUP8 SWAP3 PUSH1 0x44 SWAP3 DUP5 SWAP3 SWAP2 AND GAS CALL SWAP3 DUP4 ISZERO PUSH2 0x764 JUMPI PUSH0 MLOAD PUSH1 0x20 PUSH2 0x2F97 PUSH0 CODECOPY PUSH0 MLOAD SWAP1 PUSH0 MSTORE SWAP5 PUSH1 0x60 SWAP5 PUSH2 0x2A7D JUMPI JUMPDEST POP DUP1 PUSH0 MSTORE PUSH1 0x25 PUSH1 0x20 MSTORE PUSH1 0x2 PUSH1 0x40 PUSH0 KECCAK256 PUSH2 0x29FD DUP6 DUP3 SLOAD PUSH2 0x1C6E JUMP JUMPDEST DUP2 SSTORE ADD PUSH2 0x2A0B DUP5 DUP3 SLOAD PUSH2 0x1C6E JUMP JUMPDEST SWAP1 SSTORE PUSH0 MSTORE PUSH1 0x26 PUSH1 0x20 MSTORE PUSH2 0x2A48 PUSH1 0x40 PUSH0 KECCAK256 PUSH1 0x40 MLOAD SWAP1 PUSH2 0x2A28 DUP3 PUSH2 0x1C97 JUMP JUMPDEST DUP8 DUP3 MSTORE DUP5 PUSH1 0x20 DUP4 ADD MSTORE DUP9 PUSH1 0x40 DUP4 ADD MSTORE TIMESTAMP DUP7 DUP4 ADD MSTORE PUSH1 0x2 PUSH1 0x80 DUP4 ADD MSTORE PUSH2 0x1FED JUMP JUMPDEST PUSH1 0x1 DUP1 PUSH1 0xA0 SHL SUB SWAP1 SLOAD AND SWAP4 PUSH0 MSTORE PUSH1 0x24 PUSH1 0x20 MSTORE PUSH1 0x1 DUP1 PUSH1 0xA0 SHL SUB PUSH1 0x40 PUSH0 KECCAK256 SLOAD AND SWAP5 PUSH1 0x40 MLOAD SWAP2 DUP3 MSTORE PUSH1 0x20 DUP3 ADD MSTORE PUSH1 0x2 PUSH1 0x40 DUP3 ADD MSTORE LOG3 JUMP JUMPDEST PUSH2 0x2A94 SWAP1 PUSH1 0x20 RETURNDATASIZE DUP2 GT PUSH2 0x75D JUMPI PUSH2 0x750 DUP2 DUP4 PUSH2 0x1CB3 JUMP JUMPDEST PUSH2 0x29E3 JUMP JUMPDEST POP POP POP SWAP2 PUSH2 0x203F SWAP2 POP PUSH2 0x255E JUMP JUMPDEST POP PUSH1 0xF DUP6 LT PUSH2 0x294E JUMP JUMPDEST POP PUSH1 0x5 SLOAD DUP2 EQ ISZERO PUSH2 0x2948 JUMP JUMPDEST PUSH2 0x2AC6 SWAP1 PUSH2 0x290A JUMP JUMPDEST SWAP1 PUSH0 MSTORE PUSH1 0x24 PUSH1 0x20 MSTORE PUSH1 0x5 PUSH1 0x40 PUSH0 KECCAK256 ADD SLOAD SWAP1 PUSH1 0x5 SLOAD DUP3 EQ DUP1 ISZERO PUSH2 0x2AF6 JUMPI JUMPDEST ISZERO PUSH2 0x2933 JUMPI POP POP POP SWAP2 PUSH2 0x203F SWAP2 POP PUSH2 0x255E JUMP JUMPDEST POP DUP2 ISZERO PUSH2 0x2AE3 JUMP JUMPDEST POP DUP1 ISZERO PUSH2 0x292D JUMP JUMPDEST SWAP4 SWAP2 SWAP1 SWAP3 SWAP4 DUP1 ISZERO DUP1 ISZERO PUSH2 0x2D24 JUMPI JUMPDEST PUSH2 0x28E4 JUMPI DUP3 ISZERO PUSH2 0x28E4 JUMPI PUSH2 0x2B28 DUP4 DUP4 PUSH2 0x1D2C JUMP JUMPDEST SWAP2 DUP4 DUP4 MUL DUP4 DUP2 DIV DUP6 EQ DUP5 ISZERO OR ISZERO PUSH2 0x583 JUMPI PUSH2 0x2B42 SWAP2 PUSH2 0x1C61 JUMP JUMPDEST SWAP5 PUSH1 0x1 SWAP2 SWAP5 PUSH0 JUMPDEST DUP6 DUP2 LT PUSH2 0x2B5F JUMPI POP POP POP POP POP POP POP DUP1 PUSH2 0x254D JUMPI POP JUMP JUMPDEST DUP7 ISZERO ISZERO DUP1 PUSH2 0x2D18 JUMPI JUMPDEST PUSH2 0x2B9D JUMPI JUMPDEST PUSH1 0x1 SWAP1 DUP8 ISZERO DUP1 ISZERO PUSH2 0x2B92 JUMPI JUMPDEST PUSH2 0x2B84 JUMPI JUMPDEST ADD PUSH2 0x2B49 JUMP JUMPDEST PUSH2 0x2B8D DUP7 PUSH2 0x255E JUMP JUMPDEST PUSH2 0x2B7E JUMP JUMPDEST POP PUSH1 0x5 SLOAD DUP9 EQ PUSH2 0x2B79 JUMP JUMPDEST SWAP3 DUP7 PUSH0 SWAP8 SWAP3 SWAP8 MSTORE PUSH1 0x24 PUSH1 0x20 MSTORE DUP3 PUSH1 0x6 PUSH1 0x40 PUSH0 KECCAK256 ADD SLOAD LT ISZERO PUSH0 EQ PUSH2 0x2CF6 JUMPI PUSH0 JUMPDEST DUP2 DUP2 LT PUSH2 0x2BE1 JUMPI POP POP PUSH0 MSTORE PUSH1 0x24 PUSH1 0x20 MSTORE PUSH1 0x5 PUSH1 0x40 PUSH0 KECCAK256 ADD SLOAD SWAP5 PUSH1 0x1 DUP1 SWAP4 JUMPDEST SWAP1 POP PUSH2 0x2B6D JUMP JUMPDEST PUSH0 DUP4 DUP2 MSTORE PUSH1 0x24 PUSH1 0x20 DUP2 DUP2 MSTORE PUSH1 0x40 DUP1 DUP5 KECCAK256 SLOAD DUP5 SLOAD SWAP2 MLOAD PUSH4 0xA9059CBB PUSH1 0xE0 SHL DUP2 MSTORE PUSH1 0x1 PUSH1 0x1 PUSH1 0xA0 SHL SUB SWAP2 DUP3 AND PUSH1 0x4 DUP3 ADD DUP2 SWAP1 MSTORE SWAP5 DUP2 ADD DUP13 SWAP1 MSTORE SWAP6 SWAP5 DUP7 SWAP3 PUSH1 0x44 SWAP3 DUP5 SWAP3 SWAP2 AND GAS CALL SWAP3 DUP4 ISZERO PUSH2 0x764 JUMPI PUSH1 0x1 SWAP4 PUSH2 0x2CDA JUMPI JUMPDEST POP DUP5 PUSH0 MSTORE PUSH1 0x25 PUSH1 0x20 MSTORE PUSH1 0x3 PUSH1 0x40 PUSH0 KECCAK256 PUSH2 0x2C4E DUP11 DUP3 SLOAD PUSH2 0x1C6E JUMP JUMPDEST DUP2 SSTORE ADD PUSH2 0x2C5C DUP10 DUP3 SLOAD PUSH2 0x1C6E JUMP JUMPDEST SWAP1 SSTORE DUP5 PUSH0 MSTORE PUSH1 0x26 PUSH1 0x20 MSTORE PUSH2 0x2C9B PUSH1 0x40 PUSH0 KECCAK256 PUSH1 0x40 MLOAD SWAP1 PUSH2 0x2C7A DUP3 PUSH2 0x1C97 JUMP JUMPDEST DUP13 DUP3 MSTORE DUP11 PUSH1 0x20 DUP4 ADD MSTORE DUP9 PUSH1 0x40 DUP4 ADD MSTORE TIMESTAMP PUSH1 0x60 DUP4 ADD MSTORE PUSH1 0x4 PUSH1 0x80 DUP4 ADD MSTORE PUSH2 0x1FED JUMP JUMPDEST DUP10 PUSH0 MSTORE PUSH1 0x24 PUSH1 0x20 MSTORE DUP3 DUP1 PUSH1 0xA0 SHL SUB PUSH1 0x40 PUSH0 KECCAK256 SLOAD AND SWAP1 PUSH0 MLOAD PUSH1 0x20 PUSH2 0x2F97 PUSH0 CODECOPY PUSH0 MLOAD SWAP1 PUSH0 MSTORE PUSH1 0x60 PUSH1 0x40 MLOAD DUP12 DUP2 MSTORE DUP10 PUSH1 0x20 DUP3 ADD MSTORE PUSH1 0x4 PUSH1 0x40 DUP3 ADD MSTORE LOG3 ADD PUSH2 0x2BBC JUMP JUMPDEST PUSH2 0x2CF1 SWAP1 PUSH1 0x20 RETURNDATASIZE DUP2 GT PUSH2 0x75D JUMPI PUSH2 0x750 DUP2 DUP4 PUSH2 0x1CB3 JUMP JUMPDEST PUSH2 0x2C34 JUMP JUMPDEST SWAP6 SWAP1 PUSH0 MSTORE PUSH1 0x24 PUSH1 0x20 MSTORE PUSH1 0x1 PUSH2 0x2D12 PUSH1 0x5 PUSH1 0x40 PUSH0 KECCAK256 ADD SLOAD SWAP8 PUSH2 0x290A JUMP JUMPDEST SWAP4 PUSH2 0x2BDA JUMP JUMPDEST POP PUSH1 0x5 SLOAD DUP8 EQ ISZERO PUSH2 0x2B68 JUMP JUMPDEST POP PUSH1 0x5 SLOAD DUP2 EQ PUSH2 0x2B14 JUMP JUMPDEST SWAP2 SWAP3 DUP3 ISZERO DUP1 ISZERO PUSH2 0x2F8B JUMPI JUMPDEST PUSH2 0x28F2 JUMPI PUSH1 0x3 SWAP1 DIV SWAP1 PUSH0 JUMPDEST PUSH1 0x3 DUP2 LT PUSH2 0x2D54 JUMPI POP POP POP POP POP JUMP JUMPDEST DUP2 PUSH0 MSTORE PUSH1 0x1A PUSH1 0x20 MSTORE PUSH1 0x40 PUSH0 KECCAK256 DUP5 PUSH0 MSTORE PUSH1 0x20 MSTORE PUSH1 0x40 PUSH0 KECCAK256 SWAP1 PUSH1 0x4 PUSH1 0x1 DUP4 ADD SLOAD SWAP3 ADD SWAP2 DUP3 SLOAD PUSH1 0x27 DUP2 LT PUSH2 0x2D8C JUMPI JUMPDEST POP POP PUSH1 0x1 SWAP2 POP ADD PUSH2 0x2D45 JUMP JUMPDEST PUSH1 0x18 DUP2 LT PUSH2 0x2E2E JUMPI JUMPDEST POP DUP3 SLOAD PUSH1 0x18 DUP2 LT ISZERO DUP1 PUSH2 0x2E24 JUMPI JUMPDEST PUSH2 0x2DEE JUMPI JUMPDEST POP DUP3 SLOAD PUSH1 0x24 DUP2 LT PUSH2 0x2D80 JUMPI PUSH1 0x1 DUP2 ADD DUP1 SWAP2 GT PUSH2 0x583 JUMPI PUSH1 0x1 SWAP4 SSTORE DUP4 PUSH0 MSTORE PUSH1 0x19 PUSH1 0x20 MSTORE PUSH1 0x40 PUSH0 KECCAK256 SWAP1 PUSH0 MSTORE PUSH1 0x20 MSTORE DUP2 PUSH1 0x40 PUSH0 KECCAK256 ADD PUSH2 0x2DE5 DUP6 DUP3 SLOAD PUSH2 0x1C6E JUMP JUMPDEST SWAP1 SSTORE PUSH0 DUP1 PUSH2 0x2D80 JUMP JUMPDEST PUSH1 0x1 DUP2 ADD DUP1 SWAP2 GT PUSH2 0x583 JUMPI DUP4 SSTORE DUP4 PUSH0 MSTORE PUSH1 0x19 PUSH1 0x20 MSTORE PUSH1 0x40 PUSH0 KECCAK256 DUP2 PUSH0 MSTORE PUSH1 0x20 MSTORE PUSH1 0x40 PUSH0 KECCAK256 PUSH2 0x2E1C DUP7 DUP3 SLOAD PUSH2 0x1C6E JUMP JUMPDEST SWAP1 SSTORE PUSH0 PUSH2 0x2DA8 JUMP JUMPDEST POP PUSH1 0x24 DUP2 LT PUSH2 0x2DA3 JUMP JUMPDEST PUSH1 0x1 DUP2 ADD DUP1 SWAP2 GT PUSH2 0x583 JUMPI DUP4 SSTORE DUP1 PUSH0 MSTORE PUSH1 0x25 PUSH1 0x20 MSTORE PUSH1 0x8 PUSH1 0x40 PUSH0 KECCAK256 PUSH2 0x2E54 DUP8 DUP3 SLOAD PUSH2 0x1C6E JUMP JUMPDEST DUP2 SSTORE ADD PUSH2 0x2E62 DUP7 DUP3 SLOAD PUSH2 0x1C6E JUMP JUMPDEST SWAP1 SSTORE DUP1 PUSH0 MSTORE PUSH1 0x26 PUSH1 0x20 MSTORE PUSH2 0x2EA2 PUSH1 0x40 PUSH0 KECCAK256 PUSH1 0x40 MLOAD SWAP1 PUSH2 0x2E80 DUP3 PUSH2 0x1C97 JUMP JUMPDEST DUP10 DUP3 MSTORE DUP8 PUSH1 0x20 DUP4 ADD MSTORE PUSH1 0x1 PUSH1 0x40 DUP4 ADD MSTORE TIMESTAMP PUSH1 0x60 DUP4 ADD MSTORE PUSH1 0xA PUSH1 0x80 DUP4 ADD MSTORE PUSH2 0x1FED JUMP JUMPDEST PUSH0 DUP2 DUP2 MSTORE PUSH1 0x24 PUSH1 0x20 MSTORE PUSH1 0x40 SWAP1 KECCAK256 SLOAD PUSH1 0x1 PUSH1 0x1 PUSH1 0xA0 SHL SUB AND DUP6 ISZERO PUSH1 0x5F DUP8 DUP2 MUL SWAP1 DUP9 DUP3 DIV EQ DUP3 OR ISZERO PUSH2 0x583 JUMPI PUSH0 DUP1 SLOAD PUSH1 0x40 MLOAD PUSH4 0xA9059CBB PUSH1 0xE0 SHL DUP2 MSTORE PUSH1 0x1 PUSH1 0x1 PUSH1 0xA0 SHL SUB DUP7 DUP2 AND PUSH1 0x4 DUP4 ADD MSTORE PUSH1 0x64 SWAP1 SWAP5 DIV PUSH1 0x24 DUP3 ADD MSTORE SWAP3 PUSH1 0x20 SWAP3 DUP5 SWAP3 PUSH1 0x44 SWAP3 DUP5 SWAP3 SWAP2 AND GAS CALL DUP1 ISZERO PUSH2 0x764 JUMPI PUSH2 0x2F6F JUMPI JUMPDEST POP PUSH1 0x5 DUP8 MUL SWAP1 DUP8 DUP3 DIV PUSH1 0x5 EQ OR ISZERO PUSH2 0x583 JUMPI PUSH1 0x64 PUSH2 0x2F2E SWAP2 DIV PUSH2 0x255E JUMP JUMPDEST DUP8 PUSH0 MSTORE PUSH1 0x24 PUSH1 0x20 MSTORE PUSH1 0x1 DUP1 PUSH1 0xA0 SHL SUB PUSH1 0x40 PUSH0 KECCAK256 SLOAD AND SWAP1 PUSH0 MLOAD PUSH1 0x20 PUSH2 0x2F97 PUSH0 CODECOPY PUSH0 MLOAD SWAP1 PUSH0 MSTORE PUSH1 0x60 PUSH1 0x40 MLOAD DUP10 DUP2 MSTORE PUSH1 0x1 PUSH1 0x20 DUP3 ADD MSTORE PUSH1 0xA PUSH1 0x40 DUP3 ADD MSTORE LOG3 PUSH0 PUSH2 0x2D95 JUMP JUMPDEST PUSH2 0x2F86 SWAP1 PUSH1 0x20 RETURNDATASIZE DUP2 GT PUSH2 0x75D JUMPI PUSH2 0x750 DUP2 DUP4 PUSH2 0x1CB3 JUMP JUMPDEST PUSH2 0x2F10 JUMP JUMPDEST POP PUSH1 0x5 SLOAD DUP4 EQ PUSH2 0x2D3A JUMP INVALID RJUMPI 0x7B61 0xD3 0x24 0xCE OR ORIGIN DUP16 NUMBER RETURNDATASIZE EXP 0xB6 0x25 DUP2 0xC0 CREATE 0xAA SWAP10 PUSH20 0x12BAE80FBDFCD2AA9B91D6E3BABB6A363FD9A057 SWAP10 PUSH14 0x9882C0B74B710D121707D19EEFF 0xD9 SHR MLOAD 0xC3 OR BYTE PUSH29 0x91A264697066735822122019DC330908AB1473887A4E386A20E0239B9C 0xD0 0xDA 0xB3 SWAP12 0x22 0xAC BLOBBASEFEE SWAP7 MUL 0xB5 0x29 CALL 0xD4 EOFCREATE 0x64 PUSH20 0x6F6C634300081E0033A66CC928B5EDB82AF9BD49 SWAP3 0x29 SLOAD ISZERO GAS 0xB7 0xB0 SWAP5 0x26 SWAP5 0xBE LOG4 0xCE PREVRANDAO PUSH7 0x1D9A8736C688F3 0xF7 0xA9 INVALID CALLDATASIZE 0x4F 0xAA 0xB9 EXTCODESIZE 0x21 PUSH14 0xA50A3214154F22A0A2B415B23A84 0xC8 AND SWAP15 DUP12 PUSH4 0x6EE36E15 BLOCKHASH OR SHL PUSH13 0xC960B71A7020D9F60077F6AF9 BALANCE 0xA8 0xBB CREATE2 SWAP1 0xDA MUL 0x23 0xDA 0xCF PUSH22 0xC7AF0000000000000000000000000000000000000000 "
				},
				"gasEstimates": {
					"creation": {
						"codeDepositCost": "2460000",
						"executionCost": "infinite",
						"totalCost": "infinite"
					},
					"external": {
						"ACC_PRECISION()": "395",
						"GlbBoosterPackages(uint256)": "7360",
						"PERCENTS_DIVIDER()": "175",
						"ROI_CAP_DIVIDER()": "571",
						"ROI_CAP_MULTIPLIER()": "439",
						"RetopPoolByEarning(uint32,uint256)": "infinite",
						"TIME_STEP()": "373",
						"addressToId(address)": "3291",
						"boosterUsers(uint256,uint256)": "7617",
						"canBuyNextPool(uint256)": "9573",
						"claimCommunity(uint256)": "infinite",
						"communityAccPerUser()": "2784",
						"communityDebt(uint256)": "2409",
						"creatorWallet()": "2830",
						"defaultRefId()": "3290",
						"directReferrals(uint256,uint256)": "7177",
						"incomeHistory(uint256,uint256)": "15754",
						"lastLotteryRun()": "2248",
						"lastLotteryWinner()": "2852",
						"lotteryInterval()": "2652",
						"lotteryPool()": "2432",
						"matrixDirect(uint256)": "2915",
						"minLevelForGlbBooster(uint256)": "3262",
						"minLevelForPool(uint256)": "2426",
						"owner()": "2918",
						"packages(uint256)": "7492",
						"pendingCommunity(uint256)": "infinite",
						"poolPackages(uint256)": "7382",
						"poolUsers(uint256,uint256)": "6781",
						"register(uint256)": "infinite",
						"registeredUserIds(uint256)": "6835",
						"systemMaintance()": "3292",
						"teamDevelopment()": "3355",
						"teams(uint256,uint256,uint256)": "7225",
						"totalUsers()": "3114",
						"upgrade(uint256)": "infinite",
						"upgradeBooster(uint256)": "infinite",
						"upgradePool(uint256)": "infinite",
						"upgradePoolByEarning(uint32,uint256)": "infinite",
						"usdt()": "2477",
						"userBoosterChildren(uint256,uint256,uint256)": "6829",
						"userBoosterdtl(uint256,uint256)": "9512",
						"userChildren(uint256,uint256,uint256)": "7467",
						"userHasPool(uint256,uint256)": "3250",
						"userHasbooster(uint256,uint256)": "3162",
						"userIdPerPool(uint256,uint256,uint256)": "7401",
						"userIncomes(uint256)": "21832",
						"userPooldtl(uint256,uint256)": "11935",
						"userPooltopup(uint256,uint256)": "5387",
						"users(uint256)": "30245"
					},
					"internal": {
						"_accrueCommunityBonus(uint256)": "infinite",
						"_applyGlobalCapping(uint256,uint256)": "8773",
						"_distributeLevelBoosterIncome(uint256,uint256,uint256,uint256,uint256)": "infinite",
						"_distributeLevelIncome(uint256,uint256,uint256,uint256,uint256)": "infinite",
						"_distributeMatrixIncome(uint256,uint256,uint256,uint256)": "infinite",
						"_distributePoolIncome(uint256,uint256,uint256,uint256)": "infinite",
						"_distributeSponsorIncome(uint256,uint256,uint256,uint256)": "infinite",
						"_findEligibleSponsor(uint256,uint256)": "infinite",
						"_payLevelBooster(uint256,uint256,uint256,uint256)": "infinite",
						"_payPoolIncome(uint256,uint256,uint256,uint256)": "infinite",
						"_placeInBooster(uint256,uint256,uint256)": "infinite",
						"_placeInMatrix(uint256,uint256)": "infinite",
						"_placeInPool(uint256,uint256,uint256)": "infinite",
						"_sendToCreator(uint256)": "infinite"
					}
				},
				"methodIdentifiers": {
					"ACC_PRECISION()": "32fcd966",
					"GlbBoosterPackages(uint256)": "9e234631",
					"PERCENTS_DIVIDER()": "01c234a8",
					"ROI_CAP_DIVIDER()": "58c7d352",
					"ROI_CAP_MULTIPLIER()": "375b43b4",
					"RetopPoolByEarning(uint32,uint256)": "1f6ab899",
					"TIME_STEP()": "32bc298c",
					"addressToId(address)": "cb0e0d7d",
					"boosterUsers(uint256,uint256)": "c7bb62e8",
					"canBuyNextPool(uint256)": "67d52d4d",
					"claimCommunity(uint256)": "d54d6ddb",
					"communityAccPerUser()": "78f6ad6d",
					"communityDebt(uint256)": "18ab487f",
					"creatorWallet()": "7cdc65f2",
					"defaultRefId()": "ec597e6f",
					"directReferrals(uint256,uint256)": "5ec64a44",
					"incomeHistory(uint256,uint256)": "70c8d770",
					"lastLotteryRun()": "01be02b2",
					"lastLotteryWinner()": "81a0b816",
					"lotteryInterval()": "52a8c4c4",
					"lotteryPool()": "2c831633",
					"matrixDirect(uint256)": "88afbe3e",
					"minLevelForGlbBooster(uint256)": "d0a2fd79",
					"minLevelForPool(uint256)": "2132d204",
					"owner()": "8da5cb5b",
					"packages(uint256)": "c216212a",
					"pendingCommunity(uint256)": "24513088",
					"poolPackages(uint256)": "ae4708dc",
					"poolUsers(uint256,uint256)": "0f2b7cc9",
					"register(uint256)": "f207564e",
					"registeredUserIds(uint256)": "39ab3603",
					"systemMaintance()": "e9e34a16",
					"teamDevelopment()": "f5d74d93",
					"teams(uint256,uint256,uint256)": "5aabf7f1",
					"totalUsers()": "bff1f9e1",
					"upgrade(uint256)": "45977d03",
					"upgradeBooster(uint256)": "bc1fa7c0",
					"upgradePool(uint256)": "4060160a",
					"upgradePoolByEarning(uint32,uint256)": "8e222e24",
					"usdt()": "2f48ab7d",
					"userBoosterChildren(uint256,uint256,uint256)": "0ef81b74",
					"userBoosterdtl(uint256,uint256)": "907c84a7",
					"userChildren(uint256,uint256,uint256)": "8f030ece",
					"userHasPool(uint256,uint256)": "bd1aae40",
					"userHasbooster(uint256,uint256)": "9c383486",
					"userIdPerPool(uint256,uint256,uint256)": "8d58644c",
					"userIncomes(uint256)": "46b9dece",
					"userPooldtl(uint256,uint256)": "ce79c2c3",
					"userPooltopup(uint256,uint256)": "bf724672",
					"users(uint256)": "365b98b2"
				}
			},
			"storageLayout": {
				"storage": [
					{
						"astId": 71,
						"contract": "contracts/modules/SponsorMatrix.sol:Nanakshahi",
						"label": "usdt",
						"offset": 0,
						"slot": "0",
						"type": "t_contract(IERC20)68"
					},
					{
						"astId": 73,
						"contract": "contracts/modules/SponsorMatrix.sol:Nanakshahi",
						"label": "owner",
						"offset": 0,
						"slot": "1",
						"type": "t_address"
					},
					{
						"astId": 75,
						"contract": "contracts/modules/SponsorMatrix.sol:Nanakshahi",
						"label": "creatorWallet",
						"offset": 0,
						"slot": "2",
						"type": "t_address"
					},
					{
						"astId": 77,
						"contract": "contracts/modules/SponsorMatrix.sol:Nanakshahi",
						"label": "systemMaintance",
						"offset": 0,
						"slot": "3",
						"type": "t_address"
					},
					{
						"astId": 79,
						"contract": "contracts/modules/SponsorMatrix.sol:Nanakshahi",
						"label": "teamDevelopment",
						"offset": 0,
						"slot": "4",
						"type": "t_address"
					},
					{
						"astId": 81,
						"contract": "contracts/modules/SponsorMatrix.sol:Nanakshahi",
						"label": "defaultRefId",
						"offset": 0,
						"slot": "5",
						"type": "t_uint256"
					},
					{
						"astId": 83,
						"contract": "contracts/modules/SponsorMatrix.sol:Nanakshahi",
						"label": "totalUsers",
						"offset": 0,
						"slot": "6",
						"type": "t_uint256"
					},
					{
						"astId": 147,
						"contract": "contracts/modules/SponsorMatrix.sol:Nanakshahi",
						"label": "packages",
						"offset": 0,
						"slot": "7",
						"type": "t_array(t_uint256)dyn_storage"
					},
					{
						"astId": 158,
						"contract": "contracts/modules/SponsorMatrix.sol:Nanakshahi",
						"label": "poolPackages",
						"offset": 0,
						"slot": "8",
						"type": "t_array(t_uint256)dyn_storage"
					},
					{
						"astId": 170,
						"contract": "contracts/modules/SponsorMatrix.sol:Nanakshahi",
						"label": "GlbBoosterPackages",
						"offset": 0,
						"slot": "9",
						"type": "t_array(t_uint256)dyn_storage"
					},
					{
						"astId": 182,
						"contract": "contracts/modules/SponsorMatrix.sol:Nanakshahi",
						"label": "minLevelForPool",
						"offset": 0,
						"slot": "10",
						"type": "t_array(t_uint256)7_storage"
					},
					{
						"astId": 195,
						"contract": "contracts/modules/SponsorMatrix.sol:Nanakshahi",
						"label": "minLevelForGlbBooster",
						"offset": 0,
						"slot": "17",
						"type": "t_array(t_uint256)8_storage"
					},
					{
						"astId": 301,
						"contract": "contracts/modules/SponsorMatrix.sol:Nanakshahi",
						"label": "userPooltopup",
						"offset": 0,
						"slot": "25",
						"type": "t_mapping(t_uint256,t_mapping(t_uint256,t_struct(UserPoolTopup)294_storage))"
					},
					{
						"astId": 308,
						"contract": "contracts/modules/SponsorMatrix.sol:Nanakshahi",
						"label": "userPooldtl",
						"offset": 0,
						"slot": "26",
						"type": "t_mapping(t_uint256,t_mapping(t_uint256,t_struct(UserPool)280_storage))"
					},
					{
						"astId": 315,
						"contract": "contracts/modules/SponsorMatrix.sol:Nanakshahi",
						"label": "userChildren",
						"offset": 0,
						"slot": "27",
						"type": "t_mapping(t_uint256,t_mapping(t_uint256,t_array(t_uint256)dyn_storage))"
					},
					{
						"astId": 322,
						"contract": "contracts/modules/SponsorMatrix.sol:Nanakshahi",
						"label": "userIdPerPool",
						"offset": 0,
						"slot": "28",
						"type": "t_mapping(t_uint256,t_mapping(t_uint256,t_array(t_uint256)dyn_storage))"
					},
					{
						"astId": 327,
						"contract": "contracts/modules/SponsorMatrix.sol:Nanakshahi",
						"label": "poolUsers",
						"offset": 0,
						"slot": "29",
						"type": "t_mapping(t_uint256,t_array(t_uint256)dyn_storage)"
					},
					{
						"astId": 333,
						"contract": "contracts/modules/SponsorMatrix.sol:Nanakshahi",
						"label": "userHasPool",
						"offset": 0,
						"slot": "30",
						"type": "t_mapping(t_uint256,t_mapping(t_uint256,t_bool))"
					},
					{
						"astId": 340,
						"contract": "contracts/modules/SponsorMatrix.sol:Nanakshahi",
						"label": "userBoosterdtl",
						"offset": 0,
						"slot": "31",
						"type": "t_mapping(t_uint256,t_mapping(t_uint256,t_struct(UserBooster)289_storage))"
					},
					{
						"astId": 347,
						"contract": "contracts/modules/SponsorMatrix.sol:Nanakshahi",
						"label": "userBoosterChildren",
						"offset": 0,
						"slot": "32",
						"type": "t_mapping(t_uint256,t_mapping(t_uint256,t_array(t_uint256)dyn_storage))"
					},
					{
						"astId": 352,
						"contract": "contracts/modules/SponsorMatrix.sol:Nanakshahi",
						"label": "boosterUsers",
						"offset": 0,
						"slot": "33",
						"type": "t_mapping(t_uint256,t_array(t_uint256)dyn_storage)"
					},
					{
						"astId": 358,
						"contract": "contracts/modules/SponsorMatrix.sol:Nanakshahi",
						"label": "userHasbooster",
						"offset": 0,
						"slot": "34",
						"type": "t_mapping(t_uint256,t_mapping(t_uint256,t_bool))"
					},
					{
						"astId": 384,
						"contract": "contracts/modules/SponsorMatrix.sol:Nanakshahi",
						"label": "addressToId",
						"offset": 0,
						"slot": "35",
						"type": "t_mapping(t_address,t_uint256)"
					},
					{
						"astId": 389,
						"contract": "contracts/modules/SponsorMatrix.sol:Nanakshahi",
						"label": "users",
						"offset": 0,
						"slot": "36",
						"type": "t_mapping(t_uint256,t_struct(User)237_storage)"
					},
					{
						"astId": 394,
						"contract": "contracts/modules/SponsorMatrix.sol:Nanakshahi",
						"label": "userIncomes",
						"offset": 0,
						"slot": "37",
						"type": "t_mapping(t_uint256,t_struct(UserIncome)258_storage)"
					},
					{
						"astId": 400,
						"contract": "contracts/modules/SponsorMatrix.sol:Nanakshahi",
						"label": "incomeHistory",
						"offset": 0,
						"slot": "38",
						"type": "t_mapping(t_uint256,t_array(t_struct(Income)269_storage)dyn_storage)"
					},
					{
						"astId": 407,
						"contract": "contracts/modules/SponsorMatrix.sol:Nanakshahi",
						"label": "teams",
						"offset": 0,
						"slot": "39",
						"type": "t_mapping(t_uint256,t_mapping(t_uint256,t_array(t_uint256)dyn_storage))"
					},
					{
						"astId": 411,
						"contract": "contracts/modules/SponsorMatrix.sol:Nanakshahi",
						"label": "matrixDirect",
						"offset": 0,
						"slot": "40",
						"type": "t_mapping(t_uint256,t_uint256)"
					},
					{
						"astId": 416,
						"contract": "contracts/modules/SponsorMatrix.sol:Nanakshahi",
						"label": "directReferrals",
						"offset": 0,
						"slot": "41",
						"type": "t_mapping(t_uint256,t_array(t_uint256)dyn_storage)"
					},
					{
						"astId": 421,
						"contract": "contracts/modules/SponsorMatrix.sol:Nanakshahi",
						"label": "communityAccPerUser",
						"offset": 0,
						"slot": "42",
						"type": "t_uint256"
					},
					{
						"astId": 425,
						"contract": "contracts/modules/SponsorMatrix.sol:Nanakshahi",
						"label": "communityDebt",
						"offset": 0,
						"slot": "43",
						"type": "t_mapping(t_uint256,t_uint256)"
					},
					{
						"astId": 427,
						"contract": "contracts/modules/SponsorMatrix.sol:Nanakshahi",
						"label": "lotteryPool",
						"offset": 0,
						"slot": "44",
						"type": "t_uint256"
					},
					{
						"astId": 429,
						"contract": "contracts/modules/SponsorMatrix.sol:Nanakshahi",
						"label": "lastLotteryWinner",
						"offset": 0,
						"slot": "45",
						"type": "t_address"
					},
					{
						"astId": 431,
						"contract": "contracts/modules/SponsorMatrix.sol:Nanakshahi",
						"label": "lastLotteryRun",
						"offset": 0,
						"slot": "46",
						"type": "t_uint256"
					},
					{
						"astId": 434,
						"contract": "contracts/modules/SponsorMatrix.sol:Nanakshahi",
						"label": "lotteryInterval",
						"offset": 0,
						"slot": "47",
						"type": "t_uint256"
					},
					{
						"astId": 437,
						"contract": "contracts/modules/SponsorMatrix.sol:Nanakshahi",
						"label": "registeredUserIds",
						"offset": 0,
						"slot": "48",
						"type": "t_array(t_uint256)dyn_storage"
					},
					{
						"astId": 439,
						"contract": "contracts/modules/SponsorMatrix.sol:Nanakshahi",
						"label": "nonce",
						"offset": 0,
						"slot": "49",
						"type": "t_uint256"
					},
					{
						"astId": 441,
						"contract": "contracts/modules/SponsorMatrix.sol:Nanakshahi",
						"label": "lastWinnerId",
						"offset": 0,
						"slot": "50",
						"type": "t_uint256"
					}
				],
				"types": {
					"t_address": {
						"encoding": "inplace",
						"label": "address",
						"numberOfBytes": "20"
					},
					"t_array(t_struct(Deposit)204_storage)dyn_storage": {
						"base": "t_struct(Deposit)204_storage",
						"encoding": "dynamic_array",
						"label": "struct Nanakshahi.Deposit[]",
						"numberOfBytes": "32"
					},
					"t_array(t_struct(Income)269_storage)dyn_storage": {
						"base": "t_struct(Income)269_storage",
						"encoding": "dynamic_array",
						"label": "struct Nanakshahi.Income[]",
						"numberOfBytes": "32"
					},
					"t_array(t_uint256)7_storage": {
						"base": "t_uint256",
						"encoding": "inplace",
						"label": "uint256[7]",
						"numberOfBytes": "224"
					},
					"t_array(t_uint256)8_storage": {
						"base": "t_uint256",
						"encoding": "inplace",
						"label": "uint256[8]",
						"numberOfBytes": "256"
					},
					"t_array(t_uint256)dyn_storage": {
						"base": "t_uint256",
						"encoding": "dynamic_array",
						"label": "uint256[]",
						"numberOfBytes": "32"
					},
					"t_bool": {
						"encoding": "inplace",
						"label": "bool",
						"numberOfBytes": "1"
					},
					"t_contract(IERC20)68": {
						"encoding": "inplace",
						"label": "contract IERC20",
						"numberOfBytes": "20"
					},
					"t_mapping(t_address,t_uint256)": {
						"encoding": "mapping",
						"key": "t_address",
						"label": "mapping(address => uint256)",
						"numberOfBytes": "32",
						"value": "t_uint256"
					},
					"t_mapping(t_uint256,t_array(t_struct(Income)269_storage)dyn_storage)": {
						"encoding": "mapping",
						"key": "t_uint256",
						"label": "mapping(uint256 => struct Nanakshahi.Income[])",
						"numberOfBytes": "32",
						"value": "t_array(t_struct(Income)269_storage)dyn_storage"
					},
					"t_mapping(t_uint256,t_array(t_uint256)dyn_storage)": {
						"encoding": "mapping",
						"key": "t_uint256",
						"label": "mapping(uint256 => uint256[])",
						"numberOfBytes": "32",
						"value": "t_array(t_uint256)dyn_storage"
					},
					"t_mapping(t_uint256,t_bool)": {
						"encoding": "mapping",
						"key": "t_uint256",
						"label": "mapping(uint256 => bool)",
						"numberOfBytes": "32",
						"value": "t_bool"
					},
					"t_mapping(t_uint256,t_mapping(t_uint256,t_array(t_uint256)dyn_storage))": {
						"encoding": "mapping",
						"key": "t_uint256",
						"label": "mapping(uint256 => mapping(uint256 => uint256[]))",
						"numberOfBytes": "32",
						"value": "t_mapping(t_uint256,t_array(t_uint256)dyn_storage)"
					},
					"t_mapping(t_uint256,t_mapping(t_uint256,t_bool))": {
						"encoding": "mapping",
						"key": "t_uint256",
						"label": "mapping(uint256 => mapping(uint256 => bool))",
						"numberOfBytes": "32",
						"value": "t_mapping(t_uint256,t_bool)"
					},
					"t_mapping(t_uint256,t_mapping(t_uint256,t_struct(UserBooster)289_storage))": {
						"encoding": "mapping",
						"key": "t_uint256",
						"label": "mapping(uint256 => mapping(uint256 => struct Nanakshahi.UserBooster))",
						"numberOfBytes": "32",
						"value": "t_mapping(t_uint256,t_struct(UserBooster)289_storage)"
					},
					"t_mapping(t_uint256,t_mapping(t_uint256,t_struct(UserPool)280_storage))": {
						"encoding": "mapping",
						"key": "t_uint256",
						"label": "mapping(uint256 => mapping(uint256 => struct Nanakshahi.UserPool))",
						"numberOfBytes": "32",
						"value": "t_mapping(t_uint256,t_struct(UserPool)280_storage)"
					},
					"t_mapping(t_uint256,t_mapping(t_uint256,t_struct(UserPoolTopup)294_storage))": {
						"encoding": "mapping",
						"key": "t_uint256",
						"label": "mapping(uint256 => mapping(uint256 => struct Nanakshahi.UserPoolTopup))",
						"numberOfBytes": "32",
						"value": "t_mapping(t_uint256,t_struct(UserPoolTopup)294_storage)"
					},
					"t_mapping(t_uint256,t_struct(User)237_storage)": {
						"encoding": "mapping",
						"key": "t_uint256",
						"label": "mapping(uint256 => struct Nanakshahi.User)",
						"numberOfBytes": "32",
						"value": "t_struct(User)237_storage"
					},
					"t_mapping(t_uint256,t_struct(UserBooster)289_storage)": {
						"encoding": "mapping",
						"key": "t_uint256",
						"label": "mapping(uint256 => struct Nanakshahi.UserBooster)",
						"numberOfBytes": "32",
						"value": "t_struct(UserBooster)289_storage"
					},
					"t_mapping(t_uint256,t_struct(UserIncome)258_storage)": {
						"encoding": "mapping",
						"key": "t_uint256",
						"label": "mapping(uint256 => struct Nanakshahi.UserIncome)",
						"numberOfBytes": "32",
						"value": "t_struct(UserIncome)258_storage"
					},
					"t_mapping(t_uint256,t_struct(UserPool)280_storage)": {
						"encoding": "mapping",
						"key": "t_uint256",
						"label": "mapping(uint256 => struct Nanakshahi.UserPool)",
						"numberOfBytes": "32",
						"value": "t_struct(UserPool)280_storage"
					},
					"t_mapping(t_uint256,t_struct(UserPoolTopup)294_storage)": {
						"encoding": "mapping",
						"key": "t_uint256",
						"label": "mapping(uint256 => struct Nanakshahi.UserPoolTopup)",
						"numberOfBytes": "32",
						"value": "t_struct(UserPoolTopup)294_storage"
					},
					"t_mapping(t_uint256,t_uint256)": {
						"encoding": "mapping",
						"key": "t_uint256",
						"label": "mapping(uint256 => uint256)",
						"numberOfBytes": "32",
						"value": "t_uint256"
					},
					"t_struct(Deposit)204_storage": {
						"encoding": "inplace",
						"label": "struct Nanakshahi.Deposit",
						"members": [
							{
								"astId": 197,
								"contract": "contracts/modules/SponsorMatrix.sol:Nanakshahi",
								"label": "amount",
								"offset": 0,
								"slot": "0",
								"type": "t_uint256"
							},
							{
								"astId": 199,
								"contract": "contracts/modules/SponsorMatrix.sol:Nanakshahi",
								"label": "withdrawn",
								"offset": 0,
								"slot": "1",
								"type": "t_uint256"
							},
							{
								"astId": 201,
								"contract": "contracts/modules/SponsorMatrix.sol:Nanakshahi",
								"label": "start",
								"offset": 0,
								"slot": "2",
								"type": "t_uint256"
							},
							{
								"astId": 203,
								"contract": "contracts/modules/SponsorMatrix.sol:Nanakshahi",
								"label": "depositType",
								"offset": 0,
								"slot": "3",
								"type": "t_uint8"
							}
						],
						"numberOfBytes": "128"
					},
					"t_struct(Income)269_storage": {
						"encoding": "inplace",
						"label": "struct Nanakshahi.Income",
						"members": [
							{
								"astId": 260,
								"contract": "contracts/modules/SponsorMatrix.sol:Nanakshahi",
								"label": "fromUserId",
								"offset": 0,
								"slot": "0",
								"type": "t_uint256"
							},
							{
								"astId": 262,
								"contract": "contracts/modules/SponsorMatrix.sol:Nanakshahi",
								"label": "amount",
								"offset": 0,
								"slot": "1",
								"type": "t_uint256"
							},
							{
								"astId": 264,
								"contract": "contracts/modules/SponsorMatrix.sol:Nanakshahi",
								"label": "packageLevel",
								"offset": 0,
								"slot": "2",
								"type": "t_uint256"
							},
							{
								"astId": 266,
								"contract": "contracts/modules/SponsorMatrix.sol:Nanakshahi",
								"label": "timestamp",
								"offset": 0,
								"slot": "3",
								"type": "t_uint256"
							},
							{
								"astId": 268,
								"contract": "contracts/modules/SponsorMatrix.sol:Nanakshahi",
								"label": "incomeType",
								"offset": 0,
								"slot": "4",
								"type": "t_uint256"
							}
						],
						"numberOfBytes": "160"
					},
					"t_struct(User)237_storage": {
						"encoding": "inplace",
						"label": "struct Nanakshahi.User",
						"members": [
							{
								"astId": 206,
								"contract": "contracts/modules/SponsorMatrix.sol:Nanakshahi",
								"label": "account",
								"offset": 0,
								"slot": "0",
								"type": "t_address"
							},
							{
								"astId": 210,
								"contract": "contracts/modules/SponsorMatrix.sol:Nanakshahi",
								"label": "deposits",
								"offset": 0,
								"slot": "1",
								"type": "t_array(t_struct(Deposit)204_storage)dyn_storage"
							},
							{
								"astId": 212,
								"contract": "contracts/modules/SponsorMatrix.sol:Nanakshahi",
								"label": "checkpoint",
								"offset": 0,
								"slot": "2",
								"type": "t_uint256"
							},
							{
								"astId": 214,
								"contract": "contracts/modules/SponsorMatrix.sol:Nanakshahi",
								"label": "id",
								"offset": 0,
								"slot": "3",
								"type": "t_uint256"
							},
							{
								"astId": 216,
								"contract": "contracts/modules/SponsorMatrix.sol:Nanakshahi",
								"label": "sponsorId",
								"offset": 0,
								"slot": "4",
								"type": "t_uint256"
							},
							{
								"astId": 218,
								"contract": "contracts/modules/SponsorMatrix.sol:Nanakshahi",
								"label": "uplineId",
								"offset": 0,
								"slot": "5",
								"type": "t_uint256"
							},
							{
								"astId": 220,
								"contract": "contracts/modules/SponsorMatrix.sol:Nanakshahi",
								"label": "level",
								"offset": 0,
								"slot": "6",
								"type": "t_uint256"
							},
							{
								"astId": 222,
								"contract": "contracts/modules/SponsorMatrix.sol:Nanakshahi",
								"label": "directTeam",
								"offset": 0,
								"slot": "7",
								"type": "t_uint256"
							},
							{
								"astId": 224,
								"contract": "contracts/modules/SponsorMatrix.sol:Nanakshahi",
								"label": "totalMatrixTeam",
								"offset": 0,
								"slot": "8",
								"type": "t_uint256"
							},
							{
								"astId": 226,
								"contract": "contracts/modules/SponsorMatrix.sol:Nanakshahi",
								"label": "totalDeposit",
								"offset": 0,
								"slot": "9",
								"type": "t_uint256"
							},
							{
								"astId": 228,
								"contract": "contracts/modules/SponsorMatrix.sol:Nanakshahi",
								"label": "poollevel",
								"offset": 0,
								"slot": "10",
								"type": "t_uint256"
							},
							{
								"astId": 230,
								"contract": "contracts/modules/SponsorMatrix.sol:Nanakshahi",
								"label": "poolDeposit",
								"offset": 0,
								"slot": "11",
								"type": "t_uint256"
							},
							{
								"astId": 232,
								"contract": "contracts/modules/SponsorMatrix.sol:Nanakshahi",
								"label": "boosterlevel",
								"offset": 0,
								"slot": "12",
								"type": "t_uint256"
							},
							{
								"astId": 234,
								"contract": "contracts/modules/SponsorMatrix.sol:Nanakshahi",
								"label": "boosterDeposit",
								"offset": 0,
								"slot": "13",
								"type": "t_uint256"
							},
							{
								"astId": 236,
								"contract": "contracts/modules/SponsorMatrix.sol:Nanakshahi",
								"label": "registrationTime",
								"offset": 0,
								"slot": "14",
								"type": "t_uint256"
							}
						],
						"numberOfBytes": "480"
					},
					"t_struct(UserBooster)289_storage": {
						"encoding": "inplace",
						"label": "struct Nanakshahi.UserBooster",
						"members": [
							{
								"astId": 282,
								"contract": "contracts/modules/SponsorMatrix.sol:Nanakshahi",
								"label": "id",
								"offset": 0,
								"slot": "0",
								"type": "t_uint256"
							},
							{
								"astId": 284,
								"contract": "contracts/modules/SponsorMatrix.sol:Nanakshahi",
								"label": "poolId",
								"offset": 0,
								"slot": "1",
								"type": "t_uint256"
							},
							{
								"astId": 286,
								"contract": "contracts/modules/SponsorMatrix.sol:Nanakshahi",
								"label": "parentId",
								"offset": 0,
								"slot": "2",
								"type": "t_uint256"
							},
							{
								"astId": 288,
								"contract": "contracts/modules/SponsorMatrix.sol:Nanakshahi",
								"label": "bonusCount",
								"offset": 0,
								"slot": "3",
								"type": "t_uint256"
							}
						],
						"numberOfBytes": "128"
					},
					"t_struct(UserIncome)258_storage": {
						"encoding": "inplace",
						"label": "struct Nanakshahi.UserIncome",
						"members": [
							{
								"astId": 239,
								"contract": "contracts/modules/SponsorMatrix.sol:Nanakshahi",
								"label": "totalIncome",
								"offset": 0,
								"slot": "0",
								"type": "t_uint256"
							},
							{
								"astId": 241,
								"contract": "contracts/modules/SponsorMatrix.sol:Nanakshahi",
								"label": "sponsorIncome",
								"offset": 0,
								"slot": "1",
								"type": "t_uint256"
							},
							{
								"astId": 243,
								"contract": "contracts/modules/SponsorMatrix.sol:Nanakshahi",
								"label": "matrixIncome",
								"offset": 0,
								"slot": "2",
								"type": "t_uint256"
							},
							{
								"astId": 245,
								"contract": "contracts/modules/SponsorMatrix.sol:Nanakshahi",
								"label": "levelBoosterIncome",
								"offset": 0,
								"slot": "3",
								"type": "t_uint256"
							},
							{
								"astId": 247,
								"contract": "contracts/modules/SponsorMatrix.sol:Nanakshahi",
								"label": "levelIncome",
								"offset": 0,
								"slot": "4",
								"type": "t_uint256"
							},
							{
								"astId": 249,
								"contract": "contracts/modules/SponsorMatrix.sol:Nanakshahi",
								"label": "royaltyIncome",
								"offset": 0,
								"slot": "5",
								"type": "t_uint256"
							},
							{
								"astId": 251,
								"contract": "contracts/modules/SponsorMatrix.sol:Nanakshahi",
								"label": "royaltyIncomeClaimed",
								"offset": 0,
								"slot": "6",
								"type": "t_uint256"
							},
							{
								"astId": 253,
								"contract": "contracts/modules/SponsorMatrix.sol:Nanakshahi",
								"label": "communityIncome",
								"offset": 0,
								"slot": "7",
								"type": "t_uint256"
							},
							{
								"astId": 255,
								"contract": "contracts/modules/SponsorMatrix.sol:Nanakshahi",
								"label": "poolIncome",
								"offset": 0,
								"slot": "8",
								"type": "t_uint256"
							},
							{
								"astId": 257,
								"contract": "contracts/modules/SponsorMatrix.sol:Nanakshahi",
								"label": "boosterIncome",
								"offset": 0,
								"slot": "9",
								"type": "t_uint256"
							}
						],
						"numberOfBytes": "320"
					},
					"t_struct(UserPool)280_storage": {
						"encoding": "inplace",
						"label": "struct Nanakshahi.UserPool",
						"members": [
							{
								"astId": 271,
								"contract": "contracts/modules/SponsorMatrix.sol:Nanakshahi",
								"label": "id",
								"offset": 0,
								"slot": "0",
								"type": "t_uint256"
							},
							{
								"astId": 273,
								"contract": "contracts/modules/SponsorMatrix.sol:Nanakshahi",
								"label": "mainid",
								"offset": 0,
								"slot": "1",
								"type": "t_uint256"
							},
							{
								"astId": 275,
								"contract": "contracts/modules/SponsorMatrix.sol:Nanakshahi",
								"label": "poolId",
								"offset": 0,
								"slot": "2",
								"type": "t_uint256"
							},
							{
								"astId": 277,
								"contract": "contracts/modules/SponsorMatrix.sol:Nanakshahi",
								"label": "parentId",
								"offset": 0,
								"slot": "3",
								"type": "t_uint256"
							},
							{
								"astId": 279,
								"contract": "contracts/modules/SponsorMatrix.sol:Nanakshahi",
								"label": "bonusCount",
								"offset": 0,
								"slot": "4",
								"type": "t_uint256"
							}
						],
						"numberOfBytes": "160"
					},
					"t_struct(UserPoolTopup)294_storage": {
						"encoding": "inplace",
						"label": "struct Nanakshahi.UserPoolTopup",
						"members": [
							{
								"astId": 291,
								"contract": "contracts/modules/SponsorMatrix.sol:Nanakshahi",
								"label": "nextPoolAmt",
								"offset": 0,
								"slot": "0",
								"type": "t_uint256"
							},
							{
								"astId": 293,
								"contract": "contracts/modules/SponsorMatrix.sol:Nanakshahi",
								"label": "reTopupAmt",
								"offset": 0,
								"slot": "1",
								"type": "t_uint256"
							}
						],
						"numberOfBytes": "64"
					},
					"t_uint256": {
						"encoding": "inplace",
						"label": "uint256",
						"numberOfBytes": "32"
					},
					"t_uint8": {
						"encoding": "inplace",
						"label": "uint8",
						"numberOfBytes": "1"
					}
				}
			},
			"userdoc": {
				"kind": "user",
				"methods": {},
				"version": 1
			}
		}
	}
}