{
	"contracts/modules/Storage.sol": {
		"Storage": {
			"abi": [
				{
					"inputs": [],
					"stateMutability": "nonpayable",
					"type": "constructor"
				},
				{
					"anonymous": false,
					"inputs": [
						{
							"indexed": false,
							"internalType": "uint256",
							"name": "amount",
							"type": "uint256"
						},
						{
							"indexed": false,
							"internalType": "uint256",
							"name": "usersCount",
							"type": "uint256"
						},
						{
							"indexed": false,
							"internalType": "uint256",
							"name": "perUser",
							"type": "uint256"
						}
					],
					"name": "CommunityBonusDistributed",
					"type": "event"
				},
				{
					"anonymous": false,
					"inputs": [
						{
							"indexed": true,
							"internalType": "address",
							"name": "to",
							"type": "address"
						},
						{
							"indexed": true,
							"internalType": "address",
							"name": "from",
							"type": "address"
						},
						{
							"indexed": false,
							"internalType": "uint256",
							"name": "amount",
							"type": "uint256"
						},
						{
							"indexed": false,
							"internalType": "uint256",
							"name": "packageLevel",
							"type": "uint256"
						},
						{
							"indexed": false,
							"internalType": "uint256",
							"name": "incomeType",
							"type": "uint256"
						}
					],
					"name": "IncomeDistributed",
					"type": "event"
				},
				{
					"anonymous": false,
					"inputs": [
						{
							"indexed": true,
							"internalType": "address",
							"name": "to",
							"type": "address"
						},
						{
							"indexed": true,
							"internalType": "uint256",
							"name": "toId",
							"type": "uint256"
						},
						{
							"indexed": true,
							"internalType": "uint256",
							"name": "fromId",
							"type": "uint256"
						},
						{
							"indexed": false,
							"internalType": "uint256",
							"name": "amount",
							"type": "uint256"
						},
						{
							"indexed": false,
							"internalType": "uint256",
							"name": "packageLevel",
							"type": "uint256"
						},
						{
							"indexed": false,
							"internalType": "enum Storage.IncomeType",
							"name": "incomeType",
							"type": "uint8"
						},
						{
							"indexed": false,
							"internalType": "uint256",
							"name": "timestamp",
							"type": "uint256"
						}
					],
					"name": "IncomeDistribution",
					"type": "event"
				},
				{
					"anonymous": false,
					"inputs": [
						{
							"indexed": true,
							"internalType": "address",
							"name": "winner",
							"type": "address"
						},
						{
							"indexed": true,
							"internalType": "uint256",
							"name": "fromUserId",
							"type": "uint256"
						},
						{
							"indexed": false,
							"internalType": "uint256",
							"name": "amount",
							"type": "uint256"
						},
						{
							"indexed": false,
							"internalType": "uint256",
							"name": "timestamp",
							"type": "uint256"
						}
					],
					"name": "LotteryReward",
					"type": "event"
				},
				{
					"anonymous": false,
					"inputs": [
						{
							"indexed": false,
							"internalType": "uint256",
							"name": "roundId",
							"type": "uint256"
						},
						{
							"indexed": false,
							"internalType": "uint256",
							"name": "totalUsers",
							"type": "uint256"
						},
						{
							"indexed": false,
							"internalType": "uint256",
							"name": "perUserReward",
							"type": "uint256"
						},
						{
							"indexed": false,
							"internalType": "uint256",
							"name": "totalReward",
							"type": "uint256"
						},
						{
							"indexed": false,
							"internalType": "uint256",
							"name": "totalDistributed",
							"type": "uint256"
						},
						{
							"indexed": false,
							"internalType": "uint256",
							"name": "leftoverReward",
							"type": "uint256"
						},
						{
							"indexed": false,
							"internalType": "uint256",
							"name": "endTime",
							"type": "uint256"
						}
					],
					"name": "MonthlyClosed",
					"type": "event"
				},
				{
					"anonymous": false,
					"inputs": [
						{
							"indexed": false,
							"internalType": "uint256",
							"name": "roundId",
							"type": "uint256"
						},
						{
							"indexed": false,
							"internalType": "uint256",
							"name": "userId",
							"type": "uint256"
						},
						{
							"indexed": false,
							"internalType": "uint256",
							"name": "perUserReward",
							"type": "uint256"
						},
						{
							"indexed": false,
							"internalType": "uint256",
							"name": "claimTime",
							"type": "uint256"
						}
					],
					"name": "MonthlyRewardClaim",
					"type": "event"
				},
				{
					"anonymous": false,
					"inputs": [
						{
							"indexed": false,
							"internalType": "uint256",
							"name": "roundId",
							"type": "uint256"
						},
						{
							"indexed": false,
							"internalType": "uint256",
							"name": "userId",
							"type": "uint256"
						},
						{
							"indexed": false,
							"internalType": "uint256",
							"name": "joinTime",
							"type": "uint256"
						}
					],
					"name": "MonthlyRoyaltyQualified",
					"type": "event"
				},
				{
					"anonymous": false,
					"inputs": [
						{
							"indexed": true,
							"internalType": "address",
							"name": "user",
							"type": "address"
						},
						{
							"indexed": true,
							"internalType": "address",
							"name": "sponsor",
							"type": "address"
						},
						{
							"indexed": true,
							"internalType": "uint256",
							"name": "userId",
							"type": "uint256"
						},
						{
							"indexed": false,
							"internalType": "uint256",
							"name": "uplineId",
							"type": "uint256"
						}
					],
					"name": "Registration",
					"type": "event"
				},
				{
					"anonymous": false,
					"inputs": [
						{
							"indexed": true,
							"internalType": "address",
							"name": "to",
							"type": "address"
						},
						{
							"indexed": false,
							"internalType": "uint256",
							"name": "amount",
							"type": "uint256"
						},
						{
							"indexed": false,
							"internalType": "string",
							"name": "level",
							"type": "string"
						}
					],
					"name": "RewardSent",
					"type": "event"
				},
				{
					"anonymous": false,
					"inputs": [
						{
							"indexed": false,
							"internalType": "uint256",
							"name": "roundId",
							"type": "uint256"
						},
						{
							"indexed": false,
							"internalType": "uint256",
							"name": "totalUsers",
							"type": "uint256"
						},
						{
							"indexed": false,
							"internalType": "uint256",
							"name": "perUserReward",
							"type": "uint256"
						},
						{
							"indexed": false,
							"internalType": "uint256",
							"name": "totalReward",
							"type": "uint256"
						},
						{
							"indexed": false,
							"internalType": "uint256",
							"name": "totalDistributed",
							"type": "uint256"
						},
						{
							"indexed": false,
							"internalType": "uint256",
							"name": "leftoverReward",
							"type": "uint256"
						},
						{
							"indexed": false,
							"internalType": "uint256",
							"name": "endTime",
							"type": "uint256"
						}
					],
					"name": "TopRoyaltyClosed",
					"type": "event"
				},
				{
					"anonymous": false,
					"inputs": [
						{
							"indexed": false,
							"internalType": "uint256",
							"name": "roundId",
							"type": "uint256"
						},
						{
							"indexed": false,
							"internalType": "uint256",
							"name": "userId",
							"type": "uint256"
						},
						{
							"indexed": false,
							"internalType": "uint256",
							"name": "joinTime",
							"type": "uint256"
						}
					],
					"name": "TopRoyaltyQualified",
					"type": "event"
				},
				{
					"anonymous": false,
					"inputs": [
						{
							"indexed": false,
							"internalType": "uint256",
							"name": "roundId",
							"type": "uint256"
						},
						{
							"indexed": false,
							"internalType": "uint256",
							"name": "userId",
							"type": "uint256"
						},
						{
							"indexed": false,
							"internalType": "uint256",
							"name": "perUserReward",
							"type": "uint256"
						},
						{
							"indexed": false,
							"internalType": "uint256",
							"name": "claimTime",
							"type": "uint256"
						}
					],
					"name": "TopRoyaltyRewardClaim",
					"type": "event"
				},
				{
					"anonymous": false,
					"inputs": [
						{
							"indexed": true,
							"internalType": "address",
							"name": "user",
							"type": "address"
						},
						{
							"indexed": true,
							"internalType": "uint256",
							"name": "userId",
							"type": "uint256"
						},
						{
							"indexed": false,
							"internalType": "uint256",
							"name": "packageLevel",
							"type": "uint256"
						},
						{
							"indexed": false,
							"internalType": "uint256",
							"name": "packagePrice",
							"type": "uint256"
						},
						{
							"indexed": false,
							"internalType": "string",
							"name": "depositType",
							"type": "string"
						},
						{
							"indexed": false,
							"internalType": "uint256",
							"name": "upgradeTime",
							"type": "uint256"
						}
					],
					"name": "Upgrade",
					"type": "event"
				},
				{
					"anonymous": false,
					"inputs": [
						{
							"indexed": true,
							"internalType": "uint8",
							"name": "matrixId",
							"type": "uint8"
						},
						{
							"indexed": true,
							"internalType": "uint32",
							"name": "userId",
							"type": "uint32"
						},
						{
							"indexed": true,
							"internalType": "address",
							"name": "user",
							"type": "address"
						},
						{
							"indexed": false,
							"internalType": "uint32",
							"name": "parentId",
							"type": "uint32"
						},
						{
							"indexed": false,
							"internalType": "address",
							"name": "parentAddr",
							"type": "address"
						},
						{
							"indexed": false,
							"internalType": "uint8",
							"name": "position",
							"type": "uint8"
						}
					],
					"name": "UserJoined",
					"type": "event"
				},
				{
					"anonymous": false,
					"inputs": [
						{
							"indexed": false,
							"internalType": "uint256",
							"name": "roundId",
							"type": "uint256"
						},
						{
							"indexed": false,
							"internalType": "uint256",
							"name": "totalUsers",
							"type": "uint256"
						},
						{
							"indexed": false,
							"internalType": "uint256",
							"name": "perUserReward",
							"type": "uint256"
						},
						{
							"indexed": false,
							"internalType": "uint256",
							"name": "totalReward",
							"type": "uint256"
						},
						{
							"indexed": false,
							"internalType": "uint256",
							"name": "totalDistributed",
							"type": "uint256"
						},
						{
							"indexed": false,
							"internalType": "uint256",
							"name": "leftoverReward",
							"type": "uint256"
						},
						{
							"indexed": false,
							"internalType": "uint256",
							"name": "endTime",
							"type": "uint256"
						}
					],
					"name": "WeeklyClosed",
					"type": "event"
				},
				{
					"anonymous": false,
					"inputs": [
						{
							"indexed": false,
							"internalType": "uint256",
							"name": "roundId",
							"type": "uint256"
						},
						{
							"indexed": false,
							"internalType": "uint256",
							"name": "userId",
							"type": "uint256"
						},
						{
							"indexed": false,
							"internalType": "uint256",
							"name": "joinTime",
							"type": "uint256"
						}
					],
					"name": "WeeklyContestQualified",
					"type": "event"
				},
				{
					"anonymous": false,
					"inputs": [
						{
							"indexed": false,
							"internalType": "uint256",
							"name": "roundId",
							"type": "uint256"
						},
						{
							"indexed": false,
							"internalType": "uint256",
							"name": "userId",
							"type": "uint256"
						},
						{
							"indexed": false,
							"internalType": "uint256",
							"name": "perUserReward",
							"type": "uint256"
						},
						{
							"indexed": false,
							"internalType": "uint256",
							"name": "claimTime",
							"type": "uint256"
						}
					],
					"name": "WeeklyRewardClaim",
					"type": "event"
				},
				{
					"inputs": [],
					"name": "ACC_PRECISION",
					"outputs": [
						{
							"internalType": "uint256",
							"name": "",
							"type": "uint256"
						}
					],
					"stateMutability": "view",
					"type": "function"
				},
				{
					"inputs": [],
					"name": "MONTHLY_ROYALTY_DIRECT",
					"outputs": [
						{
							"internalType": "uint256",
							"name": "",
							"type": "uint256"
						}
					],
					"stateMutability": "view",
					"type": "function"
				},
				{
					"inputs": [],
					"name": "MONTHLY_ROYALTY_LEVEL",
					"outputs": [
						{
							"internalType": "uint256",
							"name": "",
							"type": "uint256"
						}
					],
					"stateMutability": "view",
					"type": "function"
				},
				{
					"inputs": [],
					"name": "MONTHLY_ROYALTY_TIME",
					"outputs": [
						{
							"internalType": "uint256",
							"name": "",
							"type": "uint256"
						}
					],
					"stateMutability": "view",
					"type": "function"
				},
				{
					"inputs": [],
					"name": "MONTH_DURATION",
					"outputs": [
						{
							"internalType": "uint256",
							"name": "",
							"type": "uint256"
						}
					],
					"stateMutability": "view",
					"type": "function"
				},
				{
					"inputs": [],
					"name": "PERCENTS_DIVIDER",
					"outputs": [
						{
							"internalType": "uint256",
							"name": "",
							"type": "uint256"
						}
					],
					"stateMutability": "view",
					"type": "function"
				},
				{
					"inputs": [],
					"name": "ROI_2X_TIME",
					"outputs": [
						{
							"internalType": "uint256",
							"name": "",
							"type": "uint256"
						}
					],
					"stateMutability": "view",
					"type": "function"
				},
				{
					"inputs": [],
					"name": "ROI_CAP_DIVIDER",
					"outputs": [
						{
							"internalType": "uint256",
							"name": "",
							"type": "uint256"
						}
					],
					"stateMutability": "view",
					"type": "function"
				},
				{
					"inputs": [],
					"name": "ROI_CAP_MULTIPLIER",
					"outputs": [
						{
							"internalType": "uint256",
							"name": "",
							"type": "uint256"
						}
					],
					"stateMutability": "view",
					"type": "function"
				},
				{
					"inputs": [],
					"name": "TIME_STEP",
					"outputs": [
						{
							"internalType": "uint256",
							"name": "",
							"type": "uint256"
						}
					],
					"stateMutability": "view",
					"type": "function"
				},
				{
					"inputs": [],
					"name": "TOP_ROYALTY_DIRECT",
					"outputs": [
						{
							"internalType": "uint256",
							"name": "",
							"type": "uint256"
						}
					],
					"stateMutability": "view",
					"type": "function"
				},
				{
					"inputs": [],
					"name": "TOP_ROYALTY_LEVEL",
					"outputs": [
						{
							"internalType": "uint256",
							"name": "",
							"type": "uint256"
						}
					],
					"stateMutability": "view",
					"type": "function"
				},
				{
					"inputs": [],
					"name": "TOP_ROYALTY_TIME",
					"outputs": [
						{
							"internalType": "uint256",
							"name": "",
							"type": "uint256"
						}
					],
					"stateMutability": "view",
					"type": "function"
				},
				{
					"inputs": [],
					"name": "WEEK_DURATION",
					"outputs": [
						{
							"internalType": "uint256",
							"name": "",
							"type": "uint256"
						}
					],
					"stateMutability": "view",
					"type": "function"
				},
				{
					"inputs": [],
					"name": "WeeklyCapping",
					"outputs": [
						{
							"internalType": "uint256",
							"name": "",
							"type": "uint256"
						}
					],
					"stateMutability": "view",
					"type": "function"
				},
				{
					"inputs": [],
					"name": "WeeklyTotalReward",
					"outputs": [
						{
							"internalType": "uint256",
							"name": "",
							"type": "uint256"
						}
					],
					"stateMutability": "view",
					"type": "function"
				},
				{
					"inputs": [
						{
							"internalType": "address",
							"name": "",
							"type": "address"
						}
					],
					"name": "addressToId",
					"outputs": [
						{
							"internalType": "uint256",
							"name": "",
							"type": "uint256"
						}
					],
					"stateMutability": "view",
					"type": "function"
				},
				{
					"inputs": [
						{
							"internalType": "uint256",
							"name": "",
							"type": "uint256"
						}
					],
					"name": "communityAccPerPackage",
					"outputs": [
						{
							"internalType": "uint256",
							"name": "",
							"type": "uint256"
						}
					],
					"stateMutability": "view",
					"type": "function"
				},
				{
					"inputs": [],
					"name": "communityAccPerUser",
					"outputs": [
						{
							"internalType": "uint256",
							"name": "",
							"type": "uint256"
						}
					],
					"stateMutability": "view",
					"type": "function"
				},
				{
					"inputs": [
						{
							"internalType": "uint256",
							"name": "",
							"type": "uint256"
						},
						{
							"internalType": "uint256",
							"name": "",
							"type": "uint256"
						}
					],
					"name": "communityDebt",
					"outputs": [
						{
							"internalType": "uint256",
							"name": "",
							"type": "uint256"
						}
					],
					"stateMutability": "view",
					"type": "function"
				},
				{
					"inputs": [],
					"name": "creatorWallet",
					"outputs": [
						{
							"internalType": "address",
							"name": "",
							"type": "address"
						}
					],
					"stateMutability": "view",
					"type": "function"
				},
				{
					"inputs": [],
					"name": "currentMonthlyRound",
					"outputs": [
						{
							"internalType": "uint256",
							"name": "",
							"type": "uint256"
						}
					],
					"stateMutability": "view",
					"type": "function"
				},
				{
					"inputs": [],
					"name": "currentMonthlyStartTime",
					"outputs": [
						{
							"internalType": "uint256",
							"name": "",
							"type": "uint256"
						}
					],
					"stateMutability": "view",
					"type": "function"
				},
				{
					"inputs": [],
					"name": "currentWeeklyRound",
					"outputs": [
						{
							"internalType": "uint256",
							"name": "",
							"type": "uint256"
						}
					],
					"stateMutability": "view",
					"type": "function"
				},
				{
					"inputs": [],
					"name": "currentWeeklyStartTime",
					"outputs": [
						{
							"internalType": "uint256",
							"name": "",
							"type": "uint256"
						}
					],
					"stateMutability": "view",
					"type": "function"
				},
				{
					"inputs": [],
					"name": "defaultRefId",
					"outputs": [
						{
							"internalType": "uint256",
							"name": "",
							"type": "uint256"
						}
					],
					"stateMutability": "view",
					"type": "function"
				},
				{
					"inputs": [
						{
							"internalType": "uint256",
							"name": "",
							"type": "uint256"
						}
					],
					"name": "glbBoosterPackages",
					"outputs": [
						{
							"internalType": "uint256",
							"name": "",
							"type": "uint256"
						}
					],
					"stateMutability": "view",
					"type": "function"
				},
				{
					"inputs": [
						{
							"internalType": "uint256",
							"name": "",
							"type": "uint256"
						}
					],
					"name": "minLevelForGlbBooster",
					"outputs": [
						{
							"internalType": "uint256",
							"name": "",
							"type": "uint256"
						}
					],
					"stateMutability": "view",
					"type": "function"
				},
				{
					"inputs": [
						{
							"internalType": "uint256",
							"name": "",
							"type": "uint256"
						}
					],
					"name": "minLevelForPool",
					"outputs": [
						{
							"internalType": "uint256",
							"name": "",
							"type": "uint256"
						}
					],
					"stateMutability": "view",
					"type": "function"
				},
				{
					"inputs": [
						{
							"internalType": "uint256",
							"name": "",
							"type": "uint256"
						}
					],
					"name": "minPoolForGlbBooster",
					"outputs": [
						{
							"internalType": "uint256",
							"name": "",
							"type": "uint256"
						}
					],
					"stateMutability": "view",
					"type": "function"
				},
				{
					"inputs": [],
					"name": "monthlyCapping",
					"outputs": [
						{
							"internalType": "uint256",
							"name": "",
							"type": "uint256"
						}
					],
					"stateMutability": "view",
					"type": "function"
				},
				{
					"inputs": [],
					"name": "monthlyTotalReward",
					"outputs": [
						{
							"internalType": "uint256",
							"name": "",
							"type": "uint256"
						}
					],
					"stateMutability": "view",
					"type": "function"
				},
				{
					"inputs": [
						{
							"internalType": "uint256",
							"name": "",
							"type": "uint256"
						}
					],
					"name": "packageQualifiedUsers",
					"outputs": [
						{
							"internalType": "uint256",
							"name": "",
							"type": "uint256"
						}
					],
					"stateMutability": "view",
					"type": "function"
				},
				{
					"inputs": [
						{
							"internalType": "uint256",
							"name": "",
							"type": "uint256"
						}
					],
					"name": "packages",
					"outputs": [
						{
							"internalType": "uint256",
							"name": "",
							"type": "uint256"
						}
					],
					"stateMutability": "view",
					"type": "function"
				},
				{
					"inputs": [
						{
							"internalType": "uint256",
							"name": "",
							"type": "uint256"
						}
					],
					"name": "poolPackages",
					"outputs": [
						{
							"internalType": "uint256",
							"name": "",
							"type": "uint256"
						}
					],
					"stateMutability": "view",
					"type": "function"
				},
				{
					"inputs": [
						{
							"internalType": "uint256",
							"name": "",
							"type": "uint256"
						}
					],
					"name": "registeredUserIds",
					"outputs": [
						{
							"internalType": "uint256",
							"name": "",
							"type": "uint256"
						}
					],
					"stateMutability": "view",
					"type": "function"
				},
				{
					"inputs": [],
					"name": "systemMaintance",
					"outputs": [
						{
							"internalType": "address",
							"name": "",
							"type": "address"
						}
					],
					"stateMutability": "view",
					"type": "function"
				},
				{
					"inputs": [],
					"name": "teamDevelopment",
					"outputs": [
						{
							"internalType": "address",
							"name": "",
							"type": "address"
						}
					],
					"stateMutability": "view",
					"type": "function"
				},
				{
					"inputs": [],
					"name": "topRoyaltyReward",
					"outputs": [
						{
							"internalType": "uint256",
							"name": "",
							"type": "uint256"
						}
					],
					"stateMutability": "view",
					"type": "function"
				},
				{
					"inputs": [],
					"name": "topRoyaltyRound",
					"outputs": [
						{
							"internalType": "uint256",
							"name": "",
							"type": "uint256"
						}
					],
					"stateMutability": "view",
					"type": "function"
				},
				{
					"inputs": [],
					"name": "topRoyaltyStartTime",
					"outputs": [
						{
							"internalType": "uint256",
							"name": "",
							"type": "uint256"
						}
					],
					"stateMutability": "view",
					"type": "function"
				},
				{
					"inputs": [],
					"name": "totalUsers",
					"outputs": [
						{
							"internalType": "uint256",
							"name": "",
							"type": "uint256"
						}
					],
					"stateMutability": "view",
					"type": "function"
				},
				{
					"inputs": [],
					"name": "usdt",
					"outputs": [
						{
							"internalType": "contract IERC20",
							"name": "",
							"type": "address"
						}
					],
					"stateMutability": "view",
					"type": "function"
				}
			],
			"devdoc": {
				"kind": "dev",
				"methods": {},
				"version": 1
			},
			"evm": {
				"assembly": "    /* \"contracts/modules/Storage.sol\":292:20548  contract Storage is ReentrancyGuard {... */\n  mstore(0x40, 0x80)\n  jumpi(tag_4, callvalue)\n    /* \"@openzeppelin/contracts/security/ReentrancyGuard.sol\":1716:1717  1 */\n  0x01\n    /* \"@openzeppelin/contracts/security/ReentrancyGuard.sol\":1821:1843  _status = _NOT_ENTERED */\n  0x00\n    /* \"contracts/modules/Storage.sol\":292:20548  contract Storage is ReentrancyGuard {... */\n  sstore\n  mload(0x40)\n  0x01e0\n  dup2\n  add\n  sub(shl(0x40, 0x01), 0x01)\n  dup2\n  gt\n  dup3\n  dup3\n  lt\n  or\n  tag_6\n  jumpi\n  0x40\n  mstore\n    /* \"contracts/modules/Storage.sol\":2222:2231  15 * 1e18 */\n  0xd02ab486cedc0000\n    /* \"contracts/modules/Storage.sol\":292:20548  contract Storage is ReentrancyGuard {... */\n  dup2\n  mstore\n    /* \"contracts/modules/Storage.sol\":2254:2263  25 * 1e18 */\n  0x015af1d78b58c40000\n    /* \"contracts/modules/Storage.sol\":2211:2726  [... */\n  0x20\n  dup3\n  add\n    /* \"contracts/modules/Storage.sol\":292:20548  contract Storage is ReentrancyGuard {... */\n  mstore\n    /* \"contracts/modules/Storage.sol\":2286:2295  50 * 1e18 */\n  0x02b5e3af16b1880000\n    /* \"contracts/modules/Storage.sol\":292:20548  contract Storage is ReentrancyGuard {... */\n  0x40\n    /* \"contracts/modules/Storage.sol\":2211:2726  [... */\n  dup3\n  add\n    /* \"contracts/modules/Storage.sol\":292:20548  contract Storage is ReentrancyGuard {... */\n  mstore\n    /* \"contracts/modules/Storage.sol\":2318:2328  100 * 1e18 */\n  0x056bc75e2d63100000\n    /* \"contracts/modules/Storage.sol\":2211:2726  [... */\n  0x60\n  dup3\n  add\n    /* \"contracts/modules/Storage.sol\":292:20548  contract Storage is ReentrancyGuard {... */\n  mstore\n    /* \"contracts/modules/Storage.sol\":2351:2361  200 * 1e18 */\n  0x0ad78ebc5ac6200000\n    /* \"contracts/modules/Storage.sol\":2211:2726  [... */\n  0x80\n  dup3\n  add\n    /* \"contracts/modules/Storage.sol\":292:20548  contract Storage is ReentrancyGuard {... */\n  mstore\n    /* \"contracts/modules/Storage.sol\":2384:2394  400 * 1e18 */\n  0x15af1d78b58c400000\n    /* \"contracts/modules/Storage.sol\":2211:2726  [... */\n  0xa0\n  dup3\n  add\n    /* \"contracts/modules/Storage.sol\":292:20548  contract Storage is ReentrancyGuard {... */\n  mstore\n    /* \"contracts/modules/Storage.sol\":2417:2427  800 * 1e18 */\n  0x2b5e3af16b18800000\n    /* \"contracts/modules/Storage.sol\":2211:2726  [... */\n  0xc0\n  dup3\n  add\n    /* \"contracts/modules/Storage.sol\":292:20548  contract Storage is ReentrancyGuard {... */\n  mstore\n    /* \"contracts/modules/Storage.sol\":2450:2461  1600 * 1e18 */\n  0x56bc75e2d631000000\n    /* \"contracts/modules/Storage.sol\":2211:2726  [... */\n  0xe0\n  dup3\n  add\n    /* \"contracts/modules/Storage.sol\":292:20548  contract Storage is ReentrancyGuard {... */\n  mstore\n    /* \"contracts/modules/Storage.sol\":2484:2495  3200 * 1e18 */\n  0xad78ebc5ac62000000\n    /* \"contracts/modules/Storage.sol\":2211:2726  [... */\n  0x0100\n  dup3\n  add\n    /* \"contracts/modules/Storage.sol\":292:20548  contract Storage is ReentrancyGuard {... */\n  mstore\n    /* \"contracts/modules/Storage.sol\":2518:2529  6400 * 1e18 */\n  0x015af1d78b58c4000000\n    /* \"contracts/modules/Storage.sol\":2211:2726  [... */\n  0x0120\n  dup3\n  add\n    /* \"contracts/modules/Storage.sol\":292:20548  contract Storage is ReentrancyGuard {... */\n  mstore\n    /* \"contracts/modules/Storage.sol\":2552:2564  12800 * 1e18 */\n  0x02b5e3af16b188000000\n    /* \"contracts/modules/Storage.sol\":2211:2726  [... */\n  0x0140\n  dup3\n  add\n    /* \"contracts/modules/Storage.sol\":292:20548  contract Storage is ReentrancyGuard {... */\n  mstore\n    /* \"contracts/modules/Storage.sol\":2587:2599  25600 * 1e18 */\n  0x056bc75e2d6310000000\n    /* \"contracts/modules/Storage.sol\":2211:2726  [... */\n  0x0160\n  dup3\n  add\n    /* \"contracts/modules/Storage.sol\":292:20548  contract Storage is ReentrancyGuard {... */\n  mstore\n    /* \"contracts/modules/Storage.sol\":2622:2634  51200 * 1e18 */\n  0x0ad78ebc5ac620000000\n    /* \"contracts/modules/Storage.sol\":2211:2726  [... */\n  0x0180\n  dup3\n  add\n    /* \"contracts/modules/Storage.sol\":292:20548  contract Storage is ReentrancyGuard {... */\n  mstore\n    /* \"contracts/modules/Storage.sol\":2657:2670  102400 * 1e18 */\n  0x15af1d78b58c40000000\n    /* \"contracts/modules/Storage.sol\":2211:2726  [... */\n  0x01a0\n  dup3\n  add\n    /* \"contracts/modules/Storage.sol\":292:20548  contract Storage is ReentrancyGuard {... */\n  mstore\n    /* \"contracts/modules/Storage.sol\":2693:2706  204800 * 1e18 */\n  0x2b5e3af16b1880000000\n    /* \"contracts/modules/Storage.sol\":2211:2726  [... */\n  0x01c0\n  dup3\n  add\n    /* \"contracts/modules/Storage.sol\":292:20548  contract Storage is ReentrancyGuard {... */\n  mstore\n    /* \"contracts/modules/Storage.sol\":2211:2726  [... */\n  0x0d\n    /* \"contracts/modules/Storage.sol\":292:20548  contract Storage is ReentrancyGuard {... */\n  sload\n    /* \"contracts/modules/Storage.sol\":2211:2726  [... */\n  0x0f\n  0x0d\n    /* \"contracts/modules/Storage.sol\":292:20548  contract Storage is ReentrancyGuard {... */\n  sstore\n  dup1\n    /* \"contracts/modules/Storage.sol\":2211:2726  [... */\n  0x0f\n    /* \"contracts/modules/Storage.sol\":292:20548  contract Storage is ReentrancyGuard {... */\n  lt\n  tag_8\n  jumpi\ntag_9:\n  pop\n    /* \"contracts/modules/Storage.sol\":2211:2726  [... */\n  0x0d\n    /* \"@openzeppelin/contracts/security/ReentrancyGuard.sol\":1821:1843  _status = _NOT_ENTERED */\n  0x00\n    /* \"contracts/modules/Storage.sol\":292:20548  contract Storage is ReentrancyGuard {... */\n  mstore\n    /* \"contracts/modules/Storage.sol\":2211:2726  [... */\n  0x20\n    /* \"@openzeppelin/contracts/security/ReentrancyGuard.sol\":1821:1843  _status = _NOT_ENTERED */\n  0x00\n    /* \"contracts/modules/Storage.sol\":292:20548  contract Storage is ReentrancyGuard {... */\n  keccak256\n  swap1\n    /* \"@openzeppelin/contracts/security/ReentrancyGuard.sol\":1821:1843  _status = _NOT_ENTERED */\n  0x00\n    /* \"contracts/modules/Storage.sol\":292:20548  contract Storage is ReentrancyGuard {... */\ntag_10:\n    /* \"contracts/modules/Storage.sol\":2211:2726  [... */\n  0x0f\n    /* \"contracts/modules/Storage.sol\":292:20548  contract Storage is ReentrancyGuard {... */\n  dup2\n  lt\n  tag_11\n  jumpi\n  tag_13\n  tag_1\n  jump\t// in\ntag_13:\n    /* \"contracts/modules/Storage.sol\":6967:6972  75e18 */\n  0x0410d586a20a4c0000\n    /* \"contracts/modules/Storage.sol\":292:20548  contract Storage is ReentrancyGuard {... */\n  dup2\n  mstore\n    /* \"contracts/modules/Storage.sol\":6974:6980  300e18 */\n  0x1043561a8829300000\n    /* \"contracts/modules/Storage.sol\":2211:2726  [... */\n  0x20\n    /* \"contracts/modules/Storage.sol\":6966:7030  [75e18, 300e18, 1200e18, 4800e18, 19200e18, 76800e18, 307200e18] */\n  dup3\n  add\n    /* \"contracts/modules/Storage.sol\":292:20548  contract Storage is ReentrancyGuard {... */\n  mstore\n    /* \"contracts/modules/Storage.sol\":6982:6989  1200e18 */\n  0x410d586a20a4c00000\n    /* \"contracts/modules/Storage.sol\":292:20548  contract Storage is ReentrancyGuard {... */\n  0x40\n    /* \"contracts/modules/Storage.sol\":6966:7030  [75e18, 300e18, 1200e18, 4800e18, 19200e18, 76800e18, 307200e18] */\n  dup3\n  add\n    /* \"contracts/modules/Storage.sol\":292:20548  contract Storage is ReentrancyGuard {... */\n  mstore\n    /* \"contracts/modules/Storage.sol\":6991:6998  4800e18 */\n  0x01043561a88293000000\n    /* \"contracts/modules/Storage.sol\":2211:2726  [... */\n  0x60\n    /* \"contracts/modules/Storage.sol\":6966:7030  [75e18, 300e18, 1200e18, 4800e18, 19200e18, 76800e18, 307200e18] */\n  dup3\n  add\n    /* \"contracts/modules/Storage.sol\":292:20548  contract Storage is ReentrancyGuard {... */\n  mstore\n    /* \"contracts/modules/Storage.sol\":7000:7008  19200e18 */\n  0x0410d586a20a4c000000\n    /* \"contracts/modules/Storage.sol\":2211:2726  [... */\n  0x80\n    /* \"contracts/modules/Storage.sol\":6966:7030  [75e18, 300e18, 1200e18, 4800e18, 19200e18, 76800e18, 307200e18] */\n  dup3\n  add\n    /* \"contracts/modules/Storage.sol\":292:20548  contract Storage is ReentrancyGuard {... */\n  mstore\n    /* \"contracts/modules/Storage.sol\":7010:7018  76800e18 */\n  0x1043561a882930000000\n    /* \"contracts/modules/Storage.sol\":2211:2726  [... */\n  0xa0\n    /* \"contracts/modules/Storage.sol\":6966:7030  [75e18, 300e18, 1200e18, 4800e18, 19200e18, 76800e18, 307200e18] */\n  dup3\n  add\n    /* \"contracts/modules/Storage.sol\":292:20548  contract Storage is ReentrancyGuard {... */\n  mstore\n    /* \"contracts/modules/Storage.sol\":7020:7029  307200e18 */\n  0x410d586a20a4c0000000\n    /* \"contracts/modules/Storage.sol\":2211:2726  [... */\n  0xc0\n    /* \"contracts/modules/Storage.sol\":6966:7030  [75e18, 300e18, 1200e18, 4800e18, 19200e18, 76800e18, 307200e18] */\n  dup3\n  add\n    /* \"contracts/modules/Storage.sol\":292:20548  contract Storage is ReentrancyGuard {... */\n  mstore\n    /* \"contracts/modules/Storage.sol\":6966:7030  [75e18, 300e18, 1200e18, 4800e18, 19200e18, 76800e18, 307200e18] */\n  0x16\n    /* \"contracts/modules/Storage.sol\":292:20548  contract Storage is ReentrancyGuard {... */\n  sload\n    /* \"contracts/modules/Storage.sol\":6966:7030  [75e18, 300e18, 1200e18, 4800e18, 19200e18, 76800e18, 307200e18] */\n  0x07\n  0x16\n    /* \"contracts/modules/Storage.sol\":292:20548  contract Storage is ReentrancyGuard {... */\n  sstore\n  dup1\n    /* \"contracts/modules/Storage.sol\":6966:7030  [75e18, 300e18, 1200e18, 4800e18, 19200e18, 76800e18, 307200e18] */\n  0x07\n    /* \"contracts/modules/Storage.sol\":292:20548  contract Storage is ReentrancyGuard {... */\n  lt\n  tag_14\n  jumpi\ntag_15:\n  pop\n    /* \"contracts/modules/Storage.sol\":6966:7030  [75e18, 300e18, 1200e18, 4800e18, 19200e18, 76800e18, 307200e18] */\n  0x16\n    /* \"@openzeppelin/contracts/security/ReentrancyGuard.sol\":1821:1843  _status = _NOT_ENTERED */\n  0x00\n    /* \"contracts/modules/Storage.sol\":292:20548  contract Storage is ReentrancyGuard {... */\n  mstore\n    /* \"contracts/modules/Storage.sol\":2211:2726  [... */\n  0x20\n    /* \"@openzeppelin/contracts/security/ReentrancyGuard.sol\":1821:1843  _status = _NOT_ENTERED */\n  0x00\n    /* \"contracts/modules/Storage.sol\":292:20548  contract Storage is ReentrancyGuard {... */\n  keccak256\n  swap1\n    /* \"@openzeppelin/contracts/security/ReentrancyGuard.sol\":1821:1843  _status = _NOT_ENTERED */\n  0x00\n    /* \"contracts/modules/Storage.sol\":292:20548  contract Storage is ReentrancyGuard {... */\ntag_16:\n    /* \"contracts/modules/Storage.sol\":6966:7030  [75e18, 300e18, 1200e18, 4800e18, 19200e18, 76800e18, 307200e18] */\n  0x07\n    /* \"contracts/modules/Storage.sol\":292:20548  contract Storage is ReentrancyGuard {... */\n  dup2\n  lt\n  tag_17\n  jumpi\n  tag_19\n  tag_2\n  jump\t// in\ntag_19:\n    /* \"contracts/modules/Storage.sol\":2318:2328  100 * 1e18 */\n  0x056bc75e2d63100000\n    /* \"contracts/modules/Storage.sol\":292:20548  contract Storage is ReentrancyGuard {... */\n  dup2\n  mstore\n    /* \"contracts/modules/Storage.sol\":2351:2361  200 * 1e18 */\n  0x0ad78ebc5ac6200000\n    /* \"contracts/modules/Storage.sol\":2211:2726  [... */\n  0x20\n    /* \"contracts/modules/Storage.sol\":7072:7142  [ 100e18, 200e18, 400e18, 800e18, 1600e18, 3200e18, 6400e18, 12800e18] */\n  dup3\n  add\n    /* \"contracts/modules/Storage.sol\":292:20548  contract Storage is ReentrancyGuard {... */\n  mstore\n    /* \"contracts/modules/Storage.sol\":2384:2394  400 * 1e18 */\n  0x15af1d78b58c400000\n    /* \"contracts/modules/Storage.sol\":292:20548  contract Storage is ReentrancyGuard {... */\n  0x40\n    /* \"contracts/modules/Storage.sol\":7072:7142  [ 100e18, 200e18, 400e18, 800e18, 1600e18, 3200e18, 6400e18, 12800e18] */\n  dup3\n  add\n    /* \"contracts/modules/Storage.sol\":292:20548  contract Storage is ReentrancyGuard {... */\n  mstore\n    /* \"contracts/modules/Storage.sol\":2417:2427  800 * 1e18 */\n  0x2b5e3af16b18800000\n    /* \"contracts/modules/Storage.sol\":2211:2726  [... */\n  0x60\n    /* \"contracts/modules/Storage.sol\":7072:7142  [ 100e18, 200e18, 400e18, 800e18, 1600e18, 3200e18, 6400e18, 12800e18] */\n  dup3\n  add\n    /* \"contracts/modules/Storage.sol\":292:20548  contract Storage is ReentrancyGuard {... */\n  mstore\n    /* \"contracts/modules/Storage.sol\":2450:2461  1600 * 1e18 */\n  0x56bc75e2d631000000\n    /* \"contracts/modules/Storage.sol\":2211:2726  [... */\n  0x80\n    /* \"contracts/modules/Storage.sol\":7072:7142  [ 100e18, 200e18, 400e18, 800e18, 1600e18, 3200e18, 6400e18, 12800e18] */\n  dup3\n  add\n    /* \"contracts/modules/Storage.sol\":292:20548  contract Storage is ReentrancyGuard {... */\n  mstore\n    /* \"contracts/modules/Storage.sol\":2484:2495  3200 * 1e18 */\n  0xad78ebc5ac62000000\n    /* \"contracts/modules/Storage.sol\":2211:2726  [... */\n  0xa0\n    /* \"contracts/modules/Storage.sol\":7072:7142  [ 100e18, 200e18, 400e18, 800e18, 1600e18, 3200e18, 6400e18, 12800e18] */\n  dup3\n  add\n    /* \"contracts/modules/Storage.sol\":292:20548  contract Storage is ReentrancyGuard {... */\n  mstore\n    /* \"contracts/modules/Storage.sol\":2518:2529  6400 * 1e18 */\n  0x015af1d78b58c4000000\n    /* \"contracts/modules/Storage.sol\":2211:2726  [... */\n  0xc0\n    /* \"contracts/modules/Storage.sol\":7072:7142  [ 100e18, 200e18, 400e18, 800e18, 1600e18, 3200e18, 6400e18, 12800e18] */\n  dup3\n  add\n    /* \"contracts/modules/Storage.sol\":292:20548  contract Storage is ReentrancyGuard {... */\n  mstore\n    /* \"contracts/modules/Storage.sol\":2552:2564  12800 * 1e18 */\n  0x02b5e3af16b188000000\n    /* \"contracts/modules/Storage.sol\":2211:2726  [... */\n  0xe0\n    /* \"contracts/modules/Storage.sol\":7072:7142  [ 100e18, 200e18, 400e18, 800e18, 1600e18, 3200e18, 6400e18, 12800e18] */\n  dup3\n  add\n    /* \"contracts/modules/Storage.sol\":292:20548  contract Storage is ReentrancyGuard {... */\n  mstore\n    /* \"contracts/modules/Storage.sol\":7072:7142  [ 100e18, 200e18, 400e18, 800e18, 1600e18, 3200e18, 6400e18, 12800e18] */\n  0x17\n    /* \"contracts/modules/Storage.sol\":292:20548  contract Storage is ReentrancyGuard {... */\n  sload\n    /* \"contracts/modules/Storage.sol\":7072:7142  [ 100e18, 200e18, 400e18, 800e18, 1600e18, 3200e18, 6400e18, 12800e18] */\n  0x08\n  0x17\n    /* \"contracts/modules/Storage.sol\":292:20548  contract Storage is ReentrancyGuard {... */\n  sstore\n  dup1\n    /* \"contracts/modules/Storage.sol\":7072:7142  [ 100e18, 200e18, 400e18, 800e18, 1600e18, 3200e18, 6400e18, 12800e18] */\n  0x08\n    /* \"contracts/modules/Storage.sol\":292:20548  contract Storage is ReentrancyGuard {... */\n  lt\n  tag_20\n  jumpi\ntag_21:\n  pop\n    /* \"contracts/modules/Storage.sol\":7072:7142  [ 100e18, 200e18, 400e18, 800e18, 1600e18, 3200e18, 6400e18, 12800e18] */\n  0x17\n    /* \"@openzeppelin/contracts/security/ReentrancyGuard.sol\":1821:1843  _status = _NOT_ENTERED */\n  0x00\n    /* \"contracts/modules/Storage.sol\":292:20548  contract Storage is ReentrancyGuard {... */\n  mstore\n    /* \"contracts/modules/Storage.sol\":2211:2726  [... */\n  0x20\n    /* \"@openzeppelin/contracts/security/ReentrancyGuard.sol\":1821:1843  _status = _NOT_ENTERED */\n  0x00\n    /* \"contracts/modules/Storage.sol\":292:20548  contract Storage is ReentrancyGuard {... */\n  keccak256\n  swap1\n    /* \"@openzeppelin/contracts/security/ReentrancyGuard.sol\":1821:1843  _status = _NOT_ENTERED */\n  0x00\n    /* \"contracts/modules/Storage.sol\":292:20548  contract Storage is ReentrancyGuard {... */\ntag_22:\n    /* \"contracts/modules/Storage.sol\":7072:7142  [ 100e18, 200e18, 400e18, 800e18, 1600e18, 3200e18, 6400e18, 12800e18] */\n  0x08\n    /* \"contracts/modules/Storage.sol\":292:20548  contract Storage is ReentrancyGuard {... */\n  dup2\n  lt\n  tag_23\n  jumpi\n  tag_25\n  tag_1\n  jump\t// in\ntag_25:\n    /* \"contracts/modules/Storage.sol\":7183:7184  3 */\n  0x03\n    /* \"contracts/modules/Storage.sol\":292:20548  contract Storage is ReentrancyGuard {... */\n  dup2\n  mstore\n  0x05\n    /* \"contracts/modules/Storage.sol\":2211:2726  [... */\n  0x20\n    /* \"contracts/modules/Storage.sol\":7182:7206  [3, 5, 7, 9, 11, 13, 15] */\n  dup3\n  add\n    /* \"contracts/modules/Storage.sol\":292:20548  contract Storage is ReentrancyGuard {... */\n  mstore\n    /* \"contracts/modules/Storage.sol\":6966:7030  [75e18, 300e18, 1200e18, 4800e18, 19200e18, 76800e18, 307200e18] */\n  0x07\n    /* \"contracts/modules/Storage.sol\":292:20548  contract Storage is ReentrancyGuard {... */\n  0x40\n    /* \"contracts/modules/Storage.sol\":7182:7206  [3, 5, 7, 9, 11, 13, 15] */\n  dup3\n  add\n    /* \"contracts/modules/Storage.sol\":292:20548  contract Storage is ReentrancyGuard {... */\n  mstore\n    /* \"contracts/modules/Storage.sol\":7192:7193  9 */\n  0x09\n    /* \"contracts/modules/Storage.sol\":2211:2726  [... */\n  0x60\n    /* \"contracts/modules/Storage.sol\":7182:7206  [3, 5, 7, 9, 11, 13, 15] */\n  dup3\n  add\n    /* \"contracts/modules/Storage.sol\":292:20548  contract Storage is ReentrancyGuard {... */\n  mstore\n    /* \"contracts/modules/Storage.sol\":7195:7197  11 */\n  0x0b\n    /* \"contracts/modules/Storage.sol\":2211:2726  [... */\n  0x80\n    /* \"contracts/modules/Storage.sol\":7182:7206  [3, 5, 7, 9, 11, 13, 15] */\n  dup3\n  add\n    /* \"contracts/modules/Storage.sol\":292:20548  contract Storage is ReentrancyGuard {... */\n  mstore\n    /* \"contracts/modules/Storage.sol\":2211:2726  [... */\n  0x0d\n  0xa0\n    /* \"contracts/modules/Storage.sol\":7182:7206  [3, 5, 7, 9, 11, 13, 15] */\n  dup3\n  add\n    /* \"contracts/modules/Storage.sol\":292:20548  contract Storage is ReentrancyGuard {... */\n  mstore\n    /* \"contracts/modules/Storage.sol\":2211:2726  [... */\n  0x0f\n  0xc0\n    /* \"contracts/modules/Storage.sol\":7182:7206  [3, 5, 7, 9, 11, 13, 15] */\n  dup3\n  add\n    /* \"contracts/modules/Storage.sol\":292:20548  contract Storage is ReentrancyGuard {... */\n  mstore\n    /* \"@openzeppelin/contracts/security/ReentrancyGuard.sol\":1821:1843  _status = _NOT_ENTERED */\n  0x00\n    /* \"contracts/modules/Storage.sol\":292:20548  contract Storage is ReentrancyGuard {... */\ntag_26:\n    /* \"contracts/modules/Storage.sol\":6966:7030  [75e18, 300e18, 1200e18, 4800e18, 19200e18, 76800e18, 307200e18] */\n  0x07\n    /* \"contracts/modules/Storage.sol\":292:20548  contract Storage is ReentrancyGuard {... */\n  dup2\n  lt\n  tag_27\n  jumpi\n  tag_29\n  tag_2\n  jump\t// in\ntag_29:\n    /* \"contracts/modules/Storage.sol\":7253:7254  4 */\n  0x04\n    /* \"contracts/modules/Storage.sol\":292:20548  contract Storage is ReentrancyGuard {... */\n  dup2\n  mstore\n  0x05\n    /* \"contracts/modules/Storage.sol\":2211:2726  [... */\n  0x20\n    /* \"contracts/modules/Storage.sol\":7252:7277  [4, 5, 6, 7, 8, 9, 10,11] */\n  dup3\n  add\n    /* \"contracts/modules/Storage.sol\":292:20548  contract Storage is ReentrancyGuard {... */\n  mstore\n    /* \"contracts/modules/Storage.sol\":7259:7260  6 */\n  0x06\n    /* \"contracts/modules/Storage.sol\":292:20548  contract Storage is ReentrancyGuard {... */\n  0x40\n    /* \"contracts/modules/Storage.sol\":7252:7277  [4, 5, 6, 7, 8, 9, 10,11] */\n  dup3\n  add\n    /* \"contracts/modules/Storage.sol\":292:20548  contract Storage is ReentrancyGuard {... */\n  mstore\n    /* \"contracts/modules/Storage.sol\":6966:7030  [75e18, 300e18, 1200e18, 4800e18, 19200e18, 76800e18, 307200e18] */\n  0x07\n    /* \"contracts/modules/Storage.sol\":2211:2726  [... */\n  0x60\n    /* \"contracts/modules/Storage.sol\":7252:7277  [4, 5, 6, 7, 8, 9, 10,11] */\n  dup3\n  add\n    /* \"contracts/modules/Storage.sol\":292:20548  contract Storage is ReentrancyGuard {... */\n  mstore\n    /* \"contracts/modules/Storage.sol\":7072:7142  [ 100e18, 200e18, 400e18, 800e18, 1600e18, 3200e18, 6400e18, 12800e18] */\n  0x08\n    /* \"contracts/modules/Storage.sol\":2211:2726  [... */\n  0x80\n    /* \"contracts/modules/Storage.sol\":7252:7277  [4, 5, 6, 7, 8, 9, 10,11] */\n  dup3\n  add\n    /* \"contracts/modules/Storage.sol\":292:20548  contract Storage is ReentrancyGuard {... */\n  mstore\n    /* \"contracts/modules/Storage.sol\":7192:7193  9 */\n  0x09\n    /* \"contracts/modules/Storage.sol\":2211:2726  [... */\n  0xa0\n    /* \"contracts/modules/Storage.sol\":7252:7277  [4, 5, 6, 7, 8, 9, 10,11] */\n  dup3\n  add\n    /* \"contracts/modules/Storage.sol\":292:20548  contract Storage is ReentrancyGuard {... */\n  mstore\n    /* \"contracts/modules/Storage.sol\":7271:7273  10 */\n  0x0a\n    /* \"contracts/modules/Storage.sol\":2211:2726  [... */\n  0xc0\n    /* \"contracts/modules/Storage.sol\":7252:7277  [4, 5, 6, 7, 8, 9, 10,11] */\n  dup3\n  add\n    /* \"contracts/modules/Storage.sol\":292:20548  contract Storage is ReentrancyGuard {... */\n  mstore\n    /* \"contracts/modules/Storage.sol\":7195:7197  11 */\n  0x0b\n    /* \"contracts/modules/Storage.sol\":2211:2726  [... */\n  0xe0\n    /* \"contracts/modules/Storage.sol\":7252:7277  [4, 5, 6, 7, 8, 9, 10,11] */\n  dup3\n  add\n    /* \"contracts/modules/Storage.sol\":292:20548  contract Storage is ReentrancyGuard {... */\n  mstore\n    /* \"@openzeppelin/contracts/security/ReentrancyGuard.sol\":1821:1843  _status = _NOT_ENTERED */\n  0x00\n    /* \"contracts/modules/Storage.sol\":292:20548  contract Storage is ReentrancyGuard {... */\ntag_30:\n    /* \"contracts/modules/Storage.sol\":7072:7142  [ 100e18, 200e18, 400e18, 800e18, 1600e18, 3200e18, 6400e18, 12800e18] */\n  0x08\n    /* \"contracts/modules/Storage.sol\":292:20548  contract Storage is ReentrancyGuard {... */\n  dup2\n  lt\n  tag_31\n  jumpi\n  tag_33\n  tag_2\n  jump\t// in\ntag_33:\n    /* \"@openzeppelin/contracts/security/ReentrancyGuard.sol\":1821:1843  _status = _NOT_ENTERED */\n  0x00\n    /* \"contracts/modules/Storage.sol\":292:20548  contract Storage is ReentrancyGuard {... */\n  dup2\n  mstore\n    /* \"@openzeppelin/contracts/security/ReentrancyGuard.sol\":1716:1717  1 */\n  0x01\n    /* \"contracts/modules/Storage.sol\":2211:2726  [... */\n  0x20\n    /* \"contracts/modules/Storage.sol\":7322:7345  [0, 1, 1, 1, 1, 1, 1,1] */\n  dup3\n  add\n    /* \"contracts/modules/Storage.sol\":292:20548  contract Storage is ReentrancyGuard {... */\n  mstore\n    /* \"@openzeppelin/contracts/security/ReentrancyGuard.sol\":1716:1717  1 */\n  0x01\n    /* \"contracts/modules/Storage.sol\":292:20548  contract Storage is ReentrancyGuard {... */\n  0x40\n    /* \"contracts/modules/Storage.sol\":7322:7345  [0, 1, 1, 1, 1, 1, 1,1] */\n  dup3\n  add\n    /* \"contracts/modules/Storage.sol\":292:20548  contract Storage is ReentrancyGuard {... */\n  mstore\n    /* \"@openzeppelin/contracts/security/ReentrancyGuard.sol\":1716:1717  1 */\n  0x01\n    /* \"contracts/modules/Storage.sol\":2211:2726  [... */\n  0x60\n    /* \"contracts/modules/Storage.sol\":7322:7345  [0, 1, 1, 1, 1, 1, 1,1] */\n  dup3\n  add\n    /* \"contracts/modules/Storage.sol\":292:20548  contract Storage is ReentrancyGuard {... */\n  mstore\n    /* \"@openzeppelin/contracts/security/ReentrancyGuard.sol\":1716:1717  1 */\n  0x01\n    /* \"contracts/modules/Storage.sol\":2211:2726  [... */\n  0x80\n    /* \"contracts/modules/Storage.sol\":7322:7345  [0, 1, 1, 1, 1, 1, 1,1] */\n  dup3\n  add\n    /* \"contracts/modules/Storage.sol\":292:20548  contract Storage is ReentrancyGuard {... */\n  mstore\n    /* \"@openzeppelin/contracts/security/ReentrancyGuard.sol\":1716:1717  1 */\n  0x01\n    /* \"contracts/modules/Storage.sol\":2211:2726  [... */\n  0xa0\n    /* \"contracts/modules/Storage.sol\":7322:7345  [0, 1, 1, 1, 1, 1, 1,1] */\n  dup3\n  add\n    /* \"contracts/modules/Storage.sol\":292:20548  contract Storage is ReentrancyGuard {... */\n  mstore\n    /* \"@openzeppelin/contracts/security/ReentrancyGuard.sol\":1716:1717  1 */\n  0x01\n    /* \"contracts/modules/Storage.sol\":2211:2726  [... */\n  0xc0\n    /* \"contracts/modules/Storage.sol\":7322:7345  [0, 1, 1, 1, 1, 1, 1,1] */\n  dup3\n  add\n    /* \"contracts/modules/Storage.sol\":292:20548  contract Storage is ReentrancyGuard {... */\n  mstore\n    /* \"@openzeppelin/contracts/security/ReentrancyGuard.sol\":1716:1717  1 */\n  0x01\n    /* \"contracts/modules/Storage.sol\":2211:2726  [... */\n  0xe0\n    /* \"contracts/modules/Storage.sol\":7322:7345  [0, 1, 1, 1, 1, 1, 1,1] */\n  dup3\n  add\n    /* \"contracts/modules/Storage.sol\":292:20548  contract Storage is ReentrancyGuard {... */\n  mstore\n    /* \"@openzeppelin/contracts/security/ReentrancyGuard.sol\":1821:1843  _status = _NOT_ENTERED */\n  0x00\n    /* \"contracts/modules/Storage.sol\":292:20548  contract Storage is ReentrancyGuard {... */\ntag_34:\n    /* \"contracts/modules/Storage.sol\":7072:7142  [ 100e18, 200e18, 400e18, 800e18, 1600e18, 3200e18, 6400e18, 12800e18] */\n  0x08\n    /* \"contracts/modules/Storage.sol\":292:20548  contract Storage is ReentrancyGuard {... */\n  dup2\n  lt\n  tag_35\n  jumpi\n    /* \"@openzeppelin/contracts/security/ReentrancyGuard.sol\":1821:1843  _status = _NOT_ENTERED */\n  0x00\n    /* \"contracts/modules/Storage.sol\":8875:8876  0 */\n  0x39\n    /* \"contracts/modules/Storage.sol\":292:20548  contract Storage is ReentrancyGuard {... */\n  sstore\n    /* \"@openzeppelin/contracts/security/ReentrancyGuard.sol\":1821:1843  _status = _NOT_ENTERED */\n  0x00\n    /* \"contracts/modules/Storage.sol\":8920:8921  0 */\n  0x3a\n    /* \"contracts/modules/Storage.sol\":292:20548  contract Storage is ReentrancyGuard {... */\n  sstore\n    /* \"@openzeppelin/contracts/security/ReentrancyGuard.sol\":1821:1843  _status = _NOT_ENTERED */\n  0x00\n    /* \"contracts/modules/Storage.sol\":8962:8963  0 */\n  0x3b\n    /* \"contracts/modules/Storage.sol\":292:20548  contract Storage is ReentrancyGuard {... */\n  sstore\n    /* \"@openzeppelin/contracts/security/ReentrancyGuard.sol\":1716:1717  1 */\n  0x01\n    /* \"contracts/modules/Storage.sol\":292:20548  contract Storage is ReentrancyGuard {... */\n  0x40\n  sstore\n    /* \"@openzeppelin/contracts/security/ReentrancyGuard.sol\":1821:1843  _status = _NOT_ENTERED */\n  0x00\n    /* \"contracts/modules/Storage.sol\":10370:10371  0 */\n  0x41\n    /* \"contracts/modules/Storage.sol\":292:20548  contract Storage is ReentrancyGuard {... */\n  sstore\n    /* \"@openzeppelin/contracts/security/ReentrancyGuard.sol\":1821:1843  _status = _NOT_ENTERED */\n  0x00\n    /* \"contracts/modules/Storage.sol\":10411:10412  0 */\n  0x42\n    /* \"contracts/modules/Storage.sol\":292:20548  contract Storage is ReentrancyGuard {... */\n  sstore\n    /* \"@openzeppelin/contracts/security/ReentrancyGuard.sol\":1716:1717  1 */\n  0x01\n    /* \"contracts/modules/Storage.sol\":11630:11631  1 */\n  0x47\n    /* \"contracts/modules/Storage.sol\":292:20548  contract Storage is ReentrancyGuard {... */\n  sstore\n    /* \"@openzeppelin/contracts/security/ReentrancyGuard.sol\":1821:1843  _status = _NOT_ENTERED */\n  0x00\n    /* \"contracts/modules/Storage.sol\":11672:11673  0 */\n  0x48\n    /* \"contracts/modules/Storage.sol\":292:20548  contract Storage is ReentrancyGuard {... */\n  sstore\n    /* \"@openzeppelin/contracts/security/ReentrancyGuard.sol\":1821:1843  _status = _NOT_ENTERED */\n  0x00\n    /* \"contracts/modules/Storage.sol\":11711:11712  0 */\n  0x49\n    /* \"contracts/modules/Storage.sol\":292:20548  contract Storage is ReentrancyGuard {... */\n  sstore\n  mload(0x40)\n  dataSize(sub_0)\n  swap1\n  dup2\n  dataOffset(sub_0)\n  dup3\n  codecopy\n  return\ntag_35:\n    /* \"@openzeppelin/contracts/security/ReentrancyGuard.sol\":1716:1717  1 */\n  0x01\n    /* \"contracts/modules/Storage.sol\":292:20548  contract Storage is ReentrancyGuard {... */\n  swap1\n    /* \"contracts/modules/Storage.sol\":2211:2726  [... */\n  0x20\n    /* \"contracts/modules/Storage.sol\":292:20548  contract Storage is ReentrancyGuard {... */\n  0xff\n  dup5\n  mload\n  and\n  swap4\n  add\n  swap3\n  dup2\n    /* \"contracts/modules/Storage.sol\":7322:7345  [0, 1, 1, 1, 1, 1, 1,1] */\n  0x27\n    /* \"contracts/modules/Storage.sol\":292:20548  contract Storage is ReentrancyGuard {... */\n  add\n  sstore\n  add\n  jump(tag_34)\ntag_31:\n    /* \"@openzeppelin/contracts/security/ReentrancyGuard.sol\":1716:1717  1 */\n  0x01\n    /* \"contracts/modules/Storage.sol\":292:20548  contract Storage is ReentrancyGuard {... */\n  swap1\n    /* \"contracts/modules/Storage.sol\":2211:2726  [... */\n  0x20\n    /* \"contracts/modules/Storage.sol\":292:20548  contract Storage is ReentrancyGuard {... */\n  0xff\n  dup5\n  mload\n  and\n  swap4\n  add\n  swap3\n  dup2\n  0x1f\n  add\n  sstore\n  add\n  jump(tag_30)\ntag_27:\n    /* \"@openzeppelin/contracts/security/ReentrancyGuard.sol\":1716:1717  1 */\n  0x01\n    /* \"contracts/modules/Storage.sol\":292:20548  contract Storage is ReentrancyGuard {... */\n  swap1\n    /* \"contracts/modules/Storage.sol\":2211:2726  [... */\n  0x20\n    /* \"contracts/modules/Storage.sol\":292:20548  contract Storage is ReentrancyGuard {... */\n  0xff\n  dup5\n  mload\n  and\n  swap4\n  add\n  swap3\n  dup2\n    /* \"contracts/modules/Storage.sol\":7182:7206  [3, 5, 7, 9, 11, 13, 15] */\n  0x18\n    /* \"contracts/modules/Storage.sol\":292:20548  contract Storage is ReentrancyGuard {... */\n  add\n  sstore\n  add\n  jump(tag_26)\ntag_23:\n  dup2\n  mload\n  sub(shl(0x50, 0x01), 0x01)\n  and\n  dup2\n  dup5\n  add\n  sstore\n    /* \"contracts/modules/Storage.sol\":2211:2726  [... */\n  0x20\n    /* \"contracts/modules/Storage.sol\":292:20548  contract Storage is ReentrancyGuard {... */\n  swap1\n  swap2\n  add\n  swap1\n    /* \"@openzeppelin/contracts/security/ReentrancyGuard.sol\":1716:1717  1 */\n  0x01\n    /* \"contracts/modules/Storage.sol\":292:20548  contract Storage is ReentrancyGuard {... */\n  add\n  jump(tag_22)\ntag_20:\n    /* \"contracts/modules/Storage.sol\":7072:7142  [ 100e18, 200e18, 400e18, 800e18, 1600e18, 3200e18, 6400e18, 12800e18] */\n  0x17\n    /* \"@openzeppelin/contracts/security/ReentrancyGuard.sol\":1821:1843  _status = _NOT_ENTERED */\n  0x00\n    /* \"contracts/modules/Storage.sol\":292:20548  contract Storage is ReentrancyGuard {... */\n  mstore\n  tag_37\n  swap1\n  0xc624b66cc0138b8fabc209247f72d758e1cf3343756d543badbf24212bed8c15\n  add\n  0xc624b66cc0138b8fabc209247f72d758e1cf3343756d543badbf24212bed8c1d\n  tag_3\n  jump\t// in\ntag_37:\n  dup2\n  jump(tag_21)\ntag_17:\n  dup2\n  mload\n  sub(shl(0x50, 0x01), 0x01)\n  and\n  dup2\n  dup5\n  add\n  sstore\n    /* \"contracts/modules/Storage.sol\":2211:2726  [... */\n  0x20\n    /* \"contracts/modules/Storage.sol\":292:20548  contract Storage is ReentrancyGuard {... */\n  swap1\n  swap2\n  add\n  swap1\n    /* \"@openzeppelin/contracts/security/ReentrancyGuard.sol\":1716:1717  1 */\n  0x01\n    /* \"contracts/modules/Storage.sol\":292:20548  contract Storage is ReentrancyGuard {... */\n  add\n  jump(tag_16)\ntag_14:\n    /* \"contracts/modules/Storage.sol\":6966:7030  [75e18, 300e18, 1200e18, 4800e18, 19200e18, 76800e18, 307200e18] */\n  0x16\n    /* \"@openzeppelin/contracts/security/ReentrancyGuard.sol\":1821:1843  _status = _NOT_ENTERED */\n  0x00\n    /* \"contracts/modules/Storage.sol\":292:20548  contract Storage is ReentrancyGuard {... */\n  mstore\n  tag_38\n  swap1\n  0xd833147d7dc355ba459fc788f669e58cfaf9dc25ddcd0702e87d69c7b5124289\n  add\n  0xd833147d7dc355ba459fc788f669e58cfaf9dc25ddcd0702e87d69c7b5124290\n  tag_3\n  jump\t// in\ntag_38:\n  dup2\n  jump(tag_15)\ntag_11:\n  dup2\n  mload\n  sub(shl(0x50, 0x01), 0x01)\n  and\n  dup2\n  dup5\n  add\n  sstore\n    /* \"contracts/modules/Storage.sol\":2211:2726  [... */\n  0x20\n    /* \"contracts/modules/Storage.sol\":292:20548  contract Storage is ReentrancyGuard {... */\n  swap1\n  swap2\n  add\n  swap1\n    /* \"@openzeppelin/contracts/security/ReentrancyGuard.sol\":1716:1717  1 */\n  0x01\n    /* \"contracts/modules/Storage.sol\":292:20548  contract Storage is ReentrancyGuard {... */\n  add\n  jump(tag_10)\ntag_8:\n    /* \"contracts/modules/Storage.sol\":2211:2726  [... */\n  0x0d\n    /* \"@openzeppelin/contracts/security/ReentrancyGuard.sol\":1821:1843  _status = _NOT_ENTERED */\n  0x00\n    /* \"contracts/modules/Storage.sol\":292:20548  contract Storage is ReentrancyGuard {... */\n  mstore\n  tag_39\n  swap1\n  0xd7b6990105719101dabeb77144f2a3385c8033acd3af97e9423a695e81ad1eb5\n  add\n  0xd7b6990105719101dabeb77144f2a3385c8033acd3af97e9423a695e81ad1ec4\n  tag_3\n  jump\t// in\ntag_39:\n  0x00\n  jump(tag_9)\ntag_6:\n  shl(0xe0, 0x4e487b71)\n    /* \"@openzeppelin/contracts/security/ReentrancyGuard.sol\":1821:1843  _status = _NOT_ENTERED */\n  0x00\n    /* \"contracts/modules/Storage.sol\":292:20548  contract Storage is ReentrancyGuard {... */\n  mstore\n  mstore(0x04, 0x41)\n  0x24\n    /* \"@openzeppelin/contracts/security/ReentrancyGuard.sol\":1821:1843  _status = _NOT_ENTERED */\n  0x00\n    /* \"contracts/modules/Storage.sol\":292:20548  contract Storage is ReentrancyGuard {... */\n  revert\ntag_4:\n  0x00\n  dup1\n  revert\ntag_1:\n  mload(0x40)\n  swap1\n  0xe0\n  dup3\n  add\n  sub(shl(0x40, 0x01), 0x01)\n  dup2\n  gt\n  dup4\n  dup3\n  lt\n  or\n  tag_6\n  jumpi\n  0x40\n  mstore\n  jump\t// out\ntag_2:\n  mload(0x40)\n  swap1\n  0x0100\n  dup3\n  add\n  sub(shl(0x40, 0x01), 0x01)\n  dup2\n  gt\n  dup4\n  dup3\n  lt\n  or\n  tag_6\n  jumpi\n  0x40\n  mstore\n  jump\t// out\ntag_3:\n  dup2\n  dup2\n  lt\n  tag_45\n  jumpi\n  pop\n  pop\n  jump\t// out\ntag_45:\n  0x00\n  dup2\n  sstore\n  0x01\n  add\n  jump(tag_3)\nstop\n\nsub_0: assembly {\n        /* \"contracts/modules/Storage.sol\":292:20548  contract Storage is ReentrancyGuard {... */\n      0x80\n      dup1\n      0x40\n      mstore\n      jumpi(tag_3, iszero(lt(calldatasize, 0x04)))\n      0x00\n      dup1\n      revert\n    tag_3:\n      shr(0xe0, calldataload(0x00))\n      swap1\n      dup2\n      0x01c234a8\n      eq\n      tag_5\n      jumpi\n      pop\n      dup1\n      0x0676d0d6\n      eq\n      tag_7\n      jumpi\n      dup1\n      0x2132d204\n      eq\n      tag_9\n      jumpi\n      dup1\n      0x2350268f\n      eq\n      tag_11\n      jumpi\n      dup1\n      0x23fd338e\n      eq\n      tag_39\n      jumpi\n      dup1\n      0x2a891534\n      eq\n      tag_15\n      jumpi\n      dup1\n      0x2ae0ee0d\n      eq\n      tag_29\n      jumpi\n      dup1\n      0x2f48ab7d\n      eq\n      tag_19\n      jumpi\n      dup1\n      0x3080b5bc\n      eq\n      tag_21\n      jumpi\n      dup1\n      0x31bb6a30\n      eq\n      tag_23\n      jumpi\n      dup1\n      0x32bc298c\n      eq\n      tag_25\n      jumpi\n      dup1\n      0x32fcd966\n      eq\n      tag_27\n      jumpi\n      dup1\n      0x375b43b4\n      eq\n      tag_29\n      jumpi\n      dup1\n      0x39ab3603\n      eq\n      tag_31\n      jumpi\n      dup1\n      0x3a5084b3\n      eq\n      tag_33\n      jumpi\n      dup1\n      0x45cb537c\n      eq\n      tag_35\n      jumpi\n      dup1\n      0x4b8cbf9b\n      eq\n      tag_37\n      jumpi\n      dup1\n      0x58c7d352\n      eq\n      tag_39\n      jumpi\n      dup1\n      0x5b62d1d5\n      eq\n      tag_41\n      jumpi\n      dup1\n      0x705fee2d\n      eq\n      tag_43\n      jumpi\n      dup1\n      0x76f5f700\n      eq\n      tag_45\n      jumpi\n      dup1\n      0x78f6ad6d\n      eq\n      tag_47\n      jumpi\n      dup1\n      0x7cdc65f2\n      eq\n      tag_49\n      jumpi\n      dup1\n      0x89043ece\n      eq\n      tag_51\n      jumpi\n      dup1\n      0x956a3228\n      eq\n      tag_53\n      jumpi\n      dup1\n      0x9b40ab97\n      eq\n      tag_55\n      jumpi\n      dup1\n      0xa59d17d1\n      eq\n      tag_57\n      jumpi\n      dup1\n      0xa5e52b99\n      eq\n      tag_59\n      jumpi\n      dup1\n      0xae4708dc\n      eq\n      tag_61\n      jumpi\n      dup1\n      0xbff1f9e1\n      eq\n      tag_63\n      jumpi\n      dup1\n      0xc216212a\n      eq\n      tag_65\n      jumpi\n      dup1\n      0xc8df2908\n      eq\n      tag_67\n      jumpi\n      dup1\n      0xc9ed0708\n      eq\n      tag_69\n      jumpi\n      dup1\n      0xca8e9121\n      eq\n      tag_71\n      jumpi\n      dup1\n      0xcb0e0d7d\n      eq\n      tag_73\n      jumpi\n      dup1\n      0xd0a2fd79\n      eq\n      tag_75\n      jumpi\n      dup1\n      0xd2f0490d\n      eq\n      tag_77\n      jumpi\n      dup1\n      0xe898fc38\n      eq\n      tag_79\n      jumpi\n      dup1\n      0xe9e34a16\n      eq\n      tag_81\n      jumpi\n      dup1\n      0xebe0ff15\n      eq\n      tag_83\n      jumpi\n      dup1\n      0xec597e6f\n      eq\n      tag_85\n      jumpi\n      dup1\n      0xf5d74d93\n      eq\n      tag_87\n      jumpi\n      0xfddc806f\n      eq\n      tag_89\n      jumpi\n      0x00\n      dup1\n      revert\n    tag_89:\n      jumpi(tag_93, callvalue)\n      jumpi(tag_93, slt(add(not(0x03), calldatasize), 0x00))\n      0x20\n        /* \"contracts/modules/Storage.sol\":8883:8921  uint public currentWeeklyStartTime = 0 */\n      0x3a\n        /* \"contracts/modules/Storage.sol\":292:20548  contract Storage is ReentrancyGuard {... */\n      sload\n      mload(0x40)\n      swap1\n      dup2\n      mstore\n      return\n    tag_93:\n      0x00\n      dup1\n      revert\n    tag_87:\n      jumpi(tag_93, callvalue)\n      jumpi(tag_93, slt(add(not(0x03), calldatasize), 0x00))\n      sload(0x04)\n      mload(0x40)\n      sub(shl(0xa0, 0x01), 0x01)\n      swap1\n      swap2\n      and\n      dup2\n      mstore\n      0x20\n      swap1\n      return\n    tag_85:\n      jumpi(tag_93, callvalue)\n      jumpi(tag_93, slt(add(not(0x03), calldatasize), 0x00))\n      0x20\n        /* \"contracts/modules/Storage.sol\":534:558  uint public defaultRefId */\n      0x05\n        /* \"contracts/modules/Storage.sol\":292:20548  contract Storage is ReentrancyGuard {... */\n      sload\n      mload(0x40)\n      swap1\n      dup2\n      mstore\n      return\n    tag_83:\n      jumpi(tag_93, callvalue)\n      jumpi(tag_93, slt(add(not(0x03), calldatasize), 0x00))\n      0x20\n      mload(0x40)\n        /* \"contracts/modules/Storage.sol\":8823:8830  1000e18 */\n      0x3635c9adc5dea00000\n        /* \"contracts/modules/Storage.sol\":292:20548  contract Storage is ReentrancyGuard {... */\n      dup2\n      mstore\n      return\n    tag_81:\n      jumpi(tag_93, callvalue)\n      jumpi(tag_93, slt(add(not(0x03), calldatasize), 0x00))\n        /* \"contracts/modules/Storage.sol\":460:490  address public systemMaintance */\n      0x03\n        /* \"contracts/modules/Storage.sol\":292:20548  contract Storage is ReentrancyGuard {... */\n      sload\n      mload(0x40)\n      sub(shl(0xa0, 0x01), 0x01)\n      swap1\n      swap2\n      and\n      dup2\n      mstore\n      0x20\n      swap1\n      return\n    tag_79:\n      jumpi(tag_93, callvalue)\n      jumpi(tag_93, slt(add(not(0x03), calldatasize), 0x00))\n      0x20\n        /* \"contracts/modules/Storage.sol\":10332:10371  uint public currentMonthlyStartTime = 0 */\n      0x41\n        /* \"contracts/modules/Storage.sol\":292:20548  contract Storage is ReentrancyGuard {... */\n      sload\n      mload(0x40)\n      swap1\n      dup2\n      mstore\n      return\n    tag_77:\n      jumpi(tag_93, callvalue)\n      jumpi(tag_93, slt(add(not(0x03), calldatasize), 0x00))\n      0x20\n      mload(0x40)\n        /* \"contracts/modules/Storage.sol\":1187:1188  5 */\n      0x05\n        /* \"contracts/modules/Storage.sol\":292:20548  contract Storage is ReentrancyGuard {... */\n      dup2\n      mstore\n      return\n    tag_75:\n      jumpi(tag_93, callvalue)\n      jumpi(tag_93, slt(add(not(0x03), calldatasize), 0x20))\n      calldataload(0x04)\n      0x08\n        /* \"contracts/modules/Storage.sol\":7213:7277  uint[8] public minLevelForGlbBooster = [4, 5, 6, 7, 8, 9, 10,11] */\n      dup2\n      lt\n      iszero\n      tag_93\n      jumpi\n        /* \"contracts/modules/Storage.sol\":292:20548  contract Storage is ReentrancyGuard {... */\n      0x20\n      swap1\n        /* \"contracts/modules/Storage.sol\":7213:7277  uint[8] public minLevelForGlbBooster = [4, 5, 6, 7, 8, 9, 10,11] */\n      0x1f\n        /* \"contracts/modules/Storage.sol\":292:20548  contract Storage is ReentrancyGuard {... */\n      add\n      sload\n      mload(0x40)\n      swap1\n      dup2\n      mstore\n      return\n    tag_73:\n      jumpi(tag_93, callvalue)\n      jumpi(tag_93, slt(add(not(0x03), calldatasize), 0x20))\n      calldataload(0x04)\n      sub(shl(0xa0, 0x01), 0x01)\n      dup2\n      and\n      swap1\n      dup2\n      swap1\n      sub\n      tag_93\n      jumpi\n      0x00\n      mstore\n        /* \"contracts/modules/Storage.sol\":5455:5498  mapping(address => uint) public addressToId */\n      0x0f\n        /* \"contracts/modules/Storage.sol\":292:20548  contract Storage is ReentrancyGuard {... */\n      0x20\n      mstore\n      0x20\n      sload(keccak256(0x00, 0x40))\n      mload(0x40)\n      swap1\n      dup2\n      mstore\n      return\n    tag_71:\n      jumpi(tag_93, callvalue)\n      jumpi(tag_93, slt(add(not(0x03), calldatasize), 0x00))\n      0x20\n        /* \"contracts/modules/Storage.sol\":8842:8876  uint public currentWeeklyRound = 0 */\n      0x39\n        /* \"contracts/modules/Storage.sol\":292:20548  contract Storage is ReentrancyGuard {... */\n      sload\n      mload(0x40)\n      swap1\n      dup2\n      mstore\n      return\n    tag_69:\n      jumpi(tag_93, callvalue)\n      jumpi(tag_93, slt(add(not(0x03), calldatasize), 0x00))\n      0x20\n      sload(0x40)\n      mload(0x40)\n      swap1\n      dup2\n      mstore\n      return\n    tag_67:\n      jumpi(tag_93, callvalue)\n      jumpi(tag_93, slt(add(not(0x03), calldatasize), 0x00))\n      0x20\n      mload(0x40)\n        /* \"contracts/modules/Storage.sol\":10269:10277  10000e18 */\n      0x021e19e0c9bab2400000\n        /* \"contracts/modules/Storage.sol\":292:20548  contract Storage is ReentrancyGuard {... */\n      dup2\n      mstore\n      return\n    tag_65:\n      jumpi(tag_93, callvalue)\n      jumpi(tag_93, slt(add(not(0x03), calldatasize), 0x20))\n      calldataload(0x04)\n        /* \"contracts/modules/Storage.sol\":2186:2726  uint[] public packages = [... */\n      0x0d\n        /* \"contracts/modules/Storage.sol\":292:20548  contract Storage is ReentrancyGuard {... */\n      sload\n        /* \"contracts/modules/Storage.sol\":2186:2726  uint[] public packages = [... */\n      dup2\n      lt\n      iszero\n      tag_93\n      jumpi\n      0x0d\n        /* \"contracts/modules/Storage.sol\":292:20548  contract Storage is ReentrancyGuard {... */\n      sload\n      dup2\n      lt\n      iszero\n      tag_149\n      jumpi\n        /* \"contracts/modules/Storage.sol\":2186:2726  uint[] public packages = [... */\n      0x0d\n        /* \"contracts/modules/Storage.sol\":292:20548  contract Storage is ReentrancyGuard {... */\n      0x00\n      mstore\n      0xd7b6990105719101dabeb77144f2a3385c8033acd3af97e9423a695e81ad1eb5\n      add\n      sload\n      mload(0x40)\n      swap1\n      dup2\n      mstore\n      0x20\n      swap1\n      return\n    tag_149:\n      mstore(0x00, shl(0xe0, 0x4e487b71))\n      mstore(0x04, 0x32)\n      revert(0x00, 0x24)\n    tag_63:\n      jumpi(tag_93, callvalue)\n      jumpi(tag_93, slt(add(not(0x03), calldatasize), 0x00))\n      0x20\n        /* \"contracts/modules/Storage.sol\":565:587  uint public totalUsers */\n      0x06\n        /* \"contracts/modules/Storage.sol\":292:20548  contract Storage is ReentrancyGuard {... */\n      sload\n      mload(0x40)\n      swap1\n      dup2\n      mstore\n      return\n    tag_61:\n      jumpi(tag_93, callvalue)\n      jumpi(tag_93, slt(add(not(0x03), calldatasize), 0x20))\n      calldataload(0x04)\n        /* \"contracts/modules/Storage.sol\":6937:7030  uint[] public poolPackages = [75e18, 300e18, 1200e18, 4800e18, 19200e18, 76800e18, 307200e18] */\n      0x16\n        /* \"contracts/modules/Storage.sol\":292:20548  contract Storage is ReentrancyGuard {... */\n      sload\n        /* \"contracts/modules/Storage.sol\":6937:7030  uint[] public poolPackages = [75e18, 300e18, 1200e18, 4800e18, 19200e18, 76800e18, 307200e18] */\n      dup2\n      lt\n      iszero\n      tag_93\n      jumpi\n      0x16\n        /* \"contracts/modules/Storage.sol\":292:20548  contract Storage is ReentrancyGuard {... */\n      sload\n      dup2\n      lt\n      iszero\n      tag_149\n      jumpi\n        /* \"contracts/modules/Storage.sol\":6937:7030  uint[] public poolPackages = [75e18, 300e18, 1200e18, 4800e18, 19200e18, 76800e18, 307200e18] */\n      0x16\n        /* \"contracts/modules/Storage.sol\":292:20548  contract Storage is ReentrancyGuard {... */\n      0x00\n      mstore\n      0xd833147d7dc355ba459fc788f669e58cfaf9dc25ddcd0702e87d69c7b5124289\n      add\n      sload\n      mload(0x40)\n      swap1\n      dup2\n      mstore\n      0x20\n      swap1\n      return\n    tag_59:\n      jumpi(tag_93, callvalue)\n      jumpi(tag_93, slt(add(not(0x03), calldatasize), 0x00))\n      0x20\n      mload(0x40)\n        /* \"contracts/modules/Storage.sol\":842:850  100 days */\n      0x83d600\n        /* \"contracts/modules/Storage.sol\":292:20548  contract Storage is ReentrancyGuard {... */\n      dup2\n      mstore\n      return\n    tag_57:\n      jumpi(tag_93, callvalue)\n      jumpi(tag_93, slt(add(not(0x03), calldatasize), 0x00))\n      0x20\n        /* \"contracts/modules/Storage.sol\":10378:10412  uint public monthlyTotalReward = 0 */\n      0x42\n        /* \"contracts/modules/Storage.sol\":292:20548  contract Storage is ReentrancyGuard {... */\n      sload\n      mload(0x40)\n      swap1\n      dup2\n      mstore\n      return\n    tag_55:\n      jumpi(tag_93, callvalue)\n      jumpi(tag_93, slt(add(not(0x03), calldatasize), 0x00))\n      0x20\n        /* \"contracts/modules/Storage.sol\":11638:11673  uint public topRoyaltyStartTime = 0 */\n      0x48\n        /* \"contracts/modules/Storage.sol\":292:20548  contract Storage is ReentrancyGuard {... */\n      sload\n      mload(0x40)\n      swap1\n      dup2\n      mstore\n      return\n    tag_53:\n      jumpi(tag_93, callvalue)\n      jumpi(tag_93, slt(add(not(0x03), calldatasize), 0x20))\n      calldataload(0x04)\n      0x08\n        /* \"contracts/modules/Storage.sol\":7284:7345  uint[8] public minPoolForGlbBooster = [0, 1, 1, 1, 1, 1, 1,1] */\n      dup2\n      lt\n      iszero\n      tag_93\n      jumpi\n        /* \"contracts/modules/Storage.sol\":292:20548  contract Storage is ReentrancyGuard {... */\n      0x20\n      swap1\n        /* \"contracts/modules/Storage.sol\":7284:7345  uint[8] public minPoolForGlbBooster = [0, 1, 1, 1, 1, 1, 1,1] */\n      0x27\n        /* \"contracts/modules/Storage.sol\":292:20548  contract Storage is ReentrancyGuard {... */\n      add\n      sload\n      mload(0x40)\n      swap1\n      dup2\n      mstore\n      return\n    tag_51:\n      jumpi(tag_93, callvalue)\n      jumpi(tag_93, slt(add(not(0x03), calldatasize), 0x40))\n      mstore(0x00, calldataload(0x04))\n        /* \"contracts/modules/Storage.sol\":1927:1995  mapping(uint256 => mapping(uint256 => uint256)) public communityDebt */\n      0x0b\n        /* \"contracts/modules/Storage.sol\":292:20548  contract Storage is ReentrancyGuard {... */\n      0x20\n      mstore\n      keccak256(0x00, 0x40)\n      mstore(0x00, calldataload(0x24))\n      0x20\n      mstore\n      0x20\n      sload(keccak256(0x00, 0x40))\n      mload(0x40)\n      swap1\n      dup2\n      mstore\n      return\n    tag_49:\n      jumpi(tag_93, callvalue)\n      jumpi(tag_93, slt(add(not(0x03), calldatasize), 0x00))\n        /* \"contracts/modules/Storage.sol\":422:450  address public creatorWallet */\n      0x02\n        /* \"contracts/modules/Storage.sol\":292:20548  contract Storage is ReentrancyGuard {... */\n      sload\n      mload(0x40)\n      sub(shl(0xa0, 0x01), 0x01)\n      swap1\n      swap2\n      and\n      dup2\n      mstore\n      0x20\n      swap1\n      return\n    tag_47:\n      jumpi(tag_93, callvalue)\n      jumpi(tag_93, slt(add(not(0x03), calldatasize), 0x00))\n      0x20\n        /* \"contracts/modules/Storage.sol\":1530:1564  uint256 public communityAccPerUser */\n      0x09\n        /* \"contracts/modules/Storage.sol\":292:20548  contract Storage is ReentrancyGuard {... */\n      sload\n      mload(0x40)\n      swap1\n      dup2\n      mstore\n      return\n    tag_45:\n      jumpi(tag_93, callvalue)\n      jumpi(tag_93, slt(add(not(0x03), calldatasize), 0x00))\n      0x20\n      mload(0x40)\n        /* \"contracts/modules/Storage.sol\":8770:8776  7 days */\n      0x093a80\n        /* \"contracts/modules/Storage.sol\":292:20548  contract Storage is ReentrancyGuard {... */\n      dup2\n      mstore\n      return\n    tag_43:\n      jumpi(tag_93, callvalue)\n      jumpi(tag_93, slt(add(not(0x03), calldatasize), 0x00))\n      0x20\n      mload(0x40)\n        /* \"contracts/modules/Storage.sol\":900:908  450 days */\n      0x02514300\n        /* \"contracts/modules/Storage.sol\":292:20548  contract Storage is ReentrancyGuard {... */\n      dup2\n      mstore\n      return\n    tag_41:\n      jumpi(tag_93, callvalue)\n      jumpi(tag_93, slt(add(not(0x03), calldatasize), 0x00))\n      0x20\n        /* \"contracts/modules/Storage.sol\":11680:11712  uint public topRoyaltyReward = 0 */\n      0x49\n        /* \"contracts/modules/Storage.sol\":292:20548  contract Storage is ReentrancyGuard {... */\n      sload\n      mload(0x40)\n      swap1\n      dup2\n      mstore\n      return\n    tag_39:\n      tag_1\n      jump\t// in\n    tag_37:\n      jumpi(tag_93, callvalue)\n      jumpi(tag_93, slt(add(not(0x03), calldatasize), 0x00))\n      0x20\n        /* \"contracts/modules/Storage.sol\":11600:11631  uint public topRoyaltyRound = 1 */\n      0x47\n        /* \"contracts/modules/Storage.sol\":292:20548  contract Storage is ReentrancyGuard {... */\n      sload\n      mload(0x40)\n      swap1\n      dup2\n      mstore\n      return\n    tag_35:\n      jumpi(tag_93, callvalue)\n      jumpi(tag_93, slt(add(not(0x03), calldatasize), 0x20))\n      mstore(0x00, calldataload(0x04))\n        /* \"contracts/modules/Storage.sol\":1818:1875  mapping(uint256 => uint256) public communityAccPerPackage */\n      0x0a\n        /* \"contracts/modules/Storage.sol\":292:20548  contract Storage is ReentrancyGuard {... */\n      0x20\n      mstore\n      0x20\n      sload(keccak256(0x00, 0x40))\n      mload(0x40)\n      swap1\n      dup2\n      mstore\n      return\n    tag_33:\n      jumpi(tag_93, callvalue)\n      jumpi(tag_93, slt(add(not(0x03), calldatasize), 0x00))\n      0x20\n      mload(0x40)\n        /* \"contracts/modules/Storage.sol\":782:788  2 days */\n      0x02a300\n        /* \"contracts/modules/Storage.sol\":292:20548  contract Storage is ReentrancyGuard {... */\n      dup2\n      mstore\n      return\n    tag_31:\n      jumpi(tag_93, callvalue)\n      jumpi(tag_93, slt(add(not(0x03), calldatasize), 0x20))\n      calldataload(0x04)\n        /* \"contracts/modules/Storage.sol\":1257:1288  uint[] public registeredUserIds */\n      0x07\n        /* \"contracts/modules/Storage.sol\":292:20548  contract Storage is ReentrancyGuard {... */\n      sload\n        /* \"contracts/modules/Storage.sol\":1257:1288  uint[] public registeredUserIds */\n      dup2\n      lt\n      iszero\n      tag_93\n      jumpi\n      0x07\n        /* \"contracts/modules/Storage.sol\":292:20548  contract Storage is ReentrancyGuard {... */\n      sload\n      dup2\n      lt\n      iszero\n      tag_149\n      jumpi\n        /* \"contracts/modules/Storage.sol\":1257:1288  uint[] public registeredUserIds */\n      0x07\n        /* \"contracts/modules/Storage.sol\":292:20548  contract Storage is ReentrancyGuard {... */\n      0x00\n      mstore\n      0xa66cc928b5edb82af9bd49922954155ab7b0942694bea4ce44661d9a8736c688\n      add\n      sload\n      mload(0x40)\n      swap1\n      dup2\n      mstore\n      0x20\n      swap1\n      return\n    tag_29:\n      tag_2\n      jump\t// in\n    tag_27:\n      jumpi(tag_93, callvalue)\n      jumpi(tag_93, slt(add(not(0x03), calldatasize), 0x00))\n      0x20\n      mload(0x40)\n        /* \"contracts/modules/Storage.sol\":1513:1517  1e18 */\n      0x0de0b6b3a7640000\n        /* \"contracts/modules/Storage.sol\":292:20548  contract Storage is ReentrancyGuard {... */\n      dup2\n      mstore\n      return\n    tag_25:\n      jumpi(tag_93, callvalue)\n      jumpi(tag_93, slt(add(not(0x03), calldatasize), 0x00))\n      0x20\n      mload(0x40)\n        /* \"contracts/modules/Storage.sol\":731:737  1 days */\n      0x015180\n        /* \"contracts/modules/Storage.sol\":292:20548  contract Storage is ReentrancyGuard {... */\n      dup2\n      mstore\n      return\n    tag_23:\n      jumpi(tag_93, callvalue)\n      jumpi(tag_93, slt(add(not(0x03), calldatasize), 0x00))\n      0x20\n      mload(0x40)\n        /* \"contracts/modules/Storage.sol\":1240:1241  2 */\n      0x02\n        /* \"contracts/modules/Storage.sol\":292:20548  contract Storage is ReentrancyGuard {... */\n      dup2\n      mstore\n      return\n    tag_21:\n      jumpi(tag_93, callvalue)\n      jumpi(tag_93, slt(add(not(0x03), calldatasize), 0x00))\n      0x20\n        /* \"contracts/modules/Storage.sol\":8930:8963  uint public WeeklyTotalReward = 0 */\n      0x3b\n        /* \"contracts/modules/Storage.sol\":292:20548  contract Storage is ReentrancyGuard {... */\n      sload\n      mload(0x40)\n      swap1\n      dup2\n      mstore\n      return\n    tag_19:\n      jumpi(tag_93, callvalue)\n      jumpi(tag_93, slt(add(not(0x03), calldatasize), 0x00))\n      sload(0x01)\n      mload(0x40)\n      sub(shl(0xa0, 0x01), 0x01)\n      swap1\n      swap2\n      and\n      dup2\n      mstore\n      0x20\n      swap1\n      return\n    tag_15:\n      jumpi(tag_93, callvalue)\n      jumpi(tag_93, slt(add(not(0x03), calldatasize), 0x00))\n      0x20\n      mload(0x40)\n        /* \"contracts/modules/Storage.sol\":10217:10224  30 days */\n      0x278d00\n        /* \"contracts/modules/Storage.sol\":292:20548  contract Storage is ReentrancyGuard {... */\n      dup2\n      mstore\n      return\n    tag_11:\n      jumpi(tag_93, callvalue)\n      jumpi(tag_93, slt(add(not(0x03), calldatasize), 0x20))\n      calldataload(0x04)\n        /* \"contracts/modules/Storage.sol\":7037:7142  uint[] public glbBoosterPackages = [ 100e18, 200e18, 400e18, 800e18, 1600e18, 3200e18, 6400e18, 12800e18] */\n      0x17\n        /* \"contracts/modules/Storage.sol\":292:20548  contract Storage is ReentrancyGuard {... */\n      sload\n        /* \"contracts/modules/Storage.sol\":7037:7142  uint[] public glbBoosterPackages = [ 100e18, 200e18, 400e18, 800e18, 1600e18, 3200e18, 6400e18, 12800e18] */\n      dup2\n      lt\n      iszero\n      tag_93\n      jumpi\n      0x17\n        /* \"contracts/modules/Storage.sol\":292:20548  contract Storage is ReentrancyGuard {... */\n      sload\n      dup2\n      lt\n      iszero\n      tag_149\n      jumpi\n        /* \"contracts/modules/Storage.sol\":7037:7142  uint[] public glbBoosterPackages = [ 100e18, 200e18, 400e18, 800e18, 1600e18, 3200e18, 6400e18, 12800e18] */\n      0x17\n        /* \"contracts/modules/Storage.sol\":292:20548  contract Storage is ReentrancyGuard {... */\n      0x00\n      mstore\n      0xc624b66cc0138b8fabc209247f72d758e1cf3343756d543badbf24212bed8c15\n      add\n      sload\n      mload(0x40)\n      swap1\n      dup2\n      mstore\n      0x20\n      swap1\n      return\n    tag_9:\n      jumpi(tag_93, callvalue)\n      jumpi(tag_93, slt(add(not(0x03), calldatasize), 0x20))\n      calldataload(0x04)\n      0x07\n        /* \"contracts/modules/Storage.sol\":7149:7206  uint[7] public minLevelForPool = [3, 5, 7, 9, 11, 13, 15] */\n      dup2\n      lt\n      iszero\n      tag_93\n      jumpi\n        /* \"contracts/modules/Storage.sol\":292:20548  contract Storage is ReentrancyGuard {... */\n      0x20\n      swap1\n        /* \"contracts/modules/Storage.sol\":7149:7206  uint[7] public minLevelForPool = [3, 5, 7, 9, 11, 13, 15] */\n      0x18\n        /* \"contracts/modules/Storage.sol\":292:20548  contract Storage is ReentrancyGuard {... */\n      add\n      sload\n      mload(0x40)\n      swap1\n      dup2\n      mstore\n      return\n    tag_7:\n      jumpi(tag_93, callvalue)\n      jumpi(tag_93, slt(add(not(0x03), calldatasize), 0x20))\n      mstore(0x00, calldataload(0x04))\n        /* \"contracts/modules/Storage.sol\":2093:2149  mapping(uint256 => uint256) public packageQualifiedUsers */\n      0x0c\n        /* \"contracts/modules/Storage.sol\":292:20548  contract Storage is ReentrancyGuard {... */\n      0x20\n      mstore\n      0x20\n      sload(keccak256(0x00, 0x40))\n      mload(0x40)\n      swap1\n      dup2\n      mstore\n      return\n    tag_5:\n      jumpi(tag_93, callvalue)\n      jumpi(tag_93, slt(add(not(0x03), calldatasize), 0x00))\n      dup1\n        /* \"contracts/modules/Storage.sol\":683:688  10000 */\n      0x2710\n        /* \"contracts/modules/Storage.sol\":292:20548  contract Storage is ReentrancyGuard {... */\n      0x20\n      swap3\n      mstore\n      return\n    tag_1:\n      jumpi(tag_93, callvalue)\n      jumpi(tag_93, slt(add(not(0x03), calldatasize), 0x00))\n      0x20\n      mload(0x40)\n        /* \"contracts/modules/Storage.sol\":1076:1078  10 */\n      0x0a\n        /* \"contracts/modules/Storage.sol\":292:20548  contract Storage is ReentrancyGuard {... */\n      dup2\n      mstore\n      return\n    tag_2:\n      jumpi(tag_93, callvalue)\n      jumpi(tag_93, slt(add(not(0x03), calldatasize), 0x00))\n      0x20\n      mload(0x40)\n        /* \"contracts/modules/Storage.sol\":1129:1131  15 */\n      0x0f\n        /* \"contracts/modules/Storage.sol\":292:20548  contract Storage is ReentrancyGuard {... */\n      dup2\n      mstore\n      return\n\n    auxdata: 0xa2646970667358221220625884c4ecafb74a8c1f3a3a3d2921a31e6d70d642347f6e477f3192daf11a8c64736f6c634300081e0033\n}\n",
				"bytecode": {
					"linkReferences": {},
					"object": "60806040523461052b5760015f556040516101e081016001600160401b038111828210176105175760405267d02ab486cedc0000815268015af1d78b58c4000060208201526802b5e3af16b1880000604082015268056bc75e2d631000006060820152680ad78ebc5ac620000060808201526815af1d78b58c40000060a0820152682b5e3af16b1880000060c08201526856bc75e2d63100000060e082015268ad78ebc5ac6200000061010082015269015af1d78b58c40000006101208201526902b5e3af16b18800000061014082015269056bc75e2d6310000000610160820152690ad78ebc5ac6200000006101808201526915af1d78b58c400000006101a0820152692b5e3af16b18800000006101c0820152600d54600f600d5580600f106104c1575b50600d5f5260205f20905f5b600f81106104a45761014161052f565b680410d586a20a4c00008152681043561a8829300000602082015268410d586a20a4c0000060408201526901043561a882930000006060820152690410d586a20a4c0000006080820152691043561a88293000000060a082015269410d586a20a4c000000060c082015260165460076016558060071061044e575b5060165f5260205f20905f5b60078110610431576101d861054e565b68056bc75e2d631000008152680ad78ebc5ac620000060208201526815af1d78b58c4000006040820152682b5e3af16b1880000060608201526856bc75e2d631000000608082015268ad78ebc5ac6200000060a082015269015af1d78b58c400000060c08201526902b5e3af16b18800000060e08201526017546008601755806008106103db575b5060175f5260205f20905f5b600881106103be5761027c61052f565b60038152600560208201526007604082015260096060820152600b6080820152600d60a0820152600f60c08201525f5b600781106103a6576102bc61054e565b6004815260056020820152600660408201526007606082015260086080820152600960a0820152600a60c0820152600b60e08201525f5b6008811061038e5761030361054e565b5f815260016020820152600160408201526001606082015260016080820152600160a0820152600160c0820152600160e08201525f5b60088110610376575f6039555f603a555f603b5560016040555f6041555f60425560016047555f6048555f60495560405161089990816105858239f35b600190602060ff845116930192816027015501610339565b600190602060ff84511693019281601f0155016102f3565b600190602060ff8451169301928160180155016102ac565b81516001600160501b03168184015560209091019060010161026c565b60175f5261042b907fc624b66cc0138b8fabc209247f72d758e1cf3343756d543badbf24212bed8c15017fc624b66cc0138b8fabc209247f72d758e1cf3343756d543badbf24212bed8c1d61056e565b81610260565b81516001600160501b0316818401556020909101906001016101c8565b60165f5261049e907fd833147d7dc355ba459fc788f669e58cfaf9dc25ddcd0702e87d69c7b5124289017fd833147d7dc355ba459fc788f669e58cfaf9dc25ddcd0702e87d69c7b512429061056e565b816101bc565b81516001600160501b031681840155602090910190600101610131565b600d5f52610511907fd7b6990105719101dabeb77144f2a3385c8033acd3af97e9423a695e81ad1eb5017fd7b6990105719101dabeb77144f2a3385c8033acd3af97e9423a695e81ad1ec461056e565b5f610125565b634e487b7160e01b5f52604160045260245ffd5b5f80fd5b6040519060e082016001600160401b0381118382101761051757604052565b6040519061010082016001600160401b0381118382101761051757604052565b818110610579575050565b5f815560010161056e56fe6080806040526004361015610012575f80fd5b5f3560e01c90816301c234a814610813575080630676d0d6146107e95780632132d204146107bd5780632350268f1461076357806323fd338e146105df5780632a891534146107465780632ae0ee0d146106a25780632f48ab7d1461071e5780633080b5bc1461070157806331bb6a30146106e657806332bc298c146106c957806332fcd966146106a7578063375b43b4146106a257806339ab3603146106485780633a5084b31461062b57806345cb537c146106015780634b8cbf9b146105e457806358c7d352146105df5780635b62d1d5146105c2578063705fee2d146105a457806376f5f7001461058757806378f6ad6d1461056a5780637cdc65f21461054257806389043ece1461050c578063956a3228146104e05780639b40ab97146104c3578063a59d17d1146104a6578063a5e52b9914610489578063ae4708dc1461042f578063bff1f9e114610412578063c216212a146103a4578063c8df290814610380578063c9ed070814610363578063ca8e912114610346578063cb0e0d7d1461030a578063d0a2fd79146102de578063d2f0490d146102c3578063e898fc38146102a6578063e9e34a161461027e578063ebe0ff151461025b578063ec597e6f1461023e578063f5d74d93146102165763fddc806f146101f5575f80fd5b34610212575f366003190112610212576020603a54604051908152f35b5f80fd5b34610212575f366003190112610212576004546040516001600160a01b039091168152602090f35b34610212575f366003190112610212576020600554604051908152f35b34610212575f366003190112610212576020604051683635c9adc5dea000008152f35b34610212575f366003190112610212576003546040516001600160a01b039091168152602090f35b34610212575f366003190112610212576020604154604051908152f35b34610212575f36600319011261021257602060405160058152f35b3461021257602036600319011261021257600435600881101561021257602090601f0154604051908152f35b34610212576020366003190112610212576004356001600160a01b03811690819003610212575f52600f602052602060405f2054604051908152f35b34610212575f366003190112610212576020603954604051908152f35b34610212575f366003190112610212576020604054604051908152f35b34610212575f36600319011261021257602060405169021e19e0c9bab24000008152f35b3461021257602036600319011261021257600435600d5481101561021257600d548110156103fe57600d5f527fd7b6990105719101dabeb77144f2a3385c8033acd3af97e9423a695e81ad1eb50154604051908152602090f35b634e487b7160e01b5f52603260045260245ffd5b34610212575f366003190112610212576020600654604051908152f35b3461021257602036600319011261021257600435601654811015610212576016548110156103fe5760165f527fd833147d7dc355ba459fc788f669e58cfaf9dc25ddcd0702e87d69c7b51242890154604051908152602090f35b34610212575f3660031901126102125760206040516283d6008152f35b34610212575f366003190112610212576020604254604051908152f35b34610212575f366003190112610212576020604854604051908152f35b346102125760203660031901126102125760043560088110156102125760209060270154604051908152f35b34610212576040366003190112610212576004355f52600b60205260405f206024355f52602052602060405f2054604051908152f35b34610212575f366003190112610212576002546040516001600160a01b039091168152602090f35b34610212575f366003190112610212576020600954604051908152f35b34610212575f36600319011261021257602060405162093a808152f35b34610212575f36600319011261021257602060405163025143008152f35b34610212575f366003190112610212576020604954604051908152f35b61082d565b34610212575f366003190112610212576020604754604051908152f35b34610212576020366003190112610212576004355f52600a602052602060405f2054604051908152f35b34610212575f3660031901126102125760206040516202a3008152f35b3461021257602036600319011261021257600435600754811015610212576007548110156103fe5760075f527fa66cc928b5edb82af9bd49922954155ab7b0942694bea4ce44661d9a8736c6880154604051908152602090f35b610848565b34610212575f366003190112610212576020604051670de0b6b3a76400008152f35b34610212575f366003190112610212576020604051620151808152f35b34610212575f36600319011261021257602060405160028152f35b34610212575f366003190112610212576020603b54604051908152f35b34610212575f366003190112610212576001546040516001600160a01b039091168152602090f35b34610212575f36600319011261021257602060405162278d008152f35b3461021257602036600319011261021257600435601754811015610212576017548110156103fe5760175f527fc624b66cc0138b8fabc209247f72d758e1cf3343756d543badbf24212bed8c150154604051908152602090f35b346102125760203660031901126102125760043560078110156102125760209060180154604051908152f35b34610212576020366003190112610212576004355f52600c602052602060405f2054604051908152f35b34610212575f366003190112610212578061271060209252f35b34610212575f366003190112610212576020604051600a8152f35b34610212575f366003190112610212576020604051600f8152f3fea2646970667358221220625884c4ecafb74a8c1f3a3a3d2921a31e6d70d642347f6e477f3192daf11a8c64736f6c634300081e0033",
					"opcodes": "PUSH1 0x80 PUSH1 0x40 MSTORE CALLVALUE PUSH2 0x52B JUMPI PUSH1 0x1 PUSH0 SSTORE PUSH1 0x40 MLOAD PUSH2 0x1E0 DUP2 ADD PUSH1 0x1 PUSH1 0x1 PUSH1 0x40 SHL SUB DUP2 GT DUP3 DUP3 LT OR PUSH2 0x517 JUMPI PUSH1 0x40 MSTORE PUSH8 0xD02AB486CEDC0000 DUP2 MSTORE PUSH9 0x15AF1D78B58C40000 PUSH1 0x20 DUP3 ADD MSTORE PUSH9 0x2B5E3AF16B1880000 PUSH1 0x40 DUP3 ADD MSTORE PUSH9 0x56BC75E2D63100000 PUSH1 0x60 DUP3 ADD MSTORE PUSH9 0xAD78EBC5AC6200000 PUSH1 0x80 DUP3 ADD MSTORE PUSH9 0x15AF1D78B58C400000 PUSH1 0xA0 DUP3 ADD MSTORE PUSH9 0x2B5E3AF16B18800000 PUSH1 0xC0 DUP3 ADD MSTORE PUSH9 0x56BC75E2D631000000 PUSH1 0xE0 DUP3 ADD MSTORE PUSH9 0xAD78EBC5AC62000000 PUSH2 0x100 DUP3 ADD MSTORE PUSH10 0x15AF1D78B58C4000000 PUSH2 0x120 DUP3 ADD MSTORE PUSH10 0x2B5E3AF16B188000000 PUSH2 0x140 DUP3 ADD MSTORE PUSH10 0x56BC75E2D6310000000 PUSH2 0x160 DUP3 ADD MSTORE PUSH10 0xAD78EBC5AC620000000 PUSH2 0x180 DUP3 ADD MSTORE PUSH10 0x15AF1D78B58C40000000 PUSH2 0x1A0 DUP3 ADD MSTORE PUSH10 0x2B5E3AF16B1880000000 PUSH2 0x1C0 DUP3 ADD MSTORE PUSH1 0xD SLOAD PUSH1 0xF PUSH1 0xD SSTORE DUP1 PUSH1 0xF LT PUSH2 0x4C1 JUMPI JUMPDEST POP PUSH1 0xD PUSH0 MSTORE PUSH1 0x20 PUSH0 KECCAK256 SWAP1 PUSH0 JUMPDEST PUSH1 0xF DUP2 LT PUSH2 0x4A4 JUMPI PUSH2 0x141 PUSH2 0x52F JUMP JUMPDEST PUSH9 0x410D586A20A4C0000 DUP2 MSTORE PUSH9 0x1043561A8829300000 PUSH1 0x20 DUP3 ADD MSTORE PUSH9 0x410D586A20A4C00000 PUSH1 0x40 DUP3 ADD MSTORE PUSH10 0x1043561A88293000000 PUSH1 0x60 DUP3 ADD MSTORE PUSH10 0x410D586A20A4C000000 PUSH1 0x80 DUP3 ADD MSTORE PUSH10 0x1043561A882930000000 PUSH1 0xA0 DUP3 ADD MSTORE PUSH10 0x410D586A20A4C0000000 PUSH1 0xC0 DUP3 ADD MSTORE PUSH1 0x16 SLOAD PUSH1 0x7 PUSH1 0x16 SSTORE DUP1 PUSH1 0x7 LT PUSH2 0x44E JUMPI JUMPDEST POP PUSH1 0x16 PUSH0 MSTORE PUSH1 0x20 PUSH0 KECCAK256 SWAP1 PUSH0 JUMPDEST PUSH1 0x7 DUP2 LT PUSH2 0x431 JUMPI PUSH2 0x1D8 PUSH2 0x54E JUMP JUMPDEST PUSH9 0x56BC75E2D63100000 DUP2 MSTORE PUSH9 0xAD78EBC5AC6200000 PUSH1 0x20 DUP3 ADD MSTORE PUSH9 0x15AF1D78B58C400000 PUSH1 0x40 DUP3 ADD MSTORE PUSH9 0x2B5E3AF16B18800000 PUSH1 0x60 DUP3 ADD MSTORE PUSH9 0x56BC75E2D631000000 PUSH1 0x80 DUP3 ADD MSTORE PUSH9 0xAD78EBC5AC62000000 PUSH1 0xA0 DUP3 ADD MSTORE PUSH10 0x15AF1D78B58C4000000 PUSH1 0xC0 DUP3 ADD MSTORE PUSH10 0x2B5E3AF16B188000000 PUSH1 0xE0 DUP3 ADD MSTORE PUSH1 0x17 SLOAD PUSH1 0x8 PUSH1 0x17 SSTORE DUP1 PUSH1 0x8 LT PUSH2 0x3DB JUMPI JUMPDEST POP PUSH1 0x17 PUSH0 MSTORE PUSH1 0x20 PUSH0 KECCAK256 SWAP1 PUSH0 JUMPDEST PUSH1 0x8 DUP2 LT PUSH2 0x3BE JUMPI PUSH2 0x27C PUSH2 0x52F JUMP JUMPDEST PUSH1 0x3 DUP2 MSTORE PUSH1 0x5 PUSH1 0x20 DUP3 ADD MSTORE PUSH1 0x7 PUSH1 0x40 DUP3 ADD MSTORE PUSH1 0x9 PUSH1 0x60 DUP3 ADD MSTORE PUSH1 0xB PUSH1 0x80 DUP3 ADD MSTORE PUSH1 0xD PUSH1 0xA0 DUP3 ADD MSTORE PUSH1 0xF PUSH1 0xC0 DUP3 ADD MSTORE PUSH0 JUMPDEST PUSH1 0x7 DUP2 LT PUSH2 0x3A6 JUMPI PUSH2 0x2BC PUSH2 0x54E JUMP JUMPDEST PUSH1 0x4 DUP2 MSTORE PUSH1 0x5 PUSH1 0x20 DUP3 ADD MSTORE PUSH1 0x6 PUSH1 0x40 DUP3 ADD MSTORE PUSH1 0x7 PUSH1 0x60 DUP3 ADD MSTORE PUSH1 0x8 PUSH1 0x80 DUP3 ADD MSTORE PUSH1 0x9 PUSH1 0xA0 DUP3 ADD MSTORE PUSH1 0xA PUSH1 0xC0 DUP3 ADD MSTORE PUSH1 0xB PUSH1 0xE0 DUP3 ADD MSTORE PUSH0 JUMPDEST PUSH1 0x8 DUP2 LT PUSH2 0x38E JUMPI PUSH2 0x303 PUSH2 0x54E JUMP JUMPDEST PUSH0 DUP2 MSTORE PUSH1 0x1 PUSH1 0x20 DUP3 ADD MSTORE PUSH1 0x1 PUSH1 0x40 DUP3 ADD MSTORE PUSH1 0x1 PUSH1 0x60 DUP3 ADD MSTORE PUSH1 0x1 PUSH1 0x80 DUP3 ADD MSTORE PUSH1 0x1 PUSH1 0xA0 DUP3 ADD MSTORE PUSH1 0x1 PUSH1 0xC0 DUP3 ADD MSTORE PUSH1 0x1 PUSH1 0xE0 DUP3 ADD MSTORE PUSH0 JUMPDEST PUSH1 0x8 DUP2 LT PUSH2 0x376 JUMPI PUSH0 PUSH1 0x39 SSTORE PUSH0 PUSH1 0x3A SSTORE PUSH0 PUSH1 0x3B SSTORE PUSH1 0x1 PUSH1 0x40 SSTORE PUSH0 PUSH1 0x41 SSTORE PUSH0 PUSH1 0x42 SSTORE PUSH1 0x1 PUSH1 0x47 SSTORE PUSH0 PUSH1 0x48 SSTORE PUSH0 PUSH1 0x49 SSTORE PUSH1 0x40 MLOAD PUSH2 0x899 SWAP1 DUP2 PUSH2 0x585 DUP3 CODECOPY RETURN JUMPDEST PUSH1 0x1 SWAP1 PUSH1 0x20 PUSH1 0xFF DUP5 MLOAD AND SWAP4 ADD SWAP3 DUP2 PUSH1 0x27 ADD SSTORE ADD PUSH2 0x339 JUMP JUMPDEST PUSH1 0x1 SWAP1 PUSH1 0x20 PUSH1 0xFF DUP5 MLOAD AND SWAP4 ADD SWAP3 DUP2 PUSH1 0x1F ADD SSTORE ADD PUSH2 0x2F3 JUMP JUMPDEST PUSH1 0x1 SWAP1 PUSH1 0x20 PUSH1 0xFF DUP5 MLOAD AND SWAP4 ADD SWAP3 DUP2 PUSH1 0x18 ADD SSTORE ADD PUSH2 0x2AC JUMP JUMPDEST DUP2 MLOAD PUSH1 0x1 PUSH1 0x1 PUSH1 0x50 SHL SUB AND DUP2 DUP5 ADD SSTORE PUSH1 0x20 SWAP1 SWAP2 ADD SWAP1 PUSH1 0x1 ADD PUSH2 0x26C JUMP JUMPDEST PUSH1 0x17 PUSH0 MSTORE PUSH2 0x42B SWAP1 PUSH32 0xC624B66CC0138B8FABC209247F72D758E1CF3343756D543BADBF24212BED8C15 ADD PUSH32 0xC624B66CC0138B8FABC209247F72D758E1CF3343756D543BADBF24212BED8C1D PUSH2 0x56E JUMP JUMPDEST DUP2 PUSH2 0x260 JUMP JUMPDEST DUP2 MLOAD PUSH1 0x1 PUSH1 0x1 PUSH1 0x50 SHL SUB AND DUP2 DUP5 ADD SSTORE PUSH1 0x20 SWAP1 SWAP2 ADD SWAP1 PUSH1 0x1 ADD PUSH2 0x1C8 JUMP JUMPDEST PUSH1 0x16 PUSH0 MSTORE PUSH2 0x49E SWAP1 PUSH32 0xD833147D7DC355BA459FC788F669E58CFAF9DC25DDCD0702E87D69C7B5124289 ADD PUSH32 0xD833147D7DC355BA459FC788F669E58CFAF9DC25DDCD0702E87D69C7B5124290 PUSH2 0x56E JUMP JUMPDEST DUP2 PUSH2 0x1BC JUMP JUMPDEST DUP2 MLOAD PUSH1 0x1 PUSH1 0x1 PUSH1 0x50 SHL SUB AND DUP2 DUP5 ADD SSTORE PUSH1 0x20 SWAP1 SWAP2 ADD SWAP1 PUSH1 0x1 ADD PUSH2 0x131 JUMP JUMPDEST PUSH1 0xD PUSH0 MSTORE PUSH2 0x511 SWAP1 PUSH32 0xD7B6990105719101DABEB77144F2A3385C8033ACD3AF97E9423A695E81AD1EB5 ADD PUSH32 0xD7B6990105719101DABEB77144F2A3385C8033ACD3AF97E9423A695E81AD1EC4 PUSH2 0x56E JUMP JUMPDEST PUSH0 PUSH2 0x125 JUMP JUMPDEST PUSH4 0x4E487B71 PUSH1 0xE0 SHL PUSH0 MSTORE PUSH1 0x41 PUSH1 0x4 MSTORE PUSH1 0x24 PUSH0 REVERT JUMPDEST PUSH0 DUP1 REVERT JUMPDEST PUSH1 0x40 MLOAD SWAP1 PUSH1 0xE0 DUP3 ADD PUSH1 0x1 PUSH1 0x1 PUSH1 0x40 SHL SUB DUP2 GT DUP4 DUP3 LT OR PUSH2 0x517 JUMPI PUSH1 0x40 MSTORE JUMP JUMPDEST PUSH1 0x40 MLOAD SWAP1 PUSH2 0x100 DUP3 ADD PUSH1 0x1 PUSH1 0x1 PUSH1 0x40 SHL SUB DUP2 GT DUP4 DUP3 LT OR PUSH2 0x517 JUMPI PUSH1 0x40 MSTORE JUMP JUMPDEST DUP2 DUP2 LT PUSH2 0x579 JUMPI POP POP JUMP JUMPDEST PUSH0 DUP2 SSTORE PUSH1 0x1 ADD PUSH2 0x56E JUMP INVALID PUSH1 0x80 DUP1 PUSH1 0x40 MSTORE PUSH1 0x4 CALLDATASIZE LT ISZERO PUSH2 0x12 JUMPI PUSH0 DUP1 REVERT JUMPDEST PUSH0 CALLDATALOAD PUSH1 0xE0 SHR SWAP1 DUP2 PUSH4 0x1C234A8 EQ PUSH2 0x813 JUMPI POP DUP1 PUSH4 0x676D0D6 EQ PUSH2 0x7E9 JUMPI DUP1 PUSH4 0x2132D204 EQ PUSH2 0x7BD JUMPI DUP1 PUSH4 0x2350268F EQ PUSH2 0x763 JUMPI DUP1 PUSH4 0x23FD338E EQ PUSH2 0x5DF JUMPI DUP1 PUSH4 0x2A891534 EQ PUSH2 0x746 JUMPI DUP1 PUSH4 0x2AE0EE0D EQ PUSH2 0x6A2 JUMPI DUP1 PUSH4 0x2F48AB7D EQ PUSH2 0x71E JUMPI DUP1 PUSH4 0x3080B5BC EQ PUSH2 0x701 JUMPI DUP1 PUSH4 0x31BB6A30 EQ PUSH2 0x6E6 JUMPI DUP1 PUSH4 0x32BC298C EQ PUSH2 0x6C9 JUMPI DUP1 PUSH4 0x32FCD966 EQ PUSH2 0x6A7 JUMPI DUP1 PUSH4 0x375B43B4 EQ PUSH2 0x6A2 JUMPI DUP1 PUSH4 0x39AB3603 EQ PUSH2 0x648 JUMPI DUP1 PUSH4 0x3A5084B3 EQ PUSH2 0x62B JUMPI DUP1 PUSH4 0x45CB537C EQ PUSH2 0x601 JUMPI DUP1 PUSH4 0x4B8CBF9B EQ PUSH2 0x5E4 JUMPI DUP1 PUSH4 0x58C7D352 EQ PUSH2 0x5DF JUMPI DUP1 PUSH4 0x5B62D1D5 EQ PUSH2 0x5C2 JUMPI DUP1 PUSH4 0x705FEE2D EQ PUSH2 0x5A4 JUMPI DUP1 PUSH4 0x76F5F700 EQ PUSH2 0x587 JUMPI DUP1 PUSH4 0x78F6AD6D EQ PUSH2 0x56A JUMPI DUP1 PUSH4 0x7CDC65F2 EQ PUSH2 0x542 JUMPI DUP1 PUSH4 0x89043ECE EQ PUSH2 0x50C JUMPI DUP1 PUSH4 0x956A3228 EQ PUSH2 0x4E0 JUMPI DUP1 PUSH4 0x9B40AB97 EQ PUSH2 0x4C3 JUMPI DUP1 PUSH4 0xA59D17D1 EQ PUSH2 0x4A6 JUMPI DUP1 PUSH4 0xA5E52B99 EQ PUSH2 0x489 JUMPI DUP1 PUSH4 0xAE4708DC EQ PUSH2 0x42F JUMPI DUP1 PUSH4 0xBFF1F9E1 EQ PUSH2 0x412 JUMPI DUP1 PUSH4 0xC216212A EQ PUSH2 0x3A4 JUMPI DUP1 PUSH4 0xC8DF2908 EQ PUSH2 0x380 JUMPI DUP1 PUSH4 0xC9ED0708 EQ PUSH2 0x363 JUMPI DUP1 PUSH4 0xCA8E9121 EQ PUSH2 0x346 JUMPI DUP1 PUSH4 0xCB0E0D7D EQ PUSH2 0x30A JUMPI DUP1 PUSH4 0xD0A2FD79 EQ PUSH2 0x2DE JUMPI DUP1 PUSH4 0xD2F0490D EQ PUSH2 0x2C3 JUMPI DUP1 PUSH4 0xE898FC38 EQ PUSH2 0x2A6 JUMPI DUP1 PUSH4 0xE9E34A16 EQ PUSH2 0x27E JUMPI DUP1 PUSH4 0xEBE0FF15 EQ PUSH2 0x25B JUMPI DUP1 PUSH4 0xEC597E6F EQ PUSH2 0x23E JUMPI DUP1 PUSH4 0xF5D74D93 EQ PUSH2 0x216 JUMPI PUSH4 0xFDDC806F EQ PUSH2 0x1F5 JUMPI PUSH0 DUP1 REVERT JUMPDEST CALLVALUE PUSH2 0x212 JUMPI PUSH0 CALLDATASIZE PUSH1 0x3 NOT ADD SLT PUSH2 0x212 JUMPI PUSH1 0x20 PUSH1 0x3A SLOAD PUSH1 0x40 MLOAD SWAP1 DUP2 MSTORE RETURN JUMPDEST PUSH0 DUP1 REVERT JUMPDEST CALLVALUE PUSH2 0x212 JUMPI PUSH0 CALLDATASIZE PUSH1 0x3 NOT ADD SLT PUSH2 0x212 JUMPI PUSH1 0x4 SLOAD PUSH1 0x40 MLOAD PUSH1 0x1 PUSH1 0x1 PUSH1 0xA0 SHL SUB SWAP1 SWAP2 AND DUP2 MSTORE PUSH1 0x20 SWAP1 RETURN JUMPDEST CALLVALUE PUSH2 0x212 JUMPI PUSH0 CALLDATASIZE PUSH1 0x3 NOT ADD SLT PUSH2 0x212 JUMPI PUSH1 0x20 PUSH1 0x5 SLOAD PUSH1 0x40 MLOAD SWAP1 DUP2 MSTORE RETURN JUMPDEST CALLVALUE PUSH2 0x212 JUMPI PUSH0 CALLDATASIZE PUSH1 0x3 NOT ADD SLT PUSH2 0x212 JUMPI PUSH1 0x20 PUSH1 0x40 MLOAD PUSH9 0x3635C9ADC5DEA00000 DUP2 MSTORE RETURN JUMPDEST CALLVALUE PUSH2 0x212 JUMPI PUSH0 CALLDATASIZE PUSH1 0x3 NOT ADD SLT PUSH2 0x212 JUMPI PUSH1 0x3 SLOAD PUSH1 0x40 MLOAD PUSH1 0x1 PUSH1 0x1 PUSH1 0xA0 SHL SUB SWAP1 SWAP2 AND DUP2 MSTORE PUSH1 0x20 SWAP1 RETURN JUMPDEST CALLVALUE PUSH2 0x212 JUMPI PUSH0 CALLDATASIZE PUSH1 0x3 NOT ADD SLT PUSH2 0x212 JUMPI PUSH1 0x20 PUSH1 0x41 SLOAD PUSH1 0x40 MLOAD SWAP1 DUP2 MSTORE RETURN JUMPDEST CALLVALUE PUSH2 0x212 JUMPI PUSH0 CALLDATASIZE PUSH1 0x3 NOT ADD SLT PUSH2 0x212 JUMPI PUSH1 0x20 PUSH1 0x40 MLOAD PUSH1 0x5 DUP2 MSTORE RETURN JUMPDEST CALLVALUE PUSH2 0x212 JUMPI PUSH1 0x20 CALLDATASIZE PUSH1 0x3 NOT ADD SLT PUSH2 0x212 JUMPI PUSH1 0x4 CALLDATALOAD PUSH1 0x8 DUP2 LT ISZERO PUSH2 0x212 JUMPI PUSH1 0x20 SWAP1 PUSH1 0x1F ADD SLOAD PUSH1 0x40 MLOAD SWAP1 DUP2 MSTORE RETURN JUMPDEST CALLVALUE PUSH2 0x212 JUMPI PUSH1 0x20 CALLDATASIZE PUSH1 0x3 NOT ADD SLT PUSH2 0x212 JUMPI PUSH1 0x4 CALLDATALOAD PUSH1 0x1 PUSH1 0x1 PUSH1 0xA0 SHL SUB DUP2 AND SWAP1 DUP2 SWAP1 SUB PUSH2 0x212 JUMPI PUSH0 MSTORE PUSH1 0xF PUSH1 0x20 MSTORE PUSH1 0x20 PUSH1 0x40 PUSH0 KECCAK256 SLOAD PUSH1 0x40 MLOAD SWAP1 DUP2 MSTORE RETURN JUMPDEST CALLVALUE PUSH2 0x212 JUMPI PUSH0 CALLDATASIZE PUSH1 0x3 NOT ADD SLT PUSH2 0x212 JUMPI PUSH1 0x20 PUSH1 0x39 SLOAD PUSH1 0x40 MLOAD SWAP1 DUP2 MSTORE RETURN JUMPDEST CALLVALUE PUSH2 0x212 JUMPI PUSH0 CALLDATASIZE PUSH1 0x3 NOT ADD SLT PUSH2 0x212 JUMPI PUSH1 0x20 PUSH1 0x40 SLOAD PUSH1 0x40 MLOAD SWAP1 DUP2 MSTORE RETURN JUMPDEST CALLVALUE PUSH2 0x212 JUMPI PUSH0 CALLDATASIZE PUSH1 0x3 NOT ADD SLT PUSH2 0x212 JUMPI PUSH1 0x20 PUSH1 0x40 MLOAD PUSH10 0x21E19E0C9BAB2400000 DUP2 MSTORE RETURN JUMPDEST CALLVALUE PUSH2 0x212 JUMPI PUSH1 0x20 CALLDATASIZE PUSH1 0x3 NOT ADD SLT PUSH2 0x212 JUMPI PUSH1 0x4 CALLDATALOAD PUSH1 0xD SLOAD DUP2 LT ISZERO PUSH2 0x212 JUMPI PUSH1 0xD SLOAD DUP2 LT ISZERO PUSH2 0x3FE JUMPI PUSH1 0xD PUSH0 MSTORE PUSH32 0xD7B6990105719101DABEB77144F2A3385C8033ACD3AF97E9423A695E81AD1EB5 ADD SLOAD PUSH1 0x40 MLOAD SWAP1 DUP2 MSTORE PUSH1 0x20 SWAP1 RETURN JUMPDEST PUSH4 0x4E487B71 PUSH1 0xE0 SHL PUSH0 MSTORE PUSH1 0x32 PUSH1 0x4 MSTORE PUSH1 0x24 PUSH0 REVERT JUMPDEST CALLVALUE PUSH2 0x212 JUMPI PUSH0 CALLDATASIZE PUSH1 0x3 NOT ADD SLT PUSH2 0x212 JUMPI PUSH1 0x20 PUSH1 0x6 SLOAD PUSH1 0x40 MLOAD SWAP1 DUP2 MSTORE RETURN JUMPDEST CALLVALUE PUSH2 0x212 JUMPI PUSH1 0x20 CALLDATASIZE PUSH1 0x3 NOT ADD SLT PUSH2 0x212 JUMPI PUSH1 0x4 CALLDATALOAD PUSH1 0x16 SLOAD DUP2 LT ISZERO PUSH2 0x212 JUMPI PUSH1 0x16 SLOAD DUP2 LT ISZERO PUSH2 0x3FE JUMPI PUSH1 0x16 PUSH0 MSTORE PUSH32 0xD833147D7DC355BA459FC788F669E58CFAF9DC25DDCD0702E87D69C7B5124289 ADD SLOAD PUSH1 0x40 MLOAD SWAP1 DUP2 MSTORE PUSH1 0x20 SWAP1 RETURN JUMPDEST CALLVALUE PUSH2 0x212 JUMPI PUSH0 CALLDATASIZE PUSH1 0x3 NOT ADD SLT PUSH2 0x212 JUMPI PUSH1 0x20 PUSH1 0x40 MLOAD PUSH3 0x83D600 DUP2 MSTORE RETURN JUMPDEST CALLVALUE PUSH2 0x212 JUMPI PUSH0 CALLDATASIZE PUSH1 0x3 NOT ADD SLT PUSH2 0x212 JUMPI PUSH1 0x20 PUSH1 0x42 SLOAD PUSH1 0x40 MLOAD SWAP1 DUP2 MSTORE RETURN JUMPDEST CALLVALUE PUSH2 0x212 JUMPI PUSH0 CALLDATASIZE PUSH1 0x3 NOT ADD SLT PUSH2 0x212 JUMPI PUSH1 0x20 PUSH1 0x48 SLOAD PUSH1 0x40 MLOAD SWAP1 DUP2 MSTORE RETURN JUMPDEST CALLVALUE PUSH2 0x212 JUMPI PUSH1 0x20 CALLDATASIZE PUSH1 0x3 NOT ADD SLT PUSH2 0x212 JUMPI PUSH1 0x4 CALLDATALOAD PUSH1 0x8 DUP2 LT ISZERO PUSH2 0x212 JUMPI PUSH1 0x20 SWAP1 PUSH1 0x27 ADD SLOAD PUSH1 0x40 MLOAD SWAP1 DUP2 MSTORE RETURN JUMPDEST CALLVALUE PUSH2 0x212 JUMPI PUSH1 0x40 CALLDATASIZE PUSH1 0x3 NOT ADD SLT PUSH2 0x212 JUMPI PUSH1 0x4 CALLDATALOAD PUSH0 MSTORE PUSH1 0xB PUSH1 0x20 MSTORE PUSH1 0x40 PUSH0 KECCAK256 PUSH1 0x24 CALLDATALOAD PUSH0 MSTORE PUSH1 0x20 MSTORE PUSH1 0x20 PUSH1 0x40 PUSH0 KECCAK256 SLOAD PUSH1 0x40 MLOAD SWAP1 DUP2 MSTORE RETURN JUMPDEST CALLVALUE PUSH2 0x212 JUMPI PUSH0 CALLDATASIZE PUSH1 0x3 NOT ADD SLT PUSH2 0x212 JUMPI PUSH1 0x2 SLOAD PUSH1 0x40 MLOAD PUSH1 0x1 PUSH1 0x1 PUSH1 0xA0 SHL SUB SWAP1 SWAP2 AND DUP2 MSTORE PUSH1 0x20 SWAP1 RETURN JUMPDEST CALLVALUE PUSH2 0x212 JUMPI PUSH0 CALLDATASIZE PUSH1 0x3 NOT ADD SLT PUSH2 0x212 JUMPI PUSH1 0x20 PUSH1 0x9 SLOAD PUSH1 0x40 MLOAD SWAP1 DUP2 MSTORE RETURN JUMPDEST CALLVALUE PUSH2 0x212 JUMPI PUSH0 CALLDATASIZE PUSH1 0x3 NOT ADD SLT PUSH2 0x212 JUMPI PUSH1 0x20 PUSH1 0x40 MLOAD PUSH3 0x93A80 DUP2 MSTORE RETURN JUMPDEST CALLVALUE PUSH2 0x212 JUMPI PUSH0 CALLDATASIZE PUSH1 0x3 NOT ADD SLT PUSH2 0x212 JUMPI PUSH1 0x20 PUSH1 0x40 MLOAD PUSH4 0x2514300 DUP2 MSTORE RETURN JUMPDEST CALLVALUE PUSH2 0x212 JUMPI PUSH0 CALLDATASIZE PUSH1 0x3 NOT ADD SLT PUSH2 0x212 JUMPI PUSH1 0x20 PUSH1 0x49 SLOAD PUSH1 0x40 MLOAD SWAP1 DUP2 MSTORE RETURN JUMPDEST PUSH2 0x82D JUMP JUMPDEST CALLVALUE PUSH2 0x212 JUMPI PUSH0 CALLDATASIZE PUSH1 0x3 NOT ADD SLT PUSH2 0x212 JUMPI PUSH1 0x20 PUSH1 0x47 SLOAD PUSH1 0x40 MLOAD SWAP1 DUP2 MSTORE RETURN JUMPDEST CALLVALUE PUSH2 0x212 JUMPI PUSH1 0x20 CALLDATASIZE PUSH1 0x3 NOT ADD SLT PUSH2 0x212 JUMPI PUSH1 0x4 CALLDATALOAD PUSH0 MSTORE PUSH1 0xA PUSH1 0x20 MSTORE PUSH1 0x20 PUSH1 0x40 PUSH0 KECCAK256 SLOAD PUSH1 0x40 MLOAD SWAP1 DUP2 MSTORE RETURN JUMPDEST CALLVALUE PUSH2 0x212 JUMPI PUSH0 CALLDATASIZE PUSH1 0x3 NOT ADD SLT PUSH2 0x212 JUMPI PUSH1 0x20 PUSH1 0x40 MLOAD PUSH3 0x2A300 DUP2 MSTORE RETURN JUMPDEST CALLVALUE PUSH2 0x212 JUMPI PUSH1 0x20 CALLDATASIZE PUSH1 0x3 NOT ADD SLT PUSH2 0x212 JUMPI PUSH1 0x4 CALLDATALOAD PUSH1 0x7 SLOAD DUP2 LT ISZERO PUSH2 0x212 JUMPI PUSH1 0x7 SLOAD DUP2 LT ISZERO PUSH2 0x3FE JUMPI PUSH1 0x7 PUSH0 MSTORE PUSH32 0xA66CC928B5EDB82AF9BD49922954155AB7B0942694BEA4CE44661D9A8736C688 ADD SLOAD PUSH1 0x40 MLOAD SWAP1 DUP2 MSTORE PUSH1 0x20 SWAP1 RETURN JUMPDEST PUSH2 0x848 JUMP JUMPDEST CALLVALUE PUSH2 0x212 JUMPI PUSH0 CALLDATASIZE PUSH1 0x3 NOT ADD SLT PUSH2 0x212 JUMPI PUSH1 0x20 PUSH1 0x40 MLOAD PUSH8 0xDE0B6B3A7640000 DUP2 MSTORE RETURN JUMPDEST CALLVALUE PUSH2 0x212 JUMPI PUSH0 CALLDATASIZE PUSH1 0x3 NOT ADD SLT PUSH2 0x212 JUMPI PUSH1 0x20 PUSH1 0x40 MLOAD PUSH3 0x15180 DUP2 MSTORE RETURN JUMPDEST CALLVALUE PUSH2 0x212 JUMPI PUSH0 CALLDATASIZE PUSH1 0x3 NOT ADD SLT PUSH2 0x212 JUMPI PUSH1 0x20 PUSH1 0x40 MLOAD PUSH1 0x2 DUP2 MSTORE RETURN JUMPDEST CALLVALUE PUSH2 0x212 JUMPI PUSH0 CALLDATASIZE PUSH1 0x3 NOT ADD SLT PUSH2 0x212 JUMPI PUSH1 0x20 PUSH1 0x3B SLOAD PUSH1 0x40 MLOAD SWAP1 DUP2 MSTORE RETURN JUMPDEST CALLVALUE PUSH2 0x212 JUMPI PUSH0 CALLDATASIZE PUSH1 0x3 NOT ADD SLT PUSH2 0x212 JUMPI PUSH1 0x1 SLOAD PUSH1 0x40 MLOAD PUSH1 0x1 PUSH1 0x1 PUSH1 0xA0 SHL SUB SWAP1 SWAP2 AND DUP2 MSTORE PUSH1 0x20 SWAP1 RETURN JUMPDEST CALLVALUE PUSH2 0x212 JUMPI PUSH0 CALLDATASIZE PUSH1 0x3 NOT ADD SLT PUSH2 0x212 JUMPI PUSH1 0x20 PUSH1 0x40 MLOAD PUSH3 0x278D00 DUP2 MSTORE RETURN JUMPDEST CALLVALUE PUSH2 0x212 JUMPI PUSH1 0x20 CALLDATASIZE PUSH1 0x3 NOT ADD SLT PUSH2 0x212 JUMPI PUSH1 0x4 CALLDATALOAD PUSH1 0x17 SLOAD DUP2 LT ISZERO PUSH2 0x212 JUMPI PUSH1 0x17 SLOAD DUP2 LT ISZERO PUSH2 0x3FE JUMPI PUSH1 0x17 PUSH0 MSTORE PUSH32 0xC624B66CC0138B8FABC209247F72D758E1CF3343756D543BADBF24212BED8C15 ADD SLOAD PUSH1 0x40 MLOAD SWAP1 DUP2 MSTORE PUSH1 0x20 SWAP1 RETURN JUMPDEST CALLVALUE PUSH2 0x212 JUMPI PUSH1 0x20 CALLDATASIZE PUSH1 0x3 NOT ADD SLT PUSH2 0x212 JUMPI PUSH1 0x4 CALLDATALOAD PUSH1 0x7 DUP2 LT ISZERO PUSH2 0x212 JUMPI PUSH1 0x20 SWAP1 PUSH1 0x18 ADD SLOAD PUSH1 0x40 MLOAD SWAP1 DUP2 MSTORE RETURN JUMPDEST CALLVALUE PUSH2 0x212 JUMPI PUSH1 0x20 CALLDATASIZE PUSH1 0x3 NOT ADD SLT PUSH2 0x212 JUMPI PUSH1 0x4 CALLDATALOAD PUSH0 MSTORE PUSH1 0xC PUSH1 0x20 MSTORE PUSH1 0x20 PUSH1 0x40 PUSH0 KECCAK256 SLOAD PUSH1 0x40 MLOAD SWAP1 DUP2 MSTORE RETURN JUMPDEST CALLVALUE PUSH2 0x212 JUMPI PUSH0 CALLDATASIZE PUSH1 0x3 NOT ADD SLT PUSH2 0x212 JUMPI DUP1 PUSH2 0x2710 PUSH1 0x20 SWAP3 MSTORE RETURN JUMPDEST CALLVALUE PUSH2 0x212 JUMPI PUSH0 CALLDATASIZE PUSH1 0x3 NOT ADD SLT PUSH2 0x212 JUMPI PUSH1 0x20 PUSH1 0x40 MLOAD PUSH1 0xA DUP2 MSTORE RETURN JUMPDEST CALLVALUE PUSH2 0x212 JUMPI PUSH0 CALLDATASIZE PUSH1 0x3 NOT ADD SLT PUSH2 0x212 JUMPI PUSH1 0x20 PUSH1 0x40 MLOAD PUSH1 0xF DUP2 MSTORE RETURN INVALID LOG2 PUSH5 0x6970667358 0x22 SLT KECCAK256 PUSH3 0x5884C4 EOFCREATE 0xAF 0xB7 BLOBBASEFEE DUP13 0x1F GASPRICE GASPRICE RETURNDATASIZE 0x29 0x21 LOG3 0x1E PUSH14 0x70D642347F6E477F3192DAF11A8C PUSH5 0x736F6C6343 STOP ADDMOD 0x1E STOP CALLER "
				},
				"gasEstimates": {
					"creation": {
						"codeDepositCost": "440200",
						"executionCost": "infinite",
						"totalCost": "infinite"
					},
					"external": {
						"ACC_PRECISION()": "395",
						"MONTHLY_ROYALTY_DIRECT()": "945",
						"MONTHLY_ROYALTY_LEVEL()": "253",
						"MONTHLY_ROYALTY_TIME()": "747",
						"MONTH_DURATION()": "263",
						"PERCENTS_DIVIDER()": "148",
						"ROI_2X_TIME()": "461",
						"ROI_CAP_DIVIDER()": "539",
						"ROI_CAP_MULTIPLIER()": "429",
						"TIME_STEP()": "373",
						"TOP_ROYALTY_DIRECT()": "351",
						"TOP_ROYALTY_LEVEL()": "297",
						"TOP_ROYALTY_TIME()": "571",
						"WEEK_DURATION()": "593",
						"WeeklyCapping()": "1011",
						"WeeklyTotalReward()": "2432",
						"addressToId(address)": "3115",
						"communityAccPerPackage(uint256)": "2651",
						"communityAccPerUser()": "2718",
						"communityDebt(uint256,uint256)": "2891",
						"creatorWallet()": "2764",
						"currentMonthlyRound()": "2960",
						"currentMonthlyStartTime()": "3070",
						"currentWeeklyRound()": "2982",
						"currentWeeklyStartTime()": "3177",
						"defaultRefId()": "3136",
						"glbBoosterPackages(uint256)": "6593",
						"minLevelForGlbBooster(uint256)": "3064",
						"minLevelForPool(uint256)": "2338",
						"minPoolForGlbBooster(uint256)": "2822",
						"monthlyCapping()": "835",
						"monthlyTotalReward()": "2828",
						"packageQualifiedUsers(uint256)": "2343",
						"packages(uint256)": "7187",
						"poolPackages(uint256)": "7143",
						"registeredUserIds(uint256)": "6813",
						"systemMaintance()": "3116",
						"teamDevelopment()": "3182",
						"topRoyaltyReward()": "2652",
						"topRoyaltyRound()": "2608",
						"topRoyaltyStartTime()": "2806",
						"totalUsers()": "2894",
						"usdt()": "2434"
					},
					"internal": {
						"_distributeIncome(uint256,uint256,uint256,uint256,enum Storage.IncomeType)": "infinite",
						"_monthlyRoyaltyQualifier(uint256,uint256)": "infinite",
						"_sendToCreator(uint256)": "infinite",
						"_topRoyaltyQualifier(uint256,uint256)": "infinite",
						"_tryMonthlyRoyaltyQualify(uint256,uint256)": "infinite",
						"_tryTopRoyaltyQualify(uint256,uint256)": "infinite",
						"_tryWeeklyContestQualify(uint256,uint256)": "infinite",
						"_weeklyContestQualifier(uint256,uint256)": "infinite"
					}
				},
				"methodIdentifiers": {
					"ACC_PRECISION()": "32fcd966",
					"MONTHLY_ROYALTY_DIRECT()": "d2f0490d",
					"MONTHLY_ROYALTY_LEVEL()": "23fd338e",
					"MONTHLY_ROYALTY_TIME()": "a5e52b99",
					"MONTH_DURATION()": "2a891534",
					"PERCENTS_DIVIDER()": "01c234a8",
					"ROI_2X_TIME()": "3a5084b3",
					"ROI_CAP_DIVIDER()": "58c7d352",
					"ROI_CAP_MULTIPLIER()": "375b43b4",
					"TIME_STEP()": "32bc298c",
					"TOP_ROYALTY_DIRECT()": "31bb6a30",
					"TOP_ROYALTY_LEVEL()": "2ae0ee0d",
					"TOP_ROYALTY_TIME()": "705fee2d",
					"WEEK_DURATION()": "76f5f700",
					"WeeklyCapping()": "ebe0ff15",
					"WeeklyTotalReward()": "3080b5bc",
					"addressToId(address)": "cb0e0d7d",
					"communityAccPerPackage(uint256)": "45cb537c",
					"communityAccPerUser()": "78f6ad6d",
					"communityDebt(uint256,uint256)": "89043ece",
					"creatorWallet()": "7cdc65f2",
					"currentMonthlyRound()": "c9ed0708",
					"currentMonthlyStartTime()": "e898fc38",
					"currentWeeklyRound()": "ca8e9121",
					"currentWeeklyStartTime()": "fddc806f",
					"defaultRefId()": "ec597e6f",
					"glbBoosterPackages(uint256)": "2350268f",
					"minLevelForGlbBooster(uint256)": "d0a2fd79",
					"minLevelForPool(uint256)": "2132d204",
					"minPoolForGlbBooster(uint256)": "956a3228",
					"monthlyCapping()": "c8df2908",
					"monthlyTotalReward()": "a59d17d1",
					"packageQualifiedUsers(uint256)": "0676d0d6",
					"packages(uint256)": "c216212a",
					"poolPackages(uint256)": "ae4708dc",
					"registeredUserIds(uint256)": "39ab3603",
					"systemMaintance()": "e9e34a16",
					"teamDevelopment()": "f5d74d93",
					"topRoyaltyReward()": "5b62d1d5",
					"topRoyaltyRound()": "4b8cbf9b",
					"topRoyaltyStartTime()": "9b40ab97",
					"totalUsers()": "bff1f9e1",
					"usdt()": "2f48ab7d"
				}
			},
			"storageLayout": {
				"storage": [
					{
						"astId": 100,
						"contract": "contracts/modules/Storage.sol:Storage",
						"label": "_status",
						"offset": 0,
						"slot": "0",
						"type": "t_uint256"
					},
					{
						"astId": 2230,
						"contract": "contracts/modules/Storage.sol:Storage",
						"label": "usdt",
						"offset": 0,
						"slot": "1",
						"type": "t_contract(IERC20)232"
					},
					{
						"astId": 2232,
						"contract": "contracts/modules/Storage.sol:Storage",
						"label": "creatorWallet",
						"offset": 0,
						"slot": "2",
						"type": "t_address"
					},
					{
						"astId": 2234,
						"contract": "contracts/modules/Storage.sol:Storage",
						"label": "systemMaintance",
						"offset": 0,
						"slot": "3",
						"type": "t_address"
					},
					{
						"astId": 2236,
						"contract": "contracts/modules/Storage.sol:Storage",
						"label": "teamDevelopment",
						"offset": 0,
						"slot": "4",
						"type": "t_address"
					},
					{
						"astId": 2238,
						"contract": "contracts/modules/Storage.sol:Storage",
						"label": "defaultRefId",
						"offset": 0,
						"slot": "5",
						"type": "t_uint256"
					},
					{
						"astId": 2240,
						"contract": "contracts/modules/Storage.sol:Storage",
						"label": "totalUsers",
						"offset": 0,
						"slot": "6",
						"type": "t_uint256"
					},
					{
						"astId": 2279,
						"contract": "contracts/modules/Storage.sol:Storage",
						"label": "registeredUserIds",
						"offset": 0,
						"slot": "7",
						"type": "t_array(t_uint256)dyn_storage"
					},
					{
						"astId": 2281,
						"contract": "contracts/modules/Storage.sol:Storage",
						"label": "nonce",
						"offset": 0,
						"slot": "8",
						"type": "t_uint256"
					},
					{
						"astId": 2286,
						"contract": "contracts/modules/Storage.sol:Storage",
						"label": "communityAccPerUser",
						"offset": 0,
						"slot": "9",
						"type": "t_uint256"
					},
					{
						"astId": 2290,
						"contract": "contracts/modules/Storage.sol:Storage",
						"label": "communityAccPerPackage",
						"offset": 0,
						"slot": "10",
						"type": "t_mapping(t_uint256,t_uint256)"
					},
					{
						"astId": 2296,
						"contract": "contracts/modules/Storage.sol:Storage",
						"label": "communityDebt",
						"offset": 0,
						"slot": "11",
						"type": "t_mapping(t_uint256,t_mapping(t_uint256,t_uint256))"
					},
					{
						"astId": 2300,
						"contract": "contracts/modules/Storage.sol:Storage",
						"label": "packageQualifiedUsers",
						"offset": 0,
						"slot": "12",
						"type": "t_mapping(t_uint256,t_uint256)"
					},
					{
						"astId": 2349,
						"contract": "contracts/modules/Storage.sol:Storage",
						"label": "packages",
						"offset": 0,
						"slot": "13",
						"type": "t_array(t_uint256)dyn_storage"
					},
					{
						"astId": 2466,
						"contract": "contracts/modules/Storage.sol:Storage",
						"label": "userPackage",
						"offset": 0,
						"slot": "14",
						"type": "t_mapping(t_uint256,t_mapping(t_uint256,t_struct(UserPackage)2437_storage))"
					},
					{
						"astId": 2470,
						"contract": "contracts/modules/Storage.sol:Storage",
						"label": "addressToId",
						"offset": 0,
						"slot": "15",
						"type": "t_mapping(t_address,t_uint256)"
					},
					{
						"astId": 2475,
						"contract": "contracts/modules/Storage.sol:Storage",
						"label": "users",
						"offset": 0,
						"slot": "16",
						"type": "t_mapping(t_uint256,t_struct(User)2405_storage)"
					},
					{
						"astId": 2480,
						"contract": "contracts/modules/Storage.sol:Storage",
						"label": "userIncomes",
						"offset": 0,
						"slot": "17",
						"type": "t_mapping(t_uint256,t_struct(UserIncome)2430_storage)"
					},
					{
						"astId": 2486,
						"contract": "contracts/modules/Storage.sol:Storage",
						"label": "incomeHistory",
						"offset": 0,
						"slot": "18",
						"type": "t_mapping(t_uint256,t_array(t_struct(Income)2448_storage)dyn_storage)"
					},
					{
						"astId": 2493,
						"contract": "contracts/modules/Storage.sol:Storage",
						"label": "teams",
						"offset": 0,
						"slot": "19",
						"type": "t_mapping(t_uint256,t_mapping(t_uint256,t_array(t_uint256)dyn_storage))"
					},
					{
						"astId": 2497,
						"contract": "contracts/modules/Storage.sol:Storage",
						"label": "matrixDirect",
						"offset": 0,
						"slot": "20",
						"type": "t_mapping(t_uint256,t_uint256)"
					},
					{
						"astId": 2502,
						"contract": "contracts/modules/Storage.sol:Storage",
						"label": "directReferrals",
						"offset": 0,
						"slot": "21",
						"type": "t_mapping(t_uint256,t_array(t_uint256)dyn_storage)"
					},
					{
						"astId": 2606,
						"contract": "contracts/modules/Storage.sol:Storage",
						"label": "poolPackages",
						"offset": 0,
						"slot": "22",
						"type": "t_array(t_uint256)dyn_storage"
					},
					{
						"astId": 2618,
						"contract": "contracts/modules/Storage.sol:Storage",
						"label": "glbBoosterPackages",
						"offset": 0,
						"slot": "23",
						"type": "t_array(t_uint256)dyn_storage"
					},
					{
						"astId": 2630,
						"contract": "contracts/modules/Storage.sol:Storage",
						"label": "minLevelForPool",
						"offset": 0,
						"slot": "24",
						"type": "t_array(t_uint256)7_storage"
					},
					{
						"astId": 2643,
						"contract": "contracts/modules/Storage.sol:Storage",
						"label": "minLevelForGlbBooster",
						"offset": 0,
						"slot": "31",
						"type": "t_array(t_uint256)8_storage"
					},
					{
						"astId": 2656,
						"contract": "contracts/modules/Storage.sol:Storage",
						"label": "minPoolForGlbBooster",
						"offset": 0,
						"slot": "39",
						"type": "t_array(t_uint256)8_storage"
					},
					{
						"astId": 2690,
						"contract": "contracts/modules/Storage.sol:Storage",
						"label": "userPooltopup",
						"offset": 0,
						"slot": "47",
						"type": "t_mapping(t_uint256,t_mapping(t_uint256,t_struct(UserPoolTopup)2672_storage))"
					},
					{
						"astId": 2697,
						"contract": "contracts/modules/Storage.sol:Storage",
						"label": "userPooldtl",
						"offset": 0,
						"slot": "48",
						"type": "t_mapping(t_uint256,t_mapping(t_uint256,t_struct(UserPool)2667_storage))"
					},
					{
						"astId": 2704,
						"contract": "contracts/modules/Storage.sol:Storage",
						"label": "userChildren",
						"offset": 0,
						"slot": "49",
						"type": "t_mapping(t_uint256,t_mapping(t_uint256,t_array(t_uint256)dyn_storage))"
					},
					{
						"astId": 2711,
						"contract": "contracts/modules/Storage.sol:Storage",
						"label": "userIdPerPool",
						"offset": 0,
						"slot": "50",
						"type": "t_mapping(t_uint256,t_mapping(t_uint256,t_array(t_uint256)dyn_storage))"
					},
					{
						"astId": 2716,
						"contract": "contracts/modules/Storage.sol:Storage",
						"label": "poolUsers",
						"offset": 0,
						"slot": "51",
						"type": "t_mapping(t_uint256,t_array(t_uint256)dyn_storage)"
					},
					{
						"astId": 2722,
						"contract": "contracts/modules/Storage.sol:Storage",
						"label": "userHasPool",
						"offset": 0,
						"slot": "52",
						"type": "t_mapping(t_uint256,t_mapping(t_uint256,t_bool))"
					},
					{
						"astId": 2729,
						"contract": "contracts/modules/Storage.sol:Storage",
						"label": "userBoosterdtl",
						"offset": 0,
						"slot": "53",
						"type": "t_mapping(t_uint256,t_mapping(t_uint256,t_struct(UserBooster)2683_storage))"
					},
					{
						"astId": 2736,
						"contract": "contracts/modules/Storage.sol:Storage",
						"label": "userBoosterChildren",
						"offset": 0,
						"slot": "54",
						"type": "t_mapping(t_uint256,t_mapping(t_uint256,t_array(t_uint256)dyn_storage))"
					},
					{
						"astId": 2741,
						"contract": "contracts/modules/Storage.sol:Storage",
						"label": "boosterUsers",
						"offset": 0,
						"slot": "55",
						"type": "t_mapping(t_uint256,t_array(t_uint256)dyn_storage)"
					},
					{
						"astId": 2747,
						"contract": "contracts/modules/Storage.sol:Storage",
						"label": "userHasbooster",
						"offset": 0,
						"slot": "56",
						"type": "t_mapping(t_uint256,t_mapping(t_uint256,t_bool))"
					},
					{
						"astId": 2756,
						"contract": "contracts/modules/Storage.sol:Storage",
						"label": "currentWeeklyRound",
						"offset": 0,
						"slot": "57",
						"type": "t_uint256"
					},
					{
						"astId": 2759,
						"contract": "contracts/modules/Storage.sol:Storage",
						"label": "currentWeeklyStartTime",
						"offset": 0,
						"slot": "58",
						"type": "t_uint256"
					},
					{
						"astId": 2762,
						"contract": "contracts/modules/Storage.sol:Storage",
						"label": "WeeklyTotalReward",
						"offset": 0,
						"slot": "59",
						"type": "t_uint256"
					},
					{
						"astId": 2797,
						"contract": "contracts/modules/Storage.sol:Storage",
						"label": "weeklyContestdtl",
						"offset": 0,
						"slot": "60",
						"type": "t_mapping(t_uint256,t_struct(WeeklyContest)2781_storage)"
					},
					{
						"astId": 2802,
						"contract": "contracts/modules/Storage.sol:Storage",
						"label": "weeklyQualifiedUsers",
						"offset": 0,
						"slot": "61",
						"type": "t_mapping(t_uint256,t_array(t_uint256)dyn_storage)"
					},
					{
						"astId": 2809,
						"contract": "contracts/modules/Storage.sol:Storage",
						"label": "weeklyUserdtl",
						"offset": 0,
						"slot": "62",
						"type": "t_mapping(t_uint256,t_mapping(t_uint256,t_struct(weeklyUser)2792_storage))"
					},
					{
						"astId": 2816,
						"contract": "contracts/modules/Storage.sol:Storage",
						"label": "weeklyUserDirects",
						"offset": 0,
						"slot": "63",
						"type": "t_mapping(t_uint256,t_mapping(t_uint256,t_array(t_uint256)dyn_storage))"
					},
					{
						"astId": 2859,
						"contract": "contracts/modules/Storage.sol:Storage",
						"label": "currentMonthlyRound",
						"offset": 0,
						"slot": "64",
						"type": "t_uint256"
					},
					{
						"astId": 2862,
						"contract": "contracts/modules/Storage.sol:Storage",
						"label": "currentMonthlyStartTime",
						"offset": 0,
						"slot": "65",
						"type": "t_uint256"
					},
					{
						"astId": 2865,
						"contract": "contracts/modules/Storage.sol:Storage",
						"label": "monthlyTotalReward",
						"offset": 0,
						"slot": "66",
						"type": "t_uint256"
					},
					{
						"astId": 2902,
						"contract": "contracts/modules/Storage.sol:Storage",
						"label": "monthlyRoyaltydtl",
						"offset": 0,
						"slot": "67",
						"type": "t_mapping(t_uint256,t_struct(monthlyRoyalty)2884_storage)"
					},
					{
						"astId": 2905,
						"contract": "contracts/modules/Storage.sol:Storage",
						"label": "monthlyQualifiedUsers",
						"offset": 0,
						"slot": "68",
						"type": "t_array(t_uint256)dyn_storage"
					},
					{
						"astId": 2910,
						"contract": "contracts/modules/Storage.sol:Storage",
						"label": "monthlyRoyaltyUserdtl",
						"offset": 0,
						"slot": "69",
						"type": "t_mapping(t_uint256,t_struct(monthlyRoyaltyUser)2897_storage)"
					},
					{
						"astId": 2915,
						"contract": "contracts/modules/Storage.sol:Storage",
						"label": "monthlyUserDirects",
						"offset": 0,
						"slot": "70",
						"type": "t_mapping(t_uint256,t_array(t_uint256)dyn_storage)"
					},
					{
						"astId": 2952,
						"contract": "contracts/modules/Storage.sol:Storage",
						"label": "topRoyaltyRound",
						"offset": 0,
						"slot": "71",
						"type": "t_uint256"
					},
					{
						"astId": 2955,
						"contract": "contracts/modules/Storage.sol:Storage",
						"label": "topRoyaltyStartTime",
						"offset": 0,
						"slot": "72",
						"type": "t_uint256"
					},
					{
						"astId": 2958,
						"contract": "contracts/modules/Storage.sol:Storage",
						"label": "topRoyaltyReward",
						"offset": 0,
						"slot": "73",
						"type": "t_uint256"
					},
					{
						"astId": 2995,
						"contract": "contracts/modules/Storage.sol:Storage",
						"label": "topRoyaltydtl",
						"offset": 0,
						"slot": "74",
						"type": "t_mapping(t_uint256,t_struct(topRoyalty)2977_storage)"
					},
					{
						"astId": 2998,
						"contract": "contracts/modules/Storage.sol:Storage",
						"label": "topRoyaltyQualifiedUsers",
						"offset": 0,
						"slot": "75",
						"type": "t_array(t_uint256)dyn_storage"
					},
					{
						"astId": 3003,
						"contract": "contracts/modules/Storage.sol:Storage",
						"label": "topRoyaltyUserdtl",
						"offset": 0,
						"slot": "76",
						"type": "t_mapping(t_uint256,t_struct(topRoyaltyUser)2990_storage)"
					},
					{
						"astId": 3008,
						"contract": "contracts/modules/Storage.sol:Storage",
						"label": "topRoyaltyUserDirects",
						"offset": 0,
						"slot": "77",
						"type": "t_mapping(t_uint256,t_array(t_uint256)dyn_storage)"
					}
				],
				"types": {
					"t_address": {
						"encoding": "inplace",
						"label": "address",
						"numberOfBytes": "20"
					},
					"t_array(t_struct(Deposit)2358_storage)dyn_storage": {
						"base": "t_struct(Deposit)2358_storage",
						"encoding": "dynamic_array",
						"label": "struct Storage.Deposit[]",
						"numberOfBytes": "32"
					},
					"t_array(t_struct(Income)2448_storage)dyn_storage": {
						"base": "t_struct(Income)2448_storage",
						"encoding": "dynamic_array",
						"label": "struct Storage.Income[]",
						"numberOfBytes": "32"
					},
					"t_array(t_uint256)7_storage": {
						"base": "t_uint256",
						"encoding": "inplace",
						"label": "uint256[7]",
						"numberOfBytes": "224"
					},
					"t_array(t_uint256)8_storage": {
						"base": "t_uint256",
						"encoding": "inplace",
						"label": "uint256[8]",
						"numberOfBytes": "256"
					},
					"t_array(t_uint256)dyn_storage": {
						"base": "t_uint256",
						"encoding": "dynamic_array",
						"label": "uint256[]",
						"numberOfBytes": "32"
					},
					"t_bool": {
						"encoding": "inplace",
						"label": "bool",
						"numberOfBytes": "1"
					},
					"t_contract(IERC20)232": {
						"encoding": "inplace",
						"label": "contract IERC20",
						"numberOfBytes": "20"
					},
					"t_mapping(t_address,t_uint256)": {
						"encoding": "mapping",
						"key": "t_address",
						"label": "mapping(address => uint256)",
						"numberOfBytes": "32",
						"value": "t_uint256"
					},
					"t_mapping(t_uint256,t_array(t_struct(Income)2448_storage)dyn_storage)": {
						"encoding": "mapping",
						"key": "t_uint256",
						"label": "mapping(uint256 => struct Storage.Income[])",
						"numberOfBytes": "32",
						"value": "t_array(t_struct(Income)2448_storage)dyn_storage"
					},
					"t_mapping(t_uint256,t_array(t_uint256)dyn_storage)": {
						"encoding": "mapping",
						"key": "t_uint256",
						"label": "mapping(uint256 => uint256[])",
						"numberOfBytes": "32",
						"value": "t_array(t_uint256)dyn_storage"
					},
					"t_mapping(t_uint256,t_bool)": {
						"encoding": "mapping",
						"key": "t_uint256",
						"label": "mapping(uint256 => bool)",
						"numberOfBytes": "32",
						"value": "t_bool"
					},
					"t_mapping(t_uint256,t_mapping(t_uint256,t_array(t_uint256)dyn_storage))": {
						"encoding": "mapping",
						"key": "t_uint256",
						"label": "mapping(uint256 => mapping(uint256 => uint256[]))",
						"numberOfBytes": "32",
						"value": "t_mapping(t_uint256,t_array(t_uint256)dyn_storage)"
					},
					"t_mapping(t_uint256,t_mapping(t_uint256,t_bool))": {
						"encoding": "mapping",
						"key": "t_uint256",
						"label": "mapping(uint256 => mapping(uint256 => bool))",
						"numberOfBytes": "32",
						"value": "t_mapping(t_uint256,t_bool)"
					},
					"t_mapping(t_uint256,t_mapping(t_uint256,t_struct(UserBooster)2683_storage))": {
						"encoding": "mapping",
						"key": "t_uint256",
						"label": "mapping(uint256 => mapping(uint256 => struct Storage.UserBooster))",
						"numberOfBytes": "32",
						"value": "t_mapping(t_uint256,t_struct(UserBooster)2683_storage)"
					},
					"t_mapping(t_uint256,t_mapping(t_uint256,t_struct(UserPackage)2437_storage))": {
						"encoding": "mapping",
						"key": "t_uint256",
						"label": "mapping(uint256 => mapping(uint256 => struct Storage.UserPackage))",
						"numberOfBytes": "32",
						"value": "t_mapping(t_uint256,t_struct(UserPackage)2437_storage)"
					},
					"t_mapping(t_uint256,t_mapping(t_uint256,t_struct(UserPool)2667_storage))": {
						"encoding": "mapping",
						"key": "t_uint256",
						"label": "mapping(uint256 => mapping(uint256 => struct Storage.UserPool))",
						"numberOfBytes": "32",
						"value": "t_mapping(t_uint256,t_struct(UserPool)2667_storage)"
					},
					"t_mapping(t_uint256,t_mapping(t_uint256,t_struct(UserPoolTopup)2672_storage))": {
						"encoding": "mapping",
						"key": "t_uint256",
						"label": "mapping(uint256 => mapping(uint256 => struct Storage.UserPoolTopup))",
						"numberOfBytes": "32",
						"value": "t_mapping(t_uint256,t_struct(UserPoolTopup)2672_storage)"
					},
					"t_mapping(t_uint256,t_mapping(t_uint256,t_struct(weeklyUser)2792_storage))": {
						"encoding": "mapping",
						"key": "t_uint256",
						"label": "mapping(uint256 => mapping(uint256 => struct Storage.weeklyUser))",
						"numberOfBytes": "32",
						"value": "t_mapping(t_uint256,t_struct(weeklyUser)2792_storage)"
					},
					"t_mapping(t_uint256,t_mapping(t_uint256,t_uint256))": {
						"encoding": "mapping",
						"key": "t_uint256",
						"label": "mapping(uint256 => mapping(uint256 => uint256))",
						"numberOfBytes": "32",
						"value": "t_mapping(t_uint256,t_uint256)"
					},
					"t_mapping(t_uint256,t_struct(User)2405_storage)": {
						"encoding": "mapping",
						"key": "t_uint256",
						"label": "mapping(uint256 => struct Storage.User)",
						"numberOfBytes": "32",
						"value": "t_struct(User)2405_storage"
					},
					"t_mapping(t_uint256,t_struct(UserBooster)2683_storage)": {
						"encoding": "mapping",
						"key": "t_uint256",
						"label": "mapping(uint256 => struct Storage.UserBooster)",
						"numberOfBytes": "32",
						"value": "t_struct(UserBooster)2683_storage"
					},
					"t_mapping(t_uint256,t_struct(UserIncome)2430_storage)": {
						"encoding": "mapping",
						"key": "t_uint256",
						"label": "mapping(uint256 => struct Storage.UserIncome)",
						"numberOfBytes": "32",
						"value": "t_struct(UserIncome)2430_storage"
					},
					"t_mapping(t_uint256,t_struct(UserPackage)2437_storage)": {
						"encoding": "mapping",
						"key": "t_uint256",
						"label": "mapping(uint256 => struct Storage.UserPackage)",
						"numberOfBytes": "32",
						"value": "t_struct(UserPackage)2437_storage"
					},
					"t_mapping(t_uint256,t_struct(UserPool)2667_storage)": {
						"encoding": "mapping",
						"key": "t_uint256",
						"label": "mapping(uint256 => struct Storage.UserPool)",
						"numberOfBytes": "32",
						"value": "t_struct(UserPool)2667_storage"
					},
					"t_mapping(t_uint256,t_struct(UserPoolTopup)2672_storage)": {
						"encoding": "mapping",
						"key": "t_uint256",
						"label": "mapping(uint256 => struct Storage.UserPoolTopup)",
						"numberOfBytes": "32",
						"value": "t_struct(UserPoolTopup)2672_storage"
					},
					"t_mapping(t_uint256,t_struct(WeeklyContest)2781_storage)": {
						"encoding": "mapping",
						"key": "t_uint256",
						"label": "mapping(uint256 => struct Storage.WeeklyContest)",
						"numberOfBytes": "32",
						"value": "t_struct(WeeklyContest)2781_storage"
					},
					"t_mapping(t_uint256,t_struct(monthlyRoyalty)2884_storage)": {
						"encoding": "mapping",
						"key": "t_uint256",
						"label": "mapping(uint256 => struct Storage.monthlyRoyalty)",
						"numberOfBytes": "32",
						"value": "t_struct(monthlyRoyalty)2884_storage"
					},
					"t_mapping(t_uint256,t_struct(monthlyRoyaltyUser)2897_storage)": {
						"encoding": "mapping",
						"key": "t_uint256",
						"label": "mapping(uint256 => struct Storage.monthlyRoyaltyUser)",
						"numberOfBytes": "32",
						"value": "t_struct(monthlyRoyaltyUser)2897_storage"
					},
					"t_mapping(t_uint256,t_struct(topRoyalty)2977_storage)": {
						"encoding": "mapping",
						"key": "t_uint256",
						"label": "mapping(uint256 => struct Storage.topRoyalty)",
						"numberOfBytes": "32",
						"value": "t_struct(topRoyalty)2977_storage"
					},
					"t_mapping(t_uint256,t_struct(topRoyaltyUser)2990_storage)": {
						"encoding": "mapping",
						"key": "t_uint256",
						"label": "mapping(uint256 => struct Storage.topRoyaltyUser)",
						"numberOfBytes": "32",
						"value": "t_struct(topRoyaltyUser)2990_storage"
					},
					"t_mapping(t_uint256,t_struct(weeklyUser)2792_storage)": {
						"encoding": "mapping",
						"key": "t_uint256",
						"label": "mapping(uint256 => struct Storage.weeklyUser)",
						"numberOfBytes": "32",
						"value": "t_struct(weeklyUser)2792_storage"
					},
					"t_mapping(t_uint256,t_uint256)": {
						"encoding": "mapping",
						"key": "t_uint256",
						"label": "mapping(uint256 => uint256)",
						"numberOfBytes": "32",
						"value": "t_uint256"
					},
					"t_struct(Deposit)2358_storage": {
						"encoding": "inplace",
						"label": "struct Storage.Deposit",
						"members": [
							{
								"astId": 2351,
								"contract": "contracts/modules/Storage.sol:Storage",
								"label": "amount",
								"offset": 0,
								"slot": "0",
								"type": "t_uint256"
							},
							{
								"astId": 2353,
								"contract": "contracts/modules/Storage.sol:Storage",
								"label": "withdrawn",
								"offset": 0,
								"slot": "1",
								"type": "t_uint256"
							},
							{
								"astId": 2355,
								"contract": "contracts/modules/Storage.sol:Storage",
								"label": "start",
								"offset": 0,
								"slot": "2",
								"type": "t_uint256"
							},
							{
								"astId": 2357,
								"contract": "contracts/modules/Storage.sol:Storage",
								"label": "depositType",
								"offset": 0,
								"slot": "3",
								"type": "t_uint8"
							}
						],
						"numberOfBytes": "128"
					},
					"t_struct(Income)2448_storage": {
						"encoding": "inplace",
						"label": "struct Storage.Income",
						"members": [
							{
								"astId": 2439,
								"contract": "contracts/modules/Storage.sol:Storage",
								"label": "fromUserId",
								"offset": 0,
								"slot": "0",
								"type": "t_uint256"
							},
							{
								"astId": 2441,
								"contract": "contracts/modules/Storage.sol:Storage",
								"label": "amount",
								"offset": 0,
								"slot": "1",
								"type": "t_uint256"
							},
							{
								"astId": 2443,
								"contract": "contracts/modules/Storage.sol:Storage",
								"label": "packageLevel",
								"offset": 0,
								"slot": "2",
								"type": "t_uint256"
							},
							{
								"astId": 2445,
								"contract": "contracts/modules/Storage.sol:Storage",
								"label": "timestamp",
								"offset": 0,
								"slot": "3",
								"type": "t_uint256"
							},
							{
								"astId": 2447,
								"contract": "contracts/modules/Storage.sol:Storage",
								"label": "incomeType",
								"offset": 0,
								"slot": "4",
								"type": "t_uint256"
							}
						],
						"numberOfBytes": "160"
					},
					"t_struct(User)2405_storage": {
						"encoding": "inplace",
						"label": "struct Storage.User",
						"members": [
							{
								"astId": 2360,
								"contract": "contracts/modules/Storage.sol:Storage",
								"label": "account",
								"offset": 0,
								"slot": "0",
								"type": "t_address"
							},
							{
								"astId": 2364,
								"contract": "contracts/modules/Storage.sol:Storage",
								"label": "deposits",
								"offset": 0,
								"slot": "1",
								"type": "t_array(t_struct(Deposit)2358_storage)dyn_storage"
							},
							{
								"astId": 2366,
								"contract": "contracts/modules/Storage.sol:Storage",
								"label": "checkpoint",
								"offset": 0,
								"slot": "2",
								"type": "t_uint256"
							},
							{
								"astId": 2368,
								"contract": "contracts/modules/Storage.sol:Storage",
								"label": "id",
								"offset": 0,
								"slot": "3",
								"type": "t_uint256"
							},
							{
								"astId": 2370,
								"contract": "contracts/modules/Storage.sol:Storage",
								"label": "sponsorId",
								"offset": 0,
								"slot": "4",
								"type": "t_uint256"
							},
							{
								"astId": 2372,
								"contract": "contracts/modules/Storage.sol:Storage",
								"label": "uplineId",
								"offset": 0,
								"slot": "5",
								"type": "t_uint256"
							},
							{
								"astId": 2374,
								"contract": "contracts/modules/Storage.sol:Storage",
								"label": "level",
								"offset": 0,
								"slot": "6",
								"type": "t_uint256"
							},
							{
								"astId": 2376,
								"contract": "contracts/modules/Storage.sol:Storage",
								"label": "directTeam",
								"offset": 0,
								"slot": "7",
								"type": "t_uint256"
							},
							{
								"astId": 2378,
								"contract": "contracts/modules/Storage.sol:Storage",
								"label": "directPoolQualified",
								"offset": 0,
								"slot": "8",
								"type": "t_uint256"
							},
							{
								"astId": 2380,
								"contract": "contracts/modules/Storage.sol:Storage",
								"label": "totalMatrixTeam",
								"offset": 0,
								"slot": "9",
								"type": "t_uint256"
							},
							{
								"astId": 2382,
								"contract": "contracts/modules/Storage.sol:Storage",
								"label": "totalDeposit",
								"offset": 0,
								"slot": "10",
								"type": "t_uint256"
							},
							{
								"astId": 2384,
								"contract": "contracts/modules/Storage.sol:Storage",
								"label": "roiCap",
								"offset": 0,
								"slot": "11",
								"type": "t_uint256"
							},
							{
								"astId": 2386,
								"contract": "contracts/modules/Storage.sol:Storage",
								"label": "poollevel",
								"offset": 0,
								"slot": "12",
								"type": "t_uint256"
							},
							{
								"astId": 2388,
								"contract": "contracts/modules/Storage.sol:Storage",
								"label": "poolDeposit",
								"offset": 0,
								"slot": "13",
								"type": "t_uint256"
							},
							{
								"astId": 2390,
								"contract": "contracts/modules/Storage.sol:Storage",
								"label": "poolStartTime",
								"offset": 0,
								"slot": "14",
								"type": "t_uint256"
							},
							{
								"astId": 2392,
								"contract": "contracts/modules/Storage.sol:Storage",
								"label": "boosterlevel",
								"offset": 0,
								"slot": "15",
								"type": "t_uint256"
							},
							{
								"astId": 2394,
								"contract": "contracts/modules/Storage.sol:Storage",
								"label": "boosterDeposit",
								"offset": 0,
								"slot": "16",
								"type": "t_uint256"
							},
							{
								"astId": 2396,
								"contract": "contracts/modules/Storage.sol:Storage",
								"label": "registrationTime",
								"offset": 0,
								"slot": "17",
								"type": "t_uint256"
							},
							{
								"astId": 2398,
								"contract": "contracts/modules/Storage.sol:Storage",
								"label": "level10Time",
								"offset": 0,
								"slot": "18",
								"type": "t_uint256"
							},
							{
								"astId": 2400,
								"contract": "contracts/modules/Storage.sol:Storage",
								"label": "level15Time",
								"offset": 0,
								"slot": "19",
								"type": "t_uint256"
							},
							{
								"astId": 2402,
								"contract": "contracts/modules/Storage.sol:Storage",
								"label": "monthlyUserDirectCount",
								"offset": 0,
								"slot": "20",
								"type": "t_uint256"
							},
							{
								"astId": 2404,
								"contract": "contracts/modules/Storage.sol:Storage",
								"label": "topRoyaltyDirectCount",
								"offset": 0,
								"slot": "21",
								"type": "t_uint256"
							}
						],
						"numberOfBytes": "704"
					},
					"t_struct(UserBooster)2683_storage": {
						"encoding": "inplace",
						"label": "struct Storage.UserBooster",
						"members": [
							{
								"astId": 2674,
								"contract": "contracts/modules/Storage.sol:Storage",
								"label": "id",
								"offset": 0,
								"slot": "0",
								"type": "t_uint256"
							},
							{
								"astId": 2676,
								"contract": "contracts/modules/Storage.sol:Storage",
								"label": "poolId",
								"offset": 0,
								"slot": "1",
								"type": "t_uint256"
							},
							{
								"astId": 2678,
								"contract": "contracts/modules/Storage.sol:Storage",
								"label": "parentId",
								"offset": 0,
								"slot": "2",
								"type": "t_uint256"
							},
							{
								"astId": 2680,
								"contract": "contracts/modules/Storage.sol:Storage",
								"label": "bonusCount",
								"offset": 0,
								"slot": "3",
								"type": "t_uint256"
							},
							{
								"astId": 2682,
								"contract": "contracts/modules/Storage.sol:Storage",
								"label": "joinTime",
								"offset": 0,
								"slot": "4",
								"type": "t_uint256"
							}
						],
						"numberOfBytes": "160"
					},
					"t_struct(UserIncome)2430_storage": {
						"encoding": "inplace",
						"label": "struct Storage.UserIncome",
						"members": [
							{
								"astId": 2407,
								"contract": "contracts/modules/Storage.sol:Storage",
								"label": "totalIncome",
								"offset": 0,
								"slot": "0",
								"type": "t_uint256"
							},
							{
								"astId": 2409,
								"contract": "contracts/modules/Storage.sol:Storage",
								"label": "sponsorIncome",
								"offset": 0,
								"slot": "1",
								"type": "t_uint256"
							},
							{
								"astId": 2411,
								"contract": "contracts/modules/Storage.sol:Storage",
								"label": "matrixIncome",
								"offset": 0,
								"slot": "2",
								"type": "t_uint256"
							},
							{
								"astId": 2413,
								"contract": "contracts/modules/Storage.sol:Storage",
								"label": "levelBoosterIncome",
								"offset": 0,
								"slot": "3",
								"type": "t_uint256"
							},
							{
								"astId": 2415,
								"contract": "contracts/modules/Storage.sol:Storage",
								"label": "royaltyIncome",
								"offset": 0,
								"slot": "4",
								"type": "t_uint256"
							},
							{
								"astId": 2417,
								"contract": "contracts/modules/Storage.sol:Storage",
								"label": "royaltyIncomeClaimed",
								"offset": 0,
								"slot": "5",
								"type": "t_uint256"
							},
							{
								"astId": 2419,
								"contract": "contracts/modules/Storage.sol:Storage",
								"label": "communityIncome",
								"offset": 0,
								"slot": "6",
								"type": "t_uint256"
							},
							{
								"astId": 2421,
								"contract": "contracts/modules/Storage.sol:Storage",
								"label": "poolIncome",
								"offset": 0,
								"slot": "7",
								"type": "t_uint256"
							},
							{
								"astId": 2423,
								"contract": "contracts/modules/Storage.sol:Storage",
								"label": "boosterIncome",
								"offset": 0,
								"slot": "8",
								"type": "t_uint256"
							},
							{
								"astId": 2425,
								"contract": "contracts/modules/Storage.sol:Storage",
								"label": "weeklyContestIncome",
								"offset": 0,
								"slot": "9",
								"type": "t_uint256"
							},
							{
								"astId": 2427,
								"contract": "contracts/modules/Storage.sol:Storage",
								"label": "monthlyRoyalty",
								"offset": 0,
								"slot": "10",
								"type": "t_uint256"
							},
							{
								"astId": 2429,
								"contract": "contracts/modules/Storage.sol:Storage",
								"label": "topRoyalty",
								"offset": 0,
								"slot": "11",
								"type": "t_uint256"
							}
						],
						"numberOfBytes": "384"
					},
					"t_struct(UserPackage)2437_storage": {
						"encoding": "inplace",
						"label": "struct Storage.UserPackage",
						"members": [
							{
								"astId": 2432,
								"contract": "contracts/modules/Storage.sol:Storage",
								"label": "roiCap",
								"offset": 0,
								"slot": "0",
								"type": "t_uint256"
							},
							{
								"astId": 2434,
								"contract": "contracts/modules/Storage.sol:Storage",
								"label": "closingAmount",
								"offset": 0,
								"slot": "1",
								"type": "t_uint256"
							},
							{
								"astId": 2436,
								"contract": "contracts/modules/Storage.sol:Storage",
								"label": "closed",
								"offset": 0,
								"slot": "2",
								"type": "t_bool"
							}
						],
						"numberOfBytes": "96"
					},
					"t_struct(UserPool)2667_storage": {
						"encoding": "inplace",
						"label": "struct Storage.UserPool",
						"members": [
							{
								"astId": 2658,
								"contract": "contracts/modules/Storage.sol:Storage",
								"label": "id",
								"offset": 0,
								"slot": "0",
								"type": "t_uint256"
							},
							{
								"astId": 2660,
								"contract": "contracts/modules/Storage.sol:Storage",
								"label": "mainid",
								"offset": 0,
								"slot": "1",
								"type": "t_uint256"
							},
							{
								"astId": 2662,
								"contract": "contracts/modules/Storage.sol:Storage",
								"label": "poolId",
								"offset": 0,
								"slot": "2",
								"type": "t_uint256"
							},
							{
								"astId": 2664,
								"contract": "contracts/modules/Storage.sol:Storage",
								"label": "parentId",
								"offset": 0,
								"slot": "3",
								"type": "t_uint256"
							},
							{
								"astId": 2666,
								"contract": "contracts/modules/Storage.sol:Storage",
								"label": "bonusCount",
								"offset": 0,
								"slot": "4",
								"type": "t_uint256"
							}
						],
						"numberOfBytes": "160"
					},
					"t_struct(UserPoolTopup)2672_storage": {
						"encoding": "inplace",
						"label": "struct Storage.UserPoolTopup",
						"members": [
							{
								"astId": 2669,
								"contract": "contracts/modules/Storage.sol:Storage",
								"label": "nextPoolAmt",
								"offset": 0,
								"slot": "0",
								"type": "t_uint256"
							},
							{
								"astId": 2671,
								"contract": "contracts/modules/Storage.sol:Storage",
								"label": "reTopupAmt",
								"offset": 0,
								"slot": "1",
								"type": "t_uint256"
							}
						],
						"numberOfBytes": "64"
					},
					"t_struct(WeeklyContest)2781_storage": {
						"encoding": "inplace",
						"label": "struct Storage.WeeklyContest",
						"members": [
							{
								"astId": 2764,
								"contract": "contracts/modules/Storage.sol:Storage",
								"label": "roundId",
								"offset": 0,
								"slot": "0",
								"type": "t_uint256"
							},
							{
								"astId": 2766,
								"contract": "contracts/modules/Storage.sol:Storage",
								"label": "totalReward",
								"offset": 0,
								"slot": "1",
								"type": "t_uint256"
							},
							{
								"astId": 2768,
								"contract": "contracts/modules/Storage.sol:Storage",
								"label": "totalUsers",
								"offset": 0,
								"slot": "2",
								"type": "t_uint256"
							},
							{
								"astId": 2770,
								"contract": "contracts/modules/Storage.sol:Storage",
								"label": "perUserReward",
								"offset": 0,
								"slot": "3",
								"type": "t_uint256"
							},
							{
								"astId": 2772,
								"contract": "contracts/modules/Storage.sol:Storage",
								"label": "claimedCount",
								"offset": 0,
								"slot": "4",
								"type": "t_uint256"
							},
							{
								"astId": 2774,
								"contract": "contracts/modules/Storage.sol:Storage",
								"label": "startTime",
								"offset": 0,
								"slot": "5",
								"type": "t_uint256"
							},
							{
								"astId": 2776,
								"contract": "contracts/modules/Storage.sol:Storage",
								"label": "endTime",
								"offset": 0,
								"slot": "6",
								"type": "t_uint256"
							},
							{
								"astId": 2778,
								"contract": "contracts/modules/Storage.sol:Storage",
								"label": "carryForward",
								"offset": 0,
								"slot": "7",
								"type": "t_uint256"
							},
							{
								"astId": 2780,
								"contract": "contracts/modules/Storage.sol:Storage",
								"label": "closed",
								"offset": 0,
								"slot": "8",
								"type": "t_bool"
							}
						],
						"numberOfBytes": "288"
					},
					"t_struct(monthlyRoyalty)2884_storage": {
						"encoding": "inplace",
						"label": "struct Storage.monthlyRoyalty",
						"members": [
							{
								"astId": 2867,
								"contract": "contracts/modules/Storage.sol:Storage",
								"label": "roundId",
								"offset": 0,
								"slot": "0",
								"type": "t_uint256"
							},
							{
								"astId": 2869,
								"contract": "contracts/modules/Storage.sol:Storage",
								"label": "totalReward",
								"offset": 0,
								"slot": "1",
								"type": "t_uint256"
							},
							{
								"astId": 2871,
								"contract": "contracts/modules/Storage.sol:Storage",
								"label": "totalUsers",
								"offset": 0,
								"slot": "2",
								"type": "t_uint256"
							},
							{
								"astId": 2873,
								"contract": "contracts/modules/Storage.sol:Storage",
								"label": "perUserReward",
								"offset": 0,
								"slot": "3",
								"type": "t_uint256"
							},
							{
								"astId": 2875,
								"contract": "contracts/modules/Storage.sol:Storage",
								"label": "claimedCount",
								"offset": 0,
								"slot": "4",
								"type": "t_uint256"
							},
							{
								"astId": 2877,
								"contract": "contracts/modules/Storage.sol:Storage",
								"label": "startTime",
								"offset": 0,
								"slot": "5",
								"type": "t_uint256"
							},
							{
								"astId": 2879,
								"contract": "contracts/modules/Storage.sol:Storage",
								"label": "endTime",
								"offset": 0,
								"slot": "6",
								"type": "t_uint256"
							},
							{
								"astId": 2881,
								"contract": "contracts/modules/Storage.sol:Storage",
								"label": "carryForward",
								"offset": 0,
								"slot": "7",
								"type": "t_uint256"
							},
							{
								"astId": 2883,
								"contract": "contracts/modules/Storage.sol:Storage",
								"label": "closed",
								"offset": 0,
								"slot": "8",
								"type": "t_bool"
							}
						],
						"numberOfBytes": "288"
					},
					"t_struct(monthlyRoyaltyUser)2897_storage": {
						"encoding": "inplace",
						"label": "struct Storage.monthlyRoyaltyUser",
						"members": [
							{
								"astId": 2886,
								"contract": "contracts/modules/Storage.sol:Storage",
								"label": "joinTime",
								"offset": 0,
								"slot": "0",
								"type": "t_uint256"
							},
							{
								"astId": 2888,
								"contract": "contracts/modules/Storage.sol:Storage",
								"label": "qualifiedRoundId",
								"offset": 0,
								"slot": "1",
								"type": "t_uint256"
							},
							{
								"astId": 2890,
								"contract": "contracts/modules/Storage.sol:Storage",
								"label": "claimTime",
								"offset": 0,
								"slot": "2",
								"type": "t_uint256"
							},
							{
								"astId": 2894,
								"contract": "contracts/modules/Storage.sol:Storage",
								"label": "isClaimed",
								"offset": 0,
								"slot": "3",
								"type": "t_mapping(t_uint256,t_bool)"
							},
							{
								"astId": 2896,
								"contract": "contracts/modules/Storage.sol:Storage",
								"label": "isQualified",
								"offset": 0,
								"slot": "4",
								"type": "t_bool"
							}
						],
						"numberOfBytes": "160"
					},
					"t_struct(topRoyalty)2977_storage": {
						"encoding": "inplace",
						"label": "struct Storage.topRoyalty",
						"members": [
							{
								"astId": 2960,
								"contract": "contracts/modules/Storage.sol:Storage",
								"label": "roundId",
								"offset": 0,
								"slot": "0",
								"type": "t_uint256"
							},
							{
								"astId": 2962,
								"contract": "contracts/modules/Storage.sol:Storage",
								"label": "totalReward",
								"offset": 0,
								"slot": "1",
								"type": "t_uint256"
							},
							{
								"astId": 2964,
								"contract": "contracts/modules/Storage.sol:Storage",
								"label": "totalUsers",
								"offset": 0,
								"slot": "2",
								"type": "t_uint256"
							},
							{
								"astId": 2966,
								"contract": "contracts/modules/Storage.sol:Storage",
								"label": "perUserReward",
								"offset": 0,
								"slot": "3",
								"type": "t_uint256"
							},
							{
								"astId": 2968,
								"contract": "contracts/modules/Storage.sol:Storage",
								"label": "claimedCount",
								"offset": 0,
								"slot": "4",
								"type": "t_uint256"
							},
							{
								"astId": 2970,
								"contract": "contracts/modules/Storage.sol:Storage",
								"label": "startTime",
								"offset": 0,
								"slot": "5",
								"type": "t_uint256"
							},
							{
								"astId": 2972,
								"contract": "contracts/modules/Storage.sol:Storage",
								"label": "endTime",
								"offset": 0,
								"slot": "6",
								"type": "t_uint256"
							},
							{
								"astId": 2974,
								"contract": "contracts/modules/Storage.sol:Storage",
								"label": "carryForward",
								"offset": 0,
								"slot": "7",
								"type": "t_uint256"
							},
							{
								"astId": 2976,
								"contract": "contracts/modules/Storage.sol:Storage",
								"label": "closed",
								"offset": 0,
								"slot": "8",
								"type": "t_bool"
							}
						],
						"numberOfBytes": "288"
					},
					"t_struct(topRoyaltyUser)2990_storage": {
						"encoding": "inplace",
						"label": "struct Storage.topRoyaltyUser",
						"members": [
							{
								"astId": 2979,
								"contract": "contracts/modules/Storage.sol:Storage",
								"label": "joinTime",
								"offset": 0,
								"slot": "0",
								"type": "t_uint256"
							},
							{
								"astId": 2981,
								"contract": "contracts/modules/Storage.sol:Storage",
								"label": "qualifiedRoundId",
								"offset": 0,
								"slot": "1",
								"type": "t_uint256"
							},
							{
								"astId": 2983,
								"contract": "contracts/modules/Storage.sol:Storage",
								"label": "claimTime",
								"offset": 0,
								"slot": "2",
								"type": "t_uint256"
							},
							{
								"astId": 2987,
								"contract": "contracts/modules/Storage.sol:Storage",
								"label": "isClaimed",
								"offset": 0,
								"slot": "3",
								"type": "t_mapping(t_uint256,t_bool)"
							},
							{
								"astId": 2989,
								"contract": "contracts/modules/Storage.sol:Storage",
								"label": "isQualified",
								"offset": 0,
								"slot": "4",
								"type": "t_bool"
							}
						],
						"numberOfBytes": "160"
					},
					"t_struct(weeklyUser)2792_storage": {
						"encoding": "inplace",
						"label": "struct Storage.weeklyUser",
						"members": [
							{
								"astId": 2783,
								"contract": "contracts/modules/Storage.sol:Storage",
								"label": "joinTime",
								"offset": 0,
								"slot": "0",
								"type": "t_uint256"
							},
							{
								"astId": 2785,
								"contract": "contracts/modules/Storage.sol:Storage",
								"label": "roundId",
								"offset": 0,
								"slot": "1",
								"type": "t_uint256"
							},
							{
								"astId": 2787,
								"contract": "contracts/modules/Storage.sol:Storage",
								"label": "claimTime",
								"offset": 0,
								"slot": "2",
								"type": "t_uint256"
							},
							{
								"astId": 2789,
								"contract": "contracts/modules/Storage.sol:Storage",
								"label": "isClaimed",
								"offset": 0,
								"slot": "3",
								"type": "t_bool"
							},
							{
								"astId": 2791,
								"contract": "contracts/modules/Storage.sol:Storage",
								"label": "isQualified",
								"offset": 1,
								"slot": "3",
								"type": "t_bool"
							}
						],
						"numberOfBytes": "128"
					},
					"t_uint256": {
						"encoding": "inplace",
						"label": "uint256",
						"numberOfBytes": "32"
					},
					"t_uint8": {
						"encoding": "inplace",
						"label": "uint8",
						"numberOfBytes": "1"
					}
				}
			},
			"userdoc": {
				"kind": "user",
				"methods": {},
				"version": 1
			}
		}
	}
}