{
	"contracts/practice.sol": {
		"practice": {
			"abi": [
				{
					"inputs": [],
					"stateMutability": "nonpayable",
					"type": "constructor"
				},
				{
					"inputs": [
						{
							"internalType": "uint256",
							"name": "len_",
							"type": "uint256"
						}
					],
					"name": "getUser",
					"outputs": [
						{
							"internalType": "uint256",
							"name": "parent1",
							"type": "uint256"
						},
						{
							"internalType": "uint256",
							"name": "parent2",
							"type": "uint256"
						}
					],
					"stateMutability": "view",
					"type": "function"
				}
			],
			"devdoc": {
				"kind": "dev",
				"methods": {},
				"version": 1
			},
			"evm": {
				"assembly": "    /* \"contracts/practice.sol\":65:329  contract practice  {... */\n  mstore(0x40, 0x80)\n    /* \"contracts/practice.sol\":98:155  constructor() {... */\n  callvalue\n  dup1\n  iszero\n  tag_1\n  jumpi\n  0x00\n  dup1\n  revert\ntag_1:\n  pop\n    /* \"contracts/practice.sol\":65:329  contract practice  {... */\n  dataSize(sub_0)\n  dup1\n  dataOffset(sub_0)\n  0x00\n  codecopy\n  0x00\n  return\nstop\n\nsub_0: assembly {\n        /* \"contracts/practice.sol\":65:329  contract practice  {... */\n      mstore(0x40, 0x80)\n      callvalue\n      dup1\n      iszero\n      tag_1\n      jumpi\n      0x00\n      dup1\n      revert\n    tag_1:\n      pop\n      jumpi(tag_2, lt(calldatasize, 0x04))\n      shr(0xe0, calldataload(0x00))\n      dup1\n      0xb0467deb\n      eq\n      tag_3\n      jumpi\n    tag_2:\n      0x00\n      dup1\n      revert\n        /* \"contracts/practice.sol\":163:326  function getUser(uint len_) external view returns (uint parent1, uint parent2) ... */\n    tag_3:\n      tag_4\n      0x04\n      dup1\n      calldatasize\n      sub\n      dup2\n      add\n      swap1\n      tag_5\n      swap2\n      swap1\n      tag_6\n      jump\t// in\n    tag_5:\n      tag_7\n      jump\t// in\n    tag_4:\n      mload(0x40)\n      tag_8\n      swap3\n      swap2\n      swap1\n      tag_9\n      jump\t// in\n    tag_8:\n      mload(0x40)\n      dup1\n      swap2\n      sub\n      swap1\n      return\n    tag_7:\n        /* \"contracts/practice.sol\":214:226  uint parent1 */\n      0x00\n        /* \"contracts/practice.sol\":228:240  uint parent2 */\n      dup1\n        /* \"contracts/practice.sol\":263:271  uint len */\n      0x00\n        /* \"contracts/practice.sol\":274:278  len_ */\n      dup4\n        /* \"contracts/practice.sol\":263:278  uint len = len_ */\n      swap1\n      pop\n        /* \"contracts/practice.sol\":305:306  3 */\n      0x03\n        /* \"contracts/practice.sol\":301:302  1 */\n      0x01\n        /* \"contracts/practice.sol\":296:299  len */\n      dup3\n        /* \"contracts/practice.sol\":296:302  len -1 */\n      tag_11\n      swap2\n      swap1\n      tag_12\n      jump\t// in\n    tag_11:\n        /* \"contracts/practice.sol\":295:306  (len -1 )/3 */\n      tag_13\n      swap2\n      swap1\n      tag_14\n      jump\t// in\n    tag_13:\n        /* \"contracts/practice.sol\":316:317  3 */\n      0x03\n        /* \"contracts/practice.sol\":309:312  len */\n      dup3\n        /* \"contracts/practice.sol\":308:317  (len  )/3 */\n      tag_15\n      swap2\n      swap1\n      tag_14\n      jump\t// in\n    tag_15:\n        /* \"contracts/practice.sol\":287:318  return ((len -1 )/3, (len  )/3) */\n      swap3\n      pop\n      swap3\n      pop\n      pop\n        /* \"contracts/practice.sol\":163:326  function getUser(uint len_) external view returns (uint parent1, uint parent2) ... */\n      swap2\n      pop\n      swap2\n      jump\t// out\n        /* \"#utility.yul\":88:205   */\n    tag_17:\n        /* \"#utility.yul\":197:198   */\n      0x00\n        /* \"#utility.yul\":194:195   */\n      dup1\n        /* \"#utility.yul\":187:199   */\n      revert\n        /* \"#utility.yul\":334:411   */\n    tag_19:\n        /* \"#utility.yul\":371:378   */\n      0x00\n        /* \"#utility.yul\":400:405   */\n      dup2\n        /* \"#utility.yul\":389:405   */\n      swap1\n      pop\n        /* \"#utility.yul\":334:411   */\n      swap2\n      swap1\n      pop\n      jump\t// out\n        /* \"#utility.yul\":417:539   */\n    tag_20:\n        /* \"#utility.yul\":490:514   */\n      tag_31\n        /* \"#utility.yul\":508:513   */\n      dup2\n        /* \"#utility.yul\":490:514   */\n      tag_19\n      jump\t// in\n    tag_31:\n        /* \"#utility.yul\":483:488   */\n      dup2\n        /* \"#utility.yul\":480:515   */\n      eq\n        /* \"#utility.yul\":470:533   */\n      tag_32\n      jumpi\n        /* \"#utility.yul\":529:530   */\n      0x00\n        /* \"#utility.yul\":526:527   */\n      dup1\n        /* \"#utility.yul\":519:531   */\n      revert\n        /* \"#utility.yul\":470:533   */\n    tag_32:\n        /* \"#utility.yul\":417:539   */\n      pop\n      jump\t// out\n        /* \"#utility.yul\":545:684   */\n    tag_21:\n        /* \"#utility.yul\":591:596   */\n      0x00\n        /* \"#utility.yul\":629:635   */\n      dup2\n        /* \"#utility.yul\":616:636   */\n      calldataload\n        /* \"#utility.yul\":607:636   */\n      swap1\n      pop\n        /* \"#utility.yul\":645:678   */\n      tag_34\n        /* \"#utility.yul\":672:677   */\n      dup2\n        /* \"#utility.yul\":645:678   */\n      tag_20\n      jump\t// in\n    tag_34:\n        /* \"#utility.yul\":545:684   */\n      swap3\n      swap2\n      pop\n      pop\n      jump\t// out\n        /* \"#utility.yul\":690:1019   */\n    tag_6:\n        /* \"#utility.yul\":749:755   */\n      0x00\n        /* \"#utility.yul\":798:800   */\n      0x20\n        /* \"#utility.yul\":786:795   */\n      dup3\n        /* \"#utility.yul\":777:784   */\n      dup5\n        /* \"#utility.yul\":773:796   */\n      sub\n        /* \"#utility.yul\":769:801   */\n      slt\n        /* \"#utility.yul\":766:885   */\n      iszero\n      tag_36\n      jumpi\n        /* \"#utility.yul\":804:883   */\n      tag_37\n      tag_17\n      jump\t// in\n    tag_37:\n        /* \"#utility.yul\":766:885   */\n    tag_36:\n        /* \"#utility.yul\":924:925   */\n      0x00\n        /* \"#utility.yul\":949:1002   */\n      tag_38\n        /* \"#utility.yul\":994:1001   */\n      dup5\n        /* \"#utility.yul\":985:991   */\n      dup3\n        /* \"#utility.yul\":974:983   */\n      dup6\n        /* \"#utility.yul\":970:992   */\n      add\n        /* \"#utility.yul\":949:1002   */\n      tag_21\n      jump\t// in\n    tag_38:\n        /* \"#utility.yul\":939:1002   */\n      swap2\n      pop\n        /* \"#utility.yul\":895:1012   */\n      pop\n        /* \"#utility.yul\":690:1019   */\n      swap3\n      swap2\n      pop\n      pop\n      jump\t// out\n        /* \"#utility.yul\":1025:1143   */\n    tag_22:\n        /* \"#utility.yul\":1112:1136   */\n      tag_40\n        /* \"#utility.yul\":1130:1135   */\n      dup2\n        /* \"#utility.yul\":1112:1136   */\n      tag_19\n      jump\t// in\n    tag_40:\n        /* \"#utility.yul\":1107:1110   */\n      dup3\n        /* \"#utility.yul\":1100:1137   */\n      mstore\n        /* \"#utility.yul\":1025:1143   */\n      pop\n      pop\n      jump\t// out\n        /* \"#utility.yul\":1149:1481   */\n    tag_9:\n        /* \"#utility.yul\":1270:1274   */\n      0x00\n        /* \"#utility.yul\":1308:1310   */\n      0x40\n        /* \"#utility.yul\":1297:1306   */\n      dup3\n        /* \"#utility.yul\":1293:1311   */\n      add\n        /* \"#utility.yul\":1285:1311   */\n      swap1\n      pop\n        /* \"#utility.yul\":1321:1392   */\n      tag_42\n        /* \"#utility.yul\":1389:1390   */\n      0x00\n        /* \"#utility.yul\":1378:1387   */\n      dup4\n        /* \"#utility.yul\":1374:1391   */\n      add\n        /* \"#utility.yul\":1365:1371   */\n      dup6\n        /* \"#utility.yul\":1321:1392   */\n      tag_22\n      jump\t// in\n    tag_42:\n        /* \"#utility.yul\":1402:1474   */\n      tag_43\n        /* \"#utility.yul\":1470:1472   */\n      0x20\n        /* \"#utility.yul\":1459:1468   */\n      dup4\n        /* \"#utility.yul\":1455:1473   */\n      add\n        /* \"#utility.yul\":1446:1452   */\n      dup5\n        /* \"#utility.yul\":1402:1474   */\n      tag_22\n      jump\t// in\n    tag_43:\n        /* \"#utility.yul\":1149:1481   */\n      swap4\n      swap3\n      pop\n      pop\n      pop\n      jump\t// out\n        /* \"#utility.yul\":1487:1667   */\n    tag_23:\n        /* \"#utility.yul\":1535:1612   */\n      0x4e487b7100000000000000000000000000000000000000000000000000000000\n        /* \"#utility.yul\":1532:1533   */\n      0x00\n        /* \"#utility.yul\":1525:1613   */\n      mstore\n        /* \"#utility.yul\":1632:1636   */\n      0x11\n        /* \"#utility.yul\":1629:1630   */\n      0x04\n        /* \"#utility.yul\":1622:1637   */\n      mstore\n        /* \"#utility.yul\":1656:1660   */\n      0x24\n        /* \"#utility.yul\":1653:1654   */\n      0x00\n        /* \"#utility.yul\":1646:1661   */\n      revert\n        /* \"#utility.yul\":1673:1867   */\n    tag_12:\n        /* \"#utility.yul\":1713:1717   */\n      0x00\n        /* \"#utility.yul\":1733:1753   */\n      tag_46\n        /* \"#utility.yul\":1751:1752   */\n      dup3\n        /* \"#utility.yul\":1733:1753   */\n      tag_19\n      jump\t// in\n    tag_46:\n        /* \"#utility.yul\":1728:1753   */\n      swap2\n      pop\n        /* \"#utility.yul\":1767:1787   */\n      tag_47\n        /* \"#utility.yul\":1785:1786   */\n      dup4\n        /* \"#utility.yul\":1767:1787   */\n      tag_19\n      jump\t// in\n    tag_47:\n        /* \"#utility.yul\":1762:1787   */\n      swap3\n      pop\n        /* \"#utility.yul\":1811:1812   */\n      dup3\n        /* \"#utility.yul\":1808:1809   */\n      dup3\n        /* \"#utility.yul\":1804:1813   */\n      sub\n        /* \"#utility.yul\":1796:1813   */\n      swap1\n      pop\n        /* \"#utility.yul\":1835:1836   */\n      dup2\n        /* \"#utility.yul\":1829:1833   */\n      dup2\n        /* \"#utility.yul\":1826:1837   */\n      gt\n        /* \"#utility.yul\":1823:1860   */\n      iszero\n      tag_48\n      jumpi\n        /* \"#utility.yul\":1840:1858   */\n      tag_49\n      tag_23\n      jump\t// in\n    tag_49:\n        /* \"#utility.yul\":1823:1860   */\n    tag_48:\n        /* \"#utility.yul\":1673:1867   */\n      swap3\n      swap2\n      pop\n      pop\n      jump\t// out\n        /* \"#utility.yul\":1873:2053   */\n    tag_24:\n        /* \"#utility.yul\":1921:1998   */\n      0x4e487b7100000000000000000000000000000000000000000000000000000000\n        /* \"#utility.yul\":1918:1919   */\n      0x00\n        /* \"#utility.yul\":1911:1999   */\n      mstore\n        /* \"#utility.yul\":2018:2022   */\n      0x12\n        /* \"#utility.yul\":2015:2016   */\n      0x04\n        /* \"#utility.yul\":2008:2023   */\n      mstore\n        /* \"#utility.yul\":2042:2046   */\n      0x24\n        /* \"#utility.yul\":2039:2040   */\n      0x00\n        /* \"#utility.yul\":2032:2047   */\n      revert\n        /* \"#utility.yul\":2059:2244   */\n    tag_14:\n        /* \"#utility.yul\":2099:2100   */\n      0x00\n        /* \"#utility.yul\":2116:2136   */\n      tag_52\n        /* \"#utility.yul\":2134:2135   */\n      dup3\n        /* \"#utility.yul\":2116:2136   */\n      tag_19\n      jump\t// in\n    tag_52:\n        /* \"#utility.yul\":2111:2136   */\n      swap2\n      pop\n        /* \"#utility.yul\":2150:2170   */\n      tag_53\n        /* \"#utility.yul\":2168:2169   */\n      dup4\n        /* \"#utility.yul\":2150:2170   */\n      tag_19\n      jump\t// in\n    tag_53:\n        /* \"#utility.yul\":2145:2170   */\n      swap3\n      pop\n        /* \"#utility.yul\":2189:2190   */\n      dup3\n        /* \"#utility.yul\":2179:2214   */\n      tag_54\n      jumpi\n        /* \"#utility.yul\":2194:2212   */\n      tag_55\n      tag_24\n      jump\t// in\n    tag_55:\n        /* \"#utility.yul\":2179:2214   */\n    tag_54:\n        /* \"#utility.yul\":2236:2237   */\n      dup3\n        /* \"#utility.yul\":2233:2234   */\n      dup3\n        /* \"#utility.yul\":2229:2238   */\n      div\n        /* \"#utility.yul\":2224:2238   */\n      swap1\n      pop\n        /* \"#utility.yul\":2059:2244   */\n      swap3\n      swap2\n      pop\n      pop\n      jump\t// out\n\n    auxdata: 0xa264697066735822122024644692ff4758061356759c0827f420af74aa2ac8e5f68ca0e9d0314910eda864736f6c63430008140033\n}\n",
				"bytecode": {
					"linkReferences": {},
					"object": "608060405234801561000f575f80fd5b5061021f8061001d5f395ff3fe608060405234801561000f575f80fd5b5060043610610029575f3560e01c8063b0467deb1461002d575b5f80fd5b610047600480360381019061004291906100cb565b61005e565b604051610055929190610105565b60405180910390f35b5f805f83905060036001826100739190610159565b61007d91906101b9565b60038261008a91906101b9565b9250925050915091565b5f80fd5b5f819050919050565b6100aa81610098565b81146100b4575f80fd5b50565b5f813590506100c5816100a1565b92915050565b5f602082840312156100e0576100df610094565b5b5f6100ed848285016100b7565b91505092915050565b6100ff81610098565b82525050565b5f6040820190506101185f8301856100f6565b61012560208301846100f6565b9392505050565b7f4e487b71000000000000000000000000000000000000000000000000000000005f52601160045260245ffd5b5f61016382610098565b915061016e83610098565b92508282039050818111156101865761018561012c565b5b92915050565b7f4e487b71000000000000000000000000000000000000000000000000000000005f52601260045260245ffd5b5f6101c382610098565b91506101ce83610098565b9250826101de576101dd61018c565b5b82820490509291505056fea264697066735822122024644692ff4758061356759c0827f420af74aa2ac8e5f68ca0e9d0314910eda864736f6c63430008140033",
					"opcodes": "PUSH1 0x80 PUSH1 0x40 MSTORE CALLVALUE DUP1 ISZERO PUSH2 0xF JUMPI PUSH0 DUP1 REVERT JUMPDEST POP PUSH2 0x21F DUP1 PUSH2 0x1D PUSH0 CODECOPY PUSH0 RETURN INVALID PUSH1 0x80 PUSH1 0x40 MSTORE CALLVALUE DUP1 ISZERO PUSH2 0xF JUMPI PUSH0 DUP1 REVERT JUMPDEST POP PUSH1 0x4 CALLDATASIZE LT PUSH2 0x29 JUMPI PUSH0 CALLDATALOAD PUSH1 0xE0 SHR DUP1 PUSH4 0xB0467DEB EQ PUSH2 0x2D JUMPI JUMPDEST PUSH0 DUP1 REVERT JUMPDEST PUSH2 0x47 PUSH1 0x4 DUP1 CALLDATASIZE SUB DUP2 ADD SWAP1 PUSH2 0x42 SWAP2 SWAP1 PUSH2 0xCB JUMP JUMPDEST PUSH2 0x5E JUMP JUMPDEST PUSH1 0x40 MLOAD PUSH2 0x55 SWAP3 SWAP2 SWAP1 PUSH2 0x105 JUMP JUMPDEST PUSH1 0x40 MLOAD DUP1 SWAP2 SUB SWAP1 RETURN JUMPDEST PUSH0 DUP1 PUSH0 DUP4 SWAP1 POP PUSH1 0x3 PUSH1 0x1 DUP3 PUSH2 0x73 SWAP2 SWAP1 PUSH2 0x159 JUMP JUMPDEST PUSH2 0x7D SWAP2 SWAP1 PUSH2 0x1B9 JUMP JUMPDEST PUSH1 0x3 DUP3 PUSH2 0x8A SWAP2 SWAP1 PUSH2 0x1B9 JUMP JUMPDEST SWAP3 POP SWAP3 POP POP SWAP2 POP SWAP2 JUMP JUMPDEST PUSH0 DUP1 REVERT JUMPDEST PUSH0 DUP2 SWAP1 POP SWAP2 SWAP1 POP JUMP JUMPDEST PUSH2 0xAA DUP2 PUSH2 0x98 JUMP JUMPDEST DUP2 EQ PUSH2 0xB4 JUMPI PUSH0 DUP1 REVERT JUMPDEST POP JUMP JUMPDEST PUSH0 DUP2 CALLDATALOAD SWAP1 POP PUSH2 0xC5 DUP2 PUSH2 0xA1 JUMP JUMPDEST SWAP3 SWAP2 POP POP JUMP JUMPDEST PUSH0 PUSH1 0x20 DUP3 DUP5 SUB SLT ISZERO PUSH2 0xE0 JUMPI PUSH2 0xDF PUSH2 0x94 JUMP JUMPDEST JUMPDEST PUSH0 PUSH2 0xED DUP5 DUP3 DUP6 ADD PUSH2 0xB7 JUMP JUMPDEST SWAP2 POP POP SWAP3 SWAP2 POP POP JUMP JUMPDEST PUSH2 0xFF DUP2 PUSH2 0x98 JUMP JUMPDEST DUP3 MSTORE POP POP JUMP JUMPDEST PUSH0 PUSH1 0x40 DUP3 ADD SWAP1 POP PUSH2 0x118 PUSH0 DUP4 ADD DUP6 PUSH2 0xF6 JUMP JUMPDEST PUSH2 0x125 PUSH1 0x20 DUP4 ADD DUP5 PUSH2 0xF6 JUMP JUMPDEST SWAP4 SWAP3 POP POP POP JUMP JUMPDEST PUSH32 0x4E487B7100000000000000000000000000000000000000000000000000000000 PUSH0 MSTORE PUSH1 0x11 PUSH1 0x4 MSTORE PUSH1 0x24 PUSH0 REVERT JUMPDEST PUSH0 PUSH2 0x163 DUP3 PUSH2 0x98 JUMP JUMPDEST SWAP2 POP PUSH2 0x16E DUP4 PUSH2 0x98 JUMP JUMPDEST SWAP3 POP DUP3 DUP3 SUB SWAP1 POP DUP2 DUP2 GT ISZERO PUSH2 0x186 JUMPI PUSH2 0x185 PUSH2 0x12C JUMP JUMPDEST JUMPDEST SWAP3 SWAP2 POP POP JUMP JUMPDEST PUSH32 0x4E487B7100000000000000000000000000000000000000000000000000000000 PUSH0 MSTORE PUSH1 0x12 PUSH1 0x4 MSTORE PUSH1 0x24 PUSH0 REVERT JUMPDEST PUSH0 PUSH2 0x1C3 DUP3 PUSH2 0x98 JUMP JUMPDEST SWAP2 POP PUSH2 0x1CE DUP4 PUSH2 0x98 JUMP JUMPDEST SWAP3 POP DUP3 PUSH2 0x1DE JUMPI PUSH2 0x1DD PUSH2 0x18C JUMP JUMPDEST JUMPDEST DUP3 DUP3 DIV SWAP1 POP SWAP3 SWAP2 POP POP JUMP INVALID LOG2 PUSH5 0x6970667358 0x22 SLT KECCAK256 0x24 PUSH5 0x4692FF4758 MOD SGT JUMP PUSH22 0x9C0827F420AF74AA2AC8E5F68CA0E9D0314910EDA864 PUSH20 0x6F6C634300081400330000000000000000000000 "
				},
				"gasEstimates": {
					"creation": {
						"codeDepositCost": "108600",
						"executionCost": "151",
						"totalCost": "108751"
					},
					"external": {
						"getUser(uint256)": "infinite"
					}
				},
				"methodIdentifiers": {
					"getUser(uint256)": "b0467deb"
				}
			},
			"storageLayout": {
				"storage": [],
				"types": null
			},
			"userdoc": {
				"kind": "user",
				"methods": {},
				"version": 1
			}
		}
	}
}