{
	"contracts/modules/SponsorMatrix.sol": {
		"Nanakshahi": {
			"abi": [
				{
					"inputs": [],
					"stateMutability": "nonpayable",
					"type": "constructor"
				},
				{
					"inputs": [
						{
							"internalType": "address",
							"name": "token",
							"type": "address"
						}
					],
					"name": "SafeERC20FailedOperation",
					"type": "error"
				},
				{
					"anonymous": false,
					"inputs": [
						{
							"indexed": false,
							"internalType": "uint256",
							"name": "amount",
							"type": "uint256"
						},
						{
							"indexed": false,
							"internalType": "uint256",
							"name": "usersCount",
							"type": "uint256"
						},
						{
							"indexed": false,
							"internalType": "uint256",
							"name": "perUser",
							"type": "uint256"
						}
					],
					"name": "CommunityBonusDistributed",
					"type": "event"
				},
				{
					"anonymous": false,
					"inputs": [
						{
							"indexed": true,
							"internalType": "address",
							"name": "to",
							"type": "address"
						},
						{
							"indexed": true,
							"internalType": "address",
							"name": "from",
							"type": "address"
						},
						{
							"indexed": false,
							"internalType": "uint256",
							"name": "amount",
							"type": "uint256"
						},
						{
							"indexed": false,
							"internalType": "uint256",
							"name": "packageLevel",
							"type": "uint256"
						},
						{
							"indexed": false,
							"internalType": "uint256",
							"name": "incomeType",
							"type": "uint256"
						}
					],
					"name": "IncomeDistributed",
					"type": "event"
				},
				{
					"anonymous": false,
					"inputs": [
						{
							"indexed": true,
							"internalType": "address",
							"name": "winner",
							"type": "address"
						},
						{
							"indexed": true,
							"internalType": "uint256",
							"name": "fromUserId",
							"type": "uint256"
						},
						{
							"indexed": false,
							"internalType": "uint256",
							"name": "amount",
							"type": "uint256"
						},
						{
							"indexed": false,
							"internalType": "uint256",
							"name": "timestamp",
							"type": "uint256"
						}
					],
					"name": "LotteryReward",
					"type": "event"
				},
				{
					"anonymous": false,
					"inputs": [
						{
							"indexed": true,
							"internalType": "address",
							"name": "user",
							"type": "address"
						},
						{
							"indexed": true,
							"internalType": "address",
							"name": "sponsor",
							"type": "address"
						},
						{
							"indexed": true,
							"internalType": "uint256",
							"name": "userId",
							"type": "uint256"
						},
						{
							"indexed": false,
							"internalType": "uint256",
							"name": "uplineId",
							"type": "uint256"
						}
					],
					"name": "Registration",
					"type": "event"
				},
				{
					"anonymous": false,
					"inputs": [
						{
							"indexed": true,
							"internalType": "address",
							"name": "to",
							"type": "address"
						},
						{
							"indexed": false,
							"internalType": "uint256",
							"name": "amount",
							"type": "uint256"
						},
						{
							"indexed": false,
							"internalType": "string",
							"name": "level",
							"type": "string"
						}
					],
					"name": "RewardSent",
					"type": "event"
				},
				{
					"anonymous": false,
					"inputs": [
						{
							"indexed": true,
							"internalType": "address",
							"name": "user",
							"type": "address"
						},
						{
							"indexed": true,
							"internalType": "uint256",
							"name": "userId",
							"type": "uint256"
						},
						{
							"indexed": false,
							"internalType": "uint256",
							"name": "packageLevel",
							"type": "uint256"
						},
						{
							"indexed": false,
							"internalType": "string",
							"name": "depositType",
							"type": "string"
						}
					],
					"name": "Upgrade",
					"type": "event"
				},
				{
					"anonymous": false,
					"inputs": [
						{
							"indexed": true,
							"internalType": "uint8",
							"name": "matrixId",
							"type": "uint8"
						},
						{
							"indexed": true,
							"internalType": "uint32",
							"name": "userId",
							"type": "uint32"
						},
						{
							"indexed": true,
							"internalType": "address",
							"name": "user",
							"type": "address"
						},
						{
							"indexed": false,
							"internalType": "uint32",
							"name": "parentId",
							"type": "uint32"
						},
						{
							"indexed": false,
							"internalType": "address",
							"name": "parentAddr",
							"type": "address"
						},
						{
							"indexed": false,
							"internalType": "uint8",
							"name": "position",
							"type": "uint8"
						}
					],
					"name": "UserJoined",
					"type": "event"
				},
				{
					"anonymous": false,
					"inputs": [
						{
							"indexed": false,
							"internalType": "uint256",
							"name": "roundId",
							"type": "uint256"
						},
						{
							"indexed": false,
							"internalType": "uint256",
							"name": "totalUsers",
							"type": "uint256"
						},
						{
							"indexed": false,
							"internalType": "uint256",
							"name": "perUserReward",
							"type": "uint256"
						},
						{
							"indexed": false,
							"internalType": "uint256",
							"name": "distributedAmount",
							"type": "uint256"
						},
						{
							"indexed": false,
							"internalType": "uint256",
							"name": "leftoverReward",
							"type": "uint256"
						},
						{
							"indexed": false,
							"internalType": "uint256",
							"name": "endTime",
							"type": "uint256"
						}
					],
					"name": "WeeklyClosed",
					"type": "event"
				},
				{
					"anonymous": false,
					"inputs": [
						{
							"indexed": false,
							"internalType": "uint256",
							"name": "roundId",
							"type": "uint256"
						},
						{
							"indexed": false,
							"internalType": "uint256",
							"name": "userId",
							"type": "uint256"
						},
						{
							"indexed": false,
							"internalType": "uint256",
							"name": "joinTime",
							"type": "uint256"
						}
					],
					"name": "WeeklyContestQualified",
					"type": "event"
				},
				{
					"anonymous": false,
					"inputs": [
						{
							"indexed": false,
							"internalType": "uint256",
							"name": "roundId",
							"type": "uint256"
						},
						{
							"indexed": false,
							"internalType": "uint256",
							"name": "userId",
							"type": "uint256"
						},
						{
							"indexed": false,
							"internalType": "uint256",
							"name": "perUserReward",
							"type": "uint256"
						},
						{
							"indexed": false,
							"internalType": "uint256",
							"name": "claimTime",
							"type": "uint256"
						}
					],
					"name": "WeeklyRewardClaim",
					"type": "event"
				},
				{
					"inputs": [],
					"name": "ACC_PRECISION",
					"outputs": [
						{
							"internalType": "uint256",
							"name": "",
							"type": "uint256"
						}
					],
					"stateMutability": "view",
					"type": "function"
				},
				{
					"inputs": [],
					"name": "MONTH_DURATION",
					"outputs": [
						{
							"internalType": "uint256",
							"name": "",
							"type": "uint256"
						}
					],
					"stateMutability": "view",
					"type": "function"
				},
				{
					"inputs": [],
					"name": "PERCENTS_DIVIDER",
					"outputs": [
						{
							"internalType": "uint256",
							"name": "",
							"type": "uint256"
						}
					],
					"stateMutability": "view",
					"type": "function"
				},
				{
					"inputs": [],
					"name": "ROI_CAP_DIVIDER",
					"outputs": [
						{
							"internalType": "uint256",
							"name": "",
							"type": "uint256"
						}
					],
					"stateMutability": "view",
					"type": "function"
				},
				{
					"inputs": [],
					"name": "ROI_CAP_MULTIPLIER",
					"outputs": [
						{
							"internalType": "uint256",
							"name": "",
							"type": "uint256"
						}
					],
					"stateMutability": "view",
					"type": "function"
				},
				{
					"inputs": [],
					"name": "TIME_STEP",
					"outputs": [
						{
							"internalType": "uint256",
							"name": "",
							"type": "uint256"
						}
					],
					"stateMutability": "view",
					"type": "function"
				},
				{
					"inputs": [],
					"name": "WEEK_DURATION",
					"outputs": [
						{
							"internalType": "uint256",
							"name": "",
							"type": "uint256"
						}
					],
					"stateMutability": "view",
					"type": "function"
				},
				{
					"inputs": [],
					"name": "WeeklyCapping",
					"outputs": [
						{
							"internalType": "uint256",
							"name": "",
							"type": "uint256"
						}
					],
					"stateMutability": "view",
					"type": "function"
				},
				{
					"inputs": [],
					"name": "WeeklyTotalReward",
					"outputs": [
						{
							"internalType": "uint256",
							"name": "",
							"type": "uint256"
						}
					],
					"stateMutability": "view",
					"type": "function"
				},
				{
					"inputs": [
						{
							"internalType": "uint256",
							"name": "_userId",
							"type": "uint256"
						}
					],
					"name": "claimCommunity",
					"outputs": [],
					"stateMutability": "nonpayable",
					"type": "function"
				},
				{
					"inputs": [],
					"name": "communityAccPerUser",
					"outputs": [
						{
							"internalType": "uint256",
							"name": "",
							"type": "uint256"
						}
					],
					"stateMutability": "view",
					"type": "function"
				},
				{
					"inputs": [],
					"name": "creatorWallet",
					"outputs": [
						{
							"internalType": "address",
							"name": "",
							"type": "address"
						}
					],
					"stateMutability": "view",
					"type": "function"
				},
				{
					"inputs": [],
					"name": "currentMonthlyRound",
					"outputs": [
						{
							"internalType": "uint256",
							"name": "",
							"type": "uint256"
						}
					],
					"stateMutability": "view",
					"type": "function"
				},
				{
					"inputs": [],
					"name": "currentMonthlyStartTime",
					"outputs": [
						{
							"internalType": "uint256",
							"name": "",
							"type": "uint256"
						}
					],
					"stateMutability": "view",
					"type": "function"
				},
				{
					"inputs": [],
					"name": "currentWeeklyRound",
					"outputs": [
						{
							"internalType": "uint256",
							"name": "",
							"type": "uint256"
						}
					],
					"stateMutability": "view",
					"type": "function"
				},
				{
					"inputs": [],
					"name": "currentWeeklyStartTime",
					"outputs": [
						{
							"internalType": "uint256",
							"name": "",
							"type": "uint256"
						}
					],
					"stateMutability": "view",
					"type": "function"
				},
				{
					"inputs": [],
					"name": "defaultRefId",
					"outputs": [
						{
							"internalType": "uint256",
							"name": "",
							"type": "uint256"
						}
					],
					"stateMutability": "view",
					"type": "function"
				},
				{
					"inputs": [
						{
							"internalType": "uint256",
							"name": "",
							"type": "uint256"
						}
					],
					"name": "glbBoosterPackages",
					"outputs": [
						{
							"internalType": "uint256",
							"name": "",
							"type": "uint256"
						}
					],
					"stateMutability": "view",
					"type": "function"
				},
				{
					"inputs": [
						{
							"internalType": "uint256",
							"name": "",
							"type": "uint256"
						}
					],
					"name": "minLevelForGlbBooster",
					"outputs": [
						{
							"internalType": "uint256",
							"name": "",
							"type": "uint256"
						}
					],
					"stateMutability": "view",
					"type": "function"
				},
				{
					"inputs": [
						{
							"internalType": "uint256",
							"name": "",
							"type": "uint256"
						}
					],
					"name": "minLevelForPool",
					"outputs": [
						{
							"internalType": "uint256",
							"name": "",
							"type": "uint256"
						}
					],
					"stateMutability": "view",
					"type": "function"
				},
				{
					"inputs": [
						{
							"internalType": "uint256",
							"name": "",
							"type": "uint256"
						}
					],
					"name": "minPoolForGlbBooster",
					"outputs": [
						{
							"internalType": "uint256",
							"name": "",
							"type": "uint256"
						}
					],
					"stateMutability": "view",
					"type": "function"
				},
				{
					"inputs": [],
					"name": "monthlyCapping",
					"outputs": [
						{
							"internalType": "uint256",
							"name": "",
							"type": "uint256"
						}
					],
					"stateMutability": "view",
					"type": "function"
				},
				{
					"inputs": [
						{
							"internalType": "uint256",
							"name": "",
							"type": "uint256"
						}
					],
					"name": "packages",
					"outputs": [
						{
							"internalType": "uint256",
							"name": "",
							"type": "uint256"
						}
					],
					"stateMutability": "view",
					"type": "function"
				},
				{
					"inputs": [
						{
							"internalType": "uint256",
							"name": "_userId",
							"type": "uint256"
						}
					],
					"name": "pendingCommunity",
					"outputs": [
						{
							"internalType": "uint256",
							"name": "pendingGross",
							"type": "uint256"
						},
						{
							"internalType": "uint256",
							"name": "pendingAfterCap",
							"type": "uint256"
						}
					],
					"stateMutability": "view",
					"type": "function"
				},
				{
					"inputs": [
						{
							"internalType": "uint256",
							"name": "",
							"type": "uint256"
						}
					],
					"name": "poolPackages",
					"outputs": [
						{
							"internalType": "uint256",
							"name": "",
							"type": "uint256"
						}
					],
					"stateMutability": "view",
					"type": "function"
				},
				{
					"inputs": [
						{
							"internalType": "uint256",
							"name": "_sponsorId",
							"type": "uint256"
						}
					],
					"name": "register",
					"outputs": [],
					"stateMutability": "nonpayable",
					"type": "function"
				},
				{
					"inputs": [
						{
							"internalType": "uint256",
							"name": "",
							"type": "uint256"
						}
					],
					"name": "registeredUserIds",
					"outputs": [
						{
							"internalType": "uint256",
							"name": "",
							"type": "uint256"
						}
					],
					"stateMutability": "view",
					"type": "function"
				},
				{
					"inputs": [],
					"name": "systemMaintance",
					"outputs": [
						{
							"internalType": "address",
							"name": "",
							"type": "address"
						}
					],
					"stateMutability": "view",
					"type": "function"
				},
				{
					"inputs": [],
					"name": "teamDevelopment",
					"outputs": [
						{
							"internalType": "address",
							"name": "",
							"type": "address"
						}
					],
					"stateMutability": "view",
					"type": "function"
				},
				{
					"inputs": [],
					"name": "totalUsers",
					"outputs": [
						{
							"internalType": "uint256",
							"name": "",
							"type": "uint256"
						}
					],
					"stateMutability": "view",
					"type": "function"
				},
				{
					"inputs": [
						{
							"internalType": "uint256",
							"name": "_userId",
							"type": "uint256"
						}
					],
					"name": "upgrade",
					"outputs": [],
					"stateMutability": "nonpayable",
					"type": "function"
				},
				{
					"inputs": [],
					"name": "usdt",
					"outputs": [
						{
							"internalType": "contract IERC20",
							"name": "",
							"type": "address"
						}
					],
					"stateMutability": "view",
					"type": "function"
				}
			],
			"devdoc": {
				"errors": {
					"SafeERC20FailedOperation(address)": [
						{
							"details": "An operation with an ERC-20 token failed."
						}
					]
				},
				"kind": "dev",
				"methods": {},
				"version": 1
			},
			"evm": {
				"assembly": "    /* \"contracts/modules/SponsorMatrix.sol\":124:18049  contract Nanakshahi is Storage{... */\n  mstore(0x40, 0x80)\n  jumpi(tag_4, callvalue)\n    /* \"@openzeppelin/contracts/security/ReentrancyGuard.sol\":1716:1717  1 */\n  0x01\n    /* \"@openzeppelin/contracts/security/ReentrancyGuard.sol\":1821:1843  _status = _NOT_ENTERED */\n  0x00\n    /* \"contracts/modules/SponsorMatrix.sol\":124:18049  contract Nanakshahi is Storage{... */\n  sstore\n  mload(0x40)\n  0x01e0\n  dup2\n  add\n  sub(shl(0x40, 0x01), 0x01)\n  dup2\n  gt\n  dup3\n  dup3\n  lt\n  or\n  tag_6\n  jumpi\n  0x40\n  mstore\n    /* \"contracts/modules/Storage.sol\":1324:1333  15 * 1e18 */\n  0xd02ab486cedc0000\n    /* \"contracts/modules/SponsorMatrix.sol\":124:18049  contract Nanakshahi is Storage{... */\n  dup2\n  mstore\n    /* \"contracts/modules/Storage.sol\":1356:1365  25 * 1e18 */\n  0x015af1d78b58c40000\n    /* \"contracts/modules/Storage.sol\":1313:1828  [... */\n  0x20\n  dup3\n  add\n    /* \"contracts/modules/SponsorMatrix.sol\":124:18049  contract Nanakshahi is Storage{... */\n  mstore\n    /* \"contracts/modules/Storage.sol\":1388:1397  50 * 1e18 */\n  0x02b5e3af16b1880000\n    /* \"contracts/modules/SponsorMatrix.sol\":124:18049  contract Nanakshahi is Storage{... */\n  0x40\n    /* \"contracts/modules/Storage.sol\":1313:1828  [... */\n  dup3\n  add\n    /* \"contracts/modules/SponsorMatrix.sol\":124:18049  contract Nanakshahi is Storage{... */\n  mstore\n    /* \"contracts/modules/Storage.sol\":1420:1430  100 * 1e18 */\n  0x056bc75e2d63100000\n    /* \"contracts/modules/Storage.sol\":1313:1828  [... */\n  0x60\n  dup3\n  add\n    /* \"contracts/modules/SponsorMatrix.sol\":124:18049  contract Nanakshahi is Storage{... */\n  mstore\n    /* \"contracts/modules/Storage.sol\":1453:1463  200 * 1e18 */\n  0x0ad78ebc5ac6200000\n    /* \"contracts/modules/Storage.sol\":1313:1828  [... */\n  0x80\n  dup3\n  add\n    /* \"contracts/modules/SponsorMatrix.sol\":124:18049  contract Nanakshahi is Storage{... */\n  mstore\n    /* \"contracts/modules/Storage.sol\":1486:1496  400 * 1e18 */\n  0x15af1d78b58c400000\n    /* \"contracts/modules/Storage.sol\":1313:1828  [... */\n  0xa0\n  dup3\n  add\n    /* \"contracts/modules/SponsorMatrix.sol\":124:18049  contract Nanakshahi is Storage{... */\n  mstore\n    /* \"contracts/modules/Storage.sol\":1519:1529  800 * 1e18 */\n  0x2b5e3af16b18800000\n    /* \"contracts/modules/Storage.sol\":1313:1828  [... */\n  0xc0\n  dup3\n  add\n    /* \"contracts/modules/SponsorMatrix.sol\":124:18049  contract Nanakshahi is Storage{... */\n  mstore\n    /* \"contracts/modules/Storage.sol\":1552:1563  1600 * 1e18 */\n  0x56bc75e2d631000000\n    /* \"contracts/modules/Storage.sol\":1313:1828  [... */\n  0xe0\n  dup3\n  add\n    /* \"contracts/modules/SponsorMatrix.sol\":124:18049  contract Nanakshahi is Storage{... */\n  mstore\n    /* \"contracts/modules/Storage.sol\":1586:1597  3200 * 1e18 */\n  0xad78ebc5ac62000000\n    /* \"contracts/modules/Storage.sol\":1313:1828  [... */\n  0x0100\n  dup3\n  add\n    /* \"contracts/modules/SponsorMatrix.sol\":124:18049  contract Nanakshahi is Storage{... */\n  mstore\n    /* \"contracts/modules/Storage.sol\":1620:1631  6400 * 1e18 */\n  0x015af1d78b58c4000000\n    /* \"contracts/modules/Storage.sol\":1313:1828  [... */\n  0x0120\n  dup3\n  add\n    /* \"contracts/modules/SponsorMatrix.sol\":124:18049  contract Nanakshahi is Storage{... */\n  mstore\n    /* \"contracts/modules/Storage.sol\":1654:1666  12800 * 1e18 */\n  0x02b5e3af16b188000000\n    /* \"contracts/modules/Storage.sol\":1313:1828  [... */\n  0x0140\n  dup3\n  add\n    /* \"contracts/modules/SponsorMatrix.sol\":124:18049  contract Nanakshahi is Storage{... */\n  mstore\n    /* \"contracts/modules/Storage.sol\":1689:1701  25600 * 1e18 */\n  0x056bc75e2d6310000000\n    /* \"contracts/modules/Storage.sol\":1313:1828  [... */\n  0x0160\n  dup3\n  add\n    /* \"contracts/modules/SponsorMatrix.sol\":124:18049  contract Nanakshahi is Storage{... */\n  mstore\n    /* \"contracts/modules/Storage.sol\":1724:1736  51200 * 1e18 */\n  0x0ad78ebc5ac620000000\n    /* \"contracts/modules/Storage.sol\":1313:1828  [... */\n  0x0180\n  dup3\n  add\n    /* \"contracts/modules/SponsorMatrix.sol\":124:18049  contract Nanakshahi is Storage{... */\n  mstore\n    /* \"contracts/modules/Storage.sol\":1759:1772  102400 * 1e18 */\n  0x15af1d78b58c40000000\n    /* \"contracts/modules/Storage.sol\":1313:1828  [... */\n  0x01a0\n  dup3\n  add\n    /* \"contracts/modules/SponsorMatrix.sol\":124:18049  contract Nanakshahi is Storage{... */\n  mstore\n    /* \"contracts/modules/Storage.sol\":1795:1808  204800 * 1e18 */\n  0x2b5e3af16b1880000000\n    /* \"contracts/modules/Storage.sol\":1313:1828  [... */\n  0x01c0\n  dup3\n  add\n    /* \"contracts/modules/SponsorMatrix.sol\":124:18049  contract Nanakshahi is Storage{... */\n  mstore\n    /* \"contracts/modules/Storage.sol\":1313:1828  [... */\n  0x0b\n    /* \"contracts/modules/SponsorMatrix.sol\":124:18049  contract Nanakshahi is Storage{... */\n  sload\n    /* \"contracts/modules/Storage.sol\":1313:1828  [... */\n  0x0f\n  0x0b\n    /* \"contracts/modules/SponsorMatrix.sol\":124:18049  contract Nanakshahi is Storage{... */\n  sstore\n  dup1\n    /* \"contracts/modules/Storage.sol\":1313:1828  [... */\n  0x0f\n    /* \"contracts/modules/SponsorMatrix.sol\":124:18049  contract Nanakshahi is Storage{... */\n  lt\n  tag_8\n  jumpi\ntag_9:\n  pop\n    /* \"contracts/modules/Storage.sol\":1313:1828  [... */\n  0x0b\n    /* \"@openzeppelin/contracts/security/ReentrancyGuard.sol\":1821:1843  _status = _NOT_ENTERED */\n  0x00\n    /* \"contracts/modules/SponsorMatrix.sol\":124:18049  contract Nanakshahi is Storage{... */\n  mstore\n    /* \"contracts/modules/Storage.sol\":1313:1828  [... */\n  0x20\n    /* \"@openzeppelin/contracts/security/ReentrancyGuard.sol\":1821:1843  _status = _NOT_ENTERED */\n  0x00\n    /* \"contracts/modules/SponsorMatrix.sol\":124:18049  contract Nanakshahi is Storage{... */\n  keccak256\n  swap1\n    /* \"@openzeppelin/contracts/security/ReentrancyGuard.sol\":1821:1843  _status = _NOT_ENTERED */\n  0x00\n    /* \"contracts/modules/SponsorMatrix.sol\":124:18049  contract Nanakshahi is Storage{... */\ntag_10:\n    /* \"contracts/modules/Storage.sol\":1313:1828  [... */\n  0x0f\n    /* \"contracts/modules/SponsorMatrix.sol\":124:18049  contract Nanakshahi is Storage{... */\n  dup2\n  lt\n  tag_11\n  jumpi\n  tag_13\n  tag_1\n  jump\t// in\ntag_13:\n    /* \"contracts/modules/Storage.sol\":5058:5063  75e18 */\n  0x0410d586a20a4c0000\n    /* \"contracts/modules/SponsorMatrix.sol\":124:18049  contract Nanakshahi is Storage{... */\n  dup2\n  mstore\n    /* \"contracts/modules/Storage.sol\":5065:5071  300e18 */\n  0x1043561a8829300000\n    /* \"contracts/modules/Storage.sol\":1313:1828  [... */\n  0x20\n    /* \"contracts/modules/Storage.sol\":5057:5121  [75e18, 300e18, 1200e18, 4800e18, 19200e18, 76800e18, 307200e18] */\n  dup3\n  add\n    /* \"contracts/modules/SponsorMatrix.sol\":124:18049  contract Nanakshahi is Storage{... */\n  mstore\n    /* \"contracts/modules/Storage.sol\":5073:5080  1200e18 */\n  0x410d586a20a4c00000\n    /* \"contracts/modules/SponsorMatrix.sol\":124:18049  contract Nanakshahi is Storage{... */\n  0x40\n    /* \"contracts/modules/Storage.sol\":5057:5121  [75e18, 300e18, 1200e18, 4800e18, 19200e18, 76800e18, 307200e18] */\n  dup3\n  add\n    /* \"contracts/modules/SponsorMatrix.sol\":124:18049  contract Nanakshahi is Storage{... */\n  mstore\n    /* \"contracts/modules/Storage.sol\":5082:5089  4800e18 */\n  0x01043561a88293000000\n    /* \"contracts/modules/Storage.sol\":1313:1828  [... */\n  0x60\n    /* \"contracts/modules/Storage.sol\":5057:5121  [75e18, 300e18, 1200e18, 4800e18, 19200e18, 76800e18, 307200e18] */\n  dup3\n  add\n    /* \"contracts/modules/SponsorMatrix.sol\":124:18049  contract Nanakshahi is Storage{... */\n  mstore\n    /* \"contracts/modules/Storage.sol\":5091:5099  19200e18 */\n  0x0410d586a20a4c000000\n    /* \"contracts/modules/Storage.sol\":1313:1828  [... */\n  0x80\n    /* \"contracts/modules/Storage.sol\":5057:5121  [75e18, 300e18, 1200e18, 4800e18, 19200e18, 76800e18, 307200e18] */\n  dup3\n  add\n    /* \"contracts/modules/SponsorMatrix.sol\":124:18049  contract Nanakshahi is Storage{... */\n  mstore\n    /* \"contracts/modules/Storage.sol\":5101:5109  76800e18 */\n  0x1043561a882930000000\n    /* \"contracts/modules/Storage.sol\":1313:1828  [... */\n  0xa0\n    /* \"contracts/modules/Storage.sol\":5057:5121  [75e18, 300e18, 1200e18, 4800e18, 19200e18, 76800e18, 307200e18] */\n  dup3\n  add\n    /* \"contracts/modules/SponsorMatrix.sol\":124:18049  contract Nanakshahi is Storage{... */\n  mstore\n    /* \"contracts/modules/Storage.sol\":5111:5120  307200e18 */\n  0x410d586a20a4c0000000\n    /* \"contracts/modules/Storage.sol\":1313:1828  [... */\n  0xc0\n    /* \"contracts/modules/Storage.sol\":5057:5121  [75e18, 300e18, 1200e18, 4800e18, 19200e18, 76800e18, 307200e18] */\n  dup3\n  add\n    /* \"contracts/modules/SponsorMatrix.sol\":124:18049  contract Nanakshahi is Storage{... */\n  mstore\n    /* \"contracts/modules/Storage.sol\":5057:5121  [75e18, 300e18, 1200e18, 4800e18, 19200e18, 76800e18, 307200e18] */\n  0x13\n    /* \"contracts/modules/SponsorMatrix.sol\":124:18049  contract Nanakshahi is Storage{... */\n  sload\n    /* \"contracts/modules/Storage.sol\":5057:5121  [75e18, 300e18, 1200e18, 4800e18, 19200e18, 76800e18, 307200e18] */\n  0x07\n  0x13\n    /* \"contracts/modules/SponsorMatrix.sol\":124:18049  contract Nanakshahi is Storage{... */\n  sstore\n  dup1\n    /* \"contracts/modules/Storage.sol\":5057:5121  [75e18, 300e18, 1200e18, 4800e18, 19200e18, 76800e18, 307200e18] */\n  0x07\n    /* \"contracts/modules/SponsorMatrix.sol\":124:18049  contract Nanakshahi is Storage{... */\n  lt\n  tag_14\n  jumpi\ntag_15:\n  pop\n    /* \"contracts/modules/Storage.sol\":5057:5121  [75e18, 300e18, 1200e18, 4800e18, 19200e18, 76800e18, 307200e18] */\n  0x13\n    /* \"@openzeppelin/contracts/security/ReentrancyGuard.sol\":1821:1843  _status = _NOT_ENTERED */\n  0x00\n    /* \"contracts/modules/SponsorMatrix.sol\":124:18049  contract Nanakshahi is Storage{... */\n  mstore\n    /* \"contracts/modules/Storage.sol\":1313:1828  [... */\n  0x20\n    /* \"@openzeppelin/contracts/security/ReentrancyGuard.sol\":1821:1843  _status = _NOT_ENTERED */\n  0x00\n    /* \"contracts/modules/SponsorMatrix.sol\":124:18049  contract Nanakshahi is Storage{... */\n  keccak256\n  swap1\n    /* \"@openzeppelin/contracts/security/ReentrancyGuard.sol\":1821:1843  _status = _NOT_ENTERED */\n  0x00\n    /* \"contracts/modules/SponsorMatrix.sol\":124:18049  contract Nanakshahi is Storage{... */\ntag_16:\n    /* \"contracts/modules/Storage.sol\":5057:5121  [75e18, 300e18, 1200e18, 4800e18, 19200e18, 76800e18, 307200e18] */\n  0x07\n    /* \"contracts/modules/SponsorMatrix.sol\":124:18049  contract Nanakshahi is Storage{... */\n  dup2\n  lt\n  tag_17\n  jumpi\n  tag_19\n  tag_2\n  jump\t// in\ntag_19:\n    /* \"contracts/modules/Storage.sol\":1420:1430  100 * 1e18 */\n  0x056bc75e2d63100000\n    /* \"contracts/modules/SponsorMatrix.sol\":124:18049  contract Nanakshahi is Storage{... */\n  dup2\n  mstore\n    /* \"contracts/modules/Storage.sol\":1453:1463  200 * 1e18 */\n  0x0ad78ebc5ac6200000\n    /* \"contracts/modules/Storage.sol\":1313:1828  [... */\n  0x20\n    /* \"contracts/modules/Storage.sol\":5163:5233  [ 100e18, 200e18, 400e18, 800e18, 1600e18, 3200e18, 6400e18, 12800e18] */\n  dup3\n  add\n    /* \"contracts/modules/SponsorMatrix.sol\":124:18049  contract Nanakshahi is Storage{... */\n  mstore\n    /* \"contracts/modules/Storage.sol\":1486:1496  400 * 1e18 */\n  0x15af1d78b58c400000\n    /* \"contracts/modules/SponsorMatrix.sol\":124:18049  contract Nanakshahi is Storage{... */\n  0x40\n    /* \"contracts/modules/Storage.sol\":5163:5233  [ 100e18, 200e18, 400e18, 800e18, 1600e18, 3200e18, 6400e18, 12800e18] */\n  dup3\n  add\n    /* \"contracts/modules/SponsorMatrix.sol\":124:18049  contract Nanakshahi is Storage{... */\n  mstore\n    /* \"contracts/modules/Storage.sol\":1519:1529  800 * 1e18 */\n  0x2b5e3af16b18800000\n    /* \"contracts/modules/Storage.sol\":1313:1828  [... */\n  0x60\n    /* \"contracts/modules/Storage.sol\":5163:5233  [ 100e18, 200e18, 400e18, 800e18, 1600e18, 3200e18, 6400e18, 12800e18] */\n  dup3\n  add\n    /* \"contracts/modules/SponsorMatrix.sol\":124:18049  contract Nanakshahi is Storage{... */\n  mstore\n    /* \"contracts/modules/Storage.sol\":1552:1563  1600 * 1e18 */\n  0x56bc75e2d631000000\n    /* \"contracts/modules/Storage.sol\":1313:1828  [... */\n  0x80\n    /* \"contracts/modules/Storage.sol\":5163:5233  [ 100e18, 200e18, 400e18, 800e18, 1600e18, 3200e18, 6400e18, 12800e18] */\n  dup3\n  add\n    /* \"contracts/modules/SponsorMatrix.sol\":124:18049  contract Nanakshahi is Storage{... */\n  mstore\n    /* \"contracts/modules/Storage.sol\":1586:1597  3200 * 1e18 */\n  0xad78ebc5ac62000000\n    /* \"contracts/modules/Storage.sol\":1313:1828  [... */\n  0xa0\n    /* \"contracts/modules/Storage.sol\":5163:5233  [ 100e18, 200e18, 400e18, 800e18, 1600e18, 3200e18, 6400e18, 12800e18] */\n  dup3\n  add\n    /* \"contracts/modules/SponsorMatrix.sol\":124:18049  contract Nanakshahi is Storage{... */\n  mstore\n    /* \"contracts/modules/Storage.sol\":1620:1631  6400 * 1e18 */\n  0x015af1d78b58c4000000\n    /* \"contracts/modules/Storage.sol\":1313:1828  [... */\n  0xc0\n    /* \"contracts/modules/Storage.sol\":5163:5233  [ 100e18, 200e18, 400e18, 800e18, 1600e18, 3200e18, 6400e18, 12800e18] */\n  dup3\n  add\n    /* \"contracts/modules/SponsorMatrix.sol\":124:18049  contract Nanakshahi is Storage{... */\n  mstore\n    /* \"contracts/modules/Storage.sol\":1654:1666  12800 * 1e18 */\n  0x02b5e3af16b188000000\n    /* \"contracts/modules/Storage.sol\":1313:1828  [... */\n  0xe0\n    /* \"contracts/modules/Storage.sol\":5163:5233  [ 100e18, 200e18, 400e18, 800e18, 1600e18, 3200e18, 6400e18, 12800e18] */\n  dup3\n  add\n    /* \"contracts/modules/SponsorMatrix.sol\":124:18049  contract Nanakshahi is Storage{... */\n  mstore\n    /* \"contracts/modules/Storage.sol\":5163:5233  [ 100e18, 200e18, 400e18, 800e18, 1600e18, 3200e18, 6400e18, 12800e18] */\n  0x14\n    /* \"contracts/modules/SponsorMatrix.sol\":124:18049  contract Nanakshahi is Storage{... */\n  sload\n    /* \"contracts/modules/Storage.sol\":5163:5233  [ 100e18, 200e18, 400e18, 800e18, 1600e18, 3200e18, 6400e18, 12800e18] */\n  0x08\n  0x14\n    /* \"contracts/modules/SponsorMatrix.sol\":124:18049  contract Nanakshahi is Storage{... */\n  sstore\n  dup1\n    /* \"contracts/modules/Storage.sol\":5163:5233  [ 100e18, 200e18, 400e18, 800e18, 1600e18, 3200e18, 6400e18, 12800e18] */\n  0x08\n    /* \"contracts/modules/SponsorMatrix.sol\":124:18049  contract Nanakshahi is Storage{... */\n  lt\n  tag_20\n  jumpi\ntag_21:\n  pop\n    /* \"contracts/modules/Storage.sol\":5163:5233  [ 100e18, 200e18, 400e18, 800e18, 1600e18, 3200e18, 6400e18, 12800e18] */\n  0x14\n    /* \"@openzeppelin/contracts/security/ReentrancyGuard.sol\":1821:1843  _status = _NOT_ENTERED */\n  0x00\n    /* \"contracts/modules/SponsorMatrix.sol\":124:18049  contract Nanakshahi is Storage{... */\n  mstore\n    /* \"contracts/modules/Storage.sol\":1313:1828  [... */\n  0x20\n    /* \"@openzeppelin/contracts/security/ReentrancyGuard.sol\":1821:1843  _status = _NOT_ENTERED */\n  0x00\n    /* \"contracts/modules/SponsorMatrix.sol\":124:18049  contract Nanakshahi is Storage{... */\n  keccak256\n  swap1\n    /* \"@openzeppelin/contracts/security/ReentrancyGuard.sol\":1821:1843  _status = _NOT_ENTERED */\n  0x00\n    /* \"contracts/modules/SponsorMatrix.sol\":124:18049  contract Nanakshahi is Storage{... */\ntag_22:\n    /* \"contracts/modules/Storage.sol\":5163:5233  [ 100e18, 200e18, 400e18, 800e18, 1600e18, 3200e18, 6400e18, 12800e18] */\n  0x08\n    /* \"contracts/modules/SponsorMatrix.sol\":124:18049  contract Nanakshahi is Storage{... */\n  dup2\n  lt\n  tag_23\n  jumpi\n  tag_25\n  tag_1\n  jump\t// in\ntag_25:\n    /* \"contracts/modules/Storage.sol\":5274:5275  3 */\n  0x03\n    /* \"contracts/modules/SponsorMatrix.sol\":124:18049  contract Nanakshahi is Storage{... */\n  dup2\n  mstore\n  0x05\n    /* \"contracts/modules/Storage.sol\":1313:1828  [... */\n  0x20\n    /* \"contracts/modules/Storage.sol\":5273:5297  [3, 5, 7, 9, 11, 13, 15] */\n  dup3\n  add\n    /* \"contracts/modules/SponsorMatrix.sol\":124:18049  contract Nanakshahi is Storage{... */\n  mstore\n    /* \"contracts/modules/Storage.sol\":5057:5121  [75e18, 300e18, 1200e18, 4800e18, 19200e18, 76800e18, 307200e18] */\n  0x07\n    /* \"contracts/modules/SponsorMatrix.sol\":124:18049  contract Nanakshahi is Storage{... */\n  0x40\n    /* \"contracts/modules/Storage.sol\":5273:5297  [3, 5, 7, 9, 11, 13, 15] */\n  dup3\n  add\n    /* \"contracts/modules/SponsorMatrix.sol\":124:18049  contract Nanakshahi is Storage{... */\n  mstore\n    /* \"contracts/modules/Storage.sol\":5283:5284  9 */\n  0x09\n    /* \"contracts/modules/Storage.sol\":1313:1828  [... */\n  0x60\n    /* \"contracts/modules/Storage.sol\":5273:5297  [3, 5, 7, 9, 11, 13, 15] */\n  dup3\n  add\n    /* \"contracts/modules/SponsorMatrix.sol\":124:18049  contract Nanakshahi is Storage{... */\n  mstore\n    /* \"contracts/modules/Storage.sol\":1313:1828  [... */\n  0x0b\n  0x80\n    /* \"contracts/modules/Storage.sol\":5273:5297  [3, 5, 7, 9, 11, 13, 15] */\n  dup3\n  add\n    /* \"contracts/modules/SponsorMatrix.sol\":124:18049  contract Nanakshahi is Storage{... */\n  mstore\n    /* \"contracts/modules/Storage.sol\":5290:5292  13 */\n  0x0d\n    /* \"contracts/modules/Storage.sol\":1313:1828  [... */\n  0xa0\n    /* \"contracts/modules/Storage.sol\":5273:5297  [3, 5, 7, 9, 11, 13, 15] */\n  dup3\n  add\n    /* \"contracts/modules/SponsorMatrix.sol\":124:18049  contract Nanakshahi is Storage{... */\n  mstore\n    /* \"contracts/modules/Storage.sol\":1313:1828  [... */\n  0x0f\n  0xc0\n    /* \"contracts/modules/Storage.sol\":5273:5297  [3, 5, 7, 9, 11, 13, 15] */\n  dup3\n  add\n    /* \"contracts/modules/SponsorMatrix.sol\":124:18049  contract Nanakshahi is Storage{... */\n  mstore\n    /* \"@openzeppelin/contracts/security/ReentrancyGuard.sol\":1821:1843  _status = _NOT_ENTERED */\n  0x00\n    /* \"contracts/modules/SponsorMatrix.sol\":124:18049  contract Nanakshahi is Storage{... */\ntag_26:\n    /* \"contracts/modules/Storage.sol\":5057:5121  [75e18, 300e18, 1200e18, 4800e18, 19200e18, 76800e18, 307200e18] */\n  0x07\n    /* \"contracts/modules/SponsorMatrix.sol\":124:18049  contract Nanakshahi is Storage{... */\n  dup2\n  lt\n  tag_27\n  jumpi\n  tag_29\n  tag_2\n  jump\t// in\ntag_29:\n    /* \"contracts/modules/Storage.sol\":5344:5345  4 */\n  0x04\n    /* \"contracts/modules/SponsorMatrix.sol\":124:18049  contract Nanakshahi is Storage{... */\n  dup2\n  mstore\n  0x05\n    /* \"contracts/modules/Storage.sol\":1313:1828  [... */\n  0x20\n    /* \"contracts/modules/Storage.sol\":5343:5368  [4, 5, 6, 7, 8, 9, 10,11] */\n  dup3\n  add\n    /* \"contracts/modules/SponsorMatrix.sol\":124:18049  contract Nanakshahi is Storage{... */\n  mstore\n    /* \"contracts/modules/Storage.sol\":5350:5351  6 */\n  0x06\n    /* \"contracts/modules/SponsorMatrix.sol\":124:18049  contract Nanakshahi is Storage{... */\n  0x40\n    /* \"contracts/modules/Storage.sol\":5343:5368  [4, 5, 6, 7, 8, 9, 10,11] */\n  dup3\n  add\n    /* \"contracts/modules/SponsorMatrix.sol\":124:18049  contract Nanakshahi is Storage{... */\n  mstore\n    /* \"contracts/modules/Storage.sol\":5057:5121  [75e18, 300e18, 1200e18, 4800e18, 19200e18, 76800e18, 307200e18] */\n  0x07\n    /* \"contracts/modules/Storage.sol\":1313:1828  [... */\n  0x60\n    /* \"contracts/modules/Storage.sol\":5343:5368  [4, 5, 6, 7, 8, 9, 10,11] */\n  dup3\n  add\n    /* \"contracts/modules/SponsorMatrix.sol\":124:18049  contract Nanakshahi is Storage{... */\n  mstore\n    /* \"contracts/modules/Storage.sol\":5163:5233  [ 100e18, 200e18, 400e18, 800e18, 1600e18, 3200e18, 6400e18, 12800e18] */\n  0x08\n    /* \"contracts/modules/Storage.sol\":1313:1828  [... */\n  0x80\n    /* \"contracts/modules/Storage.sol\":5343:5368  [4, 5, 6, 7, 8, 9, 10,11] */\n  dup3\n  add\n    /* \"contracts/modules/SponsorMatrix.sol\":124:18049  contract Nanakshahi is Storage{... */\n  mstore\n    /* \"contracts/modules/Storage.sol\":5283:5284  9 */\n  0x09\n    /* \"contracts/modules/Storage.sol\":1313:1828  [... */\n  0xa0\n    /* \"contracts/modules/Storage.sol\":5343:5368  [4, 5, 6, 7, 8, 9, 10,11] */\n  dup3\n  add\n    /* \"contracts/modules/SponsorMatrix.sol\":124:18049  contract Nanakshahi is Storage{... */\n  mstore\n    /* \"contracts/modules/Storage.sol\":5362:5364  10 */\n  0x0a\n    /* \"contracts/modules/Storage.sol\":1313:1828  [... */\n  0xc0\n    /* \"contracts/modules/Storage.sol\":5343:5368  [4, 5, 6, 7, 8, 9, 10,11] */\n  dup3\n  add\n    /* \"contracts/modules/SponsorMatrix.sol\":124:18049  contract Nanakshahi is Storage{... */\n  mstore\n    /* \"contracts/modules/Storage.sol\":1313:1828  [... */\n  0x0b\n  0xe0\n    /* \"contracts/modules/Storage.sol\":5343:5368  [4, 5, 6, 7, 8, 9, 10,11] */\n  dup3\n  add\n    /* \"contracts/modules/SponsorMatrix.sol\":124:18049  contract Nanakshahi is Storage{... */\n  mstore\n    /* \"@openzeppelin/contracts/security/ReentrancyGuard.sol\":1821:1843  _status = _NOT_ENTERED */\n  0x00\n    /* \"contracts/modules/SponsorMatrix.sol\":124:18049  contract Nanakshahi is Storage{... */\ntag_30:\n    /* \"contracts/modules/Storage.sol\":5163:5233  [ 100e18, 200e18, 400e18, 800e18, 1600e18, 3200e18, 6400e18, 12800e18] */\n  0x08\n    /* \"contracts/modules/SponsorMatrix.sol\":124:18049  contract Nanakshahi is Storage{... */\n  dup2\n  lt\n  tag_31\n  jumpi\n  tag_33\n  tag_2\n  jump\t// in\ntag_33:\n    /* \"@openzeppelin/contracts/security/ReentrancyGuard.sol\":1821:1843  _status = _NOT_ENTERED */\n  0x00\n    /* \"contracts/modules/SponsorMatrix.sol\":124:18049  contract Nanakshahi is Storage{... */\n  dup2\n  mstore\n    /* \"@openzeppelin/contracts/security/ReentrancyGuard.sol\":1716:1717  1 */\n  0x01\n    /* \"contracts/modules/Storage.sol\":1313:1828  [... */\n  0x20\n    /* \"contracts/modules/Storage.sol\":5413:5436  [0, 1, 1, 1, 1, 1, 1,1] */\n  dup3\n  add\n    /* \"contracts/modules/SponsorMatrix.sol\":124:18049  contract Nanakshahi is Storage{... */\n  mstore\n    /* \"@openzeppelin/contracts/security/ReentrancyGuard.sol\":1716:1717  1 */\n  0x01\n    /* \"contracts/modules/SponsorMatrix.sol\":124:18049  contract Nanakshahi is Storage{... */\n  0x40\n    /* \"contracts/modules/Storage.sol\":5413:5436  [0, 1, 1, 1, 1, 1, 1,1] */\n  dup3\n  add\n    /* \"contracts/modules/SponsorMatrix.sol\":124:18049  contract Nanakshahi is Storage{... */\n  mstore\n    /* \"@openzeppelin/contracts/security/ReentrancyGuard.sol\":1716:1717  1 */\n  0x01\n    /* \"contracts/modules/Storage.sol\":1313:1828  [... */\n  0x60\n    /* \"contracts/modules/Storage.sol\":5413:5436  [0, 1, 1, 1, 1, 1, 1,1] */\n  dup3\n  add\n    /* \"contracts/modules/SponsorMatrix.sol\":124:18049  contract Nanakshahi is Storage{... */\n  mstore\n    /* \"@openzeppelin/contracts/security/ReentrancyGuard.sol\":1716:1717  1 */\n  0x01\n    /* \"contracts/modules/Storage.sol\":1313:1828  [... */\n  0x80\n    /* \"contracts/modules/Storage.sol\":5413:5436  [0, 1, 1, 1, 1, 1, 1,1] */\n  dup3\n  add\n    /* \"contracts/modules/SponsorMatrix.sol\":124:18049  contract Nanakshahi is Storage{... */\n  mstore\n    /* \"@openzeppelin/contracts/security/ReentrancyGuard.sol\":1716:1717  1 */\n  0x01\n    /* \"contracts/modules/Storage.sol\":1313:1828  [... */\n  0xa0\n    /* \"contracts/modules/Storage.sol\":5413:5436  [0, 1, 1, 1, 1, 1, 1,1] */\n  dup3\n  add\n    /* \"contracts/modules/SponsorMatrix.sol\":124:18049  contract Nanakshahi is Storage{... */\n  mstore\n    /* \"@openzeppelin/contracts/security/ReentrancyGuard.sol\":1716:1717  1 */\n  0x01\n    /* \"contracts/modules/Storage.sol\":1313:1828  [... */\n  0xc0\n    /* \"contracts/modules/Storage.sol\":5413:5436  [0, 1, 1, 1, 1, 1, 1,1] */\n  dup3\n  add\n    /* \"contracts/modules/SponsorMatrix.sol\":124:18049  contract Nanakshahi is Storage{... */\n  mstore\n    /* \"@openzeppelin/contracts/security/ReentrancyGuard.sol\":1716:1717  1 */\n  0x01\n    /* \"contracts/modules/Storage.sol\":1313:1828  [... */\n  0xe0\n    /* \"contracts/modules/Storage.sol\":5413:5436  [0, 1, 1, 1, 1, 1, 1,1] */\n  dup3\n  add\n    /* \"contracts/modules/SponsorMatrix.sol\":124:18049  contract Nanakshahi is Storage{... */\n  mstore\n    /* \"@openzeppelin/contracts/security/ReentrancyGuard.sol\":1821:1843  _status = _NOT_ENTERED */\n  0x00\n    /* \"contracts/modules/SponsorMatrix.sol\":124:18049  contract Nanakshahi is Storage{... */\ntag_34:\n    /* \"contracts/modules/Storage.sol\":5163:5233  [ 100e18, 200e18, 400e18, 800e18, 1600e18, 3200e18, 6400e18, 12800e18] */\n  0x08\n    /* \"contracts/modules/SponsorMatrix.sol\":124:18049  contract Nanakshahi is Storage{... */\n  dup2\n  lt\n  tag_35\n  jumpi\n    /* \"@openzeppelin/contracts/security/ReentrancyGuard.sol\":1716:1717  1 */\n  0x01\n    /* \"contracts/modules/Storage.sol\":7098:7099  1 */\n  0x36\n    /* \"contracts/modules/SponsorMatrix.sol\":124:18049  contract Nanakshahi is Storage{... */\n  sstore\n    /* \"@openzeppelin/contracts/security/ReentrancyGuard.sol\":1716:1717  1 */\n  0x01\n    /* \"contracts/modules/Storage.sol\":7144:7145  1 */\n  0x37\n    /* \"contracts/modules/SponsorMatrix.sol\":124:18049  contract Nanakshahi is Storage{... */\n  sstore\n    /* \"@openzeppelin/contracts/security/ReentrancyGuard.sol\":1821:1843  _status = _NOT_ENTERED */\n  0x00\n    /* \"contracts/modules/Storage.sol\":7189:7190  0 */\n  0x38\n    /* \"contracts/modules/SponsorMatrix.sol\":124:18049  contract Nanakshahi is Storage{... */\n  sstore\n    /* \"@openzeppelin/contracts/security/ReentrancyGuard.sol\":1821:1843  _status = _NOT_ENTERED */\n  0x00\n    /* \"contracts/modules/Storage.sol\":7235:7236  0 */\n  0x39\n    /* \"contracts/modules/SponsorMatrix.sol\":124:18049  contract Nanakshahi is Storage{... */\n  sstore\n    /* \"@openzeppelin/contracts/security/ReentrancyGuard.sol\":1821:1843  _status = _NOT_ENTERED */\n  0x00\n    /* \"contracts/modules/Storage.sol\":7275:7276  0 */\n  0x3a\n    /* \"contracts/modules/SponsorMatrix.sol\":124:18049  contract Nanakshahi is Storage{... */\n  sstore\n  mload(0x40)\n  dataSize(sub_0)\n  swap1\n  dup2\n  dataOffset(sub_0)\n  dup3\n  codecopy\n  return\ntag_35:\n    /* \"@openzeppelin/contracts/security/ReentrancyGuard.sol\":1716:1717  1 */\n  0x01\n    /* \"contracts/modules/SponsorMatrix.sol\":124:18049  contract Nanakshahi is Storage{... */\n  swap1\n    /* \"contracts/modules/Storage.sol\":1313:1828  [... */\n  0x20\n    /* \"contracts/modules/SponsorMatrix.sol\":124:18049  contract Nanakshahi is Storage{... */\n  0xff\n  dup5\n  mload\n  and\n  swap4\n  add\n  swap3\n  dup2\n    /* \"contracts/modules/Storage.sol\":5413:5436  [0, 1, 1, 1, 1, 1, 1,1] */\n  0x24\n    /* \"contracts/modules/SponsorMatrix.sol\":124:18049  contract Nanakshahi is Storage{... */\n  add\n  sstore\n  add\n  jump(tag_34)\ntag_31:\n    /* \"@openzeppelin/contracts/security/ReentrancyGuard.sol\":1716:1717  1 */\n  0x01\n    /* \"contracts/modules/SponsorMatrix.sol\":124:18049  contract Nanakshahi is Storage{... */\n  swap1\n    /* \"contracts/modules/Storage.sol\":1313:1828  [... */\n  0x20\n    /* \"contracts/modules/SponsorMatrix.sol\":124:18049  contract Nanakshahi is Storage{... */\n  0xff\n  dup5\n  mload\n  and\n  swap4\n  add\n  swap3\n  dup2\n    /* \"contracts/modules/Storage.sol\":5343:5368  [4, 5, 6, 7, 8, 9, 10,11] */\n  0x1c\n    /* \"contracts/modules/SponsorMatrix.sol\":124:18049  contract Nanakshahi is Storage{... */\n  add\n  sstore\n  add\n  jump(tag_30)\ntag_27:\n    /* \"@openzeppelin/contracts/security/ReentrancyGuard.sol\":1716:1717  1 */\n  0x01\n    /* \"contracts/modules/SponsorMatrix.sol\":124:18049  contract Nanakshahi is Storage{... */\n  swap1\n    /* \"contracts/modules/Storage.sol\":1313:1828  [... */\n  0x20\n    /* \"contracts/modules/SponsorMatrix.sol\":124:18049  contract Nanakshahi is Storage{... */\n  0xff\n  dup5\n  mload\n  and\n  swap4\n  add\n  swap3\n  dup2\n    /* \"contracts/modules/Storage.sol\":5273:5297  [3, 5, 7, 9, 11, 13, 15] */\n  0x15\n    /* \"contracts/modules/SponsorMatrix.sol\":124:18049  contract Nanakshahi is Storage{... */\n  add\n  sstore\n  add\n  jump(tag_26)\ntag_23:\n  dup2\n  mload\n  sub(shl(0x50, 0x01), 0x01)\n  and\n  dup2\n  dup5\n  add\n  sstore\n    /* \"contracts/modules/Storage.sol\":1313:1828  [... */\n  0x20\n    /* \"contracts/modules/SponsorMatrix.sol\":124:18049  contract Nanakshahi is Storage{... */\n  swap1\n  swap2\n  add\n  swap1\n    /* \"@openzeppelin/contracts/security/ReentrancyGuard.sol\":1716:1717  1 */\n  0x01\n    /* \"contracts/modules/SponsorMatrix.sol\":124:18049  contract Nanakshahi is Storage{... */\n  add\n  jump(tag_22)\ntag_20:\n    /* \"contracts/modules/Storage.sol\":5163:5233  [ 100e18, 200e18, 400e18, 800e18, 1600e18, 3200e18, 6400e18, 12800e18] */\n  0x14\n    /* \"@openzeppelin/contracts/security/ReentrancyGuard.sol\":1821:1843  _status = _NOT_ENTERED */\n  0x00\n    /* \"contracts/modules/SponsorMatrix.sol\":124:18049  contract Nanakshahi is Storage{... */\n  mstore\n  tag_37\n  swap1\n  0xce6d7b5282bd9a3661ae061feed1dbda4e52ab073b1f9285be6e155d9c38d4ec\n  add\n  0xce6d7b5282bd9a3661ae061feed1dbda4e52ab073b1f9285be6e155d9c38d4f4\n  tag_3\n  jump\t// in\ntag_37:\n  dup2\n  jump(tag_21)\ntag_17:\n  dup2\n  mload\n  sub(shl(0x50, 0x01), 0x01)\n  and\n  dup2\n  dup5\n  add\n  sstore\n    /* \"contracts/modules/Storage.sol\":1313:1828  [... */\n  0x20\n    /* \"contracts/modules/SponsorMatrix.sol\":124:18049  contract Nanakshahi is Storage{... */\n  swap1\n  swap2\n  add\n  swap1\n    /* \"@openzeppelin/contracts/security/ReentrancyGuard.sol\":1716:1717  1 */\n  0x01\n    /* \"contracts/modules/SponsorMatrix.sol\":124:18049  contract Nanakshahi is Storage{... */\n  add\n  jump(tag_16)\ntag_14:\n    /* \"contracts/modules/Storage.sol\":5057:5121  [75e18, 300e18, 1200e18, 4800e18, 19200e18, 76800e18, 307200e18] */\n  0x13\n    /* \"@openzeppelin/contracts/security/ReentrancyGuard.sol\":1821:1843  _status = _NOT_ENTERED */\n  0x00\n    /* \"contracts/modules/SponsorMatrix.sol\":124:18049  contract Nanakshahi is Storage{... */\n  mstore\n  tag_38\n  swap1\n  0x66de8ffda797e3de9c05e8fc57b3bf0ec28a930d40b0d285d93c06501cf6a090\n  add\n  0x66de8ffda797e3de9c05e8fc57b3bf0ec28a930d40b0d285d93c06501cf6a097\n  tag_3\n  jump\t// in\ntag_38:\n  dup2\n  jump(tag_15)\ntag_11:\n  dup2\n  mload\n  sub(shl(0x50, 0x01), 0x01)\n  and\n  dup2\n  dup5\n  add\n  sstore\n    /* \"contracts/modules/Storage.sol\":1313:1828  [... */\n  0x20\n    /* \"contracts/modules/SponsorMatrix.sol\":124:18049  contract Nanakshahi is Storage{... */\n  swap1\n  swap2\n  add\n  swap1\n    /* \"@openzeppelin/contracts/security/ReentrancyGuard.sol\":1716:1717  1 */\n  0x01\n    /* \"contracts/modules/SponsorMatrix.sol\":124:18049  contract Nanakshahi is Storage{... */\n  add\n  jump(tag_10)\ntag_8:\n    /* \"contracts/modules/Storage.sol\":1313:1828  [... */\n  0x0b\n    /* \"@openzeppelin/contracts/security/ReentrancyGuard.sol\":1821:1843  _status = _NOT_ENTERED */\n  0x00\n    /* \"contracts/modules/SponsorMatrix.sol\":124:18049  contract Nanakshahi is Storage{... */\n  mstore\n  tag_39\n  swap1\n  0x0175b7a638427703f0dbe7bb9bbf987a2551717b34e79f33b5b1008d1fa01db9\n  add\n  0x0175b7a638427703f0dbe7bb9bbf987a2551717b34e79f33b5b1008d1fa01dc8\n  tag_3\n  jump\t// in\ntag_39:\n  0x00\n  jump(tag_9)\ntag_6:\n  shl(0xe0, 0x4e487b71)\n    /* \"@openzeppelin/contracts/security/ReentrancyGuard.sol\":1821:1843  _status = _NOT_ENTERED */\n  0x00\n    /* \"contracts/modules/SponsorMatrix.sol\":124:18049  contract Nanakshahi is Storage{... */\n  mstore\n  mstore(0x04, 0x41)\n  0x24\n    /* \"@openzeppelin/contracts/security/ReentrancyGuard.sol\":1821:1843  _status = _NOT_ENTERED */\n  0x00\n    /* \"contracts/modules/SponsorMatrix.sol\":124:18049  contract Nanakshahi is Storage{... */\n  revert\ntag_4:\n  0x00\n  dup1\n  revert\ntag_1:\n  mload(0x40)\n  swap1\n  0xe0\n  dup3\n  add\n  sub(shl(0x40, 0x01), 0x01)\n  dup2\n  gt\n  dup4\n  dup3\n  lt\n  or\n  tag_6\n  jumpi\n  0x40\n  mstore\n  jump\t// out\ntag_2:\n  mload(0x40)\n  swap1\n  0x0100\n  dup3\n  add\n  sub(shl(0x40, 0x01), 0x01)\n  dup2\n  gt\n  dup4\n  dup3\n  lt\n  or\n  tag_6\n  jumpi\n  0x40\n  mstore\n  jump\t// out\ntag_3:\n  dup2\n  dup2\n  lt\n  tag_45\n  jumpi\n  pop\n  pop\n  jump\t// out\ntag_45:\n  0x00\n  dup2\n  sstore\n  0x01\n  add\n  jump(tag_3)\nstop\n\nsub_0: assembly {\n        /* \"contracts/modules/SponsorMatrix.sol\":124:18049  contract Nanakshahi is Storage{... */\n      0x80\n      dup1\n      0x40\n      mstore\n      jumpi(tag_28, iszero(lt(calldatasize, 0x04)))\n      0x00\n      dup1\n      revert\n    tag_28:\n      shr(0xe0, calldataload(0x00))\n      swap1\n      dup2\n      0x01c234a8\n      eq\n      tag_30\n      jumpi\n      pop\n      dup1\n      0x2132d204\n      eq\n      tag_32\n      jumpi\n      dup1\n      0x2350268f\n      eq\n      tag_34\n      jumpi\n      dup1\n      0x24513088\n      eq\n      tag_36\n      jumpi\n      dup1\n      0x2a891534\n      eq\n      tag_38\n      jumpi\n      dup1\n      0x2f48ab7d\n      eq\n      tag_40\n      jumpi\n      dup1\n      0x3080b5bc\n      eq\n      tag_42\n      jumpi\n      dup1\n      0x32bc298c\n      eq\n      tag_44\n      jumpi\n      dup1\n      0x32fcd966\n      eq\n      tag_46\n      jumpi\n      dup1\n      0x375b43b4\n      eq\n      tag_48\n      jumpi\n      dup1\n      0x39ab3603\n      eq\n      tag_50\n      jumpi\n      dup1\n      0x45977d03\n      eq\n      tag_52\n      jumpi\n      dup1\n      0x58c7d352\n      eq\n      tag_54\n      jumpi\n      dup1\n      0x76f5f700\n      eq\n      tag_56\n      jumpi\n      dup1\n      0x78f6ad6d\n      eq\n      tag_58\n      jumpi\n      dup1\n      0x7cdc65f2\n      eq\n      tag_60\n      jumpi\n      dup1\n      0x956a3228\n      eq\n      tag_62\n      jumpi\n      dup1\n      0xae4708dc\n      eq\n      tag_64\n      jumpi\n      dup1\n      0xbff1f9e1\n      eq\n      tag_66\n      jumpi\n      dup1\n      0xc216212a\n      eq\n      tag_68\n      jumpi\n      dup1\n      0xc8df2908\n      eq\n      tag_70\n      jumpi\n      dup1\n      0xc9ed0708\n      eq\n      tag_72\n      jumpi\n      dup1\n      0xca8e9121\n      eq\n      tag_74\n      jumpi\n      dup1\n      0xd0a2fd79\n      eq\n      tag_76\n      jumpi\n      dup1\n      0xd54d6ddb\n      eq\n      tag_78\n      jumpi\n      dup1\n      0xe898fc38\n      eq\n      tag_80\n      jumpi\n      dup1\n      0xe9e34a16\n      eq\n      tag_82\n      jumpi\n      dup1\n      0xebe0ff15\n      eq\n      tag_84\n      jumpi\n      dup1\n      0xec597e6f\n      eq\n      tag_86\n      jumpi\n      dup1\n      0xf207564e\n      eq\n      tag_88\n      jumpi\n      dup1\n      0xf5d74d93\n      eq\n      tag_90\n      jumpi\n      0xfddc806f\n      eq\n      tag_92\n      jumpi\n      0x00\n      dup1\n      revert\n    tag_92:\n      jumpi(tag_96, callvalue)\n      jumpi(tag_96, slt(add(not(0x03), calldatasize), 0x00))\n      0x20\n        /* \"contracts/modules/Storage.sol\":7152:7190  uint public currentWeeklyStartTime = 0 */\n      0x38\n        /* \"contracts/modules/SponsorMatrix.sol\":124:18049  contract Nanakshahi is Storage{... */\n      sload\n      mload(0x40)\n      swap1\n      dup2\n      mstore\n      return\n    tag_96:\n      0x00\n      dup1\n      revert\n    tag_90:\n      jumpi(tag_96, callvalue)\n      jumpi(tag_96, slt(add(not(0x03), calldatasize), 0x00))\n      sload(0x04)\n      mload(0x40)\n      sub(shl(0xa0, 0x01), 0x01)\n      swap1\n      swap2\n      and\n      dup2\n      mstore\n      0x20\n      swap1\n      return\n    tag_88:\n      jumpi(tag_96, callvalue)\n      jumpi(tag_96, slt(add(not(0x03), calldatasize), 0x20))\n      calldataload(0x04)\n        /* \"contracts/modules/SponsorMatrix.sol\":298:308  msg.sender */\n      caller\n        /* \"contracts/modules/SponsorMatrix.sol\":124:18049  contract Nanakshahi is Storage{... */\n      0x00\n      mstore\n        /* \"contracts/modules/SponsorMatrix.sol\":286:297  addressToId */\n      0x0c\n        /* \"contracts/modules/SponsorMatrix.sol\":124:18049  contract Nanakshahi is Storage{... */\n      0x20\n      mstore\n      jumpi(tag_106, sload(keccak256(0x00, 0x40)))\n      dup1\n      0x00\n      mstore\n        /* \"contracts/modules/SponsorMatrix.sol\":356:361  users */\n      0x0d\n        /* \"contracts/modules/SponsorMatrix.sol\":124:18049  contract Nanakshahi is Storage{... */\n      0x20\n      mstore\n        /* \"contracts/modules/SponsorMatrix.sol\":356:376  users[_sponsorId].id */\n      0x03\n        /* \"contracts/modules/SponsorMatrix.sol\":124:18049  contract Nanakshahi is Storage{... */\n      keccak256(0x00, 0x40)\n        /* \"contracts/modules/SponsorMatrix.sol\":356:376  users[_sponsorId].id */\n      add\n        /* \"contracts/modules/SponsorMatrix.sol\":124:18049  contract Nanakshahi is Storage{... */\n      sload\n        /* \"contracts/modules/SponsorMatrix.sol\":356:380  users[_sponsorId].id > 0 */\n      iszero\n        /* \"contracts/modules/SponsorMatrix.sol\":124:18049  contract Nanakshahi is Storage{... */\n      tag_108\n      jumpi\n      sload(0x01)\n      0x00\n      swap1\n      0x20\n      swap1\n        /* \"contracts/modules/SponsorMatrix.sol\":469:526  usdt.transferFrom(msg.sender, address(this), packages[0]) */\n      tag_110\n      swap1\n      sub(shl(0xa0, 0x01), 0x01)\n        /* \"contracts/modules/SponsorMatrix.sol\":124:18049  contract Nanakshahi is Storage{... */\n      and\n        /* \"contracts/modules/SponsorMatrix.sol\":514:525  packages[0] */\n      tag_111\n      tag_2\n      jump\t// in\n    tag_111:\n        /* \"contracts/modules/SponsorMatrix.sol\":124:18049  contract Nanakshahi is Storage{... */\n      swap1\n      sload\n      mload(0x40)\n      shl(0xe0, 0x23b872dd)\n        /* \"contracts/modules/SponsorMatrix.sol\":469:526  usdt.transferFrom(msg.sender, address(this), packages[0]) */\n      dup2\n      mstore\n        /* \"contracts/modules/SponsorMatrix.sol\":298:308  msg.sender */\n      caller\n        /* \"contracts/modules/SponsorMatrix.sol\":124:18049  contract Nanakshahi is Storage{... */\n      0x04\n        /* \"contracts/modules/SponsorMatrix.sol\":469:526  usdt.transferFrom(msg.sender, address(this), packages[0]) */\n      dup3\n      add\n        /* \"contracts/modules/SponsorMatrix.sol\":124:18049  contract Nanakshahi is Storage{... */\n      mstore\n        /* \"contracts/modules/SponsorMatrix.sol\":507:511  this */\n      address\n        /* \"contracts/modules/SponsorMatrix.sol\":124:18049  contract Nanakshahi is Storage{... */\n      0x24\n      dup3\n      add\n      mstore\n        /* \"contracts/modules/SponsorMatrix.sol\":356:376  users[_sponsorId].id */\n      0x03\n        /* \"contracts/modules/SponsorMatrix.sol\":124:18049  contract Nanakshahi is Storage{... */\n      swap3\n      swap1\n      swap3\n      shl\n      shr\n      0x44\n      dup3\n      add\n      mstore\n      swap4\n      dup5\n      swap3\n      dup4\n      swap2\n      swap1\n      dup3\n      swap1\n      0x64\n      dup3\n      add\n      swap1\n      jump\n        /* \"contracts/modules/SponsorMatrix.sol\":469:526  usdt.transferFrom(msg.sender, address(this), packages[0]) */\n    tag_110:\n      sub\n      swap3\n      gas\n      call\n      dup1\n      iszero\n      tag_112\n      jumpi\n      tag_114\n      jumpi\n        /* \"contracts/modules/SponsorMatrix.sol\":124:18049  contract Nanakshahi is Storage{... */\n    tag_115:\n      pop\n        /* \"contracts/modules/SponsorMatrix.sol\":602:614  defaultRefId */\n      0x05\n        /* \"contracts/modules/SponsorMatrix.sol\":124:18049  contract Nanakshahi is Storage{... */\n      sload\n      swap1\n        /* \"contracts/modules/SponsorMatrix.sol\":602:627  defaultRefId + totalUsers */\n      tag_116\n        /* \"contracts/modules/SponsorMatrix.sol\":617:627  totalUsers */\n      0x06\n        /* \"contracts/modules/SponsorMatrix.sol\":124:18049  contract Nanakshahi is Storage{... */\n      sload\n        /* \"contracts/modules/SponsorMatrix.sol\":602:627  defaultRefId + totalUsers */\n      dup1\n      swap4\n      tag_13\n      jump\t// in\n    tag_116:\n        /* \"contracts/modules/SponsorMatrix.sol\":124:18049  contract Nanakshahi is Storage{... */\n      swap2\n      0x01\n      dup2\n      add\n      dup1\n      swap2\n      gt\n      tag_142\n      jumpi\n        /* \"contracts/modules/SponsorMatrix.sol\":617:627  totalUsers */\n      0x06\n        /* \"contracts/modules/SponsorMatrix.sol\":124:18049  contract Nanakshahi is Storage{... */\n      sstore\n        /* \"contracts/modules/SponsorMatrix.sol\":298:308  msg.sender */\n      caller\n        /* \"contracts/modules/SponsorMatrix.sol\":124:18049  contract Nanakshahi is Storage{... */\n      0x00\n      mstore\n        /* \"contracts/modules/SponsorMatrix.sol\":286:297  addressToId */\n      0x0c\n        /* \"contracts/modules/SponsorMatrix.sol\":124:18049  contract Nanakshahi is Storage{... */\n      0x20\n      mstore\n      dup2\n      keccak256(0x00, 0x40)\n      sstore\n      dup2\n      0x00\n      mstore\n        /* \"contracts/modules/SponsorMatrix.sol\":356:361  users */\n      0x0d\n        /* \"contracts/modules/SponsorMatrix.sol\":124:18049  contract Nanakshahi is Storage{... */\n      0x20\n      mstore\n      keccak256(0x00, 0x40)\n        /* \"contracts/modules/SponsorMatrix.sol\":298:308  msg.sender */\n      swap1\n      caller\n        /* \"contracts/modules/SponsorMatrix.sol\":124:18049  contract Nanakshahi is Storage{... */\n      shl(0xa0, 0xffffffffffffffffffffffff)\n      dup4\n      sload\n      and\n      or\n      dup3\n      sstore\n        /* \"contracts/modules/SponsorMatrix.sol\":822:837  block.timestamp */\n      timestamp\n        /* \"contracts/modules/SponsorMatrix.sol\":804:819  user.checkpoint */\n      0x02\n      dup4\n      add\n        /* \"contracts/modules/SponsorMatrix.sol\":124:18049  contract Nanakshahi is Storage{... */\n      sstore\n        /* \"contracts/modules/SponsorMatrix.sol\":848:855  user.id */\n      dup3\n        /* \"contracts/modules/SponsorMatrix.sol\":356:376  users[_sponsorId].id */\n      0x03\n        /* \"contracts/modules/SponsorMatrix.sol\":848:855  user.id */\n      dup4\n      add\n        /* \"contracts/modules/SponsorMatrix.sol\":124:18049  contract Nanakshahi is Storage{... */\n      sstore\n      0x04\n        /* \"contracts/modules/SponsorMatrix.sol\":878:892  user.sponsorId */\n      dup3\n      add\n        /* \"contracts/modules/SponsorMatrix.sol\":124:18049  contract Nanakshahi is Storage{... */\n      dup2\n      dup2\n      sstore\n      0x01\n        /* \"contracts/modules/SponsorMatrix.sol\":617:627  totalUsers */\n      0x06\n        /* \"contracts/modules/SponsorMatrix.sol\":916:926  user.level */\n      dup5\n      add\n        /* \"contracts/modules/SponsorMatrix.sol\":124:18049  contract Nanakshahi is Storage{... */\n      sstore\n        /* \"contracts/modules/SponsorMatrix.sol\":961:972  packages[0] */\n      tag_119\n      tag_2\n      jump\t// in\n    tag_119:\n        /* \"contracts/modules/SponsorMatrix.sol\":124:18049  contract Nanakshahi is Storage{... */\n      swap1\n      sload\n      swap1\n        /* \"contracts/modules/SponsorMatrix.sol\":356:376  users[_sponsorId].id */\n      0x03\n        /* \"contracts/modules/SponsorMatrix.sol\":124:18049  contract Nanakshahi is Storage{... */\n      shl\n      shr\n        /* \"contracts/modules/SponsorMatrix.sol\":941:958  user.totalDeposit */\n      0x0a\n      dup5\n      add\n        /* \"contracts/modules/SponsorMatrix.sol\":124:18049  contract Nanakshahi is Storage{... */\n      sstore\n        /* \"contracts/modules/SponsorMatrix.sol\":822:837  block.timestamp */\n      timestamp\n        /* \"contracts/modules/SponsorMatrix.sol\":983:1004  user.registrationTime */\n      0x0f\n      dup5\n      add\n        /* \"contracts/modules/SponsorMatrix.sol\":124:18049  contract Nanakshahi is Storage{... */\n      sstore\n      dup2\n      0x00\n      mstore\n        /* \"contracts/modules/SponsorMatrix.sol\":356:361  users */\n      0x0d\n        /* \"contracts/modules/SponsorMatrix.sol\":124:18049  contract Nanakshahi is Storage{... */\n      0x20\n      mstore\n        /* \"contracts/modules/SponsorMatrix.sol\":1088:1116  users[_sponsorId].directTeam */\n      0x07\n        /* \"contracts/modules/SponsorMatrix.sol\":124:18049  contract Nanakshahi is Storage{... */\n      keccak256(0x00, 0x40)\n        /* \"contracts/modules/SponsorMatrix.sol\":1088:1116  users[_sponsorId].directTeam */\n      add\n        /* \"contracts/modules/SponsorMatrix.sol\":124:18049  contract Nanakshahi is Storage{... */\n      dup1\n      sload\n      swap1\n      0x01\n      dup3\n      add\n      dup1\n      swap3\n      gt\n      tag_142\n      jumpi\n      sstore\n      dup2\n      0x00\n      mstore\n        /* \"contracts/modules/SponsorMatrix.sol\":1132:1147  directReferrals */\n      0x12\n        /* \"contracts/modules/SponsorMatrix.sol\":124:18049  contract Nanakshahi is Storage{... */\n      0x20\n      mstore\n        /* \"contracts/modules/SponsorMatrix.sol\":1132:1175  directReferrals[_sponsorId].push(newUserId) */\n      tag_122\n        /* \"contracts/modules/SponsorMatrix.sol\":124:18049  contract Nanakshahi is Storage{... */\n      dup5\n      keccak256(0x00, 0x40)\n        /* \"contracts/modules/SponsorMatrix.sol\":1132:1175  directReferrals[_sponsorId].push(newUserId) */\n      tag_19\n      jump\t// in\n    tag_122:\n        /* \"contracts/modules/SponsorMatrix.sol\":1088:1116  users[_sponsorId].directTeam */\n      0x07\n        /* \"contracts/modules/SponsorMatrix.sol\":124:18049  contract Nanakshahi is Storage{... */\n      sload\n      shl(0x40, 0x01)\n      dup2\n      lt\n      iszero\n      tag_123\n      jumpi\n      dup1\n      0x01\n      tag_125\n      swap3\n      add\n        /* \"contracts/modules/SponsorMatrix.sol\":1088:1116  users[_sponsorId].directTeam */\n      0x07\n        /* \"contracts/modules/SponsorMatrix.sol\":124:18049  contract Nanakshahi is Storage{... */\n      sstore\n        /* \"contracts/modules/SponsorMatrix.sol\":1088:1116  users[_sponsorId].directTeam */\n      0x07\n        /* \"contracts/modules/SponsorMatrix.sol\":124:18049  contract Nanakshahi is Storage{... */\n      tag_3\n      jump\t// in\n    tag_125:\n      dup2\n      sload\n      swap1\n        /* \"contracts/modules/SponsorMatrix.sol\":356:376  users[_sponsorId].id */\n      0x03\n        /* \"contracts/modules/SponsorMatrix.sol\":124:18049  contract Nanakshahi is Storage{... */\n      shl\n      swap1\n      dup7\n      dup3\n      shl\n      swap2\n      not(0x00)\n      swap1\n      shl\n      not\n      and\n      or\n      swap1\n      sstore\n        /* \"contracts/modules/SponsorMatrix.sol\":1257:1276  communityAccPerUser */\n      0x09\n        /* \"contracts/modules/SponsorMatrix.sol\":124:18049  contract Nanakshahi is Storage{... */\n      sload\n      dup5\n      0x00\n      mstore\n        /* \"contracts/modules/SponsorMatrix.sol\":941:958  user.totalDeposit */\n      0x0a\n        /* \"contracts/modules/SponsorMatrix.sol\":124:18049  contract Nanakshahi is Storage{... */\n      0x20\n      mstore\n      keccak256(0x00, 0x40)\n      sstore\n      0x00\n      0x00\n      swap1\n      dup4\n      0x00\n      mstore\n        /* \"contracts/modules/SponsorMatrix.sol\":7725:7737  matrixDirect */\n      0x11\n        /* \"contracts/modules/SponsorMatrix.sol\":124:18049  contract Nanakshahi is Storage{... */\n      0x20\n      mstore\n        /* \"contracts/modules/SponsorMatrix.sol\":804:819  user.checkpoint */\n      0x02\n        /* \"contracts/modules/SponsorMatrix.sol\":124:18049  contract Nanakshahi is Storage{... */\n      sload(keccak256(0x00, 0x40))\n        /* \"contracts/modules/SponsorMatrix.sol\":7725:7753  matrixDirect[_sponsorId] < 2 */\n      lt\n        /* \"contracts/modules/SponsorMatrix.sol\":7722:8722  if(matrixDirect[_sponsorId] < 2) {... */\n      0x00\n        /* \"contracts/modules/SponsorMatrix.sol\":804:819  user.checkpoint */\n      eq\n      tag_126\n      jumpi\n        /* \"contracts/modules/SponsorMatrix.sol\":124:18049  contract Nanakshahi is Storage{... */\n      pop\n      pop\n      dup4\n      0x00\n      mstore\n        /* \"contracts/modules/SponsorMatrix.sol\":356:361  users */\n      0x0d\n        /* \"contracts/modules/SponsorMatrix.sol\":124:18049  contract Nanakshahi is Storage{... */\n      0x20\n      mstore\n      dup2\n        /* \"contracts/modules/SponsorMatrix.sol\":602:614  defaultRefId */\n      0x05\n        /* \"contracts/modules/SponsorMatrix.sol\":124:18049  contract Nanakshahi is Storage{... */\n      keccak256(0x00, 0x40)\n        /* \"contracts/modules/SponsorMatrix.sol\":7770:7796  users[_newUserId].uplineId */\n      add\n        /* \"contracts/modules/SponsorMatrix.sol\":124:18049  contract Nanakshahi is Storage{... */\n      sstore\n      dup2\n      0x00\n      mstore\n        /* \"contracts/modules/SponsorMatrix.sol\":7725:7737  matrixDirect */\n      0x11\n        /* \"contracts/modules/SponsorMatrix.sol\":124:18049  contract Nanakshahi is Storage{... */\n      0x20\n      mstore\n      keccak256(0x00, 0x40)\n      dup1\n      sload\n      swap1\n      0x01\n      dup3\n      add\n      dup1\n      swap3\n      gt\n      tag_142\n      jumpi\n      sstore\n        /* \"contracts/modules/SponsorMatrix.sol\":7868:7889  uplineId = _sponsorId */\n      dup2\n        /* \"contracts/modules/SponsorMatrix.sol\":7722:8722  if(matrixDirect[_sponsorId] < 2) {... */\n    tag_130:\n        /* \"contracts/modules/SponsorMatrix.sol\":124:18049  contract Nanakshahi is Storage{... */\n      0x00\n        /* \"contracts/modules/SponsorMatrix.sol\":8784:9017  for(uint k=0; k<maxLayers; k++) {... */\n      swap1\n        /* \"contracts/modules/SponsorMatrix.sol\":8798:8809  k<maxLayers */\n    tag_131:\n        /* \"contracts/modules/SponsorMatrix.sol\":983:1004  user.registrationTime */\n      0x0f\n        /* \"contracts/modules/SponsorMatrix.sol\":8798:8809  k<maxLayers */\n      dup3\n      lt\n      tag_132\n      jumpi\n        /* \"contracts/modules/SponsorMatrix.sol\":8784:9017  for(uint k=0; k<maxLayers; k++) {... */\n    tag_133:\n        /* \"contracts/modules/SponsorMatrix.sol\":1454:1465  packages[0] */\n      pop\n      pop\n        /* \"contracts/modules/SponsorMatrix.sol\":1404:1570  user.deposits.push(Deposit({... */\n      tag_134\n        /* \"contracts/modules/SponsorMatrix.sol\":1454:1465  packages[0] */\n      tag_135\n      tag_2\n      jump\t// in\n    tag_135:\n        /* \"contracts/modules/SponsorMatrix.sol\":124:18049  contract Nanakshahi is Storage{... */\n      swap1\n      sload\n      mload(0x40)\n      swap2\n        /* \"contracts/modules/SponsorMatrix.sol\":356:376  users[_sponsorId].id */\n      0x03\n        /* \"contracts/modules/SponsorMatrix.sol\":124:18049  contract Nanakshahi is Storage{... */\n      shl\n      shr\n      tag_136\n      dup3\n      tag_8\n      jump\t// in\n    tag_136:\n      dup2\n      mstore\n      0x00\n      0x20\n        /* \"contracts/modules/SponsorMatrix.sol\":1423:1569  Deposit({... */\n      dup3\n      add\n        /* \"contracts/modules/SponsorMatrix.sol\":124:18049  contract Nanakshahi is Storage{... */\n      mstore\n        /* \"contracts/modules/SponsorMatrix.sol\":822:837  block.timestamp */\n      timestamp\n        /* \"contracts/modules/SponsorMatrix.sol\":124:18049  contract Nanakshahi is Storage{... */\n      0x40\n        /* \"contracts/modules/SponsorMatrix.sol\":1423:1569  Deposit({... */\n      dup3\n      add\n        /* \"contracts/modules/SponsorMatrix.sol\":124:18049  contract Nanakshahi is Storage{... */\n      mstore\n      0x01\n        /* \"contracts/modules/SponsorMatrix.sol\":1423:1569  Deposit({... */\n      0x60\n      dup3\n      add\n        /* \"contracts/modules/SponsorMatrix.sol\":124:18049  contract Nanakshahi is Storage{... */\n      mstore\n      0x01\n        /* \"contracts/modules/SponsorMatrix.sol\":1404:1417  user.deposits */\n      dup6\n      add\n        /* \"contracts/modules/SponsorMatrix.sol\":1404:1570  user.deposits.push(Deposit({... */\n      tag_14\n      jump\t// in\n    tag_134:\n        /* \"contracts/modules/SponsorMatrix.sol\":1636:1647  packages[0] */\n      tag_137\n      tag_2\n      jump\t// in\n    tag_137:\n        /* \"contracts/modules/SponsorMatrix.sol\":124:18049  contract Nanakshahi is Storage{... */\n      swap1\n      sload\n      swap1\n        /* \"contracts/modules/SponsorMatrix.sol\":356:376  users[_sponsorId].id */\n      0x03\n        /* \"contracts/modules/SponsorMatrix.sol\":124:18049  contract Nanakshahi is Storage{... */\n      shl\n      shr\n      swap1\n        /* \"contracts/modules/SponsorMatrix.sol\":602:614  defaultRefId */\n      0x05\n        /* \"contracts/modules/SponsorMatrix.sol\":124:18049  contract Nanakshahi is Storage{... */\n      dup3\n      mul\n      dup3\n      iszero\n      swap3\n      dup1\n      dup3\n      div\n        /* \"contracts/modules/SponsorMatrix.sol\":602:614  defaultRefId */\n      0x05\n        /* \"contracts/modules/SponsorMatrix.sol\":124:18049  contract Nanakshahi is Storage{... */\n      eq\n      dup5\n      or\n      iszero\n      tag_142\n      jumpi\n        /* \"contracts/modules/SponsorMatrix.sol\":1776:1778  60 */\n      0x3c\n        /* \"contracts/modules/SponsorMatrix.sol\":124:18049  contract Nanakshahi is Storage{... */\n      dup2\n      mul\n      swap4\n      dup2\n      dup6\n      div\n        /* \"contracts/modules/SponsorMatrix.sol\":1776:1778  60 */\n      0x3c\n        /* \"contracts/modules/SponsorMatrix.sol\":124:18049  contract Nanakshahi is Storage{... */\n      eq\n      dup2\n      or\n      iszero\n      tag_142\n      jumpi\n        /* \"contracts/modules/SponsorMatrix.sol\":1919:1921  25 */\n      0x19\n        /* \"contracts/modules/SponsorMatrix.sol\":124:18049  contract Nanakshahi is Storage{... */\n      dup3\n      mul\n      swap2\n      dup3\n      div\n        /* \"contracts/modules/SponsorMatrix.sol\":1919:1921  25 */\n      0x19\n        /* \"contracts/modules/SponsorMatrix.sol\":124:18049  contract Nanakshahi is Storage{... */\n      eq\n      or\n      iszero\n      tag_142\n      jumpi\n        /* \"contracts/modules/SponsorMatrix.sol\":2216:2287  _distributeSponsorIncome(user.sponsorId, newUserId, remainingAmount, 1) */\n      tag_144\n        /* \"contracts/modules/SponsorMatrix.sol\":124:18049  contract Nanakshahi is Storage{... */\n      swap4\n        /* \"contracts/modules/SponsorMatrix.sol\":2133:2145  creatorShare */\n      tag_145\n        /* \"contracts/modules/SponsorMatrix.sol\":1702:1705  100 */\n      0x64\n        /* \"contracts/modules/SponsorMatrix.sol\":124:18049  contract Nanakshahi is Storage{... */\n      dup10\n      swap5\n        /* \"contracts/modules/SponsorMatrix.sol\":2049:2063  communityShare */\n      tag_146\n        /* \"contracts/modules/SponsorMatrix.sol\":124:18049  contract Nanakshahi is Storage{... */\n      dup3\n      dup1\n      swap7\n      div\n        /* \"contracts/modules/SponsorMatrix.sol\":2049:2063  communityShare */\n      tag_21\n      jump\t// in\n    tag_146:\n        /* \"contracts/modules/SponsorMatrix.sol\":124:18049  contract Nanakshahi is Storage{... */\n      div\n        /* \"contracts/modules/SponsorMatrix.sol\":2133:2145  creatorShare */\n      tag_22\n      jump\t// in\n    tag_145:\n        /* \"contracts/modules/SponsorMatrix.sol\":124:18049  contract Nanakshahi is Storage{... */\n      div\n      swap2\n      sload\n        /* \"contracts/modules/SponsorMatrix.sol\":2216:2287  _distributeSponsorIncome(user.sponsorId, newUserId, remainingAmount, 1) */\n      tag_23\n      jump\t// in\n    tag_144:\n        /* \"contracts/modules/SponsorMatrix.sol\":124:18049  contract Nanakshahi is Storage{... */\n      0x00\n      mstore\n        /* \"contracts/modules/SponsorMatrix.sol\":356:361  users */\n      0x0d\n        /* \"contracts/modules/SponsorMatrix.sol\":124:18049  contract Nanakshahi is Storage{... */\n      0x20\n      mstore\n        /* \"contracts/modules/SponsorMatrix.sol\":602:614  defaultRefId */\n      0x05\n        /* \"contracts/modules/SponsorMatrix.sol\":124:18049  contract Nanakshahi is Storage{... */\n      0x01\n      dup1\n      0xa0\n      shl\n      sub\n      sload(keccak256(0x00, 0x40))\n      and\n        /* \"contracts/modules/SponsorMatrix.sol\":2394:2407  user.uplineId */\n      swap2\n      add\n        /* \"contracts/modules/SponsorMatrix.sol\":124:18049  contract Nanakshahi is Storage{... */\n      sload\n      mload(0x40)\n      swap1\n      dup2\n      mstore\n        /* \"contracts/modules/SponsorMatrix.sol\":2331:2408  Registration(msg.sender, users[_sponsorId].account, newUserId, user.uplineId) */\n      0x309bb360e8b69c23937ccc5fb01f9aeeead1c95a99604e175113ff82f2b1723a\n        /* \"contracts/modules/SponsorMatrix.sol\":124:18049  contract Nanakshahi is Storage{... */\n      0x20\n        /* \"contracts/modules/SponsorMatrix.sol\":298:308  msg.sender */\n      caller\n        /* \"contracts/modules/SponsorMatrix.sol\":2331:2408  Registration(msg.sender, users[_sponsorId].account, newUserId, user.uplineId) */\n      swap3\n      log4\n        /* \"contracts/modules/SponsorMatrix.sol\":124:18049  contract Nanakshahi is Storage{... */\n      stop\n    tag_142:\n      mstore(0x00, shl(0xe0, 0x4e487b71))\n        /* \"contracts/modules/SponsorMatrix.sol\":7725:7737  matrixDirect */\n      0x11\n        /* \"contracts/modules/SponsorMatrix.sol\":124:18049  contract Nanakshahi is Storage{... */\n      0x04\n      mstore\n      revert(0x00, 0x24)\n        /* \"contracts/modules/SponsorMatrix.sol\":8811:8814  k++ */\n    tag_132:\n        /* \"contracts/modules/SponsorMatrix.sol\":8834:8847  uplineId == 0 */\n      dup1\n      iszero\n        /* \"contracts/modules/SponsorMatrix.sol\":8831:8854  if(uplineId == 0) break */\n      tag_147\n      jumpi\n        /* \"contracts/modules/SponsorMatrix.sol\":124:18049  contract Nanakshahi is Storage{... */\n      dup1\n      0x00\n      mstore\n        /* \"contracts/modules/SponsorMatrix.sol\":356:361  users */\n      0x0d\n        /* \"contracts/modules/SponsorMatrix.sol\":124:18049  contract Nanakshahi is Storage{... */\n      0x20\n      mstore\n        /* \"contracts/modules/SponsorMatrix.sol\":1257:1276  communityAccPerUser */\n      0x09\n        /* \"contracts/modules/SponsorMatrix.sol\":124:18049  contract Nanakshahi is Storage{... */\n      keccak256(0x00, 0x40)\n        /* \"contracts/modules/SponsorMatrix.sol\":8869:8900  users[uplineId].totalMatrixTeam */\n      add\n        /* \"contracts/modules/SponsorMatrix.sol\":124:18049  contract Nanakshahi is Storage{... */\n      dup1\n      sload\n      swap1\n      0x01\n      dup3\n      add\n      dup1\n      swap3\n      gt\n      tag_142\n      jumpi\n      sstore\n      dup1\n      0x00\n      mstore\n        /* \"contracts/modules/SponsorMatrix.sol\":8920:8925  teams */\n      0x10\n        /* \"contracts/modules/SponsorMatrix.sol\":124:18049  contract Nanakshahi is Storage{... */\n      0x20\n      mstore\n      keccak256(0x00, 0x40)\n      dup3\n      0x00\n      mstore\n      0x20\n      mstore\n        /* \"contracts/modules/SponsorMatrix.sol\":8920:8955  teams[uplineId][k].push(_newUserId) */\n      tag_151\n        /* \"contracts/modules/SponsorMatrix.sol\":124:18049  contract Nanakshahi is Storage{... */\n      dup7\n      keccak256(0x00, 0x40)\n        /* \"contracts/modules/SponsorMatrix.sol\":8920:8955  teams[uplineId][k].push(_newUserId) */\n      tag_19\n      jump\t// in\n    tag_151:\n        /* \"contracts/modules/SponsorMatrix.sol\":124:18049  contract Nanakshahi is Storage{... */\n      0x00\n      mstore\n        /* \"contracts/modules/SponsorMatrix.sol\":356:361  users */\n      0x0d\n        /* \"contracts/modules/SponsorMatrix.sol\":124:18049  contract Nanakshahi is Storage{... */\n      0x20\n      mstore\n      0x01\n        /* \"contracts/modules/SponsorMatrix.sol\":602:614  defaultRefId */\n      0x05\n        /* \"contracts/modules/SponsorMatrix.sol\":124:18049  contract Nanakshahi is Storage{... */\n      keccak256(0x00, 0x40)\n        /* \"contracts/modules/SponsorMatrix.sol\":8981:9005  users[uplineId].uplineId */\n      add\n        /* \"contracts/modules/SponsorMatrix.sol\":124:18049  contract Nanakshahi is Storage{... */\n      sload\n        /* \"contracts/modules/SponsorMatrix.sol\":8811:8814  k++ */\n      swap2\n        /* \"contracts/modules/SponsorMatrix.sol\":124:18049  contract Nanakshahi is Storage{... */\n      add\n        /* \"contracts/modules/SponsorMatrix.sol\":8788:8796  uint k=0 */\n      swap1\n      jump(tag_131)\n        /* \"contracts/modules/SponsorMatrix.sol\":8831:8854  if(uplineId == 0) break */\n    tag_147:\n        /* \"contracts/modules/SponsorMatrix.sol\":8849:8854  break */\n      jump(tag_133)\n        /* \"contracts/modules/SponsorMatrix.sol\":7722:8722  if(matrixDirect[_sponsorId] < 2) {... */\n    tag_126:\n        /* \"contracts/modules/SponsorMatrix.sol\":124:18049  contract Nanakshahi is Storage{... */\n      0x00\n        /* \"contracts/modules/SponsorMatrix.sol\":8020:8031  i<maxLayers */\n    tag_152:\n        /* \"contracts/modules/SponsorMatrix.sol\":983:1004  user.registrationTime */\n      0x0f\n        /* \"contracts/modules/SponsorMatrix.sol\":8020:8031  i<maxLayers */\n      dup2\n      lt\n      tag_153\n      jumpi\n        /* \"contracts/modules/SponsorMatrix.sol\":8006:8711  for(uint i=0; i<maxLayers; i++) { // Use a reasonable max depth for 2x2 matrix... */\n    tag_154:\n        /* \"contracts/modules/SponsorMatrix.sol\":7722:8722  if(matrixDirect[_sponsorId] < 2) {... */\n      pop\n      pop\n      jump(tag_130)\n        /* \"contracts/modules/SponsorMatrix.sol\":8033:8036  i++ */\n    tag_153:\n        /* \"contracts/modules/SponsorMatrix.sol\":8102:8119  if(isFound) break */\n      dup2\n      tag_155\n      jumpi\n        /* \"contracts/modules/SponsorMatrix.sol\":124:18049  contract Nanakshahi is Storage{... */\n      dup5\n      0x00\n      mstore\n        /* \"contracts/modules/SponsorMatrix.sol\":8141:8146  teams */\n      0x10\n        /* \"contracts/modules/SponsorMatrix.sol\":124:18049  contract Nanakshahi is Storage{... */\n      0x20\n      mstore\n      keccak256(0x00, 0x40)\n      0x01\n      dup3\n      add\n      dup1\n      dup4\n      gt\n      tag_142\n      jumpi\n      0x00\n      mstore\n      0x20\n      mstore\n      sload(keccak256(0x00, 0x40))\n        /* \"contracts/modules/SponsorMatrix.sol\":804:819  user.checkpoint */\n      0x02\n        /* \"contracts/modules/SponsorMatrix.sol\":124:18049  contract Nanakshahi is Storage{... */\n      dup3\n      add\n      dup1\n      dup4\n      gt\n      tag_142\n      jumpi\n      0xff\n      dup2\n      gt\n      tag_142\n      jumpi\n      0x01\n      swap1\n      shl\n      gt\n        /* \"contracts/modules/SponsorMatrix.sol\":8138:8696  if(teams[_sponsorId][i+1].length < 2 ** (i+2)) {... */\n      tag_163\n      jumpi\n        /* \"contracts/modules/SponsorMatrix.sol\":8033:8036  i++ */\n    tag_164:\n        /* \"contracts/modules/SponsorMatrix.sol\":124:18049  contract Nanakshahi is Storage{... */\n      0x01\n      add\n        /* \"contracts/modules/SponsorMatrix.sol\":8010:8018  uint i=0 */\n      jump(tag_152)\n        /* \"contracts/modules/SponsorMatrix.sol\":8138:8696  if(teams[_sponsorId][i+1].length < 2 ** (i+2)) {... */\n    tag_163:\n        /* \"contracts/modules/SponsorMatrix.sol\":8212:8220  uint j=0 */\n      swap4\n      swap3\n        /* \"contracts/modules/SponsorMatrix.sol\":124:18049  contract Nanakshahi is Storage{... */\n      0x00\n        /* \"contracts/modules/SponsorMatrix.sol\":8212:8220  uint j=0 */\n      swap6\n      swap2\n      swap6\n        /* \"contracts/modules/SponsorMatrix.sol\":8253:8256  j++ */\n    tag_165:\n        /* \"contracts/modules/SponsorMatrix.sol\":124:18049  contract Nanakshahi is Storage{... */\n      dup5\n      0x00\n      mstore\n        /* \"contracts/modules/SponsorMatrix.sol\":8141:8146  teams */\n      0x10\n        /* \"contracts/modules/SponsorMatrix.sol\":124:18049  contract Nanakshahi is Storage{... */\n      0x20\n      mstore\n      keccak256(0x00, 0x40)\n      dup7\n      0x00\n      mstore\n      0x20\n      mstore\n      sload(keccak256(0x00, 0x40))\n        /* \"contracts/modules/SponsorMatrix.sol\":8222:8251  j<teams[_sponsorId][i].length */\n      dup2\n      lt\n      iszero\n      tag_166\n      jumpi\n        /* \"contracts/modules/SponsorMatrix.sol\":8283:8300  if(isFound) break */\n      dup7\n      tag_168\n      jumpi\n        /* \"contracts/modules/SponsorMatrix.sol\":124:18049  contract Nanakshahi is Storage{... */\n      dup5\n      0x00\n      mstore\n        /* \"contracts/modules/SponsorMatrix.sol\":8141:8146  teams */\n      0x10\n        /* \"contracts/modules/SponsorMatrix.sol\":124:18049  contract Nanakshahi is Storage{... */\n      0x20\n      mstore\n      keccak256(0x00, 0x40)\n      dup7\n      0x00\n      mstore\n      0x20\n      mstore\n        /* \"contracts/modules/SponsorMatrix.sol\":8339:8362  teams[_sponsorId][i][j] */\n      tag_170\n        /* \"contracts/modules/SponsorMatrix.sol\":124:18049  contract Nanakshahi is Storage{... */\n      dup2\n      keccak256(0x00, 0x40)\n        /* \"contracts/modules/SponsorMatrix.sol\":8339:8362  teams[_sponsorId][i][j] */\n      tag_3\n      jump\t// in\n    tag_170:\n        /* \"contracts/modules/SponsorMatrix.sol\":124:18049  contract Nanakshahi is Storage{... */\n      swap1\n      sload\n      swap1\n        /* \"contracts/modules/SponsorMatrix.sol\":356:376  users[_sponsorId].id */\n      0x03\n        /* \"contracts/modules/SponsorMatrix.sol\":124:18049  contract Nanakshahi is Storage{... */\n      shl\n      shr\n      dup1\n      0x00\n      mstore\n        /* \"contracts/modules/SponsorMatrix.sol\":7725:7737  matrixDirect */\n      0x11\n        /* \"contracts/modules/SponsorMatrix.sol\":124:18049  contract Nanakshahi is Storage{... */\n      0x20\n      mstore\n        /* \"contracts/modules/SponsorMatrix.sol\":804:819  user.checkpoint */\n      0x02\n        /* \"contracts/modules/SponsorMatrix.sol\":124:18049  contract Nanakshahi is Storage{... */\n      sload(keccak256(0x00, 0x40))\n        /* \"contracts/modules/SponsorMatrix.sol\":8392:8414  matrixDirect[temp] < 2 */\n      lt\n        /* \"contracts/modules/SponsorMatrix.sol\":8389:8653  if(matrixDirect[temp] < 2) {... */\n      tag_171\n      jumpi\n        /* \"contracts/modules/SponsorMatrix.sol\":8253:8256  j++ */\n    tag_172:\n      pop\n        /* \"contracts/modules/SponsorMatrix.sol\":124:18049  contract Nanakshahi is Storage{... */\n      0x01\n      add\n        /* \"contracts/modules/SponsorMatrix.sol\":8212:8220  uint j=0 */\n      jump(tag_165)\n        /* \"contracts/modules/SponsorMatrix.sol\":8389:8653  if(matrixDirect[temp] < 2) {... */\n    tag_171:\n        /* \"contracts/modules/SponsorMatrix.sol\":124:18049  contract Nanakshahi is Storage{... */\n      swap2\n      swap4\n      pop\n      swap6\n      pop\n      dup7\n      0x00\n      mstore\n        /* \"contracts/modules/SponsorMatrix.sol\":356:361  users */\n      0x0d\n        /* \"contracts/modules/SponsorMatrix.sol\":124:18049  contract Nanakshahi is Storage{... */\n      0x20\n      mstore\n      dup1\n        /* \"contracts/modules/SponsorMatrix.sol\":602:614  defaultRefId */\n      0x05\n        /* \"contracts/modules/SponsorMatrix.sol\":124:18049  contract Nanakshahi is Storage{... */\n      keccak256(0x00, 0x40)\n        /* \"contracts/modules/SponsorMatrix.sol\":8447:8473  users[_newUserId].uplineId */\n      add\n        /* \"contracts/modules/SponsorMatrix.sol\":124:18049  contract Nanakshahi is Storage{... */\n      sstore\n      dup1\n      0x00\n      mstore\n        /* \"contracts/modules/SponsorMatrix.sol\":7725:7737  matrixDirect */\n      0x11\n        /* \"contracts/modules/SponsorMatrix.sol\":124:18049  contract Nanakshahi is Storage{... */\n      0x20\n      mstore\n      keccak256(0x00, 0x40)\n      dup1\n      sload\n      swap1\n      0x01\n      dup3\n      add\n      dup1\n      swap3\n      gt\n      tag_142\n      jumpi\n      sstore\n        /* \"contracts/modules/SponsorMatrix.sol\":8611:8625  isFound = true */\n      swap2\n        /* \"contracts/modules/SponsorMatrix.sol\":124:18049  contract Nanakshahi is Storage{... */\n      0x01\n        /* \"contracts/modules/SponsorMatrix.sol\":8611:8625  isFound = true */\n      dup1\n        /* \"contracts/modules/SponsorMatrix.sol\":8389:8653  if(matrixDirect[temp] < 2) {... */\n      swap7\n      swap1\n      jump(tag_172)\n        /* \"contracts/modules/SponsorMatrix.sol\":8283:8300  if(isFound) break */\n    tag_168:\n        /* \"contracts/modules/SponsorMatrix.sol\":8295:8300  break */\n      pop\n      swap3\n      swap4\n        /* \"contracts/modules/SponsorMatrix.sol\":124:18049  contract Nanakshahi is Storage{... */\n      0x01\n        /* \"contracts/modules/SponsorMatrix.sol\":8295:8300  break */\n      swap1\n      swap6\n      swap2\n      swap6\n        /* \"contracts/modules/SponsorMatrix.sol\":8208:8677  for(uint j=0; j<teams[_sponsorId][i].length; j++) {... */\n    tag_175:\n        /* \"contracts/modules/SponsorMatrix.sol\":8138:8696  if(teams[_sponsorId][i+1].length < 2 ** (i+2)) {... */\n      swap1\n      pop\n      jump(tag_164)\n        /* \"contracts/modules/SponsorMatrix.sol\":8222:8251  j<teams[_sponsorId][i].length */\n    tag_166:\n      pop\n      swap3\n      swap4\n        /* \"contracts/modules/SponsorMatrix.sol\":124:18049  contract Nanakshahi is Storage{... */\n      0x01\n        /* \"contracts/modules/SponsorMatrix.sol\":8222:8251  j<teams[_sponsorId][i].length */\n      swap1\n      swap6\n      swap2\n      swap6\n      jump(tag_175)\n        /* \"contracts/modules/SponsorMatrix.sol\":8102:8119  if(isFound) break */\n    tag_155:\n        /* \"contracts/modules/SponsorMatrix.sol\":8114:8119  break */\n      jump(tag_154)\n        /* \"contracts/modules/SponsorMatrix.sol\":124:18049  contract Nanakshahi is Storage{... */\n    tag_123:\n      mstore(0x00, shl(0xe0, 0x4e487b71))\n      mstore(0x04, 0x41)\n      revert(0x00, 0x24)\n        /* \"contracts/modules/SponsorMatrix.sol\":469:526  usdt.transferFrom(msg.sender, address(this), packages[0]) */\n    tag_114:\n      tag_176\n      swap1\n        /* \"contracts/modules/SponsorMatrix.sol\":124:18049  contract Nanakshahi is Storage{... */\n      0x20\n        /* \"contracts/modules/SponsorMatrix.sol\":469:526  usdt.transferFrom(msg.sender, address(this), packages[0]) */\n      returndatasize\n        /* \"contracts/modules/SponsorMatrix.sol\":124:18049  contract Nanakshahi is Storage{... */\n      0x20\n        /* \"contracts/modules/SponsorMatrix.sol\":469:526  usdt.transferFrom(msg.sender, address(this), packages[0]) */\n      gt\n      tag_177\n      jumpi\n    tag_178:\n      tag_179\n      dup2\n      dup4\n      tag_10\n      jump\t// in\n    tag_179:\n      dup2\n      add\n      swap1\n      tag_11\n      jump\t// in\n    tag_176:\n      jump(tag_115)\n    tag_177:\n      pop\n      returndatasize\n      jump(tag_178)\n    tag_112:\n        /* \"contracts/modules/SponsorMatrix.sol\":124:18049  contract Nanakshahi is Storage{... */\n      mload(0x40)\n      returndatasize\n      0x00\n      dup3\n      returndatacopy\n      returndatasize\n      swap1\n      revert\n    tag_108:\n      mload(0x40)\n      shl(0xe5, 0x461bcd)\n      dup2\n      mstore\n      0x20\n      0x04\n      dup3\n      add\n      mstore\n      0x0f\n      0x24\n      dup3\n      add\n      mstore\n      shl(0x89, 0x24b73b30b634b21039b837b739b7b9)\n      0x44\n      dup3\n      add\n      mstore\n      0x64\n      swap1\n      revert\n    tag_106:\n      mload(0x40)\n      shl(0xe5, 0x461bcd)\n      dup2\n      mstore\n      0x20\n      0x04\n      dup3\n      add\n      mstore\n      0x12\n      0x24\n      dup3\n      add\n      mstore\n      shl(0x72, 0x105b1c9958591e481c9959da5cdd195c9959)\n      0x44\n      dup3\n      add\n      mstore\n      0x64\n      swap1\n      revert\n    tag_86:\n      jumpi(tag_96, callvalue)\n      jumpi(tag_96, slt(add(not(0x03), calldatasize), 0x00))\n      0x20\n        /* \"contracts/modules/Storage.sol\":534:558  uint public defaultRefId */\n      0x05\n        /* \"contracts/modules/SponsorMatrix.sol\":124:18049  contract Nanakshahi is Storage{... */\n      sload\n      mload(0x40)\n      swap1\n      dup2\n      mstore\n      return\n    tag_84:\n      jumpi(tag_96, callvalue)\n      jumpi(tag_96, slt(add(not(0x03), calldatasize), 0x00))\n      0x20\n      mload(0x40)\n        /* \"contracts/modules/Storage.sol\":6996:7003  1000e18 */\n      0x3635c9adc5dea00000\n        /* \"contracts/modules/SponsorMatrix.sol\":124:18049  contract Nanakshahi is Storage{... */\n      dup2\n      mstore\n      return\n    tag_82:\n      jumpi(tag_96, callvalue)\n      jumpi(tag_96, slt(add(not(0x03), calldatasize), 0x00))\n        /* \"contracts/modules/Storage.sol\":460:490  address public systemMaintance */\n      0x03\n        /* \"contracts/modules/SponsorMatrix.sol\":124:18049  contract Nanakshahi is Storage{... */\n      sload\n      mload(0x40)\n      sub(shl(0xa0, 0x01), 0x01)\n      swap1\n      swap2\n      and\n      dup2\n      mstore\n      0x20\n      swap1\n      return\n    tag_80:\n      jumpi(tag_96, callvalue)\n      jumpi(tag_96, slt(add(not(0x03), calldatasize), 0x00))\n      0x20\n        /* \"contracts/modules/Storage.sol\":7197:7236  uint public currentMonthlyStartTime = 0 */\n      0x39\n        /* \"contracts/modules/SponsorMatrix.sol\":124:18049  contract Nanakshahi is Storage{... */\n      sload\n      mload(0x40)\n      swap1\n      dup2\n      mstore\n      return\n    tag_78:\n      jumpi(tag_96, callvalue)\n      jumpi(tag_96, slt(add(not(0x03), calldatasize), 0x20))\n      tag_200\n      calldataload(0x04)\n      tag_18\n      jump\t// in\n    tag_200:\n      stop\n    tag_76:\n      jumpi(tag_96, callvalue)\n      jumpi(tag_96, slt(add(not(0x03), calldatasize), 0x20))\n      calldataload(0x04)\n      0x08\n        /* \"contracts/modules/Storage.sol\":5304:5368  uint[8] public minLevelForGlbBooster = [4, 5, 6, 7, 8, 9, 10,11] */\n      dup2\n      lt\n      iszero\n      tag_96\n      jumpi\n        /* \"contracts/modules/SponsorMatrix.sol\":124:18049  contract Nanakshahi is Storage{... */\n      0x20\n      swap1\n        /* \"contracts/modules/Storage.sol\":5304:5368  uint[8] public minLevelForGlbBooster = [4, 5, 6, 7, 8, 9, 10,11] */\n      0x1c\n        /* \"contracts/modules/SponsorMatrix.sol\":124:18049  contract Nanakshahi is Storage{... */\n      add\n      sload\n      mload(0x40)\n      swap1\n      dup2\n      mstore\n      return\n    tag_74:\n      jumpi(tag_96, callvalue)\n      jumpi(tag_96, slt(add(not(0x03), calldatasize), 0x00))\n      0x20\n        /* \"contracts/modules/Storage.sol\":7065:7099  uint public currentWeeklyRound = 1 */\n      0x36\n        /* \"contracts/modules/SponsorMatrix.sol\":124:18049  contract Nanakshahi is Storage{... */\n      sload\n      mload(0x40)\n      swap1\n      dup2\n      mstore\n      return\n    tag_72:\n      jumpi(tag_96, callvalue)\n      jumpi(tag_96, slt(add(not(0x03), calldatasize), 0x00))\n      0x20\n        /* \"contracts/modules/Storage.sol\":7110:7145  uint public currentMonthlyRound = 1 */\n      0x37\n        /* \"contracts/modules/SponsorMatrix.sol\":124:18049  contract Nanakshahi is Storage{... */\n      sload\n      mload(0x40)\n      swap1\n      dup2\n      mstore\n      return\n    tag_70:\n      jumpi(tag_96, callvalue)\n      jumpi(tag_96, slt(add(not(0x03), calldatasize), 0x00))\n      0x20\n      mload(0x40)\n        /* \"contracts/modules/Storage.sol\":7048:7056  10000e18 */\n      0x021e19e0c9bab2400000\n        /* \"contracts/modules/SponsorMatrix.sol\":124:18049  contract Nanakshahi is Storage{... */\n      dup2\n      mstore\n      return\n    tag_68:\n      jumpi(tag_96, callvalue)\n      jumpi(tag_96, slt(add(not(0x03), calldatasize), 0x20))\n      calldataload(0x04)\n        /* \"contracts/modules/Storage.sol\":1288:1828  uint[] public packages = [... */\n      0x0b\n        /* \"contracts/modules/SponsorMatrix.sol\":124:18049  contract Nanakshahi is Storage{... */\n      sload\n        /* \"contracts/modules/Storage.sol\":1288:1828  uint[] public packages = [... */\n      dup2\n      lt\n      iszero\n      tag_96\n      jumpi\n      tag_225\n        /* \"contracts/modules/SponsorMatrix.sol\":124:18049  contract Nanakshahi is Storage{... */\n      0x20\n        /* \"contracts/modules/Storage.sol\":1288:1828  uint[] public packages = [... */\n      swap2\n      tag_1\n      jump\t// in\n    tag_225:\n        /* \"contracts/modules/SponsorMatrix.sol\":124:18049  contract Nanakshahi is Storage{... */\n      swap1\n      sload\n      swap1\n      0x03\n      shl\n      shr\n      mload(0x40)\n      swap1\n      dup2\n      mstore\n      return\n    tag_66:\n      jumpi(tag_96, callvalue)\n      jumpi(tag_96, slt(add(not(0x03), calldatasize), 0x00))\n      0x20\n        /* \"contracts/modules/Storage.sol\":565:587  uint public totalUsers */\n      0x06\n        /* \"contracts/modules/SponsorMatrix.sol\":124:18049  contract Nanakshahi is Storage{... */\n      sload\n      mload(0x40)\n      swap1\n      dup2\n      mstore\n      return\n    tag_64:\n      jumpi(tag_96, callvalue)\n      jumpi(tag_96, slt(add(not(0x03), calldatasize), 0x20))\n      calldataload(0x04)\n        /* \"contracts/modules/Storage.sol\":5028:5121  uint[] public poolPackages = [75e18, 300e18, 1200e18, 4800e18, 19200e18, 76800e18, 307200e18] */\n      0x13\n        /* \"contracts/modules/SponsorMatrix.sol\":124:18049  contract Nanakshahi is Storage{... */\n      sload\n        /* \"contracts/modules/Storage.sol\":5028:5121  uint[] public poolPackages = [75e18, 300e18, 1200e18, 4800e18, 19200e18, 76800e18, 307200e18] */\n      dup2\n      lt\n      iszero\n      tag_96\n      jumpi\n      0x13\n        /* \"contracts/modules/SponsorMatrix.sol\":124:18049  contract Nanakshahi is Storage{... */\n      sload\n      dup2\n      lt\n      iszero\n      tag_236\n      jumpi\n        /* \"contracts/modules/Storage.sol\":5028:5121  uint[] public poolPackages = [75e18, 300e18, 1200e18, 4800e18, 19200e18, 76800e18, 307200e18] */\n      0x13\n        /* \"contracts/modules/SponsorMatrix.sol\":124:18049  contract Nanakshahi is Storage{... */\n      0x00\n      mstore\n      0x66de8ffda797e3de9c05e8fc57b3bf0ec28a930d40b0d285d93c06501cf6a090\n      add\n      sload\n      mload(0x40)\n      swap1\n      dup2\n      mstore\n      0x20\n      swap1\n      return\n    tag_236:\n      mstore(0x00, shl(0xe0, 0x4e487b71))\n      mstore(0x04, 0x32)\n      revert(0x00, 0x24)\n    tag_62:\n      jumpi(tag_96, callvalue)\n      jumpi(tag_96, slt(add(not(0x03), calldatasize), 0x20))\n      calldataload(0x04)\n      0x08\n        /* \"contracts/modules/Storage.sol\":5375:5436  uint[8] public minPoolForGlbBooster = [0, 1, 1, 1, 1, 1, 1,1] */\n      dup2\n      lt\n      iszero\n      tag_96\n      jumpi\n        /* \"contracts/modules/SponsorMatrix.sol\":124:18049  contract Nanakshahi is Storage{... */\n      0x20\n      swap1\n        /* \"contracts/modules/Storage.sol\":5375:5436  uint[8] public minPoolForGlbBooster = [0, 1, 1, 1, 1, 1, 1,1] */\n      0x24\n        /* \"contracts/modules/SponsorMatrix.sol\":124:18049  contract Nanakshahi is Storage{... */\n      add\n      sload\n      mload(0x40)\n      swap1\n      dup2\n      mstore\n      return\n    tag_60:\n      jumpi(tag_96, callvalue)\n      jumpi(tag_96, slt(add(not(0x03), calldatasize), 0x00))\n        /* \"contracts/modules/Storage.sol\":422:450  address public creatorWallet */\n      0x02\n        /* \"contracts/modules/SponsorMatrix.sol\":124:18049  contract Nanakshahi is Storage{... */\n      sload\n      mload(0x40)\n      sub(shl(0xa0, 0x01), 0x01)\n      swap1\n      swap2\n      and\n      dup2\n      mstore\n      0x20\n      swap1\n      return\n    tag_58:\n      jumpi(tag_96, callvalue)\n      jumpi(tag_96, slt(add(not(0x03), calldatasize), 0x00))\n      0x20\n        /* \"contracts/modules/Storage.sol\":1131:1165  uint256 public communityAccPerUser */\n      0x09\n        /* \"contracts/modules/SponsorMatrix.sol\":124:18049  contract Nanakshahi is Storage{... */\n      sload\n      mload(0x40)\n      swap1\n      dup2\n      mstore\n      return\n    tag_56:\n      jumpi(tag_96, callvalue)\n      jumpi(tag_96, slt(add(not(0x03), calldatasize), 0x00))\n      0x20\n      mload(0x40)\n        /* \"contracts/modules/Storage.sol\":6894:6900  7 days */\n      0x093a80\n        /* \"contracts/modules/SponsorMatrix.sol\":124:18049  contract Nanakshahi is Storage{... */\n      dup2\n      mstore\n      return\n    tag_54:\n      jumpi(tag_96, callvalue)\n      jumpi(tag_96, slt(add(not(0x03), calldatasize), 0x00))\n      0x20\n      mload(0x40)\n        /* \"contracts/modules/Storage.sol\":848:850  10 */\n      0x0a\n        /* \"contracts/modules/SponsorMatrix.sol\":124:18049  contract Nanakshahi is Storage{... */\n      dup2\n      mstore\n      return\n    tag_52:\n      jumpi(tag_96, callvalue)\n      jumpi(tag_96, slt(add(not(0x03), calldatasize), 0x20))\n      calldataload(0x04)\n      dup1\n      0x00\n      mstore\n        /* \"contracts/modules/SponsorMatrix.sol\":2499:2504  users */\n      0x0d\n        /* \"contracts/modules/SponsorMatrix.sol\":124:18049  contract Nanakshahi is Storage{... */\n      0x20\n      mstore\n      keccak256(0x00, 0x40)\n        /* \"contracts/modules/SponsorMatrix.sol\":2524:2579  require(user.account == msg.sender, \"Not your account\") */\n      tag_264\n        /* \"contracts/modules/SponsorMatrix.sol\":124:18049  contract Nanakshahi is Storage{... */\n      0x01\n      dup1\n      0xa0\n      shl\n      sub\n      dup3\n      sload\n      and\n        /* \"contracts/modules/SponsorMatrix.sol\":2548:2558  msg.sender */\n      caller\n        /* \"contracts/modules/SponsorMatrix.sol\":2532:2558  user.account == msg.sender */\n      eq\n        /* \"contracts/modules/SponsorMatrix.sol\":2524:2579  require(user.account == msg.sender, \"Not your account\") */\n      tag_7\n      jump\t// in\n    tag_264:\n        /* \"contracts/modules/SponsorMatrix.sol\":2598:2608  user.level */\n      0x06\n      dup2\n      add\n        /* \"contracts/modules/SponsorMatrix.sol\":124:18049  contract Nanakshahi is Storage{... */\n      swap1\n      dup2\n      sload\n        /* \"contracts/modules/SponsorMatrix.sol\":2598:2613  user.level < 15 */\n      swap2\n        /* \"contracts/modules/SponsorMatrix.sol\":2611:2613  15 */\n      0x0f\n        /* \"contracts/modules/SponsorMatrix.sol\":2598:2613  user.level < 15 */\n      dup4\n      lt\n        /* \"contracts/modules/SponsorMatrix.sol\":124:18049  contract Nanakshahi is Storage{... */\n      iszero\n      tag_265\n      jumpi\n        /* \"contracts/modules/SponsorMatrix.sol\":2717:2736  packages[nextLevel] */\n      tag_267\n      dup4\n      tag_1\n      jump\t// in\n    tag_267:\n        /* \"contracts/modules/SponsorMatrix.sol\":124:18049  contract Nanakshahi is Storage{... */\n      swap1\n      sload\n      sload(0x01)\n      mload(0x40)\n      shl(0xe0, 0x23b872dd)\n        /* \"contracts/modules/SponsorMatrix.sol\":2804:2862  usdt.transferFrom(msg.sender, address(this), packagePrice) */\n      dup2\n      mstore\n        /* \"contracts/modules/SponsorMatrix.sol\":2548:2558  msg.sender */\n      caller\n        /* \"contracts/modules/SponsorMatrix.sol\":124:18049  contract Nanakshahi is Storage{... */\n      0x04\n        /* \"contracts/modules/SponsorMatrix.sol\":2804:2862  usdt.transferFrom(msg.sender, address(this), packagePrice) */\n      dup3\n      add\n        /* \"contracts/modules/SponsorMatrix.sol\":124:18049  contract Nanakshahi is Storage{... */\n      mstore\n        /* \"contracts/modules/SponsorMatrix.sol\":2842:2846  this */\n      address\n        /* \"contracts/modules/SponsorMatrix.sol\":124:18049  contract Nanakshahi is Storage{... */\n      0x24\n      dup3\n      add\n      mstore\n      0x03\n      swap4\n      swap1\n      swap4\n      shl\n      swap2\n      swap1\n      swap2\n      shr\n      0x44\n      dup4\n      add\n      dup2\n      swap1\n      mstore\n      swap3\n      swap2\n      swap1\n      0x20\n      swap1\n      dup3\n      swap1\n      0x64\n      swap1\n      dup3\n      swap1\n      0x00\n      swap1\n      sub(shl(0xa0, 0x01), 0x01)\n      and\n        /* \"contracts/modules/SponsorMatrix.sol\":2804:2862  usdt.transferFrom(msg.sender, address(this), packagePrice) */\n      gas\n      call\n      dup1\n      iszero\n      tag_112\n      jumpi\n      tag_271\n      jumpi\n        /* \"contracts/modules/SponsorMatrix.sol\":124:18049  contract Nanakshahi is Storage{... */\n    tag_272:\n      pop\n      dup1\n      sload\n      swap1\n      0x01\n      dup3\n      add\n      dup1\n      swap3\n      gt\n      tag_142\n      jumpi\n      sstore\n        /* \"contracts/modules/SponsorMatrix.sol\":2909:2926  user.totalDeposit */\n      0x0a\n      dup3\n      add\n        /* \"contracts/modules/SponsorMatrix.sol\":2909:2942  user.totalDeposit += packagePrice */\n      tag_275\n        /* \"contracts/modules/SponsorMatrix.sol\":124:18049  contract Nanakshahi is Storage{... */\n      dup3\n      dup3\n      sload\n        /* \"contracts/modules/SponsorMatrix.sol\":2909:2942  user.totalDeposit += packagePrice */\n      tag_13\n      jump\t// in\n    tag_275:\n        /* \"contracts/modules/SponsorMatrix.sol\":124:18049  contract Nanakshahi is Storage{... */\n      swap1\n      sstore\n        /* \"contracts/modules/SponsorMatrix.sol\":2987:3154  user.deposits.push(Deposit({... */\n      tag_276\n        /* \"contracts/modules/SponsorMatrix.sol\":124:18049  contract Nanakshahi is Storage{... */\n      mload(0x40)\n      tag_277\n      dup2\n      tag_8\n      jump\t// in\n    tag_277:\n      dup3\n      dup2\n      mstore\n      0x00\n      0x20\n        /* \"contracts/modules/SponsorMatrix.sol\":3006:3153  Deposit({... */\n      dup3\n      add\n        /* \"contracts/modules/SponsorMatrix.sol\":124:18049  contract Nanakshahi is Storage{... */\n      mstore\n        /* \"contracts/modules/SponsorMatrix.sol\":3098:3113  block.timestamp */\n      timestamp\n        /* \"contracts/modules/SponsorMatrix.sol\":124:18049  contract Nanakshahi is Storage{... */\n      0x40\n        /* \"contracts/modules/SponsorMatrix.sol\":3006:3153  Deposit({... */\n      dup3\n      add\n        /* \"contracts/modules/SponsorMatrix.sol\":124:18049  contract Nanakshahi is Storage{... */\n      mstore\n      0x01\n        /* \"contracts/modules/SponsorMatrix.sol\":3006:3153  Deposit({... */\n      0x60\n      dup3\n      add\n        /* \"contracts/modules/SponsorMatrix.sol\":124:18049  contract Nanakshahi is Storage{... */\n      mstore\n      0x01\n        /* \"contracts/modules/SponsorMatrix.sol\":2987:3000  user.deposits */\n      dup5\n      add\n        /* \"contracts/modules/SponsorMatrix.sol\":2987:3154  user.deposits.push(Deposit({... */\n      tag_14\n      jump\t// in\n    tag_276:\n        /* \"contracts/modules/SponsorMatrix.sol\":3235:3236  5 */\n      0x05\n        /* \"contracts/modules/SponsorMatrix.sol\":124:18049  contract Nanakshahi is Storage{... */\n      dup2\n      mul\n      dup2\n      iszero\n      swap1\n      dup3\n      dup2\n      div\n        /* \"contracts/modules/SponsorMatrix.sol\":3235:3236  5 */\n      0x05\n        /* \"contracts/modules/SponsorMatrix.sol\":124:18049  contract Nanakshahi is Storage{... */\n      eq\n      dup3\n      or\n      iszero\n      tag_142\n      jumpi\n        /* \"contracts/modules/SponsorMatrix.sol\":3395:3397  25 */\n      0x19\n        /* \"contracts/modules/SponsorMatrix.sol\":124:18049  contract Nanakshahi is Storage{... */\n      dup4\n      mul\n      dup4\n      dup2\n      div\n        /* \"contracts/modules/SponsorMatrix.sol\":3395:3397  25 */\n      0x19\n        /* \"contracts/modules/SponsorMatrix.sol\":124:18049  contract Nanakshahi is Storage{... */\n      eq\n      dup4\n      or\n      iszero\n      tag_142\n      jumpi\n        /* \"contracts/modules/SponsorMatrix.sol\":3510:3522  creatorShare */\n      tag_282\n        /* \"contracts/modules/SponsorMatrix.sol\":124:18049  contract Nanakshahi is Storage{... */\n      swap2\n        /* \"contracts/modules/SponsorMatrix.sol\":3436:3450  communityShare */\n      tag_146\n        /* \"contracts/modules/SponsorMatrix.sol\":3239:3242  100 */\n      0x64\n        /* \"contracts/modules/SponsorMatrix.sol\":124:18049  contract Nanakshahi is Storage{... */\n      dup1\n      swap4\n      div\n        /* \"contracts/modules/SponsorMatrix.sol\":3436:3450  communityShare */\n      tag_21\n      jump\t// in\n        /* \"contracts/modules/SponsorMatrix.sol\":3510:3522  creatorShare */\n    tag_282:\n        /* \"contracts/modules/SponsorMatrix.sol\":3702:3704  20 */\n      0x14\n        /* \"contracts/modules/SponsorMatrix.sol\":124:18049  contract Nanakshahi is Storage{... */\n      dup3\n      mul\n      swap2\n      dup3\n      div\n        /* \"contracts/modules/SponsorMatrix.sol\":3702:3704  20 */\n      0x14\n        /* \"contracts/modules/SponsorMatrix.sol\":124:18049  contract Nanakshahi is Storage{... */\n      eq\n      or\n      iszero\n      tag_142\n      jumpi\n        /* \"contracts/modules/SponsorMatrix.sol\":3239:3242  100 */\n      0x64\n        /* \"contracts/modules/SponsorMatrix.sol\":124:18049  contract Nanakshahi is Storage{... */\n      swap1\n      div\n        /* \"contracts/modules/SponsorMatrix.sol\":3746:3760  user.sponsorId */\n      swap2\n        /* \"contracts/modules/SponsorMatrix.sol\":124:18049  contract Nanakshahi is Storage{... */\n      0x04\n        /* \"contracts/modules/SponsorMatrix.sol\":3746:3760  user.sponsorId */\n      dup3\n      add\n        /* \"contracts/modules/SponsorMatrix.sol\":124:18049  contract Nanakshahi is Storage{... */\n      sload\n      0x01\n      dup3\n      add\n      swap4\n      dup5\n      dup4\n      gt\n      tag_142\n      jumpi\n        /* \"contracts/modules/SponsorMatrix.sol\":3786:3799  nextLevel + 1 */\n      dup6\n        /* \"contracts/modules/SponsorMatrix.sol\":3235:3236  5 */\n      0x05\n        /* \"contracts/modules/SponsorMatrix.sol\":4095:4104  nextLevel */\n      tag_288\n        /* \"contracts/modules/SponsorMatrix.sol\":3786:3799  nextLevel + 1 */\n      swap6\n      tag_289\n      dup9\n      dup6\n      dup6\n      dup3\n      swap9\n      tag_24\n      jump\t// in\n    tag_289:\n        /* \"contracts/modules/SponsorMatrix.sol\":3891:3904  user.uplineId */\n      add\n        /* \"contracts/modules/SponsorMatrix.sol\":3929:3942  nextLevel + 1 */\n      tag_290\n        /* \"contracts/modules/SponsorMatrix.sol\":124:18049  contract Nanakshahi is Storage{... */\n      dup5\n      dup5\n      dup5\n      dup5\n      sload\n        /* \"contracts/modules/SponsorMatrix.sol\":3929:3942  nextLevel + 1 */\n      tag_26\n      jump\t// in\n    tag_290:\n        /* \"contracts/modules/SponsorMatrix.sol\":124:18049  contract Nanakshahi is Storage{... */\n      sload\n        /* \"contracts/modules/SponsorMatrix.sol\":4095:4104  nextLevel */\n      tag_27\n      jump\t// in\n    tag_288:\n        /* \"contracts/modules/SponsorMatrix.sol\":124:18049  contract Nanakshahi is Storage{... */\n      mload(0x40)\n      swap1\n      dup2\n      mstore\n      0x40\n      0x20\n      dup3\n      add\n      mstore\n      0x04\n      0x40\n      dup3\n      add\n      mstore\n      shl(0xe2, 0x14db1bdd)\n        /* \"contracts/modules/SponsorMatrix.sol\":3006:3153  Deposit({... */\n      0x60\n        /* \"contracts/modules/SponsorMatrix.sol\":124:18049  contract Nanakshahi is Storage{... */\n      dup3\n      add\n      mstore\n        /* \"contracts/modules/SponsorMatrix.sol\":4142:4193  Upgrade(msg.sender, _userId, nextLevel + 1, \"Slot\") */\n      0xbabb6a363fd9a057996d09882c0b74b710d121707d19eeffd91c51c3171a7c91\n        /* \"contracts/modules/SponsorMatrix.sol\":124:18049  contract Nanakshahi is Storage{... */\n      0x80\n        /* \"contracts/modules/SponsorMatrix.sol\":2548:2558  msg.sender */\n      caller\n        /* \"contracts/modules/SponsorMatrix.sol\":4142:4193  Upgrade(msg.sender, _userId, nextLevel + 1, \"Slot\") */\n      swap3\n      log3\n        /* \"contracts/modules/SponsorMatrix.sol\":124:18049  contract Nanakshahi is Storage{... */\n      stop\n        /* \"contracts/modules/SponsorMatrix.sol\":2804:2862  usdt.transferFrom(msg.sender, address(this), packagePrice) */\n    tag_271:\n      tag_291\n      swap1\n        /* \"contracts/modules/SponsorMatrix.sol\":124:18049  contract Nanakshahi is Storage{... */\n      0x20\n        /* \"contracts/modules/SponsorMatrix.sol\":2804:2862  usdt.transferFrom(msg.sender, address(this), packagePrice) */\n      returndatasize\n        /* \"contracts/modules/SponsorMatrix.sol\":124:18049  contract Nanakshahi is Storage{... */\n      0x20\n        /* \"contracts/modules/SponsorMatrix.sol\":2804:2862  usdt.transferFrom(msg.sender, address(this), packagePrice) */\n      gt\n      tag_177\n      jumpi\n      tag_179\n      dup2\n      dup4\n      tag_10\n      jump\t// in\n    tag_291:\n      jump(tag_272)\n        /* \"contracts/modules/SponsorMatrix.sol\":124:18049  contract Nanakshahi is Storage{... */\n    tag_265:\n      mload(0x40)\n      shl(0xe5, 0x461bcd)\n      dup2\n      mstore\n      0x20\n      0x04\n      dup3\n      add\n      mstore\n      0x14\n      0x24\n      dup3\n      add\n      mstore\n      shl(0x62, 0x105b1c9958591e48185d081b585e081b195d995b)\n      0x44\n      dup3\n      add\n      mstore\n      0x64\n      swap1\n      revert\n    tag_50:\n      jumpi(tag_96, callvalue)\n      jumpi(tag_96, slt(add(not(0x03), calldatasize), 0x20))\n      calldataload(0x04)\n        /* \"contracts/modules/Storage.sol\":864:895  uint[] public registeredUserIds */\n      0x07\n        /* \"contracts/modules/SponsorMatrix.sol\":124:18049  contract Nanakshahi is Storage{... */\n      sload\n        /* \"contracts/modules/Storage.sol\":864:895  uint[] public registeredUserIds */\n      dup2\n      lt\n      iszero\n      tag_96\n      jumpi\n      0x07\n        /* \"contracts/modules/SponsorMatrix.sol\":124:18049  contract Nanakshahi is Storage{... */\n      sload\n      dup2\n      lt\n      iszero\n      tag_236\n      jumpi\n        /* \"contracts/modules/Storage.sol\":864:895  uint[] public registeredUserIds */\n      0x07\n        /* \"contracts/modules/SponsorMatrix.sol\":124:18049  contract Nanakshahi is Storage{... */\n      0x00\n      mstore\n      0xa66cc928b5edb82af9bd49922954155ab7b0942694bea4ce44661d9a8736c688\n      add\n      sload\n      mload(0x40)\n      swap1\n      dup2\n      mstore\n      0x20\n      swap1\n      return\n    tag_48:\n      jumpi(tag_96, callvalue)\n      jumpi(tag_96, slt(add(not(0x03), calldatasize), 0x00))\n      0x20\n      mload(0x40)\n        /* \"contracts/modules/Storage.sol\":789:791  15 */\n      0x0f\n        /* \"contracts/modules/SponsorMatrix.sol\":124:18049  contract Nanakshahi is Storage{... */\n      dup2\n      mstore\n      return\n    tag_46:\n      jumpi(tag_96, callvalue)\n      jumpi(tag_96, slt(add(not(0x03), calldatasize), 0x00))\n      0x20\n      mload(0x40)\n        /* \"contracts/modules/Storage.sol\":1120:1124  1e18 */\n      0x0de0b6b3a7640000\n        /* \"contracts/modules/SponsorMatrix.sol\":124:18049  contract Nanakshahi is Storage{... */\n      dup2\n      mstore\n      return\n    tag_44:\n      jumpi(tag_96, callvalue)\n      jumpi(tag_96, slt(add(not(0x03), calldatasize), 0x00))\n      0x20\n      mload(0x40)\n        /* \"contracts/modules/Storage.sol\":731:737  1 days */\n      0x015180\n        /* \"contracts/modules/SponsorMatrix.sol\":124:18049  contract Nanakshahi is Storage{... */\n      dup2\n      mstore\n      return\n    tag_42:\n      jumpi(tag_96, callvalue)\n      jumpi(tag_96, slt(add(not(0x03), calldatasize), 0x00))\n      0x20\n        /* \"contracts/modules/Storage.sol\":7243:7276  uint public WeeklyTotalReward = 0 */\n      0x3a\n        /* \"contracts/modules/SponsorMatrix.sol\":124:18049  contract Nanakshahi is Storage{... */\n      sload\n      mload(0x40)\n      swap1\n      dup2\n      mstore\n      return\n    tag_40:\n      jumpi(tag_96, callvalue)\n      jumpi(tag_96, slt(add(not(0x03), calldatasize), 0x00))\n      sload(0x01)\n      mload(0x40)\n      sub(shl(0xa0, 0x01), 0x01)\n      swap1\n      swap2\n      and\n      dup2\n      mstore\n      0x20\n      swap1\n      return\n    tag_38:\n      jumpi(tag_96, callvalue)\n      jumpi(tag_96, slt(add(not(0x03), calldatasize), 0x00))\n      0x20\n      mload(0x40)\n        /* \"contracts/modules/Storage.sol\":6945:6952  30 days */\n      0x278d00\n        /* \"contracts/modules/SponsorMatrix.sol\":124:18049  contract Nanakshahi is Storage{... */\n      dup2\n      mstore\n      return\n    tag_36:\n      jumpi(tag_96, callvalue)\n      jumpi(tag_96, slt(add(not(0x03), calldatasize), 0x20))\n      0x40\n      tag_331\n      calldataload(0x04)\n      tag_6\n      jump\t// in\n    tag_331:\n      dup3\n      mload\n      swap2\n      dup3\n      mstore\n      0x20\n      dup3\n      add\n      mstore\n      return\n    tag_34:\n      jumpi(tag_96, callvalue)\n      jumpi(tag_96, slt(add(not(0x03), calldatasize), 0x20))\n      calldataload(0x04)\n        /* \"contracts/modules/Storage.sol\":5128:5233  uint[] public glbBoosterPackages = [ 100e18, 200e18, 400e18, 800e18, 1600e18, 3200e18, 6400e18, 12800e18] */\n      0x14\n        /* \"contracts/modules/SponsorMatrix.sol\":124:18049  contract Nanakshahi is Storage{... */\n      sload\n        /* \"contracts/modules/Storage.sol\":5128:5233  uint[] public glbBoosterPackages = [ 100e18, 200e18, 400e18, 800e18, 1600e18, 3200e18, 6400e18, 12800e18] */\n      dup2\n      lt\n      iszero\n      tag_96\n      jumpi\n      0x14\n        /* \"contracts/modules/SponsorMatrix.sol\":124:18049  contract Nanakshahi is Storage{... */\n      sload\n      dup2\n      lt\n      iszero\n      tag_236\n      jumpi\n        /* \"contracts/modules/Storage.sol\":5128:5233  uint[] public glbBoosterPackages = [ 100e18, 200e18, 400e18, 800e18, 1600e18, 3200e18, 6400e18, 12800e18] */\n      0x14\n        /* \"contracts/modules/SponsorMatrix.sol\":124:18049  contract Nanakshahi is Storage{... */\n      0x00\n      mstore\n      0xce6d7b5282bd9a3661ae061feed1dbda4e52ab073b1f9285be6e155d9c38d4ec\n      add\n      sload\n      mload(0x40)\n      swap1\n      dup2\n      mstore\n      0x20\n      swap1\n      return\n    tag_32:\n      jumpi(tag_96, callvalue)\n      jumpi(tag_96, slt(add(not(0x03), calldatasize), 0x20))\n      calldataload(0x04)\n      0x07\n        /* \"contracts/modules/Storage.sol\":5240:5297  uint[7] public minLevelForPool = [3, 5, 7, 9, 11, 13, 15] */\n      dup2\n      lt\n      iszero\n      tag_96\n      jumpi\n        /* \"contracts/modules/SponsorMatrix.sol\":124:18049  contract Nanakshahi is Storage{... */\n      0x20\n      swap1\n        /* \"contracts/modules/Storage.sol\":5240:5297  uint[7] public minLevelForPool = [3, 5, 7, 9, 11, 13, 15] */\n      0x15\n        /* \"contracts/modules/SponsorMatrix.sol\":124:18049  contract Nanakshahi is Storage{... */\n      add\n      sload\n      mload(0x40)\n      swap1\n      dup2\n      mstore\n      return\n    tag_30:\n      jumpi(tag_96, callvalue)\n      jumpi(tag_96, slt(add(not(0x03), calldatasize), 0x00))\n      dup1\n        /* \"contracts/modules/Storage.sol\":683:688  10000 */\n      0x2710\n        /* \"contracts/modules/SponsorMatrix.sol\":124:18049  contract Nanakshahi is Storage{... */\n      0x20\n      swap3\n      mstore\n      return\n    tag_1:\n        /* \"contracts/modules/SponsorMatrix.sol\":2717:2725  packages */\n      0x0b\n        /* \"contracts/modules/SponsorMatrix.sol\":124:18049  contract Nanakshahi is Storage{... */\n      sload\n      dup2\n      lt\n      iszero\n      tag_236\n      jumpi\n        /* \"contracts/modules/SponsorMatrix.sol\":2717:2725  packages */\n      0x0b\n      0x00\n        /* \"contracts/modules/SponsorMatrix.sol\":124:18049  contract Nanakshahi is Storage{... */\n      mstore\n      keccak256(0x00, 0x20)\n      add\n      swap1\n      0x00\n      swap1\n      jump\t// out\n    tag_2:\n        /* \"contracts/modules/SponsorMatrix.sol\":514:522  packages */\n      0x0b\n        /* \"contracts/modules/SponsorMatrix.sol\":124:18049  contract Nanakshahi is Storage{... */\n      sload\n      iszero\n      tag_236\n      jumpi\n        /* \"contracts/modules/SponsorMatrix.sol\":514:522  packages */\n      0x0b\n        /* \"contracts/modules/SponsorMatrix.sol\":124:18049  contract Nanakshahi is Storage{... */\n      0x00\n      swap1\n      dup2\n      mstore\n      0x0175b7a638427703f0dbe7bb9bbf987a2551717b34e79f33b5b1008d1fa01db9\n      swap2\n      jump\t// out\n    tag_3:\n      dup1\n      sload\n      dup3\n      lt\n      iszero\n      tag_236\n      jumpi\n      0x00\n      mstore\n      keccak256(0x00, 0x20)\n      add\n      swap1\n      0x00\n      swap1\n      jump\t// out\n    tag_4:\n      swap2\n      swap1\n      dup3\n      sub\n      swap2\n      dup3\n      gt\n      tag_142\n      jumpi\n      jump\t// out\n    tag_5:\n      dup2\n      iszero\n      tag_358\n      jumpi\n      div\n      swap1\n      jump\t// out\n    tag_358:\n      mstore(0x00, shl(0xe0, 0x4e487b71))\n      mstore(0x04, 0x12)\n      revert(0x00, 0x24)\n        /* \"contracts/modules/SponsorMatrix.sol\":7079:7515  function pendingCommunity(uint _userId) external view returns (uint pendingGross, uint pendingAfterCap) {... */\n    tag_6:\n      swap1\n        /* \"contracts/modules/SponsorMatrix.sol\":124:18049  contract Nanakshahi is Storage{... */\n      dup2\n      0x00\n      mstore\n        /* \"contracts/modules/SponsorMatrix.sol\":7198:7203  users */\n      0x0d\n        /* \"contracts/modules/SponsorMatrix.sol\":124:18049  contract Nanakshahi is Storage{... */\n      0x20\n      mstore\n        /* \"contracts/modules/SponsorMatrix.sol\":7198:7215  users[_userId].id */\n      0x03\n        /* \"contracts/modules/SponsorMatrix.sol\":124:18049  contract Nanakshahi is Storage{... */\n      keccak256(0x00, 0x40)\n        /* \"contracts/modules/SponsorMatrix.sol\":7198:7215  users[_userId].id */\n      add\n        /* \"contracts/modules/SponsorMatrix.sol\":124:18049  contract Nanakshahi is Storage{... */\n      sload\n        /* \"contracts/modules/SponsorMatrix.sol\":7198:7220  users[_userId].id == 0 */\n      iszero\n        /* \"contracts/modules/SponsorMatrix.sol\":7194:7235  if (users[_userId].id == 0) return (0, 0) */\n      tag_360\n      jumpi\n        /* \"contracts/modules/SponsorMatrix.sol\":7260:7279  communityAccPerUser */\n      0x09\n        /* \"contracts/modules/SponsorMatrix.sol\":124:18049  contract Nanakshahi is Storage{... */\n      sload\n      dup3\n      0x00\n      mstore\n        /* \"contracts/modules/SponsorMatrix.sol\":7305:7318  communityDebt */\n      0x0a\n        /* \"contracts/modules/SponsorMatrix.sol\":124:18049  contract Nanakshahi is Storage{... */\n      0x20\n      mstore\n      sload(keccak256(0x00, 0x40))\n        /* \"contracts/modules/SponsorMatrix.sol\":7342:7353  acc <= debt */\n      swap1\n      dup2\n      dup2\n      gt\n      iszero\n        /* \"contracts/modules/SponsorMatrix.sol\":7338:7368  if (acc <= debt) return (0, 0) */\n      tag_362\n      jumpi\n        /* \"contracts/modules/SponsorMatrix.sol\":7393:7403  acc - debt */\n      tag_364\n        /* \"contracts/modules/SponsorMatrix.sol\":7442:7477  _applyGlobalCapping(_userId, gross) */\n      tag_365\n        /* \"contracts/modules/SponsorMatrix.sol\":7393:7403  acc - debt */\n      swap3\n        /* \"contracts/modules/Storage.sol\":1120:1124  1e18 */\n      0x0de0b6b3a7640000\n        /* \"contracts/modules/SponsorMatrix.sol\":7393:7403  acc - debt */\n      swap3\n      tag_4\n      jump\t// in\n    tag_364:\n        /* \"contracts/modules/SponsorMatrix.sol\":124:18049  contract Nanakshahi is Storage{... */\n      div\n        /* \"contracts/modules/SponsorMatrix.sol\":7442:7477  _applyGlobalCapping(_userId, gross) */\n      dup1\n      swap4\n      tag_20\n      jump\t// in\n    tag_365:\n        /* \"contracts/modules/SponsorMatrix.sol\":7079:7515  function pendingCommunity(uint _userId) external view returns (uint pendingGross, uint pendingAfterCap) {... */\n      swap1\n      jump\t// out\n        /* \"contracts/modules/SponsorMatrix.sol\":7338:7368  if (acc <= debt) return (0, 0) */\n    tag_362:\n        /* \"contracts/modules/SponsorMatrix.sol\":7355:7368  return (0, 0) */\n      pop\n      pop\n      swap1\n      pop\n      0x00\n      swap1\n      0x00\n      swap1\n      jump\t// out\n        /* \"contracts/modules/SponsorMatrix.sol\":7194:7235  if (users[_userId].id == 0) return (0, 0) */\n    tag_360:\n      0x00\n      swap2\n      pop\n      dup2\n      swap1\n        /* \"contracts/modules/SponsorMatrix.sol\":7222:7235  return (0, 0) */\n      jump\t// out\n        /* \"contracts/modules/SponsorMatrix.sol\":124:18049  contract Nanakshahi is Storage{... */\n    tag_7:\n      iszero\n      tag_366\n      jumpi\n      jump\t// out\n    tag_366:\n      mload(0x40)\n      shl(0xe5, 0x461bcd)\n      dup2\n      mstore\n      0x20\n      0x04\n      dup3\n      add\n      mstore\n      0x10\n      0x24\n      dup3\n      add\n      mstore\n      shl(0x82, 0x139bdd081e5bdd5c881858d8dbdd5b9d)\n      0x44\n      dup3\n      add\n      mstore\n      0x64\n      swap1\n      revert\n    tag_8:\n      0x80\n      dup2\n      add\n      swap1\n      dup2\n      lt\n      0xffffffffffffffff\n      dup3\n      gt\n      or\n      tag_123\n      jumpi\n      0x40\n      mstore\n      jump\t// out\n    tag_9:\n      0xa0\n      dup2\n      add\n      swap1\n      dup2\n      lt\n      0xffffffffffffffff\n      dup3\n      gt\n      or\n      tag_123\n      jumpi\n      0x40\n      mstore\n      jump\t// out\n    tag_10:\n      swap1\n      0x1f\n      dup1\n      not\n      swap2\n      add\n      and\n      dup2\n      add\n      swap1\n      dup2\n      lt\n      0xffffffffffffffff\n      dup3\n      gt\n      or\n      tag_123\n      jumpi\n      0x40\n      mstore\n      jump\t// out\n    tag_11:\n      swap1\n      dup2\n      0x20\n      swap2\n      sub\n      slt\n      tag_96\n      jumpi\n      mload\n      dup1\n      iszero\n      iszero\n      dup2\n      sub\n      tag_96\n      jumpi\n      swap1\n      jump\t// out\n    tag_13:\n      swap2\n      swap1\n      dup3\n      add\n      dup1\n      swap3\n      gt\n      tag_142\n      jumpi\n      jump\t// out\n    tag_14:\n      dup1\n      sload\n      shl(0x40, 0x01)\n      dup2\n      lt\n      iszero\n      tag_123\n      jumpi\n      0x01\n      dup2\n      add\n      dup1\n      dup4\n      sstore\n      dup2\n      lt\n      iszero\n      tag_236\n      jumpi\n      0x03\n      0x60\n      swap2\n      0xff\n      swap4\n      0x00\n      mstore\n      keccak256(0x00, 0x20)\n      swap1\n      0x02\n      shl\n      add\n      dup5\n      mload\n      dup2\n      sstore\n      0x20\n      dup6\n      add\n      mload\n      0x01\n      dup3\n      add\n      sstore\n      0x40\n      dup6\n      add\n      mload\n      0x02\n      dup3\n      add\n      sstore\n      add\n      swap3\n      add\n      mload\n      and\n      not(0xff)\n      dup3\n      sload\n      and\n      or\n      swap1\n      sstore\n      jump\t// out\n    tag_15:\n      dup2\n      dup2\n      mul\n      swap3\n      swap2\n      dup2\n      iszero\n      swap2\n      dup5\n      div\n      eq\n      or\n      iszero\n      tag_142\n      jumpi\n      jump\t// out\n    tag_16:\n      dup1\n      sload\n      swap1\n      shl(0x40, 0x01)\n      dup3\n      lt\n      iszero\n      tag_123\n      jumpi\n      0x01\n      dup3\n      add\n      dup1\n      dup3\n      sstore\n      dup3\n      lt\n      iszero\n      tag_236\n      jumpi\n      0x04\n      swap2\n      0x80\n      swap2\n      0x00\n      mstore\n      0x05\n      keccak256(0x00, 0x20)\n      swap2\n      mul\n      add\n      swap3\n      dup1\n      mload\n      dup5\n      sstore\n      0x20\n      dup2\n      add\n      mload\n      0x01\n      dup6\n      add\n      sstore\n      0x40\n      dup2\n      add\n      mload\n      0x02\n      dup6\n      add\n      sstore\n      0x60\n      dup2\n      add\n      mload\n      0x03\n      dup6\n      add\n      sstore\n      add\n      mload\n      swap2\n      add\n      sstore\n      jump\t// out\n        /* \"contracts/modules/SponsorMatrix.sol\":5322:7069  function claimCommunity(uint _userId) external {... */\n    tag_18:\n        /* \"contracts/modules/SponsorMatrix.sol\":124:18049  contract Nanakshahi is Storage{... */\n      dup1\n      0x00\n      mstore\n        /* \"contracts/modules/SponsorMatrix.sol\":5401:5406  users */\n      0x0d\n        /* \"contracts/modules/SponsorMatrix.sol\":124:18049  contract Nanakshahi is Storage{... */\n      0x20\n      mstore\n      keccak256(0x00, 0x40)\n        /* \"contracts/modules/SponsorMatrix.sol\":5438:5442  u.id */\n      swap1\n      0x03\n      dup3\n      add\n        /* \"contracts/modules/SponsorMatrix.sol\":124:18049  contract Nanakshahi is Storage{... */\n      sload\n        /* \"contracts/modules/SponsorMatrix.sol\":5438:5447  u.id != 0 */\n      iszero\n        /* \"contracts/modules/SponsorMatrix.sol\":124:18049  contract Nanakshahi is Storage{... */\n      tag_390\n      jumpi\n        /* \"contracts/modules/SponsorMatrix.sol\":5481:5533  require(u.account == msg.sender, \"Not your account\") */\n      tag_392\n        /* \"contracts/modules/SponsorMatrix.sol\":124:18049  contract Nanakshahi is Storage{... */\n      0x01\n      dup1\n      0xa0\n      shl\n      sub\n      dup4\n      sload\n      and\n        /* \"contracts/modules/SponsorMatrix.sol\":5502:5512  msg.sender */\n      caller\n        /* \"contracts/modules/SponsorMatrix.sol\":5489:5512  u.account == msg.sender */\n      eq\n        /* \"contracts/modules/SponsorMatrix.sol\":5481:5533  require(u.account == msg.sender, \"Not your account\") */\n      tag_7\n      jump\t// in\n    tag_392:\n        /* \"contracts/modules/SponsorMatrix.sol\":5630:5649  communityAccPerUser */\n      0x09\n        /* \"contracts/modules/SponsorMatrix.sol\":124:18049  contract Nanakshahi is Storage{... */\n      sload\n      swap2\n      dup2\n      0x00\n      mstore\n        /* \"contracts/modules/SponsorMatrix.sol\":5679:5692  communityDebt */\n      0x0a\n        /* \"contracts/modules/SponsorMatrix.sol\":124:18049  contract Nanakshahi is Storage{... */\n      0x20\n      mstore\n      sload(keccak256(0x00, 0x40))\n        /* \"contracts/modules/SponsorMatrix.sol\":5722:5741  accumulated == debt */\n      dup1\n      dup5\n      eq\n        /* \"contracts/modules/SponsorMatrix.sol\":5718:5804  if (accumulated == debt) {... */\n      tag_393\n      jumpi\n        /* \"contracts/modules/SponsorMatrix.sol\":5839:5857  accumulated - debt */\n      tag_395\n        /* \"contracts/modules/Storage.sol\":1120:1124  1e18 */\n      0x0de0b6b3a7640000\n        /* \"contracts/modules/SponsorMatrix.sol\":5839:5857  accumulated - debt */\n      swap2\n      dup6\n      tag_4\n      jump\t// in\n    tag_395:\n        /* \"contracts/modules/SponsorMatrix.sol\":124:18049  contract Nanakshahi is Storage{... */\n      div\n        /* \"contracts/modules/SponsorMatrix.sol\":5893:5905  accrued == 0 */\n      swap2\n      dup3\n      iszero\n        /* \"contracts/modules/SponsorMatrix.sol\":5889:6022  if (accrued == 0) {... */\n      tag_396\n      jumpi\n        /* \"contracts/modules/SponsorMatrix.sol\":6099:6136  _applyGlobalCapping(_userId, accrued) */\n      tag_398\n      dup4\n      dup3\n      tag_20\n      jump\t// in\n    tag_398:\n        /* \"contracts/modules/SponsorMatrix.sol\":124:18049  contract Nanakshahi is Storage{... */\n      swap4\n      dup2\n      0x00\n      mstore\n        /* \"contracts/modules/SponsorMatrix.sol\":5679:5692  communityDebt */\n      0x0a\n        /* \"contracts/modules/SponsorMatrix.sol\":124:18049  contract Nanakshahi is Storage{... */\n      0x20\n      mstore\n      keccak256(0x00, 0x40)\n      sstore\n        /* \"contracts/modules/SponsorMatrix.sol\":6283:6290  pay > 0 */\n      dup4\n      dup1\n        /* \"contracts/modules/SponsorMatrix.sol\":6279:6900  if (pay > 0) {... */\n      tag_399\n      jumpi\n        /* \"contracts/modules/SponsorMatrix.sol\":5322:7069  function claimCommunity(uint _userId) external {... */\n    tag_400:\n        /* \"contracts/modules/SponsorMatrix.sol\":6979:6992  accrued > pay */\n      swap2\n      pop\n      pop\n      dup2\n      gt\n        /* \"contracts/modules/SponsorMatrix.sol\":6975:7058  if (accrued > pay) {... */\n      tag_401\n      jumpi\n        /* \"contracts/modules/SponsorMatrix.sol\":5322:7069  function claimCommunity(uint _userId) external {... */\n      pop\n      pop\n      jump\t// out\n        /* \"contracts/modules/SponsorMatrix.sol\":6975:7058  if (accrued > pay) {... */\n    tag_401:\n        /* \"contracts/modules/SponsorMatrix.sol\":7028:7041  accrued - pay */\n      tag_403\n      swap2\n      tag_404\n      swap2\n      tag_4\n      jump\t// in\n    tag_404:\n      tag_22\n      jump\t// in\n    tag_403:\n        /* \"contracts/modules/SponsorMatrix.sol\":5322:7069  function claimCommunity(uint _userId) external {... */\n      jump\t// out\n        /* \"contracts/modules/SponsorMatrix.sol\":6279:6900  if (pay > 0) {... */\n    tag_399:\n        /* \"contracts/modules/SponsorMatrix.sol\":6830:6859  usdt.transfer(u.account, pay) */\n      tag_405\n        /* \"contracts/modules/SponsorMatrix.sol\":124:18049  contract Nanakshahi is Storage{... */\n      swap3\n        /* \"contracts/modules/SponsorMatrix.sol\":6495:6769  incomeHistory[_userId].push(Income({... */\n      tag_406\n        /* \"contracts/modules/SponsorMatrix.sol\":124:18049  contract Nanakshahi is Storage{... */\n      dup4\n      0x20\n      swap5\n      0x00\n      mstore\n        /* \"contracts/modules/SponsorMatrix.sol\":6336:6347  userIncomes */\n      0x0e\n        /* \"contracts/modules/SponsorMatrix.sol\":124:18049  contract Nanakshahi is Storage{... */\n      dup6\n      mstore\n        /* \"contracts/modules/SponsorMatrix.sol\":6416:6435  inc.communityIncome */\n      0x07\n        /* \"contracts/modules/SponsorMatrix.sol\":124:18049  contract Nanakshahi is Storage{... */\n      keccak256(0x00, 0x40)\n        /* \"contracts/modules/SponsorMatrix.sol\":6375:6397  inc.totalIncome += pay */\n      tag_407\n        /* \"contracts/modules/SponsorMatrix.sol\":124:18049  contract Nanakshahi is Storage{... */\n      dup7\n      dup3\n      sload\n        /* \"contracts/modules/SponsorMatrix.sol\":6375:6397  inc.totalIncome += pay */\n      tag_13\n      jump\t// in\n    tag_407:\n        /* \"contracts/modules/SponsorMatrix.sol\":124:18049  contract Nanakshahi is Storage{... */\n      dup2\n      sstore\n        /* \"contracts/modules/SponsorMatrix.sol\":6416:6435  inc.communityIncome */\n      add\n        /* \"contracts/modules/SponsorMatrix.sol\":6416:6442  inc.communityIncome += pay */\n      tag_408\n        /* \"contracts/modules/SponsorMatrix.sol\":124:18049  contract Nanakshahi is Storage{... */\n      dup6\n      dup3\n      sload\n        /* \"contracts/modules/SponsorMatrix.sol\":6416:6442  inc.communityIncome += pay */\n      tag_13\n      jump\t// in\n    tag_408:\n        /* \"contracts/modules/SponsorMatrix.sol\":124:18049  contract Nanakshahi is Storage{... */\n      swap1\n      sstore\n      dup1\n      0x00\n      mstore\n        /* \"contracts/modules/SponsorMatrix.sol\":6495:6508  incomeHistory */\n      0x0f\n        /* \"contracts/modules/SponsorMatrix.sol\":124:18049  contract Nanakshahi is Storage{... */\n      dup6\n      mstore\n      keccak256(0x00, 0x40)\n      mload(0x40)\n      swap2\n      tag_409\n      dup4\n      tag_9\n      jump\t// in\n    tag_409:\n      dup3\n      mstore\n        /* \"contracts/modules/SponsorMatrix.sol\":6523:6768  Income({... */\n      dup5\n      dup7\n      dup4\n      add\n        /* \"contracts/modules/SponsorMatrix.sol\":124:18049  contract Nanakshahi is Storage{... */\n      mstore\n        /* \"contracts/modules/SponsorMatrix.sol\":6643:6644  1 */\n      0x01\n        /* \"contracts/modules/SponsorMatrix.sol\":124:18049  contract Nanakshahi is Storage{... */\n      0x40\n        /* \"contracts/modules/SponsorMatrix.sol\":6523:6768  Income({... */\n      dup4\n      add\n        /* \"contracts/modules/SponsorMatrix.sol\":124:18049  contract Nanakshahi is Storage{... */\n      mstore\n        /* \"contracts/modules/SponsorMatrix.sol\":6678:6693  block.timestamp */\n      timestamp\n        /* \"contracts/modules/SponsorMatrix.sol\":6523:6768  Income({... */\n      0x60\n      dup4\n      add\n        /* \"contracts/modules/SponsorMatrix.sol\":124:18049  contract Nanakshahi is Storage{... */\n      mstore\n        /* \"contracts/modules/SponsorMatrix.sol\":5630:5649  communityAccPerUser */\n      0x09\n        /* \"contracts/modules/SponsorMatrix.sol\":6523:6768  Income({... */\n      0x80\n      dup4\n      add\n        /* \"contracts/modules/SponsorMatrix.sol\":124:18049  contract Nanakshahi is Storage{... */\n      mstore\n        /* \"contracts/modules/SponsorMatrix.sol\":6495:6769  incomeHistory[_userId].push(Income({... */\n      tag_16\n      jump\t// in\n    tag_406:\n        /* \"contracts/modules/SponsorMatrix.sol\":124:18049  contract Nanakshahi is Storage{... */\n      sload(0x01)\n      swap1\n      sload\n      mload(0x40)\n      shl(0xe0, 0xa9059cbb)\n        /* \"contracts/modules/SponsorMatrix.sol\":6830:6859  usdt.transfer(u.account, pay) */\n      dup2\n      mstore\n      sub(shl(0xa0, 0x01), 0x01)\n        /* \"contracts/modules/SponsorMatrix.sol\":124:18049  contract Nanakshahi is Storage{... */\n      swap2\n      dup3\n      and\n        /* \"contracts/modules/SponsorMatrix.sol\":6830:6859  usdt.transfer(u.account, pay) */\n      0x04\n      dup3\n      add\n        /* \"contracts/modules/SponsorMatrix.sol\":124:18049  contract Nanakshahi is Storage{... */\n      mstore\n      0x24\n      dup2\n      add\n      swap4\n      swap1\n      swap4\n      mstore\n      swap2\n      swap4\n      dup5\n      swap3\n      swap1\n      swap2\n      and\n      swap1\n      dup3\n      swap1\n      0x00\n      swap1\n      dup3\n      swap1\n      0x44\n      dup3\n      add\n      swap1\n      jump\n        /* \"contracts/modules/SponsorMatrix.sol\":6830:6859  usdt.transfer(u.account, pay) */\n    tag_405:\n      sub\n      swap3\n      gas\n      call\n      swap1\n      dup2\n      iszero\n      tag_112\n      jumpi\n      0x00\n      swap2\n      tag_412\n      jumpi\n        /* \"contracts/modules/SponsorMatrix.sol\":6279:6900  if (pay > 0) {... */\n    tag_413:\n        /* \"contracts/modules/SponsorMatrix.sol\":124:18049  contract Nanakshahi is Storage{... */\n      pop\n      iszero\n      tag_414\n      jumpi\n        /* \"contracts/modules/SponsorMatrix.sol\":6279:6900  if (pay > 0) {... */\n      0x00\n      dup1\n      dup4\n      jump(tag_400)\n        /* \"contracts/modules/SponsorMatrix.sol\":124:18049  contract Nanakshahi is Storage{... */\n    tag_414:\n      mload(0x40)\n      shl(0xe5, 0x461bcd)\n      dup2\n      mstore\n      0x20\n        /* \"contracts/modules/SponsorMatrix.sol\":6830:6859  usdt.transfer(u.account, pay) */\n      0x04\n        /* \"contracts/modules/SponsorMatrix.sol\":124:18049  contract Nanakshahi is Storage{... */\n      dup3\n      add\n      mstore\n      0x14\n      0x24\n      dup3\n      add\n      mstore\n      shl(0x62, 0x1554d115081d1c985b9cd9995c8819985a5b1959)\n      0x44\n      dup3\n      add\n      mstore\n      0x64\n      swap1\n      revert\n        /* \"contracts/modules/SponsorMatrix.sol\":6830:6859  usdt.transfer(u.account, pay) */\n    tag_412:\n      tag_416\n      swap2\n      pop\n        /* \"contracts/modules/SponsorMatrix.sol\":124:18049  contract Nanakshahi is Storage{... */\n      0x20\n        /* \"contracts/modules/SponsorMatrix.sol\":6830:6859  usdt.transfer(u.account, pay) */\n      returndatasize\n        /* \"contracts/modules/SponsorMatrix.sol\":124:18049  contract Nanakshahi is Storage{... */\n      0x20\n        /* \"contracts/modules/SponsorMatrix.sol\":6830:6859  usdt.transfer(u.account, pay) */\n      gt\n      tag_177\n      jumpi\n      tag_179\n      dup2\n      dup4\n      tag_10\n      jump\t// in\n    tag_416:\n      0x00\n      jump(tag_413)\n        /* \"contracts/modules/SponsorMatrix.sol\":5889:6022  if (accrued == 0) {... */\n    tag_396:\n        /* \"contracts/modules/SponsorMatrix.sol\":124:18049  contract Nanakshahi is Storage{... */\n      swap2\n      pop\n      pop\n      0x00\n      mstore\n        /* \"contracts/modules/SponsorMatrix.sol\":5679:5692  communityDebt */\n      0x0a\n        /* \"contracts/modules/SponsorMatrix.sol\":124:18049  contract Nanakshahi is Storage{... */\n      0x20\n      mstore\n      keccak256(0x00, 0x40)\n      sstore\n        /* \"contracts/modules/SponsorMatrix.sol\":6000:6007  return; */\n      jump\t// out\n        /* \"contracts/modules/SponsorMatrix.sol\":5718:5804  if (accumulated == debt) {... */\n    tag_393:\n        /* \"contracts/modules/SponsorMatrix.sol\":5762:5769  return; */\n      pop\n      pop\n      pop\n      pop\n      jump\t// out\n        /* \"contracts/modules/SponsorMatrix.sol\":124:18049  contract Nanakshahi is Storage{... */\n    tag_390:\n      mload(0x40)\n      shl(0xe5, 0x461bcd)\n      dup2\n      mstore\n      0x20\n      0x04\n      dup3\n      add\n      mstore\n      0x0e\n      0x24\n      dup3\n      add\n      mstore\n      shl(0x92, 0x155cd95c881b9bdd08199bdd5b99)\n      0x44\n      dup3\n      add\n      mstore\n      0x64\n      swap1\n      revert\n    tag_19:\n      dup1\n      sload\n      shl(0x40, 0x01)\n      dup2\n      lt\n      iszero\n      tag_123\n      jumpi\n      tag_422\n      swap2\n      0x01\n      dup3\n      add\n      dup2\n      sstore\n      tag_3\n      jump\t// in\n    tag_422:\n      dup2\n      swap3\n      swap2\n      sload\n      swap1\n      0x03\n      shl\n      swap2\n      dup3\n      shl\n      swap2\n      not(0x00)\n      swap1\n      shl\n      not\n      and\n      or\n      swap1\n      sstore\n      jump\t// out\n        /* \"contracts/modules/SponsorMatrix.sol\":4213:4980  function _applyGlobalCapping(uint _userId, uint _amount) internal view returns (uint) {... */\n    tag_20:\n        /* \"contracts/modules/SponsorMatrix.sol\":124:18049  contract Nanakshahi is Storage{... */\n      dup1\n      0x00\n      mstore\n        /* \"contracts/modules/SponsorMatrix.sol\":4326:4331  users */\n      0x0d\n        /* \"contracts/modules/SponsorMatrix.sol\":124:18049  contract Nanakshahi is Storage{... */\n      0x20\n      mstore\n      keccak256(0x00, 0x40)\n      swap1\n      0x00\n      mstore\n        /* \"contracts/modules/SponsorMatrix.sol\":4375:4386  userIncomes */\n      0x0e\n        /* \"contracts/modules/SponsorMatrix.sol\":124:18049  contract Nanakshahi is Storage{... */\n      0x20\n      mstore\n        /* \"contracts/modules/SponsorMatrix.sol\":4751:4768  user.totalDeposit */\n      0x0a\n        /* \"contracts/modules/SponsorMatrix.sol\":4751:4790  user.totalDeposit * _ROI_CAP_MULTIPLIER */\n      tag_423\n        /* \"contracts/modules/SponsorMatrix.sol\":124:18049  contract Nanakshahi is Storage{... */\n      keccak256(0x00, 0x40)\n        /* \"contracts/modules/SponsorMatrix.sol\":4607:4652  uint _ROI_CAP_MULTIPLIER = ROI_CAP_MULTIPLIER */\n      swap3\n        /* \"contracts/modules/Storage.sol\":789:791  15 */\n      0x0f\n        /* \"contracts/modules/SponsorMatrix.sol\":4661:4685  user.directPoolQualified */\n      swap1\n        /* \"contracts/modules/SponsorMatrix.sol\":4686:4687  1 */\n      0x01\n        /* \"contracts/modules/SponsorMatrix.sol\":4661:4685  user.directPoolQualified */\n      0x08\n      dup3\n      add\n        /* \"contracts/modules/SponsorMatrix.sol\":124:18049  contract Nanakshahi is Storage{... */\n      sload\n        /* \"contracts/modules/SponsorMatrix.sol\":4661:4687  user.directPoolQualified>1 */\n      gt\n        /* \"contracts/modules/SponsorMatrix.sol\":4658:4728  if(user.directPoolQualified>1){... */\n      tag_424\n      jumpi\n        /* \"contracts/modules/SponsorMatrix.sol\":4213:4980  function _applyGlobalCapping(uint _userId, uint _amount) internal view returns (uint) {... */\n    tag_425:\n        /* \"contracts/modules/SponsorMatrix.sol\":4751:4768  user.totalDeposit */\n      dup4\n      add\n        /* \"contracts/modules/SponsorMatrix.sol\":124:18049  contract Nanakshahi is Storage{... */\n      sload\n        /* \"contracts/modules/SponsorMatrix.sol\":4751:4790  user.totalDeposit * _ROI_CAP_MULTIPLIER */\n      tag_15\n      jump\t// in\n    tag_423:\n        /* \"contracts/modules/SponsorMatrix.sol\":124:18049  contract Nanakshahi is Storage{... */\n      div\n      swap1\n      sload\n        /* \"contracts/modules/SponsorMatrix.sol\":4822:4853  income.totalIncome >= maxIncome */\n      dup2\n      dup2\n      lt\n      iszero\n        /* \"contracts/modules/SponsorMatrix.sol\":4818:4863  if (income.totalIncome >= maxIncome) return 0 */\n      tag_426\n      jumpi\n        /* \"contracts/modules/SponsorMatrix.sol\":4889:4919  maxIncome - income.totalIncome */\n      tag_428\n      swap2\n      tag_4\n      jump\t// in\n    tag_428:\n        /* \"contracts/modules/SponsorMatrix.sol\":4933:4976  (_amount > remaining) ? remaining : _amount */\n      swap1\n        /* \"contracts/modules/SponsorMatrix.sol\":4934:4953  _amount > remaining */\n      dup2\n      dup2\n      gt\n      iszero\n      tag_429\n      jumpi\n        /* \"contracts/modules/SponsorMatrix.sol\":4933:4976  (_amount > remaining) ? remaining : _amount */\n      pop\n        /* \"contracts/modules/SponsorMatrix.sol\":4213:4980  function _applyGlobalCapping(uint _userId, uint _amount) internal view returns (uint) {... */\n      swap1\n      jump\t// out\n        /* \"contracts/modules/SponsorMatrix.sol\":4933:4976  (_amount > remaining) ? remaining : _amount */\n    tag_429:\n      swap1\n      pop\n        /* \"contracts/modules/SponsorMatrix.sol\":4213:4980  function _applyGlobalCapping(uint _userId, uint _amount) internal view returns (uint) {... */\n      swap1\n      jump\t// out\n        /* \"contracts/modules/SponsorMatrix.sol\":4818:4863  if (income.totalIncome >= maxIncome) return 0 */\n    tag_426:\n        /* \"contracts/modules/SponsorMatrix.sol\":4855:4863  return 0 */\n      pop\n      pop\n      pop\n        /* \"contracts/modules/SponsorMatrix.sol\":124:18049  contract Nanakshahi is Storage{... */\n      0x00\n        /* \"contracts/modules/SponsorMatrix.sol\":4855:4863  return 0 */\n      swap1\n      jump\t// out\n        /* \"contracts/modules/SponsorMatrix.sol\":4658:4728  if(user.directPoolQualified>1){... */\n    tag_424:\n        /* \"contracts/modules/SponsorMatrix.sol\":4719:4721  20 */\n      0x14\n      swap2\n      pop\n        /* \"contracts/modules/SponsorMatrix.sol\":4658:4728  if(user.directPoolQualified>1){... */\n      jump(tag_425)\n        /* \"contracts/modules/SponsorMatrix.sol\":4988:5312  function _accrueCommunityBonus(uint _totalAmount) internal {... */\n    tag_21:\n        /* \"contracts/modules/SponsorMatrix.sol\":5067:5084  registeredUserIds */\n      0x07\n        /* \"contracts/modules/SponsorMatrix.sol\":124:18049  contract Nanakshahi is Storage{... */\n      sload\n        /* \"contracts/modules/SponsorMatrix.sol\":5106:5112  n == 0 */\n      swap1\n      dup2\n      iszero\n        /* \"contracts/modules/SponsorMatrix.sol\":5106:5133  n == 0 || _totalAmount == 0 */\n      dup1\n      iszero\n      tag_432\n      jumpi\n        /* \"contracts/modules/SponsorMatrix.sol\":4988:5312  function _accrueCommunityBonus(uint _totalAmount) internal {... */\n    tag_433:\n        /* \"contracts/modules/SponsorMatrix.sol\":5102:5237  if (n == 0 || _totalAmount == 0) {... */\n      tag_434\n      jumpi\n        /* \"contracts/modules/Storage.sol\":1120:1124  1e18 */\n      0x0de0b6b3a7640000\n        /* \"contracts/modules/SponsorMatrix.sol\":124:18049  contract Nanakshahi is Storage{... */\n      dup2\n      mul\n      swap1\n      dup1\n      dup3\n      div\n        /* \"contracts/modules/Storage.sol\":1120:1124  1e18 */\n      0x0de0b6b3a7640000\n        /* \"contracts/modules/SponsorMatrix.sol\":124:18049  contract Nanakshahi is Storage{... */\n      eq\n      swap1\n      iszero\n      or\n      iszero\n      tag_142\n      jumpi\n        /* \"contracts/modules/SponsorMatrix.sol\":5247:5304  communityAccPerUser += (_totalAmount * ACC_PRECISION) / n */\n      tag_438\n        /* \"contracts/modules/SponsorMatrix.sol\":5270:5304  (_totalAmount * ACC_PRECISION) / n */\n      swap2\n      tag_439\n      swap2\n      tag_5\n      jump\t// in\n    tag_439:\n        /* \"contracts/modules/SponsorMatrix.sol\":5247:5304  communityAccPerUser += (_totalAmount * ACC_PRECISION) / n */\n      0x09\n        /* \"contracts/modules/SponsorMatrix.sol\":124:18049  contract Nanakshahi is Storage{... */\n      sload\n        /* \"contracts/modules/SponsorMatrix.sol\":5247:5304  communityAccPerUser += (_totalAmount * ACC_PRECISION) / n */\n      tag_13\n      jump\t// in\n    tag_438:\n      0x09\n        /* \"contracts/modules/SponsorMatrix.sol\":124:18049  contract Nanakshahi is Storage{... */\n      sstore\n        /* \"contracts/modules/SponsorMatrix.sol\":4988:5312  function _accrueCommunityBonus(uint _totalAmount) internal {... */\n      jump\t// out\n        /* \"contracts/modules/SponsorMatrix.sol\":5102:5237  if (n == 0 || _totalAmount == 0) {... */\n    tag_434:\n        /* \"contracts/modules/SponsorMatrix.sol\":5154:5170  _totalAmount > 0 */\n      dup1\n      swap2\n      pop\n        /* \"contracts/modules/SponsorMatrix.sol\":5150:5205  if (_totalAmount > 0) { _sendToCreator(_totalAmount); } */\n      tag_440\n      jumpi\n        /* \"contracts/modules/SponsorMatrix.sol\":5219:5226  return; */\n      pop\n      jump\t// out\n        /* \"contracts/modules/SponsorMatrix.sol\":5150:5205  if (_totalAmount > 0) { _sendToCreator(_totalAmount); } */\n    tag_440:\n        /* \"contracts/modules/SponsorMatrix.sol\":5189:5201  _totalAmount */\n      tag_403\n      swap1\n      tag_22\n      jump\t// in\n        /* \"contracts/modules/SponsorMatrix.sol\":5106:5133  n == 0 || _totalAmount == 0 */\n    tag_432:\n        /* \"contracts/modules/SponsorMatrix.sol\":5116:5133  _totalAmount == 0 */\n      pop\n      dup1\n      iszero\n        /* \"contracts/modules/SponsorMatrix.sol\":5106:5133  n == 0 || _totalAmount == 0 */\n      jump(tag_433)\n        /* \"contracts/modules/Storage.sol\":8483:9094  function _sendToCreator(uint _amount) internal {... */\n    tag_22:\n        /* \"contracts/modules/Storage.sol\":8545:8558  creatorWallet */\n      0x02\n        /* \"contracts/modules/SponsorMatrix.sol\":124:18049  contract Nanakshahi is Storage{... */\n      sload\n      sub(shl(0xa0, 0x01), 0x01)\n      and\n        /* \"contracts/modules/Storage.sol\":8545:8572  creatorWallet != address(0) */\n      dup1\n      iszero\n        /* \"contracts/modules/SponsorMatrix.sol\":124:18049  contract Nanakshahi is Storage{... */\n      tag_443\n      jumpi\n      sload(0x01)\n      mload(0x40)\n      shl(0xe0, 0xa9059cbb)\n        /* \"@openzeppelin/contracts/token/ERC20/utils/SafeERC20.sol\":1328:1371  abi.encodeCall(token.transfer, (to, value)) */\n      0x20\n      dup1\n      dup4\n      add\n      swap2\n      dup3\n      mstore\n      sub(shl(0xa0, 0x01), 0x01)\n        /* \"contracts/modules/SponsorMatrix.sol\":124:18049  contract Nanakshahi is Storage{... */\n      swap5\n      dup6\n      and\n        /* \"@openzeppelin/contracts/token/ERC20/utils/SafeERC20.sol\":1328:1371  abi.encodeCall(token.transfer, (to, value)) */\n      0x24\n      dup5\n      add\n        /* \"contracts/modules/SponsorMatrix.sol\":124:18049  contract Nanakshahi is Storage{... */\n      mstore\n      0x44\n      dup1\n      dup5\n      add\n      dup8\n      swap1\n      mstore\n        /* \"@openzeppelin/contracts/token/ERC20/utils/SafeERC20.sol\":1328:1371  abi.encodeCall(token.transfer, (to, value)) */\n      dup4\n      mstore\n        /* \"contracts/modules/SponsorMatrix.sol\":124:18049  contract Nanakshahi is Storage{... */\n      swap4\n      swap1\n      swap3\n      and\n      swap3\n        /* \"@openzeppelin/contracts/token/ERC20/utils/SafeERC20.sol\":1328:1371  abi.encodeCall(token.transfer, (to, value)) */\n      swap2\n      0x00\n      swap2\n      tag_445\n        /* \"contracts/modules/SponsorMatrix.sol\":124:18049  contract Nanakshahi is Storage{... */\n      0x64\n      dup3\n        /* \"@openzeppelin/contracts/token/ERC20/utils/SafeERC20.sol\":1328:1371  abi.encodeCall(token.transfer, (to, value)) */\n      tag_10\n      jump\t// in\n    tag_445:\n        /* \"@openzeppelin/contracts/token/ERC20/utils/SafeERC20.sol\":8507:8928  assembly (\"memory-safe\") {... */\n      mload\n      swap1\n      dup3\n      dup6\n      gas\n      call\n      iszero\n      tag_112\n      jumpi\n      mload(0x00)\n      returndatasize\n        /* \"@openzeppelin/contracts/token/ERC20/utils/SafeERC20.sol\":8942:8957  returnSize == 0 */\n      tag_449\n      jumpi\n        /* \"@openzeppelin/contracts/token/ERC20/utils/SafeERC20.sol\":8960:8986  address(token).code.length */\n      pop\n      dup1\n      extcodesize\n        /* \"@openzeppelin/contracts/token/ERC20/utils/SafeERC20.sol\":8960:8991  address(token).code.length == 0 */\n      iszero\n        /* \"@openzeppelin/contracts/token/ERC20/utils/SafeERC20.sol\":8942:9010  returnSize == 0 ? address(token).code.length == 0 : returnValue != 1 */\n    tag_451:\n        /* \"@openzeppelin/contracts/token/ERC20/utils/SafeERC20.sol\":8938:9084  if (returnSize == 0 ? address(token).code.length == 0 : returnValue != 1) {... */\n      tag_452\n      jumpi\n        /* \"contracts/modules/SponsorMatrix.sol\":124:18049  contract Nanakshahi is Storage{... */\n      pop\n        /* \"contracts/modules/Storage.sol\":8904:9090  incomeHistory[defaultRefId].push(Income({... */\n      tag_403\n        /* \"contracts/modules/SponsorMatrix.sol\":124:18049  contract Nanakshahi is Storage{... */\n      swap1\n        /* \"contracts/modules/Storage.sol\":8839:8851  defaultRefId */\n      0x05\n        /* \"contracts/modules/SponsorMatrix.sol\":124:18049  contract Nanakshahi is Storage{... */\n      sload\n      0x00\n      mstore\n        /* \"contracts/modules/Storage.sol\":8827:8838  userIncomes */\n      0x0e\n        /* \"@openzeppelin/contracts/token/ERC20/utils/SafeERC20.sol\":1328:1371  abi.encodeCall(token.transfer, (to, value)) */\n      0x20\n        /* \"contracts/modules/SponsorMatrix.sol\":124:18049  contract Nanakshahi is Storage{... */\n      mstore\n      keccak256(0x00, 0x40)\n        /* \"contracts/modules/Storage.sol\":8859:8895  creatorIncome.totalIncome += _amount */\n      tag_455\n        /* \"contracts/modules/SponsorMatrix.sol\":124:18049  contract Nanakshahi is Storage{... */\n      dup3\n      dup3\n      sload\n        /* \"contracts/modules/Storage.sol\":8859:8895  creatorIncome.totalIncome += _amount */\n      tag_13\n      jump\t// in\n    tag_455:\n        /* \"contracts/modules/SponsorMatrix.sol\":124:18049  contract Nanakshahi is Storage{... */\n      swap1\n      sstore\n        /* \"contracts/modules/Storage.sol\":8839:8851  defaultRefId */\n      0x05\n        /* \"contracts/modules/SponsorMatrix.sol\":124:18049  contract Nanakshahi is Storage{... */\n      sload\n      0x00\n      mstore\n        /* \"contracts/modules/Storage.sol\":8904:8917  incomeHistory */\n      0x0f\n        /* \"@openzeppelin/contracts/token/ERC20/utils/SafeERC20.sol\":1328:1371  abi.encodeCall(token.transfer, (to, value)) */\n      0x20\n        /* \"contracts/modules/SponsorMatrix.sol\":124:18049  contract Nanakshahi is Storage{... */\n      mstore\n      keccak256(0x00, 0x40)\n      mload(0x40)\n      swap2\n      tag_456\n      dup4\n      tag_9\n      jump\t// in\n    tag_456:\n      0x00\n      dup4\n      mstore\n        /* \"@openzeppelin/contracts/token/ERC20/utils/SafeERC20.sol\":1328:1371  abi.encodeCall(token.transfer, (to, value)) */\n      0x20\n        /* \"contracts/modules/Storage.sol\":8937:9089  Income({... */\n      dup4\n      add\n        /* \"contracts/modules/SponsorMatrix.sol\":124:18049  contract Nanakshahi is Storage{... */\n      mstore\n      0x00\n      0x40\n        /* \"contracts/modules/Storage.sol\":8937:9089  Income({... */\n      dup4\n      add\n        /* \"contracts/modules/SponsorMatrix.sol\":124:18049  contract Nanakshahi is Storage{... */\n      mstore\n        /* \"contracts/modules/Storage.sol\":9042:9057  block.timestamp */\n      timestamp\n        /* \"contracts/modules/Storage.sol\":8937:9089  Income({... */\n      0x60\n      dup4\n      add\n        /* \"contracts/modules/SponsorMatrix.sol\":124:18049  contract Nanakshahi is Storage{... */\n      mstore\n        /* \"contracts/modules/Storage.sol\":8839:8851  defaultRefId */\n      0x05\n        /* \"contracts/modules/Storage.sol\":8937:9089  Income({... */\n      0x80\n      dup4\n      add\n        /* \"contracts/modules/SponsorMatrix.sol\":124:18049  contract Nanakshahi is Storage{... */\n      mstore\n        /* \"contracts/modules/Storage.sol\":8904:9090  incomeHistory[defaultRefId].push(Income({... */\n      tag_16\n      jump\t// in\n        /* \"@openzeppelin/contracts/token/ERC20/utils/SafeERC20.sol\":8938:9084  if (returnSize == 0 ? address(token).code.length == 0 : returnValue != 1) {... */\n    tag_452:\n        /* \"@openzeppelin/contracts/token/ERC20/utils/SafeERC20.sol\":9033:9073  SafeERC20FailedOperation(address(token)) */\n      mstore(0x00, shl(0xe0, 0x5274afe7))\n      0x04\n        /* \"contracts/modules/SponsorMatrix.sol\":124:18049  contract Nanakshahi is Storage{... */\n      mstore\n        /* \"@openzeppelin/contracts/token/ERC20/utils/SafeERC20.sol\":1328:1371  abi.encodeCall(token.transfer, (to, value)) */\n      0x24\n      0x00\n        /* \"@openzeppelin/contracts/token/ERC20/utils/SafeERC20.sol\":9033:9073  SafeERC20FailedOperation(address(token)) */\n      revert\n        /* \"@openzeppelin/contracts/token/ERC20/utils/SafeERC20.sol\":8942:9010  returnSize == 0 ? address(token).code.length == 0 : returnValue != 1 */\n    tag_449:\n        /* \"contracts/modules/Storage.sol\":8691:8695  usdt */\n      0x01\n        /* \"@openzeppelin/contracts/token/ERC20/utils/SafeERC20.sol\":8994:9010  returnValue != 1 */\n      eq\n      iszero\n        /* \"@openzeppelin/contracts/token/ERC20/utils/SafeERC20.sol\":8942:9010  returnSize == 0 ? address(token).code.length == 0 : returnValue != 1 */\n      jump(tag_451)\n        /* \"contracts/modules/SponsorMatrix.sol\":124:18049  contract Nanakshahi is Storage{... */\n    tag_443:\n      mload(0x40)\n      shl(0xe5, 0x461bcd)\n      dup2\n      mstore\n      0x20\n      0x04\n      dup3\n      add\n      mstore\n      0x11\n      0x24\n      dup3\n      add\n      mstore\n      shl(0x7a, 0x199959481859191c9cc81b9bdd081cd95d)\n      0x44\n      dup3\n      add\n      mstore\n      0x64\n      swap1\n      revert\n        /* \"contracts/modules/SponsorMatrix.sol\":9036:10270  function _distributeSponsorIncome(uint _sponsorId, uint _fromId, uint _amount, uint _packageLevel) private {... */\n    tag_23:\n        /* \"contracts/modules/SponsorMatrix.sol\":9158:9173  _sponsorId == 0 */\n      dup1\n      iszero\n        /* \"contracts/modules/SponsorMatrix.sol\":9158:9203  _sponsorId == 0 || _sponsorId == defaultRefId */\n      dup1\n      iszero\n      tag_457\n      jumpi\n        /* \"contracts/modules/SponsorMatrix.sol\":9036:10270  function _distributeSponsorIncome(uint _sponsorId, uint _fromId, uint _amount, uint _packageLevel) private {... */\n    tag_458:\n        /* \"contracts/modules/SponsorMatrix.sol\":9154:9276  if (_sponsorId == 0 || _sponsorId == defaultRefId) {... */\n      tag_459\n      jumpi\n        /* \"contracts/modules/SponsorMatrix.sol\":124:18049  contract Nanakshahi is Storage{... */\n      dup1\n        /* \"contracts/modules/SponsorMatrix.sol\":9172:9173  0 */\n      0x00\n        /* \"contracts/modules/SponsorMatrix.sol\":124:18049  contract Nanakshahi is Storage{... */\n      mstore\n        /* \"contracts/modules/SponsorMatrix.sol\":9319:9324  users */\n      0x0d\n        /* \"contracts/modules/SponsorMatrix.sol\":124:18049  contract Nanakshahi is Storage{... */\n      0x20\n      mstore\n      0x40\n        /* \"contracts/modules/SponsorMatrix.sol\":9172:9173  0 */\n      0x00\n        /* \"contracts/modules/SponsorMatrix.sol\":124:18049  contract Nanakshahi is Storage{... */\n      keccak256\n      swap1\n      dup1\n        /* \"contracts/modules/SponsorMatrix.sol\":9172:9173  0 */\n      0x00\n        /* \"contracts/modules/SponsorMatrix.sol\":124:18049  contract Nanakshahi is Storage{... */\n      mstore\n        /* \"contracts/modules/SponsorMatrix.sol\":9690:9701  userIncomes */\n      0x0e\n        /* \"contracts/modules/SponsorMatrix.sol\":124:18049  contract Nanakshahi is Storage{... */\n      0x20\n      mstore\n        /* \"contracts/modules/SponsorMatrix.sol\":469:473  usdt */\n      0x01\n        /* \"contracts/modules/SponsorMatrix.sol\":124:18049  contract Nanakshahi is Storage{... */\n      0x40\n        /* \"contracts/modules/SponsorMatrix.sol\":9172:9173  0 */\n      0x00\n        /* \"contracts/modules/SponsorMatrix.sol\":124:18049  contract Nanakshahi is Storage{... */\n      keccak256\n        /* \"contracts/modules/SponsorMatrix.sol\":9724:9760  sponsorIncome.totalIncome += _amount */\n      tag_461\n        /* \"contracts/modules/SponsorMatrix.sol\":124:18049  contract Nanakshahi is Storage{... */\n      dup7\n      dup3\n      sload\n        /* \"contracts/modules/SponsorMatrix.sol\":9724:9760  sponsorIncome.totalIncome += _amount */\n      tag_13\n      jump\t// in\n    tag_461:\n        /* \"contracts/modules/SponsorMatrix.sol\":124:18049  contract Nanakshahi is Storage{... */\n      dup2\n      sstore\n        /* \"contracts/modules/SponsorMatrix.sol\":9771:9798  sponsorIncome.sponsorIncome */\n      add\n        /* \"contracts/modules/SponsorMatrix.sol\":9771:9809  sponsorIncome.sponsorIncome += _amount */\n      tag_462\n        /* \"contracts/modules/SponsorMatrix.sol\":124:18049  contract Nanakshahi is Storage{... */\n      dup6\n      dup3\n      sload\n        /* \"contracts/modules/SponsorMatrix.sol\":9771:9809  sponsorIncome.sponsorIncome += _amount */\n      tag_13\n      jump\t// in\n    tag_462:\n        /* \"contracts/modules/SponsorMatrix.sol\":124:18049  contract Nanakshahi is Storage{... */\n      swap1\n      sstore\n      sload(0x01)\n      dup3\n      sload\n      mload(0x40)\n      shl(0xe0, 0xa9059cbb)\n        /* \"contracts/modules/SponsorMatrix.sol\":9820:9859  usdt.transfer(sponsor.account, _amount) */\n      dup2\n      mstore\n      sub(shl(0xa0, 0x01), 0x01)\n        /* \"contracts/modules/SponsorMatrix.sol\":124:18049  contract Nanakshahi is Storage{... */\n      swap2\n      dup3\n      and\n        /* \"contracts/modules/SponsorMatrix.sol\":9820:9859  usdt.transfer(sponsor.account, _amount) */\n      0x04\n      dup3\n      add\n        /* \"contracts/modules/SponsorMatrix.sol\":124:18049  contract Nanakshahi is Storage{... */\n      mstore\n      0x24\n      dup2\n      add\n      dup8\n      swap1\n      mstore\n      swap2\n      0x20\n      swap2\n      dup4\n      swap2\n      0x44\n      swap2\n      dup4\n      swap2\n      0x00\n      swap2\n      and\n        /* \"contracts/modules/SponsorMatrix.sol\":9820:9859  usdt.transfer(sponsor.account, _amount) */\n      gas\n      call\n      dup1\n      iszero\n      tag_112\n      jumpi\n      tag_466\n      jumpi\n        /* \"contracts/modules/SponsorMatrix.sol\":9036:10270  function _distributeSponsorIncome(uint _sponsorId, uint _fromId, uint _amount, uint _packageLevel) private {... */\n    tag_467:\n        /* \"contracts/modules/SponsorMatrix.sol\":124:18049  contract Nanakshahi is Storage{... */\n      pop\n        /* \"contracts/modules/SponsorMatrix.sol\":9172:9173  0 */\n      0x00\n        /* \"contracts/modules/SponsorMatrix.sol\":124:18049  contract Nanakshahi is Storage{... */\n      mstore\n        /* \"contracts/modules/SponsorMatrix.sol\":9898:9911  incomeHistory */\n      0x0f\n        /* \"contracts/modules/SponsorMatrix.sol\":124:18049  contract Nanakshahi is Storage{... */\n      0x20\n      mstore\n        /* \"contracts/modules/SponsorMatrix.sol\":9898:10142  incomeHistory[_sponsorId].push(Income({... */\n      tag_468\n        /* \"contracts/modules/SponsorMatrix.sol\":124:18049  contract Nanakshahi is Storage{... */\n      0x40\n        /* \"contracts/modules/SponsorMatrix.sol\":9172:9173  0 */\n      0x00\n        /* \"contracts/modules/SponsorMatrix.sol\":124:18049  contract Nanakshahi is Storage{... */\n      keccak256\n      mload(0x40)\n      swap1\n      tag_469\n      dup3\n      tag_9\n      jump\t// in\n    tag_469:\n      dup5\n      dup3\n      mstore\n        /* \"contracts/modules/SponsorMatrix.sol\":9929:10141  Income({... */\n      dup6\n        /* \"contracts/modules/SponsorMatrix.sol\":124:18049  contract Nanakshahi is Storage{... */\n      0x20\n        /* \"contracts/modules/SponsorMatrix.sol\":9929:10141  Income({... */\n      dup4\n      add\n        /* \"contracts/modules/SponsorMatrix.sol\":124:18049  contract Nanakshahi is Storage{... */\n      mstore\n        /* \"contracts/modules/SponsorMatrix.sol\":469:473  usdt */\n      0x01\n        /* \"contracts/modules/SponsorMatrix.sol\":124:18049  contract Nanakshahi is Storage{... */\n      0x40\n        /* \"contracts/modules/SponsorMatrix.sol\":9929:10141  Income({... */\n      dup4\n      add\n        /* \"contracts/modules/SponsorMatrix.sol\":124:18049  contract Nanakshahi is Storage{... */\n      mstore\n        /* \"contracts/modules/SponsorMatrix.sol\":10068:10083  block.timestamp */\n      timestamp\n        /* \"contracts/modules/SponsorMatrix.sol\":9929:10141  Income({... */\n      0x60\n      dup4\n      add\n        /* \"contracts/modules/SponsorMatrix.sol\":124:18049  contract Nanakshahi is Storage{... */\n      mstore\n        /* \"contracts/modules/SponsorMatrix.sol\":469:473  usdt */\n      0x01\n        /* \"contracts/modules/SponsorMatrix.sol\":9929:10141  Income({... */\n      0x80\n      dup4\n      add\n        /* \"contracts/modules/SponsorMatrix.sol\":124:18049  contract Nanakshahi is Storage{... */\n      mstore\n        /* \"contracts/modules/SponsorMatrix.sol\":9898:10142  incomeHistory[_sponsorId].push(Income({... */\n      tag_16\n      jump\t// in\n    tag_468:\n        /* \"contracts/modules/SponsorMatrix.sol\":124:18049  contract Nanakshahi is Storage{... */\n      0x01\n      dup1\n      0xa0\n      shl\n      sub\n      swap1\n      sload\n      and\n      swap1\n        /* \"contracts/modules/SponsorMatrix.sol\":9172:9173  0 */\n      0x00\n        /* \"contracts/modules/SponsorMatrix.sol\":124:18049  contract Nanakshahi is Storage{... */\n      mstore\n        /* \"contracts/modules/SponsorMatrix.sol\":9319:9324  users */\n      0x0d\n        /* \"contracts/modules/SponsorMatrix.sol\":124:18049  contract Nanakshahi is Storage{... */\n      0x20\n      mstore\n      mload(0x00)\n      codecopy(0x00, data_51678340555b44277c2bba9423d75ebead61331b9cde789c13d0820d4f537e29, 0x20)\n      mload(0x00)\n      swap1\n      0x00\n      mstore\n        /* \"contracts/modules/SponsorMatrix.sol\":9929:10141  Income({... */\n      0x60\n        /* \"contracts/modules/SponsorMatrix.sol\":124:18049  contract Nanakshahi is Storage{... */\n      0x01\n      dup1\n      0xa0\n      shl\n      sub\n      0x40\n        /* \"contracts/modules/SponsorMatrix.sol\":9172:9173  0 */\n      0x00\n        /* \"contracts/modules/SponsorMatrix.sol\":124:18049  contract Nanakshahi is Storage{... */\n      keccak256\n      sload\n      and\n      swap4\n      mload(0x40)\n      swap1\n      dup2\n      mstore\n        /* \"contracts/modules/SponsorMatrix.sol\":469:473  usdt */\n      0x01\n        /* \"contracts/modules/SponsorMatrix.sol\":124:18049  contract Nanakshahi is Storage{... */\n      0x20\n      dup3\n      add\n      mstore\n        /* \"contracts/modules/SponsorMatrix.sol\":469:473  usdt */\n      0x01\n        /* \"contracts/modules/SponsorMatrix.sol\":124:18049  contract Nanakshahi is Storage{... */\n      0x40\n      dup3\n      add\n      mstore\n        /* \"contracts/modules/SponsorMatrix.sol\":10168:10253  IncomeDistributed(sponsor.account, users[_fromId].account, _amount, _packageLevel, 1) */\n      log3\n        /* \"contracts/modules/SponsorMatrix.sol\":9036:10270  function _distributeSponsorIncome(uint _sponsorId, uint _fromId, uint _amount, uint _packageLevel) private {... */\n      jump\t// out\n        /* \"contracts/modules/SponsorMatrix.sol\":9820:9859  usdt.transfer(sponsor.account, _amount) */\n    tag_466:\n      tag_470\n      swap1\n        /* \"contracts/modules/SponsorMatrix.sol\":124:18049  contract Nanakshahi is Storage{... */\n      0x20\n        /* \"contracts/modules/SponsorMatrix.sol\":9820:9859  usdt.transfer(sponsor.account, _amount) */\n      returndatasize\n        /* \"contracts/modules/SponsorMatrix.sol\":124:18049  contract Nanakshahi is Storage{... */\n      0x20\n        /* \"contracts/modules/SponsorMatrix.sol\":9820:9859  usdt.transfer(sponsor.account, _amount) */\n      gt\n      tag_177\n      jumpi\n      tag_179\n      dup2\n      dup4\n      tag_10\n      jump\t// in\n    tag_470:\n      jump(tag_467)\n        /* \"contracts/modules/SponsorMatrix.sol\":9154:9276  if (_sponsorId == 0 || _sponsorId == defaultRefId) {... */\n    tag_459:\n        /* \"contracts/modules/SponsorMatrix.sol\":9235:9242  _amount */\n      pop\n      pop\n      tag_403\n      swap1\n      tag_22\n      jump\t// in\n        /* \"contracts/modules/SponsorMatrix.sol\":9158:9203  _sponsorId == 0 || _sponsorId == defaultRefId */\n    tag_457:\n        /* \"contracts/modules/SponsorMatrix.sol\":124:18049  contract Nanakshahi is Storage{... */\n      pop\n        /* \"contracts/modules/SponsorMatrix.sol\":9191:9203  defaultRefId */\n      0x05\n        /* \"contracts/modules/SponsorMatrix.sol\":124:18049  contract Nanakshahi is Storage{... */\n      sload\n        /* \"contracts/modules/SponsorMatrix.sol\":9177:9203  _sponsorId == defaultRefId */\n      dup2\n      eq\n        /* \"contracts/modules/SponsorMatrix.sol\":9158:9203  _sponsorId == 0 || _sponsorId == defaultRefId */\n      jump(tag_458)\n        /* \"contracts/modules/SponsorMatrix.sol\":9036:10270  function _distributeSponsorIncome(uint _sponsorId, uint _fromId, uint _amount, uint _packageLevel) private {... */\n    tag_24:\n      swap1\n      swap2\n        /* \"contracts/modules/SponsorMatrix.sol\":9158:9173  _sponsorId == 0 */\n      dup2\n      iszero\n        /* \"contracts/modules/SponsorMatrix.sol\":9158:9203  _sponsorId == 0 || _sponsorId == defaultRefId */\n      dup1\n      iszero\n      tag_475\n      jumpi\n        /* \"contracts/modules/SponsorMatrix.sol\":9036:10270  function _distributeSponsorIncome(uint _sponsorId, uint _fromId, uint _amount, uint _packageLevel) private {... */\n    tag_476:\n        /* \"contracts/modules/SponsorMatrix.sol\":9154:9276  if (_sponsorId == 0 || _sponsorId == defaultRefId) {... */\n      tag_477\n      jumpi\n        /* \"contracts/modules/SponsorMatrix.sol\":124:18049  contract Nanakshahi is Storage{... */\n      swap1\n        /* \"contracts/modules/SponsorMatrix.sol\":9820:9859  usdt.transfer(sponsor.account, _amount) */\n      tag_479\n        /* \"contracts/modules/SponsorMatrix.sol\":124:18049  contract Nanakshahi is Storage{... */\n      swap2\n      dup2\n        /* \"contracts/modules/SponsorMatrix.sol\":9172:9173  0 */\n      0x00\n        /* \"contracts/modules/SponsorMatrix.sol\":124:18049  contract Nanakshahi is Storage{... */\n      mstore\n        /* \"contracts/modules/SponsorMatrix.sol\":9319:9324  users */\n      0x0d\n        /* \"contracts/modules/SponsorMatrix.sol\":124:18049  contract Nanakshahi is Storage{... */\n      0x20\n      mstore\n      0x40\n        /* \"contracts/modules/SponsorMatrix.sol\":9172:9173  0 */\n      0x00\n        /* \"contracts/modules/SponsorMatrix.sol\":124:18049  contract Nanakshahi is Storage{... */\n      keccak256\n      dup3\n        /* \"contracts/modules/SponsorMatrix.sol\":9172:9173  0 */\n      0x00\n        /* \"contracts/modules/SponsorMatrix.sol\":124:18049  contract Nanakshahi is Storage{... */\n      mstore\n        /* \"contracts/modules/SponsorMatrix.sol\":9690:9701  userIncomes */\n      0x0e\n        /* \"contracts/modules/SponsorMatrix.sol\":124:18049  contract Nanakshahi is Storage{... */\n      0x20\n      mstore\n        /* \"contracts/modules/SponsorMatrix.sol\":9771:9798  sponsorIncome.sponsorIncome */\n      0x01\n        /* \"contracts/modules/SponsorMatrix.sol\":124:18049  contract Nanakshahi is Storage{... */\n      0x40\n        /* \"contracts/modules/SponsorMatrix.sol\":9172:9173  0 */\n      0x00\n        /* \"contracts/modules/SponsorMatrix.sol\":124:18049  contract Nanakshahi is Storage{... */\n      keccak256\n        /* \"contracts/modules/SponsorMatrix.sol\":9724:9760  sponsorIncome.totalIncome += _amount */\n      tag_480\n        /* \"contracts/modules/SponsorMatrix.sol\":124:18049  contract Nanakshahi is Storage{... */\n      dup5\n      dup3\n      sload\n        /* \"contracts/modules/SponsorMatrix.sol\":9724:9760  sponsorIncome.totalIncome += _amount */\n      tag_13\n      jump\t// in\n    tag_480:\n        /* \"contracts/modules/SponsorMatrix.sol\":124:18049  contract Nanakshahi is Storage{... */\n      dup2\n      sstore\n        /* \"contracts/modules/SponsorMatrix.sol\":9771:9798  sponsorIncome.sponsorIncome */\n      add\n        /* \"contracts/modules/SponsorMatrix.sol\":9771:9809  sponsorIncome.sponsorIncome += _amount */\n      tag_481\n        /* \"contracts/modules/SponsorMatrix.sol\":124:18049  contract Nanakshahi is Storage{... */\n      dup4\n      dup3\n      sload\n        /* \"contracts/modules/SponsorMatrix.sol\":9771:9809  sponsorIncome.sponsorIncome += _amount */\n      tag_13\n      jump\t// in\n    tag_481:\n        /* \"contracts/modules/SponsorMatrix.sol\":124:18049  contract Nanakshahi is Storage{... */\n      swap1\n      sstore\n      sload(0x01)\n      dup2\n      sload\n      mload(0x40)\n      shl(0xe0, 0xa9059cbb)\n        /* \"contracts/modules/SponsorMatrix.sol\":9820:9859  usdt.transfer(sponsor.account, _amount) */\n      dup2\n      mstore\n      sub(shl(0xa0, 0x01), 0x01)\n        /* \"contracts/modules/SponsorMatrix.sol\":124:18049  contract Nanakshahi is Storage{... */\n      swap2\n      dup3\n      and\n        /* \"contracts/modules/SponsorMatrix.sol\":9820:9859  usdt.transfer(sponsor.account, _amount) */\n      0x04\n      dup3\n      add\n        /* \"contracts/modules/SponsorMatrix.sol\":124:18049  contract Nanakshahi is Storage{... */\n      mstore\n      0x24\n      dup2\n      add\n      dup6\n      swap1\n      mstore\n      swap6\n      0x20\n      swap3\n      dup8\n      swap3\n      and\n      swap1\n      dup3\n      swap1\n        /* \"contracts/modules/SponsorMatrix.sol\":9172:9173  0 */\n      0x00\n      swap1\n        /* \"contracts/modules/SponsorMatrix.sol\":124:18049  contract Nanakshahi is Storage{... */\n      dup3\n      swap1\n      0x44\n      dup3\n      add\n      swap1\n      jump\n        /* \"contracts/modules/SponsorMatrix.sol\":9820:9859  usdt.transfer(sponsor.account, _amount) */\n    tag_479:\n      sub\n      swap3\n      gas\n      call\n      swap3\n      dup4\n      iszero\n      tag_112\n      jumpi\n      mload(0x00)\n      codecopy(0x00, data_51678340555b44277c2bba9423d75ebead61331b9cde789c13d0820d4f537e29, 0x20)\n      mload(0x00)\n      swap1\n      0x00\n      mstore\n      swap5\n        /* \"contracts/modules/SponsorMatrix.sol\":9929:10141  Income({... */\n      0x60\n        /* \"contracts/modules/SponsorMatrix.sol\":9820:9859  usdt.transfer(sponsor.account, _amount) */\n      swap5\n      tag_484\n      jumpi\n        /* \"contracts/modules/SponsorMatrix.sol\":9036:10270  function _distributeSponsorIncome(uint _sponsorId, uint _fromId, uint _amount, uint _packageLevel) private {... */\n    tag_485:\n        /* \"contracts/modules/SponsorMatrix.sol\":124:18049  contract Nanakshahi is Storage{... */\n      pop\n        /* \"contracts/modules/SponsorMatrix.sol\":9172:9173  0 */\n      0x00\n        /* \"contracts/modules/SponsorMatrix.sol\":124:18049  contract Nanakshahi is Storage{... */\n      mstore\n        /* \"contracts/modules/SponsorMatrix.sol\":9898:9911  incomeHistory */\n      0x0f\n        /* \"contracts/modules/SponsorMatrix.sol\":124:18049  contract Nanakshahi is Storage{... */\n      0x20\n      mstore\n        /* \"contracts/modules/SponsorMatrix.sol\":9898:10142  incomeHistory[_sponsorId].push(Income({... */\n      tag_486\n        /* \"contracts/modules/SponsorMatrix.sol\":124:18049  contract Nanakshahi is Storage{... */\n      0x40\n        /* \"contracts/modules/SponsorMatrix.sol\":9172:9173  0 */\n      0x00\n        /* \"contracts/modules/SponsorMatrix.sol\":124:18049  contract Nanakshahi is Storage{... */\n      keccak256\n      mload(0x40)\n      swap1\n      tag_487\n      dup3\n      tag_9\n      jump\t// in\n    tag_487:\n      dup8\n      dup3\n      mstore\n        /* \"contracts/modules/SponsorMatrix.sol\":9929:10141  Income({... */\n      dup5\n        /* \"contracts/modules/SponsorMatrix.sol\":124:18049  contract Nanakshahi is Storage{... */\n      0x20\n        /* \"contracts/modules/SponsorMatrix.sol\":9929:10141  Income({... */\n      dup4\n      add\n        /* \"contracts/modules/SponsorMatrix.sol\":124:18049  contract Nanakshahi is Storage{... */\n      mstore\n        /* \"contracts/modules/SponsorMatrix.sol\":9929:10141  Income({... */\n      dup9\n        /* \"contracts/modules/SponsorMatrix.sol\":124:18049  contract Nanakshahi is Storage{... */\n      0x40\n        /* \"contracts/modules/SponsorMatrix.sol\":9929:10141  Income({... */\n      dup4\n      add\n        /* \"contracts/modules/SponsorMatrix.sol\":124:18049  contract Nanakshahi is Storage{... */\n      mstore\n        /* \"contracts/modules/SponsorMatrix.sol\":10068:10083  block.timestamp */\n      timestamp\n        /* \"contracts/modules/SponsorMatrix.sol\":9929:10141  Income({... */\n      dup7\n      dup4\n      add\n        /* \"contracts/modules/SponsorMatrix.sol\":124:18049  contract Nanakshahi is Storage{... */\n      mstore\n        /* \"contracts/modules/SponsorMatrix.sol\":9771:9798  sponsorIncome.sponsorIncome */\n      0x01\n        /* \"contracts/modules/SponsorMatrix.sol\":9929:10141  Income({... */\n      0x80\n      dup4\n      add\n        /* \"contracts/modules/SponsorMatrix.sol\":124:18049  contract Nanakshahi is Storage{... */\n      mstore\n        /* \"contracts/modules/SponsorMatrix.sol\":9898:10142  incomeHistory[_sponsorId].push(Income({... */\n      tag_16\n      jump\t// in\n    tag_486:\n        /* \"contracts/modules/SponsorMatrix.sol\":124:18049  contract Nanakshahi is Storage{... */\n      0x01\n      dup1\n      0xa0\n      shl\n      sub\n      swap1\n      sload\n      and\n      swap4\n        /* \"contracts/modules/SponsorMatrix.sol\":9172:9173  0 */\n      0x00\n        /* \"contracts/modules/SponsorMatrix.sol\":124:18049  contract Nanakshahi is Storage{... */\n      mstore\n        /* \"contracts/modules/SponsorMatrix.sol\":9319:9324  users */\n      0x0d\n        /* \"contracts/modules/SponsorMatrix.sol\":124:18049  contract Nanakshahi is Storage{... */\n      0x20\n      mstore\n      0x01\n      dup1\n      0xa0\n      shl\n      sub\n      0x40\n        /* \"contracts/modules/SponsorMatrix.sol\":9172:9173  0 */\n      0x00\n        /* \"contracts/modules/SponsorMatrix.sol\":124:18049  contract Nanakshahi is Storage{... */\n      keccak256\n      sload\n      and\n      swap5\n      mload(0x40)\n      swap2\n      dup3\n      mstore\n      0x20\n      dup3\n      add\n      mstore\n        /* \"contracts/modules/SponsorMatrix.sol\":9771:9798  sponsorIncome.sponsorIncome */\n      0x01\n        /* \"contracts/modules/SponsorMatrix.sol\":124:18049  contract Nanakshahi is Storage{... */\n      0x40\n      dup3\n      add\n      mstore\n        /* \"contracts/modules/SponsorMatrix.sol\":10168:10253  IncomeDistributed(sponsor.account, users[_fromId].account, _amount, _packageLevel, 1) */\n      log3\n        /* \"contracts/modules/SponsorMatrix.sol\":9036:10270  function _distributeSponsorIncome(uint _sponsorId, uint _fromId, uint _amount, uint _packageLevel) private {... */\n      jump\t// out\n        /* \"contracts/modules/SponsorMatrix.sol\":9820:9859  usdt.transfer(sponsor.account, _amount) */\n    tag_484:\n      tag_488\n      swap1\n        /* \"contracts/modules/SponsorMatrix.sol\":124:18049  contract Nanakshahi is Storage{... */\n      0x20\n        /* \"contracts/modules/SponsorMatrix.sol\":9820:9859  usdt.transfer(sponsor.account, _amount) */\n      returndatasize\n        /* \"contracts/modules/SponsorMatrix.sol\":124:18049  contract Nanakshahi is Storage{... */\n      0x20\n        /* \"contracts/modules/SponsorMatrix.sol\":9820:9859  usdt.transfer(sponsor.account, _amount) */\n      gt\n      tag_177\n      jumpi\n      tag_179\n      dup2\n      dup4\n      tag_10\n      jump\t// in\n    tag_488:\n      jump(tag_485)\n        /* \"contracts/modules/SponsorMatrix.sol\":9154:9276  if (_sponsorId == 0 || _sponsorId == defaultRefId) {... */\n    tag_477:\n        /* \"contracts/modules/SponsorMatrix.sol\":9235:9242  _amount */\n      swap2\n      pop\n      pop\n      tag_403\n      swap2\n      pop\n      tag_22\n      jump\t// in\n        /* \"contracts/modules/SponsorMatrix.sol\":9158:9203  _sponsorId == 0 || _sponsorId == defaultRefId */\n    tag_475:\n        /* \"contracts/modules/SponsorMatrix.sol\":124:18049  contract Nanakshahi is Storage{... */\n      pop\n        /* \"contracts/modules/SponsorMatrix.sol\":9191:9203  defaultRefId */\n      0x05\n        /* \"contracts/modules/SponsorMatrix.sol\":124:18049  contract Nanakshahi is Storage{... */\n      sload\n        /* \"contracts/modules/SponsorMatrix.sol\":9177:9203  _sponsorId == defaultRefId */\n      dup3\n      eq\n        /* \"contracts/modules/SponsorMatrix.sol\":9158:9203  _sponsorId == 0 || _sponsorId == defaultRefId */\n      jump(tag_476)\n        /* \"contracts/modules/Storage.sol\":629:631  15 */\n    tag_25:\n      not(0x00)\n      dup2\n      eq\n      tag_142\n      jumpi\n      0x01\n      add\n      swap1\n      jump\t// out\n        /* \"contracts/modules/SponsorMatrix.sol\":10284:12365  function _distributeMatrixIncome(uint _uplineId,uint _fromId,uint _amount, uint _packageLevel) private {... */\n    tag_26:\n      swap4\n      swap2\n      swap4\n      swap3\n      swap1\n      swap3\n        /* \"contracts/modules/SponsorMatrix.sol\":10583:10595  defaultRefId */\n      0x05\n        /* \"contracts/modules/SponsorMatrix.sol\":124:18049  contract Nanakshahi is Storage{... */\n      sload\n        /* \"contracts/modules/SponsorMatrix.sol\":10570:10595  _uplineId == defaultRefId */\n      dup2\n      eq\n        /* \"contracts/modules/SponsorMatrix.sol\":10570:10613  _uplineId == defaultRefId || _uplineId == 0 */\n      dup1\n      iszero\n      tag_495\n      jumpi\n        /* \"contracts/modules/SponsorMatrix.sol\":10284:12365  function _distributeMatrixIncome(uint _uplineId,uint _fromId,uint _amount, uint _packageLevel) private {... */\n    tag_496:\n        /* \"contracts/modules/SponsorMatrix.sol\":10567:10695  if(_uplineId == defaultRefId || _uplineId == 0)... */\n      tag_497\n      jumpi\n        /* \"contracts/modules/SponsorMatrix.sol\":10762:10763  1 */\n      0x01\n        /* \"contracts/modules/SponsorMatrix.sol\":10765:10782  i < _packageLevel */\n    tag_499:\n      dup3\n      dup2\n      lt\n      tag_500\n      jumpi\n        /* \"contracts/modules/SponsorMatrix.sol\":11051:11076  uint currentId = targetId */\n      pop\n        /* \"contracts/modules/SponsorMatrix.sol\":11087:11101  uint layer = 0 */\n      swap3\n      0x00\n        /* \"contracts/modules/SponsorMatrix.sol\":11112:12250  while (currentId != 0 && currentId != defaultRefId && layer < maxLayers) {... */\n      swap4\n    tag_502:\n        /* \"contracts/modules/SponsorMatrix.sol\":11119:11133  currentId != 0 */\n      dup1\n      iszero\n      iszero\n        /* \"contracts/modules/SponsorMatrix.sol\":11119:11162  currentId != 0 && currentId != defaultRefId */\n      dup1\n      tag_503\n      jumpi\n        /* \"contracts/modules/SponsorMatrix.sol\":11112:12250  while (currentId != 0 && currentId != defaultRefId && layer < maxLayers) {... */\n    tag_504:\n        /* \"contracts/modules/SponsorMatrix.sol\":11119:11183  currentId != 0 && currentId != defaultRefId && layer < maxLayers */\n      dup1\n      tag_505\n      jumpi\n        /* \"contracts/modules/SponsorMatrix.sol\":11112:12250  while (currentId != 0 && currentId != defaultRefId && layer < maxLayers) {... */\n    tag_506:\n        /* \"contracts/modules/SponsorMatrix.sol\":11119:11183  currentId != 0 && currentId != defaultRefId && layer < maxLayers */\n      iszero\n      tag_507\n      jumpi\n        /* \"contracts/modules/SponsorMatrix.sol\":124:18049  contract Nanakshahi is Storage{... */\n      dup1\n      0x00\n      mstore\n        /* \"contracts/modules/SponsorMatrix.sol\":10815:10820  users */\n      0x0d\n        /* \"contracts/modules/SponsorMatrix.sol\":124:18049  contract Nanakshahi is Storage{... */\n      0x20\n      mstore\n      keccak256(0x00, 0x40)\n        /* \"contracts/modules/SponsorMatrix.sol\":11332:11340  up.level */\n      swap1\n      dup4\n      0x06\n      dup4\n      add\n        /* \"contracts/modules/SponsorMatrix.sol\":124:18049  contract Nanakshahi is Storage{... */\n      sload\n        /* \"contracts/modules/SponsorMatrix.sol\":11332:11357  up.level >= _packageLevel */\n      lt\n      iszero\n        /* \"contracts/modules/SponsorMatrix.sol\":11328:12129  if (up.level >= _packageLevel) // up.directTeam >= 2 && ... */\n      tag_509\n      jumpi\n        /* \"contracts/modules/SponsorMatrix.sol\":12205:12216  up.uplineId */\n      pop\n        /* \"contracts/modules/SponsorMatrix.sol\":10583:10595  defaultRefId */\n      0x05\n        /* \"contracts/modules/SponsorMatrix.sol\":12231:12238  layer++ */\n      tag_511\n        /* \"contracts/modules/SponsorMatrix.sol\":12205:12216  up.uplineId */\n      swap2\n      add\n        /* \"contracts/modules/SponsorMatrix.sol\":124:18049  contract Nanakshahi is Storage{... */\n      sload\n        /* \"contracts/modules/SponsorMatrix.sol\":12231:12238  layer++ */\n      swap5\n      tag_25\n      jump\t// in\n    tag_511:\n        /* \"contracts/modules/SponsorMatrix.sol\":11112:12250  while (currentId != 0 && currentId != defaultRefId && layer < maxLayers) {... */\n      swap4\n      jump(tag_502)\n        /* \"contracts/modules/SponsorMatrix.sol\":11328:12129  if (up.level >= _packageLevel) // up.directTeam >= 2 && ... */\n    tag_509:\n        /* \"contracts/modules/SponsorMatrix.sol\":124:18049  contract Nanakshahi is Storage{... */\n      sload(0x01)\n      dup3\n      sload\n      mload(0x40)\n      shl(0xe0, 0xa9059cbb)\n        /* \"contracts/modules/SponsorMatrix.sol\":11478:11512  usdt.transfer(up.account, _amount) */\n      dup2\n      mstore\n      sub(shl(0xa0, 0x01), 0x01)\n        /* \"contracts/modules/SponsorMatrix.sol\":124:18049  contract Nanakshahi is Storage{... */\n      swap2\n      dup3\n      and\n        /* \"contracts/modules/SponsorMatrix.sol\":11478:11512  usdt.transfer(up.account, _amount) */\n      0x04\n      dup3\n      add\n        /* \"contracts/modules/SponsorMatrix.sol\":124:18049  contract Nanakshahi is Storage{... */\n      mstore\n      0x24\n      dup2\n      add\n      dup11\n      swap1\n      mstore\n      swap7\n      swap9\n      swap6\n      swap8\n      pop\n      swap4\n      swap6\n      swap5\n      swap2\n      swap4\n      swap2\n      swap3\n      swap2\n      0x20\n      swap2\n      dup7\n      swap2\n      0x44\n      swap2\n      dup4\n      swap2\n      0x00\n      swap2\n      and\n        /* \"contracts/modules/SponsorMatrix.sol\":11478:11512  usdt.transfer(up.account, _amount) */\n      gas\n      call\n      swap3\n      dup4\n      iszero\n      tag_112\n      jumpi\n      mload(0x00)\n      codecopy(0x00, data_51678340555b44277c2bba9423d75ebead61331b9cde789c13d0820d4f537e29, 0x20)\n      mload(0x00)\n      swap1\n      0x00\n      mstore\n      swap5\n        /* \"contracts/modules/SponsorMatrix.sol\":11722:11981  Income({... */\n      0x60\n        /* \"contracts/modules/SponsorMatrix.sol\":11478:11512  usdt.transfer(up.account, _amount) */\n      swap5\n      tag_515\n      jumpi\n        /* \"contracts/modules/SponsorMatrix.sol\":11328:12129  if (up.level >= _packageLevel) // up.directTeam >= 2 && ... */\n    tag_516:\n        /* \"contracts/modules/SponsorMatrix.sol\":124:18049  contract Nanakshahi is Storage{... */\n      pop\n      dup1\n      0x00\n      mstore\n        /* \"contracts/modules/SponsorMatrix.sol\":11558:11569  userIncomes */\n      0x0e\n        /* \"contracts/modules/SponsorMatrix.sol\":124:18049  contract Nanakshahi is Storage{... */\n      0x20\n      mstore\n        /* \"contracts/modules/SponsorMatrix.sol\":11644:11660  inc.matrixIncome */\n      0x02\n        /* \"contracts/modules/SponsorMatrix.sol\":124:18049  contract Nanakshahi is Storage{... */\n      keccak256(0x00, 0x40)\n        /* \"contracts/modules/SponsorMatrix.sol\":11599:11625  inc.totalIncome += _amount */\n      tag_517\n        /* \"contracts/modules/SponsorMatrix.sol\":124:18049  contract Nanakshahi is Storage{... */\n      dup6\n      dup3\n      sload\n        /* \"contracts/modules/SponsorMatrix.sol\":11599:11625  inc.totalIncome += _amount */\n      tag_13\n      jump\t// in\n    tag_517:\n        /* \"contracts/modules/SponsorMatrix.sol\":124:18049  contract Nanakshahi is Storage{... */\n      dup2\n      sstore\n        /* \"contracts/modules/SponsorMatrix.sol\":11644:11660  inc.matrixIncome */\n      add\n        /* \"contracts/modules/SponsorMatrix.sol\":11644:11671  inc.matrixIncome += _amount */\n      tag_518\n        /* \"contracts/modules/SponsorMatrix.sol\":124:18049  contract Nanakshahi is Storage{... */\n      dup5\n      dup3\n      sload\n        /* \"contracts/modules/SponsorMatrix.sol\":11644:11671  inc.matrixIncome += _amount */\n      tag_13\n      jump\t// in\n    tag_518:\n        /* \"contracts/modules/SponsorMatrix.sol\":124:18049  contract Nanakshahi is Storage{... */\n      swap1\n      sstore\n      0x00\n      mstore\n        /* \"contracts/modules/SponsorMatrix.sol\":11692:11705  incomeHistory */\n      0x0f\n        /* \"contracts/modules/SponsorMatrix.sol\":124:18049  contract Nanakshahi is Storage{... */\n      0x20\n      mstore\n        /* \"contracts/modules/SponsorMatrix.sol\":11692:11982  incomeHistory[currentId].push(Income({... */\n      tag_519\n        /* \"contracts/modules/SponsorMatrix.sol\":124:18049  contract Nanakshahi is Storage{... */\n      keccak256(0x00, 0x40)\n      mload(0x40)\n      swap1\n      tag_520\n      dup3\n      tag_9\n      jump\t// in\n    tag_520:\n      dup8\n      dup3\n      mstore\n        /* \"contracts/modules/SponsorMatrix.sol\":11722:11981  Income({... */\n      dup5\n        /* \"contracts/modules/SponsorMatrix.sol\":124:18049  contract Nanakshahi is Storage{... */\n      0x20\n        /* \"contracts/modules/SponsorMatrix.sol\":11722:11981  Income({... */\n      dup4\n      add\n        /* \"contracts/modules/SponsorMatrix.sol\":124:18049  contract Nanakshahi is Storage{... */\n      mstore\n        /* \"contracts/modules/SponsorMatrix.sol\":11722:11981  Income({... */\n      dup9\n        /* \"contracts/modules/SponsorMatrix.sol\":124:18049  contract Nanakshahi is Storage{... */\n      0x40\n        /* \"contracts/modules/SponsorMatrix.sol\":11722:11981  Income({... */\n      dup4\n      add\n        /* \"contracts/modules/SponsorMatrix.sol\":124:18049  contract Nanakshahi is Storage{... */\n      mstore\n        /* \"contracts/modules/SponsorMatrix.sol\":11893:11908  block.timestamp */\n      timestamp\n        /* \"contracts/modules/SponsorMatrix.sol\":11722:11981  Income({... */\n      dup7\n      dup4\n      add\n        /* \"contracts/modules/SponsorMatrix.sol\":124:18049  contract Nanakshahi is Storage{... */\n      mstore\n        /* \"contracts/modules/SponsorMatrix.sol\":11644:11660  inc.matrixIncome */\n      0x02\n        /* \"contracts/modules/SponsorMatrix.sol\":11722:11981  Income({... */\n      0x80\n      dup4\n      add\n        /* \"contracts/modules/SponsorMatrix.sol\":124:18049  contract Nanakshahi is Storage{... */\n      mstore\n        /* \"contracts/modules/SponsorMatrix.sol\":11692:11982  incomeHistory[currentId].push(Income({... */\n      tag_16\n      jump\t// in\n    tag_519:\n        /* \"contracts/modules/SponsorMatrix.sol\":124:18049  contract Nanakshahi is Storage{... */\n      0x01\n      dup1\n      0xa0\n      shl\n      sub\n      swap1\n      sload\n      and\n      swap4\n      0x00\n      mstore\n        /* \"contracts/modules/SponsorMatrix.sol\":10815:10820  users */\n      0x0d\n        /* \"contracts/modules/SponsorMatrix.sol\":124:18049  contract Nanakshahi is Storage{... */\n      0x20\n      mstore\n      0x01\n      dup1\n      0xa0\n      shl\n      sub\n      sload(keccak256(0x00, 0x40))\n      and\n      swap5\n      mload(0x40)\n      swap2\n      dup3\n      mstore\n      0x20\n        /* \"contracts/modules/Storage.sol\":629:631  15 */\n      dup3\n      add\n        /* \"contracts/modules/SponsorMatrix.sol\":124:18049  contract Nanakshahi is Storage{... */\n      mstore\n        /* \"contracts/modules/SponsorMatrix.sol\":11644:11660  inc.matrixIncome */\n      0x02\n        /* \"contracts/modules/SponsorMatrix.sol\":124:18049  contract Nanakshahi is Storage{... */\n      0x40\n        /* \"contracts/modules/Storage.sol\":629:631  15 */\n      dup3\n      add\n        /* \"contracts/modules/SponsorMatrix.sol\":124:18049  contract Nanakshahi is Storage{... */\n      mstore\n        /* \"contracts/modules/SponsorMatrix.sol\":12008:12088  IncomeDistributed(up.account, users[_fromId].account, _amount, _packageLevel, 2) */\n      log3\n        /* \"contracts/modules/SponsorMatrix.sol\":12107:12114  return; */\n      jump\t// out\n        /* \"contracts/modules/SponsorMatrix.sol\":11478:11512  usdt.transfer(up.account, _amount) */\n    tag_515:\n      tag_521\n      swap1\n        /* \"contracts/modules/SponsorMatrix.sol\":124:18049  contract Nanakshahi is Storage{... */\n      0x20\n        /* \"contracts/modules/SponsorMatrix.sol\":11478:11512  usdt.transfer(up.account, _amount) */\n      returndatasize\n      dup2\n      gt\n      tag_177\n      jumpi\n      tag_179\n      dup2\n      dup4\n      tag_10\n      jump\t// in\n    tag_521:\n      jump(tag_516)\n        /* \"contracts/modules/SponsorMatrix.sol\":11119:11183  currentId != 0 && currentId != defaultRefId && layer < maxLayers */\n    tag_507:\n      pop\n      pop\n      pop\n      swap2\n        /* \"contracts/modules/SponsorMatrix.sol\":12349:12356  _amount */\n      tag_403\n        /* \"contracts/modules/SponsorMatrix.sol\":11119:11183  currentId != 0 && currentId != defaultRefId && layer < maxLayers */\n      swap2\n      pop\n        /* \"contracts/modules/SponsorMatrix.sol\":12349:12356  _amount */\n      tag_22\n      jump\t// in\n        /* \"contracts/modules/SponsorMatrix.sol\":11119:11183  currentId != 0 && currentId != defaultRefId && layer < maxLayers */\n    tag_505:\n        /* \"contracts/modules/SponsorMatrix.sol\":11166:11183  layer < maxLayers */\n      pop\n        /* \"contracts/modules/Storage.sol\":789:791  15 */\n      0x0f\n        /* \"contracts/modules/SponsorMatrix.sol\":11166:11183  layer < maxLayers */\n      dup6\n      lt\n        /* \"contracts/modules/SponsorMatrix.sol\":11119:11183  currentId != 0 && currentId != defaultRefId && layer < maxLayers */\n      jump(tag_506)\n        /* \"contracts/modules/SponsorMatrix.sol\":11119:11162  currentId != 0 && currentId != defaultRefId */\n    tag_503:\n        /* \"contracts/modules/SponsorMatrix.sol\":124:18049  contract Nanakshahi is Storage{... */\n      pop\n        /* \"contracts/modules/SponsorMatrix.sol\":10583:10595  defaultRefId */\n      0x05\n        /* \"contracts/modules/SponsorMatrix.sol\":124:18049  contract Nanakshahi is Storage{... */\n      sload\n        /* \"contracts/modules/SponsorMatrix.sol\":11137:11162  currentId != defaultRefId */\n      dup2\n      eq\n      iszero\n        /* \"contracts/modules/SponsorMatrix.sol\":11119:11162  currentId != 0 && currentId != defaultRefId */\n      jump(tag_504)\n        /* \"contracts/modules/SponsorMatrix.sol\":10784:10787  ++i */\n    tag_500:\n        /* \"contracts/modules/SponsorMatrix.sol\":124:18049  contract Nanakshahi is Storage{... */\n      swap1\n      0x00\n      mstore\n        /* \"contracts/modules/SponsorMatrix.sol\":10815:10820  users */\n      0x0d\n        /* \"contracts/modules/SponsorMatrix.sol\":124:18049  contract Nanakshahi is Storage{... */\n      0x20\n      mstore\n        /* \"contracts/modules/SponsorMatrix.sol\":10583:10595  defaultRefId */\n      0x05\n        /* \"contracts/modules/SponsorMatrix.sol\":124:18049  contract Nanakshahi is Storage{... */\n      keccak256(0x00, 0x40)\n        /* \"contracts/modules/SponsorMatrix.sol\":10815:10839  users[targetId].uplineId */\n      add\n        /* \"contracts/modules/SponsorMatrix.sol\":124:18049  contract Nanakshahi is Storage{... */\n      sload\n        /* \"contracts/modules/SponsorMatrix.sol\":10858:10871  targetId == 0 */\n      swap1\n      dup2\n      iszero\n        /* \"contracts/modules/SponsorMatrix.sol\":10858:10899  targetId == 0 || targetId == defaultRefId */\n      dup1\n      iszero\n      tag_526\n      jumpi\n        /* \"contracts/modules/SponsorMatrix.sol\":10784:10787  ++i */\n    tag_527:\n        /* \"contracts/modules/SponsorMatrix.sol\":10854:11030  if (targetId == 0 || targetId == defaultRefId) {... */\n      tag_507\n      jumpi\n        /* \"contracts/modules/SponsorMatrix.sol\":10762:10763  1 */\n      0x01\n        /* \"contracts/modules/SponsorMatrix.sol\":124:18049  contract Nanakshahi is Storage{... */\n      add\n        /* \"contracts/modules/SponsorMatrix.sol\":10753:10763  uint i = 1 */\n      jump(tag_499)\n        /* \"contracts/modules/SponsorMatrix.sol\":10858:10899  targetId == 0 || targetId == defaultRefId */\n    tag_526:\n        /* \"contracts/modules/SponsorMatrix.sol\":124:18049  contract Nanakshahi is Storage{... */\n      pop\n        /* \"contracts/modules/SponsorMatrix.sol\":10583:10595  defaultRefId */\n      0x05\n        /* \"contracts/modules/SponsorMatrix.sol\":124:18049  contract Nanakshahi is Storage{... */\n      sload\n        /* \"contracts/modules/SponsorMatrix.sol\":10875:10899  targetId == defaultRefId */\n      dup3\n      eq\n        /* \"contracts/modules/SponsorMatrix.sol\":10858:10899  targetId == 0 || targetId == defaultRefId */\n      jump(tag_527)\n        /* \"contracts/modules/SponsorMatrix.sol\":10567:10695  if(_uplineId == defaultRefId || _uplineId == 0)... */\n    tag_497:\n        /* \"contracts/modules/SponsorMatrix.sol\":10654:10661  _amount */\n      pop\n      pop\n      swap2\n      tag_403\n      swap2\n      pop\n      tag_22\n      jump\t// in\n        /* \"contracts/modules/SponsorMatrix.sol\":10570:10613  _uplineId == defaultRefId || _uplineId == 0 */\n    tag_495:\n        /* \"contracts/modules/SponsorMatrix.sol\":10599:10613  _uplineId == 0 */\n      pop\n      dup1\n      iszero\n        /* \"contracts/modules/SponsorMatrix.sol\":10570:10613  _uplineId == defaultRefId || _uplineId == 0 */\n      jump(tag_496)\n        /* \"contracts/modules/SponsorMatrix.sol\":14337:16793  function _distributeLevelBoosterIncome(uint _startId, uint _fromId, uint _amount,uint _packageLevel,uint _maxLevel) private {... */\n    tag_27:\n      swap3\n      swap5\n      swap4\n      swap5\n      swap2\n      swap1\n      swap2\n        /* \"contracts/modules/SponsorMatrix.sol\":14476:14489  _startId == 0 */\n      dup4\n      iszero\n        /* \"contracts/modules/SponsorMatrix.sol\":14476:14517  _startId == 0 || _startId == defaultRefId */\n      dup1\n      iszero\n      tag_532\n      jumpi\n        /* \"contracts/modules/SponsorMatrix.sol\":14337:16793  function _distributeLevelBoosterIncome(uint _startId, uint _fromId, uint _amount,uint _packageLevel,uint _maxLevel) private {... */\n    tag_533:\n        /* \"contracts/modules/SponsorMatrix.sol\":14476:14535  _startId == 0 || _startId == defaultRefId || _maxLevel == 0 */\n      dup1\n      iszero\n      tag_534\n      jumpi\n        /* \"contracts/modules/SponsorMatrix.sol\":14337:16793  function _distributeLevelBoosterIncome(uint _startId, uint _fromId, uint _amount,uint _packageLevel,uint _maxLevel) private {... */\n    tag_535:\n        /* \"contracts/modules/SponsorMatrix.sol\":14472:14608  if (_startId == 0 || _startId == defaultRefId || _maxLevel == 0) {... */\n      tag_536\n      jumpi\n        /* \"contracts/modules/SponsorMatrix.sol\":14691:14710  _amount / _maxLevel */\n      swap5\n      swap2\n      tag_538\n      dup4\n      dup4\n      tag_5\n      jump\t// in\n    tag_538:\n        /* \"contracts/modules/SponsorMatrix.sol\":14749:14775  amountPerLevel * _maxLevel */\n      swap6\n        /* \"contracts/modules/SponsorMatrix.sol\":14738:14776  _amount - (amountPerLevel * _maxLevel) */\n      tag_539\n        /* \"contracts/modules/SponsorMatrix.sol\":14749:14775  amountPerLevel * _maxLevel */\n      tag_540\n      dup6\n      dup10\n      tag_15\n      jump\t// in\n    tag_540:\n        /* \"contracts/modules/SponsorMatrix.sol\":14738:14776  _amount - (amountPerLevel * _maxLevel) */\n      dup5\n      tag_4\n      jump\t// in\n    tag_539:\n        /* \"contracts/modules/SponsorMatrix.sol\":14859:14884  uint currentId = _startId */\n      swap5\n        /* \"contracts/modules/SponsorMatrix.sol\":14488:14489  0 */\n      0x00\n      swap5\n      dup6\n      swap4\n      dup5\n      swap3\n        /* \"contracts/modules/SponsorMatrix.sol\":14985:14986  1 */\n      0x01\n        /* \"contracts/modules/SponsorMatrix.sol\":15040:15046  i < 30 */\n    tag_541:\n        /* \"contracts/modules/SponsorMatrix.sol\":15044:15046  30 */\n      0x1e\n        /* \"contracts/modules/SponsorMatrix.sol\":15040:15046  i < 30 */\n      dup6\n      lt\n      tag_542\n      jumpi\n        /* \"contracts/modules/SponsorMatrix.sol\":15023:16398  for (uint i = 0; i < 30; i++) // _maxLevel... */\n    tag_543:\n        /* \"contracts/modules/SponsorMatrix.sol\":16515:16541  _amount - totalDistributed */\n      pop\n      pop\n      pop\n      pop\n      pop\n      pop\n      pop\n      tag_544\n      swap3\n      swap4\n      swap5\n      pop\n      tag_4\n      jump\t// in\n    tag_544:\n        /* \"contracts/modules/SponsorMatrix.sol\":16556:16578  remainingAfterLoop > 0 */\n      dup1\n        /* \"contracts/modules/SponsorMatrix.sol\":16552:16641  if (remainingAfterLoop > 0) {... */\n      tag_545\n      jumpi\n        /* \"contracts/modules/SponsorMatrix.sol\":15023:16398  for (uint i = 0; i < 30; i++) // _maxLevel... */\n    tag_546:\n        /* \"contracts/modules/SponsorMatrix.sol\":16710:16723  remainder > 0 */\n      pop\n      dup1\n        /* \"contracts/modules/SponsorMatrix.sol\":16706:16777  if (remainder > 0) {... */\n      tag_440\n      jumpi\n        /* \"contracts/modules/SponsorMatrix.sol\":14337:16793  function _distributeLevelBoosterIncome(uint _startId, uint _fromId, uint _amount,uint _packageLevel,uint _maxLevel) private {... */\n      pop\n      jump\t// out\n        /* \"contracts/modules/SponsorMatrix.sol\":16552:16641  if (remainingAfterLoop > 0) {... */\n    tag_545:\n        /* \"contracts/modules/SponsorMatrix.sol\":16610:16628  remainingAfterLoop */\n      tag_550\n      swap1\n      tag_22\n      jump\t// in\n    tag_550:\n        /* \"contracts/modules/SponsorMatrix.sol\":16552:16641  if (remainingAfterLoop > 0) {... */\n      0x00\n      jump(tag_546)\n        /* \"contracts/modules/SponsorMatrix.sol\":15048:15051  i++ */\n    tag_542:\n        /* \"contracts/modules/SponsorMatrix.sol\":15137:15151  currentId == 0 */\n      dup2\n      swap3\n      swap4\n      swap5\n      swap6\n      swap7\n      swap9\n      swap2\n      iszero\n        /* \"contracts/modules/SponsorMatrix.sol\":15137:15180  currentId == 0 || currentId == defaultRefId */\n      dup1\n      iszero\n      tag_551\n      jumpi\n        /* \"contracts/modules/SponsorMatrix.sol\":15048:15051  i++ */\n    tag_552:\n        /* \"contracts/modules/SponsorMatrix.sol\":15133:15409  if (currentId == 0 || currentId == defaultRefId) {... */\n      tag_553\n      jumpi\n        /* \"contracts/modules/SponsorMatrix.sol\":124:18049  contract Nanakshahi is Storage{... */\n      dup3\n        /* \"contracts/modules/SponsorMatrix.sol\":14488:14489  0 */\n      0x00\n        /* \"contracts/modules/SponsorMatrix.sol\":124:18049  contract Nanakshahi is Storage{... */\n      mstore\n        /* \"contracts/modules/SponsorMatrix.sol\":15443:15448  users */\n      0x0d\n        /* \"contracts/modules/SponsorMatrix.sol\":124:18049  contract Nanakshahi is Storage{... */\n      0x20\n      mstore\n      0x40\n        /* \"contracts/modules/SponsorMatrix.sol\":14488:14489  0 */\n      0x00\n        /* \"contracts/modules/SponsorMatrix.sol\":124:18049  contract Nanakshahi is Storage{... */\n      keccak256\n        /* \"contracts/modules/SponsorMatrix.sol\":15480:15488  up.level */\n      swap3\n      dup13\n      dup9\n      0x06\n      dup7\n      add\n        /* \"contracts/modules/SponsorMatrix.sol\":124:18049  contract Nanakshahi is Storage{... */\n      sload\n        /* \"contracts/modules/SponsorMatrix.sol\":15480:15505  up.level >= _packageLevel */\n      lt\n      iszero\n        /* \"contracts/modules/SponsorMatrix.sol\":15476:16106  if (up.level >= _packageLevel) {... */\n      0x00\n        /* \"contracts/modules/SponsorMatrix.sol\":15480:15505  up.level >= _packageLevel */\n      eq\n      tag_555\n      jumpi\n        /* \"contracts/modules/SponsorMatrix.sol\":15614:15648  amountPerLevel * accumulatedShares */\n      dup3\n      tag_557\n      swap2\n      tag_15\n      jump\t// in\n    tag_557:\n        /* \"contracts/modules/SponsorMatrix.sol\":14488:14489  0 */\n      0x00\n        /* \"contracts/modules/SponsorMatrix.sol\":124:18049  contract Nanakshahi is Storage{... */\n      dup3\n      dup2\n      mstore\n        /* \"contracts/modules/SponsorMatrix.sol\":15443:15448  users */\n      0x0d\n        /* \"contracts/modules/SponsorMatrix.sol\":124:18049  contract Nanakshahi is Storage{... */\n      0x20\n      swap1\n      dup2\n      mstore\n      0x40\n      dup1\n      dup4\n      keccak256\n      sload\n      sload(0x01)\n      swap2\n      mload\n      shl(0xe0, 0xa9059cbb)\n        /* \"contracts/modules/SponsorMatrix.sol\":17011:17036  usdt.transfer(to, amount) */\n      dup2\n      mstore\n      sub(shl(0xa0, 0x01), 0x01)\n        /* \"contracts/modules/SponsorMatrix.sol\":124:18049  contract Nanakshahi is Storage{... */\n      swap2\n      dup3\n      and\n        /* \"contracts/modules/SponsorMatrix.sol\":17011:17036  usdt.transfer(to, amount) */\n      0x04\n      dup3\n      add\n        /* \"contracts/modules/SponsorMatrix.sol\":124:18049  contract Nanakshahi is Storage{... */\n      dup2\n      swap1\n      mstore\n      0x24\n      dup3\n      add\n      dup8\n      swap1\n      mstore\n      swap1\n      swap9\n      swap5\n      swap1\n      swap4\n      swap3\n      dup10\n      swap3\n      0x44\n      swap3\n      dup5\n      swap3\n        /* \"contracts/modules/SponsorMatrix.sol\":14488:14489  0 */\n      swap1\n      swap2\n        /* \"contracts/modules/SponsorMatrix.sol\":124:18049  contract Nanakshahi is Storage{... */\n      and\n        /* \"contracts/modules/SponsorMatrix.sol\":17011:17036  usdt.transfer(to, amount) */\n      gas\n      call\n      swap4\n      dup5\n      iszero\n      tag_112\n      jumpi\n        /* \"contracts/modules/SponsorMatrix.sol\":15794:15824  PaidCount += accumulatedShares */\n      tag_561\n        /* \"contracts/modules/SponsorMatrix.sol\":17011:17036  usdt.transfer(to, amount) */\n      swap7\n        /* \"contracts/modules/SponsorMatrix.sol\":15749:15775  totalDistributed += payout */\n      tag_562\n        /* \"contracts/modules/SponsorMatrix.sol\":17011:17036  usdt.transfer(to, amount) */\n      swap6\n      tag_563\n      jumpi\n        /* \"contracts/modules/SponsorMatrix.sol\":15476:16106  if (up.level >= _packageLevel) {... */\n    tag_564:\n        /* \"contracts/modules/SponsorMatrix.sol\":124:18049  contract Nanakshahi is Storage{... */\n      pop\n      dup1\n        /* \"contracts/modules/SponsorMatrix.sol\":14488:14489  0 */\n      0x00\n        /* \"contracts/modules/SponsorMatrix.sol\":124:18049  contract Nanakshahi is Storage{... */\n      mstore\n        /* \"contracts/modules/SponsorMatrix.sol\":17074:17085  userIncomes */\n      0x0e\n        /* \"contracts/modules/SponsorMatrix.sol\":124:18049  contract Nanakshahi is Storage{... */\n      0x20\n      mstore\n        /* \"contracts/modules/SponsorMatrix.sol\":17144:17166  inc.levelBoosterIncome */\n      0x03\n        /* \"contracts/modules/SponsorMatrix.sol\":124:18049  contract Nanakshahi is Storage{... */\n      0x40\n        /* \"contracts/modules/SponsorMatrix.sol\":14488:14489  0 */\n      0x00\n        /* \"contracts/modules/SponsorMatrix.sol\":124:18049  contract Nanakshahi is Storage{... */\n      keccak256\n        /* \"contracts/modules/SponsorMatrix.sol\":17108:17133  inc.totalIncome += amount */\n      tag_565\n        /* \"contracts/modules/SponsorMatrix.sol\":124:18049  contract Nanakshahi is Storage{... */\n      dup7\n      dup3\n      sload\n        /* \"contracts/modules/SponsorMatrix.sol\":17108:17133  inc.totalIncome += amount */\n      tag_13\n      jump\t// in\n    tag_565:\n        /* \"contracts/modules/SponsorMatrix.sol\":124:18049  contract Nanakshahi is Storage{... */\n      dup2\n      sstore\n        /* \"contracts/modules/SponsorMatrix.sol\":17144:17166  inc.levelBoosterIncome */\n      add\n        /* \"contracts/modules/SponsorMatrix.sol\":17144:17176  inc.levelBoosterIncome += amount */\n      tag_566\n        /* \"contracts/modules/SponsorMatrix.sol\":124:18049  contract Nanakshahi is Storage{... */\n      dup6\n      dup3\n      sload\n        /* \"contracts/modules/SponsorMatrix.sol\":17144:17176  inc.levelBoosterIncome += amount */\n      tag_13\n      jump\t// in\n    tag_566:\n        /* \"contracts/modules/SponsorMatrix.sol\":124:18049  contract Nanakshahi is Storage{... */\n      swap1\n      sstore\n        /* \"contracts/modules/SponsorMatrix.sol\":14488:14489  0 */\n      0x00\n        /* \"contracts/modules/SponsorMatrix.sol\":124:18049  contract Nanakshahi is Storage{... */\n      mstore\n        /* \"contracts/modules/SponsorMatrix.sol\":17189:17202  incomeHistory */\n      0x0f\n        /* \"contracts/modules/SponsorMatrix.sol\":124:18049  contract Nanakshahi is Storage{... */\n      0x20\n      mstore\n        /* \"contracts/modules/SponsorMatrix.sol\":17189:17436  incomeHistory[receiverId].push(Income({... */\n      tag_567\n        /* \"contracts/modules/SponsorMatrix.sol\":124:18049  contract Nanakshahi is Storage{... */\n      0x40\n        /* \"contracts/modules/SponsorMatrix.sol\":14488:14489  0 */\n      0x00\n        /* \"contracts/modules/SponsorMatrix.sol\":124:18049  contract Nanakshahi is Storage{... */\n      keccak256\n      mload(0x40)\n      swap1\n      tag_568\n      dup3\n      tag_9\n      jump\t// in\n    tag_568:\n      dup11\n      dup3\n      mstore\n        /* \"contracts/modules/SponsorMatrix.sol\":17220:17435  Income({... */\n      dup6\n        /* \"contracts/modules/SponsorMatrix.sol\":124:18049  contract Nanakshahi is Storage{... */\n      0x20\n        /* \"contracts/modules/SponsorMatrix.sol\":17220:17435  Income({... */\n      dup4\n      add\n        /* \"contracts/modules/SponsorMatrix.sol\":124:18049  contract Nanakshahi is Storage{... */\n      mstore\n        /* \"contracts/modules/SponsorMatrix.sol\":17220:17435  Income({... */\n      dup14\n        /* \"contracts/modules/SponsorMatrix.sol\":124:18049  contract Nanakshahi is Storage{... */\n      0x40\n        /* \"contracts/modules/SponsorMatrix.sol\":17220:17435  Income({... */\n      dup4\n      add\n        /* \"contracts/modules/SponsorMatrix.sol\":124:18049  contract Nanakshahi is Storage{... */\n      mstore\n        /* \"contracts/modules/SponsorMatrix.sol\":17356:17371  block.timestamp */\n      timestamp\n        /* \"contracts/modules/SponsorMatrix.sol\":17220:17435  Income({... */\n      0x60\n      dup4\n      add\n        /* \"contracts/modules/SponsorMatrix.sol\":124:18049  contract Nanakshahi is Storage{... */\n      mstore\n        /* \"contracts/modules/SponsorMatrix.sol\":17011:17036  usdt.transfer(to, amount) */\n      0x04\n        /* \"contracts/modules/SponsorMatrix.sol\":17220:17435  Income({... */\n      0x80\n      dup4\n      add\n        /* \"contracts/modules/SponsorMatrix.sol\":124:18049  contract Nanakshahi is Storage{... */\n      mstore\n        /* \"contracts/modules/SponsorMatrix.sol\":17189:17436  incomeHistory[receiverId].push(Income({... */\n      tag_16\n      jump\t// in\n    tag_567:\n        /* \"contracts/modules/SponsorMatrix.sol\":124:18049  contract Nanakshahi is Storage{... */\n      dup8\n        /* \"contracts/modules/SponsorMatrix.sol\":14488:14489  0 */\n      0x00\n        /* \"contracts/modules/SponsorMatrix.sol\":124:18049  contract Nanakshahi is Storage{... */\n      mstore\n        /* \"contracts/modules/SponsorMatrix.sol\":15443:15448  users */\n      0x0d\n        /* \"contracts/modules/SponsorMatrix.sol\":124:18049  contract Nanakshahi is Storage{... */\n      0x20\n      mstore\n      0x01\n      dup1\n      0xa0\n      shl\n      sub\n      0x40\n        /* \"contracts/modules/SponsorMatrix.sol\":14488:14489  0 */\n      0x00\n        /* \"contracts/modules/SponsorMatrix.sol\":124:18049  contract Nanakshahi is Storage{... */\n      keccak256\n      sload\n      and\n      swap1\n      mload(0x00)\n      codecopy(0x00, data_51678340555b44277c2bba9423d75ebead61331b9cde789c13d0820d4f537e29, 0x20)\n      mload(0x00)\n      swap1\n      0x00\n      mstore\n        /* \"contracts/modules/SponsorMatrix.sol\":17220:17435  Income({... */\n      0x60\n        /* \"contracts/modules/SponsorMatrix.sol\":124:18049  contract Nanakshahi is Storage{... */\n      dup14\n      mload(0x40)\n      swap1\n      dup8\n      dup3\n      mstore\n      0x20\n      dup3\n      add\n      mstore\n        /* \"contracts/modules/SponsorMatrix.sol\":17011:17036  usdt.transfer(to, amount) */\n      0x04\n        /* \"contracts/modules/SponsorMatrix.sol\":124:18049  contract Nanakshahi is Storage{... */\n      0x40\n      dup3\n      add\n      mstore\n        /* \"contracts/modules/SponsorMatrix.sol\":17454:17523  IncomeDistributed(to, users[fromId].account, amount, packageLevel, 4) */\n      log3\n        /* \"contracts/modules/SponsorMatrix.sol\":15749:15775  totalDistributed += payout */\n      tag_13\n      jump\t// in\n    tag_562:\n        /* \"contracts/modules/SponsorMatrix.sol\":15794:15824  PaidCount += accumulatedShares */\n      swap9\n      tag_13\n      jump\t// in\n    tag_561:\n        /* \"contracts/modules/SponsorMatrix.sol\":15843:15864  accumulatedShares = 1 */\n      swap4\n        /* \"contracts/modules/SponsorMatrix.sol\":14985:14986  1 */\n      0x01\n        /* \"contracts/modules/SponsorMatrix.sol\":15476:16106  if (up.level >= _packageLevel) {... */\n      swap2\n    tag_569:\n        /* \"contracts/modules/SponsorMatrix.sol\":16186:16208  PaidCount >= _maxLevel */\n      dup5\n      dup7\n      lt\n      iszero\n        /* \"contracts/modules/SponsorMatrix.sol\":16182:16215  if (PaidCount >= _maxLevel) break */\n      tag_570\n      jumpi\n        /* \"contracts/modules/SponsorMatrix.sol\":16375:16386  up.uplineId */\n      0x05\n        /* \"contracts/modules/SponsorMatrix.sol\":14985:14986  1 */\n      0x01\n        /* \"contracts/modules/SponsorMatrix.sol\":16375:16386  up.uplineId */\n      swap2\n      add\n        /* \"contracts/modules/SponsorMatrix.sol\":124:18049  contract Nanakshahi is Storage{... */\n      sload\n        /* \"contracts/modules/SponsorMatrix.sol\":15048:15051  i++ */\n      swap2\n        /* \"contracts/modules/SponsorMatrix.sol\":124:18049  contract Nanakshahi is Storage{... */\n      add\n        /* \"contracts/modules/SponsorMatrix.sol\":15028:15038  uint i = 0 */\n      swap4\n      swap3\n      swap2\n      swap6\n      swap5\n      swap6\n      jump(tag_541)\n        /* \"contracts/modules/SponsorMatrix.sol\":16182:16215  if (PaidCount >= _maxLevel) break */\n    tag_570:\n        /* \"contracts/modules/SponsorMatrix.sol\":16210:16215  break */\n      jump(tag_543)\n        /* \"contracts/modules/SponsorMatrix.sol\":17011:17036  usdt.transfer(to, amount) */\n    tag_563:\n      tag_572\n      swap1\n        /* \"contracts/modules/SponsorMatrix.sol\":124:18049  contract Nanakshahi is Storage{... */\n      0x20\n        /* \"contracts/modules/SponsorMatrix.sol\":17011:17036  usdt.transfer(to, amount) */\n      returndatasize\n      dup2\n      gt\n      tag_177\n      jumpi\n      tag_179\n      dup2\n      dup4\n      tag_10\n      jump\t// in\n    tag_572:\n      jump(tag_564)\n        /* \"contracts/modules/SponsorMatrix.sol\":15476:16106  if (up.level >= _packageLevel) {... */\n    tag_555:\n        /* \"contracts/modules/SponsorMatrix.sol\":15983:16010  accumulatedShares<_maxLevel */\n      pop\n      pop\n      swap2\n      dup5\n      dup4\n      swap10\n      swap7\n      swap3\n      swap10\n      lt\n        /* \"contracts/modules/SponsorMatrix.sol\":15980:16074  if(accumulatedShares<_maxLevel){... */\n      iszero\n        /* \"contracts/modules/SponsorMatrix.sol\":15476:16106  if (up.level >= _packageLevel) {... */\n      tag_569\n        /* \"contracts/modules/SponsorMatrix.sol\":15980:16074  if(accumulatedShares<_maxLevel){... */\n      jumpi\n        /* \"contracts/modules/SponsorMatrix.sol\":16035:16054  accumulatedShares++ */\n      swap2\n      tag_578\n      swap1\n      tag_25\n      jump\t// in\n    tag_578:\n        /* \"contracts/modules/SponsorMatrix.sol\":15980:16074  if(accumulatedShares<_maxLevel){... */\n      swap2\n        /* \"contracts/modules/SponsorMatrix.sol\":15476:16106  if (up.level >= _packageLevel) {... */\n      jump(tag_569)\n        /* \"contracts/modules/SponsorMatrix.sol\":15133:15409  if (currentId == 0 || currentId == defaultRefId) {... */\n    tag_553:\n        /* \"contracts/modules/SponsorMatrix.sol\":15279:15305  _amount - totalDistributed */\n      pop\n      swap8\n      pop\n      pop\n      pop\n      pop\n      pop\n      pop\n      swap1\n      pop\n      tag_579\n      swap3\n      swap4\n      pop\n      tag_4\n      jump\t// in\n    tag_579:\n        /* \"contracts/modules/SponsorMatrix.sol\":15328:15341  remaining > 0 */\n      dup1\n        /* \"contracts/modules/SponsorMatrix.sol\":15324:15368  if (remaining > 0) _sendToCreator(remaining) */\n      tag_440\n      jumpi\n        /* \"contracts/modules/SponsorMatrix.sol\":15387:15394  return; */\n      pop\n      jump\t// out\n        /* \"contracts/modules/SponsorMatrix.sol\":15137:15180  currentId == 0 || currentId == defaultRefId */\n    tag_551:\n        /* \"contracts/modules/SponsorMatrix.sol\":124:18049  contract Nanakshahi is Storage{... */\n      pop\n        /* \"contracts/modules/SponsorMatrix.sol\":16375:16386  up.uplineId */\n      0x05\n        /* \"contracts/modules/SponsorMatrix.sol\":124:18049  contract Nanakshahi is Storage{... */\n      sload\n        /* \"contracts/modules/SponsorMatrix.sol\":15155:15180  currentId == defaultRefId */\n      dup4\n      eq\n        /* \"contracts/modules/SponsorMatrix.sol\":15137:15180  currentId == 0 || currentId == defaultRefId */\n      jump(tag_552)\n        /* \"contracts/modules/SponsorMatrix.sol\":14472:14608  if (_startId == 0 || _startId == defaultRefId || _maxLevel == 0) {... */\n    tag_536:\n        /* \"contracts/modules/SponsorMatrix.sol\":14567:14574  _amount */\n      pop\n      swap2\n      pop\n      pop\n      tag_403\n      swap2\n      swap3\n      pop\n      tag_22\n      jump\t// in\n        /* \"contracts/modules/SponsorMatrix.sol\":14476:14535  _startId == 0 || _startId == defaultRefId || _maxLevel == 0 */\n    tag_534:\n        /* \"contracts/modules/SponsorMatrix.sol\":14521:14535  _maxLevel == 0 */\n      pop\n      dup6\n      iszero\n        /* \"contracts/modules/SponsorMatrix.sol\":14476:14535  _startId == 0 || _startId == defaultRefId || _maxLevel == 0 */\n      jump(tag_535)\n        /* \"contracts/modules/SponsorMatrix.sol\":14476:14517  _startId == 0 || _startId == defaultRefId */\n    tag_532:\n        /* \"contracts/modules/SponsorMatrix.sol\":124:18049  contract Nanakshahi is Storage{... */\n      pop\n        /* \"contracts/modules/SponsorMatrix.sol\":14505:14517  defaultRefId */\n      0x05\n        /* \"contracts/modules/SponsorMatrix.sol\":124:18049  contract Nanakshahi is Storage{... */\n      sload\n        /* \"contracts/modules/SponsorMatrix.sol\":14493:14517  _startId == defaultRefId */\n      dup5\n      eq\n        /* \"contracts/modules/SponsorMatrix.sol\":14476:14517  _startId == 0 || _startId == defaultRefId */\n      jump(tag_533)\n    stop\n    data_51678340555b44277c2bba9423d75ebead61331b9cde789c13d0820d4f537e29 e17b61d324ce17328f433d0ab62581c0f0aa997312bae80fbdfcd2aa9b91d6e3\n\n    auxdata: 0xa264697066735822122072349fbf0c04c24131f23d16a1df1b860619e7118418ca3cd92a1c5e44f9c5a564736f6c634300081e0033\n}\n",
				"bytecode": {
					"linkReferences": {},
					"object": "60806040523461051b5760015f556040516101e081016001600160401b038111828210176105075760405267d02ab486cedc0000815268015af1d78b58c4000060208201526802b5e3af16b1880000604082015268056bc75e2d631000006060820152680ad78ebc5ac620000060808201526815af1d78b58c40000060a0820152682b5e3af16b1880000060c08201526856bc75e2d63100000060e082015268ad78ebc5ac6200000061010082015269015af1d78b58c40000006101208201526902b5e3af16b18800000061014082015269056bc75e2d6310000000610160820152690ad78ebc5ac6200000006101808201526915af1d78b58c400000006101a0820152692b5e3af16b18800000006101c0820152600b54600f600b5580600f106104b1575b50600b5f5260205f20905f5b600f81106104945761014161051f565b680410d586a20a4c00008152681043561a8829300000602082015268410d586a20a4c0000060408201526901043561a882930000006060820152690410d586a20a4c0000006080820152691043561a88293000000060a082015269410d586a20a4c000000060c082015260135460076013558060071061043e575b5060135f5260205f20905f5b60078110610421576101d861053e565b68056bc75e2d631000008152680ad78ebc5ac620000060208201526815af1d78b58c4000006040820152682b5e3af16b1880000060608201526856bc75e2d631000000608082015268ad78ebc5ac6200000060a082015269015af1d78b58c400000060c08201526902b5e3af16b18800000060e08201526014546008601455806008106103cb575b5060145f5260205f20905f5b600881106103ae5761027c61051f565b60038152600560208201526007604082015260096060820152600b6080820152600d60a0820152600f60c08201525f5b60078110610396576102bc61053e565b6004815260056020820152600660408201526007606082015260086080820152600960a0820152600a60c0820152600b60e08201525f5b6008811061037e5761030361053e565b5f815260016020820152600160408201526001606082015260016080820152600160a0820152600160c0820152600160e08201525f5b6008811061036657600160365560016037555f6038555f6039555f603a55604051611b7d90816105758239f35b600190602060ff845116930192816024015501610339565b600190602060ff84511693019281601c0155016102f3565b600190602060ff8451169301928160150155016102ac565b81516001600160501b03168184015560209091019060010161026c565b60145f5261041b907fce6d7b5282bd9a3661ae061feed1dbda4e52ab073b1f9285be6e155d9c38d4ec017fce6d7b5282bd9a3661ae061feed1dbda4e52ab073b1f9285be6e155d9c38d4f461055e565b81610260565b81516001600160501b0316818401556020909101906001016101c8565b60135f5261048e907f66de8ffda797e3de9c05e8fc57b3bf0ec28a930d40b0d285d93c06501cf6a090017f66de8ffda797e3de9c05e8fc57b3bf0ec28a930d40b0d285d93c06501cf6a09761055e565b816101bc565b81516001600160501b031681840155602090910190600101610131565b600b5f52610501907f0175b7a638427703f0dbe7bb9bbf987a2551717b34e79f33b5b1008d1fa01db9017f0175b7a638427703f0dbe7bb9bbf987a2551717b34e79f33b5b1008d1fa01dc861055e565b5f610125565b634e487b7160e01b5f52604160045260245ffd5b5f80fd5b6040519060e082016001600160401b0381118382101761050757604052565b6040519061010082016001600160401b0381118382101761050757604052565b818110610569575050565b5f815560010161055e56fe6080806040526004361015610012575f80fd5b5f3560e01c90816301c234a814610d78575080632132d20414610d4c5780632350268f14610cf25780632451308814610cc85780632a89153414610cab5780632f48ab7d14610c835780633080b5bc14610c6657806332bc298c14610c4957806332fcd96614610c27578063375b43b414610c0c57806339ab360314610bb257806345977d031461099b57806358c7d3521461098057806376f5f7001461096357806378f6ad6d146109465780637cdc65f21461091e578063956a3228146108f2578063ae4708dc14610884578063bff1f9e114610867578063c216212a1461082f578063c8df29081461080b578063c9ed0708146107ee578063ca8e9121146107d1578063d0a2fd79146107a5578063d54d6ddb14610787578063e898fc381461076a578063e9e34a1614610742578063ebe0ff151461071f578063ec597e6f14610702578063f207564e146101c5578063f5d74d931461019d5763fddc806f1461017c575f80fd5b34610199575f366003190112610199576020603854604051908152f35b5f80fd5b34610199575f366003190112610199576004546040516001600160a01b039091168152602090f35b3461019957602036600319011261019957600435335f52600c60205260405f20546106c857805f52600d602052600360405f20015415610691576001545f90602090610252906001600160a01b031661021c610daa565b90546040516323b872dd60e01b815233600482015230602482015260039290921b1c604482015293849283919082906064820190565b03925af1801561068657610659575b50600554906102736006548093610f2e565b91600181018091116104a557600655335f52600c6020528160405f2055815f52600d60205260405f2090336bffffffffffffffffffffffff60a01b83541617825542600283015582600383015560048201818155600160068401556102d6610daa565b90549060031b1c600a84015542600f840155815f52600d602052600760405f2001805490600182018092116104a55755815f52601260205261031b8460405f2061120c565b600754600160401b8110156106455780600161033c92016007556007610ddc565b81549060031b9086821b915f19901b1916179055600954845f52600a60205260405f20555f5f90835f526011602052600260405f2054105f1461051a575050835f52600d60205281600560405f200155815f52601160205260405f20805490600182018092116104a55755815b5f905b600f82106104b9575b50506103f36103c2610daa565b90546040519160031b1c6103d582610ebc565b81525f60208201524260408201526001606082015260018501610f3b565b6103fb610daa565b90549060031b1c90600582028215928082046005148417156104a557603c810293818504603c148117156104a5576019820291820460191417156104a55761045e9361045660648994610450828096046112ac565b04611313565b049154611432565b5f52600d602052600560018060a01b0360405f2054169101546040519081527f309bb360e8b69c23937ccc5fb01f9aeeead1c95a99604e175113ff82f2b1723a60203392a4005b634e487b7160e01b5f52601160045260245ffd5b801561051557805f52600d602052600960405f2001805490600182018092116104a55755805f52601060205260405f20825f526020526104fc8660405f2061120c565b5f52600d6020526001600560405f2001549101906103ac565b6103b5565b5f5b600f811061052c575b50506103a9565b8161064057845f52601060205260405f20600182018083116104a5575f5260205260405f2054600282018083116104a55760ff81116104a5576001901b11610577575b60010161051c565b93925f9591955b845f52601060205260405f20865f5260205260405f2054811015610632578661062157845f52601060205260405f20865f526020526105c08160405f20610ddc565b90549060031b1c805f526011602052600260405f2054106105e5575b5060010161057e565b9193509550865f52600d60205280600560405f200155805f52601160205260405f20805490600182018092116104a557559160018096906105dc565b5092936001909591955b905061056f565b50929360019095919561062b565b610525565b634e487b7160e01b5f52604160045260245ffd5b61067a9060203d60201161067f575b6106728183610ef4565b810190610f16565b610261565b503d610668565b6040513d5f823e3d90fd5b60405162461bcd60e51b815260206004820152600f60248201526e24b73b30b634b21039b837b739b7b960891b6044820152606490fd5b60405162461bcd60e51b8152602060048201526012602482015271105b1c9958591e481c9959da5cdd195c995960721b6044820152606490fd5b34610199575f366003190112610199576020600554604051908152f35b34610199575f366003190112610199576020604051683635c9adc5dea000008152f35b34610199575f366003190112610199576003546040516001600160a01b039091168152602090f35b34610199575f366003190112610199576020603954604051908152f35b34610199576020366003190112610199576107a3600435610ffd565b005b3461019957602036600319011261019957600435600881101561019957602090601c0154604051908152f35b34610199575f366003190112610199576020603654604051908152f35b34610199575f366003190112610199576020603754604051908152f35b34610199575f36600319011261019957602060405169021e19e0c9bab24000008152f35b3461019957602036600319011261019957600435600b5481101561019957610858602091610d92565b90549060031b1c604051908152f35b34610199575f366003190112610199576020600654604051908152f35b3461019957602036600319011261019957600435601354811015610199576013548110156108de5760135f527f66de8ffda797e3de9c05e8fc57b3bf0ec28a930d40b0d285d93c06501cf6a0900154604051908152602090f35b634e487b7160e01b5f52603260045260245ffd5b346101995760203660031901126101995760043560088110156101995760209060240154604051908152f35b34610199575f366003190112610199576002546040516001600160a01b039091168152602090f35b34610199575f366003190112610199576020600954604051908152f35b34610199575f36600319011261019957602060405162093a808152f35b34610199575f366003190112610199576020604051600a8152f35b3461019957602036600319011261019957600435805f52600d60205260405f206109cf60018060a01b038254163314610e7d565b6006810190815491600f831015610b76576109e983610d92565b90546001546040516323b872dd60e01b815233600482015230602482015260039390931b9190911c60448301819052929190602090829060649082905f906001600160a01b03165af1801561068657610b59575b50805490600182018092116104a55755600a8201610a5c828254610f2e565b9055610a8c604051610a6d81610ebc565b8281525f60208201524260408201526001606082015260018401610f3b565b600581028115908281046005148217156104a557601983028381046019148317156104a557610ac29161045060648093046112ac565b6014820291820460141417156104a5576064900491600482015460018201938483116104a557856005610b1095610afc8885858298611571565b01610b0a84848484546116ce565b546118b8565b60405190815260406020820152600460408201526314db1bdd60e21b60608201527fbabb6a363fd9a057996d09882c0b74b710d121707d19eeffd91c51c3171a7c9160803392a3005b610b719060203d60201161067f576106728183610ef4565b610a3d565b60405162461bcd60e51b8152602060048201526014602482015273105b1c9958591e48185d081b585e081b195d995b60621b6044820152606490fd5b3461019957602036600319011261019957600435600754811015610199576007548110156108de5760075f527fa66cc928b5edb82af9bd49922954155ab7b0942694bea4ce44661d9a8736c6880154604051908152602090f35b34610199575f366003190112610199576020604051600f8152f35b34610199575f366003190112610199576020604051670de0b6b3a76400008152f35b34610199575f366003190112610199576020604051620151808152f35b34610199575f366003190112610199576020603a54604051908152f35b34610199575f366003190112610199576001546040516001600160a01b039091168152602090f35b34610199575f36600319011261019957602060405162278d008152f35b34610199576020366003190112610199576040610ce6600435610e1c565b82519182526020820152f35b3461019957602036600319011261019957600435601454811015610199576014548110156108de5760145f527fce6d7b5282bd9a3661ae061feed1dbda4e52ab073b1f9285be6e155d9c38d4ec0154604051908152602090f35b346101995760203660031901126101995760043560078110156101995760209060150154604051908152f35b34610199575f366003190112610199578061271060209252f35b600b548110156108de57600b5f5260205f2001905f90565b600b54156108de57600b5f9081527f0175b7a638427703f0dbe7bb9bbf987a2551717b34e79f33b5b1008d1fa01db991565b80548210156108de575f5260205f2001905f90565b919082039182116104a557565b8115610e08570490565b634e487b7160e01b5f52601260045260245ffd5b90815f52600d602052600360405f20015415610e7657600954825f52600a60205260405f20549081811115610e6c57610e61610e6992670de0b6b3a764000092610df1565b048093611240565b90565b505090505f905f90565b5f91508190565b15610e8457565b60405162461bcd60e51b815260206004820152601060248201526f139bdd081e5bdd5c881858d8dbdd5b9d60821b6044820152606490fd5b6080810190811067ffffffffffffffff82111761064557604052565b60a0810190811067ffffffffffffffff82111761064557604052565b90601f8019910116810190811067ffffffffffffffff82111761064557604052565b90816020910312610199575180151581036101995790565b919082018092116104a557565b8054600160401b81101561064557600181018083558110156108de57600360609160ff935f5260205f209060021b01845181556020850151600182015560408501516002820155019201511660ff19825416179055565b818102929181159184041417156104a557565b805490600160401b82101561064557600182018082558210156108de576004916080915f52600560205f2091020192805184556020810151600185015560408101516002850155606081015160038501550151910155565b805f52600d60205260405f20906003820154156111d65761102860018060a01b038354163314610e7d565b60095491815f52600a60205260405f20548084146111d057611053670de0b6b3a76400009185610df1565b049182156111bf576110658382611240565b93815f52600a60205260405f2055838061109b575b9150508111611087575050565b6110999161109491610df1565b611313565b565b61114492611105836020945f52600e8552600760405f206110bd868254610f2e565b8155016110cb858254610f2e565b9055805f52600f855260405f20604051916110e583610ed8565b825284868301526001604083015242606083015260096080830152610fa5565b600154905460405163a9059cbb60e01b81526001600160a01b0391821660048201526024810193909352919384929091169082905f9082906044820190565b03925af1908115610686575f916111a0575b5015611164575f808361107a565b60405162461bcd60e51b81526020600482015260146024820152731554d115081d1c985b9cd9995c8819985a5b195960621b6044820152606490fd5b6111b9915060203d60201161067f576106728183610ef4565b5f611156565b9150505f52600a60205260405f2055565b50505050565b60405162461bcd60e51b815260206004820152600e60248201526d155cd95c881b9bdd08199bdd5b9960921b6044820152606490fd5b8054600160401b8110156106455761122991600182018155610ddc565b819291549060031b91821b915f19901b1916179055565b805f52600d60205260405f20905f52600e602052600a61127660405f2092600f9060016008820154116112a3575b830154610f92565b0490548181101561129c5761128a91610df1565b9081811115611297575090565b905090565b5050505f90565b6014915061126e565b600754908115801561130b575b6112f857670de0b6b3a7640000810290808204670de0b6b3a764000014901517156104a5576112f3916112eb91610dfe565b600954610f2e565b600955565b8091506113025750565b61109990611313565b5080156112b9565b6002546001600160a01b031680156113f95760015460405163a9059cbb60e01b60208083019182526001600160a01b039485166024840152604480840187905283529390921692915f91611368606482610ef4565b519082855af115610686575f513d6113f05750803b155b6113de5750611099906005545f52600e60205260405f206113a1828254610f2e565b90556005545f52600f60205260405f20604051916113be83610ed8565b5f835260208301525f604083015242606083015260056080830152610fa5565b635274afe760e01b5f5260045260245ffd5b6001141561137f565b60405162461bcd60e51b8152602060048201526011602482015270199959481859191c9cc81b9bdd081cd95d607a1b6044820152606490fd5b80158015611566575b61155b57805f52600d60205260405f2090805f52600e602052600160405f20611465868254610f2e565b815501611473858254610f2e565b9055600154825460405163a9059cbb60e01b81526001600160a01b0391821660048201526024810187905291602091839160449183915f91165af180156106865761153e575b505f52600f6020526114f760405f20604051906114d582610ed8565b8482528560208301526001604083015242606083015260016080830152610fa5565b60018060a01b03905416905f52600d6020525f516020611b285f395f51905f52606060018060a01b0360405f205416936040519081526001602082015260016040820152a3565b6115569060203d60201161067f576106728183610ef4565b6114b9565b505061109990611313565b50600554811461143b565b9091811580156116b5575b6116a857906115f891815f52600d60205260405f20825f52600e602052600160405f206115aa848254610f2e565b8155016115b8838254610f2e565b9055600154815460405163a9059cbb60e01b81526001600160a01b03918216600482015260248101859052956020928792169082905f9082906044820190565b03925af1928315610686575f516020611b285f395f51905f529460609461168b575b505f52600f60205261165660405f206040519061163682610ed8565b878252846020830152886040830152428683015260016080830152610fa5565b60018060a01b03905416935f52600d60205260018060a01b0360405f20541694604051918252602082015260016040820152a3565b6116a39060203d60201161067f576106728183610ef4565b61161a565b9150506110999150611313565b50600554821461157c565b5f1981146104a55760010190565b939193929092600554811480156118b0575b6118a35760015b8281106118725750925f935b80151580611866575b8061185c575b1561184e57805f52600d60205260405f209083600683015410156117355750600561172f910154946116c0565b936116f3565b600154825460405163a9059cbb60e01b81526001600160a01b039182166004820152602481018a905296989597509395949193919291602091869160449183915f91165af1928315610686575f516020611b285f395f51905f5294606094611832575b50805f52600e602052600260405f206117b2858254610f2e565b8155016117c0848254610f2e565b90555f52600f6020526117fd60405f20604051906117dd82610ed8565b878252846020830152886040830152428683015260026080830152610fa5565b60018060a01b03905416935f52600d60205260018060a01b0360405f20541694604051918252602082015260026040820152a3565b6118499060203d811161067f576106728183610ef4565b611798565b505050916110999150611313565b50600f8510611702565b506005548114156116fc565b905f52600d602052600560405f2001549081158015611898575b61184e576001016116e7565b50600554821461188c565b5050916110999150611313565b5080156116e0565b9294939491909183158015611b1c575b8015611b14575b611b055794916118df8383610dfe565b956118f36118ed8589610f92565b84610df1565b945f948593849260015b601e8510611937575b5050505050505061191992939450610df1565b80611928575b50806113025750565b61193190611313565b5f61191f565b8192939495969891158015611afa575b611add57825f52600d60205260405f20928c88600686015410155f14611abe578261197191610f92565b5f828152600d6020908152604080832054600154915163a9059cbb60e01b81526001600160a01b039182166004820181905260248201879052909894909392899260449284929091165af193841561068657611a7c96611a7695611aa2575b50805f52600e602052600360405f206119ea868254610f2e565b8155016119f8858254610f2e565b90555f52600f602052611a3660405f2060405190611a1582610ed8565b8a82528560208301528d604083015242606083015260046080830152610fa5565b875f52600d60205260018060a01b0360405f205416905f516020611b285f395f51905f5260608d60405190878252602082015260046040820152a3610f2e565b98610f2e565b936001915b84861015611a9d576005600191015491019392919594956118fd565b611906565b611ab99060203d811161067f576106728183610ef4565b6119d0565b5050918483999692991015611a815791611ad7906116c0565b91611a81565b50975050505050509050611af2929350610df1565b806113025750565b506005548314611947565b50915050611099919250611313565b5085156118cf565b5060055484146118c856fee17b61d324ce17328f433d0ab62581c0f0aa997312bae80fbdfcd2aa9b91d6e3a264697066735822122072349fbf0c04c24131f23d16a1df1b860619e7118418ca3cd92a1c5e44f9c5a564736f6c634300081e0033",
					"opcodes": "PUSH1 0x80 PUSH1 0x40 MSTORE CALLVALUE PUSH2 0x51B JUMPI PUSH1 0x1 PUSH0 SSTORE PUSH1 0x40 MLOAD PUSH2 0x1E0 DUP2 ADD PUSH1 0x1 PUSH1 0x1 PUSH1 0x40 SHL SUB DUP2 GT DUP3 DUP3 LT OR PUSH2 0x507 JUMPI PUSH1 0x40 MSTORE PUSH8 0xD02AB486CEDC0000 DUP2 MSTORE PUSH9 0x15AF1D78B58C40000 PUSH1 0x20 DUP3 ADD MSTORE PUSH9 0x2B5E3AF16B1880000 PUSH1 0x40 DUP3 ADD MSTORE PUSH9 0x56BC75E2D63100000 PUSH1 0x60 DUP3 ADD MSTORE PUSH9 0xAD78EBC5AC6200000 PUSH1 0x80 DUP3 ADD MSTORE PUSH9 0x15AF1D78B58C400000 PUSH1 0xA0 DUP3 ADD MSTORE PUSH9 0x2B5E3AF16B18800000 PUSH1 0xC0 DUP3 ADD MSTORE PUSH9 0x56BC75E2D631000000 PUSH1 0xE0 DUP3 ADD MSTORE PUSH9 0xAD78EBC5AC62000000 PUSH2 0x100 DUP3 ADD MSTORE PUSH10 0x15AF1D78B58C4000000 PUSH2 0x120 DUP3 ADD MSTORE PUSH10 0x2B5E3AF16B188000000 PUSH2 0x140 DUP3 ADD MSTORE PUSH10 0x56BC75E2D6310000000 PUSH2 0x160 DUP3 ADD MSTORE PUSH10 0xAD78EBC5AC620000000 PUSH2 0x180 DUP3 ADD MSTORE PUSH10 0x15AF1D78B58C40000000 PUSH2 0x1A0 DUP3 ADD MSTORE PUSH10 0x2B5E3AF16B1880000000 PUSH2 0x1C0 DUP3 ADD MSTORE PUSH1 0xB SLOAD PUSH1 0xF PUSH1 0xB SSTORE DUP1 PUSH1 0xF LT PUSH2 0x4B1 JUMPI JUMPDEST POP PUSH1 0xB PUSH0 MSTORE PUSH1 0x20 PUSH0 KECCAK256 SWAP1 PUSH0 JUMPDEST PUSH1 0xF DUP2 LT PUSH2 0x494 JUMPI PUSH2 0x141 PUSH2 0x51F JUMP JUMPDEST PUSH9 0x410D586A20A4C0000 DUP2 MSTORE PUSH9 0x1043561A8829300000 PUSH1 0x20 DUP3 ADD MSTORE PUSH9 0x410D586A20A4C00000 PUSH1 0x40 DUP3 ADD MSTORE PUSH10 0x1043561A88293000000 PUSH1 0x60 DUP3 ADD MSTORE PUSH10 0x410D586A20A4C000000 PUSH1 0x80 DUP3 ADD MSTORE PUSH10 0x1043561A882930000000 PUSH1 0xA0 DUP3 ADD MSTORE PUSH10 0x410D586A20A4C0000000 PUSH1 0xC0 DUP3 ADD MSTORE PUSH1 0x13 SLOAD PUSH1 0x7 PUSH1 0x13 SSTORE DUP1 PUSH1 0x7 LT PUSH2 0x43E JUMPI JUMPDEST POP PUSH1 0x13 PUSH0 MSTORE PUSH1 0x20 PUSH0 KECCAK256 SWAP1 PUSH0 JUMPDEST PUSH1 0x7 DUP2 LT PUSH2 0x421 JUMPI PUSH2 0x1D8 PUSH2 0x53E JUMP JUMPDEST PUSH9 0x56BC75E2D63100000 DUP2 MSTORE PUSH9 0xAD78EBC5AC6200000 PUSH1 0x20 DUP3 ADD MSTORE PUSH9 0x15AF1D78B58C400000 PUSH1 0x40 DUP3 ADD MSTORE PUSH9 0x2B5E3AF16B18800000 PUSH1 0x60 DUP3 ADD MSTORE PUSH9 0x56BC75E2D631000000 PUSH1 0x80 DUP3 ADD MSTORE PUSH9 0xAD78EBC5AC62000000 PUSH1 0xA0 DUP3 ADD MSTORE PUSH10 0x15AF1D78B58C4000000 PUSH1 0xC0 DUP3 ADD MSTORE PUSH10 0x2B5E3AF16B188000000 PUSH1 0xE0 DUP3 ADD MSTORE PUSH1 0x14 SLOAD PUSH1 0x8 PUSH1 0x14 SSTORE DUP1 PUSH1 0x8 LT PUSH2 0x3CB JUMPI JUMPDEST POP PUSH1 0x14 PUSH0 MSTORE PUSH1 0x20 PUSH0 KECCAK256 SWAP1 PUSH0 JUMPDEST PUSH1 0x8 DUP2 LT PUSH2 0x3AE JUMPI PUSH2 0x27C PUSH2 0x51F JUMP JUMPDEST PUSH1 0x3 DUP2 MSTORE PUSH1 0x5 PUSH1 0x20 DUP3 ADD MSTORE PUSH1 0x7 PUSH1 0x40 DUP3 ADD MSTORE PUSH1 0x9 PUSH1 0x60 DUP3 ADD MSTORE PUSH1 0xB PUSH1 0x80 DUP3 ADD MSTORE PUSH1 0xD PUSH1 0xA0 DUP3 ADD MSTORE PUSH1 0xF PUSH1 0xC0 DUP3 ADD MSTORE PUSH0 JUMPDEST PUSH1 0x7 DUP2 LT PUSH2 0x396 JUMPI PUSH2 0x2BC PUSH2 0x53E JUMP JUMPDEST PUSH1 0x4 DUP2 MSTORE PUSH1 0x5 PUSH1 0x20 DUP3 ADD MSTORE PUSH1 0x6 PUSH1 0x40 DUP3 ADD MSTORE PUSH1 0x7 PUSH1 0x60 DUP3 ADD MSTORE PUSH1 0x8 PUSH1 0x80 DUP3 ADD MSTORE PUSH1 0x9 PUSH1 0xA0 DUP3 ADD MSTORE PUSH1 0xA PUSH1 0xC0 DUP3 ADD MSTORE PUSH1 0xB PUSH1 0xE0 DUP3 ADD MSTORE PUSH0 JUMPDEST PUSH1 0x8 DUP2 LT PUSH2 0x37E JUMPI PUSH2 0x303 PUSH2 0x53E JUMP JUMPDEST PUSH0 DUP2 MSTORE PUSH1 0x1 PUSH1 0x20 DUP3 ADD MSTORE PUSH1 0x1 PUSH1 0x40 DUP3 ADD MSTORE PUSH1 0x1 PUSH1 0x60 DUP3 ADD MSTORE PUSH1 0x1 PUSH1 0x80 DUP3 ADD MSTORE PUSH1 0x1 PUSH1 0xA0 DUP3 ADD MSTORE PUSH1 0x1 PUSH1 0xC0 DUP3 ADD MSTORE PUSH1 0x1 PUSH1 0xE0 DUP3 ADD MSTORE PUSH0 JUMPDEST PUSH1 0x8 DUP2 LT PUSH2 0x366 JUMPI PUSH1 0x1 PUSH1 0x36 SSTORE PUSH1 0x1 PUSH1 0x37 SSTORE PUSH0 PUSH1 0x38 SSTORE PUSH0 PUSH1 0x39 SSTORE PUSH0 PUSH1 0x3A SSTORE PUSH1 0x40 MLOAD PUSH2 0x1B7D SWAP1 DUP2 PUSH2 0x575 DUP3 CODECOPY RETURN JUMPDEST PUSH1 0x1 SWAP1 PUSH1 0x20 PUSH1 0xFF DUP5 MLOAD AND SWAP4 ADD SWAP3 DUP2 PUSH1 0x24 ADD SSTORE ADD PUSH2 0x339 JUMP JUMPDEST PUSH1 0x1 SWAP1 PUSH1 0x20 PUSH1 0xFF DUP5 MLOAD AND SWAP4 ADD SWAP3 DUP2 PUSH1 0x1C ADD SSTORE ADD PUSH2 0x2F3 JUMP JUMPDEST PUSH1 0x1 SWAP1 PUSH1 0x20 PUSH1 0xFF DUP5 MLOAD AND SWAP4 ADD SWAP3 DUP2 PUSH1 0x15 ADD SSTORE ADD PUSH2 0x2AC JUMP JUMPDEST DUP2 MLOAD PUSH1 0x1 PUSH1 0x1 PUSH1 0x50 SHL SUB AND DUP2 DUP5 ADD SSTORE PUSH1 0x20 SWAP1 SWAP2 ADD SWAP1 PUSH1 0x1 ADD PUSH2 0x26C JUMP JUMPDEST PUSH1 0x14 PUSH0 MSTORE PUSH2 0x41B SWAP1 PUSH32 0xCE6D7B5282BD9A3661AE061FEED1DBDA4E52AB073B1F9285BE6E155D9C38D4EC ADD PUSH32 0xCE6D7B5282BD9A3661AE061FEED1DBDA4E52AB073B1F9285BE6E155D9C38D4F4 PUSH2 0x55E JUMP JUMPDEST DUP2 PUSH2 0x260 JUMP JUMPDEST DUP2 MLOAD PUSH1 0x1 PUSH1 0x1 PUSH1 0x50 SHL SUB AND DUP2 DUP5 ADD SSTORE PUSH1 0x20 SWAP1 SWAP2 ADD SWAP1 PUSH1 0x1 ADD PUSH2 0x1C8 JUMP JUMPDEST PUSH1 0x13 PUSH0 MSTORE PUSH2 0x48E SWAP1 PUSH32 0x66DE8FFDA797E3DE9C05E8FC57B3BF0EC28A930D40B0D285D93C06501CF6A090 ADD PUSH32 0x66DE8FFDA797E3DE9C05E8FC57B3BF0EC28A930D40B0D285D93C06501CF6A097 PUSH2 0x55E JUMP JUMPDEST DUP2 PUSH2 0x1BC JUMP JUMPDEST DUP2 MLOAD PUSH1 0x1 PUSH1 0x1 PUSH1 0x50 SHL SUB AND DUP2 DUP5 ADD SSTORE PUSH1 0x20 SWAP1 SWAP2 ADD SWAP1 PUSH1 0x1 ADD PUSH2 0x131 JUMP JUMPDEST PUSH1 0xB PUSH0 MSTORE PUSH2 0x501 SWAP1 PUSH32 0x175B7A638427703F0DBE7BB9BBF987A2551717B34E79F33B5B1008D1FA01DB9 ADD PUSH32 0x175B7A638427703F0DBE7BB9BBF987A2551717B34E79F33B5B1008D1FA01DC8 PUSH2 0x55E JUMP JUMPDEST PUSH0 PUSH2 0x125 JUMP JUMPDEST PUSH4 0x4E487B71 PUSH1 0xE0 SHL PUSH0 MSTORE PUSH1 0x41 PUSH1 0x4 MSTORE PUSH1 0x24 PUSH0 REVERT JUMPDEST PUSH0 DUP1 REVERT JUMPDEST PUSH1 0x40 MLOAD SWAP1 PUSH1 0xE0 DUP3 ADD PUSH1 0x1 PUSH1 0x1 PUSH1 0x40 SHL SUB DUP2 GT DUP4 DUP3 LT OR PUSH2 0x507 JUMPI PUSH1 0x40 MSTORE JUMP JUMPDEST PUSH1 0x40 MLOAD SWAP1 PUSH2 0x100 DUP3 ADD PUSH1 0x1 PUSH1 0x1 PUSH1 0x40 SHL SUB DUP2 GT DUP4 DUP3 LT OR PUSH2 0x507 JUMPI PUSH1 0x40 MSTORE JUMP JUMPDEST DUP2 DUP2 LT PUSH2 0x569 JUMPI POP POP JUMP JUMPDEST PUSH0 DUP2 SSTORE PUSH1 0x1 ADD PUSH2 0x55E JUMP INVALID PUSH1 0x80 DUP1 PUSH1 0x40 MSTORE PUSH1 0x4 CALLDATASIZE LT ISZERO PUSH2 0x12 JUMPI PUSH0 DUP1 REVERT JUMPDEST PUSH0 CALLDATALOAD PUSH1 0xE0 SHR SWAP1 DUP2 PUSH4 0x1C234A8 EQ PUSH2 0xD78 JUMPI POP DUP1 PUSH4 0x2132D204 EQ PUSH2 0xD4C JUMPI DUP1 PUSH4 0x2350268F EQ PUSH2 0xCF2 JUMPI DUP1 PUSH4 0x24513088 EQ PUSH2 0xCC8 JUMPI DUP1 PUSH4 0x2A891534 EQ PUSH2 0xCAB JUMPI DUP1 PUSH4 0x2F48AB7D EQ PUSH2 0xC83 JUMPI DUP1 PUSH4 0x3080B5BC EQ PUSH2 0xC66 JUMPI DUP1 PUSH4 0x32BC298C EQ PUSH2 0xC49 JUMPI DUP1 PUSH4 0x32FCD966 EQ PUSH2 0xC27 JUMPI DUP1 PUSH4 0x375B43B4 EQ PUSH2 0xC0C JUMPI DUP1 PUSH4 0x39AB3603 EQ PUSH2 0xBB2 JUMPI DUP1 PUSH4 0x45977D03 EQ PUSH2 0x99B JUMPI DUP1 PUSH4 0x58C7D352 EQ PUSH2 0x980 JUMPI DUP1 PUSH4 0x76F5F700 EQ PUSH2 0x963 JUMPI DUP1 PUSH4 0x78F6AD6D EQ PUSH2 0x946 JUMPI DUP1 PUSH4 0x7CDC65F2 EQ PUSH2 0x91E JUMPI DUP1 PUSH4 0x956A3228 EQ PUSH2 0x8F2 JUMPI DUP1 PUSH4 0xAE4708DC EQ PUSH2 0x884 JUMPI DUP1 PUSH4 0xBFF1F9E1 EQ PUSH2 0x867 JUMPI DUP1 PUSH4 0xC216212A EQ PUSH2 0x82F JUMPI DUP1 PUSH4 0xC8DF2908 EQ PUSH2 0x80B JUMPI DUP1 PUSH4 0xC9ED0708 EQ PUSH2 0x7EE JUMPI DUP1 PUSH4 0xCA8E9121 EQ PUSH2 0x7D1 JUMPI DUP1 PUSH4 0xD0A2FD79 EQ PUSH2 0x7A5 JUMPI DUP1 PUSH4 0xD54D6DDB EQ PUSH2 0x787 JUMPI DUP1 PUSH4 0xE898FC38 EQ PUSH2 0x76A JUMPI DUP1 PUSH4 0xE9E34A16 EQ PUSH2 0x742 JUMPI DUP1 PUSH4 0xEBE0FF15 EQ PUSH2 0x71F JUMPI DUP1 PUSH4 0xEC597E6F EQ PUSH2 0x702 JUMPI DUP1 PUSH4 0xF207564E EQ PUSH2 0x1C5 JUMPI DUP1 PUSH4 0xF5D74D93 EQ PUSH2 0x19D JUMPI PUSH4 0xFDDC806F EQ PUSH2 0x17C JUMPI PUSH0 DUP1 REVERT JUMPDEST CALLVALUE PUSH2 0x199 JUMPI PUSH0 CALLDATASIZE PUSH1 0x3 NOT ADD SLT PUSH2 0x199 JUMPI PUSH1 0x20 PUSH1 0x38 SLOAD PUSH1 0x40 MLOAD SWAP1 DUP2 MSTORE RETURN JUMPDEST PUSH0 DUP1 REVERT JUMPDEST CALLVALUE PUSH2 0x199 JUMPI PUSH0 CALLDATASIZE PUSH1 0x3 NOT ADD SLT PUSH2 0x199 JUMPI PUSH1 0x4 SLOAD PUSH1 0x40 MLOAD PUSH1 0x1 PUSH1 0x1 PUSH1 0xA0 SHL SUB SWAP1 SWAP2 AND DUP2 MSTORE PUSH1 0x20 SWAP1 RETURN JUMPDEST CALLVALUE PUSH2 0x199 JUMPI PUSH1 0x20 CALLDATASIZE PUSH1 0x3 NOT ADD SLT PUSH2 0x199 JUMPI PUSH1 0x4 CALLDATALOAD CALLER PUSH0 MSTORE PUSH1 0xC PUSH1 0x20 MSTORE PUSH1 0x40 PUSH0 KECCAK256 SLOAD PUSH2 0x6C8 JUMPI DUP1 PUSH0 MSTORE PUSH1 0xD PUSH1 0x20 MSTORE PUSH1 0x3 PUSH1 0x40 PUSH0 KECCAK256 ADD SLOAD ISZERO PUSH2 0x691 JUMPI PUSH1 0x1 SLOAD PUSH0 SWAP1 PUSH1 0x20 SWAP1 PUSH2 0x252 SWAP1 PUSH1 0x1 PUSH1 0x1 PUSH1 0xA0 SHL SUB AND PUSH2 0x21C PUSH2 0xDAA JUMP JUMPDEST SWAP1 SLOAD PUSH1 0x40 MLOAD PUSH4 0x23B872DD PUSH1 0xE0 SHL DUP2 MSTORE CALLER PUSH1 0x4 DUP3 ADD MSTORE ADDRESS PUSH1 0x24 DUP3 ADD MSTORE PUSH1 0x3 SWAP3 SWAP1 SWAP3 SHL SHR PUSH1 0x44 DUP3 ADD MSTORE SWAP4 DUP5 SWAP3 DUP4 SWAP2 SWAP1 DUP3 SWAP1 PUSH1 0x64 DUP3 ADD SWAP1 JUMP JUMPDEST SUB SWAP3 GAS CALL DUP1 ISZERO PUSH2 0x686 JUMPI PUSH2 0x659 JUMPI JUMPDEST POP PUSH1 0x5 SLOAD SWAP1 PUSH2 0x273 PUSH1 0x6 SLOAD DUP1 SWAP4 PUSH2 0xF2E JUMP JUMPDEST SWAP2 PUSH1 0x1 DUP2 ADD DUP1 SWAP2 GT PUSH2 0x4A5 JUMPI PUSH1 0x6 SSTORE CALLER PUSH0 MSTORE PUSH1 0xC PUSH1 0x20 MSTORE DUP2 PUSH1 0x40 PUSH0 KECCAK256 SSTORE DUP2 PUSH0 MSTORE PUSH1 0xD PUSH1 0x20 MSTORE PUSH1 0x40 PUSH0 KECCAK256 SWAP1 CALLER PUSH12 0xFFFFFFFFFFFFFFFFFFFFFFFF PUSH1 0xA0 SHL DUP4 SLOAD AND OR DUP3 SSTORE TIMESTAMP PUSH1 0x2 DUP4 ADD SSTORE DUP3 PUSH1 0x3 DUP4 ADD SSTORE PUSH1 0x4 DUP3 ADD DUP2 DUP2 SSTORE PUSH1 0x1 PUSH1 0x6 DUP5 ADD SSTORE PUSH2 0x2D6 PUSH2 0xDAA JUMP JUMPDEST SWAP1 SLOAD SWAP1 PUSH1 0x3 SHL SHR PUSH1 0xA DUP5 ADD SSTORE TIMESTAMP PUSH1 0xF DUP5 ADD SSTORE DUP2 PUSH0 MSTORE PUSH1 0xD PUSH1 0x20 MSTORE PUSH1 0x7 PUSH1 0x40 PUSH0 KECCAK256 ADD DUP1 SLOAD SWAP1 PUSH1 0x1 DUP3 ADD DUP1 SWAP3 GT PUSH2 0x4A5 JUMPI SSTORE DUP2 PUSH0 MSTORE PUSH1 0x12 PUSH1 0x20 MSTORE PUSH2 0x31B DUP5 PUSH1 0x40 PUSH0 KECCAK256 PUSH2 0x120C JUMP JUMPDEST PUSH1 0x7 SLOAD PUSH1 0x1 PUSH1 0x40 SHL DUP2 LT ISZERO PUSH2 0x645 JUMPI DUP1 PUSH1 0x1 PUSH2 0x33C SWAP3 ADD PUSH1 0x7 SSTORE PUSH1 0x7 PUSH2 0xDDC JUMP JUMPDEST DUP2 SLOAD SWAP1 PUSH1 0x3 SHL SWAP1 DUP7 DUP3 SHL SWAP2 PUSH0 NOT SWAP1 SHL NOT AND OR SWAP1 SSTORE PUSH1 0x9 SLOAD DUP5 PUSH0 MSTORE PUSH1 0xA PUSH1 0x20 MSTORE PUSH1 0x40 PUSH0 KECCAK256 SSTORE PUSH0 PUSH0 SWAP1 DUP4 PUSH0 MSTORE PUSH1 0x11 PUSH1 0x20 MSTORE PUSH1 0x2 PUSH1 0x40 PUSH0 KECCAK256 SLOAD LT PUSH0 EQ PUSH2 0x51A JUMPI POP POP DUP4 PUSH0 MSTORE PUSH1 0xD PUSH1 0x20 MSTORE DUP2 PUSH1 0x5 PUSH1 0x40 PUSH0 KECCAK256 ADD SSTORE DUP2 PUSH0 MSTORE PUSH1 0x11 PUSH1 0x20 MSTORE PUSH1 0x40 PUSH0 KECCAK256 DUP1 SLOAD SWAP1 PUSH1 0x1 DUP3 ADD DUP1 SWAP3 GT PUSH2 0x4A5 JUMPI SSTORE DUP2 JUMPDEST PUSH0 SWAP1 JUMPDEST PUSH1 0xF DUP3 LT PUSH2 0x4B9 JUMPI JUMPDEST POP POP PUSH2 0x3F3 PUSH2 0x3C2 PUSH2 0xDAA JUMP JUMPDEST SWAP1 SLOAD PUSH1 0x40 MLOAD SWAP2 PUSH1 0x3 SHL SHR PUSH2 0x3D5 DUP3 PUSH2 0xEBC JUMP JUMPDEST DUP2 MSTORE PUSH0 PUSH1 0x20 DUP3 ADD MSTORE TIMESTAMP PUSH1 0x40 DUP3 ADD MSTORE PUSH1 0x1 PUSH1 0x60 DUP3 ADD MSTORE PUSH1 0x1 DUP6 ADD PUSH2 0xF3B JUMP JUMPDEST PUSH2 0x3FB PUSH2 0xDAA JUMP JUMPDEST SWAP1 SLOAD SWAP1 PUSH1 0x3 SHL SHR SWAP1 PUSH1 0x5 DUP3 MUL DUP3 ISZERO SWAP3 DUP1 DUP3 DIV PUSH1 0x5 EQ DUP5 OR ISZERO PUSH2 0x4A5 JUMPI PUSH1 0x3C DUP2 MUL SWAP4 DUP2 DUP6 DIV PUSH1 0x3C EQ DUP2 OR ISZERO PUSH2 0x4A5 JUMPI PUSH1 0x19 DUP3 MUL SWAP2 DUP3 DIV PUSH1 0x19 EQ OR ISZERO PUSH2 0x4A5 JUMPI PUSH2 0x45E SWAP4 PUSH2 0x456 PUSH1 0x64 DUP10 SWAP5 PUSH2 0x450 DUP3 DUP1 SWAP7 DIV PUSH2 0x12AC JUMP JUMPDEST DIV PUSH2 0x1313 JUMP JUMPDEST DIV SWAP2 SLOAD PUSH2 0x1432 JUMP JUMPDEST PUSH0 MSTORE PUSH1 0xD PUSH1 0x20 MSTORE PUSH1 0x5 PUSH1 0x1 DUP1 PUSH1 0xA0 SHL SUB PUSH1 0x40 PUSH0 KECCAK256 SLOAD AND SWAP2 ADD SLOAD PUSH1 0x40 MLOAD SWAP1 DUP2 MSTORE PUSH32 0x309BB360E8B69C23937CCC5FB01F9AEEEAD1C95A99604E175113FF82F2B1723A PUSH1 0x20 CALLER SWAP3 LOG4 STOP JUMPDEST PUSH4 0x4E487B71 PUSH1 0xE0 SHL PUSH0 MSTORE PUSH1 0x11 PUSH1 0x4 MSTORE PUSH1 0x24 PUSH0 REVERT JUMPDEST DUP1 ISZERO PUSH2 0x515 JUMPI DUP1 PUSH0 MSTORE PUSH1 0xD PUSH1 0x20 MSTORE PUSH1 0x9 PUSH1 0x40 PUSH0 KECCAK256 ADD DUP1 SLOAD SWAP1 PUSH1 0x1 DUP3 ADD DUP1 SWAP3 GT PUSH2 0x4A5 JUMPI SSTORE DUP1 PUSH0 MSTORE PUSH1 0x10 PUSH1 0x20 MSTORE PUSH1 0x40 PUSH0 KECCAK256 DUP3 PUSH0 MSTORE PUSH1 0x20 MSTORE PUSH2 0x4FC DUP7 PUSH1 0x40 PUSH0 KECCAK256 PUSH2 0x120C JUMP JUMPDEST PUSH0 MSTORE PUSH1 0xD PUSH1 0x20 MSTORE PUSH1 0x1 PUSH1 0x5 PUSH1 0x40 PUSH0 KECCAK256 ADD SLOAD SWAP2 ADD SWAP1 PUSH2 0x3AC JUMP JUMPDEST PUSH2 0x3B5 JUMP JUMPDEST PUSH0 JUMPDEST PUSH1 0xF DUP2 LT PUSH2 0x52C JUMPI JUMPDEST POP POP PUSH2 0x3A9 JUMP JUMPDEST DUP2 PUSH2 0x640 JUMPI DUP5 PUSH0 MSTORE PUSH1 0x10 PUSH1 0x20 MSTORE PUSH1 0x40 PUSH0 KECCAK256 PUSH1 0x1 DUP3 ADD DUP1 DUP4 GT PUSH2 0x4A5 JUMPI PUSH0 MSTORE PUSH1 0x20 MSTORE PUSH1 0x40 PUSH0 KECCAK256 SLOAD PUSH1 0x2 DUP3 ADD DUP1 DUP4 GT PUSH2 0x4A5 JUMPI PUSH1 0xFF DUP2 GT PUSH2 0x4A5 JUMPI PUSH1 0x1 SWAP1 SHL GT PUSH2 0x577 JUMPI JUMPDEST PUSH1 0x1 ADD PUSH2 0x51C JUMP JUMPDEST SWAP4 SWAP3 PUSH0 SWAP6 SWAP2 SWAP6 JUMPDEST DUP5 PUSH0 MSTORE PUSH1 0x10 PUSH1 0x20 MSTORE PUSH1 0x40 PUSH0 KECCAK256 DUP7 PUSH0 MSTORE PUSH1 0x20 MSTORE PUSH1 0x40 PUSH0 KECCAK256 SLOAD DUP2 LT ISZERO PUSH2 0x632 JUMPI DUP7 PUSH2 0x621 JUMPI DUP5 PUSH0 MSTORE PUSH1 0x10 PUSH1 0x20 MSTORE PUSH1 0x40 PUSH0 KECCAK256 DUP7 PUSH0 MSTORE PUSH1 0x20 MSTORE PUSH2 0x5C0 DUP2 PUSH1 0x40 PUSH0 KECCAK256 PUSH2 0xDDC JUMP JUMPDEST SWAP1 SLOAD SWAP1 PUSH1 0x3 SHL SHR DUP1 PUSH0 MSTORE PUSH1 0x11 PUSH1 0x20 MSTORE PUSH1 0x2 PUSH1 0x40 PUSH0 KECCAK256 SLOAD LT PUSH2 0x5E5 JUMPI JUMPDEST POP PUSH1 0x1 ADD PUSH2 0x57E JUMP JUMPDEST SWAP2 SWAP4 POP SWAP6 POP DUP7 PUSH0 MSTORE PUSH1 0xD PUSH1 0x20 MSTORE DUP1 PUSH1 0x5 PUSH1 0x40 PUSH0 KECCAK256 ADD SSTORE DUP1 PUSH0 MSTORE PUSH1 0x11 PUSH1 0x20 MSTORE PUSH1 0x40 PUSH0 KECCAK256 DUP1 SLOAD SWAP1 PUSH1 0x1 DUP3 ADD DUP1 SWAP3 GT PUSH2 0x4A5 JUMPI SSTORE SWAP2 PUSH1 0x1 DUP1 SWAP7 SWAP1 PUSH2 0x5DC JUMP JUMPDEST POP SWAP3 SWAP4 PUSH1 0x1 SWAP1 SWAP6 SWAP2 SWAP6 JUMPDEST SWAP1 POP PUSH2 0x56F JUMP JUMPDEST POP SWAP3 SWAP4 PUSH1 0x1 SWAP1 SWAP6 SWAP2 SWAP6 PUSH2 0x62B JUMP JUMPDEST PUSH2 0x525 JUMP JUMPDEST PUSH4 0x4E487B71 PUSH1 0xE0 SHL PUSH0 MSTORE PUSH1 0x41 PUSH1 0x4 MSTORE PUSH1 0x24 PUSH0 REVERT JUMPDEST PUSH2 0x67A SWAP1 PUSH1 0x20 RETURNDATASIZE PUSH1 0x20 GT PUSH2 0x67F JUMPI JUMPDEST PUSH2 0x672 DUP2 DUP4 PUSH2 0xEF4 JUMP JUMPDEST DUP2 ADD SWAP1 PUSH2 0xF16 JUMP JUMPDEST PUSH2 0x261 JUMP JUMPDEST POP RETURNDATASIZE PUSH2 0x668 JUMP JUMPDEST PUSH1 0x40 MLOAD RETURNDATASIZE PUSH0 DUP3 RETURNDATACOPY RETURNDATASIZE SWAP1 REVERT JUMPDEST PUSH1 0x40 MLOAD PUSH3 0x461BCD PUSH1 0xE5 SHL DUP2 MSTORE PUSH1 0x20 PUSH1 0x4 DUP3 ADD MSTORE PUSH1 0xF PUSH1 0x24 DUP3 ADD MSTORE PUSH15 0x24B73B30B634B21039B837B739B7B9 PUSH1 0x89 SHL PUSH1 0x44 DUP3 ADD MSTORE PUSH1 0x64 SWAP1 REVERT JUMPDEST PUSH1 0x40 MLOAD PUSH3 0x461BCD PUSH1 0xE5 SHL DUP2 MSTORE PUSH1 0x20 PUSH1 0x4 DUP3 ADD MSTORE PUSH1 0x12 PUSH1 0x24 DUP3 ADD MSTORE PUSH18 0x105B1C9958591E481C9959DA5CDD195C9959 PUSH1 0x72 SHL PUSH1 0x44 DUP3 ADD MSTORE PUSH1 0x64 SWAP1 REVERT JUMPDEST CALLVALUE PUSH2 0x199 JUMPI PUSH0 CALLDATASIZE PUSH1 0x3 NOT ADD SLT PUSH2 0x199 JUMPI PUSH1 0x20 PUSH1 0x5 SLOAD PUSH1 0x40 MLOAD SWAP1 DUP2 MSTORE RETURN JUMPDEST CALLVALUE PUSH2 0x199 JUMPI PUSH0 CALLDATASIZE PUSH1 0x3 NOT ADD SLT PUSH2 0x199 JUMPI PUSH1 0x20 PUSH1 0x40 MLOAD PUSH9 0x3635C9ADC5DEA00000 DUP2 MSTORE RETURN JUMPDEST CALLVALUE PUSH2 0x199 JUMPI PUSH0 CALLDATASIZE PUSH1 0x3 NOT ADD SLT PUSH2 0x199 JUMPI PUSH1 0x3 SLOAD PUSH1 0x40 MLOAD PUSH1 0x1 PUSH1 0x1 PUSH1 0xA0 SHL SUB SWAP1 SWAP2 AND DUP2 MSTORE PUSH1 0x20 SWAP1 RETURN JUMPDEST CALLVALUE PUSH2 0x199 JUMPI PUSH0 CALLDATASIZE PUSH1 0x3 NOT ADD SLT PUSH2 0x199 JUMPI PUSH1 0x20 PUSH1 0x39 SLOAD PUSH1 0x40 MLOAD SWAP1 DUP2 MSTORE RETURN JUMPDEST CALLVALUE PUSH2 0x199 JUMPI PUSH1 0x20 CALLDATASIZE PUSH1 0x3 NOT ADD SLT PUSH2 0x199 JUMPI PUSH2 0x7A3 PUSH1 0x4 CALLDATALOAD PUSH2 0xFFD JUMP JUMPDEST STOP JUMPDEST CALLVALUE PUSH2 0x199 JUMPI PUSH1 0x20 CALLDATASIZE PUSH1 0x3 NOT ADD SLT PUSH2 0x199 JUMPI PUSH1 0x4 CALLDATALOAD PUSH1 0x8 DUP2 LT ISZERO PUSH2 0x199 JUMPI PUSH1 0x20 SWAP1 PUSH1 0x1C ADD SLOAD PUSH1 0x40 MLOAD SWAP1 DUP2 MSTORE RETURN JUMPDEST CALLVALUE PUSH2 0x199 JUMPI PUSH0 CALLDATASIZE PUSH1 0x3 NOT ADD SLT PUSH2 0x199 JUMPI PUSH1 0x20 PUSH1 0x36 SLOAD PUSH1 0x40 MLOAD SWAP1 DUP2 MSTORE RETURN JUMPDEST CALLVALUE PUSH2 0x199 JUMPI PUSH0 CALLDATASIZE PUSH1 0x3 NOT ADD SLT PUSH2 0x199 JUMPI PUSH1 0x20 PUSH1 0x37 SLOAD PUSH1 0x40 MLOAD SWAP1 DUP2 MSTORE RETURN JUMPDEST CALLVALUE PUSH2 0x199 JUMPI PUSH0 CALLDATASIZE PUSH1 0x3 NOT ADD SLT PUSH2 0x199 JUMPI PUSH1 0x20 PUSH1 0x40 MLOAD PUSH10 0x21E19E0C9BAB2400000 DUP2 MSTORE RETURN JUMPDEST CALLVALUE PUSH2 0x199 JUMPI PUSH1 0x20 CALLDATASIZE PUSH1 0x3 NOT ADD SLT PUSH2 0x199 JUMPI PUSH1 0x4 CALLDATALOAD PUSH1 0xB SLOAD DUP2 LT ISZERO PUSH2 0x199 JUMPI PUSH2 0x858 PUSH1 0x20 SWAP2 PUSH2 0xD92 JUMP JUMPDEST SWAP1 SLOAD SWAP1 PUSH1 0x3 SHL SHR PUSH1 0x40 MLOAD SWAP1 DUP2 MSTORE RETURN JUMPDEST CALLVALUE PUSH2 0x199 JUMPI PUSH0 CALLDATASIZE PUSH1 0x3 NOT ADD SLT PUSH2 0x199 JUMPI PUSH1 0x20 PUSH1 0x6 SLOAD PUSH1 0x40 MLOAD SWAP1 DUP2 MSTORE RETURN JUMPDEST CALLVALUE PUSH2 0x199 JUMPI PUSH1 0x20 CALLDATASIZE PUSH1 0x3 NOT ADD SLT PUSH2 0x199 JUMPI PUSH1 0x4 CALLDATALOAD PUSH1 0x13 SLOAD DUP2 LT ISZERO PUSH2 0x199 JUMPI PUSH1 0x13 SLOAD DUP2 LT ISZERO PUSH2 0x8DE JUMPI PUSH1 0x13 PUSH0 MSTORE PUSH32 0x66DE8FFDA797E3DE9C05E8FC57B3BF0EC28A930D40B0D285D93C06501CF6A090 ADD SLOAD PUSH1 0x40 MLOAD SWAP1 DUP2 MSTORE PUSH1 0x20 SWAP1 RETURN JUMPDEST PUSH4 0x4E487B71 PUSH1 0xE0 SHL PUSH0 MSTORE PUSH1 0x32 PUSH1 0x4 MSTORE PUSH1 0x24 PUSH0 REVERT JUMPDEST CALLVALUE PUSH2 0x199 JUMPI PUSH1 0x20 CALLDATASIZE PUSH1 0x3 NOT ADD SLT PUSH2 0x199 JUMPI PUSH1 0x4 CALLDATALOAD PUSH1 0x8 DUP2 LT ISZERO PUSH2 0x199 JUMPI PUSH1 0x20 SWAP1 PUSH1 0x24 ADD SLOAD PUSH1 0x40 MLOAD SWAP1 DUP2 MSTORE RETURN JUMPDEST CALLVALUE PUSH2 0x199 JUMPI PUSH0 CALLDATASIZE PUSH1 0x3 NOT ADD SLT PUSH2 0x199 JUMPI PUSH1 0x2 SLOAD PUSH1 0x40 MLOAD PUSH1 0x1 PUSH1 0x1 PUSH1 0xA0 SHL SUB SWAP1 SWAP2 AND DUP2 MSTORE PUSH1 0x20 SWAP1 RETURN JUMPDEST CALLVALUE PUSH2 0x199 JUMPI PUSH0 CALLDATASIZE PUSH1 0x3 NOT ADD SLT PUSH2 0x199 JUMPI PUSH1 0x20 PUSH1 0x9 SLOAD PUSH1 0x40 MLOAD SWAP1 DUP2 MSTORE RETURN JUMPDEST CALLVALUE PUSH2 0x199 JUMPI PUSH0 CALLDATASIZE PUSH1 0x3 NOT ADD SLT PUSH2 0x199 JUMPI PUSH1 0x20 PUSH1 0x40 MLOAD PUSH3 0x93A80 DUP2 MSTORE RETURN JUMPDEST CALLVALUE PUSH2 0x199 JUMPI PUSH0 CALLDATASIZE PUSH1 0x3 NOT ADD SLT PUSH2 0x199 JUMPI PUSH1 0x20 PUSH1 0x40 MLOAD PUSH1 0xA DUP2 MSTORE RETURN JUMPDEST CALLVALUE PUSH2 0x199 JUMPI PUSH1 0x20 CALLDATASIZE PUSH1 0x3 NOT ADD SLT PUSH2 0x199 JUMPI PUSH1 0x4 CALLDATALOAD DUP1 PUSH0 MSTORE PUSH1 0xD PUSH1 0x20 MSTORE PUSH1 0x40 PUSH0 KECCAK256 PUSH2 0x9CF PUSH1 0x1 DUP1 PUSH1 0xA0 SHL SUB DUP3 SLOAD AND CALLER EQ PUSH2 0xE7D JUMP JUMPDEST PUSH1 0x6 DUP2 ADD SWAP1 DUP2 SLOAD SWAP2 PUSH1 0xF DUP4 LT ISZERO PUSH2 0xB76 JUMPI PUSH2 0x9E9 DUP4 PUSH2 0xD92 JUMP JUMPDEST SWAP1 SLOAD PUSH1 0x1 SLOAD PUSH1 0x40 MLOAD PUSH4 0x23B872DD PUSH1 0xE0 SHL DUP2 MSTORE CALLER PUSH1 0x4 DUP3 ADD MSTORE ADDRESS PUSH1 0x24 DUP3 ADD MSTORE PUSH1 0x3 SWAP4 SWAP1 SWAP4 SHL SWAP2 SWAP1 SWAP2 SHR PUSH1 0x44 DUP4 ADD DUP2 SWAP1 MSTORE SWAP3 SWAP2 SWAP1 PUSH1 0x20 SWAP1 DUP3 SWAP1 PUSH1 0x64 SWAP1 DUP3 SWAP1 PUSH0 SWAP1 PUSH1 0x1 PUSH1 0x1 PUSH1 0xA0 SHL SUB AND GAS CALL DUP1 ISZERO PUSH2 0x686 JUMPI PUSH2 0xB59 JUMPI JUMPDEST POP DUP1 SLOAD SWAP1 PUSH1 0x1 DUP3 ADD DUP1 SWAP3 GT PUSH2 0x4A5 JUMPI SSTORE PUSH1 0xA DUP3 ADD PUSH2 0xA5C DUP3 DUP3 SLOAD PUSH2 0xF2E JUMP JUMPDEST SWAP1 SSTORE PUSH2 0xA8C PUSH1 0x40 MLOAD PUSH2 0xA6D DUP2 PUSH2 0xEBC JUMP JUMPDEST DUP3 DUP2 MSTORE PUSH0 PUSH1 0x20 DUP3 ADD MSTORE TIMESTAMP PUSH1 0x40 DUP3 ADD MSTORE PUSH1 0x1 PUSH1 0x60 DUP3 ADD MSTORE PUSH1 0x1 DUP5 ADD PUSH2 0xF3B JUMP JUMPDEST PUSH1 0x5 DUP2 MUL DUP2 ISZERO SWAP1 DUP3 DUP2 DIV PUSH1 0x5 EQ DUP3 OR ISZERO PUSH2 0x4A5 JUMPI PUSH1 0x19 DUP4 MUL DUP4 DUP2 DIV PUSH1 0x19 EQ DUP4 OR ISZERO PUSH2 0x4A5 JUMPI PUSH2 0xAC2 SWAP2 PUSH2 0x450 PUSH1 0x64 DUP1 SWAP4 DIV PUSH2 0x12AC JUMP JUMPDEST PUSH1 0x14 DUP3 MUL SWAP2 DUP3 DIV PUSH1 0x14 EQ OR ISZERO PUSH2 0x4A5 JUMPI PUSH1 0x64 SWAP1 DIV SWAP2 PUSH1 0x4 DUP3 ADD SLOAD PUSH1 0x1 DUP3 ADD SWAP4 DUP5 DUP4 GT PUSH2 0x4A5 JUMPI DUP6 PUSH1 0x5 PUSH2 0xB10 SWAP6 PUSH2 0xAFC DUP9 DUP6 DUP6 DUP3 SWAP9 PUSH2 0x1571 JUMP JUMPDEST ADD PUSH2 0xB0A DUP5 DUP5 DUP5 DUP5 SLOAD PUSH2 0x16CE JUMP JUMPDEST SLOAD PUSH2 0x18B8 JUMP JUMPDEST PUSH1 0x40 MLOAD SWAP1 DUP2 MSTORE PUSH1 0x40 PUSH1 0x20 DUP3 ADD MSTORE PUSH1 0x4 PUSH1 0x40 DUP3 ADD MSTORE PUSH4 0x14DB1BDD PUSH1 0xE2 SHL PUSH1 0x60 DUP3 ADD MSTORE PUSH32 0xBABB6A363FD9A057996D09882C0B74B710D121707D19EEFFD91C51C3171A7C91 PUSH1 0x80 CALLER SWAP3 LOG3 STOP JUMPDEST PUSH2 0xB71 SWAP1 PUSH1 0x20 RETURNDATASIZE PUSH1 0x20 GT PUSH2 0x67F JUMPI PUSH2 0x672 DUP2 DUP4 PUSH2 0xEF4 JUMP JUMPDEST PUSH2 0xA3D JUMP JUMPDEST PUSH1 0x40 MLOAD PUSH3 0x461BCD PUSH1 0xE5 SHL DUP2 MSTORE PUSH1 0x20 PUSH1 0x4 DUP3 ADD MSTORE PUSH1 0x14 PUSH1 0x24 DUP3 ADD MSTORE PUSH20 0x105B1C9958591E48185D081B585E081B195D995B PUSH1 0x62 SHL PUSH1 0x44 DUP3 ADD MSTORE PUSH1 0x64 SWAP1 REVERT JUMPDEST CALLVALUE PUSH2 0x199 JUMPI PUSH1 0x20 CALLDATASIZE PUSH1 0x3 NOT ADD SLT PUSH2 0x199 JUMPI PUSH1 0x4 CALLDATALOAD PUSH1 0x7 SLOAD DUP2 LT ISZERO PUSH2 0x199 JUMPI PUSH1 0x7 SLOAD DUP2 LT ISZERO PUSH2 0x8DE JUMPI PUSH1 0x7 PUSH0 MSTORE PUSH32 0xA66CC928B5EDB82AF9BD49922954155AB7B0942694BEA4CE44661D9A8736C688 ADD SLOAD PUSH1 0x40 MLOAD SWAP1 DUP2 MSTORE PUSH1 0x20 SWAP1 RETURN JUMPDEST CALLVALUE PUSH2 0x199 JUMPI PUSH0 CALLDATASIZE PUSH1 0x3 NOT ADD SLT PUSH2 0x199 JUMPI PUSH1 0x20 PUSH1 0x40 MLOAD PUSH1 0xF DUP2 MSTORE RETURN JUMPDEST CALLVALUE PUSH2 0x199 JUMPI PUSH0 CALLDATASIZE PUSH1 0x3 NOT ADD SLT PUSH2 0x199 JUMPI PUSH1 0x20 PUSH1 0x40 MLOAD PUSH8 0xDE0B6B3A7640000 DUP2 MSTORE RETURN JUMPDEST CALLVALUE PUSH2 0x199 JUMPI PUSH0 CALLDATASIZE PUSH1 0x3 NOT ADD SLT PUSH2 0x199 JUMPI PUSH1 0x20 PUSH1 0x40 MLOAD PUSH3 0x15180 DUP2 MSTORE RETURN JUMPDEST CALLVALUE PUSH2 0x199 JUMPI PUSH0 CALLDATASIZE PUSH1 0x3 NOT ADD SLT PUSH2 0x199 JUMPI PUSH1 0x20 PUSH1 0x3A SLOAD PUSH1 0x40 MLOAD SWAP1 DUP2 MSTORE RETURN JUMPDEST CALLVALUE PUSH2 0x199 JUMPI PUSH0 CALLDATASIZE PUSH1 0x3 NOT ADD SLT PUSH2 0x199 JUMPI PUSH1 0x1 SLOAD PUSH1 0x40 MLOAD PUSH1 0x1 PUSH1 0x1 PUSH1 0xA0 SHL SUB SWAP1 SWAP2 AND DUP2 MSTORE PUSH1 0x20 SWAP1 RETURN JUMPDEST CALLVALUE PUSH2 0x199 JUMPI PUSH0 CALLDATASIZE PUSH1 0x3 NOT ADD SLT PUSH2 0x199 JUMPI PUSH1 0x20 PUSH1 0x40 MLOAD PUSH3 0x278D00 DUP2 MSTORE RETURN JUMPDEST CALLVALUE PUSH2 0x199 JUMPI PUSH1 0x20 CALLDATASIZE PUSH1 0x3 NOT ADD SLT PUSH2 0x199 JUMPI PUSH1 0x40 PUSH2 0xCE6 PUSH1 0x4 CALLDATALOAD PUSH2 0xE1C JUMP JUMPDEST DUP3 MLOAD SWAP2 DUP3 MSTORE PUSH1 0x20 DUP3 ADD MSTORE RETURN JUMPDEST CALLVALUE PUSH2 0x199 JUMPI PUSH1 0x20 CALLDATASIZE PUSH1 0x3 NOT ADD SLT PUSH2 0x199 JUMPI PUSH1 0x4 CALLDATALOAD PUSH1 0x14 SLOAD DUP2 LT ISZERO PUSH2 0x199 JUMPI PUSH1 0x14 SLOAD DUP2 LT ISZERO PUSH2 0x8DE JUMPI PUSH1 0x14 PUSH0 MSTORE PUSH32 0xCE6D7B5282BD9A3661AE061FEED1DBDA4E52AB073B1F9285BE6E155D9C38D4EC ADD SLOAD PUSH1 0x40 MLOAD SWAP1 DUP2 MSTORE PUSH1 0x20 SWAP1 RETURN JUMPDEST CALLVALUE PUSH2 0x199 JUMPI PUSH1 0x20 CALLDATASIZE PUSH1 0x3 NOT ADD SLT PUSH2 0x199 JUMPI PUSH1 0x4 CALLDATALOAD PUSH1 0x7 DUP2 LT ISZERO PUSH2 0x199 JUMPI PUSH1 0x20 SWAP1 PUSH1 0x15 ADD SLOAD PUSH1 0x40 MLOAD SWAP1 DUP2 MSTORE RETURN JUMPDEST CALLVALUE PUSH2 0x199 JUMPI PUSH0 CALLDATASIZE PUSH1 0x3 NOT ADD SLT PUSH2 0x199 JUMPI DUP1 PUSH2 0x2710 PUSH1 0x20 SWAP3 MSTORE RETURN JUMPDEST PUSH1 0xB SLOAD DUP2 LT ISZERO PUSH2 0x8DE JUMPI PUSH1 0xB PUSH0 MSTORE PUSH1 0x20 PUSH0 KECCAK256 ADD SWAP1 PUSH0 SWAP1 JUMP JUMPDEST PUSH1 0xB SLOAD ISZERO PUSH2 0x8DE JUMPI PUSH1 0xB PUSH0 SWAP1 DUP2 MSTORE PUSH32 0x175B7A638427703F0DBE7BB9BBF987A2551717B34E79F33B5B1008D1FA01DB9 SWAP2 JUMP JUMPDEST DUP1 SLOAD DUP3 LT ISZERO PUSH2 0x8DE JUMPI PUSH0 MSTORE PUSH1 0x20 PUSH0 KECCAK256 ADD SWAP1 PUSH0 SWAP1 JUMP JUMPDEST SWAP2 SWAP1 DUP3 SUB SWAP2 DUP3 GT PUSH2 0x4A5 JUMPI JUMP JUMPDEST DUP2 ISZERO PUSH2 0xE08 JUMPI DIV SWAP1 JUMP JUMPDEST PUSH4 0x4E487B71 PUSH1 0xE0 SHL PUSH0 MSTORE PUSH1 0x12 PUSH1 0x4 MSTORE PUSH1 0x24 PUSH0 REVERT JUMPDEST SWAP1 DUP2 PUSH0 MSTORE PUSH1 0xD PUSH1 0x20 MSTORE PUSH1 0x3 PUSH1 0x40 PUSH0 KECCAK256 ADD SLOAD ISZERO PUSH2 0xE76 JUMPI PUSH1 0x9 SLOAD DUP3 PUSH0 MSTORE PUSH1 0xA PUSH1 0x20 MSTORE PUSH1 0x40 PUSH0 KECCAK256 SLOAD SWAP1 DUP2 DUP2 GT ISZERO PUSH2 0xE6C JUMPI PUSH2 0xE61 PUSH2 0xE69 SWAP3 PUSH8 0xDE0B6B3A7640000 SWAP3 PUSH2 0xDF1 JUMP JUMPDEST DIV DUP1 SWAP4 PUSH2 0x1240 JUMP JUMPDEST SWAP1 JUMP JUMPDEST POP POP SWAP1 POP PUSH0 SWAP1 PUSH0 SWAP1 JUMP JUMPDEST PUSH0 SWAP2 POP DUP2 SWAP1 JUMP JUMPDEST ISZERO PUSH2 0xE84 JUMPI JUMP JUMPDEST PUSH1 0x40 MLOAD PUSH3 0x461BCD PUSH1 0xE5 SHL DUP2 MSTORE PUSH1 0x20 PUSH1 0x4 DUP3 ADD MSTORE PUSH1 0x10 PUSH1 0x24 DUP3 ADD MSTORE PUSH16 0x139BDD081E5BDD5C881858D8DBDD5B9D PUSH1 0x82 SHL PUSH1 0x44 DUP3 ADD MSTORE PUSH1 0x64 SWAP1 REVERT JUMPDEST PUSH1 0x80 DUP2 ADD SWAP1 DUP2 LT PUSH8 0xFFFFFFFFFFFFFFFF DUP3 GT OR PUSH2 0x645 JUMPI PUSH1 0x40 MSTORE JUMP JUMPDEST PUSH1 0xA0 DUP2 ADD SWAP1 DUP2 LT PUSH8 0xFFFFFFFFFFFFFFFF DUP3 GT OR PUSH2 0x645 JUMPI PUSH1 0x40 MSTORE JUMP JUMPDEST SWAP1 PUSH1 0x1F DUP1 NOT SWAP2 ADD AND DUP2 ADD SWAP1 DUP2 LT PUSH8 0xFFFFFFFFFFFFFFFF DUP3 GT OR PUSH2 0x645 JUMPI PUSH1 0x40 MSTORE JUMP JUMPDEST SWAP1 DUP2 PUSH1 0x20 SWAP2 SUB SLT PUSH2 0x199 JUMPI MLOAD DUP1 ISZERO ISZERO DUP2 SUB PUSH2 0x199 JUMPI SWAP1 JUMP JUMPDEST SWAP2 SWAP1 DUP3 ADD DUP1 SWAP3 GT PUSH2 0x4A5 JUMPI JUMP JUMPDEST DUP1 SLOAD PUSH1 0x1 PUSH1 0x40 SHL DUP2 LT ISZERO PUSH2 0x645 JUMPI PUSH1 0x1 DUP2 ADD DUP1 DUP4 SSTORE DUP2 LT ISZERO PUSH2 0x8DE JUMPI PUSH1 0x3 PUSH1 0x60 SWAP2 PUSH1 0xFF SWAP4 PUSH0 MSTORE PUSH1 0x20 PUSH0 KECCAK256 SWAP1 PUSH1 0x2 SHL ADD DUP5 MLOAD DUP2 SSTORE PUSH1 0x20 DUP6 ADD MLOAD PUSH1 0x1 DUP3 ADD SSTORE PUSH1 0x40 DUP6 ADD MLOAD PUSH1 0x2 DUP3 ADD SSTORE ADD SWAP3 ADD MLOAD AND PUSH1 0xFF NOT DUP3 SLOAD AND OR SWAP1 SSTORE JUMP JUMPDEST DUP2 DUP2 MUL SWAP3 SWAP2 DUP2 ISZERO SWAP2 DUP5 DIV EQ OR ISZERO PUSH2 0x4A5 JUMPI JUMP JUMPDEST DUP1 SLOAD SWAP1 PUSH1 0x1 PUSH1 0x40 SHL DUP3 LT ISZERO PUSH2 0x645 JUMPI PUSH1 0x1 DUP3 ADD DUP1 DUP3 SSTORE DUP3 LT ISZERO PUSH2 0x8DE JUMPI PUSH1 0x4 SWAP2 PUSH1 0x80 SWAP2 PUSH0 MSTORE PUSH1 0x5 PUSH1 0x20 PUSH0 KECCAK256 SWAP2 MUL ADD SWAP3 DUP1 MLOAD DUP5 SSTORE PUSH1 0x20 DUP2 ADD MLOAD PUSH1 0x1 DUP6 ADD SSTORE PUSH1 0x40 DUP2 ADD MLOAD PUSH1 0x2 DUP6 ADD SSTORE PUSH1 0x60 DUP2 ADD MLOAD PUSH1 0x3 DUP6 ADD SSTORE ADD MLOAD SWAP2 ADD SSTORE JUMP JUMPDEST DUP1 PUSH0 MSTORE PUSH1 0xD PUSH1 0x20 MSTORE PUSH1 0x40 PUSH0 KECCAK256 SWAP1 PUSH1 0x3 DUP3 ADD SLOAD ISZERO PUSH2 0x11D6 JUMPI PUSH2 0x1028 PUSH1 0x1 DUP1 PUSH1 0xA0 SHL SUB DUP4 SLOAD AND CALLER EQ PUSH2 0xE7D JUMP JUMPDEST PUSH1 0x9 SLOAD SWAP2 DUP2 PUSH0 MSTORE PUSH1 0xA PUSH1 0x20 MSTORE PUSH1 0x40 PUSH0 KECCAK256 SLOAD DUP1 DUP5 EQ PUSH2 0x11D0 JUMPI PUSH2 0x1053 PUSH8 0xDE0B6B3A7640000 SWAP2 DUP6 PUSH2 0xDF1 JUMP JUMPDEST DIV SWAP2 DUP3 ISZERO PUSH2 0x11BF JUMPI PUSH2 0x1065 DUP4 DUP3 PUSH2 0x1240 JUMP JUMPDEST SWAP4 DUP2 PUSH0 MSTORE PUSH1 0xA PUSH1 0x20 MSTORE PUSH1 0x40 PUSH0 KECCAK256 SSTORE DUP4 DUP1 PUSH2 0x109B JUMPI JUMPDEST SWAP2 POP POP DUP2 GT PUSH2 0x1087 JUMPI POP POP JUMP JUMPDEST PUSH2 0x1099 SWAP2 PUSH2 0x1094 SWAP2 PUSH2 0xDF1 JUMP JUMPDEST PUSH2 0x1313 JUMP JUMPDEST JUMP JUMPDEST PUSH2 0x1144 SWAP3 PUSH2 0x1105 DUP4 PUSH1 0x20 SWAP5 PUSH0 MSTORE PUSH1 0xE DUP6 MSTORE PUSH1 0x7 PUSH1 0x40 PUSH0 KECCAK256 PUSH2 0x10BD DUP7 DUP3 SLOAD PUSH2 0xF2E JUMP JUMPDEST DUP2 SSTORE ADD PUSH2 0x10CB DUP6 DUP3 SLOAD PUSH2 0xF2E JUMP JUMPDEST SWAP1 SSTORE DUP1 PUSH0 MSTORE PUSH1 0xF DUP6 MSTORE PUSH1 0x40 PUSH0 KECCAK256 PUSH1 0x40 MLOAD SWAP2 PUSH2 0x10E5 DUP4 PUSH2 0xED8 JUMP JUMPDEST DUP3 MSTORE DUP5 DUP7 DUP4 ADD MSTORE PUSH1 0x1 PUSH1 0x40 DUP4 ADD MSTORE TIMESTAMP PUSH1 0x60 DUP4 ADD MSTORE PUSH1 0x9 PUSH1 0x80 DUP4 ADD MSTORE PUSH2 0xFA5 JUMP JUMPDEST PUSH1 0x1 SLOAD SWAP1 SLOAD PUSH1 0x40 MLOAD PUSH4 0xA9059CBB PUSH1 0xE0 SHL DUP2 MSTORE PUSH1 0x1 PUSH1 0x1 PUSH1 0xA0 SHL SUB SWAP2 DUP3 AND PUSH1 0x4 DUP3 ADD MSTORE PUSH1 0x24 DUP2 ADD SWAP4 SWAP1 SWAP4 MSTORE SWAP2 SWAP4 DUP5 SWAP3 SWAP1 SWAP2 AND SWAP1 DUP3 SWAP1 PUSH0 SWAP1 DUP3 SWAP1 PUSH1 0x44 DUP3 ADD SWAP1 JUMP JUMPDEST SUB SWAP3 GAS CALL SWAP1 DUP2 ISZERO PUSH2 0x686 JUMPI PUSH0 SWAP2 PUSH2 0x11A0 JUMPI JUMPDEST POP ISZERO PUSH2 0x1164 JUMPI PUSH0 DUP1 DUP4 PUSH2 0x107A JUMP JUMPDEST PUSH1 0x40 MLOAD PUSH3 0x461BCD PUSH1 0xE5 SHL DUP2 MSTORE PUSH1 0x20 PUSH1 0x4 DUP3 ADD MSTORE PUSH1 0x14 PUSH1 0x24 DUP3 ADD MSTORE PUSH20 0x1554D115081D1C985B9CD9995C8819985A5B1959 PUSH1 0x62 SHL PUSH1 0x44 DUP3 ADD MSTORE PUSH1 0x64 SWAP1 REVERT JUMPDEST PUSH2 0x11B9 SWAP2 POP PUSH1 0x20 RETURNDATASIZE PUSH1 0x20 GT PUSH2 0x67F JUMPI PUSH2 0x672 DUP2 DUP4 PUSH2 0xEF4 JUMP JUMPDEST PUSH0 PUSH2 0x1156 JUMP JUMPDEST SWAP2 POP POP PUSH0 MSTORE PUSH1 0xA PUSH1 0x20 MSTORE PUSH1 0x40 PUSH0 KECCAK256 SSTORE JUMP JUMPDEST POP POP POP POP JUMP JUMPDEST PUSH1 0x40 MLOAD PUSH3 0x461BCD PUSH1 0xE5 SHL DUP2 MSTORE PUSH1 0x20 PUSH1 0x4 DUP3 ADD MSTORE PUSH1 0xE PUSH1 0x24 DUP3 ADD MSTORE PUSH14 0x155CD95C881B9BDD08199BDD5B99 PUSH1 0x92 SHL PUSH1 0x44 DUP3 ADD MSTORE PUSH1 0x64 SWAP1 REVERT JUMPDEST DUP1 SLOAD PUSH1 0x1 PUSH1 0x40 SHL DUP2 LT ISZERO PUSH2 0x645 JUMPI PUSH2 0x1229 SWAP2 PUSH1 0x1 DUP3 ADD DUP2 SSTORE PUSH2 0xDDC JUMP JUMPDEST DUP2 SWAP3 SWAP2 SLOAD SWAP1 PUSH1 0x3 SHL SWAP2 DUP3 SHL SWAP2 PUSH0 NOT SWAP1 SHL NOT AND OR SWAP1 SSTORE JUMP JUMPDEST DUP1 PUSH0 MSTORE PUSH1 0xD PUSH1 0x20 MSTORE PUSH1 0x40 PUSH0 KECCAK256 SWAP1 PUSH0 MSTORE PUSH1 0xE PUSH1 0x20 MSTORE PUSH1 0xA PUSH2 0x1276 PUSH1 0x40 PUSH0 KECCAK256 SWAP3 PUSH1 0xF SWAP1 PUSH1 0x1 PUSH1 0x8 DUP3 ADD SLOAD GT PUSH2 0x12A3 JUMPI JUMPDEST DUP4 ADD SLOAD PUSH2 0xF92 JUMP JUMPDEST DIV SWAP1 SLOAD DUP2 DUP2 LT ISZERO PUSH2 0x129C JUMPI PUSH2 0x128A SWAP2 PUSH2 0xDF1 JUMP JUMPDEST SWAP1 DUP2 DUP2 GT ISZERO PUSH2 0x1297 JUMPI POP SWAP1 JUMP JUMPDEST SWAP1 POP SWAP1 JUMP JUMPDEST POP POP POP PUSH0 SWAP1 JUMP JUMPDEST PUSH1 0x14 SWAP2 POP PUSH2 0x126E JUMP JUMPDEST PUSH1 0x7 SLOAD SWAP1 DUP2 ISZERO DUP1 ISZERO PUSH2 0x130B JUMPI JUMPDEST PUSH2 0x12F8 JUMPI PUSH8 0xDE0B6B3A7640000 DUP2 MUL SWAP1 DUP1 DUP3 DIV PUSH8 0xDE0B6B3A7640000 EQ SWAP1 ISZERO OR ISZERO PUSH2 0x4A5 JUMPI PUSH2 0x12F3 SWAP2 PUSH2 0x12EB SWAP2 PUSH2 0xDFE JUMP JUMPDEST PUSH1 0x9 SLOAD PUSH2 0xF2E JUMP JUMPDEST PUSH1 0x9 SSTORE JUMP JUMPDEST DUP1 SWAP2 POP PUSH2 0x1302 JUMPI POP JUMP JUMPDEST PUSH2 0x1099 SWAP1 PUSH2 0x1313 JUMP JUMPDEST POP DUP1 ISZERO PUSH2 0x12B9 JUMP JUMPDEST PUSH1 0x2 SLOAD PUSH1 0x1 PUSH1 0x1 PUSH1 0xA0 SHL SUB AND DUP1 ISZERO PUSH2 0x13F9 JUMPI PUSH1 0x1 SLOAD PUSH1 0x40 MLOAD PUSH4 0xA9059CBB PUSH1 0xE0 SHL PUSH1 0x20 DUP1 DUP4 ADD SWAP2 DUP3 MSTORE PUSH1 0x1 PUSH1 0x1 PUSH1 0xA0 SHL SUB SWAP5 DUP6 AND PUSH1 0x24 DUP5 ADD MSTORE PUSH1 0x44 DUP1 DUP5 ADD DUP8 SWAP1 MSTORE DUP4 MSTORE SWAP4 SWAP1 SWAP3 AND SWAP3 SWAP2 PUSH0 SWAP2 PUSH2 0x1368 PUSH1 0x64 DUP3 PUSH2 0xEF4 JUMP JUMPDEST MLOAD SWAP1 DUP3 DUP6 GAS CALL ISZERO PUSH2 0x686 JUMPI PUSH0 MLOAD RETURNDATASIZE PUSH2 0x13F0 JUMPI POP DUP1 EXTCODESIZE ISZERO JUMPDEST PUSH2 0x13DE JUMPI POP PUSH2 0x1099 SWAP1 PUSH1 0x5 SLOAD PUSH0 MSTORE PUSH1 0xE PUSH1 0x20 MSTORE PUSH1 0x40 PUSH0 KECCAK256 PUSH2 0x13A1 DUP3 DUP3 SLOAD PUSH2 0xF2E JUMP JUMPDEST SWAP1 SSTORE PUSH1 0x5 SLOAD PUSH0 MSTORE PUSH1 0xF PUSH1 0x20 MSTORE PUSH1 0x40 PUSH0 KECCAK256 PUSH1 0x40 MLOAD SWAP2 PUSH2 0x13BE DUP4 PUSH2 0xED8 JUMP JUMPDEST PUSH0 DUP4 MSTORE PUSH1 0x20 DUP4 ADD MSTORE PUSH0 PUSH1 0x40 DUP4 ADD MSTORE TIMESTAMP PUSH1 0x60 DUP4 ADD MSTORE PUSH1 0x5 PUSH1 0x80 DUP4 ADD MSTORE PUSH2 0xFA5 JUMP JUMPDEST PUSH4 0x5274AFE7 PUSH1 0xE0 SHL PUSH0 MSTORE PUSH1 0x4 MSTORE PUSH1 0x24 PUSH0 REVERT JUMPDEST PUSH1 0x1 EQ ISZERO PUSH2 0x137F JUMP JUMPDEST PUSH1 0x40 MLOAD PUSH3 0x461BCD PUSH1 0xE5 SHL DUP2 MSTORE PUSH1 0x20 PUSH1 0x4 DUP3 ADD MSTORE PUSH1 0x11 PUSH1 0x24 DUP3 ADD MSTORE PUSH17 0x199959481859191C9CC81B9BDD081CD95D PUSH1 0x7A SHL PUSH1 0x44 DUP3 ADD MSTORE PUSH1 0x64 SWAP1 REVERT JUMPDEST DUP1 ISZERO DUP1 ISZERO PUSH2 0x1566 JUMPI JUMPDEST PUSH2 0x155B JUMPI DUP1 PUSH0 MSTORE PUSH1 0xD PUSH1 0x20 MSTORE PUSH1 0x40 PUSH0 KECCAK256 SWAP1 DUP1 PUSH0 MSTORE PUSH1 0xE PUSH1 0x20 MSTORE PUSH1 0x1 PUSH1 0x40 PUSH0 KECCAK256 PUSH2 0x1465 DUP7 DUP3 SLOAD PUSH2 0xF2E JUMP JUMPDEST DUP2 SSTORE ADD PUSH2 0x1473 DUP6 DUP3 SLOAD PUSH2 0xF2E JUMP JUMPDEST SWAP1 SSTORE PUSH1 0x1 SLOAD DUP3 SLOAD PUSH1 0x40 MLOAD PUSH4 0xA9059CBB PUSH1 0xE0 SHL DUP2 MSTORE PUSH1 0x1 PUSH1 0x1 PUSH1 0xA0 SHL SUB SWAP2 DUP3 AND PUSH1 0x4 DUP3 ADD MSTORE PUSH1 0x24 DUP2 ADD DUP8 SWAP1 MSTORE SWAP2 PUSH1 0x20 SWAP2 DUP4 SWAP2 PUSH1 0x44 SWAP2 DUP4 SWAP2 PUSH0 SWAP2 AND GAS CALL DUP1 ISZERO PUSH2 0x686 JUMPI PUSH2 0x153E JUMPI JUMPDEST POP PUSH0 MSTORE PUSH1 0xF PUSH1 0x20 MSTORE PUSH2 0x14F7 PUSH1 0x40 PUSH0 KECCAK256 PUSH1 0x40 MLOAD SWAP1 PUSH2 0x14D5 DUP3 PUSH2 0xED8 JUMP JUMPDEST DUP5 DUP3 MSTORE DUP6 PUSH1 0x20 DUP4 ADD MSTORE PUSH1 0x1 PUSH1 0x40 DUP4 ADD MSTORE TIMESTAMP PUSH1 0x60 DUP4 ADD MSTORE PUSH1 0x1 PUSH1 0x80 DUP4 ADD MSTORE PUSH2 0xFA5 JUMP JUMPDEST PUSH1 0x1 DUP1 PUSH1 0xA0 SHL SUB SWAP1 SLOAD AND SWAP1 PUSH0 MSTORE PUSH1 0xD PUSH1 0x20 MSTORE PUSH0 MLOAD PUSH1 0x20 PUSH2 0x1B28 PUSH0 CODECOPY PUSH0 MLOAD SWAP1 PUSH0 MSTORE PUSH1 0x60 PUSH1 0x1 DUP1 PUSH1 0xA0 SHL SUB PUSH1 0x40 PUSH0 KECCAK256 SLOAD AND SWAP4 PUSH1 0x40 MLOAD SWAP1 DUP2 MSTORE PUSH1 0x1 PUSH1 0x20 DUP3 ADD MSTORE PUSH1 0x1 PUSH1 0x40 DUP3 ADD MSTORE LOG3 JUMP JUMPDEST PUSH2 0x1556 SWAP1 PUSH1 0x20 RETURNDATASIZE PUSH1 0x20 GT PUSH2 0x67F JUMPI PUSH2 0x672 DUP2 DUP4 PUSH2 0xEF4 JUMP JUMPDEST PUSH2 0x14B9 JUMP JUMPDEST POP POP PUSH2 0x1099 SWAP1 PUSH2 0x1313 JUMP JUMPDEST POP PUSH1 0x5 SLOAD DUP2 EQ PUSH2 0x143B JUMP JUMPDEST SWAP1 SWAP2 DUP2 ISZERO DUP1 ISZERO PUSH2 0x16B5 JUMPI JUMPDEST PUSH2 0x16A8 JUMPI SWAP1 PUSH2 0x15F8 SWAP2 DUP2 PUSH0 MSTORE PUSH1 0xD PUSH1 0x20 MSTORE PUSH1 0x40 PUSH0 KECCAK256 DUP3 PUSH0 MSTORE PUSH1 0xE PUSH1 0x20 MSTORE PUSH1 0x1 PUSH1 0x40 PUSH0 KECCAK256 PUSH2 0x15AA DUP5 DUP3 SLOAD PUSH2 0xF2E JUMP JUMPDEST DUP2 SSTORE ADD PUSH2 0x15B8 DUP4 DUP3 SLOAD PUSH2 0xF2E JUMP JUMPDEST SWAP1 SSTORE PUSH1 0x1 SLOAD DUP2 SLOAD PUSH1 0x40 MLOAD PUSH4 0xA9059CBB PUSH1 0xE0 SHL DUP2 MSTORE PUSH1 0x1 PUSH1 0x1 PUSH1 0xA0 SHL SUB SWAP2 DUP3 AND PUSH1 0x4 DUP3 ADD MSTORE PUSH1 0x24 DUP2 ADD DUP6 SWAP1 MSTORE SWAP6 PUSH1 0x20 SWAP3 DUP8 SWAP3 AND SWAP1 DUP3 SWAP1 PUSH0 SWAP1 DUP3 SWAP1 PUSH1 0x44 DUP3 ADD SWAP1 JUMP JUMPDEST SUB SWAP3 GAS CALL SWAP3 DUP4 ISZERO PUSH2 0x686 JUMPI PUSH0 MLOAD PUSH1 0x20 PUSH2 0x1B28 PUSH0 CODECOPY PUSH0 MLOAD SWAP1 PUSH0 MSTORE SWAP5 PUSH1 0x60 SWAP5 PUSH2 0x168B JUMPI JUMPDEST POP PUSH0 MSTORE PUSH1 0xF PUSH1 0x20 MSTORE PUSH2 0x1656 PUSH1 0x40 PUSH0 KECCAK256 PUSH1 0x40 MLOAD SWAP1 PUSH2 0x1636 DUP3 PUSH2 0xED8 JUMP JUMPDEST DUP8 DUP3 MSTORE DUP5 PUSH1 0x20 DUP4 ADD MSTORE DUP9 PUSH1 0x40 DUP4 ADD MSTORE TIMESTAMP DUP7 DUP4 ADD MSTORE PUSH1 0x1 PUSH1 0x80 DUP4 ADD MSTORE PUSH2 0xFA5 JUMP JUMPDEST PUSH1 0x1 DUP1 PUSH1 0xA0 SHL SUB SWAP1 SLOAD AND SWAP4 PUSH0 MSTORE PUSH1 0xD PUSH1 0x20 MSTORE PUSH1 0x1 DUP1 PUSH1 0xA0 SHL SUB PUSH1 0x40 PUSH0 KECCAK256 SLOAD AND SWAP5 PUSH1 0x40 MLOAD SWAP2 DUP3 MSTORE PUSH1 0x20 DUP3 ADD MSTORE PUSH1 0x1 PUSH1 0x40 DUP3 ADD MSTORE LOG3 JUMP JUMPDEST PUSH2 0x16A3 SWAP1 PUSH1 0x20 RETURNDATASIZE PUSH1 0x20 GT PUSH2 0x67F JUMPI PUSH2 0x672 DUP2 DUP4 PUSH2 0xEF4 JUMP JUMPDEST PUSH2 0x161A JUMP JUMPDEST SWAP2 POP POP PUSH2 0x1099 SWAP2 POP PUSH2 0x1313 JUMP JUMPDEST POP PUSH1 0x5 SLOAD DUP3 EQ PUSH2 0x157C JUMP JUMPDEST PUSH0 NOT DUP2 EQ PUSH2 0x4A5 JUMPI PUSH1 0x1 ADD SWAP1 JUMP JUMPDEST SWAP4 SWAP2 SWAP4 SWAP3 SWAP1 SWAP3 PUSH1 0x5 SLOAD DUP2 EQ DUP1 ISZERO PUSH2 0x18B0 JUMPI JUMPDEST PUSH2 0x18A3 JUMPI PUSH1 0x1 JUMPDEST DUP3 DUP2 LT PUSH2 0x1872 JUMPI POP SWAP3 PUSH0 SWAP4 JUMPDEST DUP1 ISZERO ISZERO DUP1 PUSH2 0x1866 JUMPI JUMPDEST DUP1 PUSH2 0x185C JUMPI JUMPDEST ISZERO PUSH2 0x184E JUMPI DUP1 PUSH0 MSTORE PUSH1 0xD PUSH1 0x20 MSTORE PUSH1 0x40 PUSH0 KECCAK256 SWAP1 DUP4 PUSH1 0x6 DUP4 ADD SLOAD LT ISZERO PUSH2 0x1735 JUMPI POP PUSH1 0x5 PUSH2 0x172F SWAP2 ADD SLOAD SWAP5 PUSH2 0x16C0 JUMP JUMPDEST SWAP4 PUSH2 0x16F3 JUMP JUMPDEST PUSH1 0x1 SLOAD DUP3 SLOAD PUSH1 0x40 MLOAD PUSH4 0xA9059CBB PUSH1 0xE0 SHL DUP2 MSTORE PUSH1 0x1 PUSH1 0x1 PUSH1 0xA0 SHL SUB SWAP2 DUP3 AND PUSH1 0x4 DUP3 ADD MSTORE PUSH1 0x24 DUP2 ADD DUP11 SWAP1 MSTORE SWAP7 SWAP9 SWAP6 SWAP8 POP SWAP4 SWAP6 SWAP5 SWAP2 SWAP4 SWAP2 SWAP3 SWAP2 PUSH1 0x20 SWAP2 DUP7 SWAP2 PUSH1 0x44 SWAP2 DUP4 SWAP2 PUSH0 SWAP2 AND GAS CALL SWAP3 DUP4 ISZERO PUSH2 0x686 JUMPI PUSH0 MLOAD PUSH1 0x20 PUSH2 0x1B28 PUSH0 CODECOPY PUSH0 MLOAD SWAP1 PUSH0 MSTORE SWAP5 PUSH1 0x60 SWAP5 PUSH2 0x1832 JUMPI JUMPDEST POP DUP1 PUSH0 MSTORE PUSH1 0xE PUSH1 0x20 MSTORE PUSH1 0x2 PUSH1 0x40 PUSH0 KECCAK256 PUSH2 0x17B2 DUP6 DUP3 SLOAD PUSH2 0xF2E JUMP JUMPDEST DUP2 SSTORE ADD PUSH2 0x17C0 DUP5 DUP3 SLOAD PUSH2 0xF2E JUMP JUMPDEST SWAP1 SSTORE PUSH0 MSTORE PUSH1 0xF PUSH1 0x20 MSTORE PUSH2 0x17FD PUSH1 0x40 PUSH0 KECCAK256 PUSH1 0x40 MLOAD SWAP1 PUSH2 0x17DD DUP3 PUSH2 0xED8 JUMP JUMPDEST DUP8 DUP3 MSTORE DUP5 PUSH1 0x20 DUP4 ADD MSTORE DUP9 PUSH1 0x40 DUP4 ADD MSTORE TIMESTAMP DUP7 DUP4 ADD MSTORE PUSH1 0x2 PUSH1 0x80 DUP4 ADD MSTORE PUSH2 0xFA5 JUMP JUMPDEST PUSH1 0x1 DUP1 PUSH1 0xA0 SHL SUB SWAP1 SLOAD AND SWAP4 PUSH0 MSTORE PUSH1 0xD PUSH1 0x20 MSTORE PUSH1 0x1 DUP1 PUSH1 0xA0 SHL SUB PUSH1 0x40 PUSH0 KECCAK256 SLOAD AND SWAP5 PUSH1 0x40 MLOAD SWAP2 DUP3 MSTORE PUSH1 0x20 DUP3 ADD MSTORE PUSH1 0x2 PUSH1 0x40 DUP3 ADD MSTORE LOG3 JUMP JUMPDEST PUSH2 0x1849 SWAP1 PUSH1 0x20 RETURNDATASIZE DUP2 GT PUSH2 0x67F JUMPI PUSH2 0x672 DUP2 DUP4 PUSH2 0xEF4 JUMP JUMPDEST PUSH2 0x1798 JUMP JUMPDEST POP POP POP SWAP2 PUSH2 0x1099 SWAP2 POP PUSH2 0x1313 JUMP JUMPDEST POP PUSH1 0xF DUP6 LT PUSH2 0x1702 JUMP JUMPDEST POP PUSH1 0x5 SLOAD DUP2 EQ ISZERO PUSH2 0x16FC JUMP JUMPDEST SWAP1 PUSH0 MSTORE PUSH1 0xD PUSH1 0x20 MSTORE PUSH1 0x5 PUSH1 0x40 PUSH0 KECCAK256 ADD SLOAD SWAP1 DUP2 ISZERO DUP1 ISZERO PUSH2 0x1898 JUMPI JUMPDEST PUSH2 0x184E JUMPI PUSH1 0x1 ADD PUSH2 0x16E7 JUMP JUMPDEST POP PUSH1 0x5 SLOAD DUP3 EQ PUSH2 0x188C JUMP JUMPDEST POP POP SWAP2 PUSH2 0x1099 SWAP2 POP PUSH2 0x1313 JUMP JUMPDEST POP DUP1 ISZERO PUSH2 0x16E0 JUMP JUMPDEST SWAP3 SWAP5 SWAP4 SWAP5 SWAP2 SWAP1 SWAP2 DUP4 ISZERO DUP1 ISZERO PUSH2 0x1B1C JUMPI JUMPDEST DUP1 ISZERO PUSH2 0x1B14 JUMPI JUMPDEST PUSH2 0x1B05 JUMPI SWAP5 SWAP2 PUSH2 0x18DF DUP4 DUP4 PUSH2 0xDFE JUMP JUMPDEST SWAP6 PUSH2 0x18F3 PUSH2 0x18ED DUP6 DUP10 PUSH2 0xF92 JUMP JUMPDEST DUP5 PUSH2 0xDF1 JUMP JUMPDEST SWAP5 PUSH0 SWAP5 DUP6 SWAP4 DUP5 SWAP3 PUSH1 0x1 JUMPDEST PUSH1 0x1E DUP6 LT PUSH2 0x1937 JUMPI JUMPDEST POP POP POP POP POP POP POP PUSH2 0x1919 SWAP3 SWAP4 SWAP5 POP PUSH2 0xDF1 JUMP JUMPDEST DUP1 PUSH2 0x1928 JUMPI JUMPDEST POP DUP1 PUSH2 0x1302 JUMPI POP JUMP JUMPDEST PUSH2 0x1931 SWAP1 PUSH2 0x1313 JUMP JUMPDEST PUSH0 PUSH2 0x191F JUMP JUMPDEST DUP2 SWAP3 SWAP4 SWAP5 SWAP6 SWAP7 SWAP9 SWAP2 ISZERO DUP1 ISZERO PUSH2 0x1AFA JUMPI JUMPDEST PUSH2 0x1ADD JUMPI DUP3 PUSH0 MSTORE PUSH1 0xD PUSH1 0x20 MSTORE PUSH1 0x40 PUSH0 KECCAK256 SWAP3 DUP13 DUP9 PUSH1 0x6 DUP7 ADD SLOAD LT ISZERO PUSH0 EQ PUSH2 0x1ABE JUMPI DUP3 PUSH2 0x1971 SWAP2 PUSH2 0xF92 JUMP JUMPDEST PUSH0 DUP3 DUP2 MSTORE PUSH1 0xD PUSH1 0x20 SWAP1 DUP2 MSTORE PUSH1 0x40 DUP1 DUP4 KECCAK256 SLOAD PUSH1 0x1 SLOAD SWAP2 MLOAD PUSH4 0xA9059CBB PUSH1 0xE0 SHL DUP2 MSTORE PUSH1 0x1 PUSH1 0x1 PUSH1 0xA0 SHL SUB SWAP2 DUP3 AND PUSH1 0x4 DUP3 ADD DUP2 SWAP1 MSTORE PUSH1 0x24 DUP3 ADD DUP8 SWAP1 MSTORE SWAP1 SWAP9 SWAP5 SWAP1 SWAP4 SWAP3 DUP10 SWAP3 PUSH1 0x44 SWAP3 DUP5 SWAP3 SWAP1 SWAP2 AND GAS CALL SWAP4 DUP5 ISZERO PUSH2 0x686 JUMPI PUSH2 0x1A7C SWAP7 PUSH2 0x1A76 SWAP6 PUSH2 0x1AA2 JUMPI JUMPDEST POP DUP1 PUSH0 MSTORE PUSH1 0xE PUSH1 0x20 MSTORE PUSH1 0x3 PUSH1 0x40 PUSH0 KECCAK256 PUSH2 0x19EA DUP7 DUP3 SLOAD PUSH2 0xF2E JUMP JUMPDEST DUP2 SSTORE ADD PUSH2 0x19F8 DUP6 DUP3 SLOAD PUSH2 0xF2E JUMP JUMPDEST SWAP1 SSTORE PUSH0 MSTORE PUSH1 0xF PUSH1 0x20 MSTORE PUSH2 0x1A36 PUSH1 0x40 PUSH0 KECCAK256 PUSH1 0x40 MLOAD SWAP1 PUSH2 0x1A15 DUP3 PUSH2 0xED8 JUMP JUMPDEST DUP11 DUP3 MSTORE DUP6 PUSH1 0x20 DUP4 ADD MSTORE DUP14 PUSH1 0x40 DUP4 ADD MSTORE TIMESTAMP PUSH1 0x60 DUP4 ADD MSTORE PUSH1 0x4 PUSH1 0x80 DUP4 ADD MSTORE PUSH2 0xFA5 JUMP JUMPDEST DUP8 PUSH0 MSTORE PUSH1 0xD PUSH1 0x20 MSTORE PUSH1 0x1 DUP1 PUSH1 0xA0 SHL SUB PUSH1 0x40 PUSH0 KECCAK256 SLOAD AND SWAP1 PUSH0 MLOAD PUSH1 0x20 PUSH2 0x1B28 PUSH0 CODECOPY PUSH0 MLOAD SWAP1 PUSH0 MSTORE PUSH1 0x60 DUP14 PUSH1 0x40 MLOAD SWAP1 DUP8 DUP3 MSTORE PUSH1 0x20 DUP3 ADD MSTORE PUSH1 0x4 PUSH1 0x40 DUP3 ADD MSTORE LOG3 PUSH2 0xF2E JUMP JUMPDEST SWAP9 PUSH2 0xF2E JUMP JUMPDEST SWAP4 PUSH1 0x1 SWAP2 JUMPDEST DUP5 DUP7 LT ISZERO PUSH2 0x1A9D JUMPI PUSH1 0x5 PUSH1 0x1 SWAP2 ADD SLOAD SWAP2 ADD SWAP4 SWAP3 SWAP2 SWAP6 SWAP5 SWAP6 PUSH2 0x18FD JUMP JUMPDEST PUSH2 0x1906 JUMP JUMPDEST PUSH2 0x1AB9 SWAP1 PUSH1 0x20 RETURNDATASIZE DUP2 GT PUSH2 0x67F JUMPI PUSH2 0x672 DUP2 DUP4 PUSH2 0xEF4 JUMP JUMPDEST PUSH2 0x19D0 JUMP JUMPDEST POP POP SWAP2 DUP5 DUP4 SWAP10 SWAP7 SWAP3 SWAP10 LT ISZERO PUSH2 0x1A81 JUMPI SWAP2 PUSH2 0x1AD7 SWAP1 PUSH2 0x16C0 JUMP JUMPDEST SWAP2 PUSH2 0x1A81 JUMP JUMPDEST POP SWAP8 POP POP POP POP POP POP SWAP1 POP PUSH2 0x1AF2 SWAP3 SWAP4 POP PUSH2 0xDF1 JUMP JUMPDEST DUP1 PUSH2 0x1302 JUMPI POP JUMP JUMPDEST POP PUSH1 0x5 SLOAD DUP4 EQ PUSH2 0x1947 JUMP JUMPDEST POP SWAP2 POP POP PUSH2 0x1099 SWAP2 SWAP3 POP PUSH2 0x1313 JUMP JUMPDEST POP DUP6 ISZERO PUSH2 0x18CF JUMP JUMPDEST POP PUSH1 0x5 SLOAD DUP5 EQ PUSH2 0x18C8 JUMP INVALID RJUMPI 0x7B61 0xD3 0x24 0xCE OR ORIGIN DUP16 NUMBER RETURNDATASIZE EXP 0xB6 0x25 DUP2 0xC0 CREATE 0xAA SWAP10 PUSH20 0x12BAE80FBDFCD2AA9B91D6E3A264697066735822 SLT KECCAK256 PUSH19 0x349FBF0C04C24131F23D16A1DF1B860619E711 DUP5 XOR 0xCA EXTCODECOPY 0xD9 0x2A SHR MCOPY PREVRANDAO EXTDELEGATECALL 0xC5 0xA5 PUSH5 0x736F6C6343 STOP ADDMOD 0x1E STOP CALLER "
				},
				"gasEstimates": {
					"creation": {
						"codeDepositCost": "1407400",
						"executionCost": "infinite",
						"totalCost": "infinite"
					},
					"external": {
						"ACC_PRECISION()": "329",
						"MONTH_DURATION()": "241",
						"PERCENTS_DIVIDER()": "148",
						"ROI_CAP_DIVIDER()": "417",
						"ROI_CAP_MULTIPLIER()": "351",
						"TIME_STEP()": "307",
						"WEEK_DURATION()": "439",
						"WeeklyCapping()": "747",
						"WeeklyTotalReward()": "2388",
						"claimCommunity(uint256)": "infinite",
						"communityAccPerUser()": "2564",
						"creatorWallet()": "2610",
						"currentMonthlyRound()": "2718",
						"currentMonthlyStartTime()": "2806",
						"currentWeeklyRound()": "2740",
						"currentWeeklyStartTime()": "2935",
						"defaultRefId()": "2872",
						"glbBoosterPackages(uint256)": "6571",
						"minLevelForGlbBooster(uint256)": "2800",
						"minLevelForPool(uint256)": "2316",
						"minPoolForGlbBooster(uint256)": "2646",
						"monthlyCapping()": "593",
						"packages(uint256)": "7030",
						"pendingCommunity(uint256)": "infinite",
						"poolPackages(uint256)": "6901",
						"register(uint256)": "infinite",
						"registeredUserIds(uint256)": "6747",
						"systemMaintance()": "2852",
						"teamDevelopment()": "2940",
						"totalUsers()": "2652",
						"upgrade(uint256)": "infinite",
						"usdt()": "2390"
					},
					"internal": {
						"_accrueCommunityBonus(uint256)": "infinite",
						"_applyGlobalCapping(uint256,uint256)": "6721",
						"_distributeLevelBoosterIncome(uint256,uint256,uint256,uint256,uint256)": "infinite",
						"_distributeLevelIncome(uint256,uint256,uint256,uint256,uint256)": "infinite",
						"_distributeMatrixIncome(uint256,uint256,uint256,uint256)": "infinite",
						"_distributeSponsorIncome(uint256,uint256,uint256,uint256)": "infinite",
						"_findEligibleSponsor(uint256,uint256)": "infinite",
						"_payLevelBooster(uint256,uint256,uint256,uint256)": "infinite",
						"_placeInMatrix(uint256,uint256)": "infinite"
					}
				},
				"methodIdentifiers": {
					"ACC_PRECISION()": "32fcd966",
					"MONTH_DURATION()": "2a891534",
					"PERCENTS_DIVIDER()": "01c234a8",
					"ROI_CAP_DIVIDER()": "58c7d352",
					"ROI_CAP_MULTIPLIER()": "375b43b4",
					"TIME_STEP()": "32bc298c",
					"WEEK_DURATION()": "76f5f700",
					"WeeklyCapping()": "ebe0ff15",
					"WeeklyTotalReward()": "3080b5bc",
					"claimCommunity(uint256)": "d54d6ddb",
					"communityAccPerUser()": "78f6ad6d",
					"creatorWallet()": "7cdc65f2",
					"currentMonthlyRound()": "c9ed0708",
					"currentMonthlyStartTime()": "e898fc38",
					"currentWeeklyRound()": "ca8e9121",
					"currentWeeklyStartTime()": "fddc806f",
					"defaultRefId()": "ec597e6f",
					"glbBoosterPackages(uint256)": "2350268f",
					"minLevelForGlbBooster(uint256)": "d0a2fd79",
					"minLevelForPool(uint256)": "2132d204",
					"minPoolForGlbBooster(uint256)": "956a3228",
					"monthlyCapping()": "c8df2908",
					"packages(uint256)": "c216212a",
					"pendingCommunity(uint256)": "24513088",
					"poolPackages(uint256)": "ae4708dc",
					"register(uint256)": "f207564e",
					"registeredUserIds(uint256)": "39ab3603",
					"systemMaintance()": "e9e34a16",
					"teamDevelopment()": "f5d74d93",
					"totalUsers()": "bff1f9e1",
					"upgrade(uint256)": "45977d03",
					"usdt()": "2f48ab7d"
				}
			},
			"storageLayout": {
				"storage": [
					{
						"astId": 100,
						"contract": "contracts/modules/SponsorMatrix.sol:Nanakshahi",
						"label": "_status",
						"offset": 0,
						"slot": "0",
						"type": "t_uint256"
					},
					{
						"astId": 2308,
						"contract": "contracts/modules/SponsorMatrix.sol:Nanakshahi",
						"label": "usdt",
						"offset": 0,
						"slot": "1",
						"type": "t_contract(IERC20)232"
					},
					{
						"astId": 2310,
						"contract": "contracts/modules/SponsorMatrix.sol:Nanakshahi",
						"label": "creatorWallet",
						"offset": 0,
						"slot": "2",
						"type": "t_address"
					},
					{
						"astId": 2312,
						"contract": "contracts/modules/SponsorMatrix.sol:Nanakshahi",
						"label": "systemMaintance",
						"offset": 0,
						"slot": "3",
						"type": "t_address"
					},
					{
						"astId": 2314,
						"contract": "contracts/modules/SponsorMatrix.sol:Nanakshahi",
						"label": "teamDevelopment",
						"offset": 0,
						"slot": "4",
						"type": "t_address"
					},
					{
						"astId": 2316,
						"contract": "contracts/modules/SponsorMatrix.sol:Nanakshahi",
						"label": "defaultRefId",
						"offset": 0,
						"slot": "5",
						"type": "t_uint256"
					},
					{
						"astId": 2318,
						"contract": "contracts/modules/SponsorMatrix.sol:Nanakshahi",
						"label": "totalUsers",
						"offset": 0,
						"slot": "6",
						"type": "t_uint256"
					},
					{
						"astId": 2336,
						"contract": "contracts/modules/SponsorMatrix.sol:Nanakshahi",
						"label": "registeredUserIds",
						"offset": 0,
						"slot": "7",
						"type": "t_array(t_uint256)dyn_storage"
					},
					{
						"astId": 2338,
						"contract": "contracts/modules/SponsorMatrix.sol:Nanakshahi",
						"label": "nonce",
						"offset": 0,
						"slot": "8",
						"type": "t_uint256"
					},
					{
						"astId": 2343,
						"contract": "contracts/modules/SponsorMatrix.sol:Nanakshahi",
						"label": "communityAccPerUser",
						"offset": 0,
						"slot": "9",
						"type": "t_uint256"
					},
					{
						"astId": 2347,
						"contract": "contracts/modules/SponsorMatrix.sol:Nanakshahi",
						"label": "communityDebt",
						"offset": 0,
						"slot": "10",
						"type": "t_mapping(t_uint256,t_uint256)"
					},
					{
						"astId": 2396,
						"contract": "contracts/modules/SponsorMatrix.sol:Nanakshahi",
						"label": "packages",
						"offset": 0,
						"slot": "11",
						"type": "t_array(t_uint256)dyn_storage"
					},
					{
						"astId": 2482,
						"contract": "contracts/modules/SponsorMatrix.sol:Nanakshahi",
						"label": "addressToId",
						"offset": 0,
						"slot": "12",
						"type": "t_mapping(t_address,t_uint256)"
					},
					{
						"astId": 2487,
						"contract": "contracts/modules/SponsorMatrix.sol:Nanakshahi",
						"label": "users",
						"offset": 0,
						"slot": "13",
						"type": "t_mapping(t_uint256,t_struct(User)2440_storage)"
					},
					{
						"astId": 2492,
						"contract": "contracts/modules/SponsorMatrix.sol:Nanakshahi",
						"label": "userIncomes",
						"offset": 0,
						"slot": "14",
						"type": "t_mapping(t_uint256,t_struct(UserIncome)2467_storage)"
					},
					{
						"astId": 2498,
						"contract": "contracts/modules/SponsorMatrix.sol:Nanakshahi",
						"label": "incomeHistory",
						"offset": 0,
						"slot": "15",
						"type": "t_mapping(t_uint256,t_array(t_struct(Income)2478_storage)dyn_storage)"
					},
					{
						"astId": 2505,
						"contract": "contracts/modules/SponsorMatrix.sol:Nanakshahi",
						"label": "teams",
						"offset": 0,
						"slot": "16",
						"type": "t_mapping(t_uint256,t_mapping(t_uint256,t_array(t_uint256)dyn_storage))"
					},
					{
						"astId": 2509,
						"contract": "contracts/modules/SponsorMatrix.sol:Nanakshahi",
						"label": "matrixDirect",
						"offset": 0,
						"slot": "17",
						"type": "t_mapping(t_uint256,t_uint256)"
					},
					{
						"astId": 2514,
						"contract": "contracts/modules/SponsorMatrix.sol:Nanakshahi",
						"label": "directReferrals",
						"offset": 0,
						"slot": "18",
						"type": "t_mapping(t_uint256,t_array(t_uint256)dyn_storage)"
					},
					{
						"astId": 2597,
						"contract": "contracts/modules/SponsorMatrix.sol:Nanakshahi",
						"label": "poolPackages",
						"offset": 0,
						"slot": "19",
						"type": "t_array(t_uint256)dyn_storage"
					},
					{
						"astId": 2609,
						"contract": "contracts/modules/SponsorMatrix.sol:Nanakshahi",
						"label": "glbBoosterPackages",
						"offset": 0,
						"slot": "20",
						"type": "t_array(t_uint256)dyn_storage"
					},
					{
						"astId": 2621,
						"contract": "contracts/modules/SponsorMatrix.sol:Nanakshahi",
						"label": "minLevelForPool",
						"offset": 0,
						"slot": "21",
						"type": "t_array(t_uint256)7_storage"
					},
					{
						"astId": 2634,
						"contract": "contracts/modules/SponsorMatrix.sol:Nanakshahi",
						"label": "minLevelForGlbBooster",
						"offset": 0,
						"slot": "28",
						"type": "t_array(t_uint256)8_storage"
					},
					{
						"astId": 2647,
						"contract": "contracts/modules/SponsorMatrix.sol:Nanakshahi",
						"label": "minPoolForGlbBooster",
						"offset": 0,
						"slot": "36",
						"type": "t_array(t_uint256)8_storage"
					},
					{
						"astId": 2681,
						"contract": "contracts/modules/SponsorMatrix.sol:Nanakshahi",
						"label": "userPooltopup",
						"offset": 0,
						"slot": "44",
						"type": "t_mapping(t_uint256,t_mapping(t_uint256,t_struct(UserPoolTopup)2663_storage))"
					},
					{
						"astId": 2688,
						"contract": "contracts/modules/SponsorMatrix.sol:Nanakshahi",
						"label": "userPooldtl",
						"offset": 0,
						"slot": "45",
						"type": "t_mapping(t_uint256,t_mapping(t_uint256,t_struct(UserPool)2658_storage))"
					},
					{
						"astId": 2695,
						"contract": "contracts/modules/SponsorMatrix.sol:Nanakshahi",
						"label": "userChildren",
						"offset": 0,
						"slot": "46",
						"type": "t_mapping(t_uint256,t_mapping(t_uint256,t_array(t_uint256)dyn_storage))"
					},
					{
						"astId": 2702,
						"contract": "contracts/modules/SponsorMatrix.sol:Nanakshahi",
						"label": "userIdPerPool",
						"offset": 0,
						"slot": "47",
						"type": "t_mapping(t_uint256,t_mapping(t_uint256,t_array(t_uint256)dyn_storage))"
					},
					{
						"astId": 2707,
						"contract": "contracts/modules/SponsorMatrix.sol:Nanakshahi",
						"label": "poolUsers",
						"offset": 0,
						"slot": "48",
						"type": "t_mapping(t_uint256,t_array(t_uint256)dyn_storage)"
					},
					{
						"astId": 2713,
						"contract": "contracts/modules/SponsorMatrix.sol:Nanakshahi",
						"label": "userHasPool",
						"offset": 0,
						"slot": "49",
						"type": "t_mapping(t_uint256,t_mapping(t_uint256,t_bool))"
					},
					{
						"astId": 2720,
						"contract": "contracts/modules/SponsorMatrix.sol:Nanakshahi",
						"label": "userBoosterdtl",
						"offset": 0,
						"slot": "50",
						"type": "t_mapping(t_uint256,t_mapping(t_uint256,t_struct(UserBooster)2674_storage))"
					},
					{
						"astId": 2727,
						"contract": "contracts/modules/SponsorMatrix.sol:Nanakshahi",
						"label": "userBoosterChildren",
						"offset": 0,
						"slot": "51",
						"type": "t_mapping(t_uint256,t_mapping(t_uint256,t_array(t_uint256)dyn_storage))"
					},
					{
						"astId": 2732,
						"contract": "contracts/modules/SponsorMatrix.sol:Nanakshahi",
						"label": "boosterUsers",
						"offset": 0,
						"slot": "52",
						"type": "t_mapping(t_uint256,t_array(t_uint256)dyn_storage)"
					},
					{
						"astId": 2738,
						"contract": "contracts/modules/SponsorMatrix.sol:Nanakshahi",
						"label": "userHasbooster",
						"offset": 0,
						"slot": "53",
						"type": "t_mapping(t_uint256,t_mapping(t_uint256,t_bool))"
					},
					{
						"astId": 2753,
						"contract": "contracts/modules/SponsorMatrix.sol:Nanakshahi",
						"label": "currentWeeklyRound",
						"offset": 0,
						"slot": "54",
						"type": "t_uint256"
					},
					{
						"astId": 2756,
						"contract": "contracts/modules/SponsorMatrix.sol:Nanakshahi",
						"label": "currentMonthlyRound",
						"offset": 0,
						"slot": "55",
						"type": "t_uint256"
					},
					{
						"astId": 2759,
						"contract": "contracts/modules/SponsorMatrix.sol:Nanakshahi",
						"label": "currentWeeklyStartTime",
						"offset": 0,
						"slot": "56",
						"type": "t_uint256"
					},
					{
						"astId": 2762,
						"contract": "contracts/modules/SponsorMatrix.sol:Nanakshahi",
						"label": "currentMonthlyStartTime",
						"offset": 0,
						"slot": "57",
						"type": "t_uint256"
					},
					{
						"astId": 2765,
						"contract": "contracts/modules/SponsorMatrix.sol:Nanakshahi",
						"label": "WeeklyTotalReward",
						"offset": 0,
						"slot": "58",
						"type": "t_uint256"
					},
					{
						"astId": 2802,
						"contract": "contracts/modules/SponsorMatrix.sol:Nanakshahi",
						"label": "weeklyContestdtl",
						"offset": 0,
						"slot": "59",
						"type": "t_mapping(t_uint256,t_struct(WeeklyContest)2784_storage)"
					},
					{
						"astId": 2807,
						"contract": "contracts/modules/SponsorMatrix.sol:Nanakshahi",
						"label": "weeklyQualifiedUsers",
						"offset": 0,
						"slot": "60",
						"type": "t_mapping(t_uint256,t_array(t_uint256)dyn_storage)"
					},
					{
						"astId": 2814,
						"contract": "contracts/modules/SponsorMatrix.sol:Nanakshahi",
						"label": "weeklyUserdtl",
						"offset": 0,
						"slot": "61",
						"type": "t_mapping(t_uint256,t_mapping(t_uint256,t_struct(weeklyUser)2797_storage))"
					},
					{
						"astId": 2821,
						"contract": "contracts/modules/SponsorMatrix.sol:Nanakshahi",
						"label": "weeklyUserDirects",
						"offset": 0,
						"slot": "62",
						"type": "t_mapping(t_uint256,t_mapping(t_uint256,t_array(t_uint256)dyn_storage))"
					}
				],
				"types": {
					"t_address": {
						"encoding": "inplace",
						"label": "address",
						"numberOfBytes": "20"
					},
					"t_array(t_struct(Deposit)2405_storage)dyn_storage": {
						"base": "t_struct(Deposit)2405_storage",
						"encoding": "dynamic_array",
						"label": "struct Storage.Deposit[]",
						"numberOfBytes": "32"
					},
					"t_array(t_struct(Income)2478_storage)dyn_storage": {
						"base": "t_struct(Income)2478_storage",
						"encoding": "dynamic_array",
						"label": "struct Storage.Income[]",
						"numberOfBytes": "32"
					},
					"t_array(t_uint256)7_storage": {
						"base": "t_uint256",
						"encoding": "inplace",
						"label": "uint256[7]",
						"numberOfBytes": "224"
					},
					"t_array(t_uint256)8_storage": {
						"base": "t_uint256",
						"encoding": "inplace",
						"label": "uint256[8]",
						"numberOfBytes": "256"
					},
					"t_array(t_uint256)dyn_storage": {
						"base": "t_uint256",
						"encoding": "dynamic_array",
						"label": "uint256[]",
						"numberOfBytes": "32"
					},
					"t_bool": {
						"encoding": "inplace",
						"label": "bool",
						"numberOfBytes": "1"
					},
					"t_contract(IERC20)232": {
						"encoding": "inplace",
						"label": "contract IERC20",
						"numberOfBytes": "20"
					},
					"t_mapping(t_address,t_uint256)": {
						"encoding": "mapping",
						"key": "t_address",
						"label": "mapping(address => uint256)",
						"numberOfBytes": "32",
						"value": "t_uint256"
					},
					"t_mapping(t_uint256,t_array(t_struct(Income)2478_storage)dyn_storage)": {
						"encoding": "mapping",
						"key": "t_uint256",
						"label": "mapping(uint256 => struct Storage.Income[])",
						"numberOfBytes": "32",
						"value": "t_array(t_struct(Income)2478_storage)dyn_storage"
					},
					"t_mapping(t_uint256,t_array(t_uint256)dyn_storage)": {
						"encoding": "mapping",
						"key": "t_uint256",
						"label": "mapping(uint256 => uint256[])",
						"numberOfBytes": "32",
						"value": "t_array(t_uint256)dyn_storage"
					},
					"t_mapping(t_uint256,t_bool)": {
						"encoding": "mapping",
						"key": "t_uint256",
						"label": "mapping(uint256 => bool)",
						"numberOfBytes": "32",
						"value": "t_bool"
					},
					"t_mapping(t_uint256,t_mapping(t_uint256,t_array(t_uint256)dyn_storage))": {
						"encoding": "mapping",
						"key": "t_uint256",
						"label": "mapping(uint256 => mapping(uint256 => uint256[]))",
						"numberOfBytes": "32",
						"value": "t_mapping(t_uint256,t_array(t_uint256)dyn_storage)"
					},
					"t_mapping(t_uint256,t_mapping(t_uint256,t_bool))": {
						"encoding": "mapping",
						"key": "t_uint256",
						"label": "mapping(uint256 => mapping(uint256 => bool))",
						"numberOfBytes": "32",
						"value": "t_mapping(t_uint256,t_bool)"
					},
					"t_mapping(t_uint256,t_mapping(t_uint256,t_struct(UserBooster)2674_storage))": {
						"encoding": "mapping",
						"key": "t_uint256",
						"label": "mapping(uint256 => mapping(uint256 => struct Storage.UserBooster))",
						"numberOfBytes": "32",
						"value": "t_mapping(t_uint256,t_struct(UserBooster)2674_storage)"
					},
					"t_mapping(t_uint256,t_mapping(t_uint256,t_struct(UserPool)2658_storage))": {
						"encoding": "mapping",
						"key": "t_uint256",
						"label": "mapping(uint256 => mapping(uint256 => struct Storage.UserPool))",
						"numberOfBytes": "32",
						"value": "t_mapping(t_uint256,t_struct(UserPool)2658_storage)"
					},
					"t_mapping(t_uint256,t_mapping(t_uint256,t_struct(UserPoolTopup)2663_storage))": {
						"encoding": "mapping",
						"key": "t_uint256",
						"label": "mapping(uint256 => mapping(uint256 => struct Storage.UserPoolTopup))",
						"numberOfBytes": "32",
						"value": "t_mapping(t_uint256,t_struct(UserPoolTopup)2663_storage)"
					},
					"t_mapping(t_uint256,t_mapping(t_uint256,t_struct(weeklyUser)2797_storage))": {
						"encoding": "mapping",
						"key": "t_uint256",
						"label": "mapping(uint256 => mapping(uint256 => struct Storage.weeklyUser))",
						"numberOfBytes": "32",
						"value": "t_mapping(t_uint256,t_struct(weeklyUser)2797_storage)"
					},
					"t_mapping(t_uint256,t_struct(User)2440_storage)": {
						"encoding": "mapping",
						"key": "t_uint256",
						"label": "mapping(uint256 => struct Storage.User)",
						"numberOfBytes": "32",
						"value": "t_struct(User)2440_storage"
					},
					"t_mapping(t_uint256,t_struct(UserBooster)2674_storage)": {
						"encoding": "mapping",
						"key": "t_uint256",
						"label": "mapping(uint256 => struct Storage.UserBooster)",
						"numberOfBytes": "32",
						"value": "t_struct(UserBooster)2674_storage"
					},
					"t_mapping(t_uint256,t_struct(UserIncome)2467_storage)": {
						"encoding": "mapping",
						"key": "t_uint256",
						"label": "mapping(uint256 => struct Storage.UserIncome)",
						"numberOfBytes": "32",
						"value": "t_struct(UserIncome)2467_storage"
					},
					"t_mapping(t_uint256,t_struct(UserPool)2658_storage)": {
						"encoding": "mapping",
						"key": "t_uint256",
						"label": "mapping(uint256 => struct Storage.UserPool)",
						"numberOfBytes": "32",
						"value": "t_struct(UserPool)2658_storage"
					},
					"t_mapping(t_uint256,t_struct(UserPoolTopup)2663_storage)": {
						"encoding": "mapping",
						"key": "t_uint256",
						"label": "mapping(uint256 => struct Storage.UserPoolTopup)",
						"numberOfBytes": "32",
						"value": "t_struct(UserPoolTopup)2663_storage"
					},
					"t_mapping(t_uint256,t_struct(WeeklyContest)2784_storage)": {
						"encoding": "mapping",
						"key": "t_uint256",
						"label": "mapping(uint256 => struct Storage.WeeklyContest)",
						"numberOfBytes": "32",
						"value": "t_struct(WeeklyContest)2784_storage"
					},
					"t_mapping(t_uint256,t_struct(weeklyUser)2797_storage)": {
						"encoding": "mapping",
						"key": "t_uint256",
						"label": "mapping(uint256 => struct Storage.weeklyUser)",
						"numberOfBytes": "32",
						"value": "t_struct(weeklyUser)2797_storage"
					},
					"t_mapping(t_uint256,t_uint256)": {
						"encoding": "mapping",
						"key": "t_uint256",
						"label": "mapping(uint256 => uint256)",
						"numberOfBytes": "32",
						"value": "t_uint256"
					},
					"t_struct(Deposit)2405_storage": {
						"encoding": "inplace",
						"label": "struct Storage.Deposit",
						"members": [
							{
								"astId": 2398,
								"contract": "contracts/modules/SponsorMatrix.sol:Nanakshahi",
								"label": "amount",
								"offset": 0,
								"slot": "0",
								"type": "t_uint256"
							},
							{
								"astId": 2400,
								"contract": "contracts/modules/SponsorMatrix.sol:Nanakshahi",
								"label": "withdrawn",
								"offset": 0,
								"slot": "1",
								"type": "t_uint256"
							},
							{
								"astId": 2402,
								"contract": "contracts/modules/SponsorMatrix.sol:Nanakshahi",
								"label": "start",
								"offset": 0,
								"slot": "2",
								"type": "t_uint256"
							},
							{
								"astId": 2404,
								"contract": "contracts/modules/SponsorMatrix.sol:Nanakshahi",
								"label": "depositType",
								"offset": 0,
								"slot": "3",
								"type": "t_uint8"
							}
						],
						"numberOfBytes": "128"
					},
					"t_struct(Income)2478_storage": {
						"encoding": "inplace",
						"label": "struct Storage.Income",
						"members": [
							{
								"astId": 2469,
								"contract": "contracts/modules/SponsorMatrix.sol:Nanakshahi",
								"label": "fromUserId",
								"offset": 0,
								"slot": "0",
								"type": "t_uint256"
							},
							{
								"astId": 2471,
								"contract": "contracts/modules/SponsorMatrix.sol:Nanakshahi",
								"label": "amount",
								"offset": 0,
								"slot": "1",
								"type": "t_uint256"
							},
							{
								"astId": 2473,
								"contract": "contracts/modules/SponsorMatrix.sol:Nanakshahi",
								"label": "packageLevel",
								"offset": 0,
								"slot": "2",
								"type": "t_uint256"
							},
							{
								"astId": 2475,
								"contract": "contracts/modules/SponsorMatrix.sol:Nanakshahi",
								"label": "timestamp",
								"offset": 0,
								"slot": "3",
								"type": "t_uint256"
							},
							{
								"astId": 2477,
								"contract": "contracts/modules/SponsorMatrix.sol:Nanakshahi",
								"label": "incomeType",
								"offset": 0,
								"slot": "4",
								"type": "t_uint256"
							}
						],
						"numberOfBytes": "160"
					},
					"t_struct(User)2440_storage": {
						"encoding": "inplace",
						"label": "struct Storage.User",
						"members": [
							{
								"astId": 2407,
								"contract": "contracts/modules/SponsorMatrix.sol:Nanakshahi",
								"label": "account",
								"offset": 0,
								"slot": "0",
								"type": "t_address"
							},
							{
								"astId": 2411,
								"contract": "contracts/modules/SponsorMatrix.sol:Nanakshahi",
								"label": "deposits",
								"offset": 0,
								"slot": "1",
								"type": "t_array(t_struct(Deposit)2405_storage)dyn_storage"
							},
							{
								"astId": 2413,
								"contract": "contracts/modules/SponsorMatrix.sol:Nanakshahi",
								"label": "checkpoint",
								"offset": 0,
								"slot": "2",
								"type": "t_uint256"
							},
							{
								"astId": 2415,
								"contract": "contracts/modules/SponsorMatrix.sol:Nanakshahi",
								"label": "id",
								"offset": 0,
								"slot": "3",
								"type": "t_uint256"
							},
							{
								"astId": 2417,
								"contract": "contracts/modules/SponsorMatrix.sol:Nanakshahi",
								"label": "sponsorId",
								"offset": 0,
								"slot": "4",
								"type": "t_uint256"
							},
							{
								"astId": 2419,
								"contract": "contracts/modules/SponsorMatrix.sol:Nanakshahi",
								"label": "uplineId",
								"offset": 0,
								"slot": "5",
								"type": "t_uint256"
							},
							{
								"astId": 2421,
								"contract": "contracts/modules/SponsorMatrix.sol:Nanakshahi",
								"label": "level",
								"offset": 0,
								"slot": "6",
								"type": "t_uint256"
							},
							{
								"astId": 2423,
								"contract": "contracts/modules/SponsorMatrix.sol:Nanakshahi",
								"label": "directTeam",
								"offset": 0,
								"slot": "7",
								"type": "t_uint256"
							},
							{
								"astId": 2425,
								"contract": "contracts/modules/SponsorMatrix.sol:Nanakshahi",
								"label": "directPoolQualified",
								"offset": 0,
								"slot": "8",
								"type": "t_uint256"
							},
							{
								"astId": 2427,
								"contract": "contracts/modules/SponsorMatrix.sol:Nanakshahi",
								"label": "totalMatrixTeam",
								"offset": 0,
								"slot": "9",
								"type": "t_uint256"
							},
							{
								"astId": 2429,
								"contract": "contracts/modules/SponsorMatrix.sol:Nanakshahi",
								"label": "totalDeposit",
								"offset": 0,
								"slot": "10",
								"type": "t_uint256"
							},
							{
								"astId": 2431,
								"contract": "contracts/modules/SponsorMatrix.sol:Nanakshahi",
								"label": "poollevel",
								"offset": 0,
								"slot": "11",
								"type": "t_uint256"
							},
							{
								"astId": 2433,
								"contract": "contracts/modules/SponsorMatrix.sol:Nanakshahi",
								"label": "poolDeposit",
								"offset": 0,
								"slot": "12",
								"type": "t_uint256"
							},
							{
								"astId": 2435,
								"contract": "contracts/modules/SponsorMatrix.sol:Nanakshahi",
								"label": "boosterlevel",
								"offset": 0,
								"slot": "13",
								"type": "t_uint256"
							},
							{
								"astId": 2437,
								"contract": "contracts/modules/SponsorMatrix.sol:Nanakshahi",
								"label": "boosterDeposit",
								"offset": 0,
								"slot": "14",
								"type": "t_uint256"
							},
							{
								"astId": 2439,
								"contract": "contracts/modules/SponsorMatrix.sol:Nanakshahi",
								"label": "registrationTime",
								"offset": 0,
								"slot": "15",
								"type": "t_uint256"
							}
						],
						"numberOfBytes": "512"
					},
					"t_struct(UserBooster)2674_storage": {
						"encoding": "inplace",
						"label": "struct Storage.UserBooster",
						"members": [
							{
								"astId": 2665,
								"contract": "contracts/modules/SponsorMatrix.sol:Nanakshahi",
								"label": "id",
								"offset": 0,
								"slot": "0",
								"type": "t_uint256"
							},
							{
								"astId": 2667,
								"contract": "contracts/modules/SponsorMatrix.sol:Nanakshahi",
								"label": "poolId",
								"offset": 0,
								"slot": "1",
								"type": "t_uint256"
							},
							{
								"astId": 2669,
								"contract": "contracts/modules/SponsorMatrix.sol:Nanakshahi",
								"label": "parentId",
								"offset": 0,
								"slot": "2",
								"type": "t_uint256"
							},
							{
								"astId": 2671,
								"contract": "contracts/modules/SponsorMatrix.sol:Nanakshahi",
								"label": "bonusCount",
								"offset": 0,
								"slot": "3",
								"type": "t_uint256"
							},
							{
								"astId": 2673,
								"contract": "contracts/modules/SponsorMatrix.sol:Nanakshahi",
								"label": "joinTime",
								"offset": 0,
								"slot": "4",
								"type": "t_uint256"
							}
						],
						"numberOfBytes": "160"
					},
					"t_struct(UserIncome)2467_storage": {
						"encoding": "inplace",
						"label": "struct Storage.UserIncome",
						"members": [
							{
								"astId": 2442,
								"contract": "contracts/modules/SponsorMatrix.sol:Nanakshahi",
								"label": "totalIncome",
								"offset": 0,
								"slot": "0",
								"type": "t_uint256"
							},
							{
								"astId": 2444,
								"contract": "contracts/modules/SponsorMatrix.sol:Nanakshahi",
								"label": "sponsorIncome",
								"offset": 0,
								"slot": "1",
								"type": "t_uint256"
							},
							{
								"astId": 2446,
								"contract": "contracts/modules/SponsorMatrix.sol:Nanakshahi",
								"label": "matrixIncome",
								"offset": 0,
								"slot": "2",
								"type": "t_uint256"
							},
							{
								"astId": 2448,
								"contract": "contracts/modules/SponsorMatrix.sol:Nanakshahi",
								"label": "levelBoosterIncome",
								"offset": 0,
								"slot": "3",
								"type": "t_uint256"
							},
							{
								"astId": 2450,
								"contract": "contracts/modules/SponsorMatrix.sol:Nanakshahi",
								"label": "levelIncome",
								"offset": 0,
								"slot": "4",
								"type": "t_uint256"
							},
							{
								"astId": 2452,
								"contract": "contracts/modules/SponsorMatrix.sol:Nanakshahi",
								"label": "royaltyIncome",
								"offset": 0,
								"slot": "5",
								"type": "t_uint256"
							},
							{
								"astId": 2454,
								"contract": "contracts/modules/SponsorMatrix.sol:Nanakshahi",
								"label": "royaltyIncomeClaimed",
								"offset": 0,
								"slot": "6",
								"type": "t_uint256"
							},
							{
								"astId": 2456,
								"contract": "contracts/modules/SponsorMatrix.sol:Nanakshahi",
								"label": "communityIncome",
								"offset": 0,
								"slot": "7",
								"type": "t_uint256"
							},
							{
								"astId": 2458,
								"contract": "contracts/modules/SponsorMatrix.sol:Nanakshahi",
								"label": "poolIncome",
								"offset": 0,
								"slot": "8",
								"type": "t_uint256"
							},
							{
								"astId": 2460,
								"contract": "contracts/modules/SponsorMatrix.sol:Nanakshahi",
								"label": "boosterIncome",
								"offset": 0,
								"slot": "9",
								"type": "t_uint256"
							},
							{
								"astId": 2462,
								"contract": "contracts/modules/SponsorMatrix.sol:Nanakshahi",
								"label": "weeklyContestIncome",
								"offset": 0,
								"slot": "10",
								"type": "t_uint256"
							},
							{
								"astId": 2464,
								"contract": "contracts/modules/SponsorMatrix.sol:Nanakshahi",
								"label": "monthlyRoyalty",
								"offset": 0,
								"slot": "11",
								"type": "t_uint256"
							},
							{
								"astId": 2466,
								"contract": "contracts/modules/SponsorMatrix.sol:Nanakshahi",
								"label": "monthlyTopRoyalty",
								"offset": 0,
								"slot": "12",
								"type": "t_uint256"
							}
						],
						"numberOfBytes": "416"
					},
					"t_struct(UserPool)2658_storage": {
						"encoding": "inplace",
						"label": "struct Storage.UserPool",
						"members": [
							{
								"astId": 2649,
								"contract": "contracts/modules/SponsorMatrix.sol:Nanakshahi",
								"label": "id",
								"offset": 0,
								"slot": "0",
								"type": "t_uint256"
							},
							{
								"astId": 2651,
								"contract": "contracts/modules/SponsorMatrix.sol:Nanakshahi",
								"label": "mainid",
								"offset": 0,
								"slot": "1",
								"type": "t_uint256"
							},
							{
								"astId": 2653,
								"contract": "contracts/modules/SponsorMatrix.sol:Nanakshahi",
								"label": "poolId",
								"offset": 0,
								"slot": "2",
								"type": "t_uint256"
							},
							{
								"astId": 2655,
								"contract": "contracts/modules/SponsorMatrix.sol:Nanakshahi",
								"label": "parentId",
								"offset": 0,
								"slot": "3",
								"type": "t_uint256"
							},
							{
								"astId": 2657,
								"contract": "contracts/modules/SponsorMatrix.sol:Nanakshahi",
								"label": "bonusCount",
								"offset": 0,
								"slot": "4",
								"type": "t_uint256"
							}
						],
						"numberOfBytes": "160"
					},
					"t_struct(UserPoolTopup)2663_storage": {
						"encoding": "inplace",
						"label": "struct Storage.UserPoolTopup",
						"members": [
							{
								"astId": 2660,
								"contract": "contracts/modules/SponsorMatrix.sol:Nanakshahi",
								"label": "nextPoolAmt",
								"offset": 0,
								"slot": "0",
								"type": "t_uint256"
							},
							{
								"astId": 2662,
								"contract": "contracts/modules/SponsorMatrix.sol:Nanakshahi",
								"label": "reTopupAmt",
								"offset": 0,
								"slot": "1",
								"type": "t_uint256"
							}
						],
						"numberOfBytes": "64"
					},
					"t_struct(WeeklyContest)2784_storage": {
						"encoding": "inplace",
						"label": "struct Storage.WeeklyContest",
						"members": [
							{
								"astId": 2767,
								"contract": "contracts/modules/SponsorMatrix.sol:Nanakshahi",
								"label": "roundId",
								"offset": 0,
								"slot": "0",
								"type": "t_uint256"
							},
							{
								"astId": 2769,
								"contract": "contracts/modules/SponsorMatrix.sol:Nanakshahi",
								"label": "totalReward",
								"offset": 0,
								"slot": "1",
								"type": "t_uint256"
							},
							{
								"astId": 2771,
								"contract": "contracts/modules/SponsorMatrix.sol:Nanakshahi",
								"label": "totalUsers",
								"offset": 0,
								"slot": "2",
								"type": "t_uint256"
							},
							{
								"astId": 2773,
								"contract": "contracts/modules/SponsorMatrix.sol:Nanakshahi",
								"label": "perUserReward",
								"offset": 0,
								"slot": "3",
								"type": "t_uint256"
							},
							{
								"astId": 2775,
								"contract": "contracts/modules/SponsorMatrix.sol:Nanakshahi",
								"label": "claimedCount",
								"offset": 0,
								"slot": "4",
								"type": "t_uint256"
							},
							{
								"astId": 2777,
								"contract": "contracts/modules/SponsorMatrix.sol:Nanakshahi",
								"label": "startTime",
								"offset": 0,
								"slot": "5",
								"type": "t_uint256"
							},
							{
								"astId": 2779,
								"contract": "contracts/modules/SponsorMatrix.sol:Nanakshahi",
								"label": "endTime",
								"offset": 0,
								"slot": "6",
								"type": "t_uint256"
							},
							{
								"astId": 2781,
								"contract": "contracts/modules/SponsorMatrix.sol:Nanakshahi",
								"label": "carryForward",
								"offset": 0,
								"slot": "7",
								"type": "t_uint256"
							},
							{
								"astId": 2783,
								"contract": "contracts/modules/SponsorMatrix.sol:Nanakshahi",
								"label": "closed",
								"offset": 0,
								"slot": "8",
								"type": "t_bool"
							}
						],
						"numberOfBytes": "288"
					},
					"t_struct(weeklyUser)2797_storage": {
						"encoding": "inplace",
						"label": "struct Storage.weeklyUser",
						"members": [
							{
								"astId": 2786,
								"contract": "contracts/modules/SponsorMatrix.sol:Nanakshahi",
								"label": "id",
								"offset": 0,
								"slot": "0",
								"type": "t_uint256"
							},
							{
								"astId": 2788,
								"contract": "contracts/modules/SponsorMatrix.sol:Nanakshahi",
								"label": "joinTime",
								"offset": 0,
								"slot": "1",
								"type": "t_uint256"
							},
							{
								"astId": 2790,
								"contract": "contracts/modules/SponsorMatrix.sol:Nanakshahi",
								"label": "roundId",
								"offset": 0,
								"slot": "2",
								"type": "t_uint256"
							},
							{
								"astId": 2792,
								"contract": "contracts/modules/SponsorMatrix.sol:Nanakshahi",
								"label": "claimTime",
								"offset": 0,
								"slot": "3",
								"type": "t_uint256"
							},
							{
								"astId": 2794,
								"contract": "contracts/modules/SponsorMatrix.sol:Nanakshahi",
								"label": "isClaimed",
								"offset": 0,
								"slot": "4",
								"type": "t_bool"
							},
							{
								"astId": 2796,
								"contract": "contracts/modules/SponsorMatrix.sol:Nanakshahi",
								"label": "isQualified",
								"offset": 1,
								"slot": "4",
								"type": "t_bool"
							}
						],
						"numberOfBytes": "160"
					},
					"t_uint256": {
						"encoding": "inplace",
						"label": "uint256",
						"numberOfBytes": "32"
					},
					"t_uint8": {
						"encoding": "inplace",
						"label": "uint8",
						"numberOfBytes": "1"
					}
				}
			},
			"userdoc": {
				"kind": "user",
				"methods": {},
				"version": 1
			}
		}
	}
}