{
	"contracts/modules/SponsorMatrix.sol": {
		"SponsorMatrix": {
			"abi": [
				{
					"inputs": [
						{
							"internalType": "address",
							"name": "_usdt",
							"type": "address"
						},
						{
							"internalType": "address",
							"name": "_creatorWallet",
							"type": "address"
						},
						{
							"internalType": "address",
							"name": "_systemMaintance",
							"type": "address"
						},
						{
							"internalType": "address",
							"name": "_teamDevelopment",
							"type": "address"
						}
					],
					"stateMutability": "nonpayable",
					"type": "constructor"
				},
				{
					"anonymous": false,
					"inputs": [
						{
							"indexed": false,
							"internalType": "uint256",
							"name": "amount",
							"type": "uint256"
						},
						{
							"indexed": false,
							"internalType": "uint256",
							"name": "usersCount",
							"type": "uint256"
						},
						{
							"indexed": false,
							"internalType": "uint256",
							"name": "perUser",
							"type": "uint256"
						}
					],
					"name": "CommunityBonusDistributed",
					"type": "event"
				},
				{
					"anonymous": false,
					"inputs": [
						{
							"indexed": true,
							"internalType": "address",
							"name": "to",
							"type": "address"
						},
						{
							"indexed": true,
							"internalType": "address",
							"name": "from",
							"type": "address"
						},
						{
							"indexed": false,
							"internalType": "uint256",
							"name": "amount",
							"type": "uint256"
						},
						{
							"indexed": false,
							"internalType": "uint256",
							"name": "packageLevel",
							"type": "uint256"
						},
						{
							"indexed": false,
							"internalType": "uint256",
							"name": "incomeType",
							"type": "uint256"
						}
					],
					"name": "IncomeDistributed",
					"type": "event"
				},
				{
					"anonymous": false,
					"inputs": [
						{
							"indexed": true,
							"internalType": "address",
							"name": "winner",
							"type": "address"
						},
						{
							"indexed": true,
							"internalType": "uint256",
							"name": "fromUserId",
							"type": "uint256"
						},
						{
							"indexed": false,
							"internalType": "uint256",
							"name": "amount",
							"type": "uint256"
						},
						{
							"indexed": false,
							"internalType": "uint256",
							"name": "timestamp",
							"type": "uint256"
						}
					],
					"name": "LotteryReward",
					"type": "event"
				},
				{
					"anonymous": false,
					"inputs": [
						{
							"indexed": true,
							"internalType": "address",
							"name": "user",
							"type": "address"
						},
						{
							"indexed": true,
							"internalType": "address",
							"name": "sponsor",
							"type": "address"
						},
						{
							"indexed": true,
							"internalType": "uint256",
							"name": "userId",
							"type": "uint256"
						},
						{
							"indexed": false,
							"internalType": "uint256",
							"name": "uplineId",
							"type": "uint256"
						}
					],
					"name": "Registration",
					"type": "event"
				},
				{
					"anonymous": false,
					"inputs": [
						{
							"indexed": true,
							"internalType": "address",
							"name": "user",
							"type": "address"
						},
						{
							"indexed": true,
							"internalType": "uint256",
							"name": "userId",
							"type": "uint256"
						},
						{
							"indexed": false,
							"internalType": "uint256",
							"name": "packageLevel",
							"type": "uint256"
						}
					],
					"name": "Upgrade",
					"type": "event"
				},
				{
					"inputs": [],
					"name": "ACC_PRECISION",
					"outputs": [
						{
							"internalType": "uint256",
							"name": "",
							"type": "uint256"
						}
					],
					"stateMutability": "view",
					"type": "function"
				},
				{
					"inputs": [],
					"name": "PERCENTS_DIVIDER",
					"outputs": [
						{
							"internalType": "uint256",
							"name": "",
							"type": "uint256"
						}
					],
					"stateMutability": "view",
					"type": "function"
				},
				{
					"inputs": [],
					"name": "ROI_CAP_DIVIDER",
					"outputs": [
						{
							"internalType": "uint256",
							"name": "",
							"type": "uint256"
						}
					],
					"stateMutability": "view",
					"type": "function"
				},
				{
					"inputs": [],
					"name": "ROI_CAP_MULTIPLIER",
					"outputs": [
						{
							"internalType": "uint256",
							"name": "",
							"type": "uint256"
						}
					],
					"stateMutability": "view",
					"type": "function"
				},
				{
					"inputs": [],
					"name": "TIME_STEP",
					"outputs": [
						{
							"internalType": "uint256",
							"name": "",
							"type": "uint256"
						}
					],
					"stateMutability": "view",
					"type": "function"
				},
				{
					"inputs": [
						{
							"internalType": "address",
							"name": "",
							"type": "address"
						}
					],
					"name": "addressToId",
					"outputs": [
						{
							"internalType": "uint256",
							"name": "",
							"type": "uint256"
						}
					],
					"stateMutability": "view",
					"type": "function"
				},
				{
					"inputs": [
						{
							"internalType": "uint256",
							"name": "_userId",
							"type": "uint256"
						}
					],
					"name": "claimCommunity",
					"outputs": [],
					"stateMutability": "nonpayable",
					"type": "function"
				},
				{
					"inputs": [],
					"name": "communityAccPerUser",
					"outputs": [
						{
							"internalType": "uint256",
							"name": "",
							"type": "uint256"
						}
					],
					"stateMutability": "view",
					"type": "function"
				},
				{
					"inputs": [
						{
							"internalType": "uint256",
							"name": "",
							"type": "uint256"
						}
					],
					"name": "communityDebt",
					"outputs": [
						{
							"internalType": "uint256",
							"name": "",
							"type": "uint256"
						}
					],
					"stateMutability": "view",
					"type": "function"
				},
				{
					"inputs": [],
					"name": "creatorWallet",
					"outputs": [
						{
							"internalType": "address",
							"name": "",
							"type": "address"
						}
					],
					"stateMutability": "view",
					"type": "function"
				},
				{
					"inputs": [],
					"name": "defaultRefId",
					"outputs": [
						{
							"internalType": "uint256",
							"name": "",
							"type": "uint256"
						}
					],
					"stateMutability": "view",
					"type": "function"
				},
				{
					"inputs": [
						{
							"internalType": "uint256",
							"name": "",
							"type": "uint256"
						},
						{
							"internalType": "uint256",
							"name": "",
							"type": "uint256"
						}
					],
					"name": "directReferrals",
					"outputs": [
						{
							"internalType": "uint256",
							"name": "",
							"type": "uint256"
						}
					],
					"stateMutability": "view",
					"type": "function"
				},
				{
					"inputs": [
						{
							"internalType": "uint256",
							"name": "",
							"type": "uint256"
						},
						{
							"internalType": "uint256",
							"name": "",
							"type": "uint256"
						}
					],
					"name": "incomeHistory",
					"outputs": [
						{
							"internalType": "uint256",
							"name": "fromUserId",
							"type": "uint256"
						},
						{
							"internalType": "uint256",
							"name": "amount",
							"type": "uint256"
						},
						{
							"internalType": "uint256",
							"name": "packageLevel",
							"type": "uint256"
						},
						{
							"internalType": "uint256",
							"name": "timestamp",
							"type": "uint256"
						},
						{
							"internalType": "uint256",
							"name": "incomeType",
							"type": "uint256"
						}
					],
					"stateMutability": "view",
					"type": "function"
				},
				{
					"inputs": [],
					"name": "lastLotteryRun",
					"outputs": [
						{
							"internalType": "uint256",
							"name": "",
							"type": "uint256"
						}
					],
					"stateMutability": "view",
					"type": "function"
				},
				{
					"inputs": [],
					"name": "lastLotteryWinner",
					"outputs": [
						{
							"internalType": "address",
							"name": "",
							"type": "address"
						}
					],
					"stateMutability": "view",
					"type": "function"
				},
				{
					"inputs": [],
					"name": "lotteryInterval",
					"outputs": [
						{
							"internalType": "uint256",
							"name": "",
							"type": "uint256"
						}
					],
					"stateMutability": "view",
					"type": "function"
				},
				{
					"inputs": [],
					"name": "lotteryPool",
					"outputs": [
						{
							"internalType": "uint256",
							"name": "",
							"type": "uint256"
						}
					],
					"stateMutability": "view",
					"type": "function"
				},
				{
					"inputs": [
						{
							"internalType": "uint256",
							"name": "",
							"type": "uint256"
						}
					],
					"name": "matrixDirect",
					"outputs": [
						{
							"internalType": "uint256",
							"name": "",
							"type": "uint256"
						}
					],
					"stateMutability": "view",
					"type": "function"
				},
				{
					"inputs": [],
					"name": "owner",
					"outputs": [
						{
							"internalType": "address",
							"name": "",
							"type": "address"
						}
					],
					"stateMutability": "view",
					"type": "function"
				},
				{
					"inputs": [
						{
							"internalType": "uint256",
							"name": "",
							"type": "uint256"
						}
					],
					"name": "packages",
					"outputs": [
						{
							"internalType": "uint256",
							"name": "",
							"type": "uint256"
						}
					],
					"stateMutability": "view",
					"type": "function"
				},
				{
					"inputs": [
						{
							"internalType": "uint256",
							"name": "_userId",
							"type": "uint256"
						}
					],
					"name": "pendingCommunity",
					"outputs": [
						{
							"internalType": "uint256",
							"name": "pendingGross",
							"type": "uint256"
						},
						{
							"internalType": "uint256",
							"name": "pendingAfterCap",
							"type": "uint256"
						}
					],
					"stateMutability": "view",
					"type": "function"
				},
				{
					"inputs": [
						{
							"internalType": "uint256",
							"name": "_sponsorId",
							"type": "uint256"
						}
					],
					"name": "register",
					"outputs": [],
					"stateMutability": "nonpayable",
					"type": "function"
				},
				{
					"inputs": [
						{
							"internalType": "uint256",
							"name": "",
							"type": "uint256"
						}
					],
					"name": "registeredUserIds",
					"outputs": [
						{
							"internalType": "uint256",
							"name": "",
							"type": "uint256"
						}
					],
					"stateMutability": "view",
					"type": "function"
				},
				{
					"inputs": [
						{
							"internalType": "uint256",
							"name": "",
							"type": "uint256"
						}
					],
					"name": "sponsorStructure",
					"outputs": [
						{
							"internalType": "uint256",
							"name": "package",
							"type": "uint256"
						},
						{
							"internalType": "uint256",
							"name": "sponsorIncome",
							"type": "uint256"
						},
						{
							"internalType": "uint256",
							"name": "lvlUpline",
							"type": "uint256"
						},
						{
							"internalType": "uint256",
							"name": "lvlUplineIncome",
							"type": "uint256"
						},
						{
							"internalType": "uint256",
							"name": "splitUpline",
							"type": "uint256"
						},
						{
							"internalType": "uint256",
							"name": "splitUplineIncome",
							"type": "uint256"
						}
					],
					"stateMutability": "view",
					"type": "function"
				},
				{
					"inputs": [],
					"name": "systemMaintance",
					"outputs": [
						{
							"internalType": "address",
							"name": "",
							"type": "address"
						}
					],
					"stateMutability": "view",
					"type": "function"
				},
				{
					"inputs": [],
					"name": "teamDevelopment",
					"outputs": [
						{
							"internalType": "address",
							"name": "",
							"type": "address"
						}
					],
					"stateMutability": "view",
					"type": "function"
				},
				{
					"inputs": [
						{
							"internalType": "uint256",
							"name": "",
							"type": "uint256"
						},
						{
							"internalType": "uint256",
							"name": "",
							"type": "uint256"
						},
						{
							"internalType": "uint256",
							"name": "",
							"type": "uint256"
						}
					],
					"name": "teams",
					"outputs": [
						{
							"internalType": "uint256",
							"name": "",
							"type": "uint256"
						}
					],
					"stateMutability": "view",
					"type": "function"
				},
				{
					"inputs": [],
					"name": "totalUsers",
					"outputs": [
						{
							"internalType": "uint256",
							"name": "",
							"type": "uint256"
						}
					],
					"stateMutability": "view",
					"type": "function"
				},
				{
					"inputs": [
						{
							"internalType": "uint256",
							"name": "_userId",
							"type": "uint256"
						}
					],
					"name": "upgrade",
					"outputs": [],
					"stateMutability": "nonpayable",
					"type": "function"
				},
				{
					"inputs": [],
					"name": "usdt",
					"outputs": [
						{
							"internalType": "contract IERC20",
							"name": "",
							"type": "address"
						}
					],
					"stateMutability": "view",
					"type": "function"
				},
				{
					"inputs": [
						{
							"internalType": "uint256",
							"name": "",
							"type": "uint256"
						}
					],
					"name": "userIncomes",
					"outputs": [
						{
							"internalType": "uint256",
							"name": "totalIncome",
							"type": "uint256"
						},
						{
							"internalType": "uint256",
							"name": "sponsorIncome",
							"type": "uint256"
						},
						{
							"internalType": "uint256",
							"name": "matrixIncome",
							"type": "uint256"
						},
						{
							"internalType": "uint256",
							"name": "levelBoosterIncome",
							"type": "uint256"
						},
						{
							"internalType": "uint256",
							"name": "levelIncome",
							"type": "uint256"
						},
						{
							"internalType": "uint256",
							"name": "royaltyIncome",
							"type": "uint256"
						},
						{
							"internalType": "uint256",
							"name": "royaltyIncomeClaimed",
							"type": "uint256"
						},
						{
							"internalType": "uint256",
							"name": "communityIncome",
							"type": "uint256"
						}
					],
					"stateMutability": "view",
					"type": "function"
				},
				{
					"inputs": [
						{
							"internalType": "uint256",
							"name": "",
							"type": "uint256"
						}
					],
					"name": "users",
					"outputs": [
						{
							"internalType": "address",
							"name": "account",
							"type": "address"
						},
						{
							"internalType": "uint256",
							"name": "checkpoint",
							"type": "uint256"
						},
						{
							"internalType": "uint256",
							"name": "id",
							"type": "uint256"
						},
						{
							"internalType": "uint256",
							"name": "sponsorId",
							"type": "uint256"
						},
						{
							"internalType": "uint256",
							"name": "uplineId",
							"type": "uint256"
						},
						{
							"internalType": "uint256",
							"name": "level",
							"type": "uint256"
						},
						{
							"internalType": "uint256",
							"name": "directTeam",
							"type": "uint256"
						},
						{
							"internalType": "uint256",
							"name": "totalMatrixTeam",
							"type": "uint256"
						},
						{
							"internalType": "uint256",
							"name": "totalDeposit",
							"type": "uint256"
						},
						{
							"internalType": "uint256",
							"name": "registrationTime",
							"type": "uint256"
						}
					],
					"stateMutability": "view",
					"type": "function"
				}
			],
			"devdoc": {
				"kind": "dev",
				"methods": {},
				"version": 1
			},
			"evm": {
				"assembly": "    /* \"contracts/modules/SponsorMatrix.sol\":756:23721  contract SponsorMatrix {... */\n  mstore(0x40, 0x80)\n    /* \"contracts/modules/SponsorMatrix.sol\":1322:1862  uint[] public packages = [... */\n  mload(0x40)\n  dup1\n  0x01e0\n  add\n  0x40\n  mstore\n  dup1\n    /* \"contracts/modules/SponsorMatrix.sol\":1358:1367  15 * 1e18 */\n  0xd02ab486cedc0000\n    /* \"contracts/modules/SponsorMatrix.sol\":1322:1862  uint[] public packages = [... */\n  0xffffffffffffffffffff\n  and\n  dup2\n  mstore\n  0x20\n  add\n    /* \"contracts/modules/SponsorMatrix.sol\":1390:1399  25 * 1e18 */\n  0x015af1d78b58c40000\n    /* \"contracts/modules/SponsorMatrix.sol\":1322:1862  uint[] public packages = [... */\n  0xffffffffffffffffffff\n  and\n  dup2\n  mstore\n  0x20\n  add\n    /* \"contracts/modules/SponsorMatrix.sol\":1422:1431  50 * 1e18 */\n  0x02b5e3af16b1880000\n    /* \"contracts/modules/SponsorMatrix.sol\":1322:1862  uint[] public packages = [... */\n  0xffffffffffffffffffff\n  and\n  dup2\n  mstore\n  0x20\n  add\n    /* \"contracts/modules/SponsorMatrix.sol\":1454:1464  100 * 1e18 */\n  0x056bc75e2d63100000\n    /* \"contracts/modules/SponsorMatrix.sol\":1322:1862  uint[] public packages = [... */\n  0xffffffffffffffffffff\n  and\n  dup2\n  mstore\n  0x20\n  add\n    /* \"contracts/modules/SponsorMatrix.sol\":1487:1497  200 * 1e18 */\n  0x0ad78ebc5ac6200000\n    /* \"contracts/modules/SponsorMatrix.sol\":1322:1862  uint[] public packages = [... */\n  0xffffffffffffffffffff\n  and\n  dup2\n  mstore\n  0x20\n  add\n    /* \"contracts/modules/SponsorMatrix.sol\":1520:1530  400 * 1e18 */\n  0x15af1d78b58c400000\n    /* \"contracts/modules/SponsorMatrix.sol\":1322:1862  uint[] public packages = [... */\n  0xffffffffffffffffffff\n  and\n  dup2\n  mstore\n  0x20\n  add\n    /* \"contracts/modules/SponsorMatrix.sol\":1553:1563  800 * 1e18 */\n  0x2b5e3af16b18800000\n    /* \"contracts/modules/SponsorMatrix.sol\":1322:1862  uint[] public packages = [... */\n  0xffffffffffffffffffff\n  and\n  dup2\n  mstore\n  0x20\n  add\n    /* \"contracts/modules/SponsorMatrix.sol\":1586:1597  1600 * 1e18 */\n  0x56bc75e2d631000000\n    /* \"contracts/modules/SponsorMatrix.sol\":1322:1862  uint[] public packages = [... */\n  0xffffffffffffffffffff\n  and\n  dup2\n  mstore\n  0x20\n  add\n    /* \"contracts/modules/SponsorMatrix.sol\":1620:1631  3200 * 1e18 */\n  0xad78ebc5ac62000000\n    /* \"contracts/modules/SponsorMatrix.sol\":1322:1862  uint[] public packages = [... */\n  0xffffffffffffffffffff\n  and\n  dup2\n  mstore\n  0x20\n  add\n    /* \"contracts/modules/SponsorMatrix.sol\":1654:1665  6400 * 1e18 */\n  0x015af1d78b58c4000000\n    /* \"contracts/modules/SponsorMatrix.sol\":1322:1862  uint[] public packages = [... */\n  0xffffffffffffffffffff\n  and\n  dup2\n  mstore\n  0x20\n  add\n    /* \"contracts/modules/SponsorMatrix.sol\":1688:1700  12800 * 1e18 */\n  0x02b5e3af16b188000000\n    /* \"contracts/modules/SponsorMatrix.sol\":1322:1862  uint[] public packages = [... */\n  0xffffffffffffffffffff\n  and\n  dup2\n  mstore\n  0x20\n  add\n    /* \"contracts/modules/SponsorMatrix.sol\":1723:1735  25600 * 1e18 */\n  0x056bc75e2d6310000000\n    /* \"contracts/modules/SponsorMatrix.sol\":1322:1862  uint[] public packages = [... */\n  0xffffffffffffffffffff\n  and\n  dup2\n  mstore\n  0x20\n  add\n    /* \"contracts/modules/SponsorMatrix.sol\":1758:1770  51200 * 1e18 */\n  0x0ad78ebc5ac620000000\n    /* \"contracts/modules/SponsorMatrix.sol\":1322:1862  uint[] public packages = [... */\n  0xffffffffffffffffffff\n  and\n  dup2\n  mstore\n  0x20\n  add\n    /* \"contracts/modules/SponsorMatrix.sol\":1793:1806  102400 * 1e18 */\n  0x15af1d78b58c40000000\n    /* \"contracts/modules/SponsorMatrix.sol\":1322:1862  uint[] public packages = [... */\n  0xffffffffffffffffffff\n  and\n  dup2\n  mstore\n  0x20\n  add\n    /* \"contracts/modules/SponsorMatrix.sol\":1829:1842  204800 * 1e18 */\n  0x2b5e3af16b1880000000\n    /* \"contracts/modules/SponsorMatrix.sol\":1322:1862  uint[] public packages = [... */\n  0xffffffffffffffffffff\n  and\n  dup2\n  mstore\n  pop\n  0x07\n  swap1\n  0x0f\n  tag_1\n  swap3\n  swap2\n  swap1\n  tag_2\n  jump\t// in\ntag_1:\n  pop\n    /* \"contracts/modules/SponsorMatrix.sol\":4263:4269  1 days */\n  0x015180\n    /* \"contracts/modules/SponsorMatrix.sol\":4233:4269  uint public lotteryInterval = 1 days */\n  0x15\n  sstore\n    /* \"contracts/modules/SponsorMatrix.sol\":4931:5841  constructor(address _usdt,address _creatorWallet, address _systemMaintance , address _teamDevelopment) {... */\n  callvalue\n  dup1\n  iszero\n  tag_3\n  jumpi\n  0x00\n  dup1\n  revert\ntag_3:\n  pop\n  mload(0x40)\n  sub(codesize, bytecodeSize)\n  dup1\n  bytecodeSize\n  dup4\n  codecopy\n  dup2\n  dup2\n  add\n  0x40\n  mstore\n  dup2\n  add\n  swap1\n  tag_4\n  swap2\n  swap1\n  tag_5\n  jump\t// in\ntag_4:\n    /* \"contracts/modules/SponsorMatrix.sol\":5059:5064  _usdt */\n  dup4\n    /* \"contracts/modules/SponsorMatrix.sol\":5045:5049  usdt */\n  0x00\n  dup1\n    /* \"contracts/modules/SponsorMatrix.sol\":5045:5065  usdt = IERC20(_usdt) */\n  0x0100\n  exp\n  dup2\n  sload\n  dup2\n  0xffffffffffffffffffffffffffffffffffffffff\n  mul\n  not\n  and\n  swap1\n  dup4\n  0xffffffffffffffffffffffffffffffffffffffff\n  and\n  mul\n  or\n  swap1\n  sstore\n  pop\n    /* \"contracts/modules/SponsorMatrix.sol\":5092:5106  _creatorWallet */\n  dup3\n    /* \"contracts/modules/SponsorMatrix.sol\":5076:5089  creatorWallet */\n  0x02\n  0x00\n    /* \"contracts/modules/SponsorMatrix.sol\":5076:5106  creatorWallet = _creatorWallet */\n  0x0100\n  exp\n  dup2\n  sload\n  dup2\n  0xffffffffffffffffffffffffffffffffffffffff\n  mul\n  not\n  and\n  swap1\n  dup4\n  0xffffffffffffffffffffffffffffffffffffffff\n  and\n  mul\n  or\n  swap1\n  sstore\n  pop\n    /* \"contracts/modules/SponsorMatrix.sol\":5135:5151  _systemMaintance */\n  dup2\n    /* \"contracts/modules/SponsorMatrix.sol\":5117:5132  systemMaintance */\n  0x03\n  0x00\n    /* \"contracts/modules/SponsorMatrix.sol\":5117:5151  systemMaintance = _systemMaintance */\n  0x0100\n  exp\n  dup2\n  sload\n  dup2\n  0xffffffffffffffffffffffffffffffffffffffff\n  mul\n  not\n  and\n  swap1\n  dup4\n  0xffffffffffffffffffffffffffffffffffffffff\n  and\n  mul\n  or\n  swap1\n  sstore\n  pop\n    /* \"contracts/modules/SponsorMatrix.sol\":5180:5196  _teamDevelopment */\n  dup1\n    /* \"contracts/modules/SponsorMatrix.sol\":5162:5177  teamDevelopment */\n  0x04\n  0x00\n    /* \"contracts/modules/SponsorMatrix.sol\":5162:5196  teamDevelopment = _teamDevelopment */\n  0x0100\n  exp\n  dup2\n  sload\n  dup2\n  0xffffffffffffffffffffffffffffffffffffffff\n  mul\n  not\n  and\n  swap1\n  dup4\n  0xffffffffffffffffffffffffffffffffffffffff\n  and\n  mul\n  or\n  swap1\n  sstore\n  pop\n    /* \"contracts/modules/SponsorMatrix.sol\":5222:5226  1000 */\n  0x03e8\n    /* \"contracts/modules/SponsorMatrix.sol\":5207:5219  defaultRefId */\n  0x05\n    /* \"contracts/modules/SponsorMatrix.sol\":5207:5226  defaultRefId = 1000 */\n  dup2\n  swap1\n  sstore\n  pop\n    /* \"contracts/modules/SponsorMatrix.sol\":5250:5251  1 */\n  0x01\n    /* \"contracts/modules/SponsorMatrix.sol\":5237:5247  totalUsers */\n  0x06\n    /* \"contracts/modules/SponsorMatrix.sol\":5237:5251  totalUsers = 1 */\n  dup2\n  swap1\n  sstore\n  pop\n    /* \"contracts/modules/SponsorMatrix.sol\":5311:5331  User storage creator */\n  0x00\n    /* \"contracts/modules/SponsorMatrix.sol\":5334:5339  users */\n  0x09\n    /* \"contracts/modules/SponsorMatrix.sol\":5334:5353  users[defaultRefId] */\n  0x00\n    /* \"contracts/modules/SponsorMatrix.sol\":5340:5352  defaultRefId */\n  sload(0x05)\n    /* \"contracts/modules/SponsorMatrix.sol\":5334:5353  users[defaultRefId] */\n  dup2\n  mstore\n  0x20\n  add\n  swap1\n  dup2\n  mstore\n  0x20\n  add\n  0x00\n  keccak256\n    /* \"contracts/modules/SponsorMatrix.sol\":5311:5353  User storage creator = users[defaultRefId] */\n  swap1\n  pop\n    /* \"contracts/modules/SponsorMatrix.sol\":5382:5396  _creatorWallet */\n  dup4\n    /* \"contracts/modules/SponsorMatrix.sol\":5364:5371  creator */\n  dup2\n    /* \"contracts/modules/SponsorMatrix.sol\":5364:5379  creator.account */\n  0x00\n  add\n  0x00\n    /* \"contracts/modules/SponsorMatrix.sol\":5364:5396  creator.account = _creatorWallet */\n  0x0100\n  exp\n  dup2\n  sload\n  dup2\n  0xffffffffffffffffffffffffffffffffffffffff\n  mul\n  not\n  and\n  swap1\n  dup4\n  0xffffffffffffffffffffffffffffffffffffffff\n  and\n  mul\n  or\n  swap1\n  sstore\n  pop\n    /* \"contracts/modules/SponsorMatrix.sol\":5420:5432  defaultRefId */\n  sload(0x05)\n    /* \"contracts/modules/SponsorMatrix.sol\":5407:5414  creator */\n  dup2\n    /* \"contracts/modules/SponsorMatrix.sol\":5407:5417  creator.id */\n  0x03\n  add\n    /* \"contracts/modules/SponsorMatrix.sol\":5407:5432  creator.id = defaultRefId */\n  dup2\n  swap1\n  sstore\n  pop\n    /* \"contracts/modules/SponsorMatrix.sol\":5459:5461  15 */\n  0x0f\n    /* \"contracts/modules/SponsorMatrix.sol\":5443:5450  creator */\n  dup2\n    /* \"contracts/modules/SponsorMatrix.sol\":5443:5456  creator.level */\n  0x06\n  add\n    /* \"contracts/modules/SponsorMatrix.sol\":5443:5461  creator.level = 15 */\n  dup2\n  swap1\n  sstore\n  pop\n    /* \"contracts/modules/SponsorMatrix.sol\":5530:5545  block.timestamp */\n  timestamp\n    /* \"contracts/modules/SponsorMatrix.sol\":5503:5510  creator */\n  dup2\n    /* \"contracts/modules/SponsorMatrix.sol\":5503:5527  creator.registrationTime */\n  0x0a\n  add\n    /* \"contracts/modules/SponsorMatrix.sol\":5503:5545  creator.registrationTime = block.timestamp */\n  dup2\n  swap1\n  sstore\n  pop\n    /* \"contracts/modules/SponsorMatrix.sol\":5610:5627  uint totalDeposit */\n  0x00\n    /* \"contracts/modules/SponsorMatrix.sol\":5646:5652  uint i */\n  dup1\n    /* \"contracts/modules/SponsorMatrix.sol\":5642:5725  for(uint i = 0; i < 15; i++) {... */\ntag_8:\n    /* \"contracts/modules/SponsorMatrix.sol\":5662:5664  15 */\n  0x0f\n    /* \"contracts/modules/SponsorMatrix.sol\":5658:5659  i */\n  dup2\n    /* \"contracts/modules/SponsorMatrix.sol\":5658:5664  i < 15 */\n  lt\n    /* \"contracts/modules/SponsorMatrix.sol\":5642:5725  for(uint i = 0; i < 15; i++) {... */\n  iszero\n  tag_9\n  jumpi\n    /* \"contracts/modules/SponsorMatrix.sol\":5702:5710  packages */\n  0x07\n    /* \"contracts/modules/SponsorMatrix.sol\":5711:5712  i */\n  dup2\n    /* \"contracts/modules/SponsorMatrix.sol\":5702:5713  packages[i] */\n  dup2\n  sload\n  dup2\n  lt\n  tag_11\n  jumpi\n  tag_12\n  tag_13\n  jump\t// in\ntag_12:\ntag_11:\n  swap1\n  0x00\n  mstore\n  keccak256(0x00, 0x20)\n  add\n  sload\n    /* \"contracts/modules/SponsorMatrix.sol\":5686:5713  totalDeposit += packages[i] */\n  dup3\n  tag_15\n  swap2\n  swap1\n  tag_16\n  jump\t// in\ntag_15:\n  swap2\n  pop\n    /* \"contracts/modules/SponsorMatrix.sol\":5666:5669  i++ */\n  dup1\n  dup1\n  tag_17\n  swap1\n  tag_18\n  jump\t// in\ntag_17:\n  swap2\n  pop\n  pop\n    /* \"contracts/modules/SponsorMatrix.sol\":5642:5725  for(uint i = 0; i < 15; i++) {... */\n  jump(tag_8)\ntag_9:\n  pop\n    /* \"contracts/modules/SponsorMatrix.sol\":5758:5770  totalDeposit */\n  dup1\n    /* \"contracts/modules/SponsorMatrix.sol\":5735:5742  creator */\n  dup3\n    /* \"contracts/modules/SponsorMatrix.sol\":5735:5755  creator.totalDeposit */\n  0x09\n  add\n    /* \"contracts/modules/SponsorMatrix.sol\":5735:5770  creator.totalDeposit = totalDeposit */\n  dup2\n  swap1\n  sstore\n  pop\n    /* \"contracts/modules/SponsorMatrix.sol\":5811:5823  defaultRefId */\n  sload(0x05)\n    /* \"contracts/modules/SponsorMatrix.sol\":5781:5792  addressToId */\n  0x08\n    /* \"contracts/modules/SponsorMatrix.sol\":5781:5808  addressToId[_creatorWallet] */\n  0x00\n    /* \"contracts/modules/SponsorMatrix.sol\":5793:5807  _creatorWallet */\n  dup8\n    /* \"contracts/modules/SponsorMatrix.sol\":5781:5808  addressToId[_creatorWallet] */\n  0xffffffffffffffffffffffffffffffffffffffff\n  and\n  0xffffffffffffffffffffffffffffffffffffffff\n  and\n  dup2\n  mstore\n  0x20\n  add\n  swap1\n  dup2\n  mstore\n  0x20\n  add\n  0x00\n  keccak256\n    /* \"contracts/modules/SponsorMatrix.sol\":5781:5823  addressToId[_creatorWallet] = defaultRefId */\n  dup2\n  swap1\n  sstore\n  pop\n    /* \"contracts/modules/SponsorMatrix.sol\":5034:5841  {... */\n  pop\n  pop\n    /* \"contracts/modules/SponsorMatrix.sol\":4931:5841  constructor(address _usdt,address _creatorWallet, address _systemMaintance , address _teamDevelopment) {... */\n  pop\n  pop\n  pop\n  pop\n    /* \"contracts/modules/SponsorMatrix.sol\":756:23721  contract SponsorMatrix {... */\n  jump(tag_19)\ntag_2:\n  dup3\n  dup1\n  sload\n  dup3\n  dup3\n  sstore\n  swap1\n  0x00\n  mstore\n  keccak256(0x00, 0x20)\n  swap1\n  dup2\n  add\n  swap3\n  dup3\n  iszero\n  tag_20\n  jumpi\n  swap2\n  0x20\n  mul\n  dup3\n  add\ntag_21:\n  dup3\n  dup2\n  gt\n  iszero\n  tag_22\n  jumpi\n  dup3\n  mload\n  dup3\n  swap1\n  0xffffffffffffffffffff\n  and\n  swap1\n  sstore\n  swap2\n  0x20\n  add\n  swap2\n  swap1\n  0x01\n  add\n  swap1\n  jump(tag_21)\ntag_22:\ntag_20:\n  pop\n  swap1\n  pop\n  tag_23\n  swap2\n  swap1\n  tag_24\n  jump\t// in\ntag_23:\n  pop\n  swap1\n  jump\t// out\ntag_24:\ntag_25:\n  dup1\n  dup3\n  gt\n  iszero\n  tag_26\n  jumpi\n  0x00\n  dup2\n  0x00\n  swap1\n  sstore\n  pop\n  0x01\n  add\n  jump(tag_25)\ntag_26:\n  pop\n  swap1\n  jump\t// out\n    /* \"#utility.yul\":88:205   */\ntag_28:\n    /* \"#utility.yul\":197:198   */\n  0x00\n    /* \"#utility.yul\":194:195   */\n  dup1\n    /* \"#utility.yul\":187:199   */\n  revert\n    /* \"#utility.yul\":334:460   */\ntag_30:\n    /* \"#utility.yul\":371:378   */\n  0x00\n    /* \"#utility.yul\":411:453   */\n  0xffffffffffffffffffffffffffffffffffffffff\n    /* \"#utility.yul\":404:409   */\n  dup3\n    /* \"#utility.yul\":400:454   */\n  and\n    /* \"#utility.yul\":389:454   */\n  swap1\n  pop\n    /* \"#utility.yul\":334:460   */\n  swap2\n  swap1\n  pop\n  jump\t// out\n    /* \"#utility.yul\":466:562   */\ntag_31:\n    /* \"#utility.yul\":503:510   */\n  0x00\n    /* \"#utility.yul\":532:556   */\n  tag_42\n    /* \"#utility.yul\":550:555   */\n  dup3\n    /* \"#utility.yul\":532:556   */\n  tag_30\n  jump\t// in\ntag_42:\n    /* \"#utility.yul\":521:556   */\n  swap1\n  pop\n    /* \"#utility.yul\":466:562   */\n  swap2\n  swap1\n  pop\n  jump\t// out\n    /* \"#utility.yul\":568:690   */\ntag_32:\n    /* \"#utility.yul\":641:665   */\n  tag_44\n    /* \"#utility.yul\":659:664   */\n  dup2\n    /* \"#utility.yul\":641:665   */\n  tag_31\n  jump\t// in\ntag_44:\n    /* \"#utility.yul\":634:639   */\n  dup2\n    /* \"#utility.yul\":631:666   */\n  eq\n    /* \"#utility.yul\":621:684   */\n  tag_45\n  jumpi\n    /* \"#utility.yul\":680:681   */\n  0x00\n    /* \"#utility.yul\":677:678   */\n  dup1\n    /* \"#utility.yul\":670:682   */\n  revert\n    /* \"#utility.yul\":621:684   */\ntag_45:\n    /* \"#utility.yul\":568:690   */\n  pop\n  jump\t// out\n    /* \"#utility.yul\":696:839   */\ntag_33:\n    /* \"#utility.yul\":753:758   */\n  0x00\n    /* \"#utility.yul\":784:790   */\n  dup2\n    /* \"#utility.yul\":778:791   */\n  mload\n    /* \"#utility.yul\":769:791   */\n  swap1\n  pop\n    /* \"#utility.yul\":800:833   */\n  tag_47\n    /* \"#utility.yul\":827:832   */\n  dup2\n    /* \"#utility.yul\":800:833   */\n  tag_32\n  jump\t// in\ntag_47:\n    /* \"#utility.yul\":696:839   */\n  swap3\n  swap2\n  pop\n  pop\n  jump\t// out\n    /* \"#utility.yul\":845:1665   */\ntag_5:\n    /* \"#utility.yul\":942:948   */\n  0x00\n    /* \"#utility.yul\":950:956   */\n  dup1\n    /* \"#utility.yul\":958:964   */\n  0x00\n    /* \"#utility.yul\":966:972   */\n  dup1\n    /* \"#utility.yul\":1015:1018   */\n  0x80\n    /* \"#utility.yul\":1003:1012   */\n  dup6\n    /* \"#utility.yul\":994:1001   */\n  dup8\n    /* \"#utility.yul\":990:1013   */\n  sub\n    /* \"#utility.yul\":986:1019   */\n  slt\n    /* \"#utility.yul\":983:1103   */\n  iszero\n  tag_49\n  jumpi\n    /* \"#utility.yul\":1022:1101   */\n  tag_50\n  tag_28\n  jump\t// in\ntag_50:\n    /* \"#utility.yul\":983:1103   */\ntag_49:\n    /* \"#utility.yul\":1142:1143   */\n  0x00\n    /* \"#utility.yul\":1167:1231   */\n  tag_51\n    /* \"#utility.yul\":1223:1230   */\n  dup8\n    /* \"#utility.yul\":1214:1220   */\n  dup3\n    /* \"#utility.yul\":1203:1212   */\n  dup9\n    /* \"#utility.yul\":1199:1221   */\n  add\n    /* \"#utility.yul\":1167:1231   */\n  tag_33\n  jump\t// in\ntag_51:\n    /* \"#utility.yul\":1157:1231   */\n  swap5\n  pop\n    /* \"#utility.yul\":1113:1241   */\n  pop\n    /* \"#utility.yul\":1280:1282   */\n  0x20\n    /* \"#utility.yul\":1306:1370   */\n  tag_52\n    /* \"#utility.yul\":1362:1369   */\n  dup8\n    /* \"#utility.yul\":1353:1359   */\n  dup3\n    /* \"#utility.yul\":1342:1351   */\n  dup9\n    /* \"#utility.yul\":1338:1360   */\n  add\n    /* \"#utility.yul\":1306:1370   */\n  tag_33\n  jump\t// in\ntag_52:\n    /* \"#utility.yul\":1296:1370   */\n  swap4\n  pop\n    /* \"#utility.yul\":1251:1380   */\n  pop\n    /* \"#utility.yul\":1419:1421   */\n  0x40\n    /* \"#utility.yul\":1445:1509   */\n  tag_53\n    /* \"#utility.yul\":1501:1508   */\n  dup8\n    /* \"#utility.yul\":1492:1498   */\n  dup3\n    /* \"#utility.yul\":1481:1490   */\n  dup9\n    /* \"#utility.yul\":1477:1499   */\n  add\n    /* \"#utility.yul\":1445:1509   */\n  tag_33\n  jump\t// in\ntag_53:\n    /* \"#utility.yul\":1435:1509   */\n  swap3\n  pop\n    /* \"#utility.yul\":1390:1519   */\n  pop\n    /* \"#utility.yul\":1558:1560   */\n  0x60\n    /* \"#utility.yul\":1584:1648   */\n  tag_54\n    /* \"#utility.yul\":1640:1647   */\n  dup8\n    /* \"#utility.yul\":1631:1637   */\n  dup3\n    /* \"#utility.yul\":1620:1629   */\n  dup9\n    /* \"#utility.yul\":1616:1638   */\n  add\n    /* \"#utility.yul\":1584:1648   */\n  tag_33\n  jump\t// in\ntag_54:\n    /* \"#utility.yul\":1574:1648   */\n  swap2\n  pop\n    /* \"#utility.yul\":1529:1658   */\n  pop\n    /* \"#utility.yul\":845:1665   */\n  swap3\n  swap6\n  swap2\n  swap5\n  pop\n  swap3\n  pop\n  jump\t// out\n    /* \"#utility.yul\":1671:1851   */\ntag_13:\n    /* \"#utility.yul\":1719:1796   */\n  0x4e487b7100000000000000000000000000000000000000000000000000000000\n    /* \"#utility.yul\":1716:1717   */\n  0x00\n    /* \"#utility.yul\":1709:1797   */\n  mstore\n    /* \"#utility.yul\":1816:1820   */\n  0x32\n    /* \"#utility.yul\":1813:1814   */\n  0x04\n    /* \"#utility.yul\":1806:1821   */\n  mstore\n    /* \"#utility.yul\":1840:1844   */\n  0x24\n    /* \"#utility.yul\":1837:1838   */\n  0x00\n    /* \"#utility.yul\":1830:1845   */\n  revert\n    /* \"#utility.yul\":1857:1934   */\ntag_34:\n    /* \"#utility.yul\":1894:1901   */\n  0x00\n    /* \"#utility.yul\":1923:1928   */\n  dup2\n    /* \"#utility.yul\":1912:1928   */\n  swap1\n  pop\n    /* \"#utility.yul\":1857:1934   */\n  swap2\n  swap1\n  pop\n  jump\t// out\n    /* \"#utility.yul\":1940:2120   */\ntag_35:\n    /* \"#utility.yul\":1988:2065   */\n  0x4e487b7100000000000000000000000000000000000000000000000000000000\n    /* \"#utility.yul\":1985:1986   */\n  0x00\n    /* \"#utility.yul\":1978:2066   */\n  mstore\n    /* \"#utility.yul\":2085:2089   */\n  0x11\n    /* \"#utility.yul\":2082:2083   */\n  0x04\n    /* \"#utility.yul\":2075:2090   */\n  mstore\n    /* \"#utility.yul\":2109:2113   */\n  0x24\n    /* \"#utility.yul\":2106:2107   */\n  0x00\n    /* \"#utility.yul\":2099:2114   */\n  revert\n    /* \"#utility.yul\":2126:2317   */\ntag_16:\n    /* \"#utility.yul\":2166:2169   */\n  0x00\n    /* \"#utility.yul\":2185:2205   */\n  tag_59\n    /* \"#utility.yul\":2203:2204   */\n  dup3\n    /* \"#utility.yul\":2185:2205   */\n  tag_34\n  jump\t// in\ntag_59:\n    /* \"#utility.yul\":2180:2205   */\n  swap2\n  pop\n    /* \"#utility.yul\":2219:2239   */\n  tag_60\n    /* \"#utility.yul\":2237:2238   */\n  dup4\n    /* \"#utility.yul\":2219:2239   */\n  tag_34\n  jump\t// in\ntag_60:\n    /* \"#utility.yul\":2214:2239   */\n  swap3\n  pop\n    /* \"#utility.yul\":2262:2263   */\n  dup3\n    /* \"#utility.yul\":2259:2260   */\n  dup3\n    /* \"#utility.yul\":2255:2264   */\n  add\n    /* \"#utility.yul\":2248:2264   */\n  swap1\n  pop\n    /* \"#utility.yul\":2283:2286   */\n  dup1\n    /* \"#utility.yul\":2280:2281   */\n  dup3\n    /* \"#utility.yul\":2277:2287   */\n  gt\n    /* \"#utility.yul\":2274:2310   */\n  iszero\n  tag_61\n  jumpi\n    /* \"#utility.yul\":2290:2308   */\n  tag_62\n  tag_35\n  jump\t// in\ntag_62:\n    /* \"#utility.yul\":2274:2310   */\ntag_61:\n    /* \"#utility.yul\":2126:2317   */\n  swap3\n  swap2\n  pop\n  pop\n  jump\t// out\n    /* \"#utility.yul\":2323:2556   */\ntag_18:\n    /* \"#utility.yul\":2362:2365   */\n  0x00\n    /* \"#utility.yul\":2385:2409   */\n  tag_64\n    /* \"#utility.yul\":2403:2408   */\n  dup3\n    /* \"#utility.yul\":2385:2409   */\n  tag_34\n  jump\t// in\ntag_64:\n    /* \"#utility.yul\":2376:2409   */\n  swap2\n  pop\n    /* \"#utility.yul\":2431:2497   */\n  0xffffffffffffffffffffffffffffffffffffffffffffffffffffffffffffffff\n    /* \"#utility.yul\":2424:2429   */\n  dup3\n    /* \"#utility.yul\":2421:2498   */\n  sub\n    /* \"#utility.yul\":2418:2521   */\n  tag_65\n  jumpi\n    /* \"#utility.yul\":2501:2519   */\n  tag_66\n  tag_35\n  jump\t// in\ntag_66:\n    /* \"#utility.yul\":2418:2521   */\ntag_65:\n    /* \"#utility.yul\":2548:2549   */\n  0x01\n    /* \"#utility.yul\":2541:2546   */\n  dup3\n    /* \"#utility.yul\":2537:2550   */\n  add\n    /* \"#utility.yul\":2530:2550   */\n  swap1\n  pop\n    /* \"#utility.yul\":2323:2556   */\n  swap2\n  swap1\n  pop\n  jump\t// out\n    /* \"contracts/modules/SponsorMatrix.sol\":756:23721  contract SponsorMatrix {... */\ntag_19:\n  dataSize(sub_0)\n  dup1\n  dataOffset(sub_0)\n  0x00\n  codecopy\n  0x00\n  return\nstop\n\nsub_0: assembly {\n        /* \"contracts/modules/SponsorMatrix.sol\":756:23721  contract SponsorMatrix {... */\n      mstore(0x40, 0x80)\n      callvalue\n      dup1\n      iszero\n      tag_1\n      jumpi\n      0x00\n      dup1\n      revert\n    tag_1:\n      pop\n      jumpi(tag_2, lt(calldatasize, 0x04))\n      shr(0xe0, calldataload(0x00))\n      dup1\n      0x5ec64a44\n      gt\n      tag_35\n      jumpi\n      dup1\n      0xbff1f9e1\n      gt\n      tag_36\n      jumpi\n      dup1\n      0xe9e34a16\n      gt\n      tag_37\n      jumpi\n      dup1\n      0xe9e34a16\n      eq\n      tag_31\n      jumpi\n      dup1\n      0xec597e6f\n      eq\n      tag_32\n      jumpi\n      dup1\n      0xf207564e\n      eq\n      tag_33\n      jumpi\n      dup1\n      0xf5d74d93\n      eq\n      tag_34\n      jumpi\n      jump(tag_2)\n    tag_37:\n      dup1\n      0xbff1f9e1\n      eq\n      tag_27\n      jumpi\n      dup1\n      0xc216212a\n      eq\n      tag_28\n      jumpi\n      dup1\n      0xcb0e0d7d\n      eq\n      tag_29\n      jumpi\n      dup1\n      0xd54d6ddb\n      eq\n      tag_30\n      jumpi\n      jump(tag_2)\n    tag_36:\n      dup1\n      0x7cdc65f2\n      gt\n      tag_38\n      jumpi\n      dup1\n      0x7cdc65f2\n      eq\n      tag_23\n      jumpi\n      dup1\n      0x81a0b816\n      eq\n      tag_24\n      jumpi\n      dup1\n      0x88afbe3e\n      eq\n      tag_25\n      jumpi\n      dup1\n      0x8da5cb5b\n      eq\n      tag_26\n      jumpi\n      jump(tag_2)\n    tag_38:\n      dup1\n      0x5ec64a44\n      eq\n      tag_19\n      jumpi\n      dup1\n      0x70c8d770\n      eq\n      tag_20\n      jumpi\n      dup1\n      0x736fb514\n      eq\n      tag_21\n      jumpi\n      dup1\n      0x78f6ad6d\n      eq\n      tag_22\n      jumpi\n      jump(tag_2)\n    tag_35:\n      dup1\n      0x365b98b2\n      gt\n      tag_39\n      jumpi\n      dup1\n      0x46b9dece\n      gt\n      tag_40\n      jumpi\n      dup1\n      0x46b9dece\n      eq\n      tag_15\n      jumpi\n      dup1\n      0x52a8c4c4\n      eq\n      tag_16\n      jumpi\n      dup1\n      0x58c7d352\n      eq\n      tag_17\n      jumpi\n      dup1\n      0x5aabf7f1\n      eq\n      tag_18\n      jumpi\n      jump(tag_2)\n    tag_40:\n      dup1\n      0x365b98b2\n      eq\n      tag_11\n      jumpi\n      dup1\n      0x375b43b4\n      eq\n      tag_12\n      jumpi\n      dup1\n      0x39ab3603\n      eq\n      tag_13\n      jumpi\n      dup1\n      0x45977d03\n      eq\n      tag_14\n      jumpi\n      jump(tag_2)\n    tag_39:\n      dup1\n      0x2c831633\n      gt\n      tag_41\n      jumpi\n      dup1\n      0x2c831633\n      eq\n      tag_7\n      jumpi\n      dup1\n      0x2f48ab7d\n      eq\n      tag_8\n      jumpi\n      dup1\n      0x32bc298c\n      eq\n      tag_9\n      jumpi\n      dup1\n      0x32fcd966\n      eq\n      tag_10\n      jumpi\n      jump(tag_2)\n    tag_41:\n      dup1\n      0x01be02b2\n      eq\n      tag_3\n      jumpi\n      dup1\n      0x01c234a8\n      eq\n      tag_4\n      jumpi\n      dup1\n      0x18ab487f\n      eq\n      tag_5\n      jumpi\n      dup1\n      0x24513088\n      eq\n      tag_6\n      jumpi\n    tag_2:\n      0x00\n      dup1\n      revert\n        /* \"contracts/modules/SponsorMatrix.sol\":4200:4226  uint public lastLotteryRun */\n    tag_3:\n      tag_42\n      tag_43\n      jump\t// in\n    tag_42:\n      mload(0x40)\n      tag_44\n      swap2\n      swap1\n      tag_45\n      jump\t// in\n    tag_44:\n      mload(0x40)\n      dup1\n      swap2\n      sub\n      swap1\n      return\n        /* \"contracts/modules/SponsorMatrix.sol\":1103:1151  uint256 public constant PERCENTS_DIVIDER = 10000 */\n    tag_4:\n      tag_46\n      tag_47\n      jump\t// in\n    tag_46:\n      mload(0x40)\n      tag_48\n      swap2\n      swap1\n      tag_45\n      jump\t// in\n    tag_48:\n      mload(0x40)\n      dup1\n      swap2\n      sub\n      swap1\n      return\n        /* \"contracts/modules/SponsorMatrix.sol\":4054:4099  mapping(uint => uint256) public communityDebt */\n    tag_5:\n      tag_49\n      0x04\n      dup1\n      calldatasize\n      sub\n      dup2\n      add\n      swap1\n      tag_50\n      swap2\n      swap1\n      tag_51\n      jump\t// in\n    tag_50:\n      tag_52\n      jump\t// in\n    tag_49:\n      mload(0x40)\n      tag_53\n      swap2\n      swap1\n      tag_45\n      jump\t// in\n    tag_53:\n      mload(0x40)\n      dup1\n      swap2\n      sub\n      swap1\n      return\n        /* \"contracts/modules/SponsorMatrix.sol\":13288:13724  function pendingCommunity(uint _userId) external view returns (uint pendingGross, uint pendingAfterCap) {... */\n    tag_6:\n      tag_54\n      0x04\n      dup1\n      calldatasize\n      sub\n      dup2\n      add\n      swap1\n      tag_55\n      swap2\n      swap1\n      tag_51\n      jump\t// in\n    tag_55:\n      tag_56\n      jump\t// in\n    tag_54:\n      mload(0x40)\n      tag_57\n      swap3\n      swap2\n      swap1\n      tag_58\n      jump\t// in\n    tag_57:\n      mload(0x40)\n      dup1\n      swap2\n      sub\n      swap1\n      return\n        /* \"contracts/modules/SponsorMatrix.sol\":4131:4154  uint public lotteryPool */\n    tag_7:\n      tag_59\n      tag_60\n      jump\t// in\n    tag_59:\n      mload(0x40)\n      tag_61\n      swap2\n      swap1\n      tag_45\n      jump\t// in\n    tag_61:\n      mload(0x40)\n      dup1\n      swap2\n      sub\n      swap1\n      return\n        /* \"contracts/modules/SponsorMatrix.sol\":786:804  IERC20 public usdt */\n    tag_8:\n      tag_62\n      tag_63\n      jump\t// in\n    tag_62:\n      mload(0x40)\n      tag_64\n      swap2\n      swap1\n      tag_65\n      jump\t// in\n    tag_64:\n      mload(0x40)\n      dup1\n      swap2\n      sub\n      swap1\n      return\n        /* \"contracts/modules/SponsorMatrix.sol\":1158:1200  uint256 public constant TIME_STEP = 1 days */\n    tag_9:\n      tag_66\n      tag_67\n      jump\t// in\n    tag_66:\n      mload(0x40)\n      tag_68\n      swap2\n      swap1\n      tag_45\n      jump\t// in\n    tag_68:\n      mload(0x40)\n      dup1\n      swap2\n      sub\n      swap1\n      return\n        /* \"contracts/modules/SponsorMatrix.sol\":3924:3968  uint256 public constant ACC_PRECISION = 1e18 */\n    tag_10:\n      tag_69\n      tag_70\n      jump\t// in\n    tag_69:\n      mload(0x40)\n      tag_71\n      swap2\n      swap1\n      tag_45\n      jump\t// in\n    tag_71:\n      mload(0x40)\n      dup1\n      swap2\n      sub\n      swap1\n      return\n        /* \"contracts/modules/SponsorMatrix.sol\":3396:3430  mapping(uint => User) public users */\n    tag_11:\n      tag_72\n      0x04\n      dup1\n      calldatasize\n      sub\n      dup2\n      add\n      swap1\n      tag_73\n      swap2\n      swap1\n      tag_51\n      jump\t// in\n    tag_73:\n      tag_74\n      jump\t// in\n    tag_72:\n      mload(0x40)\n      tag_75\n      swap11\n      swap10\n      swap9\n      swap8\n      swap7\n      swap6\n      swap5\n      swap4\n      swap3\n      swap2\n      swap1\n      tag_76\n      jump\t// in\n    tag_75:\n      mload(0x40)\n      dup1\n      swap2\n      sub\n      swap1\n      return\n        /* \"contracts/modules/SponsorMatrix.sol\":1207:1254  uint256 public constant ROI_CAP_MULTIPLIER = 25 */\n    tag_12:\n      tag_77\n      tag_78\n      jump\t// in\n    tag_77:\n      mload(0x40)\n      tag_79\n      swap2\n      swap1\n      tag_45\n      jump\t// in\n    tag_79:\n      mload(0x40)\n      dup1\n      swap2\n      sub\n      swap1\n      return\n        /* \"contracts/modules/SponsorMatrix.sol\":4276:4307  uint[] public registeredUserIds */\n    tag_13:\n      tag_80\n      0x04\n      dup1\n      calldatasize\n      sub\n      dup2\n      add\n      swap1\n      tag_81\n      swap2\n      swap1\n      tag_51\n      jump\t// in\n    tag_81:\n      tag_82\n      jump\t// in\n    tag_80:\n      mload(0x40)\n      tag_83\n      swap2\n      swap1\n      tag_45\n      jump\t// in\n    tag_83:\n      mload(0x40)\n      dup1\n      swap2\n      sub\n      swap1\n      return\n        /* \"contracts/modules/SponsorMatrix.sol\":8859:10596  function upgrade(uint _userId) external {... */\n    tag_14:\n      tag_84\n      0x04\n      dup1\n      calldatasize\n      sub\n      dup2\n      add\n      swap1\n      tag_85\n      swap2\n      swap1\n      tag_51\n      jump\t// in\n    tag_85:\n      tag_86\n      jump\t// in\n    tag_84:\n      stop\n        /* \"contracts/modules/SponsorMatrix.sol\":3437:3483  mapping(uint => UserIncome) public userIncomes */\n    tag_15:\n      tag_87\n      0x04\n      dup1\n      calldatasize\n      sub\n      dup2\n      add\n      swap1\n      tag_88\n      swap2\n      swap1\n      tag_51\n      jump\t// in\n    tag_88:\n      tag_89\n      jump\t// in\n    tag_87:\n      mload(0x40)\n      tag_90\n      swap9\n      swap8\n      swap7\n      swap6\n      swap5\n      swap4\n      swap3\n      swap2\n      swap1\n      tag_91\n      jump\t// in\n    tag_90:\n      mload(0x40)\n      dup1\n      swap2\n      sub\n      swap1\n      return\n        /* \"contracts/modules/SponsorMatrix.sol\":4233:4269  uint public lotteryInterval = 1 days */\n    tag_16:\n      tag_92\n      tag_93\n      jump\t// in\n    tag_92:\n      mload(0x40)\n      tag_94\n      swap2\n      swap1\n      tag_45\n      jump\t// in\n    tag_94:\n      mload(0x40)\n      dup1\n      swap2\n      sub\n      swap1\n      return\n        /* \"contracts/modules/SponsorMatrix.sol\":1269:1313  uint256 public constant ROI_CAP_DIVIDER = 10 */\n    tag_17:\n      tag_95\n      tag_96\n      jump\t// in\n    tag_95:\n      mload(0x40)\n      tag_97\n      swap2\n      swap1\n      tag_45\n      jump\t// in\n    tag_97:\n      mload(0x40)\n      dup1\n      swap2\n      sub\n      swap1\n      return\n        /* \"contracts/modules/SponsorMatrix.sol\":3574:3627  mapping(uint => mapping(uint => uint[])) public teams */\n    tag_18:\n      tag_98\n      0x04\n      dup1\n      calldatasize\n      sub\n      dup2\n      add\n      swap1\n      tag_99\n      swap2\n      swap1\n      tag_100\n      jump\t// in\n    tag_99:\n      tag_101\n      jump\t// in\n    tag_98:\n      mload(0x40)\n      tag_102\n      swap2\n      swap1\n      tag_45\n      jump\t// in\n    tag_102:\n      mload(0x40)\n      dup1\n      swap2\n      sub\n      swap1\n      return\n        /* \"contracts/modules/SponsorMatrix.sol\":3752:3798  mapping(uint => uint[]) public directReferrals */\n    tag_19:\n      tag_103\n      0x04\n      dup1\n      calldatasize\n      sub\n      dup2\n      add\n      swap1\n      tag_104\n      swap2\n      swap1\n      tag_105\n      jump\t// in\n    tag_104:\n      tag_106\n      jump\t// in\n    tag_103:\n      mload(0x40)\n      tag_107\n      swap2\n      swap1\n      tag_45\n      jump\t// in\n    tag_107:\n      mload(0x40)\n      dup1\n      swap2\n      sub\n      swap1\n      return\n        /* \"contracts/modules/SponsorMatrix.sol\":3521:3567  mapping(uint => Income[]) public incomeHistory */\n    tag_20:\n      tag_108\n      0x04\n      dup1\n      calldatasize\n      sub\n      dup2\n      add\n      swap1\n      tag_109\n      swap2\n      swap1\n      tag_105\n      jump\t// in\n    tag_109:\n      tag_110\n      jump\t// in\n    tag_108:\n      mload(0x40)\n      tag_111\n      swap6\n      swap5\n      swap4\n      swap3\n      swap2\n      swap1\n      tag_112\n      jump\t// in\n    tag_111:\n      mload(0x40)\n      dup1\n      swap2\n      sub\n      swap1\n      return\n        /* \"contracts/modules/SponsorMatrix.sol\":3807:3864  mapping(uint => SponsorStructure) public sponsorStructure */\n    tag_21:\n      tag_113\n      0x04\n      dup1\n      calldatasize\n      sub\n      dup2\n      add\n      swap1\n      tag_114\n      swap2\n      swap1\n      tag_51\n      jump\t// in\n    tag_114:\n      tag_115\n      jump\t// in\n    tag_113:\n      mload(0x40)\n      tag_116\n      swap7\n      swap6\n      swap5\n      swap4\n      swap3\n      swap2\n      swap1\n      tag_117\n      jump\t// in\n    tag_116:\n      mload(0x40)\n      dup1\n      swap2\n      sub\n      swap1\n      return\n        /* \"contracts/modules/SponsorMatrix.sol\":3975:4009  uint256 public communityAccPerUser */\n    tag_22:\n      tag_118\n      tag_119\n      jump\t// in\n    tag_118:\n      mload(0x40)\n      tag_120\n      swap2\n      swap1\n      tag_45\n      jump\t// in\n    tag_120:\n      mload(0x40)\n      dup1\n      swap2\n      sub\n      swap1\n      return\n        /* \"contracts/modules/SponsorMatrix.sol\":838:866  address public creatorWallet */\n    tag_23:\n      tag_121\n      tag_122\n      jump\t// in\n    tag_121:\n      mload(0x40)\n      tag_123\n      swap2\n      swap1\n      tag_124\n      jump\t// in\n    tag_123:\n      mload(0x40)\n      dup1\n      swap2\n      sub\n      swap1\n      return\n        /* \"contracts/modules/SponsorMatrix.sol\":4161:4193  address public lastLotteryWinner */\n    tag_24:\n      tag_125\n      tag_126\n      jump\t// in\n    tag_125:\n      mload(0x40)\n      tag_127\n      swap2\n      swap1\n      tag_124\n      jump\t// in\n    tag_127:\n      mload(0x40)\n      dup1\n      swap2\n      sub\n      swap1\n      return\n        /* \"contracts/modules/SponsorMatrix.sol\":3668:3709  mapping(uint => uint) public matrixDirect */\n    tag_25:\n      tag_128\n      0x04\n      dup1\n      calldatasize\n      sub\n      dup2\n      add\n      swap1\n      tag_129\n      swap2\n      swap1\n      tag_51\n      jump\t// in\n    tag_129:\n      tag_130\n      jump\t// in\n    tag_128:\n      mload(0x40)\n      tag_131\n      swap2\n      swap1\n      tag_45\n      jump\t// in\n    tag_131:\n      mload(0x40)\n      dup1\n      swap2\n      sub\n      swap1\n      return\n        /* \"contracts/modules/SponsorMatrix.sol\":811:831  address public owner */\n    tag_26:\n      tag_132\n      tag_133\n      jump\t// in\n    tag_132:\n      mload(0x40)\n      tag_134\n      swap2\n      swap1\n      tag_124\n      jump\t// in\n    tag_134:\n      mload(0x40)\n      dup1\n      swap2\n      sub\n      swap1\n      return\n        /* \"contracts/modules/SponsorMatrix.sol\":981:1003  uint public totalUsers */\n    tag_27:\n      tag_135\n      tag_136\n      jump\t// in\n    tag_135:\n      mload(0x40)\n      tag_137\n      swap2\n      swap1\n      tag_45\n      jump\t// in\n    tag_137:\n      mload(0x40)\n      dup1\n      swap2\n      sub\n      swap1\n      return\n        /* \"contracts/modules/SponsorMatrix.sol\":1322:1862  uint[] public packages = [... */\n    tag_28:\n      tag_138\n      0x04\n      dup1\n      calldatasize\n      sub\n      dup2\n      add\n      swap1\n      tag_139\n      swap2\n      swap1\n      tag_51\n      jump\t// in\n    tag_139:\n      tag_140\n      jump\t// in\n    tag_138:\n      mload(0x40)\n      tag_141\n      swap2\n      swap1\n      tag_45\n      jump\t// in\n    tag_141:\n      mload(0x40)\n      dup1\n      swap2\n      sub\n      swap1\n      return\n        /* \"contracts/modules/SponsorMatrix.sol\":3346:3389  mapping(address => uint) public addressToId */\n    tag_29:\n      tag_142\n      0x04\n      dup1\n      calldatasize\n      sub\n      dup2\n      add\n      swap1\n      tag_143\n      swap2\n      swap1\n      tag_144\n      jump\t// in\n    tag_143:\n      tag_145\n      jump\t// in\n    tag_142:\n      mload(0x40)\n      tag_146\n      swap2\n      swap1\n      tag_45\n      jump\t// in\n    tag_146:\n      mload(0x40)\n      dup1\n      swap2\n      sub\n      swap1\n      return\n        /* \"contracts/modules/SponsorMatrix.sol\":11531:13278  function claimCommunity(uint _userId) external {... */\n    tag_30:\n      tag_147\n      0x04\n      dup1\n      calldatasize\n      sub\n      dup2\n      add\n      swap1\n      tag_148\n      swap2\n      swap1\n      tag_51\n      jump\t// in\n    tag_148:\n      tag_149\n      jump\t// in\n    tag_147:\n      stop\n        /* \"contracts/modules/SponsorMatrix.sol\":876:906  address public systemMaintance */\n    tag_31:\n      tag_150\n      tag_151\n      jump\t// in\n    tag_150:\n      mload(0x40)\n      tag_152\n      swap2\n      swap1\n      tag_124\n      jump\t// in\n    tag_152:\n      mload(0x40)\n      dup1\n      swap2\n      sub\n      swap1\n      return\n        /* \"contracts/modules/SponsorMatrix.sol\":950:974  uint public defaultRefId */\n    tag_32:\n      tag_153\n      tag_154\n      jump\t// in\n    tag_153:\n      mload(0x40)\n      tag_155\n      swap2\n      swap1\n      tag_45\n      jump\t// in\n    tag_155:\n      mload(0x40)\n      dup1\n      swap2\n      sub\n      swap1\n      return\n        /* \"contracts/modules/SponsorMatrix.sol\":6664:8847  function register(uint _sponsorId) external {... */\n    tag_33:\n      tag_156\n      0x04\n      dup1\n      calldatasize\n      sub\n      dup2\n      add\n      swap1\n      tag_157\n      swap2\n      swap1\n      tag_51\n      jump\t// in\n    tag_157:\n      tag_158\n      jump\t// in\n    tag_156:\n      stop\n        /* \"contracts/modules/SponsorMatrix.sol\":913:943  address public teamDevelopment */\n    tag_34:\n      tag_159\n      tag_160\n      jump\t// in\n    tag_159:\n      mload(0x40)\n      tag_161\n      swap2\n      swap1\n      tag_124\n      jump\t// in\n    tag_161:\n      mload(0x40)\n      dup1\n      swap2\n      sub\n      swap1\n      return\n        /* \"contracts/modules/SponsorMatrix.sol\":4200:4226  uint public lastLotteryRun */\n    tag_43:\n      sload(0x14)\n      dup2\n      jump\t// out\n        /* \"contracts/modules/SponsorMatrix.sol\":1103:1151  uint256 public constant PERCENTS_DIVIDER = 10000 */\n    tag_47:\n        /* \"contracts/modules/SponsorMatrix.sol\":1146:1151  10000 */\n      0x2710\n        /* \"contracts/modules/SponsorMatrix.sol\":1103:1151  uint256 public constant PERCENTS_DIVIDER = 10000 */\n      dup2\n      jump\t// out\n        /* \"contracts/modules/SponsorMatrix.sol\":4054:4099  mapping(uint => uint256) public communityDebt */\n    tag_52:\n      mstore(0x20, 0x11)\n      dup1\n      0x00\n      mstore\n      keccak256(0x00, 0x40)\n      0x00\n      swap2\n      pop\n      swap1\n      pop\n      sload\n      dup2\n      jump\t// out\n        /* \"contracts/modules/SponsorMatrix.sol\":13288:13724  function pendingCommunity(uint _userId) external view returns (uint pendingGross, uint pendingAfterCap) {... */\n    tag_56:\n        /* \"contracts/modules/SponsorMatrix.sol\":13351:13368  uint pendingGross */\n      0x00\n        /* \"contracts/modules/SponsorMatrix.sol\":13370:13390  uint pendingAfterCap */\n      dup1\n        /* \"contracts/modules/SponsorMatrix.sol\":13428:13429  0 */\n      0x00\n        /* \"contracts/modules/SponsorMatrix.sol\":13407:13412  users */\n      0x09\n        /* \"contracts/modules/SponsorMatrix.sol\":13407:13421  users[_userId] */\n      0x00\n        /* \"contracts/modules/SponsorMatrix.sol\":13413:13420  _userId */\n      dup6\n        /* \"contracts/modules/SponsorMatrix.sol\":13407:13421  users[_userId] */\n      dup2\n      mstore\n      0x20\n      add\n      swap1\n      dup2\n      mstore\n      0x20\n      add\n      0x00\n      keccak256\n        /* \"contracts/modules/SponsorMatrix.sol\":13407:13424  users[_userId].id */\n      0x03\n      add\n      sload\n        /* \"contracts/modules/SponsorMatrix.sol\":13407:13429  users[_userId].id == 0 */\n      sub\n        /* \"contracts/modules/SponsorMatrix.sol\":13403:13444  if (users[_userId].id == 0) return (0, 0) */\n      tag_163\n      jumpi\n        /* \"contracts/modules/SponsorMatrix.sol\":13439:13440  0 */\n      0x00\n        /* \"contracts/modules/SponsorMatrix.sol\":13442:13443  0 */\n      dup1\n        /* \"contracts/modules/SponsorMatrix.sol\":13431:13444  return (0, 0) */\n      swap2\n      pop\n      swap2\n      pop\n      jump(tag_162)\n        /* \"contracts/modules/SponsorMatrix.sol\":13403:13444  if (users[_userId].id == 0) return (0, 0) */\n    tag_163:\n        /* \"contracts/modules/SponsorMatrix.sol\":13455:13466  uint256 acc */\n      0x00\n        /* \"contracts/modules/SponsorMatrix.sol\":13469:13488  communityAccPerUser */\n      sload(0x10)\n        /* \"contracts/modules/SponsorMatrix.sol\":13455:13488  uint256 acc = communityAccPerUser */\n      swap1\n      pop\n        /* \"contracts/modules/SponsorMatrix.sol\":13499:13511  uint256 debt */\n      0x00\n        /* \"contracts/modules/SponsorMatrix.sol\":13514:13527  communityDebt */\n      0x11\n        /* \"contracts/modules/SponsorMatrix.sol\":13514:13536  communityDebt[_userId] */\n      0x00\n        /* \"contracts/modules/SponsorMatrix.sol\":13528:13535  _userId */\n      dup7\n        /* \"contracts/modules/SponsorMatrix.sol\":13514:13536  communityDebt[_userId] */\n      dup2\n      mstore\n      0x20\n      add\n      swap1\n      dup2\n      mstore\n      0x20\n      add\n      0x00\n      keccak256\n      sload\n        /* \"contracts/modules/SponsorMatrix.sol\":13499:13536  uint256 debt = communityDebt[_userId] */\n      swap1\n      pop\n        /* \"contracts/modules/SponsorMatrix.sol\":13558:13562  debt */\n      dup1\n        /* \"contracts/modules/SponsorMatrix.sol\":13551:13554  acc */\n      dup3\n        /* \"contracts/modules/SponsorMatrix.sol\":13551:13562  acc <= debt */\n      gt\n        /* \"contracts/modules/SponsorMatrix.sol\":13547:13577  if (acc <= debt) return (0, 0) */\n      tag_164\n      jumpi\n        /* \"contracts/modules/SponsorMatrix.sol\":13572:13573  0 */\n      0x00\n        /* \"contracts/modules/SponsorMatrix.sol\":13575:13576  0 */\n      dup1\n        /* \"contracts/modules/SponsorMatrix.sol\":13564:13577  return (0, 0) */\n      swap4\n      pop\n      swap4\n      pop\n      pop\n      pop\n      jump(tag_162)\n        /* \"contracts/modules/SponsorMatrix.sol\":13547:13577  if (acc <= debt) return (0, 0) */\n    tag_164:\n        /* \"contracts/modules/SponsorMatrix.sol\":13588:13598  uint gross */\n      0x00\n        /* \"contracts/modules/SponsorMatrix.sol\":3964:3968  1e18 */\n      0x0de0b6b3a7640000\n        /* \"contracts/modules/SponsorMatrix.sol\":13608:13612  debt */\n      dup3\n        /* \"contracts/modules/SponsorMatrix.sol\":13602:13605  acc */\n      dup5\n        /* \"contracts/modules/SponsorMatrix.sol\":13602:13612  acc - debt */\n      tag_165\n      swap2\n      swap1\n      tag_166\n      jump\t// in\n    tag_165:\n        /* \"contracts/modules/SponsorMatrix.sol\":13601:13629  (acc - debt) / ACC_PRECISION */\n      tag_167\n      swap2\n      swap1\n      tag_168\n      jump\t// in\n    tag_167:\n        /* \"contracts/modules/SponsorMatrix.sol\":13588:13629  uint gross = (acc - debt) / ACC_PRECISION */\n      swap1\n      pop\n        /* \"contracts/modules/SponsorMatrix.sol\":13640:13648  uint net */\n      0x00\n        /* \"contracts/modules/SponsorMatrix.sol\":13651:13686  _applyGlobalCapping(_userId, gross) */\n      tag_169\n        /* \"contracts/modules/SponsorMatrix.sol\":13671:13678  _userId */\n      dup8\n        /* \"contracts/modules/SponsorMatrix.sol\":13680:13685  gross */\n      dup4\n        /* \"contracts/modules/SponsorMatrix.sol\":13651:13670  _applyGlobalCapping */\n      tag_170\n        /* \"contracts/modules/SponsorMatrix.sol\":13651:13686  _applyGlobalCapping(_userId, gross) */\n      jump\t// in\n    tag_169:\n        /* \"contracts/modules/SponsorMatrix.sol\":13640:13686  uint net = _applyGlobalCapping(_userId, gross) */\n      swap1\n      pop\n        /* \"contracts/modules/SponsorMatrix.sol\":13705:13710  gross */\n      dup2\n        /* \"contracts/modules/SponsorMatrix.sol\":13712:13715  net */\n      dup2\n        /* \"contracts/modules/SponsorMatrix.sol\":13697:13716  return (gross, net) */\n      swap6\n      pop\n      swap6\n      pop\n      pop\n      pop\n      pop\n      pop\n        /* \"contracts/modules/SponsorMatrix.sol\":13288:13724  function pendingCommunity(uint _userId) external view returns (uint pendingGross, uint pendingAfterCap) {... */\n    tag_162:\n      swap2\n      pop\n      swap2\n      jump\t// out\n        /* \"contracts/modules/SponsorMatrix.sol\":4131:4154  uint public lotteryPool */\n    tag_60:\n      sload(0x12)\n      dup2\n      jump\t// out\n        /* \"contracts/modules/SponsorMatrix.sol\":786:804  IERC20 public usdt */\n    tag_63:\n      0x00\n      dup1\n      sload\n      swap1\n      0x0100\n      exp\n      swap1\n      div\n      0xffffffffffffffffffffffffffffffffffffffff\n      and\n      dup2\n      jump\t// out\n        /* \"contracts/modules/SponsorMatrix.sol\":1158:1200  uint256 public constant TIME_STEP = 1 days */\n    tag_67:\n        /* \"contracts/modules/SponsorMatrix.sol\":1194:1200  1 days */\n      0x015180\n        /* \"contracts/modules/SponsorMatrix.sol\":1158:1200  uint256 public constant TIME_STEP = 1 days */\n      dup2\n      jump\t// out\n        /* \"contracts/modules/SponsorMatrix.sol\":3924:3968  uint256 public constant ACC_PRECISION = 1e18 */\n    tag_70:\n        /* \"contracts/modules/SponsorMatrix.sol\":3964:3968  1e18 */\n      0x0de0b6b3a7640000\n        /* \"contracts/modules/SponsorMatrix.sol\":3924:3968  uint256 public constant ACC_PRECISION = 1e18 */\n      dup2\n      jump\t// out\n        /* \"contracts/modules/SponsorMatrix.sol\":3396:3430  mapping(uint => User) public users */\n    tag_74:\n      mstore(0x20, 0x09)\n      dup1\n      0x00\n      mstore\n      keccak256(0x00, 0x40)\n      0x00\n      swap2\n      pop\n      swap1\n      pop\n      dup1\n      0x00\n      add\n      0x00\n      swap1\n      sload\n      swap1\n      0x0100\n      exp\n      swap1\n      div\n      0xffffffffffffffffffffffffffffffffffffffff\n      and\n      swap1\n      dup1\n      0x02\n      add\n      sload\n      swap1\n      dup1\n      0x03\n      add\n      sload\n      swap1\n      dup1\n      0x04\n      add\n      sload\n      swap1\n      dup1\n      0x05\n      add\n      sload\n      swap1\n      dup1\n      0x06\n      add\n      sload\n      swap1\n      dup1\n      0x07\n      add\n      sload\n      swap1\n      dup1\n      0x08\n      add\n      sload\n      swap1\n      dup1\n      0x09\n      add\n      sload\n      swap1\n      dup1\n      0x0a\n      add\n      sload\n      swap1\n      pop\n      dup11\n      jump\t// out\n        /* \"contracts/modules/SponsorMatrix.sol\":1207:1254  uint256 public constant ROI_CAP_MULTIPLIER = 25 */\n    tag_78:\n        /* \"contracts/modules/SponsorMatrix.sol\":1252:1254  25 */\n      0x19\n        /* \"contracts/modules/SponsorMatrix.sol\":1207:1254  uint256 public constant ROI_CAP_MULTIPLIER = 25 */\n      dup2\n      jump\t// out\n        /* \"contracts/modules/SponsorMatrix.sol\":4276:4307  uint[] public registeredUserIds */\n    tag_82:\n      0x16\n      dup2\n      dup2\n      sload\n      dup2\n      lt\n      tag_171\n      jumpi\n      0x00\n      dup1\n      revert\n    tag_171:\n      swap1\n      0x00\n      mstore\n      keccak256(0x00, 0x20)\n      add\n      0x00\n      swap2\n      pop\n      swap1\n      pop\n      sload\n      dup2\n      jump\t// out\n        /* \"contracts/modules/SponsorMatrix.sol\":8859:10596  function upgrade(uint _userId) external {... */\n    tag_86:\n        /* \"contracts/modules/SponsorMatrix.sol\":8910:8927  User storage user */\n      0x00\n        /* \"contracts/modules/SponsorMatrix.sol\":8930:8935  users */\n      0x09\n        /* \"contracts/modules/SponsorMatrix.sol\":8930:8944  users[_userId] */\n      0x00\n        /* \"contracts/modules/SponsorMatrix.sol\":8936:8943  _userId */\n      dup4\n        /* \"contracts/modules/SponsorMatrix.sol\":8930:8944  users[_userId] */\n      dup2\n      mstore\n      0x20\n      add\n      swap1\n      dup2\n      mstore\n      0x20\n      add\n      0x00\n      keccak256\n        /* \"contracts/modules/SponsorMatrix.sol\":8910:8944  User storage user = users[_userId] */\n      swap1\n      pop\n        /* \"contracts/modules/SponsorMatrix.sol\":8979:8989  msg.sender */\n      caller\n        /* \"contracts/modules/SponsorMatrix.sol\":8963:8989  user.account == msg.sender */\n      0xffffffffffffffffffffffffffffffffffffffff\n      and\n        /* \"contracts/modules/SponsorMatrix.sol\":8963:8967  user */\n      dup2\n        /* \"contracts/modules/SponsorMatrix.sol\":8963:8975  user.account */\n      0x00\n      add\n      0x00\n      swap1\n      sload\n      swap1\n      0x0100\n      exp\n      swap1\n      div\n      0xffffffffffffffffffffffffffffffffffffffff\n      and\n        /* \"contracts/modules/SponsorMatrix.sol\":8963:8989  user.account == msg.sender */\n      0xffffffffffffffffffffffffffffffffffffffff\n      and\n      eq\n        /* \"contracts/modules/SponsorMatrix.sol\":8955:9010  require(user.account == msg.sender, \"Not your account\") */\n      tag_174\n      jumpi\n      mload(0x40)\n      0x08c379a000000000000000000000000000000000000000000000000000000000\n      dup2\n      mstore\n      0x04\n      add\n      tag_175\n      swap1\n      tag_176\n      jump\t// in\n    tag_175:\n      mload(0x40)\n      dup1\n      swap2\n      sub\n      swap1\n      revert\n    tag_174:\n        /* \"contracts/modules/SponsorMatrix.sol\":9042:9044  15 */\n      0x0f\n        /* \"contracts/modules/SponsorMatrix.sol\":9029:9033  user */\n      dup2\n        /* \"contracts/modules/SponsorMatrix.sol\":9029:9039  user.level */\n      0x06\n      add\n      sload\n        /* \"contracts/modules/SponsorMatrix.sol\":9029:9044  user.level < 15 */\n      lt\n        /* \"contracts/modules/SponsorMatrix.sol\":9021:9069  require(user.level < 15, \"Already at max level\") */\n      tag_177\n      jumpi\n      mload(0x40)\n      0x08c379a000000000000000000000000000000000000000000000000000000000\n      dup2\n      mstore\n      0x04\n      add\n      tag_178\n      swap1\n      tag_179\n      jump\t// in\n    tag_178:\n      mload(0x40)\n      dup1\n      swap2\n      sub\n      swap1\n      revert\n    tag_177:\n        /* \"contracts/modules/SponsorMatrix.sol\":9090:9104  uint nextLevel */\n      0x00\n        /* \"contracts/modules/SponsorMatrix.sol\":9107:9111  user */\n      dup2\n        /* \"contracts/modules/SponsorMatrix.sol\":9107:9117  user.level */\n      0x06\n      add\n      sload\n        /* \"contracts/modules/SponsorMatrix.sol\":9090:9117  uint nextLevel = user.level */\n      swap1\n      pop\n        /* \"contracts/modules/SponsorMatrix.sol\":9128:9145  uint packagePrice */\n      0x00\n        /* \"contracts/modules/SponsorMatrix.sol\":9148:9156  packages */\n      0x07\n        /* \"contracts/modules/SponsorMatrix.sol\":9157:9166  nextLevel */\n      dup3\n        /* \"contracts/modules/SponsorMatrix.sol\":9148:9167  packages[nextLevel] */\n      dup2\n      sload\n      dup2\n      lt\n      tag_180\n      jumpi\n      tag_181\n      tag_182\n      jump\t// in\n    tag_181:\n    tag_180:\n      swap1\n      0x00\n      mstore\n      keccak256(0x00, 0x20)\n      add\n      sload\n        /* \"contracts/modules/SponsorMatrix.sol\":9128:9167  uint packagePrice = packages[nextLevel] */\n      swap1\n      pop\n        /* \"contracts/modules/SponsorMatrix.sol\":9235:9239  usdt */\n      0x00\n      dup1\n      sload\n      swap1\n      0x0100\n      exp\n      swap1\n      div\n      0xffffffffffffffffffffffffffffffffffffffff\n      and\n        /* \"contracts/modules/SponsorMatrix.sol\":9235:9252  usdt.transferFrom */\n      0xffffffffffffffffffffffffffffffffffffffff\n      and\n      0x23b872dd\n        /* \"contracts/modules/SponsorMatrix.sol\":9253:9263  msg.sender */\n      caller\n        /* \"contracts/modules/SponsorMatrix.sol\":9273:9277  this */\n      address\n        /* \"contracts/modules/SponsorMatrix.sol\":9280:9292  packagePrice */\n      dup5\n        /* \"contracts/modules/SponsorMatrix.sol\":9235:9293  usdt.transferFrom(msg.sender, address(this), packagePrice) */\n      mload(0x40)\n      dup5\n      0xffffffff\n      and\n      0xe0\n      shl\n      dup2\n      mstore\n      0x04\n      add\n      tag_184\n      swap4\n      swap3\n      swap2\n      swap1\n      tag_185\n      jump\t// in\n    tag_184:\n      0x20\n      mload(0x40)\n      dup1\n      dup4\n      sub\n      dup2\n      0x00\n      dup8\n      gas\n      call\n      iszero\n      dup1\n      iszero\n      tag_187\n      jumpi\n      returndatasize\n      0x00\n      dup1\n      returndatacopy\n      revert(0x00, returndatasize)\n    tag_187:\n      pop\n      pop\n      pop\n      pop\n      mload(0x40)\n      returndatasize\n      not(0x1f)\n      0x1f\n      dup3\n      add\n      and\n      dup3\n      add\n      dup1\n      0x40\n      mstore\n      pop\n      dup2\n      add\n      swap1\n      tag_188\n      swap2\n      swap1\n      tag_189\n      jump\t// in\n    tag_188:\n      pop\n        /* \"contracts/modules/SponsorMatrix.sol\":9328:9329  1 */\n      0x01\n        /* \"contracts/modules/SponsorMatrix.sol\":9314:9318  user */\n      dup4\n        /* \"contracts/modules/SponsorMatrix.sol\":9314:9324  user.level */\n      0x06\n      add\n      0x00\n        /* \"contracts/modules/SponsorMatrix.sol\":9314:9329  user.level += 1 */\n      dup3\n      dup3\n      sload\n      tag_190\n      swap2\n      swap1\n      tag_191\n      jump\t// in\n    tag_190:\n      swap3\n      pop\n      pop\n      dup2\n      swap1\n      sstore\n      pop\n        /* \"contracts/modules/SponsorMatrix.sol\":9361:9373  packagePrice */\n      dup1\n        /* \"contracts/modules/SponsorMatrix.sol\":9340:9344  user */\n      dup4\n        /* \"contracts/modules/SponsorMatrix.sol\":9340:9357  user.totalDeposit */\n      0x09\n      add\n      0x00\n        /* \"contracts/modules/SponsorMatrix.sol\":9340:9373  user.totalDeposit += packagePrice */\n      dup3\n      dup3\n      sload\n      tag_192\n      swap2\n      swap1\n      tag_191\n      jump\t// in\n    tag_192:\n      swap3\n      pop\n      pop\n      dup2\n      swap1\n      sstore\n      pop\n        /* \"contracts/modules/SponsorMatrix.sol\":9418:9422  user */\n      dup3\n        /* \"contracts/modules/SponsorMatrix.sol\":9418:9431  user.deposits */\n      0x01\n      add\n        /* \"contracts/modules/SponsorMatrix.sol\":9437:9556  Deposit({... */\n      mload(0x40)\n      dup1\n      0x60\n      add\n      0x40\n      mstore\n      dup1\n        /* \"contracts/modules/SponsorMatrix.sol\":9468:9480  packagePrice */\n      dup4\n        /* \"contracts/modules/SponsorMatrix.sol\":9437:9556  Deposit({... */\n      dup2\n      mstore\n      0x20\n      add\n        /* \"contracts/modules/SponsorMatrix.sol\":9506:9507  0 */\n      0x00\n        /* \"contracts/modules/SponsorMatrix.sol\":9437:9556  Deposit({... */\n      dup2\n      mstore\n      0x20\n      add\n        /* \"contracts/modules/SponsorMatrix.sol\":9529:9544  block.timestamp */\n      timestamp\n        /* \"contracts/modules/SponsorMatrix.sol\":9437:9556  Deposit({... */\n      dup2\n      mstore\n      pop\n        /* \"contracts/modules/SponsorMatrix.sol\":9418:9557  user.deposits.push(Deposit({... */\n      swap1\n      dup1\n      0x01\n      dup2\n      sload\n      add\n      dup1\n      dup3\n      sstore\n      dup1\n      swap2\n      pop\n      pop\n      0x01\n      swap1\n      sub\n      swap1\n      0x00\n      mstore\n      keccak256(0x00, 0x20)\n      swap1\n      0x03\n      mul\n      add\n      0x00\n      swap1\n      swap2\n      swap1\n      swap2\n      swap1\n      swap2\n      pop\n      0x00\n      dup3\n      add\n      mload\n      dup2\n      0x00\n      add\n      sstore\n      0x20\n      dup3\n      add\n      mload\n      dup2\n      0x01\n      add\n      sstore\n      0x40\n      dup3\n      add\n      mload\n      dup2\n      0x02\n      add\n      sstore\n      pop\n      pop\n        /* \"contracts/modules/SponsorMatrix.sol\":9603:9620  uint creatorShare */\n      0x00\n        /* \"contracts/modules/SponsorMatrix.sol\":9642:9645  100 */\n      0x64\n        /* \"contracts/modules/SponsorMatrix.sol\":9638:9639  5 */\n      0x05\n        /* \"contracts/modules/SponsorMatrix.sol\":9623:9635  packagePrice */\n      dup4\n        /* \"contracts/modules/SponsorMatrix.sol\":9623:9639  packagePrice * 5 */\n      tag_194\n      swap2\n      swap1\n      tag_195\n      jump\t// in\n    tag_194:\n        /* \"contracts/modules/SponsorMatrix.sol\":9623:9645  packagePrice * 5 / 100 */\n      tag_196\n      swap2\n      swap1\n      tag_168\n      jump\t// in\n    tag_196:\n        /* \"contracts/modules/SponsorMatrix.sol\":9603:9645  uint creatorShare = packagePrice * 5 / 100 */\n      swap1\n      pop\n        /* \"contracts/modules/SponsorMatrix.sol\":9761:9780  uint communityShare */\n      0x00\n        /* \"contracts/modules/SponsorMatrix.sol\":9803:9806  100 */\n      0x64\n        /* \"contracts/modules/SponsorMatrix.sol\":9798:9800  35 */\n      0x23\n        /* \"contracts/modules/SponsorMatrix.sol\":9783:9795  packagePrice */\n      dup5\n        /* \"contracts/modules/SponsorMatrix.sol\":9783:9800  packagePrice * 35 */\n      tag_197\n      swap2\n      swap1\n      tag_195\n      jump\t// in\n    tag_197:\n        /* \"contracts/modules/SponsorMatrix.sol\":9783:9806  packagePrice * 35 / 100 */\n      tag_198\n      swap2\n      swap1\n      tag_168\n      jump\t// in\n    tag_198:\n        /* \"contracts/modules/SponsorMatrix.sol\":9761:9806  uint communityShare = packagePrice * 35 / 100 */\n      swap1\n      pop\n        /* \"contracts/modules/SponsorMatrix.sol\":9817:9854  _accrueCommunityBonus(communityShare) */\n      tag_199\n        /* \"contracts/modules/SponsorMatrix.sol\":9839:9853  communityShare */\n      dup2\n        /* \"contracts/modules/SponsorMatrix.sol\":9817:9838  _accrueCommunityBonus */\n      tag_200\n        /* \"contracts/modules/SponsorMatrix.sol\":9817:9854  _accrueCommunityBonus(communityShare) */\n      jump\t// in\n    tag_199:\n        /* \"contracts/modules/SponsorMatrix.sol\":9898:9926  _sendToCreator(creatorShare) */\n      tag_201\n        /* \"contracts/modules/SponsorMatrix.sol\":9913:9925  creatorShare */\n      dup3\n        /* \"contracts/modules/SponsorMatrix.sol\":9898:9912  _sendToCreator */\n      tag_202\n        /* \"contracts/modules/SponsorMatrix.sol\":9898:9926  _sendToCreator(creatorShare) */\n      jump\t// in\n    tag_201:\n        /* \"contracts/modules/SponsorMatrix.sol\":10069:10087  uint sponsorIncome */\n      0x00\n        /* \"contracts/modules/SponsorMatrix.sol\":10110:10113  100 */\n      0x64\n        /* \"contracts/modules/SponsorMatrix.sol\":10105:10107  15 */\n      0x0f\n        /* \"contracts/modules/SponsorMatrix.sol\":10090:10102  packagePrice */\n      dup6\n        /* \"contracts/modules/SponsorMatrix.sol\":10090:10107  packagePrice * 15 */\n      tag_203\n      swap2\n      swap1\n      tag_195\n      jump\t// in\n    tag_203:\n        /* \"contracts/modules/SponsorMatrix.sol\":10090:10113  packagePrice * 15 / 100 */\n      tag_204\n      swap2\n      swap1\n      tag_168\n      jump\t// in\n    tag_204:\n        /* \"contracts/modules/SponsorMatrix.sol\":10069:10113  uint sponsorIncome = packagePrice * 15 / 100 */\n      swap1\n      pop\n        /* \"contracts/modules/SponsorMatrix.sol\":10124:10203  _distributeSponsorIncome(user.sponsorId, _userId, sponsorIncome, nextLevel + 1) */\n      tag_205\n        /* \"contracts/modules/SponsorMatrix.sol\":10149:10153  user */\n      dup7\n        /* \"contracts/modules/SponsorMatrix.sol\":10149:10163  user.sponsorId */\n      0x04\n      add\n      sload\n        /* \"contracts/modules/SponsorMatrix.sol\":10165:10172  _userId */\n      dup9\n        /* \"contracts/modules/SponsorMatrix.sol\":10174:10187  sponsorIncome */\n      dup4\n        /* \"contracts/modules/SponsorMatrix.sol\":10201:10202  1 */\n      0x01\n        /* \"contracts/modules/SponsorMatrix.sol\":10189:10198  nextLevel */\n      dup10\n        /* \"contracts/modules/SponsorMatrix.sol\":10189:10202  nextLevel + 1 */\n      tag_206\n      swap2\n      swap1\n      tag_191\n      jump\t// in\n    tag_206:\n        /* \"contracts/modules/SponsorMatrix.sol\":10124:10148  _distributeSponsorIncome */\n      tag_207\n        /* \"contracts/modules/SponsorMatrix.sol\":10124:10203  _distributeSponsorIncome(user.sponsorId, _userId, sponsorIncome, nextLevel + 1) */\n      jump\t// in\n    tag_205:\n        /* \"contracts/modules/SponsorMatrix.sol\":10216:10233  uint uplineIncome */\n      0x00\n        /* \"contracts/modules/SponsorMatrix.sol\":10256:10259  100 */\n      0x64\n        /* \"contracts/modules/SponsorMatrix.sol\":10251:10253  15 */\n      0x0f\n        /* \"contracts/modules/SponsorMatrix.sol\":10236:10248  packagePrice */\n      dup7\n        /* \"contracts/modules/SponsorMatrix.sol\":10236:10253  packagePrice * 15 */\n      tag_208\n      swap2\n      swap1\n      tag_195\n      jump\t// in\n    tag_208:\n        /* \"contracts/modules/SponsorMatrix.sol\":10236:10259  packagePrice * 15 / 100 */\n      tag_209\n      swap2\n      swap1\n      tag_168\n      jump\t// in\n    tag_209:\n        /* \"contracts/modules/SponsorMatrix.sol\":10216:10259  uint uplineIncome = packagePrice * 15 / 100 */\n      swap1\n      pop\n        /* \"contracts/modules/SponsorMatrix.sol\":10270:10346  _distributeMatrixIncome(user.uplineId, _userId, uplineIncome, nextLevel + 1) */\n      tag_210\n        /* \"contracts/modules/SponsorMatrix.sol\":10294:10298  user */\n      dup8\n        /* \"contracts/modules/SponsorMatrix.sol\":10294:10307  user.uplineId */\n      0x05\n      add\n      sload\n        /* \"contracts/modules/SponsorMatrix.sol\":10309:10316  _userId */\n      dup10\n        /* \"contracts/modules/SponsorMatrix.sol\":10318:10330  uplineIncome */\n      dup4\n        /* \"contracts/modules/SponsorMatrix.sol\":10344:10345  1 */\n      0x01\n        /* \"contracts/modules/SponsorMatrix.sol\":10332:10341  nextLevel */\n      dup11\n        /* \"contracts/modules/SponsorMatrix.sol\":10332:10345  nextLevel + 1 */\n      tag_211\n      swap2\n      swap1\n      tag_191\n      jump\t// in\n    tag_211:\n        /* \"contracts/modules/SponsorMatrix.sol\":10270:10293  _distributeMatrixIncome */\n      tag_212\n        /* \"contracts/modules/SponsorMatrix.sol\":10270:10346  _distributeMatrixIncome(user.uplineId, _userId, uplineIncome, nextLevel + 1) */\n      jump\t// in\n    tag_210:\n        /* \"contracts/modules/SponsorMatrix.sol\":10359:10377  uint boosterIncome */\n      0x00\n        /* \"contracts/modules/SponsorMatrix.sol\":10400:10403  100 */\n      0x64\n        /* \"contracts/modules/SponsorMatrix.sol\":10395:10397  15 */\n      0x0f\n        /* \"contracts/modules/SponsorMatrix.sol\":10380:10392  packagePrice */\n      dup8\n        /* \"contracts/modules/SponsorMatrix.sol\":10380:10397  packagePrice * 15 */\n      tag_213\n      swap2\n      swap1\n      tag_195\n      jump\t// in\n    tag_213:\n        /* \"contracts/modules/SponsorMatrix.sol\":10380:10403  packagePrice * 15 / 100 */\n      tag_214\n      swap2\n      swap1\n      tag_168\n      jump\t// in\n    tag_214:\n        /* \"contracts/modules/SponsorMatrix.sol\":10359:10403  uint boosterIncome = packagePrice * 15 / 100 */\n      swap1\n      pop\n        /* \"contracts/modules/SponsorMatrix.sol\":10414:10508  _distributeLevelBoosterIncome(user.uplineId, _userId, boosterIncome, nextLevel + 1, nextLevel) */\n      tag_215\n        /* \"contracts/modules/SponsorMatrix.sol\":10444:10448  user */\n      dup9\n        /* \"contracts/modules/SponsorMatrix.sol\":10444:10457  user.uplineId */\n      0x05\n      add\n      sload\n        /* \"contracts/modules/SponsorMatrix.sol\":10459:10466  _userId */\n      dup11\n        /* \"contracts/modules/SponsorMatrix.sol\":10468:10481  boosterIncome */\n      dup4\n        /* \"contracts/modules/SponsorMatrix.sol\":10495:10496  1 */\n      0x01\n        /* \"contracts/modules/SponsorMatrix.sol\":10483:10492  nextLevel */\n      dup12\n        /* \"contracts/modules/SponsorMatrix.sol\":10483:10496  nextLevel + 1 */\n      tag_216\n      swap2\n      swap1\n      tag_191\n      jump\t// in\n    tag_216:\n        /* \"contracts/modules/SponsorMatrix.sol\":10498:10507  nextLevel */\n      dup12\n        /* \"contracts/modules/SponsorMatrix.sol\":10414:10443  _distributeLevelBoosterIncome */\n      tag_217\n        /* \"contracts/modules/SponsorMatrix.sol\":10414:10508  _distributeLevelBoosterIncome(user.uplineId, _userId, boosterIncome, nextLevel + 1, nextLevel) */\n      jump\t// in\n    tag_215:\n        /* \"contracts/modules/SponsorMatrix.sol\":10565:10572  _userId */\n      dup9\n        /* \"contracts/modules/SponsorMatrix.sol\":10553:10563  msg.sender */\n      caller\n        /* \"contracts/modules/SponsorMatrix.sol\":10545:10588  Upgrade(msg.sender, _userId, nextLevel + 1) */\n      0xffffffffffffffffffffffffffffffffffffffff\n      and\n      0x13ea485b1d8135315e770779887880798ac429f039a7c5ca3ff5f6f99a95b587\n        /* \"contracts/modules/SponsorMatrix.sol\":10586:10587  1 */\n      0x01\n        /* \"contracts/modules/SponsorMatrix.sol\":10574:10583  nextLevel */\n      dup11\n        /* \"contracts/modules/SponsorMatrix.sol\":10574:10587  nextLevel + 1 */\n      tag_218\n      swap2\n      swap1\n      tag_191\n      jump\t// in\n    tag_218:\n        /* \"contracts/modules/SponsorMatrix.sol\":10545:10588  Upgrade(msg.sender, _userId, nextLevel + 1) */\n      mload(0x40)\n      tag_219\n      swap2\n      swap1\n      tag_45\n      jump\t// in\n    tag_219:\n      mload(0x40)\n      dup1\n      swap2\n      sub\n      swap1\n      log3\n        /* \"contracts/modules/SponsorMatrix.sol\":8899:10596  {... */\n      pop\n      pop\n      pop\n      pop\n      pop\n      pop\n      pop\n      pop\n        /* \"contracts/modules/SponsorMatrix.sol\":8859:10596  function upgrade(uint _userId) external {... */\n      pop\n      jump\t// out\n        /* \"contracts/modules/SponsorMatrix.sol\":3437:3483  mapping(uint => UserIncome) public userIncomes */\n    tag_89:\n      mstore(0x20, 0x0a)\n      dup1\n      0x00\n      mstore\n      keccak256(0x00, 0x40)\n      0x00\n      swap2\n      pop\n      swap1\n      pop\n      dup1\n      0x00\n      add\n      sload\n      swap1\n      dup1\n      0x01\n      add\n      sload\n      swap1\n      dup1\n      0x02\n      add\n      sload\n      swap1\n      dup1\n      0x03\n      add\n      sload\n      swap1\n      dup1\n      0x04\n      add\n      sload\n      swap1\n      dup1\n      0x05\n      add\n      sload\n      swap1\n      dup1\n      0x06\n      add\n      sload\n      swap1\n      dup1\n      0x07\n      add\n      sload\n      swap1\n      pop\n      dup9\n      jump\t// out\n        /* \"contracts/modules/SponsorMatrix.sol\":4233:4269  uint public lotteryInterval = 1 days */\n    tag_93:\n      sload(0x15)\n      dup2\n      jump\t// out\n        /* \"contracts/modules/SponsorMatrix.sol\":1269:1313  uint256 public constant ROI_CAP_DIVIDER = 10 */\n    tag_96:\n        /* \"contracts/modules/SponsorMatrix.sol\":1311:1313  10 */\n      0x0a\n        /* \"contracts/modules/SponsorMatrix.sol\":1269:1313  uint256 public constant ROI_CAP_DIVIDER = 10 */\n      dup2\n      jump\t// out\n        /* \"contracts/modules/SponsorMatrix.sol\":3574:3627  mapping(uint => mapping(uint => uint[])) public teams */\n    tag_101:\n      mstore(0x20, 0x0c)\n      dup3\n      0x00\n      mstore\n      mstore(0x20, keccak256(0x00, 0x40))\n      dup2\n      0x00\n      mstore\n      keccak256(0x00, 0x40)\n      dup2\n      dup2\n      sload\n      dup2\n      lt\n      tag_220\n      jumpi\n      0x00\n      dup1\n      revert\n    tag_220:\n      swap1\n      0x00\n      mstore\n      keccak256(0x00, 0x20)\n      add\n      0x00\n      swap3\n      pop\n      swap3\n      pop\n      pop\n      pop\n      sload\n      dup2\n      jump\t// out\n        /* \"contracts/modules/SponsorMatrix.sol\":3752:3798  mapping(uint => uint[]) public directReferrals */\n    tag_106:\n      mstore(0x20, 0x0e)\n      dup2\n      0x00\n      mstore\n      keccak256(0x00, 0x40)\n      dup2\n      dup2\n      sload\n      dup2\n      lt\n      tag_222\n      jumpi\n      0x00\n      dup1\n      revert\n    tag_222:\n      swap1\n      0x00\n      mstore\n      keccak256(0x00, 0x20)\n      add\n      0x00\n      swap2\n      pop\n      swap2\n      pop\n      pop\n      sload\n      dup2\n      jump\t// out\n        /* \"contracts/modules/SponsorMatrix.sol\":3521:3567  mapping(uint => Income[]) public incomeHistory */\n    tag_110:\n      mstore(0x20, 0x0b)\n      dup2\n      0x00\n      mstore\n      keccak256(0x00, 0x40)\n      dup2\n      dup2\n      sload\n      dup2\n      lt\n      tag_224\n      jumpi\n      0x00\n      dup1\n      revert\n    tag_224:\n      swap1\n      0x00\n      mstore\n      keccak256(0x00, 0x20)\n      swap1\n      0x05\n      mul\n      add\n      0x00\n      swap2\n      pop\n      swap2\n      pop\n      pop\n      dup1\n      0x00\n      add\n      sload\n      swap1\n      dup1\n      0x01\n      add\n      sload\n      swap1\n      dup1\n      0x02\n      add\n      sload\n      swap1\n      dup1\n      0x03\n      add\n      sload\n      swap1\n      dup1\n      0x04\n      add\n      sload\n      swap1\n      pop\n      dup6\n      jump\t// out\n        /* \"contracts/modules/SponsorMatrix.sol\":3807:3864  mapping(uint => SponsorStructure) public sponsorStructure */\n    tag_115:\n      mstore(0x20, 0x0f)\n      dup1\n      0x00\n      mstore\n      keccak256(0x00, 0x40)\n      0x00\n      swap2\n      pop\n      swap1\n      pop\n      dup1\n      0x00\n      add\n      sload\n      swap1\n      dup1\n      0x01\n      add\n      sload\n      swap1\n      dup1\n      0x02\n      add\n      sload\n      swap1\n      dup1\n      0x03\n      add\n      sload\n      swap1\n      dup1\n      0x04\n      add\n      sload\n      swap1\n      dup1\n      0x05\n      add\n      sload\n      swap1\n      pop\n      dup7\n      jump\t// out\n        /* \"contracts/modules/SponsorMatrix.sol\":3975:4009  uint256 public communityAccPerUser */\n    tag_119:\n      sload(0x10)\n      dup2\n      jump\t// out\n        /* \"contracts/modules/SponsorMatrix.sol\":838:866  address public creatorWallet */\n    tag_122:\n      0x02\n      0x00\n      swap1\n      sload\n      swap1\n      0x0100\n      exp\n      swap1\n      div\n      0xffffffffffffffffffffffffffffffffffffffff\n      and\n      dup2\n      jump\t// out\n        /* \"contracts/modules/SponsorMatrix.sol\":4161:4193  address public lastLotteryWinner */\n    tag_126:\n      0x13\n      0x00\n      swap1\n      sload\n      swap1\n      0x0100\n      exp\n      swap1\n      div\n      0xffffffffffffffffffffffffffffffffffffffff\n      and\n      dup2\n      jump\t// out\n        /* \"contracts/modules/SponsorMatrix.sol\":3668:3709  mapping(uint => uint) public matrixDirect */\n    tag_130:\n      mstore(0x20, 0x0d)\n      dup1\n      0x00\n      mstore\n      keccak256(0x00, 0x40)\n      0x00\n      swap2\n      pop\n      swap1\n      pop\n      sload\n      dup2\n      jump\t// out\n        /* \"contracts/modules/SponsorMatrix.sol\":811:831  address public owner */\n    tag_133:\n      0x01\n      0x00\n      swap1\n      sload\n      swap1\n      0x0100\n      exp\n      swap1\n      div\n      0xffffffffffffffffffffffffffffffffffffffff\n      and\n      dup2\n      jump\t// out\n        /* \"contracts/modules/SponsorMatrix.sol\":981:1003  uint public totalUsers */\n    tag_136:\n      sload(0x06)\n      dup2\n      jump\t// out\n        /* \"contracts/modules/SponsorMatrix.sol\":1322:1862  uint[] public packages = [... */\n    tag_140:\n      0x07\n      dup2\n      dup2\n      sload\n      dup2\n      lt\n      tag_226\n      jumpi\n      0x00\n      dup1\n      revert\n    tag_226:\n      swap1\n      0x00\n      mstore\n      keccak256(0x00, 0x20)\n      add\n      0x00\n      swap2\n      pop\n      swap1\n      pop\n      sload\n      dup2\n      jump\t// out\n        /* \"contracts/modules/SponsorMatrix.sol\":3346:3389  mapping(address => uint) public addressToId */\n    tag_145:\n      mstore(0x20, 0x08)\n      dup1\n      0x00\n      mstore\n      keccak256(0x00, 0x40)\n      0x00\n      swap2\n      pop\n      swap1\n      pop\n      sload\n      dup2\n      jump\t// out\n        /* \"contracts/modules/SponsorMatrix.sol\":11531:13278  function claimCommunity(uint _userId) external {... */\n    tag_149:\n        /* \"contracts/modules/SponsorMatrix.sol\":11593:11607  User storage u */\n      0x00\n        /* \"contracts/modules/SponsorMatrix.sol\":11610:11615  users */\n      0x09\n        /* \"contracts/modules/SponsorMatrix.sol\":11610:11624  users[_userId] */\n      0x00\n        /* \"contracts/modules/SponsorMatrix.sol\":11616:11623  _userId */\n      dup4\n        /* \"contracts/modules/SponsorMatrix.sol\":11610:11624  users[_userId] */\n      dup2\n      mstore\n      0x20\n      add\n      swap1\n      dup2\n      mstore\n      0x20\n      add\n      0x00\n      keccak256\n        /* \"contracts/modules/SponsorMatrix.sol\":11593:11624  User storage u = users[_userId] */\n      swap1\n      pop\n        /* \"contracts/modules/SponsorMatrix.sol\":11655:11656  0 */\n      0x00\n        /* \"contracts/modules/SponsorMatrix.sol\":11647:11648  u */\n      dup2\n        /* \"contracts/modules/SponsorMatrix.sol\":11647:11651  u.id */\n      0x03\n      add\n      sload\n        /* \"contracts/modules/SponsorMatrix.sol\":11647:11656  u.id != 0 */\n      sub\n        /* \"contracts/modules/SponsorMatrix.sol\":11639:11675  require(u.id != 0, \"User not found\") */\n      tag_229\n      jumpi\n      mload(0x40)\n      0x08c379a000000000000000000000000000000000000000000000000000000000\n      dup2\n      mstore\n      0x04\n      add\n      tag_230\n      swap1\n      tag_231\n      jump\t// in\n    tag_230:\n      mload(0x40)\n      dup1\n      swap2\n      sub\n      swap1\n      revert\n    tag_229:\n        /* \"contracts/modules/SponsorMatrix.sol\":11711:11721  msg.sender */\n      caller\n        /* \"contracts/modules/SponsorMatrix.sol\":11698:11721  u.account == msg.sender */\n      0xffffffffffffffffffffffffffffffffffffffff\n      and\n        /* \"contracts/modules/SponsorMatrix.sol\":11698:11699  u */\n      dup2\n        /* \"contracts/modules/SponsorMatrix.sol\":11698:11707  u.account */\n      0x00\n      add\n      0x00\n      swap1\n      sload\n      swap1\n      0x0100\n      exp\n      swap1\n      div\n      0xffffffffffffffffffffffffffffffffffffffff\n      and\n        /* \"contracts/modules/SponsorMatrix.sol\":11698:11721  u.account == msg.sender */\n      0xffffffffffffffffffffffffffffffffffffffff\n      and\n      eq\n        /* \"contracts/modules/SponsorMatrix.sol\":11690:11742  require(u.account == msg.sender, \"Not your account\") */\n      tag_232\n      jumpi\n      mload(0x40)\n      0x08c379a000000000000000000000000000000000000000000000000000000000\n      dup2\n      mstore\n      0x04\n      add\n      tag_233\n      swap1\n      tag_176\n      jump\t// in\n    tag_233:\n      mload(0x40)\n      dup1\n      swap2\n      sub\n      swap1\n      revert\n    tag_232:\n        /* \"contracts/modules/SponsorMatrix.sol\":11817:11836  uint256 accumulated */\n      0x00\n        /* \"contracts/modules/SponsorMatrix.sol\":11839:11858  communityAccPerUser */\n      sload(0x10)\n        /* \"contracts/modules/SponsorMatrix.sol\":11817:11858  uint256 accumulated = communityAccPerUser */\n      swap1\n      pop\n        /* \"contracts/modules/SponsorMatrix.sol\":11873:11885  uint256 debt */\n      0x00\n        /* \"contracts/modules/SponsorMatrix.sol\":11888:11901  communityDebt */\n      0x11\n        /* \"contracts/modules/SponsorMatrix.sol\":11888:11910  communityDebt[_userId] */\n      0x00\n        /* \"contracts/modules/SponsorMatrix.sol\":11902:11909  _userId */\n      dup6\n        /* \"contracts/modules/SponsorMatrix.sol\":11888:11910  communityDebt[_userId] */\n      dup2\n      mstore\n      0x20\n      add\n      swap1\n      dup2\n      mstore\n      0x20\n      add\n      0x00\n      keccak256\n      sload\n        /* \"contracts/modules/SponsorMatrix.sol\":11873:11910  uint256 debt = communityDebt[_userId] */\n      swap1\n      pop\n        /* \"contracts/modules/SponsorMatrix.sol\":11946:11950  debt */\n      dup1\n        /* \"contracts/modules/SponsorMatrix.sol\":11931:11942  accumulated */\n      dup3\n        /* \"contracts/modules/SponsorMatrix.sol\":11931:11950  accumulated == debt */\n      sub\n        /* \"contracts/modules/SponsorMatrix.sol\":11927:12013  if (accumulated == debt) {... */\n      tag_234\n      jumpi\n        /* \"contracts/modules/SponsorMatrix.sol\":11971:11978  return; */\n      pop\n      pop\n      pop\n      jump(tag_228)\n        /* \"contracts/modules/SponsorMatrix.sol\":11927:12013  if (accumulated == debt) {... */\n    tag_234:\n        /* \"contracts/modules/SponsorMatrix.sol\":12029:12044  uint256 accrued */\n      0x00\n        /* \"contracts/modules/SponsorMatrix.sol\":3964:3968  1e18 */\n      0x0de0b6b3a7640000\n        /* \"contracts/modules/SponsorMatrix.sol\":12062:12066  debt */\n      dup3\n        /* \"contracts/modules/SponsorMatrix.sol\":12048:12059  accumulated */\n      dup5\n        /* \"contracts/modules/SponsorMatrix.sol\":12048:12066  accumulated - debt */\n      tag_235\n      swap2\n      swap1\n      tag_166\n      jump\t// in\n    tag_235:\n        /* \"contracts/modules/SponsorMatrix.sol\":12047:12083  (accumulated - debt) / ACC_PRECISION */\n      tag_236\n      swap2\n      swap1\n      tag_168\n      jump\t// in\n    tag_236:\n        /* \"contracts/modules/SponsorMatrix.sol\":12029:12083  uint256 accrued = (accumulated - debt) / ACC_PRECISION */\n      swap1\n      pop\n        /* \"contracts/modules/SponsorMatrix.sol\":12113:12114  0 */\n      0x00\n        /* \"contracts/modules/SponsorMatrix.sol\":12102:12109  accrued */\n      dup2\n        /* \"contracts/modules/SponsorMatrix.sol\":12102:12114  accrued == 0 */\n      sub\n        /* \"contracts/modules/SponsorMatrix.sol\":12098:12231  if (accrued == 0) {... */\n      tag_237\n      jumpi\n        /* \"contracts/modules/SponsorMatrix.sol\":12160:12171  accumulated */\n      dup3\n        /* \"contracts/modules/SponsorMatrix.sol\":12135:12148  communityDebt */\n      0x11\n        /* \"contracts/modules/SponsorMatrix.sol\":12135:12157  communityDebt[_userId] */\n      0x00\n        /* \"contracts/modules/SponsorMatrix.sol\":12149:12156  _userId */\n      dup8\n        /* \"contracts/modules/SponsorMatrix.sol\":12135:12157  communityDebt[_userId] */\n      dup2\n      mstore\n      0x20\n      add\n      swap1\n      dup2\n      mstore\n      0x20\n      add\n      0x00\n      keccak256\n        /* \"contracts/modules/SponsorMatrix.sol\":12135:12171  communityDebt[_userId] = accumulated */\n      dup2\n      swap1\n      sstore\n      pop\n        /* \"contracts/modules/SponsorMatrix.sol\":12209:12216  return; */\n      pop\n      pop\n      pop\n      pop\n      jump(tag_228)\n        /* \"contracts/modules/SponsorMatrix.sol\":12098:12231  if (accrued == 0) {... */\n    tag_237:\n        /* \"contracts/modules/SponsorMatrix.sol\":12294:12305  uint256 pay */\n      0x00\n        /* \"contracts/modules/SponsorMatrix.sol\":12308:12345  _applyGlobalCapping(_userId, accrued) */\n      tag_238\n        /* \"contracts/modules/SponsorMatrix.sol\":12328:12335  _userId */\n      dup7\n        /* \"contracts/modules/SponsorMatrix.sol\":12337:12344  accrued */\n      dup4\n        /* \"contracts/modules/SponsorMatrix.sol\":12308:12327  _applyGlobalCapping */\n      tag_170\n        /* \"contracts/modules/SponsorMatrix.sol\":12308:12345  _applyGlobalCapping(_userId, accrued) */\n      jump\t// in\n    tag_238:\n        /* \"contracts/modules/SponsorMatrix.sol\":12294:12345  uint256 pay = _applyGlobalCapping(_userId, accrued) */\n      swap1\n      pop\n        /* \"contracts/modules/SponsorMatrix.sol\":12460:12471  accumulated */\n      dup4\n        /* \"contracts/modules/SponsorMatrix.sol\":12435:12448  communityDebt */\n      0x11\n        /* \"contracts/modules/SponsorMatrix.sol\":12435:12457  communityDebt[_userId] */\n      0x00\n        /* \"contracts/modules/SponsorMatrix.sol\":12449:12456  _userId */\n      dup9\n        /* \"contracts/modules/SponsorMatrix.sol\":12435:12457  communityDebt[_userId] */\n      dup2\n      mstore\n      0x20\n      add\n      swap1\n      dup2\n      mstore\n      0x20\n      add\n      0x00\n      keccak256\n        /* \"contracts/modules/SponsorMatrix.sol\":12435:12471  communityDebt[_userId] = accumulated */\n      dup2\n      swap1\n      sstore\n      pop\n        /* \"contracts/modules/SponsorMatrix.sol\":12498:12499  0 */\n      0x00\n        /* \"contracts/modules/SponsorMatrix.sol\":12492:12495  pay */\n      dup2\n        /* \"contracts/modules/SponsorMatrix.sol\":12492:12499  pay > 0 */\n      gt\n        /* \"contracts/modules/SponsorMatrix.sol\":12488:13109  if (pay > 0) {... */\n      iszero\n      tag_239\n      jumpi\n        /* \"contracts/modules/SponsorMatrix.sol\":12520:12542  UserIncome storage inc */\n      0x00\n        /* \"contracts/modules/SponsorMatrix.sol\":12545:12556  userIncomes */\n      0x0a\n        /* \"contracts/modules/SponsorMatrix.sol\":12545:12565  userIncomes[_userId] */\n      0x00\n        /* \"contracts/modules/SponsorMatrix.sol\":12557:12564  _userId */\n      dup9\n        /* \"contracts/modules/SponsorMatrix.sol\":12545:12565  userIncomes[_userId] */\n      dup2\n      mstore\n      0x20\n      add\n      swap1\n      dup2\n      mstore\n      0x20\n      add\n      0x00\n      keccak256\n        /* \"contracts/modules/SponsorMatrix.sol\":12520:12565  UserIncome storage inc = userIncomes[_userId] */\n      swap1\n      pop\n        /* \"contracts/modules/SponsorMatrix.sol\":12603:12606  pay */\n      dup2\n        /* \"contracts/modules/SponsorMatrix.sol\":12584:12587  inc */\n      dup2\n        /* \"contracts/modules/SponsorMatrix.sol\":12584:12599  inc.totalIncome */\n      0x00\n      add\n      0x00\n        /* \"contracts/modules/SponsorMatrix.sol\":12584:12606  inc.totalIncome += pay */\n      dup3\n      dup3\n      sload\n      tag_240\n      swap2\n      swap1\n      tag_191\n      jump\t// in\n    tag_240:\n      swap3\n      pop\n      pop\n      dup2\n      swap1\n      sstore\n      pop\n        /* \"contracts/modules/SponsorMatrix.sol\":12648:12651  pay */\n      dup2\n        /* \"contracts/modules/SponsorMatrix.sol\":12625:12628  inc */\n      dup2\n        /* \"contracts/modules/SponsorMatrix.sol\":12625:12644  inc.communityIncome */\n      0x07\n      add\n      0x00\n        /* \"contracts/modules/SponsorMatrix.sol\":12625:12651  inc.communityIncome += pay */\n      dup3\n      dup3\n      sload\n      tag_241\n      swap2\n      swap1\n      tag_191\n      jump\t// in\n    tag_241:\n      swap3\n      pop\n      pop\n      dup2\n      swap1\n      sstore\n      pop\n        /* \"contracts/modules/SponsorMatrix.sol\":12704:12717  incomeHistory */\n      0x0b\n        /* \"contracts/modules/SponsorMatrix.sol\":12704:12726  incomeHistory[_userId] */\n      0x00\n        /* \"contracts/modules/SponsorMatrix.sol\":12718:12725  _userId */\n      dup9\n        /* \"contracts/modules/SponsorMatrix.sol\":12704:12726  incomeHistory[_userId] */\n      dup2\n      mstore\n      0x20\n      add\n      swap1\n      dup2\n      mstore\n      0x20\n      add\n      0x00\n      keccak256\n        /* \"contracts/modules/SponsorMatrix.sol\":12732:12977  Income({... */\n      mload(0x40)\n      dup1\n      0xa0\n      add\n      0x40\n      mstore\n      dup1\n        /* \"contracts/modules/SponsorMatrix.sol\":12774:12781  _userId */\n      dup10\n        /* \"contracts/modules/SponsorMatrix.sol\":12732:12977  Income({... */\n      dup2\n      mstore\n      0x20\n      add\n        /* \"contracts/modules/SponsorMatrix.sol\":12812:12815  pay */\n      dup5\n        /* \"contracts/modules/SponsorMatrix.sol\":12732:12977  Income({... */\n      dup2\n      mstore\n      0x20\n      add\n        /* \"contracts/modules/SponsorMatrix.sol\":12852:12853  1 */\n      0x01\n        /* \"contracts/modules/SponsorMatrix.sol\":12732:12977  Income({... */\n      dup2\n      mstore\n      0x20\n      add\n        /* \"contracts/modules/SponsorMatrix.sol\":12887:12902  block.timestamp */\n      timestamp\n        /* \"contracts/modules/SponsorMatrix.sol\":12732:12977  Income({... */\n      dup2\n      mstore\n      0x20\n      add\n        /* \"contracts/modules/SponsorMatrix.sol\":12937:12938  9 */\n      0x09\n        /* \"contracts/modules/SponsorMatrix.sol\":12732:12977  Income({... */\n      dup2\n      mstore\n      pop\n        /* \"contracts/modules/SponsorMatrix.sol\":12704:12978  incomeHistory[_userId].push(Income({... */\n      swap1\n      dup1\n      0x01\n      dup2\n      sload\n      add\n      dup1\n      dup3\n      sstore\n      dup1\n      swap2\n      pop\n      pop\n      0x01\n      swap1\n      sub\n      swap1\n      0x00\n      mstore\n      keccak256(0x00, 0x20)\n      swap1\n      0x05\n      mul\n      add\n      0x00\n      swap1\n      swap2\n      swap1\n      swap2\n      swap1\n      swap2\n      pop\n      0x00\n      dup3\n      add\n      mload\n      dup2\n      0x00\n      add\n      sstore\n      0x20\n      dup3\n      add\n      mload\n      dup2\n      0x01\n      add\n      sstore\n      0x40\n      dup3\n      add\n      mload\n      dup2\n      0x02\n      add\n      sstore\n      0x60\n      dup3\n      add\n      mload\n      dup2\n      0x03\n      add\n      sstore\n      0x80\n      dup3\n      add\n      mload\n      dup2\n      0x04\n      add\n      sstore\n      pop\n      pop\n        /* \"contracts/modules/SponsorMatrix.sol\":13039:13043  usdt */\n      0x00\n      dup1\n      sload\n      swap1\n      0x0100\n      exp\n      swap1\n      div\n      0xffffffffffffffffffffffffffffffffffffffff\n      and\n        /* \"contracts/modules/SponsorMatrix.sol\":13039:13052  usdt.transfer */\n      0xffffffffffffffffffffffffffffffffffffffff\n      and\n      0xa9059cbb\n        /* \"contracts/modules/SponsorMatrix.sol\":13053:13054  u */\n      dup8\n        /* \"contracts/modules/SponsorMatrix.sol\":13053:13062  u.account */\n      0x00\n      add\n      0x00\n      swap1\n      sload\n      swap1\n      0x0100\n      exp\n      swap1\n      div\n      0xffffffffffffffffffffffffffffffffffffffff\n      and\n        /* \"contracts/modules/SponsorMatrix.sol\":13064:13067  pay */\n      dup5\n        /* \"contracts/modules/SponsorMatrix.sol\":13039:13068  usdt.transfer(u.account, pay) */\n      mload(0x40)\n      dup4\n      0xffffffff\n      and\n      0xe0\n      shl\n      dup2\n      mstore\n      0x04\n      add\n      tag_243\n      swap3\n      swap2\n      swap1\n      tag_244\n      jump\t// in\n    tag_243:\n      0x20\n      mload(0x40)\n      dup1\n      dup4\n      sub\n      dup2\n      0x00\n      dup8\n      gas\n      call\n      iszero\n      dup1\n      iszero\n      tag_246\n      jumpi\n      returndatasize\n      0x00\n      dup1\n      returndatacopy\n      revert(0x00, returndatasize)\n    tag_246:\n      pop\n      pop\n      pop\n      pop\n      mload(0x40)\n      returndatasize\n      not(0x1f)\n      0x1f\n      dup3\n      add\n      and\n      dup3\n      add\n      dup1\n      0x40\n      mstore\n      pop\n      dup2\n      add\n      swap1\n      tag_247\n      swap2\n      swap1\n      tag_189\n      jump\t// in\n    tag_247:\n        /* \"contracts/modules/SponsorMatrix.sol\":13031:13093  require(usdt.transfer(u.account, pay), \"USDT transfer failed\") */\n      tag_248\n      jumpi\n      mload(0x40)\n      0x08c379a000000000000000000000000000000000000000000000000000000000\n      dup2\n      mstore\n      0x04\n      add\n      tag_249\n      swap1\n      tag_250\n      jump\t// in\n    tag_249:\n      mload(0x40)\n      dup1\n      swap2\n      sub\n      swap1\n      revert\n    tag_248:\n        /* \"contracts/modules/SponsorMatrix.sol\":12501:13109  {... */\n      pop\n        /* \"contracts/modules/SponsorMatrix.sol\":12488:13109  if (pay > 0) {... */\n    tag_239:\n        /* \"contracts/modules/SponsorMatrix.sol\":13198:13201  pay */\n      dup1\n        /* \"contracts/modules/SponsorMatrix.sol\":13188:13195  accrued */\n      dup3\n        /* \"contracts/modules/SponsorMatrix.sol\":13188:13201  accrued > pay */\n      gt\n        /* \"contracts/modules/SponsorMatrix.sol\":13184:13267  if (accrued > pay) {... */\n      iszero\n      tag_251\n      jumpi\n        /* \"contracts/modules/SponsorMatrix.sol\":13222:13251  _sendToCreator(accrued - pay) */\n      tag_252\n        /* \"contracts/modules/SponsorMatrix.sol\":13247:13250  pay */\n      dup2\n        /* \"contracts/modules/SponsorMatrix.sol\":13237:13244  accrued */\n      dup4\n        /* \"contracts/modules/SponsorMatrix.sol\":13237:13250  accrued - pay */\n      tag_253\n      swap2\n      swap1\n      tag_166\n      jump\t// in\n    tag_253:\n        /* \"contracts/modules/SponsorMatrix.sol\":13222:13236  _sendToCreator */\n      tag_202\n        /* \"contracts/modules/SponsorMatrix.sol\":13222:13251  _sendToCreator(accrued - pay) */\n      jump\t// in\n    tag_252:\n        /* \"contracts/modules/SponsorMatrix.sol\":13184:13267  if (accrued > pay) {... */\n    tag_251:\n        /* \"contracts/modules/SponsorMatrix.sol\":11578:13278  {... */\n      pop\n      pop\n      pop\n      pop\n      pop\n        /* \"contracts/modules/SponsorMatrix.sol\":11531:13278  function claimCommunity(uint _userId) external {... */\n    tag_228:\n      pop\n      jump\t// out\n        /* \"contracts/modules/SponsorMatrix.sol\":876:906  address public systemMaintance */\n    tag_151:\n      0x03\n      0x00\n      swap1\n      sload\n      swap1\n      0x0100\n      exp\n      swap1\n      div\n      0xffffffffffffffffffffffffffffffffffffffff\n      and\n      dup2\n      jump\t// out\n        /* \"contracts/modules/SponsorMatrix.sol\":950:974  uint public defaultRefId */\n    tag_154:\n      sload(0x05)\n      dup2\n      jump\t// out\n        /* \"contracts/modules/SponsorMatrix.sol\":6664:8847  function register(uint _sponsorId) external {... */\n    tag_158:\n        /* \"contracts/modules/SponsorMatrix.sol\":6754:6755  0 */\n      0x00\n        /* \"contracts/modules/SponsorMatrix.sol\":6727:6738  addressToId */\n      0x08\n        /* \"contracts/modules/SponsorMatrix.sol\":6727:6750  addressToId[msg.sender] */\n      0x00\n        /* \"contracts/modules/SponsorMatrix.sol\":6739:6749  msg.sender */\n      caller\n        /* \"contracts/modules/SponsorMatrix.sol\":6727:6750  addressToId[msg.sender] */\n      0xffffffffffffffffffffffffffffffffffffffff\n      and\n      0xffffffffffffffffffffffffffffffffffffffff\n      and\n      dup2\n      mstore\n      0x20\n      add\n      swap1\n      dup2\n      mstore\n      0x20\n      add\n      0x00\n      keccak256\n      sload\n        /* \"contracts/modules/SponsorMatrix.sol\":6727:6755  addressToId[msg.sender] == 0 */\n      eq\n        /* \"contracts/modules/SponsorMatrix.sol\":6719:6778  require(addressToId[msg.sender] == 0, \"Already registered\") */\n      tag_255\n      jumpi\n      mload(0x40)\n      0x08c379a000000000000000000000000000000000000000000000000000000000\n      dup2\n      mstore\n      0x04\n      add\n      tag_256\n      swap1\n      tag_257\n      jump\t// in\n    tag_256:\n      mload(0x40)\n      dup1\n      swap2\n      sub\n      swap1\n      revert\n    tag_255:\n        /* \"contracts/modules/SponsorMatrix.sol\":6820:6821  0 */\n      0x00\n        /* \"contracts/modules/SponsorMatrix.sol\":6797:6802  users */\n      0x09\n        /* \"contracts/modules/SponsorMatrix.sol\":6797:6814  users[_sponsorId] */\n      0x00\n        /* \"contracts/modules/SponsorMatrix.sol\":6803:6813  _sponsorId */\n      dup4\n        /* \"contracts/modules/SponsorMatrix.sol\":6797:6814  users[_sponsorId] */\n      dup2\n      mstore\n      0x20\n      add\n      swap1\n      dup2\n      mstore\n      0x20\n      add\n      0x00\n      keccak256\n        /* \"contracts/modules/SponsorMatrix.sol\":6797:6817  users[_sponsorId].id */\n      0x03\n      add\n      sload\n        /* \"contracts/modules/SponsorMatrix.sol\":6797:6821  users[_sponsorId].id > 0 */\n      gt\n        /* \"contracts/modules/SponsorMatrix.sol\":6789:6841  require(users[_sponsorId].id > 0, \"Invalid sponsor\") */\n      tag_258\n      jumpi\n      mload(0x40)\n      0x08c379a000000000000000000000000000000000000000000000000000000000\n      dup2\n      mstore\n      0x04\n      add\n      tag_259\n      swap1\n      tag_260\n      jump\t// in\n    tag_259:\n      mload(0x40)\n      dup1\n      swap2\n      sub\n      swap1\n      revert\n    tag_258:\n        /* \"contracts/modules/SponsorMatrix.sol\":6910:6914  usdt */\n      0x00\n      dup1\n      sload\n      swap1\n      0x0100\n      exp\n      swap1\n      div\n      0xffffffffffffffffffffffffffffffffffffffff\n      and\n        /* \"contracts/modules/SponsorMatrix.sol\":6910:6927  usdt.transferFrom */\n      0xffffffffffffffffffffffffffffffffffffffff\n      and\n      0x23b872dd\n        /* \"contracts/modules/SponsorMatrix.sol\":6928:6938  msg.sender */\n      caller\n        /* \"contracts/modules/SponsorMatrix.sol\":6948:6952  this */\n      address\n        /* \"contracts/modules/SponsorMatrix.sol\":6955:6963  packages */\n      0x07\n        /* \"contracts/modules/SponsorMatrix.sol\":6964:6965  0 */\n      0x00\n        /* \"contracts/modules/SponsorMatrix.sol\":6955:6966  packages[0] */\n      dup2\n      sload\n      dup2\n      lt\n      tag_261\n      jumpi\n      tag_262\n      tag_182\n      jump\t// in\n    tag_262:\n    tag_261:\n      swap1\n      0x00\n      mstore\n      keccak256(0x00, 0x20)\n      add\n      sload\n        /* \"contracts/modules/SponsorMatrix.sol\":6910:6967  usdt.transferFrom(msg.sender, address(this), packages[0]) */\n      mload(0x40)\n      dup5\n      0xffffffff\n      and\n      0xe0\n      shl\n      dup2\n      mstore\n      0x04\n      add\n      tag_264\n      swap4\n      swap3\n      swap2\n      swap1\n      tag_185\n      jump\t// in\n    tag_264:\n      0x20\n      mload(0x40)\n      dup1\n      dup4\n      sub\n      dup2\n      0x00\n      dup8\n      gas\n      call\n      iszero\n      dup1\n      iszero\n      tag_266\n      jumpi\n      returndatasize\n      0x00\n      dup1\n      returndatacopy\n      revert(0x00, returndatasize)\n    tag_266:\n      pop\n      pop\n      pop\n      pop\n      mload(0x40)\n      returndatasize\n      not(0x1f)\n      0x1f\n      dup3\n      add\n      and\n      dup3\n      add\n      dup1\n      0x40\n      mstore\n      pop\n      dup2\n      add\n      swap1\n      tag_267\n      swap2\n      swap1\n      tag_189\n      jump\t// in\n    tag_267:\n      pop\n        /* \"contracts/modules/SponsorMatrix.sol\":7016:7030  uint newUserId */\n      0x00\n        /* \"contracts/modules/SponsorMatrix.sol\":7062:7063  5 */\n      0x05\n        /* \"contracts/modules/SponsorMatrix.sol\":7049:7059  totalUsers */\n      sload(0x06)\n        /* \"contracts/modules/SponsorMatrix.sol\":7049:7063  totalUsers * 5 */\n      tag_268\n      swap2\n      swap1\n      tag_195\n      jump\t// in\n    tag_268:\n        /* \"contracts/modules/SponsorMatrix.sol\":7033:7045  defaultRefId */\n      sload(0x05)\n        /* \"contracts/modules/SponsorMatrix.sol\":7033:7064  defaultRefId + (totalUsers * 5) */\n      tag_269\n      swap2\n      swap1\n      tag_191\n      jump\t// in\n    tag_269:\n        /* \"contracts/modules/SponsorMatrix.sol\":7016:7064  uint newUserId = defaultRefId + (totalUsers * 5) */\n      swap1\n      pop\n        /* \"contracts/modules/SponsorMatrix.sol\":7101:7110  newUserId */\n      dup1\n        /* \"contracts/modules/SponsorMatrix.sol\":7075:7086  addressToId */\n      0x08\n        /* \"contracts/modules/SponsorMatrix.sol\":7075:7098  addressToId[msg.sender] */\n      0x00\n        /* \"contracts/modules/SponsorMatrix.sol\":7087:7097  msg.sender */\n      caller\n        /* \"contracts/modules/SponsorMatrix.sol\":7075:7098  addressToId[msg.sender] */\n      0xffffffffffffffffffffffffffffffffffffffff\n      and\n      0xffffffffffffffffffffffffffffffffffffffff\n      and\n      dup2\n      mstore\n      0x20\n      add\n      swap1\n      dup2\n      mstore\n      0x20\n      add\n      0x00\n      keccak256\n        /* \"contracts/modules/SponsorMatrix.sol\":7075:7110  addressToId[msg.sender] = newUserId */\n      dup2\n      swap1\n      sstore\n      pop\n        /* \"contracts/modules/SponsorMatrix.sol\":7131:7148  User storage user */\n      0x00\n        /* \"contracts/modules/SponsorMatrix.sol\":7151:7156  users */\n      0x09\n        /* \"contracts/modules/SponsorMatrix.sol\":7151:7167  users[newUserId] */\n      0x00\n        /* \"contracts/modules/SponsorMatrix.sol\":7157:7166  newUserId */\n      dup4\n        /* \"contracts/modules/SponsorMatrix.sol\":7151:7167  users[newUserId] */\n      dup2\n      mstore\n      0x20\n      add\n      swap1\n      dup2\n      mstore\n      0x20\n      add\n      0x00\n      keccak256\n        /* \"contracts/modules/SponsorMatrix.sol\":7131:7167  User storage user = users[newUserId] */\n      swap1\n      pop\n        /* \"contracts/modules/SponsorMatrix.sol\":7193:7203  msg.sender */\n      caller\n        /* \"contracts/modules/SponsorMatrix.sol\":7178:7182  user */\n      dup2\n        /* \"contracts/modules/SponsorMatrix.sol\":7178:7190  user.account */\n      0x00\n      add\n      0x00\n        /* \"contracts/modules/SponsorMatrix.sol\":7178:7203  user.account = msg.sender */\n      0x0100\n      exp\n      dup2\n      sload\n      dup2\n      0xffffffffffffffffffffffffffffffffffffffff\n      mul\n      not\n      and\n      swap1\n      dup4\n      0xffffffffffffffffffffffffffffffffffffffff\n      and\n      mul\n      or\n      swap1\n      sstore\n      pop\n        /* \"contracts/modules/SponsorMatrix.sol\":7232:7247  block.timestamp */\n      timestamp\n        /* \"contracts/modules/SponsorMatrix.sol\":7214:7218  user */\n      dup2\n        /* \"contracts/modules/SponsorMatrix.sol\":7214:7229  user.checkpoint */\n      0x02\n      add\n        /* \"contracts/modules/SponsorMatrix.sol\":7214:7247  user.checkpoint = block.timestamp */\n      dup2\n      swap1\n      sstore\n      pop\n        /* \"contracts/modules/SponsorMatrix.sol\":7268:7277  newUserId */\n      dup2\n        /* \"contracts/modules/SponsorMatrix.sol\":7258:7262  user */\n      dup2\n        /* \"contracts/modules/SponsorMatrix.sol\":7258:7265  user.id */\n      0x03\n      add\n        /* \"contracts/modules/SponsorMatrix.sol\":7258:7277  user.id = newUserId */\n      dup2\n      swap1\n      sstore\n      pop\n        /* \"contracts/modules/SponsorMatrix.sol\":7305:7315  _sponsorId */\n      dup3\n        /* \"contracts/modules/SponsorMatrix.sol\":7288:7292  user */\n      dup2\n        /* \"contracts/modules/SponsorMatrix.sol\":7288:7302  user.sponsorId */\n      0x04\n      add\n        /* \"contracts/modules/SponsorMatrix.sol\":7288:7315  user.sponsorId = _sponsorId */\n      dup2\n      swap1\n      sstore\n      pop\n        /* \"contracts/modules/SponsorMatrix.sol\":7339:7340  1 */\n      0x01\n        /* \"contracts/modules/SponsorMatrix.sol\":7326:7330  user */\n      dup2\n        /* \"contracts/modules/SponsorMatrix.sol\":7326:7336  user.level */\n      0x06\n      add\n        /* \"contracts/modules/SponsorMatrix.sol\":7326:7340  user.level = 1 */\n      dup2\n      swap1\n      sstore\n      pop\n        /* \"contracts/modules/SponsorMatrix.sol\":7371:7379  packages */\n      0x07\n        /* \"contracts/modules/SponsorMatrix.sol\":7380:7381  0 */\n      0x00\n        /* \"contracts/modules/SponsorMatrix.sol\":7371:7382  packages[0] */\n      dup2\n      sload\n      dup2\n      lt\n      tag_270\n      jumpi\n      tag_271\n      tag_182\n      jump\t// in\n    tag_271:\n    tag_270:\n      swap1\n      0x00\n      mstore\n      keccak256(0x00, 0x20)\n      add\n      sload\n        /* \"contracts/modules/SponsorMatrix.sol\":7351:7355  user */\n      dup2\n        /* \"contracts/modules/SponsorMatrix.sol\":7351:7368  user.totalDeposit */\n      0x09\n      add\n        /* \"contracts/modules/SponsorMatrix.sol\":7351:7382  user.totalDeposit = packages[0] */\n      dup2\n      swap1\n      sstore\n      pop\n        /* \"contracts/modules/SponsorMatrix.sol\":7417:7432  block.timestamp */\n      timestamp\n        /* \"contracts/modules/SponsorMatrix.sol\":7393:7397  user */\n      dup2\n        /* \"contracts/modules/SponsorMatrix.sol\":7393:7414  user.registrationTime */\n      0x0a\n      add\n        /* \"contracts/modules/SponsorMatrix.sol\":7393:7432  user.registrationTime = block.timestamp */\n      dup2\n      swap1\n      sstore\n      pop\n        /* \"contracts/modules/SponsorMatrix.sol\":7530:7531  1 */\n      0x01\n        /* \"contracts/modules/SponsorMatrix.sol\":7498:7503  users */\n      0x09\n        /* \"contracts/modules/SponsorMatrix.sol\":7498:7515  users[_sponsorId] */\n      0x00\n        /* \"contracts/modules/SponsorMatrix.sol\":7504:7514  _sponsorId */\n      dup6\n        /* \"contracts/modules/SponsorMatrix.sol\":7498:7515  users[_sponsorId] */\n      dup2\n      mstore\n      0x20\n      add\n      swap1\n      dup2\n      mstore\n      0x20\n      add\n      0x00\n      keccak256\n        /* \"contracts/modules/SponsorMatrix.sol\":7498:7526  users[_sponsorId].directTeam */\n      0x07\n      add\n      0x00\n        /* \"contracts/modules/SponsorMatrix.sol\":7498:7531  users[_sponsorId].directTeam += 1 */\n      dup3\n      dup3\n      sload\n      tag_273\n      swap2\n      swap1\n      tag_191\n      jump\t// in\n    tag_273:\n      swap3\n      pop\n      pop\n      dup2\n      swap1\n      sstore\n      pop\n        /* \"contracts/modules/SponsorMatrix.sol\":7542:7557  directReferrals */\n      0x0e\n        /* \"contracts/modules/SponsorMatrix.sol\":7542:7569  directReferrals[_sponsorId] */\n      0x00\n        /* \"contracts/modules/SponsorMatrix.sol\":7558:7568  _sponsorId */\n      dup5\n        /* \"contracts/modules/SponsorMatrix.sol\":7542:7569  directReferrals[_sponsorId] */\n      dup2\n      mstore\n      0x20\n      add\n      swap1\n      dup2\n      mstore\n      0x20\n      add\n      0x00\n      keccak256\n        /* \"contracts/modules/SponsorMatrix.sol\":7575:7584  newUserId */\n      dup3\n        /* \"contracts/modules/SponsorMatrix.sol\":7542:7585  directReferrals[_sponsorId].push(newUserId) */\n      swap1\n      dup1\n      0x01\n      dup2\n      sload\n      add\n      dup1\n      dup3\n      sstore\n      dup1\n      swap2\n      pop\n      pop\n      0x01\n      swap1\n      sub\n      swap1\n      0x00\n      mstore\n      keccak256(0x00, 0x20)\n      add\n      0x00\n      swap1\n      swap2\n      swap1\n      swap2\n      swap1\n      swap2\n      pop\n      sstore\n        /* \"contracts/modules/SponsorMatrix.sol\":7596:7613  registeredUserIds */\n      0x16\n        /* \"contracts/modules/SponsorMatrix.sol\":7619:7628  newUserId */\n      dup3\n        /* \"contracts/modules/SponsorMatrix.sol\":7596:7629  registeredUserIds.push(newUserId) */\n      swap1\n      dup1\n      0x01\n      dup2\n      sload\n      add\n      dup1\n      dup3\n      sstore\n      dup1\n      swap2\n      pop\n      pop\n      0x01\n      swap1\n      sub\n      swap1\n      0x00\n      mstore\n      keccak256(0x00, 0x20)\n      add\n      0x00\n      swap1\n      swap2\n      swap1\n      swap2\n      swap1\n      swap2\n      pop\n      sstore\n        /* \"contracts/modules/SponsorMatrix.sol\":7667:7686  communityAccPerUser */\n      sload(0x10)\n        /* \"contracts/modules/SponsorMatrix.sol\":7640:7653  communityDebt */\n      0x11\n        /* \"contracts/modules/SponsorMatrix.sol\":7640:7664  communityDebt[newUserId] */\n      0x00\n        /* \"contracts/modules/SponsorMatrix.sol\":7654:7663  newUserId */\n      dup5\n        /* \"contracts/modules/SponsorMatrix.sol\":7640:7664  communityDebt[newUserId] */\n      dup2\n      mstore\n      0x20\n      add\n      swap1\n      dup2\n      mstore\n      0x20\n      add\n      0x00\n      keccak256\n        /* \"contracts/modules/SponsorMatrix.sol\":7640:7686  communityDebt[newUserId] = communityAccPerUser */\n      dup2\n      swap1\n      sstore\n      pop\n        /* \"contracts/modules/SponsorMatrix.sol\":7738:7775  _placeInMatrix(newUserId, _sponsorId) */\n      tag_276\n        /* \"contracts/modules/SponsorMatrix.sol\":7753:7762  newUserId */\n      dup3\n        /* \"contracts/modules/SponsorMatrix.sol\":7764:7774  _sponsorId */\n      dup5\n        /* \"contracts/modules/SponsorMatrix.sol\":7738:7752  _placeInMatrix */\n      tag_277\n        /* \"contracts/modules/SponsorMatrix.sol\":7738:7775  _placeInMatrix(newUserId, _sponsorId) */\n      jump\t// in\n    tag_276:\n        /* \"contracts/modules/SponsorMatrix.sol\":7814:7818  user */\n      dup1\n        /* \"contracts/modules/SponsorMatrix.sol\":7814:7827  user.deposits */\n      0x01\n      add\n        /* \"contracts/modules/SponsorMatrix.sol\":7833:7951  Deposit({... */\n      mload(0x40)\n      dup1\n      0x60\n      add\n      0x40\n      mstore\n      dup1\n        /* \"contracts/modules/SponsorMatrix.sol\":7864:7872  packages */\n      0x07\n        /* \"contracts/modules/SponsorMatrix.sol\":7873:7874  0 */\n      0x00\n        /* \"contracts/modules/SponsorMatrix.sol\":7864:7875  packages[0] */\n      dup2\n      sload\n      dup2\n      lt\n      tag_278\n      jumpi\n      tag_279\n      tag_182\n      jump\t// in\n    tag_279:\n    tag_278:\n      swap1\n      0x00\n      mstore\n      keccak256(0x00, 0x20)\n      add\n      sload\n        /* \"contracts/modules/SponsorMatrix.sol\":7833:7951  Deposit({... */\n      dup2\n      mstore\n      0x20\n      add\n        /* \"contracts/modules/SponsorMatrix.sol\":7901:7902  0 */\n      0x00\n        /* \"contracts/modules/SponsorMatrix.sol\":7833:7951  Deposit({... */\n      dup2\n      mstore\n      0x20\n      add\n        /* \"contracts/modules/SponsorMatrix.sol\":7924:7939  block.timestamp */\n      timestamp\n        /* \"contracts/modules/SponsorMatrix.sol\":7833:7951  Deposit({... */\n      dup2\n      mstore\n      pop\n        /* \"contracts/modules/SponsorMatrix.sol\":7814:7952  user.deposits.push(Deposit({... */\n      swap1\n      dup1\n      0x01\n      dup2\n      sload\n      add\n      dup1\n      dup3\n      sstore\n      dup1\n      swap2\n      pop\n      pop\n      0x01\n      swap1\n      sub\n      swap1\n      0x00\n      mstore\n      keccak256(0x00, 0x20)\n      swap1\n      0x03\n      mul\n      add\n      0x00\n      swap1\n      swap2\n      swap1\n      swap2\n      swap1\n      swap2\n      pop\n      0x00\n      dup3\n      add\n      mload\n      dup2\n      0x00\n      add\n      sstore\n      0x20\n      dup3\n      add\n      mload\n      dup2\n      0x01\n      add\n      sstore\n      0x40\n      dup3\n      add\n      mload\n      dup2\n      0x02\n      add\n      sstore\n      pop\n      pop\n        /* \"contracts/modules/SponsorMatrix.sol\":7993:8015  uint totalPackagePrice */\n      0x00\n        /* \"contracts/modules/SponsorMatrix.sol\":8018:8026  packages */\n      0x07\n        /* \"contracts/modules/SponsorMatrix.sol\":8027:8028  0 */\n      0x00\n        /* \"contracts/modules/SponsorMatrix.sol\":8018:8029  packages[0] */\n      dup2\n      sload\n      dup2\n      lt\n      tag_282\n      jumpi\n      tag_283\n      tag_182\n      jump\t// in\n    tag_283:\n    tag_282:\n      swap1\n      0x00\n      mstore\n      keccak256(0x00, 0x20)\n      add\n      sload\n        /* \"contracts/modules/SponsorMatrix.sol\":7993:8029  uint totalPackagePrice = packages[0] */\n      swap1\n      pop\n        /* \"contracts/modules/SponsorMatrix.sol\":8040:8057  uint creatorShare */\n      0x00\n        /* \"contracts/modules/SponsorMatrix.sol\":8085:8088  100 */\n      0x64\n        /* \"contracts/modules/SponsorMatrix.sol\":8080:8082  10 */\n      0x0a\n        /* \"contracts/modules/SponsorMatrix.sol\":8060:8077  totalPackagePrice */\n      dup4\n        /* \"contracts/modules/SponsorMatrix.sol\":8060:8082  totalPackagePrice * 10 */\n      tag_285\n      swap2\n      swap1\n      tag_195\n      jump\t// in\n    tag_285:\n        /* \"contracts/modules/SponsorMatrix.sol\":8060:8088  totalPackagePrice * 10 / 100 */\n      tag_286\n      swap2\n      swap1\n      tag_168\n      jump\t// in\n    tag_286:\n        /* \"contracts/modules/SponsorMatrix.sol\":8040:8088  uint creatorShare = totalPackagePrice * 10 / 100 */\n      swap1\n      pop\n        /* \"contracts/modules/SponsorMatrix.sol\":8117:8137  uint remainingAmount */\n      0x00\n        /* \"contracts/modules/SponsorMatrix.sol\":8165:8168  100 */\n      0x64\n        /* \"contracts/modules/SponsorMatrix.sol\":8160:8162  35 */\n      0x23\n        /* \"contracts/modules/SponsorMatrix.sol\":8140:8157  totalPackagePrice */\n      dup5\n        /* \"contracts/modules/SponsorMatrix.sol\":8140:8162  totalPackagePrice * 35 */\n      tag_287\n      swap2\n      swap1\n      tag_195\n      jump\t// in\n    tag_287:\n        /* \"contracts/modules/SponsorMatrix.sol\":8140:8168  totalPackagePrice * 35 / 100 */\n      tag_288\n      swap2\n      swap1\n      tag_168\n      jump\t// in\n    tag_288:\n        /* \"contracts/modules/SponsorMatrix.sol\":8117:8168  uint remainingAmount = totalPackagePrice * 35 / 100 */\n      swap1\n      pop\n        /* \"contracts/modules/SponsorMatrix.sol\":8242:8245  100 */\n      0x64\n        /* \"contracts/modules/SponsorMatrix.sol\":8238:8239  5 */\n      0x05\n        /* \"contracts/modules/SponsorMatrix.sol\":8218:8235  totalPackagePrice */\n      dup5\n        /* \"contracts/modules/SponsorMatrix.sol\":8218:8239  totalPackagePrice * 5 */\n      tag_289\n      swap2\n      swap1\n      tag_195\n      jump\t// in\n    tag_289:\n        /* \"contracts/modules/SponsorMatrix.sol\":8218:8245  totalPackagePrice * 5 / 100 */\n      tag_290\n      swap2\n      swap1\n      tag_168\n      jump\t// in\n    tag_290:\n        /* \"contracts/modules/SponsorMatrix.sol\":8203:8214  lotteryPool */\n      0x12\n      0x00\n        /* \"contracts/modules/SponsorMatrix.sol\":8203:8245  lotteryPool += totalPackagePrice * 5 / 100 */\n      dup3\n      dup3\n      sload\n      tag_291\n      swap2\n      swap1\n      tag_191\n      jump\t// in\n    tag_291:\n      swap3\n      pop\n      pop\n      dup2\n      swap1\n      sstore\n      pop\n        /* \"contracts/modules/SponsorMatrix.sol\":8290:8309  uint communityShare */\n      0x00\n        /* \"contracts/modules/SponsorMatrix.sol\":8337:8340  100 */\n      0x64\n        /* \"contracts/modules/SponsorMatrix.sol\":8332:8334  50 */\n      0x32\n        /* \"contracts/modules/SponsorMatrix.sol\":8312:8329  totalPackagePrice */\n      dup6\n        /* \"contracts/modules/SponsorMatrix.sol\":8312:8334  totalPackagePrice * 50 */\n      tag_292\n      swap2\n      swap1\n      tag_195\n      jump\t// in\n    tag_292:\n        /* \"contracts/modules/SponsorMatrix.sol\":8312:8340  totalPackagePrice * 50 / 100 */\n      tag_293\n      swap2\n      swap1\n      tag_168\n      jump\t// in\n    tag_293:\n        /* \"contracts/modules/SponsorMatrix.sol\":8290:8340  uint communityShare = totalPackagePrice * 50 / 100 */\n      swap1\n      pop\n        /* \"contracts/modules/SponsorMatrix.sol\":8440:8477  _accrueCommunityBonus(communityShare) */\n      tag_294\n        /* \"contracts/modules/SponsorMatrix.sol\":8462:8476  communityShare */\n      dup2\n        /* \"contracts/modules/SponsorMatrix.sol\":8440:8461  _accrueCommunityBonus */\n      tag_200\n        /* \"contracts/modules/SponsorMatrix.sol\":8440:8477  _accrueCommunityBonus(communityShare) */\n      jump\t// in\n    tag_294:\n        /* \"contracts/modules/SponsorMatrix.sol\":8531:8559  _sendToCreator(creatorShare) */\n      tag_295\n        /* \"contracts/modules/SponsorMatrix.sol\":8546:8558  creatorShare */\n      dup4\n        /* \"contracts/modules/SponsorMatrix.sol\":8531:8545  _sendToCreator */\n      tag_202\n        /* \"contracts/modules/SponsorMatrix.sol\":8531:8559  _sendToCreator(creatorShare) */\n      jump\t// in\n    tag_295:\n        /* \"contracts/modules/SponsorMatrix.sol\":8629:8700  _distributeSponsorIncome(user.sponsorId, newUserId, remainingAmount, 1) */\n      tag_296\n        /* \"contracts/modules/SponsorMatrix.sol\":8654:8658  user */\n      dup6\n        /* \"contracts/modules/SponsorMatrix.sol\":8654:8668  user.sponsorId */\n      0x04\n      add\n      sload\n        /* \"contracts/modules/SponsorMatrix.sol\":8670:8679  newUserId */\n      dup8\n        /* \"contracts/modules/SponsorMatrix.sol\":8681:8696  remainingAmount */\n      dup5\n        /* \"contracts/modules/SponsorMatrix.sol\":8698:8699  1 */\n      0x01\n        /* \"contracts/modules/SponsorMatrix.sol\":8629:8653  _distributeSponsorIncome */\n      tag_207\n        /* \"contracts/modules/SponsorMatrix.sol\":8629:8700  _distributeSponsorIncome(user.sponsorId, newUserId, remainingAmount, 1) */\n      jump\t// in\n    tag_296:\n        /* \"contracts/modules/SponsorMatrix.sol\":8735:8736  1 */\n      0x01\n        /* \"contracts/modules/SponsorMatrix.sol\":8721:8731  totalUsers */\n      0x06\n      0x00\n        /* \"contracts/modules/SponsorMatrix.sol\":8721:8736  totalUsers += 1 */\n      dup3\n      dup3\n      sload\n      tag_297\n      swap2\n      swap1\n      tag_191\n      jump\t// in\n    tag_297:\n      swap3\n      pop\n      pop\n      dup2\n      swap1\n      sstore\n      pop\n        /* \"contracts/modules/SponsorMatrix.sol\":8814:8823  newUserId */\n      dup6\n        /* \"contracts/modules/SponsorMatrix.sol\":8787:8792  users */\n      0x09\n        /* \"contracts/modules/SponsorMatrix.sol\":8787:8804  users[_sponsorId] */\n      0x00\n        /* \"contracts/modules/SponsorMatrix.sol\":8793:8803  _sponsorId */\n      dup10\n        /* \"contracts/modules/SponsorMatrix.sol\":8787:8804  users[_sponsorId] */\n      dup2\n      mstore\n      0x20\n      add\n      swap1\n      dup2\n      mstore\n      0x20\n      add\n      0x00\n      keccak256\n        /* \"contracts/modules/SponsorMatrix.sol\":8787:8812  users[_sponsorId].account */\n      0x00\n      add\n      0x00\n      swap1\n      sload\n      swap1\n      0x0100\n      exp\n      swap1\n      div\n      0xffffffffffffffffffffffffffffffffffffffff\n      and\n        /* \"contracts/modules/SponsorMatrix.sol\":8762:8839  Registration(msg.sender, users[_sponsorId].account, newUserId, user.uplineId) */\n      0xffffffffffffffffffffffffffffffffffffffff\n      and\n        /* \"contracts/modules/SponsorMatrix.sol\":8775:8785  msg.sender */\n      caller\n        /* \"contracts/modules/SponsorMatrix.sol\":8762:8839  Registration(msg.sender, users[_sponsorId].account, newUserId, user.uplineId) */\n      0xffffffffffffffffffffffffffffffffffffffff\n      and\n      0x309bb360e8b69c23937ccc5fb01f9aeeead1c95a99604e175113ff82f2b1723a\n        /* \"contracts/modules/SponsorMatrix.sol\":8825:8829  user */\n      dup9\n        /* \"contracts/modules/SponsorMatrix.sol\":8825:8838  user.uplineId */\n      0x05\n      add\n      sload\n        /* \"contracts/modules/SponsorMatrix.sol\":8762:8839  Registration(msg.sender, users[_sponsorId].account, newUserId, user.uplineId) */\n      mload(0x40)\n      tag_298\n      swap2\n      swap1\n      tag_45\n      jump\t// in\n    tag_298:\n      mload(0x40)\n      dup1\n      swap2\n      sub\n      swap1\n      log4\n        /* \"contracts/modules/SponsorMatrix.sol\":6708:8847  {... */\n      pop\n      pop\n      pop\n      pop\n      pop\n      pop\n        /* \"contracts/modules/SponsorMatrix.sol\":6664:8847  function register(uint _sponsorId) external {... */\n      pop\n      jump\t// out\n        /* \"contracts/modules/SponsorMatrix.sol\":913:943  address public teamDevelopment */\n    tag_160:\n      0x04\n      0x00\n      swap1\n      sload\n      swap1\n      0x0100\n      exp\n      swap1\n      div\n      0xffffffffffffffffffffffffffffffffffffffff\n      and\n      dup2\n      jump\t// out\n        /* \"contracts/modules/SponsorMatrix.sol\":10608:11185  function _applyGlobalCapping(uint _userId, uint _amount) internal view returns (uint) {... */\n    tag_170:\n        /* \"contracts/modules/SponsorMatrix.sol\":10688:10692  uint */\n      0x00\n        /* \"contracts/modules/SponsorMatrix.sol\":10701:10718  User storage user */\n      dup1\n        /* \"contracts/modules/SponsorMatrix.sol\":10721:10726  users */\n      0x09\n        /* \"contracts/modules/SponsorMatrix.sol\":10721:10735  users[_userId] */\n      0x00\n        /* \"contracts/modules/SponsorMatrix.sol\":10727:10734  _userId */\n      dup6\n        /* \"contracts/modules/SponsorMatrix.sol\":10721:10735  users[_userId] */\n      dup2\n      mstore\n      0x20\n      add\n      swap1\n      dup2\n      mstore\n      0x20\n      add\n      0x00\n      keccak256\n        /* \"contracts/modules/SponsorMatrix.sol\":10701:10735  User storage user = users[_userId] */\n      swap1\n      pop\n        /* \"contracts/modules/SponsorMatrix.sol\":10742:10767  UserIncome storage income */\n      0x00\n        /* \"contracts/modules/SponsorMatrix.sol\":10770:10781  userIncomes */\n      0x0a\n        /* \"contracts/modules/SponsorMatrix.sol\":10770:10790  userIncomes[_userId] */\n      0x00\n        /* \"contracts/modules/SponsorMatrix.sol\":10782:10789  _userId */\n      dup7\n        /* \"contracts/modules/SponsorMatrix.sol\":10770:10790  userIncomes[_userId] */\n      dup2\n      mstore\n      0x20\n      add\n      swap1\n      dup2\n      mstore\n      0x20\n      add\n      0x00\n      keccak256\n        /* \"contracts/modules/SponsorMatrix.sol\":10742:10790  UserIncome storage income = userIncomes[_userId] */\n      swap1\n      pop\n        /* \"contracts/modules/SponsorMatrix.sol\":10882:10890  packages */\n      0x07\n        /* \"contracts/modules/SponsorMatrix.sol\":10882:10897  packages.length */\n      dup1\n      sload\n      swap1\n      pop\n        /* \"contracts/modules/SponsorMatrix.sol\":10868:10872  user */\n      dup3\n        /* \"contracts/modules/SponsorMatrix.sol\":10868:10878  user.level */\n      0x06\n      add\n      sload\n        /* \"contracts/modules/SponsorMatrix.sol\":10868:10897  user.level == packages.length */\n      sub\n        /* \"contracts/modules/SponsorMatrix.sol\":10864:10932  if (user.level == packages.length) {... */\n      tag_300\n      jumpi\n        /* \"contracts/modules/SponsorMatrix.sol\":10917:10924  _amount */\n      dup4\n        /* \"contracts/modules/SponsorMatrix.sol\":10910:10924  return _amount */\n      swap3\n      pop\n      pop\n      pop\n      jump(tag_299)\n        /* \"contracts/modules/SponsorMatrix.sol\":10864:10932  if (user.level == packages.length) {... */\n    tag_300:\n        /* \"contracts/modules/SponsorMatrix.sol\":10939:10953  uint maxIncome */\n      0x00\n        /* \"contracts/modules/SponsorMatrix.sol\":1311:1313  10 */\n      0x0a\n        /* \"contracts/modules/SponsorMatrix.sol\":1252:1254  25 */\n      0x19\n        /* \"contracts/modules/SponsorMatrix.sol\":10957:10961  user */\n      dup5\n        /* \"contracts/modules/SponsorMatrix.sol\":10957:10974  user.totalDeposit */\n      0x09\n      add\n      sload\n        /* \"contracts/modules/SponsorMatrix.sol\":10957:10995  user.totalDeposit * ROI_CAP_MULTIPLIER */\n      tag_301\n      swap2\n      swap1\n      tag_195\n      jump\t// in\n    tag_301:\n        /* \"contracts/modules/SponsorMatrix.sol\":10956:11014  (user.totalDeposit * ROI_CAP_MULTIPLIER) / ROI_CAP_DIVIDER */\n      tag_302\n      swap2\n      swap1\n      tag_168\n      jump\t// in\n    tag_302:\n        /* \"contracts/modules/SponsorMatrix.sol\":10939:11014  uint maxIncome = (user.totalDeposit * ROI_CAP_MULTIPLIER) / ROI_CAP_DIVIDER */\n      swap1\n      pop\n        /* \"contracts/modules/SponsorMatrix.sol\":11049:11058  maxIncome */\n      dup1\n        /* \"contracts/modules/SponsorMatrix.sol\":11027:11033  income */\n      dup3\n        /* \"contracts/modules/SponsorMatrix.sol\":11027:11045  income.totalIncome */\n      0x00\n      add\n      sload\n        /* \"contracts/modules/SponsorMatrix.sol\":11027:11058  income.totalIncome >= maxIncome */\n      lt\n        /* \"contracts/modules/SponsorMatrix.sol\":11023:11068  if (income.totalIncome >= maxIncome) return 0 */\n      tag_303\n      jumpi\n        /* \"contracts/modules/SponsorMatrix.sol\":11067:11068  0 */\n      0x00\n        /* \"contracts/modules/SponsorMatrix.sol\":11060:11068  return 0 */\n      swap4\n      pop\n      pop\n      pop\n      pop\n      jump(tag_299)\n        /* \"contracts/modules/SponsorMatrix.sol\":11023:11068  if (income.totalIncome >= maxIncome) return 0 */\n    tag_303:\n        /* \"contracts/modules/SponsorMatrix.sol\":11077:11091  uint remaining */\n      0x00\n        /* \"contracts/modules/SponsorMatrix.sol\":11106:11112  income */\n      dup3\n        /* \"contracts/modules/SponsorMatrix.sol\":11106:11124  income.totalIncome */\n      0x00\n      add\n      sload\n        /* \"contracts/modules/SponsorMatrix.sol\":11094:11103  maxIncome */\n      dup3\n        /* \"contracts/modules/SponsorMatrix.sol\":11094:11124  maxIncome - income.totalIncome */\n      tag_304\n      swap2\n      swap1\n      tag_166\n      jump\t// in\n    tag_304:\n        /* \"contracts/modules/SponsorMatrix.sol\":11077:11124  uint remaining = maxIncome - income.totalIncome */\n      swap1\n      pop\n        /* \"contracts/modules/SponsorMatrix.sol\":11149:11158  remaining */\n      dup1\n        /* \"contracts/modules/SponsorMatrix.sol\":11139:11146  _amount */\n      dup7\n        /* \"contracts/modules/SponsorMatrix.sol\":11139:11158  _amount > remaining */\n      gt\n        /* \"contracts/modules/SponsorMatrix.sol\":11138:11181  (_amount > remaining) ? remaining : _amount */\n      tag_305\n      jumpi\n        /* \"contracts/modules/SponsorMatrix.sol\":11174:11181  _amount */\n      dup6\n        /* \"contracts/modules/SponsorMatrix.sol\":11138:11181  (_amount > remaining) ? remaining : _amount */\n      jump(tag_306)\n    tag_305:\n        /* \"contracts/modules/SponsorMatrix.sol\":11162:11171  remaining */\n      dup1\n        /* \"contracts/modules/SponsorMatrix.sol\":11138:11181  (_amount > remaining) ? remaining : _amount */\n    tag_306:\n        /* \"contracts/modules/SponsorMatrix.sol\":11131:11181  return (_amount > remaining) ? remaining : _amount */\n      swap5\n      pop\n      pop\n      pop\n      pop\n      pop\n        /* \"contracts/modules/SponsorMatrix.sol\":10608:11185  function _applyGlobalCapping(uint _userId, uint _amount) internal view returns (uint) {... */\n    tag_299:\n      swap3\n      swap2\n      pop\n      pop\n      jump\t// out\n        /* \"contracts/modules/SponsorMatrix.sol\":11193:11517  function _accrueCommunityBonus(uint _totalAmount) internal {... */\n    tag_200:\n        /* \"contracts/modules/SponsorMatrix.sol\":11263:11269  uint n */\n      0x00\n        /* \"contracts/modules/SponsorMatrix.sol\":11272:11289  registeredUserIds */\n      0x16\n        /* \"contracts/modules/SponsorMatrix.sol\":11272:11296  registeredUserIds.length */\n      dup1\n      sload\n      swap1\n      pop\n        /* \"contracts/modules/SponsorMatrix.sol\":11263:11296  uint n = registeredUserIds.length */\n      swap1\n      pop\n        /* \"contracts/modules/SponsorMatrix.sol\":11316:11317  0 */\n      0x00\n        /* \"contracts/modules/SponsorMatrix.sol\":11311:11312  n */\n      dup2\n        /* \"contracts/modules/SponsorMatrix.sol\":11311:11317  n == 0 */\n      eq\n        /* \"contracts/modules/SponsorMatrix.sol\":11311:11338  n == 0 || _totalAmount == 0 */\n      dup1\n      tag_308\n      jumpi\n      pop\n        /* \"contracts/modules/SponsorMatrix.sol\":11337:11338  0 */\n      0x00\n        /* \"contracts/modules/SponsorMatrix.sol\":11321:11333  _totalAmount */\n      dup3\n        /* \"contracts/modules/SponsorMatrix.sol\":11321:11338  _totalAmount == 0 */\n      eq\n        /* \"contracts/modules/SponsorMatrix.sol\":11311:11338  n == 0 || _totalAmount == 0 */\n    tag_308:\n        /* \"contracts/modules/SponsorMatrix.sol\":11307:11442  if (n == 0 || _totalAmount == 0) {... */\n      iszero\n      tag_309\n      jumpi\n        /* \"contracts/modules/SponsorMatrix.sol\":11374:11375  0 */\n      0x00\n        /* \"contracts/modules/SponsorMatrix.sol\":11359:11371  _totalAmount */\n      dup3\n        /* \"contracts/modules/SponsorMatrix.sol\":11359:11375  _totalAmount > 0 */\n      gt\n        /* \"contracts/modules/SponsorMatrix.sol\":11355:11410  if (_totalAmount > 0) { _sendToCreator(_totalAmount); } */\n      iszero\n      tag_310\n      jumpi\n        /* \"contracts/modules/SponsorMatrix.sol\":11379:11407  _sendToCreator(_totalAmount) */\n      tag_311\n        /* \"contracts/modules/SponsorMatrix.sol\":11394:11406  _totalAmount */\n      dup3\n        /* \"contracts/modules/SponsorMatrix.sol\":11379:11393  _sendToCreator */\n      tag_202\n        /* \"contracts/modules/SponsorMatrix.sol\":11379:11407  _sendToCreator(_totalAmount) */\n      jump\t// in\n    tag_311:\n        /* \"contracts/modules/SponsorMatrix.sol\":11355:11410  if (_totalAmount > 0) { _sendToCreator(_totalAmount); } */\n    tag_310:\n        /* \"contracts/modules/SponsorMatrix.sol\":11424:11431  return; */\n      pop\n      jump(tag_307)\n        /* \"contracts/modules/SponsorMatrix.sol\":11307:11442  if (n == 0 || _totalAmount == 0) {... */\n    tag_309:\n        /* \"contracts/modules/SponsorMatrix.sol\":11508:11509  n */\n      dup1\n        /* \"contracts/modules/SponsorMatrix.sol\":3964:3968  1e18 */\n      0x0de0b6b3a7640000\n        /* \"contracts/modules/SponsorMatrix.sol\":11476:11488  _totalAmount */\n      dup4\n        /* \"contracts/modules/SponsorMatrix.sol\":11476:11504  _totalAmount * ACC_PRECISION */\n      tag_312\n      swap2\n      swap1\n      tag_195\n      jump\t// in\n    tag_312:\n        /* \"contracts/modules/SponsorMatrix.sol\":11475:11509  (_totalAmount * ACC_PRECISION) / n */\n      tag_313\n      swap2\n      swap1\n      tag_168\n      jump\t// in\n    tag_313:\n        /* \"contracts/modules/SponsorMatrix.sol\":11452:11471  communityAccPerUser */\n      0x10\n      0x00\n        /* \"contracts/modules/SponsorMatrix.sol\":11452:11509  communityAccPerUser += (_totalAmount * ACC_PRECISION) / n */\n      dup3\n      dup3\n      sload\n      tag_314\n      swap2\n      swap1\n      tag_191\n      jump\t// in\n    tag_314:\n      swap3\n      pop\n      pop\n      dup2\n      swap1\n      sstore\n      pop\n        /* \"contracts/modules/SponsorMatrix.sol\":11252:11517  {... */\n      pop\n        /* \"contracts/modules/SponsorMatrix.sol\":11193:11517  function _accrueCommunityBonus(uint _totalAmount) internal {... */\n    tag_307:\n      pop\n      jump\t// out\n        /* \"contracts/modules/SponsorMatrix.sol\":5853:6652  function _sendToCreator(uint _amount) private {... */\n    tag_202:\n        /* \"contracts/modules/SponsorMatrix.sol\":5939:5940  0 */\n      0x00\n        /* \"contracts/modules/SponsorMatrix.sol\":5914:5941  creatorWallet != address(0) */\n      0xffffffffffffffffffffffffffffffffffffffff\n      and\n        /* \"contracts/modules/SponsorMatrix.sol\":5914:5927  creatorWallet */\n      0x02\n      0x00\n      swap1\n      sload\n      swap1\n      0x0100\n      exp\n      swap1\n      div\n      0xffffffffffffffffffffffffffffffffffffffff\n      and\n        /* \"contracts/modules/SponsorMatrix.sol\":5914:5941  creatorWallet != address(0) */\n      0xffffffffffffffffffffffffffffffffffffffff\n      and\n      sub\n        /* \"contracts/modules/SponsorMatrix.sol\":5906:5962  require(creatorWallet != address(0),\"fee addrs not set\") */\n      tag_316\n      jumpi\n      mload(0x40)\n      0x08c379a000000000000000000000000000000000000000000000000000000000\n      dup2\n      mstore\n      0x04\n      add\n      tag_317\n      swap1\n      tag_318\n      jump\t// in\n    tag_317:\n      mload(0x40)\n      dup1\n      swap2\n      sub\n      swap1\n      revert\n    tag_316:\n        /* \"contracts/modules/SponsorMatrix.sol\":5999:6013  uint toCreator */\n      0x00\n        /* \"contracts/modules/SponsorMatrix.sol\":6033:6036  100 */\n      0x64\n        /* \"contracts/modules/SponsorMatrix.sol\":6027:6029  50 */\n      0x32\n        /* \"contracts/modules/SponsorMatrix.sol\":6017:6024  _amount */\n      dup4\n        /* \"contracts/modules/SponsorMatrix.sol\":6017:6029  _amount * 50 */\n      tag_319\n      swap2\n      swap1\n      tag_195\n      jump\t// in\n    tag_319:\n        /* \"contracts/modules/SponsorMatrix.sol\":6016:6036  (_amount * 50) / 100 */\n      tag_320\n      swap2\n      swap1\n      tag_168\n      jump\t// in\n    tag_320:\n        /* \"contracts/modules/SponsorMatrix.sol\":5999:6036  uint toCreator = (_amount * 50) / 100 */\n      swap1\n      pop\n        /* \"contracts/modules/SponsorMatrix.sol\":6115:6124  uint sent */\n      0x00\n        /* \"contracts/modules/SponsorMatrix.sol\":6127:6136  toCreator */\n      dup2\n        /* \"contracts/modules/SponsorMatrix.sol\":6115:6136  uint sent = toCreator */\n      swap1\n      pop\n        /* \"contracts/modules/SponsorMatrix.sol\":6144:6158  uint remainder */\n      0x00\n        /* \"contracts/modules/SponsorMatrix.sol\":6171:6175  sent */\n      dup2\n        /* \"contracts/modules/SponsorMatrix.sol\":6161:6168  _amount */\n      dup5\n        /* \"contracts/modules/SponsorMatrix.sol\":6161:6175  _amount - sent */\n      tag_321\n      swap2\n      swap1\n      tag_166\n      jump\t// in\n    tag_321:\n        /* \"contracts/modules/SponsorMatrix.sol\":6144:6175  uint remainder = _amount - sent */\n      swap1\n      pop\n        /* \"contracts/modules/SponsorMatrix.sol\":6239:6243  usdt */\n      0x00\n      dup1\n      sload\n      swap1\n      0x0100\n      exp\n      swap1\n      div\n      0xffffffffffffffffffffffffffffffffffffffff\n      and\n        /* \"contracts/modules/SponsorMatrix.sol\":6239:6252  usdt.transfer */\n      0xffffffffffffffffffffffffffffffffffffffff\n      and\n      0xa9059cbb\n        /* \"contracts/modules/SponsorMatrix.sol\":6253:6266  creatorWallet */\n      0x02\n      0x00\n      swap1\n      sload\n      swap1\n      0x0100\n      exp\n      swap1\n      div\n      0xffffffffffffffffffffffffffffffffffffffff\n      and\n        /* \"contracts/modules/SponsorMatrix.sol\":6280:6289  remainder */\n      dup4\n        /* \"contracts/modules/SponsorMatrix.sol\":6268:6277  toCreator */\n      dup7\n        /* \"contracts/modules/SponsorMatrix.sol\":6268:6289  toCreator + remainder */\n      tag_322\n      swap2\n      swap1\n      tag_191\n      jump\t// in\n    tag_322:\n        /* \"contracts/modules/SponsorMatrix.sol\":6239:6290  usdt.transfer(creatorWallet, toCreator + remainder) */\n      mload(0x40)\n      dup4\n      0xffffffff\n      and\n      0xe0\n      shl\n      dup2\n      mstore\n      0x04\n      add\n      tag_323\n      swap3\n      swap2\n      swap1\n      tag_244\n      jump\t// in\n    tag_323:\n      0x20\n      mload(0x40)\n      dup1\n      dup4\n      sub\n      dup2\n      0x00\n      dup8\n      gas\n      call\n      iszero\n      dup1\n      iszero\n      tag_325\n      jumpi\n      returndatasize\n      0x00\n      dup1\n      returndatacopy\n      revert(0x00, returndatasize)\n    tag_325:\n      pop\n      pop\n      pop\n      pop\n      mload(0x40)\n      returndatasize\n      not(0x1f)\n      0x1f\n      dup3\n      add\n      and\n      dup3\n      add\n      dup1\n      0x40\n      mstore\n      pop\n      dup2\n      add\n      swap1\n      tag_326\n      swap2\n      swap1\n      tag_189\n      jump\t// in\n    tag_326:\n      pop\n        /* \"contracts/modules/SponsorMatrix.sol\":6350:6382  UserIncome storage creatorIncome */\n      0x00\n        /* \"contracts/modules/SponsorMatrix.sol\":6385:6396  userIncomes */\n      0x0a\n        /* \"contracts/modules/SponsorMatrix.sol\":6385:6410  userIncomes[defaultRefId] */\n      0x00\n        /* \"contracts/modules/SponsorMatrix.sol\":6397:6409  defaultRefId */\n      sload(0x05)\n        /* \"contracts/modules/SponsorMatrix.sol\":6385:6410  userIncomes[defaultRefId] */\n      dup2\n      mstore\n      0x20\n      add\n      swap1\n      dup2\n      mstore\n      0x20\n      add\n      0x00\n      keccak256\n        /* \"contracts/modules/SponsorMatrix.sol\":6350:6410  UserIncome storage creatorIncome = userIncomes[defaultRefId] */\n      swap1\n      pop\n        /* \"contracts/modules/SponsorMatrix.sol\":6446:6453  _amount */\n      dup5\n        /* \"contracts/modules/SponsorMatrix.sol\":6417:6430  creatorIncome */\n      dup2\n        /* \"contracts/modules/SponsorMatrix.sol\":6417:6442  creatorIncome.totalIncome */\n      0x00\n      add\n      0x00\n        /* \"contracts/modules/SponsorMatrix.sol\":6417:6453  creatorIncome.totalIncome += _amount */\n      dup3\n      dup3\n      sload\n      tag_327\n      swap2\n      swap1\n      tag_191\n      jump\t// in\n    tag_327:\n      swap3\n      pop\n      pop\n      dup2\n      swap1\n      sstore\n      pop\n        /* \"contracts/modules/SponsorMatrix.sol\":6462:6475  incomeHistory */\n      0x0b\n        /* \"contracts/modules/SponsorMatrix.sol\":6462:6489  incomeHistory[defaultRefId] */\n      0x00\n        /* \"contracts/modules/SponsorMatrix.sol\":6476:6488  defaultRefId */\n      sload(0x05)\n        /* \"contracts/modules/SponsorMatrix.sol\":6462:6489  incomeHistory[defaultRefId] */\n      dup2\n      mstore\n      0x20\n      add\n      swap1\n      dup2\n      mstore\n      0x20\n      add\n      0x00\n      keccak256\n        /* \"contracts/modules/SponsorMatrix.sol\":6495:6647  Income({... */\n      mload(0x40)\n      dup1\n      0xa0\n      add\n      0x40\n      mstore\n      dup1\n        /* \"contracts/modules/SponsorMatrix.sol\":6525:6526  0 */\n      0x00\n        /* \"contracts/modules/SponsorMatrix.sol\":6495:6647  Income({... */\n      dup2\n      mstore\n      0x20\n      add\n        /* \"contracts/modules/SponsorMatrix.sol\":6545:6552  _amount */\n      dup8\n        /* \"contracts/modules/SponsorMatrix.sol\":6495:6647  Income({... */\n      dup2\n      mstore\n      0x20\n      add\n        /* \"contracts/modules/SponsorMatrix.sol\":6577:6578  0 */\n      0x00\n        /* \"contracts/modules/SponsorMatrix.sol\":6495:6647  Income({... */\n      dup2\n      mstore\n      0x20\n      add\n        /* \"contracts/modules/SponsorMatrix.sol\":6600:6615  block.timestamp */\n      timestamp\n        /* \"contracts/modules/SponsorMatrix.sol\":6495:6647  Income({... */\n      dup2\n      mstore\n      0x20\n      add\n        /* \"contracts/modules/SponsorMatrix.sol\":6638:6639  5 */\n      0x05\n        /* \"contracts/modules/SponsorMatrix.sol\":6495:6647  Income({... */\n      dup2\n      mstore\n      pop\n        /* \"contracts/modules/SponsorMatrix.sol\":6462:6648  incomeHistory[defaultRefId].push(Income({... */\n      swap1\n      dup1\n      0x01\n      dup2\n      sload\n      add\n      dup1\n      dup3\n      sstore\n      dup1\n      swap2\n      pop\n      pop\n      0x01\n      swap1\n      sub\n      swap1\n      0x00\n      mstore\n      keccak256(0x00, 0x20)\n      swap1\n      0x05\n      mul\n      add\n      0x00\n      swap1\n      swap2\n      swap1\n      swap2\n      swap1\n      swap2\n      pop\n      0x00\n      dup3\n      add\n      mload\n      dup2\n      0x00\n      add\n      sstore\n      0x20\n      dup3\n      add\n      mload\n      dup2\n      0x01\n      add\n      sstore\n      0x40\n      dup3\n      add\n      mload\n      dup2\n      0x02\n      add\n      sstore\n      0x60\n      dup3\n      add\n      mload\n      dup2\n      0x03\n      add\n      sstore\n      0x80\n      dup3\n      add\n      mload\n      dup2\n      0x04\n      add\n      sstore\n      pop\n      pop\n        /* \"contracts/modules/SponsorMatrix.sol\":5899:6652  {... */\n      pop\n      pop\n      pop\n      pop\n        /* \"contracts/modules/SponsorMatrix.sol\":5853:6652  function _sendToCreator(uint _amount) private {... */\n      pop\n      jump\t// out\n        /* \"contracts/modules/SponsorMatrix.sol\":15245:16521  function _distributeSponsorIncome(uint _sponsorId, uint _fromId, uint _amount, uint _packageLevel) private {... */\n    tag_207:\n        /* \"contracts/modules/SponsorMatrix.sol\":15381:15382  0 */\n      0x00\n        /* \"contracts/modules/SponsorMatrix.sol\":15367:15377  _sponsorId */\n      dup5\n        /* \"contracts/modules/SponsorMatrix.sol\":15367:15382  _sponsorId == 0 */\n      eq\n        /* \"contracts/modules/SponsorMatrix.sol\":15367:15412  _sponsorId == 0 || _sponsorId == defaultRefId */\n      dup1\n      tag_330\n      jumpi\n      pop\n        /* \"contracts/modules/SponsorMatrix.sol\":15400:15412  defaultRefId */\n      sload(0x05)\n        /* \"contracts/modules/SponsorMatrix.sol\":15386:15396  _sponsorId */\n      dup5\n        /* \"contracts/modules/SponsorMatrix.sol\":15386:15412  _sponsorId == defaultRefId */\n      eq\n        /* \"contracts/modules/SponsorMatrix.sol\":15367:15412  _sponsorId == 0 || _sponsorId == defaultRefId */\n    tag_330:\n        /* \"contracts/modules/SponsorMatrix.sol\":15363:15485  if (_sponsorId == 0 || _sponsorId == defaultRefId) {... */\n      iszero\n      tag_331\n      jumpi\n        /* \"contracts/modules/SponsorMatrix.sol\":15429:15452  _sendToCreator(_amount) */\n      tag_332\n        /* \"contracts/modules/SponsorMatrix.sol\":15444:15451  _amount */\n      dup3\n        /* \"contracts/modules/SponsorMatrix.sol\":15429:15443  _sendToCreator */\n      tag_202\n        /* \"contracts/modules/SponsorMatrix.sol\":15429:15452  _sendToCreator(_amount) */\n      jump\t// in\n    tag_332:\n        /* \"contracts/modules/SponsorMatrix.sol\":15467:15474  return; */\n      jump(tag_329)\n        /* \"contracts/modules/SponsorMatrix.sol\":15363:15485  if (_sponsorId == 0 || _sponsorId == defaultRefId) {... */\n    tag_331:\n        /* \"contracts/modules/SponsorMatrix.sol\":15505:15525  User storage sponsor */\n      0x00\n        /* \"contracts/modules/SponsorMatrix.sol\":15528:15533  users */\n      0x09\n        /* \"contracts/modules/SponsorMatrix.sol\":15528:15545  users[_sponsorId] */\n      0x00\n        /* \"contracts/modules/SponsorMatrix.sol\":15534:15544  _sponsorId */\n      dup7\n        /* \"contracts/modules/SponsorMatrix.sol\":15528:15545  users[_sponsorId] */\n      dup2\n      mstore\n      0x20\n      add\n      swap1\n      dup2\n      mstore\n      0x20\n      add\n      0x00\n      keccak256\n        /* \"contracts/modules/SponsorMatrix.sol\":15505:15545  User storage sponsor = users[_sponsorId] */\n      swap1\n      pop\n        /* \"contracts/modules/SponsorMatrix.sol\":15587:15588  1 */\n      0x01\n        /* \"contracts/modules/SponsorMatrix.sol\":15570:15583  _packageLevel */\n      dup3\n        /* \"contracts/modules/SponsorMatrix.sol\":15570:15588  _packageLevel != 1 */\n      eq\n        /* \"contracts/modules/SponsorMatrix.sol\":15566:15756  if (_packageLevel != 1)... */\n      tag_333\n      jumpi\n        /* \"contracts/modules/SponsorMatrix.sol\":15638:15639  2 */\n      0x02\n        /* \"contracts/modules/SponsorMatrix.sol\":15617:15624  sponsor */\n      dup2\n        /* \"contracts/modules/SponsorMatrix.sol\":15617:15635  sponsor.directTeam */\n      0x07\n      add\n      sload\n        /* \"contracts/modules/SponsorMatrix.sol\":15617:15639  sponsor.directTeam < 2 */\n      lt\n        /* \"contracts/modules/SponsorMatrix.sol\":15614:15745  if(sponsor.directTeam < 2)... */\n      iszero\n      tag_334\n      jumpi\n        /* \"contracts/modules/SponsorMatrix.sol\":15677:15700  _sendToCreator(_amount) */\n      tag_335\n        /* \"contracts/modules/SponsorMatrix.sol\":15692:15699  _amount */\n      dup4\n        /* \"contracts/modules/SponsorMatrix.sol\":15677:15691  _sendToCreator */\n      tag_202\n        /* \"contracts/modules/SponsorMatrix.sol\":15677:15700  _sendToCreator(_amount) */\n      jump\t// in\n    tag_335:\n        /* \"contracts/modules/SponsorMatrix.sol\":15723:15730  return; */\n      pop\n      jump(tag_329)\n        /* \"contracts/modules/SponsorMatrix.sol\":15614:15745  if(sponsor.directTeam < 2)... */\n    tag_334:\n        /* \"contracts/modules/SponsorMatrix.sol\":15566:15756  if (_packageLevel != 1)... */\n    tag_333:\n        /* \"contracts/modules/SponsorMatrix.sol\":15778:15782  usdt */\n      0x00\n      dup1\n      sload\n      swap1\n      0x0100\n      exp\n      swap1\n      div\n      0xffffffffffffffffffffffffffffffffffffffff\n      and\n        /* \"contracts/modules/SponsorMatrix.sol\":15778:15791  usdt.transfer */\n      0xffffffffffffffffffffffffffffffffffffffff\n      and\n      0xa9059cbb\n        /* \"contracts/modules/SponsorMatrix.sol\":15792:15799  sponsor */\n      dup3\n        /* \"contracts/modules/SponsorMatrix.sol\":15792:15807  sponsor.account */\n      0x00\n      add\n      0x00\n      swap1\n      sload\n      swap1\n      0x0100\n      exp\n      swap1\n      div\n      0xffffffffffffffffffffffffffffffffffffffff\n      and\n        /* \"contracts/modules/SponsorMatrix.sol\":15809:15816  _amount */\n      dup6\n        /* \"contracts/modules/SponsorMatrix.sol\":15778:15817  usdt.transfer(sponsor.account, _amount) */\n      mload(0x40)\n      dup4\n      0xffffffff\n      and\n      0xe0\n      shl\n      dup2\n      mstore\n      0x04\n      add\n      tag_336\n      swap3\n      swap2\n      swap1\n      tag_244\n      jump\t// in\n    tag_336:\n      0x20\n      mload(0x40)\n      dup1\n      dup4\n      sub\n      dup2\n      0x00\n      dup8\n      gas\n      call\n      iszero\n      dup1\n      iszero\n      tag_338\n      jumpi\n      returndatasize\n      0x00\n      dup1\n      returndatacopy\n      revert(0x00, returndatasize)\n    tag_338:\n      pop\n      pop\n      pop\n      pop\n      mload(0x40)\n      returndatasize\n      not(0x1f)\n      0x1f\n      dup3\n      add\n      and\n      dup3\n      add\n      dup1\n      0x40\n      mstore\n      pop\n      dup2\n      add\n      swap1\n      tag_339\n      swap2\n      swap1\n      tag_189\n      jump\t// in\n    tag_339:\n      pop\n        /* \"contracts/modules/SponsorMatrix.sol\":15896:15928  UserIncome storage sponsorIncome */\n      0x00\n        /* \"contracts/modules/SponsorMatrix.sol\":15931:15942  userIncomes */\n      0x0a\n        /* \"contracts/modules/SponsorMatrix.sol\":15931:15954  userIncomes[_sponsorId] */\n      0x00\n        /* \"contracts/modules/SponsorMatrix.sol\":15943:15953  _sponsorId */\n      dup8\n        /* \"contracts/modules/SponsorMatrix.sol\":15931:15954  userIncomes[_sponsorId] */\n      dup2\n      mstore\n      0x20\n      add\n      swap1\n      dup2\n      mstore\n      0x20\n      add\n      0x00\n      keccak256\n        /* \"contracts/modules/SponsorMatrix.sol\":15896:15954  UserIncome storage sponsorIncome = userIncomes[_sponsorId] */\n      swap1\n      pop\n        /* \"contracts/modules/SponsorMatrix.sol\":15998:16005  _amount */\n      dup4\n        /* \"contracts/modules/SponsorMatrix.sol\":15969:15982  sponsorIncome */\n      dup2\n        /* \"contracts/modules/SponsorMatrix.sol\":15969:15994  sponsorIncome.totalIncome */\n      0x00\n      add\n      0x00\n        /* \"contracts/modules/SponsorMatrix.sol\":15969:16005  sponsorIncome.totalIncome += _amount */\n      dup3\n      dup3\n      sload\n      tag_340\n      swap2\n      swap1\n      tag_191\n      jump\t// in\n    tag_340:\n      swap3\n      pop\n      pop\n      dup2\n      swap1\n      sstore\n      pop\n        /* \"contracts/modules/SponsorMatrix.sol\":16051:16058  _amount */\n      dup4\n        /* \"contracts/modules/SponsorMatrix.sol\":16020:16033  sponsorIncome */\n      dup2\n        /* \"contracts/modules/SponsorMatrix.sol\":16020:16047  sponsorIncome.sponsorIncome */\n      0x01\n      add\n      0x00\n        /* \"contracts/modules/SponsorMatrix.sol\":16020:16058  sponsorIncome.sponsorIncome += _amount */\n      dup3\n      dup3\n      sload\n      tag_341\n      swap2\n      swap1\n      tag_191\n      jump\t// in\n    tag_341:\n      swap3\n      pop\n      pop\n      dup2\n      swap1\n      sstore\n      pop\n        /* \"contracts/modules/SponsorMatrix.sol\":16117:16130  incomeHistory */\n      0x0b\n        /* \"contracts/modules/SponsorMatrix.sol\":16117:16142  incomeHistory[_sponsorId] */\n      0x00\n        /* \"contracts/modules/SponsorMatrix.sol\":16131:16141  _sponsorId */\n      dup8\n        /* \"contracts/modules/SponsorMatrix.sol\":16117:16142  incomeHistory[_sponsorId] */\n      dup2\n      mstore\n      0x20\n      add\n      swap1\n      dup2\n      mstore\n      0x20\n      add\n      0x00\n      keccak256\n        /* \"contracts/modules/SponsorMatrix.sol\":16148:16384  Income({... */\n      mload(0x40)\n      dup1\n      0xa0\n      add\n      0x40\n      mstore\n      dup1\n        /* \"contracts/modules/SponsorMatrix.sol\":16186:16193  _fromId */\n      dup8\n        /* \"contracts/modules/SponsorMatrix.sol\":16148:16384  Income({... */\n      dup2\n      mstore\n      0x20\n      add\n        /* \"contracts/modules/SponsorMatrix.sol\":16220:16227  _amount */\n      dup7\n        /* \"contracts/modules/SponsorMatrix.sol\":16148:16384  Income({... */\n      dup2\n      mstore\n      0x20\n      add\n        /* \"contracts/modules/SponsorMatrix.sol\":16260:16273  _packageLevel */\n      dup6\n        /* \"contracts/modules/SponsorMatrix.sol\":16148:16384  Income({... */\n      dup2\n      mstore\n      0x20\n      add\n        /* \"contracts/modules/SponsorMatrix.sol\":16303:16318  block.timestamp */\n      timestamp\n        /* \"contracts/modules/SponsorMatrix.sol\":16148:16384  Income({... */\n      dup2\n      mstore\n      0x20\n      add\n        /* \"contracts/modules/SponsorMatrix.sol\":16349:16350  1 */\n      0x01\n        /* \"contracts/modules/SponsorMatrix.sol\":16148:16384  Income({... */\n      dup2\n      mstore\n      pop\n        /* \"contracts/modules/SponsorMatrix.sol\":16117:16385  incomeHistory[_sponsorId].push(Income({... */\n      swap1\n      dup1\n      0x01\n      dup2\n      sload\n      add\n      dup1\n      dup3\n      sstore\n      dup1\n      swap2\n      pop\n      pop\n      0x01\n      swap1\n      sub\n      swap1\n      0x00\n      mstore\n      keccak256(0x00, 0x20)\n      swap1\n      0x05\n      mul\n      add\n      0x00\n      swap1\n      swap2\n      swap1\n      swap2\n      swap1\n      swap2\n      pop\n      0x00\n      dup3\n      add\n      mload\n      dup2\n      0x00\n      add\n      sstore\n      0x20\n      dup3\n      add\n      mload\n      dup2\n      0x01\n      add\n      sstore\n      0x40\n      dup3\n      add\n      mload\n      dup2\n      0x02\n      add\n      sstore\n      0x60\n      dup3\n      add\n      mload\n      dup2\n      0x03\n      add\n      sstore\n      0x80\n      dup3\n      add\n      mload\n      dup2\n      0x04\n      add\n      sstore\n      pop\n      pop\n        /* \"contracts/modules/SponsorMatrix.sol\":16454:16459  users */\n      0x09\n        /* \"contracts/modules/SponsorMatrix.sol\":16454:16468  users[_fromId] */\n      0x00\n        /* \"contracts/modules/SponsorMatrix.sol\":16460:16467  _fromId */\n      dup7\n        /* \"contracts/modules/SponsorMatrix.sol\":16454:16468  users[_fromId] */\n      dup2\n      mstore\n      0x20\n      add\n      swap1\n      dup2\n      mstore\n      0x20\n      add\n      0x00\n      keccak256\n        /* \"contracts/modules/SponsorMatrix.sol\":16454:16476  users[_fromId].account */\n      0x00\n      add\n      0x00\n      swap1\n      sload\n      swap1\n      0x0100\n      exp\n      swap1\n      div\n      0xffffffffffffffffffffffffffffffffffffffff\n      and\n        /* \"contracts/modules/SponsorMatrix.sol\":16419:16504  IncomeDistributed(sponsor.account, users[_fromId].account, _amount, _packageLevel, 1) */\n      0xffffffffffffffffffffffffffffffffffffffff\n      and\n        /* \"contracts/modules/SponsorMatrix.sol\":16437:16444  sponsor */\n      dup3\n        /* \"contracts/modules/SponsorMatrix.sol\":16437:16452  sponsor.account */\n      0x00\n      add\n      0x00\n      swap1\n      sload\n      swap1\n      0x0100\n      exp\n      swap1\n      div\n      0xffffffffffffffffffffffffffffffffffffffff\n      and\n        /* \"contracts/modules/SponsorMatrix.sol\":16419:16504  IncomeDistributed(sponsor.account, users[_fromId].account, _amount, _packageLevel, 1) */\n      0xffffffffffffffffffffffffffffffffffffffff\n      and\n      0xe17b61d324ce17328f433d0ab62581c0f0aa997312bae80fbdfcd2aa9b91d6e3\n        /* \"contracts/modules/SponsorMatrix.sol\":16478:16485  _amount */\n      dup7\n        /* \"contracts/modules/SponsorMatrix.sol\":16487:16500  _packageLevel */\n      dup7\n        /* \"contracts/modules/SponsorMatrix.sol\":16502:16503  1 */\n      0x01\n        /* \"contracts/modules/SponsorMatrix.sol\":16419:16504  IncomeDistributed(sponsor.account, users[_fromId].account, _amount, _packageLevel, 1) */\n      mload(0x40)\n      tag_343\n      swap4\n      swap3\n      swap2\n      swap1\n      tag_344\n      jump\t// in\n    tag_343:\n      mload(0x40)\n      dup1\n      swap2\n      sub\n      swap1\n      log3\n        /* \"contracts/modules/SponsorMatrix.sol\":15352:16521  {... */\n      pop\n      pop\n        /* \"contracts/modules/SponsorMatrix.sol\":15245:16521  function _distributeSponsorIncome(uint _sponsorId, uint _fromId, uint _amount, uint _packageLevel) private {... */\n    tag_329:\n      pop\n      pop\n      pop\n      pop\n      jump\t// out\n        /* \"contracts/modules/SponsorMatrix.sol\":16535:18637  function _distributeMatrixIncome(uint _uplineId,uint _fromId,uint _amount, uint _packageLevel) private {... */\n    tag_212:\n        /* \"contracts/modules/SponsorMatrix.sol\":16791:16801  uint depth */\n      0x00\n        /* \"contracts/modules/SponsorMatrix.sol\":16804:16805  1 */\n      0x01\n        /* \"contracts/modules/SponsorMatrix.sol\":16791:16805  uint depth = 1 */\n      swap1\n      pop\n        /* \"contracts/modules/SponsorMatrix.sol\":16832:16844  defaultRefId */\n      sload(0x05)\n        /* \"contracts/modules/SponsorMatrix.sol\":16819:16828  _uplineId */\n      dup6\n        /* \"contracts/modules/SponsorMatrix.sol\":16819:16844  _uplineId == defaultRefId */\n      eq\n        /* \"contracts/modules/SponsorMatrix.sol\":16819:16862  _uplineId == defaultRefId || _uplineId == 0 */\n      dup1\n      tag_346\n      jumpi\n      pop\n        /* \"contracts/modules/SponsorMatrix.sol\":16861:16862  0 */\n      0x00\n        /* \"contracts/modules/SponsorMatrix.sol\":16848:16857  _uplineId */\n      dup6\n        /* \"contracts/modules/SponsorMatrix.sol\":16848:16862  _uplineId == 0 */\n      eq\n        /* \"contracts/modules/SponsorMatrix.sol\":16819:16862  _uplineId == defaultRefId || _uplineId == 0 */\n    tag_346:\n        /* \"contracts/modules/SponsorMatrix.sol\":16816:16944  if(_uplineId == defaultRefId || _uplineId == 0)... */\n      iszero\n      tag_347\n      jumpi\n        /* \"contracts/modules/SponsorMatrix.sol\":16888:16911  _sendToCreator(_amount) */\n      tag_348\n        /* \"contracts/modules/SponsorMatrix.sol\":16903:16910  _amount */\n      dup4\n        /* \"contracts/modules/SponsorMatrix.sol\":16888:16902  _sendToCreator */\n      tag_202\n        /* \"contracts/modules/SponsorMatrix.sol\":16888:16911  _sendToCreator(_amount) */\n      jump\t// in\n    tag_348:\n        /* \"contracts/modules/SponsorMatrix.sol\":16926:16933  return; */\n      pop\n      jump(tag_345)\n        /* \"contracts/modules/SponsorMatrix.sol\":16816:16944  if(_uplineId == defaultRefId || _uplineId == 0)... */\n    tag_347:\n        /* \"contracts/modules/SponsorMatrix.sol\":16954:16968  uint uplineId_ */\n      0x00\n        /* \"contracts/modules/SponsorMatrix.sol\":16971:16980  _uplineId */\n      dup6\n        /* \"contracts/modules/SponsorMatrix.sol\":16954:16980  uint uplineId_ = _uplineId */\n      swap1\n      pop\n        /* \"contracts/modules/SponsorMatrix.sol\":16991:17334  while(depth < _packageLevel)... */\n    tag_349:\n        /* \"contracts/modules/SponsorMatrix.sol\":17005:17018  _packageLevel */\n      dup3\n        /* \"contracts/modules/SponsorMatrix.sol\":16997:17002  depth */\n      dup3\n        /* \"contracts/modules/SponsorMatrix.sol\":16997:17018  depth < _packageLevel */\n      lt\n        /* \"contracts/modules/SponsorMatrix.sol\":16991:17334  while(depth < _packageLevel)... */\n      iszero\n      tag_350\n      jumpi\n        /* \"contracts/modules/SponsorMatrix.sol\":17044:17051  depth++ */\n      dup2\n      dup1\n      tag_351\n      swap1\n      tag_352\n      jump\t// in\n    tag_351:\n      swap3\n      pop\n      pop\n        /* \"contracts/modules/SponsorMatrix.sol\":17078:17083  users */\n      0x09\n        /* \"contracts/modules/SponsorMatrix.sol\":17078:17094  users[uplineId_] */\n      0x00\n        /* \"contracts/modules/SponsorMatrix.sol\":17084:17093  uplineId_ */\n      dup3\n        /* \"contracts/modules/SponsorMatrix.sol\":17078:17094  users[uplineId_] */\n      dup2\n      mstore\n      0x20\n      add\n      swap1\n      dup2\n      mstore\n      0x20\n      add\n      0x00\n      keccak256\n        /* \"contracts/modules/SponsorMatrix.sol\":17078:17103  users[uplineId_].uplineId */\n      0x05\n      add\n      sload\n        /* \"contracts/modules/SponsorMatrix.sol\":17066:17103  uplineId_ = users[uplineId_].uplineId */\n      swap1\n      pop\n        /* \"contracts/modules/SponsorMatrix.sol\":17136:17148  defaultRefId */\n      sload(0x05)\n        /* \"contracts/modules/SponsorMatrix.sol\":17123:17132  uplineId_ */\n      dup2\n        /* \"contracts/modules/SponsorMatrix.sol\":17123:17148  uplineId_ == defaultRefId */\n      eq\n        /* \"contracts/modules/SponsorMatrix.sol\":17123:17166  uplineId_ == defaultRefId || uplineId_ == 0 */\n      dup1\n      tag_353\n      jumpi\n      pop\n        /* \"contracts/modules/SponsorMatrix.sol\":17165:17166  0 */\n      0x00\n        /* \"contracts/modules/SponsorMatrix.sol\":17152:17161  uplineId_ */\n      dup2\n        /* \"contracts/modules/SponsorMatrix.sol\":17152:17166  uplineId_ == 0 */\n      eq\n        /* \"contracts/modules/SponsorMatrix.sol\":17123:17166  uplineId_ == defaultRefId || uplineId_ == 0 */\n    tag_353:\n        /* \"contracts/modules/SponsorMatrix.sol\":17120:17323  if(uplineId_ == defaultRefId || uplineId_ == 0)... */\n      iszero\n      tag_354\n      jumpi\n        /* \"contracts/modules/SponsorMatrix.sol\":17211:17224  _packageLevel */\n      dup3\n        /* \"contracts/modules/SponsorMatrix.sol\":17203:17224  depth = _packageLevel */\n      swap2\n      pop\n        /* \"contracts/modules/SponsorMatrix.sol\":17243:17266  _sendToCreator(_amount) */\n      tag_355\n        /* \"contracts/modules/SponsorMatrix.sol\":17258:17265  _amount */\n      dup5\n        /* \"contracts/modules/SponsorMatrix.sol\":17243:17257  _sendToCreator */\n      tag_202\n        /* \"contracts/modules/SponsorMatrix.sol\":17243:17266  _sendToCreator(_amount) */\n      jump\t// in\n    tag_355:\n        /* \"contracts/modules/SponsorMatrix.sol\":17301:17308  return; */\n      pop\n      pop\n      jump(tag_345)\n        /* \"contracts/modules/SponsorMatrix.sol\":17120:17323  if(uplineId_ == defaultRefId || uplineId_ == 0)... */\n    tag_354:\n        /* \"contracts/modules/SponsorMatrix.sol\":16991:17334  while(depth < _packageLevel)... */\n      jump(tag_349)\n    tag_350:\n        /* \"contracts/modules/SponsorMatrix.sol\":17344:17358  uint currentId */\n      0x00\n        /* \"contracts/modules/SponsorMatrix.sol\":17361:17370  uplineId_ */\n      dup2\n        /* \"contracts/modules/SponsorMatrix.sol\":17344:17370  uint currentId = uplineId_ */\n      swap1\n      pop\n        /* \"contracts/modules/SponsorMatrix.sol\":17389:17390  0 */\n      0x00\n        /* \"contracts/modules/SponsorMatrix.sol\":17381:17390  depth = 0 */\n      swap3\n      pop\n        /* \"contracts/modules/SponsorMatrix.sol\":17401:18522  while (currentId != 0 && currentId != defaultRefId && depth < maxLayers) {... */\n    tag_356:\n        /* \"contracts/modules/SponsorMatrix.sol\":17421:17422  0 */\n      0x00\n        /* \"contracts/modules/SponsorMatrix.sol\":17408:17417  currentId */\n      dup2\n        /* \"contracts/modules/SponsorMatrix.sol\":17408:17422  currentId != 0 */\n      eq\n      iszero\n        /* \"contracts/modules/SponsorMatrix.sol\":17408:17451  currentId != 0 && currentId != defaultRefId */\n      dup1\n      iszero\n      tag_358\n      jumpi\n      pop\n        /* \"contracts/modules/SponsorMatrix.sol\":17439:17451  defaultRefId */\n      sload(0x05)\n        /* \"contracts/modules/SponsorMatrix.sol\":17426:17435  currentId */\n      dup2\n        /* \"contracts/modules/SponsorMatrix.sol\":17426:17451  currentId != defaultRefId */\n      eq\n      iszero\n        /* \"contracts/modules/SponsorMatrix.sol\":17408:17451  currentId != 0 && currentId != defaultRefId */\n    tag_358:\n        /* \"contracts/modules/SponsorMatrix.sol\":17408:17472  currentId != 0 && currentId != defaultRefId && depth < maxLayers */\n      dup1\n      iszero\n      tag_359\n      jumpi\n      pop\n        /* \"contracts/modules/SponsorMatrix.sol\":1044:1046  15 */\n      0x0f\n        /* \"contracts/modules/SponsorMatrix.sol\":17455:17460  depth */\n      dup4\n        /* \"contracts/modules/SponsorMatrix.sol\":17455:17472  depth < maxLayers */\n      lt\n        /* \"contracts/modules/SponsorMatrix.sol\":17408:17472  currentId != 0 && currentId != defaultRefId && depth < maxLayers */\n    tag_359:\n        /* \"contracts/modules/SponsorMatrix.sol\":17401:18522  while (currentId != 0 && currentId != defaultRefId && depth < maxLayers) {... */\n      iszero\n      tag_357\n      jumpi\n        /* \"contracts/modules/SponsorMatrix.sol\":17489:17504  User storage up */\n      0x00\n        /* \"contracts/modules/SponsorMatrix.sol\":17507:17512  users */\n      0x09\n        /* \"contracts/modules/SponsorMatrix.sol\":17507:17523  users[currentId] */\n      0x00\n        /* \"contracts/modules/SponsorMatrix.sol\":17513:17522  currentId */\n      dup4\n        /* \"contracts/modules/SponsorMatrix.sol\":17507:17523  users[currentId] */\n      dup2\n      mstore\n      0x20\n      add\n      swap1\n      dup2\n      mstore\n      0x20\n      add\n      0x00\n      keccak256\n        /* \"contracts/modules/SponsorMatrix.sol\":17489:17523  User storage up = users[currentId] */\n      swap1\n      pop\n        /* \"contracts/modules/SponsorMatrix.sol\":17633:17646  _packageLevel */\n      dup5\n        /* \"contracts/modules/SponsorMatrix.sol\":17621:17623  up */\n      dup2\n        /* \"contracts/modules/SponsorMatrix.sol\":17621:17629  up.level */\n      0x06\n      add\n      sload\n        /* \"contracts/modules/SponsorMatrix.sol\":17621:17646  up.level >= _packageLevel */\n      lt\n        /* \"contracts/modules/SponsorMatrix.sol\":17617:18401  if (up.level >= _packageLevel) // up.directTeam >= 2 && ... */\n      tag_360\n      jumpi\n        /* \"contracts/modules/SponsorMatrix.sol\":17767:17771  usdt */\n      0x00\n      dup1\n      sload\n      swap1\n      0x0100\n      exp\n      swap1\n      div\n      0xffffffffffffffffffffffffffffffffffffffff\n      and\n        /* \"contracts/modules/SponsorMatrix.sol\":17767:17780  usdt.transfer */\n      0xffffffffffffffffffffffffffffffffffffffff\n      and\n      0xa9059cbb\n        /* \"contracts/modules/SponsorMatrix.sol\":17781:17783  up */\n      dup3\n        /* \"contracts/modules/SponsorMatrix.sol\":17781:17791  up.account */\n      0x00\n      add\n      0x00\n      swap1\n      sload\n      swap1\n      0x0100\n      exp\n      swap1\n      div\n      0xffffffffffffffffffffffffffffffffffffffff\n      and\n        /* \"contracts/modules/SponsorMatrix.sol\":17793:17800  _amount */\n      dup9\n        /* \"contracts/modules/SponsorMatrix.sol\":17767:17801  usdt.transfer(up.account, _amount) */\n      mload(0x40)\n      dup4\n      0xffffffff\n      and\n      0xe0\n      shl\n      dup2\n      mstore\n      0x04\n      add\n      tag_361\n      swap3\n      swap2\n      swap1\n      tag_244\n      jump\t// in\n    tag_361:\n      0x20\n      mload(0x40)\n      dup1\n      dup4\n      sub\n      dup2\n      0x00\n      dup8\n      gas\n      call\n      iszero\n      dup1\n      iszero\n      tag_363\n      jumpi\n      returndatasize\n      0x00\n      dup1\n      returndatacopy\n      revert(0x00, returndatasize)\n    tag_363:\n      pop\n      pop\n      pop\n      pop\n      mload(0x40)\n      returndatasize\n      not(0x1f)\n      0x1f\n      dup3\n      add\n      and\n      dup3\n      add\n      dup1\n      0x40\n      mstore\n      pop\n      dup2\n      add\n      swap1\n      tag_364\n      swap2\n      swap1\n      tag_189\n      jump\t// in\n    tag_364:\n      pop\n        /* \"contracts/modules/SponsorMatrix.sol\":17822:17844  UserIncome storage inc */\n      0x00\n        /* \"contracts/modules/SponsorMatrix.sol\":17847:17858  userIncomes */\n      0x0a\n        /* \"contracts/modules/SponsorMatrix.sol\":17847:17869  userIncomes[currentId] */\n      0x00\n        /* \"contracts/modules/SponsorMatrix.sol\":17859:17868  currentId */\n      dup5\n        /* \"contracts/modules/SponsorMatrix.sol\":17847:17869  userIncomes[currentId] */\n      dup2\n      mstore\n      0x20\n      add\n      swap1\n      dup2\n      mstore\n      0x20\n      add\n      0x00\n      keccak256\n        /* \"contracts/modules/SponsorMatrix.sol\":17822:17869  UserIncome storage inc = userIncomes[currentId] */\n      swap1\n      pop\n        /* \"contracts/modules/SponsorMatrix.sol\":17907:17914  _amount */\n      dup7\n        /* \"contracts/modules/SponsorMatrix.sol\":17888:17891  inc */\n      dup2\n        /* \"contracts/modules/SponsorMatrix.sol\":17888:17903  inc.totalIncome */\n      0x00\n      add\n      0x00\n        /* \"contracts/modules/SponsorMatrix.sol\":17888:17914  inc.totalIncome += _amount */\n      dup3\n      dup3\n      sload\n      tag_365\n      swap2\n      swap1\n      tag_191\n      jump\t// in\n    tag_365:\n      swap3\n      pop\n      pop\n      dup2\n      swap1\n      sstore\n      pop\n        /* \"contracts/modules/SponsorMatrix.sol\":17953:17960  _amount */\n      dup7\n        /* \"contracts/modules/SponsorMatrix.sol\":17933:17936  inc */\n      dup2\n        /* \"contracts/modules/SponsorMatrix.sol\":17933:17949  inc.matrixIncome */\n      0x02\n      add\n      0x00\n        /* \"contracts/modules/SponsorMatrix.sol\":17933:17960  inc.matrixIncome += _amount */\n      dup3\n      dup3\n      sload\n      tag_366\n      swap2\n      swap1\n      tag_191\n      jump\t// in\n    tag_366:\n      swap3\n      pop\n      pop\n      dup2\n      swap1\n      sstore\n      pop\n        /* \"contracts/modules/SponsorMatrix.sol\":17981:17994  incomeHistory */\n      0x0b\n        /* \"contracts/modules/SponsorMatrix.sol\":17981:18005  incomeHistory[currentId] */\n      0x00\n        /* \"contracts/modules/SponsorMatrix.sol\":17995:18004  currentId */\n      dup5\n        /* \"contracts/modules/SponsorMatrix.sol\":17981:18005  incomeHistory[currentId] */\n      dup2\n      mstore\n      0x20\n      add\n      swap1\n      dup2\n      mstore\n      0x20\n      add\n      0x00\n      keccak256\n        /* \"contracts/modules/SponsorMatrix.sol\":18011:18253  Income({... */\n      mload(0x40)\n      dup1\n      0xa0\n      add\n      0x40\n      mstore\n      dup1\n        /* \"contracts/modules/SponsorMatrix.sol\":18053:18060  _fromId */\n      dup11\n        /* \"contracts/modules/SponsorMatrix.sol\":18011:18253  Income({... */\n      dup2\n      mstore\n      0x20\n      add\n        /* \"contracts/modules/SponsorMatrix.sol\":18091:18098  _amount */\n      dup10\n        /* \"contracts/modules/SponsorMatrix.sol\":18011:18253  Income({... */\n      dup2\n      mstore\n      0x20\n      add\n        /* \"contracts/modules/SponsorMatrix.sol\":18135:18148  _packageLevel */\n      dup9\n        /* \"contracts/modules/SponsorMatrix.sol\":18011:18253  Income({... */\n      dup2\n      mstore\n      0x20\n      add\n        /* \"contracts/modules/SponsorMatrix.sol\":18182:18197  block.timestamp */\n      timestamp\n        /* \"contracts/modules/SponsorMatrix.sol\":18011:18253  Income({... */\n      dup2\n      mstore\n      0x20\n      add\n        /* \"contracts/modules/SponsorMatrix.sol\":18232:18233  2 */\n      0x02\n        /* \"contracts/modules/SponsorMatrix.sol\":18011:18253  Income({... */\n      dup2\n      mstore\n      pop\n        /* \"contracts/modules/SponsorMatrix.sol\":17981:18254  incomeHistory[currentId].push(Income({... */\n      swap1\n      dup1\n      0x01\n      dup2\n      sload\n      add\n      dup1\n      dup3\n      sstore\n      dup1\n      swap2\n      pop\n      pop\n      0x01\n      swap1\n      sub\n      swap1\n      0x00\n      mstore\n      keccak256(0x00, 0x20)\n      swap1\n      0x05\n      mul\n      add\n      0x00\n      swap1\n      swap2\n      swap1\n      swap2\n      swap1\n      swap2\n      pop\n      0x00\n      dup3\n      add\n      mload\n      dup2\n      0x00\n      add\n      sstore\n      0x20\n      dup3\n      add\n      mload\n      dup2\n      0x01\n      add\n      sstore\n      0x40\n      dup3\n      add\n      mload\n      dup2\n      0x02\n      add\n      sstore\n      0x60\n      dup3\n      add\n      mload\n      dup2\n      0x03\n      add\n      sstore\n      0x80\n      dup3\n      add\n      mload\n      dup2\n      0x04\n      add\n      sstore\n      pop\n      pop\n        /* \"contracts/modules/SponsorMatrix.sol\":18310:18315  users */\n      0x09\n        /* \"contracts/modules/SponsorMatrix.sol\":18310:18324  users[_fromId] */\n      0x00\n        /* \"contracts/modules/SponsorMatrix.sol\":18316:18323  _fromId */\n      dup10\n        /* \"contracts/modules/SponsorMatrix.sol\":18310:18324  users[_fromId] */\n      dup2\n      mstore\n      0x20\n      add\n      swap1\n      dup2\n      mstore\n      0x20\n      add\n      0x00\n      keccak256\n        /* \"contracts/modules/SponsorMatrix.sol\":18310:18332  users[_fromId].account */\n      0x00\n      add\n      0x00\n      swap1\n      sload\n      swap1\n      0x0100\n      exp\n      swap1\n      div\n      0xffffffffffffffffffffffffffffffffffffffff\n      and\n        /* \"contracts/modules/SponsorMatrix.sol\":18280:18360  IncomeDistributed(up.account, users[_fromId].account, _amount, _packageLevel, 2) */\n      0xffffffffffffffffffffffffffffffffffffffff\n      and\n        /* \"contracts/modules/SponsorMatrix.sol\":18298:18300  up */\n      dup3\n        /* \"contracts/modules/SponsorMatrix.sol\":18298:18308  up.account */\n      0x00\n      add\n      0x00\n      swap1\n      sload\n      swap1\n      0x0100\n      exp\n      swap1\n      div\n      0xffffffffffffffffffffffffffffffffffffffff\n      and\n        /* \"contracts/modules/SponsorMatrix.sol\":18280:18360  IncomeDistributed(up.account, users[_fromId].account, _amount, _packageLevel, 2) */\n      0xffffffffffffffffffffffffffffffffffffffff\n      and\n      0xe17b61d324ce17328f433d0ab62581c0f0aa997312bae80fbdfcd2aa9b91d6e3\n        /* \"contracts/modules/SponsorMatrix.sol\":18334:18341  _amount */\n      dup10\n        /* \"contracts/modules/SponsorMatrix.sol\":18343:18356  _packageLevel */\n      dup10\n        /* \"contracts/modules/SponsorMatrix.sol\":18358:18359  2 */\n      0x02\n        /* \"contracts/modules/SponsorMatrix.sol\":18280:18360  IncomeDistributed(up.account, users[_fromId].account, _amount, _packageLevel, 2) */\n      mload(0x40)\n      tag_368\n      swap4\n      swap3\n      swap2\n      swap1\n      tag_369\n      jump\t// in\n    tag_368:\n      mload(0x40)\n      dup1\n      swap2\n      sub\n      swap1\n      log3\n        /* \"contracts/modules/SponsorMatrix.sol\":18379:18386  return; */\n      pop\n      pop\n      pop\n      pop\n      pop\n      jump(tag_345)\n        /* \"contracts/modules/SponsorMatrix.sol\":17617:18401  if (up.level >= _packageLevel) // up.directTeam >= 2 && ... */\n    tag_360:\n        /* \"contracts/modules/SponsorMatrix.sol\":18477:18479  up */\n      dup1\n        /* \"contracts/modules/SponsorMatrix.sol\":18477:18488  up.uplineId */\n      0x05\n      add\n      sload\n        /* \"contracts/modules/SponsorMatrix.sol\":18465:18488  currentId = up.uplineId */\n      swap2\n      pop\n        /* \"contracts/modules/SponsorMatrix.sol\":18503:18510  depth++ */\n      dup4\n      dup1\n      tag_370\n      swap1\n      tag_352\n      jump\t// in\n    tag_370:\n      swap5\n      pop\n      pop\n        /* \"contracts/modules/SponsorMatrix.sol\":17474:18522  {... */\n      pop\n        /* \"contracts/modules/SponsorMatrix.sol\":17401:18522  while (currentId != 0 && currentId != defaultRefId && depth < maxLayers) {... */\n      jump(tag_356)\n    tag_357:\n        /* \"contracts/modules/SponsorMatrix.sol\":18606:18629  _sendToCreator(_amount) */\n      tag_371\n        /* \"contracts/modules/SponsorMatrix.sol\":18621:18628  _amount */\n      dup6\n        /* \"contracts/modules/SponsorMatrix.sol\":18606:18620  _sendToCreator */\n      tag_202\n        /* \"contracts/modules/SponsorMatrix.sol\":18606:18629  _sendToCreator(_amount) */\n      jump\t// in\n    tag_371:\n        /* \"contracts/modules/SponsorMatrix.sol\":16638:18637  {... */\n      pop\n      pop\n      pop\n        /* \"contracts/modules/SponsorMatrix.sol\":16535:18637  function _distributeMatrixIncome(uint _uplineId,uint _fromId,uint _amount, uint _packageLevel) private {... */\n    tag_345:\n      pop\n      pop\n      pop\n      pop\n      jump\t// out\n        /* \"contracts/modules/SponsorMatrix.sol\":20610:22465  function _distributeLevelBoosterIncome(... */\n    tag_217:\n        /* \"contracts/modules/SponsorMatrix.sol\":20815:20816  0 */\n      0x00\n        /* \"contracts/modules/SponsorMatrix.sol\":20803:20811  _startId */\n      dup6\n        /* \"contracts/modules/SponsorMatrix.sol\":20803:20816  _startId == 0 */\n      eq\n        /* \"contracts/modules/SponsorMatrix.sol\":20803:20844  _startId == 0 || _startId == defaultRefId */\n      dup1\n      tag_373\n      jumpi\n      pop\n        /* \"contracts/modules/SponsorMatrix.sol\":20832:20844  defaultRefId */\n      sload(0x05)\n        /* \"contracts/modules/SponsorMatrix.sol\":20820:20828  _startId */\n      dup6\n        /* \"contracts/modules/SponsorMatrix.sol\":20820:20844  _startId == defaultRefId */\n      eq\n        /* \"contracts/modules/SponsorMatrix.sol\":20803:20844  _startId == 0 || _startId == defaultRefId */\n    tag_373:\n        /* \"contracts/modules/SponsorMatrix.sol\":20799:20917  if (_startId == 0 || _startId == defaultRefId) {... */\n      iszero\n      tag_374\n      jumpi\n        /* \"contracts/modules/SponsorMatrix.sol\":20861:20884  _sendToCreator(_amount) */\n      tag_375\n        /* \"contracts/modules/SponsorMatrix.sol\":20876:20883  _amount */\n      dup4\n        /* \"contracts/modules/SponsorMatrix.sol\":20861:20875  _sendToCreator */\n      tag_202\n        /* \"contracts/modules/SponsorMatrix.sol\":20861:20884  _sendToCreator(_amount) */\n      jump\t// in\n    tag_375:\n        /* \"contracts/modules/SponsorMatrix.sol\":20899:20906  return; */\n      jump(tag_372)\n        /* \"contracts/modules/SponsorMatrix.sol\":20799:20917  if (_startId == 0 || _startId == defaultRefId) {... */\n    tag_374:\n        /* \"contracts/modules/SponsorMatrix.sol\":20929:20952  uint levelsToDistribute */\n      0x00\n        /* \"contracts/modules/SponsorMatrix.sol\":20955:20964  _maxLevel */\n      dup2\n        /* \"contracts/modules/SponsorMatrix.sol\":20929:20964  uint levelsToDistribute = _maxLevel */\n      swap1\n      pop\n        /* \"contracts/modules/SponsorMatrix.sol\":21027:21028  0 */\n      0x00\n        /* \"contracts/modules/SponsorMatrix.sol\":21005:21023  levelsToDistribute */\n      dup2\n        /* \"contracts/modules/SponsorMatrix.sol\":21005:21028  levelsToDistribute == 0 */\n      sub\n        /* \"contracts/modules/SponsorMatrix.sol\":21001:21101  if (levelsToDistribute == 0) {... */\n      tag_376\n      jumpi\n        /* \"contracts/modules/SponsorMatrix.sol\":21045:21068  _sendToCreator(_amount) */\n      tag_377\n        /* \"contracts/modules/SponsorMatrix.sol\":21060:21067  _amount */\n      dup5\n        /* \"contracts/modules/SponsorMatrix.sol\":21045:21059  _sendToCreator */\n      tag_202\n        /* \"contracts/modules/SponsorMatrix.sol\":21045:21068  _sendToCreator(_amount) */\n      jump\t// in\n    tag_377:\n        /* \"contracts/modules/SponsorMatrix.sol\":21083:21090  return; */\n      pop\n      jump(tag_372)\n        /* \"contracts/modules/SponsorMatrix.sol\":21001:21101  if (levelsToDistribute == 0) {... */\n    tag_376:\n        /* \"contracts/modules/SponsorMatrix.sol\":21113:21132  uint amountPerLevel */\n      0x00\n        /* \"contracts/modules/SponsorMatrix.sol\":21145:21163  levelsToDistribute */\n      dup2\n        /* \"contracts/modules/SponsorMatrix.sol\":21135:21142  _amount */\n      dup6\n        /* \"contracts/modules/SponsorMatrix.sol\":21135:21163  _amount / levelsToDistribute */\n      tag_378\n      swap2\n      swap1\n      tag_168\n      jump\t// in\n    tag_378:\n        /* \"contracts/modules/SponsorMatrix.sol\":21113:21163  uint amountPerLevel = _amount / levelsToDistribute */\n      swap1\n      pop\n        /* \"contracts/modules/SponsorMatrix.sol\":21174:21188  uint remainder */\n      0x00\n        /* \"contracts/modules/SponsorMatrix.sol\":21219:21237  levelsToDistribute */\n      dup3\n        /* \"contracts/modules/SponsorMatrix.sol\":21202:21216  amountPerLevel */\n      dup3\n        /* \"contracts/modules/SponsorMatrix.sol\":21202:21237  amountPerLevel * levelsToDistribute */\n      tag_379\n      swap2\n      swap1\n      tag_195\n      jump\t// in\n    tag_379:\n        /* \"contracts/modules/SponsorMatrix.sol\":21191:21198  _amount */\n      dup7\n        /* \"contracts/modules/SponsorMatrix.sol\":21191:21238  _amount - (amountPerLevel * levelsToDistribute) */\n      tag_380\n      swap2\n      swap1\n      tag_166\n      jump\t// in\n    tag_380:\n        /* \"contracts/modules/SponsorMatrix.sol\":21174:21238  uint remainder = _amount - (amountPerLevel * levelsToDistribute) */\n      swap1\n      pop\n        /* \"contracts/modules/SponsorMatrix.sol\":21249:21262  uint spilover */\n      0x00\n        /* \"contracts/modules/SponsorMatrix.sol\":21265:21266  1 */\n      0x01\n        /* \"contracts/modules/SponsorMatrix.sol\":21249:21266  uint spilover = 1 */\n      swap1\n      pop\n        /* \"contracts/modules/SponsorMatrix.sol\":21277:21292  uint baselineId */\n      0x00\n        /* \"contracts/modules/SponsorMatrix.sol\":21295:21303  _startId */\n      dup10\n        /* \"contracts/modules/SponsorMatrix.sol\":21277:21303  uint baselineId = _startId */\n      swap1\n      pop\n        /* \"contracts/modules/SponsorMatrix.sol\":21321:21327  uint i */\n      0x00\n        /* \"contracts/modules/SponsorMatrix.sol\":21316:22375  for (uint i = 0; i < levelsToDistribute; i++) ... */\n    tag_381:\n        /* \"contracts/modules/SponsorMatrix.sol\":21337:21355  levelsToDistribute */\n      dup6\n        /* \"contracts/modules/SponsorMatrix.sol\":21333:21334  i */\n      dup2\n        /* \"contracts/modules/SponsorMatrix.sol\":21333:21355  i < levelsToDistribute */\n      lt\n        /* \"contracts/modules/SponsorMatrix.sol\":21316:22375  for (uint i = 0; i < levelsToDistribute; i++) ... */\n      iszero\n      tag_382\n      jumpi\n        /* \"contracts/modules/SponsorMatrix.sol\":21552:21553  0 */\n      0x00\n        /* \"contracts/modules/SponsorMatrix.sol\":21538:21548  baselineId */\n      dup3\n        /* \"contracts/modules/SponsorMatrix.sol\":21538:21553  baselineId != 0 */\n      eq\n      iszero\n        /* \"contracts/modules/SponsorMatrix.sol\":21538:21583  baselineId != 0 && baselineId != defaultRefId */\n      dup1\n      iszero\n      tag_384\n      jumpi\n      pop\n        /* \"contracts/modules/SponsorMatrix.sol\":21571:21583  defaultRefId */\n      sload(0x05)\n        /* \"contracts/modules/SponsorMatrix.sol\":21557:21567  baselineId */\n      dup3\n        /* \"contracts/modules/SponsorMatrix.sol\":21557:21583  baselineId != defaultRefId */\n      eq\n      iszero\n        /* \"contracts/modules/SponsorMatrix.sol\":21538:21583  baselineId != 0 && baselineId != defaultRefId */\n    tag_384:\n        /* \"contracts/modules/SponsorMatrix.sol\":21534:22198  if (baselineId != 0 && baselineId != defaultRefId) ... */\n      iszero\n      tag_385\n      jumpi\n        /* \"contracts/modules/SponsorMatrix.sol\":21648:21661  _packageLevel */\n      dup8\n        /* \"contracts/modules/SponsorMatrix.sol\":21621:21626  users */\n      0x09\n        /* \"contracts/modules/SponsorMatrix.sol\":21621:21638  users[baselineId] */\n      0x00\n        /* \"contracts/modules/SponsorMatrix.sol\":21627:21637  baselineId */\n      dup5\n        /* \"contracts/modules/SponsorMatrix.sol\":21621:21638  users[baselineId] */\n      dup2\n      mstore\n      0x20\n      add\n      swap1\n      dup2\n      mstore\n      0x20\n      add\n      0x00\n      keccak256\n        /* \"contracts/modules/SponsorMatrix.sol\":21621:21644  users[baselineId].level */\n      0x06\n      add\n      sload\n        /* \"contracts/modules/SponsorMatrix.sol\":21621:21661  users[baselineId].level >= _packageLevel */\n      lt\n        /* \"contracts/modules/SponsorMatrix.sol\":21618:22177  if(users[baselineId].level >= _packageLevel)... */\n      tag_386\n      jumpi\n        /* \"contracts/modules/SponsorMatrix.sol\":21710:21716  uint j */\n      0x00\n        /* \"contracts/modules/SponsorMatrix.sol\":21706:21905  for(uint j=0; j<spilover; j++)... */\n    tag_387:\n        /* \"contracts/modules/SponsorMatrix.sol\":21722:21730  spilover */\n      dup4\n        /* \"contracts/modules/SponsorMatrix.sol\":21720:21721  j */\n      dup2\n        /* \"contracts/modules/SponsorMatrix.sol\":21720:21730  j<spilover */\n      lt\n        /* \"contracts/modules/SponsorMatrix.sol\":21706:21905  for(uint j=0; j<spilover; j++)... */\n      iszero\n      tag_388\n      jumpi\n        /* \"contracts/modules/SponsorMatrix.sol\":21785:21854  _payLevelBooster(baselineId, _fromId, amountPerLevel , _packageLevel) */\n      tag_390\n        /* \"contracts/modules/SponsorMatrix.sol\":21802:21812  baselineId */\n      dup4\n        /* \"contracts/modules/SponsorMatrix.sol\":21814:21821  _fromId */\n      dup13\n        /* \"contracts/modules/SponsorMatrix.sol\":21823:21837  amountPerLevel */\n      dup9\n        /* \"contracts/modules/SponsorMatrix.sol\":21840:21853  _packageLevel */\n      dup13\n        /* \"contracts/modules/SponsorMatrix.sol\":21785:21801  _payLevelBooster */\n      tag_391\n        /* \"contracts/modules/SponsorMatrix.sol\":21785:21854  _payLevelBooster(baselineId, _fromId, amountPerLevel , _packageLevel) */\n      jump\t// in\n    tag_390:\n        /* \"contracts/modules/SponsorMatrix.sol\":21732:21735  j++ */\n      dup1\n      dup1\n      tag_392\n      swap1\n      tag_352\n      jump\t// in\n    tag_392:\n      swap2\n      pop\n      pop\n        /* \"contracts/modules/SponsorMatrix.sol\":21706:21905  for(uint j=0; j<spilover; j++)... */\n      jump(tag_387)\n    tag_388:\n      pop\n        /* \"contracts/modules/SponsorMatrix.sol\":21940:21945  users */\n      0x09\n        /* \"contracts/modules/SponsorMatrix.sol\":21940:21957  users[baselineId] */\n      0x00\n        /* \"contracts/modules/SponsorMatrix.sol\":21946:21956  baselineId */\n      dup4\n        /* \"contracts/modules/SponsorMatrix.sol\":21940:21957  users[baselineId] */\n      dup2\n      mstore\n      0x20\n      add\n      swap1\n      dup2\n      mstore\n      0x20\n      add\n      0x00\n      keccak256\n        /* \"contracts/modules/SponsorMatrix.sol\":21940:21966  users[baselineId].uplineId */\n      0x05\n      add\n      sload\n        /* \"contracts/modules/SponsorMatrix.sol\":21927:21966  baselineId = users[baselineId].uplineId */\n      swap2\n      pop\n        /* \"contracts/modules/SponsorMatrix.sol\":22000:22001  1 */\n      0x01\n        /* \"contracts/modules/SponsorMatrix.sol\":21989:22001  spilover = 1 */\n      swap3\n      pop\n        /* \"contracts/modules/SponsorMatrix.sol\":21618:22177  if(users[baselineId].level >= _packageLevel)... */\n      jump(tag_393)\n    tag_386:\n        /* \"contracts/modules/SponsorMatrix.sol\":22098:22103  users */\n      0x09\n        /* \"contracts/modules/SponsorMatrix.sol\":22098:22115  users[baselineId] */\n      0x00\n        /* \"contracts/modules/SponsorMatrix.sol\":22104:22114  baselineId */\n      dup4\n        /* \"contracts/modules/SponsorMatrix.sol\":22098:22115  users[baselineId] */\n      dup2\n      mstore\n      0x20\n      add\n      swap1\n      dup2\n      mstore\n      0x20\n      add\n      0x00\n      keccak256\n        /* \"contracts/modules/SponsorMatrix.sol\":22098:22124  users[baselineId].uplineId */\n      0x05\n      add\n      sload\n        /* \"contracts/modules/SponsorMatrix.sol\":22085:22124  baselineId = users[baselineId].uplineId */\n      swap2\n      pop\n        /* \"contracts/modules/SponsorMatrix.sol\":22147:22157  spilover++ */\n      dup3\n      dup1\n      tag_394\n      swap1\n      tag_352\n      jump\t// in\n    tag_394:\n      swap4\n      pop\n      pop\n        /* \"contracts/modules/SponsorMatrix.sol\":21618:22177  if(users[baselineId].level >= _packageLevel)... */\n    tag_393:\n        /* \"contracts/modules/SponsorMatrix.sol\":21534:22198  if (baselineId != 0 && baselineId != defaultRefId) ... */\n    tag_385:\n        /* \"contracts/modules/SponsorMatrix.sol\":22256:22257  0 */\n      0x00\n        /* \"contracts/modules/SponsorMatrix.sol\":22242:22252  baselineId */\n      dup3\n        /* \"contracts/modules/SponsorMatrix.sol\":22242:22257  baselineId == 0 */\n      eq\n        /* \"contracts/modules/SponsorMatrix.sol\":22242:22287  baselineId == 0 || baselineId == defaultRefId */\n      dup1\n      tag_395\n      jumpi\n      pop\n        /* \"contracts/modules/SponsorMatrix.sol\":22275:22287  defaultRefId */\n      sload(0x05)\n        /* \"contracts/modules/SponsorMatrix.sol\":22261:22271  baselineId */\n      dup3\n        /* \"contracts/modules/SponsorMatrix.sol\":22261:22287  baselineId == defaultRefId */\n      eq\n        /* \"contracts/modules/SponsorMatrix.sol\":22242:22287  baselineId == 0 || baselineId == defaultRefId */\n    tag_395:\n        /* \"contracts/modules/SponsorMatrix.sol\":22238:22354  if (baselineId == 0 || baselineId == defaultRefId) {... */\n      iszero\n      tag_396\n      jumpi\n        /* \"contracts/modules/SponsorMatrix.sol\":22308:22338  _sendToCreator(amountPerLevel) */\n      tag_397\n        /* \"contracts/modules/SponsorMatrix.sol\":22323:22337  amountPerLevel */\n      dup6\n        /* \"contracts/modules/SponsorMatrix.sol\":22308:22322  _sendToCreator */\n      tag_202\n        /* \"contracts/modules/SponsorMatrix.sol\":22308:22338  _sendToCreator(amountPerLevel) */\n      jump\t// in\n    tag_397:\n        /* \"contracts/modules/SponsorMatrix.sol\":22238:22354  if (baselineId == 0 || baselineId == defaultRefId) {... */\n    tag_396:\n        /* \"contracts/modules/SponsorMatrix.sol\":21357:21360  i++ */\n      dup1\n      dup1\n      tag_398\n      swap1\n      tag_352\n      jump\t// in\n    tag_398:\n      swap2\n      pop\n      pop\n        /* \"contracts/modules/SponsorMatrix.sol\":21316:22375  for (uint i = 0; i < levelsToDistribute; i++) ... */\n      jump(tag_381)\n    tag_382:\n      pop\n        /* \"contracts/modules/SponsorMatrix.sol\":22403:22404  0 */\n      0x00\n        /* \"contracts/modules/SponsorMatrix.sol\":22391:22400  remainder */\n      dup4\n        /* \"contracts/modules/SponsorMatrix.sol\":22391:22404  remainder > 0 */\n      gt\n        /* \"contracts/modules/SponsorMatrix.sol\":22387:22458  if (remainder > 0) {... */\n      iszero\n      tag_399\n      jumpi\n        /* \"contracts/modules/SponsorMatrix.sol\":22421:22446  _sendToCreator(remainder) */\n      tag_400\n        /* \"contracts/modules/SponsorMatrix.sol\":22436:22445  remainder */\n      dup4\n        /* \"contracts/modules/SponsorMatrix.sol\":22421:22435  _sendToCreator */\n      tag_202\n        /* \"contracts/modules/SponsorMatrix.sol\":22421:22446  _sendToCreator(remainder) */\n      jump\t// in\n    tag_400:\n        /* \"contracts/modules/SponsorMatrix.sol\":22387:22458  if (remainder > 0) {... */\n    tag_399:\n        /* \"contracts/modules/SponsorMatrix.sol\":20788:22465  {... */\n      pop\n      pop\n      pop\n      pop\n      pop\n        /* \"contracts/modules/SponsorMatrix.sol\":20610:22465  function _distributeLevelBoosterIncome(... */\n    tag_372:\n      pop\n      pop\n      pop\n      pop\n      pop\n      jump\t// out\n        /* \"contracts/modules/SponsorMatrix.sol\":13730:15233  function _placeInMatrix(uint _newUserId, uint _sponsorId) private {... */\n    tag_277:\n        /* \"contracts/modules/SponsorMatrix.sol\":13807:13819  bool isFound */\n      0x00\n        /* \"contracts/modules/SponsorMatrix.sol\":13830:13843  uint uplineId */\n      dup1\n        /* \"contracts/modules/SponsorMatrix.sol\":13961:13962  2 */\n      0x02\n        /* \"contracts/modules/SponsorMatrix.sol\":13934:13946  matrixDirect */\n      0x0d\n        /* \"contracts/modules/SponsorMatrix.sol\":13934:13958  matrixDirect[_sponsorId] */\n      0x00\n        /* \"contracts/modules/SponsorMatrix.sol\":13947:13957  _sponsorId */\n      dup6\n        /* \"contracts/modules/SponsorMatrix.sol\":13934:13958  matrixDirect[_sponsorId] */\n      dup2\n      mstore\n      0x20\n      add\n      swap1\n      dup2\n      mstore\n      0x20\n      add\n      0x00\n      keccak256\n      sload\n        /* \"contracts/modules/SponsorMatrix.sol\":13934:13962  matrixDirect[_sponsorId] < 2 */\n      lt\n        /* \"contracts/modules/SponsorMatrix.sol\":13931:14931  if(matrixDirect[_sponsorId] < 2) {... */\n      iszero\n      tag_402\n      jumpi\n        /* \"contracts/modules/SponsorMatrix.sol\":14008:14018  _sponsorId */\n      dup3\n        /* \"contracts/modules/SponsorMatrix.sol\":13979:13984  users */\n      0x09\n        /* \"contracts/modules/SponsorMatrix.sol\":13979:13996  users[_newUserId] */\n      0x00\n        /* \"contracts/modules/SponsorMatrix.sol\":13985:13995  _newUserId */\n      dup7\n        /* \"contracts/modules/SponsorMatrix.sol\":13979:13996  users[_newUserId] */\n      dup2\n      mstore\n      0x20\n      add\n      swap1\n      dup2\n      mstore\n      0x20\n      add\n      0x00\n      keccak256\n        /* \"contracts/modules/SponsorMatrix.sol\":13979:14005  users[_newUserId].uplineId */\n      0x05\n      add\n        /* \"contracts/modules/SponsorMatrix.sol\":13979:14018  users[_newUserId].uplineId = _sponsorId */\n      dup2\n      swap1\n      sstore\n      pop\n        /* \"contracts/modules/SponsorMatrix.sol\":14061:14062  1 */\n      0x01\n        /* \"contracts/modules/SponsorMatrix.sol\":14033:14045  matrixDirect */\n      0x0d\n        /* \"contracts/modules/SponsorMatrix.sol\":14033:14057  matrixDirect[_sponsorId] */\n      0x00\n        /* \"contracts/modules/SponsorMatrix.sol\":14046:14056  _sponsorId */\n      dup6\n        /* \"contracts/modules/SponsorMatrix.sol\":14033:14057  matrixDirect[_sponsorId] */\n      dup2\n      mstore\n      0x20\n      add\n      swap1\n      dup2\n      mstore\n      0x20\n      add\n      0x00\n      keccak256\n      0x00\n        /* \"contracts/modules/SponsorMatrix.sol\":14033:14062  matrixDirect[_sponsorId] += 1 */\n      dup3\n      dup3\n      sload\n      tag_403\n      swap2\n      swap1\n      tag_191\n      jump\t// in\n    tag_403:\n      swap3\n      pop\n      pop\n      dup2\n      swap1\n      sstore\n      pop\n        /* \"contracts/modules/SponsorMatrix.sol\":14088:14098  _sponsorId */\n      dup3\n        /* \"contracts/modules/SponsorMatrix.sol\":14077:14098  uplineId = _sponsorId */\n      swap1\n      pop\n        /* \"contracts/modules/SponsorMatrix.sol\":13931:14931  if(matrixDirect[_sponsorId] < 2) {... */\n      jump(tag_404)\n    tag_402:\n        /* \"contracts/modules/SponsorMatrix.sol\":14219:14225  uint i */\n      0x00\n        /* \"contracts/modules/SponsorMatrix.sol\":14215:14920  for(uint i=0; i<maxLayers; i++) { // Use a reasonable max depth for 2x2 matrix... */\n    tag_405:\n        /* \"contracts/modules/SponsorMatrix.sol\":1044:1046  15 */\n      0x0f\n        /* \"contracts/modules/SponsorMatrix.sol\":14229:14230  i */\n      dup2\n        /* \"contracts/modules/SponsorMatrix.sol\":14229:14240  i<maxLayers */\n      lt\n        /* \"contracts/modules/SponsorMatrix.sol\":14215:14920  for(uint i=0; i<maxLayers; i++) { // Use a reasonable max depth for 2x2 matrix... */\n      iszero\n      tag_406\n      jumpi\n        /* \"contracts/modules/SponsorMatrix.sol\":14314:14321  isFound */\n      dup3\n        /* \"contracts/modules/SponsorMatrix.sol\":14323:14328  break */\n      tag_406\n        /* \"contracts/modules/SponsorMatrix.sol\":14311:14328  if(isFound) break */\n      jumpi\n        /* \"contracts/modules/SponsorMatrix.sol\":14390:14391  2 */\n      0x02\n        /* \"contracts/modules/SponsorMatrix.sol\":14388:14389  i */\n      dup2\n        /* \"contracts/modules/SponsorMatrix.sol\":14388:14391  i+2 */\n      tag_409\n      swap2\n      swap1\n      tag_191\n      jump\t// in\n    tag_409:\n        /* \"contracts/modules/SponsorMatrix.sol\":14382:14383  2 */\n      0x02\n        /* \"contracts/modules/SponsorMatrix.sol\":14382:14392  2 ** (i+2) */\n      tag_410\n      swap2\n      swap1\n      tag_411\n      jump\t// in\n    tag_410:\n        /* \"contracts/modules/SponsorMatrix.sol\":14350:14355  teams */\n      0x0c\n        /* \"contracts/modules/SponsorMatrix.sol\":14350:14367  teams[_sponsorId] */\n      0x00\n        /* \"contracts/modules/SponsorMatrix.sol\":14356:14366  _sponsorId */\n      dup7\n        /* \"contracts/modules/SponsorMatrix.sol\":14350:14367  teams[_sponsorId] */\n      dup2\n      mstore\n      0x20\n      add\n      swap1\n      dup2\n      mstore\n      0x20\n      add\n      0x00\n      keccak256\n        /* \"contracts/modules/SponsorMatrix.sol\":14350:14372  teams[_sponsorId][i+1] */\n      0x00\n        /* \"contracts/modules/SponsorMatrix.sol\":14370:14371  1 */\n      0x01\n        /* \"contracts/modules/SponsorMatrix.sol\":14368:14369  i */\n      dup5\n        /* \"contracts/modules/SponsorMatrix.sol\":14368:14371  i+1 */\n      tag_412\n      swap2\n      swap1\n      tag_191\n      jump\t// in\n    tag_412:\n        /* \"contracts/modules/SponsorMatrix.sol\":14350:14372  teams[_sponsorId][i+1] */\n      dup2\n      mstore\n      0x20\n      add\n      swap1\n      dup2\n      mstore\n      0x20\n      add\n      0x00\n      keccak256\n        /* \"contracts/modules/SponsorMatrix.sol\":14350:14379  teams[_sponsorId][i+1].length */\n      dup1\n      sload\n      swap1\n      pop\n        /* \"contracts/modules/SponsorMatrix.sol\":14350:14392  teams[_sponsorId][i+1].length < 2 ** (i+2) */\n      lt\n        /* \"contracts/modules/SponsorMatrix.sol\":14347:14905  if(teams[_sponsorId][i+1].length < 2 ** (i+2)) {... */\n      iszero\n      tag_413\n      jumpi\n        /* \"contracts/modules/SponsorMatrix.sol\":14421:14427  uint j */\n      0x00\n        /* \"contracts/modules/SponsorMatrix.sol\":14417:14886  for(uint j=0; j<teams[_sponsorId][i].length; j++) {... */\n    tag_414:\n        /* \"contracts/modules/SponsorMatrix.sol\":14433:14438  teams */\n      0x0c\n        /* \"contracts/modules/SponsorMatrix.sol\":14433:14450  teams[_sponsorId] */\n      0x00\n        /* \"contracts/modules/SponsorMatrix.sol\":14439:14449  _sponsorId */\n      dup7\n        /* \"contracts/modules/SponsorMatrix.sol\":14433:14450  teams[_sponsorId] */\n      dup2\n      mstore\n      0x20\n      add\n      swap1\n      dup2\n      mstore\n      0x20\n      add\n      0x00\n      keccak256\n        /* \"contracts/modules/SponsorMatrix.sol\":14433:14453  teams[_sponsorId][i] */\n      0x00\n        /* \"contracts/modules/SponsorMatrix.sol\":14451:14452  i */\n      dup4\n        /* \"contracts/modules/SponsorMatrix.sol\":14433:14453  teams[_sponsorId][i] */\n      dup2\n      mstore\n      0x20\n      add\n      swap1\n      dup2\n      mstore\n      0x20\n      add\n      0x00\n      keccak256\n        /* \"contracts/modules/SponsorMatrix.sol\":14433:14460  teams[_sponsorId][i].length */\n      dup1\n      sload\n      swap1\n      pop\n        /* \"contracts/modules/SponsorMatrix.sol\":14431:14432  j */\n      dup2\n        /* \"contracts/modules/SponsorMatrix.sol\":14431:14460  j<teams[_sponsorId][i].length */\n      lt\n        /* \"contracts/modules/SponsorMatrix.sol\":14417:14886  for(uint j=0; j<teams[_sponsorId][i].length; j++) {... */\n      iszero\n      tag_415\n      jumpi\n        /* \"contracts/modules/SponsorMatrix.sol\":14495:14502  isFound */\n      dup4\n        /* \"contracts/modules/SponsorMatrix.sol\":14504:14509  break */\n      tag_415\n        /* \"contracts/modules/SponsorMatrix.sol\":14492:14509  if(isFound) break */\n      jumpi\n        /* \"contracts/modules/SponsorMatrix.sol\":14536:14545  uint temp */\n      0x00\n        /* \"contracts/modules/SponsorMatrix.sol\":14548:14553  teams */\n      0x0c\n        /* \"contracts/modules/SponsorMatrix.sol\":14548:14565  teams[_sponsorId] */\n      0x00\n        /* \"contracts/modules/SponsorMatrix.sol\":14554:14564  _sponsorId */\n      dup8\n        /* \"contracts/modules/SponsorMatrix.sol\":14548:14565  teams[_sponsorId] */\n      dup2\n      mstore\n      0x20\n      add\n      swap1\n      dup2\n      mstore\n      0x20\n      add\n      0x00\n      keccak256\n        /* \"contracts/modules/SponsorMatrix.sol\":14548:14568  teams[_sponsorId][i] */\n      0x00\n        /* \"contracts/modules/SponsorMatrix.sol\":14566:14567  i */\n      dup5\n        /* \"contracts/modules/SponsorMatrix.sol\":14548:14568  teams[_sponsorId][i] */\n      dup2\n      mstore\n      0x20\n      add\n      swap1\n      dup2\n      mstore\n      0x20\n      add\n      0x00\n      keccak256\n        /* \"contracts/modules/SponsorMatrix.sol\":14569:14570  j */\n      dup3\n        /* \"contracts/modules/SponsorMatrix.sol\":14548:14571  teams[_sponsorId][i][j] */\n      dup2\n      sload\n      dup2\n      lt\n      tag_418\n      jumpi\n      tag_419\n      tag_182\n      jump\t// in\n    tag_419:\n    tag_418:\n      swap1\n      0x00\n      mstore\n      keccak256(0x00, 0x20)\n      add\n      sload\n        /* \"contracts/modules/SponsorMatrix.sol\":14536:14571  uint temp = teams[_sponsorId][i][j] */\n      swap1\n      pop\n        /* \"contracts/modules/SponsorMatrix.sol\":14622:14623  2 */\n      0x02\n        /* \"contracts/modules/SponsorMatrix.sol\":14601:14613  matrixDirect */\n      0x0d\n        /* \"contracts/modules/SponsorMatrix.sol\":14601:14619  matrixDirect[temp] */\n      0x00\n        /* \"contracts/modules/SponsorMatrix.sol\":14614:14618  temp */\n      dup4\n        /* \"contracts/modules/SponsorMatrix.sol\":14601:14619  matrixDirect[temp] */\n      dup2\n      mstore\n      0x20\n      add\n      swap1\n      dup2\n      mstore\n      0x20\n      add\n      0x00\n      keccak256\n      sload\n        /* \"contracts/modules/SponsorMatrix.sol\":14601:14623  matrixDirect[temp] < 2 */\n      lt\n        /* \"contracts/modules/SponsorMatrix.sol\":14598:14862  if(matrixDirect[temp] < 2) {... */\n      iszero\n      tag_421\n      jumpi\n        /* \"contracts/modules/SponsorMatrix.sol\":14685:14689  temp */\n      dup1\n        /* \"contracts/modules/SponsorMatrix.sol\":14656:14661  users */\n      0x09\n        /* \"contracts/modules/SponsorMatrix.sol\":14656:14673  users[_newUserId] */\n      0x00\n        /* \"contracts/modules/SponsorMatrix.sol\":14662:14672  _newUserId */\n      dup10\n        /* \"contracts/modules/SponsorMatrix.sol\":14656:14673  users[_newUserId] */\n      dup2\n      mstore\n      0x20\n      add\n      swap1\n      dup2\n      mstore\n      0x20\n      add\n      0x00\n      keccak256\n        /* \"contracts/modules/SponsorMatrix.sol\":14656:14682  users[_newUserId].uplineId */\n      0x05\n      add\n        /* \"contracts/modules/SponsorMatrix.sol\":14656:14689  users[_newUserId].uplineId = temp */\n      dup2\n      swap1\n      sstore\n      pop\n        /* \"contracts/modules/SponsorMatrix.sol\":14742:14743  1 */\n      0x01\n        /* \"contracts/modules/SponsorMatrix.sol\":14720:14732  matrixDirect */\n      0x0d\n        /* \"contracts/modules/SponsorMatrix.sol\":14720:14738  matrixDirect[temp] */\n      0x00\n        /* \"contracts/modules/SponsorMatrix.sol\":14733:14737  temp */\n      dup4\n        /* \"contracts/modules/SponsorMatrix.sol\":14720:14738  matrixDirect[temp] */\n      dup2\n      mstore\n      0x20\n      add\n      swap1\n      dup2\n      mstore\n      0x20\n      add\n      0x00\n      keccak256\n      0x00\n        /* \"contracts/modules/SponsorMatrix.sol\":14720:14743  matrixDirect[temp] += 1 */\n      dup3\n      dup3\n      sload\n      tag_422\n      swap2\n      swap1\n      tag_191\n      jump\t// in\n    tag_422:\n      swap3\n      pop\n      pop\n      dup2\n      swap1\n      sstore\n      pop\n        /* \"contracts/modules/SponsorMatrix.sol\":14785:14789  temp */\n      dup1\n        /* \"contracts/modules/SponsorMatrix.sol\":14774:14789  uplineId = temp */\n      swap4\n      pop\n        /* \"contracts/modules/SponsorMatrix.sol\":14830:14834  true */\n      0x01\n        /* \"contracts/modules/SponsorMatrix.sol\":14820:14834  isFound = true */\n      swap5\n      pop\n        /* \"contracts/modules/SponsorMatrix.sol\":14598:14862  if(matrixDirect[temp] < 2) {... */\n    tag_421:\n        /* \"contracts/modules/SponsorMatrix.sol\":14467:14886  {... */\n      pop\n        /* \"contracts/modules/SponsorMatrix.sol\":14462:14465  j++ */\n      dup1\n      dup1\n      tag_423\n      swap1\n      tag_352\n      jump\t// in\n    tag_423:\n      swap2\n      pop\n      pop\n        /* \"contracts/modules/SponsorMatrix.sol\":14417:14886  for(uint j=0; j<teams[_sponsorId][i].length; j++) {... */\n      jump(tag_414)\n    tag_415:\n      pop\n        /* \"contracts/modules/SponsorMatrix.sol\":14347:14905  if(teams[_sponsorId][i+1].length < 2 ** (i+2)) {... */\n    tag_413:\n        /* \"contracts/modules/SponsorMatrix.sol\":14242:14245  i++ */\n      dup1\n      dup1\n      tag_424\n      swap1\n      tag_352\n      jump\t// in\n    tag_424:\n      swap2\n      pop\n      pop\n        /* \"contracts/modules/SponsorMatrix.sol\":14215:14920  for(uint i=0; i<maxLayers; i++) { // Use a reasonable max depth for 2x2 matrix... */\n      jump(tag_405)\n    tag_406:\n      pop\n        /* \"contracts/modules/SponsorMatrix.sol\":13931:14931  if(matrixDirect[_sponsorId] < 2) {... */\n    tag_404:\n        /* \"contracts/modules/SponsorMatrix.sol\":14997:15003  uint k */\n      0x00\n        /* \"contracts/modules/SponsorMatrix.sol\":14993:15226  for(uint k=0; k<maxLayers; k++) {... */\n    tag_425:\n        /* \"contracts/modules/SponsorMatrix.sol\":1044:1046  15 */\n      0x0f\n        /* \"contracts/modules/SponsorMatrix.sol\":15007:15008  k */\n      dup2\n        /* \"contracts/modules/SponsorMatrix.sol\":15007:15018  k<maxLayers */\n      lt\n        /* \"contracts/modules/SponsorMatrix.sol\":14993:15226  for(uint k=0; k<maxLayers; k++) {... */\n      iszero\n      tag_426\n      jumpi\n        /* \"contracts/modules/SponsorMatrix.sol\":15055:15056  0 */\n      0x00\n        /* \"contracts/modules/SponsorMatrix.sol\":15043:15051  uplineId */\n      dup3\n        /* \"contracts/modules/SponsorMatrix.sol\":15043:15056  uplineId == 0 */\n      sub\n        /* \"contracts/modules/SponsorMatrix.sol\":15040:15063  if(uplineId == 0) break */\n      iszero\n        /* \"contracts/modules/SponsorMatrix.sol\":15058:15063  break */\n      tag_426\n        /* \"contracts/modules/SponsorMatrix.sol\":15040:15063  if(uplineId == 0) break */\n      jumpi\n        /* \"contracts/modules/SponsorMatrix.sol\":15113:15114  1 */\n      0x01\n        /* \"contracts/modules/SponsorMatrix.sol\":15078:15083  users */\n      0x09\n        /* \"contracts/modules/SponsorMatrix.sol\":15078:15093  users[uplineId] */\n      0x00\n        /* \"contracts/modules/SponsorMatrix.sol\":15084:15092  uplineId */\n      dup5\n        /* \"contracts/modules/SponsorMatrix.sol\":15078:15093  users[uplineId] */\n      dup2\n      mstore\n      0x20\n      add\n      swap1\n      dup2\n      mstore\n      0x20\n      add\n      0x00\n      keccak256\n        /* \"contracts/modules/SponsorMatrix.sol\":15078:15109  users[uplineId].totalMatrixTeam */\n      0x08\n      add\n      0x00\n        /* \"contracts/modules/SponsorMatrix.sol\":15078:15114  users[uplineId].totalMatrixTeam += 1 */\n      dup3\n      dup3\n      sload\n      tag_429\n      swap2\n      swap1\n      tag_191\n      jump\t// in\n    tag_429:\n      swap3\n      pop\n      pop\n      dup2\n      swap1\n      sstore\n      pop\n        /* \"contracts/modules/SponsorMatrix.sol\":15129:15134  teams */\n      0x0c\n        /* \"contracts/modules/SponsorMatrix.sol\":15129:15144  teams[uplineId] */\n      0x00\n        /* \"contracts/modules/SponsorMatrix.sol\":15135:15143  uplineId */\n      dup4\n        /* \"contracts/modules/SponsorMatrix.sol\":15129:15144  teams[uplineId] */\n      dup2\n      mstore\n      0x20\n      add\n      swap1\n      dup2\n      mstore\n      0x20\n      add\n      0x00\n      keccak256\n        /* \"contracts/modules/SponsorMatrix.sol\":15129:15147  teams[uplineId][k] */\n      0x00\n        /* \"contracts/modules/SponsorMatrix.sol\":15145:15146  k */\n      dup3\n        /* \"contracts/modules/SponsorMatrix.sol\":15129:15147  teams[uplineId][k] */\n      dup2\n      mstore\n      0x20\n      add\n      swap1\n      dup2\n      mstore\n      0x20\n      add\n      0x00\n      keccak256\n        /* \"contracts/modules/SponsorMatrix.sol\":15153:15163  _newUserId */\n      dup6\n        /* \"contracts/modules/SponsorMatrix.sol\":15129:15164  teams[uplineId][k].push(_newUserId) */\n      swap1\n      dup1\n      0x01\n      dup2\n      sload\n      add\n      dup1\n      dup3\n      sstore\n      dup1\n      swap2\n      pop\n      pop\n      0x01\n      swap1\n      sub\n      swap1\n      0x00\n      mstore\n      keccak256(0x00, 0x20)\n      add\n      0x00\n      swap1\n      swap2\n      swap1\n      swap2\n      swap1\n      swap2\n      pop\n      sstore\n        /* \"contracts/modules/SponsorMatrix.sol\":15190:15195  users */\n      0x09\n        /* \"contracts/modules/SponsorMatrix.sol\":15190:15205  users[uplineId] */\n      0x00\n        /* \"contracts/modules/SponsorMatrix.sol\":15196:15204  uplineId */\n      dup4\n        /* \"contracts/modules/SponsorMatrix.sol\":15190:15205  users[uplineId] */\n      dup2\n      mstore\n      0x20\n      add\n      swap1\n      dup2\n      mstore\n      0x20\n      add\n      0x00\n      keccak256\n        /* \"contracts/modules/SponsorMatrix.sol\":15190:15214  users[uplineId].uplineId */\n      0x05\n      add\n      sload\n        /* \"contracts/modules/SponsorMatrix.sol\":15179:15214  uplineId = users[uplineId].uplineId */\n      swap2\n      pop\n        /* \"contracts/modules/SponsorMatrix.sol\":15020:15023  k++ */\n      dup1\n      dup1\n      tag_431\n      swap1\n      tag_352\n      jump\t// in\n    tag_431:\n      swap2\n      pop\n      pop\n        /* \"contracts/modules/SponsorMatrix.sol\":14993:15226  for(uint k=0; k<maxLayers; k++) {... */\n      jump(tag_425)\n    tag_426:\n      pop\n        /* \"contracts/modules/SponsorMatrix.sol\":13796:15233  {... */\n      pop\n      pop\n        /* \"contracts/modules/SponsorMatrix.sol\":13730:15233  function _placeInMatrix(uint _newUserId, uint _sponsorId) private {... */\n      pop\n      pop\n      jump\t// out\n        /* \"contracts/modules/SponsorMatrix.sol\":22527:23203  function _payLevelBooster(uint receiverId, uint fromId, uint amount, uint packageLevel) private {... */\n    tag_391:\n        /* \"contracts/modules/SponsorMatrix.sol\":22634:22644  address to */\n      0x00\n        /* \"contracts/modules/SponsorMatrix.sol\":22647:22652  users */\n      0x09\n        /* \"contracts/modules/SponsorMatrix.sol\":22647:22664  users[receiverId] */\n      0x00\n        /* \"contracts/modules/SponsorMatrix.sol\":22653:22663  receiverId */\n      dup7\n        /* \"contracts/modules/SponsorMatrix.sol\":22647:22664  users[receiverId] */\n      dup2\n      mstore\n      0x20\n      add\n      swap1\n      dup2\n      mstore\n      0x20\n      add\n      0x00\n      keccak256\n        /* \"contracts/modules/SponsorMatrix.sol\":22647:22672  users[receiverId].account */\n      0x00\n      add\n      0x00\n      swap1\n      sload\n      swap1\n      0x0100\n      exp\n      swap1\n      div\n      0xffffffffffffffffffffffffffffffffffffffff\n      and\n        /* \"contracts/modules/SponsorMatrix.sol\":22634:22672  address to = users[receiverId].account */\n      swap1\n      pop\n        /* \"contracts/modules/SponsorMatrix.sol\":22683:22687  usdt */\n      0x00\n      dup1\n      sload\n      swap1\n      0x0100\n      exp\n      swap1\n      div\n      0xffffffffffffffffffffffffffffffffffffffff\n      and\n        /* \"contracts/modules/SponsorMatrix.sol\":22683:22696  usdt.transfer */\n      0xffffffffffffffffffffffffffffffffffffffff\n      and\n      0xa9059cbb\n        /* \"contracts/modules/SponsorMatrix.sol\":22697:22699  to */\n      dup3\n        /* \"contracts/modules/SponsorMatrix.sol\":22701:22707  amount */\n      dup6\n        /* \"contracts/modules/SponsorMatrix.sol\":22683:22708  usdt.transfer(to, amount) */\n      mload(0x40)\n      dup4\n      0xffffffff\n      and\n      0xe0\n      shl\n      dup2\n      mstore\n      0x04\n      add\n      tag_433\n      swap3\n      swap2\n      swap1\n      tag_244\n      jump\t// in\n    tag_433:\n      0x20\n      mload(0x40)\n      dup1\n      dup4\n      sub\n      dup2\n      0x00\n      dup8\n      gas\n      call\n      iszero\n      dup1\n      iszero\n      tag_435\n      jumpi\n      returndatasize\n      0x00\n      dup1\n      returndatacopy\n      revert(0x00, returndatasize)\n    tag_435:\n      pop\n      pop\n      pop\n      pop\n      mload(0x40)\n      returndatasize\n      not(0x1f)\n      0x1f\n      dup3\n      add\n      and\n      dup3\n      add\n      dup1\n      0x40\n      mstore\n      pop\n      dup2\n      add\n      swap1\n      tag_436\n      swap2\n      swap1\n      tag_189\n      jump\t// in\n    tag_436:\n      pop\n        /* \"contracts/modules/SponsorMatrix.sol\":22721:22743  UserIncome storage inc */\n      0x00\n        /* \"contracts/modules/SponsorMatrix.sol\":22746:22757  userIncomes */\n      0x0a\n        /* \"contracts/modules/SponsorMatrix.sol\":22746:22769  userIncomes[receiverId] */\n      0x00\n        /* \"contracts/modules/SponsorMatrix.sol\":22758:22768  receiverId */\n      dup8\n        /* \"contracts/modules/SponsorMatrix.sol\":22746:22769  userIncomes[receiverId] */\n      dup2\n      mstore\n      0x20\n      add\n      swap1\n      dup2\n      mstore\n      0x20\n      add\n      0x00\n      keccak256\n        /* \"contracts/modules/SponsorMatrix.sol\":22721:22769  UserIncome storage inc = userIncomes[receiverId] */\n      swap1\n      pop\n        /* \"contracts/modules/SponsorMatrix.sol\":22799:22805  amount */\n      dup4\n        /* \"contracts/modules/SponsorMatrix.sol\":22780:22783  inc */\n      dup2\n        /* \"contracts/modules/SponsorMatrix.sol\":22780:22795  inc.totalIncome */\n      0x00\n      add\n      0x00\n        /* \"contracts/modules/SponsorMatrix.sol\":22780:22805  inc.totalIncome += amount */\n      dup3\n      dup3\n      sload\n      tag_437\n      swap2\n      swap1\n      tag_191\n      jump\t// in\n    tag_437:\n      swap3\n      pop\n      pop\n      dup2\n      swap1\n      sstore\n      pop\n        /* \"contracts/modules/SponsorMatrix.sol\":22842:22848  amount */\n      dup4\n        /* \"contracts/modules/SponsorMatrix.sol\":22816:22819  inc */\n      dup2\n        /* \"contracts/modules/SponsorMatrix.sol\":22816:22838  inc.levelBoosterIncome */\n      0x03\n      add\n      0x00\n        /* \"contracts/modules/SponsorMatrix.sol\":22816:22848  inc.levelBoosterIncome += amount */\n      dup3\n      dup3\n      sload\n      tag_438\n      swap2\n      swap1\n      tag_191\n      jump\t// in\n    tag_438:\n      swap3\n      pop\n      pop\n      dup2\n      swap1\n      sstore\n      pop\n        /* \"contracts/modules/SponsorMatrix.sol\":22861:22874  incomeHistory */\n      0x0b\n        /* \"contracts/modules/SponsorMatrix.sol\":22861:22886  incomeHistory[receiverId] */\n      0x00\n        /* \"contracts/modules/SponsorMatrix.sol\":22875:22885  receiverId */\n      dup8\n        /* \"contracts/modules/SponsorMatrix.sol\":22861:22886  incomeHistory[receiverId] */\n      dup2\n      mstore\n      0x20\n      add\n      swap1\n      dup2\n      mstore\n      0x20\n      add\n      0x00\n      keccak256\n        /* \"contracts/modules/SponsorMatrix.sol\":22892:23107  Income({... */\n      mload(0x40)\n      dup1\n      0xa0\n      add\n      0x40\n      mstore\n      dup1\n        /* \"contracts/modules/SponsorMatrix.sol\":22926:22932  fromId */\n      dup8\n        /* \"contracts/modules/SponsorMatrix.sol\":22892:23107  Income({... */\n      dup2\n      mstore\n      0x20\n      add\n        /* \"contracts/modules/SponsorMatrix.sol\":22955:22961  amount */\n      dup7\n        /* \"contracts/modules/SponsorMatrix.sol\":22892:23107  Income({... */\n      dup2\n      mstore\n      0x20\n      add\n        /* \"contracts/modules/SponsorMatrix.sol\":22990:23002  packageLevel */\n      dup6\n        /* \"contracts/modules/SponsorMatrix.sol\":22892:23107  Income({... */\n      dup2\n      mstore\n      0x20\n      add\n        /* \"contracts/modules/SponsorMatrix.sol\":23028:23043  block.timestamp */\n      timestamp\n        /* \"contracts/modules/SponsorMatrix.sol\":22892:23107  Income({... */\n      dup2\n      mstore\n      0x20\n      add\n        /* \"contracts/modules/SponsorMatrix.sol\":23070:23071  4 */\n      0x04\n        /* \"contracts/modules/SponsorMatrix.sol\":22892:23107  Income({... */\n      dup2\n      mstore\n      pop\n        /* \"contracts/modules/SponsorMatrix.sol\":22861:23108  incomeHistory[receiverId].push(Income({... */\n      swap1\n      dup1\n      0x01\n      dup2\n      sload\n      add\n      dup1\n      dup3\n      sstore\n      dup1\n      swap2\n      pop\n      pop\n      0x01\n      swap1\n      sub\n      swap1\n      0x00\n      mstore\n      keccak256(0x00, 0x20)\n      swap1\n      0x05\n      mul\n      add\n      0x00\n      swap1\n      swap2\n      swap1\n      swap2\n      swap1\n      swap2\n      pop\n      0x00\n      dup3\n      add\n      mload\n      dup2\n      0x00\n      add\n      sstore\n      0x20\n      dup3\n      add\n      mload\n      dup2\n      0x01\n      add\n      sstore\n      0x40\n      dup3\n      add\n      mload\n      dup2\n      0x02\n      add\n      sstore\n      0x60\n      dup3\n      add\n      mload\n      dup2\n      0x03\n      add\n      sstore\n      0x80\n      dup3\n      add\n      mload\n      dup2\n      0x04\n      add\n      sstore\n      pop\n      pop\n        /* \"contracts/modules/SponsorMatrix.sol\":23148:23153  users */\n      0x09\n        /* \"contracts/modules/SponsorMatrix.sol\":23148:23161  users[fromId] */\n      0x00\n        /* \"contracts/modules/SponsorMatrix.sol\":23154:23160  fromId */\n      dup7\n        /* \"contracts/modules/SponsorMatrix.sol\":23148:23161  users[fromId] */\n      dup2\n      mstore\n      0x20\n      add\n      swap1\n      dup2\n      mstore\n      0x20\n      add\n      0x00\n      keccak256\n        /* \"contracts/modules/SponsorMatrix.sol\":23148:23169  users[fromId].account */\n      0x00\n      add\n      0x00\n      swap1\n      sload\n      swap1\n      0x0100\n      exp\n      swap1\n      div\n      0xffffffffffffffffffffffffffffffffffffffff\n      and\n        /* \"contracts/modules/SponsorMatrix.sol\":23126:23195  IncomeDistributed(to, users[fromId].account, amount, packageLevel, 4) */\n      0xffffffffffffffffffffffffffffffffffffffff\n      and\n        /* \"contracts/modules/SponsorMatrix.sol\":23144:23146  to */\n      dup3\n        /* \"contracts/modules/SponsorMatrix.sol\":23126:23195  IncomeDistributed(to, users[fromId].account, amount, packageLevel, 4) */\n      0xffffffffffffffffffffffffffffffffffffffff\n      and\n      0xe17b61d324ce17328f433d0ab62581c0f0aa997312bae80fbdfcd2aa9b91d6e3\n        /* \"contracts/modules/SponsorMatrix.sol\":23171:23177  amount */\n      dup7\n        /* \"contracts/modules/SponsorMatrix.sol\":23179:23191  packageLevel */\n      dup7\n        /* \"contracts/modules/SponsorMatrix.sol\":23193:23194  4 */\n      0x04\n        /* \"contracts/modules/SponsorMatrix.sol\":23126:23195  IncomeDistributed(to, users[fromId].account, amount, packageLevel, 4) */\n      mload(0x40)\n      tag_440\n      swap4\n      swap3\n      swap2\n      swap1\n      tag_441\n      jump\t// in\n    tag_440:\n      mload(0x40)\n      dup1\n      swap2\n      sub\n      swap1\n      log3\n        /* \"contracts/modules/SponsorMatrix.sol\":22623:23203  {... */\n      pop\n      pop\n        /* \"contracts/modules/SponsorMatrix.sol\":22527:23203  function _payLevelBooster(uint receiverId, uint fromId, uint amount, uint packageLevel) private {... */\n      pop\n      pop\n      pop\n      pop\n      jump\t// out\n        /* \"#utility.yul\":7:84   */\n    tag_442:\n        /* \"#utility.yul\":44:51   */\n      0x00\n        /* \"#utility.yul\":73:78   */\n      dup2\n        /* \"#utility.yul\":62:78   */\n      swap1\n      pop\n        /* \"#utility.yul\":7:84   */\n      swap2\n      swap1\n      pop\n      jump\t// out\n        /* \"#utility.yul\":90:208   */\n    tag_443:\n        /* \"#utility.yul\":177:201   */\n      tag_494\n        /* \"#utility.yul\":195:200   */\n      dup2\n        /* \"#utility.yul\":177:201   */\n      tag_442\n      jump\t// in\n    tag_494:\n        /* \"#utility.yul\":172:175   */\n      dup3\n        /* \"#utility.yul\":165:202   */\n      mstore\n        /* \"#utility.yul\":90:208   */\n      pop\n      pop\n      jump\t// out\n        /* \"#utility.yul\":214:436   */\n    tag_45:\n        /* \"#utility.yul\":307:311   */\n      0x00\n        /* \"#utility.yul\":345:347   */\n      0x20\n        /* \"#utility.yul\":334:343   */\n      dup3\n        /* \"#utility.yul\":330:348   */\n      add\n        /* \"#utility.yul\":322:348   */\n      swap1\n      pop\n        /* \"#utility.yul\":358:429   */\n      tag_496\n        /* \"#utility.yul\":426:427   */\n      0x00\n        /* \"#utility.yul\":415:424   */\n      dup4\n        /* \"#utility.yul\":411:428   */\n      add\n        /* \"#utility.yul\":402:408   */\n      dup5\n        /* \"#utility.yul\":358:429   */\n      tag_443\n      jump\t// in\n    tag_496:\n        /* \"#utility.yul\":214:436   */\n      swap3\n      swap2\n      pop\n      pop\n      jump\t// out\n        /* \"#utility.yul\":523:640   */\n    tag_445:\n        /* \"#utility.yul\":632:633   */\n      0x00\n        /* \"#utility.yul\":629:630   */\n      dup1\n        /* \"#utility.yul\":622:634   */\n      revert\n        /* \"#utility.yul\":769:891   */\n    tag_447:\n        /* \"#utility.yul\":842:866   */\n      tag_501\n        /* \"#utility.yul\":860:865   */\n      dup2\n        /* \"#utility.yul\":842:866   */\n      tag_442\n      jump\t// in\n    tag_501:\n        /* \"#utility.yul\":835:840   */\n      dup2\n        /* \"#utility.yul\":832:867   */\n      eq\n        /* \"#utility.yul\":822:885   */\n      tag_502\n      jumpi\n        /* \"#utility.yul\":881:882   */\n      0x00\n        /* \"#utility.yul\":878:879   */\n      dup1\n        /* \"#utility.yul\":871:883   */\n      revert\n        /* \"#utility.yul\":822:885   */\n    tag_502:\n        /* \"#utility.yul\":769:891   */\n      pop\n      jump\t// out\n        /* \"#utility.yul\":897:1036   */\n    tag_448:\n        /* \"#utility.yul\":943:948   */\n      0x00\n        /* \"#utility.yul\":981:987   */\n      dup2\n        /* \"#utility.yul\":968:988   */\n      calldataload\n        /* \"#utility.yul\":959:988   */\n      swap1\n      pop\n        /* \"#utility.yul\":997:1030   */\n      tag_504\n        /* \"#utility.yul\":1024:1029   */\n      dup2\n        /* \"#utility.yul\":997:1030   */\n      tag_447\n      jump\t// in\n    tag_504:\n        /* \"#utility.yul\":897:1036   */\n      swap3\n      swap2\n      pop\n      pop\n      jump\t// out\n        /* \"#utility.yul\":1042:1371   */\n    tag_51:\n        /* \"#utility.yul\":1101:1107   */\n      0x00\n        /* \"#utility.yul\":1150:1152   */\n      0x20\n        /* \"#utility.yul\":1138:1147   */\n      dup3\n        /* \"#utility.yul\":1129:1136   */\n      dup5\n        /* \"#utility.yul\":1125:1148   */\n      sub\n        /* \"#utility.yul\":1121:1153   */\n      slt\n        /* \"#utility.yul\":1118:1237   */\n      iszero\n      tag_506\n      jumpi\n        /* \"#utility.yul\":1156:1235   */\n      tag_507\n      tag_445\n      jump\t// in\n    tag_507:\n        /* \"#utility.yul\":1118:1237   */\n    tag_506:\n        /* \"#utility.yul\":1276:1277   */\n      0x00\n        /* \"#utility.yul\":1301:1354   */\n      tag_508\n        /* \"#utility.yul\":1346:1353   */\n      dup5\n        /* \"#utility.yul\":1337:1343   */\n      dup3\n        /* \"#utility.yul\":1326:1335   */\n      dup6\n        /* \"#utility.yul\":1322:1344   */\n      add\n        /* \"#utility.yul\":1301:1354   */\n      tag_448\n      jump\t// in\n    tag_508:\n        /* \"#utility.yul\":1291:1354   */\n      swap2\n      pop\n        /* \"#utility.yul\":1247:1364   */\n      pop\n        /* \"#utility.yul\":1042:1371   */\n      swap3\n      swap2\n      pop\n      pop\n      jump\t// out\n        /* \"#utility.yul\":1377:1709   */\n    tag_58:\n        /* \"#utility.yul\":1498:1502   */\n      0x00\n        /* \"#utility.yul\":1536:1538   */\n      0x40\n        /* \"#utility.yul\":1525:1534   */\n      dup3\n        /* \"#utility.yul\":1521:1539   */\n      add\n        /* \"#utility.yul\":1513:1539   */\n      swap1\n      pop\n        /* \"#utility.yul\":1549:1620   */\n      tag_510\n        /* \"#utility.yul\":1617:1618   */\n      0x00\n        /* \"#utility.yul\":1606:1615   */\n      dup4\n        /* \"#utility.yul\":1602:1619   */\n      add\n        /* \"#utility.yul\":1593:1599   */\n      dup6\n        /* \"#utility.yul\":1549:1620   */\n      tag_443\n      jump\t// in\n    tag_510:\n        /* \"#utility.yul\":1630:1702   */\n      tag_511\n        /* \"#utility.yul\":1698:1700   */\n      0x20\n        /* \"#utility.yul\":1687:1696   */\n      dup4\n        /* \"#utility.yul\":1683:1701   */\n      add\n        /* \"#utility.yul\":1674:1680   */\n      dup5\n        /* \"#utility.yul\":1630:1702   */\n      tag_443\n      jump\t// in\n    tag_511:\n        /* \"#utility.yul\":1377:1709   */\n      swap4\n      swap3\n      pop\n      pop\n      pop\n      jump\t// out\n        /* \"#utility.yul\":1715:1841   */\n    tag_449:\n        /* \"#utility.yul\":1752:1759   */\n      0x00\n        /* \"#utility.yul\":1792:1834   */\n      0xffffffffffffffffffffffffffffffffffffffff\n        /* \"#utility.yul\":1785:1790   */\n      dup3\n        /* \"#utility.yul\":1781:1835   */\n      and\n        /* \"#utility.yul\":1770:1835   */\n      swap1\n      pop\n        /* \"#utility.yul\":1715:1841   */\n      swap2\n      swap1\n      pop\n      jump\t// out\n        /* \"#utility.yul\":1847:1907   */\n    tag_450:\n        /* \"#utility.yul\":1875:1878   */\n      0x00\n        /* \"#utility.yul\":1896:1901   */\n      dup2\n        /* \"#utility.yul\":1889:1901   */\n      swap1\n      pop\n        /* \"#utility.yul\":1847:1907   */\n      swap2\n      swap1\n      pop\n      jump\t// out\n        /* \"#utility.yul\":1913:2055   */\n    tag_451:\n        /* \"#utility.yul\":1963:1972   */\n      0x00\n        /* \"#utility.yul\":1996:2049   */\n      tag_515\n        /* \"#utility.yul\":2014:2048   */\n      tag_516\n        /* \"#utility.yul\":2023:2047   */\n      tag_517\n        /* \"#utility.yul\":2041:2046   */\n      dup5\n        /* \"#utility.yul\":2023:2047   */\n      tag_449\n      jump\t// in\n    tag_517:\n        /* \"#utility.yul\":2014:2048   */\n      tag_450\n      jump\t// in\n    tag_516:\n        /* \"#utility.yul\":1996:2049   */\n      tag_449\n      jump\t// in\n    tag_515:\n        /* \"#utility.yul\":1983:2049   */\n      swap1\n      pop\n        /* \"#utility.yul\":1913:2055   */\n      swap2\n      swap1\n      pop\n      jump\t// out\n        /* \"#utility.yul\":2061:2187   */\n    tag_452:\n        /* \"#utility.yul\":2111:2120   */\n      0x00\n        /* \"#utility.yul\":2144:2181   */\n      tag_519\n        /* \"#utility.yul\":2175:2180   */\n      dup3\n        /* \"#utility.yul\":2144:2181   */\n      tag_451\n      jump\t// in\n    tag_519:\n        /* \"#utility.yul\":2131:2181   */\n      swap1\n      pop\n        /* \"#utility.yul\":2061:2187   */\n      swap2\n      swap1\n      pop\n      jump\t// out\n        /* \"#utility.yul\":2193:2332   */\n    tag_453:\n        /* \"#utility.yul\":2256:2265   */\n      0x00\n        /* \"#utility.yul\":2289:2326   */\n      tag_521\n        /* \"#utility.yul\":2320:2325   */\n      dup3\n        /* \"#utility.yul\":2289:2326   */\n      tag_452\n      jump\t// in\n    tag_521:\n        /* \"#utility.yul\":2276:2326   */\n      swap1\n      pop\n        /* \"#utility.yul\":2193:2332   */\n      swap2\n      swap1\n      pop\n      jump\t// out\n        /* \"#utility.yul\":2338:2495   */\n    tag_454:\n        /* \"#utility.yul\":2438:2488   */\n      tag_523\n        /* \"#utility.yul\":2482:2487   */\n      dup2\n        /* \"#utility.yul\":2438:2488   */\n      tag_453\n      jump\t// in\n    tag_523:\n        /* \"#utility.yul\":2433:2436   */\n      dup3\n        /* \"#utility.yul\":2426:2489   */\n      mstore\n        /* \"#utility.yul\":2338:2495   */\n      pop\n      pop\n      jump\t// out\n        /* \"#utility.yul\":2501:2749   */\n    tag_65:\n        /* \"#utility.yul\":2607:2611   */\n      0x00\n        /* \"#utility.yul\":2645:2647   */\n      0x20\n        /* \"#utility.yul\":2634:2643   */\n      dup3\n        /* \"#utility.yul\":2630:2648   */\n      add\n        /* \"#utility.yul\":2622:2648   */\n      swap1\n      pop\n        /* \"#utility.yul\":2658:2742   */\n      tag_525\n        /* \"#utility.yul\":2739:2740   */\n      0x00\n        /* \"#utility.yul\":2728:2737   */\n      dup4\n        /* \"#utility.yul\":2724:2741   */\n      add\n        /* \"#utility.yul\":2715:2721   */\n      dup5\n        /* \"#utility.yul\":2658:2742   */\n      tag_454\n      jump\t// in\n    tag_525:\n        /* \"#utility.yul\":2501:2749   */\n      swap3\n      swap2\n      pop\n      pop\n      jump\t// out\n        /* \"#utility.yul\":2755:2851   */\n    tag_455:\n        /* \"#utility.yul\":2792:2799   */\n      0x00\n        /* \"#utility.yul\":2821:2845   */\n      tag_527\n        /* \"#utility.yul\":2839:2844   */\n      dup3\n        /* \"#utility.yul\":2821:2845   */\n      tag_449\n      jump\t// in\n    tag_527:\n        /* \"#utility.yul\":2810:2845   */\n      swap1\n      pop\n        /* \"#utility.yul\":2755:2851   */\n      swap2\n      swap1\n      pop\n      jump\t// out\n        /* \"#utility.yul\":2857:2975   */\n    tag_456:\n        /* \"#utility.yul\":2944:2968   */\n      tag_529\n        /* \"#utility.yul\":2962:2967   */\n      dup2\n        /* \"#utility.yul\":2944:2968   */\n      tag_455\n      jump\t// in\n    tag_529:\n        /* \"#utility.yul\":2939:2942   */\n      dup3\n        /* \"#utility.yul\":2932:2969   */\n      mstore\n        /* \"#utility.yul\":2857:2975   */\n      pop\n      pop\n      jump\t// out\n        /* \"#utility.yul\":2981:4200   */\n    tag_76:\n        /* \"#utility.yul\":3326:3330   */\n      0x00\n        /* \"#utility.yul\":3364:3367   */\n      0x0140\n        /* \"#utility.yul\":3353:3362   */\n      dup3\n        /* \"#utility.yul\":3349:3368   */\n      add\n        /* \"#utility.yul\":3341:3368   */\n      swap1\n      pop\n        /* \"#utility.yul\":3378:3449   */\n      tag_531\n        /* \"#utility.yul\":3446:3447   */\n      0x00\n        /* \"#utility.yul\":3435:3444   */\n      dup4\n        /* \"#utility.yul\":3431:3448   */\n      add\n        /* \"#utility.yul\":3422:3428   */\n      dup14\n        /* \"#utility.yul\":3378:3449   */\n      tag_456\n      jump\t// in\n    tag_531:\n        /* \"#utility.yul\":3459:3531   */\n      tag_532\n        /* \"#utility.yul\":3527:3529   */\n      0x20\n        /* \"#utility.yul\":3516:3525   */\n      dup4\n        /* \"#utility.yul\":3512:3530   */\n      add\n        /* \"#utility.yul\":3503:3509   */\n      dup13\n        /* \"#utility.yul\":3459:3531   */\n      tag_443\n      jump\t// in\n    tag_532:\n        /* \"#utility.yul\":3541:3613   */\n      tag_533\n        /* \"#utility.yul\":3609:3611   */\n      0x40\n        /* \"#utility.yul\":3598:3607   */\n      dup4\n        /* \"#utility.yul\":3594:3612   */\n      add\n        /* \"#utility.yul\":3585:3591   */\n      dup12\n        /* \"#utility.yul\":3541:3613   */\n      tag_443\n      jump\t// in\n    tag_533:\n        /* \"#utility.yul\":3623:3695   */\n      tag_534\n        /* \"#utility.yul\":3691:3693   */\n      0x60\n        /* \"#utility.yul\":3680:3689   */\n      dup4\n        /* \"#utility.yul\":3676:3694   */\n      add\n        /* \"#utility.yul\":3667:3673   */\n      dup11\n        /* \"#utility.yul\":3623:3695   */\n      tag_443\n      jump\t// in\n    tag_534:\n        /* \"#utility.yul\":3705:3778   */\n      tag_535\n        /* \"#utility.yul\":3773:3776   */\n      0x80\n        /* \"#utility.yul\":3762:3771   */\n      dup4\n        /* \"#utility.yul\":3758:3777   */\n      add\n        /* \"#utility.yul\":3749:3755   */\n      dup10\n        /* \"#utility.yul\":3705:3778   */\n      tag_443\n      jump\t// in\n    tag_535:\n        /* \"#utility.yul\":3788:3861   */\n      tag_536\n        /* \"#utility.yul\":3856:3859   */\n      0xa0\n        /* \"#utility.yul\":3845:3854   */\n      dup4\n        /* \"#utility.yul\":3841:3860   */\n      add\n        /* \"#utility.yul\":3832:3838   */\n      dup9\n        /* \"#utility.yul\":3788:3861   */\n      tag_443\n      jump\t// in\n    tag_536:\n        /* \"#utility.yul\":3871:3944   */\n      tag_537\n        /* \"#utility.yul\":3939:3942   */\n      0xc0\n        /* \"#utility.yul\":3928:3937   */\n      dup4\n        /* \"#utility.yul\":3924:3943   */\n      add\n        /* \"#utility.yul\":3915:3921   */\n      dup8\n        /* \"#utility.yul\":3871:3944   */\n      tag_443\n      jump\t// in\n    tag_537:\n        /* \"#utility.yul\":3954:4027   */\n      tag_538\n        /* \"#utility.yul\":4022:4025   */\n      0xe0\n        /* \"#utility.yul\":4011:4020   */\n      dup4\n        /* \"#utility.yul\":4007:4026   */\n      add\n        /* \"#utility.yul\":3998:4004   */\n      dup7\n        /* \"#utility.yul\":3954:4027   */\n      tag_443\n      jump\t// in\n    tag_538:\n        /* \"#utility.yul\":4037:4110   */\n      tag_539\n        /* \"#utility.yul\":4105:4108   */\n      0x0100\n        /* \"#utility.yul\":4094:4103   */\n      dup4\n        /* \"#utility.yul\":4090:4109   */\n      add\n        /* \"#utility.yul\":4081:4087   */\n      dup6\n        /* \"#utility.yul\":4037:4110   */\n      tag_443\n      jump\t// in\n    tag_539:\n        /* \"#utility.yul\":4120:4193   */\n      tag_540\n        /* \"#utility.yul\":4188:4191   */\n      0x0120\n        /* \"#utility.yul\":4177:4186   */\n      dup4\n        /* \"#utility.yul\":4173:4192   */\n      add\n        /* \"#utility.yul\":4164:4170   */\n      dup5\n        /* \"#utility.yul\":4120:4193   */\n      tag_443\n      jump\t// in\n    tag_540:\n        /* \"#utility.yul\":2981:4200   */\n      swap12\n      swap11\n      pop\n      pop\n      pop\n      pop\n      pop\n      pop\n      pop\n      pop\n      pop\n      pop\n      pop\n      jump\t// out\n        /* \"#utility.yul\":4206:5203   */\n    tag_91:\n        /* \"#utility.yul\":4495:4499   */\n      0x00\n        /* \"#utility.yul\":4533:4536   */\n      0x0100\n        /* \"#utility.yul\":4522:4531   */\n      dup3\n        /* \"#utility.yul\":4518:4537   */\n      add\n        /* \"#utility.yul\":4510:4537   */\n      swap1\n      pop\n        /* \"#utility.yul\":4547:4618   */\n      tag_542\n        /* \"#utility.yul\":4615:4616   */\n      0x00\n        /* \"#utility.yul\":4604:4613   */\n      dup4\n        /* \"#utility.yul\":4600:4617   */\n      add\n        /* \"#utility.yul\":4591:4597   */\n      dup12\n        /* \"#utility.yul\":4547:4618   */\n      tag_443\n      jump\t// in\n    tag_542:\n        /* \"#utility.yul\":4628:4700   */\n      tag_543\n        /* \"#utility.yul\":4696:4698   */\n      0x20\n        /* \"#utility.yul\":4685:4694   */\n      dup4\n        /* \"#utility.yul\":4681:4699   */\n      add\n        /* \"#utility.yul\":4672:4678   */\n      dup11\n        /* \"#utility.yul\":4628:4700   */\n      tag_443\n      jump\t// in\n    tag_543:\n        /* \"#utility.yul\":4710:4782   */\n      tag_544\n        /* \"#utility.yul\":4778:4780   */\n      0x40\n        /* \"#utility.yul\":4767:4776   */\n      dup4\n        /* \"#utility.yul\":4763:4781   */\n      add\n        /* \"#utility.yul\":4754:4760   */\n      dup10\n        /* \"#utility.yul\":4710:4782   */\n      tag_443\n      jump\t// in\n    tag_544:\n        /* \"#utility.yul\":4792:4864   */\n      tag_545\n        /* \"#utility.yul\":4860:4862   */\n      0x60\n        /* \"#utility.yul\":4849:4858   */\n      dup4\n        /* \"#utility.yul\":4845:4863   */\n      add\n        /* \"#utility.yul\":4836:4842   */\n      dup9\n        /* \"#utility.yul\":4792:4864   */\n      tag_443\n      jump\t// in\n    tag_545:\n        /* \"#utility.yul\":4874:4947   */\n      tag_546\n        /* \"#utility.yul\":4942:4945   */\n      0x80\n        /* \"#utility.yul\":4931:4940   */\n      dup4\n        /* \"#utility.yul\":4927:4946   */\n      add\n        /* \"#utility.yul\":4918:4924   */\n      dup8\n        /* \"#utility.yul\":4874:4947   */\n      tag_443\n      jump\t// in\n    tag_546:\n        /* \"#utility.yul\":4957:5030   */\n      tag_547\n        /* \"#utility.yul\":5025:5028   */\n      0xa0\n        /* \"#utility.yul\":5014:5023   */\n      dup4\n        /* \"#utility.yul\":5010:5029   */\n      add\n        /* \"#utility.yul\":5001:5007   */\n      dup7\n        /* \"#utility.yul\":4957:5030   */\n      tag_443\n      jump\t// in\n    tag_547:\n        /* \"#utility.yul\":5040:5113   */\n      tag_548\n        /* \"#utility.yul\":5108:5111   */\n      0xc0\n        /* \"#utility.yul\":5097:5106   */\n      dup4\n        /* \"#utility.yul\":5093:5112   */\n      add\n        /* \"#utility.yul\":5084:5090   */\n      dup6\n        /* \"#utility.yul\":5040:5113   */\n      tag_443\n      jump\t// in\n    tag_548:\n        /* \"#utility.yul\":5123:5196   */\n      tag_549\n        /* \"#utility.yul\":5191:5194   */\n      0xe0\n        /* \"#utility.yul\":5180:5189   */\n      dup4\n        /* \"#utility.yul\":5176:5195   */\n      add\n        /* \"#utility.yul\":5167:5173   */\n      dup5\n        /* \"#utility.yul\":5123:5196   */\n      tag_443\n      jump\t// in\n    tag_549:\n        /* \"#utility.yul\":4206:5203   */\n      swap10\n      swap9\n      pop\n      pop\n      pop\n      pop\n      pop\n      pop\n      pop\n      pop\n      pop\n      jump\t// out\n        /* \"#utility.yul\":5209:5828   */\n    tag_100:\n        /* \"#utility.yul\":5286:5292   */\n      0x00\n        /* \"#utility.yul\":5294:5300   */\n      dup1\n        /* \"#utility.yul\":5302:5308   */\n      0x00\n        /* \"#utility.yul\":5351:5353   */\n      0x60\n        /* \"#utility.yul\":5339:5348   */\n      dup5\n        /* \"#utility.yul\":5330:5337   */\n      dup7\n        /* \"#utility.yul\":5326:5349   */\n      sub\n        /* \"#utility.yul\":5322:5354   */\n      slt\n        /* \"#utility.yul\":5319:5438   */\n      iszero\n      tag_551\n      jumpi\n        /* \"#utility.yul\":5357:5436   */\n      tag_552\n      tag_445\n      jump\t// in\n    tag_552:\n        /* \"#utility.yul\":5319:5438   */\n    tag_551:\n        /* \"#utility.yul\":5477:5478   */\n      0x00\n        /* \"#utility.yul\":5502:5555   */\n      tag_553\n        /* \"#utility.yul\":5547:5554   */\n      dup7\n        /* \"#utility.yul\":5538:5544   */\n      dup3\n        /* \"#utility.yul\":5527:5536   */\n      dup8\n        /* \"#utility.yul\":5523:5545   */\n      add\n        /* \"#utility.yul\":5502:5555   */\n      tag_448\n      jump\t// in\n    tag_553:\n        /* \"#utility.yul\":5492:5555   */\n      swap4\n      pop\n        /* \"#utility.yul\":5448:5565   */\n      pop\n        /* \"#utility.yul\":5604:5606   */\n      0x20\n        /* \"#utility.yul\":5630:5683   */\n      tag_554\n        /* \"#utility.yul\":5675:5682   */\n      dup7\n        /* \"#utility.yul\":5666:5672   */\n      dup3\n        /* \"#utility.yul\":5655:5664   */\n      dup8\n        /* \"#utility.yul\":5651:5673   */\n      add\n        /* \"#utility.yul\":5630:5683   */\n      tag_448\n      jump\t// in\n    tag_554:\n        /* \"#utility.yul\":5620:5683   */\n      swap3\n      pop\n        /* \"#utility.yul\":5575:5693   */\n      pop\n        /* \"#utility.yul\":5732:5734   */\n      0x40\n        /* \"#utility.yul\":5758:5811   */\n      tag_555\n        /* \"#utility.yul\":5803:5810   */\n      dup7\n        /* \"#utility.yul\":5794:5800   */\n      dup3\n        /* \"#utility.yul\":5783:5792   */\n      dup8\n        /* \"#utility.yul\":5779:5801   */\n      add\n        /* \"#utility.yul\":5758:5811   */\n      tag_448\n      jump\t// in\n    tag_555:\n        /* \"#utility.yul\":5748:5811   */\n      swap2\n      pop\n        /* \"#utility.yul\":5703:5821   */\n      pop\n        /* \"#utility.yul\":5209:5828   */\n      swap3\n      pop\n      swap3\n      pop\n      swap3\n      jump\t// out\n        /* \"#utility.yul\":5834:6308   */\n    tag_105:\n        /* \"#utility.yul\":5902:5908   */\n      0x00\n        /* \"#utility.yul\":5910:5916   */\n      dup1\n        /* \"#utility.yul\":5959:5961   */\n      0x40\n        /* \"#utility.yul\":5947:5956   */\n      dup4\n        /* \"#utility.yul\":5938:5945   */\n      dup6\n        /* \"#utility.yul\":5934:5957   */\n      sub\n        /* \"#utility.yul\":5930:5962   */\n      slt\n        /* \"#utility.yul\":5927:6046   */\n      iszero\n      tag_557\n      jumpi\n        /* \"#utility.yul\":5965:6044   */\n      tag_558\n      tag_445\n      jump\t// in\n    tag_558:\n        /* \"#utility.yul\":5927:6046   */\n    tag_557:\n        /* \"#utility.yul\":6085:6086   */\n      0x00\n        /* \"#utility.yul\":6110:6163   */\n      tag_559\n        /* \"#utility.yul\":6155:6162   */\n      dup6\n        /* \"#utility.yul\":6146:6152   */\n      dup3\n        /* \"#utility.yul\":6135:6144   */\n      dup7\n        /* \"#utility.yul\":6131:6153   */\n      add\n        /* \"#utility.yul\":6110:6163   */\n      tag_448\n      jump\t// in\n    tag_559:\n        /* \"#utility.yul\":6100:6163   */\n      swap3\n      pop\n        /* \"#utility.yul\":6056:6173   */\n      pop\n        /* \"#utility.yul\":6212:6214   */\n      0x20\n        /* \"#utility.yul\":6238:6291   */\n      tag_560\n        /* \"#utility.yul\":6283:6290   */\n      dup6\n        /* \"#utility.yul\":6274:6280   */\n      dup3\n        /* \"#utility.yul\":6263:6272   */\n      dup7\n        /* \"#utility.yul\":6259:6281   */\n      add\n        /* \"#utility.yul\":6238:6291   */\n      tag_448\n      jump\t// in\n    tag_560:\n        /* \"#utility.yul\":6228:6291   */\n      swap2\n      pop\n        /* \"#utility.yul\":6183:6301   */\n      pop\n        /* \"#utility.yul\":5834:6308   */\n      swap3\n      pop\n      swap3\n      swap1\n      pop\n      jump\t// out\n        /* \"#utility.yul\":6314:6978   */\n    tag_112:\n        /* \"#utility.yul\":6519:6523   */\n      0x00\n        /* \"#utility.yul\":6557:6560   */\n      0xa0\n        /* \"#utility.yul\":6546:6555   */\n      dup3\n        /* \"#utility.yul\":6542:6561   */\n      add\n        /* \"#utility.yul\":6534:6561   */\n      swap1\n      pop\n        /* \"#utility.yul\":6571:6642   */\n      tag_562\n        /* \"#utility.yul\":6639:6640   */\n      0x00\n        /* \"#utility.yul\":6628:6637   */\n      dup4\n        /* \"#utility.yul\":6624:6641   */\n      add\n        /* \"#utility.yul\":6615:6621   */\n      dup9\n        /* \"#utility.yul\":6571:6642   */\n      tag_443\n      jump\t// in\n    tag_562:\n        /* \"#utility.yul\":6652:6724   */\n      tag_563\n        /* \"#utility.yul\":6720:6722   */\n      0x20\n        /* \"#utility.yul\":6709:6718   */\n      dup4\n        /* \"#utility.yul\":6705:6723   */\n      add\n        /* \"#utility.yul\":6696:6702   */\n      dup8\n        /* \"#utility.yul\":6652:6724   */\n      tag_443\n      jump\t// in\n    tag_563:\n        /* \"#utility.yul\":6734:6806   */\n      tag_564\n        /* \"#utility.yul\":6802:6804   */\n      0x40\n        /* \"#utility.yul\":6791:6800   */\n      dup4\n        /* \"#utility.yul\":6787:6805   */\n      add\n        /* \"#utility.yul\":6778:6784   */\n      dup7\n        /* \"#utility.yul\":6734:6806   */\n      tag_443\n      jump\t// in\n    tag_564:\n        /* \"#utility.yul\":6816:6888   */\n      tag_565\n        /* \"#utility.yul\":6884:6886   */\n      0x60\n        /* \"#utility.yul\":6873:6882   */\n      dup4\n        /* \"#utility.yul\":6869:6887   */\n      add\n        /* \"#utility.yul\":6860:6866   */\n      dup6\n        /* \"#utility.yul\":6816:6888   */\n      tag_443\n      jump\t// in\n    tag_565:\n        /* \"#utility.yul\":6898:6971   */\n      tag_566\n        /* \"#utility.yul\":6966:6969   */\n      0x80\n        /* \"#utility.yul\":6955:6964   */\n      dup4\n        /* \"#utility.yul\":6951:6970   */\n      add\n        /* \"#utility.yul\":6942:6948   */\n      dup5\n        /* \"#utility.yul\":6898:6971   */\n      tag_443\n      jump\t// in\n    tag_566:\n        /* \"#utility.yul\":6314:6978   */\n      swap7\n      swap6\n      pop\n      pop\n      pop\n      pop\n      pop\n      pop\n      jump\t// out\n        /* \"#utility.yul\":6984:7759   */\n    tag_117:\n        /* \"#utility.yul\":7217:7221   */\n      0x00\n        /* \"#utility.yul\":7255:7258   */\n      0xc0\n        /* \"#utility.yul\":7244:7253   */\n      dup3\n        /* \"#utility.yul\":7240:7259   */\n      add\n        /* \"#utility.yul\":7232:7259   */\n      swap1\n      pop\n        /* \"#utility.yul\":7269:7340   */\n      tag_568\n        /* \"#utility.yul\":7337:7338   */\n      0x00\n        /* \"#utility.yul\":7326:7335   */\n      dup4\n        /* \"#utility.yul\":7322:7339   */\n      add\n        /* \"#utility.yul\":7313:7319   */\n      dup10\n        /* \"#utility.yul\":7269:7340   */\n      tag_443\n      jump\t// in\n    tag_568:\n        /* \"#utility.yul\":7350:7422   */\n      tag_569\n        /* \"#utility.yul\":7418:7420   */\n      0x20\n        /* \"#utility.yul\":7407:7416   */\n      dup4\n        /* \"#utility.yul\":7403:7421   */\n      add\n        /* \"#utility.yul\":7394:7400   */\n      dup9\n        /* \"#utility.yul\":7350:7422   */\n      tag_443\n      jump\t// in\n    tag_569:\n        /* \"#utility.yul\":7432:7504   */\n      tag_570\n        /* \"#utility.yul\":7500:7502   */\n      0x40\n        /* \"#utility.yul\":7489:7498   */\n      dup4\n        /* \"#utility.yul\":7485:7503   */\n      add\n        /* \"#utility.yul\":7476:7482   */\n      dup8\n        /* \"#utility.yul\":7432:7504   */\n      tag_443\n      jump\t// in\n    tag_570:\n        /* \"#utility.yul\":7514:7586   */\n      tag_571\n        /* \"#utility.yul\":7582:7584   */\n      0x60\n        /* \"#utility.yul\":7571:7580   */\n      dup4\n        /* \"#utility.yul\":7567:7585   */\n      add\n        /* \"#utility.yul\":7558:7564   */\n      dup7\n        /* \"#utility.yul\":7514:7586   */\n      tag_443\n      jump\t// in\n    tag_571:\n        /* \"#utility.yul\":7596:7669   */\n      tag_572\n        /* \"#utility.yul\":7664:7667   */\n      0x80\n        /* \"#utility.yul\":7653:7662   */\n      dup4\n        /* \"#utility.yul\":7649:7668   */\n      add\n        /* \"#utility.yul\":7640:7646   */\n      dup6\n        /* \"#utility.yul\":7596:7669   */\n      tag_443\n      jump\t// in\n    tag_572:\n        /* \"#utility.yul\":7679:7752   */\n      tag_573\n        /* \"#utility.yul\":7747:7750   */\n      0xa0\n        /* \"#utility.yul\":7736:7745   */\n      dup4\n        /* \"#utility.yul\":7732:7751   */\n      add\n        /* \"#utility.yul\":7723:7729   */\n      dup5\n        /* \"#utility.yul\":7679:7752   */\n      tag_443\n      jump\t// in\n    tag_573:\n        /* \"#utility.yul\":6984:7759   */\n      swap8\n      swap7\n      pop\n      pop\n      pop\n      pop\n      pop\n      pop\n      pop\n      jump\t// out\n        /* \"#utility.yul\":7765:7987   */\n    tag_124:\n        /* \"#utility.yul\":7858:7862   */\n      0x00\n        /* \"#utility.yul\":7896:7898   */\n      0x20\n        /* \"#utility.yul\":7885:7894   */\n      dup3\n        /* \"#utility.yul\":7881:7899   */\n      add\n        /* \"#utility.yul\":7873:7899   */\n      swap1\n      pop\n        /* \"#utility.yul\":7909:7980   */\n      tag_575\n        /* \"#utility.yul\":7977:7978   */\n      0x00\n        /* \"#utility.yul\":7966:7975   */\n      dup4\n        /* \"#utility.yul\":7962:7979   */\n      add\n        /* \"#utility.yul\":7953:7959   */\n      dup5\n        /* \"#utility.yul\":7909:7980   */\n      tag_456\n      jump\t// in\n    tag_575:\n        /* \"#utility.yul\":7765:7987   */\n      swap3\n      swap2\n      pop\n      pop\n      jump\t// out\n        /* \"#utility.yul\":7993:8115   */\n    tag_457:\n        /* \"#utility.yul\":8066:8090   */\n      tag_577\n        /* \"#utility.yul\":8084:8089   */\n      dup2\n        /* \"#utility.yul\":8066:8090   */\n      tag_455\n      jump\t// in\n    tag_577:\n        /* \"#utility.yul\":8059:8064   */\n      dup2\n        /* \"#utility.yul\":8056:8091   */\n      eq\n        /* \"#utility.yul\":8046:8109   */\n      tag_578\n      jumpi\n        /* \"#utility.yul\":8105:8106   */\n      0x00\n        /* \"#utility.yul\":8102:8103   */\n      dup1\n        /* \"#utility.yul\":8095:8107   */\n      revert\n        /* \"#utility.yul\":8046:8109   */\n    tag_578:\n        /* \"#utility.yul\":7993:8115   */\n      pop\n      jump\t// out\n        /* \"#utility.yul\":8121:8260   */\n    tag_458:\n        /* \"#utility.yul\":8167:8172   */\n      0x00\n        /* \"#utility.yul\":8205:8211   */\n      dup2\n        /* \"#utility.yul\":8192:8212   */\n      calldataload\n        /* \"#utility.yul\":8183:8212   */\n      swap1\n      pop\n        /* \"#utility.yul\":8221:8254   */\n      tag_580\n        /* \"#utility.yul\":8248:8253   */\n      dup2\n        /* \"#utility.yul\":8221:8254   */\n      tag_457\n      jump\t// in\n    tag_580:\n        /* \"#utility.yul\":8121:8260   */\n      swap3\n      swap2\n      pop\n      pop\n      jump\t// out\n        /* \"#utility.yul\":8266:8595   */\n    tag_144:\n        /* \"#utility.yul\":8325:8331   */\n      0x00\n        /* \"#utility.yul\":8374:8376   */\n      0x20\n        /* \"#utility.yul\":8362:8371   */\n      dup3\n        /* \"#utility.yul\":8353:8360   */\n      dup5\n        /* \"#utility.yul\":8349:8372   */\n      sub\n        /* \"#utility.yul\":8345:8377   */\n      slt\n        /* \"#utility.yul\":8342:8461   */\n      iszero\n      tag_582\n      jumpi\n        /* \"#utility.yul\":8380:8459   */\n      tag_583\n      tag_445\n      jump\t// in\n    tag_583:\n        /* \"#utility.yul\":8342:8461   */\n    tag_582:\n        /* \"#utility.yul\":8500:8501   */\n      0x00\n        /* \"#utility.yul\":8525:8578   */\n      tag_584\n        /* \"#utility.yul\":8570:8577   */\n      dup5\n        /* \"#utility.yul\":8561:8567   */\n      dup3\n        /* \"#utility.yul\":8550:8559   */\n      dup6\n        /* \"#utility.yul\":8546:8568   */\n      add\n        /* \"#utility.yul\":8525:8578   */\n      tag_458\n      jump\t// in\n    tag_584:\n        /* \"#utility.yul\":8515:8578   */\n      swap2\n      pop\n        /* \"#utility.yul\":8471:8588   */\n      pop\n        /* \"#utility.yul\":8266:8595   */\n      swap3\n      swap2\n      pop\n      pop\n      jump\t// out\n        /* \"#utility.yul\":8601:8781   */\n    tag_459:\n        /* \"#utility.yul\":8649:8726   */\n      0x4e487b7100000000000000000000000000000000000000000000000000000000\n        /* \"#utility.yul\":8646:8647   */\n      0x00\n        /* \"#utility.yul\":8639:8727   */\n      mstore\n        /* \"#utility.yul\":8746:8750   */\n      0x11\n        /* \"#utility.yul\":8743:8744   */\n      0x04\n        /* \"#utility.yul\":8736:8751   */\n      mstore\n        /* \"#utility.yul\":8770:8774   */\n      0x24\n        /* \"#utility.yul\":8767:8768   */\n      0x00\n        /* \"#utility.yul\":8760:8775   */\n      revert\n        /* \"#utility.yul\":8787:8981   */\n    tag_166:\n        /* \"#utility.yul\":8827:8831   */\n      0x00\n        /* \"#utility.yul\":8847:8867   */\n      tag_587\n        /* \"#utility.yul\":8865:8866   */\n      dup3\n        /* \"#utility.yul\":8847:8867   */\n      tag_442\n      jump\t// in\n    tag_587:\n        /* \"#utility.yul\":8842:8867   */\n      swap2\n      pop\n        /* \"#utility.yul\":8881:8901   */\n      tag_588\n        /* \"#utility.yul\":8899:8900   */\n      dup4\n        /* \"#utility.yul\":8881:8901   */\n      tag_442\n      jump\t// in\n    tag_588:\n        /* \"#utility.yul\":8876:8901   */\n      swap3\n      pop\n        /* \"#utility.yul\":8925:8926   */\n      dup3\n        /* \"#utility.yul\":8922:8923   */\n      dup3\n        /* \"#utility.yul\":8918:8927   */\n      sub\n        /* \"#utility.yul\":8910:8927   */\n      swap1\n      pop\n        /* \"#utility.yul\":8949:8950   */\n      dup2\n        /* \"#utility.yul\":8943:8947   */\n      dup2\n        /* \"#utility.yul\":8940:8951   */\n      gt\n        /* \"#utility.yul\":8937:8974   */\n      iszero\n      tag_589\n      jumpi\n        /* \"#utility.yul\":8954:8972   */\n      tag_590\n      tag_459\n      jump\t// in\n    tag_590:\n        /* \"#utility.yul\":8937:8974   */\n    tag_589:\n        /* \"#utility.yul\":8787:8981   */\n      swap3\n      swap2\n      pop\n      pop\n      jump\t// out\n        /* \"#utility.yul\":8987:9167   */\n    tag_460:\n        /* \"#utility.yul\":9035:9112   */\n      0x4e487b7100000000000000000000000000000000000000000000000000000000\n        /* \"#utility.yul\":9032:9033   */\n      0x00\n        /* \"#utility.yul\":9025:9113   */\n      mstore\n        /* \"#utility.yul\":9132:9136   */\n      0x12\n        /* \"#utility.yul\":9129:9130   */\n      0x04\n        /* \"#utility.yul\":9122:9137   */\n      mstore\n        /* \"#utility.yul\":9156:9160   */\n      0x24\n        /* \"#utility.yul\":9153:9154   */\n      0x00\n        /* \"#utility.yul\":9146:9161   */\n      revert\n        /* \"#utility.yul\":9173:9358   */\n    tag_168:\n        /* \"#utility.yul\":9213:9214   */\n      0x00\n        /* \"#utility.yul\":9230:9250   */\n      tag_593\n        /* \"#utility.yul\":9248:9249   */\n      dup3\n        /* \"#utility.yul\":9230:9250   */\n      tag_442\n      jump\t// in\n    tag_593:\n        /* \"#utility.yul\":9225:9250   */\n      swap2\n      pop\n        /* \"#utility.yul\":9264:9284   */\n      tag_594\n        /* \"#utility.yul\":9282:9283   */\n      dup4\n        /* \"#utility.yul\":9264:9284   */\n      tag_442\n      jump\t// in\n    tag_594:\n        /* \"#utility.yul\":9259:9284   */\n      swap3\n      pop\n        /* \"#utility.yul\":9303:9304   */\n      dup3\n        /* \"#utility.yul\":9293:9328   */\n      tag_595\n      jumpi\n        /* \"#utility.yul\":9308:9326   */\n      tag_596\n      tag_460\n      jump\t// in\n    tag_596:\n        /* \"#utility.yul\":9293:9328   */\n    tag_595:\n        /* \"#utility.yul\":9350:9351   */\n      dup3\n        /* \"#utility.yul\":9347:9348   */\n      dup3\n        /* \"#utility.yul\":9343:9352   */\n      div\n        /* \"#utility.yul\":9338:9352   */\n      swap1\n      pop\n        /* \"#utility.yul\":9173:9358   */\n      swap3\n      swap2\n      pop\n      pop\n      jump\t// out\n        /* \"#utility.yul\":9364:9533   */\n    tag_461:\n        /* \"#utility.yul\":9448:9459   */\n      0x00\n        /* \"#utility.yul\":9482:9488   */\n      dup3\n        /* \"#utility.yul\":9477:9480   */\n      dup3\n        /* \"#utility.yul\":9470:9489   */\n      mstore\n        /* \"#utility.yul\":9522:9526   */\n      0x20\n        /* \"#utility.yul\":9517:9520   */\n      dup3\n        /* \"#utility.yul\":9513:9527   */\n      add\n        /* \"#utility.yul\":9498:9527   */\n      swap1\n      pop\n        /* \"#utility.yul\":9364:9533   */\n      swap3\n      swap2\n      pop\n      pop\n      jump\t// out\n        /* \"#utility.yul\":9539:9705   */\n    tag_462:\n        /* \"#utility.yul\":9679:9697   */\n      0x4e6f7420796f7572206163636f756e7400000000000000000000000000000000\n        /* \"#utility.yul\":9675:9676   */\n      0x00\n        /* \"#utility.yul\":9667:9673   */\n      dup3\n        /* \"#utility.yul\":9663:9677   */\n      add\n        /* \"#utility.yul\":9656:9698   */\n      mstore\n        /* \"#utility.yul\":9539:9705   */\n      pop\n      jump\t// out\n        /* \"#utility.yul\":9711:10077   */\n    tag_463:\n        /* \"#utility.yul\":9853:9856   */\n      0x00\n        /* \"#utility.yul\":9874:9941   */\n      tag_600\n        /* \"#utility.yul\":9938:9940   */\n      0x10\n        /* \"#utility.yul\":9933:9936   */\n      dup4\n        /* \"#utility.yul\":9874:9941   */\n      tag_461\n      jump\t// in\n    tag_600:\n        /* \"#utility.yul\":9867:9941   */\n      swap2\n      pop\n        /* \"#utility.yul\":9950:10043   */\n      tag_601\n        /* \"#utility.yul\":10039:10042   */\n      dup3\n        /* \"#utility.yul\":9950:10043   */\n      tag_462\n      jump\t// in\n    tag_601:\n        /* \"#utility.yul\":10068:10070   */\n      0x20\n        /* \"#utility.yul\":10063:10066   */\n      dup3\n        /* \"#utility.yul\":10059:10071   */\n      add\n        /* \"#utility.yul\":10052:10071   */\n      swap1\n      pop\n        /* \"#utility.yul\":9711:10077   */\n      swap2\n      swap1\n      pop\n      jump\t// out\n        /* \"#utility.yul\":10083:10502   */\n    tag_176:\n        /* \"#utility.yul\":10249:10253   */\n      0x00\n        /* \"#utility.yul\":10287:10289   */\n      0x20\n        /* \"#utility.yul\":10276:10285   */\n      dup3\n        /* \"#utility.yul\":10272:10290   */\n      add\n        /* \"#utility.yul\":10264:10290   */\n      swap1\n      pop\n        /* \"#utility.yul\":10336:10345   */\n      dup2\n        /* \"#utility.yul\":10330:10334   */\n      dup2\n        /* \"#utility.yul\":10326:10346   */\n      sub\n        /* \"#utility.yul\":10322:10323   */\n      0x00\n        /* \"#utility.yul\":10311:10320   */\n      dup4\n        /* \"#utility.yul\":10307:10324   */\n      add\n        /* \"#utility.yul\":10300:10347   */\n      mstore\n        /* \"#utility.yul\":10364:10495   */\n      tag_603\n        /* \"#utility.yul\":10490:10494   */\n      dup2\n        /* \"#utility.yul\":10364:10495   */\n      tag_463\n      jump\t// in\n    tag_603:\n        /* \"#utility.yul\":10356:10495   */\n      swap1\n      pop\n        /* \"#utility.yul\":10083:10502   */\n      swap2\n      swap1\n      pop\n      jump\t// out\n        /* \"#utility.yul\":10508:10678   */\n    tag_464:\n        /* \"#utility.yul\":10648:10670   */\n      0x416c7265616479206174206d6178206c6576656c000000000000000000000000\n        /* \"#utility.yul\":10644:10645   */\n      0x00\n        /* \"#utility.yul\":10636:10642   */\n      dup3\n        /* \"#utility.yul\":10632:10646   */\n      add\n        /* \"#utility.yul\":10625:10671   */\n      mstore\n        /* \"#utility.yul\":10508:10678   */\n      pop\n      jump\t// out\n        /* \"#utility.yul\":10684:11050   */\n    tag_465:\n        /* \"#utility.yul\":10826:10829   */\n      0x00\n        /* \"#utility.yul\":10847:10914   */\n      tag_606\n        /* \"#utility.yul\":10911:10913   */\n      0x14\n        /* \"#utility.yul\":10906:10909   */\n      dup4\n        /* \"#utility.yul\":10847:10914   */\n      tag_461\n      jump\t// in\n    tag_606:\n        /* \"#utility.yul\":10840:10914   */\n      swap2\n      pop\n        /* \"#utility.yul\":10923:11016   */\n      tag_607\n        /* \"#utility.yul\":11012:11015   */\n      dup3\n        /* \"#utility.yul\":10923:11016   */\n      tag_464\n      jump\t// in\n    tag_607:\n        /* \"#utility.yul\":11041:11043   */\n      0x20\n        /* \"#utility.yul\":11036:11039   */\n      dup3\n        /* \"#utility.yul\":11032:11044   */\n      add\n        /* \"#utility.yul\":11025:11044   */\n      swap1\n      pop\n        /* \"#utility.yul\":10684:11050   */\n      swap2\n      swap1\n      pop\n      jump\t// out\n        /* \"#utility.yul\":11056:11475   */\n    tag_179:\n        /* \"#utility.yul\":11222:11226   */\n      0x00\n        /* \"#utility.yul\":11260:11262   */\n      0x20\n        /* \"#utility.yul\":11249:11258   */\n      dup3\n        /* \"#utility.yul\":11245:11263   */\n      add\n        /* \"#utility.yul\":11237:11263   */\n      swap1\n      pop\n        /* \"#utility.yul\":11309:11318   */\n      dup2\n        /* \"#utility.yul\":11303:11307   */\n      dup2\n        /* \"#utility.yul\":11299:11319   */\n      sub\n        /* \"#utility.yul\":11295:11296   */\n      0x00\n        /* \"#utility.yul\":11284:11293   */\n      dup4\n        /* \"#utility.yul\":11280:11297   */\n      add\n        /* \"#utility.yul\":11273:11320   */\n      mstore\n        /* \"#utility.yul\":11337:11468   */\n      tag_609\n        /* \"#utility.yul\":11463:11467   */\n      dup2\n        /* \"#utility.yul\":11337:11468   */\n      tag_465\n      jump\t// in\n    tag_609:\n        /* \"#utility.yul\":11329:11468   */\n      swap1\n      pop\n        /* \"#utility.yul\":11056:11475   */\n      swap2\n      swap1\n      pop\n      jump\t// out\n        /* \"#utility.yul\":11481:11661   */\n    tag_182:\n        /* \"#utility.yul\":11529:11606   */\n      0x4e487b7100000000000000000000000000000000000000000000000000000000\n        /* \"#utility.yul\":11526:11527   */\n      0x00\n        /* \"#utility.yul\":11519:11607   */\n      mstore\n        /* \"#utility.yul\":11626:11630   */\n      0x32\n        /* \"#utility.yul\":11623:11624   */\n      0x04\n        /* \"#utility.yul\":11616:11631   */\n      mstore\n        /* \"#utility.yul\":11650:11654   */\n      0x24\n        /* \"#utility.yul\":11647:11648   */\n      0x00\n        /* \"#utility.yul\":11640:11655   */\n      revert\n        /* \"#utility.yul\":11667:12109   */\n    tag_185:\n        /* \"#utility.yul\":11816:11820   */\n      0x00\n        /* \"#utility.yul\":11854:11856   */\n      0x60\n        /* \"#utility.yul\":11843:11852   */\n      dup3\n        /* \"#utility.yul\":11839:11857   */\n      add\n        /* \"#utility.yul\":11831:11857   */\n      swap1\n      pop\n        /* \"#utility.yul\":11867:11938   */\n      tag_612\n        /* \"#utility.yul\":11935:11936   */\n      0x00\n        /* \"#utility.yul\":11924:11933   */\n      dup4\n        /* \"#utility.yul\":11920:11937   */\n      add\n        /* \"#utility.yul\":11911:11917   */\n      dup7\n        /* \"#utility.yul\":11867:11938   */\n      tag_456\n      jump\t// in\n    tag_612:\n        /* \"#utility.yul\":11948:12020   */\n      tag_613\n        /* \"#utility.yul\":12016:12018   */\n      0x20\n        /* \"#utility.yul\":12005:12014   */\n      dup4\n        /* \"#utility.yul\":12001:12019   */\n      add\n        /* \"#utility.yul\":11992:11998   */\n      dup6\n        /* \"#utility.yul\":11948:12020   */\n      tag_456\n      jump\t// in\n    tag_613:\n        /* \"#utility.yul\":12030:12102   */\n      tag_614\n        /* \"#utility.yul\":12098:12100   */\n      0x40\n        /* \"#utility.yul\":12087:12096   */\n      dup4\n        /* \"#utility.yul\":12083:12101   */\n      add\n        /* \"#utility.yul\":12074:12080   */\n      dup5\n        /* \"#utility.yul\":12030:12102   */\n      tag_443\n      jump\t// in\n    tag_614:\n        /* \"#utility.yul\":11667:12109   */\n      swap5\n      swap4\n      pop\n      pop\n      pop\n      pop\n      jump\t// out\n        /* \"#utility.yul\":12115:12205   */\n    tag_466:\n        /* \"#utility.yul\":12149:12156   */\n      0x00\n        /* \"#utility.yul\":12192:12197   */\n      dup2\n        /* \"#utility.yul\":12185:12198   */\n      iszero\n        /* \"#utility.yul\":12178:12199   */\n      iszero\n        /* \"#utility.yul\":12167:12199   */\n      swap1\n      pop\n        /* \"#utility.yul\":12115:12205   */\n      swap2\n      swap1\n      pop\n      jump\t// out\n        /* \"#utility.yul\":12211:12327   */\n    tag_467:\n        /* \"#utility.yul\":12281:12302   */\n      tag_617\n        /* \"#utility.yul\":12296:12301   */\n      dup2\n        /* \"#utility.yul\":12281:12302   */\n      tag_466\n      jump\t// in\n    tag_617:\n        /* \"#utility.yul\":12274:12279   */\n      dup2\n        /* \"#utility.yul\":12271:12303   */\n      eq\n        /* \"#utility.yul\":12261:12321   */\n      tag_618\n      jumpi\n        /* \"#utility.yul\":12317:12318   */\n      0x00\n        /* \"#utility.yul\":12314:12315   */\n      dup1\n        /* \"#utility.yul\":12307:12319   */\n      revert\n        /* \"#utility.yul\":12261:12321   */\n    tag_618:\n        /* \"#utility.yul\":12211:12327   */\n      pop\n      jump\t// out\n        /* \"#utility.yul\":12333:12470   */\n    tag_468:\n        /* \"#utility.yul\":12387:12392   */\n      0x00\n        /* \"#utility.yul\":12418:12424   */\n      dup2\n        /* \"#utility.yul\":12412:12425   */\n      mload\n        /* \"#utility.yul\":12403:12425   */\n      swap1\n      pop\n        /* \"#utility.yul\":12434:12464   */\n      tag_620\n        /* \"#utility.yul\":12458:12463   */\n      dup2\n        /* \"#utility.yul\":12434:12464   */\n      tag_467\n      jump\t// in\n    tag_620:\n        /* \"#utility.yul\":12333:12470   */\n      swap3\n      swap2\n      pop\n      pop\n      jump\t// out\n        /* \"#utility.yul\":12476:12821   */\n    tag_189:\n        /* \"#utility.yul\":12543:12549   */\n      0x00\n        /* \"#utility.yul\":12592:12594   */\n      0x20\n        /* \"#utility.yul\":12580:12589   */\n      dup3\n        /* \"#utility.yul\":12571:12578   */\n      dup5\n        /* \"#utility.yul\":12567:12590   */\n      sub\n        /* \"#utility.yul\":12563:12595   */\n      slt\n        /* \"#utility.yul\":12560:12679   */\n      iszero\n      tag_622\n      jumpi\n        /* \"#utility.yul\":12598:12677   */\n      tag_623\n      tag_445\n      jump\t// in\n    tag_623:\n        /* \"#utility.yul\":12560:12679   */\n    tag_622:\n        /* \"#utility.yul\":12718:12719   */\n      0x00\n        /* \"#utility.yul\":12743:12804   */\n      tag_624\n        /* \"#utility.yul\":12796:12803   */\n      dup5\n        /* \"#utility.yul\":12787:12793   */\n      dup3\n        /* \"#utility.yul\":12776:12785   */\n      dup6\n        /* \"#utility.yul\":12772:12794   */\n      add\n        /* \"#utility.yul\":12743:12804   */\n      tag_468\n      jump\t// in\n    tag_624:\n        /* \"#utility.yul\":12733:12804   */\n      swap2\n      pop\n        /* \"#utility.yul\":12689:12814   */\n      pop\n        /* \"#utility.yul\":12476:12821   */\n      swap3\n      swap2\n      pop\n      pop\n      jump\t// out\n        /* \"#utility.yul\":12827:13018   */\n    tag_191:\n        /* \"#utility.yul\":12867:12870   */\n      0x00\n        /* \"#utility.yul\":12886:12906   */\n      tag_626\n        /* \"#utility.yul\":12904:12905   */\n      dup3\n        /* \"#utility.yul\":12886:12906   */\n      tag_442\n      jump\t// in\n    tag_626:\n        /* \"#utility.yul\":12881:12906   */\n      swap2\n      pop\n        /* \"#utility.yul\":12920:12940   */\n      tag_627\n        /* \"#utility.yul\":12938:12939   */\n      dup4\n        /* \"#utility.yul\":12920:12940   */\n      tag_442\n      jump\t// in\n    tag_627:\n        /* \"#utility.yul\":12915:12940   */\n      swap3\n      pop\n        /* \"#utility.yul\":12963:12964   */\n      dup3\n        /* \"#utility.yul\":12960:12961   */\n      dup3\n        /* \"#utility.yul\":12956:12965   */\n      add\n        /* \"#utility.yul\":12949:12965   */\n      swap1\n      pop\n        /* \"#utility.yul\":12984:12987   */\n      dup1\n        /* \"#utility.yul\":12981:12982   */\n      dup3\n        /* \"#utility.yul\":12978:12988   */\n      gt\n        /* \"#utility.yul\":12975:13011   */\n      iszero\n      tag_628\n      jumpi\n        /* \"#utility.yul\":12991:13009   */\n      tag_629\n      tag_459\n      jump\t// in\n    tag_629:\n        /* \"#utility.yul\":12975:13011   */\n    tag_628:\n        /* \"#utility.yul\":12827:13018   */\n      swap3\n      swap2\n      pop\n      pop\n      jump\t// out\n        /* \"#utility.yul\":13024:13434   */\n    tag_195:\n        /* \"#utility.yul\":13064:13071   */\n      0x00\n        /* \"#utility.yul\":13087:13107   */\n      tag_631\n        /* \"#utility.yul\":13105:13106   */\n      dup3\n        /* \"#utility.yul\":13087:13107   */\n      tag_442\n      jump\t// in\n    tag_631:\n        /* \"#utility.yul\":13082:13107   */\n      swap2\n      pop\n        /* \"#utility.yul\":13121:13141   */\n      tag_632\n        /* \"#utility.yul\":13139:13140   */\n      dup4\n        /* \"#utility.yul\":13121:13141   */\n      tag_442\n      jump\t// in\n    tag_632:\n        /* \"#utility.yul\":13116:13141   */\n      swap3\n      pop\n        /* \"#utility.yul\":13176:13177   */\n      dup3\n        /* \"#utility.yul\":13173:13174   */\n      dup3\n        /* \"#utility.yul\":13169:13178   */\n      mul\n        /* \"#utility.yul\":13198:13228   */\n      tag_633\n        /* \"#utility.yul\":13216:13227   */\n      dup2\n        /* \"#utility.yul\":13198:13228   */\n      tag_442\n      jump\t// in\n    tag_633:\n        /* \"#utility.yul\":13187:13228   */\n      swap2\n      pop\n        /* \"#utility.yul\":13377:13378   */\n      dup3\n        /* \"#utility.yul\":13368:13375   */\n      dup3\n        /* \"#utility.yul\":13364:13379   */\n      div\n        /* \"#utility.yul\":13361:13362   */\n      dup5\n        /* \"#utility.yul\":13358:13380   */\n      eq\n        /* \"#utility.yul\":13338:13339   */\n      dup4\n        /* \"#utility.yul\":13331:13340   */\n      iszero\n        /* \"#utility.yul\":13311:13394   */\n      or\n        /* \"#utility.yul\":13288:13427   */\n      tag_634\n      jumpi\n        /* \"#utility.yul\":13407:13425   */\n      tag_635\n      tag_459\n      jump\t// in\n    tag_635:\n        /* \"#utility.yul\":13288:13427   */\n    tag_634:\n        /* \"#utility.yul\":13072:13434   */\n      pop\n        /* \"#utility.yul\":13024:13434   */\n      swap3\n      swap2\n      pop\n      pop\n      jump\t// out\n        /* \"#utility.yul\":13440:13604   */\n    tag_469:\n        /* \"#utility.yul\":13580:13596   */\n      0x55736572206e6f7420666f756e64000000000000000000000000000000000000\n        /* \"#utility.yul\":13576:13577   */\n      0x00\n        /* \"#utility.yul\":13568:13574   */\n      dup3\n        /* \"#utility.yul\":13564:13578   */\n      add\n        /* \"#utility.yul\":13557:13597   */\n      mstore\n        /* \"#utility.yul\":13440:13604   */\n      pop\n      jump\t// out\n        /* \"#utility.yul\":13610:13976   */\n    tag_470:\n        /* \"#utility.yul\":13752:13755   */\n      0x00\n        /* \"#utility.yul\":13773:13840   */\n      tag_638\n        /* \"#utility.yul\":13837:13839   */\n      0x0e\n        /* \"#utility.yul\":13832:13835   */\n      dup4\n        /* \"#utility.yul\":13773:13840   */\n      tag_461\n      jump\t// in\n    tag_638:\n        /* \"#utility.yul\":13766:13840   */\n      swap2\n      pop\n        /* \"#utility.yul\":13849:13942   */\n      tag_639\n        /* \"#utility.yul\":13938:13941   */\n      dup3\n        /* \"#utility.yul\":13849:13942   */\n      tag_469\n      jump\t// in\n    tag_639:\n        /* \"#utility.yul\":13967:13969   */\n      0x20\n        /* \"#utility.yul\":13962:13965   */\n      dup3\n        /* \"#utility.yul\":13958:13970   */\n      add\n        /* \"#utility.yul\":13951:13970   */\n      swap1\n      pop\n        /* \"#utility.yul\":13610:13976   */\n      swap2\n      swap1\n      pop\n      jump\t// out\n        /* \"#utility.yul\":13982:14401   */\n    tag_231:\n        /* \"#utility.yul\":14148:14152   */\n      0x00\n        /* \"#utility.yul\":14186:14188   */\n      0x20\n        /* \"#utility.yul\":14175:14184   */\n      dup3\n        /* \"#utility.yul\":14171:14189   */\n      add\n        /* \"#utility.yul\":14163:14189   */\n      swap1\n      pop\n        /* \"#utility.yul\":14235:14244   */\n      dup2\n        /* \"#utility.yul\":14229:14233   */\n      dup2\n        /* \"#utility.yul\":14225:14245   */\n      sub\n        /* \"#utility.yul\":14221:14222   */\n      0x00\n        /* \"#utility.yul\":14210:14219   */\n      dup4\n        /* \"#utility.yul\":14206:14223   */\n      add\n        /* \"#utility.yul\":14199:14246   */\n      mstore\n        /* \"#utility.yul\":14263:14394   */\n      tag_641\n        /* \"#utility.yul\":14389:14393   */\n      dup2\n        /* \"#utility.yul\":14263:14394   */\n      tag_470\n      jump\t// in\n    tag_641:\n        /* \"#utility.yul\":14255:14394   */\n      swap1\n      pop\n        /* \"#utility.yul\":13982:14401   */\n      swap2\n      swap1\n      pop\n      jump\t// out\n        /* \"#utility.yul\":14407:14739   */\n    tag_244:\n        /* \"#utility.yul\":14528:14532   */\n      0x00\n        /* \"#utility.yul\":14566:14568   */\n      0x40\n        /* \"#utility.yul\":14555:14564   */\n      dup3\n        /* \"#utility.yul\":14551:14569   */\n      add\n        /* \"#utility.yul\":14543:14569   */\n      swap1\n      pop\n        /* \"#utility.yul\":14579:14650   */\n      tag_643\n        /* \"#utility.yul\":14647:14648   */\n      0x00\n        /* \"#utility.yul\":14636:14645   */\n      dup4\n        /* \"#utility.yul\":14632:14649   */\n      add\n        /* \"#utility.yul\":14623:14629   */\n      dup6\n        /* \"#utility.yul\":14579:14650   */\n      tag_456\n      jump\t// in\n    tag_643:\n        /* \"#utility.yul\":14660:14732   */\n      tag_644\n        /* \"#utility.yul\":14728:14730   */\n      0x20\n        /* \"#utility.yul\":14717:14726   */\n      dup4\n        /* \"#utility.yul\":14713:14731   */\n      add\n        /* \"#utility.yul\":14704:14710   */\n      dup5\n        /* \"#utility.yul\":14660:14732   */\n      tag_443\n      jump\t// in\n    tag_644:\n        /* \"#utility.yul\":14407:14739   */\n      swap4\n      swap3\n      pop\n      pop\n      pop\n      jump\t// out\n        /* \"#utility.yul\":14745:14915   */\n    tag_471:\n        /* \"#utility.yul\":14885:14907   */\n      0x55534454207472616e73666572206661696c6564000000000000000000000000\n        /* \"#utility.yul\":14881:14882   */\n      0x00\n        /* \"#utility.yul\":14873:14879   */\n      dup3\n        /* \"#utility.yul\":14869:14883   */\n      add\n        /* \"#utility.yul\":14862:14908   */\n      mstore\n        /* \"#utility.yul\":14745:14915   */\n      pop\n      jump\t// out\n        /* \"#utility.yul\":14921:15287   */\n    tag_472:\n        /* \"#utility.yul\":15063:15066   */\n      0x00\n        /* \"#utility.yul\":15084:15151   */\n      tag_647\n        /* \"#utility.yul\":15148:15150   */\n      0x14\n        /* \"#utility.yul\":15143:15146   */\n      dup4\n        /* \"#utility.yul\":15084:15151   */\n      tag_461\n      jump\t// in\n    tag_647:\n        /* \"#utility.yul\":15077:15151   */\n      swap2\n      pop\n        /* \"#utility.yul\":15160:15253   */\n      tag_648\n        /* \"#utility.yul\":15249:15252   */\n      dup3\n        /* \"#utility.yul\":15160:15253   */\n      tag_471\n      jump\t// in\n    tag_648:\n        /* \"#utility.yul\":15278:15280   */\n      0x20\n        /* \"#utility.yul\":15273:15276   */\n      dup3\n        /* \"#utility.yul\":15269:15281   */\n      add\n        /* \"#utility.yul\":15262:15281   */\n      swap1\n      pop\n        /* \"#utility.yul\":14921:15287   */\n      swap2\n      swap1\n      pop\n      jump\t// out\n        /* \"#utility.yul\":15293:15712   */\n    tag_250:\n        /* \"#utility.yul\":15459:15463   */\n      0x00\n        /* \"#utility.yul\":15497:15499   */\n      0x20\n        /* \"#utility.yul\":15486:15495   */\n      dup3\n        /* \"#utility.yul\":15482:15500   */\n      add\n        /* \"#utility.yul\":15474:15500   */\n      swap1\n      pop\n        /* \"#utility.yul\":15546:15555   */\n      dup2\n        /* \"#utility.yul\":15540:15544   */\n      dup2\n        /* \"#utility.yul\":15536:15556   */\n      sub\n        /* \"#utility.yul\":15532:15533   */\n      0x00\n        /* \"#utility.yul\":15521:15530   */\n      dup4\n        /* \"#utility.yul\":15517:15534   */\n      add\n        /* \"#utility.yul\":15510:15557   */\n      mstore\n        /* \"#utility.yul\":15574:15705   */\n      tag_650\n        /* \"#utility.yul\":15700:15704   */\n      dup2\n        /* \"#utility.yul\":15574:15705   */\n      tag_472\n      jump\t// in\n    tag_650:\n        /* \"#utility.yul\":15566:15705   */\n      swap1\n      pop\n        /* \"#utility.yul\":15293:15712   */\n      swap2\n      swap1\n      pop\n      jump\t// out\n        /* \"#utility.yul\":15718:15886   */\n    tag_473:\n        /* \"#utility.yul\":15858:15878   */\n      0x416c726561647920726567697374657265640000000000000000000000000000\n        /* \"#utility.yul\":15854:15855   */\n      0x00\n        /* \"#utility.yul\":15846:15852   */\n      dup3\n        /* \"#utility.yul\":15842:15856   */\n      add\n        /* \"#utility.yul\":15835:15879   */\n      mstore\n        /* \"#utility.yul\":15718:15886   */\n      pop\n      jump\t// out\n        /* \"#utility.yul\":15892:16258   */\n    tag_474:\n        /* \"#utility.yul\":16034:16037   */\n      0x00\n        /* \"#utility.yul\":16055:16122   */\n      tag_653\n        /* \"#utility.yul\":16119:16121   */\n      0x12\n        /* \"#utility.yul\":16114:16117   */\n      dup4\n        /* \"#utility.yul\":16055:16122   */\n      tag_461\n      jump\t// in\n    tag_653:\n        /* \"#utility.yul\":16048:16122   */\n      swap2\n      pop\n        /* \"#utility.yul\":16131:16224   */\n      tag_654\n        /* \"#utility.yul\":16220:16223   */\n      dup3\n        /* \"#utility.yul\":16131:16224   */\n      tag_473\n      jump\t// in\n    tag_654:\n        /* \"#utility.yul\":16249:16251   */\n      0x20\n        /* \"#utility.yul\":16244:16247   */\n      dup3\n        /* \"#utility.yul\":16240:16252   */\n      add\n        /* \"#utility.yul\":16233:16252   */\n      swap1\n      pop\n        /* \"#utility.yul\":15892:16258   */\n      swap2\n      swap1\n      pop\n      jump\t// out\n        /* \"#utility.yul\":16264:16683   */\n    tag_257:\n        /* \"#utility.yul\":16430:16434   */\n      0x00\n        /* \"#utility.yul\":16468:16470   */\n      0x20\n        /* \"#utility.yul\":16457:16466   */\n      dup3\n        /* \"#utility.yul\":16453:16471   */\n      add\n        /* \"#utility.yul\":16445:16471   */\n      swap1\n      pop\n        /* \"#utility.yul\":16517:16526   */\n      dup2\n        /* \"#utility.yul\":16511:16515   */\n      dup2\n        /* \"#utility.yul\":16507:16527   */\n      sub\n        /* \"#utility.yul\":16503:16504   */\n      0x00\n        /* \"#utility.yul\":16492:16501   */\n      dup4\n        /* \"#utility.yul\":16488:16505   */\n      add\n        /* \"#utility.yul\":16481:16528   */\n      mstore\n        /* \"#utility.yul\":16545:16676   */\n      tag_656\n        /* \"#utility.yul\":16671:16675   */\n      dup2\n        /* \"#utility.yul\":16545:16676   */\n      tag_474\n      jump\t// in\n    tag_656:\n        /* \"#utility.yul\":16537:16676   */\n      swap1\n      pop\n        /* \"#utility.yul\":16264:16683   */\n      swap2\n      swap1\n      pop\n      jump\t// out\n        /* \"#utility.yul\":16689:16854   */\n    tag_475:\n        /* \"#utility.yul\":16829:16846   */\n      0x496e76616c69642073706f6e736f720000000000000000000000000000000000\n        /* \"#utility.yul\":16825:16826   */\n      0x00\n        /* \"#utility.yul\":16817:16823   */\n      dup3\n        /* \"#utility.yul\":16813:16827   */\n      add\n        /* \"#utility.yul\":16806:16847   */\n      mstore\n        /* \"#utility.yul\":16689:16854   */\n      pop\n      jump\t// out\n        /* \"#utility.yul\":16860:17226   */\n    tag_476:\n        /* \"#utility.yul\":17002:17005   */\n      0x00\n        /* \"#utility.yul\":17023:17090   */\n      tag_659\n        /* \"#utility.yul\":17087:17089   */\n      0x0f\n        /* \"#utility.yul\":17082:17085   */\n      dup4\n        /* \"#utility.yul\":17023:17090   */\n      tag_461\n      jump\t// in\n    tag_659:\n        /* \"#utility.yul\":17016:17090   */\n      swap2\n      pop\n        /* \"#utility.yul\":17099:17192   */\n      tag_660\n        /* \"#utility.yul\":17188:17191   */\n      dup3\n        /* \"#utility.yul\":17099:17192   */\n      tag_475\n      jump\t// in\n    tag_660:\n        /* \"#utility.yul\":17217:17219   */\n      0x20\n        /* \"#utility.yul\":17212:17215   */\n      dup3\n        /* \"#utility.yul\":17208:17220   */\n      add\n        /* \"#utility.yul\":17201:17220   */\n      swap1\n      pop\n        /* \"#utility.yul\":16860:17226   */\n      swap2\n      swap1\n      pop\n      jump\t// out\n        /* \"#utility.yul\":17232:17651   */\n    tag_260:\n        /* \"#utility.yul\":17398:17402   */\n      0x00\n        /* \"#utility.yul\":17436:17438   */\n      0x20\n        /* \"#utility.yul\":17425:17434   */\n      dup3\n        /* \"#utility.yul\":17421:17439   */\n      add\n        /* \"#utility.yul\":17413:17439   */\n      swap1\n      pop\n        /* \"#utility.yul\":17485:17494   */\n      dup2\n        /* \"#utility.yul\":17479:17483   */\n      dup2\n        /* \"#utility.yul\":17475:17495   */\n      sub\n        /* \"#utility.yul\":17471:17472   */\n      0x00\n        /* \"#utility.yul\":17460:17469   */\n      dup4\n        /* \"#utility.yul\":17456:17473   */\n      add\n        /* \"#utility.yul\":17449:17496   */\n      mstore\n        /* \"#utility.yul\":17513:17644   */\n      tag_662\n        /* \"#utility.yul\":17639:17643   */\n      dup2\n        /* \"#utility.yul\":17513:17644   */\n      tag_476\n      jump\t// in\n    tag_662:\n        /* \"#utility.yul\":17505:17644   */\n      swap1\n      pop\n        /* \"#utility.yul\":17232:17651   */\n      swap2\n      swap1\n      pop\n      jump\t// out\n        /* \"#utility.yul\":17657:17824   */\n    tag_477:\n        /* \"#utility.yul\":17797:17816   */\n      0x666565206164647273206e6f7420736574000000000000000000000000000000\n        /* \"#utility.yul\":17793:17794   */\n      0x00\n        /* \"#utility.yul\":17785:17791   */\n      dup3\n        /* \"#utility.yul\":17781:17795   */\n      add\n        /* \"#utility.yul\":17774:17817   */\n      mstore\n        /* \"#utility.yul\":17657:17824   */\n      pop\n      jump\t// out\n        /* \"#utility.yul\":17830:18196   */\n    tag_478:\n        /* \"#utility.yul\":17972:17975   */\n      0x00\n        /* \"#utility.yul\":17993:18060   */\n      tag_665\n        /* \"#utility.yul\":18057:18059   */\n      0x11\n        /* \"#utility.yul\":18052:18055   */\n      dup4\n        /* \"#utility.yul\":17993:18060   */\n      tag_461\n      jump\t// in\n    tag_665:\n        /* \"#utility.yul\":17986:18060   */\n      swap2\n      pop\n        /* \"#utility.yul\":18069:18162   */\n      tag_666\n        /* \"#utility.yul\":18158:18161   */\n      dup3\n        /* \"#utility.yul\":18069:18162   */\n      tag_477\n      jump\t// in\n    tag_666:\n        /* \"#utility.yul\":18187:18189   */\n      0x20\n        /* \"#utility.yul\":18182:18185   */\n      dup3\n        /* \"#utility.yul\":18178:18190   */\n      add\n        /* \"#utility.yul\":18171:18190   */\n      swap1\n      pop\n        /* \"#utility.yul\":17830:18196   */\n      swap2\n      swap1\n      pop\n      jump\t// out\n        /* \"#utility.yul\":18202:18621   */\n    tag_318:\n        /* \"#utility.yul\":18368:18372   */\n      0x00\n        /* \"#utility.yul\":18406:18408   */\n      0x20\n        /* \"#utility.yul\":18395:18404   */\n      dup3\n        /* \"#utility.yul\":18391:18409   */\n      add\n        /* \"#utility.yul\":18383:18409   */\n      swap1\n      pop\n        /* \"#utility.yul\":18455:18464   */\n      dup2\n        /* \"#utility.yul\":18449:18453   */\n      dup2\n        /* \"#utility.yul\":18445:18465   */\n      sub\n        /* \"#utility.yul\":18441:18442   */\n      0x00\n        /* \"#utility.yul\":18430:18439   */\n      dup4\n        /* \"#utility.yul\":18426:18443   */\n      add\n        /* \"#utility.yul\":18419:18466   */\n      mstore\n        /* \"#utility.yul\":18483:18614   */\n      tag_668\n        /* \"#utility.yul\":18609:18613   */\n      dup2\n        /* \"#utility.yul\":18483:18614   */\n      tag_478\n      jump\t// in\n    tag_668:\n        /* \"#utility.yul\":18475:18614   */\n      swap1\n      pop\n        /* \"#utility.yul\":18202:18621   */\n      swap2\n      swap1\n      pop\n      jump\t// out\n        /* \"#utility.yul\":18627:18712   */\n    tag_479:\n        /* \"#utility.yul\":18672:18679   */\n      0x00\n        /* \"#utility.yul\":18701:18706   */\n      dup2\n        /* \"#utility.yul\":18690:18706   */\n      swap1\n      pop\n        /* \"#utility.yul\":18627:18712   */\n      swap2\n      swap1\n      pop\n      jump\t// out\n        /* \"#utility.yul\":18718:18876   */\n    tag_480:\n        /* \"#utility.yul\":18776:18785   */\n      0x00\n        /* \"#utility.yul\":18809:18870   */\n      tag_671\n        /* \"#utility.yul\":18827:18869   */\n      tag_672\n        /* \"#utility.yul\":18836:18868   */\n      tag_673\n        /* \"#utility.yul\":18862:18867   */\n      dup5\n        /* \"#utility.yul\":18836:18868   */\n      tag_479\n      jump\t// in\n    tag_673:\n        /* \"#utility.yul\":18827:18869   */\n      tag_450\n      jump\t// in\n    tag_672:\n        /* \"#utility.yul\":18809:18870   */\n      tag_442\n      jump\t// in\n    tag_671:\n        /* \"#utility.yul\":18796:18870   */\n      swap1\n      pop\n        /* \"#utility.yul\":18718:18876   */\n      swap2\n      swap1\n      pop\n      jump\t// out\n        /* \"#utility.yul\":18882:19029   */\n    tag_481:\n        /* \"#utility.yul\":18977:19022   */\n      tag_675\n        /* \"#utility.yul\":19016:19021   */\n      dup2\n        /* \"#utility.yul\":18977:19022   */\n      tag_480\n      jump\t// in\n    tag_675:\n        /* \"#utility.yul\":18972:18975   */\n      dup3\n        /* \"#utility.yul\":18965:19023   */\n      mstore\n        /* \"#utility.yul\":18882:19029   */\n      pop\n      pop\n      jump\t// out\n        /* \"#utility.yul\":19035:19493   */\n    tag_344:\n        /* \"#utility.yul\":19192:19196   */\n      0x00\n        /* \"#utility.yul\":19230:19232   */\n      0x60\n        /* \"#utility.yul\":19219:19228   */\n      dup3\n        /* \"#utility.yul\":19215:19233   */\n      add\n        /* \"#utility.yul\":19207:19233   */\n      swap1\n      pop\n        /* \"#utility.yul\":19243:19314   */\n      tag_677\n        /* \"#utility.yul\":19311:19312   */\n      0x00\n        /* \"#utility.yul\":19300:19309   */\n      dup4\n        /* \"#utility.yul\":19296:19313   */\n      add\n        /* \"#utility.yul\":19287:19293   */\n      dup7\n        /* \"#utility.yul\":19243:19314   */\n      tag_443\n      jump\t// in\n    tag_677:\n        /* \"#utility.yul\":19324:19396   */\n      tag_678\n        /* \"#utility.yul\":19392:19394   */\n      0x20\n        /* \"#utility.yul\":19381:19390   */\n      dup4\n        /* \"#utility.yul\":19377:19395   */\n      add\n        /* \"#utility.yul\":19368:19374   */\n      dup6\n        /* \"#utility.yul\":19324:19396   */\n      tag_443\n      jump\t// in\n    tag_678:\n        /* \"#utility.yul\":19406:19486   */\n      tag_679\n        /* \"#utility.yul\":19482:19484   */\n      0x40\n        /* \"#utility.yul\":19471:19480   */\n      dup4\n        /* \"#utility.yul\":19467:19485   */\n      add\n        /* \"#utility.yul\":19458:19464   */\n      dup5\n        /* \"#utility.yul\":19406:19486   */\n      tag_481\n      jump\t// in\n    tag_679:\n        /* \"#utility.yul\":19035:19493   */\n      swap5\n      swap4\n      pop\n      pop\n      pop\n      pop\n      jump\t// out\n        /* \"#utility.yul\":19499:19732   */\n    tag_352:\n        /* \"#utility.yul\":19538:19541   */\n      0x00\n        /* \"#utility.yul\":19561:19585   */\n      tag_681\n        /* \"#utility.yul\":19579:19584   */\n      dup3\n        /* \"#utility.yul\":19561:19585   */\n      tag_442\n      jump\t// in\n    tag_681:\n        /* \"#utility.yul\":19552:19585   */\n      swap2\n      pop\n        /* \"#utility.yul\":19607:19673   */\n      0xffffffffffffffffffffffffffffffffffffffffffffffffffffffffffffffff\n        /* \"#utility.yul\":19600:19605   */\n      dup3\n        /* \"#utility.yul\":19597:19674   */\n      sub\n        /* \"#utility.yul\":19594:19697   */\n      tag_682\n      jumpi\n        /* \"#utility.yul\":19677:19695   */\n      tag_683\n      tag_459\n      jump\t// in\n    tag_683:\n        /* \"#utility.yul\":19594:19697   */\n    tag_682:\n        /* \"#utility.yul\":19724:19725   */\n      0x01\n        /* \"#utility.yul\":19717:19722   */\n      dup3\n        /* \"#utility.yul\":19713:19726   */\n      add\n        /* \"#utility.yul\":19706:19726   */\n      swap1\n      pop\n        /* \"#utility.yul\":19499:19732   */\n      swap2\n      swap1\n      pop\n      jump\t// out\n        /* \"#utility.yul\":19738:19823   */\n    tag_482:\n        /* \"#utility.yul\":19783:19790   */\n      0x00\n        /* \"#utility.yul\":19812:19817   */\n      dup2\n        /* \"#utility.yul\":19801:19817   */\n      swap1\n      pop\n        /* \"#utility.yul\":19738:19823   */\n      swap2\n      swap1\n      pop\n      jump\t// out\n        /* \"#utility.yul\":19829:19987   */\n    tag_483:\n        /* \"#utility.yul\":19887:19896   */\n      0x00\n        /* \"#utility.yul\":19920:19981   */\n      tag_686\n        /* \"#utility.yul\":19938:19980   */\n      tag_687\n        /* \"#utility.yul\":19947:19979   */\n      tag_688\n        /* \"#utility.yul\":19973:19978   */\n      dup5\n        /* \"#utility.yul\":19947:19979   */\n      tag_482\n      jump\t// in\n    tag_688:\n        /* \"#utility.yul\":19938:19980   */\n      tag_450\n      jump\t// in\n    tag_687:\n        /* \"#utility.yul\":19920:19981   */\n      tag_442\n      jump\t// in\n    tag_686:\n        /* \"#utility.yul\":19907:19981   */\n      swap1\n      pop\n        /* \"#utility.yul\":19829:19987   */\n      swap2\n      swap1\n      pop\n      jump\t// out\n        /* \"#utility.yul\":19993:20140   */\n    tag_484:\n        /* \"#utility.yul\":20088:20133   */\n      tag_690\n        /* \"#utility.yul\":20127:20132   */\n      dup2\n        /* \"#utility.yul\":20088:20133   */\n      tag_483\n      jump\t// in\n    tag_690:\n        /* \"#utility.yul\":20083:20086   */\n      dup3\n        /* \"#utility.yul\":20076:20134   */\n      mstore\n        /* \"#utility.yul\":19993:20140   */\n      pop\n      pop\n      jump\t// out\n        /* \"#utility.yul\":20146:20604   */\n    tag_369:\n        /* \"#utility.yul\":20303:20307   */\n      0x00\n        /* \"#utility.yul\":20341:20343   */\n      0x60\n        /* \"#utility.yul\":20330:20339   */\n      dup3\n        /* \"#utility.yul\":20326:20344   */\n      add\n        /* \"#utility.yul\":20318:20344   */\n      swap1\n      pop\n        /* \"#utility.yul\":20354:20425   */\n      tag_692\n        /* \"#utility.yul\":20422:20423   */\n      0x00\n        /* \"#utility.yul\":20411:20420   */\n      dup4\n        /* \"#utility.yul\":20407:20424   */\n      add\n        /* \"#utility.yul\":20398:20404   */\n      dup7\n        /* \"#utility.yul\":20354:20425   */\n      tag_443\n      jump\t// in\n    tag_692:\n        /* \"#utility.yul\":20435:20507   */\n      tag_693\n        /* \"#utility.yul\":20503:20505   */\n      0x20\n        /* \"#utility.yul\":20492:20501   */\n      dup4\n        /* \"#utility.yul\":20488:20506   */\n      add\n        /* \"#utility.yul\":20479:20485   */\n      dup6\n        /* \"#utility.yul\":20435:20507   */\n      tag_443\n      jump\t// in\n    tag_693:\n        /* \"#utility.yul\":20517:20597   */\n      tag_694\n        /* \"#utility.yul\":20593:20595   */\n      0x40\n        /* \"#utility.yul\":20582:20591   */\n      dup4\n        /* \"#utility.yul\":20578:20596   */\n      add\n        /* \"#utility.yul\":20569:20575   */\n      dup5\n        /* \"#utility.yul\":20517:20597   */\n      tag_484\n      jump\t// in\n    tag_694:\n        /* \"#utility.yul\":20146:20604   */\n      swap5\n      swap4\n      pop\n      pop\n      pop\n      pop\n      jump\t// out\n        /* \"#utility.yul\":20610:20712   */\n    tag_485:\n        /* \"#utility.yul\":20652:20660   */\n      0x00\n        /* \"#utility.yul\":20699:20704   */\n      dup2\n        /* \"#utility.yul\":20696:20697   */\n      0x01\n        /* \"#utility.yul\":20692:20705   */\n      shr\n        /* \"#utility.yul\":20671:20705   */\n      swap1\n      pop\n        /* \"#utility.yul\":20610:20712   */\n      swap2\n      swap1\n      pop\n      jump\t// out\n        /* \"#utility.yul\":20718:21566   */\n    tag_486:\n        /* \"#utility.yul\":20779:20784   */\n      0x00\n        /* \"#utility.yul\":20786:20790   */\n      dup1\n        /* \"#utility.yul\":20810:20816   */\n      dup3\n        /* \"#utility.yul\":20801:20816   */\n      swap2\n      pop\n        /* \"#utility.yul\":20834:20839   */\n      dup4\n        /* \"#utility.yul\":20825:20839   */\n      swap1\n      pop\n        /* \"#utility.yul\":20848:21560   */\n    tag_697:\n        /* \"#utility.yul\":20869:20870   */\n      0x01\n        /* \"#utility.yul\":20859:20867   */\n      dup6\n        /* \"#utility.yul\":20856:20871   */\n      gt\n        /* \"#utility.yul\":20848:21560   */\n      iszero\n      tag_699\n      jumpi\n        /* \"#utility.yul\":20964:20968   */\n      dup1\n        /* \"#utility.yul\":20959:20962   */\n      dup7\n        /* \"#utility.yul\":20955:20969   */\n      div\n        /* \"#utility.yul\":20949:20953   */\n      dup2\n        /* \"#utility.yul\":20946:20970   */\n      gt\n        /* \"#utility.yul\":20943:20993   */\n      iszero\n      tag_700\n      jumpi\n        /* \"#utility.yul\":20973:20991   */\n      tag_701\n      tag_459\n      jump\t// in\n    tag_701:\n        /* \"#utility.yul\":20943:20993   */\n    tag_700:\n        /* \"#utility.yul\":21023:21024   */\n      0x01\n        /* \"#utility.yul\":21013:21021   */\n      dup6\n        /* \"#utility.yul\":21009:21025   */\n      and\n        /* \"#utility.yul\":21006:21457   */\n      iszero\n      tag_702\n      jumpi\n        /* \"#utility.yul\":21438:21442   */\n      dup1\n        /* \"#utility.yul\":21431:21436   */\n      dup3\n        /* \"#utility.yul\":21427:21443   */\n      mul\n        /* \"#utility.yul\":21418:21443   */\n      swap2\n      pop\n        /* \"#utility.yul\":21006:21457   */\n    tag_702:\n        /* \"#utility.yul\":21488:21492   */\n      dup1\n        /* \"#utility.yul\":21482:21486   */\n      dup2\n        /* \"#utility.yul\":21478:21493   */\n      mul\n        /* \"#utility.yul\":21470:21493   */\n      swap1\n      pop\n        /* \"#utility.yul\":21518:21550   */\n      tag_703\n        /* \"#utility.yul\":21541:21549   */\n      dup6\n        /* \"#utility.yul\":21518:21550   */\n      tag_485\n      jump\t// in\n    tag_703:\n        /* \"#utility.yul\":21506:21550   */\n      swap5\n      pop\n        /* \"#utility.yul\":20848:21560   */\n      jump(tag_697)\n    tag_699:\n        /* \"#utility.yul\":20718:21566   */\n      swap5\n      pop\n      swap5\n      swap3\n      pop\n      pop\n      pop\n      jump\t// out\n        /* \"#utility.yul\":21572:22645   */\n    tag_487:\n        /* \"#utility.yul\":21626:21631   */\n      0x00\n        /* \"#utility.yul\":21817:21825   */\n      dup3\n        /* \"#utility.yul\":21807:21847   */\n      tag_705\n      jumpi\n        /* \"#utility.yul\":21838:21839   */\n      0x01\n        /* \"#utility.yul\":21829:21839   */\n      swap1\n      pop\n        /* \"#utility.yul\":21840:21845   */\n      jump(tag_704)\n        /* \"#utility.yul\":21807:21847   */\n    tag_705:\n        /* \"#utility.yul\":21866:21870   */\n      dup2\n        /* \"#utility.yul\":21856:21892   */\n      tag_706\n      jumpi\n        /* \"#utility.yul\":21883:21884   */\n      0x00\n        /* \"#utility.yul\":21874:21884   */\n      swap1\n      pop\n        /* \"#utility.yul\":21885:21890   */\n      jump(tag_704)\n        /* \"#utility.yul\":21856:21892   */\n    tag_706:\n        /* \"#utility.yul\":21952:21956   */\n      dup2\n        /* \"#utility.yul\":22000:22001   */\n      0x01\n        /* \"#utility.yul\":21995:22022   */\n      dup2\n      eq\n      tag_708\n      jumpi\n        /* \"#utility.yul\":22036:22037   */\n      0x02\n        /* \"#utility.yul\":22031:22222   */\n      dup2\n      eq\n      tag_709\n      jumpi\n        /* \"#utility.yul\":21945:22222   */\n      jump(tag_707)\n        /* \"#utility.yul\":21995:22022   */\n    tag_708:\n        /* \"#utility.yul\":22013:22014   */\n      0x01\n        /* \"#utility.yul\":22004:22014   */\n      swap2\n      pop\n        /* \"#utility.yul\":22015:22020   */\n      pop\n      jump(tag_704)\n        /* \"#utility.yul\":22031:22222   */\n    tag_709:\n        /* \"#utility.yul\":22076:22079   */\n      0xff\n        /* \"#utility.yul\":22066:22074   */\n      dup5\n        /* \"#utility.yul\":22063:22080   */\n      gt\n        /* \"#utility.yul\":22060:22103   */\n      iszero\n      tag_710\n      jumpi\n        /* \"#utility.yul\":22083:22101   */\n      tag_711\n      tag_459\n      jump\t// in\n    tag_711:\n        /* \"#utility.yul\":22060:22103   */\n    tag_710:\n        /* \"#utility.yul\":22132:22140   */\n      dup4\n        /* \"#utility.yul\":22129:22130   */\n      0x02\n        /* \"#utility.yul\":22125:22141   */\n      exp\n        /* \"#utility.yul\":22116:22141   */\n      swap2\n      pop\n        /* \"#utility.yul\":22167:22170   */\n      dup5\n        /* \"#utility.yul\":22160:22165   */\n      dup3\n        /* \"#utility.yul\":22157:22171   */\n      gt\n        /* \"#utility.yul\":22154:22194   */\n      iszero\n      tag_712\n      jumpi\n        /* \"#utility.yul\":22174:22192   */\n      tag_713\n      tag_459\n      jump\t// in\n    tag_713:\n        /* \"#utility.yul\":22154:22194   */\n    tag_712:\n        /* \"#utility.yul\":22207:22212   */\n      pop\n      jump(tag_704)\n        /* \"#utility.yul\":21945:22222   */\n    tag_707:\n      pop\n        /* \"#utility.yul\":22331:22333   */\n      0x20\n        /* \"#utility.yul\":22321:22329   */\n      dup4\n        /* \"#utility.yul\":22318:22334   */\n      lt\n        /* \"#utility.yul\":22312:22315   */\n      0x0133\n        /* \"#utility.yul\":22306:22310   */\n      dup4\n        /* \"#utility.yul\":22303:22316   */\n      lt\n        /* \"#utility.yul\":22299:22335   */\n      and\n        /* \"#utility.yul\":22281:22283   */\n      0x4e\n        /* \"#utility.yul\":22271:22279   */\n      dup5\n        /* \"#utility.yul\":22268:22284   */\n      lt\n        /* \"#utility.yul\":22263:22265   */\n      0x0b\n        /* \"#utility.yul\":22257:22261   */\n      dup5\n        /* \"#utility.yul\":22254:22266   */\n      lt\n        /* \"#utility.yul\":22250:22285   */\n      and\n        /* \"#utility.yul\":22234:22345   */\n      or\n        /* \"#utility.yul\":22231:22477   */\n      iszero\n      tag_714\n      jumpi\n        /* \"#utility.yul\":22387:22395   */\n      dup3\n        /* \"#utility.yul\":22381:22385   */\n      dup3\n        /* \"#utility.yul\":22377:22396   */\n      exp\n        /* \"#utility.yul\":22368:22396   */\n      swap1\n      pop\n        /* \"#utility.yul\":22422:22425   */\n      dup4\n        /* \"#utility.yul\":22415:22420   */\n      dup2\n        /* \"#utility.yul\":22412:22426   */\n      gt\n        /* \"#utility.yul\":22409:22449   */\n      iszero\n      tag_715\n      jumpi\n        /* \"#utility.yul\":22429:22447   */\n      tag_716\n      tag_459\n      jump\t// in\n    tag_716:\n        /* \"#utility.yul\":22409:22449   */\n    tag_715:\n        /* \"#utility.yul\":22462:22467   */\n      jump(tag_704)\n        /* \"#utility.yul\":22231:22477   */\n    tag_714:\n        /* \"#utility.yul\":22502:22544   */\n      tag_717\n        /* \"#utility.yul\":22540:22543   */\n      dup5\n        /* \"#utility.yul\":22530:22538   */\n      dup5\n        /* \"#utility.yul\":22524:22528   */\n      dup5\n        /* \"#utility.yul\":22521:22522   */\n      0x01\n        /* \"#utility.yul\":22502:22544   */\n      tag_486\n      jump\t// in\n    tag_717:\n        /* \"#utility.yul\":22487:22544   */\n      swap3\n      pop\n      swap1\n      pop\n        /* \"#utility.yul\":22576:22580   */\n      dup2\n        /* \"#utility.yul\":22571:22574   */\n      dup5\n        /* \"#utility.yul\":22567:22581   */\n      div\n        /* \"#utility.yul\":22560:22565   */\n      dup2\n        /* \"#utility.yul\":22557:22582   */\n      gt\n        /* \"#utility.yul\":22554:22605   */\n      iszero\n      tag_718\n      jumpi\n        /* \"#utility.yul\":22585:22603   */\n      tag_719\n      tag_459\n      jump\t// in\n    tag_719:\n        /* \"#utility.yul\":22554:22605   */\n    tag_718:\n        /* \"#utility.yul\":22634:22638   */\n      dup2\n        /* \"#utility.yul\":22627:22632   */\n      dup2\n        /* \"#utility.yul\":22623:22639   */\n      mul\n        /* \"#utility.yul\":22614:22639   */\n      swap1\n      pop\n        /* \"#utility.yul\":21572:22645   */\n    tag_704:\n      swap4\n      swap3\n      pop\n      pop\n      pop\n      jump\t// out\n        /* \"#utility.yul\":22651:22936   */\n    tag_411:\n        /* \"#utility.yul\":22711:22716   */\n      0x00\n        /* \"#utility.yul\":22735:22758   */\n      tag_721\n        /* \"#utility.yul\":22753:22757   */\n      dup3\n        /* \"#utility.yul\":22735:22758   */\n      tag_442\n      jump\t// in\n    tag_721:\n        /* \"#utility.yul\":22727:22758   */\n      swap2\n      pop\n        /* \"#utility.yul\":22779:22806   */\n      tag_722\n        /* \"#utility.yul\":22797:22805   */\n      dup4\n        /* \"#utility.yul\":22779:22806   */\n      tag_442\n      jump\t// in\n    tag_722:\n        /* \"#utility.yul\":22767:22806   */\n      swap3\n      pop\n        /* \"#utility.yul\":22825:22929   */\n      tag_723\n        /* \"#utility.yul\":22862:22928   */\n      0xffffffffffffffffffffffffffffffffffffffffffffffffffffffffffffffff\n        /* \"#utility.yul\":22852:22860   */\n      dup5\n        /* \"#utility.yul\":22846:22850   */\n      dup5\n        /* \"#utility.yul\":22825:22929   */\n      tag_487\n      jump\t// in\n    tag_723:\n        /* \"#utility.yul\":22816:22929   */\n      swap1\n      pop\n        /* \"#utility.yul\":22651:22936   */\n      swap3\n      swap2\n      pop\n      pop\n      jump\t// out\n        /* \"#utility.yul\":22942:23027   */\n    tag_488:\n        /* \"#utility.yul\":22987:22994   */\n      0x00\n        /* \"#utility.yul\":23016:23021   */\n      dup2\n        /* \"#utility.yul\":23005:23021   */\n      swap1\n      pop\n        /* \"#utility.yul\":22942:23027   */\n      swap2\n      swap1\n      pop\n      jump\t// out\n        /* \"#utility.yul\":23033:23191   */\n    tag_489:\n        /* \"#utility.yul\":23091:23100   */\n      0x00\n        /* \"#utility.yul\":23124:23185   */\n      tag_726\n        /* \"#utility.yul\":23142:23184   */\n      tag_727\n        /* \"#utility.yul\":23151:23183   */\n      tag_728\n        /* \"#utility.yul\":23177:23182   */\n      dup5\n        /* \"#utility.yul\":23151:23183   */\n      tag_488\n      jump\t// in\n    tag_728:\n        /* \"#utility.yul\":23142:23184   */\n      tag_450\n      jump\t// in\n    tag_727:\n        /* \"#utility.yul\":23124:23185   */\n      tag_442\n      jump\t// in\n    tag_726:\n        /* \"#utility.yul\":23111:23185   */\n      swap1\n      pop\n        /* \"#utility.yul\":23033:23191   */\n      swap2\n      swap1\n      pop\n      jump\t// out\n        /* \"#utility.yul\":23197:23344   */\n    tag_490:\n        /* \"#utility.yul\":23292:23337   */\n      tag_730\n        /* \"#utility.yul\":23331:23336   */\n      dup2\n        /* \"#utility.yul\":23292:23337   */\n      tag_489\n      jump\t// in\n    tag_730:\n        /* \"#utility.yul\":23287:23290   */\n      dup3\n        /* \"#utility.yul\":23280:23338   */\n      mstore\n        /* \"#utility.yul\":23197:23344   */\n      pop\n      pop\n      jump\t// out\n        /* \"#utility.yul\":23350:23808   */\n    tag_441:\n        /* \"#utility.yul\":23507:23511   */\n      0x00\n        /* \"#utility.yul\":23545:23547   */\n      0x60\n        /* \"#utility.yul\":23534:23543   */\n      dup3\n        /* \"#utility.yul\":23530:23548   */\n      add\n        /* \"#utility.yul\":23522:23548   */\n      swap1\n      pop\n        /* \"#utility.yul\":23558:23629   */\n      tag_732\n        /* \"#utility.yul\":23626:23627   */\n      0x00\n        /* \"#utility.yul\":23615:23624   */\n      dup4\n        /* \"#utility.yul\":23611:23628   */\n      add\n        /* \"#utility.yul\":23602:23608   */\n      dup7\n        /* \"#utility.yul\":23558:23629   */\n      tag_443\n      jump\t// in\n    tag_732:\n        /* \"#utility.yul\":23639:23711   */\n      tag_733\n        /* \"#utility.yul\":23707:23709   */\n      0x20\n        /* \"#utility.yul\":23696:23705   */\n      dup4\n        /* \"#utility.yul\":23692:23710   */\n      add\n        /* \"#utility.yul\":23683:23689   */\n      dup6\n        /* \"#utility.yul\":23639:23711   */\n      tag_443\n      jump\t// in\n    tag_733:\n        /* \"#utility.yul\":23721:23801   */\n      tag_734\n        /* \"#utility.yul\":23797:23799   */\n      0x40\n        /* \"#utility.yul\":23786:23795   */\n      dup4\n        /* \"#utility.yul\":23782:23800   */\n      add\n        /* \"#utility.yul\":23773:23779   */\n      dup5\n        /* \"#utility.yul\":23721:23801   */\n      tag_490\n      jump\t// in\n    tag_734:\n        /* \"#utility.yul\":23350:23808   */\n      swap5\n      swap4\n      pop\n      pop\n      pop\n      pop\n      jump\t// out\n\n    auxdata: 0xa26469706673582212204ec37a2babdfbcc5083ecef1c35eba419b47bab2893a6019cdf0ed131cfe47bf64736f6c63430008140033\n}\n",
				"bytecode": {
					"linkReferences": {},
					"object": "6080604052604051806101e0016040528067d02ab486cedc000069ffffffffffffffffffff16815260200168015af1d78b58c4000069ffffffffffffffffffff1681526020016802b5e3af16b188000069ffffffffffffffffffff16815260200168056bc75e2d6310000069ffffffffffffffffffff168152602001680ad78ebc5ac620000069ffffffffffffffffffff1681526020016815af1d78b58c40000069ffffffffffffffffffff168152602001682b5e3af16b1880000069ffffffffffffffffffff1681526020016856bc75e2d63100000069ffffffffffffffffffff16815260200168ad78ebc5ac6200000069ffffffffffffffffffff16815260200169015af1d78b58c400000069ffffffffffffffffffff1681526020016902b5e3af16b18800000069ffffffffffffffffffff16815260200169056bc75e2d631000000069ffffffffffffffffffff168152602001690ad78ebc5ac62000000069ffffffffffffffffffff1681526020016915af1d78b58c4000000069ffffffffffffffffffff168152602001692b5e3af16b188000000069ffffffffffffffffffff16815250600790600f620001ba92919062000425565b5062015180601555348015620001ce575f80fd5b506040516200394a3803806200394a8339818101604052810190620001f4919062000505565b835f806101000a81548173ffffffffffffffffffffffffffffffffffffffff021916908373ffffffffffffffffffffffffffffffffffffffff1602179055508260025f6101000a81548173ffffffffffffffffffffffffffffffffffffffff021916908373ffffffffffffffffffffffffffffffffffffffff1602179055508160035f6101000a81548173ffffffffffffffffffffffffffffffffffffffff021916908373ffffffffffffffffffffffffffffffffffffffff1602179055508060045f6101000a81548173ffffffffffffffffffffffffffffffffffffffff021916908373ffffffffffffffffffffffffffffffffffffffff1602179055506103e860058190555060016006819055505f60095f60055481526020019081526020015f20905083815f015f6101000a81548173ffffffffffffffffffffffffffffffffffffffff021916908373ffffffffffffffffffffffffffffffffffffffff1602179055506005548160030181905550600f81600601819055504281600a01819055505f805b600f811015620003cb57600781815481106200039d576200039c62000574565b5b905f5260205f20015482620003b39190620005d7565b91508080620003c29062000611565b9150506200037c565b5080826009018190555060055460085f8773ffffffffffffffffffffffffffffffffffffffff1673ffffffffffffffffffffffffffffffffffffffff1681526020019081526020015f20819055505050505050506200065d565b828054828255905f5260205f2090810192821562000470579160200282015b828111156200046f578251829069ffffffffffffffffffff1690559160200191906001019062000444565b5b5090506200047f919062000483565b5090565b5b808211156200049c575f815f90555060010162000484565b5090565b5f80fd5b5f73ffffffffffffffffffffffffffffffffffffffff82169050919050565b5f620004cf82620004a4565b9050919050565b620004e181620004c3565b8114620004ec575f80fd5b50565b5f81519050620004ff81620004d6565b92915050565b5f805f806080858703121562000520576200051f620004a0565b5b5f6200052f87828801620004ef565b94505060206200054287828801620004ef565b93505060406200055587828801620004ef565b92505060606200056887828801620004ef565b91505092959194509250565b7f4e487b71000000000000000000000000000000000000000000000000000000005f52603260045260245ffd5b5f819050919050565b7f4e487b71000000000000000000000000000000000000000000000000000000005f52601160045260245ffd5b5f620005e382620005a1565b9150620005f083620005a1565b92508282019050808211156200060b576200060a620005aa565b5b92915050565b5f6200061d82620005a1565b91507fffffffffffffffffffffffffffffffffffffffffffffffffffffffffffffffff8203620006525762000651620005aa565b5b600182019050919050565b6132df806200066b5f395ff3fe608060405234801561000f575f80fd5b50600436106101ee575f3560e01c80635ec64a441161010d578063bff1f9e1116100a0578063e9e34a161161006f578063e9e34a1614610628578063ec597e6f14610646578063f207564e14610664578063f5d74d9314610680576101ee565b8063bff1f9e11461058e578063c216212a146105ac578063cb0e0d7d146105dc578063d54d6ddb1461060c576101ee565b80637cdc65f2116100dc5780637cdc65f21461050457806381a0b8161461052257806388afbe3e146105405780638da5cb5b14610570576101ee565b80635ec64a441461044d57806370c8d7701461047d578063736fb514146104b157806378f6ad6d146104e6576101ee565b8063365b98b21161018557806346b9dece1161015457806346b9dece146103aa57806352a8c4c4146103e157806358c7d352146103ff5780635aabf7f11461041d576101ee565b8063365b98b214610307578063375b43b41461034057806339ab36031461035e57806345977d031461038e576101ee565b80632c831633116101c15780632c8316331461028f5780632f48ab7d146102ad57806332bc298c146102cb57806332fcd966146102e9576101ee565b806301be02b2146101f257806301c234a81461021057806318ab487f1461022e578063245130881461025e575b5f80fd5b6101fa61069e565b604051610207919061268f565b60405180910390f35b6102186106a4565b604051610225919061268f565b60405180910390f35b610248600480360381019061024391906126d6565b6106aa565b604051610255919061268f565b60405180910390f35b610278600480360381019061027391906126d6565b6106bf565b604051610286929190612701565b60405180910390f35b610297610755565b6040516102a4919061268f565b60405180910390f35b6102b561075b565b6040516102c291906127a2565b60405180910390f35b6102d361077e565b6040516102e0919061268f565b60405180910390f35b6102f1610785565b6040516102fe919061268f565b60405180910390f35b610321600480360381019061031c91906126d6565b610791565b6040516103379a999897969594939291906127db565b60405180910390f35b610348610800565b604051610355919061268f565b60405180910390f35b610378600480360381019061037391906126d6565b610805565b604051610385919061268f565b60405180910390f35b6103a860048036038101906103a391906126d6565b610825565b005b6103c460048036038101906103bf91906126d6565b610bc6565b6040516103d8989796959493929190612875565b60405180910390f35b6103e9610c0a565b6040516103f6919061268f565b60405180910390f35b610407610c10565b604051610414919061268f565b60405180910390f35b610437600480360381019061043291906128f1565b610c15565b604051610444919061268f565b60405180910390f35b61046760048036038101906104629190612941565b610c4b565b604051610474919061268f565b60405180910390f35b61049760048036038101906104929190612941565b610c76565b6040516104a895949392919061297f565b60405180910390f35b6104cb60048036038101906104c691906126d6565b610cc2565b6040516104dd969594939291906129d0565b60405180910390f35b6104ee610cfa565b6040516104fb919061268f565b60405180910390f35b61050c610d00565b6040516105199190612a2f565b60405180910390f35b61052a610d25565b6040516105379190612a2f565b60405180910390f35b61055a600480360381019061055591906126d6565b610d4a565b604051610567919061268f565b60405180910390f35b610578610d5f565b6040516105859190612a2f565b60405180910390f35b610596610d84565b6040516105a3919061268f565b60405180910390f35b6105c660048036038101906105c191906126d6565b610d8a565b6040516105d3919061268f565b60405180910390f35b6105f660048036038101906105f19190612a72565b610daa565b604051610603919061268f565b60405180910390f35b610626600480360381019061062191906126d6565b610dbf565b005b610630611142565b60405161063d9190612a2f565b60405180910390f35b61064e611167565b60405161065b919061268f565b60405180910390f35b61067e600480360381019061067991906126d6565b61116d565b005b6106886116b0565b6040516106959190612a2f565b60405180910390f35b60145481565b61271081565b6011602052805f5260405f205f915090505481565b5f805f60095f8581526020019081526020015f2060030154036106e7575f8091509150610750565b5f60105490505f60115f8681526020019081526020015f20549050808211610716575f80935093505050610750565b5f670de0b6b3a7640000828461072c9190612aca565b6107369190612b2a565b90505f61074387836116d5565b9050818195509550505050505b915091565b60125481565b5f8054906101000a900473ffffffffffffffffffffffffffffffffffffffff1681565b6201518081565b670de0b6b3a764000081565b6009602052805f5260405f205f91509050805f015f9054906101000a900473ffffffffffffffffffffffffffffffffffffffff169080600201549080600301549080600401549080600501549080600601549080600701549080600801549080600901549080600a015490508a565b601981565b60168181548110610814575f80fd5b905f5260205f20015f915090505481565b5f60095f8381526020019081526020015f2090503373ffffffffffffffffffffffffffffffffffffffff16815f015f9054906101000a900473ffffffffffffffffffffffffffffffffffffffff1673ffffffffffffffffffffffffffffffffffffffff16146108c9576040517f08c379a00000000000000000000000000000000000000000000000000000000081526004016108c090612bb4565b60405180910390fd5b600f816006015410610910576040517f08c379a000000000000000000000000000000000000000000000000000000000815260040161090790612c1c565b60405180910390fd5b5f816006015490505f6007828154811061092d5761092c612c3a565b5b905f5260205f20015490505f8054906101000a900473ffffffffffffffffffffffffffffffffffffffff1673ffffffffffffffffffffffffffffffffffffffff166323b872dd3330846040518463ffffffff1660e01b815260040161099493929190612c67565b6020604051808303815f875af11580156109b0573d5f803e3d5ffd5b505050506040513d601f19601f820116820180604052508101906109d49190612cd1565b506001836006015f8282546109e99190612cfc565b9250508190555080836009015f828254610a039190612cfc565b925050819055508260010160405180606001604052808381526020015f815260200142815250908060018154018082558091505060019003905f5260205f2090600302015f909190919091505f820151815f0155602082015181600101556040820151816002015550505f6064600583610a7d9190612d2f565b610a879190612b2a565b90505f6064602384610a999190612d2f565b610aa39190612b2a565b9050610aae8161177b565b610ab7826117e9565b5f6064600f85610ac79190612d2f565b610ad19190612b2a565b9050610aef86600401548883600189610aea9190612cfc565b611a37565b5f6064600f86610aff9190612d2f565b610b099190612b2a565b9050610b278760050154898360018a610b229190612cfc565b611cee565b5f6064600f87610b379190612d2f565b610b419190612b2a565b9050610b6088600501548a8360018b610b5a9190612cfc565b8b612049565b883373ffffffffffffffffffffffffffffffffffffffff167f13ea485b1d8135315e770779887880798ac429f039a7c5ca3ff5f6f99a95b58760018a610ba69190612cfc565b604051610bb3919061268f565b60405180910390a3505050505050505050565b600a602052805f5260405f205f91509050805f0154908060010154908060020154908060030154908060040154908060050154908060060154908060070154905088565b60155481565b600a81565b600c602052825f5260405f20602052815f5260405f208181548110610c38575f80fd5b905f5260205f20015f9250925050505481565b600e602052815f5260405f208181548110610c64575f80fd5b905f5260205f20015f91509150505481565b600b602052815f5260405f208181548110610c8f575f80fd5b905f5260205f2090600502015f9150915050805f0154908060010154908060020154908060030154908060040154905085565b600f602052805f5260405f205f91509050805f0154908060010154908060020154908060030154908060040154908060050154905086565b60105481565b60025f9054906101000a900473ffffffffffffffffffffffffffffffffffffffff1681565b60135f9054906101000a900473ffffffffffffffffffffffffffffffffffffffff1681565b600d602052805f5260405f205f915090505481565b60015f9054906101000a900473ffffffffffffffffffffffffffffffffffffffff1681565b60065481565b60078181548110610d99575f80fd5b905f5260205f20015f915090505481565b6008602052805f5260405f205f915090505481565b5f60095f8381526020019081526020015f2090505f816003015403610e19576040517f08c379a0000000000000000000000000000000000000000000000000000000008152600401610e1090612dba565b60405180910390fd5b3373ffffffffffffffffffffffffffffffffffffffff16815f015f9054906101000a900473ffffffffffffffffffffffffffffffffffffffff1673ffffffffffffffffffffffffffffffffffffffff1614610ea9576040517f08c379a0000000000000000000000000000000000000000000000000000000008152600401610ea090612bb4565b60405180910390fd5b5f60105490505f60115f8581526020019081526020015f20549050808203610ed35750505061113f565b5f670de0b6b3a76400008284610ee99190612aca565b610ef39190612b2a565b90505f8103610f1b578260115f8781526020019081526020015f20819055505050505061113f565b5f610f2686836116d5565b90508360115f8881526020019081526020015f20819055505f81111561111c575f600a5f8881526020019081526020015f20905081815f015f828254610f6c9190612cfc565b9250508190555081816007015f828254610f869190612cfc565b92505081905550600b5f8881526020019081526020015f206040518060a00160405280898152602001848152602001600181526020014281526020016009815250908060018154018082558091505060019003905f5260205f2090600502015f909190919091505f820151815f01556020820151816001015560408201518160020155606082015181600301556080820151816004015550505f8054906101000a900473ffffffffffffffffffffffffffffffffffffffff1673ffffffffffffffffffffffffffffffffffffffff1663a9059cbb875f015f9054906101000a900473ffffffffffffffffffffffffffffffffffffffff16846040518363ffffffff1660e01b815260040161109b929190612dd8565b6020604051808303815f875af11580156110b7573d5f803e3d5ffd5b505050506040513d601f19601f820116820180604052508101906110db9190612cd1565b61111a576040517f08c379a000000000000000000000000000000000000000000000000000000000815260040161111190612e49565b60405180910390fd5b505b808211156111395761113881836111339190612aca565b6117e9565b5b50505050505b50565b60035f9054906101000a900473ffffffffffffffffffffffffffffffffffffffff1681565b60055481565b5f60085f3373ffffffffffffffffffffffffffffffffffffffff1673ffffffffffffffffffffffffffffffffffffffff1681526020019081526020015f2054146111ec576040517f08c379a00000000000000000000000000000000000000000000000000000000081526004016111e390612eb1565b60405180910390fd5b5f60095f8381526020019081526020015f206003015411611242576040517f08c379a000000000000000000000000000000000000000000000000000000000815260040161123990612f19565b60405180910390fd5b5f8054906101000a900473ffffffffffffffffffffffffffffffffffffffff1673ffffffffffffffffffffffffffffffffffffffff166323b872dd333060075f8154811061129357611292612c3a565b5b905f5260205f2001546040518463ffffffff1660e01b81526004016112ba93929190612c67565b6020604051808303815f875af11580156112d6573d5f803e3d5ffd5b505050506040513d601f19601f820116820180604052508101906112fa9190612cd1565b505f600560065461130b9190612d2f565b6005546113189190612cfc565b90508060085f3373ffffffffffffffffffffffffffffffffffffffff1673ffffffffffffffffffffffffffffffffffffffff1681526020019081526020015f20819055505f60095f8381526020019081526020015f20905033815f015f6101000a81548173ffffffffffffffffffffffffffffffffffffffff021916908373ffffffffffffffffffffffffffffffffffffffff1602179055504281600201819055508181600301819055508281600401819055506001816006018190555060075f815481106113ea576113e9612c3a565b5b905f5260205f20015481600901819055504281600a0181905550600160095f8581526020019081526020015f206007015f8282546114289190612cfc565b92505081905550600e5f8481526020019081526020015f2082908060018154018082558091505060019003905f5260205f20015f9091909190915055601682908060018154018082558091505060019003905f5260205f20015f909190919091505560105460115f8481526020019081526020015f20819055506114ac82846121b5565b80600101604051806060016040528060075f815481106114cf576114ce612c3a565b5b905f5260205f20015481526020015f815260200142815250908060018154018082558091505060019003905f5260205f2090600302015f909190919091505f820151815f0155602082015181600101556040820151816002015550505f60075f815481106115405761153f612c3a565b5b905f5260205f20015490505f6064600a8361155b9190612d2f565b6115659190612b2a565b90505f60646023846115779190612d2f565b6115819190612b2a565b905060646005846115929190612d2f565b61159c9190612b2a565b60125f8282546115ac9190612cfc565b925050819055505f60646032856115c39190612d2f565b6115cd9190612b2a565b90506115d88161177b565b6115e1836117e9565b6115f2856004015487846001611a37565b600160065f8282546116049190612cfc565b925050819055508560095f8981526020019081526020015f205f015f9054906101000a900473ffffffffffffffffffffffffffffffffffffffff1673ffffffffffffffffffffffffffffffffffffffff163373ffffffffffffffffffffffffffffffffffffffff167f309bb360e8b69c23937ccc5fb01f9aeeead1c95a99604e175113ff82f2b1723a886005015460405161169f919061268f565b60405180910390a450505050505050565b60045f9054906101000a900473ffffffffffffffffffffffffffffffffffffffff1681565b5f8060095f8581526020019081526020015f2090505f600a5f8681526020019081526020015f209050600780549050826006015403611718578392505050611775565b5f600a6019846009015461172c9190612d2f565b6117369190612b2a565b905080825f01541061174d575f9350505050611775565b5f825f01548261175d9190612aca565b905080861161176c578561176e565b805b9450505050505b92915050565b5f60168054905090505f81148061179157505f82145b156117ae575f8211156117a8576117a7826117e9565b5b506117e6565b80670de0b6b3a7640000836117c39190612d2f565b6117cd9190612b2a565b60105f8282546117dd9190612cfc565b92505081905550505b50565b5f73ffffffffffffffffffffffffffffffffffffffff1660025f9054906101000a900473ffffffffffffffffffffffffffffffffffffffff1673ffffffffffffffffffffffffffffffffffffffff1603611878576040517f08c379a000000000000000000000000000000000000000000000000000000000815260040161186f90612f81565b60405180910390fd5b5f60646032836118889190612d2f565b6118929190612b2a565b90505f8190505f81846118a59190612aca565b90505f8054906101000a900473ffffffffffffffffffffffffffffffffffffffff1673ffffffffffffffffffffffffffffffffffffffff1663a9059cbb60025f9054906101000a900473ffffffffffffffffffffffffffffffffffffffff1683866119109190612cfc565b6040518363ffffffff1660e01b815260040161192d929190612dd8565b6020604051808303815f875af1158015611949573d5f803e3d5ffd5b505050506040513d601f19601f8201168201806040525081019061196d9190612cd1565b505f600a5f60055481526020019081526020015f20905084815f015f8282546119969190612cfc565b92505081905550600b5f60055481526020019081526020015f206040518060a001604052805f81526020018781526020015f81526020014281526020016005815250908060018154018082558091505060019003905f5260205f2090600502015f909190919091505f820151815f01556020820151816001015560408201518160020155606082015181600301556080820151816004015550505050505050565b5f841480611a46575060055484145b15611a5957611a54826117e9565b611ce8565b5f60095f8681526020019081526020015f20905060018214611a9257600281600701541015611a9157611a8b836117e9565b50611ce8565b5b5f8054906101000a900473ffffffffffffffffffffffffffffffffffffffff1673ffffffffffffffffffffffffffffffffffffffff1663a9059cbb825f015f9054906101000a900473ffffffffffffffffffffffffffffffffffffffff16856040518363ffffffff1660e01b8152600401611b0e929190612dd8565b6020604051808303815f875af1158015611b2a573d5f803e3d5ffd5b505050506040513d601f19601f82011682018060405250810190611b4e9190612cd1565b505f600a5f8781526020019081526020015f20905083815f015f828254611b759190612cfc565b9250508190555083816001015f828254611b8f9190612cfc565b92505081905550600b5f8781526020019081526020015f206040518060a001604052808781526020018681526020018581526020014281526020016001815250908060018154018082558091505060019003905f5260205f2090600502015f909190919091505f820151815f015560208201518160010155604082015181600201556060820151816003015560808201518160040155505060095f8681526020019081526020015f205f015f9054906101000a900473ffffffffffffffffffffffffffffffffffffffff1673ffffffffffffffffffffffffffffffffffffffff16825f015f9054906101000a900473ffffffffffffffffffffffffffffffffffffffff1673ffffffffffffffffffffffffffffffffffffffff167fe17b61d324ce17328f433d0ab62581c0f0aa997312bae80fbdfcd2aa9b91d6e386866001604051611cdd93929190612fd8565b60405180910390a350505b50505050565b5f60019050600554851480611d0257505f85145b15611d1657611d10836117e9565b50612043565b5f8590505b82821015611d74578180611d2e9061300d565b92505060095f8281526020019081526020015f20600501549050600554811480611d5757505f81145b15611d6f57829150611d68846117e9565b5050612043565b611d1b565b5f8190505f92505b5f8114158015611d8e57506005548114155b8015611d9a5750600f83105b15612036575f60095f8381526020019081526020015f2090508481600601541061201b575f8054906101000a900473ffffffffffffffffffffffffffffffffffffffff1673ffffffffffffffffffffffffffffffffffffffff1663a9059cbb825f015f9054906101000a900473ffffffffffffffffffffffffffffffffffffffff16886040518363ffffffff1660e01b8152600401611e3a929190612dd8565b6020604051808303815f875af1158015611e56573d5f803e3d5ffd5b505050506040513d601f19601f82011682018060405250810190611e7a9190612cd1565b505f600a5f8481526020019081526020015f20905086815f015f828254611ea19190612cfc565b9250508190555086816002015f828254611ebb9190612cfc565b92505081905550600b5f8481526020019081526020015f206040518060a001604052808a81526020018981526020018881526020014281526020016002815250908060018154018082558091505060019003905f5260205f2090600502015f909190919091505f820151815f015560208201518160010155604082015181600201556060820151816003015560808201518160040155505060095f8981526020019081526020015f205f015f9054906101000a900473ffffffffffffffffffffffffffffffffffffffff1673ffffffffffffffffffffffffffffffffffffffff16825f015f9054906101000a900473ffffffffffffffffffffffffffffffffffffffff1673ffffffffffffffffffffffffffffffffffffffff167fe17b61d324ce17328f433d0ab62581c0f0aa997312bae80fbdfcd2aa9b91d6e3898960026040516120099392919061308d565b60405180910390a35050505050612043565b80600501549150838061202d9061300d565b94505050611d7c565b61203f856117e9565b5050505b50505050565b5f851480612058575060055485145b1561206b57612066836117e9565b6121ae565b5f8190505f81036120855761207f846117e9565b506121ae565b5f81856120929190612b2a565b90505f82826120a19190612d2f565b866120ac9190612aca565b90505f600190505f8990505f5b85811015612195575f82141580156120d357506005548214155b15612164578760095f8481526020019081526020015f20600601541061213d575f5b8381101561211c57612109838c888c61242a565b80806121149061300d565b9150506120f5565b5060095f8381526020019081526020015f2060050154915060019250612163565b60095f8381526020019081526020015f20600501549150828061215f9061300d565b9350505b5b5f821480612173575060055482145b1561218257612181856117e9565b5b808061218d9061300d565b9150506120b9565b505f8311156121a8576121a7836117e9565b5b50505050505b5050505050565b5f806002600d5f8581526020019081526020015f2054101561221a578260095f8681526020019081526020015f20600501819055506001600d5f8581526020019081526020015f205f82825461220b9190612cfc565b92505081905550829050612377565b5f5b600f8110156123755782612375576002816122379190612cfc565b600261224391906131f1565b600c5f8681526020019081526020015f205f6001846122629190612cfc565b81526020019081526020015f20805490501015612362575f5b600c5f8681526020019081526020015f205f8381526020019081526020015f20805490508110156123605783612360575f600c5f8781526020019081526020015f205f8481526020019081526020015f2082815481106122de576122dd612c3a565b5b905f5260205f20015490506002600d5f8381526020019081526020015f2054101561234c578060095f8981526020019081526020015f20600501819055506001600d5f8381526020019081526020015f205f82825461233d9190612cfc565b92505081905550809350600194505b5080806123589061300d565b91505061227b565b505b808061236d9061300d565b91505061221c565b505b5f5b600f811015612423575f82031561242357600160095f8481526020019081526020015f206008015f8282546123ae9190612cfc565b92505081905550600c5f8381526020019081526020015f205f8281526020019081526020015f2085908060018154018082558091505060019003905f5260205f20015f909190919091505560095f8381526020019081526020015f20600501549150808061241b9061300d565b915050612379565b5050505050565b5f60095f8681526020019081526020015f205f015f9054906101000a900473ffffffffffffffffffffffffffffffffffffffff1690505f8054906101000a900473ffffffffffffffffffffffffffffffffffffffff1673ffffffffffffffffffffffffffffffffffffffff1663a9059cbb82856040518363ffffffff1660e01b81526004016124ba929190612dd8565b6020604051808303815f875af11580156124d6573d5f803e3d5ffd5b505050506040513d601f19601f820116820180604052508101906124fa9190612cd1565b505f600a5f8781526020019081526020015f20905083815f015f8282546125219190612cfc565b9250508190555083816003015f82825461253b9190612cfc565b92505081905550600b5f8781526020019081526020015f206040518060a001604052808781526020018681526020018581526020014281526020016004815250908060018154018082558091505060019003905f5260205f2090600502015f909190919091505f820151815f015560208201518160010155604082015181600201556060820151816003015560808201518160040155505060095f8681526020019081526020015f205f015f9054906101000a900473ffffffffffffffffffffffffffffffffffffffff1673ffffffffffffffffffffffffffffffffffffffff168273ffffffffffffffffffffffffffffffffffffffff167fe17b61d324ce17328f433d0ab62581c0f0aa997312bae80fbdfcd2aa9b91d6e38686600460405161266793929190613274565b60405180910390a3505050505050565b5f819050919050565b61268981612677565b82525050565b5f6020820190506126a25f830184612680565b92915050565b5f80fd5b6126b581612677565b81146126bf575f80fd5b50565b5f813590506126d0816126ac565b92915050565b5f602082840312156126eb576126ea6126a8565b5b5f6126f8848285016126c2565b91505092915050565b5f6040820190506127145f830185612680565b6127216020830184612680565b9392505050565b5f73ffffffffffffffffffffffffffffffffffffffff82169050919050565b5f819050919050565b5f61276a61276561276084612728565b612747565b612728565b9050919050565b5f61277b82612750565b9050919050565b5f61278c82612771565b9050919050565b61279c81612782565b82525050565b5f6020820190506127b55f830184612793565b92915050565b5f6127c582612728565b9050919050565b6127d5816127bb565b82525050565b5f610140820190506127ef5f83018d6127cc565b6127fc602083018c612680565b612809604083018b612680565b612816606083018a612680565b6128236080830189612680565b61283060a0830188612680565b61283d60c0830187612680565b61284a60e0830186612680565b612858610100830185612680565b612866610120830184612680565b9b9a5050505050505050505050565b5f610100820190506128895f83018b612680565b612896602083018a612680565b6128a36040830189612680565b6128b06060830188612680565b6128bd6080830187612680565b6128ca60a0830186612680565b6128d760c0830185612680565b6128e460e0830184612680565b9998505050505050505050565b5f805f60608486031215612908576129076126a8565b5b5f612915868287016126c2565b9350506020612926868287016126c2565b9250506040612937868287016126c2565b9150509250925092565b5f8060408385031215612957576129566126a8565b5b5f612964858286016126c2565b9250506020612975858286016126c2565b9150509250929050565b5f60a0820190506129925f830188612680565b61299f6020830187612680565b6129ac6040830186612680565b6129b96060830185612680565b6129c66080830184612680565b9695505050505050565b5f60c0820190506129e35f830189612680565b6129f06020830188612680565b6129fd6040830187612680565b612a0a6060830186612680565b612a176080830185612680565b612a2460a0830184612680565b979650505050505050565b5f602082019050612a425f8301846127cc565b92915050565b612a51816127bb565b8114612a5b575f80fd5b50565b5f81359050612a6c81612a48565b92915050565b5f60208284031215612a8757612a866126a8565b5b5f612a9484828501612a5e565b91505092915050565b7f4e487b71000000000000000000000000000000000000000000000000000000005f52601160045260245ffd5b5f612ad482612677565b9150612adf83612677565b9250828203905081811115612af757612af6612a9d565b5b92915050565b7f4e487b71000000000000000000000000000000000000000000000000000000005f52601260045260245ffd5b5f612b3482612677565b9150612b3f83612677565b925082612b4f57612b4e612afd565b5b828204905092915050565b5f82825260208201905092915050565b7f4e6f7420796f7572206163636f756e74000000000000000000000000000000005f82015250565b5f612b9e601083612b5a565b9150612ba982612b6a565b602082019050919050565b5f6020820190508181035f830152612bcb81612b92565b9050919050565b7f416c7265616479206174206d6178206c6576656c0000000000000000000000005f82015250565b5f612c06601483612b5a565b9150612c1182612bd2565b602082019050919050565b5f6020820190508181035f830152612c3381612bfa565b9050919050565b7f4e487b71000000000000000000000000000000000000000000000000000000005f52603260045260245ffd5b5f606082019050612c7a5f8301866127cc565b612c8760208301856127cc565b612c946040830184612680565b949350505050565b5f8115159050919050565b612cb081612c9c565b8114612cba575f80fd5b50565b5f81519050612ccb81612ca7565b92915050565b5f60208284031215612ce657612ce56126a8565b5b5f612cf384828501612cbd565b91505092915050565b5f612d0682612677565b9150612d1183612677565b9250828201905080821115612d2957612d28612a9d565b5b92915050565b5f612d3982612677565b9150612d4483612677565b9250828202612d5281612677565b91508282048414831517612d6957612d68612a9d565b5b5092915050565b7f55736572206e6f7420666f756e640000000000000000000000000000000000005f82015250565b5f612da4600e83612b5a565b9150612daf82612d70565b602082019050919050565b5f6020820190508181035f830152612dd181612d98565b9050919050565b5f604082019050612deb5f8301856127cc565b612df86020830184612680565b9392505050565b7f55534454207472616e73666572206661696c65640000000000000000000000005f82015250565b5f612e33601483612b5a565b9150612e3e82612dff565b602082019050919050565b5f6020820190508181035f830152612e6081612e27565b9050919050565b7f416c7265616479207265676973746572656400000000000000000000000000005f82015250565b5f612e9b601283612b5a565b9150612ea682612e67565b602082019050919050565b5f6020820190508181035f830152612ec881612e8f565b9050919050565b7f496e76616c69642073706f6e736f7200000000000000000000000000000000005f82015250565b5f612f03600f83612b5a565b9150612f0e82612ecf565b602082019050919050565b5f6020820190508181035f830152612f3081612ef7565b9050919050565b7f666565206164647273206e6f74207365740000000000000000000000000000005f82015250565b5f612f6b601183612b5a565b9150612f7682612f37565b602082019050919050565b5f6020820190508181035f830152612f9881612f5f565b9050919050565b5f819050919050565b5f612fc2612fbd612fb884612f9f565b612747565b612677565b9050919050565b612fd281612fa8565b82525050565b5f606082019050612feb5f830186612680565b612ff86020830185612680565b6130056040830184612fc9565b949350505050565b5f61301782612677565b91507fffffffffffffffffffffffffffffffffffffffffffffffffffffffffffffffff820361304957613048612a9d565b5b600182019050919050565b5f819050919050565b5f61307761307261306d84613054565b612747565b612677565b9050919050565b6130878161305d565b82525050565b5f6060820190506130a05f830186612680565b6130ad6020830185612680565b6130ba604083018461307e565b949350505050565b5f8160011c9050919050565b5f808291508390505b6001851115613117578086048111156130f3576130f2612a9d565b5b60018516156131025780820291505b8081029050613110856130c2565b94506130d7565b94509492505050565b5f8261312f57600190506131ea565b8161313c575f90506131ea565b8160018114613152576002811461315c5761318b565b60019150506131ea565b60ff84111561316e5761316d612a9d565b5b8360020a91508482111561318557613184612a9d565b5b506131ea565b5060208310610133831016604e8410600b84101617156131c05782820a9050838111156131bb576131ba612a9d565b5b6131ea565b6131cd84848460016130ce565b925090508184048111156131e4576131e3612a9d565b5b81810290505b9392505050565b5f6131fb82612677565b915061320683612677565b92506132337fffffffffffffffffffffffffffffffffffffffffffffffffffffffffffffffff8484613120565b905092915050565b5f819050919050565b5f61325e6132596132548461323b565b612747565b612677565b9050919050565b61326e81613244565b82525050565b5f6060820190506132875f830186612680565b6132946020830185612680565b6132a16040830184613265565b94935050505056fea26469706673582212204ec37a2babdfbcc5083ecef1c35eba419b47bab2893a6019cdf0ed131cfe47bf64736f6c63430008140033",
					"opcodes": "PUSH1 0x80 PUSH1 0x40 MSTORE PUSH1 0x40 MLOAD DUP1 PUSH2 0x1E0 ADD PUSH1 0x40 MSTORE DUP1 PUSH8 0xD02AB486CEDC0000 PUSH10 0xFFFFFFFFFFFFFFFFFFFF AND DUP2 MSTORE PUSH1 0x20 ADD PUSH9 0x15AF1D78B58C40000 PUSH10 0xFFFFFFFFFFFFFFFFFFFF AND DUP2 MSTORE PUSH1 0x20 ADD PUSH9 0x2B5E3AF16B1880000 PUSH10 0xFFFFFFFFFFFFFFFFFFFF AND DUP2 MSTORE PUSH1 0x20 ADD PUSH9 0x56BC75E2D63100000 PUSH10 0xFFFFFFFFFFFFFFFFFFFF AND DUP2 MSTORE PUSH1 0x20 ADD PUSH9 0xAD78EBC5AC6200000 PUSH10 0xFFFFFFFFFFFFFFFFFFFF AND DUP2 MSTORE PUSH1 0x20 ADD PUSH9 0x15AF1D78B58C400000 PUSH10 0xFFFFFFFFFFFFFFFFFFFF AND DUP2 MSTORE PUSH1 0x20 ADD PUSH9 0x2B5E3AF16B18800000 PUSH10 0xFFFFFFFFFFFFFFFFFFFF AND DUP2 MSTORE PUSH1 0x20 ADD PUSH9 0x56BC75E2D631000000 PUSH10 0xFFFFFFFFFFFFFFFFFFFF AND DUP2 MSTORE PUSH1 0x20 ADD PUSH9 0xAD78EBC5AC62000000 PUSH10 0xFFFFFFFFFFFFFFFFFFFF AND DUP2 MSTORE PUSH1 0x20 ADD PUSH10 0x15AF1D78B58C4000000 PUSH10 0xFFFFFFFFFFFFFFFFFFFF AND DUP2 MSTORE PUSH1 0x20 ADD PUSH10 0x2B5E3AF16B188000000 PUSH10 0xFFFFFFFFFFFFFFFFFFFF AND DUP2 MSTORE PUSH1 0x20 ADD PUSH10 0x56BC75E2D6310000000 PUSH10 0xFFFFFFFFFFFFFFFFFFFF AND DUP2 MSTORE PUSH1 0x20 ADD PUSH10 0xAD78EBC5AC620000000 PUSH10 0xFFFFFFFFFFFFFFFFFFFF AND DUP2 MSTORE PUSH1 0x20 ADD PUSH10 0x15AF1D78B58C40000000 PUSH10 0xFFFFFFFFFFFFFFFFFFFF AND DUP2 MSTORE PUSH1 0x20 ADD PUSH10 0x2B5E3AF16B1880000000 PUSH10 0xFFFFFFFFFFFFFFFFFFFF AND DUP2 MSTORE POP PUSH1 0x7 SWAP1 PUSH1 0xF PUSH3 0x1BA SWAP3 SWAP2 SWAP1 PUSH3 0x425 JUMP JUMPDEST POP PUSH3 0x15180 PUSH1 0x15 SSTORE CALLVALUE DUP1 ISZERO PUSH3 0x1CE JUMPI PUSH0 DUP1 REVERT JUMPDEST POP PUSH1 0x40 MLOAD PUSH3 0x394A CODESIZE SUB DUP1 PUSH3 0x394A DUP4 CODECOPY DUP2 DUP2 ADD PUSH1 0x40 MSTORE DUP2 ADD SWAP1 PUSH3 0x1F4 SWAP2 SWAP1 PUSH3 0x505 JUMP JUMPDEST DUP4 PUSH0 DUP1 PUSH2 0x100 EXP DUP2 SLOAD DUP2 PUSH20 0xFFFFFFFFFFFFFFFFFFFFFFFFFFFFFFFFFFFFFFFF MUL NOT AND SWAP1 DUP4 PUSH20 0xFFFFFFFFFFFFFFFFFFFFFFFFFFFFFFFFFFFFFFFF AND MUL OR SWAP1 SSTORE POP DUP3 PUSH1 0x2 PUSH0 PUSH2 0x100 EXP DUP2 SLOAD DUP2 PUSH20 0xFFFFFFFFFFFFFFFFFFFFFFFFFFFFFFFFFFFFFFFF MUL NOT AND SWAP1 DUP4 PUSH20 0xFFFFFFFFFFFFFFFFFFFFFFFFFFFFFFFFFFFFFFFF AND MUL OR SWAP1 SSTORE POP DUP2 PUSH1 0x3 PUSH0 PUSH2 0x100 EXP DUP2 SLOAD DUP2 PUSH20 0xFFFFFFFFFFFFFFFFFFFFFFFFFFFFFFFFFFFFFFFF MUL NOT AND SWAP1 DUP4 PUSH20 0xFFFFFFFFFFFFFFFFFFFFFFFFFFFFFFFFFFFFFFFF AND MUL OR SWAP1 SSTORE POP DUP1 PUSH1 0x4 PUSH0 PUSH2 0x100 EXP DUP2 SLOAD DUP2 PUSH20 0xFFFFFFFFFFFFFFFFFFFFFFFFFFFFFFFFFFFFFFFF MUL NOT AND SWAP1 DUP4 PUSH20 0xFFFFFFFFFFFFFFFFFFFFFFFFFFFFFFFFFFFFFFFF AND MUL OR SWAP1 SSTORE POP PUSH2 0x3E8 PUSH1 0x5 DUP2 SWAP1 SSTORE POP PUSH1 0x1 PUSH1 0x6 DUP2 SWAP1 SSTORE POP PUSH0 PUSH1 0x9 PUSH0 PUSH1 0x5 SLOAD DUP2 MSTORE PUSH1 0x20 ADD SWAP1 DUP2 MSTORE PUSH1 0x20 ADD PUSH0 KECCAK256 SWAP1 POP DUP4 DUP2 PUSH0 ADD PUSH0 PUSH2 0x100 EXP DUP2 SLOAD DUP2 PUSH20 0xFFFFFFFFFFFFFFFFFFFFFFFFFFFFFFFFFFFFFFFF MUL NOT AND SWAP1 DUP4 PUSH20 0xFFFFFFFFFFFFFFFFFFFFFFFFFFFFFFFFFFFFFFFF AND MUL OR SWAP1 SSTORE POP PUSH1 0x5 SLOAD DUP2 PUSH1 0x3 ADD DUP2 SWAP1 SSTORE POP PUSH1 0xF DUP2 PUSH1 0x6 ADD DUP2 SWAP1 SSTORE POP TIMESTAMP DUP2 PUSH1 0xA ADD DUP2 SWAP1 SSTORE POP PUSH0 DUP1 JUMPDEST PUSH1 0xF DUP2 LT ISZERO PUSH3 0x3CB JUMPI PUSH1 0x7 DUP2 DUP2 SLOAD DUP2 LT PUSH3 0x39D JUMPI PUSH3 0x39C PUSH3 0x574 JUMP JUMPDEST JUMPDEST SWAP1 PUSH0 MSTORE PUSH1 0x20 PUSH0 KECCAK256 ADD SLOAD DUP3 PUSH3 0x3B3 SWAP2 SWAP1 PUSH3 0x5D7 JUMP JUMPDEST SWAP2 POP DUP1 DUP1 PUSH3 0x3C2 SWAP1 PUSH3 0x611 JUMP JUMPDEST SWAP2 POP POP PUSH3 0x37C JUMP JUMPDEST POP DUP1 DUP3 PUSH1 0x9 ADD DUP2 SWAP1 SSTORE POP PUSH1 0x5 SLOAD PUSH1 0x8 PUSH0 DUP8 PUSH20 0xFFFFFFFFFFFFFFFFFFFFFFFFFFFFFFFFFFFFFFFF AND PUSH20 0xFFFFFFFFFFFFFFFFFFFFFFFFFFFFFFFFFFFFFFFF AND DUP2 MSTORE PUSH1 0x20 ADD SWAP1 DUP2 MSTORE PUSH1 0x20 ADD PUSH0 KECCAK256 DUP2 SWAP1 SSTORE POP POP POP POP POP POP POP PUSH3 0x65D JUMP JUMPDEST DUP3 DUP1 SLOAD DUP3 DUP3 SSTORE SWAP1 PUSH0 MSTORE PUSH1 0x20 PUSH0 KECCAK256 SWAP1 DUP2 ADD SWAP3 DUP3 ISZERO PUSH3 0x470 JUMPI SWAP2 PUSH1 0x20 MUL DUP3 ADD JUMPDEST DUP3 DUP2 GT ISZERO PUSH3 0x46F JUMPI DUP3 MLOAD DUP3 SWAP1 PUSH10 0xFFFFFFFFFFFFFFFFFFFF AND SWAP1 SSTORE SWAP2 PUSH1 0x20 ADD SWAP2 SWAP1 PUSH1 0x1 ADD SWAP1 PUSH3 0x444 JUMP JUMPDEST JUMPDEST POP SWAP1 POP PUSH3 0x47F SWAP2 SWAP1 PUSH3 0x483 JUMP JUMPDEST POP SWAP1 JUMP JUMPDEST JUMPDEST DUP1 DUP3 GT ISZERO PUSH3 0x49C JUMPI PUSH0 DUP2 PUSH0 SWAP1 SSTORE POP PUSH1 0x1 ADD PUSH3 0x484 JUMP JUMPDEST POP SWAP1 JUMP JUMPDEST PUSH0 DUP1 REVERT JUMPDEST PUSH0 PUSH20 0xFFFFFFFFFFFFFFFFFFFFFFFFFFFFFFFFFFFFFFFF DUP3 AND SWAP1 POP SWAP2 SWAP1 POP JUMP JUMPDEST PUSH0 PUSH3 0x4CF DUP3 PUSH3 0x4A4 JUMP JUMPDEST SWAP1 POP SWAP2 SWAP1 POP JUMP JUMPDEST PUSH3 0x4E1 DUP2 PUSH3 0x4C3 JUMP JUMPDEST DUP2 EQ PUSH3 0x4EC JUMPI PUSH0 DUP1 REVERT JUMPDEST POP JUMP JUMPDEST PUSH0 DUP2 MLOAD SWAP1 POP PUSH3 0x4FF DUP2 PUSH3 0x4D6 JUMP JUMPDEST SWAP3 SWAP2 POP POP JUMP JUMPDEST PUSH0 DUP1 PUSH0 DUP1 PUSH1 0x80 DUP6 DUP8 SUB SLT ISZERO PUSH3 0x520 JUMPI PUSH3 0x51F PUSH3 0x4A0 JUMP JUMPDEST JUMPDEST PUSH0 PUSH3 0x52F DUP8 DUP3 DUP9 ADD PUSH3 0x4EF JUMP JUMPDEST SWAP5 POP POP PUSH1 0x20 PUSH3 0x542 DUP8 DUP3 DUP9 ADD PUSH3 0x4EF JUMP JUMPDEST SWAP4 POP POP PUSH1 0x40 PUSH3 0x555 DUP8 DUP3 DUP9 ADD PUSH3 0x4EF JUMP JUMPDEST SWAP3 POP POP PUSH1 0x60 PUSH3 0x568 DUP8 DUP3 DUP9 ADD PUSH3 0x4EF JUMP JUMPDEST SWAP2 POP POP SWAP3 SWAP6 SWAP2 SWAP5 POP SWAP3 POP JUMP JUMPDEST PUSH32 0x4E487B7100000000000000000000000000000000000000000000000000000000 PUSH0 MSTORE PUSH1 0x32 PUSH1 0x4 MSTORE PUSH1 0x24 PUSH0 REVERT JUMPDEST PUSH0 DUP2 SWAP1 POP SWAP2 SWAP1 POP JUMP JUMPDEST PUSH32 0x4E487B7100000000000000000000000000000000000000000000000000000000 PUSH0 MSTORE PUSH1 0x11 PUSH1 0x4 MSTORE PUSH1 0x24 PUSH0 REVERT JUMPDEST PUSH0 PUSH3 0x5E3 DUP3 PUSH3 0x5A1 JUMP JUMPDEST SWAP2 POP PUSH3 0x5F0 DUP4 PUSH3 0x5A1 JUMP JUMPDEST SWAP3 POP DUP3 DUP3 ADD SWAP1 POP DUP1 DUP3 GT ISZERO PUSH3 0x60B JUMPI PUSH3 0x60A PUSH3 0x5AA JUMP JUMPDEST JUMPDEST SWAP3 SWAP2 POP POP JUMP JUMPDEST PUSH0 PUSH3 0x61D DUP3 PUSH3 0x5A1 JUMP JUMPDEST SWAP2 POP PUSH32 0xFFFFFFFFFFFFFFFFFFFFFFFFFFFFFFFFFFFFFFFFFFFFFFFFFFFFFFFFFFFFFFFF DUP3 SUB PUSH3 0x652 JUMPI PUSH3 0x651 PUSH3 0x5AA JUMP JUMPDEST JUMPDEST PUSH1 0x1 DUP3 ADD SWAP1 POP SWAP2 SWAP1 POP JUMP JUMPDEST PUSH2 0x32DF DUP1 PUSH3 0x66B PUSH0 CODECOPY PUSH0 RETURN INVALID PUSH1 0x80 PUSH1 0x40 MSTORE CALLVALUE DUP1 ISZERO PUSH2 0xF JUMPI PUSH0 DUP1 REVERT JUMPDEST POP PUSH1 0x4 CALLDATASIZE LT PUSH2 0x1EE JUMPI PUSH0 CALLDATALOAD PUSH1 0xE0 SHR DUP1 PUSH4 0x5EC64A44 GT PUSH2 0x10D JUMPI DUP1 PUSH4 0xBFF1F9E1 GT PUSH2 0xA0 JUMPI DUP1 PUSH4 0xE9E34A16 GT PUSH2 0x6F JUMPI DUP1 PUSH4 0xE9E34A16 EQ PUSH2 0x628 JUMPI DUP1 PUSH4 0xEC597E6F EQ PUSH2 0x646 JUMPI DUP1 PUSH4 0xF207564E EQ PUSH2 0x664 JUMPI DUP1 PUSH4 0xF5D74D93 EQ PUSH2 0x680 JUMPI PUSH2 0x1EE JUMP JUMPDEST DUP1 PUSH4 0xBFF1F9E1 EQ PUSH2 0x58E JUMPI DUP1 PUSH4 0xC216212A EQ PUSH2 0x5AC JUMPI DUP1 PUSH4 0xCB0E0D7D EQ PUSH2 0x5DC JUMPI DUP1 PUSH4 0xD54D6DDB EQ PUSH2 0x60C JUMPI PUSH2 0x1EE JUMP JUMPDEST DUP1 PUSH4 0x7CDC65F2 GT PUSH2 0xDC JUMPI DUP1 PUSH4 0x7CDC65F2 EQ PUSH2 0x504 JUMPI DUP1 PUSH4 0x81A0B816 EQ PUSH2 0x522 JUMPI DUP1 PUSH4 0x88AFBE3E EQ PUSH2 0x540 JUMPI DUP1 PUSH4 0x8DA5CB5B EQ PUSH2 0x570 JUMPI PUSH2 0x1EE JUMP JUMPDEST DUP1 PUSH4 0x5EC64A44 EQ PUSH2 0x44D JUMPI DUP1 PUSH4 0x70C8D770 EQ PUSH2 0x47D JUMPI DUP1 PUSH4 0x736FB514 EQ PUSH2 0x4B1 JUMPI DUP1 PUSH4 0x78F6AD6D EQ PUSH2 0x4E6 JUMPI PUSH2 0x1EE JUMP JUMPDEST DUP1 PUSH4 0x365B98B2 GT PUSH2 0x185 JUMPI DUP1 PUSH4 0x46B9DECE GT PUSH2 0x154 JUMPI DUP1 PUSH4 0x46B9DECE EQ PUSH2 0x3AA JUMPI DUP1 PUSH4 0x52A8C4C4 EQ PUSH2 0x3E1 JUMPI DUP1 PUSH4 0x58C7D352 EQ PUSH2 0x3FF JUMPI DUP1 PUSH4 0x5AABF7F1 EQ PUSH2 0x41D JUMPI PUSH2 0x1EE JUMP JUMPDEST DUP1 PUSH4 0x365B98B2 EQ PUSH2 0x307 JUMPI DUP1 PUSH4 0x375B43B4 EQ PUSH2 0x340 JUMPI DUP1 PUSH4 0x39AB3603 EQ PUSH2 0x35E JUMPI DUP1 PUSH4 0x45977D03 EQ PUSH2 0x38E JUMPI PUSH2 0x1EE JUMP JUMPDEST DUP1 PUSH4 0x2C831633 GT PUSH2 0x1C1 JUMPI DUP1 PUSH4 0x2C831633 EQ PUSH2 0x28F JUMPI DUP1 PUSH4 0x2F48AB7D EQ PUSH2 0x2AD JUMPI DUP1 PUSH4 0x32BC298C EQ PUSH2 0x2CB JUMPI DUP1 PUSH4 0x32FCD966 EQ PUSH2 0x2E9 JUMPI PUSH2 0x1EE JUMP JUMPDEST DUP1 PUSH4 0x1BE02B2 EQ PUSH2 0x1F2 JUMPI DUP1 PUSH4 0x1C234A8 EQ PUSH2 0x210 JUMPI DUP1 PUSH4 0x18AB487F EQ PUSH2 0x22E JUMPI DUP1 PUSH4 0x24513088 EQ PUSH2 0x25E JUMPI JUMPDEST PUSH0 DUP1 REVERT JUMPDEST PUSH2 0x1FA PUSH2 0x69E JUMP JUMPDEST PUSH1 0x40 MLOAD PUSH2 0x207 SWAP2 SWAP1 PUSH2 0x268F JUMP JUMPDEST PUSH1 0x40 MLOAD DUP1 SWAP2 SUB SWAP1 RETURN JUMPDEST PUSH2 0x218 PUSH2 0x6A4 JUMP JUMPDEST PUSH1 0x40 MLOAD PUSH2 0x225 SWAP2 SWAP1 PUSH2 0x268F JUMP JUMPDEST PUSH1 0x40 MLOAD DUP1 SWAP2 SUB SWAP1 RETURN JUMPDEST PUSH2 0x248 PUSH1 0x4 DUP1 CALLDATASIZE SUB DUP2 ADD SWAP1 PUSH2 0x243 SWAP2 SWAP1 PUSH2 0x26D6 JUMP JUMPDEST PUSH2 0x6AA JUMP JUMPDEST PUSH1 0x40 MLOAD PUSH2 0x255 SWAP2 SWAP1 PUSH2 0x268F JUMP JUMPDEST PUSH1 0x40 MLOAD DUP1 SWAP2 SUB SWAP1 RETURN JUMPDEST PUSH2 0x278 PUSH1 0x4 DUP1 CALLDATASIZE SUB DUP2 ADD SWAP1 PUSH2 0x273 SWAP2 SWAP1 PUSH2 0x26D6 JUMP JUMPDEST PUSH2 0x6BF JUMP JUMPDEST PUSH1 0x40 MLOAD PUSH2 0x286 SWAP3 SWAP2 SWAP1 PUSH2 0x2701 JUMP JUMPDEST PUSH1 0x40 MLOAD DUP1 SWAP2 SUB SWAP1 RETURN JUMPDEST PUSH2 0x297 PUSH2 0x755 JUMP JUMPDEST PUSH1 0x40 MLOAD PUSH2 0x2A4 SWAP2 SWAP1 PUSH2 0x268F JUMP JUMPDEST PUSH1 0x40 MLOAD DUP1 SWAP2 SUB SWAP1 RETURN JUMPDEST PUSH2 0x2B5 PUSH2 0x75B JUMP JUMPDEST PUSH1 0x40 MLOAD PUSH2 0x2C2 SWAP2 SWAP1 PUSH2 0x27A2 JUMP JUMPDEST PUSH1 0x40 MLOAD DUP1 SWAP2 SUB SWAP1 RETURN JUMPDEST PUSH2 0x2D3 PUSH2 0x77E JUMP JUMPDEST PUSH1 0x40 MLOAD PUSH2 0x2E0 SWAP2 SWAP1 PUSH2 0x268F JUMP JUMPDEST PUSH1 0x40 MLOAD DUP1 SWAP2 SUB SWAP1 RETURN JUMPDEST PUSH2 0x2F1 PUSH2 0x785 JUMP JUMPDEST PUSH1 0x40 MLOAD PUSH2 0x2FE SWAP2 SWAP1 PUSH2 0x268F JUMP JUMPDEST PUSH1 0x40 MLOAD DUP1 SWAP2 SUB SWAP1 RETURN JUMPDEST PUSH2 0x321 PUSH1 0x4 DUP1 CALLDATASIZE SUB DUP2 ADD SWAP1 PUSH2 0x31C SWAP2 SWAP1 PUSH2 0x26D6 JUMP JUMPDEST PUSH2 0x791 JUMP JUMPDEST PUSH1 0x40 MLOAD PUSH2 0x337 SWAP11 SWAP10 SWAP9 SWAP8 SWAP7 SWAP6 SWAP5 SWAP4 SWAP3 SWAP2 SWAP1 PUSH2 0x27DB JUMP JUMPDEST PUSH1 0x40 MLOAD DUP1 SWAP2 SUB SWAP1 RETURN JUMPDEST PUSH2 0x348 PUSH2 0x800 JUMP JUMPDEST PUSH1 0x40 MLOAD PUSH2 0x355 SWAP2 SWAP1 PUSH2 0x268F JUMP JUMPDEST PUSH1 0x40 MLOAD DUP1 SWAP2 SUB SWAP1 RETURN JUMPDEST PUSH2 0x378 PUSH1 0x4 DUP1 CALLDATASIZE SUB DUP2 ADD SWAP1 PUSH2 0x373 SWAP2 SWAP1 PUSH2 0x26D6 JUMP JUMPDEST PUSH2 0x805 JUMP JUMPDEST PUSH1 0x40 MLOAD PUSH2 0x385 SWAP2 SWAP1 PUSH2 0x268F JUMP JUMPDEST PUSH1 0x40 MLOAD DUP1 SWAP2 SUB SWAP1 RETURN JUMPDEST PUSH2 0x3A8 PUSH1 0x4 DUP1 CALLDATASIZE SUB DUP2 ADD SWAP1 PUSH2 0x3A3 SWAP2 SWAP1 PUSH2 0x26D6 JUMP JUMPDEST PUSH2 0x825 JUMP JUMPDEST STOP JUMPDEST PUSH2 0x3C4 PUSH1 0x4 DUP1 CALLDATASIZE SUB DUP2 ADD SWAP1 PUSH2 0x3BF SWAP2 SWAP1 PUSH2 0x26D6 JUMP JUMPDEST PUSH2 0xBC6 JUMP JUMPDEST PUSH1 0x40 MLOAD PUSH2 0x3D8 SWAP9 SWAP8 SWAP7 SWAP6 SWAP5 SWAP4 SWAP3 SWAP2 SWAP1 PUSH2 0x2875 JUMP JUMPDEST PUSH1 0x40 MLOAD DUP1 SWAP2 SUB SWAP1 RETURN JUMPDEST PUSH2 0x3E9 PUSH2 0xC0A JUMP JUMPDEST PUSH1 0x40 MLOAD PUSH2 0x3F6 SWAP2 SWAP1 PUSH2 0x268F JUMP JUMPDEST PUSH1 0x40 MLOAD DUP1 SWAP2 SUB SWAP1 RETURN JUMPDEST PUSH2 0x407 PUSH2 0xC10 JUMP JUMPDEST PUSH1 0x40 MLOAD PUSH2 0x414 SWAP2 SWAP1 PUSH2 0x268F JUMP JUMPDEST PUSH1 0x40 MLOAD DUP1 SWAP2 SUB SWAP1 RETURN JUMPDEST PUSH2 0x437 PUSH1 0x4 DUP1 CALLDATASIZE SUB DUP2 ADD SWAP1 PUSH2 0x432 SWAP2 SWAP1 PUSH2 0x28F1 JUMP JUMPDEST PUSH2 0xC15 JUMP JUMPDEST PUSH1 0x40 MLOAD PUSH2 0x444 SWAP2 SWAP1 PUSH2 0x268F JUMP JUMPDEST PUSH1 0x40 MLOAD DUP1 SWAP2 SUB SWAP1 RETURN JUMPDEST PUSH2 0x467 PUSH1 0x4 DUP1 CALLDATASIZE SUB DUP2 ADD SWAP1 PUSH2 0x462 SWAP2 SWAP1 PUSH2 0x2941 JUMP JUMPDEST PUSH2 0xC4B JUMP JUMPDEST PUSH1 0x40 MLOAD PUSH2 0x474 SWAP2 SWAP1 PUSH2 0x268F JUMP JUMPDEST PUSH1 0x40 MLOAD DUP1 SWAP2 SUB SWAP1 RETURN JUMPDEST PUSH2 0x497 PUSH1 0x4 DUP1 CALLDATASIZE SUB DUP2 ADD SWAP1 PUSH2 0x492 SWAP2 SWAP1 PUSH2 0x2941 JUMP JUMPDEST PUSH2 0xC76 JUMP JUMPDEST PUSH1 0x40 MLOAD PUSH2 0x4A8 SWAP6 SWAP5 SWAP4 SWAP3 SWAP2 SWAP1 PUSH2 0x297F JUMP JUMPDEST PUSH1 0x40 MLOAD DUP1 SWAP2 SUB SWAP1 RETURN JUMPDEST PUSH2 0x4CB PUSH1 0x4 DUP1 CALLDATASIZE SUB DUP2 ADD SWAP1 PUSH2 0x4C6 SWAP2 SWAP1 PUSH2 0x26D6 JUMP JUMPDEST PUSH2 0xCC2 JUMP JUMPDEST PUSH1 0x40 MLOAD PUSH2 0x4DD SWAP7 SWAP6 SWAP5 SWAP4 SWAP3 SWAP2 SWAP1 PUSH2 0x29D0 JUMP JUMPDEST PUSH1 0x40 MLOAD DUP1 SWAP2 SUB SWAP1 RETURN JUMPDEST PUSH2 0x4EE PUSH2 0xCFA JUMP JUMPDEST PUSH1 0x40 MLOAD PUSH2 0x4FB SWAP2 SWAP1 PUSH2 0x268F JUMP JUMPDEST PUSH1 0x40 MLOAD DUP1 SWAP2 SUB SWAP1 RETURN JUMPDEST PUSH2 0x50C PUSH2 0xD00 JUMP JUMPDEST PUSH1 0x40 MLOAD PUSH2 0x519 SWAP2 SWAP1 PUSH2 0x2A2F JUMP JUMPDEST PUSH1 0x40 MLOAD DUP1 SWAP2 SUB SWAP1 RETURN JUMPDEST PUSH2 0x52A PUSH2 0xD25 JUMP JUMPDEST PUSH1 0x40 MLOAD PUSH2 0x537 SWAP2 SWAP1 PUSH2 0x2A2F JUMP JUMPDEST PUSH1 0x40 MLOAD DUP1 SWAP2 SUB SWAP1 RETURN JUMPDEST PUSH2 0x55A PUSH1 0x4 DUP1 CALLDATASIZE SUB DUP2 ADD SWAP1 PUSH2 0x555 SWAP2 SWAP1 PUSH2 0x26D6 JUMP JUMPDEST PUSH2 0xD4A JUMP JUMPDEST PUSH1 0x40 MLOAD PUSH2 0x567 SWAP2 SWAP1 PUSH2 0x268F JUMP JUMPDEST PUSH1 0x40 MLOAD DUP1 SWAP2 SUB SWAP1 RETURN JUMPDEST PUSH2 0x578 PUSH2 0xD5F JUMP JUMPDEST PUSH1 0x40 MLOAD PUSH2 0x585 SWAP2 SWAP1 PUSH2 0x2A2F JUMP JUMPDEST PUSH1 0x40 MLOAD DUP1 SWAP2 SUB SWAP1 RETURN JUMPDEST PUSH2 0x596 PUSH2 0xD84 JUMP JUMPDEST PUSH1 0x40 MLOAD PUSH2 0x5A3 SWAP2 SWAP1 PUSH2 0x268F JUMP JUMPDEST PUSH1 0x40 MLOAD DUP1 SWAP2 SUB SWAP1 RETURN JUMPDEST PUSH2 0x5C6 PUSH1 0x4 DUP1 CALLDATASIZE SUB DUP2 ADD SWAP1 PUSH2 0x5C1 SWAP2 SWAP1 PUSH2 0x26D6 JUMP JUMPDEST PUSH2 0xD8A JUMP JUMPDEST PUSH1 0x40 MLOAD PUSH2 0x5D3 SWAP2 SWAP1 PUSH2 0x268F JUMP JUMPDEST PUSH1 0x40 MLOAD DUP1 SWAP2 SUB SWAP1 RETURN JUMPDEST PUSH2 0x5F6 PUSH1 0x4 DUP1 CALLDATASIZE SUB DUP2 ADD SWAP1 PUSH2 0x5F1 SWAP2 SWAP1 PUSH2 0x2A72 JUMP JUMPDEST PUSH2 0xDAA JUMP JUMPDEST PUSH1 0x40 MLOAD PUSH2 0x603 SWAP2 SWAP1 PUSH2 0x268F JUMP JUMPDEST PUSH1 0x40 MLOAD DUP1 SWAP2 SUB SWAP1 RETURN JUMPDEST PUSH2 0x626 PUSH1 0x4 DUP1 CALLDATASIZE SUB DUP2 ADD SWAP1 PUSH2 0x621 SWAP2 SWAP1 PUSH2 0x26D6 JUMP JUMPDEST PUSH2 0xDBF JUMP JUMPDEST STOP JUMPDEST PUSH2 0x630 PUSH2 0x1142 JUMP JUMPDEST PUSH1 0x40 MLOAD PUSH2 0x63D SWAP2 SWAP1 PUSH2 0x2A2F JUMP JUMPDEST PUSH1 0x40 MLOAD DUP1 SWAP2 SUB SWAP1 RETURN JUMPDEST PUSH2 0x64E PUSH2 0x1167 JUMP JUMPDEST PUSH1 0x40 MLOAD PUSH2 0x65B SWAP2 SWAP1 PUSH2 0x268F JUMP JUMPDEST PUSH1 0x40 MLOAD DUP1 SWAP2 SUB SWAP1 RETURN JUMPDEST PUSH2 0x67E PUSH1 0x4 DUP1 CALLDATASIZE SUB DUP2 ADD SWAP1 PUSH2 0x679 SWAP2 SWAP1 PUSH2 0x26D6 JUMP JUMPDEST PUSH2 0x116D JUMP JUMPDEST STOP JUMPDEST PUSH2 0x688 PUSH2 0x16B0 JUMP JUMPDEST PUSH1 0x40 MLOAD PUSH2 0x695 SWAP2 SWAP1 PUSH2 0x2A2F JUMP JUMPDEST PUSH1 0x40 MLOAD DUP1 SWAP2 SUB SWAP1 RETURN JUMPDEST PUSH1 0x14 SLOAD DUP2 JUMP JUMPDEST PUSH2 0x2710 DUP2 JUMP JUMPDEST PUSH1 0x11 PUSH1 0x20 MSTORE DUP1 PUSH0 MSTORE PUSH1 0x40 PUSH0 KECCAK256 PUSH0 SWAP2 POP SWAP1 POP SLOAD DUP2 JUMP JUMPDEST PUSH0 DUP1 PUSH0 PUSH1 0x9 PUSH0 DUP6 DUP2 MSTORE PUSH1 0x20 ADD SWAP1 DUP2 MSTORE PUSH1 0x20 ADD PUSH0 KECCAK256 PUSH1 0x3 ADD SLOAD SUB PUSH2 0x6E7 JUMPI PUSH0 DUP1 SWAP2 POP SWAP2 POP PUSH2 0x750 JUMP JUMPDEST PUSH0 PUSH1 0x10 SLOAD SWAP1 POP PUSH0 PUSH1 0x11 PUSH0 DUP7 DUP2 MSTORE PUSH1 0x20 ADD SWAP1 DUP2 MSTORE PUSH1 0x20 ADD PUSH0 KECCAK256 SLOAD SWAP1 POP DUP1 DUP3 GT PUSH2 0x716 JUMPI PUSH0 DUP1 SWAP4 POP SWAP4 POP POP POP PUSH2 0x750 JUMP JUMPDEST PUSH0 PUSH8 0xDE0B6B3A7640000 DUP3 DUP5 PUSH2 0x72C SWAP2 SWAP1 PUSH2 0x2ACA JUMP JUMPDEST PUSH2 0x736 SWAP2 SWAP1 PUSH2 0x2B2A JUMP JUMPDEST SWAP1 POP PUSH0 PUSH2 0x743 DUP8 DUP4 PUSH2 0x16D5 JUMP JUMPDEST SWAP1 POP DUP2 DUP2 SWAP6 POP SWAP6 POP POP POP POP POP JUMPDEST SWAP2 POP SWAP2 JUMP JUMPDEST PUSH1 0x12 SLOAD DUP2 JUMP JUMPDEST PUSH0 DUP1 SLOAD SWAP1 PUSH2 0x100 EXP SWAP1 DIV PUSH20 0xFFFFFFFFFFFFFFFFFFFFFFFFFFFFFFFFFFFFFFFF AND DUP2 JUMP JUMPDEST PUSH3 0x15180 DUP2 JUMP JUMPDEST PUSH8 0xDE0B6B3A7640000 DUP2 JUMP JUMPDEST PUSH1 0x9 PUSH1 0x20 MSTORE DUP1 PUSH0 MSTORE PUSH1 0x40 PUSH0 KECCAK256 PUSH0 SWAP2 POP SWAP1 POP DUP1 PUSH0 ADD PUSH0 SWAP1 SLOAD SWAP1 PUSH2 0x100 EXP SWAP1 DIV PUSH20 0xFFFFFFFFFFFFFFFFFFFFFFFFFFFFFFFFFFFFFFFF AND SWAP1 DUP1 PUSH1 0x2 ADD SLOAD SWAP1 DUP1 PUSH1 0x3 ADD SLOAD SWAP1 DUP1 PUSH1 0x4 ADD SLOAD SWAP1 DUP1 PUSH1 0x5 ADD SLOAD SWAP1 DUP1 PUSH1 0x6 ADD SLOAD SWAP1 DUP1 PUSH1 0x7 ADD SLOAD SWAP1 DUP1 PUSH1 0x8 ADD SLOAD SWAP1 DUP1 PUSH1 0x9 ADD SLOAD SWAP1 DUP1 PUSH1 0xA ADD SLOAD SWAP1 POP DUP11 JUMP JUMPDEST PUSH1 0x19 DUP2 JUMP JUMPDEST PUSH1 0x16 DUP2 DUP2 SLOAD DUP2 LT PUSH2 0x814 JUMPI PUSH0 DUP1 REVERT JUMPDEST SWAP1 PUSH0 MSTORE PUSH1 0x20 PUSH0 KECCAK256 ADD PUSH0 SWAP2 POP SWAP1 POP SLOAD DUP2 JUMP JUMPDEST PUSH0 PUSH1 0x9 PUSH0 DUP4 DUP2 MSTORE PUSH1 0x20 ADD SWAP1 DUP2 MSTORE PUSH1 0x20 ADD PUSH0 KECCAK256 SWAP1 POP CALLER PUSH20 0xFFFFFFFFFFFFFFFFFFFFFFFFFFFFFFFFFFFFFFFF AND DUP2 PUSH0 ADD PUSH0 SWAP1 SLOAD SWAP1 PUSH2 0x100 EXP SWAP1 DIV PUSH20 0xFFFFFFFFFFFFFFFFFFFFFFFFFFFFFFFFFFFFFFFF AND PUSH20 0xFFFFFFFFFFFFFFFFFFFFFFFFFFFFFFFFFFFFFFFF AND EQ PUSH2 0x8C9 JUMPI PUSH1 0x40 MLOAD PUSH32 0x8C379A000000000000000000000000000000000000000000000000000000000 DUP2 MSTORE PUSH1 0x4 ADD PUSH2 0x8C0 SWAP1 PUSH2 0x2BB4 JUMP JUMPDEST PUSH1 0x40 MLOAD DUP1 SWAP2 SUB SWAP1 REVERT JUMPDEST PUSH1 0xF DUP2 PUSH1 0x6 ADD SLOAD LT PUSH2 0x910 JUMPI PUSH1 0x40 MLOAD PUSH32 0x8C379A000000000000000000000000000000000000000000000000000000000 DUP2 MSTORE PUSH1 0x4 ADD PUSH2 0x907 SWAP1 PUSH2 0x2C1C JUMP JUMPDEST PUSH1 0x40 MLOAD DUP1 SWAP2 SUB SWAP1 REVERT JUMPDEST PUSH0 DUP2 PUSH1 0x6 ADD SLOAD SWAP1 POP PUSH0 PUSH1 0x7 DUP3 DUP2 SLOAD DUP2 LT PUSH2 0x92D JUMPI PUSH2 0x92C PUSH2 0x2C3A JUMP JUMPDEST JUMPDEST SWAP1 PUSH0 MSTORE PUSH1 0x20 PUSH0 KECCAK256 ADD SLOAD SWAP1 POP PUSH0 DUP1 SLOAD SWAP1 PUSH2 0x100 EXP SWAP1 DIV PUSH20 0xFFFFFFFFFFFFFFFFFFFFFFFFFFFFFFFFFFFFFFFF AND PUSH20 0xFFFFFFFFFFFFFFFFFFFFFFFFFFFFFFFFFFFFFFFF AND PUSH4 0x23B872DD CALLER ADDRESS DUP5 PUSH1 0x40 MLOAD DUP5 PUSH4 0xFFFFFFFF AND PUSH1 0xE0 SHL DUP2 MSTORE PUSH1 0x4 ADD PUSH2 0x994 SWAP4 SWAP3 SWAP2 SWAP1 PUSH2 0x2C67 JUMP JUMPDEST PUSH1 0x20 PUSH1 0x40 MLOAD DUP1 DUP4 SUB DUP2 PUSH0 DUP8 GAS CALL ISZERO DUP1 ISZERO PUSH2 0x9B0 JUMPI RETURNDATASIZE PUSH0 DUP1 RETURNDATACOPY RETURNDATASIZE PUSH0 REVERT JUMPDEST POP POP POP POP PUSH1 0x40 MLOAD RETURNDATASIZE PUSH1 0x1F NOT PUSH1 0x1F DUP3 ADD AND DUP3 ADD DUP1 PUSH1 0x40 MSTORE POP DUP2 ADD SWAP1 PUSH2 0x9D4 SWAP2 SWAP1 PUSH2 0x2CD1 JUMP JUMPDEST POP PUSH1 0x1 DUP4 PUSH1 0x6 ADD PUSH0 DUP3 DUP3 SLOAD PUSH2 0x9E9 SWAP2 SWAP1 PUSH2 0x2CFC JUMP JUMPDEST SWAP3 POP POP DUP2 SWAP1 SSTORE POP DUP1 DUP4 PUSH1 0x9 ADD PUSH0 DUP3 DUP3 SLOAD PUSH2 0xA03 SWAP2 SWAP1 PUSH2 0x2CFC JUMP JUMPDEST SWAP3 POP POP DUP2 SWAP1 SSTORE POP DUP3 PUSH1 0x1 ADD PUSH1 0x40 MLOAD DUP1 PUSH1 0x60 ADD PUSH1 0x40 MSTORE DUP1 DUP4 DUP2 MSTORE PUSH1 0x20 ADD PUSH0 DUP2 MSTORE PUSH1 0x20 ADD TIMESTAMP DUP2 MSTORE POP SWAP1 DUP1 PUSH1 0x1 DUP2 SLOAD ADD DUP1 DUP3 SSTORE DUP1 SWAP2 POP POP PUSH1 0x1 SWAP1 SUB SWAP1 PUSH0 MSTORE PUSH1 0x20 PUSH0 KECCAK256 SWAP1 PUSH1 0x3 MUL ADD PUSH0 SWAP1 SWAP2 SWAP1 SWAP2 SWAP1 SWAP2 POP PUSH0 DUP3 ADD MLOAD DUP2 PUSH0 ADD SSTORE PUSH1 0x20 DUP3 ADD MLOAD DUP2 PUSH1 0x1 ADD SSTORE PUSH1 0x40 DUP3 ADD MLOAD DUP2 PUSH1 0x2 ADD SSTORE POP POP PUSH0 PUSH1 0x64 PUSH1 0x5 DUP4 PUSH2 0xA7D SWAP2 SWAP1 PUSH2 0x2D2F JUMP JUMPDEST PUSH2 0xA87 SWAP2 SWAP1 PUSH2 0x2B2A JUMP JUMPDEST SWAP1 POP PUSH0 PUSH1 0x64 PUSH1 0x23 DUP5 PUSH2 0xA99 SWAP2 SWAP1 PUSH2 0x2D2F JUMP JUMPDEST PUSH2 0xAA3 SWAP2 SWAP1 PUSH2 0x2B2A JUMP JUMPDEST SWAP1 POP PUSH2 0xAAE DUP2 PUSH2 0x177B JUMP JUMPDEST PUSH2 0xAB7 DUP3 PUSH2 0x17E9 JUMP JUMPDEST PUSH0 PUSH1 0x64 PUSH1 0xF DUP6 PUSH2 0xAC7 SWAP2 SWAP1 PUSH2 0x2D2F JUMP JUMPDEST PUSH2 0xAD1 SWAP2 SWAP1 PUSH2 0x2B2A JUMP JUMPDEST SWAP1 POP PUSH2 0xAEF DUP7 PUSH1 0x4 ADD SLOAD DUP9 DUP4 PUSH1 0x1 DUP10 PUSH2 0xAEA SWAP2 SWAP1 PUSH2 0x2CFC JUMP JUMPDEST PUSH2 0x1A37 JUMP JUMPDEST PUSH0 PUSH1 0x64 PUSH1 0xF DUP7 PUSH2 0xAFF SWAP2 SWAP1 PUSH2 0x2D2F JUMP JUMPDEST PUSH2 0xB09 SWAP2 SWAP1 PUSH2 0x2B2A JUMP JUMPDEST SWAP1 POP PUSH2 0xB27 DUP8 PUSH1 0x5 ADD SLOAD DUP10 DUP4 PUSH1 0x1 DUP11 PUSH2 0xB22 SWAP2 SWAP1 PUSH2 0x2CFC JUMP JUMPDEST PUSH2 0x1CEE JUMP JUMPDEST PUSH0 PUSH1 0x64 PUSH1 0xF DUP8 PUSH2 0xB37 SWAP2 SWAP1 PUSH2 0x2D2F JUMP JUMPDEST PUSH2 0xB41 SWAP2 SWAP1 PUSH2 0x2B2A JUMP JUMPDEST SWAP1 POP PUSH2 0xB60 DUP9 PUSH1 0x5 ADD SLOAD DUP11 DUP4 PUSH1 0x1 DUP12 PUSH2 0xB5A SWAP2 SWAP1 PUSH2 0x2CFC JUMP JUMPDEST DUP12 PUSH2 0x2049 JUMP JUMPDEST DUP9 CALLER PUSH20 0xFFFFFFFFFFFFFFFFFFFFFFFFFFFFFFFFFFFFFFFF AND PUSH32 0x13EA485B1D8135315E770779887880798AC429F039A7C5CA3FF5F6F99A95B587 PUSH1 0x1 DUP11 PUSH2 0xBA6 SWAP2 SWAP1 PUSH2 0x2CFC JUMP JUMPDEST PUSH1 0x40 MLOAD PUSH2 0xBB3 SWAP2 SWAP1 PUSH2 0x268F JUMP JUMPDEST PUSH1 0x40 MLOAD DUP1 SWAP2 SUB SWAP1 LOG3 POP POP POP POP POP POP POP POP POP JUMP JUMPDEST PUSH1 0xA PUSH1 0x20 MSTORE DUP1 PUSH0 MSTORE PUSH1 0x40 PUSH0 KECCAK256 PUSH0 SWAP2 POP SWAP1 POP DUP1 PUSH0 ADD SLOAD SWAP1 DUP1 PUSH1 0x1 ADD SLOAD SWAP1 DUP1 PUSH1 0x2 ADD SLOAD SWAP1 DUP1 PUSH1 0x3 ADD SLOAD SWAP1 DUP1 PUSH1 0x4 ADD SLOAD SWAP1 DUP1 PUSH1 0x5 ADD SLOAD SWAP1 DUP1 PUSH1 0x6 ADD SLOAD SWAP1 DUP1 PUSH1 0x7 ADD SLOAD SWAP1 POP DUP9 JUMP JUMPDEST PUSH1 0x15 SLOAD DUP2 JUMP JUMPDEST PUSH1 0xA DUP2 JUMP JUMPDEST PUSH1 0xC PUSH1 0x20 MSTORE DUP3 PUSH0 MSTORE PUSH1 0x40 PUSH0 KECCAK256 PUSH1 0x20 MSTORE DUP2 PUSH0 MSTORE PUSH1 0x40 PUSH0 KECCAK256 DUP2 DUP2 SLOAD DUP2 LT PUSH2 0xC38 JUMPI PUSH0 DUP1 REVERT JUMPDEST SWAP1 PUSH0 MSTORE PUSH1 0x20 PUSH0 KECCAK256 ADD PUSH0 SWAP3 POP SWAP3 POP POP POP SLOAD DUP2 JUMP JUMPDEST PUSH1 0xE PUSH1 0x20 MSTORE DUP2 PUSH0 MSTORE PUSH1 0x40 PUSH0 KECCAK256 DUP2 DUP2 SLOAD DUP2 LT PUSH2 0xC64 JUMPI PUSH0 DUP1 REVERT JUMPDEST SWAP1 PUSH0 MSTORE PUSH1 0x20 PUSH0 KECCAK256 ADD PUSH0 SWAP2 POP SWAP2 POP POP SLOAD DUP2 JUMP JUMPDEST PUSH1 0xB PUSH1 0x20 MSTORE DUP2 PUSH0 MSTORE PUSH1 0x40 PUSH0 KECCAK256 DUP2 DUP2 SLOAD DUP2 LT PUSH2 0xC8F JUMPI PUSH0 DUP1 REVERT JUMPDEST SWAP1 PUSH0 MSTORE PUSH1 0x20 PUSH0 KECCAK256 SWAP1 PUSH1 0x5 MUL ADD PUSH0 SWAP2 POP SWAP2 POP POP DUP1 PUSH0 ADD SLOAD SWAP1 DUP1 PUSH1 0x1 ADD SLOAD SWAP1 DUP1 PUSH1 0x2 ADD SLOAD SWAP1 DUP1 PUSH1 0x3 ADD SLOAD SWAP1 DUP1 PUSH1 0x4 ADD SLOAD SWAP1 POP DUP6 JUMP JUMPDEST PUSH1 0xF PUSH1 0x20 MSTORE DUP1 PUSH0 MSTORE PUSH1 0x40 PUSH0 KECCAK256 PUSH0 SWAP2 POP SWAP1 POP DUP1 PUSH0 ADD SLOAD SWAP1 DUP1 PUSH1 0x1 ADD SLOAD SWAP1 DUP1 PUSH1 0x2 ADD SLOAD SWAP1 DUP1 PUSH1 0x3 ADD SLOAD SWAP1 DUP1 PUSH1 0x4 ADD SLOAD SWAP1 DUP1 PUSH1 0x5 ADD SLOAD SWAP1 POP DUP7 JUMP JUMPDEST PUSH1 0x10 SLOAD DUP2 JUMP JUMPDEST PUSH1 0x2 PUSH0 SWAP1 SLOAD SWAP1 PUSH2 0x100 EXP SWAP1 DIV PUSH20 0xFFFFFFFFFFFFFFFFFFFFFFFFFFFFFFFFFFFFFFFF AND DUP2 JUMP JUMPDEST PUSH1 0x13 PUSH0 SWAP1 SLOAD SWAP1 PUSH2 0x100 EXP SWAP1 DIV PUSH20 0xFFFFFFFFFFFFFFFFFFFFFFFFFFFFFFFFFFFFFFFF AND DUP2 JUMP JUMPDEST PUSH1 0xD PUSH1 0x20 MSTORE DUP1 PUSH0 MSTORE PUSH1 0x40 PUSH0 KECCAK256 PUSH0 SWAP2 POP SWAP1 POP SLOAD DUP2 JUMP JUMPDEST PUSH1 0x1 PUSH0 SWAP1 SLOAD SWAP1 PUSH2 0x100 EXP SWAP1 DIV PUSH20 0xFFFFFFFFFFFFFFFFFFFFFFFFFFFFFFFFFFFFFFFF AND DUP2 JUMP JUMPDEST PUSH1 0x6 SLOAD DUP2 JUMP JUMPDEST PUSH1 0x7 DUP2 DUP2 SLOAD DUP2 LT PUSH2 0xD99 JUMPI PUSH0 DUP1 REVERT JUMPDEST SWAP1 PUSH0 MSTORE PUSH1 0x20 PUSH0 KECCAK256 ADD PUSH0 SWAP2 POP SWAP1 POP SLOAD DUP2 JUMP JUMPDEST PUSH1 0x8 PUSH1 0x20 MSTORE DUP1 PUSH0 MSTORE PUSH1 0x40 PUSH0 KECCAK256 PUSH0 SWAP2 POP SWAP1 POP SLOAD DUP2 JUMP JUMPDEST PUSH0 PUSH1 0x9 PUSH0 DUP4 DUP2 MSTORE PUSH1 0x20 ADD SWAP1 DUP2 MSTORE PUSH1 0x20 ADD PUSH0 KECCAK256 SWAP1 POP PUSH0 DUP2 PUSH1 0x3 ADD SLOAD SUB PUSH2 0xE19 JUMPI PUSH1 0x40 MLOAD PUSH32 0x8C379A000000000000000000000000000000000000000000000000000000000 DUP2 MSTORE PUSH1 0x4 ADD PUSH2 0xE10 SWAP1 PUSH2 0x2DBA JUMP JUMPDEST PUSH1 0x40 MLOAD DUP1 SWAP2 SUB SWAP1 REVERT JUMPDEST CALLER PUSH20 0xFFFFFFFFFFFFFFFFFFFFFFFFFFFFFFFFFFFFFFFF AND DUP2 PUSH0 ADD PUSH0 SWAP1 SLOAD SWAP1 PUSH2 0x100 EXP SWAP1 DIV PUSH20 0xFFFFFFFFFFFFFFFFFFFFFFFFFFFFFFFFFFFFFFFF AND PUSH20 0xFFFFFFFFFFFFFFFFFFFFFFFFFFFFFFFFFFFFFFFF AND EQ PUSH2 0xEA9 JUMPI PUSH1 0x40 MLOAD PUSH32 0x8C379A000000000000000000000000000000000000000000000000000000000 DUP2 MSTORE PUSH1 0x4 ADD PUSH2 0xEA0 SWAP1 PUSH2 0x2BB4 JUMP JUMPDEST PUSH1 0x40 MLOAD DUP1 SWAP2 SUB SWAP1 REVERT JUMPDEST PUSH0 PUSH1 0x10 SLOAD SWAP1 POP PUSH0 PUSH1 0x11 PUSH0 DUP6 DUP2 MSTORE PUSH1 0x20 ADD SWAP1 DUP2 MSTORE PUSH1 0x20 ADD PUSH0 KECCAK256 SLOAD SWAP1 POP DUP1 DUP3 SUB PUSH2 0xED3 JUMPI POP POP POP PUSH2 0x113F JUMP JUMPDEST PUSH0 PUSH8 0xDE0B6B3A7640000 DUP3 DUP5 PUSH2 0xEE9 SWAP2 SWAP1 PUSH2 0x2ACA JUMP JUMPDEST PUSH2 0xEF3 SWAP2 SWAP1 PUSH2 0x2B2A JUMP JUMPDEST SWAP1 POP PUSH0 DUP2 SUB PUSH2 0xF1B JUMPI DUP3 PUSH1 0x11 PUSH0 DUP8 DUP2 MSTORE PUSH1 0x20 ADD SWAP1 DUP2 MSTORE PUSH1 0x20 ADD PUSH0 KECCAK256 DUP2 SWAP1 SSTORE POP POP POP POP POP PUSH2 0x113F JUMP JUMPDEST PUSH0 PUSH2 0xF26 DUP7 DUP4 PUSH2 0x16D5 JUMP JUMPDEST SWAP1 POP DUP4 PUSH1 0x11 PUSH0 DUP9 DUP2 MSTORE PUSH1 0x20 ADD SWAP1 DUP2 MSTORE PUSH1 0x20 ADD PUSH0 KECCAK256 DUP2 SWAP1 SSTORE POP PUSH0 DUP2 GT ISZERO PUSH2 0x111C JUMPI PUSH0 PUSH1 0xA PUSH0 DUP9 DUP2 MSTORE PUSH1 0x20 ADD SWAP1 DUP2 MSTORE PUSH1 0x20 ADD PUSH0 KECCAK256 SWAP1 POP DUP2 DUP2 PUSH0 ADD PUSH0 DUP3 DUP3 SLOAD PUSH2 0xF6C SWAP2 SWAP1 PUSH2 0x2CFC JUMP JUMPDEST SWAP3 POP POP DUP2 SWAP1 SSTORE POP DUP2 DUP2 PUSH1 0x7 ADD PUSH0 DUP3 DUP3 SLOAD PUSH2 0xF86 SWAP2 SWAP1 PUSH2 0x2CFC JUMP JUMPDEST SWAP3 POP POP DUP2 SWAP1 SSTORE POP PUSH1 0xB PUSH0 DUP9 DUP2 MSTORE PUSH1 0x20 ADD SWAP1 DUP2 MSTORE PUSH1 0x20 ADD PUSH0 KECCAK256 PUSH1 0x40 MLOAD DUP1 PUSH1 0xA0 ADD PUSH1 0x40 MSTORE DUP1 DUP10 DUP2 MSTORE PUSH1 0x20 ADD DUP5 DUP2 MSTORE PUSH1 0x20 ADD PUSH1 0x1 DUP2 MSTORE PUSH1 0x20 ADD TIMESTAMP DUP2 MSTORE PUSH1 0x20 ADD PUSH1 0x9 DUP2 MSTORE POP SWAP1 DUP1 PUSH1 0x1 DUP2 SLOAD ADD DUP1 DUP3 SSTORE DUP1 SWAP2 POP POP PUSH1 0x1 SWAP1 SUB SWAP1 PUSH0 MSTORE PUSH1 0x20 PUSH0 KECCAK256 SWAP1 PUSH1 0x5 MUL ADD PUSH0 SWAP1 SWAP2 SWAP1 SWAP2 SWAP1 SWAP2 POP PUSH0 DUP3 ADD MLOAD DUP2 PUSH0 ADD SSTORE PUSH1 0x20 DUP3 ADD MLOAD DUP2 PUSH1 0x1 ADD SSTORE PUSH1 0x40 DUP3 ADD MLOAD DUP2 PUSH1 0x2 ADD SSTORE PUSH1 0x60 DUP3 ADD MLOAD DUP2 PUSH1 0x3 ADD SSTORE PUSH1 0x80 DUP3 ADD MLOAD DUP2 PUSH1 0x4 ADD SSTORE POP POP PUSH0 DUP1 SLOAD SWAP1 PUSH2 0x100 EXP SWAP1 DIV PUSH20 0xFFFFFFFFFFFFFFFFFFFFFFFFFFFFFFFFFFFFFFFF AND PUSH20 0xFFFFFFFFFFFFFFFFFFFFFFFFFFFFFFFFFFFFFFFF AND PUSH4 0xA9059CBB DUP8 PUSH0 ADD PUSH0 SWAP1 SLOAD SWAP1 PUSH2 0x100 EXP SWAP1 DIV PUSH20 0xFFFFFFFFFFFFFFFFFFFFFFFFFFFFFFFFFFFFFFFF AND DUP5 PUSH1 0x40 MLOAD DUP4 PUSH4 0xFFFFFFFF AND PUSH1 0xE0 SHL DUP2 MSTORE PUSH1 0x4 ADD PUSH2 0x109B SWAP3 SWAP2 SWAP1 PUSH2 0x2DD8 JUMP JUMPDEST PUSH1 0x20 PUSH1 0x40 MLOAD DUP1 DUP4 SUB DUP2 PUSH0 DUP8 GAS CALL ISZERO DUP1 ISZERO PUSH2 0x10B7 JUMPI RETURNDATASIZE PUSH0 DUP1 RETURNDATACOPY RETURNDATASIZE PUSH0 REVERT JUMPDEST POP POP POP POP PUSH1 0x40 MLOAD RETURNDATASIZE PUSH1 0x1F NOT PUSH1 0x1F DUP3 ADD AND DUP3 ADD DUP1 PUSH1 0x40 MSTORE POP DUP2 ADD SWAP1 PUSH2 0x10DB SWAP2 SWAP1 PUSH2 0x2CD1 JUMP JUMPDEST PUSH2 0x111A JUMPI PUSH1 0x40 MLOAD PUSH32 0x8C379A000000000000000000000000000000000000000000000000000000000 DUP2 MSTORE PUSH1 0x4 ADD PUSH2 0x1111 SWAP1 PUSH2 0x2E49 JUMP JUMPDEST PUSH1 0x40 MLOAD DUP1 SWAP2 SUB SWAP1 REVERT JUMPDEST POP JUMPDEST DUP1 DUP3 GT ISZERO PUSH2 0x1139 JUMPI PUSH2 0x1138 DUP2 DUP4 PUSH2 0x1133 SWAP2 SWAP1 PUSH2 0x2ACA JUMP JUMPDEST PUSH2 0x17E9 JUMP JUMPDEST JUMPDEST POP POP POP POP POP JUMPDEST POP JUMP JUMPDEST PUSH1 0x3 PUSH0 SWAP1 SLOAD SWAP1 PUSH2 0x100 EXP SWAP1 DIV PUSH20 0xFFFFFFFFFFFFFFFFFFFFFFFFFFFFFFFFFFFFFFFF AND DUP2 JUMP JUMPDEST PUSH1 0x5 SLOAD DUP2 JUMP JUMPDEST PUSH0 PUSH1 0x8 PUSH0 CALLER PUSH20 0xFFFFFFFFFFFFFFFFFFFFFFFFFFFFFFFFFFFFFFFF AND PUSH20 0xFFFFFFFFFFFFFFFFFFFFFFFFFFFFFFFFFFFFFFFF AND DUP2 MSTORE PUSH1 0x20 ADD SWAP1 DUP2 MSTORE PUSH1 0x20 ADD PUSH0 KECCAK256 SLOAD EQ PUSH2 0x11EC JUMPI PUSH1 0x40 MLOAD PUSH32 0x8C379A000000000000000000000000000000000000000000000000000000000 DUP2 MSTORE PUSH1 0x4 ADD PUSH2 0x11E3 SWAP1 PUSH2 0x2EB1 JUMP JUMPDEST PUSH1 0x40 MLOAD DUP1 SWAP2 SUB SWAP1 REVERT JUMPDEST PUSH0 PUSH1 0x9 PUSH0 DUP4 DUP2 MSTORE PUSH1 0x20 ADD SWAP1 DUP2 MSTORE PUSH1 0x20 ADD PUSH0 KECCAK256 PUSH1 0x3 ADD SLOAD GT PUSH2 0x1242 JUMPI PUSH1 0x40 MLOAD PUSH32 0x8C379A000000000000000000000000000000000000000000000000000000000 DUP2 MSTORE PUSH1 0x4 ADD PUSH2 0x1239 SWAP1 PUSH2 0x2F19 JUMP JUMPDEST PUSH1 0x40 MLOAD DUP1 SWAP2 SUB SWAP1 REVERT JUMPDEST PUSH0 DUP1 SLOAD SWAP1 PUSH2 0x100 EXP SWAP1 DIV PUSH20 0xFFFFFFFFFFFFFFFFFFFFFFFFFFFFFFFFFFFFFFFF AND PUSH20 0xFFFFFFFFFFFFFFFFFFFFFFFFFFFFFFFFFFFFFFFF AND PUSH4 0x23B872DD CALLER ADDRESS PUSH1 0x7 PUSH0 DUP2 SLOAD DUP2 LT PUSH2 0x1293 JUMPI PUSH2 0x1292 PUSH2 0x2C3A JUMP JUMPDEST JUMPDEST SWAP1 PUSH0 MSTORE PUSH1 0x20 PUSH0 KECCAK256 ADD SLOAD PUSH1 0x40 MLOAD DUP5 PUSH4 0xFFFFFFFF AND PUSH1 0xE0 SHL DUP2 MSTORE PUSH1 0x4 ADD PUSH2 0x12BA SWAP4 SWAP3 SWAP2 SWAP1 PUSH2 0x2C67 JUMP JUMPDEST PUSH1 0x20 PUSH1 0x40 MLOAD DUP1 DUP4 SUB DUP2 PUSH0 DUP8 GAS CALL ISZERO DUP1 ISZERO PUSH2 0x12D6 JUMPI RETURNDATASIZE PUSH0 DUP1 RETURNDATACOPY RETURNDATASIZE PUSH0 REVERT JUMPDEST POP POP POP POP PUSH1 0x40 MLOAD RETURNDATASIZE PUSH1 0x1F NOT PUSH1 0x1F DUP3 ADD AND DUP3 ADD DUP1 PUSH1 0x40 MSTORE POP DUP2 ADD SWAP1 PUSH2 0x12FA SWAP2 SWAP1 PUSH2 0x2CD1 JUMP JUMPDEST POP PUSH0 PUSH1 0x5 PUSH1 0x6 SLOAD PUSH2 0x130B SWAP2 SWAP1 PUSH2 0x2D2F JUMP JUMPDEST PUSH1 0x5 SLOAD PUSH2 0x1318 SWAP2 SWAP1 PUSH2 0x2CFC JUMP JUMPDEST SWAP1 POP DUP1 PUSH1 0x8 PUSH0 CALLER PUSH20 0xFFFFFFFFFFFFFFFFFFFFFFFFFFFFFFFFFFFFFFFF AND PUSH20 0xFFFFFFFFFFFFFFFFFFFFFFFFFFFFFFFFFFFFFFFF AND DUP2 MSTORE PUSH1 0x20 ADD SWAP1 DUP2 MSTORE PUSH1 0x20 ADD PUSH0 KECCAK256 DUP2 SWAP1 SSTORE POP PUSH0 PUSH1 0x9 PUSH0 DUP4 DUP2 MSTORE PUSH1 0x20 ADD SWAP1 DUP2 MSTORE PUSH1 0x20 ADD PUSH0 KECCAK256 SWAP1 POP CALLER DUP2 PUSH0 ADD PUSH0 PUSH2 0x100 EXP DUP2 SLOAD DUP2 PUSH20 0xFFFFFFFFFFFFFFFFFFFFFFFFFFFFFFFFFFFFFFFF MUL NOT AND SWAP1 DUP4 PUSH20 0xFFFFFFFFFFFFFFFFFFFFFFFFFFFFFFFFFFFFFFFF AND MUL OR SWAP1 SSTORE POP TIMESTAMP DUP2 PUSH1 0x2 ADD DUP2 SWAP1 SSTORE POP DUP2 DUP2 PUSH1 0x3 ADD DUP2 SWAP1 SSTORE POP DUP3 DUP2 PUSH1 0x4 ADD DUP2 SWAP1 SSTORE POP PUSH1 0x1 DUP2 PUSH1 0x6 ADD DUP2 SWAP1 SSTORE POP PUSH1 0x7 PUSH0 DUP2 SLOAD DUP2 LT PUSH2 0x13EA JUMPI PUSH2 0x13E9 PUSH2 0x2C3A JUMP JUMPDEST JUMPDEST SWAP1 PUSH0 MSTORE PUSH1 0x20 PUSH0 KECCAK256 ADD SLOAD DUP2 PUSH1 0x9 ADD DUP2 SWAP1 SSTORE POP TIMESTAMP DUP2 PUSH1 0xA ADD DUP2 SWAP1 SSTORE POP PUSH1 0x1 PUSH1 0x9 PUSH0 DUP6 DUP2 MSTORE PUSH1 0x20 ADD SWAP1 DUP2 MSTORE PUSH1 0x20 ADD PUSH0 KECCAK256 PUSH1 0x7 ADD PUSH0 DUP3 DUP3 SLOAD PUSH2 0x1428 SWAP2 SWAP1 PUSH2 0x2CFC JUMP JUMPDEST SWAP3 POP POP DUP2 SWAP1 SSTORE POP PUSH1 0xE PUSH0 DUP5 DUP2 MSTORE PUSH1 0x20 ADD SWAP1 DUP2 MSTORE PUSH1 0x20 ADD PUSH0 KECCAK256 DUP3 SWAP1 DUP1 PUSH1 0x1 DUP2 SLOAD ADD DUP1 DUP3 SSTORE DUP1 SWAP2 POP POP PUSH1 0x1 SWAP1 SUB SWAP1 PUSH0 MSTORE PUSH1 0x20 PUSH0 KECCAK256 ADD PUSH0 SWAP1 SWAP2 SWAP1 SWAP2 SWAP1 SWAP2 POP SSTORE PUSH1 0x16 DUP3 SWAP1 DUP1 PUSH1 0x1 DUP2 SLOAD ADD DUP1 DUP3 SSTORE DUP1 SWAP2 POP POP PUSH1 0x1 SWAP1 SUB SWAP1 PUSH0 MSTORE PUSH1 0x20 PUSH0 KECCAK256 ADD PUSH0 SWAP1 SWAP2 SWAP1 SWAP2 SWAP1 SWAP2 POP SSTORE PUSH1 0x10 SLOAD PUSH1 0x11 PUSH0 DUP5 DUP2 MSTORE PUSH1 0x20 ADD SWAP1 DUP2 MSTORE PUSH1 0x20 ADD PUSH0 KECCAK256 DUP2 SWAP1 SSTORE POP PUSH2 0x14AC DUP3 DUP5 PUSH2 0x21B5 JUMP JUMPDEST DUP1 PUSH1 0x1 ADD PUSH1 0x40 MLOAD DUP1 PUSH1 0x60 ADD PUSH1 0x40 MSTORE DUP1 PUSH1 0x7 PUSH0 DUP2 SLOAD DUP2 LT PUSH2 0x14CF JUMPI PUSH2 0x14CE PUSH2 0x2C3A JUMP JUMPDEST JUMPDEST SWAP1 PUSH0 MSTORE PUSH1 0x20 PUSH0 KECCAK256 ADD SLOAD DUP2 MSTORE PUSH1 0x20 ADD PUSH0 DUP2 MSTORE PUSH1 0x20 ADD TIMESTAMP DUP2 MSTORE POP SWAP1 DUP1 PUSH1 0x1 DUP2 SLOAD ADD DUP1 DUP3 SSTORE DUP1 SWAP2 POP POP PUSH1 0x1 SWAP1 SUB SWAP1 PUSH0 MSTORE PUSH1 0x20 PUSH0 KECCAK256 SWAP1 PUSH1 0x3 MUL ADD PUSH0 SWAP1 SWAP2 SWAP1 SWAP2 SWAP1 SWAP2 POP PUSH0 DUP3 ADD MLOAD DUP2 PUSH0 ADD SSTORE PUSH1 0x20 DUP3 ADD MLOAD DUP2 PUSH1 0x1 ADD SSTORE PUSH1 0x40 DUP3 ADD MLOAD DUP2 PUSH1 0x2 ADD SSTORE POP POP PUSH0 PUSH1 0x7 PUSH0 DUP2 SLOAD DUP2 LT PUSH2 0x1540 JUMPI PUSH2 0x153F PUSH2 0x2C3A JUMP JUMPDEST JUMPDEST SWAP1 PUSH0 MSTORE PUSH1 0x20 PUSH0 KECCAK256 ADD SLOAD SWAP1 POP PUSH0 PUSH1 0x64 PUSH1 0xA DUP4 PUSH2 0x155B SWAP2 SWAP1 PUSH2 0x2D2F JUMP JUMPDEST PUSH2 0x1565 SWAP2 SWAP1 PUSH2 0x2B2A JUMP JUMPDEST SWAP1 POP PUSH0 PUSH1 0x64 PUSH1 0x23 DUP5 PUSH2 0x1577 SWAP2 SWAP1 PUSH2 0x2D2F JUMP JUMPDEST PUSH2 0x1581 SWAP2 SWAP1 PUSH2 0x2B2A JUMP JUMPDEST SWAP1 POP PUSH1 0x64 PUSH1 0x5 DUP5 PUSH2 0x1592 SWAP2 SWAP1 PUSH2 0x2D2F JUMP JUMPDEST PUSH2 0x159C SWAP2 SWAP1 PUSH2 0x2B2A JUMP JUMPDEST PUSH1 0x12 PUSH0 DUP3 DUP3 SLOAD PUSH2 0x15AC SWAP2 SWAP1 PUSH2 0x2CFC JUMP JUMPDEST SWAP3 POP POP DUP2 SWAP1 SSTORE POP PUSH0 PUSH1 0x64 PUSH1 0x32 DUP6 PUSH2 0x15C3 SWAP2 SWAP1 PUSH2 0x2D2F JUMP JUMPDEST PUSH2 0x15CD SWAP2 SWAP1 PUSH2 0x2B2A JUMP JUMPDEST SWAP1 POP PUSH2 0x15D8 DUP2 PUSH2 0x177B JUMP JUMPDEST PUSH2 0x15E1 DUP4 PUSH2 0x17E9 JUMP JUMPDEST PUSH2 0x15F2 DUP6 PUSH1 0x4 ADD SLOAD DUP8 DUP5 PUSH1 0x1 PUSH2 0x1A37 JUMP JUMPDEST PUSH1 0x1 PUSH1 0x6 PUSH0 DUP3 DUP3 SLOAD PUSH2 0x1604 SWAP2 SWAP1 PUSH2 0x2CFC JUMP JUMPDEST SWAP3 POP POP DUP2 SWAP1 SSTORE POP DUP6 PUSH1 0x9 PUSH0 DUP10 DUP2 MSTORE PUSH1 0x20 ADD SWAP1 DUP2 MSTORE PUSH1 0x20 ADD PUSH0 KECCAK256 PUSH0 ADD PUSH0 SWAP1 SLOAD SWAP1 PUSH2 0x100 EXP SWAP1 DIV PUSH20 0xFFFFFFFFFFFFFFFFFFFFFFFFFFFFFFFFFFFFFFFF AND PUSH20 0xFFFFFFFFFFFFFFFFFFFFFFFFFFFFFFFFFFFFFFFF AND CALLER PUSH20 0xFFFFFFFFFFFFFFFFFFFFFFFFFFFFFFFFFFFFFFFF AND PUSH32 0x309BB360E8B69C23937CCC5FB01F9AEEEAD1C95A99604E175113FF82F2B1723A DUP9 PUSH1 0x5 ADD SLOAD PUSH1 0x40 MLOAD PUSH2 0x169F SWAP2 SWAP1 PUSH2 0x268F JUMP JUMPDEST PUSH1 0x40 MLOAD DUP1 SWAP2 SUB SWAP1 LOG4 POP POP POP POP POP POP POP JUMP JUMPDEST PUSH1 0x4 PUSH0 SWAP1 SLOAD SWAP1 PUSH2 0x100 EXP SWAP1 DIV PUSH20 0xFFFFFFFFFFFFFFFFFFFFFFFFFFFFFFFFFFFFFFFF AND DUP2 JUMP JUMPDEST PUSH0 DUP1 PUSH1 0x9 PUSH0 DUP6 DUP2 MSTORE PUSH1 0x20 ADD SWAP1 DUP2 MSTORE PUSH1 0x20 ADD PUSH0 KECCAK256 SWAP1 POP PUSH0 PUSH1 0xA PUSH0 DUP7 DUP2 MSTORE PUSH1 0x20 ADD SWAP1 DUP2 MSTORE PUSH1 0x20 ADD PUSH0 KECCAK256 SWAP1 POP PUSH1 0x7 DUP1 SLOAD SWAP1 POP DUP3 PUSH1 0x6 ADD SLOAD SUB PUSH2 0x1718 JUMPI DUP4 SWAP3 POP POP POP PUSH2 0x1775 JUMP JUMPDEST PUSH0 PUSH1 0xA PUSH1 0x19 DUP5 PUSH1 0x9 ADD SLOAD PUSH2 0x172C SWAP2 SWAP1 PUSH2 0x2D2F JUMP JUMPDEST PUSH2 0x1736 SWAP2 SWAP1 PUSH2 0x2B2A JUMP JUMPDEST SWAP1 POP DUP1 DUP3 PUSH0 ADD SLOAD LT PUSH2 0x174D JUMPI PUSH0 SWAP4 POP POP POP POP PUSH2 0x1775 JUMP JUMPDEST PUSH0 DUP3 PUSH0 ADD SLOAD DUP3 PUSH2 0x175D SWAP2 SWAP1 PUSH2 0x2ACA JUMP JUMPDEST SWAP1 POP DUP1 DUP7 GT PUSH2 0x176C JUMPI DUP6 PUSH2 0x176E JUMP JUMPDEST DUP1 JUMPDEST SWAP5 POP POP POP POP POP JUMPDEST SWAP3 SWAP2 POP POP JUMP JUMPDEST PUSH0 PUSH1 0x16 DUP1 SLOAD SWAP1 POP SWAP1 POP PUSH0 DUP2 EQ DUP1 PUSH2 0x1791 JUMPI POP PUSH0 DUP3 EQ JUMPDEST ISZERO PUSH2 0x17AE JUMPI PUSH0 DUP3 GT ISZERO PUSH2 0x17A8 JUMPI PUSH2 0x17A7 DUP3 PUSH2 0x17E9 JUMP JUMPDEST JUMPDEST POP PUSH2 0x17E6 JUMP JUMPDEST DUP1 PUSH8 0xDE0B6B3A7640000 DUP4 PUSH2 0x17C3 SWAP2 SWAP1 PUSH2 0x2D2F JUMP JUMPDEST PUSH2 0x17CD SWAP2 SWAP1 PUSH2 0x2B2A JUMP JUMPDEST PUSH1 0x10 PUSH0 DUP3 DUP3 SLOAD PUSH2 0x17DD SWAP2 SWAP1 PUSH2 0x2CFC JUMP JUMPDEST SWAP3 POP POP DUP2 SWAP1 SSTORE POP POP JUMPDEST POP JUMP JUMPDEST PUSH0 PUSH20 0xFFFFFFFFFFFFFFFFFFFFFFFFFFFFFFFFFFFFFFFF AND PUSH1 0x2 PUSH0 SWAP1 SLOAD SWAP1 PUSH2 0x100 EXP SWAP1 DIV PUSH20 0xFFFFFFFFFFFFFFFFFFFFFFFFFFFFFFFFFFFFFFFF AND PUSH20 0xFFFFFFFFFFFFFFFFFFFFFFFFFFFFFFFFFFFFFFFF AND SUB PUSH2 0x1878 JUMPI PUSH1 0x40 MLOAD PUSH32 0x8C379A000000000000000000000000000000000000000000000000000000000 DUP2 MSTORE PUSH1 0x4 ADD PUSH2 0x186F SWAP1 PUSH2 0x2F81 JUMP JUMPDEST PUSH1 0x40 MLOAD DUP1 SWAP2 SUB SWAP1 REVERT JUMPDEST PUSH0 PUSH1 0x64 PUSH1 0x32 DUP4 PUSH2 0x1888 SWAP2 SWAP1 PUSH2 0x2D2F JUMP JUMPDEST PUSH2 0x1892 SWAP2 SWAP1 PUSH2 0x2B2A JUMP JUMPDEST SWAP1 POP PUSH0 DUP2 SWAP1 POP PUSH0 DUP2 DUP5 PUSH2 0x18A5 SWAP2 SWAP1 PUSH2 0x2ACA JUMP JUMPDEST SWAP1 POP PUSH0 DUP1 SLOAD SWAP1 PUSH2 0x100 EXP SWAP1 DIV PUSH20 0xFFFFFFFFFFFFFFFFFFFFFFFFFFFFFFFFFFFFFFFF AND PUSH20 0xFFFFFFFFFFFFFFFFFFFFFFFFFFFFFFFFFFFFFFFF AND PUSH4 0xA9059CBB PUSH1 0x2 PUSH0 SWAP1 SLOAD SWAP1 PUSH2 0x100 EXP SWAP1 DIV PUSH20 0xFFFFFFFFFFFFFFFFFFFFFFFFFFFFFFFFFFFFFFFF AND DUP4 DUP7 PUSH2 0x1910 SWAP2 SWAP1 PUSH2 0x2CFC JUMP JUMPDEST PUSH1 0x40 MLOAD DUP4 PUSH4 0xFFFFFFFF AND PUSH1 0xE0 SHL DUP2 MSTORE PUSH1 0x4 ADD PUSH2 0x192D SWAP3 SWAP2 SWAP1 PUSH2 0x2DD8 JUMP JUMPDEST PUSH1 0x20 PUSH1 0x40 MLOAD DUP1 DUP4 SUB DUP2 PUSH0 DUP8 GAS CALL ISZERO DUP1 ISZERO PUSH2 0x1949 JUMPI RETURNDATASIZE PUSH0 DUP1 RETURNDATACOPY RETURNDATASIZE PUSH0 REVERT JUMPDEST POP POP POP POP PUSH1 0x40 MLOAD RETURNDATASIZE PUSH1 0x1F NOT PUSH1 0x1F DUP3 ADD AND DUP3 ADD DUP1 PUSH1 0x40 MSTORE POP DUP2 ADD SWAP1 PUSH2 0x196D SWAP2 SWAP1 PUSH2 0x2CD1 JUMP JUMPDEST POP PUSH0 PUSH1 0xA PUSH0 PUSH1 0x5 SLOAD DUP2 MSTORE PUSH1 0x20 ADD SWAP1 DUP2 MSTORE PUSH1 0x20 ADD PUSH0 KECCAK256 SWAP1 POP DUP5 DUP2 PUSH0 ADD PUSH0 DUP3 DUP3 SLOAD PUSH2 0x1996 SWAP2 SWAP1 PUSH2 0x2CFC JUMP JUMPDEST SWAP3 POP POP DUP2 SWAP1 SSTORE POP PUSH1 0xB PUSH0 PUSH1 0x5 SLOAD DUP2 MSTORE PUSH1 0x20 ADD SWAP1 DUP2 MSTORE PUSH1 0x20 ADD PUSH0 KECCAK256 PUSH1 0x40 MLOAD DUP1 PUSH1 0xA0 ADD PUSH1 0x40 MSTORE DUP1 PUSH0 DUP2 MSTORE PUSH1 0x20 ADD DUP8 DUP2 MSTORE PUSH1 0x20 ADD PUSH0 DUP2 MSTORE PUSH1 0x20 ADD TIMESTAMP DUP2 MSTORE PUSH1 0x20 ADD PUSH1 0x5 DUP2 MSTORE POP SWAP1 DUP1 PUSH1 0x1 DUP2 SLOAD ADD DUP1 DUP3 SSTORE DUP1 SWAP2 POP POP PUSH1 0x1 SWAP1 SUB SWAP1 PUSH0 MSTORE PUSH1 0x20 PUSH0 KECCAK256 SWAP1 PUSH1 0x5 MUL ADD PUSH0 SWAP1 SWAP2 SWAP1 SWAP2 SWAP1 SWAP2 POP PUSH0 DUP3 ADD MLOAD DUP2 PUSH0 ADD SSTORE PUSH1 0x20 DUP3 ADD MLOAD DUP2 PUSH1 0x1 ADD SSTORE PUSH1 0x40 DUP3 ADD MLOAD DUP2 PUSH1 0x2 ADD SSTORE PUSH1 0x60 DUP3 ADD MLOAD DUP2 PUSH1 0x3 ADD SSTORE PUSH1 0x80 DUP3 ADD MLOAD DUP2 PUSH1 0x4 ADD SSTORE POP POP POP POP POP POP POP JUMP JUMPDEST PUSH0 DUP5 EQ DUP1 PUSH2 0x1A46 JUMPI POP PUSH1 0x5 SLOAD DUP5 EQ JUMPDEST ISZERO PUSH2 0x1A59 JUMPI PUSH2 0x1A54 DUP3 PUSH2 0x17E9 JUMP JUMPDEST PUSH2 0x1CE8 JUMP JUMPDEST PUSH0 PUSH1 0x9 PUSH0 DUP7 DUP2 MSTORE PUSH1 0x20 ADD SWAP1 DUP2 MSTORE PUSH1 0x20 ADD PUSH0 KECCAK256 SWAP1 POP PUSH1 0x1 DUP3 EQ PUSH2 0x1A92 JUMPI PUSH1 0x2 DUP2 PUSH1 0x7 ADD SLOAD LT ISZERO PUSH2 0x1A91 JUMPI PUSH2 0x1A8B DUP4 PUSH2 0x17E9 JUMP JUMPDEST POP PUSH2 0x1CE8 JUMP JUMPDEST JUMPDEST PUSH0 DUP1 SLOAD SWAP1 PUSH2 0x100 EXP SWAP1 DIV PUSH20 0xFFFFFFFFFFFFFFFFFFFFFFFFFFFFFFFFFFFFFFFF AND PUSH20 0xFFFFFFFFFFFFFFFFFFFFFFFFFFFFFFFFFFFFFFFF AND PUSH4 0xA9059CBB DUP3 PUSH0 ADD PUSH0 SWAP1 SLOAD SWAP1 PUSH2 0x100 EXP SWAP1 DIV PUSH20 0xFFFFFFFFFFFFFFFFFFFFFFFFFFFFFFFFFFFFFFFF AND DUP6 PUSH1 0x40 MLOAD DUP4 PUSH4 0xFFFFFFFF AND PUSH1 0xE0 SHL DUP2 MSTORE PUSH1 0x4 ADD PUSH2 0x1B0E SWAP3 SWAP2 SWAP1 PUSH2 0x2DD8 JUMP JUMPDEST PUSH1 0x20 PUSH1 0x40 MLOAD DUP1 DUP4 SUB DUP2 PUSH0 DUP8 GAS CALL ISZERO DUP1 ISZERO PUSH2 0x1B2A JUMPI RETURNDATASIZE PUSH0 DUP1 RETURNDATACOPY RETURNDATASIZE PUSH0 REVERT JUMPDEST POP POP POP POP PUSH1 0x40 MLOAD RETURNDATASIZE PUSH1 0x1F NOT PUSH1 0x1F DUP3 ADD AND DUP3 ADD DUP1 PUSH1 0x40 MSTORE POP DUP2 ADD SWAP1 PUSH2 0x1B4E SWAP2 SWAP1 PUSH2 0x2CD1 JUMP JUMPDEST POP PUSH0 PUSH1 0xA PUSH0 DUP8 DUP2 MSTORE PUSH1 0x20 ADD SWAP1 DUP2 MSTORE PUSH1 0x20 ADD PUSH0 KECCAK256 SWAP1 POP DUP4 DUP2 PUSH0 ADD PUSH0 DUP3 DUP3 SLOAD PUSH2 0x1B75 SWAP2 SWAP1 PUSH2 0x2CFC JUMP JUMPDEST SWAP3 POP POP DUP2 SWAP1 SSTORE POP DUP4 DUP2 PUSH1 0x1 ADD PUSH0 DUP3 DUP3 SLOAD PUSH2 0x1B8F SWAP2 SWAP1 PUSH2 0x2CFC JUMP JUMPDEST SWAP3 POP POP DUP2 SWAP1 SSTORE POP PUSH1 0xB PUSH0 DUP8 DUP2 MSTORE PUSH1 0x20 ADD SWAP1 DUP2 MSTORE PUSH1 0x20 ADD PUSH0 KECCAK256 PUSH1 0x40 MLOAD DUP1 PUSH1 0xA0 ADD PUSH1 0x40 MSTORE DUP1 DUP8 DUP2 MSTORE PUSH1 0x20 ADD DUP7 DUP2 MSTORE PUSH1 0x20 ADD DUP6 DUP2 MSTORE PUSH1 0x20 ADD TIMESTAMP DUP2 MSTORE PUSH1 0x20 ADD PUSH1 0x1 DUP2 MSTORE POP SWAP1 DUP1 PUSH1 0x1 DUP2 SLOAD ADD DUP1 DUP3 SSTORE DUP1 SWAP2 POP POP PUSH1 0x1 SWAP1 SUB SWAP1 PUSH0 MSTORE PUSH1 0x20 PUSH0 KECCAK256 SWAP1 PUSH1 0x5 MUL ADD PUSH0 SWAP1 SWAP2 SWAP1 SWAP2 SWAP1 SWAP2 POP PUSH0 DUP3 ADD MLOAD DUP2 PUSH0 ADD SSTORE PUSH1 0x20 DUP3 ADD MLOAD DUP2 PUSH1 0x1 ADD SSTORE PUSH1 0x40 DUP3 ADD MLOAD DUP2 PUSH1 0x2 ADD SSTORE PUSH1 0x60 DUP3 ADD MLOAD DUP2 PUSH1 0x3 ADD SSTORE PUSH1 0x80 DUP3 ADD MLOAD DUP2 PUSH1 0x4 ADD SSTORE POP POP PUSH1 0x9 PUSH0 DUP7 DUP2 MSTORE PUSH1 0x20 ADD SWAP1 DUP2 MSTORE PUSH1 0x20 ADD PUSH0 KECCAK256 PUSH0 ADD PUSH0 SWAP1 SLOAD SWAP1 PUSH2 0x100 EXP SWAP1 DIV PUSH20 0xFFFFFFFFFFFFFFFFFFFFFFFFFFFFFFFFFFFFFFFF AND PUSH20 0xFFFFFFFFFFFFFFFFFFFFFFFFFFFFFFFFFFFFFFFF AND DUP3 PUSH0 ADD PUSH0 SWAP1 SLOAD SWAP1 PUSH2 0x100 EXP SWAP1 DIV PUSH20 0xFFFFFFFFFFFFFFFFFFFFFFFFFFFFFFFFFFFFFFFF AND PUSH20 0xFFFFFFFFFFFFFFFFFFFFFFFFFFFFFFFFFFFFFFFF AND PUSH32 0xE17B61D324CE17328F433D0AB62581C0F0AA997312BAE80FBDFCD2AA9B91D6E3 DUP7 DUP7 PUSH1 0x1 PUSH1 0x40 MLOAD PUSH2 0x1CDD SWAP4 SWAP3 SWAP2 SWAP1 PUSH2 0x2FD8 JUMP JUMPDEST PUSH1 0x40 MLOAD DUP1 SWAP2 SUB SWAP1 LOG3 POP POP JUMPDEST POP POP POP POP JUMP JUMPDEST PUSH0 PUSH1 0x1 SWAP1 POP PUSH1 0x5 SLOAD DUP6 EQ DUP1 PUSH2 0x1D02 JUMPI POP PUSH0 DUP6 EQ JUMPDEST ISZERO PUSH2 0x1D16 JUMPI PUSH2 0x1D10 DUP4 PUSH2 0x17E9 JUMP JUMPDEST POP PUSH2 0x2043 JUMP JUMPDEST PUSH0 DUP6 SWAP1 POP JUMPDEST DUP3 DUP3 LT ISZERO PUSH2 0x1D74 JUMPI DUP2 DUP1 PUSH2 0x1D2E SWAP1 PUSH2 0x300D JUMP JUMPDEST SWAP3 POP POP PUSH1 0x9 PUSH0 DUP3 DUP2 MSTORE PUSH1 0x20 ADD SWAP1 DUP2 MSTORE PUSH1 0x20 ADD PUSH0 KECCAK256 PUSH1 0x5 ADD SLOAD SWAP1 POP PUSH1 0x5 SLOAD DUP2 EQ DUP1 PUSH2 0x1D57 JUMPI POP PUSH0 DUP2 EQ JUMPDEST ISZERO PUSH2 0x1D6F JUMPI DUP3 SWAP2 POP PUSH2 0x1D68 DUP5 PUSH2 0x17E9 JUMP JUMPDEST POP POP PUSH2 0x2043 JUMP JUMPDEST PUSH2 0x1D1B JUMP JUMPDEST PUSH0 DUP2 SWAP1 POP PUSH0 SWAP3 POP JUMPDEST PUSH0 DUP2 EQ ISZERO DUP1 ISZERO PUSH2 0x1D8E JUMPI POP PUSH1 0x5 SLOAD DUP2 EQ ISZERO JUMPDEST DUP1 ISZERO PUSH2 0x1D9A JUMPI POP PUSH1 0xF DUP4 LT JUMPDEST ISZERO PUSH2 0x2036 JUMPI PUSH0 PUSH1 0x9 PUSH0 DUP4 DUP2 MSTORE PUSH1 0x20 ADD SWAP1 DUP2 MSTORE PUSH1 0x20 ADD PUSH0 KECCAK256 SWAP1 POP DUP5 DUP2 PUSH1 0x6 ADD SLOAD LT PUSH2 0x201B JUMPI PUSH0 DUP1 SLOAD SWAP1 PUSH2 0x100 EXP SWAP1 DIV PUSH20 0xFFFFFFFFFFFFFFFFFFFFFFFFFFFFFFFFFFFFFFFF AND PUSH20 0xFFFFFFFFFFFFFFFFFFFFFFFFFFFFFFFFFFFFFFFF AND PUSH4 0xA9059CBB DUP3 PUSH0 ADD PUSH0 SWAP1 SLOAD SWAP1 PUSH2 0x100 EXP SWAP1 DIV PUSH20 0xFFFFFFFFFFFFFFFFFFFFFFFFFFFFFFFFFFFFFFFF AND DUP9 PUSH1 0x40 MLOAD DUP4 PUSH4 0xFFFFFFFF AND PUSH1 0xE0 SHL DUP2 MSTORE PUSH1 0x4 ADD PUSH2 0x1E3A SWAP3 SWAP2 SWAP1 PUSH2 0x2DD8 JUMP JUMPDEST PUSH1 0x20 PUSH1 0x40 MLOAD DUP1 DUP4 SUB DUP2 PUSH0 DUP8 GAS CALL ISZERO DUP1 ISZERO PUSH2 0x1E56 JUMPI RETURNDATASIZE PUSH0 DUP1 RETURNDATACOPY RETURNDATASIZE PUSH0 REVERT JUMPDEST POP POP POP POP PUSH1 0x40 MLOAD RETURNDATASIZE PUSH1 0x1F NOT PUSH1 0x1F DUP3 ADD AND DUP3 ADD DUP1 PUSH1 0x40 MSTORE POP DUP2 ADD SWAP1 PUSH2 0x1E7A SWAP2 SWAP1 PUSH2 0x2CD1 JUMP JUMPDEST POP PUSH0 PUSH1 0xA PUSH0 DUP5 DUP2 MSTORE PUSH1 0x20 ADD SWAP1 DUP2 MSTORE PUSH1 0x20 ADD PUSH0 KECCAK256 SWAP1 POP DUP7 DUP2 PUSH0 ADD PUSH0 DUP3 DUP3 SLOAD PUSH2 0x1EA1 SWAP2 SWAP1 PUSH2 0x2CFC JUMP JUMPDEST SWAP3 POP POP DUP2 SWAP1 SSTORE POP DUP7 DUP2 PUSH1 0x2 ADD PUSH0 DUP3 DUP3 SLOAD PUSH2 0x1EBB SWAP2 SWAP1 PUSH2 0x2CFC JUMP JUMPDEST SWAP3 POP POP DUP2 SWAP1 SSTORE POP PUSH1 0xB PUSH0 DUP5 DUP2 MSTORE PUSH1 0x20 ADD SWAP1 DUP2 MSTORE PUSH1 0x20 ADD PUSH0 KECCAK256 PUSH1 0x40 MLOAD DUP1 PUSH1 0xA0 ADD PUSH1 0x40 MSTORE DUP1 DUP11 DUP2 MSTORE PUSH1 0x20 ADD DUP10 DUP2 MSTORE PUSH1 0x20 ADD DUP9 DUP2 MSTORE PUSH1 0x20 ADD TIMESTAMP DUP2 MSTORE PUSH1 0x20 ADD PUSH1 0x2 DUP2 MSTORE POP SWAP1 DUP1 PUSH1 0x1 DUP2 SLOAD ADD DUP1 DUP3 SSTORE DUP1 SWAP2 POP POP PUSH1 0x1 SWAP1 SUB SWAP1 PUSH0 MSTORE PUSH1 0x20 PUSH0 KECCAK256 SWAP1 PUSH1 0x5 MUL ADD PUSH0 SWAP1 SWAP2 SWAP1 SWAP2 SWAP1 SWAP2 POP PUSH0 DUP3 ADD MLOAD DUP2 PUSH0 ADD SSTORE PUSH1 0x20 DUP3 ADD MLOAD DUP2 PUSH1 0x1 ADD SSTORE PUSH1 0x40 DUP3 ADD MLOAD DUP2 PUSH1 0x2 ADD SSTORE PUSH1 0x60 DUP3 ADD MLOAD DUP2 PUSH1 0x3 ADD SSTORE PUSH1 0x80 DUP3 ADD MLOAD DUP2 PUSH1 0x4 ADD SSTORE POP POP PUSH1 0x9 PUSH0 DUP10 DUP2 MSTORE PUSH1 0x20 ADD SWAP1 DUP2 MSTORE PUSH1 0x20 ADD PUSH0 KECCAK256 PUSH0 ADD PUSH0 SWAP1 SLOAD SWAP1 PUSH2 0x100 EXP SWAP1 DIV PUSH20 0xFFFFFFFFFFFFFFFFFFFFFFFFFFFFFFFFFFFFFFFF AND PUSH20 0xFFFFFFFFFFFFFFFFFFFFFFFFFFFFFFFFFFFFFFFF AND DUP3 PUSH0 ADD PUSH0 SWAP1 SLOAD SWAP1 PUSH2 0x100 EXP SWAP1 DIV PUSH20 0xFFFFFFFFFFFFFFFFFFFFFFFFFFFFFFFFFFFFFFFF AND PUSH20 0xFFFFFFFFFFFFFFFFFFFFFFFFFFFFFFFFFFFFFFFF AND PUSH32 0xE17B61D324CE17328F433D0AB62581C0F0AA997312BAE80FBDFCD2AA9B91D6E3 DUP10 DUP10 PUSH1 0x2 PUSH1 0x40 MLOAD PUSH2 0x2009 SWAP4 SWAP3 SWAP2 SWAP1 PUSH2 0x308D JUMP JUMPDEST PUSH1 0x40 MLOAD DUP1 SWAP2 SUB SWAP1 LOG3 POP POP POP POP POP PUSH2 0x2043 JUMP JUMPDEST DUP1 PUSH1 0x5 ADD SLOAD SWAP2 POP DUP4 DUP1 PUSH2 0x202D SWAP1 PUSH2 0x300D JUMP JUMPDEST SWAP5 POP POP POP PUSH2 0x1D7C JUMP JUMPDEST PUSH2 0x203F DUP6 PUSH2 0x17E9 JUMP JUMPDEST POP POP POP JUMPDEST POP POP POP POP JUMP JUMPDEST PUSH0 DUP6 EQ DUP1 PUSH2 0x2058 JUMPI POP PUSH1 0x5 SLOAD DUP6 EQ JUMPDEST ISZERO PUSH2 0x206B JUMPI PUSH2 0x2066 DUP4 PUSH2 0x17E9 JUMP JUMPDEST PUSH2 0x21AE JUMP JUMPDEST PUSH0 DUP2 SWAP1 POP PUSH0 DUP2 SUB PUSH2 0x2085 JUMPI PUSH2 0x207F DUP5 PUSH2 0x17E9 JUMP JUMPDEST POP PUSH2 0x21AE JUMP JUMPDEST PUSH0 DUP2 DUP6 PUSH2 0x2092 SWAP2 SWAP1 PUSH2 0x2B2A JUMP JUMPDEST SWAP1 POP PUSH0 DUP3 DUP3 PUSH2 0x20A1 SWAP2 SWAP1 PUSH2 0x2D2F JUMP JUMPDEST DUP7 PUSH2 0x20AC SWAP2 SWAP1 PUSH2 0x2ACA JUMP JUMPDEST SWAP1 POP PUSH0 PUSH1 0x1 SWAP1 POP PUSH0 DUP10 SWAP1 POP PUSH0 JUMPDEST DUP6 DUP2 LT ISZERO PUSH2 0x2195 JUMPI PUSH0 DUP3 EQ ISZERO DUP1 ISZERO PUSH2 0x20D3 JUMPI POP PUSH1 0x5 SLOAD DUP3 EQ ISZERO JUMPDEST ISZERO PUSH2 0x2164 JUMPI DUP8 PUSH1 0x9 PUSH0 DUP5 DUP2 MSTORE PUSH1 0x20 ADD SWAP1 DUP2 MSTORE PUSH1 0x20 ADD PUSH0 KECCAK256 PUSH1 0x6 ADD SLOAD LT PUSH2 0x213D JUMPI PUSH0 JUMPDEST DUP4 DUP2 LT ISZERO PUSH2 0x211C JUMPI PUSH2 0x2109 DUP4 DUP13 DUP9 DUP13 PUSH2 0x242A JUMP JUMPDEST DUP1 DUP1 PUSH2 0x2114 SWAP1 PUSH2 0x300D JUMP JUMPDEST SWAP2 POP POP PUSH2 0x20F5 JUMP JUMPDEST POP PUSH1 0x9 PUSH0 DUP4 DUP2 MSTORE PUSH1 0x20 ADD SWAP1 DUP2 MSTORE PUSH1 0x20 ADD PUSH0 KECCAK256 PUSH1 0x5 ADD SLOAD SWAP2 POP PUSH1 0x1 SWAP3 POP PUSH2 0x2163 JUMP JUMPDEST PUSH1 0x9 PUSH0 DUP4 DUP2 MSTORE PUSH1 0x20 ADD SWAP1 DUP2 MSTORE PUSH1 0x20 ADD PUSH0 KECCAK256 PUSH1 0x5 ADD SLOAD SWAP2 POP DUP3 DUP1 PUSH2 0x215F SWAP1 PUSH2 0x300D JUMP JUMPDEST SWAP4 POP POP JUMPDEST JUMPDEST PUSH0 DUP3 EQ DUP1 PUSH2 0x2173 JUMPI POP PUSH1 0x5 SLOAD DUP3 EQ JUMPDEST ISZERO PUSH2 0x2182 JUMPI PUSH2 0x2181 DUP6 PUSH2 0x17E9 JUMP JUMPDEST JUMPDEST DUP1 DUP1 PUSH2 0x218D SWAP1 PUSH2 0x300D JUMP JUMPDEST SWAP2 POP POP PUSH2 0x20B9 JUMP JUMPDEST POP PUSH0 DUP4 GT ISZERO PUSH2 0x21A8 JUMPI PUSH2 0x21A7 DUP4 PUSH2 0x17E9 JUMP JUMPDEST JUMPDEST POP POP POP POP POP JUMPDEST POP POP POP POP POP JUMP JUMPDEST PUSH0 DUP1 PUSH1 0x2 PUSH1 0xD PUSH0 DUP6 DUP2 MSTORE PUSH1 0x20 ADD SWAP1 DUP2 MSTORE PUSH1 0x20 ADD PUSH0 KECCAK256 SLOAD LT ISZERO PUSH2 0x221A JUMPI DUP3 PUSH1 0x9 PUSH0 DUP7 DUP2 MSTORE PUSH1 0x20 ADD SWAP1 DUP2 MSTORE PUSH1 0x20 ADD PUSH0 KECCAK256 PUSH1 0x5 ADD DUP2 SWAP1 SSTORE POP PUSH1 0x1 PUSH1 0xD PUSH0 DUP6 DUP2 MSTORE PUSH1 0x20 ADD SWAP1 DUP2 MSTORE PUSH1 0x20 ADD PUSH0 KECCAK256 PUSH0 DUP3 DUP3 SLOAD PUSH2 0x220B SWAP2 SWAP1 PUSH2 0x2CFC JUMP JUMPDEST SWAP3 POP POP DUP2 SWAP1 SSTORE POP DUP3 SWAP1 POP PUSH2 0x2377 JUMP JUMPDEST PUSH0 JUMPDEST PUSH1 0xF DUP2 LT ISZERO PUSH2 0x2375 JUMPI DUP3 PUSH2 0x2375 JUMPI PUSH1 0x2 DUP2 PUSH2 0x2237 SWAP2 SWAP1 PUSH2 0x2CFC JUMP JUMPDEST PUSH1 0x2 PUSH2 0x2243 SWAP2 SWAP1 PUSH2 0x31F1 JUMP JUMPDEST PUSH1 0xC PUSH0 DUP7 DUP2 MSTORE PUSH1 0x20 ADD SWAP1 DUP2 MSTORE PUSH1 0x20 ADD PUSH0 KECCAK256 PUSH0 PUSH1 0x1 DUP5 PUSH2 0x2262 SWAP2 SWAP1 PUSH2 0x2CFC JUMP JUMPDEST DUP2 MSTORE PUSH1 0x20 ADD SWAP1 DUP2 MSTORE PUSH1 0x20 ADD PUSH0 KECCAK256 DUP1 SLOAD SWAP1 POP LT ISZERO PUSH2 0x2362 JUMPI PUSH0 JUMPDEST PUSH1 0xC PUSH0 DUP7 DUP2 MSTORE PUSH1 0x20 ADD SWAP1 DUP2 MSTORE PUSH1 0x20 ADD PUSH0 KECCAK256 PUSH0 DUP4 DUP2 MSTORE PUSH1 0x20 ADD SWAP1 DUP2 MSTORE PUSH1 0x20 ADD PUSH0 KECCAK256 DUP1 SLOAD SWAP1 POP DUP2 LT ISZERO PUSH2 0x2360 JUMPI DUP4 PUSH2 0x2360 JUMPI PUSH0 PUSH1 0xC PUSH0 DUP8 DUP2 MSTORE PUSH1 0x20 ADD SWAP1 DUP2 MSTORE PUSH1 0x20 ADD PUSH0 KECCAK256 PUSH0 DUP5 DUP2 MSTORE PUSH1 0x20 ADD SWAP1 DUP2 MSTORE PUSH1 0x20 ADD PUSH0 KECCAK256 DUP3 DUP2 SLOAD DUP2 LT PUSH2 0x22DE JUMPI PUSH2 0x22DD PUSH2 0x2C3A JUMP JUMPDEST JUMPDEST SWAP1 PUSH0 MSTORE PUSH1 0x20 PUSH0 KECCAK256 ADD SLOAD SWAP1 POP PUSH1 0x2 PUSH1 0xD PUSH0 DUP4 DUP2 MSTORE PUSH1 0x20 ADD SWAP1 DUP2 MSTORE PUSH1 0x20 ADD PUSH0 KECCAK256 SLOAD LT ISZERO PUSH2 0x234C JUMPI DUP1 PUSH1 0x9 PUSH0 DUP10 DUP2 MSTORE PUSH1 0x20 ADD SWAP1 DUP2 MSTORE PUSH1 0x20 ADD PUSH0 KECCAK256 PUSH1 0x5 ADD DUP2 SWAP1 SSTORE POP PUSH1 0x1 PUSH1 0xD PUSH0 DUP4 DUP2 MSTORE PUSH1 0x20 ADD SWAP1 DUP2 MSTORE PUSH1 0x20 ADD PUSH0 KECCAK256 PUSH0 DUP3 DUP3 SLOAD PUSH2 0x233D SWAP2 SWAP1 PUSH2 0x2CFC JUMP JUMPDEST SWAP3 POP POP DUP2 SWAP1 SSTORE POP DUP1 SWAP4 POP PUSH1 0x1 SWAP5 POP JUMPDEST POP DUP1 DUP1 PUSH2 0x2358 SWAP1 PUSH2 0x300D JUMP JUMPDEST SWAP2 POP POP PUSH2 0x227B JUMP JUMPDEST POP JUMPDEST DUP1 DUP1 PUSH2 0x236D SWAP1 PUSH2 0x300D JUMP JUMPDEST SWAP2 POP POP PUSH2 0x221C JUMP JUMPDEST POP JUMPDEST PUSH0 JUMPDEST PUSH1 0xF DUP2 LT ISZERO PUSH2 0x2423 JUMPI PUSH0 DUP3 SUB ISZERO PUSH2 0x2423 JUMPI PUSH1 0x1 PUSH1 0x9 PUSH0 DUP5 DUP2 MSTORE PUSH1 0x20 ADD SWAP1 DUP2 MSTORE PUSH1 0x20 ADD PUSH0 KECCAK256 PUSH1 0x8 ADD PUSH0 DUP3 DUP3 SLOAD PUSH2 0x23AE SWAP2 SWAP1 PUSH2 0x2CFC JUMP JUMPDEST SWAP3 POP POP DUP2 SWAP1 SSTORE POP PUSH1 0xC PUSH0 DUP4 DUP2 MSTORE PUSH1 0x20 ADD SWAP1 DUP2 MSTORE PUSH1 0x20 ADD PUSH0 KECCAK256 PUSH0 DUP3 DUP2 MSTORE PUSH1 0x20 ADD SWAP1 DUP2 MSTORE PUSH1 0x20 ADD PUSH0 KECCAK256 DUP6 SWAP1 DUP1 PUSH1 0x1 DUP2 SLOAD ADD DUP1 DUP3 SSTORE DUP1 SWAP2 POP POP PUSH1 0x1 SWAP1 SUB SWAP1 PUSH0 MSTORE PUSH1 0x20 PUSH0 KECCAK256 ADD PUSH0 SWAP1 SWAP2 SWAP1 SWAP2 SWAP1 SWAP2 POP SSTORE PUSH1 0x9 PUSH0 DUP4 DUP2 MSTORE PUSH1 0x20 ADD SWAP1 DUP2 MSTORE PUSH1 0x20 ADD PUSH0 KECCAK256 PUSH1 0x5 ADD SLOAD SWAP2 POP DUP1 DUP1 PUSH2 0x241B SWAP1 PUSH2 0x300D JUMP JUMPDEST SWAP2 POP POP PUSH2 0x2379 JUMP JUMPDEST POP POP POP POP POP JUMP JUMPDEST PUSH0 PUSH1 0x9 PUSH0 DUP7 DUP2 MSTORE PUSH1 0x20 ADD SWAP1 DUP2 MSTORE PUSH1 0x20 ADD PUSH0 KECCAK256 PUSH0 ADD PUSH0 SWAP1 SLOAD SWAP1 PUSH2 0x100 EXP SWAP1 DIV PUSH20 0xFFFFFFFFFFFFFFFFFFFFFFFFFFFFFFFFFFFFFFFF AND SWAP1 POP PUSH0 DUP1 SLOAD SWAP1 PUSH2 0x100 EXP SWAP1 DIV PUSH20 0xFFFFFFFFFFFFFFFFFFFFFFFFFFFFFFFFFFFFFFFF AND PUSH20 0xFFFFFFFFFFFFFFFFFFFFFFFFFFFFFFFFFFFFFFFF AND PUSH4 0xA9059CBB DUP3 DUP6 PUSH1 0x40 MLOAD DUP4 PUSH4 0xFFFFFFFF AND PUSH1 0xE0 SHL DUP2 MSTORE PUSH1 0x4 ADD PUSH2 0x24BA SWAP3 SWAP2 SWAP1 PUSH2 0x2DD8 JUMP JUMPDEST PUSH1 0x20 PUSH1 0x40 MLOAD DUP1 DUP4 SUB DUP2 PUSH0 DUP8 GAS CALL ISZERO DUP1 ISZERO PUSH2 0x24D6 JUMPI RETURNDATASIZE PUSH0 DUP1 RETURNDATACOPY RETURNDATASIZE PUSH0 REVERT JUMPDEST POP POP POP POP PUSH1 0x40 MLOAD RETURNDATASIZE PUSH1 0x1F NOT PUSH1 0x1F DUP3 ADD AND DUP3 ADD DUP1 PUSH1 0x40 MSTORE POP DUP2 ADD SWAP1 PUSH2 0x24FA SWAP2 SWAP1 PUSH2 0x2CD1 JUMP JUMPDEST POP PUSH0 PUSH1 0xA PUSH0 DUP8 DUP2 MSTORE PUSH1 0x20 ADD SWAP1 DUP2 MSTORE PUSH1 0x20 ADD PUSH0 KECCAK256 SWAP1 POP DUP4 DUP2 PUSH0 ADD PUSH0 DUP3 DUP3 SLOAD PUSH2 0x2521 SWAP2 SWAP1 PUSH2 0x2CFC JUMP JUMPDEST SWAP3 POP POP DUP2 SWAP1 SSTORE POP DUP4 DUP2 PUSH1 0x3 ADD PUSH0 DUP3 DUP3 SLOAD PUSH2 0x253B SWAP2 SWAP1 PUSH2 0x2CFC JUMP JUMPDEST SWAP3 POP POP DUP2 SWAP1 SSTORE POP PUSH1 0xB PUSH0 DUP8 DUP2 MSTORE PUSH1 0x20 ADD SWAP1 DUP2 MSTORE PUSH1 0x20 ADD PUSH0 KECCAK256 PUSH1 0x40 MLOAD DUP1 PUSH1 0xA0 ADD PUSH1 0x40 MSTORE DUP1 DUP8 DUP2 MSTORE PUSH1 0x20 ADD DUP7 DUP2 MSTORE PUSH1 0x20 ADD DUP6 DUP2 MSTORE PUSH1 0x20 ADD TIMESTAMP DUP2 MSTORE PUSH1 0x20 ADD PUSH1 0x4 DUP2 MSTORE POP SWAP1 DUP1 PUSH1 0x1 DUP2 SLOAD ADD DUP1 DUP3 SSTORE DUP1 SWAP2 POP POP PUSH1 0x1 SWAP1 SUB SWAP1 PUSH0 MSTORE PUSH1 0x20 PUSH0 KECCAK256 SWAP1 PUSH1 0x5 MUL ADD PUSH0 SWAP1 SWAP2 SWAP1 SWAP2 SWAP1 SWAP2 POP PUSH0 DUP3 ADD MLOAD DUP2 PUSH0 ADD SSTORE PUSH1 0x20 DUP3 ADD MLOAD DUP2 PUSH1 0x1 ADD SSTORE PUSH1 0x40 DUP3 ADD MLOAD DUP2 PUSH1 0x2 ADD SSTORE PUSH1 0x60 DUP3 ADD MLOAD DUP2 PUSH1 0x3 ADD SSTORE PUSH1 0x80 DUP3 ADD MLOAD DUP2 PUSH1 0x4 ADD SSTORE POP POP PUSH1 0x9 PUSH0 DUP7 DUP2 MSTORE PUSH1 0x20 ADD SWAP1 DUP2 MSTORE PUSH1 0x20 ADD PUSH0 KECCAK256 PUSH0 ADD PUSH0 SWAP1 SLOAD SWAP1 PUSH2 0x100 EXP SWAP1 DIV PUSH20 0xFFFFFFFFFFFFFFFFFFFFFFFFFFFFFFFFFFFFFFFF AND PUSH20 0xFFFFFFFFFFFFFFFFFFFFFFFFFFFFFFFFFFFFFFFF AND DUP3 PUSH20 0xFFFFFFFFFFFFFFFFFFFFFFFFFFFFFFFFFFFFFFFF AND PUSH32 0xE17B61D324CE17328F433D0AB62581C0F0AA997312BAE80FBDFCD2AA9B91D6E3 DUP7 DUP7 PUSH1 0x4 PUSH1 0x40 MLOAD PUSH2 0x2667 SWAP4 SWAP3 SWAP2 SWAP1 PUSH2 0x3274 JUMP JUMPDEST PUSH1 0x40 MLOAD DUP1 SWAP2 SUB SWAP1 LOG3 POP POP POP POP POP POP JUMP JUMPDEST PUSH0 DUP2 SWAP1 POP SWAP2 SWAP1 POP JUMP JUMPDEST PUSH2 0x2689 DUP2 PUSH2 0x2677 JUMP JUMPDEST DUP3 MSTORE POP POP JUMP JUMPDEST PUSH0 PUSH1 0x20 DUP3 ADD SWAP1 POP PUSH2 0x26A2 PUSH0 DUP4 ADD DUP5 PUSH2 0x2680 JUMP JUMPDEST SWAP3 SWAP2 POP POP JUMP JUMPDEST PUSH0 DUP1 REVERT JUMPDEST PUSH2 0x26B5 DUP2 PUSH2 0x2677 JUMP JUMPDEST DUP2 EQ PUSH2 0x26BF JUMPI PUSH0 DUP1 REVERT JUMPDEST POP JUMP JUMPDEST PUSH0 DUP2 CALLDATALOAD SWAP1 POP PUSH2 0x26D0 DUP2 PUSH2 0x26AC JUMP JUMPDEST SWAP3 SWAP2 POP POP JUMP JUMPDEST PUSH0 PUSH1 0x20 DUP3 DUP5 SUB SLT ISZERO PUSH2 0x26EB JUMPI PUSH2 0x26EA PUSH2 0x26A8 JUMP JUMPDEST JUMPDEST PUSH0 PUSH2 0x26F8 DUP5 DUP3 DUP6 ADD PUSH2 0x26C2 JUMP JUMPDEST SWAP2 POP POP SWAP3 SWAP2 POP POP JUMP JUMPDEST PUSH0 PUSH1 0x40 DUP3 ADD SWAP1 POP PUSH2 0x2714 PUSH0 DUP4 ADD DUP6 PUSH2 0x2680 JUMP JUMPDEST PUSH2 0x2721 PUSH1 0x20 DUP4 ADD DUP5 PUSH2 0x2680 JUMP JUMPDEST SWAP4 SWAP3 POP POP POP JUMP JUMPDEST PUSH0 PUSH20 0xFFFFFFFFFFFFFFFFFFFFFFFFFFFFFFFFFFFFFFFF DUP3 AND SWAP1 POP SWAP2 SWAP1 POP JUMP JUMPDEST PUSH0 DUP2 SWAP1 POP SWAP2 SWAP1 POP JUMP JUMPDEST PUSH0 PUSH2 0x276A PUSH2 0x2765 PUSH2 0x2760 DUP5 PUSH2 0x2728 JUMP JUMPDEST PUSH2 0x2747 JUMP JUMPDEST PUSH2 0x2728 JUMP JUMPDEST SWAP1 POP SWAP2 SWAP1 POP JUMP JUMPDEST PUSH0 PUSH2 0x277B DUP3 PUSH2 0x2750 JUMP JUMPDEST SWAP1 POP SWAP2 SWAP1 POP JUMP JUMPDEST PUSH0 PUSH2 0x278C DUP3 PUSH2 0x2771 JUMP JUMPDEST SWAP1 POP SWAP2 SWAP1 POP JUMP JUMPDEST PUSH2 0x279C DUP2 PUSH2 0x2782 JUMP JUMPDEST DUP3 MSTORE POP POP JUMP JUMPDEST PUSH0 PUSH1 0x20 DUP3 ADD SWAP1 POP PUSH2 0x27B5 PUSH0 DUP4 ADD DUP5 PUSH2 0x2793 JUMP JUMPDEST SWAP3 SWAP2 POP POP JUMP JUMPDEST PUSH0 PUSH2 0x27C5 DUP3 PUSH2 0x2728 JUMP JUMPDEST SWAP1 POP SWAP2 SWAP1 POP JUMP JUMPDEST PUSH2 0x27D5 DUP2 PUSH2 0x27BB JUMP JUMPDEST DUP3 MSTORE POP POP JUMP JUMPDEST PUSH0 PUSH2 0x140 DUP3 ADD SWAP1 POP PUSH2 0x27EF PUSH0 DUP4 ADD DUP14 PUSH2 0x27CC JUMP JUMPDEST PUSH2 0x27FC PUSH1 0x20 DUP4 ADD DUP13 PUSH2 0x2680 JUMP JUMPDEST PUSH2 0x2809 PUSH1 0x40 DUP4 ADD DUP12 PUSH2 0x2680 JUMP JUMPDEST PUSH2 0x2816 PUSH1 0x60 DUP4 ADD DUP11 PUSH2 0x2680 JUMP JUMPDEST PUSH2 0x2823 PUSH1 0x80 DUP4 ADD DUP10 PUSH2 0x2680 JUMP JUMPDEST PUSH2 0x2830 PUSH1 0xA0 DUP4 ADD DUP9 PUSH2 0x2680 JUMP JUMPDEST PUSH2 0x283D PUSH1 0xC0 DUP4 ADD DUP8 PUSH2 0x2680 JUMP JUMPDEST PUSH2 0x284A PUSH1 0xE0 DUP4 ADD DUP7 PUSH2 0x2680 JUMP JUMPDEST PUSH2 0x2858 PUSH2 0x100 DUP4 ADD DUP6 PUSH2 0x2680 JUMP JUMPDEST PUSH2 0x2866 PUSH2 0x120 DUP4 ADD DUP5 PUSH2 0x2680 JUMP JUMPDEST SWAP12 SWAP11 POP POP POP POP POP POP POP POP POP POP POP JUMP JUMPDEST PUSH0 PUSH2 0x100 DUP3 ADD SWAP1 POP PUSH2 0x2889 PUSH0 DUP4 ADD DUP12 PUSH2 0x2680 JUMP JUMPDEST PUSH2 0x2896 PUSH1 0x20 DUP4 ADD DUP11 PUSH2 0x2680 JUMP JUMPDEST PUSH2 0x28A3 PUSH1 0x40 DUP4 ADD DUP10 PUSH2 0x2680 JUMP JUMPDEST PUSH2 0x28B0 PUSH1 0x60 DUP4 ADD DUP9 PUSH2 0x2680 JUMP JUMPDEST PUSH2 0x28BD PUSH1 0x80 DUP4 ADD DUP8 PUSH2 0x2680 JUMP JUMPDEST PUSH2 0x28CA PUSH1 0xA0 DUP4 ADD DUP7 PUSH2 0x2680 JUMP JUMPDEST PUSH2 0x28D7 PUSH1 0xC0 DUP4 ADD DUP6 PUSH2 0x2680 JUMP JUMPDEST PUSH2 0x28E4 PUSH1 0xE0 DUP4 ADD DUP5 PUSH2 0x2680 JUMP JUMPDEST SWAP10 SWAP9 POP POP POP POP POP POP POP POP POP JUMP JUMPDEST PUSH0 DUP1 PUSH0 PUSH1 0x60 DUP5 DUP7 SUB SLT ISZERO PUSH2 0x2908 JUMPI PUSH2 0x2907 PUSH2 0x26A8 JUMP JUMPDEST JUMPDEST PUSH0 PUSH2 0x2915 DUP7 DUP3 DUP8 ADD PUSH2 0x26C2 JUMP JUMPDEST SWAP4 POP POP PUSH1 0x20 PUSH2 0x2926 DUP7 DUP3 DUP8 ADD PUSH2 0x26C2 JUMP JUMPDEST SWAP3 POP POP PUSH1 0x40 PUSH2 0x2937 DUP7 DUP3 DUP8 ADD PUSH2 0x26C2 JUMP JUMPDEST SWAP2 POP POP SWAP3 POP SWAP3 POP SWAP3 JUMP JUMPDEST PUSH0 DUP1 PUSH1 0x40 DUP4 DUP6 SUB SLT ISZERO PUSH2 0x2957 JUMPI PUSH2 0x2956 PUSH2 0x26A8 JUMP JUMPDEST JUMPDEST PUSH0 PUSH2 0x2964 DUP6 DUP3 DUP7 ADD PUSH2 0x26C2 JUMP JUMPDEST SWAP3 POP POP PUSH1 0x20 PUSH2 0x2975 DUP6 DUP3 DUP7 ADD PUSH2 0x26C2 JUMP JUMPDEST SWAP2 POP POP SWAP3 POP SWAP3 SWAP1 POP JUMP JUMPDEST PUSH0 PUSH1 0xA0 DUP3 ADD SWAP1 POP PUSH2 0x2992 PUSH0 DUP4 ADD DUP9 PUSH2 0x2680 JUMP JUMPDEST PUSH2 0x299F PUSH1 0x20 DUP4 ADD DUP8 PUSH2 0x2680 JUMP JUMPDEST PUSH2 0x29AC PUSH1 0x40 DUP4 ADD DUP7 PUSH2 0x2680 JUMP JUMPDEST PUSH2 0x29B9 PUSH1 0x60 DUP4 ADD DUP6 PUSH2 0x2680 JUMP JUMPDEST PUSH2 0x29C6 PUSH1 0x80 DUP4 ADD DUP5 PUSH2 0x2680 JUMP JUMPDEST SWAP7 SWAP6 POP POP POP POP POP POP JUMP JUMPDEST PUSH0 PUSH1 0xC0 DUP3 ADD SWAP1 POP PUSH2 0x29E3 PUSH0 DUP4 ADD DUP10 PUSH2 0x2680 JUMP JUMPDEST PUSH2 0x29F0 PUSH1 0x20 DUP4 ADD DUP9 PUSH2 0x2680 JUMP JUMPDEST PUSH2 0x29FD PUSH1 0x40 DUP4 ADD DUP8 PUSH2 0x2680 JUMP JUMPDEST PUSH2 0x2A0A PUSH1 0x60 DUP4 ADD DUP7 PUSH2 0x2680 JUMP JUMPDEST PUSH2 0x2A17 PUSH1 0x80 DUP4 ADD DUP6 PUSH2 0x2680 JUMP JUMPDEST PUSH2 0x2A24 PUSH1 0xA0 DUP4 ADD DUP5 PUSH2 0x2680 JUMP JUMPDEST SWAP8 SWAP7 POP POP POP POP POP POP POP JUMP JUMPDEST PUSH0 PUSH1 0x20 DUP3 ADD SWAP1 POP PUSH2 0x2A42 PUSH0 DUP4 ADD DUP5 PUSH2 0x27CC JUMP JUMPDEST SWAP3 SWAP2 POP POP JUMP JUMPDEST PUSH2 0x2A51 DUP2 PUSH2 0x27BB JUMP JUMPDEST DUP2 EQ PUSH2 0x2A5B JUMPI PUSH0 DUP1 REVERT JUMPDEST POP JUMP JUMPDEST PUSH0 DUP2 CALLDATALOAD SWAP1 POP PUSH2 0x2A6C DUP2 PUSH2 0x2A48 JUMP JUMPDEST SWAP3 SWAP2 POP POP JUMP JUMPDEST PUSH0 PUSH1 0x20 DUP3 DUP5 SUB SLT ISZERO PUSH2 0x2A87 JUMPI PUSH2 0x2A86 PUSH2 0x26A8 JUMP JUMPDEST JUMPDEST PUSH0 PUSH2 0x2A94 DUP5 DUP3 DUP6 ADD PUSH2 0x2A5E JUMP JUMPDEST SWAP2 POP POP SWAP3 SWAP2 POP POP JUMP JUMPDEST PUSH32 0x4E487B7100000000000000000000000000000000000000000000000000000000 PUSH0 MSTORE PUSH1 0x11 PUSH1 0x4 MSTORE PUSH1 0x24 PUSH0 REVERT JUMPDEST PUSH0 PUSH2 0x2AD4 DUP3 PUSH2 0x2677 JUMP JUMPDEST SWAP2 POP PUSH2 0x2ADF DUP4 PUSH2 0x2677 JUMP JUMPDEST SWAP3 POP DUP3 DUP3 SUB SWAP1 POP DUP2 DUP2 GT ISZERO PUSH2 0x2AF7 JUMPI PUSH2 0x2AF6 PUSH2 0x2A9D JUMP JUMPDEST JUMPDEST SWAP3 SWAP2 POP POP JUMP JUMPDEST PUSH32 0x4E487B7100000000000000000000000000000000000000000000000000000000 PUSH0 MSTORE PUSH1 0x12 PUSH1 0x4 MSTORE PUSH1 0x24 PUSH0 REVERT JUMPDEST PUSH0 PUSH2 0x2B34 DUP3 PUSH2 0x2677 JUMP JUMPDEST SWAP2 POP PUSH2 0x2B3F DUP4 PUSH2 0x2677 JUMP JUMPDEST SWAP3 POP DUP3 PUSH2 0x2B4F JUMPI PUSH2 0x2B4E PUSH2 0x2AFD JUMP JUMPDEST JUMPDEST DUP3 DUP3 DIV SWAP1 POP SWAP3 SWAP2 POP POP JUMP JUMPDEST PUSH0 DUP3 DUP3 MSTORE PUSH1 0x20 DUP3 ADD SWAP1 POP SWAP3 SWAP2 POP POP JUMP JUMPDEST PUSH32 0x4E6F7420796F7572206163636F756E7400000000000000000000000000000000 PUSH0 DUP3 ADD MSTORE POP JUMP JUMPDEST PUSH0 PUSH2 0x2B9E PUSH1 0x10 DUP4 PUSH2 0x2B5A JUMP JUMPDEST SWAP2 POP PUSH2 0x2BA9 DUP3 PUSH2 0x2B6A JUMP JUMPDEST PUSH1 0x20 DUP3 ADD SWAP1 POP SWAP2 SWAP1 POP JUMP JUMPDEST PUSH0 PUSH1 0x20 DUP3 ADD SWAP1 POP DUP2 DUP2 SUB PUSH0 DUP4 ADD MSTORE PUSH2 0x2BCB DUP2 PUSH2 0x2B92 JUMP JUMPDEST SWAP1 POP SWAP2 SWAP1 POP JUMP JUMPDEST PUSH32 0x416C7265616479206174206D6178206C6576656C000000000000000000000000 PUSH0 DUP3 ADD MSTORE POP JUMP JUMPDEST PUSH0 PUSH2 0x2C06 PUSH1 0x14 DUP4 PUSH2 0x2B5A JUMP JUMPDEST SWAP2 POP PUSH2 0x2C11 DUP3 PUSH2 0x2BD2 JUMP JUMPDEST PUSH1 0x20 DUP3 ADD SWAP1 POP SWAP2 SWAP1 POP JUMP JUMPDEST PUSH0 PUSH1 0x20 DUP3 ADD SWAP1 POP DUP2 DUP2 SUB PUSH0 DUP4 ADD MSTORE PUSH2 0x2C33 DUP2 PUSH2 0x2BFA JUMP JUMPDEST SWAP1 POP SWAP2 SWAP1 POP JUMP JUMPDEST PUSH32 0x4E487B7100000000000000000000000000000000000000000000000000000000 PUSH0 MSTORE PUSH1 0x32 PUSH1 0x4 MSTORE PUSH1 0x24 PUSH0 REVERT JUMPDEST PUSH0 PUSH1 0x60 DUP3 ADD SWAP1 POP PUSH2 0x2C7A PUSH0 DUP4 ADD DUP7 PUSH2 0x27CC JUMP JUMPDEST PUSH2 0x2C87 PUSH1 0x20 DUP4 ADD DUP6 PUSH2 0x27CC JUMP JUMPDEST PUSH2 0x2C94 PUSH1 0x40 DUP4 ADD DUP5 PUSH2 0x2680 JUMP JUMPDEST SWAP5 SWAP4 POP POP POP POP JUMP JUMPDEST PUSH0 DUP2 ISZERO ISZERO SWAP1 POP SWAP2 SWAP1 POP JUMP JUMPDEST PUSH2 0x2CB0 DUP2 PUSH2 0x2C9C JUMP JUMPDEST DUP2 EQ PUSH2 0x2CBA JUMPI PUSH0 DUP1 REVERT JUMPDEST POP JUMP JUMPDEST PUSH0 DUP2 MLOAD SWAP1 POP PUSH2 0x2CCB DUP2 PUSH2 0x2CA7 JUMP JUMPDEST SWAP3 SWAP2 POP POP JUMP JUMPDEST PUSH0 PUSH1 0x20 DUP3 DUP5 SUB SLT ISZERO PUSH2 0x2CE6 JUMPI PUSH2 0x2CE5 PUSH2 0x26A8 JUMP JUMPDEST JUMPDEST PUSH0 PUSH2 0x2CF3 DUP5 DUP3 DUP6 ADD PUSH2 0x2CBD JUMP JUMPDEST SWAP2 POP POP SWAP3 SWAP2 POP POP JUMP JUMPDEST PUSH0 PUSH2 0x2D06 DUP3 PUSH2 0x2677 JUMP JUMPDEST SWAP2 POP PUSH2 0x2D11 DUP4 PUSH2 0x2677 JUMP JUMPDEST SWAP3 POP DUP3 DUP3 ADD SWAP1 POP DUP1 DUP3 GT ISZERO PUSH2 0x2D29 JUMPI PUSH2 0x2D28 PUSH2 0x2A9D JUMP JUMPDEST JUMPDEST SWAP3 SWAP2 POP POP JUMP JUMPDEST PUSH0 PUSH2 0x2D39 DUP3 PUSH2 0x2677 JUMP JUMPDEST SWAP2 POP PUSH2 0x2D44 DUP4 PUSH2 0x2677 JUMP JUMPDEST SWAP3 POP DUP3 DUP3 MUL PUSH2 0x2D52 DUP2 PUSH2 0x2677 JUMP JUMPDEST SWAP2 POP DUP3 DUP3 DIV DUP5 EQ DUP4 ISZERO OR PUSH2 0x2D69 JUMPI PUSH2 0x2D68 PUSH2 0x2A9D JUMP JUMPDEST JUMPDEST POP SWAP3 SWAP2 POP POP JUMP JUMPDEST PUSH32 0x55736572206E6F7420666F756E64000000000000000000000000000000000000 PUSH0 DUP3 ADD MSTORE POP JUMP JUMPDEST PUSH0 PUSH2 0x2DA4 PUSH1 0xE DUP4 PUSH2 0x2B5A JUMP JUMPDEST SWAP2 POP PUSH2 0x2DAF DUP3 PUSH2 0x2D70 JUMP JUMPDEST PUSH1 0x20 DUP3 ADD SWAP1 POP SWAP2 SWAP1 POP JUMP JUMPDEST PUSH0 PUSH1 0x20 DUP3 ADD SWAP1 POP DUP2 DUP2 SUB PUSH0 DUP4 ADD MSTORE PUSH2 0x2DD1 DUP2 PUSH2 0x2D98 JUMP JUMPDEST SWAP1 POP SWAP2 SWAP1 POP JUMP JUMPDEST PUSH0 PUSH1 0x40 DUP3 ADD SWAP1 POP PUSH2 0x2DEB PUSH0 DUP4 ADD DUP6 PUSH2 0x27CC JUMP JUMPDEST PUSH2 0x2DF8 PUSH1 0x20 DUP4 ADD DUP5 PUSH2 0x2680 JUMP JUMPDEST SWAP4 SWAP3 POP POP POP JUMP JUMPDEST PUSH32 0x55534454207472616E73666572206661696C6564000000000000000000000000 PUSH0 DUP3 ADD MSTORE POP JUMP JUMPDEST PUSH0 PUSH2 0x2E33 PUSH1 0x14 DUP4 PUSH2 0x2B5A JUMP JUMPDEST SWAP2 POP PUSH2 0x2E3E DUP3 PUSH2 0x2DFF JUMP JUMPDEST PUSH1 0x20 DUP3 ADD SWAP1 POP SWAP2 SWAP1 POP JUMP JUMPDEST PUSH0 PUSH1 0x20 DUP3 ADD SWAP1 POP DUP2 DUP2 SUB PUSH0 DUP4 ADD MSTORE PUSH2 0x2E60 DUP2 PUSH2 0x2E27 JUMP JUMPDEST SWAP1 POP SWAP2 SWAP1 POP JUMP JUMPDEST PUSH32 0x416C726561647920726567697374657265640000000000000000000000000000 PUSH0 DUP3 ADD MSTORE POP JUMP JUMPDEST PUSH0 PUSH2 0x2E9B PUSH1 0x12 DUP4 PUSH2 0x2B5A JUMP JUMPDEST SWAP2 POP PUSH2 0x2EA6 DUP3 PUSH2 0x2E67 JUMP JUMPDEST PUSH1 0x20 DUP3 ADD SWAP1 POP SWAP2 SWAP1 POP JUMP JUMPDEST PUSH0 PUSH1 0x20 DUP3 ADD SWAP1 POP DUP2 DUP2 SUB PUSH0 DUP4 ADD MSTORE PUSH2 0x2EC8 DUP2 PUSH2 0x2E8F JUMP JUMPDEST SWAP1 POP SWAP2 SWAP1 POP JUMP JUMPDEST PUSH32 0x496E76616C69642073706F6E736F720000000000000000000000000000000000 PUSH0 DUP3 ADD MSTORE POP JUMP JUMPDEST PUSH0 PUSH2 0x2F03 PUSH1 0xF DUP4 PUSH2 0x2B5A JUMP JUMPDEST SWAP2 POP PUSH2 0x2F0E DUP3 PUSH2 0x2ECF JUMP JUMPDEST PUSH1 0x20 DUP3 ADD SWAP1 POP SWAP2 SWAP1 POP JUMP JUMPDEST PUSH0 PUSH1 0x20 DUP3 ADD SWAP1 POP DUP2 DUP2 SUB PUSH0 DUP4 ADD MSTORE PUSH2 0x2F30 DUP2 PUSH2 0x2EF7 JUMP JUMPDEST SWAP1 POP SWAP2 SWAP1 POP JUMP JUMPDEST PUSH32 0x666565206164647273206E6F7420736574000000000000000000000000000000 PUSH0 DUP3 ADD MSTORE POP JUMP JUMPDEST PUSH0 PUSH2 0x2F6B PUSH1 0x11 DUP4 PUSH2 0x2B5A JUMP JUMPDEST SWAP2 POP PUSH2 0x2F76 DUP3 PUSH2 0x2F37 JUMP JUMPDEST PUSH1 0x20 DUP3 ADD SWAP1 POP SWAP2 SWAP1 POP JUMP JUMPDEST PUSH0 PUSH1 0x20 DUP3 ADD SWAP1 POP DUP2 DUP2 SUB PUSH0 DUP4 ADD MSTORE PUSH2 0x2F98 DUP2 PUSH2 0x2F5F JUMP JUMPDEST SWAP1 POP SWAP2 SWAP1 POP JUMP JUMPDEST PUSH0 DUP2 SWAP1 POP SWAP2 SWAP1 POP JUMP JUMPDEST PUSH0 PUSH2 0x2FC2 PUSH2 0x2FBD PUSH2 0x2FB8 DUP5 PUSH2 0x2F9F JUMP JUMPDEST PUSH2 0x2747 JUMP JUMPDEST PUSH2 0x2677 JUMP JUMPDEST SWAP1 POP SWAP2 SWAP1 POP JUMP JUMPDEST PUSH2 0x2FD2 DUP2 PUSH2 0x2FA8 JUMP JUMPDEST DUP3 MSTORE POP POP JUMP JUMPDEST PUSH0 PUSH1 0x60 DUP3 ADD SWAP1 POP PUSH2 0x2FEB PUSH0 DUP4 ADD DUP7 PUSH2 0x2680 JUMP JUMPDEST PUSH2 0x2FF8 PUSH1 0x20 DUP4 ADD DUP6 PUSH2 0x2680 JUMP JUMPDEST PUSH2 0x3005 PUSH1 0x40 DUP4 ADD DUP5 PUSH2 0x2FC9 JUMP JUMPDEST SWAP5 SWAP4 POP POP POP POP JUMP JUMPDEST PUSH0 PUSH2 0x3017 DUP3 PUSH2 0x2677 JUMP JUMPDEST SWAP2 POP PUSH32 0xFFFFFFFFFFFFFFFFFFFFFFFFFFFFFFFFFFFFFFFFFFFFFFFFFFFFFFFFFFFFFFFF DUP3 SUB PUSH2 0x3049 JUMPI PUSH2 0x3048 PUSH2 0x2A9D JUMP JUMPDEST JUMPDEST PUSH1 0x1 DUP3 ADD SWAP1 POP SWAP2 SWAP1 POP JUMP JUMPDEST PUSH0 DUP2 SWAP1 POP SWAP2 SWAP1 POP JUMP JUMPDEST PUSH0 PUSH2 0x3077 PUSH2 0x3072 PUSH2 0x306D DUP5 PUSH2 0x3054 JUMP JUMPDEST PUSH2 0x2747 JUMP JUMPDEST PUSH2 0x2677 JUMP JUMPDEST SWAP1 POP SWAP2 SWAP1 POP JUMP JUMPDEST PUSH2 0x3087 DUP2 PUSH2 0x305D JUMP JUMPDEST DUP3 MSTORE POP POP JUMP JUMPDEST PUSH0 PUSH1 0x60 DUP3 ADD SWAP1 POP PUSH2 0x30A0 PUSH0 DUP4 ADD DUP7 PUSH2 0x2680 JUMP JUMPDEST PUSH2 0x30AD PUSH1 0x20 DUP4 ADD DUP6 PUSH2 0x2680 JUMP JUMPDEST PUSH2 0x30BA PUSH1 0x40 DUP4 ADD DUP5 PUSH2 0x307E JUMP JUMPDEST SWAP5 SWAP4 POP POP POP POP JUMP JUMPDEST PUSH0 DUP2 PUSH1 0x1 SHR SWAP1 POP SWAP2 SWAP1 POP JUMP JUMPDEST PUSH0 DUP1 DUP3 SWAP2 POP DUP4 SWAP1 POP JUMPDEST PUSH1 0x1 DUP6 GT ISZERO PUSH2 0x3117 JUMPI DUP1 DUP7 DIV DUP2 GT ISZERO PUSH2 0x30F3 JUMPI PUSH2 0x30F2 PUSH2 0x2A9D JUMP JUMPDEST JUMPDEST PUSH1 0x1 DUP6 AND ISZERO PUSH2 0x3102 JUMPI DUP1 DUP3 MUL SWAP2 POP JUMPDEST DUP1 DUP2 MUL SWAP1 POP PUSH2 0x3110 DUP6 PUSH2 0x30C2 JUMP JUMPDEST SWAP5 POP PUSH2 0x30D7 JUMP JUMPDEST SWAP5 POP SWAP5 SWAP3 POP POP POP JUMP JUMPDEST PUSH0 DUP3 PUSH2 0x312F JUMPI PUSH1 0x1 SWAP1 POP PUSH2 0x31EA JUMP JUMPDEST DUP2 PUSH2 0x313C JUMPI PUSH0 SWAP1 POP PUSH2 0x31EA JUMP JUMPDEST DUP2 PUSH1 0x1 DUP2 EQ PUSH2 0x3152 JUMPI PUSH1 0x2 DUP2 EQ PUSH2 0x315C JUMPI PUSH2 0x318B JUMP JUMPDEST PUSH1 0x1 SWAP2 POP POP PUSH2 0x31EA JUMP JUMPDEST PUSH1 0xFF DUP5 GT ISZERO PUSH2 0x316E JUMPI PUSH2 0x316D PUSH2 0x2A9D JUMP JUMPDEST JUMPDEST DUP4 PUSH1 0x2 EXP SWAP2 POP DUP5 DUP3 GT ISZERO PUSH2 0x3185 JUMPI PUSH2 0x3184 PUSH2 0x2A9D JUMP JUMPDEST JUMPDEST POP PUSH2 0x31EA JUMP JUMPDEST POP PUSH1 0x20 DUP4 LT PUSH2 0x133 DUP4 LT AND PUSH1 0x4E DUP5 LT PUSH1 0xB DUP5 LT AND OR ISZERO PUSH2 0x31C0 JUMPI DUP3 DUP3 EXP SWAP1 POP DUP4 DUP2 GT ISZERO PUSH2 0x31BB JUMPI PUSH2 0x31BA PUSH2 0x2A9D JUMP JUMPDEST JUMPDEST PUSH2 0x31EA JUMP JUMPDEST PUSH2 0x31CD DUP5 DUP5 DUP5 PUSH1 0x1 PUSH2 0x30CE JUMP JUMPDEST SWAP3 POP SWAP1 POP DUP2 DUP5 DIV DUP2 GT ISZERO PUSH2 0x31E4 JUMPI PUSH2 0x31E3 PUSH2 0x2A9D JUMP JUMPDEST JUMPDEST DUP2 DUP2 MUL SWAP1 POP JUMPDEST SWAP4 SWAP3 POP POP POP JUMP JUMPDEST PUSH0 PUSH2 0x31FB DUP3 PUSH2 0x2677 JUMP JUMPDEST SWAP2 POP PUSH2 0x3206 DUP4 PUSH2 0x2677 JUMP JUMPDEST SWAP3 POP PUSH2 0x3233 PUSH32 0xFFFFFFFFFFFFFFFFFFFFFFFFFFFFFFFFFFFFFFFFFFFFFFFFFFFFFFFFFFFFFFFF DUP5 DUP5 PUSH2 0x3120 JUMP JUMPDEST SWAP1 POP SWAP3 SWAP2 POP POP JUMP JUMPDEST PUSH0 DUP2 SWAP1 POP SWAP2 SWAP1 POP JUMP JUMPDEST PUSH0 PUSH2 0x325E PUSH2 0x3259 PUSH2 0x3254 DUP5 PUSH2 0x323B JUMP JUMPDEST PUSH2 0x2747 JUMP JUMPDEST PUSH2 0x2677 JUMP JUMPDEST SWAP1 POP SWAP2 SWAP1 POP JUMP JUMPDEST PUSH2 0x326E DUP2 PUSH2 0x3244 JUMP JUMPDEST DUP3 MSTORE POP POP JUMP JUMPDEST PUSH0 PUSH1 0x60 DUP3 ADD SWAP1 POP PUSH2 0x3287 PUSH0 DUP4 ADD DUP7 PUSH2 0x2680 JUMP JUMPDEST PUSH2 0x3294 PUSH1 0x20 DUP4 ADD DUP6 PUSH2 0x2680 JUMP JUMPDEST PUSH2 0x32A1 PUSH1 0x40 DUP4 ADD DUP5 PUSH2 0x3265 JUMP JUMPDEST SWAP5 SWAP4 POP POP POP POP JUMP INVALID LOG2 PUSH5 0x6970667358 0x22 SLT KECCAK256 0x4E 0xC3 PUSH27 0x2BABDFBCC5083ECEF1C35EBA419B47BAB2893A6019CDF0ED131CFE SELFBALANCE 0xBF PUSH5 0x736F6C6343 STOP ADDMOD EQ STOP CALLER "
				},
				"gasEstimates": {
					"creation": {
						"codeDepositCost": "2604600",
						"executionCost": "infinite",
						"totalCost": "infinite"
					},
					"external": {
						"ACC_PRECISION()": "437",
						"PERCENTS_DIVIDER()": "394",
						"ROI_CAP_DIVIDER()": "414",
						"ROI_CAP_MULTIPLIER()": "393",
						"TIME_STEP()": "415",
						"addressToId(address)": "2891",
						"claimCommunity(uint256)": "infinite",
						"communityAccPerUser()": "2537",
						"communityDebt(uint256)": "infinite",
						"creatorWallet()": "2553",
						"defaultRefId()": "2491",
						"directReferrals(uint256,uint256)": "infinite",
						"incomeHistory(uint256,uint256)": "infinite",
						"lastLotteryRun()": "2472",
						"lastLotteryWinner()": "2575",
						"lotteryInterval()": "2492",
						"lotteryPool()": "2471",
						"matrixDirect(uint256)": "infinite",
						"owner()": "2619",
						"packages(uint256)": "infinite",
						"pendingCommunity(uint256)": "infinite",
						"register(uint256)": "infinite",
						"registeredUserIds(uint256)": "infinite",
						"sponsorStructure(uint256)": "infinite",
						"systemMaintance()": "2552",
						"teamDevelopment()": "2618",
						"teams(uint256,uint256,uint256)": "infinite",
						"totalUsers()": "2470",
						"upgrade(uint256)": "infinite",
						"usdt()": "infinite",
						"userIncomes(uint256)": "infinite",
						"users(uint256)": "infinite"
					},
					"internal": {
						"_accrueCommunityBonus(uint256)": "infinite",
						"_applyGlobalCapping(uint256,uint256)": "infinite",
						"_distributeLevelBoosterIncome(uint256,uint256,uint256,uint256,uint256)": "infinite",
						"_distributeLevelIncome(uint256,uint256,uint256,uint256,uint256)": "infinite",
						"_distributeMatrixIncome(uint256,uint256,uint256,uint256)": "infinite",
						"_distributeSponsorIncome(uint256,uint256,uint256,uint256)": "infinite",
						"_findEligibleSponsor(uint256,uint256)": "infinite",
						"_payLevelBooster(uint256,uint256,uint256,uint256)": "infinite",
						"_placeInMatrix(uint256,uint256)": "infinite",
						"_sendToCreator(uint256)": "infinite"
					}
				},
				"methodIdentifiers": {
					"ACC_PRECISION()": "32fcd966",
					"PERCENTS_DIVIDER()": "01c234a8",
					"ROI_CAP_DIVIDER()": "58c7d352",
					"ROI_CAP_MULTIPLIER()": "375b43b4",
					"TIME_STEP()": "32bc298c",
					"addressToId(address)": "cb0e0d7d",
					"claimCommunity(uint256)": "d54d6ddb",
					"communityAccPerUser()": "78f6ad6d",
					"communityDebt(uint256)": "18ab487f",
					"creatorWallet()": "7cdc65f2",
					"defaultRefId()": "ec597e6f",
					"directReferrals(uint256,uint256)": "5ec64a44",
					"incomeHistory(uint256,uint256)": "70c8d770",
					"lastLotteryRun()": "01be02b2",
					"lastLotteryWinner()": "81a0b816",
					"lotteryInterval()": "52a8c4c4",
					"lotteryPool()": "2c831633",
					"matrixDirect(uint256)": "88afbe3e",
					"owner()": "8da5cb5b",
					"packages(uint256)": "c216212a",
					"pendingCommunity(uint256)": "24513088",
					"register(uint256)": "f207564e",
					"registeredUserIds(uint256)": "39ab3603",
					"sponsorStructure(uint256)": "736fb514",
					"systemMaintance()": "e9e34a16",
					"teamDevelopment()": "f5d74d93",
					"teams(uint256,uint256,uint256)": "5aabf7f1",
					"totalUsers()": "bff1f9e1",
					"upgrade(uint256)": "45977d03",
					"usdt()": "2f48ab7d",
					"userIncomes(uint256)": "46b9dece",
					"users(uint256)": "365b98b2"
				}
			},
			"storageLayout": {
				"storage": [
					{
						"astId": 99,
						"contract": "contracts/modules/SponsorMatrix.sol:SponsorMatrix",
						"label": "usdt",
						"offset": 0,
						"slot": "0",
						"type": "t_contract(IERC20)96"
					},
					{
						"astId": 101,
						"contract": "contracts/modules/SponsorMatrix.sol:SponsorMatrix",
						"label": "owner",
						"offset": 0,
						"slot": "1",
						"type": "t_address"
					},
					{
						"astId": 103,
						"contract": "contracts/modules/SponsorMatrix.sol:SponsorMatrix",
						"label": "creatorWallet",
						"offset": 0,
						"slot": "2",
						"type": "t_address"
					},
					{
						"astId": 105,
						"contract": "contracts/modules/SponsorMatrix.sol:SponsorMatrix",
						"label": "systemMaintance",
						"offset": 0,
						"slot": "3",
						"type": "t_address"
					},
					{
						"astId": 107,
						"contract": "contracts/modules/SponsorMatrix.sol:SponsorMatrix",
						"label": "teamDevelopment",
						"offset": 0,
						"slot": "4",
						"type": "t_address"
					},
					{
						"astId": 109,
						"contract": "contracts/modules/SponsorMatrix.sol:SponsorMatrix",
						"label": "defaultRefId",
						"offset": 0,
						"slot": "5",
						"type": "t_uint256"
					},
					{
						"astId": 111,
						"contract": "contracts/modules/SponsorMatrix.sol:SponsorMatrix",
						"label": "totalUsers",
						"offset": 0,
						"slot": "6",
						"type": "t_uint256"
					},
					{
						"astId": 175,
						"contract": "contracts/modules/SponsorMatrix.sol:SponsorMatrix",
						"label": "packages",
						"offset": 0,
						"slot": "7",
						"type": "t_array(t_uint256)dyn_storage"
					},
					{
						"astId": 252,
						"contract": "contracts/modules/SponsorMatrix.sol:SponsorMatrix",
						"label": "addressToId",
						"offset": 0,
						"slot": "8",
						"type": "t_mapping(t_address,t_uint256)"
					},
					{
						"astId": 257,
						"contract": "contracts/modules/SponsorMatrix.sol:SponsorMatrix",
						"label": "users",
						"offset": 0,
						"slot": "9",
						"type": "t_mapping(t_uint256,t_struct(User)207_storage)"
					},
					{
						"astId": 262,
						"contract": "contracts/modules/SponsorMatrix.sol:SponsorMatrix",
						"label": "userIncomes",
						"offset": 0,
						"slot": "10",
						"type": "t_mapping(t_uint256,t_struct(UserIncome)224_storage)"
					},
					{
						"astId": 268,
						"contract": "contracts/modules/SponsorMatrix.sol:SponsorMatrix",
						"label": "incomeHistory",
						"offset": 0,
						"slot": "11",
						"type": "t_mapping(t_uint256,t_array(t_struct(Income)235_storage)dyn_storage)"
					},
					{
						"astId": 275,
						"contract": "contracts/modules/SponsorMatrix.sol:SponsorMatrix",
						"label": "teams",
						"offset": 0,
						"slot": "12",
						"type": "t_mapping(t_uint256,t_mapping(t_uint256,t_array(t_uint256)dyn_storage))"
					},
					{
						"astId": 279,
						"contract": "contracts/modules/SponsorMatrix.sol:SponsorMatrix",
						"label": "matrixDirect",
						"offset": 0,
						"slot": "13",
						"type": "t_mapping(t_uint256,t_uint256)"
					},
					{
						"astId": 284,
						"contract": "contracts/modules/SponsorMatrix.sol:SponsorMatrix",
						"label": "directReferrals",
						"offset": 0,
						"slot": "14",
						"type": "t_mapping(t_uint256,t_array(t_uint256)dyn_storage)"
					},
					{
						"astId": 289,
						"contract": "contracts/modules/SponsorMatrix.sol:SponsorMatrix",
						"label": "sponsorStructure",
						"offset": 0,
						"slot": "15",
						"type": "t_mapping(t_uint256,t_struct(SponsorStructure)248_storage)"
					},
					{
						"astId": 294,
						"contract": "contracts/modules/SponsorMatrix.sol:SponsorMatrix",
						"label": "communityAccPerUser",
						"offset": 0,
						"slot": "16",
						"type": "t_uint256"
					},
					{
						"astId": 298,
						"contract": "contracts/modules/SponsorMatrix.sol:SponsorMatrix",
						"label": "communityDebt",
						"offset": 0,
						"slot": "17",
						"type": "t_mapping(t_uint256,t_uint256)"
					},
					{
						"astId": 300,
						"contract": "contracts/modules/SponsorMatrix.sol:SponsorMatrix",
						"label": "lotteryPool",
						"offset": 0,
						"slot": "18",
						"type": "t_uint256"
					},
					{
						"astId": 302,
						"contract": "contracts/modules/SponsorMatrix.sol:SponsorMatrix",
						"label": "lastLotteryWinner",
						"offset": 0,
						"slot": "19",
						"type": "t_address"
					},
					{
						"astId": 304,
						"contract": "contracts/modules/SponsorMatrix.sol:SponsorMatrix",
						"label": "lastLotteryRun",
						"offset": 0,
						"slot": "20",
						"type": "t_uint256"
					},
					{
						"astId": 307,
						"contract": "contracts/modules/SponsorMatrix.sol:SponsorMatrix",
						"label": "lotteryInterval",
						"offset": 0,
						"slot": "21",
						"type": "t_uint256"
					},
					{
						"astId": 310,
						"contract": "contracts/modules/SponsorMatrix.sol:SponsorMatrix",
						"label": "registeredUserIds",
						"offset": 0,
						"slot": "22",
						"type": "t_array(t_uint256)dyn_storage"
					},
					{
						"astId": 312,
						"contract": "contracts/modules/SponsorMatrix.sol:SponsorMatrix",
						"label": "nonce",
						"offset": 0,
						"slot": "23",
						"type": "t_uint256"
					},
					{
						"astId": 314,
						"contract": "contracts/modules/SponsorMatrix.sol:SponsorMatrix",
						"label": "lastWinnerId",
						"offset": 0,
						"slot": "24",
						"type": "t_uint256"
					}
				],
				"types": {
					"t_address": {
						"encoding": "inplace",
						"label": "address",
						"numberOfBytes": "20"
					},
					"t_array(t_struct(Deposit)182_storage)dyn_storage": {
						"base": "t_struct(Deposit)182_storage",
						"encoding": "dynamic_array",
						"label": "struct SponsorMatrix.Deposit[]",
						"numberOfBytes": "32"
					},
					"t_array(t_struct(Income)235_storage)dyn_storage": {
						"base": "t_struct(Income)235_storage",
						"encoding": "dynamic_array",
						"label": "struct SponsorMatrix.Income[]",
						"numberOfBytes": "32"
					},
					"t_array(t_uint256)dyn_storage": {
						"base": "t_uint256",
						"encoding": "dynamic_array",
						"label": "uint256[]",
						"numberOfBytes": "32"
					},
					"t_contract(IERC20)96": {
						"encoding": "inplace",
						"label": "contract IERC20",
						"numberOfBytes": "20"
					},
					"t_mapping(t_address,t_uint256)": {
						"encoding": "mapping",
						"key": "t_address",
						"label": "mapping(address => uint256)",
						"numberOfBytes": "32",
						"value": "t_uint256"
					},
					"t_mapping(t_uint256,t_array(t_struct(Income)235_storage)dyn_storage)": {
						"encoding": "mapping",
						"key": "t_uint256",
						"label": "mapping(uint256 => struct SponsorMatrix.Income[])",
						"numberOfBytes": "32",
						"value": "t_array(t_struct(Income)235_storage)dyn_storage"
					},
					"t_mapping(t_uint256,t_array(t_uint256)dyn_storage)": {
						"encoding": "mapping",
						"key": "t_uint256",
						"label": "mapping(uint256 => uint256[])",
						"numberOfBytes": "32",
						"value": "t_array(t_uint256)dyn_storage"
					},
					"t_mapping(t_uint256,t_mapping(t_uint256,t_array(t_uint256)dyn_storage))": {
						"encoding": "mapping",
						"key": "t_uint256",
						"label": "mapping(uint256 => mapping(uint256 => uint256[]))",
						"numberOfBytes": "32",
						"value": "t_mapping(t_uint256,t_array(t_uint256)dyn_storage)"
					},
					"t_mapping(t_uint256,t_struct(SponsorStructure)248_storage)": {
						"encoding": "mapping",
						"key": "t_uint256",
						"label": "mapping(uint256 => struct SponsorMatrix.SponsorStructure)",
						"numberOfBytes": "32",
						"value": "t_struct(SponsorStructure)248_storage"
					},
					"t_mapping(t_uint256,t_struct(User)207_storage)": {
						"encoding": "mapping",
						"key": "t_uint256",
						"label": "mapping(uint256 => struct SponsorMatrix.User)",
						"numberOfBytes": "32",
						"value": "t_struct(User)207_storage"
					},
					"t_mapping(t_uint256,t_struct(UserIncome)224_storage)": {
						"encoding": "mapping",
						"key": "t_uint256",
						"label": "mapping(uint256 => struct SponsorMatrix.UserIncome)",
						"numberOfBytes": "32",
						"value": "t_struct(UserIncome)224_storage"
					},
					"t_mapping(t_uint256,t_uint256)": {
						"encoding": "mapping",
						"key": "t_uint256",
						"label": "mapping(uint256 => uint256)",
						"numberOfBytes": "32",
						"value": "t_uint256"
					},
					"t_struct(Deposit)182_storage": {
						"encoding": "inplace",
						"label": "struct SponsorMatrix.Deposit",
						"members": [
							{
								"astId": 177,
								"contract": "contracts/modules/SponsorMatrix.sol:SponsorMatrix",
								"label": "amount",
								"offset": 0,
								"slot": "0",
								"type": "t_uint256"
							},
							{
								"astId": 179,
								"contract": "contracts/modules/SponsorMatrix.sol:SponsorMatrix",
								"label": "withdrawn",
								"offset": 0,
								"slot": "1",
								"type": "t_uint256"
							},
							{
								"astId": 181,
								"contract": "contracts/modules/SponsorMatrix.sol:SponsorMatrix",
								"label": "start",
								"offset": 0,
								"slot": "2",
								"type": "t_uint256"
							}
						],
						"numberOfBytes": "96"
					},
					"t_struct(Income)235_storage": {
						"encoding": "inplace",
						"label": "struct SponsorMatrix.Income",
						"members": [
							{
								"astId": 226,
								"contract": "contracts/modules/SponsorMatrix.sol:SponsorMatrix",
								"label": "fromUserId",
								"offset": 0,
								"slot": "0",
								"type": "t_uint256"
							},
							{
								"astId": 228,
								"contract": "contracts/modules/SponsorMatrix.sol:SponsorMatrix",
								"label": "amount",
								"offset": 0,
								"slot": "1",
								"type": "t_uint256"
							},
							{
								"astId": 230,
								"contract": "contracts/modules/SponsorMatrix.sol:SponsorMatrix",
								"label": "packageLevel",
								"offset": 0,
								"slot": "2",
								"type": "t_uint256"
							},
							{
								"astId": 232,
								"contract": "contracts/modules/SponsorMatrix.sol:SponsorMatrix",
								"label": "timestamp",
								"offset": 0,
								"slot": "3",
								"type": "t_uint256"
							},
							{
								"astId": 234,
								"contract": "contracts/modules/SponsorMatrix.sol:SponsorMatrix",
								"label": "incomeType",
								"offset": 0,
								"slot": "4",
								"type": "t_uint256"
							}
						],
						"numberOfBytes": "160"
					},
					"t_struct(SponsorStructure)248_storage": {
						"encoding": "inplace",
						"label": "struct SponsorMatrix.SponsorStructure",
						"members": [
							{
								"astId": 237,
								"contract": "contracts/modules/SponsorMatrix.sol:SponsorMatrix",
								"label": "package",
								"offset": 0,
								"slot": "0",
								"type": "t_uint256"
							},
							{
								"astId": 239,
								"contract": "contracts/modules/SponsorMatrix.sol:SponsorMatrix",
								"label": "sponsorIncome",
								"offset": 0,
								"slot": "1",
								"type": "t_uint256"
							},
							{
								"astId": 241,
								"contract": "contracts/modules/SponsorMatrix.sol:SponsorMatrix",
								"label": "lvlUpline",
								"offset": 0,
								"slot": "2",
								"type": "t_uint256"
							},
							{
								"astId": 243,
								"contract": "contracts/modules/SponsorMatrix.sol:SponsorMatrix",
								"label": "lvlUplineIncome",
								"offset": 0,
								"slot": "3",
								"type": "t_uint256"
							},
							{
								"astId": 245,
								"contract": "contracts/modules/SponsorMatrix.sol:SponsorMatrix",
								"label": "splitUpline",
								"offset": 0,
								"slot": "4",
								"type": "t_uint256"
							},
							{
								"astId": 247,
								"contract": "contracts/modules/SponsorMatrix.sol:SponsorMatrix",
								"label": "splitUplineIncome",
								"offset": 0,
								"slot": "5",
								"type": "t_uint256"
							}
						],
						"numberOfBytes": "192"
					},
					"t_struct(User)207_storage": {
						"encoding": "inplace",
						"label": "struct SponsorMatrix.User",
						"members": [
							{
								"astId": 184,
								"contract": "contracts/modules/SponsorMatrix.sol:SponsorMatrix",
								"label": "account",
								"offset": 0,
								"slot": "0",
								"type": "t_address"
							},
							{
								"astId": 188,
								"contract": "contracts/modules/SponsorMatrix.sol:SponsorMatrix",
								"label": "deposits",
								"offset": 0,
								"slot": "1",
								"type": "t_array(t_struct(Deposit)182_storage)dyn_storage"
							},
							{
								"astId": 190,
								"contract": "contracts/modules/SponsorMatrix.sol:SponsorMatrix",
								"label": "checkpoint",
								"offset": 0,
								"slot": "2",
								"type": "t_uint256"
							},
							{
								"astId": 192,
								"contract": "contracts/modules/SponsorMatrix.sol:SponsorMatrix",
								"label": "id",
								"offset": 0,
								"slot": "3",
								"type": "t_uint256"
							},
							{
								"astId": 194,
								"contract": "contracts/modules/SponsorMatrix.sol:SponsorMatrix",
								"label": "sponsorId",
								"offset": 0,
								"slot": "4",
								"type": "t_uint256"
							},
							{
								"astId": 196,
								"contract": "contracts/modules/SponsorMatrix.sol:SponsorMatrix",
								"label": "uplineId",
								"offset": 0,
								"slot": "5",
								"type": "t_uint256"
							},
							{
								"astId": 198,
								"contract": "contracts/modules/SponsorMatrix.sol:SponsorMatrix",
								"label": "level",
								"offset": 0,
								"slot": "6",
								"type": "t_uint256"
							},
							{
								"astId": 200,
								"contract": "contracts/modules/SponsorMatrix.sol:SponsorMatrix",
								"label": "directTeam",
								"offset": 0,
								"slot": "7",
								"type": "t_uint256"
							},
							{
								"astId": 202,
								"contract": "contracts/modules/SponsorMatrix.sol:SponsorMatrix",
								"label": "totalMatrixTeam",
								"offset": 0,
								"slot": "8",
								"type": "t_uint256"
							},
							{
								"astId": 204,
								"contract": "contracts/modules/SponsorMatrix.sol:SponsorMatrix",
								"label": "totalDeposit",
								"offset": 0,
								"slot": "9",
								"type": "t_uint256"
							},
							{
								"astId": 206,
								"contract": "contracts/modules/SponsorMatrix.sol:SponsorMatrix",
								"label": "registrationTime",
								"offset": 0,
								"slot": "10",
								"type": "t_uint256"
							}
						],
						"numberOfBytes": "352"
					},
					"t_struct(UserIncome)224_storage": {
						"encoding": "inplace",
						"label": "struct SponsorMatrix.UserIncome",
						"members": [
							{
								"astId": 209,
								"contract": "contracts/modules/SponsorMatrix.sol:SponsorMatrix",
								"label": "totalIncome",
								"offset": 0,
								"slot": "0",
								"type": "t_uint256"
							},
							{
								"astId": 211,
								"contract": "contracts/modules/SponsorMatrix.sol:SponsorMatrix",
								"label": "sponsorIncome",
								"offset": 0,
								"slot": "1",
								"type": "t_uint256"
							},
							{
								"astId": 213,
								"contract": "contracts/modules/SponsorMatrix.sol:SponsorMatrix",
								"label": "matrixIncome",
								"offset": 0,
								"slot": "2",
								"type": "t_uint256"
							},
							{
								"astId": 215,
								"contract": "contracts/modules/SponsorMatrix.sol:SponsorMatrix",
								"label": "levelBoosterIncome",
								"offset": 0,
								"slot": "3",
								"type": "t_uint256"
							},
							{
								"astId": 217,
								"contract": "contracts/modules/SponsorMatrix.sol:SponsorMatrix",
								"label": "levelIncome",
								"offset": 0,
								"slot": "4",
								"type": "t_uint256"
							},
							{
								"astId": 219,
								"contract": "contracts/modules/SponsorMatrix.sol:SponsorMatrix",
								"label": "royaltyIncome",
								"offset": 0,
								"slot": "5",
								"type": "t_uint256"
							},
							{
								"astId": 221,
								"contract": "contracts/modules/SponsorMatrix.sol:SponsorMatrix",
								"label": "royaltyIncomeClaimed",
								"offset": 0,
								"slot": "6",
								"type": "t_uint256"
							},
							{
								"astId": 223,
								"contract": "contracts/modules/SponsorMatrix.sol:SponsorMatrix",
								"label": "communityIncome",
								"offset": 0,
								"slot": "7",
								"type": "t_uint256"
							}
						],
						"numberOfBytes": "256"
					},
					"t_uint256": {
						"encoding": "inplace",
						"label": "uint256",
						"numberOfBytes": "32"
					}
				}
			},
			"userdoc": {
				"kind": "user",
				"methods": {},
				"version": 1
			}
		}
	}
}