{
	"contracts/modules/SponsorMatrix.sol": {
		"Nanakshahi": {
			"abi": [
				{
					"inputs": [],
					"stateMutability": "nonpayable",
					"type": "constructor"
				},
				{
					"inputs": [
						{
							"internalType": "address",
							"name": "token",
							"type": "address"
						}
					],
					"name": "SafeERC20FailedOperation",
					"type": "error"
				},
				{
					"anonymous": false,
					"inputs": [
						{
							"indexed": false,
							"internalType": "uint256",
							"name": "amount",
							"type": "uint256"
						},
						{
							"indexed": false,
							"internalType": "uint256",
							"name": "usersCount",
							"type": "uint256"
						},
						{
							"indexed": false,
							"internalType": "uint256",
							"name": "perUser",
							"type": "uint256"
						}
					],
					"name": "CommunityBonusDistributed",
					"type": "event"
				},
				{
					"anonymous": false,
					"inputs": [
						{
							"indexed": true,
							"internalType": "address",
							"name": "to",
							"type": "address"
						},
						{
							"indexed": true,
							"internalType": "address",
							"name": "from",
							"type": "address"
						},
						{
							"indexed": false,
							"internalType": "uint256",
							"name": "amount",
							"type": "uint256"
						},
						{
							"indexed": false,
							"internalType": "uint256",
							"name": "packageLevel",
							"type": "uint256"
						},
						{
							"indexed": false,
							"internalType": "uint256",
							"name": "incomeType",
							"type": "uint256"
						}
					],
					"name": "IncomeDistributed",
					"type": "event"
				},
				{
					"anonymous": false,
					"inputs": [
						{
							"indexed": true,
							"internalType": "address",
							"name": "to",
							"type": "address"
						},
						{
							"indexed": true,
							"internalType": "address",
							"name": "from",
							"type": "address"
						},
						{
							"indexed": false,
							"internalType": "uint256",
							"name": "amount",
							"type": "uint256"
						},
						{
							"indexed": false,
							"internalType": "uint256",
							"name": "packageLevel",
							"type": "uint256"
						},
						{
							"indexed": false,
							"internalType": "enum Storage.IncomeType",
							"name": "incomeType",
							"type": "uint8"
						},
						{
							"indexed": false,
							"internalType": "uint256",
							"name": "timestamp",
							"type": "uint256"
						}
					],
					"name": "IncomeDistribution",
					"type": "event"
				},
				{
					"anonymous": false,
					"inputs": [
						{
							"indexed": true,
							"internalType": "address",
							"name": "winner",
							"type": "address"
						},
						{
							"indexed": true,
							"internalType": "uint256",
							"name": "fromUserId",
							"type": "uint256"
						},
						{
							"indexed": false,
							"internalType": "uint256",
							"name": "amount",
							"type": "uint256"
						},
						{
							"indexed": false,
							"internalType": "uint256",
							"name": "timestamp",
							"type": "uint256"
						}
					],
					"name": "LotteryReward",
					"type": "event"
				},
				{
					"anonymous": false,
					"inputs": [
						{
							"indexed": false,
							"internalType": "uint256",
							"name": "roundId",
							"type": "uint256"
						},
						{
							"indexed": false,
							"internalType": "uint256",
							"name": "totalUsers",
							"type": "uint256"
						},
						{
							"indexed": false,
							"internalType": "uint256",
							"name": "perUserReward",
							"type": "uint256"
						},
						{
							"indexed": false,
							"internalType": "uint256",
							"name": "totalReward",
							"type": "uint256"
						},
						{
							"indexed": false,
							"internalType": "uint256",
							"name": "totalDistributed",
							"type": "uint256"
						},
						{
							"indexed": false,
							"internalType": "uint256",
							"name": "leftoverReward",
							"type": "uint256"
						},
						{
							"indexed": false,
							"internalType": "uint256",
							"name": "endTime",
							"type": "uint256"
						}
					],
					"name": "MonthlyClosed",
					"type": "event"
				},
				{
					"anonymous": false,
					"inputs": [
						{
							"indexed": false,
							"internalType": "uint256",
							"name": "roundId",
							"type": "uint256"
						},
						{
							"indexed": false,
							"internalType": "uint256",
							"name": "userId",
							"type": "uint256"
						},
						{
							"indexed": false,
							"internalType": "uint256",
							"name": "perUserReward",
							"type": "uint256"
						},
						{
							"indexed": false,
							"internalType": "uint256",
							"name": "claimTime",
							"type": "uint256"
						}
					],
					"name": "MonthlyRewardClaim",
					"type": "event"
				},
				{
					"anonymous": false,
					"inputs": [
						{
							"indexed": false,
							"internalType": "uint256",
							"name": "roundId",
							"type": "uint256"
						},
						{
							"indexed": false,
							"internalType": "uint256",
							"name": "userId",
							"type": "uint256"
						},
						{
							"indexed": false,
							"internalType": "uint256",
							"name": "joinTime",
							"type": "uint256"
						}
					],
					"name": "MonthlyRoyaltyQualified",
					"type": "event"
				},
				{
					"anonymous": false,
					"inputs": [
						{
							"indexed": true,
							"internalType": "address",
							"name": "user",
							"type": "address"
						},
						{
							"indexed": true,
							"internalType": "address",
							"name": "sponsor",
							"type": "address"
						},
						{
							"indexed": true,
							"internalType": "uint256",
							"name": "userId",
							"type": "uint256"
						},
						{
							"indexed": false,
							"internalType": "uint256",
							"name": "uplineId",
							"type": "uint256"
						}
					],
					"name": "Registration",
					"type": "event"
				},
				{
					"anonymous": false,
					"inputs": [
						{
							"indexed": true,
							"internalType": "address",
							"name": "to",
							"type": "address"
						},
						{
							"indexed": false,
							"internalType": "uint256",
							"name": "amount",
							"type": "uint256"
						},
						{
							"indexed": false,
							"internalType": "string",
							"name": "level",
							"type": "string"
						}
					],
					"name": "RewardSent",
					"type": "event"
				},
				{
					"anonymous": false,
					"inputs": [
						{
							"indexed": false,
							"internalType": "uint256",
							"name": "roundId",
							"type": "uint256"
						},
						{
							"indexed": false,
							"internalType": "uint256",
							"name": "totalUsers",
							"type": "uint256"
						},
						{
							"indexed": false,
							"internalType": "uint256",
							"name": "perUserReward",
							"type": "uint256"
						},
						{
							"indexed": false,
							"internalType": "uint256",
							"name": "totalReward",
							"type": "uint256"
						},
						{
							"indexed": false,
							"internalType": "uint256",
							"name": "totalDistributed",
							"type": "uint256"
						},
						{
							"indexed": false,
							"internalType": "uint256",
							"name": "leftoverReward",
							"type": "uint256"
						},
						{
							"indexed": false,
							"internalType": "uint256",
							"name": "endTime",
							"type": "uint256"
						}
					],
					"name": "TopRoyaltyClosed",
					"type": "event"
				},
				{
					"anonymous": false,
					"inputs": [
						{
							"indexed": false,
							"internalType": "uint256",
							"name": "roundId",
							"type": "uint256"
						},
						{
							"indexed": false,
							"internalType": "uint256",
							"name": "userId",
							"type": "uint256"
						},
						{
							"indexed": false,
							"internalType": "uint256",
							"name": "joinTime",
							"type": "uint256"
						}
					],
					"name": "TopRoyaltyQualified",
					"type": "event"
				},
				{
					"anonymous": false,
					"inputs": [
						{
							"indexed": false,
							"internalType": "uint256",
							"name": "roundId",
							"type": "uint256"
						},
						{
							"indexed": false,
							"internalType": "uint256",
							"name": "userId",
							"type": "uint256"
						},
						{
							"indexed": false,
							"internalType": "uint256",
							"name": "perUserReward",
							"type": "uint256"
						},
						{
							"indexed": false,
							"internalType": "uint256",
							"name": "claimTime",
							"type": "uint256"
						}
					],
					"name": "TopRoyaltyRewardClaim",
					"type": "event"
				},
				{
					"anonymous": false,
					"inputs": [
						{
							"indexed": true,
							"internalType": "address",
							"name": "user",
							"type": "address"
						},
						{
							"indexed": true,
							"internalType": "uint256",
							"name": "userId",
							"type": "uint256"
						},
						{
							"indexed": false,
							"internalType": "uint256",
							"name": "packageLevel",
							"type": "uint256"
						},
						{
							"indexed": false,
							"internalType": "string",
							"name": "depositType",
							"type": "string"
						},
						{
							"indexed": false,
							"internalType": "uint256",
							"name": "upgradeTime",
							"type": "uint256"
						}
					],
					"name": "Upgrade",
					"type": "event"
				},
				{
					"anonymous": false,
					"inputs": [
						{
							"indexed": true,
							"internalType": "uint8",
							"name": "matrixId",
							"type": "uint8"
						},
						{
							"indexed": true,
							"internalType": "uint32",
							"name": "userId",
							"type": "uint32"
						},
						{
							"indexed": true,
							"internalType": "address",
							"name": "user",
							"type": "address"
						},
						{
							"indexed": false,
							"internalType": "uint32",
							"name": "parentId",
							"type": "uint32"
						},
						{
							"indexed": false,
							"internalType": "address",
							"name": "parentAddr",
							"type": "address"
						},
						{
							"indexed": false,
							"internalType": "uint8",
							"name": "position",
							"type": "uint8"
						}
					],
					"name": "UserJoined",
					"type": "event"
				},
				{
					"anonymous": false,
					"inputs": [
						{
							"indexed": false,
							"internalType": "uint256",
							"name": "roundId",
							"type": "uint256"
						},
						{
							"indexed": false,
							"internalType": "uint256",
							"name": "totalUsers",
							"type": "uint256"
						},
						{
							"indexed": false,
							"internalType": "uint256",
							"name": "perUserReward",
							"type": "uint256"
						},
						{
							"indexed": false,
							"internalType": "uint256",
							"name": "totalReward",
							"type": "uint256"
						},
						{
							"indexed": false,
							"internalType": "uint256",
							"name": "totalDistributed",
							"type": "uint256"
						},
						{
							"indexed": false,
							"internalType": "uint256",
							"name": "leftoverReward",
							"type": "uint256"
						},
						{
							"indexed": false,
							"internalType": "uint256",
							"name": "endTime",
							"type": "uint256"
						}
					],
					"name": "WeeklyClosed",
					"type": "event"
				},
				{
					"anonymous": false,
					"inputs": [
						{
							"indexed": false,
							"internalType": "uint256",
							"name": "roundId",
							"type": "uint256"
						},
						{
							"indexed": false,
							"internalType": "uint256",
							"name": "userId",
							"type": "uint256"
						},
						{
							"indexed": false,
							"internalType": "uint256",
							"name": "joinTime",
							"type": "uint256"
						}
					],
					"name": "WeeklyContestQualified",
					"type": "event"
				},
				{
					"anonymous": false,
					"inputs": [
						{
							"indexed": false,
							"internalType": "uint256",
							"name": "roundId",
							"type": "uint256"
						},
						{
							"indexed": false,
							"internalType": "uint256",
							"name": "userId",
							"type": "uint256"
						},
						{
							"indexed": false,
							"internalType": "uint256",
							"name": "perUserReward",
							"type": "uint256"
						},
						{
							"indexed": false,
							"internalType": "uint256",
							"name": "claimTime",
							"type": "uint256"
						}
					],
					"name": "WeeklyRewardClaim",
					"type": "event"
				},
				{
					"inputs": [],
					"name": "ACC_PRECISION",
					"outputs": [
						{
							"internalType": "uint256",
							"name": "",
							"type": "uint256"
						}
					],
					"stateMutability": "view",
					"type": "function"
				},
				{
					"inputs": [],
					"name": "MONTHLY_ROYALTY_DIRECT",
					"outputs": [
						{
							"internalType": "uint256",
							"name": "",
							"type": "uint256"
						}
					],
					"stateMutability": "view",
					"type": "function"
				},
				{
					"inputs": [],
					"name": "MONTHLY_ROYALTY_LEVEL",
					"outputs": [
						{
							"internalType": "uint256",
							"name": "",
							"type": "uint256"
						}
					],
					"stateMutability": "view",
					"type": "function"
				},
				{
					"inputs": [],
					"name": "MONTHLY_ROYALTY_TIME",
					"outputs": [
						{
							"internalType": "uint256",
							"name": "",
							"type": "uint256"
						}
					],
					"stateMutability": "view",
					"type": "function"
				},
				{
					"inputs": [],
					"name": "MONTH_DURATION",
					"outputs": [
						{
							"internalType": "uint256",
							"name": "",
							"type": "uint256"
						}
					],
					"stateMutability": "view",
					"type": "function"
				},
				{
					"inputs": [],
					"name": "PERCENTS_DIVIDER",
					"outputs": [
						{
							"internalType": "uint256",
							"name": "",
							"type": "uint256"
						}
					],
					"stateMutability": "view",
					"type": "function"
				},
				{
					"inputs": [],
					"name": "ROI_CAP_DIVIDER",
					"outputs": [
						{
							"internalType": "uint256",
							"name": "",
							"type": "uint256"
						}
					],
					"stateMutability": "view",
					"type": "function"
				},
				{
					"inputs": [],
					"name": "ROI_CAP_MULTIPLIER",
					"outputs": [
						{
							"internalType": "uint256",
							"name": "",
							"type": "uint256"
						}
					],
					"stateMutability": "view",
					"type": "function"
				},
				{
					"inputs": [],
					"name": "TIME_STEP",
					"outputs": [
						{
							"internalType": "uint256",
							"name": "",
							"type": "uint256"
						}
					],
					"stateMutability": "view",
					"type": "function"
				},
				{
					"inputs": [],
					"name": "TOP_ROYALTY_DIRECT",
					"outputs": [
						{
							"internalType": "uint256",
							"name": "",
							"type": "uint256"
						}
					],
					"stateMutability": "view",
					"type": "function"
				},
				{
					"inputs": [],
					"name": "TOP_ROYALTY_LEVEL",
					"outputs": [
						{
							"internalType": "uint256",
							"name": "",
							"type": "uint256"
						}
					],
					"stateMutability": "view",
					"type": "function"
				},
				{
					"inputs": [],
					"name": "TOP_ROYALTY_TIME",
					"outputs": [
						{
							"internalType": "uint256",
							"name": "",
							"type": "uint256"
						}
					],
					"stateMutability": "view",
					"type": "function"
				},
				{
					"inputs": [],
					"name": "WEEK_DURATION",
					"outputs": [
						{
							"internalType": "uint256",
							"name": "",
							"type": "uint256"
						}
					],
					"stateMutability": "view",
					"type": "function"
				},
				{
					"inputs": [],
					"name": "WeeklyCapping",
					"outputs": [
						{
							"internalType": "uint256",
							"name": "",
							"type": "uint256"
						}
					],
					"stateMutability": "view",
					"type": "function"
				},
				{
					"inputs": [],
					"name": "WeeklyTotalReward",
					"outputs": [
						{
							"internalType": "uint256",
							"name": "",
							"type": "uint256"
						}
					],
					"stateMutability": "view",
					"type": "function"
				},
				{
					"inputs": [
						{
							"internalType": "uint256",
							"name": "_userId",
							"type": "uint256"
						}
					],
					"name": "claimCommunity",
					"outputs": [],
					"stateMutability": "nonpayable",
					"type": "function"
				},
				{
					"inputs": [],
					"name": "communityAccPerUser",
					"outputs": [
						{
							"internalType": "uint256",
							"name": "",
							"type": "uint256"
						}
					],
					"stateMutability": "view",
					"type": "function"
				},
				{
					"inputs": [],
					"name": "creatorWallet",
					"outputs": [
						{
							"internalType": "address",
							"name": "",
							"type": "address"
						}
					],
					"stateMutability": "view",
					"type": "function"
				},
				{
					"inputs": [],
					"name": "currentMonthlyRound",
					"outputs": [
						{
							"internalType": "uint256",
							"name": "",
							"type": "uint256"
						}
					],
					"stateMutability": "view",
					"type": "function"
				},
				{
					"inputs": [],
					"name": "currentMonthlyStartTime",
					"outputs": [
						{
							"internalType": "uint256",
							"name": "",
							"type": "uint256"
						}
					],
					"stateMutability": "view",
					"type": "function"
				},
				{
					"inputs": [],
					"name": "currentWeeklyRound",
					"outputs": [
						{
							"internalType": "uint256",
							"name": "",
							"type": "uint256"
						}
					],
					"stateMutability": "view",
					"type": "function"
				},
				{
					"inputs": [],
					"name": "currentWeeklyStartTime",
					"outputs": [
						{
							"internalType": "uint256",
							"name": "",
							"type": "uint256"
						}
					],
					"stateMutability": "view",
					"type": "function"
				},
				{
					"inputs": [],
					"name": "defaultRefId",
					"outputs": [
						{
							"internalType": "uint256",
							"name": "",
							"type": "uint256"
						}
					],
					"stateMutability": "view",
					"type": "function"
				},
				{
					"inputs": [
						{
							"internalType": "uint256",
							"name": "",
							"type": "uint256"
						}
					],
					"name": "glbBoosterPackages",
					"outputs": [
						{
							"internalType": "uint256",
							"name": "",
							"type": "uint256"
						}
					],
					"stateMutability": "view",
					"type": "function"
				},
				{
					"inputs": [
						{
							"internalType": "uint256",
							"name": "",
							"type": "uint256"
						}
					],
					"name": "minLevelForGlbBooster",
					"outputs": [
						{
							"internalType": "uint256",
							"name": "",
							"type": "uint256"
						}
					],
					"stateMutability": "view",
					"type": "function"
				},
				{
					"inputs": [
						{
							"internalType": "uint256",
							"name": "",
							"type": "uint256"
						}
					],
					"name": "minLevelForPool",
					"outputs": [
						{
							"internalType": "uint256",
							"name": "",
							"type": "uint256"
						}
					],
					"stateMutability": "view",
					"type": "function"
				},
				{
					"inputs": [
						{
							"internalType": "uint256",
							"name": "",
							"type": "uint256"
						}
					],
					"name": "minPoolForGlbBooster",
					"outputs": [
						{
							"internalType": "uint256",
							"name": "",
							"type": "uint256"
						}
					],
					"stateMutability": "view",
					"type": "function"
				},
				{
					"inputs": [],
					"name": "monthlyCapping",
					"outputs": [
						{
							"internalType": "uint256",
							"name": "",
							"type": "uint256"
						}
					],
					"stateMutability": "view",
					"type": "function"
				},
				{
					"inputs": [],
					"name": "monthlyTotalReward",
					"outputs": [
						{
							"internalType": "uint256",
							"name": "",
							"type": "uint256"
						}
					],
					"stateMutability": "view",
					"type": "function"
				},
				{
					"inputs": [
						{
							"internalType": "uint256",
							"name": "",
							"type": "uint256"
						}
					],
					"name": "packages",
					"outputs": [
						{
							"internalType": "uint256",
							"name": "",
							"type": "uint256"
						}
					],
					"stateMutability": "view",
					"type": "function"
				},
				{
					"inputs": [
						{
							"internalType": "uint256",
							"name": "_userId",
							"type": "uint256"
						}
					],
					"name": "pendingCommunity",
					"outputs": [
						{
							"internalType": "uint256",
							"name": "pendingGross",
							"type": "uint256"
						},
						{
							"internalType": "uint256",
							"name": "pendingAfterCap",
							"type": "uint256"
						}
					],
					"stateMutability": "view",
					"type": "function"
				},
				{
					"inputs": [
						{
							"internalType": "uint256",
							"name": "",
							"type": "uint256"
						}
					],
					"name": "poolPackages",
					"outputs": [
						{
							"internalType": "uint256",
							"name": "",
							"type": "uint256"
						}
					],
					"stateMutability": "view",
					"type": "function"
				},
				{
					"inputs": [
						{
							"internalType": "uint256",
							"name": "_sponsorId",
							"type": "uint256"
						}
					],
					"name": "register",
					"outputs": [],
					"stateMutability": "nonpayable",
					"type": "function"
				},
				{
					"inputs": [
						{
							"internalType": "uint256",
							"name": "",
							"type": "uint256"
						}
					],
					"name": "registeredUserIds",
					"outputs": [
						{
							"internalType": "uint256",
							"name": "",
							"type": "uint256"
						}
					],
					"stateMutability": "view",
					"type": "function"
				},
				{
					"inputs": [],
					"name": "systemMaintance",
					"outputs": [
						{
							"internalType": "address",
							"name": "",
							"type": "address"
						}
					],
					"stateMutability": "view",
					"type": "function"
				},
				{
					"inputs": [],
					"name": "teamDevelopment",
					"outputs": [
						{
							"internalType": "address",
							"name": "",
							"type": "address"
						}
					],
					"stateMutability": "view",
					"type": "function"
				},
				{
					"inputs": [],
					"name": "topRoyaltyReward",
					"outputs": [
						{
							"internalType": "uint256",
							"name": "",
							"type": "uint256"
						}
					],
					"stateMutability": "view",
					"type": "function"
				},
				{
					"inputs": [],
					"name": "topRoyaltyRound",
					"outputs": [
						{
							"internalType": "uint256",
							"name": "",
							"type": "uint256"
						}
					],
					"stateMutability": "view",
					"type": "function"
				},
				{
					"inputs": [],
					"name": "topRoyaltyStartTime",
					"outputs": [
						{
							"internalType": "uint256",
							"name": "",
							"type": "uint256"
						}
					],
					"stateMutability": "view",
					"type": "function"
				},
				{
					"inputs": [],
					"name": "totalUsers",
					"outputs": [
						{
							"internalType": "uint256",
							"name": "",
							"type": "uint256"
						}
					],
					"stateMutability": "view",
					"type": "function"
				},
				{
					"inputs": [
						{
							"internalType": "uint256",
							"name": "_userId",
							"type": "uint256"
						}
					],
					"name": "upgrade",
					"outputs": [],
					"stateMutability": "nonpayable",
					"type": "function"
				},
				{
					"inputs": [],
					"name": "usdt",
					"outputs": [
						{
							"internalType": "contract IERC20",
							"name": "",
							"type": "address"
						}
					],
					"stateMutability": "view",
					"type": "function"
				}
			],
			"devdoc": {
				"errors": {
					"SafeERC20FailedOperation(address)": [
						{
							"details": "An operation with an ERC-20 token failed."
						}
					]
				},
				"kind": "dev",
				"methods": {},
				"version": 1
			},
			"evm": {
				"assembly": "    /* \"contracts/modules/SponsorMatrix.sol\":124:20190  contract Nanakshahi is Storage{... */\n  mstore(0x40, 0x80)\n  jumpi(tag_4, callvalue)\n    /* \"@openzeppelin/contracts/security/ReentrancyGuard.sol\":1716:1717  1 */\n  0x01\n    /* \"@openzeppelin/contracts/security/ReentrancyGuard.sol\":1821:1843  _status = _NOT_ENTERED */\n  0x00\n    /* \"contracts/modules/SponsorMatrix.sol\":124:20190  contract Nanakshahi is Storage{... */\n  sstore\n  mload(0x40)\n  0x01e0\n  dup2\n  add\n  sub(shl(0x40, 0x01), 0x01)\n  dup2\n  gt\n  dup3\n  dup3\n  lt\n  or\n  tag_6\n  jumpi\n  0x40\n  mstore\n    /* \"contracts/modules/Storage.sol\":1666:1675  15 * 1e18 */\n  0xd02ab486cedc0000\n    /* \"contracts/modules/SponsorMatrix.sol\":124:20190  contract Nanakshahi is Storage{... */\n  dup2\n  mstore\n    /* \"contracts/modules/Storage.sol\":1698:1707  25 * 1e18 */\n  0x015af1d78b58c40000\n    /* \"contracts/modules/Storage.sol\":1655:2170  [... */\n  0x20\n  dup3\n  add\n    /* \"contracts/modules/SponsorMatrix.sol\":124:20190  contract Nanakshahi is Storage{... */\n  mstore\n    /* \"contracts/modules/Storage.sol\":1730:1739  50 * 1e18 */\n  0x02b5e3af16b1880000\n    /* \"contracts/modules/SponsorMatrix.sol\":124:20190  contract Nanakshahi is Storage{... */\n  0x40\n    /* \"contracts/modules/Storage.sol\":1655:2170  [... */\n  dup3\n  add\n    /* \"contracts/modules/SponsorMatrix.sol\":124:20190  contract Nanakshahi is Storage{... */\n  mstore\n    /* \"contracts/modules/Storage.sol\":1762:1772  100 * 1e18 */\n  0x056bc75e2d63100000\n    /* \"contracts/modules/Storage.sol\":1655:2170  [... */\n  0x60\n  dup3\n  add\n    /* \"contracts/modules/SponsorMatrix.sol\":124:20190  contract Nanakshahi is Storage{... */\n  mstore\n    /* \"contracts/modules/Storage.sol\":1795:1805  200 * 1e18 */\n  0x0ad78ebc5ac6200000\n    /* \"contracts/modules/Storage.sol\":1655:2170  [... */\n  0x80\n  dup3\n  add\n    /* \"contracts/modules/SponsorMatrix.sol\":124:20190  contract Nanakshahi is Storage{... */\n  mstore\n    /* \"contracts/modules/Storage.sol\":1828:1838  400 * 1e18 */\n  0x15af1d78b58c400000\n    /* \"contracts/modules/Storage.sol\":1655:2170  [... */\n  0xa0\n  dup3\n  add\n    /* \"contracts/modules/SponsorMatrix.sol\":124:20190  contract Nanakshahi is Storage{... */\n  mstore\n    /* \"contracts/modules/Storage.sol\":1861:1871  800 * 1e18 */\n  0x2b5e3af16b18800000\n    /* \"contracts/modules/Storage.sol\":1655:2170  [... */\n  0xc0\n  dup3\n  add\n    /* \"contracts/modules/SponsorMatrix.sol\":124:20190  contract Nanakshahi is Storage{... */\n  mstore\n    /* \"contracts/modules/Storage.sol\":1894:1905  1600 * 1e18 */\n  0x56bc75e2d631000000\n    /* \"contracts/modules/Storage.sol\":1655:2170  [... */\n  0xe0\n  dup3\n  add\n    /* \"contracts/modules/SponsorMatrix.sol\":124:20190  contract Nanakshahi is Storage{... */\n  mstore\n    /* \"contracts/modules/Storage.sol\":1928:1939  3200 * 1e18 */\n  0xad78ebc5ac62000000\n    /* \"contracts/modules/Storage.sol\":1655:2170  [... */\n  0x0100\n  dup3\n  add\n    /* \"contracts/modules/SponsorMatrix.sol\":124:20190  contract Nanakshahi is Storage{... */\n  mstore\n    /* \"contracts/modules/Storage.sol\":1962:1973  6400 * 1e18 */\n  0x015af1d78b58c4000000\n    /* \"contracts/modules/Storage.sol\":1655:2170  [... */\n  0x0120\n  dup3\n  add\n    /* \"contracts/modules/SponsorMatrix.sol\":124:20190  contract Nanakshahi is Storage{... */\n  mstore\n    /* \"contracts/modules/Storage.sol\":1996:2008  12800 * 1e18 */\n  0x02b5e3af16b188000000\n    /* \"contracts/modules/Storage.sol\":1655:2170  [... */\n  0x0140\n  dup3\n  add\n    /* \"contracts/modules/SponsorMatrix.sol\":124:20190  contract Nanakshahi is Storage{... */\n  mstore\n    /* \"contracts/modules/Storage.sol\":2031:2043  25600 * 1e18 */\n  0x056bc75e2d6310000000\n    /* \"contracts/modules/Storage.sol\":1655:2170  [... */\n  0x0160\n  dup3\n  add\n    /* \"contracts/modules/SponsorMatrix.sol\":124:20190  contract Nanakshahi is Storage{... */\n  mstore\n    /* \"contracts/modules/Storage.sol\":2066:2078  51200 * 1e18 */\n  0x0ad78ebc5ac620000000\n    /* \"contracts/modules/Storage.sol\":1655:2170  [... */\n  0x0180\n  dup3\n  add\n    /* \"contracts/modules/SponsorMatrix.sol\":124:20190  contract Nanakshahi is Storage{... */\n  mstore\n    /* \"contracts/modules/Storage.sol\":2101:2114  102400 * 1e18 */\n  0x15af1d78b58c40000000\n    /* \"contracts/modules/Storage.sol\":1655:2170  [... */\n  0x01a0\n  dup3\n  add\n    /* \"contracts/modules/SponsorMatrix.sol\":124:20190  contract Nanakshahi is Storage{... */\n  mstore\n    /* \"contracts/modules/Storage.sol\":2137:2150  204800 * 1e18 */\n  0x2b5e3af16b1880000000\n    /* \"contracts/modules/Storage.sol\":1655:2170  [... */\n  0x01c0\n  dup3\n  add\n    /* \"contracts/modules/SponsorMatrix.sol\":124:20190  contract Nanakshahi is Storage{... */\n  mstore\n    /* \"contracts/modules/Storage.sol\":1655:2170  [... */\n  0x0b\n    /* \"contracts/modules/SponsorMatrix.sol\":124:20190  contract Nanakshahi is Storage{... */\n  sload\n    /* \"contracts/modules/Storage.sol\":1655:2170  [... */\n  0x0f\n  0x0b\n    /* \"contracts/modules/SponsorMatrix.sol\":124:20190  contract Nanakshahi is Storage{... */\n  sstore\n  dup1\n    /* \"contracts/modules/Storage.sol\":1655:2170  [... */\n  0x0f\n    /* \"contracts/modules/SponsorMatrix.sol\":124:20190  contract Nanakshahi is Storage{... */\n  lt\n  tag_8\n  jumpi\ntag_9:\n  pop\n    /* \"contracts/modules/Storage.sol\":1655:2170  [... */\n  0x0b\n    /* \"@openzeppelin/contracts/security/ReentrancyGuard.sol\":1821:1843  _status = _NOT_ENTERED */\n  0x00\n    /* \"contracts/modules/SponsorMatrix.sol\":124:20190  contract Nanakshahi is Storage{... */\n  mstore\n    /* \"contracts/modules/Storage.sol\":1655:2170  [... */\n  0x20\n    /* \"@openzeppelin/contracts/security/ReentrancyGuard.sol\":1821:1843  _status = _NOT_ENTERED */\n  0x00\n    /* \"contracts/modules/SponsorMatrix.sol\":124:20190  contract Nanakshahi is Storage{... */\n  keccak256\n  swap1\n    /* \"@openzeppelin/contracts/security/ReentrancyGuard.sol\":1821:1843  _status = _NOT_ENTERED */\n  0x00\n    /* \"contracts/modules/SponsorMatrix.sol\":124:20190  contract Nanakshahi is Storage{... */\ntag_10:\n    /* \"contracts/modules/Storage.sol\":1655:2170  [... */\n  0x0f\n    /* \"contracts/modules/SponsorMatrix.sol\":124:20190  contract Nanakshahi is Storage{... */\n  dup2\n  lt\n  tag_11\n  jumpi\n  tag_13\n  tag_1\n  jump\t// in\ntag_13:\n    /* \"contracts/modules/Storage.sol\":6122:6127  75e18 */\n  0x0410d586a20a4c0000\n    /* \"contracts/modules/SponsorMatrix.sol\":124:20190  contract Nanakshahi is Storage{... */\n  dup2\n  mstore\n    /* \"contracts/modules/Storage.sol\":6129:6135  300e18 */\n  0x1043561a8829300000\n    /* \"contracts/modules/Storage.sol\":1655:2170  [... */\n  0x20\n    /* \"contracts/modules/Storage.sol\":6121:6185  [75e18, 300e18, 1200e18, 4800e18, 19200e18, 76800e18, 307200e18] */\n  dup3\n  add\n    /* \"contracts/modules/SponsorMatrix.sol\":124:20190  contract Nanakshahi is Storage{... */\n  mstore\n    /* \"contracts/modules/Storage.sol\":6137:6144  1200e18 */\n  0x410d586a20a4c00000\n    /* \"contracts/modules/SponsorMatrix.sol\":124:20190  contract Nanakshahi is Storage{... */\n  0x40\n    /* \"contracts/modules/Storage.sol\":6121:6185  [75e18, 300e18, 1200e18, 4800e18, 19200e18, 76800e18, 307200e18] */\n  dup3\n  add\n    /* \"contracts/modules/SponsorMatrix.sol\":124:20190  contract Nanakshahi is Storage{... */\n  mstore\n    /* \"contracts/modules/Storage.sol\":6146:6153  4800e18 */\n  0x01043561a88293000000\n    /* \"contracts/modules/Storage.sol\":1655:2170  [... */\n  0x60\n    /* \"contracts/modules/Storage.sol\":6121:6185  [75e18, 300e18, 1200e18, 4800e18, 19200e18, 76800e18, 307200e18] */\n  dup3\n  add\n    /* \"contracts/modules/SponsorMatrix.sol\":124:20190  contract Nanakshahi is Storage{... */\n  mstore\n    /* \"contracts/modules/Storage.sol\":6155:6163  19200e18 */\n  0x0410d586a20a4c000000\n    /* \"contracts/modules/Storage.sol\":1655:2170  [... */\n  0x80\n    /* \"contracts/modules/Storage.sol\":6121:6185  [75e18, 300e18, 1200e18, 4800e18, 19200e18, 76800e18, 307200e18] */\n  dup3\n  add\n    /* \"contracts/modules/SponsorMatrix.sol\":124:20190  contract Nanakshahi is Storage{... */\n  mstore\n    /* \"contracts/modules/Storage.sol\":6165:6173  76800e18 */\n  0x1043561a882930000000\n    /* \"contracts/modules/Storage.sol\":1655:2170  [... */\n  0xa0\n    /* \"contracts/modules/Storage.sol\":6121:6185  [75e18, 300e18, 1200e18, 4800e18, 19200e18, 76800e18, 307200e18] */\n  dup3\n  add\n    /* \"contracts/modules/SponsorMatrix.sol\":124:20190  contract Nanakshahi is Storage{... */\n  mstore\n    /* \"contracts/modules/Storage.sol\":6175:6184  307200e18 */\n  0x410d586a20a4c0000000\n    /* \"contracts/modules/Storage.sol\":1655:2170  [... */\n  0xc0\n    /* \"contracts/modules/Storage.sol\":6121:6185  [75e18, 300e18, 1200e18, 4800e18, 19200e18, 76800e18, 307200e18] */\n  dup3\n  add\n    /* \"contracts/modules/SponsorMatrix.sol\":124:20190  contract Nanakshahi is Storage{... */\n  mstore\n    /* \"contracts/modules/Storage.sol\":6121:6185  [75e18, 300e18, 1200e18, 4800e18, 19200e18, 76800e18, 307200e18] */\n  0x13\n    /* \"contracts/modules/SponsorMatrix.sol\":124:20190  contract Nanakshahi is Storage{... */\n  sload\n    /* \"contracts/modules/Storage.sol\":6121:6185  [75e18, 300e18, 1200e18, 4800e18, 19200e18, 76800e18, 307200e18] */\n  0x07\n  0x13\n    /* \"contracts/modules/SponsorMatrix.sol\":124:20190  contract Nanakshahi is Storage{... */\n  sstore\n  dup1\n    /* \"contracts/modules/Storage.sol\":6121:6185  [75e18, 300e18, 1200e18, 4800e18, 19200e18, 76800e18, 307200e18] */\n  0x07\n    /* \"contracts/modules/SponsorMatrix.sol\":124:20190  contract Nanakshahi is Storage{... */\n  lt\n  tag_14\n  jumpi\ntag_15:\n  pop\n    /* \"contracts/modules/Storage.sol\":6121:6185  [75e18, 300e18, 1200e18, 4800e18, 19200e18, 76800e18, 307200e18] */\n  0x13\n    /* \"@openzeppelin/contracts/security/ReentrancyGuard.sol\":1821:1843  _status = _NOT_ENTERED */\n  0x00\n    /* \"contracts/modules/SponsorMatrix.sol\":124:20190  contract Nanakshahi is Storage{... */\n  mstore\n    /* \"contracts/modules/Storage.sol\":1655:2170  [... */\n  0x20\n    /* \"@openzeppelin/contracts/security/ReentrancyGuard.sol\":1821:1843  _status = _NOT_ENTERED */\n  0x00\n    /* \"contracts/modules/SponsorMatrix.sol\":124:20190  contract Nanakshahi is Storage{... */\n  keccak256\n  swap1\n    /* \"@openzeppelin/contracts/security/ReentrancyGuard.sol\":1821:1843  _status = _NOT_ENTERED */\n  0x00\n    /* \"contracts/modules/SponsorMatrix.sol\":124:20190  contract Nanakshahi is Storage{... */\ntag_16:\n    /* \"contracts/modules/Storage.sol\":6121:6185  [75e18, 300e18, 1200e18, 4800e18, 19200e18, 76800e18, 307200e18] */\n  0x07\n    /* \"contracts/modules/SponsorMatrix.sol\":124:20190  contract Nanakshahi is Storage{... */\n  dup2\n  lt\n  tag_17\n  jumpi\n  tag_19\n  tag_2\n  jump\t// in\ntag_19:\n    /* \"contracts/modules/Storage.sol\":1762:1772  100 * 1e18 */\n  0x056bc75e2d63100000\n    /* \"contracts/modules/SponsorMatrix.sol\":124:20190  contract Nanakshahi is Storage{... */\n  dup2\n  mstore\n    /* \"contracts/modules/Storage.sol\":1795:1805  200 * 1e18 */\n  0x0ad78ebc5ac6200000\n    /* \"contracts/modules/Storage.sol\":1655:2170  [... */\n  0x20\n    /* \"contracts/modules/Storage.sol\":6227:6297  [ 100e18, 200e18, 400e18, 800e18, 1600e18, 3200e18, 6400e18, 12800e18] */\n  dup3\n  add\n    /* \"contracts/modules/SponsorMatrix.sol\":124:20190  contract Nanakshahi is Storage{... */\n  mstore\n    /* \"contracts/modules/Storage.sol\":1828:1838  400 * 1e18 */\n  0x15af1d78b58c400000\n    /* \"contracts/modules/SponsorMatrix.sol\":124:20190  contract Nanakshahi is Storage{... */\n  0x40\n    /* \"contracts/modules/Storage.sol\":6227:6297  [ 100e18, 200e18, 400e18, 800e18, 1600e18, 3200e18, 6400e18, 12800e18] */\n  dup3\n  add\n    /* \"contracts/modules/SponsorMatrix.sol\":124:20190  contract Nanakshahi is Storage{... */\n  mstore\n    /* \"contracts/modules/Storage.sol\":1861:1871  800 * 1e18 */\n  0x2b5e3af16b18800000\n    /* \"contracts/modules/Storage.sol\":1655:2170  [... */\n  0x60\n    /* \"contracts/modules/Storage.sol\":6227:6297  [ 100e18, 200e18, 400e18, 800e18, 1600e18, 3200e18, 6400e18, 12800e18] */\n  dup3\n  add\n    /* \"contracts/modules/SponsorMatrix.sol\":124:20190  contract Nanakshahi is Storage{... */\n  mstore\n    /* \"contracts/modules/Storage.sol\":1894:1905  1600 * 1e18 */\n  0x56bc75e2d631000000\n    /* \"contracts/modules/Storage.sol\":1655:2170  [... */\n  0x80\n    /* \"contracts/modules/Storage.sol\":6227:6297  [ 100e18, 200e18, 400e18, 800e18, 1600e18, 3200e18, 6400e18, 12800e18] */\n  dup3\n  add\n    /* \"contracts/modules/SponsorMatrix.sol\":124:20190  contract Nanakshahi is Storage{... */\n  mstore\n    /* \"contracts/modules/Storage.sol\":1928:1939  3200 * 1e18 */\n  0xad78ebc5ac62000000\n    /* \"contracts/modules/Storage.sol\":1655:2170  [... */\n  0xa0\n    /* \"contracts/modules/Storage.sol\":6227:6297  [ 100e18, 200e18, 400e18, 800e18, 1600e18, 3200e18, 6400e18, 12800e18] */\n  dup3\n  add\n    /* \"contracts/modules/SponsorMatrix.sol\":124:20190  contract Nanakshahi is Storage{... */\n  mstore\n    /* \"contracts/modules/Storage.sol\":1962:1973  6400 * 1e18 */\n  0x015af1d78b58c4000000\n    /* \"contracts/modules/Storage.sol\":1655:2170  [... */\n  0xc0\n    /* \"contracts/modules/Storage.sol\":6227:6297  [ 100e18, 200e18, 400e18, 800e18, 1600e18, 3200e18, 6400e18, 12800e18] */\n  dup3\n  add\n    /* \"contracts/modules/SponsorMatrix.sol\":124:20190  contract Nanakshahi is Storage{... */\n  mstore\n    /* \"contracts/modules/Storage.sol\":1996:2008  12800 * 1e18 */\n  0x02b5e3af16b188000000\n    /* \"contracts/modules/Storage.sol\":1655:2170  [... */\n  0xe0\n    /* \"contracts/modules/Storage.sol\":6227:6297  [ 100e18, 200e18, 400e18, 800e18, 1600e18, 3200e18, 6400e18, 12800e18] */\n  dup3\n  add\n    /* \"contracts/modules/SponsorMatrix.sol\":124:20190  contract Nanakshahi is Storage{... */\n  mstore\n    /* \"contracts/modules/Storage.sol\":6227:6297  [ 100e18, 200e18, 400e18, 800e18, 1600e18, 3200e18, 6400e18, 12800e18] */\n  0x14\n    /* \"contracts/modules/SponsorMatrix.sol\":124:20190  contract Nanakshahi is Storage{... */\n  sload\n    /* \"contracts/modules/Storage.sol\":6227:6297  [ 100e18, 200e18, 400e18, 800e18, 1600e18, 3200e18, 6400e18, 12800e18] */\n  0x08\n  0x14\n    /* \"contracts/modules/SponsorMatrix.sol\":124:20190  contract Nanakshahi is Storage{... */\n  sstore\n  dup1\n    /* \"contracts/modules/Storage.sol\":6227:6297  [ 100e18, 200e18, 400e18, 800e18, 1600e18, 3200e18, 6400e18, 12800e18] */\n  0x08\n    /* \"contracts/modules/SponsorMatrix.sol\":124:20190  contract Nanakshahi is Storage{... */\n  lt\n  tag_20\n  jumpi\ntag_21:\n  pop\n    /* \"contracts/modules/Storage.sol\":6227:6297  [ 100e18, 200e18, 400e18, 800e18, 1600e18, 3200e18, 6400e18, 12800e18] */\n  0x14\n    /* \"@openzeppelin/contracts/security/ReentrancyGuard.sol\":1821:1843  _status = _NOT_ENTERED */\n  0x00\n    /* \"contracts/modules/SponsorMatrix.sol\":124:20190  contract Nanakshahi is Storage{... */\n  mstore\n    /* \"contracts/modules/Storage.sol\":1655:2170  [... */\n  0x20\n    /* \"@openzeppelin/contracts/security/ReentrancyGuard.sol\":1821:1843  _status = _NOT_ENTERED */\n  0x00\n    /* \"contracts/modules/SponsorMatrix.sol\":124:20190  contract Nanakshahi is Storage{... */\n  keccak256\n  swap1\n    /* \"@openzeppelin/contracts/security/ReentrancyGuard.sol\":1821:1843  _status = _NOT_ENTERED */\n  0x00\n    /* \"contracts/modules/SponsorMatrix.sol\":124:20190  contract Nanakshahi is Storage{... */\ntag_22:\n    /* \"contracts/modules/Storage.sol\":6227:6297  [ 100e18, 200e18, 400e18, 800e18, 1600e18, 3200e18, 6400e18, 12800e18] */\n  0x08\n    /* \"contracts/modules/SponsorMatrix.sol\":124:20190  contract Nanakshahi is Storage{... */\n  dup2\n  lt\n  tag_23\n  jumpi\n  tag_25\n  tag_1\n  jump\t// in\ntag_25:\n    /* \"contracts/modules/Storage.sol\":6338:6339  3 */\n  0x03\n    /* \"contracts/modules/SponsorMatrix.sol\":124:20190  contract Nanakshahi is Storage{... */\n  dup2\n  mstore\n  0x05\n    /* \"contracts/modules/Storage.sol\":1655:2170  [... */\n  0x20\n    /* \"contracts/modules/Storage.sol\":6337:6361  [3, 5, 7, 9, 11, 13, 15] */\n  dup3\n  add\n    /* \"contracts/modules/SponsorMatrix.sol\":124:20190  contract Nanakshahi is Storage{... */\n  mstore\n    /* \"contracts/modules/Storage.sol\":6121:6185  [75e18, 300e18, 1200e18, 4800e18, 19200e18, 76800e18, 307200e18] */\n  0x07\n    /* \"contracts/modules/SponsorMatrix.sol\":124:20190  contract Nanakshahi is Storage{... */\n  0x40\n    /* \"contracts/modules/Storage.sol\":6337:6361  [3, 5, 7, 9, 11, 13, 15] */\n  dup3\n  add\n    /* \"contracts/modules/SponsorMatrix.sol\":124:20190  contract Nanakshahi is Storage{... */\n  mstore\n    /* \"contracts/modules/Storage.sol\":6347:6348  9 */\n  0x09\n    /* \"contracts/modules/Storage.sol\":1655:2170  [... */\n  0x60\n    /* \"contracts/modules/Storage.sol\":6337:6361  [3, 5, 7, 9, 11, 13, 15] */\n  dup3\n  add\n    /* \"contracts/modules/SponsorMatrix.sol\":124:20190  contract Nanakshahi is Storage{... */\n  mstore\n    /* \"contracts/modules/Storage.sol\":1655:2170  [... */\n  0x0b\n  0x80\n    /* \"contracts/modules/Storage.sol\":6337:6361  [3, 5, 7, 9, 11, 13, 15] */\n  dup3\n  add\n    /* \"contracts/modules/SponsorMatrix.sol\":124:20190  contract Nanakshahi is Storage{... */\n  mstore\n    /* \"contracts/modules/Storage.sol\":6354:6356  13 */\n  0x0d\n    /* \"contracts/modules/Storage.sol\":1655:2170  [... */\n  0xa0\n    /* \"contracts/modules/Storage.sol\":6337:6361  [3, 5, 7, 9, 11, 13, 15] */\n  dup3\n  add\n    /* \"contracts/modules/SponsorMatrix.sol\":124:20190  contract Nanakshahi is Storage{... */\n  mstore\n    /* \"contracts/modules/Storage.sol\":1655:2170  [... */\n  0x0f\n  0xc0\n    /* \"contracts/modules/Storage.sol\":6337:6361  [3, 5, 7, 9, 11, 13, 15] */\n  dup3\n  add\n    /* \"contracts/modules/SponsorMatrix.sol\":124:20190  contract Nanakshahi is Storage{... */\n  mstore\n    /* \"@openzeppelin/contracts/security/ReentrancyGuard.sol\":1821:1843  _status = _NOT_ENTERED */\n  0x00\n    /* \"contracts/modules/SponsorMatrix.sol\":124:20190  contract Nanakshahi is Storage{... */\ntag_26:\n    /* \"contracts/modules/Storage.sol\":6121:6185  [75e18, 300e18, 1200e18, 4800e18, 19200e18, 76800e18, 307200e18] */\n  0x07\n    /* \"contracts/modules/SponsorMatrix.sol\":124:20190  contract Nanakshahi is Storage{... */\n  dup2\n  lt\n  tag_27\n  jumpi\n  tag_29\n  tag_2\n  jump\t// in\ntag_29:\n    /* \"contracts/modules/Storage.sol\":6408:6409  4 */\n  0x04\n    /* \"contracts/modules/SponsorMatrix.sol\":124:20190  contract Nanakshahi is Storage{... */\n  dup2\n  mstore\n  0x05\n    /* \"contracts/modules/Storage.sol\":1655:2170  [... */\n  0x20\n    /* \"contracts/modules/Storage.sol\":6407:6432  [4, 5, 6, 7, 8, 9, 10,11] */\n  dup3\n  add\n    /* \"contracts/modules/SponsorMatrix.sol\":124:20190  contract Nanakshahi is Storage{... */\n  mstore\n    /* \"contracts/modules/Storage.sol\":6414:6415  6 */\n  0x06\n    /* \"contracts/modules/SponsorMatrix.sol\":124:20190  contract Nanakshahi is Storage{... */\n  0x40\n    /* \"contracts/modules/Storage.sol\":6407:6432  [4, 5, 6, 7, 8, 9, 10,11] */\n  dup3\n  add\n    /* \"contracts/modules/SponsorMatrix.sol\":124:20190  contract Nanakshahi is Storage{... */\n  mstore\n    /* \"contracts/modules/Storage.sol\":6121:6185  [75e18, 300e18, 1200e18, 4800e18, 19200e18, 76800e18, 307200e18] */\n  0x07\n    /* \"contracts/modules/Storage.sol\":1655:2170  [... */\n  0x60\n    /* \"contracts/modules/Storage.sol\":6407:6432  [4, 5, 6, 7, 8, 9, 10,11] */\n  dup3\n  add\n    /* \"contracts/modules/SponsorMatrix.sol\":124:20190  contract Nanakshahi is Storage{... */\n  mstore\n    /* \"contracts/modules/Storage.sol\":6227:6297  [ 100e18, 200e18, 400e18, 800e18, 1600e18, 3200e18, 6400e18, 12800e18] */\n  0x08\n    /* \"contracts/modules/Storage.sol\":1655:2170  [... */\n  0x80\n    /* \"contracts/modules/Storage.sol\":6407:6432  [4, 5, 6, 7, 8, 9, 10,11] */\n  dup3\n  add\n    /* \"contracts/modules/SponsorMatrix.sol\":124:20190  contract Nanakshahi is Storage{... */\n  mstore\n    /* \"contracts/modules/Storage.sol\":6347:6348  9 */\n  0x09\n    /* \"contracts/modules/Storage.sol\":1655:2170  [... */\n  0xa0\n    /* \"contracts/modules/Storage.sol\":6407:6432  [4, 5, 6, 7, 8, 9, 10,11] */\n  dup3\n  add\n    /* \"contracts/modules/SponsorMatrix.sol\":124:20190  contract Nanakshahi is Storage{... */\n  mstore\n    /* \"contracts/modules/Storage.sol\":6426:6428  10 */\n  0x0a\n    /* \"contracts/modules/Storage.sol\":1655:2170  [... */\n  0xc0\n    /* \"contracts/modules/Storage.sol\":6407:6432  [4, 5, 6, 7, 8, 9, 10,11] */\n  dup3\n  add\n    /* \"contracts/modules/SponsorMatrix.sol\":124:20190  contract Nanakshahi is Storage{... */\n  mstore\n    /* \"contracts/modules/Storage.sol\":1655:2170  [... */\n  0x0b\n  0xe0\n    /* \"contracts/modules/Storage.sol\":6407:6432  [4, 5, 6, 7, 8, 9, 10,11] */\n  dup3\n  add\n    /* \"contracts/modules/SponsorMatrix.sol\":124:20190  contract Nanakshahi is Storage{... */\n  mstore\n    /* \"@openzeppelin/contracts/security/ReentrancyGuard.sol\":1821:1843  _status = _NOT_ENTERED */\n  0x00\n    /* \"contracts/modules/SponsorMatrix.sol\":124:20190  contract Nanakshahi is Storage{... */\ntag_30:\n    /* \"contracts/modules/Storage.sol\":6227:6297  [ 100e18, 200e18, 400e18, 800e18, 1600e18, 3200e18, 6400e18, 12800e18] */\n  0x08\n    /* \"contracts/modules/SponsorMatrix.sol\":124:20190  contract Nanakshahi is Storage{... */\n  dup2\n  lt\n  tag_31\n  jumpi\n  tag_33\n  tag_2\n  jump\t// in\ntag_33:\n    /* \"@openzeppelin/contracts/security/ReentrancyGuard.sol\":1821:1843  _status = _NOT_ENTERED */\n  0x00\n    /* \"contracts/modules/SponsorMatrix.sol\":124:20190  contract Nanakshahi is Storage{... */\n  dup2\n  mstore\n    /* \"@openzeppelin/contracts/security/ReentrancyGuard.sol\":1716:1717  1 */\n  0x01\n    /* \"contracts/modules/Storage.sol\":1655:2170  [... */\n  0x20\n    /* \"contracts/modules/Storage.sol\":6477:6500  [0, 1, 1, 1, 1, 1, 1,1] */\n  dup3\n  add\n    /* \"contracts/modules/SponsorMatrix.sol\":124:20190  contract Nanakshahi is Storage{... */\n  mstore\n    /* \"@openzeppelin/contracts/security/ReentrancyGuard.sol\":1716:1717  1 */\n  0x01\n    /* \"contracts/modules/SponsorMatrix.sol\":124:20190  contract Nanakshahi is Storage{... */\n  0x40\n    /* \"contracts/modules/Storage.sol\":6477:6500  [0, 1, 1, 1, 1, 1, 1,1] */\n  dup3\n  add\n    /* \"contracts/modules/SponsorMatrix.sol\":124:20190  contract Nanakshahi is Storage{... */\n  mstore\n    /* \"@openzeppelin/contracts/security/ReentrancyGuard.sol\":1716:1717  1 */\n  0x01\n    /* \"contracts/modules/Storage.sol\":1655:2170  [... */\n  0x60\n    /* \"contracts/modules/Storage.sol\":6477:6500  [0, 1, 1, 1, 1, 1, 1,1] */\n  dup3\n  add\n    /* \"contracts/modules/SponsorMatrix.sol\":124:20190  contract Nanakshahi is Storage{... */\n  mstore\n    /* \"@openzeppelin/contracts/security/ReentrancyGuard.sol\":1716:1717  1 */\n  0x01\n    /* \"contracts/modules/Storage.sol\":1655:2170  [... */\n  0x80\n    /* \"contracts/modules/Storage.sol\":6477:6500  [0, 1, 1, 1, 1, 1, 1,1] */\n  dup3\n  add\n    /* \"contracts/modules/SponsorMatrix.sol\":124:20190  contract Nanakshahi is Storage{... */\n  mstore\n    /* \"@openzeppelin/contracts/security/ReentrancyGuard.sol\":1716:1717  1 */\n  0x01\n    /* \"contracts/modules/Storage.sol\":1655:2170  [... */\n  0xa0\n    /* \"contracts/modules/Storage.sol\":6477:6500  [0, 1, 1, 1, 1, 1, 1,1] */\n  dup3\n  add\n    /* \"contracts/modules/SponsorMatrix.sol\":124:20190  contract Nanakshahi is Storage{... */\n  mstore\n    /* \"@openzeppelin/contracts/security/ReentrancyGuard.sol\":1716:1717  1 */\n  0x01\n    /* \"contracts/modules/Storage.sol\":1655:2170  [... */\n  0xc0\n    /* \"contracts/modules/Storage.sol\":6477:6500  [0, 1, 1, 1, 1, 1, 1,1] */\n  dup3\n  add\n    /* \"contracts/modules/SponsorMatrix.sol\":124:20190  contract Nanakshahi is Storage{... */\n  mstore\n    /* \"@openzeppelin/contracts/security/ReentrancyGuard.sol\":1716:1717  1 */\n  0x01\n    /* \"contracts/modules/Storage.sol\":1655:2170  [... */\n  0xe0\n    /* \"contracts/modules/Storage.sol\":6477:6500  [0, 1, 1, 1, 1, 1, 1,1] */\n  dup3\n  add\n    /* \"contracts/modules/SponsorMatrix.sol\":124:20190  contract Nanakshahi is Storage{... */\n  mstore\n    /* \"@openzeppelin/contracts/security/ReentrancyGuard.sol\":1821:1843  _status = _NOT_ENTERED */\n  0x00\n    /* \"contracts/modules/SponsorMatrix.sol\":124:20190  contract Nanakshahi is Storage{... */\ntag_34:\n    /* \"contracts/modules/Storage.sol\":6227:6297  [ 100e18, 200e18, 400e18, 800e18, 1600e18, 3200e18, 6400e18, 12800e18] */\n  0x08\n    /* \"contracts/modules/SponsorMatrix.sol\":124:20190  contract Nanakshahi is Storage{... */\n  dup2\n  lt\n  tag_35\n  jumpi\n    /* \"@openzeppelin/contracts/security/ReentrancyGuard.sol\":1821:1843  _status = _NOT_ENTERED */\n  0x00\n    /* \"contracts/modules/Storage.sol\":8030:8031  0 */\n  0x36\n    /* \"contracts/modules/SponsorMatrix.sol\":124:20190  contract Nanakshahi is Storage{... */\n  sstore\n    /* \"@openzeppelin/contracts/security/ReentrancyGuard.sol\":1821:1843  _status = _NOT_ENTERED */\n  0x00\n    /* \"contracts/modules/Storage.sol\":8075:8076  0 */\n  0x37\n    /* \"contracts/modules/SponsorMatrix.sol\":124:20190  contract Nanakshahi is Storage{... */\n  sstore\n    /* \"@openzeppelin/contracts/security/ReentrancyGuard.sol\":1821:1843  _status = _NOT_ENTERED */\n  0x00\n    /* \"contracts/modules/Storage.sol\":8117:8118  0 */\n  0x38\n    /* \"contracts/modules/SponsorMatrix.sol\":124:20190  contract Nanakshahi is Storage{... */\n  sstore\n    /* \"@openzeppelin/contracts/security/ReentrancyGuard.sol\":1716:1717  1 */\n  0x01\n    /* \"contracts/modules/Storage.sol\":9479:9480  1 */\n  0x3d\n    /* \"contracts/modules/SponsorMatrix.sol\":124:20190  contract Nanakshahi is Storage{... */\n  sstore\n    /* \"@openzeppelin/contracts/security/ReentrancyGuard.sol\":1821:1843  _status = _NOT_ENTERED */\n  0x00\n    /* \"contracts/modules/Storage.sol\":9525:9526  0 */\n  0x3e\n    /* \"contracts/modules/SponsorMatrix.sol\":124:20190  contract Nanakshahi is Storage{... */\n  sstore\n    /* \"@openzeppelin/contracts/security/ReentrancyGuard.sol\":1821:1843  _status = _NOT_ENTERED */\n  0x00\n    /* \"contracts/modules/Storage.sol\":9566:9567  0 */\n  0x3f\n    /* \"contracts/modules/SponsorMatrix.sol\":124:20190  contract Nanakshahi is Storage{... */\n  sstore\n    /* \"@openzeppelin/contracts/security/ReentrancyGuard.sol\":1716:1717  1 */\n  0x01\n    /* \"contracts/modules/Storage.sol\":10785:10786  1 */\n  0x44\n    /* \"contracts/modules/SponsorMatrix.sol\":124:20190  contract Nanakshahi is Storage{... */\n  sstore\n    /* \"@openzeppelin/contracts/security/ReentrancyGuard.sol\":1821:1843  _status = _NOT_ENTERED */\n  0x00\n    /* \"contracts/modules/Storage.sol\":10827:10828  0 */\n  0x45\n    /* \"contracts/modules/SponsorMatrix.sol\":124:20190  contract Nanakshahi is Storage{... */\n  sstore\n    /* \"@openzeppelin/contracts/security/ReentrancyGuard.sol\":1821:1843  _status = _NOT_ENTERED */\n  0x00\n    /* \"contracts/modules/Storage.sol\":10866:10867  0 */\n  0x46\n    /* \"contracts/modules/SponsorMatrix.sol\":124:20190  contract Nanakshahi is Storage{... */\n  sstore\n  mload(0x40)\n  dataSize(sub_0)\n  swap1\n  dup2\n  dataOffset(sub_0)\n  dup3\n  codecopy\n  return\ntag_35:\n    /* \"@openzeppelin/contracts/security/ReentrancyGuard.sol\":1716:1717  1 */\n  0x01\n    /* \"contracts/modules/SponsorMatrix.sol\":124:20190  contract Nanakshahi is Storage{... */\n  swap1\n    /* \"contracts/modules/Storage.sol\":1655:2170  [... */\n  0x20\n    /* \"contracts/modules/SponsorMatrix.sol\":124:20190  contract Nanakshahi is Storage{... */\n  0xff\n  dup5\n  mload\n  and\n  swap4\n  add\n  swap3\n  dup2\n    /* \"contracts/modules/Storage.sol\":6477:6500  [0, 1, 1, 1, 1, 1, 1,1] */\n  0x24\n    /* \"contracts/modules/SponsorMatrix.sol\":124:20190  contract Nanakshahi is Storage{... */\n  add\n  sstore\n  add\n  jump(tag_34)\ntag_31:\n    /* \"@openzeppelin/contracts/security/ReentrancyGuard.sol\":1716:1717  1 */\n  0x01\n    /* \"contracts/modules/SponsorMatrix.sol\":124:20190  contract Nanakshahi is Storage{... */\n  swap1\n    /* \"contracts/modules/Storage.sol\":1655:2170  [... */\n  0x20\n    /* \"contracts/modules/SponsorMatrix.sol\":124:20190  contract Nanakshahi is Storage{... */\n  0xff\n  dup5\n  mload\n  and\n  swap4\n  add\n  swap3\n  dup2\n    /* \"contracts/modules/Storage.sol\":6407:6432  [4, 5, 6, 7, 8, 9, 10,11] */\n  0x1c\n    /* \"contracts/modules/SponsorMatrix.sol\":124:20190  contract Nanakshahi is Storage{... */\n  add\n  sstore\n  add\n  jump(tag_30)\ntag_27:\n    /* \"@openzeppelin/contracts/security/ReentrancyGuard.sol\":1716:1717  1 */\n  0x01\n    /* \"contracts/modules/SponsorMatrix.sol\":124:20190  contract Nanakshahi is Storage{... */\n  swap1\n    /* \"contracts/modules/Storage.sol\":1655:2170  [... */\n  0x20\n    /* \"contracts/modules/SponsorMatrix.sol\":124:20190  contract Nanakshahi is Storage{... */\n  0xff\n  dup5\n  mload\n  and\n  swap4\n  add\n  swap3\n  dup2\n    /* \"contracts/modules/Storage.sol\":6337:6361  [3, 5, 7, 9, 11, 13, 15] */\n  0x15\n    /* \"contracts/modules/SponsorMatrix.sol\":124:20190  contract Nanakshahi is Storage{... */\n  add\n  sstore\n  add\n  jump(tag_26)\ntag_23:\n  dup2\n  mload\n  sub(shl(0x50, 0x01), 0x01)\n  and\n  dup2\n  dup5\n  add\n  sstore\n    /* \"contracts/modules/Storage.sol\":1655:2170  [... */\n  0x20\n    /* \"contracts/modules/SponsorMatrix.sol\":124:20190  contract Nanakshahi is Storage{... */\n  swap1\n  swap2\n  add\n  swap1\n    /* \"@openzeppelin/contracts/security/ReentrancyGuard.sol\":1716:1717  1 */\n  0x01\n    /* \"contracts/modules/SponsorMatrix.sol\":124:20190  contract Nanakshahi is Storage{... */\n  add\n  jump(tag_22)\ntag_20:\n    /* \"contracts/modules/Storage.sol\":6227:6297  [ 100e18, 200e18, 400e18, 800e18, 1600e18, 3200e18, 6400e18, 12800e18] */\n  0x14\n    /* \"@openzeppelin/contracts/security/ReentrancyGuard.sol\":1821:1843  _status = _NOT_ENTERED */\n  0x00\n    /* \"contracts/modules/SponsorMatrix.sol\":124:20190  contract Nanakshahi is Storage{... */\n  mstore\n  tag_37\n  swap1\n  0xce6d7b5282bd9a3661ae061feed1dbda4e52ab073b1f9285be6e155d9c38d4ec\n  add\n  0xce6d7b5282bd9a3661ae061feed1dbda4e52ab073b1f9285be6e155d9c38d4f4\n  tag_3\n  jump\t// in\ntag_37:\n  dup2\n  jump(tag_21)\ntag_17:\n  dup2\n  mload\n  sub(shl(0x50, 0x01), 0x01)\n  and\n  dup2\n  dup5\n  add\n  sstore\n    /* \"contracts/modules/Storage.sol\":1655:2170  [... */\n  0x20\n    /* \"contracts/modules/SponsorMatrix.sol\":124:20190  contract Nanakshahi is Storage{... */\n  swap1\n  swap2\n  add\n  swap1\n    /* \"@openzeppelin/contracts/security/ReentrancyGuard.sol\":1716:1717  1 */\n  0x01\n    /* \"contracts/modules/SponsorMatrix.sol\":124:20190  contract Nanakshahi is Storage{... */\n  add\n  jump(tag_16)\ntag_14:\n    /* \"contracts/modules/Storage.sol\":6121:6185  [75e18, 300e18, 1200e18, 4800e18, 19200e18, 76800e18, 307200e18] */\n  0x13\n    /* \"@openzeppelin/contracts/security/ReentrancyGuard.sol\":1821:1843  _status = _NOT_ENTERED */\n  0x00\n    /* \"contracts/modules/SponsorMatrix.sol\":124:20190  contract Nanakshahi is Storage{... */\n  mstore\n  tag_38\n  swap1\n  0x66de8ffda797e3de9c05e8fc57b3bf0ec28a930d40b0d285d93c06501cf6a090\n  add\n  0x66de8ffda797e3de9c05e8fc57b3bf0ec28a930d40b0d285d93c06501cf6a097\n  tag_3\n  jump\t// in\ntag_38:\n  dup2\n  jump(tag_15)\ntag_11:\n  dup2\n  mload\n  sub(shl(0x50, 0x01), 0x01)\n  and\n  dup2\n  dup5\n  add\n  sstore\n    /* \"contracts/modules/Storage.sol\":1655:2170  [... */\n  0x20\n    /* \"contracts/modules/SponsorMatrix.sol\":124:20190  contract Nanakshahi is Storage{... */\n  swap1\n  swap2\n  add\n  swap1\n    /* \"@openzeppelin/contracts/security/ReentrancyGuard.sol\":1716:1717  1 */\n  0x01\n    /* \"contracts/modules/SponsorMatrix.sol\":124:20190  contract Nanakshahi is Storage{... */\n  add\n  jump(tag_10)\ntag_8:\n    /* \"contracts/modules/Storage.sol\":1655:2170  [... */\n  0x0b\n    /* \"@openzeppelin/contracts/security/ReentrancyGuard.sol\":1821:1843  _status = _NOT_ENTERED */\n  0x00\n    /* \"contracts/modules/SponsorMatrix.sol\":124:20190  contract Nanakshahi is Storage{... */\n  mstore\n  tag_39\n  swap1\n  0x0175b7a638427703f0dbe7bb9bbf987a2551717b34e79f33b5b1008d1fa01db9\n  add\n  0x0175b7a638427703f0dbe7bb9bbf987a2551717b34e79f33b5b1008d1fa01dc8\n  tag_3\n  jump\t// in\ntag_39:\n  0x00\n  jump(tag_9)\ntag_6:\n  shl(0xe0, 0x4e487b71)\n    /* \"@openzeppelin/contracts/security/ReentrancyGuard.sol\":1821:1843  _status = _NOT_ENTERED */\n  0x00\n    /* \"contracts/modules/SponsorMatrix.sol\":124:20190  contract Nanakshahi is Storage{... */\n  mstore\n  mstore(0x04, 0x41)\n  0x24\n    /* \"@openzeppelin/contracts/security/ReentrancyGuard.sol\":1821:1843  _status = _NOT_ENTERED */\n  0x00\n    /* \"contracts/modules/SponsorMatrix.sol\":124:20190  contract Nanakshahi is Storage{... */\n  revert\ntag_4:\n  0x00\n  dup1\n  revert\ntag_1:\n  mload(0x40)\n  swap1\n  0xe0\n  dup3\n  add\n  sub(shl(0x40, 0x01), 0x01)\n  dup2\n  gt\n  dup4\n  dup3\n  lt\n  or\n  tag_6\n  jumpi\n  0x40\n  mstore\n  jump\t// out\ntag_2:\n  mload(0x40)\n  swap1\n  0x0100\n  dup3\n  add\n  sub(shl(0x40, 0x01), 0x01)\n  dup2\n  gt\n  dup4\n  dup3\n  lt\n  or\n  tag_6\n  jumpi\n  0x40\n  mstore\n  jump\t// out\ntag_3:\n  dup2\n  dup2\n  lt\n  tag_45\n  jumpi\n  pop\n  pop\n  jump\t// out\ntag_45:\n  0x00\n  dup2\n  sstore\n  0x01\n  add\n  jump(tag_3)\nstop\n\nsub_0: assembly {\n        /* \"contracts/modules/SponsorMatrix.sol\":124:20190  contract Nanakshahi is Storage{... */\n      0x80\n      dup1\n      0x40\n      mstore\n      jumpi(tag_37, iszero(lt(calldatasize, 0x04)))\n      0x00\n      dup1\n      revert\n    tag_37:\n      shr(0xe0, calldataload(0x00))\n      swap1\n      dup2\n      0x01c234a8\n      eq\n      tag_39\n      jumpi\n      pop\n      dup1\n      0x2132d204\n      eq\n      tag_41\n      jumpi\n      dup1\n      0x2350268f\n      eq\n      tag_43\n      jumpi\n      dup1\n      0x23fd338e\n      eq\n      tag_71\n      jumpi\n      dup1\n      0x24513088\n      eq\n      tag_47\n      jumpi\n      dup1\n      0x2a891534\n      eq\n      tag_49\n      jumpi\n      dup1\n      0x2ae0ee0d\n      eq\n      tag_63\n      jumpi\n      dup1\n      0x2f48ab7d\n      eq\n      tag_53\n      jumpi\n      dup1\n      0x3080b5bc\n      eq\n      tag_55\n      jumpi\n      dup1\n      0x31bb6a30\n      eq\n      tag_57\n      jumpi\n      dup1\n      0x32bc298c\n      eq\n      tag_59\n      jumpi\n      dup1\n      0x32fcd966\n      eq\n      tag_61\n      jumpi\n      dup1\n      0x375b43b4\n      eq\n      tag_63\n      jumpi\n      dup1\n      0x39ab3603\n      eq\n      tag_65\n      jumpi\n      dup1\n      0x45977d03\n      eq\n      tag_67\n      jumpi\n      dup1\n      0x4b8cbf9b\n      eq\n      tag_69\n      jumpi\n      dup1\n      0x58c7d352\n      eq\n      tag_71\n      jumpi\n      dup1\n      0x5b62d1d5\n      eq\n      tag_73\n      jumpi\n      dup1\n      0x705fee2d\n      eq\n      tag_75\n      jumpi\n      dup1\n      0x76f5f700\n      eq\n      tag_77\n      jumpi\n      dup1\n      0x78f6ad6d\n      eq\n      tag_79\n      jumpi\n      dup1\n      0x7cdc65f2\n      eq\n      tag_81\n      jumpi\n      dup1\n      0x956a3228\n      eq\n      tag_83\n      jumpi\n      dup1\n      0x9b40ab97\n      eq\n      tag_85\n      jumpi\n      dup1\n      0xa59d17d1\n      eq\n      tag_87\n      jumpi\n      dup1\n      0xa5e52b99\n      eq\n      tag_89\n      jumpi\n      dup1\n      0xae4708dc\n      eq\n      tag_91\n      jumpi\n      dup1\n      0xbff1f9e1\n      eq\n      tag_93\n      jumpi\n      dup1\n      0xc216212a\n      eq\n      tag_95\n      jumpi\n      dup1\n      0xc8df2908\n      eq\n      tag_97\n      jumpi\n      dup1\n      0xc9ed0708\n      eq\n      tag_99\n      jumpi\n      dup1\n      0xca8e9121\n      eq\n      tag_101\n      jumpi\n      dup1\n      0xd0a2fd79\n      eq\n      tag_103\n      jumpi\n      dup1\n      0xd2f0490d\n      eq\n      tag_105\n      jumpi\n      dup1\n      0xd54d6ddb\n      eq\n      tag_107\n      jumpi\n      dup1\n      0xe898fc38\n      eq\n      tag_109\n      jumpi\n      dup1\n      0xe9e34a16\n      eq\n      tag_111\n      jumpi\n      dup1\n      0xebe0ff15\n      eq\n      tag_113\n      jumpi\n      dup1\n      0xec597e6f\n      eq\n      tag_115\n      jumpi\n      dup1\n      0xf207564e\n      eq\n      tag_117\n      jumpi\n      dup1\n      0xf5d74d93\n      eq\n      tag_119\n      jumpi\n      0xfddc806f\n      eq\n      tag_121\n      jumpi\n      0x00\n      dup1\n      revert\n    tag_121:\n      jumpi(tag_125, callvalue)\n      jumpi(tag_125, slt(add(not(0x03), calldatasize), 0x00))\n      0x20\n        /* \"contracts/modules/Storage.sol\":8038:8076  uint public currentWeeklyStartTime = 0 */\n      0x37\n        /* \"contracts/modules/SponsorMatrix.sol\":124:20190  contract Nanakshahi is Storage{... */\n      sload\n      mload(0x40)\n      swap1\n      dup2\n      mstore\n      return\n    tag_125:\n      0x00\n      dup1\n      revert\n    tag_119:\n      jumpi(tag_125, callvalue)\n      jumpi(tag_125, slt(add(not(0x03), calldatasize), 0x00))\n      sload(0x04)\n      mload(0x40)\n      sub(shl(0xa0, 0x01), 0x01)\n      swap1\n      swap2\n      and\n      dup2\n      mstore\n      0x20\n      swap1\n      return\n    tag_117:\n      jumpi(tag_125, callvalue)\n      jumpi(tag_125, slt(add(not(0x03), calldatasize), 0x20))\n      calldataload(0x04)\n        /* \"contracts/modules/SponsorMatrix.sol\":298:308  msg.sender */\n      caller\n        /* \"contracts/modules/SponsorMatrix.sol\":124:20190  contract Nanakshahi is Storage{... */\n      0x00\n      mstore\n        /* \"contracts/modules/SponsorMatrix.sol\":286:297  addressToId */\n      0x0c\n        /* \"contracts/modules/SponsorMatrix.sol\":124:20190  contract Nanakshahi is Storage{... */\n      0x20\n      mstore\n      jumpi(tag_135, sload(keccak256(0x00, 0x40)))\n      dup1\n      0x00\n      mstore\n        /* \"contracts/modules/SponsorMatrix.sol\":356:361  users */\n      0x0d\n        /* \"contracts/modules/SponsorMatrix.sol\":124:20190  contract Nanakshahi is Storage{... */\n      0x20\n      mstore\n        /* \"contracts/modules/SponsorMatrix.sol\":356:376  users[_sponsorId].id */\n      0x03\n        /* \"contracts/modules/SponsorMatrix.sol\":124:20190  contract Nanakshahi is Storage{... */\n      keccak256(0x00, 0x40)\n        /* \"contracts/modules/SponsorMatrix.sol\":356:376  users[_sponsorId].id */\n      add\n        /* \"contracts/modules/SponsorMatrix.sol\":124:20190  contract Nanakshahi is Storage{... */\n      sload\n        /* \"contracts/modules/SponsorMatrix.sol\":356:380  users[_sponsorId].id > 0 */\n      iszero\n        /* \"contracts/modules/SponsorMatrix.sol\":124:20190  contract Nanakshahi is Storage{... */\n      tag_137\n      jumpi\n      sload(0x01)\n      0x00\n      swap1\n      0x20\n      swap1\n        /* \"contracts/modules/SponsorMatrix.sol\":469:526  usdt.transferFrom(msg.sender, address(this), packages[0]) */\n      tag_139\n      swap1\n      sub(shl(0xa0, 0x01), 0x01)\n        /* \"contracts/modules/SponsorMatrix.sol\":124:20190  contract Nanakshahi is Storage{... */\n      and\n        /* \"contracts/modules/SponsorMatrix.sol\":514:525  packages[0] */\n      tag_140\n      tag_2\n      jump\t// in\n    tag_140:\n        /* \"contracts/modules/SponsorMatrix.sol\":124:20190  contract Nanakshahi is Storage{... */\n      swap1\n      sload\n      mload(0x40)\n      shl(0xe0, 0x23b872dd)\n        /* \"contracts/modules/SponsorMatrix.sol\":469:526  usdt.transferFrom(msg.sender, address(this), packages[0]) */\n      dup2\n      mstore\n        /* \"contracts/modules/SponsorMatrix.sol\":298:308  msg.sender */\n      caller\n        /* \"contracts/modules/SponsorMatrix.sol\":124:20190  contract Nanakshahi is Storage{... */\n      0x04\n        /* \"contracts/modules/SponsorMatrix.sol\":469:526  usdt.transferFrom(msg.sender, address(this), packages[0]) */\n      dup3\n      add\n        /* \"contracts/modules/SponsorMatrix.sol\":124:20190  contract Nanakshahi is Storage{... */\n      mstore\n        /* \"contracts/modules/SponsorMatrix.sol\":507:511  this */\n      address\n        /* \"contracts/modules/SponsorMatrix.sol\":124:20190  contract Nanakshahi is Storage{... */\n      0x24\n      dup3\n      add\n      mstore\n        /* \"contracts/modules/SponsorMatrix.sol\":356:376  users[_sponsorId].id */\n      0x03\n        /* \"contracts/modules/SponsorMatrix.sol\":124:20190  contract Nanakshahi is Storage{... */\n      swap3\n      swap1\n      swap3\n      shl\n      shr\n      0x44\n      dup3\n      add\n      mstore\n      swap4\n      dup5\n      swap3\n      dup4\n      swap2\n      swap1\n      dup3\n      swap1\n      0x64\n      dup3\n      add\n      swap1\n      jump\n        /* \"contracts/modules/SponsorMatrix.sol\":469:526  usdt.transferFrom(msg.sender, address(this), packages[0]) */\n    tag_139:\n      sub\n      swap3\n      gas\n      call\n      dup1\n      iszero\n      tag_141\n      jumpi\n      tag_143\n      jumpi\n        /* \"contracts/modules/SponsorMatrix.sol\":124:20190  contract Nanakshahi is Storage{... */\n    tag_144:\n      pop\n        /* \"contracts/modules/SponsorMatrix.sol\":602:614  defaultRefId */\n      0x05\n        /* \"contracts/modules/SponsorMatrix.sol\":124:20190  contract Nanakshahi is Storage{... */\n      sload\n      swap1\n        /* \"contracts/modules/SponsorMatrix.sol\":602:627  defaultRefId + totalUsers */\n      tag_145\n        /* \"contracts/modules/SponsorMatrix.sol\":617:627  totalUsers */\n      0x06\n        /* \"contracts/modules/SponsorMatrix.sol\":124:20190  contract Nanakshahi is Storage{... */\n      sload\n        /* \"contracts/modules/SponsorMatrix.sol\":602:627  defaultRefId + totalUsers */\n      dup1\n      swap4\n      tag_15\n      jump\t// in\n    tag_145:\n        /* \"contracts/modules/SponsorMatrix.sol\":124:20190  contract Nanakshahi is Storage{... */\n      swap2\n      0x01\n      dup2\n      add\n      dup1\n      swap2\n      gt\n      tag_171\n      jumpi\n        /* \"contracts/modules/SponsorMatrix.sol\":617:627  totalUsers */\n      0x06\n        /* \"contracts/modules/SponsorMatrix.sol\":124:20190  contract Nanakshahi is Storage{... */\n      sstore\n        /* \"contracts/modules/SponsorMatrix.sol\":298:308  msg.sender */\n      caller\n        /* \"contracts/modules/SponsorMatrix.sol\":124:20190  contract Nanakshahi is Storage{... */\n      0x00\n      mstore\n        /* \"contracts/modules/SponsorMatrix.sol\":286:297  addressToId */\n      0x0c\n        /* \"contracts/modules/SponsorMatrix.sol\":124:20190  contract Nanakshahi is Storage{... */\n      0x20\n      mstore\n      dup2\n      keccak256(0x00, 0x40)\n      sstore\n      dup2\n      0x00\n      mstore\n        /* \"contracts/modules/SponsorMatrix.sol\":356:361  users */\n      0x0d\n        /* \"contracts/modules/SponsorMatrix.sol\":124:20190  contract Nanakshahi is Storage{... */\n      0x20\n      mstore\n      keccak256(0x00, 0x40)\n        /* \"contracts/modules/SponsorMatrix.sol\":298:308  msg.sender */\n      swap1\n      caller\n        /* \"contracts/modules/SponsorMatrix.sol\":124:20190  contract Nanakshahi is Storage{... */\n      shl(0xa0, 0xffffffffffffffffffffffff)\n      dup4\n      sload\n      and\n      or\n      dup3\n      sstore\n        /* \"contracts/modules/SponsorMatrix.sol\":822:837  block.timestamp */\n      timestamp\n        /* \"contracts/modules/SponsorMatrix.sol\":804:819  user.checkpoint */\n      0x02\n      dup4\n      add\n        /* \"contracts/modules/SponsorMatrix.sol\":124:20190  contract Nanakshahi is Storage{... */\n      sstore\n        /* \"contracts/modules/SponsorMatrix.sol\":848:855  user.id */\n      dup3\n        /* \"contracts/modules/SponsorMatrix.sol\":356:376  users[_sponsorId].id */\n      0x03\n        /* \"contracts/modules/SponsorMatrix.sol\":848:855  user.id */\n      dup4\n      add\n        /* \"contracts/modules/SponsorMatrix.sol\":124:20190  contract Nanakshahi is Storage{... */\n      sstore\n      0x04\n        /* \"contracts/modules/SponsorMatrix.sol\":878:892  user.sponsorId */\n      dup3\n      add\n        /* \"contracts/modules/SponsorMatrix.sol\":124:20190  contract Nanakshahi is Storage{... */\n      dup2\n      dup2\n      sstore\n      0x01\n        /* \"contracts/modules/SponsorMatrix.sol\":617:627  totalUsers */\n      0x06\n        /* \"contracts/modules/SponsorMatrix.sol\":916:926  user.level */\n      dup5\n      add\n        /* \"contracts/modules/SponsorMatrix.sol\":124:20190  contract Nanakshahi is Storage{... */\n      sstore\n        /* \"contracts/modules/SponsorMatrix.sol\":961:972  packages[0] */\n      tag_148\n      tag_2\n      jump\t// in\n    tag_148:\n        /* \"contracts/modules/SponsorMatrix.sol\":124:20190  contract Nanakshahi is Storage{... */\n      swap1\n      sload\n      swap1\n        /* \"contracts/modules/SponsorMatrix.sol\":356:376  users[_sponsorId].id */\n      0x03\n        /* \"contracts/modules/SponsorMatrix.sol\":124:20190  contract Nanakshahi is Storage{... */\n      shl\n      shr\n        /* \"contracts/modules/SponsorMatrix.sol\":941:958  user.totalDeposit */\n      0x0a\n      dup5\n      add\n        /* \"contracts/modules/SponsorMatrix.sol\":124:20190  contract Nanakshahi is Storage{... */\n      sstore\n        /* \"contracts/modules/SponsorMatrix.sol\":822:837  block.timestamp */\n      timestamp\n        /* \"contracts/modules/SponsorMatrix.sol\":983:1004  user.registrationTime */\n      0x0f\n      dup5\n      add\n        /* \"contracts/modules/SponsorMatrix.sol\":124:20190  contract Nanakshahi is Storage{... */\n      sstore\n      dup2\n      0x00\n      mstore\n        /* \"contracts/modules/SponsorMatrix.sol\":356:361  users */\n      0x0d\n        /* \"contracts/modules/SponsorMatrix.sol\":124:20190  contract Nanakshahi is Storage{... */\n      0x20\n      mstore\n        /* \"contracts/modules/SponsorMatrix.sol\":1088:1116  users[_sponsorId].directTeam */\n      0x07\n        /* \"contracts/modules/SponsorMatrix.sol\":124:20190  contract Nanakshahi is Storage{... */\n      keccak256(0x00, 0x40)\n        /* \"contracts/modules/SponsorMatrix.sol\":1088:1116  users[_sponsorId].directTeam */\n      add\n        /* \"contracts/modules/SponsorMatrix.sol\":124:20190  contract Nanakshahi is Storage{... */\n      dup1\n      sload\n      swap1\n      0x01\n      dup3\n      add\n      dup1\n      swap3\n      gt\n      tag_171\n      jumpi\n      sstore\n      dup2\n      0x00\n      mstore\n        /* \"contracts/modules/SponsorMatrix.sol\":1132:1147  directReferrals */\n      0x12\n        /* \"contracts/modules/SponsorMatrix.sol\":124:20190  contract Nanakshahi is Storage{... */\n      0x20\n      mstore\n        /* \"contracts/modules/SponsorMatrix.sol\":1132:1175  directReferrals[_sponsorId].push(newUserId) */\n      tag_151\n        /* \"contracts/modules/SponsorMatrix.sol\":124:20190  contract Nanakshahi is Storage{... */\n      dup5\n      keccak256(0x00, 0x40)\n        /* \"contracts/modules/SponsorMatrix.sol\":1132:1175  directReferrals[_sponsorId].push(newUserId) */\n      tag_21\n      jump\t// in\n    tag_151:\n        /* \"contracts/modules/SponsorMatrix.sol\":1088:1116  users[_sponsorId].directTeam */\n      0x07\n        /* \"contracts/modules/SponsorMatrix.sol\":124:20190  contract Nanakshahi is Storage{... */\n      sload\n      shl(0x40, 0x01)\n      dup2\n      lt\n      iszero\n      tag_152\n      jumpi\n      dup1\n      0x01\n      tag_154\n      swap3\n      add\n        /* \"contracts/modules/SponsorMatrix.sol\":1088:1116  users[_sponsorId].directTeam */\n      0x07\n        /* \"contracts/modules/SponsorMatrix.sol\":124:20190  contract Nanakshahi is Storage{... */\n      sstore\n        /* \"contracts/modules/SponsorMatrix.sol\":1088:1116  users[_sponsorId].directTeam */\n      0x07\n        /* \"contracts/modules/SponsorMatrix.sol\":124:20190  contract Nanakshahi is Storage{... */\n      tag_3\n      jump\t// in\n    tag_154:\n      dup2\n      sload\n      swap1\n        /* \"contracts/modules/SponsorMatrix.sol\":356:376  users[_sponsorId].id */\n      0x03\n        /* \"contracts/modules/SponsorMatrix.sol\":124:20190  contract Nanakshahi is Storage{... */\n      shl\n      swap1\n      dup7\n      dup3\n      shl\n      swap2\n      not(0x00)\n      swap1\n      shl\n      not\n      and\n      or\n      swap1\n      sstore\n        /* \"contracts/modules/SponsorMatrix.sol\":1257:1276  communityAccPerUser */\n      0x09\n        /* \"contracts/modules/SponsorMatrix.sol\":124:20190  contract Nanakshahi is Storage{... */\n      sload\n      dup5\n      0x00\n      mstore\n        /* \"contracts/modules/SponsorMatrix.sol\":941:958  user.totalDeposit */\n      0x0a\n        /* \"contracts/modules/SponsorMatrix.sol\":124:20190  contract Nanakshahi is Storage{... */\n      0x20\n      mstore\n      keccak256(0x00, 0x40)\n      sstore\n      0x00\n      0x00\n      swap1\n      dup4\n      0x00\n      mstore\n        /* \"contracts/modules/SponsorMatrix.sol\":9731:9743  matrixDirect */\n      0x11\n        /* \"contracts/modules/SponsorMatrix.sol\":124:20190  contract Nanakshahi is Storage{... */\n      0x20\n      mstore\n        /* \"contracts/modules/SponsorMatrix.sol\":804:819  user.checkpoint */\n      0x02\n        /* \"contracts/modules/SponsorMatrix.sol\":124:20190  contract Nanakshahi is Storage{... */\n      sload(keccak256(0x00, 0x40))\n        /* \"contracts/modules/SponsorMatrix.sol\":9731:9759  matrixDirect[_sponsorId] < 2 */\n      lt\n        /* \"contracts/modules/SponsorMatrix.sol\":9728:10728  if(matrixDirect[_sponsorId] < 2) {... */\n      0x00\n        /* \"contracts/modules/SponsorMatrix.sol\":804:819  user.checkpoint */\n      eq\n      tag_155\n      jumpi\n        /* \"contracts/modules/SponsorMatrix.sol\":124:20190  contract Nanakshahi is Storage{... */\n      pop\n      pop\n      dup4\n      0x00\n      mstore\n        /* \"contracts/modules/SponsorMatrix.sol\":356:361  users */\n      0x0d\n        /* \"contracts/modules/SponsorMatrix.sol\":124:20190  contract Nanakshahi is Storage{... */\n      0x20\n      mstore\n      dup2\n        /* \"contracts/modules/SponsorMatrix.sol\":602:614  defaultRefId */\n      0x05\n        /* \"contracts/modules/SponsorMatrix.sol\":124:20190  contract Nanakshahi is Storage{... */\n      keccak256(0x00, 0x40)\n        /* \"contracts/modules/SponsorMatrix.sol\":9776:9802  users[_newUserId].uplineId */\n      add\n        /* \"contracts/modules/SponsorMatrix.sol\":124:20190  contract Nanakshahi is Storage{... */\n      sstore\n      dup2\n      0x00\n      mstore\n        /* \"contracts/modules/SponsorMatrix.sol\":9731:9743  matrixDirect */\n      0x11\n        /* \"contracts/modules/SponsorMatrix.sol\":124:20190  contract Nanakshahi is Storage{... */\n      0x20\n      mstore\n      keccak256(0x00, 0x40)\n      dup1\n      sload\n      swap1\n      0x01\n      dup3\n      add\n      dup1\n      swap3\n      gt\n      tag_171\n      jumpi\n      sstore\n        /* \"contracts/modules/SponsorMatrix.sol\":9874:9895  uplineId = _sponsorId */\n      dup2\n        /* \"contracts/modules/SponsorMatrix.sol\":9728:10728  if(matrixDirect[_sponsorId] < 2) {... */\n    tag_159:\n        /* \"contracts/modules/SponsorMatrix.sol\":124:20190  contract Nanakshahi is Storage{... */\n      0x00\n        /* \"contracts/modules/SponsorMatrix.sol\":10790:11023  for(uint k=0; k<maxLayers; k++) {... */\n      swap1\n        /* \"contracts/modules/SponsorMatrix.sol\":10804:10815  k<maxLayers */\n    tag_160:\n        /* \"contracts/modules/SponsorMatrix.sol\":983:1004  user.registrationTime */\n      0x0f\n        /* \"contracts/modules/SponsorMatrix.sol\":10804:10815  k<maxLayers */\n      dup3\n      lt\n      tag_161\n      jumpi\n        /* \"contracts/modules/SponsorMatrix.sol\":10790:11023  for(uint k=0; k<maxLayers; k++) {... */\n    tag_162:\n        /* \"contracts/modules/SponsorMatrix.sol\":1454:1465  packages[0] */\n      pop\n      pop\n        /* \"contracts/modules/SponsorMatrix.sol\":1404:1570  user.deposits.push(Deposit({... */\n      tag_163\n        /* \"contracts/modules/SponsorMatrix.sol\":1454:1465  packages[0] */\n      tag_164\n      tag_2\n      jump\t// in\n    tag_164:\n        /* \"contracts/modules/SponsorMatrix.sol\":124:20190  contract Nanakshahi is Storage{... */\n      swap1\n      sload\n      mload(0x40)\n      swap2\n        /* \"contracts/modules/SponsorMatrix.sol\":356:376  users[_sponsorId].id */\n      0x03\n        /* \"contracts/modules/SponsorMatrix.sol\":124:20190  contract Nanakshahi is Storage{... */\n      shl\n      shr\n      tag_165\n      dup3\n      tag_10\n      jump\t// in\n    tag_165:\n      dup2\n      mstore\n      0x00\n      0x20\n        /* \"contracts/modules/SponsorMatrix.sol\":1423:1569  Deposit({... */\n      dup3\n      add\n        /* \"contracts/modules/SponsorMatrix.sol\":124:20190  contract Nanakshahi is Storage{... */\n      mstore\n        /* \"contracts/modules/SponsorMatrix.sol\":822:837  block.timestamp */\n      timestamp\n        /* \"contracts/modules/SponsorMatrix.sol\":124:20190  contract Nanakshahi is Storage{... */\n      0x40\n        /* \"contracts/modules/SponsorMatrix.sol\":1423:1569  Deposit({... */\n      dup3\n      add\n        /* \"contracts/modules/SponsorMatrix.sol\":124:20190  contract Nanakshahi is Storage{... */\n      mstore\n      0x01\n        /* \"contracts/modules/SponsorMatrix.sol\":1423:1569  Deposit({... */\n      0x60\n      dup3\n      add\n        /* \"contracts/modules/SponsorMatrix.sol\":124:20190  contract Nanakshahi is Storage{... */\n      mstore\n      0x01\n        /* \"contracts/modules/SponsorMatrix.sol\":1404:1417  user.deposits */\n      dup6\n      add\n        /* \"contracts/modules/SponsorMatrix.sol\":1404:1570  user.deposits.push(Deposit({... */\n      tag_16\n      jump\t// in\n    tag_163:\n        /* \"contracts/modules/SponsorMatrix.sol\":1636:1647  packages[0] */\n      tag_166\n      tag_2\n      jump\t// in\n    tag_166:\n        /* \"contracts/modules/SponsorMatrix.sol\":124:20190  contract Nanakshahi is Storage{... */\n      swap1\n      sload\n      swap1\n        /* \"contracts/modules/SponsorMatrix.sol\":356:376  users[_sponsorId].id */\n      0x03\n        /* \"contracts/modules/SponsorMatrix.sol\":124:20190  contract Nanakshahi is Storage{... */\n      shl\n      shr\n      swap1\n        /* \"contracts/modules/SponsorMatrix.sol\":602:614  defaultRefId */\n      0x05\n        /* \"contracts/modules/SponsorMatrix.sol\":124:20190  contract Nanakshahi is Storage{... */\n      dup3\n      mul\n      dup3\n      iszero\n      swap3\n      dup1\n      dup3\n      div\n        /* \"contracts/modules/SponsorMatrix.sol\":602:614  defaultRefId */\n      0x05\n        /* \"contracts/modules/SponsorMatrix.sol\":124:20190  contract Nanakshahi is Storage{... */\n      eq\n      dup5\n      or\n      iszero\n      tag_171\n      jumpi\n        /* \"contracts/modules/SponsorMatrix.sol\":1776:1778  60 */\n      0x3c\n        /* \"contracts/modules/SponsorMatrix.sol\":124:20190  contract Nanakshahi is Storage{... */\n      dup2\n      mul\n      swap4\n      dup2\n      dup6\n      div\n        /* \"contracts/modules/SponsorMatrix.sol\":1776:1778  60 */\n      0x3c\n        /* \"contracts/modules/SponsorMatrix.sol\":124:20190  contract Nanakshahi is Storage{... */\n      eq\n      dup2\n      or\n      iszero\n      tag_171\n      jumpi\n        /* \"contracts/modules/SponsorMatrix.sol\":1919:1921  25 */\n      0x19\n        /* \"contracts/modules/SponsorMatrix.sol\":124:20190  contract Nanakshahi is Storage{... */\n      dup3\n      mul\n      swap2\n      dup3\n      div\n        /* \"contracts/modules/SponsorMatrix.sol\":1919:1921  25 */\n      0x19\n        /* \"contracts/modules/SponsorMatrix.sol\":124:20190  contract Nanakshahi is Storage{... */\n      eq\n      or\n      iszero\n      tag_171\n      jumpi\n        /* \"contracts/modules/SponsorMatrix.sol\":2216:2287  _distributeSponsorIncome(user.sponsorId, newUserId, remainingAmount, 1) */\n      tag_173\n        /* \"contracts/modules/SponsorMatrix.sol\":124:20190  contract Nanakshahi is Storage{... */\n      swap4\n        /* \"contracts/modules/SponsorMatrix.sol\":2133:2145  creatorShare */\n      tag_174\n        /* \"contracts/modules/SponsorMatrix.sol\":1702:1705  100 */\n      0x64\n        /* \"contracts/modules/SponsorMatrix.sol\":124:20190  contract Nanakshahi is Storage{... */\n      dup10\n      swap5\n        /* \"contracts/modules/SponsorMatrix.sol\":2049:2063  communityShare */\n      tag_175\n        /* \"contracts/modules/SponsorMatrix.sol\":124:20190  contract Nanakshahi is Storage{... */\n      dup3\n      dup1\n      swap7\n      div\n        /* \"contracts/modules/SponsorMatrix.sol\":2049:2063  communityShare */\n      tag_23\n      jump\t// in\n    tag_175:\n        /* \"contracts/modules/SponsorMatrix.sol\":124:20190  contract Nanakshahi is Storage{... */\n      div\n        /* \"contracts/modules/SponsorMatrix.sol\":2133:2145  creatorShare */\n      tag_24\n      jump\t// in\n    tag_174:\n        /* \"contracts/modules/SponsorMatrix.sol\":124:20190  contract Nanakshahi is Storage{... */\n      div\n      swap2\n      sload\n        /* \"contracts/modules/SponsorMatrix.sol\":2216:2287  _distributeSponsorIncome(user.sponsorId, newUserId, remainingAmount, 1) */\n      tag_25\n      jump\t// in\n    tag_173:\n        /* \"contracts/modules/SponsorMatrix.sol\":124:20190  contract Nanakshahi is Storage{... */\n      0x00\n      mstore\n        /* \"contracts/modules/SponsorMatrix.sol\":356:361  users */\n      0x0d\n        /* \"contracts/modules/SponsorMatrix.sol\":124:20190  contract Nanakshahi is Storage{... */\n      0x20\n      mstore\n        /* \"contracts/modules/SponsorMatrix.sol\":602:614  defaultRefId */\n      0x05\n        /* \"contracts/modules/SponsorMatrix.sol\":124:20190  contract Nanakshahi is Storage{... */\n      0x01\n      dup1\n      0xa0\n      shl\n      sub\n      sload(keccak256(0x00, 0x40))\n      and\n        /* \"contracts/modules/SponsorMatrix.sol\":2394:2407  user.uplineId */\n      swap2\n      add\n        /* \"contracts/modules/SponsorMatrix.sol\":124:20190  contract Nanakshahi is Storage{... */\n      sload\n      mload(0x40)\n      swap1\n      dup2\n      mstore\n        /* \"contracts/modules/SponsorMatrix.sol\":2331:2408  Registration(msg.sender, users[_sponsorId].account, newUserId, user.uplineId) */\n      0x309bb360e8b69c23937ccc5fb01f9aeeead1c95a99604e175113ff82f2b1723a\n        /* \"contracts/modules/SponsorMatrix.sol\":124:20190  contract Nanakshahi is Storage{... */\n      0x20\n        /* \"contracts/modules/SponsorMatrix.sol\":298:308  msg.sender */\n      caller\n        /* \"contracts/modules/SponsorMatrix.sol\":2331:2408  Registration(msg.sender, users[_sponsorId].account, newUserId, user.uplineId) */\n      swap3\n      log4\n        /* \"contracts/modules/SponsorMatrix.sol\":124:20190  contract Nanakshahi is Storage{... */\n      stop\n    tag_171:\n      mstore(0x00, shl(0xe0, 0x4e487b71))\n        /* \"contracts/modules/SponsorMatrix.sol\":9731:9743  matrixDirect */\n      0x11\n        /* \"contracts/modules/SponsorMatrix.sol\":124:20190  contract Nanakshahi is Storage{... */\n      0x04\n      mstore\n      revert(0x00, 0x24)\n        /* \"contracts/modules/SponsorMatrix.sol\":10817:10820  k++ */\n    tag_161:\n        /* \"contracts/modules/SponsorMatrix.sol\":10840:10853  uplineId == 0 */\n      dup1\n      iszero\n        /* \"contracts/modules/SponsorMatrix.sol\":10837:10860  if(uplineId == 0) break */\n      tag_176\n      jumpi\n        /* \"contracts/modules/SponsorMatrix.sol\":124:20190  contract Nanakshahi is Storage{... */\n      dup1\n      0x00\n      mstore\n        /* \"contracts/modules/SponsorMatrix.sol\":356:361  users */\n      0x0d\n        /* \"contracts/modules/SponsorMatrix.sol\":124:20190  contract Nanakshahi is Storage{... */\n      0x20\n      mstore\n        /* \"contracts/modules/SponsorMatrix.sol\":1257:1276  communityAccPerUser */\n      0x09\n        /* \"contracts/modules/SponsorMatrix.sol\":124:20190  contract Nanakshahi is Storage{... */\n      keccak256(0x00, 0x40)\n        /* \"contracts/modules/SponsorMatrix.sol\":10875:10906  users[uplineId].totalMatrixTeam */\n      add\n        /* \"contracts/modules/SponsorMatrix.sol\":124:20190  contract Nanakshahi is Storage{... */\n      dup1\n      sload\n      swap1\n      0x01\n      dup3\n      add\n      dup1\n      swap3\n      gt\n      tag_171\n      jumpi\n      sstore\n      dup1\n      0x00\n      mstore\n        /* \"contracts/modules/SponsorMatrix.sol\":10926:10931  teams */\n      0x10\n        /* \"contracts/modules/SponsorMatrix.sol\":124:20190  contract Nanakshahi is Storage{... */\n      0x20\n      mstore\n      keccak256(0x00, 0x40)\n      dup3\n      0x00\n      mstore\n      0x20\n      mstore\n        /* \"contracts/modules/SponsorMatrix.sol\":10926:10961  teams[uplineId][k].push(_newUserId) */\n      tag_180\n        /* \"contracts/modules/SponsorMatrix.sol\":124:20190  contract Nanakshahi is Storage{... */\n      dup7\n      keccak256(0x00, 0x40)\n        /* \"contracts/modules/SponsorMatrix.sol\":10926:10961  teams[uplineId][k].push(_newUserId) */\n      tag_21\n      jump\t// in\n    tag_180:\n        /* \"contracts/modules/SponsorMatrix.sol\":124:20190  contract Nanakshahi is Storage{... */\n      0x00\n      mstore\n        /* \"contracts/modules/SponsorMatrix.sol\":356:361  users */\n      0x0d\n        /* \"contracts/modules/SponsorMatrix.sol\":124:20190  contract Nanakshahi is Storage{... */\n      0x20\n      mstore\n      0x01\n        /* \"contracts/modules/SponsorMatrix.sol\":602:614  defaultRefId */\n      0x05\n        /* \"contracts/modules/SponsorMatrix.sol\":124:20190  contract Nanakshahi is Storage{... */\n      keccak256(0x00, 0x40)\n        /* \"contracts/modules/SponsorMatrix.sol\":10987:11011  users[uplineId].uplineId */\n      add\n        /* \"contracts/modules/SponsorMatrix.sol\":124:20190  contract Nanakshahi is Storage{... */\n      sload\n        /* \"contracts/modules/SponsorMatrix.sol\":10817:10820  k++ */\n      swap2\n        /* \"contracts/modules/SponsorMatrix.sol\":124:20190  contract Nanakshahi is Storage{... */\n      add\n        /* \"contracts/modules/SponsorMatrix.sol\":10794:10802  uint k=0 */\n      swap1\n      jump(tag_160)\n        /* \"contracts/modules/SponsorMatrix.sol\":10837:10860  if(uplineId == 0) break */\n    tag_176:\n        /* \"contracts/modules/SponsorMatrix.sol\":10855:10860  break */\n      jump(tag_162)\n        /* \"contracts/modules/SponsorMatrix.sol\":9728:10728  if(matrixDirect[_sponsorId] < 2) {... */\n    tag_155:\n        /* \"contracts/modules/SponsorMatrix.sol\":124:20190  contract Nanakshahi is Storage{... */\n      0x00\n        /* \"contracts/modules/SponsorMatrix.sol\":10026:10037  i<maxLayers */\n    tag_181:\n        /* \"contracts/modules/SponsorMatrix.sol\":983:1004  user.registrationTime */\n      0x0f\n        /* \"contracts/modules/SponsorMatrix.sol\":10026:10037  i<maxLayers */\n      dup2\n      lt\n      tag_182\n      jumpi\n        /* \"contracts/modules/SponsorMatrix.sol\":10012:10717  for(uint i=0; i<maxLayers; i++) { // Use a reasonable max depth for 2x2 matrix... */\n    tag_183:\n        /* \"contracts/modules/SponsorMatrix.sol\":9728:10728  if(matrixDirect[_sponsorId] < 2) {... */\n      pop\n      pop\n      jump(tag_159)\n        /* \"contracts/modules/SponsorMatrix.sol\":10039:10042  i++ */\n    tag_182:\n        /* \"contracts/modules/SponsorMatrix.sol\":10108:10125  if(isFound) break */\n      dup2\n      tag_184\n      jumpi\n        /* \"contracts/modules/SponsorMatrix.sol\":124:20190  contract Nanakshahi is Storage{... */\n      dup5\n      0x00\n      mstore\n        /* \"contracts/modules/SponsorMatrix.sol\":10147:10152  teams */\n      0x10\n        /* \"contracts/modules/SponsorMatrix.sol\":124:20190  contract Nanakshahi is Storage{... */\n      0x20\n      mstore\n      keccak256(0x00, 0x40)\n      0x01\n      dup3\n      add\n      dup1\n      dup4\n      gt\n      tag_171\n      jumpi\n      0x00\n      mstore\n      0x20\n      mstore\n      sload(keccak256(0x00, 0x40))\n        /* \"contracts/modules/SponsorMatrix.sol\":804:819  user.checkpoint */\n      0x02\n        /* \"contracts/modules/SponsorMatrix.sol\":124:20190  contract Nanakshahi is Storage{... */\n      dup3\n      add\n      dup1\n      dup4\n      gt\n      tag_171\n      jumpi\n      0xff\n      dup2\n      gt\n      tag_171\n      jumpi\n      0x01\n      swap1\n      shl\n      gt\n        /* \"contracts/modules/SponsorMatrix.sol\":10144:10702  if(teams[_sponsorId][i+1].length < 2 ** (i+2)) {... */\n      tag_192\n      jumpi\n        /* \"contracts/modules/SponsorMatrix.sol\":10039:10042  i++ */\n    tag_193:\n        /* \"contracts/modules/SponsorMatrix.sol\":124:20190  contract Nanakshahi is Storage{... */\n      0x01\n      add\n        /* \"contracts/modules/SponsorMatrix.sol\":10016:10024  uint i=0 */\n      jump(tag_181)\n        /* \"contracts/modules/SponsorMatrix.sol\":10144:10702  if(teams[_sponsorId][i+1].length < 2 ** (i+2)) {... */\n    tag_192:\n        /* \"contracts/modules/SponsorMatrix.sol\":10218:10226  uint j=0 */\n      swap4\n      swap3\n        /* \"contracts/modules/SponsorMatrix.sol\":124:20190  contract Nanakshahi is Storage{... */\n      0x00\n        /* \"contracts/modules/SponsorMatrix.sol\":10218:10226  uint j=0 */\n      swap6\n      swap2\n      swap6\n        /* \"contracts/modules/SponsorMatrix.sol\":10259:10262  j++ */\n    tag_194:\n        /* \"contracts/modules/SponsorMatrix.sol\":124:20190  contract Nanakshahi is Storage{... */\n      dup5\n      0x00\n      mstore\n        /* \"contracts/modules/SponsorMatrix.sol\":10147:10152  teams */\n      0x10\n        /* \"contracts/modules/SponsorMatrix.sol\":124:20190  contract Nanakshahi is Storage{... */\n      0x20\n      mstore\n      keccak256(0x00, 0x40)\n      dup7\n      0x00\n      mstore\n      0x20\n      mstore\n      sload(keccak256(0x00, 0x40))\n        /* \"contracts/modules/SponsorMatrix.sol\":10228:10257  j<teams[_sponsorId][i].length */\n      dup2\n      lt\n      iszero\n      tag_195\n      jumpi\n        /* \"contracts/modules/SponsorMatrix.sol\":10289:10306  if(isFound) break */\n      dup7\n      tag_197\n      jumpi\n        /* \"contracts/modules/SponsorMatrix.sol\":124:20190  contract Nanakshahi is Storage{... */\n      dup5\n      0x00\n      mstore\n        /* \"contracts/modules/SponsorMatrix.sol\":10147:10152  teams */\n      0x10\n        /* \"contracts/modules/SponsorMatrix.sol\":124:20190  contract Nanakshahi is Storage{... */\n      0x20\n      mstore\n      keccak256(0x00, 0x40)\n      dup7\n      0x00\n      mstore\n      0x20\n      mstore\n        /* \"contracts/modules/SponsorMatrix.sol\":10345:10368  teams[_sponsorId][i][j] */\n      tag_199\n        /* \"contracts/modules/SponsorMatrix.sol\":124:20190  contract Nanakshahi is Storage{... */\n      dup2\n      keccak256(0x00, 0x40)\n        /* \"contracts/modules/SponsorMatrix.sol\":10345:10368  teams[_sponsorId][i][j] */\n      tag_3\n      jump\t// in\n    tag_199:\n        /* \"contracts/modules/SponsorMatrix.sol\":124:20190  contract Nanakshahi is Storage{... */\n      swap1\n      sload\n      swap1\n        /* \"contracts/modules/SponsorMatrix.sol\":356:376  users[_sponsorId].id */\n      0x03\n        /* \"contracts/modules/SponsorMatrix.sol\":124:20190  contract Nanakshahi is Storage{... */\n      shl\n      shr\n      dup1\n      0x00\n      mstore\n        /* \"contracts/modules/SponsorMatrix.sol\":9731:9743  matrixDirect */\n      0x11\n        /* \"contracts/modules/SponsorMatrix.sol\":124:20190  contract Nanakshahi is Storage{... */\n      0x20\n      mstore\n        /* \"contracts/modules/SponsorMatrix.sol\":804:819  user.checkpoint */\n      0x02\n        /* \"contracts/modules/SponsorMatrix.sol\":124:20190  contract Nanakshahi is Storage{... */\n      sload(keccak256(0x00, 0x40))\n        /* \"contracts/modules/SponsorMatrix.sol\":10398:10420  matrixDirect[temp] < 2 */\n      lt\n        /* \"contracts/modules/SponsorMatrix.sol\":10395:10659  if(matrixDirect[temp] < 2) {... */\n      tag_200\n      jumpi\n        /* \"contracts/modules/SponsorMatrix.sol\":10259:10262  j++ */\n    tag_201:\n      pop\n        /* \"contracts/modules/SponsorMatrix.sol\":124:20190  contract Nanakshahi is Storage{... */\n      0x01\n      add\n        /* \"contracts/modules/SponsorMatrix.sol\":10218:10226  uint j=0 */\n      jump(tag_194)\n        /* \"contracts/modules/SponsorMatrix.sol\":10395:10659  if(matrixDirect[temp] < 2) {... */\n    tag_200:\n        /* \"contracts/modules/SponsorMatrix.sol\":124:20190  contract Nanakshahi is Storage{... */\n      swap2\n      swap4\n      pop\n      swap6\n      pop\n      dup7\n      0x00\n      mstore\n        /* \"contracts/modules/SponsorMatrix.sol\":356:361  users */\n      0x0d\n        /* \"contracts/modules/SponsorMatrix.sol\":124:20190  contract Nanakshahi is Storage{... */\n      0x20\n      mstore\n      dup1\n        /* \"contracts/modules/SponsorMatrix.sol\":602:614  defaultRefId */\n      0x05\n        /* \"contracts/modules/SponsorMatrix.sol\":124:20190  contract Nanakshahi is Storage{... */\n      keccak256(0x00, 0x40)\n        /* \"contracts/modules/SponsorMatrix.sol\":10453:10479  users[_newUserId].uplineId */\n      add\n        /* \"contracts/modules/SponsorMatrix.sol\":124:20190  contract Nanakshahi is Storage{... */\n      sstore\n      dup1\n      0x00\n      mstore\n        /* \"contracts/modules/SponsorMatrix.sol\":9731:9743  matrixDirect */\n      0x11\n        /* \"contracts/modules/SponsorMatrix.sol\":124:20190  contract Nanakshahi is Storage{... */\n      0x20\n      mstore\n      keccak256(0x00, 0x40)\n      dup1\n      sload\n      swap1\n      0x01\n      dup3\n      add\n      dup1\n      swap3\n      gt\n      tag_171\n      jumpi\n      sstore\n        /* \"contracts/modules/SponsorMatrix.sol\":10617:10631  isFound = true */\n      swap2\n        /* \"contracts/modules/SponsorMatrix.sol\":124:20190  contract Nanakshahi is Storage{... */\n      0x01\n        /* \"contracts/modules/SponsorMatrix.sol\":10617:10631  isFound = true */\n      dup1\n        /* \"contracts/modules/SponsorMatrix.sol\":10395:10659  if(matrixDirect[temp] < 2) {... */\n      swap7\n      swap1\n      jump(tag_201)\n        /* \"contracts/modules/SponsorMatrix.sol\":10289:10306  if(isFound) break */\n    tag_197:\n        /* \"contracts/modules/SponsorMatrix.sol\":10301:10306  break */\n      pop\n      swap3\n      swap4\n        /* \"contracts/modules/SponsorMatrix.sol\":124:20190  contract Nanakshahi is Storage{... */\n      0x01\n        /* \"contracts/modules/SponsorMatrix.sol\":10301:10306  break */\n      swap1\n      swap6\n      swap2\n      swap6\n        /* \"contracts/modules/SponsorMatrix.sol\":10214:10683  for(uint j=0; j<teams[_sponsorId][i].length; j++) {... */\n    tag_204:\n        /* \"contracts/modules/SponsorMatrix.sol\":10144:10702  if(teams[_sponsorId][i+1].length < 2 ** (i+2)) {... */\n      swap1\n      pop\n      jump(tag_193)\n        /* \"contracts/modules/SponsorMatrix.sol\":10228:10257  j<teams[_sponsorId][i].length */\n    tag_195:\n      pop\n      swap3\n      swap4\n        /* \"contracts/modules/SponsorMatrix.sol\":124:20190  contract Nanakshahi is Storage{... */\n      0x01\n        /* \"contracts/modules/SponsorMatrix.sol\":10228:10257  j<teams[_sponsorId][i].length */\n      swap1\n      swap6\n      swap2\n      swap6\n      jump(tag_204)\n        /* \"contracts/modules/SponsorMatrix.sol\":10108:10125  if(isFound) break */\n    tag_184:\n        /* \"contracts/modules/SponsorMatrix.sol\":10120:10125  break */\n      jump(tag_183)\n        /* \"contracts/modules/SponsorMatrix.sol\":124:20190  contract Nanakshahi is Storage{... */\n    tag_152:\n      mstore(0x00, shl(0xe0, 0x4e487b71))\n      mstore(0x04, 0x41)\n      revert(0x00, 0x24)\n        /* \"contracts/modules/SponsorMatrix.sol\":469:526  usdt.transferFrom(msg.sender, address(this), packages[0]) */\n    tag_143:\n      tag_205\n      swap1\n        /* \"contracts/modules/SponsorMatrix.sol\":124:20190  contract Nanakshahi is Storage{... */\n      0x20\n        /* \"contracts/modules/SponsorMatrix.sol\":469:526  usdt.transferFrom(msg.sender, address(this), packages[0]) */\n      returndatasize\n        /* \"contracts/modules/SponsorMatrix.sol\":124:20190  contract Nanakshahi is Storage{... */\n      0x20\n        /* \"contracts/modules/SponsorMatrix.sol\":469:526  usdt.transferFrom(msg.sender, address(this), packages[0]) */\n      gt\n      tag_206\n      jumpi\n    tag_207:\n      tag_208\n      dup2\n      dup4\n      tag_12\n      jump\t// in\n    tag_208:\n      dup2\n      add\n      swap1\n      tag_13\n      jump\t// in\n    tag_205:\n      jump(tag_144)\n    tag_206:\n      pop\n      returndatasize\n      jump(tag_207)\n    tag_141:\n        /* \"contracts/modules/SponsorMatrix.sol\":124:20190  contract Nanakshahi is Storage{... */\n      mload(0x40)\n      returndatasize\n      0x00\n      dup3\n      returndatacopy\n      returndatasize\n      swap1\n      revert\n    tag_137:\n      mload(0x40)\n      shl(0xe5, 0x461bcd)\n      dup2\n      mstore\n      0x20\n      0x04\n      dup3\n      add\n      mstore\n      0x0f\n      0x24\n      dup3\n      add\n      mstore\n      shl(0x89, 0x24b73b30b634b21039b837b739b7b9)\n      0x44\n      dup3\n      add\n      mstore\n      0x64\n      swap1\n      revert\n    tag_135:\n      mload(0x40)\n      shl(0xe5, 0x461bcd)\n      dup2\n      mstore\n      0x20\n      0x04\n      dup3\n      add\n      mstore\n      0x12\n      0x24\n      dup3\n      add\n      mstore\n      shl(0x72, 0x105b1c9958591e481c9959da5cdd195c9959)\n      0x44\n      dup3\n      add\n      mstore\n      0x64\n      swap1\n      revert\n    tag_115:\n      jumpi(tag_125, callvalue)\n      jumpi(tag_125, slt(add(not(0x03), calldatasize), 0x00))\n      0x20\n        /* \"contracts/modules/Storage.sol\":534:558  uint public defaultRefId */\n      0x05\n        /* \"contracts/modules/SponsorMatrix.sol\":124:20190  contract Nanakshahi is Storage{... */\n      sload\n      mload(0x40)\n      swap1\n      dup2\n      mstore\n      return\n    tag_113:\n      jumpi(tag_125, callvalue)\n      jumpi(tag_125, slt(add(not(0x03), calldatasize), 0x00))\n      0x20\n      mload(0x40)\n        /* \"contracts/modules/Storage.sol\":7978:7985  1000e18 */\n      0x3635c9adc5dea00000\n        /* \"contracts/modules/SponsorMatrix.sol\":124:20190  contract Nanakshahi is Storage{... */\n      dup2\n      mstore\n      return\n    tag_111:\n      jumpi(tag_125, callvalue)\n      jumpi(tag_125, slt(add(not(0x03), calldatasize), 0x00))\n        /* \"contracts/modules/Storage.sol\":460:490  address public systemMaintance */\n      0x03\n        /* \"contracts/modules/SponsorMatrix.sol\":124:20190  contract Nanakshahi is Storage{... */\n      sload\n      mload(0x40)\n      sub(shl(0xa0, 0x01), 0x01)\n      swap1\n      swap2\n      and\n      dup2\n      mstore\n      0x20\n      swap1\n      return\n    tag_109:\n      jumpi(tag_125, callvalue)\n      jumpi(tag_125, slt(add(not(0x03), calldatasize), 0x00))\n      0x20\n        /* \"contracts/modules/Storage.sol\":9487:9526  uint public currentMonthlyStartTime = 0 */\n      0x3e\n        /* \"contracts/modules/SponsorMatrix.sol\":124:20190  contract Nanakshahi is Storage{... */\n      sload\n      mload(0x40)\n      swap1\n      dup2\n      mstore\n      return\n    tag_107:\n      jumpi(tag_125, callvalue)\n      jumpi(tag_125, slt(add(not(0x03), calldatasize), 0x20))\n      tag_229\n      calldataload(0x04)\n      tag_20\n      jump\t// in\n    tag_229:\n      stop\n    tag_105:\n      jumpi(tag_125, callvalue)\n      jumpi(tag_125, slt(add(not(0x03), calldatasize), 0x00))\n      0x20\n      mload(0x40)\n        /* \"contracts/modules/Storage.sol\":1136:1137  5 */\n      0x05\n        /* \"contracts/modules/SponsorMatrix.sol\":124:20190  contract Nanakshahi is Storage{... */\n      dup2\n      mstore\n      return\n    tag_103:\n      jumpi(tag_125, callvalue)\n      jumpi(tag_125, slt(add(not(0x03), calldatasize), 0x20))\n      calldataload(0x04)\n      0x08\n        /* \"contracts/modules/Storage.sol\":6368:6432  uint[8] public minLevelForGlbBooster = [4, 5, 6, 7, 8, 9, 10,11] */\n      dup2\n      lt\n      iszero\n      tag_125\n      jumpi\n        /* \"contracts/modules/SponsorMatrix.sol\":124:20190  contract Nanakshahi is Storage{... */\n      0x20\n      swap1\n        /* \"contracts/modules/Storage.sol\":6368:6432  uint[8] public minLevelForGlbBooster = [4, 5, 6, 7, 8, 9, 10,11] */\n      0x1c\n        /* \"contracts/modules/SponsorMatrix.sol\":124:20190  contract Nanakshahi is Storage{... */\n      add\n      sload\n      mload(0x40)\n      swap1\n      dup2\n      mstore\n      return\n    tag_101:\n      jumpi(tag_125, callvalue)\n      jumpi(tag_125, slt(add(not(0x03), calldatasize), 0x00))\n      0x20\n        /* \"contracts/modules/Storage.sol\":7997:8031  uint public currentWeeklyRound = 0 */\n      0x36\n        /* \"contracts/modules/SponsorMatrix.sol\":124:20190  contract Nanakshahi is Storage{... */\n      sload\n      mload(0x40)\n      swap1\n      dup2\n      mstore\n      return\n    tag_99:\n      jumpi(tag_125, callvalue)\n      jumpi(tag_125, slt(add(not(0x03), calldatasize), 0x00))\n      0x20\n        /* \"contracts/modules/Storage.sol\":9445:9480  uint public currentMonthlyRound = 1 */\n      0x3d\n        /* \"contracts/modules/SponsorMatrix.sol\":124:20190  contract Nanakshahi is Storage{... */\n      sload\n      mload(0x40)\n      swap1\n      dup2\n      mstore\n      return\n    tag_97:\n      jumpi(tag_125, callvalue)\n      jumpi(tag_125, slt(add(not(0x03), calldatasize), 0x00))\n      0x20\n      mload(0x40)\n        /* \"contracts/modules/Storage.sol\":9424:9432  10000e18 */\n      0x021e19e0c9bab2400000\n        /* \"contracts/modules/SponsorMatrix.sol\":124:20190  contract Nanakshahi is Storage{... */\n      dup2\n      mstore\n      return\n    tag_95:\n      jumpi(tag_125, callvalue)\n      jumpi(tag_125, slt(add(not(0x03), calldatasize), 0x20))\n      calldataload(0x04)\n        /* \"contracts/modules/Storage.sol\":1630:2170  uint[] public packages = [... */\n      0x0b\n        /* \"contracts/modules/SponsorMatrix.sol\":124:20190  contract Nanakshahi is Storage{... */\n      sload\n        /* \"contracts/modules/Storage.sol\":1630:2170  uint[] public packages = [... */\n      dup2\n      lt\n      iszero\n      tag_125\n      jumpi\n      tag_258\n        /* \"contracts/modules/SponsorMatrix.sol\":124:20190  contract Nanakshahi is Storage{... */\n      0x20\n        /* \"contracts/modules/Storage.sol\":1630:2170  uint[] public packages = [... */\n      swap2\n      tag_1\n      jump\t// in\n    tag_258:\n        /* \"contracts/modules/SponsorMatrix.sol\":124:20190  contract Nanakshahi is Storage{... */\n      swap1\n      sload\n      swap1\n      0x03\n      shl\n      shr\n      mload(0x40)\n      swap1\n      dup2\n      mstore\n      return\n    tag_93:\n      jumpi(tag_125, callvalue)\n      jumpi(tag_125, slt(add(not(0x03), calldatasize), 0x00))\n      0x20\n        /* \"contracts/modules/Storage.sol\":565:587  uint public totalUsers */\n      0x06\n        /* \"contracts/modules/SponsorMatrix.sol\":124:20190  contract Nanakshahi is Storage{... */\n      sload\n      mload(0x40)\n      swap1\n      dup2\n      mstore\n      return\n    tag_91:\n      jumpi(tag_125, callvalue)\n      jumpi(tag_125, slt(add(not(0x03), calldatasize), 0x20))\n      calldataload(0x04)\n        /* \"contracts/modules/Storage.sol\":6092:6185  uint[] public poolPackages = [75e18, 300e18, 1200e18, 4800e18, 19200e18, 76800e18, 307200e18] */\n      0x13\n        /* \"contracts/modules/SponsorMatrix.sol\":124:20190  contract Nanakshahi is Storage{... */\n      sload\n        /* \"contracts/modules/Storage.sol\":6092:6185  uint[] public poolPackages = [75e18, 300e18, 1200e18, 4800e18, 19200e18, 76800e18, 307200e18] */\n      dup2\n      lt\n      iszero\n      tag_125\n      jumpi\n      0x13\n        /* \"contracts/modules/SponsorMatrix.sol\":124:20190  contract Nanakshahi is Storage{... */\n      sload\n      dup2\n      lt\n      iszero\n      tag_269\n      jumpi\n        /* \"contracts/modules/Storage.sol\":6092:6185  uint[] public poolPackages = [75e18, 300e18, 1200e18, 4800e18, 19200e18, 76800e18, 307200e18] */\n      0x13\n        /* \"contracts/modules/SponsorMatrix.sol\":124:20190  contract Nanakshahi is Storage{... */\n      0x00\n      mstore\n      0x66de8ffda797e3de9c05e8fc57b3bf0ec28a930d40b0d285d93c06501cf6a090\n      add\n      sload\n      mload(0x40)\n      swap1\n      dup2\n      mstore\n      0x20\n      swap1\n      return\n    tag_269:\n      mstore(0x00, shl(0xe0, 0x4e487b71))\n      mstore(0x04, 0x32)\n      revert(0x00, 0x24)\n    tag_89:\n      jumpi(tag_125, callvalue)\n      jumpi(tag_125, slt(add(not(0x03), calldatasize), 0x00))\n      0x20\n      mload(0x40)\n        /* \"contracts/modules/Storage.sol\":791:799  100 days */\n      0x83d600\n        /* \"contracts/modules/SponsorMatrix.sol\":124:20190  contract Nanakshahi is Storage{... */\n      dup2\n      mstore\n      return\n    tag_87:\n      jumpi(tag_125, callvalue)\n      jumpi(tag_125, slt(add(not(0x03), calldatasize), 0x00))\n      0x20\n        /* \"contracts/modules/Storage.sol\":9533:9567  uint public monthlyTotalReward = 0 */\n      0x3f\n        /* \"contracts/modules/SponsorMatrix.sol\":124:20190  contract Nanakshahi is Storage{... */\n      sload\n      mload(0x40)\n      swap1\n      dup2\n      mstore\n      return\n    tag_85:\n      jumpi(tag_125, callvalue)\n      jumpi(tag_125, slt(add(not(0x03), calldatasize), 0x00))\n      0x20\n        /* \"contracts/modules/Storage.sol\":10793:10828  uint public topRoyaltyStartTime = 0 */\n      0x45\n        /* \"contracts/modules/SponsorMatrix.sol\":124:20190  contract Nanakshahi is Storage{... */\n      sload\n      mload(0x40)\n      swap1\n      dup2\n      mstore\n      return\n    tag_83:\n      jumpi(tag_125, callvalue)\n      jumpi(tag_125, slt(add(not(0x03), calldatasize), 0x20))\n      calldataload(0x04)\n      0x08\n        /* \"contracts/modules/Storage.sol\":6439:6500  uint[8] public minPoolForGlbBooster = [0, 1, 1, 1, 1, 1, 1,1] */\n      dup2\n      lt\n      iszero\n      tag_125\n      jumpi\n        /* \"contracts/modules/SponsorMatrix.sol\":124:20190  contract Nanakshahi is Storage{... */\n      0x20\n      swap1\n        /* \"contracts/modules/Storage.sol\":6439:6500  uint[8] public minPoolForGlbBooster = [0, 1, 1, 1, 1, 1, 1,1] */\n      0x24\n        /* \"contracts/modules/SponsorMatrix.sol\":124:20190  contract Nanakshahi is Storage{... */\n      add\n      sload\n      mload(0x40)\n      swap1\n      dup2\n      mstore\n      return\n    tag_81:\n      jumpi(tag_125, callvalue)\n      jumpi(tag_125, slt(add(not(0x03), calldatasize), 0x00))\n        /* \"contracts/modules/Storage.sol\":422:450  address public creatorWallet */\n      0x02\n        /* \"contracts/modules/SponsorMatrix.sol\":124:20190  contract Nanakshahi is Storage{... */\n      sload\n      mload(0x40)\n      sub(shl(0xa0, 0x01), 0x01)\n      swap1\n      swap2\n      and\n      dup2\n      mstore\n      0x20\n      swap1\n      return\n    tag_79:\n      jumpi(tag_125, callvalue)\n      jumpi(tag_125, slt(add(not(0x03), calldatasize), 0x00))\n      0x20\n        /* \"contracts/modules/Storage.sol\":1473:1507  uint256 public communityAccPerUser */\n      0x09\n        /* \"contracts/modules/SponsorMatrix.sol\":124:20190  contract Nanakshahi is Storage{... */\n      sload\n      mload(0x40)\n      swap1\n      dup2\n      mstore\n      return\n    tag_77:\n      jumpi(tag_125, callvalue)\n      jumpi(tag_125, slt(add(not(0x03), calldatasize), 0x00))\n      0x20\n      mload(0x40)\n        /* \"contracts/modules/Storage.sol\":7925:7931  7 days */\n      0x093a80\n        /* \"contracts/modules/SponsorMatrix.sol\":124:20190  contract Nanakshahi is Storage{... */\n      dup2\n      mstore\n      return\n    tag_75:\n      jumpi(tag_125, callvalue)\n      jumpi(tag_125, slt(add(not(0x03), calldatasize), 0x00))\n      0x20\n      mload(0x40)\n        /* \"contracts/modules/Storage.sol\":849:857  450 days */\n      0x02514300\n        /* \"contracts/modules/SponsorMatrix.sol\":124:20190  contract Nanakshahi is Storage{... */\n      dup2\n      mstore\n      return\n    tag_73:\n      jumpi(tag_125, callvalue)\n      jumpi(tag_125, slt(add(not(0x03), calldatasize), 0x00))\n      0x20\n        /* \"contracts/modules/Storage.sol\":10835:10867  uint public topRoyaltyReward = 0 */\n      0x46\n        /* \"contracts/modules/SponsorMatrix.sol\":124:20190  contract Nanakshahi is Storage{... */\n      sload\n      mload(0x40)\n      swap1\n      dup2\n      mstore\n      return\n    tag_71:\n      tag_4\n      jump\t// in\n    tag_69:\n      jumpi(tag_125, callvalue)\n      jumpi(tag_125, slt(add(not(0x03), calldatasize), 0x00))\n      0x20\n        /* \"contracts/modules/Storage.sol\":10755:10786  uint public topRoyaltyRound = 1 */\n      0x44\n        /* \"contracts/modules/SponsorMatrix.sol\":124:20190  contract Nanakshahi is Storage{... */\n      sload\n      mload(0x40)\n      swap1\n      dup2\n      mstore\n      return\n    tag_67:\n      jumpi(tag_125, callvalue)\n      jumpi(tag_125, slt(add(not(0x03), calldatasize), 0x20))\n      calldataload(0x04)\n      dup1\n      0x00\n      mstore\n        /* \"contracts/modules/SponsorMatrix.sol\":2499:2504  users */\n      0x0d\n        /* \"contracts/modules/SponsorMatrix.sol\":124:20190  contract Nanakshahi is Storage{... */\n      0x20\n      mstore\n      keccak256(0x00, 0x40)\n        /* \"contracts/modules/SponsorMatrix.sol\":2524:2579  require(user.account == msg.sender, \"Not your account\") */\n      tag_317\n        /* \"contracts/modules/SponsorMatrix.sol\":124:20190  contract Nanakshahi is Storage{... */\n      0x01\n      dup1\n      0xa0\n      shl\n      sub\n      dup3\n      sload\n      and\n        /* \"contracts/modules/SponsorMatrix.sol\":2548:2558  msg.sender */\n      caller\n        /* \"contracts/modules/SponsorMatrix.sol\":2532:2558  user.account == msg.sender */\n      eq\n        /* \"contracts/modules/SponsorMatrix.sol\":2524:2579  require(user.account == msg.sender, \"Not your account\") */\n      tag_9\n      jump\t// in\n    tag_317:\n        /* \"contracts/modules/SponsorMatrix.sol\":2598:2608  user.level */\n      0x06\n      dup2\n      add\n        /* \"contracts/modules/SponsorMatrix.sol\":124:20190  contract Nanakshahi is Storage{... */\n      swap1\n      dup2\n      sload\n        /* \"contracts/modules/SponsorMatrix.sol\":2598:2613  user.level < 15 */\n      swap2\n        /* \"contracts/modules/SponsorMatrix.sol\":2611:2613  15 */\n      0x0f\n        /* \"contracts/modules/SponsorMatrix.sol\":2598:2613  user.level < 15 */\n      dup4\n      lt\n        /* \"contracts/modules/SponsorMatrix.sol\":124:20190  contract Nanakshahi is Storage{... */\n      iszero\n      tag_318\n      jumpi\n        /* \"contracts/modules/SponsorMatrix.sol\":2717:2736  packages[nextLevel] */\n      tag_320\n      dup4\n      tag_1\n      jump\t// in\n    tag_320:\n        /* \"contracts/modules/SponsorMatrix.sol\":124:20190  contract Nanakshahi is Storage{... */\n      swap1\n      sload\n      sload(0x01)\n      mload(0x40)\n      shl(0xe0, 0x23b872dd)\n        /* \"contracts/modules/SponsorMatrix.sol\":2845:2903  usdt.transferFrom(msg.sender, address(this), packagePrice) */\n      dup2\n      mstore\n        /* \"contracts/modules/SponsorMatrix.sol\":2548:2558  msg.sender */\n      caller\n        /* \"contracts/modules/SponsorMatrix.sol\":124:20190  contract Nanakshahi is Storage{... */\n      0x04\n        /* \"contracts/modules/SponsorMatrix.sol\":2845:2903  usdt.transferFrom(msg.sender, address(this), packagePrice) */\n      dup3\n      add\n        /* \"contracts/modules/SponsorMatrix.sol\":124:20190  contract Nanakshahi is Storage{... */\n      mstore\n        /* \"contracts/modules/SponsorMatrix.sol\":2883:2887  this */\n      address\n        /* \"contracts/modules/SponsorMatrix.sol\":124:20190  contract Nanakshahi is Storage{... */\n      0x24\n      dup3\n      add\n      mstore\n      0x03\n      swap4\n      swap1\n      swap4\n      shl\n      swap2\n      swap1\n      swap2\n      shr\n      0x44\n      dup4\n      add\n      dup2\n      swap1\n      mstore\n      swap3\n      swap2\n      swap1\n      0x20\n      swap1\n      dup3\n      swap1\n      0x64\n      swap1\n      dup3\n      swap1\n      0x00\n      swap1\n      sub(shl(0xa0, 0x01), 0x01)\n      and\n        /* \"contracts/modules/SponsorMatrix.sol\":2845:2903  usdt.transferFrom(msg.sender, address(this), packagePrice) */\n      gas\n      call\n      dup1\n      iszero\n      tag_141\n      jumpi\n      tag_324\n      jumpi\n        /* \"contracts/modules/SponsorMatrix.sol\":124:20190  contract Nanakshahi is Storage{... */\n    tag_325:\n      pop\n      dup1\n      sload\n      swap1\n      0x01\n      dup3\n      add\n      dup1\n      swap3\n      gt\n      tag_171\n      jumpi\n      sstore\n        /* \"contracts/modules/SponsorMatrix.sol\":2950:2967  user.totalDeposit */\n      0x0a\n      dup3\n      add\n        /* \"contracts/modules/SponsorMatrix.sol\":2950:2983  user.totalDeposit += packagePrice */\n      tag_328\n        /* \"contracts/modules/SponsorMatrix.sol\":124:20190  contract Nanakshahi is Storage{... */\n      dup3\n      dup3\n      sload\n        /* \"contracts/modules/SponsorMatrix.sol\":2950:2983  user.totalDeposit += packagePrice */\n      tag_15\n      jump\t// in\n    tag_328:\n        /* \"contracts/modules/SponsorMatrix.sol\":124:20190  contract Nanakshahi is Storage{... */\n      swap1\n      sstore\n        /* \"contracts/modules/SponsorMatrix.sol\":3028:3187  user.deposits.push(Deposit({... */\n      tag_329\n        /* \"contracts/modules/SponsorMatrix.sol\":124:20190  contract Nanakshahi is Storage{... */\n      mload(0x40)\n      tag_330\n      dup2\n      tag_10\n      jump\t// in\n    tag_330:\n      dup3\n      dup2\n      mstore\n      0x00\n      0x20\n        /* \"contracts/modules/SponsorMatrix.sol\":3047:3186  Deposit({... */\n      dup3\n      add\n        /* \"contracts/modules/SponsorMatrix.sol\":124:20190  contract Nanakshahi is Storage{... */\n      mstore\n        /* \"contracts/modules/SponsorMatrix.sol\":2762:2777  block.timestamp */\n      timestamp\n        /* \"contracts/modules/SponsorMatrix.sol\":124:20190  contract Nanakshahi is Storage{... */\n      0x40\n        /* \"contracts/modules/SponsorMatrix.sol\":3047:3186  Deposit({... */\n      dup3\n      add\n        /* \"contracts/modules/SponsorMatrix.sol\":124:20190  contract Nanakshahi is Storage{... */\n      mstore\n      0x01\n        /* \"contracts/modules/SponsorMatrix.sol\":3047:3186  Deposit({... */\n      0x60\n      dup3\n      add\n        /* \"contracts/modules/SponsorMatrix.sol\":124:20190  contract Nanakshahi is Storage{... */\n      mstore\n      0x01\n        /* \"contracts/modules/SponsorMatrix.sol\":3028:3041  user.deposits */\n      dup5\n      add\n        /* \"contracts/modules/SponsorMatrix.sol\":3028:3187  user.deposits.push(Deposit({... */\n      tag_16\n      jump\t// in\n    tag_329:\n        /* \"contracts/modules/SponsorMatrix.sol\":3337:3338  5 */\n      0x05\n        /* \"contracts/modules/SponsorMatrix.sol\":124:20190  contract Nanakshahi is Storage{... */\n      dup2\n      mul\n      dup2\n      iszero\n      swap1\n      dup3\n      dup2\n      div\n        /* \"contracts/modules/SponsorMatrix.sol\":3337:3338  5 */\n      0x05\n        /* \"contracts/modules/SponsorMatrix.sol\":124:20190  contract Nanakshahi is Storage{... */\n      eq\n      dup3\n      or\n      iszero\n      tag_171\n      jumpi\n        /* \"contracts/modules/SponsorMatrix.sol\":3497:3499  25 */\n      0x19\n        /* \"contracts/modules/SponsorMatrix.sol\":124:20190  contract Nanakshahi is Storage{... */\n      dup4\n      mul\n      dup4\n      dup2\n      div\n        /* \"contracts/modules/SponsorMatrix.sol\":3497:3499  25 */\n      0x19\n        /* \"contracts/modules/SponsorMatrix.sol\":124:20190  contract Nanakshahi is Storage{... */\n      eq\n      dup4\n      or\n      iszero\n      tag_171\n      jumpi\n        /* \"contracts/modules/SponsorMatrix.sol\":3612:3624  creatorShare */\n      tag_335\n        /* \"contracts/modules/SponsorMatrix.sol\":124:20190  contract Nanakshahi is Storage{... */\n      swap2\n        /* \"contracts/modules/SponsorMatrix.sol\":3538:3552  communityShare */\n      tag_175\n        /* \"contracts/modules/SponsorMatrix.sol\":3341:3344  100 */\n      0x64\n        /* \"contracts/modules/SponsorMatrix.sol\":124:20190  contract Nanakshahi is Storage{... */\n      dup1\n      swap4\n      div\n        /* \"contracts/modules/SponsorMatrix.sol\":3538:3552  communityShare */\n      tag_23\n      jump\t// in\n        /* \"contracts/modules/SponsorMatrix.sol\":3612:3624  creatorShare */\n    tag_335:\n        /* \"contracts/modules/SponsorMatrix.sol\":3804:3806  20 */\n      0x14\n        /* \"contracts/modules/SponsorMatrix.sol\":124:20190  contract Nanakshahi is Storage{... */\n      dup3\n      mul\n      swap2\n      dup3\n      div\n        /* \"contracts/modules/SponsorMatrix.sol\":3804:3806  20 */\n      0x14\n        /* \"contracts/modules/SponsorMatrix.sol\":124:20190  contract Nanakshahi is Storage{... */\n      eq\n      or\n      iszero\n      tag_171\n      jumpi\n        /* \"contracts/modules/SponsorMatrix.sol\":3341:3344  100 */\n      0x64\n        /* \"contracts/modules/SponsorMatrix.sol\":124:20190  contract Nanakshahi is Storage{... */\n      swap1\n      div\n        /* \"contracts/modules/SponsorMatrix.sol\":3848:3862  user.sponsorId */\n      swap1\n        /* \"contracts/modules/SponsorMatrix.sol\":124:20190  contract Nanakshahi is Storage{... */\n      0x04\n        /* \"contracts/modules/SponsorMatrix.sol\":3848:3862  user.sponsorId */\n      dup2\n      add\n        /* \"contracts/modules/SponsorMatrix.sol\":124:20190  contract Nanakshahi is Storage{... */\n      swap2\n      dup3\n      sload\n      swap4\n      0x01\n      dup2\n      add\n      swap5\n      dup6\n      dup3\n      gt\n      tag_171\n      jumpi\n        /* \"contracts/modules/SponsorMatrix.sol\":3888:3901  nextLevel + 1 */\n      dup3\n      tag_341\n      dup8\n        /* \"contracts/modules/SponsorMatrix.sol\":4197:4206  nextLevel */\n      tag_342\n        /* \"contracts/modules/SponsorMatrix.sol\":3888:3901  nextLevel + 1 */\n      swap6\n      dup11\n      dup3\n      swap6\n      tag_26\n      jump\t// in\n    tag_341:\n        /* \"contracts/modules/SponsorMatrix.sol\":3993:4006  user.uplineId */\n      dup8\n        /* \"contracts/modules/SponsorMatrix.sol\":3337:3338  5 */\n      0x05\n        /* \"contracts/modules/SponsorMatrix.sol\":3993:4006  user.uplineId */\n      dup7\n      add\n        /* \"contracts/modules/SponsorMatrix.sol\":4031:4044  nextLevel + 1 */\n      tag_343\n        /* \"contracts/modules/SponsorMatrix.sol\":124:20190  contract Nanakshahi is Storage{... */\n      dup5\n      dup5\n      dup5\n      dup5\n      sload\n        /* \"contracts/modules/SponsorMatrix.sol\":4031:4044  nextLevel + 1 */\n      tag_28\n      jump\t// in\n    tag_343:\n        /* \"contracts/modules/SponsorMatrix.sol\":124:20190  contract Nanakshahi is Storage{... */\n      sload\n        /* \"contracts/modules/SponsorMatrix.sol\":4197:4206  nextLevel */\n      tag_29\n      jump\t// in\n    tag_342:\n        /* \"contracts/modules/SponsorMatrix.sol\":2950:2967  user.totalDeposit */\n      0x0a\n        /* \"contracts/modules/SponsorMatrix.sol\":4260:4298  (nextLevel+1) == MONTHLY_ROYALTY_LEVEL */\n      dup4\n      eq\n        /* \"contracts/modules/SponsorMatrix.sol\":4257:5177  if((nextLevel+1) == MONTHLY_ROYALTY_LEVEL){... */\n      tag_344\n      jumpi\n        /* \"contracts/modules/SponsorMatrix.sol\":124:20190  contract Nanakshahi is Storage{... */\n    tag_345:\n        /* \"contracts/modules/SponsorMatrix.sol\":2611:2613  15 */\n      0x0f\n        /* \"contracts/modules/SponsorMatrix.sol\":5228:5262  (nextLevel+1) == TOP_ROYALTY_LEVEL */\n      dup4\n      eq\n        /* \"contracts/modules/SponsorMatrix.sol\":5225:6097  if((nextLevel+1) == TOP_ROYALTY_LEVEL){... */\n      tag_346\n      jumpi\n        /* \"contracts/modules/SponsorMatrix.sol\":124:20190  contract Nanakshahi is Storage{... */\n    tag_347:\n      pop\n      pop\n      mload(0x40)\n      swap1\n      dup2\n      mstore\n        /* \"contracts/modules/SponsorMatrix.sol\":3047:3186  Deposit({... */\n      0x60\n        /* \"contracts/modules/SponsorMatrix.sol\":124:20190  contract Nanakshahi is Storage{... */\n      0x20\n      dup3\n      add\n      mstore\n      0x15\n        /* \"contracts/modules/SponsorMatrix.sol\":3047:3186  Deposit({... */\n      0x60\n        /* \"contracts/modules/SponsorMatrix.sol\":124:20190  contract Nanakshahi is Storage{... */\n      dup3\n      add\n      mstore\n      shl(0x58, 0x53706f6e736f727368697020737472756374757265)\n      0x80\n      dup3\n      add\n      mstore\n        /* \"contracts/modules/SponsorMatrix.sol\":2762:2777  block.timestamp */\n      timestamp\n        /* \"contracts/modules/SponsorMatrix.sol\":124:20190  contract Nanakshahi is Storage{... */\n      0x40\n      dup3\n      add\n      mstore\n        /* \"contracts/modules/SponsorMatrix.sol\":6122:6199  Upgrade(msg.sender, _userId, nextLevel + 1, \"Sponsorship structure\", nowTime) */\n      0xae1560e7d725caf8d266d531bf32f170b87264eca8d1265202c334cfeb5bc382\n      0xa0\n        /* \"contracts/modules/SponsorMatrix.sol\":2548:2558  msg.sender */\n      caller\n        /* \"contracts/modules/SponsorMatrix.sol\":6122:6199  Upgrade(msg.sender, _userId, nextLevel + 1, \"Sponsorship structure\", nowTime) */\n      swap3\n      log3\n        /* \"contracts/modules/SponsorMatrix.sol\":124:20190  contract Nanakshahi is Storage{... */\n      stop\n        /* \"contracts/modules/SponsorMatrix.sol\":5225:6097  if((nextLevel+1) == TOP_ROYALTY_LEVEL){... */\n    tag_346:\n        /* \"contracts/modules/SponsorMatrix.sol\":5292:5308  user.level15Time */\n      0x11\n        /* \"contracts/modules/SponsorMatrix.sol\":2762:2777  block.timestamp */\n      timestamp\n        /* \"contracts/modules/SponsorMatrix.sol\":5292:5308  user.level15Time */\n      swap2\n      add\n        /* \"contracts/modules/SponsorMatrix.sol\":124:20190  contract Nanakshahi is Storage{... */\n      sstore\n      dup3\n      0x00\n      mstore\n        /* \"contracts/modules/SponsorMatrix.sol\":2499:2504  users */\n      0x0d\n        /* \"contracts/modules/SponsorMatrix.sol\":124:20190  contract Nanakshahi is Storage{... */\n      0x20\n      mstore\n      keccak256(0x00, 0x40)\n      swap1\n      sload\n      0x00\n      mstore\n        /* \"contracts/modules/SponsorMatrix.sol\":2499:2504  users */\n      0x0d\n        /* \"contracts/modules/SponsorMatrix.sol\":124:20190  contract Nanakshahi is Storage{... */\n      0x20\n      mstore\n      keccak256(0x00, 0x40)\n        /* \"contracts/modules/SponsorMatrix.sol\":5511:5541  _sponsor.topRoyaltyDirectCount */\n      0x13\n      dup2\n      add\n        /* \"contracts/modules/SponsorMatrix.sol\":124:20190  contract Nanakshahi is Storage{... */\n      dup1\n      sload\n      0x01\n      dup2\n      add\n      dup1\n      swap2\n      gt\n      tag_171\n      jumpi\n      dup1\n        /* \"contracts/modules/Storage.sol\":1189:1190  2 */\n      0x02\n        /* \"contracts/modules/SponsorMatrix.sol\":124:20190  contract Nanakshahi is Storage{... */\n      swap3\n      sstore\n        /* \"contracts/modules/SponsorMatrix.sol\":5564:5616  _sponsor.topRoyaltyDirectCount >= TOP_ROYALTY_DIRECT */\n      lt\n      iszero\n        /* \"contracts/modules/SponsorMatrix.sol\":5563:5678  (_sponsor.topRoyaltyDirectCount >= TOP_ROYALTY_DIRECT) && (nowTime <= _sponsor.registrationTime + TOP_ROYALTY_TIME) */\n      swap1\n      dup2\n      tag_350\n      jumpi\n        /* \"contracts/modules/SponsorMatrix.sol\":5225:6097  if((nextLevel+1) == TOP_ROYALTY_LEVEL){... */\n    tag_351:\n        /* \"contracts/modules/SponsorMatrix.sol\":5563:5719  (_sponsor.topRoyaltyDirectCount >= TOP_ROYALTY_DIRECT) && (nowTime <= _sponsor.registrationTime + TOP_ROYALTY_TIME) && (_sponsor.level >= TOP_ROYALTY_LEVEL) */\n      dup2\n      tag_352\n      jumpi\n        /* \"contracts/modules/SponsorMatrix.sol\":5225:6097  if((nextLevel+1) == TOP_ROYALTY_LEVEL){... */\n    tag_353:\n        /* \"contracts/modules/SponsorMatrix.sol\":5560:5811  if((_sponsor.topRoyaltyDirectCount >= TOP_ROYALTY_DIRECT) && (nowTime <= _sponsor.registrationTime + TOP_ROYALTY_TIME) && (_sponsor.level >= TOP_ROYALTY_LEVEL)){... */\n      pop\n      tag_354\n      jumpi\n        /* \"contracts/modules/SponsorMatrix.sol\":5225:6097  if((nextLevel+1) == TOP_ROYALTY_LEVEL){... */\n    tag_355:\n        /* \"contracts/modules/Storage.sol\":1189:1190  2 */\n      0x02\n        /* \"contracts/modules/SponsorMatrix.sol\":5511:5541  _sponsor.topRoyaltyDirectCount */\n      0x13\n        /* \"contracts/modules/SponsorMatrix.sol\":5833:5860  _user.topRoyaltyDirectCount */\n      dup3\n      add\n        /* \"contracts/modules/SponsorMatrix.sol\":124:20190  contract Nanakshahi is Storage{... */\n      sload\n        /* \"contracts/modules/SponsorMatrix.sol\":5833:5882  _user.topRoyaltyDirectCount >= TOP_ROYALTY_DIRECT */\n      lt\n      iszero\n        /* \"contracts/modules/SponsorMatrix.sol\":5832:5950  (_user.topRoyaltyDirectCount >= TOP_ROYALTY_DIRECT) &&(_user.level15Time <= _user.registrationTime + TOP_ROYALTY_TIME) */\n      swap1\n      dup2\n      tag_356\n      jumpi\n        /* \"contracts/modules/SponsorMatrix.sol\":5225:6097  if((nextLevel+1) == TOP_ROYALTY_LEVEL){... */\n    tag_357:\n        /* \"contracts/modules/SponsorMatrix.sol\":5832:5988  (_user.topRoyaltyDirectCount >= TOP_ROYALTY_DIRECT) &&(_user.level15Time <= _user.registrationTime + TOP_ROYALTY_TIME) && (_user.level == TOP_ROYALTY_LEVEL) */\n      dup2\n      tag_358\n      jumpi\n        /* \"contracts/modules/SponsorMatrix.sol\":5225:6097  if((nextLevel+1) == TOP_ROYALTY_LEVEL){... */\n    tag_359:\n        /* \"contracts/modules/SponsorMatrix.sol\":5829:6086  if((_user.topRoyaltyDirectCount >= TOP_ROYALTY_DIRECT) &&(_user.level15Time <= _user.registrationTime + TOP_ROYALTY_TIME) && (_user.level == TOP_ROYALTY_LEVEL)  ){... */\n      pop\n      tag_360\n      jumpi\n        /* \"contracts/modules/SponsorMatrix.sol\":5225:6097  if((nextLevel+1) == TOP_ROYALTY_LEVEL){... */\n    tag_361:\n      dup3\n      dup1\n      jump(tag_347)\n        /* \"contracts/modules/SponsorMatrix.sol\":5829:6086  if((_user.topRoyaltyDirectCount >= TOP_ROYALTY_DIRECT) &&(_user.level15Time <= _user.registrationTime + TOP_ROYALTY_TIME) && (_user.level == TOP_ROYALTY_LEVEL)  ){... */\n    tag_360:\n        /* \"contracts/modules/SponsorMatrix.sol\":6042:6057  topRoyaltyRound */\n      tag_362\n      0x44\n        /* \"contracts/modules/SponsorMatrix.sol\":124:20190  contract Nanakshahi is Storage{... */\n      sload\n        /* \"contracts/modules/SponsorMatrix.sol\":6042:6057  topRoyaltyRound */\n      dup4\n      tag_31\n      jump\t// in\n    tag_362:\n        /* \"contracts/modules/SponsorMatrix.sol\":5829:6086  if((_user.topRoyaltyDirectCount >= TOP_ROYALTY_DIRECT) &&(_user.level15Time <= _user.registrationTime + TOP_ROYALTY_TIME) && (_user.level == TOP_ROYALTY_LEVEL)  ){... */\n      jump(tag_361)\n        /* \"contracts/modules/SponsorMatrix.sol\":5832:5988  (_user.topRoyaltyDirectCount >= TOP_ROYALTY_DIRECT) &&(_user.level15Time <= _user.registrationTime + TOP_ROYALTY_TIME) && (_user.level == TOP_ROYALTY_LEVEL) */\n    tag_358:\n        /* \"contracts/modules/SponsorMatrix.sol\":2611:2613  15 */\n      0x0f\n        /* \"contracts/modules/SponsorMatrix.sol\":5955:5966  _user.level */\n      swap2\n      pop\n        /* \"contracts/modules/SponsorMatrix.sol\":2598:2608  user.level */\n      0x06\n        /* \"contracts/modules/SponsorMatrix.sol\":5955:5966  _user.level */\n      add\n        /* \"contracts/modules/SponsorMatrix.sol\":124:20190  contract Nanakshahi is Storage{... */\n      sload\n        /* \"contracts/modules/SponsorMatrix.sol\":5955:5987  _user.level == TOP_ROYALTY_LEVEL */\n      eq\n        /* \"contracts/modules/SponsorMatrix.sol\":5832:5988  (_user.topRoyaltyDirectCount >= TOP_ROYALTY_DIRECT) &&(_user.level15Time <= _user.registrationTime + TOP_ROYALTY_TIME) && (_user.level == TOP_ROYALTY_LEVEL) */\n      dup4\n      jump(tag_359)\n        /* \"contracts/modules/SponsorMatrix.sol\":5832:5950  (_user.topRoyaltyDirectCount >= TOP_ROYALTY_DIRECT) &&(_user.level15Time <= _user.registrationTime + TOP_ROYALTY_TIME) */\n    tag_356:\n        /* \"contracts/modules/SponsorMatrix.sol\":5887:5904  _user.level15Time */\n      swap1\n      pop\n        /* \"contracts/modules/SponsorMatrix.sol\":5292:5308  user.level15Time */\n      0x11\n        /* \"contracts/modules/SponsorMatrix.sol\":5887:5904  _user.level15Time */\n      dup2\n      add\n        /* \"contracts/modules/SponsorMatrix.sol\":124:20190  contract Nanakshahi is Storage{... */\n      sload\n        /* \"contracts/modules/SponsorMatrix.sol\":2611:2613  15 */\n      0x0f\n        /* \"contracts/modules/SponsorMatrix.sol\":5908:5930  _user.registrationTime */\n      dup3\n      add\n        /* \"contracts/modules/SponsorMatrix.sol\":124:20190  contract Nanakshahi is Storage{... */\n      sload\n      swap1\n        /* \"contracts/modules/Storage.sol\":849:857  450 days */\n      0x02514300\n        /* \"contracts/modules/SponsorMatrix.sol\":124:20190  contract Nanakshahi is Storage{... */\n      dup3\n      add\n      dup1\n      swap3\n      gt\n      tag_171\n      jumpi\n        /* \"contracts/modules/SponsorMatrix.sol\":5887:5949  _user.level15Time <= _user.registrationTime + TOP_ROYALTY_TIME */\n      gt\n      iszero\n        /* \"contracts/modules/SponsorMatrix.sol\":5832:5950  (_user.topRoyaltyDirectCount >= TOP_ROYALTY_DIRECT) &&(_user.level15Time <= _user.registrationTime + TOP_ROYALTY_TIME) */\n      swap1\n      jump(tag_357)\n        /* \"contracts/modules/SponsorMatrix.sol\":5560:5811  if((_sponsor.topRoyaltyDirectCount >= TOP_ROYALTY_DIRECT) && (nowTime <= _sponsor.registrationTime + TOP_ROYALTY_TIME) && (_sponsor.level >= TOP_ROYALTY_LEVEL)){... */\n    tag_354:\n        /* \"contracts/modules/SponsorMatrix.sol\":5779:5794  topRoyaltyRound */\n      tag_365\n        /* \"contracts/modules/SponsorMatrix.sol\":124:20190  contract Nanakshahi is Storage{... */\n      0x04\n        /* \"contracts/modules/SponsorMatrix.sol\":5762:5777  _user.sponsorId */\n      dup3\n      add\n        /* \"contracts/modules/SponsorMatrix.sol\":124:20190  contract Nanakshahi is Storage{... */\n      sload\n        /* \"contracts/modules/SponsorMatrix.sol\":5779:5794  topRoyaltyRound */\n      0x44\n        /* \"contracts/modules/SponsorMatrix.sol\":124:20190  contract Nanakshahi is Storage{... */\n      sload\n        /* \"contracts/modules/SponsorMatrix.sol\":5779:5794  topRoyaltyRound */\n      swap1\n      tag_31\n      jump\t// in\n    tag_365:\n        /* \"contracts/modules/SponsorMatrix.sol\":5560:5811  if((_sponsor.topRoyaltyDirectCount >= TOP_ROYALTY_DIRECT) && (nowTime <= _sponsor.registrationTime + TOP_ROYALTY_TIME) && (_sponsor.level >= TOP_ROYALTY_LEVEL)){... */\n      jump(tag_355)\n        /* \"contracts/modules/SponsorMatrix.sol\":5563:5719  (_sponsor.topRoyaltyDirectCount >= TOP_ROYALTY_DIRECT) && (nowTime <= _sponsor.registrationTime + TOP_ROYALTY_TIME) && (_sponsor.level >= TOP_ROYALTY_LEVEL) */\n    tag_352:\n        /* \"contracts/modules/SponsorMatrix.sol\":2611:2613  15 */\n      0x0f\n        /* \"contracts/modules/SponsorMatrix.sol\":5683:5697  _sponsor.level */\n      swap2\n      pop\n        /* \"contracts/modules/SponsorMatrix.sol\":2598:2608  user.level */\n      0x06\n        /* \"contracts/modules/SponsorMatrix.sol\":5683:5697  _sponsor.level */\n      add\n        /* \"contracts/modules/SponsorMatrix.sol\":124:20190  contract Nanakshahi is Storage{... */\n      sload\n        /* \"contracts/modules/SponsorMatrix.sol\":5683:5718  _sponsor.level >= TOP_ROYALTY_LEVEL */\n      lt\n      iszero\n        /* \"contracts/modules/SponsorMatrix.sol\":5563:5719  (_sponsor.topRoyaltyDirectCount >= TOP_ROYALTY_DIRECT) && (nowTime <= _sponsor.registrationTime + TOP_ROYALTY_TIME) && (_sponsor.level >= TOP_ROYALTY_LEVEL) */\n      dup5\n      jump(tag_353)\n        /* \"contracts/modules/SponsorMatrix.sol\":5563:5678  (_sponsor.topRoyaltyDirectCount >= TOP_ROYALTY_DIRECT) && (nowTime <= _sponsor.registrationTime + TOP_ROYALTY_TIME) */\n    tag_350:\n        /* \"contracts/modules/SponsorMatrix.sol\":5633:5658  _sponsor.registrationTime */\n      swap1\n      pop\n        /* \"contracts/modules/SponsorMatrix.sol\":2611:2613  15 */\n      0x0f\n        /* \"contracts/modules/SponsorMatrix.sol\":5633:5658  _sponsor.registrationTime */\n      dup2\n      add\n        /* \"contracts/modules/SponsorMatrix.sol\":124:20190  contract Nanakshahi is Storage{... */\n      sload\n        /* \"contracts/modules/Storage.sol\":849:857  450 days */\n      0x02514300\n        /* \"contracts/modules/SponsorMatrix.sol\":124:20190  contract Nanakshahi is Storage{... */\n      dup2\n      add\n      dup1\n      swap2\n      gt\n      tag_171\n      jumpi\n        /* \"contracts/modules/SponsorMatrix.sol\":2762:2777  block.timestamp */\n      timestamp\n        /* \"contracts/modules/SponsorMatrix.sol\":5622:5677  nowTime <= _sponsor.registrationTime + TOP_ROYALTY_TIME */\n      gt\n      iszero\n        /* \"contracts/modules/SponsorMatrix.sol\":5563:5678  (_sponsor.topRoyaltyDirectCount >= TOP_ROYALTY_DIRECT) && (nowTime <= _sponsor.registrationTime + TOP_ROYALTY_TIME) */\n      swap1\n      jump(tag_351)\n        /* \"contracts/modules/SponsorMatrix.sol\":4257:5177  if((nextLevel+1) == MONTHLY_ROYALTY_LEVEL){... */\n    tag_344:\n        /* \"contracts/modules/SponsorMatrix.sol\":2762:2777  block.timestamp */\n      timestamp\n        /* \"contracts/modules/SponsorMatrix.sol\":4328:4344  user.level10Time */\n      0x10\n      dup3\n      add\n        /* \"contracts/modules/SponsorMatrix.sol\":124:20190  contract Nanakshahi is Storage{... */\n      sstore\n      0x00\n      dup5\n      dup2\n      mstore\n        /* \"contracts/modules/SponsorMatrix.sol\":2499:2504  users */\n      0x0d\n        /* \"contracts/modules/SponsorMatrix.sol\":124:20190  contract Nanakshahi is Storage{... */\n      0x20\n      mstore\n      0x40\n      dup1\n      dup3\n      keccak256\n      dup5\n      sload\n      dup4\n      mstore\n      swap2\n      keccak256\n        /* \"contracts/modules/SponsorMatrix.sol\":4547:4578  _sponsor.monthlyUserDirectCount */\n      0x12\n      dup2\n      add\n        /* \"contracts/modules/SponsorMatrix.sol\":124:20190  contract Nanakshahi is Storage{... */\n      dup1\n      sload\n      0x01\n      dup2\n      add\n      swap1\n      dup2\n      lt\n      tag_171\n      jumpi\n      dup1\n        /* \"contracts/modules/SponsorMatrix.sol\":3337:3338  5 */\n      0x05\n        /* \"contracts/modules/SponsorMatrix.sol\":124:20190  contract Nanakshahi is Storage{... */\n      swap3\n      sstore\n        /* \"contracts/modules/SponsorMatrix.sol\":4601:4658  _sponsor.monthlyUserDirectCount >= MONTHLY_ROYALTY_DIRECT */\n      lt\n      iszero\n        /* \"contracts/modules/SponsorMatrix.sol\":4600:4724  (_sponsor.monthlyUserDirectCount >= MONTHLY_ROYALTY_DIRECT) && (nowTime <= _sponsor.registrationTime + MONTHLY_ROYALTY_TIME) */\n      swap1\n      dup2\n      tag_370\n      jumpi\n        /* \"contracts/modules/SponsorMatrix.sol\":4257:5177  if((nextLevel+1) == MONTHLY_ROYALTY_LEVEL){... */\n    tag_371:\n        /* \"contracts/modules/SponsorMatrix.sol\":4600:4769  (_sponsor.monthlyUserDirectCount >= MONTHLY_ROYALTY_DIRECT) && (nowTime <= _sponsor.registrationTime + MONTHLY_ROYALTY_TIME) && (_sponsor.level >= MONTHLY_ROYALTY_LEVEL) */\n      dup2\n      tag_372\n      jumpi\n        /* \"contracts/modules/SponsorMatrix.sol\":4257:5177  if((nextLevel+1) == MONTHLY_ROYALTY_LEVEL){... */\n    tag_373:\n        /* \"contracts/modules/SponsorMatrix.sol\":4597:4869  if((_sponsor.monthlyUserDirectCount >= MONTHLY_ROYALTY_DIRECT) && (nowTime <= _sponsor.registrationTime + MONTHLY_ROYALTY_TIME) && (_sponsor.level >= MONTHLY_ROYALTY_LEVEL)){... */\n      pop\n      tag_374\n      jumpi\n        /* \"contracts/modules/SponsorMatrix.sol\":4257:5177  if((nextLevel+1) == MONTHLY_ROYALTY_LEVEL){... */\n    tag_375:\n        /* \"contracts/modules/SponsorMatrix.sol\":3337:3338  5 */\n      0x05\n        /* \"contracts/modules/SponsorMatrix.sol\":4547:4578  _sponsor.monthlyUserDirectCount */\n      0x12\n        /* \"contracts/modules/SponsorMatrix.sol\":4891:4919  _user.monthlyUserDirectCount */\n      dup3\n      add\n        /* \"contracts/modules/SponsorMatrix.sol\":124:20190  contract Nanakshahi is Storage{... */\n      sload\n        /* \"contracts/modules/SponsorMatrix.sol\":4891:4945  _user.monthlyUserDirectCount >= MONTHLY_ROYALTY_DIRECT */\n      lt\n      iszero\n        /* \"contracts/modules/SponsorMatrix.sol\":4890:5018  (_user.monthlyUserDirectCount >= MONTHLY_ROYALTY_DIRECT) && (_user.level10Time <= _user.registrationTime + MONTHLY_ROYALTY_TIME) */\n      swap1\n      dup2\n      tag_376\n      jumpi\n        /* \"contracts/modules/SponsorMatrix.sol\":4257:5177  if((nextLevel+1) == MONTHLY_ROYALTY_LEVEL){... */\n    tag_377:\n        /* \"contracts/modules/SponsorMatrix.sol\":4890:5060  (_user.monthlyUserDirectCount >= MONTHLY_ROYALTY_DIRECT) && (_user.level10Time <= _user.registrationTime + MONTHLY_ROYALTY_TIME) && (_user.level == MONTHLY_ROYALTY_LEVEL) */\n      dup2\n      tag_378\n      jumpi\n        /* \"contracts/modules/SponsorMatrix.sol\":4257:5177  if((nextLevel+1) == MONTHLY_ROYALTY_LEVEL){... */\n    tag_379:\n        /* \"contracts/modules/SponsorMatrix.sol\":4887:5166  if((_user.monthlyUserDirectCount >= MONTHLY_ROYALTY_DIRECT) && (_user.level10Time <= _user.registrationTime + MONTHLY_ROYALTY_TIME) && (_user.level == MONTHLY_ROYALTY_LEVEL)  ){... */\n      pop\n      iszero\n        /* \"contracts/modules/SponsorMatrix.sol\":4257:5177  if((nextLevel+1) == MONTHLY_ROYALTY_LEVEL){... */\n      tag_345\n        /* \"contracts/modules/SponsorMatrix.sol\":4887:5166  if((_user.monthlyUserDirectCount >= MONTHLY_ROYALTY_DIRECT) && (_user.level10Time <= _user.registrationTime + MONTHLY_ROYALTY_TIME) && (_user.level == MONTHLY_ROYALTY_LEVEL)  ){... */\n      jumpi\n        /* \"contracts/modules/SponsorMatrix.sol\":5118:5137  currentMonthlyRound */\n      tag_382\n      0x3d\n        /* \"contracts/modules/SponsorMatrix.sol\":124:20190  contract Nanakshahi is Storage{... */\n      sload\n        /* \"contracts/modules/SponsorMatrix.sol\":5118:5137  currentMonthlyRound */\n      dup6\n      tag_30\n      jump\t// in\n    tag_382:\n        /* \"contracts/modules/SponsorMatrix.sol\":4257:5177  if((nextLevel+1) == MONTHLY_ROYALTY_LEVEL){... */\n      jump(tag_345)\n        /* \"contracts/modules/SponsorMatrix.sol\":4890:5060  (_user.monthlyUserDirectCount >= MONTHLY_ROYALTY_DIRECT) && (_user.level10Time <= _user.registrationTime + MONTHLY_ROYALTY_TIME) && (_user.level == MONTHLY_ROYALTY_LEVEL) */\n    tag_378:\n        /* \"contracts/modules/SponsorMatrix.sol\":2950:2967  user.totalDeposit */\n      0x0a\n        /* \"contracts/modules/SponsorMatrix.sol\":5023:5034  _user.level */\n      swap2\n      pop\n        /* \"contracts/modules/SponsorMatrix.sol\":2598:2608  user.level */\n      0x06\n        /* \"contracts/modules/SponsorMatrix.sol\":5023:5034  _user.level */\n      add\n        /* \"contracts/modules/SponsorMatrix.sol\":124:20190  contract Nanakshahi is Storage{... */\n      sload\n        /* \"contracts/modules/SponsorMatrix.sol\":5023:5059  _user.level == MONTHLY_ROYALTY_LEVEL */\n      eq\n        /* \"contracts/modules/SponsorMatrix.sol\":4890:5060  (_user.monthlyUserDirectCount >= MONTHLY_ROYALTY_DIRECT) && (_user.level10Time <= _user.registrationTime + MONTHLY_ROYALTY_TIME) && (_user.level == MONTHLY_ROYALTY_LEVEL) */\n      dup6\n      jump(tag_379)\n        /* \"contracts/modules/SponsorMatrix.sol\":4890:5018  (_user.monthlyUserDirectCount >= MONTHLY_ROYALTY_DIRECT) && (_user.level10Time <= _user.registrationTime + MONTHLY_ROYALTY_TIME) */\n    tag_376:\n        /* \"contracts/modules/SponsorMatrix.sol\":4951:4968  _user.level10Time */\n      swap1\n      pop\n        /* \"contracts/modules/SponsorMatrix.sol\":4328:4344  user.level10Time */\n      0x10\n        /* \"contracts/modules/SponsorMatrix.sol\":4951:4968  _user.level10Time */\n      dup2\n      add\n        /* \"contracts/modules/SponsorMatrix.sol\":124:20190  contract Nanakshahi is Storage{... */\n      sload\n        /* \"contracts/modules/SponsorMatrix.sol\":2611:2613  15 */\n      0x0f\n        /* \"contracts/modules/SponsorMatrix.sol\":4972:4994  _user.registrationTime */\n      dup3\n      add\n        /* \"contracts/modules/SponsorMatrix.sol\":124:20190  contract Nanakshahi is Storage{... */\n      sload\n      swap1\n        /* \"contracts/modules/Storage.sol\":791:799  100 days */\n      0x83d600\n        /* \"contracts/modules/SponsorMatrix.sol\":124:20190  contract Nanakshahi is Storage{... */\n      dup3\n      add\n      dup1\n      swap3\n      gt\n      tag_171\n      jumpi\n        /* \"contracts/modules/SponsorMatrix.sol\":4951:5017  _user.level10Time <= _user.registrationTime + MONTHLY_ROYALTY_TIME */\n      gt\n      iszero\n        /* \"contracts/modules/SponsorMatrix.sol\":4890:5018  (_user.monthlyUserDirectCount >= MONTHLY_ROYALTY_DIRECT) && (_user.level10Time <= _user.registrationTime + MONTHLY_ROYALTY_TIME) */\n      swap1\n      jump(tag_377)\n        /* \"contracts/modules/SponsorMatrix.sol\":4597:4869  if((_sponsor.monthlyUserDirectCount >= MONTHLY_ROYALTY_DIRECT) && (nowTime <= _sponsor.registrationTime + MONTHLY_ROYALTY_TIME) && (_sponsor.level >= MONTHLY_ROYALTY_LEVEL)){... */\n    tag_374:\n        /* \"contracts/modules/SponsorMatrix.sol\":4833:4852  currentMonthlyRound */\n      tag_385\n        /* \"contracts/modules/SponsorMatrix.sol\":124:20190  contract Nanakshahi is Storage{... */\n      0x04\n        /* \"contracts/modules/SponsorMatrix.sol\":4816:4831  _user.sponsorId */\n      dup3\n      add\n        /* \"contracts/modules/SponsorMatrix.sol\":124:20190  contract Nanakshahi is Storage{... */\n      sload\n        /* \"contracts/modules/SponsorMatrix.sol\":4833:4852  currentMonthlyRound */\n      0x3d\n        /* \"contracts/modules/SponsorMatrix.sol\":124:20190  contract Nanakshahi is Storage{... */\n      sload\n        /* \"contracts/modules/SponsorMatrix.sol\":4833:4852  currentMonthlyRound */\n      swap1\n      tag_30\n      jump\t// in\n    tag_385:\n        /* \"contracts/modules/SponsorMatrix.sol\":4597:4869  if((_sponsor.monthlyUserDirectCount >= MONTHLY_ROYALTY_DIRECT) && (nowTime <= _sponsor.registrationTime + MONTHLY_ROYALTY_TIME) && (_sponsor.level >= MONTHLY_ROYALTY_LEVEL)){... */\n      jump(tag_375)\n        /* \"contracts/modules/SponsorMatrix.sol\":4600:4769  (_sponsor.monthlyUserDirectCount >= MONTHLY_ROYALTY_DIRECT) && (nowTime <= _sponsor.registrationTime + MONTHLY_ROYALTY_TIME) && (_sponsor.level >= MONTHLY_ROYALTY_LEVEL) */\n    tag_372:\n        /* \"contracts/modules/SponsorMatrix.sol\":2950:2967  user.totalDeposit */\n      0x0a\n        /* \"contracts/modules/SponsorMatrix.sol\":4729:4743  _sponsor.level */\n      swap2\n      pop\n        /* \"contracts/modules/SponsorMatrix.sol\":2598:2608  user.level */\n      0x06\n        /* \"contracts/modules/SponsorMatrix.sol\":4729:4743  _sponsor.level */\n      add\n        /* \"contracts/modules/SponsorMatrix.sol\":124:20190  contract Nanakshahi is Storage{... */\n      sload\n        /* \"contracts/modules/SponsorMatrix.sol\":4729:4768  _sponsor.level >= MONTHLY_ROYALTY_LEVEL */\n      lt\n      iszero\n        /* \"contracts/modules/SponsorMatrix.sol\":4600:4769  (_sponsor.monthlyUserDirectCount >= MONTHLY_ROYALTY_DIRECT) && (nowTime <= _sponsor.registrationTime + MONTHLY_ROYALTY_TIME) && (_sponsor.level >= MONTHLY_ROYALTY_LEVEL) */\n      dup7\n      jump(tag_373)\n        /* \"contracts/modules/SponsorMatrix.sol\":4600:4724  (_sponsor.monthlyUserDirectCount >= MONTHLY_ROYALTY_DIRECT) && (nowTime <= _sponsor.registrationTime + MONTHLY_ROYALTY_TIME) */\n    tag_370:\n        /* \"contracts/modules/SponsorMatrix.sol\":4675:4700  _sponsor.registrationTime */\n      swap1\n      pop\n        /* \"contracts/modules/SponsorMatrix.sol\":2611:2613  15 */\n      0x0f\n        /* \"contracts/modules/SponsorMatrix.sol\":4675:4700  _sponsor.registrationTime */\n      dup2\n      add\n        /* \"contracts/modules/SponsorMatrix.sol\":124:20190  contract Nanakshahi is Storage{... */\n      sload\n        /* \"contracts/modules/Storage.sol\":791:799  100 days */\n      0x83d600\n        /* \"contracts/modules/SponsorMatrix.sol\":124:20190  contract Nanakshahi is Storage{... */\n      dup2\n      add\n      dup1\n      swap2\n      gt\n      tag_171\n      jumpi\n        /* \"contracts/modules/SponsorMatrix.sol\":2762:2777  block.timestamp */\n      timestamp\n        /* \"contracts/modules/SponsorMatrix.sol\":4664:4723  nowTime <= _sponsor.registrationTime + MONTHLY_ROYALTY_TIME */\n      gt\n      iszero\n        /* \"contracts/modules/SponsorMatrix.sol\":4600:4724  (_sponsor.monthlyUserDirectCount >= MONTHLY_ROYALTY_DIRECT) && (nowTime <= _sponsor.registrationTime + MONTHLY_ROYALTY_TIME) */\n      swap1\n      jump(tag_371)\n        /* \"contracts/modules/SponsorMatrix.sol\":2845:2903  usdt.transferFrom(msg.sender, address(this), packagePrice) */\n    tag_324:\n      tag_388\n      swap1\n        /* \"contracts/modules/SponsorMatrix.sol\":124:20190  contract Nanakshahi is Storage{... */\n      0x20\n        /* \"contracts/modules/SponsorMatrix.sol\":2845:2903  usdt.transferFrom(msg.sender, address(this), packagePrice) */\n      returndatasize\n        /* \"contracts/modules/SponsorMatrix.sol\":124:20190  contract Nanakshahi is Storage{... */\n      0x20\n        /* \"contracts/modules/SponsorMatrix.sol\":2845:2903  usdt.transferFrom(msg.sender, address(this), packagePrice) */\n      gt\n      tag_206\n      jumpi\n      tag_208\n      dup2\n      dup4\n      tag_12\n      jump\t// in\n    tag_388:\n      jump(tag_325)\n        /* \"contracts/modules/SponsorMatrix.sol\":124:20190  contract Nanakshahi is Storage{... */\n    tag_318:\n      mload(0x40)\n      shl(0xe5, 0x461bcd)\n      dup2\n      mstore\n      0x20\n      0x04\n      dup3\n      add\n      mstore\n      0x14\n      0x24\n      dup3\n      add\n      mstore\n      shl(0x62, 0x105b1c9958591e48185d081b585e081b195d995b)\n      0x44\n      dup3\n      add\n      mstore\n      0x64\n      swap1\n      revert\n    tag_65:\n      jumpi(tag_125, callvalue)\n      jumpi(tag_125, slt(add(not(0x03), calldatasize), 0x20))\n      calldataload(0x04)\n        /* \"contracts/modules/Storage.sol\":1206:1237  uint[] public registeredUserIds */\n      0x07\n        /* \"contracts/modules/SponsorMatrix.sol\":124:20190  contract Nanakshahi is Storage{... */\n      sload\n        /* \"contracts/modules/Storage.sol\":1206:1237  uint[] public registeredUserIds */\n      dup2\n      lt\n      iszero\n      tag_125\n      jumpi\n      0x07\n        /* \"contracts/modules/SponsorMatrix.sol\":124:20190  contract Nanakshahi is Storage{... */\n      sload\n      dup2\n      lt\n      iszero\n      tag_269\n      jumpi\n        /* \"contracts/modules/Storage.sol\":1206:1237  uint[] public registeredUserIds */\n      0x07\n        /* \"contracts/modules/SponsorMatrix.sol\":124:20190  contract Nanakshahi is Storage{... */\n      0x00\n      mstore\n      0xa66cc928b5edb82af9bd49922954155ab7b0942694bea4ce44661d9a8736c688\n      add\n      sload\n      mload(0x40)\n      swap1\n      dup2\n      mstore\n      0x20\n      swap1\n      return\n    tag_63:\n      tag_5\n      jump\t// in\n    tag_61:\n      jumpi(tag_125, callvalue)\n      jumpi(tag_125, slt(add(not(0x03), calldatasize), 0x00))\n      0x20\n      mload(0x40)\n        /* \"contracts/modules/Storage.sol\":1462:1466  1e18 */\n      0x0de0b6b3a7640000\n        /* \"contracts/modules/SponsorMatrix.sol\":124:20190  contract Nanakshahi is Storage{... */\n      dup2\n      mstore\n      return\n    tag_59:\n      jumpi(tag_125, callvalue)\n      jumpi(tag_125, slt(add(not(0x03), calldatasize), 0x00))\n      0x20\n      mload(0x40)\n        /* \"contracts/modules/Storage.sol\":731:737  1 days */\n      0x015180\n        /* \"contracts/modules/SponsorMatrix.sol\":124:20190  contract Nanakshahi is Storage{... */\n      dup2\n      mstore\n      return\n    tag_57:\n      jumpi(tag_125, callvalue)\n      jumpi(tag_125, slt(add(not(0x03), calldatasize), 0x00))\n      0x20\n      mload(0x40)\n        /* \"contracts/modules/Storage.sol\":1189:1190  2 */\n      0x02\n        /* \"contracts/modules/SponsorMatrix.sol\":124:20190  contract Nanakshahi is Storage{... */\n      dup2\n      mstore\n      return\n    tag_55:\n      jumpi(tag_125, callvalue)\n      jumpi(tag_125, slt(add(not(0x03), calldatasize), 0x00))\n      0x20\n        /* \"contracts/modules/Storage.sol\":8085:8118  uint public WeeklyTotalReward = 0 */\n      0x38\n        /* \"contracts/modules/SponsorMatrix.sol\":124:20190  contract Nanakshahi is Storage{... */\n      sload\n      mload(0x40)\n      swap1\n      dup2\n      mstore\n      return\n    tag_53:\n      jumpi(tag_125, callvalue)\n      jumpi(tag_125, slt(add(not(0x03), calldatasize), 0x00))\n      sload(0x01)\n      mload(0x40)\n      sub(shl(0xa0, 0x01), 0x01)\n      swap1\n      swap2\n      and\n      dup2\n      mstore\n      0x20\n      swap1\n      return\n    tag_49:\n      jumpi(tag_125, callvalue)\n      jumpi(tag_125, slt(add(not(0x03), calldatasize), 0x00))\n      0x20\n      mload(0x40)\n        /* \"contracts/modules/Storage.sol\":9372:9379  30 days */\n      0x278d00\n        /* \"contracts/modules/SponsorMatrix.sol\":124:20190  contract Nanakshahi is Storage{... */\n      dup2\n      mstore\n      return\n    tag_47:\n      jumpi(tag_125, callvalue)\n      jumpi(tag_125, slt(add(not(0x03), calldatasize), 0x20))\n      0x40\n      tag_428\n      calldataload(0x04)\n      tag_8\n      jump\t// in\n    tag_428:\n      dup3\n      mload\n      swap2\n      dup3\n      mstore\n      0x20\n      dup3\n      add\n      mstore\n      return\n    tag_43:\n      jumpi(tag_125, callvalue)\n      jumpi(tag_125, slt(add(not(0x03), calldatasize), 0x20))\n      calldataload(0x04)\n        /* \"contracts/modules/Storage.sol\":6192:6297  uint[] public glbBoosterPackages = [ 100e18, 200e18, 400e18, 800e18, 1600e18, 3200e18, 6400e18, 12800e18] */\n      0x14\n        /* \"contracts/modules/SponsorMatrix.sol\":124:20190  contract Nanakshahi is Storage{... */\n      sload\n        /* \"contracts/modules/Storage.sol\":6192:6297  uint[] public glbBoosterPackages = [ 100e18, 200e18, 400e18, 800e18, 1600e18, 3200e18, 6400e18, 12800e18] */\n      dup2\n      lt\n      iszero\n      tag_125\n      jumpi\n      0x14\n        /* \"contracts/modules/SponsorMatrix.sol\":124:20190  contract Nanakshahi is Storage{... */\n      sload\n      dup2\n      lt\n      iszero\n      tag_269\n      jumpi\n        /* \"contracts/modules/Storage.sol\":6192:6297  uint[] public glbBoosterPackages = [ 100e18, 200e18, 400e18, 800e18, 1600e18, 3200e18, 6400e18, 12800e18] */\n      0x14\n        /* \"contracts/modules/SponsorMatrix.sol\":124:20190  contract Nanakshahi is Storage{... */\n      0x00\n      mstore\n      0xce6d7b5282bd9a3661ae061feed1dbda4e52ab073b1f9285be6e155d9c38d4ec\n      add\n      sload\n      mload(0x40)\n      swap1\n      dup2\n      mstore\n      0x20\n      swap1\n      return\n    tag_41:\n      jumpi(tag_125, callvalue)\n      jumpi(tag_125, slt(add(not(0x03), calldatasize), 0x20))\n      calldataload(0x04)\n      0x07\n        /* \"contracts/modules/Storage.sol\":6304:6361  uint[7] public minLevelForPool = [3, 5, 7, 9, 11, 13, 15] */\n      dup2\n      lt\n      iszero\n      tag_125\n      jumpi\n        /* \"contracts/modules/SponsorMatrix.sol\":124:20190  contract Nanakshahi is Storage{... */\n      0x20\n      swap1\n        /* \"contracts/modules/Storage.sol\":6304:6361  uint[7] public minLevelForPool = [3, 5, 7, 9, 11, 13, 15] */\n      0x15\n        /* \"contracts/modules/SponsorMatrix.sol\":124:20190  contract Nanakshahi is Storage{... */\n      add\n      sload\n      mload(0x40)\n      swap1\n      dup2\n      mstore\n      return\n    tag_39:\n      jumpi(tag_125, callvalue)\n      jumpi(tag_125, slt(add(not(0x03), calldatasize), 0x00))\n      dup1\n        /* \"contracts/modules/Storage.sol\":683:688  10000 */\n      0x2710\n        /* \"contracts/modules/SponsorMatrix.sol\":124:20190  contract Nanakshahi is Storage{... */\n      0x20\n      swap3\n      mstore\n      return\n    tag_1:\n        /* \"contracts/modules/SponsorMatrix.sol\":2717:2725  packages */\n      0x0b\n        /* \"contracts/modules/SponsorMatrix.sol\":124:20190  contract Nanakshahi is Storage{... */\n      sload\n      dup2\n      lt\n      iszero\n      tag_269\n      jumpi\n        /* \"contracts/modules/SponsorMatrix.sol\":2717:2725  packages */\n      0x0b\n      0x00\n        /* \"contracts/modules/SponsorMatrix.sol\":124:20190  contract Nanakshahi is Storage{... */\n      mstore\n      keccak256(0x00, 0x20)\n      add\n      swap1\n      0x00\n      swap1\n      jump\t// out\n    tag_2:\n        /* \"contracts/modules/SponsorMatrix.sol\":514:522  packages */\n      0x0b\n        /* \"contracts/modules/SponsorMatrix.sol\":124:20190  contract Nanakshahi is Storage{... */\n      sload\n      iszero\n      tag_269\n      jumpi\n        /* \"contracts/modules/SponsorMatrix.sol\":514:522  packages */\n      0x0b\n        /* \"contracts/modules/SponsorMatrix.sol\":124:20190  contract Nanakshahi is Storage{... */\n      0x00\n      swap1\n      dup2\n      mstore\n      0x0175b7a638427703f0dbe7bb9bbf987a2551717b34e79f33b5b1008d1fa01db9\n      swap2\n      jump\t// out\n    tag_3:\n      dup1\n      sload\n      dup3\n      lt\n      iszero\n      tag_269\n      jumpi\n      0x00\n      mstore\n      keccak256(0x00, 0x20)\n      add\n      swap1\n      0x00\n      swap1\n      jump\t// out\n    tag_4:\n      jumpi(tag_125, callvalue)\n      jumpi(tag_125, slt(add(not(0x03), calldatasize), 0x00))\n      0x20\n      mload(0x40)\n        /* \"contracts/modules/Storage.sol\":1025:1027  10 */\n      0x0a\n        /* \"contracts/modules/SponsorMatrix.sol\":124:20190  contract Nanakshahi is Storage{... */\n      dup2\n      mstore\n      return\n    tag_5:\n      jumpi(tag_125, callvalue)\n      jumpi(tag_125, slt(add(not(0x03), calldatasize), 0x00))\n      0x20\n      mload(0x40)\n        /* \"contracts/modules/Storage.sol\":1078:1080  15 */\n      0x0f\n        /* \"contracts/modules/SponsorMatrix.sol\":124:20190  contract Nanakshahi is Storage{... */\n      dup2\n      mstore\n      return\n    tag_6:\n      swap2\n      swap1\n      dup3\n      sub\n      swap2\n      dup3\n      gt\n      tag_171\n      jumpi\n      jump\t// out\n    tag_7:\n      dup2\n      iszero\n      tag_463\n      jumpi\n      div\n      swap1\n      jump\t// out\n    tag_463:\n      mstore(0x00, shl(0xe0, 0x4e487b71))\n      mstore(0x04, 0x12)\n      revert(0x00, 0x24)\n        /* \"contracts/modules/SponsorMatrix.sol\":9085:9521  function pendingCommunity(uint _userId) external view returns (uint pendingGross, uint pendingAfterCap) {... */\n    tag_8:\n      swap1\n        /* \"contracts/modules/SponsorMatrix.sol\":124:20190  contract Nanakshahi is Storage{... */\n      dup2\n      0x00\n      mstore\n        /* \"contracts/modules/SponsorMatrix.sol\":9204:9209  users */\n      0x0d\n        /* \"contracts/modules/SponsorMatrix.sol\":124:20190  contract Nanakshahi is Storage{... */\n      0x20\n      mstore\n        /* \"contracts/modules/SponsorMatrix.sol\":9204:9221  users[_userId].id */\n      0x03\n        /* \"contracts/modules/SponsorMatrix.sol\":124:20190  contract Nanakshahi is Storage{... */\n      keccak256(0x00, 0x40)\n        /* \"contracts/modules/SponsorMatrix.sol\":9204:9221  users[_userId].id */\n      add\n        /* \"contracts/modules/SponsorMatrix.sol\":124:20190  contract Nanakshahi is Storage{... */\n      sload\n        /* \"contracts/modules/SponsorMatrix.sol\":9204:9226  users[_userId].id == 0 */\n      iszero\n        /* \"contracts/modules/SponsorMatrix.sol\":9200:9241  if (users[_userId].id == 0) return (0, 0) */\n      tag_465\n      jumpi\n        /* \"contracts/modules/SponsorMatrix.sol\":9266:9285  communityAccPerUser */\n      0x09\n        /* \"contracts/modules/SponsorMatrix.sol\":124:20190  contract Nanakshahi is Storage{... */\n      sload\n      dup3\n      0x00\n      mstore\n        /* \"contracts/modules/SponsorMatrix.sol\":9311:9324  communityDebt */\n      0x0a\n        /* \"contracts/modules/SponsorMatrix.sol\":124:20190  contract Nanakshahi is Storage{... */\n      0x20\n      mstore\n      sload(keccak256(0x00, 0x40))\n        /* \"contracts/modules/SponsorMatrix.sol\":9348:9359  acc <= debt */\n      swap1\n      dup2\n      dup2\n      gt\n      iszero\n        /* \"contracts/modules/SponsorMatrix.sol\":9344:9374  if (acc <= debt) return (0, 0) */\n      tag_467\n      jumpi\n        /* \"contracts/modules/SponsorMatrix.sol\":9399:9409  acc - debt */\n      tag_469\n        /* \"contracts/modules/SponsorMatrix.sol\":9448:9483  _applyGlobalCapping(_userId, gross) */\n      tag_470\n        /* \"contracts/modules/SponsorMatrix.sol\":9399:9409  acc - debt */\n      swap3\n        /* \"contracts/modules/Storage.sol\":1462:1466  1e18 */\n      0x0de0b6b3a7640000\n        /* \"contracts/modules/SponsorMatrix.sol\":9399:9409  acc - debt */\n      swap3\n      tag_6\n      jump\t// in\n    tag_469:\n        /* \"contracts/modules/SponsorMatrix.sol\":124:20190  contract Nanakshahi is Storage{... */\n      div\n        /* \"contracts/modules/SponsorMatrix.sol\":9448:9483  _applyGlobalCapping(_userId, gross) */\n      dup1\n      swap4\n      tag_22\n      jump\t// in\n    tag_470:\n        /* \"contracts/modules/SponsorMatrix.sol\":9085:9521  function pendingCommunity(uint _userId) external view returns (uint pendingGross, uint pendingAfterCap) {... */\n      swap1\n      jump\t// out\n        /* \"contracts/modules/SponsorMatrix.sol\":9344:9374  if (acc <= debt) return (0, 0) */\n    tag_467:\n        /* \"contracts/modules/SponsorMatrix.sol\":9361:9374  return (0, 0) */\n      pop\n      pop\n      swap1\n      pop\n      0x00\n      swap1\n      0x00\n      swap1\n      jump\t// out\n        /* \"contracts/modules/SponsorMatrix.sol\":9200:9241  if (users[_userId].id == 0) return (0, 0) */\n    tag_465:\n      0x00\n      swap2\n      pop\n      dup2\n      swap1\n        /* \"contracts/modules/SponsorMatrix.sol\":9228:9241  return (0, 0) */\n      jump\t// out\n        /* \"contracts/modules/SponsorMatrix.sol\":124:20190  contract Nanakshahi is Storage{... */\n    tag_9:\n      iszero\n      tag_471\n      jumpi\n      jump\t// out\n    tag_471:\n      mload(0x40)\n      shl(0xe5, 0x461bcd)\n      dup2\n      mstore\n      0x20\n      0x04\n      dup3\n      add\n      mstore\n      0x10\n      0x24\n      dup3\n      add\n      mstore\n      shl(0x82, 0x139bdd081e5bdd5c881858d8dbdd5b9d)\n      0x44\n      dup3\n      add\n      mstore\n      0x64\n      swap1\n      revert\n    tag_10:\n      0x80\n      dup2\n      add\n      swap1\n      dup2\n      lt\n      0xffffffffffffffff\n      dup3\n      gt\n      or\n      tag_152\n      jumpi\n      0x40\n      mstore\n      jump\t// out\n    tag_11:\n      0xa0\n      dup2\n      add\n      swap1\n      dup2\n      lt\n      0xffffffffffffffff\n      dup3\n      gt\n      or\n      tag_152\n      jumpi\n      0x40\n      mstore\n      jump\t// out\n    tag_12:\n      swap1\n      0x1f\n      dup1\n      not\n      swap2\n      add\n      and\n      dup2\n      add\n      swap1\n      dup2\n      lt\n      0xffffffffffffffff\n      dup3\n      gt\n      or\n      tag_152\n      jumpi\n      0x40\n      mstore\n      jump\t// out\n    tag_13:\n      swap1\n      dup2\n      0x20\n      swap2\n      sub\n      slt\n      tag_125\n      jumpi\n      mload\n      dup1\n      iszero\n      iszero\n      dup2\n      sub\n      tag_125\n      jumpi\n      swap1\n      jump\t// out\n    tag_15:\n      swap2\n      swap1\n      dup3\n      add\n      dup1\n      swap3\n      gt\n      tag_171\n      jumpi\n      jump\t// out\n    tag_16:\n      dup1\n      sload\n      shl(0x40, 0x01)\n      dup2\n      lt\n      iszero\n      tag_152\n      jumpi\n      0x01\n      dup2\n      add\n      dup1\n      dup4\n      sstore\n      dup2\n      lt\n      iszero\n      tag_269\n      jumpi\n      0x03\n      0x60\n      swap2\n      0xff\n      swap4\n      0x00\n      mstore\n      keccak256(0x00, 0x20)\n      swap1\n      0x02\n      shl\n      add\n      dup5\n      mload\n      dup2\n      sstore\n      0x20\n      dup6\n      add\n      mload\n      0x01\n      dup3\n      add\n      sstore\n      0x40\n      dup6\n      add\n      mload\n      0x02\n      dup3\n      add\n      sstore\n      add\n      swap3\n      add\n      mload\n      and\n      not(0xff)\n      dup3\n      sload\n      and\n      or\n      swap1\n      sstore\n      jump\t// out\n    tag_17:\n      dup2\n      dup2\n      mul\n      swap3\n      swap2\n      dup2\n      iszero\n      swap2\n      dup5\n      div\n      eq\n      or\n      iszero\n      tag_171\n      jumpi\n      jump\t// out\n    tag_18:\n      dup1\n      sload\n      swap1\n      shl(0x40, 0x01)\n      dup3\n      lt\n      iszero\n      tag_152\n      jumpi\n      0x01\n      dup3\n      add\n      dup1\n      dup3\n      sstore\n      dup3\n      lt\n      iszero\n      tag_269\n      jumpi\n      0x04\n      swap2\n      0x80\n      swap2\n      0x00\n      mstore\n      0x05\n      keccak256(0x00, 0x20)\n      swap2\n      mul\n      add\n      swap3\n      dup1\n      mload\n      dup5\n      sstore\n      0x20\n      dup2\n      add\n      mload\n      0x01\n      dup6\n      add\n      sstore\n      0x40\n      dup2\n      add\n      mload\n      0x02\n      dup6\n      add\n      sstore\n      0x60\n      dup2\n      add\n      mload\n      0x03\n      dup6\n      add\n      sstore\n      add\n      mload\n      swap2\n      add\n      sstore\n      jump\t// out\n        /* \"contracts/modules/SponsorMatrix.sol\":7328:9075  function claimCommunity(uint _userId) external {... */\n    tag_20:\n        /* \"contracts/modules/SponsorMatrix.sol\":124:20190  contract Nanakshahi is Storage{... */\n      dup1\n      0x00\n      mstore\n        /* \"contracts/modules/SponsorMatrix.sol\":7407:7412  users */\n      0x0d\n        /* \"contracts/modules/SponsorMatrix.sol\":124:20190  contract Nanakshahi is Storage{... */\n      0x20\n      mstore\n      keccak256(0x00, 0x40)\n        /* \"contracts/modules/SponsorMatrix.sol\":7444:7448  u.id */\n      swap1\n      0x03\n      dup3\n      add\n        /* \"contracts/modules/SponsorMatrix.sol\":124:20190  contract Nanakshahi is Storage{... */\n      sload\n        /* \"contracts/modules/SponsorMatrix.sol\":7444:7453  u.id != 0 */\n      iszero\n        /* \"contracts/modules/SponsorMatrix.sol\":124:20190  contract Nanakshahi is Storage{... */\n      tag_495\n      jumpi\n        /* \"contracts/modules/SponsorMatrix.sol\":7487:7539  require(u.account == msg.sender, \"Not your account\") */\n      tag_497\n        /* \"contracts/modules/SponsorMatrix.sol\":124:20190  contract Nanakshahi is Storage{... */\n      0x01\n      dup1\n      0xa0\n      shl\n      sub\n      dup4\n      sload\n      and\n        /* \"contracts/modules/SponsorMatrix.sol\":7508:7518  msg.sender */\n      caller\n        /* \"contracts/modules/SponsorMatrix.sol\":7495:7518  u.account == msg.sender */\n      eq\n        /* \"contracts/modules/SponsorMatrix.sol\":7487:7539  require(u.account == msg.sender, \"Not your account\") */\n      tag_9\n      jump\t// in\n    tag_497:\n        /* \"contracts/modules/SponsorMatrix.sol\":7636:7655  communityAccPerUser */\n      0x09\n        /* \"contracts/modules/SponsorMatrix.sol\":124:20190  contract Nanakshahi is Storage{... */\n      sload\n      swap2\n      dup2\n      0x00\n      mstore\n        /* \"contracts/modules/SponsorMatrix.sol\":7685:7698  communityDebt */\n      0x0a\n        /* \"contracts/modules/SponsorMatrix.sol\":124:20190  contract Nanakshahi is Storage{... */\n      0x20\n      mstore\n      sload(keccak256(0x00, 0x40))\n        /* \"contracts/modules/SponsorMatrix.sol\":7728:7747  accumulated == debt */\n      dup1\n      dup5\n      eq\n        /* \"contracts/modules/SponsorMatrix.sol\":7724:7810  if (accumulated == debt) {... */\n      tag_498\n      jumpi\n        /* \"contracts/modules/SponsorMatrix.sol\":7845:7863  accumulated - debt */\n      tag_500\n        /* \"contracts/modules/Storage.sol\":1462:1466  1e18 */\n      0x0de0b6b3a7640000\n        /* \"contracts/modules/SponsorMatrix.sol\":7845:7863  accumulated - debt */\n      swap2\n      dup6\n      tag_6\n      jump\t// in\n    tag_500:\n        /* \"contracts/modules/SponsorMatrix.sol\":124:20190  contract Nanakshahi is Storage{... */\n      div\n        /* \"contracts/modules/SponsorMatrix.sol\":7899:7911  accrued == 0 */\n      swap2\n      dup3\n      iszero\n        /* \"contracts/modules/SponsorMatrix.sol\":7895:8028  if (accrued == 0) {... */\n      tag_501\n      jumpi\n        /* \"contracts/modules/SponsorMatrix.sol\":8105:8142  _applyGlobalCapping(_userId, accrued) */\n      tag_503\n      dup4\n      dup3\n      tag_22\n      jump\t// in\n    tag_503:\n        /* \"contracts/modules/SponsorMatrix.sol\":124:20190  contract Nanakshahi is Storage{... */\n      swap4\n      dup2\n      0x00\n      mstore\n        /* \"contracts/modules/SponsorMatrix.sol\":7685:7698  communityDebt */\n      0x0a\n        /* \"contracts/modules/SponsorMatrix.sol\":124:20190  contract Nanakshahi is Storage{... */\n      0x20\n      mstore\n      keccak256(0x00, 0x40)\n      sstore\n        /* \"contracts/modules/SponsorMatrix.sol\":8289:8296  pay > 0 */\n      dup4\n      dup1\n        /* \"contracts/modules/SponsorMatrix.sol\":8285:8906  if (pay > 0) {... */\n      tag_504\n      jumpi\n        /* \"contracts/modules/SponsorMatrix.sol\":7328:9075  function claimCommunity(uint _userId) external {... */\n    tag_505:\n        /* \"contracts/modules/SponsorMatrix.sol\":8985:8998  accrued > pay */\n      swap2\n      pop\n      pop\n      dup2\n      gt\n        /* \"contracts/modules/SponsorMatrix.sol\":8981:9064  if (accrued > pay) {... */\n      tag_506\n      jumpi\n        /* \"contracts/modules/SponsorMatrix.sol\":7328:9075  function claimCommunity(uint _userId) external {... */\n      pop\n      pop\n      jump\t// out\n        /* \"contracts/modules/SponsorMatrix.sol\":8981:9064  if (accrued > pay) {... */\n    tag_506:\n        /* \"contracts/modules/SponsorMatrix.sol\":9034:9047  accrued - pay */\n      tag_508\n      swap2\n      tag_509\n      swap2\n      tag_6\n      jump\t// in\n    tag_509:\n      tag_24\n      jump\t// in\n    tag_508:\n        /* \"contracts/modules/SponsorMatrix.sol\":7328:9075  function claimCommunity(uint _userId) external {... */\n      jump\t// out\n        /* \"contracts/modules/SponsorMatrix.sol\":8285:8906  if (pay > 0) {... */\n    tag_504:\n        /* \"contracts/modules/SponsorMatrix.sol\":8836:8865  usdt.transfer(u.account, pay) */\n      tag_510\n        /* \"contracts/modules/SponsorMatrix.sol\":124:20190  contract Nanakshahi is Storage{... */\n      swap3\n        /* \"contracts/modules/SponsorMatrix.sol\":8501:8775  incomeHistory[_userId].push(Income({... */\n      tag_511\n        /* \"contracts/modules/SponsorMatrix.sol\":124:20190  contract Nanakshahi is Storage{... */\n      dup4\n      0x20\n      swap5\n      0x00\n      mstore\n        /* \"contracts/modules/SponsorMatrix.sol\":8342:8353  userIncomes */\n      0x0e\n        /* \"contracts/modules/SponsorMatrix.sol\":124:20190  contract Nanakshahi is Storage{... */\n      dup6\n      mstore\n        /* \"contracts/modules/SponsorMatrix.sol\":8422:8441  inc.communityIncome */\n      0x06\n        /* \"contracts/modules/SponsorMatrix.sol\":124:20190  contract Nanakshahi is Storage{... */\n      keccak256(0x00, 0x40)\n        /* \"contracts/modules/SponsorMatrix.sol\":8381:8403  inc.totalIncome += pay */\n      tag_512\n        /* \"contracts/modules/SponsorMatrix.sol\":124:20190  contract Nanakshahi is Storage{... */\n      dup7\n      dup3\n      sload\n        /* \"contracts/modules/SponsorMatrix.sol\":8381:8403  inc.totalIncome += pay */\n      tag_15\n      jump\t// in\n    tag_512:\n        /* \"contracts/modules/SponsorMatrix.sol\":124:20190  contract Nanakshahi is Storage{... */\n      dup2\n      sstore\n        /* \"contracts/modules/SponsorMatrix.sol\":8422:8441  inc.communityIncome */\n      add\n        /* \"contracts/modules/SponsorMatrix.sol\":8422:8448  inc.communityIncome += pay */\n      tag_513\n        /* \"contracts/modules/SponsorMatrix.sol\":124:20190  contract Nanakshahi is Storage{... */\n      dup6\n      dup3\n      sload\n        /* \"contracts/modules/SponsorMatrix.sol\":8422:8448  inc.communityIncome += pay */\n      tag_15\n      jump\t// in\n    tag_513:\n        /* \"contracts/modules/SponsorMatrix.sol\":124:20190  contract Nanakshahi is Storage{... */\n      swap1\n      sstore\n      dup1\n      0x00\n      mstore\n        /* \"contracts/modules/SponsorMatrix.sol\":8501:8514  incomeHistory */\n      0x0f\n        /* \"contracts/modules/SponsorMatrix.sol\":124:20190  contract Nanakshahi is Storage{... */\n      dup6\n      mstore\n      keccak256(0x00, 0x40)\n      mload(0x40)\n      swap2\n      tag_514\n      dup4\n      tag_11\n      jump\t// in\n    tag_514:\n      dup3\n      mstore\n        /* \"contracts/modules/SponsorMatrix.sol\":8529:8774  Income({... */\n      dup5\n      dup7\n      dup4\n      add\n        /* \"contracts/modules/SponsorMatrix.sol\":124:20190  contract Nanakshahi is Storage{... */\n      mstore\n        /* \"contracts/modules/SponsorMatrix.sol\":8649:8650  1 */\n      0x01\n        /* \"contracts/modules/SponsorMatrix.sol\":124:20190  contract Nanakshahi is Storage{... */\n      0x40\n        /* \"contracts/modules/SponsorMatrix.sol\":8529:8774  Income({... */\n      dup4\n      add\n        /* \"contracts/modules/SponsorMatrix.sol\":124:20190  contract Nanakshahi is Storage{... */\n      mstore\n        /* \"contracts/modules/SponsorMatrix.sol\":8684:8699  block.timestamp */\n      timestamp\n        /* \"contracts/modules/SponsorMatrix.sol\":8529:8774  Income({... */\n      0x60\n      dup4\n      add\n        /* \"contracts/modules/SponsorMatrix.sol\":124:20190  contract Nanakshahi is Storage{... */\n      mstore\n        /* \"contracts/modules/SponsorMatrix.sol\":7636:7655  communityAccPerUser */\n      0x09\n        /* \"contracts/modules/SponsorMatrix.sol\":8529:8774  Income({... */\n      0x80\n      dup4\n      add\n        /* \"contracts/modules/SponsorMatrix.sol\":124:20190  contract Nanakshahi is Storage{... */\n      mstore\n        /* \"contracts/modules/SponsorMatrix.sol\":8501:8775  incomeHistory[_userId].push(Income({... */\n      tag_18\n      jump\t// in\n    tag_511:\n        /* \"contracts/modules/SponsorMatrix.sol\":124:20190  contract Nanakshahi is Storage{... */\n      sload(0x01)\n      swap1\n      sload\n      mload(0x40)\n      shl(0xe0, 0xa9059cbb)\n        /* \"contracts/modules/SponsorMatrix.sol\":8836:8865  usdt.transfer(u.account, pay) */\n      dup2\n      mstore\n      sub(shl(0xa0, 0x01), 0x01)\n        /* \"contracts/modules/SponsorMatrix.sol\":124:20190  contract Nanakshahi is Storage{... */\n      swap2\n      dup3\n      and\n        /* \"contracts/modules/SponsorMatrix.sol\":8836:8865  usdt.transfer(u.account, pay) */\n      0x04\n      dup3\n      add\n        /* \"contracts/modules/SponsorMatrix.sol\":124:20190  contract Nanakshahi is Storage{... */\n      mstore\n      0x24\n      dup2\n      add\n      swap4\n      swap1\n      swap4\n      mstore\n      swap2\n      swap4\n      dup5\n      swap3\n      swap1\n      swap2\n      and\n      swap1\n      dup3\n      swap1\n      0x00\n      swap1\n      dup3\n      swap1\n      0x44\n      dup3\n      add\n      swap1\n      jump\n        /* \"contracts/modules/SponsorMatrix.sol\":8836:8865  usdt.transfer(u.account, pay) */\n    tag_510:\n      sub\n      swap3\n      gas\n      call\n      swap1\n      dup2\n      iszero\n      tag_141\n      jumpi\n      0x00\n      swap2\n      tag_517\n      jumpi\n        /* \"contracts/modules/SponsorMatrix.sol\":8285:8906  if (pay > 0) {... */\n    tag_518:\n        /* \"contracts/modules/SponsorMatrix.sol\":124:20190  contract Nanakshahi is Storage{... */\n      pop\n      iszero\n      tag_519\n      jumpi\n        /* \"contracts/modules/SponsorMatrix.sol\":8285:8906  if (pay > 0) {... */\n      0x00\n      dup1\n      dup4\n      jump(tag_505)\n        /* \"contracts/modules/SponsorMatrix.sol\":124:20190  contract Nanakshahi is Storage{... */\n    tag_519:\n      mload(0x40)\n      shl(0xe5, 0x461bcd)\n      dup2\n      mstore\n      0x20\n        /* \"contracts/modules/SponsorMatrix.sol\":8836:8865  usdt.transfer(u.account, pay) */\n      0x04\n        /* \"contracts/modules/SponsorMatrix.sol\":124:20190  contract Nanakshahi is Storage{... */\n      dup3\n      add\n      mstore\n      0x14\n      0x24\n      dup3\n      add\n      mstore\n      shl(0x62, 0x1554d115081d1c985b9cd9995c8819985a5b1959)\n      0x44\n      dup3\n      add\n      mstore\n      0x64\n      swap1\n      revert\n        /* \"contracts/modules/SponsorMatrix.sol\":8836:8865  usdt.transfer(u.account, pay) */\n    tag_517:\n      tag_521\n      swap2\n      pop\n        /* \"contracts/modules/SponsorMatrix.sol\":124:20190  contract Nanakshahi is Storage{... */\n      0x20\n        /* \"contracts/modules/SponsorMatrix.sol\":8836:8865  usdt.transfer(u.account, pay) */\n      returndatasize\n        /* \"contracts/modules/SponsorMatrix.sol\":124:20190  contract Nanakshahi is Storage{... */\n      0x20\n        /* \"contracts/modules/SponsorMatrix.sol\":8836:8865  usdt.transfer(u.account, pay) */\n      gt\n      tag_206\n      jumpi\n      tag_208\n      dup2\n      dup4\n      tag_12\n      jump\t// in\n    tag_521:\n      0x00\n      jump(tag_518)\n        /* \"contracts/modules/SponsorMatrix.sol\":7895:8028  if (accrued == 0) {... */\n    tag_501:\n        /* \"contracts/modules/SponsorMatrix.sol\":124:20190  contract Nanakshahi is Storage{... */\n      swap2\n      pop\n      pop\n      0x00\n      mstore\n        /* \"contracts/modules/SponsorMatrix.sol\":7685:7698  communityDebt */\n      0x0a\n        /* \"contracts/modules/SponsorMatrix.sol\":124:20190  contract Nanakshahi is Storage{... */\n      0x20\n      mstore\n      keccak256(0x00, 0x40)\n      sstore\n        /* \"contracts/modules/SponsorMatrix.sol\":8006:8013  return; */\n      jump\t// out\n        /* \"contracts/modules/SponsorMatrix.sol\":7724:7810  if (accumulated == debt) {... */\n    tag_498:\n        /* \"contracts/modules/SponsorMatrix.sol\":7768:7775  return; */\n      pop\n      pop\n      pop\n      pop\n      jump\t// out\n        /* \"contracts/modules/SponsorMatrix.sol\":124:20190  contract Nanakshahi is Storage{... */\n    tag_495:\n      mload(0x40)\n      shl(0xe5, 0x461bcd)\n      dup2\n      mstore\n      0x20\n      0x04\n      dup3\n      add\n      mstore\n      0x0e\n      0x24\n      dup3\n      add\n      mstore\n      shl(0x92, 0x155cd95c881b9bdd08199bdd5b99)\n      0x44\n      dup3\n      add\n      mstore\n      0x64\n      swap1\n      revert\n    tag_21:\n      dup1\n      sload\n      shl(0x40, 0x01)\n      dup2\n      lt\n      iszero\n      tag_152\n      jumpi\n      tag_527\n      swap2\n      0x01\n      dup3\n      add\n      dup2\n      sstore\n      tag_3\n      jump\t// in\n    tag_527:\n      dup2\n      swap3\n      swap2\n      sload\n      swap1\n      0x03\n      shl\n      swap2\n      dup3\n      shl\n      swap2\n      not(0x00)\n      swap1\n      shl\n      not\n      and\n      or\n      swap1\n      sstore\n      jump\t// out\n        /* \"contracts/modules/SponsorMatrix.sol\":6219:6986  function _applyGlobalCapping(uint _userId, uint _amount) internal view returns (uint) {... */\n    tag_22:\n        /* \"contracts/modules/SponsorMatrix.sol\":124:20190  contract Nanakshahi is Storage{... */\n      dup1\n      0x00\n      mstore\n        /* \"contracts/modules/SponsorMatrix.sol\":6332:6337  users */\n      0x0d\n        /* \"contracts/modules/SponsorMatrix.sol\":124:20190  contract Nanakshahi is Storage{... */\n      0x20\n      mstore\n      keccak256(0x00, 0x40)\n      swap1\n      0x00\n      mstore\n        /* \"contracts/modules/SponsorMatrix.sol\":6381:6392  userIncomes */\n      0x0e\n        /* \"contracts/modules/SponsorMatrix.sol\":124:20190  contract Nanakshahi is Storage{... */\n      0x20\n      mstore\n        /* \"contracts/modules/SponsorMatrix.sol\":6757:6774  user.totalDeposit */\n      0x0a\n        /* \"contracts/modules/SponsorMatrix.sol\":6757:6796  user.totalDeposit * _ROI_CAP_MULTIPLIER */\n      tag_528\n        /* \"contracts/modules/SponsorMatrix.sol\":124:20190  contract Nanakshahi is Storage{... */\n      keccak256(0x00, 0x40)\n        /* \"contracts/modules/SponsorMatrix.sol\":6613:6658  uint _ROI_CAP_MULTIPLIER = ROI_CAP_MULTIPLIER */\n      swap3\n        /* \"contracts/modules/Storage.sol\":1078:1080  15 */\n      0x0f\n        /* \"contracts/modules/SponsorMatrix.sol\":6667:6691  user.directPoolQualified */\n      swap1\n        /* \"contracts/modules/SponsorMatrix.sol\":6692:6693  1 */\n      0x01\n        /* \"contracts/modules/SponsorMatrix.sol\":6667:6691  user.directPoolQualified */\n      0x08\n      dup3\n      add\n        /* \"contracts/modules/SponsorMatrix.sol\":124:20190  contract Nanakshahi is Storage{... */\n      sload\n        /* \"contracts/modules/SponsorMatrix.sol\":6667:6693  user.directPoolQualified>1 */\n      gt\n        /* \"contracts/modules/SponsorMatrix.sol\":6664:6734  if(user.directPoolQualified>1){... */\n      tag_529\n      jumpi\n        /* \"contracts/modules/SponsorMatrix.sol\":6219:6986  function _applyGlobalCapping(uint _userId, uint _amount) internal view returns (uint) {... */\n    tag_530:\n        /* \"contracts/modules/SponsorMatrix.sol\":6757:6774  user.totalDeposit */\n      dup4\n      add\n        /* \"contracts/modules/SponsorMatrix.sol\":124:20190  contract Nanakshahi is Storage{... */\n      sload\n        /* \"contracts/modules/SponsorMatrix.sol\":6757:6796  user.totalDeposit * _ROI_CAP_MULTIPLIER */\n      tag_17\n      jump\t// in\n    tag_528:\n        /* \"contracts/modules/SponsorMatrix.sol\":124:20190  contract Nanakshahi is Storage{... */\n      div\n      swap1\n      sload\n        /* \"contracts/modules/SponsorMatrix.sol\":6828:6859  income.totalIncome >= maxIncome */\n      dup2\n      dup2\n      lt\n      iszero\n        /* \"contracts/modules/SponsorMatrix.sol\":6824:6869  if (income.totalIncome >= maxIncome) return 0 */\n      tag_531\n      jumpi\n        /* \"contracts/modules/SponsorMatrix.sol\":6895:6925  maxIncome - income.totalIncome */\n      tag_533\n      swap2\n      tag_6\n      jump\t// in\n    tag_533:\n        /* \"contracts/modules/SponsorMatrix.sol\":6939:6982  (_amount > remaining) ? remaining : _amount */\n      swap1\n        /* \"contracts/modules/SponsorMatrix.sol\":6940:6959  _amount > remaining */\n      dup2\n      dup2\n      gt\n      iszero\n      tag_534\n      jumpi\n        /* \"contracts/modules/SponsorMatrix.sol\":6939:6982  (_amount > remaining) ? remaining : _amount */\n      pop\n        /* \"contracts/modules/SponsorMatrix.sol\":6219:6986  function _applyGlobalCapping(uint _userId, uint _amount) internal view returns (uint) {... */\n      swap1\n      jump\t// out\n        /* \"contracts/modules/SponsorMatrix.sol\":6939:6982  (_amount > remaining) ? remaining : _amount */\n    tag_534:\n      swap1\n      pop\n        /* \"contracts/modules/SponsorMatrix.sol\":6219:6986  function _applyGlobalCapping(uint _userId, uint _amount) internal view returns (uint) {... */\n      swap1\n      jump\t// out\n        /* \"contracts/modules/SponsorMatrix.sol\":6824:6869  if (income.totalIncome >= maxIncome) return 0 */\n    tag_531:\n        /* \"contracts/modules/SponsorMatrix.sol\":6861:6869  return 0 */\n      pop\n      pop\n      pop\n        /* \"contracts/modules/SponsorMatrix.sol\":124:20190  contract Nanakshahi is Storage{... */\n      0x00\n        /* \"contracts/modules/SponsorMatrix.sol\":6861:6869  return 0 */\n      swap1\n      jump\t// out\n        /* \"contracts/modules/SponsorMatrix.sol\":6664:6734  if(user.directPoolQualified>1){... */\n    tag_529:\n        /* \"contracts/modules/SponsorMatrix.sol\":6725:6727  20 */\n      0x14\n      swap2\n      pop\n        /* \"contracts/modules/SponsorMatrix.sol\":6664:6734  if(user.directPoolQualified>1){... */\n      jump(tag_530)\n        /* \"contracts/modules/SponsorMatrix.sol\":6994:7318  function _accrueCommunityBonus(uint _totalAmount) internal {... */\n    tag_23:\n        /* \"contracts/modules/SponsorMatrix.sol\":7073:7090  registeredUserIds */\n      0x07\n        /* \"contracts/modules/SponsorMatrix.sol\":124:20190  contract Nanakshahi is Storage{... */\n      sload\n        /* \"contracts/modules/SponsorMatrix.sol\":7112:7118  n == 0 */\n      swap1\n      dup2\n      iszero\n        /* \"contracts/modules/SponsorMatrix.sol\":7112:7139  n == 0 || _totalAmount == 0 */\n      dup1\n      iszero\n      tag_537\n      jumpi\n        /* \"contracts/modules/SponsorMatrix.sol\":6994:7318  function _accrueCommunityBonus(uint _totalAmount) internal {... */\n    tag_538:\n        /* \"contracts/modules/SponsorMatrix.sol\":7108:7243  if (n == 0 || _totalAmount == 0) {... */\n      tag_539\n      jumpi\n        /* \"contracts/modules/Storage.sol\":1462:1466  1e18 */\n      0x0de0b6b3a7640000\n        /* \"contracts/modules/SponsorMatrix.sol\":124:20190  contract Nanakshahi is Storage{... */\n      dup2\n      mul\n      swap1\n      dup1\n      dup3\n      div\n        /* \"contracts/modules/Storage.sol\":1462:1466  1e18 */\n      0x0de0b6b3a7640000\n        /* \"contracts/modules/SponsorMatrix.sol\":124:20190  contract Nanakshahi is Storage{... */\n      eq\n      swap1\n      iszero\n      or\n      iszero\n      tag_171\n      jumpi\n        /* \"contracts/modules/SponsorMatrix.sol\":7253:7310  communityAccPerUser += (_totalAmount * ACC_PRECISION) / n */\n      tag_543\n        /* \"contracts/modules/SponsorMatrix.sol\":7276:7310  (_totalAmount * ACC_PRECISION) / n */\n      swap2\n      tag_544\n      swap2\n      tag_7\n      jump\t// in\n    tag_544:\n        /* \"contracts/modules/SponsorMatrix.sol\":7253:7310  communityAccPerUser += (_totalAmount * ACC_PRECISION) / n */\n      0x09\n        /* \"contracts/modules/SponsorMatrix.sol\":124:20190  contract Nanakshahi is Storage{... */\n      sload\n        /* \"contracts/modules/SponsorMatrix.sol\":7253:7310  communityAccPerUser += (_totalAmount * ACC_PRECISION) / n */\n      tag_15\n      jump\t// in\n    tag_543:\n      0x09\n        /* \"contracts/modules/SponsorMatrix.sol\":124:20190  contract Nanakshahi is Storage{... */\n      sstore\n        /* \"contracts/modules/SponsorMatrix.sol\":6994:7318  function _accrueCommunityBonus(uint _totalAmount) internal {... */\n      jump\t// out\n        /* \"contracts/modules/SponsorMatrix.sol\":7108:7243  if (n == 0 || _totalAmount == 0) {... */\n    tag_539:\n        /* \"contracts/modules/SponsorMatrix.sol\":7160:7176  _totalAmount > 0 */\n      dup1\n      swap2\n      pop\n        /* \"contracts/modules/SponsorMatrix.sol\":7156:7211  if (_totalAmount > 0) { _sendToCreator(_totalAmount); } */\n      tag_545\n      jumpi\n        /* \"contracts/modules/SponsorMatrix.sol\":7225:7232  return; */\n      pop\n      jump\t// out\n        /* \"contracts/modules/SponsorMatrix.sol\":7156:7211  if (_totalAmount > 0) { _sendToCreator(_totalAmount); } */\n    tag_545:\n        /* \"contracts/modules/SponsorMatrix.sol\":7195:7207  _totalAmount */\n      tag_508\n      swap1\n      tag_24\n      jump\t// in\n        /* \"contracts/modules/SponsorMatrix.sol\":7112:7139  n == 0 || _totalAmount == 0 */\n    tag_537:\n        /* \"contracts/modules/SponsorMatrix.sol\":7122:7139  _totalAmount == 0 */\n      pop\n      dup1\n      iszero\n        /* \"contracts/modules/SponsorMatrix.sol\":7112:7139  n == 0 || _totalAmount == 0 */\n      jump(tag_538)\n        /* \"contracts/modules/Storage.sol\":12070:12812  function _sendToCreator(uint _amount) internal {... */\n    tag_24:\n        /* \"contracts/modules/Storage.sol\":12132:12145  creatorWallet */\n      0x02\n        /* \"contracts/modules/SponsorMatrix.sol\":124:20190  contract Nanakshahi is Storage{... */\n      sload\n      sub(shl(0xa0, 0x01), 0x01)\n      and\n        /* \"contracts/modules/Storage.sol\":12132:12159  creatorWallet != address(0) */\n      dup1\n      iszero\n        /* \"contracts/modules/SponsorMatrix.sol\":124:20190  contract Nanakshahi is Storage{... */\n      tag_548\n      jumpi\n      sload(0x01)\n      mload(0x40)\n      shl(0xe0, 0xa9059cbb)\n        /* \"@openzeppelin/contracts/token/ERC20/utils/SafeERC20.sol\":1328:1371  abi.encodeCall(token.transfer, (to, value)) */\n      0x20\n      dup1\n      dup4\n      add\n      swap2\n      dup3\n      mstore\n      sub(shl(0xa0, 0x01), 0x01)\n        /* \"contracts/modules/SponsorMatrix.sol\":124:20190  contract Nanakshahi is Storage{... */\n      swap5\n      dup6\n      and\n        /* \"@openzeppelin/contracts/token/ERC20/utils/SafeERC20.sol\":1328:1371  abi.encodeCall(token.transfer, (to, value)) */\n      0x24\n      dup5\n      add\n        /* \"contracts/modules/SponsorMatrix.sol\":124:20190  contract Nanakshahi is Storage{... */\n      mstore\n      0x44\n      dup1\n      dup5\n      add\n      dup8\n      swap1\n      mstore\n        /* \"@openzeppelin/contracts/token/ERC20/utils/SafeERC20.sol\":1328:1371  abi.encodeCall(token.transfer, (to, value)) */\n      dup4\n      mstore\n        /* \"contracts/modules/SponsorMatrix.sol\":124:20190  contract Nanakshahi is Storage{... */\n      swap4\n      swap1\n      swap3\n      and\n      swap3\n        /* \"@openzeppelin/contracts/token/ERC20/utils/SafeERC20.sol\":1328:1371  abi.encodeCall(token.transfer, (to, value)) */\n      swap2\n      0x00\n      swap2\n      tag_550\n        /* \"contracts/modules/SponsorMatrix.sol\":124:20190  contract Nanakshahi is Storage{... */\n      0x64\n      dup3\n        /* \"@openzeppelin/contracts/token/ERC20/utils/SafeERC20.sol\":1328:1371  abi.encodeCall(token.transfer, (to, value)) */\n      tag_12\n      jump\t// in\n    tag_550:\n        /* \"@openzeppelin/contracts/token/ERC20/utils/SafeERC20.sol\":8507:8928  assembly (\"memory-safe\") {... */\n      mload\n      swap1\n      dup3\n      dup6\n      gas\n      call\n      iszero\n      tag_141\n      jumpi\n      mload(0x00)\n      returndatasize\n        /* \"@openzeppelin/contracts/token/ERC20/utils/SafeERC20.sol\":8942:8957  returnSize == 0 */\n      tag_554\n      jumpi\n        /* \"@openzeppelin/contracts/token/ERC20/utils/SafeERC20.sol\":8960:8986  address(token).code.length */\n      pop\n      dup1\n      extcodesize\n        /* \"@openzeppelin/contracts/token/ERC20/utils/SafeERC20.sol\":8960:8991  address(token).code.length == 0 */\n      iszero\n        /* \"@openzeppelin/contracts/token/ERC20/utils/SafeERC20.sol\":8942:9010  returnSize == 0 ? address(token).code.length == 0 : returnValue != 1 */\n    tag_556:\n        /* \"@openzeppelin/contracts/token/ERC20/utils/SafeERC20.sol\":8938:9084  if (returnSize == 0 ? address(token).code.length == 0 : returnValue != 1) {... */\n      tag_557\n      jumpi\n        /* \"contracts/modules/SponsorMatrix.sol\":124:20190  contract Nanakshahi is Storage{... */\n      pop\n      0x80\n      swap1\n        /* \"contracts/modules/Storage.sol\":12426:12438  defaultRefId */\n      0x05\n        /* \"contracts/modules/SponsorMatrix.sol\":124:20190  contract Nanakshahi is Storage{... */\n      sload\n      0x00\n      mstore\n        /* \"contracts/modules/Storage.sol\":12414:12425  userIncomes */\n      0x0e\n        /* \"@openzeppelin/contracts/token/ERC20/utils/SafeERC20.sol\":1328:1371  abi.encodeCall(token.transfer, (to, value)) */\n      0x20\n        /* \"contracts/modules/SponsorMatrix.sol\":124:20190  contract Nanakshahi is Storage{... */\n      mstore\n      keccak256(0x00, 0x40)\n        /* \"contracts/modules/Storage.sol\":12446:12482  creatorIncome.totalIncome += _amount */\n      tag_559\n        /* \"contracts/modules/SponsorMatrix.sol\":124:20190  contract Nanakshahi is Storage{... */\n      dup3\n      dup3\n      sload\n        /* \"contracts/modules/Storage.sol\":12446:12482  creatorIncome.totalIncome += _amount */\n      tag_15\n      jump\t// in\n    tag_559:\n        /* \"contracts/modules/SponsorMatrix.sol\":124:20190  contract Nanakshahi is Storage{... */\n      swap1\n      sstore\n        /* \"contracts/modules/Storage.sol\":12710:12808  IncomeDistribution(creatorWallet, creatorWallet, _amount, 0, IncomeType.Creator, block.timestamp ) */\n      0x0f67c60bc8519c61563ac616d368a6df646202c88d10744d736438bc4fbe2816\n        /* \"contracts/modules/SponsorMatrix.sol\":124:20190  contract Nanakshahi is Storage{... */\n      0x01\n      dup1\n      0xa0\n      shl\n      sub\n        /* \"contracts/modules/Storage.sol\":12132:12145  creatorWallet */\n      0x02\n        /* \"contracts/modules/SponsorMatrix.sol\":124:20190  contract Nanakshahi is Storage{... */\n      sload\n      and\n      swap3\n      dup4\n      swap3\n      mload(0x40)\n      swap1\n      dup2\n      mstore\n      0x00\n        /* \"@openzeppelin/contracts/token/ERC20/utils/SafeERC20.sol\":1328:1371  abi.encodeCall(token.transfer, (to, value)) */\n      0x20\n        /* \"contracts/modules/SponsorMatrix.sol\":124:20190  contract Nanakshahi is Storage{... */\n      dup3\n      add\n      mstore\n      0x00\n      0x40\n      dup3\n      add\n      mstore\n        /* \"contracts/modules/Storage.sol\":12791:12806  block.timestamp */\n      timestamp\n        /* \"contracts/modules/SponsorMatrix.sol\":124:20190  contract Nanakshahi is Storage{... */\n      0x60\n      dup3\n      add\n      mstore\n        /* \"contracts/modules/Storage.sol\":12710:12808  IncomeDistribution(creatorWallet, creatorWallet, _amount, 0, IncomeType.Creator, block.timestamp ) */\n      log3\n        /* \"contracts/modules/Storage.sol\":12070:12812  function _sendToCreator(uint _amount) internal {... */\n      jump\t// out\n        /* \"@openzeppelin/contracts/token/ERC20/utils/SafeERC20.sol\":8938:9084  if (returnSize == 0 ? address(token).code.length == 0 : returnValue != 1) {... */\n    tag_557:\n        /* \"@openzeppelin/contracts/token/ERC20/utils/SafeERC20.sol\":9033:9073  SafeERC20FailedOperation(address(token)) */\n      mstore(0x00, shl(0xe0, 0x5274afe7))\n      0x04\n        /* \"contracts/modules/SponsorMatrix.sol\":124:20190  contract Nanakshahi is Storage{... */\n      mstore\n        /* \"@openzeppelin/contracts/token/ERC20/utils/SafeERC20.sol\":1328:1371  abi.encodeCall(token.transfer, (to, value)) */\n      0x24\n      0x00\n        /* \"@openzeppelin/contracts/token/ERC20/utils/SafeERC20.sol\":9033:9073  SafeERC20FailedOperation(address(token)) */\n      revert\n        /* \"@openzeppelin/contracts/token/ERC20/utils/SafeERC20.sol\":8942:9010  returnSize == 0 ? address(token).code.length == 0 : returnValue != 1 */\n    tag_554:\n        /* \"contracts/modules/Storage.sol\":12278:12282  usdt */\n      0x01\n        /* \"@openzeppelin/contracts/token/ERC20/utils/SafeERC20.sol\":8994:9010  returnValue != 1 */\n      eq\n      iszero\n        /* \"@openzeppelin/contracts/token/ERC20/utils/SafeERC20.sol\":8942:9010  returnSize == 0 ? address(token).code.length == 0 : returnValue != 1 */\n      jump(tag_556)\n        /* \"contracts/modules/SponsorMatrix.sol\":124:20190  contract Nanakshahi is Storage{... */\n    tag_548:\n      mload(0x40)\n      shl(0xe5, 0x461bcd)\n      dup2\n      mstore\n      0x20\n      0x04\n      dup3\n      add\n      mstore\n      0x11\n      0x24\n      dup3\n      add\n      mstore\n      shl(0x7a, 0x199959481859191c9cc81b9bdd081cd95d)\n      0x44\n      dup3\n      add\n      mstore\n      0x64\n      swap1\n      revert\n        /* \"contracts/modules/SponsorMatrix.sol\":11042:12276  function _distributeSponsorIncome(uint _sponsorId, uint _fromId, uint _amount, uint _packageLevel) private {... */\n    tag_25:\n        /* \"contracts/modules/SponsorMatrix.sol\":11164:11179  _sponsorId == 0 */\n      dup1\n      iszero\n        /* \"contracts/modules/SponsorMatrix.sol\":11164:11209  _sponsorId == 0 || _sponsorId == defaultRefId */\n      dup1\n      iszero\n      tag_560\n      jumpi\n        /* \"contracts/modules/SponsorMatrix.sol\":11042:12276  function _distributeSponsorIncome(uint _sponsorId, uint _fromId, uint _amount, uint _packageLevel) private {... */\n    tag_561:\n        /* \"contracts/modules/SponsorMatrix.sol\":11160:11282  if (_sponsorId == 0 || _sponsorId == defaultRefId) {... */\n      tag_562\n      jumpi\n        /* \"contracts/modules/SponsorMatrix.sol\":124:20190  contract Nanakshahi is Storage{... */\n      dup1\n        /* \"contracts/modules/SponsorMatrix.sol\":11178:11179  0 */\n      0x00\n        /* \"contracts/modules/SponsorMatrix.sol\":124:20190  contract Nanakshahi is Storage{... */\n      mstore\n        /* \"contracts/modules/SponsorMatrix.sol\":11325:11330  users */\n      0x0d\n        /* \"contracts/modules/SponsorMatrix.sol\":124:20190  contract Nanakshahi is Storage{... */\n      0x20\n      mstore\n      0x40\n        /* \"contracts/modules/SponsorMatrix.sol\":11178:11179  0 */\n      0x00\n        /* \"contracts/modules/SponsorMatrix.sol\":124:20190  contract Nanakshahi is Storage{... */\n      keccak256\n      swap1\n      dup1\n        /* \"contracts/modules/SponsorMatrix.sol\":11178:11179  0 */\n      0x00\n        /* \"contracts/modules/SponsorMatrix.sol\":124:20190  contract Nanakshahi is Storage{... */\n      mstore\n        /* \"contracts/modules/SponsorMatrix.sol\":11696:11707  userIncomes */\n      0x0e\n        /* \"contracts/modules/SponsorMatrix.sol\":124:20190  contract Nanakshahi is Storage{... */\n      0x20\n      mstore\n        /* \"contracts/modules/SponsorMatrix.sol\":469:473  usdt */\n      0x01\n        /* \"contracts/modules/SponsorMatrix.sol\":124:20190  contract Nanakshahi is Storage{... */\n      0x40\n        /* \"contracts/modules/SponsorMatrix.sol\":11178:11179  0 */\n      0x00\n        /* \"contracts/modules/SponsorMatrix.sol\":124:20190  contract Nanakshahi is Storage{... */\n      keccak256\n        /* \"contracts/modules/SponsorMatrix.sol\":11730:11766  sponsorIncome.totalIncome += _amount */\n      tag_564\n        /* \"contracts/modules/SponsorMatrix.sol\":124:20190  contract Nanakshahi is Storage{... */\n      dup7\n      dup3\n      sload\n        /* \"contracts/modules/SponsorMatrix.sol\":11730:11766  sponsorIncome.totalIncome += _amount */\n      tag_15\n      jump\t// in\n    tag_564:\n        /* \"contracts/modules/SponsorMatrix.sol\":124:20190  contract Nanakshahi is Storage{... */\n      dup2\n      sstore\n        /* \"contracts/modules/SponsorMatrix.sol\":11777:11804  sponsorIncome.sponsorIncome */\n      add\n        /* \"contracts/modules/SponsorMatrix.sol\":11777:11815  sponsorIncome.sponsorIncome += _amount */\n      tag_565\n        /* \"contracts/modules/SponsorMatrix.sol\":124:20190  contract Nanakshahi is Storage{... */\n      dup6\n      dup3\n      sload\n        /* \"contracts/modules/SponsorMatrix.sol\":11777:11815  sponsorIncome.sponsorIncome += _amount */\n      tag_15\n      jump\t// in\n    tag_565:\n        /* \"contracts/modules/SponsorMatrix.sol\":124:20190  contract Nanakshahi is Storage{... */\n      swap1\n      sstore\n      sload(0x01)\n      dup3\n      sload\n      mload(0x40)\n      shl(0xe0, 0xa9059cbb)\n        /* \"contracts/modules/SponsorMatrix.sol\":11826:11865  usdt.transfer(sponsor.account, _amount) */\n      dup2\n      mstore\n      sub(shl(0xa0, 0x01), 0x01)\n        /* \"contracts/modules/SponsorMatrix.sol\":124:20190  contract Nanakshahi is Storage{... */\n      swap2\n      dup3\n      and\n        /* \"contracts/modules/SponsorMatrix.sol\":11826:11865  usdt.transfer(sponsor.account, _amount) */\n      0x04\n      dup3\n      add\n        /* \"contracts/modules/SponsorMatrix.sol\":124:20190  contract Nanakshahi is Storage{... */\n      mstore\n      0x24\n      dup2\n      add\n      dup8\n      swap1\n      mstore\n      swap2\n      0x20\n      swap2\n      dup4\n      swap2\n      0x44\n      swap2\n      dup4\n      swap2\n      0x00\n      swap2\n      and\n        /* \"contracts/modules/SponsorMatrix.sol\":11826:11865  usdt.transfer(sponsor.account, _amount) */\n      gas\n      call\n      dup1\n      iszero\n      tag_141\n      jumpi\n      tag_569\n      jumpi\n        /* \"contracts/modules/SponsorMatrix.sol\":11042:12276  function _distributeSponsorIncome(uint _sponsorId, uint _fromId, uint _amount, uint _packageLevel) private {... */\n    tag_570:\n        /* \"contracts/modules/SponsorMatrix.sol\":124:20190  contract Nanakshahi is Storage{... */\n      pop\n        /* \"contracts/modules/SponsorMatrix.sol\":11178:11179  0 */\n      0x00\n        /* \"contracts/modules/SponsorMatrix.sol\":124:20190  contract Nanakshahi is Storage{... */\n      mstore\n        /* \"contracts/modules/SponsorMatrix.sol\":11904:11917  incomeHistory */\n      0x0f\n        /* \"contracts/modules/SponsorMatrix.sol\":124:20190  contract Nanakshahi is Storage{... */\n      0x20\n      mstore\n        /* \"contracts/modules/SponsorMatrix.sol\":11904:12148  incomeHistory[_sponsorId].push(Income({... */\n      tag_571\n        /* \"contracts/modules/SponsorMatrix.sol\":124:20190  contract Nanakshahi is Storage{... */\n      0x40\n        /* \"contracts/modules/SponsorMatrix.sol\":11178:11179  0 */\n      0x00\n        /* \"contracts/modules/SponsorMatrix.sol\":124:20190  contract Nanakshahi is Storage{... */\n      keccak256\n      mload(0x40)\n      swap1\n      tag_572\n      dup3\n      tag_11\n      jump\t// in\n    tag_572:\n      dup5\n      dup3\n      mstore\n        /* \"contracts/modules/SponsorMatrix.sol\":11935:12147  Income({... */\n      dup6\n        /* \"contracts/modules/SponsorMatrix.sol\":124:20190  contract Nanakshahi is Storage{... */\n      0x20\n        /* \"contracts/modules/SponsorMatrix.sol\":11935:12147  Income({... */\n      dup4\n      add\n        /* \"contracts/modules/SponsorMatrix.sol\":124:20190  contract Nanakshahi is Storage{... */\n      mstore\n        /* \"contracts/modules/SponsorMatrix.sol\":469:473  usdt */\n      0x01\n        /* \"contracts/modules/SponsorMatrix.sol\":124:20190  contract Nanakshahi is Storage{... */\n      0x40\n        /* \"contracts/modules/SponsorMatrix.sol\":11935:12147  Income({... */\n      dup4\n      add\n        /* \"contracts/modules/SponsorMatrix.sol\":124:20190  contract Nanakshahi is Storage{... */\n      mstore\n        /* \"contracts/modules/SponsorMatrix.sol\":12074:12089  block.timestamp */\n      timestamp\n        /* \"contracts/modules/SponsorMatrix.sol\":11935:12147  Income({... */\n      0x60\n      dup4\n      add\n        /* \"contracts/modules/SponsorMatrix.sol\":124:20190  contract Nanakshahi is Storage{... */\n      mstore\n        /* \"contracts/modules/SponsorMatrix.sol\":469:473  usdt */\n      0x01\n        /* \"contracts/modules/SponsorMatrix.sol\":11935:12147  Income({... */\n      0x80\n      dup4\n      add\n        /* \"contracts/modules/SponsorMatrix.sol\":124:20190  contract Nanakshahi is Storage{... */\n      mstore\n        /* \"contracts/modules/SponsorMatrix.sol\":11904:12148  incomeHistory[_sponsorId].push(Income({... */\n      tag_18\n      jump\t// in\n    tag_571:\n        /* \"contracts/modules/SponsorMatrix.sol\":124:20190  contract Nanakshahi is Storage{... */\n      0x01\n      dup1\n      0xa0\n      shl\n      sub\n      swap1\n      sload\n      and\n      swap1\n        /* \"contracts/modules/SponsorMatrix.sol\":11178:11179  0 */\n      0x00\n        /* \"contracts/modules/SponsorMatrix.sol\":124:20190  contract Nanakshahi is Storage{... */\n      mstore\n        /* \"contracts/modules/SponsorMatrix.sol\":11325:11330  users */\n      0x0d\n        /* \"contracts/modules/SponsorMatrix.sol\":124:20190  contract Nanakshahi is Storage{... */\n      0x20\n      mstore\n      mload(0x00)\n      codecopy(0x00, data_51678340555b44277c2bba9423d75ebead61331b9cde789c13d0820d4f537e29, 0x20)\n      mload(0x00)\n      swap1\n      0x00\n      mstore\n        /* \"contracts/modules/SponsorMatrix.sol\":11935:12147  Income({... */\n      0x60\n        /* \"contracts/modules/SponsorMatrix.sol\":124:20190  contract Nanakshahi is Storage{... */\n      0x01\n      dup1\n      0xa0\n      shl\n      sub\n      0x40\n        /* \"contracts/modules/SponsorMatrix.sol\":11178:11179  0 */\n      0x00\n        /* \"contracts/modules/SponsorMatrix.sol\":124:20190  contract Nanakshahi is Storage{... */\n      keccak256\n      sload\n      and\n      swap4\n      mload(0x40)\n      swap1\n      dup2\n      mstore\n        /* \"contracts/modules/SponsorMatrix.sol\":469:473  usdt */\n      0x01\n        /* \"contracts/modules/SponsorMatrix.sol\":124:20190  contract Nanakshahi is Storage{... */\n      0x20\n      dup3\n      add\n      mstore\n        /* \"contracts/modules/SponsorMatrix.sol\":469:473  usdt */\n      0x01\n        /* \"contracts/modules/SponsorMatrix.sol\":124:20190  contract Nanakshahi is Storage{... */\n      0x40\n      dup3\n      add\n      mstore\n        /* \"contracts/modules/SponsorMatrix.sol\":12174:12259  IncomeDistributed(sponsor.account, users[_fromId].account, _amount, _packageLevel, 1) */\n      log3\n        /* \"contracts/modules/SponsorMatrix.sol\":11042:12276  function _distributeSponsorIncome(uint _sponsorId, uint _fromId, uint _amount, uint _packageLevel) private {... */\n      jump\t// out\n        /* \"contracts/modules/SponsorMatrix.sol\":11826:11865  usdt.transfer(sponsor.account, _amount) */\n    tag_569:\n      tag_573\n      swap1\n        /* \"contracts/modules/SponsorMatrix.sol\":124:20190  contract Nanakshahi is Storage{... */\n      0x20\n        /* \"contracts/modules/SponsorMatrix.sol\":11826:11865  usdt.transfer(sponsor.account, _amount) */\n      returndatasize\n        /* \"contracts/modules/SponsorMatrix.sol\":124:20190  contract Nanakshahi is Storage{... */\n      0x20\n        /* \"contracts/modules/SponsorMatrix.sol\":11826:11865  usdt.transfer(sponsor.account, _amount) */\n      gt\n      tag_206\n      jumpi\n      tag_208\n      dup2\n      dup4\n      tag_12\n      jump\t// in\n    tag_573:\n      jump(tag_570)\n        /* \"contracts/modules/SponsorMatrix.sol\":11160:11282  if (_sponsorId == 0 || _sponsorId == defaultRefId) {... */\n    tag_562:\n        /* \"contracts/modules/SponsorMatrix.sol\":11241:11248  _amount */\n      pop\n      pop\n      tag_508\n      swap1\n      tag_24\n      jump\t// in\n        /* \"contracts/modules/SponsorMatrix.sol\":11164:11209  _sponsorId == 0 || _sponsorId == defaultRefId */\n    tag_560:\n        /* \"contracts/modules/SponsorMatrix.sol\":124:20190  contract Nanakshahi is Storage{... */\n      pop\n        /* \"contracts/modules/SponsorMatrix.sol\":11197:11209  defaultRefId */\n      0x05\n        /* \"contracts/modules/SponsorMatrix.sol\":124:20190  contract Nanakshahi is Storage{... */\n      sload\n        /* \"contracts/modules/SponsorMatrix.sol\":11183:11209  _sponsorId == defaultRefId */\n      dup2\n      eq\n        /* \"contracts/modules/SponsorMatrix.sol\":11164:11209  _sponsorId == 0 || _sponsorId == defaultRefId */\n      jump(tag_561)\n        /* \"contracts/modules/SponsorMatrix.sol\":11042:12276  function _distributeSponsorIncome(uint _sponsorId, uint _fromId, uint _amount, uint _packageLevel) private {... */\n    tag_26:\n      swap1\n      swap2\n        /* \"contracts/modules/SponsorMatrix.sol\":11164:11179  _sponsorId == 0 */\n      dup2\n      iszero\n        /* \"contracts/modules/SponsorMatrix.sol\":11164:11209  _sponsorId == 0 || _sponsorId == defaultRefId */\n      dup1\n      iszero\n      tag_578\n      jumpi\n        /* \"contracts/modules/SponsorMatrix.sol\":11042:12276  function _distributeSponsorIncome(uint _sponsorId, uint _fromId, uint _amount, uint _packageLevel) private {... */\n    tag_579:\n        /* \"contracts/modules/SponsorMatrix.sol\":11160:11282  if (_sponsorId == 0 || _sponsorId == defaultRefId) {... */\n      tag_580\n      jumpi\n        /* \"contracts/modules/SponsorMatrix.sol\":124:20190  contract Nanakshahi is Storage{... */\n      swap1\n        /* \"contracts/modules/SponsorMatrix.sol\":11826:11865  usdt.transfer(sponsor.account, _amount) */\n      tag_582\n        /* \"contracts/modules/SponsorMatrix.sol\":124:20190  contract Nanakshahi is Storage{... */\n      swap2\n      dup2\n        /* \"contracts/modules/SponsorMatrix.sol\":11178:11179  0 */\n      0x00\n        /* \"contracts/modules/SponsorMatrix.sol\":124:20190  contract Nanakshahi is Storage{... */\n      mstore\n        /* \"contracts/modules/SponsorMatrix.sol\":11325:11330  users */\n      0x0d\n        /* \"contracts/modules/SponsorMatrix.sol\":124:20190  contract Nanakshahi is Storage{... */\n      0x20\n      mstore\n      0x40\n        /* \"contracts/modules/SponsorMatrix.sol\":11178:11179  0 */\n      0x00\n        /* \"contracts/modules/SponsorMatrix.sol\":124:20190  contract Nanakshahi is Storage{... */\n      keccak256\n      dup3\n        /* \"contracts/modules/SponsorMatrix.sol\":11178:11179  0 */\n      0x00\n        /* \"contracts/modules/SponsorMatrix.sol\":124:20190  contract Nanakshahi is Storage{... */\n      mstore\n        /* \"contracts/modules/SponsorMatrix.sol\":11696:11707  userIncomes */\n      0x0e\n        /* \"contracts/modules/SponsorMatrix.sol\":124:20190  contract Nanakshahi is Storage{... */\n      0x20\n      mstore\n        /* \"contracts/modules/SponsorMatrix.sol\":11777:11804  sponsorIncome.sponsorIncome */\n      0x01\n        /* \"contracts/modules/SponsorMatrix.sol\":124:20190  contract Nanakshahi is Storage{... */\n      0x40\n        /* \"contracts/modules/SponsorMatrix.sol\":11178:11179  0 */\n      0x00\n        /* \"contracts/modules/SponsorMatrix.sol\":124:20190  contract Nanakshahi is Storage{... */\n      keccak256\n        /* \"contracts/modules/SponsorMatrix.sol\":11730:11766  sponsorIncome.totalIncome += _amount */\n      tag_583\n        /* \"contracts/modules/SponsorMatrix.sol\":124:20190  contract Nanakshahi is Storage{... */\n      dup5\n      dup3\n      sload\n        /* \"contracts/modules/SponsorMatrix.sol\":11730:11766  sponsorIncome.totalIncome += _amount */\n      tag_15\n      jump\t// in\n    tag_583:\n        /* \"contracts/modules/SponsorMatrix.sol\":124:20190  contract Nanakshahi is Storage{... */\n      dup2\n      sstore\n        /* \"contracts/modules/SponsorMatrix.sol\":11777:11804  sponsorIncome.sponsorIncome */\n      add\n        /* \"contracts/modules/SponsorMatrix.sol\":11777:11815  sponsorIncome.sponsorIncome += _amount */\n      tag_584\n        /* \"contracts/modules/SponsorMatrix.sol\":124:20190  contract Nanakshahi is Storage{... */\n      dup4\n      dup3\n      sload\n        /* \"contracts/modules/SponsorMatrix.sol\":11777:11815  sponsorIncome.sponsorIncome += _amount */\n      tag_15\n      jump\t// in\n    tag_584:\n        /* \"contracts/modules/SponsorMatrix.sol\":124:20190  contract Nanakshahi is Storage{... */\n      swap1\n      sstore\n      sload(0x01)\n      dup2\n      sload\n      mload(0x40)\n      shl(0xe0, 0xa9059cbb)\n        /* \"contracts/modules/SponsorMatrix.sol\":11826:11865  usdt.transfer(sponsor.account, _amount) */\n      dup2\n      mstore\n      sub(shl(0xa0, 0x01), 0x01)\n        /* \"contracts/modules/SponsorMatrix.sol\":124:20190  contract Nanakshahi is Storage{... */\n      swap2\n      dup3\n      and\n        /* \"contracts/modules/SponsorMatrix.sol\":11826:11865  usdt.transfer(sponsor.account, _amount) */\n      0x04\n      dup3\n      add\n        /* \"contracts/modules/SponsorMatrix.sol\":124:20190  contract Nanakshahi is Storage{... */\n      mstore\n      0x24\n      dup2\n      add\n      dup6\n      swap1\n      mstore\n      swap6\n      0x20\n      swap3\n      dup8\n      swap3\n      and\n      swap1\n      dup3\n      swap1\n        /* \"contracts/modules/SponsorMatrix.sol\":11178:11179  0 */\n      0x00\n      swap1\n        /* \"contracts/modules/SponsorMatrix.sol\":124:20190  contract Nanakshahi is Storage{... */\n      dup3\n      swap1\n      0x44\n      dup3\n      add\n      swap1\n      jump\n        /* \"contracts/modules/SponsorMatrix.sol\":11826:11865  usdt.transfer(sponsor.account, _amount) */\n    tag_582:\n      sub\n      swap3\n      gas\n      call\n      swap3\n      dup4\n      iszero\n      tag_141\n      jumpi\n      mload(0x00)\n      codecopy(0x00, data_51678340555b44277c2bba9423d75ebead61331b9cde789c13d0820d4f537e29, 0x20)\n      mload(0x00)\n      swap1\n      0x00\n      mstore\n      swap5\n        /* \"contracts/modules/SponsorMatrix.sol\":11935:12147  Income({... */\n      0x60\n        /* \"contracts/modules/SponsorMatrix.sol\":11826:11865  usdt.transfer(sponsor.account, _amount) */\n      swap5\n      tag_587\n      jumpi\n        /* \"contracts/modules/SponsorMatrix.sol\":11042:12276  function _distributeSponsorIncome(uint _sponsorId, uint _fromId, uint _amount, uint _packageLevel) private {... */\n    tag_588:\n        /* \"contracts/modules/SponsorMatrix.sol\":124:20190  contract Nanakshahi is Storage{... */\n      pop\n        /* \"contracts/modules/SponsorMatrix.sol\":11178:11179  0 */\n      0x00\n        /* \"contracts/modules/SponsorMatrix.sol\":124:20190  contract Nanakshahi is Storage{... */\n      mstore\n        /* \"contracts/modules/SponsorMatrix.sol\":11904:11917  incomeHistory */\n      0x0f\n        /* \"contracts/modules/SponsorMatrix.sol\":124:20190  contract Nanakshahi is Storage{... */\n      0x20\n      mstore\n        /* \"contracts/modules/SponsorMatrix.sol\":11904:12148  incomeHistory[_sponsorId].push(Income({... */\n      tag_589\n        /* \"contracts/modules/SponsorMatrix.sol\":124:20190  contract Nanakshahi is Storage{... */\n      0x40\n        /* \"contracts/modules/SponsorMatrix.sol\":11178:11179  0 */\n      0x00\n        /* \"contracts/modules/SponsorMatrix.sol\":124:20190  contract Nanakshahi is Storage{... */\n      keccak256\n      mload(0x40)\n      swap1\n      tag_590\n      dup3\n      tag_11\n      jump\t// in\n    tag_590:\n      dup8\n      dup3\n      mstore\n        /* \"contracts/modules/SponsorMatrix.sol\":11935:12147  Income({... */\n      dup5\n        /* \"contracts/modules/SponsorMatrix.sol\":124:20190  contract Nanakshahi is Storage{... */\n      0x20\n        /* \"contracts/modules/SponsorMatrix.sol\":11935:12147  Income({... */\n      dup4\n      add\n        /* \"contracts/modules/SponsorMatrix.sol\":124:20190  contract Nanakshahi is Storage{... */\n      mstore\n        /* \"contracts/modules/SponsorMatrix.sol\":11935:12147  Income({... */\n      dup9\n        /* \"contracts/modules/SponsorMatrix.sol\":124:20190  contract Nanakshahi is Storage{... */\n      0x40\n        /* \"contracts/modules/SponsorMatrix.sol\":11935:12147  Income({... */\n      dup4\n      add\n        /* \"contracts/modules/SponsorMatrix.sol\":124:20190  contract Nanakshahi is Storage{... */\n      mstore\n        /* \"contracts/modules/SponsorMatrix.sol\":12074:12089  block.timestamp */\n      timestamp\n        /* \"contracts/modules/SponsorMatrix.sol\":11935:12147  Income({... */\n      dup7\n      dup4\n      add\n        /* \"contracts/modules/SponsorMatrix.sol\":124:20190  contract Nanakshahi is Storage{... */\n      mstore\n        /* \"contracts/modules/SponsorMatrix.sol\":11777:11804  sponsorIncome.sponsorIncome */\n      0x01\n        /* \"contracts/modules/SponsorMatrix.sol\":11935:12147  Income({... */\n      0x80\n      dup4\n      add\n        /* \"contracts/modules/SponsorMatrix.sol\":124:20190  contract Nanakshahi is Storage{... */\n      mstore\n        /* \"contracts/modules/SponsorMatrix.sol\":11904:12148  incomeHistory[_sponsorId].push(Income({... */\n      tag_18\n      jump\t// in\n    tag_589:\n        /* \"contracts/modules/SponsorMatrix.sol\":124:20190  contract Nanakshahi is Storage{... */\n      0x01\n      dup1\n      0xa0\n      shl\n      sub\n      swap1\n      sload\n      and\n      swap4\n        /* \"contracts/modules/SponsorMatrix.sol\":11178:11179  0 */\n      0x00\n        /* \"contracts/modules/SponsorMatrix.sol\":124:20190  contract Nanakshahi is Storage{... */\n      mstore\n        /* \"contracts/modules/SponsorMatrix.sol\":11325:11330  users */\n      0x0d\n        /* \"contracts/modules/SponsorMatrix.sol\":124:20190  contract Nanakshahi is Storage{... */\n      0x20\n      mstore\n      0x01\n      dup1\n      0xa0\n      shl\n      sub\n      0x40\n        /* \"contracts/modules/SponsorMatrix.sol\":11178:11179  0 */\n      0x00\n        /* \"contracts/modules/SponsorMatrix.sol\":124:20190  contract Nanakshahi is Storage{... */\n      keccak256\n      sload\n      and\n      swap5\n      mload(0x40)\n      swap2\n      dup3\n      mstore\n      0x20\n      dup3\n      add\n      mstore\n        /* \"contracts/modules/SponsorMatrix.sol\":11777:11804  sponsorIncome.sponsorIncome */\n      0x01\n        /* \"contracts/modules/SponsorMatrix.sol\":124:20190  contract Nanakshahi is Storage{... */\n      0x40\n      dup3\n      add\n      mstore\n        /* \"contracts/modules/SponsorMatrix.sol\":12174:12259  IncomeDistributed(sponsor.account, users[_fromId].account, _amount, _packageLevel, 1) */\n      log3\n        /* \"contracts/modules/SponsorMatrix.sol\":11042:12276  function _distributeSponsorIncome(uint _sponsorId, uint _fromId, uint _amount, uint _packageLevel) private {... */\n      jump\t// out\n        /* \"contracts/modules/SponsorMatrix.sol\":11826:11865  usdt.transfer(sponsor.account, _amount) */\n    tag_587:\n      tag_591\n      swap1\n        /* \"contracts/modules/SponsorMatrix.sol\":124:20190  contract Nanakshahi is Storage{... */\n      0x20\n        /* \"contracts/modules/SponsorMatrix.sol\":11826:11865  usdt.transfer(sponsor.account, _amount) */\n      returndatasize\n        /* \"contracts/modules/SponsorMatrix.sol\":124:20190  contract Nanakshahi is Storage{... */\n      0x20\n        /* \"contracts/modules/SponsorMatrix.sol\":11826:11865  usdt.transfer(sponsor.account, _amount) */\n      gt\n      tag_206\n      jumpi\n      tag_208\n      dup2\n      dup4\n      tag_12\n      jump\t// in\n    tag_591:\n      jump(tag_588)\n        /* \"contracts/modules/SponsorMatrix.sol\":11160:11282  if (_sponsorId == 0 || _sponsorId == defaultRefId) {... */\n    tag_580:\n        /* \"contracts/modules/SponsorMatrix.sol\":11241:11248  _amount */\n      swap2\n      pop\n      pop\n      tag_508\n      swap2\n      pop\n      tag_24\n      jump\t// in\n        /* \"contracts/modules/SponsorMatrix.sol\":11164:11209  _sponsorId == 0 || _sponsorId == defaultRefId */\n    tag_578:\n        /* \"contracts/modules/SponsorMatrix.sol\":124:20190  contract Nanakshahi is Storage{... */\n      pop\n        /* \"contracts/modules/SponsorMatrix.sol\":11197:11209  defaultRefId */\n      0x05\n        /* \"contracts/modules/SponsorMatrix.sol\":124:20190  contract Nanakshahi is Storage{... */\n      sload\n        /* \"contracts/modules/SponsorMatrix.sol\":11183:11209  _sponsorId == defaultRefId */\n      dup3\n      eq\n        /* \"contracts/modules/SponsorMatrix.sol\":11164:11209  _sponsorId == 0 || _sponsorId == defaultRefId */\n      jump(tag_579)\n        /* \"contracts/modules/Storage.sol\":629:631  15 */\n    tag_27:\n      not(0x00)\n      dup2\n      eq\n      tag_171\n      jumpi\n      0x01\n      add\n      swap1\n      jump\t// out\n        /* \"contracts/modules/SponsorMatrix.sol\":12290:14371  function _distributeMatrixIncome(uint _uplineId,uint _fromId,uint _amount, uint _packageLevel) private {... */\n    tag_28:\n      swap4\n      swap2\n      swap4\n      swap3\n      swap1\n      swap3\n        /* \"contracts/modules/SponsorMatrix.sol\":12589:12601  defaultRefId */\n      0x05\n        /* \"contracts/modules/SponsorMatrix.sol\":124:20190  contract Nanakshahi is Storage{... */\n      sload\n        /* \"contracts/modules/SponsorMatrix.sol\":12576:12601  _uplineId == defaultRefId */\n      dup2\n      eq\n        /* \"contracts/modules/SponsorMatrix.sol\":12576:12619  _uplineId == defaultRefId || _uplineId == 0 */\n      dup1\n      iszero\n      tag_598\n      jumpi\n        /* \"contracts/modules/SponsorMatrix.sol\":12290:14371  function _distributeMatrixIncome(uint _uplineId,uint _fromId,uint _amount, uint _packageLevel) private {... */\n    tag_599:\n        /* \"contracts/modules/SponsorMatrix.sol\":12573:12701  if(_uplineId == defaultRefId || _uplineId == 0)... */\n      tag_600\n      jumpi\n        /* \"contracts/modules/SponsorMatrix.sol\":12768:12769  1 */\n      0x01\n        /* \"contracts/modules/SponsorMatrix.sol\":12771:12788  i < _packageLevel */\n    tag_602:\n      dup3\n      dup2\n      lt\n      tag_603\n      jumpi\n        /* \"contracts/modules/SponsorMatrix.sol\":13057:13082  uint currentId = targetId */\n      pop\n        /* \"contracts/modules/SponsorMatrix.sol\":13093:13107  uint layer = 0 */\n      swap3\n      0x00\n        /* \"contracts/modules/SponsorMatrix.sol\":13118:14256  while (currentId != 0 && currentId != defaultRefId && layer < maxLayers) {... */\n      swap4\n    tag_605:\n        /* \"contracts/modules/SponsorMatrix.sol\":13125:13139  currentId != 0 */\n      dup1\n      iszero\n      iszero\n        /* \"contracts/modules/SponsorMatrix.sol\":13125:13168  currentId != 0 && currentId != defaultRefId */\n      dup1\n      tag_606\n      jumpi\n        /* \"contracts/modules/SponsorMatrix.sol\":13118:14256  while (currentId != 0 && currentId != defaultRefId && layer < maxLayers) {... */\n    tag_607:\n        /* \"contracts/modules/SponsorMatrix.sol\":13125:13189  currentId != 0 && currentId != defaultRefId && layer < maxLayers */\n      dup1\n      tag_608\n      jumpi\n        /* \"contracts/modules/SponsorMatrix.sol\":13118:14256  while (currentId != 0 && currentId != defaultRefId && layer < maxLayers) {... */\n    tag_609:\n        /* \"contracts/modules/SponsorMatrix.sol\":13125:13189  currentId != 0 && currentId != defaultRefId && layer < maxLayers */\n      iszero\n      tag_610\n      jumpi\n        /* \"contracts/modules/SponsorMatrix.sol\":124:20190  contract Nanakshahi is Storage{... */\n      dup1\n      0x00\n      mstore\n        /* \"contracts/modules/SponsorMatrix.sol\":12821:12826  users */\n      0x0d\n        /* \"contracts/modules/SponsorMatrix.sol\":124:20190  contract Nanakshahi is Storage{... */\n      0x20\n      mstore\n      keccak256(0x00, 0x40)\n        /* \"contracts/modules/SponsorMatrix.sol\":13338:13346  up.level */\n      swap1\n      dup4\n      0x06\n      dup4\n      add\n        /* \"contracts/modules/SponsorMatrix.sol\":124:20190  contract Nanakshahi is Storage{... */\n      sload\n        /* \"contracts/modules/SponsorMatrix.sol\":13338:13363  up.level >= _packageLevel */\n      lt\n      iszero\n        /* \"contracts/modules/SponsorMatrix.sol\":13334:14135  if (up.level >= _packageLevel) // up.directTeam >= 2 && ... */\n      tag_612\n      jumpi\n        /* \"contracts/modules/SponsorMatrix.sol\":14211:14222  up.uplineId */\n      pop\n        /* \"contracts/modules/SponsorMatrix.sol\":12589:12601  defaultRefId */\n      0x05\n        /* \"contracts/modules/SponsorMatrix.sol\":14237:14244  layer++ */\n      tag_614\n        /* \"contracts/modules/SponsorMatrix.sol\":14211:14222  up.uplineId */\n      swap2\n      add\n        /* \"contracts/modules/SponsorMatrix.sol\":124:20190  contract Nanakshahi is Storage{... */\n      sload\n        /* \"contracts/modules/SponsorMatrix.sol\":14237:14244  layer++ */\n      swap5\n      tag_27\n      jump\t// in\n    tag_614:\n        /* \"contracts/modules/SponsorMatrix.sol\":13118:14256  while (currentId != 0 && currentId != defaultRefId && layer < maxLayers) {... */\n      swap4\n      jump(tag_605)\n        /* \"contracts/modules/SponsorMatrix.sol\":13334:14135  if (up.level >= _packageLevel) // up.directTeam >= 2 && ... */\n    tag_612:\n        /* \"contracts/modules/SponsorMatrix.sol\":124:20190  contract Nanakshahi is Storage{... */\n      sload(0x01)\n      dup3\n      sload\n      mload(0x40)\n      shl(0xe0, 0xa9059cbb)\n        /* \"contracts/modules/SponsorMatrix.sol\":13484:13518  usdt.transfer(up.account, _amount) */\n      dup2\n      mstore\n      sub(shl(0xa0, 0x01), 0x01)\n        /* \"contracts/modules/SponsorMatrix.sol\":124:20190  contract Nanakshahi is Storage{... */\n      swap2\n      dup3\n      and\n        /* \"contracts/modules/SponsorMatrix.sol\":13484:13518  usdt.transfer(up.account, _amount) */\n      0x04\n      dup3\n      add\n        /* \"contracts/modules/SponsorMatrix.sol\":124:20190  contract Nanakshahi is Storage{... */\n      mstore\n      0x24\n      dup2\n      add\n      dup11\n      swap1\n      mstore\n      swap7\n      swap9\n      swap6\n      swap8\n      pop\n      swap4\n      swap6\n      swap5\n      swap2\n      swap4\n      swap2\n      swap3\n      swap2\n      0x20\n      swap2\n      dup7\n      swap2\n      0x44\n      swap2\n      dup4\n      swap2\n      0x00\n      swap2\n      and\n        /* \"contracts/modules/SponsorMatrix.sol\":13484:13518  usdt.transfer(up.account, _amount) */\n      gas\n      call\n      swap3\n      dup4\n      iszero\n      tag_141\n      jumpi\n      mload(0x00)\n      codecopy(0x00, data_51678340555b44277c2bba9423d75ebead61331b9cde789c13d0820d4f537e29, 0x20)\n      mload(0x00)\n      swap1\n      0x00\n      mstore\n      swap5\n        /* \"contracts/modules/SponsorMatrix.sol\":13728:13987  Income({... */\n      0x60\n        /* \"contracts/modules/SponsorMatrix.sol\":13484:13518  usdt.transfer(up.account, _amount) */\n      swap5\n      tag_618\n      jumpi\n        /* \"contracts/modules/SponsorMatrix.sol\":13334:14135  if (up.level >= _packageLevel) // up.directTeam >= 2 && ... */\n    tag_619:\n        /* \"contracts/modules/SponsorMatrix.sol\":124:20190  contract Nanakshahi is Storage{... */\n      pop\n      dup1\n      0x00\n      mstore\n        /* \"contracts/modules/SponsorMatrix.sol\":13564:13575  userIncomes */\n      0x0e\n        /* \"contracts/modules/SponsorMatrix.sol\":124:20190  contract Nanakshahi is Storage{... */\n      0x20\n      mstore\n        /* \"contracts/modules/SponsorMatrix.sol\":13650:13666  inc.matrixIncome */\n      0x02\n        /* \"contracts/modules/SponsorMatrix.sol\":124:20190  contract Nanakshahi is Storage{... */\n      keccak256(0x00, 0x40)\n        /* \"contracts/modules/SponsorMatrix.sol\":13605:13631  inc.totalIncome += _amount */\n      tag_620\n        /* \"contracts/modules/SponsorMatrix.sol\":124:20190  contract Nanakshahi is Storage{... */\n      dup6\n      dup3\n      sload\n        /* \"contracts/modules/SponsorMatrix.sol\":13605:13631  inc.totalIncome += _amount */\n      tag_15\n      jump\t// in\n    tag_620:\n        /* \"contracts/modules/SponsorMatrix.sol\":124:20190  contract Nanakshahi is Storage{... */\n      dup2\n      sstore\n        /* \"contracts/modules/SponsorMatrix.sol\":13650:13666  inc.matrixIncome */\n      add\n        /* \"contracts/modules/SponsorMatrix.sol\":13650:13677  inc.matrixIncome += _amount */\n      tag_621\n        /* \"contracts/modules/SponsorMatrix.sol\":124:20190  contract Nanakshahi is Storage{... */\n      dup5\n      dup3\n      sload\n        /* \"contracts/modules/SponsorMatrix.sol\":13650:13677  inc.matrixIncome += _amount */\n      tag_15\n      jump\t// in\n    tag_621:\n        /* \"contracts/modules/SponsorMatrix.sol\":124:20190  contract Nanakshahi is Storage{... */\n      swap1\n      sstore\n      0x00\n      mstore\n        /* \"contracts/modules/SponsorMatrix.sol\":13698:13711  incomeHistory */\n      0x0f\n        /* \"contracts/modules/SponsorMatrix.sol\":124:20190  contract Nanakshahi is Storage{... */\n      0x20\n      mstore\n        /* \"contracts/modules/SponsorMatrix.sol\":13698:13988  incomeHistory[currentId].push(Income({... */\n      tag_622\n        /* \"contracts/modules/SponsorMatrix.sol\":124:20190  contract Nanakshahi is Storage{... */\n      keccak256(0x00, 0x40)\n      mload(0x40)\n      swap1\n      tag_623\n      dup3\n      tag_11\n      jump\t// in\n    tag_623:\n      dup8\n      dup3\n      mstore\n        /* \"contracts/modules/SponsorMatrix.sol\":13728:13987  Income({... */\n      dup5\n        /* \"contracts/modules/SponsorMatrix.sol\":124:20190  contract Nanakshahi is Storage{... */\n      0x20\n        /* \"contracts/modules/SponsorMatrix.sol\":13728:13987  Income({... */\n      dup4\n      add\n        /* \"contracts/modules/SponsorMatrix.sol\":124:20190  contract Nanakshahi is Storage{... */\n      mstore\n        /* \"contracts/modules/SponsorMatrix.sol\":13728:13987  Income({... */\n      dup9\n        /* \"contracts/modules/SponsorMatrix.sol\":124:20190  contract Nanakshahi is Storage{... */\n      0x40\n        /* \"contracts/modules/SponsorMatrix.sol\":13728:13987  Income({... */\n      dup4\n      add\n        /* \"contracts/modules/SponsorMatrix.sol\":124:20190  contract Nanakshahi is Storage{... */\n      mstore\n        /* \"contracts/modules/SponsorMatrix.sol\":13899:13914  block.timestamp */\n      timestamp\n        /* \"contracts/modules/SponsorMatrix.sol\":13728:13987  Income({... */\n      dup7\n      dup4\n      add\n        /* \"contracts/modules/SponsorMatrix.sol\":124:20190  contract Nanakshahi is Storage{... */\n      mstore\n        /* \"contracts/modules/SponsorMatrix.sol\":13650:13666  inc.matrixIncome */\n      0x02\n        /* \"contracts/modules/SponsorMatrix.sol\":13728:13987  Income({... */\n      0x80\n      dup4\n      add\n        /* \"contracts/modules/SponsorMatrix.sol\":124:20190  contract Nanakshahi is Storage{... */\n      mstore\n        /* \"contracts/modules/SponsorMatrix.sol\":13698:13988  incomeHistory[currentId].push(Income({... */\n      tag_18\n      jump\t// in\n    tag_622:\n        /* \"contracts/modules/SponsorMatrix.sol\":124:20190  contract Nanakshahi is Storage{... */\n      0x01\n      dup1\n      0xa0\n      shl\n      sub\n      swap1\n      sload\n      and\n      swap4\n      0x00\n      mstore\n        /* \"contracts/modules/SponsorMatrix.sol\":12821:12826  users */\n      0x0d\n        /* \"contracts/modules/SponsorMatrix.sol\":124:20190  contract Nanakshahi is Storage{... */\n      0x20\n      mstore\n      0x01\n      dup1\n      0xa0\n      shl\n      sub\n      sload(keccak256(0x00, 0x40))\n      and\n      swap5\n      mload(0x40)\n      swap2\n      dup3\n      mstore\n      0x20\n        /* \"contracts/modules/Storage.sol\":629:631  15 */\n      dup3\n      add\n        /* \"contracts/modules/SponsorMatrix.sol\":124:20190  contract Nanakshahi is Storage{... */\n      mstore\n        /* \"contracts/modules/SponsorMatrix.sol\":13650:13666  inc.matrixIncome */\n      0x02\n        /* \"contracts/modules/SponsorMatrix.sol\":124:20190  contract Nanakshahi is Storage{... */\n      0x40\n        /* \"contracts/modules/Storage.sol\":629:631  15 */\n      dup3\n      add\n        /* \"contracts/modules/SponsorMatrix.sol\":124:20190  contract Nanakshahi is Storage{... */\n      mstore\n        /* \"contracts/modules/SponsorMatrix.sol\":14014:14094  IncomeDistributed(up.account, users[_fromId].account, _amount, _packageLevel, 2) */\n      log3\n        /* \"contracts/modules/SponsorMatrix.sol\":14113:14120  return; */\n      jump\t// out\n        /* \"contracts/modules/SponsorMatrix.sol\":13484:13518  usdt.transfer(up.account, _amount) */\n    tag_618:\n      tag_624\n      swap1\n        /* \"contracts/modules/SponsorMatrix.sol\":124:20190  contract Nanakshahi is Storage{... */\n      0x20\n        /* \"contracts/modules/SponsorMatrix.sol\":13484:13518  usdt.transfer(up.account, _amount) */\n      returndatasize\n      dup2\n      gt\n      tag_206\n      jumpi\n      tag_208\n      dup2\n      dup4\n      tag_12\n      jump\t// in\n    tag_624:\n      jump(tag_619)\n        /* \"contracts/modules/SponsorMatrix.sol\":13125:13189  currentId != 0 && currentId != defaultRefId && layer < maxLayers */\n    tag_610:\n      pop\n      pop\n      pop\n      swap2\n        /* \"contracts/modules/SponsorMatrix.sol\":14355:14362  _amount */\n      tag_508\n        /* \"contracts/modules/SponsorMatrix.sol\":13125:13189  currentId != 0 && currentId != defaultRefId && layer < maxLayers */\n      swap2\n      pop\n        /* \"contracts/modules/SponsorMatrix.sol\":14355:14362  _amount */\n      tag_24\n      jump\t// in\n        /* \"contracts/modules/SponsorMatrix.sol\":13125:13189  currentId != 0 && currentId != defaultRefId && layer < maxLayers */\n    tag_608:\n        /* \"contracts/modules/SponsorMatrix.sol\":13172:13189  layer < maxLayers */\n      pop\n        /* \"contracts/modules/Storage.sol\":1078:1080  15 */\n      0x0f\n        /* \"contracts/modules/SponsorMatrix.sol\":13172:13189  layer < maxLayers */\n      dup6\n      lt\n        /* \"contracts/modules/SponsorMatrix.sol\":13125:13189  currentId != 0 && currentId != defaultRefId && layer < maxLayers */\n      jump(tag_609)\n        /* \"contracts/modules/SponsorMatrix.sol\":13125:13168  currentId != 0 && currentId != defaultRefId */\n    tag_606:\n        /* \"contracts/modules/SponsorMatrix.sol\":124:20190  contract Nanakshahi is Storage{... */\n      pop\n        /* \"contracts/modules/SponsorMatrix.sol\":12589:12601  defaultRefId */\n      0x05\n        /* \"contracts/modules/SponsorMatrix.sol\":124:20190  contract Nanakshahi is Storage{... */\n      sload\n        /* \"contracts/modules/SponsorMatrix.sol\":13143:13168  currentId != defaultRefId */\n      dup2\n      eq\n      iszero\n        /* \"contracts/modules/SponsorMatrix.sol\":13125:13168  currentId != 0 && currentId != defaultRefId */\n      jump(tag_607)\n        /* \"contracts/modules/SponsorMatrix.sol\":12790:12793  ++i */\n    tag_603:\n        /* \"contracts/modules/SponsorMatrix.sol\":124:20190  contract Nanakshahi is Storage{... */\n      swap1\n      0x00\n      mstore\n        /* \"contracts/modules/SponsorMatrix.sol\":12821:12826  users */\n      0x0d\n        /* \"contracts/modules/SponsorMatrix.sol\":124:20190  contract Nanakshahi is Storage{... */\n      0x20\n      mstore\n        /* \"contracts/modules/SponsorMatrix.sol\":12589:12601  defaultRefId */\n      0x05\n        /* \"contracts/modules/SponsorMatrix.sol\":124:20190  contract Nanakshahi is Storage{... */\n      keccak256(0x00, 0x40)\n        /* \"contracts/modules/SponsorMatrix.sol\":12821:12845  users[targetId].uplineId */\n      add\n        /* \"contracts/modules/SponsorMatrix.sol\":124:20190  contract Nanakshahi is Storage{... */\n      sload\n        /* \"contracts/modules/SponsorMatrix.sol\":12864:12877  targetId == 0 */\n      swap1\n      dup2\n      iszero\n        /* \"contracts/modules/SponsorMatrix.sol\":12864:12905  targetId == 0 || targetId == defaultRefId */\n      dup1\n      iszero\n      tag_629\n      jumpi\n        /* \"contracts/modules/SponsorMatrix.sol\":12790:12793  ++i */\n    tag_630:\n        /* \"contracts/modules/SponsorMatrix.sol\":12860:13036  if (targetId == 0 || targetId == defaultRefId) {... */\n      tag_610\n      jumpi\n        /* \"contracts/modules/SponsorMatrix.sol\":12768:12769  1 */\n      0x01\n        /* \"contracts/modules/SponsorMatrix.sol\":124:20190  contract Nanakshahi is Storage{... */\n      add\n        /* \"contracts/modules/SponsorMatrix.sol\":12759:12769  uint i = 1 */\n      jump(tag_602)\n        /* \"contracts/modules/SponsorMatrix.sol\":12864:12905  targetId == 0 || targetId == defaultRefId */\n    tag_629:\n        /* \"contracts/modules/SponsorMatrix.sol\":124:20190  contract Nanakshahi is Storage{... */\n      pop\n        /* \"contracts/modules/SponsorMatrix.sol\":12589:12601  defaultRefId */\n      0x05\n        /* \"contracts/modules/SponsorMatrix.sol\":124:20190  contract Nanakshahi is Storage{... */\n      sload\n        /* \"contracts/modules/SponsorMatrix.sol\":12881:12905  targetId == defaultRefId */\n      dup3\n      eq\n        /* \"contracts/modules/SponsorMatrix.sol\":12864:12905  targetId == 0 || targetId == defaultRefId */\n      jump(tag_630)\n        /* \"contracts/modules/SponsorMatrix.sol\":12573:12701  if(_uplineId == defaultRefId || _uplineId == 0)... */\n    tag_600:\n        /* \"contracts/modules/SponsorMatrix.sol\":12660:12667  _amount */\n      pop\n      pop\n      swap2\n      tag_508\n      swap2\n      pop\n      tag_24\n      jump\t// in\n        /* \"contracts/modules/SponsorMatrix.sol\":12576:12619  _uplineId == defaultRefId || _uplineId == 0 */\n    tag_598:\n        /* \"contracts/modules/SponsorMatrix.sol\":12605:12619  _uplineId == 0 */\n      pop\n      dup1\n      iszero\n        /* \"contracts/modules/SponsorMatrix.sol\":12576:12619  _uplineId == defaultRefId || _uplineId == 0 */\n      jump(tag_599)\n        /* \"contracts/modules/SponsorMatrix.sol\":16478:18934  function _distributeLevelBoosterIncome(uint _startId, uint _fromId, uint _amount,uint _packageLevel,uint _maxLevel) private {... */\n    tag_29:\n      swap3\n      swap5\n      swap4\n      swap5\n      swap2\n      swap1\n      swap2\n        /* \"contracts/modules/SponsorMatrix.sol\":16617:16630  _startId == 0 */\n      dup4\n      iszero\n        /* \"contracts/modules/SponsorMatrix.sol\":16617:16658  _startId == 0 || _startId == defaultRefId */\n      dup1\n      iszero\n      tag_635\n      jumpi\n        /* \"contracts/modules/SponsorMatrix.sol\":16478:18934  function _distributeLevelBoosterIncome(uint _startId, uint _fromId, uint _amount,uint _packageLevel,uint _maxLevel) private {... */\n    tag_636:\n        /* \"contracts/modules/SponsorMatrix.sol\":16617:16676  _startId == 0 || _startId == defaultRefId || _maxLevel == 0 */\n      dup1\n      iszero\n      tag_637\n      jumpi\n        /* \"contracts/modules/SponsorMatrix.sol\":16478:18934  function _distributeLevelBoosterIncome(uint _startId, uint _fromId, uint _amount,uint _packageLevel,uint _maxLevel) private {... */\n    tag_638:\n        /* \"contracts/modules/SponsorMatrix.sol\":16613:16749  if (_startId == 0 || _startId == defaultRefId || _maxLevel == 0) {... */\n      tag_639\n      jumpi\n        /* \"contracts/modules/SponsorMatrix.sol\":16832:16851  _amount / _maxLevel */\n      swap5\n      swap2\n      tag_641\n      dup4\n      dup4\n      tag_7\n      jump\t// in\n    tag_641:\n        /* \"contracts/modules/SponsorMatrix.sol\":16890:16916  amountPerLevel * _maxLevel */\n      swap6\n        /* \"contracts/modules/SponsorMatrix.sol\":16879:16917  _amount - (amountPerLevel * _maxLevel) */\n      tag_642\n        /* \"contracts/modules/SponsorMatrix.sol\":16890:16916  amountPerLevel * _maxLevel */\n      tag_643\n      dup6\n      dup10\n      tag_17\n      jump\t// in\n    tag_643:\n        /* \"contracts/modules/SponsorMatrix.sol\":16879:16917  _amount - (amountPerLevel * _maxLevel) */\n      dup5\n      tag_6\n      jump\t// in\n    tag_642:\n        /* \"contracts/modules/SponsorMatrix.sol\":17000:17025  uint currentId = _startId */\n      swap5\n        /* \"contracts/modules/SponsorMatrix.sol\":16629:16630  0 */\n      0x00\n      swap5\n      dup6\n      swap4\n      dup5\n      swap3\n        /* \"contracts/modules/SponsorMatrix.sol\":17126:17127  1 */\n      0x01\n        /* \"contracts/modules/SponsorMatrix.sol\":17181:17187  i < 30 */\n    tag_644:\n        /* \"contracts/modules/SponsorMatrix.sol\":17185:17187  30 */\n      0x1e\n        /* \"contracts/modules/SponsorMatrix.sol\":17181:17187  i < 30 */\n      dup6\n      lt\n      tag_645\n      jumpi\n        /* \"contracts/modules/SponsorMatrix.sol\":17164:18539  for (uint i = 0; i < 30; i++) // _maxLevel... */\n    tag_646:\n        /* \"contracts/modules/SponsorMatrix.sol\":18656:18682  _amount - totalDistributed */\n      pop\n      pop\n      pop\n      pop\n      pop\n      pop\n      pop\n      tag_647\n      swap3\n      swap4\n      swap5\n      pop\n      tag_6\n      jump\t// in\n    tag_647:\n        /* \"contracts/modules/SponsorMatrix.sol\":18697:18719  remainingAfterLoop > 0 */\n      dup1\n        /* \"contracts/modules/SponsorMatrix.sol\":18693:18782  if (remainingAfterLoop > 0) {... */\n      tag_648\n      jumpi\n        /* \"contracts/modules/SponsorMatrix.sol\":17164:18539  for (uint i = 0; i < 30; i++) // _maxLevel... */\n    tag_649:\n        /* \"contracts/modules/SponsorMatrix.sol\":18851:18864  remainder > 0 */\n      pop\n      dup1\n        /* \"contracts/modules/SponsorMatrix.sol\":18847:18918  if (remainder > 0) {... */\n      tag_545\n      jumpi\n        /* \"contracts/modules/SponsorMatrix.sol\":16478:18934  function _distributeLevelBoosterIncome(uint _startId, uint _fromId, uint _amount,uint _packageLevel,uint _maxLevel) private {... */\n      pop\n      jump\t// out\n        /* \"contracts/modules/SponsorMatrix.sol\":18693:18782  if (remainingAfterLoop > 0) {... */\n    tag_648:\n        /* \"contracts/modules/SponsorMatrix.sol\":18751:18769  remainingAfterLoop */\n      tag_653\n      swap1\n      tag_24\n      jump\t// in\n    tag_653:\n        /* \"contracts/modules/SponsorMatrix.sol\":18693:18782  if (remainingAfterLoop > 0) {... */\n      0x00\n      jump(tag_649)\n        /* \"contracts/modules/SponsorMatrix.sol\":17189:17192  i++ */\n    tag_645:\n        /* \"contracts/modules/SponsorMatrix.sol\":17278:17292  currentId == 0 */\n      dup2\n      swap3\n      swap4\n      swap5\n      swap6\n      swap7\n      swap9\n      swap2\n      iszero\n        /* \"contracts/modules/SponsorMatrix.sol\":17278:17321  currentId == 0 || currentId == defaultRefId */\n      dup1\n      iszero\n      tag_654\n      jumpi\n        /* \"contracts/modules/SponsorMatrix.sol\":17189:17192  i++ */\n    tag_655:\n        /* \"contracts/modules/SponsorMatrix.sol\":17274:17550  if (currentId == 0 || currentId == defaultRefId) {... */\n      tag_656\n      jumpi\n        /* \"contracts/modules/SponsorMatrix.sol\":124:20190  contract Nanakshahi is Storage{... */\n      dup3\n        /* \"contracts/modules/SponsorMatrix.sol\":16629:16630  0 */\n      0x00\n        /* \"contracts/modules/SponsorMatrix.sol\":124:20190  contract Nanakshahi is Storage{... */\n      mstore\n        /* \"contracts/modules/SponsorMatrix.sol\":17584:17589  users */\n      0x0d\n        /* \"contracts/modules/SponsorMatrix.sol\":124:20190  contract Nanakshahi is Storage{... */\n      0x20\n      mstore\n      0x40\n        /* \"contracts/modules/SponsorMatrix.sol\":16629:16630  0 */\n      0x00\n        /* \"contracts/modules/SponsorMatrix.sol\":124:20190  contract Nanakshahi is Storage{... */\n      keccak256\n        /* \"contracts/modules/SponsorMatrix.sol\":17621:17629  up.level */\n      swap3\n      dup13\n      dup9\n      0x06\n      dup7\n      add\n        /* \"contracts/modules/SponsorMatrix.sol\":124:20190  contract Nanakshahi is Storage{... */\n      sload\n        /* \"contracts/modules/SponsorMatrix.sol\":17621:17646  up.level >= _packageLevel */\n      lt\n      iszero\n        /* \"contracts/modules/SponsorMatrix.sol\":17617:18247  if (up.level >= _packageLevel) {... */\n      0x00\n        /* \"contracts/modules/SponsorMatrix.sol\":17621:17646  up.level >= _packageLevel */\n      eq\n      tag_658\n      jumpi\n        /* \"contracts/modules/SponsorMatrix.sol\":17755:17789  amountPerLevel * accumulatedShares */\n      dup3\n      tag_660\n      swap2\n      tag_17\n      jump\t// in\n    tag_660:\n        /* \"contracts/modules/SponsorMatrix.sol\":16629:16630  0 */\n      0x00\n        /* \"contracts/modules/SponsorMatrix.sol\":124:20190  contract Nanakshahi is Storage{... */\n      dup3\n      dup2\n      mstore\n        /* \"contracts/modules/SponsorMatrix.sol\":17584:17589  users */\n      0x0d\n        /* \"contracts/modules/SponsorMatrix.sol\":124:20190  contract Nanakshahi is Storage{... */\n      0x20\n      swap1\n      dup2\n      mstore\n      0x40\n      dup1\n      dup4\n      keccak256\n      sload\n      sload(0x01)\n      swap2\n      mload\n      shl(0xe0, 0xa9059cbb)\n        /* \"contracts/modules/SponsorMatrix.sol\":19152:19177  usdt.transfer(to, amount) */\n      dup2\n      mstore\n      sub(shl(0xa0, 0x01), 0x01)\n        /* \"contracts/modules/SponsorMatrix.sol\":124:20190  contract Nanakshahi is Storage{... */\n      swap2\n      dup3\n      and\n        /* \"contracts/modules/SponsorMatrix.sol\":19152:19177  usdt.transfer(to, amount) */\n      0x04\n      dup3\n      add\n        /* \"contracts/modules/SponsorMatrix.sol\":124:20190  contract Nanakshahi is Storage{... */\n      dup2\n      swap1\n      mstore\n      0x24\n      dup3\n      add\n      dup8\n      swap1\n      mstore\n      swap1\n      swap9\n      swap5\n      swap1\n      swap4\n      swap3\n      dup10\n      swap3\n      0x44\n      swap3\n      dup5\n      swap3\n        /* \"contracts/modules/SponsorMatrix.sol\":16629:16630  0 */\n      swap1\n      swap2\n        /* \"contracts/modules/SponsorMatrix.sol\":124:20190  contract Nanakshahi is Storage{... */\n      and\n        /* \"contracts/modules/SponsorMatrix.sol\":19152:19177  usdt.transfer(to, amount) */\n      gas\n      call\n      swap4\n      dup5\n      iszero\n      tag_141\n      jumpi\n        /* \"contracts/modules/SponsorMatrix.sol\":17935:17965  PaidCount += accumulatedShares */\n      tag_664\n        /* \"contracts/modules/SponsorMatrix.sol\":19152:19177  usdt.transfer(to, amount) */\n      swap7\n        /* \"contracts/modules/SponsorMatrix.sol\":17890:17916  totalDistributed += payout */\n      tag_665\n        /* \"contracts/modules/SponsorMatrix.sol\":19152:19177  usdt.transfer(to, amount) */\n      swap6\n      tag_666\n      jumpi\n        /* \"contracts/modules/SponsorMatrix.sol\":17617:18247  if (up.level >= _packageLevel) {... */\n    tag_667:\n        /* \"contracts/modules/SponsorMatrix.sol\":124:20190  contract Nanakshahi is Storage{... */\n      pop\n      dup1\n        /* \"contracts/modules/SponsorMatrix.sol\":16629:16630  0 */\n      0x00\n        /* \"contracts/modules/SponsorMatrix.sol\":124:20190  contract Nanakshahi is Storage{... */\n      mstore\n        /* \"contracts/modules/SponsorMatrix.sol\":19215:19226  userIncomes */\n      0x0e\n        /* \"contracts/modules/SponsorMatrix.sol\":124:20190  contract Nanakshahi is Storage{... */\n      0x20\n      mstore\n        /* \"contracts/modules/SponsorMatrix.sol\":19285:19307  inc.levelBoosterIncome */\n      0x03\n        /* \"contracts/modules/SponsorMatrix.sol\":124:20190  contract Nanakshahi is Storage{... */\n      0x40\n        /* \"contracts/modules/SponsorMatrix.sol\":16629:16630  0 */\n      0x00\n        /* \"contracts/modules/SponsorMatrix.sol\":124:20190  contract Nanakshahi is Storage{... */\n      keccak256\n        /* \"contracts/modules/SponsorMatrix.sol\":19249:19274  inc.totalIncome += amount */\n      tag_668\n        /* \"contracts/modules/SponsorMatrix.sol\":124:20190  contract Nanakshahi is Storage{... */\n      dup7\n      dup3\n      sload\n        /* \"contracts/modules/SponsorMatrix.sol\":19249:19274  inc.totalIncome += amount */\n      tag_15\n      jump\t// in\n    tag_668:\n        /* \"contracts/modules/SponsorMatrix.sol\":124:20190  contract Nanakshahi is Storage{... */\n      dup2\n      sstore\n        /* \"contracts/modules/SponsorMatrix.sol\":19285:19307  inc.levelBoosterIncome */\n      add\n        /* \"contracts/modules/SponsorMatrix.sol\":19285:19317  inc.levelBoosterIncome += amount */\n      tag_669\n        /* \"contracts/modules/SponsorMatrix.sol\":124:20190  contract Nanakshahi is Storage{... */\n      dup6\n      dup3\n      sload\n        /* \"contracts/modules/SponsorMatrix.sol\":19285:19317  inc.levelBoosterIncome += amount */\n      tag_15\n      jump\t// in\n    tag_669:\n        /* \"contracts/modules/SponsorMatrix.sol\":124:20190  contract Nanakshahi is Storage{... */\n      swap1\n      sstore\n        /* \"contracts/modules/SponsorMatrix.sol\":16629:16630  0 */\n      0x00\n        /* \"contracts/modules/SponsorMatrix.sol\":124:20190  contract Nanakshahi is Storage{... */\n      mstore\n        /* \"contracts/modules/SponsorMatrix.sol\":19330:19343  incomeHistory */\n      0x0f\n        /* \"contracts/modules/SponsorMatrix.sol\":124:20190  contract Nanakshahi is Storage{... */\n      0x20\n      mstore\n        /* \"contracts/modules/SponsorMatrix.sol\":19330:19577  incomeHistory[receiverId].push(Income({... */\n      tag_670\n        /* \"contracts/modules/SponsorMatrix.sol\":124:20190  contract Nanakshahi is Storage{... */\n      0x40\n        /* \"contracts/modules/SponsorMatrix.sol\":16629:16630  0 */\n      0x00\n        /* \"contracts/modules/SponsorMatrix.sol\":124:20190  contract Nanakshahi is Storage{... */\n      keccak256\n      mload(0x40)\n      swap1\n      tag_671\n      dup3\n      tag_11\n      jump\t// in\n    tag_671:\n      dup11\n      dup3\n      mstore\n        /* \"contracts/modules/SponsorMatrix.sol\":19361:19576  Income({... */\n      dup6\n        /* \"contracts/modules/SponsorMatrix.sol\":124:20190  contract Nanakshahi is Storage{... */\n      0x20\n        /* \"contracts/modules/SponsorMatrix.sol\":19361:19576  Income({... */\n      dup4\n      add\n        /* \"contracts/modules/SponsorMatrix.sol\":124:20190  contract Nanakshahi is Storage{... */\n      mstore\n        /* \"contracts/modules/SponsorMatrix.sol\":19361:19576  Income({... */\n      dup14\n        /* \"contracts/modules/SponsorMatrix.sol\":124:20190  contract Nanakshahi is Storage{... */\n      0x40\n        /* \"contracts/modules/SponsorMatrix.sol\":19361:19576  Income({... */\n      dup4\n      add\n        /* \"contracts/modules/SponsorMatrix.sol\":124:20190  contract Nanakshahi is Storage{... */\n      mstore\n        /* \"contracts/modules/SponsorMatrix.sol\":19497:19512  block.timestamp */\n      timestamp\n        /* \"contracts/modules/SponsorMatrix.sol\":19361:19576  Income({... */\n      0x60\n      dup4\n      add\n        /* \"contracts/modules/SponsorMatrix.sol\":124:20190  contract Nanakshahi is Storage{... */\n      mstore\n        /* \"contracts/modules/SponsorMatrix.sol\":19152:19177  usdt.transfer(to, amount) */\n      0x04\n        /* \"contracts/modules/SponsorMatrix.sol\":19361:19576  Income({... */\n      0x80\n      dup4\n      add\n        /* \"contracts/modules/SponsorMatrix.sol\":124:20190  contract Nanakshahi is Storage{... */\n      mstore\n        /* \"contracts/modules/SponsorMatrix.sol\":19330:19577  incomeHistory[receiverId].push(Income({... */\n      tag_18\n      jump\t// in\n    tag_670:\n        /* \"contracts/modules/SponsorMatrix.sol\":124:20190  contract Nanakshahi is Storage{... */\n      dup8\n        /* \"contracts/modules/SponsorMatrix.sol\":16629:16630  0 */\n      0x00\n        /* \"contracts/modules/SponsorMatrix.sol\":124:20190  contract Nanakshahi is Storage{... */\n      mstore\n        /* \"contracts/modules/SponsorMatrix.sol\":17584:17589  users */\n      0x0d\n        /* \"contracts/modules/SponsorMatrix.sol\":124:20190  contract Nanakshahi is Storage{... */\n      0x20\n      mstore\n      0x01\n      dup1\n      0xa0\n      shl\n      sub\n      0x40\n        /* \"contracts/modules/SponsorMatrix.sol\":16629:16630  0 */\n      0x00\n        /* \"contracts/modules/SponsorMatrix.sol\":124:20190  contract Nanakshahi is Storage{... */\n      keccak256\n      sload\n      and\n      swap1\n      mload(0x00)\n      codecopy(0x00, data_51678340555b44277c2bba9423d75ebead61331b9cde789c13d0820d4f537e29, 0x20)\n      mload(0x00)\n      swap1\n      0x00\n      mstore\n        /* \"contracts/modules/SponsorMatrix.sol\":19361:19576  Income({... */\n      0x60\n        /* \"contracts/modules/SponsorMatrix.sol\":124:20190  contract Nanakshahi is Storage{... */\n      dup14\n      mload(0x40)\n      swap1\n      dup8\n      dup3\n      mstore\n      0x20\n      dup3\n      add\n      mstore\n        /* \"contracts/modules/SponsorMatrix.sol\":19152:19177  usdt.transfer(to, amount) */\n      0x04\n        /* \"contracts/modules/SponsorMatrix.sol\":124:20190  contract Nanakshahi is Storage{... */\n      0x40\n      dup3\n      add\n      mstore\n        /* \"contracts/modules/SponsorMatrix.sol\":19595:19664  IncomeDistributed(to, users[fromId].account, amount, packageLevel, 4) */\n      log3\n        /* \"contracts/modules/SponsorMatrix.sol\":17890:17916  totalDistributed += payout */\n      tag_15\n      jump\t// in\n    tag_665:\n        /* \"contracts/modules/SponsorMatrix.sol\":17935:17965  PaidCount += accumulatedShares */\n      swap9\n      tag_15\n      jump\t// in\n    tag_664:\n        /* \"contracts/modules/SponsorMatrix.sol\":17984:18005  accumulatedShares = 1 */\n      swap4\n        /* \"contracts/modules/SponsorMatrix.sol\":17126:17127  1 */\n      0x01\n        /* \"contracts/modules/SponsorMatrix.sol\":17617:18247  if (up.level >= _packageLevel) {... */\n      swap2\n    tag_672:\n        /* \"contracts/modules/SponsorMatrix.sol\":18327:18349  PaidCount >= _maxLevel */\n      dup5\n      dup7\n      lt\n      iszero\n        /* \"contracts/modules/SponsorMatrix.sol\":18323:18356  if (PaidCount >= _maxLevel) break */\n      tag_673\n      jumpi\n        /* \"contracts/modules/SponsorMatrix.sol\":18516:18527  up.uplineId */\n      0x05\n        /* \"contracts/modules/SponsorMatrix.sol\":17126:17127  1 */\n      0x01\n        /* \"contracts/modules/SponsorMatrix.sol\":18516:18527  up.uplineId */\n      swap2\n      add\n        /* \"contracts/modules/SponsorMatrix.sol\":124:20190  contract Nanakshahi is Storage{... */\n      sload\n        /* \"contracts/modules/SponsorMatrix.sol\":17189:17192  i++ */\n      swap2\n        /* \"contracts/modules/SponsorMatrix.sol\":124:20190  contract Nanakshahi is Storage{... */\n      add\n        /* \"contracts/modules/SponsorMatrix.sol\":17169:17179  uint i = 0 */\n      swap4\n      swap3\n      swap2\n      swap6\n      swap5\n      swap6\n      jump(tag_644)\n        /* \"contracts/modules/SponsorMatrix.sol\":18323:18356  if (PaidCount >= _maxLevel) break */\n    tag_673:\n        /* \"contracts/modules/SponsorMatrix.sol\":18351:18356  break */\n      jump(tag_646)\n        /* \"contracts/modules/SponsorMatrix.sol\":19152:19177  usdt.transfer(to, amount) */\n    tag_666:\n      tag_675\n      swap1\n        /* \"contracts/modules/SponsorMatrix.sol\":124:20190  contract Nanakshahi is Storage{... */\n      0x20\n        /* \"contracts/modules/SponsorMatrix.sol\":19152:19177  usdt.transfer(to, amount) */\n      returndatasize\n      dup2\n      gt\n      tag_206\n      jumpi\n      tag_208\n      dup2\n      dup4\n      tag_12\n      jump\t// in\n    tag_675:\n      jump(tag_667)\n        /* \"contracts/modules/SponsorMatrix.sol\":17617:18247  if (up.level >= _packageLevel) {... */\n    tag_658:\n        /* \"contracts/modules/SponsorMatrix.sol\":18124:18151  accumulatedShares<_maxLevel */\n      pop\n      pop\n      swap2\n      dup5\n      dup4\n      swap10\n      swap7\n      swap3\n      swap10\n      lt\n        /* \"contracts/modules/SponsorMatrix.sol\":18121:18215  if(accumulatedShares<_maxLevel){... */\n      iszero\n        /* \"contracts/modules/SponsorMatrix.sol\":17617:18247  if (up.level >= _packageLevel) {... */\n      tag_672\n        /* \"contracts/modules/SponsorMatrix.sol\":18121:18215  if(accumulatedShares<_maxLevel){... */\n      jumpi\n        /* \"contracts/modules/SponsorMatrix.sol\":18176:18195  accumulatedShares++ */\n      swap2\n      tag_681\n      swap1\n      tag_27\n      jump\t// in\n    tag_681:\n        /* \"contracts/modules/SponsorMatrix.sol\":18121:18215  if(accumulatedShares<_maxLevel){... */\n      swap2\n        /* \"contracts/modules/SponsorMatrix.sol\":17617:18247  if (up.level >= _packageLevel) {... */\n      jump(tag_672)\n        /* \"contracts/modules/SponsorMatrix.sol\":17274:17550  if (currentId == 0 || currentId == defaultRefId) {... */\n    tag_656:\n        /* \"contracts/modules/SponsorMatrix.sol\":17420:17446  _amount - totalDistributed */\n      pop\n      swap8\n      pop\n      pop\n      pop\n      pop\n      pop\n      pop\n      swap1\n      pop\n      tag_682\n      swap3\n      swap4\n      pop\n      tag_6\n      jump\t// in\n    tag_682:\n        /* \"contracts/modules/SponsorMatrix.sol\":17469:17482  remaining > 0 */\n      dup1\n        /* \"contracts/modules/SponsorMatrix.sol\":17465:17509  if (remaining > 0) _sendToCreator(remaining) */\n      tag_545\n      jumpi\n        /* \"contracts/modules/SponsorMatrix.sol\":17528:17535  return; */\n      pop\n      jump\t// out\n        /* \"contracts/modules/SponsorMatrix.sol\":17278:17321  currentId == 0 || currentId == defaultRefId */\n    tag_654:\n        /* \"contracts/modules/SponsorMatrix.sol\":124:20190  contract Nanakshahi is Storage{... */\n      pop\n        /* \"contracts/modules/SponsorMatrix.sol\":18516:18527  up.uplineId */\n      0x05\n        /* \"contracts/modules/SponsorMatrix.sol\":124:20190  contract Nanakshahi is Storage{... */\n      sload\n        /* \"contracts/modules/SponsorMatrix.sol\":17296:17321  currentId == defaultRefId */\n      dup4\n      eq\n        /* \"contracts/modules/SponsorMatrix.sol\":17278:17321  currentId == 0 || currentId == defaultRefId */\n      jump(tag_655)\n        /* \"contracts/modules/SponsorMatrix.sol\":16613:16749  if (_startId == 0 || _startId == defaultRefId || _maxLevel == 0) {... */\n    tag_639:\n        /* \"contracts/modules/SponsorMatrix.sol\":16708:16715  _amount */\n      pop\n      swap2\n      pop\n      pop\n      tag_508\n      swap2\n      swap3\n      pop\n      tag_24\n      jump\t// in\n        /* \"contracts/modules/SponsorMatrix.sol\":16617:16676  _startId == 0 || _startId == defaultRefId || _maxLevel == 0 */\n    tag_637:\n        /* \"contracts/modules/SponsorMatrix.sol\":16662:16676  _maxLevel == 0 */\n      pop\n      dup6\n      iszero\n        /* \"contracts/modules/SponsorMatrix.sol\":16617:16676  _startId == 0 || _startId == defaultRefId || _maxLevel == 0 */\n      jump(tag_638)\n        /* \"contracts/modules/SponsorMatrix.sol\":16617:16658  _startId == 0 || _startId == defaultRefId */\n    tag_635:\n        /* \"contracts/modules/SponsorMatrix.sol\":124:20190  contract Nanakshahi is Storage{... */\n      pop\n        /* \"contracts/modules/SponsorMatrix.sol\":16646:16658  defaultRefId */\n      0x05\n        /* \"contracts/modules/SponsorMatrix.sol\":124:20190  contract Nanakshahi is Storage{... */\n      sload\n        /* \"contracts/modules/SponsorMatrix.sol\":16634:16658  _startId == defaultRefId */\n      dup5\n      eq\n        /* \"contracts/modules/SponsorMatrix.sol\":16617:16658  _startId == 0 || _startId == defaultRefId */\n      jump(tag_636)\n        /* \"contracts/modules/Storage.sol\":16745:16970  function _tryMonthlyRoyaltyQualify(uint _userId, uint _roundId)internal {... */\n    tag_30:\n      swap1\n        /* \"contracts/modules/SponsorMatrix.sol\":124:20190  contract Nanakshahi is Storage{... */\n      dup2\n      0x00\n      mstore\n        /* \"contracts/modules/Storage.sol\":16837:16858  monthlyRoyaltyUserdtl */\n      0x42\n        /* \"contracts/modules/SponsorMatrix.sol\":124:20190  contract Nanakshahi is Storage{... */\n      0x20\n      mstore\n      0xff\n        /* \"contracts/modules/Storage.sol\":16837:16879  monthlyRoyaltyUserdtl[_userId].isQualified */\n      0x04\n        /* \"contracts/modules/SponsorMatrix.sol\":124:20190  contract Nanakshahi is Storage{... */\n      keccak256(0x00, 0x40)\n        /* \"contracts/modules/Storage.sol\":16837:16879  monthlyRoyaltyUserdtl[_userId].isQualified */\n      add\n        /* \"contracts/modules/SponsorMatrix.sol\":124:20190  contract Nanakshahi is Storage{... */\n      sload\n      and\n        /* \"contracts/modules/Storage.sol\":16836:16879  !monthlyRoyaltyUserdtl[_userId].isQualified */\n      iszero\n        /* \"contracts/modules/Storage.sol\":16832:16963  if (!monthlyRoyaltyUserdtl[_userId].isQualified) {... */\n      tag_687\n      jumpi\n        /* \"contracts/modules/Storage.sol\":16745:16970  function _tryMonthlyRoyaltyQualify(uint _userId, uint _roundId)internal {... */\n      pop\n      pop\n      jump\t// out\n        /* \"contracts/modules/Storage.sol\":16832:16963  if (!monthlyRoyaltyUserdtl[_userId].isQualified) {... */\n    tag_687:\n        /* \"contracts/modules/Storage.sol\":17075:17132  require(_roundId == currentMonthlyRound, \"Invalid round\") */\n      tag_689\n        /* \"contracts/modules/Storage.sol\":17095:17114  currentMonthlyRound */\n      0x3d\n        /* \"contracts/modules/SponsorMatrix.sol\":124:20190  contract Nanakshahi is Storage{... */\n      sload\n        /* \"contracts/modules/Storage.sol\":17083:17114  _roundId == currentMonthlyRound */\n      dup3\n      eq\n        /* \"contracts/modules/Storage.sol\":17075:17132  require(_roundId == currentMonthlyRound, \"Invalid round\") */\n      tag_32\n      jump\t// in\n    tag_689:\n        /* \"contracts/modules/SponsorMatrix.sol\":124:20190  contract Nanakshahi is Storage{... */\n      dup1\n      0x00\n      mstore\n      mstore(0x20, 0x40)\n        /* \"contracts/modules/Storage.sol\":17143:17203  require(!monthlyRoyaltydtl[_roundId].closed, \"Round closed\") */\n      tag_690\n        /* \"contracts/modules/SponsorMatrix.sol\":124:20190  contract Nanakshahi is Storage{... */\n      0xff\n        /* \"contracts/modules/Storage.sol\":17152:17186  monthlyRoyaltydtl[_roundId].closed */\n      0x08\n        /* \"contracts/modules/SponsorMatrix.sol\":124:20190  contract Nanakshahi is Storage{... */\n      keccak256(0x00, 0x40)\n        /* \"contracts/modules/Storage.sol\":17152:17186  monthlyRoyaltydtl[_roundId].closed */\n      add\n        /* \"contracts/modules/SponsorMatrix.sol\":124:20190  contract Nanakshahi is Storage{... */\n      sload\n      and\n        /* \"contracts/modules/Storage.sol\":17151:17186  !monthlyRoyaltydtl[_roundId].closed */\n      iszero\n        /* \"contracts/modules/Storage.sol\":17143:17203  require(!monthlyRoyaltydtl[_roundId].closed, \"Round closed\") */\n      tag_33\n      jump\t// in\n    tag_690:\n        /* \"contracts/modules/SponsorMatrix.sol\":124:20190  contract Nanakshahi is Storage{... */\n      dup2\n      0x00\n      mstore\n        /* \"contracts/modules/Storage.sol\":17243:17248  users */\n      0x0d\n        /* \"contracts/modules/SponsorMatrix.sol\":124:20190  contract Nanakshahi is Storage{... */\n      0x20\n      mstore\n      keccak256(0x00, 0x40)\n        /* \"contracts/modules/Storage.sol\":17286:17302  user.level10Time */\n      swap2\n      0x10\n      dup4\n      add\n        /* \"contracts/modules/SponsorMatrix.sol\":124:20190  contract Nanakshahi is Storage{... */\n      sload\n        /* \"contracts/modules/Storage.sol\":17286:17306  user.level10Time > 0 */\n      dup1\n      iszero\n        /* \"contracts/modules/SponsorMatrix.sol\":124:20190  contract Nanakshahi is Storage{... */\n      tag_691\n      jumpi\n        /* \"contracts/modules/Storage.sol\":17377:17398  user.registrationTime */\n      0x0f\n      dup5\n      add\n        /* \"contracts/modules/SponsorMatrix.sol\":124:20190  contract Nanakshahi is Storage{... */\n      sload\n      swap4\n        /* \"contracts/modules/Storage.sol\":791:799  100 days */\n      0x83d600\n        /* \"contracts/modules/SponsorMatrix.sol\":124:20190  contract Nanakshahi is Storage{... */\n      dup6\n      add\n      dup1\n      swap6\n      gt\n      tag_171\n      jumpi\n        /* \"contracts/modules/Storage.sol\":18117:18168  MonthlyRoyaltyQualified(_roundId, _userId, nowTime) */\n      0x42ee5ef523a95c6fb3ffdd2e9b34955b83ea8c2b11ff268c87ae6ea25556eaac\n        /* \"contracts/modules/Storage.sol\":17357:17421  user.level10Time <= user.registrationTime + MONTHLY_ROYALTY_TIME */\n      swap5\n        /* \"contracts/modules/Storage.sol\":17592:17669  require(withinTime && qualifiedByLevel && qualifiedByDirects, \"Not eligible\") */\n      tag_695\n        /* \"contracts/modules/Storage.sol\":17357:17421  user.level10Time <= user.registrationTime + MONTHLY_ROYALTY_TIME */\n      swap3\n      gt\n      iszero\n        /* \"contracts/modules/Storage.sol\":17456:17466  user.level */\n      swap1\n        /* \"contracts/modules/Storage.sol\":1136:1137  5 */\n      0x05\n        /* \"contracts/modules/Storage.sol\":17528:17555  user.monthlyUserDirectCount */\n      0x12\n        /* \"contracts/modules/Storage.sol\":1025:1027  10 */\n      0x0a\n        /* \"contracts/modules/Storage.sol\":17456:17466  user.level */\n      0x06\n      dup5\n      add\n        /* \"contracts/modules/SponsorMatrix.sol\":124:20190  contract Nanakshahi is Storage{... */\n      sload\n        /* \"contracts/modules/Storage.sol\":17456:17491  user.level >= MONTHLY_ROYALTY_LEVEL */\n      lt\n      iszero\n        /* \"contracts/modules/Storage.sol\":17528:17555  user.monthlyUserDirectCount */\n      swap3\n      add\n        /* \"contracts/modules/SponsorMatrix.sol\":124:20190  contract Nanakshahi is Storage{... */\n      sload\n        /* \"contracts/modules/Storage.sol\":17528:17581  user.monthlyUserDirectCount >= MONTHLY_ROYALTY_DIRECT */\n      lt\n      iszero\n        /* \"contracts/modules/Storage.sol\":17600:17630  withinTime && qualifiedByLevel */\n      swap1\n      dup3\n      tag_696\n      jumpi\n        /* \"contracts/modules/Storage.sol\":16832:16963  if (!monthlyRoyaltyUserdtl[_userId].isQualified) {... */\n    tag_697:\n        /* \"contracts/modules/Storage.sol\":17600:17652  withinTime && qualifiedByLevel && qualifiedByDirects */\n      pop\n      dup2\n      tag_698\n      jumpi\n        /* \"contracts/modules/Storage.sol\":16832:16963  if (!monthlyRoyaltyUserdtl[_userId].isQualified) {... */\n    tag_699:\n        /* \"contracts/modules/Storage.sol\":17592:17669  require(withinTime && qualifiedByLevel && qualifiedByDirects, \"Not eligible\") */\n      pop\n      tag_34\n      jump\t// in\n    tag_695:\n        /* \"contracts/modules/SponsorMatrix.sol\":124:20190  contract Nanakshahi is Storage{... */\n      dup1\n      0x00\n      mstore\n        /* \"contracts/modules/Storage.sol\":16837:16858  monthlyRoyaltyUserdtl */\n      0x42\n        /* \"contracts/modules/SponsorMatrix.sol\":124:20190  contract Nanakshahi is Storage{... */\n      0x20\n      mstore\n      keccak256(0x00, 0x40)\n        /* \"contracts/modules/Storage.sol\":18016:18044  userRoyalty.qualifiedRoundId */\n      0x01\n        /* \"contracts/modules/Storage.sol\":16837:16879  monthlyRoyaltyUserdtl[_userId].isQualified */\n      0x04\n        /* \"contracts/modules/Storage.sol\":17839:17862  userRoyalty.isQualified */\n      dup3\n      add\n        /* \"contracts/modules/SponsorMatrix.sol\":124:20190  contract Nanakshahi is Storage{... */\n      swap2\n      dup5\n      dup3\n      dup5\n      sload\n      swap3\n        /* \"contracts/modules/Storage.sol\":17830:17884  require(!userRoyalty.isQualified, \"already Qualified\") */\n      tag_700\n        /* \"contracts/modules/SponsorMatrix.sol\":124:20190  contract Nanakshahi is Storage{... */\n      0xff\n      dup6\n      and\n        /* \"contracts/modules/Storage.sol\":17838:17862  !userRoyalty.isQualified */\n      iszero\n        /* \"contracts/modules/Storage.sol\":17830:17884  require(!userRoyalty.isQualified, \"already Qualified\") */\n      tag_35\n      jump\t// in\n    tag_700:\n        /* \"contracts/modules/Storage.sol\":17912:17927  block.timestamp */\n      timestamp\n        /* \"contracts/modules/SponsorMatrix.sol\":124:20190  contract Nanakshahi is Storage{... */\n      dup2\n      sstore\n        /* \"contracts/modules/Storage.sol\":18016:18044  userRoyalty.qualifiedRoundId */\n      add\n        /* \"contracts/modules/SponsorMatrix.sol\":124:20190  contract Nanakshahi is Storage{... */\n      sstore\n      not(0xff)\n      and\n      or\n      swap1\n      sstore\n        /* \"contracts/modules/Storage.sol\":18117:18168  MonthlyRoyaltyQualified(_roundId, _userId, nowTime) */\n      tag_701\n        /* \"contracts/modules/SponsorMatrix.sol\":124:20190  contract Nanakshahi is Storage{... */\n      mload(0x40)\n        /* \"contracts/modules/Storage.sol\":17912:17927  block.timestamp */\n      swap3\n      dup4\n      swap3\n      timestamp\n        /* \"contracts/modules/Storage.sol\":18117:18168  MonthlyRoyaltyQualified(_roundId, _userId, nowTime) */\n      swap2\n      dup5\n        /* \"contracts/modules/SponsorMatrix.sol\":124:20190  contract Nanakshahi is Storage{... */\n      0x40\n      swap2\n      swap5\n      swap4\n      swap3\n      0x60\n      dup3\n      add\n      swap6\n      dup3\n      mstore\n      0x20\n      dup3\n      add\n      mstore\n      add\n      mstore\n      jump\n        /* \"contracts/modules/Storage.sol\":18117:18168  MonthlyRoyaltyQualified(_roundId, _userId, nowTime) */\n    tag_701:\n      sub\n      swap1\n      log1\n        /* \"contracts/modules/Storage.sol\":16745:16970  function _tryMonthlyRoyaltyQualify(uint _userId, uint _roundId)internal {... */\n      jump\t// out\n        /* \"contracts/modules/Storage.sol\":17600:17652  withinTime && qualifiedByLevel && qualifiedByDirects */\n    tag_698:\n      swap1\n      pop\n      0x00\n      jump(tag_699)\n        /* \"contracts/modules/Storage.sol\":17600:17630  withinTime && qualifiedByLevel */\n    tag_696:\n      swap2\n      pop\n      0x00\n      jump(tag_697)\n        /* \"contracts/modules/SponsorMatrix.sol\":124:20190  contract Nanakshahi is Storage{... */\n    tag_691:\n      mload(0x40)\n      shl(0xe5, 0x461bcd)\n      dup2\n      mstore\n      0x20\n        /* \"contracts/modules/Storage.sol\":16837:16879  monthlyRoyaltyUserdtl[_userId].isQualified */\n      0x04\n        /* \"contracts/modules/SponsorMatrix.sol\":124:20190  contract Nanakshahi is Storage{... */\n      dup3\n      add\n      mstore\n      0x11\n      0x24\n      dup3\n      add\n      mstore\n      shl(0x7c, 0x055736572206e6f74206c6576656c20313)\n      0x44\n      dup3\n      add\n      mstore\n      0x64\n      swap1\n      revert\n        /* \"contracts/modules/Storage.sol\":18192:18405  function _tryTopRoyaltyQualify(uint _userId, uint _roundId)internal {... */\n    tag_31:\n      swap1\n        /* \"contracts/modules/SponsorMatrix.sol\":124:20190  contract Nanakshahi is Storage{... */\n      dup2\n      0x00\n      mstore\n        /* \"contracts/modules/Storage.sol\":18280:18297  topRoyaltyUserdtl */\n      0x49\n        /* \"contracts/modules/SponsorMatrix.sol\":124:20190  contract Nanakshahi is Storage{... */\n      0x20\n      mstore\n      0xff\n        /* \"contracts/modules/Storage.sol\":18280:18318  topRoyaltyUserdtl[_userId].isQualified */\n      0x04\n        /* \"contracts/modules/SponsorMatrix.sol\":124:20190  contract Nanakshahi is Storage{... */\n      keccak256(0x00, 0x40)\n        /* \"contracts/modules/Storage.sol\":18280:18318  topRoyaltyUserdtl[_userId].isQualified */\n      add\n        /* \"contracts/modules/SponsorMatrix.sol\":124:20190  contract Nanakshahi is Storage{... */\n      sload\n      and\n        /* \"contracts/modules/Storage.sol\":18279:18318  !topRoyaltyUserdtl[_userId].isQualified */\n      iszero\n        /* \"contracts/modules/Storage.sol\":18275:18398  if (!topRoyaltyUserdtl[_userId].isQualified) {... */\n      tag_702\n      jumpi\n        /* \"contracts/modules/Storage.sol\":18192:18405  function _tryTopRoyaltyQualify(uint _userId, uint _roundId)internal {... */\n      pop\n      pop\n      jump\t// out\n        /* \"contracts/modules/Storage.sol\":18275:18398  if (!topRoyaltyUserdtl[_userId].isQualified) {... */\n    tag_702:\n        /* \"contracts/modules/Storage.sol\":18506:18559  require(_roundId == topRoyaltyRound, \"Invalid round\") */\n      tag_704\n        /* \"contracts/modules/Storage.sol\":18526:18541  topRoyaltyRound */\n      0x44\n        /* \"contracts/modules/SponsorMatrix.sol\":124:20190  contract Nanakshahi is Storage{... */\n      sload\n        /* \"contracts/modules/Storage.sol\":18514:18541  _roundId == topRoyaltyRound */\n      dup3\n      eq\n        /* \"contracts/modules/Storage.sol\":18506:18559  require(_roundId == topRoyaltyRound, \"Invalid round\") */\n      tag_32\n      jump\t// in\n    tag_704:\n        /* \"contracts/modules/SponsorMatrix.sol\":124:20190  contract Nanakshahi is Storage{... */\n      dup1\n      0x00\n      mstore\n        /* \"contracts/modules/Storage.sol\":18579:18592  topRoyaltydtl */\n      0x47\n        /* \"contracts/modules/SponsorMatrix.sol\":124:20190  contract Nanakshahi is Storage{... */\n      0x20\n      mstore\n        /* \"contracts/modules/Storage.sol\":18570:18626  require(!topRoyaltydtl[_roundId].closed, \"Round closed\") */\n      tag_705\n        /* \"contracts/modules/SponsorMatrix.sol\":124:20190  contract Nanakshahi is Storage{... */\n      0xff\n        /* \"contracts/modules/Storage.sol\":18579:18609  topRoyaltydtl[_roundId].closed */\n      0x08\n        /* \"contracts/modules/SponsorMatrix.sol\":124:20190  contract Nanakshahi is Storage{... */\n      keccak256(0x00, 0x40)\n        /* \"contracts/modules/Storage.sol\":18579:18609  topRoyaltydtl[_roundId].closed */\n      add\n        /* \"contracts/modules/SponsorMatrix.sol\":124:20190  contract Nanakshahi is Storage{... */\n      sload\n      and\n        /* \"contracts/modules/Storage.sol\":18578:18609  !topRoyaltydtl[_roundId].closed */\n      iszero\n        /* \"contracts/modules/Storage.sol\":18570:18626  require(!topRoyaltydtl[_roundId].closed, \"Round closed\") */\n      tag_33\n      jump\t// in\n    tag_705:\n        /* \"contracts/modules/SponsorMatrix.sol\":124:20190  contract Nanakshahi is Storage{... */\n      dup2\n      0x00\n      mstore\n        /* \"contracts/modules/Storage.sol\":18666:18671  users */\n      0x0d\n        /* \"contracts/modules/SponsorMatrix.sol\":124:20190  contract Nanakshahi is Storage{... */\n      0x20\n      mstore\n      keccak256(0x00, 0x40)\n        /* \"contracts/modules/Storage.sol\":18709:18725  user.level15Time */\n      swap2\n      0x11\n      dup4\n      add\n        /* \"contracts/modules/SponsorMatrix.sol\":124:20190  contract Nanakshahi is Storage{... */\n      sload\n        /* \"contracts/modules/Storage.sol\":18709:18729  user.level15Time > 0 */\n      dup1\n      iszero\n        /* \"contracts/modules/SponsorMatrix.sol\":124:20190  contract Nanakshahi is Storage{... */\n      tag_706\n      jumpi\n        /* \"contracts/modules/Storage.sol\":18800:18821  user.registrationTime */\n      0x0f\n      dup5\n      add\n        /* \"contracts/modules/SponsorMatrix.sol\":124:20190  contract Nanakshahi is Storage{... */\n      sload\n      swap4\n        /* \"contracts/modules/Storage.sol\":849:857  450 days */\n      0x02514300\n        /* \"contracts/modules/SponsorMatrix.sol\":124:20190  contract Nanakshahi is Storage{... */\n      dup6\n      add\n      dup1\n      swap6\n      gt\n      tag_171\n      jumpi\n        /* \"contracts/modules/Storage.sol\":19519:19570  MonthlyRoyaltyQualified(_roundId, _userId, nowTime) */\n      0x42ee5ef523a95c6fb3ffdd2e9b34955b83ea8c2b11ff268c87ae6ea25556eaac\n        /* \"contracts/modules/Storage.sol\":18780:18840  user.level15Time <= user.registrationTime + TOP_ROYALTY_TIME */\n      swap5\n        /* \"contracts/modules/Storage.sol\":19002:19079  require(withinTime && qualifiedByLevel && qualifiedByDirects, \"Not eligible\") */\n      tag_710\n        /* \"contracts/modules/Storage.sol\":18780:18840  user.level15Time <= user.registrationTime + TOP_ROYALTY_TIME */\n      swap3\n      gt\n      iszero\n        /* \"contracts/modules/Storage.sol\":18875:18885  user.level */\n      swap1\n        /* \"contracts/modules/Storage.sol\":1189:1190  2 */\n      0x02\n        /* \"contracts/modules/Storage.sol\":18943:18969  user.topRoyaltyDirectCount */\n      0x13\n        /* \"contracts/modules/Storage.sol\":18800:18821  user.registrationTime */\n      0x0f\n        /* \"contracts/modules/Storage.sol\":18875:18885  user.level */\n      0x06\n      dup5\n      add\n        /* \"contracts/modules/SponsorMatrix.sol\":124:20190  contract Nanakshahi is Storage{... */\n      sload\n        /* \"contracts/modules/Storage.sol\":18875:18906  user.level >= TOP_ROYALTY_LEVEL */\n      lt\n      iszero\n        /* \"contracts/modules/Storage.sol\":18943:18969  user.topRoyaltyDirectCount */\n      swap3\n      add\n        /* \"contracts/modules/SponsorMatrix.sol\":124:20190  contract Nanakshahi is Storage{... */\n      sload\n        /* \"contracts/modules/Storage.sol\":18943:18991  user.topRoyaltyDirectCount >= TOP_ROYALTY_DIRECT */\n      lt\n      iszero\n        /* \"contracts/modules/Storage.sol\":19010:19040  withinTime && qualifiedByLevel */\n      swap1\n      dup3\n      tag_696\n      jumpi\n        /* \"contracts/modules/Storage.sol\":19010:19062  withinTime && qualifiedByLevel && qualifiedByDirects */\n      pop\n      dup2\n      tag_698\n      jumpi\n        /* \"contracts/modules/Storage.sol\":19002:19079  require(withinTime && qualifiedByLevel && qualifiedByDirects, \"Not eligible\") */\n      pop\n      tag_34\n      jump\t// in\n    tag_710:\n        /* \"contracts/modules/SponsorMatrix.sol\":124:20190  contract Nanakshahi is Storage{... */\n      dup1\n      0x00\n      mstore\n        /* \"contracts/modules/Storage.sol\":18280:18297  topRoyaltyUserdtl */\n      0x49\n        /* \"contracts/modules/SponsorMatrix.sol\":124:20190  contract Nanakshahi is Storage{... */\n      0x20\n      mstore\n      keccak256(0x00, 0x40)\n        /* \"contracts/modules/Storage.sol\":19418:19446  userRoyalty.qualifiedRoundId */\n      0x01\n        /* \"contracts/modules/Storage.sol\":18280:18318  topRoyaltyUserdtl[_userId].isQualified */\n      0x04\n        /* \"contracts/modules/Storage.sol\":19241:19264  userRoyalty.isQualified */\n      dup3\n      add\n        /* \"contracts/modules/SponsorMatrix.sol\":124:20190  contract Nanakshahi is Storage{... */\n      swap2\n      dup5\n      dup3\n      dup5\n      sload\n      swap3\n        /* \"contracts/modules/Storage.sol\":19232:19286  require(!userRoyalty.isQualified, \"already Qualified\") */\n      tag_700\n        /* \"contracts/modules/SponsorMatrix.sol\":124:20190  contract Nanakshahi is Storage{... */\n      0xff\n      dup6\n      and\n        /* \"contracts/modules/Storage.sol\":19240:19264  !userRoyalty.isQualified */\n      iszero\n        /* \"contracts/modules/Storage.sol\":19232:19286  require(!userRoyalty.isQualified, \"already Qualified\") */\n      tag_35\n      jump\t// in\n        /* \"contracts/modules/SponsorMatrix.sol\":124:20190  contract Nanakshahi is Storage{... */\n    tag_706:\n      mload(0x40)\n      shl(0xe5, 0x461bcd)\n      dup2\n      mstore\n      0x20\n        /* \"contracts/modules/Storage.sol\":18280:18318  topRoyaltyUserdtl[_userId].isQualified */\n      0x04\n        /* \"contracts/modules/SponsorMatrix.sol\":124:20190  contract Nanakshahi is Storage{... */\n      dup3\n      add\n      mstore\n        /* \"contracts/modules/Storage.sol\":18709:18725  user.level15Time */\n      0x11\n        /* \"contracts/modules/SponsorMatrix.sol\":124:20190  contract Nanakshahi is Storage{... */\n      0x24\n      dup3\n      add\n      mstore\n      shl(0x78, 0x55736572206e6f74206c6576656c203135)\n        /* \"contracts/modules/Storage.sol\":18526:18541  topRoyaltyRound */\n      0x44\n        /* \"contracts/modules/SponsorMatrix.sol\":124:20190  contract Nanakshahi is Storage{... */\n      dup3\n      add\n      mstore\n      0x64\n      swap1\n      revert\n    tag_32:\n      iszero\n      tag_717\n      jumpi\n      jump\t// out\n    tag_717:\n      mload(0x40)\n      shl(0xe5, 0x461bcd)\n      dup2\n      mstore\n      0x20\n      0x04\n      dup3\n      add\n      mstore\n      0x0d\n      0x24\n      dup3\n      add\n      mstore\n      shl(0x9a, 0x125b9d985b1a59081c9bdd5b99)\n      0x44\n      dup3\n      add\n      mstore\n      0x64\n      swap1\n      revert\n    tag_33:\n      iszero\n      tag_719\n      jumpi\n      jump\t// out\n    tag_719:\n      mload(0x40)\n      shl(0xe5, 0x461bcd)\n      dup2\n      mstore\n      0x20\n      0x04\n      dup3\n      add\n      mstore\n      0x0c\n      0x24\n      dup3\n      add\n      mstore\n      shl(0xa2, 0x149bdd5b990818db1bdcd959)\n      0x44\n      dup3\n      add\n      mstore\n      0x64\n      swap1\n      revert\n    tag_34:\n      iszero\n      tag_721\n      jumpi\n      jump\t// out\n    tag_721:\n      mload(0x40)\n      shl(0xe5, 0x461bcd)\n      dup2\n      mstore\n      0x20\n      0x04\n      dup3\n      add\n      mstore\n      0x0c\n      0x24\n      dup3\n      add\n      mstore\n      shl(0xa0, 0x4e6f7420656c696769626c65)\n      0x44\n      dup3\n      add\n      mstore\n      0x64\n      swap1\n      revert\n    tag_35:\n      iszero\n      tag_723\n      jumpi\n      jump\t// out\n    tag_723:\n      mload(0x40)\n      shl(0xe5, 0x461bcd)\n      dup2\n      mstore\n      0x20\n      0x04\n      dup3\n      add\n      mstore\n      0x11\n      0x24\n      dup3\n      add\n      mstore\n      shl(0x7a, 0x185b1c9958591e48145d585b1a599a5959)\n      0x44\n      dup3\n      add\n      mstore\n      0x64\n      swap1\n      revert\n    stop\n    data_51678340555b44277c2bba9423d75ebead61331b9cde789c13d0820d4f537e29 e17b61d324ce17328f433d0ab62581c0f0aa997312bae80fbdfcd2aa9b91d6e3\n\n    auxdata: 0xa264697066735822122084a58ff3a9a9de9170510864ecde57625647ce5dc97e145bc75e121fce72195964736f6c634300081e0033\n}\n",
				"bytecode": {
					"linkReferences": {},
					"object": "60806040523461052b5760015f556040516101e081016001600160401b038111828210176105175760405267d02ab486cedc0000815268015af1d78b58c4000060208201526802b5e3af16b1880000604082015268056bc75e2d631000006060820152680ad78ebc5ac620000060808201526815af1d78b58c40000060a0820152682b5e3af16b1880000060c08201526856bc75e2d63100000060e082015268ad78ebc5ac6200000061010082015269015af1d78b58c40000006101208201526902b5e3af16b18800000061014082015269056bc75e2d6310000000610160820152690ad78ebc5ac6200000006101808201526915af1d78b58c400000006101a0820152692b5e3af16b18800000006101c0820152600b54600f600b5580600f106104c1575b50600b5f5260205f20905f5b600f81106104a45761014161052f565b680410d586a20a4c00008152681043561a8829300000602082015268410d586a20a4c0000060408201526901043561a882930000006060820152690410d586a20a4c0000006080820152691043561a88293000000060a082015269410d586a20a4c000000060c082015260135460076013558060071061044e575b5060135f5260205f20905f5b60078110610431576101d861054e565b68056bc75e2d631000008152680ad78ebc5ac620000060208201526815af1d78b58c4000006040820152682b5e3af16b1880000060608201526856bc75e2d631000000608082015268ad78ebc5ac6200000060a082015269015af1d78b58c400000060c08201526902b5e3af16b18800000060e08201526014546008601455806008106103db575b5060145f5260205f20905f5b600881106103be5761027c61052f565b60038152600560208201526007604082015260096060820152600b6080820152600d60a0820152600f60c08201525f5b600781106103a6576102bc61054e565b6004815260056020820152600660408201526007606082015260086080820152600960a0820152600a60c0820152600b60e08201525f5b6008811061038e5761030361054e565b5f815260016020820152600160408201526001606082015260016080820152600160a0820152600160c0820152600160e08201525f5b60088110610376575f6036555f6037555f6038556001603d555f603e555f603f5560016044555f6045555f60465560405161226190816105858239f35b600190602060ff845116930192816024015501610339565b600190602060ff84511693019281601c0155016102f3565b600190602060ff8451169301928160150155016102ac565b81516001600160501b03168184015560209091019060010161026c565b60145f5261042b907fce6d7b5282bd9a3661ae061feed1dbda4e52ab073b1f9285be6e155d9c38d4ec017fce6d7b5282bd9a3661ae061feed1dbda4e52ab073b1f9285be6e155d9c38d4f461056e565b81610260565b81516001600160501b0316818401556020909101906001016101c8565b60135f5261049e907f66de8ffda797e3de9c05e8fc57b3bf0ec28a930d40b0d285d93c06501cf6a090017f66de8ffda797e3de9c05e8fc57b3bf0ec28a930d40b0d285d93c06501cf6a09761056e565b816101bc565b81516001600160501b031681840155602090910190600101610131565b600b5f52610511907f0175b7a638427703f0dbe7bb9bbf987a2551717b34e79f33b5b1008d1fa01db9017f0175b7a638427703f0dbe7bb9bbf987a2551717b34e79f33b5b1008d1fa01dc861056e565b5f610125565b634e487b7160e01b5f52604160045260245ffd5b5f80fd5b6040519060e082016001600160401b0381118382101761051757604052565b6040519061010082016001600160401b0381118382101761051757604052565b818110610579575050565b5f815560010161056e56fe6080806040526004361015610012575f80fd5b5f3560e01c90816301c234a8146110a8575080632132d2041461107c5780632350268f1461102257806323fd338e14610a9b5780632451308814610ff85780632a89153414610fdb5780632ae0ee0d14610f375780632f48ab7d14610fb35780633080b5bc14610f9657806331bb6a3014610f7b57806332bc298c14610f5e57806332fcd96614610f3c578063375b43b414610f3757806339ab360314610edd57806345977d0314610abd5780634b8cbf9b14610aa057806358c7d35214610a9b5780635b62d1d514610a7e578063705fee2d14610a6057806376f5f70014610a4357806378f6ad6d14610a265780637cdc65f2146109fe578063956a3228146109d25780639b40ab97146109b5578063a59d17d114610998578063a5e52b991461097b578063ae4708dc1461090d578063bff1f9e1146108f0578063c216212a146108b8578063c8df290814610894578063c9ed070814610877578063ca8e91211461085a578063d0a2fd791461082e578063d2f0490d14610813578063d54d6ddb146107f5578063e898fc38146107d8578063e9e34a16146107b0578063ebe0ff151461078d578063ec597e6f14610770578063f207564e14610233578063f5d74d931461020b5763fddc806f146101ea575f80fd5b34610207575f366003190112610207576020603754604051908152f35b5f80fd5b34610207575f366003190112610207576004546040516001600160a01b039091168152602090f35b3461020757602036600319011261020757600435335f52600c60205260405f205461073657805f52600d602052600360405f200154156106ff576001545f906020906102c0906001600160a01b031661028a6110da565b90546040516323b872dd60e01b815233600482015230602482015260039290921b1c604482015293849283919082906064820190565b03925af180156106f4576106c7575b50600554906102e16006548093611294565b916001810180911161051357600655335f52600c6020528160405f2055815f52600d60205260405f2090336bffffffffffffffffffffffff60a01b83541617825542600283015582600383015560048201818155600160068401556103446110da565b90549060031b1c600a84015542600f840155815f52600d602052600760405f2001805490600182018092116105135755815f5260126020526103898460405f20611572565b600754600160401b8110156106b3578060016103aa9201600755600761110c565b81549060031b9086821b915f19901b1916179055600954845f52600a60205260405f20555f5f90835f526011602052600260405f2054105f14610588575050835f52600d60205281600560405f200155815f52601160205260405f20805490600182018092116105135755815b5f905b600f8210610527575b50506104616104306110da565b90546040519160031b1c61044382611222565b81525f602082015242604082015260016060820152600185016112a1565b6104696110da565b90549060031b1c906005820282159280820460051484171561051357603c810293818504603c1481171561051357601982029182046019141715610513576104cc936104c4606489946104be82809604611612565b04611679565b0491546117a6565b5f52600d602052600560018060a01b0360405f2054169101546040519081527f309bb360e8b69c23937ccc5fb01f9aeeead1c95a99604e175113ff82f2b1723a60203392a4005b634e487b7160e01b5f52601160045260245ffd5b801561058357805f52600d602052600960405f2001805490600182018092116105135755805f52601060205260405f20825f5260205261056a8660405f20611572565b5f52600d6020526001600560405f20015491019061041a565b610423565b5f5b600f811061059a575b5050610417565b816106ae57845f52601060205260405f2060018201808311610513575f5260205260405f2054600282018083116105135760ff8111610513576001901b116105e5575b60010161058a565b93925f9591955b845f52601060205260405f20865f5260205260405f20548110156106a0578661068f57845f52601060205260405f20865f5260205261062e8160405f2061110c565b90549060031b1c805f526011602052600260405f205410610653575b506001016105ec565b9193509550865f52600d60205280600560405f200155805f52601160205260405f2080549060018201809211610513575591600180969061064a565b5092936001909591955b90506105dd565b509293600190959195610699565b610593565b634e487b7160e01b5f52604160045260245ffd5b6106e89060203d6020116106ed575b6106e0818361125a565b81019061127c565b6102cf565b503d6106d6565b6040513d5f823e3d90fd5b60405162461bcd60e51b815260206004820152600f60248201526e24b73b30b634b21039b837b739b7b960891b6044820152606490fd5b60405162461bcd60e51b8152602060048201526012602482015271105b1c9958591e481c9959da5cdd195c995960721b6044820152606490fd5b34610207575f366003190112610207576020600554604051908152f35b34610207575f366003190112610207576020604051683635c9adc5dea000008152f35b34610207575f366003190112610207576003546040516001600160a01b039091168152602090f35b34610207575f366003190112610207576020603e54604051908152f35b3461020757602036600319011261020757610811600435611363565b005b34610207575f36600319011261020757602060405160058152f35b3461020757602036600319011261020757600435600881101561020757602090601c0154604051908152f35b34610207575f366003190112610207576020603654604051908152f35b34610207575f366003190112610207576020603d54604051908152f35b34610207575f36600319011261020757602060405169021e19e0c9bab24000008152f35b3461020757602036600319011261020757600435600b54811015610207576108e16020916110c2565b90549060031b1c604051908152f35b34610207575f366003190112610207576020600654604051908152f35b3461020757602036600319011261020757600435601354811015610207576013548110156109675760135f527f66de8ffda797e3de9c05e8fc57b3bf0ec28a930d40b0d285d93c06501cf6a0900154604051908152602090f35b634e487b7160e01b5f52603260045260245ffd5b34610207575f3660031901126102075760206040516283d6008152f35b34610207575f366003190112610207576020603f54604051908152f35b34610207575f366003190112610207576020604554604051908152f35b346102075760203660031901126102075760043560088110156102075760209060240154604051908152f35b34610207575f366003190112610207576002546040516001600160a01b039091168152602090f35b34610207575f366003190112610207576020600954604051908152f35b34610207575f36600319011261020757602060405162093a808152f35b34610207575f36600319011261020757602060405163025143008152f35b34610207575f366003190112610207576020604654604051908152f35b611121565b34610207575f366003190112610207576020604454604051908152f35b3461020757602036600319011261020757600435805f52600d60205260405f20610af160018060a01b0382541633146111e3565b6006810190815491600f831015610ea157610b0b836110c2565b90546001546040516323b872dd60e01b815233600482015230602482015260039390931b9190911c60448301819052929190602090829060649082905f906001600160a01b03165af180156106f457610e84575b50805490600182018092116105135755600a8201610b7e828254611294565b9055610bae604051610b8f81611222565b8281525f602082015242604082015260016060820152600184016112a1565b60058102811590828104600514821715610513576019830283810460191483171561051357610be4916104be6064809304611612565b601482029182046014141715610513576064900490600481019182549360018101948582116105135782610c1e87610c36958a82956118e5565b8760058601610c308484848454611a42565b54611c2c565b600a8314610d9e575b600f8314610caa575b505060405190815260606020820152601560608201527453706f6e736f72736869702073747275637475726560581b60808201524260408201527fae1560e7d725caf8d266d531bf32f170b87264eca8d1265202c334cfeb5bc38260a03392a3005b601142910155825f52600d60205260405f2090545f52600d60205260405f206013810180546001810180911161051357806002925510159081610d80575b81610d70575b50610d5a575b6002601382015410159081610d37575b81610d28575b50610d17575b8280610c48565b610d2360445483611ffc565b610d10565b600f9150600601541483610d0a565b90506011810154600f820154906302514300820180921161051357111590610d04565b610d6b600482015460445490611ffc565b610cf4565b600f915060060154101584610cee565b9050600f810154630251430081018091116105135742111590610ce8565b4260108201555f848152600d60205260408082208454835291206012810180546001810190811061051357806005925510159081610e67575b81610e57575b50610e41575b6005601282015410159081610e1f575b81610e10575b5015610c3f57610e0b603d5485611e9b565b610c3f565b600a9150600601541485610df9565b90506010810154600f820154906283d600820180921161051357111590610df3565b610e526004820154603d5490611e9b565b610de3565b600a915060060154101586610ddd565b9050600f8101546283d60081018091116105135742111590610dd7565b610e9c9060203d6020116106ed576106e0818361125a565b610b5f565b60405162461bcd60e51b8152602060048201526014602482015273105b1c9958591e48185d081b585e081b195d995b60621b6044820152606490fd5b3461020757602036600319011261020757600435600754811015610207576007548110156109675760075f527fa66cc928b5edb82af9bd49922954155ab7b0942694bea4ce44661d9a8736c6880154604051908152602090f35b61113c565b34610207575f366003190112610207576020604051670de0b6b3a76400008152f35b34610207575f366003190112610207576020604051620151808152f35b34610207575f36600319011261020757602060405160028152f35b34610207575f366003190112610207576020603854604051908152f35b34610207575f366003190112610207576001546040516001600160a01b039091168152602090f35b34610207575f36600319011261020757602060405162278d008152f35b34610207576020366003190112610207576040611016600435611182565b82519182526020820152f35b3461020757602036600319011261020757600435601454811015610207576014548110156109675760145f527fce6d7b5282bd9a3661ae061feed1dbda4e52ab073b1f9285be6e155d9c38d4ec0154604051908152602090f35b346102075760203660031901126102075760043560078110156102075760209060150154604051908152f35b34610207575f366003190112610207578061271060209252f35b600b5481101561096757600b5f5260205f2001905f90565b600b541561096757600b5f9081527f0175b7a638427703f0dbe7bb9bbf987a2551717b34e79f33b5b1008d1fa01db991565b8054821015610967575f5260205f2001905f90565b34610207575f366003190112610207576020604051600a8152f35b34610207575f366003190112610207576020604051600f8152f35b9190820391821161051357565b811561116e570490565b634e487b7160e01b5f52601260045260245ffd5b90815f52600d602052600360405f200154156111dc57600954825f52600a60205260405f205490818111156111d2576111c76111cf92670de0b6b3a764000092611157565b0480936115a6565b90565b505090505f905f90565b5f91508190565b156111ea57565b60405162461bcd60e51b815260206004820152601060248201526f139bdd081e5bdd5c881858d8dbdd5b9d60821b6044820152606490fd5b6080810190811067ffffffffffffffff8211176106b357604052565b60a0810190811067ffffffffffffffff8211176106b357604052565b90601f8019910116810190811067ffffffffffffffff8211176106b357604052565b90816020910312610207575180151581036102075790565b9190820180921161051357565b8054600160401b8110156106b3576001810180835581101561096757600360609160ff935f5260205f209060021b01845181556020850151600182015560408501516002820155019201511660ff19825416179055565b8181029291811591840414171561051357565b805490600160401b8210156106b35760018201808255821015610967576004916080915f52600560205f2091020192805184556020810151600185015560408101516002850155606081015160038501550151910155565b805f52600d60205260405f209060038201541561153c5761138e60018060a01b0383541633146111e3565b60095491815f52600a60205260405f2054808414611536576113b9670de0b6b3a76400009185611157565b04918215611525576113cb83826115a6565b93815f52600a60205260405f20558380611401575b91505081116113ed575050565b6113ff916113fa91611157565b611679565b565b6114aa9261146b836020945f52600e8552600660405f20611423868254611294565b815501611431858254611294565b9055805f52600f855260405f206040519161144b8361123e565b82528486830152600160408301524260608301526009608083015261130b565b600154905460405163a9059cbb60e01b81526001600160a01b0391821660048201526024810193909352919384929091169082905f9082906044820190565b03925af19081156106f4575f91611506575b50156114ca575f80836113e0565b60405162461bcd60e51b81526020600482015260146024820152731554d115081d1c985b9cd9995c8819985a5b195960621b6044820152606490fd5b61151f915060203d6020116106ed576106e0818361125a565b5f6114bc565b9150505f52600a60205260405f2055565b50505050565b60405162461bcd60e51b815260206004820152600e60248201526d155cd95c881b9bdd08199bdd5b9960921b6044820152606490fd5b8054600160401b8110156106b35761158f9160018201815561110c565b819291549060031b91821b915f19901b1916179055565b805f52600d60205260405f20905f52600e602052600a6115dc60405f2092600f906001600882015411611609575b8301546112f8565b04905481811015611602576115f091611157565b90818111156115fd575090565b905090565b5050505f90565b601491506115d4565b6007549081158015611671575b61165e57670de0b6b3a7640000810290808204670de0b6b3a76400001490151715610513576116599161165191611164565b600954611294565b600955565b8091506116685750565b6113ff90611679565b50801561161f565b6002546001600160a01b0316801561176d5760015460405163a9059cbb60e01b60208083019182526001600160a01b039485166024840152604480840187905283529390921692915f916116ce60648261125a565b519082855af1156106f4575f513d6117645750803b155b61175257506080906005545f52600e60205260405f20611706828254611294565b90557f0f67c60bc8519c61563ac616d368a6df646202c88d10744d736438bc4fbe281660018060a01b03600254169283926040519081525f60208201525f6040820152426060820152a3565b635274afe760e01b5f5260045260245ffd5b600114156116e5565b60405162461bcd60e51b8152602060048201526011602482015270199959481859191c9cc81b9bdd081cd95d607a1b6044820152606490fd5b801580156118da575b6118cf57805f52600d60205260405f2090805f52600e602052600160405f206117d9868254611294565b8155016117e7858254611294565b9055600154825460405163a9059cbb60e01b81526001600160a01b0391821660048201526024810187905291602091839160449183915f91165af180156106f4576118b2575b505f52600f60205261186b60405f20604051906118498261123e565b848252856020830152600160408301524260608301526001608083015261130b565b60018060a01b03905416905f52600d6020525f51602061220c5f395f51905f52606060018060a01b0360405f205416936040519081526001602082015260016040820152a3565b6118ca9060203d6020116106ed576106e0818361125a565b61182d565b50506113ff90611679565b5060055481146117af565b909181158015611a29575b611a1c579061196c91815f52600d60205260405f20825f52600e602052600160405f2061191e848254611294565b81550161192c838254611294565b9055600154815460405163a9059cbb60e01b81526001600160a01b03918216600482015260248101859052956020928792169082905f9082906044820190565b03925af19283156106f4575f51602061220c5f395f51905f52946060946119ff575b505f52600f6020526119ca60405f20604051906119aa8261123e565b87825284602083015288604083015242868301526001608083015261130b565b60018060a01b03905416935f52600d60205260018060a01b0360405f20541694604051918252602082015260016040820152a3565b611a179060203d6020116106ed576106e0818361125a565b61198e565b9150506113ff9150611679565b5060055482146118f0565b5f1981146105135760010190565b93919392909260055481148015611c24575b611c175760015b828110611be65750925f935b80151580611bda575b80611bd0575b15611bc257805f52600d60205260405f20908360068301541015611aa957506005611aa391015494611a34565b93611a67565b600154825460405163a9059cbb60e01b81526001600160a01b039182166004820152602481018a905296989597509395949193919291602091869160449183915f91165af19283156106f4575f51602061220c5f395f51905f5294606094611ba6575b50805f52600e602052600260405f20611b26858254611294565b815501611b34848254611294565b90555f52600f602052611b7160405f2060405190611b518261123e565b87825284602083015288604083015242868301526002608083015261130b565b60018060a01b03905416935f52600d60205260018060a01b0360405f20541694604051918252602082015260026040820152a3565b611bbd9060203d81116106ed576106e0818361125a565b611b0c565b505050916113ff9150611679565b50600f8510611a76565b50600554811415611a70565b905f52600d602052600560405f2001549081158015611c0c575b611bc257600101611a5b565b506005548214611c00565b5050916113ff9150611679565b508015611a54565b9294939491909183158015611e90575b8015611e88575b611e79579491611c538383611164565b95611c67611c6185896112f8565b84611157565b945f948593849260015b601e8510611cab575b50505050505050611c8d92939450611157565b80611c9c575b50806116685750565b611ca590611679565b5f611c93565b8192939495969891158015611e6e575b611e5157825f52600d60205260405f20928c88600686015410155f14611e325782611ce5916112f8565b5f828152600d6020908152604080832054600154915163a9059cbb60e01b81526001600160a01b039182166004820181905260248201879052909894909392899260449284929091165af19384156106f457611df096611dea95611e16575b50805f52600e602052600360405f20611d5e868254611294565b815501611d6c858254611294565b90555f52600f602052611daa60405f2060405190611d898261123e565b8a82528560208301528d60408301524260608301526004608083015261130b565b875f52600d60205260018060a01b0360405f205416905f51602061220c5f395f51905f5260608d60405190878252602082015260046040820152a3611294565b98611294565b936001915b84861015611e1157600560019101549101939291959495611c71565b611c7a565b611e2d9060203d81116106ed576106e0818361125a565b611d44565b5050918483999692991015611df55791611e4b90611a34565b91611df5565b50975050505050509050611e66929350611157565b806116685750565b506005548314611cbb565b509150506113ff919250611679565b508515611c43565b506005548414611c3c565b90815f52604260205260ff600460405f2001541615611eb8575050565b611ec5603d548214612119565b805f526040602052611ee160ff600860405f2001541615612155565b815f52600d60205260405f209160108301548015611fc357600f840154936283d6008501809511610513577f42ee5ef523a95c6fb3ffdd2e9b34955b83ea8c2b11ff268c87ae6ea25556eaac94611f5b9211159060056012600a6006840154101592015410159082611fbb575b5081611fb3575b50612190565b805f52604260205260405f20600160048201918482845492611f8060ff8516156121cb565b428155015560ff1916179055611fae6040519283924291846040919493926060820195825260208201520152565b0390a1565b90505f611f55565b91505f611f4e565b60405162461bcd60e51b8152602060048201526011602482015270055736572206e6f74206c6576656c20313607c1b6044820152606490fd5b90815f52604960205260ff600460405f2001541615612019575050565b6120266044548214612119565b805f52604760205261204260ff600860405f2001541615612155565b815f52600d60205260405f2091601183015480156120e057600f8401549363025143008501809511610513577f42ee5ef523a95c6fb3ffdd2e9b34955b83ea8c2b11ff268c87ae6ea25556eaac946120bb9211159060026013600f6006840154101592015410159082611fbb575081611fb35750612190565b805f52604960205260405f20600160048201918482845492611f8060ff8516156121cb565b60405162461bcd60e51b815260206004820152601160248201527055736572206e6f74206c6576656c20313560781b6044820152606490fd5b1561212057565b60405162461bcd60e51b815260206004820152600d60248201526c125b9d985b1a59081c9bdd5b99609a1b6044820152606490fd5b1561215c57565b60405162461bcd60e51b815260206004820152600c60248201526b149bdd5b990818db1bdcd95960a21b6044820152606490fd5b1561219757565b60405162461bcd60e51b815260206004820152600c60248201526b4e6f7420656c696769626c6560a01b6044820152606490fd5b156121d257565b60405162461bcd60e51b8152602060048201526011602482015270185b1c9958591e48145d585b1a599a5959607a1b6044820152606490fdfee17b61d324ce17328f433d0ab62581c0f0aa997312bae80fbdfcd2aa9b91d6e3a264697066735822122084a58ff3a9a9de9170510864ecde57625647ce5dc97e145bc75e121fce72195964736f6c634300081e0033",
					"opcodes": "PUSH1 0x80 PUSH1 0x40 MSTORE CALLVALUE PUSH2 0x52B JUMPI PUSH1 0x1 PUSH0 SSTORE PUSH1 0x40 MLOAD PUSH2 0x1E0 DUP2 ADD PUSH1 0x1 PUSH1 0x1 PUSH1 0x40 SHL SUB DUP2 GT DUP3 DUP3 LT OR PUSH2 0x517 JUMPI PUSH1 0x40 MSTORE PUSH8 0xD02AB486CEDC0000 DUP2 MSTORE PUSH9 0x15AF1D78B58C40000 PUSH1 0x20 DUP3 ADD MSTORE PUSH9 0x2B5E3AF16B1880000 PUSH1 0x40 DUP3 ADD MSTORE PUSH9 0x56BC75E2D63100000 PUSH1 0x60 DUP3 ADD MSTORE PUSH9 0xAD78EBC5AC6200000 PUSH1 0x80 DUP3 ADD MSTORE PUSH9 0x15AF1D78B58C400000 PUSH1 0xA0 DUP3 ADD MSTORE PUSH9 0x2B5E3AF16B18800000 PUSH1 0xC0 DUP3 ADD MSTORE PUSH9 0x56BC75E2D631000000 PUSH1 0xE0 DUP3 ADD MSTORE PUSH9 0xAD78EBC5AC62000000 PUSH2 0x100 DUP3 ADD MSTORE PUSH10 0x15AF1D78B58C4000000 PUSH2 0x120 DUP3 ADD MSTORE PUSH10 0x2B5E3AF16B188000000 PUSH2 0x140 DUP3 ADD MSTORE PUSH10 0x56BC75E2D6310000000 PUSH2 0x160 DUP3 ADD MSTORE PUSH10 0xAD78EBC5AC620000000 PUSH2 0x180 DUP3 ADD MSTORE PUSH10 0x15AF1D78B58C40000000 PUSH2 0x1A0 DUP3 ADD MSTORE PUSH10 0x2B5E3AF16B1880000000 PUSH2 0x1C0 DUP3 ADD MSTORE PUSH1 0xB SLOAD PUSH1 0xF PUSH1 0xB SSTORE DUP1 PUSH1 0xF LT PUSH2 0x4C1 JUMPI JUMPDEST POP PUSH1 0xB PUSH0 MSTORE PUSH1 0x20 PUSH0 KECCAK256 SWAP1 PUSH0 JUMPDEST PUSH1 0xF DUP2 LT PUSH2 0x4A4 JUMPI PUSH2 0x141 PUSH2 0x52F JUMP JUMPDEST PUSH9 0x410D586A20A4C0000 DUP2 MSTORE PUSH9 0x1043561A8829300000 PUSH1 0x20 DUP3 ADD MSTORE PUSH9 0x410D586A20A4C00000 PUSH1 0x40 DUP3 ADD MSTORE PUSH10 0x1043561A88293000000 PUSH1 0x60 DUP3 ADD MSTORE PUSH10 0x410D586A20A4C000000 PUSH1 0x80 DUP3 ADD MSTORE PUSH10 0x1043561A882930000000 PUSH1 0xA0 DUP3 ADD MSTORE PUSH10 0x410D586A20A4C0000000 PUSH1 0xC0 DUP3 ADD MSTORE PUSH1 0x13 SLOAD PUSH1 0x7 PUSH1 0x13 SSTORE DUP1 PUSH1 0x7 LT PUSH2 0x44E JUMPI JUMPDEST POP PUSH1 0x13 PUSH0 MSTORE PUSH1 0x20 PUSH0 KECCAK256 SWAP1 PUSH0 JUMPDEST PUSH1 0x7 DUP2 LT PUSH2 0x431 JUMPI PUSH2 0x1D8 PUSH2 0x54E JUMP JUMPDEST PUSH9 0x56BC75E2D63100000 DUP2 MSTORE PUSH9 0xAD78EBC5AC6200000 PUSH1 0x20 DUP3 ADD MSTORE PUSH9 0x15AF1D78B58C400000 PUSH1 0x40 DUP3 ADD MSTORE PUSH9 0x2B5E3AF16B18800000 PUSH1 0x60 DUP3 ADD MSTORE PUSH9 0x56BC75E2D631000000 PUSH1 0x80 DUP3 ADD MSTORE PUSH9 0xAD78EBC5AC62000000 PUSH1 0xA0 DUP3 ADD MSTORE PUSH10 0x15AF1D78B58C4000000 PUSH1 0xC0 DUP3 ADD MSTORE PUSH10 0x2B5E3AF16B188000000 PUSH1 0xE0 DUP3 ADD MSTORE PUSH1 0x14 SLOAD PUSH1 0x8 PUSH1 0x14 SSTORE DUP1 PUSH1 0x8 LT PUSH2 0x3DB JUMPI JUMPDEST POP PUSH1 0x14 PUSH0 MSTORE PUSH1 0x20 PUSH0 KECCAK256 SWAP1 PUSH0 JUMPDEST PUSH1 0x8 DUP2 LT PUSH2 0x3BE JUMPI PUSH2 0x27C PUSH2 0x52F JUMP JUMPDEST PUSH1 0x3 DUP2 MSTORE PUSH1 0x5 PUSH1 0x20 DUP3 ADD MSTORE PUSH1 0x7 PUSH1 0x40 DUP3 ADD MSTORE PUSH1 0x9 PUSH1 0x60 DUP3 ADD MSTORE PUSH1 0xB PUSH1 0x80 DUP3 ADD MSTORE PUSH1 0xD PUSH1 0xA0 DUP3 ADD MSTORE PUSH1 0xF PUSH1 0xC0 DUP3 ADD MSTORE PUSH0 JUMPDEST PUSH1 0x7 DUP2 LT PUSH2 0x3A6 JUMPI PUSH2 0x2BC PUSH2 0x54E JUMP JUMPDEST PUSH1 0x4 DUP2 MSTORE PUSH1 0x5 PUSH1 0x20 DUP3 ADD MSTORE PUSH1 0x6 PUSH1 0x40 DUP3 ADD MSTORE PUSH1 0x7 PUSH1 0x60 DUP3 ADD MSTORE PUSH1 0x8 PUSH1 0x80 DUP3 ADD MSTORE PUSH1 0x9 PUSH1 0xA0 DUP3 ADD MSTORE PUSH1 0xA PUSH1 0xC0 DUP3 ADD MSTORE PUSH1 0xB PUSH1 0xE0 DUP3 ADD MSTORE PUSH0 JUMPDEST PUSH1 0x8 DUP2 LT PUSH2 0x38E JUMPI PUSH2 0x303 PUSH2 0x54E JUMP JUMPDEST PUSH0 DUP2 MSTORE PUSH1 0x1 PUSH1 0x20 DUP3 ADD MSTORE PUSH1 0x1 PUSH1 0x40 DUP3 ADD MSTORE PUSH1 0x1 PUSH1 0x60 DUP3 ADD MSTORE PUSH1 0x1 PUSH1 0x80 DUP3 ADD MSTORE PUSH1 0x1 PUSH1 0xA0 DUP3 ADD MSTORE PUSH1 0x1 PUSH1 0xC0 DUP3 ADD MSTORE PUSH1 0x1 PUSH1 0xE0 DUP3 ADD MSTORE PUSH0 JUMPDEST PUSH1 0x8 DUP2 LT PUSH2 0x376 JUMPI PUSH0 PUSH1 0x36 SSTORE PUSH0 PUSH1 0x37 SSTORE PUSH0 PUSH1 0x38 SSTORE PUSH1 0x1 PUSH1 0x3D SSTORE PUSH0 PUSH1 0x3E SSTORE PUSH0 PUSH1 0x3F SSTORE PUSH1 0x1 PUSH1 0x44 SSTORE PUSH0 PUSH1 0x45 SSTORE PUSH0 PUSH1 0x46 SSTORE PUSH1 0x40 MLOAD PUSH2 0x2261 SWAP1 DUP2 PUSH2 0x585 DUP3 CODECOPY RETURN JUMPDEST PUSH1 0x1 SWAP1 PUSH1 0x20 PUSH1 0xFF DUP5 MLOAD AND SWAP4 ADD SWAP3 DUP2 PUSH1 0x24 ADD SSTORE ADD PUSH2 0x339 JUMP JUMPDEST PUSH1 0x1 SWAP1 PUSH1 0x20 PUSH1 0xFF DUP5 MLOAD AND SWAP4 ADD SWAP3 DUP2 PUSH1 0x1C ADD SSTORE ADD PUSH2 0x2F3 JUMP JUMPDEST PUSH1 0x1 SWAP1 PUSH1 0x20 PUSH1 0xFF DUP5 MLOAD AND SWAP4 ADD SWAP3 DUP2 PUSH1 0x15 ADD SSTORE ADD PUSH2 0x2AC JUMP JUMPDEST DUP2 MLOAD PUSH1 0x1 PUSH1 0x1 PUSH1 0x50 SHL SUB AND DUP2 DUP5 ADD SSTORE PUSH1 0x20 SWAP1 SWAP2 ADD SWAP1 PUSH1 0x1 ADD PUSH2 0x26C JUMP JUMPDEST PUSH1 0x14 PUSH0 MSTORE PUSH2 0x42B SWAP1 PUSH32 0xCE6D7B5282BD9A3661AE061FEED1DBDA4E52AB073B1F9285BE6E155D9C38D4EC ADD PUSH32 0xCE6D7B5282BD9A3661AE061FEED1DBDA4E52AB073B1F9285BE6E155D9C38D4F4 PUSH2 0x56E JUMP JUMPDEST DUP2 PUSH2 0x260 JUMP JUMPDEST DUP2 MLOAD PUSH1 0x1 PUSH1 0x1 PUSH1 0x50 SHL SUB AND DUP2 DUP5 ADD SSTORE PUSH1 0x20 SWAP1 SWAP2 ADD SWAP1 PUSH1 0x1 ADD PUSH2 0x1C8 JUMP JUMPDEST PUSH1 0x13 PUSH0 MSTORE PUSH2 0x49E SWAP1 PUSH32 0x66DE8FFDA797E3DE9C05E8FC57B3BF0EC28A930D40B0D285D93C06501CF6A090 ADD PUSH32 0x66DE8FFDA797E3DE9C05E8FC57B3BF0EC28A930D40B0D285D93C06501CF6A097 PUSH2 0x56E JUMP JUMPDEST DUP2 PUSH2 0x1BC JUMP JUMPDEST DUP2 MLOAD PUSH1 0x1 PUSH1 0x1 PUSH1 0x50 SHL SUB AND DUP2 DUP5 ADD SSTORE PUSH1 0x20 SWAP1 SWAP2 ADD SWAP1 PUSH1 0x1 ADD PUSH2 0x131 JUMP JUMPDEST PUSH1 0xB PUSH0 MSTORE PUSH2 0x511 SWAP1 PUSH32 0x175B7A638427703F0DBE7BB9BBF987A2551717B34E79F33B5B1008D1FA01DB9 ADD PUSH32 0x175B7A638427703F0DBE7BB9BBF987A2551717B34E79F33B5B1008D1FA01DC8 PUSH2 0x56E JUMP JUMPDEST PUSH0 PUSH2 0x125 JUMP JUMPDEST PUSH4 0x4E487B71 PUSH1 0xE0 SHL PUSH0 MSTORE PUSH1 0x41 PUSH1 0x4 MSTORE PUSH1 0x24 PUSH0 REVERT JUMPDEST PUSH0 DUP1 REVERT JUMPDEST PUSH1 0x40 MLOAD SWAP1 PUSH1 0xE0 DUP3 ADD PUSH1 0x1 PUSH1 0x1 PUSH1 0x40 SHL SUB DUP2 GT DUP4 DUP3 LT OR PUSH2 0x517 JUMPI PUSH1 0x40 MSTORE JUMP JUMPDEST PUSH1 0x40 MLOAD SWAP1 PUSH2 0x100 DUP3 ADD PUSH1 0x1 PUSH1 0x1 PUSH1 0x40 SHL SUB DUP2 GT DUP4 DUP3 LT OR PUSH2 0x517 JUMPI PUSH1 0x40 MSTORE JUMP JUMPDEST DUP2 DUP2 LT PUSH2 0x579 JUMPI POP POP JUMP JUMPDEST PUSH0 DUP2 SSTORE PUSH1 0x1 ADD PUSH2 0x56E JUMP INVALID PUSH1 0x80 DUP1 PUSH1 0x40 MSTORE PUSH1 0x4 CALLDATASIZE LT ISZERO PUSH2 0x12 JUMPI PUSH0 DUP1 REVERT JUMPDEST PUSH0 CALLDATALOAD PUSH1 0xE0 SHR SWAP1 DUP2 PUSH4 0x1C234A8 EQ PUSH2 0x10A8 JUMPI POP DUP1 PUSH4 0x2132D204 EQ PUSH2 0x107C JUMPI DUP1 PUSH4 0x2350268F EQ PUSH2 0x1022 JUMPI DUP1 PUSH4 0x23FD338E EQ PUSH2 0xA9B JUMPI DUP1 PUSH4 0x24513088 EQ PUSH2 0xFF8 JUMPI DUP1 PUSH4 0x2A891534 EQ PUSH2 0xFDB JUMPI DUP1 PUSH4 0x2AE0EE0D EQ PUSH2 0xF37 JUMPI DUP1 PUSH4 0x2F48AB7D EQ PUSH2 0xFB3 JUMPI DUP1 PUSH4 0x3080B5BC EQ PUSH2 0xF96 JUMPI DUP1 PUSH4 0x31BB6A30 EQ PUSH2 0xF7B JUMPI DUP1 PUSH4 0x32BC298C EQ PUSH2 0xF5E JUMPI DUP1 PUSH4 0x32FCD966 EQ PUSH2 0xF3C JUMPI DUP1 PUSH4 0x375B43B4 EQ PUSH2 0xF37 JUMPI DUP1 PUSH4 0x39AB3603 EQ PUSH2 0xEDD JUMPI DUP1 PUSH4 0x45977D03 EQ PUSH2 0xABD JUMPI DUP1 PUSH4 0x4B8CBF9B EQ PUSH2 0xAA0 JUMPI DUP1 PUSH4 0x58C7D352 EQ PUSH2 0xA9B JUMPI DUP1 PUSH4 0x5B62D1D5 EQ PUSH2 0xA7E JUMPI DUP1 PUSH4 0x705FEE2D EQ PUSH2 0xA60 JUMPI DUP1 PUSH4 0x76F5F700 EQ PUSH2 0xA43 JUMPI DUP1 PUSH4 0x78F6AD6D EQ PUSH2 0xA26 JUMPI DUP1 PUSH4 0x7CDC65F2 EQ PUSH2 0x9FE JUMPI DUP1 PUSH4 0x956A3228 EQ PUSH2 0x9D2 JUMPI DUP1 PUSH4 0x9B40AB97 EQ PUSH2 0x9B5 JUMPI DUP1 PUSH4 0xA59D17D1 EQ PUSH2 0x998 JUMPI DUP1 PUSH4 0xA5E52B99 EQ PUSH2 0x97B JUMPI DUP1 PUSH4 0xAE4708DC EQ PUSH2 0x90D JUMPI DUP1 PUSH4 0xBFF1F9E1 EQ PUSH2 0x8F0 JUMPI DUP1 PUSH4 0xC216212A EQ PUSH2 0x8B8 JUMPI DUP1 PUSH4 0xC8DF2908 EQ PUSH2 0x894 JUMPI DUP1 PUSH4 0xC9ED0708 EQ PUSH2 0x877 JUMPI DUP1 PUSH4 0xCA8E9121 EQ PUSH2 0x85A JUMPI DUP1 PUSH4 0xD0A2FD79 EQ PUSH2 0x82E JUMPI DUP1 PUSH4 0xD2F0490D EQ PUSH2 0x813 JUMPI DUP1 PUSH4 0xD54D6DDB EQ PUSH2 0x7F5 JUMPI DUP1 PUSH4 0xE898FC38 EQ PUSH2 0x7D8 JUMPI DUP1 PUSH4 0xE9E34A16 EQ PUSH2 0x7B0 JUMPI DUP1 PUSH4 0xEBE0FF15 EQ PUSH2 0x78D JUMPI DUP1 PUSH4 0xEC597E6F EQ PUSH2 0x770 JUMPI DUP1 PUSH4 0xF207564E EQ PUSH2 0x233 JUMPI DUP1 PUSH4 0xF5D74D93 EQ PUSH2 0x20B JUMPI PUSH4 0xFDDC806F EQ PUSH2 0x1EA JUMPI PUSH0 DUP1 REVERT JUMPDEST CALLVALUE PUSH2 0x207 JUMPI PUSH0 CALLDATASIZE PUSH1 0x3 NOT ADD SLT PUSH2 0x207 JUMPI PUSH1 0x20 PUSH1 0x37 SLOAD PUSH1 0x40 MLOAD SWAP1 DUP2 MSTORE RETURN JUMPDEST PUSH0 DUP1 REVERT JUMPDEST CALLVALUE PUSH2 0x207 JUMPI PUSH0 CALLDATASIZE PUSH1 0x3 NOT ADD SLT PUSH2 0x207 JUMPI PUSH1 0x4 SLOAD PUSH1 0x40 MLOAD PUSH1 0x1 PUSH1 0x1 PUSH1 0xA0 SHL SUB SWAP1 SWAP2 AND DUP2 MSTORE PUSH1 0x20 SWAP1 RETURN JUMPDEST CALLVALUE PUSH2 0x207 JUMPI PUSH1 0x20 CALLDATASIZE PUSH1 0x3 NOT ADD SLT PUSH2 0x207 JUMPI PUSH1 0x4 CALLDATALOAD CALLER PUSH0 MSTORE PUSH1 0xC PUSH1 0x20 MSTORE PUSH1 0x40 PUSH0 KECCAK256 SLOAD PUSH2 0x736 JUMPI DUP1 PUSH0 MSTORE PUSH1 0xD PUSH1 0x20 MSTORE PUSH1 0x3 PUSH1 0x40 PUSH0 KECCAK256 ADD SLOAD ISZERO PUSH2 0x6FF JUMPI PUSH1 0x1 SLOAD PUSH0 SWAP1 PUSH1 0x20 SWAP1 PUSH2 0x2C0 SWAP1 PUSH1 0x1 PUSH1 0x1 PUSH1 0xA0 SHL SUB AND PUSH2 0x28A PUSH2 0x10DA JUMP JUMPDEST SWAP1 SLOAD PUSH1 0x40 MLOAD PUSH4 0x23B872DD PUSH1 0xE0 SHL DUP2 MSTORE CALLER PUSH1 0x4 DUP3 ADD MSTORE ADDRESS PUSH1 0x24 DUP3 ADD MSTORE PUSH1 0x3 SWAP3 SWAP1 SWAP3 SHL SHR PUSH1 0x44 DUP3 ADD MSTORE SWAP4 DUP5 SWAP3 DUP4 SWAP2 SWAP1 DUP3 SWAP1 PUSH1 0x64 DUP3 ADD SWAP1 JUMP JUMPDEST SUB SWAP3 GAS CALL DUP1 ISZERO PUSH2 0x6F4 JUMPI PUSH2 0x6C7 JUMPI JUMPDEST POP PUSH1 0x5 SLOAD SWAP1 PUSH2 0x2E1 PUSH1 0x6 SLOAD DUP1 SWAP4 PUSH2 0x1294 JUMP JUMPDEST SWAP2 PUSH1 0x1 DUP2 ADD DUP1 SWAP2 GT PUSH2 0x513 JUMPI PUSH1 0x6 SSTORE CALLER PUSH0 MSTORE PUSH1 0xC PUSH1 0x20 MSTORE DUP2 PUSH1 0x40 PUSH0 KECCAK256 SSTORE DUP2 PUSH0 MSTORE PUSH1 0xD PUSH1 0x20 MSTORE PUSH1 0x40 PUSH0 KECCAK256 SWAP1 CALLER PUSH12 0xFFFFFFFFFFFFFFFFFFFFFFFF PUSH1 0xA0 SHL DUP4 SLOAD AND OR DUP3 SSTORE TIMESTAMP PUSH1 0x2 DUP4 ADD SSTORE DUP3 PUSH1 0x3 DUP4 ADD SSTORE PUSH1 0x4 DUP3 ADD DUP2 DUP2 SSTORE PUSH1 0x1 PUSH1 0x6 DUP5 ADD SSTORE PUSH2 0x344 PUSH2 0x10DA JUMP JUMPDEST SWAP1 SLOAD SWAP1 PUSH1 0x3 SHL SHR PUSH1 0xA DUP5 ADD SSTORE TIMESTAMP PUSH1 0xF DUP5 ADD SSTORE DUP2 PUSH0 MSTORE PUSH1 0xD PUSH1 0x20 MSTORE PUSH1 0x7 PUSH1 0x40 PUSH0 KECCAK256 ADD DUP1 SLOAD SWAP1 PUSH1 0x1 DUP3 ADD DUP1 SWAP3 GT PUSH2 0x513 JUMPI SSTORE DUP2 PUSH0 MSTORE PUSH1 0x12 PUSH1 0x20 MSTORE PUSH2 0x389 DUP5 PUSH1 0x40 PUSH0 KECCAK256 PUSH2 0x1572 JUMP JUMPDEST PUSH1 0x7 SLOAD PUSH1 0x1 PUSH1 0x40 SHL DUP2 LT ISZERO PUSH2 0x6B3 JUMPI DUP1 PUSH1 0x1 PUSH2 0x3AA SWAP3 ADD PUSH1 0x7 SSTORE PUSH1 0x7 PUSH2 0x110C JUMP JUMPDEST DUP2 SLOAD SWAP1 PUSH1 0x3 SHL SWAP1 DUP7 DUP3 SHL SWAP2 PUSH0 NOT SWAP1 SHL NOT AND OR SWAP1 SSTORE PUSH1 0x9 SLOAD DUP5 PUSH0 MSTORE PUSH1 0xA PUSH1 0x20 MSTORE PUSH1 0x40 PUSH0 KECCAK256 SSTORE PUSH0 PUSH0 SWAP1 DUP4 PUSH0 MSTORE PUSH1 0x11 PUSH1 0x20 MSTORE PUSH1 0x2 PUSH1 0x40 PUSH0 KECCAK256 SLOAD LT PUSH0 EQ PUSH2 0x588 JUMPI POP POP DUP4 PUSH0 MSTORE PUSH1 0xD PUSH1 0x20 MSTORE DUP2 PUSH1 0x5 PUSH1 0x40 PUSH0 KECCAK256 ADD SSTORE DUP2 PUSH0 MSTORE PUSH1 0x11 PUSH1 0x20 MSTORE PUSH1 0x40 PUSH0 KECCAK256 DUP1 SLOAD SWAP1 PUSH1 0x1 DUP3 ADD DUP1 SWAP3 GT PUSH2 0x513 JUMPI SSTORE DUP2 JUMPDEST PUSH0 SWAP1 JUMPDEST PUSH1 0xF DUP3 LT PUSH2 0x527 JUMPI JUMPDEST POP POP PUSH2 0x461 PUSH2 0x430 PUSH2 0x10DA JUMP JUMPDEST SWAP1 SLOAD PUSH1 0x40 MLOAD SWAP2 PUSH1 0x3 SHL SHR PUSH2 0x443 DUP3 PUSH2 0x1222 JUMP JUMPDEST DUP2 MSTORE PUSH0 PUSH1 0x20 DUP3 ADD MSTORE TIMESTAMP PUSH1 0x40 DUP3 ADD MSTORE PUSH1 0x1 PUSH1 0x60 DUP3 ADD MSTORE PUSH1 0x1 DUP6 ADD PUSH2 0x12A1 JUMP JUMPDEST PUSH2 0x469 PUSH2 0x10DA JUMP JUMPDEST SWAP1 SLOAD SWAP1 PUSH1 0x3 SHL SHR SWAP1 PUSH1 0x5 DUP3 MUL DUP3 ISZERO SWAP3 DUP1 DUP3 DIV PUSH1 0x5 EQ DUP5 OR ISZERO PUSH2 0x513 JUMPI PUSH1 0x3C DUP2 MUL SWAP4 DUP2 DUP6 DIV PUSH1 0x3C EQ DUP2 OR ISZERO PUSH2 0x513 JUMPI PUSH1 0x19 DUP3 MUL SWAP2 DUP3 DIV PUSH1 0x19 EQ OR ISZERO PUSH2 0x513 JUMPI PUSH2 0x4CC SWAP4 PUSH2 0x4C4 PUSH1 0x64 DUP10 SWAP5 PUSH2 0x4BE DUP3 DUP1 SWAP7 DIV PUSH2 0x1612 JUMP JUMPDEST DIV PUSH2 0x1679 JUMP JUMPDEST DIV SWAP2 SLOAD PUSH2 0x17A6 JUMP JUMPDEST PUSH0 MSTORE PUSH1 0xD PUSH1 0x20 MSTORE PUSH1 0x5 PUSH1 0x1 DUP1 PUSH1 0xA0 SHL SUB PUSH1 0x40 PUSH0 KECCAK256 SLOAD AND SWAP2 ADD SLOAD PUSH1 0x40 MLOAD SWAP1 DUP2 MSTORE PUSH32 0x309BB360E8B69C23937CCC5FB01F9AEEEAD1C95A99604E175113FF82F2B1723A PUSH1 0x20 CALLER SWAP3 LOG4 STOP JUMPDEST PUSH4 0x4E487B71 PUSH1 0xE0 SHL PUSH0 MSTORE PUSH1 0x11 PUSH1 0x4 MSTORE PUSH1 0x24 PUSH0 REVERT JUMPDEST DUP1 ISZERO PUSH2 0x583 JUMPI DUP1 PUSH0 MSTORE PUSH1 0xD PUSH1 0x20 MSTORE PUSH1 0x9 PUSH1 0x40 PUSH0 KECCAK256 ADD DUP1 SLOAD SWAP1 PUSH1 0x1 DUP3 ADD DUP1 SWAP3 GT PUSH2 0x513 JUMPI SSTORE DUP1 PUSH0 MSTORE PUSH1 0x10 PUSH1 0x20 MSTORE PUSH1 0x40 PUSH0 KECCAK256 DUP3 PUSH0 MSTORE PUSH1 0x20 MSTORE PUSH2 0x56A DUP7 PUSH1 0x40 PUSH0 KECCAK256 PUSH2 0x1572 JUMP JUMPDEST PUSH0 MSTORE PUSH1 0xD PUSH1 0x20 MSTORE PUSH1 0x1 PUSH1 0x5 PUSH1 0x40 PUSH0 KECCAK256 ADD SLOAD SWAP2 ADD SWAP1 PUSH2 0x41A JUMP JUMPDEST PUSH2 0x423 JUMP JUMPDEST PUSH0 JUMPDEST PUSH1 0xF DUP2 LT PUSH2 0x59A JUMPI JUMPDEST POP POP PUSH2 0x417 JUMP JUMPDEST DUP2 PUSH2 0x6AE JUMPI DUP5 PUSH0 MSTORE PUSH1 0x10 PUSH1 0x20 MSTORE PUSH1 0x40 PUSH0 KECCAK256 PUSH1 0x1 DUP3 ADD DUP1 DUP4 GT PUSH2 0x513 JUMPI PUSH0 MSTORE PUSH1 0x20 MSTORE PUSH1 0x40 PUSH0 KECCAK256 SLOAD PUSH1 0x2 DUP3 ADD DUP1 DUP4 GT PUSH2 0x513 JUMPI PUSH1 0xFF DUP2 GT PUSH2 0x513 JUMPI PUSH1 0x1 SWAP1 SHL GT PUSH2 0x5E5 JUMPI JUMPDEST PUSH1 0x1 ADD PUSH2 0x58A JUMP JUMPDEST SWAP4 SWAP3 PUSH0 SWAP6 SWAP2 SWAP6 JUMPDEST DUP5 PUSH0 MSTORE PUSH1 0x10 PUSH1 0x20 MSTORE PUSH1 0x40 PUSH0 KECCAK256 DUP7 PUSH0 MSTORE PUSH1 0x20 MSTORE PUSH1 0x40 PUSH0 KECCAK256 SLOAD DUP2 LT ISZERO PUSH2 0x6A0 JUMPI DUP7 PUSH2 0x68F JUMPI DUP5 PUSH0 MSTORE PUSH1 0x10 PUSH1 0x20 MSTORE PUSH1 0x40 PUSH0 KECCAK256 DUP7 PUSH0 MSTORE PUSH1 0x20 MSTORE PUSH2 0x62E DUP2 PUSH1 0x40 PUSH0 KECCAK256 PUSH2 0x110C JUMP JUMPDEST SWAP1 SLOAD SWAP1 PUSH1 0x3 SHL SHR DUP1 PUSH0 MSTORE PUSH1 0x11 PUSH1 0x20 MSTORE PUSH1 0x2 PUSH1 0x40 PUSH0 KECCAK256 SLOAD LT PUSH2 0x653 JUMPI JUMPDEST POP PUSH1 0x1 ADD PUSH2 0x5EC JUMP JUMPDEST SWAP2 SWAP4 POP SWAP6 POP DUP7 PUSH0 MSTORE PUSH1 0xD PUSH1 0x20 MSTORE DUP1 PUSH1 0x5 PUSH1 0x40 PUSH0 KECCAK256 ADD SSTORE DUP1 PUSH0 MSTORE PUSH1 0x11 PUSH1 0x20 MSTORE PUSH1 0x40 PUSH0 KECCAK256 DUP1 SLOAD SWAP1 PUSH1 0x1 DUP3 ADD DUP1 SWAP3 GT PUSH2 0x513 JUMPI SSTORE SWAP2 PUSH1 0x1 DUP1 SWAP7 SWAP1 PUSH2 0x64A JUMP JUMPDEST POP SWAP3 SWAP4 PUSH1 0x1 SWAP1 SWAP6 SWAP2 SWAP6 JUMPDEST SWAP1 POP PUSH2 0x5DD JUMP JUMPDEST POP SWAP3 SWAP4 PUSH1 0x1 SWAP1 SWAP6 SWAP2 SWAP6 PUSH2 0x699 JUMP JUMPDEST PUSH2 0x593 JUMP JUMPDEST PUSH4 0x4E487B71 PUSH1 0xE0 SHL PUSH0 MSTORE PUSH1 0x41 PUSH1 0x4 MSTORE PUSH1 0x24 PUSH0 REVERT JUMPDEST PUSH2 0x6E8 SWAP1 PUSH1 0x20 RETURNDATASIZE PUSH1 0x20 GT PUSH2 0x6ED JUMPI JUMPDEST PUSH2 0x6E0 DUP2 DUP4 PUSH2 0x125A JUMP JUMPDEST DUP2 ADD SWAP1 PUSH2 0x127C JUMP JUMPDEST PUSH2 0x2CF JUMP JUMPDEST POP RETURNDATASIZE PUSH2 0x6D6 JUMP JUMPDEST PUSH1 0x40 MLOAD RETURNDATASIZE PUSH0 DUP3 RETURNDATACOPY RETURNDATASIZE SWAP1 REVERT JUMPDEST PUSH1 0x40 MLOAD PUSH3 0x461BCD PUSH1 0xE5 SHL DUP2 MSTORE PUSH1 0x20 PUSH1 0x4 DUP3 ADD MSTORE PUSH1 0xF PUSH1 0x24 DUP3 ADD MSTORE PUSH15 0x24B73B30B634B21039B837B739B7B9 PUSH1 0x89 SHL PUSH1 0x44 DUP3 ADD MSTORE PUSH1 0x64 SWAP1 REVERT JUMPDEST PUSH1 0x40 MLOAD PUSH3 0x461BCD PUSH1 0xE5 SHL DUP2 MSTORE PUSH1 0x20 PUSH1 0x4 DUP3 ADD MSTORE PUSH1 0x12 PUSH1 0x24 DUP3 ADD MSTORE PUSH18 0x105B1C9958591E481C9959DA5CDD195C9959 PUSH1 0x72 SHL PUSH1 0x44 DUP3 ADD MSTORE PUSH1 0x64 SWAP1 REVERT JUMPDEST CALLVALUE PUSH2 0x207 JUMPI PUSH0 CALLDATASIZE PUSH1 0x3 NOT ADD SLT PUSH2 0x207 JUMPI PUSH1 0x20 PUSH1 0x5 SLOAD PUSH1 0x40 MLOAD SWAP1 DUP2 MSTORE RETURN JUMPDEST CALLVALUE PUSH2 0x207 JUMPI PUSH0 CALLDATASIZE PUSH1 0x3 NOT ADD SLT PUSH2 0x207 JUMPI PUSH1 0x20 PUSH1 0x40 MLOAD PUSH9 0x3635C9ADC5DEA00000 DUP2 MSTORE RETURN JUMPDEST CALLVALUE PUSH2 0x207 JUMPI PUSH0 CALLDATASIZE PUSH1 0x3 NOT ADD SLT PUSH2 0x207 JUMPI PUSH1 0x3 SLOAD PUSH1 0x40 MLOAD PUSH1 0x1 PUSH1 0x1 PUSH1 0xA0 SHL SUB SWAP1 SWAP2 AND DUP2 MSTORE PUSH1 0x20 SWAP1 RETURN JUMPDEST CALLVALUE PUSH2 0x207 JUMPI PUSH0 CALLDATASIZE PUSH1 0x3 NOT ADD SLT PUSH2 0x207 JUMPI PUSH1 0x20 PUSH1 0x3E SLOAD PUSH1 0x40 MLOAD SWAP1 DUP2 MSTORE RETURN JUMPDEST CALLVALUE PUSH2 0x207 JUMPI PUSH1 0x20 CALLDATASIZE PUSH1 0x3 NOT ADD SLT PUSH2 0x207 JUMPI PUSH2 0x811 PUSH1 0x4 CALLDATALOAD PUSH2 0x1363 JUMP JUMPDEST STOP JUMPDEST CALLVALUE PUSH2 0x207 JUMPI PUSH0 CALLDATASIZE PUSH1 0x3 NOT ADD SLT PUSH2 0x207 JUMPI PUSH1 0x20 PUSH1 0x40 MLOAD PUSH1 0x5 DUP2 MSTORE RETURN JUMPDEST CALLVALUE PUSH2 0x207 JUMPI PUSH1 0x20 CALLDATASIZE PUSH1 0x3 NOT ADD SLT PUSH2 0x207 JUMPI PUSH1 0x4 CALLDATALOAD PUSH1 0x8 DUP2 LT ISZERO PUSH2 0x207 JUMPI PUSH1 0x20 SWAP1 PUSH1 0x1C ADD SLOAD PUSH1 0x40 MLOAD SWAP1 DUP2 MSTORE RETURN JUMPDEST CALLVALUE PUSH2 0x207 JUMPI PUSH0 CALLDATASIZE PUSH1 0x3 NOT ADD SLT PUSH2 0x207 JUMPI PUSH1 0x20 PUSH1 0x36 SLOAD PUSH1 0x40 MLOAD SWAP1 DUP2 MSTORE RETURN JUMPDEST CALLVALUE PUSH2 0x207 JUMPI PUSH0 CALLDATASIZE PUSH1 0x3 NOT ADD SLT PUSH2 0x207 JUMPI PUSH1 0x20 PUSH1 0x3D SLOAD PUSH1 0x40 MLOAD SWAP1 DUP2 MSTORE RETURN JUMPDEST CALLVALUE PUSH2 0x207 JUMPI PUSH0 CALLDATASIZE PUSH1 0x3 NOT ADD SLT PUSH2 0x207 JUMPI PUSH1 0x20 PUSH1 0x40 MLOAD PUSH10 0x21E19E0C9BAB2400000 DUP2 MSTORE RETURN JUMPDEST CALLVALUE PUSH2 0x207 JUMPI PUSH1 0x20 CALLDATASIZE PUSH1 0x3 NOT ADD SLT PUSH2 0x207 JUMPI PUSH1 0x4 CALLDATALOAD PUSH1 0xB SLOAD DUP2 LT ISZERO PUSH2 0x207 JUMPI PUSH2 0x8E1 PUSH1 0x20 SWAP2 PUSH2 0x10C2 JUMP JUMPDEST SWAP1 SLOAD SWAP1 PUSH1 0x3 SHL SHR PUSH1 0x40 MLOAD SWAP1 DUP2 MSTORE RETURN JUMPDEST CALLVALUE PUSH2 0x207 JUMPI PUSH0 CALLDATASIZE PUSH1 0x3 NOT ADD SLT PUSH2 0x207 JUMPI PUSH1 0x20 PUSH1 0x6 SLOAD PUSH1 0x40 MLOAD SWAP1 DUP2 MSTORE RETURN JUMPDEST CALLVALUE PUSH2 0x207 JUMPI PUSH1 0x20 CALLDATASIZE PUSH1 0x3 NOT ADD SLT PUSH2 0x207 JUMPI PUSH1 0x4 CALLDATALOAD PUSH1 0x13 SLOAD DUP2 LT ISZERO PUSH2 0x207 JUMPI PUSH1 0x13 SLOAD DUP2 LT ISZERO PUSH2 0x967 JUMPI PUSH1 0x13 PUSH0 MSTORE PUSH32 0x66DE8FFDA797E3DE9C05E8FC57B3BF0EC28A930D40B0D285D93C06501CF6A090 ADD SLOAD PUSH1 0x40 MLOAD SWAP1 DUP2 MSTORE PUSH1 0x20 SWAP1 RETURN JUMPDEST PUSH4 0x4E487B71 PUSH1 0xE0 SHL PUSH0 MSTORE PUSH1 0x32 PUSH1 0x4 MSTORE PUSH1 0x24 PUSH0 REVERT JUMPDEST CALLVALUE PUSH2 0x207 JUMPI PUSH0 CALLDATASIZE PUSH1 0x3 NOT ADD SLT PUSH2 0x207 JUMPI PUSH1 0x20 PUSH1 0x40 MLOAD PUSH3 0x83D600 DUP2 MSTORE RETURN JUMPDEST CALLVALUE PUSH2 0x207 JUMPI PUSH0 CALLDATASIZE PUSH1 0x3 NOT ADD SLT PUSH2 0x207 JUMPI PUSH1 0x20 PUSH1 0x3F SLOAD PUSH1 0x40 MLOAD SWAP1 DUP2 MSTORE RETURN JUMPDEST CALLVALUE PUSH2 0x207 JUMPI PUSH0 CALLDATASIZE PUSH1 0x3 NOT ADD SLT PUSH2 0x207 JUMPI PUSH1 0x20 PUSH1 0x45 SLOAD PUSH1 0x40 MLOAD SWAP1 DUP2 MSTORE RETURN JUMPDEST CALLVALUE PUSH2 0x207 JUMPI PUSH1 0x20 CALLDATASIZE PUSH1 0x3 NOT ADD SLT PUSH2 0x207 JUMPI PUSH1 0x4 CALLDATALOAD PUSH1 0x8 DUP2 LT ISZERO PUSH2 0x207 JUMPI PUSH1 0x20 SWAP1 PUSH1 0x24 ADD SLOAD PUSH1 0x40 MLOAD SWAP1 DUP2 MSTORE RETURN JUMPDEST CALLVALUE PUSH2 0x207 JUMPI PUSH0 CALLDATASIZE PUSH1 0x3 NOT ADD SLT PUSH2 0x207 JUMPI PUSH1 0x2 SLOAD PUSH1 0x40 MLOAD PUSH1 0x1 PUSH1 0x1 PUSH1 0xA0 SHL SUB SWAP1 SWAP2 AND DUP2 MSTORE PUSH1 0x20 SWAP1 RETURN JUMPDEST CALLVALUE PUSH2 0x207 JUMPI PUSH0 CALLDATASIZE PUSH1 0x3 NOT ADD SLT PUSH2 0x207 JUMPI PUSH1 0x20 PUSH1 0x9 SLOAD PUSH1 0x40 MLOAD SWAP1 DUP2 MSTORE RETURN JUMPDEST CALLVALUE PUSH2 0x207 JUMPI PUSH0 CALLDATASIZE PUSH1 0x3 NOT ADD SLT PUSH2 0x207 JUMPI PUSH1 0x20 PUSH1 0x40 MLOAD PUSH3 0x93A80 DUP2 MSTORE RETURN JUMPDEST CALLVALUE PUSH2 0x207 JUMPI PUSH0 CALLDATASIZE PUSH1 0x3 NOT ADD SLT PUSH2 0x207 JUMPI PUSH1 0x20 PUSH1 0x40 MLOAD PUSH4 0x2514300 DUP2 MSTORE RETURN JUMPDEST CALLVALUE PUSH2 0x207 JUMPI PUSH0 CALLDATASIZE PUSH1 0x3 NOT ADD SLT PUSH2 0x207 JUMPI PUSH1 0x20 PUSH1 0x46 SLOAD PUSH1 0x40 MLOAD SWAP1 DUP2 MSTORE RETURN JUMPDEST PUSH2 0x1121 JUMP JUMPDEST CALLVALUE PUSH2 0x207 JUMPI PUSH0 CALLDATASIZE PUSH1 0x3 NOT ADD SLT PUSH2 0x207 JUMPI PUSH1 0x20 PUSH1 0x44 SLOAD PUSH1 0x40 MLOAD SWAP1 DUP2 MSTORE RETURN JUMPDEST CALLVALUE PUSH2 0x207 JUMPI PUSH1 0x20 CALLDATASIZE PUSH1 0x3 NOT ADD SLT PUSH2 0x207 JUMPI PUSH1 0x4 CALLDATALOAD DUP1 PUSH0 MSTORE PUSH1 0xD PUSH1 0x20 MSTORE PUSH1 0x40 PUSH0 KECCAK256 PUSH2 0xAF1 PUSH1 0x1 DUP1 PUSH1 0xA0 SHL SUB DUP3 SLOAD AND CALLER EQ PUSH2 0x11E3 JUMP JUMPDEST PUSH1 0x6 DUP2 ADD SWAP1 DUP2 SLOAD SWAP2 PUSH1 0xF DUP4 LT ISZERO PUSH2 0xEA1 JUMPI PUSH2 0xB0B DUP4 PUSH2 0x10C2 JUMP JUMPDEST SWAP1 SLOAD PUSH1 0x1 SLOAD PUSH1 0x40 MLOAD PUSH4 0x23B872DD PUSH1 0xE0 SHL DUP2 MSTORE CALLER PUSH1 0x4 DUP3 ADD MSTORE ADDRESS PUSH1 0x24 DUP3 ADD MSTORE PUSH1 0x3 SWAP4 SWAP1 SWAP4 SHL SWAP2 SWAP1 SWAP2 SHR PUSH1 0x44 DUP4 ADD DUP2 SWAP1 MSTORE SWAP3 SWAP2 SWAP1 PUSH1 0x20 SWAP1 DUP3 SWAP1 PUSH1 0x64 SWAP1 DUP3 SWAP1 PUSH0 SWAP1 PUSH1 0x1 PUSH1 0x1 PUSH1 0xA0 SHL SUB AND GAS CALL DUP1 ISZERO PUSH2 0x6F4 JUMPI PUSH2 0xE84 JUMPI JUMPDEST POP DUP1 SLOAD SWAP1 PUSH1 0x1 DUP3 ADD DUP1 SWAP3 GT PUSH2 0x513 JUMPI SSTORE PUSH1 0xA DUP3 ADD PUSH2 0xB7E DUP3 DUP3 SLOAD PUSH2 0x1294 JUMP JUMPDEST SWAP1 SSTORE PUSH2 0xBAE PUSH1 0x40 MLOAD PUSH2 0xB8F DUP2 PUSH2 0x1222 JUMP JUMPDEST DUP3 DUP2 MSTORE PUSH0 PUSH1 0x20 DUP3 ADD MSTORE TIMESTAMP PUSH1 0x40 DUP3 ADD MSTORE PUSH1 0x1 PUSH1 0x60 DUP3 ADD MSTORE PUSH1 0x1 DUP5 ADD PUSH2 0x12A1 JUMP JUMPDEST PUSH1 0x5 DUP2 MUL DUP2 ISZERO SWAP1 DUP3 DUP2 DIV PUSH1 0x5 EQ DUP3 OR ISZERO PUSH2 0x513 JUMPI PUSH1 0x19 DUP4 MUL DUP4 DUP2 DIV PUSH1 0x19 EQ DUP4 OR ISZERO PUSH2 0x513 JUMPI PUSH2 0xBE4 SWAP2 PUSH2 0x4BE PUSH1 0x64 DUP1 SWAP4 DIV PUSH2 0x1612 JUMP JUMPDEST PUSH1 0x14 DUP3 MUL SWAP2 DUP3 DIV PUSH1 0x14 EQ OR ISZERO PUSH2 0x513 JUMPI PUSH1 0x64 SWAP1 DIV SWAP1 PUSH1 0x4 DUP2 ADD SWAP2 DUP3 SLOAD SWAP4 PUSH1 0x1 DUP2 ADD SWAP5 DUP6 DUP3 GT PUSH2 0x513 JUMPI DUP3 PUSH2 0xC1E DUP8 PUSH2 0xC36 SWAP6 DUP11 DUP3 SWAP6 PUSH2 0x18E5 JUMP JUMPDEST DUP8 PUSH1 0x5 DUP7 ADD PUSH2 0xC30 DUP5 DUP5 DUP5 DUP5 SLOAD PUSH2 0x1A42 JUMP JUMPDEST SLOAD PUSH2 0x1C2C JUMP JUMPDEST PUSH1 0xA DUP4 EQ PUSH2 0xD9E JUMPI JUMPDEST PUSH1 0xF DUP4 EQ PUSH2 0xCAA JUMPI JUMPDEST POP POP PUSH1 0x40 MLOAD SWAP1 DUP2 MSTORE PUSH1 0x60 PUSH1 0x20 DUP3 ADD MSTORE PUSH1 0x15 PUSH1 0x60 DUP3 ADD MSTORE PUSH21 0x53706F6E736F727368697020737472756374757265 PUSH1 0x58 SHL PUSH1 0x80 DUP3 ADD MSTORE TIMESTAMP PUSH1 0x40 DUP3 ADD MSTORE PUSH32 0xAE1560E7D725CAF8D266D531BF32F170B87264ECA8D1265202C334CFEB5BC382 PUSH1 0xA0 CALLER SWAP3 LOG3 STOP JUMPDEST PUSH1 0x11 TIMESTAMP SWAP2 ADD SSTORE DUP3 PUSH0 MSTORE PUSH1 0xD PUSH1 0x20 MSTORE PUSH1 0x40 PUSH0 KECCAK256 SWAP1 SLOAD PUSH0 MSTORE PUSH1 0xD PUSH1 0x20 MSTORE PUSH1 0x40 PUSH0 KECCAK256 PUSH1 0x13 DUP2 ADD DUP1 SLOAD PUSH1 0x1 DUP2 ADD DUP1 SWAP2 GT PUSH2 0x513 JUMPI DUP1 PUSH1 0x2 SWAP3 SSTORE LT ISZERO SWAP1 DUP2 PUSH2 0xD80 JUMPI JUMPDEST DUP2 PUSH2 0xD70 JUMPI JUMPDEST POP PUSH2 0xD5A JUMPI JUMPDEST PUSH1 0x2 PUSH1 0x13 DUP3 ADD SLOAD LT ISZERO SWAP1 DUP2 PUSH2 0xD37 JUMPI JUMPDEST DUP2 PUSH2 0xD28 JUMPI JUMPDEST POP PUSH2 0xD17 JUMPI JUMPDEST DUP3 DUP1 PUSH2 0xC48 JUMP JUMPDEST PUSH2 0xD23 PUSH1 0x44 SLOAD DUP4 PUSH2 0x1FFC JUMP JUMPDEST PUSH2 0xD10 JUMP JUMPDEST PUSH1 0xF SWAP2 POP PUSH1 0x6 ADD SLOAD EQ DUP4 PUSH2 0xD0A JUMP JUMPDEST SWAP1 POP PUSH1 0x11 DUP2 ADD SLOAD PUSH1 0xF DUP3 ADD SLOAD SWAP1 PUSH4 0x2514300 DUP3 ADD DUP1 SWAP3 GT PUSH2 0x513 JUMPI GT ISZERO SWAP1 PUSH2 0xD04 JUMP JUMPDEST PUSH2 0xD6B PUSH1 0x4 DUP3 ADD SLOAD PUSH1 0x44 SLOAD SWAP1 PUSH2 0x1FFC JUMP JUMPDEST PUSH2 0xCF4 JUMP JUMPDEST PUSH1 0xF SWAP2 POP PUSH1 0x6 ADD SLOAD LT ISZERO DUP5 PUSH2 0xCEE JUMP JUMPDEST SWAP1 POP PUSH1 0xF DUP2 ADD SLOAD PUSH4 0x2514300 DUP2 ADD DUP1 SWAP2 GT PUSH2 0x513 JUMPI TIMESTAMP GT ISZERO SWAP1 PUSH2 0xCE8 JUMP JUMPDEST TIMESTAMP PUSH1 0x10 DUP3 ADD SSTORE PUSH0 DUP5 DUP2 MSTORE PUSH1 0xD PUSH1 0x20 MSTORE PUSH1 0x40 DUP1 DUP3 KECCAK256 DUP5 SLOAD DUP4 MSTORE SWAP2 KECCAK256 PUSH1 0x12 DUP2 ADD DUP1 SLOAD PUSH1 0x1 DUP2 ADD SWAP1 DUP2 LT PUSH2 0x513 JUMPI DUP1 PUSH1 0x5 SWAP3 SSTORE LT ISZERO SWAP1 DUP2 PUSH2 0xE67 JUMPI JUMPDEST DUP2 PUSH2 0xE57 JUMPI JUMPDEST POP PUSH2 0xE41 JUMPI JUMPDEST PUSH1 0x5 PUSH1 0x12 DUP3 ADD SLOAD LT ISZERO SWAP1 DUP2 PUSH2 0xE1F JUMPI JUMPDEST DUP2 PUSH2 0xE10 JUMPI JUMPDEST POP ISZERO PUSH2 0xC3F JUMPI PUSH2 0xE0B PUSH1 0x3D SLOAD DUP6 PUSH2 0x1E9B JUMP JUMPDEST PUSH2 0xC3F JUMP JUMPDEST PUSH1 0xA SWAP2 POP PUSH1 0x6 ADD SLOAD EQ DUP6 PUSH2 0xDF9 JUMP JUMPDEST SWAP1 POP PUSH1 0x10 DUP2 ADD SLOAD PUSH1 0xF DUP3 ADD SLOAD SWAP1 PUSH3 0x83D600 DUP3 ADD DUP1 SWAP3 GT PUSH2 0x513 JUMPI GT ISZERO SWAP1 PUSH2 0xDF3 JUMP JUMPDEST PUSH2 0xE52 PUSH1 0x4 DUP3 ADD SLOAD PUSH1 0x3D SLOAD SWAP1 PUSH2 0x1E9B JUMP JUMPDEST PUSH2 0xDE3 JUMP JUMPDEST PUSH1 0xA SWAP2 POP PUSH1 0x6 ADD SLOAD LT ISZERO DUP7 PUSH2 0xDDD JUMP JUMPDEST SWAP1 POP PUSH1 0xF DUP2 ADD SLOAD PUSH3 0x83D600 DUP2 ADD DUP1 SWAP2 GT PUSH2 0x513 JUMPI TIMESTAMP GT ISZERO SWAP1 PUSH2 0xDD7 JUMP JUMPDEST PUSH2 0xE9C SWAP1 PUSH1 0x20 RETURNDATASIZE PUSH1 0x20 GT PUSH2 0x6ED JUMPI PUSH2 0x6E0 DUP2 DUP4 PUSH2 0x125A JUMP JUMPDEST PUSH2 0xB5F JUMP JUMPDEST PUSH1 0x40 MLOAD PUSH3 0x461BCD PUSH1 0xE5 SHL DUP2 MSTORE PUSH1 0x20 PUSH1 0x4 DUP3 ADD MSTORE PUSH1 0x14 PUSH1 0x24 DUP3 ADD MSTORE PUSH20 0x105B1C9958591E48185D081B585E081B195D995B PUSH1 0x62 SHL PUSH1 0x44 DUP3 ADD MSTORE PUSH1 0x64 SWAP1 REVERT JUMPDEST CALLVALUE PUSH2 0x207 JUMPI PUSH1 0x20 CALLDATASIZE PUSH1 0x3 NOT ADD SLT PUSH2 0x207 JUMPI PUSH1 0x4 CALLDATALOAD PUSH1 0x7 SLOAD DUP2 LT ISZERO PUSH2 0x207 JUMPI PUSH1 0x7 SLOAD DUP2 LT ISZERO PUSH2 0x967 JUMPI PUSH1 0x7 PUSH0 MSTORE PUSH32 0xA66CC928B5EDB82AF9BD49922954155AB7B0942694BEA4CE44661D9A8736C688 ADD SLOAD PUSH1 0x40 MLOAD SWAP1 DUP2 MSTORE PUSH1 0x20 SWAP1 RETURN JUMPDEST PUSH2 0x113C JUMP JUMPDEST CALLVALUE PUSH2 0x207 JUMPI PUSH0 CALLDATASIZE PUSH1 0x3 NOT ADD SLT PUSH2 0x207 JUMPI PUSH1 0x20 PUSH1 0x40 MLOAD PUSH8 0xDE0B6B3A7640000 DUP2 MSTORE RETURN JUMPDEST CALLVALUE PUSH2 0x207 JUMPI PUSH0 CALLDATASIZE PUSH1 0x3 NOT ADD SLT PUSH2 0x207 JUMPI PUSH1 0x20 PUSH1 0x40 MLOAD PUSH3 0x15180 DUP2 MSTORE RETURN JUMPDEST CALLVALUE PUSH2 0x207 JUMPI PUSH0 CALLDATASIZE PUSH1 0x3 NOT ADD SLT PUSH2 0x207 JUMPI PUSH1 0x20 PUSH1 0x40 MLOAD PUSH1 0x2 DUP2 MSTORE RETURN JUMPDEST CALLVALUE PUSH2 0x207 JUMPI PUSH0 CALLDATASIZE PUSH1 0x3 NOT ADD SLT PUSH2 0x207 JUMPI PUSH1 0x20 PUSH1 0x38 SLOAD PUSH1 0x40 MLOAD SWAP1 DUP2 MSTORE RETURN JUMPDEST CALLVALUE PUSH2 0x207 JUMPI PUSH0 CALLDATASIZE PUSH1 0x3 NOT ADD SLT PUSH2 0x207 JUMPI PUSH1 0x1 SLOAD PUSH1 0x40 MLOAD PUSH1 0x1 PUSH1 0x1 PUSH1 0xA0 SHL SUB SWAP1 SWAP2 AND DUP2 MSTORE PUSH1 0x20 SWAP1 RETURN JUMPDEST CALLVALUE PUSH2 0x207 JUMPI PUSH0 CALLDATASIZE PUSH1 0x3 NOT ADD SLT PUSH2 0x207 JUMPI PUSH1 0x20 PUSH1 0x40 MLOAD PUSH3 0x278D00 DUP2 MSTORE RETURN JUMPDEST CALLVALUE PUSH2 0x207 JUMPI PUSH1 0x20 CALLDATASIZE PUSH1 0x3 NOT ADD SLT PUSH2 0x207 JUMPI PUSH1 0x40 PUSH2 0x1016 PUSH1 0x4 CALLDATALOAD PUSH2 0x1182 JUMP JUMPDEST DUP3 MLOAD SWAP2 DUP3 MSTORE PUSH1 0x20 DUP3 ADD MSTORE RETURN JUMPDEST CALLVALUE PUSH2 0x207 JUMPI PUSH1 0x20 CALLDATASIZE PUSH1 0x3 NOT ADD SLT PUSH2 0x207 JUMPI PUSH1 0x4 CALLDATALOAD PUSH1 0x14 SLOAD DUP2 LT ISZERO PUSH2 0x207 JUMPI PUSH1 0x14 SLOAD DUP2 LT ISZERO PUSH2 0x967 JUMPI PUSH1 0x14 PUSH0 MSTORE PUSH32 0xCE6D7B5282BD9A3661AE061FEED1DBDA4E52AB073B1F9285BE6E155D9C38D4EC ADD SLOAD PUSH1 0x40 MLOAD SWAP1 DUP2 MSTORE PUSH1 0x20 SWAP1 RETURN JUMPDEST CALLVALUE PUSH2 0x207 JUMPI PUSH1 0x20 CALLDATASIZE PUSH1 0x3 NOT ADD SLT PUSH2 0x207 JUMPI PUSH1 0x4 CALLDATALOAD PUSH1 0x7 DUP2 LT ISZERO PUSH2 0x207 JUMPI PUSH1 0x20 SWAP1 PUSH1 0x15 ADD SLOAD PUSH1 0x40 MLOAD SWAP1 DUP2 MSTORE RETURN JUMPDEST CALLVALUE PUSH2 0x207 JUMPI PUSH0 CALLDATASIZE PUSH1 0x3 NOT ADD SLT PUSH2 0x207 JUMPI DUP1 PUSH2 0x2710 PUSH1 0x20 SWAP3 MSTORE RETURN JUMPDEST PUSH1 0xB SLOAD DUP2 LT ISZERO PUSH2 0x967 JUMPI PUSH1 0xB PUSH0 MSTORE PUSH1 0x20 PUSH0 KECCAK256 ADD SWAP1 PUSH0 SWAP1 JUMP JUMPDEST PUSH1 0xB SLOAD ISZERO PUSH2 0x967 JUMPI PUSH1 0xB PUSH0 SWAP1 DUP2 MSTORE PUSH32 0x175B7A638427703F0DBE7BB9BBF987A2551717B34E79F33B5B1008D1FA01DB9 SWAP2 JUMP JUMPDEST DUP1 SLOAD DUP3 LT ISZERO PUSH2 0x967 JUMPI PUSH0 MSTORE PUSH1 0x20 PUSH0 KECCAK256 ADD SWAP1 PUSH0 SWAP1 JUMP JUMPDEST CALLVALUE PUSH2 0x207 JUMPI PUSH0 CALLDATASIZE PUSH1 0x3 NOT ADD SLT PUSH2 0x207 JUMPI PUSH1 0x20 PUSH1 0x40 MLOAD PUSH1 0xA DUP2 MSTORE RETURN JUMPDEST CALLVALUE PUSH2 0x207 JUMPI PUSH0 CALLDATASIZE PUSH1 0x3 NOT ADD SLT PUSH2 0x207 JUMPI PUSH1 0x20 PUSH1 0x40 MLOAD PUSH1 0xF DUP2 MSTORE RETURN JUMPDEST SWAP2 SWAP1 DUP3 SUB SWAP2 DUP3 GT PUSH2 0x513 JUMPI JUMP JUMPDEST DUP2 ISZERO PUSH2 0x116E JUMPI DIV SWAP1 JUMP JUMPDEST PUSH4 0x4E487B71 PUSH1 0xE0 SHL PUSH0 MSTORE PUSH1 0x12 PUSH1 0x4 MSTORE PUSH1 0x24 PUSH0 REVERT JUMPDEST SWAP1 DUP2 PUSH0 MSTORE PUSH1 0xD PUSH1 0x20 MSTORE PUSH1 0x3 PUSH1 0x40 PUSH0 KECCAK256 ADD SLOAD ISZERO PUSH2 0x11DC JUMPI PUSH1 0x9 SLOAD DUP3 PUSH0 MSTORE PUSH1 0xA PUSH1 0x20 MSTORE PUSH1 0x40 PUSH0 KECCAK256 SLOAD SWAP1 DUP2 DUP2 GT ISZERO PUSH2 0x11D2 JUMPI PUSH2 0x11C7 PUSH2 0x11CF SWAP3 PUSH8 0xDE0B6B3A7640000 SWAP3 PUSH2 0x1157 JUMP JUMPDEST DIV DUP1 SWAP4 PUSH2 0x15A6 JUMP JUMPDEST SWAP1 JUMP JUMPDEST POP POP SWAP1 POP PUSH0 SWAP1 PUSH0 SWAP1 JUMP JUMPDEST PUSH0 SWAP2 POP DUP2 SWAP1 JUMP JUMPDEST ISZERO PUSH2 0x11EA JUMPI JUMP JUMPDEST PUSH1 0x40 MLOAD PUSH3 0x461BCD PUSH1 0xE5 SHL DUP2 MSTORE PUSH1 0x20 PUSH1 0x4 DUP3 ADD MSTORE PUSH1 0x10 PUSH1 0x24 DUP3 ADD MSTORE PUSH16 0x139BDD081E5BDD5C881858D8DBDD5B9D PUSH1 0x82 SHL PUSH1 0x44 DUP3 ADD MSTORE PUSH1 0x64 SWAP1 REVERT JUMPDEST PUSH1 0x80 DUP2 ADD SWAP1 DUP2 LT PUSH8 0xFFFFFFFFFFFFFFFF DUP3 GT OR PUSH2 0x6B3 JUMPI PUSH1 0x40 MSTORE JUMP JUMPDEST PUSH1 0xA0 DUP2 ADD SWAP1 DUP2 LT PUSH8 0xFFFFFFFFFFFFFFFF DUP3 GT OR PUSH2 0x6B3 JUMPI PUSH1 0x40 MSTORE JUMP JUMPDEST SWAP1 PUSH1 0x1F DUP1 NOT SWAP2 ADD AND DUP2 ADD SWAP1 DUP2 LT PUSH8 0xFFFFFFFFFFFFFFFF DUP3 GT OR PUSH2 0x6B3 JUMPI PUSH1 0x40 MSTORE JUMP JUMPDEST SWAP1 DUP2 PUSH1 0x20 SWAP2 SUB SLT PUSH2 0x207 JUMPI MLOAD DUP1 ISZERO ISZERO DUP2 SUB PUSH2 0x207 JUMPI SWAP1 JUMP JUMPDEST SWAP2 SWAP1 DUP3 ADD DUP1 SWAP3 GT PUSH2 0x513 JUMPI JUMP JUMPDEST DUP1 SLOAD PUSH1 0x1 PUSH1 0x40 SHL DUP2 LT ISZERO PUSH2 0x6B3 JUMPI PUSH1 0x1 DUP2 ADD DUP1 DUP4 SSTORE DUP2 LT ISZERO PUSH2 0x967 JUMPI PUSH1 0x3 PUSH1 0x60 SWAP2 PUSH1 0xFF SWAP4 PUSH0 MSTORE PUSH1 0x20 PUSH0 KECCAK256 SWAP1 PUSH1 0x2 SHL ADD DUP5 MLOAD DUP2 SSTORE PUSH1 0x20 DUP6 ADD MLOAD PUSH1 0x1 DUP3 ADD SSTORE PUSH1 0x40 DUP6 ADD MLOAD PUSH1 0x2 DUP3 ADD SSTORE ADD SWAP3 ADD MLOAD AND PUSH1 0xFF NOT DUP3 SLOAD AND OR SWAP1 SSTORE JUMP JUMPDEST DUP2 DUP2 MUL SWAP3 SWAP2 DUP2 ISZERO SWAP2 DUP5 DIV EQ OR ISZERO PUSH2 0x513 JUMPI JUMP JUMPDEST DUP1 SLOAD SWAP1 PUSH1 0x1 PUSH1 0x40 SHL DUP3 LT ISZERO PUSH2 0x6B3 JUMPI PUSH1 0x1 DUP3 ADD DUP1 DUP3 SSTORE DUP3 LT ISZERO PUSH2 0x967 JUMPI PUSH1 0x4 SWAP2 PUSH1 0x80 SWAP2 PUSH0 MSTORE PUSH1 0x5 PUSH1 0x20 PUSH0 KECCAK256 SWAP2 MUL ADD SWAP3 DUP1 MLOAD DUP5 SSTORE PUSH1 0x20 DUP2 ADD MLOAD PUSH1 0x1 DUP6 ADD SSTORE PUSH1 0x40 DUP2 ADD MLOAD PUSH1 0x2 DUP6 ADD SSTORE PUSH1 0x60 DUP2 ADD MLOAD PUSH1 0x3 DUP6 ADD SSTORE ADD MLOAD SWAP2 ADD SSTORE JUMP JUMPDEST DUP1 PUSH0 MSTORE PUSH1 0xD PUSH1 0x20 MSTORE PUSH1 0x40 PUSH0 KECCAK256 SWAP1 PUSH1 0x3 DUP3 ADD SLOAD ISZERO PUSH2 0x153C JUMPI PUSH2 0x138E PUSH1 0x1 DUP1 PUSH1 0xA0 SHL SUB DUP4 SLOAD AND CALLER EQ PUSH2 0x11E3 JUMP JUMPDEST PUSH1 0x9 SLOAD SWAP2 DUP2 PUSH0 MSTORE PUSH1 0xA PUSH1 0x20 MSTORE PUSH1 0x40 PUSH0 KECCAK256 SLOAD DUP1 DUP5 EQ PUSH2 0x1536 JUMPI PUSH2 0x13B9 PUSH8 0xDE0B6B3A7640000 SWAP2 DUP6 PUSH2 0x1157 JUMP JUMPDEST DIV SWAP2 DUP3 ISZERO PUSH2 0x1525 JUMPI PUSH2 0x13CB DUP4 DUP3 PUSH2 0x15A6 JUMP JUMPDEST SWAP4 DUP2 PUSH0 MSTORE PUSH1 0xA PUSH1 0x20 MSTORE PUSH1 0x40 PUSH0 KECCAK256 SSTORE DUP4 DUP1 PUSH2 0x1401 JUMPI JUMPDEST SWAP2 POP POP DUP2 GT PUSH2 0x13ED JUMPI POP POP JUMP JUMPDEST PUSH2 0x13FF SWAP2 PUSH2 0x13FA SWAP2 PUSH2 0x1157 JUMP JUMPDEST PUSH2 0x1679 JUMP JUMPDEST JUMP JUMPDEST PUSH2 0x14AA SWAP3 PUSH2 0x146B DUP4 PUSH1 0x20 SWAP5 PUSH0 MSTORE PUSH1 0xE DUP6 MSTORE PUSH1 0x6 PUSH1 0x40 PUSH0 KECCAK256 PUSH2 0x1423 DUP7 DUP3 SLOAD PUSH2 0x1294 JUMP JUMPDEST DUP2 SSTORE ADD PUSH2 0x1431 DUP6 DUP3 SLOAD PUSH2 0x1294 JUMP JUMPDEST SWAP1 SSTORE DUP1 PUSH0 MSTORE PUSH1 0xF DUP6 MSTORE PUSH1 0x40 PUSH0 KECCAK256 PUSH1 0x40 MLOAD SWAP2 PUSH2 0x144B DUP4 PUSH2 0x123E JUMP JUMPDEST DUP3 MSTORE DUP5 DUP7 DUP4 ADD MSTORE PUSH1 0x1 PUSH1 0x40 DUP4 ADD MSTORE TIMESTAMP PUSH1 0x60 DUP4 ADD MSTORE PUSH1 0x9 PUSH1 0x80 DUP4 ADD MSTORE PUSH2 0x130B JUMP JUMPDEST PUSH1 0x1 SLOAD SWAP1 SLOAD PUSH1 0x40 MLOAD PUSH4 0xA9059CBB PUSH1 0xE0 SHL DUP2 MSTORE PUSH1 0x1 PUSH1 0x1 PUSH1 0xA0 SHL SUB SWAP2 DUP3 AND PUSH1 0x4 DUP3 ADD MSTORE PUSH1 0x24 DUP2 ADD SWAP4 SWAP1 SWAP4 MSTORE SWAP2 SWAP4 DUP5 SWAP3 SWAP1 SWAP2 AND SWAP1 DUP3 SWAP1 PUSH0 SWAP1 DUP3 SWAP1 PUSH1 0x44 DUP3 ADD SWAP1 JUMP JUMPDEST SUB SWAP3 GAS CALL SWAP1 DUP2 ISZERO PUSH2 0x6F4 JUMPI PUSH0 SWAP2 PUSH2 0x1506 JUMPI JUMPDEST POP ISZERO PUSH2 0x14CA JUMPI PUSH0 DUP1 DUP4 PUSH2 0x13E0 JUMP JUMPDEST PUSH1 0x40 MLOAD PUSH3 0x461BCD PUSH1 0xE5 SHL DUP2 MSTORE PUSH1 0x20 PUSH1 0x4 DUP3 ADD MSTORE PUSH1 0x14 PUSH1 0x24 DUP3 ADD MSTORE PUSH20 0x1554D115081D1C985B9CD9995C8819985A5B1959 PUSH1 0x62 SHL PUSH1 0x44 DUP3 ADD MSTORE PUSH1 0x64 SWAP1 REVERT JUMPDEST PUSH2 0x151F SWAP2 POP PUSH1 0x20 RETURNDATASIZE PUSH1 0x20 GT PUSH2 0x6ED JUMPI PUSH2 0x6E0 DUP2 DUP4 PUSH2 0x125A JUMP JUMPDEST PUSH0 PUSH2 0x14BC JUMP JUMPDEST SWAP2 POP POP PUSH0 MSTORE PUSH1 0xA PUSH1 0x20 MSTORE PUSH1 0x40 PUSH0 KECCAK256 SSTORE JUMP JUMPDEST POP POP POP POP JUMP JUMPDEST PUSH1 0x40 MLOAD PUSH3 0x461BCD PUSH1 0xE5 SHL DUP2 MSTORE PUSH1 0x20 PUSH1 0x4 DUP3 ADD MSTORE PUSH1 0xE PUSH1 0x24 DUP3 ADD MSTORE PUSH14 0x155CD95C881B9BDD08199BDD5B99 PUSH1 0x92 SHL PUSH1 0x44 DUP3 ADD MSTORE PUSH1 0x64 SWAP1 REVERT JUMPDEST DUP1 SLOAD PUSH1 0x1 PUSH1 0x40 SHL DUP2 LT ISZERO PUSH2 0x6B3 JUMPI PUSH2 0x158F SWAP2 PUSH1 0x1 DUP3 ADD DUP2 SSTORE PUSH2 0x110C JUMP JUMPDEST DUP2 SWAP3 SWAP2 SLOAD SWAP1 PUSH1 0x3 SHL SWAP2 DUP3 SHL SWAP2 PUSH0 NOT SWAP1 SHL NOT AND OR SWAP1 SSTORE JUMP JUMPDEST DUP1 PUSH0 MSTORE PUSH1 0xD PUSH1 0x20 MSTORE PUSH1 0x40 PUSH0 KECCAK256 SWAP1 PUSH0 MSTORE PUSH1 0xE PUSH1 0x20 MSTORE PUSH1 0xA PUSH2 0x15DC PUSH1 0x40 PUSH0 KECCAK256 SWAP3 PUSH1 0xF SWAP1 PUSH1 0x1 PUSH1 0x8 DUP3 ADD SLOAD GT PUSH2 0x1609 JUMPI JUMPDEST DUP4 ADD SLOAD PUSH2 0x12F8 JUMP JUMPDEST DIV SWAP1 SLOAD DUP2 DUP2 LT ISZERO PUSH2 0x1602 JUMPI PUSH2 0x15F0 SWAP2 PUSH2 0x1157 JUMP JUMPDEST SWAP1 DUP2 DUP2 GT ISZERO PUSH2 0x15FD JUMPI POP SWAP1 JUMP JUMPDEST SWAP1 POP SWAP1 JUMP JUMPDEST POP POP POP PUSH0 SWAP1 JUMP JUMPDEST PUSH1 0x14 SWAP2 POP PUSH2 0x15D4 JUMP JUMPDEST PUSH1 0x7 SLOAD SWAP1 DUP2 ISZERO DUP1 ISZERO PUSH2 0x1671 JUMPI JUMPDEST PUSH2 0x165E JUMPI PUSH8 0xDE0B6B3A7640000 DUP2 MUL SWAP1 DUP1 DUP3 DIV PUSH8 0xDE0B6B3A7640000 EQ SWAP1 ISZERO OR ISZERO PUSH2 0x513 JUMPI PUSH2 0x1659 SWAP2 PUSH2 0x1651 SWAP2 PUSH2 0x1164 JUMP JUMPDEST PUSH1 0x9 SLOAD PUSH2 0x1294 JUMP JUMPDEST PUSH1 0x9 SSTORE JUMP JUMPDEST DUP1 SWAP2 POP PUSH2 0x1668 JUMPI POP JUMP JUMPDEST PUSH2 0x13FF SWAP1 PUSH2 0x1679 JUMP JUMPDEST POP DUP1 ISZERO PUSH2 0x161F JUMP JUMPDEST PUSH1 0x2 SLOAD PUSH1 0x1 PUSH1 0x1 PUSH1 0xA0 SHL SUB AND DUP1 ISZERO PUSH2 0x176D JUMPI PUSH1 0x1 SLOAD PUSH1 0x40 MLOAD PUSH4 0xA9059CBB PUSH1 0xE0 SHL PUSH1 0x20 DUP1 DUP4 ADD SWAP2 DUP3 MSTORE PUSH1 0x1 PUSH1 0x1 PUSH1 0xA0 SHL SUB SWAP5 DUP6 AND PUSH1 0x24 DUP5 ADD MSTORE PUSH1 0x44 DUP1 DUP5 ADD DUP8 SWAP1 MSTORE DUP4 MSTORE SWAP4 SWAP1 SWAP3 AND SWAP3 SWAP2 PUSH0 SWAP2 PUSH2 0x16CE PUSH1 0x64 DUP3 PUSH2 0x125A JUMP JUMPDEST MLOAD SWAP1 DUP3 DUP6 GAS CALL ISZERO PUSH2 0x6F4 JUMPI PUSH0 MLOAD RETURNDATASIZE PUSH2 0x1764 JUMPI POP DUP1 EXTCODESIZE ISZERO JUMPDEST PUSH2 0x1752 JUMPI POP PUSH1 0x80 SWAP1 PUSH1 0x5 SLOAD PUSH0 MSTORE PUSH1 0xE PUSH1 0x20 MSTORE PUSH1 0x40 PUSH0 KECCAK256 PUSH2 0x1706 DUP3 DUP3 SLOAD PUSH2 0x1294 JUMP JUMPDEST SWAP1 SSTORE PUSH32 0xF67C60BC8519C61563AC616D368A6DF646202C88D10744D736438BC4FBE2816 PUSH1 0x1 DUP1 PUSH1 0xA0 SHL SUB PUSH1 0x2 SLOAD AND SWAP3 DUP4 SWAP3 PUSH1 0x40 MLOAD SWAP1 DUP2 MSTORE PUSH0 PUSH1 0x20 DUP3 ADD MSTORE PUSH0 PUSH1 0x40 DUP3 ADD MSTORE TIMESTAMP PUSH1 0x60 DUP3 ADD MSTORE LOG3 JUMP JUMPDEST PUSH4 0x5274AFE7 PUSH1 0xE0 SHL PUSH0 MSTORE PUSH1 0x4 MSTORE PUSH1 0x24 PUSH0 REVERT JUMPDEST PUSH1 0x1 EQ ISZERO PUSH2 0x16E5 JUMP JUMPDEST PUSH1 0x40 MLOAD PUSH3 0x461BCD PUSH1 0xE5 SHL DUP2 MSTORE PUSH1 0x20 PUSH1 0x4 DUP3 ADD MSTORE PUSH1 0x11 PUSH1 0x24 DUP3 ADD MSTORE PUSH17 0x199959481859191C9CC81B9BDD081CD95D PUSH1 0x7A SHL PUSH1 0x44 DUP3 ADD MSTORE PUSH1 0x64 SWAP1 REVERT JUMPDEST DUP1 ISZERO DUP1 ISZERO PUSH2 0x18DA JUMPI JUMPDEST PUSH2 0x18CF JUMPI DUP1 PUSH0 MSTORE PUSH1 0xD PUSH1 0x20 MSTORE PUSH1 0x40 PUSH0 KECCAK256 SWAP1 DUP1 PUSH0 MSTORE PUSH1 0xE PUSH1 0x20 MSTORE PUSH1 0x1 PUSH1 0x40 PUSH0 KECCAK256 PUSH2 0x17D9 DUP7 DUP3 SLOAD PUSH2 0x1294 JUMP JUMPDEST DUP2 SSTORE ADD PUSH2 0x17E7 DUP6 DUP3 SLOAD PUSH2 0x1294 JUMP JUMPDEST SWAP1 SSTORE PUSH1 0x1 SLOAD DUP3 SLOAD PUSH1 0x40 MLOAD PUSH4 0xA9059CBB PUSH1 0xE0 SHL DUP2 MSTORE PUSH1 0x1 PUSH1 0x1 PUSH1 0xA0 SHL SUB SWAP2 DUP3 AND PUSH1 0x4 DUP3 ADD MSTORE PUSH1 0x24 DUP2 ADD DUP8 SWAP1 MSTORE SWAP2 PUSH1 0x20 SWAP2 DUP4 SWAP2 PUSH1 0x44 SWAP2 DUP4 SWAP2 PUSH0 SWAP2 AND GAS CALL DUP1 ISZERO PUSH2 0x6F4 JUMPI PUSH2 0x18B2 JUMPI JUMPDEST POP PUSH0 MSTORE PUSH1 0xF PUSH1 0x20 MSTORE PUSH2 0x186B PUSH1 0x40 PUSH0 KECCAK256 PUSH1 0x40 MLOAD SWAP1 PUSH2 0x1849 DUP3 PUSH2 0x123E JUMP JUMPDEST DUP5 DUP3 MSTORE DUP6 PUSH1 0x20 DUP4 ADD MSTORE PUSH1 0x1 PUSH1 0x40 DUP4 ADD MSTORE TIMESTAMP PUSH1 0x60 DUP4 ADD MSTORE PUSH1 0x1 PUSH1 0x80 DUP4 ADD MSTORE PUSH2 0x130B JUMP JUMPDEST PUSH1 0x1 DUP1 PUSH1 0xA0 SHL SUB SWAP1 SLOAD AND SWAP1 PUSH0 MSTORE PUSH1 0xD PUSH1 0x20 MSTORE PUSH0 MLOAD PUSH1 0x20 PUSH2 0x220C PUSH0 CODECOPY PUSH0 MLOAD SWAP1 PUSH0 MSTORE PUSH1 0x60 PUSH1 0x1 DUP1 PUSH1 0xA0 SHL SUB PUSH1 0x40 PUSH0 KECCAK256 SLOAD AND SWAP4 PUSH1 0x40 MLOAD SWAP1 DUP2 MSTORE PUSH1 0x1 PUSH1 0x20 DUP3 ADD MSTORE PUSH1 0x1 PUSH1 0x40 DUP3 ADD MSTORE LOG3 JUMP JUMPDEST PUSH2 0x18CA SWAP1 PUSH1 0x20 RETURNDATASIZE PUSH1 0x20 GT PUSH2 0x6ED JUMPI PUSH2 0x6E0 DUP2 DUP4 PUSH2 0x125A JUMP JUMPDEST PUSH2 0x182D JUMP JUMPDEST POP POP PUSH2 0x13FF SWAP1 PUSH2 0x1679 JUMP JUMPDEST POP PUSH1 0x5 SLOAD DUP2 EQ PUSH2 0x17AF JUMP JUMPDEST SWAP1 SWAP2 DUP2 ISZERO DUP1 ISZERO PUSH2 0x1A29 JUMPI JUMPDEST PUSH2 0x1A1C JUMPI SWAP1 PUSH2 0x196C SWAP2 DUP2 PUSH0 MSTORE PUSH1 0xD PUSH1 0x20 MSTORE PUSH1 0x40 PUSH0 KECCAK256 DUP3 PUSH0 MSTORE PUSH1 0xE PUSH1 0x20 MSTORE PUSH1 0x1 PUSH1 0x40 PUSH0 KECCAK256 PUSH2 0x191E DUP5 DUP3 SLOAD PUSH2 0x1294 JUMP JUMPDEST DUP2 SSTORE ADD PUSH2 0x192C DUP4 DUP3 SLOAD PUSH2 0x1294 JUMP JUMPDEST SWAP1 SSTORE PUSH1 0x1 SLOAD DUP2 SLOAD PUSH1 0x40 MLOAD PUSH4 0xA9059CBB PUSH1 0xE0 SHL DUP2 MSTORE PUSH1 0x1 PUSH1 0x1 PUSH1 0xA0 SHL SUB SWAP2 DUP3 AND PUSH1 0x4 DUP3 ADD MSTORE PUSH1 0x24 DUP2 ADD DUP6 SWAP1 MSTORE SWAP6 PUSH1 0x20 SWAP3 DUP8 SWAP3 AND SWAP1 DUP3 SWAP1 PUSH0 SWAP1 DUP3 SWAP1 PUSH1 0x44 DUP3 ADD SWAP1 JUMP JUMPDEST SUB SWAP3 GAS CALL SWAP3 DUP4 ISZERO PUSH2 0x6F4 JUMPI PUSH0 MLOAD PUSH1 0x20 PUSH2 0x220C PUSH0 CODECOPY PUSH0 MLOAD SWAP1 PUSH0 MSTORE SWAP5 PUSH1 0x60 SWAP5 PUSH2 0x19FF JUMPI JUMPDEST POP PUSH0 MSTORE PUSH1 0xF PUSH1 0x20 MSTORE PUSH2 0x19CA PUSH1 0x40 PUSH0 KECCAK256 PUSH1 0x40 MLOAD SWAP1 PUSH2 0x19AA DUP3 PUSH2 0x123E JUMP JUMPDEST DUP8 DUP3 MSTORE DUP5 PUSH1 0x20 DUP4 ADD MSTORE DUP9 PUSH1 0x40 DUP4 ADD MSTORE TIMESTAMP DUP7 DUP4 ADD MSTORE PUSH1 0x1 PUSH1 0x80 DUP4 ADD MSTORE PUSH2 0x130B JUMP JUMPDEST PUSH1 0x1 DUP1 PUSH1 0xA0 SHL SUB SWAP1 SLOAD AND SWAP4 PUSH0 MSTORE PUSH1 0xD PUSH1 0x20 MSTORE PUSH1 0x1 DUP1 PUSH1 0xA0 SHL SUB PUSH1 0x40 PUSH0 KECCAK256 SLOAD AND SWAP5 PUSH1 0x40 MLOAD SWAP2 DUP3 MSTORE PUSH1 0x20 DUP3 ADD MSTORE PUSH1 0x1 PUSH1 0x40 DUP3 ADD MSTORE LOG3 JUMP JUMPDEST PUSH2 0x1A17 SWAP1 PUSH1 0x20 RETURNDATASIZE PUSH1 0x20 GT PUSH2 0x6ED JUMPI PUSH2 0x6E0 DUP2 DUP4 PUSH2 0x125A JUMP JUMPDEST PUSH2 0x198E JUMP JUMPDEST SWAP2 POP POP PUSH2 0x13FF SWAP2 POP PUSH2 0x1679 JUMP JUMPDEST POP PUSH1 0x5 SLOAD DUP3 EQ PUSH2 0x18F0 JUMP JUMPDEST PUSH0 NOT DUP2 EQ PUSH2 0x513 JUMPI PUSH1 0x1 ADD SWAP1 JUMP JUMPDEST SWAP4 SWAP2 SWAP4 SWAP3 SWAP1 SWAP3 PUSH1 0x5 SLOAD DUP2 EQ DUP1 ISZERO PUSH2 0x1C24 JUMPI JUMPDEST PUSH2 0x1C17 JUMPI PUSH1 0x1 JUMPDEST DUP3 DUP2 LT PUSH2 0x1BE6 JUMPI POP SWAP3 PUSH0 SWAP4 JUMPDEST DUP1 ISZERO ISZERO DUP1 PUSH2 0x1BDA JUMPI JUMPDEST DUP1 PUSH2 0x1BD0 JUMPI JUMPDEST ISZERO PUSH2 0x1BC2 JUMPI DUP1 PUSH0 MSTORE PUSH1 0xD PUSH1 0x20 MSTORE PUSH1 0x40 PUSH0 KECCAK256 SWAP1 DUP4 PUSH1 0x6 DUP4 ADD SLOAD LT ISZERO PUSH2 0x1AA9 JUMPI POP PUSH1 0x5 PUSH2 0x1AA3 SWAP2 ADD SLOAD SWAP5 PUSH2 0x1A34 JUMP JUMPDEST SWAP4 PUSH2 0x1A67 JUMP JUMPDEST PUSH1 0x1 SLOAD DUP3 SLOAD PUSH1 0x40 MLOAD PUSH4 0xA9059CBB PUSH1 0xE0 SHL DUP2 MSTORE PUSH1 0x1 PUSH1 0x1 PUSH1 0xA0 SHL SUB SWAP2 DUP3 AND PUSH1 0x4 DUP3 ADD MSTORE PUSH1 0x24 DUP2 ADD DUP11 SWAP1 MSTORE SWAP7 SWAP9 SWAP6 SWAP8 POP SWAP4 SWAP6 SWAP5 SWAP2 SWAP4 SWAP2 SWAP3 SWAP2 PUSH1 0x20 SWAP2 DUP7 SWAP2 PUSH1 0x44 SWAP2 DUP4 SWAP2 PUSH0 SWAP2 AND GAS CALL SWAP3 DUP4 ISZERO PUSH2 0x6F4 JUMPI PUSH0 MLOAD PUSH1 0x20 PUSH2 0x220C PUSH0 CODECOPY PUSH0 MLOAD SWAP1 PUSH0 MSTORE SWAP5 PUSH1 0x60 SWAP5 PUSH2 0x1BA6 JUMPI JUMPDEST POP DUP1 PUSH0 MSTORE PUSH1 0xE PUSH1 0x20 MSTORE PUSH1 0x2 PUSH1 0x40 PUSH0 KECCAK256 PUSH2 0x1B26 DUP6 DUP3 SLOAD PUSH2 0x1294 JUMP JUMPDEST DUP2 SSTORE ADD PUSH2 0x1B34 DUP5 DUP3 SLOAD PUSH2 0x1294 JUMP JUMPDEST SWAP1 SSTORE PUSH0 MSTORE PUSH1 0xF PUSH1 0x20 MSTORE PUSH2 0x1B71 PUSH1 0x40 PUSH0 KECCAK256 PUSH1 0x40 MLOAD SWAP1 PUSH2 0x1B51 DUP3 PUSH2 0x123E JUMP JUMPDEST DUP8 DUP3 MSTORE DUP5 PUSH1 0x20 DUP4 ADD MSTORE DUP9 PUSH1 0x40 DUP4 ADD MSTORE TIMESTAMP DUP7 DUP4 ADD MSTORE PUSH1 0x2 PUSH1 0x80 DUP4 ADD MSTORE PUSH2 0x130B JUMP JUMPDEST PUSH1 0x1 DUP1 PUSH1 0xA0 SHL SUB SWAP1 SLOAD AND SWAP4 PUSH0 MSTORE PUSH1 0xD PUSH1 0x20 MSTORE PUSH1 0x1 DUP1 PUSH1 0xA0 SHL SUB PUSH1 0x40 PUSH0 KECCAK256 SLOAD AND SWAP5 PUSH1 0x40 MLOAD SWAP2 DUP3 MSTORE PUSH1 0x20 DUP3 ADD MSTORE PUSH1 0x2 PUSH1 0x40 DUP3 ADD MSTORE LOG3 JUMP JUMPDEST PUSH2 0x1BBD SWAP1 PUSH1 0x20 RETURNDATASIZE DUP2 GT PUSH2 0x6ED JUMPI PUSH2 0x6E0 DUP2 DUP4 PUSH2 0x125A JUMP JUMPDEST PUSH2 0x1B0C JUMP JUMPDEST POP POP POP SWAP2 PUSH2 0x13FF SWAP2 POP PUSH2 0x1679 JUMP JUMPDEST POP PUSH1 0xF DUP6 LT PUSH2 0x1A76 JUMP JUMPDEST POP PUSH1 0x5 SLOAD DUP2 EQ ISZERO PUSH2 0x1A70 JUMP JUMPDEST SWAP1 PUSH0 MSTORE PUSH1 0xD PUSH1 0x20 MSTORE PUSH1 0x5 PUSH1 0x40 PUSH0 KECCAK256 ADD SLOAD SWAP1 DUP2 ISZERO DUP1 ISZERO PUSH2 0x1C0C JUMPI JUMPDEST PUSH2 0x1BC2 JUMPI PUSH1 0x1 ADD PUSH2 0x1A5B JUMP JUMPDEST POP PUSH1 0x5 SLOAD DUP3 EQ PUSH2 0x1C00 JUMP JUMPDEST POP POP SWAP2 PUSH2 0x13FF SWAP2 POP PUSH2 0x1679 JUMP JUMPDEST POP DUP1 ISZERO PUSH2 0x1A54 JUMP JUMPDEST SWAP3 SWAP5 SWAP4 SWAP5 SWAP2 SWAP1 SWAP2 DUP4 ISZERO DUP1 ISZERO PUSH2 0x1E90 JUMPI JUMPDEST DUP1 ISZERO PUSH2 0x1E88 JUMPI JUMPDEST PUSH2 0x1E79 JUMPI SWAP5 SWAP2 PUSH2 0x1C53 DUP4 DUP4 PUSH2 0x1164 JUMP JUMPDEST SWAP6 PUSH2 0x1C67 PUSH2 0x1C61 DUP6 DUP10 PUSH2 0x12F8 JUMP JUMPDEST DUP5 PUSH2 0x1157 JUMP JUMPDEST SWAP5 PUSH0 SWAP5 DUP6 SWAP4 DUP5 SWAP3 PUSH1 0x1 JUMPDEST PUSH1 0x1E DUP6 LT PUSH2 0x1CAB JUMPI JUMPDEST POP POP POP POP POP POP POP PUSH2 0x1C8D SWAP3 SWAP4 SWAP5 POP PUSH2 0x1157 JUMP JUMPDEST DUP1 PUSH2 0x1C9C JUMPI JUMPDEST POP DUP1 PUSH2 0x1668 JUMPI POP JUMP JUMPDEST PUSH2 0x1CA5 SWAP1 PUSH2 0x1679 JUMP JUMPDEST PUSH0 PUSH2 0x1C93 JUMP JUMPDEST DUP2 SWAP3 SWAP4 SWAP5 SWAP6 SWAP7 SWAP9 SWAP2 ISZERO DUP1 ISZERO PUSH2 0x1E6E JUMPI JUMPDEST PUSH2 0x1E51 JUMPI DUP3 PUSH0 MSTORE PUSH1 0xD PUSH1 0x20 MSTORE PUSH1 0x40 PUSH0 KECCAK256 SWAP3 DUP13 DUP9 PUSH1 0x6 DUP7 ADD SLOAD LT ISZERO PUSH0 EQ PUSH2 0x1E32 JUMPI DUP3 PUSH2 0x1CE5 SWAP2 PUSH2 0x12F8 JUMP JUMPDEST PUSH0 DUP3 DUP2 MSTORE PUSH1 0xD PUSH1 0x20 SWAP1 DUP2 MSTORE PUSH1 0x40 DUP1 DUP4 KECCAK256 SLOAD PUSH1 0x1 SLOAD SWAP2 MLOAD PUSH4 0xA9059CBB PUSH1 0xE0 SHL DUP2 MSTORE PUSH1 0x1 PUSH1 0x1 PUSH1 0xA0 SHL SUB SWAP2 DUP3 AND PUSH1 0x4 DUP3 ADD DUP2 SWAP1 MSTORE PUSH1 0x24 DUP3 ADD DUP8 SWAP1 MSTORE SWAP1 SWAP9 SWAP5 SWAP1 SWAP4 SWAP3 DUP10 SWAP3 PUSH1 0x44 SWAP3 DUP5 SWAP3 SWAP1 SWAP2 AND GAS CALL SWAP4 DUP5 ISZERO PUSH2 0x6F4 JUMPI PUSH2 0x1DF0 SWAP7 PUSH2 0x1DEA SWAP6 PUSH2 0x1E16 JUMPI JUMPDEST POP DUP1 PUSH0 MSTORE PUSH1 0xE PUSH1 0x20 MSTORE PUSH1 0x3 PUSH1 0x40 PUSH0 KECCAK256 PUSH2 0x1D5E DUP7 DUP3 SLOAD PUSH2 0x1294 JUMP JUMPDEST DUP2 SSTORE ADD PUSH2 0x1D6C DUP6 DUP3 SLOAD PUSH2 0x1294 JUMP JUMPDEST SWAP1 SSTORE PUSH0 MSTORE PUSH1 0xF PUSH1 0x20 MSTORE PUSH2 0x1DAA PUSH1 0x40 PUSH0 KECCAK256 PUSH1 0x40 MLOAD SWAP1 PUSH2 0x1D89 DUP3 PUSH2 0x123E JUMP JUMPDEST DUP11 DUP3 MSTORE DUP6 PUSH1 0x20 DUP4 ADD MSTORE DUP14 PUSH1 0x40 DUP4 ADD MSTORE TIMESTAMP PUSH1 0x60 DUP4 ADD MSTORE PUSH1 0x4 PUSH1 0x80 DUP4 ADD MSTORE PUSH2 0x130B JUMP JUMPDEST DUP8 PUSH0 MSTORE PUSH1 0xD PUSH1 0x20 MSTORE PUSH1 0x1 DUP1 PUSH1 0xA0 SHL SUB PUSH1 0x40 PUSH0 KECCAK256 SLOAD AND SWAP1 PUSH0 MLOAD PUSH1 0x20 PUSH2 0x220C PUSH0 CODECOPY PUSH0 MLOAD SWAP1 PUSH0 MSTORE PUSH1 0x60 DUP14 PUSH1 0x40 MLOAD SWAP1 DUP8 DUP3 MSTORE PUSH1 0x20 DUP3 ADD MSTORE PUSH1 0x4 PUSH1 0x40 DUP3 ADD MSTORE LOG3 PUSH2 0x1294 JUMP JUMPDEST SWAP9 PUSH2 0x1294 JUMP JUMPDEST SWAP4 PUSH1 0x1 SWAP2 JUMPDEST DUP5 DUP7 LT ISZERO PUSH2 0x1E11 JUMPI PUSH1 0x5 PUSH1 0x1 SWAP2 ADD SLOAD SWAP2 ADD SWAP4 SWAP3 SWAP2 SWAP6 SWAP5 SWAP6 PUSH2 0x1C71 JUMP JUMPDEST PUSH2 0x1C7A JUMP JUMPDEST PUSH2 0x1E2D SWAP1 PUSH1 0x20 RETURNDATASIZE DUP2 GT PUSH2 0x6ED JUMPI PUSH2 0x6E0 DUP2 DUP4 PUSH2 0x125A JUMP JUMPDEST PUSH2 0x1D44 JUMP JUMPDEST POP POP SWAP2 DUP5 DUP4 SWAP10 SWAP7 SWAP3 SWAP10 LT ISZERO PUSH2 0x1DF5 JUMPI SWAP2 PUSH2 0x1E4B SWAP1 PUSH2 0x1A34 JUMP JUMPDEST SWAP2 PUSH2 0x1DF5 JUMP JUMPDEST POP SWAP8 POP POP POP POP POP POP SWAP1 POP PUSH2 0x1E66 SWAP3 SWAP4 POP PUSH2 0x1157 JUMP JUMPDEST DUP1 PUSH2 0x1668 JUMPI POP JUMP JUMPDEST POP PUSH1 0x5 SLOAD DUP4 EQ PUSH2 0x1CBB JUMP JUMPDEST POP SWAP2 POP POP PUSH2 0x13FF SWAP2 SWAP3 POP PUSH2 0x1679 JUMP JUMPDEST POP DUP6 ISZERO PUSH2 0x1C43 JUMP JUMPDEST POP PUSH1 0x5 SLOAD DUP5 EQ PUSH2 0x1C3C JUMP JUMPDEST SWAP1 DUP2 PUSH0 MSTORE PUSH1 0x42 PUSH1 0x20 MSTORE PUSH1 0xFF PUSH1 0x4 PUSH1 0x40 PUSH0 KECCAK256 ADD SLOAD AND ISZERO PUSH2 0x1EB8 JUMPI POP POP JUMP JUMPDEST PUSH2 0x1EC5 PUSH1 0x3D SLOAD DUP3 EQ PUSH2 0x2119 JUMP JUMPDEST DUP1 PUSH0 MSTORE PUSH1 0x40 PUSH1 0x20 MSTORE PUSH2 0x1EE1 PUSH1 0xFF PUSH1 0x8 PUSH1 0x40 PUSH0 KECCAK256 ADD SLOAD AND ISZERO PUSH2 0x2155 JUMP JUMPDEST DUP2 PUSH0 MSTORE PUSH1 0xD PUSH1 0x20 MSTORE PUSH1 0x40 PUSH0 KECCAK256 SWAP2 PUSH1 0x10 DUP4 ADD SLOAD DUP1 ISZERO PUSH2 0x1FC3 JUMPI PUSH1 0xF DUP5 ADD SLOAD SWAP4 PUSH3 0x83D600 DUP6 ADD DUP1 SWAP6 GT PUSH2 0x513 JUMPI PUSH32 0x42EE5EF523A95C6FB3FFDD2E9B34955B83EA8C2B11FF268C87AE6EA25556EAAC SWAP5 PUSH2 0x1F5B SWAP3 GT ISZERO SWAP1 PUSH1 0x5 PUSH1 0x12 PUSH1 0xA PUSH1 0x6 DUP5 ADD SLOAD LT ISZERO SWAP3 ADD SLOAD LT ISZERO SWAP1 DUP3 PUSH2 0x1FBB JUMPI JUMPDEST POP DUP2 PUSH2 0x1FB3 JUMPI JUMPDEST POP PUSH2 0x2190 JUMP JUMPDEST DUP1 PUSH0 MSTORE PUSH1 0x42 PUSH1 0x20 MSTORE PUSH1 0x40 PUSH0 KECCAK256 PUSH1 0x1 PUSH1 0x4 DUP3 ADD SWAP2 DUP5 DUP3 DUP5 SLOAD SWAP3 PUSH2 0x1F80 PUSH1 0xFF DUP6 AND ISZERO PUSH2 0x21CB JUMP JUMPDEST TIMESTAMP DUP2 SSTORE ADD SSTORE PUSH1 0xFF NOT AND OR SWAP1 SSTORE PUSH2 0x1FAE PUSH1 0x40 MLOAD SWAP3 DUP4 SWAP3 TIMESTAMP SWAP2 DUP5 PUSH1 0x40 SWAP2 SWAP5 SWAP4 SWAP3 PUSH1 0x60 DUP3 ADD SWAP6 DUP3 MSTORE PUSH1 0x20 DUP3 ADD MSTORE ADD MSTORE JUMP JUMPDEST SUB SWAP1 LOG1 JUMP JUMPDEST SWAP1 POP PUSH0 PUSH2 0x1F55 JUMP JUMPDEST SWAP2 POP PUSH0 PUSH2 0x1F4E JUMP JUMPDEST PUSH1 0x40 MLOAD PUSH3 0x461BCD PUSH1 0xE5 SHL DUP2 MSTORE PUSH1 0x20 PUSH1 0x4 DUP3 ADD MSTORE PUSH1 0x11 PUSH1 0x24 DUP3 ADD MSTORE PUSH17 0x55736572206E6F74206C6576656C20313 PUSH1 0x7C SHL PUSH1 0x44 DUP3 ADD MSTORE PUSH1 0x64 SWAP1 REVERT JUMPDEST SWAP1 DUP2 PUSH0 MSTORE PUSH1 0x49 PUSH1 0x20 MSTORE PUSH1 0xFF PUSH1 0x4 PUSH1 0x40 PUSH0 KECCAK256 ADD SLOAD AND ISZERO PUSH2 0x2019 JUMPI POP POP JUMP JUMPDEST PUSH2 0x2026 PUSH1 0x44 SLOAD DUP3 EQ PUSH2 0x2119 JUMP JUMPDEST DUP1 PUSH0 MSTORE PUSH1 0x47 PUSH1 0x20 MSTORE PUSH2 0x2042 PUSH1 0xFF PUSH1 0x8 PUSH1 0x40 PUSH0 KECCAK256 ADD SLOAD AND ISZERO PUSH2 0x2155 JUMP JUMPDEST DUP2 PUSH0 MSTORE PUSH1 0xD PUSH1 0x20 MSTORE PUSH1 0x40 PUSH0 KECCAK256 SWAP2 PUSH1 0x11 DUP4 ADD SLOAD DUP1 ISZERO PUSH2 0x20E0 JUMPI PUSH1 0xF DUP5 ADD SLOAD SWAP4 PUSH4 0x2514300 DUP6 ADD DUP1 SWAP6 GT PUSH2 0x513 JUMPI PUSH32 0x42EE5EF523A95C6FB3FFDD2E9B34955B83EA8C2B11FF268C87AE6EA25556EAAC SWAP5 PUSH2 0x20BB SWAP3 GT ISZERO SWAP1 PUSH1 0x2 PUSH1 0x13 PUSH1 0xF PUSH1 0x6 DUP5 ADD SLOAD LT ISZERO SWAP3 ADD SLOAD LT ISZERO SWAP1 DUP3 PUSH2 0x1FBB JUMPI POP DUP2 PUSH2 0x1FB3 JUMPI POP PUSH2 0x2190 JUMP JUMPDEST DUP1 PUSH0 MSTORE PUSH1 0x49 PUSH1 0x20 MSTORE PUSH1 0x40 PUSH0 KECCAK256 PUSH1 0x1 PUSH1 0x4 DUP3 ADD SWAP2 DUP5 DUP3 DUP5 SLOAD SWAP3 PUSH2 0x1F80 PUSH1 0xFF DUP6 AND ISZERO PUSH2 0x21CB JUMP JUMPDEST PUSH1 0x40 MLOAD PUSH3 0x461BCD PUSH1 0xE5 SHL DUP2 MSTORE PUSH1 0x20 PUSH1 0x4 DUP3 ADD MSTORE PUSH1 0x11 PUSH1 0x24 DUP3 ADD MSTORE PUSH17 0x55736572206E6F74206C6576656C203135 PUSH1 0x78 SHL PUSH1 0x44 DUP3 ADD MSTORE PUSH1 0x64 SWAP1 REVERT JUMPDEST ISZERO PUSH2 0x2120 JUMPI JUMP JUMPDEST PUSH1 0x40 MLOAD PUSH3 0x461BCD PUSH1 0xE5 SHL DUP2 MSTORE PUSH1 0x20 PUSH1 0x4 DUP3 ADD MSTORE PUSH1 0xD PUSH1 0x24 DUP3 ADD MSTORE PUSH13 0x125B9D985B1A59081C9BDD5B99 PUSH1 0x9A SHL PUSH1 0x44 DUP3 ADD MSTORE PUSH1 0x64 SWAP1 REVERT JUMPDEST ISZERO PUSH2 0x215C JUMPI JUMP JUMPDEST PUSH1 0x40 MLOAD PUSH3 0x461BCD PUSH1 0xE5 SHL DUP2 MSTORE PUSH1 0x20 PUSH1 0x4 DUP3 ADD MSTORE PUSH1 0xC PUSH1 0x24 DUP3 ADD MSTORE PUSH12 0x149BDD5B990818DB1BDCD959 PUSH1 0xA2 SHL PUSH1 0x44 DUP3 ADD MSTORE PUSH1 0x64 SWAP1 REVERT JUMPDEST ISZERO PUSH2 0x2197 JUMPI JUMP JUMPDEST PUSH1 0x40 MLOAD PUSH3 0x461BCD PUSH1 0xE5 SHL DUP2 MSTORE PUSH1 0x20 PUSH1 0x4 DUP3 ADD MSTORE PUSH1 0xC PUSH1 0x24 DUP3 ADD MSTORE PUSH12 0x4E6F7420656C696769626C65 PUSH1 0xA0 SHL PUSH1 0x44 DUP3 ADD MSTORE PUSH1 0x64 SWAP1 REVERT JUMPDEST ISZERO PUSH2 0x21D2 JUMPI JUMP JUMPDEST PUSH1 0x40 MLOAD PUSH3 0x461BCD PUSH1 0xE5 SHL DUP2 MSTORE PUSH1 0x20 PUSH1 0x4 DUP3 ADD MSTORE PUSH1 0x11 PUSH1 0x24 DUP3 ADD MSTORE PUSH17 0x185B1C9958591E48145D585B1A599A5959 PUSH1 0x7A SHL PUSH1 0x44 DUP3 ADD MSTORE PUSH1 0x64 SWAP1 REVERT INVALID RJUMPI 0x7B61 0xD3 0x24 0xCE OR ORIGIN DUP16 NUMBER RETURNDATASIZE EXP 0xB6 0x25 DUP2 0xC0 CREATE 0xAA SWAP10 PUSH20 0x12BAE80FBDFCD2AA9B91D6E3A264697066735822 SLT KECCAK256 DUP5 0xA5 DUP16 RETURN 0xA9 0xA9 0xDE SWAP2 PUSH17 0x510864ECDE57625647CE5DC97E145BC75E SLT 0x1F 0xCE PUSH19 0x195964736F6C634300081E0033000000000000 "
				},
				"gasEstimates": {
					"creation": {
						"codeDepositCost": "1760200",
						"executionCost": "infinite",
						"totalCost": "infinite"
					},
					"external": {
						"ACC_PRECISION()": "395",
						"MONTHLY_ROYALTY_DIRECT()": "879",
						"MONTHLY_ROYALTY_LEVEL()": "231",
						"MONTHLY_ROYALTY_TIME()": "703",
						"MONTH_DURATION()": "263",
						"PERCENTS_DIVIDER()": "148",
						"ROI_CAP_DIVIDER()": "517",
						"ROI_CAP_MULTIPLIER()": "429",
						"TIME_STEP()": "373",
						"TOP_ROYALTY_DIRECT()": "351",
						"TOP_ROYALTY_LEVEL()": "297",
						"TOP_ROYALTY_TIME()": "549",
						"WEEK_DURATION()": "571",
						"WeeklyCapping()": "967",
						"WeeklyTotalReward()": "2432",
						"claimCommunity(uint256)": "infinite",
						"communityAccPerUser()": "2696",
						"creatorWallet()": "2742",
						"currentMonthlyRound()": "2916",
						"currentMonthlyStartTime()": "3026",
						"currentWeeklyRound()": "2938",
						"currentWeeklyStartTime()": "3155",
						"defaultRefId()": "3092",
						"glbBoosterPackages(uint256)": "6571",
						"minLevelForGlbBooster(uint256)": "2998",
						"minLevelForPool(uint256)": "2316",
						"minPoolForGlbBooster(uint256)": "2778",
						"monthlyCapping()": "791",
						"monthlyTotalReward()": "2784",
						"packages(uint256)": "7228",
						"pendingCommunity(uint256)": "infinite",
						"poolPackages(uint256)": "7099",
						"register(uint256)": "infinite",
						"registeredUserIds(uint256)": "6813",
						"systemMaintance()": "3072",
						"teamDevelopment()": "3160",
						"topRoyaltyReward()": "2630",
						"topRoyaltyRound()": "2586",
						"topRoyaltyStartTime()": "2762",
						"totalUsers()": "2850",
						"upgrade(uint256)": "infinite",
						"usdt()": "2434"
					},
					"internal": {
						"_accrueCommunityBonus(uint256)": "infinite",
						"_applyGlobalCapping(uint256,uint256)": "6721",
						"_distributeLevelBoosterIncome(uint256,uint256,uint256,uint256,uint256)": "infinite",
						"_distributeMatrixIncome(uint256,uint256,uint256,uint256)": "infinite",
						"_distributeSponsorIncome(uint256,uint256,uint256,uint256)": "infinite",
						"_findEligibleSponsor(uint256,uint256)": "infinite",
						"_payLevelBooster(uint256,uint256,uint256,uint256)": "infinite",
						"_placeInMatrix(uint256,uint256)": "infinite"
					}
				},
				"methodIdentifiers": {
					"ACC_PRECISION()": "32fcd966",
					"MONTHLY_ROYALTY_DIRECT()": "d2f0490d",
					"MONTHLY_ROYALTY_LEVEL()": "23fd338e",
					"MONTHLY_ROYALTY_TIME()": "a5e52b99",
					"MONTH_DURATION()": "2a891534",
					"PERCENTS_DIVIDER()": "01c234a8",
					"ROI_CAP_DIVIDER()": "58c7d352",
					"ROI_CAP_MULTIPLIER()": "375b43b4",
					"TIME_STEP()": "32bc298c",
					"TOP_ROYALTY_DIRECT()": "31bb6a30",
					"TOP_ROYALTY_LEVEL()": "2ae0ee0d",
					"TOP_ROYALTY_TIME()": "705fee2d",
					"WEEK_DURATION()": "76f5f700",
					"WeeklyCapping()": "ebe0ff15",
					"WeeklyTotalReward()": "3080b5bc",
					"claimCommunity(uint256)": "d54d6ddb",
					"communityAccPerUser()": "78f6ad6d",
					"creatorWallet()": "7cdc65f2",
					"currentMonthlyRound()": "c9ed0708",
					"currentMonthlyStartTime()": "e898fc38",
					"currentWeeklyRound()": "ca8e9121",
					"currentWeeklyStartTime()": "fddc806f",
					"defaultRefId()": "ec597e6f",
					"glbBoosterPackages(uint256)": "2350268f",
					"minLevelForGlbBooster(uint256)": "d0a2fd79",
					"minLevelForPool(uint256)": "2132d204",
					"minPoolForGlbBooster(uint256)": "956a3228",
					"monthlyCapping()": "c8df2908",
					"monthlyTotalReward()": "a59d17d1",
					"packages(uint256)": "c216212a",
					"pendingCommunity(uint256)": "24513088",
					"poolPackages(uint256)": "ae4708dc",
					"register(uint256)": "f207564e",
					"registeredUserIds(uint256)": "39ab3603",
					"systemMaintance()": "e9e34a16",
					"teamDevelopment()": "f5d74d93",
					"topRoyaltyReward()": "5b62d1d5",
					"topRoyaltyRound()": "4b8cbf9b",
					"topRoyaltyStartTime()": "9b40ab97",
					"totalUsers()": "bff1f9e1",
					"upgrade(uint256)": "45977d03",
					"usdt()": "2f48ab7d"
				}
			},
			"storageLayout": {
				"storage": [
					{
						"astId": 100,
						"contract": "contracts/modules/SponsorMatrix.sol:Nanakshahi",
						"label": "_status",
						"offset": 0,
						"slot": "0",
						"type": "t_uint256"
					},
					{
						"astId": 2330,
						"contract": "contracts/modules/SponsorMatrix.sol:Nanakshahi",
						"label": "usdt",
						"offset": 0,
						"slot": "1",
						"type": "t_contract(IERC20)232"
					},
					{
						"astId": 2332,
						"contract": "contracts/modules/SponsorMatrix.sol:Nanakshahi",
						"label": "creatorWallet",
						"offset": 0,
						"slot": "2",
						"type": "t_address"
					},
					{
						"astId": 2334,
						"contract": "contracts/modules/SponsorMatrix.sol:Nanakshahi",
						"label": "systemMaintance",
						"offset": 0,
						"slot": "3",
						"type": "t_address"
					},
					{
						"astId": 2336,
						"contract": "contracts/modules/SponsorMatrix.sol:Nanakshahi",
						"label": "teamDevelopment",
						"offset": 0,
						"slot": "4",
						"type": "t_address"
					},
					{
						"astId": 2338,
						"contract": "contracts/modules/SponsorMatrix.sol:Nanakshahi",
						"label": "defaultRefId",
						"offset": 0,
						"slot": "5",
						"type": "t_uint256"
					},
					{
						"astId": 2340,
						"contract": "contracts/modules/SponsorMatrix.sol:Nanakshahi",
						"label": "totalUsers",
						"offset": 0,
						"slot": "6",
						"type": "t_uint256"
					},
					{
						"astId": 2376,
						"contract": "contracts/modules/SponsorMatrix.sol:Nanakshahi",
						"label": "registeredUserIds",
						"offset": 0,
						"slot": "7",
						"type": "t_array(t_uint256)dyn_storage"
					},
					{
						"astId": 2378,
						"contract": "contracts/modules/SponsorMatrix.sol:Nanakshahi",
						"label": "nonce",
						"offset": 0,
						"slot": "8",
						"type": "t_uint256"
					},
					{
						"astId": 2383,
						"contract": "contracts/modules/SponsorMatrix.sol:Nanakshahi",
						"label": "communityAccPerUser",
						"offset": 0,
						"slot": "9",
						"type": "t_uint256"
					},
					{
						"astId": 2387,
						"contract": "contracts/modules/SponsorMatrix.sol:Nanakshahi",
						"label": "communityDebt",
						"offset": 0,
						"slot": "10",
						"type": "t_mapping(t_uint256,t_uint256)"
					},
					{
						"astId": 2436,
						"contract": "contracts/modules/SponsorMatrix.sol:Nanakshahi",
						"label": "packages",
						"offset": 0,
						"slot": "11",
						"type": "t_array(t_uint256)dyn_storage"
					},
					{
						"astId": 2539,
						"contract": "contracts/modules/SponsorMatrix.sol:Nanakshahi",
						"label": "addressToId",
						"offset": 0,
						"slot": "12",
						"type": "t_mapping(t_address,t_uint256)"
					},
					{
						"astId": 2544,
						"contract": "contracts/modules/SponsorMatrix.sol:Nanakshahi",
						"label": "users",
						"offset": 0,
						"slot": "13",
						"type": "t_mapping(t_uint256,t_struct(User)2488_storage)"
					},
					{
						"astId": 2549,
						"contract": "contracts/modules/SponsorMatrix.sol:Nanakshahi",
						"label": "userIncomes",
						"offset": 0,
						"slot": "14",
						"type": "t_mapping(t_uint256,t_struct(UserIncome)2513_storage)"
					},
					{
						"astId": 2555,
						"contract": "contracts/modules/SponsorMatrix.sol:Nanakshahi",
						"label": "incomeHistory",
						"offset": 0,
						"slot": "15",
						"type": "t_mapping(t_uint256,t_array(t_struct(Income)2524_storage)dyn_storage)"
					},
					{
						"astId": 2562,
						"contract": "contracts/modules/SponsorMatrix.sol:Nanakshahi",
						"label": "teams",
						"offset": 0,
						"slot": "16",
						"type": "t_mapping(t_uint256,t_mapping(t_uint256,t_array(t_uint256)dyn_storage))"
					},
					{
						"astId": 2566,
						"contract": "contracts/modules/SponsorMatrix.sol:Nanakshahi",
						"label": "matrixDirect",
						"offset": 0,
						"slot": "17",
						"type": "t_mapping(t_uint256,t_uint256)"
					},
					{
						"astId": 2571,
						"contract": "contracts/modules/SponsorMatrix.sol:Nanakshahi",
						"label": "directReferrals",
						"offset": 0,
						"slot": "18",
						"type": "t_mapping(t_uint256,t_array(t_uint256)dyn_storage)"
					},
					{
						"astId": 2671,
						"contract": "contracts/modules/SponsorMatrix.sol:Nanakshahi",
						"label": "poolPackages",
						"offset": 0,
						"slot": "19",
						"type": "t_array(t_uint256)dyn_storage"
					},
					{
						"astId": 2683,
						"contract": "contracts/modules/SponsorMatrix.sol:Nanakshahi",
						"label": "glbBoosterPackages",
						"offset": 0,
						"slot": "20",
						"type": "t_array(t_uint256)dyn_storage"
					},
					{
						"astId": 2695,
						"contract": "contracts/modules/SponsorMatrix.sol:Nanakshahi",
						"label": "minLevelForPool",
						"offset": 0,
						"slot": "21",
						"type": "t_array(t_uint256)7_storage"
					},
					{
						"astId": 2708,
						"contract": "contracts/modules/SponsorMatrix.sol:Nanakshahi",
						"label": "minLevelForGlbBooster",
						"offset": 0,
						"slot": "28",
						"type": "t_array(t_uint256)8_storage"
					},
					{
						"astId": 2721,
						"contract": "contracts/modules/SponsorMatrix.sol:Nanakshahi",
						"label": "minPoolForGlbBooster",
						"offset": 0,
						"slot": "36",
						"type": "t_array(t_uint256)8_storage"
					},
					{
						"astId": 2755,
						"contract": "contracts/modules/SponsorMatrix.sol:Nanakshahi",
						"label": "userPooltopup",
						"offset": 0,
						"slot": "44",
						"type": "t_mapping(t_uint256,t_mapping(t_uint256,t_struct(UserPoolTopup)2737_storage))"
					},
					{
						"astId": 2762,
						"contract": "contracts/modules/SponsorMatrix.sol:Nanakshahi",
						"label": "userPooldtl",
						"offset": 0,
						"slot": "45",
						"type": "t_mapping(t_uint256,t_mapping(t_uint256,t_struct(UserPool)2732_storage))"
					},
					{
						"astId": 2769,
						"contract": "contracts/modules/SponsorMatrix.sol:Nanakshahi",
						"label": "userChildren",
						"offset": 0,
						"slot": "46",
						"type": "t_mapping(t_uint256,t_mapping(t_uint256,t_array(t_uint256)dyn_storage))"
					},
					{
						"astId": 2776,
						"contract": "contracts/modules/SponsorMatrix.sol:Nanakshahi",
						"label": "userIdPerPool",
						"offset": 0,
						"slot": "47",
						"type": "t_mapping(t_uint256,t_mapping(t_uint256,t_array(t_uint256)dyn_storage))"
					},
					{
						"astId": 2781,
						"contract": "contracts/modules/SponsorMatrix.sol:Nanakshahi",
						"label": "poolUsers",
						"offset": 0,
						"slot": "48",
						"type": "t_mapping(t_uint256,t_array(t_uint256)dyn_storage)"
					},
					{
						"astId": 2787,
						"contract": "contracts/modules/SponsorMatrix.sol:Nanakshahi",
						"label": "userHasPool",
						"offset": 0,
						"slot": "49",
						"type": "t_mapping(t_uint256,t_mapping(t_uint256,t_bool))"
					},
					{
						"astId": 2794,
						"contract": "contracts/modules/SponsorMatrix.sol:Nanakshahi",
						"label": "userBoosterdtl",
						"offset": 0,
						"slot": "50",
						"type": "t_mapping(t_uint256,t_mapping(t_uint256,t_struct(UserBooster)2748_storage))"
					},
					{
						"astId": 2801,
						"contract": "contracts/modules/SponsorMatrix.sol:Nanakshahi",
						"label": "userBoosterChildren",
						"offset": 0,
						"slot": "51",
						"type": "t_mapping(t_uint256,t_mapping(t_uint256,t_array(t_uint256)dyn_storage))"
					},
					{
						"astId": 2806,
						"contract": "contracts/modules/SponsorMatrix.sol:Nanakshahi",
						"label": "boosterUsers",
						"offset": 0,
						"slot": "52",
						"type": "t_mapping(t_uint256,t_array(t_uint256)dyn_storage)"
					},
					{
						"astId": 2812,
						"contract": "contracts/modules/SponsorMatrix.sol:Nanakshahi",
						"label": "userHasbooster",
						"offset": 0,
						"slot": "53",
						"type": "t_mapping(t_uint256,t_mapping(t_uint256,t_bool))"
					},
					{
						"astId": 2821,
						"contract": "contracts/modules/SponsorMatrix.sol:Nanakshahi",
						"label": "currentWeeklyRound",
						"offset": 0,
						"slot": "54",
						"type": "t_uint256"
					},
					{
						"astId": 2824,
						"contract": "contracts/modules/SponsorMatrix.sol:Nanakshahi",
						"label": "currentWeeklyStartTime",
						"offset": 0,
						"slot": "55",
						"type": "t_uint256"
					},
					{
						"astId": 2827,
						"contract": "contracts/modules/SponsorMatrix.sol:Nanakshahi",
						"label": "WeeklyTotalReward",
						"offset": 0,
						"slot": "56",
						"type": "t_uint256"
					},
					{
						"astId": 2862,
						"contract": "contracts/modules/SponsorMatrix.sol:Nanakshahi",
						"label": "weeklyContestdtl",
						"offset": 0,
						"slot": "57",
						"type": "t_mapping(t_uint256,t_struct(WeeklyContest)2846_storage)"
					},
					{
						"astId": 2867,
						"contract": "contracts/modules/SponsorMatrix.sol:Nanakshahi",
						"label": "weeklyQualifiedUsers",
						"offset": 0,
						"slot": "58",
						"type": "t_mapping(t_uint256,t_array(t_uint256)dyn_storage)"
					},
					{
						"astId": 2874,
						"contract": "contracts/modules/SponsorMatrix.sol:Nanakshahi",
						"label": "weeklyUserdtl",
						"offset": 0,
						"slot": "59",
						"type": "t_mapping(t_uint256,t_mapping(t_uint256,t_struct(weeklyUser)2857_storage))"
					},
					{
						"astId": 2881,
						"contract": "contracts/modules/SponsorMatrix.sol:Nanakshahi",
						"label": "weeklyUserDirects",
						"offset": 0,
						"slot": "60",
						"type": "t_mapping(t_uint256,t_mapping(t_uint256,t_array(t_uint256)dyn_storage))"
					},
					{
						"astId": 2924,
						"contract": "contracts/modules/SponsorMatrix.sol:Nanakshahi",
						"label": "currentMonthlyRound",
						"offset": 0,
						"slot": "61",
						"type": "t_uint256"
					},
					{
						"astId": 2927,
						"contract": "contracts/modules/SponsorMatrix.sol:Nanakshahi",
						"label": "currentMonthlyStartTime",
						"offset": 0,
						"slot": "62",
						"type": "t_uint256"
					},
					{
						"astId": 2930,
						"contract": "contracts/modules/SponsorMatrix.sol:Nanakshahi",
						"label": "monthlyTotalReward",
						"offset": 0,
						"slot": "63",
						"type": "t_uint256"
					},
					{
						"astId": 2967,
						"contract": "contracts/modules/SponsorMatrix.sol:Nanakshahi",
						"label": "monthlyRoyaltydtl",
						"offset": 0,
						"slot": "64",
						"type": "t_mapping(t_uint256,t_struct(monthlyRoyalty)2949_storage)"
					},
					{
						"astId": 2970,
						"contract": "contracts/modules/SponsorMatrix.sol:Nanakshahi",
						"label": "monthlyQualifiedUsers",
						"offset": 0,
						"slot": "65",
						"type": "t_array(t_uint256)dyn_storage"
					},
					{
						"astId": 2975,
						"contract": "contracts/modules/SponsorMatrix.sol:Nanakshahi",
						"label": "monthlyRoyaltyUserdtl",
						"offset": 0,
						"slot": "66",
						"type": "t_mapping(t_uint256,t_struct(monthlyRoyaltyUser)2962_storage)"
					},
					{
						"astId": 2980,
						"contract": "contracts/modules/SponsorMatrix.sol:Nanakshahi",
						"label": "monthlyUserDirects",
						"offset": 0,
						"slot": "67",
						"type": "t_mapping(t_uint256,t_array(t_uint256)dyn_storage)"
					},
					{
						"astId": 3017,
						"contract": "contracts/modules/SponsorMatrix.sol:Nanakshahi",
						"label": "topRoyaltyRound",
						"offset": 0,
						"slot": "68",
						"type": "t_uint256"
					},
					{
						"astId": 3020,
						"contract": "contracts/modules/SponsorMatrix.sol:Nanakshahi",
						"label": "topRoyaltyStartTime",
						"offset": 0,
						"slot": "69",
						"type": "t_uint256"
					},
					{
						"astId": 3023,
						"contract": "contracts/modules/SponsorMatrix.sol:Nanakshahi",
						"label": "topRoyaltyReward",
						"offset": 0,
						"slot": "70",
						"type": "t_uint256"
					},
					{
						"astId": 3060,
						"contract": "contracts/modules/SponsorMatrix.sol:Nanakshahi",
						"label": "topRoyaltydtl",
						"offset": 0,
						"slot": "71",
						"type": "t_mapping(t_uint256,t_struct(topRoyalty)3042_storage)"
					},
					{
						"astId": 3063,
						"contract": "contracts/modules/SponsorMatrix.sol:Nanakshahi",
						"label": "topRoyaltyQualifiedUsers",
						"offset": 0,
						"slot": "72",
						"type": "t_array(t_uint256)dyn_storage"
					},
					{
						"astId": 3068,
						"contract": "contracts/modules/SponsorMatrix.sol:Nanakshahi",
						"label": "topRoyaltyUserdtl",
						"offset": 0,
						"slot": "73",
						"type": "t_mapping(t_uint256,t_struct(topRoyaltyUser)3055_storage)"
					},
					{
						"astId": 3073,
						"contract": "contracts/modules/SponsorMatrix.sol:Nanakshahi",
						"label": "topRoyaltyUserDirects",
						"offset": 0,
						"slot": "74",
						"type": "t_mapping(t_uint256,t_array(t_uint256)dyn_storage)"
					}
				],
				"types": {
					"t_address": {
						"encoding": "inplace",
						"label": "address",
						"numberOfBytes": "20"
					},
					"t_array(t_struct(Deposit)2445_storage)dyn_storage": {
						"base": "t_struct(Deposit)2445_storage",
						"encoding": "dynamic_array",
						"label": "struct Storage.Deposit[]",
						"numberOfBytes": "32"
					},
					"t_array(t_struct(Income)2524_storage)dyn_storage": {
						"base": "t_struct(Income)2524_storage",
						"encoding": "dynamic_array",
						"label": "struct Storage.Income[]",
						"numberOfBytes": "32"
					},
					"t_array(t_uint256)7_storage": {
						"base": "t_uint256",
						"encoding": "inplace",
						"label": "uint256[7]",
						"numberOfBytes": "224"
					},
					"t_array(t_uint256)8_storage": {
						"base": "t_uint256",
						"encoding": "inplace",
						"label": "uint256[8]",
						"numberOfBytes": "256"
					},
					"t_array(t_uint256)dyn_storage": {
						"base": "t_uint256",
						"encoding": "dynamic_array",
						"label": "uint256[]",
						"numberOfBytes": "32"
					},
					"t_bool": {
						"encoding": "inplace",
						"label": "bool",
						"numberOfBytes": "1"
					},
					"t_contract(IERC20)232": {
						"encoding": "inplace",
						"label": "contract IERC20",
						"numberOfBytes": "20"
					},
					"t_mapping(t_address,t_uint256)": {
						"encoding": "mapping",
						"key": "t_address",
						"label": "mapping(address => uint256)",
						"numberOfBytes": "32",
						"value": "t_uint256"
					},
					"t_mapping(t_uint256,t_array(t_struct(Income)2524_storage)dyn_storage)": {
						"encoding": "mapping",
						"key": "t_uint256",
						"label": "mapping(uint256 => struct Storage.Income[])",
						"numberOfBytes": "32",
						"value": "t_array(t_struct(Income)2524_storage)dyn_storage"
					},
					"t_mapping(t_uint256,t_array(t_uint256)dyn_storage)": {
						"encoding": "mapping",
						"key": "t_uint256",
						"label": "mapping(uint256 => uint256[])",
						"numberOfBytes": "32",
						"value": "t_array(t_uint256)dyn_storage"
					},
					"t_mapping(t_uint256,t_bool)": {
						"encoding": "mapping",
						"key": "t_uint256",
						"label": "mapping(uint256 => bool)",
						"numberOfBytes": "32",
						"value": "t_bool"
					},
					"t_mapping(t_uint256,t_mapping(t_uint256,t_array(t_uint256)dyn_storage))": {
						"encoding": "mapping",
						"key": "t_uint256",
						"label": "mapping(uint256 => mapping(uint256 => uint256[]))",
						"numberOfBytes": "32",
						"value": "t_mapping(t_uint256,t_array(t_uint256)dyn_storage)"
					},
					"t_mapping(t_uint256,t_mapping(t_uint256,t_bool))": {
						"encoding": "mapping",
						"key": "t_uint256",
						"label": "mapping(uint256 => mapping(uint256 => bool))",
						"numberOfBytes": "32",
						"value": "t_mapping(t_uint256,t_bool)"
					},
					"t_mapping(t_uint256,t_mapping(t_uint256,t_struct(UserBooster)2748_storage))": {
						"encoding": "mapping",
						"key": "t_uint256",
						"label": "mapping(uint256 => mapping(uint256 => struct Storage.UserBooster))",
						"numberOfBytes": "32",
						"value": "t_mapping(t_uint256,t_struct(UserBooster)2748_storage)"
					},
					"t_mapping(t_uint256,t_mapping(t_uint256,t_struct(UserPool)2732_storage))": {
						"encoding": "mapping",
						"key": "t_uint256",
						"label": "mapping(uint256 => mapping(uint256 => struct Storage.UserPool))",
						"numberOfBytes": "32",
						"value": "t_mapping(t_uint256,t_struct(UserPool)2732_storage)"
					},
					"t_mapping(t_uint256,t_mapping(t_uint256,t_struct(UserPoolTopup)2737_storage))": {
						"encoding": "mapping",
						"key": "t_uint256",
						"label": "mapping(uint256 => mapping(uint256 => struct Storage.UserPoolTopup))",
						"numberOfBytes": "32",
						"value": "t_mapping(t_uint256,t_struct(UserPoolTopup)2737_storage)"
					},
					"t_mapping(t_uint256,t_mapping(t_uint256,t_struct(weeklyUser)2857_storage))": {
						"encoding": "mapping",
						"key": "t_uint256",
						"label": "mapping(uint256 => mapping(uint256 => struct Storage.weeklyUser))",
						"numberOfBytes": "32",
						"value": "t_mapping(t_uint256,t_struct(weeklyUser)2857_storage)"
					},
					"t_mapping(t_uint256,t_struct(User)2488_storage)": {
						"encoding": "mapping",
						"key": "t_uint256",
						"label": "mapping(uint256 => struct Storage.User)",
						"numberOfBytes": "32",
						"value": "t_struct(User)2488_storage"
					},
					"t_mapping(t_uint256,t_struct(UserBooster)2748_storage)": {
						"encoding": "mapping",
						"key": "t_uint256",
						"label": "mapping(uint256 => struct Storage.UserBooster)",
						"numberOfBytes": "32",
						"value": "t_struct(UserBooster)2748_storage"
					},
					"t_mapping(t_uint256,t_struct(UserIncome)2513_storage)": {
						"encoding": "mapping",
						"key": "t_uint256",
						"label": "mapping(uint256 => struct Storage.UserIncome)",
						"numberOfBytes": "32",
						"value": "t_struct(UserIncome)2513_storage"
					},
					"t_mapping(t_uint256,t_struct(UserPool)2732_storage)": {
						"encoding": "mapping",
						"key": "t_uint256",
						"label": "mapping(uint256 => struct Storage.UserPool)",
						"numberOfBytes": "32",
						"value": "t_struct(UserPool)2732_storage"
					},
					"t_mapping(t_uint256,t_struct(UserPoolTopup)2737_storage)": {
						"encoding": "mapping",
						"key": "t_uint256",
						"label": "mapping(uint256 => struct Storage.UserPoolTopup)",
						"numberOfBytes": "32",
						"value": "t_struct(UserPoolTopup)2737_storage"
					},
					"t_mapping(t_uint256,t_struct(WeeklyContest)2846_storage)": {
						"encoding": "mapping",
						"key": "t_uint256",
						"label": "mapping(uint256 => struct Storage.WeeklyContest)",
						"numberOfBytes": "32",
						"value": "t_struct(WeeklyContest)2846_storage"
					},
					"t_mapping(t_uint256,t_struct(monthlyRoyalty)2949_storage)": {
						"encoding": "mapping",
						"key": "t_uint256",
						"label": "mapping(uint256 => struct Storage.monthlyRoyalty)",
						"numberOfBytes": "32",
						"value": "t_struct(monthlyRoyalty)2949_storage"
					},
					"t_mapping(t_uint256,t_struct(monthlyRoyaltyUser)2962_storage)": {
						"encoding": "mapping",
						"key": "t_uint256",
						"label": "mapping(uint256 => struct Storage.monthlyRoyaltyUser)",
						"numberOfBytes": "32",
						"value": "t_struct(monthlyRoyaltyUser)2962_storage"
					},
					"t_mapping(t_uint256,t_struct(topRoyalty)3042_storage)": {
						"encoding": "mapping",
						"key": "t_uint256",
						"label": "mapping(uint256 => struct Storage.topRoyalty)",
						"numberOfBytes": "32",
						"value": "t_struct(topRoyalty)3042_storage"
					},
					"t_mapping(t_uint256,t_struct(topRoyaltyUser)3055_storage)": {
						"encoding": "mapping",
						"key": "t_uint256",
						"label": "mapping(uint256 => struct Storage.topRoyaltyUser)",
						"numberOfBytes": "32",
						"value": "t_struct(topRoyaltyUser)3055_storage"
					},
					"t_mapping(t_uint256,t_struct(weeklyUser)2857_storage)": {
						"encoding": "mapping",
						"key": "t_uint256",
						"label": "mapping(uint256 => struct Storage.weeklyUser)",
						"numberOfBytes": "32",
						"value": "t_struct(weeklyUser)2857_storage"
					},
					"t_mapping(t_uint256,t_uint256)": {
						"encoding": "mapping",
						"key": "t_uint256",
						"label": "mapping(uint256 => uint256)",
						"numberOfBytes": "32",
						"value": "t_uint256"
					},
					"t_struct(Deposit)2445_storage": {
						"encoding": "inplace",
						"label": "struct Storage.Deposit",
						"members": [
							{
								"astId": 2438,
								"contract": "contracts/modules/SponsorMatrix.sol:Nanakshahi",
								"label": "amount",
								"offset": 0,
								"slot": "0",
								"type": "t_uint256"
							},
							{
								"astId": 2440,
								"contract": "contracts/modules/SponsorMatrix.sol:Nanakshahi",
								"label": "withdrawn",
								"offset": 0,
								"slot": "1",
								"type": "t_uint256"
							},
							{
								"astId": 2442,
								"contract": "contracts/modules/SponsorMatrix.sol:Nanakshahi",
								"label": "start",
								"offset": 0,
								"slot": "2",
								"type": "t_uint256"
							},
							{
								"astId": 2444,
								"contract": "contracts/modules/SponsorMatrix.sol:Nanakshahi",
								"label": "depositType",
								"offset": 0,
								"slot": "3",
								"type": "t_uint8"
							}
						],
						"numberOfBytes": "128"
					},
					"t_struct(Income)2524_storage": {
						"encoding": "inplace",
						"label": "struct Storage.Income",
						"members": [
							{
								"astId": 2515,
								"contract": "contracts/modules/SponsorMatrix.sol:Nanakshahi",
								"label": "fromUserId",
								"offset": 0,
								"slot": "0",
								"type": "t_uint256"
							},
							{
								"astId": 2517,
								"contract": "contracts/modules/SponsorMatrix.sol:Nanakshahi",
								"label": "amount",
								"offset": 0,
								"slot": "1",
								"type": "t_uint256"
							},
							{
								"astId": 2519,
								"contract": "contracts/modules/SponsorMatrix.sol:Nanakshahi",
								"label": "packageLevel",
								"offset": 0,
								"slot": "2",
								"type": "t_uint256"
							},
							{
								"astId": 2521,
								"contract": "contracts/modules/SponsorMatrix.sol:Nanakshahi",
								"label": "timestamp",
								"offset": 0,
								"slot": "3",
								"type": "t_uint256"
							},
							{
								"astId": 2523,
								"contract": "contracts/modules/SponsorMatrix.sol:Nanakshahi",
								"label": "incomeType",
								"offset": 0,
								"slot": "4",
								"type": "t_uint256"
							}
						],
						"numberOfBytes": "160"
					},
					"t_struct(User)2488_storage": {
						"encoding": "inplace",
						"label": "struct Storage.User",
						"members": [
							{
								"astId": 2447,
								"contract": "contracts/modules/SponsorMatrix.sol:Nanakshahi",
								"label": "account",
								"offset": 0,
								"slot": "0",
								"type": "t_address"
							},
							{
								"astId": 2451,
								"contract": "contracts/modules/SponsorMatrix.sol:Nanakshahi",
								"label": "deposits",
								"offset": 0,
								"slot": "1",
								"type": "t_array(t_struct(Deposit)2445_storage)dyn_storage"
							},
							{
								"astId": 2453,
								"contract": "contracts/modules/SponsorMatrix.sol:Nanakshahi",
								"label": "checkpoint",
								"offset": 0,
								"slot": "2",
								"type": "t_uint256"
							},
							{
								"astId": 2455,
								"contract": "contracts/modules/SponsorMatrix.sol:Nanakshahi",
								"label": "id",
								"offset": 0,
								"slot": "3",
								"type": "t_uint256"
							},
							{
								"astId": 2457,
								"contract": "contracts/modules/SponsorMatrix.sol:Nanakshahi",
								"label": "sponsorId",
								"offset": 0,
								"slot": "4",
								"type": "t_uint256"
							},
							{
								"astId": 2459,
								"contract": "contracts/modules/SponsorMatrix.sol:Nanakshahi",
								"label": "uplineId",
								"offset": 0,
								"slot": "5",
								"type": "t_uint256"
							},
							{
								"astId": 2461,
								"contract": "contracts/modules/SponsorMatrix.sol:Nanakshahi",
								"label": "level",
								"offset": 0,
								"slot": "6",
								"type": "t_uint256"
							},
							{
								"astId": 2463,
								"contract": "contracts/modules/SponsorMatrix.sol:Nanakshahi",
								"label": "directTeam",
								"offset": 0,
								"slot": "7",
								"type": "t_uint256"
							},
							{
								"astId": 2465,
								"contract": "contracts/modules/SponsorMatrix.sol:Nanakshahi",
								"label": "directPoolQualified",
								"offset": 0,
								"slot": "8",
								"type": "t_uint256"
							},
							{
								"astId": 2467,
								"contract": "contracts/modules/SponsorMatrix.sol:Nanakshahi",
								"label": "totalMatrixTeam",
								"offset": 0,
								"slot": "9",
								"type": "t_uint256"
							},
							{
								"astId": 2469,
								"contract": "contracts/modules/SponsorMatrix.sol:Nanakshahi",
								"label": "totalDeposit",
								"offset": 0,
								"slot": "10",
								"type": "t_uint256"
							},
							{
								"astId": 2471,
								"contract": "contracts/modules/SponsorMatrix.sol:Nanakshahi",
								"label": "poollevel",
								"offset": 0,
								"slot": "11",
								"type": "t_uint256"
							},
							{
								"astId": 2473,
								"contract": "contracts/modules/SponsorMatrix.sol:Nanakshahi",
								"label": "poolDeposit",
								"offset": 0,
								"slot": "12",
								"type": "t_uint256"
							},
							{
								"astId": 2475,
								"contract": "contracts/modules/SponsorMatrix.sol:Nanakshahi",
								"label": "boosterlevel",
								"offset": 0,
								"slot": "13",
								"type": "t_uint256"
							},
							{
								"astId": 2477,
								"contract": "contracts/modules/SponsorMatrix.sol:Nanakshahi",
								"label": "boosterDeposit",
								"offset": 0,
								"slot": "14",
								"type": "t_uint256"
							},
							{
								"astId": 2479,
								"contract": "contracts/modules/SponsorMatrix.sol:Nanakshahi",
								"label": "registrationTime",
								"offset": 0,
								"slot": "15",
								"type": "t_uint256"
							},
							{
								"astId": 2481,
								"contract": "contracts/modules/SponsorMatrix.sol:Nanakshahi",
								"label": "level10Time",
								"offset": 0,
								"slot": "16",
								"type": "t_uint256"
							},
							{
								"astId": 2483,
								"contract": "contracts/modules/SponsorMatrix.sol:Nanakshahi",
								"label": "level15Time",
								"offset": 0,
								"slot": "17",
								"type": "t_uint256"
							},
							{
								"astId": 2485,
								"contract": "contracts/modules/SponsorMatrix.sol:Nanakshahi",
								"label": "monthlyUserDirectCount",
								"offset": 0,
								"slot": "18",
								"type": "t_uint256"
							},
							{
								"astId": 2487,
								"contract": "contracts/modules/SponsorMatrix.sol:Nanakshahi",
								"label": "topRoyaltyDirectCount",
								"offset": 0,
								"slot": "19",
								"type": "t_uint256"
							}
						],
						"numberOfBytes": "640"
					},
					"t_struct(UserBooster)2748_storage": {
						"encoding": "inplace",
						"label": "struct Storage.UserBooster",
						"members": [
							{
								"astId": 2739,
								"contract": "contracts/modules/SponsorMatrix.sol:Nanakshahi",
								"label": "id",
								"offset": 0,
								"slot": "0",
								"type": "t_uint256"
							},
							{
								"astId": 2741,
								"contract": "contracts/modules/SponsorMatrix.sol:Nanakshahi",
								"label": "poolId",
								"offset": 0,
								"slot": "1",
								"type": "t_uint256"
							},
							{
								"astId": 2743,
								"contract": "contracts/modules/SponsorMatrix.sol:Nanakshahi",
								"label": "parentId",
								"offset": 0,
								"slot": "2",
								"type": "t_uint256"
							},
							{
								"astId": 2745,
								"contract": "contracts/modules/SponsorMatrix.sol:Nanakshahi",
								"label": "bonusCount",
								"offset": 0,
								"slot": "3",
								"type": "t_uint256"
							},
							{
								"astId": 2747,
								"contract": "contracts/modules/SponsorMatrix.sol:Nanakshahi",
								"label": "joinTime",
								"offset": 0,
								"slot": "4",
								"type": "t_uint256"
							}
						],
						"numberOfBytes": "160"
					},
					"t_struct(UserIncome)2513_storage": {
						"encoding": "inplace",
						"label": "struct Storage.UserIncome",
						"members": [
							{
								"astId": 2490,
								"contract": "contracts/modules/SponsorMatrix.sol:Nanakshahi",
								"label": "totalIncome",
								"offset": 0,
								"slot": "0",
								"type": "t_uint256"
							},
							{
								"astId": 2492,
								"contract": "contracts/modules/SponsorMatrix.sol:Nanakshahi",
								"label": "sponsorIncome",
								"offset": 0,
								"slot": "1",
								"type": "t_uint256"
							},
							{
								"astId": 2494,
								"contract": "contracts/modules/SponsorMatrix.sol:Nanakshahi",
								"label": "matrixIncome",
								"offset": 0,
								"slot": "2",
								"type": "t_uint256"
							},
							{
								"astId": 2496,
								"contract": "contracts/modules/SponsorMatrix.sol:Nanakshahi",
								"label": "levelBoosterIncome",
								"offset": 0,
								"slot": "3",
								"type": "t_uint256"
							},
							{
								"astId": 2498,
								"contract": "contracts/modules/SponsorMatrix.sol:Nanakshahi",
								"label": "royaltyIncome",
								"offset": 0,
								"slot": "4",
								"type": "t_uint256"
							},
							{
								"astId": 2500,
								"contract": "contracts/modules/SponsorMatrix.sol:Nanakshahi",
								"label": "royaltyIncomeClaimed",
								"offset": 0,
								"slot": "5",
								"type": "t_uint256"
							},
							{
								"astId": 2502,
								"contract": "contracts/modules/SponsorMatrix.sol:Nanakshahi",
								"label": "communityIncome",
								"offset": 0,
								"slot": "6",
								"type": "t_uint256"
							},
							{
								"astId": 2504,
								"contract": "contracts/modules/SponsorMatrix.sol:Nanakshahi",
								"label": "poolIncome",
								"offset": 0,
								"slot": "7",
								"type": "t_uint256"
							},
							{
								"astId": 2506,
								"contract": "contracts/modules/SponsorMatrix.sol:Nanakshahi",
								"label": "boosterIncome",
								"offset": 0,
								"slot": "8",
								"type": "t_uint256"
							},
							{
								"astId": 2508,
								"contract": "contracts/modules/SponsorMatrix.sol:Nanakshahi",
								"label": "weeklyContestIncome",
								"offset": 0,
								"slot": "9",
								"type": "t_uint256"
							},
							{
								"astId": 2510,
								"contract": "contracts/modules/SponsorMatrix.sol:Nanakshahi",
								"label": "monthlyRoyalty",
								"offset": 0,
								"slot": "10",
								"type": "t_uint256"
							},
							{
								"astId": 2512,
								"contract": "contracts/modules/SponsorMatrix.sol:Nanakshahi",
								"label": "topRoyalty",
								"offset": 0,
								"slot": "11",
								"type": "t_uint256"
							}
						],
						"numberOfBytes": "384"
					},
					"t_struct(UserPool)2732_storage": {
						"encoding": "inplace",
						"label": "struct Storage.UserPool",
						"members": [
							{
								"astId": 2723,
								"contract": "contracts/modules/SponsorMatrix.sol:Nanakshahi",
								"label": "id",
								"offset": 0,
								"slot": "0",
								"type": "t_uint256"
							},
							{
								"astId": 2725,
								"contract": "contracts/modules/SponsorMatrix.sol:Nanakshahi",
								"label": "mainid",
								"offset": 0,
								"slot": "1",
								"type": "t_uint256"
							},
							{
								"astId": 2727,
								"contract": "contracts/modules/SponsorMatrix.sol:Nanakshahi",
								"label": "poolId",
								"offset": 0,
								"slot": "2",
								"type": "t_uint256"
							},
							{
								"astId": 2729,
								"contract": "contracts/modules/SponsorMatrix.sol:Nanakshahi",
								"label": "parentId",
								"offset": 0,
								"slot": "3",
								"type": "t_uint256"
							},
							{
								"astId": 2731,
								"contract": "contracts/modules/SponsorMatrix.sol:Nanakshahi",
								"label": "bonusCount",
								"offset": 0,
								"slot": "4",
								"type": "t_uint256"
							}
						],
						"numberOfBytes": "160"
					},
					"t_struct(UserPoolTopup)2737_storage": {
						"encoding": "inplace",
						"label": "struct Storage.UserPoolTopup",
						"members": [
							{
								"astId": 2734,
								"contract": "contracts/modules/SponsorMatrix.sol:Nanakshahi",
								"label": "nextPoolAmt",
								"offset": 0,
								"slot": "0",
								"type": "t_uint256"
							},
							{
								"astId": 2736,
								"contract": "contracts/modules/SponsorMatrix.sol:Nanakshahi",
								"label": "reTopupAmt",
								"offset": 0,
								"slot": "1",
								"type": "t_uint256"
							}
						],
						"numberOfBytes": "64"
					},
					"t_struct(WeeklyContest)2846_storage": {
						"encoding": "inplace",
						"label": "struct Storage.WeeklyContest",
						"members": [
							{
								"astId": 2829,
								"contract": "contracts/modules/SponsorMatrix.sol:Nanakshahi",
								"label": "roundId",
								"offset": 0,
								"slot": "0",
								"type": "t_uint256"
							},
							{
								"astId": 2831,
								"contract": "contracts/modules/SponsorMatrix.sol:Nanakshahi",
								"label": "totalReward",
								"offset": 0,
								"slot": "1",
								"type": "t_uint256"
							},
							{
								"astId": 2833,
								"contract": "contracts/modules/SponsorMatrix.sol:Nanakshahi",
								"label": "totalUsers",
								"offset": 0,
								"slot": "2",
								"type": "t_uint256"
							},
							{
								"astId": 2835,
								"contract": "contracts/modules/SponsorMatrix.sol:Nanakshahi",
								"label": "perUserReward",
								"offset": 0,
								"slot": "3",
								"type": "t_uint256"
							},
							{
								"astId": 2837,
								"contract": "contracts/modules/SponsorMatrix.sol:Nanakshahi",
								"label": "claimedCount",
								"offset": 0,
								"slot": "4",
								"type": "t_uint256"
							},
							{
								"astId": 2839,
								"contract": "contracts/modules/SponsorMatrix.sol:Nanakshahi",
								"label": "startTime",
								"offset": 0,
								"slot": "5",
								"type": "t_uint256"
							},
							{
								"astId": 2841,
								"contract": "contracts/modules/SponsorMatrix.sol:Nanakshahi",
								"label": "endTime",
								"offset": 0,
								"slot": "6",
								"type": "t_uint256"
							},
							{
								"astId": 2843,
								"contract": "contracts/modules/SponsorMatrix.sol:Nanakshahi",
								"label": "carryForward",
								"offset": 0,
								"slot": "7",
								"type": "t_uint256"
							},
							{
								"astId": 2845,
								"contract": "contracts/modules/SponsorMatrix.sol:Nanakshahi",
								"label": "closed",
								"offset": 0,
								"slot": "8",
								"type": "t_bool"
							}
						],
						"numberOfBytes": "288"
					},
					"t_struct(monthlyRoyalty)2949_storage": {
						"encoding": "inplace",
						"label": "struct Storage.monthlyRoyalty",
						"members": [
							{
								"astId": 2932,
								"contract": "contracts/modules/SponsorMatrix.sol:Nanakshahi",
								"label": "roundId",
								"offset": 0,
								"slot": "0",
								"type": "t_uint256"
							},
							{
								"astId": 2934,
								"contract": "contracts/modules/SponsorMatrix.sol:Nanakshahi",
								"label": "totalReward",
								"offset": 0,
								"slot": "1",
								"type": "t_uint256"
							},
							{
								"astId": 2936,
								"contract": "contracts/modules/SponsorMatrix.sol:Nanakshahi",
								"label": "totalUsers",
								"offset": 0,
								"slot": "2",
								"type": "t_uint256"
							},
							{
								"astId": 2938,
								"contract": "contracts/modules/SponsorMatrix.sol:Nanakshahi",
								"label": "perUserReward",
								"offset": 0,
								"slot": "3",
								"type": "t_uint256"
							},
							{
								"astId": 2940,
								"contract": "contracts/modules/SponsorMatrix.sol:Nanakshahi",
								"label": "claimedCount",
								"offset": 0,
								"slot": "4",
								"type": "t_uint256"
							},
							{
								"astId": 2942,
								"contract": "contracts/modules/SponsorMatrix.sol:Nanakshahi",
								"label": "startTime",
								"offset": 0,
								"slot": "5",
								"type": "t_uint256"
							},
							{
								"astId": 2944,
								"contract": "contracts/modules/SponsorMatrix.sol:Nanakshahi",
								"label": "endTime",
								"offset": 0,
								"slot": "6",
								"type": "t_uint256"
							},
							{
								"astId": 2946,
								"contract": "contracts/modules/SponsorMatrix.sol:Nanakshahi",
								"label": "carryForward",
								"offset": 0,
								"slot": "7",
								"type": "t_uint256"
							},
							{
								"astId": 2948,
								"contract": "contracts/modules/SponsorMatrix.sol:Nanakshahi",
								"label": "closed",
								"offset": 0,
								"slot": "8",
								"type": "t_bool"
							}
						],
						"numberOfBytes": "288"
					},
					"t_struct(monthlyRoyaltyUser)2962_storage": {
						"encoding": "inplace",
						"label": "struct Storage.monthlyRoyaltyUser",
						"members": [
							{
								"astId": 2951,
								"contract": "contracts/modules/SponsorMatrix.sol:Nanakshahi",
								"label": "joinTime",
								"offset": 0,
								"slot": "0",
								"type": "t_uint256"
							},
							{
								"astId": 2953,
								"contract": "contracts/modules/SponsorMatrix.sol:Nanakshahi",
								"label": "qualifiedRoundId",
								"offset": 0,
								"slot": "1",
								"type": "t_uint256"
							},
							{
								"astId": 2955,
								"contract": "contracts/modules/SponsorMatrix.sol:Nanakshahi",
								"label": "claimTime",
								"offset": 0,
								"slot": "2",
								"type": "t_uint256"
							},
							{
								"astId": 2959,
								"contract": "contracts/modules/SponsorMatrix.sol:Nanakshahi",
								"label": "isClaimed",
								"offset": 0,
								"slot": "3",
								"type": "t_mapping(t_uint256,t_bool)"
							},
							{
								"astId": 2961,
								"contract": "contracts/modules/SponsorMatrix.sol:Nanakshahi",
								"label": "isQualified",
								"offset": 0,
								"slot": "4",
								"type": "t_bool"
							}
						],
						"numberOfBytes": "160"
					},
					"t_struct(topRoyalty)3042_storage": {
						"encoding": "inplace",
						"label": "struct Storage.topRoyalty",
						"members": [
							{
								"astId": 3025,
								"contract": "contracts/modules/SponsorMatrix.sol:Nanakshahi",
								"label": "roundId",
								"offset": 0,
								"slot": "0",
								"type": "t_uint256"
							},
							{
								"astId": 3027,
								"contract": "contracts/modules/SponsorMatrix.sol:Nanakshahi",
								"label": "totalReward",
								"offset": 0,
								"slot": "1",
								"type": "t_uint256"
							},
							{
								"astId": 3029,
								"contract": "contracts/modules/SponsorMatrix.sol:Nanakshahi",
								"label": "totalUsers",
								"offset": 0,
								"slot": "2",
								"type": "t_uint256"
							},
							{
								"astId": 3031,
								"contract": "contracts/modules/SponsorMatrix.sol:Nanakshahi",
								"label": "perUserReward",
								"offset": 0,
								"slot": "3",
								"type": "t_uint256"
							},
							{
								"astId": 3033,
								"contract": "contracts/modules/SponsorMatrix.sol:Nanakshahi",
								"label": "claimedCount",
								"offset": 0,
								"slot": "4",
								"type": "t_uint256"
							},
							{
								"astId": 3035,
								"contract": "contracts/modules/SponsorMatrix.sol:Nanakshahi",
								"label": "startTime",
								"offset": 0,
								"slot": "5",
								"type": "t_uint256"
							},
							{
								"astId": 3037,
								"contract": "contracts/modules/SponsorMatrix.sol:Nanakshahi",
								"label": "endTime",
								"offset": 0,
								"slot": "6",
								"type": "t_uint256"
							},
							{
								"astId": 3039,
								"contract": "contracts/modules/SponsorMatrix.sol:Nanakshahi",
								"label": "carryForward",
								"offset": 0,
								"slot": "7",
								"type": "t_uint256"
							},
							{
								"astId": 3041,
								"contract": "contracts/modules/SponsorMatrix.sol:Nanakshahi",
								"label": "closed",
								"offset": 0,
								"slot": "8",
								"type": "t_bool"
							}
						],
						"numberOfBytes": "288"
					},
					"t_struct(topRoyaltyUser)3055_storage": {
						"encoding": "inplace",
						"label": "struct Storage.topRoyaltyUser",
						"members": [
							{
								"astId": 3044,
								"contract": "contracts/modules/SponsorMatrix.sol:Nanakshahi",
								"label": "joinTime",
								"offset": 0,
								"slot": "0",
								"type": "t_uint256"
							},
							{
								"astId": 3046,
								"contract": "contracts/modules/SponsorMatrix.sol:Nanakshahi",
								"label": "qualifiedRoundId",
								"offset": 0,
								"slot": "1",
								"type": "t_uint256"
							},
							{
								"astId": 3048,
								"contract": "contracts/modules/SponsorMatrix.sol:Nanakshahi",
								"label": "claimTime",
								"offset": 0,
								"slot": "2",
								"type": "t_uint256"
							},
							{
								"astId": 3052,
								"contract": "contracts/modules/SponsorMatrix.sol:Nanakshahi",
								"label": "isClaimed",
								"offset": 0,
								"slot": "3",
								"type": "t_mapping(t_uint256,t_bool)"
							},
							{
								"astId": 3054,
								"contract": "contracts/modules/SponsorMatrix.sol:Nanakshahi",
								"label": "isQualified",
								"offset": 0,
								"slot": "4",
								"type": "t_bool"
							}
						],
						"numberOfBytes": "160"
					},
					"t_struct(weeklyUser)2857_storage": {
						"encoding": "inplace",
						"label": "struct Storage.weeklyUser",
						"members": [
							{
								"astId": 2848,
								"contract": "contracts/modules/SponsorMatrix.sol:Nanakshahi",
								"label": "joinTime",
								"offset": 0,
								"slot": "0",
								"type": "t_uint256"
							},
							{
								"astId": 2850,
								"contract": "contracts/modules/SponsorMatrix.sol:Nanakshahi",
								"label": "roundId",
								"offset": 0,
								"slot": "1",
								"type": "t_uint256"
							},
							{
								"astId": 2852,
								"contract": "contracts/modules/SponsorMatrix.sol:Nanakshahi",
								"label": "claimTime",
								"offset": 0,
								"slot": "2",
								"type": "t_uint256"
							},
							{
								"astId": 2854,
								"contract": "contracts/modules/SponsorMatrix.sol:Nanakshahi",
								"label": "isClaimed",
								"offset": 0,
								"slot": "3",
								"type": "t_bool"
							},
							{
								"astId": 2856,
								"contract": "contracts/modules/SponsorMatrix.sol:Nanakshahi",
								"label": "isQualified",
								"offset": 1,
								"slot": "3",
								"type": "t_bool"
							}
						],
						"numberOfBytes": "128"
					},
					"t_uint256": {
						"encoding": "inplace",
						"label": "uint256",
						"numberOfBytes": "32"
					},
					"t_uint8": {
						"encoding": "inplace",
						"label": "uint8",
						"numberOfBytes": "1"
					}
				}
			},
			"userdoc": {
				"kind": "user",
				"methods": {},
				"version": 1
			}
		}
	}
}