{
	"contracts/modules/InfinityPool.sol": {
		"InfinityPool": {
			"abi": [
				{
					"inputs": [],
					"stateMutability": "nonpayable",
					"type": "constructor"
				},
				{
					"inputs": [
						{
							"internalType": "address",
							"name": "token",
							"type": "address"
						}
					],
					"name": "SafeERC20FailedOperation",
					"type": "error"
				},
				{
					"anonymous": false,
					"inputs": [
						{
							"indexed": false,
							"internalType": "uint256",
							"name": "amount",
							"type": "uint256"
						},
						{
							"indexed": false,
							"internalType": "uint256",
							"name": "usersCount",
							"type": "uint256"
						},
						{
							"indexed": false,
							"internalType": "uint256",
							"name": "perUser",
							"type": "uint256"
						}
					],
					"name": "CommunityBonusDistributed",
					"type": "event"
				},
				{
					"anonymous": false,
					"inputs": [
						{
							"indexed": true,
							"internalType": "address",
							"name": "to",
							"type": "address"
						},
						{
							"indexed": true,
							"internalType": "address",
							"name": "from",
							"type": "address"
						},
						{
							"indexed": false,
							"internalType": "uint256",
							"name": "amount",
							"type": "uint256"
						},
						{
							"indexed": false,
							"internalType": "uint256",
							"name": "packageLevel",
							"type": "uint256"
						},
						{
							"indexed": false,
							"internalType": "uint256",
							"name": "incomeType",
							"type": "uint256"
						}
					],
					"name": "IncomeDistributed",
					"type": "event"
				},
				{
					"anonymous": false,
					"inputs": [
						{
							"indexed": true,
							"internalType": "address",
							"name": "to",
							"type": "address"
						},
						{
							"indexed": true,
							"internalType": "uint256",
							"name": "toId",
							"type": "uint256"
						},
						{
							"indexed": true,
							"internalType": "uint256",
							"name": "fromId",
							"type": "uint256"
						},
						{
							"indexed": false,
							"internalType": "uint256",
							"name": "amount",
							"type": "uint256"
						},
						{
							"indexed": false,
							"internalType": "uint256",
							"name": "packageLevel",
							"type": "uint256"
						},
						{
							"indexed": false,
							"internalType": "enum Storage.IncomeType",
							"name": "incomeType",
							"type": "uint8"
						},
						{
							"indexed": false,
							"internalType": "uint256",
							"name": "timestamp",
							"type": "uint256"
						}
					],
					"name": "IncomeDistribution",
					"type": "event"
				},
				{
					"anonymous": false,
					"inputs": [
						{
							"indexed": true,
							"internalType": "address",
							"name": "winner",
							"type": "address"
						},
						{
							"indexed": true,
							"internalType": "uint256",
							"name": "fromUserId",
							"type": "uint256"
						},
						{
							"indexed": false,
							"internalType": "uint256",
							"name": "amount",
							"type": "uint256"
						},
						{
							"indexed": false,
							"internalType": "uint256",
							"name": "timestamp",
							"type": "uint256"
						}
					],
					"name": "LotteryReward",
					"type": "event"
				},
				{
					"anonymous": false,
					"inputs": [
						{
							"indexed": false,
							"internalType": "uint256",
							"name": "roundId",
							"type": "uint256"
						},
						{
							"indexed": false,
							"internalType": "uint256",
							"name": "totalUsers",
							"type": "uint256"
						},
						{
							"indexed": false,
							"internalType": "uint256",
							"name": "perUserReward",
							"type": "uint256"
						},
						{
							"indexed": false,
							"internalType": "uint256",
							"name": "totalReward",
							"type": "uint256"
						},
						{
							"indexed": false,
							"internalType": "uint256",
							"name": "totalDistributed",
							"type": "uint256"
						},
						{
							"indexed": false,
							"internalType": "uint256",
							"name": "leftoverReward",
							"type": "uint256"
						},
						{
							"indexed": false,
							"internalType": "uint256",
							"name": "endTime",
							"type": "uint256"
						}
					],
					"name": "MonthlyClosed",
					"type": "event"
				},
				{
					"anonymous": false,
					"inputs": [
						{
							"indexed": false,
							"internalType": "uint256",
							"name": "roundId",
							"type": "uint256"
						},
						{
							"indexed": false,
							"internalType": "uint256",
							"name": "userId",
							"type": "uint256"
						},
						{
							"indexed": false,
							"internalType": "uint256",
							"name": "perUserReward",
							"type": "uint256"
						},
						{
							"indexed": false,
							"internalType": "uint256",
							"name": "claimTime",
							"type": "uint256"
						}
					],
					"name": "MonthlyRewardClaim",
					"type": "event"
				},
				{
					"anonymous": false,
					"inputs": [
						{
							"indexed": false,
							"internalType": "uint256",
							"name": "roundId",
							"type": "uint256"
						},
						{
							"indexed": false,
							"internalType": "uint256",
							"name": "userId",
							"type": "uint256"
						},
						{
							"indexed": false,
							"internalType": "uint256",
							"name": "joinTime",
							"type": "uint256"
						}
					],
					"name": "MonthlyRoyaltyQualified",
					"type": "event"
				},
				{
					"anonymous": false,
					"inputs": [
						{
							"indexed": true,
							"internalType": "address",
							"name": "user",
							"type": "address"
						},
						{
							"indexed": true,
							"internalType": "address",
							"name": "sponsor",
							"type": "address"
						},
						{
							"indexed": true,
							"internalType": "uint256",
							"name": "userId",
							"type": "uint256"
						},
						{
							"indexed": false,
							"internalType": "uint256",
							"name": "uplineId",
							"type": "uint256"
						}
					],
					"name": "Registration",
					"type": "event"
				},
				{
					"anonymous": false,
					"inputs": [
						{
							"indexed": true,
							"internalType": "address",
							"name": "to",
							"type": "address"
						},
						{
							"indexed": false,
							"internalType": "uint256",
							"name": "amount",
							"type": "uint256"
						},
						{
							"indexed": false,
							"internalType": "string",
							"name": "level",
							"type": "string"
						}
					],
					"name": "RewardSent",
					"type": "event"
				},
				{
					"anonymous": false,
					"inputs": [
						{
							"indexed": false,
							"internalType": "uint256",
							"name": "roundId",
							"type": "uint256"
						},
						{
							"indexed": false,
							"internalType": "uint256",
							"name": "totalUsers",
							"type": "uint256"
						},
						{
							"indexed": false,
							"internalType": "uint256",
							"name": "perUserReward",
							"type": "uint256"
						},
						{
							"indexed": false,
							"internalType": "uint256",
							"name": "totalReward",
							"type": "uint256"
						},
						{
							"indexed": false,
							"internalType": "uint256",
							"name": "totalDistributed",
							"type": "uint256"
						},
						{
							"indexed": false,
							"internalType": "uint256",
							"name": "leftoverReward",
							"type": "uint256"
						},
						{
							"indexed": false,
							"internalType": "uint256",
							"name": "endTime",
							"type": "uint256"
						}
					],
					"name": "TopRoyaltyClosed",
					"type": "event"
				},
				{
					"anonymous": false,
					"inputs": [
						{
							"indexed": false,
							"internalType": "uint256",
							"name": "roundId",
							"type": "uint256"
						},
						{
							"indexed": false,
							"internalType": "uint256",
							"name": "userId",
							"type": "uint256"
						},
						{
							"indexed": false,
							"internalType": "uint256",
							"name": "joinTime",
							"type": "uint256"
						}
					],
					"name": "TopRoyaltyQualified",
					"type": "event"
				},
				{
					"anonymous": false,
					"inputs": [
						{
							"indexed": false,
							"internalType": "uint256",
							"name": "roundId",
							"type": "uint256"
						},
						{
							"indexed": false,
							"internalType": "uint256",
							"name": "userId",
							"type": "uint256"
						},
						{
							"indexed": false,
							"internalType": "uint256",
							"name": "perUserReward",
							"type": "uint256"
						},
						{
							"indexed": false,
							"internalType": "uint256",
							"name": "claimTime",
							"type": "uint256"
						}
					],
					"name": "TopRoyaltyRewardClaim",
					"type": "event"
				},
				{
					"anonymous": false,
					"inputs": [
						{
							"indexed": true,
							"internalType": "address",
							"name": "user",
							"type": "address"
						},
						{
							"indexed": true,
							"internalType": "uint256",
							"name": "userId",
							"type": "uint256"
						},
						{
							"indexed": false,
							"internalType": "uint256",
							"name": "packageLevel",
							"type": "uint256"
						},
						{
							"indexed": false,
							"internalType": "uint256",
							"name": "packagePrice",
							"type": "uint256"
						},
						{
							"indexed": false,
							"internalType": "string",
							"name": "depositType",
							"type": "string"
						},
						{
							"indexed": false,
							"internalType": "uint256",
							"name": "upgradeTime",
							"type": "uint256"
						}
					],
					"name": "Upgrade",
					"type": "event"
				},
				{
					"anonymous": false,
					"inputs": [
						{
							"indexed": true,
							"internalType": "uint8",
							"name": "matrixId",
							"type": "uint8"
						},
						{
							"indexed": true,
							"internalType": "uint32",
							"name": "userId",
							"type": "uint32"
						},
						{
							"indexed": true,
							"internalType": "address",
							"name": "user",
							"type": "address"
						},
						{
							"indexed": false,
							"internalType": "uint32",
							"name": "parentId",
							"type": "uint32"
						},
						{
							"indexed": false,
							"internalType": "address",
							"name": "parentAddr",
							"type": "address"
						},
						{
							"indexed": false,
							"internalType": "uint8",
							"name": "position",
							"type": "uint8"
						}
					],
					"name": "UserJoined",
					"type": "event"
				},
				{
					"anonymous": false,
					"inputs": [
						{
							"indexed": false,
							"internalType": "uint256",
							"name": "roundId",
							"type": "uint256"
						},
						{
							"indexed": false,
							"internalType": "uint256",
							"name": "totalUsers",
							"type": "uint256"
						},
						{
							"indexed": false,
							"internalType": "uint256",
							"name": "perUserReward",
							"type": "uint256"
						},
						{
							"indexed": false,
							"internalType": "uint256",
							"name": "totalReward",
							"type": "uint256"
						},
						{
							"indexed": false,
							"internalType": "uint256",
							"name": "totalDistributed",
							"type": "uint256"
						},
						{
							"indexed": false,
							"internalType": "uint256",
							"name": "leftoverReward",
							"type": "uint256"
						},
						{
							"indexed": false,
							"internalType": "uint256",
							"name": "endTime",
							"type": "uint256"
						}
					],
					"name": "WeeklyClosed",
					"type": "event"
				},
				{
					"anonymous": false,
					"inputs": [
						{
							"indexed": false,
							"internalType": "uint256",
							"name": "roundId",
							"type": "uint256"
						},
						{
							"indexed": false,
							"internalType": "uint256",
							"name": "userId",
							"type": "uint256"
						},
						{
							"indexed": false,
							"internalType": "uint256",
							"name": "joinTime",
							"type": "uint256"
						}
					],
					"name": "WeeklyContestQualified",
					"type": "event"
				},
				{
					"anonymous": false,
					"inputs": [
						{
							"indexed": false,
							"internalType": "uint256",
							"name": "roundId",
							"type": "uint256"
						},
						{
							"indexed": false,
							"internalType": "uint256",
							"name": "userId",
							"type": "uint256"
						},
						{
							"indexed": false,
							"internalType": "uint256",
							"name": "perUserReward",
							"type": "uint256"
						},
						{
							"indexed": false,
							"internalType": "uint256",
							"name": "claimTime",
							"type": "uint256"
						}
					],
					"name": "WeeklyRewardClaim",
					"type": "event"
				},
				{
					"inputs": [],
					"name": "ACC_PRECISION",
					"outputs": [
						{
							"internalType": "uint256",
							"name": "",
							"type": "uint256"
						}
					],
					"stateMutability": "view",
					"type": "function"
				},
				{
					"inputs": [],
					"name": "MONTHLY_ROYALTY_DIRECT",
					"outputs": [
						{
							"internalType": "uint256",
							"name": "",
							"type": "uint256"
						}
					],
					"stateMutability": "view",
					"type": "function"
				},
				{
					"inputs": [],
					"name": "MONTHLY_ROYALTY_LEVEL",
					"outputs": [
						{
							"internalType": "uint256",
							"name": "",
							"type": "uint256"
						}
					],
					"stateMutability": "view",
					"type": "function"
				},
				{
					"inputs": [],
					"name": "MONTHLY_ROYALTY_TIME",
					"outputs": [
						{
							"internalType": "uint256",
							"name": "",
							"type": "uint256"
						}
					],
					"stateMutability": "view",
					"type": "function"
				},
				{
					"inputs": [],
					"name": "MONTH_DURATION",
					"outputs": [
						{
							"internalType": "uint256",
							"name": "",
							"type": "uint256"
						}
					],
					"stateMutability": "view",
					"type": "function"
				},
				{
					"inputs": [],
					"name": "PERCENTS_DIVIDER",
					"outputs": [
						{
							"internalType": "uint256",
							"name": "",
							"type": "uint256"
						}
					],
					"stateMutability": "view",
					"type": "function"
				},
				{
					"inputs": [],
					"name": "ROI_2X_TIME",
					"outputs": [
						{
							"internalType": "uint256",
							"name": "",
							"type": "uint256"
						}
					],
					"stateMutability": "view",
					"type": "function"
				},
				{
					"inputs": [],
					"name": "ROI_CAP_DIVIDER",
					"outputs": [
						{
							"internalType": "uint256",
							"name": "",
							"type": "uint256"
						}
					],
					"stateMutability": "view",
					"type": "function"
				},
				{
					"inputs": [],
					"name": "ROI_CAP_MULTIPLIER",
					"outputs": [
						{
							"internalType": "uint256",
							"name": "",
							"type": "uint256"
						}
					],
					"stateMutability": "view",
					"type": "function"
				},
				{
					"inputs": [
						{
							"internalType": "uint256",
							"name": "_userId",
							"type": "uint256"
						},
						{
							"internalType": "uint256",
							"name": "_poolId",
							"type": "uint256"
						}
					],
					"name": "RetopPoolByEarning",
					"outputs": [],
					"stateMutability": "nonpayable",
					"type": "function"
				},
				{
					"inputs": [],
					"name": "TIME_STEP",
					"outputs": [
						{
							"internalType": "uint256",
							"name": "",
							"type": "uint256"
						}
					],
					"stateMutability": "view",
					"type": "function"
				},
				{
					"inputs": [],
					"name": "TOP_ROYALTY_DIRECT",
					"outputs": [
						{
							"internalType": "uint256",
							"name": "",
							"type": "uint256"
						}
					],
					"stateMutability": "view",
					"type": "function"
				},
				{
					"inputs": [],
					"name": "TOP_ROYALTY_LEVEL",
					"outputs": [
						{
							"internalType": "uint256",
							"name": "",
							"type": "uint256"
						}
					],
					"stateMutability": "view",
					"type": "function"
				},
				{
					"inputs": [],
					"name": "TOP_ROYALTY_TIME",
					"outputs": [
						{
							"internalType": "uint256",
							"name": "",
							"type": "uint256"
						}
					],
					"stateMutability": "view",
					"type": "function"
				},
				{
					"inputs": [],
					"name": "WEEK_DURATION",
					"outputs": [
						{
							"internalType": "uint256",
							"name": "",
							"type": "uint256"
						}
					],
					"stateMutability": "view",
					"type": "function"
				},
				{
					"inputs": [],
					"name": "WeeklyCapping",
					"outputs": [
						{
							"internalType": "uint256",
							"name": "",
							"type": "uint256"
						}
					],
					"stateMutability": "view",
					"type": "function"
				},
				{
					"inputs": [],
					"name": "WeeklyTotalReward",
					"outputs": [
						{
							"internalType": "uint256",
							"name": "",
							"type": "uint256"
						}
					],
					"stateMutability": "view",
					"type": "function"
				},
				{
					"inputs": [
						{
							"internalType": "uint256",
							"name": "userId",
							"type": "uint256"
						}
					],
					"name": "canBuyNextPool",
					"outputs": [
						{
							"internalType": "bool",
							"name": "eligible",
							"type": "bool"
						},
						{
							"internalType": "string",
							"name": "reason",
							"type": "string"
						}
					],
					"stateMutability": "view",
					"type": "function"
				},
				{
					"inputs": [
						{
							"internalType": "uint256",
							"name": "",
							"type": "uint256"
						}
					],
					"name": "communityAccPerPackage",
					"outputs": [
						{
							"internalType": "uint256",
							"name": "",
							"type": "uint256"
						}
					],
					"stateMutability": "view",
					"type": "function"
				},
				{
					"inputs": [],
					"name": "communityAccPerUser",
					"outputs": [
						{
							"internalType": "uint256",
							"name": "",
							"type": "uint256"
						}
					],
					"stateMutability": "view",
					"type": "function"
				},
				{
					"inputs": [
						{
							"internalType": "uint256",
							"name": "",
							"type": "uint256"
						},
						{
							"internalType": "uint256",
							"name": "",
							"type": "uint256"
						}
					],
					"name": "communityDebt",
					"outputs": [
						{
							"internalType": "uint256",
							"name": "",
							"type": "uint256"
						}
					],
					"stateMutability": "view",
					"type": "function"
				},
				{
					"inputs": [],
					"name": "creatorWallet",
					"outputs": [
						{
							"internalType": "address",
							"name": "",
							"type": "address"
						}
					],
					"stateMutability": "view",
					"type": "function"
				},
				{
					"inputs": [],
					"name": "currentMonthlyRound",
					"outputs": [
						{
							"internalType": "uint256",
							"name": "",
							"type": "uint256"
						}
					],
					"stateMutability": "view",
					"type": "function"
				},
				{
					"inputs": [],
					"name": "currentMonthlyStartTime",
					"outputs": [
						{
							"internalType": "uint256",
							"name": "",
							"type": "uint256"
						}
					],
					"stateMutability": "view",
					"type": "function"
				},
				{
					"inputs": [],
					"name": "currentWeeklyRound",
					"outputs": [
						{
							"internalType": "uint256",
							"name": "",
							"type": "uint256"
						}
					],
					"stateMutability": "view",
					"type": "function"
				},
				{
					"inputs": [],
					"name": "currentWeeklyStartTime",
					"outputs": [
						{
							"internalType": "uint256",
							"name": "",
							"type": "uint256"
						}
					],
					"stateMutability": "view",
					"type": "function"
				},
				{
					"inputs": [],
					"name": "defaultRefId",
					"outputs": [
						{
							"internalType": "uint256",
							"name": "",
							"type": "uint256"
						}
					],
					"stateMutability": "view",
					"type": "function"
				},
				{
					"inputs": [
						{
							"internalType": "uint256",
							"name": "",
							"type": "uint256"
						}
					],
					"name": "glbBoosterPackages",
					"outputs": [
						{
							"internalType": "uint256",
							"name": "",
							"type": "uint256"
						}
					],
					"stateMutability": "view",
					"type": "function"
				},
				{
					"inputs": [
						{
							"internalType": "uint256",
							"name": "",
							"type": "uint256"
						}
					],
					"name": "minLevelForGlbBooster",
					"outputs": [
						{
							"internalType": "uint256",
							"name": "",
							"type": "uint256"
						}
					],
					"stateMutability": "view",
					"type": "function"
				},
				{
					"inputs": [
						{
							"internalType": "uint256",
							"name": "",
							"type": "uint256"
						}
					],
					"name": "minLevelForPool",
					"outputs": [
						{
							"internalType": "uint256",
							"name": "",
							"type": "uint256"
						}
					],
					"stateMutability": "view",
					"type": "function"
				},
				{
					"inputs": [
						{
							"internalType": "uint256",
							"name": "",
							"type": "uint256"
						}
					],
					"name": "minPoolForGlbBooster",
					"outputs": [
						{
							"internalType": "uint256",
							"name": "",
							"type": "uint256"
						}
					],
					"stateMutability": "view",
					"type": "function"
				},
				{
					"inputs": [],
					"name": "monthlyCapping",
					"outputs": [
						{
							"internalType": "uint256",
							"name": "",
							"type": "uint256"
						}
					],
					"stateMutability": "view",
					"type": "function"
				},
				{
					"inputs": [],
					"name": "monthlyTotalReward",
					"outputs": [
						{
							"internalType": "uint256",
							"name": "",
							"type": "uint256"
						}
					],
					"stateMutability": "view",
					"type": "function"
				},
				{
					"inputs": [
						{
							"internalType": "uint256",
							"name": "",
							"type": "uint256"
						}
					],
					"name": "packageQualifiedUsers",
					"outputs": [
						{
							"internalType": "uint256",
							"name": "",
							"type": "uint256"
						}
					],
					"stateMutability": "view",
					"type": "function"
				},
				{
					"inputs": [
						{
							"internalType": "uint256",
							"name": "",
							"type": "uint256"
						}
					],
					"name": "packages",
					"outputs": [
						{
							"internalType": "uint256",
							"name": "",
							"type": "uint256"
						}
					],
					"stateMutability": "view",
					"type": "function"
				},
				{
					"inputs": [
						{
							"internalType": "uint256",
							"name": "",
							"type": "uint256"
						}
					],
					"name": "poolPackages",
					"outputs": [
						{
							"internalType": "uint256",
							"name": "",
							"type": "uint256"
						}
					],
					"stateMutability": "view",
					"type": "function"
				},
				{
					"inputs": [
						{
							"internalType": "uint256",
							"name": "",
							"type": "uint256"
						}
					],
					"name": "registeredUserIds",
					"outputs": [
						{
							"internalType": "uint256",
							"name": "",
							"type": "uint256"
						}
					],
					"stateMutability": "view",
					"type": "function"
				},
				{
					"inputs": [],
					"name": "systemMaintance",
					"outputs": [
						{
							"internalType": "address",
							"name": "",
							"type": "address"
						}
					],
					"stateMutability": "view",
					"type": "function"
				},
				{
					"inputs": [],
					"name": "teamDevelopment",
					"outputs": [
						{
							"internalType": "address",
							"name": "",
							"type": "address"
						}
					],
					"stateMutability": "view",
					"type": "function"
				},
				{
					"inputs": [],
					"name": "topRoyaltyReward",
					"outputs": [
						{
							"internalType": "uint256",
							"name": "",
							"type": "uint256"
						}
					],
					"stateMutability": "view",
					"type": "function"
				},
				{
					"inputs": [],
					"name": "topRoyaltyRound",
					"outputs": [
						{
							"internalType": "uint256",
							"name": "",
							"type": "uint256"
						}
					],
					"stateMutability": "view",
					"type": "function"
				},
				{
					"inputs": [],
					"name": "topRoyaltyStartTime",
					"outputs": [
						{
							"internalType": "uint256",
							"name": "",
							"type": "uint256"
						}
					],
					"stateMutability": "view",
					"type": "function"
				},
				{
					"inputs": [],
					"name": "totalUsers",
					"outputs": [
						{
							"internalType": "uint256",
							"name": "",
							"type": "uint256"
						}
					],
					"stateMutability": "view",
					"type": "function"
				},
				{
					"inputs": [
						{
							"internalType": "uint256",
							"name": "_userId",
							"type": "uint256"
						}
					],
					"name": "upgradeBooster",
					"outputs": [],
					"stateMutability": "nonpayable",
					"type": "function"
				},
				{
					"inputs": [
						{
							"internalType": "uint256",
							"name": "_userId",
							"type": "uint256"
						}
					],
					"name": "upgradePool",
					"outputs": [],
					"stateMutability": "nonpayable",
					"type": "function"
				},
				{
					"inputs": [
						{
							"internalType": "uint32",
							"name": "_userId",
							"type": "uint32"
						},
						{
							"internalType": "uint256",
							"name": "_poolId",
							"type": "uint256"
						}
					],
					"name": "upgradePoolByEarning",
					"outputs": [],
					"stateMutability": "nonpayable",
					"type": "function"
				},
				{
					"inputs": [],
					"name": "usdt",
					"outputs": [
						{
							"internalType": "contract IERC20",
							"name": "",
							"type": "address"
						}
					],
					"stateMutability": "view",
					"type": "function"
				}
			],
			"devdoc": {
				"errors": {
					"SafeERC20FailedOperation(address)": [
						{
							"details": "An operation with an ERC-20 token failed."
						}
					]
				},
				"kind": "dev",
				"methods": {},
				"version": 1
			},
			"evm": {
				"assembly": "    /* \"contracts/modules/InfinityPool.sol\":102:13831  contract InfinityPool is Storage {... */\n  mstore(0x40, 0x80)\n  jumpi(tag_4, callvalue)\n    /* \"@openzeppelin/contracts/security/ReentrancyGuard.sol\":1716:1717  1 */\n  0x01\n    /* \"@openzeppelin/contracts/security/ReentrancyGuard.sol\":1821:1843  _status = _NOT_ENTERED */\n  0x00\n    /* \"contracts/modules/InfinityPool.sol\":102:13831  contract InfinityPool is Storage {... */\n  sstore\n  mload(0x40)\n  0x01e0\n  dup2\n  add\n  sub(shl(0x40, 0x01), 0x01)\n  dup2\n  gt\n  dup3\n  dup3\n  lt\n  or\n  tag_6\n  jumpi\n  0x40\n  mstore\n    /* \"contracts/modules/Storage.sol\":2222:2231  15 * 1e18 */\n  0xd02ab486cedc0000\n    /* \"contracts/modules/InfinityPool.sol\":102:13831  contract InfinityPool is Storage {... */\n  dup2\n  mstore\n    /* \"contracts/modules/Storage.sol\":2254:2263  25 * 1e18 */\n  0x015af1d78b58c40000\n    /* \"contracts/modules/Storage.sol\":2211:2726  [... */\n  0x20\n  dup3\n  add\n    /* \"contracts/modules/InfinityPool.sol\":102:13831  contract InfinityPool is Storage {... */\n  mstore\n    /* \"contracts/modules/Storage.sol\":2286:2295  50 * 1e18 */\n  0x02b5e3af16b1880000\n    /* \"contracts/modules/InfinityPool.sol\":102:13831  contract InfinityPool is Storage {... */\n  0x40\n    /* \"contracts/modules/Storage.sol\":2211:2726  [... */\n  dup3\n  add\n    /* \"contracts/modules/InfinityPool.sol\":102:13831  contract InfinityPool is Storage {... */\n  mstore\n    /* \"contracts/modules/Storage.sol\":2318:2328  100 * 1e18 */\n  0x056bc75e2d63100000\n    /* \"contracts/modules/Storage.sol\":2211:2726  [... */\n  0x60\n  dup3\n  add\n    /* \"contracts/modules/InfinityPool.sol\":102:13831  contract InfinityPool is Storage {... */\n  mstore\n    /* \"contracts/modules/Storage.sol\":2351:2361  200 * 1e18 */\n  0x0ad78ebc5ac6200000\n    /* \"contracts/modules/Storage.sol\":2211:2726  [... */\n  0x80\n  dup3\n  add\n    /* \"contracts/modules/InfinityPool.sol\":102:13831  contract InfinityPool is Storage {... */\n  mstore\n    /* \"contracts/modules/Storage.sol\":2384:2394  400 * 1e18 */\n  0x15af1d78b58c400000\n    /* \"contracts/modules/Storage.sol\":2211:2726  [... */\n  0xa0\n  dup3\n  add\n    /* \"contracts/modules/InfinityPool.sol\":102:13831  contract InfinityPool is Storage {... */\n  mstore\n    /* \"contracts/modules/Storage.sol\":2417:2427  800 * 1e18 */\n  0x2b5e3af16b18800000\n    /* \"contracts/modules/Storage.sol\":2211:2726  [... */\n  0xc0\n  dup3\n  add\n    /* \"contracts/modules/InfinityPool.sol\":102:13831  contract InfinityPool is Storage {... */\n  mstore\n    /* \"contracts/modules/Storage.sol\":2450:2461  1600 * 1e18 */\n  0x56bc75e2d631000000\n    /* \"contracts/modules/Storage.sol\":2211:2726  [... */\n  0xe0\n  dup3\n  add\n    /* \"contracts/modules/InfinityPool.sol\":102:13831  contract InfinityPool is Storage {... */\n  mstore\n    /* \"contracts/modules/Storage.sol\":2484:2495  3200 * 1e18 */\n  0xad78ebc5ac62000000\n    /* \"contracts/modules/Storage.sol\":2211:2726  [... */\n  0x0100\n  dup3\n  add\n    /* \"contracts/modules/InfinityPool.sol\":102:13831  contract InfinityPool is Storage {... */\n  mstore\n    /* \"contracts/modules/Storage.sol\":2518:2529  6400 * 1e18 */\n  0x015af1d78b58c4000000\n    /* \"contracts/modules/Storage.sol\":2211:2726  [... */\n  0x0120\n  dup3\n  add\n    /* \"contracts/modules/InfinityPool.sol\":102:13831  contract InfinityPool is Storage {... */\n  mstore\n    /* \"contracts/modules/Storage.sol\":2552:2564  12800 * 1e18 */\n  0x02b5e3af16b188000000\n    /* \"contracts/modules/Storage.sol\":2211:2726  [... */\n  0x0140\n  dup3\n  add\n    /* \"contracts/modules/InfinityPool.sol\":102:13831  contract InfinityPool is Storage {... */\n  mstore\n    /* \"contracts/modules/Storage.sol\":2587:2599  25600 * 1e18 */\n  0x056bc75e2d6310000000\n    /* \"contracts/modules/Storage.sol\":2211:2726  [... */\n  0x0160\n  dup3\n  add\n    /* \"contracts/modules/InfinityPool.sol\":102:13831  contract InfinityPool is Storage {... */\n  mstore\n    /* \"contracts/modules/Storage.sol\":2622:2634  51200 * 1e18 */\n  0x0ad78ebc5ac620000000\n    /* \"contracts/modules/Storage.sol\":2211:2726  [... */\n  0x0180\n  dup3\n  add\n    /* \"contracts/modules/InfinityPool.sol\":102:13831  contract InfinityPool is Storage {... */\n  mstore\n    /* \"contracts/modules/Storage.sol\":2657:2670  102400 * 1e18 */\n  0x15af1d78b58c40000000\n    /* \"contracts/modules/Storage.sol\":2211:2726  [... */\n  0x01a0\n  dup3\n  add\n    /* \"contracts/modules/InfinityPool.sol\":102:13831  contract InfinityPool is Storage {... */\n  mstore\n    /* \"contracts/modules/Storage.sol\":2693:2706  204800 * 1e18 */\n  0x2b5e3af16b1880000000\n    /* \"contracts/modules/Storage.sol\":2211:2726  [... */\n  0x01c0\n  dup3\n  add\n    /* \"contracts/modules/InfinityPool.sol\":102:13831  contract InfinityPool is Storage {... */\n  mstore\n    /* \"contracts/modules/Storage.sol\":2211:2726  [... */\n  0x0d\n    /* \"contracts/modules/InfinityPool.sol\":102:13831  contract InfinityPool is Storage {... */\n  sload\n    /* \"contracts/modules/Storage.sol\":2211:2726  [... */\n  0x0f\n  0x0d\n    /* \"contracts/modules/InfinityPool.sol\":102:13831  contract InfinityPool is Storage {... */\n  sstore\n  dup1\n    /* \"contracts/modules/Storage.sol\":2211:2726  [... */\n  0x0f\n    /* \"contracts/modules/InfinityPool.sol\":102:13831  contract InfinityPool is Storage {... */\n  lt\n  tag_8\n  jumpi\ntag_9:\n  pop\n    /* \"contracts/modules/Storage.sol\":2211:2726  [... */\n  0x0d\n    /* \"@openzeppelin/contracts/security/ReentrancyGuard.sol\":1821:1843  _status = _NOT_ENTERED */\n  0x00\n    /* \"contracts/modules/InfinityPool.sol\":102:13831  contract InfinityPool is Storage {... */\n  mstore\n    /* \"contracts/modules/Storage.sol\":2211:2726  [... */\n  0x20\n    /* \"@openzeppelin/contracts/security/ReentrancyGuard.sol\":1821:1843  _status = _NOT_ENTERED */\n  0x00\n    /* \"contracts/modules/InfinityPool.sol\":102:13831  contract InfinityPool is Storage {... */\n  keccak256\n  swap1\n    /* \"@openzeppelin/contracts/security/ReentrancyGuard.sol\":1821:1843  _status = _NOT_ENTERED */\n  0x00\n    /* \"contracts/modules/InfinityPool.sol\":102:13831  contract InfinityPool is Storage {... */\ntag_10:\n    /* \"contracts/modules/Storage.sol\":2211:2726  [... */\n  0x0f\n    /* \"contracts/modules/InfinityPool.sol\":102:13831  contract InfinityPool is Storage {... */\n  dup2\n  lt\n  tag_11\n  jumpi\n  tag_13\n  tag_1\n  jump\t// in\ntag_13:\n    /* \"contracts/modules/Storage.sol\":6877:6882  75e18 */\n  0x0410d586a20a4c0000\n    /* \"contracts/modules/InfinityPool.sol\":102:13831  contract InfinityPool is Storage {... */\n  dup2\n  mstore\n    /* \"contracts/modules/Storage.sol\":6884:6890  300e18 */\n  0x1043561a8829300000\n    /* \"contracts/modules/Storage.sol\":2211:2726  [... */\n  0x20\n    /* \"contracts/modules/Storage.sol\":6876:6940  [75e18, 300e18, 1200e18, 4800e18, 19200e18, 76800e18, 307200e18] */\n  dup3\n  add\n    /* \"contracts/modules/InfinityPool.sol\":102:13831  contract InfinityPool is Storage {... */\n  mstore\n    /* \"contracts/modules/Storage.sol\":6892:6899  1200e18 */\n  0x410d586a20a4c00000\n    /* \"contracts/modules/InfinityPool.sol\":102:13831  contract InfinityPool is Storage {... */\n  0x40\n    /* \"contracts/modules/Storage.sol\":6876:6940  [75e18, 300e18, 1200e18, 4800e18, 19200e18, 76800e18, 307200e18] */\n  dup3\n  add\n    /* \"contracts/modules/InfinityPool.sol\":102:13831  contract InfinityPool is Storage {... */\n  mstore\n    /* \"contracts/modules/Storage.sol\":6901:6908  4800e18 */\n  0x01043561a88293000000\n    /* \"contracts/modules/Storage.sol\":2211:2726  [... */\n  0x60\n    /* \"contracts/modules/Storage.sol\":6876:6940  [75e18, 300e18, 1200e18, 4800e18, 19200e18, 76800e18, 307200e18] */\n  dup3\n  add\n    /* \"contracts/modules/InfinityPool.sol\":102:13831  contract InfinityPool is Storage {... */\n  mstore\n    /* \"contracts/modules/Storage.sol\":6910:6918  19200e18 */\n  0x0410d586a20a4c000000\n    /* \"contracts/modules/Storage.sol\":2211:2726  [... */\n  0x80\n    /* \"contracts/modules/Storage.sol\":6876:6940  [75e18, 300e18, 1200e18, 4800e18, 19200e18, 76800e18, 307200e18] */\n  dup3\n  add\n    /* \"contracts/modules/InfinityPool.sol\":102:13831  contract InfinityPool is Storage {... */\n  mstore\n    /* \"contracts/modules/Storage.sol\":6920:6928  76800e18 */\n  0x1043561a882930000000\n    /* \"contracts/modules/Storage.sol\":2211:2726  [... */\n  0xa0\n    /* \"contracts/modules/Storage.sol\":6876:6940  [75e18, 300e18, 1200e18, 4800e18, 19200e18, 76800e18, 307200e18] */\n  dup3\n  add\n    /* \"contracts/modules/InfinityPool.sol\":102:13831  contract InfinityPool is Storage {... */\n  mstore\n    /* \"contracts/modules/Storage.sol\":6930:6939  307200e18 */\n  0x410d586a20a4c0000000\n    /* \"contracts/modules/Storage.sol\":2211:2726  [... */\n  0xc0\n    /* \"contracts/modules/Storage.sol\":6876:6940  [75e18, 300e18, 1200e18, 4800e18, 19200e18, 76800e18, 307200e18] */\n  dup3\n  add\n    /* \"contracts/modules/InfinityPool.sol\":102:13831  contract InfinityPool is Storage {... */\n  mstore\n    /* \"contracts/modules/Storage.sol\":6876:6940  [75e18, 300e18, 1200e18, 4800e18, 19200e18, 76800e18, 307200e18] */\n  0x15\n    /* \"contracts/modules/InfinityPool.sol\":102:13831  contract InfinityPool is Storage {... */\n  sload\n    /* \"contracts/modules/Storage.sol\":6876:6940  [75e18, 300e18, 1200e18, 4800e18, 19200e18, 76800e18, 307200e18] */\n  0x07\n  0x15\n    /* \"contracts/modules/InfinityPool.sol\":102:13831  contract InfinityPool is Storage {... */\n  sstore\n  dup1\n    /* \"contracts/modules/Storage.sol\":6876:6940  [75e18, 300e18, 1200e18, 4800e18, 19200e18, 76800e18, 307200e18] */\n  0x07\n    /* \"contracts/modules/InfinityPool.sol\":102:13831  contract InfinityPool is Storage {... */\n  lt\n  tag_14\n  jumpi\ntag_15:\n  pop\n    /* \"contracts/modules/Storage.sol\":6876:6940  [75e18, 300e18, 1200e18, 4800e18, 19200e18, 76800e18, 307200e18] */\n  0x15\n    /* \"@openzeppelin/contracts/security/ReentrancyGuard.sol\":1821:1843  _status = _NOT_ENTERED */\n  0x00\n    /* \"contracts/modules/InfinityPool.sol\":102:13831  contract InfinityPool is Storage {... */\n  mstore\n    /* \"contracts/modules/Storage.sol\":2211:2726  [... */\n  0x20\n    /* \"@openzeppelin/contracts/security/ReentrancyGuard.sol\":1821:1843  _status = _NOT_ENTERED */\n  0x00\n    /* \"contracts/modules/InfinityPool.sol\":102:13831  contract InfinityPool is Storage {... */\n  keccak256\n  swap1\n    /* \"@openzeppelin/contracts/security/ReentrancyGuard.sol\":1821:1843  _status = _NOT_ENTERED */\n  0x00\n    /* \"contracts/modules/InfinityPool.sol\":102:13831  contract InfinityPool is Storage {... */\ntag_16:\n    /* \"contracts/modules/Storage.sol\":6876:6940  [75e18, 300e18, 1200e18, 4800e18, 19200e18, 76800e18, 307200e18] */\n  0x07\n    /* \"contracts/modules/InfinityPool.sol\":102:13831  contract InfinityPool is Storage {... */\n  dup2\n  lt\n  tag_17\n  jumpi\n  tag_19\n  tag_2\n  jump\t// in\ntag_19:\n    /* \"contracts/modules/Storage.sol\":2318:2328  100 * 1e18 */\n  0x056bc75e2d63100000\n    /* \"contracts/modules/InfinityPool.sol\":102:13831  contract InfinityPool is Storage {... */\n  dup2\n  mstore\n    /* \"contracts/modules/Storage.sol\":2351:2361  200 * 1e18 */\n  0x0ad78ebc5ac6200000\n    /* \"contracts/modules/Storage.sol\":2211:2726  [... */\n  0x20\n    /* \"contracts/modules/Storage.sol\":6982:7052  [ 100e18, 200e18, 400e18, 800e18, 1600e18, 3200e18, 6400e18, 12800e18] */\n  dup3\n  add\n    /* \"contracts/modules/InfinityPool.sol\":102:13831  contract InfinityPool is Storage {... */\n  mstore\n    /* \"contracts/modules/Storage.sol\":2384:2394  400 * 1e18 */\n  0x15af1d78b58c400000\n    /* \"contracts/modules/InfinityPool.sol\":102:13831  contract InfinityPool is Storage {... */\n  0x40\n    /* \"contracts/modules/Storage.sol\":6982:7052  [ 100e18, 200e18, 400e18, 800e18, 1600e18, 3200e18, 6400e18, 12800e18] */\n  dup3\n  add\n    /* \"contracts/modules/InfinityPool.sol\":102:13831  contract InfinityPool is Storage {... */\n  mstore\n    /* \"contracts/modules/Storage.sol\":2417:2427  800 * 1e18 */\n  0x2b5e3af16b18800000\n    /* \"contracts/modules/Storage.sol\":2211:2726  [... */\n  0x60\n    /* \"contracts/modules/Storage.sol\":6982:7052  [ 100e18, 200e18, 400e18, 800e18, 1600e18, 3200e18, 6400e18, 12800e18] */\n  dup3\n  add\n    /* \"contracts/modules/InfinityPool.sol\":102:13831  contract InfinityPool is Storage {... */\n  mstore\n    /* \"contracts/modules/Storage.sol\":2450:2461  1600 * 1e18 */\n  0x56bc75e2d631000000\n    /* \"contracts/modules/Storage.sol\":2211:2726  [... */\n  0x80\n    /* \"contracts/modules/Storage.sol\":6982:7052  [ 100e18, 200e18, 400e18, 800e18, 1600e18, 3200e18, 6400e18, 12800e18] */\n  dup3\n  add\n    /* \"contracts/modules/InfinityPool.sol\":102:13831  contract InfinityPool is Storage {... */\n  mstore\n    /* \"contracts/modules/Storage.sol\":2484:2495  3200 * 1e18 */\n  0xad78ebc5ac62000000\n    /* \"contracts/modules/Storage.sol\":2211:2726  [... */\n  0xa0\n    /* \"contracts/modules/Storage.sol\":6982:7052  [ 100e18, 200e18, 400e18, 800e18, 1600e18, 3200e18, 6400e18, 12800e18] */\n  dup3\n  add\n    /* \"contracts/modules/InfinityPool.sol\":102:13831  contract InfinityPool is Storage {... */\n  mstore\n    /* \"contracts/modules/Storage.sol\":2518:2529  6400 * 1e18 */\n  0x015af1d78b58c4000000\n    /* \"contracts/modules/Storage.sol\":2211:2726  [... */\n  0xc0\n    /* \"contracts/modules/Storage.sol\":6982:7052  [ 100e18, 200e18, 400e18, 800e18, 1600e18, 3200e18, 6400e18, 12800e18] */\n  dup3\n  add\n    /* \"contracts/modules/InfinityPool.sol\":102:13831  contract InfinityPool is Storage {... */\n  mstore\n    /* \"contracts/modules/Storage.sol\":2552:2564  12800 * 1e18 */\n  0x02b5e3af16b188000000\n    /* \"contracts/modules/Storage.sol\":2211:2726  [... */\n  0xe0\n    /* \"contracts/modules/Storage.sol\":6982:7052  [ 100e18, 200e18, 400e18, 800e18, 1600e18, 3200e18, 6400e18, 12800e18] */\n  dup3\n  add\n    /* \"contracts/modules/InfinityPool.sol\":102:13831  contract InfinityPool is Storage {... */\n  mstore\n    /* \"contracts/modules/Storage.sol\":6982:7052  [ 100e18, 200e18, 400e18, 800e18, 1600e18, 3200e18, 6400e18, 12800e18] */\n  0x16\n    /* \"contracts/modules/InfinityPool.sol\":102:13831  contract InfinityPool is Storage {... */\n  sload\n    /* \"contracts/modules/Storage.sol\":6982:7052  [ 100e18, 200e18, 400e18, 800e18, 1600e18, 3200e18, 6400e18, 12800e18] */\n  0x08\n  0x16\n    /* \"contracts/modules/InfinityPool.sol\":102:13831  contract InfinityPool is Storage {... */\n  sstore\n  dup1\n    /* \"contracts/modules/Storage.sol\":6982:7052  [ 100e18, 200e18, 400e18, 800e18, 1600e18, 3200e18, 6400e18, 12800e18] */\n  0x08\n    /* \"contracts/modules/InfinityPool.sol\":102:13831  contract InfinityPool is Storage {... */\n  lt\n  tag_20\n  jumpi\ntag_21:\n  pop\n    /* \"contracts/modules/Storage.sol\":6982:7052  [ 100e18, 200e18, 400e18, 800e18, 1600e18, 3200e18, 6400e18, 12800e18] */\n  0x16\n    /* \"@openzeppelin/contracts/security/ReentrancyGuard.sol\":1821:1843  _status = _NOT_ENTERED */\n  0x00\n    /* \"contracts/modules/InfinityPool.sol\":102:13831  contract InfinityPool is Storage {... */\n  mstore\n    /* \"contracts/modules/Storage.sol\":2211:2726  [... */\n  0x20\n    /* \"@openzeppelin/contracts/security/ReentrancyGuard.sol\":1821:1843  _status = _NOT_ENTERED */\n  0x00\n    /* \"contracts/modules/InfinityPool.sol\":102:13831  contract InfinityPool is Storage {... */\n  keccak256\n  swap1\n    /* \"@openzeppelin/contracts/security/ReentrancyGuard.sol\":1821:1843  _status = _NOT_ENTERED */\n  0x00\n    /* \"contracts/modules/InfinityPool.sol\":102:13831  contract InfinityPool is Storage {... */\ntag_22:\n    /* \"contracts/modules/Storage.sol\":6982:7052  [ 100e18, 200e18, 400e18, 800e18, 1600e18, 3200e18, 6400e18, 12800e18] */\n  0x08\n    /* \"contracts/modules/InfinityPool.sol\":102:13831  contract InfinityPool is Storage {... */\n  dup2\n  lt\n  tag_23\n  jumpi\n  tag_25\n  tag_1\n  jump\t// in\ntag_25:\n    /* \"contracts/modules/Storage.sol\":7093:7094  3 */\n  0x03\n    /* \"contracts/modules/InfinityPool.sol\":102:13831  contract InfinityPool is Storage {... */\n  dup2\n  mstore\n  0x05\n    /* \"contracts/modules/Storage.sol\":2211:2726  [... */\n  0x20\n    /* \"contracts/modules/Storage.sol\":7092:7116  [3, 5, 7, 9, 11, 13, 15] */\n  dup3\n  add\n    /* \"contracts/modules/InfinityPool.sol\":102:13831  contract InfinityPool is Storage {... */\n  mstore\n    /* \"contracts/modules/Storage.sol\":6876:6940  [75e18, 300e18, 1200e18, 4800e18, 19200e18, 76800e18, 307200e18] */\n  0x07\n    /* \"contracts/modules/InfinityPool.sol\":102:13831  contract InfinityPool is Storage {... */\n  0x40\n    /* \"contracts/modules/Storage.sol\":7092:7116  [3, 5, 7, 9, 11, 13, 15] */\n  dup3\n  add\n    /* \"contracts/modules/InfinityPool.sol\":102:13831  contract InfinityPool is Storage {... */\n  mstore\n    /* \"contracts/modules/Storage.sol\":7102:7103  9 */\n  0x09\n    /* \"contracts/modules/Storage.sol\":2211:2726  [... */\n  0x60\n    /* \"contracts/modules/Storage.sol\":7092:7116  [3, 5, 7, 9, 11, 13, 15] */\n  dup3\n  add\n    /* \"contracts/modules/InfinityPool.sol\":102:13831  contract InfinityPool is Storage {... */\n  mstore\n    /* \"contracts/modules/Storage.sol\":7105:7107  11 */\n  0x0b\n    /* \"contracts/modules/Storage.sol\":2211:2726  [... */\n  0x80\n    /* \"contracts/modules/Storage.sol\":7092:7116  [3, 5, 7, 9, 11, 13, 15] */\n  dup3\n  add\n    /* \"contracts/modules/InfinityPool.sol\":102:13831  contract InfinityPool is Storage {... */\n  mstore\n    /* \"contracts/modules/Storage.sol\":2211:2726  [... */\n  0x0d\n  0xa0\n    /* \"contracts/modules/Storage.sol\":7092:7116  [3, 5, 7, 9, 11, 13, 15] */\n  dup3\n  add\n    /* \"contracts/modules/InfinityPool.sol\":102:13831  contract InfinityPool is Storage {... */\n  mstore\n    /* \"contracts/modules/Storage.sol\":2211:2726  [... */\n  0x0f\n  0xc0\n    /* \"contracts/modules/Storage.sol\":7092:7116  [3, 5, 7, 9, 11, 13, 15] */\n  dup3\n  add\n    /* \"contracts/modules/InfinityPool.sol\":102:13831  contract InfinityPool is Storage {... */\n  mstore\n    /* \"@openzeppelin/contracts/security/ReentrancyGuard.sol\":1821:1843  _status = _NOT_ENTERED */\n  0x00\n    /* \"contracts/modules/InfinityPool.sol\":102:13831  contract InfinityPool is Storage {... */\ntag_26:\n    /* \"contracts/modules/Storage.sol\":6876:6940  [75e18, 300e18, 1200e18, 4800e18, 19200e18, 76800e18, 307200e18] */\n  0x07\n    /* \"contracts/modules/InfinityPool.sol\":102:13831  contract InfinityPool is Storage {... */\n  dup2\n  lt\n  tag_27\n  jumpi\n  tag_29\n  tag_2\n  jump\t// in\ntag_29:\n    /* \"contracts/modules/Storage.sol\":7163:7164  4 */\n  0x04\n    /* \"contracts/modules/InfinityPool.sol\":102:13831  contract InfinityPool is Storage {... */\n  dup2\n  mstore\n  0x05\n    /* \"contracts/modules/Storage.sol\":2211:2726  [... */\n  0x20\n    /* \"contracts/modules/Storage.sol\":7162:7187  [4, 5, 6, 7, 8, 9, 10,11] */\n  dup3\n  add\n    /* \"contracts/modules/InfinityPool.sol\":102:13831  contract InfinityPool is Storage {... */\n  mstore\n    /* \"contracts/modules/Storage.sol\":7169:7170  6 */\n  0x06\n    /* \"contracts/modules/InfinityPool.sol\":102:13831  contract InfinityPool is Storage {... */\n  0x40\n    /* \"contracts/modules/Storage.sol\":7162:7187  [4, 5, 6, 7, 8, 9, 10,11] */\n  dup3\n  add\n    /* \"contracts/modules/InfinityPool.sol\":102:13831  contract InfinityPool is Storage {... */\n  mstore\n    /* \"contracts/modules/Storage.sol\":6876:6940  [75e18, 300e18, 1200e18, 4800e18, 19200e18, 76800e18, 307200e18] */\n  0x07\n    /* \"contracts/modules/Storage.sol\":2211:2726  [... */\n  0x60\n    /* \"contracts/modules/Storage.sol\":7162:7187  [4, 5, 6, 7, 8, 9, 10,11] */\n  dup3\n  add\n    /* \"contracts/modules/InfinityPool.sol\":102:13831  contract InfinityPool is Storage {... */\n  mstore\n    /* \"contracts/modules/Storage.sol\":6982:7052  [ 100e18, 200e18, 400e18, 800e18, 1600e18, 3200e18, 6400e18, 12800e18] */\n  0x08\n    /* \"contracts/modules/Storage.sol\":2211:2726  [... */\n  0x80\n    /* \"contracts/modules/Storage.sol\":7162:7187  [4, 5, 6, 7, 8, 9, 10,11] */\n  dup3\n  add\n    /* \"contracts/modules/InfinityPool.sol\":102:13831  contract InfinityPool is Storage {... */\n  mstore\n    /* \"contracts/modules/Storage.sol\":7102:7103  9 */\n  0x09\n    /* \"contracts/modules/Storage.sol\":2211:2726  [... */\n  0xa0\n    /* \"contracts/modules/Storage.sol\":7162:7187  [4, 5, 6, 7, 8, 9, 10,11] */\n  dup3\n  add\n    /* \"contracts/modules/InfinityPool.sol\":102:13831  contract InfinityPool is Storage {... */\n  mstore\n    /* \"contracts/modules/Storage.sol\":7181:7183  10 */\n  0x0a\n    /* \"contracts/modules/Storage.sol\":2211:2726  [... */\n  0xc0\n    /* \"contracts/modules/Storage.sol\":7162:7187  [4, 5, 6, 7, 8, 9, 10,11] */\n  dup3\n  add\n    /* \"contracts/modules/InfinityPool.sol\":102:13831  contract InfinityPool is Storage {... */\n  mstore\n    /* \"contracts/modules/Storage.sol\":7105:7107  11 */\n  0x0b\n    /* \"contracts/modules/Storage.sol\":2211:2726  [... */\n  0xe0\n    /* \"contracts/modules/Storage.sol\":7162:7187  [4, 5, 6, 7, 8, 9, 10,11] */\n  dup3\n  add\n    /* \"contracts/modules/InfinityPool.sol\":102:13831  contract InfinityPool is Storage {... */\n  mstore\n    /* \"@openzeppelin/contracts/security/ReentrancyGuard.sol\":1821:1843  _status = _NOT_ENTERED */\n  0x00\n    /* \"contracts/modules/InfinityPool.sol\":102:13831  contract InfinityPool is Storage {... */\ntag_30:\n    /* \"contracts/modules/Storage.sol\":6982:7052  [ 100e18, 200e18, 400e18, 800e18, 1600e18, 3200e18, 6400e18, 12800e18] */\n  0x08\n    /* \"contracts/modules/InfinityPool.sol\":102:13831  contract InfinityPool is Storage {... */\n  dup2\n  lt\n  tag_31\n  jumpi\n  tag_33\n  tag_2\n  jump\t// in\ntag_33:\n    /* \"@openzeppelin/contracts/security/ReentrancyGuard.sol\":1821:1843  _status = _NOT_ENTERED */\n  0x00\n    /* \"contracts/modules/InfinityPool.sol\":102:13831  contract InfinityPool is Storage {... */\n  dup2\n  mstore\n    /* \"@openzeppelin/contracts/security/ReentrancyGuard.sol\":1716:1717  1 */\n  0x01\n    /* \"contracts/modules/Storage.sol\":2211:2726  [... */\n  0x20\n    /* \"contracts/modules/Storage.sol\":7232:7255  [0, 1, 1, 1, 1, 1, 1,1] */\n  dup3\n  add\n    /* \"contracts/modules/InfinityPool.sol\":102:13831  contract InfinityPool is Storage {... */\n  mstore\n    /* \"@openzeppelin/contracts/security/ReentrancyGuard.sol\":1716:1717  1 */\n  0x01\n    /* \"contracts/modules/InfinityPool.sol\":102:13831  contract InfinityPool is Storage {... */\n  0x40\n    /* \"contracts/modules/Storage.sol\":7232:7255  [0, 1, 1, 1, 1, 1, 1,1] */\n  dup3\n  add\n    /* \"contracts/modules/InfinityPool.sol\":102:13831  contract InfinityPool is Storage {... */\n  mstore\n    /* \"@openzeppelin/contracts/security/ReentrancyGuard.sol\":1716:1717  1 */\n  0x01\n    /* \"contracts/modules/Storage.sol\":2211:2726  [... */\n  0x60\n    /* \"contracts/modules/Storage.sol\":7232:7255  [0, 1, 1, 1, 1, 1, 1,1] */\n  dup3\n  add\n    /* \"contracts/modules/InfinityPool.sol\":102:13831  contract InfinityPool is Storage {... */\n  mstore\n    /* \"@openzeppelin/contracts/security/ReentrancyGuard.sol\":1716:1717  1 */\n  0x01\n    /* \"contracts/modules/Storage.sol\":2211:2726  [... */\n  0x80\n    /* \"contracts/modules/Storage.sol\":7232:7255  [0, 1, 1, 1, 1, 1, 1,1] */\n  dup3\n  add\n    /* \"contracts/modules/InfinityPool.sol\":102:13831  contract InfinityPool is Storage {... */\n  mstore\n    /* \"@openzeppelin/contracts/security/ReentrancyGuard.sol\":1716:1717  1 */\n  0x01\n    /* \"contracts/modules/Storage.sol\":2211:2726  [... */\n  0xa0\n    /* \"contracts/modules/Storage.sol\":7232:7255  [0, 1, 1, 1, 1, 1, 1,1] */\n  dup3\n  add\n    /* \"contracts/modules/InfinityPool.sol\":102:13831  contract InfinityPool is Storage {... */\n  mstore\n    /* \"@openzeppelin/contracts/security/ReentrancyGuard.sol\":1716:1717  1 */\n  0x01\n    /* \"contracts/modules/Storage.sol\":2211:2726  [... */\n  0xc0\n    /* \"contracts/modules/Storage.sol\":7232:7255  [0, 1, 1, 1, 1, 1, 1,1] */\n  dup3\n  add\n    /* \"contracts/modules/InfinityPool.sol\":102:13831  contract InfinityPool is Storage {... */\n  mstore\n    /* \"@openzeppelin/contracts/security/ReentrancyGuard.sol\":1716:1717  1 */\n  0x01\n    /* \"contracts/modules/Storage.sol\":2211:2726  [... */\n  0xe0\n    /* \"contracts/modules/Storage.sol\":7232:7255  [0, 1, 1, 1, 1, 1, 1,1] */\n  dup3\n  add\n    /* \"contracts/modules/InfinityPool.sol\":102:13831  contract InfinityPool is Storage {... */\n  mstore\n    /* \"@openzeppelin/contracts/security/ReentrancyGuard.sol\":1821:1843  _status = _NOT_ENTERED */\n  0x00\n    /* \"contracts/modules/InfinityPool.sol\":102:13831  contract InfinityPool is Storage {... */\ntag_34:\n    /* \"contracts/modules/Storage.sol\":6982:7052  [ 100e18, 200e18, 400e18, 800e18, 1600e18, 3200e18, 6400e18, 12800e18] */\n  0x08\n    /* \"contracts/modules/InfinityPool.sol\":102:13831  contract InfinityPool is Storage {... */\n  dup2\n  lt\n  tag_35\n  jumpi\n    /* \"@openzeppelin/contracts/security/ReentrancyGuard.sol\":1821:1843  _status = _NOT_ENTERED */\n  0x00\n    /* \"contracts/modules/Storage.sol\":8785:8786  0 */\n  0x38\n    /* \"contracts/modules/InfinityPool.sol\":102:13831  contract InfinityPool is Storage {... */\n  sstore\n    /* \"@openzeppelin/contracts/security/ReentrancyGuard.sol\":1821:1843  _status = _NOT_ENTERED */\n  0x00\n    /* \"contracts/modules/Storage.sol\":8830:8831  0 */\n  0x39\n    /* \"contracts/modules/InfinityPool.sol\":102:13831  contract InfinityPool is Storage {... */\n  sstore\n    /* \"@openzeppelin/contracts/security/ReentrancyGuard.sol\":1821:1843  _status = _NOT_ENTERED */\n  0x00\n    /* \"contracts/modules/Storage.sol\":8872:8873  0 */\n  0x3a\n    /* \"contracts/modules/InfinityPool.sol\":102:13831  contract InfinityPool is Storage {... */\n  sstore\n    /* \"@openzeppelin/contracts/security/ReentrancyGuard.sol\":1716:1717  1 */\n  0x01\n    /* \"contracts/modules/Storage.sol\":10234:10235  1 */\n  0x3f\n    /* \"contracts/modules/InfinityPool.sol\":102:13831  contract InfinityPool is Storage {... */\n  sstore\n    /* \"@openzeppelin/contracts/security/ReentrancyGuard.sol\":1821:1843  _status = _NOT_ENTERED */\n  0x00\n    /* \"contracts/modules/InfinityPool.sol\":102:13831  contract InfinityPool is Storage {... */\n  0x40\n  sstore\n    /* \"@openzeppelin/contracts/security/ReentrancyGuard.sol\":1821:1843  _status = _NOT_ENTERED */\n  0x00\n    /* \"contracts/modules/Storage.sol\":10321:10322  0 */\n  0x41\n    /* \"contracts/modules/InfinityPool.sol\":102:13831  contract InfinityPool is Storage {... */\n  sstore\n    /* \"@openzeppelin/contracts/security/ReentrancyGuard.sol\":1716:1717  1 */\n  0x01\n    /* \"contracts/modules/Storage.sol\":11540:11541  1 */\n  0x46\n    /* \"contracts/modules/InfinityPool.sol\":102:13831  contract InfinityPool is Storage {... */\n  sstore\n    /* \"@openzeppelin/contracts/security/ReentrancyGuard.sol\":1821:1843  _status = _NOT_ENTERED */\n  0x00\n    /* \"contracts/modules/Storage.sol\":11582:11583  0 */\n  0x47\n    /* \"contracts/modules/InfinityPool.sol\":102:13831  contract InfinityPool is Storage {... */\n  sstore\n    /* \"@openzeppelin/contracts/security/ReentrancyGuard.sol\":1821:1843  _status = _NOT_ENTERED */\n  0x00\n    /* \"contracts/modules/Storage.sol\":11621:11622  0 */\n  0x48\n    /* \"contracts/modules/InfinityPool.sol\":102:13831  contract InfinityPool is Storage {... */\n  sstore\n  mload(0x40)\n  dataSize(sub_0)\n  swap1\n  dup2\n  dataOffset(sub_0)\n  dup3\n  codecopy\n  return\ntag_35:\n    /* \"@openzeppelin/contracts/security/ReentrancyGuard.sol\":1716:1717  1 */\n  0x01\n    /* \"contracts/modules/InfinityPool.sol\":102:13831  contract InfinityPool is Storage {... */\n  swap1\n    /* \"contracts/modules/Storage.sol\":2211:2726  [... */\n  0x20\n    /* \"contracts/modules/InfinityPool.sol\":102:13831  contract InfinityPool is Storage {... */\n  0xff\n  dup5\n  mload\n  and\n  swap4\n  add\n  swap3\n  dup2\n    /* \"contracts/modules/Storage.sol\":7232:7255  [0, 1, 1, 1, 1, 1, 1,1] */\n  0x26\n    /* \"contracts/modules/InfinityPool.sol\":102:13831  contract InfinityPool is Storage {... */\n  add\n  sstore\n  add\n  jump(tag_34)\ntag_31:\n    /* \"@openzeppelin/contracts/security/ReentrancyGuard.sol\":1716:1717  1 */\n  0x01\n    /* \"contracts/modules/InfinityPool.sol\":102:13831  contract InfinityPool is Storage {... */\n  swap1\n    /* \"contracts/modules/Storage.sol\":2211:2726  [... */\n  0x20\n    /* \"contracts/modules/InfinityPool.sol\":102:13831  contract InfinityPool is Storage {... */\n  0xff\n  dup5\n  mload\n  and\n  swap4\n  add\n  swap3\n  dup2\n    /* \"contracts/modules/Storage.sol\":7162:7187  [4, 5, 6, 7, 8, 9, 10,11] */\n  0x1e\n    /* \"contracts/modules/InfinityPool.sol\":102:13831  contract InfinityPool is Storage {... */\n  add\n  sstore\n  add\n  jump(tag_30)\ntag_27:\n    /* \"@openzeppelin/contracts/security/ReentrancyGuard.sol\":1716:1717  1 */\n  0x01\n    /* \"contracts/modules/InfinityPool.sol\":102:13831  contract InfinityPool is Storage {... */\n  swap1\n    /* \"contracts/modules/Storage.sol\":2211:2726  [... */\n  0x20\n    /* \"contracts/modules/InfinityPool.sol\":102:13831  contract InfinityPool is Storage {... */\n  0xff\n  dup5\n  mload\n  and\n  swap4\n  add\n  swap3\n  dup2\n    /* \"contracts/modules/Storage.sol\":7092:7116  [3, 5, 7, 9, 11, 13, 15] */\n  0x17\n    /* \"contracts/modules/InfinityPool.sol\":102:13831  contract InfinityPool is Storage {... */\n  add\n  sstore\n  add\n  jump(tag_26)\ntag_23:\n  dup2\n  mload\n  sub(shl(0x50, 0x01), 0x01)\n  and\n  dup2\n  dup5\n  add\n  sstore\n    /* \"contracts/modules/Storage.sol\":2211:2726  [... */\n  0x20\n    /* \"contracts/modules/InfinityPool.sol\":102:13831  contract InfinityPool is Storage {... */\n  swap1\n  swap2\n  add\n  swap1\n    /* \"@openzeppelin/contracts/security/ReentrancyGuard.sol\":1716:1717  1 */\n  0x01\n    /* \"contracts/modules/InfinityPool.sol\":102:13831  contract InfinityPool is Storage {... */\n  add\n  jump(tag_22)\ntag_20:\n    /* \"contracts/modules/Storage.sol\":6982:7052  [ 100e18, 200e18, 400e18, 800e18, 1600e18, 3200e18, 6400e18, 12800e18] */\n  0x16\n    /* \"@openzeppelin/contracts/security/ReentrancyGuard.sol\":1821:1843  _status = _NOT_ENTERED */\n  0x00\n    /* \"contracts/modules/InfinityPool.sol\":102:13831  contract InfinityPool is Storage {... */\n  mstore\n  tag_37\n  swap1\n  0xd833147d7dc355ba459fc788f669e58cfaf9dc25ddcd0702e87d69c7b5124289\n  add\n  0xd833147d7dc355ba459fc788f669e58cfaf9dc25ddcd0702e87d69c7b5124291\n  tag_3\n  jump\t// in\ntag_37:\n  dup2\n  jump(tag_21)\ntag_17:\n  dup2\n  mload\n  sub(shl(0x50, 0x01), 0x01)\n  and\n  dup2\n  dup5\n  add\n  sstore\n    /* \"contracts/modules/Storage.sol\":2211:2726  [... */\n  0x20\n    /* \"contracts/modules/InfinityPool.sol\":102:13831  contract InfinityPool is Storage {... */\n  swap1\n  swap2\n  add\n  swap1\n    /* \"@openzeppelin/contracts/security/ReentrancyGuard.sol\":1716:1717  1 */\n  0x01\n    /* \"contracts/modules/InfinityPool.sol\":102:13831  contract InfinityPool is Storage {... */\n  add\n  jump(tag_16)\ntag_14:\n    /* \"contracts/modules/Storage.sol\":6876:6940  [75e18, 300e18, 1200e18, 4800e18, 19200e18, 76800e18, 307200e18] */\n  0x15\n    /* \"@openzeppelin/contracts/security/ReentrancyGuard.sol\":1821:1843  _status = _NOT_ENTERED */\n  0x00\n    /* \"contracts/modules/InfinityPool.sol\":102:13831  contract InfinityPool is Storage {... */\n  mstore\n  tag_38\n  swap1\n  0x55f448fdea98c4d29eb340757ef0a66cd03dbb9538908a6a81d96026b71ec475\n  add\n  0x55f448fdea98c4d29eb340757ef0a66cd03dbb9538908a6a81d96026b71ec47c\n  tag_3\n  jump\t// in\ntag_38:\n  dup2\n  jump(tag_15)\ntag_11:\n  dup2\n  mload\n  sub(shl(0x50, 0x01), 0x01)\n  and\n  dup2\n  dup5\n  add\n  sstore\n    /* \"contracts/modules/Storage.sol\":2211:2726  [... */\n  0x20\n    /* \"contracts/modules/InfinityPool.sol\":102:13831  contract InfinityPool is Storage {... */\n  swap1\n  swap2\n  add\n  swap1\n    /* \"@openzeppelin/contracts/security/ReentrancyGuard.sol\":1716:1717  1 */\n  0x01\n    /* \"contracts/modules/InfinityPool.sol\":102:13831  contract InfinityPool is Storage {... */\n  add\n  jump(tag_10)\ntag_8:\n    /* \"contracts/modules/Storage.sol\":2211:2726  [... */\n  0x0d\n    /* \"@openzeppelin/contracts/security/ReentrancyGuard.sol\":1821:1843  _status = _NOT_ENTERED */\n  0x00\n    /* \"contracts/modules/InfinityPool.sol\":102:13831  contract InfinityPool is Storage {... */\n  mstore\n  tag_39\n  swap1\n  0xd7b6990105719101dabeb77144f2a3385c8033acd3af97e9423a695e81ad1eb5\n  add\n  0xd7b6990105719101dabeb77144f2a3385c8033acd3af97e9423a695e81ad1ec4\n  tag_3\n  jump\t// in\ntag_39:\n  0x00\n  jump(tag_9)\ntag_6:\n  shl(0xe0, 0x4e487b71)\n    /* \"@openzeppelin/contracts/security/ReentrancyGuard.sol\":1821:1843  _status = _NOT_ENTERED */\n  0x00\n    /* \"contracts/modules/InfinityPool.sol\":102:13831  contract InfinityPool is Storage {... */\n  mstore\n  mstore(0x04, 0x41)\n  0x24\n    /* \"@openzeppelin/contracts/security/ReentrancyGuard.sol\":1821:1843  _status = _NOT_ENTERED */\n  0x00\n    /* \"contracts/modules/InfinityPool.sol\":102:13831  contract InfinityPool is Storage {... */\n  revert\ntag_4:\n  0x00\n  dup1\n  revert\ntag_1:\n  mload(0x40)\n  swap1\n  0xe0\n  dup3\n  add\n  sub(shl(0x40, 0x01), 0x01)\n  dup2\n  gt\n  dup4\n  dup3\n  lt\n  or\n  tag_6\n  jumpi\n  0x40\n  mstore\n  jump\t// out\ntag_2:\n  mload(0x40)\n  swap1\n  0x0100\n  dup3\n  add\n  sub(shl(0x40, 0x01), 0x01)\n  dup2\n  gt\n  dup4\n  dup3\n  lt\n  or\n  tag_6\n  jumpi\n  0x40\n  mstore\n  jump\t// out\ntag_3:\n  dup2\n  dup2\n  lt\n  tag_45\n  jumpi\n  pop\n  pop\n  jump\t// out\ntag_45:\n  0x00\n  dup2\n  sstore\n  0x01\n  add\n  jump(tag_3)\nstop\n\nsub_0: assembly {\n        /* \"contracts/modules/InfinityPool.sol\":102:13831  contract InfinityPool is Storage {... */\n      0x80\n      dup1\n      0x40\n      mstore\n      jumpi(tag_29, iszero(lt(calldatasize, 0x04)))\n      0x00\n      dup1\n      revert\n    tag_29:\n      shr(0xe0, calldataload(0x00))\n      swap1\n      dup2\n      0x01c234a8\n      eq\n      tag_31\n      jumpi\n      pop\n      dup1\n      0x0676d0d6\n      eq\n      tag_33\n      jumpi\n      dup1\n      0x2132d204\n      eq\n      tag_35\n      jumpi\n      dup1\n      0x2350268f\n      eq\n      tag_37\n      jumpi\n      dup1\n      0x23fd338e\n      eq\n      tag_67\n      jumpi\n      dup1\n      0x2a891534\n      eq\n      tag_41\n      jumpi\n      dup1\n      0x2ae0ee0d\n      eq\n      tag_55\n      jumpi\n      dup1\n      0x2f48ab7d\n      eq\n      tag_45\n      jumpi\n      dup1\n      0x3080b5bc\n      eq\n      tag_47\n      jumpi\n      dup1\n      0x31bb6a30\n      eq\n      tag_49\n      jumpi\n      dup1\n      0x32bc298c\n      eq\n      tag_51\n      jumpi\n      dup1\n      0x32fcd966\n      eq\n      tag_53\n      jumpi\n      dup1\n      0x375b43b4\n      eq\n      tag_55\n      jumpi\n      dup1\n      0x39ab3603\n      eq\n      tag_57\n      jumpi\n      dup1\n      0x3a5084b3\n      eq\n      tag_59\n      jumpi\n      dup1\n      0x4060160a\n      eq\n      tag_61\n      jumpi\n      dup1\n      0x45cb537c\n      eq\n      tag_63\n      jumpi\n      dup1\n      0x4b8cbf9b\n      eq\n      tag_65\n      jumpi\n      dup1\n      0x58c7d352\n      eq\n      tag_67\n      jumpi\n      dup1\n      0x5b62d1d5\n      eq\n      tag_69\n      jumpi\n      dup1\n      0x67d52d4d\n      eq\n      tag_71\n      jumpi\n      dup1\n      0x705fee2d\n      eq\n      tag_73\n      jumpi\n      dup1\n      0x76f5f700\n      eq\n      tag_75\n      jumpi\n      dup1\n      0x7848f0a3\n      eq\n      tag_77\n      jumpi\n      dup1\n      0x78f6ad6d\n      eq\n      tag_79\n      jumpi\n      dup1\n      0x7cdc65f2\n      eq\n      tag_81\n      jumpi\n      dup1\n      0x89043ece\n      eq\n      tag_83\n      jumpi\n      dup1\n      0x8e222e24\n      eq\n      tag_85\n      jumpi\n      dup1\n      0x956a3228\n      eq\n      tag_87\n      jumpi\n      dup1\n      0x9b40ab97\n      eq\n      tag_89\n      jumpi\n      dup1\n      0xa59d17d1\n      eq\n      tag_91\n      jumpi\n      dup1\n      0xa5e52b99\n      eq\n      tag_93\n      jumpi\n      dup1\n      0xae4708dc\n      eq\n      tag_95\n      jumpi\n      dup1\n      0xbc1fa7c0\n      eq\n      tag_97\n      jumpi\n      dup1\n      0xbff1f9e1\n      eq\n      tag_99\n      jumpi\n      dup1\n      0xc216212a\n      eq\n      tag_101\n      jumpi\n      dup1\n      0xc8df2908\n      eq\n      tag_103\n      jumpi\n      dup1\n      0xc9ed0708\n      eq\n      tag_105\n      jumpi\n      dup1\n      0xca8e9121\n      eq\n      tag_107\n      jumpi\n      dup1\n      0xd0a2fd79\n      eq\n      tag_109\n      jumpi\n      dup1\n      0xd2f0490d\n      eq\n      tag_111\n      jumpi\n      dup1\n      0xe898fc38\n      eq\n      tag_113\n      jumpi\n      dup1\n      0xe9e34a16\n      eq\n      tag_115\n      jumpi\n      dup1\n      0xebe0ff15\n      eq\n      tag_117\n      jumpi\n      dup1\n      0xec597e6f\n      eq\n      tag_119\n      jumpi\n      dup1\n      0xf5d74d93\n      eq\n      tag_121\n      jumpi\n      0xfddc806f\n      eq\n      tag_123\n      jumpi\n      0x00\n      dup1\n      revert\n    tag_123:\n      jumpi(tag_127, callvalue)\n      jumpi(tag_127, slt(add(not(0x03), calldatasize), 0x00))\n      0x20\n        /* \"contracts/modules/Storage.sol\":8793:8831  uint public currentWeeklyStartTime = 0 */\n      0x39\n        /* \"contracts/modules/InfinityPool.sol\":102:13831  contract InfinityPool is Storage {... */\n      sload\n      mload(0x40)\n      swap1\n      dup2\n      mstore\n      return\n    tag_127:\n      0x00\n      dup1\n      revert\n    tag_121:\n      jumpi(tag_127, callvalue)\n      jumpi(tag_127, slt(add(not(0x03), calldatasize), 0x00))\n      sload(0x04)\n      mload(0x40)\n      sub(shl(0xa0, 0x01), 0x01)\n      swap1\n      swap2\n      and\n      dup2\n      mstore\n      0x20\n      swap1\n      return\n    tag_119:\n      jumpi(tag_127, callvalue)\n      jumpi(tag_127, slt(add(not(0x03), calldatasize), 0x00))\n      0x20\n        /* \"contracts/modules/Storage.sol\":534:558  uint public defaultRefId */\n      0x05\n        /* \"contracts/modules/InfinityPool.sol\":102:13831  contract InfinityPool is Storage {... */\n      sload\n      mload(0x40)\n      swap1\n      dup2\n      mstore\n      return\n    tag_117:\n      jumpi(tag_127, callvalue)\n      jumpi(tag_127, slt(add(not(0x03), calldatasize), 0x00))\n      0x20\n      mload(0x40)\n        /* \"contracts/modules/Storage.sol\":8733:8740  1000e18 */\n      0x3635c9adc5dea00000\n        /* \"contracts/modules/InfinityPool.sol\":102:13831  contract InfinityPool is Storage {... */\n      dup2\n      mstore\n      return\n    tag_115:\n      jumpi(tag_127, callvalue)\n      jumpi(tag_127, slt(add(not(0x03), calldatasize), 0x00))\n        /* \"contracts/modules/Storage.sol\":460:490  address public systemMaintance */\n      0x03\n        /* \"contracts/modules/InfinityPool.sol\":102:13831  contract InfinityPool is Storage {... */\n      sload\n      mload(0x40)\n      sub(shl(0xa0, 0x01), 0x01)\n      swap1\n      swap2\n      and\n      dup2\n      mstore\n      0x20\n      swap1\n      return\n    tag_113:\n      jumpi(tag_127, callvalue)\n      jumpi(tag_127, slt(add(not(0x03), calldatasize), 0x00))\n      0x20\n      sload(0x40)\n      mload(0x40)\n      swap1\n      dup2\n      mstore\n      return\n    tag_111:\n      jumpi(tag_127, callvalue)\n      jumpi(tag_127, slt(add(not(0x03), calldatasize), 0x00))\n      0x20\n      mload(0x40)\n        /* \"contracts/modules/Storage.sol\":1187:1188  5 */\n      0x05\n        /* \"contracts/modules/InfinityPool.sol\":102:13831  contract InfinityPool is Storage {... */\n      dup2\n      mstore\n      return\n    tag_109:\n      jumpi(tag_127, callvalue)\n      jumpi(tag_127, slt(add(not(0x03), calldatasize), 0x20))\n      calldataload(0x04)\n      0x08\n        /* \"contracts/modules/Storage.sol\":7123:7187  uint[8] public minLevelForGlbBooster = [4, 5, 6, 7, 8, 9, 10,11] */\n      dup2\n      lt\n      iszero\n      tag_127\n      jumpi\n        /* \"contracts/modules/InfinityPool.sol\":102:13831  contract InfinityPool is Storage {... */\n      0x20\n      swap1\n        /* \"contracts/modules/Storage.sol\":7123:7187  uint[8] public minLevelForGlbBooster = [4, 5, 6, 7, 8, 9, 10,11] */\n      0x1e\n        /* \"contracts/modules/InfinityPool.sol\":102:13831  contract InfinityPool is Storage {... */\n      add\n      sload\n      mload(0x40)\n      swap1\n      dup2\n      mstore\n      return\n    tag_107:\n      jumpi(tag_127, callvalue)\n      jumpi(tag_127, slt(add(not(0x03), calldatasize), 0x00))\n      0x20\n        /* \"contracts/modules/Storage.sol\":8752:8786  uint public currentWeeklyRound = 0 */\n      0x38\n        /* \"contracts/modules/InfinityPool.sol\":102:13831  contract InfinityPool is Storage {... */\n      sload\n      mload(0x40)\n      swap1\n      dup2\n      mstore\n      return\n    tag_105:\n      jumpi(tag_127, callvalue)\n      jumpi(tag_127, slt(add(not(0x03), calldatasize), 0x00))\n      0x20\n        /* \"contracts/modules/Storage.sol\":10200:10235  uint public currentMonthlyRound = 1 */\n      0x3f\n        /* \"contracts/modules/InfinityPool.sol\":102:13831  contract InfinityPool is Storage {... */\n      sload\n      mload(0x40)\n      swap1\n      dup2\n      mstore\n      return\n    tag_103:\n      jumpi(tag_127, callvalue)\n      jumpi(tag_127, slt(add(not(0x03), calldatasize), 0x00))\n      0x20\n      mload(0x40)\n        /* \"contracts/modules/Storage.sol\":10179:10187  10000e18 */\n      0x021e19e0c9bab2400000\n        /* \"contracts/modules/InfinityPool.sol\":102:13831  contract InfinityPool is Storage {... */\n      dup2\n      mstore\n      return\n    tag_101:\n      jumpi(tag_127, callvalue)\n      jumpi(tag_127, slt(add(not(0x03), calldatasize), 0x20))\n      calldataload(0x04)\n        /* \"contracts/modules/Storage.sol\":2186:2726  uint[] public packages = [... */\n      0x0d\n        /* \"contracts/modules/InfinityPool.sol\":102:13831  contract InfinityPool is Storage {... */\n      sload\n        /* \"contracts/modules/Storage.sol\":2186:2726  uint[] public packages = [... */\n      dup2\n      lt\n      iszero\n      tag_127\n      jumpi\n      0x0d\n        /* \"contracts/modules/InfinityPool.sol\":102:13831  contract InfinityPool is Storage {... */\n      sload\n      dup2\n      lt\n      iszero\n      tag_177\n      jumpi\n        /* \"contracts/modules/Storage.sol\":2186:2726  uint[] public packages = [... */\n      0x0d\n        /* \"contracts/modules/InfinityPool.sol\":102:13831  contract InfinityPool is Storage {... */\n      0x00\n      mstore\n      0xd7b6990105719101dabeb77144f2a3385c8033acd3af97e9423a695e81ad1eb5\n      add\n      sload\n      mload(0x40)\n      swap1\n      dup2\n      mstore\n      0x20\n      swap1\n      return\n    tag_177:\n      mstore(0x00, shl(0xe0, 0x4e487b71))\n      mstore(0x04, 0x32)\n      revert(0x00, 0x24)\n    tag_99:\n      jumpi(tag_127, callvalue)\n      jumpi(tag_127, slt(add(not(0x03), calldatasize), 0x00))\n      0x20\n        /* \"contracts/modules/Storage.sol\":565:587  uint public totalUsers */\n      0x06\n        /* \"contracts/modules/InfinityPool.sol\":102:13831  contract InfinityPool is Storage {... */\n      sload\n      mload(0x40)\n      swap1\n      dup2\n      mstore\n      return\n    tag_97:\n      jumpi(tag_127, callvalue)\n      jumpi(tag_127, slt(add(not(0x03), calldatasize), 0x20))\n      calldataload(0x04)\n      dup1\n      0x00\n      mstore\n        /* \"contracts/modules/InfinityPool.sol\":10047:10052  users */\n      0x0f\n        /* \"contracts/modules/InfinityPool.sol\":102:13831  contract InfinityPool is Storage {... */\n      0x20\n      mstore\n      keccak256(0x00, 0x40)\n        /* \"contracts/modules/InfinityPool.sol\":10072:10127  require(user.account == msg.sender, \"Not your account\") */\n      tag_187\n        /* \"contracts/modules/InfinityPool.sol\":102:13831  contract InfinityPool is Storage {... */\n      0x01\n      dup1\n      0xa0\n      shl\n      sub\n      dup3\n      sload\n      and\n        /* \"contracts/modules/InfinityPool.sol\":10096:10106  msg.sender */\n      caller\n        /* \"contracts/modules/InfinityPool.sol\":10080:10106  user.account == msg.sender */\n      eq\n        /* \"contracts/modules/InfinityPool.sol\":10072:10127  require(user.account == msg.sender, \"Not your account\") */\n      tag_7\n      jump\t// in\n    tag_187:\n        /* \"contracts/modules/InfinityPool.sol\":10047:10052  users */\n      0x0f\n        /* \"contracts/modules/InfinityPool.sol\":10146:10163  user.boosterlevel */\n      dup2\n      add\n        /* \"contracts/modules/InfinityPool.sol\":102:13831  contract InfinityPool is Storage {... */\n      swap1\n      dup2\n      sload\n        /* \"contracts/modules/InfinityPool.sol\":10146:10167  user.boosterlevel < 8 */\n      swap2\n        /* \"contracts/modules/InfinityPool.sol\":10166:10167  8 */\n      0x08\n        /* \"contracts/modules/InfinityPool.sol\":10146:10167  user.boosterlevel < 8 */\n      dup4\n      lt\n        /* \"contracts/modules/InfinityPool.sol\":10138:10184  require(user.boosterlevel < 8, \"At max level\") */\n      tag_188\n      dup2\n      tag_8\n      jump\t// in\n    tag_188:\n        /* \"contracts/modules/InfinityPool.sol\":102:13831  contract InfinityPool is Storage {... */\n      iszero\n      tag_177\n      jumpi\n      dup3\n        /* \"contracts/modules/InfinityPool.sol\":10355:10376  minLevelForGlbBooster */\n      0x1e\n        /* \"contracts/modules/InfinityPool.sol\":102:13831  contract InfinityPool is Storage {... */\n      add\n      sload\n      dup4\n        /* \"contracts/modules/InfinityPool.sol\":10454:10474  minPoolForGlbBooster */\n      0x26\n        /* \"contracts/modules/InfinityPool.sol\":102:13831  contract InfinityPool is Storage {... */\n      add\n      sload\n        /* \"contracts/modules/InfinityPool.sol\":10598:10608  user.level */\n      swap1\n      0x06\n      dup5\n      add\n        /* \"contracts/modules/InfinityPool.sol\":102:13831  contract InfinityPool is Storage {... */\n      sload\n        /* \"contracts/modules/InfinityPool.sol\":10598:10625  user.level >= requiredLevel */\n      lt\n      iszero\n        /* \"contracts/modules/InfinityPool.sol\":10598:10659  user.level >= requiredLevel && user.poollevel >= requiredPool */\n      swap1\n      dup2\n      tag_191\n      jumpi\n        /* \"contracts/modules/InfinityPool.sol\":102:13831  contract InfinityPool is Storage {... */\n    tag_192:\n      pop\n      iszero\n      tag_193\n      jumpi\n        /* \"contracts/modules/InfinityPool.sol\":10765:10777  nextPool > 0 */\n      dup3\n        /* \"contracts/modules/InfinityPool.sol\":10761:10871  if (nextPool > 0) {... */\n      tag_195\n      jumpi\n        /* \"contracts/modules/InfinityPool.sol\":102:13831  contract InfinityPool is Storage {... */\n    tag_196:\n      dup4\n      0x00\n      mstore\n        /* \"contracts/modules/InfinityPool.sol\":10890:10904  userHasbooster */\n      0x37\n        /* \"contracts/modules/InfinityPool.sol\":102:13831  contract InfinityPool is Storage {... */\n      0x20\n      mstore\n      keccak256(0x00, 0x40)\n      dup4\n      0x00\n      mstore\n      0x20\n      mstore\n        /* \"contracts/modules/InfinityPool.sol\":10881:10950  require(!userHasbooster[_userId][nextPool], \"Pool already purchased\") */\n      tag_197\n        /* \"contracts/modules/InfinityPool.sol\":102:13831  contract InfinityPool is Storage {... */\n      and(sload(keccak256(0x00, 0x40)), 0xff)\n        /* \"contracts/modules/InfinityPool.sol\":10889:10923  !userHasbooster[_userId][nextPool] */\n      iszero\n        /* \"contracts/modules/InfinityPool.sol\":10881:10950  require(!userHasbooster[_userId][nextPool], \"Pool already purchased\") */\n      tag_9\n      jump\t// in\n    tag_197:\n        /* \"contracts/modules/InfinityPool.sol\":10983:11011  glbBoosterPackages[nextPool] */\n      tag_198\n      dup4\n      tag_1\n      jump\t// in\n    tag_198:\n        /* \"contracts/modules/InfinityPool.sol\":102:13831  contract InfinityPool is Storage {... */\n      swap1\n      sload\n      sload(0x01)\n      mload(0x40)\n      shl(0xe0, 0x23b872dd)\n        /* \"contracts/modules/InfinityPool.sol\":11079:11137  usdt.transferFrom(msg.sender, address(this), packagePrice) */\n      dup2\n      mstore\n        /* \"contracts/modules/InfinityPool.sol\":10096:10106  msg.sender */\n      caller\n        /* \"contracts/modules/InfinityPool.sol\":102:13831  contract InfinityPool is Storage {... */\n      0x04\n        /* \"contracts/modules/InfinityPool.sol\":11079:11137  usdt.transferFrom(msg.sender, address(this), packagePrice) */\n      dup3\n      add\n        /* \"contracts/modules/InfinityPool.sol\":102:13831  contract InfinityPool is Storage {... */\n      mstore\n        /* \"contracts/modules/InfinityPool.sol\":11117:11121  this */\n      address\n        /* \"contracts/modules/InfinityPool.sol\":102:13831  contract InfinityPool is Storage {... */\n      0x24\n      dup3\n      add\n      mstore\n      0x03\n      swap4\n      swap1\n      swap4\n      shl\n      swap2\n      swap1\n      swap2\n      shr\n      0x44\n      dup4\n      add\n      dup2\n      swap1\n      mstore\n      swap4\n      swap2\n      swap1\n      0x20\n      swap1\n      dup3\n      swap1\n      0x64\n      swap1\n      dup3\n      swap1\n      0x00\n      swap1\n      sub(shl(0xa0, 0x01), 0x01)\n      and\n        /* \"contracts/modules/InfinityPool.sol\":11079:11137  usdt.transferFrom(msg.sender, address(this), packagePrice) */\n      gas\n      call\n      dup1\n      iszero\n      tag_200\n      jumpi\n      tag_202\n      jumpi\n        /* \"contracts/modules/InfinityPool.sol\":102:13831  contract InfinityPool is Storage {... */\n    tag_203:\n      pop\n      dup2\n      sload\n      0x01\n      dup2\n      add\n      dup1\n      swap2\n      gt\n      tag_208\n      jumpi\n        /* \"contracts/modules/InfinityPool.sol\":11242:11261  user.boosterDeposit */\n      0x10\n        /* \"contracts/modules/InfinityPool.sol\":102:13831  contract InfinityPool is Storage {... */\n      swap3\n      sstore\n      dup5\n      0x00\n      mstore\n        /* \"contracts/modules/InfinityPool.sol\":10890:10904  userHasbooster */\n      0x37\n        /* \"contracts/modules/InfinityPool.sol\":102:13831  contract InfinityPool is Storage {... */\n      0x20\n      mstore\n      keccak256(0x00, 0x40)\n      dup5\n      0x00\n      mstore\n      0x20\n      mstore\n      keccak256(0x00, 0x40)\n      0x01\n      not(0xff)\n      dup3\n      sload\n      and\n      or\n      swap1\n      sstore\n        /* \"contracts/modules/InfinityPool.sol\":11242:11261  user.boosterDeposit */\n      add\n        /* \"contracts/modules/InfinityPool.sol\":11242:11277  user.boosterDeposit += packagePrice */\n      tag_206\n        /* \"contracts/modules/InfinityPool.sol\":102:13831  contract InfinityPool is Storage {... */\n      dup3\n      dup3\n      sload\n        /* \"contracts/modules/InfinityPool.sol\":11242:11277  user.boosterDeposit += packagePrice */\n      tag_15\n      jump\t// in\n    tag_206:\n        /* \"contracts/modules/InfinityPool.sol\":102:13831  contract InfinityPool is Storage {... */\n      swap1\n      sstore\n        /* \"contracts/modules/InfinityPool.sol\":11323:11335  packagePrice */\n      tag_207\n      dup2\n      dup5\n      dup5\n      tag_24\n      jump\t// in\n    tag_207:\n        /* \"contracts/modules/InfinityPool.sol\":102:13831  contract InfinityPool is Storage {... */\n      0x01\n      dup3\n      add\n      dup1\n      swap3\n      gt\n      tag_208\n      jumpi\n      mload(0x40)\n      swap2\n      dup3\n      mstore\n      0x20\n      dup3\n      add\n      mstore\n      0x80\n      0x40\n      dup3\n      add\n      mstore\n      0x07\n      0x80\n      dup3\n      add\n      mstore\n      shl(0xc9, 0x2137b7b9ba32b9)\n      0xa0\n      dup3\n      add\n      mstore\n        /* \"contracts/modules/InfinityPool.sol\":11651:11666  block.timestamp */\n      timestamp\n        /* \"contracts/modules/InfinityPool.sol\":102:13831  contract InfinityPool is Storage {... */\n      0x60\n      dup3\n      add\n      mstore\n      mload(0x00)\n      codecopy(0x00, data_404df00f6e66bff52b1bbe26c09dc1dec3db2c9f5cc1962e398ceea85fe88b34, 0x20)\n      mload(0x00)\n      swap1\n      0x00\n      mstore\n        /* \"contracts/modules/InfinityPool.sol\":11583:11667  Upgrade(msg.sender, _userId, nextPool + 1, packagePrice, \"Booster\", block.timestamp) */\n      0xc0\n        /* \"contracts/modules/InfinityPool.sol\":10096:10106  msg.sender */\n      caller\n        /* \"contracts/modules/InfinityPool.sol\":11583:11667  Upgrade(msg.sender, _userId, nextPool + 1, packagePrice, \"Booster\", block.timestamp) */\n      swap3\n      log3\n        /* \"contracts/modules/InfinityPool.sol\":102:13831  contract InfinityPool is Storage {... */\n      stop\n    tag_208:\n      mstore(0x00, shl(0xe0, 0x4e487b71))\n      mstore(0x04, 0x11)\n      revert(0x00, 0x24)\n        /* \"contracts/modules/InfinityPool.sol\":11079:11137  usdt.transferFrom(msg.sender, address(this), packagePrice) */\n    tag_202:\n      tag_210\n      swap1\n        /* \"contracts/modules/InfinityPool.sol\":102:13831  contract InfinityPool is Storage {... */\n      0x20\n        /* \"contracts/modules/InfinityPool.sol\":11079:11137  usdt.transferFrom(msg.sender, address(this), packagePrice) */\n      returndatasize\n        /* \"contracts/modules/InfinityPool.sol\":102:13831  contract InfinityPool is Storage {... */\n      0x20\n        /* \"contracts/modules/InfinityPool.sol\":11079:11137  usdt.transferFrom(msg.sender, address(this), packagePrice) */\n      gt\n      tag_211\n      jumpi\n    tag_212:\n      tag_213\n      dup2\n      dup4\n      tag_12\n      jump\t// in\n    tag_213:\n      dup2\n      add\n      swap1\n      tag_13\n      jump\t// in\n    tag_210:\n      jump(tag_203)\n    tag_211:\n      pop\n      returndatasize\n      jump(tag_212)\n    tag_200:\n        /* \"contracts/modules/InfinityPool.sol\":102:13831  contract InfinityPool is Storage {... */\n      mload(0x40)\n      returndatasize\n      0x00\n      dup3\n      returndatacopy\n      returndatasize\n      swap1\n      revert\n        /* \"contracts/modules/InfinityPool.sol\":10761:10871  if (nextPool > 0) {... */\n    tag_195:\n      jump(tag_196)\n        /* \"contracts/modules/InfinityPool.sol\":102:13831  contract InfinityPool is Storage {... */\n    tag_193:\n      mload(0x40)\n      shl(0xe5, 0x461bcd)\n      dup2\n      mstore\n      0x20\n      0x04\n      dup3\n      add\n      mstore\n      0x15\n      0x24\n      dup3\n      add\n      mstore\n      shl(0x5a, 0x155c19dc9859194814db1bdd08185b9908141bdbdb)\n      0x44\n      dup3\n      add\n      mstore\n      0x64\n      swap1\n      revert\n        /* \"contracts/modules/InfinityPool.sol\":10598:10659  user.level >= requiredLevel && user.poollevel >= requiredPool */\n    tag_191:\n        /* \"contracts/modules/InfinityPool.sol\":10629:10643  user.poollevel */\n      swap1\n      pop\n      0x0c\n      dup4\n      add\n        /* \"contracts/modules/InfinityPool.sol\":102:13831  contract InfinityPool is Storage {... */\n      sload\n        /* \"contracts/modules/InfinityPool.sol\":10629:10659  user.poollevel >= requiredPool */\n      lt\n      iszero\n        /* \"contracts/modules/InfinityPool.sol\":10598:10659  user.level >= requiredLevel && user.poollevel >= requiredPool */\n      dup6\n      jump(tag_192)\n        /* \"contracts/modules/InfinityPool.sol\":102:13831  contract InfinityPool is Storage {... */\n    tag_95:\n      jumpi(tag_127, callvalue)\n      jumpi(tag_127, slt(add(not(0x03), calldatasize), 0x20))\n      calldataload(0x04)\n        /* \"contracts/modules/Storage.sol\":6847:6940  uint[] public poolPackages = [75e18, 300e18, 1200e18, 4800e18, 19200e18, 76800e18, 307200e18] */\n      0x15\n        /* \"contracts/modules/InfinityPool.sol\":102:13831  contract InfinityPool is Storage {... */\n      sload\n        /* \"contracts/modules/Storage.sol\":6847:6940  uint[] public poolPackages = [75e18, 300e18, 1200e18, 4800e18, 19200e18, 76800e18, 307200e18] */\n      dup2\n      lt\n      iszero\n      tag_127\n      jumpi\n      tag_220\n        /* \"contracts/modules/InfinityPool.sol\":102:13831  contract InfinityPool is Storage {... */\n      0x20\n        /* \"contracts/modules/Storage.sol\":6847:6940  uint[] public poolPackages = [75e18, 300e18, 1200e18, 4800e18, 19200e18, 76800e18, 307200e18] */\n      swap2\n      tag_2\n      jump\t// in\n    tag_220:\n        /* \"contracts/modules/InfinityPool.sol\":102:13831  contract InfinityPool is Storage {... */\n      swap1\n      sload\n      swap1\n      0x03\n      shl\n      shr\n      mload(0x40)\n      swap1\n      dup2\n      mstore\n      return\n    tag_93:\n      jumpi(tag_127, callvalue)\n      jumpi(tag_127, slt(add(not(0x03), calldatasize), 0x00))\n      0x20\n      mload(0x40)\n        /* \"contracts/modules/Storage.sol\":842:850  100 days */\n      0x83d600\n        /* \"contracts/modules/InfinityPool.sol\":102:13831  contract InfinityPool is Storage {... */\n      dup2\n      mstore\n      return\n    tag_91:\n      jumpi(tag_127, callvalue)\n      jumpi(tag_127, slt(add(not(0x03), calldatasize), 0x00))\n      0x20\n        /* \"contracts/modules/Storage.sol\":10288:10322  uint public monthlyTotalReward = 0 */\n      0x41\n        /* \"contracts/modules/InfinityPool.sol\":102:13831  contract InfinityPool is Storage {... */\n      sload\n      mload(0x40)\n      swap1\n      dup2\n      mstore\n      return\n    tag_89:\n      jumpi(tag_127, callvalue)\n      jumpi(tag_127, slt(add(not(0x03), calldatasize), 0x00))\n      0x20\n        /* \"contracts/modules/Storage.sol\":11548:11583  uint public topRoyaltyStartTime = 0 */\n      0x47\n        /* \"contracts/modules/InfinityPool.sol\":102:13831  contract InfinityPool is Storage {... */\n      sload\n      mload(0x40)\n      swap1\n      dup2\n      mstore\n      return\n    tag_87:\n      jumpi(tag_127, callvalue)\n      jumpi(tag_127, slt(add(not(0x03), calldatasize), 0x20))\n      calldataload(0x04)\n      0x08\n        /* \"contracts/modules/Storage.sol\":7194:7255  uint[8] public minPoolForGlbBooster = [0, 1, 1, 1, 1, 1, 1,1] */\n      dup2\n      lt\n      iszero\n      tag_127\n      jumpi\n        /* \"contracts/modules/InfinityPool.sol\":102:13831  contract InfinityPool is Storage {... */\n      0x20\n      swap1\n        /* \"contracts/modules/Storage.sol\":7194:7255  uint[8] public minPoolForGlbBooster = [0, 1, 1, 1, 1, 1, 1,1] */\n      0x26\n        /* \"contracts/modules/InfinityPool.sol\":102:13831  contract InfinityPool is Storage {... */\n      add\n      sload\n      mload(0x40)\n      swap1\n      dup2\n      mstore\n      return\n    tag_85:\n      jumpi(tag_127, callvalue)\n      jumpi(tag_127, slt(add(not(0x03), calldatasize), 0x40))\n      calldataload(0x04)\n      0xffffffff\n      dup2\n      and\n      dup1\n      swap2\n      sub\n      tag_127\n      jumpi\n      calldataload(0x24)\n      dup2\n      0x00\n      mstore\n        /* \"contracts/modules/InfinityPool.sol\":2252:2257  users */\n      0x0f\n        /* \"contracts/modules/InfinityPool.sol\":102:13831  contract InfinityPool is Storage {... */\n      0x20\n      mstore\n      keccak256(0x00, 0x40)\n        /* \"contracts/modules/InfinityPool.sol\":2277:2332  require(user.account == msg.sender, \"Not your account\") */\n      tag_245\n        /* \"contracts/modules/InfinityPool.sol\":102:13831  contract InfinityPool is Storage {... */\n      0x01\n      dup1\n      0xa0\n      shl\n      sub\n      dup3\n      sload\n      and\n        /* \"contracts/modules/InfinityPool.sol\":2301:2311  msg.sender */\n      caller\n        /* \"contracts/modules/InfinityPool.sol\":2285:2311  user.account == msg.sender */\n      eq\n        /* \"contracts/modules/InfinityPool.sol\":2277:2332  require(user.account == msg.sender, \"Not your account\") */\n      tag_7\n      jump\t// in\n    tag_245:\n        /* \"contracts/modules/InfinityPool.sol\":2351:2365  user.poollevel */\n      0x0c\n      dup2\n      add\n        /* \"contracts/modules/InfinityPool.sol\":102:13831  contract InfinityPool is Storage {... */\n      swap1\n        /* \"contracts/modules/InfinityPool.sol\":2343:2385  require(user.poollevel < 7, \"At max pool\") */\n      tag_246\n        /* \"contracts/modules/InfinityPool.sol\":2368:2369  7 */\n      0x07\n        /* \"contracts/modules/InfinityPool.sol\":102:13831  contract InfinityPool is Storage {... */\n      dup4\n      sload\n        /* \"contracts/modules/InfinityPool.sol\":2351:2369  user.poollevel < 7 */\n      lt\n        /* \"contracts/modules/InfinityPool.sol\":2343:2385  require(user.poollevel < 7, \"At max pool\") */\n      tag_17\n      jump\t// in\n    tag_246:\n        /* \"contracts/modules/InfinityPool.sol\":102:13831  contract InfinityPool is Storage {... */\n      0x01\n      dup4\n      add\n      swap3\n      dup4\n      dup2\n      gt\n      tag_208\n      jumpi\n        /* \"contracts/modules/InfinityPool.sol\":2500:2512  poolPackages */\n      0x15\n        /* \"contracts/modules/InfinityPool.sol\":102:13831  contract InfinityPool is Storage {... */\n      sload\n        /* \"contracts/modules/InfinityPool.sol\":2486:2519  _poolId + 1 < poolPackages.length */\n      dup5\n      lt\n        /* \"contracts/modules/InfinityPool.sol\":102:13831  contract InfinityPool is Storage {... */\n      iszero\n      tag_249\n      jumpi\n        /* \"contracts/modules/InfinityPool.sol\":2564:2589  poolPackages[_poolId + 1] */\n      tag_251\n      dup5\n      tag_2\n      jump\t// in\n    tag_251:\n        /* \"contracts/modules/InfinityPool.sol\":102:13831  contract InfinityPool is Storage {... */\n      swap1\n      sload\n      swap1\n      0x03\n      shl\n      shr\n      swap3\n      dup2\n      0x00\n      mstore\n        /* \"contracts/modules/InfinityPool.sol\":2836:2849  userPooltopup */\n      0x2e\n        /* \"contracts/modules/InfinityPool.sol\":102:13831  contract InfinityPool is Storage {... */\n      0x20\n      mstore\n      keccak256(0x00, 0x40)\n      dup7\n      0x00\n      mstore\n      0x20\n      mstore\n      keccak256(0x00, 0x40)\n      dup1\n      sload\n        /* \"contracts/modules/InfinityPool.sol\":2886:2917  top.nextPoolAmt >= packagePrice */\n      dup6\n      dup2\n      lt\n        /* \"contracts/modules/InfinityPool.sol\":102:13831  contract InfinityPool is Storage {... */\n      tag_252\n      jumpi\n      dup8\n      0x00\n      mstore\n        /* \"contracts/modules/InfinityPool.sol\":2970:2981  userHasPool */\n      0x33\n        /* \"contracts/modules/InfinityPool.sol\":102:13831  contract InfinityPool is Storage {... */\n      0x20\n      mstore\n      keccak256(0x00, 0x40)\n      dup8\n      0x00\n      mstore\n      0x20\n      mstore\n      jumpi(tag_254, and(sload(keccak256(0x00, 0x40)), 0xff))\n        /* \"contracts/modules/InfinityPool.sol\":3072:3103  top.nextPoolAmt -= packagePrice */\n      dup6\n      tag_256\n      swap2\n      tag_18\n      jump\t// in\n    tag_256:\n        /* \"contracts/modules/InfinityPool.sol\":102:13831  contract InfinityPool is Storage {... */\n      swap1\n      sstore\n      dup1\n      sload\n      swap3\n      0x01\n      dup5\n      add\n      dup1\n      swap5\n      gt\n      tag_208\n      jumpi\n      0x02\n      swap4\n        /* \"contracts/modules/InfinityPool.sol\":3181:3197  user.poolDeposit */\n      0x0d\n        /* \"contracts/modules/InfinityPool.sol\":102:13831  contract InfinityPool is Storage {... */\n      swap3\n      sstore\n        /* \"contracts/modules/InfinityPool.sol\":3181:3197  user.poolDeposit */\n      add\n        /* \"contracts/modules/InfinityPool.sol\":3181:3213  user.poolDeposit += packagePrice */\n      tag_259\n        /* \"contracts/modules/InfinityPool.sol\":102:13831  contract InfinityPool is Storage {... */\n      dup5\n      dup3\n      sload\n        /* \"contracts/modules/InfinityPool.sol\":3181:3213  user.poolDeposit += packagePrice */\n      tag_15\n      jump\t// in\n    tag_259:\n        /* \"contracts/modules/InfinityPool.sol\":102:13831  contract InfinityPool is Storage {... */\n      swap1\n      sstore\n      dup5\n      0x00\n      mstore\n        /* \"contracts/modules/InfinityPool.sol\":2970:2981  userHasPool */\n      0x33\n        /* \"contracts/modules/InfinityPool.sol\":102:13831  contract InfinityPool is Storage {... */\n      0x20\n      mstore\n      keccak256(0x00, 0x40)\n      dup5\n      0x00\n      mstore\n      0x20\n      mstore\n      keccak256(0x00, 0x40)\n      0x01\n      not(0xff)\n      dup3\n      sload\n      and\n      or\n      swap1\n      sstore\n        /* \"contracts/modules/InfinityPool.sol\":3307:3354  _placeInPool(targetPool, _userId, packagePrice) */\n      tag_260\n      dup4\n      dup7\n      dup7\n      tag_23\n      jump\t// in\n    tag_260:\n        /* \"contracts/modules/InfinityPool.sol\":102:13831  contract InfinityPool is Storage {... */\n      add\n      dup1\n      swap3\n      gt\n      tag_208\n      jumpi\n      mload(0x40)\n      swap2\n      dup3\n      mstore\n      0x20\n      dup3\n      add\n      mstore\n      0x80\n      0x40\n      dup3\n      add\n      mstore\n      0x16\n      0x80\n      dup3\n      add\n      mstore\n      shl(0x50, 0x506f6f6c205570677261646520284561726e696e6729)\n      0xa0\n      dup3\n      add\n      mstore\n        /* \"contracts/modules/InfinityPool.sol\":3707:3722  block.timestamp */\n      timestamp\n        /* \"contracts/modules/InfinityPool.sol\":102:13831  contract InfinityPool is Storage {... */\n      0x60\n      dup3\n      add\n      mstore\n      mload(0x00)\n      codecopy(0x00, data_404df00f6e66bff52b1bbe26c09dc1dec3db2c9f5cc1962e398ceea85fe88b34, 0x20)\n      mload(0x00)\n      swap1\n      0x00\n      mstore\n        /* \"contracts/modules/InfinityPool.sol\":3622:3723  Upgrade(msg.sender, _userId, targetPool + 1, packagePrice, \"Pool Upgrade (Earning)\", block.timestamp) */\n      0xc0\n        /* \"contracts/modules/InfinityPool.sol\":2301:2311  msg.sender */\n      caller\n        /* \"contracts/modules/InfinityPool.sol\":3622:3723  Upgrade(msg.sender, _userId, targetPool + 1, packagePrice, \"Pool Upgrade (Earning)\", block.timestamp) */\n      swap3\n      log3\n        /* \"contracts/modules/InfinityPool.sol\":102:13831  contract InfinityPool is Storage {... */\n      stop\n    tag_254:\n      mload(0x40)\n      shl(0xe5, 0x461bcd)\n      dup2\n      mstore\n      0x20\n      0x04\n      dup3\n      add\n      mstore\n      0x1b\n      0x24\n      dup3\n      add\n      mstore\n      0x416c726561647920707572636861736564206e65787420706f6f6c0000000000\n      0x44\n      dup3\n      add\n      mstore\n      0x64\n      swap1\n      revert\n    tag_252:\n      mload(0x40)\n      shl(0xe5, 0x461bcd)\n      dup2\n      mstore\n      0x20\n      0x04\n      dup3\n      add\n      mstore\n      0x1c\n      0x24\n      dup3\n      add\n      mstore\n      0x4e6f7420656e6f756768206e65787420706f6f6c2062616c616e636500000000\n      0x44\n      dup3\n      add\n      mstore\n      0x64\n      swap1\n      revert\n    tag_249:\n      mload(0x40)\n      shl(0xe5, 0x461bcd)\n      dup2\n      mstore\n      0x20\n      0x04\n      dup3\n      add\n      mstore\n      0x0e\n      0x24\n      dup3\n      add\n      mstore\n      shl(0x92, 0x139bc81a1a59da195c881c1bdbdb)\n      0x44\n      dup3\n      add\n      mstore\n      0x64\n      swap1\n      revert\n    tag_83:\n      jumpi(tag_127, callvalue)\n      tag_265\n      calldatasize\n      tag_6\n      jump\t// in\n    tag_265:\n      swap1\n      0x00\n      mstore\n        /* \"contracts/modules/Storage.sol\":1927:1995  mapping(uint256 => mapping(uint256 => uint256)) public communityDebt */\n      0x0b\n        /* \"contracts/modules/InfinityPool.sol\":102:13831  contract InfinityPool is Storage {... */\n      0x20\n      mstore\n      keccak256(0x00, 0x40)\n      swap1\n      0x00\n      mstore\n      0x20\n      mstore\n      0x20\n      sload(keccak256(0x00, 0x40))\n      mload(0x40)\n      swap1\n      dup2\n      mstore\n      return\n    tag_81:\n      jumpi(tag_127, callvalue)\n      jumpi(tag_127, slt(add(not(0x03), calldatasize), 0x00))\n        /* \"contracts/modules/Storage.sol\":422:450  address public creatorWallet */\n      0x02\n        /* \"contracts/modules/InfinityPool.sol\":102:13831  contract InfinityPool is Storage {... */\n      sload\n      mload(0x40)\n      sub(shl(0xa0, 0x01), 0x01)\n      swap1\n      swap2\n      and\n      dup2\n      mstore\n      0x20\n      swap1\n      return\n    tag_79:\n      jumpi(tag_127, callvalue)\n      jumpi(tag_127, slt(add(not(0x03), calldatasize), 0x00))\n      0x20\n        /* \"contracts/modules/Storage.sol\":1530:1564  uint256 public communityAccPerUser */\n      0x09\n        /* \"contracts/modules/InfinityPool.sol\":102:13831  contract InfinityPool is Storage {... */\n      sload\n      mload(0x40)\n      swap1\n      dup2\n      mstore\n      return\n    tag_77:\n      jumpi(tag_127, callvalue)\n      tag_276\n      calldatasize\n      tag_6\n      jump\t// in\n    tag_276:\n      dup2\n      0x00\n      mstore\n        /* \"contracts/modules/InfinityPool.sol\":987:992  users */\n      0x0f\n        /* \"contracts/modules/InfinityPool.sol\":102:13831  contract InfinityPool is Storage {... */\n      0x20\n      mstore\n      keccak256(0x00, 0x40)\n        /* \"contracts/modules/InfinityPool.sol\":1012:1067  require(user.account == msg.sender, \"Not your account\") */\n      tag_277\n        /* \"contracts/modules/InfinityPool.sol\":102:13831  contract InfinityPool is Storage {... */\n      0x01\n      dup1\n      0xa0\n      shl\n      sub\n      dup3\n      sload\n      and\n        /* \"contracts/modules/InfinityPool.sol\":1036:1046  msg.sender */\n      caller\n        /* \"contracts/modules/InfinityPool.sol\":1020:1046  user.account == msg.sender */\n      eq\n        /* \"contracts/modules/InfinityPool.sol\":1012:1067  require(user.account == msg.sender, \"Not your account\") */\n      tag_7\n      jump\t// in\n    tag_277:\n        /* \"contracts/modules/InfinityPool.sol\":1078:1120  require(user.poollevel < 7, \"At max pool\") */\n      tag_278\n        /* \"contracts/modules/InfinityPool.sol\":1103:1104  7 */\n      0x07\n        /* \"contracts/modules/InfinityPool.sol\":1086:1100  user.poollevel */\n      0x0c\n      dup4\n      add\n        /* \"contracts/modules/InfinityPool.sol\":102:13831  contract InfinityPool is Storage {... */\n      sload\n        /* \"contracts/modules/InfinityPool.sol\":1086:1104  user.poollevel < 7 */\n      lt\n        /* \"contracts/modules/InfinityPool.sol\":1078:1120  require(user.poollevel < 7, \"At max pool\") */\n      tag_17\n      jump\t// in\n    tag_278:\n        /* \"contracts/modules/InfinityPool.sol\":1265:1286  poolPackages[_poolId] */\n      tag_279\n      dup3\n      tag_2\n      jump\t// in\n    tag_279:\n        /* \"contracts/modules/InfinityPool.sol\":102:13831  contract InfinityPool is Storage {... */\n      swap1\n      sload\n      swap1\n      0x03\n      shl\n      shr\n      swap1\n      dup3\n      0x00\n      mstore\n        /* \"contracts/modules/InfinityPool.sol\":1331:1344  userPooltopup */\n      0x2e\n        /* \"contracts/modules/InfinityPool.sol\":102:13831  contract InfinityPool is Storage {... */\n      0x20\n      mstore\n      keccak256(0x00, 0x40)\n      dup5\n      0x00\n      mstore\n      0x20\n      mstore\n        /* \"contracts/modules/InfinityPool.sol\":1381:1395  top.reTopupAmt */\n      0x01\n        /* \"contracts/modules/InfinityPool.sol\":102:13831  contract InfinityPool is Storage {... */\n      keccak256(0x00, 0x40)\n        /* \"contracts/modules/InfinityPool.sol\":1381:1395  top.reTopupAmt */\n      add\n        /* \"contracts/modules/InfinityPool.sol\":102:13831  contract InfinityPool is Storage {... */\n      swap1\n      dup2\n      sload\n        /* \"contracts/modules/InfinityPool.sol\":1381:1411  top.reTopupAmt >= packagePrice */\n      swap2\n      dup4\n      dup4\n      lt\n        /* \"contracts/modules/InfinityPool.sol\":102:13831  contract InfinityPool is Storage {... */\n      tag_280\n      jumpi\n        /* \"contracts/modules/InfinityPool.sol\":1482:1512  top.reTopupAmt -= packagePrice */\n      tag_282\n      dup5\n        /* \"contracts/modules/InfinityPool.sol\":1381:1395  top.reTopupAmt */\n      0x01\n        /* \"contracts/modules/InfinityPool.sol\":1482:1512  top.reTopupAmt -= packagePrice */\n      swap5\n      tag_18\n      jump\t// in\n    tag_282:\n        /* \"contracts/modules/InfinityPool.sol\":102:13831  contract InfinityPool is Storage {... */\n      swap1\n      sstore\n        /* \"contracts/modules/InfinityPool.sol\":1552:1568  user.poolDeposit */\n      0x0d\n      dup2\n      add\n        /* \"contracts/modules/InfinityPool.sol\":1552:1584  user.poolDeposit += packagePrice */\n      tag_283\n        /* \"contracts/modules/InfinityPool.sol\":102:13831  contract InfinityPool is Storage {... */\n      dup5\n      dup3\n      sload\n        /* \"contracts/modules/InfinityPool.sol\":1552:1584  user.poolDeposit += packagePrice */\n      tag_15\n      jump\t// in\n    tag_283:\n        /* \"contracts/modules/InfinityPool.sol\":102:13831  contract InfinityPool is Storage {... */\n      swap1\n      sstore\n        /* \"contracts/modules/InfinityPool.sol\":1669:1681  packagePrice */\n      tag_284\n      dup4\n      dup7\n      dup7\n      tag_23\n      jump\t// in\n    tag_284:\n        /* \"contracts/modules/InfinityPool.sol\":1711:1724  user.deposits */\n      add\n        /* \"contracts/modules/InfinityPool.sol\":102:13831  contract InfinityPool is Storage {... */\n      mload(0x40)\n      swap1\n      tag_285\n      dup3\n      tag_10\n      jump\t// in\n    tag_285:\n      dup3\n      dup3\n      mstore\n      0x20\n        /* \"contracts/modules/InfinityPool.sol\":1730:1902  Deposit({... */\n      dup3\n      add\n        /* \"contracts/modules/InfinityPool.sol\":102:13831  contract InfinityPool is Storage {... */\n      swap1\n      0x00\n      dup3\n      mstore\n      0x40\n        /* \"contracts/modules/InfinityPool.sol\":1730:1902  Deposit({... */\n      dup4\n      add\n        /* \"contracts/modules/InfinityPool.sol\":1822:1837  block.timestamp */\n      swap3\n      timestamp\n        /* \"contracts/modules/InfinityPool.sol\":102:13831  contract InfinityPool is Storage {... */\n      dup5\n      mstore\n        /* \"contracts/modules/InfinityPool.sol\":1730:1902  Deposit({... */\n      0x60\n      dup2\n      add\n        /* \"contracts/modules/InfinityPool.sol\":102:13831  contract InfinityPool is Storage {... */\n      swap4\n        /* \"contracts/modules/InfinityPool.sol\":1865:1867  10 */\n      0x0a\n        /* \"contracts/modules/InfinityPool.sol\":102:13831  contract InfinityPool is Storage {... */\n      dup6\n      mstore\n      dup3\n      sload\n      swap4\n      shl(0x40, 0x01)\n      dup6\n      lt\n      iszero\n      tag_286\n      jumpi\n        /* \"contracts/modules/InfinityPool.sol\":1381:1395  top.reTopupAmt */\n      0x01\n        /* \"contracts/modules/InfinityPool.sol\":102:13831  contract InfinityPool is Storage {... */\n      dup6\n      add\n      dup1\n      dup6\n      sstore\n      dup6\n      lt\n      iszero\n      tag_177\n      jumpi\n      0xff\n      swap5\n      0x03\n      swap5\n      0x00\n      mstore\n      keccak256(0x00, 0x20)\n      swap1\n      0x02\n      shl\n      add\n      swap3\n      mload\n      dup4\n      sstore\n      mload\n        /* \"contracts/modules/InfinityPool.sol\":1381:1395  top.reTopupAmt */\n      0x01\n        /* \"contracts/modules/InfinityPool.sol\":102:13831  contract InfinityPool is Storage {... */\n      dup4\n      add\n      sstore\n      mload\n      0x02\n      dup3\n      add\n      sstore\n      add\n      swap2\n      mload\n      and\n      not(0xff)\n      dup3\n      sload\n      and\n      or\n      swap1\n      sstore\n      mload(0x40)\n      swap2\n      dup3\n      mstore\n      0x20\n      dup3\n      add\n      mstore\n      0x80\n      0x40\n      dup3\n      add\n      mstore\n      0x16\n      0x80\n      dup3\n      add\n      mstore\n      shl(0x50, 0x506f6f6c205265546f70757020284561726e696e6729)\n      0xa0\n      dup3\n      add\n      mstore\n        /* \"contracts/modules/InfinityPool.sol\":1822:1837  block.timestamp */\n      timestamp\n        /* \"contracts/modules/InfinityPool.sol\":1730:1902  Deposit({... */\n      0x60\n        /* \"contracts/modules/InfinityPool.sol\":102:13831  contract InfinityPool is Storage {... */\n      dup3\n      add\n      mstore\n      mload(0x00)\n      codecopy(0x00, data_404df00f6e66bff52b1bbe26c09dc1dec3db2c9f5cc1962e398ceea85fe88b34, 0x20)\n      mload(0x00)\n      swap1\n      0x00\n      mstore\n        /* \"contracts/modules/InfinityPool.sol\":1921:2016  Upgrade(msg.sender, _userId, _poolId, packagePrice, \"Pool ReTopup (Earning)\",  block.timestamp) */\n      0xc0\n        /* \"contracts/modules/InfinityPool.sol\":1036:1046  msg.sender */\n      caller\n        /* \"contracts/modules/InfinityPool.sol\":1921:2016  Upgrade(msg.sender, _userId, _poolId, packagePrice, \"Pool ReTopup (Earning)\",  block.timestamp) */\n      swap3\n      log3\n        /* \"contracts/modules/InfinityPool.sol\":102:13831  contract InfinityPool is Storage {... */\n      stop\n    tag_286:\n      mstore(0x00, shl(0xe0, 0x4e487b71))\n      mstore(0x04, 0x41)\n      revert(0x00, 0x24)\n    tag_280:\n      mload(0x40)\n      shl(0xe5, 0x461bcd)\n      dup2\n      mstore\n      0x20\n      0x04\n      dup3\n      add\n      mstore\n      0x1a\n      0x24\n      dup3\n      add\n      mstore\n      0x4e6f7420656e6f756768207265546f7075702062616c616e6365000000000000\n      0x44\n      dup3\n      add\n      mstore\n      0x64\n      swap1\n      revert\n    tag_75:\n      jumpi(tag_127, callvalue)\n      jumpi(tag_127, slt(add(not(0x03), calldatasize), 0x00))\n      0x20\n      mload(0x40)\n        /* \"contracts/modules/Storage.sol\":8680:8686  7 days */\n      0x093a80\n        /* \"contracts/modules/InfinityPool.sol\":102:13831  contract InfinityPool is Storage {... */\n      dup2\n      mstore\n      return\n    tag_73:\n      jumpi(tag_127, callvalue)\n      jumpi(tag_127, slt(add(not(0x03), calldatasize), 0x00))\n      0x20\n      mload(0x40)\n        /* \"contracts/modules/Storage.sol\":900:908  450 days */\n      0x02514300\n        /* \"contracts/modules/InfinityPool.sol\":102:13831  contract InfinityPool is Storage {... */\n      dup2\n      mstore\n      return\n    tag_71:\n      jumpi(tag_127, callvalue)\n      jumpi(tag_127, slt(add(not(0x03), calldatasize), 0x20))\n      0x60\n      tag_302\n      calldataload(0x04)\n      tag_16\n      jump\t// in\n    tag_302:\n      swap2\n      swap1\n      0x20\n      mload(0x40)\n      swap4\n      dup5\n      swap3\n      iszero\n      iszero\n      dup4\n      mstore\n      0x40\n      dup3\n      dup5\n      add\n      mstore\n      dup1\n      mload\n      swap2\n      dup3\n      swap2\n      dup3\n      0x40\n      dup7\n      add\n      mstore\n      add\n      dup5\n      dup5\n      add\n      mcopy\n      0x00\n      dup3\n      dup3\n      add\n      dup5\n      add\n      mstore\n      0x1f\n      add\n      not(0x1f)\n      and\n      dup2\n      add\n      sub\n      add\n      swap1\n      return\n    tag_69:\n      jumpi(tag_127, callvalue)\n      jumpi(tag_127, slt(add(not(0x03), calldatasize), 0x00))\n      0x20\n        /* \"contracts/modules/Storage.sol\":11590:11622  uint public topRoyaltyReward = 0 */\n      0x48\n        /* \"contracts/modules/InfinityPool.sol\":102:13831  contract InfinityPool is Storage {... */\n      sload\n      mload(0x40)\n      swap1\n      dup2\n      mstore\n      return\n    tag_67:\n      tag_4\n      jump\t// in\n    tag_65:\n      jumpi(tag_127, callvalue)\n      jumpi(tag_127, slt(add(not(0x03), calldatasize), 0x00))\n      0x20\n        /* \"contracts/modules/Storage.sol\":11510:11541  uint public topRoyaltyRound = 1 */\n      0x46\n        /* \"contracts/modules/InfinityPool.sol\":102:13831  contract InfinityPool is Storage {... */\n      sload\n      mload(0x40)\n      swap1\n      dup2\n      mstore\n      return\n    tag_63:\n      jumpi(tag_127, callvalue)\n      jumpi(tag_127, slt(add(not(0x03), calldatasize), 0x20))\n      mstore(0x00, calldataload(0x04))\n        /* \"contracts/modules/Storage.sol\":1818:1875  mapping(uint256 => uint256) public communityAccPerPackage */\n      0x0a\n        /* \"contracts/modules/InfinityPool.sol\":102:13831  contract InfinityPool is Storage {... */\n      0x20\n      mstore\n      0x20\n      sload(keccak256(0x00, 0x40))\n      mload(0x40)\n      swap1\n      dup2\n      mstore\n      return\n    tag_61:\n      jumpi(tag_127, callvalue)\n      jumpi(tag_127, slt(add(not(0x03), calldatasize), 0x20))\n      calldataload(0x04)\n      dup1\n      0x00\n      mstore\n        /* \"contracts/modules/InfinityPool.sol\":3820:3825  users */\n      0x0f\n        /* \"contracts/modules/InfinityPool.sol\":102:13831  contract InfinityPool is Storage {... */\n      0x20\n      mstore\n      keccak256(0x00, 0x40)\n        /* \"contracts/modules/InfinityPool.sol\":3845:3900  require(user.account == msg.sender, \"Not your account\") */\n      tag_319\n        /* \"contracts/modules/InfinityPool.sol\":102:13831  contract InfinityPool is Storage {... */\n      0x01\n      dup1\n      0xa0\n      shl\n      sub\n      dup3\n      sload\n      and\n        /* \"contracts/modules/InfinityPool.sol\":3869:3879  msg.sender */\n      caller\n        /* \"contracts/modules/InfinityPool.sol\":3853:3879  user.account == msg.sender */\n      eq\n        /* \"contracts/modules/InfinityPool.sol\":3845:3900  require(user.account == msg.sender, \"Not your account\") */\n      tag_7\n      jump\t// in\n    tag_319:\n        /* \"contracts/modules/InfinityPool.sol\":3919:3933  user.poollevel */\n      0x0c\n      dup2\n      add\n        /* \"contracts/modules/InfinityPool.sol\":102:13831  contract InfinityPool is Storage {... */\n      swap1\n      dup2\n      sload\n        /* \"contracts/modules/InfinityPool.sol\":3919:3937  user.poollevel < 7 */\n      swap2\n        /* \"contracts/modules/InfinityPool.sol\":3936:3937  7 */\n      0x07\n        /* \"contracts/modules/InfinityPool.sol\":3919:3937  user.poollevel < 7 */\n      dup4\n      lt\n        /* \"contracts/modules/InfinityPool.sol\":3911:3954  require(user.poollevel < 7, \"At max level\") */\n      tag_320\n      dup2\n      tag_8\n      jump\t// in\n    tag_320:\n        /* \"contracts/modules/InfinityPool.sol\":102:13831  contract InfinityPool is Storage {... */\n      iszero\n      tag_177\n      jumpi\n      dup3\n        /* \"contracts/modules/InfinityPool.sol\":4117:4132  minLevelForPool */\n      0x17\n        /* \"contracts/modules/InfinityPool.sol\":102:13831  contract InfinityPool is Storage {... */\n      add\n      sload\n        /* \"contracts/modules/InfinityPool.sol\":4258:4268  user.level */\n      0x06\n      dup4\n      add\n        /* \"contracts/modules/InfinityPool.sol\":102:13831  contract InfinityPool is Storage {... */\n      sload\n        /* \"contracts/modules/InfinityPool.sol\":4258:4285  user.level >= requiredLevel */\n      lt\n        /* \"contracts/modules/InfinityPool.sol\":102:13831  contract InfinityPool is Storage {... */\n      tag_323\n      jumpi\n        /* \"contracts/modules/InfinityPool.sol\":4394:4406  nextPool > 0 */\n      dup3\n      iszero\n      swap2\n      dup3\n      iszero\n        /* \"contracts/modules/InfinityPool.sol\":4390:4497  if (nextPool > 0) {... */\n      tag_325\n      jumpi\n        /* \"contracts/modules/InfinityPool.sol\":102:13831  contract InfinityPool is Storage {... */\n    tag_326:\n      dup5\n      0x00\n      mstore\n        /* \"contracts/modules/InfinityPool.sol\":4516:4527  userHasPool */\n      0x33\n        /* \"contracts/modules/InfinityPool.sol\":102:13831  contract InfinityPool is Storage {... */\n      0x20\n      mstore\n      keccak256(0x00, 0x40)\n      dup5\n      0x00\n      mstore\n      0x20\n      mstore\n        /* \"contracts/modules/InfinityPool.sol\":4507:4573  require(!userHasPool[_userId][nextPool], \"Pool already purchased\") */\n      tag_327\n        /* \"contracts/modules/InfinityPool.sol\":102:13831  contract InfinityPool is Storage {... */\n      and(sload(keccak256(0x00, 0x40)), 0xff)\n        /* \"contracts/modules/InfinityPool.sol\":4515:4546  !userHasPool[_userId][nextPool] */\n      iszero\n        /* \"contracts/modules/InfinityPool.sol\":4507:4573  require(!userHasPool[_userId][nextPool], \"Pool already purchased\") */\n      tag_9\n      jump\t// in\n    tag_327:\n        /* \"contracts/modules/InfinityPool.sol\":4618:4640  poolPackages[nextPool] */\n      tag_328\n      dup5\n      tag_2\n      jump\t// in\n    tag_328:\n        /* \"contracts/modules/InfinityPool.sol\":102:13831  contract InfinityPool is Storage {... */\n      swap1\n      sload\n      sload(0x01)\n      mload(0x40)\n      shl(0xe0, 0x23b872dd)\n        /* \"contracts/modules/InfinityPool.sol\":4708:4766  usdt.transferFrom(msg.sender, address(this), packagePrice) */\n      dup2\n      mstore\n        /* \"contracts/modules/InfinityPool.sol\":3869:3879  msg.sender */\n      caller\n        /* \"contracts/modules/InfinityPool.sol\":102:13831  contract InfinityPool is Storage {... */\n      0x04\n        /* \"contracts/modules/InfinityPool.sol\":4708:4766  usdt.transferFrom(msg.sender, address(this), packagePrice) */\n      dup3\n      add\n        /* \"contracts/modules/InfinityPool.sol\":102:13831  contract InfinityPool is Storage {... */\n      mstore\n        /* \"contracts/modules/InfinityPool.sol\":4746:4750  this */\n      address\n        /* \"contracts/modules/InfinityPool.sol\":102:13831  contract InfinityPool is Storage {... */\n      0x24\n      dup3\n      add\n      mstore\n      0x03\n      swap4\n      swap1\n      swap4\n      shl\n      swap2\n      swap1\n      swap2\n      shr\n      0x44\n      dup4\n      add\n      dup2\n      swap1\n      mstore\n      swap5\n      swap2\n      swap1\n      0x20\n      swap1\n      dup3\n      swap1\n      0x64\n      swap1\n      dup3\n      swap1\n      0x00\n      swap1\n      sub(shl(0xa0, 0x01), 0x01)\n      and\n        /* \"contracts/modules/InfinityPool.sol\":4708:4766  usdt.transferFrom(msg.sender, address(this), packagePrice) */\n      gas\n      call\n      dup1\n      iszero\n      tag_200\n      jumpi\n      tag_332\n      jumpi\n        /* \"contracts/modules/InfinityPool.sol\":102:13831  contract InfinityPool is Storage {... */\n    tag_333:\n        /* \"contracts/modules/InfinityPool.sol\":4829:5305  if(nextPool == 0){... */\n      pop\n      tag_334\n      jumpi\n        /* \"contracts/modules/InfinityPool.sol\":102:13831  contract InfinityPool is Storage {... */\n    tag_335:\n      0x01\n        /* \"contracts/modules/InfinityPool.sol\":5320:5344  user.directPoolQualified */\n      0x08\n      dup3\n      add\n        /* \"contracts/modules/InfinityPool.sol\":102:13831  contract InfinityPool is Storage {... */\n      sload\n        /* \"contracts/modules/InfinityPool.sol\":5320:5346  user.directPoolQualified>1 */\n      gt\n        /* \"contracts/modules/InfinityPool.sol\":5320:5408  user.directPoolQualified>1 &&  user.registrationTime + ROI_2X_TIME >= user.poolStartTime */\n      dup1\n      tag_336\n      jumpi\n        /* \"contracts/modules/InfinityPool.sol\":102:13831  contract InfinityPool is Storage {... */\n    tag_337:\n        /* \"contracts/modules/InfinityPool.sol\":5320:5430  user.directPoolQualified>1 &&  user.registrationTime + ROI_2X_TIME >= user.poolStartTime  && user.roiCap == 15 */\n      dup1\n      tag_338\n      jumpi\n        /* \"contracts/modules/InfinityPool.sol\":102:13831  contract InfinityPool is Storage {... */\n    tag_339:\n        /* \"contracts/modules/InfinityPool.sol\":5317:5476  if(user.directPoolQualified>1 &&  user.registrationTime + ROI_2X_TIME >= user.poolStartTime  && user.roiCap == 15){... */\n      tag_340\n      jumpi\n        /* \"contracts/modules/InfinityPool.sol\":102:13831  contract InfinityPool is Storage {... */\n    tag_341:\n      dup2\n      sload\n      0x01\n      dup2\n      add\n      dup1\n      swap2\n      gt\n      tag_208\n      jumpi\n        /* \"contracts/modules/InfinityPool.sol\":5564:5580  user.poolDeposit */\n      0x0d\n        /* \"contracts/modules/InfinityPool.sol\":102:13831  contract InfinityPool is Storage {... */\n      swap3\n      sstore\n      dup5\n      0x00\n      mstore\n        /* \"contracts/modules/InfinityPool.sol\":4516:4527  userHasPool */\n      0x33\n        /* \"contracts/modules/InfinityPool.sol\":102:13831  contract InfinityPool is Storage {... */\n      0x20\n      mstore\n      keccak256(0x00, 0x40)\n      dup5\n      0x00\n      mstore\n      0x20\n      mstore\n      keccak256(0x00, 0x40)\n      0x01\n      not(0xff)\n      dup3\n      sload\n      and\n      or\n      swap1\n      sstore\n        /* \"contracts/modules/InfinityPool.sol\":5564:5580  user.poolDeposit */\n      add\n        /* \"contracts/modules/InfinityPool.sol\":5564:5596  user.poolDeposit += packagePrice */\n      tag_344\n        /* \"contracts/modules/InfinityPool.sol\":102:13831  contract InfinityPool is Storage {... */\n      dup3\n      dup3\n      sload\n        /* \"contracts/modules/InfinityPool.sol\":5564:5596  user.poolDeposit += packagePrice */\n      tag_15\n      jump\t// in\n    tag_344:\n        /* \"contracts/modules/InfinityPool.sol\":102:13831  contract InfinityPool is Storage {... */\n      swap1\n      sstore\n        /* \"contracts/modules/InfinityPool.sol\":5640:5652  packagePrice */\n      tag_345\n      dup2\n      dup5\n      dup5\n      tag_23\n      jump\t// in\n    tag_345:\n        /* \"contracts/modules/InfinityPool.sol\":102:13831  contract InfinityPool is Storage {... */\n      0x01\n      dup3\n      add\n      dup1\n      swap3\n      gt\n      tag_208\n      jumpi\n      mload(0x40)\n      swap2\n      dup3\n      mstore\n      0x20\n      dup3\n      add\n      mstore\n      0x80\n      0x40\n      dup3\n      add\n      mstore\n      0x04\n      0x80\n      dup3\n      add\n      mstore\n      shl(0xe2, 0x141bdbdb)\n      0xa0\n      dup3\n      add\n      mstore\n        /* \"contracts/modules/InfinityPool.sol\":4802:4817  block.timestamp */\n      timestamp\n        /* \"contracts/modules/InfinityPool.sol\":102:13831  contract InfinityPool is Storage {... */\n      0x60\n      dup3\n      add\n      mstore\n      mload(0x00)\n      codecopy(0x00, data_404df00f6e66bff52b1bbe26c09dc1dec3db2c9f5cc1962e398ceea85fe88b34, 0x20)\n      mload(0x00)\n      swap1\n      0x00\n      mstore\n        /* \"contracts/modules/InfinityPool.sol\":5900:5973  Upgrade(msg.sender, _userId, nextPool + 1, packagePrice, \"Pool\", nowTime) */\n      0xc0\n        /* \"contracts/modules/InfinityPool.sol\":3869:3879  msg.sender */\n      caller\n        /* \"contracts/modules/InfinityPool.sol\":5900:5973  Upgrade(msg.sender, _userId, nextPool + 1, packagePrice, \"Pool\", nowTime) */\n      swap3\n      log3\n        /* \"contracts/modules/InfinityPool.sol\":102:13831  contract InfinityPool is Storage {... */\n      stop\n        /* \"contracts/modules/InfinityPool.sol\":5317:5476  if(user.directPoolQualified>1 &&  user.registrationTime + ROI_2X_TIME >= user.poolStartTime  && user.roiCap == 15){... */\n    tag_340:\n        /* \"contracts/modules/InfinityPool.sol\":5460:5462  20 */\n      0x14\n        /* \"contracts/modules/InfinityPool.sol\":5446:5457  user.roiCap */\n      0x0b\n      dup3\n      add\n        /* \"contracts/modules/InfinityPool.sol\":102:13831  contract InfinityPool is Storage {... */\n      sstore\n        /* \"contracts/modules/InfinityPool.sol\":5317:5476  if(user.directPoolQualified>1 &&  user.registrationTime + ROI_2X_TIME >= user.poolStartTime  && user.roiCap == 15){... */\n      jump(tag_341)\n        /* \"contracts/modules/InfinityPool.sol\":5320:5430  user.directPoolQualified>1 &&  user.registrationTime + ROI_2X_TIME >= user.poolStartTime  && user.roiCap == 15 */\n    tag_338:\n        /* \"contracts/modules/InfinityPool.sol\":5413:5424  user.roiCap */\n      pop\n        /* \"contracts/modules/InfinityPool.sol\":3820:3825  users */\n      0x0f\n        /* \"contracts/modules/InfinityPool.sol\":5413:5424  user.roiCap */\n      0x0b\n      dup3\n      add\n        /* \"contracts/modules/InfinityPool.sol\":102:13831  contract InfinityPool is Storage {... */\n      sload\n        /* \"contracts/modules/InfinityPool.sol\":5413:5430  user.roiCap == 15 */\n      eq\n        /* \"contracts/modules/InfinityPool.sol\":5320:5430  user.directPoolQualified>1 &&  user.registrationTime + ROI_2X_TIME >= user.poolStartTime  && user.roiCap == 15 */\n      jump(tag_339)\n        /* \"contracts/modules/InfinityPool.sol\":5320:5408  user.directPoolQualified>1 &&  user.registrationTime + ROI_2X_TIME >= user.poolStartTime */\n    tag_336:\n        /* \"contracts/modules/InfinityPool.sol\":5351:5372  user.registrationTime */\n      pop\n      0x11\n      dup2\n      add\n        /* \"contracts/modules/InfinityPool.sol\":102:13831  contract InfinityPool is Storage {... */\n      sload\n        /* \"contracts/modules/Storage.sol\":782:788  2 days */\n      0x02a300\n        /* \"contracts/modules/InfinityPool.sol\":102:13831  contract InfinityPool is Storage {... */\n      dup2\n      add\n      dup1\n      swap2\n      gt\n      tag_208\n      jumpi\n        /* \"contracts/modules/InfinityPool.sol\":5390:5408  user.poolStartTime */\n      0x0e\n      dup3\n      add\n        /* \"contracts/modules/InfinityPool.sol\":102:13831  contract InfinityPool is Storage {... */\n      sload\n      gt\n        /* \"contracts/modules/InfinityPool.sol\":5351:5408  user.registrationTime + ROI_2X_TIME >= user.poolStartTime */\n      iszero\n        /* \"contracts/modules/InfinityPool.sol\":5320:5408  user.directPoolQualified>1 &&  user.registrationTime + ROI_2X_TIME >= user.poolStartTime */\n      jump(tag_337)\n        /* \"contracts/modules/InfinityPool.sol\":4829:5305  if(nextPool == 0){... */\n    tag_334:\n        /* \"contracts/modules/InfinityPool.sol\":4802:4817  block.timestamp */\n      timestamp\n        /* \"contracts/modules/InfinityPool.sol\":4861:4879  user.poolStartTime */\n      0x0e\n      dup3\n      add\n        /* \"contracts/modules/InfinityPool.sol\":102:13831  contract InfinityPool is Storage {... */\n      sstore\n      0x04\n        /* \"contracts/modules/InfinityPool.sol\":4933:4947  user.sponsorId */\n      dup2\n      add\n        /* \"contracts/modules/InfinityPool.sol\":102:13831  contract InfinityPool is Storage {... */\n      sload\n      0x00\n      mstore\n        /* \"contracts/modules/InfinityPool.sol\":3820:3825  users */\n      0x0f\n        /* \"contracts/modules/InfinityPool.sol\":102:13831  contract InfinityPool is Storage {... */\n      0x20\n      mstore\n      keccak256(0x00, 0x40)\n        /* \"contracts/modules/InfinityPool.sol\":5015:5039  sponsor.registrationTime */\n      0x11\n      dup2\n      add\n        /* \"contracts/modules/InfinityPool.sol\":102:13831  contract InfinityPool is Storage {... */\n      sload\n        /* \"contracts/modules/Storage.sol\":782:788  2 days */\n      0x02a300\n        /* \"contracts/modules/InfinityPool.sol\":102:13831  contract InfinityPool is Storage {... */\n      dup2\n      add\n      dup1\n      swap2\n      gt\n      tag_208\n      jumpi\n        /* \"contracts/modules/InfinityPool.sol\":4802:4817  block.timestamp */\n      timestamp\n      lt\n        /* \"contracts/modules/InfinityPool.sol\":5015:5064  sponsor.registrationTime + ROI_2X_TIME <= nowTime */\n      iszero\n        /* \"contracts/modules/InfinityPool.sol\":5015:5088  sponsor.registrationTime + ROI_2X_TIME <= nowTime && sponsor.roiCap == 15 */\n      dup1\n      tag_352\n      jumpi\n        /* \"contracts/modules/InfinityPool.sol\":4829:5305  if(nextPool == 0){... */\n    tag_353:\n        /* \"contracts/modules/InfinityPool.sol\":5012:5294  if(sponsor.registrationTime + ROI_2X_TIME <= nowTime && sponsor.roiCap == 15){... */\n      tag_354\n      jumpi\n        /* \"contracts/modules/InfinityPool.sol\":4829:5305  if(nextPool == 0){... */\n    tag_355:\n      pop\n      jump(tag_335)\n        /* \"contracts/modules/InfinityPool.sol\":5012:5294  if(sponsor.registrationTime + ROI_2X_TIME <= nowTime && sponsor.roiCap == 15){... */\n    tag_354:\n        /* \"contracts/modules/InfinityPool.sol\":5109:5136  sponsor.directPoolQualified */\n      0x08\n      dup2\n      add\n        /* \"contracts/modules/InfinityPool.sol\":102:13831  contract InfinityPool is Storage {... */\n      dup1\n      sload\n      0x01\n      dup2\n      add\n      dup1\n      swap2\n      gt\n      tag_208\n      jumpi\n      dup1\n      0x01\n      swap3\n      sstore\n        /* \"contracts/modules/InfinityPool.sol\":5164:5195  sponsor.directPoolQualified > 1 */\n      gt\n        /* \"contracts/modules/InfinityPool.sol\":5160:5279  if( sponsor.directPoolQualified > 1){... */\n      iszero\n        /* \"contracts/modules/InfinityPool.sol\":5012:5294  if(sponsor.registrationTime + ROI_2X_TIME <= nowTime && sponsor.roiCap == 15){... */\n      tag_355\n        /* \"contracts/modules/InfinityPool.sol\":5160:5279  if( sponsor.directPoolQualified > 1){... */\n      jumpi\n        /* \"contracts/modules/InfinityPool.sol\":5219:5233  sponsor.roiCap */\n      0x0b\n        /* \"contracts/modules/InfinityPool.sol\":5236:5238  20 */\n      0x14\n        /* \"contracts/modules/InfinityPool.sol\":5219:5233  sponsor.roiCap */\n      swap2\n      add\n        /* \"contracts/modules/InfinityPool.sol\":102:13831  contract InfinityPool is Storage {... */\n      sstore\n        /* \"contracts/modules/InfinityPool.sol\":5160:5279  if( sponsor.directPoolQualified > 1){... */\n      dup6\n        /* \"contracts/modules/InfinityPool.sol\":5012:5294  if(sponsor.registrationTime + ROI_2X_TIME <= nowTime && sponsor.roiCap == 15){... */\n      jump(tag_355)\n        /* \"contracts/modules/InfinityPool.sol\":5015:5088  sponsor.registrationTime + ROI_2X_TIME <= nowTime && sponsor.roiCap == 15 */\n    tag_352:\n        /* \"contracts/modules/InfinityPool.sol\":5068:5082  sponsor.roiCap */\n      pop\n        /* \"contracts/modules/InfinityPool.sol\":3820:3825  users */\n      0x0f\n        /* \"contracts/modules/InfinityPool.sol\":5068:5082  sponsor.roiCap */\n      0x0b\n      dup3\n      add\n        /* \"contracts/modules/InfinityPool.sol\":102:13831  contract InfinityPool is Storage {... */\n      sload\n        /* \"contracts/modules/InfinityPool.sol\":5068:5088  sponsor.roiCap == 15 */\n      eq\n        /* \"contracts/modules/InfinityPool.sol\":5015:5088  sponsor.registrationTime + ROI_2X_TIME <= nowTime && sponsor.roiCap == 15 */\n      jump(tag_353)\n        /* \"contracts/modules/InfinityPool.sol\":4708:4766  usdt.transferFrom(msg.sender, address(this), packagePrice) */\n    tag_332:\n      tag_360\n      swap1\n        /* \"contracts/modules/InfinityPool.sol\":102:13831  contract InfinityPool is Storage {... */\n      0x20\n        /* \"contracts/modules/InfinityPool.sol\":4708:4766  usdt.transferFrom(msg.sender, address(this), packagePrice) */\n      returndatasize\n        /* \"contracts/modules/InfinityPool.sol\":102:13831  contract InfinityPool is Storage {... */\n      0x20\n        /* \"contracts/modules/InfinityPool.sol\":4708:4766  usdt.transferFrom(msg.sender, address(this), packagePrice) */\n      gt\n      tag_211\n      jumpi\n      tag_213\n      dup2\n      dup4\n      tag_12\n      jump\t// in\n    tag_360:\n      jump(tag_333)\n        /* \"contracts/modules/InfinityPool.sol\":4390:4497  if (nextPool > 0) {... */\n    tag_325:\n      jump(tag_326)\n        /* \"contracts/modules/InfinityPool.sol\":102:13831  contract InfinityPool is Storage {... */\n    tag_323:\n      mload(0x40)\n      shl(0xe5, 0x461bcd)\n      dup2\n      mstore\n      0x20\n      0x04\n      dup3\n      add\n      mstore\n      0x18\n      0x24\n      dup3\n      add\n      mstore\n      0x5570677261646520796f7572206c6576656c2066697273740000000000000000\n      0x44\n      dup3\n      add\n      mstore\n      0x64\n      swap1\n      revert\n    tag_59:\n      jumpi(tag_127, callvalue)\n      jumpi(tag_127, slt(add(not(0x03), calldatasize), 0x00))\n      0x20\n      mload(0x40)\n        /* \"contracts/modules/Storage.sol\":782:788  2 days */\n      0x02a300\n        /* \"contracts/modules/InfinityPool.sol\":102:13831  contract InfinityPool is Storage {... */\n      dup2\n      mstore\n      return\n    tag_57:\n      jumpi(tag_127, callvalue)\n      jumpi(tag_127, slt(add(not(0x03), calldatasize), 0x20))\n      calldataload(0x04)\n        /* \"contracts/modules/Storage.sol\":1257:1288  uint[] public registeredUserIds */\n      0x07\n        /* \"contracts/modules/InfinityPool.sol\":102:13831  contract InfinityPool is Storage {... */\n      sload\n        /* \"contracts/modules/Storage.sol\":1257:1288  uint[] public registeredUserIds */\n      dup2\n      lt\n      iszero\n      tag_127\n      jumpi\n      0x07\n        /* \"contracts/modules/InfinityPool.sol\":102:13831  contract InfinityPool is Storage {... */\n      sload\n      dup2\n      lt\n      iszero\n      tag_177\n      jumpi\n        /* \"contracts/modules/Storage.sol\":1257:1288  uint[] public registeredUserIds */\n      0x07\n        /* \"contracts/modules/InfinityPool.sol\":102:13831  contract InfinityPool is Storage {... */\n      0x00\n      mstore\n      0xa66cc928b5edb82af9bd49922954155ab7b0942694bea4ce44661d9a8736c688\n      add\n      sload\n      mload(0x40)\n      swap1\n      dup2\n      mstore\n      0x20\n      swap1\n      return\n    tag_55:\n      tag_5\n      jump\t// in\n    tag_53:\n      jumpi(tag_127, callvalue)\n      jumpi(tag_127, slt(add(not(0x03), calldatasize), 0x00))\n      0x20\n      mload(0x40)\n        /* \"contracts/modules/Storage.sol\":1513:1517  1e18 */\n      0x0de0b6b3a7640000\n        /* \"contracts/modules/InfinityPool.sol\":102:13831  contract InfinityPool is Storage {... */\n      dup2\n      mstore\n      return\n    tag_51:\n      jumpi(tag_127, callvalue)\n      jumpi(tag_127, slt(add(not(0x03), calldatasize), 0x00))\n      0x20\n      mload(0x40)\n        /* \"contracts/modules/Storage.sol\":731:737  1 days */\n      0x015180\n        /* \"contracts/modules/InfinityPool.sol\":102:13831  contract InfinityPool is Storage {... */\n      dup2\n      mstore\n      return\n    tag_49:\n      jumpi(tag_127, callvalue)\n      jumpi(tag_127, slt(add(not(0x03), calldatasize), 0x00))\n      0x20\n      mload(0x40)\n        /* \"contracts/modules/Storage.sol\":1240:1241  2 */\n      0x02\n        /* \"contracts/modules/InfinityPool.sol\":102:13831  contract InfinityPool is Storage {... */\n      dup2\n      mstore\n      return\n    tag_47:\n      jumpi(tag_127, callvalue)\n      jumpi(tag_127, slt(add(not(0x03), calldatasize), 0x00))\n      0x20\n        /* \"contracts/modules/Storage.sol\":8840:8873  uint public WeeklyTotalReward = 0 */\n      0x3a\n        /* \"contracts/modules/InfinityPool.sol\":102:13831  contract InfinityPool is Storage {... */\n      sload\n      mload(0x40)\n      swap1\n      dup2\n      mstore\n      return\n    tag_45:\n      jumpi(tag_127, callvalue)\n      jumpi(tag_127, slt(add(not(0x03), calldatasize), 0x00))\n      sload(0x01)\n      mload(0x40)\n      sub(shl(0xa0, 0x01), 0x01)\n      swap1\n      swap2\n      and\n      dup2\n      mstore\n      0x20\n      swap1\n      return\n    tag_41:\n      jumpi(tag_127, callvalue)\n      jumpi(tag_127, slt(add(not(0x03), calldatasize), 0x00))\n      0x20\n      mload(0x40)\n        /* \"contracts/modules/Storage.sol\":10127:10134  30 days */\n      0x278d00\n        /* \"contracts/modules/InfinityPool.sol\":102:13831  contract InfinityPool is Storage {... */\n      dup2\n      mstore\n      return\n    tag_37:\n      jumpi(tag_127, callvalue)\n      jumpi(tag_127, slt(add(not(0x03), calldatasize), 0x20))\n      calldataload(0x04)\n        /* \"contracts/modules/Storage.sol\":6947:7052  uint[] public glbBoosterPackages = [ 100e18, 200e18, 400e18, 800e18, 1600e18, 3200e18, 6400e18, 12800e18] */\n      0x16\n        /* \"contracts/modules/InfinityPool.sol\":102:13831  contract InfinityPool is Storage {... */\n      sload\n        /* \"contracts/modules/Storage.sol\":6947:7052  uint[] public glbBoosterPackages = [ 100e18, 200e18, 400e18, 800e18, 1600e18, 3200e18, 6400e18, 12800e18] */\n      dup2\n      lt\n      iszero\n      tag_127\n      jumpi\n      tag_220\n        /* \"contracts/modules/InfinityPool.sol\":102:13831  contract InfinityPool is Storage {... */\n      0x20\n        /* \"contracts/modules/Storage.sol\":6947:7052  uint[] public glbBoosterPackages = [ 100e18, 200e18, 400e18, 800e18, 1600e18, 3200e18, 6400e18, 12800e18] */\n      swap2\n      tag_1\n      jump\t// in\n        /* \"contracts/modules/InfinityPool.sol\":102:13831  contract InfinityPool is Storage {... */\n    tag_35:\n      jumpi(tag_127, callvalue)\n      jumpi(tag_127, slt(add(not(0x03), calldatasize), 0x20))\n      calldataload(0x04)\n      0x07\n        /* \"contracts/modules/Storage.sol\":7059:7116  uint[7] public minLevelForPool = [3, 5, 7, 9, 11, 13, 15] */\n      dup2\n      lt\n      iszero\n      tag_127\n      jumpi\n        /* \"contracts/modules/InfinityPool.sol\":102:13831  contract InfinityPool is Storage {... */\n      0x20\n      swap1\n        /* \"contracts/modules/Storage.sol\":7059:7116  uint[7] public minLevelForPool = [3, 5, 7, 9, 11, 13, 15] */\n      0x17\n        /* \"contracts/modules/InfinityPool.sol\":102:13831  contract InfinityPool is Storage {... */\n      add\n      sload\n      mload(0x40)\n      swap1\n      dup2\n      mstore\n      return\n    tag_33:\n      jumpi(tag_127, callvalue)\n      jumpi(tag_127, slt(add(not(0x03), calldatasize), 0x20))\n      mstore(0x00, calldataload(0x04))\n        /* \"contracts/modules/Storage.sol\":2093:2149  mapping(uint256 => uint256) public packageQualifiedUsers */\n      0x0c\n        /* \"contracts/modules/InfinityPool.sol\":102:13831  contract InfinityPool is Storage {... */\n      0x20\n      mstore\n      0x20\n      sload(keccak256(0x00, 0x40))\n      mload(0x40)\n      swap1\n      dup2\n      mstore\n      return\n    tag_31:\n      jumpi(tag_127, callvalue)\n      jumpi(tag_127, slt(add(not(0x03), calldatasize), 0x00))\n      dup1\n        /* \"contracts/modules/Storage.sol\":683:688  10000 */\n      0x2710\n        /* \"contracts/modules/InfinityPool.sol\":102:13831  contract InfinityPool is Storage {... */\n      0x20\n      swap3\n      mstore\n      return\n    tag_1:\n        /* \"contracts/modules/Storage.sol\":6947:7052  uint[] public glbBoosterPackages = [ 100e18, 200e18, 400e18, 800e18, 1600e18, 3200e18, 6400e18, 12800e18] */\n      0x16\n        /* \"contracts/modules/InfinityPool.sol\":102:13831  contract InfinityPool is Storage {... */\n      sload\n      dup2\n      lt\n      iszero\n      tag_177\n      jumpi\n        /* \"contracts/modules/Storage.sol\":6947:7052  uint[] public glbBoosterPackages = [ 100e18, 200e18, 400e18, 800e18, 1600e18, 3200e18, 6400e18, 12800e18] */\n      0x16\n      0x00\n        /* \"contracts/modules/InfinityPool.sol\":102:13831  contract InfinityPool is Storage {... */\n      mstore\n      keccak256(0x00, 0x20)\n      add\n      swap1\n      0x00\n      swap1\n      jump\t// out\n    tag_2:\n        /* \"contracts/modules/InfinityPool.sol\":4618:4630  poolPackages */\n      0x15\n        /* \"contracts/modules/InfinityPool.sol\":102:13831  contract InfinityPool is Storage {... */\n      sload\n      dup2\n      lt\n      iszero\n      tag_177\n      jumpi\n        /* \"contracts/modules/InfinityPool.sol\":4618:4630  poolPackages */\n      0x15\n      0x00\n        /* \"contracts/modules/InfinityPool.sol\":102:13831  contract InfinityPool is Storage {... */\n      mstore\n      keccak256(0x00, 0x20)\n      add\n      swap1\n      0x00\n      swap1\n      jump\t// out\n    tag_3:\n      dup1\n      sload\n      dup3\n      lt\n      iszero\n      tag_177\n      jumpi\n      0x00\n      mstore\n      keccak256(0x00, 0x20)\n      add\n      swap1\n      0x00\n      swap1\n      jump\t// out\n    tag_4:\n      jumpi(tag_127, callvalue)\n      jumpi(tag_127, slt(add(not(0x03), calldatasize), 0x00))\n      0x20\n      mload(0x40)\n        /* \"contracts/modules/Storage.sol\":1076:1078  10 */\n      0x0a\n        /* \"contracts/modules/InfinityPool.sol\":102:13831  contract InfinityPool is Storage {... */\n      dup2\n      mstore\n      return\n    tag_5:\n      jumpi(tag_127, callvalue)\n      jumpi(tag_127, slt(add(not(0x03), calldatasize), 0x00))\n      0x20\n      mload(0x40)\n        /* \"contracts/modules/Storage.sol\":1129:1131  15 */\n      0x0f\n        /* \"contracts/modules/InfinityPool.sol\":102:13831  contract InfinityPool is Storage {... */\n      dup2\n      mstore\n      return\n    tag_6:\n      0x40\n      swap1\n      not(0x03)\n      add\n      slt\n      tag_127\n      jumpi\n      calldataload(0x04)\n      swap1\n      calldataload(0x24)\n      swap1\n      jump\t// out\n    tag_7:\n      iszero\n      tag_437\n      jumpi\n      jump\t// out\n    tag_437:\n      mload(0x40)\n      shl(0xe5, 0x461bcd)\n      dup2\n      mstore\n      0x20\n      0x04\n      dup3\n      add\n      mstore\n      0x10\n      0x24\n      dup3\n      add\n      mstore\n      shl(0x82, 0x139bdd081e5bdd5c881858d8dbdd5b9d)\n      0x44\n      dup3\n      add\n      mstore\n      0x64\n      swap1\n      revert\n    tag_8:\n      iszero\n      tag_439\n      jumpi\n      jump\t// out\n    tag_439:\n      mload(0x40)\n      shl(0xe5, 0x461bcd)\n      dup2\n      mstore\n      0x20\n      0x04\n      dup3\n      add\n      mstore\n      0x0c\n      0x24\n      dup3\n      add\n      mstore\n      shl(0xa2, 0x105d081b585e081b195d995b)\n      0x44\n      dup3\n      add\n      mstore\n      0x64\n      swap1\n      revert\n    tag_9:\n      iszero\n      tag_441\n      jumpi\n      jump\t// out\n    tag_441:\n      mload(0x40)\n      shl(0xe5, 0x461bcd)\n      dup2\n      mstore\n      0x20\n      0x04\n      dup3\n      add\n      mstore\n      0x16\n      0x24\n      dup3\n      add\n      mstore\n      shl(0x52, 0x141bdbdb08185b1c9958591e481c1d5c98da185cd959)\n      0x44\n      dup3\n      add\n      mstore\n      0x64\n      swap1\n      revert\n    tag_10:\n      0x80\n      dup2\n      add\n      swap1\n      dup2\n      lt\n      0xffffffffffffffff\n      dup3\n      gt\n      or\n      tag_286\n      jumpi\n      0x40\n      mstore\n      jump\t// out\n    tag_11:\n      0xa0\n      dup2\n      add\n      swap1\n      dup2\n      lt\n      0xffffffffffffffff\n      dup3\n      gt\n      or\n      tag_286\n      jumpi\n      0x40\n      mstore\n      jump\t// out\n    tag_12:\n      swap1\n      0x1f\n      dup1\n      not\n      swap2\n      add\n      and\n      dup2\n      add\n      swap1\n      dup2\n      lt\n      0xffffffffffffffff\n      dup3\n      gt\n      or\n      tag_286\n      jumpi\n      0x40\n      mstore\n      jump\t// out\n    tag_13:\n      swap1\n      dup2\n      0x20\n      swap2\n      sub\n      slt\n      tag_127\n      jumpi\n      mload\n      dup1\n      iszero\n      iszero\n      dup2\n      sub\n      tag_127\n      jumpi\n      swap1\n      jump\t// out\n    tag_15:\n      swap2\n      swap1\n      dup3\n      add\n      dup1\n      swap3\n      gt\n      tag_208\n      jumpi\n      jump\t// out\n        /* \"contracts/modules/InfinityPool.sol\":193:876  function canBuyNextPool(uint userId) public view returns (bool eligible, string memory reason) {... */\n    tag_16:\n        /* \"contracts/modules/InfinityPool.sol\":102:13831  contract InfinityPool is Storage {... */\n      0x60\n      swap1\n      0x00\n      mstore\n        /* \"contracts/modules/InfinityPool.sol\":319:324  users */\n      0x0f\n        /* \"contracts/modules/InfinityPool.sol\":102:13831  contract InfinityPool is Storage {... */\n      0x20\n      mstore\n      keccak256(0x00, 0x40)\n        /* \"contracts/modules/InfinityPool.sol\":359:373  user.poollevel */\n      0x0c\n      dup2\n      add\n        /* \"contracts/modules/InfinityPool.sol\":102:13831  contract InfinityPool is Storage {... */\n      sload\n      swap2\n        /* \"contracts/modules/InfinityPool.sol\":400:412  poolPackages */\n      0x15\n        /* \"contracts/modules/InfinityPool.sol\":102:13831  contract InfinityPool is Storage {... */\n      sload\n        /* \"contracts/modules/InfinityPool.sol\":388:419  nextPool >= poolPackages.length */\n      dup4\n      lt\n      iszero\n        /* \"contracts/modules/InfinityPool.sol\":384:501  if (nextPool >= poolPackages.length) {... */\n      tag_455\n      jumpi\n        /* \"contracts/modules/InfinityPool.sol\":102:13831  contract InfinityPool is Storage {... */\n      pop\n      0x07\n      dup3\n      lt\n      iszero\n      tag_177\n      jumpi\n        /* \"contracts/modules/InfinityPool.sol\":576:586  user.level */\n      0x06\n        /* \"contracts/modules/InfinityPool.sol\":102:13831  contract InfinityPool is Storage {... */\n      dup3\n        /* \"contracts/modules/InfinityPool.sol\":534:549  minLevelForPool */\n      0x17\n        /* \"contracts/modules/InfinityPool.sol\":102:13831  contract InfinityPool is Storage {... */\n      add\n      sload\n        /* \"contracts/modules/InfinityPool.sol\":576:586  user.level */\n      swap2\n      add\n        /* \"contracts/modules/InfinityPool.sol\":102:13831  contract InfinityPool is Storage {... */\n      sload\n        /* \"contracts/modules/InfinityPool.sol\":576:602  user.level < requiredLevel */\n      lt\n        /* \"contracts/modules/InfinityPool.sol\":572:687  if (user.level < requiredLevel) {... */\n      tag_459\n      jumpi\n        /* \"contracts/modules/InfinityPool.sol\":703:715  nextPool > 0 */\n      iszero\n      iszero\n        /* \"contracts/modules/InfinityPool.sol\":703:744  nextPool > 0 && user.poollevel < nextPool */\n      dup1\n      tag_461\n      jumpi\n        /* \"contracts/modules/InfinityPool.sol\":193:876  function canBuyNextPool(uint userId) public view returns (bool eligible, string memory reason) {... */\n    tag_462:\n        /* \"contracts/modules/InfinityPool.sol\":699:814  if (nextPool > 0 && user.poollevel < nextPool) {... */\n      tag_463\n      jumpi\n        /* \"contracts/modules/InfinityPool.sol\":834:838  true */\n      0x01\n        /* \"contracts/modules/InfinityPool.sol\":102:13831  contract InfinityPool is Storage {... */\n      swap1\n      mload(0x40)\n      tag_465\n      0x40\n      dup3\n      tag_12\n      jump\t// in\n    tag_465:\n      0x19\n      dup2\n      mstore\n      0x456c696769626c6520746f20627579206e65787420706f6f6c00000000000000\n      0x20\n      dup3\n      add\n      mstore\n        /* \"contracts/modules/InfinityPool.sol\":193:876  function canBuyNextPool(uint userId) public view returns (bool eligible, string memory reason) {... */\n      swap1\n      jump\t// out\n        /* \"contracts/modules/InfinityPool.sol\":699:814  if (nextPool > 0 && user.poollevel < nextPool) {... */\n    tag_463:\n        /* \"contracts/modules/InfinityPool.sol\":102:13831  contract InfinityPool is Storage {... */\n      0x00\n      swap1\n      mload(0x40)\n      tag_466\n      0x40\n      dup3\n      tag_12\n      jump\t// in\n    tag_466:\n        /* \"contracts/modules/InfinityPool.sol\":534:549  minLevelForPool */\n      0x17\n        /* \"contracts/modules/InfinityPool.sol\":102:13831  contract InfinityPool is Storage {... */\n      dup2\n      mstore\n      0x4275792070726576696f757320706f6f6c206669727374000000000000000000\n      0x20\n      dup3\n      add\n      mstore\n        /* \"contracts/modules/InfinityPool.sol\":761:802  return (false, \"Buy previous pool first\") */\n      swap1\n      jump\t// out\n        /* \"contracts/modules/InfinityPool.sol\":703:744  nextPool > 0 && user.poollevel < nextPool */\n    tag_461:\n      pop\n        /* \"contracts/modules/InfinityPool.sol\":102:13831  contract InfinityPool is Storage {... */\n      0x00\n        /* \"contracts/modules/InfinityPool.sol\":703:744  nextPool > 0 && user.poollevel < nextPool */\n      jump(tag_462)\n        /* \"contracts/modules/InfinityPool.sol\":572:687  if (user.level < requiredLevel) {... */\n    tag_459:\n        /* \"contracts/modules/InfinityPool.sol\":619:675  return (false, \"You need to reach a higher level first\") */\n      pop\n        /* \"contracts/modules/InfinityPool.sol\":102:13831  contract InfinityPool is Storage {... */\n      0x00\n      swap1\n      mload(0x40)\n      tag_467\n      0x60\n      dup3\n      tag_12\n      jump\t// in\n    tag_467:\n      0x26\n      dup2\n      mstore\n      0x596f75206e65656420746f207265616368206120686967686572206c6576656c\n      0x20\n      dup3\n      add\n      mstore\n      shl(0xd2, 0x08199a5c9cdd)\n      0x40\n      dup3\n      add\n      mstore\n        /* \"contracts/modules/InfinityPool.sol\":619:675  return (false, \"You need to reach a higher level first\") */\n      swap1\n      jump\t// out\n        /* \"contracts/modules/InfinityPool.sol\":384:501  if (nextPool >= poolPackages.length) {... */\n    tag_455:\n        /* \"contracts/modules/InfinityPool.sol\":436:489  return (false, \"You are already at the highest pool\") */\n      swap3\n      swap2\n      pop\n      pop\n        /* \"contracts/modules/InfinityPool.sol\":102:13831  contract InfinityPool is Storage {... */\n      0x00\n      swap2\n      tag_468\n      mload(0x40)\n      swap2\n      dup3\n      tag_12\n      jump\t// in\n    tag_468:\n      0x23\n      dup2\n      mstore\n      0x596f752061726520616c72656164792061742074686520686967686573742070\n      0x20\n      dup3\n      add\n      mstore\n      shl(0xea, 0x1bdbdb)\n      0x40\n      dup3\n      add\n      mstore\n        /* \"contracts/modules/InfinityPool.sol\":436:489  return (false, \"You are already at the highest pool\") */\n      swap1\n      jump\t// out\n        /* \"contracts/modules/InfinityPool.sol\":102:13831  contract InfinityPool is Storage {... */\n    tag_17:\n      iszero\n      tag_469\n      jumpi\n      jump\t// out\n    tag_469:\n      mload(0x40)\n      shl(0xe5, 0x461bcd)\n      dup2\n      mstore\n      0x20\n      0x04\n      dup3\n      add\n      mstore\n      0x0b\n      0x24\n      dup3\n      add\n      mstore\n      shl(0xaa, 0x105d081b585e081c1bdbdb)\n      0x44\n      dup3\n      add\n      mstore\n      0x64\n      swap1\n      revert\n    tag_18:\n      swap2\n      swap1\n      dup3\n      sub\n      swap2\n      dup3\n      gt\n      tag_208\n      jumpi\n      jump\t// out\n    tag_19:\n      iszero\n      tag_473\n      jumpi\n      jump\t// out\n    tag_473:\n      mload(0x40)\n      shl(0xe5, 0x461bcd)\n      dup2\n      mstore\n      0x20\n      0x04\n      dup3\n      add\n      mstore\n      0x07\n      0x24\n      dup3\n      add\n      mstore\n      shl(0xca, 0x125b9d985b1a59)\n      0x44\n      dup3\n      add\n      mstore\n      0x64\n      swap1\n      revert\n    tag_20:\n      iszero\n      tag_475\n      jumpi\n      jump\t// out\n    tag_475:\n      mload(0x40)\n      shl(0xe5, 0x461bcd)\n      dup2\n      mstore\n      0x20\n      0x04\n      dup3\n      add\n      mstore\n      0x10\n      0x24\n      dup3\n      add\n      mstore\n      shl(0x82, 0x125b98dbdc9c9958dd08185b5bdd5b9d)\n      0x44\n      dup3\n      add\n      mstore\n      0x64\n      swap1\n      revert\n    tag_21:\n      dup1\n      sload\n      shl(0x40, 0x01)\n      dup2\n      lt\n      iszero\n      tag_286\n      jumpi\n      tag_479\n      swap2\n      0x01\n      dup3\n      add\n      dup2\n      sstore\n      tag_3\n      jump\t// in\n    tag_479:\n      dup2\n      swap3\n      swap2\n      sload\n      swap1\n      0x03\n      shl\n      swap2\n      dup3\n      shl\n      swap2\n      not(0x00)\n      swap1\n      shl\n      not\n      and\n      or\n      swap1\n      sstore\n      jump\t// out\n        /* \"contracts/modules/InfinityPool.sol\":5995:7103  function _placeInPool(uint256 poolId, uint userMainId, uint packagePrice) private {... */\n    tag_23:\n      swap1\n      swap3\n      swap2\n        /* \"contracts/modules/InfinityPool.sol\":6105:6117  poolPackages */\n      0x15\n        /* \"contracts/modules/InfinityPool.sol\":102:13831  contract InfinityPool is Storage {... */\n      sload\n        /* \"contracts/modules/InfinityPool.sol\":6096:6124  poolId < poolPackages.length */\n      swap4\n        /* \"contracts/modules/InfinityPool.sol\":6088:6136  require(poolId < poolPackages.length, \"Invalid\") */\n      tag_480\n      0x00\n        /* \"contracts/modules/InfinityPool.sol\":6096:6124  poolId < poolPackages.length */\n      swap6\n      dup5\n      lt\n        /* \"contracts/modules/InfinityPool.sol\":6088:6136  require(poolId < poolPackages.length, \"Invalid\") */\n      tag_19\n      jump\t// in\n    tag_480:\n        /* \"contracts/modules/InfinityPool.sol\":6147:6209  require(msg.value == poolPackages[poolId], \"Incorrect amount\") */\n      tag_481\n        /* \"contracts/modules/InfinityPool.sol\":6168:6188  poolPackages[poolId] */\n      tag_482\n      dup5\n      tag_2\n      jump\t// in\n    tag_482:\n        /* \"contracts/modules/InfinityPool.sol\":102:13831  contract InfinityPool is Storage {... */\n      swap1\n      sload\n      swap1\n      0x03\n      shl\n      shr\n        /* \"contracts/modules/InfinityPool.sol\":6155:6164  msg.value */\n      callvalue\n        /* \"contracts/modules/InfinityPool.sol\":6155:6188  msg.value == poolPackages[poolId] */\n      eq\n        /* \"contracts/modules/InfinityPool.sol\":6147:6209  require(msg.value == poolPackages[poolId], \"Incorrect amount\") */\n      tag_20\n      jump\t// in\n    tag_481:\n        /* \"contracts/modules/InfinityPool.sol\":102:13831  contract InfinityPool is Storage {... */\n      dup3\n      0x00\n      mstore\n        /* \"contracts/modules/InfinityPool.sol\":6300:6309  poolUsers */\n      0x32\n        /* \"contracts/modules/InfinityPool.sol\":102:13831  contract InfinityPool is Storage {... */\n      0x20\n      mstore\n      sload(keccak256(0x00, 0x40))\n        /* \"contracts/modules/InfinityPool.sol\":6415:6441  defaultRefId + uint(index) */\n      tag_483\n        /* \"contracts/modules/InfinityPool.sol\":102:13831  contract InfinityPool is Storage {... */\n      dup2\n        /* \"contracts/modules/InfinityPool.sol\":6415:6427  defaultRefId */\n      0x05\n        /* \"contracts/modules/InfinityPool.sol\":102:13831  contract InfinityPool is Storage {... */\n      sload\n        /* \"contracts/modules/InfinityPool.sol\":6415:6441  defaultRefId + uint(index) */\n      tag_15\n      jump\t// in\n    tag_483:\n        /* \"contracts/modules/InfinityPool.sol\":102:13831  contract InfinityPool is Storage {... */\n      swap1\n      dup5\n      0x00\n      mstore\n        /* \"contracts/modules/InfinityPool.sol\":6300:6309  poolUsers */\n      0x32\n        /* \"contracts/modules/InfinityPool.sol\":102:13831  contract InfinityPool is Storage {... */\n      0x20\n      mstore\n        /* \"contracts/modules/InfinityPool.sol\":6452:6485  poolUsers[poolId].push(newUserId) */\n      tag_484\n        /* \"contracts/modules/InfinityPool.sol\":102:13831  contract InfinityPool is Storage {... */\n      dup3\n      keccak256(0x00, 0x40)\n        /* \"contracts/modules/InfinityPool.sol\":6452:6485  poolUsers[poolId].push(newUserId) */\n      tag_21\n      jump\t// in\n    tag_484:\n      not(0x00)\n        /* \"contracts/modules/InfinityPool.sol\":102:13831  contract InfinityPool is Storage {... */\n      dup2\n      add\n      swap1\n      dup2\n      gt\n      tag_208\n      jumpi\n        /* \"contracts/modules/InfinityPool.sol\":6590:6620  poolUsers[poolId][parentIndex] */\n      tag_487\n        /* \"contracts/modules/InfinityPool.sol\":102:13831  contract InfinityPool is Storage {... */\n      0x03\n        /* \"contracts/modules/InfinityPool.sol\":6972:7018  userChildren[poolId][parentId].push(newUserId) */\n      tag_488\n        /* \"contracts/modules/InfinityPool.sol\":102:13831  contract InfinityPool is Storage {... */\n      swap3\n      dup8\n      0x00\n      mstore\n        /* \"contracts/modules/InfinityPool.sol\":6300:6309  poolUsers */\n      0x32\n        /* \"contracts/modules/InfinityPool.sol\":102:13831  contract InfinityPool is Storage {... */\n      0x20\n      mstore\n      div\n      keccak256(0x00, 0x40)\n        /* \"contracts/modules/InfinityPool.sol\":6590:6620  poolUsers[poolId][parentIndex] */\n      tag_3\n      jump\t// in\n    tag_487:\n        /* \"contracts/modules/InfinityPool.sol\":102:13831  contract InfinityPool is Storage {... */\n      swap1\n      sload\n      swap1\n      0x03\n      shl\n      shr\n      swap2\n      tag_489\n      mload(0x40)\n      tag_490\n      dup2\n      tag_11\n      jump\t// in\n    tag_490:\n      dup3\n      dup2\n      mstore\n      0x20\n        /* \"contracts/modules/InfinityPool.sol\":6692:6888  UserPool({... */\n      dup1\n      dup3\n      add\n        /* \"contracts/modules/InfinityPool.sol\":102:13831  contract InfinityPool is Storage {... */\n      dup8\n      dup2\n      mstore\n      0x40\n        /* \"contracts/modules/InfinityPool.sol\":6692:6888  UserPool({... */\n      dup1\n      dup5\n      add\n        /* \"contracts/modules/InfinityPool.sol\":102:13831  contract InfinityPool is Storage {... */\n      dup12\n      dup2\n      mstore\n        /* \"contracts/modules/InfinityPool.sol\":6692:6888  UserPool({... */\n      0x60\n      dup6\n      add\n        /* \"contracts/modules/InfinityPool.sol\":102:13831  contract InfinityPool is Storage {... */\n      dup10\n      dup2\n      mstore\n      0x00\n        /* \"contracts/modules/InfinityPool.sol\":6692:6888  UserPool({... */\n      0x80\n      dup8\n      add\n        /* \"contracts/modules/InfinityPool.sol\":102:13831  contract InfinityPool is Storage {... */\n      dup2\n      dup2\n      mstore\n      dup15\n      dup3\n      mstore\n        /* \"contracts/modules/InfinityPool.sol\":6659:6670  userPooldtl */\n      0x2f\n        /* \"contracts/modules/InfinityPool.sol\":102:13831  contract InfinityPool is Storage {... */\n      dup8\n      mstore\n      dup5\n      dup3\n      keccak256\n      dup11\n      dup4\n      mstore\n      swap1\n      swap7\n      mstore\n      swap3\n      swap1\n      swap3\n      keccak256\n      swap5\n      mload\n      dup6\n      sstore\n      swap2\n      mload\n      0x01\n      dup6\n      add\n      sstore\n      swap1\n      mload\n      0x02\n      dup5\n      add\n      sstore\n      mload\n      0x03\n      dup4\n      add\n      sstore\n      mload\n      0x04\n      swap1\n      swap2\n      add\n      sstore\n      jump\n    tag_489:\n      dup6\n      0x00\n      mstore\n        /* \"contracts/modules/InfinityPool.sol\":6912:6925  userIdPerPool */\n      0x31\n        /* \"contracts/modules/InfinityPool.sol\":102:13831  contract InfinityPool is Storage {... */\n      0x20\n      mstore\n      keccak256(0x00, 0x40)\n      dup5\n      0x00\n      mstore\n      0x20\n      mstore\n        /* \"contracts/modules/InfinityPool.sol\":6912:6961  userIdPerPool[poolId][userMainId].push(newUserId) */\n      tag_491\n        /* \"contracts/modules/InfinityPool.sol\":102:13831  contract InfinityPool is Storage {... */\n      dup2\n      keccak256(0x00, 0x40)\n        /* \"contracts/modules/InfinityPool.sol\":6912:6961  userIdPerPool[poolId][userMainId].push(newUserId) */\n      tag_21\n      jump\t// in\n    tag_491:\n        /* \"contracts/modules/InfinityPool.sol\":102:13831  contract InfinityPool is Storage {... */\n      dup6\n      0x00\n      mstore\n        /* \"contracts/modules/InfinityPool.sol\":6972:6984  userChildren */\n      0x30\n        /* \"contracts/modules/InfinityPool.sol\":102:13831  contract InfinityPool is Storage {... */\n      0x20\n      mstore\n      keccak256(0x00, 0x40)\n      dup4\n      0x00\n      mstore\n      0x20\n      mstore\n      keccak256(0x00, 0x40)\n        /* \"contracts/modules/InfinityPool.sol\":6972:7018  userChildren[poolId][parentId].push(newUserId) */\n      tag_21\n      jump\t// in\n    tag_488:\n        /* \"contracts/modules/InfinityPool.sol\":102:13831  contract InfinityPool is Storage {... */\n      swap1\n      0x03\n      dup4\n      div\n        /* \"contracts/modules/InfinityPool.sol\":7327:7352  uint totalDistributed = 0 */\n      swap6\n      0x00\n        /* \"contracts/modules/InfinityPool.sol\":7369:7377  uint i=0 */\n      swap5\n      0x00\n        /* \"contracts/modules/InfinityPool.sol\":7365:8546  for(uint i=0; i<3; i++){... */\n      swap4\n        /* \"contracts/modules/InfinityPool.sol\":7379:7382  i<3 */\n    tag_492:\n        /* \"contracts/modules/InfinityPool.sol\":102:13831  contract InfinityPool is Storage {... */\n      0x03\n        /* \"contracts/modules/InfinityPool.sol\":7379:7382  i<3 */\n      dup6\n      lt\n      tag_493\n      jumpi\n        /* \"contracts/modules/InfinityPool.sol\":7365:8546  for(uint i=0; i<3; i++){... */\n    tag_494:\n        /* \"contracts/modules/InfinityPool.sol\":8658:8684  _amount - totalDistributed */\n      pop\n      pop\n      pop\n      pop\n      pop\n      tag_495\n      swap3\n      swap4\n      pop\n      tag_18\n      jump\t// in\n    tag_495:\n        /* \"contracts/modules/InfinityPool.sol\":8699:8713  _remaining > 0 */\n      dup1\n        /* \"contracts/modules/InfinityPool.sol\":8695:8768  if (_remaining > 0) {... */\n      tag_496\n      jumpi\n        /* \"contracts/modules/InfinityPool.sol\":5995:7103  function _placeInPool(uint256 poolId, uint userMainId, uint packagePrice) private {... */\n      pop\n      jump\t// out\n        /* \"contracts/modules/InfinityPool.sol\":8695:8768  if (_remaining > 0) {... */\n    tag_496:\n        /* \"contracts/modules/InfinityPool.sol\":8745:8755  _remaining */\n      tag_498\n      swap1\n      tag_26\n      jump\t// in\n    tag_498:\n        /* \"contracts/modules/InfinityPool.sol\":5995:7103  function _placeInPool(uint256 poolId, uint userMainId, uint packagePrice) private {... */\n      jump\t// out\n        /* \"contracts/modules/InfinityPool.sol\":7384:7387  i++ */\n    tag_493:\n        /* \"contracts/modules/InfinityPool.sol\":7420:7438  currentParent == 0 */\n      dup1\n      iszero\n        /* \"contracts/modules/InfinityPool.sol\":7420:7471  currentParent == 0 || currentParent == defaultRefId */\n      dup1\n      iszero\n      tag_499\n      jumpi\n        /* \"contracts/modules/InfinityPool.sol\":7384:7387  i++ */\n    tag_500:\n        /* \"contracts/modules/InfinityPool.sol\":7416:7751  if (currentParent == 0 || currentParent == defaultRefId) {... */\n      tag_501\n      jumpi\n        /* \"contracts/modules/InfinityPool.sol\":102:13831  contract InfinityPool is Storage {... */\n      dup2\n      dup4\n      mstore\n        /* \"contracts/modules/InfinityPool.sol\":6659:6670  userPooldtl */\n      0x2f\n        /* \"contracts/modules/InfinityPool.sol\":102:13831  contract InfinityPool is Storage {... */\n      0x20\n      mstore\n      0x40\n      dup4\n      keccak256\n      swap1\n      dup4\n      mstore\n      0x20\n      mstore\n      0x40\n      dup3\n      keccak256\n        /* \"contracts/modules/InfinityPool.sol\":7862:7874  userp.mainid */\n      swap6\n      dup9\n        /* \"contracts/modules/InfinityPool.sol\":6557:6558  1 */\n      0x01\n        /* \"contracts/modules/InfinityPool.sol\":7862:7874  userp.mainid */\n      dup9\n      add\n        /* \"contracts/modules/InfinityPool.sol\":102:13831  contract InfinityPool is Storage {... */\n      sload\n        /* \"contracts/modules/InfinityPool.sol\":7910:7926  userp.bonusCount */\n      0x04\n      dup10\n      add\n        /* \"contracts/modules/InfinityPool.sol\":102:13831  contract InfinityPool is Storage {... */\n      dup1\n      sload\n        /* \"contracts/modules/InfinityPool.sol\":7910:7931  userp.bonusCount < 39 */\n      swap1\n        /* \"contracts/modules/InfinityPool.sol\":7929:7931  39 */\n      0x27\n        /* \"contracts/modules/InfinityPool.sol\":7910:7931  userp.bonusCount < 39 */\n      dup3\n      lt\n        /* \"contracts/modules/InfinityPool.sol\":7906:8403  if (userp.bonusCount < 39) {... */\n      tag_503\n      jumpi\n        /* \"contracts/modules/InfinityPool.sol\":7384:7387  i++ */\n    tag_504:\n        /* \"contracts/modules/InfinityPool.sol\":8426:8460  totalDistributed += amountPerLevel */\n      pop\n      pop\n      pop\n      tag_505\n        /* \"contracts/modules/InfinityPool.sol\":102:13831  contract InfinityPool is Storage {... */\n      0x03\n        /* \"contracts/modules/InfinityPool.sol\":8426:8460  totalDistributed += amountPerLevel */\n      swap2\n        /* \"contracts/modules/InfinityPool.sol\":6557:6558  1 */\n      0x01\n        /* \"contracts/modules/InfinityPool.sol\":8426:8460  totalDistributed += amountPerLevel */\n      swap4\n      tag_15\n      jump\t// in\n    tag_505:\n        /* \"contracts/modules/InfinityPool.sol\":8520:8534  userp.parentId */\n      swap8\n      add\n        /* \"contracts/modules/InfinityPool.sol\":102:13831  contract InfinityPool is Storage {... */\n      sload\n        /* \"contracts/modules/InfinityPool.sol\":7384:7387  i++ */\n      swap5\n        /* \"contracts/modules/InfinityPool.sol\":102:13831  contract InfinityPool is Storage {... */\n      add\n        /* \"contracts/modules/InfinityPool.sol\":7369:7377  uint i=0 */\n      swap4\n      jump(tag_492)\n        /* \"contracts/modules/InfinityPool.sol\":7906:8403  if (userp.bonusCount < 39) {... */\n    tag_503:\n        /* \"contracts/modules/InfinityPool.sol\":102:13831  contract InfinityPool is Storage {... */\n      swap1\n      swap2\n      swap3\n      pop\n        /* \"contracts/modules/InfinityPool.sol\":6557:6558  1 */\n      0x01\n        /* \"contracts/modules/InfinityPool.sol\":102:13831  contract InfinityPool is Storage {... */\n      dup3\n      add\n      dup1\n      swap3\n      gt\n      tag_511\n      jumpi\n      dup2\n      swap1\n      sstore\n      dup11\n      swap1\n        /* \"contracts/modules/InfinityPool.sol\":8018:8020  24 */\n      0x18\n        /* \"contracts/modules/InfinityPool.sol\":7998:8020  userp.bonusCount <= 24 */\n      dup2\n      gt\n        /* \"contracts/modules/InfinityPool.sol\":8018:8020  24 */\n      tag_508\n      jumpi\n        /* \"contracts/modules/InfinityPool.sol\":102:13831  contract InfinityPool is Storage {... */\n      pop\n      pop\n      dup1\n      dup5\n      mstore\n        /* \"contracts/modules/InfinityPool.sol\":8942:8953  userIncomes */\n      0x10\n        /* \"contracts/modules/InfinityPool.sol\":102:13831  contract InfinityPool is Storage {... */\n      0x20\n      mstore\n        /* \"contracts/modules/InfinityPool.sol\":9100:9114  inc.poolIncome */\n      0x07\n        /* \"contracts/modules/InfinityPool.sol\":102:13831  contract InfinityPool is Storage {... */\n      0x40\n      dup6\n      keccak256\n        /* \"contracts/modules/InfinityPool.sol\":9100:9114  inc.poolIncome */\n      add\n        /* \"contracts/modules/InfinityPool.sol\":9100:9124  inc.poolIncome += amount */\n      tag_510\n        /* \"contracts/modules/InfinityPool.sol\":102:13831  contract InfinityPool is Storage {... */\n      dup12\n      dup3\n      sload\n        /* \"contracts/modules/InfinityPool.sol\":9100:9124  inc.poolIncome += amount */\n      tag_15\n      jump\t// in\n    tag_510:\n        /* \"contracts/modules/InfinityPool.sol\":102:13831  contract InfinityPool is Storage {... */\n      swap1\n      sstore\n        /* \"contracts/modules/InfinityPool.sol\":9669:9671  95 */\n      0x5f\n        /* \"contracts/modules/InfinityPool.sol\":102:13831  contract InfinityPool is Storage {... */\n      dup11\n      mul\n      dup11\n      iszero\n      swap1\n      dup12\n      dup2\n      div\n        /* \"contracts/modules/InfinityPool.sol\":9669:9671  95 */\n      0x5f\n        /* \"contracts/modules/InfinityPool.sol\":102:13831  contract InfinityPool is Storage {... */\n      eq\n      dup3\n      or\n      iszero\n      tag_511\n      jumpi\n      dup3\n      dup7\n      mstore\n        /* \"contracts/modules/Storage.sol\":13745:13750  users */\n      0x0f\n        /* \"contracts/modules/InfinityPool.sol\":102:13831  contract InfinityPool is Storage {... */\n      0x20\n      mstore\n      0x40\n      dup7\n      keccak256\n      sload\n      sub(shl(0xa0, 0x01), 0x01)\n      and\n      swap3\n        /* \"contracts/modules/InfinityPool.sol\":9674:9677  100 */\n      0x64\n        /* \"contracts/modules/InfinityPool.sol\":102:13831  contract InfinityPool is Storage {... */\n      swap1\n      swap2\n      div\n      swap1\n        /* \"contracts/modules/Storage.sol\":13823:13848  userAddress != address(0) */\n      dup4\n      iszero\n        /* \"contracts/modules/InfinityPool.sol\":102:13831  contract InfinityPool is Storage {... */\n      tag_513\n      jumpi\n        /* \"contracts/modules/Storage.sol\":13884:13895  _amount > 0 */\n      dup2\n      iszero\n        /* \"contracts/modules/InfinityPool.sol\":102:13831  contract InfinityPool is Storage {... */\n      tag_515\n      jumpi\n      dup1\n      dup8\n      mstore\n        /* \"contracts/modules/InfinityPool.sol\":8942:8953  userIncomes */\n      0x10\n        /* \"contracts/modules/InfinityPool.sol\":102:13831  contract InfinityPool is Storage {... */\n      0x20\n      mstore\n      0x40\n      dup8\n      keccak256\n      swap7\n      dup1\n      tag_517\n      jumpi\n      pop\n        /* \"contracts/modules/Storage.sol\":14187:14216  income.totalIncome += _amount */\n      tag_519\n        /* \"contracts/modules/InfinityPool.sol\":102:13831  contract InfinityPool is Storage {... */\n      dup3\n      dup9\n      sload\n        /* \"contracts/modules/Storage.sol\":14187:14216  income.totalIncome += _amount */\n      tag_15\n      jump\t// in\n    tag_519:\n        /* \"contracts/modules/InfinityPool.sol\":102:13831  contract InfinityPool is Storage {... */\n      dup8\n      sstore\n        /* \"contracts/modules/InfinityPool.sol\":9100:9114  inc.poolIncome */\n      0x07\n      0x00\n        /* \"contracts/modules/InfinityPool.sol\":102:13831  contract InfinityPool is Storage {... */\n      swap8\n        /* \"contracts/modules/Storage.sol\":14715:14732  income.poolIncome */\n      add\n        /* \"contracts/modules/Storage.sol\":14715:14743  income.poolIncome += _amount */\n      tag_520\n        /* \"contracts/modules/InfinityPool.sol\":102:13831  contract InfinityPool is Storage {... */\n      dup4\n      dup3\n      sload\n        /* \"contracts/modules/Storage.sol\":14715:14743  income.poolIncome += _amount */\n      tag_15\n      jump\t// in\n    tag_520:\n        /* \"contracts/modules/InfinityPool.sol\":102:13831  contract InfinityPool is Storage {... */\n      swap1\n      sstore\n      sload(0x01)\n        /* \"contracts/modules/Storage.sol\":15214:15221  _amount */\n      tag_521\n      swap1\n        /* \"contracts/modules/InfinityPool.sol\":102:13831  contract InfinityPool is Storage {... */\n      dup4\n      swap1\n      dup7\n      swap1\n      sub(shl(0xa0, 0x01), 0x01)\n      and\n        /* \"contracts/modules/Storage.sol\":15214:15221  _amount */\n      tag_28\n      jump\t// in\n    tag_521:\n        /* \"contracts/modules/InfinityPool.sol\":102:13831  contract InfinityPool is Storage {... */\n      mload(0x40)\n      swap2\n      dup3\n      mstore\n        /* \"contracts/modules/InfinityPool.sol\":6557:6558  1 */\n      0x01\n        /* \"contracts/modules/InfinityPool.sol\":102:13831  contract InfinityPool is Storage {... */\n      0x20\n      dup4\n      add\n      mstore\n        /* \"contracts/modules/InfinityPool.sol\":6415:6427  defaultRefId */\n      0x05\n      swap4\n        /* \"contracts/modules/Storage.sol\":15238:15345  IncomeDistribution(userAddress, _userId, _fromUserId, _amount,_packageLevel, _incomeType, block.timestamp ) */\n      0x4d634c31300b97dad99b3af799178230163d88ad306370d063be9cd992d0be7f\n        /* \"contracts/modules/InfinityPool.sol\":6692:6888  UserPool({... */\n      0x80\n        /* \"contracts/modules/InfinityPool.sol\":102:13831  contract InfinityPool is Storage {... */\n      dup5\n      dup8\n      0x40\n      dup14\n      swap8\n      add\n      mstore\n        /* \"contracts/modules/Storage.sol\":15328:15343  block.timestamp */\n      timestamp\n        /* \"contracts/modules/InfinityPool.sol\":6692:6888  UserPool({... */\n      0x60\n        /* \"contracts/modules/InfinityPool.sol\":102:13831  contract InfinityPool is Storage {... */\n      dup3\n      add\n      mstore\n        /* \"contracts/modules/Storage.sol\":15238:15345  IncomeDistribution(userAddress, _userId, _fromUserId, _amount,_packageLevel, _incomeType, block.timestamp ) */\n      log4\n        /* \"contracts/modules/InfinityPool.sol\":102:13831  contract InfinityPool is Storage {... */\n      dup2\n      dup12\n      mul\n      swap2\n      dup12\n      dup4\n      div\n      eq\n      or\n      iszero\n      tag_208\n      jumpi\n        /* \"contracts/modules/InfinityPool.sol\":8426:8460  totalDistributed += amountPerLevel */\n      tag_505\n        /* \"contracts/modules/InfinityPool.sol\":102:13831  contract InfinityPool is Storage {... */\n      dup11\n        /* \"contracts/modules/InfinityPool.sol\":6557:6558  1 */\n      0x01\n        /* \"contracts/modules/InfinityPool.sol\":102:13831  contract InfinityPool is Storage {... */\n      swap4\n        /* \"contracts/modules/InfinityPool.sol\":9829:9845  (amount*5) / 100 */\n      tag_526\n        /* \"contracts/modules/InfinityPool.sol\":9674:9677  100 */\n      0x64\n        /* \"contracts/modules/InfinityPool.sol\":102:13831  contract InfinityPool is Storage {... */\n      0x03\n      swap6\n      div\n        /* \"contracts/modules/InfinityPool.sol\":9829:9845  (amount*5) / 100 */\n      tag_26\n      jump\t// in\n    tag_526:\n        /* \"contracts/modules/InfinityPool.sol\":7906:8403  if (userp.bonusCount < 39) {... */\n      swap4\n      dup2\n      swap4\n      pop\n      jump(tag_504)\n        /* \"contracts/modules/InfinityPool.sol\":102:13831  contract InfinityPool is Storage {... */\n    tag_517:\n      shl(0xe0, 0x4e487b71)\n      dup2\n      mstore\n      0x21\n        /* \"contracts/modules/InfinityPool.sol\":7910:7926  userp.bonusCount */\n      0x04\n        /* \"contracts/modules/InfinityPool.sol\":102:13831  contract InfinityPool is Storage {... */\n      mstore\n      0x24\n      swap1\n      revert\n    tag_515:\n      mload(0x40)\n      shl(0xe5, 0x461bcd)\n      dup2\n      mstore\n      0x20\n        /* \"contracts/modules/InfinityPool.sol\":7910:7926  userp.bonusCount */\n      0x04\n        /* \"contracts/modules/InfinityPool.sol\":102:13831  contract InfinityPool is Storage {... */\n      dup3\n      add\n      mstore\n        /* \"contracts/modules/InfinityPool.sol\":9164:9166  11 */\n      0x0b\n        /* \"contracts/modules/InfinityPool.sol\":102:13831  contract InfinityPool is Storage {... */\n      0x24\n      dup3\n      add\n      mstore\n      shl(0xaa, 0x16995c9bc8185b5bdd5b9d)\n      0x44\n      dup3\n      add\n      mstore\n        /* \"contracts/modules/InfinityPool.sol\":9674:9677  100 */\n      0x64\n      swap1\n        /* \"contracts/modules/InfinityPool.sol\":102:13831  contract InfinityPool is Storage {... */\n      revert\n    tag_513:\n      mload(0x40)\n      shl(0xe5, 0x461bcd)\n      dup2\n      mstore\n      0x20\n        /* \"contracts/modules/InfinityPool.sol\":7910:7926  userp.bonusCount */\n      0x04\n        /* \"contracts/modules/InfinityPool.sol\":102:13831  contract InfinityPool is Storage {... */\n      dup3\n      add\n      mstore\n      0x0c\n      0x24\n      dup3\n      add\n      mstore\n      shl(0xa1, 0x24b73b30b634b2103ab9b2b9)\n      0x44\n      dup3\n      add\n      mstore\n        /* \"contracts/modules/InfinityPool.sol\":9674:9677  100 */\n      0x64\n      swap1\n        /* \"contracts/modules/InfinityPool.sol\":102:13831  contract InfinityPool is Storage {... */\n      revert\n    tag_511:\n      shl(0xe0, 0x4e487b71)\n      dup7\n      mstore\n      0x11\n        /* \"contracts/modules/InfinityPool.sol\":7910:7926  userp.bonusCount */\n      0x04\n        /* \"contracts/modules/InfinityPool.sol\":102:13831  contract InfinityPool is Storage {... */\n      mstore\n      0x24\n      dup7\n      revert\n        /* \"contracts/modules/InfinityPool.sol\":7994:8386  if (userp.bonusCount <= 24) {... */\n    tag_508:\n        /* \"contracts/modules/InfinityPool.sol\":6557:6558  1 */\n      0x01\n      swap4\n        /* \"contracts/modules/InfinityPool.sol\":102:13831  contract InfinityPool is Storage {... */\n      0x03\n      swap4\n        /* \"contracts/modules/InfinityPool.sol\":8426:8460  totalDistributed += amountPerLevel */\n      tag_505\n      swap4\n        /* \"contracts/modules/InfinityPool.sol\":8139:8161  userp.bonusCount <= 36 */\n      swap3\n        /* \"contracts/modules/InfinityPool.sol\":8159:8161  36 */\n      0x24\n      lt\n      tag_528\n      jumpi\n        /* \"contracts/modules/InfinityPool.sol\":102:13831  contract InfinityPool is Storage {... */\n      dup7\n      dup9\n      mstore\n        /* \"contracts/modules/InfinityPool.sol\":8186:8199  userPooltopup */\n      0x2e\n        /* \"contracts/modules/InfinityPool.sol\":102:13831  contract InfinityPool is Storage {... */\n      0x20\n      mstore\n      0x40\n      dup9\n      keccak256\n      swap1\n      dup9\n      mstore\n      0x20\n      mstore\n      0x40\n      dup8\n      keccak256\n        /* \"contracts/modules/InfinityPool.sol\":8186:8252  userPooltopup[_poolId][parentMainId].nextPoolAmt += amountPerLevel */\n      tag_530\n        /* \"contracts/modules/InfinityPool.sol\":102:13831  contract InfinityPool is Storage {... */\n      dup4\n      dup3\n      sload\n        /* \"contracts/modules/InfinityPool.sol\":8186:8252  userPooltopup[_poolId][parentMainId].nextPoolAmt += amountPerLevel */\n      tag_15\n      jump\t// in\n    tag_530:\n        /* \"contracts/modules/InfinityPool.sol\":102:13831  contract InfinityPool is Storage {... */\n      swap1\n      sstore\n        /* \"contracts/modules/InfinityPool.sol\":7994:8386  if (userp.bonusCount <= 24) {... */\n      jump(tag_526)\n        /* \"contracts/modules/InfinityPool.sol\":8135:8386  if (userp.bonusCount <= 36) {... */\n    tag_528:\n        /* \"contracts/modules/InfinityPool.sol\":102:13831  contract InfinityPool is Storage {... */\n      dup7\n      dup9\n      mstore\n        /* \"contracts/modules/InfinityPool.sol\":8301:8314  userPooltopup */\n      0x2e\n        /* \"contracts/modules/InfinityPool.sol\":102:13831  contract InfinityPool is Storage {... */\n      0x20\n      mstore\n      0x40\n      dup9\n      keccak256\n      swap1\n      dup9\n      mstore\n      0x20\n      mstore\n      dup5\n      0x40\n      dup9\n      keccak256\n        /* \"contracts/modules/InfinityPool.sol\":8301:8348  userPooltopup[_poolId][parentMainId].reTopupAmt */\n      add\n        /* \"contracts/modules/InfinityPool.sol\":8301:8366  userPooltopup[_poolId][parentMainId].reTopupAmt += amountPerLevel */\n      tag_530\n        /* \"contracts/modules/InfinityPool.sol\":102:13831  contract InfinityPool is Storage {... */\n      dup4\n      dup3\n      sload\n        /* \"contracts/modules/InfinityPool.sol\":8301:8366  userPooltopup[_poolId][parentMainId].reTopupAmt += amountPerLevel */\n      tag_15\n      jump\t// in\n        /* \"contracts/modules/InfinityPool.sol\":7416:7751  if (currentParent == 0 || currentParent == defaultRefId) {... */\n    tag_501:\n        /* \"contracts/modules/InfinityPool.sol\":7580:7606  _amount - totalDistributed */\n      pop\n      pop\n      pop\n      pop\n      pop\n        /* \"contracts/modules/InfinityPool.sol\":8658:8684  _amount - totalDistributed */\n      tag_495\n        /* \"contracts/modules/InfinityPool.sol\":7580:7606  _amount - totalDistributed */\n      swap3\n      swap4\n      pop\n      tag_533\n      dup3\n      dup3\n      tag_18\n      jump\t// in\n    tag_533:\n        /* \"contracts/modules/InfinityPool.sol\":7629:7642  remaining > 0 */\n      dup1\n        /* \"contracts/modules/InfinityPool.sol\":7625:7712  if (remaining > 0) {... */\n      tag_534\n      jumpi\n        /* \"contracts/modules/InfinityPool.sol\":7416:7751  if (currentParent == 0 || currentParent == defaultRefId) {... */\n    tag_535:\n        /* \"contracts/modules/InfinityPool.sol\":7730:7735  break */\n      dup5\n      swap4\n      dup2\n      dup1\n      dup1\n      jump(tag_494)\n        /* \"contracts/modules/InfinityPool.sol\":7625:7712  if (remaining > 0) {... */\n    tag_534:\n        /* \"contracts/modules/InfinityPool.sol\":7682:7691  remaining */\n      tag_536\n      swap1\n      tag_26\n      jump\t// in\n    tag_536:\n        /* \"contracts/modules/InfinityPool.sol\":7625:7712  if (remaining > 0) {... */\n      0x00\n      jump(tag_535)\n        /* \"contracts/modules/InfinityPool.sol\":7420:7471  currentParent == 0 || currentParent == defaultRefId */\n    tag_499:\n        /* \"contracts/modules/InfinityPool.sol\":102:13831  contract InfinityPool is Storage {... */\n      pop\n        /* \"contracts/modules/InfinityPool.sol\":6415:6427  defaultRefId */\n      0x05\n        /* \"contracts/modules/InfinityPool.sol\":102:13831  contract InfinityPool is Storage {... */\n      sload\n        /* \"contracts/modules/InfinityPool.sol\":7442:7471  currentParent == defaultRefId */\n      dup2\n      eq\n        /* \"contracts/modules/InfinityPool.sol\":7420:7471  currentParent == 0 || currentParent == defaultRefId */\n      jump(tag_500)\n        /* \"contracts/modules/InfinityPool.sol\":11689:13817  function _placeInBooster(uint256 poolId, uint userMainId, uint packagePrice) private {... */\n    tag_24:\n      swap1\n        /* \"contracts/modules/InfinityPool.sol\":11785:11839  require(poolId < glbBoosterPackages.length, \"Invalid\") */\n      tag_537\n        /* \"contracts/modules/InfinityPool.sol\":11802:11820  glbBoosterPackages */\n      0x16\n        /* \"contracts/modules/InfinityPool.sol\":102:13831  contract InfinityPool is Storage {... */\n      sload\n        /* \"contracts/modules/InfinityPool.sol\":11793:11827  poolId < glbBoosterPackages.length */\n      dup4\n      lt\n        /* \"contracts/modules/InfinityPool.sol\":11785:11839  require(poolId < glbBoosterPackages.length, \"Invalid\") */\n      tag_19\n      jump\t// in\n    tag_537:\n        /* \"contracts/modules/InfinityPool.sol\":11850:11918  require(msg.value == glbBoosterPackages[poolId], \"Incorrect amount\") */\n      tag_538\n        /* \"contracts/modules/InfinityPool.sol\":11871:11897  glbBoosterPackages[poolId] */\n      tag_482\n      dup4\n      tag_1\n      jump\t// in\n        /* \"contracts/modules/InfinityPool.sol\":11850:11918  require(msg.value == glbBoosterPackages[poolId], \"Incorrect amount\") */\n    tag_538:\n      0x00\n        /* \"contracts/modules/InfinityPool.sol\":102:13831  contract InfinityPool is Storage {... */\n      dup3\n      dup2\n      mstore\n        /* \"contracts/modules/InfinityPool.sol\":12012:12024  boosterUsers */\n      0x36\n        /* \"contracts/modules/InfinityPool.sol\":102:13831  contract InfinityPool is Storage {... */\n      0x20\n      mstore\n      0x40\n      swap1\n      keccak256\n      dup1\n      sload\n      swap1\n        /* \"contracts/modules/InfinityPool.sol\":12182:12219  boosterUsers[poolId].push(userMainId) */\n      tag_540\n      swap1\n        /* \"contracts/modules/InfinityPool.sol\":102:13831  contract InfinityPool is Storage {... */\n      dup4\n      swap1\n        /* \"contracts/modules/InfinityPool.sol\":12182:12219  boosterUsers[poolId].push(userMainId) */\n      tag_21\n      jump\t// in\n    tag_540:\n      not(0x00)\n        /* \"contracts/modules/InfinityPool.sol\":102:13831  contract InfinityPool is Storage {... */\n      dup2\n      add\n      swap1\n      dup2\n      gt\n      tag_208\n      jumpi\n      0x03\n        /* \"contracts/modules/InfinityPool.sol\":12324:12357  boosterUsers[poolId][parentIndex] */\n      tag_543\n        /* \"contracts/modules/InfinityPool.sol\":102:13831  contract InfinityPool is Storage {... */\n      swap2\n      dup5\n      0x00\n      mstore\n        /* \"contracts/modules/InfinityPool.sol\":12012:12024  boosterUsers */\n      0x36\n        /* \"contracts/modules/InfinityPool.sol\":102:13831  contract InfinityPool is Storage {... */\n      0x20\n      mstore\n      div\n      keccak256(0x00, 0x40)\n        /* \"contracts/modules/InfinityPool.sol\":12324:12357  boosterUsers[poolId][parentIndex] */\n      tag_3\n      jump\t// in\n    tag_543:\n        /* \"contracts/modules/InfinityPool.sol\":102:13831  contract InfinityPool is Storage {... */\n      swap1\n      sload\n      swap1\n      0x03\n      shl\n      shr\n      swap2\n      tag_544\n      mload(0x40)\n      tag_545\n      dup2\n      tag_11\n      jump\t// in\n    tag_545:\n      dup4\n      dup2\n      mstore\n      0x20\n        /* \"contracts/modules/InfinityPool.sol\":12432:12654  UserBooster({... */\n      dup1\n      dup3\n      add\n        /* \"contracts/modules/InfinityPool.sol\":102:13831  contract InfinityPool is Storage {... */\n      dup5\n      dup2\n      mstore\n      0x40\n        /* \"contracts/modules/InfinityPool.sol\":12432:12654  UserBooster({... */\n      dup1\n      dup5\n      add\n        /* \"contracts/modules/InfinityPool.sol\":102:13831  contract InfinityPool is Storage {... */\n      dup9\n      dup2\n      mstore\n      0x00\n        /* \"contracts/modules/InfinityPool.sol\":12432:12654  UserBooster({... */\n      0x60\n      dup7\n      add\n        /* \"contracts/modules/InfinityPool.sol\":102:13831  contract InfinityPool is Storage {... */\n      dup2\n      dup2\n      mstore\n        /* \"contracts/modules/InfinityPool.sol\":12623:12638  block.timestamp */\n      timestamp\n        /* \"contracts/modules/InfinityPool.sol\":12432:12654  UserBooster({... */\n      0x80\n      dup9\n      add\n        /* \"contracts/modules/InfinityPool.sol\":102:13831  contract InfinityPool is Storage {... */\n      swap1\n      dup2\n      mstore\n      dup10\n      dup4\n      mstore\n        /* \"contracts/modules/InfinityPool.sol\":12395:12409  userBoosterdtl */\n      0x34\n        /* \"contracts/modules/InfinityPool.sol\":102:13831  contract InfinityPool is Storage {... */\n      dup8\n      mstore\n      dup5\n      dup4\n      keccak256\n      dup12\n      dup5\n      mstore\n      swap1\n      swap7\n      mstore\n      swap3\n      swap1\n      keccak256\n      swap5\n      mload\n      dup6\n      sstore\n      swap2\n      mload\n      0x01\n      dup6\n      add\n      sstore\n      swap1\n      mload\n      0x02\n      dup5\n      add\n      sstore\n      mload\n      0x03\n      dup4\n      add\n      sstore\n      mload\n      0x04\n      swap1\n      swap2\n      add\n      sstore\n      jump\n    tag_544:\n      dup1\n      0x00\n      mstore\n        /* \"contracts/modules/InfinityPool.sol\":12665:12684  userBoosterChildren */\n      0x35\n        /* \"contracts/modules/InfinityPool.sol\":102:13831  contract InfinityPool is Storage {... */\n      0x20\n      mstore\n      keccak256(0x00, 0x40)\n      dup4\n      0x00\n      mstore\n      0x20\n      mstore\n        /* \"contracts/modules/InfinityPool.sol\":12665:12719  userBoosterChildren[poolId][parentId].push(userMainId) */\n      tag_546\n        /* \"contracts/modules/InfinityPool.sol\":102:13831  contract InfinityPool is Storage {... */\n      dup3\n      keccak256(0x00, 0x40)\n        /* \"contracts/modules/InfinityPool.sol\":12665:12719  userBoosterChildren[poolId][parentId].push(userMainId) */\n      tag_21\n      jump\t// in\n    tag_546:\n        /* \"contracts/modules/InfinityPool.sol\":12291:12292  1 */\n      0x01\n        /* \"contracts/modules/InfinityPool.sol\":12744:12755  poolId == 1 */\n      dup2\n      eq\n        /* \"contracts/modules/InfinityPool.sol\":12741:13325  if(poolId == 1  ){... */\n      tag_547\n      jumpi\n        /* \"contracts/modules/InfinityPool.sol\":11689:13817  function _placeInBooster(uint256 poolId, uint userMainId, uint packagePrice) private {... */\n    tag_548:\n        /* \"contracts/modules/InfinityPool.sol\":13343:13356  parentId == 0 */\n      dup3\n      iszero\n        /* \"contracts/modules/InfinityPool.sol\":13343:13384  parentId == 0 || parentId == defaultRefId */\n      dup1\n      iszero\n      tag_549\n      jumpi\n        /* \"contracts/modules/InfinityPool.sol\":11689:13817  function _placeInBooster(uint256 poolId, uint userMainId, uint packagePrice) private {... */\n    tag_550:\n        /* \"contracts/modules/InfinityPool.sol\":13339:13462  if (parentId == 0 || parentId == defaultRefId) {... */\n      tag_553\n      jumpi\n      0x00\n        /* \"contracts/modules/InfinityPool.sol\":102:13831  contract InfinityPool is Storage {... */\n      mstore\n        /* \"contracts/modules/InfinityPool.sol\":12395:12409  userBoosterdtl */\n      0x34\n        /* \"contracts/modules/InfinityPool.sol\":102:13831  contract InfinityPool is Storage {... */\n      0x20\n      mstore\n      keccak256(0x00, 0x40)\n      dup3\n      0x00\n      mstore\n      0x20\n      mstore\n      0x03\n      keccak256(0x00, 0x40)\n        /* \"contracts/modules/InfinityPool.sol\":13549:13565  userB.bonusCount */\n      add\n        /* \"contracts/modules/InfinityPool.sol\":102:13831  contract InfinityPool is Storage {... */\n      0x03\n      dup2\n      sload\n        /* \"contracts/modules/InfinityPool.sol\":13549:13567  userB.bonusCount<3 */\n      lt\n        /* \"contracts/modules/InfinityPool.sol\":13545:13790  if( userB.bonusCount<3)... */\n      0x00\n        /* \"contracts/modules/InfinityPool.sol\":102:13831  contract InfinityPool is Storage {... */\n      eq\n      tag_553\n      jumpi\n      dup1\n      sload\n      swap1\n        /* \"contracts/modules/InfinityPool.sol\":12291:12292  1 */\n      0x01\n        /* \"contracts/modules/InfinityPool.sol\":102:13831  contract InfinityPool is Storage {... */\n      dup3\n      add\n      dup1\n      swap3\n      gt\n      tag_208\n      jumpi\n      sstore\n      dup2\n      0x00\n      mstore\n        /* \"contracts/modules/InfinityPool.sol\":8942:8953  userIncomes */\n      0x10\n        /* \"contracts/modules/InfinityPool.sol\":102:13831  contract InfinityPool is Storage {... */\n      0x20\n      mstore\n        /* \"contracts/modules/InfinityPool.sol\":9183:9200  inc.boosterIncome */\n      0x08\n        /* \"contracts/modules/InfinityPool.sol\":102:13831  contract InfinityPool is Storage {... */\n      keccak256(0x00, 0x40)\n        /* \"contracts/modules/InfinityPool.sol\":9183:9200  inc.boosterIncome */\n      add\n        /* \"contracts/modules/InfinityPool.sol\":9183:9210  inc.boosterIncome += amount */\n      tag_557\n        /* \"contracts/modules/InfinityPool.sol\":102:13831  contract InfinityPool is Storage {... */\n      dup5\n      dup3\n      sload\n        /* \"contracts/modules/InfinityPool.sol\":9183:9210  inc.boosterIncome += amount */\n      tag_15\n      jump\t// in\n    tag_557:\n        /* \"contracts/modules/InfinityPool.sol\":102:13831  contract InfinityPool is Storage {... */\n      swap1\n      sstore\n        /* \"contracts/modules/InfinityPool.sol\":9669:9671  95 */\n      0x5f\n        /* \"contracts/modules/InfinityPool.sol\":102:13831  contract InfinityPool is Storage {... */\n      dup4\n      mul\n      swap2\n      dup4\n      iszero\n      swap3\n      dup5\n      dup2\n      div\n        /* \"contracts/modules/InfinityPool.sol\":9669:9671  95 */\n      0x5f\n        /* \"contracts/modules/InfinityPool.sol\":102:13831  contract InfinityPool is Storage {... */\n      eq\n      dup5\n      or\n      iszero\n      tag_208\n      jumpi\n      0x00\n      dup3\n      dup2\n      mstore\n        /* \"contracts/modules/Storage.sol\":13745:13750  users */\n      0x0f\n        /* \"contracts/modules/InfinityPool.sol\":102:13831  contract InfinityPool is Storage {... */\n      0x20\n      mstore\n      0x40\n      swap1\n      keccak256\n      sload\n      sub(shl(0xa0, 0x01), 0x01)\n      and\n      swap1\n        /* \"contracts/modules/InfinityPool.sol\":9674:9677  100 */\n      0x64\n        /* \"contracts/modules/InfinityPool.sol\":102:13831  contract InfinityPool is Storage {... */\n      swap1\n      div\n        /* \"contracts/modules/Storage.sol\":13823:13848  userAddress != address(0) */\n      dup2\n      iszero\n        /* \"contracts/modules/InfinityPool.sol\":102:13831  contract InfinityPool is Storage {... */\n      tag_513\n      jumpi\n        /* \"contracts/modules/Storage.sol\":13884:13895  _amount > 0 */\n      dup1\n      iszero\n        /* \"contracts/modules/InfinityPool.sol\":102:13831  contract InfinityPool is Storage {... */\n      tag_515\n      jumpi\n      dup3\n      0x00\n      mstore\n        /* \"contracts/modules/InfinityPool.sol\":8942:8953  userIncomes */\n      0x10\n        /* \"contracts/modules/InfinityPool.sol\":102:13831  contract InfinityPool is Storage {... */\n      0x20\n      mstore\n        /* \"contracts/modules/InfinityPool.sol\":9183:9200  inc.boosterIncome */\n      0x08\n        /* \"contracts/modules/InfinityPool.sol\":102:13831  contract InfinityPool is Storage {... */\n      keccak256(0x00, 0x40)\n        /* \"contracts/modules/Storage.sol\":14187:14216  income.totalIncome += _amount */\n      tag_564\n        /* \"contracts/modules/InfinityPool.sol\":102:13831  contract InfinityPool is Storage {... */\n      dup4\n      dup3\n      sload\n        /* \"contracts/modules/Storage.sol\":14187:14216  income.totalIncome += _amount */\n      tag_15\n      jump\t// in\n    tag_564:\n        /* \"contracts/modules/InfinityPool.sol\":102:13831  contract InfinityPool is Storage {... */\n      dup2\n      sstore\n        /* \"contracts/modules/Storage.sol\":14798:14818  income.boosterIncome */\n      add\n        /* \"contracts/modules/Storage.sol\":14798:14829  income.boosterIncome += _amount */\n      tag_565\n        /* \"contracts/modules/InfinityPool.sol\":102:13831  contract InfinityPool is Storage {... */\n      dup3\n      dup3\n      sload\n        /* \"contracts/modules/Storage.sol\":14798:14829  income.boosterIncome += _amount */\n      tag_15\n      jump\t// in\n    tag_565:\n        /* \"contracts/modules/InfinityPool.sol\":102:13831  contract InfinityPool is Storage {... */\n      swap1\n      sstore\n      sload(0x01)\n        /* \"contracts/modules/Storage.sol\":15214:15221  _amount */\n      tag_566\n      swap1\n        /* \"contracts/modules/InfinityPool.sol\":102:13831  contract InfinityPool is Storage {... */\n      dup3\n      swap1\n      dup5\n      swap1\n      sub(shl(0xa0, 0x01), 0x01)\n      and\n        /* \"contracts/modules/Storage.sol\":15214:15221  _amount */\n      tag_28\n      jump\t// in\n    tag_566:\n        /* \"contracts/modules/InfinityPool.sol\":102:13831  contract InfinityPool is Storage {... */\n      mload(0x40)\n      swap1\n      dup2\n      mstore\n        /* \"contracts/modules/InfinityPool.sol\":12291:12292  1 */\n      0x01\n        /* \"contracts/modules/InfinityPool.sol\":102:13831  contract InfinityPool is Storage {... */\n      0x20\n      dup3\n      add\n      mstore\n        /* \"contracts/modules/InfinityPool.sol\":12432:12654  UserBooster({... */\n      0x80\n        /* \"contracts/modules/InfinityPool.sol\":102:13831  contract InfinityPool is Storage {... */\n      dup2\n        /* \"contracts/modules/InfinityPool.sol\":9239:9257  IncomeType.Booster */\n      0x06\n        /* \"contracts/modules/InfinityPool.sol\":102:13831  contract InfinityPool is Storage {... */\n      0x40\n        /* \"contracts/modules/Storage.sol\":15238:15345  IncomeDistribution(userAddress, _userId, _fromUserId, _amount,_packageLevel, _incomeType, block.timestamp ) */\n      0x4d634c31300b97dad99b3af799178230163d88ad306370d063be9cd992d0be7f\n        /* \"contracts/modules/InfinityPool.sol\":102:13831  contract InfinityPool is Storage {... */\n      swap5\n      add\n      mstore\n        /* \"contracts/modules/InfinityPool.sol\":12623:12638  block.timestamp */\n      timestamp\n        /* \"contracts/modules/InfinityPool.sol\":12432:12654  UserBooster({... */\n      0x60\n        /* \"contracts/modules/InfinityPool.sol\":102:13831  contract InfinityPool is Storage {... */\n      dup3\n      add\n      mstore\n        /* \"contracts/modules/Storage.sol\":15238:15345  IncomeDistribution(userAddress, _userId, _fromUserId, _amount,_packageLevel, _incomeType, block.timestamp ) */\n      log4\n        /* \"contracts/modules/InfinityPool.sol\":9037:9052  IncomeType.Pool */\n      0x05\n        /* \"contracts/modules/InfinityPool.sol\":102:13831  contract InfinityPool is Storage {... */\n      dup3\n      mul\n      swap2\n      dup3\n      div\n        /* \"contracts/modules/InfinityPool.sol\":9037:9052  IncomeType.Pool */\n      0x05\n        /* \"contracts/modules/InfinityPool.sol\":102:13831  contract InfinityPool is Storage {... */\n      eq\n      or\n      iszero\n      tag_208\n      jumpi\n        /* \"contracts/modules/InfinityPool.sol\":9674:9677  100 */\n      0x64\n        /* \"contracts/modules/InfinityPool.sol\":9829:9845  (amount*5) / 100 */\n      tag_498\n        /* \"contracts/modules/InfinityPool.sol\":102:13831  contract InfinityPool is Storage {... */\n      swap2\n      div\n        /* \"contracts/modules/InfinityPool.sol\":9829:9845  (amount*5) / 100 */\n      tag_26\n      jump\t// in\n        /* \"contracts/modules/InfinityPool.sol\":13545:13790  if( userB.bonusCount<3)... */\n    tag_553:\n        /* \"contracts/modules/InfinityPool.sol\":13744:13756  packagePrice */\n      pop\n      pop\n      pop\n      tag_498\n      swap1\n      tag_26\n      jump\t// in\n        /* \"contracts/modules/InfinityPool.sol\":13343:13384  parentId == 0 || parentId == defaultRefId */\n    tag_549:\n        /* \"contracts/modules/InfinityPool.sol\":102:13831  contract InfinityPool is Storage {... */\n      pop\n        /* \"contracts/modules/InfinityPool.sol\":13372:13384  defaultRefId */\n      0x05\n        /* \"contracts/modules/InfinityPool.sol\":102:13831  contract InfinityPool is Storage {... */\n      sload\n        /* \"contracts/modules/InfinityPool.sol\":13360:13384  parentId == defaultRefId */\n      dup4\n      eq\n        /* \"contracts/modules/InfinityPool.sol\":13343:13384  parentId == 0 || parentId == defaultRefId */\n      jump(tag_550)\n        /* \"contracts/modules/InfinityPool.sol\":12741:13325  if(poolId == 1  ){... */\n    tag_547:\n        /* \"contracts/modules/InfinityPool.sol\":102:13831  contract InfinityPool is Storage {... */\n      dup2\n      0x00\n      mstore\n        /* \"contracts/modules/InfinityPool.sol\":12795:12800  users */\n      0x0f\n        /* \"contracts/modules/InfinityPool.sol\":102:13831  contract InfinityPool is Storage {... */\n      0x20\n      mstore\n      keccak256(0x00, 0x40)\n      mload(0x40)\n      swap1\n      0x02c0\n      dup3\n      add\n      dup3\n      dup2\n      lt\n      0xffffffffffffffff\n      dup3\n      gt\n      or\n      tag_286\n      jumpi\n      0x40\n      mstore\n      dup1\n      sload\n      sub(shl(0xa0, 0x01), 0x01)\n      and\n      dup3\n      mstore\n      0x01\n      dup2\n      add\n      dup1\n      sload\n      0xffffffffffffffff\n      dup2\n      gt\n      tag_286\n      jumpi\n      mload(0x40)\n      swap2\n      tag_578\n      0x20\n      dup4\n      0x05\n      shl\n      add\n      dup5\n      tag_12\n      jump\t// in\n    tag_578:\n      dup2\n      dup4\n      mstore\n      0x20\n      dup4\n      add\n      swap1\n      0x00\n      mstore\n      keccak256(0x00, 0x20)\n      0x00\n      swap2\n    tag_579:\n      dup4\n      dup4\n      lt\n      tag_580\n      jumpi\n      pop\n      pop\n      pop\n      pop\n      0x20\n      dup4\n      add\n      mstore\n      0x02\n      dup2\n      add\n      sload\n      0x40\n      dup4\n      add\n      mstore\n      0x03\n      dup2\n      add\n      sload\n        /* \"contracts/modules/InfinityPool.sol\":12432:12654  UserBooster({... */\n      0x60\n        /* \"contracts/modules/InfinityPool.sol\":102:13831  contract InfinityPool is Storage {... */\n      dup4\n      add\n      mstore\n      0x04\n      dup2\n      add\n      sload\n      swap2\n        /* \"contracts/modules/InfinityPool.sol\":12432:12654  UserBooster({... */\n      0x80\n        /* \"contracts/modules/InfinityPool.sol\":102:13831  contract InfinityPool is Storage {... */\n      dup2\n      add\n      swap3\n      dup4\n      mstore\n      0x05\n      dup3\n      add\n      sload\n      0xa0\n      dup3\n      add\n      mstore\n      0x06\n      dup3\n      add\n      sload\n      0xc0\n      dup3\n      add\n      mstore\n      0x07\n      dup3\n      add\n      sload\n      0xe0\n      dup3\n      add\n      mstore\n      0x08\n      dup3\n      add\n      sload\n      0x0100\n      dup3\n      add\n      mstore\n      0x09\n      dup3\n      add\n      sload\n      0x0120\n      dup3\n      add\n      mstore\n      0x0a\n      dup3\n      add\n      sload\n      0x0140\n      dup3\n      add\n      mstore\n      0x0b\n      dup3\n      add\n      sload\n      0x0160\n      dup3\n      add\n      mstore\n      0x0c\n      dup3\n      add\n      sload\n      0x0180\n      dup3\n      add\n      mstore\n      0x0d\n      dup3\n      add\n      sload\n      0x01a0\n      dup3\n      add\n      mstore\n      0x0e\n      dup3\n      add\n      sload\n      0x01c0\n      dup3\n      add\n      mstore\n        /* \"contracts/modules/InfinityPool.sol\":12795:12800  users */\n      0x0f\n        /* \"contracts/modules/InfinityPool.sol\":102:13831  contract InfinityPool is Storage {... */\n      dup3\n      add\n      sload\n      0x01e0\n      dup3\n      add\n      mstore\n      0x10\n      dup3\n      add\n      sload\n      0x0200\n      dup3\n      add\n      mstore\n      0x02a0\n      0x15\n      0x11\n      dup5\n      add\n      sload\n      swap4\n      0x0220\n      dup5\n      add\n      swap5\n      dup6\n      mstore\n      0x12\n      dup2\n      add\n      sload\n      0x0240\n      dup6\n      add\n      mstore\n      0x13\n      dup2\n      add\n      sload\n      0x0260\n      dup6\n      add\n      mstore\n      0x14\n      dup2\n      add\n      sload\n      0x0280\n      dup6\n      add\n      mstore\n      add\n      sload\n      swap2\n      add\n      mstore\n        /* \"contracts/modules/InfinityPool.sol\":12845:12863  currentWeeklyRound */\n      0x38\n        /* \"contracts/modules/InfinityPool.sol\":102:13831  contract InfinityPool is Storage {... */\n      sload\n      0x00\n      mstore\n        /* \"contracts/modules/InfinityPool.sol\":12827:12844  weeklyUserDirects */\n      0x3e\n        /* \"contracts/modules/InfinityPool.sol\":102:13831  contract InfinityPool is Storage {... */\n      0x20\n      mstore\n      keccak256(0x00, 0x40)\n      dup3\n      mload\n      0x00\n      mstore\n      0x20\n      mstore\n        /* \"contracts/modules/InfinityPool.sol\":12827:12900  weeklyUserDirects[currentWeeklyRound][userdtl.sponsorId].push(userMainId) */\n      tag_582\n        /* \"contracts/modules/InfinityPool.sol\":102:13831  contract InfinityPool is Storage {... */\n      dup5\n      keccak256(0x00, 0x40)\n        /* \"contracts/modules/InfinityPool.sol\":12827:12900  weeklyUserDirects[currentWeeklyRound][userdtl.sponsorId].push(userMainId) */\n      tag_21\n      jump\t// in\n    tag_582:\n        /* \"contracts/modules/InfinityPool.sol\":12845:12863  currentWeeklyRound */\n      0x38\n        /* \"contracts/modules/InfinityPool.sol\":102:13831  contract InfinityPool is Storage {... */\n      sload\n      swap1\n      dup2\n      0x00\n      mstore\n        /* \"contracts/modules/InfinityPool.sol\":12827:12844  weeklyUserDirects */\n      0x3e\n        /* \"contracts/modules/InfinityPool.sol\":102:13831  contract InfinityPool is Storage {... */\n      0x20\n      mstore\n      keccak256(0x00, 0x40)\n      dup4\n      mload\n      0x00\n      mstore\n      0x20\n      mstore\n      sload(keccak256(0x00, 0x40))\n      swap1\n      mload\n      swap2\n        /* \"contracts/modules/Storage.sol\":731:737  1 days */\n      0x015180\n        /* \"contracts/modules/InfinityPool.sol\":102:13831  contract InfinityPool is Storage {... */\n      dup4\n      add\n      dup1\n      swap4\n      gt\n      tag_208\n      jumpi\n      0x05\n        /* \"contracts/modules/InfinityPool.sol\":12623:12638  block.timestamp */\n      swap3\n      timestamp\n      gt\n        /* \"contracts/modules/InfinityPool.sol\":13018:13073  userdtl.registrationTime + TIME_STEP >= block.timestamp */\n      iszero\n        /* \"contracts/modules/InfinityPool.sol\":13015:13165  if(userdtl.registrationTime + TIME_STEP >= block.timestamp){... */\n      tag_585\n      jumpi\n        /* \"contracts/modules/InfinityPool.sol\":102:13831  contract InfinityPool is Storage {... */\n    tag_586:\n        /* \"contracts/modules/InfinityPool.sol\":13183:13200  directsCount >= 5 */\n      pop\n      lt\n      iszero\n        /* \"contracts/modules/InfinityPool.sol\":13179:13300  if( directsCount >= 5){... */\n      tag_587\n      jumpi\n        /* \"contracts/modules/InfinityPool.sol\":102:13831  contract InfinityPool is Storage {... */\n    tag_588:\n        /* \"contracts/modules/InfinityPool.sol\":12741:13325  if(poolId == 1  ){... */\n      pop\n      jump(tag_548)\n        /* \"contracts/modules/InfinityPool.sol\":13179:13300  if( directsCount >= 5){... */\n    tag_587:\n        /* \"contracts/modules/InfinityPool.sol\":102:13831  contract InfinityPool is Storage {... */\n      mload\n        /* \"contracts/modules/InfinityPool.sol\":12845:12863  currentWeeklyRound */\n      0x38\n        /* \"contracts/modules/InfinityPool.sol\":102:13831  contract InfinityPool is Storage {... */\n      sload\n        /* \"contracts/modules/InfinityPool.sol\":13265:13283  currentWeeklyRound */\n      tag_589\n      swap2\n      tag_25\n      jump\t// in\n    tag_589:\n        /* \"contracts/modules/InfinityPool.sol\":13179:13300  if( directsCount >= 5){... */\n      0x00\n      jump(tag_588)\n        /* \"contracts/modules/InfinityPool.sol\":13015:13165  if(userdtl.registrationTime + TIME_STEP >= block.timestamp){... */\n    tag_585:\n        /* \"contracts/modules/InfinityPool.sol\":13130:13148  currentWeeklyRound */\n      tag_590\n      swap1\n      dup7\n      tag_25\n      jump\t// in\n    tag_590:\n        /* \"contracts/modules/InfinityPool.sol\":13015:13165  if(userdtl.registrationTime + TIME_STEP >= block.timestamp){... */\n      0x00\n      jump(tag_586)\n        /* \"contracts/modules/InfinityPool.sol\":102:13831  contract InfinityPool is Storage {... */\n    tag_580:\n      0x04\n      0x20\n        /* \"contracts/modules/InfinityPool.sol\":12291:12292  1 */\n      0x01\n        /* \"contracts/modules/InfinityPool.sol\":102:13831  contract InfinityPool is Storage {... */\n      swap3\n      mload(0x40)\n      tag_591\n      dup2\n      tag_10\n      jump\t// in\n    tag_591:\n      dup6\n      sload\n      dup2\n      mstore\n      dup5\n      dup7\n      add\n      sload\n      dup4\n      dup3\n      add\n      mstore\n      0x02\n      dup7\n      add\n      sload\n      0x40\n      dup3\n      add\n      mstore\n      0xff\n      0x03\n      dup8\n      add\n      sload\n      and\n        /* \"contracts/modules/InfinityPool.sol\":12432:12654  UserBooster({... */\n      0x60\n        /* \"contracts/modules/InfinityPool.sol\":102:13831  contract InfinityPool is Storage {... */\n      dup3\n      add\n      mstore\n      dup2\n      mstore\n      add\n      swap3\n      add\n      swap3\n      add\n      swap2\n      swap1\n      jump(tag_579)\n        /* \"contracts/modules/Storage.sol\":15474:15699  function _tryWeeklyContestQualify(uint _userId, uint _roundId)internal {... */\n    tag_25:\n      swap1\n        /* \"contracts/modules/InfinityPool.sol\":102:13831  contract InfinityPool is Storage {... */\n      dup1\n      0x00\n      mstore\n        /* \"contracts/modules/Storage.sol\":15565:15578  weeklyUserdtl */\n      0x3d\n        /* \"contracts/modules/InfinityPool.sol\":102:13831  contract InfinityPool is Storage {... */\n      0x20\n      mstore\n      keccak256(0x00, 0x40)\n      dup3\n      0x00\n      mstore\n      0x20\n      mstore\n      0xff\n        /* \"contracts/modules/Storage.sol\":15565:15609  weeklyUserdtl[_roundId][_userId].isQualified */\n      0x03\n        /* \"contracts/modules/InfinityPool.sol\":102:13831  contract InfinityPool is Storage {... */\n      keccak256(0x00, 0x40)\n        /* \"contracts/modules/Storage.sol\":15565:15609  weeklyUserdtl[_roundId][_userId].isQualified */\n      add\n        /* \"contracts/modules/InfinityPool.sol\":102:13831  contract InfinityPool is Storage {... */\n      sload\n      0x08\n      shr\n      and\n        /* \"contracts/modules/Storage.sol\":15564:15609  !weeklyUserdtl[_roundId][_userId].isQualified */\n      iszero\n        /* \"contracts/modules/Storage.sol\":15560:15692  if (!weeklyUserdtl[_roundId][_userId].isQualified) {... */\n      tag_592\n      jumpi\n        /* \"contracts/modules/Storage.sol\":15474:15699  function _tryWeeklyContestQualify(uint _userId, uint _roundId)internal {... */\n      pop\n      pop\n      jump\t// out\n        /* \"contracts/modules/Storage.sol\":15560:15692  if (!weeklyUserdtl[_roundId][_userId].isQualified) {... */\n    tag_592:\n        /* \"contracts/modules/Storage.sol\":15667:15675  _roundId */\n      tag_498\n      swap2\n      tag_27\n      jump\t// in\n        /* \"contracts/modules/Storage.sol\":12825:13580  function _sendToCreator(uint _amount) internal {... */\n    tag_26:\n        /* \"contracts/modules/Storage.sol\":12887:12900  creatorWallet */\n      0x02\n        /* \"contracts/modules/InfinityPool.sol\":102:13831  contract InfinityPool is Storage {... */\n      sload\n      sub(shl(0xa0, 0x01), 0x01)\n      and\n      swap1\n        /* \"contracts/modules/Storage.sol\":12887:12914  creatorWallet != address(0) */\n      dup2\n      iszero\n        /* \"contracts/modules/InfinityPool.sol\":102:13831  contract InfinityPool is Storage {... */\n      tag_595\n      jumpi\n      sload(0x01)\n      0x80\n      swap3\n        /* \"contracts/modules/Storage.sol\":13066:13073  _amount */\n      tag_597\n      swap2\n        /* \"contracts/modules/InfinityPool.sol\":102:13831  contract InfinityPool is Storage {... */\n      dup4\n      swap2\n      swap1\n      sub(shl(0xa0, 0x01), 0x01)\n      and\n        /* \"contracts/modules/Storage.sol\":13066:13073  _amount */\n      tag_28\n      jump\t// in\n    tag_597:\n        /* \"contracts/modules/Storage.sol\":13181:13193  defaultRefId */\n      0x05\n        /* \"contracts/modules/InfinityPool.sol\":102:13831  contract InfinityPool is Storage {... */\n      sload\n      0x00\n      mstore\n        /* \"contracts/modules/Storage.sol\":13169:13180  userIncomes */\n      0x10\n        /* \"contracts/modules/InfinityPool.sol\":102:13831  contract InfinityPool is Storage {... */\n      0x20\n      mstore\n      keccak256(0x00, 0x40)\n        /* \"contracts/modules/Storage.sol\":13201:13237  creatorIncome.totalIncome += _amount */\n      tag_598\n        /* \"contracts/modules/InfinityPool.sol\":102:13831  contract InfinityPool is Storage {... */\n      dup3\n      dup3\n      sload\n        /* \"contracts/modules/Storage.sol\":13201:13237  creatorIncome.totalIncome += _amount */\n      tag_15\n      jump\t// in\n    tag_598:\n        /* \"contracts/modules/InfinityPool.sol\":102:13831  contract InfinityPool is Storage {... */\n      swap1\n      sstore\n      0x01\n      dup1\n      0xa0\n      shl\n      sub\n        /* \"contracts/modules/Storage.sol\":12887:12900  creatorWallet */\n      0x02\n        /* \"contracts/modules/InfinityPool.sol\":102:13831  contract InfinityPool is Storage {... */\n      sload\n      and\n        /* \"contracts/modules/Storage.sol\":13465:13576  IncomeDistribution(creatorWallet, defaultRefId, defaultRefId, _amount, 0, IncomeType.Creator, block.timestamp ) */\n      0x4d634c31300b97dad99b3af799178230163d88ad306370d063be9cd992d0be7f\n        /* \"contracts/modules/Storage.sol\":13181:13193  defaultRefId */\n      0x05\n        /* \"contracts/modules/InfinityPool.sol\":102:13831  contract InfinityPool is Storage {... */\n      sload\n      swap4\n      dup5\n      swap4\n      mload(0x40)\n      swap1\n      dup2\n      mstore\n      0x00\n      0x20\n      dup3\n      add\n      mstore\n      0x00\n      0x40\n      dup3\n      add\n      mstore\n        /* \"contracts/modules/Storage.sol\":13559:13574  block.timestamp */\n      timestamp\n        /* \"contracts/modules/InfinityPool.sol\":102:13831  contract InfinityPool is Storage {... */\n      0x60\n      dup3\n      add\n      mstore\n        /* \"contracts/modules/Storage.sol\":13465:13576  IncomeDistribution(creatorWallet, defaultRefId, defaultRefId, _amount, 0, IncomeType.Creator, block.timestamp ) */\n      log4\n        /* \"contracts/modules/Storage.sol\":12825:13580  function _sendToCreator(uint _amount) internal {... */\n      jump\t// out\n        /* \"contracts/modules/InfinityPool.sol\":102:13831  contract InfinityPool is Storage {... */\n    tag_595:\n      mload(0x40)\n      shl(0xe5, 0x461bcd)\n      dup2\n      mstore\n      0x20\n      0x04\n      dup3\n      add\n      mstore\n      0x11\n      0x24\n      dup3\n      add\n      mstore\n      shl(0x7a, 0x199959481859191c9cc81b9bdd081cd95d)\n      0x44\n      dup3\n      add\n      mstore\n      0x64\n      swap1\n      revert\n        /* \"contracts/modules/Storage.sol\":15707:17185  function _weeklyContestQualifier(uint _userId, uint _roundId)internal {... */\n    tag_27:\n        /* \"contracts/modules/Storage.sol\":15876:15894  currentWeeklyRound */\n      0x38\n        /* \"contracts/modules/InfinityPool.sol\":102:13831  contract InfinityPool is Storage {... */\n      sload\n        /* \"contracts/modules/Storage.sol\":15864:15894  _roundId == currentWeeklyRound */\n      dup3\n      sub\n        /* \"contracts/modules/InfinityPool.sol\":102:13831  contract InfinityPool is Storage {... */\n      tag_599\n      jumpi\n      dup2\n      0x00\n      mstore\n        /* \"contracts/modules/Storage.sol\":15932:15948  weeklyContestdtl */\n      0x3b\n        /* \"contracts/modules/InfinityPool.sol\":102:13831  contract InfinityPool is Storage {... */\n      0x20\n      mstore\n      0xff\n        /* \"contracts/modules/Storage.sol\":15932:15965  weeklyContestdtl[_roundId].closed */\n      0x08\n        /* \"contracts/modules/InfinityPool.sol\":102:13831  contract InfinityPool is Storage {... */\n      keccak256(0x00, 0x40)\n        /* \"contracts/modules/Storage.sol\":15932:15965  weeklyContestdtl[_roundId].closed */\n      add\n        /* \"contracts/modules/InfinityPool.sol\":102:13831  contract InfinityPool is Storage {... */\n      sload\n      and\n      tag_601\n      jumpi\n      0x00\n      dup2\n      dup2\n      mstore\n      mstore(0x20, 0x7fb70d3b53b50f6798636307bc089a811f848f8c80c93eb14575305275478318)\n      0x40\n      swap1\n      dup2\n      swap1\n      keccak256\n      swap1\n      mload\n      swap1\n      0x04\n      swap1\n      tag_603\n      dup4\n      tag_11\n      jump\t// in\n    tag_603:\n      dup1\n      sload\n      dup4\n      mstore\n        /* \"contracts/modules/Storage.sol\":16048:16049  1 */\n      0x01\n        /* \"contracts/modules/InfinityPool.sol\":102:13831  contract InfinityPool is Storage {... */\n      dup2\n      add\n      sload\n      0x20\n      dup5\n      add\n      mstore\n      0x02\n      dup2\n      add\n      sload\n      0x40\n      dup5\n      add\n      mstore\n      0x03\n      dup2\n      add\n      sload\n      0x60\n      dup5\n      add\n      mstore\n      add\n      sload\n      0x80\n      dup3\n      add\n      swap1\n      dup2\n      mstore\n      dup4\n      0x00\n      mstore\n        /* \"contracts/modules/Storage.sol\":16096:16113  weeklyUserDirects */\n      0x3e\n        /* \"contracts/modules/InfinityPool.sol\":102:13831  contract InfinityPool is Storage {... */\n      0x20\n      mstore\n      keccak256(0x00, 0x40)\n      dup4\n      0x00\n      mstore\n      0x20\n      mstore\n      dup3\n        /* \"contracts/modules/Storage.sol\":16143:16144  5 */\n      0x05\n        /* \"contracts/modules/InfinityPool.sol\":102:13831  contract InfinityPool is Storage {... */\n      sload(keccak256(0x00, 0x40))\n        /* \"contracts/modules/Storage.sol\":16096:16144  weeklyUserDirects[_roundId][_userId].length >= 5 */\n      lt\n        /* \"contracts/modules/InfinityPool.sol\":102:13831  contract InfinityPool is Storage {... */\n      swap3\n      mload\n        /* \"contracts/modules/Storage.sol\":16194:16226  userBoosterJoinDtl.id == _userId */\n      eq\n        /* \"contracts/modules/Storage.sol\":16194:16318  userBoosterJoinDtl.id == _userId && ... */\n      swap1\n      dup2\n      tag_604\n      jumpi\n        /* \"contracts/modules/Storage.sol\":15707:17185  function _weeklyContestQualifier(uint _userId, uint _roundId)internal {... */\n    tag_605:\n        /* \"contracts/modules/Storage.sol\":16096:16144  weeklyUserDirects[_roundId][_userId].length >= 5 */\n      pop\n      dup2\n      iszero\n        /* \"contracts/modules/Storage.sol\":16348:16384  hasEnoughDirects || boosterEarlyJoin */\n      swap2\n      tag_606\n      jumpi\n        /* \"contracts/modules/Storage.sol\":15707:17185  function _weeklyContestQualifier(uint _userId, uint _roundId)internal {... */\n    tag_607:\n        /* \"contracts/modules/InfinityPool.sol\":102:13831  contract InfinityPool is Storage {... */\n      pop\n      iszero\n      tag_608\n      jumpi\n      dup2\n      0x00\n      mstore\n        /* \"contracts/modules/Storage.sol\":16785:16798  weeklyUserdtl */\n      0x3d\n        /* \"contracts/modules/InfinityPool.sol\":102:13831  contract InfinityPool is Storage {... */\n      0x20\n      mstore\n      keccak256(0x00, 0x40)\n      dup2\n      0x00\n      mstore\n      0x20\n      mstore\n      keccak256(0x00, 0x40)\n        /* \"contracts/modules/Storage.sol\":16832:16857  weeklyuserdtl.isQualified */\n      swap2\n        /* \"contracts/modules/InfinityPool.sol\":102:13831  contract InfinityPool is Storage {... */\n      0x03\n        /* \"contracts/modules/Storage.sol\":16832:16857  weeklyuserdtl.isQualified */\n      dup4\n      add\n        /* \"contracts/modules/InfinityPool.sol\":102:13831  contract InfinityPool is Storage {... */\n      swap2\n      dup3\n      sload\n      swap3\n      0xff\n      dup5\n        /* \"contracts/modules/Storage.sol\":15932:15965  weeklyContestdtl[_roundId].closed */\n      0x08\n        /* \"contracts/modules/InfinityPool.sol\":102:13831  contract InfinityPool is Storage {... */\n      shr\n      and\n        /* \"contracts/modules/Storage.sol\":16828:16866  if (weeklyuserdtl.isQualified) return; */\n      tag_610\n      jumpi\n        /* \"contracts/modules/InfinityPool.sol\":102:13831  contract InfinityPool is Storage {... */\n      0x0100\n      0x60\n      swap5\n      dup5\n        /* \"contracts/modules/Storage.sol\":16048:16049  1 */\n      0x01\n        /* \"contracts/modules/Storage.sol\":17127:17177  WeeklyContestQualified(_roundId, _userId, nowTime) */\n      0x360cb96d3e85b4fc299ddfa9a572850fc70961c86f0f1703f033143b0e5a82cf\n        /* \"contracts/modules/InfinityPool.sol\":102:13831  contract InfinityPool is Storage {... */\n      swap9\n        /* \"contracts/modules/Storage.sol\":16960:16975  block.timestamp */\n      timestamp\n        /* \"contracts/modules/InfinityPool.sol\":102:13831  contract InfinityPool is Storage {... */\n      dup2\n      sstore\n        /* \"contracts/modules/Storage.sol\":17031:17052  weeklyuserdtl.roundId */\n      add\n        /* \"contracts/modules/InfinityPool.sol\":102:13831  contract InfinityPool is Storage {... */\n      sstore\n      not(0xff00)\n      and\n      or\n      swap1\n      sstore\n      mload(0x40)\n      swap2\n      dup3\n      mstore\n      0x20\n      dup3\n      add\n      mstore\n        /* \"contracts/modules/Storage.sol\":16960:16975  block.timestamp */\n      timestamp\n        /* \"contracts/modules/InfinityPool.sol\":102:13831  contract InfinityPool is Storage {... */\n      0x40\n      dup3\n      add\n      mstore\n        /* \"contracts/modules/Storage.sol\":17127:17177  WeeklyContestQualified(_roundId, _userId, nowTime) */\n      log1\n        /* \"contracts/modules/Storage.sol\":15707:17185  function _weeklyContestQualifier(uint _userId, uint _roundId)internal {... */\n      jump\t// out\n        /* \"contracts/modules/Storage.sol\":16828:16866  if (weeklyuserdtl.isQualified) return; */\n    tag_610:\n        /* \"contracts/modules/Storage.sol\":16859:16866  return; */\n      pop\n      pop\n      pop\n      pop\n      pop\n      jump\t// out\n        /* \"contracts/modules/InfinityPool.sol\":102:13831  contract InfinityPool is Storage {... */\n    tag_608:\n      mload(0x40)\n      shl(0xe5, 0x461bcd)\n      dup2\n      mstore\n      0x20\n      0x04\n      dup3\n      add\n      mstore\n      0x1f\n      0x24\n      dup3\n      add\n      mstore\n      0x4e6f7420656c696769626c6520666f72207765656b6c7920636f6e7465737400\n      0x44\n      dup3\n      add\n      mstore\n      0x64\n      swap1\n      revert\n        /* \"contracts/modules/Storage.sol\":16348:16384  hasEnoughDirects || boosterEarlyJoin */\n    tag_606:\n      swap1\n      pop\n      0x00\n      jump(tag_607)\n        /* \"contracts/modules/Storage.sol\":16194:16318  userBoosterJoinDtl.id == _userId && ... */\n    tag_604:\n        /* \"contracts/modules/InfinityPool.sol\":102:13831  contract InfinityPool is Storage {... */\n      swap1\n      pop\n      mload\n      dup3\n      0x00\n      mstore\n        /* \"contracts/modules/Storage.sol\":16275:16280  users */\n      0x0f\n        /* \"contracts/modules/InfinityPool.sol\":102:13831  contract InfinityPool is Storage {... */\n      0x20\n      mstore\n        /* \"contracts/modules/Storage.sol\":16275:16306  users[_userId].registrationTime */\n      0x11\n        /* \"contracts/modules/InfinityPool.sol\":102:13831  contract InfinityPool is Storage {... */\n      keccak256(0x00, 0x40)\n        /* \"contracts/modules/Storage.sol\":16275:16306  users[_userId].registrationTime */\n      add\n        /* \"contracts/modules/InfinityPool.sol\":102:13831  contract InfinityPool is Storage {... */\n      sload\n      swap1\n        /* \"contracts/modules/Storage.sol\":731:737  1 days */\n      0x015180\n        /* \"contracts/modules/InfinityPool.sol\":102:13831  contract InfinityPool is Storage {... */\n      dup3\n      add\n      dup1\n      swap3\n      gt\n      tag_208\n      jumpi\n        /* \"contracts/modules/Storage.sol\":16244:16318  userBoosterJoinDtl.joinTime <= users[_userId].registrationTime + TIME_STEP */\n      gt\n      iszero\n        /* \"contracts/modules/Storage.sol\":16194:16318  userBoosterJoinDtl.id == _userId && ... */\n      0x00\n      jump(tag_605)\n        /* \"contracts/modules/InfinityPool.sol\":102:13831  contract InfinityPool is Storage {... */\n    tag_601:\n      mload(0x40)\n      shl(0xe5, 0x461bcd)\n      dup2\n      mstore\n      0x20\n      0x04\n      dup3\n      add\n      mstore\n      0x0c\n      0x24\n      dup3\n      add\n      mstore\n      shl(0xa2, 0x149bdd5b990818db1bdcd959)\n      0x44\n      dup3\n      add\n      mstore\n      0x64\n      swap1\n      revert\n    tag_599:\n      mload(0x40)\n      shl(0xe5, 0x461bcd)\n      dup2\n      mstore\n      0x20\n      0x04\n      dup3\n      add\n      mstore\n      0x0d\n      0x24\n      dup3\n      add\n      mstore\n      shl(0x9a, 0x125b9d985b1a59081c9bdd5b99)\n      0x44\n      dup3\n      add\n      mstore\n      0x64\n      swap1\n      revert\n        /* \"@openzeppelin/contracts/token/ERC20/utils/SafeERC20.sol\":1219:1379  function safeTransfer(IERC20 token, address to, uint256 value) internal {... */\n    tag_28:\n        /* \"contracts/modules/InfinityPool.sol\":102:13831  contract InfinityPool is Storage {... */\n      mload(0x40)\n      shl(0xe0, 0xa9059cbb)\n        /* \"@openzeppelin/contracts/token/ERC20/utils/SafeERC20.sol\":1328:1371  abi.encodeCall(token.transfer, (to, value)) */\n      0x20\n      dup3\n      dup2\n      add\n      swap2\n      dup3\n      mstore\n      sub(shl(0xa0, 0x01), 0x01)\n        /* \"contracts/modules/InfinityPool.sol\":102:13831  contract InfinityPool is Storage {... */\n      swap1\n      swap5\n      and\n        /* \"@openzeppelin/contracts/token/ERC20/utils/SafeERC20.sol\":1328:1371  abi.encodeCall(token.transfer, (to, value)) */\n      0x24\n      dup4\n      add\n        /* \"contracts/modules/InfinityPool.sol\":102:13831  contract InfinityPool is Storage {... */\n      mstore\n      0x44\n      dup1\n      dup4\n      add\n      swap6\n      swap1\n      swap6\n      mstore\n        /* \"@openzeppelin/contracts/token/ERC20/utils/SafeERC20.sol\":1328:1371  abi.encodeCall(token.transfer, (to, value)) */\n      swap4\n      dup2\n      mstore\n        /* \"@openzeppelin/contracts/token/ERC20/utils/SafeERC20.sol\":1219:1379  function safeTransfer(IERC20 token, address to, uint256 value) internal {... */\n      swap1\n      swap3\n      0x00\n      swap2\n        /* \"@openzeppelin/contracts/token/ERC20/utils/SafeERC20.sol\":1328:1371  abi.encodeCall(token.transfer, (to, value)) */\n      tag_614\n      0x64\n        /* \"contracts/modules/InfinityPool.sol\":102:13831  contract InfinityPool is Storage {... */\n      dup3\n        /* \"@openzeppelin/contracts/token/ERC20/utils/SafeERC20.sol\":1328:1371  abi.encodeCall(token.transfer, (to, value)) */\n      tag_12\n      jump\t// in\n    tag_614:\n        /* \"@openzeppelin/contracts/token/ERC20/utils/SafeERC20.sol\":8507:8928  assembly (\"memory-safe\") {... */\n      mload\n      swap1\n      dup3\n      dup6\n      gas\n      call\n      iszero\n      tag_200\n      jumpi\n      mload(0x00)\n      returndatasize\n        /* \"@openzeppelin/contracts/token/ERC20/utils/SafeERC20.sol\":8942:8957  returnSize == 0 */\n      tag_617\n      jumpi\n      pop\n      sub(shl(0xa0, 0x01), 0x01)\n        /* \"contracts/modules/InfinityPool.sol\":102:13831  contract InfinityPool is Storage {... */\n      dup2\n      and\n        /* \"@openzeppelin/contracts/token/ERC20/utils/SafeERC20.sol\":8960:8986  address(token).code.length */\n      extcodesize\n        /* \"@openzeppelin/contracts/token/ERC20/utils/SafeERC20.sol\":8960:8991  address(token).code.length == 0 */\n      iszero\n        /* \"@openzeppelin/contracts/token/ERC20/utils/SafeERC20.sol\":8942:9010  returnSize == 0 ? address(token).code.length == 0 : returnValue != 1 */\n    tag_619:\n        /* \"@openzeppelin/contracts/token/ERC20/utils/SafeERC20.sol\":8938:9084  if (returnSize == 0 ? address(token).code.length == 0 : returnValue != 1) {... */\n      tag_620\n      jumpi\n        /* \"@openzeppelin/contracts/token/ERC20/utils/SafeERC20.sol\":1219:1379  function safeTransfer(IERC20 token, address to, uint256 value) internal {... */\n      pop\n      jump\t// out\n        /* \"@openzeppelin/contracts/token/ERC20/utils/SafeERC20.sol\":8938:9084  if (returnSize == 0 ? address(token).code.length == 0 : returnValue != 1) {... */\n    tag_620:\n      shl(0xe0, 0x5274afe7)\n      0x00\n        /* \"@openzeppelin/contracts/token/ERC20/utils/SafeERC20.sol\":9033:9073  SafeERC20FailedOperation(address(token)) */\n      swap1\n      dup2\n      mstore\n      sub(shl(0xa0, 0x01), 0x01)\n        /* \"contracts/modules/InfinityPool.sol\":102:13831  contract InfinityPool is Storage {... */\n      swap2\n      swap1\n      swap2\n      and\n        /* \"@openzeppelin/contracts/token/ERC20/utils/SafeERC20.sol\":9033:9073  SafeERC20FailedOperation(address(token)) */\n      0x04\n        /* \"contracts/modules/InfinityPool.sol\":102:13831  contract InfinityPool is Storage {... */\n      mstore\n        /* \"@openzeppelin/contracts/token/ERC20/utils/SafeERC20.sol\":1328:1371  abi.encodeCall(token.transfer, (to, value)) */\n      0x24\n      swap1\n        /* \"@openzeppelin/contracts/token/ERC20/utils/SafeERC20.sol\":9033:9073  SafeERC20FailedOperation(address(token)) */\n      revert\n        /* \"@openzeppelin/contracts/token/ERC20/utils/SafeERC20.sol\":8942:9010  returnSize == 0 ? address(token).code.length == 0 : returnValue != 1 */\n    tag_617:\n        /* \"@openzeppelin/contracts/token/ERC20/utils/SafeERC20.sol\":9009:9010  1 */\n      0x01\n        /* \"@openzeppelin/contracts/token/ERC20/utils/SafeERC20.sol\":8994:9010  returnValue != 1 */\n      eq\n      iszero\n        /* \"@openzeppelin/contracts/token/ERC20/utils/SafeERC20.sol\":8942:9010  returnSize == 0 ? address(token).code.length == 0 : returnValue != 1 */\n      jump(tag_619)\n    stop\n    data_404df00f6e66bff52b1bbe26c09dc1dec3db2c9f5cc1962e398ceea85fe88b34 26adb22cec823ef144935e9fbef1b6b4a3a29dacbe5444d59292fa2620f3d377\n\n    auxdata: 0xa2646970667358221220994561b3ece918bc689eb0ccba086ce0f72c731d6270e8921782d5da605ba04f64736f6c634300081e0033\n}\n",
				"bytecode": {
					"linkReferences": {},
					"object": "60806040523461052b5760015f556040516101e081016001600160401b038111828210176105175760405267d02ab486cedc0000815268015af1d78b58c4000060208201526802b5e3af16b1880000604082015268056bc75e2d631000006060820152680ad78ebc5ac620000060808201526815af1d78b58c40000060a0820152682b5e3af16b1880000060c08201526856bc75e2d63100000060e082015268ad78ebc5ac6200000061010082015269015af1d78b58c40000006101208201526902b5e3af16b18800000061014082015269056bc75e2d6310000000610160820152690ad78ebc5ac6200000006101808201526915af1d78b58c400000006101a0820152692b5e3af16b18800000006101c0820152600d54600f600d5580600f106104c1575b50600d5f5260205f20905f5b600f81106104a45761014161052f565b680410d586a20a4c00008152681043561a8829300000602082015268410d586a20a4c0000060408201526901043561a882930000006060820152690410d586a20a4c0000006080820152691043561a88293000000060a082015269410d586a20a4c000000060c082015260155460076015558060071061044e575b5060155f5260205f20905f5b60078110610431576101d861054e565b68056bc75e2d631000008152680ad78ebc5ac620000060208201526815af1d78b58c4000006040820152682b5e3af16b1880000060608201526856bc75e2d631000000608082015268ad78ebc5ac6200000060a082015269015af1d78b58c400000060c08201526902b5e3af16b18800000060e08201526016546008601655806008106103db575b5060165f5260205f20905f5b600881106103be5761027c61052f565b60038152600560208201526007604082015260096060820152600b6080820152600d60a0820152600f60c08201525f5b600781106103a6576102bc61054e565b6004815260056020820152600660408201526007606082015260086080820152600960a0820152600a60c0820152600b60e08201525f5b6008811061038e5761030361054e565b5f815260016020820152600160408201526001606082015260016080820152600160a0820152600160c0820152600160e08201525f5b60088110610376575f6038555f6039555f603a556001603f555f6040555f60415560016046555f6047555f60485560405161217690816105858239f35b600190602060ff845116930192816026015501610339565b600190602060ff84511693019281601e0155016102f3565b600190602060ff8451169301928160170155016102ac565b81516001600160501b03168184015560209091019060010161026c565b60165f5261042b907fd833147d7dc355ba459fc788f669e58cfaf9dc25ddcd0702e87d69c7b5124289017fd833147d7dc355ba459fc788f669e58cfaf9dc25ddcd0702e87d69c7b512429161056e565b81610260565b81516001600160501b0316818401556020909101906001016101c8565b60155f5261049e907f55f448fdea98c4d29eb340757ef0a66cd03dbb9538908a6a81d96026b71ec475017f55f448fdea98c4d29eb340757ef0a66cd03dbb9538908a6a81d96026b71ec47c61056e565b816101bc565b81516001600160501b031681840155602090910190600101610131565b600d5f52610511907fd7b6990105719101dabeb77144f2a3385c8033acd3af97e9423a695e81ad1eb5017fd7b6990105719101dabeb77144f2a3385c8033acd3af97e9423a695e81ad1ec461056e565b5f610125565b634e487b7160e01b5f52604160045260245ffd5b5f80fd5b6040519060e082016001600160401b0381118382101761051757604052565b6040519061010082016001600160401b0381118382101761051757604052565b818110610579575050565b5f815560010161056e56fe6080806040526004361015610012575f80fd5b5f3560e01c90816301c234a8146110ca575080630676d0d6146110a05780632132d204146110745780632350268f1461104b57806323fd338e14610c175780632a8915341461102e5780632ae0ee0d14610f8a5780632f48ab7d146110065780633080b5bc14610fe957806331bb6a3014610fce57806332bc298c14610fb157806332fcd96614610f8f578063375b43b414610f8a57806339ab360314610f305780633a5084b314610f135780634060160a14610c6357806345cb537c14610c395780634b8cbf9b14610c1c57806358c7d35214610c175780635b62d1d514610bfa57806367d52d4d14610ba3578063705fee2d14610b8557806376f5f70014610b685780637848f0a3146109aa57806378f6ad6d1461098d5780637cdc65f21461096557806389043ece146109365780638e222e2414610705578063956a3228146106d95780639b40ab97146106bc578063a59d17d11461069f578063a5e52b9914610682578063ae4708dc1461064a578063bc1fa7c01461041f578063bff1f9e114610402578063c216212a14610394578063c8df290814610370578063c9ed070814610353578063ca8e912114610336578063d0a2fd791461030a578063d2f0490d146102ef578063e898fc38146102d2578063e9e34a16146102aa578063ebe0ff1514610287578063ec597e6f1461026a578063f5d74d93146102425763fddc806f14610221575f80fd5b3461023e575f36600319011261023e576020603954604051908152f35b5f80fd5b3461023e575f36600319011261023e576004546040516001600160a01b039091168152602090f35b3461023e575f36600319011261023e576020600554604051908152f35b3461023e575f36600319011261023e576020604051683635c9adc5dea000008152f35b3461023e575f36600319011261023e576003546040516001600160a01b039091168152602090f35b3461023e575f36600319011261023e576020604054604051908152f35b3461023e575f36600319011261023e57602060405160058152f35b3461023e57602036600319011261023e57600435600881101561023e57602090601e0154604051908152f35b3461023e575f36600319011261023e576020603854604051908152f35b3461023e575f36600319011261023e576020603f54604051908152f35b3461023e575f36600319011261023e57602060405169021e19e0c9bab24000008152f35b3461023e57602036600319011261023e57600435600d5481101561023e57600d548110156103ee57600d5f527fd7b6990105719101dabeb77144f2a3385c8033acd3af97e9423a695e81ad1eb50154604051908152602090f35b634e487b7160e01b5f52603260045260245ffd5b3461023e575f36600319011261023e576020600654604051908152f35b3461023e57602036600319011261023e57600435805f52600f60205260405f2061045360018060a01b038254163314611175565b600f81019081549160088310610468816111b4565b156103ee5782601e015483602601549060068401541015908161063b575b50156105fe57826105f9575b835f52603760205260405f20835f526020526104b560ff60405f205416156111ef565b6104be836110e4565b90546001546040516323b872dd60e01b815233600482015230602482015260039390931b9190911c60448301819052939190602090829060649082905f906001600160a01b03165af180156105ee576105c1575b508154600181018091116105ad5760109255845f52603760205260405f20845f5260205260405f20600160ff19825416179055016105518282546112a6565b905561055e818484611913565b600182018092116105ad5760405191825260208201526080604082015260076080820152662137b7b9ba32b960c91b60a08201524260608201525f5160206121215f395f51905f5260c03392a3005b634e487b7160e01b5f52601160045260245ffd5b6105e29060203d6020116105e7575b6105da818361126c565b81019061128e565b610512565b503d6105d0565b6040513d5f823e3d90fd5b610492565b60405162461bcd60e51b8152602060048201526015602482015274155c19dc9859194814db1bdd08185b9908141bdbdb605a1b6044820152606490fd5b9050600c830154101585610486565b3461023e57602036600319011261023e5760043560155481101561023e576106736020916110fc565b90549060031b1c604051908152f35b3461023e575f36600319011261023e5760206040516283d6008152f35b3461023e575f36600319011261023e576020604154604051908152f35b3461023e575f36600319011261023e576020604754604051908152f35b3461023e57602036600319011261023e57600435600881101561023e5760209060260154604051908152f35b3461023e57604036600319011261023e5760043563ffffffff811680910361023e57602435815f52600f60205260405f2061074a60018060a01b038254163314611175565b600c81019061075c6007835410611411565b60018301928381116105ad576015548410156109005761077b846110fc565b90549060031b1c92815f52602e60205260405f20865f5260205260405f2080548581106108bb57875f52603360205260405f20875f5260205260ff60405f20541661087657856107ca9161144b565b9055805492600184018094116105ad57600293600d9255016107ed8482546112a6565b9055845f52603360205260405f20845f5260205260405f20600160ff1982541617905561081b838686611501565b018092116105ad576040519182526020820152608060408201526016608082015275506f6f6c205570677261646520284561726e696e672960501b60a08201524260608201525f5160206121215f395f51905f5260c03392a3005b60405162461bcd60e51b815260206004820152601b60248201527f416c726561647920707572636861736564206e65787420706f6f6c00000000006044820152606490fd5b60405162461bcd60e51b815260206004820152601c60248201527f4e6f7420656e6f756768206e65787420706f6f6c2062616c616e6365000000006044820152606490fd5b60405162461bcd60e51b815260206004820152600e60248201526d139bc81a1a59da195c881c1bdbdb60921b6044820152606490fd5b3461023e576109443661115f565b905f52600b60205260405f20905f52602052602060405f2054604051908152f35b3461023e575f36600319011261023e576002546040516001600160a01b039091168152602090f35b3461023e575f36600319011261023e576020600954604051908152f35b3461023e576109b83661115f565b815f52600f60205260405f206109d860018060a01b038254163314611175565b6109e86007600c83015410611411565b6109f1826110fc565b90549060031b1c90825f52602e60205260405f20845f52602052600160405f200190815491838310610b2357610a298460019461144b565b9055600d8101610a3a8482546112a6565b9055610a47838686611501565b0160405190610a5582611234565b82825260208201905f825260408301924284526060810193600a8552825493600160401b851015610b0f57600185018085558510156103ee5760ff946003945f5260205f209060021b01925183555160018301555160028201550191511660ff198254161790556040519182526020820152608060408201526016608082015275506f6f6c205265546f70757020284561726e696e672960501b60a08201524260608201525f5160206121215f395f51905f5260c03392a3005b634e487b7160e01b5f52604160045260245ffd5b60405162461bcd60e51b815260206004820152601a60248201527f4e6f7420656e6f756768207265546f7075702062616c616e63650000000000006044820152606490fd5b3461023e575f36600319011261023e57602060405162093a808152f35b3461023e575f36600319011261023e57602060405163025143008152f35b3461023e57602036600319011261023e576060610bc16004356112b3565b91906020604051938492151583526040828401528051918291826040860152018484015e5f828201840152601f01601f19168101030190f35b3461023e575f36600319011261023e576020604854604051908152f35b611129565b3461023e575f36600319011261023e576020604654604051908152f35b3461023e57602036600319011261023e576004355f52600a602052602060405f2054604051908152f35b3461023e57602036600319011261023e57600435805f52600f60205260405f20610c9760018060a01b038254163314611175565b600c81019081549160078310610cac816111b4565b156103ee578260170154600683015410610ece578215918215610ec9575b845f52603360205260405f20845f52602052610ced60ff60405f205416156111ef565b610cf6846110fc565b90546001546040516323b872dd60e01b815233600482015230602482015260039390931b9190911c60448301819052949190602090829060649082905f906001600160a01b03165af180156105ee57610eac575b50610e39575b600160088201541180610e1a575b80610e0c575b610e00575b8154600181018091116105ad57600d9255845f52603360205260405f20845f5260205260405f20600160ff1982541617905501610da78282546112a6565b9055610db4818484611501565b600182018092116105ad576040519182526020820152608060408201526004608082015263141bdbdb60e21b60a08201524260608201525f5160206121215f395f51905f5260c03392a3005b6014600b820155610d69565b50600f600b82015414610d64565b5060118101546202a30081018091116105ad57600e8201541115610d5e565b42600e82015560048101545f52600f60205260405f2060118101546202a30081018091116105ad5742101580610e9e575b610e75575b50610d50565b600881018054600181018091116105ad5780600192551115610e6f57600b601491015585610e6f565b50600f600b82015414610e6a565b610ec49060203d6020116105e7576105da818361126c565b610d4a565b610cca565b60405162461bcd60e51b815260206004820152601860248201527f5570677261646520796f7572206c6576656c20666972737400000000000000006044820152606490fd5b3461023e575f36600319011261023e5760206040516202a3008152f35b3461023e57602036600319011261023e5760043560075481101561023e576007548110156103ee5760075f527fa66cc928b5edb82af9bd49922954155ab7b0942694bea4ce44661d9a8736c6880154604051908152602090f35b611144565b3461023e575f36600319011261023e576020604051670de0b6b3a76400008152f35b3461023e575f36600319011261023e576020604051620151808152f35b3461023e575f36600319011261023e57602060405160028152f35b3461023e575f36600319011261023e576020603a54604051908152f35b3461023e575f36600319011261023e576001546040516001600160a01b039091168152602090f35b3461023e575f36600319011261023e57602060405162278d008152f35b3461023e57602036600319011261023e5760043560165481101561023e576106736020916110e4565b3461023e57602036600319011261023e57600435600781101561023e5760209060170154604051908152f35b3461023e57602036600319011261023e576004355f52600c602052602060405f2054604051908152f35b3461023e575f36600319011261023e578061271060209252f35b6016548110156103ee5760165f5260205f2001905f90565b6015548110156103ee5760155f5260205f2001905f90565b80548210156103ee575f5260205f2001905f90565b3461023e575f36600319011261023e576020604051600a8152f35b3461023e575f36600319011261023e576020604051600f8152f35b604090600319011261023e576004359060243590565b1561117c57565b60405162461bcd60e51b815260206004820152601060248201526f139bdd081e5bdd5c881858d8dbdd5b9d60821b6044820152606490fd5b156111bb57565b60405162461bcd60e51b815260206004820152600c60248201526b105d081b585e081b195d995b60a21b6044820152606490fd5b156111f657565b60405162461bcd60e51b8152602060048201526016602482015275141bdbdb08185b1c9958591e481c1d5c98da185cd95960521b6044820152606490fd5b6080810190811067ffffffffffffffff821117610b0f57604052565b60a0810190811067ffffffffffffffff821117610b0f57604052565b90601f8019910116810190811067ffffffffffffffff821117610b0f57604052565b9081602091031261023e5751801515810361023e5790565b919082018092116105ad57565b6060905f52600f60205260405f20600c810154916015548310156113c5575060078210156103ee57600682601701549101541061137857151580611371575b6113345760019060405161130760408261126c565b601981527f456c696769626c6520746f20627579206e65787420706f6f6c00000000000000602082015290565b5f9060405161134460408261126c565b601781527f4275792070726576696f757320706f6f6c206669727374000000000000000000602082015290565b505f6112f2565b505f9060405161138960608261126c565b602681527f596f75206e65656420746f207265616368206120686967686572206c6576656c60208201526508199a5c9cdd60d21b604082015290565b929150505f916113d8604051918261126c565b602381527f596f752061726520616c726561647920617420746865206869676865737420706020820152621bdbdb60ea1b604082015290565b1561141857565b60405162461bcd60e51b815260206004820152600b60248201526a105d081b585e081c1bdbdb60aa1b6044820152606490fd5b919082039182116105ad57565b1561145f57565b60405162461bcd60e51b8152602060048201526007602482015266125b9d985b1a5960ca1b6044820152606490fd5b1561149557565b60405162461bcd60e51b815260206004820152601060248201526f125b98dbdc9c9958dd08185b5bdd5b9d60821b6044820152606490fd5b8054600160401b811015610b0f576114ea91600182018155611114565b819291549060031b91821b915f19901b1916179055565b909291601554936115145f958410611458565b61152e611520846110fc565b90549060031b1c341461148e565b825f52603260205260405f2054611547816005546112a6565b90845f52603260205261155d8260405f206114cd565b5f1981019081116105ad57611583600361162b92875f5260326020520460405f20611114565b90549060031b1c916115f160405161159a81611250565b828152602080820187815260408084018b8152606085018981525f608087018181528e8252602f87528482208a83529096529290922094518555915160018501559051600284015551600383015551600490910155565b855f52603160205260405f20845f526020526116108160405f206114cd565b855f52603060205260405f20835f5260205260405f206114cd565b9060038304955f945f935b60038510611662575b505050505061164f92935061144b565b806116575750565b61166090611dab565b565b80158015611908575b6118d457818352602f60205260408320908352602052604082209588600188015460048901805490602782106116b8575b5050506116ad6003916001936112a6565b970154940193611636565b9091925060018201809211611863578190558a90601881116118775750508084526010602052600760408520016116f08b82546112a6565b9055605f8a028a15908b8104605f1482171561186357828652600f60205260408620546001600160a01b031692606490910490831561182f5781156117fc5780875260106020526040872096806117e8575061174d8288546112a6565b875560075f970161175f8382546112a6565b905560015461177a90839086906001600160a01b0316612092565b604051918252600160208301526005937f4d634c31300b97dad99b3af799178230163d88ad306370d063be9cd992d0be7f6080848760408d970152426060820152a4818b02918b83041417156105ad576116ad8a6001936117df606460039504611dab565b9381935061169c565b634e487b7160e01b81526021600452602490fd5b60405162461bcd60e51b815260206004820152600b60248201526a16995c9bc8185b5bdd5b9d60aa1b6044820152606490fd5b60405162461bcd60e51b815260206004820152600c60248201526b24b73b30b634b2103ab9b2b960a11b6044820152606490fd5b634e487b7160e01b86526011600452602486fd5b6001936003936116ad93926024106118b157868852602e60205260408820908852602052604087206118aa8382546112a6565b90556117df565b868852602e602052604088209088526020528460408820016118aa8382546112a6565b505050505061164f9293506118e9828261144b565b806118f9575b849381808061163f565b61190290611dab565b5f6118ef565b50600554811461166b565b906119216016548310611458565b61192d611520836110e4565b5f8281526036602052604090208054906119489083906114cd565b5f1981019081116105ad57600361196b91845f5260366020520460405f20611114565b90549060031b1c916119d960405161198281611250565b838152602080820184815260408084018881525f606086018181524260808801908152898352603487528483208b845290965292902094518555915160018501559051600284015551600383015551600490910155565b805f52603560205260405f20835f526020526119f88260405f206114cd565b60018114611b4d575b82158015611b42575b611b36575f52603460205260405f20825f52602052600360405f200160038154105f14611b3657805490600182018092116105ad5755815f526010602052600860405f2001611a5a8482546112a6565b9055605f830291831592848104605f148417156105ad575f828152600f60205260409020546001600160a01b03169060649004811561182f5780156117fc57825f526010602052600860405f20611ab28382546112a6565b815501611ac08282546112a6565b9055600154611adb90829084906001600160a01b0316612092565b60405190815260016020820152608081600660407f4d634c31300b97dad99b3af799178230163d88ad306370d063be9cd992d0be7f940152426060820152a46005820291820460051417156105ad5760646116609104611dab565b50505061166090611dab565b506005548314611a0a565b815f52600f60205260405f20604051906102c0820182811067ffffffffffffffff821117610b0f5760405280546001600160a01b0316825260018101805467ffffffffffffffff8111610b0f5760405191611bae60208360051b018461126c565b81835260208301905f5260205f205f915b838310611d3457505050506020830152600281015460408301526003810154606083015260048101549160808101928352600582015460a0820152600682015460c0820152600782015460e082015260088201546101008201526009820154610120820152600a820154610140820152600b820154610160820152600c820154610180820152600d8201546101a0820152600e8201546101c0820152600f8201546101e082015260108201546102008201526102a06015601184015493610220840194855260128101546102408501526013810154610260850152601481015461028085015201549101526038545f52603e60205260405f2082515f52602052611ccc8460405f206114cd565b60385490815f52603e60205260405f2083515f5260205260405f20549051916201518083018093116105ad57600592421115611d24575b501015611d11575b50611a01565b51603854611d1e91611d78565b5f611d0b565b611d2e9086611d78565b5f611d03565b60046020600192604051611d4781611234565b8554815284860154838201526002860154604082015260ff6003870154166060820152815201920192019190611bbf565b90805f52603d60205260405f20825f5260205260ff600360405f20015460081c1615611da2575050565b61166091611e7a565b6002546001600160a01b0316908115611e4157600154608092611dd9918391906001600160a01b0316612092565b6005545f52601060205260405f20611df28282546112a6565b905560018060a01b03600254167f4d634c31300b97dad99b3af799178230163d88ad306370d063be9cd992d0be7f6005549384936040519081525f60208201525f6040820152426060820152a4565b60405162461bcd60e51b8152602060048201526011602482015270199959481859191c9cc81b9bdd081cd95d607a1b6044820152606490fd5b603854820361205d57815f52603b60205260ff600860405f20015416612029575f8181527f7fb70d3b53b50f6798636307bc089a811f848f8c80c93eb14575305275478318602052604090819020905190600490611ed783611250565b80548352600181015460208401526002810154604084015260038101546060840152015460808201908152835f52603e60205260405f20835f5260205282600560405f2054109251149081612000575b50811591611ff8575b5015611fb357815f52603d60205260405f20815f5260205260405f2091600383019182549260ff8460081c16611fac576101006060948460017f360cb96d3e85b4fc299ddfa9a572850fc70961c86f0f1703f033143b0e5a82cf98428155015561ff0019161790556040519182526020820152426040820152a1565b5050505050565b60405162461bcd60e51b815260206004820152601f60248201527f4e6f7420656c696769626c6520666f72207765656b6c7920636f6e74657374006044820152606490fd5b90505f611f30565b905051825f52600f602052601160405f200154906201518082018092116105ad5711155f611f27565b60405162461bcd60e51b815260206004820152600c60248201526b149bdd5b990818db1bdcd95960a21b6044820152606490fd5b60405162461bcd60e51b815260206004820152600d60248201526c125b9d985b1a59081c9bdd5b99609a1b6044820152606490fd5b60405163a9059cbb60e01b60208281019182526001600160a01b03909416602483015260448083019590955293815290925f916120d060648261126c565b519082855af1156105ee575f513d61211757506001600160a01b0381163b155b6120f75750565b635274afe760e01b5f9081526001600160a01b0391909116600452602490fd5b600114156120f056fe26adb22cec823ef144935e9fbef1b6b4a3a29dacbe5444d59292fa2620f3d377a2646970667358221220994561b3ece918bc689eb0ccba086ce0f72c731d6270e8921782d5da605ba04f64736f6c634300081e0033",
					"opcodes": "PUSH1 0x80 PUSH1 0x40 MSTORE CALLVALUE PUSH2 0x52B JUMPI PUSH1 0x1 PUSH0 SSTORE PUSH1 0x40 MLOAD PUSH2 0x1E0 DUP2 ADD PUSH1 0x1 PUSH1 0x1 PUSH1 0x40 SHL SUB DUP2 GT DUP3 DUP3 LT OR PUSH2 0x517 JUMPI PUSH1 0x40 MSTORE PUSH8 0xD02AB486CEDC0000 DUP2 MSTORE PUSH9 0x15AF1D78B58C40000 PUSH1 0x20 DUP3 ADD MSTORE PUSH9 0x2B5E3AF16B1880000 PUSH1 0x40 DUP3 ADD MSTORE PUSH9 0x56BC75E2D63100000 PUSH1 0x60 DUP3 ADD MSTORE PUSH9 0xAD78EBC5AC6200000 PUSH1 0x80 DUP3 ADD MSTORE PUSH9 0x15AF1D78B58C400000 PUSH1 0xA0 DUP3 ADD MSTORE PUSH9 0x2B5E3AF16B18800000 PUSH1 0xC0 DUP3 ADD MSTORE PUSH9 0x56BC75E2D631000000 PUSH1 0xE0 DUP3 ADD MSTORE PUSH9 0xAD78EBC5AC62000000 PUSH2 0x100 DUP3 ADD MSTORE PUSH10 0x15AF1D78B58C4000000 PUSH2 0x120 DUP3 ADD MSTORE PUSH10 0x2B5E3AF16B188000000 PUSH2 0x140 DUP3 ADD MSTORE PUSH10 0x56BC75E2D6310000000 PUSH2 0x160 DUP3 ADD MSTORE PUSH10 0xAD78EBC5AC620000000 PUSH2 0x180 DUP3 ADD MSTORE PUSH10 0x15AF1D78B58C40000000 PUSH2 0x1A0 DUP3 ADD MSTORE PUSH10 0x2B5E3AF16B1880000000 PUSH2 0x1C0 DUP3 ADD MSTORE PUSH1 0xD SLOAD PUSH1 0xF PUSH1 0xD SSTORE DUP1 PUSH1 0xF LT PUSH2 0x4C1 JUMPI JUMPDEST POP PUSH1 0xD PUSH0 MSTORE PUSH1 0x20 PUSH0 KECCAK256 SWAP1 PUSH0 JUMPDEST PUSH1 0xF DUP2 LT PUSH2 0x4A4 JUMPI PUSH2 0x141 PUSH2 0x52F JUMP JUMPDEST PUSH9 0x410D586A20A4C0000 DUP2 MSTORE PUSH9 0x1043561A8829300000 PUSH1 0x20 DUP3 ADD MSTORE PUSH9 0x410D586A20A4C00000 PUSH1 0x40 DUP3 ADD MSTORE PUSH10 0x1043561A88293000000 PUSH1 0x60 DUP3 ADD MSTORE PUSH10 0x410D586A20A4C000000 PUSH1 0x80 DUP3 ADD MSTORE PUSH10 0x1043561A882930000000 PUSH1 0xA0 DUP3 ADD MSTORE PUSH10 0x410D586A20A4C0000000 PUSH1 0xC0 DUP3 ADD MSTORE PUSH1 0x15 SLOAD PUSH1 0x7 PUSH1 0x15 SSTORE DUP1 PUSH1 0x7 LT PUSH2 0x44E JUMPI JUMPDEST POP PUSH1 0x15 PUSH0 MSTORE PUSH1 0x20 PUSH0 KECCAK256 SWAP1 PUSH0 JUMPDEST PUSH1 0x7 DUP2 LT PUSH2 0x431 JUMPI PUSH2 0x1D8 PUSH2 0x54E JUMP JUMPDEST PUSH9 0x56BC75E2D63100000 DUP2 MSTORE PUSH9 0xAD78EBC5AC6200000 PUSH1 0x20 DUP3 ADD MSTORE PUSH9 0x15AF1D78B58C400000 PUSH1 0x40 DUP3 ADD MSTORE PUSH9 0x2B5E3AF16B18800000 PUSH1 0x60 DUP3 ADD MSTORE PUSH9 0x56BC75E2D631000000 PUSH1 0x80 DUP3 ADD MSTORE PUSH9 0xAD78EBC5AC62000000 PUSH1 0xA0 DUP3 ADD MSTORE PUSH10 0x15AF1D78B58C4000000 PUSH1 0xC0 DUP3 ADD MSTORE PUSH10 0x2B5E3AF16B188000000 PUSH1 0xE0 DUP3 ADD MSTORE PUSH1 0x16 SLOAD PUSH1 0x8 PUSH1 0x16 SSTORE DUP1 PUSH1 0x8 LT PUSH2 0x3DB JUMPI JUMPDEST POP PUSH1 0x16 PUSH0 MSTORE PUSH1 0x20 PUSH0 KECCAK256 SWAP1 PUSH0 JUMPDEST PUSH1 0x8 DUP2 LT PUSH2 0x3BE JUMPI PUSH2 0x27C PUSH2 0x52F JUMP JUMPDEST PUSH1 0x3 DUP2 MSTORE PUSH1 0x5 PUSH1 0x20 DUP3 ADD MSTORE PUSH1 0x7 PUSH1 0x40 DUP3 ADD MSTORE PUSH1 0x9 PUSH1 0x60 DUP3 ADD MSTORE PUSH1 0xB PUSH1 0x80 DUP3 ADD MSTORE PUSH1 0xD PUSH1 0xA0 DUP3 ADD MSTORE PUSH1 0xF PUSH1 0xC0 DUP3 ADD MSTORE PUSH0 JUMPDEST PUSH1 0x7 DUP2 LT PUSH2 0x3A6 JUMPI PUSH2 0x2BC PUSH2 0x54E JUMP JUMPDEST PUSH1 0x4 DUP2 MSTORE PUSH1 0x5 PUSH1 0x20 DUP3 ADD MSTORE PUSH1 0x6 PUSH1 0x40 DUP3 ADD MSTORE PUSH1 0x7 PUSH1 0x60 DUP3 ADD MSTORE PUSH1 0x8 PUSH1 0x80 DUP3 ADD MSTORE PUSH1 0x9 PUSH1 0xA0 DUP3 ADD MSTORE PUSH1 0xA PUSH1 0xC0 DUP3 ADD MSTORE PUSH1 0xB PUSH1 0xE0 DUP3 ADD MSTORE PUSH0 JUMPDEST PUSH1 0x8 DUP2 LT PUSH2 0x38E JUMPI PUSH2 0x303 PUSH2 0x54E JUMP JUMPDEST PUSH0 DUP2 MSTORE PUSH1 0x1 PUSH1 0x20 DUP3 ADD MSTORE PUSH1 0x1 PUSH1 0x40 DUP3 ADD MSTORE PUSH1 0x1 PUSH1 0x60 DUP3 ADD MSTORE PUSH1 0x1 PUSH1 0x80 DUP3 ADD MSTORE PUSH1 0x1 PUSH1 0xA0 DUP3 ADD MSTORE PUSH1 0x1 PUSH1 0xC0 DUP3 ADD MSTORE PUSH1 0x1 PUSH1 0xE0 DUP3 ADD MSTORE PUSH0 JUMPDEST PUSH1 0x8 DUP2 LT PUSH2 0x376 JUMPI PUSH0 PUSH1 0x38 SSTORE PUSH0 PUSH1 0x39 SSTORE PUSH0 PUSH1 0x3A SSTORE PUSH1 0x1 PUSH1 0x3F SSTORE PUSH0 PUSH1 0x40 SSTORE PUSH0 PUSH1 0x41 SSTORE PUSH1 0x1 PUSH1 0x46 SSTORE PUSH0 PUSH1 0x47 SSTORE PUSH0 PUSH1 0x48 SSTORE PUSH1 0x40 MLOAD PUSH2 0x2176 SWAP1 DUP2 PUSH2 0x585 DUP3 CODECOPY RETURN JUMPDEST PUSH1 0x1 SWAP1 PUSH1 0x20 PUSH1 0xFF DUP5 MLOAD AND SWAP4 ADD SWAP3 DUP2 PUSH1 0x26 ADD SSTORE ADD PUSH2 0x339 JUMP JUMPDEST PUSH1 0x1 SWAP1 PUSH1 0x20 PUSH1 0xFF DUP5 MLOAD AND SWAP4 ADD SWAP3 DUP2 PUSH1 0x1E ADD SSTORE ADD PUSH2 0x2F3 JUMP JUMPDEST PUSH1 0x1 SWAP1 PUSH1 0x20 PUSH1 0xFF DUP5 MLOAD AND SWAP4 ADD SWAP3 DUP2 PUSH1 0x17 ADD SSTORE ADD PUSH2 0x2AC JUMP JUMPDEST DUP2 MLOAD PUSH1 0x1 PUSH1 0x1 PUSH1 0x50 SHL SUB AND DUP2 DUP5 ADD SSTORE PUSH1 0x20 SWAP1 SWAP2 ADD SWAP1 PUSH1 0x1 ADD PUSH2 0x26C JUMP JUMPDEST PUSH1 0x16 PUSH0 MSTORE PUSH2 0x42B SWAP1 PUSH32 0xD833147D7DC355BA459FC788F669E58CFAF9DC25DDCD0702E87D69C7B5124289 ADD PUSH32 0xD833147D7DC355BA459FC788F669E58CFAF9DC25DDCD0702E87D69C7B5124291 PUSH2 0x56E JUMP JUMPDEST DUP2 PUSH2 0x260 JUMP JUMPDEST DUP2 MLOAD PUSH1 0x1 PUSH1 0x1 PUSH1 0x50 SHL SUB AND DUP2 DUP5 ADD SSTORE PUSH1 0x20 SWAP1 SWAP2 ADD SWAP1 PUSH1 0x1 ADD PUSH2 0x1C8 JUMP JUMPDEST PUSH1 0x15 PUSH0 MSTORE PUSH2 0x49E SWAP1 PUSH32 0x55F448FDEA98C4D29EB340757EF0A66CD03DBB9538908A6A81D96026B71EC475 ADD PUSH32 0x55F448FDEA98C4D29EB340757EF0A66CD03DBB9538908A6A81D96026B71EC47C PUSH2 0x56E JUMP JUMPDEST DUP2 PUSH2 0x1BC JUMP JUMPDEST DUP2 MLOAD PUSH1 0x1 PUSH1 0x1 PUSH1 0x50 SHL SUB AND DUP2 DUP5 ADD SSTORE PUSH1 0x20 SWAP1 SWAP2 ADD SWAP1 PUSH1 0x1 ADD PUSH2 0x131 JUMP JUMPDEST PUSH1 0xD PUSH0 MSTORE PUSH2 0x511 SWAP1 PUSH32 0xD7B6990105719101DABEB77144F2A3385C8033ACD3AF97E9423A695E81AD1EB5 ADD PUSH32 0xD7B6990105719101DABEB77144F2A3385C8033ACD3AF97E9423A695E81AD1EC4 PUSH2 0x56E JUMP JUMPDEST PUSH0 PUSH2 0x125 JUMP JUMPDEST PUSH4 0x4E487B71 PUSH1 0xE0 SHL PUSH0 MSTORE PUSH1 0x41 PUSH1 0x4 MSTORE PUSH1 0x24 PUSH0 REVERT JUMPDEST PUSH0 DUP1 REVERT JUMPDEST PUSH1 0x40 MLOAD SWAP1 PUSH1 0xE0 DUP3 ADD PUSH1 0x1 PUSH1 0x1 PUSH1 0x40 SHL SUB DUP2 GT DUP4 DUP3 LT OR PUSH2 0x517 JUMPI PUSH1 0x40 MSTORE JUMP JUMPDEST PUSH1 0x40 MLOAD SWAP1 PUSH2 0x100 DUP3 ADD PUSH1 0x1 PUSH1 0x1 PUSH1 0x40 SHL SUB DUP2 GT DUP4 DUP3 LT OR PUSH2 0x517 JUMPI PUSH1 0x40 MSTORE JUMP JUMPDEST DUP2 DUP2 LT PUSH2 0x579 JUMPI POP POP JUMP JUMPDEST PUSH0 DUP2 SSTORE PUSH1 0x1 ADD PUSH2 0x56E JUMP INVALID PUSH1 0x80 DUP1 PUSH1 0x40 MSTORE PUSH1 0x4 CALLDATASIZE LT ISZERO PUSH2 0x12 JUMPI PUSH0 DUP1 REVERT JUMPDEST PUSH0 CALLDATALOAD PUSH1 0xE0 SHR SWAP1 DUP2 PUSH4 0x1C234A8 EQ PUSH2 0x10CA JUMPI POP DUP1 PUSH4 0x676D0D6 EQ PUSH2 0x10A0 JUMPI DUP1 PUSH4 0x2132D204 EQ PUSH2 0x1074 JUMPI DUP1 PUSH4 0x2350268F EQ PUSH2 0x104B JUMPI DUP1 PUSH4 0x23FD338E EQ PUSH2 0xC17 JUMPI DUP1 PUSH4 0x2A891534 EQ PUSH2 0x102E JUMPI DUP1 PUSH4 0x2AE0EE0D EQ PUSH2 0xF8A JUMPI DUP1 PUSH4 0x2F48AB7D EQ PUSH2 0x1006 JUMPI DUP1 PUSH4 0x3080B5BC EQ PUSH2 0xFE9 JUMPI DUP1 PUSH4 0x31BB6A30 EQ PUSH2 0xFCE JUMPI DUP1 PUSH4 0x32BC298C EQ PUSH2 0xFB1 JUMPI DUP1 PUSH4 0x32FCD966 EQ PUSH2 0xF8F JUMPI DUP1 PUSH4 0x375B43B4 EQ PUSH2 0xF8A JUMPI DUP1 PUSH4 0x39AB3603 EQ PUSH2 0xF30 JUMPI DUP1 PUSH4 0x3A5084B3 EQ PUSH2 0xF13 JUMPI DUP1 PUSH4 0x4060160A EQ PUSH2 0xC63 JUMPI DUP1 PUSH4 0x45CB537C EQ PUSH2 0xC39 JUMPI DUP1 PUSH4 0x4B8CBF9B EQ PUSH2 0xC1C JUMPI DUP1 PUSH4 0x58C7D352 EQ PUSH2 0xC17 JUMPI DUP1 PUSH4 0x5B62D1D5 EQ PUSH2 0xBFA JUMPI DUP1 PUSH4 0x67D52D4D EQ PUSH2 0xBA3 JUMPI DUP1 PUSH4 0x705FEE2D EQ PUSH2 0xB85 JUMPI DUP1 PUSH4 0x76F5F700 EQ PUSH2 0xB68 JUMPI DUP1 PUSH4 0x7848F0A3 EQ PUSH2 0x9AA JUMPI DUP1 PUSH4 0x78F6AD6D EQ PUSH2 0x98D JUMPI DUP1 PUSH4 0x7CDC65F2 EQ PUSH2 0x965 JUMPI DUP1 PUSH4 0x89043ECE EQ PUSH2 0x936 JUMPI DUP1 PUSH4 0x8E222E24 EQ PUSH2 0x705 JUMPI DUP1 PUSH4 0x956A3228 EQ PUSH2 0x6D9 JUMPI DUP1 PUSH4 0x9B40AB97 EQ PUSH2 0x6BC JUMPI DUP1 PUSH4 0xA59D17D1 EQ PUSH2 0x69F JUMPI DUP1 PUSH4 0xA5E52B99 EQ PUSH2 0x682 JUMPI DUP1 PUSH4 0xAE4708DC EQ PUSH2 0x64A JUMPI DUP1 PUSH4 0xBC1FA7C0 EQ PUSH2 0x41F JUMPI DUP1 PUSH4 0xBFF1F9E1 EQ PUSH2 0x402 JUMPI DUP1 PUSH4 0xC216212A EQ PUSH2 0x394 JUMPI DUP1 PUSH4 0xC8DF2908 EQ PUSH2 0x370 JUMPI DUP1 PUSH4 0xC9ED0708 EQ PUSH2 0x353 JUMPI DUP1 PUSH4 0xCA8E9121 EQ PUSH2 0x336 JUMPI DUP1 PUSH4 0xD0A2FD79 EQ PUSH2 0x30A JUMPI DUP1 PUSH4 0xD2F0490D EQ PUSH2 0x2EF JUMPI DUP1 PUSH4 0xE898FC38 EQ PUSH2 0x2D2 JUMPI DUP1 PUSH4 0xE9E34A16 EQ PUSH2 0x2AA JUMPI DUP1 PUSH4 0xEBE0FF15 EQ PUSH2 0x287 JUMPI DUP1 PUSH4 0xEC597E6F EQ PUSH2 0x26A JUMPI DUP1 PUSH4 0xF5D74D93 EQ PUSH2 0x242 JUMPI PUSH4 0xFDDC806F EQ PUSH2 0x221 JUMPI PUSH0 DUP1 REVERT JUMPDEST CALLVALUE PUSH2 0x23E JUMPI PUSH0 CALLDATASIZE PUSH1 0x3 NOT ADD SLT PUSH2 0x23E JUMPI PUSH1 0x20 PUSH1 0x39 SLOAD PUSH1 0x40 MLOAD SWAP1 DUP2 MSTORE RETURN JUMPDEST PUSH0 DUP1 REVERT JUMPDEST CALLVALUE PUSH2 0x23E JUMPI PUSH0 CALLDATASIZE PUSH1 0x3 NOT ADD SLT PUSH2 0x23E JUMPI PUSH1 0x4 SLOAD PUSH1 0x40 MLOAD PUSH1 0x1 PUSH1 0x1 PUSH1 0xA0 SHL SUB SWAP1 SWAP2 AND DUP2 MSTORE PUSH1 0x20 SWAP1 RETURN JUMPDEST CALLVALUE PUSH2 0x23E JUMPI PUSH0 CALLDATASIZE PUSH1 0x3 NOT ADD SLT PUSH2 0x23E JUMPI PUSH1 0x20 PUSH1 0x5 SLOAD PUSH1 0x40 MLOAD SWAP1 DUP2 MSTORE RETURN JUMPDEST CALLVALUE PUSH2 0x23E JUMPI PUSH0 CALLDATASIZE PUSH1 0x3 NOT ADD SLT PUSH2 0x23E JUMPI PUSH1 0x20 PUSH1 0x40 MLOAD PUSH9 0x3635C9ADC5DEA00000 DUP2 MSTORE RETURN JUMPDEST CALLVALUE PUSH2 0x23E JUMPI PUSH0 CALLDATASIZE PUSH1 0x3 NOT ADD SLT PUSH2 0x23E JUMPI PUSH1 0x3 SLOAD PUSH1 0x40 MLOAD PUSH1 0x1 PUSH1 0x1 PUSH1 0xA0 SHL SUB SWAP1 SWAP2 AND DUP2 MSTORE PUSH1 0x20 SWAP1 RETURN JUMPDEST CALLVALUE PUSH2 0x23E JUMPI PUSH0 CALLDATASIZE PUSH1 0x3 NOT ADD SLT PUSH2 0x23E JUMPI PUSH1 0x20 PUSH1 0x40 SLOAD PUSH1 0x40 MLOAD SWAP1 DUP2 MSTORE RETURN JUMPDEST CALLVALUE PUSH2 0x23E JUMPI PUSH0 CALLDATASIZE PUSH1 0x3 NOT ADD SLT PUSH2 0x23E JUMPI PUSH1 0x20 PUSH1 0x40 MLOAD PUSH1 0x5 DUP2 MSTORE RETURN JUMPDEST CALLVALUE PUSH2 0x23E JUMPI PUSH1 0x20 CALLDATASIZE PUSH1 0x3 NOT ADD SLT PUSH2 0x23E JUMPI PUSH1 0x4 CALLDATALOAD PUSH1 0x8 DUP2 LT ISZERO PUSH2 0x23E JUMPI PUSH1 0x20 SWAP1 PUSH1 0x1E ADD SLOAD PUSH1 0x40 MLOAD SWAP1 DUP2 MSTORE RETURN JUMPDEST CALLVALUE PUSH2 0x23E JUMPI PUSH0 CALLDATASIZE PUSH1 0x3 NOT ADD SLT PUSH2 0x23E JUMPI PUSH1 0x20 PUSH1 0x38 SLOAD PUSH1 0x40 MLOAD SWAP1 DUP2 MSTORE RETURN JUMPDEST CALLVALUE PUSH2 0x23E JUMPI PUSH0 CALLDATASIZE PUSH1 0x3 NOT ADD SLT PUSH2 0x23E JUMPI PUSH1 0x20 PUSH1 0x3F SLOAD PUSH1 0x40 MLOAD SWAP1 DUP2 MSTORE RETURN JUMPDEST CALLVALUE PUSH2 0x23E JUMPI PUSH0 CALLDATASIZE PUSH1 0x3 NOT ADD SLT PUSH2 0x23E JUMPI PUSH1 0x20 PUSH1 0x40 MLOAD PUSH10 0x21E19E0C9BAB2400000 DUP2 MSTORE RETURN JUMPDEST CALLVALUE PUSH2 0x23E JUMPI PUSH1 0x20 CALLDATASIZE PUSH1 0x3 NOT ADD SLT PUSH2 0x23E JUMPI PUSH1 0x4 CALLDATALOAD PUSH1 0xD SLOAD DUP2 LT ISZERO PUSH2 0x23E JUMPI PUSH1 0xD SLOAD DUP2 LT ISZERO PUSH2 0x3EE JUMPI PUSH1 0xD PUSH0 MSTORE PUSH32 0xD7B6990105719101DABEB77144F2A3385C8033ACD3AF97E9423A695E81AD1EB5 ADD SLOAD PUSH1 0x40 MLOAD SWAP1 DUP2 MSTORE PUSH1 0x20 SWAP1 RETURN JUMPDEST PUSH4 0x4E487B71 PUSH1 0xE0 SHL PUSH0 MSTORE PUSH1 0x32 PUSH1 0x4 MSTORE PUSH1 0x24 PUSH0 REVERT JUMPDEST CALLVALUE PUSH2 0x23E JUMPI PUSH0 CALLDATASIZE PUSH1 0x3 NOT ADD SLT PUSH2 0x23E JUMPI PUSH1 0x20 PUSH1 0x6 SLOAD PUSH1 0x40 MLOAD SWAP1 DUP2 MSTORE RETURN JUMPDEST CALLVALUE PUSH2 0x23E JUMPI PUSH1 0x20 CALLDATASIZE PUSH1 0x3 NOT ADD SLT PUSH2 0x23E JUMPI PUSH1 0x4 CALLDATALOAD DUP1 PUSH0 MSTORE PUSH1 0xF PUSH1 0x20 MSTORE PUSH1 0x40 PUSH0 KECCAK256 PUSH2 0x453 PUSH1 0x1 DUP1 PUSH1 0xA0 SHL SUB DUP3 SLOAD AND CALLER EQ PUSH2 0x1175 JUMP JUMPDEST PUSH1 0xF DUP2 ADD SWAP1 DUP2 SLOAD SWAP2 PUSH1 0x8 DUP4 LT PUSH2 0x468 DUP2 PUSH2 0x11B4 JUMP JUMPDEST ISZERO PUSH2 0x3EE JUMPI DUP3 PUSH1 0x1E ADD SLOAD DUP4 PUSH1 0x26 ADD SLOAD SWAP1 PUSH1 0x6 DUP5 ADD SLOAD LT ISZERO SWAP1 DUP2 PUSH2 0x63B JUMPI JUMPDEST POP ISZERO PUSH2 0x5FE JUMPI DUP3 PUSH2 0x5F9 JUMPI JUMPDEST DUP4 PUSH0 MSTORE PUSH1 0x37 PUSH1 0x20 MSTORE PUSH1 0x40 PUSH0 KECCAK256 DUP4 PUSH0 MSTORE PUSH1 0x20 MSTORE PUSH2 0x4B5 PUSH1 0xFF PUSH1 0x40 PUSH0 KECCAK256 SLOAD AND ISZERO PUSH2 0x11EF JUMP JUMPDEST PUSH2 0x4BE DUP4 PUSH2 0x10E4 JUMP JUMPDEST SWAP1 SLOAD PUSH1 0x1 SLOAD PUSH1 0x40 MLOAD PUSH4 0x23B872DD PUSH1 0xE0 SHL DUP2 MSTORE CALLER PUSH1 0x4 DUP3 ADD MSTORE ADDRESS PUSH1 0x24 DUP3 ADD MSTORE PUSH1 0x3 SWAP4 SWAP1 SWAP4 SHL SWAP2 SWAP1 SWAP2 SHR PUSH1 0x44 DUP4 ADD DUP2 SWAP1 MSTORE SWAP4 SWAP2 SWAP1 PUSH1 0x20 SWAP1 DUP3 SWAP1 PUSH1 0x64 SWAP1 DUP3 SWAP1 PUSH0 SWAP1 PUSH1 0x1 PUSH1 0x1 PUSH1 0xA0 SHL SUB AND GAS CALL DUP1 ISZERO PUSH2 0x5EE JUMPI PUSH2 0x5C1 JUMPI JUMPDEST POP DUP2 SLOAD PUSH1 0x1 DUP2 ADD DUP1 SWAP2 GT PUSH2 0x5AD JUMPI PUSH1 0x10 SWAP3 SSTORE DUP5 PUSH0 MSTORE PUSH1 0x37 PUSH1 0x20 MSTORE PUSH1 0x40 PUSH0 KECCAK256 DUP5 PUSH0 MSTORE PUSH1 0x20 MSTORE PUSH1 0x40 PUSH0 KECCAK256 PUSH1 0x1 PUSH1 0xFF NOT DUP3 SLOAD AND OR SWAP1 SSTORE ADD PUSH2 0x551 DUP3 DUP3 SLOAD PUSH2 0x12A6 JUMP JUMPDEST SWAP1 SSTORE PUSH2 0x55E DUP2 DUP5 DUP5 PUSH2 0x1913 JUMP JUMPDEST PUSH1 0x1 DUP3 ADD DUP1 SWAP3 GT PUSH2 0x5AD JUMPI PUSH1 0x40 MLOAD SWAP2 DUP3 MSTORE PUSH1 0x20 DUP3 ADD MSTORE PUSH1 0x80 PUSH1 0x40 DUP3 ADD MSTORE PUSH1 0x7 PUSH1 0x80 DUP3 ADD MSTORE PUSH7 0x2137B7B9BA32B9 PUSH1 0xC9 SHL PUSH1 0xA0 DUP3 ADD MSTORE TIMESTAMP PUSH1 0x60 DUP3 ADD MSTORE PUSH0 MLOAD PUSH1 0x20 PUSH2 0x2121 PUSH0 CODECOPY PUSH0 MLOAD SWAP1 PUSH0 MSTORE PUSH1 0xC0 CALLER SWAP3 LOG3 STOP JUMPDEST PUSH4 0x4E487B71 PUSH1 0xE0 SHL PUSH0 MSTORE PUSH1 0x11 PUSH1 0x4 MSTORE PUSH1 0x24 PUSH0 REVERT JUMPDEST PUSH2 0x5E2 SWAP1 PUSH1 0x20 RETURNDATASIZE PUSH1 0x20 GT PUSH2 0x5E7 JUMPI JUMPDEST PUSH2 0x5DA DUP2 DUP4 PUSH2 0x126C JUMP JUMPDEST DUP2 ADD SWAP1 PUSH2 0x128E JUMP JUMPDEST PUSH2 0x512 JUMP JUMPDEST POP RETURNDATASIZE PUSH2 0x5D0 JUMP JUMPDEST PUSH1 0x40 MLOAD RETURNDATASIZE PUSH0 DUP3 RETURNDATACOPY RETURNDATASIZE SWAP1 REVERT JUMPDEST PUSH2 0x492 JUMP JUMPDEST PUSH1 0x40 MLOAD PUSH3 0x461BCD PUSH1 0xE5 SHL DUP2 MSTORE PUSH1 0x20 PUSH1 0x4 DUP3 ADD MSTORE PUSH1 0x15 PUSH1 0x24 DUP3 ADD MSTORE PUSH21 0x155C19DC9859194814DB1BDD08185B9908141BDBDB PUSH1 0x5A SHL PUSH1 0x44 DUP3 ADD MSTORE PUSH1 0x64 SWAP1 REVERT JUMPDEST SWAP1 POP PUSH1 0xC DUP4 ADD SLOAD LT ISZERO DUP6 PUSH2 0x486 JUMP JUMPDEST CALLVALUE PUSH2 0x23E JUMPI PUSH1 0x20 CALLDATASIZE PUSH1 0x3 NOT ADD SLT PUSH2 0x23E JUMPI PUSH1 0x4 CALLDATALOAD PUSH1 0x15 SLOAD DUP2 LT ISZERO PUSH2 0x23E JUMPI PUSH2 0x673 PUSH1 0x20 SWAP2 PUSH2 0x10FC JUMP JUMPDEST SWAP1 SLOAD SWAP1 PUSH1 0x3 SHL SHR PUSH1 0x40 MLOAD SWAP1 DUP2 MSTORE RETURN JUMPDEST CALLVALUE PUSH2 0x23E JUMPI PUSH0 CALLDATASIZE PUSH1 0x3 NOT ADD SLT PUSH2 0x23E JUMPI PUSH1 0x20 PUSH1 0x40 MLOAD PUSH3 0x83D600 DUP2 MSTORE RETURN JUMPDEST CALLVALUE PUSH2 0x23E JUMPI PUSH0 CALLDATASIZE PUSH1 0x3 NOT ADD SLT PUSH2 0x23E JUMPI PUSH1 0x20 PUSH1 0x41 SLOAD PUSH1 0x40 MLOAD SWAP1 DUP2 MSTORE RETURN JUMPDEST CALLVALUE PUSH2 0x23E JUMPI PUSH0 CALLDATASIZE PUSH1 0x3 NOT ADD SLT PUSH2 0x23E JUMPI PUSH1 0x20 PUSH1 0x47 SLOAD PUSH1 0x40 MLOAD SWAP1 DUP2 MSTORE RETURN JUMPDEST CALLVALUE PUSH2 0x23E JUMPI PUSH1 0x20 CALLDATASIZE PUSH1 0x3 NOT ADD SLT PUSH2 0x23E JUMPI PUSH1 0x4 CALLDATALOAD PUSH1 0x8 DUP2 LT ISZERO PUSH2 0x23E JUMPI PUSH1 0x20 SWAP1 PUSH1 0x26 ADD SLOAD PUSH1 0x40 MLOAD SWAP1 DUP2 MSTORE RETURN JUMPDEST CALLVALUE PUSH2 0x23E JUMPI PUSH1 0x40 CALLDATASIZE PUSH1 0x3 NOT ADD SLT PUSH2 0x23E JUMPI PUSH1 0x4 CALLDATALOAD PUSH4 0xFFFFFFFF DUP2 AND DUP1 SWAP2 SUB PUSH2 0x23E JUMPI PUSH1 0x24 CALLDATALOAD DUP2 PUSH0 MSTORE PUSH1 0xF PUSH1 0x20 MSTORE PUSH1 0x40 PUSH0 KECCAK256 PUSH2 0x74A PUSH1 0x1 DUP1 PUSH1 0xA0 SHL SUB DUP3 SLOAD AND CALLER EQ PUSH2 0x1175 JUMP JUMPDEST PUSH1 0xC DUP2 ADD SWAP1 PUSH2 0x75C PUSH1 0x7 DUP4 SLOAD LT PUSH2 0x1411 JUMP JUMPDEST PUSH1 0x1 DUP4 ADD SWAP3 DUP4 DUP2 GT PUSH2 0x5AD JUMPI PUSH1 0x15 SLOAD DUP5 LT ISZERO PUSH2 0x900 JUMPI PUSH2 0x77B DUP5 PUSH2 0x10FC JUMP JUMPDEST SWAP1 SLOAD SWAP1 PUSH1 0x3 SHL SHR SWAP3 DUP2 PUSH0 MSTORE PUSH1 0x2E PUSH1 0x20 MSTORE PUSH1 0x40 PUSH0 KECCAK256 DUP7 PUSH0 MSTORE PUSH1 0x20 MSTORE PUSH1 0x40 PUSH0 KECCAK256 DUP1 SLOAD DUP6 DUP2 LT PUSH2 0x8BB JUMPI DUP8 PUSH0 MSTORE PUSH1 0x33 PUSH1 0x20 MSTORE PUSH1 0x40 PUSH0 KECCAK256 DUP8 PUSH0 MSTORE PUSH1 0x20 MSTORE PUSH1 0xFF PUSH1 0x40 PUSH0 KECCAK256 SLOAD AND PUSH2 0x876 JUMPI DUP6 PUSH2 0x7CA SWAP2 PUSH2 0x144B JUMP JUMPDEST SWAP1 SSTORE DUP1 SLOAD SWAP3 PUSH1 0x1 DUP5 ADD DUP1 SWAP5 GT PUSH2 0x5AD JUMPI PUSH1 0x2 SWAP4 PUSH1 0xD SWAP3 SSTORE ADD PUSH2 0x7ED DUP5 DUP3 SLOAD PUSH2 0x12A6 JUMP JUMPDEST SWAP1 SSTORE DUP5 PUSH0 MSTORE PUSH1 0x33 PUSH1 0x20 MSTORE PUSH1 0x40 PUSH0 KECCAK256 DUP5 PUSH0 MSTORE PUSH1 0x20 MSTORE PUSH1 0x40 PUSH0 KECCAK256 PUSH1 0x1 PUSH1 0xFF NOT DUP3 SLOAD AND OR SWAP1 SSTORE PUSH2 0x81B DUP4 DUP7 DUP7 PUSH2 0x1501 JUMP JUMPDEST ADD DUP1 SWAP3 GT PUSH2 0x5AD JUMPI PUSH1 0x40 MLOAD SWAP2 DUP3 MSTORE PUSH1 0x20 DUP3 ADD MSTORE PUSH1 0x80 PUSH1 0x40 DUP3 ADD MSTORE PUSH1 0x16 PUSH1 0x80 DUP3 ADD MSTORE PUSH22 0x506F6F6C205570677261646520284561726E696E6729 PUSH1 0x50 SHL PUSH1 0xA0 DUP3 ADD MSTORE TIMESTAMP PUSH1 0x60 DUP3 ADD MSTORE PUSH0 MLOAD PUSH1 0x20 PUSH2 0x2121 PUSH0 CODECOPY PUSH0 MLOAD SWAP1 PUSH0 MSTORE PUSH1 0xC0 CALLER SWAP3 LOG3 STOP JUMPDEST PUSH1 0x40 MLOAD PUSH3 0x461BCD PUSH1 0xE5 SHL DUP2 MSTORE PUSH1 0x20 PUSH1 0x4 DUP3 ADD MSTORE PUSH1 0x1B PUSH1 0x24 DUP3 ADD MSTORE PUSH32 0x416C726561647920707572636861736564206E65787420706F6F6C0000000000 PUSH1 0x44 DUP3 ADD MSTORE PUSH1 0x64 SWAP1 REVERT JUMPDEST PUSH1 0x40 MLOAD PUSH3 0x461BCD PUSH1 0xE5 SHL DUP2 MSTORE PUSH1 0x20 PUSH1 0x4 DUP3 ADD MSTORE PUSH1 0x1C PUSH1 0x24 DUP3 ADD MSTORE PUSH32 0x4E6F7420656E6F756768206E65787420706F6F6C2062616C616E636500000000 PUSH1 0x44 DUP3 ADD MSTORE PUSH1 0x64 SWAP1 REVERT JUMPDEST PUSH1 0x40 MLOAD PUSH3 0x461BCD PUSH1 0xE5 SHL DUP2 MSTORE PUSH1 0x20 PUSH1 0x4 DUP3 ADD MSTORE PUSH1 0xE PUSH1 0x24 DUP3 ADD MSTORE PUSH14 0x139BC81A1A59DA195C881C1BDBDB PUSH1 0x92 SHL PUSH1 0x44 DUP3 ADD MSTORE PUSH1 0x64 SWAP1 REVERT JUMPDEST CALLVALUE PUSH2 0x23E JUMPI PUSH2 0x944 CALLDATASIZE PUSH2 0x115F JUMP JUMPDEST SWAP1 PUSH0 MSTORE PUSH1 0xB PUSH1 0x20 MSTORE PUSH1 0x40 PUSH0 KECCAK256 SWAP1 PUSH0 MSTORE PUSH1 0x20 MSTORE PUSH1 0x20 PUSH1 0x40 PUSH0 KECCAK256 SLOAD PUSH1 0x40 MLOAD SWAP1 DUP2 MSTORE RETURN JUMPDEST CALLVALUE PUSH2 0x23E JUMPI PUSH0 CALLDATASIZE PUSH1 0x3 NOT ADD SLT PUSH2 0x23E JUMPI PUSH1 0x2 SLOAD PUSH1 0x40 MLOAD PUSH1 0x1 PUSH1 0x1 PUSH1 0xA0 SHL SUB SWAP1 SWAP2 AND DUP2 MSTORE PUSH1 0x20 SWAP1 RETURN JUMPDEST CALLVALUE PUSH2 0x23E JUMPI PUSH0 CALLDATASIZE PUSH1 0x3 NOT ADD SLT PUSH2 0x23E JUMPI PUSH1 0x20 PUSH1 0x9 SLOAD PUSH1 0x40 MLOAD SWAP1 DUP2 MSTORE RETURN JUMPDEST CALLVALUE PUSH2 0x23E JUMPI PUSH2 0x9B8 CALLDATASIZE PUSH2 0x115F JUMP JUMPDEST DUP2 PUSH0 MSTORE PUSH1 0xF PUSH1 0x20 MSTORE PUSH1 0x40 PUSH0 KECCAK256 PUSH2 0x9D8 PUSH1 0x1 DUP1 PUSH1 0xA0 SHL SUB DUP3 SLOAD AND CALLER EQ PUSH2 0x1175 JUMP JUMPDEST PUSH2 0x9E8 PUSH1 0x7 PUSH1 0xC DUP4 ADD SLOAD LT PUSH2 0x1411 JUMP JUMPDEST PUSH2 0x9F1 DUP3 PUSH2 0x10FC JUMP JUMPDEST SWAP1 SLOAD SWAP1 PUSH1 0x3 SHL SHR SWAP1 DUP3 PUSH0 MSTORE PUSH1 0x2E PUSH1 0x20 MSTORE PUSH1 0x40 PUSH0 KECCAK256 DUP5 PUSH0 MSTORE PUSH1 0x20 MSTORE PUSH1 0x1 PUSH1 0x40 PUSH0 KECCAK256 ADD SWAP1 DUP2 SLOAD SWAP2 DUP4 DUP4 LT PUSH2 0xB23 JUMPI PUSH2 0xA29 DUP5 PUSH1 0x1 SWAP5 PUSH2 0x144B JUMP JUMPDEST SWAP1 SSTORE PUSH1 0xD DUP2 ADD PUSH2 0xA3A DUP5 DUP3 SLOAD PUSH2 0x12A6 JUMP JUMPDEST SWAP1 SSTORE PUSH2 0xA47 DUP4 DUP7 DUP7 PUSH2 0x1501 JUMP JUMPDEST ADD PUSH1 0x40 MLOAD SWAP1 PUSH2 0xA55 DUP3 PUSH2 0x1234 JUMP JUMPDEST DUP3 DUP3 MSTORE PUSH1 0x20 DUP3 ADD SWAP1 PUSH0 DUP3 MSTORE PUSH1 0x40 DUP4 ADD SWAP3 TIMESTAMP DUP5 MSTORE PUSH1 0x60 DUP2 ADD SWAP4 PUSH1 0xA DUP6 MSTORE DUP3 SLOAD SWAP4 PUSH1 0x1 PUSH1 0x40 SHL DUP6 LT ISZERO PUSH2 0xB0F JUMPI PUSH1 0x1 DUP6 ADD DUP1 DUP6 SSTORE DUP6 LT ISZERO PUSH2 0x3EE JUMPI PUSH1 0xFF SWAP5 PUSH1 0x3 SWAP5 PUSH0 MSTORE PUSH1 0x20 PUSH0 KECCAK256 SWAP1 PUSH1 0x2 SHL ADD SWAP3 MLOAD DUP4 SSTORE MLOAD PUSH1 0x1 DUP4 ADD SSTORE MLOAD PUSH1 0x2 DUP3 ADD SSTORE ADD SWAP2 MLOAD AND PUSH1 0xFF NOT DUP3 SLOAD AND OR SWAP1 SSTORE PUSH1 0x40 MLOAD SWAP2 DUP3 MSTORE PUSH1 0x20 DUP3 ADD MSTORE PUSH1 0x80 PUSH1 0x40 DUP3 ADD MSTORE PUSH1 0x16 PUSH1 0x80 DUP3 ADD MSTORE PUSH22 0x506F6F6C205265546F70757020284561726E696E6729 PUSH1 0x50 SHL PUSH1 0xA0 DUP3 ADD MSTORE TIMESTAMP PUSH1 0x60 DUP3 ADD MSTORE PUSH0 MLOAD PUSH1 0x20 PUSH2 0x2121 PUSH0 CODECOPY PUSH0 MLOAD SWAP1 PUSH0 MSTORE PUSH1 0xC0 CALLER SWAP3 LOG3 STOP JUMPDEST PUSH4 0x4E487B71 PUSH1 0xE0 SHL PUSH0 MSTORE PUSH1 0x41 PUSH1 0x4 MSTORE PUSH1 0x24 PUSH0 REVERT JUMPDEST PUSH1 0x40 MLOAD PUSH3 0x461BCD PUSH1 0xE5 SHL DUP2 MSTORE PUSH1 0x20 PUSH1 0x4 DUP3 ADD MSTORE PUSH1 0x1A PUSH1 0x24 DUP3 ADD MSTORE PUSH32 0x4E6F7420656E6F756768207265546F7075702062616C616E6365000000000000 PUSH1 0x44 DUP3 ADD MSTORE PUSH1 0x64 SWAP1 REVERT JUMPDEST CALLVALUE PUSH2 0x23E JUMPI PUSH0 CALLDATASIZE PUSH1 0x3 NOT ADD SLT PUSH2 0x23E JUMPI PUSH1 0x20 PUSH1 0x40 MLOAD PUSH3 0x93A80 DUP2 MSTORE RETURN JUMPDEST CALLVALUE PUSH2 0x23E JUMPI PUSH0 CALLDATASIZE PUSH1 0x3 NOT ADD SLT PUSH2 0x23E JUMPI PUSH1 0x20 PUSH1 0x40 MLOAD PUSH4 0x2514300 DUP2 MSTORE RETURN JUMPDEST CALLVALUE PUSH2 0x23E JUMPI PUSH1 0x20 CALLDATASIZE PUSH1 0x3 NOT ADD SLT PUSH2 0x23E JUMPI PUSH1 0x60 PUSH2 0xBC1 PUSH1 0x4 CALLDATALOAD PUSH2 0x12B3 JUMP JUMPDEST SWAP2 SWAP1 PUSH1 0x20 PUSH1 0x40 MLOAD SWAP4 DUP5 SWAP3 ISZERO ISZERO DUP4 MSTORE PUSH1 0x40 DUP3 DUP5 ADD MSTORE DUP1 MLOAD SWAP2 DUP3 SWAP2 DUP3 PUSH1 0x40 DUP7 ADD MSTORE ADD DUP5 DUP5 ADD MCOPY PUSH0 DUP3 DUP3 ADD DUP5 ADD MSTORE PUSH1 0x1F ADD PUSH1 0x1F NOT AND DUP2 ADD SUB ADD SWAP1 RETURN JUMPDEST CALLVALUE PUSH2 0x23E JUMPI PUSH0 CALLDATASIZE PUSH1 0x3 NOT ADD SLT PUSH2 0x23E JUMPI PUSH1 0x20 PUSH1 0x48 SLOAD PUSH1 0x40 MLOAD SWAP1 DUP2 MSTORE RETURN JUMPDEST PUSH2 0x1129 JUMP JUMPDEST CALLVALUE PUSH2 0x23E JUMPI PUSH0 CALLDATASIZE PUSH1 0x3 NOT ADD SLT PUSH2 0x23E JUMPI PUSH1 0x20 PUSH1 0x46 SLOAD PUSH1 0x40 MLOAD SWAP1 DUP2 MSTORE RETURN JUMPDEST CALLVALUE PUSH2 0x23E JUMPI PUSH1 0x20 CALLDATASIZE PUSH1 0x3 NOT ADD SLT PUSH2 0x23E JUMPI PUSH1 0x4 CALLDATALOAD PUSH0 MSTORE PUSH1 0xA PUSH1 0x20 MSTORE PUSH1 0x20 PUSH1 0x40 PUSH0 KECCAK256 SLOAD PUSH1 0x40 MLOAD SWAP1 DUP2 MSTORE RETURN JUMPDEST CALLVALUE PUSH2 0x23E JUMPI PUSH1 0x20 CALLDATASIZE PUSH1 0x3 NOT ADD SLT PUSH2 0x23E JUMPI PUSH1 0x4 CALLDATALOAD DUP1 PUSH0 MSTORE PUSH1 0xF PUSH1 0x20 MSTORE PUSH1 0x40 PUSH0 KECCAK256 PUSH2 0xC97 PUSH1 0x1 DUP1 PUSH1 0xA0 SHL SUB DUP3 SLOAD AND CALLER EQ PUSH2 0x1175 JUMP JUMPDEST PUSH1 0xC DUP2 ADD SWAP1 DUP2 SLOAD SWAP2 PUSH1 0x7 DUP4 LT PUSH2 0xCAC DUP2 PUSH2 0x11B4 JUMP JUMPDEST ISZERO PUSH2 0x3EE JUMPI DUP3 PUSH1 0x17 ADD SLOAD PUSH1 0x6 DUP4 ADD SLOAD LT PUSH2 0xECE JUMPI DUP3 ISZERO SWAP2 DUP3 ISZERO PUSH2 0xEC9 JUMPI JUMPDEST DUP5 PUSH0 MSTORE PUSH1 0x33 PUSH1 0x20 MSTORE PUSH1 0x40 PUSH0 KECCAK256 DUP5 PUSH0 MSTORE PUSH1 0x20 MSTORE PUSH2 0xCED PUSH1 0xFF PUSH1 0x40 PUSH0 KECCAK256 SLOAD AND ISZERO PUSH2 0x11EF JUMP JUMPDEST PUSH2 0xCF6 DUP5 PUSH2 0x10FC JUMP JUMPDEST SWAP1 SLOAD PUSH1 0x1 SLOAD PUSH1 0x40 MLOAD PUSH4 0x23B872DD PUSH1 0xE0 SHL DUP2 MSTORE CALLER PUSH1 0x4 DUP3 ADD MSTORE ADDRESS PUSH1 0x24 DUP3 ADD MSTORE PUSH1 0x3 SWAP4 SWAP1 SWAP4 SHL SWAP2 SWAP1 SWAP2 SHR PUSH1 0x44 DUP4 ADD DUP2 SWAP1 MSTORE SWAP5 SWAP2 SWAP1 PUSH1 0x20 SWAP1 DUP3 SWAP1 PUSH1 0x64 SWAP1 DUP3 SWAP1 PUSH0 SWAP1 PUSH1 0x1 PUSH1 0x1 PUSH1 0xA0 SHL SUB AND GAS CALL DUP1 ISZERO PUSH2 0x5EE JUMPI PUSH2 0xEAC JUMPI JUMPDEST POP PUSH2 0xE39 JUMPI JUMPDEST PUSH1 0x1 PUSH1 0x8 DUP3 ADD SLOAD GT DUP1 PUSH2 0xE1A JUMPI JUMPDEST DUP1 PUSH2 0xE0C JUMPI JUMPDEST PUSH2 0xE00 JUMPI JUMPDEST DUP2 SLOAD PUSH1 0x1 DUP2 ADD DUP1 SWAP2 GT PUSH2 0x5AD JUMPI PUSH1 0xD SWAP3 SSTORE DUP5 PUSH0 MSTORE PUSH1 0x33 PUSH1 0x20 MSTORE PUSH1 0x40 PUSH0 KECCAK256 DUP5 PUSH0 MSTORE PUSH1 0x20 MSTORE PUSH1 0x40 PUSH0 KECCAK256 PUSH1 0x1 PUSH1 0xFF NOT DUP3 SLOAD AND OR SWAP1 SSTORE ADD PUSH2 0xDA7 DUP3 DUP3 SLOAD PUSH2 0x12A6 JUMP JUMPDEST SWAP1 SSTORE PUSH2 0xDB4 DUP2 DUP5 DUP5 PUSH2 0x1501 JUMP JUMPDEST PUSH1 0x1 DUP3 ADD DUP1 SWAP3 GT PUSH2 0x5AD JUMPI PUSH1 0x40 MLOAD SWAP2 DUP3 MSTORE PUSH1 0x20 DUP3 ADD MSTORE PUSH1 0x80 PUSH1 0x40 DUP3 ADD MSTORE PUSH1 0x4 PUSH1 0x80 DUP3 ADD MSTORE PUSH4 0x141BDBDB PUSH1 0xE2 SHL PUSH1 0xA0 DUP3 ADD MSTORE TIMESTAMP PUSH1 0x60 DUP3 ADD MSTORE PUSH0 MLOAD PUSH1 0x20 PUSH2 0x2121 PUSH0 CODECOPY PUSH0 MLOAD SWAP1 PUSH0 MSTORE PUSH1 0xC0 CALLER SWAP3 LOG3 STOP JUMPDEST PUSH1 0x14 PUSH1 0xB DUP3 ADD SSTORE PUSH2 0xD69 JUMP JUMPDEST POP PUSH1 0xF PUSH1 0xB DUP3 ADD SLOAD EQ PUSH2 0xD64 JUMP JUMPDEST POP PUSH1 0x11 DUP2 ADD SLOAD PUSH3 0x2A300 DUP2 ADD DUP1 SWAP2 GT PUSH2 0x5AD JUMPI PUSH1 0xE DUP3 ADD SLOAD GT ISZERO PUSH2 0xD5E JUMP JUMPDEST TIMESTAMP PUSH1 0xE DUP3 ADD SSTORE PUSH1 0x4 DUP2 ADD SLOAD PUSH0 MSTORE PUSH1 0xF PUSH1 0x20 MSTORE PUSH1 0x40 PUSH0 KECCAK256 PUSH1 0x11 DUP2 ADD SLOAD PUSH3 0x2A300 DUP2 ADD DUP1 SWAP2 GT PUSH2 0x5AD JUMPI TIMESTAMP LT ISZERO DUP1 PUSH2 0xE9E JUMPI JUMPDEST PUSH2 0xE75 JUMPI JUMPDEST POP PUSH2 0xD50 JUMP JUMPDEST PUSH1 0x8 DUP2 ADD DUP1 SLOAD PUSH1 0x1 DUP2 ADD DUP1 SWAP2 GT PUSH2 0x5AD JUMPI DUP1 PUSH1 0x1 SWAP3 SSTORE GT ISZERO PUSH2 0xE6F JUMPI PUSH1 0xB PUSH1 0x14 SWAP2 ADD SSTORE DUP6 PUSH2 0xE6F JUMP JUMPDEST POP PUSH1 0xF PUSH1 0xB DUP3 ADD SLOAD EQ PUSH2 0xE6A JUMP JUMPDEST PUSH2 0xEC4 SWAP1 PUSH1 0x20 RETURNDATASIZE PUSH1 0x20 GT PUSH2 0x5E7 JUMPI PUSH2 0x5DA DUP2 DUP4 PUSH2 0x126C JUMP JUMPDEST PUSH2 0xD4A JUMP JUMPDEST PUSH2 0xCCA JUMP JUMPDEST PUSH1 0x40 MLOAD PUSH3 0x461BCD PUSH1 0xE5 SHL DUP2 MSTORE PUSH1 0x20 PUSH1 0x4 DUP3 ADD MSTORE PUSH1 0x18 PUSH1 0x24 DUP3 ADD MSTORE PUSH32 0x5570677261646520796F7572206C6576656C2066697273740000000000000000 PUSH1 0x44 DUP3 ADD MSTORE PUSH1 0x64 SWAP1 REVERT JUMPDEST CALLVALUE PUSH2 0x23E JUMPI PUSH0 CALLDATASIZE PUSH1 0x3 NOT ADD SLT PUSH2 0x23E JUMPI PUSH1 0x20 PUSH1 0x40 MLOAD PUSH3 0x2A300 DUP2 MSTORE RETURN JUMPDEST CALLVALUE PUSH2 0x23E JUMPI PUSH1 0x20 CALLDATASIZE PUSH1 0x3 NOT ADD SLT PUSH2 0x23E JUMPI PUSH1 0x4 CALLDATALOAD PUSH1 0x7 SLOAD DUP2 LT ISZERO PUSH2 0x23E JUMPI PUSH1 0x7 SLOAD DUP2 LT ISZERO PUSH2 0x3EE JUMPI PUSH1 0x7 PUSH0 MSTORE PUSH32 0xA66CC928B5EDB82AF9BD49922954155AB7B0942694BEA4CE44661D9A8736C688 ADD SLOAD PUSH1 0x40 MLOAD SWAP1 DUP2 MSTORE PUSH1 0x20 SWAP1 RETURN JUMPDEST PUSH2 0x1144 JUMP JUMPDEST CALLVALUE PUSH2 0x23E JUMPI PUSH0 CALLDATASIZE PUSH1 0x3 NOT ADD SLT PUSH2 0x23E JUMPI PUSH1 0x20 PUSH1 0x40 MLOAD PUSH8 0xDE0B6B3A7640000 DUP2 MSTORE RETURN JUMPDEST CALLVALUE PUSH2 0x23E JUMPI PUSH0 CALLDATASIZE PUSH1 0x3 NOT ADD SLT PUSH2 0x23E JUMPI PUSH1 0x20 PUSH1 0x40 MLOAD PUSH3 0x15180 DUP2 MSTORE RETURN JUMPDEST CALLVALUE PUSH2 0x23E JUMPI PUSH0 CALLDATASIZE PUSH1 0x3 NOT ADD SLT PUSH2 0x23E JUMPI PUSH1 0x20 PUSH1 0x40 MLOAD PUSH1 0x2 DUP2 MSTORE RETURN JUMPDEST CALLVALUE PUSH2 0x23E JUMPI PUSH0 CALLDATASIZE PUSH1 0x3 NOT ADD SLT PUSH2 0x23E JUMPI PUSH1 0x20 PUSH1 0x3A SLOAD PUSH1 0x40 MLOAD SWAP1 DUP2 MSTORE RETURN JUMPDEST CALLVALUE PUSH2 0x23E JUMPI PUSH0 CALLDATASIZE PUSH1 0x3 NOT ADD SLT PUSH2 0x23E JUMPI PUSH1 0x1 SLOAD PUSH1 0x40 MLOAD PUSH1 0x1 PUSH1 0x1 PUSH1 0xA0 SHL SUB SWAP1 SWAP2 AND DUP2 MSTORE PUSH1 0x20 SWAP1 RETURN JUMPDEST CALLVALUE PUSH2 0x23E JUMPI PUSH0 CALLDATASIZE PUSH1 0x3 NOT ADD SLT PUSH2 0x23E JUMPI PUSH1 0x20 PUSH1 0x40 MLOAD PUSH3 0x278D00 DUP2 MSTORE RETURN JUMPDEST CALLVALUE PUSH2 0x23E JUMPI PUSH1 0x20 CALLDATASIZE PUSH1 0x3 NOT ADD SLT PUSH2 0x23E JUMPI PUSH1 0x4 CALLDATALOAD PUSH1 0x16 SLOAD DUP2 LT ISZERO PUSH2 0x23E JUMPI PUSH2 0x673 PUSH1 0x20 SWAP2 PUSH2 0x10E4 JUMP JUMPDEST CALLVALUE PUSH2 0x23E JUMPI PUSH1 0x20 CALLDATASIZE PUSH1 0x3 NOT ADD SLT PUSH2 0x23E JUMPI PUSH1 0x4 CALLDATALOAD PUSH1 0x7 DUP2 LT ISZERO PUSH2 0x23E JUMPI PUSH1 0x20 SWAP1 PUSH1 0x17 ADD SLOAD PUSH1 0x40 MLOAD SWAP1 DUP2 MSTORE RETURN JUMPDEST CALLVALUE PUSH2 0x23E JUMPI PUSH1 0x20 CALLDATASIZE PUSH1 0x3 NOT ADD SLT PUSH2 0x23E JUMPI PUSH1 0x4 CALLDATALOAD PUSH0 MSTORE PUSH1 0xC PUSH1 0x20 MSTORE PUSH1 0x20 PUSH1 0x40 PUSH0 KECCAK256 SLOAD PUSH1 0x40 MLOAD SWAP1 DUP2 MSTORE RETURN JUMPDEST CALLVALUE PUSH2 0x23E JUMPI PUSH0 CALLDATASIZE PUSH1 0x3 NOT ADD SLT PUSH2 0x23E JUMPI DUP1 PUSH2 0x2710 PUSH1 0x20 SWAP3 MSTORE RETURN JUMPDEST PUSH1 0x16 SLOAD DUP2 LT ISZERO PUSH2 0x3EE JUMPI PUSH1 0x16 PUSH0 MSTORE PUSH1 0x20 PUSH0 KECCAK256 ADD SWAP1 PUSH0 SWAP1 JUMP JUMPDEST PUSH1 0x15 SLOAD DUP2 LT ISZERO PUSH2 0x3EE JUMPI PUSH1 0x15 PUSH0 MSTORE PUSH1 0x20 PUSH0 KECCAK256 ADD SWAP1 PUSH0 SWAP1 JUMP JUMPDEST DUP1 SLOAD DUP3 LT ISZERO PUSH2 0x3EE JUMPI PUSH0 MSTORE PUSH1 0x20 PUSH0 KECCAK256 ADD SWAP1 PUSH0 SWAP1 JUMP JUMPDEST CALLVALUE PUSH2 0x23E JUMPI PUSH0 CALLDATASIZE PUSH1 0x3 NOT ADD SLT PUSH2 0x23E JUMPI PUSH1 0x20 PUSH1 0x40 MLOAD PUSH1 0xA DUP2 MSTORE RETURN JUMPDEST CALLVALUE PUSH2 0x23E JUMPI PUSH0 CALLDATASIZE PUSH1 0x3 NOT ADD SLT PUSH2 0x23E JUMPI PUSH1 0x20 PUSH1 0x40 MLOAD PUSH1 0xF DUP2 MSTORE RETURN JUMPDEST PUSH1 0x40 SWAP1 PUSH1 0x3 NOT ADD SLT PUSH2 0x23E JUMPI PUSH1 0x4 CALLDATALOAD SWAP1 PUSH1 0x24 CALLDATALOAD SWAP1 JUMP JUMPDEST ISZERO PUSH2 0x117C JUMPI JUMP JUMPDEST PUSH1 0x40 MLOAD PUSH3 0x461BCD PUSH1 0xE5 SHL DUP2 MSTORE PUSH1 0x20 PUSH1 0x4 DUP3 ADD MSTORE PUSH1 0x10 PUSH1 0x24 DUP3 ADD MSTORE PUSH16 0x139BDD081E5BDD5C881858D8DBDD5B9D PUSH1 0x82 SHL PUSH1 0x44 DUP3 ADD MSTORE PUSH1 0x64 SWAP1 REVERT JUMPDEST ISZERO PUSH2 0x11BB JUMPI JUMP JUMPDEST PUSH1 0x40 MLOAD PUSH3 0x461BCD PUSH1 0xE5 SHL DUP2 MSTORE PUSH1 0x20 PUSH1 0x4 DUP3 ADD MSTORE PUSH1 0xC PUSH1 0x24 DUP3 ADD MSTORE PUSH12 0x105D081B585E081B195D995B PUSH1 0xA2 SHL PUSH1 0x44 DUP3 ADD MSTORE PUSH1 0x64 SWAP1 REVERT JUMPDEST ISZERO PUSH2 0x11F6 JUMPI JUMP JUMPDEST PUSH1 0x40 MLOAD PUSH3 0x461BCD PUSH1 0xE5 SHL DUP2 MSTORE PUSH1 0x20 PUSH1 0x4 DUP3 ADD MSTORE PUSH1 0x16 PUSH1 0x24 DUP3 ADD MSTORE PUSH22 0x141BDBDB08185B1C9958591E481C1D5C98DA185CD959 PUSH1 0x52 SHL PUSH1 0x44 DUP3 ADD MSTORE PUSH1 0x64 SWAP1 REVERT JUMPDEST PUSH1 0x80 DUP2 ADD SWAP1 DUP2 LT PUSH8 0xFFFFFFFFFFFFFFFF DUP3 GT OR PUSH2 0xB0F JUMPI PUSH1 0x40 MSTORE JUMP JUMPDEST PUSH1 0xA0 DUP2 ADD SWAP1 DUP2 LT PUSH8 0xFFFFFFFFFFFFFFFF DUP3 GT OR PUSH2 0xB0F JUMPI PUSH1 0x40 MSTORE JUMP JUMPDEST SWAP1 PUSH1 0x1F DUP1 NOT SWAP2 ADD AND DUP2 ADD SWAP1 DUP2 LT PUSH8 0xFFFFFFFFFFFFFFFF DUP3 GT OR PUSH2 0xB0F JUMPI PUSH1 0x40 MSTORE JUMP JUMPDEST SWAP1 DUP2 PUSH1 0x20 SWAP2 SUB SLT PUSH2 0x23E JUMPI MLOAD DUP1 ISZERO ISZERO DUP2 SUB PUSH2 0x23E JUMPI SWAP1 JUMP JUMPDEST SWAP2 SWAP1 DUP3 ADD DUP1 SWAP3 GT PUSH2 0x5AD JUMPI JUMP JUMPDEST PUSH1 0x60 SWAP1 PUSH0 MSTORE PUSH1 0xF PUSH1 0x20 MSTORE PUSH1 0x40 PUSH0 KECCAK256 PUSH1 0xC DUP2 ADD SLOAD SWAP2 PUSH1 0x15 SLOAD DUP4 LT ISZERO PUSH2 0x13C5 JUMPI POP PUSH1 0x7 DUP3 LT ISZERO PUSH2 0x3EE JUMPI PUSH1 0x6 DUP3 PUSH1 0x17 ADD SLOAD SWAP2 ADD SLOAD LT PUSH2 0x1378 JUMPI ISZERO ISZERO DUP1 PUSH2 0x1371 JUMPI JUMPDEST PUSH2 0x1334 JUMPI PUSH1 0x1 SWAP1 PUSH1 0x40 MLOAD PUSH2 0x1307 PUSH1 0x40 DUP3 PUSH2 0x126C JUMP JUMPDEST PUSH1 0x19 DUP2 MSTORE PUSH32 0x456C696769626C6520746F20627579206E65787420706F6F6C00000000000000 PUSH1 0x20 DUP3 ADD MSTORE SWAP1 JUMP JUMPDEST PUSH0 SWAP1 PUSH1 0x40 MLOAD PUSH2 0x1344 PUSH1 0x40 DUP3 PUSH2 0x126C JUMP JUMPDEST PUSH1 0x17 DUP2 MSTORE PUSH32 0x4275792070726576696F757320706F6F6C206669727374000000000000000000 PUSH1 0x20 DUP3 ADD MSTORE SWAP1 JUMP JUMPDEST POP PUSH0 PUSH2 0x12F2 JUMP JUMPDEST POP PUSH0 SWAP1 PUSH1 0x40 MLOAD PUSH2 0x1389 PUSH1 0x60 DUP3 PUSH2 0x126C JUMP JUMPDEST PUSH1 0x26 DUP2 MSTORE PUSH32 0x596F75206E65656420746F207265616368206120686967686572206C6576656C PUSH1 0x20 DUP3 ADD MSTORE PUSH6 0x8199A5C9CDD PUSH1 0xD2 SHL PUSH1 0x40 DUP3 ADD MSTORE SWAP1 JUMP JUMPDEST SWAP3 SWAP2 POP POP PUSH0 SWAP2 PUSH2 0x13D8 PUSH1 0x40 MLOAD SWAP2 DUP3 PUSH2 0x126C JUMP JUMPDEST PUSH1 0x23 DUP2 MSTORE PUSH32 0x596F752061726520616C72656164792061742074686520686967686573742070 PUSH1 0x20 DUP3 ADD MSTORE PUSH3 0x1BDBDB PUSH1 0xEA SHL PUSH1 0x40 DUP3 ADD MSTORE SWAP1 JUMP JUMPDEST ISZERO PUSH2 0x1418 JUMPI JUMP JUMPDEST PUSH1 0x40 MLOAD PUSH3 0x461BCD PUSH1 0xE5 SHL DUP2 MSTORE PUSH1 0x20 PUSH1 0x4 DUP3 ADD MSTORE PUSH1 0xB PUSH1 0x24 DUP3 ADD MSTORE PUSH11 0x105D081B585E081C1BDBDB PUSH1 0xAA SHL PUSH1 0x44 DUP3 ADD MSTORE PUSH1 0x64 SWAP1 REVERT JUMPDEST SWAP2 SWAP1 DUP3 SUB SWAP2 DUP3 GT PUSH2 0x5AD JUMPI JUMP JUMPDEST ISZERO PUSH2 0x145F JUMPI JUMP JUMPDEST PUSH1 0x40 MLOAD PUSH3 0x461BCD PUSH1 0xE5 SHL DUP2 MSTORE PUSH1 0x20 PUSH1 0x4 DUP3 ADD MSTORE PUSH1 0x7 PUSH1 0x24 DUP3 ADD MSTORE PUSH7 0x125B9D985B1A59 PUSH1 0xCA SHL PUSH1 0x44 DUP3 ADD MSTORE PUSH1 0x64 SWAP1 REVERT JUMPDEST ISZERO PUSH2 0x1495 JUMPI JUMP JUMPDEST PUSH1 0x40 MLOAD PUSH3 0x461BCD PUSH1 0xE5 SHL DUP2 MSTORE PUSH1 0x20 PUSH1 0x4 DUP3 ADD MSTORE PUSH1 0x10 PUSH1 0x24 DUP3 ADD MSTORE PUSH16 0x125B98DBDC9C9958DD08185B5BDD5B9D PUSH1 0x82 SHL PUSH1 0x44 DUP3 ADD MSTORE PUSH1 0x64 SWAP1 REVERT JUMPDEST DUP1 SLOAD PUSH1 0x1 PUSH1 0x40 SHL DUP2 LT ISZERO PUSH2 0xB0F JUMPI PUSH2 0x14EA SWAP2 PUSH1 0x1 DUP3 ADD DUP2 SSTORE PUSH2 0x1114 JUMP JUMPDEST DUP2 SWAP3 SWAP2 SLOAD SWAP1 PUSH1 0x3 SHL SWAP2 DUP3 SHL SWAP2 PUSH0 NOT SWAP1 SHL NOT AND OR SWAP1 SSTORE JUMP JUMPDEST SWAP1 SWAP3 SWAP2 PUSH1 0x15 SLOAD SWAP4 PUSH2 0x1514 PUSH0 SWAP6 DUP5 LT PUSH2 0x1458 JUMP JUMPDEST PUSH2 0x152E PUSH2 0x1520 DUP5 PUSH2 0x10FC JUMP JUMPDEST SWAP1 SLOAD SWAP1 PUSH1 0x3 SHL SHR CALLVALUE EQ PUSH2 0x148E JUMP JUMPDEST DUP3 PUSH0 MSTORE PUSH1 0x32 PUSH1 0x20 MSTORE PUSH1 0x40 PUSH0 KECCAK256 SLOAD PUSH2 0x1547 DUP2 PUSH1 0x5 SLOAD PUSH2 0x12A6 JUMP JUMPDEST SWAP1 DUP5 PUSH0 MSTORE PUSH1 0x32 PUSH1 0x20 MSTORE PUSH2 0x155D DUP3 PUSH1 0x40 PUSH0 KECCAK256 PUSH2 0x14CD JUMP JUMPDEST PUSH0 NOT DUP2 ADD SWAP1 DUP2 GT PUSH2 0x5AD JUMPI PUSH2 0x1583 PUSH1 0x3 PUSH2 0x162B SWAP3 DUP8 PUSH0 MSTORE PUSH1 0x32 PUSH1 0x20 MSTORE DIV PUSH1 0x40 PUSH0 KECCAK256 PUSH2 0x1114 JUMP JUMPDEST SWAP1 SLOAD SWAP1 PUSH1 0x3 SHL SHR SWAP2 PUSH2 0x15F1 PUSH1 0x40 MLOAD PUSH2 0x159A DUP2 PUSH2 0x1250 JUMP JUMPDEST DUP3 DUP2 MSTORE PUSH1 0x20 DUP1 DUP3 ADD DUP8 DUP2 MSTORE PUSH1 0x40 DUP1 DUP5 ADD DUP12 DUP2 MSTORE PUSH1 0x60 DUP6 ADD DUP10 DUP2 MSTORE PUSH0 PUSH1 0x80 DUP8 ADD DUP2 DUP2 MSTORE DUP15 DUP3 MSTORE PUSH1 0x2F DUP8 MSTORE DUP5 DUP3 KECCAK256 DUP11 DUP4 MSTORE SWAP1 SWAP7 MSTORE SWAP3 SWAP1 SWAP3 KECCAK256 SWAP5 MLOAD DUP6 SSTORE SWAP2 MLOAD PUSH1 0x1 DUP6 ADD SSTORE SWAP1 MLOAD PUSH1 0x2 DUP5 ADD SSTORE MLOAD PUSH1 0x3 DUP4 ADD SSTORE MLOAD PUSH1 0x4 SWAP1 SWAP2 ADD SSTORE JUMP JUMPDEST DUP6 PUSH0 MSTORE PUSH1 0x31 PUSH1 0x20 MSTORE PUSH1 0x40 PUSH0 KECCAK256 DUP5 PUSH0 MSTORE PUSH1 0x20 MSTORE PUSH2 0x1610 DUP2 PUSH1 0x40 PUSH0 KECCAK256 PUSH2 0x14CD JUMP JUMPDEST DUP6 PUSH0 MSTORE PUSH1 0x30 PUSH1 0x20 MSTORE PUSH1 0x40 PUSH0 KECCAK256 DUP4 PUSH0 MSTORE PUSH1 0x20 MSTORE PUSH1 0x40 PUSH0 KECCAK256 PUSH2 0x14CD JUMP JUMPDEST SWAP1 PUSH1 0x3 DUP4 DIV SWAP6 PUSH0 SWAP5 PUSH0 SWAP4 JUMPDEST PUSH1 0x3 DUP6 LT PUSH2 0x1662 JUMPI JUMPDEST POP POP POP POP POP PUSH2 0x164F SWAP3 SWAP4 POP PUSH2 0x144B JUMP JUMPDEST DUP1 PUSH2 0x1657 JUMPI POP JUMP JUMPDEST PUSH2 0x1660 SWAP1 PUSH2 0x1DAB JUMP JUMPDEST JUMP JUMPDEST DUP1 ISZERO DUP1 ISZERO PUSH2 0x1908 JUMPI JUMPDEST PUSH2 0x18D4 JUMPI DUP2 DUP4 MSTORE PUSH1 0x2F PUSH1 0x20 MSTORE PUSH1 0x40 DUP4 KECCAK256 SWAP1 DUP4 MSTORE PUSH1 0x20 MSTORE PUSH1 0x40 DUP3 KECCAK256 SWAP6 DUP9 PUSH1 0x1 DUP9 ADD SLOAD PUSH1 0x4 DUP10 ADD DUP1 SLOAD SWAP1 PUSH1 0x27 DUP3 LT PUSH2 0x16B8 JUMPI JUMPDEST POP POP POP PUSH2 0x16AD PUSH1 0x3 SWAP2 PUSH1 0x1 SWAP4 PUSH2 0x12A6 JUMP JUMPDEST SWAP8 ADD SLOAD SWAP5 ADD SWAP4 PUSH2 0x1636 JUMP JUMPDEST SWAP1 SWAP2 SWAP3 POP PUSH1 0x1 DUP3 ADD DUP1 SWAP3 GT PUSH2 0x1863 JUMPI DUP2 SWAP1 SSTORE DUP11 SWAP1 PUSH1 0x18 DUP2 GT PUSH2 0x1877 JUMPI POP POP DUP1 DUP5 MSTORE PUSH1 0x10 PUSH1 0x20 MSTORE PUSH1 0x7 PUSH1 0x40 DUP6 KECCAK256 ADD PUSH2 0x16F0 DUP12 DUP3 SLOAD PUSH2 0x12A6 JUMP JUMPDEST SWAP1 SSTORE PUSH1 0x5F DUP11 MUL DUP11 ISZERO SWAP1 DUP12 DUP2 DIV PUSH1 0x5F EQ DUP3 OR ISZERO PUSH2 0x1863 JUMPI DUP3 DUP7 MSTORE PUSH1 0xF PUSH1 0x20 MSTORE PUSH1 0x40 DUP7 KECCAK256 SLOAD PUSH1 0x1 PUSH1 0x1 PUSH1 0xA0 SHL SUB AND SWAP3 PUSH1 0x64 SWAP1 SWAP2 DIV SWAP1 DUP4 ISZERO PUSH2 0x182F JUMPI DUP2 ISZERO PUSH2 0x17FC JUMPI DUP1 DUP8 MSTORE PUSH1 0x10 PUSH1 0x20 MSTORE PUSH1 0x40 DUP8 KECCAK256 SWAP7 DUP1 PUSH2 0x17E8 JUMPI POP PUSH2 0x174D DUP3 DUP9 SLOAD PUSH2 0x12A6 JUMP JUMPDEST DUP8 SSTORE PUSH1 0x7 PUSH0 SWAP8 ADD PUSH2 0x175F DUP4 DUP3 SLOAD PUSH2 0x12A6 JUMP JUMPDEST SWAP1 SSTORE PUSH1 0x1 SLOAD PUSH2 0x177A SWAP1 DUP4 SWAP1 DUP7 SWAP1 PUSH1 0x1 PUSH1 0x1 PUSH1 0xA0 SHL SUB AND PUSH2 0x2092 JUMP JUMPDEST PUSH1 0x40 MLOAD SWAP2 DUP3 MSTORE PUSH1 0x1 PUSH1 0x20 DUP4 ADD MSTORE PUSH1 0x5 SWAP4 PUSH32 0x4D634C31300B97DAD99B3AF799178230163D88AD306370D063BE9CD992D0BE7F PUSH1 0x80 DUP5 DUP8 PUSH1 0x40 DUP14 SWAP8 ADD MSTORE TIMESTAMP PUSH1 0x60 DUP3 ADD MSTORE LOG4 DUP2 DUP12 MUL SWAP2 DUP12 DUP4 DIV EQ OR ISZERO PUSH2 0x5AD JUMPI PUSH2 0x16AD DUP11 PUSH1 0x1 SWAP4 PUSH2 0x17DF PUSH1 0x64 PUSH1 0x3 SWAP6 DIV PUSH2 0x1DAB JUMP JUMPDEST SWAP4 DUP2 SWAP4 POP PUSH2 0x169C JUMP JUMPDEST PUSH4 0x4E487B71 PUSH1 0xE0 SHL DUP2 MSTORE PUSH1 0x21 PUSH1 0x4 MSTORE PUSH1 0x24 SWAP1 REVERT JUMPDEST PUSH1 0x40 MLOAD PUSH3 0x461BCD PUSH1 0xE5 SHL DUP2 MSTORE PUSH1 0x20 PUSH1 0x4 DUP3 ADD MSTORE PUSH1 0xB PUSH1 0x24 DUP3 ADD MSTORE PUSH11 0x16995C9BC8185B5BDD5B9D PUSH1 0xAA SHL PUSH1 0x44 DUP3 ADD MSTORE PUSH1 0x64 SWAP1 REVERT JUMPDEST PUSH1 0x40 MLOAD PUSH3 0x461BCD PUSH1 0xE5 SHL DUP2 MSTORE PUSH1 0x20 PUSH1 0x4 DUP3 ADD MSTORE PUSH1 0xC PUSH1 0x24 DUP3 ADD MSTORE PUSH12 0x24B73B30B634B2103AB9B2B9 PUSH1 0xA1 SHL PUSH1 0x44 DUP3 ADD MSTORE PUSH1 0x64 SWAP1 REVERT JUMPDEST PUSH4 0x4E487B71 PUSH1 0xE0 SHL DUP7 MSTORE PUSH1 0x11 PUSH1 0x4 MSTORE PUSH1 0x24 DUP7 REVERT JUMPDEST PUSH1 0x1 SWAP4 PUSH1 0x3 SWAP4 PUSH2 0x16AD SWAP4 SWAP3 PUSH1 0x24 LT PUSH2 0x18B1 JUMPI DUP7 DUP9 MSTORE PUSH1 0x2E PUSH1 0x20 MSTORE PUSH1 0x40 DUP9 KECCAK256 SWAP1 DUP9 MSTORE PUSH1 0x20 MSTORE PUSH1 0x40 DUP8 KECCAK256 PUSH2 0x18AA DUP4 DUP3 SLOAD PUSH2 0x12A6 JUMP JUMPDEST SWAP1 SSTORE PUSH2 0x17DF JUMP JUMPDEST DUP7 DUP9 MSTORE PUSH1 0x2E PUSH1 0x20 MSTORE PUSH1 0x40 DUP9 KECCAK256 SWAP1 DUP9 MSTORE PUSH1 0x20 MSTORE DUP5 PUSH1 0x40 DUP9 KECCAK256 ADD PUSH2 0x18AA DUP4 DUP3 SLOAD PUSH2 0x12A6 JUMP JUMPDEST POP POP POP POP POP PUSH2 0x164F SWAP3 SWAP4 POP PUSH2 0x18E9 DUP3 DUP3 PUSH2 0x144B JUMP JUMPDEST DUP1 PUSH2 0x18F9 JUMPI JUMPDEST DUP5 SWAP4 DUP2 DUP1 DUP1 PUSH2 0x163F JUMP JUMPDEST PUSH2 0x1902 SWAP1 PUSH2 0x1DAB JUMP JUMPDEST PUSH0 PUSH2 0x18EF JUMP JUMPDEST POP PUSH1 0x5 SLOAD DUP2 EQ PUSH2 0x166B JUMP JUMPDEST SWAP1 PUSH2 0x1921 PUSH1 0x16 SLOAD DUP4 LT PUSH2 0x1458 JUMP JUMPDEST PUSH2 0x192D PUSH2 0x1520 DUP4 PUSH2 0x10E4 JUMP JUMPDEST PUSH0 DUP3 DUP2 MSTORE PUSH1 0x36 PUSH1 0x20 MSTORE PUSH1 0x40 SWAP1 KECCAK256 DUP1 SLOAD SWAP1 PUSH2 0x1948 SWAP1 DUP4 SWAP1 PUSH2 0x14CD JUMP JUMPDEST PUSH0 NOT DUP2 ADD SWAP1 DUP2 GT PUSH2 0x5AD JUMPI PUSH1 0x3 PUSH2 0x196B SWAP2 DUP5 PUSH0 MSTORE PUSH1 0x36 PUSH1 0x20 MSTORE DIV PUSH1 0x40 PUSH0 KECCAK256 PUSH2 0x1114 JUMP JUMPDEST SWAP1 SLOAD SWAP1 PUSH1 0x3 SHL SHR SWAP2 PUSH2 0x19D9 PUSH1 0x40 MLOAD PUSH2 0x1982 DUP2 PUSH2 0x1250 JUMP JUMPDEST DUP4 DUP2 MSTORE PUSH1 0x20 DUP1 DUP3 ADD DUP5 DUP2 MSTORE PUSH1 0x40 DUP1 DUP5 ADD DUP9 DUP2 MSTORE PUSH0 PUSH1 0x60 DUP7 ADD DUP2 DUP2 MSTORE TIMESTAMP PUSH1 0x80 DUP9 ADD SWAP1 DUP2 MSTORE DUP10 DUP4 MSTORE PUSH1 0x34 DUP8 MSTORE DUP5 DUP4 KECCAK256 DUP12 DUP5 MSTORE SWAP1 SWAP7 MSTORE SWAP3 SWAP1 KECCAK256 SWAP5 MLOAD DUP6 SSTORE SWAP2 MLOAD PUSH1 0x1 DUP6 ADD SSTORE SWAP1 MLOAD PUSH1 0x2 DUP5 ADD SSTORE MLOAD PUSH1 0x3 DUP4 ADD SSTORE MLOAD PUSH1 0x4 SWAP1 SWAP2 ADD SSTORE JUMP JUMPDEST DUP1 PUSH0 MSTORE PUSH1 0x35 PUSH1 0x20 MSTORE PUSH1 0x40 PUSH0 KECCAK256 DUP4 PUSH0 MSTORE PUSH1 0x20 MSTORE PUSH2 0x19F8 DUP3 PUSH1 0x40 PUSH0 KECCAK256 PUSH2 0x14CD JUMP JUMPDEST PUSH1 0x1 DUP2 EQ PUSH2 0x1B4D JUMPI JUMPDEST DUP3 ISZERO DUP1 ISZERO PUSH2 0x1B42 JUMPI JUMPDEST PUSH2 0x1B36 JUMPI PUSH0 MSTORE PUSH1 0x34 PUSH1 0x20 MSTORE PUSH1 0x40 PUSH0 KECCAK256 DUP3 PUSH0 MSTORE PUSH1 0x20 MSTORE PUSH1 0x3 PUSH1 0x40 PUSH0 KECCAK256 ADD PUSH1 0x3 DUP2 SLOAD LT PUSH0 EQ PUSH2 0x1B36 JUMPI DUP1 SLOAD SWAP1 PUSH1 0x1 DUP3 ADD DUP1 SWAP3 GT PUSH2 0x5AD JUMPI SSTORE DUP2 PUSH0 MSTORE PUSH1 0x10 PUSH1 0x20 MSTORE PUSH1 0x8 PUSH1 0x40 PUSH0 KECCAK256 ADD PUSH2 0x1A5A DUP5 DUP3 SLOAD PUSH2 0x12A6 JUMP JUMPDEST SWAP1 SSTORE PUSH1 0x5F DUP4 MUL SWAP2 DUP4 ISZERO SWAP3 DUP5 DUP2 DIV PUSH1 0x5F EQ DUP5 OR ISZERO PUSH2 0x5AD JUMPI PUSH0 DUP3 DUP2 MSTORE PUSH1 0xF PUSH1 0x20 MSTORE PUSH1 0x40 SWAP1 KECCAK256 SLOAD PUSH1 0x1 PUSH1 0x1 PUSH1 0xA0 SHL SUB AND SWAP1 PUSH1 0x64 SWAP1 DIV DUP2 ISZERO PUSH2 0x182F JUMPI DUP1 ISZERO PUSH2 0x17FC JUMPI DUP3 PUSH0 MSTORE PUSH1 0x10 PUSH1 0x20 MSTORE PUSH1 0x8 PUSH1 0x40 PUSH0 KECCAK256 PUSH2 0x1AB2 DUP4 DUP3 SLOAD PUSH2 0x12A6 JUMP JUMPDEST DUP2 SSTORE ADD PUSH2 0x1AC0 DUP3 DUP3 SLOAD PUSH2 0x12A6 JUMP JUMPDEST SWAP1 SSTORE PUSH1 0x1 SLOAD PUSH2 0x1ADB SWAP1 DUP3 SWAP1 DUP5 SWAP1 PUSH1 0x1 PUSH1 0x1 PUSH1 0xA0 SHL SUB AND PUSH2 0x2092 JUMP JUMPDEST PUSH1 0x40 MLOAD SWAP1 DUP2 MSTORE PUSH1 0x1 PUSH1 0x20 DUP3 ADD MSTORE PUSH1 0x80 DUP2 PUSH1 0x6 PUSH1 0x40 PUSH32 0x4D634C31300B97DAD99B3AF799178230163D88AD306370D063BE9CD992D0BE7F SWAP5 ADD MSTORE TIMESTAMP PUSH1 0x60 DUP3 ADD MSTORE LOG4 PUSH1 0x5 DUP3 MUL SWAP2 DUP3 DIV PUSH1 0x5 EQ OR ISZERO PUSH2 0x5AD JUMPI PUSH1 0x64 PUSH2 0x1660 SWAP2 DIV PUSH2 0x1DAB JUMP JUMPDEST POP POP POP PUSH2 0x1660 SWAP1 PUSH2 0x1DAB JUMP JUMPDEST POP PUSH1 0x5 SLOAD DUP4 EQ PUSH2 0x1A0A JUMP JUMPDEST DUP2 PUSH0 MSTORE PUSH1 0xF PUSH1 0x20 MSTORE PUSH1 0x40 PUSH0 KECCAK256 PUSH1 0x40 MLOAD SWAP1 PUSH2 0x2C0 DUP3 ADD DUP3 DUP2 LT PUSH8 0xFFFFFFFFFFFFFFFF DUP3 GT OR PUSH2 0xB0F JUMPI PUSH1 0x40 MSTORE DUP1 SLOAD PUSH1 0x1 PUSH1 0x1 PUSH1 0xA0 SHL SUB AND DUP3 MSTORE PUSH1 0x1 DUP2 ADD DUP1 SLOAD PUSH8 0xFFFFFFFFFFFFFFFF DUP2 GT PUSH2 0xB0F JUMPI PUSH1 0x40 MLOAD SWAP2 PUSH2 0x1BAE PUSH1 0x20 DUP4 PUSH1 0x5 SHL ADD DUP5 PUSH2 0x126C JUMP JUMPDEST DUP2 DUP4 MSTORE PUSH1 0x20 DUP4 ADD SWAP1 PUSH0 MSTORE PUSH1 0x20 PUSH0 KECCAK256 PUSH0 SWAP2 JUMPDEST DUP4 DUP4 LT PUSH2 0x1D34 JUMPI POP POP POP POP PUSH1 0x20 DUP4 ADD MSTORE PUSH1 0x2 DUP2 ADD SLOAD PUSH1 0x40 DUP4 ADD MSTORE PUSH1 0x3 DUP2 ADD SLOAD PUSH1 0x60 DUP4 ADD MSTORE PUSH1 0x4 DUP2 ADD SLOAD SWAP2 PUSH1 0x80 DUP2 ADD SWAP3 DUP4 MSTORE PUSH1 0x5 DUP3 ADD SLOAD PUSH1 0xA0 DUP3 ADD MSTORE PUSH1 0x6 DUP3 ADD SLOAD PUSH1 0xC0 DUP3 ADD MSTORE PUSH1 0x7 DUP3 ADD SLOAD PUSH1 0xE0 DUP3 ADD MSTORE PUSH1 0x8 DUP3 ADD SLOAD PUSH2 0x100 DUP3 ADD MSTORE PUSH1 0x9 DUP3 ADD SLOAD PUSH2 0x120 DUP3 ADD MSTORE PUSH1 0xA DUP3 ADD SLOAD PUSH2 0x140 DUP3 ADD MSTORE PUSH1 0xB DUP3 ADD SLOAD PUSH2 0x160 DUP3 ADD MSTORE PUSH1 0xC DUP3 ADD SLOAD PUSH2 0x180 DUP3 ADD MSTORE PUSH1 0xD DUP3 ADD SLOAD PUSH2 0x1A0 DUP3 ADD MSTORE PUSH1 0xE DUP3 ADD SLOAD PUSH2 0x1C0 DUP3 ADD MSTORE PUSH1 0xF DUP3 ADD SLOAD PUSH2 0x1E0 DUP3 ADD MSTORE PUSH1 0x10 DUP3 ADD SLOAD PUSH2 0x200 DUP3 ADD MSTORE PUSH2 0x2A0 PUSH1 0x15 PUSH1 0x11 DUP5 ADD SLOAD SWAP4 PUSH2 0x220 DUP5 ADD SWAP5 DUP6 MSTORE PUSH1 0x12 DUP2 ADD SLOAD PUSH2 0x240 DUP6 ADD MSTORE PUSH1 0x13 DUP2 ADD SLOAD PUSH2 0x260 DUP6 ADD MSTORE PUSH1 0x14 DUP2 ADD SLOAD PUSH2 0x280 DUP6 ADD MSTORE ADD SLOAD SWAP2 ADD MSTORE PUSH1 0x38 SLOAD PUSH0 MSTORE PUSH1 0x3E PUSH1 0x20 MSTORE PUSH1 0x40 PUSH0 KECCAK256 DUP3 MLOAD PUSH0 MSTORE PUSH1 0x20 MSTORE PUSH2 0x1CCC DUP5 PUSH1 0x40 PUSH0 KECCAK256 PUSH2 0x14CD JUMP JUMPDEST PUSH1 0x38 SLOAD SWAP1 DUP2 PUSH0 MSTORE PUSH1 0x3E PUSH1 0x20 MSTORE PUSH1 0x40 PUSH0 KECCAK256 DUP4 MLOAD PUSH0 MSTORE PUSH1 0x20 MSTORE PUSH1 0x40 PUSH0 KECCAK256 SLOAD SWAP1 MLOAD SWAP2 PUSH3 0x15180 DUP4 ADD DUP1 SWAP4 GT PUSH2 0x5AD JUMPI PUSH1 0x5 SWAP3 TIMESTAMP GT ISZERO PUSH2 0x1D24 JUMPI JUMPDEST POP LT ISZERO PUSH2 0x1D11 JUMPI JUMPDEST POP PUSH2 0x1A01 JUMP JUMPDEST MLOAD PUSH1 0x38 SLOAD PUSH2 0x1D1E SWAP2 PUSH2 0x1D78 JUMP JUMPDEST PUSH0 PUSH2 0x1D0B JUMP JUMPDEST PUSH2 0x1D2E SWAP1 DUP7 PUSH2 0x1D78 JUMP JUMPDEST PUSH0 PUSH2 0x1D03 JUMP JUMPDEST PUSH1 0x4 PUSH1 0x20 PUSH1 0x1 SWAP3 PUSH1 0x40 MLOAD PUSH2 0x1D47 DUP2 PUSH2 0x1234 JUMP JUMPDEST DUP6 SLOAD DUP2 MSTORE DUP5 DUP7 ADD SLOAD DUP4 DUP3 ADD MSTORE PUSH1 0x2 DUP7 ADD SLOAD PUSH1 0x40 DUP3 ADD MSTORE PUSH1 0xFF PUSH1 0x3 DUP8 ADD SLOAD AND PUSH1 0x60 DUP3 ADD MSTORE DUP2 MSTORE ADD SWAP3 ADD SWAP3 ADD SWAP2 SWAP1 PUSH2 0x1BBF JUMP JUMPDEST SWAP1 DUP1 PUSH0 MSTORE PUSH1 0x3D PUSH1 0x20 MSTORE PUSH1 0x40 PUSH0 KECCAK256 DUP3 PUSH0 MSTORE PUSH1 0x20 MSTORE PUSH1 0xFF PUSH1 0x3 PUSH1 0x40 PUSH0 KECCAK256 ADD SLOAD PUSH1 0x8 SHR AND ISZERO PUSH2 0x1DA2 JUMPI POP POP JUMP JUMPDEST PUSH2 0x1660 SWAP2 PUSH2 0x1E7A JUMP JUMPDEST PUSH1 0x2 SLOAD PUSH1 0x1 PUSH1 0x1 PUSH1 0xA0 SHL SUB AND SWAP1 DUP2 ISZERO PUSH2 0x1E41 JUMPI PUSH1 0x1 SLOAD PUSH1 0x80 SWAP3 PUSH2 0x1DD9 SWAP2 DUP4 SWAP2 SWAP1 PUSH1 0x1 PUSH1 0x1 PUSH1 0xA0 SHL SUB AND PUSH2 0x2092 JUMP JUMPDEST PUSH1 0x5 SLOAD PUSH0 MSTORE PUSH1 0x10 PUSH1 0x20 MSTORE PUSH1 0x40 PUSH0 KECCAK256 PUSH2 0x1DF2 DUP3 DUP3 SLOAD PUSH2 0x12A6 JUMP JUMPDEST SWAP1 SSTORE PUSH1 0x1 DUP1 PUSH1 0xA0 SHL SUB PUSH1 0x2 SLOAD AND PUSH32 0x4D634C31300B97DAD99B3AF799178230163D88AD306370D063BE9CD992D0BE7F PUSH1 0x5 SLOAD SWAP4 DUP5 SWAP4 PUSH1 0x40 MLOAD SWAP1 DUP2 MSTORE PUSH0 PUSH1 0x20 DUP3 ADD MSTORE PUSH0 PUSH1 0x40 DUP3 ADD MSTORE TIMESTAMP PUSH1 0x60 DUP3 ADD MSTORE LOG4 JUMP JUMPDEST PUSH1 0x40 MLOAD PUSH3 0x461BCD PUSH1 0xE5 SHL DUP2 MSTORE PUSH1 0x20 PUSH1 0x4 DUP3 ADD MSTORE PUSH1 0x11 PUSH1 0x24 DUP3 ADD MSTORE PUSH17 0x199959481859191C9CC81B9BDD081CD95D PUSH1 0x7A SHL PUSH1 0x44 DUP3 ADD MSTORE PUSH1 0x64 SWAP1 REVERT JUMPDEST PUSH1 0x38 SLOAD DUP3 SUB PUSH2 0x205D JUMPI DUP2 PUSH0 MSTORE PUSH1 0x3B PUSH1 0x20 MSTORE PUSH1 0xFF PUSH1 0x8 PUSH1 0x40 PUSH0 KECCAK256 ADD SLOAD AND PUSH2 0x2029 JUMPI PUSH0 DUP2 DUP2 MSTORE PUSH32 0x7FB70D3B53B50F6798636307BC089A811F848F8C80C93EB14575305275478318 PUSH1 0x20 MSTORE PUSH1 0x40 SWAP1 DUP2 SWAP1 KECCAK256 SWAP1 MLOAD SWAP1 PUSH1 0x4 SWAP1 PUSH2 0x1ED7 DUP4 PUSH2 0x1250 JUMP JUMPDEST DUP1 SLOAD DUP4 MSTORE PUSH1 0x1 DUP2 ADD SLOAD PUSH1 0x20 DUP5 ADD MSTORE PUSH1 0x2 DUP2 ADD SLOAD PUSH1 0x40 DUP5 ADD MSTORE PUSH1 0x3 DUP2 ADD SLOAD PUSH1 0x60 DUP5 ADD MSTORE ADD SLOAD PUSH1 0x80 DUP3 ADD SWAP1 DUP2 MSTORE DUP4 PUSH0 MSTORE PUSH1 0x3E PUSH1 0x20 MSTORE PUSH1 0x40 PUSH0 KECCAK256 DUP4 PUSH0 MSTORE PUSH1 0x20 MSTORE DUP3 PUSH1 0x5 PUSH1 0x40 PUSH0 KECCAK256 SLOAD LT SWAP3 MLOAD EQ SWAP1 DUP2 PUSH2 0x2000 JUMPI JUMPDEST POP DUP2 ISZERO SWAP2 PUSH2 0x1FF8 JUMPI JUMPDEST POP ISZERO PUSH2 0x1FB3 JUMPI DUP2 PUSH0 MSTORE PUSH1 0x3D PUSH1 0x20 MSTORE PUSH1 0x40 PUSH0 KECCAK256 DUP2 PUSH0 MSTORE PUSH1 0x20 MSTORE PUSH1 0x40 PUSH0 KECCAK256 SWAP2 PUSH1 0x3 DUP4 ADD SWAP2 DUP3 SLOAD SWAP3 PUSH1 0xFF DUP5 PUSH1 0x8 SHR AND PUSH2 0x1FAC JUMPI PUSH2 0x100 PUSH1 0x60 SWAP5 DUP5 PUSH1 0x1 PUSH32 0x360CB96D3E85B4FC299DDFA9A572850FC70961C86F0F1703F033143B0E5A82CF SWAP9 TIMESTAMP DUP2 SSTORE ADD SSTORE PUSH2 0xFF00 NOT AND OR SWAP1 SSTORE PUSH1 0x40 MLOAD SWAP2 DUP3 MSTORE PUSH1 0x20 DUP3 ADD MSTORE TIMESTAMP PUSH1 0x40 DUP3 ADD MSTORE LOG1 JUMP JUMPDEST POP POP POP POP POP JUMP JUMPDEST PUSH1 0x40 MLOAD PUSH3 0x461BCD PUSH1 0xE5 SHL DUP2 MSTORE PUSH1 0x20 PUSH1 0x4 DUP3 ADD MSTORE PUSH1 0x1F PUSH1 0x24 DUP3 ADD MSTORE PUSH32 0x4E6F7420656C696769626C6520666F72207765656B6C7920636F6E7465737400 PUSH1 0x44 DUP3 ADD MSTORE PUSH1 0x64 SWAP1 REVERT JUMPDEST SWAP1 POP PUSH0 PUSH2 0x1F30 JUMP JUMPDEST SWAP1 POP MLOAD DUP3 PUSH0 MSTORE PUSH1 0xF PUSH1 0x20 MSTORE PUSH1 0x11 PUSH1 0x40 PUSH0 KECCAK256 ADD SLOAD SWAP1 PUSH3 0x15180 DUP3 ADD DUP1 SWAP3 GT PUSH2 0x5AD JUMPI GT ISZERO PUSH0 PUSH2 0x1F27 JUMP JUMPDEST PUSH1 0x40 MLOAD PUSH3 0x461BCD PUSH1 0xE5 SHL DUP2 MSTORE PUSH1 0x20 PUSH1 0x4 DUP3 ADD MSTORE PUSH1 0xC PUSH1 0x24 DUP3 ADD MSTORE PUSH12 0x149BDD5B990818DB1BDCD959 PUSH1 0xA2 SHL PUSH1 0x44 DUP3 ADD MSTORE PUSH1 0x64 SWAP1 REVERT JUMPDEST PUSH1 0x40 MLOAD PUSH3 0x461BCD PUSH1 0xE5 SHL DUP2 MSTORE PUSH1 0x20 PUSH1 0x4 DUP3 ADD MSTORE PUSH1 0xD PUSH1 0x24 DUP3 ADD MSTORE PUSH13 0x125B9D985B1A59081C9BDD5B99 PUSH1 0x9A SHL PUSH1 0x44 DUP3 ADD MSTORE PUSH1 0x64 SWAP1 REVERT JUMPDEST PUSH1 0x40 MLOAD PUSH4 0xA9059CBB PUSH1 0xE0 SHL PUSH1 0x20 DUP3 DUP2 ADD SWAP2 DUP3 MSTORE PUSH1 0x1 PUSH1 0x1 PUSH1 0xA0 SHL SUB SWAP1 SWAP5 AND PUSH1 0x24 DUP4 ADD MSTORE PUSH1 0x44 DUP1 DUP4 ADD SWAP6 SWAP1 SWAP6 MSTORE SWAP4 DUP2 MSTORE SWAP1 SWAP3 PUSH0 SWAP2 PUSH2 0x20D0 PUSH1 0x64 DUP3 PUSH2 0x126C JUMP JUMPDEST MLOAD SWAP1 DUP3 DUP6 GAS CALL ISZERO PUSH2 0x5EE JUMPI PUSH0 MLOAD RETURNDATASIZE PUSH2 0x2117 JUMPI POP PUSH1 0x1 PUSH1 0x1 PUSH1 0xA0 SHL SUB DUP2 AND EXTCODESIZE ISZERO JUMPDEST PUSH2 0x20F7 JUMPI POP JUMP JUMPDEST PUSH4 0x5274AFE7 PUSH1 0xE0 SHL PUSH0 SWAP1 DUP2 MSTORE PUSH1 0x1 PUSH1 0x1 PUSH1 0xA0 SHL SUB SWAP2 SWAP1 SWAP2 AND PUSH1 0x4 MSTORE PUSH1 0x24 SWAP1 REVERT JUMPDEST PUSH1 0x1 EQ ISZERO PUSH2 0x20F0 JUMP INVALID 0x26 0xAD 0xB2 0x2C EOFCREATE 0x82 RETURNDATACOPY CALL PREVRANDAO SWAP4 MCOPY SWAP16 0xBE CALL 0xB6 0xB4 LOG3 LOG2 SWAP14 0xAC 0xBE SLOAD PREVRANDAO 0xD5 SWAP3 SWAP3 STATICCALL 0x26 KECCAK256 RETURN 0xD3 PUSH24 0xA2646970667358221220994561B3ECE918BC689EB0CCBA08 PUSH13 0xE0F72C731D6270E8921782D5DA PUSH1 0x5B LOG0 0x4F PUSH5 0x736F6C6343 STOP ADDMOD 0x1E STOP CALLER "
				},
				"gasEstimates": {
					"creation": {
						"codeDepositCost": "1713200",
						"executionCost": "infinite",
						"totalCost": "infinite"
					},
					"external": {
						"ACC_PRECISION()": "395",
						"MONTHLY_ROYALTY_DIRECT()": "1033",
						"MONTHLY_ROYALTY_LEVEL()": "253",
						"MONTHLY_ROYALTY_TIME()": "835",
						"MONTH_DURATION()": "263",
						"PERCENTS_DIVIDER()": "148",
						"ROI_2X_TIME()": "461",
						"ROI_CAP_DIVIDER()": "561",
						"ROI_CAP_MULTIPLIER()": "429",
						"RetopPoolByEarning(uint256,uint256)": "infinite",
						"TIME_STEP()": "373",
						"TOP_ROYALTY_DIRECT()": "351",
						"TOP_ROYALTY_LEVEL()": "297",
						"TOP_ROYALTY_TIME()": "615",
						"WEEK_DURATION()": "637",
						"WeeklyCapping()": "1099",
						"WeeklyTotalReward()": "2432",
						"canBuyNextPool(uint256)": "9529",
						"communityAccPerPackage(uint256)": "2673",
						"communityAccPerUser()": "2784",
						"communityDebt(uint256,uint256)": "2996",
						"creatorWallet()": "2830",
						"currentMonthlyRound()": "3070",
						"currentMonthlyStartTime()": "3158",
						"currentWeeklyRound()": "3092",
						"currentWeeklyStartTime()": "3265",
						"defaultRefId()": "3224",
						"glbBoosterPackages(uint256)": "6678",
						"minLevelForGlbBooster(uint256)": "3152",
						"minLevelForPool(uint256)": "2338",
						"minPoolForGlbBooster(uint256)": "2910",
						"monthlyCapping()": "945",
						"monthlyTotalReward()": "2916",
						"packageQualifiedUsers(uint256)": "2343",
						"packages(uint256)": "7297",
						"poolPackages(uint256)": "7316",
						"registeredUserIds(uint256)": "6813",
						"systemMaintance()": "3204",
						"teamDevelopment()": "3270",
						"topRoyaltyReward()": "2674",
						"topRoyaltyRound()": "2630",
						"topRoyaltyStartTime()": "2894",
						"totalUsers()": "3004",
						"upgradeBooster(uint256)": "infinite",
						"upgradePool(uint256)": "infinite",
						"upgradePoolByEarning(uint32,uint256)": "infinite",
						"usdt()": "2434"
					},
					"internal": {
						"_distributePoolIncome(uint256,uint256,uint256,uint256)": "infinite",
						"_payPoolIncome(uint256,uint256,uint256,uint256,uint256)": "infinite",
						"_placeInBooster(uint256,uint256,uint256)": "infinite",
						"_placeInPool(uint256,uint256,uint256)": "infinite"
					}
				},
				"methodIdentifiers": {
					"ACC_PRECISION()": "32fcd966",
					"MONTHLY_ROYALTY_DIRECT()": "d2f0490d",
					"MONTHLY_ROYALTY_LEVEL()": "23fd338e",
					"MONTHLY_ROYALTY_TIME()": "a5e52b99",
					"MONTH_DURATION()": "2a891534",
					"PERCENTS_DIVIDER()": "01c234a8",
					"ROI_2X_TIME()": "3a5084b3",
					"ROI_CAP_DIVIDER()": "58c7d352",
					"ROI_CAP_MULTIPLIER()": "375b43b4",
					"RetopPoolByEarning(uint256,uint256)": "7848f0a3",
					"TIME_STEP()": "32bc298c",
					"TOP_ROYALTY_DIRECT()": "31bb6a30",
					"TOP_ROYALTY_LEVEL()": "2ae0ee0d",
					"TOP_ROYALTY_TIME()": "705fee2d",
					"WEEK_DURATION()": "76f5f700",
					"WeeklyCapping()": "ebe0ff15",
					"WeeklyTotalReward()": "3080b5bc",
					"canBuyNextPool(uint256)": "67d52d4d",
					"communityAccPerPackage(uint256)": "45cb537c",
					"communityAccPerUser()": "78f6ad6d",
					"communityDebt(uint256,uint256)": "89043ece",
					"creatorWallet()": "7cdc65f2",
					"currentMonthlyRound()": "c9ed0708",
					"currentMonthlyStartTime()": "e898fc38",
					"currentWeeklyRound()": "ca8e9121",
					"currentWeeklyStartTime()": "fddc806f",
					"defaultRefId()": "ec597e6f",
					"glbBoosterPackages(uint256)": "2350268f",
					"minLevelForGlbBooster(uint256)": "d0a2fd79",
					"minLevelForPool(uint256)": "2132d204",
					"minPoolForGlbBooster(uint256)": "956a3228",
					"monthlyCapping()": "c8df2908",
					"monthlyTotalReward()": "a59d17d1",
					"packageQualifiedUsers(uint256)": "0676d0d6",
					"packages(uint256)": "c216212a",
					"poolPackages(uint256)": "ae4708dc",
					"registeredUserIds(uint256)": "39ab3603",
					"systemMaintance()": "e9e34a16",
					"teamDevelopment()": "f5d74d93",
					"topRoyaltyReward()": "5b62d1d5",
					"topRoyaltyRound()": "4b8cbf9b",
					"topRoyaltyStartTime()": "9b40ab97",
					"totalUsers()": "bff1f9e1",
					"upgradeBooster(uint256)": "bc1fa7c0",
					"upgradePool(uint256)": "4060160a",
					"upgradePoolByEarning(uint32,uint256)": "8e222e24",
					"usdt()": "2f48ab7d"
				}
			},
			"storageLayout": {
				"storage": [
					{
						"astId": 100,
						"contract": "contracts/modules/InfinityPool.sol:InfinityPool",
						"label": "_status",
						"offset": 0,
						"slot": "0",
						"type": "t_uint256"
					},
					{
						"astId": 1914,
						"contract": "contracts/modules/InfinityPool.sol:InfinityPool",
						"label": "usdt",
						"offset": 0,
						"slot": "1",
						"type": "t_contract(IERC20)232"
					},
					{
						"astId": 1916,
						"contract": "contracts/modules/InfinityPool.sol:InfinityPool",
						"label": "creatorWallet",
						"offset": 0,
						"slot": "2",
						"type": "t_address"
					},
					{
						"astId": 1918,
						"contract": "contracts/modules/InfinityPool.sol:InfinityPool",
						"label": "systemMaintance",
						"offset": 0,
						"slot": "3",
						"type": "t_address"
					},
					{
						"astId": 1920,
						"contract": "contracts/modules/InfinityPool.sol:InfinityPool",
						"label": "teamDevelopment",
						"offset": 0,
						"slot": "4",
						"type": "t_address"
					},
					{
						"astId": 1922,
						"contract": "contracts/modules/InfinityPool.sol:InfinityPool",
						"label": "defaultRefId",
						"offset": 0,
						"slot": "5",
						"type": "t_uint256"
					},
					{
						"astId": 1924,
						"contract": "contracts/modules/InfinityPool.sol:InfinityPool",
						"label": "totalUsers",
						"offset": 0,
						"slot": "6",
						"type": "t_uint256"
					},
					{
						"astId": 1963,
						"contract": "contracts/modules/InfinityPool.sol:InfinityPool",
						"label": "registeredUserIds",
						"offset": 0,
						"slot": "7",
						"type": "t_array(t_uint256)dyn_storage"
					},
					{
						"astId": 1965,
						"contract": "contracts/modules/InfinityPool.sol:InfinityPool",
						"label": "nonce",
						"offset": 0,
						"slot": "8",
						"type": "t_uint256"
					},
					{
						"astId": 1970,
						"contract": "contracts/modules/InfinityPool.sol:InfinityPool",
						"label": "communityAccPerUser",
						"offset": 0,
						"slot": "9",
						"type": "t_uint256"
					},
					{
						"astId": 1974,
						"contract": "contracts/modules/InfinityPool.sol:InfinityPool",
						"label": "communityAccPerPackage",
						"offset": 0,
						"slot": "10",
						"type": "t_mapping(t_uint256,t_uint256)"
					},
					{
						"astId": 1980,
						"contract": "contracts/modules/InfinityPool.sol:InfinityPool",
						"label": "communityDebt",
						"offset": 0,
						"slot": "11",
						"type": "t_mapping(t_uint256,t_mapping(t_uint256,t_uint256))"
					},
					{
						"astId": 1984,
						"contract": "contracts/modules/InfinityPool.sol:InfinityPool",
						"label": "packageQualifiedUsers",
						"offset": 0,
						"slot": "12",
						"type": "t_mapping(t_uint256,t_uint256)"
					},
					{
						"astId": 2033,
						"contract": "contracts/modules/InfinityPool.sol:InfinityPool",
						"label": "packages",
						"offset": 0,
						"slot": "13",
						"type": "t_array(t_uint256)dyn_storage"
					},
					{
						"astId": 2147,
						"contract": "contracts/modules/InfinityPool.sol:InfinityPool",
						"label": "addressToId",
						"offset": 0,
						"slot": "14",
						"type": "t_mapping(t_address,t_uint256)"
					},
					{
						"astId": 2152,
						"contract": "contracts/modules/InfinityPool.sol:InfinityPool",
						"label": "users",
						"offset": 0,
						"slot": "15",
						"type": "t_mapping(t_uint256,t_struct(User)2089_storage)"
					},
					{
						"astId": 2157,
						"contract": "contracts/modules/InfinityPool.sol:InfinityPool",
						"label": "userIncomes",
						"offset": 0,
						"slot": "16",
						"type": "t_mapping(t_uint256,t_struct(UserIncome)2114_storage)"
					},
					{
						"astId": 2163,
						"contract": "contracts/modules/InfinityPool.sol:InfinityPool",
						"label": "incomeHistory",
						"offset": 0,
						"slot": "17",
						"type": "t_mapping(t_uint256,t_array(t_struct(Income)2132_storage)dyn_storage)"
					},
					{
						"astId": 2170,
						"contract": "contracts/modules/InfinityPool.sol:InfinityPool",
						"label": "teams",
						"offset": 0,
						"slot": "18",
						"type": "t_mapping(t_uint256,t_mapping(t_uint256,t_array(t_uint256)dyn_storage))"
					},
					{
						"astId": 2174,
						"contract": "contracts/modules/InfinityPool.sol:InfinityPool",
						"label": "matrixDirect",
						"offset": 0,
						"slot": "19",
						"type": "t_mapping(t_uint256,t_uint256)"
					},
					{
						"astId": 2179,
						"contract": "contracts/modules/InfinityPool.sol:InfinityPool",
						"label": "directReferrals",
						"offset": 0,
						"slot": "20",
						"type": "t_mapping(t_uint256,t_array(t_uint256)dyn_storage)"
					},
					{
						"astId": 2283,
						"contract": "contracts/modules/InfinityPool.sol:InfinityPool",
						"label": "poolPackages",
						"offset": 0,
						"slot": "21",
						"type": "t_array(t_uint256)dyn_storage"
					},
					{
						"astId": 2295,
						"contract": "contracts/modules/InfinityPool.sol:InfinityPool",
						"label": "glbBoosterPackages",
						"offset": 0,
						"slot": "22",
						"type": "t_array(t_uint256)dyn_storage"
					},
					{
						"astId": 2307,
						"contract": "contracts/modules/InfinityPool.sol:InfinityPool",
						"label": "minLevelForPool",
						"offset": 0,
						"slot": "23",
						"type": "t_array(t_uint256)7_storage"
					},
					{
						"astId": 2320,
						"contract": "contracts/modules/InfinityPool.sol:InfinityPool",
						"label": "minLevelForGlbBooster",
						"offset": 0,
						"slot": "30",
						"type": "t_array(t_uint256)8_storage"
					},
					{
						"astId": 2333,
						"contract": "contracts/modules/InfinityPool.sol:InfinityPool",
						"label": "minPoolForGlbBooster",
						"offset": 0,
						"slot": "38",
						"type": "t_array(t_uint256)8_storage"
					},
					{
						"astId": 2367,
						"contract": "contracts/modules/InfinityPool.sol:InfinityPool",
						"label": "userPooltopup",
						"offset": 0,
						"slot": "46",
						"type": "t_mapping(t_uint256,t_mapping(t_uint256,t_struct(UserPoolTopup)2349_storage))"
					},
					{
						"astId": 2374,
						"contract": "contracts/modules/InfinityPool.sol:InfinityPool",
						"label": "userPooldtl",
						"offset": 0,
						"slot": "47",
						"type": "t_mapping(t_uint256,t_mapping(t_uint256,t_struct(UserPool)2344_storage))"
					},
					{
						"astId": 2381,
						"contract": "contracts/modules/InfinityPool.sol:InfinityPool",
						"label": "userChildren",
						"offset": 0,
						"slot": "48",
						"type": "t_mapping(t_uint256,t_mapping(t_uint256,t_array(t_uint256)dyn_storage))"
					},
					{
						"astId": 2388,
						"contract": "contracts/modules/InfinityPool.sol:InfinityPool",
						"label": "userIdPerPool",
						"offset": 0,
						"slot": "49",
						"type": "t_mapping(t_uint256,t_mapping(t_uint256,t_array(t_uint256)dyn_storage))"
					},
					{
						"astId": 2393,
						"contract": "contracts/modules/InfinityPool.sol:InfinityPool",
						"label": "poolUsers",
						"offset": 0,
						"slot": "50",
						"type": "t_mapping(t_uint256,t_array(t_uint256)dyn_storage)"
					},
					{
						"astId": 2399,
						"contract": "contracts/modules/InfinityPool.sol:InfinityPool",
						"label": "userHasPool",
						"offset": 0,
						"slot": "51",
						"type": "t_mapping(t_uint256,t_mapping(t_uint256,t_bool))"
					},
					{
						"astId": 2406,
						"contract": "contracts/modules/InfinityPool.sol:InfinityPool",
						"label": "userBoosterdtl",
						"offset": 0,
						"slot": "52",
						"type": "t_mapping(t_uint256,t_mapping(t_uint256,t_struct(UserBooster)2360_storage))"
					},
					{
						"astId": 2413,
						"contract": "contracts/modules/InfinityPool.sol:InfinityPool",
						"label": "userBoosterChildren",
						"offset": 0,
						"slot": "53",
						"type": "t_mapping(t_uint256,t_mapping(t_uint256,t_array(t_uint256)dyn_storage))"
					},
					{
						"astId": 2418,
						"contract": "contracts/modules/InfinityPool.sol:InfinityPool",
						"label": "boosterUsers",
						"offset": 0,
						"slot": "54",
						"type": "t_mapping(t_uint256,t_array(t_uint256)dyn_storage)"
					},
					{
						"astId": 2424,
						"contract": "contracts/modules/InfinityPool.sol:InfinityPool",
						"label": "userHasbooster",
						"offset": 0,
						"slot": "55",
						"type": "t_mapping(t_uint256,t_mapping(t_uint256,t_bool))"
					},
					{
						"astId": 2433,
						"contract": "contracts/modules/InfinityPool.sol:InfinityPool",
						"label": "currentWeeklyRound",
						"offset": 0,
						"slot": "56",
						"type": "t_uint256"
					},
					{
						"astId": 2436,
						"contract": "contracts/modules/InfinityPool.sol:InfinityPool",
						"label": "currentWeeklyStartTime",
						"offset": 0,
						"slot": "57",
						"type": "t_uint256"
					},
					{
						"astId": 2439,
						"contract": "contracts/modules/InfinityPool.sol:InfinityPool",
						"label": "WeeklyTotalReward",
						"offset": 0,
						"slot": "58",
						"type": "t_uint256"
					},
					{
						"astId": 2474,
						"contract": "contracts/modules/InfinityPool.sol:InfinityPool",
						"label": "weeklyContestdtl",
						"offset": 0,
						"slot": "59",
						"type": "t_mapping(t_uint256,t_struct(WeeklyContest)2458_storage)"
					},
					{
						"astId": 2479,
						"contract": "contracts/modules/InfinityPool.sol:InfinityPool",
						"label": "weeklyQualifiedUsers",
						"offset": 0,
						"slot": "60",
						"type": "t_mapping(t_uint256,t_array(t_uint256)dyn_storage)"
					},
					{
						"astId": 2486,
						"contract": "contracts/modules/InfinityPool.sol:InfinityPool",
						"label": "weeklyUserdtl",
						"offset": 0,
						"slot": "61",
						"type": "t_mapping(t_uint256,t_mapping(t_uint256,t_struct(weeklyUser)2469_storage))"
					},
					{
						"astId": 2493,
						"contract": "contracts/modules/InfinityPool.sol:InfinityPool",
						"label": "weeklyUserDirects",
						"offset": 0,
						"slot": "62",
						"type": "t_mapping(t_uint256,t_mapping(t_uint256,t_array(t_uint256)dyn_storage))"
					},
					{
						"astId": 2536,
						"contract": "contracts/modules/InfinityPool.sol:InfinityPool",
						"label": "currentMonthlyRound",
						"offset": 0,
						"slot": "63",
						"type": "t_uint256"
					},
					{
						"astId": 2539,
						"contract": "contracts/modules/InfinityPool.sol:InfinityPool",
						"label": "currentMonthlyStartTime",
						"offset": 0,
						"slot": "64",
						"type": "t_uint256"
					},
					{
						"astId": 2542,
						"contract": "contracts/modules/InfinityPool.sol:InfinityPool",
						"label": "monthlyTotalReward",
						"offset": 0,
						"slot": "65",
						"type": "t_uint256"
					},
					{
						"astId": 2579,
						"contract": "contracts/modules/InfinityPool.sol:InfinityPool",
						"label": "monthlyRoyaltydtl",
						"offset": 0,
						"slot": "66",
						"type": "t_mapping(t_uint256,t_struct(monthlyRoyalty)2561_storage)"
					},
					{
						"astId": 2582,
						"contract": "contracts/modules/InfinityPool.sol:InfinityPool",
						"label": "monthlyQualifiedUsers",
						"offset": 0,
						"slot": "67",
						"type": "t_array(t_uint256)dyn_storage"
					},
					{
						"astId": 2587,
						"contract": "contracts/modules/InfinityPool.sol:InfinityPool",
						"label": "monthlyRoyaltyUserdtl",
						"offset": 0,
						"slot": "68",
						"type": "t_mapping(t_uint256,t_struct(monthlyRoyaltyUser)2574_storage)"
					},
					{
						"astId": 2592,
						"contract": "contracts/modules/InfinityPool.sol:InfinityPool",
						"label": "monthlyUserDirects",
						"offset": 0,
						"slot": "69",
						"type": "t_mapping(t_uint256,t_array(t_uint256)dyn_storage)"
					},
					{
						"astId": 2629,
						"contract": "contracts/modules/InfinityPool.sol:InfinityPool",
						"label": "topRoyaltyRound",
						"offset": 0,
						"slot": "70",
						"type": "t_uint256"
					},
					{
						"astId": 2632,
						"contract": "contracts/modules/InfinityPool.sol:InfinityPool",
						"label": "topRoyaltyStartTime",
						"offset": 0,
						"slot": "71",
						"type": "t_uint256"
					},
					{
						"astId": 2635,
						"contract": "contracts/modules/InfinityPool.sol:InfinityPool",
						"label": "topRoyaltyReward",
						"offset": 0,
						"slot": "72",
						"type": "t_uint256"
					},
					{
						"astId": 2672,
						"contract": "contracts/modules/InfinityPool.sol:InfinityPool",
						"label": "topRoyaltydtl",
						"offset": 0,
						"slot": "73",
						"type": "t_mapping(t_uint256,t_struct(topRoyalty)2654_storage)"
					},
					{
						"astId": 2675,
						"contract": "contracts/modules/InfinityPool.sol:InfinityPool",
						"label": "topRoyaltyQualifiedUsers",
						"offset": 0,
						"slot": "74",
						"type": "t_array(t_uint256)dyn_storage"
					},
					{
						"astId": 2680,
						"contract": "contracts/modules/InfinityPool.sol:InfinityPool",
						"label": "topRoyaltyUserdtl",
						"offset": 0,
						"slot": "75",
						"type": "t_mapping(t_uint256,t_struct(topRoyaltyUser)2667_storage)"
					},
					{
						"astId": 2685,
						"contract": "contracts/modules/InfinityPool.sol:InfinityPool",
						"label": "topRoyaltyUserDirects",
						"offset": 0,
						"slot": "76",
						"type": "t_mapping(t_uint256,t_array(t_uint256)dyn_storage)"
					}
				],
				"types": {
					"t_address": {
						"encoding": "inplace",
						"label": "address",
						"numberOfBytes": "20"
					},
					"t_array(t_struct(Deposit)2042_storage)dyn_storage": {
						"base": "t_struct(Deposit)2042_storage",
						"encoding": "dynamic_array",
						"label": "struct Storage.Deposit[]",
						"numberOfBytes": "32"
					},
					"t_array(t_struct(Income)2132_storage)dyn_storage": {
						"base": "t_struct(Income)2132_storage",
						"encoding": "dynamic_array",
						"label": "struct Storage.Income[]",
						"numberOfBytes": "32"
					},
					"t_array(t_uint256)7_storage": {
						"base": "t_uint256",
						"encoding": "inplace",
						"label": "uint256[7]",
						"numberOfBytes": "224"
					},
					"t_array(t_uint256)8_storage": {
						"base": "t_uint256",
						"encoding": "inplace",
						"label": "uint256[8]",
						"numberOfBytes": "256"
					},
					"t_array(t_uint256)dyn_storage": {
						"base": "t_uint256",
						"encoding": "dynamic_array",
						"label": "uint256[]",
						"numberOfBytes": "32"
					},
					"t_bool": {
						"encoding": "inplace",
						"label": "bool",
						"numberOfBytes": "1"
					},
					"t_contract(IERC20)232": {
						"encoding": "inplace",
						"label": "contract IERC20",
						"numberOfBytes": "20"
					},
					"t_mapping(t_address,t_uint256)": {
						"encoding": "mapping",
						"key": "t_address",
						"label": "mapping(address => uint256)",
						"numberOfBytes": "32",
						"value": "t_uint256"
					},
					"t_mapping(t_uint256,t_array(t_struct(Income)2132_storage)dyn_storage)": {
						"encoding": "mapping",
						"key": "t_uint256",
						"label": "mapping(uint256 => struct Storage.Income[])",
						"numberOfBytes": "32",
						"value": "t_array(t_struct(Income)2132_storage)dyn_storage"
					},
					"t_mapping(t_uint256,t_array(t_uint256)dyn_storage)": {
						"encoding": "mapping",
						"key": "t_uint256",
						"label": "mapping(uint256 => uint256[])",
						"numberOfBytes": "32",
						"value": "t_array(t_uint256)dyn_storage"
					},
					"t_mapping(t_uint256,t_bool)": {
						"encoding": "mapping",
						"key": "t_uint256",
						"label": "mapping(uint256 => bool)",
						"numberOfBytes": "32",
						"value": "t_bool"
					},
					"t_mapping(t_uint256,t_mapping(t_uint256,t_array(t_uint256)dyn_storage))": {
						"encoding": "mapping",
						"key": "t_uint256",
						"label": "mapping(uint256 => mapping(uint256 => uint256[]))",
						"numberOfBytes": "32",
						"value": "t_mapping(t_uint256,t_array(t_uint256)dyn_storage)"
					},
					"t_mapping(t_uint256,t_mapping(t_uint256,t_bool))": {
						"encoding": "mapping",
						"key": "t_uint256",
						"label": "mapping(uint256 => mapping(uint256 => bool))",
						"numberOfBytes": "32",
						"value": "t_mapping(t_uint256,t_bool)"
					},
					"t_mapping(t_uint256,t_mapping(t_uint256,t_struct(UserBooster)2360_storage))": {
						"encoding": "mapping",
						"key": "t_uint256",
						"label": "mapping(uint256 => mapping(uint256 => struct Storage.UserBooster))",
						"numberOfBytes": "32",
						"value": "t_mapping(t_uint256,t_struct(UserBooster)2360_storage)"
					},
					"t_mapping(t_uint256,t_mapping(t_uint256,t_struct(UserPool)2344_storage))": {
						"encoding": "mapping",
						"key": "t_uint256",
						"label": "mapping(uint256 => mapping(uint256 => struct Storage.UserPool))",
						"numberOfBytes": "32",
						"value": "t_mapping(t_uint256,t_struct(UserPool)2344_storage)"
					},
					"t_mapping(t_uint256,t_mapping(t_uint256,t_struct(UserPoolTopup)2349_storage))": {
						"encoding": "mapping",
						"key": "t_uint256",
						"label": "mapping(uint256 => mapping(uint256 => struct Storage.UserPoolTopup))",
						"numberOfBytes": "32",
						"value": "t_mapping(t_uint256,t_struct(UserPoolTopup)2349_storage)"
					},
					"t_mapping(t_uint256,t_mapping(t_uint256,t_struct(weeklyUser)2469_storage))": {
						"encoding": "mapping",
						"key": "t_uint256",
						"label": "mapping(uint256 => mapping(uint256 => struct Storage.weeklyUser))",
						"numberOfBytes": "32",
						"value": "t_mapping(t_uint256,t_struct(weeklyUser)2469_storage)"
					},
					"t_mapping(t_uint256,t_mapping(t_uint256,t_uint256))": {
						"encoding": "mapping",
						"key": "t_uint256",
						"label": "mapping(uint256 => mapping(uint256 => uint256))",
						"numberOfBytes": "32",
						"value": "t_mapping(t_uint256,t_uint256)"
					},
					"t_mapping(t_uint256,t_struct(User)2089_storage)": {
						"encoding": "mapping",
						"key": "t_uint256",
						"label": "mapping(uint256 => struct Storage.User)",
						"numberOfBytes": "32",
						"value": "t_struct(User)2089_storage"
					},
					"t_mapping(t_uint256,t_struct(UserBooster)2360_storage)": {
						"encoding": "mapping",
						"key": "t_uint256",
						"label": "mapping(uint256 => struct Storage.UserBooster)",
						"numberOfBytes": "32",
						"value": "t_struct(UserBooster)2360_storage"
					},
					"t_mapping(t_uint256,t_struct(UserIncome)2114_storage)": {
						"encoding": "mapping",
						"key": "t_uint256",
						"label": "mapping(uint256 => struct Storage.UserIncome)",
						"numberOfBytes": "32",
						"value": "t_struct(UserIncome)2114_storage"
					},
					"t_mapping(t_uint256,t_struct(UserPool)2344_storage)": {
						"encoding": "mapping",
						"key": "t_uint256",
						"label": "mapping(uint256 => struct Storage.UserPool)",
						"numberOfBytes": "32",
						"value": "t_struct(UserPool)2344_storage"
					},
					"t_mapping(t_uint256,t_struct(UserPoolTopup)2349_storage)": {
						"encoding": "mapping",
						"key": "t_uint256",
						"label": "mapping(uint256 => struct Storage.UserPoolTopup)",
						"numberOfBytes": "32",
						"value": "t_struct(UserPoolTopup)2349_storage"
					},
					"t_mapping(t_uint256,t_struct(WeeklyContest)2458_storage)": {
						"encoding": "mapping",
						"key": "t_uint256",
						"label": "mapping(uint256 => struct Storage.WeeklyContest)",
						"numberOfBytes": "32",
						"value": "t_struct(WeeklyContest)2458_storage"
					},
					"t_mapping(t_uint256,t_struct(monthlyRoyalty)2561_storage)": {
						"encoding": "mapping",
						"key": "t_uint256",
						"label": "mapping(uint256 => struct Storage.monthlyRoyalty)",
						"numberOfBytes": "32",
						"value": "t_struct(monthlyRoyalty)2561_storage"
					},
					"t_mapping(t_uint256,t_struct(monthlyRoyaltyUser)2574_storage)": {
						"encoding": "mapping",
						"key": "t_uint256",
						"label": "mapping(uint256 => struct Storage.monthlyRoyaltyUser)",
						"numberOfBytes": "32",
						"value": "t_struct(monthlyRoyaltyUser)2574_storage"
					},
					"t_mapping(t_uint256,t_struct(topRoyalty)2654_storage)": {
						"encoding": "mapping",
						"key": "t_uint256",
						"label": "mapping(uint256 => struct Storage.topRoyalty)",
						"numberOfBytes": "32",
						"value": "t_struct(topRoyalty)2654_storage"
					},
					"t_mapping(t_uint256,t_struct(topRoyaltyUser)2667_storage)": {
						"encoding": "mapping",
						"key": "t_uint256",
						"label": "mapping(uint256 => struct Storage.topRoyaltyUser)",
						"numberOfBytes": "32",
						"value": "t_struct(topRoyaltyUser)2667_storage"
					},
					"t_mapping(t_uint256,t_struct(weeklyUser)2469_storage)": {
						"encoding": "mapping",
						"key": "t_uint256",
						"label": "mapping(uint256 => struct Storage.weeklyUser)",
						"numberOfBytes": "32",
						"value": "t_struct(weeklyUser)2469_storage"
					},
					"t_mapping(t_uint256,t_uint256)": {
						"encoding": "mapping",
						"key": "t_uint256",
						"label": "mapping(uint256 => uint256)",
						"numberOfBytes": "32",
						"value": "t_uint256"
					},
					"t_struct(Deposit)2042_storage": {
						"encoding": "inplace",
						"label": "struct Storage.Deposit",
						"members": [
							{
								"astId": 2035,
								"contract": "contracts/modules/InfinityPool.sol:InfinityPool",
								"label": "amount",
								"offset": 0,
								"slot": "0",
								"type": "t_uint256"
							},
							{
								"astId": 2037,
								"contract": "contracts/modules/InfinityPool.sol:InfinityPool",
								"label": "withdrawn",
								"offset": 0,
								"slot": "1",
								"type": "t_uint256"
							},
							{
								"astId": 2039,
								"contract": "contracts/modules/InfinityPool.sol:InfinityPool",
								"label": "start",
								"offset": 0,
								"slot": "2",
								"type": "t_uint256"
							},
							{
								"astId": 2041,
								"contract": "contracts/modules/InfinityPool.sol:InfinityPool",
								"label": "depositType",
								"offset": 0,
								"slot": "3",
								"type": "t_uint8"
							}
						],
						"numberOfBytes": "128"
					},
					"t_struct(Income)2132_storage": {
						"encoding": "inplace",
						"label": "struct Storage.Income",
						"members": [
							{
								"astId": 2123,
								"contract": "contracts/modules/InfinityPool.sol:InfinityPool",
								"label": "fromUserId",
								"offset": 0,
								"slot": "0",
								"type": "t_uint256"
							},
							{
								"astId": 2125,
								"contract": "contracts/modules/InfinityPool.sol:InfinityPool",
								"label": "amount",
								"offset": 0,
								"slot": "1",
								"type": "t_uint256"
							},
							{
								"astId": 2127,
								"contract": "contracts/modules/InfinityPool.sol:InfinityPool",
								"label": "packageLevel",
								"offset": 0,
								"slot": "2",
								"type": "t_uint256"
							},
							{
								"astId": 2129,
								"contract": "contracts/modules/InfinityPool.sol:InfinityPool",
								"label": "timestamp",
								"offset": 0,
								"slot": "3",
								"type": "t_uint256"
							},
							{
								"astId": 2131,
								"contract": "contracts/modules/InfinityPool.sol:InfinityPool",
								"label": "incomeType",
								"offset": 0,
								"slot": "4",
								"type": "t_uint256"
							}
						],
						"numberOfBytes": "160"
					},
					"t_struct(User)2089_storage": {
						"encoding": "inplace",
						"label": "struct Storage.User",
						"members": [
							{
								"astId": 2044,
								"contract": "contracts/modules/InfinityPool.sol:InfinityPool",
								"label": "account",
								"offset": 0,
								"slot": "0",
								"type": "t_address"
							},
							{
								"astId": 2048,
								"contract": "contracts/modules/InfinityPool.sol:InfinityPool",
								"label": "deposits",
								"offset": 0,
								"slot": "1",
								"type": "t_array(t_struct(Deposit)2042_storage)dyn_storage"
							},
							{
								"astId": 2050,
								"contract": "contracts/modules/InfinityPool.sol:InfinityPool",
								"label": "checkpoint",
								"offset": 0,
								"slot": "2",
								"type": "t_uint256"
							},
							{
								"astId": 2052,
								"contract": "contracts/modules/InfinityPool.sol:InfinityPool",
								"label": "id",
								"offset": 0,
								"slot": "3",
								"type": "t_uint256"
							},
							{
								"astId": 2054,
								"contract": "contracts/modules/InfinityPool.sol:InfinityPool",
								"label": "sponsorId",
								"offset": 0,
								"slot": "4",
								"type": "t_uint256"
							},
							{
								"astId": 2056,
								"contract": "contracts/modules/InfinityPool.sol:InfinityPool",
								"label": "uplineId",
								"offset": 0,
								"slot": "5",
								"type": "t_uint256"
							},
							{
								"astId": 2058,
								"contract": "contracts/modules/InfinityPool.sol:InfinityPool",
								"label": "level",
								"offset": 0,
								"slot": "6",
								"type": "t_uint256"
							},
							{
								"astId": 2060,
								"contract": "contracts/modules/InfinityPool.sol:InfinityPool",
								"label": "directTeam",
								"offset": 0,
								"slot": "7",
								"type": "t_uint256"
							},
							{
								"astId": 2062,
								"contract": "contracts/modules/InfinityPool.sol:InfinityPool",
								"label": "directPoolQualified",
								"offset": 0,
								"slot": "8",
								"type": "t_uint256"
							},
							{
								"astId": 2064,
								"contract": "contracts/modules/InfinityPool.sol:InfinityPool",
								"label": "totalMatrixTeam",
								"offset": 0,
								"slot": "9",
								"type": "t_uint256"
							},
							{
								"astId": 2066,
								"contract": "contracts/modules/InfinityPool.sol:InfinityPool",
								"label": "totalDeposit",
								"offset": 0,
								"slot": "10",
								"type": "t_uint256"
							},
							{
								"astId": 2068,
								"contract": "contracts/modules/InfinityPool.sol:InfinityPool",
								"label": "roiCap",
								"offset": 0,
								"slot": "11",
								"type": "t_uint256"
							},
							{
								"astId": 2070,
								"contract": "contracts/modules/InfinityPool.sol:InfinityPool",
								"label": "poollevel",
								"offset": 0,
								"slot": "12",
								"type": "t_uint256"
							},
							{
								"astId": 2072,
								"contract": "contracts/modules/InfinityPool.sol:InfinityPool",
								"label": "poolDeposit",
								"offset": 0,
								"slot": "13",
								"type": "t_uint256"
							},
							{
								"astId": 2074,
								"contract": "contracts/modules/InfinityPool.sol:InfinityPool",
								"label": "poolStartTime",
								"offset": 0,
								"slot": "14",
								"type": "t_uint256"
							},
							{
								"astId": 2076,
								"contract": "contracts/modules/InfinityPool.sol:InfinityPool",
								"label": "boosterlevel",
								"offset": 0,
								"slot": "15",
								"type": "t_uint256"
							},
							{
								"astId": 2078,
								"contract": "contracts/modules/InfinityPool.sol:InfinityPool",
								"label": "boosterDeposit",
								"offset": 0,
								"slot": "16",
								"type": "t_uint256"
							},
							{
								"astId": 2080,
								"contract": "contracts/modules/InfinityPool.sol:InfinityPool",
								"label": "registrationTime",
								"offset": 0,
								"slot": "17",
								"type": "t_uint256"
							},
							{
								"astId": 2082,
								"contract": "contracts/modules/InfinityPool.sol:InfinityPool",
								"label": "level10Time",
								"offset": 0,
								"slot": "18",
								"type": "t_uint256"
							},
							{
								"astId": 2084,
								"contract": "contracts/modules/InfinityPool.sol:InfinityPool",
								"label": "level15Time",
								"offset": 0,
								"slot": "19",
								"type": "t_uint256"
							},
							{
								"astId": 2086,
								"contract": "contracts/modules/InfinityPool.sol:InfinityPool",
								"label": "monthlyUserDirectCount",
								"offset": 0,
								"slot": "20",
								"type": "t_uint256"
							},
							{
								"astId": 2088,
								"contract": "contracts/modules/InfinityPool.sol:InfinityPool",
								"label": "topRoyaltyDirectCount",
								"offset": 0,
								"slot": "21",
								"type": "t_uint256"
							}
						],
						"numberOfBytes": "704"
					},
					"t_struct(UserBooster)2360_storage": {
						"encoding": "inplace",
						"label": "struct Storage.UserBooster",
						"members": [
							{
								"astId": 2351,
								"contract": "contracts/modules/InfinityPool.sol:InfinityPool",
								"label": "id",
								"offset": 0,
								"slot": "0",
								"type": "t_uint256"
							},
							{
								"astId": 2353,
								"contract": "contracts/modules/InfinityPool.sol:InfinityPool",
								"label": "poolId",
								"offset": 0,
								"slot": "1",
								"type": "t_uint256"
							},
							{
								"astId": 2355,
								"contract": "contracts/modules/InfinityPool.sol:InfinityPool",
								"label": "parentId",
								"offset": 0,
								"slot": "2",
								"type": "t_uint256"
							},
							{
								"astId": 2357,
								"contract": "contracts/modules/InfinityPool.sol:InfinityPool",
								"label": "bonusCount",
								"offset": 0,
								"slot": "3",
								"type": "t_uint256"
							},
							{
								"astId": 2359,
								"contract": "contracts/modules/InfinityPool.sol:InfinityPool",
								"label": "joinTime",
								"offset": 0,
								"slot": "4",
								"type": "t_uint256"
							}
						],
						"numberOfBytes": "160"
					},
					"t_struct(UserIncome)2114_storage": {
						"encoding": "inplace",
						"label": "struct Storage.UserIncome",
						"members": [
							{
								"astId": 2091,
								"contract": "contracts/modules/InfinityPool.sol:InfinityPool",
								"label": "totalIncome",
								"offset": 0,
								"slot": "0",
								"type": "t_uint256"
							},
							{
								"astId": 2093,
								"contract": "contracts/modules/InfinityPool.sol:InfinityPool",
								"label": "sponsorIncome",
								"offset": 0,
								"slot": "1",
								"type": "t_uint256"
							},
							{
								"astId": 2095,
								"contract": "contracts/modules/InfinityPool.sol:InfinityPool",
								"label": "matrixIncome",
								"offset": 0,
								"slot": "2",
								"type": "t_uint256"
							},
							{
								"astId": 2097,
								"contract": "contracts/modules/InfinityPool.sol:InfinityPool",
								"label": "levelBoosterIncome",
								"offset": 0,
								"slot": "3",
								"type": "t_uint256"
							},
							{
								"astId": 2099,
								"contract": "contracts/modules/InfinityPool.sol:InfinityPool",
								"label": "royaltyIncome",
								"offset": 0,
								"slot": "4",
								"type": "t_uint256"
							},
							{
								"astId": 2101,
								"contract": "contracts/modules/InfinityPool.sol:InfinityPool",
								"label": "royaltyIncomeClaimed",
								"offset": 0,
								"slot": "5",
								"type": "t_uint256"
							},
							{
								"astId": 2103,
								"contract": "contracts/modules/InfinityPool.sol:InfinityPool",
								"label": "communityIncome",
								"offset": 0,
								"slot": "6",
								"type": "t_uint256"
							},
							{
								"astId": 2105,
								"contract": "contracts/modules/InfinityPool.sol:InfinityPool",
								"label": "poolIncome",
								"offset": 0,
								"slot": "7",
								"type": "t_uint256"
							},
							{
								"astId": 2107,
								"contract": "contracts/modules/InfinityPool.sol:InfinityPool",
								"label": "boosterIncome",
								"offset": 0,
								"slot": "8",
								"type": "t_uint256"
							},
							{
								"astId": 2109,
								"contract": "contracts/modules/InfinityPool.sol:InfinityPool",
								"label": "weeklyContestIncome",
								"offset": 0,
								"slot": "9",
								"type": "t_uint256"
							},
							{
								"astId": 2111,
								"contract": "contracts/modules/InfinityPool.sol:InfinityPool",
								"label": "monthlyRoyalty",
								"offset": 0,
								"slot": "10",
								"type": "t_uint256"
							},
							{
								"astId": 2113,
								"contract": "contracts/modules/InfinityPool.sol:InfinityPool",
								"label": "topRoyalty",
								"offset": 0,
								"slot": "11",
								"type": "t_uint256"
							}
						],
						"numberOfBytes": "384"
					},
					"t_struct(UserPool)2344_storage": {
						"encoding": "inplace",
						"label": "struct Storage.UserPool",
						"members": [
							{
								"astId": 2335,
								"contract": "contracts/modules/InfinityPool.sol:InfinityPool",
								"label": "id",
								"offset": 0,
								"slot": "0",
								"type": "t_uint256"
							},
							{
								"astId": 2337,
								"contract": "contracts/modules/InfinityPool.sol:InfinityPool",
								"label": "mainid",
								"offset": 0,
								"slot": "1",
								"type": "t_uint256"
							},
							{
								"astId": 2339,
								"contract": "contracts/modules/InfinityPool.sol:InfinityPool",
								"label": "poolId",
								"offset": 0,
								"slot": "2",
								"type": "t_uint256"
							},
							{
								"astId": 2341,
								"contract": "contracts/modules/InfinityPool.sol:InfinityPool",
								"label": "parentId",
								"offset": 0,
								"slot": "3",
								"type": "t_uint256"
							},
							{
								"astId": 2343,
								"contract": "contracts/modules/InfinityPool.sol:InfinityPool",
								"label": "bonusCount",
								"offset": 0,
								"slot": "4",
								"type": "t_uint256"
							}
						],
						"numberOfBytes": "160"
					},
					"t_struct(UserPoolTopup)2349_storage": {
						"encoding": "inplace",
						"label": "struct Storage.UserPoolTopup",
						"members": [
							{
								"astId": 2346,
								"contract": "contracts/modules/InfinityPool.sol:InfinityPool",
								"label": "nextPoolAmt",
								"offset": 0,
								"slot": "0",
								"type": "t_uint256"
							},
							{
								"astId": 2348,
								"contract": "contracts/modules/InfinityPool.sol:InfinityPool",
								"label": "reTopupAmt",
								"offset": 0,
								"slot": "1",
								"type": "t_uint256"
							}
						],
						"numberOfBytes": "64"
					},
					"t_struct(WeeklyContest)2458_storage": {
						"encoding": "inplace",
						"label": "struct Storage.WeeklyContest",
						"members": [
							{
								"astId": 2441,
								"contract": "contracts/modules/InfinityPool.sol:InfinityPool",
								"label": "roundId",
								"offset": 0,
								"slot": "0",
								"type": "t_uint256"
							},
							{
								"astId": 2443,
								"contract": "contracts/modules/InfinityPool.sol:InfinityPool",
								"label": "totalReward",
								"offset": 0,
								"slot": "1",
								"type": "t_uint256"
							},
							{
								"astId": 2445,
								"contract": "contracts/modules/InfinityPool.sol:InfinityPool",
								"label": "totalUsers",
								"offset": 0,
								"slot": "2",
								"type": "t_uint256"
							},
							{
								"astId": 2447,
								"contract": "contracts/modules/InfinityPool.sol:InfinityPool",
								"label": "perUserReward",
								"offset": 0,
								"slot": "3",
								"type": "t_uint256"
							},
							{
								"astId": 2449,
								"contract": "contracts/modules/InfinityPool.sol:InfinityPool",
								"label": "claimedCount",
								"offset": 0,
								"slot": "4",
								"type": "t_uint256"
							},
							{
								"astId": 2451,
								"contract": "contracts/modules/InfinityPool.sol:InfinityPool",
								"label": "startTime",
								"offset": 0,
								"slot": "5",
								"type": "t_uint256"
							},
							{
								"astId": 2453,
								"contract": "contracts/modules/InfinityPool.sol:InfinityPool",
								"label": "endTime",
								"offset": 0,
								"slot": "6",
								"type": "t_uint256"
							},
							{
								"astId": 2455,
								"contract": "contracts/modules/InfinityPool.sol:InfinityPool",
								"label": "carryForward",
								"offset": 0,
								"slot": "7",
								"type": "t_uint256"
							},
							{
								"astId": 2457,
								"contract": "contracts/modules/InfinityPool.sol:InfinityPool",
								"label": "closed",
								"offset": 0,
								"slot": "8",
								"type": "t_bool"
							}
						],
						"numberOfBytes": "288"
					},
					"t_struct(monthlyRoyalty)2561_storage": {
						"encoding": "inplace",
						"label": "struct Storage.monthlyRoyalty",
						"members": [
							{
								"astId": 2544,
								"contract": "contracts/modules/InfinityPool.sol:InfinityPool",
								"label": "roundId",
								"offset": 0,
								"slot": "0",
								"type": "t_uint256"
							},
							{
								"astId": 2546,
								"contract": "contracts/modules/InfinityPool.sol:InfinityPool",
								"label": "totalReward",
								"offset": 0,
								"slot": "1",
								"type": "t_uint256"
							},
							{
								"astId": 2548,
								"contract": "contracts/modules/InfinityPool.sol:InfinityPool",
								"label": "totalUsers",
								"offset": 0,
								"slot": "2",
								"type": "t_uint256"
							},
							{
								"astId": 2550,
								"contract": "contracts/modules/InfinityPool.sol:InfinityPool",
								"label": "perUserReward",
								"offset": 0,
								"slot": "3",
								"type": "t_uint256"
							},
							{
								"astId": 2552,
								"contract": "contracts/modules/InfinityPool.sol:InfinityPool",
								"label": "claimedCount",
								"offset": 0,
								"slot": "4",
								"type": "t_uint256"
							},
							{
								"astId": 2554,
								"contract": "contracts/modules/InfinityPool.sol:InfinityPool",
								"label": "startTime",
								"offset": 0,
								"slot": "5",
								"type": "t_uint256"
							},
							{
								"astId": 2556,
								"contract": "contracts/modules/InfinityPool.sol:InfinityPool",
								"label": "endTime",
								"offset": 0,
								"slot": "6",
								"type": "t_uint256"
							},
							{
								"astId": 2558,
								"contract": "contracts/modules/InfinityPool.sol:InfinityPool",
								"label": "carryForward",
								"offset": 0,
								"slot": "7",
								"type": "t_uint256"
							},
							{
								"astId": 2560,
								"contract": "contracts/modules/InfinityPool.sol:InfinityPool",
								"label": "closed",
								"offset": 0,
								"slot": "8",
								"type": "t_bool"
							}
						],
						"numberOfBytes": "288"
					},
					"t_struct(monthlyRoyaltyUser)2574_storage": {
						"encoding": "inplace",
						"label": "struct Storage.monthlyRoyaltyUser",
						"members": [
							{
								"astId": 2563,
								"contract": "contracts/modules/InfinityPool.sol:InfinityPool",
								"label": "joinTime",
								"offset": 0,
								"slot": "0",
								"type": "t_uint256"
							},
							{
								"astId": 2565,
								"contract": "contracts/modules/InfinityPool.sol:InfinityPool",
								"label": "qualifiedRoundId",
								"offset": 0,
								"slot": "1",
								"type": "t_uint256"
							},
							{
								"astId": 2567,
								"contract": "contracts/modules/InfinityPool.sol:InfinityPool",
								"label": "claimTime",
								"offset": 0,
								"slot": "2",
								"type": "t_uint256"
							},
							{
								"astId": 2571,
								"contract": "contracts/modules/InfinityPool.sol:InfinityPool",
								"label": "isClaimed",
								"offset": 0,
								"slot": "3",
								"type": "t_mapping(t_uint256,t_bool)"
							},
							{
								"astId": 2573,
								"contract": "contracts/modules/InfinityPool.sol:InfinityPool",
								"label": "isQualified",
								"offset": 0,
								"slot": "4",
								"type": "t_bool"
							}
						],
						"numberOfBytes": "160"
					},
					"t_struct(topRoyalty)2654_storage": {
						"encoding": "inplace",
						"label": "struct Storage.topRoyalty",
						"members": [
							{
								"astId": 2637,
								"contract": "contracts/modules/InfinityPool.sol:InfinityPool",
								"label": "roundId",
								"offset": 0,
								"slot": "0",
								"type": "t_uint256"
							},
							{
								"astId": 2639,
								"contract": "contracts/modules/InfinityPool.sol:InfinityPool",
								"label": "totalReward",
								"offset": 0,
								"slot": "1",
								"type": "t_uint256"
							},
							{
								"astId": 2641,
								"contract": "contracts/modules/InfinityPool.sol:InfinityPool",
								"label": "totalUsers",
								"offset": 0,
								"slot": "2",
								"type": "t_uint256"
							},
							{
								"astId": 2643,
								"contract": "contracts/modules/InfinityPool.sol:InfinityPool",
								"label": "perUserReward",
								"offset": 0,
								"slot": "3",
								"type": "t_uint256"
							},
							{
								"astId": 2645,
								"contract": "contracts/modules/InfinityPool.sol:InfinityPool",
								"label": "claimedCount",
								"offset": 0,
								"slot": "4",
								"type": "t_uint256"
							},
							{
								"astId": 2647,
								"contract": "contracts/modules/InfinityPool.sol:InfinityPool",
								"label": "startTime",
								"offset": 0,
								"slot": "5",
								"type": "t_uint256"
							},
							{
								"astId": 2649,
								"contract": "contracts/modules/InfinityPool.sol:InfinityPool",
								"label": "endTime",
								"offset": 0,
								"slot": "6",
								"type": "t_uint256"
							},
							{
								"astId": 2651,
								"contract": "contracts/modules/InfinityPool.sol:InfinityPool",
								"label": "carryForward",
								"offset": 0,
								"slot": "7",
								"type": "t_uint256"
							},
							{
								"astId": 2653,
								"contract": "contracts/modules/InfinityPool.sol:InfinityPool",
								"label": "closed",
								"offset": 0,
								"slot": "8",
								"type": "t_bool"
							}
						],
						"numberOfBytes": "288"
					},
					"t_struct(topRoyaltyUser)2667_storage": {
						"encoding": "inplace",
						"label": "struct Storage.topRoyaltyUser",
						"members": [
							{
								"astId": 2656,
								"contract": "contracts/modules/InfinityPool.sol:InfinityPool",
								"label": "joinTime",
								"offset": 0,
								"slot": "0",
								"type": "t_uint256"
							},
							{
								"astId": 2658,
								"contract": "contracts/modules/InfinityPool.sol:InfinityPool",
								"label": "qualifiedRoundId",
								"offset": 0,
								"slot": "1",
								"type": "t_uint256"
							},
							{
								"astId": 2660,
								"contract": "contracts/modules/InfinityPool.sol:InfinityPool",
								"label": "claimTime",
								"offset": 0,
								"slot": "2",
								"type": "t_uint256"
							},
							{
								"astId": 2664,
								"contract": "contracts/modules/InfinityPool.sol:InfinityPool",
								"label": "isClaimed",
								"offset": 0,
								"slot": "3",
								"type": "t_mapping(t_uint256,t_bool)"
							},
							{
								"astId": 2666,
								"contract": "contracts/modules/InfinityPool.sol:InfinityPool",
								"label": "isQualified",
								"offset": 0,
								"slot": "4",
								"type": "t_bool"
							}
						],
						"numberOfBytes": "160"
					},
					"t_struct(weeklyUser)2469_storage": {
						"encoding": "inplace",
						"label": "struct Storage.weeklyUser",
						"members": [
							{
								"astId": 2460,
								"contract": "contracts/modules/InfinityPool.sol:InfinityPool",
								"label": "joinTime",
								"offset": 0,
								"slot": "0",
								"type": "t_uint256"
							},
							{
								"astId": 2462,
								"contract": "contracts/modules/InfinityPool.sol:InfinityPool",
								"label": "roundId",
								"offset": 0,
								"slot": "1",
								"type": "t_uint256"
							},
							{
								"astId": 2464,
								"contract": "contracts/modules/InfinityPool.sol:InfinityPool",
								"label": "claimTime",
								"offset": 0,
								"slot": "2",
								"type": "t_uint256"
							},
							{
								"astId": 2466,
								"contract": "contracts/modules/InfinityPool.sol:InfinityPool",
								"label": "isClaimed",
								"offset": 0,
								"slot": "3",
								"type": "t_bool"
							},
							{
								"astId": 2468,
								"contract": "contracts/modules/InfinityPool.sol:InfinityPool",
								"label": "isQualified",
								"offset": 1,
								"slot": "3",
								"type": "t_bool"
							}
						],
						"numberOfBytes": "128"
					},
					"t_uint256": {
						"encoding": "inplace",
						"label": "uint256",
						"numberOfBytes": "32"
					},
					"t_uint8": {
						"encoding": "inplace",
						"label": "uint8",
						"numberOfBytes": "1"
					}
				}
			},
			"userdoc": {
				"kind": "user",
				"methods": {},
				"version": 1
			}
		}
	}
}