{
	"contracts/modules/SponsorMatrix.sol": {
		"Nanakshahi": {
			"abi": [
				{
					"inputs": [],
					"stateMutability": "nonpayable",
					"type": "constructor"
				},
				{
					"anonymous": false,
					"inputs": [
						{
							"indexed": false,
							"internalType": "uint256",
							"name": "amount",
							"type": "uint256"
						},
						{
							"indexed": false,
							"internalType": "uint256",
							"name": "usersCount",
							"type": "uint256"
						},
						{
							"indexed": false,
							"internalType": "uint256",
							"name": "perUser",
							"type": "uint256"
						}
					],
					"name": "CommunityBonusDistributed",
					"type": "event"
				},
				{
					"anonymous": false,
					"inputs": [
						{
							"indexed": true,
							"internalType": "address",
							"name": "to",
							"type": "address"
						},
						{
							"indexed": true,
							"internalType": "address",
							"name": "from",
							"type": "address"
						},
						{
							"indexed": false,
							"internalType": "uint256",
							"name": "amount",
							"type": "uint256"
						},
						{
							"indexed": false,
							"internalType": "uint256",
							"name": "packageLevel",
							"type": "uint256"
						},
						{
							"indexed": false,
							"internalType": "uint256",
							"name": "incomeType",
							"type": "uint256"
						}
					],
					"name": "IncomeDistributed",
					"type": "event"
				},
				{
					"anonymous": false,
					"inputs": [
						{
							"indexed": true,
							"internalType": "address",
							"name": "winner",
							"type": "address"
						},
						{
							"indexed": true,
							"internalType": "uint256",
							"name": "fromUserId",
							"type": "uint256"
						},
						{
							"indexed": false,
							"internalType": "uint256",
							"name": "amount",
							"type": "uint256"
						},
						{
							"indexed": false,
							"internalType": "uint256",
							"name": "timestamp",
							"type": "uint256"
						}
					],
					"name": "LotteryReward",
					"type": "event"
				},
				{
					"anonymous": false,
					"inputs": [
						{
							"indexed": true,
							"internalType": "address",
							"name": "user",
							"type": "address"
						},
						{
							"indexed": true,
							"internalType": "address",
							"name": "sponsor",
							"type": "address"
						},
						{
							"indexed": true,
							"internalType": "uint256",
							"name": "userId",
							"type": "uint256"
						},
						{
							"indexed": false,
							"internalType": "uint256",
							"name": "uplineId",
							"type": "uint256"
						}
					],
					"name": "Registration",
					"type": "event"
				},
				{
					"anonymous": false,
					"inputs": [
						{
							"indexed": true,
							"internalType": "address",
							"name": "to",
							"type": "address"
						},
						{
							"indexed": false,
							"internalType": "uint256",
							"name": "amount",
							"type": "uint256"
						},
						{
							"indexed": false,
							"internalType": "string",
							"name": "level",
							"type": "string"
						}
					],
					"name": "RewardSent",
					"type": "event"
				},
				{
					"anonymous": false,
					"inputs": [
						{
							"indexed": true,
							"internalType": "address",
							"name": "user",
							"type": "address"
						},
						{
							"indexed": true,
							"internalType": "uint256",
							"name": "userId",
							"type": "uint256"
						},
						{
							"indexed": false,
							"internalType": "uint256",
							"name": "packageLevel",
							"type": "uint256"
						},
						{
							"indexed": false,
							"internalType": "string",
							"name": "depositType",
							"type": "string"
						}
					],
					"name": "Upgrade",
					"type": "event"
				},
				{
					"anonymous": false,
					"inputs": [
						{
							"indexed": true,
							"internalType": "uint8",
							"name": "matrixId",
							"type": "uint8"
						},
						{
							"indexed": true,
							"internalType": "uint32",
							"name": "userId",
							"type": "uint32"
						},
						{
							"indexed": true,
							"internalType": "address",
							"name": "user",
							"type": "address"
						},
						{
							"indexed": false,
							"internalType": "uint32",
							"name": "parentId",
							"type": "uint32"
						},
						{
							"indexed": false,
							"internalType": "address",
							"name": "parentAddr",
							"type": "address"
						},
						{
							"indexed": false,
							"internalType": "uint8",
							"name": "position",
							"type": "uint8"
						}
					],
					"name": "UserJoined",
					"type": "event"
				},
				{
					"inputs": [],
					"name": "ACC_PRECISION",
					"outputs": [
						{
							"internalType": "uint256",
							"name": "",
							"type": "uint256"
						}
					],
					"stateMutability": "view",
					"type": "function"
				},
				{
					"inputs": [],
					"name": "PERCENTS_DIVIDER",
					"outputs": [
						{
							"internalType": "uint256",
							"name": "",
							"type": "uint256"
						}
					],
					"stateMutability": "view",
					"type": "function"
				},
				{
					"inputs": [],
					"name": "ROI_CAP_DIVIDER",
					"outputs": [
						{
							"internalType": "uint256",
							"name": "",
							"type": "uint256"
						}
					],
					"stateMutability": "view",
					"type": "function"
				},
				{
					"inputs": [],
					"name": "ROI_CAP_MULTIPLIER",
					"outputs": [
						{
							"internalType": "uint256",
							"name": "",
							"type": "uint256"
						}
					],
					"stateMutability": "view",
					"type": "function"
				},
				{
					"inputs": [],
					"name": "TIME_STEP",
					"outputs": [
						{
							"internalType": "uint256",
							"name": "",
							"type": "uint256"
						}
					],
					"stateMutability": "view",
					"type": "function"
				},
				{
					"inputs": [
						{
							"internalType": "uint256",
							"name": "_userId",
							"type": "uint256"
						}
					],
					"name": "claimCommunity",
					"outputs": [],
					"stateMutability": "nonpayable",
					"type": "function"
				},
				{
					"inputs": [],
					"name": "communityAccPerUser",
					"outputs": [
						{
							"internalType": "uint256",
							"name": "",
							"type": "uint256"
						}
					],
					"stateMutability": "view",
					"type": "function"
				},
				{
					"inputs": [],
					"name": "creatorWallet",
					"outputs": [
						{
							"internalType": "address",
							"name": "",
							"type": "address"
						}
					],
					"stateMutability": "view",
					"type": "function"
				},
				{
					"inputs": [],
					"name": "defaultRefId",
					"outputs": [
						{
							"internalType": "uint256",
							"name": "",
							"type": "uint256"
						}
					],
					"stateMutability": "view",
					"type": "function"
				},
				{
					"inputs": [
						{
							"internalType": "uint256",
							"name": "",
							"type": "uint256"
						}
					],
					"name": "glbBoosterPackages",
					"outputs": [
						{
							"internalType": "uint256",
							"name": "",
							"type": "uint256"
						}
					],
					"stateMutability": "view",
					"type": "function"
				},
				{
					"inputs": [
						{
							"internalType": "uint256",
							"name": "",
							"type": "uint256"
						}
					],
					"name": "minLevelForGlbBooster",
					"outputs": [
						{
							"internalType": "uint256",
							"name": "",
							"type": "uint256"
						}
					],
					"stateMutability": "view",
					"type": "function"
				},
				{
					"inputs": [
						{
							"internalType": "uint256",
							"name": "",
							"type": "uint256"
						}
					],
					"name": "minLevelForPool",
					"outputs": [
						{
							"internalType": "uint256",
							"name": "",
							"type": "uint256"
						}
					],
					"stateMutability": "view",
					"type": "function"
				},
				{
					"inputs": [
						{
							"internalType": "uint256",
							"name": "",
							"type": "uint256"
						}
					],
					"name": "minPoolForGlbBooster",
					"outputs": [
						{
							"internalType": "uint256",
							"name": "",
							"type": "uint256"
						}
					],
					"stateMutability": "view",
					"type": "function"
				},
				{
					"inputs": [
						{
							"internalType": "uint256",
							"name": "",
							"type": "uint256"
						}
					],
					"name": "packages",
					"outputs": [
						{
							"internalType": "uint256",
							"name": "",
							"type": "uint256"
						}
					],
					"stateMutability": "view",
					"type": "function"
				},
				{
					"inputs": [
						{
							"internalType": "uint256",
							"name": "_userId",
							"type": "uint256"
						}
					],
					"name": "pendingCommunity",
					"outputs": [
						{
							"internalType": "uint256",
							"name": "pendingGross",
							"type": "uint256"
						},
						{
							"internalType": "uint256",
							"name": "pendingAfterCap",
							"type": "uint256"
						}
					],
					"stateMutability": "view",
					"type": "function"
				},
				{
					"inputs": [
						{
							"internalType": "uint256",
							"name": "",
							"type": "uint256"
						}
					],
					"name": "poolPackages",
					"outputs": [
						{
							"internalType": "uint256",
							"name": "",
							"type": "uint256"
						}
					],
					"stateMutability": "view",
					"type": "function"
				},
				{
					"inputs": [
						{
							"internalType": "uint256",
							"name": "_sponsorId",
							"type": "uint256"
						}
					],
					"name": "register",
					"outputs": [],
					"stateMutability": "nonpayable",
					"type": "function"
				},
				{
					"inputs": [
						{
							"internalType": "uint256",
							"name": "",
							"type": "uint256"
						}
					],
					"name": "registeredUserIds",
					"outputs": [
						{
							"internalType": "uint256",
							"name": "",
							"type": "uint256"
						}
					],
					"stateMutability": "view",
					"type": "function"
				},
				{
					"inputs": [],
					"name": "systemMaintance",
					"outputs": [
						{
							"internalType": "address",
							"name": "",
							"type": "address"
						}
					],
					"stateMutability": "view",
					"type": "function"
				},
				{
					"inputs": [],
					"name": "teamDevelopment",
					"outputs": [
						{
							"internalType": "address",
							"name": "",
							"type": "address"
						}
					],
					"stateMutability": "view",
					"type": "function"
				},
				{
					"inputs": [],
					"name": "totalUsers",
					"outputs": [
						{
							"internalType": "uint256",
							"name": "",
							"type": "uint256"
						}
					],
					"stateMutability": "view",
					"type": "function"
				},
				{
					"inputs": [
						{
							"internalType": "uint256",
							"name": "_userId",
							"type": "uint256"
						}
					],
					"name": "upgrade",
					"outputs": [],
					"stateMutability": "nonpayable",
					"type": "function"
				},
				{
					"inputs": [],
					"name": "usdt",
					"outputs": [
						{
							"internalType": "contract IERC20",
							"name": "",
							"type": "address"
						}
					],
					"stateMutability": "view",
					"type": "function"
				}
			],
			"devdoc": {
				"kind": "dev",
				"methods": {},
				"version": 1
			},
			"evm": {
				"assembly": "    /* \"contracts/modules/SponsorMatrix.sol\":122:18741  contract Nanakshahi is Storage{... */\n  mstore(0x40, 0x80)\n  jumpi(tag_4, callvalue)\n  mload(0x40)\n  0x01e0\n  dup2\n  add\n  sub(shl(0x40, 0x01), 0x01)\n  dup2\n  gt\n  dup3\n  dup3\n  lt\n  or\n  tag_6\n  jumpi\n  0x40\n  mstore\n    /* \"contracts/modules/Storage.sol\":702:711  15 * 1e18 */\n  0xd02ab486cedc0000\n    /* \"contracts/modules/SponsorMatrix.sol\":122:18741  contract Nanakshahi is Storage{... */\n  dup2\n  mstore\n    /* \"contracts/modules/Storage.sol\":734:743  25 * 1e18 */\n  0x015af1d78b58c40000\n    /* \"contracts/modules/Storage.sol\":691:1206  [... */\n  0x20\n  dup3\n  add\n    /* \"contracts/modules/SponsorMatrix.sol\":122:18741  contract Nanakshahi is Storage{... */\n  mstore\n    /* \"contracts/modules/Storage.sol\":766:775  50 * 1e18 */\n  0x02b5e3af16b1880000\n    /* \"contracts/modules/SponsorMatrix.sol\":122:18741  contract Nanakshahi is Storage{... */\n  0x40\n    /* \"contracts/modules/Storage.sol\":691:1206  [... */\n  dup3\n  add\n    /* \"contracts/modules/SponsorMatrix.sol\":122:18741  contract Nanakshahi is Storage{... */\n  mstore\n    /* \"contracts/modules/Storage.sol\":798:808  100 * 1e18 */\n  0x056bc75e2d63100000\n    /* \"contracts/modules/Storage.sol\":691:1206  [... */\n  0x60\n  dup3\n  add\n    /* \"contracts/modules/SponsorMatrix.sol\":122:18741  contract Nanakshahi is Storage{... */\n  mstore\n    /* \"contracts/modules/Storage.sol\":831:841  200 * 1e18 */\n  0x0ad78ebc5ac6200000\n    /* \"contracts/modules/Storage.sol\":691:1206  [... */\n  0x80\n  dup3\n  add\n    /* \"contracts/modules/SponsorMatrix.sol\":122:18741  contract Nanakshahi is Storage{... */\n  mstore\n    /* \"contracts/modules/Storage.sol\":864:874  400 * 1e18 */\n  0x15af1d78b58c400000\n    /* \"contracts/modules/Storage.sol\":691:1206  [... */\n  0xa0\n  dup3\n  add\n    /* \"contracts/modules/SponsorMatrix.sol\":122:18741  contract Nanakshahi is Storage{... */\n  mstore\n    /* \"contracts/modules/Storage.sol\":897:907  800 * 1e18 */\n  0x2b5e3af16b18800000\n    /* \"contracts/modules/Storage.sol\":691:1206  [... */\n  0xc0\n  dup3\n  add\n    /* \"contracts/modules/SponsorMatrix.sol\":122:18741  contract Nanakshahi is Storage{... */\n  mstore\n    /* \"contracts/modules/Storage.sol\":930:941  1600 * 1e18 */\n  0x56bc75e2d631000000\n    /* \"contracts/modules/Storage.sol\":691:1206  [... */\n  0xe0\n  dup3\n  add\n    /* \"contracts/modules/SponsorMatrix.sol\":122:18741  contract Nanakshahi is Storage{... */\n  mstore\n    /* \"contracts/modules/Storage.sol\":964:975  3200 * 1e18 */\n  0xad78ebc5ac62000000\n    /* \"contracts/modules/Storage.sol\":691:1206  [... */\n  0x0100\n  dup3\n  add\n    /* \"contracts/modules/SponsorMatrix.sol\":122:18741  contract Nanakshahi is Storage{... */\n  mstore\n    /* \"contracts/modules/Storage.sol\":998:1009  6400 * 1e18 */\n  0x015af1d78b58c4000000\n    /* \"contracts/modules/Storage.sol\":691:1206  [... */\n  0x0120\n  dup3\n  add\n    /* \"contracts/modules/SponsorMatrix.sol\":122:18741  contract Nanakshahi is Storage{... */\n  mstore\n    /* \"contracts/modules/Storage.sol\":1032:1044  12800 * 1e18 */\n  0x02b5e3af16b188000000\n    /* \"contracts/modules/Storage.sol\":691:1206  [... */\n  0x0140\n  dup3\n  add\n    /* \"contracts/modules/SponsorMatrix.sol\":122:18741  contract Nanakshahi is Storage{... */\n  mstore\n    /* \"contracts/modules/Storage.sol\":1067:1079  25600 * 1e18 */\n  0x056bc75e2d6310000000\n    /* \"contracts/modules/Storage.sol\":691:1206  [... */\n  0x0160\n  dup3\n  add\n    /* \"contracts/modules/SponsorMatrix.sol\":122:18741  contract Nanakshahi is Storage{... */\n  mstore\n    /* \"contracts/modules/Storage.sol\":1102:1114  51200 * 1e18 */\n  0x0ad78ebc5ac620000000\n    /* \"contracts/modules/Storage.sol\":691:1206  [... */\n  0x0180\n  dup3\n  add\n    /* \"contracts/modules/SponsorMatrix.sol\":122:18741  contract Nanakshahi is Storage{... */\n  mstore\n    /* \"contracts/modules/Storage.sol\":1137:1150  102400 * 1e18 */\n  0x15af1d78b58c40000000\n    /* \"contracts/modules/Storage.sol\":691:1206  [... */\n  0x01a0\n  dup3\n  add\n    /* \"contracts/modules/SponsorMatrix.sol\":122:18741  contract Nanakshahi is Storage{... */\n  mstore\n    /* \"contracts/modules/Storage.sol\":1173:1186  204800 * 1e18 */\n  0x2b5e3af16b1880000000\n    /* \"contracts/modules/Storage.sol\":691:1206  [... */\n  0x01c0\n  dup3\n  add\n    /* \"contracts/modules/SponsorMatrix.sol\":122:18741  contract Nanakshahi is Storage{... */\n  mstore\n    /* \"contracts/modules/Storage.sol\":691:1206  [... */\n  0x06\n    /* \"contracts/modules/SponsorMatrix.sol\":122:18741  contract Nanakshahi is Storage{... */\n  sload\n    /* \"contracts/modules/Storage.sol\":691:1206  [... */\n  0x0f\n  0x06\n    /* \"contracts/modules/SponsorMatrix.sol\":122:18741  contract Nanakshahi is Storage{... */\n  sstore\n  dup1\n    /* \"contracts/modules/Storage.sol\":691:1206  [... */\n  0x0f\n    /* \"contracts/modules/SponsorMatrix.sol\":122:18741  contract Nanakshahi is Storage{... */\n  lt\n  tag_8\n  jumpi\ntag_9:\n  pop\n    /* \"contracts/modules/Storage.sol\":691:1206  [... */\n  0x06\n  0x00\n    /* \"contracts/modules/SponsorMatrix.sol\":122:18741  contract Nanakshahi is Storage{... */\n  mstore\n    /* \"contracts/modules/Storage.sol\":691:1206  [... */\n  0x20\n  0x00\n    /* \"contracts/modules/SponsorMatrix.sol\":122:18741  contract Nanakshahi is Storage{... */\n  keccak256\n  swap1\n  0x00\ntag_10:\n    /* \"contracts/modules/Storage.sol\":691:1206  [... */\n  0x0f\n    /* \"contracts/modules/SponsorMatrix.sol\":122:18741  contract Nanakshahi is Storage{... */\n  dup2\n  lt\n  tag_11\n  jumpi\n  tag_13\n  tag_1\n  jump\t// in\ntag_13:\n    /* \"contracts/modules/Storage.sol\":1243:1248  75e18 */\n  0x0410d586a20a4c0000\n    /* \"contracts/modules/SponsorMatrix.sol\":122:18741  contract Nanakshahi is Storage{... */\n  dup2\n  mstore\n    /* \"contracts/modules/Storage.sol\":1250:1256  300e18 */\n  0x1043561a8829300000\n    /* \"contracts/modules/Storage.sol\":691:1206  [... */\n  0x20\n    /* \"contracts/modules/Storage.sol\":1242:1306  [75e18, 300e18, 1200e18, 4800e18, 19200e18, 76800e18, 307200e18] */\n  dup3\n  add\n    /* \"contracts/modules/SponsorMatrix.sol\":122:18741  contract Nanakshahi is Storage{... */\n  mstore\n    /* \"contracts/modules/Storage.sol\":1258:1265  1200e18 */\n  0x410d586a20a4c00000\n    /* \"contracts/modules/SponsorMatrix.sol\":122:18741  contract Nanakshahi is Storage{... */\n  0x40\n    /* \"contracts/modules/Storage.sol\":1242:1306  [75e18, 300e18, 1200e18, 4800e18, 19200e18, 76800e18, 307200e18] */\n  dup3\n  add\n    /* \"contracts/modules/SponsorMatrix.sol\":122:18741  contract Nanakshahi is Storage{... */\n  mstore\n    /* \"contracts/modules/Storage.sol\":1267:1274  4800e18 */\n  0x01043561a88293000000\n    /* \"contracts/modules/Storage.sol\":691:1206  [... */\n  0x60\n    /* \"contracts/modules/Storage.sol\":1242:1306  [75e18, 300e18, 1200e18, 4800e18, 19200e18, 76800e18, 307200e18] */\n  dup3\n  add\n    /* \"contracts/modules/SponsorMatrix.sol\":122:18741  contract Nanakshahi is Storage{... */\n  mstore\n    /* \"contracts/modules/Storage.sol\":1276:1284  19200e18 */\n  0x0410d586a20a4c000000\n    /* \"contracts/modules/Storage.sol\":691:1206  [... */\n  0x80\n    /* \"contracts/modules/Storage.sol\":1242:1306  [75e18, 300e18, 1200e18, 4800e18, 19200e18, 76800e18, 307200e18] */\n  dup3\n  add\n    /* \"contracts/modules/SponsorMatrix.sol\":122:18741  contract Nanakshahi is Storage{... */\n  mstore\n    /* \"contracts/modules/Storage.sol\":1286:1294  76800e18 */\n  0x1043561a882930000000\n    /* \"contracts/modules/Storage.sol\":691:1206  [... */\n  0xa0\n    /* \"contracts/modules/Storage.sol\":1242:1306  [75e18, 300e18, 1200e18, 4800e18, 19200e18, 76800e18, 307200e18] */\n  dup3\n  add\n    /* \"contracts/modules/SponsorMatrix.sol\":122:18741  contract Nanakshahi is Storage{... */\n  mstore\n    /* \"contracts/modules/Storage.sol\":1296:1305  307200e18 */\n  0x410d586a20a4c0000000\n    /* \"contracts/modules/Storage.sol\":691:1206  [... */\n  0xc0\n    /* \"contracts/modules/Storage.sol\":1242:1306  [75e18, 300e18, 1200e18, 4800e18, 19200e18, 76800e18, 307200e18] */\n  dup3\n  add\n    /* \"contracts/modules/SponsorMatrix.sol\":122:18741  contract Nanakshahi is Storage{... */\n  mstore\n    /* \"contracts/modules/Storage.sol\":1242:1306  [75e18, 300e18, 1200e18, 4800e18, 19200e18, 76800e18, 307200e18] */\n  0x07\n    /* \"contracts/modules/SponsorMatrix.sol\":122:18741  contract Nanakshahi is Storage{... */\n  sload\n    /* \"contracts/modules/Storage.sol\":1242:1306  [75e18, 300e18, 1200e18, 4800e18, 19200e18, 76800e18, 307200e18] */\n  0x07\n    /* \"contracts/modules/SponsorMatrix.sol\":122:18741  contract Nanakshahi is Storage{... */\n  dup1\n  sstore\n  dup1\n    /* \"contracts/modules/Storage.sol\":1242:1306  [75e18, 300e18, 1200e18, 4800e18, 19200e18, 76800e18, 307200e18] */\n  0x07\n    /* \"contracts/modules/SponsorMatrix.sol\":122:18741  contract Nanakshahi is Storage{... */\n  lt\n  tag_14\n  jumpi\ntag_15:\n  pop\n    /* \"contracts/modules/Storage.sol\":1242:1306  [75e18, 300e18, 1200e18, 4800e18, 19200e18, 76800e18, 307200e18] */\n  0x07\n  0x00\n    /* \"contracts/modules/SponsorMatrix.sol\":122:18741  contract Nanakshahi is Storage{... */\n  mstore\n    /* \"contracts/modules/Storage.sol\":691:1206  [... */\n  0x20\n  0x00\n    /* \"contracts/modules/SponsorMatrix.sol\":122:18741  contract Nanakshahi is Storage{... */\n  keccak256\n  swap1\n  0x00\ntag_16:\n    /* \"contracts/modules/Storage.sol\":1242:1306  [75e18, 300e18, 1200e18, 4800e18, 19200e18, 76800e18, 307200e18] */\n  0x07\n    /* \"contracts/modules/SponsorMatrix.sol\":122:18741  contract Nanakshahi is Storage{... */\n  dup2\n  lt\n  tag_17\n  jumpi\n  tag_19\n  tag_2\n  jump\t// in\ntag_19:\n    /* \"contracts/modules/Storage.sol\":798:808  100 * 1e18 */\n  0x056bc75e2d63100000\n    /* \"contracts/modules/SponsorMatrix.sol\":122:18741  contract Nanakshahi is Storage{... */\n  dup2\n  mstore\n    /* \"contracts/modules/Storage.sol\":831:841  200 * 1e18 */\n  0x0ad78ebc5ac6200000\n    /* \"contracts/modules/Storage.sol\":691:1206  [... */\n  0x20\n    /* \"contracts/modules/Storage.sol\":1348:1418  [ 100e18, 200e18, 400e18, 800e18, 1600e18, 3200e18, 6400e18, 12800e18] */\n  dup3\n  add\n    /* \"contracts/modules/SponsorMatrix.sol\":122:18741  contract Nanakshahi is Storage{... */\n  mstore\n    /* \"contracts/modules/Storage.sol\":864:874  400 * 1e18 */\n  0x15af1d78b58c400000\n    /* \"contracts/modules/SponsorMatrix.sol\":122:18741  contract Nanakshahi is Storage{... */\n  0x40\n    /* \"contracts/modules/Storage.sol\":1348:1418  [ 100e18, 200e18, 400e18, 800e18, 1600e18, 3200e18, 6400e18, 12800e18] */\n  dup3\n  add\n    /* \"contracts/modules/SponsorMatrix.sol\":122:18741  contract Nanakshahi is Storage{... */\n  mstore\n    /* \"contracts/modules/Storage.sol\":897:907  800 * 1e18 */\n  0x2b5e3af16b18800000\n    /* \"contracts/modules/Storage.sol\":691:1206  [... */\n  0x60\n    /* \"contracts/modules/Storage.sol\":1348:1418  [ 100e18, 200e18, 400e18, 800e18, 1600e18, 3200e18, 6400e18, 12800e18] */\n  dup3\n  add\n    /* \"contracts/modules/SponsorMatrix.sol\":122:18741  contract Nanakshahi is Storage{... */\n  mstore\n    /* \"contracts/modules/Storage.sol\":930:941  1600 * 1e18 */\n  0x56bc75e2d631000000\n    /* \"contracts/modules/Storage.sol\":691:1206  [... */\n  0x80\n    /* \"contracts/modules/Storage.sol\":1348:1418  [ 100e18, 200e18, 400e18, 800e18, 1600e18, 3200e18, 6400e18, 12800e18] */\n  dup3\n  add\n    /* \"contracts/modules/SponsorMatrix.sol\":122:18741  contract Nanakshahi is Storage{... */\n  mstore\n    /* \"contracts/modules/Storage.sol\":964:975  3200 * 1e18 */\n  0xad78ebc5ac62000000\n    /* \"contracts/modules/Storage.sol\":691:1206  [... */\n  0xa0\n    /* \"contracts/modules/Storage.sol\":1348:1418  [ 100e18, 200e18, 400e18, 800e18, 1600e18, 3200e18, 6400e18, 12800e18] */\n  dup3\n  add\n    /* \"contracts/modules/SponsorMatrix.sol\":122:18741  contract Nanakshahi is Storage{... */\n  mstore\n    /* \"contracts/modules/Storage.sol\":998:1009  6400 * 1e18 */\n  0x015af1d78b58c4000000\n    /* \"contracts/modules/Storage.sol\":691:1206  [... */\n  0xc0\n    /* \"contracts/modules/Storage.sol\":1348:1418  [ 100e18, 200e18, 400e18, 800e18, 1600e18, 3200e18, 6400e18, 12800e18] */\n  dup3\n  add\n    /* \"contracts/modules/SponsorMatrix.sol\":122:18741  contract Nanakshahi is Storage{... */\n  mstore\n    /* \"contracts/modules/Storage.sol\":1032:1044  12800 * 1e18 */\n  0x02b5e3af16b188000000\n    /* \"contracts/modules/Storage.sol\":691:1206  [... */\n  0xe0\n    /* \"contracts/modules/Storage.sol\":1348:1418  [ 100e18, 200e18, 400e18, 800e18, 1600e18, 3200e18, 6400e18, 12800e18] */\n  dup3\n  add\n    /* \"contracts/modules/SponsorMatrix.sol\":122:18741  contract Nanakshahi is Storage{... */\n  mstore\n    /* \"contracts/modules/Storage.sol\":1348:1418  [ 100e18, 200e18, 400e18, 800e18, 1600e18, 3200e18, 6400e18, 12800e18] */\n  0x08\n    /* \"contracts/modules/SponsorMatrix.sol\":122:18741  contract Nanakshahi is Storage{... */\n  sload\n    /* \"contracts/modules/Storage.sol\":1348:1418  [ 100e18, 200e18, 400e18, 800e18, 1600e18, 3200e18, 6400e18, 12800e18] */\n  0x08\n    /* \"contracts/modules/SponsorMatrix.sol\":122:18741  contract Nanakshahi is Storage{... */\n  dup1\n  sstore\n  dup1\n    /* \"contracts/modules/Storage.sol\":1348:1418  [ 100e18, 200e18, 400e18, 800e18, 1600e18, 3200e18, 6400e18, 12800e18] */\n  0x08\n    /* \"contracts/modules/SponsorMatrix.sol\":122:18741  contract Nanakshahi is Storage{... */\n  lt\n  tag_20\n  jumpi\ntag_21:\n  pop\n    /* \"contracts/modules/Storage.sol\":1348:1418  [ 100e18, 200e18, 400e18, 800e18, 1600e18, 3200e18, 6400e18, 12800e18] */\n  0x08\n  0x00\n    /* \"contracts/modules/SponsorMatrix.sol\":122:18741  contract Nanakshahi is Storage{... */\n  mstore\n    /* \"contracts/modules/Storage.sol\":691:1206  [... */\n  0x20\n  0x00\n    /* \"contracts/modules/SponsorMatrix.sol\":122:18741  contract Nanakshahi is Storage{... */\n  keccak256\n  swap1\n  0x00\ntag_22:\n    /* \"contracts/modules/Storage.sol\":1348:1418  [ 100e18, 200e18, 400e18, 800e18, 1600e18, 3200e18, 6400e18, 12800e18] */\n  0x08\n    /* \"contracts/modules/SponsorMatrix.sol\":122:18741  contract Nanakshahi is Storage{... */\n  dup2\n  lt\n  tag_23\n  jumpi\n  tag_25\n  tag_1\n  jump\t// in\ntag_25:\n    /* \"contracts/modules/Storage.sol\":1459:1460  3 */\n  0x03\n    /* \"contracts/modules/SponsorMatrix.sol\":122:18741  contract Nanakshahi is Storage{... */\n  dup2\n  mstore\n  0x05\n    /* \"contracts/modules/Storage.sol\":691:1206  [... */\n  0x20\n    /* \"contracts/modules/Storage.sol\":1458:1482  [3, 5, 7, 9, 11, 13, 15] */\n  dup3\n  add\n    /* \"contracts/modules/SponsorMatrix.sol\":122:18741  contract Nanakshahi is Storage{... */\n  mstore\n    /* \"contracts/modules/Storage.sol\":1242:1306  [75e18, 300e18, 1200e18, 4800e18, 19200e18, 76800e18, 307200e18] */\n  0x07\n    /* \"contracts/modules/SponsorMatrix.sol\":122:18741  contract Nanakshahi is Storage{... */\n  0x40\n    /* \"contracts/modules/Storage.sol\":1458:1482  [3, 5, 7, 9, 11, 13, 15] */\n  dup3\n  add\n    /* \"contracts/modules/SponsorMatrix.sol\":122:18741  contract Nanakshahi is Storage{... */\n  mstore\n    /* \"contracts/modules/Storage.sol\":1468:1469  9 */\n  0x09\n    /* \"contracts/modules/Storage.sol\":691:1206  [... */\n  0x60\n    /* \"contracts/modules/Storage.sol\":1458:1482  [3, 5, 7, 9, 11, 13, 15] */\n  dup3\n  add\n    /* \"contracts/modules/SponsorMatrix.sol\":122:18741  contract Nanakshahi is Storage{... */\n  mstore\n    /* \"contracts/modules/Storage.sol\":1471:1473  11 */\n  0x0b\n    /* \"contracts/modules/Storage.sol\":691:1206  [... */\n  0x80\n    /* \"contracts/modules/Storage.sol\":1458:1482  [3, 5, 7, 9, 11, 13, 15] */\n  dup3\n  add\n    /* \"contracts/modules/SponsorMatrix.sol\":122:18741  contract Nanakshahi is Storage{... */\n  mstore\n    /* \"contracts/modules/Storage.sol\":1475:1477  13 */\n  0x0d\n    /* \"contracts/modules/Storage.sol\":691:1206  [... */\n  0xa0\n    /* \"contracts/modules/Storage.sol\":1458:1482  [3, 5, 7, 9, 11, 13, 15] */\n  dup3\n  add\n    /* \"contracts/modules/SponsorMatrix.sol\":122:18741  contract Nanakshahi is Storage{... */\n  mstore\n    /* \"contracts/modules/Storage.sol\":691:1206  [... */\n  0x0f\n  0xc0\n    /* \"contracts/modules/Storage.sol\":1458:1482  [3, 5, 7, 9, 11, 13, 15] */\n  dup3\n  add\n    /* \"contracts/modules/SponsorMatrix.sol\":122:18741  contract Nanakshahi is Storage{... */\n  mstore\n  0x00\ntag_26:\n    /* \"contracts/modules/Storage.sol\":1242:1306  [75e18, 300e18, 1200e18, 4800e18, 19200e18, 76800e18, 307200e18] */\n  0x07\n    /* \"contracts/modules/SponsorMatrix.sol\":122:18741  contract Nanakshahi is Storage{... */\n  dup2\n  lt\n  tag_27\n  jumpi\n  tag_29\n  tag_2\n  jump\t// in\ntag_29:\n    /* \"contracts/modules/Storage.sol\":1529:1530  4 */\n  0x04\n    /* \"contracts/modules/SponsorMatrix.sol\":122:18741  contract Nanakshahi is Storage{... */\n  dup2\n  mstore\n  0x05\n    /* \"contracts/modules/Storage.sol\":691:1206  [... */\n  0x20\n    /* \"contracts/modules/Storage.sol\":1528:1553  [4, 5, 6, 7, 8, 9, 10,11] */\n  dup3\n  add\n    /* \"contracts/modules/SponsorMatrix.sol\":122:18741  contract Nanakshahi is Storage{... */\n  mstore\n    /* \"contracts/modules/Storage.sol\":691:1206  [... */\n  0x06\n    /* \"contracts/modules/SponsorMatrix.sol\":122:18741  contract Nanakshahi is Storage{... */\n  0x40\n    /* \"contracts/modules/Storage.sol\":1528:1553  [4, 5, 6, 7, 8, 9, 10,11] */\n  dup3\n  add\n    /* \"contracts/modules/SponsorMatrix.sol\":122:18741  contract Nanakshahi is Storage{... */\n  mstore\n    /* \"contracts/modules/Storage.sol\":1242:1306  [75e18, 300e18, 1200e18, 4800e18, 19200e18, 76800e18, 307200e18] */\n  0x07\n    /* \"contracts/modules/Storage.sol\":691:1206  [... */\n  0x60\n    /* \"contracts/modules/Storage.sol\":1528:1553  [4, 5, 6, 7, 8, 9, 10,11] */\n  dup3\n  add\n    /* \"contracts/modules/SponsorMatrix.sol\":122:18741  contract Nanakshahi is Storage{... */\n  mstore\n    /* \"contracts/modules/Storage.sol\":1348:1418  [ 100e18, 200e18, 400e18, 800e18, 1600e18, 3200e18, 6400e18, 12800e18] */\n  0x08\n    /* \"contracts/modules/Storage.sol\":691:1206  [... */\n  0x80\n    /* \"contracts/modules/Storage.sol\":1528:1553  [4, 5, 6, 7, 8, 9, 10,11] */\n  dup3\n  add\n    /* \"contracts/modules/SponsorMatrix.sol\":122:18741  contract Nanakshahi is Storage{... */\n  mstore\n    /* \"contracts/modules/Storage.sol\":1468:1469  9 */\n  0x09\n    /* \"contracts/modules/Storage.sol\":691:1206  [... */\n  0xa0\n    /* \"contracts/modules/Storage.sol\":1528:1553  [4, 5, 6, 7, 8, 9, 10,11] */\n  dup3\n  add\n    /* \"contracts/modules/SponsorMatrix.sol\":122:18741  contract Nanakshahi is Storage{... */\n  mstore\n    /* \"contracts/modules/Storage.sol\":1547:1549  10 */\n  0x0a\n    /* \"contracts/modules/Storage.sol\":691:1206  [... */\n  0xc0\n    /* \"contracts/modules/Storage.sol\":1528:1553  [4, 5, 6, 7, 8, 9, 10,11] */\n  dup3\n  add\n    /* \"contracts/modules/SponsorMatrix.sol\":122:18741  contract Nanakshahi is Storage{... */\n  mstore\n    /* \"contracts/modules/Storage.sol\":1471:1473  11 */\n  0x0b\n    /* \"contracts/modules/Storage.sol\":691:1206  [... */\n  0xe0\n    /* \"contracts/modules/Storage.sol\":1528:1553  [4, 5, 6, 7, 8, 9, 10,11] */\n  dup3\n  add\n    /* \"contracts/modules/SponsorMatrix.sol\":122:18741  contract Nanakshahi is Storage{... */\n  mstore\n  0x00\ntag_30:\n    /* \"contracts/modules/Storage.sol\":1348:1418  [ 100e18, 200e18, 400e18, 800e18, 1600e18, 3200e18, 6400e18, 12800e18] */\n  0x08\n    /* \"contracts/modules/SponsorMatrix.sol\":122:18741  contract Nanakshahi is Storage{... */\n  dup2\n  lt\n  tag_31\n  jumpi\n  tag_33\n  tag_2\n  jump\t// in\ntag_33:\n  0x00\n  dup2\n  mstore\n  0x01\n    /* \"contracts/modules/Storage.sol\":691:1206  [... */\n  0x20\n    /* \"contracts/modules/Storage.sol\":1598:1621  [0, 1, 1, 1, 1, 1, 1,1] */\n  dup3\n  add\n    /* \"contracts/modules/SponsorMatrix.sol\":122:18741  contract Nanakshahi is Storage{... */\n  mstore\n  0x01\n  0x40\n    /* \"contracts/modules/Storage.sol\":1598:1621  [0, 1, 1, 1, 1, 1, 1,1] */\n  dup3\n  add\n    /* \"contracts/modules/SponsorMatrix.sol\":122:18741  contract Nanakshahi is Storage{... */\n  mstore\n  0x01\n    /* \"contracts/modules/Storage.sol\":691:1206  [... */\n  0x60\n    /* \"contracts/modules/Storage.sol\":1598:1621  [0, 1, 1, 1, 1, 1, 1,1] */\n  dup3\n  add\n    /* \"contracts/modules/SponsorMatrix.sol\":122:18741  contract Nanakshahi is Storage{... */\n  mstore\n  0x01\n    /* \"contracts/modules/Storage.sol\":691:1206  [... */\n  0x80\n    /* \"contracts/modules/Storage.sol\":1598:1621  [0, 1, 1, 1, 1, 1, 1,1] */\n  dup3\n  add\n    /* \"contracts/modules/SponsorMatrix.sol\":122:18741  contract Nanakshahi is Storage{... */\n  mstore\n  0x01\n    /* \"contracts/modules/Storage.sol\":691:1206  [... */\n  0xa0\n    /* \"contracts/modules/Storage.sol\":1598:1621  [0, 1, 1, 1, 1, 1, 1,1] */\n  dup3\n  add\n    /* \"contracts/modules/SponsorMatrix.sol\":122:18741  contract Nanakshahi is Storage{... */\n  mstore\n  0x01\n    /* \"contracts/modules/Storage.sol\":691:1206  [... */\n  0xc0\n    /* \"contracts/modules/Storage.sol\":1598:1621  [0, 1, 1, 1, 1, 1, 1,1] */\n  dup3\n  add\n    /* \"contracts/modules/SponsorMatrix.sol\":122:18741  contract Nanakshahi is Storage{... */\n  mstore\n  0x01\n    /* \"contracts/modules/Storage.sol\":691:1206  [... */\n  0xe0\n    /* \"contracts/modules/Storage.sol\":1598:1621  [0, 1, 1, 1, 1, 1, 1,1] */\n  dup3\n  add\n    /* \"contracts/modules/SponsorMatrix.sol\":122:18741  contract Nanakshahi is Storage{... */\n  mstore\n  0x00\ntag_34:\n    /* \"contracts/modules/Storage.sol\":1348:1418  [ 100e18, 200e18, 400e18, 800e18, 1600e18, 3200e18, 6400e18, 12800e18] */\n  0x08\n    /* \"contracts/modules/SponsorMatrix.sol\":122:18741  contract Nanakshahi is Storage{... */\n  dup2\n  lt\n  tag_35\n  jumpi\n  mload(0x40)\n  dataSize(sub_0)\n  swap1\n  dup2\n  dataOffset(sub_0)\n  dup3\n  codecopy\n  return\ntag_35:\n  0x01\n  swap1\n    /* \"contracts/modules/Storage.sol\":691:1206  [... */\n  0x20\n    /* \"contracts/modules/SponsorMatrix.sol\":122:18741  contract Nanakshahi is Storage{... */\n  0xff\n  dup5\n  mload\n  and\n  swap4\n  add\n  swap3\n  dup2\n    /* \"contracts/modules/Storage.sol\":1598:1621  [0, 1, 1, 1, 1, 1, 1,1] */\n  0x18\n    /* \"contracts/modules/SponsorMatrix.sol\":122:18741  contract Nanakshahi is Storage{... */\n  add\n  sstore\n  add\n  jump(tag_34)\ntag_31:\n  0x01\n  swap1\n    /* \"contracts/modules/Storage.sol\":691:1206  [... */\n  0x20\n    /* \"contracts/modules/SponsorMatrix.sol\":122:18741  contract Nanakshahi is Storage{... */\n  0xff\n  dup5\n  mload\n  and\n  swap4\n  add\n  swap3\n  dup2\n    /* \"contracts/modules/Storage.sol\":1528:1553  [4, 5, 6, 7, 8, 9, 10,11] */\n  0x10\n    /* \"contracts/modules/SponsorMatrix.sol\":122:18741  contract Nanakshahi is Storage{... */\n  add\n  sstore\n  add\n  jump(tag_30)\ntag_27:\n  0x01\n  swap1\n    /* \"contracts/modules/Storage.sol\":691:1206  [... */\n  0x20\n    /* \"contracts/modules/SponsorMatrix.sol\":122:18741  contract Nanakshahi is Storage{... */\n  0xff\n  dup5\n  mload\n  and\n  swap4\n  add\n  swap3\n  dup2\n    /* \"contracts/modules/Storage.sol\":1468:1469  9 */\n  0x09\n    /* \"contracts/modules/SponsorMatrix.sol\":122:18741  contract Nanakshahi is Storage{... */\n  add\n  sstore\n  add\n  jump(tag_26)\ntag_23:\n  dup2\n  mload\n  sub(shl(0x50, 0x01), 0x01)\n  and\n  dup2\n  dup5\n  add\n  sstore\n    /* \"contracts/modules/Storage.sol\":691:1206  [... */\n  0x20\n    /* \"contracts/modules/SponsorMatrix.sol\":122:18741  contract Nanakshahi is Storage{... */\n  swap1\n  swap2\n  add\n  swap1\n  0x01\n  add\n  jump(tag_22)\ntag_20:\n    /* \"contracts/modules/Storage.sol\":1348:1418  [ 100e18, 200e18, 400e18, 800e18, 1600e18, 3200e18, 6400e18, 12800e18] */\n  0x08\n  0x00\n    /* \"contracts/modules/SponsorMatrix.sol\":122:18741  contract Nanakshahi is Storage{... */\n  mstore\n  tag_37\n  swap1\n  0xf3f7a9fe364faab93b216da50a3214154f22a0a2b415b23a84c8169e8b636ee3\n  add\n  0xf3f7a9fe364faab93b216da50a3214154f22a0a2b415b23a84c8169e8b636eeb\n  tag_3\n  jump\t// in\ntag_37:\n  dup2\n  jump(tag_21)\ntag_17:\n  dup2\n  mload\n  sub(shl(0x50, 0x01), 0x01)\n  and\n  dup2\n  dup5\n  add\n  sstore\n    /* \"contracts/modules/Storage.sol\":691:1206  [... */\n  0x20\n    /* \"contracts/modules/SponsorMatrix.sol\":122:18741  contract Nanakshahi is Storage{... */\n  swap1\n  swap2\n  add\n  swap1\n  0x01\n  add\n  jump(tag_16)\ntag_14:\n    /* \"contracts/modules/Storage.sol\":1242:1306  [75e18, 300e18, 1200e18, 4800e18, 19200e18, 76800e18, 307200e18] */\n  0x07\n  0x00\n    /* \"contracts/modules/SponsorMatrix.sol\":122:18741  contract Nanakshahi is Storage{... */\n  mstore\n  tag_38\n  swap1\n  0xa66cc928b5edb82af9bd49922954155ab7b0942694bea4ce44661d9a8736c688\n  add\n  0xa66cc928b5edb82af9bd49922954155ab7b0942694bea4ce44661d9a8736c68f\n  tag_3\n  jump\t// in\ntag_38:\n  dup2\n  jump(tag_15)\ntag_11:\n  dup2\n  mload\n  sub(shl(0x50, 0x01), 0x01)\n  and\n  dup2\n  dup5\n  add\n  sstore\n    /* \"contracts/modules/Storage.sol\":691:1206  [... */\n  0x20\n    /* \"contracts/modules/SponsorMatrix.sol\":122:18741  contract Nanakshahi is Storage{... */\n  swap1\n  swap2\n  add\n  swap1\n  0x01\n  add\n  jump(tag_10)\ntag_8:\n    /* \"contracts/modules/Storage.sol\":691:1206  [... */\n  0x06\n  0x00\n    /* \"contracts/modules/SponsorMatrix.sol\":122:18741  contract Nanakshahi is Storage{... */\n  mstore\n  tag_39\n  swap1\n  0xf652222313e28459528d920b65115c16c04f3efc82aaedc97be59f3f377c0d3f\n  add\n  0xf652222313e28459528d920b65115c16c04f3efc82aaedc97be59f3f377c0d4e\n  tag_3\n  jump\t// in\ntag_39:\n  0x00\n  jump(tag_9)\ntag_6:\n  mstore(0x00, shl(0xe0, 0x4e487b71))\n  mstore(0x04, 0x41)\n  revert(0x00, 0x24)\ntag_4:\n  0x00\n  dup1\n  revert\ntag_1:\n  mload(0x40)\n  swap1\n  0xe0\n  dup3\n  add\n  sub(shl(0x40, 0x01), 0x01)\n  dup2\n  gt\n  dup4\n  dup3\n  lt\n  or\n  tag_6\n  jumpi\n  0x40\n  mstore\n  jump\t// out\ntag_2:\n  mload(0x40)\n  swap1\n  0x0100\n  dup3\n  add\n  sub(shl(0x40, 0x01), 0x01)\n  dup2\n  gt\n  dup4\n  dup3\n  lt\n  or\n  tag_6\n  jumpi\n  0x40\n  mstore\n  jump\t// out\ntag_3:\n  dup2\n  dup2\n  lt\n  tag_45\n  jumpi\n  pop\n  pop\n  jump\t// out\ntag_45:\n  0x00\n  dup2\n  sstore\n  0x01\n  add\n  jump(tag_3)\nstop\n\nsub_0: assembly {\n        /* \"contracts/modules/SponsorMatrix.sol\":122:18741  contract Nanakshahi is Storage{... */\n      0x80\n      dup1\n      0x40\n      mstore\n      jumpi(tag_28, iszero(lt(calldatasize, 0x04)))\n      0x00\n      dup1\n      revert\n    tag_28:\n      shr(0xe0, calldataload(0x00))\n      swap1\n      dup2\n      0x01c234a8\n      eq\n      tag_30\n      jumpi\n      pop\n      dup1\n      0x2132d204\n      eq\n      tag_32\n      jumpi\n      dup1\n      0x2350268f\n      eq\n      tag_34\n      jumpi\n      dup1\n      0x24513088\n      eq\n      tag_36\n      jumpi\n      dup1\n      0x2f48ab7d\n      eq\n      tag_38\n      jumpi\n      dup1\n      0x32bc298c\n      eq\n      tag_40\n      jumpi\n      dup1\n      0x32fcd966\n      eq\n      tag_42\n      jumpi\n      dup1\n      0x375b43b4\n      eq\n      tag_44\n      jumpi\n      dup1\n      0x39ab3603\n      eq\n      tag_46\n      jumpi\n      dup1\n      0x45977d03\n      eq\n      tag_48\n      jumpi\n      dup1\n      0x58c7d352\n      eq\n      tag_50\n      jumpi\n      dup1\n      0x78f6ad6d\n      eq\n      tag_52\n      jumpi\n      dup1\n      0x7cdc65f2\n      eq\n      tag_54\n      jumpi\n      dup1\n      0x956a3228\n      eq\n      tag_56\n      jumpi\n      dup1\n      0xae4708dc\n      eq\n      tag_58\n      jumpi\n      dup1\n      0xbff1f9e1\n      eq\n      tag_60\n      jumpi\n      dup1\n      0xc216212a\n      eq\n      tag_62\n      jumpi\n      dup1\n      0xd0a2fd79\n      eq\n      tag_64\n      jumpi\n      dup1\n      0xd54d6ddb\n      eq\n      tag_66\n      jumpi\n      dup1\n      0xe9e34a16\n      eq\n      tag_68\n      jumpi\n      dup1\n      0xec597e6f\n      eq\n      tag_70\n      jumpi\n      dup1\n      0xf207564e\n      eq\n      tag_72\n      jumpi\n      0xf5d74d93\n      eq\n      tag_74\n      jumpi\n      0x00\n      dup1\n      revert\n    tag_74:\n      jumpi(tag_78, callvalue)\n      jumpi(tag_78, slt(add(not(0x03), calldatasize), 0x00))\n        /* \"contracts/modules/Storage.sol\":252:282  address public teamDevelopment */\n      0x03\n        /* \"contracts/modules/SponsorMatrix.sol\":122:18741  contract Nanakshahi is Storage{... */\n      sload\n      mload(0x40)\n      sub(shl(0xa0, 0x01), 0x01)\n      swap1\n      swap2\n      and\n      dup2\n      mstore\n      0x20\n      swap1\n      return\n    tag_78:\n      0x00\n      dup1\n      revert\n    tag_72:\n      jumpi(tag_78, callvalue)\n      jumpi(tag_78, slt(add(not(0x03), calldatasize), 0x20))\n      calldataload(0x04)\n        /* \"contracts/modules/SponsorMatrix.sol\":296:306  msg.sender */\n      caller\n        /* \"contracts/modules/SponsorMatrix.sol\":122:18741  contract Nanakshahi is Storage{... */\n      0x00\n      mstore\n        /* \"contracts/modules/SponsorMatrix.sol\":284:295  addressToId */\n      0x2a\n        /* \"contracts/modules/SponsorMatrix.sol\":122:18741  contract Nanakshahi is Storage{... */\n      0x20\n      mstore\n      jumpi(tag_84, sload(keccak256(0x00, 0x40)))\n      dup1\n      0x00\n      mstore\n        /* \"contracts/modules/SponsorMatrix.sol\":354:359  users */\n      0x2b\n        /* \"contracts/modules/SponsorMatrix.sol\":122:18741  contract Nanakshahi is Storage{... */\n      0x20\n      mstore\n        /* \"contracts/modules/SponsorMatrix.sol\":354:374  users[_sponsorId].id */\n      0x03\n        /* \"contracts/modules/SponsorMatrix.sol\":122:18741  contract Nanakshahi is Storage{... */\n      keccak256(0x00, 0x40)\n        /* \"contracts/modules/SponsorMatrix.sol\":354:374  users[_sponsorId].id */\n      add\n        /* \"contracts/modules/SponsorMatrix.sol\":122:18741  contract Nanakshahi is Storage{... */\n      sload\n        /* \"contracts/modules/SponsorMatrix.sol\":354:378  users[_sponsorId].id > 0 */\n      iszero\n        /* \"contracts/modules/SponsorMatrix.sol\":122:18741  contract Nanakshahi is Storage{... */\n      tag_86\n      jumpi\n      0x00\n      dup1\n      sload\n      0x20\n      swap1\n        /* \"contracts/modules/SponsorMatrix.sol\":467:524  usdt.transferFrom(msg.sender, address(this), packages[0]) */\n      tag_88\n      swap1\n      sub(shl(0xa0, 0x01), 0x01)\n        /* \"contracts/modules/SponsorMatrix.sol\":122:18741  contract Nanakshahi is Storage{... */\n      and\n        /* \"contracts/modules/SponsorMatrix.sol\":512:523  packages[0] */\n      tag_89\n      tag_2\n      jump\t// in\n    tag_89:\n        /* \"contracts/modules/SponsorMatrix.sol\":122:18741  contract Nanakshahi is Storage{... */\n      swap1\n      sload\n      mload(0x40)\n      shl(0xe0, 0x23b872dd)\n        /* \"contracts/modules/SponsorMatrix.sol\":467:524  usdt.transferFrom(msg.sender, address(this), packages[0]) */\n      dup2\n      mstore\n        /* \"contracts/modules/SponsorMatrix.sol\":296:306  msg.sender */\n      caller\n        /* \"contracts/modules/SponsorMatrix.sol\":122:18741  contract Nanakshahi is Storage{... */\n      0x04\n        /* \"contracts/modules/SponsorMatrix.sol\":467:524  usdt.transferFrom(msg.sender, address(this), packages[0]) */\n      dup3\n      add\n        /* \"contracts/modules/SponsorMatrix.sol\":122:18741  contract Nanakshahi is Storage{... */\n      mstore\n        /* \"contracts/modules/SponsorMatrix.sol\":505:509  this */\n      address\n        /* \"contracts/modules/SponsorMatrix.sol\":122:18741  contract Nanakshahi is Storage{... */\n      0x24\n      dup3\n      add\n      mstore\n        /* \"contracts/modules/SponsorMatrix.sol\":354:374  users[_sponsorId].id */\n      0x03\n        /* \"contracts/modules/SponsorMatrix.sol\":122:18741  contract Nanakshahi is Storage{... */\n      swap3\n      swap1\n      swap3\n      shl\n      shr\n      0x44\n      dup3\n      add\n      mstore\n      swap4\n      dup5\n      swap3\n      dup4\n      swap2\n      swap1\n      dup3\n      swap1\n      0x64\n      dup3\n      add\n      swap1\n      jump\n        /* \"contracts/modules/SponsorMatrix.sol\":467:524  usdt.transferFrom(msg.sender, address(this), packages[0]) */\n    tag_88:\n      sub\n      swap3\n      gas\n      call\n      dup1\n      iszero\n      tag_90\n      jumpi\n      tag_92\n      jumpi\n        /* \"contracts/modules/SponsorMatrix.sol\":122:18741  contract Nanakshahi is Storage{... */\n    tag_93:\n      pop\n      sload(0x04)\n      swap1\n        /* \"contracts/modules/SponsorMatrix.sol\":600:625  defaultRefId + totalUsers */\n      tag_94\n        /* \"contracts/modules/SponsorMatrix.sol\":615:625  totalUsers */\n      0x05\n        /* \"contracts/modules/SponsorMatrix.sol\":122:18741  contract Nanakshahi is Storage{... */\n      sload\n        /* \"contracts/modules/SponsorMatrix.sol\":600:625  defaultRefId + totalUsers */\n      dup1\n      swap4\n      tag_13\n      jump\t// in\n    tag_94:\n        /* \"contracts/modules/SponsorMatrix.sol\":122:18741  contract Nanakshahi is Storage{... */\n      swap2\n      0x01\n      dup2\n      add\n      dup1\n      swap2\n      gt\n      tag_120\n      jumpi\n        /* \"contracts/modules/SponsorMatrix.sol\":615:625  totalUsers */\n      0x05\n        /* \"contracts/modules/SponsorMatrix.sol\":122:18741  contract Nanakshahi is Storage{... */\n      sstore\n        /* \"contracts/modules/SponsorMatrix.sol\":296:306  msg.sender */\n      caller\n        /* \"contracts/modules/SponsorMatrix.sol\":122:18741  contract Nanakshahi is Storage{... */\n      0x00\n      mstore\n        /* \"contracts/modules/SponsorMatrix.sol\":284:295  addressToId */\n      0x2a\n        /* \"contracts/modules/SponsorMatrix.sol\":122:18741  contract Nanakshahi is Storage{... */\n      0x20\n      mstore\n      dup2\n      keccak256(0x00, 0x40)\n      sstore\n      dup2\n      0x00\n      mstore\n        /* \"contracts/modules/SponsorMatrix.sol\":354:359  users */\n      0x2b\n        /* \"contracts/modules/SponsorMatrix.sol\":122:18741  contract Nanakshahi is Storage{... */\n      0x20\n      mstore\n      keccak256(0x00, 0x40)\n        /* \"contracts/modules/SponsorMatrix.sol\":296:306  msg.sender */\n      swap1\n      caller\n        /* \"contracts/modules/SponsorMatrix.sol\":122:18741  contract Nanakshahi is Storage{... */\n      shl(0xa0, 0xffffffffffffffffffffffff)\n      dup4\n      sload\n      and\n      or\n      dup3\n      sstore\n        /* \"contracts/modules/SponsorMatrix.sol\":820:835  block.timestamp */\n      timestamp\n        /* \"contracts/modules/SponsorMatrix.sol\":802:817  user.checkpoint */\n      0x02\n      dup4\n      add\n        /* \"contracts/modules/SponsorMatrix.sol\":122:18741  contract Nanakshahi is Storage{... */\n      sstore\n        /* \"contracts/modules/SponsorMatrix.sol\":846:853  user.id */\n      dup3\n        /* \"contracts/modules/SponsorMatrix.sol\":354:374  users[_sponsorId].id */\n      0x03\n        /* \"contracts/modules/SponsorMatrix.sol\":846:853  user.id */\n      dup4\n      add\n        /* \"contracts/modules/SponsorMatrix.sol\":122:18741  contract Nanakshahi is Storage{... */\n      sstore\n      0x04\n        /* \"contracts/modules/SponsorMatrix.sol\":876:890  user.sponsorId */\n      dup3\n      add\n        /* \"contracts/modules/SponsorMatrix.sol\":122:18741  contract Nanakshahi is Storage{... */\n      dup2\n      dup2\n      sstore\n      0x01\n        /* \"contracts/modules/SponsorMatrix.sol\":512:520  packages */\n      0x06\n        /* \"contracts/modules/SponsorMatrix.sol\":914:924  user.level */\n      dup5\n      add\n        /* \"contracts/modules/SponsorMatrix.sol\":122:18741  contract Nanakshahi is Storage{... */\n      sstore\n        /* \"contracts/modules/SponsorMatrix.sol\":959:970  packages[0] */\n      tag_97\n      tag_2\n      jump\t// in\n    tag_97:\n        /* \"contracts/modules/SponsorMatrix.sol\":122:18741  contract Nanakshahi is Storage{... */\n      swap1\n      sload\n      swap1\n        /* \"contracts/modules/SponsorMatrix.sol\":354:374  users[_sponsorId].id */\n      0x03\n        /* \"contracts/modules/SponsorMatrix.sol\":122:18741  contract Nanakshahi is Storage{... */\n      shl\n      shr\n        /* \"contracts/modules/SponsorMatrix.sol\":939:956  user.totalDeposit */\n      0x0a\n      dup5\n      add\n        /* \"contracts/modules/SponsorMatrix.sol\":122:18741  contract Nanakshahi is Storage{... */\n      sstore\n        /* \"contracts/modules/SponsorMatrix.sol\":820:835  block.timestamp */\n      timestamp\n        /* \"contracts/modules/SponsorMatrix.sol\":981:1002  user.registrationTime */\n      0x0f\n      dup5\n      add\n        /* \"contracts/modules/SponsorMatrix.sol\":122:18741  contract Nanakshahi is Storage{... */\n      sstore\n      dup2\n      0x00\n      mstore\n        /* \"contracts/modules/SponsorMatrix.sol\":354:359  users */\n      0x2b\n        /* \"contracts/modules/SponsorMatrix.sol\":122:18741  contract Nanakshahi is Storage{... */\n      0x20\n      mstore\n        /* \"contracts/modules/SponsorMatrix.sol\":1086:1114  users[_sponsorId].directTeam */\n      0x07\n        /* \"contracts/modules/SponsorMatrix.sol\":122:18741  contract Nanakshahi is Storage{... */\n      keccak256(0x00, 0x40)\n        /* \"contracts/modules/SponsorMatrix.sol\":1086:1114  users[_sponsorId].directTeam */\n      add\n        /* \"contracts/modules/SponsorMatrix.sol\":122:18741  contract Nanakshahi is Storage{... */\n      dup1\n      sload\n      swap1\n      0x01\n      dup3\n      add\n      dup1\n      swap3\n      gt\n      tag_120\n      jumpi\n      sstore\n      dup2\n      0x00\n      mstore\n        /* \"contracts/modules/SponsorMatrix.sol\":1130:1145  directReferrals */\n      0x30\n        /* \"contracts/modules/SponsorMatrix.sol\":122:18741  contract Nanakshahi is Storage{... */\n      0x20\n      mstore\n        /* \"contracts/modules/SponsorMatrix.sol\":1130:1173  directReferrals[_sponsorId].push(newUserId) */\n      tag_100\n        /* \"contracts/modules/SponsorMatrix.sol\":122:18741  contract Nanakshahi is Storage{... */\n      dup5\n      keccak256(0x00, 0x40)\n        /* \"contracts/modules/SponsorMatrix.sol\":1130:1173  directReferrals[_sponsorId].push(newUserId) */\n      tag_19\n      jump\t// in\n    tag_100:\n        /* \"contracts/modules/SponsorMatrix.sol\":1184:1201  registeredUserIds */\n      0x33\n        /* \"contracts/modules/SponsorMatrix.sol\":122:18741  contract Nanakshahi is Storage{... */\n      sload\n      shl(0x40, 0x01)\n      dup2\n      lt\n      iszero\n      tag_101\n      jumpi\n      dup1\n      0x01\n      tag_103\n      swap3\n      add\n        /* \"contracts/modules/SponsorMatrix.sol\":1184:1201  registeredUserIds */\n      0x33\n        /* \"contracts/modules/SponsorMatrix.sol\":122:18741  contract Nanakshahi is Storage{... */\n      sstore\n        /* \"contracts/modules/SponsorMatrix.sol\":1184:1201  registeredUserIds */\n      0x33\n        /* \"contracts/modules/SponsorMatrix.sol\":122:18741  contract Nanakshahi is Storage{... */\n      tag_3\n      jump\t// in\n    tag_103:\n      dup2\n      sload\n      swap1\n        /* \"contracts/modules/SponsorMatrix.sol\":354:374  users[_sponsorId].id */\n      0x03\n        /* \"contracts/modules/SponsorMatrix.sol\":122:18741  contract Nanakshahi is Storage{... */\n      shl\n      swap1\n      dup7\n      dup3\n      shl\n      swap2\n      not(0x00)\n      swap1\n      shl\n      not\n      and\n      or\n      swap1\n      sstore\n        /* \"contracts/modules/SponsorMatrix.sol\":1255:1274  communityAccPerUser */\n      0x31\n        /* \"contracts/modules/SponsorMatrix.sol\":122:18741  contract Nanakshahi is Storage{... */\n      sload\n      dup5\n      0x00\n      mstore\n        /* \"contracts/modules/SponsorMatrix.sol\":1228:1241  communityDebt */\n      0x32\n        /* \"contracts/modules/SponsorMatrix.sol\":122:18741  contract Nanakshahi is Storage{... */\n      0x20\n      mstore\n      keccak256(0x00, 0x40)\n      sstore\n      0x00\n      0x00\n      swap1\n      dup4\n      0x00\n      mstore\n        /* \"contracts/modules/SponsorMatrix.sol\":7723:7735  matrixDirect */\n      0x2f\n        /* \"contracts/modules/SponsorMatrix.sol\":122:18741  contract Nanakshahi is Storage{... */\n      0x20\n      mstore\n        /* \"contracts/modules/SponsorMatrix.sol\":802:817  user.checkpoint */\n      0x02\n        /* \"contracts/modules/SponsorMatrix.sol\":122:18741  contract Nanakshahi is Storage{... */\n      sload(keccak256(0x00, 0x40))\n        /* \"contracts/modules/SponsorMatrix.sol\":7723:7751  matrixDirect[_sponsorId] < 2 */\n      lt\n        /* \"contracts/modules/SponsorMatrix.sol\":7720:8720  if(matrixDirect[_sponsorId] < 2) {... */\n      0x00\n        /* \"contracts/modules/SponsorMatrix.sol\":802:817  user.checkpoint */\n      eq\n      tag_104\n      jumpi\n        /* \"contracts/modules/SponsorMatrix.sol\":122:18741  contract Nanakshahi is Storage{... */\n      pop\n      pop\n      dup4\n      0x00\n      mstore\n        /* \"contracts/modules/SponsorMatrix.sol\":354:359  users */\n      0x2b\n        /* \"contracts/modules/SponsorMatrix.sol\":122:18741  contract Nanakshahi is Storage{... */\n      0x20\n      mstore\n      dup2\n        /* \"contracts/modules/SponsorMatrix.sol\":615:625  totalUsers */\n      0x05\n        /* \"contracts/modules/SponsorMatrix.sol\":122:18741  contract Nanakshahi is Storage{... */\n      keccak256(0x00, 0x40)\n        /* \"contracts/modules/SponsorMatrix.sol\":7768:7794  users[_newUserId].uplineId */\n      add\n        /* \"contracts/modules/SponsorMatrix.sol\":122:18741  contract Nanakshahi is Storage{... */\n      sstore\n      dup2\n      0x00\n      mstore\n        /* \"contracts/modules/SponsorMatrix.sol\":7723:7735  matrixDirect */\n      0x2f\n        /* \"contracts/modules/SponsorMatrix.sol\":122:18741  contract Nanakshahi is Storage{... */\n      0x20\n      mstore\n      keccak256(0x00, 0x40)\n      dup1\n      sload\n      swap1\n      0x01\n      dup3\n      add\n      dup1\n      swap3\n      gt\n      tag_120\n      jumpi\n      sstore\n        /* \"contracts/modules/SponsorMatrix.sol\":7866:7887  uplineId = _sponsorId */\n      dup2\n        /* \"contracts/modules/SponsorMatrix.sol\":7720:8720  if(matrixDirect[_sponsorId] < 2) {... */\n    tag_108:\n        /* \"contracts/modules/SponsorMatrix.sol\":122:18741  contract Nanakshahi is Storage{... */\n      0x00\n        /* \"contracts/modules/SponsorMatrix.sol\":8782:9015  for(uint k=0; k<maxLayers; k++) {... */\n      swap1\n        /* \"contracts/modules/SponsorMatrix.sol\":8796:8807  k<maxLayers */\n    tag_109:\n        /* \"contracts/modules/SponsorMatrix.sol\":981:1002  user.registrationTime */\n      0x0f\n        /* \"contracts/modules/SponsorMatrix.sol\":8796:8807  k<maxLayers */\n      dup3\n      lt\n      tag_110\n      jumpi\n        /* \"contracts/modules/SponsorMatrix.sol\":8782:9015  for(uint k=0; k<maxLayers; k++) {... */\n    tag_111:\n        /* \"contracts/modules/SponsorMatrix.sol\":1452:1463  packages[0] */\n      pop\n      pop\n        /* \"contracts/modules/SponsorMatrix.sol\":1402:1568  user.deposits.push(Deposit({... */\n      tag_112\n        /* \"contracts/modules/SponsorMatrix.sol\":1452:1463  packages[0] */\n      tag_113\n      tag_2\n      jump\t// in\n    tag_113:\n        /* \"contracts/modules/SponsorMatrix.sol\":122:18741  contract Nanakshahi is Storage{... */\n      swap1\n      sload\n      mload(0x40)\n      swap2\n        /* \"contracts/modules/SponsorMatrix.sol\":354:374  users[_sponsorId].id */\n      0x03\n        /* \"contracts/modules/SponsorMatrix.sol\":122:18741  contract Nanakshahi is Storage{... */\n      shl\n      shr\n      tag_114\n      dup3\n      tag_8\n      jump\t// in\n    tag_114:\n      dup2\n      mstore\n      0x00\n      0x20\n        /* \"contracts/modules/SponsorMatrix.sol\":1421:1567  Deposit({... */\n      dup3\n      add\n        /* \"contracts/modules/SponsorMatrix.sol\":122:18741  contract Nanakshahi is Storage{... */\n      mstore\n        /* \"contracts/modules/SponsorMatrix.sol\":820:835  block.timestamp */\n      timestamp\n        /* \"contracts/modules/SponsorMatrix.sol\":122:18741  contract Nanakshahi is Storage{... */\n      0x40\n        /* \"contracts/modules/SponsorMatrix.sol\":1421:1567  Deposit({... */\n      dup3\n      add\n        /* \"contracts/modules/SponsorMatrix.sol\":122:18741  contract Nanakshahi is Storage{... */\n      mstore\n      0x01\n        /* \"contracts/modules/SponsorMatrix.sol\":1421:1567  Deposit({... */\n      0x60\n      dup3\n      add\n        /* \"contracts/modules/SponsorMatrix.sol\":122:18741  contract Nanakshahi is Storage{... */\n      mstore\n      0x01\n        /* \"contracts/modules/SponsorMatrix.sol\":1402:1415  user.deposits */\n      dup6\n      add\n        /* \"contracts/modules/SponsorMatrix.sol\":1402:1568  user.deposits.push(Deposit({... */\n      tag_14\n      jump\t// in\n    tag_112:\n        /* \"contracts/modules/SponsorMatrix.sol\":1634:1645  packages[0] */\n      tag_115\n      tag_2\n      jump\t// in\n    tag_115:\n        /* \"contracts/modules/SponsorMatrix.sol\":122:18741  contract Nanakshahi is Storage{... */\n      swap1\n      sload\n      swap1\n        /* \"contracts/modules/SponsorMatrix.sol\":354:374  users[_sponsorId].id */\n      0x03\n        /* \"contracts/modules/SponsorMatrix.sol\":122:18741  contract Nanakshahi is Storage{... */\n      shl\n      shr\n      swap1\n        /* \"contracts/modules/SponsorMatrix.sol\":615:625  totalUsers */\n      0x05\n        /* \"contracts/modules/SponsorMatrix.sol\":122:18741  contract Nanakshahi is Storage{... */\n      dup3\n      mul\n      dup3\n      iszero\n      swap3\n      dup1\n      dup3\n      div\n        /* \"contracts/modules/SponsorMatrix.sol\":615:625  totalUsers */\n      0x05\n        /* \"contracts/modules/SponsorMatrix.sol\":122:18741  contract Nanakshahi is Storage{... */\n      eq\n      dup5\n      or\n      iszero\n      tag_120\n      jumpi\n        /* \"contracts/modules/SponsorMatrix.sol\":1774:1776  60 */\n      0x3c\n        /* \"contracts/modules/SponsorMatrix.sol\":122:18741  contract Nanakshahi is Storage{... */\n      dup2\n      mul\n      swap4\n      dup2\n      dup6\n      div\n        /* \"contracts/modules/SponsorMatrix.sol\":1774:1776  60 */\n      0x3c\n        /* \"contracts/modules/SponsorMatrix.sol\":122:18741  contract Nanakshahi is Storage{... */\n      eq\n      dup2\n      or\n      iszero\n      tag_120\n      jumpi\n        /* \"contracts/modules/SponsorMatrix.sol\":1917:1919  25 */\n      0x19\n        /* \"contracts/modules/SponsorMatrix.sol\":122:18741  contract Nanakshahi is Storage{... */\n      dup3\n      mul\n      swap2\n      dup3\n      div\n        /* \"contracts/modules/SponsorMatrix.sol\":1917:1919  25 */\n      0x19\n        /* \"contracts/modules/SponsorMatrix.sol\":122:18741  contract Nanakshahi is Storage{... */\n      eq\n      or\n      iszero\n      tag_120\n      jumpi\n        /* \"contracts/modules/SponsorMatrix.sol\":2214:2285  _distributeSponsorIncome(user.sponsorId, newUserId, remainingAmount, 1) */\n      tag_122\n        /* \"contracts/modules/SponsorMatrix.sol\":122:18741  contract Nanakshahi is Storage{... */\n      swap4\n        /* \"contracts/modules/SponsorMatrix.sol\":2131:2143  creatorShare */\n      tag_123\n        /* \"contracts/modules/SponsorMatrix.sol\":1700:1703  100 */\n      0x64\n        /* \"contracts/modules/SponsorMatrix.sol\":122:18741  contract Nanakshahi is Storage{... */\n      dup10\n      swap5\n        /* \"contracts/modules/SponsorMatrix.sol\":2047:2061  communityShare */\n      tag_124\n        /* \"contracts/modules/SponsorMatrix.sol\":122:18741  contract Nanakshahi is Storage{... */\n      dup3\n      dup1\n      swap7\n      div\n        /* \"contracts/modules/SponsorMatrix.sol\":2047:2061  communityShare */\n      tag_21\n      jump\t// in\n    tag_124:\n        /* \"contracts/modules/SponsorMatrix.sol\":122:18741  contract Nanakshahi is Storage{... */\n      div\n        /* \"contracts/modules/SponsorMatrix.sol\":2131:2143  creatorShare */\n      tag_22\n      jump\t// in\n    tag_123:\n        /* \"contracts/modules/SponsorMatrix.sol\":122:18741  contract Nanakshahi is Storage{... */\n      div\n      swap2\n      sload\n        /* \"contracts/modules/SponsorMatrix.sol\":2214:2285  _distributeSponsorIncome(user.sponsorId, newUserId, remainingAmount, 1) */\n      tag_23\n      jump\t// in\n    tag_122:\n        /* \"contracts/modules/SponsorMatrix.sol\":122:18741  contract Nanakshahi is Storage{... */\n      0x00\n      mstore\n        /* \"contracts/modules/SponsorMatrix.sol\":354:359  users */\n      0x2b\n        /* \"contracts/modules/SponsorMatrix.sol\":122:18741  contract Nanakshahi is Storage{... */\n      0x20\n      mstore\n        /* \"contracts/modules/SponsorMatrix.sol\":615:625  totalUsers */\n      0x05\n        /* \"contracts/modules/SponsorMatrix.sol\":122:18741  contract Nanakshahi is Storage{... */\n      0x01\n      dup1\n      0xa0\n      shl\n      sub\n      sload(keccak256(0x00, 0x40))\n      and\n        /* \"contracts/modules/SponsorMatrix.sol\":2392:2405  user.uplineId */\n      swap2\n      add\n        /* \"contracts/modules/SponsorMatrix.sol\":122:18741  contract Nanakshahi is Storage{... */\n      sload\n      mload(0x40)\n      swap1\n      dup2\n      mstore\n        /* \"contracts/modules/SponsorMatrix.sol\":2329:2406  Registration(msg.sender, users[_sponsorId].account, newUserId, user.uplineId) */\n      0x309bb360e8b69c23937ccc5fb01f9aeeead1c95a99604e175113ff82f2b1723a\n        /* \"contracts/modules/SponsorMatrix.sol\":122:18741  contract Nanakshahi is Storage{... */\n      0x20\n        /* \"contracts/modules/SponsorMatrix.sol\":296:306  msg.sender */\n      caller\n        /* \"contracts/modules/SponsorMatrix.sol\":2329:2406  Registration(msg.sender, users[_sponsorId].account, newUserId, user.uplineId) */\n      swap3\n      log4\n        /* \"contracts/modules/SponsorMatrix.sol\":122:18741  contract Nanakshahi is Storage{... */\n      stop\n    tag_120:\n      mstore(0x00, shl(0xe0, 0x4e487b71))\n      mstore(0x04, 0x11)\n      revert(0x00, 0x24)\n        /* \"contracts/modules/SponsorMatrix.sol\":8809:8812  k++ */\n    tag_110:\n        /* \"contracts/modules/SponsorMatrix.sol\":8832:8845  uplineId == 0 */\n      dup1\n      iszero\n        /* \"contracts/modules/SponsorMatrix.sol\":8829:8852  if(uplineId == 0) break */\n      tag_125\n      jumpi\n        /* \"contracts/modules/SponsorMatrix.sol\":122:18741  contract Nanakshahi is Storage{... */\n      dup1\n      0x00\n      mstore\n        /* \"contracts/modules/SponsorMatrix.sol\":354:359  users */\n      0x2b\n        /* \"contracts/modules/SponsorMatrix.sol\":122:18741  contract Nanakshahi is Storage{... */\n      0x20\n      mstore\n        /* \"contracts/modules/SponsorMatrix.sol\":8867:8898  users[uplineId].totalMatrixTeam */\n      0x09\n        /* \"contracts/modules/SponsorMatrix.sol\":122:18741  contract Nanakshahi is Storage{... */\n      keccak256(0x00, 0x40)\n        /* \"contracts/modules/SponsorMatrix.sol\":8867:8898  users[uplineId].totalMatrixTeam */\n      add\n        /* \"contracts/modules/SponsorMatrix.sol\":122:18741  contract Nanakshahi is Storage{... */\n      dup1\n      sload\n      swap1\n      0x01\n      dup3\n      add\n      dup1\n      swap3\n      gt\n      tag_120\n      jumpi\n      sstore\n      dup1\n      0x00\n      mstore\n        /* \"contracts/modules/SponsorMatrix.sol\":8918:8923  teams */\n      0x2e\n        /* \"contracts/modules/SponsorMatrix.sol\":122:18741  contract Nanakshahi is Storage{... */\n      0x20\n      mstore\n      keccak256(0x00, 0x40)\n      dup3\n      0x00\n      mstore\n      0x20\n      mstore\n        /* \"contracts/modules/SponsorMatrix.sol\":8918:8953  teams[uplineId][k].push(_newUserId) */\n      tag_129\n        /* \"contracts/modules/SponsorMatrix.sol\":122:18741  contract Nanakshahi is Storage{... */\n      dup7\n      keccak256(0x00, 0x40)\n        /* \"contracts/modules/SponsorMatrix.sol\":8918:8953  teams[uplineId][k].push(_newUserId) */\n      tag_19\n      jump\t// in\n    tag_129:\n        /* \"contracts/modules/SponsorMatrix.sol\":122:18741  contract Nanakshahi is Storage{... */\n      0x00\n      mstore\n        /* \"contracts/modules/SponsorMatrix.sol\":354:359  users */\n      0x2b\n        /* \"contracts/modules/SponsorMatrix.sol\":122:18741  contract Nanakshahi is Storage{... */\n      0x20\n      mstore\n      0x01\n        /* \"contracts/modules/SponsorMatrix.sol\":615:625  totalUsers */\n      0x05\n        /* \"contracts/modules/SponsorMatrix.sol\":122:18741  contract Nanakshahi is Storage{... */\n      keccak256(0x00, 0x40)\n        /* \"contracts/modules/SponsorMatrix.sol\":8979:9003  users[uplineId].uplineId */\n      add\n        /* \"contracts/modules/SponsorMatrix.sol\":122:18741  contract Nanakshahi is Storage{... */\n      sload\n        /* \"contracts/modules/SponsorMatrix.sol\":8809:8812  k++ */\n      swap2\n        /* \"contracts/modules/SponsorMatrix.sol\":122:18741  contract Nanakshahi is Storage{... */\n      add\n        /* \"contracts/modules/SponsorMatrix.sol\":8786:8794  uint k=0 */\n      swap1\n      jump(tag_109)\n        /* \"contracts/modules/SponsorMatrix.sol\":8829:8852  if(uplineId == 0) break */\n    tag_125:\n        /* \"contracts/modules/SponsorMatrix.sol\":8847:8852  break */\n      jump(tag_111)\n        /* \"contracts/modules/SponsorMatrix.sol\":7720:8720  if(matrixDirect[_sponsorId] < 2) {... */\n    tag_104:\n        /* \"contracts/modules/SponsorMatrix.sol\":122:18741  contract Nanakshahi is Storage{... */\n      0x00\n        /* \"contracts/modules/SponsorMatrix.sol\":8018:8029  i<maxLayers */\n    tag_130:\n        /* \"contracts/modules/SponsorMatrix.sol\":981:1002  user.registrationTime */\n      0x0f\n        /* \"contracts/modules/SponsorMatrix.sol\":8018:8029  i<maxLayers */\n      dup2\n      lt\n      tag_131\n      jumpi\n        /* \"contracts/modules/SponsorMatrix.sol\":8004:8709  for(uint i=0; i<maxLayers; i++) { // Use a reasonable max depth for 2x2 matrix... */\n    tag_132:\n        /* \"contracts/modules/SponsorMatrix.sol\":7720:8720  if(matrixDirect[_sponsorId] < 2) {... */\n      pop\n      pop\n      jump(tag_108)\n        /* \"contracts/modules/SponsorMatrix.sol\":8031:8034  i++ */\n    tag_131:\n        /* \"contracts/modules/SponsorMatrix.sol\":8100:8117  if(isFound) break */\n      dup2\n      tag_133\n      jumpi\n        /* \"contracts/modules/SponsorMatrix.sol\":122:18741  contract Nanakshahi is Storage{... */\n      dup5\n      0x00\n      mstore\n        /* \"contracts/modules/SponsorMatrix.sol\":8139:8144  teams */\n      0x2e\n        /* \"contracts/modules/SponsorMatrix.sol\":122:18741  contract Nanakshahi is Storage{... */\n      0x20\n      mstore\n      keccak256(0x00, 0x40)\n      0x01\n      dup3\n      add\n      dup1\n      dup4\n      gt\n      tag_120\n      jumpi\n      0x00\n      mstore\n      0x20\n      mstore\n      sload(keccak256(0x00, 0x40))\n        /* \"contracts/modules/SponsorMatrix.sol\":802:817  user.checkpoint */\n      0x02\n        /* \"contracts/modules/SponsorMatrix.sol\":122:18741  contract Nanakshahi is Storage{... */\n      dup3\n      add\n      dup1\n      dup4\n      gt\n      tag_120\n      jumpi\n      0xff\n      dup2\n      gt\n      tag_120\n      jumpi\n      0x01\n      swap1\n      shl\n      gt\n        /* \"contracts/modules/SponsorMatrix.sol\":8136:8694  if(teams[_sponsorId][i+1].length < 2 ** (i+2)) {... */\n      tag_141\n      jumpi\n        /* \"contracts/modules/SponsorMatrix.sol\":8031:8034  i++ */\n    tag_142:\n        /* \"contracts/modules/SponsorMatrix.sol\":122:18741  contract Nanakshahi is Storage{... */\n      0x01\n      add\n        /* \"contracts/modules/SponsorMatrix.sol\":8008:8016  uint i=0 */\n      jump(tag_130)\n        /* \"contracts/modules/SponsorMatrix.sol\":8136:8694  if(teams[_sponsorId][i+1].length < 2 ** (i+2)) {... */\n    tag_141:\n        /* \"contracts/modules/SponsorMatrix.sol\":8210:8218  uint j=0 */\n      swap4\n      swap3\n        /* \"contracts/modules/SponsorMatrix.sol\":122:18741  contract Nanakshahi is Storage{... */\n      0x00\n        /* \"contracts/modules/SponsorMatrix.sol\":8210:8218  uint j=0 */\n      swap6\n      swap2\n      swap6\n        /* \"contracts/modules/SponsorMatrix.sol\":8251:8254  j++ */\n    tag_143:\n        /* \"contracts/modules/SponsorMatrix.sol\":122:18741  contract Nanakshahi is Storage{... */\n      dup5\n      0x00\n      mstore\n        /* \"contracts/modules/SponsorMatrix.sol\":8139:8144  teams */\n      0x2e\n        /* \"contracts/modules/SponsorMatrix.sol\":122:18741  contract Nanakshahi is Storage{... */\n      0x20\n      mstore\n      keccak256(0x00, 0x40)\n      dup7\n      0x00\n      mstore\n      0x20\n      mstore\n      sload(keccak256(0x00, 0x40))\n        /* \"contracts/modules/SponsorMatrix.sol\":8220:8249  j<teams[_sponsorId][i].length */\n      dup2\n      lt\n      iszero\n      tag_144\n      jumpi\n        /* \"contracts/modules/SponsorMatrix.sol\":8281:8298  if(isFound) break */\n      dup7\n      tag_146\n      jumpi\n        /* \"contracts/modules/SponsorMatrix.sol\":122:18741  contract Nanakshahi is Storage{... */\n      dup5\n      0x00\n      mstore\n        /* \"contracts/modules/SponsorMatrix.sol\":8139:8144  teams */\n      0x2e\n        /* \"contracts/modules/SponsorMatrix.sol\":122:18741  contract Nanakshahi is Storage{... */\n      0x20\n      mstore\n      keccak256(0x00, 0x40)\n      dup7\n      0x00\n      mstore\n      0x20\n      mstore\n        /* \"contracts/modules/SponsorMatrix.sol\":8337:8360  teams[_sponsorId][i][j] */\n      tag_148\n        /* \"contracts/modules/SponsorMatrix.sol\":122:18741  contract Nanakshahi is Storage{... */\n      dup2\n      keccak256(0x00, 0x40)\n        /* \"contracts/modules/SponsorMatrix.sol\":8337:8360  teams[_sponsorId][i][j] */\n      tag_3\n      jump\t// in\n    tag_148:\n        /* \"contracts/modules/SponsorMatrix.sol\":122:18741  contract Nanakshahi is Storage{... */\n      swap1\n      sload\n      swap1\n        /* \"contracts/modules/SponsorMatrix.sol\":354:374  users[_sponsorId].id */\n      0x03\n        /* \"contracts/modules/SponsorMatrix.sol\":122:18741  contract Nanakshahi is Storage{... */\n      shl\n      shr\n      dup1\n      0x00\n      mstore\n        /* \"contracts/modules/SponsorMatrix.sol\":7723:7735  matrixDirect */\n      0x2f\n        /* \"contracts/modules/SponsorMatrix.sol\":122:18741  contract Nanakshahi is Storage{... */\n      0x20\n      mstore\n        /* \"contracts/modules/SponsorMatrix.sol\":802:817  user.checkpoint */\n      0x02\n        /* \"contracts/modules/SponsorMatrix.sol\":122:18741  contract Nanakshahi is Storage{... */\n      sload(keccak256(0x00, 0x40))\n        /* \"contracts/modules/SponsorMatrix.sol\":8390:8412  matrixDirect[temp] < 2 */\n      lt\n        /* \"contracts/modules/SponsorMatrix.sol\":8387:8651  if(matrixDirect[temp] < 2) {... */\n      tag_149\n      jumpi\n        /* \"contracts/modules/SponsorMatrix.sol\":8251:8254  j++ */\n    tag_150:\n      pop\n        /* \"contracts/modules/SponsorMatrix.sol\":122:18741  contract Nanakshahi is Storage{... */\n      0x01\n      add\n        /* \"contracts/modules/SponsorMatrix.sol\":8210:8218  uint j=0 */\n      jump(tag_143)\n        /* \"contracts/modules/SponsorMatrix.sol\":8387:8651  if(matrixDirect[temp] < 2) {... */\n    tag_149:\n        /* \"contracts/modules/SponsorMatrix.sol\":122:18741  contract Nanakshahi is Storage{... */\n      swap2\n      swap4\n      pop\n      swap6\n      pop\n      dup7\n      0x00\n      mstore\n        /* \"contracts/modules/SponsorMatrix.sol\":354:359  users */\n      0x2b\n        /* \"contracts/modules/SponsorMatrix.sol\":122:18741  contract Nanakshahi is Storage{... */\n      0x20\n      mstore\n      dup1\n        /* \"contracts/modules/SponsorMatrix.sol\":615:625  totalUsers */\n      0x05\n        /* \"contracts/modules/SponsorMatrix.sol\":122:18741  contract Nanakshahi is Storage{... */\n      keccak256(0x00, 0x40)\n        /* \"contracts/modules/SponsorMatrix.sol\":8445:8471  users[_newUserId].uplineId */\n      add\n        /* \"contracts/modules/SponsorMatrix.sol\":122:18741  contract Nanakshahi is Storage{... */\n      sstore\n      dup1\n      0x00\n      mstore\n        /* \"contracts/modules/SponsorMatrix.sol\":7723:7735  matrixDirect */\n      0x2f\n        /* \"contracts/modules/SponsorMatrix.sol\":122:18741  contract Nanakshahi is Storage{... */\n      0x20\n      mstore\n      keccak256(0x00, 0x40)\n      dup1\n      sload\n      swap1\n      0x01\n      dup3\n      add\n      dup1\n      swap3\n      gt\n      tag_120\n      jumpi\n      sstore\n        /* \"contracts/modules/SponsorMatrix.sol\":8609:8623  isFound = true */\n      swap2\n        /* \"contracts/modules/SponsorMatrix.sol\":122:18741  contract Nanakshahi is Storage{... */\n      0x01\n        /* \"contracts/modules/SponsorMatrix.sol\":8609:8623  isFound = true */\n      dup1\n        /* \"contracts/modules/SponsorMatrix.sol\":8387:8651  if(matrixDirect[temp] < 2) {... */\n      swap7\n      swap1\n      jump(tag_150)\n        /* \"contracts/modules/SponsorMatrix.sol\":8281:8298  if(isFound) break */\n    tag_146:\n        /* \"contracts/modules/SponsorMatrix.sol\":8293:8298  break */\n      pop\n      swap3\n      swap4\n        /* \"contracts/modules/SponsorMatrix.sol\":122:18741  contract Nanakshahi is Storage{... */\n      0x01\n        /* \"contracts/modules/SponsorMatrix.sol\":8293:8298  break */\n      swap1\n      swap6\n      swap2\n      swap6\n        /* \"contracts/modules/SponsorMatrix.sol\":8206:8675  for(uint j=0; j<teams[_sponsorId][i].length; j++) {... */\n    tag_153:\n        /* \"contracts/modules/SponsorMatrix.sol\":8136:8694  if(teams[_sponsorId][i+1].length < 2 ** (i+2)) {... */\n      swap1\n      pop\n      jump(tag_142)\n        /* \"contracts/modules/SponsorMatrix.sol\":8220:8249  j<teams[_sponsorId][i].length */\n    tag_144:\n      pop\n      swap3\n      swap4\n        /* \"contracts/modules/SponsorMatrix.sol\":122:18741  contract Nanakshahi is Storage{... */\n      0x01\n        /* \"contracts/modules/SponsorMatrix.sol\":8220:8249  j<teams[_sponsorId][i].length */\n      swap1\n      swap6\n      swap2\n      swap6\n      jump(tag_153)\n        /* \"contracts/modules/SponsorMatrix.sol\":8100:8117  if(isFound) break */\n    tag_133:\n        /* \"contracts/modules/SponsorMatrix.sol\":8112:8117  break */\n      jump(tag_132)\n        /* \"contracts/modules/SponsorMatrix.sol\":122:18741  contract Nanakshahi is Storage{... */\n    tag_101:\n      mstore(0x00, shl(0xe0, 0x4e487b71))\n      mstore(0x04, 0x41)\n      revert(0x00, 0x24)\n        /* \"contracts/modules/SponsorMatrix.sol\":467:524  usdt.transferFrom(msg.sender, address(this), packages[0]) */\n    tag_92:\n      tag_154\n      swap1\n        /* \"contracts/modules/SponsorMatrix.sol\":122:18741  contract Nanakshahi is Storage{... */\n      0x20\n        /* \"contracts/modules/SponsorMatrix.sol\":467:524  usdt.transferFrom(msg.sender, address(this), packages[0]) */\n      returndatasize\n        /* \"contracts/modules/SponsorMatrix.sol\":122:18741  contract Nanakshahi is Storage{... */\n      0x20\n        /* \"contracts/modules/SponsorMatrix.sol\":467:524  usdt.transferFrom(msg.sender, address(this), packages[0]) */\n      gt\n      tag_155\n      jumpi\n    tag_156:\n      tag_157\n      dup2\n      dup4\n      tag_10\n      jump\t// in\n    tag_157:\n      dup2\n      add\n      swap1\n      tag_11\n      jump\t// in\n    tag_154:\n      jump(tag_93)\n    tag_155:\n      pop\n      returndatasize\n      jump(tag_156)\n    tag_90:\n        /* \"contracts/modules/SponsorMatrix.sol\":122:18741  contract Nanakshahi is Storage{... */\n      mload(0x40)\n      returndatasize\n      0x00\n      dup3\n      returndatacopy\n      returndatasize\n      swap1\n      revert\n    tag_86:\n      mload(0x40)\n      shl(0xe5, 0x461bcd)\n      dup2\n      mstore\n      0x20\n      0x04\n      dup3\n      add\n      mstore\n      0x0f\n      0x24\n      dup3\n      add\n      mstore\n      shl(0x89, 0x24b73b30b634b21039b837b739b7b9)\n      0x44\n      dup3\n      add\n      mstore\n      0x64\n      swap1\n      revert\n    tag_84:\n      mload(0x40)\n      shl(0xe5, 0x461bcd)\n      dup2\n      mstore\n      0x20\n      0x04\n      dup3\n      add\n      mstore\n      0x12\n      0x24\n      dup3\n      add\n      mstore\n      shl(0x72, 0x105b1c9958591e481c9959da5cdd195c9959)\n      0x44\n      dup3\n      add\n      mstore\n      0x64\n      swap1\n      revert\n    tag_70:\n      jumpi(tag_78, callvalue)\n      jumpi(tag_78, slt(add(not(0x03), calldatasize), 0x00))\n      0x20\n      sload(0x04)\n      mload(0x40)\n      swap1\n      dup2\n      mstore\n      return\n    tag_68:\n      jumpi(tag_78, callvalue)\n      jumpi(tag_78, slt(add(not(0x03), calldatasize), 0x00))\n        /* \"contracts/modules/Storage.sol\":215:245  address public systemMaintance */\n      0x02\n        /* \"contracts/modules/SponsorMatrix.sol\":122:18741  contract Nanakshahi is Storage{... */\n      sload\n      mload(0x40)\n      sub(shl(0xa0, 0x01), 0x01)\n      swap1\n      swap2\n      and\n      dup2\n      mstore\n      0x20\n      swap1\n      return\n    tag_66:\n      jumpi(tag_78, callvalue)\n      jumpi(tag_78, slt(add(not(0x03), calldatasize), 0x20))\n      tag_170\n      calldataload(0x04)\n      tag_18\n      jump\t// in\n    tag_170:\n      stop\n    tag_64:\n      jumpi(tag_78, callvalue)\n      jumpi(tag_78, slt(add(not(0x03), calldatasize), 0x20))\n      calldataload(0x04)\n      0x08\n        /* \"contracts/modules/Storage.sol\":1489:1553  uint[8] public minLevelForGlbBooster = [4, 5, 6, 7, 8, 9, 10,11] */\n      dup2\n      lt\n      iszero\n      tag_78\n      jumpi\n        /* \"contracts/modules/SponsorMatrix.sol\":122:18741  contract Nanakshahi is Storage{... */\n      0x20\n      swap1\n        /* \"contracts/modules/Storage.sol\":1489:1553  uint[8] public minLevelForGlbBooster = [4, 5, 6, 7, 8, 9, 10,11] */\n      0x10\n        /* \"contracts/modules/SponsorMatrix.sol\":122:18741  contract Nanakshahi is Storage{... */\n      add\n      sload\n      mload(0x40)\n      swap1\n      dup2\n      mstore\n      return\n    tag_62:\n      jumpi(tag_78, callvalue)\n      jumpi(tag_78, slt(add(not(0x03), calldatasize), 0x20))\n      calldataload(0x04)\n        /* \"contracts/modules/Storage.sol\":666:1206  uint[] public packages = [... */\n      0x06\n        /* \"contracts/modules/SponsorMatrix.sol\":122:18741  contract Nanakshahi is Storage{... */\n      sload\n        /* \"contracts/modules/Storage.sol\":666:1206  uint[] public packages = [... */\n      dup2\n      lt\n      iszero\n      tag_78\n      jumpi\n      tag_183\n        /* \"contracts/modules/SponsorMatrix.sol\":122:18741  contract Nanakshahi is Storage{... */\n      0x20\n        /* \"contracts/modules/Storage.sol\":666:1206  uint[] public packages = [... */\n      swap2\n      tag_1\n      jump\t// in\n    tag_183:\n        /* \"contracts/modules/SponsorMatrix.sol\":122:18741  contract Nanakshahi is Storage{... */\n      swap1\n      sload\n      swap1\n      0x03\n      shl\n      shr\n      mload(0x40)\n      swap1\n      dup2\n      mstore\n      return\n    tag_60:\n      jumpi(tag_78, callvalue)\n      jumpi(tag_78, slt(add(not(0x03), calldatasize), 0x00))\n      0x20\n        /* \"contracts/modules/Storage.sol\":320:342  uint public totalUsers */\n      0x05\n        /* \"contracts/modules/SponsorMatrix.sol\":122:18741  contract Nanakshahi is Storage{... */\n      sload\n      mload(0x40)\n      swap1\n      dup2\n      mstore\n      return\n    tag_58:\n      jumpi(tag_78, callvalue)\n      jumpi(tag_78, slt(add(not(0x03), calldatasize), 0x20))\n      calldataload(0x04)\n        /* \"contracts/modules/Storage.sol\":1213:1306  uint[] public poolPackages = [75e18, 300e18, 1200e18, 4800e18, 19200e18, 76800e18, 307200e18] */\n      0x07\n        /* \"contracts/modules/SponsorMatrix.sol\":122:18741  contract Nanakshahi is Storage{... */\n      sload\n        /* \"contracts/modules/Storage.sol\":1213:1306  uint[] public poolPackages = [75e18, 300e18, 1200e18, 4800e18, 19200e18, 76800e18, 307200e18] */\n      dup2\n      lt\n      iszero\n      tag_78\n      jumpi\n      0x07\n        /* \"contracts/modules/SponsorMatrix.sol\":122:18741  contract Nanakshahi is Storage{... */\n      sload\n      dup2\n      lt\n      iszero\n      tag_194\n      jumpi\n        /* \"contracts/modules/Storage.sol\":1213:1306  uint[] public poolPackages = [75e18, 300e18, 1200e18, 4800e18, 19200e18, 76800e18, 307200e18] */\n      0x07\n        /* \"contracts/modules/SponsorMatrix.sol\":122:18741  contract Nanakshahi is Storage{... */\n      0x00\n      mstore\n      0xa66cc928b5edb82af9bd49922954155ab7b0942694bea4ce44661d9a8736c688\n      add\n      sload\n      mload(0x40)\n      swap1\n      dup2\n      mstore\n      0x20\n      swap1\n      return\n    tag_194:\n      mstore(0x00, shl(0xe0, 0x4e487b71))\n      mstore(0x04, 0x32)\n      revert(0x00, 0x24)\n    tag_56:\n      jumpi(tag_78, callvalue)\n      jumpi(tag_78, slt(add(not(0x03), calldatasize), 0x20))\n      calldataload(0x04)\n      0x08\n        /* \"contracts/modules/Storage.sol\":1560:1621  uint[8] public minPoolForGlbBooster = [0, 1, 1, 1, 1, 1, 1,1] */\n      dup2\n      lt\n      iszero\n      tag_78\n      jumpi\n        /* \"contracts/modules/SponsorMatrix.sol\":122:18741  contract Nanakshahi is Storage{... */\n      0x20\n      swap1\n        /* \"contracts/modules/Storage.sol\":1560:1621  uint[8] public minPoolForGlbBooster = [0, 1, 1, 1, 1, 1, 1,1] */\n      0x18\n        /* \"contracts/modules/SponsorMatrix.sol\":122:18741  contract Nanakshahi is Storage{... */\n      add\n      sload\n      mload(0x40)\n      swap1\n      dup2\n      mstore\n      return\n    tag_54:\n      jumpi(tag_78, callvalue)\n      jumpi(tag_78, slt(add(not(0x03), calldatasize), 0x00))\n      sload(0x01)\n      mload(0x40)\n      sub(shl(0xa0, 0x01), 0x01)\n      swap1\n      swap2\n      and\n      dup2\n      mstore\n      0x20\n      swap1\n      return\n    tag_52:\n      jumpi(tag_78, callvalue)\n      jumpi(tag_78, slt(add(not(0x03), calldatasize), 0x00))\n      0x20\n        /* \"contracts/modules/Storage.sol\":5448:5482  uint256 public communityAccPerUser */\n      0x31\n        /* \"contracts/modules/SponsorMatrix.sol\":122:18741  contract Nanakshahi is Storage{... */\n      sload\n      mload(0x40)\n      swap1\n      dup2\n      mstore\n      return\n    tag_50:\n      jumpi(tag_78, callvalue)\n      jumpi(tag_78, slt(add(not(0x03), calldatasize), 0x00))\n      0x20\n      mload(0x40)\n        /* \"contracts/modules/Storage.sol\":603:605  10 */\n      0x0a\n        /* \"contracts/modules/SponsorMatrix.sol\":122:18741  contract Nanakshahi is Storage{... */\n      dup2\n      mstore\n      return\n    tag_48:\n      jumpi(tag_78, callvalue)\n      jumpi(tag_78, slt(add(not(0x03), calldatasize), 0x20))\n      calldataload(0x04)\n      dup1\n      0x00\n      mstore\n        /* \"contracts/modules/SponsorMatrix.sol\":2497:2502  users */\n      0x2b\n        /* \"contracts/modules/SponsorMatrix.sol\":122:18741  contract Nanakshahi is Storage{... */\n      0x20\n      mstore\n      keccak256(0x00, 0x40)\n        /* \"contracts/modules/SponsorMatrix.sol\":2522:2577  require(user.account == msg.sender, \"Not your account\") */\n      tag_218\n        /* \"contracts/modules/SponsorMatrix.sol\":122:18741  contract Nanakshahi is Storage{... */\n      0x01\n      dup1\n      0xa0\n      shl\n      sub\n      dup3\n      sload\n      and\n        /* \"contracts/modules/SponsorMatrix.sol\":2546:2556  msg.sender */\n      caller\n        /* \"contracts/modules/SponsorMatrix.sol\":2530:2556  user.account == msg.sender */\n      eq\n        /* \"contracts/modules/SponsorMatrix.sol\":2522:2577  require(user.account == msg.sender, \"Not your account\") */\n      tag_7\n      jump\t// in\n    tag_218:\n        /* \"contracts/modules/SponsorMatrix.sol\":2596:2606  user.level */\n      0x06\n      dup2\n      add\n        /* \"contracts/modules/SponsorMatrix.sol\":122:18741  contract Nanakshahi is Storage{... */\n      swap1\n      dup2\n      sload\n        /* \"contracts/modules/SponsorMatrix.sol\":2596:2611  user.level < 15 */\n      swap2\n        /* \"contracts/modules/SponsorMatrix.sol\":2609:2611  15 */\n      0x0f\n        /* \"contracts/modules/SponsorMatrix.sol\":2596:2611  user.level < 15 */\n      dup4\n      lt\n        /* \"contracts/modules/SponsorMatrix.sol\":122:18741  contract Nanakshahi is Storage{... */\n      iszero\n      tag_219\n      jumpi\n        /* \"contracts/modules/SponsorMatrix.sol\":2715:2734  packages[nextLevel] */\n      tag_221\n      dup4\n      tag_1\n      jump\t// in\n    tag_221:\n        /* \"contracts/modules/SponsorMatrix.sol\":122:18741  contract Nanakshahi is Storage{... */\n      swap1\n      sload\n      0x00\n      dup1\n      sload\n      mload(0x40)\n      shl(0xe0, 0x23b872dd)\n        /* \"contracts/modules/SponsorMatrix.sol\":2802:2860  usdt.transferFrom(msg.sender, address(this), packagePrice) */\n      dup2\n      mstore\n        /* \"contracts/modules/SponsorMatrix.sol\":2546:2556  msg.sender */\n      caller\n        /* \"contracts/modules/SponsorMatrix.sol\":122:18741  contract Nanakshahi is Storage{... */\n      0x04\n        /* \"contracts/modules/SponsorMatrix.sol\":2802:2860  usdt.transferFrom(msg.sender, address(this), packagePrice) */\n      dup3\n      add\n        /* \"contracts/modules/SponsorMatrix.sol\":122:18741  contract Nanakshahi is Storage{... */\n      mstore\n        /* \"contracts/modules/SponsorMatrix.sol\":2840:2844  this */\n      address\n        /* \"contracts/modules/SponsorMatrix.sol\":122:18741  contract Nanakshahi is Storage{... */\n      0x24\n      dup3\n      add\n      mstore\n      0x03\n      swap5\n      swap1\n      swap5\n      shl\n      swap3\n      swap1\n      swap3\n      shr\n      0x44\n      dup5\n      add\n      dup2\n      swap1\n      mstore\n      swap4\n      swap3\n      swap2\n      0x20\n      swap2\n      dup4\n      swap2\n      0x64\n      swap2\n      dup4\n      swap2\n      sub(shl(0xa0, 0x01), 0x01)\n      and\n        /* \"contracts/modules/SponsorMatrix.sol\":2802:2860  usdt.transferFrom(msg.sender, address(this), packagePrice) */\n      gas\n      call\n      dup1\n      iszero\n      tag_90\n      jumpi\n      tag_225\n      jumpi\n        /* \"contracts/modules/SponsorMatrix.sol\":122:18741  contract Nanakshahi is Storage{... */\n    tag_226:\n      pop\n      dup1\n      sload\n      swap1\n      0x01\n      dup3\n      add\n      dup1\n      swap3\n      gt\n      tag_120\n      jumpi\n      sstore\n        /* \"contracts/modules/SponsorMatrix.sol\":2907:2924  user.totalDeposit */\n      0x0a\n      dup3\n      add\n        /* \"contracts/modules/SponsorMatrix.sol\":2907:2940  user.totalDeposit += packagePrice */\n      tag_229\n        /* \"contracts/modules/SponsorMatrix.sol\":122:18741  contract Nanakshahi is Storage{... */\n      dup3\n      dup3\n      sload\n        /* \"contracts/modules/SponsorMatrix.sol\":2907:2940  user.totalDeposit += packagePrice */\n      tag_13\n      jump\t// in\n    tag_229:\n        /* \"contracts/modules/SponsorMatrix.sol\":122:18741  contract Nanakshahi is Storage{... */\n      swap1\n      sstore\n        /* \"contracts/modules/SponsorMatrix.sol\":2985:3152  user.deposits.push(Deposit({... */\n      tag_230\n        /* \"contracts/modules/SponsorMatrix.sol\":122:18741  contract Nanakshahi is Storage{... */\n      mload(0x40)\n      tag_231\n      dup2\n      tag_8\n      jump\t// in\n    tag_231:\n      dup3\n      dup2\n      mstore\n      0x00\n      0x20\n        /* \"contracts/modules/SponsorMatrix.sol\":3004:3151  Deposit({... */\n      dup3\n      add\n        /* \"contracts/modules/SponsorMatrix.sol\":122:18741  contract Nanakshahi is Storage{... */\n      mstore\n        /* \"contracts/modules/SponsorMatrix.sol\":3096:3111  block.timestamp */\n      timestamp\n        /* \"contracts/modules/SponsorMatrix.sol\":122:18741  contract Nanakshahi is Storage{... */\n      0x40\n        /* \"contracts/modules/SponsorMatrix.sol\":3004:3151  Deposit({... */\n      dup3\n      add\n        /* \"contracts/modules/SponsorMatrix.sol\":122:18741  contract Nanakshahi is Storage{... */\n      mstore\n      0x01\n        /* \"contracts/modules/SponsorMatrix.sol\":3004:3151  Deposit({... */\n      0x60\n      dup3\n      add\n        /* \"contracts/modules/SponsorMatrix.sol\":122:18741  contract Nanakshahi is Storage{... */\n      mstore\n      0x01\n        /* \"contracts/modules/SponsorMatrix.sol\":2985:2998  user.deposits */\n      dup5\n      add\n        /* \"contracts/modules/SponsorMatrix.sol\":2985:3152  user.deposits.push(Deposit({... */\n      tag_14\n      jump\t// in\n    tag_230:\n        /* \"contracts/modules/SponsorMatrix.sol\":3233:3234  5 */\n      0x05\n        /* \"contracts/modules/SponsorMatrix.sol\":122:18741  contract Nanakshahi is Storage{... */\n      dup2\n      mul\n      dup2\n      iszero\n      swap1\n      dup3\n      dup2\n      div\n        /* \"contracts/modules/SponsorMatrix.sol\":3233:3234  5 */\n      0x05\n        /* \"contracts/modules/SponsorMatrix.sol\":122:18741  contract Nanakshahi is Storage{... */\n      eq\n      dup3\n      or\n      iszero\n      tag_120\n      jumpi\n        /* \"contracts/modules/SponsorMatrix.sol\":3393:3395  25 */\n      0x19\n        /* \"contracts/modules/SponsorMatrix.sol\":122:18741  contract Nanakshahi is Storage{... */\n      dup4\n      mul\n      dup4\n      dup2\n      div\n        /* \"contracts/modules/SponsorMatrix.sol\":3393:3395  25 */\n      0x19\n        /* \"contracts/modules/SponsorMatrix.sol\":122:18741  contract Nanakshahi is Storage{... */\n      eq\n      dup4\n      or\n      iszero\n      tag_120\n      jumpi\n        /* \"contracts/modules/SponsorMatrix.sol\":3508:3520  creatorShare */\n      tag_236\n        /* \"contracts/modules/SponsorMatrix.sol\":122:18741  contract Nanakshahi is Storage{... */\n      swap2\n        /* \"contracts/modules/SponsorMatrix.sol\":3434:3448  communityShare */\n      tag_124\n        /* \"contracts/modules/SponsorMatrix.sol\":3237:3240  100 */\n      0x64\n        /* \"contracts/modules/SponsorMatrix.sol\":122:18741  contract Nanakshahi is Storage{... */\n      dup1\n      swap4\n      div\n        /* \"contracts/modules/SponsorMatrix.sol\":3434:3448  communityShare */\n      tag_21\n      jump\t// in\n        /* \"contracts/modules/SponsorMatrix.sol\":3508:3520  creatorShare */\n    tag_236:\n        /* \"contracts/modules/SponsorMatrix.sol\":3700:3702  20 */\n      0x14\n        /* \"contracts/modules/SponsorMatrix.sol\":122:18741  contract Nanakshahi is Storage{... */\n      dup3\n      mul\n      swap2\n      dup3\n      div\n        /* \"contracts/modules/SponsorMatrix.sol\":3700:3702  20 */\n      0x14\n        /* \"contracts/modules/SponsorMatrix.sol\":122:18741  contract Nanakshahi is Storage{... */\n      eq\n      or\n      iszero\n      tag_120\n      jumpi\n        /* \"contracts/modules/SponsorMatrix.sol\":3237:3240  100 */\n      0x64\n        /* \"contracts/modules/SponsorMatrix.sol\":122:18741  contract Nanakshahi is Storage{... */\n      swap1\n      div\n        /* \"contracts/modules/SponsorMatrix.sol\":3744:3758  user.sponsorId */\n      swap2\n        /* \"contracts/modules/SponsorMatrix.sol\":122:18741  contract Nanakshahi is Storage{... */\n      0x04\n        /* \"contracts/modules/SponsorMatrix.sol\":3744:3758  user.sponsorId */\n      dup3\n      add\n        /* \"contracts/modules/SponsorMatrix.sol\":122:18741  contract Nanakshahi is Storage{... */\n      sload\n      0x01\n      dup3\n      add\n      swap4\n      dup5\n      dup4\n      gt\n      tag_120\n      jumpi\n        /* \"contracts/modules/SponsorMatrix.sol\":3784:3797  nextLevel + 1 */\n      dup6\n        /* \"contracts/modules/SponsorMatrix.sol\":3233:3234  5 */\n      0x05\n        /* \"contracts/modules/SponsorMatrix.sol\":4093:4102  nextLevel */\n      tag_242\n        /* \"contracts/modules/SponsorMatrix.sol\":3784:3797  nextLevel + 1 */\n      swap6\n      tag_243\n      dup9\n      dup6\n      dup6\n      dup3\n      swap9\n      tag_24\n      jump\t// in\n    tag_243:\n        /* \"contracts/modules/SponsorMatrix.sol\":3889:3902  user.uplineId */\n      add\n        /* \"contracts/modules/SponsorMatrix.sol\":3927:3940  nextLevel + 1 */\n      tag_244\n        /* \"contracts/modules/SponsorMatrix.sol\":122:18741  contract Nanakshahi is Storage{... */\n      dup5\n      dup5\n      dup5\n      dup5\n      sload\n        /* \"contracts/modules/SponsorMatrix.sol\":3927:3940  nextLevel + 1 */\n      tag_26\n      jump\t// in\n    tag_244:\n        /* \"contracts/modules/SponsorMatrix.sol\":122:18741  contract Nanakshahi is Storage{... */\n      sload\n        /* \"contracts/modules/SponsorMatrix.sol\":4093:4102  nextLevel */\n      tag_27\n      jump\t// in\n    tag_242:\n        /* \"contracts/modules/SponsorMatrix.sol\":122:18741  contract Nanakshahi is Storage{... */\n      mload(0x40)\n      swap1\n      dup2\n      mstore\n      0x40\n      0x20\n      dup3\n      add\n      mstore\n      0x04\n      0x40\n      dup3\n      add\n      mstore\n      shl(0xe2, 0x14db1bdd)\n        /* \"contracts/modules/SponsorMatrix.sol\":3004:3151  Deposit({... */\n      0x60\n        /* \"contracts/modules/SponsorMatrix.sol\":122:18741  contract Nanakshahi is Storage{... */\n      dup3\n      add\n      mstore\n        /* \"contracts/modules/SponsorMatrix.sol\":4140:4191  Upgrade(msg.sender, _userId, nextLevel + 1, \"Slot\") */\n      0xbabb6a363fd9a057996d09882c0b74b710d121707d19eeffd91c51c3171a7c91\n        /* \"contracts/modules/SponsorMatrix.sol\":122:18741  contract Nanakshahi is Storage{... */\n      0x80\n        /* \"contracts/modules/SponsorMatrix.sol\":2546:2556  msg.sender */\n      caller\n        /* \"contracts/modules/SponsorMatrix.sol\":4140:4191  Upgrade(msg.sender, _userId, nextLevel + 1, \"Slot\") */\n      swap3\n      log3\n        /* \"contracts/modules/SponsorMatrix.sol\":122:18741  contract Nanakshahi is Storage{... */\n      stop\n        /* \"contracts/modules/SponsorMatrix.sol\":2802:2860  usdt.transferFrom(msg.sender, address(this), packagePrice) */\n    tag_225:\n      tag_245\n      swap1\n        /* \"contracts/modules/SponsorMatrix.sol\":122:18741  contract Nanakshahi is Storage{... */\n      0x20\n        /* \"contracts/modules/SponsorMatrix.sol\":2802:2860  usdt.transferFrom(msg.sender, address(this), packagePrice) */\n      returndatasize\n        /* \"contracts/modules/SponsorMatrix.sol\":122:18741  contract Nanakshahi is Storage{... */\n      0x20\n        /* \"contracts/modules/SponsorMatrix.sol\":2802:2860  usdt.transferFrom(msg.sender, address(this), packagePrice) */\n      gt\n      tag_155\n      jumpi\n      tag_157\n      dup2\n      dup4\n      tag_10\n      jump\t// in\n    tag_245:\n      jump(tag_226)\n        /* \"contracts/modules/SponsorMatrix.sol\":122:18741  contract Nanakshahi is Storage{... */\n    tag_219:\n      mload(0x40)\n      shl(0xe5, 0x461bcd)\n      dup2\n      mstore\n      0x20\n      0x04\n      dup3\n      add\n      mstore\n      0x14\n      0x24\n      dup3\n      add\n      mstore\n      shl(0x62, 0x105b1c9958591e48185d081b585e081b195d995b)\n      0x44\n      dup3\n      add\n      mstore\n      0x64\n      swap1\n      revert\n    tag_46:\n      jumpi(tag_78, callvalue)\n      jumpi(tag_78, slt(add(not(0x03), calldatasize), 0x20))\n      calldataload(0x04)\n        /* \"contracts/modules/Storage.sol\":5758:5789  uint[] public registeredUserIds */\n      0x33\n        /* \"contracts/modules/SponsorMatrix.sol\":122:18741  contract Nanakshahi is Storage{... */\n      sload\n        /* \"contracts/modules/Storage.sol\":5758:5789  uint[] public registeredUserIds */\n      dup2\n      lt\n      iszero\n      tag_78\n      jumpi\n      0x33\n        /* \"contracts/modules/SponsorMatrix.sol\":122:18741  contract Nanakshahi is Storage{... */\n      sload\n      dup2\n      lt\n      iszero\n      tag_194\n      jumpi\n        /* \"contracts/modules/Storage.sol\":5758:5789  uint[] public registeredUserIds */\n      0x33\n        /* \"contracts/modules/SponsorMatrix.sol\":122:18741  contract Nanakshahi is Storage{... */\n      0x00\n      mstore\n      0x82a75bdeeae8604d839476ae9efd8b0e15aa447e21bfd7f41283bb54e22c9a82\n      add\n      sload\n      mload(0x40)\n      swap1\n      dup2\n      mstore\n      0x20\n      swap1\n      return\n    tag_44:\n      jumpi(tag_78, callvalue)\n      jumpi(tag_78, slt(add(not(0x03), calldatasize), 0x00))\n      0x20\n      mload(0x40)\n        /* \"contracts/modules/Storage.sol\":544:546  15 */\n      0x0f\n        /* \"contracts/modules/SponsorMatrix.sol\":122:18741  contract Nanakshahi is Storage{... */\n      dup2\n      mstore\n      return\n    tag_42:\n      jumpi(tag_78, callvalue)\n      jumpi(tag_78, slt(add(not(0x03), calldatasize), 0x00))\n      0x20\n      mload(0x40)\n        /* \"contracts/modules/Storage.sol\":5437:5441  1e18 */\n      0x0de0b6b3a7640000\n        /* \"contracts/modules/SponsorMatrix.sol\":122:18741  contract Nanakshahi is Storage{... */\n      dup2\n      mstore\n      return\n    tag_40:\n      jumpi(tag_78, callvalue)\n      jumpi(tag_78, slt(add(not(0x03), calldatasize), 0x00))\n      0x20\n      mload(0x40)\n        /* \"contracts/modules/Storage.sol\":486:492  1 days */\n      0x015180\n        /* \"contracts/modules/SponsorMatrix.sol\":122:18741  contract Nanakshahi is Storage{... */\n      dup2\n      mstore\n      return\n    tag_38:\n      jumpi(tag_78, callvalue)\n      jumpi(tag_78, slt(add(not(0x03), calldatasize), 0x00))\n      sload(0x00)\n      mload(0x40)\n      sub(shl(0xa0, 0x01), 0x01)\n      swap1\n      swap2\n      and\n      dup2\n      mstore\n      0x20\n      swap1\n      return\n    tag_36:\n      jumpi(tag_78, callvalue)\n      jumpi(tag_78, slt(add(not(0x03), calldatasize), 0x20))\n      0x40\n      tag_277\n      calldataload(0x04)\n      tag_6\n      jump\t// in\n    tag_277:\n      dup3\n      mload\n      swap2\n      dup3\n      mstore\n      0x20\n      dup3\n      add\n      mstore\n      return\n    tag_34:\n      jumpi(tag_78, callvalue)\n      jumpi(tag_78, slt(add(not(0x03), calldatasize), 0x20))\n      calldataload(0x04)\n        /* \"contracts/modules/Storage.sol\":1313:1418  uint[] public glbBoosterPackages = [ 100e18, 200e18, 400e18, 800e18, 1600e18, 3200e18, 6400e18, 12800e18] */\n      0x08\n        /* \"contracts/modules/SponsorMatrix.sol\":122:18741  contract Nanakshahi is Storage{... */\n      sload\n        /* \"contracts/modules/Storage.sol\":1313:1418  uint[] public glbBoosterPackages = [ 100e18, 200e18, 400e18, 800e18, 1600e18, 3200e18, 6400e18, 12800e18] */\n      dup2\n      lt\n      iszero\n      tag_78\n      jumpi\n      0x08\n        /* \"contracts/modules/SponsorMatrix.sol\":122:18741  contract Nanakshahi is Storage{... */\n      sload\n      dup2\n      lt\n      iszero\n      tag_194\n      jumpi\n        /* \"contracts/modules/Storage.sol\":1313:1418  uint[] public glbBoosterPackages = [ 100e18, 200e18, 400e18, 800e18, 1600e18, 3200e18, 6400e18, 12800e18] */\n      0x08\n        /* \"contracts/modules/SponsorMatrix.sol\":122:18741  contract Nanakshahi is Storage{... */\n      0x00\n      mstore\n      0xf3f7a9fe364faab93b216da50a3214154f22a0a2b415b23a84c8169e8b636ee3\n      add\n      sload\n      mload(0x40)\n      swap1\n      dup2\n      mstore\n      0x20\n      swap1\n      return\n    tag_32:\n      jumpi(tag_78, callvalue)\n      jumpi(tag_78, slt(add(not(0x03), calldatasize), 0x20))\n      calldataload(0x04)\n      0x07\n        /* \"contracts/modules/Storage.sol\":1425:1482  uint[7] public minLevelForPool = [3, 5, 7, 9, 11, 13, 15] */\n      dup2\n      lt\n      iszero\n      tag_78\n      jumpi\n        /* \"contracts/modules/SponsorMatrix.sol\":122:18741  contract Nanakshahi is Storage{... */\n      0x20\n      swap1\n        /* \"contracts/modules/Storage.sol\":1425:1482  uint[7] public minLevelForPool = [3, 5, 7, 9, 11, 13, 15] */\n      0x09\n        /* \"contracts/modules/SponsorMatrix.sol\":122:18741  contract Nanakshahi is Storage{... */\n      add\n      sload\n      mload(0x40)\n      swap1\n      dup2\n      mstore\n      return\n    tag_30:\n      jumpi(tag_78, callvalue)\n      jumpi(tag_78, slt(add(not(0x03), calldatasize), 0x00))\n      dup1\n        /* \"contracts/modules/Storage.sol\":438:443  10000 */\n      0x2710\n        /* \"contracts/modules/SponsorMatrix.sol\":122:18741  contract Nanakshahi is Storage{... */\n      0x20\n      swap3\n      mstore\n      return\n    tag_1:\n        /* \"contracts/modules/SponsorMatrix.sol\":2596:2606  user.level */\n      0x06\n        /* \"contracts/modules/SponsorMatrix.sol\":122:18741  contract Nanakshahi is Storage{... */\n      sload\n      dup2\n      lt\n      iszero\n      tag_194\n      jumpi\n        /* \"contracts/modules/SponsorMatrix.sol\":2596:2606  user.level */\n      0x06\n      0x00\n        /* \"contracts/modules/SponsorMatrix.sol\":122:18741  contract Nanakshahi is Storage{... */\n      mstore\n      keccak256(0x00, 0x20)\n      add\n      swap1\n      0x00\n      swap1\n      jump\t// out\n    tag_2:\n        /* \"contracts/modules/SponsorMatrix.sol\":512:520  packages */\n      0x06\n        /* \"contracts/modules/SponsorMatrix.sol\":122:18741  contract Nanakshahi is Storage{... */\n      sload\n      iszero\n      tag_194\n      jumpi\n        /* \"contracts/modules/SponsorMatrix.sol\":512:520  packages */\n      0x06\n        /* \"contracts/modules/SponsorMatrix.sol\":122:18741  contract Nanakshahi is Storage{... */\n      0x00\n      swap1\n      dup2\n      mstore\n      0xf652222313e28459528d920b65115c16c04f3efc82aaedc97be59f3f377c0d3f\n      swap2\n      jump\t// out\n    tag_3:\n      dup1\n      sload\n      dup3\n      lt\n      iszero\n      tag_194\n      jumpi\n      0x00\n      mstore\n      keccak256(0x00, 0x20)\n      add\n      swap1\n      0x00\n      swap1\n      jump\t// out\n    tag_4:\n      swap2\n      swap1\n      dup3\n      sub\n      swap2\n      dup3\n      gt\n      tag_120\n      jumpi\n      jump\t// out\n    tag_5:\n      dup2\n      iszero\n      tag_304\n      jumpi\n      div\n      swap1\n      jump\t// out\n    tag_304:\n      mstore(0x00, shl(0xe0, 0x4e487b71))\n      mstore(0x04, 0x12)\n      revert(0x00, 0x24)\n        /* \"contracts/modules/SponsorMatrix.sol\":7077:7513  function pendingCommunity(uint _userId) external view returns (uint pendingGross, uint pendingAfterCap) {... */\n    tag_6:\n      swap1\n        /* \"contracts/modules/SponsorMatrix.sol\":122:18741  contract Nanakshahi is Storage{... */\n      dup2\n      0x00\n      mstore\n        /* \"contracts/modules/SponsorMatrix.sol\":7196:7201  users */\n      0x2b\n        /* \"contracts/modules/SponsorMatrix.sol\":122:18741  contract Nanakshahi is Storage{... */\n      0x20\n      mstore\n        /* \"contracts/modules/SponsorMatrix.sol\":7196:7213  users[_userId].id */\n      0x03\n        /* \"contracts/modules/SponsorMatrix.sol\":122:18741  contract Nanakshahi is Storage{... */\n      keccak256(0x00, 0x40)\n        /* \"contracts/modules/SponsorMatrix.sol\":7196:7213  users[_userId].id */\n      add\n        /* \"contracts/modules/SponsorMatrix.sol\":122:18741  contract Nanakshahi is Storage{... */\n      sload\n        /* \"contracts/modules/SponsorMatrix.sol\":7196:7218  users[_userId].id == 0 */\n      iszero\n        /* \"contracts/modules/SponsorMatrix.sol\":7192:7233  if (users[_userId].id == 0) return (0, 0) */\n      tag_306\n      jumpi\n        /* \"contracts/modules/SponsorMatrix.sol\":7258:7277  communityAccPerUser */\n      0x31\n        /* \"contracts/modules/SponsorMatrix.sol\":122:18741  contract Nanakshahi is Storage{... */\n      sload\n      dup3\n      0x00\n      mstore\n        /* \"contracts/modules/SponsorMatrix.sol\":7303:7316  communityDebt */\n      0x32\n        /* \"contracts/modules/SponsorMatrix.sol\":122:18741  contract Nanakshahi is Storage{... */\n      0x20\n      mstore\n      sload(keccak256(0x00, 0x40))\n        /* \"contracts/modules/SponsorMatrix.sol\":7340:7351  acc <= debt */\n      swap1\n      dup2\n      dup2\n      gt\n      iszero\n        /* \"contracts/modules/SponsorMatrix.sol\":7336:7366  if (acc <= debt) return (0, 0) */\n      tag_308\n      jumpi\n        /* \"contracts/modules/SponsorMatrix.sol\":7391:7401  acc - debt */\n      tag_310\n        /* \"contracts/modules/SponsorMatrix.sol\":7440:7475  _applyGlobalCapping(_userId, gross) */\n      tag_311\n        /* \"contracts/modules/SponsorMatrix.sol\":7391:7401  acc - debt */\n      swap3\n        /* \"contracts/modules/Storage.sol\":5437:5441  1e18 */\n      0x0de0b6b3a7640000\n        /* \"contracts/modules/SponsorMatrix.sol\":7391:7401  acc - debt */\n      swap3\n      tag_4\n      jump\t// in\n    tag_310:\n        /* \"contracts/modules/SponsorMatrix.sol\":122:18741  contract Nanakshahi is Storage{... */\n      div\n        /* \"contracts/modules/SponsorMatrix.sol\":7440:7475  _applyGlobalCapping(_userId, gross) */\n      dup1\n      swap4\n      tag_20\n      jump\t// in\n    tag_311:\n        /* \"contracts/modules/SponsorMatrix.sol\":7077:7513  function pendingCommunity(uint _userId) external view returns (uint pendingGross, uint pendingAfterCap) {... */\n      swap1\n      jump\t// out\n        /* \"contracts/modules/SponsorMatrix.sol\":7336:7366  if (acc <= debt) return (0, 0) */\n    tag_308:\n        /* \"contracts/modules/SponsorMatrix.sol\":7353:7366  return (0, 0) */\n      pop\n      pop\n      swap1\n      pop\n      0x00\n      swap1\n      0x00\n      swap1\n      jump\t// out\n        /* \"contracts/modules/SponsorMatrix.sol\":7192:7233  if (users[_userId].id == 0) return (0, 0) */\n    tag_306:\n      0x00\n      swap2\n      pop\n      dup2\n      swap1\n        /* \"contracts/modules/SponsorMatrix.sol\":7220:7233  return (0, 0) */\n      jump\t// out\n        /* \"contracts/modules/SponsorMatrix.sol\":122:18741  contract Nanakshahi is Storage{... */\n    tag_7:\n      iszero\n      tag_312\n      jumpi\n      jump\t// out\n    tag_312:\n      mload(0x40)\n      shl(0xe5, 0x461bcd)\n      dup2\n      mstore\n      0x20\n      0x04\n      dup3\n      add\n      mstore\n      0x10\n      0x24\n      dup3\n      add\n      mstore\n      shl(0x82, 0x139bdd081e5bdd5c881858d8dbdd5b9d)\n      0x44\n      dup3\n      add\n      mstore\n      0x64\n      swap1\n      revert\n    tag_8:\n      0x80\n      dup2\n      add\n      swap1\n      dup2\n      lt\n      0xffffffffffffffff\n      dup3\n      gt\n      or\n      tag_101\n      jumpi\n      0x40\n      mstore\n      jump\t// out\n    tag_9:\n      0xa0\n      dup2\n      add\n      swap1\n      dup2\n      lt\n      0xffffffffffffffff\n      dup3\n      gt\n      or\n      tag_101\n      jumpi\n      0x40\n      mstore\n      jump\t// out\n    tag_10:\n      swap1\n      0x1f\n      dup1\n      not\n      swap2\n      add\n      and\n      dup2\n      add\n      swap1\n      dup2\n      lt\n      0xffffffffffffffff\n      dup3\n      gt\n      or\n      tag_101\n      jumpi\n      0x40\n      mstore\n      jump\t// out\n    tag_11:\n      swap1\n      dup2\n      0x20\n      swap2\n      sub\n      slt\n      tag_78\n      jumpi\n      mload\n      dup1\n      iszero\n      iszero\n      dup2\n      sub\n      tag_78\n      jumpi\n      swap1\n      jump\t// out\n    tag_13:\n      swap2\n      swap1\n      dup3\n      add\n      dup1\n      swap3\n      gt\n      tag_120\n      jumpi\n      jump\t// out\n    tag_14:\n      dup1\n      sload\n      shl(0x40, 0x01)\n      dup2\n      lt\n      iszero\n      tag_101\n      jumpi\n      0x01\n      dup2\n      add\n      dup1\n      dup4\n      sstore\n      dup2\n      lt\n      iszero\n      tag_194\n      jumpi\n      0x03\n      0x60\n      swap2\n      0xff\n      swap4\n      0x00\n      mstore\n      keccak256(0x00, 0x20)\n      swap1\n      0x02\n      shl\n      add\n      dup5\n      mload\n      dup2\n      sstore\n      0x20\n      dup6\n      add\n      mload\n      0x01\n      dup3\n      add\n      sstore\n      0x40\n      dup6\n      add\n      mload\n      0x02\n      dup3\n      add\n      sstore\n      add\n      swap3\n      add\n      mload\n      and\n      not(0xff)\n      dup3\n      sload\n      and\n      or\n      swap1\n      sstore\n      jump\t// out\n    tag_15:\n      dup2\n      dup2\n      mul\n      swap3\n      swap2\n      dup2\n      iszero\n      swap2\n      dup5\n      div\n      eq\n      or\n      iszero\n      tag_120\n      jumpi\n      jump\t// out\n    tag_16:\n      dup1\n      sload\n      swap1\n      shl(0x40, 0x01)\n      dup3\n      lt\n      iszero\n      tag_101\n      jumpi\n      0x01\n      dup3\n      add\n      dup1\n      dup3\n      sstore\n      dup3\n      lt\n      iszero\n      tag_194\n      jumpi\n      0x04\n      swap2\n      0x80\n      swap2\n      0x00\n      mstore\n      0x05\n      keccak256(0x00, 0x20)\n      swap2\n      mul\n      add\n      swap3\n      dup1\n      mload\n      dup5\n      sstore\n      0x20\n      dup2\n      add\n      mload\n      0x01\n      dup6\n      add\n      sstore\n      0x40\n      dup2\n      add\n      mload\n      0x02\n      dup6\n      add\n      sstore\n      0x60\n      dup2\n      add\n      mload\n      0x03\n      dup6\n      add\n      sstore\n      add\n      mload\n      swap2\n      add\n      sstore\n      jump\t// out\n        /* \"contracts/modules/SponsorMatrix.sol\":5320:7067  function claimCommunity(uint _userId) external {... */\n    tag_18:\n        /* \"contracts/modules/SponsorMatrix.sol\":122:18741  contract Nanakshahi is Storage{... */\n      dup1\n      0x00\n      mstore\n        /* \"contracts/modules/SponsorMatrix.sol\":5399:5404  users */\n      0x2b\n        /* \"contracts/modules/SponsorMatrix.sol\":122:18741  contract Nanakshahi is Storage{... */\n      0x20\n      mstore\n      keccak256(0x00, 0x40)\n        /* \"contracts/modules/SponsorMatrix.sol\":5436:5440  u.id */\n      swap1\n      0x03\n      dup3\n      add\n        /* \"contracts/modules/SponsorMatrix.sol\":122:18741  contract Nanakshahi is Storage{... */\n      sload\n        /* \"contracts/modules/SponsorMatrix.sol\":5436:5445  u.id != 0 */\n      iszero\n        /* \"contracts/modules/SponsorMatrix.sol\":122:18741  contract Nanakshahi is Storage{... */\n      tag_336\n      jumpi\n        /* \"contracts/modules/SponsorMatrix.sol\":5479:5531  require(u.account == msg.sender, \"Not your account\") */\n      tag_338\n        /* \"contracts/modules/SponsorMatrix.sol\":122:18741  contract Nanakshahi is Storage{... */\n      0x01\n      dup1\n      0xa0\n      shl\n      sub\n      dup4\n      sload\n      and\n        /* \"contracts/modules/SponsorMatrix.sol\":5500:5510  msg.sender */\n      caller\n        /* \"contracts/modules/SponsorMatrix.sol\":5487:5510  u.account == msg.sender */\n      eq\n        /* \"contracts/modules/SponsorMatrix.sol\":5479:5531  require(u.account == msg.sender, \"Not your account\") */\n      tag_7\n      jump\t// in\n    tag_338:\n        /* \"contracts/modules/SponsorMatrix.sol\":5628:5647  communityAccPerUser */\n      0x31\n        /* \"contracts/modules/SponsorMatrix.sol\":122:18741  contract Nanakshahi is Storage{... */\n      sload\n      swap2\n      dup2\n      0x00\n      mstore\n        /* \"contracts/modules/SponsorMatrix.sol\":5677:5690  communityDebt */\n      0x32\n        /* \"contracts/modules/SponsorMatrix.sol\":122:18741  contract Nanakshahi is Storage{... */\n      0x20\n      mstore\n      sload(keccak256(0x00, 0x40))\n        /* \"contracts/modules/SponsorMatrix.sol\":5720:5739  accumulated == debt */\n      dup1\n      dup5\n      eq\n        /* \"contracts/modules/SponsorMatrix.sol\":5716:5802  if (accumulated == debt) {... */\n      tag_339\n      jumpi\n        /* \"contracts/modules/SponsorMatrix.sol\":5837:5855  accumulated - debt */\n      tag_341\n        /* \"contracts/modules/Storage.sol\":5437:5441  1e18 */\n      0x0de0b6b3a7640000\n        /* \"contracts/modules/SponsorMatrix.sol\":5837:5855  accumulated - debt */\n      swap2\n      dup6\n      tag_4\n      jump\t// in\n    tag_341:\n        /* \"contracts/modules/SponsorMatrix.sol\":122:18741  contract Nanakshahi is Storage{... */\n      div\n        /* \"contracts/modules/SponsorMatrix.sol\":5891:5903  accrued == 0 */\n      swap2\n      dup3\n      iszero\n        /* \"contracts/modules/SponsorMatrix.sol\":5887:6020  if (accrued == 0) {... */\n      tag_342\n      jumpi\n        /* \"contracts/modules/SponsorMatrix.sol\":6097:6134  _applyGlobalCapping(_userId, accrued) */\n      tag_344\n      dup4\n      dup3\n      tag_20\n      jump\t// in\n    tag_344:\n        /* \"contracts/modules/SponsorMatrix.sol\":122:18741  contract Nanakshahi is Storage{... */\n      swap4\n      dup2\n      0x00\n      mstore\n        /* \"contracts/modules/SponsorMatrix.sol\":5677:5690  communityDebt */\n      0x32\n        /* \"contracts/modules/SponsorMatrix.sol\":122:18741  contract Nanakshahi is Storage{... */\n      0x20\n      mstore\n      keccak256(0x00, 0x40)\n      sstore\n        /* \"contracts/modules/SponsorMatrix.sol\":6281:6288  pay > 0 */\n      dup4\n      dup1\n        /* \"contracts/modules/SponsorMatrix.sol\":6277:6898  if (pay > 0) {... */\n      tag_345\n      jumpi\n        /* \"contracts/modules/SponsorMatrix.sol\":5320:7067  function claimCommunity(uint _userId) external {... */\n    tag_346:\n        /* \"contracts/modules/SponsorMatrix.sol\":6977:6990  accrued > pay */\n      swap2\n      pop\n      pop\n      dup2\n      gt\n        /* \"contracts/modules/SponsorMatrix.sol\":6973:7056  if (accrued > pay) {... */\n      tag_347\n      jumpi\n        /* \"contracts/modules/SponsorMatrix.sol\":5320:7067  function claimCommunity(uint _userId) external {... */\n      pop\n      pop\n      jump\t// out\n        /* \"contracts/modules/SponsorMatrix.sol\":6973:7056  if (accrued > pay) {... */\n    tag_347:\n        /* \"contracts/modules/SponsorMatrix.sol\":7026:7039  accrued - pay */\n      tag_349\n      swap2\n      tag_350\n      swap2\n      tag_4\n      jump\t// in\n    tag_350:\n      tag_22\n      jump\t// in\n    tag_349:\n        /* \"contracts/modules/SponsorMatrix.sol\":5320:7067  function claimCommunity(uint _userId) external {... */\n      jump\t// out\n        /* \"contracts/modules/SponsorMatrix.sol\":6277:6898  if (pay > 0) {... */\n    tag_345:\n        /* \"contracts/modules/SponsorMatrix.sol\":6828:6857  usdt.transfer(u.account, pay) */\n      tag_351\n        /* \"contracts/modules/SponsorMatrix.sol\":122:18741  contract Nanakshahi is Storage{... */\n      swap3\n        /* \"contracts/modules/SponsorMatrix.sol\":6493:6767  incomeHistory[_userId].push(Income({... */\n      tag_352\n        /* \"contracts/modules/SponsorMatrix.sol\":122:18741  contract Nanakshahi is Storage{... */\n      dup4\n      0x20\n      swap5\n      0x00\n      mstore\n        /* \"contracts/modules/SponsorMatrix.sol\":6334:6345  userIncomes */\n      0x2c\n        /* \"contracts/modules/SponsorMatrix.sol\":122:18741  contract Nanakshahi is Storage{... */\n      dup6\n      mstore\n        /* \"contracts/modules/SponsorMatrix.sol\":6414:6433  inc.communityIncome */\n      0x07\n        /* \"contracts/modules/SponsorMatrix.sol\":122:18741  contract Nanakshahi is Storage{... */\n      keccak256(0x00, 0x40)\n        /* \"contracts/modules/SponsorMatrix.sol\":6373:6395  inc.totalIncome += pay */\n      tag_353\n        /* \"contracts/modules/SponsorMatrix.sol\":122:18741  contract Nanakshahi is Storage{... */\n      dup7\n      dup3\n      sload\n        /* \"contracts/modules/SponsorMatrix.sol\":6373:6395  inc.totalIncome += pay */\n      tag_13\n      jump\t// in\n    tag_353:\n        /* \"contracts/modules/SponsorMatrix.sol\":122:18741  contract Nanakshahi is Storage{... */\n      dup2\n      sstore\n        /* \"contracts/modules/SponsorMatrix.sol\":6414:6433  inc.communityIncome */\n      add\n        /* \"contracts/modules/SponsorMatrix.sol\":6414:6440  inc.communityIncome += pay */\n      tag_354\n        /* \"contracts/modules/SponsorMatrix.sol\":122:18741  contract Nanakshahi is Storage{... */\n      dup6\n      dup3\n      sload\n        /* \"contracts/modules/SponsorMatrix.sol\":6414:6440  inc.communityIncome += pay */\n      tag_13\n      jump\t// in\n    tag_354:\n        /* \"contracts/modules/SponsorMatrix.sol\":122:18741  contract Nanakshahi is Storage{... */\n      swap1\n      sstore\n      dup1\n      0x00\n      mstore\n        /* \"contracts/modules/SponsorMatrix.sol\":6493:6506  incomeHistory */\n      0x2d\n        /* \"contracts/modules/SponsorMatrix.sol\":122:18741  contract Nanakshahi is Storage{... */\n      dup6\n      mstore\n      keccak256(0x00, 0x40)\n      mload(0x40)\n      swap2\n      tag_355\n      dup4\n      tag_9\n      jump\t// in\n    tag_355:\n      dup3\n      mstore\n        /* \"contracts/modules/SponsorMatrix.sol\":6521:6766  Income({... */\n      dup5\n      dup7\n      dup4\n      add\n        /* \"contracts/modules/SponsorMatrix.sol\":122:18741  contract Nanakshahi is Storage{... */\n      mstore\n        /* \"contracts/modules/SponsorMatrix.sol\":6641:6642  1 */\n      0x01\n        /* \"contracts/modules/SponsorMatrix.sol\":122:18741  contract Nanakshahi is Storage{... */\n      0x40\n        /* \"contracts/modules/SponsorMatrix.sol\":6521:6766  Income({... */\n      dup4\n      add\n        /* \"contracts/modules/SponsorMatrix.sol\":122:18741  contract Nanakshahi is Storage{... */\n      mstore\n        /* \"contracts/modules/SponsorMatrix.sol\":6676:6691  block.timestamp */\n      timestamp\n        /* \"contracts/modules/SponsorMatrix.sol\":6521:6766  Income({... */\n      0x60\n      dup4\n      add\n        /* \"contracts/modules/SponsorMatrix.sol\":122:18741  contract Nanakshahi is Storage{... */\n      mstore\n        /* \"contracts/modules/SponsorMatrix.sol\":6726:6727  9 */\n      0x09\n        /* \"contracts/modules/SponsorMatrix.sol\":6521:6766  Income({... */\n      0x80\n      dup4\n      add\n        /* \"contracts/modules/SponsorMatrix.sol\":122:18741  contract Nanakshahi is Storage{... */\n      mstore\n        /* \"contracts/modules/SponsorMatrix.sol\":6493:6767  incomeHistory[_userId].push(Income({... */\n      tag_16\n      jump\t// in\n    tag_352:\n      0x00\n        /* \"contracts/modules/SponsorMatrix.sol\":122:18741  contract Nanakshahi is Storage{... */\n      dup1\n      sload\n      swap2\n      sload\n      mload(0x40)\n      shl(0xe0, 0xa9059cbb)\n        /* \"contracts/modules/SponsorMatrix.sol\":6828:6857  usdt.transfer(u.account, pay) */\n      dup2\n      mstore\n      sub(shl(0xa0, 0x01), 0x01)\n        /* \"contracts/modules/SponsorMatrix.sol\":122:18741  contract Nanakshahi is Storage{... */\n      swap2\n      dup3\n      and\n        /* \"contracts/modules/SponsorMatrix.sol\":6828:6857  usdt.transfer(u.account, pay) */\n      0x04\n      dup3\n      add\n        /* \"contracts/modules/SponsorMatrix.sol\":122:18741  contract Nanakshahi is Storage{... */\n      mstore\n      0x24\n      dup2\n      add\n      swap5\n      swap1\n      swap5\n      mstore\n      swap3\n      swap5\n      dup6\n      swap4\n      swap1\n      swap3\n      and\n      swap2\n      dup4\n      swap2\n      swap1\n      dup3\n      swap1\n      0x44\n      dup3\n      add\n      swap1\n      jump\n        /* \"contracts/modules/SponsorMatrix.sol\":6828:6857  usdt.transfer(u.account, pay) */\n    tag_351:\n      sub\n      swap3\n      gas\n      call\n      swap1\n      dup2\n      iszero\n      tag_90\n      jumpi\n      0x00\n      swap2\n      tag_358\n      jumpi\n        /* \"contracts/modules/SponsorMatrix.sol\":6277:6898  if (pay > 0) {... */\n    tag_359:\n        /* \"contracts/modules/SponsorMatrix.sol\":122:18741  contract Nanakshahi is Storage{... */\n      pop\n      iszero\n      tag_360\n      jumpi\n        /* \"contracts/modules/SponsorMatrix.sol\":6277:6898  if (pay > 0) {... */\n      0x00\n      dup1\n      dup4\n      jump(tag_346)\n        /* \"contracts/modules/SponsorMatrix.sol\":122:18741  contract Nanakshahi is Storage{... */\n    tag_360:\n      mload(0x40)\n      shl(0xe5, 0x461bcd)\n      dup2\n      mstore\n      0x20\n        /* \"contracts/modules/SponsorMatrix.sol\":6828:6857  usdt.transfer(u.account, pay) */\n      0x04\n        /* \"contracts/modules/SponsorMatrix.sol\":122:18741  contract Nanakshahi is Storage{... */\n      dup3\n      add\n      mstore\n      0x14\n      0x24\n      dup3\n      add\n      mstore\n      shl(0x62, 0x1554d115081d1c985b9cd9995c8819985a5b1959)\n      0x44\n      dup3\n      add\n      mstore\n      0x64\n      swap1\n      revert\n        /* \"contracts/modules/SponsorMatrix.sol\":6828:6857  usdt.transfer(u.account, pay) */\n    tag_358:\n      tag_362\n      swap2\n      pop\n        /* \"contracts/modules/SponsorMatrix.sol\":122:18741  contract Nanakshahi is Storage{... */\n      0x20\n        /* \"contracts/modules/SponsorMatrix.sol\":6828:6857  usdt.transfer(u.account, pay) */\n      returndatasize\n        /* \"contracts/modules/SponsorMatrix.sol\":122:18741  contract Nanakshahi is Storage{... */\n      0x20\n        /* \"contracts/modules/SponsorMatrix.sol\":6828:6857  usdt.transfer(u.account, pay) */\n      gt\n      tag_155\n      jumpi\n      tag_157\n      dup2\n      dup4\n      tag_10\n      jump\t// in\n    tag_362:\n      0x00\n      jump(tag_359)\n        /* \"contracts/modules/SponsorMatrix.sol\":5887:6020  if (accrued == 0) {... */\n    tag_342:\n        /* \"contracts/modules/SponsorMatrix.sol\":122:18741  contract Nanakshahi is Storage{... */\n      swap2\n      pop\n      pop\n      0x00\n      mstore\n        /* \"contracts/modules/SponsorMatrix.sol\":5677:5690  communityDebt */\n      0x32\n        /* \"contracts/modules/SponsorMatrix.sol\":122:18741  contract Nanakshahi is Storage{... */\n      0x20\n      mstore\n      keccak256(0x00, 0x40)\n      sstore\n        /* \"contracts/modules/SponsorMatrix.sol\":5998:6005  return; */\n      jump\t// out\n        /* \"contracts/modules/SponsorMatrix.sol\":5716:5802  if (accumulated == debt) {... */\n    tag_339:\n        /* \"contracts/modules/SponsorMatrix.sol\":5760:5767  return; */\n      pop\n      pop\n      pop\n      pop\n      jump\t// out\n        /* \"contracts/modules/SponsorMatrix.sol\":122:18741  contract Nanakshahi is Storage{... */\n    tag_336:\n      mload(0x40)\n      shl(0xe5, 0x461bcd)\n      dup2\n      mstore\n      0x20\n      0x04\n      dup3\n      add\n      mstore\n      0x0e\n      0x24\n      dup3\n      add\n      mstore\n      shl(0x92, 0x155cd95c881b9bdd08199bdd5b99)\n      0x44\n      dup3\n      add\n      mstore\n      0x64\n      swap1\n      revert\n    tag_19:\n      dup1\n      sload\n      shl(0x40, 0x01)\n      dup2\n      lt\n      iszero\n      tag_101\n      jumpi\n      tag_368\n      swap2\n      0x01\n      dup3\n      add\n      dup2\n      sstore\n      tag_3\n      jump\t// in\n    tag_368:\n      dup2\n      swap3\n      swap2\n      sload\n      swap1\n      0x03\n      shl\n      swap2\n      dup3\n      shl\n      swap2\n      not(0x00)\n      swap1\n      shl\n      not\n      and\n      or\n      swap1\n      sstore\n      jump\t// out\n        /* \"contracts/modules/SponsorMatrix.sol\":4211:4978  function _applyGlobalCapping(uint _userId, uint _amount) internal view returns (uint) {... */\n    tag_20:\n        /* \"contracts/modules/SponsorMatrix.sol\":122:18741  contract Nanakshahi is Storage{... */\n      dup1\n      0x00\n      mstore\n        /* \"contracts/modules/SponsorMatrix.sol\":4324:4329  users */\n      0x2b\n        /* \"contracts/modules/SponsorMatrix.sol\":122:18741  contract Nanakshahi is Storage{... */\n      0x20\n      mstore\n      keccak256(0x00, 0x40)\n      swap1\n      0x00\n      mstore\n        /* \"contracts/modules/SponsorMatrix.sol\":4373:4384  userIncomes */\n      0x2c\n        /* \"contracts/modules/SponsorMatrix.sol\":122:18741  contract Nanakshahi is Storage{... */\n      0x20\n      mstore\n        /* \"contracts/modules/SponsorMatrix.sol\":4749:4766  user.totalDeposit */\n      0x0a\n        /* \"contracts/modules/SponsorMatrix.sol\":4749:4788  user.totalDeposit * _ROI_CAP_MULTIPLIER */\n      tag_369\n        /* \"contracts/modules/SponsorMatrix.sol\":122:18741  contract Nanakshahi is Storage{... */\n      keccak256(0x00, 0x40)\n        /* \"contracts/modules/SponsorMatrix.sol\":4605:4650  uint _ROI_CAP_MULTIPLIER = ROI_CAP_MULTIPLIER */\n      swap3\n        /* \"contracts/modules/Storage.sol\":544:546  15 */\n      0x0f\n        /* \"contracts/modules/SponsorMatrix.sol\":4659:4683  user.directPoolQualified */\n      swap1\n        /* \"contracts/modules/SponsorMatrix.sol\":4684:4685  1 */\n      0x01\n        /* \"contracts/modules/SponsorMatrix.sol\":4659:4683  user.directPoolQualified */\n      0x08\n      dup3\n      add\n        /* \"contracts/modules/SponsorMatrix.sol\":122:18741  contract Nanakshahi is Storage{... */\n      sload\n        /* \"contracts/modules/SponsorMatrix.sol\":4659:4685  user.directPoolQualified>1 */\n      gt\n        /* \"contracts/modules/SponsorMatrix.sol\":4656:4726  if(user.directPoolQualified>1){... */\n      tag_370\n      jumpi\n        /* \"contracts/modules/SponsorMatrix.sol\":4211:4978  function _applyGlobalCapping(uint _userId, uint _amount) internal view returns (uint) {... */\n    tag_371:\n        /* \"contracts/modules/SponsorMatrix.sol\":4749:4766  user.totalDeposit */\n      dup4\n      add\n        /* \"contracts/modules/SponsorMatrix.sol\":122:18741  contract Nanakshahi is Storage{... */\n      sload\n        /* \"contracts/modules/SponsorMatrix.sol\":4749:4788  user.totalDeposit * _ROI_CAP_MULTIPLIER */\n      tag_15\n      jump\t// in\n    tag_369:\n        /* \"contracts/modules/SponsorMatrix.sol\":122:18741  contract Nanakshahi is Storage{... */\n      div\n      swap1\n      sload\n        /* \"contracts/modules/SponsorMatrix.sol\":4820:4851  income.totalIncome >= maxIncome */\n      dup2\n      dup2\n      lt\n      iszero\n        /* \"contracts/modules/SponsorMatrix.sol\":4816:4861  if (income.totalIncome >= maxIncome) return 0 */\n      tag_372\n      jumpi\n        /* \"contracts/modules/SponsorMatrix.sol\":4887:4917  maxIncome - income.totalIncome */\n      tag_374\n      swap2\n      tag_4\n      jump\t// in\n    tag_374:\n        /* \"contracts/modules/SponsorMatrix.sol\":4931:4974  (_amount > remaining) ? remaining : _amount */\n      swap1\n        /* \"contracts/modules/SponsorMatrix.sol\":4932:4951  _amount > remaining */\n      dup2\n      dup2\n      gt\n      iszero\n      tag_375\n      jumpi\n        /* \"contracts/modules/SponsorMatrix.sol\":4931:4974  (_amount > remaining) ? remaining : _amount */\n      pop\n        /* \"contracts/modules/SponsorMatrix.sol\":4211:4978  function _applyGlobalCapping(uint _userId, uint _amount) internal view returns (uint) {... */\n      swap1\n      jump\t// out\n        /* \"contracts/modules/SponsorMatrix.sol\":4931:4974  (_amount > remaining) ? remaining : _amount */\n    tag_375:\n      swap1\n      pop\n        /* \"contracts/modules/SponsorMatrix.sol\":4211:4978  function _applyGlobalCapping(uint _userId, uint _amount) internal view returns (uint) {... */\n      swap1\n      jump\t// out\n        /* \"contracts/modules/SponsorMatrix.sol\":4816:4861  if (income.totalIncome >= maxIncome) return 0 */\n    tag_372:\n        /* \"contracts/modules/SponsorMatrix.sol\":4853:4861  return 0 */\n      pop\n      pop\n      pop\n        /* \"contracts/modules/SponsorMatrix.sol\":122:18741  contract Nanakshahi is Storage{... */\n      0x00\n        /* \"contracts/modules/SponsorMatrix.sol\":4853:4861  return 0 */\n      swap1\n      jump\t// out\n        /* \"contracts/modules/SponsorMatrix.sol\":4656:4726  if(user.directPoolQualified>1){... */\n    tag_370:\n        /* \"contracts/modules/SponsorMatrix.sol\":4717:4719  20 */\n      0x14\n      swap2\n      pop\n        /* \"contracts/modules/SponsorMatrix.sol\":4656:4726  if(user.directPoolQualified>1){... */\n      jump(tag_371)\n        /* \"contracts/modules/SponsorMatrix.sol\":4986:5310  function _accrueCommunityBonus(uint _totalAmount) internal {... */\n    tag_21:\n        /* \"contracts/modules/SponsorMatrix.sol\":5065:5082  registeredUserIds */\n      0x33\n        /* \"contracts/modules/SponsorMatrix.sol\":122:18741  contract Nanakshahi is Storage{... */\n      sload\n        /* \"contracts/modules/SponsorMatrix.sol\":5104:5110  n == 0 */\n      swap1\n      dup2\n      iszero\n        /* \"contracts/modules/SponsorMatrix.sol\":5104:5131  n == 0 || _totalAmount == 0 */\n      dup1\n      iszero\n      tag_378\n      jumpi\n        /* \"contracts/modules/SponsorMatrix.sol\":4986:5310  function _accrueCommunityBonus(uint _totalAmount) internal {... */\n    tag_379:\n        /* \"contracts/modules/SponsorMatrix.sol\":5100:5235  if (n == 0 || _totalAmount == 0) {... */\n      tag_380\n      jumpi\n        /* \"contracts/modules/Storage.sol\":5437:5441  1e18 */\n      0x0de0b6b3a7640000\n        /* \"contracts/modules/SponsorMatrix.sol\":122:18741  contract Nanakshahi is Storage{... */\n      dup2\n      mul\n      swap1\n      dup1\n      dup3\n      div\n        /* \"contracts/modules/Storage.sol\":5437:5441  1e18 */\n      0x0de0b6b3a7640000\n        /* \"contracts/modules/SponsorMatrix.sol\":122:18741  contract Nanakshahi is Storage{... */\n      eq\n      swap1\n      iszero\n      or\n      iszero\n      tag_120\n      jumpi\n        /* \"contracts/modules/SponsorMatrix.sol\":5245:5302  communityAccPerUser += (_totalAmount * ACC_PRECISION) / n */\n      tag_384\n        /* \"contracts/modules/SponsorMatrix.sol\":5268:5302  (_totalAmount * ACC_PRECISION) / n */\n      swap2\n      tag_385\n      swap2\n      tag_5\n      jump\t// in\n    tag_385:\n        /* \"contracts/modules/SponsorMatrix.sol\":5245:5302  communityAccPerUser += (_totalAmount * ACC_PRECISION) / n */\n      0x31\n        /* \"contracts/modules/SponsorMatrix.sol\":122:18741  contract Nanakshahi is Storage{... */\n      sload\n        /* \"contracts/modules/SponsorMatrix.sol\":5245:5302  communityAccPerUser += (_totalAmount * ACC_PRECISION) / n */\n      tag_13\n      jump\t// in\n    tag_384:\n      0x31\n        /* \"contracts/modules/SponsorMatrix.sol\":122:18741  contract Nanakshahi is Storage{... */\n      sstore\n        /* \"contracts/modules/SponsorMatrix.sol\":4986:5310  function _accrueCommunityBonus(uint _totalAmount) internal {... */\n      jump\t// out\n        /* \"contracts/modules/SponsorMatrix.sol\":5100:5235  if (n == 0 || _totalAmount == 0) {... */\n    tag_380:\n        /* \"contracts/modules/SponsorMatrix.sol\":5152:5168  _totalAmount > 0 */\n      dup1\n      swap2\n      pop\n        /* \"contracts/modules/SponsorMatrix.sol\":5148:5203  if (_totalAmount > 0) { _sendToCreator(_totalAmount); } */\n      tag_386\n      jumpi\n        /* \"contracts/modules/SponsorMatrix.sol\":5217:5224  return; */\n      pop\n      jump\t// out\n        /* \"contracts/modules/SponsorMatrix.sol\":5148:5203  if (_totalAmount > 0) { _sendToCreator(_totalAmount); } */\n    tag_386:\n        /* \"contracts/modules/SponsorMatrix.sol\":5187:5199  _totalAmount */\n      tag_349\n      swap1\n      tag_22\n      jump\t// in\n        /* \"contracts/modules/SponsorMatrix.sol\":5104:5131  n == 0 || _totalAmount == 0 */\n    tag_378:\n        /* \"contracts/modules/SponsorMatrix.sol\":5114:5131  _totalAmount == 0 */\n      pop\n      dup1\n      iszero\n        /* \"contracts/modules/SponsorMatrix.sol\":5104:5131  n == 0 || _totalAmount == 0 */\n      jump(tag_379)\n        /* \"contracts/modules/Storage.sol\":6473:7080  function _sendToCreator(uint _amount) internal {... */\n    tag_22:\n        /* \"contracts/modules/SponsorMatrix.sol\":122:18741  contract Nanakshahi is Storage{... */\n      and(sub(shl(0xa0, 0x01), 0x01), sload(0x01))\n      swap1\n        /* \"contracts/modules/Storage.sol\":6535:6562  creatorWallet != address(0) */\n      dup2\n      iszero\n        /* \"contracts/modules/SponsorMatrix.sol\":122:18741  contract Nanakshahi is Storage{... */\n      tag_389\n      jumpi\n      0x00\n      dup1\n      sload\n      mload(0x40)\n      shl(0xe0, 0xa9059cbb)\n        /* \"contracts/modules/Storage.sol\":6681:6718  usdt.transfer(creatorWallet, _amount) */\n      dup2\n      mstore\n      sub(shl(0xa0, 0x01), 0x01)\n        /* \"contracts/modules/SponsorMatrix.sol\":122:18741  contract Nanakshahi is Storage{... */\n      swap5\n      dup6\n      and\n        /* \"contracts/modules/Storage.sol\":6681:6718  usdt.transfer(creatorWallet, _amount) */\n      0x04\n      dup3\n      add\n        /* \"contracts/modules/SponsorMatrix.sol\":122:18741  contract Nanakshahi is Storage{... */\n      mstore\n      0x24\n      dup2\n      add\n      dup5\n      swap1\n      mstore\n      swap4\n        /* \"contracts/modules/Storage.sol\":6681:6718  usdt.transfer(creatorWallet, _amount) */\n      0x20\n      swap3\n        /* \"contracts/modules/SponsorMatrix.sol\":122:18741  contract Nanakshahi is Storage{... */\n      dup6\n      swap3\n      0x44\n      swap3\n      dup5\n      swap3\n      swap2\n      and\n        /* \"contracts/modules/Storage.sol\":6681:6718  usdt.transfer(creatorWallet, _amount) */\n      gas\n      call\n      swap2\n      dup3\n      iszero\n      tag_90\n      jumpi\n        /* \"contracts/modules/Storage.sol\":6890:7076  incomeHistory[defaultRefId].push(Income({... */\n      tag_349\n        /* \"contracts/modules/Storage.sol\":6681:6718  usdt.transfer(creatorWallet, _amount) */\n      swap3\n      tag_395\n      jumpi\n        /* \"contracts/modules/Storage.sol\":6473:7080  function _sendToCreator(uint _amount) internal {... */\n    tag_396:\n        /* \"contracts/modules/SponsorMatrix.sol\":122:18741  contract Nanakshahi is Storage{... */\n      pop\n        /* \"contracts/modules/Storage.sol\":6681:6718  usdt.transfer(creatorWallet, _amount) */\n      0x04\n        /* \"contracts/modules/SponsorMatrix.sol\":122:18741  contract Nanakshahi is Storage{... */\n      sload\n      0x00\n      mstore\n        /* \"contracts/modules/Storage.sol\":6813:6824  userIncomes */\n      0x2c\n        /* \"contracts/modules/Storage.sol\":6681:6718  usdt.transfer(creatorWallet, _amount) */\n      0x20\n        /* \"contracts/modules/SponsorMatrix.sol\":122:18741  contract Nanakshahi is Storage{... */\n      mstore\n      keccak256(0x00, 0x40)\n        /* \"contracts/modules/Storage.sol\":6845:6881  creatorIncome.totalIncome += _amount */\n      tag_397\n        /* \"contracts/modules/SponsorMatrix.sol\":122:18741  contract Nanakshahi is Storage{... */\n      dup3\n      dup3\n      sload\n        /* \"contracts/modules/Storage.sol\":6845:6881  creatorIncome.totalIncome += _amount */\n      tag_13\n      jump\t// in\n    tag_397:\n        /* \"contracts/modules/SponsorMatrix.sol\":122:18741  contract Nanakshahi is Storage{... */\n      swap1\n      sstore\n        /* \"contracts/modules/Storage.sol\":6681:6718  usdt.transfer(creatorWallet, _amount) */\n      0x04\n        /* \"contracts/modules/SponsorMatrix.sol\":122:18741  contract Nanakshahi is Storage{... */\n      sload\n      0x00\n      mstore\n        /* \"contracts/modules/Storage.sol\":6890:6903  incomeHistory */\n      0x2d\n        /* \"contracts/modules/Storage.sol\":6681:6718  usdt.transfer(creatorWallet, _amount) */\n      0x20\n        /* \"contracts/modules/SponsorMatrix.sol\":122:18741  contract Nanakshahi is Storage{... */\n      mstore\n      keccak256(0x00, 0x40)\n      mload(0x40)\n      swap2\n      tag_398\n      dup4\n      tag_9\n      jump\t// in\n    tag_398:\n      0x00\n      dup4\n      mstore\n        /* \"contracts/modules/Storage.sol\":6681:6718  usdt.transfer(creatorWallet, _amount) */\n      0x20\n        /* \"contracts/modules/Storage.sol\":6923:7075  Income({... */\n      dup4\n      add\n        /* \"contracts/modules/SponsorMatrix.sol\":122:18741  contract Nanakshahi is Storage{... */\n      mstore\n      0x00\n      0x40\n        /* \"contracts/modules/Storage.sol\":6923:7075  Income({... */\n      dup4\n      add\n        /* \"contracts/modules/SponsorMatrix.sol\":122:18741  contract Nanakshahi is Storage{... */\n      mstore\n        /* \"contracts/modules/Storage.sol\":7028:7043  block.timestamp */\n      timestamp\n        /* \"contracts/modules/Storage.sol\":6923:7075  Income({... */\n      0x60\n      dup4\n      add\n        /* \"contracts/modules/SponsorMatrix.sol\":122:18741  contract Nanakshahi is Storage{... */\n      mstore\n        /* \"contracts/modules/Storage.sol\":7066:7067  5 */\n      0x05\n        /* \"contracts/modules/Storage.sol\":6923:7075  Income({... */\n      0x80\n      dup4\n      add\n        /* \"contracts/modules/SponsorMatrix.sol\":122:18741  contract Nanakshahi is Storage{... */\n      mstore\n        /* \"contracts/modules/Storage.sol\":6890:7076  incomeHistory[defaultRefId].push(Income({... */\n      tag_16\n      jump\t// in\n        /* \"contracts/modules/Storage.sol\":6681:6718  usdt.transfer(creatorWallet, _amount) */\n    tag_395:\n      tag_399\n      swap1\n      0x20\n      jumpi(tag_155, gt(0x20, returndatasize))\n      tag_157\n      dup2\n      dup4\n      tag_10\n      jump\t// in\n    tag_399:\n      jump(tag_396)\n        /* \"contracts/modules/SponsorMatrix.sol\":122:18741  contract Nanakshahi is Storage{... */\n    tag_389:\n      mload(0x40)\n      shl(0xe5, 0x461bcd)\n      dup2\n      mstore\n      0x20\n      0x04\n      dup3\n      add\n      mstore\n      0x11\n      0x24\n      dup3\n      add\n      mstore\n      shl(0x7a, 0x199959481859191c9cc81b9bdd081cd95d)\n      0x44\n      dup3\n      add\n      mstore\n      0x64\n      swap1\n      revert\n        /* \"contracts/modules/SponsorMatrix.sol\":9034:10266  function _distributeSponsorIncome(uint _sponsorId, uint _fromId, uint _amount, uint _packageLevel) private {... */\n    tag_23:\n        /* \"contracts/modules/SponsorMatrix.sol\":9156:9171  _sponsorId == 0 */\n      dup1\n      iszero\n        /* \"contracts/modules/SponsorMatrix.sol\":9156:9201  _sponsorId == 0 || _sponsorId == defaultRefId */\n      dup1\n      iszero\n      tag_403\n      jumpi\n        /* \"contracts/modules/SponsorMatrix.sol\":9034:10266  function _distributeSponsorIncome(uint _sponsorId, uint _fromId, uint _amount, uint _packageLevel) private {... */\n    tag_404:\n        /* \"contracts/modules/SponsorMatrix.sol\":9152:9274  if (_sponsorId == 0 || _sponsorId == defaultRefId) {... */\n      tag_405\n      jumpi\n        /* \"contracts/modules/SponsorMatrix.sol\":9170:9171  0 */\n      0x00\n        /* \"contracts/modules/SponsorMatrix.sol\":122:18741  contract Nanakshahi is Storage{... */\n      dup2\n      dup2\n      mstore\n        /* \"contracts/modules/SponsorMatrix.sol\":9317:9322  users */\n      0x2b\n        /* \"contracts/modules/SponsorMatrix.sol\":122:18741  contract Nanakshahi is Storage{... */\n      0x20\n      swap1\n      dup2\n      mstore\n      0x40\n      dup1\n      dup4\n      keccak256\n      dup4\n      sload\n      dup2\n      sload\n      swap3\n      mload\n      shl(0xe0, 0xa9059cbb)\n        /* \"contracts/modules/SponsorMatrix.sol\":9587:9626  usdt.transfer(sponsor.account, _amount) */\n      dup2\n      mstore\n      sub(shl(0xa0, 0x01), 0x01)\n        /* \"contracts/modules/SponsorMatrix.sol\":122:18741  contract Nanakshahi is Storage{... */\n      swap4\n      dup5\n      and\n        /* \"contracts/modules/SponsorMatrix.sol\":9587:9626  usdt.transfer(sponsor.account, _amount) */\n      0x04\n      dup3\n      add\n        /* \"contracts/modules/SponsorMatrix.sol\":122:18741  contract Nanakshahi is Storage{... */\n      mstore\n      0x24\n      dup2\n      add\n      dup10\n      swap1\n      mstore\n      swap2\n      swap6\n      swap5\n      swap2\n      swap4\n      swap3\n      dup5\n      swap3\n      0x44\n      swap3\n      dup5\n      swap3\n      and\n        /* \"contracts/modules/SponsorMatrix.sol\":9587:9626  usdt.transfer(sponsor.account, _amount) */\n      gas\n      call\n      dup1\n      iszero\n      tag_90\n      jumpi\n      tag_410\n      jumpi\n        /* \"contracts/modules/SponsorMatrix.sol\":9034:10266  function _distributeSponsorIncome(uint _sponsorId, uint _fromId, uint _amount, uint _packageLevel) private {... */\n    tag_411:\n        /* \"contracts/modules/SponsorMatrix.sol\":122:18741  contract Nanakshahi is Storage{... */\n      pop\n      dup1\n        /* \"contracts/modules/SponsorMatrix.sol\":9170:9171  0 */\n      0x00\n        /* \"contracts/modules/SponsorMatrix.sol\":122:18741  contract Nanakshahi is Storage{... */\n      mstore\n        /* \"contracts/modules/SponsorMatrix.sol\":9728:9739  userIncomes */\n      0x2c\n        /* \"contracts/modules/SponsorMatrix.sol\":122:18741  contract Nanakshahi is Storage{... */\n      0x20\n      mstore\n        /* \"contracts/modules/SponsorMatrix.sol\":651:652  1 */\n      0x01\n        /* \"contracts/modules/SponsorMatrix.sol\":122:18741  contract Nanakshahi is Storage{... */\n      0x40\n        /* \"contracts/modules/SponsorMatrix.sol\":9170:9171  0 */\n      0x00\n        /* \"contracts/modules/SponsorMatrix.sol\":122:18741  contract Nanakshahi is Storage{... */\n      keccak256\n        /* \"contracts/modules/SponsorMatrix.sol\":9762:9798  sponsorIncome.totalIncome += _amount */\n      tag_412\n        /* \"contracts/modules/SponsorMatrix.sol\":122:18741  contract Nanakshahi is Storage{... */\n      dup7\n      dup3\n      sload\n        /* \"contracts/modules/SponsorMatrix.sol\":9762:9798  sponsorIncome.totalIncome += _amount */\n      tag_13\n      jump\t// in\n    tag_412:\n        /* \"contracts/modules/SponsorMatrix.sol\":122:18741  contract Nanakshahi is Storage{... */\n      dup2\n      sstore\n        /* \"contracts/modules/SponsorMatrix.sol\":9809:9836  sponsorIncome.sponsorIncome */\n      add\n        /* \"contracts/modules/SponsorMatrix.sol\":9809:9847  sponsorIncome.sponsorIncome += _amount */\n      tag_413\n        /* \"contracts/modules/SponsorMatrix.sol\":122:18741  contract Nanakshahi is Storage{... */\n      dup6\n      dup3\n      sload\n        /* \"contracts/modules/SponsorMatrix.sol\":9809:9847  sponsorIncome.sponsorIncome += _amount */\n      tag_13\n      jump\t// in\n    tag_413:\n        /* \"contracts/modules/SponsorMatrix.sol\":122:18741  contract Nanakshahi is Storage{... */\n      swap1\n      sstore\n        /* \"contracts/modules/SponsorMatrix.sol\":9170:9171  0 */\n      0x00\n        /* \"contracts/modules/SponsorMatrix.sol\":122:18741  contract Nanakshahi is Storage{... */\n      mstore\n        /* \"contracts/modules/SponsorMatrix.sol\":9894:9907  incomeHistory */\n      0x2d\n        /* \"contracts/modules/SponsorMatrix.sol\":122:18741  contract Nanakshahi is Storage{... */\n      0x20\n      mstore\n        /* \"contracts/modules/SponsorMatrix.sol\":9894:10138  incomeHistory[_sponsorId].push(Income({... */\n      tag_414\n        /* \"contracts/modules/SponsorMatrix.sol\":122:18741  contract Nanakshahi is Storage{... */\n      0x40\n        /* \"contracts/modules/SponsorMatrix.sol\":9170:9171  0 */\n      0x00\n        /* \"contracts/modules/SponsorMatrix.sol\":122:18741  contract Nanakshahi is Storage{... */\n      keccak256\n      mload(0x40)\n      swap1\n      tag_415\n      dup3\n      tag_9\n      jump\t// in\n    tag_415:\n      dup5\n      dup3\n      mstore\n        /* \"contracts/modules/SponsorMatrix.sol\":9925:10137  Income({... */\n      dup6\n        /* \"contracts/modules/SponsorMatrix.sol\":122:18741  contract Nanakshahi is Storage{... */\n      0x20\n        /* \"contracts/modules/SponsorMatrix.sol\":9925:10137  Income({... */\n      dup4\n      add\n        /* \"contracts/modules/SponsorMatrix.sol\":122:18741  contract Nanakshahi is Storage{... */\n      mstore\n        /* \"contracts/modules/SponsorMatrix.sol\":651:652  1 */\n      0x01\n        /* \"contracts/modules/SponsorMatrix.sol\":122:18741  contract Nanakshahi is Storage{... */\n      0x40\n        /* \"contracts/modules/SponsorMatrix.sol\":9925:10137  Income({... */\n      dup4\n      add\n        /* \"contracts/modules/SponsorMatrix.sol\":122:18741  contract Nanakshahi is Storage{... */\n      mstore\n        /* \"contracts/modules/SponsorMatrix.sol\":10064:10079  block.timestamp */\n      timestamp\n        /* \"contracts/modules/SponsorMatrix.sol\":9925:10137  Income({... */\n      0x60\n      dup4\n      add\n        /* \"contracts/modules/SponsorMatrix.sol\":122:18741  contract Nanakshahi is Storage{... */\n      mstore\n        /* \"contracts/modules/SponsorMatrix.sol\":651:652  1 */\n      0x01\n        /* \"contracts/modules/SponsorMatrix.sol\":9925:10137  Income({... */\n      0x80\n      dup4\n      add\n        /* \"contracts/modules/SponsorMatrix.sol\":122:18741  contract Nanakshahi is Storage{... */\n      mstore\n        /* \"contracts/modules/SponsorMatrix.sol\":9894:10138  incomeHistory[_sponsorId].push(Income({... */\n      tag_16\n      jump\t// in\n    tag_414:\n        /* \"contracts/modules/SponsorMatrix.sol\":122:18741  contract Nanakshahi is Storage{... */\n      0x01\n      dup1\n      0xa0\n      shl\n      sub\n      swap1\n      sload\n      and\n      swap1\n        /* \"contracts/modules/SponsorMatrix.sol\":9170:9171  0 */\n      0x00\n        /* \"contracts/modules/SponsorMatrix.sol\":122:18741  contract Nanakshahi is Storage{... */\n      mstore\n        /* \"contracts/modules/SponsorMatrix.sol\":9317:9322  users */\n      0x2b\n        /* \"contracts/modules/SponsorMatrix.sol\":122:18741  contract Nanakshahi is Storage{... */\n      0x20\n      mstore\n      mload(0x00)\n      codecopy(0x00, data_51678340555b44277c2bba9423d75ebead61331b9cde789c13d0820d4f537e29, 0x20)\n      mload(0x00)\n      swap1\n      0x00\n      mstore\n        /* \"contracts/modules/SponsorMatrix.sol\":9925:10137  Income({... */\n      0x60\n        /* \"contracts/modules/SponsorMatrix.sol\":122:18741  contract Nanakshahi is Storage{... */\n      0x01\n      dup1\n      0xa0\n      shl\n      sub\n      0x40\n        /* \"contracts/modules/SponsorMatrix.sol\":9170:9171  0 */\n      0x00\n        /* \"contracts/modules/SponsorMatrix.sol\":122:18741  contract Nanakshahi is Storage{... */\n      keccak256\n      sload\n      and\n      swap4\n      mload(0x40)\n      swap1\n      dup2\n      mstore\n        /* \"contracts/modules/SponsorMatrix.sol\":651:652  1 */\n      0x01\n        /* \"contracts/modules/SponsorMatrix.sol\":122:18741  contract Nanakshahi is Storage{... */\n      0x20\n      dup3\n      add\n      mstore\n        /* \"contracts/modules/SponsorMatrix.sol\":651:652  1 */\n      0x01\n        /* \"contracts/modules/SponsorMatrix.sol\":122:18741  contract Nanakshahi is Storage{... */\n      0x40\n      dup3\n      add\n      mstore\n        /* \"contracts/modules/SponsorMatrix.sol\":10164:10249  IncomeDistributed(sponsor.account, users[_fromId].account, _amount, _packageLevel, 1) */\n      log3\n        /* \"contracts/modules/SponsorMatrix.sol\":9034:10266  function _distributeSponsorIncome(uint _sponsorId, uint _fromId, uint _amount, uint _packageLevel) private {... */\n      jump\t// out\n        /* \"contracts/modules/SponsorMatrix.sol\":9587:9626  usdt.transfer(sponsor.account, _amount) */\n    tag_410:\n      tag_416\n      swap1\n        /* \"contracts/modules/SponsorMatrix.sol\":122:18741  contract Nanakshahi is Storage{... */\n      0x20\n        /* \"contracts/modules/SponsorMatrix.sol\":9587:9626  usdt.transfer(sponsor.account, _amount) */\n      returndatasize\n        /* \"contracts/modules/SponsorMatrix.sol\":122:18741  contract Nanakshahi is Storage{... */\n      0x20\n        /* \"contracts/modules/SponsorMatrix.sol\":9587:9626  usdt.transfer(sponsor.account, _amount) */\n      gt\n      tag_155\n      jumpi\n      tag_157\n      dup2\n      dup4\n      tag_10\n      jump\t// in\n    tag_416:\n      jump(tag_411)\n        /* \"contracts/modules/SponsorMatrix.sol\":9152:9274  if (_sponsorId == 0 || _sponsorId == defaultRefId) {... */\n    tag_405:\n        /* \"contracts/modules/SponsorMatrix.sol\":9233:9240  _amount */\n      pop\n      pop\n      tag_349\n      swap1\n      tag_22\n      jump\t// in\n        /* \"contracts/modules/SponsorMatrix.sol\":9156:9201  _sponsorId == 0 || _sponsorId == defaultRefId */\n    tag_403:\n        /* \"contracts/modules/SponsorMatrix.sol\":122:18741  contract Nanakshahi is Storage{... */\n      pop\n        /* \"contracts/modules/SponsorMatrix.sol\":9189:9201  defaultRefId */\n      0x04\n        /* \"contracts/modules/SponsorMatrix.sol\":122:18741  contract Nanakshahi is Storage{... */\n      sload\n        /* \"contracts/modules/SponsorMatrix.sol\":9175:9201  _sponsorId == defaultRefId */\n      dup2\n      eq\n        /* \"contracts/modules/SponsorMatrix.sol\":9156:9201  _sponsorId == 0 || _sponsorId == defaultRefId */\n      jump(tag_404)\n        /* \"contracts/modules/SponsorMatrix.sol\":9034:10266  function _distributeSponsorIncome(uint _sponsorId, uint _fromId, uint _amount, uint _packageLevel) private {... */\n    tag_24:\n      swap1\n      swap2\n        /* \"contracts/modules/SponsorMatrix.sol\":9156:9171  _sponsorId == 0 */\n      dup2\n      iszero\n        /* \"contracts/modules/SponsorMatrix.sol\":9156:9201  _sponsorId == 0 || _sponsorId == defaultRefId */\n      dup1\n      iszero\n      tag_421\n      jumpi\n        /* \"contracts/modules/SponsorMatrix.sol\":9034:10266  function _distributeSponsorIncome(uint _sponsorId, uint _fromId, uint _amount, uint _packageLevel) private {... */\n    tag_422:\n        /* \"contracts/modules/SponsorMatrix.sol\":9152:9274  if (_sponsorId == 0 || _sponsorId == defaultRefId) {... */\n      tag_423\n      jumpi\n        /* \"contracts/modules/SponsorMatrix.sol\":9170:9171  0 */\n      0x00\n        /* \"contracts/modules/SponsorMatrix.sol\":122:18741  contract Nanakshahi is Storage{... */\n      dup3\n      dup2\n      mstore\n        /* \"contracts/modules/SponsorMatrix.sol\":9317:9322  users */\n      0x2b\n        /* \"contracts/modules/SponsorMatrix.sol\":122:18741  contract Nanakshahi is Storage{... */\n      0x20\n      swap1\n      dup2\n      mstore\n      0x40\n      dup1\n      dup4\n      keccak256\n      dup4\n      sload\n      dup2\n      sload\n      swap3\n      mload\n      shl(0xe0, 0xa9059cbb)\n        /* \"contracts/modules/SponsorMatrix.sol\":9587:9626  usdt.transfer(sponsor.account, _amount) */\n      dup2\n      mstore\n      sub(shl(0xa0, 0x01), 0x01)\n        /* \"contracts/modules/SponsorMatrix.sol\":122:18741  contract Nanakshahi is Storage{... */\n      swap4\n      dup5\n      and\n        /* \"contracts/modules/SponsorMatrix.sol\":9587:9626  usdt.transfer(sponsor.account, _amount) */\n      0x04\n      dup3\n      add\n        /* \"contracts/modules/SponsorMatrix.sol\":122:18741  contract Nanakshahi is Storage{... */\n      mstore\n      0x24\n      dup2\n      add\n      dup8\n      swap1\n      mstore\n      swap7\n      swap6\n      swap5\n      swap2\n      swap4\n      swap3\n      dup8\n      swap3\n      0x44\n      swap3\n      dup5\n      swap3\n      and\n        /* \"contracts/modules/SponsorMatrix.sol\":9587:9626  usdt.transfer(sponsor.account, _amount) */\n      gas\n      call\n      swap3\n      dup4\n      iszero\n      tag_90\n      jumpi\n      mload(0x00)\n      codecopy(0x00, data_51678340555b44277c2bba9423d75ebead61331b9cde789c13d0820d4f537e29, 0x20)\n      mload(0x00)\n      swap1\n      0x00\n      mstore\n      swap5\n        /* \"contracts/modules/SponsorMatrix.sol\":9925:10137  Income({... */\n      0x60\n        /* \"contracts/modules/SponsorMatrix.sol\":9587:9626  usdt.transfer(sponsor.account, _amount) */\n      swap5\n      tag_428\n      jumpi\n        /* \"contracts/modules/SponsorMatrix.sol\":9034:10266  function _distributeSponsorIncome(uint _sponsorId, uint _fromId, uint _amount, uint _packageLevel) private {... */\n    tag_429:\n        /* \"contracts/modules/SponsorMatrix.sol\":122:18741  contract Nanakshahi is Storage{... */\n      pop\n      dup1\n        /* \"contracts/modules/SponsorMatrix.sol\":9170:9171  0 */\n      0x00\n        /* \"contracts/modules/SponsorMatrix.sol\":122:18741  contract Nanakshahi is Storage{... */\n      mstore\n        /* \"contracts/modules/SponsorMatrix.sol\":9728:9739  userIncomes */\n      0x2c\n        /* \"contracts/modules/SponsorMatrix.sol\":122:18741  contract Nanakshahi is Storage{... */\n      0x20\n      mstore\n        /* \"contracts/modules/SponsorMatrix.sol\":9809:9836  sponsorIncome.sponsorIncome */\n      0x01\n        /* \"contracts/modules/SponsorMatrix.sol\":122:18741  contract Nanakshahi is Storage{... */\n      0x40\n        /* \"contracts/modules/SponsorMatrix.sol\":9170:9171  0 */\n      0x00\n        /* \"contracts/modules/SponsorMatrix.sol\":122:18741  contract Nanakshahi is Storage{... */\n      keccak256\n        /* \"contracts/modules/SponsorMatrix.sol\":9762:9798  sponsorIncome.totalIncome += _amount */\n      tag_430\n        /* \"contracts/modules/SponsorMatrix.sol\":122:18741  contract Nanakshahi is Storage{... */\n      dup6\n      dup3\n      sload\n        /* \"contracts/modules/SponsorMatrix.sol\":9762:9798  sponsorIncome.totalIncome += _amount */\n      tag_13\n      jump\t// in\n    tag_430:\n        /* \"contracts/modules/SponsorMatrix.sol\":122:18741  contract Nanakshahi is Storage{... */\n      dup2\n      sstore\n        /* \"contracts/modules/SponsorMatrix.sol\":9809:9836  sponsorIncome.sponsorIncome */\n      add\n        /* \"contracts/modules/SponsorMatrix.sol\":9809:9847  sponsorIncome.sponsorIncome += _amount */\n      tag_431\n        /* \"contracts/modules/SponsorMatrix.sol\":122:18741  contract Nanakshahi is Storage{... */\n      dup5\n      dup3\n      sload\n        /* \"contracts/modules/SponsorMatrix.sol\":9809:9847  sponsorIncome.sponsorIncome += _amount */\n      tag_13\n      jump\t// in\n    tag_431:\n        /* \"contracts/modules/SponsorMatrix.sol\":122:18741  contract Nanakshahi is Storage{... */\n      swap1\n      sstore\n        /* \"contracts/modules/SponsorMatrix.sol\":9170:9171  0 */\n      0x00\n        /* \"contracts/modules/SponsorMatrix.sol\":122:18741  contract Nanakshahi is Storage{... */\n      mstore\n        /* \"contracts/modules/SponsorMatrix.sol\":9894:9907  incomeHistory */\n      0x2d\n        /* \"contracts/modules/SponsorMatrix.sol\":122:18741  contract Nanakshahi is Storage{... */\n      0x20\n      mstore\n        /* \"contracts/modules/SponsorMatrix.sol\":9894:10138  incomeHistory[_sponsorId].push(Income({... */\n      tag_432\n        /* \"contracts/modules/SponsorMatrix.sol\":122:18741  contract Nanakshahi is Storage{... */\n      0x40\n        /* \"contracts/modules/SponsorMatrix.sol\":9170:9171  0 */\n      0x00\n        /* \"contracts/modules/SponsorMatrix.sol\":122:18741  contract Nanakshahi is Storage{... */\n      keccak256\n      mload(0x40)\n      swap1\n      tag_433\n      dup3\n      tag_9\n      jump\t// in\n    tag_433:\n      dup8\n      dup3\n      mstore\n        /* \"contracts/modules/SponsorMatrix.sol\":9925:10137  Income({... */\n      dup5\n        /* \"contracts/modules/SponsorMatrix.sol\":122:18741  contract Nanakshahi is Storage{... */\n      0x20\n        /* \"contracts/modules/SponsorMatrix.sol\":9925:10137  Income({... */\n      dup4\n      add\n        /* \"contracts/modules/SponsorMatrix.sol\":122:18741  contract Nanakshahi is Storage{... */\n      mstore\n        /* \"contracts/modules/SponsorMatrix.sol\":9925:10137  Income({... */\n      dup9\n        /* \"contracts/modules/SponsorMatrix.sol\":122:18741  contract Nanakshahi is Storage{... */\n      0x40\n        /* \"contracts/modules/SponsorMatrix.sol\":9925:10137  Income({... */\n      dup4\n      add\n        /* \"contracts/modules/SponsorMatrix.sol\":122:18741  contract Nanakshahi is Storage{... */\n      mstore\n        /* \"contracts/modules/SponsorMatrix.sol\":10064:10079  block.timestamp */\n      timestamp\n        /* \"contracts/modules/SponsorMatrix.sol\":9925:10137  Income({... */\n      dup7\n      dup4\n      add\n        /* \"contracts/modules/SponsorMatrix.sol\":122:18741  contract Nanakshahi is Storage{... */\n      mstore\n        /* \"contracts/modules/SponsorMatrix.sol\":9809:9836  sponsorIncome.sponsorIncome */\n      0x01\n        /* \"contracts/modules/SponsorMatrix.sol\":9925:10137  Income({... */\n      0x80\n      dup4\n      add\n        /* \"contracts/modules/SponsorMatrix.sol\":122:18741  contract Nanakshahi is Storage{... */\n      mstore\n        /* \"contracts/modules/SponsorMatrix.sol\":9894:10138  incomeHistory[_sponsorId].push(Income({... */\n      tag_16\n      jump\t// in\n    tag_432:\n        /* \"contracts/modules/SponsorMatrix.sol\":122:18741  contract Nanakshahi is Storage{... */\n      0x01\n      dup1\n      0xa0\n      shl\n      sub\n      swap1\n      sload\n      and\n      swap4\n        /* \"contracts/modules/SponsorMatrix.sol\":9170:9171  0 */\n      0x00\n        /* \"contracts/modules/SponsorMatrix.sol\":122:18741  contract Nanakshahi is Storage{... */\n      mstore\n        /* \"contracts/modules/SponsorMatrix.sol\":9317:9322  users */\n      0x2b\n        /* \"contracts/modules/SponsorMatrix.sol\":122:18741  contract Nanakshahi is Storage{... */\n      0x20\n      mstore\n      0x01\n      dup1\n      0xa0\n      shl\n      sub\n      0x40\n        /* \"contracts/modules/SponsorMatrix.sol\":9170:9171  0 */\n      0x00\n        /* \"contracts/modules/SponsorMatrix.sol\":122:18741  contract Nanakshahi is Storage{... */\n      keccak256\n      sload\n      and\n      swap5\n      mload(0x40)\n      swap2\n      dup3\n      mstore\n      0x20\n      dup3\n      add\n      mstore\n        /* \"contracts/modules/SponsorMatrix.sol\":9809:9836  sponsorIncome.sponsorIncome */\n      0x01\n        /* \"contracts/modules/SponsorMatrix.sol\":122:18741  contract Nanakshahi is Storage{... */\n      0x40\n      dup3\n      add\n      mstore\n        /* \"contracts/modules/SponsorMatrix.sol\":10164:10249  IncomeDistributed(sponsor.account, users[_fromId].account, _amount, _packageLevel, 1) */\n      log3\n        /* \"contracts/modules/SponsorMatrix.sol\":9034:10266  function _distributeSponsorIncome(uint _sponsorId, uint _fromId, uint _amount, uint _packageLevel) private {... */\n      jump\t// out\n        /* \"contracts/modules/SponsorMatrix.sol\":9587:9626  usdt.transfer(sponsor.account, _amount) */\n    tag_428:\n      tag_434\n      swap1\n        /* \"contracts/modules/SponsorMatrix.sol\":122:18741  contract Nanakshahi is Storage{... */\n      0x20\n        /* \"contracts/modules/SponsorMatrix.sol\":9587:9626  usdt.transfer(sponsor.account, _amount) */\n      returndatasize\n        /* \"contracts/modules/SponsorMatrix.sol\":122:18741  contract Nanakshahi is Storage{... */\n      0x20\n        /* \"contracts/modules/SponsorMatrix.sol\":9587:9626  usdt.transfer(sponsor.account, _amount) */\n      gt\n      tag_155\n      jumpi\n      tag_157\n      dup2\n      dup4\n      tag_10\n      jump\t// in\n    tag_434:\n      jump(tag_429)\n        /* \"contracts/modules/SponsorMatrix.sol\":9152:9274  if (_sponsorId == 0 || _sponsorId == defaultRefId) {... */\n    tag_423:\n        /* \"contracts/modules/SponsorMatrix.sol\":9233:9240  _amount */\n      swap2\n      pop\n      pop\n      tag_349\n      swap2\n      pop\n      tag_22\n      jump\t// in\n        /* \"contracts/modules/SponsorMatrix.sol\":9156:9201  _sponsorId == 0 || _sponsorId == defaultRefId */\n    tag_421:\n        /* \"contracts/modules/SponsorMatrix.sol\":122:18741  contract Nanakshahi is Storage{... */\n      pop\n        /* \"contracts/modules/SponsorMatrix.sol\":9189:9201  defaultRefId */\n      0x04\n        /* \"contracts/modules/SponsorMatrix.sol\":122:18741  contract Nanakshahi is Storage{... */\n      sload\n        /* \"contracts/modules/SponsorMatrix.sol\":9175:9201  _sponsorId == defaultRefId */\n      dup3\n      eq\n        /* \"contracts/modules/SponsorMatrix.sol\":9156:9201  _sponsorId == 0 || _sponsorId == defaultRefId */\n      jump(tag_422)\n        /* \"contracts/modules/Storage.sol\":384:386  15 */\n    tag_25:\n      not(0x00)\n      dup2\n      eq\n      tag_120\n      jumpi\n      0x01\n      add\n      swap1\n      jump\t// out\n        /* \"contracts/modules/SponsorMatrix.sol\":10280:12361  function _distributeMatrixIncome(uint _uplineId,uint _fromId,uint _amount, uint _packageLevel) private {... */\n    tag_26:\n      swap4\n      swap2\n      swap4\n      swap3\n      swap1\n      swap3\n        /* \"contracts/modules/SponsorMatrix.sol\":10579:10591  defaultRefId */\n      0x04\n        /* \"contracts/modules/SponsorMatrix.sol\":122:18741  contract Nanakshahi is Storage{... */\n      sload\n        /* \"contracts/modules/SponsorMatrix.sol\":10566:10591  _uplineId == defaultRefId */\n      dup2\n      eq\n        /* \"contracts/modules/SponsorMatrix.sol\":10566:10609  _uplineId == defaultRefId || _uplineId == 0 */\n      dup1\n      iszero\n      tag_441\n      jumpi\n        /* \"contracts/modules/SponsorMatrix.sol\":10280:12361  function _distributeMatrixIncome(uint _uplineId,uint _fromId,uint _amount, uint _packageLevel) private {... */\n    tag_442:\n        /* \"contracts/modules/SponsorMatrix.sol\":10563:10691  if(_uplineId == defaultRefId || _uplineId == 0)... */\n      tag_443\n      jumpi\n        /* \"contracts/modules/SponsorMatrix.sol\":10758:10759  1 */\n      0x01\n        /* \"contracts/modules/SponsorMatrix.sol\":10761:10778  i < _packageLevel */\n    tag_445:\n      dup3\n      dup2\n      lt\n      tag_446\n      jumpi\n        /* \"contracts/modules/SponsorMatrix.sol\":11047:11072  uint currentId = targetId */\n      pop\n        /* \"contracts/modules/SponsorMatrix.sol\":11083:11097  uint layer = 0 */\n      swap3\n      0x00\n        /* \"contracts/modules/SponsorMatrix.sol\":11108:12246  while (currentId != 0 && currentId != defaultRefId && layer < maxLayers) {... */\n      swap4\n    tag_448:\n        /* \"contracts/modules/SponsorMatrix.sol\":11115:11129  currentId != 0 */\n      dup1\n      iszero\n      iszero\n        /* \"contracts/modules/SponsorMatrix.sol\":11115:11158  currentId != 0 && currentId != defaultRefId */\n      dup1\n      tag_449\n      jumpi\n        /* \"contracts/modules/SponsorMatrix.sol\":11108:12246  while (currentId != 0 && currentId != defaultRefId && layer < maxLayers) {... */\n    tag_450:\n        /* \"contracts/modules/SponsorMatrix.sol\":11115:11179  currentId != 0 && currentId != defaultRefId && layer < maxLayers */\n      dup1\n      tag_451\n      jumpi\n        /* \"contracts/modules/SponsorMatrix.sol\":11108:12246  while (currentId != 0 && currentId != defaultRefId && layer < maxLayers) {... */\n    tag_452:\n        /* \"contracts/modules/SponsorMatrix.sol\":11115:11179  currentId != 0 && currentId != defaultRefId && layer < maxLayers */\n      iszero\n      tag_453\n      jumpi\n        /* \"contracts/modules/SponsorMatrix.sol\":122:18741  contract Nanakshahi is Storage{... */\n      dup1\n      0x00\n      mstore\n        /* \"contracts/modules/SponsorMatrix.sol\":10811:10816  users */\n      0x2b\n        /* \"contracts/modules/SponsorMatrix.sol\":122:18741  contract Nanakshahi is Storage{... */\n      0x20\n      mstore\n      keccak256(0x00, 0x40)\n        /* \"contracts/modules/SponsorMatrix.sol\":11328:11336  up.level */\n      swap1\n      dup4\n      0x06\n      dup4\n      add\n        /* \"contracts/modules/SponsorMatrix.sol\":122:18741  contract Nanakshahi is Storage{... */\n      sload\n        /* \"contracts/modules/SponsorMatrix.sol\":11328:11353  up.level >= _packageLevel */\n      lt\n      iszero\n        /* \"contracts/modules/SponsorMatrix.sol\":11324:12125  if (up.level >= _packageLevel) // up.directTeam >= 2 && ... */\n      tag_455\n      jumpi\n        /* \"contracts/modules/SponsorMatrix.sol\":12201:12212  up.uplineId */\n      pop\n        /* \"contracts/modules/SponsorMatrix.sol\":10811:10835  users[targetId].uplineId */\n      0x05\n        /* \"contracts/modules/SponsorMatrix.sol\":12227:12234  layer++ */\n      tag_457\n        /* \"contracts/modules/SponsorMatrix.sol\":12201:12212  up.uplineId */\n      swap2\n      add\n        /* \"contracts/modules/SponsorMatrix.sol\":122:18741  contract Nanakshahi is Storage{... */\n      sload\n        /* \"contracts/modules/SponsorMatrix.sol\":12227:12234  layer++ */\n      swap5\n      tag_25\n      jump\t// in\n    tag_457:\n        /* \"contracts/modules/SponsorMatrix.sol\":11108:12246  while (currentId != 0 && currentId != defaultRefId && layer < maxLayers) {... */\n      swap4\n      jump(tag_448)\n        /* \"contracts/modules/SponsorMatrix.sol\":11324:12125  if (up.level >= _packageLevel) // up.directTeam >= 2 && ... */\n    tag_455:\n      0x00\n        /* \"contracts/modules/SponsorMatrix.sol\":122:18741  contract Nanakshahi is Storage{... */\n      dup1\n      sload\n      dup4\n      sload\n      mload(0x40)\n      shl(0xe0, 0xa9059cbb)\n        /* \"contracts/modules/SponsorMatrix.sol\":11474:11508  usdt.transfer(up.account, _amount) */\n      dup2\n      mstore\n      sub(shl(0xa0, 0x01), 0x01)\n        /* \"contracts/modules/SponsorMatrix.sol\":122:18741  contract Nanakshahi is Storage{... */\n      swap2\n      dup3\n      and\n        /* \"contracts/modules/SponsorMatrix.sol\":10579:10591  defaultRefId */\n      0x04\n        /* \"contracts/modules/SponsorMatrix.sol\":11474:11508  usdt.transfer(up.account, _amount) */\n      dup3\n      add\n        /* \"contracts/modules/SponsorMatrix.sol\":122:18741  contract Nanakshahi is Storage{... */\n      mstore\n      0x24\n      dup2\n      add\n      dup12\n      swap1\n      mstore\n      swap8\n      swap10\n      swap7\n      swap9\n      pop\n      swap5\n      swap7\n      swap6\n      swap3\n      swap5\n      swap3\n      swap4\n      swap3\n      0x20\n      swap3\n      dup8\n      swap3\n      0x44\n      swap3\n      dup5\n      swap3\n      swap2\n      and\n        /* \"contracts/modules/SponsorMatrix.sol\":11474:11508  usdt.transfer(up.account, _amount) */\n      gas\n      call\n      swap3\n      dup4\n      iszero\n      tag_90\n      jumpi\n      mload(0x00)\n      codecopy(0x00, data_51678340555b44277c2bba9423d75ebead61331b9cde789c13d0820d4f537e29, 0x20)\n      mload(0x00)\n      swap1\n      0x00\n      mstore\n      swap5\n        /* \"contracts/modules/SponsorMatrix.sol\":11718:11977  Income({... */\n      0x60\n        /* \"contracts/modules/SponsorMatrix.sol\":11474:11508  usdt.transfer(up.account, _amount) */\n      swap5\n      tag_461\n      jumpi\n        /* \"contracts/modules/SponsorMatrix.sol\":11324:12125  if (up.level >= _packageLevel) // up.directTeam >= 2 && ... */\n    tag_462:\n        /* \"contracts/modules/SponsorMatrix.sol\":122:18741  contract Nanakshahi is Storage{... */\n      pop\n      dup1\n      0x00\n      mstore\n        /* \"contracts/modules/SponsorMatrix.sol\":11554:11565  userIncomes */\n      0x2c\n        /* \"contracts/modules/SponsorMatrix.sol\":122:18741  contract Nanakshahi is Storage{... */\n      0x20\n      mstore\n        /* \"contracts/modules/SponsorMatrix.sol\":11640:11656  inc.matrixIncome */\n      0x02\n        /* \"contracts/modules/SponsorMatrix.sol\":122:18741  contract Nanakshahi is Storage{... */\n      keccak256(0x00, 0x40)\n        /* \"contracts/modules/SponsorMatrix.sol\":11595:11621  inc.totalIncome += _amount */\n      tag_463\n        /* \"contracts/modules/SponsorMatrix.sol\":122:18741  contract Nanakshahi is Storage{... */\n      dup6\n      dup3\n      sload\n        /* \"contracts/modules/SponsorMatrix.sol\":11595:11621  inc.totalIncome += _amount */\n      tag_13\n      jump\t// in\n    tag_463:\n        /* \"contracts/modules/SponsorMatrix.sol\":122:18741  contract Nanakshahi is Storage{... */\n      dup2\n      sstore\n        /* \"contracts/modules/SponsorMatrix.sol\":11640:11656  inc.matrixIncome */\n      add\n        /* \"contracts/modules/SponsorMatrix.sol\":11640:11667  inc.matrixIncome += _amount */\n      tag_464\n        /* \"contracts/modules/SponsorMatrix.sol\":122:18741  contract Nanakshahi is Storage{... */\n      dup5\n      dup3\n      sload\n        /* \"contracts/modules/SponsorMatrix.sol\":11640:11667  inc.matrixIncome += _amount */\n      tag_13\n      jump\t// in\n    tag_464:\n        /* \"contracts/modules/SponsorMatrix.sol\":122:18741  contract Nanakshahi is Storage{... */\n      swap1\n      sstore\n      0x00\n      mstore\n        /* \"contracts/modules/SponsorMatrix.sol\":11688:11701  incomeHistory */\n      0x2d\n        /* \"contracts/modules/SponsorMatrix.sol\":122:18741  contract Nanakshahi is Storage{... */\n      0x20\n      mstore\n        /* \"contracts/modules/SponsorMatrix.sol\":11688:11978  incomeHistory[currentId].push(Income({... */\n      tag_465\n        /* \"contracts/modules/SponsorMatrix.sol\":122:18741  contract Nanakshahi is Storage{... */\n      keccak256(0x00, 0x40)\n      mload(0x40)\n      swap1\n      tag_466\n      dup3\n      tag_9\n      jump\t// in\n    tag_466:\n      dup8\n      dup3\n      mstore\n        /* \"contracts/modules/SponsorMatrix.sol\":11718:11977  Income({... */\n      dup5\n        /* \"contracts/modules/SponsorMatrix.sol\":122:18741  contract Nanakshahi is Storage{... */\n      0x20\n        /* \"contracts/modules/SponsorMatrix.sol\":11718:11977  Income({... */\n      dup4\n      add\n        /* \"contracts/modules/SponsorMatrix.sol\":122:18741  contract Nanakshahi is Storage{... */\n      mstore\n        /* \"contracts/modules/SponsorMatrix.sol\":11718:11977  Income({... */\n      dup9\n        /* \"contracts/modules/SponsorMatrix.sol\":122:18741  contract Nanakshahi is Storage{... */\n      0x40\n        /* \"contracts/modules/SponsorMatrix.sol\":11718:11977  Income({... */\n      dup4\n      add\n        /* \"contracts/modules/SponsorMatrix.sol\":122:18741  contract Nanakshahi is Storage{... */\n      mstore\n        /* \"contracts/modules/SponsorMatrix.sol\":11889:11904  block.timestamp */\n      timestamp\n        /* \"contracts/modules/SponsorMatrix.sol\":11718:11977  Income({... */\n      dup7\n      dup4\n      add\n        /* \"contracts/modules/SponsorMatrix.sol\":122:18741  contract Nanakshahi is Storage{... */\n      mstore\n        /* \"contracts/modules/SponsorMatrix.sol\":11640:11656  inc.matrixIncome */\n      0x02\n        /* \"contracts/modules/SponsorMatrix.sol\":11718:11977  Income({... */\n      0x80\n      dup4\n      add\n        /* \"contracts/modules/SponsorMatrix.sol\":122:18741  contract Nanakshahi is Storage{... */\n      mstore\n        /* \"contracts/modules/SponsorMatrix.sol\":11688:11978  incomeHistory[currentId].push(Income({... */\n      tag_16\n      jump\t// in\n    tag_465:\n        /* \"contracts/modules/SponsorMatrix.sol\":122:18741  contract Nanakshahi is Storage{... */\n      0x01\n      dup1\n      0xa0\n      shl\n      sub\n      swap1\n      sload\n      and\n      swap4\n      0x00\n      mstore\n        /* \"contracts/modules/SponsorMatrix.sol\":10811:10816  users */\n      0x2b\n        /* \"contracts/modules/SponsorMatrix.sol\":122:18741  contract Nanakshahi is Storage{... */\n      0x20\n      mstore\n      0x01\n      dup1\n      0xa0\n      shl\n      sub\n      sload(keccak256(0x00, 0x40))\n      and\n      swap5\n      mload(0x40)\n      swap2\n      dup3\n      mstore\n      0x20\n        /* \"contracts/modules/Storage.sol\":384:386  15 */\n      dup3\n      add\n        /* \"contracts/modules/SponsorMatrix.sol\":122:18741  contract Nanakshahi is Storage{... */\n      mstore\n        /* \"contracts/modules/SponsorMatrix.sol\":11640:11656  inc.matrixIncome */\n      0x02\n        /* \"contracts/modules/SponsorMatrix.sol\":122:18741  contract Nanakshahi is Storage{... */\n      0x40\n        /* \"contracts/modules/Storage.sol\":384:386  15 */\n      dup3\n      add\n        /* \"contracts/modules/SponsorMatrix.sol\":122:18741  contract Nanakshahi is Storage{... */\n      mstore\n        /* \"contracts/modules/SponsorMatrix.sol\":12004:12084  IncomeDistributed(up.account, users[_fromId].account, _amount, _packageLevel, 2) */\n      log3\n        /* \"contracts/modules/SponsorMatrix.sol\":12103:12110  return; */\n      jump\t// out\n        /* \"contracts/modules/SponsorMatrix.sol\":11474:11508  usdt.transfer(up.account, _amount) */\n    tag_461:\n      tag_467\n      swap1\n        /* \"contracts/modules/SponsorMatrix.sol\":122:18741  contract Nanakshahi is Storage{... */\n      0x20\n        /* \"contracts/modules/SponsorMatrix.sol\":11474:11508  usdt.transfer(up.account, _amount) */\n      returndatasize\n      dup2\n      gt\n      tag_155\n      jumpi\n      tag_157\n      dup2\n      dup4\n      tag_10\n      jump\t// in\n    tag_467:\n      jump(tag_462)\n        /* \"contracts/modules/SponsorMatrix.sol\":11115:11179  currentId != 0 && currentId != defaultRefId && layer < maxLayers */\n    tag_453:\n      pop\n      pop\n      pop\n      swap2\n        /* \"contracts/modules/SponsorMatrix.sol\":12345:12352  _amount */\n      tag_349\n        /* \"contracts/modules/SponsorMatrix.sol\":11115:11179  currentId != 0 && currentId != defaultRefId && layer < maxLayers */\n      swap2\n      pop\n        /* \"contracts/modules/SponsorMatrix.sol\":12345:12352  _amount */\n      tag_22\n      jump\t// in\n        /* \"contracts/modules/SponsorMatrix.sol\":11115:11179  currentId != 0 && currentId != defaultRefId && layer < maxLayers */\n    tag_451:\n        /* \"contracts/modules/SponsorMatrix.sol\":11162:11179  layer < maxLayers */\n      pop\n        /* \"contracts/modules/Storage.sol\":544:546  15 */\n      0x0f\n        /* \"contracts/modules/SponsorMatrix.sol\":11162:11179  layer < maxLayers */\n      dup6\n      lt\n        /* \"contracts/modules/SponsorMatrix.sol\":11115:11179  currentId != 0 && currentId != defaultRefId && layer < maxLayers */\n      jump(tag_452)\n        /* \"contracts/modules/SponsorMatrix.sol\":11115:11158  currentId != 0 && currentId != defaultRefId */\n    tag_449:\n        /* \"contracts/modules/SponsorMatrix.sol\":122:18741  contract Nanakshahi is Storage{... */\n      pop\n        /* \"contracts/modules/SponsorMatrix.sol\":10579:10591  defaultRefId */\n      0x04\n        /* \"contracts/modules/SponsorMatrix.sol\":122:18741  contract Nanakshahi is Storage{... */\n      sload\n        /* \"contracts/modules/SponsorMatrix.sol\":11133:11158  currentId != defaultRefId */\n      dup2\n      eq\n      iszero\n        /* \"contracts/modules/SponsorMatrix.sol\":11115:11158  currentId != 0 && currentId != defaultRefId */\n      jump(tag_450)\n        /* \"contracts/modules/SponsorMatrix.sol\":10780:10783  ++i */\n    tag_446:\n        /* \"contracts/modules/SponsorMatrix.sol\":122:18741  contract Nanakshahi is Storage{... */\n      swap1\n      0x00\n      mstore\n        /* \"contracts/modules/SponsorMatrix.sol\":10811:10816  users */\n      0x2b\n        /* \"contracts/modules/SponsorMatrix.sol\":122:18741  contract Nanakshahi is Storage{... */\n      0x20\n      mstore\n        /* \"contracts/modules/SponsorMatrix.sol\":10811:10835  users[targetId].uplineId */\n      0x05\n        /* \"contracts/modules/SponsorMatrix.sol\":122:18741  contract Nanakshahi is Storage{... */\n      keccak256(0x00, 0x40)\n        /* \"contracts/modules/SponsorMatrix.sol\":10811:10835  users[targetId].uplineId */\n      add\n        /* \"contracts/modules/SponsorMatrix.sol\":122:18741  contract Nanakshahi is Storage{... */\n      sload\n        /* \"contracts/modules/SponsorMatrix.sol\":10854:10867  targetId == 0 */\n      swap1\n      dup2\n      iszero\n        /* \"contracts/modules/SponsorMatrix.sol\":10854:10895  targetId == 0 || targetId == defaultRefId */\n      dup1\n      iszero\n      tag_472\n      jumpi\n        /* \"contracts/modules/SponsorMatrix.sol\":10780:10783  ++i */\n    tag_473:\n        /* \"contracts/modules/SponsorMatrix.sol\":10850:11026  if (targetId == 0 || targetId == defaultRefId) {... */\n      tag_453\n      jumpi\n        /* \"contracts/modules/SponsorMatrix.sol\":10758:10759  1 */\n      0x01\n        /* \"contracts/modules/SponsorMatrix.sol\":122:18741  contract Nanakshahi is Storage{... */\n      add\n        /* \"contracts/modules/SponsorMatrix.sol\":10749:10759  uint i = 1 */\n      jump(tag_445)\n        /* \"contracts/modules/SponsorMatrix.sol\":10854:10895  targetId == 0 || targetId == defaultRefId */\n    tag_472:\n        /* \"contracts/modules/SponsorMatrix.sol\":122:18741  contract Nanakshahi is Storage{... */\n      pop\n        /* \"contracts/modules/SponsorMatrix.sol\":10579:10591  defaultRefId */\n      0x04\n        /* \"contracts/modules/SponsorMatrix.sol\":122:18741  contract Nanakshahi is Storage{... */\n      sload\n        /* \"contracts/modules/SponsorMatrix.sol\":10871:10895  targetId == defaultRefId */\n      dup3\n      eq\n        /* \"contracts/modules/SponsorMatrix.sol\":10854:10895  targetId == 0 || targetId == defaultRefId */\n      jump(tag_473)\n        /* \"contracts/modules/SponsorMatrix.sol\":10563:10691  if(_uplineId == defaultRefId || _uplineId == 0)... */\n    tag_443:\n        /* \"contracts/modules/SponsorMatrix.sol\":10650:10657  _amount */\n      pop\n      pop\n      swap2\n      tag_349\n      swap2\n      pop\n      tag_22\n      jump\t// in\n        /* \"contracts/modules/SponsorMatrix.sol\":10566:10609  _uplineId == defaultRefId || _uplineId == 0 */\n    tag_441:\n        /* \"contracts/modules/SponsorMatrix.sol\":10595:10609  _uplineId == 0 */\n      pop\n      dup1\n      iszero\n        /* \"contracts/modules/SponsorMatrix.sol\":10566:10609  _uplineId == defaultRefId || _uplineId == 0 */\n      jump(tag_442)\n        /* \"contracts/modules/SponsorMatrix.sol\":14333:17485  function _distributeLevelBoosterIncome(uint _startId, uint _fromId, uint _amount,uint _packageLevel,uint _maxLevel) private {... */\n    tag_27:\n      swap4\n      swap3\n      swap1\n      swap3\n        /* \"contracts/modules/SponsorMatrix.sol\":14472:14485  _startId == 0 */\n      dup5\n      iszero\n        /* \"contracts/modules/SponsorMatrix.sol\":14472:14513  _startId == 0 || _startId == defaultRefId */\n      dup1\n      iszero\n      tag_478\n      jumpi\n        /* \"contracts/modules/SponsorMatrix.sol\":14333:17485  function _distributeLevelBoosterIncome(uint _startId, uint _fromId, uint _amount,uint _packageLevel,uint _maxLevel) private {... */\n    tag_479:\n        /* \"contracts/modules/SponsorMatrix.sol\":14472:14531  _startId == 0 || _startId == defaultRefId || _maxLevel == 0 */\n      dup1\n      iszero\n      tag_480\n      jumpi\n        /* \"contracts/modules/SponsorMatrix.sol\":14333:17485  function _distributeLevelBoosterIncome(uint _startId, uint _fromId, uint _amount,uint _packageLevel,uint _maxLevel) private {... */\n    tag_481:\n        /* \"contracts/modules/SponsorMatrix.sol\":14468:14604  if (_startId == 0 || _startId == defaultRefId || _maxLevel == 0) {... */\n      tag_482\n      jumpi\n        /* \"contracts/modules/SponsorMatrix.sol\":14687:14706  _amount / _maxLevel */\n      swap2\n      swap1\n      tag_484\n      dup4\n      dup4\n      tag_5\n      jump\t// in\n    tag_484:\n        /* \"contracts/modules/SponsorMatrix.sol\":14745:14771  amountPerLevel * _maxLevel */\n      swap3\n        /* \"contracts/modules/SponsorMatrix.sol\":14734:14772  _amount - (amountPerLevel * _maxLevel) */\n      tag_485\n        /* \"contracts/modules/SponsorMatrix.sol\":14745:14771  amountPerLevel * _maxLevel */\n      tag_486\n      dup3\n      dup7\n      tag_15\n      jump\t// in\n    tag_486:\n        /* \"contracts/modules/SponsorMatrix.sol\":14734:14772  _amount - (amountPerLevel * _maxLevel) */\n      dup5\n      tag_4\n      jump\t// in\n    tag_485:\n        /* \"contracts/modules/SponsorMatrix.sol\":14855:14880  uint currentId = _startId */\n      swap6\n        /* \"contracts/modules/SponsorMatrix.sol\":14891:14916  uint totalDistributed = 0 */\n      swap2\n        /* \"contracts/modules/SponsorMatrix.sol\":14484:14485  0 */\n      0x00\n        /* \"contracts/modules/SponsorMatrix.sol\":14927:14953  uint accumulatedShares = 1 */\n      swap5\n        /* \"contracts/modules/SponsorMatrix.sol\":14952:14953  1 */\n      0x01\n        /* \"contracts/modules/SponsorMatrix.sol\":14995:15005  uint i = 0 */\n      swap7\n        /* \"contracts/modules/SponsorMatrix.sol\":14484:14485  0 */\n      0x00\n        /* \"contracts/modules/SponsorMatrix.sol\":14990:17090  for (uint i = 0; i < _maxLevel; i++) ... */\n      swap5\n        /* \"contracts/modules/SponsorMatrix.sol\":15007:15020  i < _maxLevel */\n    tag_487:\n      dup5\n      dup7\n      lt\n      tag_488\n      jumpi\n        /* \"contracts/modules/SponsorMatrix.sol\":17207:17233  _amount - totalDistributed */\n      pop\n      pop\n      pop\n      pop\n      pop\n      pop\n      tag_490\n      swap3\n      pop\n      tag_4\n      jump\t// in\n    tag_490:\n        /* \"contracts/modules/SponsorMatrix.sol\":17248:17270  remainingAfterLoop > 0 */\n      dup1\n        /* \"contracts/modules/SponsorMatrix.sol\":17244:17333  if (remainingAfterLoop > 0) {... */\n      tag_491\n      jumpi\n        /* \"contracts/modules/SponsorMatrix.sol\":14990:17090  for (uint i = 0; i < _maxLevel; i++) ... */\n    tag_492:\n        /* \"contracts/modules/SponsorMatrix.sol\":17402:17415  remainder > 0 */\n      pop\n      dup1\n        /* \"contracts/modules/SponsorMatrix.sol\":17398:17469  if (remainder > 0) {... */\n      tag_386\n      jumpi\n        /* \"contracts/modules/SponsorMatrix.sol\":14333:17485  function _distributeLevelBoosterIncome(uint _startId, uint _fromId, uint _amount,uint _packageLevel,uint _maxLevel) private {... */\n      pop\n      jump\t// out\n        /* \"contracts/modules/SponsorMatrix.sol\":17244:17333  if (remainingAfterLoop > 0) {... */\n    tag_491:\n        /* \"contracts/modules/SponsorMatrix.sol\":17302:17320  remainingAfterLoop */\n      tag_496\n      swap1\n      tag_22\n      jump\t// in\n    tag_496:\n        /* \"contracts/modules/SponsorMatrix.sol\":17244:17333  if (remainingAfterLoop > 0) {... */\n      0x00\n      jump(tag_492)\n        /* \"contracts/modules/SponsorMatrix.sol\":15022:15025  i++ */\n    tag_488:\n        /* \"contracts/modules/SponsorMatrix.sol\":15099:15113  currentId == 0 */\n      swap1\n      swap2\n      swap3\n      swap4\n      swap5\n      swap6\n      swap7\n      dup2\n      iszero\n        /* \"contracts/modules/SponsorMatrix.sol\":15099:15142  currentId == 0 || currentId == defaultRefId */\n      dup1\n      iszero\n      tag_497\n      jumpi\n        /* \"contracts/modules/SponsorMatrix.sol\":15022:15025  i++ */\n    tag_498:\n        /* \"contracts/modules/SponsorMatrix.sol\":15095:15371  if (currentId == 0 || currentId == defaultRefId) {... */\n      tag_499\n      jumpi\n        /* \"contracts/modules/SponsorMatrix.sol\":122:18741  contract Nanakshahi is Storage{... */\n      dup2\n        /* \"contracts/modules/SponsorMatrix.sol\":14484:14485  0 */\n      0x00\n        /* \"contracts/modules/SponsorMatrix.sol\":122:18741  contract Nanakshahi is Storage{... */\n      mstore\n        /* \"contracts/modules/SponsorMatrix.sol\":15405:15410  users */\n      0x2b\n        /* \"contracts/modules/SponsorMatrix.sol\":122:18741  contract Nanakshahi is Storage{... */\n      0x20\n      mstore\n      0x40\n        /* \"contracts/modules/SponsorMatrix.sol\":14484:14485  0 */\n      0x00\n        /* \"contracts/modules/SponsorMatrix.sol\":122:18741  contract Nanakshahi is Storage{... */\n      keccak256\n        /* \"contracts/modules/SponsorMatrix.sol\":15442:15450  up.level */\n      swap9\n      dup6\n      0x06\n      dup12\n      add\n        /* \"contracts/modules/SponsorMatrix.sol\":122:18741  contract Nanakshahi is Storage{... */\n      sload\n        /* \"contracts/modules/SponsorMatrix.sol\":15442:15467  up.level >= _packageLevel */\n      lt\n      iszero\n        /* \"contracts/modules/SponsorMatrix.sol\":15438:15928  if (up.level >= _packageLevel) {... */\n      0x00\n        /* \"contracts/modules/SponsorMatrix.sol\":15442:15467  up.level >= _packageLevel */\n      eq\n      tag_501\n      jumpi\n        /* \"contracts/modules/SponsorMatrix.sol\":15576:15610  amountPerLevel * accumulatedShares */\n      tag_503\n      swap1\n      dup6\n      tag_15\n      jump\t// in\n    tag_503:\n        /* \"contracts/modules/SponsorMatrix.sol\":14484:14485  0 */\n      0x00\n        /* \"contracts/modules/SponsorMatrix.sol\":122:18741  contract Nanakshahi is Storage{... */\n      dup4\n      dup2\n      mstore\n        /* \"contracts/modules/SponsorMatrix.sol\":15405:15410  users */\n      0x2b\n        /* \"contracts/modules/SponsorMatrix.sol\":122:18741  contract Nanakshahi is Storage{... */\n      0x20\n      swap1\n      dup2\n      mstore\n      0x40\n      dup1\n      dup4\n      keccak256\n      sload\n      dup4\n      sload\n      swap2\n      mload\n      shl(0xe0, 0xa9059cbb)\n        /* \"contracts/modules/SponsorMatrix.sol\":17703:17728  usdt.transfer(to, amount) */\n      dup2\n      mstore\n      sub(shl(0xa0, 0x01), 0x01)\n        /* \"contracts/modules/SponsorMatrix.sol\":122:18741  contract Nanakshahi is Storage{... */\n      swap2\n      dup3\n      and\n        /* \"contracts/modules/SponsorMatrix.sol\":17703:17728  usdt.transfer(to, amount) */\n      0x04\n      dup3\n      add\n        /* \"contracts/modules/SponsorMatrix.sol\":122:18741  contract Nanakshahi is Storage{... */\n      dup2\n      swap1\n      mstore\n      0x24\n      dup3\n      add\n      dup8\n      swap1\n      mstore\n      swap1\n      swap8\n      swap6\n      swap7\n      swap6\n      swap1\n      swap5\n      swap1\n      swap4\n      swap3\n      dup9\n      swap3\n      0x44\n      swap3\n      dup5\n      swap3\n        /* \"contracts/modules/SponsorMatrix.sol\":14484:14485  0 */\n      swap1\n      swap2\n        /* \"contracts/modules/SponsorMatrix.sol\":122:18741  contract Nanakshahi is Storage{... */\n      and\n        /* \"contracts/modules/SponsorMatrix.sol\":17703:17728  usdt.transfer(to, amount) */\n      gas\n      call\n      swap5\n      dup6\n      iszero\n      tag_90\n      jumpi\n        /* \"contracts/modules/SponsorMatrix.sol\":15711:15737  totalDistributed += payout */\n      tag_507\n        /* \"contracts/modules/SponsorMatrix.sol\":17703:17728  usdt.transfer(to, amount) */\n      swap6\n      tag_508\n      jumpi\n        /* \"contracts/modules/SponsorMatrix.sol\":15438:15928  if (up.level >= _packageLevel) {... */\n    tag_509:\n        /* \"contracts/modules/SponsorMatrix.sol\":122:18741  contract Nanakshahi is Storage{... */\n      pop\n      dup1\n        /* \"contracts/modules/SponsorMatrix.sol\":14484:14485  0 */\n      0x00\n        /* \"contracts/modules/SponsorMatrix.sol\":122:18741  contract Nanakshahi is Storage{... */\n      mstore\n        /* \"contracts/modules/SponsorMatrix.sol\":17766:17777  userIncomes */\n      0x2c\n        /* \"contracts/modules/SponsorMatrix.sol\":122:18741  contract Nanakshahi is Storage{... */\n      0x20\n      mstore\n        /* \"contracts/modules/SponsorMatrix.sol\":17836:17858  inc.levelBoosterIncome */\n      0x03\n        /* \"contracts/modules/SponsorMatrix.sol\":122:18741  contract Nanakshahi is Storage{... */\n      0x40\n        /* \"contracts/modules/SponsorMatrix.sol\":14484:14485  0 */\n      0x00\n        /* \"contracts/modules/SponsorMatrix.sol\":122:18741  contract Nanakshahi is Storage{... */\n      keccak256\n        /* \"contracts/modules/SponsorMatrix.sol\":17800:17825  inc.totalIncome += amount */\n      tag_510\n        /* \"contracts/modules/SponsorMatrix.sol\":122:18741  contract Nanakshahi is Storage{... */\n      dup7\n      dup3\n      sload\n        /* \"contracts/modules/SponsorMatrix.sol\":17800:17825  inc.totalIncome += amount */\n      tag_13\n      jump\t// in\n    tag_510:\n        /* \"contracts/modules/SponsorMatrix.sol\":122:18741  contract Nanakshahi is Storage{... */\n      dup2\n      sstore\n        /* \"contracts/modules/SponsorMatrix.sol\":17836:17858  inc.levelBoosterIncome */\n      add\n        /* \"contracts/modules/SponsorMatrix.sol\":17836:17868  inc.levelBoosterIncome += amount */\n      tag_511\n        /* \"contracts/modules/SponsorMatrix.sol\":122:18741  contract Nanakshahi is Storage{... */\n      dup6\n      dup3\n      sload\n        /* \"contracts/modules/SponsorMatrix.sol\":17836:17868  inc.levelBoosterIncome += amount */\n      tag_13\n      jump\t// in\n    tag_511:\n        /* \"contracts/modules/SponsorMatrix.sol\":122:18741  contract Nanakshahi is Storage{... */\n      swap1\n      sstore\n        /* \"contracts/modules/SponsorMatrix.sol\":14484:14485  0 */\n      0x00\n        /* \"contracts/modules/SponsorMatrix.sol\":122:18741  contract Nanakshahi is Storage{... */\n      mstore\n        /* \"contracts/modules/SponsorMatrix.sol\":17881:17894  incomeHistory */\n      0x2d\n        /* \"contracts/modules/SponsorMatrix.sol\":122:18741  contract Nanakshahi is Storage{... */\n      0x20\n      mstore\n        /* \"contracts/modules/SponsorMatrix.sol\":17881:18128  incomeHistory[receiverId].push(Income({... */\n      tag_512\n        /* \"contracts/modules/SponsorMatrix.sol\":122:18741  contract Nanakshahi is Storage{... */\n      0x40\n        /* \"contracts/modules/SponsorMatrix.sol\":14484:14485  0 */\n      0x00\n        /* \"contracts/modules/SponsorMatrix.sol\":122:18741  contract Nanakshahi is Storage{... */\n      keccak256\n      mload(0x40)\n      swap1\n      tag_513\n      dup3\n      tag_9\n      jump\t// in\n    tag_513:\n      dup8\n      dup3\n      mstore\n        /* \"contracts/modules/SponsorMatrix.sol\":17912:18127  Income({... */\n      dup6\n        /* \"contracts/modules/SponsorMatrix.sol\":122:18741  contract Nanakshahi is Storage{... */\n      0x20\n        /* \"contracts/modules/SponsorMatrix.sol\":17912:18127  Income({... */\n      dup4\n      add\n        /* \"contracts/modules/SponsorMatrix.sol\":122:18741  contract Nanakshahi is Storage{... */\n      mstore\n        /* \"contracts/modules/SponsorMatrix.sol\":17912:18127  Income({... */\n      dup10\n        /* \"contracts/modules/SponsorMatrix.sol\":122:18741  contract Nanakshahi is Storage{... */\n      0x40\n        /* \"contracts/modules/SponsorMatrix.sol\":17912:18127  Income({... */\n      dup4\n      add\n        /* \"contracts/modules/SponsorMatrix.sol\":122:18741  contract Nanakshahi is Storage{... */\n      mstore\n        /* \"contracts/modules/SponsorMatrix.sol\":18048:18063  block.timestamp */\n      timestamp\n        /* \"contracts/modules/SponsorMatrix.sol\":17912:18127  Income({... */\n      0x60\n      dup4\n      add\n        /* \"contracts/modules/SponsorMatrix.sol\":122:18741  contract Nanakshahi is Storage{... */\n      mstore\n        /* \"contracts/modules/SponsorMatrix.sol\":17703:17728  usdt.transfer(to, amount) */\n      0x04\n        /* \"contracts/modules/SponsorMatrix.sol\":17912:18127  Income({... */\n      0x80\n      dup4\n      add\n        /* \"contracts/modules/SponsorMatrix.sol\":122:18741  contract Nanakshahi is Storage{... */\n      mstore\n        /* \"contracts/modules/SponsorMatrix.sol\":17881:18128  incomeHistory[receiverId].push(Income({... */\n      tag_16\n      jump\t// in\n    tag_512:\n        /* \"contracts/modules/SponsorMatrix.sol\":122:18741  contract Nanakshahi is Storage{... */\n      dup5\n        /* \"contracts/modules/SponsorMatrix.sol\":14484:14485  0 */\n      0x00\n        /* \"contracts/modules/SponsorMatrix.sol\":122:18741  contract Nanakshahi is Storage{... */\n      mstore\n        /* \"contracts/modules/SponsorMatrix.sol\":15405:15410  users */\n      0x2b\n        /* \"contracts/modules/SponsorMatrix.sol\":122:18741  contract Nanakshahi is Storage{... */\n      0x20\n      mstore\n      0x01\n      dup1\n      0xa0\n      shl\n      sub\n      0x40\n        /* \"contracts/modules/SponsorMatrix.sol\":14484:14485  0 */\n      0x00\n        /* \"contracts/modules/SponsorMatrix.sol\":122:18741  contract Nanakshahi is Storage{... */\n      keccak256\n      sload\n      and\n      swap1\n      mload(0x00)\n      codecopy(0x00, data_51678340555b44277c2bba9423d75ebead61331b9cde789c13d0820d4f537e29, 0x20)\n      mload(0x00)\n      swap1\n      0x00\n      mstore\n        /* \"contracts/modules/SponsorMatrix.sol\":17912:18127  Income({... */\n      0x60\n        /* \"contracts/modules/SponsorMatrix.sol\":122:18741  contract Nanakshahi is Storage{... */\n      mload(0x40)\n      dup7\n      dup2\n      mstore\n      dup11\n      0x20\n      dup3\n      add\n      mstore\n        /* \"contracts/modules/SponsorMatrix.sol\":17703:17728  usdt.transfer(to, amount) */\n      0x04\n        /* \"contracts/modules/SponsorMatrix.sol\":122:18741  contract Nanakshahi is Storage{... */\n      0x40\n      dup3\n      add\n      mstore\n        /* \"contracts/modules/SponsorMatrix.sol\":18146:18215  IncomeDistributed(to, users[fromId].account, amount, packageLevel, 4) */\n      log3\n        /* \"contracts/modules/SponsorMatrix.sol\":15711:15737  totalDistributed += payout */\n      tag_13\n      jump\t// in\n    tag_507:\n        /* \"contracts/modules/SponsorMatrix.sol\":15756:15777  accumulatedShares = 1 */\n      swap7\n        /* \"contracts/modules/SponsorMatrix.sol\":14952:14953  1 */\n      0x01\n        /* \"contracts/modules/SponsorMatrix.sol\":15992:16003  up.uplineId */\n      0x05\n        /* \"contracts/modules/SponsorMatrix.sol\":15756:15777  accumulatedShares = 1 */\n      dup2\n        /* \"contracts/modules/SponsorMatrix.sol\":15438:15928  if (up.level >= _packageLevel) {... */\n      swap3\n    tag_514:\n        /* \"contracts/modules/SponsorMatrix.sol\":15992:16003  up.uplineId */\n      add\n        /* \"contracts/modules/SponsorMatrix.sol\":122:18741  contract Nanakshahi is Storage{... */\n      sload\n        /* \"contracts/modules/SponsorMatrix.sol\":15022:15025  i++ */\n      swap7\n        /* \"contracts/modules/SponsorMatrix.sol\":122:18741  contract Nanakshahi is Storage{... */\n      add\n        /* \"contracts/modules/SponsorMatrix.sol\":14995:15005  uint i = 0 */\n      swap5\n      swap4\n      swap3\n      swap2\n      swap1\n      swap8\n      swap7\n      swap6\n      jump(tag_487)\n        /* \"contracts/modules/SponsorMatrix.sol\":17703:17728  usdt.transfer(to, amount) */\n    tag_508:\n      tag_515\n      swap1\n        /* \"contracts/modules/SponsorMatrix.sol\":122:18741  contract Nanakshahi is Storage{... */\n      0x20\n        /* \"contracts/modules/SponsorMatrix.sol\":17703:17728  usdt.transfer(to, amount) */\n      returndatasize\n      dup2\n      gt\n      tag_155\n      jumpi\n      tag_157\n      dup2\n      dup4\n      tag_10\n      jump\t// in\n    tag_515:\n      jump(tag_509)\n        /* \"contracts/modules/SponsorMatrix.sol\":15438:15928  if (up.level >= _packageLevel) {... */\n    tag_501:\n        /* \"contracts/modules/SponsorMatrix.sol\":14952:14953  1 */\n      0x01\n        /* \"contracts/modules/SponsorMatrix.sol\":15893:15912  accumulatedShares++ */\n      swap2\n      swap10\n      swap3\n      pop\n      tag_519\n        /* \"contracts/modules/SponsorMatrix.sol\":15992:16003  up.uplineId */\n      0x05\n        /* \"contracts/modules/SponsorMatrix.sol\":15893:15912  accumulatedShares++ */\n      swap2\n      tag_25\n      jump\t// in\n    tag_519:\n        /* \"contracts/modules/SponsorMatrix.sol\":15438:15928  if (up.level >= _packageLevel) {... */\n      swap3\n      jump(tag_514)\n        /* \"contracts/modules/SponsorMatrix.sol\":15095:15371  if (currentId == 0 || currentId == defaultRefId) {... */\n    tag_499:\n        /* \"contracts/modules/SponsorMatrix.sol\":15241:15267  _amount - totalDistributed */\n      swap8\n      pop\n      pop\n      pop\n      pop\n      pop\n      pop\n      pop\n      tag_520\n      swap3\n      pop\n      tag_4\n      jump\t// in\n    tag_520:\n        /* \"contracts/modules/SponsorMatrix.sol\":15290:15303  remaining > 0 */\n      dup1\n        /* \"contracts/modules/SponsorMatrix.sol\":15286:15330  if (remaining > 0) _sendToCreator(remaining) */\n      tag_386\n      jumpi\n        /* \"contracts/modules/SponsorMatrix.sol\":15349:15356  return; */\n      pop\n      jump\t// out\n        /* \"contracts/modules/SponsorMatrix.sol\":15099:15142  currentId == 0 || currentId == defaultRefId */\n    tag_497:\n        /* \"contracts/modules/SponsorMatrix.sol\":122:18741  contract Nanakshahi is Storage{... */\n      pop\n        /* \"contracts/modules/SponsorMatrix.sol\":15130:15142  defaultRefId */\n      0x04\n        /* \"contracts/modules/SponsorMatrix.sol\":122:18741  contract Nanakshahi is Storage{... */\n      sload\n        /* \"contracts/modules/SponsorMatrix.sol\":15117:15142  currentId == defaultRefId */\n      dup3\n      eq\n        /* \"contracts/modules/SponsorMatrix.sol\":15099:15142  currentId == 0 || currentId == defaultRefId */\n      jump(tag_498)\n        /* \"contracts/modules/SponsorMatrix.sol\":14468:14604  if (_startId == 0 || _startId == defaultRefId || _maxLevel == 0) {... */\n    tag_482:\n        /* \"contracts/modules/SponsorMatrix.sol\":14563:14570  _amount */\n      pop\n      pop\n      swap1\n      pop\n      tag_349\n      swap2\n      pop\n      tag_22\n      jump\t// in\n        /* \"contracts/modules/SponsorMatrix.sol\":14472:14531  _startId == 0 || _startId == defaultRefId || _maxLevel == 0 */\n    tag_480:\n        /* \"contracts/modules/SponsorMatrix.sol\":14517:14531  _maxLevel == 0 */\n      pop\n      dup1\n      iszero\n        /* \"contracts/modules/SponsorMatrix.sol\":14472:14531  _startId == 0 || _startId == defaultRefId || _maxLevel == 0 */\n      jump(tag_481)\n        /* \"contracts/modules/SponsorMatrix.sol\":14472:14513  _startId == 0 || _startId == defaultRefId */\n    tag_478:\n        /* \"contracts/modules/SponsorMatrix.sol\":122:18741  contract Nanakshahi is Storage{... */\n      pop\n        /* \"contracts/modules/SponsorMatrix.sol\":14501:14513  defaultRefId */\n      0x04\n        /* \"contracts/modules/SponsorMatrix.sol\":122:18741  contract Nanakshahi is Storage{... */\n      sload\n        /* \"contracts/modules/SponsorMatrix.sol\":14489:14513  _startId == defaultRefId */\n      dup6\n      eq\n        /* \"contracts/modules/SponsorMatrix.sol\":14472:14513  _startId == 0 || _startId == defaultRefId */\n      jump(tag_479)\n    stop\n    data_51678340555b44277c2bba9423d75ebead61331b9cde789c13d0820d4f537e29 e17b61d324ce17328f433d0ab62581c0f0aa997312bae80fbdfcd2aa9b91d6e3\n\n    auxdata: 0xa26469706673582212200c5fda55e4bd47d96c20ab7afbb811c2df0a56da93e84f14f95d34fc98d5839864736f6c634300081e0033\n}\n",
				"bytecode": {
					"linkReferences": {},
					"object": "6080604052346104ff576040516101e081016001600160401b038111828210176104eb5760405267d02ab486cedc0000815268015af1d78b58c4000060208201526802b5e3af16b1880000604082015268056bc75e2d631000006060820152680ad78ebc5ac620000060808201526815af1d78b58c40000060a0820152682b5e3af16b1880000060c08201526856bc75e2d63100000060e082015268ad78ebc5ac6200000061010082015269015af1d78b58c40000006101208201526902b5e3af16b18800000061014082015269056bc75e2d6310000000610160820152690ad78ebc5ac6200000006101808201526915af1d78b58c400000006101a0820152692b5e3af16b18800000006101c0820152600654600f60065580600f10610495575b5060065f5260205f20905f5b600f81106104785761013d610503565b680410d586a20a4c00008152681043561a8829300000602082015268410d586a20a4c0000060408201526901043561a882930000006060820152690410d586a20a4c0000006080820152691043561a88293000000060a082015269410d586a20a4c000000060c08201526007546007805580600710610422575b5060075f5260205f20905f5b60078110610405576101d3610522565b68056bc75e2d631000008152680ad78ebc5ac620000060208201526815af1d78b58c4000006040820152682b5e3af16b1880000060608201526856bc75e2d631000000608082015268ad78ebc5ac6200000060a082015269015af1d78b58c400000060c08201526902b5e3af16b18800000060e082015260085460088055806008106103af575b5060085f5260205f20905f5b6008811061039257610276610503565b60038152600560208201526007604082015260096060820152600b6080820152600d60a0820152600f60c08201525f5b6007811061037a576102b6610522565b6004815260056020820152600660408201526007606082015260086080820152600960a0820152600a60c0820152600b60e08201525f5b60088110610362576102fd610522565b5f815260016020820152600160408201526001606082015260016080820152600160a0820152600160c0820152600160e08201525f5b6008811061034a576040516119b390816105598239f35b600190602060ff845116930192816018015501610333565b600190602060ff8451169301928160100155016102ed565b600190602060ff8451169301928160090155016102a6565b81516001600160501b031681840155602090910190600101610266565b60085f526103ff907ff3f7a9fe364faab93b216da50a3214154f22a0a2b415b23a84c8169e8b636ee3017ff3f7a9fe364faab93b216da50a3214154f22a0a2b415b23a84c8169e8b636eeb610542565b8161025a565b81516001600160501b0316818401556020909101906001016101c3565b60075f52610472907fa66cc928b5edb82af9bd49922954155ab7b0942694bea4ce44661d9a8736c688017fa66cc928b5edb82af9bd49922954155ab7b0942694bea4ce44661d9a8736c68f610542565b816101b7565b81516001600160501b03168184015560209091019060010161012d565b60065f526104e5907ff652222313e28459528d920b65115c16c04f3efc82aaedc97be59f3f377c0d3f017ff652222313e28459528d920b65115c16c04f3efc82aaedc97be59f3f377c0d4e610542565b5f610121565b634e487b7160e01b5f52604160045260245ffd5b5f80fd5b6040519060e082016001600160401b038111838210176104eb57604052565b6040519061010082016001600160401b038111838210176104eb57604052565b81811061054d575050565b5f815560010161054256fe6080806040526004361015610012575f80fd5b5f3560e01c90816301c234a814610bfe575080632132d20414610bd25780632350268f14610b785780632451308814610b4e5780632f48ab7d14610b2757806332bc298c14610b0a57806332fcd96614610ae8578063375b43b414610acd57806339ab360314610a7357806345977d031461085e57806358c7d3521461084357806378f6ad6d146108265780637cdc65f2146107fe578063956a3228146107d2578063ae4708dc14610764578063bff1f9e114610747578063c216212a1461070f578063d0a2fd79146106e3578063d54d6ddb146106c5578063e9e34a161461069d578063ec597e6f14610680578063f207564e146101455763f5d74d9314610119575f80fd5b34610141575f366003190112610141576003546040516001600160a01b039091168152602090f35b5f80fd5b3461014157602036600319011261014157600435335f52602a60205260405f205461064657805f52602b602052600360405f2001541561060f575f80546020906101d0906001600160a01b031661019a610c30565b90546040516323b872dd60e01b815233600482015230602482015260039290921b1c604482015293849283919082906064820190565b03925af18015610604576105d7575b50600454906101f16005548093610db4565b916001810180911161042357600555335f52602a6020528160405f2055815f52602b60205260405f2090336bffffffffffffffffffffffff60a01b8354161782554260028301558260038301556004820181815560016006840155610254610c30565b90549060031b1c600a84015542600f840155815f52602b602052600760405f2001805490600182018092116104235755815f5260306020526102998460405f20611091565b603354600160401b8110156105c3578060016102ba92016033556033610c62565b81549060031b9086821b915f19901b1916179055603154845f52603260205260405f20555f5f90835f52602f602052600260405f2054105f14610498575050835f52602b60205281600560405f200155815f52602f60205260405f20805490600182018092116104235755815b5f905b600f8210610437575b5050610371610340610c30565b90546040519160031b1c61035382610d42565b81525f60208201524260408201526001606082015260018501610dc1565b610379610c30565b90549060031b1c906005820282159280820460051484171561042357603c810293818504603c1481171561042357601982029182046019141715610423576103dc936103d4606489946103ce82809604611131565b04611198565b04915461129e565b5f52602b602052600560018060a01b0360405f2054169101546040519081527f309bb360e8b69c23937ccc5fb01f9aeeead1c95a99604e175113ff82f2b1723a60203392a4005b634e487b7160e01b5f52601160045260245ffd5b801561049357805f52602b602052600960405f2001805490600182018092116104235755805f52602e60205260405f20825f5260205261047a8660405f20611091565b5f52602b6020526001600560405f20015491019061032a565b610333565b5f5b600f81106104aa575b5050610327565b816105be57845f52602e60205260405f2060018201808311610423575f5260205260405f2054600282018083116104235760ff8111610423576001901b116104f5575b60010161049a565b93925f9591955b845f52602e60205260405f20865f5260205260405f20548110156105b0578661059f57845f52602e60205260405f20865f5260205261053e8160405f20610c62565b90549060031b1c805f52602f602052600260405f205410610563575b506001016104fc565b9193509550865f52602b60205280600560405f200155805f52602f60205260405f2080549060018201809211610423575591600180969061055a565b5092936001909591955b90506104ed565b5092936001909591956105a9565b6104a3565b634e487b7160e01b5f52604160045260245ffd5b6105f89060203d6020116105fd575b6105f08183610d7a565b810190610d9c565b6101df565b503d6105e6565b6040513d5f823e3d90fd5b60405162461bcd60e51b815260206004820152600f60248201526e24b73b30b634b21039b837b739b7b960891b6044820152606490fd5b60405162461bcd60e51b8152602060048201526012602482015271105b1c9958591e481c9959da5cdd195c995960721b6044820152606490fd5b34610141575f366003190112610141576020600454604051908152f35b34610141575f366003190112610141576002546040516001600160a01b039091168152602090f35b34610141576020366003190112610141576106e1600435610e83565b005b346101415760203660031901126101415760043560088110156101415760209060100154604051908152f35b346101415760203660031901126101415760043560065481101561014157610738602091610c18565b90549060031b1c604051908152f35b34610141575f366003190112610141576020600554604051908152f35b3461014157602036600319011261014157600435600754811015610141576007548110156107be5760075f527fa66cc928b5edb82af9bd49922954155ab7b0942694bea4ce44661d9a8736c6880154604051908152602090f35b634e487b7160e01b5f52603260045260245ffd5b346101415760203660031901126101415760043560088110156101415760209060180154604051908152f35b34610141575f366003190112610141576001546040516001600160a01b039091168152602090f35b34610141575f366003190112610141576020603154604051908152f35b34610141575f366003190112610141576020604051600a8152f35b3461014157602036600319011261014157600435805f52602b60205260405f2061089260018060a01b038254163314610d03565b6006810190815491600f831015610a37576108ac83610c18565b90545f80546040516323b872dd60e01b815233600482015230602482015260039490941b9290921c60448401819052939291602091839160649183916001600160a01b03165af1801561060457610a1a575b50805490600182018092116104235755600a820161091d828254610db4565b905561094d60405161092e81610d42565b8281525f60208201524260408201526001606082015260018401610dc1565b60058102811590828104600514821715610423576019830283810460191483171561042357610983916103ce6064809304611131565b60148202918204601414171561042357606490049160048201546001820193848311610423578560056109d1956109bd88858582986113de565b016109cb848484845461152f565b54611718565b60405190815260406020820152600460408201526314db1bdd60e21b60608201527fbabb6a363fd9a057996d09882c0b74b710d121707d19eeffd91c51c3171a7c9160803392a3005b610a329060203d6020116105fd576105f08183610d7a565b6108fe565b60405162461bcd60e51b8152602060048201526014602482015273105b1c9958591e48185d081b585e081b195d995b60621b6044820152606490fd5b3461014157602036600319011261014157600435603354811015610141576033548110156107be5760335f527f82a75bdeeae8604d839476ae9efd8b0e15aa447e21bfd7f41283bb54e22c9a820154604051908152602090f35b34610141575f366003190112610141576020604051600f8152f35b34610141575f366003190112610141576020604051670de0b6b3a76400008152f35b34610141575f366003190112610141576020604051620151808152f35b34610141575f366003190112610141575f546040516001600160a01b039091168152602090f35b34610141576020366003190112610141576040610b6c600435610ca2565b82519182526020820152f35b3461014157602036600319011261014157600435600854811015610141576008548110156107be5760085f527ff3f7a9fe364faab93b216da50a3214154f22a0a2b415b23a84c8169e8b636ee30154604051908152602090f35b346101415760203660031901126101415760043560078110156101415760209060090154604051908152f35b34610141575f366003190112610141578061271060209252f35b6006548110156107be5760065f5260205f2001905f90565b600654156107be5760065f9081527ff652222313e28459528d920b65115c16c04f3efc82aaedc97be59f3f377c0d3f91565b80548210156107be575f5260205f2001905f90565b9190820391821161042357565b8115610c8e570490565b634e487b7160e01b5f52601260045260245ffd5b90815f52602b602052600360405f20015415610cfc57603154825f52603260205260405f20549081811115610cf257610ce7610cef92670de0b6b3a764000092610c77565b0480936110c5565b90565b505090505f905f90565b5f91508190565b15610d0a57565b60405162461bcd60e51b815260206004820152601060248201526f139bdd081e5bdd5c881858d8dbdd5b9d60821b6044820152606490fd5b6080810190811067ffffffffffffffff8211176105c357604052565b60a0810190811067ffffffffffffffff8211176105c357604052565b90601f8019910116810190811067ffffffffffffffff8211176105c357604052565b90816020910312610141575180151581036101415790565b9190820180921161042357565b8054600160401b8110156105c357600181018083558110156107be57600360609160ff935f5260205f209060021b01845181556020850151600182015560408501516002820155019201511660ff19825416179055565b8181029291811591840414171561042357565b805490600160401b8210156105c357600182018082558210156107be576004916080915f52600560205f2091020192805184556020810151600185015560408101516002850155606081015160038501550151910155565b805f52602b60205260405f209060038201541561105b57610eae60018060a01b038354163314610d03565b60315491815f52603260205260405f205480841461105557610ed9670de0b6b3a76400009185610c77565b0491821561104457610eeb83826110c5565b93815f52603260205260405f20558380610f21575b9150508111610f0d575050565b610f1f91610f1a91610c77565b611198565b565b610fc992610f8b836020945f52602c8552600760405f20610f43868254610db4565b815501610f51858254610db4565b9055805f52602d855260405f2060405191610f6b83610d5e565b825284868301526001604083015242606083015260096080830152610e2b565b5f8054915460405163a9059cbb60e01b81526001600160a01b0391821660048201526024810194909452929485939092169183919082906044820190565b03925af1908115610604575f91611025575b5015610fe9575f8083610f00565b60405162461bcd60e51b81526020600482015260146024820152731554d115081d1c985b9cd9995c8819985a5b195960621b6044820152606490fd5b61103e915060203d6020116105fd576105f08183610d7a565b5f610fdb565b9150505f52603260205260405f2055565b50505050565b60405162461bcd60e51b815260206004820152600e60248201526d155cd95c881b9bdd08199bdd5b9960921b6044820152606490fd5b8054600160401b8110156105c3576110ae91600182018155610c62565b819291549060031b91821b915f19901b1916179055565b805f52602b60205260405f20905f52602c602052600a6110fb60405f2092600f906001600882015411611128575b830154610e18565b049054818110156111215761110f91610c77565b908181111561111c575090565b905090565b5050505f90565b601491506110f3565b6033549081158015611190575b61117d57670de0b6b3a7640000810290808204670de0b6b3a76400001490151715610423576111789161117091610c84565b603154610db4565b603155565b8091506111875750565b610f1f90611198565b50801561113e565b6001546001600160a01b0316908115611265575f805460405163a9059cbb60e01b81526001600160a01b03948516600482015260248101849052936020928592604492849291165af191821561060457610f1f92611248575b506004545f52602c60205260405f2061120b828254610db4565b90556004545f52602d60205260405f206040519161122883610d5e565b5f835260208301525f604083015242606083015260056080830152610e2b565b6112609060203d6020116105fd576105f08183610d7a565b6111f1565b60405162461bcd60e51b8152602060048201526011602482015270199959481859191c9cc81b9bdd081cd95d607a1b6044820152606490fd5b801580156113d3575b6113c8575f818152602b6020908152604080832083548154925163a9059cbb60e01b81526001600160a01b0393841660048201526024810189905291959491939284926044928492165af18015610604576113ab575b50805f52602c602052600160405f20611317868254610db4565b815501611325858254610db4565b90555f52602d60205261136460405f206040519061134282610d5e565b8482528560208301526001604083015242606083015260016080830152610e2b565b60018060a01b03905416905f52602b6020525f51602061195e5f395f51905f52606060018060a01b0360405f205416936040519081526001602082015260016040820152a3565b6113c39060203d6020116105fd576105f08183610d7a565b6112fd565b5050610f1f90611198565b5060045481146112a7565b909181158015611516575b611509575f828152602b6020908152604080832083548154925163a9059cbb60e01b81526001600160a01b0393841660048201526024810187905296959491939287926044928492165af1928315610604575f51602061195e5f395f51905f52946060946114ec575b50805f52602c602052600160405f2061146c858254610db4565b81550161147a848254610db4565b90555f52602d6020526114b760405f206040519061149782610d5e565b878252846020830152886040830152428683015260016080830152610e2b565b60018060a01b03905416935f52602b60205260018060a01b0360405f20541694604051918252602082015260016040820152a3565b6115049060203d6020116105fd576105f08183610d7a565b611452565b915050610f1f9150611198565b5060045482146113e9565b5f1981146104235760010190565b93919392909260045481148015611710575b6117035760015b8281106116d25750925f935b801515806116c6575b806116bc575b156116ae57805f52602b60205260405f209083600683015410156115965750600561159091015494611521565b93611554565b5f8054835460405163a9059cbb60e01b81526001600160a01b039182166004820152602481018b9052979996985094969592949293926020928792604492849291165af1928315610604575f51602061195e5f395f51905f5294606094611692575b50805f52602c602052600260405f20611612858254610db4565b815501611620848254610db4565b90555f52602d60205261165d60405f206040519061163d82610d5e565b878252846020830152886040830152428683015260026080830152610e2b565b60018060a01b03905416935f52602b60205260018060a01b0360405f20541694604051918252602082015260026040820152a3565b6116a99060203d81116105fd576105f08183610d7a565b6115f8565b50505091610f1f9150611198565b50600f8510611563565b5060045481141561155d565b905f52602b602052600560405f20015490811580156116f8575b6116ae57600101611548565b5060045482146116ec565b505091610f1f9150611198565b508015611541565b9392909284158015611952575b801561194a575b61193c57919061173c8383610c84565b9261175061174a8286610e18565b84610c77565b95915f946001965f945b84861061178f575050505050506117719250610c77565b80611780575b50806111875750565b61178990611198565b5f611777565b9091929394959681158015611931575b61191757815f52602b60205260405f20988560068b015410155f14611900576117c89085610e18565b5f838152602b60209081526040808320548354915163a9059cbb60e01b81526001600160a01b03918216600482018190526024820187905290979596959094909392889260449284929091165af1948515610604576118cb956118e4575b50805f52602c602052600360405f20611840868254610db4565b81550161184e858254610db4565b90555f52602d60205261188c60405f206040519061186b82610d5e565b87825285602083015289604083015242606083015260046080830152610e2b565b845f52602b60205260018060a01b0360405f205416905f51602061195e5f395f51905f5260606040518681528a602082015260046040820152a3610db4565b966001600581925b01549601949392919097969561175a565b6118fb9060203d81116105fd576105f08183610d7a565b611826565b600191999250611911600591611521565b926118d3565b97505050505050506119299250610c77565b806111875750565b50600454821461179f565b50509050610f1f9150611198565b50801561172c565b50600454851461172556fee17b61d324ce17328f433d0ab62581c0f0aa997312bae80fbdfcd2aa9b91d6e3a26469706673582212200c5fda55e4bd47d96c20ab7afbb811c2df0a56da93e84f14f95d34fc98d5839864736f6c634300081e0033",
					"opcodes": "PUSH1 0x80 PUSH1 0x40 MSTORE CALLVALUE PUSH2 0x4FF JUMPI PUSH1 0x40 MLOAD PUSH2 0x1E0 DUP2 ADD PUSH1 0x1 PUSH1 0x1 PUSH1 0x40 SHL SUB DUP2 GT DUP3 DUP3 LT OR PUSH2 0x4EB JUMPI PUSH1 0x40 MSTORE PUSH8 0xD02AB486CEDC0000 DUP2 MSTORE PUSH9 0x15AF1D78B58C40000 PUSH1 0x20 DUP3 ADD MSTORE PUSH9 0x2B5E3AF16B1880000 PUSH1 0x40 DUP3 ADD MSTORE PUSH9 0x56BC75E2D63100000 PUSH1 0x60 DUP3 ADD MSTORE PUSH9 0xAD78EBC5AC6200000 PUSH1 0x80 DUP3 ADD MSTORE PUSH9 0x15AF1D78B58C400000 PUSH1 0xA0 DUP3 ADD MSTORE PUSH9 0x2B5E3AF16B18800000 PUSH1 0xC0 DUP3 ADD MSTORE PUSH9 0x56BC75E2D631000000 PUSH1 0xE0 DUP3 ADD MSTORE PUSH9 0xAD78EBC5AC62000000 PUSH2 0x100 DUP3 ADD MSTORE PUSH10 0x15AF1D78B58C4000000 PUSH2 0x120 DUP3 ADD MSTORE PUSH10 0x2B5E3AF16B188000000 PUSH2 0x140 DUP3 ADD MSTORE PUSH10 0x56BC75E2D6310000000 PUSH2 0x160 DUP3 ADD MSTORE PUSH10 0xAD78EBC5AC620000000 PUSH2 0x180 DUP3 ADD MSTORE PUSH10 0x15AF1D78B58C40000000 PUSH2 0x1A0 DUP3 ADD MSTORE PUSH10 0x2B5E3AF16B1880000000 PUSH2 0x1C0 DUP3 ADD MSTORE PUSH1 0x6 SLOAD PUSH1 0xF PUSH1 0x6 SSTORE DUP1 PUSH1 0xF LT PUSH2 0x495 JUMPI JUMPDEST POP PUSH1 0x6 PUSH0 MSTORE PUSH1 0x20 PUSH0 KECCAK256 SWAP1 PUSH0 JUMPDEST PUSH1 0xF DUP2 LT PUSH2 0x478 JUMPI PUSH2 0x13D PUSH2 0x503 JUMP JUMPDEST PUSH9 0x410D586A20A4C0000 DUP2 MSTORE PUSH9 0x1043561A8829300000 PUSH1 0x20 DUP3 ADD MSTORE PUSH9 0x410D586A20A4C00000 PUSH1 0x40 DUP3 ADD MSTORE PUSH10 0x1043561A88293000000 PUSH1 0x60 DUP3 ADD MSTORE PUSH10 0x410D586A20A4C000000 PUSH1 0x80 DUP3 ADD MSTORE PUSH10 0x1043561A882930000000 PUSH1 0xA0 DUP3 ADD MSTORE PUSH10 0x410D586A20A4C0000000 PUSH1 0xC0 DUP3 ADD MSTORE PUSH1 0x7 SLOAD PUSH1 0x7 DUP1 SSTORE DUP1 PUSH1 0x7 LT PUSH2 0x422 JUMPI JUMPDEST POP PUSH1 0x7 PUSH0 MSTORE PUSH1 0x20 PUSH0 KECCAK256 SWAP1 PUSH0 JUMPDEST PUSH1 0x7 DUP2 LT PUSH2 0x405 JUMPI PUSH2 0x1D3 PUSH2 0x522 JUMP JUMPDEST PUSH9 0x56BC75E2D63100000 DUP2 MSTORE PUSH9 0xAD78EBC5AC6200000 PUSH1 0x20 DUP3 ADD MSTORE PUSH9 0x15AF1D78B58C400000 PUSH1 0x40 DUP3 ADD MSTORE PUSH9 0x2B5E3AF16B18800000 PUSH1 0x60 DUP3 ADD MSTORE PUSH9 0x56BC75E2D631000000 PUSH1 0x80 DUP3 ADD MSTORE PUSH9 0xAD78EBC5AC62000000 PUSH1 0xA0 DUP3 ADD MSTORE PUSH10 0x15AF1D78B58C4000000 PUSH1 0xC0 DUP3 ADD MSTORE PUSH10 0x2B5E3AF16B188000000 PUSH1 0xE0 DUP3 ADD MSTORE PUSH1 0x8 SLOAD PUSH1 0x8 DUP1 SSTORE DUP1 PUSH1 0x8 LT PUSH2 0x3AF JUMPI JUMPDEST POP PUSH1 0x8 PUSH0 MSTORE PUSH1 0x20 PUSH0 KECCAK256 SWAP1 PUSH0 JUMPDEST PUSH1 0x8 DUP2 LT PUSH2 0x392 JUMPI PUSH2 0x276 PUSH2 0x503 JUMP JUMPDEST PUSH1 0x3 DUP2 MSTORE PUSH1 0x5 PUSH1 0x20 DUP3 ADD MSTORE PUSH1 0x7 PUSH1 0x40 DUP3 ADD MSTORE PUSH1 0x9 PUSH1 0x60 DUP3 ADD MSTORE PUSH1 0xB PUSH1 0x80 DUP3 ADD MSTORE PUSH1 0xD PUSH1 0xA0 DUP3 ADD MSTORE PUSH1 0xF PUSH1 0xC0 DUP3 ADD MSTORE PUSH0 JUMPDEST PUSH1 0x7 DUP2 LT PUSH2 0x37A JUMPI PUSH2 0x2B6 PUSH2 0x522 JUMP JUMPDEST PUSH1 0x4 DUP2 MSTORE PUSH1 0x5 PUSH1 0x20 DUP3 ADD MSTORE PUSH1 0x6 PUSH1 0x40 DUP3 ADD MSTORE PUSH1 0x7 PUSH1 0x60 DUP3 ADD MSTORE PUSH1 0x8 PUSH1 0x80 DUP3 ADD MSTORE PUSH1 0x9 PUSH1 0xA0 DUP3 ADD MSTORE PUSH1 0xA PUSH1 0xC0 DUP3 ADD MSTORE PUSH1 0xB PUSH1 0xE0 DUP3 ADD MSTORE PUSH0 JUMPDEST PUSH1 0x8 DUP2 LT PUSH2 0x362 JUMPI PUSH2 0x2FD PUSH2 0x522 JUMP JUMPDEST PUSH0 DUP2 MSTORE PUSH1 0x1 PUSH1 0x20 DUP3 ADD MSTORE PUSH1 0x1 PUSH1 0x40 DUP3 ADD MSTORE PUSH1 0x1 PUSH1 0x60 DUP3 ADD MSTORE PUSH1 0x1 PUSH1 0x80 DUP3 ADD MSTORE PUSH1 0x1 PUSH1 0xA0 DUP3 ADD MSTORE PUSH1 0x1 PUSH1 0xC0 DUP3 ADD MSTORE PUSH1 0x1 PUSH1 0xE0 DUP3 ADD MSTORE PUSH0 JUMPDEST PUSH1 0x8 DUP2 LT PUSH2 0x34A JUMPI PUSH1 0x40 MLOAD PUSH2 0x19B3 SWAP1 DUP2 PUSH2 0x559 DUP3 CODECOPY RETURN JUMPDEST PUSH1 0x1 SWAP1 PUSH1 0x20 PUSH1 0xFF DUP5 MLOAD AND SWAP4 ADD SWAP3 DUP2 PUSH1 0x18 ADD SSTORE ADD PUSH2 0x333 JUMP JUMPDEST PUSH1 0x1 SWAP1 PUSH1 0x20 PUSH1 0xFF DUP5 MLOAD AND SWAP4 ADD SWAP3 DUP2 PUSH1 0x10 ADD SSTORE ADD PUSH2 0x2ED JUMP JUMPDEST PUSH1 0x1 SWAP1 PUSH1 0x20 PUSH1 0xFF DUP5 MLOAD AND SWAP4 ADD SWAP3 DUP2 PUSH1 0x9 ADD SSTORE ADD PUSH2 0x2A6 JUMP JUMPDEST DUP2 MLOAD PUSH1 0x1 PUSH1 0x1 PUSH1 0x50 SHL SUB AND DUP2 DUP5 ADD SSTORE PUSH1 0x20 SWAP1 SWAP2 ADD SWAP1 PUSH1 0x1 ADD PUSH2 0x266 JUMP JUMPDEST PUSH1 0x8 PUSH0 MSTORE PUSH2 0x3FF SWAP1 PUSH32 0xF3F7A9FE364FAAB93B216DA50A3214154F22A0A2B415B23A84C8169E8B636EE3 ADD PUSH32 0xF3F7A9FE364FAAB93B216DA50A3214154F22A0A2B415B23A84C8169E8B636EEB PUSH2 0x542 JUMP JUMPDEST DUP2 PUSH2 0x25A JUMP JUMPDEST DUP2 MLOAD PUSH1 0x1 PUSH1 0x1 PUSH1 0x50 SHL SUB AND DUP2 DUP5 ADD SSTORE PUSH1 0x20 SWAP1 SWAP2 ADD SWAP1 PUSH1 0x1 ADD PUSH2 0x1C3 JUMP JUMPDEST PUSH1 0x7 PUSH0 MSTORE PUSH2 0x472 SWAP1 PUSH32 0xA66CC928B5EDB82AF9BD49922954155AB7B0942694BEA4CE44661D9A8736C688 ADD PUSH32 0xA66CC928B5EDB82AF9BD49922954155AB7B0942694BEA4CE44661D9A8736C68F PUSH2 0x542 JUMP JUMPDEST DUP2 PUSH2 0x1B7 JUMP JUMPDEST DUP2 MLOAD PUSH1 0x1 PUSH1 0x1 PUSH1 0x50 SHL SUB AND DUP2 DUP5 ADD SSTORE PUSH1 0x20 SWAP1 SWAP2 ADD SWAP1 PUSH1 0x1 ADD PUSH2 0x12D JUMP JUMPDEST PUSH1 0x6 PUSH0 MSTORE PUSH2 0x4E5 SWAP1 PUSH32 0xF652222313E28459528D920B65115C16C04F3EFC82AAEDC97BE59F3F377C0D3F ADD PUSH32 0xF652222313E28459528D920B65115C16C04F3EFC82AAEDC97BE59F3F377C0D4E PUSH2 0x542 JUMP JUMPDEST PUSH0 PUSH2 0x121 JUMP JUMPDEST PUSH4 0x4E487B71 PUSH1 0xE0 SHL PUSH0 MSTORE PUSH1 0x41 PUSH1 0x4 MSTORE PUSH1 0x24 PUSH0 REVERT JUMPDEST PUSH0 DUP1 REVERT JUMPDEST PUSH1 0x40 MLOAD SWAP1 PUSH1 0xE0 DUP3 ADD PUSH1 0x1 PUSH1 0x1 PUSH1 0x40 SHL SUB DUP2 GT DUP4 DUP3 LT OR PUSH2 0x4EB JUMPI PUSH1 0x40 MSTORE JUMP JUMPDEST PUSH1 0x40 MLOAD SWAP1 PUSH2 0x100 DUP3 ADD PUSH1 0x1 PUSH1 0x1 PUSH1 0x40 SHL SUB DUP2 GT DUP4 DUP3 LT OR PUSH2 0x4EB JUMPI PUSH1 0x40 MSTORE JUMP JUMPDEST DUP2 DUP2 LT PUSH2 0x54D JUMPI POP POP JUMP JUMPDEST PUSH0 DUP2 SSTORE PUSH1 0x1 ADD PUSH2 0x542 JUMP INVALID PUSH1 0x80 DUP1 PUSH1 0x40 MSTORE PUSH1 0x4 CALLDATASIZE LT ISZERO PUSH2 0x12 JUMPI PUSH0 DUP1 REVERT JUMPDEST PUSH0 CALLDATALOAD PUSH1 0xE0 SHR SWAP1 DUP2 PUSH4 0x1C234A8 EQ PUSH2 0xBFE JUMPI POP DUP1 PUSH4 0x2132D204 EQ PUSH2 0xBD2 JUMPI DUP1 PUSH4 0x2350268F EQ PUSH2 0xB78 JUMPI DUP1 PUSH4 0x24513088 EQ PUSH2 0xB4E JUMPI DUP1 PUSH4 0x2F48AB7D EQ PUSH2 0xB27 JUMPI DUP1 PUSH4 0x32BC298C EQ PUSH2 0xB0A JUMPI DUP1 PUSH4 0x32FCD966 EQ PUSH2 0xAE8 JUMPI DUP1 PUSH4 0x375B43B4 EQ PUSH2 0xACD JUMPI DUP1 PUSH4 0x39AB3603 EQ PUSH2 0xA73 JUMPI DUP1 PUSH4 0x45977D03 EQ PUSH2 0x85E JUMPI DUP1 PUSH4 0x58C7D352 EQ PUSH2 0x843 JUMPI DUP1 PUSH4 0x78F6AD6D EQ PUSH2 0x826 JUMPI DUP1 PUSH4 0x7CDC65F2 EQ PUSH2 0x7FE JUMPI DUP1 PUSH4 0x956A3228 EQ PUSH2 0x7D2 JUMPI DUP1 PUSH4 0xAE4708DC EQ PUSH2 0x764 JUMPI DUP1 PUSH4 0xBFF1F9E1 EQ PUSH2 0x747 JUMPI DUP1 PUSH4 0xC216212A EQ PUSH2 0x70F JUMPI DUP1 PUSH4 0xD0A2FD79 EQ PUSH2 0x6E3 JUMPI DUP1 PUSH4 0xD54D6DDB EQ PUSH2 0x6C5 JUMPI DUP1 PUSH4 0xE9E34A16 EQ PUSH2 0x69D JUMPI DUP1 PUSH4 0xEC597E6F EQ PUSH2 0x680 JUMPI DUP1 PUSH4 0xF207564E EQ PUSH2 0x145 JUMPI PUSH4 0xF5D74D93 EQ PUSH2 0x119 JUMPI PUSH0 DUP1 REVERT JUMPDEST CALLVALUE PUSH2 0x141 JUMPI PUSH0 CALLDATASIZE PUSH1 0x3 NOT ADD SLT PUSH2 0x141 JUMPI PUSH1 0x3 SLOAD PUSH1 0x40 MLOAD PUSH1 0x1 PUSH1 0x1 PUSH1 0xA0 SHL SUB SWAP1 SWAP2 AND DUP2 MSTORE PUSH1 0x20 SWAP1 RETURN JUMPDEST PUSH0 DUP1 REVERT JUMPDEST CALLVALUE PUSH2 0x141 JUMPI PUSH1 0x20 CALLDATASIZE PUSH1 0x3 NOT ADD SLT PUSH2 0x141 JUMPI PUSH1 0x4 CALLDATALOAD CALLER PUSH0 MSTORE PUSH1 0x2A PUSH1 0x20 MSTORE PUSH1 0x40 PUSH0 KECCAK256 SLOAD PUSH2 0x646 JUMPI DUP1 PUSH0 MSTORE PUSH1 0x2B PUSH1 0x20 MSTORE PUSH1 0x3 PUSH1 0x40 PUSH0 KECCAK256 ADD SLOAD ISZERO PUSH2 0x60F JUMPI PUSH0 DUP1 SLOAD PUSH1 0x20 SWAP1 PUSH2 0x1D0 SWAP1 PUSH1 0x1 PUSH1 0x1 PUSH1 0xA0 SHL SUB AND PUSH2 0x19A PUSH2 0xC30 JUMP JUMPDEST SWAP1 SLOAD PUSH1 0x40 MLOAD PUSH4 0x23B872DD PUSH1 0xE0 SHL DUP2 MSTORE CALLER PUSH1 0x4 DUP3 ADD MSTORE ADDRESS PUSH1 0x24 DUP3 ADD MSTORE PUSH1 0x3 SWAP3 SWAP1 SWAP3 SHL SHR PUSH1 0x44 DUP3 ADD MSTORE SWAP4 DUP5 SWAP3 DUP4 SWAP2 SWAP1 DUP3 SWAP1 PUSH1 0x64 DUP3 ADD SWAP1 JUMP JUMPDEST SUB SWAP3 GAS CALL DUP1 ISZERO PUSH2 0x604 JUMPI PUSH2 0x5D7 JUMPI JUMPDEST POP PUSH1 0x4 SLOAD SWAP1 PUSH2 0x1F1 PUSH1 0x5 SLOAD DUP1 SWAP4 PUSH2 0xDB4 JUMP JUMPDEST SWAP2 PUSH1 0x1 DUP2 ADD DUP1 SWAP2 GT PUSH2 0x423 JUMPI PUSH1 0x5 SSTORE CALLER PUSH0 MSTORE PUSH1 0x2A PUSH1 0x20 MSTORE DUP2 PUSH1 0x40 PUSH0 KECCAK256 SSTORE DUP2 PUSH0 MSTORE PUSH1 0x2B PUSH1 0x20 MSTORE PUSH1 0x40 PUSH0 KECCAK256 SWAP1 CALLER PUSH12 0xFFFFFFFFFFFFFFFFFFFFFFFF PUSH1 0xA0 SHL DUP4 SLOAD AND OR DUP3 SSTORE TIMESTAMP PUSH1 0x2 DUP4 ADD SSTORE DUP3 PUSH1 0x3 DUP4 ADD SSTORE PUSH1 0x4 DUP3 ADD DUP2 DUP2 SSTORE PUSH1 0x1 PUSH1 0x6 DUP5 ADD SSTORE PUSH2 0x254 PUSH2 0xC30 JUMP JUMPDEST SWAP1 SLOAD SWAP1 PUSH1 0x3 SHL SHR PUSH1 0xA DUP5 ADD SSTORE TIMESTAMP PUSH1 0xF DUP5 ADD SSTORE DUP2 PUSH0 MSTORE PUSH1 0x2B PUSH1 0x20 MSTORE PUSH1 0x7 PUSH1 0x40 PUSH0 KECCAK256 ADD DUP1 SLOAD SWAP1 PUSH1 0x1 DUP3 ADD DUP1 SWAP3 GT PUSH2 0x423 JUMPI SSTORE DUP2 PUSH0 MSTORE PUSH1 0x30 PUSH1 0x20 MSTORE PUSH2 0x299 DUP5 PUSH1 0x40 PUSH0 KECCAK256 PUSH2 0x1091 JUMP JUMPDEST PUSH1 0x33 SLOAD PUSH1 0x1 PUSH1 0x40 SHL DUP2 LT ISZERO PUSH2 0x5C3 JUMPI DUP1 PUSH1 0x1 PUSH2 0x2BA SWAP3 ADD PUSH1 0x33 SSTORE PUSH1 0x33 PUSH2 0xC62 JUMP JUMPDEST DUP2 SLOAD SWAP1 PUSH1 0x3 SHL SWAP1 DUP7 DUP3 SHL SWAP2 PUSH0 NOT SWAP1 SHL NOT AND OR SWAP1 SSTORE PUSH1 0x31 SLOAD DUP5 PUSH0 MSTORE PUSH1 0x32 PUSH1 0x20 MSTORE PUSH1 0x40 PUSH0 KECCAK256 SSTORE PUSH0 PUSH0 SWAP1 DUP4 PUSH0 MSTORE PUSH1 0x2F PUSH1 0x20 MSTORE PUSH1 0x2 PUSH1 0x40 PUSH0 KECCAK256 SLOAD LT PUSH0 EQ PUSH2 0x498 JUMPI POP POP DUP4 PUSH0 MSTORE PUSH1 0x2B PUSH1 0x20 MSTORE DUP2 PUSH1 0x5 PUSH1 0x40 PUSH0 KECCAK256 ADD SSTORE DUP2 PUSH0 MSTORE PUSH1 0x2F PUSH1 0x20 MSTORE PUSH1 0x40 PUSH0 KECCAK256 DUP1 SLOAD SWAP1 PUSH1 0x1 DUP3 ADD DUP1 SWAP3 GT PUSH2 0x423 JUMPI SSTORE DUP2 JUMPDEST PUSH0 SWAP1 JUMPDEST PUSH1 0xF DUP3 LT PUSH2 0x437 JUMPI JUMPDEST POP POP PUSH2 0x371 PUSH2 0x340 PUSH2 0xC30 JUMP JUMPDEST SWAP1 SLOAD PUSH1 0x40 MLOAD SWAP2 PUSH1 0x3 SHL SHR PUSH2 0x353 DUP3 PUSH2 0xD42 JUMP JUMPDEST DUP2 MSTORE PUSH0 PUSH1 0x20 DUP3 ADD MSTORE TIMESTAMP PUSH1 0x40 DUP3 ADD MSTORE PUSH1 0x1 PUSH1 0x60 DUP3 ADD MSTORE PUSH1 0x1 DUP6 ADD PUSH2 0xDC1 JUMP JUMPDEST PUSH2 0x379 PUSH2 0xC30 JUMP JUMPDEST SWAP1 SLOAD SWAP1 PUSH1 0x3 SHL SHR SWAP1 PUSH1 0x5 DUP3 MUL DUP3 ISZERO SWAP3 DUP1 DUP3 DIV PUSH1 0x5 EQ DUP5 OR ISZERO PUSH2 0x423 JUMPI PUSH1 0x3C DUP2 MUL SWAP4 DUP2 DUP6 DIV PUSH1 0x3C EQ DUP2 OR ISZERO PUSH2 0x423 JUMPI PUSH1 0x19 DUP3 MUL SWAP2 DUP3 DIV PUSH1 0x19 EQ OR ISZERO PUSH2 0x423 JUMPI PUSH2 0x3DC SWAP4 PUSH2 0x3D4 PUSH1 0x64 DUP10 SWAP5 PUSH2 0x3CE DUP3 DUP1 SWAP7 DIV PUSH2 0x1131 JUMP JUMPDEST DIV PUSH2 0x1198 JUMP JUMPDEST DIV SWAP2 SLOAD PUSH2 0x129E JUMP JUMPDEST PUSH0 MSTORE PUSH1 0x2B PUSH1 0x20 MSTORE PUSH1 0x5 PUSH1 0x1 DUP1 PUSH1 0xA0 SHL SUB PUSH1 0x40 PUSH0 KECCAK256 SLOAD AND SWAP2 ADD SLOAD PUSH1 0x40 MLOAD SWAP1 DUP2 MSTORE PUSH32 0x309BB360E8B69C23937CCC5FB01F9AEEEAD1C95A99604E175113FF82F2B1723A PUSH1 0x20 CALLER SWAP3 LOG4 STOP JUMPDEST PUSH4 0x4E487B71 PUSH1 0xE0 SHL PUSH0 MSTORE PUSH1 0x11 PUSH1 0x4 MSTORE PUSH1 0x24 PUSH0 REVERT JUMPDEST DUP1 ISZERO PUSH2 0x493 JUMPI DUP1 PUSH0 MSTORE PUSH1 0x2B PUSH1 0x20 MSTORE PUSH1 0x9 PUSH1 0x40 PUSH0 KECCAK256 ADD DUP1 SLOAD SWAP1 PUSH1 0x1 DUP3 ADD DUP1 SWAP3 GT PUSH2 0x423 JUMPI SSTORE DUP1 PUSH0 MSTORE PUSH1 0x2E PUSH1 0x20 MSTORE PUSH1 0x40 PUSH0 KECCAK256 DUP3 PUSH0 MSTORE PUSH1 0x20 MSTORE PUSH2 0x47A DUP7 PUSH1 0x40 PUSH0 KECCAK256 PUSH2 0x1091 JUMP JUMPDEST PUSH0 MSTORE PUSH1 0x2B PUSH1 0x20 MSTORE PUSH1 0x1 PUSH1 0x5 PUSH1 0x40 PUSH0 KECCAK256 ADD SLOAD SWAP2 ADD SWAP1 PUSH2 0x32A JUMP JUMPDEST PUSH2 0x333 JUMP JUMPDEST PUSH0 JUMPDEST PUSH1 0xF DUP2 LT PUSH2 0x4AA JUMPI JUMPDEST POP POP PUSH2 0x327 JUMP JUMPDEST DUP2 PUSH2 0x5BE JUMPI DUP5 PUSH0 MSTORE PUSH1 0x2E PUSH1 0x20 MSTORE PUSH1 0x40 PUSH0 KECCAK256 PUSH1 0x1 DUP3 ADD DUP1 DUP4 GT PUSH2 0x423 JUMPI PUSH0 MSTORE PUSH1 0x20 MSTORE PUSH1 0x40 PUSH0 KECCAK256 SLOAD PUSH1 0x2 DUP3 ADD DUP1 DUP4 GT PUSH2 0x423 JUMPI PUSH1 0xFF DUP2 GT PUSH2 0x423 JUMPI PUSH1 0x1 SWAP1 SHL GT PUSH2 0x4F5 JUMPI JUMPDEST PUSH1 0x1 ADD PUSH2 0x49A JUMP JUMPDEST SWAP4 SWAP3 PUSH0 SWAP6 SWAP2 SWAP6 JUMPDEST DUP5 PUSH0 MSTORE PUSH1 0x2E PUSH1 0x20 MSTORE PUSH1 0x40 PUSH0 KECCAK256 DUP7 PUSH0 MSTORE PUSH1 0x20 MSTORE PUSH1 0x40 PUSH0 KECCAK256 SLOAD DUP2 LT ISZERO PUSH2 0x5B0 JUMPI DUP7 PUSH2 0x59F JUMPI DUP5 PUSH0 MSTORE PUSH1 0x2E PUSH1 0x20 MSTORE PUSH1 0x40 PUSH0 KECCAK256 DUP7 PUSH0 MSTORE PUSH1 0x20 MSTORE PUSH2 0x53E DUP2 PUSH1 0x40 PUSH0 KECCAK256 PUSH2 0xC62 JUMP JUMPDEST SWAP1 SLOAD SWAP1 PUSH1 0x3 SHL SHR DUP1 PUSH0 MSTORE PUSH1 0x2F PUSH1 0x20 MSTORE PUSH1 0x2 PUSH1 0x40 PUSH0 KECCAK256 SLOAD LT PUSH2 0x563 JUMPI JUMPDEST POP PUSH1 0x1 ADD PUSH2 0x4FC JUMP JUMPDEST SWAP2 SWAP4 POP SWAP6 POP DUP7 PUSH0 MSTORE PUSH1 0x2B PUSH1 0x20 MSTORE DUP1 PUSH1 0x5 PUSH1 0x40 PUSH0 KECCAK256 ADD SSTORE DUP1 PUSH0 MSTORE PUSH1 0x2F PUSH1 0x20 MSTORE PUSH1 0x40 PUSH0 KECCAK256 DUP1 SLOAD SWAP1 PUSH1 0x1 DUP3 ADD DUP1 SWAP3 GT PUSH2 0x423 JUMPI SSTORE SWAP2 PUSH1 0x1 DUP1 SWAP7 SWAP1 PUSH2 0x55A JUMP JUMPDEST POP SWAP3 SWAP4 PUSH1 0x1 SWAP1 SWAP6 SWAP2 SWAP6 JUMPDEST SWAP1 POP PUSH2 0x4ED JUMP JUMPDEST POP SWAP3 SWAP4 PUSH1 0x1 SWAP1 SWAP6 SWAP2 SWAP6 PUSH2 0x5A9 JUMP JUMPDEST PUSH2 0x4A3 JUMP JUMPDEST PUSH4 0x4E487B71 PUSH1 0xE0 SHL PUSH0 MSTORE PUSH1 0x41 PUSH1 0x4 MSTORE PUSH1 0x24 PUSH0 REVERT JUMPDEST PUSH2 0x5F8 SWAP1 PUSH1 0x20 RETURNDATASIZE PUSH1 0x20 GT PUSH2 0x5FD JUMPI JUMPDEST PUSH2 0x5F0 DUP2 DUP4 PUSH2 0xD7A JUMP JUMPDEST DUP2 ADD SWAP1 PUSH2 0xD9C JUMP JUMPDEST PUSH2 0x1DF JUMP JUMPDEST POP RETURNDATASIZE PUSH2 0x5E6 JUMP JUMPDEST PUSH1 0x40 MLOAD RETURNDATASIZE PUSH0 DUP3 RETURNDATACOPY RETURNDATASIZE SWAP1 REVERT JUMPDEST PUSH1 0x40 MLOAD PUSH3 0x461BCD PUSH1 0xE5 SHL DUP2 MSTORE PUSH1 0x20 PUSH1 0x4 DUP3 ADD MSTORE PUSH1 0xF PUSH1 0x24 DUP3 ADD MSTORE PUSH15 0x24B73B30B634B21039B837B739B7B9 PUSH1 0x89 SHL PUSH1 0x44 DUP3 ADD MSTORE PUSH1 0x64 SWAP1 REVERT JUMPDEST PUSH1 0x40 MLOAD PUSH3 0x461BCD PUSH1 0xE5 SHL DUP2 MSTORE PUSH1 0x20 PUSH1 0x4 DUP3 ADD MSTORE PUSH1 0x12 PUSH1 0x24 DUP3 ADD MSTORE PUSH18 0x105B1C9958591E481C9959DA5CDD195C9959 PUSH1 0x72 SHL PUSH1 0x44 DUP3 ADD MSTORE PUSH1 0x64 SWAP1 REVERT JUMPDEST CALLVALUE PUSH2 0x141 JUMPI PUSH0 CALLDATASIZE PUSH1 0x3 NOT ADD SLT PUSH2 0x141 JUMPI PUSH1 0x20 PUSH1 0x4 SLOAD PUSH1 0x40 MLOAD SWAP1 DUP2 MSTORE RETURN JUMPDEST CALLVALUE PUSH2 0x141 JUMPI PUSH0 CALLDATASIZE PUSH1 0x3 NOT ADD SLT PUSH2 0x141 JUMPI PUSH1 0x2 SLOAD PUSH1 0x40 MLOAD PUSH1 0x1 PUSH1 0x1 PUSH1 0xA0 SHL SUB SWAP1 SWAP2 AND DUP2 MSTORE PUSH1 0x20 SWAP1 RETURN JUMPDEST CALLVALUE PUSH2 0x141 JUMPI PUSH1 0x20 CALLDATASIZE PUSH1 0x3 NOT ADD SLT PUSH2 0x141 JUMPI PUSH2 0x6E1 PUSH1 0x4 CALLDATALOAD PUSH2 0xE83 JUMP JUMPDEST STOP JUMPDEST CALLVALUE PUSH2 0x141 JUMPI PUSH1 0x20 CALLDATASIZE PUSH1 0x3 NOT ADD SLT PUSH2 0x141 JUMPI PUSH1 0x4 CALLDATALOAD PUSH1 0x8 DUP2 LT ISZERO PUSH2 0x141 JUMPI PUSH1 0x20 SWAP1 PUSH1 0x10 ADD SLOAD PUSH1 0x40 MLOAD SWAP1 DUP2 MSTORE RETURN JUMPDEST CALLVALUE PUSH2 0x141 JUMPI PUSH1 0x20 CALLDATASIZE PUSH1 0x3 NOT ADD SLT PUSH2 0x141 JUMPI PUSH1 0x4 CALLDATALOAD PUSH1 0x6 SLOAD DUP2 LT ISZERO PUSH2 0x141 JUMPI PUSH2 0x738 PUSH1 0x20 SWAP2 PUSH2 0xC18 JUMP JUMPDEST SWAP1 SLOAD SWAP1 PUSH1 0x3 SHL SHR PUSH1 0x40 MLOAD SWAP1 DUP2 MSTORE RETURN JUMPDEST CALLVALUE PUSH2 0x141 JUMPI PUSH0 CALLDATASIZE PUSH1 0x3 NOT ADD SLT PUSH2 0x141 JUMPI PUSH1 0x20 PUSH1 0x5 SLOAD PUSH1 0x40 MLOAD SWAP1 DUP2 MSTORE RETURN JUMPDEST CALLVALUE PUSH2 0x141 JUMPI PUSH1 0x20 CALLDATASIZE PUSH1 0x3 NOT ADD SLT PUSH2 0x141 JUMPI PUSH1 0x4 CALLDATALOAD PUSH1 0x7 SLOAD DUP2 LT ISZERO PUSH2 0x141 JUMPI PUSH1 0x7 SLOAD DUP2 LT ISZERO PUSH2 0x7BE JUMPI PUSH1 0x7 PUSH0 MSTORE PUSH32 0xA66CC928B5EDB82AF9BD49922954155AB7B0942694BEA4CE44661D9A8736C688 ADD SLOAD PUSH1 0x40 MLOAD SWAP1 DUP2 MSTORE PUSH1 0x20 SWAP1 RETURN JUMPDEST PUSH4 0x4E487B71 PUSH1 0xE0 SHL PUSH0 MSTORE PUSH1 0x32 PUSH1 0x4 MSTORE PUSH1 0x24 PUSH0 REVERT JUMPDEST CALLVALUE PUSH2 0x141 JUMPI PUSH1 0x20 CALLDATASIZE PUSH1 0x3 NOT ADD SLT PUSH2 0x141 JUMPI PUSH1 0x4 CALLDATALOAD PUSH1 0x8 DUP2 LT ISZERO PUSH2 0x141 JUMPI PUSH1 0x20 SWAP1 PUSH1 0x18 ADD SLOAD PUSH1 0x40 MLOAD SWAP1 DUP2 MSTORE RETURN JUMPDEST CALLVALUE PUSH2 0x141 JUMPI PUSH0 CALLDATASIZE PUSH1 0x3 NOT ADD SLT PUSH2 0x141 JUMPI PUSH1 0x1 SLOAD PUSH1 0x40 MLOAD PUSH1 0x1 PUSH1 0x1 PUSH1 0xA0 SHL SUB SWAP1 SWAP2 AND DUP2 MSTORE PUSH1 0x20 SWAP1 RETURN JUMPDEST CALLVALUE PUSH2 0x141 JUMPI PUSH0 CALLDATASIZE PUSH1 0x3 NOT ADD SLT PUSH2 0x141 JUMPI PUSH1 0x20 PUSH1 0x31 SLOAD PUSH1 0x40 MLOAD SWAP1 DUP2 MSTORE RETURN JUMPDEST CALLVALUE PUSH2 0x141 JUMPI PUSH0 CALLDATASIZE PUSH1 0x3 NOT ADD SLT PUSH2 0x141 JUMPI PUSH1 0x20 PUSH1 0x40 MLOAD PUSH1 0xA DUP2 MSTORE RETURN JUMPDEST CALLVALUE PUSH2 0x141 JUMPI PUSH1 0x20 CALLDATASIZE PUSH1 0x3 NOT ADD SLT PUSH2 0x141 JUMPI PUSH1 0x4 CALLDATALOAD DUP1 PUSH0 MSTORE PUSH1 0x2B PUSH1 0x20 MSTORE PUSH1 0x40 PUSH0 KECCAK256 PUSH2 0x892 PUSH1 0x1 DUP1 PUSH1 0xA0 SHL SUB DUP3 SLOAD AND CALLER EQ PUSH2 0xD03 JUMP JUMPDEST PUSH1 0x6 DUP2 ADD SWAP1 DUP2 SLOAD SWAP2 PUSH1 0xF DUP4 LT ISZERO PUSH2 0xA37 JUMPI PUSH2 0x8AC DUP4 PUSH2 0xC18 JUMP JUMPDEST SWAP1 SLOAD PUSH0 DUP1 SLOAD PUSH1 0x40 MLOAD PUSH4 0x23B872DD PUSH1 0xE0 SHL DUP2 MSTORE CALLER PUSH1 0x4 DUP3 ADD MSTORE ADDRESS PUSH1 0x24 DUP3 ADD MSTORE PUSH1 0x3 SWAP5 SWAP1 SWAP5 SHL SWAP3 SWAP1 SWAP3 SHR PUSH1 0x44 DUP5 ADD DUP2 SWAP1 MSTORE SWAP4 SWAP3 SWAP2 PUSH1 0x20 SWAP2 DUP4 SWAP2 PUSH1 0x64 SWAP2 DUP4 SWAP2 PUSH1 0x1 PUSH1 0x1 PUSH1 0xA0 SHL SUB AND GAS CALL DUP1 ISZERO PUSH2 0x604 JUMPI PUSH2 0xA1A JUMPI JUMPDEST POP DUP1 SLOAD SWAP1 PUSH1 0x1 DUP3 ADD DUP1 SWAP3 GT PUSH2 0x423 JUMPI SSTORE PUSH1 0xA DUP3 ADD PUSH2 0x91D DUP3 DUP3 SLOAD PUSH2 0xDB4 JUMP JUMPDEST SWAP1 SSTORE PUSH2 0x94D PUSH1 0x40 MLOAD PUSH2 0x92E DUP2 PUSH2 0xD42 JUMP JUMPDEST DUP3 DUP2 MSTORE PUSH0 PUSH1 0x20 DUP3 ADD MSTORE TIMESTAMP PUSH1 0x40 DUP3 ADD MSTORE PUSH1 0x1 PUSH1 0x60 DUP3 ADD MSTORE PUSH1 0x1 DUP5 ADD PUSH2 0xDC1 JUMP JUMPDEST PUSH1 0x5 DUP2 MUL DUP2 ISZERO SWAP1 DUP3 DUP2 DIV PUSH1 0x5 EQ DUP3 OR ISZERO PUSH2 0x423 JUMPI PUSH1 0x19 DUP4 MUL DUP4 DUP2 DIV PUSH1 0x19 EQ DUP4 OR ISZERO PUSH2 0x423 JUMPI PUSH2 0x983 SWAP2 PUSH2 0x3CE PUSH1 0x64 DUP1 SWAP4 DIV PUSH2 0x1131 JUMP JUMPDEST PUSH1 0x14 DUP3 MUL SWAP2 DUP3 DIV PUSH1 0x14 EQ OR ISZERO PUSH2 0x423 JUMPI PUSH1 0x64 SWAP1 DIV SWAP2 PUSH1 0x4 DUP3 ADD SLOAD PUSH1 0x1 DUP3 ADD SWAP4 DUP5 DUP4 GT PUSH2 0x423 JUMPI DUP6 PUSH1 0x5 PUSH2 0x9D1 SWAP6 PUSH2 0x9BD DUP9 DUP6 DUP6 DUP3 SWAP9 PUSH2 0x13DE JUMP JUMPDEST ADD PUSH2 0x9CB DUP5 DUP5 DUP5 DUP5 SLOAD PUSH2 0x152F JUMP JUMPDEST SLOAD PUSH2 0x1718 JUMP JUMPDEST PUSH1 0x40 MLOAD SWAP1 DUP2 MSTORE PUSH1 0x40 PUSH1 0x20 DUP3 ADD MSTORE PUSH1 0x4 PUSH1 0x40 DUP3 ADD MSTORE PUSH4 0x14DB1BDD PUSH1 0xE2 SHL PUSH1 0x60 DUP3 ADD MSTORE PUSH32 0xBABB6A363FD9A057996D09882C0B74B710D121707D19EEFFD91C51C3171A7C91 PUSH1 0x80 CALLER SWAP3 LOG3 STOP JUMPDEST PUSH2 0xA32 SWAP1 PUSH1 0x20 RETURNDATASIZE PUSH1 0x20 GT PUSH2 0x5FD JUMPI PUSH2 0x5F0 DUP2 DUP4 PUSH2 0xD7A JUMP JUMPDEST PUSH2 0x8FE JUMP JUMPDEST PUSH1 0x40 MLOAD PUSH3 0x461BCD PUSH1 0xE5 SHL DUP2 MSTORE PUSH1 0x20 PUSH1 0x4 DUP3 ADD MSTORE PUSH1 0x14 PUSH1 0x24 DUP3 ADD MSTORE PUSH20 0x105B1C9958591E48185D081B585E081B195D995B PUSH1 0x62 SHL PUSH1 0x44 DUP3 ADD MSTORE PUSH1 0x64 SWAP1 REVERT JUMPDEST CALLVALUE PUSH2 0x141 JUMPI PUSH1 0x20 CALLDATASIZE PUSH1 0x3 NOT ADD SLT PUSH2 0x141 JUMPI PUSH1 0x4 CALLDATALOAD PUSH1 0x33 SLOAD DUP2 LT ISZERO PUSH2 0x141 JUMPI PUSH1 0x33 SLOAD DUP2 LT ISZERO PUSH2 0x7BE JUMPI PUSH1 0x33 PUSH0 MSTORE PUSH32 0x82A75BDEEAE8604D839476AE9EFD8B0E15AA447E21BFD7F41283BB54E22C9A82 ADD SLOAD PUSH1 0x40 MLOAD SWAP1 DUP2 MSTORE PUSH1 0x20 SWAP1 RETURN JUMPDEST CALLVALUE PUSH2 0x141 JUMPI PUSH0 CALLDATASIZE PUSH1 0x3 NOT ADD SLT PUSH2 0x141 JUMPI PUSH1 0x20 PUSH1 0x40 MLOAD PUSH1 0xF DUP2 MSTORE RETURN JUMPDEST CALLVALUE PUSH2 0x141 JUMPI PUSH0 CALLDATASIZE PUSH1 0x3 NOT ADD SLT PUSH2 0x141 JUMPI PUSH1 0x20 PUSH1 0x40 MLOAD PUSH8 0xDE0B6B3A7640000 DUP2 MSTORE RETURN JUMPDEST CALLVALUE PUSH2 0x141 JUMPI PUSH0 CALLDATASIZE PUSH1 0x3 NOT ADD SLT PUSH2 0x141 JUMPI PUSH1 0x20 PUSH1 0x40 MLOAD PUSH3 0x15180 DUP2 MSTORE RETURN JUMPDEST CALLVALUE PUSH2 0x141 JUMPI PUSH0 CALLDATASIZE PUSH1 0x3 NOT ADD SLT PUSH2 0x141 JUMPI PUSH0 SLOAD PUSH1 0x40 MLOAD PUSH1 0x1 PUSH1 0x1 PUSH1 0xA0 SHL SUB SWAP1 SWAP2 AND DUP2 MSTORE PUSH1 0x20 SWAP1 RETURN JUMPDEST CALLVALUE PUSH2 0x141 JUMPI PUSH1 0x20 CALLDATASIZE PUSH1 0x3 NOT ADD SLT PUSH2 0x141 JUMPI PUSH1 0x40 PUSH2 0xB6C PUSH1 0x4 CALLDATALOAD PUSH2 0xCA2 JUMP JUMPDEST DUP3 MLOAD SWAP2 DUP3 MSTORE PUSH1 0x20 DUP3 ADD MSTORE RETURN JUMPDEST CALLVALUE PUSH2 0x141 JUMPI PUSH1 0x20 CALLDATASIZE PUSH1 0x3 NOT ADD SLT PUSH2 0x141 JUMPI PUSH1 0x4 CALLDATALOAD PUSH1 0x8 SLOAD DUP2 LT ISZERO PUSH2 0x141 JUMPI PUSH1 0x8 SLOAD DUP2 LT ISZERO PUSH2 0x7BE JUMPI PUSH1 0x8 PUSH0 MSTORE PUSH32 0xF3F7A9FE364FAAB93B216DA50A3214154F22A0A2B415B23A84C8169E8B636EE3 ADD SLOAD PUSH1 0x40 MLOAD SWAP1 DUP2 MSTORE PUSH1 0x20 SWAP1 RETURN JUMPDEST CALLVALUE PUSH2 0x141 JUMPI PUSH1 0x20 CALLDATASIZE PUSH1 0x3 NOT ADD SLT PUSH2 0x141 JUMPI PUSH1 0x4 CALLDATALOAD PUSH1 0x7 DUP2 LT ISZERO PUSH2 0x141 JUMPI PUSH1 0x20 SWAP1 PUSH1 0x9 ADD SLOAD PUSH1 0x40 MLOAD SWAP1 DUP2 MSTORE RETURN JUMPDEST CALLVALUE PUSH2 0x141 JUMPI PUSH0 CALLDATASIZE PUSH1 0x3 NOT ADD SLT PUSH2 0x141 JUMPI DUP1 PUSH2 0x2710 PUSH1 0x20 SWAP3 MSTORE RETURN JUMPDEST PUSH1 0x6 SLOAD DUP2 LT ISZERO PUSH2 0x7BE JUMPI PUSH1 0x6 PUSH0 MSTORE PUSH1 0x20 PUSH0 KECCAK256 ADD SWAP1 PUSH0 SWAP1 JUMP JUMPDEST PUSH1 0x6 SLOAD ISZERO PUSH2 0x7BE JUMPI PUSH1 0x6 PUSH0 SWAP1 DUP2 MSTORE PUSH32 0xF652222313E28459528D920B65115C16C04F3EFC82AAEDC97BE59F3F377C0D3F SWAP2 JUMP JUMPDEST DUP1 SLOAD DUP3 LT ISZERO PUSH2 0x7BE JUMPI PUSH0 MSTORE PUSH1 0x20 PUSH0 KECCAK256 ADD SWAP1 PUSH0 SWAP1 JUMP JUMPDEST SWAP2 SWAP1 DUP3 SUB SWAP2 DUP3 GT PUSH2 0x423 JUMPI JUMP JUMPDEST DUP2 ISZERO PUSH2 0xC8E JUMPI DIV SWAP1 JUMP JUMPDEST PUSH4 0x4E487B71 PUSH1 0xE0 SHL PUSH0 MSTORE PUSH1 0x12 PUSH1 0x4 MSTORE PUSH1 0x24 PUSH0 REVERT JUMPDEST SWAP1 DUP2 PUSH0 MSTORE PUSH1 0x2B PUSH1 0x20 MSTORE PUSH1 0x3 PUSH1 0x40 PUSH0 KECCAK256 ADD SLOAD ISZERO PUSH2 0xCFC JUMPI PUSH1 0x31 SLOAD DUP3 PUSH0 MSTORE PUSH1 0x32 PUSH1 0x20 MSTORE PUSH1 0x40 PUSH0 KECCAK256 SLOAD SWAP1 DUP2 DUP2 GT ISZERO PUSH2 0xCF2 JUMPI PUSH2 0xCE7 PUSH2 0xCEF SWAP3 PUSH8 0xDE0B6B3A7640000 SWAP3 PUSH2 0xC77 JUMP JUMPDEST DIV DUP1 SWAP4 PUSH2 0x10C5 JUMP JUMPDEST SWAP1 JUMP JUMPDEST POP POP SWAP1 POP PUSH0 SWAP1 PUSH0 SWAP1 JUMP JUMPDEST PUSH0 SWAP2 POP DUP2 SWAP1 JUMP JUMPDEST ISZERO PUSH2 0xD0A JUMPI JUMP JUMPDEST PUSH1 0x40 MLOAD PUSH3 0x461BCD PUSH1 0xE5 SHL DUP2 MSTORE PUSH1 0x20 PUSH1 0x4 DUP3 ADD MSTORE PUSH1 0x10 PUSH1 0x24 DUP3 ADD MSTORE PUSH16 0x139BDD081E5BDD5C881858D8DBDD5B9D PUSH1 0x82 SHL PUSH1 0x44 DUP3 ADD MSTORE PUSH1 0x64 SWAP1 REVERT JUMPDEST PUSH1 0x80 DUP2 ADD SWAP1 DUP2 LT PUSH8 0xFFFFFFFFFFFFFFFF DUP3 GT OR PUSH2 0x5C3 JUMPI PUSH1 0x40 MSTORE JUMP JUMPDEST PUSH1 0xA0 DUP2 ADD SWAP1 DUP2 LT PUSH8 0xFFFFFFFFFFFFFFFF DUP3 GT OR PUSH2 0x5C3 JUMPI PUSH1 0x40 MSTORE JUMP JUMPDEST SWAP1 PUSH1 0x1F DUP1 NOT SWAP2 ADD AND DUP2 ADD SWAP1 DUP2 LT PUSH8 0xFFFFFFFFFFFFFFFF DUP3 GT OR PUSH2 0x5C3 JUMPI PUSH1 0x40 MSTORE JUMP JUMPDEST SWAP1 DUP2 PUSH1 0x20 SWAP2 SUB SLT PUSH2 0x141 JUMPI MLOAD DUP1 ISZERO ISZERO DUP2 SUB PUSH2 0x141 JUMPI SWAP1 JUMP JUMPDEST SWAP2 SWAP1 DUP3 ADD DUP1 SWAP3 GT PUSH2 0x423 JUMPI JUMP JUMPDEST DUP1 SLOAD PUSH1 0x1 PUSH1 0x40 SHL DUP2 LT ISZERO PUSH2 0x5C3 JUMPI PUSH1 0x1 DUP2 ADD DUP1 DUP4 SSTORE DUP2 LT ISZERO PUSH2 0x7BE JUMPI PUSH1 0x3 PUSH1 0x60 SWAP2 PUSH1 0xFF SWAP4 PUSH0 MSTORE PUSH1 0x20 PUSH0 KECCAK256 SWAP1 PUSH1 0x2 SHL ADD DUP5 MLOAD DUP2 SSTORE PUSH1 0x20 DUP6 ADD MLOAD PUSH1 0x1 DUP3 ADD SSTORE PUSH1 0x40 DUP6 ADD MLOAD PUSH1 0x2 DUP3 ADD SSTORE ADD SWAP3 ADD MLOAD AND PUSH1 0xFF NOT DUP3 SLOAD AND OR SWAP1 SSTORE JUMP JUMPDEST DUP2 DUP2 MUL SWAP3 SWAP2 DUP2 ISZERO SWAP2 DUP5 DIV EQ OR ISZERO PUSH2 0x423 JUMPI JUMP JUMPDEST DUP1 SLOAD SWAP1 PUSH1 0x1 PUSH1 0x40 SHL DUP3 LT ISZERO PUSH2 0x5C3 JUMPI PUSH1 0x1 DUP3 ADD DUP1 DUP3 SSTORE DUP3 LT ISZERO PUSH2 0x7BE JUMPI PUSH1 0x4 SWAP2 PUSH1 0x80 SWAP2 PUSH0 MSTORE PUSH1 0x5 PUSH1 0x20 PUSH0 KECCAK256 SWAP2 MUL ADD SWAP3 DUP1 MLOAD DUP5 SSTORE PUSH1 0x20 DUP2 ADD MLOAD PUSH1 0x1 DUP6 ADD SSTORE PUSH1 0x40 DUP2 ADD MLOAD PUSH1 0x2 DUP6 ADD SSTORE PUSH1 0x60 DUP2 ADD MLOAD PUSH1 0x3 DUP6 ADD SSTORE ADD MLOAD SWAP2 ADD SSTORE JUMP JUMPDEST DUP1 PUSH0 MSTORE PUSH1 0x2B PUSH1 0x20 MSTORE PUSH1 0x40 PUSH0 KECCAK256 SWAP1 PUSH1 0x3 DUP3 ADD SLOAD ISZERO PUSH2 0x105B JUMPI PUSH2 0xEAE PUSH1 0x1 DUP1 PUSH1 0xA0 SHL SUB DUP4 SLOAD AND CALLER EQ PUSH2 0xD03 JUMP JUMPDEST PUSH1 0x31 SLOAD SWAP2 DUP2 PUSH0 MSTORE PUSH1 0x32 PUSH1 0x20 MSTORE PUSH1 0x40 PUSH0 KECCAK256 SLOAD DUP1 DUP5 EQ PUSH2 0x1055 JUMPI PUSH2 0xED9 PUSH8 0xDE0B6B3A7640000 SWAP2 DUP6 PUSH2 0xC77 JUMP JUMPDEST DIV SWAP2 DUP3 ISZERO PUSH2 0x1044 JUMPI PUSH2 0xEEB DUP4 DUP3 PUSH2 0x10C5 JUMP JUMPDEST SWAP4 DUP2 PUSH0 MSTORE PUSH1 0x32 PUSH1 0x20 MSTORE PUSH1 0x40 PUSH0 KECCAK256 SSTORE DUP4 DUP1 PUSH2 0xF21 JUMPI JUMPDEST SWAP2 POP POP DUP2 GT PUSH2 0xF0D JUMPI POP POP JUMP JUMPDEST PUSH2 0xF1F SWAP2 PUSH2 0xF1A SWAP2 PUSH2 0xC77 JUMP JUMPDEST PUSH2 0x1198 JUMP JUMPDEST JUMP JUMPDEST PUSH2 0xFC9 SWAP3 PUSH2 0xF8B DUP4 PUSH1 0x20 SWAP5 PUSH0 MSTORE PUSH1 0x2C DUP6 MSTORE PUSH1 0x7 PUSH1 0x40 PUSH0 KECCAK256 PUSH2 0xF43 DUP7 DUP3 SLOAD PUSH2 0xDB4 JUMP JUMPDEST DUP2 SSTORE ADD PUSH2 0xF51 DUP6 DUP3 SLOAD PUSH2 0xDB4 JUMP JUMPDEST SWAP1 SSTORE DUP1 PUSH0 MSTORE PUSH1 0x2D DUP6 MSTORE PUSH1 0x40 PUSH0 KECCAK256 PUSH1 0x40 MLOAD SWAP2 PUSH2 0xF6B DUP4 PUSH2 0xD5E JUMP JUMPDEST DUP3 MSTORE DUP5 DUP7 DUP4 ADD MSTORE PUSH1 0x1 PUSH1 0x40 DUP4 ADD MSTORE TIMESTAMP PUSH1 0x60 DUP4 ADD MSTORE PUSH1 0x9 PUSH1 0x80 DUP4 ADD MSTORE PUSH2 0xE2B JUMP JUMPDEST PUSH0 DUP1 SLOAD SWAP2 SLOAD PUSH1 0x40 MLOAD PUSH4 0xA9059CBB PUSH1 0xE0 SHL DUP2 MSTORE PUSH1 0x1 PUSH1 0x1 PUSH1 0xA0 SHL SUB SWAP2 DUP3 AND PUSH1 0x4 DUP3 ADD MSTORE PUSH1 0x24 DUP2 ADD SWAP5 SWAP1 SWAP5 MSTORE SWAP3 SWAP5 DUP6 SWAP4 SWAP1 SWAP3 AND SWAP2 DUP4 SWAP2 SWAP1 DUP3 SWAP1 PUSH1 0x44 DUP3 ADD SWAP1 JUMP JUMPDEST SUB SWAP3 GAS CALL SWAP1 DUP2 ISZERO PUSH2 0x604 JUMPI PUSH0 SWAP2 PUSH2 0x1025 JUMPI JUMPDEST POP ISZERO PUSH2 0xFE9 JUMPI PUSH0 DUP1 DUP4 PUSH2 0xF00 JUMP JUMPDEST PUSH1 0x40 MLOAD PUSH3 0x461BCD PUSH1 0xE5 SHL DUP2 MSTORE PUSH1 0x20 PUSH1 0x4 DUP3 ADD MSTORE PUSH1 0x14 PUSH1 0x24 DUP3 ADD MSTORE PUSH20 0x1554D115081D1C985B9CD9995C8819985A5B1959 PUSH1 0x62 SHL PUSH1 0x44 DUP3 ADD MSTORE PUSH1 0x64 SWAP1 REVERT JUMPDEST PUSH2 0x103E SWAP2 POP PUSH1 0x20 RETURNDATASIZE PUSH1 0x20 GT PUSH2 0x5FD JUMPI PUSH2 0x5F0 DUP2 DUP4 PUSH2 0xD7A JUMP JUMPDEST PUSH0 PUSH2 0xFDB JUMP JUMPDEST SWAP2 POP POP PUSH0 MSTORE PUSH1 0x32 PUSH1 0x20 MSTORE PUSH1 0x40 PUSH0 KECCAK256 SSTORE JUMP JUMPDEST POP POP POP POP JUMP JUMPDEST PUSH1 0x40 MLOAD PUSH3 0x461BCD PUSH1 0xE5 SHL DUP2 MSTORE PUSH1 0x20 PUSH1 0x4 DUP3 ADD MSTORE PUSH1 0xE PUSH1 0x24 DUP3 ADD MSTORE PUSH14 0x155CD95C881B9BDD08199BDD5B99 PUSH1 0x92 SHL PUSH1 0x44 DUP3 ADD MSTORE PUSH1 0x64 SWAP1 REVERT JUMPDEST DUP1 SLOAD PUSH1 0x1 PUSH1 0x40 SHL DUP2 LT ISZERO PUSH2 0x5C3 JUMPI PUSH2 0x10AE SWAP2 PUSH1 0x1 DUP3 ADD DUP2 SSTORE PUSH2 0xC62 JUMP JUMPDEST DUP2 SWAP3 SWAP2 SLOAD SWAP1 PUSH1 0x3 SHL SWAP2 DUP3 SHL SWAP2 PUSH0 NOT SWAP1 SHL NOT AND OR SWAP1 SSTORE JUMP JUMPDEST DUP1 PUSH0 MSTORE PUSH1 0x2B PUSH1 0x20 MSTORE PUSH1 0x40 PUSH0 KECCAK256 SWAP1 PUSH0 MSTORE PUSH1 0x2C PUSH1 0x20 MSTORE PUSH1 0xA PUSH2 0x10FB PUSH1 0x40 PUSH0 KECCAK256 SWAP3 PUSH1 0xF SWAP1 PUSH1 0x1 PUSH1 0x8 DUP3 ADD SLOAD GT PUSH2 0x1128 JUMPI JUMPDEST DUP4 ADD SLOAD PUSH2 0xE18 JUMP JUMPDEST DIV SWAP1 SLOAD DUP2 DUP2 LT ISZERO PUSH2 0x1121 JUMPI PUSH2 0x110F SWAP2 PUSH2 0xC77 JUMP JUMPDEST SWAP1 DUP2 DUP2 GT ISZERO PUSH2 0x111C JUMPI POP SWAP1 JUMP JUMPDEST SWAP1 POP SWAP1 JUMP JUMPDEST POP POP POP PUSH0 SWAP1 JUMP JUMPDEST PUSH1 0x14 SWAP2 POP PUSH2 0x10F3 JUMP JUMPDEST PUSH1 0x33 SLOAD SWAP1 DUP2 ISZERO DUP1 ISZERO PUSH2 0x1190 JUMPI JUMPDEST PUSH2 0x117D JUMPI PUSH8 0xDE0B6B3A7640000 DUP2 MUL SWAP1 DUP1 DUP3 DIV PUSH8 0xDE0B6B3A7640000 EQ SWAP1 ISZERO OR ISZERO PUSH2 0x423 JUMPI PUSH2 0x1178 SWAP2 PUSH2 0x1170 SWAP2 PUSH2 0xC84 JUMP JUMPDEST PUSH1 0x31 SLOAD PUSH2 0xDB4 JUMP JUMPDEST PUSH1 0x31 SSTORE JUMP JUMPDEST DUP1 SWAP2 POP PUSH2 0x1187 JUMPI POP JUMP JUMPDEST PUSH2 0xF1F SWAP1 PUSH2 0x1198 JUMP JUMPDEST POP DUP1 ISZERO PUSH2 0x113E JUMP JUMPDEST PUSH1 0x1 SLOAD PUSH1 0x1 PUSH1 0x1 PUSH1 0xA0 SHL SUB AND SWAP1 DUP2 ISZERO PUSH2 0x1265 JUMPI PUSH0 DUP1 SLOAD PUSH1 0x40 MLOAD PUSH4 0xA9059CBB PUSH1 0xE0 SHL DUP2 MSTORE PUSH1 0x1 PUSH1 0x1 PUSH1 0xA0 SHL SUB SWAP5 DUP6 AND PUSH1 0x4 DUP3 ADD MSTORE PUSH1 0x24 DUP2 ADD DUP5 SWAP1 MSTORE SWAP4 PUSH1 0x20 SWAP3 DUP6 SWAP3 PUSH1 0x44 SWAP3 DUP5 SWAP3 SWAP2 AND GAS CALL SWAP2 DUP3 ISZERO PUSH2 0x604 JUMPI PUSH2 0xF1F SWAP3 PUSH2 0x1248 JUMPI JUMPDEST POP PUSH1 0x4 SLOAD PUSH0 MSTORE PUSH1 0x2C PUSH1 0x20 MSTORE PUSH1 0x40 PUSH0 KECCAK256 PUSH2 0x120B DUP3 DUP3 SLOAD PUSH2 0xDB4 JUMP JUMPDEST SWAP1 SSTORE PUSH1 0x4 SLOAD PUSH0 MSTORE PUSH1 0x2D PUSH1 0x20 MSTORE PUSH1 0x40 PUSH0 KECCAK256 PUSH1 0x40 MLOAD SWAP2 PUSH2 0x1228 DUP4 PUSH2 0xD5E JUMP JUMPDEST PUSH0 DUP4 MSTORE PUSH1 0x20 DUP4 ADD MSTORE PUSH0 PUSH1 0x40 DUP4 ADD MSTORE TIMESTAMP PUSH1 0x60 DUP4 ADD MSTORE PUSH1 0x5 PUSH1 0x80 DUP4 ADD MSTORE PUSH2 0xE2B JUMP JUMPDEST PUSH2 0x1260 SWAP1 PUSH1 0x20 RETURNDATASIZE PUSH1 0x20 GT PUSH2 0x5FD JUMPI PUSH2 0x5F0 DUP2 DUP4 PUSH2 0xD7A JUMP JUMPDEST PUSH2 0x11F1 JUMP JUMPDEST PUSH1 0x40 MLOAD PUSH3 0x461BCD PUSH1 0xE5 SHL DUP2 MSTORE PUSH1 0x20 PUSH1 0x4 DUP3 ADD MSTORE PUSH1 0x11 PUSH1 0x24 DUP3 ADD MSTORE PUSH17 0x199959481859191C9CC81B9BDD081CD95D PUSH1 0x7A SHL PUSH1 0x44 DUP3 ADD MSTORE PUSH1 0x64 SWAP1 REVERT JUMPDEST DUP1 ISZERO DUP1 ISZERO PUSH2 0x13D3 JUMPI JUMPDEST PUSH2 0x13C8 JUMPI PUSH0 DUP2 DUP2 MSTORE PUSH1 0x2B PUSH1 0x20 SWAP1 DUP2 MSTORE PUSH1 0x40 DUP1 DUP4 KECCAK256 DUP4 SLOAD DUP2 SLOAD SWAP3 MLOAD PUSH4 0xA9059CBB PUSH1 0xE0 SHL DUP2 MSTORE PUSH1 0x1 PUSH1 0x1 PUSH1 0xA0 SHL SUB SWAP4 DUP5 AND PUSH1 0x4 DUP3 ADD MSTORE PUSH1 0x24 DUP2 ADD DUP10 SWAP1 MSTORE SWAP2 SWAP6 SWAP5 SWAP2 SWAP4 SWAP3 DUP5 SWAP3 PUSH1 0x44 SWAP3 DUP5 SWAP3 AND GAS CALL DUP1 ISZERO PUSH2 0x604 JUMPI PUSH2 0x13AB JUMPI JUMPDEST POP DUP1 PUSH0 MSTORE PUSH1 0x2C PUSH1 0x20 MSTORE PUSH1 0x1 PUSH1 0x40 PUSH0 KECCAK256 PUSH2 0x1317 DUP7 DUP3 SLOAD PUSH2 0xDB4 JUMP JUMPDEST DUP2 SSTORE ADD PUSH2 0x1325 DUP6 DUP3 SLOAD PUSH2 0xDB4 JUMP JUMPDEST SWAP1 SSTORE PUSH0 MSTORE PUSH1 0x2D PUSH1 0x20 MSTORE PUSH2 0x1364 PUSH1 0x40 PUSH0 KECCAK256 PUSH1 0x40 MLOAD SWAP1 PUSH2 0x1342 DUP3 PUSH2 0xD5E JUMP JUMPDEST DUP5 DUP3 MSTORE DUP6 PUSH1 0x20 DUP4 ADD MSTORE PUSH1 0x1 PUSH1 0x40 DUP4 ADD MSTORE TIMESTAMP PUSH1 0x60 DUP4 ADD MSTORE PUSH1 0x1 PUSH1 0x80 DUP4 ADD MSTORE PUSH2 0xE2B JUMP JUMPDEST PUSH1 0x1 DUP1 PUSH1 0xA0 SHL SUB SWAP1 SLOAD AND SWAP1 PUSH0 MSTORE PUSH1 0x2B PUSH1 0x20 MSTORE PUSH0 MLOAD PUSH1 0x20 PUSH2 0x195E PUSH0 CODECOPY PUSH0 MLOAD SWAP1 PUSH0 MSTORE PUSH1 0x60 PUSH1 0x1 DUP1 PUSH1 0xA0 SHL SUB PUSH1 0x40 PUSH0 KECCAK256 SLOAD AND SWAP4 PUSH1 0x40 MLOAD SWAP1 DUP2 MSTORE PUSH1 0x1 PUSH1 0x20 DUP3 ADD MSTORE PUSH1 0x1 PUSH1 0x40 DUP3 ADD MSTORE LOG3 JUMP JUMPDEST PUSH2 0x13C3 SWAP1 PUSH1 0x20 RETURNDATASIZE PUSH1 0x20 GT PUSH2 0x5FD JUMPI PUSH2 0x5F0 DUP2 DUP4 PUSH2 0xD7A JUMP JUMPDEST PUSH2 0x12FD JUMP JUMPDEST POP POP PUSH2 0xF1F SWAP1 PUSH2 0x1198 JUMP JUMPDEST POP PUSH1 0x4 SLOAD DUP2 EQ PUSH2 0x12A7 JUMP JUMPDEST SWAP1 SWAP2 DUP2 ISZERO DUP1 ISZERO PUSH2 0x1516 JUMPI JUMPDEST PUSH2 0x1509 JUMPI PUSH0 DUP3 DUP2 MSTORE PUSH1 0x2B PUSH1 0x20 SWAP1 DUP2 MSTORE PUSH1 0x40 DUP1 DUP4 KECCAK256 DUP4 SLOAD DUP2 SLOAD SWAP3 MLOAD PUSH4 0xA9059CBB PUSH1 0xE0 SHL DUP2 MSTORE PUSH1 0x1 PUSH1 0x1 PUSH1 0xA0 SHL SUB SWAP4 DUP5 AND PUSH1 0x4 DUP3 ADD MSTORE PUSH1 0x24 DUP2 ADD DUP8 SWAP1 MSTORE SWAP7 SWAP6 SWAP5 SWAP2 SWAP4 SWAP3 DUP8 SWAP3 PUSH1 0x44 SWAP3 DUP5 SWAP3 AND GAS CALL SWAP3 DUP4 ISZERO PUSH2 0x604 JUMPI PUSH0 MLOAD PUSH1 0x20 PUSH2 0x195E PUSH0 CODECOPY PUSH0 MLOAD SWAP1 PUSH0 MSTORE SWAP5 PUSH1 0x60 SWAP5 PUSH2 0x14EC JUMPI JUMPDEST POP DUP1 PUSH0 MSTORE PUSH1 0x2C PUSH1 0x20 MSTORE PUSH1 0x1 PUSH1 0x40 PUSH0 KECCAK256 PUSH2 0x146C DUP6 DUP3 SLOAD PUSH2 0xDB4 JUMP JUMPDEST DUP2 SSTORE ADD PUSH2 0x147A DUP5 DUP3 SLOAD PUSH2 0xDB4 JUMP JUMPDEST SWAP1 SSTORE PUSH0 MSTORE PUSH1 0x2D PUSH1 0x20 MSTORE PUSH2 0x14B7 PUSH1 0x40 PUSH0 KECCAK256 PUSH1 0x40 MLOAD SWAP1 PUSH2 0x1497 DUP3 PUSH2 0xD5E JUMP JUMPDEST DUP8 DUP3 MSTORE DUP5 PUSH1 0x20 DUP4 ADD MSTORE DUP9 PUSH1 0x40 DUP4 ADD MSTORE TIMESTAMP DUP7 DUP4 ADD MSTORE PUSH1 0x1 PUSH1 0x80 DUP4 ADD MSTORE PUSH2 0xE2B JUMP JUMPDEST PUSH1 0x1 DUP1 PUSH1 0xA0 SHL SUB SWAP1 SLOAD AND SWAP4 PUSH0 MSTORE PUSH1 0x2B PUSH1 0x20 MSTORE PUSH1 0x1 DUP1 PUSH1 0xA0 SHL SUB PUSH1 0x40 PUSH0 KECCAK256 SLOAD AND SWAP5 PUSH1 0x40 MLOAD SWAP2 DUP3 MSTORE PUSH1 0x20 DUP3 ADD MSTORE PUSH1 0x1 PUSH1 0x40 DUP3 ADD MSTORE LOG3 JUMP JUMPDEST PUSH2 0x1504 SWAP1 PUSH1 0x20 RETURNDATASIZE PUSH1 0x20 GT PUSH2 0x5FD JUMPI PUSH2 0x5F0 DUP2 DUP4 PUSH2 0xD7A JUMP JUMPDEST PUSH2 0x1452 JUMP JUMPDEST SWAP2 POP POP PUSH2 0xF1F SWAP2 POP PUSH2 0x1198 JUMP JUMPDEST POP PUSH1 0x4 SLOAD DUP3 EQ PUSH2 0x13E9 JUMP JUMPDEST PUSH0 NOT DUP2 EQ PUSH2 0x423 JUMPI PUSH1 0x1 ADD SWAP1 JUMP JUMPDEST SWAP4 SWAP2 SWAP4 SWAP3 SWAP1 SWAP3 PUSH1 0x4 SLOAD DUP2 EQ DUP1 ISZERO PUSH2 0x1710 JUMPI JUMPDEST PUSH2 0x1703 JUMPI PUSH1 0x1 JUMPDEST DUP3 DUP2 LT PUSH2 0x16D2 JUMPI POP SWAP3 PUSH0 SWAP4 JUMPDEST DUP1 ISZERO ISZERO DUP1 PUSH2 0x16C6 JUMPI JUMPDEST DUP1 PUSH2 0x16BC JUMPI JUMPDEST ISZERO PUSH2 0x16AE JUMPI DUP1 PUSH0 MSTORE PUSH1 0x2B PUSH1 0x20 MSTORE PUSH1 0x40 PUSH0 KECCAK256 SWAP1 DUP4 PUSH1 0x6 DUP4 ADD SLOAD LT ISZERO PUSH2 0x1596 JUMPI POP PUSH1 0x5 PUSH2 0x1590 SWAP2 ADD SLOAD SWAP5 PUSH2 0x1521 JUMP JUMPDEST SWAP4 PUSH2 0x1554 JUMP JUMPDEST PUSH0 DUP1 SLOAD DUP4 SLOAD PUSH1 0x40 MLOAD PUSH4 0xA9059CBB PUSH1 0xE0 SHL DUP2 MSTORE PUSH1 0x1 PUSH1 0x1 PUSH1 0xA0 SHL SUB SWAP2 DUP3 AND PUSH1 0x4 DUP3 ADD MSTORE PUSH1 0x24 DUP2 ADD DUP12 SWAP1 MSTORE SWAP8 SWAP10 SWAP7 SWAP9 POP SWAP5 SWAP7 SWAP6 SWAP3 SWAP5 SWAP3 SWAP4 SWAP3 PUSH1 0x20 SWAP3 DUP8 SWAP3 PUSH1 0x44 SWAP3 DUP5 SWAP3 SWAP2 AND GAS CALL SWAP3 DUP4 ISZERO PUSH2 0x604 JUMPI PUSH0 MLOAD PUSH1 0x20 PUSH2 0x195E PUSH0 CODECOPY PUSH0 MLOAD SWAP1 PUSH0 MSTORE SWAP5 PUSH1 0x60 SWAP5 PUSH2 0x1692 JUMPI JUMPDEST POP DUP1 PUSH0 MSTORE PUSH1 0x2C PUSH1 0x20 MSTORE PUSH1 0x2 PUSH1 0x40 PUSH0 KECCAK256 PUSH2 0x1612 DUP6 DUP3 SLOAD PUSH2 0xDB4 JUMP JUMPDEST DUP2 SSTORE ADD PUSH2 0x1620 DUP5 DUP3 SLOAD PUSH2 0xDB4 JUMP JUMPDEST SWAP1 SSTORE PUSH0 MSTORE PUSH1 0x2D PUSH1 0x20 MSTORE PUSH2 0x165D PUSH1 0x40 PUSH0 KECCAK256 PUSH1 0x40 MLOAD SWAP1 PUSH2 0x163D DUP3 PUSH2 0xD5E JUMP JUMPDEST DUP8 DUP3 MSTORE DUP5 PUSH1 0x20 DUP4 ADD MSTORE DUP9 PUSH1 0x40 DUP4 ADD MSTORE TIMESTAMP DUP7 DUP4 ADD MSTORE PUSH1 0x2 PUSH1 0x80 DUP4 ADD MSTORE PUSH2 0xE2B JUMP JUMPDEST PUSH1 0x1 DUP1 PUSH1 0xA0 SHL SUB SWAP1 SLOAD AND SWAP4 PUSH0 MSTORE PUSH1 0x2B PUSH1 0x20 MSTORE PUSH1 0x1 DUP1 PUSH1 0xA0 SHL SUB PUSH1 0x40 PUSH0 KECCAK256 SLOAD AND SWAP5 PUSH1 0x40 MLOAD SWAP2 DUP3 MSTORE PUSH1 0x20 DUP3 ADD MSTORE PUSH1 0x2 PUSH1 0x40 DUP3 ADD MSTORE LOG3 JUMP JUMPDEST PUSH2 0x16A9 SWAP1 PUSH1 0x20 RETURNDATASIZE DUP2 GT PUSH2 0x5FD JUMPI PUSH2 0x5F0 DUP2 DUP4 PUSH2 0xD7A JUMP JUMPDEST PUSH2 0x15F8 JUMP JUMPDEST POP POP POP SWAP2 PUSH2 0xF1F SWAP2 POP PUSH2 0x1198 JUMP JUMPDEST POP PUSH1 0xF DUP6 LT PUSH2 0x1563 JUMP JUMPDEST POP PUSH1 0x4 SLOAD DUP2 EQ ISZERO PUSH2 0x155D JUMP JUMPDEST SWAP1 PUSH0 MSTORE PUSH1 0x2B PUSH1 0x20 MSTORE PUSH1 0x5 PUSH1 0x40 PUSH0 KECCAK256 ADD SLOAD SWAP1 DUP2 ISZERO DUP1 ISZERO PUSH2 0x16F8 JUMPI JUMPDEST PUSH2 0x16AE JUMPI PUSH1 0x1 ADD PUSH2 0x1548 JUMP JUMPDEST POP PUSH1 0x4 SLOAD DUP3 EQ PUSH2 0x16EC JUMP JUMPDEST POP POP SWAP2 PUSH2 0xF1F SWAP2 POP PUSH2 0x1198 JUMP JUMPDEST POP DUP1 ISZERO PUSH2 0x1541 JUMP JUMPDEST SWAP4 SWAP3 SWAP1 SWAP3 DUP5 ISZERO DUP1 ISZERO PUSH2 0x1952 JUMPI JUMPDEST DUP1 ISZERO PUSH2 0x194A JUMPI JUMPDEST PUSH2 0x193C JUMPI SWAP2 SWAP1 PUSH2 0x173C DUP4 DUP4 PUSH2 0xC84 JUMP JUMPDEST SWAP3 PUSH2 0x1750 PUSH2 0x174A DUP3 DUP7 PUSH2 0xE18 JUMP JUMPDEST DUP5 PUSH2 0xC77 JUMP JUMPDEST SWAP6 SWAP2 PUSH0 SWAP5 PUSH1 0x1 SWAP7 PUSH0 SWAP5 JUMPDEST DUP5 DUP7 LT PUSH2 0x178F JUMPI POP POP POP POP POP POP PUSH2 0x1771 SWAP3 POP PUSH2 0xC77 JUMP JUMPDEST DUP1 PUSH2 0x1780 JUMPI JUMPDEST POP DUP1 PUSH2 0x1187 JUMPI POP JUMP JUMPDEST PUSH2 0x1789 SWAP1 PUSH2 0x1198 JUMP JUMPDEST PUSH0 PUSH2 0x1777 JUMP JUMPDEST SWAP1 SWAP2 SWAP3 SWAP4 SWAP5 SWAP6 SWAP7 DUP2 ISZERO DUP1 ISZERO PUSH2 0x1931 JUMPI JUMPDEST PUSH2 0x1917 JUMPI DUP2 PUSH0 MSTORE PUSH1 0x2B PUSH1 0x20 MSTORE PUSH1 0x40 PUSH0 KECCAK256 SWAP9 DUP6 PUSH1 0x6 DUP12 ADD SLOAD LT ISZERO PUSH0 EQ PUSH2 0x1900 JUMPI PUSH2 0x17C8 SWAP1 DUP6 PUSH2 0xE18 JUMP JUMPDEST PUSH0 DUP4 DUP2 MSTORE PUSH1 0x2B PUSH1 0x20 SWAP1 DUP2 MSTORE PUSH1 0x40 DUP1 DUP4 KECCAK256 SLOAD DUP4 SLOAD SWAP2 MLOAD PUSH4 0xA9059CBB PUSH1 0xE0 SHL DUP2 MSTORE PUSH1 0x1 PUSH1 0x1 PUSH1 0xA0 SHL SUB SWAP2 DUP3 AND PUSH1 0x4 DUP3 ADD DUP2 SWAP1 MSTORE PUSH1 0x24 DUP3 ADD DUP8 SWAP1 MSTORE SWAP1 SWAP8 SWAP6 SWAP7 SWAP6 SWAP1 SWAP5 SWAP1 SWAP4 SWAP3 DUP9 SWAP3 PUSH1 0x44 SWAP3 DUP5 SWAP3 SWAP1 SWAP2 AND GAS CALL SWAP5 DUP6 ISZERO PUSH2 0x604 JUMPI PUSH2 0x18CB SWAP6 PUSH2 0x18E4 JUMPI JUMPDEST POP DUP1 PUSH0 MSTORE PUSH1 0x2C PUSH1 0x20 MSTORE PUSH1 0x3 PUSH1 0x40 PUSH0 KECCAK256 PUSH2 0x1840 DUP7 DUP3 SLOAD PUSH2 0xDB4 JUMP JUMPDEST DUP2 SSTORE ADD PUSH2 0x184E DUP6 DUP3 SLOAD PUSH2 0xDB4 JUMP JUMPDEST SWAP1 SSTORE PUSH0 MSTORE PUSH1 0x2D PUSH1 0x20 MSTORE PUSH2 0x188C PUSH1 0x40 PUSH0 KECCAK256 PUSH1 0x40 MLOAD SWAP1 PUSH2 0x186B DUP3 PUSH2 0xD5E JUMP JUMPDEST DUP8 DUP3 MSTORE DUP6 PUSH1 0x20 DUP4 ADD MSTORE DUP10 PUSH1 0x40 DUP4 ADD MSTORE TIMESTAMP PUSH1 0x60 DUP4 ADD MSTORE PUSH1 0x4 PUSH1 0x80 DUP4 ADD MSTORE PUSH2 0xE2B JUMP JUMPDEST DUP5 PUSH0 MSTORE PUSH1 0x2B PUSH1 0x20 MSTORE PUSH1 0x1 DUP1 PUSH1 0xA0 SHL SUB PUSH1 0x40 PUSH0 KECCAK256 SLOAD AND SWAP1 PUSH0 MLOAD PUSH1 0x20 PUSH2 0x195E PUSH0 CODECOPY PUSH0 MLOAD SWAP1 PUSH0 MSTORE PUSH1 0x60 PUSH1 0x40 MLOAD DUP7 DUP2 MSTORE DUP11 PUSH1 0x20 DUP3 ADD MSTORE PUSH1 0x4 PUSH1 0x40 DUP3 ADD MSTORE LOG3 PUSH2 0xDB4 JUMP JUMPDEST SWAP7 PUSH1 0x1 PUSH1 0x5 DUP2 SWAP3 JUMPDEST ADD SLOAD SWAP7 ADD SWAP5 SWAP4 SWAP3 SWAP2 SWAP1 SWAP8 SWAP7 SWAP6 PUSH2 0x175A JUMP JUMPDEST PUSH2 0x18FB SWAP1 PUSH1 0x20 RETURNDATASIZE DUP2 GT PUSH2 0x5FD JUMPI PUSH2 0x5F0 DUP2 DUP4 PUSH2 0xD7A JUMP JUMPDEST PUSH2 0x1826 JUMP JUMPDEST PUSH1 0x1 SWAP2 SWAP10 SWAP3 POP PUSH2 0x1911 PUSH1 0x5 SWAP2 PUSH2 0x1521 JUMP JUMPDEST SWAP3 PUSH2 0x18D3 JUMP JUMPDEST SWAP8 POP POP POP POP POP POP POP PUSH2 0x1929 SWAP3 POP PUSH2 0xC77 JUMP JUMPDEST DUP1 PUSH2 0x1187 JUMPI POP JUMP JUMPDEST POP PUSH1 0x4 SLOAD DUP3 EQ PUSH2 0x179F JUMP JUMPDEST POP POP SWAP1 POP PUSH2 0xF1F SWAP2 POP PUSH2 0x1198 JUMP JUMPDEST POP DUP1 ISZERO PUSH2 0x172C JUMP JUMPDEST POP PUSH1 0x4 SLOAD DUP6 EQ PUSH2 0x1725 JUMP INVALID RJUMPI 0x7B61 0xD3 0x24 0xCE OR ORIGIN DUP16 NUMBER RETURNDATASIZE EXP 0xB6 0x25 DUP2 0xC0 CREATE 0xAA SWAP10 PUSH20 0x12BAE80FBDFCD2AA9B91D6E3A264697066735822 SLT KECCAK256 0xC PUSH0 0xDA SSTORE RETF 0xBD SELFBALANCE 0xD9 PUSH13 0x20AB7AFBB811C2DF0A56DA93E8 0x4F EQ EXTDELEGATECALL TSTORE CALLVALUE 0xFC SWAP9 0xD5 DUP4 SWAP9 PUSH5 0x736F6C6343 STOP ADDMOD 0x1E STOP CALLER "
				},
				"gasEstimates": {
					"creation": {
						"codeDepositCost": "1315800",
						"executionCost": "infinite",
						"totalCost": "infinite"
					},
					"external": {
						"ACC_PRECISION()": "285",
						"PERCENTS_DIVIDER()": "148",
						"ROI_CAP_DIVIDER()": "373",
						"ROI_CAP_MULTIPLIER()": "307",
						"TIME_STEP()": "263",
						"claimCommunity(uint256)": "infinite",
						"communityAccPerUser()": "2498",
						"creatorWallet()": "2544",
						"defaultRefId()": "2696",
						"glbBoosterPackages(uint256)": "6571",
						"minLevelForGlbBooster(uint256)": "2668",
						"minLevelForPool(uint256)": "2316",
						"minPoolForGlbBooster(uint256)": "2580",
						"packages(uint256)": "6964",
						"pendingCommunity(uint256)": "infinite",
						"poolPackages(uint256)": "6835",
						"register(uint256)": "infinite",
						"registeredUserIds(uint256)": "6703",
						"systemMaintance()": "2698",
						"teamDevelopment()": "2761",
						"totalUsers()": "2586",
						"upgrade(uint256)": "infinite",
						"usdt()": "2367"
					},
					"internal": {
						"_accrueCommunityBonus(uint256)": "infinite",
						"_applyGlobalCapping(uint256,uint256)": "6721",
						"_distributeLevelBoosterIncome(uint256,uint256,uint256,uint256,uint256)": "infinite",
						"_distributeLevelIncome(uint256,uint256,uint256,uint256,uint256)": "infinite",
						"_distributeMatrixIncome(uint256,uint256,uint256,uint256)": "infinite",
						"_distributeSponsorIncome(uint256,uint256,uint256,uint256)": "infinite",
						"_findEligibleSponsor(uint256,uint256)": "infinite",
						"_payLevelBooster(uint256,uint256,uint256,uint256)": "infinite",
						"_placeInMatrix(uint256,uint256)": "infinite"
					}
				},
				"methodIdentifiers": {
					"ACC_PRECISION()": "32fcd966",
					"PERCENTS_DIVIDER()": "01c234a8",
					"ROI_CAP_DIVIDER()": "58c7d352",
					"ROI_CAP_MULTIPLIER()": "375b43b4",
					"TIME_STEP()": "32bc298c",
					"claimCommunity(uint256)": "d54d6ddb",
					"communityAccPerUser()": "78f6ad6d",
					"creatorWallet()": "7cdc65f2",
					"defaultRefId()": "ec597e6f",
					"glbBoosterPackages(uint256)": "2350268f",
					"minLevelForGlbBooster(uint256)": "d0a2fd79",
					"minLevelForPool(uint256)": "2132d204",
					"minPoolForGlbBooster(uint256)": "956a3228",
					"packages(uint256)": "c216212a",
					"pendingCommunity(uint256)": "24513088",
					"poolPackages(uint256)": "ae4708dc",
					"register(uint256)": "f207564e",
					"registeredUserIds(uint256)": "39ab3603",
					"systemMaintance()": "e9e34a16",
					"teamDevelopment()": "f5d74d93",
					"totalUsers()": "bff1f9e1",
					"upgrade(uint256)": "45977d03",
					"usdt()": "2f48ab7d"
				}
			},
			"storageLayout": {
				"storage": [
					{
						"astId": 1643,
						"contract": "contracts/modules/SponsorMatrix.sol:Nanakshahi",
						"label": "usdt",
						"offset": 0,
						"slot": "0",
						"type": "t_contract(IERC20)68"
					},
					{
						"astId": 1645,
						"contract": "contracts/modules/SponsorMatrix.sol:Nanakshahi",
						"label": "creatorWallet",
						"offset": 0,
						"slot": "1",
						"type": "t_address"
					},
					{
						"astId": 1647,
						"contract": "contracts/modules/SponsorMatrix.sol:Nanakshahi",
						"label": "systemMaintance",
						"offset": 0,
						"slot": "2",
						"type": "t_address"
					},
					{
						"astId": 1649,
						"contract": "contracts/modules/SponsorMatrix.sol:Nanakshahi",
						"label": "teamDevelopment",
						"offset": 0,
						"slot": "3",
						"type": "t_address"
					},
					{
						"astId": 1651,
						"contract": "contracts/modules/SponsorMatrix.sol:Nanakshahi",
						"label": "defaultRefId",
						"offset": 0,
						"slot": "4",
						"type": "t_uint256"
					},
					{
						"astId": 1653,
						"contract": "contracts/modules/SponsorMatrix.sol:Nanakshahi",
						"label": "totalUsers",
						"offset": 0,
						"slot": "5",
						"type": "t_uint256"
					},
					{
						"astId": 1717,
						"contract": "contracts/modules/SponsorMatrix.sol:Nanakshahi",
						"label": "packages",
						"offset": 0,
						"slot": "6",
						"type": "t_array(t_uint256)dyn_storage"
					},
					{
						"astId": 1728,
						"contract": "contracts/modules/SponsorMatrix.sol:Nanakshahi",
						"label": "poolPackages",
						"offset": 0,
						"slot": "7",
						"type": "t_array(t_uint256)dyn_storage"
					},
					{
						"astId": 1740,
						"contract": "contracts/modules/SponsorMatrix.sol:Nanakshahi",
						"label": "glbBoosterPackages",
						"offset": 0,
						"slot": "8",
						"type": "t_array(t_uint256)dyn_storage"
					},
					{
						"astId": 1752,
						"contract": "contracts/modules/SponsorMatrix.sol:Nanakshahi",
						"label": "minLevelForPool",
						"offset": 0,
						"slot": "9",
						"type": "t_array(t_uint256)7_storage"
					},
					{
						"astId": 1765,
						"contract": "contracts/modules/SponsorMatrix.sol:Nanakshahi",
						"label": "minLevelForGlbBooster",
						"offset": 0,
						"slot": "16",
						"type": "t_array(t_uint256)8_storage"
					},
					{
						"astId": 1778,
						"contract": "contracts/modules/SponsorMatrix.sol:Nanakshahi",
						"label": "minPoolForGlbBooster",
						"offset": 0,
						"slot": "24",
						"type": "t_array(t_uint256)8_storage"
					},
					{
						"astId": 1886,
						"contract": "contracts/modules/SponsorMatrix.sol:Nanakshahi",
						"label": "userPooltopup",
						"offset": 0,
						"slot": "32",
						"type": "t_mapping(t_uint256,t_mapping(t_uint256,t_struct(UserPoolTopup)1870_storage))"
					},
					{
						"astId": 1893,
						"contract": "contracts/modules/SponsorMatrix.sol:Nanakshahi",
						"label": "userPooldtl",
						"offset": 0,
						"slot": "33",
						"type": "t_mapping(t_uint256,t_mapping(t_uint256,t_struct(UserPool)1865_storage))"
					},
					{
						"astId": 1900,
						"contract": "contracts/modules/SponsorMatrix.sol:Nanakshahi",
						"label": "userChildren",
						"offset": 0,
						"slot": "34",
						"type": "t_mapping(t_uint256,t_mapping(t_uint256,t_array(t_uint256)dyn_storage))"
					},
					{
						"astId": 1907,
						"contract": "contracts/modules/SponsorMatrix.sol:Nanakshahi",
						"label": "userIdPerPool",
						"offset": 0,
						"slot": "35",
						"type": "t_mapping(t_uint256,t_mapping(t_uint256,t_array(t_uint256)dyn_storage))"
					},
					{
						"astId": 1912,
						"contract": "contracts/modules/SponsorMatrix.sol:Nanakshahi",
						"label": "poolUsers",
						"offset": 0,
						"slot": "36",
						"type": "t_mapping(t_uint256,t_array(t_uint256)dyn_storage)"
					},
					{
						"astId": 1918,
						"contract": "contracts/modules/SponsorMatrix.sol:Nanakshahi",
						"label": "userHasPool",
						"offset": 0,
						"slot": "37",
						"type": "t_mapping(t_uint256,t_mapping(t_uint256,t_bool))"
					},
					{
						"astId": 1925,
						"contract": "contracts/modules/SponsorMatrix.sol:Nanakshahi",
						"label": "userBoosterdtl",
						"offset": 0,
						"slot": "38",
						"type": "t_mapping(t_uint256,t_mapping(t_uint256,t_struct(UserBooster)1879_storage))"
					},
					{
						"astId": 1932,
						"contract": "contracts/modules/SponsorMatrix.sol:Nanakshahi",
						"label": "userBoosterChildren",
						"offset": 0,
						"slot": "39",
						"type": "t_mapping(t_uint256,t_mapping(t_uint256,t_array(t_uint256)dyn_storage))"
					},
					{
						"astId": 1937,
						"contract": "contracts/modules/SponsorMatrix.sol:Nanakshahi",
						"label": "boosterUsers",
						"offset": 0,
						"slot": "40",
						"type": "t_mapping(t_uint256,t_array(t_uint256)dyn_storage)"
					},
					{
						"astId": 1943,
						"contract": "contracts/modules/SponsorMatrix.sol:Nanakshahi",
						"label": "userHasbooster",
						"offset": 0,
						"slot": "41",
						"type": "t_mapping(t_uint256,t_mapping(t_uint256,t_bool))"
					},
					{
						"astId": 1969,
						"contract": "contracts/modules/SponsorMatrix.sol:Nanakshahi",
						"label": "addressToId",
						"offset": 0,
						"slot": "42",
						"type": "t_mapping(t_address,t_uint256)"
					},
					{
						"astId": 1974,
						"contract": "contracts/modules/SponsorMatrix.sol:Nanakshahi",
						"label": "users",
						"offset": 0,
						"slot": "43",
						"type": "t_mapping(t_uint256,t_struct(User)1822_storage)"
					},
					{
						"astId": 1979,
						"contract": "contracts/modules/SponsorMatrix.sol:Nanakshahi",
						"label": "userIncomes",
						"offset": 0,
						"slot": "44",
						"type": "t_mapping(t_uint256,t_struct(UserIncome)1843_storage)"
					},
					{
						"astId": 1985,
						"contract": "contracts/modules/SponsorMatrix.sol:Nanakshahi",
						"label": "incomeHistory",
						"offset": 0,
						"slot": "45",
						"type": "t_mapping(t_uint256,t_array(t_struct(Income)1854_storage)dyn_storage)"
					},
					{
						"astId": 1992,
						"contract": "contracts/modules/SponsorMatrix.sol:Nanakshahi",
						"label": "teams",
						"offset": 0,
						"slot": "46",
						"type": "t_mapping(t_uint256,t_mapping(t_uint256,t_array(t_uint256)dyn_storage))"
					},
					{
						"astId": 1996,
						"contract": "contracts/modules/SponsorMatrix.sol:Nanakshahi",
						"label": "matrixDirect",
						"offset": 0,
						"slot": "47",
						"type": "t_mapping(t_uint256,t_uint256)"
					},
					{
						"astId": 2001,
						"contract": "contracts/modules/SponsorMatrix.sol:Nanakshahi",
						"label": "directReferrals",
						"offset": 0,
						"slot": "48",
						"type": "t_mapping(t_uint256,t_array(t_uint256)dyn_storage)"
					},
					{
						"astId": 2006,
						"contract": "contracts/modules/SponsorMatrix.sol:Nanakshahi",
						"label": "communityAccPerUser",
						"offset": 0,
						"slot": "49",
						"type": "t_uint256"
					},
					{
						"astId": 2010,
						"contract": "contracts/modules/SponsorMatrix.sol:Nanakshahi",
						"label": "communityDebt",
						"offset": 0,
						"slot": "50",
						"type": "t_mapping(t_uint256,t_uint256)"
					},
					{
						"astId": 2013,
						"contract": "contracts/modules/SponsorMatrix.sol:Nanakshahi",
						"label": "registeredUserIds",
						"offset": 0,
						"slot": "51",
						"type": "t_array(t_uint256)dyn_storage"
					},
					{
						"astId": 2015,
						"contract": "contracts/modules/SponsorMatrix.sol:Nanakshahi",
						"label": "nonce",
						"offset": 0,
						"slot": "52",
						"type": "t_uint256"
					}
				],
				"types": {
					"t_address": {
						"encoding": "inplace",
						"label": "address",
						"numberOfBytes": "20"
					},
					"t_array(t_struct(Deposit)1787_storage)dyn_storage": {
						"base": "t_struct(Deposit)1787_storage",
						"encoding": "dynamic_array",
						"label": "struct Storage.Deposit[]",
						"numberOfBytes": "32"
					},
					"t_array(t_struct(Income)1854_storage)dyn_storage": {
						"base": "t_struct(Income)1854_storage",
						"encoding": "dynamic_array",
						"label": "struct Storage.Income[]",
						"numberOfBytes": "32"
					},
					"t_array(t_uint256)7_storage": {
						"base": "t_uint256",
						"encoding": "inplace",
						"label": "uint256[7]",
						"numberOfBytes": "224"
					},
					"t_array(t_uint256)8_storage": {
						"base": "t_uint256",
						"encoding": "inplace",
						"label": "uint256[8]",
						"numberOfBytes": "256"
					},
					"t_array(t_uint256)dyn_storage": {
						"base": "t_uint256",
						"encoding": "dynamic_array",
						"label": "uint256[]",
						"numberOfBytes": "32"
					},
					"t_bool": {
						"encoding": "inplace",
						"label": "bool",
						"numberOfBytes": "1"
					},
					"t_contract(IERC20)68": {
						"encoding": "inplace",
						"label": "contract IERC20",
						"numberOfBytes": "20"
					},
					"t_mapping(t_address,t_uint256)": {
						"encoding": "mapping",
						"key": "t_address",
						"label": "mapping(address => uint256)",
						"numberOfBytes": "32",
						"value": "t_uint256"
					},
					"t_mapping(t_uint256,t_array(t_struct(Income)1854_storage)dyn_storage)": {
						"encoding": "mapping",
						"key": "t_uint256",
						"label": "mapping(uint256 => struct Storage.Income[])",
						"numberOfBytes": "32",
						"value": "t_array(t_struct(Income)1854_storage)dyn_storage"
					},
					"t_mapping(t_uint256,t_array(t_uint256)dyn_storage)": {
						"encoding": "mapping",
						"key": "t_uint256",
						"label": "mapping(uint256 => uint256[])",
						"numberOfBytes": "32",
						"value": "t_array(t_uint256)dyn_storage"
					},
					"t_mapping(t_uint256,t_bool)": {
						"encoding": "mapping",
						"key": "t_uint256",
						"label": "mapping(uint256 => bool)",
						"numberOfBytes": "32",
						"value": "t_bool"
					},
					"t_mapping(t_uint256,t_mapping(t_uint256,t_array(t_uint256)dyn_storage))": {
						"encoding": "mapping",
						"key": "t_uint256",
						"label": "mapping(uint256 => mapping(uint256 => uint256[]))",
						"numberOfBytes": "32",
						"value": "t_mapping(t_uint256,t_array(t_uint256)dyn_storage)"
					},
					"t_mapping(t_uint256,t_mapping(t_uint256,t_bool))": {
						"encoding": "mapping",
						"key": "t_uint256",
						"label": "mapping(uint256 => mapping(uint256 => bool))",
						"numberOfBytes": "32",
						"value": "t_mapping(t_uint256,t_bool)"
					},
					"t_mapping(t_uint256,t_mapping(t_uint256,t_struct(UserBooster)1879_storage))": {
						"encoding": "mapping",
						"key": "t_uint256",
						"label": "mapping(uint256 => mapping(uint256 => struct Storage.UserBooster))",
						"numberOfBytes": "32",
						"value": "t_mapping(t_uint256,t_struct(UserBooster)1879_storage)"
					},
					"t_mapping(t_uint256,t_mapping(t_uint256,t_struct(UserPool)1865_storage))": {
						"encoding": "mapping",
						"key": "t_uint256",
						"label": "mapping(uint256 => mapping(uint256 => struct Storage.UserPool))",
						"numberOfBytes": "32",
						"value": "t_mapping(t_uint256,t_struct(UserPool)1865_storage)"
					},
					"t_mapping(t_uint256,t_mapping(t_uint256,t_struct(UserPoolTopup)1870_storage))": {
						"encoding": "mapping",
						"key": "t_uint256",
						"label": "mapping(uint256 => mapping(uint256 => struct Storage.UserPoolTopup))",
						"numberOfBytes": "32",
						"value": "t_mapping(t_uint256,t_struct(UserPoolTopup)1870_storage)"
					},
					"t_mapping(t_uint256,t_struct(User)1822_storage)": {
						"encoding": "mapping",
						"key": "t_uint256",
						"label": "mapping(uint256 => struct Storage.User)",
						"numberOfBytes": "32",
						"value": "t_struct(User)1822_storage"
					},
					"t_mapping(t_uint256,t_struct(UserBooster)1879_storage)": {
						"encoding": "mapping",
						"key": "t_uint256",
						"label": "mapping(uint256 => struct Storage.UserBooster)",
						"numberOfBytes": "32",
						"value": "t_struct(UserBooster)1879_storage"
					},
					"t_mapping(t_uint256,t_struct(UserIncome)1843_storage)": {
						"encoding": "mapping",
						"key": "t_uint256",
						"label": "mapping(uint256 => struct Storage.UserIncome)",
						"numberOfBytes": "32",
						"value": "t_struct(UserIncome)1843_storage"
					},
					"t_mapping(t_uint256,t_struct(UserPool)1865_storage)": {
						"encoding": "mapping",
						"key": "t_uint256",
						"label": "mapping(uint256 => struct Storage.UserPool)",
						"numberOfBytes": "32",
						"value": "t_struct(UserPool)1865_storage"
					},
					"t_mapping(t_uint256,t_struct(UserPoolTopup)1870_storage)": {
						"encoding": "mapping",
						"key": "t_uint256",
						"label": "mapping(uint256 => struct Storage.UserPoolTopup)",
						"numberOfBytes": "32",
						"value": "t_struct(UserPoolTopup)1870_storage"
					},
					"t_mapping(t_uint256,t_uint256)": {
						"encoding": "mapping",
						"key": "t_uint256",
						"label": "mapping(uint256 => uint256)",
						"numberOfBytes": "32",
						"value": "t_uint256"
					},
					"t_struct(Deposit)1787_storage": {
						"encoding": "inplace",
						"label": "struct Storage.Deposit",
						"members": [
							{
								"astId": 1780,
								"contract": "contracts/modules/SponsorMatrix.sol:Nanakshahi",
								"label": "amount",
								"offset": 0,
								"slot": "0",
								"type": "t_uint256"
							},
							{
								"astId": 1782,
								"contract": "contracts/modules/SponsorMatrix.sol:Nanakshahi",
								"label": "withdrawn",
								"offset": 0,
								"slot": "1",
								"type": "t_uint256"
							},
							{
								"astId": 1784,
								"contract": "contracts/modules/SponsorMatrix.sol:Nanakshahi",
								"label": "start",
								"offset": 0,
								"slot": "2",
								"type": "t_uint256"
							},
							{
								"astId": 1786,
								"contract": "contracts/modules/SponsorMatrix.sol:Nanakshahi",
								"label": "depositType",
								"offset": 0,
								"slot": "3",
								"type": "t_uint8"
							}
						],
						"numberOfBytes": "128"
					},
					"t_struct(Income)1854_storage": {
						"encoding": "inplace",
						"label": "struct Storage.Income",
						"members": [
							{
								"astId": 1845,
								"contract": "contracts/modules/SponsorMatrix.sol:Nanakshahi",
								"label": "fromUserId",
								"offset": 0,
								"slot": "0",
								"type": "t_uint256"
							},
							{
								"astId": 1847,
								"contract": "contracts/modules/SponsorMatrix.sol:Nanakshahi",
								"label": "amount",
								"offset": 0,
								"slot": "1",
								"type": "t_uint256"
							},
							{
								"astId": 1849,
								"contract": "contracts/modules/SponsorMatrix.sol:Nanakshahi",
								"label": "packageLevel",
								"offset": 0,
								"slot": "2",
								"type": "t_uint256"
							},
							{
								"astId": 1851,
								"contract": "contracts/modules/SponsorMatrix.sol:Nanakshahi",
								"label": "timestamp",
								"offset": 0,
								"slot": "3",
								"type": "t_uint256"
							},
							{
								"astId": 1853,
								"contract": "contracts/modules/SponsorMatrix.sol:Nanakshahi",
								"label": "incomeType",
								"offset": 0,
								"slot": "4",
								"type": "t_uint256"
							}
						],
						"numberOfBytes": "160"
					},
					"t_struct(User)1822_storage": {
						"encoding": "inplace",
						"label": "struct Storage.User",
						"members": [
							{
								"astId": 1789,
								"contract": "contracts/modules/SponsorMatrix.sol:Nanakshahi",
								"label": "account",
								"offset": 0,
								"slot": "0",
								"type": "t_address"
							},
							{
								"astId": 1793,
								"contract": "contracts/modules/SponsorMatrix.sol:Nanakshahi",
								"label": "deposits",
								"offset": 0,
								"slot": "1",
								"type": "t_array(t_struct(Deposit)1787_storage)dyn_storage"
							},
							{
								"astId": 1795,
								"contract": "contracts/modules/SponsorMatrix.sol:Nanakshahi",
								"label": "checkpoint",
								"offset": 0,
								"slot": "2",
								"type": "t_uint256"
							},
							{
								"astId": 1797,
								"contract": "contracts/modules/SponsorMatrix.sol:Nanakshahi",
								"label": "id",
								"offset": 0,
								"slot": "3",
								"type": "t_uint256"
							},
							{
								"astId": 1799,
								"contract": "contracts/modules/SponsorMatrix.sol:Nanakshahi",
								"label": "sponsorId",
								"offset": 0,
								"slot": "4",
								"type": "t_uint256"
							},
							{
								"astId": 1801,
								"contract": "contracts/modules/SponsorMatrix.sol:Nanakshahi",
								"label": "uplineId",
								"offset": 0,
								"slot": "5",
								"type": "t_uint256"
							},
							{
								"astId": 1803,
								"contract": "contracts/modules/SponsorMatrix.sol:Nanakshahi",
								"label": "level",
								"offset": 0,
								"slot": "6",
								"type": "t_uint256"
							},
							{
								"astId": 1805,
								"contract": "contracts/modules/SponsorMatrix.sol:Nanakshahi",
								"label": "directTeam",
								"offset": 0,
								"slot": "7",
								"type": "t_uint256"
							},
							{
								"astId": 1807,
								"contract": "contracts/modules/SponsorMatrix.sol:Nanakshahi",
								"label": "directPoolQualified",
								"offset": 0,
								"slot": "8",
								"type": "t_uint256"
							},
							{
								"astId": 1809,
								"contract": "contracts/modules/SponsorMatrix.sol:Nanakshahi",
								"label": "totalMatrixTeam",
								"offset": 0,
								"slot": "9",
								"type": "t_uint256"
							},
							{
								"astId": 1811,
								"contract": "contracts/modules/SponsorMatrix.sol:Nanakshahi",
								"label": "totalDeposit",
								"offset": 0,
								"slot": "10",
								"type": "t_uint256"
							},
							{
								"astId": 1813,
								"contract": "contracts/modules/SponsorMatrix.sol:Nanakshahi",
								"label": "poollevel",
								"offset": 0,
								"slot": "11",
								"type": "t_uint256"
							},
							{
								"astId": 1815,
								"contract": "contracts/modules/SponsorMatrix.sol:Nanakshahi",
								"label": "poolDeposit",
								"offset": 0,
								"slot": "12",
								"type": "t_uint256"
							},
							{
								"astId": 1817,
								"contract": "contracts/modules/SponsorMatrix.sol:Nanakshahi",
								"label": "boosterlevel",
								"offset": 0,
								"slot": "13",
								"type": "t_uint256"
							},
							{
								"astId": 1819,
								"contract": "contracts/modules/SponsorMatrix.sol:Nanakshahi",
								"label": "boosterDeposit",
								"offset": 0,
								"slot": "14",
								"type": "t_uint256"
							},
							{
								"astId": 1821,
								"contract": "contracts/modules/SponsorMatrix.sol:Nanakshahi",
								"label": "registrationTime",
								"offset": 0,
								"slot": "15",
								"type": "t_uint256"
							}
						],
						"numberOfBytes": "512"
					},
					"t_struct(UserBooster)1879_storage": {
						"encoding": "inplace",
						"label": "struct Storage.UserBooster",
						"members": [
							{
								"astId": 1872,
								"contract": "contracts/modules/SponsorMatrix.sol:Nanakshahi",
								"label": "id",
								"offset": 0,
								"slot": "0",
								"type": "t_uint256"
							},
							{
								"astId": 1874,
								"contract": "contracts/modules/SponsorMatrix.sol:Nanakshahi",
								"label": "poolId",
								"offset": 0,
								"slot": "1",
								"type": "t_uint256"
							},
							{
								"astId": 1876,
								"contract": "contracts/modules/SponsorMatrix.sol:Nanakshahi",
								"label": "parentId",
								"offset": 0,
								"slot": "2",
								"type": "t_uint256"
							},
							{
								"astId": 1878,
								"contract": "contracts/modules/SponsorMatrix.sol:Nanakshahi",
								"label": "bonusCount",
								"offset": 0,
								"slot": "3",
								"type": "t_uint256"
							}
						],
						"numberOfBytes": "128"
					},
					"t_struct(UserIncome)1843_storage": {
						"encoding": "inplace",
						"label": "struct Storage.UserIncome",
						"members": [
							{
								"astId": 1824,
								"contract": "contracts/modules/SponsorMatrix.sol:Nanakshahi",
								"label": "totalIncome",
								"offset": 0,
								"slot": "0",
								"type": "t_uint256"
							},
							{
								"astId": 1826,
								"contract": "contracts/modules/SponsorMatrix.sol:Nanakshahi",
								"label": "sponsorIncome",
								"offset": 0,
								"slot": "1",
								"type": "t_uint256"
							},
							{
								"astId": 1828,
								"contract": "contracts/modules/SponsorMatrix.sol:Nanakshahi",
								"label": "matrixIncome",
								"offset": 0,
								"slot": "2",
								"type": "t_uint256"
							},
							{
								"astId": 1830,
								"contract": "contracts/modules/SponsorMatrix.sol:Nanakshahi",
								"label": "levelBoosterIncome",
								"offset": 0,
								"slot": "3",
								"type": "t_uint256"
							},
							{
								"astId": 1832,
								"contract": "contracts/modules/SponsorMatrix.sol:Nanakshahi",
								"label": "levelIncome",
								"offset": 0,
								"slot": "4",
								"type": "t_uint256"
							},
							{
								"astId": 1834,
								"contract": "contracts/modules/SponsorMatrix.sol:Nanakshahi",
								"label": "royaltyIncome",
								"offset": 0,
								"slot": "5",
								"type": "t_uint256"
							},
							{
								"astId": 1836,
								"contract": "contracts/modules/SponsorMatrix.sol:Nanakshahi",
								"label": "royaltyIncomeClaimed",
								"offset": 0,
								"slot": "6",
								"type": "t_uint256"
							},
							{
								"astId": 1838,
								"contract": "contracts/modules/SponsorMatrix.sol:Nanakshahi",
								"label": "communityIncome",
								"offset": 0,
								"slot": "7",
								"type": "t_uint256"
							},
							{
								"astId": 1840,
								"contract": "contracts/modules/SponsorMatrix.sol:Nanakshahi",
								"label": "poolIncome",
								"offset": 0,
								"slot": "8",
								"type": "t_uint256"
							},
							{
								"astId": 1842,
								"contract": "contracts/modules/SponsorMatrix.sol:Nanakshahi",
								"label": "boosterIncome",
								"offset": 0,
								"slot": "9",
								"type": "t_uint256"
							}
						],
						"numberOfBytes": "320"
					},
					"t_struct(UserPool)1865_storage": {
						"encoding": "inplace",
						"label": "struct Storage.UserPool",
						"members": [
							{
								"astId": 1856,
								"contract": "contracts/modules/SponsorMatrix.sol:Nanakshahi",
								"label": "id",
								"offset": 0,
								"slot": "0",
								"type": "t_uint256"
							},
							{
								"astId": 1858,
								"contract": "contracts/modules/SponsorMatrix.sol:Nanakshahi",
								"label": "mainid",
								"offset": 0,
								"slot": "1",
								"type": "t_uint256"
							},
							{
								"astId": 1860,
								"contract": "contracts/modules/SponsorMatrix.sol:Nanakshahi",
								"label": "poolId",
								"offset": 0,
								"slot": "2",
								"type": "t_uint256"
							},
							{
								"astId": 1862,
								"contract": "contracts/modules/SponsorMatrix.sol:Nanakshahi",
								"label": "parentId",
								"offset": 0,
								"slot": "3",
								"type": "t_uint256"
							},
							{
								"astId": 1864,
								"contract": "contracts/modules/SponsorMatrix.sol:Nanakshahi",
								"label": "bonusCount",
								"offset": 0,
								"slot": "4",
								"type": "t_uint256"
							}
						],
						"numberOfBytes": "160"
					},
					"t_struct(UserPoolTopup)1870_storage": {
						"encoding": "inplace",
						"label": "struct Storage.UserPoolTopup",
						"members": [
							{
								"astId": 1867,
								"contract": "contracts/modules/SponsorMatrix.sol:Nanakshahi",
								"label": "nextPoolAmt",
								"offset": 0,
								"slot": "0",
								"type": "t_uint256"
							},
							{
								"astId": 1869,
								"contract": "contracts/modules/SponsorMatrix.sol:Nanakshahi",
								"label": "reTopupAmt",
								"offset": 0,
								"slot": "1",
								"type": "t_uint256"
							}
						],
						"numberOfBytes": "64"
					},
					"t_uint256": {
						"encoding": "inplace",
						"label": "uint256",
						"numberOfBytes": "32"
					},
					"t_uint8": {
						"encoding": "inplace",
						"label": "uint8",
						"numberOfBytes": "1"
					}
				}
			},
			"userdoc": {
				"kind": "user",
				"methods": {},
				"version": 1
			}
		}
	}
}