{
	"contracts/modules/InfinityPool.sol": {
		"CompanyMatrix": {
			"abi": [
				{
					"inputs": [],
					"stateMutability": "nonpayable",
					"type": "constructor"
				},
				{
					"anonymous": false,
					"inputs": [
						{
							"indexed": true,
							"internalType": "address",
							"name": "previousOwner",
							"type": "address"
						},
						{
							"indexed": true,
							"internalType": "address",
							"name": "newOwner",
							"type": "address"
						}
					],
					"name": "OwnershipTransferred",
					"type": "event"
				},
				{
					"anonymous": false,
					"inputs": [
						{
							"indexed": true,
							"internalType": "address",
							"name": "user",
							"type": "address"
						},
						{
							"indexed": true,
							"internalType": "uint256",
							"name": "matrixId",
							"type": "uint256"
						},
						{
							"indexed": false,
							"internalType": "uint256",
							"name": "userId",
							"type": "uint256"
						},
						{
							"indexed": false,
							"internalType": "uint256",
							"name": "parentId",
							"type": "uint256"
						},
						{
							"indexed": false,
							"internalType": "uint256",
							"name": "position",
							"type": "uint256"
						}
					],
					"name": "UserPlaced",
					"type": "event"
				},
				{
					"inputs": [],
					"name": "MAX_CHILDREN",
					"outputs": [
						{
							"internalType": "uint256",
							"name": "",
							"type": "uint256"
						}
					],
					"stateMutability": "view",
					"type": "function"
				},
				{
					"inputs": [
						{
							"internalType": "uint256",
							"name": "",
							"type": "uint256"
						},
						{
							"internalType": "uint256",
							"name": "",
							"type": "uint256"
						},
						{
							"internalType": "uint256",
							"name": "",
							"type": "uint256"
						}
					],
					"name": "UsersIds",
					"outputs": [
						{
							"internalType": "uint256",
							"name": "",
							"type": "uint256"
						}
					],
					"stateMutability": "view",
					"type": "function"
				},
				{
					"inputs": [
						{
							"internalType": "uint256",
							"name": "matrixId",
							"type": "uint256"
						},
						{
							"internalType": "uint256",
							"name": "userId",
							"type": "uint256"
						}
					],
					"name": "getChildren",
					"outputs": [
						{
							"internalType": "uint256[]",
							"name": "",
							"type": "uint256[]"
						}
					],
					"stateMutability": "view",
					"type": "function"
				},
				{
					"inputs": [
						{
							"internalType": "uint256",
							"name": "matrixId",
							"type": "uint256"
						}
					],
					"name": "getQueue",
					"outputs": [
						{
							"internalType": "uint256[]",
							"name": "",
							"type": "uint256[]"
						}
					],
					"stateMutability": "view",
					"type": "function"
				},
				{
					"inputs": [
						{
							"internalType": "uint256",
							"name": "matrixId",
							"type": "uint256"
						},
						{
							"internalType": "uint256",
							"name": "userId",
							"type": "uint256"
						}
					],
					"name": "getUser",
					"outputs": [
						{
							"internalType": "uint256",
							"name": "id",
							"type": "uint256"
						},
						{
							"internalType": "address",
							"name": "userAddress",
							"type": "address"
						},
						{
							"internalType": "uint256",
							"name": "parentId",
							"type": "uint256"
						},
						{
							"internalType": "uint256[]",
							"name": "children",
							"type": "uint256[]"
						}
					],
					"stateMutability": "view",
					"type": "function"
				},
				{
					"inputs": [
						{
							"internalType": "uint256",
							"name": "matrixId",
							"type": "uint256"
						}
					],
					"name": "joinMatrix",
					"outputs": [],
					"stateMutability": "payable",
					"type": "function"
				},
				{
					"inputs": [
						{
							"internalType": "uint256",
							"name": "",
							"type": "uint256"
						}
					],
					"name": "lastUserId",
					"outputs": [
						{
							"internalType": "uint256",
							"name": "",
							"type": "uint256"
						}
					],
					"stateMutability": "view",
					"type": "function"
				},
				{
					"inputs": [
						{
							"internalType": "uint256",
							"name": "",
							"type": "uint256"
						}
					],
					"name": "matrixPrices",
					"outputs": [
						{
							"internalType": "uint256",
							"name": "",
							"type": "uint256"
						}
					],
					"stateMutability": "view",
					"type": "function"
				},
				{
					"inputs": [
						{
							"internalType": "uint256",
							"name": "",
							"type": "uint256"
						},
						{
							"internalType": "uint256",
							"name": "",
							"type": "uint256"
						}
					],
					"name": "matrixQueue",
					"outputs": [
						{
							"internalType": "uint256",
							"name": "",
							"type": "uint256"
						}
					],
					"stateMutability": "view",
					"type": "function"
				},
				{
					"inputs": [
						{
							"internalType": "uint256",
							"name": "",
							"type": "uint256"
						},
						{
							"internalType": "uint256",
							"name": "",
							"type": "uint256"
						}
					],
					"name": "matrixUsers",
					"outputs": [
						{
							"internalType": "uint256",
							"name": "id",
							"type": "uint256"
						},
						{
							"internalType": "address",
							"name": "userAddress",
							"type": "address"
						},
						{
							"internalType": "uint256",
							"name": "parentId",
							"type": "uint256"
						}
					],
					"stateMutability": "view",
					"type": "function"
				},
				{
					"inputs": [],
					"name": "owner",
					"outputs": [
						{
							"internalType": "address",
							"name": "",
							"type": "address"
						}
					],
					"stateMutability": "view",
					"type": "function"
				},
				{
					"inputs": [
						{
							"internalType": "address",
							"name": "newOwner",
							"type": "address"
						}
					],
					"name": "transferOwnership",
					"outputs": [],
					"stateMutability": "nonpayable",
					"type": "function"
				},
				{
					"stateMutability": "payable",
					"type": "receive"
				}
			],
			"devdoc": {
				"kind": "dev",
				"methods": {},
				"version": 1
			},
			"evm": {
				"assembly": "    /* \"contracts/modules/InfinityPool.sol\":92:3385  contract CompanyMatrix is Ownable {... */\n  mstore(0x40, 0x80)\n    /* \"contracts/modules/InfinityPool.sol\":766:862  uint256[] public matrixPrices = [75e18, 300e18, 1200e18, 4800e18, 19200e18, 76800e18, 307200e18] */\n  mload(0x40)\n  dup1\n  0xe0\n  add\n  0x40\n  mstore\n  dup1\n    /* \"contracts/modules/InfinityPool.sol\":799:804  75e18 */\n  0x0410d586a20a4c0000\n    /* \"contracts/modules/InfinityPool.sol\":766:862  uint256[] public matrixPrices = [75e18, 300e18, 1200e18, 4800e18, 19200e18, 76800e18, 307200e18] */\n  0xffffffffffffffffffff\n  and\n  dup2\n  mstore\n  0x20\n  add\n    /* \"contracts/modules/InfinityPool.sol\":806:812  300e18 */\n  0x1043561a8829300000\n    /* \"contracts/modules/InfinityPool.sol\":766:862  uint256[] public matrixPrices = [75e18, 300e18, 1200e18, 4800e18, 19200e18, 76800e18, 307200e18] */\n  0xffffffffffffffffffff\n  and\n  dup2\n  mstore\n  0x20\n  add\n    /* \"contracts/modules/InfinityPool.sol\":814:821  1200e18 */\n  0x410d586a20a4c00000\n    /* \"contracts/modules/InfinityPool.sol\":766:862  uint256[] public matrixPrices = [75e18, 300e18, 1200e18, 4800e18, 19200e18, 76800e18, 307200e18] */\n  0xffffffffffffffffffff\n  and\n  dup2\n  mstore\n  0x20\n  add\n    /* \"contracts/modules/InfinityPool.sol\":823:830  4800e18 */\n  0x01043561a88293000000\n    /* \"contracts/modules/InfinityPool.sol\":766:862  uint256[] public matrixPrices = [75e18, 300e18, 1200e18, 4800e18, 19200e18, 76800e18, 307200e18] */\n  0xffffffffffffffffffff\n  and\n  dup2\n  mstore\n  0x20\n  add\n    /* \"contracts/modules/InfinityPool.sol\":832:840  19200e18 */\n  0x0410d586a20a4c000000\n    /* \"contracts/modules/InfinityPool.sol\":766:862  uint256[] public matrixPrices = [75e18, 300e18, 1200e18, 4800e18, 19200e18, 76800e18, 307200e18] */\n  0xffffffffffffffffffff\n  and\n  dup2\n  mstore\n  0x20\n  add\n    /* \"contracts/modules/InfinityPool.sol\":842:850  76800e18 */\n  0x1043561a882930000000\n    /* \"contracts/modules/InfinityPool.sol\":766:862  uint256[] public matrixPrices = [75e18, 300e18, 1200e18, 4800e18, 19200e18, 76800e18, 307200e18] */\n  0xffffffffffffffffffff\n  and\n  dup2\n  mstore\n  0x20\n  add\n    /* \"contracts/modules/InfinityPool.sol\":852:861  307200e18 */\n  0x410d586a20a4c0000000\n    /* \"contracts/modules/InfinityPool.sol\":766:862  uint256[] public matrixPrices = [75e18, 300e18, 1200e18, 4800e18, 19200e18, 76800e18, 307200e18] */\n  0xffffffffffffffffffff\n  and\n  dup2\n  mstore\n  pop\n  0x05\n  swap1\n  0x07\n  tag_1\n  swap3\n  swap2\n  swap1\n  tag_2\n  jump\t// in\ntag_1:\n  pop\n    /* \"contracts/modules/InfinityPool.sol\":984:1411  constructor() {... */\n  callvalue\n  dup1\n  iszero\n  tag_3\n  jumpi\n  0x00\n  dup1\n  revert\ntag_3:\n  pop\n    /* \"contracts/core/Ownable.sol\":239:249  msg.sender */\n  caller\n    /* \"contracts/core/Ownable.sol\":231:236  owner */\n  0x00\n  dup1\n    /* \"contracts/core/Ownable.sol\":231:249  owner = msg.sender */\n  0x0100\n  exp\n  dup2\n  sload\n  dup2\n  0xffffffffffffffffffffffffffffffffffffffff\n  mul\n  not\n  and\n  swap1\n  dup4\n  0xffffffffffffffffffffffffffffffffffffffff\n  and\n  mul\n  or\n  swap1\n  sstore\n  pop\n    /* \"contracts/core/Ownable.sol\":298:303  owner */\n  0x00\n  dup1\n  sload\n  swap1\n  0x0100\n  exp\n  swap1\n  div\n  0xffffffffffffffffffffffffffffffffffffffff\n  and\n    /* \"contracts/core/Ownable.sol\":265:304  OwnershipTransferred(address(0), owner) */\n  0xffffffffffffffffffffffffffffffffffffffff\n  and\n    /* \"contracts/core/Ownable.sol\":294:295  0 */\n  0x00\n    /* \"contracts/core/Ownable.sol\":265:304  OwnershipTransferred(address(0), owner) */\n  0xffffffffffffffffffffffffffffffffffffffff\n  and\n  0x8be0079c531659141344cd1fd0a4f28419497f9722a3daafe3b4186f6b6457e0\n  mload(0x40)\n  mload(0x40)\n  dup1\n  swap2\n  sub\n  swap1\n  log3\n    /* \"contracts/modules/InfinityPool.sol\":1069:1075  uint i */\n  0x00\n    /* \"contracts/modules/InfinityPool.sol\":1064:1404  for (uint i = 0; i < matrixPrices.length; i++) {... */\ntag_8:\n    /* \"contracts/modules/InfinityPool.sol\":1085:1097  matrixPrices */\n  0x05\n    /* \"contracts/modules/InfinityPool.sol\":1085:1104  matrixPrices.length */\n  dup1\n  sload\n  swap1\n  pop\n    /* \"contracts/modules/InfinityPool.sol\":1081:1082  i */\n  dup2\n    /* \"contracts/modules/InfinityPool.sol\":1081:1104  i < matrixPrices.length */\n  lt\n    /* \"contracts/modules/InfinityPool.sol\":1064:1404  for (uint i = 0; i < matrixPrices.length; i++) {... */\n  iszero\n  tag_9\n  jumpi\n    /* \"contracts/modules/InfinityPool.sol\":1142:1143  1 */\n  0x01\n    /* \"contracts/modules/InfinityPool.sol\":1126:1136  lastUserId */\n  0x02\n    /* \"contracts/modules/InfinityPool.sol\":1126:1139  lastUserId[i] */\n  0x00\n    /* \"contracts/modules/InfinityPool.sol\":1137:1138  i */\n  dup4\n    /* \"contracts/modules/InfinityPool.sol\":1126:1139  lastUserId[i] */\n  dup2\n  mstore\n  0x20\n  add\n  swap1\n  dup2\n  mstore\n  0x20\n  add\n  0x00\n  keccak256\n    /* \"contracts/modules/InfinityPool.sol\":1126:1143  lastUserId[i] = 1 */\n  dup2\n  swap1\n  sstore\n  pop\n    /* \"contracts/modules/InfinityPool.sol\":1160:1177  User storage root */\n  0x00\n    /* \"contracts/modules/InfinityPool.sol\":1180:1191  matrixUsers */\n  0x01\n    /* \"contracts/modules/InfinityPool.sol\":1180:1194  matrixUsers[i] */\n  0x00\n    /* \"contracts/modules/InfinityPool.sol\":1192:1193  i */\n  dup4\n    /* \"contracts/modules/InfinityPool.sol\":1180:1194  matrixUsers[i] */\n  dup2\n  mstore\n  0x20\n  add\n  swap1\n  dup2\n  mstore\n  0x20\n  add\n  0x00\n  keccak256\n    /* \"contracts/modules/InfinityPool.sol\":1180:1197  matrixUsers[i][1] */\n  0x00\n    /* \"contracts/modules/InfinityPool.sol\":1195:1196  1 */\n  0x01\n    /* \"contracts/modules/InfinityPool.sol\":1180:1197  matrixUsers[i][1] */\n  dup2\n  mstore\n  0x20\n  add\n  swap1\n  dup2\n  mstore\n  0x20\n  add\n  0x00\n  keccak256\n    /* \"contracts/modules/InfinityPool.sol\":1160:1197  User storage root = matrixUsers[i][1] */\n  swap1\n  pop\n    /* \"contracts/modules/InfinityPool.sol\":1222:1223  1 */\n  0x01\n    /* \"contracts/modules/InfinityPool.sol\":1212:1216  root */\n  dup2\n    /* \"contracts/modules/InfinityPool.sol\":1212:1219  root.id */\n  0x00\n  add\n    /* \"contracts/modules/InfinityPool.sol\":1212:1223  root.id = 1 */\n  dup2\n  swap1\n  sstore\n  pop\n    /* \"contracts/modules/InfinityPool.sol\":1257:1267  msg.sender */\n  caller\n    /* \"contracts/modules/InfinityPool.sol\":1238:1242  root */\n  dup2\n    /* \"contracts/modules/InfinityPool.sol\":1238:1254  root.userAddress */\n  0x01\n  add\n  0x00\n    /* \"contracts/modules/InfinityPool.sol\":1238:1267  root.userAddress = msg.sender */\n  0x0100\n  exp\n  dup2\n  sload\n  dup2\n  0xffffffffffffffffffffffffffffffffffffffff\n  mul\n  not\n  and\n  swap1\n  dup4\n  0xffffffffffffffffffffffffffffffffffffffff\n  and\n  mul\n  or\n  swap1\n  sstore\n  pop\n    /* \"contracts/modules/InfinityPool.sol\":1298:1299  0 */\n  0x00\n    /* \"contracts/modules/InfinityPool.sol\":1282:1286  root */\n  dup2\n    /* \"contracts/modules/InfinityPool.sol\":1282:1295  root.parentId */\n  0x02\n  add\n    /* \"contracts/modules/InfinityPool.sol\":1282:1299  root.parentId = 0 */\n  dup2\n  swap1\n  sstore\n  pop\n    /* \"contracts/modules/InfinityPool.sol\":1370:1381  matrixQueue */\n  0x03\n    /* \"contracts/modules/InfinityPool.sol\":1370:1384  matrixQueue[i] */\n  0x00\n    /* \"contracts/modules/InfinityPool.sol\":1382:1383  i */\n  dup4\n    /* \"contracts/modules/InfinityPool.sol\":1370:1384  matrixQueue[i] */\n  dup2\n  mstore\n  0x20\n  add\n  swap1\n  dup2\n  mstore\n  0x20\n  add\n  0x00\n  keccak256\n    /* \"contracts/modules/InfinityPool.sol\":1390:1391  1 */\n  0x01\n    /* \"contracts/modules/InfinityPool.sol\":1370:1392  matrixQueue[i].push(1) */\n  swap1\n  dup1\n  0x01\n  dup2\n  sload\n  add\n  dup1\n  dup3\n  sstore\n  dup1\n  swap2\n  pop\n  pop\n  0x01\n  swap1\n  sub\n  swap1\n  0x00\n  mstore\n  keccak256(0x00, 0x20)\n  add\n  0x00\n  swap1\n  swap2\n  swap1\n  swap2\n  swap1\n  swap2\n  pop\n  sstore\n    /* \"contracts/modules/InfinityPool.sol\":1111:1404  {... */\n  pop\n    /* \"contracts/modules/InfinityPool.sol\":1106:1109  i++ */\n  dup1\n  dup1\n  tag_12\n  swap1\n  tag_13\n  jump\t// in\ntag_12:\n  swap2\n  pop\n  pop\n    /* \"contracts/modules/InfinityPool.sol\":1064:1404  for (uint i = 0; i < matrixPrices.length; i++) {... */\n  jump(tag_8)\ntag_9:\n  pop\n    /* \"contracts/modules/InfinityPool.sol\":92:3385  contract CompanyMatrix is Ownable {... */\n  jump(tag_14)\ntag_2:\n  dup3\n  dup1\n  sload\n  dup3\n  dup3\n  sstore\n  swap1\n  0x00\n  mstore\n  keccak256(0x00, 0x20)\n  swap1\n  dup2\n  add\n  swap3\n  dup3\n  iszero\n  tag_15\n  jumpi\n  swap2\n  0x20\n  mul\n  dup3\n  add\ntag_16:\n  dup3\n  dup2\n  gt\n  iszero\n  tag_17\n  jumpi\n  dup3\n  mload\n  dup3\n  swap1\n  0xffffffffffffffffffff\n  and\n  swap1\n  sstore\n  swap2\n  0x20\n  add\n  swap2\n  swap1\n  0x01\n  add\n  swap1\n  jump(tag_16)\ntag_17:\ntag_15:\n  pop\n  swap1\n  pop\n  tag_18\n  swap2\n  swap1\n  tag_19\n  jump\t// in\ntag_18:\n  pop\n  swap1\n  jump\t// out\ntag_19:\ntag_20:\n  dup1\n  dup3\n  gt\n  iszero\n  tag_21\n  jumpi\n  0x00\n  dup2\n  0x00\n  swap1\n  sstore\n  pop\n  0x01\n  add\n  jump(tag_20)\ntag_21:\n  pop\n  swap1\n  jump\t// out\n    /* \"#utility.yul\":7:187   */\ntag_22:\n    /* \"#utility.yul\":55:132   */\n  0x4e487b7100000000000000000000000000000000000000000000000000000000\n    /* \"#utility.yul\":52:53   */\n  0x00\n    /* \"#utility.yul\":45:133   */\n  mstore\n    /* \"#utility.yul\":152:156   */\n  0x11\n    /* \"#utility.yul\":149:150   */\n  0x04\n    /* \"#utility.yul\":142:157   */\n  mstore\n    /* \"#utility.yul\":176:180   */\n  0x24\n    /* \"#utility.yul\":173:174   */\n  0x00\n    /* \"#utility.yul\":166:181   */\n  revert\n    /* \"#utility.yul\":193:270   */\ntag_23:\n    /* \"#utility.yul\":230:237   */\n  0x00\n    /* \"#utility.yul\":259:264   */\n  dup2\n    /* \"#utility.yul\":248:264   */\n  swap1\n  pop\n    /* \"#utility.yul\":193:270   */\n  swap2\n  swap1\n  pop\n  jump\t// out\n    /* \"#utility.yul\":276:509   */\ntag_13:\n    /* \"#utility.yul\":315:318   */\n  0x00\n    /* \"#utility.yul\":338:362   */\n  tag_28\n    /* \"#utility.yul\":356:361   */\n  dup3\n    /* \"#utility.yul\":338:362   */\n  tag_23\n  jump\t// in\ntag_28:\n    /* \"#utility.yul\":329:362   */\n  swap2\n  pop\n    /* \"#utility.yul\":384:450   */\n  0xffffffffffffffffffffffffffffffffffffffffffffffffffffffffffffffff\n    /* \"#utility.yul\":377:382   */\n  dup3\n    /* \"#utility.yul\":374:451   */\n  sub\n    /* \"#utility.yul\":371:474   */\n  tag_29\n  jumpi\n    /* \"#utility.yul\":454:472   */\n  tag_30\n  tag_22\n  jump\t// in\ntag_30:\n    /* \"#utility.yul\":371:474   */\ntag_29:\n    /* \"#utility.yul\":501:502   */\n  0x01\n    /* \"#utility.yul\":494:499   */\n  dup3\n    /* \"#utility.yul\":490:503   */\n  add\n    /* \"#utility.yul\":483:503   */\n  swap1\n  pop\n    /* \"#utility.yul\":276:509   */\n  swap2\n  swap1\n  pop\n  jump\t// out\n    /* \"contracts/modules/InfinityPool.sol\":92:3385  contract CompanyMatrix is Ownable {... */\ntag_14:\n  dataSize(sub_0)\n  dup1\n  dataOffset(sub_0)\n  0x00\n  codecopy\n  0x00\n  return\nstop\n\nsub_0: assembly {\n        /* \"contracts/modules/InfinityPool.sol\":92:3385  contract CompanyMatrix is Ownable {... */\n      mstore(0x40, 0x80)\n      jumpi(tag_1, lt(calldatasize, 0x04))\n      shr(0xe0, calldataload(0x00))\n      dup1\n      0x8da5cb5b\n      gt\n      tag_15\n      jumpi\n      dup1\n      0x8da5cb5b\n      eq\n      tag_9\n      jumpi\n      dup1\n      0xb5c9ffbc\n      eq\n      tag_10\n      jumpi\n      dup1\n      0xc222ff49\n      eq\n      tag_11\n      jumpi\n      dup1\n      0xc75cd70a\n      eq\n      tag_12\n      jumpi\n      dup1\n      0xdfb9c8d0\n      eq\n      tag_13\n      jumpi\n      dup1\n      0xf2fde38b\n      eq\n      tag_14\n      jumpi\n      jump(tag_2)\n    tag_15:\n      dup1\n      0x02952528\n      eq\n      tag_3\n      jumpi\n      dup1\n      0x0be8fffc\n      eq\n      tag_4\n      jumpi\n      dup1\n      0x169399a9\n      eq\n      tag_5\n      jumpi\n      dup1\n      0x305e60f8\n      eq\n      tag_6\n      jumpi\n      dup1\n      0x3ad27afe\n      eq\n      tag_7\n      jumpi\n      dup1\n      0x63c09887\n      eq\n      tag_8\n      jumpi\n      jump(tag_2)\n    tag_1:\n      jumpi(tag_2, calldatasize)\n      stop\n    tag_2:\n      0x00\n      dup1\n      revert\n        /* \"contracts/modules/InfinityPool.sol\":1419:2284  function joinMatrix(uint matrixId) external payable {... */\n    tag_3:\n      tag_18\n      0x04\n      dup1\n      calldatasize\n      sub\n      dup2\n      add\n      swap1\n      tag_19\n      swap2\n      swap1\n      tag_20\n      jump\t// in\n    tag_19:\n      tag_21\n      jump\t// in\n    tag_18:\n      stop\n        /* \"contracts/modules/InfinityPool.sol\":3227:3345  function getQueue(uint matrixId) external view returns (uint[] memory) {... */\n    tag_4:\n      callvalue\n      dup1\n      iszero\n      tag_22\n      jumpi\n      0x00\n      dup1\n      revert\n    tag_22:\n      pop\n      tag_23\n      0x04\n      dup1\n      calldatasize\n      sub\n      dup2\n      add\n      swap1\n      tag_24\n      swap2\n      swap1\n      tag_20\n      jump\t// in\n    tag_24:\n      tag_25\n      jump\t// in\n    tag_23:\n      mload(0x40)\n      tag_26\n      swap2\n      swap1\n      tag_27\n      jump\t// in\n    tag_26:\n      mload(0x40)\n      dup1\n      swap2\n      sub\n      swap1\n      return\n        /* \"contracts/modules/InfinityPool.sol\":464:503  mapping(uint => uint) public lastUserId */\n    tag_5:\n      callvalue\n      dup1\n      iszero\n      tag_28\n      jumpi\n      0x00\n      dup1\n      revert\n    tag_28:\n      pop\n      tag_29\n      0x04\n      dup1\n      calldatasize\n      sub\n      dup2\n      add\n      swap1\n      tag_30\n      swap2\n      swap1\n      tag_20\n      jump\t// in\n    tag_30:\n      tag_31\n      jump\t// in\n    tag_29:\n      mload(0x40)\n      tag_32\n      swap2\n      swap1\n      tag_33\n      jump\t// in\n    tag_32:\n      mload(0x40)\n      dup1\n      swap2\n      sub\n      swap1\n      return\n        /* \"contracts/modules/InfinityPool.sol\":536:578  mapping(uint => uint[]) public matrixQueue */\n    tag_6:\n      callvalue\n      dup1\n      iszero\n      tag_34\n      jumpi\n      0x00\n      dup1\n      revert\n    tag_34:\n      pop\n      tag_35\n      0x04\n      dup1\n      calldatasize\n      sub\n      dup2\n      add\n      swap1\n      tag_36\n      swap2\n      swap1\n      tag_37\n      jump\t// in\n    tag_36:\n      tag_38\n      jump\t// in\n    tag_35:\n      mload(0x40)\n      tag_39\n      swap2\n      swap1\n      tag_33\n      jump\t// in\n    tag_39:\n      mload(0x40)\n      dup1\n      swap2\n      sub\n      swap1\n      return\n        /* \"contracts/modules/InfinityPool.sol\":3068:3219  function getChildren(uint matrixId, uint userId) external view returns (uint[] memory) {... */\n    tag_7:\n      callvalue\n      dup1\n      iszero\n      tag_40\n      jumpi\n      0x00\n      dup1\n      revert\n    tag_40:\n      pop\n      tag_41\n      0x04\n      dup1\n      calldatasize\n      sub\n      dup2\n      add\n      swap1\n      tag_42\n      swap2\n      swap1\n      tag_37\n      jump\t// in\n    tag_42:\n      tag_43\n      jump\t// in\n    tag_41:\n      mload(0x40)\n      tag_44\n      swap2\n      swap1\n      tag_27\n      jump\t// in\n    tag_44:\n      mload(0x40)\n      dup1\n      swap2\n      sub\n      swap1\n      return\n        /* \"contracts/modules/InfinityPool.sol\":622:678  mapping(uint => mapping(uint => uint[])) public UsersIds */\n    tag_8:\n      callvalue\n      dup1\n      iszero\n      tag_45\n      jumpi\n      0x00\n      dup1\n      revert\n    tag_45:\n      pop\n      tag_46\n      0x04\n      dup1\n      calldatasize\n      sub\n      dup2\n      add\n      swap1\n      tag_47\n      swap2\n      swap1\n      tag_48\n      jump\t// in\n    tag_47:\n      tag_49\n      jump\t// in\n    tag_46:\n      mload(0x40)\n      tag_50\n      swap2\n      swap1\n      tag_33\n      jump\t// in\n    tag_50:\n      mload(0x40)\n      dup1\n      swap2\n      sub\n      swap1\n      return\n        /* \"contracts/core/Ownable.sol\":85:105  address public owner */\n    tag_9:\n      callvalue\n      dup1\n      iszero\n      tag_51\n      jumpi\n      0x00\n      dup1\n      revert\n    tag_51:\n      pop\n      tag_52\n      tag_53\n      jump\t// in\n    tag_52:\n      mload(0x40)\n      tag_54\n      swap2\n      swap1\n      tag_55\n      jump\t// in\n    tag_54:\n      mload(0x40)\n      dup1\n      swap2\n      sub\n      swap1\n      return\n        /* \"contracts/modules/InfinityPool.sol\":766:862  uint256[] public matrixPrices = [75e18, 300e18, 1200e18, 4800e18, 19200e18, 76800e18, 307200e18] */\n    tag_10:\n      callvalue\n      dup1\n      iszero\n      tag_56\n      jumpi\n      0x00\n      dup1\n      revert\n    tag_56:\n      pop\n      tag_57\n      0x04\n      dup1\n      calldatasize\n      sub\n      dup2\n      add\n      swap1\n      tag_58\n      swap2\n      swap1\n      tag_20\n      jump\t// in\n    tag_58:\n      tag_59\n      jump\t// in\n    tag_57:\n      mload(0x40)\n      tag_60\n      swap2\n      swap1\n      tag_33\n      jump\t// in\n    tag_60:\n      mload(0x40)\n      dup1\n      swap2\n      sub\n      swap1\n      return\n        /* \"contracts/modules/InfinityPool.sol\":135:172  uint public constant MAX_CHILDREN = 3 */\n    tag_11:\n      callvalue\n      dup1\n      iszero\n      tag_61\n      jumpi\n      0x00\n      dup1\n      revert\n    tag_61:\n      pop\n      tag_62\n      tag_63\n      jump\t// in\n    tag_62:\n      mload(0x40)\n      tag_64\n      swap2\n      swap1\n      tag_33\n      jump\t// in\n    tag_64:\n      mload(0x40)\n      dup1\n      swap2\n      sub\n      swap1\n      return\n        /* \"contracts/modules/InfinityPool.sol\":2752:3060  function getUser(uint matrixId, uint userId) external view returns (... */\n    tag_12:\n      callvalue\n      dup1\n      iszero\n      tag_65\n      jumpi\n      0x00\n      dup1\n      revert\n    tag_65:\n      pop\n      tag_66\n      0x04\n      dup1\n      calldatasize\n      sub\n      dup2\n      add\n      swap1\n      tag_67\n      swap2\n      swap1\n      tag_37\n      jump\t// in\n    tag_67:\n      tag_68\n      jump\t// in\n    tag_66:\n      mload(0x40)\n      tag_69\n      swap5\n      swap4\n      swap3\n      swap2\n      swap1\n      tag_70\n      jump\t// in\n    tag_69:\n      mload(0x40)\n      dup1\n      swap2\n      sub\n      swap1\n      return\n        /* \"contracts/modules/InfinityPool.sol\":370:427  mapping(uint => mapping(uint => User)) public matrixUsers */\n    tag_13:\n      callvalue\n      dup1\n      iszero\n      tag_71\n      jumpi\n      0x00\n      dup1\n      revert\n    tag_71:\n      pop\n      tag_72\n      0x04\n      dup1\n      calldatasize\n      sub\n      dup2\n      add\n      swap1\n      tag_73\n      swap2\n      swap1\n      tag_37\n      jump\t// in\n    tag_73:\n      tag_74\n      jump\t// in\n    tag_72:\n      mload(0x40)\n      tag_75\n      swap4\n      swap3\n      swap2\n      swap1\n      tag_76\n      jump\t// in\n    tag_75:\n      mload(0x40)\n      dup1\n      swap2\n      sub\n      swap1\n      return\n        /* \"contracts/core/Ownable.sol\":444:666  function transferOwnership(address newOwner) external onlyOwner {... */\n    tag_14:\n      callvalue\n      dup1\n      iszero\n      tag_77\n      jumpi\n      0x00\n      dup1\n      revert\n    tag_77:\n      pop\n      tag_78\n      0x04\n      dup1\n      calldatasize\n      sub\n      dup2\n      add\n      swap1\n      tag_79\n      swap2\n      swap1\n      tag_80\n      jump\t// in\n    tag_79:\n      tag_81\n      jump\t// in\n    tag_78:\n      stop\n        /* \"contracts/modules/InfinityPool.sol\":1419:2284  function joinMatrix(uint matrixId) external payable {... */\n    tag_21:\n        /* \"contracts/modules/InfinityPool.sol\":1501:1513  matrixPrices */\n      0x05\n        /* \"contracts/modules/InfinityPool.sol\":1501:1520  matrixPrices.length */\n      dup1\n      sload\n      swap1\n      pop\n        /* \"contracts/modules/InfinityPool.sol\":1490:1498  matrixId */\n      dup2\n        /* \"contracts/modules/InfinityPool.sol\":1490:1520  matrixId < matrixPrices.length */\n      lt\n        /* \"contracts/modules/InfinityPool.sol\":1482:1539  require(matrixId < matrixPrices.length, \"Invalid matrix\") */\n      tag_83\n      jumpi\n      mload(0x40)\n      0x08c379a000000000000000000000000000000000000000000000000000000000\n      dup2\n      mstore\n      0x04\n      add\n      tag_84\n      swap1\n      tag_85\n      jump\t// in\n    tag_84:\n      mload(0x40)\n      dup1\n      swap2\n      sub\n      swap1\n      revert\n    tag_83:\n        /* \"contracts/modules/InfinityPool.sol\":1571:1583  matrixPrices */\n      0x05\n        /* \"contracts/modules/InfinityPool.sol\":1584:1592  matrixId */\n      dup2\n        /* \"contracts/modules/InfinityPool.sol\":1571:1593  matrixPrices[matrixId] */\n      dup2\n      sload\n      dup2\n      lt\n      tag_86\n      jumpi\n      tag_87\n      tag_88\n      jump\t// in\n    tag_87:\n    tag_86:\n      swap1\n      0x00\n      mstore\n      keccak256(0x00, 0x20)\n      add\n      sload\n        /* \"contracts/modules/InfinityPool.sol\":1558:1567  msg.value */\n      callvalue\n        /* \"contracts/modules/InfinityPool.sol\":1558:1593  msg.value == matrixPrices[matrixId] */\n      eq\n        /* \"contracts/modules/InfinityPool.sol\":1550:1612  require(msg.value == matrixPrices[matrixId], \"Invalid amount\") */\n      tag_90\n      jumpi\n      mload(0x40)\n      0x08c379a000000000000000000000000000000000000000000000000000000000\n      dup2\n      mstore\n      0x04\n      add\n      tag_91\n      swap1\n      tag_92\n      jump\t// in\n    tag_91:\n      mload(0x40)\n      dup1\n      swap2\n      sub\n      swap1\n      revert\n    tag_90:\n        /* \"contracts/modules/InfinityPool.sol\":1625:1635  lastUserId */\n      0x02\n        /* \"contracts/modules/InfinityPool.sol\":1625:1645  lastUserId[matrixId] */\n      0x00\n        /* \"contracts/modules/InfinityPool.sol\":1636:1644  matrixId */\n      dup3\n        /* \"contracts/modules/InfinityPool.sol\":1625:1645  lastUserId[matrixId] */\n      dup2\n      mstore\n      0x20\n      add\n      swap1\n      dup2\n      mstore\n      0x20\n      add\n      0x00\n      keccak256\n      0x00\n        /* \"contracts/modules/InfinityPool.sol\":1625:1647  lastUserId[matrixId]++ */\n      dup2\n      sload\n      dup1\n      swap3\n      swap2\n      swap1\n      tag_93\n      swap1\n      tag_94\n      jump\t// in\n    tag_93:\n      swap2\n      swap1\n      pop\n      sstore\n      pop\n        /* \"contracts/modules/InfinityPool.sol\":1658:1668  uint newId */\n      0x00\n        /* \"contracts/modules/InfinityPool.sol\":1671:1681  lastUserId */\n      0x02\n        /* \"contracts/modules/InfinityPool.sol\":1671:1691  lastUserId[matrixId] */\n      0x00\n        /* \"contracts/modules/InfinityPool.sol\":1682:1690  matrixId */\n      dup4\n        /* \"contracts/modules/InfinityPool.sol\":1671:1691  lastUserId[matrixId] */\n      dup2\n      mstore\n      0x20\n      add\n      swap1\n      dup2\n      mstore\n      0x20\n      add\n      0x00\n      keccak256\n      sload\n        /* \"contracts/modules/InfinityPool.sol\":1658:1691  uint newId = lastUserId[matrixId] */\n      swap1\n      pop\n        /* \"contracts/modules/InfinityPool.sol\":1739:1752  uint parentId */\n      0x00\n        /* \"contracts/modules/InfinityPool.sol\":1755:1789  _findNextAvailableParent(matrixId) */\n      tag_95\n        /* \"contracts/modules/InfinityPool.sol\":1780:1788  matrixId */\n      dup4\n        /* \"contracts/modules/InfinityPool.sol\":1755:1779  _findNextAvailableParent */\n      tag_96\n        /* \"contracts/modules/InfinityPool.sol\":1755:1789  _findNextAvailableParent(matrixId) */\n      jump\t// in\n    tag_95:\n        /* \"contracts/modules/InfinityPool.sol\":1739:1789  uint parentId = _findNextAvailableParent(matrixId) */\n      swap1\n      pop\n        /* \"contracts/modules/InfinityPool.sol\":1828:1842  User storage u */\n      0x00\n        /* \"contracts/modules/InfinityPool.sol\":1845:1856  matrixUsers */\n      0x01\n        /* \"contracts/modules/InfinityPool.sol\":1845:1866  matrixUsers[matrixId] */\n      0x00\n        /* \"contracts/modules/InfinityPool.sol\":1857:1865  matrixId */\n      dup6\n        /* \"contracts/modules/InfinityPool.sol\":1845:1866  matrixUsers[matrixId] */\n      dup2\n      mstore\n      0x20\n      add\n      swap1\n      dup2\n      mstore\n      0x20\n      add\n      0x00\n      keccak256\n        /* \"contracts/modules/InfinityPool.sol\":1845:1873  matrixUsers[matrixId][newId] */\n      0x00\n        /* \"contracts/modules/InfinityPool.sol\":1867:1872  newId */\n      dup5\n        /* \"contracts/modules/InfinityPool.sol\":1845:1873  matrixUsers[matrixId][newId] */\n      dup2\n      mstore\n      0x20\n      add\n      swap1\n      dup2\n      mstore\n      0x20\n      add\n      0x00\n      keccak256\n        /* \"contracts/modules/InfinityPool.sol\":1828:1873  User storage u = matrixUsers[matrixId][newId] */\n      swap1\n      pop\n        /* \"contracts/modules/InfinityPool.sol\":1891:1896  newId */\n      dup3\n        /* \"contracts/modules/InfinityPool.sol\":1884:1885  u */\n      dup2\n        /* \"contracts/modules/InfinityPool.sol\":1884:1888  u.id */\n      0x00\n      add\n        /* \"contracts/modules/InfinityPool.sol\":1884:1896  u.id = newId */\n      dup2\n      swap1\n      sstore\n      pop\n        /* \"contracts/modules/InfinityPool.sol\":1923:1933  msg.sender */\n      caller\n        /* \"contracts/modules/InfinityPool.sol\":1907:1908  u */\n      dup2\n        /* \"contracts/modules/InfinityPool.sol\":1907:1920  u.userAddress */\n      0x01\n      add\n      0x00\n        /* \"contracts/modules/InfinityPool.sol\":1907:1933  u.userAddress = msg.sender */\n      0x0100\n      exp\n      dup2\n      sload\n      dup2\n      0xffffffffffffffffffffffffffffffffffffffff\n      mul\n      not\n      and\n      swap1\n      dup4\n      0xffffffffffffffffffffffffffffffffffffffff\n      and\n      mul\n      or\n      swap1\n      sstore\n      pop\n        /* \"contracts/modules/InfinityPool.sol\":1957:1965  parentId */\n      dup2\n        /* \"contracts/modules/InfinityPool.sol\":1944:1945  u */\n      dup2\n        /* \"contracts/modules/InfinityPool.sol\":1944:1954  u.parentId */\n      0x02\n      add\n        /* \"contracts/modules/InfinityPool.sol\":1944:1965  u.parentId = parentId */\n      dup2\n      swap1\n      sstore\n      pop\n        /* \"contracts/modules/InfinityPool.sol\":2003:2014  matrixUsers */\n      0x01\n        /* \"contracts/modules/InfinityPool.sol\":2003:2024  matrixUsers[matrixId] */\n      0x00\n        /* \"contracts/modules/InfinityPool.sol\":2015:2023  matrixId */\n      dup6\n        /* \"contracts/modules/InfinityPool.sol\":2003:2024  matrixUsers[matrixId] */\n      dup2\n      mstore\n      0x20\n      add\n      swap1\n      dup2\n      mstore\n      0x20\n      add\n      0x00\n      keccak256\n        /* \"contracts/modules/InfinityPool.sol\":2003:2034  matrixUsers[matrixId][parentId] */\n      0x00\n        /* \"contracts/modules/InfinityPool.sol\":2025:2033  parentId */\n      dup4\n        /* \"contracts/modules/InfinityPool.sol\":2003:2034  matrixUsers[matrixId][parentId] */\n      dup2\n      mstore\n      0x20\n      add\n      swap1\n      dup2\n      mstore\n      0x20\n      add\n      0x00\n      keccak256\n        /* \"contracts/modules/InfinityPool.sol\":2003:2043  matrixUsers[matrixId][parentId].children */\n      0x03\n      add\n        /* \"contracts/modules/InfinityPool.sol\":2049:2054  newId */\n      dup4\n        /* \"contracts/modules/InfinityPool.sol\":2003:2055  matrixUsers[matrixId][parentId].children.push(newId) */\n      swap1\n      dup1\n      0x01\n      dup2\n      sload\n      add\n      dup1\n      dup3\n      sstore\n      dup1\n      swap2\n      pop\n      pop\n      0x01\n      swap1\n      sub\n      swap1\n      0x00\n      mstore\n      keccak256(0x00, 0x20)\n      add\n      0x00\n      swap1\n      swap2\n      swap1\n      swap2\n      swap1\n      swap2\n      pop\n      sstore\n        /* \"contracts/modules/InfinityPool.sol\":2096:2104  matrixId */\n      dup4\n        /* \"contracts/modules/InfinityPool.sol\":2084:2094  msg.sender */\n      caller\n        /* \"contracts/modules/InfinityPool.sol\":2073:2171  UserPlaced(msg.sender, matrixId, newId, parentId, matrixUsers[matrixId][parentId].children.length) */\n      0xffffffffffffffffffffffffffffffffffffffff\n      and\n      0x4544854342bf99dbb4490912e9bbd2d4849d7917dd4c7e36232f26cfad1ba24c\n        /* \"contracts/modules/InfinityPool.sol\":2106:2111  newId */\n      dup6\n        /* \"contracts/modules/InfinityPool.sol\":2113:2121  parentId */\n      dup6\n        /* \"contracts/modules/InfinityPool.sol\":2123:2134  matrixUsers */\n      0x01\n        /* \"contracts/modules/InfinityPool.sol\":2123:2144  matrixUsers[matrixId] */\n      0x00\n        /* \"contracts/modules/InfinityPool.sol\":2135:2143  matrixId */\n      dup11\n        /* \"contracts/modules/InfinityPool.sol\":2123:2144  matrixUsers[matrixId] */\n      dup2\n      mstore\n      0x20\n      add\n      swap1\n      dup2\n      mstore\n      0x20\n      add\n      0x00\n      keccak256\n        /* \"contracts/modules/InfinityPool.sol\":2123:2154  matrixUsers[matrixId][parentId] */\n      0x00\n        /* \"contracts/modules/InfinityPool.sol\":2145:2153  parentId */\n      dup9\n        /* \"contracts/modules/InfinityPool.sol\":2123:2154  matrixUsers[matrixId][parentId] */\n      dup2\n      mstore\n      0x20\n      add\n      swap1\n      dup2\n      mstore\n      0x20\n      add\n      0x00\n      keccak256\n        /* \"contracts/modules/InfinityPool.sol\":2123:2163  matrixUsers[matrixId][parentId].children */\n      0x03\n      add\n        /* \"contracts/modules/InfinityPool.sol\":2123:2170  matrixUsers[matrixId][parentId].children.length */\n      dup1\n      sload\n      swap1\n      pop\n        /* \"contracts/modules/InfinityPool.sol\":2073:2171  UserPlaced(msg.sender, matrixId, newId, parentId, matrixUsers[matrixId][parentId].children.length) */\n      mload(0x40)\n      tag_98\n      swap4\n      swap3\n      swap2\n      swap1\n      tag_99\n      jump\t// in\n    tag_98:\n      mload(0x40)\n      dup1\n      swap2\n      sub\n      swap1\n      log3\n        /* \"contracts/modules/InfinityPool.sol\":2243:2254  matrixQueue */\n      0x03\n        /* \"contracts/modules/InfinityPool.sol\":2243:2264  matrixQueue[matrixId] */\n      0x00\n        /* \"contracts/modules/InfinityPool.sol\":2255:2263  matrixId */\n      dup6\n        /* \"contracts/modules/InfinityPool.sol\":2243:2264  matrixQueue[matrixId] */\n      dup2\n      mstore\n      0x20\n      add\n      swap1\n      dup2\n      mstore\n      0x20\n      add\n      0x00\n      keccak256\n        /* \"contracts/modules/InfinityPool.sol\":2270:2275  newId */\n      dup4\n        /* \"contracts/modules/InfinityPool.sol\":2243:2276  matrixQueue[matrixId].push(newId) */\n      swap1\n      dup1\n      0x01\n      dup2\n      sload\n      add\n      dup1\n      dup3\n      sstore\n      dup1\n      swap2\n      pop\n      pop\n      0x01\n      swap1\n      sub\n      swap1\n      0x00\n      mstore\n      keccak256(0x00, 0x20)\n      add\n      0x00\n      swap1\n      swap2\n      swap1\n      swap2\n      swap1\n      swap2\n      pop\n      sstore\n        /* \"contracts/modules/InfinityPool.sol\":1471:2284  {... */\n      pop\n      pop\n      pop\n        /* \"contracts/modules/InfinityPool.sol\":1419:2284  function joinMatrix(uint matrixId) external payable {... */\n      pop\n      jump\t// out\n        /* \"contracts/modules/InfinityPool.sol\":3227:3345  function getQueue(uint matrixId) external view returns (uint[] memory) {... */\n    tag_25:\n        /* \"contracts/modules/InfinityPool.sol\":3283:3296  uint[] memory */\n      0x60\n        /* \"contracts/modules/InfinityPool.sol\":3316:3327  matrixQueue */\n      0x03\n        /* \"contracts/modules/InfinityPool.sol\":3316:3337  matrixQueue[matrixId] */\n      0x00\n        /* \"contracts/modules/InfinityPool.sol\":3328:3336  matrixId */\n      dup4\n        /* \"contracts/modules/InfinityPool.sol\":3316:3337  matrixQueue[matrixId] */\n      dup2\n      mstore\n      0x20\n      add\n      swap1\n      dup2\n      mstore\n      0x20\n      add\n      0x00\n      keccak256\n        /* \"contracts/modules/InfinityPool.sol\":3309:3337  return matrixQueue[matrixId] */\n      dup1\n      sload\n      dup1\n      0x20\n      mul\n      0x20\n      add\n      mload(0x40)\n      swap1\n      dup2\n      add\n      0x40\n      mstore\n      dup1\n      swap3\n      swap2\n      swap1\n      dup2\n      dup2\n      mstore\n      0x20\n      add\n      dup3\n      dup1\n      sload\n      dup1\n      iszero\n      tag_102\n      jumpi\n      0x20\n      mul\n      dup3\n      add\n      swap2\n      swap1\n      0x00\n      mstore\n      keccak256(0x00, 0x20)\n      swap1\n    tag_103:\n      dup2\n      sload\n      dup2\n      mstore\n      0x20\n      add\n      swap1\n      0x01\n      add\n      swap1\n      dup1\n      dup4\n      gt\n      tag_103\n      jumpi\n    tag_102:\n      pop\n      pop\n      pop\n      pop\n      pop\n      swap1\n      pop\n        /* \"contracts/modules/InfinityPool.sol\":3227:3345  function getQueue(uint matrixId) external view returns (uint[] memory) {... */\n      swap2\n      swap1\n      pop\n      jump\t// out\n        /* \"contracts/modules/InfinityPool.sol\":464:503  mapping(uint => uint) public lastUserId */\n    tag_31:\n      mstore(0x20, 0x02)\n      dup1\n      0x00\n      mstore\n      keccak256(0x00, 0x40)\n      0x00\n      swap2\n      pop\n      swap1\n      pop\n      sload\n      dup2\n      jump\t// out\n        /* \"contracts/modules/InfinityPool.sol\":536:578  mapping(uint => uint[]) public matrixQueue */\n    tag_38:\n      mstore(0x20, 0x03)\n      dup2\n      0x00\n      mstore\n      keccak256(0x00, 0x40)\n      dup2\n      dup2\n      sload\n      dup2\n      lt\n      tag_104\n      jumpi\n      0x00\n      dup1\n      revert\n    tag_104:\n      swap1\n      0x00\n      mstore\n      keccak256(0x00, 0x20)\n      add\n      0x00\n      swap2\n      pop\n      swap2\n      pop\n      pop\n      sload\n      dup2\n      jump\t// out\n        /* \"contracts/modules/InfinityPool.sol\":3068:3219  function getChildren(uint matrixId, uint userId) external view returns (uint[] memory) {... */\n    tag_43:\n        /* \"contracts/modules/InfinityPool.sol\":3140:3153  uint[] memory */\n      0x60\n        /* \"contracts/modules/InfinityPool.sol\":3173:3184  matrixUsers */\n      0x01\n        /* \"contracts/modules/InfinityPool.sol\":3173:3194  matrixUsers[matrixId] */\n      0x00\n        /* \"contracts/modules/InfinityPool.sol\":3185:3193  matrixId */\n      dup5\n        /* \"contracts/modules/InfinityPool.sol\":3173:3194  matrixUsers[matrixId] */\n      dup2\n      mstore\n      0x20\n      add\n      swap1\n      dup2\n      mstore\n      0x20\n      add\n      0x00\n      keccak256\n        /* \"contracts/modules/InfinityPool.sol\":3173:3202  matrixUsers[matrixId][userId] */\n      0x00\n        /* \"contracts/modules/InfinityPool.sol\":3195:3201  userId */\n      dup4\n        /* \"contracts/modules/InfinityPool.sol\":3173:3202  matrixUsers[matrixId][userId] */\n      dup2\n      mstore\n      0x20\n      add\n      swap1\n      dup2\n      mstore\n      0x20\n      add\n      0x00\n      keccak256\n        /* \"contracts/modules/InfinityPool.sol\":3173:3211  matrixUsers[matrixId][userId].children */\n      0x03\n      add\n        /* \"contracts/modules/InfinityPool.sol\":3166:3211  return matrixUsers[matrixId][userId].children */\n      dup1\n      sload\n      dup1\n      0x20\n      mul\n      0x20\n      add\n      mload(0x40)\n      swap1\n      dup2\n      add\n      0x40\n      mstore\n      dup1\n      swap3\n      swap2\n      swap1\n      dup2\n      dup2\n      mstore\n      0x20\n      add\n      dup3\n      dup1\n      sload\n      dup1\n      iszero\n      tag_107\n      jumpi\n      0x20\n      mul\n      dup3\n      add\n      swap2\n      swap1\n      0x00\n      mstore\n      keccak256(0x00, 0x20)\n      swap1\n    tag_108:\n      dup2\n      sload\n      dup2\n      mstore\n      0x20\n      add\n      swap1\n      0x01\n      add\n      swap1\n      dup1\n      dup4\n      gt\n      tag_108\n      jumpi\n    tag_107:\n      pop\n      pop\n      pop\n      pop\n      pop\n      swap1\n      pop\n        /* \"contracts/modules/InfinityPool.sol\":3068:3219  function getChildren(uint matrixId, uint userId) external view returns (uint[] memory) {... */\n      swap3\n      swap2\n      pop\n      pop\n      jump\t// out\n        /* \"contracts/modules/InfinityPool.sol\":622:678  mapping(uint => mapping(uint => uint[])) public UsersIds */\n    tag_49:\n      mstore(0x20, 0x04)\n      dup3\n      0x00\n      mstore\n      mstore(0x20, keccak256(0x00, 0x40))\n      dup2\n      0x00\n      mstore\n      keccak256(0x00, 0x40)\n      dup2\n      dup2\n      sload\n      dup2\n      lt\n      tag_109\n      jumpi\n      0x00\n      dup1\n      revert\n    tag_109:\n      swap1\n      0x00\n      mstore\n      keccak256(0x00, 0x20)\n      add\n      0x00\n      swap3\n      pop\n      swap3\n      pop\n      pop\n      pop\n      sload\n      dup2\n      jump\t// out\n        /* \"contracts/core/Ownable.sol\":85:105  address public owner */\n    tag_53:\n      0x00\n      dup1\n      sload\n      swap1\n      0x0100\n      exp\n      swap1\n      div\n      0xffffffffffffffffffffffffffffffffffffffff\n      and\n      dup2\n      jump\t// out\n        /* \"contracts/modules/InfinityPool.sol\":766:862  uint256[] public matrixPrices = [75e18, 300e18, 1200e18, 4800e18, 19200e18, 76800e18, 307200e18] */\n    tag_59:\n      0x05\n      dup2\n      dup2\n      sload\n      dup2\n      lt\n      tag_111\n      jumpi\n      0x00\n      dup1\n      revert\n    tag_111:\n      swap1\n      0x00\n      mstore\n      keccak256(0x00, 0x20)\n      add\n      0x00\n      swap2\n      pop\n      swap1\n      pop\n      sload\n      dup2\n      jump\t// out\n        /* \"contracts/modules/InfinityPool.sol\":135:172  uint public constant MAX_CHILDREN = 3 */\n    tag_63:\n        /* \"contracts/modules/InfinityPool.sol\":171:172  3 */\n      0x03\n        /* \"contracts/modules/InfinityPool.sol\":135:172  uint public constant MAX_CHILDREN = 3 */\n      dup2\n      jump\t// out\n        /* \"contracts/modules/InfinityPool.sol\":2752:3060  function getUser(uint matrixId, uint userId) external view returns (... */\n    tag_68:\n        /* \"contracts/modules/InfinityPool.sol\":2830:2837  uint id */\n      0x00\n        /* \"contracts/modules/InfinityPool.sol\":2848:2867  address userAddress */\n      dup1\n        /* \"contracts/modules/InfinityPool.sol\":2878:2891  uint parentId */\n      0x00\n        /* \"contracts/modules/InfinityPool.sol\":2902:2924  uint[] memory children */\n      0x60\n        /* \"contracts/modules/InfinityPool.sol\":2943:2957  User storage u */\n      0x00\n        /* \"contracts/modules/InfinityPool.sol\":2960:2971  matrixUsers */\n      0x01\n        /* \"contracts/modules/InfinityPool.sol\":2960:2981  matrixUsers[matrixId] */\n      0x00\n        /* \"contracts/modules/InfinityPool.sol\":2972:2980  matrixId */\n      dup9\n        /* \"contracts/modules/InfinityPool.sol\":2960:2981  matrixUsers[matrixId] */\n      dup2\n      mstore\n      0x20\n      add\n      swap1\n      dup2\n      mstore\n      0x20\n      add\n      0x00\n      keccak256\n        /* \"contracts/modules/InfinityPool.sol\":2960:2989  matrixUsers[matrixId][userId] */\n      0x00\n        /* \"contracts/modules/InfinityPool.sol\":2982:2988  userId */\n      dup8\n        /* \"contracts/modules/InfinityPool.sol\":2960:2989  matrixUsers[matrixId][userId] */\n      dup2\n      mstore\n      0x20\n      add\n      swap1\n      dup2\n      mstore\n      0x20\n      add\n      0x00\n      keccak256\n        /* \"contracts/modules/InfinityPool.sol\":2943:2989  User storage u = matrixUsers[matrixId][userId] */\n      swap1\n      pop\n        /* \"contracts/modules/InfinityPool.sol\":3008:3009  u */\n      dup1\n        /* \"contracts/modules/InfinityPool.sol\":3008:3012  u.id */\n      0x00\n      add\n      sload\n        /* \"contracts/modules/InfinityPool.sol\":3014:3015  u */\n      dup2\n        /* \"contracts/modules/InfinityPool.sol\":3014:3027  u.userAddress */\n      0x01\n      add\n      0x00\n      swap1\n      sload\n      swap1\n      0x0100\n      exp\n      swap1\n      div\n      0xffffffffffffffffffffffffffffffffffffffff\n      and\n        /* \"contracts/modules/InfinityPool.sol\":3029:3030  u */\n      dup3\n        /* \"contracts/modules/InfinityPool.sol\":3029:3039  u.parentId */\n      0x02\n      add\n      sload\n        /* \"contracts/modules/InfinityPool.sol\":3041:3042  u */\n      dup4\n        /* \"contracts/modules/InfinityPool.sol\":3041:3051  u.children */\n      0x03\n      add\n        /* \"contracts/modules/InfinityPool.sol\":3000:3052  return (u.id, u.userAddress, u.parentId, u.children) */\n      dup1\n      dup1\n      sload\n      dup1\n      0x20\n      mul\n      0x20\n      add\n      mload(0x40)\n      swap1\n      dup2\n      add\n      0x40\n      mstore\n      dup1\n      swap3\n      swap2\n      swap1\n      dup2\n      dup2\n      mstore\n      0x20\n      add\n      dup3\n      dup1\n      sload\n      dup1\n      iszero\n      tag_114\n      jumpi\n      0x20\n      mul\n      dup3\n      add\n      swap2\n      swap1\n      0x00\n      mstore\n      keccak256(0x00, 0x20)\n      swap1\n    tag_115:\n      dup2\n      sload\n      dup2\n      mstore\n      0x20\n      add\n      swap1\n      0x01\n      add\n      swap1\n      dup1\n      dup4\n      gt\n      tag_115\n      jumpi\n    tag_114:\n      pop\n      pop\n      pop\n      pop\n      pop\n      swap1\n      pop\n      swap5\n      pop\n      swap5\n      pop\n      swap5\n      pop\n      swap5\n      pop\n      pop\n        /* \"contracts/modules/InfinityPool.sol\":2752:3060  function getUser(uint matrixId, uint userId) external view returns (... */\n      swap3\n      swap6\n      swap2\n      swap5\n      pop\n      swap3\n      pop\n      jump\t// out\n        /* \"contracts/modules/InfinityPool.sol\":370:427  mapping(uint => mapping(uint => User)) public matrixUsers */\n    tag_74:\n      mstore(0x20, 0x01)\n      dup2\n      0x00\n      mstore\n      mstore(0x20, keccak256(0x00, 0x40))\n      dup1\n      0x00\n      mstore\n      keccak256(0x00, 0x40)\n      0x00\n      swap2\n      pop\n      swap2\n      pop\n      pop\n      dup1\n      0x00\n      add\n      sload\n      swap1\n      dup1\n      0x01\n      add\n      0x00\n      swap1\n      sload\n      swap1\n      0x0100\n      exp\n      swap1\n      div\n      0xffffffffffffffffffffffffffffffffffffffff\n      and\n      swap1\n      dup1\n      0x02\n      add\n      sload\n      swap1\n      pop\n      dup4\n      jump\t// out\n        /* \"contracts/core/Ownable.sol\":444:666  function transferOwnership(address newOwner) external onlyOwner {... */\n    tag_81:\n        /* \"contracts/core/Ownable.sol\":374:379  owner */\n      0x00\n      dup1\n      sload\n      swap1\n      0x0100\n      exp\n      swap1\n      div\n      0xffffffffffffffffffffffffffffffffffffffff\n      and\n        /* \"contracts/core/Ownable.sol\":360:379  msg.sender == owner */\n      0xffffffffffffffffffffffffffffffffffffffff\n      and\n        /* \"contracts/core/Ownable.sol\":360:370  msg.sender */\n      caller\n        /* \"contracts/core/Ownable.sol\":360:379  msg.sender == owner */\n      0xffffffffffffffffffffffffffffffffffffffff\n      and\n      eq\n        /* \"contracts/core/Ownable.sol\":352:416  require(msg.sender == owner, \"Ownable: caller is not the owner\") */\n      tag_117\n      jumpi\n      mload(0x40)\n      0x08c379a000000000000000000000000000000000000000000000000000000000\n      dup2\n      mstore\n      0x04\n      add\n      tag_118\n      swap1\n      tag_119\n      jump\t// in\n    tag_118:\n      mload(0x40)\n      dup1\n      swap2\n      sub\n      swap1\n      revert\n    tag_117:\n        /* \"contracts/core/Ownable.sol\":547:548  0 */\n      0x00\n        /* \"contracts/core/Ownable.sol\":527:549  newOwner != address(0) */\n      0xffffffffffffffffffffffffffffffffffffffff\n      and\n        /* \"contracts/core/Ownable.sol\":527:535  newOwner */\n      dup2\n        /* \"contracts/core/Ownable.sol\":527:549  newOwner != address(0) */\n      0xffffffffffffffffffffffffffffffffffffffff\n      and\n      sub\n        /* \"contracts/core/Ownable.sol\":519:578  require(newOwner != address(0), \"New owner cannot be zero\") */\n      tag_121\n      jumpi\n      mload(0x40)\n      0x08c379a000000000000000000000000000000000000000000000000000000000\n      dup2\n      mstore\n      0x04\n      add\n      tag_122\n      swap1\n      tag_123\n      jump\t// in\n    tag_122:\n      mload(0x40)\n      dup1\n      swap2\n      sub\n      swap1\n      revert\n    tag_121:\n        /* \"contracts/core/Ownable.sol\":622:630  newOwner */\n      dup1\n        /* \"contracts/core/Ownable.sol\":594:631  OwnershipTransferred(owner, newOwner) */\n      0xffffffffffffffffffffffffffffffffffffffff\n      and\n        /* \"contracts/core/Ownable.sol\":615:620  owner */\n      0x00\n      dup1\n      sload\n      swap1\n      0x0100\n      exp\n      swap1\n      div\n      0xffffffffffffffffffffffffffffffffffffffff\n      and\n        /* \"contracts/core/Ownable.sol\":594:631  OwnershipTransferred(owner, newOwner) */\n      0xffffffffffffffffffffffffffffffffffffffff\n      and\n      0x8be0079c531659141344cd1fd0a4f28419497f9722a3daafe3b4186f6b6457e0\n      mload(0x40)\n      mload(0x40)\n      dup1\n      swap2\n      sub\n      swap1\n      log3\n        /* \"contracts/core/Ownable.sol\":650:658  newOwner */\n      dup1\n        /* \"contracts/core/Ownable.sol\":642:647  owner */\n      0x00\n      dup1\n        /* \"contracts/core/Ownable.sol\":642:658  owner = newOwner */\n      0x0100\n      exp\n      dup2\n      sload\n      dup2\n      0xffffffffffffffffffffffffffffffffffffffff\n      mul\n      not\n      and\n      swap1\n      dup4\n      0xffffffffffffffffffffffffffffffffffffffff\n      and\n      mul\n      or\n      swap1\n      sstore\n      pop\n        /* \"contracts/core/Ownable.sol\":444:666  function transferOwnership(address newOwner) external onlyOwner {... */\n      pop\n      jump\t// out\n        /* \"contracts/modules/InfinityPool.sol\":2292:2723  function _findNextAvailableParent(uint matrixId) internal returns (uint parentId) {... */\n    tag_96:\n        /* \"contracts/modules/InfinityPool.sol\":2359:2372  uint parentId */\n      0x00\n        /* \"contracts/modules/InfinityPool.sol\":2385:2405  uint[] storage queue */\n      dup1\n        /* \"contracts/modules/InfinityPool.sol\":2408:2419  matrixQueue */\n      0x03\n        /* \"contracts/modules/InfinityPool.sol\":2408:2429  matrixQueue[matrixId] */\n      0x00\n        /* \"contracts/modules/InfinityPool.sol\":2420:2428  matrixId */\n      dup5\n        /* \"contracts/modules/InfinityPool.sol\":2408:2429  matrixQueue[matrixId] */\n      dup2\n      mstore\n      0x20\n      add\n      swap1\n      dup2\n      mstore\n      0x20\n      add\n      0x00\n      keccak256\n        /* \"contracts/modules/InfinityPool.sol\":2385:2429  uint[] storage queue = matrixQueue[matrixId] */\n      swap1\n      pop\n        /* \"contracts/modules/InfinityPool.sol\":2447:2453  uint i */\n      0x00\n        /* \"contracts/modules/InfinityPool.sol\":2442:2668  for (uint i = 0; i < queue.length; i++) {... */\n    tag_125:\n        /* \"contracts/modules/InfinityPool.sol\":2463:2468  queue */\n      dup2\n        /* \"contracts/modules/InfinityPool.sol\":2463:2475  queue.length */\n      dup1\n      sload\n      swap1\n      pop\n        /* \"contracts/modules/InfinityPool.sol\":2459:2460  i */\n      dup2\n        /* \"contracts/modules/InfinityPool.sol\":2459:2475  i < queue.length */\n      lt\n        /* \"contracts/modules/InfinityPool.sol\":2442:2668  for (uint i = 0; i < queue.length; i++) {... */\n      iszero\n      tag_126\n      jumpi\n        /* \"contracts/modules/InfinityPool.sol\":2497:2511  uint candidate */\n      0x00\n        /* \"contracts/modules/InfinityPool.sol\":2514:2519  queue */\n      dup3\n        /* \"contracts/modules/InfinityPool.sol\":2520:2521  i */\n      dup3\n        /* \"contracts/modules/InfinityPool.sol\":2514:2522  queue[i] */\n      dup2\n      sload\n      dup2\n      lt\n      tag_128\n      jumpi\n      tag_129\n      tag_88\n      jump\t// in\n    tag_129:\n    tag_128:\n      swap1\n      0x00\n      mstore\n      keccak256(0x00, 0x20)\n      add\n      sload\n        /* \"contracts/modules/InfinityPool.sol\":2497:2522  uint candidate = queue[i] */\n      swap1\n      pop\n        /* \"contracts/modules/InfinityPool.sol\":171:172  3 */\n      0x03\n        /* \"contracts/modules/InfinityPool.sol\":2541:2552  matrixUsers */\n      0x01\n        /* \"contracts/modules/InfinityPool.sol\":2541:2562  matrixUsers[matrixId] */\n      0x00\n        /* \"contracts/modules/InfinityPool.sol\":2553:2561  matrixId */\n      dup8\n        /* \"contracts/modules/InfinityPool.sol\":2541:2562  matrixUsers[matrixId] */\n      dup2\n      mstore\n      0x20\n      add\n      swap1\n      dup2\n      mstore\n      0x20\n      add\n      0x00\n      keccak256\n        /* \"contracts/modules/InfinityPool.sol\":2541:2573  matrixUsers[matrixId][candidate] */\n      0x00\n        /* \"contracts/modules/InfinityPool.sol\":2563:2572  candidate */\n      dup4\n        /* \"contracts/modules/InfinityPool.sol\":2541:2573  matrixUsers[matrixId][candidate] */\n      dup2\n      mstore\n      0x20\n      add\n      swap1\n      dup2\n      mstore\n      0x20\n      add\n      0x00\n      keccak256\n        /* \"contracts/modules/InfinityPool.sol\":2541:2582  matrixUsers[matrixId][candidate].children */\n      0x03\n      add\n        /* \"contracts/modules/InfinityPool.sol\":2541:2589  matrixUsers[matrixId][candidate].children.length */\n      dup1\n      sload\n      swap1\n      pop\n        /* \"contracts/modules/InfinityPool.sol\":2541:2604  matrixUsers[matrixId][candidate].children.length < MAX_CHILDREN */\n      lt\n        /* \"contracts/modules/InfinityPool.sol\":2537:2657  if (matrixUsers[matrixId][candidate].children.length < MAX_CHILDREN) {... */\n      iszero\n      tag_131\n      jumpi\n        /* \"contracts/modules/InfinityPool.sol\":2632:2641  candidate */\n      dup1\n        /* \"contracts/modules/InfinityPool.sol\":2625:2641  return candidate */\n      swap4\n      pop\n      pop\n      pop\n      pop\n      jump(tag_124)\n        /* \"contracts/modules/InfinityPool.sol\":2537:2657  if (matrixUsers[matrixId][candidate].children.length < MAX_CHILDREN) {... */\n    tag_131:\n        /* \"contracts/modules/InfinityPool.sol\":2482:2668  {... */\n      pop\n        /* \"contracts/modules/InfinityPool.sol\":2477:2480  i++ */\n      dup1\n      dup1\n      tag_132\n      swap1\n      tag_94\n      jump\t// in\n    tag_132:\n      swap2\n      pop\n      pop\n        /* \"contracts/modules/InfinityPool.sol\":2442:2668  for (uint i = 0; i < queue.length; i++) {... */\n      jump(tag_125)\n    tag_126:\n      pop\n        /* \"contracts/modules/InfinityPool.sol\":2680:2715  revert(\"No available parent found\") */\n      mload(0x40)\n      0x08c379a000000000000000000000000000000000000000000000000000000000\n      dup2\n      mstore\n      0x04\n      add\n      tag_133\n      swap1\n      tag_134\n      jump\t// in\n    tag_133:\n      mload(0x40)\n      dup1\n      swap2\n      sub\n      swap1\n      revert\n        /* \"contracts/modules/InfinityPool.sol\":2292:2723  function _findNextAvailableParent(uint matrixId) internal returns (uint parentId) {... */\n    tag_124:\n      swap2\n      swap1\n      pop\n      jump\t// out\n        /* \"#utility.yul\":88:205   */\n    tag_136:\n        /* \"#utility.yul\":197:198   */\n      0x00\n        /* \"#utility.yul\":194:195   */\n      dup1\n        /* \"#utility.yul\":187:199   */\n      revert\n        /* \"#utility.yul\":334:411   */\n    tag_138:\n        /* \"#utility.yul\":371:378   */\n      0x00\n        /* \"#utility.yul\":400:405   */\n      dup2\n        /* \"#utility.yul\":389:405   */\n      swap1\n      pop\n        /* \"#utility.yul\":334:411   */\n      swap2\n      swap1\n      pop\n      jump\t// out\n        /* \"#utility.yul\":417:539   */\n    tag_139:\n        /* \"#utility.yul\":490:514   */\n      tag_172\n        /* \"#utility.yul\":508:513   */\n      dup2\n        /* \"#utility.yul\":490:514   */\n      tag_138\n      jump\t// in\n    tag_172:\n        /* \"#utility.yul\":483:488   */\n      dup2\n        /* \"#utility.yul\":480:515   */\n      eq\n        /* \"#utility.yul\":470:533   */\n      tag_173\n      jumpi\n        /* \"#utility.yul\":529:530   */\n      0x00\n        /* \"#utility.yul\":526:527   */\n      dup1\n        /* \"#utility.yul\":519:531   */\n      revert\n        /* \"#utility.yul\":470:533   */\n    tag_173:\n        /* \"#utility.yul\":417:539   */\n      pop\n      jump\t// out\n        /* \"#utility.yul\":545:684   */\n    tag_140:\n        /* \"#utility.yul\":591:596   */\n      0x00\n        /* \"#utility.yul\":629:635   */\n      dup2\n        /* \"#utility.yul\":616:636   */\n      calldataload\n        /* \"#utility.yul\":607:636   */\n      swap1\n      pop\n        /* \"#utility.yul\":645:678   */\n      tag_175\n        /* \"#utility.yul\":672:677   */\n      dup2\n        /* \"#utility.yul\":645:678   */\n      tag_139\n      jump\t// in\n    tag_175:\n        /* \"#utility.yul\":545:684   */\n      swap3\n      swap2\n      pop\n      pop\n      jump\t// out\n        /* \"#utility.yul\":690:1019   */\n    tag_20:\n        /* \"#utility.yul\":749:755   */\n      0x00\n        /* \"#utility.yul\":798:800   */\n      0x20\n        /* \"#utility.yul\":786:795   */\n      dup3\n        /* \"#utility.yul\":777:784   */\n      dup5\n        /* \"#utility.yul\":773:796   */\n      sub\n        /* \"#utility.yul\":769:801   */\n      slt\n        /* \"#utility.yul\":766:885   */\n      iszero\n      tag_177\n      jumpi\n        /* \"#utility.yul\":804:883   */\n      tag_178\n      tag_136\n      jump\t// in\n    tag_178:\n        /* \"#utility.yul\":766:885   */\n    tag_177:\n        /* \"#utility.yul\":924:925   */\n      0x00\n        /* \"#utility.yul\":949:1002   */\n      tag_179\n        /* \"#utility.yul\":994:1001   */\n      dup5\n        /* \"#utility.yul\":985:991   */\n      dup3\n        /* \"#utility.yul\":974:983   */\n      dup6\n        /* \"#utility.yul\":970:992   */\n      add\n        /* \"#utility.yul\":949:1002   */\n      tag_140\n      jump\t// in\n    tag_179:\n        /* \"#utility.yul\":939:1002   */\n      swap2\n      pop\n        /* \"#utility.yul\":895:1012   */\n      pop\n        /* \"#utility.yul\":690:1019   */\n      swap3\n      swap2\n      pop\n      pop\n      jump\t// out\n        /* \"#utility.yul\":1025:1139   */\n    tag_141:\n        /* \"#utility.yul\":1092:1098   */\n      0x00\n        /* \"#utility.yul\":1126:1131   */\n      dup2\n        /* \"#utility.yul\":1120:1132   */\n      mload\n        /* \"#utility.yul\":1110:1132   */\n      swap1\n      pop\n        /* \"#utility.yul\":1025:1139   */\n      swap2\n      swap1\n      pop\n      jump\t// out\n        /* \"#utility.yul\":1145:1329   */\n    tag_142:\n        /* \"#utility.yul\":1244:1255   */\n      0x00\n        /* \"#utility.yul\":1278:1284   */\n      dup3\n        /* \"#utility.yul\":1273:1276   */\n      dup3\n        /* \"#utility.yul\":1266:1285   */\n      mstore\n        /* \"#utility.yul\":1318:1322   */\n      0x20\n        /* \"#utility.yul\":1313:1316   */\n      dup3\n        /* \"#utility.yul\":1309:1323   */\n      add\n        /* \"#utility.yul\":1294:1323   */\n      swap1\n      pop\n        /* \"#utility.yul\":1145:1329   */\n      swap3\n      swap2\n      pop\n      pop\n      jump\t// out\n        /* \"#utility.yul\":1335:1467   */\n    tag_143:\n        /* \"#utility.yul\":1402:1406   */\n      0x00\n        /* \"#utility.yul\":1425:1428   */\n      dup2\n        /* \"#utility.yul\":1417:1428   */\n      swap1\n      pop\n        /* \"#utility.yul\":1455:1459   */\n      0x20\n        /* \"#utility.yul\":1450:1453   */\n      dup3\n        /* \"#utility.yul\":1446:1460   */\n      add\n        /* \"#utility.yul\":1438:1460   */\n      swap1\n      pop\n        /* \"#utility.yul\":1335:1467   */\n      swap2\n      swap1\n      pop\n      jump\t// out\n        /* \"#utility.yul\":1473:1581   */\n    tag_144:\n        /* \"#utility.yul\":1550:1574   */\n      tag_184\n        /* \"#utility.yul\":1568:1573   */\n      dup2\n        /* \"#utility.yul\":1550:1574   */\n      tag_138\n      jump\t// in\n    tag_184:\n        /* \"#utility.yul\":1545:1548   */\n      dup3\n        /* \"#utility.yul\":1538:1575   */\n      mstore\n        /* \"#utility.yul\":1473:1581   */\n      pop\n      pop\n      jump\t// out\n        /* \"#utility.yul\":1587:1766   */\n    tag_145:\n        /* \"#utility.yul\":1656:1666   */\n      0x00\n        /* \"#utility.yul\":1677:1723   */\n      tag_186\n        /* \"#utility.yul\":1719:1722   */\n      dup4\n        /* \"#utility.yul\":1711:1717   */\n      dup4\n        /* \"#utility.yul\":1677:1723   */\n      tag_144\n      jump\t// in\n    tag_186:\n        /* \"#utility.yul\":1755:1759   */\n      0x20\n        /* \"#utility.yul\":1750:1753   */\n      dup4\n        /* \"#utility.yul\":1746:1760   */\n      add\n        /* \"#utility.yul\":1732:1760   */\n      swap1\n      pop\n        /* \"#utility.yul\":1587:1766   */\n      swap3\n      swap2\n      pop\n      pop\n      jump\t// out\n        /* \"#utility.yul\":1772:1885   */\n    tag_146:\n        /* \"#utility.yul\":1842:1846   */\n      0x00\n        /* \"#utility.yul\":1874:1878   */\n      0x20\n        /* \"#utility.yul\":1869:1872   */\n      dup3\n        /* \"#utility.yul\":1865:1879   */\n      add\n        /* \"#utility.yul\":1857:1879   */\n      swap1\n      pop\n        /* \"#utility.yul\":1772:1885   */\n      swap2\n      swap1\n      pop\n      jump\t// out\n        /* \"#utility.yul\":1921:2653   */\n    tag_147:\n        /* \"#utility.yul\":2040:2043   */\n      0x00\n        /* \"#utility.yul\":2069:2123   */\n      tag_189\n        /* \"#utility.yul\":2117:2122   */\n      dup3\n        /* \"#utility.yul\":2069:2123   */\n      tag_141\n      jump\t// in\n    tag_189:\n        /* \"#utility.yul\":2139:2225   */\n      tag_190\n        /* \"#utility.yul\":2218:2224   */\n      dup2\n        /* \"#utility.yul\":2213:2216   */\n      dup6\n        /* \"#utility.yul\":2139:2225   */\n      tag_142\n      jump\t// in\n    tag_190:\n        /* \"#utility.yul\":2132:2225   */\n      swap4\n      pop\n        /* \"#utility.yul\":2249:2305   */\n      tag_191\n        /* \"#utility.yul\":2299:2304   */\n      dup4\n        /* \"#utility.yul\":2249:2305   */\n      tag_143\n      jump\t// in\n    tag_191:\n        /* \"#utility.yul\":2328:2335   */\n      dup1\n        /* \"#utility.yul\":2359:2360   */\n      0x00\n        /* \"#utility.yul\":2344:2628   */\n    tag_192:\n        /* \"#utility.yul\":2369:2375   */\n      dup4\n        /* \"#utility.yul\":2366:2367   */\n      dup2\n        /* \"#utility.yul\":2363:2376   */\n      lt\n        /* \"#utility.yul\":2344:2628   */\n      iszero\n      tag_194\n      jumpi\n        /* \"#utility.yul\":2445:2451   */\n      dup2\n        /* \"#utility.yul\":2439:2452   */\n      mload\n        /* \"#utility.yul\":2472:2535   */\n      tag_195\n        /* \"#utility.yul\":2531:2534   */\n      dup9\n        /* \"#utility.yul\":2516:2529   */\n      dup3\n        /* \"#utility.yul\":2472:2535   */\n      tag_145\n      jump\t// in\n    tag_195:\n        /* \"#utility.yul\":2465:2535   */\n      swap8\n      pop\n        /* \"#utility.yul\":2558:2618   */\n      tag_196\n        /* \"#utility.yul\":2611:2617   */\n      dup4\n        /* \"#utility.yul\":2558:2618   */\n      tag_146\n      jump\t// in\n    tag_196:\n        /* \"#utility.yul\":2548:2618   */\n      swap3\n      pop\n        /* \"#utility.yul\":2404:2628   */\n      pop\n        /* \"#utility.yul\":2391:2392   */\n      0x01\n        /* \"#utility.yul\":2388:2389   */\n      dup2\n        /* \"#utility.yul\":2384:2393   */\n      add\n        /* \"#utility.yul\":2379:2393   */\n      swap1\n      pop\n        /* \"#utility.yul\":2344:2628   */\n      jump(tag_192)\n    tag_194:\n        /* \"#utility.yul\":2348:2362   */\n      pop\n        /* \"#utility.yul\":2644:2647   */\n      dup6\n        /* \"#utility.yul\":2637:2647   */\n      swap4\n      pop\n        /* \"#utility.yul\":2045:2653   */\n      pop\n      pop\n      pop\n        /* \"#utility.yul\":1921:2653   */\n      swap3\n      swap2\n      pop\n      pop\n      jump\t// out\n        /* \"#utility.yul\":2659:3032   */\n    tag_27:\n        /* \"#utility.yul\":2802:2806   */\n      0x00\n        /* \"#utility.yul\":2840:2842   */\n      0x20\n        /* \"#utility.yul\":2829:2838   */\n      dup3\n        /* \"#utility.yul\":2825:2843   */\n      add\n        /* \"#utility.yul\":2817:2843   */\n      swap1\n      pop\n        /* \"#utility.yul\":2889:2898   */\n      dup2\n        /* \"#utility.yul\":2883:2887   */\n      dup2\n        /* \"#utility.yul\":2879:2899   */\n      sub\n        /* \"#utility.yul\":2875:2876   */\n      0x00\n        /* \"#utility.yul\":2864:2873   */\n      dup4\n        /* \"#utility.yul\":2860:2877   */\n      add\n        /* \"#utility.yul\":2853:2900   */\n      mstore\n        /* \"#utility.yul\":2917:3025   */\n      tag_198\n        /* \"#utility.yul\":3020:3024   */\n      dup2\n        /* \"#utility.yul\":3011:3017   */\n      dup5\n        /* \"#utility.yul\":2917:3025   */\n      tag_147\n      jump\t// in\n    tag_198:\n        /* \"#utility.yul\":2909:3025   */\n      swap1\n      pop\n        /* \"#utility.yul\":2659:3032   */\n      swap3\n      swap2\n      pop\n      pop\n      jump\t// out\n        /* \"#utility.yul\":3038:3156   */\n    tag_148:\n        /* \"#utility.yul\":3125:3149   */\n      tag_200\n        /* \"#utility.yul\":3143:3148   */\n      dup2\n        /* \"#utility.yul\":3125:3149   */\n      tag_138\n      jump\t// in\n    tag_200:\n        /* \"#utility.yul\":3120:3123   */\n      dup3\n        /* \"#utility.yul\":3113:3150   */\n      mstore\n        /* \"#utility.yul\":3038:3156   */\n      pop\n      pop\n      jump\t// out\n        /* \"#utility.yul\":3162:3384   */\n    tag_33:\n        /* \"#utility.yul\":3255:3259   */\n      0x00\n        /* \"#utility.yul\":3293:3295   */\n      0x20\n        /* \"#utility.yul\":3282:3291   */\n      dup3\n        /* \"#utility.yul\":3278:3296   */\n      add\n        /* \"#utility.yul\":3270:3296   */\n      swap1\n      pop\n        /* \"#utility.yul\":3306:3377   */\n      tag_202\n        /* \"#utility.yul\":3374:3375   */\n      0x00\n        /* \"#utility.yul\":3363:3372   */\n      dup4\n        /* \"#utility.yul\":3359:3376   */\n      add\n        /* \"#utility.yul\":3350:3356   */\n      dup5\n        /* \"#utility.yul\":3306:3377   */\n      tag_148\n      jump\t// in\n    tag_202:\n        /* \"#utility.yul\":3162:3384   */\n      swap3\n      swap2\n      pop\n      pop\n      jump\t// out\n        /* \"#utility.yul\":3390:3864   */\n    tag_37:\n        /* \"#utility.yul\":3458:3464   */\n      0x00\n        /* \"#utility.yul\":3466:3472   */\n      dup1\n        /* \"#utility.yul\":3515:3517   */\n      0x40\n        /* \"#utility.yul\":3503:3512   */\n      dup4\n        /* \"#utility.yul\":3494:3501   */\n      dup6\n        /* \"#utility.yul\":3490:3513   */\n      sub\n        /* \"#utility.yul\":3486:3518   */\n      slt\n        /* \"#utility.yul\":3483:3602   */\n      iszero\n      tag_204\n      jumpi\n        /* \"#utility.yul\":3521:3600   */\n      tag_205\n      tag_136\n      jump\t// in\n    tag_205:\n        /* \"#utility.yul\":3483:3602   */\n    tag_204:\n        /* \"#utility.yul\":3641:3642   */\n      0x00\n        /* \"#utility.yul\":3666:3719   */\n      tag_206\n        /* \"#utility.yul\":3711:3718   */\n      dup6\n        /* \"#utility.yul\":3702:3708   */\n      dup3\n        /* \"#utility.yul\":3691:3700   */\n      dup7\n        /* \"#utility.yul\":3687:3709   */\n      add\n        /* \"#utility.yul\":3666:3719   */\n      tag_140\n      jump\t// in\n    tag_206:\n        /* \"#utility.yul\":3656:3719   */\n      swap3\n      pop\n        /* \"#utility.yul\":3612:3729   */\n      pop\n        /* \"#utility.yul\":3768:3770   */\n      0x20\n        /* \"#utility.yul\":3794:3847   */\n      tag_207\n        /* \"#utility.yul\":3839:3846   */\n      dup6\n        /* \"#utility.yul\":3830:3836   */\n      dup3\n        /* \"#utility.yul\":3819:3828   */\n      dup7\n        /* \"#utility.yul\":3815:3837   */\n      add\n        /* \"#utility.yul\":3794:3847   */\n      tag_140\n      jump\t// in\n    tag_207:\n        /* \"#utility.yul\":3784:3847   */\n      swap2\n      pop\n        /* \"#utility.yul\":3739:3857   */\n      pop\n        /* \"#utility.yul\":3390:3864   */\n      swap3\n      pop\n      swap3\n      swap1\n      pop\n      jump\t// out\n        /* \"#utility.yul\":3870:4489   */\n    tag_48:\n        /* \"#utility.yul\":3947:3953   */\n      0x00\n        /* \"#utility.yul\":3955:3961   */\n      dup1\n        /* \"#utility.yul\":3963:3969   */\n      0x00\n        /* \"#utility.yul\":4012:4014   */\n      0x60\n        /* \"#utility.yul\":4000:4009   */\n      dup5\n        /* \"#utility.yul\":3991:3998   */\n      dup7\n        /* \"#utility.yul\":3987:4010   */\n      sub\n        /* \"#utility.yul\":3983:4015   */\n      slt\n        /* \"#utility.yul\":3980:4099   */\n      iszero\n      tag_209\n      jumpi\n        /* \"#utility.yul\":4018:4097   */\n      tag_210\n      tag_136\n      jump\t// in\n    tag_210:\n        /* \"#utility.yul\":3980:4099   */\n    tag_209:\n        /* \"#utility.yul\":4138:4139   */\n      0x00\n        /* \"#utility.yul\":4163:4216   */\n      tag_211\n        /* \"#utility.yul\":4208:4215   */\n      dup7\n        /* \"#utility.yul\":4199:4205   */\n      dup3\n        /* \"#utility.yul\":4188:4197   */\n      dup8\n        /* \"#utility.yul\":4184:4206   */\n      add\n        /* \"#utility.yul\":4163:4216   */\n      tag_140\n      jump\t// in\n    tag_211:\n        /* \"#utility.yul\":4153:4216   */\n      swap4\n      pop\n        /* \"#utility.yul\":4109:4226   */\n      pop\n        /* \"#utility.yul\":4265:4267   */\n      0x20\n        /* \"#utility.yul\":4291:4344   */\n      tag_212\n        /* \"#utility.yul\":4336:4343   */\n      dup7\n        /* \"#utility.yul\":4327:4333   */\n      dup3\n        /* \"#utility.yul\":4316:4325   */\n      dup8\n        /* \"#utility.yul\":4312:4334   */\n      add\n        /* \"#utility.yul\":4291:4344   */\n      tag_140\n      jump\t// in\n    tag_212:\n        /* \"#utility.yul\":4281:4344   */\n      swap3\n      pop\n        /* \"#utility.yul\":4236:4354   */\n      pop\n        /* \"#utility.yul\":4393:4395   */\n      0x40\n        /* \"#utility.yul\":4419:4472   */\n      tag_213\n        /* \"#utility.yul\":4464:4471   */\n      dup7\n        /* \"#utility.yul\":4455:4461   */\n      dup3\n        /* \"#utility.yul\":4444:4453   */\n      dup8\n        /* \"#utility.yul\":4440:4462   */\n      add\n        /* \"#utility.yul\":4419:4472   */\n      tag_140\n      jump\t// in\n    tag_213:\n        /* \"#utility.yul\":4409:4472   */\n      swap2\n      pop\n        /* \"#utility.yul\":4364:4482   */\n      pop\n        /* \"#utility.yul\":3870:4489   */\n      swap3\n      pop\n      swap3\n      pop\n      swap3\n      jump\t// out\n        /* \"#utility.yul\":4495:4621   */\n    tag_149:\n        /* \"#utility.yul\":4532:4539   */\n      0x00\n        /* \"#utility.yul\":4572:4614   */\n      0xffffffffffffffffffffffffffffffffffffffff\n        /* \"#utility.yul\":4565:4570   */\n      dup3\n        /* \"#utility.yul\":4561:4615   */\n      and\n        /* \"#utility.yul\":4550:4615   */\n      swap1\n      pop\n        /* \"#utility.yul\":4495:4621   */\n      swap2\n      swap1\n      pop\n      jump\t// out\n        /* \"#utility.yul\":4627:4723   */\n    tag_150:\n        /* \"#utility.yul\":4664:4671   */\n      0x00\n        /* \"#utility.yul\":4693:4717   */\n      tag_216\n        /* \"#utility.yul\":4711:4716   */\n      dup3\n        /* \"#utility.yul\":4693:4717   */\n      tag_149\n      jump\t// in\n    tag_216:\n        /* \"#utility.yul\":4682:4717   */\n      swap1\n      pop\n        /* \"#utility.yul\":4627:4723   */\n      swap2\n      swap1\n      pop\n      jump\t// out\n        /* \"#utility.yul\":4729:4847   */\n    tag_151:\n        /* \"#utility.yul\":4816:4840   */\n      tag_218\n        /* \"#utility.yul\":4834:4839   */\n      dup2\n        /* \"#utility.yul\":4816:4840   */\n      tag_150\n      jump\t// in\n    tag_218:\n        /* \"#utility.yul\":4811:4814   */\n      dup3\n        /* \"#utility.yul\":4804:4841   */\n      mstore\n        /* \"#utility.yul\":4729:4847   */\n      pop\n      pop\n      jump\t// out\n        /* \"#utility.yul\":4853:5075   */\n    tag_55:\n        /* \"#utility.yul\":4946:4950   */\n      0x00\n        /* \"#utility.yul\":4984:4986   */\n      0x20\n        /* \"#utility.yul\":4973:4982   */\n      dup3\n        /* \"#utility.yul\":4969:4987   */\n      add\n        /* \"#utility.yul\":4961:4987   */\n      swap1\n      pop\n        /* \"#utility.yul\":4997:5068   */\n      tag_220\n        /* \"#utility.yul\":5065:5066   */\n      0x00\n        /* \"#utility.yul\":5054:5063   */\n      dup4\n        /* \"#utility.yul\":5050:5067   */\n      add\n        /* \"#utility.yul\":5041:5047   */\n      dup5\n        /* \"#utility.yul\":4997:5068   */\n      tag_151\n      jump\t// in\n    tag_220:\n        /* \"#utility.yul\":4853:5075   */\n      swap3\n      swap2\n      pop\n      pop\n      jump\t// out\n        /* \"#utility.yul\":5081:5785   */\n    tag_70:\n        /* \"#utility.yul\":5308:5312   */\n      0x00\n        /* \"#utility.yul\":5346:5349   */\n      0x80\n        /* \"#utility.yul\":5335:5344   */\n      dup3\n        /* \"#utility.yul\":5331:5350   */\n      add\n        /* \"#utility.yul\":5323:5350   */\n      swap1\n      pop\n        /* \"#utility.yul\":5360:5431   */\n      tag_222\n        /* \"#utility.yul\":5428:5429   */\n      0x00\n        /* \"#utility.yul\":5417:5426   */\n      dup4\n        /* \"#utility.yul\":5413:5430   */\n      add\n        /* \"#utility.yul\":5404:5410   */\n      dup8\n        /* \"#utility.yul\":5360:5431   */\n      tag_148\n      jump\t// in\n    tag_222:\n        /* \"#utility.yul\":5441:5513   */\n      tag_223\n        /* \"#utility.yul\":5509:5511   */\n      0x20\n        /* \"#utility.yul\":5498:5507   */\n      dup4\n        /* \"#utility.yul\":5494:5512   */\n      add\n        /* \"#utility.yul\":5485:5491   */\n      dup7\n        /* \"#utility.yul\":5441:5513   */\n      tag_151\n      jump\t// in\n    tag_223:\n        /* \"#utility.yul\":5523:5595   */\n      tag_224\n        /* \"#utility.yul\":5591:5593   */\n      0x40\n        /* \"#utility.yul\":5580:5589   */\n      dup4\n        /* \"#utility.yul\":5576:5594   */\n      add\n        /* \"#utility.yul\":5567:5573   */\n      dup6\n        /* \"#utility.yul\":5523:5595   */\n      tag_148\n      jump\t// in\n    tag_224:\n        /* \"#utility.yul\":5642:5651   */\n      dup2\n        /* \"#utility.yul\":5636:5640   */\n      dup2\n        /* \"#utility.yul\":5632:5652   */\n      sub\n        /* \"#utility.yul\":5627:5629   */\n      0x60\n        /* \"#utility.yul\":5616:5625   */\n      dup4\n        /* \"#utility.yul\":5612:5630   */\n      add\n        /* \"#utility.yul\":5605:5653   */\n      mstore\n        /* \"#utility.yul\":5670:5778   */\n      tag_225\n        /* \"#utility.yul\":5773:5777   */\n      dup2\n        /* \"#utility.yul\":5764:5770   */\n      dup5\n        /* \"#utility.yul\":5670:5778   */\n      tag_147\n      jump\t// in\n    tag_225:\n        /* \"#utility.yul\":5662:5778   */\n      swap1\n      pop\n        /* \"#utility.yul\":5081:5785   */\n      swap6\n      swap5\n      pop\n      pop\n      pop\n      pop\n      pop\n      jump\t// out\n        /* \"#utility.yul\":5791:6233   */\n    tag_76:\n        /* \"#utility.yul\":5940:5944   */\n      0x00\n        /* \"#utility.yul\":5978:5980   */\n      0x60\n        /* \"#utility.yul\":5967:5976   */\n      dup3\n        /* \"#utility.yul\":5963:5981   */\n      add\n        /* \"#utility.yul\":5955:5981   */\n      swap1\n      pop\n        /* \"#utility.yul\":5991:6062   */\n      tag_227\n        /* \"#utility.yul\":6059:6060   */\n      0x00\n        /* \"#utility.yul\":6048:6057   */\n      dup4\n        /* \"#utility.yul\":6044:6061   */\n      add\n        /* \"#utility.yul\":6035:6041   */\n      dup7\n        /* \"#utility.yul\":5991:6062   */\n      tag_148\n      jump\t// in\n    tag_227:\n        /* \"#utility.yul\":6072:6144   */\n      tag_228\n        /* \"#utility.yul\":6140:6142   */\n      0x20\n        /* \"#utility.yul\":6129:6138   */\n      dup4\n        /* \"#utility.yul\":6125:6143   */\n      add\n        /* \"#utility.yul\":6116:6122   */\n      dup6\n        /* \"#utility.yul\":6072:6144   */\n      tag_151\n      jump\t// in\n    tag_228:\n        /* \"#utility.yul\":6154:6226   */\n      tag_229\n        /* \"#utility.yul\":6222:6224   */\n      0x40\n        /* \"#utility.yul\":6211:6220   */\n      dup4\n        /* \"#utility.yul\":6207:6225   */\n      add\n        /* \"#utility.yul\":6198:6204   */\n      dup5\n        /* \"#utility.yul\":6154:6226   */\n      tag_148\n      jump\t// in\n    tag_229:\n        /* \"#utility.yul\":5791:6233   */\n      swap5\n      swap4\n      pop\n      pop\n      pop\n      pop\n      jump\t// out\n        /* \"#utility.yul\":6239:6361   */\n    tag_152:\n        /* \"#utility.yul\":6312:6336   */\n      tag_231\n        /* \"#utility.yul\":6330:6335   */\n      dup2\n        /* \"#utility.yul\":6312:6336   */\n      tag_150\n      jump\t// in\n    tag_231:\n        /* \"#utility.yul\":6305:6310   */\n      dup2\n        /* \"#utility.yul\":6302:6337   */\n      eq\n        /* \"#utility.yul\":6292:6355   */\n      tag_232\n      jumpi\n        /* \"#utility.yul\":6351:6352   */\n      0x00\n        /* \"#utility.yul\":6348:6349   */\n      dup1\n        /* \"#utility.yul\":6341:6353   */\n      revert\n        /* \"#utility.yul\":6292:6355   */\n    tag_232:\n        /* \"#utility.yul\":6239:6361   */\n      pop\n      jump\t// out\n        /* \"#utility.yul\":6367:6506   */\n    tag_153:\n        /* \"#utility.yul\":6413:6418   */\n      0x00\n        /* \"#utility.yul\":6451:6457   */\n      dup2\n        /* \"#utility.yul\":6438:6458   */\n      calldataload\n        /* \"#utility.yul\":6429:6458   */\n      swap1\n      pop\n        /* \"#utility.yul\":6467:6500   */\n      tag_234\n        /* \"#utility.yul\":6494:6499   */\n      dup2\n        /* \"#utility.yul\":6467:6500   */\n      tag_152\n      jump\t// in\n    tag_234:\n        /* \"#utility.yul\":6367:6506   */\n      swap3\n      swap2\n      pop\n      pop\n      jump\t// out\n        /* \"#utility.yul\":6512:6841   */\n    tag_80:\n        /* \"#utility.yul\":6571:6577   */\n      0x00\n        /* \"#utility.yul\":6620:6622   */\n      0x20\n        /* \"#utility.yul\":6608:6617   */\n      dup3\n        /* \"#utility.yul\":6599:6606   */\n      dup5\n        /* \"#utility.yul\":6595:6618   */\n      sub\n        /* \"#utility.yul\":6591:6623   */\n      slt\n        /* \"#utility.yul\":6588:6707   */\n      iszero\n      tag_236\n      jumpi\n        /* \"#utility.yul\":6626:6705   */\n      tag_237\n      tag_136\n      jump\t// in\n    tag_237:\n        /* \"#utility.yul\":6588:6707   */\n    tag_236:\n        /* \"#utility.yul\":6746:6747   */\n      0x00\n        /* \"#utility.yul\":6771:6824   */\n      tag_238\n        /* \"#utility.yul\":6816:6823   */\n      dup5\n        /* \"#utility.yul\":6807:6813   */\n      dup3\n        /* \"#utility.yul\":6796:6805   */\n      dup6\n        /* \"#utility.yul\":6792:6814   */\n      add\n        /* \"#utility.yul\":6771:6824   */\n      tag_153\n      jump\t// in\n    tag_238:\n        /* \"#utility.yul\":6761:6824   */\n      swap2\n      pop\n        /* \"#utility.yul\":6717:6834   */\n      pop\n        /* \"#utility.yul\":6512:6841   */\n      swap3\n      swap2\n      pop\n      pop\n      jump\t// out\n        /* \"#utility.yul\":6847:7016   */\n    tag_154:\n        /* \"#utility.yul\":6931:6942   */\n      0x00\n        /* \"#utility.yul\":6965:6971   */\n      dup3\n        /* \"#utility.yul\":6960:6963   */\n      dup3\n        /* \"#utility.yul\":6953:6972   */\n      mstore\n        /* \"#utility.yul\":7005:7009   */\n      0x20\n        /* \"#utility.yul\":7000:7003   */\n      dup3\n        /* \"#utility.yul\":6996:7010   */\n      add\n        /* \"#utility.yul\":6981:7010   */\n      swap1\n      pop\n        /* \"#utility.yul\":6847:7016   */\n      swap3\n      swap2\n      pop\n      pop\n      jump\t// out\n        /* \"#utility.yul\":7022:7186   */\n    tag_155:\n        /* \"#utility.yul\":7162:7178   */\n      0x496e76616c6964206d6174726978000000000000000000000000000000000000\n        /* \"#utility.yul\":7158:7159   */\n      0x00\n        /* \"#utility.yul\":7150:7156   */\n      dup3\n        /* \"#utility.yul\":7146:7160   */\n      add\n        /* \"#utility.yul\":7139:7179   */\n      mstore\n        /* \"#utility.yul\":7022:7186   */\n      pop\n      jump\t// out\n        /* \"#utility.yul\":7192:7558   */\n    tag_156:\n        /* \"#utility.yul\":7334:7337   */\n      0x00\n        /* \"#utility.yul\":7355:7422   */\n      tag_242\n        /* \"#utility.yul\":7419:7421   */\n      0x0e\n        /* \"#utility.yul\":7414:7417   */\n      dup4\n        /* \"#utility.yul\":7355:7422   */\n      tag_154\n      jump\t// in\n    tag_242:\n        /* \"#utility.yul\":7348:7422   */\n      swap2\n      pop\n        /* \"#utility.yul\":7431:7524   */\n      tag_243\n        /* \"#utility.yul\":7520:7523   */\n      dup3\n        /* \"#utility.yul\":7431:7524   */\n      tag_155\n      jump\t// in\n    tag_243:\n        /* \"#utility.yul\":7549:7551   */\n      0x20\n        /* \"#utility.yul\":7544:7547   */\n      dup3\n        /* \"#utility.yul\":7540:7552   */\n      add\n        /* \"#utility.yul\":7533:7552   */\n      swap1\n      pop\n        /* \"#utility.yul\":7192:7558   */\n      swap2\n      swap1\n      pop\n      jump\t// out\n        /* \"#utility.yul\":7564:7983   */\n    tag_85:\n        /* \"#utility.yul\":7730:7734   */\n      0x00\n        /* \"#utility.yul\":7768:7770   */\n      0x20\n        /* \"#utility.yul\":7757:7766   */\n      dup3\n        /* \"#utility.yul\":7753:7771   */\n      add\n        /* \"#utility.yul\":7745:7771   */\n      swap1\n      pop\n        /* \"#utility.yul\":7817:7826   */\n      dup2\n        /* \"#utility.yul\":7811:7815   */\n      dup2\n        /* \"#utility.yul\":7807:7827   */\n      sub\n        /* \"#utility.yul\":7803:7804   */\n      0x00\n        /* \"#utility.yul\":7792:7801   */\n      dup4\n        /* \"#utility.yul\":7788:7805   */\n      add\n        /* \"#utility.yul\":7781:7828   */\n      mstore\n        /* \"#utility.yul\":7845:7976   */\n      tag_245\n        /* \"#utility.yul\":7971:7975   */\n      dup2\n        /* \"#utility.yul\":7845:7976   */\n      tag_156\n      jump\t// in\n    tag_245:\n        /* \"#utility.yul\":7837:7976   */\n      swap1\n      pop\n        /* \"#utility.yul\":7564:7983   */\n      swap2\n      swap1\n      pop\n      jump\t// out\n        /* \"#utility.yul\":7989:8169   */\n    tag_88:\n        /* \"#utility.yul\":8037:8114   */\n      0x4e487b7100000000000000000000000000000000000000000000000000000000\n        /* \"#utility.yul\":8034:8035   */\n      0x00\n        /* \"#utility.yul\":8027:8115   */\n      mstore\n        /* \"#utility.yul\":8134:8138   */\n      0x32\n        /* \"#utility.yul\":8131:8132   */\n      0x04\n        /* \"#utility.yul\":8124:8139   */\n      mstore\n        /* \"#utility.yul\":8158:8162   */\n      0x24\n        /* \"#utility.yul\":8155:8156   */\n      0x00\n        /* \"#utility.yul\":8148:8163   */\n      revert\n        /* \"#utility.yul\":8175:8339   */\n    tag_157:\n        /* \"#utility.yul\":8315:8331   */\n      0x496e76616c696420616d6f756e74000000000000000000000000000000000000\n        /* \"#utility.yul\":8311:8312   */\n      0x00\n        /* \"#utility.yul\":8303:8309   */\n      dup3\n        /* \"#utility.yul\":8299:8313   */\n      add\n        /* \"#utility.yul\":8292:8332   */\n      mstore\n        /* \"#utility.yul\":8175:8339   */\n      pop\n      jump\t// out\n        /* \"#utility.yul\":8345:8711   */\n    tag_158:\n        /* \"#utility.yul\":8487:8490   */\n      0x00\n        /* \"#utility.yul\":8508:8575   */\n      tag_249\n        /* \"#utility.yul\":8572:8574   */\n      0x0e\n        /* \"#utility.yul\":8567:8570   */\n      dup4\n        /* \"#utility.yul\":8508:8575   */\n      tag_154\n      jump\t// in\n    tag_249:\n        /* \"#utility.yul\":8501:8575   */\n      swap2\n      pop\n        /* \"#utility.yul\":8584:8677   */\n      tag_250\n        /* \"#utility.yul\":8673:8676   */\n      dup3\n        /* \"#utility.yul\":8584:8677   */\n      tag_157\n      jump\t// in\n    tag_250:\n        /* \"#utility.yul\":8702:8704   */\n      0x20\n        /* \"#utility.yul\":8697:8700   */\n      dup3\n        /* \"#utility.yul\":8693:8705   */\n      add\n        /* \"#utility.yul\":8686:8705   */\n      swap1\n      pop\n        /* \"#utility.yul\":8345:8711   */\n      swap2\n      swap1\n      pop\n      jump\t// out\n        /* \"#utility.yul\":8717:9136   */\n    tag_92:\n        /* \"#utility.yul\":8883:8887   */\n      0x00\n        /* \"#utility.yul\":8921:8923   */\n      0x20\n        /* \"#utility.yul\":8910:8919   */\n      dup3\n        /* \"#utility.yul\":8906:8924   */\n      add\n        /* \"#utility.yul\":8898:8924   */\n      swap1\n      pop\n        /* \"#utility.yul\":8970:8979   */\n      dup2\n        /* \"#utility.yul\":8964:8968   */\n      dup2\n        /* \"#utility.yul\":8960:8980   */\n      sub\n        /* \"#utility.yul\":8956:8957   */\n      0x00\n        /* \"#utility.yul\":8945:8954   */\n      dup4\n        /* \"#utility.yul\":8941:8958   */\n      add\n        /* \"#utility.yul\":8934:8981   */\n      mstore\n        /* \"#utility.yul\":8998:9129   */\n      tag_252\n        /* \"#utility.yul\":9124:9128   */\n      dup2\n        /* \"#utility.yul\":8998:9129   */\n      tag_158\n      jump\t// in\n    tag_252:\n        /* \"#utility.yul\":8990:9129   */\n      swap1\n      pop\n        /* \"#utility.yul\":8717:9136   */\n      swap2\n      swap1\n      pop\n      jump\t// out\n        /* \"#utility.yul\":9142:9322   */\n    tag_159:\n        /* \"#utility.yul\":9190:9267   */\n      0x4e487b7100000000000000000000000000000000000000000000000000000000\n        /* \"#utility.yul\":9187:9188   */\n      0x00\n        /* \"#utility.yul\":9180:9268   */\n      mstore\n        /* \"#utility.yul\":9287:9291   */\n      0x11\n        /* \"#utility.yul\":9284:9285   */\n      0x04\n        /* \"#utility.yul\":9277:9292   */\n      mstore\n        /* \"#utility.yul\":9311:9315   */\n      0x24\n        /* \"#utility.yul\":9308:9309   */\n      0x00\n        /* \"#utility.yul\":9301:9316   */\n      revert\n        /* \"#utility.yul\":9328:9561   */\n    tag_94:\n        /* \"#utility.yul\":9367:9370   */\n      0x00\n        /* \"#utility.yul\":9390:9414   */\n      tag_255\n        /* \"#utility.yul\":9408:9413   */\n      dup3\n        /* \"#utility.yul\":9390:9414   */\n      tag_138\n      jump\t// in\n    tag_255:\n        /* \"#utility.yul\":9381:9414   */\n      swap2\n      pop\n        /* \"#utility.yul\":9436:9502   */\n      0xffffffffffffffffffffffffffffffffffffffffffffffffffffffffffffffff\n        /* \"#utility.yul\":9429:9434   */\n      dup3\n        /* \"#utility.yul\":9426:9503   */\n      sub\n        /* \"#utility.yul\":9423:9526   */\n      tag_256\n      jumpi\n        /* \"#utility.yul\":9506:9524   */\n      tag_257\n      tag_159\n      jump\t// in\n    tag_257:\n        /* \"#utility.yul\":9423:9526   */\n    tag_256:\n        /* \"#utility.yul\":9553:9554   */\n      0x01\n        /* \"#utility.yul\":9546:9551   */\n      dup3\n        /* \"#utility.yul\":9542:9555   */\n      add\n        /* \"#utility.yul\":9535:9555   */\n      swap1\n      pop\n        /* \"#utility.yul\":9328:9561   */\n      swap2\n      swap1\n      pop\n      jump\t// out\n        /* \"#utility.yul\":9567:10009   */\n    tag_99:\n        /* \"#utility.yul\":9716:9720   */\n      0x00\n        /* \"#utility.yul\":9754:9756   */\n      0x60\n        /* \"#utility.yul\":9743:9752   */\n      dup3\n        /* \"#utility.yul\":9739:9757   */\n      add\n        /* \"#utility.yul\":9731:9757   */\n      swap1\n      pop\n        /* \"#utility.yul\":9767:9838   */\n      tag_259\n        /* \"#utility.yul\":9835:9836   */\n      0x00\n        /* \"#utility.yul\":9824:9833   */\n      dup4\n        /* \"#utility.yul\":9820:9837   */\n      add\n        /* \"#utility.yul\":9811:9817   */\n      dup7\n        /* \"#utility.yul\":9767:9838   */\n      tag_148\n      jump\t// in\n    tag_259:\n        /* \"#utility.yul\":9848:9920   */\n      tag_260\n        /* \"#utility.yul\":9916:9918   */\n      0x20\n        /* \"#utility.yul\":9905:9914   */\n      dup4\n        /* \"#utility.yul\":9901:9919   */\n      add\n        /* \"#utility.yul\":9892:9898   */\n      dup6\n        /* \"#utility.yul\":9848:9920   */\n      tag_148\n      jump\t// in\n    tag_260:\n        /* \"#utility.yul\":9930:10002   */\n      tag_261\n        /* \"#utility.yul\":9998:10000   */\n      0x40\n        /* \"#utility.yul\":9987:9996   */\n      dup4\n        /* \"#utility.yul\":9983:10001   */\n      add\n        /* \"#utility.yul\":9974:9980   */\n      dup5\n        /* \"#utility.yul\":9930:10002   */\n      tag_148\n      jump\t// in\n    tag_261:\n        /* \"#utility.yul\":9567:10009   */\n      swap5\n      swap4\n      pop\n      pop\n      pop\n      pop\n      jump\t// out\n        /* \"#utility.yul\":10015:10197   */\n    tag_160:\n        /* \"#utility.yul\":10155:10189   */\n      0x4f776e61626c653a2063616c6c6572206973206e6f7420746865206f776e6572\n        /* \"#utility.yul\":10151:10152   */\n      0x00\n        /* \"#utility.yul\":10143:10149   */\n      dup3\n        /* \"#utility.yul\":10139:10153   */\n      add\n        /* \"#utility.yul\":10132:10190   */\n      mstore\n        /* \"#utility.yul\":10015:10197   */\n      pop\n      jump\t// out\n        /* \"#utility.yul\":10203:10569   */\n    tag_161:\n        /* \"#utility.yul\":10345:10348   */\n      0x00\n        /* \"#utility.yul\":10366:10433   */\n      tag_264\n        /* \"#utility.yul\":10430:10432   */\n      0x20\n        /* \"#utility.yul\":10425:10428   */\n      dup4\n        /* \"#utility.yul\":10366:10433   */\n      tag_154\n      jump\t// in\n    tag_264:\n        /* \"#utility.yul\":10359:10433   */\n      swap2\n      pop\n        /* \"#utility.yul\":10442:10535   */\n      tag_265\n        /* \"#utility.yul\":10531:10534   */\n      dup3\n        /* \"#utility.yul\":10442:10535   */\n      tag_160\n      jump\t// in\n    tag_265:\n        /* \"#utility.yul\":10560:10562   */\n      0x20\n        /* \"#utility.yul\":10555:10558   */\n      dup3\n        /* \"#utility.yul\":10551:10563   */\n      add\n        /* \"#utility.yul\":10544:10563   */\n      swap1\n      pop\n        /* \"#utility.yul\":10203:10569   */\n      swap2\n      swap1\n      pop\n      jump\t// out\n        /* \"#utility.yul\":10575:10994   */\n    tag_119:\n        /* \"#utility.yul\":10741:10745   */\n      0x00\n        /* \"#utility.yul\":10779:10781   */\n      0x20\n        /* \"#utility.yul\":10768:10777   */\n      dup3\n        /* \"#utility.yul\":10764:10782   */\n      add\n        /* \"#utility.yul\":10756:10782   */\n      swap1\n      pop\n        /* \"#utility.yul\":10828:10837   */\n      dup2\n        /* \"#utility.yul\":10822:10826   */\n      dup2\n        /* \"#utility.yul\":10818:10838   */\n      sub\n        /* \"#utility.yul\":10814:10815   */\n      0x00\n        /* \"#utility.yul\":10803:10812   */\n      dup4\n        /* \"#utility.yul\":10799:10816   */\n      add\n        /* \"#utility.yul\":10792:10839   */\n      mstore\n        /* \"#utility.yul\":10856:10987   */\n      tag_267\n        /* \"#utility.yul\":10982:10986   */\n      dup2\n        /* \"#utility.yul\":10856:10987   */\n      tag_161\n      jump\t// in\n    tag_267:\n        /* \"#utility.yul\":10848:10987   */\n      swap1\n      pop\n        /* \"#utility.yul\":10575:10994   */\n      swap2\n      swap1\n      pop\n      jump\t// out\n        /* \"#utility.yul\":11000:11174   */\n    tag_162:\n        /* \"#utility.yul\":11140:11166   */\n      0x4e6577206f776e65722063616e6e6f74206265207a65726f0000000000000000\n        /* \"#utility.yul\":11136:11137   */\n      0x00\n        /* \"#utility.yul\":11128:11134   */\n      dup3\n        /* \"#utility.yul\":11124:11138   */\n      add\n        /* \"#utility.yul\":11117:11167   */\n      mstore\n        /* \"#utility.yul\":11000:11174   */\n      pop\n      jump\t// out\n        /* \"#utility.yul\":11180:11546   */\n    tag_163:\n        /* \"#utility.yul\":11322:11325   */\n      0x00\n        /* \"#utility.yul\":11343:11410   */\n      tag_270\n        /* \"#utility.yul\":11407:11409   */\n      0x18\n        /* \"#utility.yul\":11402:11405   */\n      dup4\n        /* \"#utility.yul\":11343:11410   */\n      tag_154\n      jump\t// in\n    tag_270:\n        /* \"#utility.yul\":11336:11410   */\n      swap2\n      pop\n        /* \"#utility.yul\":11419:11512   */\n      tag_271\n        /* \"#utility.yul\":11508:11511   */\n      dup3\n        /* \"#utility.yul\":11419:11512   */\n      tag_162\n      jump\t// in\n    tag_271:\n        /* \"#utility.yul\":11537:11539   */\n      0x20\n        /* \"#utility.yul\":11532:11535   */\n      dup3\n        /* \"#utility.yul\":11528:11540   */\n      add\n        /* \"#utility.yul\":11521:11540   */\n      swap1\n      pop\n        /* \"#utility.yul\":11180:11546   */\n      swap2\n      swap1\n      pop\n      jump\t// out\n        /* \"#utility.yul\":11552:11971   */\n    tag_123:\n        /* \"#utility.yul\":11718:11722   */\n      0x00\n        /* \"#utility.yul\":11756:11758   */\n      0x20\n        /* \"#utility.yul\":11745:11754   */\n      dup3\n        /* \"#utility.yul\":11741:11759   */\n      add\n        /* \"#utility.yul\":11733:11759   */\n      swap1\n      pop\n        /* \"#utility.yul\":11805:11814   */\n      dup2\n        /* \"#utility.yul\":11799:11803   */\n      dup2\n        /* \"#utility.yul\":11795:11815   */\n      sub\n        /* \"#utility.yul\":11791:11792   */\n      0x00\n        /* \"#utility.yul\":11780:11789   */\n      dup4\n        /* \"#utility.yul\":11776:11793   */\n      add\n        /* \"#utility.yul\":11769:11816   */\n      mstore\n        /* \"#utility.yul\":11833:11964   */\n      tag_273\n        /* \"#utility.yul\":11959:11963   */\n      dup2\n        /* \"#utility.yul\":11833:11964   */\n      tag_163\n      jump\t// in\n    tag_273:\n        /* \"#utility.yul\":11825:11964   */\n      swap1\n      pop\n        /* \"#utility.yul\":11552:11971   */\n      swap2\n      swap1\n      pop\n      jump\t// out\n        /* \"#utility.yul\":11977:12152   */\n    tag_164:\n        /* \"#utility.yul\":12117:12144   */\n      0x4e6f20617661696c61626c6520706172656e7420666f756e6400000000000000\n        /* \"#utility.yul\":12113:12114   */\n      0x00\n        /* \"#utility.yul\":12105:12111   */\n      dup3\n        /* \"#utility.yul\":12101:12115   */\n      add\n        /* \"#utility.yul\":12094:12145   */\n      mstore\n        /* \"#utility.yul\":11977:12152   */\n      pop\n      jump\t// out\n        /* \"#utility.yul\":12158:12524   */\n    tag_165:\n        /* \"#utility.yul\":12300:12303   */\n      0x00\n        /* \"#utility.yul\":12321:12388   */\n      tag_276\n        /* \"#utility.yul\":12385:12387   */\n      0x19\n        /* \"#utility.yul\":12380:12383   */\n      dup4\n        /* \"#utility.yul\":12321:12388   */\n      tag_154\n      jump\t// in\n    tag_276:\n        /* \"#utility.yul\":12314:12388   */\n      swap2\n      pop\n        /* \"#utility.yul\":12397:12490   */\n      tag_277\n        /* \"#utility.yul\":12486:12489   */\n      dup3\n        /* \"#utility.yul\":12397:12490   */\n      tag_164\n      jump\t// in\n    tag_277:\n        /* \"#utility.yul\":12515:12517   */\n      0x20\n        /* \"#utility.yul\":12510:12513   */\n      dup3\n        /* \"#utility.yul\":12506:12518   */\n      add\n        /* \"#utility.yul\":12499:12518   */\n      swap1\n      pop\n        /* \"#utility.yul\":12158:12524   */\n      swap2\n      swap1\n      pop\n      jump\t// out\n        /* \"#utility.yul\":12530:12949   */\n    tag_134:\n        /* \"#utility.yul\":12696:12700   */\n      0x00\n        /* \"#utility.yul\":12734:12736   */\n      0x20\n        /* \"#utility.yul\":12723:12732   */\n      dup3\n        /* \"#utility.yul\":12719:12737   */\n      add\n        /* \"#utility.yul\":12711:12737   */\n      swap1\n      pop\n        /* \"#utility.yul\":12783:12792   */\n      dup2\n        /* \"#utility.yul\":12777:12781   */\n      dup2\n        /* \"#utility.yul\":12773:12793   */\n      sub\n        /* \"#utility.yul\":12769:12770   */\n      0x00\n        /* \"#utility.yul\":12758:12767   */\n      dup4\n        /* \"#utility.yul\":12754:12771   */\n      add\n        /* \"#utility.yul\":12747:12794   */\n      mstore\n        /* \"#utility.yul\":12811:12942   */\n      tag_279\n        /* \"#utility.yul\":12937:12941   */\n      dup2\n        /* \"#utility.yul\":12811:12942   */\n      tag_165\n      jump\t// in\n    tag_279:\n        /* \"#utility.yul\":12803:12942   */\n      swap1\n      pop\n        /* \"#utility.yul\":12530:12949   */\n      swap2\n      swap1\n      pop\n      jump\t// out\n\n    auxdata: 0xa26469706673582212200e84f4fbec1f10996155646d10cf384e056d9e952103f6e93acb35309c73496d64736f6c63430008140033\n}\n",
				"bytecode": {
					"linkReferences": {},
					"object": "60806040526040518060e00160405280680410d586a20a4c000069ffffffffffffffffffff168152602001681043561a882930000069ffffffffffffffffffff16815260200168410d586a20a4c0000069ffffffffffffffffffff1681526020016901043561a8829300000069ffffffffffffffffffff168152602001690410d586a20a4c00000069ffffffffffffffffffff168152602001691043561a88293000000069ffffffffffffffffffff16815260200169410d586a20a4c000000069ffffffffffffffffffff168152506005906007620000e092919062000299565b50348015620000ed575f80fd5b50335f806101000a81548173ffffffffffffffffffffffffffffffffffffffff021916908373ffffffffffffffffffffffffffffffffffffffff1602179055505f8054906101000a900473ffffffffffffffffffffffffffffffffffffffff1673ffffffffffffffffffffffffffffffffffffffff165f73ffffffffffffffffffffffffffffffffffffffff167f8be0079c531659141344cd1fd0a4f28419497f9722a3daafe3b4186f6b6457e060405160405180910390a35f5b6005805490508110156200029257600160025f8381526020019081526020015f20819055505f60015f8381526020019081526020015f205f600181526020019081526020015f2090506001815f018190555033816001015f6101000a81548173ffffffffffffffffffffffffffffffffffffffff021916908373ffffffffffffffffffffffffffffffffffffffff1602179055505f816002018190555060035f8381526020019081526020015f206001908060018154018082558091505060019003905f5260205f20015f909190919091505550808062000289906200034a565b915050620001a8565b5062000396565b828054828255905f5260205f20908101928215620002e4579160200282015b82811115620002e3578251829069ffffffffffffffffffff16905591602001919060010190620002b8565b5b509050620002f39190620002f7565b5090565b5b8082111562000310575f815f905550600101620002f8565b5090565b7f4e487b71000000000000000000000000000000000000000000000000000000005f52601160045260245ffd5b5f819050919050565b5f620003568262000341565b91507fffffffffffffffffffffffffffffffffffffffffffffffffffffffffffffffff82036200038b576200038a62000314565b5b600182019050919050565b6110ff80620003a45f395ff3fe6080604052600436106100aa575f3560e01c80638da5cb5b116100635780638da5cb5b146101fd578063b5c9ffbc14610227578063c222ff4914610263578063c75cd70a1461028d578063dfb9c8d0146102cc578063f2fde38b1461030a576100b1565b806302952528146100b55780630be8fffc146100d1578063169399a91461010d578063305e60f8146101495780633ad27afe1461018557806363c09887146101c1576100b1565b366100b157005b5f80fd5b6100cf60048036038101906100ca9190610af7565b610332565b005b3480156100dc575f80fd5b506100f760048036038101906100f29190610af7565b61058f565b6040516101049190610bd9565b60405180910390f35b348015610118575f80fd5b50610133600480360381019061012e9190610af7565b6105f6565b6040516101409190610c08565b60405180910390f35b348015610154575f80fd5b5061016f600480360381019061016a9190610c21565b61060b565b60405161017c9190610c08565b60405180910390f35b348015610190575f80fd5b506101ab60048036038101906101a69190610c21565b610636565b6040516101b89190610bd9565b60405180910390f35b3480156101cc575f80fd5b506101e760048036038101906101e29190610c5f565b6106b0565b6040516101f49190610c08565b60405180910390f35b348015610208575f80fd5b506102116106e6565b60405161021e9190610cee565b60405180910390f35b348015610232575f80fd5b5061024d60048036038101906102489190610af7565b610709565b60405161025a9190610c08565b60405180910390f35b34801561026e575f80fd5b50610277610729565b6040516102849190610c08565b60405180910390f35b348015610298575f80fd5b506102b360048036038101906102ae9190610c21565b61072e565b6040516102c39493929190610d07565b60405180910390f35b3480156102d7575f80fd5b506102f260048036038101906102ed9190610c21565b6107e9565b60405161030193929190610d51565b60405180910390f35b348015610315575f80fd5b50610330600480360381019061032b9190610db0565b610839565b005b6005805490508110610379576040517f08c379a000000000000000000000000000000000000000000000000000000000815260040161037090610e35565b60405180910390fd5b6005818154811061038d5761038c610e53565b5b905f5260205f20015434146103d7576040517f08c379a00000000000000000000000000000000000000000000000000000000081526004016103ce90610eca565b60405180910390fd5b60025f8281526020019081526020015f205f8154809291906103f890610f15565b91905055505f60025f8381526020019081526020015f205490505f61041c836109ef565b90505f60015f8581526020019081526020015f205f8481526020019081526020015f20905082815f018190555033816001015f6101000a81548173ffffffffffffffffffffffffffffffffffffffff021916908373ffffffffffffffffffffffffffffffffffffffff16021790555081816002018190555060015f8581526020019081526020015f205f8381526020019081526020015f2060030183908060018154018082558091505060019003905f5260205f20015f9091909190915055833373ffffffffffffffffffffffffffffffffffffffff167f4544854342bf99dbb4490912e9bbd2d4849d7917dd4c7e36232f26cfad1ba24c858560015f8a81526020019081526020015f205f8881526020019081526020015f206003018054905060405161054c93929190610f5c565b60405180910390a360035f8581526020019081526020015f2083908060018154018082558091505060019003905f5260205f20015f909190919091505550505050565b606060035f8381526020019081526020015f208054806020026020016040519081016040528092919081815260200182805480156105ea57602002820191905f5260205f20905b8154815260200190600101908083116105d6575b50505050509050919050565b6002602052805f5260405f205f915090505481565b6003602052815f5260405f208181548110610624575f80fd5b905f5260205f20015f91509150505481565b606060015f8481526020019081526020015f205f8381526020019081526020015f206003018054806020026020016040519081016040528092919081815260200182805480156106a357602002820191905f5260205f20905b81548152602001906001019080831161068f575b5050505050905092915050565b6004602052825f5260405f20602052815f5260405f2081815481106106d3575f80fd5b905f5260205f20015f9250925050505481565b5f8054906101000a900473ffffffffffffffffffffffffffffffffffffffff1681565b60058181548110610718575f80fd5b905f5260205f20015f915090505481565b600381565b5f805f60605f60015f8881526020019081526020015f205f8781526020019081526020015f209050805f0154816001015f9054906101000a900473ffffffffffffffffffffffffffffffffffffffff16826002015483600301808054806020026020016040519081016040528092919081815260200182805480156107d057602002820191905f5260205f20905b8154815260200190600101908083116107bc575b5050505050905094509450945094505092959194509250565b6001602052815f5260405f20602052805f5260405f205f9150915050805f015490806001015f9054906101000a900473ffffffffffffffffffffffffffffffffffffffff16908060020154905083565b5f8054906101000a900473ffffffffffffffffffffffffffffffffffffffff1673ffffffffffffffffffffffffffffffffffffffff163373ffffffffffffffffffffffffffffffffffffffff16146108c6576040517f08c379a00000000000000000000000000000000000000000000000000000000081526004016108bd90610fdb565b60405180910390fd5b5f73ffffffffffffffffffffffffffffffffffffffff168173ffffffffffffffffffffffffffffffffffffffff1603610934576040517f08c379a000000000000000000000000000000000000000000000000000000000815260040161092b90611043565b60405180910390fd5b8073ffffffffffffffffffffffffffffffffffffffff165f8054906101000a900473ffffffffffffffffffffffffffffffffffffffff1673ffffffffffffffffffffffffffffffffffffffff167f8be0079c531659141344cd1fd0a4f28419497f9722a3daafe3b4186f6b6457e060405160405180910390a3805f806101000a81548173ffffffffffffffffffffffffffffffffffffffff021916908373ffffffffffffffffffffffffffffffffffffffff16021790555050565b5f8060035f8481526020019081526020015f2090505f5b8180549050811015610a7f575f828281548110610a2657610a25610e53565b5b905f5260205f2001549050600360015f8781526020019081526020015f205f8381526020019081526020015f20600301805490501015610a6b57809350505050610abb565b508080610a7790610f15565b915050610a06565b506040517f08c379a0000000000000000000000000000000000000000000000000000000008152600401610ab2906110ab565b60405180910390fd5b919050565b5f80fd5b5f819050919050565b610ad681610ac4565b8114610ae0575f80fd5b50565b5f81359050610af181610acd565b92915050565b5f60208284031215610b0c57610b0b610ac0565b5b5f610b1984828501610ae3565b91505092915050565b5f81519050919050565b5f82825260208201905092915050565b5f819050602082019050919050565b610b5481610ac4565b82525050565b5f610b658383610b4b565b60208301905092915050565b5f602082019050919050565b5f610b8782610b22565b610b918185610b2c565b9350610b9c83610b3c565b805f5b83811015610bcc578151610bb38882610b5a565b9750610bbe83610b71565b925050600181019050610b9f565b5085935050505092915050565b5f6020820190508181035f830152610bf18184610b7d565b905092915050565b610c0281610ac4565b82525050565b5f602082019050610c1b5f830184610bf9565b92915050565b5f8060408385031215610c3757610c36610ac0565b5b5f610c4485828601610ae3565b9250506020610c5585828601610ae3565b9150509250929050565b5f805f60608486031215610c7657610c75610ac0565b5b5f610c8386828701610ae3565b9350506020610c9486828701610ae3565b9250506040610ca586828701610ae3565b9150509250925092565b5f73ffffffffffffffffffffffffffffffffffffffff82169050919050565b5f610cd882610caf565b9050919050565b610ce881610cce565b82525050565b5f602082019050610d015f830184610cdf565b92915050565b5f608082019050610d1a5f830187610bf9565b610d276020830186610cdf565b610d346040830185610bf9565b8181036060830152610d468184610b7d565b905095945050505050565b5f606082019050610d645f830186610bf9565b610d716020830185610cdf565b610d7e6040830184610bf9565b949350505050565b610d8f81610cce565b8114610d99575f80fd5b50565b5f81359050610daa81610d86565b92915050565b5f60208284031215610dc557610dc4610ac0565b5b5f610dd284828501610d9c565b91505092915050565b5f82825260208201905092915050565b7f496e76616c6964206d61747269780000000000000000000000000000000000005f82015250565b5f610e1f600e83610ddb565b9150610e2a82610deb565b602082019050919050565b5f6020820190508181035f830152610e4c81610e13565b9050919050565b7f4e487b71000000000000000000000000000000000000000000000000000000005f52603260045260245ffd5b7f496e76616c696420616d6f756e740000000000000000000000000000000000005f82015250565b5f610eb4600e83610ddb565b9150610ebf82610e80565b602082019050919050565b5f6020820190508181035f830152610ee181610ea8565b9050919050565b7f4e487b71000000000000000000000000000000000000000000000000000000005f52601160045260245ffd5b5f610f1f82610ac4565b91507fffffffffffffffffffffffffffffffffffffffffffffffffffffffffffffffff8203610f5157610f50610ee8565b5b600182019050919050565b5f606082019050610f6f5f830186610bf9565b610f7c6020830185610bf9565b610f896040830184610bf9565b949350505050565b7f4f776e61626c653a2063616c6c6572206973206e6f7420746865206f776e65725f82015250565b5f610fc5602083610ddb565b9150610fd082610f91565b602082019050919050565b5f6020820190508181035f830152610ff281610fb9565b9050919050565b7f4e6577206f776e65722063616e6e6f74206265207a65726f00000000000000005f82015250565b5f61102d601883610ddb565b915061103882610ff9565b602082019050919050565b5f6020820190508181035f83015261105a81611021565b9050919050565b7f4e6f20617661696c61626c6520706172656e7420666f756e64000000000000005f82015250565b5f611095601983610ddb565b91506110a082611061565b602082019050919050565b5f6020820190508181035f8301526110c281611089565b905091905056fea26469706673582212200e84f4fbec1f10996155646d10cf384e056d9e952103f6e93acb35309c73496d64736f6c63430008140033",
					"opcodes": "PUSH1 0x80 PUSH1 0x40 MSTORE PUSH1 0x40 MLOAD DUP1 PUSH1 0xE0 ADD PUSH1 0x40 MSTORE DUP1 PUSH9 0x410D586A20A4C0000 PUSH10 0xFFFFFFFFFFFFFFFFFFFF AND DUP2 MSTORE PUSH1 0x20 ADD PUSH9 0x1043561A8829300000 PUSH10 0xFFFFFFFFFFFFFFFFFFFF AND DUP2 MSTORE PUSH1 0x20 ADD PUSH9 0x410D586A20A4C00000 PUSH10 0xFFFFFFFFFFFFFFFFFFFF AND DUP2 MSTORE PUSH1 0x20 ADD PUSH10 0x1043561A88293000000 PUSH10 0xFFFFFFFFFFFFFFFFFFFF AND DUP2 MSTORE PUSH1 0x20 ADD PUSH10 0x410D586A20A4C000000 PUSH10 0xFFFFFFFFFFFFFFFFFFFF AND DUP2 MSTORE PUSH1 0x20 ADD PUSH10 0x1043561A882930000000 PUSH10 0xFFFFFFFFFFFFFFFFFFFF AND DUP2 MSTORE PUSH1 0x20 ADD PUSH10 0x410D586A20A4C0000000 PUSH10 0xFFFFFFFFFFFFFFFFFFFF AND DUP2 MSTORE POP PUSH1 0x5 SWAP1 PUSH1 0x7 PUSH3 0xE0 SWAP3 SWAP2 SWAP1 PUSH3 0x299 JUMP JUMPDEST POP CALLVALUE DUP1 ISZERO PUSH3 0xED JUMPI PUSH0 DUP1 REVERT JUMPDEST POP CALLER PUSH0 DUP1 PUSH2 0x100 EXP DUP2 SLOAD DUP2 PUSH20 0xFFFFFFFFFFFFFFFFFFFFFFFFFFFFFFFFFFFFFFFF MUL NOT AND SWAP1 DUP4 PUSH20 0xFFFFFFFFFFFFFFFFFFFFFFFFFFFFFFFFFFFFFFFF AND MUL OR SWAP1 SSTORE POP PUSH0 DUP1 SLOAD SWAP1 PUSH2 0x100 EXP SWAP1 DIV PUSH20 0xFFFFFFFFFFFFFFFFFFFFFFFFFFFFFFFFFFFFFFFF AND PUSH20 0xFFFFFFFFFFFFFFFFFFFFFFFFFFFFFFFFFFFFFFFF AND PUSH0 PUSH20 0xFFFFFFFFFFFFFFFFFFFFFFFFFFFFFFFFFFFFFFFF AND PUSH32 0x8BE0079C531659141344CD1FD0A4F28419497F9722A3DAAFE3B4186F6B6457E0 PUSH1 0x40 MLOAD PUSH1 0x40 MLOAD DUP1 SWAP2 SUB SWAP1 LOG3 PUSH0 JUMPDEST PUSH1 0x5 DUP1 SLOAD SWAP1 POP DUP2 LT ISZERO PUSH3 0x292 JUMPI PUSH1 0x1 PUSH1 0x2 PUSH0 DUP4 DUP2 MSTORE PUSH1 0x20 ADD SWAP1 DUP2 MSTORE PUSH1 0x20 ADD PUSH0 KECCAK256 DUP2 SWAP1 SSTORE POP PUSH0 PUSH1 0x1 PUSH0 DUP4 DUP2 MSTORE PUSH1 0x20 ADD SWAP1 DUP2 MSTORE PUSH1 0x20 ADD PUSH0 KECCAK256 PUSH0 PUSH1 0x1 DUP2 MSTORE PUSH1 0x20 ADD SWAP1 DUP2 MSTORE PUSH1 0x20 ADD PUSH0 KECCAK256 SWAP1 POP PUSH1 0x1 DUP2 PUSH0 ADD DUP2 SWAP1 SSTORE POP CALLER DUP2 PUSH1 0x1 ADD PUSH0 PUSH2 0x100 EXP DUP2 SLOAD DUP2 PUSH20 0xFFFFFFFFFFFFFFFFFFFFFFFFFFFFFFFFFFFFFFFF MUL NOT AND SWAP1 DUP4 PUSH20 0xFFFFFFFFFFFFFFFFFFFFFFFFFFFFFFFFFFFFFFFF AND MUL OR SWAP1 SSTORE POP PUSH0 DUP2 PUSH1 0x2 ADD DUP2 SWAP1 SSTORE POP PUSH1 0x3 PUSH0 DUP4 DUP2 MSTORE PUSH1 0x20 ADD SWAP1 DUP2 MSTORE PUSH1 0x20 ADD PUSH0 KECCAK256 PUSH1 0x1 SWAP1 DUP1 PUSH1 0x1 DUP2 SLOAD ADD DUP1 DUP3 SSTORE DUP1 SWAP2 POP POP PUSH1 0x1 SWAP1 SUB SWAP1 PUSH0 MSTORE PUSH1 0x20 PUSH0 KECCAK256 ADD PUSH0 SWAP1 SWAP2 SWAP1 SWAP2 SWAP1 SWAP2 POP SSTORE POP DUP1 DUP1 PUSH3 0x289 SWAP1 PUSH3 0x34A JUMP JUMPDEST SWAP2 POP POP PUSH3 0x1A8 JUMP JUMPDEST POP PUSH3 0x396 JUMP JUMPDEST DUP3 DUP1 SLOAD DUP3 DUP3 SSTORE SWAP1 PUSH0 MSTORE PUSH1 0x20 PUSH0 KECCAK256 SWAP1 DUP2 ADD SWAP3 DUP3 ISZERO PUSH3 0x2E4 JUMPI SWAP2 PUSH1 0x20 MUL DUP3 ADD JUMPDEST DUP3 DUP2 GT ISZERO PUSH3 0x2E3 JUMPI DUP3 MLOAD DUP3 SWAP1 PUSH10 0xFFFFFFFFFFFFFFFFFFFF AND SWAP1 SSTORE SWAP2 PUSH1 0x20 ADD SWAP2 SWAP1 PUSH1 0x1 ADD SWAP1 PUSH3 0x2B8 JUMP JUMPDEST JUMPDEST POP SWAP1 POP PUSH3 0x2F3 SWAP2 SWAP1 PUSH3 0x2F7 JUMP JUMPDEST POP SWAP1 JUMP JUMPDEST JUMPDEST DUP1 DUP3 GT ISZERO PUSH3 0x310 JUMPI PUSH0 DUP2 PUSH0 SWAP1 SSTORE POP PUSH1 0x1 ADD PUSH3 0x2F8 JUMP JUMPDEST POP SWAP1 JUMP JUMPDEST PUSH32 0x4E487B7100000000000000000000000000000000000000000000000000000000 PUSH0 MSTORE PUSH1 0x11 PUSH1 0x4 MSTORE PUSH1 0x24 PUSH0 REVERT JUMPDEST PUSH0 DUP2 SWAP1 POP SWAP2 SWAP1 POP JUMP JUMPDEST PUSH0 PUSH3 0x356 DUP3 PUSH3 0x341 JUMP JUMPDEST SWAP2 POP PUSH32 0xFFFFFFFFFFFFFFFFFFFFFFFFFFFFFFFFFFFFFFFFFFFFFFFFFFFFFFFFFFFFFFFF DUP3 SUB PUSH3 0x38B JUMPI PUSH3 0x38A PUSH3 0x314 JUMP JUMPDEST JUMPDEST PUSH1 0x1 DUP3 ADD SWAP1 POP SWAP2 SWAP1 POP JUMP JUMPDEST PUSH2 0x10FF DUP1 PUSH3 0x3A4 PUSH0 CODECOPY PUSH0 RETURN INVALID PUSH1 0x80 PUSH1 0x40 MSTORE PUSH1 0x4 CALLDATASIZE LT PUSH2 0xAA JUMPI PUSH0 CALLDATALOAD PUSH1 0xE0 SHR DUP1 PUSH4 0x8DA5CB5B GT PUSH2 0x63 JUMPI DUP1 PUSH4 0x8DA5CB5B EQ PUSH2 0x1FD JUMPI DUP1 PUSH4 0xB5C9FFBC EQ PUSH2 0x227 JUMPI DUP1 PUSH4 0xC222FF49 EQ PUSH2 0x263 JUMPI DUP1 PUSH4 0xC75CD70A EQ PUSH2 0x28D JUMPI DUP1 PUSH4 0xDFB9C8D0 EQ PUSH2 0x2CC JUMPI DUP1 PUSH4 0xF2FDE38B EQ PUSH2 0x30A JUMPI PUSH2 0xB1 JUMP JUMPDEST DUP1 PUSH4 0x2952528 EQ PUSH2 0xB5 JUMPI DUP1 PUSH4 0xBE8FFFC EQ PUSH2 0xD1 JUMPI DUP1 PUSH4 0x169399A9 EQ PUSH2 0x10D JUMPI DUP1 PUSH4 0x305E60F8 EQ PUSH2 0x149 JUMPI DUP1 PUSH4 0x3AD27AFE EQ PUSH2 0x185 JUMPI DUP1 PUSH4 0x63C09887 EQ PUSH2 0x1C1 JUMPI PUSH2 0xB1 JUMP JUMPDEST CALLDATASIZE PUSH2 0xB1 JUMPI STOP JUMPDEST PUSH0 DUP1 REVERT JUMPDEST PUSH2 0xCF PUSH1 0x4 DUP1 CALLDATASIZE SUB DUP2 ADD SWAP1 PUSH2 0xCA SWAP2 SWAP1 PUSH2 0xAF7 JUMP JUMPDEST PUSH2 0x332 JUMP JUMPDEST STOP JUMPDEST CALLVALUE DUP1 ISZERO PUSH2 0xDC JUMPI PUSH0 DUP1 REVERT JUMPDEST POP PUSH2 0xF7 PUSH1 0x4 DUP1 CALLDATASIZE SUB DUP2 ADD SWAP1 PUSH2 0xF2 SWAP2 SWAP1 PUSH2 0xAF7 JUMP JUMPDEST PUSH2 0x58F JUMP JUMPDEST PUSH1 0x40 MLOAD PUSH2 0x104 SWAP2 SWAP1 PUSH2 0xBD9 JUMP JUMPDEST PUSH1 0x40 MLOAD DUP1 SWAP2 SUB SWAP1 RETURN JUMPDEST CALLVALUE DUP1 ISZERO PUSH2 0x118 JUMPI PUSH0 DUP1 REVERT JUMPDEST POP PUSH2 0x133 PUSH1 0x4 DUP1 CALLDATASIZE SUB DUP2 ADD SWAP1 PUSH2 0x12E SWAP2 SWAP1 PUSH2 0xAF7 JUMP JUMPDEST PUSH2 0x5F6 JUMP JUMPDEST PUSH1 0x40 MLOAD PUSH2 0x140 SWAP2 SWAP1 PUSH2 0xC08 JUMP JUMPDEST PUSH1 0x40 MLOAD DUP1 SWAP2 SUB SWAP1 RETURN JUMPDEST CALLVALUE DUP1 ISZERO PUSH2 0x154 JUMPI PUSH0 DUP1 REVERT JUMPDEST POP PUSH2 0x16F PUSH1 0x4 DUP1 CALLDATASIZE SUB DUP2 ADD SWAP1 PUSH2 0x16A SWAP2 SWAP1 PUSH2 0xC21 JUMP JUMPDEST PUSH2 0x60B JUMP JUMPDEST PUSH1 0x40 MLOAD PUSH2 0x17C SWAP2 SWAP1 PUSH2 0xC08 JUMP JUMPDEST PUSH1 0x40 MLOAD DUP1 SWAP2 SUB SWAP1 RETURN JUMPDEST CALLVALUE DUP1 ISZERO PUSH2 0x190 JUMPI PUSH0 DUP1 REVERT JUMPDEST POP PUSH2 0x1AB PUSH1 0x4 DUP1 CALLDATASIZE SUB DUP2 ADD SWAP1 PUSH2 0x1A6 SWAP2 SWAP1 PUSH2 0xC21 JUMP JUMPDEST PUSH2 0x636 JUMP JUMPDEST PUSH1 0x40 MLOAD PUSH2 0x1B8 SWAP2 SWAP1 PUSH2 0xBD9 JUMP JUMPDEST PUSH1 0x40 MLOAD DUP1 SWAP2 SUB SWAP1 RETURN JUMPDEST CALLVALUE DUP1 ISZERO PUSH2 0x1CC JUMPI PUSH0 DUP1 REVERT JUMPDEST POP PUSH2 0x1E7 PUSH1 0x4 DUP1 CALLDATASIZE SUB DUP2 ADD SWAP1 PUSH2 0x1E2 SWAP2 SWAP1 PUSH2 0xC5F JUMP JUMPDEST PUSH2 0x6B0 JUMP JUMPDEST PUSH1 0x40 MLOAD PUSH2 0x1F4 SWAP2 SWAP1 PUSH2 0xC08 JUMP JUMPDEST PUSH1 0x40 MLOAD DUP1 SWAP2 SUB SWAP1 RETURN JUMPDEST CALLVALUE DUP1 ISZERO PUSH2 0x208 JUMPI PUSH0 DUP1 REVERT JUMPDEST POP PUSH2 0x211 PUSH2 0x6E6 JUMP JUMPDEST PUSH1 0x40 MLOAD PUSH2 0x21E SWAP2 SWAP1 PUSH2 0xCEE JUMP JUMPDEST PUSH1 0x40 MLOAD DUP1 SWAP2 SUB SWAP1 RETURN JUMPDEST CALLVALUE DUP1 ISZERO PUSH2 0x232 JUMPI PUSH0 DUP1 REVERT JUMPDEST POP PUSH2 0x24D PUSH1 0x4 DUP1 CALLDATASIZE SUB DUP2 ADD SWAP1 PUSH2 0x248 SWAP2 SWAP1 PUSH2 0xAF7 JUMP JUMPDEST PUSH2 0x709 JUMP JUMPDEST PUSH1 0x40 MLOAD PUSH2 0x25A SWAP2 SWAP1 PUSH2 0xC08 JUMP JUMPDEST PUSH1 0x40 MLOAD DUP1 SWAP2 SUB SWAP1 RETURN JUMPDEST CALLVALUE DUP1 ISZERO PUSH2 0x26E JUMPI PUSH0 DUP1 REVERT JUMPDEST POP PUSH2 0x277 PUSH2 0x729 JUMP JUMPDEST PUSH1 0x40 MLOAD PUSH2 0x284 SWAP2 SWAP1 PUSH2 0xC08 JUMP JUMPDEST PUSH1 0x40 MLOAD DUP1 SWAP2 SUB SWAP1 RETURN JUMPDEST CALLVALUE DUP1 ISZERO PUSH2 0x298 JUMPI PUSH0 DUP1 REVERT JUMPDEST POP PUSH2 0x2B3 PUSH1 0x4 DUP1 CALLDATASIZE SUB DUP2 ADD SWAP1 PUSH2 0x2AE SWAP2 SWAP1 PUSH2 0xC21 JUMP JUMPDEST PUSH2 0x72E JUMP JUMPDEST PUSH1 0x40 MLOAD PUSH2 0x2C3 SWAP5 SWAP4 SWAP3 SWAP2 SWAP1 PUSH2 0xD07 JUMP JUMPDEST PUSH1 0x40 MLOAD DUP1 SWAP2 SUB SWAP1 RETURN JUMPDEST CALLVALUE DUP1 ISZERO PUSH2 0x2D7 JUMPI PUSH0 DUP1 REVERT JUMPDEST POP PUSH2 0x2F2 PUSH1 0x4 DUP1 CALLDATASIZE SUB DUP2 ADD SWAP1 PUSH2 0x2ED SWAP2 SWAP1 PUSH2 0xC21 JUMP JUMPDEST PUSH2 0x7E9 JUMP JUMPDEST PUSH1 0x40 MLOAD PUSH2 0x301 SWAP4 SWAP3 SWAP2 SWAP1 PUSH2 0xD51 JUMP JUMPDEST PUSH1 0x40 MLOAD DUP1 SWAP2 SUB SWAP1 RETURN JUMPDEST CALLVALUE DUP1 ISZERO PUSH2 0x315 JUMPI PUSH0 DUP1 REVERT JUMPDEST POP PUSH2 0x330 PUSH1 0x4 DUP1 CALLDATASIZE SUB DUP2 ADD SWAP1 PUSH2 0x32B SWAP2 SWAP1 PUSH2 0xDB0 JUMP JUMPDEST PUSH2 0x839 JUMP JUMPDEST STOP JUMPDEST PUSH1 0x5 DUP1 SLOAD SWAP1 POP DUP2 LT PUSH2 0x379 JUMPI PUSH1 0x40 MLOAD PUSH32 0x8C379A000000000000000000000000000000000000000000000000000000000 DUP2 MSTORE PUSH1 0x4 ADD PUSH2 0x370 SWAP1 PUSH2 0xE35 JUMP JUMPDEST PUSH1 0x40 MLOAD DUP1 SWAP2 SUB SWAP1 REVERT JUMPDEST PUSH1 0x5 DUP2 DUP2 SLOAD DUP2 LT PUSH2 0x38D JUMPI PUSH2 0x38C PUSH2 0xE53 JUMP JUMPDEST JUMPDEST SWAP1 PUSH0 MSTORE PUSH1 0x20 PUSH0 KECCAK256 ADD SLOAD CALLVALUE EQ PUSH2 0x3D7 JUMPI PUSH1 0x40 MLOAD PUSH32 0x8C379A000000000000000000000000000000000000000000000000000000000 DUP2 MSTORE PUSH1 0x4 ADD PUSH2 0x3CE SWAP1 PUSH2 0xECA JUMP JUMPDEST PUSH1 0x40 MLOAD DUP1 SWAP2 SUB SWAP1 REVERT JUMPDEST PUSH1 0x2 PUSH0 DUP3 DUP2 MSTORE PUSH1 0x20 ADD SWAP1 DUP2 MSTORE PUSH1 0x20 ADD PUSH0 KECCAK256 PUSH0 DUP2 SLOAD DUP1 SWAP3 SWAP2 SWAP1 PUSH2 0x3F8 SWAP1 PUSH2 0xF15 JUMP JUMPDEST SWAP2 SWAP1 POP SSTORE POP PUSH0 PUSH1 0x2 PUSH0 DUP4 DUP2 MSTORE PUSH1 0x20 ADD SWAP1 DUP2 MSTORE PUSH1 0x20 ADD PUSH0 KECCAK256 SLOAD SWAP1 POP PUSH0 PUSH2 0x41C DUP4 PUSH2 0x9EF JUMP JUMPDEST SWAP1 POP PUSH0 PUSH1 0x1 PUSH0 DUP6 DUP2 MSTORE PUSH1 0x20 ADD SWAP1 DUP2 MSTORE PUSH1 0x20 ADD PUSH0 KECCAK256 PUSH0 DUP5 DUP2 MSTORE PUSH1 0x20 ADD SWAP1 DUP2 MSTORE PUSH1 0x20 ADD PUSH0 KECCAK256 SWAP1 POP DUP3 DUP2 PUSH0 ADD DUP2 SWAP1 SSTORE POP CALLER DUP2 PUSH1 0x1 ADD PUSH0 PUSH2 0x100 EXP DUP2 SLOAD DUP2 PUSH20 0xFFFFFFFFFFFFFFFFFFFFFFFFFFFFFFFFFFFFFFFF MUL NOT AND SWAP1 DUP4 PUSH20 0xFFFFFFFFFFFFFFFFFFFFFFFFFFFFFFFFFFFFFFFF AND MUL OR SWAP1 SSTORE POP DUP2 DUP2 PUSH1 0x2 ADD DUP2 SWAP1 SSTORE POP PUSH1 0x1 PUSH0 DUP6 DUP2 MSTORE PUSH1 0x20 ADD SWAP1 DUP2 MSTORE PUSH1 0x20 ADD PUSH0 KECCAK256 PUSH0 DUP4 DUP2 MSTORE PUSH1 0x20 ADD SWAP1 DUP2 MSTORE PUSH1 0x20 ADD PUSH0 KECCAK256 PUSH1 0x3 ADD DUP4 SWAP1 DUP1 PUSH1 0x1 DUP2 SLOAD ADD DUP1 DUP3 SSTORE DUP1 SWAP2 POP POP PUSH1 0x1 SWAP1 SUB SWAP1 PUSH0 MSTORE PUSH1 0x20 PUSH0 KECCAK256 ADD PUSH0 SWAP1 SWAP2 SWAP1 SWAP2 SWAP1 SWAP2 POP SSTORE DUP4 CALLER PUSH20 0xFFFFFFFFFFFFFFFFFFFFFFFFFFFFFFFFFFFFFFFF AND PUSH32 0x4544854342BF99DBB4490912E9BBD2D4849D7917DD4C7E36232F26CFAD1BA24C DUP6 DUP6 PUSH1 0x1 PUSH0 DUP11 DUP2 MSTORE PUSH1 0x20 ADD SWAP1 DUP2 MSTORE PUSH1 0x20 ADD PUSH0 KECCAK256 PUSH0 DUP9 DUP2 MSTORE PUSH1 0x20 ADD SWAP1 DUP2 MSTORE PUSH1 0x20 ADD PUSH0 KECCAK256 PUSH1 0x3 ADD DUP1 SLOAD SWAP1 POP PUSH1 0x40 MLOAD PUSH2 0x54C SWAP4 SWAP3 SWAP2 SWAP1 PUSH2 0xF5C JUMP JUMPDEST PUSH1 0x40 MLOAD DUP1 SWAP2 SUB SWAP1 LOG3 PUSH1 0x3 PUSH0 DUP6 DUP2 MSTORE PUSH1 0x20 ADD SWAP1 DUP2 MSTORE PUSH1 0x20 ADD PUSH0 KECCAK256 DUP4 SWAP1 DUP1 PUSH1 0x1 DUP2 SLOAD ADD DUP1 DUP3 SSTORE DUP1 SWAP2 POP POP PUSH1 0x1 SWAP1 SUB SWAP1 PUSH0 MSTORE PUSH1 0x20 PUSH0 KECCAK256 ADD PUSH0 SWAP1 SWAP2 SWAP1 SWAP2 SWAP1 SWAP2 POP SSTORE POP POP POP POP JUMP JUMPDEST PUSH1 0x60 PUSH1 0x3 PUSH0 DUP4 DUP2 MSTORE PUSH1 0x20 ADD SWAP1 DUP2 MSTORE PUSH1 0x20 ADD PUSH0 KECCAK256 DUP1 SLOAD DUP1 PUSH1 0x20 MUL PUSH1 0x20 ADD PUSH1 0x40 MLOAD SWAP1 DUP2 ADD PUSH1 0x40 MSTORE DUP1 SWAP3 SWAP2 SWAP1 DUP2 DUP2 MSTORE PUSH1 0x20 ADD DUP3 DUP1 SLOAD DUP1 ISZERO PUSH2 0x5EA JUMPI PUSH1 0x20 MUL DUP3 ADD SWAP2 SWAP1 PUSH0 MSTORE PUSH1 0x20 PUSH0 KECCAK256 SWAP1 JUMPDEST DUP2 SLOAD DUP2 MSTORE PUSH1 0x20 ADD SWAP1 PUSH1 0x1 ADD SWAP1 DUP1 DUP4 GT PUSH2 0x5D6 JUMPI JUMPDEST POP POP POP POP POP SWAP1 POP SWAP2 SWAP1 POP JUMP JUMPDEST PUSH1 0x2 PUSH1 0x20 MSTORE DUP1 PUSH0 MSTORE PUSH1 0x40 PUSH0 KECCAK256 PUSH0 SWAP2 POP SWAP1 POP SLOAD DUP2 JUMP JUMPDEST PUSH1 0x3 PUSH1 0x20 MSTORE DUP2 PUSH0 MSTORE PUSH1 0x40 PUSH0 KECCAK256 DUP2 DUP2 SLOAD DUP2 LT PUSH2 0x624 JUMPI PUSH0 DUP1 REVERT JUMPDEST SWAP1 PUSH0 MSTORE PUSH1 0x20 PUSH0 KECCAK256 ADD PUSH0 SWAP2 POP SWAP2 POP POP SLOAD DUP2 JUMP JUMPDEST PUSH1 0x60 PUSH1 0x1 PUSH0 DUP5 DUP2 MSTORE PUSH1 0x20 ADD SWAP1 DUP2 MSTORE PUSH1 0x20 ADD PUSH0 KECCAK256 PUSH0 DUP4 DUP2 MSTORE PUSH1 0x20 ADD SWAP1 DUP2 MSTORE PUSH1 0x20 ADD PUSH0 KECCAK256 PUSH1 0x3 ADD DUP1 SLOAD DUP1 PUSH1 0x20 MUL PUSH1 0x20 ADD PUSH1 0x40 MLOAD SWAP1 DUP2 ADD PUSH1 0x40 MSTORE DUP1 SWAP3 SWAP2 SWAP1 DUP2 DUP2 MSTORE PUSH1 0x20 ADD DUP3 DUP1 SLOAD DUP1 ISZERO PUSH2 0x6A3 JUMPI PUSH1 0x20 MUL DUP3 ADD SWAP2 SWAP1 PUSH0 MSTORE PUSH1 0x20 PUSH0 KECCAK256 SWAP1 JUMPDEST DUP2 SLOAD DUP2 MSTORE PUSH1 0x20 ADD SWAP1 PUSH1 0x1 ADD SWAP1 DUP1 DUP4 GT PUSH2 0x68F JUMPI JUMPDEST POP POP POP POP POP SWAP1 POP SWAP3 SWAP2 POP POP JUMP JUMPDEST PUSH1 0x4 PUSH1 0x20 MSTORE DUP3 PUSH0 MSTORE PUSH1 0x40 PUSH0 KECCAK256 PUSH1 0x20 MSTORE DUP2 PUSH0 MSTORE PUSH1 0x40 PUSH0 KECCAK256 DUP2 DUP2 SLOAD DUP2 LT PUSH2 0x6D3 JUMPI PUSH0 DUP1 REVERT JUMPDEST SWAP1 PUSH0 MSTORE PUSH1 0x20 PUSH0 KECCAK256 ADD PUSH0 SWAP3 POP SWAP3 POP POP POP SLOAD DUP2 JUMP JUMPDEST PUSH0 DUP1 SLOAD SWAP1 PUSH2 0x100 EXP SWAP1 DIV PUSH20 0xFFFFFFFFFFFFFFFFFFFFFFFFFFFFFFFFFFFFFFFF AND DUP2 JUMP JUMPDEST PUSH1 0x5 DUP2 DUP2 SLOAD DUP2 LT PUSH2 0x718 JUMPI PUSH0 DUP1 REVERT JUMPDEST SWAP1 PUSH0 MSTORE PUSH1 0x20 PUSH0 KECCAK256 ADD PUSH0 SWAP2 POP SWAP1 POP SLOAD DUP2 JUMP JUMPDEST PUSH1 0x3 DUP2 JUMP JUMPDEST PUSH0 DUP1 PUSH0 PUSH1 0x60 PUSH0 PUSH1 0x1 PUSH0 DUP9 DUP2 MSTORE PUSH1 0x20 ADD SWAP1 DUP2 MSTORE PUSH1 0x20 ADD PUSH0 KECCAK256 PUSH0 DUP8 DUP2 MSTORE PUSH1 0x20 ADD SWAP1 DUP2 MSTORE PUSH1 0x20 ADD PUSH0 KECCAK256 SWAP1 POP DUP1 PUSH0 ADD SLOAD DUP2 PUSH1 0x1 ADD PUSH0 SWAP1 SLOAD SWAP1 PUSH2 0x100 EXP SWAP1 DIV PUSH20 0xFFFFFFFFFFFFFFFFFFFFFFFFFFFFFFFFFFFFFFFF AND DUP3 PUSH1 0x2 ADD SLOAD DUP4 PUSH1 0x3 ADD DUP1 DUP1 SLOAD DUP1 PUSH1 0x20 MUL PUSH1 0x20 ADD PUSH1 0x40 MLOAD SWAP1 DUP2 ADD PUSH1 0x40 MSTORE DUP1 SWAP3 SWAP2 SWAP1 DUP2 DUP2 MSTORE PUSH1 0x20 ADD DUP3 DUP1 SLOAD DUP1 ISZERO PUSH2 0x7D0 JUMPI PUSH1 0x20 MUL DUP3 ADD SWAP2 SWAP1 PUSH0 MSTORE PUSH1 0x20 PUSH0 KECCAK256 SWAP1 JUMPDEST DUP2 SLOAD DUP2 MSTORE PUSH1 0x20 ADD SWAP1 PUSH1 0x1 ADD SWAP1 DUP1 DUP4 GT PUSH2 0x7BC JUMPI JUMPDEST POP POP POP POP POP SWAP1 POP SWAP5 POP SWAP5 POP SWAP5 POP SWAP5 POP POP SWAP3 SWAP6 SWAP2 SWAP5 POP SWAP3 POP JUMP JUMPDEST PUSH1 0x1 PUSH1 0x20 MSTORE DUP2 PUSH0 MSTORE PUSH1 0x40 PUSH0 KECCAK256 PUSH1 0x20 MSTORE DUP1 PUSH0 MSTORE PUSH1 0x40 PUSH0 KECCAK256 PUSH0 SWAP2 POP SWAP2 POP POP DUP1 PUSH0 ADD SLOAD SWAP1 DUP1 PUSH1 0x1 ADD PUSH0 SWAP1 SLOAD SWAP1 PUSH2 0x100 EXP SWAP1 DIV PUSH20 0xFFFFFFFFFFFFFFFFFFFFFFFFFFFFFFFFFFFFFFFF AND SWAP1 DUP1 PUSH1 0x2 ADD SLOAD SWAP1 POP DUP4 JUMP JUMPDEST PUSH0 DUP1 SLOAD SWAP1 PUSH2 0x100 EXP SWAP1 DIV PUSH20 0xFFFFFFFFFFFFFFFFFFFFFFFFFFFFFFFFFFFFFFFF AND PUSH20 0xFFFFFFFFFFFFFFFFFFFFFFFFFFFFFFFFFFFFFFFF AND CALLER PUSH20 0xFFFFFFFFFFFFFFFFFFFFFFFFFFFFFFFFFFFFFFFF AND EQ PUSH2 0x8C6 JUMPI PUSH1 0x40 MLOAD PUSH32 0x8C379A000000000000000000000000000000000000000000000000000000000 DUP2 MSTORE PUSH1 0x4 ADD PUSH2 0x8BD SWAP1 PUSH2 0xFDB JUMP JUMPDEST PUSH1 0x40 MLOAD DUP1 SWAP2 SUB SWAP1 REVERT JUMPDEST PUSH0 PUSH20 0xFFFFFFFFFFFFFFFFFFFFFFFFFFFFFFFFFFFFFFFF AND DUP2 PUSH20 0xFFFFFFFFFFFFFFFFFFFFFFFFFFFFFFFFFFFFFFFF AND SUB PUSH2 0x934 JUMPI PUSH1 0x40 MLOAD PUSH32 0x8C379A000000000000000000000000000000000000000000000000000000000 DUP2 MSTORE PUSH1 0x4 ADD PUSH2 0x92B SWAP1 PUSH2 0x1043 JUMP JUMPDEST PUSH1 0x40 MLOAD DUP1 SWAP2 SUB SWAP1 REVERT JUMPDEST DUP1 PUSH20 0xFFFFFFFFFFFFFFFFFFFFFFFFFFFFFFFFFFFFFFFF AND PUSH0 DUP1 SLOAD SWAP1 PUSH2 0x100 EXP SWAP1 DIV PUSH20 0xFFFFFFFFFFFFFFFFFFFFFFFFFFFFFFFFFFFFFFFF AND PUSH20 0xFFFFFFFFFFFFFFFFFFFFFFFFFFFFFFFFFFFFFFFF AND PUSH32 0x8BE0079C531659141344CD1FD0A4F28419497F9722A3DAAFE3B4186F6B6457E0 PUSH1 0x40 MLOAD PUSH1 0x40 MLOAD DUP1 SWAP2 SUB SWAP1 LOG3 DUP1 PUSH0 DUP1 PUSH2 0x100 EXP DUP2 SLOAD DUP2 PUSH20 0xFFFFFFFFFFFFFFFFFFFFFFFFFFFFFFFFFFFFFFFF MUL NOT AND SWAP1 DUP4 PUSH20 0xFFFFFFFFFFFFFFFFFFFFFFFFFFFFFFFFFFFFFFFF AND MUL OR SWAP1 SSTORE POP POP JUMP JUMPDEST PUSH0 DUP1 PUSH1 0x3 PUSH0 DUP5 DUP2 MSTORE PUSH1 0x20 ADD SWAP1 DUP2 MSTORE PUSH1 0x20 ADD PUSH0 KECCAK256 SWAP1 POP PUSH0 JUMPDEST DUP2 DUP1 SLOAD SWAP1 POP DUP2 LT ISZERO PUSH2 0xA7F JUMPI PUSH0 DUP3 DUP3 DUP2 SLOAD DUP2 LT PUSH2 0xA26 JUMPI PUSH2 0xA25 PUSH2 0xE53 JUMP JUMPDEST JUMPDEST SWAP1 PUSH0 MSTORE PUSH1 0x20 PUSH0 KECCAK256 ADD SLOAD SWAP1 POP PUSH1 0x3 PUSH1 0x1 PUSH0 DUP8 DUP2 MSTORE PUSH1 0x20 ADD SWAP1 DUP2 MSTORE PUSH1 0x20 ADD PUSH0 KECCAK256 PUSH0 DUP4 DUP2 MSTORE PUSH1 0x20 ADD SWAP1 DUP2 MSTORE PUSH1 0x20 ADD PUSH0 KECCAK256 PUSH1 0x3 ADD DUP1 SLOAD SWAP1 POP LT ISZERO PUSH2 0xA6B JUMPI DUP1 SWAP4 POP POP POP POP PUSH2 0xABB JUMP JUMPDEST POP DUP1 DUP1 PUSH2 0xA77 SWAP1 PUSH2 0xF15 JUMP JUMPDEST SWAP2 POP POP PUSH2 0xA06 JUMP JUMPDEST POP PUSH1 0x40 MLOAD PUSH32 0x8C379A000000000000000000000000000000000000000000000000000000000 DUP2 MSTORE PUSH1 0x4 ADD PUSH2 0xAB2 SWAP1 PUSH2 0x10AB JUMP JUMPDEST PUSH1 0x40 MLOAD DUP1 SWAP2 SUB SWAP1 REVERT JUMPDEST SWAP2 SWAP1 POP JUMP JUMPDEST PUSH0 DUP1 REVERT JUMPDEST PUSH0 DUP2 SWAP1 POP SWAP2 SWAP1 POP JUMP JUMPDEST PUSH2 0xAD6 DUP2 PUSH2 0xAC4 JUMP JUMPDEST DUP2 EQ PUSH2 0xAE0 JUMPI PUSH0 DUP1 REVERT JUMPDEST POP JUMP JUMPDEST PUSH0 DUP2 CALLDATALOAD SWAP1 POP PUSH2 0xAF1 DUP2 PUSH2 0xACD JUMP JUMPDEST SWAP3 SWAP2 POP POP JUMP JUMPDEST PUSH0 PUSH1 0x20 DUP3 DUP5 SUB SLT ISZERO PUSH2 0xB0C JUMPI PUSH2 0xB0B PUSH2 0xAC0 JUMP JUMPDEST JUMPDEST PUSH0 PUSH2 0xB19 DUP5 DUP3 DUP6 ADD PUSH2 0xAE3 JUMP JUMPDEST SWAP2 POP POP SWAP3 SWAP2 POP POP JUMP JUMPDEST PUSH0 DUP2 MLOAD SWAP1 POP SWAP2 SWAP1 POP JUMP JUMPDEST PUSH0 DUP3 DUP3 MSTORE PUSH1 0x20 DUP3 ADD SWAP1 POP SWAP3 SWAP2 POP POP JUMP JUMPDEST PUSH0 DUP2 SWAP1 POP PUSH1 0x20 DUP3 ADD SWAP1 POP SWAP2 SWAP1 POP JUMP JUMPDEST PUSH2 0xB54 DUP2 PUSH2 0xAC4 JUMP JUMPDEST DUP3 MSTORE POP POP JUMP JUMPDEST PUSH0 PUSH2 0xB65 DUP4 DUP4 PUSH2 0xB4B JUMP JUMPDEST PUSH1 0x20 DUP4 ADD SWAP1 POP SWAP3 SWAP2 POP POP JUMP JUMPDEST PUSH0 PUSH1 0x20 DUP3 ADD SWAP1 POP SWAP2 SWAP1 POP JUMP JUMPDEST PUSH0 PUSH2 0xB87 DUP3 PUSH2 0xB22 JUMP JUMPDEST PUSH2 0xB91 DUP2 DUP6 PUSH2 0xB2C JUMP JUMPDEST SWAP4 POP PUSH2 0xB9C DUP4 PUSH2 0xB3C JUMP JUMPDEST DUP1 PUSH0 JUMPDEST DUP4 DUP2 LT ISZERO PUSH2 0xBCC JUMPI DUP2 MLOAD PUSH2 0xBB3 DUP9 DUP3 PUSH2 0xB5A JUMP JUMPDEST SWAP8 POP PUSH2 0xBBE DUP4 PUSH2 0xB71 JUMP JUMPDEST SWAP3 POP POP PUSH1 0x1 DUP2 ADD SWAP1 POP PUSH2 0xB9F JUMP JUMPDEST POP DUP6 SWAP4 POP POP POP POP SWAP3 SWAP2 POP POP JUMP JUMPDEST PUSH0 PUSH1 0x20 DUP3 ADD SWAP1 POP DUP2 DUP2 SUB PUSH0 DUP4 ADD MSTORE PUSH2 0xBF1 DUP2 DUP5 PUSH2 0xB7D JUMP JUMPDEST SWAP1 POP SWAP3 SWAP2 POP POP JUMP JUMPDEST PUSH2 0xC02 DUP2 PUSH2 0xAC4 JUMP JUMPDEST DUP3 MSTORE POP POP JUMP JUMPDEST PUSH0 PUSH1 0x20 DUP3 ADD SWAP1 POP PUSH2 0xC1B PUSH0 DUP4 ADD DUP5 PUSH2 0xBF9 JUMP JUMPDEST SWAP3 SWAP2 POP POP JUMP JUMPDEST PUSH0 DUP1 PUSH1 0x40 DUP4 DUP6 SUB SLT ISZERO PUSH2 0xC37 JUMPI PUSH2 0xC36 PUSH2 0xAC0 JUMP JUMPDEST JUMPDEST PUSH0 PUSH2 0xC44 DUP6 DUP3 DUP7 ADD PUSH2 0xAE3 JUMP JUMPDEST SWAP3 POP POP PUSH1 0x20 PUSH2 0xC55 DUP6 DUP3 DUP7 ADD PUSH2 0xAE3 JUMP JUMPDEST SWAP2 POP POP SWAP3 POP SWAP3 SWAP1 POP JUMP JUMPDEST PUSH0 DUP1 PUSH0 PUSH1 0x60 DUP5 DUP7 SUB SLT ISZERO PUSH2 0xC76 JUMPI PUSH2 0xC75 PUSH2 0xAC0 JUMP JUMPDEST JUMPDEST PUSH0 PUSH2 0xC83 DUP7 DUP3 DUP8 ADD PUSH2 0xAE3 JUMP JUMPDEST SWAP4 POP POP PUSH1 0x20 PUSH2 0xC94 DUP7 DUP3 DUP8 ADD PUSH2 0xAE3 JUMP JUMPDEST SWAP3 POP POP PUSH1 0x40 PUSH2 0xCA5 DUP7 DUP3 DUP8 ADD PUSH2 0xAE3 JUMP JUMPDEST SWAP2 POP POP SWAP3 POP SWAP3 POP SWAP3 JUMP JUMPDEST PUSH0 PUSH20 0xFFFFFFFFFFFFFFFFFFFFFFFFFFFFFFFFFFFFFFFF DUP3 AND SWAP1 POP SWAP2 SWAP1 POP JUMP JUMPDEST PUSH0 PUSH2 0xCD8 DUP3 PUSH2 0xCAF JUMP JUMPDEST SWAP1 POP SWAP2 SWAP1 POP JUMP JUMPDEST PUSH2 0xCE8 DUP2 PUSH2 0xCCE JUMP JUMPDEST DUP3 MSTORE POP POP JUMP JUMPDEST PUSH0 PUSH1 0x20 DUP3 ADD SWAP1 POP PUSH2 0xD01 PUSH0 DUP4 ADD DUP5 PUSH2 0xCDF JUMP JUMPDEST SWAP3 SWAP2 POP POP JUMP JUMPDEST PUSH0 PUSH1 0x80 DUP3 ADD SWAP1 POP PUSH2 0xD1A PUSH0 DUP4 ADD DUP8 PUSH2 0xBF9 JUMP JUMPDEST PUSH2 0xD27 PUSH1 0x20 DUP4 ADD DUP7 PUSH2 0xCDF JUMP JUMPDEST PUSH2 0xD34 PUSH1 0x40 DUP4 ADD DUP6 PUSH2 0xBF9 JUMP JUMPDEST DUP2 DUP2 SUB PUSH1 0x60 DUP4 ADD MSTORE PUSH2 0xD46 DUP2 DUP5 PUSH2 0xB7D JUMP JUMPDEST SWAP1 POP SWAP6 SWAP5 POP POP POP POP POP JUMP JUMPDEST PUSH0 PUSH1 0x60 DUP3 ADD SWAP1 POP PUSH2 0xD64 PUSH0 DUP4 ADD DUP7 PUSH2 0xBF9 JUMP JUMPDEST PUSH2 0xD71 PUSH1 0x20 DUP4 ADD DUP6 PUSH2 0xCDF JUMP JUMPDEST PUSH2 0xD7E PUSH1 0x40 DUP4 ADD DUP5 PUSH2 0xBF9 JUMP JUMPDEST SWAP5 SWAP4 POP POP POP POP JUMP JUMPDEST PUSH2 0xD8F DUP2 PUSH2 0xCCE JUMP JUMPDEST DUP2 EQ PUSH2 0xD99 JUMPI PUSH0 DUP1 REVERT JUMPDEST POP JUMP JUMPDEST PUSH0 DUP2 CALLDATALOAD SWAP1 POP PUSH2 0xDAA DUP2 PUSH2 0xD86 JUMP JUMPDEST SWAP3 SWAP2 POP POP JUMP JUMPDEST PUSH0 PUSH1 0x20 DUP3 DUP5 SUB SLT ISZERO PUSH2 0xDC5 JUMPI PUSH2 0xDC4 PUSH2 0xAC0 JUMP JUMPDEST JUMPDEST PUSH0 PUSH2 0xDD2 DUP5 DUP3 DUP6 ADD PUSH2 0xD9C JUMP JUMPDEST SWAP2 POP POP SWAP3 SWAP2 POP POP JUMP JUMPDEST PUSH0 DUP3 DUP3 MSTORE PUSH1 0x20 DUP3 ADD SWAP1 POP SWAP3 SWAP2 POP POP JUMP JUMPDEST PUSH32 0x496E76616C6964206D6174726978000000000000000000000000000000000000 PUSH0 DUP3 ADD MSTORE POP JUMP JUMPDEST PUSH0 PUSH2 0xE1F PUSH1 0xE DUP4 PUSH2 0xDDB JUMP JUMPDEST SWAP2 POP PUSH2 0xE2A DUP3 PUSH2 0xDEB JUMP JUMPDEST PUSH1 0x20 DUP3 ADD SWAP1 POP SWAP2 SWAP1 POP JUMP JUMPDEST PUSH0 PUSH1 0x20 DUP3 ADD SWAP1 POP DUP2 DUP2 SUB PUSH0 DUP4 ADD MSTORE PUSH2 0xE4C DUP2 PUSH2 0xE13 JUMP JUMPDEST SWAP1 POP SWAP2 SWAP1 POP JUMP JUMPDEST PUSH32 0x4E487B7100000000000000000000000000000000000000000000000000000000 PUSH0 MSTORE PUSH1 0x32 PUSH1 0x4 MSTORE PUSH1 0x24 PUSH0 REVERT JUMPDEST PUSH32 0x496E76616C696420616D6F756E74000000000000000000000000000000000000 PUSH0 DUP3 ADD MSTORE POP JUMP JUMPDEST PUSH0 PUSH2 0xEB4 PUSH1 0xE DUP4 PUSH2 0xDDB JUMP JUMPDEST SWAP2 POP PUSH2 0xEBF DUP3 PUSH2 0xE80 JUMP JUMPDEST PUSH1 0x20 DUP3 ADD SWAP1 POP SWAP2 SWAP1 POP JUMP JUMPDEST PUSH0 PUSH1 0x20 DUP3 ADD SWAP1 POP DUP2 DUP2 SUB PUSH0 DUP4 ADD MSTORE PUSH2 0xEE1 DUP2 PUSH2 0xEA8 JUMP JUMPDEST SWAP1 POP SWAP2 SWAP1 POP JUMP JUMPDEST PUSH32 0x4E487B7100000000000000000000000000000000000000000000000000000000 PUSH0 MSTORE PUSH1 0x11 PUSH1 0x4 MSTORE PUSH1 0x24 PUSH0 REVERT JUMPDEST PUSH0 PUSH2 0xF1F DUP3 PUSH2 0xAC4 JUMP JUMPDEST SWAP2 POP PUSH32 0xFFFFFFFFFFFFFFFFFFFFFFFFFFFFFFFFFFFFFFFFFFFFFFFFFFFFFFFFFFFFFFFF DUP3 SUB PUSH2 0xF51 JUMPI PUSH2 0xF50 PUSH2 0xEE8 JUMP JUMPDEST JUMPDEST PUSH1 0x1 DUP3 ADD SWAP1 POP SWAP2 SWAP1 POP JUMP JUMPDEST PUSH0 PUSH1 0x60 DUP3 ADD SWAP1 POP PUSH2 0xF6F PUSH0 DUP4 ADD DUP7 PUSH2 0xBF9 JUMP JUMPDEST PUSH2 0xF7C PUSH1 0x20 DUP4 ADD DUP6 PUSH2 0xBF9 JUMP JUMPDEST PUSH2 0xF89 PUSH1 0x40 DUP4 ADD DUP5 PUSH2 0xBF9 JUMP JUMPDEST SWAP5 SWAP4 POP POP POP POP JUMP JUMPDEST PUSH32 0x4F776E61626C653A2063616C6C6572206973206E6F7420746865206F776E6572 PUSH0 DUP3 ADD MSTORE POP JUMP JUMPDEST PUSH0 PUSH2 0xFC5 PUSH1 0x20 DUP4 PUSH2 0xDDB JUMP JUMPDEST SWAP2 POP PUSH2 0xFD0 DUP3 PUSH2 0xF91 JUMP JUMPDEST PUSH1 0x20 DUP3 ADD SWAP1 POP SWAP2 SWAP1 POP JUMP JUMPDEST PUSH0 PUSH1 0x20 DUP3 ADD SWAP1 POP DUP2 DUP2 SUB PUSH0 DUP4 ADD MSTORE PUSH2 0xFF2 DUP2 PUSH2 0xFB9 JUMP JUMPDEST SWAP1 POP SWAP2 SWAP1 POP JUMP JUMPDEST PUSH32 0x4E6577206F776E65722063616E6E6F74206265207A65726F0000000000000000 PUSH0 DUP3 ADD MSTORE POP JUMP JUMPDEST PUSH0 PUSH2 0x102D PUSH1 0x18 DUP4 PUSH2 0xDDB JUMP JUMPDEST SWAP2 POP PUSH2 0x1038 DUP3 PUSH2 0xFF9 JUMP JUMPDEST PUSH1 0x20 DUP3 ADD SWAP1 POP SWAP2 SWAP1 POP JUMP JUMPDEST PUSH0 PUSH1 0x20 DUP3 ADD SWAP1 POP DUP2 DUP2 SUB PUSH0 DUP4 ADD MSTORE PUSH2 0x105A DUP2 PUSH2 0x1021 JUMP JUMPDEST SWAP1 POP SWAP2 SWAP1 POP JUMP JUMPDEST PUSH32 0x4E6F20617661696C61626C6520706172656E7420666F756E6400000000000000 PUSH0 DUP3 ADD MSTORE POP JUMP JUMPDEST PUSH0 PUSH2 0x1095 PUSH1 0x19 DUP4 PUSH2 0xDDB JUMP JUMPDEST SWAP2 POP PUSH2 0x10A0 DUP3 PUSH2 0x1061 JUMP JUMPDEST PUSH1 0x20 DUP3 ADD SWAP1 POP SWAP2 SWAP1 POP JUMP JUMPDEST PUSH0 PUSH1 0x20 DUP3 ADD SWAP1 POP DUP2 DUP2 SUB PUSH0 DUP4 ADD MSTORE PUSH2 0x10C2 DUP2 PUSH2 0x1089 JUMP JUMPDEST SWAP1 POP SWAP2 SWAP1 POP JUMP INVALID LOG2 PUSH5 0x6970667358 0x22 SLT KECCAK256 0xE DUP5 DELEGATECALL 0xFB 0xEC 0x1F LT SWAP10 PUSH2 0x5564 PUSH14 0x10CF384E056D9E952103F6E93ACB CALLDATALOAD ADDRESS SWAP13 PUSH20 0x496D64736F6C6343000814003300000000000000 "
				},
				"gasEstimates": {
					"creation": {
						"codeDepositCost": "870200",
						"executionCost": "infinite",
						"totalCost": "infinite"
					},
					"external": {
						"MAX_CHILDREN()": "369",
						"UsersIds(uint256,uint256,uint256)": "infinite",
						"getChildren(uint256,uint256)": "infinite",
						"getQueue(uint256)": "infinite",
						"getUser(uint256,uint256)": "infinite",
						"joinMatrix(uint256)": "infinite",
						"lastUserId(uint256)": "infinite",
						"matrixPrices(uint256)": "infinite",
						"matrixQueue(uint256,uint256)": "infinite",
						"matrixUsers(uint256,uint256)": "infinite",
						"owner()": "2505",
						"transferOwnership(address)": "30702"
					},
					"internal": {
						"_findNextAvailableParent(uint256)": "infinite"
					}
				},
				"methodIdentifiers": {
					"MAX_CHILDREN()": "c222ff49",
					"UsersIds(uint256,uint256,uint256)": "63c09887",
					"getChildren(uint256,uint256)": "3ad27afe",
					"getQueue(uint256)": "0be8fffc",
					"getUser(uint256,uint256)": "c75cd70a",
					"joinMatrix(uint256)": "02952528",
					"lastUserId(uint256)": "169399a9",
					"matrixPrices(uint256)": "b5c9ffbc",
					"matrixQueue(uint256,uint256)": "305e60f8",
					"matrixUsers(uint256,uint256)": "dfb9c8d0",
					"owner()": "8da5cb5b",
					"transferOwnership(address)": "f2fde38b"
				}
			},
			"storageLayout": {
				"storage": [
					{
						"astId": 3,
						"contract": "contracts/modules/InfinityPool.sol:CompanyMatrix",
						"label": "owner",
						"offset": 0,
						"slot": "0",
						"type": "t_address"
					},
					{
						"astId": 91,
						"contract": "contracts/modules/InfinityPool.sol:CompanyMatrix",
						"label": "matrixUsers",
						"offset": 0,
						"slot": "1",
						"type": "t_mapping(t_uint256,t_mapping(t_uint256,t_struct(User)84_storage))"
					},
					{
						"astId": 95,
						"contract": "contracts/modules/InfinityPool.sol:CompanyMatrix",
						"label": "lastUserId",
						"offset": 0,
						"slot": "2",
						"type": "t_mapping(t_uint256,t_uint256)"
					},
					{
						"astId": 100,
						"contract": "contracts/modules/InfinityPool.sol:CompanyMatrix",
						"label": "matrixQueue",
						"offset": 0,
						"slot": "3",
						"type": "t_mapping(t_uint256,t_array(t_uint256)dyn_storage)"
					},
					{
						"astId": 107,
						"contract": "contracts/modules/InfinityPool.sol:CompanyMatrix",
						"label": "UsersIds",
						"offset": 0,
						"slot": "4",
						"type": "t_mapping(t_uint256,t_mapping(t_uint256,t_array(t_uint256)dyn_storage))"
					},
					{
						"astId": 118,
						"contract": "contracts/modules/InfinityPool.sol:CompanyMatrix",
						"label": "matrixPrices",
						"offset": 0,
						"slot": "5",
						"type": "t_array(t_uint256)dyn_storage"
					}
				],
				"types": {
					"t_address": {
						"encoding": "inplace",
						"label": "address",
						"numberOfBytes": "20"
					},
					"t_array(t_uint256)dyn_storage": {
						"base": "t_uint256",
						"encoding": "dynamic_array",
						"label": "uint256[]",
						"numberOfBytes": "32"
					},
					"t_mapping(t_uint256,t_array(t_uint256)dyn_storage)": {
						"encoding": "mapping",
						"key": "t_uint256",
						"label": "mapping(uint256 => uint256[])",
						"numberOfBytes": "32",
						"value": "t_array(t_uint256)dyn_storage"
					},
					"t_mapping(t_uint256,t_mapping(t_uint256,t_array(t_uint256)dyn_storage))": {
						"encoding": "mapping",
						"key": "t_uint256",
						"label": "mapping(uint256 => mapping(uint256 => uint256[]))",
						"numberOfBytes": "32",
						"value": "t_mapping(t_uint256,t_array(t_uint256)dyn_storage)"
					},
					"t_mapping(t_uint256,t_mapping(t_uint256,t_struct(User)84_storage))": {
						"encoding": "mapping",
						"key": "t_uint256",
						"label": "mapping(uint256 => mapping(uint256 => struct CompanyMatrix.User))",
						"numberOfBytes": "32",
						"value": "t_mapping(t_uint256,t_struct(User)84_storage)"
					},
					"t_mapping(t_uint256,t_struct(User)84_storage)": {
						"encoding": "mapping",
						"key": "t_uint256",
						"label": "mapping(uint256 => struct CompanyMatrix.User)",
						"numberOfBytes": "32",
						"value": "t_struct(User)84_storage"
					},
					"t_mapping(t_uint256,t_uint256)": {
						"encoding": "mapping",
						"key": "t_uint256",
						"label": "mapping(uint256 => uint256)",
						"numberOfBytes": "32",
						"value": "t_uint256"
					},
					"t_struct(User)84_storage": {
						"encoding": "inplace",
						"label": "struct CompanyMatrix.User",
						"members": [
							{
								"astId": 76,
								"contract": "contracts/modules/InfinityPool.sol:CompanyMatrix",
								"label": "id",
								"offset": 0,
								"slot": "0",
								"type": "t_uint256"
							},
							{
								"astId": 78,
								"contract": "contracts/modules/InfinityPool.sol:CompanyMatrix",
								"label": "userAddress",
								"offset": 0,
								"slot": "1",
								"type": "t_address"
							},
							{
								"astId": 80,
								"contract": "contracts/modules/InfinityPool.sol:CompanyMatrix",
								"label": "parentId",
								"offset": 0,
								"slot": "2",
								"type": "t_uint256"
							},
							{
								"astId": 83,
								"contract": "contracts/modules/InfinityPool.sol:CompanyMatrix",
								"label": "children",
								"offset": 0,
								"slot": "3",
								"type": "t_array(t_uint256)dyn_storage"
							}
						],
						"numberOfBytes": "128"
					},
					"t_uint256": {
						"encoding": "inplace",
						"label": "uint256",
						"numberOfBytes": "32"
					}
				}
			},
			"userdoc": {
				"kind": "user",
				"methods": {},
				"version": 1
			}
		}
	}
}