{
	"data": {
		"bytecode": {
			"linkReferences": {},
			"object": "60806040523461052b5760015f556040516101e081016001600160401b038111828210176105175760405267d02ab486cedc0000815268015af1d78b58c4000060208201526802b5e3af16b1880000604082015268056bc75e2d631000006060820152680ad78ebc5ac620000060808201526815af1d78b58c40000060a0820152682b5e3af16b1880000060c08201526856bc75e2d63100000060e082015268ad78ebc5ac6200000061010082015269015af1d78b58c40000006101208201526902b5e3af16b18800000061014082015269056bc75e2d6310000000610160820152690ad78ebc5ac6200000006101808201526915af1d78b58c400000006101a0820152692b5e3af16b18800000006101c0820152600d54600f600d5580600f106104c1575b50600d5f5260205f20905f5b600f81106104a45761014161052f565b680410d586a20a4c00008152681043561a8829300000602082015268410d586a20a4c0000060408201526901043561a882930000006060820152690410d586a20a4c0000006080820152691043561a88293000000060a082015269410d586a20a4c000000060c082015260165460076016558060071061044e575b5060165f5260205f20905f5b60078110610431576101d861054e565b68056bc75e2d631000008152680ad78ebc5ac620000060208201526815af1d78b58c4000006040820152682b5e3af16b1880000060608201526856bc75e2d631000000608082015268ad78ebc5ac6200000060a082015269015af1d78b58c400000060c08201526902b5e3af16b18800000060e08201526017546008601755806008106103db575b5060175f5260205f20905f5b600881106103be5761027c61052f565b60038152600560208201526007604082015260096060820152600b6080820152600d60a0820152600f60c08201525f5b600781106103a6576102bc61054e565b6004815260056020820152600660408201526007606082015260086080820152600960a0820152600a60c0820152600b60e08201525f5b6008811061038e5761030361054e565b5f815260016020820152600160408201526001606082015260016080820152600160a0820152600160c0820152600160e08201525f5b60088110610376575f6039555f603a555f603b5560016040555f6041555f60425560016047555f6048555f60495560405161284f90816105858239f35b600190602060ff845116930192816027015501610339565b600190602060ff84511693019281601f0155016102f3565b600190602060ff8451169301928160180155016102ac565b81516001600160501b03168184015560209091019060010161026c565b60175f5261042b907fc624b66cc0138b8fabc209247f72d758e1cf3343756d543badbf24212bed8c15017fc624b66cc0138b8fabc209247f72d758e1cf3343756d543badbf24212bed8c1d61056e565b81610260565b81516001600160501b0316818401556020909101906001016101c8565b60165f5261049e907fd833147d7dc355ba459fc788f669e58cfaf9dc25ddcd0702e87d69c7b5124289017fd833147d7dc355ba459fc788f669e58cfaf9dc25ddcd0702e87d69c7b512429061056e565b816101bc565b81516001600160501b031681840155602090910190600101610131565b600d5f52610511907fd7b6990105719101dabeb77144f2a3385c8033acd3af97e9423a695e81ad1eb5017fd7b6990105719101dabeb77144f2a3385c8033acd3af97e9423a695e81ad1ec461056e565b5f610125565b634e487b7160e01b5f52604160045260245ffd5b5f80fd5b6040519060e082016001600160401b0381118382101761051757604052565b6040519061010082016001600160401b0381118382101761051757604052565b818110610579575050565b5f815560010161056e56fe6101a0806040526004361015610013575f80fd5b5f905f3560e01c90816254815d14611fe75750806301c234a814611fcb578063056b4d1f14611f6b5780630676d0d614611f415780630a5c5d6914611f125780630ef81b7414611ed95780630f2b7cc914611eaa5780631629805614611aaa5780632132d20414611a7c5780632350268f14611a3957806323fd338e146111895780632a89153414611a1b5780632ae0ee0d1461177b5780632d66014f146119d85780632f48ab7d146119af5780633080b5bc1461199157806331bb6a301461197557806332bc298c1461195757806332fcd96614611934578063365b98b214611780578063375b43b41461177b57806339ab36031461173857806339f2e64a146113685780633a5084b31461134a5780634036436c146112ea57806345cb537c146112c057806346b9dece1461121a5780634b8cbf9b146111fc5780634d12ae0f146111ca5780634d4cc5ca1461118e57806358c7d352146111895780635aabf7f11461114d5780635b58ce6c146110d95780635b62d1d5146110bb5780635ec64a44146110895780636a42478214611028578063705fee2d1461100957806370c8d77014610f8f57806376f5f70014610f7157806378f6ad6d14610f535780637cdc65f214610f2a5780637d846e3814610f0657806388afbe3e14610edc57806389043ece14610eaf5780638d58644c14610e735780638f030ece14610e37578063907c84a714610dcc578063956a322814610d9e578063973580041461089c5780639b40ab971461087e5780639c3834861461084c578063a59d17d11461082e578063a5e52b9914610810578063ae4708dc146107cd578063bd1aae401461079b578063bf72467214610763578063bff1f9e114610745578063c216212a1461071a578063c4eb42a5146106b9578063c7bb62e814610687578063c8df290814610662578063c9ed070814610644578063ca8e912114610626578063cb0e0d7d146105e9578063ce79c2c31461057e578063d0a2fd791461054c578063d2f0490d14610530578063db27cc71146104cc578063e898fc38146104ae578063e9e34a1614610485578063ebe0ff1514610461578063ec597e6f14610443578063f5748c4f146103ec578063f5d74d93146103c3578063f7a24806146103825763fddc806f14610362575f80fd5b3461037f578060031936011261037f576020603a54604051908152f35b80fd5b503461037f5761039136612056565b9190815260466020526040812090815483101561037f5760206103b484846120d8565b90549060031b1c604051908152f35b503461037f578060031936011261037f576004546040516001600160a01b039091168152602090f35b503461037f57602036600319011261037f5760043590604b5482101561037f57604b5482101561042f57602091604b825282822001549060031b1c604051908152f35b634e487b7160e01b81526032600452602490fd5b503461037f578060031936011261037f576020600554604051908152f35b503461037f578060031936011261037f576020604051683635c9adc5dea000008152f35b503461037f578060031936011261037f576003546040516001600160a01b039091168152602090f35b503461037f578060031936011261037f576020604154604051908152f35b503461037f57602036600319011261037f576040906004358152604c60205220805461052c60018301549260ff60046002830154920154169060405194859485926060929594919560808501968552602085015260408401521515910152565b0390f35b503461037f578060031936011261037f57602060405160058152f35b503461037f57602036600319011261037f57600435600881101561057a5760209150601f0154604051908152f35b5080fd5b503461037f5760409061059036612056565b908252603060205282822090825260205220805461052c6001830154926002810154906004600382015491015491604051958695869192608093969594919660a084019784526020840152604083015260608201520152565b503461037f57602036600319011261037f576004356001600160a01b0381169081900361057a578160409160209352600f83522054604051908152f35b503461037f578060031936011261037f576020603954604051908152f35b503461037f578060031936011261037f576020604054604051908152f35b503461037f578060031936011261037f57602060405169021e19e0c9bab24000008152f35b503461037f5761069636612056565b9190815260376020526040812090815483101561037f5760206103b484846120d8565b503461037f57602036600319011261037f576040906004358152603c60205220805461052c6001830154926002810154906003810154600482015460058301549060068401549260ff600860078701549601541695604051998a998a61206c565b503461037f57602036600319011261037f5760043590600d5482101561037f5760206103b4836120ac565b503461037f578060031936011261037f576020600654604051908152f35b503461037f576040809161077636612056565b908252602f602052828220908252602052206001815491015482519182526020820152f35b503461037f5760ff60406020926107b136612056565b9082526034855282822090825284522054166040519015158152f35b503461037f57602036600319011261037f576004359060165482101561037f5760165482101561042f576020916016825282822001549060031b1c604051908152f35b503461037f578060031936011261037f5760206040516283d6008152f35b503461037f578060031936011261037f576020604254604051908152f35b503461037f5760ff604060209261086236612056565b9082526038855282822090825284522054166040519015158152f35b503461037f578060031936011261037f576020604854604051908152f35b503461037f576108ab36612056565b6108b69291926123e5565b6108be612477565b6108c66125f2565b6108ce612721565b828252601060205260408220546001600160a01b03166108ef33821461213d565b15610d675782151580610d5e575b80610d40575b80610d35575b6109129061217c565b828252604c60205260408220818352604a6020526040832090610940600160ff60048401541615151461226f565b600381018385528060205261095c60ff604087205416156122ac565b60038301549283159261096f84156121e1565b610994866001600485019361098b600286549701548710612222565b015411156122f8565b60018201809211610d21575583855260205260408420600160ff198254161790558484526010602052604084209360018060a01b03855416918215610ced57610cba5785815260116020526040812090806109f0858454612262565b8355610ca65750600b8101610a06848254612262565b90555490600b8501549060065f9601955b8654811015610c9857610a29816120ac565b90549060031b1c93885f52600e60205260405f20855f5260205260405f20906003820160ff815460081c16801590818092610c82575b15610acc575050805461ff001916610100179055610a93919085600a610a85828a612439565b04928360028201555561246a565b935f52600c60205260405f209081545f198101908111610ab857600192555b01610a17565b634e487b7160e01b5f52601160045260245ffd5b8091939598925090610c6d575b15610af75750506001916002610af19201549061246a565b93610ab2565b929592859082610c55575b5050610b115750600190610ab2565b91949650506001915095939501555b60018060a01b03600154166040516020810163a9059cbb60e01b815283602483015285604483015260448252608082019082821067ffffffffffffffff831117610c41576020925f92604052519082855af115610c36575f513d610c2d5750803b155b610c1b57507f6ac5dc27fbf1276a5db7faad992ea92a268d34b18f81922f747d9d3beb5f9c55938280610c12937f4d634c31300b97dad99b3af799178230163d88ad306370d063be9cd992d0be7f60806040518981525f602082015260096040820152426060820152a46040519384934292859094939260609260808301968352602083015260408201520152565b0390a160015f55005b635274afe760e01b5f5260045260245ffd5b60011415610b83565b6040513d5f823e3d90fd5b634e487b7160e01b5f52604160045260245ffd5b600a925090610c6391612439565b048510845f610b02565b50600a610c7a8783612439565b048411610ad9565b50600a610c8f898b612439565b04841015610a5f565b509294505050929092610b20565b634e487b7160e01b81526021600452602490fd5b60405162461bcd60e51b815260206004820152600b60248201526a16995c9bc8185b5bdd5b9d60aa1b6044820152606490fd5b60405162461bcd60e51b815260206004820152600c60248201526b24b73b30b634b2103ab9b2b960a11b6044820152606490fd5b634e487b7160e01b87526011600452602487fd5b506047548110610909565b50808252604a602052600160ff600860408520015416151514610903565b508015156108fd565b60405162461bcd60e51b815260206004820152600f60248201526e125b9d985b1a59081858d8dbdd5b9d608a1b6044820152606490fd5b503461037f57602036600319011261037f57600435600881101561057a576020915060270154604051908152f35b503461037f57604090610dde36612056565b908252603560205282822090825260205220805461052c6001830154926002810154906004600382015491015491604051958695869192608093969594919660a084019784526020840152604083015260608201520152565b503461037f57610e46366120ed565b929182526031602052604082209082526020526040812090815483101561037f5760206103b484846120d8565b503461037f57610e82366120ed565b929182526032602052604082209082526020526040812090815483101561037f5760206103b484846120d8565b503461037f576040602091610ec336612056565b908252600b845282822090825283522054604051908152f35b503461037f57602036600319011261037f5760406020916004358152601483522054604051908152f35b503461037f576020610f20610f1a36612056565b9061233c565b6040519015158152f35b503461037f578060031936011261037f576002546040516001600160a01b039091168152602090f35b503461037f578060031936011261037f576020600954604051908152f35b503461037f578060031936011261037f57602060405162093a808152f35b503461037f57610f9e36612056565b91908152601260205260408120805483101561057a578160209160059350815220910201805461052c6001830154926002810154906004600382015491015491604051958695869192608093969594919660a084019784526020840152604083015260608201520152565b503461037f578060031936011261037f57602060405163025143008152f35b503461037f57602036600319011261037f576040906004358152604360205220805461052c6001830154926002810154906003810154600482015460058301549060068401549260ff600860078701549601541695604051998a998a61206c565b503461037f5761109836612056565b9190815260156020526040812090815483101561037f5760206103b484846120d8565b503461037f578060031936011261037f576020604954604051908152f35b503461037f576040906110eb36612056565b908252600e60205282822090825260205220805461052c600183015491600360028501549401549060405194859460ff808560081c169416928693909594919260809360a0860197865260208601526040850152151560608401521515910152565b503461037f5761115c366120ed565b929182526013602052604082209082526020526040812090815483101561037f5760206103b484846120d8565b612107565b503461037f5761119d366120ed565b92918252603f602052604082209082526020526040812090815483101561037f5760206103b484846120d8565b503461037f576111d936612056565b91908152604d6020526040812090815483101561037f5760206103b484846120d8565b503461037f578060031936011261037f576020604754604051908152f35b503461037f57602036600319011261037f5760406101809160043581526011602052208054906001810154906002810154600382015460048301546005840154600685015490600786015492600887015494600988015496600b600a8a0154990154996040519b8c5260208c015260408b015260608a0152608089015260a088015260c087015260e0860152610100850152610120840152610140830152610160820152f35b503461037f57602036600319011261037f5760406020916004358152600a83522054604051908152f35b503461037f57602036600319011261037f576040906004358152604560205220805461052c60018301549260ff60046002830154920154169060405194859485926060929594919560808501968552602085015260408401521515910152565b503461037f578060031936011261037f5760206040516202a3008152f35b503461037f5761137736612056565b6113829291926123e5565b61138a612477565b6113926125f2565b61139a612721565b82825260106020526113b960018060a01b03604084205416331461213d565b8215158061172f575b80611711575b80611706575b6113d79061217c565b82825260456020526040822081835260436020526040832090611405600160ff60048401541615151461226f565b600381018385528060205261142160ff604087205416156122ac565b60038301549283159261143484156121e1565b611450866001600485019361098b600286549701548710612222565b60018201809211610d21575583855260205260408420600160ff198254161790558484526010602052604084209360018060a01b03855416918215610ced57610cba5785815260116020526040812090806114ac858454612262565b8355610ca65750600a81016114c2848254612262565b90555490600b8501549060065f9601955b86548110156116f8576114e5816120ac565b90549060031b1c93885f52600e60205260405f20855f5260205260405f20906003820160ff815460081c168015908180926116e2575b15611566575050805461ff001916610100179055611541919085600a610a85828a612439565b935f52600c60205260405f209081545f198101908111610ab857600192555b016114d3565b80919395989250906116cd575b15611591575050600191600261158b9201549061246a565b93611560565b9295928590826116b5575b50506115ab5750600190611560565b91949650506001915095939501555b60018060a01b03600154166040516020810163a9059cbb60e01b815283602483015285604483015260448252608082019082821067ffffffffffffffff831117610c41576020925f92604052519082855af115610c36575f513d6116ac5750803b155b610c1b57507f8211032682f8fd8be8ff252e0a106cdb6ad4b10427152b4d93c2bc9a1f11c3c2938280610c12937f4d634c31300b97dad99b3af799178230163d88ad306370d063be9cd992d0be7f60806040518981525f602082015260086040820152426060820152a46040519384934292859094939260609260808301968352602083015260408201520152565b6001141561161d565b600a9250906116c391612439565b048510845f61159c565b50600a6116da8783612439565b048411611573565b50600a6116ef898b612439565b0484101561151b565b5092945050509290926115ba565b5060405481106113ce565b508082526043602052600160ff6008604085200154161515146113c8565b508015156113c2565b503461037f57602036600319011261037f576004359060075482101561037f5760075482101561042f576020916007825282822001549060031b1c604051908152f35b612122565b503461037f57602036600319011261037f5760409060043581526010602052206101805260018060a01b03610180515416600261018051015461010052600361018051015461014052600461018051015460056101805101546006610180510154600761018051015460086101805101546009610180510154600a61018051015490600b61018051015492600c61018051015494600d61018051015496600e61018051015498600f6101805101549a60106101805101549c6011610180510154608052601261018051015460c052601361018051015461016052601461018051015461012052601561018051015460e05260405160a05260a0515261010051602060a051015261014051604060a0510152606060a0510152608060a051015260a08051015260c060a051015260e060a051015261010060a051015261012060a051015261014060a051015261016060a051015261018060a05101526101a060a05101526101c060a05101526101e060a051015260805161020060a051015260c05161022060a05101526101605161024060a05101526101205161026060a051015260e05161028060a05101526102a060a051f35b503461037f578060031936011261037f576020604051670de0b6b3a76400008152f35b503461037f578060031936011261037f576020604051620151808152f35b503461037f578060031936011261037f57602060405160028152f35b503461037f578060031936011261037f576020603b54604051908152f35b503461037f578060031936011261037f576001546040516001600160a01b039091168152602090f35b503461037f57602036600319011261037f576004359060445482101561037f5760445482101561042f576020916044825282822001549060031b1c604051908152f35b503461037f578060031936011261037f57602060405162278d008152f35b503461037f57602036600319011261037f576004359060175482101561037f5760175482101561042f576020916017825282822001549060031b1c604051908152f35b503461037f57602036600319011261037f57600435600781101561057a576020915060180154604051908152f35b34611ea657611ab836612056565b611ac06123e5565b611ac8612477565b611ad06125f2565b611ad8612721565b815f526010602052611af760018060a01b0360405f205416331461213d565b81151580611e9d575b80611e7f575b80611e74575b611b159061217c565b805f52603e60205260405f20825f5260205260405f2090805f52603c602052600360405f2092018054600160ff8260081c161515149081611e68575b5015611e2457600383015490811593611b6a85156121e1565b60048101611b7f600282549301548310612222565b60018201809211610ab85755600160ff19825416179055835f52601060205260405f209260018060a01b03845416908115610ced57610cba57845f52601160205260405f20611bcf838254612262565b815560098101611be0848254612262565b90555490600b8501549060065f9601955b8654811015611e1657611c03816120ac565b90549060031b1c93885f52600e60205260405f20855f5260205260405f20906003820160ff815460081c16801590818092611e00575b15611c84575050805461ff001916610100179055611c5f919085600a610a85828a612439565b935f52600c60205260405f209081545f198101908111610ab857600192555b01611bf1565b8091939598925090611deb575b15611caf5750506001916002611ca99201549061246a565b93611c7e565b929592859082611dd3575b5050611cc95750600190611c7e565b91949650506001915095939501555b60018060a01b03600154166040516020810163a9059cbb60e01b815283602483015285604483015260448252608082019082821067ffffffffffffffff831117610c41576020925f92604052519082855af115610c36575f513d611dca5750803b155b610c1b57507f96ee4f374d0394c5383b347dc3b7ec04a1eceddcd2e25521157bce21c42b24d5938280610c12937f4d634c31300b97dad99b3af799178230163d88ad306370d063be9cd992d0be7f60806040518981525f602082015260076040820152426060820152a46040519384934292859094939260609260808301968352602083015260408201520152565b60011415611d3b565b600a925090611de191612439565b048510848b611cba565b50600a611df88783612439565b048411611c91565b50600a611e0d898b612439565b04841015611c39565b509294505050929092611cd8565b606460405162461bcd60e51b815260206004820152602060248201527f4e6f74207175616c6966696564206f7220616c726561647920636c61696d65646044820152fd5b60ff9150161585611b51565b506039548110611b0c565b50805f52603c602052600160ff600860405f20015416151514611b06565b50801515611b00565b5f80fd5b34611ea657611eb836612056565b905f52603360205260405f208054821015611ea6576020916103b4916120d8565b34611ea657611ee7366120ed565b915f52603660205260405f20905f5260205260405f208054821015611ea6576020916103b4916120d8565b34611ea657611f2036612056565b905f52603d60205260405f208054821015611ea6576020916103b4916120d8565b34611ea6576020366003190112611ea6576004355f52600c602052602060405f2054604051908152f35b34611ea6576020366003190112611ea6576004355f52604a60205260405f20805461052c6001830154926002810154906003810154600482015460058301549060068401549260ff600860078701549601541695604051998a998a61206c565b34611ea6575f366003190112611ea65760206040516127108152f35b34611ea657611ff536612056565b905f52603e60205260405f20905f526020528061052c60405f208054600182015491600360028201549101549260ff808560081c169416928693909594919260809360a0860197865260208601526040850152151560608401521515910152565b6040906003190112611ea6576004359060243590565b979491926101009794919a9996936101208a019b8a5260208a015260408901526060880152608087015260a086015260c085015260e08401521515910152565b600d548110156120c457600d5f5260205f2001905f90565b634e487b7160e01b5f52603260045260245ffd5b80548210156120c4575f5260205f2001905f90565b6060906003190112611ea657600435906024359060443590565b34611ea6575f366003190112611ea6576020604051600a8152f35b34611ea6575f366003190112611ea6576020604051600f8152f35b1561214457565b60405162461bcd60e51b815260206004820152601060248201526f139bdd081e5bdd5c881858d8dbdd5b9d60821b6044820152606490fd5b1561218357565b60405162461bcd60e51b815260206004820152603060248201527f496e76616c696420757365724964206f7220726f756e644964206f7220726f7560448201526f1b99081bdc881b9bdd0818db1bdcd95960821b6064820152608490fd5b156121e857565b60405162461bcd60e51b81526020600482015260126024820152714e6f2072657761726420746f20636c61696d60701b6044820152606490fd5b1561222957565b60405162461bcd60e51b8152602060048201526011602482015270105b1b081d5cd95c9cc818db185a5b5959607a1b6044820152606490fd5b91908201809211610ab857565b1561227657565b60405162461bcd60e51b815260206004820152600e60248201526d02737ba1038bab0b634b334b2b2160951b6044820152606490fd5b156122b357565b60405162461bcd60e51b815260206004820152601e60248201527f416c726561647920636c61696d656420666f72207468697320726f756e6400006044820152606490fd5b156122ff57565b60405162461bcd60e51b81526020600482015260156024820152744e6f7420656c696769626c6520746f20636c61696d60581b6044820152606490fd5b5f52604560205260405f20815f52604360205260405f209060ff600883015416159283156123d8575b83156123c8575b83156123b9575b831561239e575b50508115612391575b5061238d57600190565b5f90565b600391500154155f612383565b60039293505f520160205260ff60405f205416905f8061237a565b80935060018201541192612373565b600482015460ff1615935061236c565b6040548110159350612365565b60025f54146123f45760025f55565b60405162461bcd60e51b815260206004820152601f60248201527f5265656e7472616e637947756172643a207265656e7472616e742063616c6c006044820152606490fd5b81810292918115918404141715610ab857565b8115612456570490565b634e487b7160e01b5f52601260045260245ffd5b91908203918211610ab857565b603a5462093a808101809111610ab85742101561249057565b603954805f52603c60205260405f20600881019182549260ff84166125ec575f828152603d60205260409020549283156125df57603b54916124d2858461244c565b683635c9adc5dea000008111156125d95750683635c9adc5dea00000915b6124fa8684612439565b9384808211156125d15761250d9161246a565b915b858255836003830155866002830155603b546001830155826007830155603a549162093a808301809311610ab85760066001910198838a5560ff1916179055603a556001840192838511610ab8577fca8a78d1841a8dafbb8ff53c869b3fa9a69abd051022178024f84b680ffd2e3c966125cc9460395582603b556125948383612262565b9054936040519788978893909796959260c0959260e08601998652602086015260408501526060840152608083015260a08201520152565b0390a1565b50505f61250d565b916124f0565b90603b545f925f9261250f565b50505050565b60415462278d008101809111610ab85742101561260b57565b604054805f52604360205260405f20600881019182549260ff84166125ec576044549283156127145760425491612642858461244c565b69021e19e0c9bab240000081111561270e575069021e19e0c9bab2400000915b61266c8684612439565b9384808211156127065761267f9161246a565b915b85825583600383015586600283015560425460018301558260078301556041549162278d008301809311610ab85760066001910198838a5560ff19161790556041556001840192838511610ab8577f1b674071adfa65db18518e4868ae7d5f54dd365c69e0babe9b704cbade8fe4bb966125cc94604055826042556125948383612262565b50505f61267f565b91612662565b906042545f925f92612681565b60485462278d008101809111610ab857421061281757604754805f52604a60205260405f20600881019182549260ff84166125ec57604b5492831561280a576049549161276e858461244c565b9161278361277c8785612439565b809561246a565b915b85825583600383015586600283015560495460018301558260078301556048549162278d008301809311610ab85760066001910198838a5560ff19161790556048556001840192838511610ab8577f3e2269a22c7571b51c53565ece51da09613519b306c6dde588beea1f5fd3cfd3966125cc94604755826049556125948383612262565b906049545f925f92612785565b56fea2646970667358221220d6a65761e6cbc1bbf8414bd460829e7ba22bc32505921824e3840ab8e6733b4c64736f6c634300081e0033",
			"opcodes": "PUSH1 0x80 PUSH1 0x40 MSTORE CALLVALUE PUSH2 0x52B JUMPI PUSH1 0x1 PUSH0 SSTORE PUSH1 0x40 MLOAD PUSH2 0x1E0 DUP2 ADD PUSH1 0x1 PUSH1 0x1 PUSH1 0x40 SHL SUB DUP2 GT DUP3 DUP3 LT OR PUSH2 0x517 JUMPI PUSH1 0x40 MSTORE PUSH8 0xD02AB486CEDC0000 DUP2 MSTORE PUSH9 0x15AF1D78B58C40000 PUSH1 0x20 DUP3 ADD MSTORE PUSH9 0x2B5E3AF16B1880000 PUSH1 0x40 DUP3 ADD MSTORE PUSH9 0x56BC75E2D63100000 PUSH1 0x60 DUP3 ADD MSTORE PUSH9 0xAD78EBC5AC6200000 PUSH1 0x80 DUP3 ADD MSTORE PUSH9 0x15AF1D78B58C400000 PUSH1 0xA0 DUP3 ADD MSTORE PUSH9 0x2B5E3AF16B18800000 PUSH1 0xC0 DUP3 ADD MSTORE PUSH9 0x56BC75E2D631000000 PUSH1 0xE0 DUP3 ADD MSTORE PUSH9 0xAD78EBC5AC62000000 PUSH2 0x100 DUP3 ADD MSTORE PUSH10 0x15AF1D78B58C4000000 PUSH2 0x120 DUP3 ADD MSTORE PUSH10 0x2B5E3AF16B188000000 PUSH2 0x140 DUP3 ADD MSTORE PUSH10 0x56BC75E2D6310000000 PUSH2 0x160 DUP3 ADD MSTORE PUSH10 0xAD78EBC5AC620000000 PUSH2 0x180 DUP3 ADD MSTORE PUSH10 0x15AF1D78B58C40000000 PUSH2 0x1A0 DUP3 ADD MSTORE PUSH10 0x2B5E3AF16B1880000000 PUSH2 0x1C0 DUP3 ADD MSTORE PUSH1 0xD SLOAD PUSH1 0xF PUSH1 0xD SSTORE DUP1 PUSH1 0xF LT PUSH2 0x4C1 JUMPI JUMPDEST POP PUSH1 0xD PUSH0 MSTORE PUSH1 0x20 PUSH0 KECCAK256 SWAP1 PUSH0 JUMPDEST PUSH1 0xF DUP2 LT PUSH2 0x4A4 JUMPI PUSH2 0x141 PUSH2 0x52F JUMP JUMPDEST PUSH9 0x410D586A20A4C0000 DUP2 MSTORE PUSH9 0x1043561A8829300000 PUSH1 0x20 DUP3 ADD MSTORE PUSH9 0x410D586A20A4C00000 PUSH1 0x40 DUP3 ADD MSTORE PUSH10 0x1043561A88293000000 PUSH1 0x60 DUP3 ADD MSTORE PUSH10 0x410D586A20A4C000000 PUSH1 0x80 DUP3 ADD MSTORE PUSH10 0x1043561A882930000000 PUSH1 0xA0 DUP3 ADD MSTORE PUSH10 0x410D586A20A4C0000000 PUSH1 0xC0 DUP3 ADD MSTORE PUSH1 0x16 SLOAD PUSH1 0x7 PUSH1 0x16 SSTORE DUP1 PUSH1 0x7 LT PUSH2 0x44E JUMPI JUMPDEST POP PUSH1 0x16 PUSH0 MSTORE PUSH1 0x20 PUSH0 KECCAK256 SWAP1 PUSH0 JUMPDEST PUSH1 0x7 DUP2 LT PUSH2 0x431 JUMPI PUSH2 0x1D8 PUSH2 0x54E JUMP JUMPDEST PUSH9 0x56BC75E2D63100000 DUP2 MSTORE PUSH9 0xAD78EBC5AC6200000 PUSH1 0x20 DUP3 ADD MSTORE PUSH9 0x15AF1D78B58C400000 PUSH1 0x40 DUP3 ADD MSTORE PUSH9 0x2B5E3AF16B18800000 PUSH1 0x60 DUP3 ADD MSTORE PUSH9 0x56BC75E2D631000000 PUSH1 0x80 DUP3 ADD MSTORE PUSH9 0xAD78EBC5AC62000000 PUSH1 0xA0 DUP3 ADD MSTORE PUSH10 0x15AF1D78B58C4000000 PUSH1 0xC0 DUP3 ADD MSTORE PUSH10 0x2B5E3AF16B188000000 PUSH1 0xE0 DUP3 ADD MSTORE PUSH1 0x17 SLOAD PUSH1 0x8 PUSH1 0x17 SSTORE DUP1 PUSH1 0x8 LT PUSH2 0x3DB JUMPI JUMPDEST POP PUSH1 0x17 PUSH0 MSTORE PUSH1 0x20 PUSH0 KECCAK256 SWAP1 PUSH0 JUMPDEST PUSH1 0x8 DUP2 LT PUSH2 0x3BE JUMPI PUSH2 0x27C PUSH2 0x52F JUMP JUMPDEST PUSH1 0x3 DUP2 MSTORE PUSH1 0x5 PUSH1 0x20 DUP3 ADD MSTORE PUSH1 0x7 PUSH1 0x40 DUP3 ADD MSTORE PUSH1 0x9 PUSH1 0x60 DUP3 ADD MSTORE PUSH1 0xB PUSH1 0x80 DUP3 ADD MSTORE PUSH1 0xD PUSH1 0xA0 DUP3 ADD MSTORE PUSH1 0xF PUSH1 0xC0 DUP3 ADD MSTORE PUSH0 JUMPDEST PUSH1 0x7 DUP2 LT PUSH2 0x3A6 JUMPI PUSH2 0x2BC PUSH2 0x54E JUMP JUMPDEST PUSH1 0x4 DUP2 MSTORE PUSH1 0x5 PUSH1 0x20 DUP3 ADD MSTORE PUSH1 0x6 PUSH1 0x40 DUP3 ADD MSTORE PUSH1 0x7 PUSH1 0x60 DUP3 ADD MSTORE PUSH1 0x8 PUSH1 0x80 DUP3 ADD MSTORE PUSH1 0x9 PUSH1 0xA0 DUP3 ADD MSTORE PUSH1 0xA PUSH1 0xC0 DUP3 ADD MSTORE PUSH1 0xB PUSH1 0xE0 DUP3 ADD MSTORE PUSH0 JUMPDEST PUSH1 0x8 DUP2 LT PUSH2 0x38E JUMPI PUSH2 0x303 PUSH2 0x54E JUMP JUMPDEST PUSH0 DUP2 MSTORE PUSH1 0x1 PUSH1 0x20 DUP3 ADD MSTORE PUSH1 0x1 PUSH1 0x40 DUP3 ADD MSTORE PUSH1 0x1 PUSH1 0x60 DUP3 ADD MSTORE PUSH1 0x1 PUSH1 0x80 DUP3 ADD MSTORE PUSH1 0x1 PUSH1 0xA0 DUP3 ADD MSTORE PUSH1 0x1 PUSH1 0xC0 DUP3 ADD MSTORE PUSH1 0x1 PUSH1 0xE0 DUP3 ADD MSTORE PUSH0 JUMPDEST PUSH1 0x8 DUP2 LT PUSH2 0x376 JUMPI PUSH0 PUSH1 0x39 SSTORE PUSH0 PUSH1 0x3A SSTORE PUSH0 PUSH1 0x3B SSTORE PUSH1 0x1 PUSH1 0x40 SSTORE PUSH0 PUSH1 0x41 SSTORE PUSH0 PUSH1 0x42 SSTORE PUSH1 0x1 PUSH1 0x47 SSTORE PUSH0 PUSH1 0x48 SSTORE PUSH0 PUSH1 0x49 SSTORE PUSH1 0x40 MLOAD PUSH2 0x284F SWAP1 DUP2 PUSH2 0x585 DUP3 CODECOPY RETURN JUMPDEST PUSH1 0x1 SWAP1 PUSH1 0x20 PUSH1 0xFF DUP5 MLOAD AND SWAP4 ADD SWAP3 DUP2 PUSH1 0x27 ADD SSTORE ADD PUSH2 0x339 JUMP JUMPDEST PUSH1 0x1 SWAP1 PUSH1 0x20 PUSH1 0xFF DUP5 MLOAD AND SWAP4 ADD SWAP3 DUP2 PUSH1 0x1F ADD SSTORE ADD PUSH2 0x2F3 JUMP JUMPDEST PUSH1 0x1 SWAP1 PUSH1 0x20 PUSH1 0xFF DUP5 MLOAD AND SWAP4 ADD SWAP3 DUP2 PUSH1 0x18 ADD SSTORE ADD PUSH2 0x2AC JUMP JUMPDEST DUP2 MLOAD PUSH1 0x1 PUSH1 0x1 PUSH1 0x50 SHL SUB AND DUP2 DUP5 ADD SSTORE PUSH1 0x20 SWAP1 SWAP2 ADD SWAP1 PUSH1 0x1 ADD PUSH2 0x26C JUMP JUMPDEST PUSH1 0x17 PUSH0 MSTORE PUSH2 0x42B SWAP1 PUSH32 0xC624B66CC0138B8FABC209247F72D758E1CF3343756D543BADBF24212BED8C15 ADD PUSH32 0xC624B66CC0138B8FABC209247F72D758E1CF3343756D543BADBF24212BED8C1D PUSH2 0x56E JUMP JUMPDEST DUP2 PUSH2 0x260 JUMP JUMPDEST DUP2 MLOAD PUSH1 0x1 PUSH1 0x1 PUSH1 0x50 SHL SUB AND DUP2 DUP5 ADD SSTORE PUSH1 0x20 SWAP1 SWAP2 ADD SWAP1 PUSH1 0x1 ADD PUSH2 0x1C8 JUMP JUMPDEST PUSH1 0x16 PUSH0 MSTORE PUSH2 0x49E SWAP1 PUSH32 0xD833147D7DC355BA459FC788F669E58CFAF9DC25DDCD0702E87D69C7B5124289 ADD PUSH32 0xD833147D7DC355BA459FC788F669E58CFAF9DC25DDCD0702E87D69C7B5124290 PUSH2 0x56E JUMP JUMPDEST DUP2 PUSH2 0x1BC JUMP JUMPDEST DUP2 MLOAD PUSH1 0x1 PUSH1 0x1 PUSH1 0x50 SHL SUB AND DUP2 DUP5 ADD SSTORE PUSH1 0x20 SWAP1 SWAP2 ADD SWAP1 PUSH1 0x1 ADD PUSH2 0x131 JUMP JUMPDEST PUSH1 0xD PUSH0 MSTORE PUSH2 0x511 SWAP1 PUSH32 0xD7B6990105719101DABEB77144F2A3385C8033ACD3AF97E9423A695E81AD1EB5 ADD PUSH32 0xD7B6990105719101DABEB77144F2A3385C8033ACD3AF97E9423A695E81AD1EC4 PUSH2 0x56E JUMP JUMPDEST PUSH0 PUSH2 0x125 JUMP JUMPDEST PUSH4 0x4E487B71 PUSH1 0xE0 SHL PUSH0 MSTORE PUSH1 0x41 PUSH1 0x4 MSTORE PUSH1 0x24 PUSH0 REVERT JUMPDEST PUSH0 DUP1 REVERT JUMPDEST PUSH1 0x40 MLOAD SWAP1 PUSH1 0xE0 DUP3 ADD PUSH1 0x1 PUSH1 0x1 PUSH1 0x40 SHL SUB DUP2 GT DUP4 DUP3 LT OR PUSH2 0x517 JUMPI PUSH1 0x40 MSTORE JUMP JUMPDEST PUSH1 0x40 MLOAD SWAP1 PUSH2 0x100 DUP3 ADD PUSH1 0x1 PUSH1 0x1 PUSH1 0x40 SHL SUB DUP2 GT DUP4 DUP3 LT OR PUSH2 0x517 JUMPI PUSH1 0x40 MSTORE JUMP JUMPDEST DUP2 DUP2 LT PUSH2 0x579 JUMPI POP POP JUMP JUMPDEST PUSH0 DUP2 SSTORE PUSH1 0x1 ADD PUSH2 0x56E JUMP INVALID PUSH2 0x1A0 DUP1 PUSH1 0x40 MSTORE PUSH1 0x4 CALLDATASIZE LT ISZERO PUSH2 0x13 JUMPI PUSH0 DUP1 REVERT JUMPDEST PUSH0 SWAP1 PUSH0 CALLDATALOAD PUSH1 0xE0 SHR SWAP1 DUP2 PUSH3 0x54815D EQ PUSH2 0x1FE7 JUMPI POP DUP1 PUSH4 0x1C234A8 EQ PUSH2 0x1FCB JUMPI DUP1 PUSH4 0x56B4D1F EQ PUSH2 0x1F6B JUMPI DUP1 PUSH4 0x676D0D6 EQ PUSH2 0x1F41 JUMPI DUP1 PUSH4 0xA5C5D69 EQ PUSH2 0x1F12 JUMPI DUP1 PUSH4 0xEF81B74 EQ PUSH2 0x1ED9 JUMPI DUP1 PUSH4 0xF2B7CC9 EQ PUSH2 0x1EAA JUMPI DUP1 PUSH4 0x16298056 EQ PUSH2 0x1AAA JUMPI DUP1 PUSH4 0x2132D204 EQ PUSH2 0x1A7C JUMPI DUP1 PUSH4 0x2350268F EQ PUSH2 0x1A39 JUMPI DUP1 PUSH4 0x23FD338E EQ PUSH2 0x1189 JUMPI DUP1 PUSH4 0x2A891534 EQ PUSH2 0x1A1B JUMPI DUP1 PUSH4 0x2AE0EE0D EQ PUSH2 0x177B JUMPI DUP1 PUSH4 0x2D66014F EQ PUSH2 0x19D8 JUMPI DUP1 PUSH4 0x2F48AB7D EQ PUSH2 0x19AF JUMPI DUP1 PUSH4 0x3080B5BC EQ PUSH2 0x1991 JUMPI DUP1 PUSH4 0x31BB6A30 EQ PUSH2 0x1975 JUMPI DUP1 PUSH4 0x32BC298C EQ PUSH2 0x1957 JUMPI DUP1 PUSH4 0x32FCD966 EQ PUSH2 0x1934 JUMPI DUP1 PUSH4 0x365B98B2 EQ PUSH2 0x1780 JUMPI DUP1 PUSH4 0x375B43B4 EQ PUSH2 0x177B JUMPI DUP1 PUSH4 0x39AB3603 EQ PUSH2 0x1738 JUMPI DUP1 PUSH4 0x39F2E64A EQ PUSH2 0x1368 JUMPI DUP1 PUSH4 0x3A5084B3 EQ PUSH2 0x134A JUMPI DUP1 PUSH4 0x4036436C EQ PUSH2 0x12EA JUMPI DUP1 PUSH4 0x45CB537C EQ PUSH2 0x12C0 JUMPI DUP1 PUSH4 0x46B9DECE EQ PUSH2 0x121A JUMPI DUP1 PUSH4 0x4B8CBF9B EQ PUSH2 0x11FC JUMPI DUP1 PUSH4 0x4D12AE0F EQ PUSH2 0x11CA JUMPI DUP1 PUSH4 0x4D4CC5CA EQ PUSH2 0x118E JUMPI DUP1 PUSH4 0x58C7D352 EQ PUSH2 0x1189 JUMPI DUP1 PUSH4 0x5AABF7F1 EQ PUSH2 0x114D JUMPI DUP1 PUSH4 0x5B58CE6C EQ PUSH2 0x10D9 JUMPI DUP1 PUSH4 0x5B62D1D5 EQ PUSH2 0x10BB JUMPI DUP1 PUSH4 0x5EC64A44 EQ PUSH2 0x1089 JUMPI DUP1 PUSH4 0x6A424782 EQ PUSH2 0x1028 JUMPI DUP1 PUSH4 0x705FEE2D EQ PUSH2 0x1009 JUMPI DUP1 PUSH4 0x70C8D770 EQ PUSH2 0xF8F JUMPI DUP1 PUSH4 0x76F5F700 EQ PUSH2 0xF71 JUMPI DUP1 PUSH4 0x78F6AD6D EQ PUSH2 0xF53 JUMPI DUP1 PUSH4 0x7CDC65F2 EQ PUSH2 0xF2A JUMPI DUP1 PUSH4 0x7D846E38 EQ PUSH2 0xF06 JUMPI DUP1 PUSH4 0x88AFBE3E EQ PUSH2 0xEDC JUMPI DUP1 PUSH4 0x89043ECE EQ PUSH2 0xEAF JUMPI DUP1 PUSH4 0x8D58644C EQ PUSH2 0xE73 JUMPI DUP1 PUSH4 0x8F030ECE EQ PUSH2 0xE37 JUMPI DUP1 PUSH4 0x907C84A7 EQ PUSH2 0xDCC JUMPI DUP1 PUSH4 0x956A3228 EQ PUSH2 0xD9E JUMPI DUP1 PUSH4 0x97358004 EQ PUSH2 0x89C JUMPI DUP1 PUSH4 0x9B40AB97 EQ PUSH2 0x87E JUMPI DUP1 PUSH4 0x9C383486 EQ PUSH2 0x84C JUMPI DUP1 PUSH4 0xA59D17D1 EQ PUSH2 0x82E JUMPI DUP1 PUSH4 0xA5E52B99 EQ PUSH2 0x810 JUMPI DUP1 PUSH4 0xAE4708DC EQ PUSH2 0x7CD JUMPI DUP1 PUSH4 0xBD1AAE40 EQ PUSH2 0x79B JUMPI DUP1 PUSH4 0xBF724672 EQ PUSH2 0x763 JUMPI DUP1 PUSH4 0xBFF1F9E1 EQ PUSH2 0x745 JUMPI DUP1 PUSH4 0xC216212A EQ PUSH2 0x71A JUMPI DUP1 PUSH4 0xC4EB42A5 EQ PUSH2 0x6B9 JUMPI DUP1 PUSH4 0xC7BB62E8 EQ PUSH2 0x687 JUMPI DUP1 PUSH4 0xC8DF2908 EQ PUSH2 0x662 JUMPI DUP1 PUSH4 0xC9ED0708 EQ PUSH2 0x644 JUMPI DUP1 PUSH4 0xCA8E9121 EQ PUSH2 0x626 JUMPI DUP1 PUSH4 0xCB0E0D7D EQ PUSH2 0x5E9 JUMPI DUP1 PUSH4 0xCE79C2C3 EQ PUSH2 0x57E JUMPI DUP1 PUSH4 0xD0A2FD79 EQ PUSH2 0x54C JUMPI DUP1 PUSH4 0xD2F0490D EQ PUSH2 0x530 JUMPI DUP1 PUSH4 0xDB27CC71 EQ PUSH2 0x4CC JUMPI DUP1 PUSH4 0xE898FC38 EQ PUSH2 0x4AE JUMPI DUP1 PUSH4 0xE9E34A16 EQ PUSH2 0x485 JUMPI DUP1 PUSH4 0xEBE0FF15 EQ PUSH2 0x461 JUMPI DUP1 PUSH4 0xEC597E6F EQ PUSH2 0x443 JUMPI DUP1 PUSH4 0xF5748C4F EQ PUSH2 0x3EC JUMPI DUP1 PUSH4 0xF5D74D93 EQ PUSH2 0x3C3 JUMPI DUP1 PUSH4 0xF7A24806 EQ PUSH2 0x382 JUMPI PUSH4 0xFDDC806F EQ PUSH2 0x362 JUMPI PUSH0 DUP1 REVERT JUMPDEST CALLVALUE PUSH2 0x37F JUMPI DUP1 PUSH1 0x3 NOT CALLDATASIZE ADD SLT PUSH2 0x37F JUMPI PUSH1 0x20 PUSH1 0x3A SLOAD PUSH1 0x40 MLOAD SWAP1 DUP2 MSTORE RETURN JUMPDEST DUP1 REVERT JUMPDEST POP CALLVALUE PUSH2 0x37F JUMPI PUSH2 0x391 CALLDATASIZE PUSH2 0x2056 JUMP JUMPDEST SWAP2 SWAP1 DUP2 MSTORE PUSH1 0x46 PUSH1 0x20 MSTORE PUSH1 0x40 DUP2 KECCAK256 SWAP1 DUP2 SLOAD DUP4 LT ISZERO PUSH2 0x37F JUMPI PUSH1 0x20 PUSH2 0x3B4 DUP5 DUP5 PUSH2 0x20D8 JUMP JUMPDEST SWAP1 SLOAD SWAP1 PUSH1 0x3 SHL SHR PUSH1 0x40 MLOAD SWAP1 DUP2 MSTORE RETURN JUMPDEST POP CALLVALUE PUSH2 0x37F JUMPI DUP1 PUSH1 0x3 NOT CALLDATASIZE ADD SLT PUSH2 0x37F JUMPI PUSH1 0x4 SLOAD PUSH1 0x40 MLOAD PUSH1 0x1 PUSH1 0x1 PUSH1 0xA0 SHL SUB SWAP1 SWAP2 AND DUP2 MSTORE PUSH1 0x20 SWAP1 RETURN JUMPDEST POP CALLVALUE PUSH2 0x37F JUMPI PUSH1 0x20 CALLDATASIZE PUSH1 0x3 NOT ADD SLT PUSH2 0x37F JUMPI PUSH1 0x4 CALLDATALOAD SWAP1 PUSH1 0x4B SLOAD DUP3 LT ISZERO PUSH2 0x37F JUMPI PUSH1 0x4B SLOAD DUP3 LT ISZERO PUSH2 0x42F JUMPI PUSH1 0x20 SWAP2 PUSH1 0x4B DUP3 MSTORE DUP3 DUP3 KECCAK256 ADD SLOAD SWAP1 PUSH1 0x3 SHL SHR PUSH1 0x40 MLOAD SWAP1 DUP2 MSTORE RETURN JUMPDEST PUSH4 0x4E487B71 PUSH1 0xE0 SHL DUP2 MSTORE PUSH1 0x32 PUSH1 0x4 MSTORE PUSH1 0x24 SWAP1 REVERT JUMPDEST POP CALLVALUE PUSH2 0x37F JUMPI DUP1 PUSH1 0x3 NOT CALLDATASIZE ADD SLT PUSH2 0x37F JUMPI PUSH1 0x20 PUSH1 0x5 SLOAD PUSH1 0x40 MLOAD SWAP1 DUP2 MSTORE RETURN JUMPDEST POP CALLVALUE PUSH2 0x37F JUMPI DUP1 PUSH1 0x3 NOT CALLDATASIZE ADD SLT PUSH2 0x37F JUMPI PUSH1 0x20 PUSH1 0x40 MLOAD PUSH9 0x3635C9ADC5DEA00000 DUP2 MSTORE RETURN JUMPDEST POP CALLVALUE PUSH2 0x37F JUMPI DUP1 PUSH1 0x3 NOT CALLDATASIZE ADD SLT PUSH2 0x37F JUMPI PUSH1 0x3 SLOAD PUSH1 0x40 MLOAD PUSH1 0x1 PUSH1 0x1 PUSH1 0xA0 SHL SUB SWAP1 SWAP2 AND DUP2 MSTORE PUSH1 0x20 SWAP1 RETURN JUMPDEST POP CALLVALUE PUSH2 0x37F JUMPI DUP1 PUSH1 0x3 NOT CALLDATASIZE ADD SLT PUSH2 0x37F JUMPI PUSH1 0x20 PUSH1 0x41 SLOAD PUSH1 0x40 MLOAD SWAP1 DUP2 MSTORE RETURN JUMPDEST POP CALLVALUE PUSH2 0x37F JUMPI PUSH1 0x20 CALLDATASIZE PUSH1 0x3 NOT ADD SLT PUSH2 0x37F JUMPI PUSH1 0x40 SWAP1 PUSH1 0x4 CALLDATALOAD DUP2 MSTORE PUSH1 0x4C PUSH1 0x20 MSTORE KECCAK256 DUP1 SLOAD PUSH2 0x52C PUSH1 0x1 DUP4 ADD SLOAD SWAP3 PUSH1 0xFF PUSH1 0x4 PUSH1 0x2 DUP4 ADD SLOAD SWAP3 ADD SLOAD AND SWAP1 PUSH1 0x40 MLOAD SWAP5 DUP6 SWAP5 DUP6 SWAP3 PUSH1 0x60 SWAP3 SWAP6 SWAP5 SWAP2 SWAP6 PUSH1 0x80 DUP6 ADD SWAP7 DUP6 MSTORE PUSH1 0x20 DUP6 ADD MSTORE PUSH1 0x40 DUP5 ADD MSTORE ISZERO ISZERO SWAP2 ADD MSTORE JUMP JUMPDEST SUB SWAP1 RETURN JUMPDEST POP CALLVALUE PUSH2 0x37F JUMPI DUP1 PUSH1 0x3 NOT CALLDATASIZE ADD SLT PUSH2 0x37F JUMPI PUSH1 0x20 PUSH1 0x40 MLOAD PUSH1 0x5 DUP2 MSTORE RETURN JUMPDEST POP CALLVALUE PUSH2 0x37F JUMPI PUSH1 0x20 CALLDATASIZE PUSH1 0x3 NOT ADD SLT PUSH2 0x37F JUMPI PUSH1 0x4 CALLDATALOAD PUSH1 0x8 DUP2 LT ISZERO PUSH2 0x57A JUMPI PUSH1 0x20 SWAP2 POP PUSH1 0x1F ADD SLOAD PUSH1 0x40 MLOAD SWAP1 DUP2 MSTORE RETURN JUMPDEST POP DUP1 REVERT JUMPDEST POP CALLVALUE PUSH2 0x37F JUMPI PUSH1 0x40 SWAP1 PUSH2 0x590 CALLDATASIZE PUSH2 0x2056 JUMP JUMPDEST SWAP1 DUP3 MSTORE PUSH1 0x30 PUSH1 0x20 MSTORE DUP3 DUP3 KECCAK256 SWAP1 DUP3 MSTORE PUSH1 0x20 MSTORE KECCAK256 DUP1 SLOAD PUSH2 0x52C PUSH1 0x1 DUP4 ADD SLOAD SWAP3 PUSH1 0x2 DUP2 ADD SLOAD SWAP1 PUSH1 0x4 PUSH1 0x3 DUP3 ADD SLOAD SWAP2 ADD SLOAD SWAP2 PUSH1 0x40 MLOAD SWAP6 DUP7 SWAP6 DUP7 SWAP2 SWAP3 PUSH1 0x80 SWAP4 SWAP7 SWAP6 SWAP5 SWAP2 SWAP7 PUSH1 0xA0 DUP5 ADD SWAP8 DUP5 MSTORE PUSH1 0x20 DUP5 ADD MSTORE PUSH1 0x40 DUP4 ADD MSTORE PUSH1 0x60 DUP3 ADD MSTORE ADD MSTORE JUMP JUMPDEST POP CALLVALUE PUSH2 0x37F JUMPI PUSH1 0x20 CALLDATASIZE PUSH1 0x3 NOT ADD SLT PUSH2 0x37F JUMPI PUSH1 0x4 CALLDATALOAD PUSH1 0x1 PUSH1 0x1 PUSH1 0xA0 SHL SUB DUP2 AND SWAP1 DUP2 SWAP1 SUB PUSH2 0x57A JUMPI DUP2 PUSH1 0x40 SWAP2 PUSH1 0x20 SWAP4 MSTORE PUSH1 0xF DUP4 MSTORE KECCAK256 SLOAD PUSH1 0x40 MLOAD SWAP1 DUP2 MSTORE RETURN JUMPDEST POP CALLVALUE PUSH2 0x37F JUMPI DUP1 PUSH1 0x3 NOT CALLDATASIZE ADD SLT PUSH2 0x37F JUMPI PUSH1 0x20 PUSH1 0x39 SLOAD PUSH1 0x40 MLOAD SWAP1 DUP2 MSTORE RETURN JUMPDEST POP CALLVALUE PUSH2 0x37F JUMPI DUP1 PUSH1 0x3 NOT CALLDATASIZE ADD SLT PUSH2 0x37F JUMPI PUSH1 0x20 PUSH1 0x40 SLOAD PUSH1 0x40 MLOAD SWAP1 DUP2 MSTORE RETURN JUMPDEST POP CALLVALUE PUSH2 0x37F JUMPI DUP1 PUSH1 0x3 NOT CALLDATASIZE ADD SLT PUSH2 0x37F JUMPI PUSH1 0x20 PUSH1 0x40 MLOAD PUSH10 0x21E19E0C9BAB2400000 DUP2 MSTORE RETURN JUMPDEST POP CALLVALUE PUSH2 0x37F JUMPI PUSH2 0x696 CALLDATASIZE PUSH2 0x2056 JUMP JUMPDEST SWAP2 SWAP1 DUP2 MSTORE PUSH1 0x37 PUSH1 0x20 MSTORE PUSH1 0x40 DUP2 KECCAK256 SWAP1 DUP2 SLOAD DUP4 LT ISZERO PUSH2 0x37F JUMPI PUSH1 0x20 PUSH2 0x3B4 DUP5 DUP5 PUSH2 0x20D8 JUMP JUMPDEST POP CALLVALUE PUSH2 0x37F JUMPI PUSH1 0x20 CALLDATASIZE PUSH1 0x3 NOT ADD SLT PUSH2 0x37F JUMPI PUSH1 0x40 SWAP1 PUSH1 0x4 CALLDATALOAD DUP2 MSTORE PUSH1 0x3C PUSH1 0x20 MSTORE KECCAK256 DUP1 SLOAD PUSH2 0x52C PUSH1 0x1 DUP4 ADD SLOAD SWAP3 PUSH1 0x2 DUP2 ADD SLOAD SWAP1 PUSH1 0x3 DUP2 ADD SLOAD PUSH1 0x4 DUP3 ADD SLOAD PUSH1 0x5 DUP4 ADD SLOAD SWAP1 PUSH1 0x6 DUP5 ADD SLOAD SWAP3 PUSH1 0xFF PUSH1 0x8 PUSH1 0x7 DUP8 ADD SLOAD SWAP7 ADD SLOAD AND SWAP6 PUSH1 0x40 MLOAD SWAP10 DUP11 SWAP10 DUP11 PUSH2 0x206C JUMP JUMPDEST POP CALLVALUE PUSH2 0x37F JUMPI PUSH1 0x20 CALLDATASIZE PUSH1 0x3 NOT ADD SLT PUSH2 0x37F JUMPI PUSH1 0x4 CALLDATALOAD SWAP1 PUSH1 0xD SLOAD DUP3 LT ISZERO PUSH2 0x37F JUMPI PUSH1 0x20 PUSH2 0x3B4 DUP4 PUSH2 0x20AC JUMP JUMPDEST POP CALLVALUE PUSH2 0x37F JUMPI DUP1 PUSH1 0x3 NOT CALLDATASIZE ADD SLT PUSH2 0x37F JUMPI PUSH1 0x20 PUSH1 0x6 SLOAD PUSH1 0x40 MLOAD SWAP1 DUP2 MSTORE RETURN JUMPDEST POP CALLVALUE PUSH2 0x37F JUMPI PUSH1 0x40 DUP1 SWAP2 PUSH2 0x776 CALLDATASIZE PUSH2 0x2056 JUMP JUMPDEST SWAP1 DUP3 MSTORE PUSH1 0x2F PUSH1 0x20 MSTORE DUP3 DUP3 KECCAK256 SWAP1 DUP3 MSTORE PUSH1 0x20 MSTORE KECCAK256 PUSH1 0x1 DUP2 SLOAD SWAP2 ADD SLOAD DUP3 MLOAD SWAP2 DUP3 MSTORE PUSH1 0x20 DUP3 ADD MSTORE RETURN JUMPDEST POP CALLVALUE PUSH2 0x37F JUMPI PUSH1 0xFF PUSH1 0x40 PUSH1 0x20 SWAP3 PUSH2 0x7B1 CALLDATASIZE PUSH2 0x2056 JUMP JUMPDEST SWAP1 DUP3 MSTORE PUSH1 0x34 DUP6 MSTORE DUP3 DUP3 KECCAK256 SWAP1 DUP3 MSTORE DUP5 MSTORE KECCAK256 SLOAD AND PUSH1 0x40 MLOAD SWAP1 ISZERO ISZERO DUP2 MSTORE RETURN JUMPDEST POP CALLVALUE PUSH2 0x37F JUMPI PUSH1 0x20 CALLDATASIZE PUSH1 0x3 NOT ADD SLT PUSH2 0x37F JUMPI PUSH1 0x4 CALLDATALOAD SWAP1 PUSH1 0x16 SLOAD DUP3 LT ISZERO PUSH2 0x37F JUMPI PUSH1 0x16 SLOAD DUP3 LT ISZERO PUSH2 0x42F JUMPI PUSH1 0x20 SWAP2 PUSH1 0x16 DUP3 MSTORE DUP3 DUP3 KECCAK256 ADD SLOAD SWAP1 PUSH1 0x3 SHL SHR PUSH1 0x40 MLOAD SWAP1 DUP2 MSTORE RETURN JUMPDEST POP CALLVALUE PUSH2 0x37F JUMPI DUP1 PUSH1 0x3 NOT CALLDATASIZE ADD SLT PUSH2 0x37F JUMPI PUSH1 0x20 PUSH1 0x40 MLOAD PUSH3 0x83D600 DUP2 MSTORE RETURN JUMPDEST POP CALLVALUE PUSH2 0x37F JUMPI DUP1 PUSH1 0x3 NOT CALLDATASIZE ADD SLT PUSH2 0x37F JUMPI PUSH1 0x20 PUSH1 0x42 SLOAD PUSH1 0x40 MLOAD SWAP1 DUP2 MSTORE RETURN JUMPDEST POP CALLVALUE PUSH2 0x37F JUMPI PUSH1 0xFF PUSH1 0x40 PUSH1 0x20 SWAP3 PUSH2 0x862 CALLDATASIZE PUSH2 0x2056 JUMP JUMPDEST SWAP1 DUP3 MSTORE PUSH1 0x38 DUP6 MSTORE DUP3 DUP3 KECCAK256 SWAP1 DUP3 MSTORE DUP5 MSTORE KECCAK256 SLOAD AND PUSH1 0x40 MLOAD SWAP1 ISZERO ISZERO DUP2 MSTORE RETURN JUMPDEST POP CALLVALUE PUSH2 0x37F JUMPI DUP1 PUSH1 0x3 NOT CALLDATASIZE ADD SLT PUSH2 0x37F JUMPI PUSH1 0x20 PUSH1 0x48 SLOAD PUSH1 0x40 MLOAD SWAP1 DUP2 MSTORE RETURN JUMPDEST POP CALLVALUE PUSH2 0x37F JUMPI PUSH2 0x8AB CALLDATASIZE PUSH2 0x2056 JUMP JUMPDEST PUSH2 0x8B6 SWAP3 SWAP2 SWAP3 PUSH2 0x23E5 JUMP JUMPDEST PUSH2 0x8BE PUSH2 0x2477 JUMP JUMPDEST PUSH2 0x8C6 PUSH2 0x25F2 JUMP JUMPDEST PUSH2 0x8CE PUSH2 0x2721 JUMP JUMPDEST DUP3 DUP3 MSTORE PUSH1 0x10 PUSH1 0x20 MSTORE PUSH1 0x40 DUP3 KECCAK256 SLOAD PUSH1 0x1 PUSH1 0x1 PUSH1 0xA0 SHL SUB AND PUSH2 0x8EF CALLER DUP3 EQ PUSH2 0x213D JUMP JUMPDEST ISZERO PUSH2 0xD67 JUMPI DUP3 ISZERO ISZERO DUP1 PUSH2 0xD5E JUMPI JUMPDEST DUP1 PUSH2 0xD40 JUMPI JUMPDEST DUP1 PUSH2 0xD35 JUMPI JUMPDEST PUSH2 0x912 SWAP1 PUSH2 0x217C JUMP JUMPDEST DUP3 DUP3 MSTORE PUSH1 0x4C PUSH1 0x20 MSTORE PUSH1 0x40 DUP3 KECCAK256 DUP2 DUP4 MSTORE PUSH1 0x4A PUSH1 0x20 MSTORE PUSH1 0x40 DUP4 KECCAK256 SWAP1 PUSH2 0x940 PUSH1 0x1 PUSH1 0xFF PUSH1 0x4 DUP5 ADD SLOAD AND ISZERO ISZERO EQ PUSH2 0x226F JUMP JUMPDEST PUSH1 0x3 DUP2 ADD DUP4 DUP6 MSTORE DUP1 PUSH1 0x20 MSTORE PUSH2 0x95C PUSH1 0xFF PUSH1 0x40 DUP8 KECCAK256 SLOAD AND ISZERO PUSH2 0x22AC JUMP JUMPDEST PUSH1 0x3 DUP4 ADD SLOAD SWAP3 DUP4 ISZERO SWAP3 PUSH2 0x96F DUP5 ISZERO PUSH2 0x21E1 JUMP JUMPDEST PUSH2 0x994 DUP7 PUSH1 0x1 PUSH1 0x4 DUP6 ADD SWAP4 PUSH2 0x98B PUSH1 0x2 DUP7 SLOAD SWAP8 ADD SLOAD DUP8 LT PUSH2 0x2222 JUMP JUMPDEST ADD SLOAD GT ISZERO PUSH2 0x22F8 JUMP JUMPDEST PUSH1 0x1 DUP3 ADD DUP1 SWAP3 GT PUSH2 0xD21 JUMPI SSTORE DUP4 DUP6 MSTORE PUSH1 0x20 MSTORE PUSH1 0x40 DUP5 KECCAK256 PUSH1 0x1 PUSH1 0xFF NOT DUP3 SLOAD AND OR SWAP1 SSTORE DUP5 DUP5 MSTORE PUSH1 0x10 PUSH1 0x20 MSTORE PUSH1 0x40 DUP5 KECCAK256 SWAP4 PUSH1 0x1 DUP1 PUSH1 0xA0 SHL SUB DUP6 SLOAD AND SWAP2 DUP3 ISZERO PUSH2 0xCED JUMPI PUSH2 0xCBA JUMPI DUP6 DUP2 MSTORE PUSH1 0x11 PUSH1 0x20 MSTORE PUSH1 0x40 DUP2 KECCAK256 SWAP1 DUP1 PUSH2 0x9F0 DUP6 DUP5 SLOAD PUSH2 0x2262 JUMP JUMPDEST DUP4 SSTORE PUSH2 0xCA6 JUMPI POP PUSH1 0xB DUP2 ADD PUSH2 0xA06 DUP5 DUP3 SLOAD PUSH2 0x2262 JUMP JUMPDEST SWAP1 SSTORE SLOAD SWAP1 PUSH1 0xB DUP6 ADD SLOAD SWAP1 PUSH1 0x6 PUSH0 SWAP7 ADD SWAP6 JUMPDEST DUP7 SLOAD DUP2 LT ISZERO PUSH2 0xC98 JUMPI PUSH2 0xA29 DUP2 PUSH2 0x20AC JUMP JUMPDEST SWAP1 SLOAD SWAP1 PUSH1 0x3 SHL SHR SWAP4 DUP9 PUSH0 MSTORE PUSH1 0xE PUSH1 0x20 MSTORE PUSH1 0x40 PUSH0 KECCAK256 DUP6 PUSH0 MSTORE PUSH1 0x20 MSTORE PUSH1 0x40 PUSH0 KECCAK256 SWAP1 PUSH1 0x3 DUP3 ADD PUSH1 0xFF DUP2 SLOAD PUSH1 0x8 SHR AND DUP1 ISZERO SWAP1 DUP2 DUP1 SWAP3 PUSH2 0xC82 JUMPI JUMPDEST ISZERO PUSH2 0xACC JUMPI POP POP DUP1 SLOAD PUSH2 0xFF00 NOT AND PUSH2 0x100 OR SWAP1 SSTORE PUSH2 0xA93 SWAP2 SWAP1 DUP6 PUSH1 0xA PUSH2 0xA85 DUP3 DUP11 PUSH2 0x2439 JUMP JUMPDEST DIV SWAP3 DUP4 PUSH1 0x2 DUP3 ADD SSTORE SSTORE PUSH2 0x246A JUMP JUMPDEST SWAP4 PUSH0 MSTORE PUSH1 0xC PUSH1 0x20 MSTORE PUSH1 0x40 PUSH0 KECCAK256 SWAP1 DUP2 SLOAD PUSH0 NOT DUP2 ADD SWAP1 DUP2 GT PUSH2 0xAB8 JUMPI PUSH1 0x1 SWAP3 SSTORE JUMPDEST ADD PUSH2 0xA17 JUMP JUMPDEST PUSH4 0x4E487B71 PUSH1 0xE0 SHL PUSH0 MSTORE PUSH1 0x11 PUSH1 0x4 MSTORE PUSH1 0x24 PUSH0 REVERT JUMPDEST DUP1 SWAP2 SWAP4 SWAP6 SWAP9 SWAP3 POP SWAP1 PUSH2 0xC6D JUMPI JUMPDEST ISZERO PUSH2 0xAF7 JUMPI POP POP PUSH1 0x1 SWAP2 PUSH1 0x2 PUSH2 0xAF1 SWAP3 ADD SLOAD SWAP1 PUSH2 0x246A JUMP JUMPDEST SWAP4 PUSH2 0xAB2 JUMP JUMPDEST SWAP3 SWAP6 SWAP3 DUP6 SWAP1 DUP3 PUSH2 0xC55 JUMPI JUMPDEST POP POP PUSH2 0xB11 JUMPI POP PUSH1 0x1 SWAP1 PUSH2 0xAB2 JUMP JUMPDEST SWAP2 SWAP5 SWAP7 POP POP PUSH1 0x1 SWAP2 POP SWAP6 SWAP4 SWAP6 ADD SSTORE JUMPDEST PUSH1 0x1 DUP1 PUSH1 0xA0 SHL SUB PUSH1 0x1 SLOAD AND PUSH1 0x40 MLOAD PUSH1 0x20 DUP2 ADD PUSH4 0xA9059CBB PUSH1 0xE0 SHL DUP2 MSTORE DUP4 PUSH1 0x24 DUP4 ADD MSTORE DUP6 PUSH1 0x44 DUP4 ADD MSTORE PUSH1 0x44 DUP3 MSTORE PUSH1 0x80 DUP3 ADD SWAP1 DUP3 DUP3 LT PUSH8 0xFFFFFFFFFFFFFFFF DUP4 GT OR PUSH2 0xC41 JUMPI PUSH1 0x20 SWAP3 PUSH0 SWAP3 PUSH1 0x40 MSTORE MLOAD SWAP1 DUP3 DUP6 GAS CALL ISZERO PUSH2 0xC36 JUMPI PUSH0 MLOAD RETURNDATASIZE PUSH2 0xC2D JUMPI POP DUP1 EXTCODESIZE ISZERO JUMPDEST PUSH2 0xC1B JUMPI POP PUSH32 0x6AC5DC27FBF1276A5DB7FAAD992EA92A268D34B18F81922F747D9D3BEB5F9C55 SWAP4 DUP3 DUP1 PUSH2 0xC12 SWAP4 PUSH32 0x4D634C31300B97DAD99B3AF799178230163D88AD306370D063BE9CD992D0BE7F PUSH1 0x80 PUSH1 0x40 MLOAD DUP10 DUP2 MSTORE PUSH0 PUSH1 0x20 DUP3 ADD MSTORE PUSH1 0x9 PUSH1 0x40 DUP3 ADD MSTORE TIMESTAMP PUSH1 0x60 DUP3 ADD MSTORE LOG4 PUSH1 0x40 MLOAD SWAP4 DUP5 SWAP4 TIMESTAMP SWAP3 DUP6 SWAP1 SWAP5 SWAP4 SWAP3 PUSH1 0x60 SWAP3 PUSH1 0x80 DUP4 ADD SWAP7 DUP4 MSTORE PUSH1 0x20 DUP4 ADD MSTORE PUSH1 0x40 DUP3 ADD MSTORE ADD MSTORE JUMP JUMPDEST SUB SWAP1 LOG1 PUSH1 0x1 PUSH0 SSTORE STOP JUMPDEST PUSH4 0x5274AFE7 PUSH1 0xE0 SHL PUSH0 MSTORE PUSH1 0x4 MSTORE PUSH1 0x24 PUSH0 REVERT JUMPDEST PUSH1 0x1 EQ ISZERO PUSH2 0xB83 JUMP JUMPDEST PUSH1 0x40 MLOAD RETURNDATASIZE PUSH0 DUP3 RETURNDATACOPY RETURNDATASIZE SWAP1 REVERT JUMPDEST PUSH4 0x4E487B71 PUSH1 0xE0 SHL PUSH0 MSTORE PUSH1 0x41 PUSH1 0x4 MSTORE PUSH1 0x24 PUSH0 REVERT JUMPDEST PUSH1 0xA SWAP3 POP SWAP1 PUSH2 0xC63 SWAP2 PUSH2 0x2439 JUMP JUMPDEST DIV DUP6 LT DUP5 PUSH0 PUSH2 0xB02 JUMP JUMPDEST POP PUSH1 0xA PUSH2 0xC7A DUP8 DUP4 PUSH2 0x2439 JUMP JUMPDEST DIV DUP5 GT PUSH2 0xAD9 JUMP JUMPDEST POP PUSH1 0xA PUSH2 0xC8F DUP10 DUP12 PUSH2 0x2439 JUMP JUMPDEST DIV DUP5 LT ISZERO PUSH2 0xA5F JUMP JUMPDEST POP SWAP3 SWAP5 POP POP POP SWAP3 SWAP1 SWAP3 PUSH2 0xB20 JUMP JUMPDEST PUSH4 0x4E487B71 PUSH1 0xE0 SHL DUP2 MSTORE PUSH1 0x21 PUSH1 0x4 MSTORE PUSH1 0x24 SWAP1 REVERT JUMPDEST PUSH1 0x40 MLOAD PUSH3 0x461BCD PUSH1 0xE5 SHL DUP2 MSTORE PUSH1 0x20 PUSH1 0x4 DUP3 ADD MSTORE PUSH1 0xB PUSH1 0x24 DUP3 ADD MSTORE PUSH11 0x16995C9BC8185B5BDD5B9D PUSH1 0xAA SHL PUSH1 0x44 DUP3 ADD MSTORE PUSH1 0x64 SWAP1 REVERT JUMPDEST PUSH1 0x40 MLOAD PUSH3 0x461BCD PUSH1 0xE5 SHL DUP2 MSTORE PUSH1 0x20 PUSH1 0x4 DUP3 ADD MSTORE PUSH1 0xC PUSH1 0x24 DUP3 ADD MSTORE PUSH12 0x24B73B30B634B2103AB9B2B9 PUSH1 0xA1 SHL PUSH1 0x44 DUP3 ADD MSTORE PUSH1 0x64 SWAP1 REVERT JUMPDEST PUSH4 0x4E487B71 PUSH1 0xE0 SHL DUP8 MSTORE PUSH1 0x11 PUSH1 0x4 MSTORE PUSH1 0x24 DUP8 REVERT JUMPDEST POP PUSH1 0x47 SLOAD DUP2 LT PUSH2 0x909 JUMP JUMPDEST POP DUP1 DUP3 MSTORE PUSH1 0x4A PUSH1 0x20 MSTORE PUSH1 0x1 PUSH1 0xFF PUSH1 0x8 PUSH1 0x40 DUP6 KECCAK256 ADD SLOAD AND ISZERO ISZERO EQ PUSH2 0x903 JUMP JUMPDEST POP DUP1 ISZERO ISZERO PUSH2 0x8FD JUMP JUMPDEST PUSH1 0x40 MLOAD PUSH3 0x461BCD PUSH1 0xE5 SHL DUP2 MSTORE PUSH1 0x20 PUSH1 0x4 DUP3 ADD MSTORE PUSH1 0xF PUSH1 0x24 DUP3 ADD MSTORE PUSH15 0x125B9D985B1A59081858D8DBDD5B9D PUSH1 0x8A SHL PUSH1 0x44 DUP3 ADD MSTORE PUSH1 0x64 SWAP1 REVERT JUMPDEST POP CALLVALUE PUSH2 0x37F JUMPI PUSH1 0x20 CALLDATASIZE PUSH1 0x3 NOT ADD SLT PUSH2 0x37F JUMPI PUSH1 0x4 CALLDATALOAD PUSH1 0x8 DUP2 LT ISZERO PUSH2 0x57A JUMPI PUSH1 0x20 SWAP2 POP PUSH1 0x27 ADD SLOAD PUSH1 0x40 MLOAD SWAP1 DUP2 MSTORE RETURN JUMPDEST POP CALLVALUE PUSH2 0x37F JUMPI PUSH1 0x40 SWAP1 PUSH2 0xDDE CALLDATASIZE PUSH2 0x2056 JUMP JUMPDEST SWAP1 DUP3 MSTORE PUSH1 0x35 PUSH1 0x20 MSTORE DUP3 DUP3 KECCAK256 SWAP1 DUP3 MSTORE PUSH1 0x20 MSTORE KECCAK256 DUP1 SLOAD PUSH2 0x52C PUSH1 0x1 DUP4 ADD SLOAD SWAP3 PUSH1 0x2 DUP2 ADD SLOAD SWAP1 PUSH1 0x4 PUSH1 0x3 DUP3 ADD SLOAD SWAP2 ADD SLOAD SWAP2 PUSH1 0x40 MLOAD SWAP6 DUP7 SWAP6 DUP7 SWAP2 SWAP3 PUSH1 0x80 SWAP4 SWAP7 SWAP6 SWAP5 SWAP2 SWAP7 PUSH1 0xA0 DUP5 ADD SWAP8 DUP5 MSTORE PUSH1 0x20 DUP5 ADD MSTORE PUSH1 0x40 DUP4 ADD MSTORE PUSH1 0x60 DUP3 ADD MSTORE ADD MSTORE JUMP JUMPDEST POP CALLVALUE PUSH2 0x37F JUMPI PUSH2 0xE46 CALLDATASIZE PUSH2 0x20ED JUMP JUMPDEST SWAP3 SWAP2 DUP3 MSTORE PUSH1 0x31 PUSH1 0x20 MSTORE PUSH1 0x40 DUP3 KECCAK256 SWAP1 DUP3 MSTORE PUSH1 0x20 MSTORE PUSH1 0x40 DUP2 KECCAK256 SWAP1 DUP2 SLOAD DUP4 LT ISZERO PUSH2 0x37F JUMPI PUSH1 0x20 PUSH2 0x3B4 DUP5 DUP5 PUSH2 0x20D8 JUMP JUMPDEST POP CALLVALUE PUSH2 0x37F JUMPI PUSH2 0xE82 CALLDATASIZE PUSH2 0x20ED JUMP JUMPDEST SWAP3 SWAP2 DUP3 MSTORE PUSH1 0x32 PUSH1 0x20 MSTORE PUSH1 0x40 DUP3 KECCAK256 SWAP1 DUP3 MSTORE PUSH1 0x20 MSTORE PUSH1 0x40 DUP2 KECCAK256 SWAP1 DUP2 SLOAD DUP4 LT ISZERO PUSH2 0x37F JUMPI PUSH1 0x20 PUSH2 0x3B4 DUP5 DUP5 PUSH2 0x20D8 JUMP JUMPDEST POP CALLVALUE PUSH2 0x37F JUMPI PUSH1 0x40 PUSH1 0x20 SWAP2 PUSH2 0xEC3 CALLDATASIZE PUSH2 0x2056 JUMP JUMPDEST SWAP1 DUP3 MSTORE PUSH1 0xB DUP5 MSTORE DUP3 DUP3 KECCAK256 SWAP1 DUP3 MSTORE DUP4 MSTORE KECCAK256 SLOAD PUSH1 0x40 MLOAD SWAP1 DUP2 MSTORE RETURN JUMPDEST POP CALLVALUE PUSH2 0x37F JUMPI PUSH1 0x20 CALLDATASIZE PUSH1 0x3 NOT ADD SLT PUSH2 0x37F JUMPI PUSH1 0x40 PUSH1 0x20 SWAP2 PUSH1 0x4 CALLDATALOAD DUP2 MSTORE PUSH1 0x14 DUP4 MSTORE KECCAK256 SLOAD PUSH1 0x40 MLOAD SWAP1 DUP2 MSTORE RETURN JUMPDEST POP CALLVALUE PUSH2 0x37F JUMPI PUSH1 0x20 PUSH2 0xF20 PUSH2 0xF1A CALLDATASIZE PUSH2 0x2056 JUMP JUMPDEST SWAP1 PUSH2 0x233C JUMP JUMPDEST PUSH1 0x40 MLOAD SWAP1 ISZERO ISZERO DUP2 MSTORE RETURN JUMPDEST POP CALLVALUE PUSH2 0x37F JUMPI DUP1 PUSH1 0x3 NOT CALLDATASIZE ADD SLT PUSH2 0x37F JUMPI PUSH1 0x2 SLOAD PUSH1 0x40 MLOAD PUSH1 0x1 PUSH1 0x1 PUSH1 0xA0 SHL SUB SWAP1 SWAP2 AND DUP2 MSTORE PUSH1 0x20 SWAP1 RETURN JUMPDEST POP CALLVALUE PUSH2 0x37F JUMPI DUP1 PUSH1 0x3 NOT CALLDATASIZE ADD SLT PUSH2 0x37F JUMPI PUSH1 0x20 PUSH1 0x9 SLOAD PUSH1 0x40 MLOAD SWAP1 DUP2 MSTORE RETURN JUMPDEST POP CALLVALUE PUSH2 0x37F JUMPI DUP1 PUSH1 0x3 NOT CALLDATASIZE ADD SLT PUSH2 0x37F JUMPI PUSH1 0x20 PUSH1 0x40 MLOAD PUSH3 0x93A80 DUP2 MSTORE RETURN JUMPDEST POP CALLVALUE PUSH2 0x37F JUMPI PUSH2 0xF9E CALLDATASIZE PUSH2 0x2056 JUMP JUMPDEST SWAP2 SWAP1 DUP2 MSTORE PUSH1 0x12 PUSH1 0x20 MSTORE PUSH1 0x40 DUP2 KECCAK256 DUP1 SLOAD DUP4 LT ISZERO PUSH2 0x57A JUMPI DUP2 PUSH1 0x20 SWAP2 PUSH1 0x5 SWAP4 POP DUP2 MSTORE KECCAK256 SWAP2 MUL ADD DUP1 SLOAD PUSH2 0x52C PUSH1 0x1 DUP4 ADD SLOAD SWAP3 PUSH1 0x2 DUP2 ADD SLOAD SWAP1 PUSH1 0x4 PUSH1 0x3 DUP3 ADD SLOAD SWAP2 ADD SLOAD SWAP2 PUSH1 0x40 MLOAD SWAP6 DUP7 SWAP6 DUP7 SWAP2 SWAP3 PUSH1 0x80 SWAP4 SWAP7 SWAP6 SWAP5 SWAP2 SWAP7 PUSH1 0xA0 DUP5 ADD SWAP8 DUP5 MSTORE PUSH1 0x20 DUP5 ADD MSTORE PUSH1 0x40 DUP4 ADD MSTORE PUSH1 0x60 DUP3 ADD MSTORE ADD MSTORE JUMP JUMPDEST POP CALLVALUE PUSH2 0x37F JUMPI DUP1 PUSH1 0x3 NOT CALLDATASIZE ADD SLT PUSH2 0x37F JUMPI PUSH1 0x20 PUSH1 0x40 MLOAD PUSH4 0x2514300 DUP2 MSTORE RETURN JUMPDEST POP CALLVALUE PUSH2 0x37F JUMPI PUSH1 0x20 CALLDATASIZE PUSH1 0x3 NOT ADD SLT PUSH2 0x37F JUMPI PUSH1 0x40 SWAP1 PUSH1 0x4 CALLDATALOAD DUP2 MSTORE PUSH1 0x43 PUSH1 0x20 MSTORE KECCAK256 DUP1 SLOAD PUSH2 0x52C PUSH1 0x1 DUP4 ADD SLOAD SWAP3 PUSH1 0x2 DUP2 ADD SLOAD SWAP1 PUSH1 0x3 DUP2 ADD SLOAD PUSH1 0x4 DUP3 ADD SLOAD PUSH1 0x5 DUP4 ADD SLOAD SWAP1 PUSH1 0x6 DUP5 ADD SLOAD SWAP3 PUSH1 0xFF PUSH1 0x8 PUSH1 0x7 DUP8 ADD SLOAD SWAP7 ADD SLOAD AND SWAP6 PUSH1 0x40 MLOAD SWAP10 DUP11 SWAP10 DUP11 PUSH2 0x206C JUMP JUMPDEST POP CALLVALUE PUSH2 0x37F JUMPI PUSH2 0x1098 CALLDATASIZE PUSH2 0x2056 JUMP JUMPDEST SWAP2 SWAP1 DUP2 MSTORE PUSH1 0x15 PUSH1 0x20 MSTORE PUSH1 0x40 DUP2 KECCAK256 SWAP1 DUP2 SLOAD DUP4 LT ISZERO PUSH2 0x37F JUMPI PUSH1 0x20 PUSH2 0x3B4 DUP5 DUP5 PUSH2 0x20D8 JUMP JUMPDEST POP CALLVALUE PUSH2 0x37F JUMPI DUP1 PUSH1 0x3 NOT CALLDATASIZE ADD SLT PUSH2 0x37F JUMPI PUSH1 0x20 PUSH1 0x49 SLOAD PUSH1 0x40 MLOAD SWAP1 DUP2 MSTORE RETURN JUMPDEST POP CALLVALUE PUSH2 0x37F JUMPI PUSH1 0x40 SWAP1 PUSH2 0x10EB CALLDATASIZE PUSH2 0x2056 JUMP JUMPDEST SWAP1 DUP3 MSTORE PUSH1 0xE PUSH1 0x20 MSTORE DUP3 DUP3 KECCAK256 SWAP1 DUP3 MSTORE PUSH1 0x20 MSTORE KECCAK256 DUP1 SLOAD PUSH2 0x52C PUSH1 0x1 DUP4 ADD SLOAD SWAP2 PUSH1 0x3 PUSH1 0x2 DUP6 ADD SLOAD SWAP5 ADD SLOAD SWAP1 PUSH1 0x40 MLOAD SWAP5 DUP6 SWAP5 PUSH1 0xFF DUP1 DUP6 PUSH1 0x8 SHR AND SWAP5 AND SWAP3 DUP7 SWAP4 SWAP1 SWAP6 SWAP5 SWAP2 SWAP3 PUSH1 0x80 SWAP4 PUSH1 0xA0 DUP7 ADD SWAP8 DUP7 MSTORE PUSH1 0x20 DUP7 ADD MSTORE PUSH1 0x40 DUP6 ADD MSTORE ISZERO ISZERO PUSH1 0x60 DUP5 ADD MSTORE ISZERO ISZERO SWAP2 ADD MSTORE JUMP JUMPDEST POP CALLVALUE PUSH2 0x37F JUMPI PUSH2 0x115C CALLDATASIZE PUSH2 0x20ED JUMP JUMPDEST SWAP3 SWAP2 DUP3 MSTORE PUSH1 0x13 PUSH1 0x20 MSTORE PUSH1 0x40 DUP3 KECCAK256 SWAP1 DUP3 MSTORE PUSH1 0x20 MSTORE PUSH1 0x40 DUP2 KECCAK256 SWAP1 DUP2 SLOAD DUP4 LT ISZERO PUSH2 0x37F JUMPI PUSH1 0x20 PUSH2 0x3B4 DUP5 DUP5 PUSH2 0x20D8 JUMP JUMPDEST PUSH2 0x2107 JUMP JUMPDEST POP CALLVALUE PUSH2 0x37F JUMPI PUSH2 0x119D CALLDATASIZE PUSH2 0x20ED JUMP JUMPDEST SWAP3 SWAP2 DUP3 MSTORE PUSH1 0x3F PUSH1 0x20 MSTORE PUSH1 0x40 DUP3 KECCAK256 SWAP1 DUP3 MSTORE PUSH1 0x20 MSTORE PUSH1 0x40 DUP2 KECCAK256 SWAP1 DUP2 SLOAD DUP4 LT ISZERO PUSH2 0x37F JUMPI PUSH1 0x20 PUSH2 0x3B4 DUP5 DUP5 PUSH2 0x20D8 JUMP JUMPDEST POP CALLVALUE PUSH2 0x37F JUMPI PUSH2 0x11D9 CALLDATASIZE PUSH2 0x2056 JUMP JUMPDEST SWAP2 SWAP1 DUP2 MSTORE PUSH1 0x4D PUSH1 0x20 MSTORE PUSH1 0x40 DUP2 KECCAK256 SWAP1 DUP2 SLOAD DUP4 LT ISZERO PUSH2 0x37F JUMPI PUSH1 0x20 PUSH2 0x3B4 DUP5 DUP5 PUSH2 0x20D8 JUMP JUMPDEST POP CALLVALUE PUSH2 0x37F JUMPI DUP1 PUSH1 0x3 NOT CALLDATASIZE ADD SLT PUSH2 0x37F JUMPI PUSH1 0x20 PUSH1 0x47 SLOAD PUSH1 0x40 MLOAD SWAP1 DUP2 MSTORE RETURN JUMPDEST POP CALLVALUE PUSH2 0x37F JUMPI PUSH1 0x20 CALLDATASIZE PUSH1 0x3 NOT ADD SLT PUSH2 0x37F JUMPI PUSH1 0x40 PUSH2 0x180 SWAP2 PUSH1 0x4 CALLDATALOAD DUP2 MSTORE PUSH1 0x11 PUSH1 0x20 MSTORE KECCAK256 DUP1 SLOAD SWAP1 PUSH1 0x1 DUP2 ADD SLOAD SWAP1 PUSH1 0x2 DUP2 ADD SLOAD PUSH1 0x3 DUP3 ADD SLOAD PUSH1 0x4 DUP4 ADD SLOAD PUSH1 0x5 DUP5 ADD SLOAD PUSH1 0x6 DUP6 ADD SLOAD SWAP1 PUSH1 0x7 DUP7 ADD SLOAD SWAP3 PUSH1 0x8 DUP8 ADD SLOAD SWAP5 PUSH1 0x9 DUP9 ADD SLOAD SWAP7 PUSH1 0xB PUSH1 0xA DUP11 ADD SLOAD SWAP10 ADD SLOAD SWAP10 PUSH1 0x40 MLOAD SWAP12 DUP13 MSTORE PUSH1 0x20 DUP13 ADD MSTORE PUSH1 0x40 DUP12 ADD MSTORE PUSH1 0x60 DUP11 ADD MSTORE PUSH1 0x80 DUP10 ADD MSTORE PUSH1 0xA0 DUP9 ADD MSTORE PUSH1 0xC0 DUP8 ADD MSTORE PUSH1 0xE0 DUP7 ADD MSTORE PUSH2 0x100 DUP6 ADD MSTORE PUSH2 0x120 DUP5 ADD MSTORE PUSH2 0x140 DUP4 ADD MSTORE PUSH2 0x160 DUP3 ADD MSTORE RETURN JUMPDEST POP CALLVALUE PUSH2 0x37F JUMPI PUSH1 0x20 CALLDATASIZE PUSH1 0x3 NOT ADD SLT PUSH2 0x37F JUMPI PUSH1 0x40 PUSH1 0x20 SWAP2 PUSH1 0x4 CALLDATALOAD DUP2 MSTORE PUSH1 0xA DUP4 MSTORE KECCAK256 SLOAD PUSH1 0x40 MLOAD SWAP1 DUP2 MSTORE RETURN JUMPDEST POP CALLVALUE PUSH2 0x37F JUMPI PUSH1 0x20 CALLDATASIZE PUSH1 0x3 NOT ADD SLT PUSH2 0x37F JUMPI PUSH1 0x40 SWAP1 PUSH1 0x4 CALLDATALOAD DUP2 MSTORE PUSH1 0x45 PUSH1 0x20 MSTORE KECCAK256 DUP1 SLOAD PUSH2 0x52C PUSH1 0x1 DUP4 ADD SLOAD SWAP3 PUSH1 0xFF PUSH1 0x4 PUSH1 0x2 DUP4 ADD SLOAD SWAP3 ADD SLOAD AND SWAP1 PUSH1 0x40 MLOAD SWAP5 DUP6 SWAP5 DUP6 SWAP3 PUSH1 0x60 SWAP3 SWAP6 SWAP5 SWAP2 SWAP6 PUSH1 0x80 DUP6 ADD SWAP7 DUP6 MSTORE PUSH1 0x20 DUP6 ADD MSTORE PUSH1 0x40 DUP5 ADD MSTORE ISZERO ISZERO SWAP2 ADD MSTORE JUMP JUMPDEST POP CALLVALUE PUSH2 0x37F JUMPI DUP1 PUSH1 0x3 NOT CALLDATASIZE ADD SLT PUSH2 0x37F JUMPI PUSH1 0x20 PUSH1 0x40 MLOAD PUSH3 0x2A300 DUP2 MSTORE RETURN JUMPDEST POP CALLVALUE PUSH2 0x37F JUMPI PUSH2 0x1377 CALLDATASIZE PUSH2 0x2056 JUMP JUMPDEST PUSH2 0x1382 SWAP3 SWAP2 SWAP3 PUSH2 0x23E5 JUMP JUMPDEST PUSH2 0x138A PUSH2 0x2477 JUMP JUMPDEST PUSH2 0x1392 PUSH2 0x25F2 JUMP JUMPDEST PUSH2 0x139A PUSH2 0x2721 JUMP JUMPDEST DUP3 DUP3 MSTORE PUSH1 0x10 PUSH1 0x20 MSTORE PUSH2 0x13B9 PUSH1 0x1 DUP1 PUSH1 0xA0 SHL SUB PUSH1 0x40 DUP5 KECCAK256 SLOAD AND CALLER EQ PUSH2 0x213D JUMP JUMPDEST DUP3 ISZERO ISZERO DUP1 PUSH2 0x172F JUMPI JUMPDEST DUP1 PUSH2 0x1711 JUMPI JUMPDEST DUP1 PUSH2 0x1706 JUMPI JUMPDEST PUSH2 0x13D7 SWAP1 PUSH2 0x217C JUMP JUMPDEST DUP3 DUP3 MSTORE PUSH1 0x45 PUSH1 0x20 MSTORE PUSH1 0x40 DUP3 KECCAK256 DUP2 DUP4 MSTORE PUSH1 0x43 PUSH1 0x20 MSTORE PUSH1 0x40 DUP4 KECCAK256 SWAP1 PUSH2 0x1405 PUSH1 0x1 PUSH1 0xFF PUSH1 0x4 DUP5 ADD SLOAD AND ISZERO ISZERO EQ PUSH2 0x226F JUMP JUMPDEST PUSH1 0x3 DUP2 ADD DUP4 DUP6 MSTORE DUP1 PUSH1 0x20 MSTORE PUSH2 0x1421 PUSH1 0xFF PUSH1 0x40 DUP8 KECCAK256 SLOAD AND ISZERO PUSH2 0x22AC JUMP JUMPDEST PUSH1 0x3 DUP4 ADD SLOAD SWAP3 DUP4 ISZERO SWAP3 PUSH2 0x1434 DUP5 ISZERO PUSH2 0x21E1 JUMP JUMPDEST PUSH2 0x1450 DUP7 PUSH1 0x1 PUSH1 0x4 DUP6 ADD SWAP4 PUSH2 0x98B PUSH1 0x2 DUP7 SLOAD SWAP8 ADD SLOAD DUP8 LT PUSH2 0x2222 JUMP JUMPDEST PUSH1 0x1 DUP3 ADD DUP1 SWAP3 GT PUSH2 0xD21 JUMPI SSTORE DUP4 DUP6 MSTORE PUSH1 0x20 MSTORE PUSH1 0x40 DUP5 KECCAK256 PUSH1 0x1 PUSH1 0xFF NOT DUP3 SLOAD AND OR SWAP1 SSTORE DUP5 DUP5 MSTORE PUSH1 0x10 PUSH1 0x20 MSTORE PUSH1 0x40 DUP5 KECCAK256 SWAP4 PUSH1 0x1 DUP1 PUSH1 0xA0 SHL SUB DUP6 SLOAD AND SWAP2 DUP3 ISZERO PUSH2 0xCED JUMPI PUSH2 0xCBA JUMPI DUP6 DUP2 MSTORE PUSH1 0x11 PUSH1 0x20 MSTORE PUSH1 0x40 DUP2 KECCAK256 SWAP1 DUP1 PUSH2 0x14AC DUP6 DUP5 SLOAD PUSH2 0x2262 JUMP JUMPDEST DUP4 SSTORE PUSH2 0xCA6 JUMPI POP PUSH1 0xA DUP2 ADD PUSH2 0x14C2 DUP5 DUP3 SLOAD PUSH2 0x2262 JUMP JUMPDEST SWAP1 SSTORE SLOAD SWAP1 PUSH1 0xB DUP6 ADD SLOAD SWAP1 PUSH1 0x6 PUSH0 SWAP7 ADD SWAP6 JUMPDEST DUP7 SLOAD DUP2 LT ISZERO PUSH2 0x16F8 JUMPI PUSH2 0x14E5 DUP2 PUSH2 0x20AC JUMP JUMPDEST SWAP1 SLOAD SWAP1 PUSH1 0x3 SHL SHR SWAP4 DUP9 PUSH0 MSTORE PUSH1 0xE PUSH1 0x20 MSTORE PUSH1 0x40 PUSH0 KECCAK256 DUP6 PUSH0 MSTORE PUSH1 0x20 MSTORE PUSH1 0x40 PUSH0 KECCAK256 SWAP1 PUSH1 0x3 DUP3 ADD PUSH1 0xFF DUP2 SLOAD PUSH1 0x8 SHR AND DUP1 ISZERO SWAP1 DUP2 DUP1 SWAP3 PUSH2 0x16E2 JUMPI JUMPDEST ISZERO PUSH2 0x1566 JUMPI POP POP DUP1 SLOAD PUSH2 0xFF00 NOT AND PUSH2 0x100 OR SWAP1 SSTORE PUSH2 0x1541 SWAP2 SWAP1 DUP6 PUSH1 0xA PUSH2 0xA85 DUP3 DUP11 PUSH2 0x2439 JUMP JUMPDEST SWAP4 PUSH0 MSTORE PUSH1 0xC PUSH1 0x20 MSTORE PUSH1 0x40 PUSH0 KECCAK256 SWAP1 DUP2 SLOAD PUSH0 NOT DUP2 ADD SWAP1 DUP2 GT PUSH2 0xAB8 JUMPI PUSH1 0x1 SWAP3 SSTORE JUMPDEST ADD PUSH2 0x14D3 JUMP JUMPDEST DUP1 SWAP2 SWAP4 SWAP6 SWAP9 SWAP3 POP SWAP1 PUSH2 0x16CD JUMPI JUMPDEST ISZERO PUSH2 0x1591 JUMPI POP POP PUSH1 0x1 SWAP2 PUSH1 0x2 PUSH2 0x158B SWAP3 ADD SLOAD SWAP1 PUSH2 0x246A JUMP JUMPDEST SWAP4 PUSH2 0x1560 JUMP JUMPDEST SWAP3 SWAP6 SWAP3 DUP6 SWAP1 DUP3 PUSH2 0x16B5 JUMPI JUMPDEST POP POP PUSH2 0x15AB JUMPI POP PUSH1 0x1 SWAP1 PUSH2 0x1560 JUMP JUMPDEST SWAP2 SWAP5 SWAP7 POP POP PUSH1 0x1 SWAP2 POP SWAP6 SWAP4 SWAP6 ADD SSTORE JUMPDEST PUSH1 0x1 DUP1 PUSH1 0xA0 SHL SUB PUSH1 0x1 SLOAD AND PUSH1 0x40 MLOAD PUSH1 0x20 DUP2 ADD PUSH4 0xA9059CBB PUSH1 0xE0 SHL DUP2 MSTORE DUP4 PUSH1 0x24 DUP4 ADD MSTORE DUP6 PUSH1 0x44 DUP4 ADD MSTORE PUSH1 0x44 DUP3 MSTORE PUSH1 0x80 DUP3 ADD SWAP1 DUP3 DUP3 LT PUSH8 0xFFFFFFFFFFFFFFFF DUP4 GT OR PUSH2 0xC41 JUMPI PUSH1 0x20 SWAP3 PUSH0 SWAP3 PUSH1 0x40 MSTORE MLOAD SWAP1 DUP3 DUP6 GAS CALL ISZERO PUSH2 0xC36 JUMPI PUSH0 MLOAD RETURNDATASIZE PUSH2 0x16AC JUMPI POP DUP1 EXTCODESIZE ISZERO JUMPDEST PUSH2 0xC1B JUMPI POP PUSH32 0x8211032682F8FD8BE8FF252E0A106CDB6AD4B10427152B4D93C2BC9A1F11C3C2 SWAP4 DUP3 DUP1 PUSH2 0xC12 SWAP4 PUSH32 0x4D634C31300B97DAD99B3AF799178230163D88AD306370D063BE9CD992D0BE7F PUSH1 0x80 PUSH1 0x40 MLOAD DUP10 DUP2 MSTORE PUSH0 PUSH1 0x20 DUP3 ADD MSTORE PUSH1 0x8 PUSH1 0x40 DUP3 ADD MSTORE TIMESTAMP PUSH1 0x60 DUP3 ADD MSTORE LOG4 PUSH1 0x40 MLOAD SWAP4 DUP5 SWAP4 TIMESTAMP SWAP3 DUP6 SWAP1 SWAP5 SWAP4 SWAP3 PUSH1 0x60 SWAP3 PUSH1 0x80 DUP4 ADD SWAP7 DUP4 MSTORE PUSH1 0x20 DUP4 ADD MSTORE PUSH1 0x40 DUP3 ADD MSTORE ADD MSTORE JUMP JUMPDEST PUSH1 0x1 EQ ISZERO PUSH2 0x161D JUMP JUMPDEST PUSH1 0xA SWAP3 POP SWAP1 PUSH2 0x16C3 SWAP2 PUSH2 0x2439 JUMP JUMPDEST DIV DUP6 LT DUP5 PUSH0 PUSH2 0x159C JUMP JUMPDEST POP PUSH1 0xA PUSH2 0x16DA DUP8 DUP4 PUSH2 0x2439 JUMP JUMPDEST DIV DUP5 GT PUSH2 0x1573 JUMP JUMPDEST POP PUSH1 0xA PUSH2 0x16EF DUP10 DUP12 PUSH2 0x2439 JUMP JUMPDEST DIV DUP5 LT ISZERO PUSH2 0x151B JUMP JUMPDEST POP SWAP3 SWAP5 POP POP POP SWAP3 SWAP1 SWAP3 PUSH2 0x15BA JUMP JUMPDEST POP PUSH1 0x40 SLOAD DUP2 LT PUSH2 0x13CE JUMP JUMPDEST POP DUP1 DUP3 MSTORE PUSH1 0x43 PUSH1 0x20 MSTORE PUSH1 0x1 PUSH1 0xFF PUSH1 0x8 PUSH1 0x40 DUP6 KECCAK256 ADD SLOAD AND ISZERO ISZERO EQ PUSH2 0x13C8 JUMP JUMPDEST POP DUP1 ISZERO ISZERO PUSH2 0x13C2 JUMP JUMPDEST POP CALLVALUE PUSH2 0x37F JUMPI PUSH1 0x20 CALLDATASIZE PUSH1 0x3 NOT ADD SLT PUSH2 0x37F JUMPI PUSH1 0x4 CALLDATALOAD SWAP1 PUSH1 0x7 SLOAD DUP3 LT ISZERO PUSH2 0x37F JUMPI PUSH1 0x7 SLOAD DUP3 LT ISZERO PUSH2 0x42F JUMPI PUSH1 0x20 SWAP2 PUSH1 0x7 DUP3 MSTORE DUP3 DUP3 KECCAK256 ADD SLOAD SWAP1 PUSH1 0x3 SHL SHR PUSH1 0x40 MLOAD SWAP1 DUP2 MSTORE RETURN JUMPDEST PUSH2 0x2122 JUMP JUMPDEST POP CALLVALUE PUSH2 0x37F JUMPI PUSH1 0x20 CALLDATASIZE PUSH1 0x3 NOT ADD SLT PUSH2 0x37F JUMPI PUSH1 0x40 SWAP1 PUSH1 0x4 CALLDATALOAD DUP2 MSTORE PUSH1 0x10 PUSH1 0x20 MSTORE KECCAK256 PUSH2 0x180 MSTORE PUSH1 0x1 DUP1 PUSH1 0xA0 SHL SUB PUSH2 0x180 MLOAD SLOAD AND PUSH1 0x2 PUSH2 0x180 MLOAD ADD SLOAD PUSH2 0x100 MSTORE PUSH1 0x3 PUSH2 0x180 MLOAD ADD SLOAD PUSH2 0x140 MSTORE PUSH1 0x4 PUSH2 0x180 MLOAD ADD SLOAD PUSH1 0x5 PUSH2 0x180 MLOAD ADD SLOAD PUSH1 0x6 PUSH2 0x180 MLOAD ADD SLOAD PUSH1 0x7 PUSH2 0x180 MLOAD ADD SLOAD PUSH1 0x8 PUSH2 0x180 MLOAD ADD SLOAD PUSH1 0x9 PUSH2 0x180 MLOAD ADD SLOAD PUSH1 0xA PUSH2 0x180 MLOAD ADD SLOAD SWAP1 PUSH1 0xB PUSH2 0x180 MLOAD ADD SLOAD SWAP3 PUSH1 0xC PUSH2 0x180 MLOAD ADD SLOAD SWAP5 PUSH1 0xD PUSH2 0x180 MLOAD ADD SLOAD SWAP7 PUSH1 0xE PUSH2 0x180 MLOAD ADD SLOAD SWAP9 PUSH1 0xF PUSH2 0x180 MLOAD ADD SLOAD SWAP11 PUSH1 0x10 PUSH2 0x180 MLOAD ADD SLOAD SWAP13 PUSH1 0x11 PUSH2 0x180 MLOAD ADD SLOAD PUSH1 0x80 MSTORE PUSH1 0x12 PUSH2 0x180 MLOAD ADD SLOAD PUSH1 0xC0 MSTORE PUSH1 0x13 PUSH2 0x180 MLOAD ADD SLOAD PUSH2 0x160 MSTORE PUSH1 0x14 PUSH2 0x180 MLOAD ADD SLOAD PUSH2 0x120 MSTORE PUSH1 0x15 PUSH2 0x180 MLOAD ADD SLOAD PUSH1 0xE0 MSTORE PUSH1 0x40 MLOAD PUSH1 0xA0 MSTORE PUSH1 0xA0 MLOAD MSTORE PUSH2 0x100 MLOAD PUSH1 0x20 PUSH1 0xA0 MLOAD ADD MSTORE PUSH2 0x140 MLOAD PUSH1 0x40 PUSH1 0xA0 MLOAD ADD MSTORE PUSH1 0x60 PUSH1 0xA0 MLOAD ADD MSTORE PUSH1 0x80 PUSH1 0xA0 MLOAD ADD MSTORE PUSH1 0xA0 DUP1 MLOAD ADD MSTORE PUSH1 0xC0 PUSH1 0xA0 MLOAD ADD MSTORE PUSH1 0xE0 PUSH1 0xA0 MLOAD ADD MSTORE PUSH2 0x100 PUSH1 0xA0 MLOAD ADD MSTORE PUSH2 0x120 PUSH1 0xA0 MLOAD ADD MSTORE PUSH2 0x140 PUSH1 0xA0 MLOAD ADD MSTORE PUSH2 0x160 PUSH1 0xA0 MLOAD ADD MSTORE PUSH2 0x180 PUSH1 0xA0 MLOAD ADD MSTORE PUSH2 0x1A0 PUSH1 0xA0 MLOAD ADD MSTORE PUSH2 0x1C0 PUSH1 0xA0 MLOAD ADD MSTORE PUSH2 0x1E0 PUSH1 0xA0 MLOAD ADD MSTORE PUSH1 0x80 MLOAD PUSH2 0x200 PUSH1 0xA0 MLOAD ADD MSTORE PUSH1 0xC0 MLOAD PUSH2 0x220 PUSH1 0xA0 MLOAD ADD MSTORE PUSH2 0x160 MLOAD PUSH2 0x240 PUSH1 0xA0 MLOAD ADD MSTORE PUSH2 0x120 MLOAD PUSH2 0x260 PUSH1 0xA0 MLOAD ADD MSTORE PUSH1 0xE0 MLOAD PUSH2 0x280 PUSH1 0xA0 MLOAD ADD MSTORE PUSH2 0x2A0 PUSH1 0xA0 MLOAD RETURN JUMPDEST POP CALLVALUE PUSH2 0x37F JUMPI DUP1 PUSH1 0x3 NOT CALLDATASIZE ADD SLT PUSH2 0x37F JUMPI PUSH1 0x20 PUSH1 0x40 MLOAD PUSH8 0xDE0B6B3A7640000 DUP2 MSTORE RETURN JUMPDEST POP CALLVALUE PUSH2 0x37F JUMPI DUP1 PUSH1 0x3 NOT CALLDATASIZE ADD SLT PUSH2 0x37F JUMPI PUSH1 0x20 PUSH1 0x40 MLOAD PUSH3 0x15180 DUP2 MSTORE RETURN JUMPDEST POP CALLVALUE PUSH2 0x37F JUMPI DUP1 PUSH1 0x3 NOT CALLDATASIZE ADD SLT PUSH2 0x37F JUMPI PUSH1 0x20 PUSH1 0x40 MLOAD PUSH1 0x2 DUP2 MSTORE RETURN JUMPDEST POP CALLVALUE PUSH2 0x37F JUMPI DUP1 PUSH1 0x3 NOT CALLDATASIZE ADD SLT PUSH2 0x37F JUMPI PUSH1 0x20 PUSH1 0x3B SLOAD PUSH1 0x40 MLOAD SWAP1 DUP2 MSTORE RETURN JUMPDEST POP CALLVALUE PUSH2 0x37F JUMPI DUP1 PUSH1 0x3 NOT CALLDATASIZE ADD SLT PUSH2 0x37F JUMPI PUSH1 0x1 SLOAD PUSH1 0x40 MLOAD PUSH1 0x1 PUSH1 0x1 PUSH1 0xA0 SHL SUB SWAP1 SWAP2 AND DUP2 MSTORE PUSH1 0x20 SWAP1 RETURN JUMPDEST POP CALLVALUE PUSH2 0x37F JUMPI PUSH1 0x20 CALLDATASIZE PUSH1 0x3 NOT ADD SLT PUSH2 0x37F JUMPI PUSH1 0x4 CALLDATALOAD SWAP1 PUSH1 0x44 SLOAD DUP3 LT ISZERO PUSH2 0x37F JUMPI PUSH1 0x44 SLOAD DUP3 LT ISZERO PUSH2 0x42F JUMPI PUSH1 0x20 SWAP2 PUSH1 0x44 DUP3 MSTORE DUP3 DUP3 KECCAK256 ADD SLOAD SWAP1 PUSH1 0x3 SHL SHR PUSH1 0x40 MLOAD SWAP1 DUP2 MSTORE RETURN JUMPDEST POP CALLVALUE PUSH2 0x37F JUMPI DUP1 PUSH1 0x3 NOT CALLDATASIZE ADD SLT PUSH2 0x37F JUMPI PUSH1 0x20 PUSH1 0x40 MLOAD PUSH3 0x278D00 DUP2 MSTORE RETURN JUMPDEST POP CALLVALUE PUSH2 0x37F JUMPI PUSH1 0x20 CALLDATASIZE PUSH1 0x3 NOT ADD SLT PUSH2 0x37F JUMPI PUSH1 0x4 CALLDATALOAD SWAP1 PUSH1 0x17 SLOAD DUP3 LT ISZERO PUSH2 0x37F JUMPI PUSH1 0x17 SLOAD DUP3 LT ISZERO PUSH2 0x42F JUMPI PUSH1 0x20 SWAP2 PUSH1 0x17 DUP3 MSTORE DUP3 DUP3 KECCAK256 ADD SLOAD SWAP1 PUSH1 0x3 SHL SHR PUSH1 0x40 MLOAD SWAP1 DUP2 MSTORE RETURN JUMPDEST POP CALLVALUE PUSH2 0x37F JUMPI PUSH1 0x20 CALLDATASIZE PUSH1 0x3 NOT ADD SLT PUSH2 0x37F JUMPI PUSH1 0x4 CALLDATALOAD PUSH1 0x7 DUP2 LT ISZERO PUSH2 0x57A JUMPI PUSH1 0x20 SWAP2 POP PUSH1 0x18 ADD SLOAD PUSH1 0x40 MLOAD SWAP1 DUP2 MSTORE RETURN JUMPDEST CALLVALUE PUSH2 0x1EA6 JUMPI PUSH2 0x1AB8 CALLDATASIZE PUSH2 0x2056 JUMP JUMPDEST PUSH2 0x1AC0 PUSH2 0x23E5 JUMP JUMPDEST PUSH2 0x1AC8 PUSH2 0x2477 JUMP JUMPDEST PUSH2 0x1AD0 PUSH2 0x25F2 JUMP JUMPDEST PUSH2 0x1AD8 PUSH2 0x2721 JUMP JUMPDEST DUP2 PUSH0 MSTORE PUSH1 0x10 PUSH1 0x20 MSTORE PUSH2 0x1AF7 PUSH1 0x1 DUP1 PUSH1 0xA0 SHL SUB PUSH1 0x40 PUSH0 KECCAK256 SLOAD AND CALLER EQ PUSH2 0x213D JUMP JUMPDEST DUP2 ISZERO ISZERO DUP1 PUSH2 0x1E9D JUMPI JUMPDEST DUP1 PUSH2 0x1E7F JUMPI JUMPDEST DUP1 PUSH2 0x1E74 JUMPI JUMPDEST PUSH2 0x1B15 SWAP1 PUSH2 0x217C JUMP JUMPDEST DUP1 PUSH0 MSTORE PUSH1 0x3E PUSH1 0x20 MSTORE PUSH1 0x40 PUSH0 KECCAK256 DUP3 PUSH0 MSTORE PUSH1 0x20 MSTORE PUSH1 0x40 PUSH0 KECCAK256 SWAP1 DUP1 PUSH0 MSTORE PUSH1 0x3C PUSH1 0x20 MSTORE PUSH1 0x3 PUSH1 0x40 PUSH0 KECCAK256 SWAP3 ADD DUP1 SLOAD PUSH1 0x1 PUSH1 0xFF DUP3 PUSH1 0x8 SHR AND ISZERO ISZERO EQ SWAP1 DUP2 PUSH2 0x1E68 JUMPI JUMPDEST POP ISZERO PUSH2 0x1E24 JUMPI PUSH1 0x3 DUP4 ADD SLOAD SWAP1 DUP2 ISZERO SWAP4 PUSH2 0x1B6A DUP6 ISZERO PUSH2 0x21E1 JUMP JUMPDEST PUSH1 0x4 DUP2 ADD PUSH2 0x1B7F PUSH1 0x2 DUP3 SLOAD SWAP4 ADD SLOAD DUP4 LT PUSH2 0x2222 JUMP JUMPDEST PUSH1 0x1 DUP3 ADD DUP1 SWAP3 GT PUSH2 0xAB8 JUMPI SSTORE PUSH1 0x1 PUSH1 0xFF NOT DUP3 SLOAD AND OR SWAP1 SSTORE DUP4 PUSH0 MSTORE PUSH1 0x10 PUSH1 0x20 MSTORE PUSH1 0x40 PUSH0 KECCAK256 SWAP3 PUSH1 0x1 DUP1 PUSH1 0xA0 SHL SUB DUP5 SLOAD AND SWAP1 DUP2 ISZERO PUSH2 0xCED JUMPI PUSH2 0xCBA JUMPI DUP5 PUSH0 MSTORE PUSH1 0x11 PUSH1 0x20 MSTORE PUSH1 0x40 PUSH0 KECCAK256 PUSH2 0x1BCF DUP4 DUP3 SLOAD PUSH2 0x2262 JUMP JUMPDEST DUP2 SSTORE PUSH1 0x9 DUP2 ADD PUSH2 0x1BE0 DUP5 DUP3 SLOAD PUSH2 0x2262 JUMP JUMPDEST SWAP1 SSTORE SLOAD SWAP1 PUSH1 0xB DUP6 ADD SLOAD SWAP1 PUSH1 0x6 PUSH0 SWAP7 ADD SWAP6 JUMPDEST DUP7 SLOAD DUP2 LT ISZERO PUSH2 0x1E16 JUMPI PUSH2 0x1C03 DUP2 PUSH2 0x20AC JUMP JUMPDEST SWAP1 SLOAD SWAP1 PUSH1 0x3 SHL SHR SWAP4 DUP9 PUSH0 MSTORE PUSH1 0xE PUSH1 0x20 MSTORE PUSH1 0x40 PUSH0 KECCAK256 DUP6 PUSH0 MSTORE PUSH1 0x20 MSTORE PUSH1 0x40 PUSH0 KECCAK256 SWAP1 PUSH1 0x3 DUP3 ADD PUSH1 0xFF DUP2 SLOAD PUSH1 0x8 SHR AND DUP1 ISZERO SWAP1 DUP2 DUP1 SWAP3 PUSH2 0x1E00 JUMPI JUMPDEST ISZERO PUSH2 0x1C84 JUMPI POP POP DUP1 SLOAD PUSH2 0xFF00 NOT AND PUSH2 0x100 OR SWAP1 SSTORE PUSH2 0x1C5F SWAP2 SWAP1 DUP6 PUSH1 0xA PUSH2 0xA85 DUP3 DUP11 PUSH2 0x2439 JUMP JUMPDEST SWAP4 PUSH0 MSTORE PUSH1 0xC PUSH1 0x20 MSTORE PUSH1 0x40 PUSH0 KECCAK256 SWAP1 DUP2 SLOAD PUSH0 NOT DUP2 ADD SWAP1 DUP2 GT PUSH2 0xAB8 JUMPI PUSH1 0x1 SWAP3 SSTORE JUMPDEST ADD PUSH2 0x1BF1 JUMP JUMPDEST DUP1 SWAP2 SWAP4 SWAP6 SWAP9 SWAP3 POP SWAP1 PUSH2 0x1DEB JUMPI JUMPDEST ISZERO PUSH2 0x1CAF JUMPI POP POP PUSH1 0x1 SWAP2 PUSH1 0x2 PUSH2 0x1CA9 SWAP3 ADD SLOAD SWAP1 PUSH2 0x246A JUMP JUMPDEST SWAP4 PUSH2 0x1C7E JUMP JUMPDEST SWAP3 SWAP6 SWAP3 DUP6 SWAP1 DUP3 PUSH2 0x1DD3 JUMPI JUMPDEST POP POP PUSH2 0x1CC9 JUMPI POP PUSH1 0x1 SWAP1 PUSH2 0x1C7E JUMP JUMPDEST SWAP2 SWAP5 SWAP7 POP POP PUSH1 0x1 SWAP2 POP SWAP6 SWAP4 SWAP6 ADD SSTORE JUMPDEST PUSH1 0x1 DUP1 PUSH1 0xA0 SHL SUB PUSH1 0x1 SLOAD AND PUSH1 0x40 MLOAD PUSH1 0x20 DUP2 ADD PUSH4 0xA9059CBB PUSH1 0xE0 SHL DUP2 MSTORE DUP4 PUSH1 0x24 DUP4 ADD MSTORE DUP6 PUSH1 0x44 DUP4 ADD MSTORE PUSH1 0x44 DUP3 MSTORE PUSH1 0x80 DUP3 ADD SWAP1 DUP3 DUP3 LT PUSH8 0xFFFFFFFFFFFFFFFF DUP4 GT OR PUSH2 0xC41 JUMPI PUSH1 0x20 SWAP3 PUSH0 SWAP3 PUSH1 0x40 MSTORE MLOAD SWAP1 DUP3 DUP6 GAS CALL ISZERO PUSH2 0xC36 JUMPI PUSH0 MLOAD RETURNDATASIZE PUSH2 0x1DCA JUMPI POP DUP1 EXTCODESIZE ISZERO JUMPDEST PUSH2 0xC1B JUMPI POP PUSH32 0x96EE4F374D0394C5383B347DC3B7EC04A1ECEDDCD2E25521157BCE21C42B24D5 SWAP4 DUP3 DUP1 PUSH2 0xC12 SWAP4 PUSH32 0x4D634C31300B97DAD99B3AF799178230163D88AD306370D063BE9CD992D0BE7F PUSH1 0x80 PUSH1 0x40 MLOAD DUP10 DUP2 MSTORE PUSH0 PUSH1 0x20 DUP3 ADD MSTORE PUSH1 0x7 PUSH1 0x40 DUP3 ADD MSTORE TIMESTAMP PUSH1 0x60 DUP3 ADD MSTORE LOG4 PUSH1 0x40 MLOAD SWAP4 DUP5 SWAP4 TIMESTAMP SWAP3 DUP6 SWAP1 SWAP5 SWAP4 SWAP3 PUSH1 0x60 SWAP3 PUSH1 0x80 DUP4 ADD SWAP7 DUP4 MSTORE PUSH1 0x20 DUP4 ADD MSTORE PUSH1 0x40 DUP3 ADD MSTORE ADD MSTORE JUMP JUMPDEST PUSH1 0x1 EQ ISZERO PUSH2 0x1D3B JUMP JUMPDEST PUSH1 0xA SWAP3 POP SWAP1 PUSH2 0x1DE1 SWAP2 PUSH2 0x2439 JUMP JUMPDEST DIV DUP6 LT DUP5 DUP12 PUSH2 0x1CBA JUMP JUMPDEST POP PUSH1 0xA PUSH2 0x1DF8 DUP8 DUP4 PUSH2 0x2439 JUMP JUMPDEST DIV DUP5 GT PUSH2 0x1C91 JUMP JUMPDEST POP PUSH1 0xA PUSH2 0x1E0D DUP10 DUP12 PUSH2 0x2439 JUMP JUMPDEST DIV DUP5 LT ISZERO PUSH2 0x1C39 JUMP JUMPDEST POP SWAP3 SWAP5 POP POP POP SWAP3 SWAP1 SWAP3 PUSH2 0x1CD8 JUMP JUMPDEST PUSH1 0x64 PUSH1 0x40 MLOAD PUSH3 0x461BCD PUSH1 0xE5 SHL DUP2 MSTORE PUSH1 0x20 PUSH1 0x4 DUP3 ADD MSTORE PUSH1 0x20 PUSH1 0x24 DUP3 ADD MSTORE PUSH32 0x4E6F74207175616C6966696564206F7220616C726561647920636C61696D6564 PUSH1 0x44 DUP3 ADD MSTORE REVERT JUMPDEST PUSH1 0xFF SWAP2 POP AND ISZERO DUP6 PUSH2 0x1B51 JUMP JUMPDEST POP PUSH1 0x39 SLOAD DUP2 LT PUSH2 0x1B0C JUMP JUMPDEST POP DUP1 PUSH0 MSTORE PUSH1 0x3C PUSH1 0x20 MSTORE PUSH1 0x1 PUSH1 0xFF PUSH1 0x8 PUSH1 0x40 PUSH0 KECCAK256 ADD SLOAD AND ISZERO ISZERO EQ PUSH2 0x1B06 JUMP JUMPDEST POP DUP1 ISZERO ISZERO PUSH2 0x1B00 JUMP JUMPDEST PUSH0 DUP1 REVERT JUMPDEST CALLVALUE PUSH2 0x1EA6 JUMPI PUSH2 0x1EB8 CALLDATASIZE PUSH2 0x2056 JUMP JUMPDEST SWAP1 PUSH0 MSTORE PUSH1 0x33 PUSH1 0x20 MSTORE PUSH1 0x40 PUSH0 KECCAK256 DUP1 SLOAD DUP3 LT ISZERO PUSH2 0x1EA6 JUMPI PUSH1 0x20 SWAP2 PUSH2 0x3B4 SWAP2 PUSH2 0x20D8 JUMP JUMPDEST CALLVALUE PUSH2 0x1EA6 JUMPI PUSH2 0x1EE7 CALLDATASIZE PUSH2 0x20ED JUMP JUMPDEST SWAP2 PUSH0 MSTORE PUSH1 0x36 PUSH1 0x20 MSTORE PUSH1 0x40 PUSH0 KECCAK256 SWAP1 PUSH0 MSTORE PUSH1 0x20 MSTORE PUSH1 0x40 PUSH0 KECCAK256 DUP1 SLOAD DUP3 LT ISZERO PUSH2 0x1EA6 JUMPI PUSH1 0x20 SWAP2 PUSH2 0x3B4 SWAP2 PUSH2 0x20D8 JUMP JUMPDEST CALLVALUE PUSH2 0x1EA6 JUMPI PUSH2 0x1F20 CALLDATASIZE PUSH2 0x2056 JUMP JUMPDEST SWAP1 PUSH0 MSTORE PUSH1 0x3D PUSH1 0x20 MSTORE PUSH1 0x40 PUSH0 KECCAK256 DUP1 SLOAD DUP3 LT ISZERO PUSH2 0x1EA6 JUMPI PUSH1 0x20 SWAP2 PUSH2 0x3B4 SWAP2 PUSH2 0x20D8 JUMP JUMPDEST CALLVALUE PUSH2 0x1EA6 JUMPI PUSH1 0x20 CALLDATASIZE PUSH1 0x3 NOT ADD SLT PUSH2 0x1EA6 JUMPI PUSH1 0x4 CALLDATALOAD PUSH0 MSTORE PUSH1 0xC PUSH1 0x20 MSTORE PUSH1 0x20 PUSH1 0x40 PUSH0 KECCAK256 SLOAD PUSH1 0x40 MLOAD SWAP1 DUP2 MSTORE RETURN JUMPDEST CALLVALUE PUSH2 0x1EA6 JUMPI PUSH1 0x20 CALLDATASIZE PUSH1 0x3 NOT ADD SLT PUSH2 0x1EA6 JUMPI PUSH1 0x4 CALLDATALOAD PUSH0 MSTORE PUSH1 0x4A PUSH1 0x20 MSTORE PUSH1 0x40 PUSH0 KECCAK256 DUP1 SLOAD PUSH2 0x52C PUSH1 0x1 DUP4 ADD SLOAD SWAP3 PUSH1 0x2 DUP2 ADD SLOAD SWAP1 PUSH1 0x3 DUP2 ADD SLOAD PUSH1 0x4 DUP3 ADD SLOAD PUSH1 0x5 DUP4 ADD SLOAD SWAP1 PUSH1 0x6 DUP5 ADD SLOAD SWAP3 PUSH1 0xFF PUSH1 0x8 PUSH1 0x7 DUP8 ADD SLOAD SWAP7 ADD SLOAD AND SWAP6 PUSH1 0x40 MLOAD SWAP10 DUP11 SWAP10 DUP11 PUSH2 0x206C JUMP JUMPDEST CALLVALUE PUSH2 0x1EA6 JUMPI PUSH0 CALLDATASIZE PUSH1 0x3 NOT ADD SLT PUSH2 0x1EA6 JUMPI PUSH1 0x20 PUSH1 0x40 MLOAD PUSH2 0x2710 DUP2 MSTORE RETURN JUMPDEST CALLVALUE PUSH2 0x1EA6 JUMPI PUSH2 0x1FF5 CALLDATASIZE PUSH2 0x2056 JUMP JUMPDEST SWAP1 PUSH0 MSTORE PUSH1 0x3E PUSH1 0x20 MSTORE PUSH1 0x40 PUSH0 KECCAK256 SWAP1 PUSH0 MSTORE PUSH1 0x20 MSTORE DUP1 PUSH2 0x52C PUSH1 0x40 PUSH0 KECCAK256 DUP1 SLOAD PUSH1 0x1 DUP3 ADD SLOAD SWAP2 PUSH1 0x3 PUSH1 0x2 DUP3 ADD SLOAD SWAP2 ADD SLOAD SWAP3 PUSH1 0xFF DUP1 DUP6 PUSH1 0x8 SHR AND SWAP5 AND SWAP3 DUP7 SWAP4 SWAP1 SWAP6 SWAP5 SWAP2 SWAP3 PUSH1 0x80 SWAP4 PUSH1 0xA0 DUP7 ADD SWAP8 DUP7 MSTORE PUSH1 0x20 DUP7 ADD MSTORE PUSH1 0x40 DUP6 ADD MSTORE ISZERO ISZERO PUSH1 0x60 DUP5 ADD MSTORE ISZERO ISZERO SWAP2 ADD MSTORE JUMP JUMPDEST PUSH1 0x40 SWAP1 PUSH1 0x3 NOT ADD SLT PUSH2 0x1EA6 JUMPI PUSH1 0x4 CALLDATALOAD SWAP1 PUSH1 0x24 CALLDATALOAD SWAP1 JUMP JUMPDEST SWAP8 SWAP5 SWAP2 SWAP3 PUSH2 0x100 SWAP8 SWAP5 SWAP2 SWAP11 SWAP10 SWAP7 SWAP4 PUSH2 0x120 DUP11 ADD SWAP12 DUP11 MSTORE PUSH1 0x20 DUP11 ADD MSTORE PUSH1 0x40 DUP10 ADD MSTORE PUSH1 0x60 DUP9 ADD MSTORE PUSH1 0x80 DUP8 ADD MSTORE PUSH1 0xA0 DUP7 ADD MSTORE PUSH1 0xC0 DUP6 ADD MSTORE PUSH1 0xE0 DUP5 ADD MSTORE ISZERO ISZERO SWAP2 ADD MSTORE JUMP JUMPDEST PUSH1 0xD SLOAD DUP2 LT ISZERO PUSH2 0x20C4 JUMPI PUSH1 0xD PUSH0 MSTORE PUSH1 0x20 PUSH0 KECCAK256 ADD SWAP1 PUSH0 SWAP1 JUMP JUMPDEST PUSH4 0x4E487B71 PUSH1 0xE0 SHL PUSH0 MSTORE PUSH1 0x32 PUSH1 0x4 MSTORE PUSH1 0x24 PUSH0 REVERT JUMPDEST DUP1 SLOAD DUP3 LT ISZERO PUSH2 0x20C4 JUMPI PUSH0 MSTORE PUSH1 0x20 PUSH0 KECCAK256 ADD SWAP1 PUSH0 SWAP1 JUMP JUMPDEST PUSH1 0x60 SWAP1 PUSH1 0x3 NOT ADD SLT PUSH2 0x1EA6 JUMPI PUSH1 0x4 CALLDATALOAD SWAP1 PUSH1 0x24 CALLDATALOAD SWAP1 PUSH1 0x44 CALLDATALOAD SWAP1 JUMP JUMPDEST CALLVALUE PUSH2 0x1EA6 JUMPI PUSH0 CALLDATASIZE PUSH1 0x3 NOT ADD SLT PUSH2 0x1EA6 JUMPI PUSH1 0x20 PUSH1 0x40 MLOAD PUSH1 0xA DUP2 MSTORE RETURN JUMPDEST CALLVALUE PUSH2 0x1EA6 JUMPI PUSH0 CALLDATASIZE PUSH1 0x3 NOT ADD SLT PUSH2 0x1EA6 JUMPI PUSH1 0x20 PUSH1 0x40 MLOAD PUSH1 0xF DUP2 MSTORE RETURN JUMPDEST ISZERO PUSH2 0x2144 JUMPI JUMP JUMPDEST PUSH1 0x40 MLOAD PUSH3 0x461BCD PUSH1 0xE5 SHL DUP2 MSTORE PUSH1 0x20 PUSH1 0x4 DUP3 ADD MSTORE PUSH1 0x10 PUSH1 0x24 DUP3 ADD MSTORE PUSH16 0x139BDD081E5BDD5C881858D8DBDD5B9D PUSH1 0x82 SHL PUSH1 0x44 DUP3 ADD MSTORE PUSH1 0x64 SWAP1 REVERT JUMPDEST ISZERO PUSH2 0x2183 JUMPI JUMP JUMPDEST PUSH1 0x40 MLOAD PUSH3 0x461BCD PUSH1 0xE5 SHL DUP2 MSTORE PUSH1 0x20 PUSH1 0x4 DUP3 ADD MSTORE PUSH1 0x30 PUSH1 0x24 DUP3 ADD MSTORE PUSH32 0x496E76616C696420757365724964206F7220726F756E644964206F7220726F75 PUSH1 0x44 DUP3 ADD MSTORE PUSH16 0x1B99081BDC881B9BDD0818DB1BDCD959 PUSH1 0x82 SHL PUSH1 0x64 DUP3 ADD MSTORE PUSH1 0x84 SWAP1 REVERT JUMPDEST ISZERO PUSH2 0x21E8 JUMPI JUMP JUMPDEST PUSH1 0x40 MLOAD PUSH3 0x461BCD PUSH1 0xE5 SHL DUP2 MSTORE PUSH1 0x20 PUSH1 0x4 DUP3 ADD MSTORE PUSH1 0x12 PUSH1 0x24 DUP3 ADD MSTORE PUSH18 0x4E6F2072657761726420746F20636C61696D PUSH1 0x70 SHL PUSH1 0x44 DUP3 ADD MSTORE PUSH1 0x64 SWAP1 REVERT JUMPDEST ISZERO PUSH2 0x2229 JUMPI JUMP JUMPDEST PUSH1 0x40 MLOAD PUSH3 0x461BCD PUSH1 0xE5 SHL DUP2 MSTORE PUSH1 0x20 PUSH1 0x4 DUP3 ADD MSTORE PUSH1 0x11 PUSH1 0x24 DUP3 ADD MSTORE PUSH17 0x105B1B081D5CD95C9CC818DB185A5B5959 PUSH1 0x7A SHL PUSH1 0x44 DUP3 ADD MSTORE PUSH1 0x64 SWAP1 REVERT JUMPDEST SWAP2 SWAP1 DUP3 ADD DUP1 SWAP3 GT PUSH2 0xAB8 JUMPI JUMP JUMPDEST ISZERO PUSH2 0x2276 JUMPI JUMP JUMPDEST PUSH1 0x40 MLOAD PUSH3 0x461BCD PUSH1 0xE5 SHL DUP2 MSTORE PUSH1 0x20 PUSH1 0x4 DUP3 ADD MSTORE PUSH1 0xE PUSH1 0x24 DUP3 ADD MSTORE PUSH14 0x2737BA1038BAB0B634B334B2B21 PUSH1 0x95 SHL PUSH1 0x44 DUP3 ADD MSTORE PUSH1 0x64 SWAP1 REVERT JUMPDEST ISZERO PUSH2 0x22B3 JUMPI JUMP JUMPDEST PUSH1 0x40 MLOAD PUSH3 0x461BCD PUSH1 0xE5 SHL DUP2 MSTORE PUSH1 0x20 PUSH1 0x4 DUP3 ADD MSTORE PUSH1 0x1E PUSH1 0x24 DUP3 ADD MSTORE PUSH32 0x416C726561647920636C61696D656420666F72207468697320726F756E640000 PUSH1 0x44 DUP3 ADD MSTORE PUSH1 0x64 SWAP1 REVERT JUMPDEST ISZERO PUSH2 0x22FF JUMPI JUMP JUMPDEST PUSH1 0x40 MLOAD PUSH3 0x461BCD PUSH1 0xE5 SHL DUP2 MSTORE PUSH1 0x20 PUSH1 0x4 DUP3 ADD MSTORE PUSH1 0x15 PUSH1 0x24 DUP3 ADD MSTORE PUSH21 0x4E6F7420656C696769626C6520746F20636C61696D PUSH1 0x58 SHL PUSH1 0x44 DUP3 ADD MSTORE PUSH1 0x64 SWAP1 REVERT JUMPDEST PUSH0 MSTORE PUSH1 0x45 PUSH1 0x20 MSTORE PUSH1 0x40 PUSH0 KECCAK256 DUP2 PUSH0 MSTORE PUSH1 0x43 PUSH1 0x20 MSTORE PUSH1 0x40 PUSH0 KECCAK256 SWAP1 PUSH1 0xFF PUSH1 0x8 DUP4 ADD SLOAD AND ISZERO SWAP3 DUP4 ISZERO PUSH2 0x23D8 JUMPI JUMPDEST DUP4 ISZERO PUSH2 0x23C8 JUMPI JUMPDEST DUP4 ISZERO PUSH2 0x23B9 JUMPI JUMPDEST DUP4 ISZERO PUSH2 0x239E JUMPI JUMPDEST POP POP DUP2 ISZERO PUSH2 0x2391 JUMPI JUMPDEST POP PUSH2 0x238D JUMPI PUSH1 0x1 SWAP1 JUMP JUMPDEST PUSH0 SWAP1 JUMP JUMPDEST PUSH1 0x3 SWAP2 POP ADD SLOAD ISZERO PUSH0 PUSH2 0x2383 JUMP JUMPDEST PUSH1 0x3 SWAP3 SWAP4 POP PUSH0 MSTORE ADD PUSH1 0x20 MSTORE PUSH1 0xFF PUSH1 0x40 PUSH0 KECCAK256 SLOAD AND SWAP1 PUSH0 DUP1 PUSH2 0x237A JUMP JUMPDEST DUP1 SWAP4 POP PUSH1 0x1 DUP3 ADD SLOAD GT SWAP3 PUSH2 0x2373 JUMP JUMPDEST PUSH1 0x4 DUP3 ADD SLOAD PUSH1 0xFF AND ISZERO SWAP4 POP PUSH2 0x236C JUMP JUMPDEST PUSH1 0x40 SLOAD DUP2 LT ISZERO SWAP4 POP PUSH2 0x2365 JUMP JUMPDEST PUSH1 0x2 PUSH0 SLOAD EQ PUSH2 0x23F4 JUMPI PUSH1 0x2 PUSH0 SSTORE JUMP JUMPDEST PUSH1 0x40 MLOAD PUSH3 0x461BCD PUSH1 0xE5 SHL DUP2 MSTORE PUSH1 0x20 PUSH1 0x4 DUP3 ADD MSTORE PUSH1 0x1F PUSH1 0x24 DUP3 ADD MSTORE PUSH32 0x5265656E7472616E637947756172643A207265656E7472616E742063616C6C00 PUSH1 0x44 DUP3 ADD MSTORE PUSH1 0x64 SWAP1 REVERT JUMPDEST DUP2 DUP2 MUL SWAP3 SWAP2 DUP2 ISZERO SWAP2 DUP5 DIV EQ OR ISZERO PUSH2 0xAB8 JUMPI JUMP JUMPDEST DUP2 ISZERO PUSH2 0x2456 JUMPI DIV SWAP1 JUMP JUMPDEST PUSH4 0x4E487B71 PUSH1 0xE0 SHL PUSH0 MSTORE PUSH1 0x12 PUSH1 0x4 MSTORE PUSH1 0x24 PUSH0 REVERT JUMPDEST SWAP2 SWAP1 DUP3 SUB SWAP2 DUP3 GT PUSH2 0xAB8 JUMPI JUMP JUMPDEST PUSH1 0x3A SLOAD PUSH3 0x93A80 DUP2 ADD DUP1 SWAP2 GT PUSH2 0xAB8 JUMPI TIMESTAMP LT ISZERO PUSH2 0x2490 JUMPI JUMP JUMPDEST PUSH1 0x39 SLOAD DUP1 PUSH0 MSTORE PUSH1 0x3C PUSH1 0x20 MSTORE PUSH1 0x40 PUSH0 KECCAK256 PUSH1 0x8 DUP2 ADD SWAP2 DUP3 SLOAD SWAP3 PUSH1 0xFF DUP5 AND PUSH2 0x25EC JUMPI PUSH0 DUP3 DUP2 MSTORE PUSH1 0x3D PUSH1 0x20 MSTORE PUSH1 0x40 SWAP1 KECCAK256 SLOAD SWAP3 DUP4 ISZERO PUSH2 0x25DF JUMPI PUSH1 0x3B SLOAD SWAP2 PUSH2 0x24D2 DUP6 DUP5 PUSH2 0x244C JUMP JUMPDEST PUSH9 0x3635C9ADC5DEA00000 DUP2 GT ISZERO PUSH2 0x25D9 JUMPI POP PUSH9 0x3635C9ADC5DEA00000 SWAP2 JUMPDEST PUSH2 0x24FA DUP7 DUP5 PUSH2 0x2439 JUMP JUMPDEST SWAP4 DUP5 DUP1 DUP3 GT ISZERO PUSH2 0x25D1 JUMPI PUSH2 0x250D SWAP2 PUSH2 0x246A JUMP JUMPDEST SWAP2 JUMPDEST DUP6 DUP3 SSTORE DUP4 PUSH1 0x3 DUP4 ADD SSTORE DUP7 PUSH1 0x2 DUP4 ADD SSTORE PUSH1 0x3B SLOAD PUSH1 0x1 DUP4 ADD SSTORE DUP3 PUSH1 0x7 DUP4 ADD SSTORE PUSH1 0x3A SLOAD SWAP2 PUSH3 0x93A80 DUP4 ADD DUP1 SWAP4 GT PUSH2 0xAB8 JUMPI PUSH1 0x6 PUSH1 0x1 SWAP2 ADD SWAP9 DUP4 DUP11 SSTORE PUSH1 0xFF NOT AND OR SWAP1 SSTORE PUSH1 0x3A SSTORE PUSH1 0x1 DUP5 ADD SWAP3 DUP4 DUP6 GT PUSH2 0xAB8 JUMPI PUSH32 0xCA8A78D1841A8DAFBB8FF53C869B3FA9A69ABD051022178024F84B680FFD2E3C SWAP7 PUSH2 0x25CC SWAP5 PUSH1 0x39 SSTORE DUP3 PUSH1 0x3B SSTORE PUSH2 0x2594 DUP4 DUP4 PUSH2 0x2262 JUMP JUMPDEST SWAP1 SLOAD SWAP4 PUSH1 0x40 MLOAD SWAP8 DUP9 SWAP8 DUP9 SWAP4 SWAP1 SWAP8 SWAP7 SWAP6 SWAP3 PUSH1 0xC0 SWAP6 SWAP3 PUSH1 0xE0 DUP7 ADD SWAP10 DUP7 MSTORE PUSH1 0x20 DUP7 ADD MSTORE PUSH1 0x40 DUP6 ADD MSTORE PUSH1 0x60 DUP5 ADD MSTORE PUSH1 0x80 DUP4 ADD MSTORE PUSH1 0xA0 DUP3 ADD MSTORE ADD MSTORE JUMP JUMPDEST SUB SWAP1 LOG1 JUMP JUMPDEST POP POP PUSH0 PUSH2 0x250D JUMP JUMPDEST SWAP2 PUSH2 0x24F0 JUMP JUMPDEST SWAP1 PUSH1 0x3B SLOAD PUSH0 SWAP3 PUSH0 SWAP3 PUSH2 0x250F JUMP JUMPDEST POP POP POP POP JUMP JUMPDEST PUSH1 0x41 SLOAD PUSH3 0x278D00 DUP2 ADD DUP1 SWAP2 GT PUSH2 0xAB8 JUMPI TIMESTAMP LT ISZERO PUSH2 0x260B JUMPI JUMP JUMPDEST PUSH1 0x40 SLOAD DUP1 PUSH0 MSTORE PUSH1 0x43 PUSH1 0x20 MSTORE PUSH1 0x40 PUSH0 KECCAK256 PUSH1 0x8 DUP2 ADD SWAP2 DUP3 SLOAD SWAP3 PUSH1 0xFF DUP5 AND PUSH2 0x25EC JUMPI PUSH1 0x44 SLOAD SWAP3 DUP4 ISZERO PUSH2 0x2714 JUMPI PUSH1 0x42 SLOAD SWAP2 PUSH2 0x2642 DUP6 DUP5 PUSH2 0x244C JUMP JUMPDEST PUSH10 0x21E19E0C9BAB2400000 DUP2 GT ISZERO PUSH2 0x270E JUMPI POP PUSH10 0x21E19E0C9BAB2400000 SWAP2 JUMPDEST PUSH2 0x266C DUP7 DUP5 PUSH2 0x2439 JUMP JUMPDEST SWAP4 DUP5 DUP1 DUP3 GT ISZERO PUSH2 0x2706 JUMPI PUSH2 0x267F SWAP2 PUSH2 0x246A JUMP JUMPDEST SWAP2 JUMPDEST DUP6 DUP3 SSTORE DUP4 PUSH1 0x3 DUP4 ADD SSTORE DUP7 PUSH1 0x2 DUP4 ADD SSTORE PUSH1 0x42 SLOAD PUSH1 0x1 DUP4 ADD SSTORE DUP3 PUSH1 0x7 DUP4 ADD SSTORE PUSH1 0x41 SLOAD SWAP2 PUSH3 0x278D00 DUP4 ADD DUP1 SWAP4 GT PUSH2 0xAB8 JUMPI PUSH1 0x6 PUSH1 0x1 SWAP2 ADD SWAP9 DUP4 DUP11 SSTORE PUSH1 0xFF NOT AND OR SWAP1 SSTORE PUSH1 0x41 SSTORE PUSH1 0x1 DUP5 ADD SWAP3 DUP4 DUP6 GT PUSH2 0xAB8 JUMPI PUSH32 0x1B674071ADFA65DB18518E4868AE7D5F54DD365C69E0BABE9B704CBADE8FE4BB SWAP7 PUSH2 0x25CC SWAP5 PUSH1 0x40 SSTORE DUP3 PUSH1 0x42 SSTORE PUSH2 0x2594 DUP4 DUP4 PUSH2 0x2262 JUMP JUMPDEST POP POP PUSH0 PUSH2 0x267F JUMP JUMPDEST SWAP2 PUSH2 0x2662 JUMP JUMPDEST SWAP1 PUSH1 0x42 SLOAD PUSH0 SWAP3 PUSH0 SWAP3 PUSH2 0x2681 JUMP JUMPDEST PUSH1 0x48 SLOAD PUSH3 0x278D00 DUP2 ADD DUP1 SWAP2 GT PUSH2 0xAB8 JUMPI TIMESTAMP LT PUSH2 0x2817 JUMPI PUSH1 0x47 SLOAD DUP1 PUSH0 MSTORE PUSH1 0x4A PUSH1 0x20 MSTORE PUSH1 0x40 PUSH0 KECCAK256 PUSH1 0x8 DUP2 ADD SWAP2 DUP3 SLOAD SWAP3 PUSH1 0xFF DUP5 AND PUSH2 0x25EC JUMPI PUSH1 0x4B SLOAD SWAP3 DUP4 ISZERO PUSH2 0x280A JUMPI PUSH1 0x49 SLOAD SWAP2 PUSH2 0x276E DUP6 DUP5 PUSH2 0x244C JUMP JUMPDEST SWAP2 PUSH2 0x2783 PUSH2 0x277C DUP8 DUP6 PUSH2 0x2439 JUMP JUMPDEST DUP1 SWAP6 PUSH2 0x246A JUMP JUMPDEST SWAP2 JUMPDEST DUP6 DUP3 SSTORE DUP4 PUSH1 0x3 DUP4 ADD SSTORE DUP7 PUSH1 0x2 DUP4 ADD SSTORE PUSH1 0x49 SLOAD PUSH1 0x1 DUP4 ADD SSTORE DUP3 PUSH1 0x7 DUP4 ADD SSTORE PUSH1 0x48 SLOAD SWAP2 PUSH3 0x278D00 DUP4 ADD DUP1 SWAP4 GT PUSH2 0xAB8 JUMPI PUSH1 0x6 PUSH1 0x1 SWAP2 ADD SWAP9 DUP4 DUP11 SSTORE PUSH1 0xFF NOT AND OR SWAP1 SSTORE PUSH1 0x48 SSTORE PUSH1 0x1 DUP5 ADD SWAP3 DUP4 DUP6 GT PUSH2 0xAB8 JUMPI PUSH32 0x3E2269A22C7571B51C53565ECE51DA09613519B306C6DDE588BEEA1F5FD3CFD3 SWAP7 PUSH2 0x25CC SWAP5 PUSH1 0x47 SSTORE DUP3 PUSH1 0x49 SSTORE PUSH2 0x2594 DUP4 DUP4 PUSH2 0x2262 JUMP JUMPDEST SWAP1 PUSH1 0x49 SLOAD PUSH0 SWAP3 PUSH0 SWAP3 PUSH2 0x2785 JUMP JUMPDEST JUMP INVALID LOG2 PUSH5 0x6970667358 0x22 SLT KECCAK256 0xD6 0xA6 JUMPI PUSH2 0xE6CB 0xC1 0xBB EXTCALL COINBASE 0x4B 0xD4 PUSH1 0x82 SWAP15 PUSH28 0xA22BC32505921824E3840AB8E6733B4C64736F6C634300081E003300 "
		},
		"gasEstimates": {
			"creation": {
				"codeDepositCost": "2063800",
				"executionCost": "infinite",
				"totalCost": "infinite"
			},
			"external": {
				"ACC_PRECISION()": "584",
				"MONTHLY_ROYALTY_DIRECT()": "1640",
				"MONTHLY_ROYALTY_LEVEL()": "417",
				"MONTHLY_ROYALTY_TIME()": "1332",
				"MONTH_DURATION()": "430",
				"PERCENTS_DIVIDER()": "207",
				"ROI_2X_TIME()": "694",
				"ROI_CAP_DIVIDER()": "857",
				"ROI_CAP_MULTIPLIER()": "637",
				"TIME_STEP()": "562",
				"TOP_ROYALTY_DIRECT()": "540",
				"TOP_ROYALTY_LEVEL()": "461",
				"TOP_ROYALTY_TIME()": "980",
				"WEEK_DURATION()": "1024",
				"WeeklyCapping()": "1728",
				"WeeklyTotalReward()": "2621",
				"addressToId(address)": "3792",
				"boosterUsers(uint256,uint256)": "8055",
				"canClaimMonthlyReward(uint256,uint256)": "14267",
				"claimMonthlyCRoyaltyReward(uint256,uint256)": "infinite",
				"claimTopRoyaltyReward(uint256,uint256)": "infinite",
				"claimWeeklyContestReward(uint256,uint256)": "infinite",
				"communityAccPerPackage(uint256)": "2907",
				"communityAccPerUser()": "3149",
				"communityDebt(uint256,uint256)": "3408",
				"creatorWallet()": "3195",
				"currentMonthlyRound()": "3633",
				"currentMonthlyStartTime()": "3787",
				"currentWeeklyRound()": "3655",
				"currentWeeklyStartTime()": "3936",
				"defaultRefId()": "3853",
				"directReferrals(uint256,uint256)": "7505",
				"glbBoosterPackages(uint256)": "6814",
				"incomeHistory(uint256,uint256)": "13976",
				"matrixDirect(uint256)": "3281",
				"minLevelForGlbBooster(uint256)": "3760",
				"minLevelForPool(uint256)": "2506",
				"minPoolForGlbBooster(uint256)": "3364",
				"monthlyCapping()": "1508",
				"monthlyQualifiedUsers(uint256)": "6902",
				"monthlyRoyaltyUserdtl(uint256)": "9332",
				"monthlyRoyaltydtl(uint256)": "20230",
				"monthlyTotalReward()": "3413",
				"monthlyUserDirects(uint256,uint256)": "8385",
				"packageQualifiedUsers(uint256)": "2419",
				"packages(uint256)": "7903",
				"poolPackages(uint256)": "7782",
				"poolUsers(uint256,uint256)": "6879",
				"registeredUserIds(uint256)": "7078",
				"systemMaintance()": "3833",
				"teamDevelopment()": "3921",
				"teams(uint256,uint256,uint256)": "7511",
				"topRoyaltyQualifiedUsers(uint256)": "8200",
				"topRoyaltyReward()": "3017",
				"topRoyaltyRound()": "2885",
				"topRoyaltyStartTime()": "3369",
				"topRoyaltyUserDirects(uint256,uint256)": "7373",
				"topRoyaltyUserdtl(uint256)": "10278",
				"topRoyaltydtl(uint256)": "19500",
				"totalUsers()": "3523",
				"usdt()": "2623",
				"userBoosterChildren(uint256,uint256,uint256)": "6927",
				"userBoosterdtl(uint256,uint256)": "12039",
				"userChildren(uint256,uint256,uint256)": "7819",
				"userHasPool(uint256,uint256)": "3662",
				"userHasbooster(uint256,uint256)": "3574",
				"userIdPerPool(uint256,uint256,uint256)": "7797",
				"userIncomes(uint256)": "26318",
				"userPackage(uint256,uint256)": "9658",
				"userPooldtl(uint256,uint256)": "12435",
				"userPooltopup(uint256,uint256)": "5799",
				"users(uint256)": "45524",
				"weeklyContestdtl(uint256)": "20736",
				"weeklyQualifiedUsers(uint256,uint256)": "6835",
				"weeklyUserDirects(uint256,uint256,uint256)": "7467",
				"weeklyUserdtl(uint256,uint256)": "8934"
			}
		},
		"methodIdentifiers": {
			"ACC_PRECISION()": "32fcd966",
			"MONTHLY_ROYALTY_DIRECT()": "d2f0490d",
			"MONTHLY_ROYALTY_LEVEL()": "23fd338e",
			"MONTHLY_ROYALTY_TIME()": "a5e52b99",
			"MONTH_DURATION()": "2a891534",
			"PERCENTS_DIVIDER()": "01c234a8",
			"ROI_2X_TIME()": "3a5084b3",
			"ROI_CAP_DIVIDER()": "58c7d352",
			"ROI_CAP_MULTIPLIER()": "375b43b4",
			"TIME_STEP()": "32bc298c",
			"TOP_ROYALTY_DIRECT()": "31bb6a30",
			"TOP_ROYALTY_LEVEL()": "2ae0ee0d",
			"TOP_ROYALTY_TIME()": "705fee2d",
			"WEEK_DURATION()": "76f5f700",
			"WeeklyCapping()": "ebe0ff15",
			"WeeklyTotalReward()": "3080b5bc",
			"addressToId(address)": "cb0e0d7d",
			"boosterUsers(uint256,uint256)": "c7bb62e8",
			"canClaimMonthlyReward(uint256,uint256)": "7d846e38",
			"claimMonthlyCRoyaltyReward(uint256,uint256)": "39f2e64a",
			"claimTopRoyaltyReward(uint256,uint256)": "97358004",
			"claimWeeklyContestReward(uint256,uint256)": "16298056",
			"communityAccPerPackage(uint256)": "45cb537c",
			"communityAccPerUser()": "78f6ad6d",
			"communityDebt(uint256,uint256)": "89043ece",
			"creatorWallet()": "7cdc65f2",
			"currentMonthlyRound()": "c9ed0708",
			"currentMonthlyStartTime()": "e898fc38",
			"currentWeeklyRound()": "ca8e9121",
			"currentWeeklyStartTime()": "fddc806f",
			"defaultRefId()": "ec597e6f",
			"directReferrals(uint256,uint256)": "5ec64a44",
			"glbBoosterPackages(uint256)": "2350268f",
			"incomeHistory(uint256,uint256)": "70c8d770",
			"matrixDirect(uint256)": "88afbe3e",
			"minLevelForGlbBooster(uint256)": "d0a2fd79",
			"minLevelForPool(uint256)": "2132d204",
			"minPoolForGlbBooster(uint256)": "956a3228",
			"monthlyCapping()": "c8df2908",
			"monthlyQualifiedUsers(uint256)": "2d66014f",
			"monthlyRoyaltyUserdtl(uint256)": "4036436c",
			"monthlyRoyaltydtl(uint256)": "6a424782",
			"monthlyTotalReward()": "a59d17d1",
			"monthlyUserDirects(uint256,uint256)": "f7a24806",
			"packageQualifiedUsers(uint256)": "0676d0d6",
			"packages(uint256)": "c216212a",
			"poolPackages(uint256)": "ae4708dc",
			"poolUsers(uint256,uint256)": "0f2b7cc9",
			"registeredUserIds(uint256)": "39ab3603",
			"systemMaintance()": "e9e34a16",
			"teamDevelopment()": "f5d74d93",
			"teams(uint256,uint256,uint256)": "5aabf7f1",
			"topRoyaltyQualifiedUsers(uint256)": "f5748c4f",
			"topRoyaltyReward()": "5b62d1d5",
			"topRoyaltyRound()": "4b8cbf9b",
			"topRoyaltyStartTime()": "9b40ab97",
			"topRoyaltyUserDirects(uint256,uint256)": "4d12ae0f",
			"topRoyaltyUserdtl(uint256)": "db27cc71",
			"topRoyaltydtl(uint256)": "056b4d1f",
			"totalUsers()": "bff1f9e1",
			"usdt()": "2f48ab7d",
			"userBoosterChildren(uint256,uint256,uint256)": "0ef81b74",
			"userBoosterdtl(uint256,uint256)": "907c84a7",
			"userChildren(uint256,uint256,uint256)": "8f030ece",
			"userHasPool(uint256,uint256)": "bd1aae40",
			"userHasbooster(uint256,uint256)": "9c383486",
			"userIdPerPool(uint256,uint256,uint256)": "8d58644c",
			"userIncomes(uint256)": "46b9dece",
			"userPackage(uint256,uint256)": "5b58ce6c",
			"userPooldtl(uint256,uint256)": "ce79c2c3",
			"userPooltopup(uint256,uint256)": "bf724672",
			"users(uint256)": "365b98b2",
			"weeklyContestdtl(uint256)": "c4eb42a5",
			"weeklyQualifiedUsers(uint256,uint256)": "0a5c5d69",
			"weeklyUserDirects(uint256,uint256,uint256)": "4d4cc5ca",
			"weeklyUserdtl(uint256,uint256)": "0054815d"
		}
	},
	"abi": [
		{
			"inputs": [],
			"stateMutability": "nonpayable",
			"type": "constructor"
		},
		{
			"inputs": [
				{
					"internalType": "address",
					"name": "token",
					"type": "address"
				}
			],
			"name": "SafeERC20FailedOperation",
			"type": "error"
		},
		{
			"anonymous": false,
			"inputs": [
				{
					"indexed": false,
					"internalType": "uint256",
					"name": "amount",
					"type": "uint256"
				},
				{
					"indexed": false,
					"internalType": "uint256",
					"name": "usersCount",
					"type": "uint256"
				},
				{
					"indexed": false,
					"internalType": "uint256",
					"name": "perUser",
					"type": "uint256"
				}
			],
			"name": "CommunityBonusDistributed",
			"type": "event"
		},
		{
			"anonymous": false,
			"inputs": [
				{
					"indexed": true,
					"internalType": "address",
					"name": "to",
					"type": "address"
				},
				{
					"indexed": true,
					"internalType": "address",
					"name": "from",
					"type": "address"
				},
				{
					"indexed": false,
					"internalType": "uint256",
					"name": "amount",
					"type": "uint256"
				},
				{
					"indexed": false,
					"internalType": "uint256",
					"name": "packageLevel",
					"type": "uint256"
				},
				{
					"indexed": false,
					"internalType": "uint256",
					"name": "incomeType",
					"type": "uint256"
				}
			],
			"name": "IncomeDistributed",
			"type": "event"
		},
		{
			"anonymous": false,
			"inputs": [
				{
					"indexed": true,
					"internalType": "address",
					"name": "to",
					"type": "address"
				},
				{
					"indexed": true,
					"internalType": "uint256",
					"name": "toId",
					"type": "uint256"
				},
				{
					"indexed": true,
					"internalType": "uint256",
					"name": "fromId",
					"type": "uint256"
				},
				{
					"indexed": false,
					"internalType": "uint256",
					"name": "amount",
					"type": "uint256"
				},
				{
					"indexed": false,
					"internalType": "uint256",
					"name": "packageLevel",
					"type": "uint256"
				},
				{
					"indexed": false,
					"internalType": "enum Storage.IncomeType",
					"name": "incomeType",
					"type": "uint8"
				},
				{
					"indexed": false,
					"internalType": "uint256",
					"name": "timestamp",
					"type": "uint256"
				}
			],
			"name": "IncomeDistribution",
			"type": "event"
		},
		{
			"anonymous": false,
			"inputs": [
				{
					"indexed": true,
					"internalType": "address",
					"name": "winner",
					"type": "address"
				},
				{
					"indexed": true,
					"internalType": "uint256",
					"name": "fromUserId",
					"type": "uint256"
				},
				{
					"indexed": false,
					"internalType": "uint256",
					"name": "amount",
					"type": "uint256"
				},
				{
					"indexed": false,
					"internalType": "uint256",
					"name": "timestamp",
					"type": "uint256"
				}
			],
			"name": "LotteryReward",
			"type": "event"
		},
		{
			"anonymous": false,
			"inputs": [
				{
					"indexed": false,
					"internalType": "uint256",
					"name": "roundId",
					"type": "uint256"
				},
				{
					"indexed": false,
					"internalType": "uint256",
					"name": "totalUsers",
					"type": "uint256"
				},
				{
					"indexed": false,
					"internalType": "uint256",
					"name": "perUserReward",
					"type": "uint256"
				},
				{
					"indexed": false,
					"internalType": "uint256",
					"name": "totalReward",
					"type": "uint256"
				},
				{
					"indexed": false,
					"internalType": "uint256",
					"name": "totalDistributed",
					"type": "uint256"
				},
				{
					"indexed": false,
					"internalType": "uint256",
					"name": "leftoverReward",
					"type": "uint256"
				},
				{
					"indexed": false,
					"internalType": "uint256",
					"name": "endTime",
					"type": "uint256"
				}
			],
			"name": "MonthlyClosed",
			"type": "event"
		},
		{
			"anonymous": false,
			"inputs": [
				{
					"indexed": false,
					"internalType": "uint256",
					"name": "roundId",
					"type": "uint256"
				},
				{
					"indexed": false,
					"internalType": "uint256",
					"name": "userId",
					"type": "uint256"
				},
				{
					"indexed": false,
					"internalType": "uint256",
					"name": "perUserReward",
					"type": "uint256"
				},
				{
					"indexed": false,
					"internalType": "uint256",
					"name": "claimTime",
					"type": "uint256"
				}
			],
			"name": "MonthlyRewardClaim",
			"type": "event"
		},
		{
			"anonymous": false,
			"inputs": [
				{
					"indexed": false,
					"internalType": "uint256",
					"name": "roundId",
					"type": "uint256"
				},
				{
					"indexed": false,
					"internalType": "uint256",
					"name": "userId",
					"type": "uint256"
				},
				{
					"indexed": false,
					"internalType": "uint256",
					"name": "joinTime",
					"type": "uint256"
				}
			],
			"name": "MonthlyRoyaltyQualified",
			"type": "event"
		},
		{
			"anonymous": false,
			"inputs": [
				{
					"indexed": true,
					"internalType": "address",
					"name": "user",
					"type": "address"
				},
				{
					"indexed": true,
					"internalType": "address",
					"name": "sponsor",
					"type": "address"
				},
				{
					"indexed": true,
					"internalType": "uint256",
					"name": "userId",
					"type": "uint256"
				},
				{
					"indexed": false,
					"internalType": "uint256",
					"name": "uplineId",
					"type": "uint256"
				}
			],
			"name": "Registration",
			"type": "event"
		},
		{
			"anonymous": false,
			"inputs": [
				{
					"indexed": true,
					"internalType": "address",
					"name": "to",
					"type": "address"
				},
				{
					"indexed": false,
					"internalType": "uint256",
					"name": "amount",
					"type": "uint256"
				},
				{
					"indexed": false,
					"internalType": "string",
					"name": "level",
					"type": "string"
				}
			],
			"name": "RewardSent",
			"type": "event"
		},
		{
			"anonymous": false,
			"inputs": [
				{
					"indexed": false,
					"internalType": "uint256",
					"name": "roundId",
					"type": "uint256"
				},
				{
					"indexed": false,
					"internalType": "uint256",
					"name": "totalUsers",
					"type": "uint256"
				},
				{
					"indexed": false,
					"internalType": "uint256",
					"name": "perUserReward",
					"type": "uint256"
				},
				{
					"indexed": false,
					"internalType": "uint256",
					"name": "totalReward",
					"type": "uint256"
				},
				{
					"indexed": false,
					"internalType": "uint256",
					"name": "totalDistributed",
					"type": "uint256"
				},
				{
					"indexed": false,
					"internalType": "uint256",
					"name": "leftoverReward",
					"type": "uint256"
				},
				{
					"indexed": false,
					"internalType": "uint256",
					"name": "endTime",
					"type": "uint256"
				}
			],
			"name": "TopRoyaltyClosed",
			"type": "event"
		},
		{
			"anonymous": false,
			"inputs": [
				{
					"indexed": false,
					"internalType": "uint256",
					"name": "roundId",
					"type": "uint256"
				},
				{
					"indexed": false,
					"internalType": "uint256",
					"name": "userId",
					"type": "uint256"
				},
				{
					"indexed": false,
					"internalType": "uint256",
					"name": "joinTime",
					"type": "uint256"
				}
			],
			"name": "TopRoyaltyQualified",
			"type": "event"
		},
		{
			"anonymous": false,
			"inputs": [
				{
					"indexed": false,
					"internalType": "uint256",
					"name": "roundId",
					"type": "uint256"
				},
				{
					"indexed": false,
					"internalType": "uint256",
					"name": "userId",
					"type": "uint256"
				},
				{
					"indexed": false,
					"internalType": "uint256",
					"name": "perUserReward",
					"type": "uint256"
				},
				{
					"indexed": false,
					"internalType": "uint256",
					"name": "claimTime",
					"type": "uint256"
				}
			],
			"name": "TopRoyaltyRewardClaim",
			"type": "event"
		},
		{
			"anonymous": false,
			"inputs": [
				{
					"indexed": true,
					"internalType": "address",
					"name": "user",
					"type": "address"
				},
				{
					"indexed": true,
					"internalType": "uint256",
					"name": "userId",
					"type": "uint256"
				},
				{
					"indexed": false,
					"internalType": "uint256",
					"name": "packageLevel",
					"type": "uint256"
				},
				{
					"indexed": false,
					"internalType": "uint256",
					"name": "packagePrice",
					"type": "uint256"
				},
				{
					"indexed": false,
					"internalType": "string",
					"name": "depositType",
					"type": "string"
				},
				{
					"indexed": false,
					"internalType": "uint256",
					"name": "upgradeTime",
					"type": "uint256"
				}
			],
			"name": "Upgrade",
			"type": "event"
		},
		{
			"anonymous": false,
			"inputs": [
				{
					"indexed": true,
					"internalType": "uint8",
					"name": "matrixId",
					"type": "uint8"
				},
				{
					"indexed": true,
					"internalType": "uint32",
					"name": "userId",
					"type": "uint32"
				},
				{
					"indexed": true,
					"internalType": "address",
					"name": "user",
					"type": "address"
				},
				{
					"indexed": false,
					"internalType": "uint32",
					"name": "parentId",
					"type": "uint32"
				},
				{
					"indexed": false,
					"internalType": "address",
					"name": "parentAddr",
					"type": "address"
				},
				{
					"indexed": false,
					"internalType": "uint8",
					"name": "position",
					"type": "uint8"
				}
			],
			"name": "UserJoined",
			"type": "event"
		},
		{
			"anonymous": false,
			"inputs": [
				{
					"indexed": false,
					"internalType": "uint256",
					"name": "roundId",
					"type": "uint256"
				},
				{
					"indexed": false,
					"internalType": "uint256",
					"name": "totalUsers",
					"type": "uint256"
				},
				{
					"indexed": false,
					"internalType": "uint256",
					"name": "perUserReward",
					"type": "uint256"
				},
				{
					"indexed": false,
					"internalType": "uint256",
					"name": "totalReward",
					"type": "uint256"
				},
				{
					"indexed": false,
					"internalType": "uint256",
					"name": "totalDistributed",
					"type": "uint256"
				},
				{
					"indexed": false,
					"internalType": "uint256",
					"name": "leftoverReward",
					"type": "uint256"
				},
				{
					"indexed": false,
					"internalType": "uint256",
					"name": "endTime",
					"type": "uint256"
				}
			],
			"name": "WeeklyClosed",
			"type": "event"
		},
		{
			"anonymous": false,
			"inputs": [
				{
					"indexed": false,
					"internalType": "uint256",
					"name": "roundId",
					"type": "uint256"
				},
				{
					"indexed": false,
					"internalType": "uint256",
					"name": "userId",
					"type": "uint256"
				},
				{
					"indexed": false,
					"internalType": "uint256",
					"name": "joinTime",
					"type": "uint256"
				}
			],
			"name": "WeeklyContestQualified",
			"type": "event"
		},
		{
			"anonymous": false,
			"inputs": [
				{
					"indexed": false,
					"internalType": "uint256",
					"name": "roundId",
					"type": "uint256"
				},
				{
					"indexed": false,
					"internalType": "uint256",
					"name": "userId",
					"type": "uint256"
				},
				{
					"indexed": false,
					"internalType": "uint256",
					"name": "perUserReward",
					"type": "uint256"
				},
				{
					"indexed": false,
					"internalType": "uint256",
					"name": "claimTime",
					"type": "uint256"
				}
			],
			"name": "WeeklyRewardClaim",
			"type": "event"
		},
		{
			"inputs": [],
			"name": "ACC_PRECISION",
			"outputs": [
				{
					"internalType": "uint256",
					"name": "",
					"type": "uint256"
				}
			],
			"stateMutability": "view",
			"type": "function"
		},
		{
			"inputs": [],
			"name": "MONTHLY_ROYALTY_DIRECT",
			"outputs": [
				{
					"internalType": "uint256",
					"name": "",
					"type": "uint256"
				}
			],
			"stateMutability": "view",
			"type": "function"
		},
		{
			"inputs": [],
			"name": "MONTHLY_ROYALTY_LEVEL",
			"outputs": [
				{
					"internalType": "uint256",
					"name": "",
					"type": "uint256"
				}
			],
			"stateMutability": "view",
			"type": "function"
		},
		{
			"inputs": [],
			"name": "MONTHLY_ROYALTY_TIME",
			"outputs": [
				{
					"internalType": "uint256",
					"name": "",
					"type": "uint256"
				}
			],
			"stateMutability": "view",
			"type": "function"
		},
		{
			"inputs": [],
			"name": "MONTH_DURATION",
			"outputs": [
				{
					"internalType": "uint256",
					"name": "",
					"type": "uint256"
				}
			],
			"stateMutability": "view",
			"type": "function"
		},
		{
			"inputs": [],
			"name": "PERCENTS_DIVIDER",
			"outputs": [
				{
					"internalType": "uint256",
					"name": "",
					"type": "uint256"
				}
			],
			"stateMutability": "view",
			"type": "function"
		},
		{
			"inputs": [],
			"name": "ROI_2X_TIME",
			"outputs": [
				{
					"internalType": "uint256",
					"name": "",
					"type": "uint256"
				}
			],
			"stateMutability": "view",
			"type": "function"
		},
		{
			"inputs": [],
			"name": "ROI_CAP_DIVIDER",
			"outputs": [
				{
					"internalType": "uint256",
					"name": "",
					"type": "uint256"
				}
			],
			"stateMutability": "view",
			"type": "function"
		},
		{
			"inputs": [],
			"name": "ROI_CAP_MULTIPLIER",
			"outputs": [
				{
					"internalType": "uint256",
					"name": "",
					"type": "uint256"
				}
			],
			"stateMutability": "view",
			"type": "function"
		},
		{
			"inputs": [],
			"name": "TIME_STEP",
			"outputs": [
				{
					"internalType": "uint256",
					"name": "",
					"type": "uint256"
				}
			],
			"stateMutability": "view",
			"type": "function"
		},
		{
			"inputs": [],
			"name": "TOP_ROYALTY_DIRECT",
			"outputs": [
				{
					"internalType": "uint256",
					"name": "",
					"type": "uint256"
				}
			],
			"stateMutability": "view",
			"type": "function"
		},
		{
			"inputs": [],
			"name": "TOP_ROYALTY_LEVEL",
			"outputs": [
				{
					"internalType": "uint256",
					"name": "",
					"type": "uint256"
				}
			],
			"stateMutability": "view",
			"type": "function"
		},
		{
			"inputs": [],
			"name": "TOP_ROYALTY_TIME",
			"outputs": [
				{
					"internalType": "uint256",
					"name": "",
					"type": "uint256"
				}
			],
			"stateMutability": "view",
			"type": "function"
		},
		{
			"inputs": [],
			"name": "WEEK_DURATION",
			"outputs": [
				{
					"internalType": "uint256",
					"name": "",
					"type": "uint256"
				}
			],
			"stateMutability": "view",
			"type": "function"
		},
		{
			"inputs": [],
			"name": "WeeklyCapping",
			"outputs": [
				{
					"internalType": "uint256",
					"name": "",
					"type": "uint256"
				}
			],
			"stateMutability": "view",
			"type": "function"
		},
		{
			"inputs": [],
			"name": "WeeklyTotalReward",
			"outputs": [
				{
					"internalType": "uint256",
					"name": "",
					"type": "uint256"
				}
			],
			"stateMutability": "view",
			"type": "function"
		},
		{
			"inputs": [
				{
					"internalType": "address",
					"name": "",
					"type": "address"
				}
			],
			"name": "addressToId",
			"outputs": [
				{
					"internalType": "uint256",
					"name": "",
					"type": "uint256"
				}
			],
			"stateMutability": "view",
			"type": "function"
		},
		{
			"inputs": [
				{
					"internalType": "uint256",
					"name": "",
					"type": "uint256"
				},
				{
					"internalType": "uint256",
					"name": "",
					"type": "uint256"
				}
			],
			"name": "boosterUsers",
			"outputs": [
				{
					"internalType": "uint256",
					"name": "",
					"type": "uint256"
				}
			],
			"stateMutability": "view",
			"type": "function"
		},
		{
			"inputs": [
				{
					"internalType": "uint256",
					"name": "_userId",
					"type": "uint256"
				},
				{
					"internalType": "uint256",
					"name": "_roundId",
					"type": "uint256"
				}
			],
			"name": "canClaimMonthlyReward",
			"outputs": [
				{
					"internalType": "bool",
					"name": "",
					"type": "bool"
				}
			],
			"stateMutability": "view",
			"type": "function"
		},
		{
			"inputs": [
				{
					"internalType": "uint256",
					"name": "_userId",
					"type": "uint256"
				},
				{
					"internalType": "uint256",
					"name": "_roundId",
					"type": "uint256"
				}
			],
			"name": "claimMonthlyCRoyaltyReward",
			"outputs": [],
			"stateMutability": "nonpayable",
			"type": "function"
		},
		{
			"inputs": [
				{
					"internalType": "uint256",
					"name": "_userId",
					"type": "uint256"
				},
				{
					"internalType": "uint256",
					"name": "_roundId",
					"type": "uint256"
				}
			],
			"name": "claimTopRoyaltyReward",
			"outputs": [],
			"stateMutability": "nonpayable",
			"type": "function"
		},
		{
			"inputs": [
				{
					"internalType": "uint256",
					"name": "_userId",
					"type": "uint256"
				},
				{
					"internalType": "uint256",
					"name": "_roundId",
					"type": "uint256"
				}
			],
			"name": "claimWeeklyContestReward",
			"outputs": [],
			"stateMutability": "nonpayable",
			"type": "function"
		},
		{
			"inputs": [
				{
					"internalType": "uint256",
					"name": "",
					"type": "uint256"
				}
			],
			"name": "communityAccPerPackage",
			"outputs": [
				{
					"internalType": "uint256",
					"name": "",
					"type": "uint256"
				}
			],
			"stateMutability": "view",
			"type": "function"
		},
		{
			"inputs": [],
			"name": "communityAccPerUser",
			"outputs": [
				{
					"internalType": "uint256",
					"name": "",
					"type": "uint256"
				}
			],
			"stateMutability": "view",
			"type": "function"
		},
		{
			"inputs": [
				{
					"internalType": "uint256",
					"name": "",
					"type": "uint256"
				},
				{
					"internalType": "uint256",
					"name": "",
					"type": "uint256"
				}
			],
			"name": "communityDebt",
			"outputs": [
				{
					"internalType": "uint256",
					"name": "",
					"type": "uint256"
				}
			],
			"stateMutability": "view",
			"type": "function"
		},
		{
			"inputs": [],
			"name": "creatorWallet",
			"outputs": [
				{
					"internalType": "address",
					"name": "",
					"type": "address"
				}
			],
			"stateMutability": "view",
			"type": "function"
		},
		{
			"inputs": [],
			"name": "currentMonthlyRound",
			"outputs": [
				{
					"internalType": "uint256",
					"name": "",
					"type": "uint256"
				}
			],
			"stateMutability": "view",
			"type": "function"
		},
		{
			"inputs": [],
			"name": "currentMonthlyStartTime",
			"outputs": [
				{
					"internalType": "uint256",
					"name": "",
					"type": "uint256"
				}
			],
			"stateMutability": "view",
			"type": "function"
		},
		{
			"inputs": [],
			"name": "currentWeeklyRound",
			"outputs": [
				{
					"internalType": "uint256",
					"name": "",
					"type": "uint256"
				}
			],
			"stateMutability": "view",
			"type": "function"
		},
		{
			"inputs": [],
			"name": "currentWeeklyStartTime",
			"outputs": [
				{
					"internalType": "uint256",
					"name": "",
					"type": "uint256"
				}
			],
			"stateMutability": "view",
			"type": "function"
		},
		{
			"inputs": [],
			"name": "defaultRefId",
			"outputs": [
				{
					"internalType": "uint256",
					"name": "",
					"type": "uint256"
				}
			],
			"stateMutability": "view",
			"type": "function"
		},
		{
			"inputs": [
				{
					"internalType": "uint256",
					"name": "",
					"type": "uint256"
				},
				{
					"internalType": "uint256",
					"name": "",
					"type": "uint256"
				}
			],
			"name": "directReferrals",
			"outputs": [
				{
					"internalType": "uint256",
					"name": "",
					"type": "uint256"
				}
			],
			"stateMutability": "view",
			"type": "function"
		},
		{
			"inputs": [
				{
					"internalType": "uint256",
					"name": "",
					"type": "uint256"
				}
			],
			"name": "glbBoosterPackages",
			"outputs": [
				{
					"internalType": "uint256",
					"name": "",
					"type": "uint256"
				}
			],
			"stateMutability": "view",
			"type": "function"
		},
		{
			"inputs": [
				{
					"internalType": "uint256",
					"name": "",
					"type": "uint256"
				},
				{
					"internalType": "uint256",
					"name": "",
					"type": "uint256"
				}
			],
			"name": "incomeHistory",
			"outputs": [
				{
					"internalType": "uint256",
					"name": "fromUserId",
					"type": "uint256"
				},
				{
					"internalType": "uint256",
					"name": "amount",
					"type": "uint256"
				},
				{
					"internalType": "uint256",
					"name": "packageLevel",
					"type": "uint256"
				},
				{
					"internalType": "uint256",
					"name": "timestamp",
					"type": "uint256"
				},
				{
					"internalType": "uint256",
					"name": "incomeType",
					"type": "uint256"
				}
			],
			"stateMutability": "view",
			"type": "function"
		},
		{
			"inputs": [
				{
					"internalType": "uint256",
					"name": "",
					"type": "uint256"
				}
			],
			"name": "matrixDirect",
			"outputs": [
				{
					"internalType": "uint256",
					"name": "",
					"type": "uint256"
				}
			],
			"stateMutability": "view",
			"type": "function"
		},
		{
			"inputs": [
				{
					"internalType": "uint256",
					"name": "",
					"type": "uint256"
				}
			],
			"name": "minLevelForGlbBooster",
			"outputs": [
				{
					"internalType": "uint256",
					"name": "",
					"type": "uint256"
				}
			],
			"stateMutability": "view",
			"type": "function"
		},
		{
			"inputs": [
				{
					"internalType": "uint256",
					"name": "",
					"type": "uint256"
				}
			],
			"name": "minLevelForPool",
			"outputs": [
				{
					"internalType": "uint256",
					"name": "",
					"type": "uint256"
				}
			],
			"stateMutability": "view",
			"type": "function"
		},
		{
			"inputs": [
				{
					"internalType": "uint256",
					"name": "",
					"type": "uint256"
				}
			],
			"name": "minPoolForGlbBooster",
			"outputs": [
				{
					"internalType": "uint256",
					"name": "",
					"type": "uint256"
				}
			],
			"stateMutability": "view",
			"type": "function"
		},
		{
			"inputs": [],
			"name": "monthlyCapping",
			"outputs": [
				{
					"internalType": "uint256",
					"name": "",
					"type": "uint256"
				}
			],
			"stateMutability": "view",
			"type": "function"
		},
		{
			"inputs": [
				{
					"internalType": "uint256",
					"name": "",
					"type": "uint256"
				}
			],
			"name": "monthlyQualifiedUsers",
			"outputs": [
				{
					"internalType": "uint256",
					"name": "",
					"type": "uint256"
				}
			],
			"stateMutability": "view",
			"type": "function"
		},
		{
			"inputs": [
				{
					"internalType": "uint256",
					"name": "",
					"type": "uint256"
				}
			],
			"name": "monthlyRoyaltyUserdtl",
			"outputs": [
				{
					"internalType": "uint256",
					"name": "joinTime",
					"type": "uint256"
				},
				{
					"internalType": "uint256",
					"name": "qualifiedRoundId",
					"type": "uint256"
				},
				{
					"internalType": "uint256",
					"name": "claimTime",
					"type": "uint256"
				},
				{
					"internalType": "bool",
					"name": "isQualified",
					"type": "bool"
				}
			],
			"stateMutability": "view",
			"type": "function"
		},
		{
			"inputs": [
				{
					"internalType": "uint256",
					"name": "",
					"type": "uint256"
				}
			],
			"name": "monthlyRoyaltydtl",
			"outputs": [
				{
					"internalType": "uint256",
					"name": "roundId",
					"type": "uint256"
				},
				{
					"internalType": "uint256",
					"name": "totalReward",
					"type": "uint256"
				},
				{
					"internalType": "uint256",
					"name": "totalUsers",
					"type": "uint256"
				},
				{
					"internalType": "uint256",
					"name": "perUserReward",
					"type": "uint256"
				},
				{
					"internalType": "uint256",
					"name": "claimedCount",
					"type": "uint256"
				},
				{
					"internalType": "uint256",
					"name": "startTime",
					"type": "uint256"
				},
				{
					"internalType": "uint256",
					"name": "endTime",
					"type": "uint256"
				},
				{
					"internalType": "uint256",
					"name": "carryForward",
					"type": "uint256"
				},
				{
					"internalType": "bool",
					"name": "closed",
					"type": "bool"
				}
			],
			"stateMutability": "view",
			"type": "function"
		},
		{
			"inputs": [],
			"name": "monthlyTotalReward",
			"outputs": [
				{
					"internalType": "uint256",
					"name": "",
					"type": "uint256"
				}
			],
			"stateMutability": "view",
			"type": "function"
		},
		{
			"inputs": [
				{
					"internalType": "uint256",
					"name": "",
					"type": "uint256"
				},
				{
					"internalType": "uint256",
					"name": "",
					"type": "uint256"
				}
			],
			"name": "monthlyUserDirects",
			"outputs": [
				{
					"internalType": "uint256",
					"name": "",
					"type": "uint256"
				}
			],
			"stateMutability": "view",
			"type": "function"
		},
		{
			"inputs": [
				{
					"internalType": "uint256",
					"name": "",
					"type": "uint256"
				}
			],
			"name": "packageQualifiedUsers",
			"outputs": [
				{
					"internalType": "uint256",
					"name": "",
					"type": "uint256"
				}
			],
			"stateMutability": "view",
			"type": "function"
		},
		{
			"inputs": [
				{
					"internalType": "uint256",
					"name": "",
					"type": "uint256"
				}
			],
			"name": "packages",
			"outputs": [
				{
					"internalType": "uint256",
					"name": "",
					"type": "uint256"
				}
			],
			"stateMutability": "view",
			"type": "function"
		},
		{
			"inputs": [
				{
					"internalType": "uint256",
					"name": "",
					"type": "uint256"
				}
			],
			"name": "poolPackages",
			"outputs": [
				{
					"internalType": "uint256",
					"name": "",
					"type": "uint256"
				}
			],
			"stateMutability": "view",
			"type": "function"
		},
		{
			"inputs": [
				{
					"internalType": "uint256",
					"name": "",
					"type": "uint256"
				},
				{
					"internalType": "uint256",
					"name": "",
					"type": "uint256"
				}
			],
			"name": "poolUsers",
			"outputs": [
				{
					"internalType": "uint256",
					"name": "",
					"type": "uint256"
				}
			],
			"stateMutability": "view",
			"type": "function"
		},
		{
			"inputs": [
				{
					"internalType": "uint256",
					"name": "",
					"type": "uint256"
				}
			],
			"name": "registeredUserIds",
			"outputs": [
				{
					"internalType": "uint256",
					"name": "",
					"type": "uint256"
				}
			],
			"stateMutability": "view",
			"type": "function"
		},
		{
			"inputs": [],
			"name": "systemMaintance",
			"outputs": [
				{
					"internalType": "address",
					"name": "",
					"type": "address"
				}
			],
			"stateMutability": "view",
			"type": "function"
		},
		{
			"inputs": [],
			"name": "teamDevelopment",
			"outputs": [
				{
					"internalType": "address",
					"name": "",
					"type": "address"
				}
			],
			"stateMutability": "view",
			"type": "function"
		},
		{
			"inputs": [
				{
					"internalType": "uint256",
					"name": "",
					"type": "uint256"
				},
				{
					"internalType": "uint256",
					"name": "",
					"type": "uint256"
				},
				{
					"internalType": "uint256",
					"name": "",
					"type": "uint256"
				}
			],
			"name": "teams",
			"outputs": [
				{
					"internalType": "uint256",
					"name": "",
					"type": "uint256"
				}
			],
			"stateMutability": "view",
			"type": "function"
		},
		{
			"inputs": [
				{
					"internalType": "uint256",
					"name": "",
					"type": "uint256"
				}
			],
			"name": "topRoyaltyQualifiedUsers",
			"outputs": [
				{
					"internalType": "uint256",
					"name": "",
					"type": "uint256"
				}
			],
			"stateMutability": "view",
			"type": "function"
		},
		{
			"inputs": [],
			"name": "topRoyaltyReward",
			"outputs": [
				{
					"internalType": "uint256",
					"name": "",
					"type": "uint256"
				}
			],
			"stateMutability": "view",
			"type": "function"
		},
		{
			"inputs": [],
			"name": "topRoyaltyRound",
			"outputs": [
				{
					"internalType": "uint256",
					"name": "",
					"type": "uint256"
				}
			],
			"stateMutability": "view",
			"type": "function"
		},
		{
			"inputs": [],
			"name": "topRoyaltyStartTime",
			"outputs": [
				{
					"internalType": "uint256",
					"name": "",
					"type": "uint256"
				}
			],
			"stateMutability": "view",
			"type": "function"
		},
		{
			"inputs": [
				{
					"internalType": "uint256",
					"name": "",
					"type": "uint256"
				},
				{
					"internalType": "uint256",
					"name": "",
					"type": "uint256"
				}
			],
			"name": "topRoyaltyUserDirects",
			"outputs": [
				{
					"internalType": "uint256",
					"name": "",
					"type": "uint256"
				}
			],
			"stateMutability": "view",
			"type": "function"
		},
		{
			"inputs": [
				{
					"internalType": "uint256",
					"name": "",
					"type": "uint256"
				}
			],
			"name": "topRoyaltyUserdtl",
			"outputs": [
				{
					"internalType": "uint256",
					"name": "joinTime",
					"type": "uint256"
				},
				{
					"internalType": "uint256",
					"name": "qualifiedRoundId",
					"type": "uint256"
				},
				{
					"internalType": "uint256",
					"name": "claimTime",
					"type": "uint256"
				},
				{
					"internalType": "bool",
					"name": "isQualified",
					"type": "bool"
				}
			],
			"stateMutability": "view",
			"type": "function"
		},
		{
			"inputs": [
				{
					"internalType": "uint256",
					"name": "",
					"type": "uint256"
				}
			],
			"name": "topRoyaltydtl",
			"outputs": [
				{
					"internalType": "uint256",
					"name": "roundId",
					"type": "uint256"
				},
				{
					"internalType": "uint256",
					"name": "totalReward",
					"type": "uint256"
				},
				{
					"internalType": "uint256",
					"name": "totalUsers",
					"type": "uint256"
				},
				{
					"internalType": "uint256",
					"name": "perUserReward",
					"type": "uint256"
				},
				{
					"internalType": "uint256",
					"name": "claimedCount",
					"type": "uint256"
				},
				{
					"internalType": "uint256",
					"name": "startTime",
					"type": "uint256"
				},
				{
					"internalType": "uint256",
					"name": "endTime",
					"type": "uint256"
				},
				{
					"internalType": "uint256",
					"name": "carryForward",
					"type": "uint256"
				},
				{
					"internalType": "bool",
					"name": "closed",
					"type": "bool"
				}
			],
			"stateMutability": "view",
			"type": "function"
		},
		{
			"inputs": [],
			"name": "totalUsers",
			"outputs": [
				{
					"internalType": "uint256",
					"name": "",
					"type": "uint256"
				}
			],
			"stateMutability": "view",
			"type": "function"
		},
		{
			"inputs": [],
			"name": "usdt",
			"outputs": [
				{
					"internalType": "contract IERC20",
					"name": "",
					"type": "address"
				}
			],
			"stateMutability": "view",
			"type": "function"
		},
		{
			"inputs": [
				{
					"internalType": "uint256",
					"name": "",
					"type": "uint256"
				},
				{
					"internalType": "uint256",
					"name": "",
					"type": "uint256"
				},
				{
					"internalType": "uint256",
					"name": "",
					"type": "uint256"
				}
			],
			"name": "userBoosterChildren",
			"outputs": [
				{
					"internalType": "uint256",
					"name": "",
					"type": "uint256"
				}
			],
			"stateMutability": "view",
			"type": "function"
		},
		{
			"inputs": [
				{
					"internalType": "uint256",
					"name": "",
					"type": "uint256"
				},
				{
					"internalType": "uint256",
					"name": "",
					"type": "uint256"
				}
			],
			"name": "userBoosterdtl",
			"outputs": [
				{
					"internalType": "uint256",
					"name": "id",
					"type": "uint256"
				},
				{
					"internalType": "uint256",
					"name": "poolId",
					"type": "uint256"
				},
				{
					"internalType": "uint256",
					"name": "parentId",
					"type": "uint256"
				},
				{
					"internalType": "uint256",
					"name": "bonusCount",
					"type": "uint256"
				},
				{
					"internalType": "uint256",
					"name": "joinTime",
					"type": "uint256"
				}
			],
			"stateMutability": "view",
			"type": "function"
		},
		{
			"inputs": [
				{
					"internalType": "uint256",
					"name": "",
					"type": "uint256"
				},
				{
					"internalType": "uint256",
					"name": "",
					"type": "uint256"
				},
				{
					"internalType": "uint256",
					"name": "",
					"type": "uint256"
				}
			],
			"name": "userChildren",
			"outputs": [
				{
					"internalType": "uint256",
					"name": "",
					"type": "uint256"
				}
			],
			"stateMutability": "view",
			"type": "function"
		},
		{
			"inputs": [
				{
					"internalType": "uint256",
					"name": "",
					"type": "uint256"
				},
				{
					"internalType": "uint256",
					"name": "",
					"type": "uint256"
				}
			],
			"name": "userHasPool",
			"outputs": [
				{
					"internalType": "bool",
					"name": "",
					"type": "bool"
				}
			],
			"stateMutability": "view",
			"type": "function"
		},
		{
			"inputs": [
				{
					"internalType": "uint256",
					"name": "",
					"type": "uint256"
				},
				{
					"internalType": "uint256",
					"name": "",
					"type": "uint256"
				}
			],
			"name": "userHasbooster",
			"outputs": [
				{
					"internalType": "bool",
					"name": "",
					"type": "bool"
				}
			],
			"stateMutability": "view",
			"type": "function"
		},
		{
			"inputs": [
				{
					"internalType": "uint256",
					"name": "",
					"type": "uint256"
				},
				{
					"internalType": "uint256",
					"name": "",
					"type": "uint256"
				},
				{
					"internalType": "uint256",
					"name": "",
					"type": "uint256"
				}
			],
			"name": "userIdPerPool",
			"outputs": [
				{
					"internalType": "uint256",
					"name": "",
					"type": "uint256"
				}
			],
			"stateMutability": "view",
			"type": "function"
		},
		{
			"inputs": [
				{
					"internalType": "uint256",
					"name": "",
					"type": "uint256"
				}
			],
			"name": "userIncomes",
			"outputs": [
				{
					"internalType": "uint256",
					"name": "totalIncome",
					"type": "uint256"
				},
				{
					"internalType": "uint256",
					"name": "sponsorIncome",
					"type": "uint256"
				},
				{
					"internalType": "uint256",
					"name": "matrixIncome",
					"type": "uint256"
				},
				{
					"internalType": "uint256",
					"name": "levelBoosterIncome",
					"type": "uint256"
				},
				{
					"internalType": "uint256",
					"name": "royaltyIncome",
					"type": "uint256"
				},
				{
					"internalType": "uint256",
					"name": "royaltyIncomeClaimed",
					"type": "uint256"
				},
				{
					"internalType": "uint256",
					"name": "communityIncome",
					"type": "uint256"
				},
				{
					"internalType": "uint256",
					"name": "poolIncome",
					"type": "uint256"
				},
				{
					"internalType": "uint256",
					"name": "boosterIncome",
					"type": "uint256"
				},
				{
					"internalType": "uint256",
					"name": "weeklyContestIncome",
					"type": "uint256"
				},
				{
					"internalType": "uint256",
					"name": "monthlyRoyalty",
					"type": "uint256"
				},
				{
					"internalType": "uint256",
					"name": "topRoyalty",
					"type": "uint256"
				}
			],
			"stateMutability": "view",
			"type": "function"
		},
		{
			"inputs": [
				{
					"internalType": "uint256",
					"name": "",
					"type": "uint256"
				},
				{
					"internalType": "uint256",
					"name": "",
					"type": "uint256"
				}
			],
			"name": "userPackage",
			"outputs": [
				{
					"internalType": "uint256",
					"name": "roiCap",
					"type": "uint256"
				},
				{
					"internalType": "uint256",
					"name": "currentIncome",
					"type": "uint256"
				},
				{
					"internalType": "uint256",
					"name": "closingAmount",
					"type": "uint256"
				},
				{
					"internalType": "bool",
					"name": "qualified",
					"type": "bool"
				},
				{
					"internalType": "bool",
					"name": "closed",
					"type": "bool"
				}
			],
			"stateMutability": "view",
			"type": "function"
		},
		{
			"inputs": [
				{
					"internalType": "uint256",
					"name": "",
					"type": "uint256"
				},
				{
					"internalType": "uint256",
					"name": "",
					"type": "uint256"
				}
			],
			"name": "userPooldtl",
			"outputs": [
				{
					"internalType": "uint256",
					"name": "id",
					"type": "uint256"
				},
				{
					"internalType": "uint256",
					"name": "mainid",
					"type": "uint256"
				},
				{
					"internalType": "uint256",
					"name": "poolId",
					"type": "uint256"
				},
				{
					"internalType": "uint256",
					"name": "parentId",
					"type": "uint256"
				},
				{
					"internalType": "uint256",
					"name": "bonusCount",
					"type": "uint256"
				}
			],
			"stateMutability": "view",
			"type": "function"
		},
		{
			"inputs": [
				{
					"internalType": "uint256",
					"name": "",
					"type": "uint256"
				},
				{
					"internalType": "uint256",
					"name": "",
					"type": "uint256"
				}
			],
			"name": "userPooltopup",
			"outputs": [
				{
					"internalType": "uint256",
					"name": "nextPoolAmt",
					"type": "uint256"
				},
				{
					"internalType": "uint256",
					"name": "reTopupAmt",
					"type": "uint256"
				}
			],
			"stateMutability": "view",
			"type": "function"
		},
		{
			"inputs": [
				{
					"internalType": "uint256",
					"name": "",
					"type": "uint256"
				}
			],
			"name": "users",
			"outputs": [
				{
					"internalType": "address",
					"name": "account",
					"type": "address"
				},
				{
					"internalType": "uint256",
					"name": "checkpoint",
					"type": "uint256"
				},
				{
					"internalType": "uint256",
					"name": "id",
					"type": "uint256"
				},
				{
					"internalType": "uint256",
					"name": "sponsorId",
					"type": "uint256"
				},
				{
					"internalType": "uint256",
					"name": "uplineId",
					"type": "uint256"
				},
				{
					"internalType": "uint256",
					"name": "level",
					"type": "uint256"
				},
				{
					"internalType": "uint256",
					"name": "directTeam",
					"type": "uint256"
				},
				{
					"internalType": "uint256",
					"name": "directPoolQualified",
					"type": "uint256"
				},
				{
					"internalType": "uint256",
					"name": "totalMatrixTeam",
					"type": "uint256"
				},
				{
					"internalType": "uint256",
					"name": "totalDeposit",
					"type": "uint256"
				},
				{
					"internalType": "uint256",
					"name": "roiCap",
					"type": "uint256"
				},
				{
					"internalType": "uint256",
					"name": "poollevel",
					"type": "uint256"
				},
				{
					"internalType": "uint256",
					"name": "poolDeposit",
					"type": "uint256"
				},
				{
					"internalType": "uint256",
					"name": "poolStartTime",
					"type": "uint256"
				},
				{
					"internalType": "uint256",
					"name": "boosterlevel",
					"type": "uint256"
				},
				{
					"internalType": "uint256",
					"name": "boosterDeposit",
					"type": "uint256"
				},
				{
					"internalType": "uint256",
					"name": "registrationTime",
					"type": "uint256"
				},
				{
					"internalType": "uint256",
					"name": "level10Time",
					"type": "uint256"
				},
				{
					"internalType": "uint256",
					"name": "level15Time",
					"type": "uint256"
				},
				{
					"internalType": "uint256",
					"name": "monthlyUserDirectCount",
					"type": "uint256"
				},
				{
					"internalType": "uint256",
					"name": "topRoyaltyDirectCount",
					"type": "uint256"
				}
			],
			"stateMutability": "view",
			"type": "function"
		},
		{
			"inputs": [
				{
					"internalType": "uint256",
					"name": "",
					"type": "uint256"
				}
			],
			"name": "weeklyContestdtl",
			"outputs": [
				{
					"internalType": "uint256",
					"name": "roundId",
					"type": "uint256"
				},
				{
					"internalType": "uint256",
					"name": "totalReward",
					"type": "uint256"
				},
				{
					"internalType": "uint256",
					"name": "totalUsers",
					"type": "uint256"
				},
				{
					"internalType": "uint256",
					"name": "perUserReward",
					"type": "uint256"
				},
				{
					"internalType": "uint256",
					"name": "claimedCount",
					"type": "uint256"
				},
				{
					"internalType": "uint256",
					"name": "startTime",
					"type": "uint256"
				},
				{
					"internalType": "uint256",
					"name": "endTime",
					"type": "uint256"
				},
				{
					"internalType": "uint256",
					"name": "carryForward",
					"type": "uint256"
				},
				{
					"internalType": "bool",
					"name": "closed",
					"type": "bool"
				}
			],
			"stateMutability": "view",
			"type": "function"
		},
		{
			"inputs": [
				{
					"internalType": "uint256",
					"name": "",
					"type": "uint256"
				},
				{
					"internalType": "uint256",
					"name": "",
					"type": "uint256"
				}
			],
			"name": "weeklyQualifiedUsers",
			"outputs": [
				{
					"internalType": "uint256",
					"name": "",
					"type": "uint256"
				}
			],
			"stateMutability": "view",
			"type": "function"
		},
		{
			"inputs": [
				{
					"internalType": "uint256",
					"name": "",
					"type": "uint256"
				},
				{
					"internalType": "uint256",
					"name": "",
					"type": "uint256"
				},
				{
					"internalType": "uint256",
					"name": "",
					"type": "uint256"
				}
			],
			"name": "weeklyUserDirects",
			"outputs": [
				{
					"internalType": "uint256",
					"name": "",
					"type": "uint256"
				}
			],
			"stateMutability": "view",
			"type": "function"
		},
		{
			"inputs": [
				{
					"internalType": "uint256",
					"name": "",
					"type": "uint256"
				},
				{
					"internalType": "uint256",
					"name": "",
					"type": "uint256"
				}
			],
			"name": "weeklyUserdtl",
			"outputs": [
				{
					"internalType": "uint256",
					"name": "joinTime",
					"type": "uint256"
				},
				{
					"internalType": "uint256",
					"name": "roundId",
					"type": "uint256"
				},
				{
					"internalType": "uint256",
					"name": "claimTime",
					"type": "uint256"
				},
				{
					"internalType": "bool",
					"name": "isClaimed",
					"type": "bool"
				},
				{
					"internalType": "bool",
					"name": "isQualified",
					"type": "bool"
				}
			],
			"stateMutability": "view",
			"type": "function"
		}
	]
}