{
	"data": {
		"bytecode": {
			"linkReferences": {},
			"object": "60806040523461052b5760015f556040516101e081016001600160401b038111828210176105175760405267d02ab486cedc0000815268015af1d78b58c4000060208201526802b5e3af16b1880000604082015268056bc75e2d631000006060820152680ad78ebc5ac620000060808201526815af1d78b58c40000060a0820152682b5e3af16b1880000060c08201526856bc75e2d63100000060e082015268ad78ebc5ac6200000061010082015269015af1d78b58c40000006101208201526902b5e3af16b18800000061014082015269056bc75e2d6310000000610160820152690ad78ebc5ac6200000006101808201526915af1d78b58c400000006101a0820152692b5e3af16b18800000006101c0820152600d54600f600d5580600f106104c1575b50600d5f5260205f20905f5b600f81106104a45761014161052f565b680410d586a20a4c00008152681043561a8829300000602082015268410d586a20a4c0000060408201526901043561a882930000006060820152690410d586a20a4c0000006080820152691043561a88293000000060a082015269410d586a20a4c000000060c082015260165460076016558060071061044e575b5060165f5260205f20905f5b60078110610431576101d861054e565b68056bc75e2d631000008152680ad78ebc5ac620000060208201526815af1d78b58c4000006040820152682b5e3af16b1880000060608201526856bc75e2d631000000608082015268ad78ebc5ac6200000060a082015269015af1d78b58c400000060c08201526902b5e3af16b18800000060e08201526017546008601755806008106103db575b5060175f5260205f20905f5b600881106103be5761027c61052f565b60038152600560208201526007604082015260096060820152600b6080820152600d60a0820152600f60c08201525f5b600781106103a6576102bc61054e565b6004815260056020820152600660408201526007606082015260086080820152600960a0820152600a60c0820152600b60e08201525f5b6008811061038e5761030361054e565b5f815260016020820152600160408201526001606082015260016080820152600160a0820152600160c0820152600160e08201525f5b60088110610376575f6039555f603a555f603b5560016040555f6041555f60425560016047555f6048555f6049556040516123cb90816105858239f35b600190602060ff845116930192816027015501610339565b600190602060ff84511693019281601f0155016102f3565b600190602060ff8451169301928160180155016102ac565b81516001600160501b03168184015560209091019060010161026c565b60175f5261042b907fc624b66cc0138b8fabc209247f72d758e1cf3343756d543badbf24212bed8c15017fc624b66cc0138b8fabc209247f72d758e1cf3343756d543badbf24212bed8c1d61056e565b81610260565b81516001600160501b0316818401556020909101906001016101c8565b60165f5261049e907fd833147d7dc355ba459fc788f669e58cfaf9dc25ddcd0702e87d69c7b5124289017fd833147d7dc355ba459fc788f669e58cfaf9dc25ddcd0702e87d69c7b512429061056e565b816101bc565b81516001600160501b031681840155602090910190600101610131565b600d5f52610511907fd7b6990105719101dabeb77144f2a3385c8033acd3af97e9423a695e81ad1eb5017fd7b6990105719101dabeb77144f2a3385c8033acd3af97e9423a695e81ad1ec461056e565b5f610125565b634e487b7160e01b5f52604160045260245ffd5b5f80fd5b6040519060e082016001600160401b0381118382101761051757604052565b6040519061010082016001600160401b0381118382101761051757604052565b818110610579575050565b5f815560010161056e56fe6101a0806040526004361015610013575f80fd5b5f905f3560e01c90816254815d14611f335750806301c234a814611f17578063056b4d1f14611eb75780630676d0d614611e8d5780630a5c5d6914611e5e5780630ef81b7414611e255780630f2b7cc914611df65780631629805614611a1a5780632132d204146119ec5780632350268f146119a957806323fd338e1461112f5780632a8915341461198b5780632ae0ee0d146116eb5780632d66014f146119485780632f48ab7d1461191f5780633080b5bc1461190157806331bb6a30146118e557806332bc298c146118c757806332fcd966146118a4578063365b98b2146116f0578063375b43b4146116eb57806339ab3603146116a857806339f2e64a1461130e5780633a5084b3146112f05780634036436c1461129057806345cb537c1461126657806346b9dece146111c05780634b8cbf9b146111a25780634d12ae0f146111705780634d4cc5ca1461113457806358c7d3521461112f5780635aabf7f1146110f35780635b58ce6c1461108f5780635b62d1d5146110715780635ec64a441461103f5780636a42478214610fde578063705fee2d14610fbf57806370c8d77014610f4557806376f5f70014610f2757806378f6ad6d14610f095780637cdc65f214610ee05780637d846e3814610ebc57806388afbe3e14610e9257806389043ece14610e655780638d58644c14610e295780638f030ece14610ded578063907c84a714610d82578063956a322814610d54578063973580041461089c5780639b40ab971461087e5780639c3834861461084c578063a59d17d11461082e578063a5e52b9914610810578063ae4708dc146107cd578063bd1aae401461079b578063bf72467214610763578063bff1f9e114610745578063c216212a1461071a578063c4eb42a5146106b9578063c7bb62e814610687578063c8df290814610662578063c9ed070814610644578063ca8e912114610626578063cb0e0d7d146105e9578063ce79c2c31461057e578063d0a2fd791461054c578063d2f0490d14610530578063db27cc71146104cc578063e898fc38146104ae578063e9e34a1614610485578063ebe0ff1514610461578063ec597e6f14610443578063f5748c4f146103ec578063f5d74d93146103c3578063f7a24806146103825763fddc806f14610362575f80fd5b3461037f578060031936011261037f576020603a54604051908152f35b80fd5b503461037f5761039136611f92565b9190815260466020526040812090815483101561037f5760206103b48484612014565b90549060031b1c604051908152f35b503461037f578060031936011261037f576004546040516001600160a01b039091168152602090f35b503461037f57602036600319011261037f5760043590604b5482101561037f57604b5482101561042f57602091604b825282822001549060031b1c604051908152f35b634e487b7160e01b81526032600452602490fd5b503461037f578060031936011261037f576020600554604051908152f35b503461037f578060031936011261037f576020604051683635c9adc5dea000008152f35b503461037f578060031936011261037f576003546040516001600160a01b039091168152602090f35b503461037f578060031936011261037f576020604154604051908152f35b503461037f57602036600319011261037f576040906004358152604c60205220805461052c60018301549260ff60046002830154920154169060405194859485926060929594919560808501968552602085015260408401521515910152565b0390f35b503461037f578060031936011261037f57602060405160058152f35b503461037f57602036600319011261037f57600435600881101561057a5760209150601f0154604051908152f35b5080fd5b503461037f5760409061059036611f92565b908252603060205282822090825260205220805461052c6001830154926002810154906004600382015491015491604051958695869192608093969594919660a084019784526020840152604083015260608201520152565b503461037f57602036600319011261037f576004356001600160a01b0381169081900361057a578160409160209352600f83522054604051908152f35b503461037f578060031936011261037f576020603954604051908152f35b503461037f578060031936011261037f576020604054604051908152f35b503461037f578060031936011261037f57602060405169021e19e0c9bab24000008152f35b503461037f5761069636611f92565b9190815260376020526040812090815483101561037f5760206103b48484612014565b503461037f57602036600319011261037f576040906004358152603c60205220805461052c6001830154926002810154906003810154600482015460058301549060068401549260ff600860078701549601541695604051998a998a611fa8565b503461037f57602036600319011261037f5760043590600d5482101561037f5760206103b483611fe8565b503461037f578060031936011261037f576020600654604051908152f35b503461037f576040809161077636611f92565b908252602f602052828220908252602052206001815491015482519182526020820152f35b503461037f5760ff60406020926107b136611f92565b9082526034855282822090825284522054166040519015158152f35b503461037f57602036600319011261037f576004359060165482101561037f5760165482101561042f576020916016825282822001549060031b1c604051908152f35b503461037f578060031936011261037f5760206040516283d6008152f35b503461037f578060031936011261037f576020604254604051908152f35b503461037f5760ff604060209261086236611f92565b9082526038855282822090825284522054166040519015158152f35b503461037f578060031936011261037f576020604854604051908152f35b503461037f576108ab36611f92565b6108b6929192612321565b828252601060205260408220546001600160a01b03166108d7338214612079565b15610d1d5782151580610d14575b80610cf6575b80610ceb575b6108fa906120b8565b828252604c6020526040822090808352604a60205260408320610928600160ff6004860154161515146121ab565b600383018285528060205261094460ff604087205416156121e8565b600382015491821594610957861561211d565b61097c856001600485019361097360028654970154871061215e565b01541115612234565b60018201809211610cd7575582855260205260408420600160ff198254161790558484526010602052604084209360018060a01b03855416938415610ca357610c705785815260116020526040812090806109d884845461219e565b8355610c5c57505f94939450600b81016109f383825461219e565b90555493600b8401549260065f9501955b8654861015610c4f57610a1686611fe8565b90549060031b1c885f52600e60205260405f20815f526020528560405f20916003830160ff815416801590818092610c39575b15610a8657505091600a610a6f8260019794610a7d97968960ff19825416179055612375565b049283600282015555612388565b955b0194610a04565b9150925080610c24575b15610aae5750506001916002610aa892015490612388565b95610a7f565b929792879082610c0c575b5050610ac85750600190610a7f565b91979593965050600191935001555b60018060a01b03600154166040516020810163a9059cbb60e01b815283602483015285604483015260448252608082019082821067ffffffffffffffff831117610bf8576020925f92604052519082855af115610bed575f513d610be45750803b155b610bd257507f6ac5dc27fbf1276a5db7faad992ea92a268d34b18f81922f747d9d3beb5f9c55938280610bc9937f4d634c31300b97dad99b3af799178230163d88ad306370d063be9cd992d0be7f60806040518981525f602082015260096040820152426060820152a46040519384934292859094939260609260808301968352602083015260408201520152565b0390a160015f55005b635274afe760e01b5f5260045260245ffd5b60011415610b3a565b6040513d5f823e3d90fd5b634e487b7160e01b5f52604160045260245ffd5b600a925090610c1a91612375565b048710865f610ab9565b50600a610c318983612375565b048411610a90565b50600a610c468686612375565b04871015610a49565b5095935091509250610ad7565b634e487b7160e01b81526021600452602490fd5b60405162461bcd60e51b815260206004820152600b60248201526a16995c9bc8185b5bdd5b9d60aa1b6044820152606490fd5b60405162461bcd60e51b815260206004820152600c60248201526b24b73b30b634b2103ab9b2b960a11b6044820152606490fd5b634e487b7160e01b87526011600452602487fd5b5060475481106108f1565b50808252604a602052600160ff6008604085200154161515146108eb565b508015156108e5565b60405162461bcd60e51b815260206004820152600f60248201526e125b9d985b1a59081858d8dbdd5b9d608a1b6044820152606490fd5b503461037f57602036600319011261037f57600435600881101561057a576020915060270154604051908152f35b503461037f57604090610d9436611f92565b908252603560205282822090825260205220805461052c6001830154926002810154906004600382015491015491604051958695869192608093969594919660a084019784526020840152604083015260608201520152565b503461037f57610dfc36612029565b929182526031602052604082209082526020526040812090815483101561037f5760206103b48484612014565b503461037f57610e3836612029565b929182526032602052604082209082526020526040812090815483101561037f5760206103b48484612014565b503461037f576040602091610e7936611f92565b908252600b845282822090825283522054604051908152f35b503461037f57602036600319011261037f5760406020916004358152601483522054604051908152f35b503461037f576020610ed6610ed036611f92565b90612278565b6040519015158152f35b503461037f578060031936011261037f576002546040516001600160a01b039091168152602090f35b503461037f578060031936011261037f576020600954604051908152f35b503461037f578060031936011261037f57602060405162093a808152f35b503461037f57610f5436611f92565b91908152601260205260408120805483101561057a578160209160059350815220910201805461052c6001830154926002810154906004600382015491015491604051958695869192608093969594919660a084019784526020840152604083015260608201520152565b503461037f578060031936011261037f57602060405163025143008152f35b503461037f57602036600319011261037f576040906004358152604360205220805461052c6001830154926002810154906003810154600482015460058301549060068401549260ff600860078701549601541695604051998a998a611fa8565b503461037f5761104e36611f92565b9190815260156020526040812090815483101561037f5760206103b48484612014565b503461037f578060031936011261037f576020604954604051908152f35b503461037f576040906110a136611f92565b908252600e60205282822090825260205220805461052c60018301549260ff60036002830154920154169060405194859485926060929594919560808501968552602085015260408401521515910152565b503461037f5761110236612029565b929182526013602052604082209082526020526040812090815483101561037f5760206103b48484612014565b612043565b503461037f5761114336612029565b92918252603f602052604082209082526020526040812090815483101561037f5760206103b48484612014565b503461037f5761117f36611f92565b91908152604d6020526040812090815483101561037f5760206103b48484612014565b503461037f578060031936011261037f576020604754604051908152f35b503461037f57602036600319011261037f5760406101809160043581526011602052208054906001810154906002810154600382015460048301546005840154600685015490600786015492600887015494600988015496600b600a8a0154990154996040519b8c5260208c015260408b015260608a0152608089015260a088015260c087015260e0860152610100850152610120840152610140830152610160820152f35b503461037f57602036600319011261037f5760406020916004358152600a83522054604051908152f35b503461037f57602036600319011261037f576040906004358152604560205220805461052c60018301549260ff60046002830154920154169060405194859485926060929594919560808501968552602085015260408401521515910152565b503461037f578060031936011261037f5760206040516202a3008152f35b503461037f5761131d36611f92565b611328929192612321565b828252601060205261134760018060a01b036040842054163314612079565b8215158061169f575b80611681575b80611676575b611365906120b8565b82825260456020526040822090808352604360205260408320611393600160ff6004860154161515146121ab565b60038301828552806020526113af60ff604087205416156121e8565b6003820154918215946113c2861561211d565b6113de856001600485019361097360028654970154871061215e565b60018201809211610cd7575582855260205260408420600160ff198254161790558484526010602052604084209360018060a01b03855416938415610ca357610c7057858152601160205260408120908061143a84845461219e565b8355610c5c57505f94939450600a810161145583825461219e565b90555493600b8401549260065f9501955b86548610156116695761147886611fe8565b90549060031b1c885f52600e60205260405f20815f526020528560405f20916003830160ff815416801590818092611653575b156114da57505091600a610a6f82600197946114d197968960ff19825416179055612375565b955b0194611466565b915092508061163e575b1561150257505060019160026114fc92015490612388565b956114d3565b929792879082611626575b505061151c57506001906114d3565b91979593965050600191935001555b60018060a01b03600154166040516020810163a9059cbb60e01b815283602483015285604483015260448252608082019082821067ffffffffffffffff831117610bf8576020925f92604052519082855af115610bed575f513d61161d5750803b155b610bd257507f8211032682f8fd8be8ff252e0a106cdb6ad4b10427152b4d93c2bc9a1f11c3c2938280610bc9937f4d634c31300b97dad99b3af799178230163d88ad306370d063be9cd992d0be7f60806040518981525f602082015260086040820152426060820152a46040519384934292859094939260609260808301968352602083015260408201520152565b6001141561158e565b600a92509061163491612375565b048710865f61150d565b50600a61164b8983612375565b0484116114e4565b50600a6116608686612375565b048710156114ab565b509593509150925061152b565b50604054811061135c565b508082526043602052600160ff600860408520015416151514611356565b50801515611350565b503461037f57602036600319011261037f576004359060075482101561037f5760075482101561042f576020916007825282822001549060031b1c604051908152f35b61205e565b503461037f57602036600319011261037f5760409060043581526010602052206101805260018060a01b03610180515416600261018051015461010052600361018051015461014052600461018051015460056101805101546006610180510154600761018051015460086101805101546009610180510154600a61018051015490600b61018051015492600c61018051015494600d61018051015496600e61018051015498600f6101805101549a60106101805101549c6011610180510154608052601261018051015460c052601361018051015461016052601461018051015461012052601561018051015460e05260405160a05260a0515261010051602060a051015261014051604060a0510152606060a0510152608060a051015260a08051015260c060a051015260e060a051015261010060a051015261012060a051015261014060a051015261016060a051015261018060a05101526101a060a05101526101c060a05101526101e060a051015260805161020060a051015260c05161022060a05101526101605161024060a05101526101205161026060a051015260e05161028060a05101526102a060a051f35b503461037f578060031936011261037f576020604051670de0b6b3a76400008152f35b503461037f578060031936011261037f576020604051620151808152f35b503461037f578060031936011261037f57602060405160028152f35b503461037f578060031936011261037f576020603b54604051908152f35b503461037f578060031936011261037f576001546040516001600160a01b039091168152602090f35b503461037f57602036600319011261037f576004359060445482101561037f5760445482101561042f576020916044825282822001549060031b1c604051908152f35b503461037f578060031936011261037f57602060405162278d008152f35b503461037f57602036600319011261037f576004359060175482101561037f5760175482101561042f576020916017825282822001549060031b1c604051908152f35b503461037f57602036600319011261037f57600435600781101561057a576020915060180154604051908152f35b34611df257611a2836611f92565b611a30612321565b815f526010602052611a4f60018060a01b0360405f2054163314612079565b81151580611de9575b80611dcb575b80611dc0575b611a6d906120b8565b805f52603e60205260405f20825f5260205260405f20815f52603c602052600360405f209101918254600160ff8260081c161515149081611db4575b5015611d7057600382015492831592611ac2841561211d565b60048101611ad760028254930154831061215e565b60018201809211611d5c5755600160ff19825416179055835f52601060205260405f209260018060a01b03845416928315610ca357610c7057845f94939452601160205260405f20611b2a82825461219e565b815560098101611b3b83825461219e565b90555493600b8401549260065f9501955b8654861015611d4f57611b5e86611fe8565b90549060031b1c885f52600e60205260405f20815f526020528560405f20916003830160ff815416801590818092611d39575b15611bc057505091600a610a6f8260019794611bb797968960ff19825416179055612375565b955b0194611b4c565b9150925080611d24575b15611be85750506001916002611be292015490612388565b95611bb9565b929792879082611d0c575b5050611c025750600190611bb9565b91979593965050600191935001555b60018060a01b03600154166040516020810163a9059cbb60e01b815283602483015285604483015260448252608082019082821067ffffffffffffffff831117610bf8576020925f92604052519082855af115610bed575f513d611d035750803b155b610bd257507f96ee4f374d0394c5383b347dc3b7ec04a1eceddcd2e25521157bce21c42b24d5938280610bc9937f4d634c31300b97dad99b3af799178230163d88ad306370d063be9cd992d0be7f60806040518981525f602082015260076040820152426060820152a46040519384934292859094939260609260808301968352602083015260408201520152565b60011415611c74565b600a925090611d1a91612375565b048710868b611bf3565b50600a611d318983612375565b048411611bca565b50600a611d468686612375565b04871015611b91565b5095935091509250611c11565b634e487b7160e01b5f52601160045260245ffd5b606460405162461bcd60e51b815260206004820152602060248201527f4e6f74207175616c6966696564206f7220616c726561647920636c61696d65646044820152fd5b60ff9150161585611aa9565b506039548110611a64565b50805f52603c602052600160ff600860405f20015416151514611a5e565b50801515611a58565b5f80fd5b34611df257611e0436611f92565b905f52603360205260405f208054821015611df2576020916103b491612014565b34611df257611e3336612029565b915f52603660205260405f20905f5260205260405f208054821015611df2576020916103b491612014565b34611df257611e6c36611f92565b905f52603d60205260405f208054821015611df2576020916103b491612014565b34611df2576020366003190112611df2576004355f52600c602052602060405f2054604051908152f35b34611df2576020366003190112611df2576004355f52604a60205260405f20805461052c6001830154926002810154906003810154600482015460058301549060068401549260ff600860078701549601541695604051998a998a611fa8565b34611df2575f366003190112611df25760206040516127108152f35b34611df25760a090611f4436611f92565b905f52603e60205260405f20905f5260205260ff60405f20805490600181015460036002830154920154928552602085015260408401528181161515606084015260081c1615156080820152f35b6040906003190112611df2576004359060243590565b979491926101009794919a9996936101208a019b8a5260208a015260408901526060880152608087015260a086015260c085015260e08401521515910152565b600d5481101561200057600d5f5260205f2001905f90565b634e487b7160e01b5f52603260045260245ffd5b8054821015612000575f5260205f2001905f90565b6060906003190112611df257600435906024359060443590565b34611df2575f366003190112611df2576020604051600a8152f35b34611df2575f366003190112611df2576020604051600f8152f35b1561208057565b60405162461bcd60e51b815260206004820152601060248201526f139bdd081e5bdd5c881858d8dbdd5b9d60821b6044820152606490fd5b156120bf57565b60405162461bcd60e51b815260206004820152603060248201527f496e76616c696420757365724964206f7220726f756e644964206f7220726f7560448201526f1b99081bdc881b9bdd0818db1bdcd95960821b6064820152608490fd5b1561212457565b60405162461bcd60e51b81526020600482015260126024820152714e6f2072657761726420746f20636c61696d60701b6044820152606490fd5b1561216557565b60405162461bcd60e51b8152602060048201526011602482015270105b1b081d5cd95c9cc818db185a5b5959607a1b6044820152606490fd5b91908201809211611d5c57565b156121b257565b60405162461bcd60e51b815260206004820152600e60248201526d02737ba1038bab0b634b334b2b2160951b6044820152606490fd5b156121ef57565b60405162461bcd60e51b815260206004820152601e60248201527f416c726561647920636c61696d656420666f72207468697320726f756e6400006044820152606490fd5b1561223b57565b60405162461bcd60e51b81526020600482015260156024820152744e6f7420656c696769626c6520746f20636c61696d60581b6044820152606490fd5b5f52604560205260405f20815f52604360205260405f209060ff60088301541615928315612314575b8315612304575b83156122f5575b83156122da575b505081156122cd575b506122c957600190565b5f90565b600391500154155f6122bf565b60039293505f520160205260ff60405f205416905f806122b6565b809350600182015411926122af565b600482015460ff161593506122a8565b60405481101593506122a1565b60025f54146123305760025f55565b60405162461bcd60e51b815260206004820152601f60248201527f5265656e7472616e637947756172643a207265656e7472616e742063616c6c006044820152606490fd5b81810292918115918404141715611d5c57565b91908203918211611d5c5756fea264697066735822122056ebacf58adc8765a6bc56e8c205a2ebfe882209628c4acc211e7ec60aa3fe5e64736f6c634300081e0033",
			"opcodes": "PUSH1 0x80 PUSH1 0x40 MSTORE CALLVALUE PUSH2 0x52B JUMPI PUSH1 0x1 PUSH0 SSTORE PUSH1 0x40 MLOAD PUSH2 0x1E0 DUP2 ADD PUSH1 0x1 PUSH1 0x1 PUSH1 0x40 SHL SUB DUP2 GT DUP3 DUP3 LT OR PUSH2 0x517 JUMPI PUSH1 0x40 MSTORE PUSH8 0xD02AB486CEDC0000 DUP2 MSTORE PUSH9 0x15AF1D78B58C40000 PUSH1 0x20 DUP3 ADD MSTORE PUSH9 0x2B5E3AF16B1880000 PUSH1 0x40 DUP3 ADD MSTORE PUSH9 0x56BC75E2D63100000 PUSH1 0x60 DUP3 ADD MSTORE PUSH9 0xAD78EBC5AC6200000 PUSH1 0x80 DUP3 ADD MSTORE PUSH9 0x15AF1D78B58C400000 PUSH1 0xA0 DUP3 ADD MSTORE PUSH9 0x2B5E3AF16B18800000 PUSH1 0xC0 DUP3 ADD MSTORE PUSH9 0x56BC75E2D631000000 PUSH1 0xE0 DUP3 ADD MSTORE PUSH9 0xAD78EBC5AC62000000 PUSH2 0x100 DUP3 ADD MSTORE PUSH10 0x15AF1D78B58C4000000 PUSH2 0x120 DUP3 ADD MSTORE PUSH10 0x2B5E3AF16B188000000 PUSH2 0x140 DUP3 ADD MSTORE PUSH10 0x56BC75E2D6310000000 PUSH2 0x160 DUP3 ADD MSTORE PUSH10 0xAD78EBC5AC620000000 PUSH2 0x180 DUP3 ADD MSTORE PUSH10 0x15AF1D78B58C40000000 PUSH2 0x1A0 DUP3 ADD MSTORE PUSH10 0x2B5E3AF16B1880000000 PUSH2 0x1C0 DUP3 ADD MSTORE PUSH1 0xD SLOAD PUSH1 0xF PUSH1 0xD SSTORE DUP1 PUSH1 0xF LT PUSH2 0x4C1 JUMPI JUMPDEST POP PUSH1 0xD PUSH0 MSTORE PUSH1 0x20 PUSH0 KECCAK256 SWAP1 PUSH0 JUMPDEST PUSH1 0xF DUP2 LT PUSH2 0x4A4 JUMPI PUSH2 0x141 PUSH2 0x52F JUMP JUMPDEST PUSH9 0x410D586A20A4C0000 DUP2 MSTORE PUSH9 0x1043561A8829300000 PUSH1 0x20 DUP3 ADD MSTORE PUSH9 0x410D586A20A4C00000 PUSH1 0x40 DUP3 ADD MSTORE PUSH10 0x1043561A88293000000 PUSH1 0x60 DUP3 ADD MSTORE PUSH10 0x410D586A20A4C000000 PUSH1 0x80 DUP3 ADD MSTORE PUSH10 0x1043561A882930000000 PUSH1 0xA0 DUP3 ADD MSTORE PUSH10 0x410D586A20A4C0000000 PUSH1 0xC0 DUP3 ADD MSTORE PUSH1 0x16 SLOAD PUSH1 0x7 PUSH1 0x16 SSTORE DUP1 PUSH1 0x7 LT PUSH2 0x44E JUMPI JUMPDEST POP PUSH1 0x16 PUSH0 MSTORE PUSH1 0x20 PUSH0 KECCAK256 SWAP1 PUSH0 JUMPDEST PUSH1 0x7 DUP2 LT PUSH2 0x431 JUMPI PUSH2 0x1D8 PUSH2 0x54E JUMP JUMPDEST PUSH9 0x56BC75E2D63100000 DUP2 MSTORE PUSH9 0xAD78EBC5AC6200000 PUSH1 0x20 DUP3 ADD MSTORE PUSH9 0x15AF1D78B58C400000 PUSH1 0x40 DUP3 ADD MSTORE PUSH9 0x2B5E3AF16B18800000 PUSH1 0x60 DUP3 ADD MSTORE PUSH9 0x56BC75E2D631000000 PUSH1 0x80 DUP3 ADD MSTORE PUSH9 0xAD78EBC5AC62000000 PUSH1 0xA0 DUP3 ADD MSTORE PUSH10 0x15AF1D78B58C4000000 PUSH1 0xC0 DUP3 ADD MSTORE PUSH10 0x2B5E3AF16B188000000 PUSH1 0xE0 DUP3 ADD MSTORE PUSH1 0x17 SLOAD PUSH1 0x8 PUSH1 0x17 SSTORE DUP1 PUSH1 0x8 LT PUSH2 0x3DB JUMPI JUMPDEST POP PUSH1 0x17 PUSH0 MSTORE PUSH1 0x20 PUSH0 KECCAK256 SWAP1 PUSH0 JUMPDEST PUSH1 0x8 DUP2 LT PUSH2 0x3BE JUMPI PUSH2 0x27C PUSH2 0x52F JUMP JUMPDEST PUSH1 0x3 DUP2 MSTORE PUSH1 0x5 PUSH1 0x20 DUP3 ADD MSTORE PUSH1 0x7 PUSH1 0x40 DUP3 ADD MSTORE PUSH1 0x9 PUSH1 0x60 DUP3 ADD MSTORE PUSH1 0xB PUSH1 0x80 DUP3 ADD MSTORE PUSH1 0xD PUSH1 0xA0 DUP3 ADD MSTORE PUSH1 0xF PUSH1 0xC0 DUP3 ADD MSTORE PUSH0 JUMPDEST PUSH1 0x7 DUP2 LT PUSH2 0x3A6 JUMPI PUSH2 0x2BC PUSH2 0x54E JUMP JUMPDEST PUSH1 0x4 DUP2 MSTORE PUSH1 0x5 PUSH1 0x20 DUP3 ADD MSTORE PUSH1 0x6 PUSH1 0x40 DUP3 ADD MSTORE PUSH1 0x7 PUSH1 0x60 DUP3 ADD MSTORE PUSH1 0x8 PUSH1 0x80 DUP3 ADD MSTORE PUSH1 0x9 PUSH1 0xA0 DUP3 ADD MSTORE PUSH1 0xA PUSH1 0xC0 DUP3 ADD MSTORE PUSH1 0xB PUSH1 0xE0 DUP3 ADD MSTORE PUSH0 JUMPDEST PUSH1 0x8 DUP2 LT PUSH2 0x38E JUMPI PUSH2 0x303 PUSH2 0x54E JUMP JUMPDEST PUSH0 DUP2 MSTORE PUSH1 0x1 PUSH1 0x20 DUP3 ADD MSTORE PUSH1 0x1 PUSH1 0x40 DUP3 ADD MSTORE PUSH1 0x1 PUSH1 0x60 DUP3 ADD MSTORE PUSH1 0x1 PUSH1 0x80 DUP3 ADD MSTORE PUSH1 0x1 PUSH1 0xA0 DUP3 ADD MSTORE PUSH1 0x1 PUSH1 0xC0 DUP3 ADD MSTORE PUSH1 0x1 PUSH1 0xE0 DUP3 ADD MSTORE PUSH0 JUMPDEST PUSH1 0x8 DUP2 LT PUSH2 0x376 JUMPI PUSH0 PUSH1 0x39 SSTORE PUSH0 PUSH1 0x3A SSTORE PUSH0 PUSH1 0x3B SSTORE PUSH1 0x1 PUSH1 0x40 SSTORE PUSH0 PUSH1 0x41 SSTORE PUSH0 PUSH1 0x42 SSTORE PUSH1 0x1 PUSH1 0x47 SSTORE PUSH0 PUSH1 0x48 SSTORE PUSH0 PUSH1 0x49 SSTORE PUSH1 0x40 MLOAD PUSH2 0x23CB SWAP1 DUP2 PUSH2 0x585 DUP3 CODECOPY RETURN JUMPDEST PUSH1 0x1 SWAP1 PUSH1 0x20 PUSH1 0xFF DUP5 MLOAD AND SWAP4 ADD SWAP3 DUP2 PUSH1 0x27 ADD SSTORE ADD PUSH2 0x339 JUMP JUMPDEST PUSH1 0x1 SWAP1 PUSH1 0x20 PUSH1 0xFF DUP5 MLOAD AND SWAP4 ADD SWAP3 DUP2 PUSH1 0x1F ADD SSTORE ADD PUSH2 0x2F3 JUMP JUMPDEST PUSH1 0x1 SWAP1 PUSH1 0x20 PUSH1 0xFF DUP5 MLOAD AND SWAP4 ADD SWAP3 DUP2 PUSH1 0x18 ADD SSTORE ADD PUSH2 0x2AC JUMP JUMPDEST DUP2 MLOAD PUSH1 0x1 PUSH1 0x1 PUSH1 0x50 SHL SUB AND DUP2 DUP5 ADD SSTORE PUSH1 0x20 SWAP1 SWAP2 ADD SWAP1 PUSH1 0x1 ADD PUSH2 0x26C JUMP JUMPDEST PUSH1 0x17 PUSH0 MSTORE PUSH2 0x42B SWAP1 PUSH32 0xC624B66CC0138B8FABC209247F72D758E1CF3343756D543BADBF24212BED8C15 ADD PUSH32 0xC624B66CC0138B8FABC209247F72D758E1CF3343756D543BADBF24212BED8C1D PUSH2 0x56E JUMP JUMPDEST DUP2 PUSH2 0x260 JUMP JUMPDEST DUP2 MLOAD PUSH1 0x1 PUSH1 0x1 PUSH1 0x50 SHL SUB AND DUP2 DUP5 ADD SSTORE PUSH1 0x20 SWAP1 SWAP2 ADD SWAP1 PUSH1 0x1 ADD PUSH2 0x1C8 JUMP JUMPDEST PUSH1 0x16 PUSH0 MSTORE PUSH2 0x49E SWAP1 PUSH32 0xD833147D7DC355BA459FC788F669E58CFAF9DC25DDCD0702E87D69C7B5124289 ADD PUSH32 0xD833147D7DC355BA459FC788F669E58CFAF9DC25DDCD0702E87D69C7B5124290 PUSH2 0x56E JUMP JUMPDEST DUP2 PUSH2 0x1BC JUMP JUMPDEST DUP2 MLOAD PUSH1 0x1 PUSH1 0x1 PUSH1 0x50 SHL SUB AND DUP2 DUP5 ADD SSTORE PUSH1 0x20 SWAP1 SWAP2 ADD SWAP1 PUSH1 0x1 ADD PUSH2 0x131 JUMP JUMPDEST PUSH1 0xD PUSH0 MSTORE PUSH2 0x511 SWAP1 PUSH32 0xD7B6990105719101DABEB77144F2A3385C8033ACD3AF97E9423A695E81AD1EB5 ADD PUSH32 0xD7B6990105719101DABEB77144F2A3385C8033ACD3AF97E9423A695E81AD1EC4 PUSH2 0x56E JUMP JUMPDEST PUSH0 PUSH2 0x125 JUMP JUMPDEST PUSH4 0x4E487B71 PUSH1 0xE0 SHL PUSH0 MSTORE PUSH1 0x41 PUSH1 0x4 MSTORE PUSH1 0x24 PUSH0 REVERT JUMPDEST PUSH0 DUP1 REVERT JUMPDEST PUSH1 0x40 MLOAD SWAP1 PUSH1 0xE0 DUP3 ADD PUSH1 0x1 PUSH1 0x1 PUSH1 0x40 SHL SUB DUP2 GT DUP4 DUP3 LT OR PUSH2 0x517 JUMPI PUSH1 0x40 MSTORE JUMP JUMPDEST PUSH1 0x40 MLOAD SWAP1 PUSH2 0x100 DUP3 ADD PUSH1 0x1 PUSH1 0x1 PUSH1 0x40 SHL SUB DUP2 GT DUP4 DUP3 LT OR PUSH2 0x517 JUMPI PUSH1 0x40 MSTORE JUMP JUMPDEST DUP2 DUP2 LT PUSH2 0x579 JUMPI POP POP JUMP JUMPDEST PUSH0 DUP2 SSTORE PUSH1 0x1 ADD PUSH2 0x56E JUMP INVALID PUSH2 0x1A0 DUP1 PUSH1 0x40 MSTORE PUSH1 0x4 CALLDATASIZE LT ISZERO PUSH2 0x13 JUMPI PUSH0 DUP1 REVERT JUMPDEST PUSH0 SWAP1 PUSH0 CALLDATALOAD PUSH1 0xE0 SHR SWAP1 DUP2 PUSH3 0x54815D EQ PUSH2 0x1F33 JUMPI POP DUP1 PUSH4 0x1C234A8 EQ PUSH2 0x1F17 JUMPI DUP1 PUSH4 0x56B4D1F EQ PUSH2 0x1EB7 JUMPI DUP1 PUSH4 0x676D0D6 EQ PUSH2 0x1E8D JUMPI DUP1 PUSH4 0xA5C5D69 EQ PUSH2 0x1E5E JUMPI DUP1 PUSH4 0xEF81B74 EQ PUSH2 0x1E25 JUMPI DUP1 PUSH4 0xF2B7CC9 EQ PUSH2 0x1DF6 JUMPI DUP1 PUSH4 0x16298056 EQ PUSH2 0x1A1A JUMPI DUP1 PUSH4 0x2132D204 EQ PUSH2 0x19EC JUMPI DUP1 PUSH4 0x2350268F EQ PUSH2 0x19A9 JUMPI DUP1 PUSH4 0x23FD338E EQ PUSH2 0x112F JUMPI DUP1 PUSH4 0x2A891534 EQ PUSH2 0x198B JUMPI DUP1 PUSH4 0x2AE0EE0D EQ PUSH2 0x16EB JUMPI DUP1 PUSH4 0x2D66014F EQ PUSH2 0x1948 JUMPI DUP1 PUSH4 0x2F48AB7D EQ PUSH2 0x191F JUMPI DUP1 PUSH4 0x3080B5BC EQ PUSH2 0x1901 JUMPI DUP1 PUSH4 0x31BB6A30 EQ PUSH2 0x18E5 JUMPI DUP1 PUSH4 0x32BC298C EQ PUSH2 0x18C7 JUMPI DUP1 PUSH4 0x32FCD966 EQ PUSH2 0x18A4 JUMPI DUP1 PUSH4 0x365B98B2 EQ PUSH2 0x16F0 JUMPI DUP1 PUSH4 0x375B43B4 EQ PUSH2 0x16EB JUMPI DUP1 PUSH4 0x39AB3603 EQ PUSH2 0x16A8 JUMPI DUP1 PUSH4 0x39F2E64A EQ PUSH2 0x130E JUMPI DUP1 PUSH4 0x3A5084B3 EQ PUSH2 0x12F0 JUMPI DUP1 PUSH4 0x4036436C EQ PUSH2 0x1290 JUMPI DUP1 PUSH4 0x45CB537C EQ PUSH2 0x1266 JUMPI DUP1 PUSH4 0x46B9DECE EQ PUSH2 0x11C0 JUMPI DUP1 PUSH4 0x4B8CBF9B EQ PUSH2 0x11A2 JUMPI DUP1 PUSH4 0x4D12AE0F EQ PUSH2 0x1170 JUMPI DUP1 PUSH4 0x4D4CC5CA EQ PUSH2 0x1134 JUMPI DUP1 PUSH4 0x58C7D352 EQ PUSH2 0x112F JUMPI DUP1 PUSH4 0x5AABF7F1 EQ PUSH2 0x10F3 JUMPI DUP1 PUSH4 0x5B58CE6C EQ PUSH2 0x108F JUMPI DUP1 PUSH4 0x5B62D1D5 EQ PUSH2 0x1071 JUMPI DUP1 PUSH4 0x5EC64A44 EQ PUSH2 0x103F JUMPI DUP1 PUSH4 0x6A424782 EQ PUSH2 0xFDE JUMPI DUP1 PUSH4 0x705FEE2D EQ PUSH2 0xFBF JUMPI DUP1 PUSH4 0x70C8D770 EQ PUSH2 0xF45 JUMPI DUP1 PUSH4 0x76F5F700 EQ PUSH2 0xF27 JUMPI DUP1 PUSH4 0x78F6AD6D EQ PUSH2 0xF09 JUMPI DUP1 PUSH4 0x7CDC65F2 EQ PUSH2 0xEE0 JUMPI DUP1 PUSH4 0x7D846E38 EQ PUSH2 0xEBC JUMPI DUP1 PUSH4 0x88AFBE3E EQ PUSH2 0xE92 JUMPI DUP1 PUSH4 0x89043ECE EQ PUSH2 0xE65 JUMPI DUP1 PUSH4 0x8D58644C EQ PUSH2 0xE29 JUMPI DUP1 PUSH4 0x8F030ECE EQ PUSH2 0xDED JUMPI DUP1 PUSH4 0x907C84A7 EQ PUSH2 0xD82 JUMPI DUP1 PUSH4 0x956A3228 EQ PUSH2 0xD54 JUMPI DUP1 PUSH4 0x97358004 EQ PUSH2 0x89C JUMPI DUP1 PUSH4 0x9B40AB97 EQ PUSH2 0x87E JUMPI DUP1 PUSH4 0x9C383486 EQ PUSH2 0x84C JUMPI DUP1 PUSH4 0xA59D17D1 EQ PUSH2 0x82E JUMPI DUP1 PUSH4 0xA5E52B99 EQ PUSH2 0x810 JUMPI DUP1 PUSH4 0xAE4708DC EQ PUSH2 0x7CD JUMPI DUP1 PUSH4 0xBD1AAE40 EQ PUSH2 0x79B JUMPI DUP1 PUSH4 0xBF724672 EQ PUSH2 0x763 JUMPI DUP1 PUSH4 0xBFF1F9E1 EQ PUSH2 0x745 JUMPI DUP1 PUSH4 0xC216212A EQ PUSH2 0x71A JUMPI DUP1 PUSH4 0xC4EB42A5 EQ PUSH2 0x6B9 JUMPI DUP1 PUSH4 0xC7BB62E8 EQ PUSH2 0x687 JUMPI DUP1 PUSH4 0xC8DF2908 EQ PUSH2 0x662 JUMPI DUP1 PUSH4 0xC9ED0708 EQ PUSH2 0x644 JUMPI DUP1 PUSH4 0xCA8E9121 EQ PUSH2 0x626 JUMPI DUP1 PUSH4 0xCB0E0D7D EQ PUSH2 0x5E9 JUMPI DUP1 PUSH4 0xCE79C2C3 EQ PUSH2 0x57E JUMPI DUP1 PUSH4 0xD0A2FD79 EQ PUSH2 0x54C JUMPI DUP1 PUSH4 0xD2F0490D EQ PUSH2 0x530 JUMPI DUP1 PUSH4 0xDB27CC71 EQ PUSH2 0x4CC JUMPI DUP1 PUSH4 0xE898FC38 EQ PUSH2 0x4AE JUMPI DUP1 PUSH4 0xE9E34A16 EQ PUSH2 0x485 JUMPI DUP1 PUSH4 0xEBE0FF15 EQ PUSH2 0x461 JUMPI DUP1 PUSH4 0xEC597E6F EQ PUSH2 0x443 JUMPI DUP1 PUSH4 0xF5748C4F EQ PUSH2 0x3EC JUMPI DUP1 PUSH4 0xF5D74D93 EQ PUSH2 0x3C3 JUMPI DUP1 PUSH4 0xF7A24806 EQ PUSH2 0x382 JUMPI PUSH4 0xFDDC806F EQ PUSH2 0x362 JUMPI PUSH0 DUP1 REVERT JUMPDEST CALLVALUE PUSH2 0x37F JUMPI DUP1 PUSH1 0x3 NOT CALLDATASIZE ADD SLT PUSH2 0x37F JUMPI PUSH1 0x20 PUSH1 0x3A SLOAD PUSH1 0x40 MLOAD SWAP1 DUP2 MSTORE RETURN JUMPDEST DUP1 REVERT JUMPDEST POP CALLVALUE PUSH2 0x37F JUMPI PUSH2 0x391 CALLDATASIZE PUSH2 0x1F92 JUMP JUMPDEST SWAP2 SWAP1 DUP2 MSTORE PUSH1 0x46 PUSH1 0x20 MSTORE PUSH1 0x40 DUP2 KECCAK256 SWAP1 DUP2 SLOAD DUP4 LT ISZERO PUSH2 0x37F JUMPI PUSH1 0x20 PUSH2 0x3B4 DUP5 DUP5 PUSH2 0x2014 JUMP JUMPDEST SWAP1 SLOAD SWAP1 PUSH1 0x3 SHL SHR PUSH1 0x40 MLOAD SWAP1 DUP2 MSTORE RETURN JUMPDEST POP CALLVALUE PUSH2 0x37F JUMPI DUP1 PUSH1 0x3 NOT CALLDATASIZE ADD SLT PUSH2 0x37F JUMPI PUSH1 0x4 SLOAD PUSH1 0x40 MLOAD PUSH1 0x1 PUSH1 0x1 PUSH1 0xA0 SHL SUB SWAP1 SWAP2 AND DUP2 MSTORE PUSH1 0x20 SWAP1 RETURN JUMPDEST POP CALLVALUE PUSH2 0x37F JUMPI PUSH1 0x20 CALLDATASIZE PUSH1 0x3 NOT ADD SLT PUSH2 0x37F JUMPI PUSH1 0x4 CALLDATALOAD SWAP1 PUSH1 0x4B SLOAD DUP3 LT ISZERO PUSH2 0x37F JUMPI PUSH1 0x4B SLOAD DUP3 LT ISZERO PUSH2 0x42F JUMPI PUSH1 0x20 SWAP2 PUSH1 0x4B DUP3 MSTORE DUP3 DUP3 KECCAK256 ADD SLOAD SWAP1 PUSH1 0x3 SHL SHR PUSH1 0x40 MLOAD SWAP1 DUP2 MSTORE RETURN JUMPDEST PUSH4 0x4E487B71 PUSH1 0xE0 SHL DUP2 MSTORE PUSH1 0x32 PUSH1 0x4 MSTORE PUSH1 0x24 SWAP1 REVERT JUMPDEST POP CALLVALUE PUSH2 0x37F JUMPI DUP1 PUSH1 0x3 NOT CALLDATASIZE ADD SLT PUSH2 0x37F JUMPI PUSH1 0x20 PUSH1 0x5 SLOAD PUSH1 0x40 MLOAD SWAP1 DUP2 MSTORE RETURN JUMPDEST POP CALLVALUE PUSH2 0x37F JUMPI DUP1 PUSH1 0x3 NOT CALLDATASIZE ADD SLT PUSH2 0x37F JUMPI PUSH1 0x20 PUSH1 0x40 MLOAD PUSH9 0x3635C9ADC5DEA00000 DUP2 MSTORE RETURN JUMPDEST POP CALLVALUE PUSH2 0x37F JUMPI DUP1 PUSH1 0x3 NOT CALLDATASIZE ADD SLT PUSH2 0x37F JUMPI PUSH1 0x3 SLOAD PUSH1 0x40 MLOAD PUSH1 0x1 PUSH1 0x1 PUSH1 0xA0 SHL SUB SWAP1 SWAP2 AND DUP2 MSTORE PUSH1 0x20 SWAP1 RETURN JUMPDEST POP CALLVALUE PUSH2 0x37F JUMPI DUP1 PUSH1 0x3 NOT CALLDATASIZE ADD SLT PUSH2 0x37F JUMPI PUSH1 0x20 PUSH1 0x41 SLOAD PUSH1 0x40 MLOAD SWAP1 DUP2 MSTORE RETURN JUMPDEST POP CALLVALUE PUSH2 0x37F JUMPI PUSH1 0x20 CALLDATASIZE PUSH1 0x3 NOT ADD SLT PUSH2 0x37F JUMPI PUSH1 0x40 SWAP1 PUSH1 0x4 CALLDATALOAD DUP2 MSTORE PUSH1 0x4C PUSH1 0x20 MSTORE KECCAK256 DUP1 SLOAD PUSH2 0x52C PUSH1 0x1 DUP4 ADD SLOAD SWAP3 PUSH1 0xFF PUSH1 0x4 PUSH1 0x2 DUP4 ADD SLOAD SWAP3 ADD SLOAD AND SWAP1 PUSH1 0x40 MLOAD SWAP5 DUP6 SWAP5 DUP6 SWAP3 PUSH1 0x60 SWAP3 SWAP6 SWAP5 SWAP2 SWAP6 PUSH1 0x80 DUP6 ADD SWAP7 DUP6 MSTORE PUSH1 0x20 DUP6 ADD MSTORE PUSH1 0x40 DUP5 ADD MSTORE ISZERO ISZERO SWAP2 ADD MSTORE JUMP JUMPDEST SUB SWAP1 RETURN JUMPDEST POP CALLVALUE PUSH2 0x37F JUMPI DUP1 PUSH1 0x3 NOT CALLDATASIZE ADD SLT PUSH2 0x37F JUMPI PUSH1 0x20 PUSH1 0x40 MLOAD PUSH1 0x5 DUP2 MSTORE RETURN JUMPDEST POP CALLVALUE PUSH2 0x37F JUMPI PUSH1 0x20 CALLDATASIZE PUSH1 0x3 NOT ADD SLT PUSH2 0x37F JUMPI PUSH1 0x4 CALLDATALOAD PUSH1 0x8 DUP2 LT ISZERO PUSH2 0x57A JUMPI PUSH1 0x20 SWAP2 POP PUSH1 0x1F ADD SLOAD PUSH1 0x40 MLOAD SWAP1 DUP2 MSTORE RETURN JUMPDEST POP DUP1 REVERT JUMPDEST POP CALLVALUE PUSH2 0x37F JUMPI PUSH1 0x40 SWAP1 PUSH2 0x590 CALLDATASIZE PUSH2 0x1F92 JUMP JUMPDEST SWAP1 DUP3 MSTORE PUSH1 0x30 PUSH1 0x20 MSTORE DUP3 DUP3 KECCAK256 SWAP1 DUP3 MSTORE PUSH1 0x20 MSTORE KECCAK256 DUP1 SLOAD PUSH2 0x52C PUSH1 0x1 DUP4 ADD SLOAD SWAP3 PUSH1 0x2 DUP2 ADD SLOAD SWAP1 PUSH1 0x4 PUSH1 0x3 DUP3 ADD SLOAD SWAP2 ADD SLOAD SWAP2 PUSH1 0x40 MLOAD SWAP6 DUP7 SWAP6 DUP7 SWAP2 SWAP3 PUSH1 0x80 SWAP4 SWAP7 SWAP6 SWAP5 SWAP2 SWAP7 PUSH1 0xA0 DUP5 ADD SWAP8 DUP5 MSTORE PUSH1 0x20 DUP5 ADD MSTORE PUSH1 0x40 DUP4 ADD MSTORE PUSH1 0x60 DUP3 ADD MSTORE ADD MSTORE JUMP JUMPDEST POP CALLVALUE PUSH2 0x37F JUMPI PUSH1 0x20 CALLDATASIZE PUSH1 0x3 NOT ADD SLT PUSH2 0x37F JUMPI PUSH1 0x4 CALLDATALOAD PUSH1 0x1 PUSH1 0x1 PUSH1 0xA0 SHL SUB DUP2 AND SWAP1 DUP2 SWAP1 SUB PUSH2 0x57A JUMPI DUP2 PUSH1 0x40 SWAP2 PUSH1 0x20 SWAP4 MSTORE PUSH1 0xF DUP4 MSTORE KECCAK256 SLOAD PUSH1 0x40 MLOAD SWAP1 DUP2 MSTORE RETURN JUMPDEST POP CALLVALUE PUSH2 0x37F JUMPI DUP1 PUSH1 0x3 NOT CALLDATASIZE ADD SLT PUSH2 0x37F JUMPI PUSH1 0x20 PUSH1 0x39 SLOAD PUSH1 0x40 MLOAD SWAP1 DUP2 MSTORE RETURN JUMPDEST POP CALLVALUE PUSH2 0x37F JUMPI DUP1 PUSH1 0x3 NOT CALLDATASIZE ADD SLT PUSH2 0x37F JUMPI PUSH1 0x20 PUSH1 0x40 SLOAD PUSH1 0x40 MLOAD SWAP1 DUP2 MSTORE RETURN JUMPDEST POP CALLVALUE PUSH2 0x37F JUMPI DUP1 PUSH1 0x3 NOT CALLDATASIZE ADD SLT PUSH2 0x37F JUMPI PUSH1 0x20 PUSH1 0x40 MLOAD PUSH10 0x21E19E0C9BAB2400000 DUP2 MSTORE RETURN JUMPDEST POP CALLVALUE PUSH2 0x37F JUMPI PUSH2 0x696 CALLDATASIZE PUSH2 0x1F92 JUMP JUMPDEST SWAP2 SWAP1 DUP2 MSTORE PUSH1 0x37 PUSH1 0x20 MSTORE PUSH1 0x40 DUP2 KECCAK256 SWAP1 DUP2 SLOAD DUP4 LT ISZERO PUSH2 0x37F JUMPI PUSH1 0x20 PUSH2 0x3B4 DUP5 DUP5 PUSH2 0x2014 JUMP JUMPDEST POP CALLVALUE PUSH2 0x37F JUMPI PUSH1 0x20 CALLDATASIZE PUSH1 0x3 NOT ADD SLT PUSH2 0x37F JUMPI PUSH1 0x40 SWAP1 PUSH1 0x4 CALLDATALOAD DUP2 MSTORE PUSH1 0x3C PUSH1 0x20 MSTORE KECCAK256 DUP1 SLOAD PUSH2 0x52C PUSH1 0x1 DUP4 ADD SLOAD SWAP3 PUSH1 0x2 DUP2 ADD SLOAD SWAP1 PUSH1 0x3 DUP2 ADD SLOAD PUSH1 0x4 DUP3 ADD SLOAD PUSH1 0x5 DUP4 ADD SLOAD SWAP1 PUSH1 0x6 DUP5 ADD SLOAD SWAP3 PUSH1 0xFF PUSH1 0x8 PUSH1 0x7 DUP8 ADD SLOAD SWAP7 ADD SLOAD AND SWAP6 PUSH1 0x40 MLOAD SWAP10 DUP11 SWAP10 DUP11 PUSH2 0x1FA8 JUMP JUMPDEST POP CALLVALUE PUSH2 0x37F JUMPI PUSH1 0x20 CALLDATASIZE PUSH1 0x3 NOT ADD SLT PUSH2 0x37F JUMPI PUSH1 0x4 CALLDATALOAD SWAP1 PUSH1 0xD SLOAD DUP3 LT ISZERO PUSH2 0x37F JUMPI PUSH1 0x20 PUSH2 0x3B4 DUP4 PUSH2 0x1FE8 JUMP JUMPDEST POP CALLVALUE PUSH2 0x37F JUMPI DUP1 PUSH1 0x3 NOT CALLDATASIZE ADD SLT PUSH2 0x37F JUMPI PUSH1 0x20 PUSH1 0x6 SLOAD PUSH1 0x40 MLOAD SWAP1 DUP2 MSTORE RETURN JUMPDEST POP CALLVALUE PUSH2 0x37F JUMPI PUSH1 0x40 DUP1 SWAP2 PUSH2 0x776 CALLDATASIZE PUSH2 0x1F92 JUMP JUMPDEST SWAP1 DUP3 MSTORE PUSH1 0x2F PUSH1 0x20 MSTORE DUP3 DUP3 KECCAK256 SWAP1 DUP3 MSTORE PUSH1 0x20 MSTORE KECCAK256 PUSH1 0x1 DUP2 SLOAD SWAP2 ADD SLOAD DUP3 MLOAD SWAP2 DUP3 MSTORE PUSH1 0x20 DUP3 ADD MSTORE RETURN JUMPDEST POP CALLVALUE PUSH2 0x37F JUMPI PUSH1 0xFF PUSH1 0x40 PUSH1 0x20 SWAP3 PUSH2 0x7B1 CALLDATASIZE PUSH2 0x1F92 JUMP JUMPDEST SWAP1 DUP3 MSTORE PUSH1 0x34 DUP6 MSTORE DUP3 DUP3 KECCAK256 SWAP1 DUP3 MSTORE DUP5 MSTORE KECCAK256 SLOAD AND PUSH1 0x40 MLOAD SWAP1 ISZERO ISZERO DUP2 MSTORE RETURN JUMPDEST POP CALLVALUE PUSH2 0x37F JUMPI PUSH1 0x20 CALLDATASIZE PUSH1 0x3 NOT ADD SLT PUSH2 0x37F JUMPI PUSH1 0x4 CALLDATALOAD SWAP1 PUSH1 0x16 SLOAD DUP3 LT ISZERO PUSH2 0x37F JUMPI PUSH1 0x16 SLOAD DUP3 LT ISZERO PUSH2 0x42F JUMPI PUSH1 0x20 SWAP2 PUSH1 0x16 DUP3 MSTORE DUP3 DUP3 KECCAK256 ADD SLOAD SWAP1 PUSH1 0x3 SHL SHR PUSH1 0x40 MLOAD SWAP1 DUP2 MSTORE RETURN JUMPDEST POP CALLVALUE PUSH2 0x37F JUMPI DUP1 PUSH1 0x3 NOT CALLDATASIZE ADD SLT PUSH2 0x37F JUMPI PUSH1 0x20 PUSH1 0x40 MLOAD PUSH3 0x83D600 DUP2 MSTORE RETURN JUMPDEST POP CALLVALUE PUSH2 0x37F JUMPI DUP1 PUSH1 0x3 NOT CALLDATASIZE ADD SLT PUSH2 0x37F JUMPI PUSH1 0x20 PUSH1 0x42 SLOAD PUSH1 0x40 MLOAD SWAP1 DUP2 MSTORE RETURN JUMPDEST POP CALLVALUE PUSH2 0x37F JUMPI PUSH1 0xFF PUSH1 0x40 PUSH1 0x20 SWAP3 PUSH2 0x862 CALLDATASIZE PUSH2 0x1F92 JUMP JUMPDEST SWAP1 DUP3 MSTORE PUSH1 0x38 DUP6 MSTORE DUP3 DUP3 KECCAK256 SWAP1 DUP3 MSTORE DUP5 MSTORE KECCAK256 SLOAD AND PUSH1 0x40 MLOAD SWAP1 ISZERO ISZERO DUP2 MSTORE RETURN JUMPDEST POP CALLVALUE PUSH2 0x37F JUMPI DUP1 PUSH1 0x3 NOT CALLDATASIZE ADD SLT PUSH2 0x37F JUMPI PUSH1 0x20 PUSH1 0x48 SLOAD PUSH1 0x40 MLOAD SWAP1 DUP2 MSTORE RETURN JUMPDEST POP CALLVALUE PUSH2 0x37F JUMPI PUSH2 0x8AB CALLDATASIZE PUSH2 0x1F92 JUMP JUMPDEST PUSH2 0x8B6 SWAP3 SWAP2 SWAP3 PUSH2 0x2321 JUMP JUMPDEST DUP3 DUP3 MSTORE PUSH1 0x10 PUSH1 0x20 MSTORE PUSH1 0x40 DUP3 KECCAK256 SLOAD PUSH1 0x1 PUSH1 0x1 PUSH1 0xA0 SHL SUB AND PUSH2 0x8D7 CALLER DUP3 EQ PUSH2 0x2079 JUMP JUMPDEST ISZERO PUSH2 0xD1D JUMPI DUP3 ISZERO ISZERO DUP1 PUSH2 0xD14 JUMPI JUMPDEST DUP1 PUSH2 0xCF6 JUMPI JUMPDEST DUP1 PUSH2 0xCEB JUMPI JUMPDEST PUSH2 0x8FA SWAP1 PUSH2 0x20B8 JUMP JUMPDEST DUP3 DUP3 MSTORE PUSH1 0x4C PUSH1 0x20 MSTORE PUSH1 0x40 DUP3 KECCAK256 SWAP1 DUP1 DUP4 MSTORE PUSH1 0x4A PUSH1 0x20 MSTORE PUSH1 0x40 DUP4 KECCAK256 PUSH2 0x928 PUSH1 0x1 PUSH1 0xFF PUSH1 0x4 DUP7 ADD SLOAD AND ISZERO ISZERO EQ PUSH2 0x21AB JUMP JUMPDEST PUSH1 0x3 DUP4 ADD DUP3 DUP6 MSTORE DUP1 PUSH1 0x20 MSTORE PUSH2 0x944 PUSH1 0xFF PUSH1 0x40 DUP8 KECCAK256 SLOAD AND ISZERO PUSH2 0x21E8 JUMP JUMPDEST PUSH1 0x3 DUP3 ADD SLOAD SWAP2 DUP3 ISZERO SWAP5 PUSH2 0x957 DUP7 ISZERO PUSH2 0x211D JUMP JUMPDEST PUSH2 0x97C DUP6 PUSH1 0x1 PUSH1 0x4 DUP6 ADD SWAP4 PUSH2 0x973 PUSH1 0x2 DUP7 SLOAD SWAP8 ADD SLOAD DUP8 LT PUSH2 0x215E JUMP JUMPDEST ADD SLOAD GT ISZERO PUSH2 0x2234 JUMP JUMPDEST PUSH1 0x1 DUP3 ADD DUP1 SWAP3 GT PUSH2 0xCD7 JUMPI SSTORE DUP3 DUP6 MSTORE PUSH1 0x20 MSTORE PUSH1 0x40 DUP5 KECCAK256 PUSH1 0x1 PUSH1 0xFF NOT DUP3 SLOAD AND OR SWAP1 SSTORE DUP5 DUP5 MSTORE PUSH1 0x10 PUSH1 0x20 MSTORE PUSH1 0x40 DUP5 KECCAK256 SWAP4 PUSH1 0x1 DUP1 PUSH1 0xA0 SHL SUB DUP6 SLOAD AND SWAP4 DUP5 ISZERO PUSH2 0xCA3 JUMPI PUSH2 0xC70 JUMPI DUP6 DUP2 MSTORE PUSH1 0x11 PUSH1 0x20 MSTORE PUSH1 0x40 DUP2 KECCAK256 SWAP1 DUP1 PUSH2 0x9D8 DUP5 DUP5 SLOAD PUSH2 0x219E JUMP JUMPDEST DUP4 SSTORE PUSH2 0xC5C JUMPI POP PUSH0 SWAP5 SWAP4 SWAP5 POP PUSH1 0xB DUP2 ADD PUSH2 0x9F3 DUP4 DUP3 SLOAD PUSH2 0x219E JUMP JUMPDEST SWAP1 SSTORE SLOAD SWAP4 PUSH1 0xB DUP5 ADD SLOAD SWAP3 PUSH1 0x6 PUSH0 SWAP6 ADD SWAP6 JUMPDEST DUP7 SLOAD DUP7 LT ISZERO PUSH2 0xC4F JUMPI PUSH2 0xA16 DUP7 PUSH2 0x1FE8 JUMP JUMPDEST SWAP1 SLOAD SWAP1 PUSH1 0x3 SHL SHR DUP9 PUSH0 MSTORE PUSH1 0xE PUSH1 0x20 MSTORE PUSH1 0x40 PUSH0 KECCAK256 DUP2 PUSH0 MSTORE PUSH1 0x20 MSTORE DUP6 PUSH1 0x40 PUSH0 KECCAK256 SWAP2 PUSH1 0x3 DUP4 ADD PUSH1 0xFF DUP2 SLOAD AND DUP1 ISZERO SWAP1 DUP2 DUP1 SWAP3 PUSH2 0xC39 JUMPI JUMPDEST ISZERO PUSH2 0xA86 JUMPI POP POP SWAP2 PUSH1 0xA PUSH2 0xA6F DUP3 PUSH1 0x1 SWAP8 SWAP5 PUSH2 0xA7D SWAP8 SWAP7 DUP10 PUSH1 0xFF NOT DUP3 SLOAD AND OR SWAP1 SSTORE PUSH2 0x2375 JUMP JUMPDEST DIV SWAP3 DUP4 PUSH1 0x2 DUP3 ADD SSTORE SSTORE PUSH2 0x2388 JUMP JUMPDEST SWAP6 JUMPDEST ADD SWAP5 PUSH2 0xA04 JUMP JUMPDEST SWAP2 POP SWAP3 POP DUP1 PUSH2 0xC24 JUMPI JUMPDEST ISZERO PUSH2 0xAAE JUMPI POP POP PUSH1 0x1 SWAP2 PUSH1 0x2 PUSH2 0xAA8 SWAP3 ADD SLOAD SWAP1 PUSH2 0x2388 JUMP JUMPDEST SWAP6 PUSH2 0xA7F JUMP JUMPDEST SWAP3 SWAP8 SWAP3 DUP8 SWAP1 DUP3 PUSH2 0xC0C JUMPI JUMPDEST POP POP PUSH2 0xAC8 JUMPI POP PUSH1 0x1 SWAP1 PUSH2 0xA7F JUMP JUMPDEST SWAP2 SWAP8 SWAP6 SWAP4 SWAP7 POP POP PUSH1 0x1 SWAP2 SWAP4 POP ADD SSTORE JUMPDEST PUSH1 0x1 DUP1 PUSH1 0xA0 SHL SUB PUSH1 0x1 SLOAD AND PUSH1 0x40 MLOAD PUSH1 0x20 DUP2 ADD PUSH4 0xA9059CBB PUSH1 0xE0 SHL DUP2 MSTORE DUP4 PUSH1 0x24 DUP4 ADD MSTORE DUP6 PUSH1 0x44 DUP4 ADD MSTORE PUSH1 0x44 DUP3 MSTORE PUSH1 0x80 DUP3 ADD SWAP1 DUP3 DUP3 LT PUSH8 0xFFFFFFFFFFFFFFFF DUP4 GT OR PUSH2 0xBF8 JUMPI PUSH1 0x20 SWAP3 PUSH0 SWAP3 PUSH1 0x40 MSTORE MLOAD SWAP1 DUP3 DUP6 GAS CALL ISZERO PUSH2 0xBED JUMPI PUSH0 MLOAD RETURNDATASIZE PUSH2 0xBE4 JUMPI POP DUP1 EXTCODESIZE ISZERO JUMPDEST PUSH2 0xBD2 JUMPI POP PUSH32 0x6AC5DC27FBF1276A5DB7FAAD992EA92A268D34B18F81922F747D9D3BEB5F9C55 SWAP4 DUP3 DUP1 PUSH2 0xBC9 SWAP4 PUSH32 0x4D634C31300B97DAD99B3AF799178230163D88AD306370D063BE9CD992D0BE7F PUSH1 0x80 PUSH1 0x40 MLOAD DUP10 DUP2 MSTORE PUSH0 PUSH1 0x20 DUP3 ADD MSTORE PUSH1 0x9 PUSH1 0x40 DUP3 ADD MSTORE TIMESTAMP PUSH1 0x60 DUP3 ADD MSTORE LOG4 PUSH1 0x40 MLOAD SWAP4 DUP5 SWAP4 TIMESTAMP SWAP3 DUP6 SWAP1 SWAP5 SWAP4 SWAP3 PUSH1 0x60 SWAP3 PUSH1 0x80 DUP4 ADD SWAP7 DUP4 MSTORE PUSH1 0x20 DUP4 ADD MSTORE PUSH1 0x40 DUP3 ADD MSTORE ADD MSTORE JUMP JUMPDEST SUB SWAP1 LOG1 PUSH1 0x1 PUSH0 SSTORE STOP JUMPDEST PUSH4 0x5274AFE7 PUSH1 0xE0 SHL PUSH0 MSTORE PUSH1 0x4 MSTORE PUSH1 0x24 PUSH0 REVERT JUMPDEST PUSH1 0x1 EQ ISZERO PUSH2 0xB3A JUMP JUMPDEST PUSH1 0x40 MLOAD RETURNDATASIZE PUSH0 DUP3 RETURNDATACOPY RETURNDATASIZE SWAP1 REVERT JUMPDEST PUSH4 0x4E487B71 PUSH1 0xE0 SHL PUSH0 MSTORE PUSH1 0x41 PUSH1 0x4 MSTORE PUSH1 0x24 PUSH0 REVERT JUMPDEST PUSH1 0xA SWAP3 POP SWAP1 PUSH2 0xC1A SWAP2 PUSH2 0x2375 JUMP JUMPDEST DIV DUP8 LT DUP7 PUSH0 PUSH2 0xAB9 JUMP JUMPDEST POP PUSH1 0xA PUSH2 0xC31 DUP10 DUP4 PUSH2 0x2375 JUMP JUMPDEST DIV DUP5 GT PUSH2 0xA90 JUMP JUMPDEST POP PUSH1 0xA PUSH2 0xC46 DUP7 DUP7 PUSH2 0x2375 JUMP JUMPDEST DIV DUP8 LT ISZERO PUSH2 0xA49 JUMP JUMPDEST POP SWAP6 SWAP4 POP SWAP2 POP SWAP3 POP PUSH2 0xAD7 JUMP JUMPDEST PUSH4 0x4E487B71 PUSH1 0xE0 SHL DUP2 MSTORE PUSH1 0x21 PUSH1 0x4 MSTORE PUSH1 0x24 SWAP1 REVERT JUMPDEST PUSH1 0x40 MLOAD PUSH3 0x461BCD PUSH1 0xE5 SHL DUP2 MSTORE PUSH1 0x20 PUSH1 0x4 DUP3 ADD MSTORE PUSH1 0xB PUSH1 0x24 DUP3 ADD MSTORE PUSH11 0x16995C9BC8185B5BDD5B9D PUSH1 0xAA SHL PUSH1 0x44 DUP3 ADD MSTORE PUSH1 0x64 SWAP1 REVERT JUMPDEST PUSH1 0x40 MLOAD PUSH3 0x461BCD PUSH1 0xE5 SHL DUP2 MSTORE PUSH1 0x20 PUSH1 0x4 DUP3 ADD MSTORE PUSH1 0xC PUSH1 0x24 DUP3 ADD MSTORE PUSH12 0x24B73B30B634B2103AB9B2B9 PUSH1 0xA1 SHL PUSH1 0x44 DUP3 ADD MSTORE PUSH1 0x64 SWAP1 REVERT JUMPDEST PUSH4 0x4E487B71 PUSH1 0xE0 SHL DUP8 MSTORE PUSH1 0x11 PUSH1 0x4 MSTORE PUSH1 0x24 DUP8 REVERT JUMPDEST POP PUSH1 0x47 SLOAD DUP2 LT PUSH2 0x8F1 JUMP JUMPDEST POP DUP1 DUP3 MSTORE PUSH1 0x4A PUSH1 0x20 MSTORE PUSH1 0x1 PUSH1 0xFF PUSH1 0x8 PUSH1 0x40 DUP6 KECCAK256 ADD SLOAD AND ISZERO ISZERO EQ PUSH2 0x8EB JUMP JUMPDEST POP DUP1 ISZERO ISZERO PUSH2 0x8E5 JUMP JUMPDEST PUSH1 0x40 MLOAD PUSH3 0x461BCD PUSH1 0xE5 SHL DUP2 MSTORE PUSH1 0x20 PUSH1 0x4 DUP3 ADD MSTORE PUSH1 0xF PUSH1 0x24 DUP3 ADD MSTORE PUSH15 0x125B9D985B1A59081858D8DBDD5B9D PUSH1 0x8A SHL PUSH1 0x44 DUP3 ADD MSTORE PUSH1 0x64 SWAP1 REVERT JUMPDEST POP CALLVALUE PUSH2 0x37F JUMPI PUSH1 0x20 CALLDATASIZE PUSH1 0x3 NOT ADD SLT PUSH2 0x37F JUMPI PUSH1 0x4 CALLDATALOAD PUSH1 0x8 DUP2 LT ISZERO PUSH2 0x57A JUMPI PUSH1 0x20 SWAP2 POP PUSH1 0x27 ADD SLOAD PUSH1 0x40 MLOAD SWAP1 DUP2 MSTORE RETURN JUMPDEST POP CALLVALUE PUSH2 0x37F JUMPI PUSH1 0x40 SWAP1 PUSH2 0xD94 CALLDATASIZE PUSH2 0x1F92 JUMP JUMPDEST SWAP1 DUP3 MSTORE PUSH1 0x35 PUSH1 0x20 MSTORE DUP3 DUP3 KECCAK256 SWAP1 DUP3 MSTORE PUSH1 0x20 MSTORE KECCAK256 DUP1 SLOAD PUSH2 0x52C PUSH1 0x1 DUP4 ADD SLOAD SWAP3 PUSH1 0x2 DUP2 ADD SLOAD SWAP1 PUSH1 0x4 PUSH1 0x3 DUP3 ADD SLOAD SWAP2 ADD SLOAD SWAP2 PUSH1 0x40 MLOAD SWAP6 DUP7 SWAP6 DUP7 SWAP2 SWAP3 PUSH1 0x80 SWAP4 SWAP7 SWAP6 SWAP5 SWAP2 SWAP7 PUSH1 0xA0 DUP5 ADD SWAP8 DUP5 MSTORE PUSH1 0x20 DUP5 ADD MSTORE PUSH1 0x40 DUP4 ADD MSTORE PUSH1 0x60 DUP3 ADD MSTORE ADD MSTORE JUMP JUMPDEST POP CALLVALUE PUSH2 0x37F JUMPI PUSH2 0xDFC CALLDATASIZE PUSH2 0x2029 JUMP JUMPDEST SWAP3 SWAP2 DUP3 MSTORE PUSH1 0x31 PUSH1 0x20 MSTORE PUSH1 0x40 DUP3 KECCAK256 SWAP1 DUP3 MSTORE PUSH1 0x20 MSTORE PUSH1 0x40 DUP2 KECCAK256 SWAP1 DUP2 SLOAD DUP4 LT ISZERO PUSH2 0x37F JUMPI PUSH1 0x20 PUSH2 0x3B4 DUP5 DUP5 PUSH2 0x2014 JUMP JUMPDEST POP CALLVALUE PUSH2 0x37F JUMPI PUSH2 0xE38 CALLDATASIZE PUSH2 0x2029 JUMP JUMPDEST SWAP3 SWAP2 DUP3 MSTORE PUSH1 0x32 PUSH1 0x20 MSTORE PUSH1 0x40 DUP3 KECCAK256 SWAP1 DUP3 MSTORE PUSH1 0x20 MSTORE PUSH1 0x40 DUP2 KECCAK256 SWAP1 DUP2 SLOAD DUP4 LT ISZERO PUSH2 0x37F JUMPI PUSH1 0x20 PUSH2 0x3B4 DUP5 DUP5 PUSH2 0x2014 JUMP JUMPDEST POP CALLVALUE PUSH2 0x37F JUMPI PUSH1 0x40 PUSH1 0x20 SWAP2 PUSH2 0xE79 CALLDATASIZE PUSH2 0x1F92 JUMP JUMPDEST SWAP1 DUP3 MSTORE PUSH1 0xB DUP5 MSTORE DUP3 DUP3 KECCAK256 SWAP1 DUP3 MSTORE DUP4 MSTORE KECCAK256 SLOAD PUSH1 0x40 MLOAD SWAP1 DUP2 MSTORE RETURN JUMPDEST POP CALLVALUE PUSH2 0x37F JUMPI PUSH1 0x20 CALLDATASIZE PUSH1 0x3 NOT ADD SLT PUSH2 0x37F JUMPI PUSH1 0x40 PUSH1 0x20 SWAP2 PUSH1 0x4 CALLDATALOAD DUP2 MSTORE PUSH1 0x14 DUP4 MSTORE KECCAK256 SLOAD PUSH1 0x40 MLOAD SWAP1 DUP2 MSTORE RETURN JUMPDEST POP CALLVALUE PUSH2 0x37F JUMPI PUSH1 0x20 PUSH2 0xED6 PUSH2 0xED0 CALLDATASIZE PUSH2 0x1F92 JUMP JUMPDEST SWAP1 PUSH2 0x2278 JUMP JUMPDEST PUSH1 0x40 MLOAD SWAP1 ISZERO ISZERO DUP2 MSTORE RETURN JUMPDEST POP CALLVALUE PUSH2 0x37F JUMPI DUP1 PUSH1 0x3 NOT CALLDATASIZE ADD SLT PUSH2 0x37F JUMPI PUSH1 0x2 SLOAD PUSH1 0x40 MLOAD PUSH1 0x1 PUSH1 0x1 PUSH1 0xA0 SHL SUB SWAP1 SWAP2 AND DUP2 MSTORE PUSH1 0x20 SWAP1 RETURN JUMPDEST POP CALLVALUE PUSH2 0x37F JUMPI DUP1 PUSH1 0x3 NOT CALLDATASIZE ADD SLT PUSH2 0x37F JUMPI PUSH1 0x20 PUSH1 0x9 SLOAD PUSH1 0x40 MLOAD SWAP1 DUP2 MSTORE RETURN JUMPDEST POP CALLVALUE PUSH2 0x37F JUMPI DUP1 PUSH1 0x3 NOT CALLDATASIZE ADD SLT PUSH2 0x37F JUMPI PUSH1 0x20 PUSH1 0x40 MLOAD PUSH3 0x93A80 DUP2 MSTORE RETURN JUMPDEST POP CALLVALUE PUSH2 0x37F JUMPI PUSH2 0xF54 CALLDATASIZE PUSH2 0x1F92 JUMP JUMPDEST SWAP2 SWAP1 DUP2 MSTORE PUSH1 0x12 PUSH1 0x20 MSTORE PUSH1 0x40 DUP2 KECCAK256 DUP1 SLOAD DUP4 LT ISZERO PUSH2 0x57A JUMPI DUP2 PUSH1 0x20 SWAP2 PUSH1 0x5 SWAP4 POP DUP2 MSTORE KECCAK256 SWAP2 MUL ADD DUP1 SLOAD PUSH2 0x52C PUSH1 0x1 DUP4 ADD SLOAD SWAP3 PUSH1 0x2 DUP2 ADD SLOAD SWAP1 PUSH1 0x4 PUSH1 0x3 DUP3 ADD SLOAD SWAP2 ADD SLOAD SWAP2 PUSH1 0x40 MLOAD SWAP6 DUP7 SWAP6 DUP7 SWAP2 SWAP3 PUSH1 0x80 SWAP4 SWAP7 SWAP6 SWAP5 SWAP2 SWAP7 PUSH1 0xA0 DUP5 ADD SWAP8 DUP5 MSTORE PUSH1 0x20 DUP5 ADD MSTORE PUSH1 0x40 DUP4 ADD MSTORE PUSH1 0x60 DUP3 ADD MSTORE ADD MSTORE JUMP JUMPDEST POP CALLVALUE PUSH2 0x37F JUMPI DUP1 PUSH1 0x3 NOT CALLDATASIZE ADD SLT PUSH2 0x37F JUMPI PUSH1 0x20 PUSH1 0x40 MLOAD PUSH4 0x2514300 DUP2 MSTORE RETURN JUMPDEST POP CALLVALUE PUSH2 0x37F JUMPI PUSH1 0x20 CALLDATASIZE PUSH1 0x3 NOT ADD SLT PUSH2 0x37F JUMPI PUSH1 0x40 SWAP1 PUSH1 0x4 CALLDATALOAD DUP2 MSTORE PUSH1 0x43 PUSH1 0x20 MSTORE KECCAK256 DUP1 SLOAD PUSH2 0x52C PUSH1 0x1 DUP4 ADD SLOAD SWAP3 PUSH1 0x2 DUP2 ADD SLOAD SWAP1 PUSH1 0x3 DUP2 ADD SLOAD PUSH1 0x4 DUP3 ADD SLOAD PUSH1 0x5 DUP4 ADD SLOAD SWAP1 PUSH1 0x6 DUP5 ADD SLOAD SWAP3 PUSH1 0xFF PUSH1 0x8 PUSH1 0x7 DUP8 ADD SLOAD SWAP7 ADD SLOAD AND SWAP6 PUSH1 0x40 MLOAD SWAP10 DUP11 SWAP10 DUP11 PUSH2 0x1FA8 JUMP JUMPDEST POP CALLVALUE PUSH2 0x37F JUMPI PUSH2 0x104E CALLDATASIZE PUSH2 0x1F92 JUMP JUMPDEST SWAP2 SWAP1 DUP2 MSTORE PUSH1 0x15 PUSH1 0x20 MSTORE PUSH1 0x40 DUP2 KECCAK256 SWAP1 DUP2 SLOAD DUP4 LT ISZERO PUSH2 0x37F JUMPI PUSH1 0x20 PUSH2 0x3B4 DUP5 DUP5 PUSH2 0x2014 JUMP JUMPDEST POP CALLVALUE PUSH2 0x37F JUMPI DUP1 PUSH1 0x3 NOT CALLDATASIZE ADD SLT PUSH2 0x37F JUMPI PUSH1 0x20 PUSH1 0x49 SLOAD PUSH1 0x40 MLOAD SWAP1 DUP2 MSTORE RETURN JUMPDEST POP CALLVALUE PUSH2 0x37F JUMPI PUSH1 0x40 SWAP1 PUSH2 0x10A1 CALLDATASIZE PUSH2 0x1F92 JUMP JUMPDEST SWAP1 DUP3 MSTORE PUSH1 0xE PUSH1 0x20 MSTORE DUP3 DUP3 KECCAK256 SWAP1 DUP3 MSTORE PUSH1 0x20 MSTORE KECCAK256 DUP1 SLOAD PUSH2 0x52C PUSH1 0x1 DUP4 ADD SLOAD SWAP3 PUSH1 0xFF PUSH1 0x3 PUSH1 0x2 DUP4 ADD SLOAD SWAP3 ADD SLOAD AND SWAP1 PUSH1 0x40 MLOAD SWAP5 DUP6 SWAP5 DUP6 SWAP3 PUSH1 0x60 SWAP3 SWAP6 SWAP5 SWAP2 SWAP6 PUSH1 0x80 DUP6 ADD SWAP7 DUP6 MSTORE PUSH1 0x20 DUP6 ADD MSTORE PUSH1 0x40 DUP5 ADD MSTORE ISZERO ISZERO SWAP2 ADD MSTORE JUMP JUMPDEST POP CALLVALUE PUSH2 0x37F JUMPI PUSH2 0x1102 CALLDATASIZE PUSH2 0x2029 JUMP JUMPDEST SWAP3 SWAP2 DUP3 MSTORE PUSH1 0x13 PUSH1 0x20 MSTORE PUSH1 0x40 DUP3 KECCAK256 SWAP1 DUP3 MSTORE PUSH1 0x20 MSTORE PUSH1 0x40 DUP2 KECCAK256 SWAP1 DUP2 SLOAD DUP4 LT ISZERO PUSH2 0x37F JUMPI PUSH1 0x20 PUSH2 0x3B4 DUP5 DUP5 PUSH2 0x2014 JUMP JUMPDEST PUSH2 0x2043 JUMP JUMPDEST POP CALLVALUE PUSH2 0x37F JUMPI PUSH2 0x1143 CALLDATASIZE PUSH2 0x2029 JUMP JUMPDEST SWAP3 SWAP2 DUP3 MSTORE PUSH1 0x3F PUSH1 0x20 MSTORE PUSH1 0x40 DUP3 KECCAK256 SWAP1 DUP3 MSTORE PUSH1 0x20 MSTORE PUSH1 0x40 DUP2 KECCAK256 SWAP1 DUP2 SLOAD DUP4 LT ISZERO PUSH2 0x37F JUMPI PUSH1 0x20 PUSH2 0x3B4 DUP5 DUP5 PUSH2 0x2014 JUMP JUMPDEST POP CALLVALUE PUSH2 0x37F JUMPI PUSH2 0x117F CALLDATASIZE PUSH2 0x1F92 JUMP JUMPDEST SWAP2 SWAP1 DUP2 MSTORE PUSH1 0x4D PUSH1 0x20 MSTORE PUSH1 0x40 DUP2 KECCAK256 SWAP1 DUP2 SLOAD DUP4 LT ISZERO PUSH2 0x37F JUMPI PUSH1 0x20 PUSH2 0x3B4 DUP5 DUP5 PUSH2 0x2014 JUMP JUMPDEST POP CALLVALUE PUSH2 0x37F JUMPI DUP1 PUSH1 0x3 NOT CALLDATASIZE ADD SLT PUSH2 0x37F JUMPI PUSH1 0x20 PUSH1 0x47 SLOAD PUSH1 0x40 MLOAD SWAP1 DUP2 MSTORE RETURN JUMPDEST POP CALLVALUE PUSH2 0x37F JUMPI PUSH1 0x20 CALLDATASIZE PUSH1 0x3 NOT ADD SLT PUSH2 0x37F JUMPI PUSH1 0x40 PUSH2 0x180 SWAP2 PUSH1 0x4 CALLDATALOAD DUP2 MSTORE PUSH1 0x11 PUSH1 0x20 MSTORE KECCAK256 DUP1 SLOAD SWAP1 PUSH1 0x1 DUP2 ADD SLOAD SWAP1 PUSH1 0x2 DUP2 ADD SLOAD PUSH1 0x3 DUP3 ADD SLOAD PUSH1 0x4 DUP4 ADD SLOAD PUSH1 0x5 DUP5 ADD SLOAD PUSH1 0x6 DUP6 ADD SLOAD SWAP1 PUSH1 0x7 DUP7 ADD SLOAD SWAP3 PUSH1 0x8 DUP8 ADD SLOAD SWAP5 PUSH1 0x9 DUP9 ADD SLOAD SWAP7 PUSH1 0xB PUSH1 0xA DUP11 ADD SLOAD SWAP10 ADD SLOAD SWAP10 PUSH1 0x40 MLOAD SWAP12 DUP13 MSTORE PUSH1 0x20 DUP13 ADD MSTORE PUSH1 0x40 DUP12 ADD MSTORE PUSH1 0x60 DUP11 ADD MSTORE PUSH1 0x80 DUP10 ADD MSTORE PUSH1 0xA0 DUP9 ADD MSTORE PUSH1 0xC0 DUP8 ADD MSTORE PUSH1 0xE0 DUP7 ADD MSTORE PUSH2 0x100 DUP6 ADD MSTORE PUSH2 0x120 DUP5 ADD MSTORE PUSH2 0x140 DUP4 ADD MSTORE PUSH2 0x160 DUP3 ADD MSTORE RETURN JUMPDEST POP CALLVALUE PUSH2 0x37F JUMPI PUSH1 0x20 CALLDATASIZE PUSH1 0x3 NOT ADD SLT PUSH2 0x37F JUMPI PUSH1 0x40 PUSH1 0x20 SWAP2 PUSH1 0x4 CALLDATALOAD DUP2 MSTORE PUSH1 0xA DUP4 MSTORE KECCAK256 SLOAD PUSH1 0x40 MLOAD SWAP1 DUP2 MSTORE RETURN JUMPDEST POP CALLVALUE PUSH2 0x37F JUMPI PUSH1 0x20 CALLDATASIZE PUSH1 0x3 NOT ADD SLT PUSH2 0x37F JUMPI PUSH1 0x40 SWAP1 PUSH1 0x4 CALLDATALOAD DUP2 MSTORE PUSH1 0x45 PUSH1 0x20 MSTORE KECCAK256 DUP1 SLOAD PUSH2 0x52C PUSH1 0x1 DUP4 ADD SLOAD SWAP3 PUSH1 0xFF PUSH1 0x4 PUSH1 0x2 DUP4 ADD SLOAD SWAP3 ADD SLOAD AND SWAP1 PUSH1 0x40 MLOAD SWAP5 DUP6 SWAP5 DUP6 SWAP3 PUSH1 0x60 SWAP3 SWAP6 SWAP5 SWAP2 SWAP6 PUSH1 0x80 DUP6 ADD SWAP7 DUP6 MSTORE PUSH1 0x20 DUP6 ADD MSTORE PUSH1 0x40 DUP5 ADD MSTORE ISZERO ISZERO SWAP2 ADD MSTORE JUMP JUMPDEST POP CALLVALUE PUSH2 0x37F JUMPI DUP1 PUSH1 0x3 NOT CALLDATASIZE ADD SLT PUSH2 0x37F JUMPI PUSH1 0x20 PUSH1 0x40 MLOAD PUSH3 0x2A300 DUP2 MSTORE RETURN JUMPDEST POP CALLVALUE PUSH2 0x37F JUMPI PUSH2 0x131D CALLDATASIZE PUSH2 0x1F92 JUMP JUMPDEST PUSH2 0x1328 SWAP3 SWAP2 SWAP3 PUSH2 0x2321 JUMP JUMPDEST DUP3 DUP3 MSTORE PUSH1 0x10 PUSH1 0x20 MSTORE PUSH2 0x1347 PUSH1 0x1 DUP1 PUSH1 0xA0 SHL SUB PUSH1 0x40 DUP5 KECCAK256 SLOAD AND CALLER EQ PUSH2 0x2079 JUMP JUMPDEST DUP3 ISZERO ISZERO DUP1 PUSH2 0x169F JUMPI JUMPDEST DUP1 PUSH2 0x1681 JUMPI JUMPDEST DUP1 PUSH2 0x1676 JUMPI JUMPDEST PUSH2 0x1365 SWAP1 PUSH2 0x20B8 JUMP JUMPDEST DUP3 DUP3 MSTORE PUSH1 0x45 PUSH1 0x20 MSTORE PUSH1 0x40 DUP3 KECCAK256 SWAP1 DUP1 DUP4 MSTORE PUSH1 0x43 PUSH1 0x20 MSTORE PUSH1 0x40 DUP4 KECCAK256 PUSH2 0x1393 PUSH1 0x1 PUSH1 0xFF PUSH1 0x4 DUP7 ADD SLOAD AND ISZERO ISZERO EQ PUSH2 0x21AB JUMP JUMPDEST PUSH1 0x3 DUP4 ADD DUP3 DUP6 MSTORE DUP1 PUSH1 0x20 MSTORE PUSH2 0x13AF PUSH1 0xFF PUSH1 0x40 DUP8 KECCAK256 SLOAD AND ISZERO PUSH2 0x21E8 JUMP JUMPDEST PUSH1 0x3 DUP3 ADD SLOAD SWAP2 DUP3 ISZERO SWAP5 PUSH2 0x13C2 DUP7 ISZERO PUSH2 0x211D JUMP JUMPDEST PUSH2 0x13DE DUP6 PUSH1 0x1 PUSH1 0x4 DUP6 ADD SWAP4 PUSH2 0x973 PUSH1 0x2 DUP7 SLOAD SWAP8 ADD SLOAD DUP8 LT PUSH2 0x215E JUMP JUMPDEST PUSH1 0x1 DUP3 ADD DUP1 SWAP3 GT PUSH2 0xCD7 JUMPI SSTORE DUP3 DUP6 MSTORE PUSH1 0x20 MSTORE PUSH1 0x40 DUP5 KECCAK256 PUSH1 0x1 PUSH1 0xFF NOT DUP3 SLOAD AND OR SWAP1 SSTORE DUP5 DUP5 MSTORE PUSH1 0x10 PUSH1 0x20 MSTORE PUSH1 0x40 DUP5 KECCAK256 SWAP4 PUSH1 0x1 DUP1 PUSH1 0xA0 SHL SUB DUP6 SLOAD AND SWAP4 DUP5 ISZERO PUSH2 0xCA3 JUMPI PUSH2 0xC70 JUMPI DUP6 DUP2 MSTORE PUSH1 0x11 PUSH1 0x20 MSTORE PUSH1 0x40 DUP2 KECCAK256 SWAP1 DUP1 PUSH2 0x143A DUP5 DUP5 SLOAD PUSH2 0x219E JUMP JUMPDEST DUP4 SSTORE PUSH2 0xC5C JUMPI POP PUSH0 SWAP5 SWAP4 SWAP5 POP PUSH1 0xA DUP2 ADD PUSH2 0x1455 DUP4 DUP3 SLOAD PUSH2 0x219E JUMP JUMPDEST SWAP1 SSTORE SLOAD SWAP4 PUSH1 0xB DUP5 ADD SLOAD SWAP3 PUSH1 0x6 PUSH0 SWAP6 ADD SWAP6 JUMPDEST DUP7 SLOAD DUP7 LT ISZERO PUSH2 0x1669 JUMPI PUSH2 0x1478 DUP7 PUSH2 0x1FE8 JUMP JUMPDEST SWAP1 SLOAD SWAP1 PUSH1 0x3 SHL SHR DUP9 PUSH0 MSTORE PUSH1 0xE PUSH1 0x20 MSTORE PUSH1 0x40 PUSH0 KECCAK256 DUP2 PUSH0 MSTORE PUSH1 0x20 MSTORE DUP6 PUSH1 0x40 PUSH0 KECCAK256 SWAP2 PUSH1 0x3 DUP4 ADD PUSH1 0xFF DUP2 SLOAD AND DUP1 ISZERO SWAP1 DUP2 DUP1 SWAP3 PUSH2 0x1653 JUMPI JUMPDEST ISZERO PUSH2 0x14DA JUMPI POP POP SWAP2 PUSH1 0xA PUSH2 0xA6F DUP3 PUSH1 0x1 SWAP8 SWAP5 PUSH2 0x14D1 SWAP8 SWAP7 DUP10 PUSH1 0xFF NOT DUP3 SLOAD AND OR SWAP1 SSTORE PUSH2 0x2375 JUMP JUMPDEST SWAP6 JUMPDEST ADD SWAP5 PUSH2 0x1466 JUMP JUMPDEST SWAP2 POP SWAP3 POP DUP1 PUSH2 0x163E JUMPI JUMPDEST ISZERO PUSH2 0x1502 JUMPI POP POP PUSH1 0x1 SWAP2 PUSH1 0x2 PUSH2 0x14FC SWAP3 ADD SLOAD SWAP1 PUSH2 0x2388 JUMP JUMPDEST SWAP6 PUSH2 0x14D3 JUMP JUMPDEST SWAP3 SWAP8 SWAP3 DUP8 SWAP1 DUP3 PUSH2 0x1626 JUMPI JUMPDEST POP POP PUSH2 0x151C JUMPI POP PUSH1 0x1 SWAP1 PUSH2 0x14D3 JUMP JUMPDEST SWAP2 SWAP8 SWAP6 SWAP4 SWAP7 POP POP PUSH1 0x1 SWAP2 SWAP4 POP ADD SSTORE JUMPDEST PUSH1 0x1 DUP1 PUSH1 0xA0 SHL SUB PUSH1 0x1 SLOAD AND PUSH1 0x40 MLOAD PUSH1 0x20 DUP2 ADD PUSH4 0xA9059CBB PUSH1 0xE0 SHL DUP2 MSTORE DUP4 PUSH1 0x24 DUP4 ADD MSTORE DUP6 PUSH1 0x44 DUP4 ADD MSTORE PUSH1 0x44 DUP3 MSTORE PUSH1 0x80 DUP3 ADD SWAP1 DUP3 DUP3 LT PUSH8 0xFFFFFFFFFFFFFFFF DUP4 GT OR PUSH2 0xBF8 JUMPI PUSH1 0x20 SWAP3 PUSH0 SWAP3 PUSH1 0x40 MSTORE MLOAD SWAP1 DUP3 DUP6 GAS CALL ISZERO PUSH2 0xBED JUMPI PUSH0 MLOAD RETURNDATASIZE PUSH2 0x161D JUMPI POP DUP1 EXTCODESIZE ISZERO JUMPDEST PUSH2 0xBD2 JUMPI POP PUSH32 0x8211032682F8FD8BE8FF252E0A106CDB6AD4B10427152B4D93C2BC9A1F11C3C2 SWAP4 DUP3 DUP1 PUSH2 0xBC9 SWAP4 PUSH32 0x4D634C31300B97DAD99B3AF799178230163D88AD306370D063BE9CD992D0BE7F PUSH1 0x80 PUSH1 0x40 MLOAD DUP10 DUP2 MSTORE PUSH0 PUSH1 0x20 DUP3 ADD MSTORE PUSH1 0x8 PUSH1 0x40 DUP3 ADD MSTORE TIMESTAMP PUSH1 0x60 DUP3 ADD MSTORE LOG4 PUSH1 0x40 MLOAD SWAP4 DUP5 SWAP4 TIMESTAMP SWAP3 DUP6 SWAP1 SWAP5 SWAP4 SWAP3 PUSH1 0x60 SWAP3 PUSH1 0x80 DUP4 ADD SWAP7 DUP4 MSTORE PUSH1 0x20 DUP4 ADD MSTORE PUSH1 0x40 DUP3 ADD MSTORE ADD MSTORE JUMP JUMPDEST PUSH1 0x1 EQ ISZERO PUSH2 0x158E JUMP JUMPDEST PUSH1 0xA SWAP3 POP SWAP1 PUSH2 0x1634 SWAP2 PUSH2 0x2375 JUMP JUMPDEST DIV DUP8 LT DUP7 PUSH0 PUSH2 0x150D JUMP JUMPDEST POP PUSH1 0xA PUSH2 0x164B DUP10 DUP4 PUSH2 0x2375 JUMP JUMPDEST DIV DUP5 GT PUSH2 0x14E4 JUMP JUMPDEST POP PUSH1 0xA PUSH2 0x1660 DUP7 DUP7 PUSH2 0x2375 JUMP JUMPDEST DIV DUP8 LT ISZERO PUSH2 0x14AB JUMP JUMPDEST POP SWAP6 SWAP4 POP SWAP2 POP SWAP3 POP PUSH2 0x152B JUMP JUMPDEST POP PUSH1 0x40 SLOAD DUP2 LT PUSH2 0x135C JUMP JUMPDEST POP DUP1 DUP3 MSTORE PUSH1 0x43 PUSH1 0x20 MSTORE PUSH1 0x1 PUSH1 0xFF PUSH1 0x8 PUSH1 0x40 DUP6 KECCAK256 ADD SLOAD AND ISZERO ISZERO EQ PUSH2 0x1356 JUMP JUMPDEST POP DUP1 ISZERO ISZERO PUSH2 0x1350 JUMP JUMPDEST POP CALLVALUE PUSH2 0x37F JUMPI PUSH1 0x20 CALLDATASIZE PUSH1 0x3 NOT ADD SLT PUSH2 0x37F JUMPI PUSH1 0x4 CALLDATALOAD SWAP1 PUSH1 0x7 SLOAD DUP3 LT ISZERO PUSH2 0x37F JUMPI PUSH1 0x7 SLOAD DUP3 LT ISZERO PUSH2 0x42F JUMPI PUSH1 0x20 SWAP2 PUSH1 0x7 DUP3 MSTORE DUP3 DUP3 KECCAK256 ADD SLOAD SWAP1 PUSH1 0x3 SHL SHR PUSH1 0x40 MLOAD SWAP1 DUP2 MSTORE RETURN JUMPDEST PUSH2 0x205E JUMP JUMPDEST POP CALLVALUE PUSH2 0x37F JUMPI PUSH1 0x20 CALLDATASIZE PUSH1 0x3 NOT ADD SLT PUSH2 0x37F JUMPI PUSH1 0x40 SWAP1 PUSH1 0x4 CALLDATALOAD DUP2 MSTORE PUSH1 0x10 PUSH1 0x20 MSTORE KECCAK256 PUSH2 0x180 MSTORE PUSH1 0x1 DUP1 PUSH1 0xA0 SHL SUB PUSH2 0x180 MLOAD SLOAD AND PUSH1 0x2 PUSH2 0x180 MLOAD ADD SLOAD PUSH2 0x100 MSTORE PUSH1 0x3 PUSH2 0x180 MLOAD ADD SLOAD PUSH2 0x140 MSTORE PUSH1 0x4 PUSH2 0x180 MLOAD ADD SLOAD PUSH1 0x5 PUSH2 0x180 MLOAD ADD SLOAD PUSH1 0x6 PUSH2 0x180 MLOAD ADD SLOAD PUSH1 0x7 PUSH2 0x180 MLOAD ADD SLOAD PUSH1 0x8 PUSH2 0x180 MLOAD ADD SLOAD PUSH1 0x9 PUSH2 0x180 MLOAD ADD SLOAD PUSH1 0xA PUSH2 0x180 MLOAD ADD SLOAD SWAP1 PUSH1 0xB PUSH2 0x180 MLOAD ADD SLOAD SWAP3 PUSH1 0xC PUSH2 0x180 MLOAD ADD SLOAD SWAP5 PUSH1 0xD PUSH2 0x180 MLOAD ADD SLOAD SWAP7 PUSH1 0xE PUSH2 0x180 MLOAD ADD SLOAD SWAP9 PUSH1 0xF PUSH2 0x180 MLOAD ADD SLOAD SWAP11 PUSH1 0x10 PUSH2 0x180 MLOAD ADD SLOAD SWAP13 PUSH1 0x11 PUSH2 0x180 MLOAD ADD SLOAD PUSH1 0x80 MSTORE PUSH1 0x12 PUSH2 0x180 MLOAD ADD SLOAD PUSH1 0xC0 MSTORE PUSH1 0x13 PUSH2 0x180 MLOAD ADD SLOAD PUSH2 0x160 MSTORE PUSH1 0x14 PUSH2 0x180 MLOAD ADD SLOAD PUSH2 0x120 MSTORE PUSH1 0x15 PUSH2 0x180 MLOAD ADD SLOAD PUSH1 0xE0 MSTORE PUSH1 0x40 MLOAD PUSH1 0xA0 MSTORE PUSH1 0xA0 MLOAD MSTORE PUSH2 0x100 MLOAD PUSH1 0x20 PUSH1 0xA0 MLOAD ADD MSTORE PUSH2 0x140 MLOAD PUSH1 0x40 PUSH1 0xA0 MLOAD ADD MSTORE PUSH1 0x60 PUSH1 0xA0 MLOAD ADD MSTORE PUSH1 0x80 PUSH1 0xA0 MLOAD ADD MSTORE PUSH1 0xA0 DUP1 MLOAD ADD MSTORE PUSH1 0xC0 PUSH1 0xA0 MLOAD ADD MSTORE PUSH1 0xE0 PUSH1 0xA0 MLOAD ADD MSTORE PUSH2 0x100 PUSH1 0xA0 MLOAD ADD MSTORE PUSH2 0x120 PUSH1 0xA0 MLOAD ADD MSTORE PUSH2 0x140 PUSH1 0xA0 MLOAD ADD MSTORE PUSH2 0x160 PUSH1 0xA0 MLOAD ADD MSTORE PUSH2 0x180 PUSH1 0xA0 MLOAD ADD MSTORE PUSH2 0x1A0 PUSH1 0xA0 MLOAD ADD MSTORE PUSH2 0x1C0 PUSH1 0xA0 MLOAD ADD MSTORE PUSH2 0x1E0 PUSH1 0xA0 MLOAD ADD MSTORE PUSH1 0x80 MLOAD PUSH2 0x200 PUSH1 0xA0 MLOAD ADD MSTORE PUSH1 0xC0 MLOAD PUSH2 0x220 PUSH1 0xA0 MLOAD ADD MSTORE PUSH2 0x160 MLOAD PUSH2 0x240 PUSH1 0xA0 MLOAD ADD MSTORE PUSH2 0x120 MLOAD PUSH2 0x260 PUSH1 0xA0 MLOAD ADD MSTORE PUSH1 0xE0 MLOAD PUSH2 0x280 PUSH1 0xA0 MLOAD ADD MSTORE PUSH2 0x2A0 PUSH1 0xA0 MLOAD RETURN JUMPDEST POP CALLVALUE PUSH2 0x37F JUMPI DUP1 PUSH1 0x3 NOT CALLDATASIZE ADD SLT PUSH2 0x37F JUMPI PUSH1 0x20 PUSH1 0x40 MLOAD PUSH8 0xDE0B6B3A7640000 DUP2 MSTORE RETURN JUMPDEST POP CALLVALUE PUSH2 0x37F JUMPI DUP1 PUSH1 0x3 NOT CALLDATASIZE ADD SLT PUSH2 0x37F JUMPI PUSH1 0x20 PUSH1 0x40 MLOAD PUSH3 0x15180 DUP2 MSTORE RETURN JUMPDEST POP CALLVALUE PUSH2 0x37F JUMPI DUP1 PUSH1 0x3 NOT CALLDATASIZE ADD SLT PUSH2 0x37F JUMPI PUSH1 0x20 PUSH1 0x40 MLOAD PUSH1 0x2 DUP2 MSTORE RETURN JUMPDEST POP CALLVALUE PUSH2 0x37F JUMPI DUP1 PUSH1 0x3 NOT CALLDATASIZE ADD SLT PUSH2 0x37F JUMPI PUSH1 0x20 PUSH1 0x3B SLOAD PUSH1 0x40 MLOAD SWAP1 DUP2 MSTORE RETURN JUMPDEST POP CALLVALUE PUSH2 0x37F JUMPI DUP1 PUSH1 0x3 NOT CALLDATASIZE ADD SLT PUSH2 0x37F JUMPI PUSH1 0x1 SLOAD PUSH1 0x40 MLOAD PUSH1 0x1 PUSH1 0x1 PUSH1 0xA0 SHL SUB SWAP1 SWAP2 AND DUP2 MSTORE PUSH1 0x20 SWAP1 RETURN JUMPDEST POP CALLVALUE PUSH2 0x37F JUMPI PUSH1 0x20 CALLDATASIZE PUSH1 0x3 NOT ADD SLT PUSH2 0x37F JUMPI PUSH1 0x4 CALLDATALOAD SWAP1 PUSH1 0x44 SLOAD DUP3 LT ISZERO PUSH2 0x37F JUMPI PUSH1 0x44 SLOAD DUP3 LT ISZERO PUSH2 0x42F JUMPI PUSH1 0x20 SWAP2 PUSH1 0x44 DUP3 MSTORE DUP3 DUP3 KECCAK256 ADD SLOAD SWAP1 PUSH1 0x3 SHL SHR PUSH1 0x40 MLOAD SWAP1 DUP2 MSTORE RETURN JUMPDEST POP CALLVALUE PUSH2 0x37F JUMPI DUP1 PUSH1 0x3 NOT CALLDATASIZE ADD SLT PUSH2 0x37F JUMPI PUSH1 0x20 PUSH1 0x40 MLOAD PUSH3 0x278D00 DUP2 MSTORE RETURN JUMPDEST POP CALLVALUE PUSH2 0x37F JUMPI PUSH1 0x20 CALLDATASIZE PUSH1 0x3 NOT ADD SLT PUSH2 0x37F JUMPI PUSH1 0x4 CALLDATALOAD SWAP1 PUSH1 0x17 SLOAD DUP3 LT ISZERO PUSH2 0x37F JUMPI PUSH1 0x17 SLOAD DUP3 LT ISZERO PUSH2 0x42F JUMPI PUSH1 0x20 SWAP2 PUSH1 0x17 DUP3 MSTORE DUP3 DUP3 KECCAK256 ADD SLOAD SWAP1 PUSH1 0x3 SHL SHR PUSH1 0x40 MLOAD SWAP1 DUP2 MSTORE RETURN JUMPDEST POP CALLVALUE PUSH2 0x37F JUMPI PUSH1 0x20 CALLDATASIZE PUSH1 0x3 NOT ADD SLT PUSH2 0x37F JUMPI PUSH1 0x4 CALLDATALOAD PUSH1 0x7 DUP2 LT ISZERO PUSH2 0x57A JUMPI PUSH1 0x20 SWAP2 POP PUSH1 0x18 ADD SLOAD PUSH1 0x40 MLOAD SWAP1 DUP2 MSTORE RETURN JUMPDEST CALLVALUE PUSH2 0x1DF2 JUMPI PUSH2 0x1A28 CALLDATASIZE PUSH2 0x1F92 JUMP JUMPDEST PUSH2 0x1A30 PUSH2 0x2321 JUMP JUMPDEST DUP2 PUSH0 MSTORE PUSH1 0x10 PUSH1 0x20 MSTORE PUSH2 0x1A4F PUSH1 0x1 DUP1 PUSH1 0xA0 SHL SUB PUSH1 0x40 PUSH0 KECCAK256 SLOAD AND CALLER EQ PUSH2 0x2079 JUMP JUMPDEST DUP2 ISZERO ISZERO DUP1 PUSH2 0x1DE9 JUMPI JUMPDEST DUP1 PUSH2 0x1DCB JUMPI JUMPDEST DUP1 PUSH2 0x1DC0 JUMPI JUMPDEST PUSH2 0x1A6D SWAP1 PUSH2 0x20B8 JUMP JUMPDEST DUP1 PUSH0 MSTORE PUSH1 0x3E PUSH1 0x20 MSTORE PUSH1 0x40 PUSH0 KECCAK256 DUP3 PUSH0 MSTORE PUSH1 0x20 MSTORE PUSH1 0x40 PUSH0 KECCAK256 DUP2 PUSH0 MSTORE PUSH1 0x3C PUSH1 0x20 MSTORE PUSH1 0x3 PUSH1 0x40 PUSH0 KECCAK256 SWAP2 ADD SWAP2 DUP3 SLOAD PUSH1 0x1 PUSH1 0xFF DUP3 PUSH1 0x8 SHR AND ISZERO ISZERO EQ SWAP1 DUP2 PUSH2 0x1DB4 JUMPI JUMPDEST POP ISZERO PUSH2 0x1D70 JUMPI PUSH1 0x3 DUP3 ADD SLOAD SWAP3 DUP4 ISZERO SWAP3 PUSH2 0x1AC2 DUP5 ISZERO PUSH2 0x211D JUMP JUMPDEST PUSH1 0x4 DUP2 ADD PUSH2 0x1AD7 PUSH1 0x2 DUP3 SLOAD SWAP4 ADD SLOAD DUP4 LT PUSH2 0x215E JUMP JUMPDEST PUSH1 0x1 DUP3 ADD DUP1 SWAP3 GT PUSH2 0x1D5C JUMPI SSTORE PUSH1 0x1 PUSH1 0xFF NOT DUP3 SLOAD AND OR SWAP1 SSTORE DUP4 PUSH0 MSTORE PUSH1 0x10 PUSH1 0x20 MSTORE PUSH1 0x40 PUSH0 KECCAK256 SWAP3 PUSH1 0x1 DUP1 PUSH1 0xA0 SHL SUB DUP5 SLOAD AND SWAP3 DUP4 ISZERO PUSH2 0xCA3 JUMPI PUSH2 0xC70 JUMPI DUP5 PUSH0 SWAP5 SWAP4 SWAP5 MSTORE PUSH1 0x11 PUSH1 0x20 MSTORE PUSH1 0x40 PUSH0 KECCAK256 PUSH2 0x1B2A DUP3 DUP3 SLOAD PUSH2 0x219E JUMP JUMPDEST DUP2 SSTORE PUSH1 0x9 DUP2 ADD PUSH2 0x1B3B DUP4 DUP3 SLOAD PUSH2 0x219E JUMP JUMPDEST SWAP1 SSTORE SLOAD SWAP4 PUSH1 0xB DUP5 ADD SLOAD SWAP3 PUSH1 0x6 PUSH0 SWAP6 ADD SWAP6 JUMPDEST DUP7 SLOAD DUP7 LT ISZERO PUSH2 0x1D4F JUMPI PUSH2 0x1B5E DUP7 PUSH2 0x1FE8 JUMP JUMPDEST SWAP1 SLOAD SWAP1 PUSH1 0x3 SHL SHR DUP9 PUSH0 MSTORE PUSH1 0xE PUSH1 0x20 MSTORE PUSH1 0x40 PUSH0 KECCAK256 DUP2 PUSH0 MSTORE PUSH1 0x20 MSTORE DUP6 PUSH1 0x40 PUSH0 KECCAK256 SWAP2 PUSH1 0x3 DUP4 ADD PUSH1 0xFF DUP2 SLOAD AND DUP1 ISZERO SWAP1 DUP2 DUP1 SWAP3 PUSH2 0x1D39 JUMPI JUMPDEST ISZERO PUSH2 0x1BC0 JUMPI POP POP SWAP2 PUSH1 0xA PUSH2 0xA6F DUP3 PUSH1 0x1 SWAP8 SWAP5 PUSH2 0x1BB7 SWAP8 SWAP7 DUP10 PUSH1 0xFF NOT DUP3 SLOAD AND OR SWAP1 SSTORE PUSH2 0x2375 JUMP JUMPDEST SWAP6 JUMPDEST ADD SWAP5 PUSH2 0x1B4C JUMP JUMPDEST SWAP2 POP SWAP3 POP DUP1 PUSH2 0x1D24 JUMPI JUMPDEST ISZERO PUSH2 0x1BE8 JUMPI POP POP PUSH1 0x1 SWAP2 PUSH1 0x2 PUSH2 0x1BE2 SWAP3 ADD SLOAD SWAP1 PUSH2 0x2388 JUMP JUMPDEST SWAP6 PUSH2 0x1BB9 JUMP JUMPDEST SWAP3 SWAP8 SWAP3 DUP8 SWAP1 DUP3 PUSH2 0x1D0C JUMPI JUMPDEST POP POP PUSH2 0x1C02 JUMPI POP PUSH1 0x1 SWAP1 PUSH2 0x1BB9 JUMP JUMPDEST SWAP2 SWAP8 SWAP6 SWAP4 SWAP7 POP POP PUSH1 0x1 SWAP2 SWAP4 POP ADD SSTORE JUMPDEST PUSH1 0x1 DUP1 PUSH1 0xA0 SHL SUB PUSH1 0x1 SLOAD AND PUSH1 0x40 MLOAD PUSH1 0x20 DUP2 ADD PUSH4 0xA9059CBB PUSH1 0xE0 SHL DUP2 MSTORE DUP4 PUSH1 0x24 DUP4 ADD MSTORE DUP6 PUSH1 0x44 DUP4 ADD MSTORE PUSH1 0x44 DUP3 MSTORE PUSH1 0x80 DUP3 ADD SWAP1 DUP3 DUP3 LT PUSH8 0xFFFFFFFFFFFFFFFF DUP4 GT OR PUSH2 0xBF8 JUMPI PUSH1 0x20 SWAP3 PUSH0 SWAP3 PUSH1 0x40 MSTORE MLOAD SWAP1 DUP3 DUP6 GAS CALL ISZERO PUSH2 0xBED JUMPI PUSH0 MLOAD RETURNDATASIZE PUSH2 0x1D03 JUMPI POP DUP1 EXTCODESIZE ISZERO JUMPDEST PUSH2 0xBD2 JUMPI POP PUSH32 0x96EE4F374D0394C5383B347DC3B7EC04A1ECEDDCD2E25521157BCE21C42B24D5 SWAP4 DUP3 DUP1 PUSH2 0xBC9 SWAP4 PUSH32 0x4D634C31300B97DAD99B3AF799178230163D88AD306370D063BE9CD992D0BE7F PUSH1 0x80 PUSH1 0x40 MLOAD DUP10 DUP2 MSTORE PUSH0 PUSH1 0x20 DUP3 ADD MSTORE PUSH1 0x7 PUSH1 0x40 DUP3 ADD MSTORE TIMESTAMP PUSH1 0x60 DUP3 ADD MSTORE LOG4 PUSH1 0x40 MLOAD SWAP4 DUP5 SWAP4 TIMESTAMP SWAP3 DUP6 SWAP1 SWAP5 SWAP4 SWAP3 PUSH1 0x60 SWAP3 PUSH1 0x80 DUP4 ADD SWAP7 DUP4 MSTORE PUSH1 0x20 DUP4 ADD MSTORE PUSH1 0x40 DUP3 ADD MSTORE ADD MSTORE JUMP JUMPDEST PUSH1 0x1 EQ ISZERO PUSH2 0x1C74 JUMP JUMPDEST PUSH1 0xA SWAP3 POP SWAP1 PUSH2 0x1D1A SWAP2 PUSH2 0x2375 JUMP JUMPDEST DIV DUP8 LT DUP7 DUP12 PUSH2 0x1BF3 JUMP JUMPDEST POP PUSH1 0xA PUSH2 0x1D31 DUP10 DUP4 PUSH2 0x2375 JUMP JUMPDEST DIV DUP5 GT PUSH2 0x1BCA JUMP JUMPDEST POP PUSH1 0xA PUSH2 0x1D46 DUP7 DUP7 PUSH2 0x2375 JUMP JUMPDEST DIV DUP8 LT ISZERO PUSH2 0x1B91 JUMP JUMPDEST POP SWAP6 SWAP4 POP SWAP2 POP SWAP3 POP PUSH2 0x1C11 JUMP JUMPDEST PUSH4 0x4E487B71 PUSH1 0xE0 SHL PUSH0 MSTORE PUSH1 0x11 PUSH1 0x4 MSTORE PUSH1 0x24 PUSH0 REVERT JUMPDEST PUSH1 0x64 PUSH1 0x40 MLOAD PUSH3 0x461BCD PUSH1 0xE5 SHL DUP2 MSTORE PUSH1 0x20 PUSH1 0x4 DUP3 ADD MSTORE PUSH1 0x20 PUSH1 0x24 DUP3 ADD MSTORE PUSH32 0x4E6F74207175616C6966696564206F7220616C726561647920636C61696D6564 PUSH1 0x44 DUP3 ADD MSTORE REVERT JUMPDEST PUSH1 0xFF SWAP2 POP AND ISZERO DUP6 PUSH2 0x1AA9 JUMP JUMPDEST POP PUSH1 0x39 SLOAD DUP2 LT PUSH2 0x1A64 JUMP JUMPDEST POP DUP1 PUSH0 MSTORE PUSH1 0x3C PUSH1 0x20 MSTORE PUSH1 0x1 PUSH1 0xFF PUSH1 0x8 PUSH1 0x40 PUSH0 KECCAK256 ADD SLOAD AND ISZERO ISZERO EQ PUSH2 0x1A5E JUMP JUMPDEST POP DUP1 ISZERO ISZERO PUSH2 0x1A58 JUMP JUMPDEST PUSH0 DUP1 REVERT JUMPDEST CALLVALUE PUSH2 0x1DF2 JUMPI PUSH2 0x1E04 CALLDATASIZE PUSH2 0x1F92 JUMP JUMPDEST SWAP1 PUSH0 MSTORE PUSH1 0x33 PUSH1 0x20 MSTORE PUSH1 0x40 PUSH0 KECCAK256 DUP1 SLOAD DUP3 LT ISZERO PUSH2 0x1DF2 JUMPI PUSH1 0x20 SWAP2 PUSH2 0x3B4 SWAP2 PUSH2 0x2014 JUMP JUMPDEST CALLVALUE PUSH2 0x1DF2 JUMPI PUSH2 0x1E33 CALLDATASIZE PUSH2 0x2029 JUMP JUMPDEST SWAP2 PUSH0 MSTORE PUSH1 0x36 PUSH1 0x20 MSTORE PUSH1 0x40 PUSH0 KECCAK256 SWAP1 PUSH0 MSTORE PUSH1 0x20 MSTORE PUSH1 0x40 PUSH0 KECCAK256 DUP1 SLOAD DUP3 LT ISZERO PUSH2 0x1DF2 JUMPI PUSH1 0x20 SWAP2 PUSH2 0x3B4 SWAP2 PUSH2 0x2014 JUMP JUMPDEST CALLVALUE PUSH2 0x1DF2 JUMPI PUSH2 0x1E6C CALLDATASIZE PUSH2 0x1F92 JUMP JUMPDEST SWAP1 PUSH0 MSTORE PUSH1 0x3D PUSH1 0x20 MSTORE PUSH1 0x40 PUSH0 KECCAK256 DUP1 SLOAD DUP3 LT ISZERO PUSH2 0x1DF2 JUMPI PUSH1 0x20 SWAP2 PUSH2 0x3B4 SWAP2 PUSH2 0x2014 JUMP JUMPDEST CALLVALUE PUSH2 0x1DF2 JUMPI PUSH1 0x20 CALLDATASIZE PUSH1 0x3 NOT ADD SLT PUSH2 0x1DF2 JUMPI PUSH1 0x4 CALLDATALOAD PUSH0 MSTORE PUSH1 0xC PUSH1 0x20 MSTORE PUSH1 0x20 PUSH1 0x40 PUSH0 KECCAK256 SLOAD PUSH1 0x40 MLOAD SWAP1 DUP2 MSTORE RETURN JUMPDEST CALLVALUE PUSH2 0x1DF2 JUMPI PUSH1 0x20 CALLDATASIZE PUSH1 0x3 NOT ADD SLT PUSH2 0x1DF2 JUMPI PUSH1 0x4 CALLDATALOAD PUSH0 MSTORE PUSH1 0x4A PUSH1 0x20 MSTORE PUSH1 0x40 PUSH0 KECCAK256 DUP1 SLOAD PUSH2 0x52C PUSH1 0x1 DUP4 ADD SLOAD SWAP3 PUSH1 0x2 DUP2 ADD SLOAD SWAP1 PUSH1 0x3 DUP2 ADD SLOAD PUSH1 0x4 DUP3 ADD SLOAD PUSH1 0x5 DUP4 ADD SLOAD SWAP1 PUSH1 0x6 DUP5 ADD SLOAD SWAP3 PUSH1 0xFF PUSH1 0x8 PUSH1 0x7 DUP8 ADD SLOAD SWAP7 ADD SLOAD AND SWAP6 PUSH1 0x40 MLOAD SWAP10 DUP11 SWAP10 DUP11 PUSH2 0x1FA8 JUMP JUMPDEST CALLVALUE PUSH2 0x1DF2 JUMPI PUSH0 CALLDATASIZE PUSH1 0x3 NOT ADD SLT PUSH2 0x1DF2 JUMPI PUSH1 0x20 PUSH1 0x40 MLOAD PUSH2 0x2710 DUP2 MSTORE RETURN JUMPDEST CALLVALUE PUSH2 0x1DF2 JUMPI PUSH1 0xA0 SWAP1 PUSH2 0x1F44 CALLDATASIZE PUSH2 0x1F92 JUMP JUMPDEST SWAP1 PUSH0 MSTORE PUSH1 0x3E PUSH1 0x20 MSTORE PUSH1 0x40 PUSH0 KECCAK256 SWAP1 PUSH0 MSTORE PUSH1 0x20 MSTORE PUSH1 0xFF PUSH1 0x40 PUSH0 KECCAK256 DUP1 SLOAD SWAP1 PUSH1 0x1 DUP2 ADD SLOAD PUSH1 0x3 PUSH1 0x2 DUP4 ADD SLOAD SWAP3 ADD SLOAD SWAP3 DUP6 MSTORE PUSH1 0x20 DUP6 ADD MSTORE PUSH1 0x40 DUP5 ADD MSTORE DUP2 DUP2 AND ISZERO ISZERO PUSH1 0x60 DUP5 ADD MSTORE PUSH1 0x8 SHR AND ISZERO ISZERO PUSH1 0x80 DUP3 ADD MSTORE RETURN JUMPDEST PUSH1 0x40 SWAP1 PUSH1 0x3 NOT ADD SLT PUSH2 0x1DF2 JUMPI PUSH1 0x4 CALLDATALOAD SWAP1 PUSH1 0x24 CALLDATALOAD SWAP1 JUMP JUMPDEST SWAP8 SWAP5 SWAP2 SWAP3 PUSH2 0x100 SWAP8 SWAP5 SWAP2 SWAP11 SWAP10 SWAP7 SWAP4 PUSH2 0x120 DUP11 ADD SWAP12 DUP11 MSTORE PUSH1 0x20 DUP11 ADD MSTORE PUSH1 0x40 DUP10 ADD MSTORE PUSH1 0x60 DUP9 ADD MSTORE PUSH1 0x80 DUP8 ADD MSTORE PUSH1 0xA0 DUP7 ADD MSTORE PUSH1 0xC0 DUP6 ADD MSTORE PUSH1 0xE0 DUP5 ADD MSTORE ISZERO ISZERO SWAP2 ADD MSTORE JUMP JUMPDEST PUSH1 0xD SLOAD DUP2 LT ISZERO PUSH2 0x2000 JUMPI PUSH1 0xD PUSH0 MSTORE PUSH1 0x20 PUSH0 KECCAK256 ADD SWAP1 PUSH0 SWAP1 JUMP JUMPDEST PUSH4 0x4E487B71 PUSH1 0xE0 SHL PUSH0 MSTORE PUSH1 0x32 PUSH1 0x4 MSTORE PUSH1 0x24 PUSH0 REVERT JUMPDEST DUP1 SLOAD DUP3 LT ISZERO PUSH2 0x2000 JUMPI PUSH0 MSTORE PUSH1 0x20 PUSH0 KECCAK256 ADD SWAP1 PUSH0 SWAP1 JUMP JUMPDEST PUSH1 0x60 SWAP1 PUSH1 0x3 NOT ADD SLT PUSH2 0x1DF2 JUMPI PUSH1 0x4 CALLDATALOAD SWAP1 PUSH1 0x24 CALLDATALOAD SWAP1 PUSH1 0x44 CALLDATALOAD SWAP1 JUMP JUMPDEST CALLVALUE PUSH2 0x1DF2 JUMPI PUSH0 CALLDATASIZE PUSH1 0x3 NOT ADD SLT PUSH2 0x1DF2 JUMPI PUSH1 0x20 PUSH1 0x40 MLOAD PUSH1 0xA DUP2 MSTORE RETURN JUMPDEST CALLVALUE PUSH2 0x1DF2 JUMPI PUSH0 CALLDATASIZE PUSH1 0x3 NOT ADD SLT PUSH2 0x1DF2 JUMPI PUSH1 0x20 PUSH1 0x40 MLOAD PUSH1 0xF DUP2 MSTORE RETURN JUMPDEST ISZERO PUSH2 0x2080 JUMPI JUMP JUMPDEST PUSH1 0x40 MLOAD PUSH3 0x461BCD PUSH1 0xE5 SHL DUP2 MSTORE PUSH1 0x20 PUSH1 0x4 DUP3 ADD MSTORE PUSH1 0x10 PUSH1 0x24 DUP3 ADD MSTORE PUSH16 0x139BDD081E5BDD5C881858D8DBDD5B9D PUSH1 0x82 SHL PUSH1 0x44 DUP3 ADD MSTORE PUSH1 0x64 SWAP1 REVERT JUMPDEST ISZERO PUSH2 0x20BF JUMPI JUMP JUMPDEST PUSH1 0x40 MLOAD PUSH3 0x461BCD PUSH1 0xE5 SHL DUP2 MSTORE PUSH1 0x20 PUSH1 0x4 DUP3 ADD MSTORE PUSH1 0x30 PUSH1 0x24 DUP3 ADD MSTORE PUSH32 0x496E76616C696420757365724964206F7220726F756E644964206F7220726F75 PUSH1 0x44 DUP3 ADD MSTORE PUSH16 0x1B99081BDC881B9BDD0818DB1BDCD959 PUSH1 0x82 SHL PUSH1 0x64 DUP3 ADD MSTORE PUSH1 0x84 SWAP1 REVERT JUMPDEST ISZERO PUSH2 0x2124 JUMPI JUMP JUMPDEST PUSH1 0x40 MLOAD PUSH3 0x461BCD PUSH1 0xE5 SHL DUP2 MSTORE PUSH1 0x20 PUSH1 0x4 DUP3 ADD MSTORE PUSH1 0x12 PUSH1 0x24 DUP3 ADD MSTORE PUSH18 0x4E6F2072657761726420746F20636C61696D PUSH1 0x70 SHL PUSH1 0x44 DUP3 ADD MSTORE PUSH1 0x64 SWAP1 REVERT JUMPDEST ISZERO PUSH2 0x2165 JUMPI JUMP JUMPDEST PUSH1 0x40 MLOAD PUSH3 0x461BCD PUSH1 0xE5 SHL DUP2 MSTORE PUSH1 0x20 PUSH1 0x4 DUP3 ADD MSTORE PUSH1 0x11 PUSH1 0x24 DUP3 ADD MSTORE PUSH17 0x105B1B081D5CD95C9CC818DB185A5B5959 PUSH1 0x7A SHL PUSH1 0x44 DUP3 ADD MSTORE PUSH1 0x64 SWAP1 REVERT JUMPDEST SWAP2 SWAP1 DUP3 ADD DUP1 SWAP3 GT PUSH2 0x1D5C JUMPI JUMP JUMPDEST ISZERO PUSH2 0x21B2 JUMPI JUMP JUMPDEST PUSH1 0x40 MLOAD PUSH3 0x461BCD PUSH1 0xE5 SHL DUP2 MSTORE PUSH1 0x20 PUSH1 0x4 DUP3 ADD MSTORE PUSH1 0xE PUSH1 0x24 DUP3 ADD MSTORE PUSH14 0x2737BA1038BAB0B634B334B2B21 PUSH1 0x95 SHL PUSH1 0x44 DUP3 ADD MSTORE PUSH1 0x64 SWAP1 REVERT JUMPDEST ISZERO PUSH2 0x21EF JUMPI JUMP JUMPDEST PUSH1 0x40 MLOAD PUSH3 0x461BCD PUSH1 0xE5 SHL DUP2 MSTORE PUSH1 0x20 PUSH1 0x4 DUP3 ADD MSTORE PUSH1 0x1E PUSH1 0x24 DUP3 ADD MSTORE PUSH32 0x416C726561647920636C61696D656420666F72207468697320726F756E640000 PUSH1 0x44 DUP3 ADD MSTORE PUSH1 0x64 SWAP1 REVERT JUMPDEST ISZERO PUSH2 0x223B JUMPI JUMP JUMPDEST PUSH1 0x40 MLOAD PUSH3 0x461BCD PUSH1 0xE5 SHL DUP2 MSTORE PUSH1 0x20 PUSH1 0x4 DUP3 ADD MSTORE PUSH1 0x15 PUSH1 0x24 DUP3 ADD MSTORE PUSH21 0x4E6F7420656C696769626C6520746F20636C61696D PUSH1 0x58 SHL PUSH1 0x44 DUP3 ADD MSTORE PUSH1 0x64 SWAP1 REVERT JUMPDEST PUSH0 MSTORE PUSH1 0x45 PUSH1 0x20 MSTORE PUSH1 0x40 PUSH0 KECCAK256 DUP2 PUSH0 MSTORE PUSH1 0x43 PUSH1 0x20 MSTORE PUSH1 0x40 PUSH0 KECCAK256 SWAP1 PUSH1 0xFF PUSH1 0x8 DUP4 ADD SLOAD AND ISZERO SWAP3 DUP4 ISZERO PUSH2 0x2314 JUMPI JUMPDEST DUP4 ISZERO PUSH2 0x2304 JUMPI JUMPDEST DUP4 ISZERO PUSH2 0x22F5 JUMPI JUMPDEST DUP4 ISZERO PUSH2 0x22DA JUMPI JUMPDEST POP POP DUP2 ISZERO PUSH2 0x22CD JUMPI JUMPDEST POP PUSH2 0x22C9 JUMPI PUSH1 0x1 SWAP1 JUMP JUMPDEST PUSH0 SWAP1 JUMP JUMPDEST PUSH1 0x3 SWAP2 POP ADD SLOAD ISZERO PUSH0 PUSH2 0x22BF JUMP JUMPDEST PUSH1 0x3 SWAP3 SWAP4 POP PUSH0 MSTORE ADD PUSH1 0x20 MSTORE PUSH1 0xFF PUSH1 0x40 PUSH0 KECCAK256 SLOAD AND SWAP1 PUSH0 DUP1 PUSH2 0x22B6 JUMP JUMPDEST DUP1 SWAP4 POP PUSH1 0x1 DUP3 ADD SLOAD GT SWAP3 PUSH2 0x22AF JUMP JUMPDEST PUSH1 0x4 DUP3 ADD SLOAD PUSH1 0xFF AND ISZERO SWAP4 POP PUSH2 0x22A8 JUMP JUMPDEST PUSH1 0x40 SLOAD DUP2 LT ISZERO SWAP4 POP PUSH2 0x22A1 JUMP JUMPDEST PUSH1 0x2 PUSH0 SLOAD EQ PUSH2 0x2330 JUMPI PUSH1 0x2 PUSH0 SSTORE JUMP JUMPDEST PUSH1 0x40 MLOAD PUSH3 0x461BCD PUSH1 0xE5 SHL DUP2 MSTORE PUSH1 0x20 PUSH1 0x4 DUP3 ADD MSTORE PUSH1 0x1F PUSH1 0x24 DUP3 ADD MSTORE PUSH32 0x5265656E7472616E637947756172643A207265656E7472616E742063616C6C00 PUSH1 0x44 DUP3 ADD MSTORE PUSH1 0x64 SWAP1 REVERT JUMPDEST DUP2 DUP2 MUL SWAP3 SWAP2 DUP2 ISZERO SWAP2 DUP5 DIV EQ OR ISZERO PUSH2 0x1D5C JUMPI JUMP JUMPDEST SWAP2 SWAP1 DUP3 SUB SWAP2 DUP3 GT PUSH2 0x1D5C JUMPI JUMP INVALID LOG2 PUSH5 0x6970667358 0x22 SLT KECCAK256 JUMP 0xEB 0xAC CREATE2 DUP11 0xDC DUP8 PUSH6 0xA6BC56E8C205 LOG2 0xEB INVALID DUP9 0x22 MULMOD PUSH3 0x8C4ACC 0x21 0x1E PUSH31 0xC60AA3FE5E64736F6C634300081E0033000000000000000000000000000000 "
		},
		"gasEstimates": {
			"creation": {
				"codeDepositCost": "1832600",
				"executionCost": "infinite",
				"totalCost": "infinite"
			},
			"external": {
				"ACC_PRECISION()": "584",
				"MONTHLY_ROYALTY_DIRECT()": "1640",
				"MONTHLY_ROYALTY_LEVEL()": "417",
				"MONTHLY_ROYALTY_TIME()": "1332",
				"MONTH_DURATION()": "430",
				"PERCENTS_DIVIDER()": "207",
				"ROI_2X_TIME()": "694",
				"ROI_CAP_DIVIDER()": "857",
				"ROI_CAP_MULTIPLIER()": "637",
				"TIME_STEP()": "562",
				"TOP_ROYALTY_DIRECT()": "540",
				"TOP_ROYALTY_LEVEL()": "461",
				"TOP_ROYALTY_TIME()": "980",
				"WEEK_DURATION()": "1024",
				"WeeklyCapping()": "1728",
				"WeeklyTotalReward()": "2621",
				"addressToId(address)": "3792",
				"boosterUsers(uint256,uint256)": "8055",
				"canClaimMonthlyReward(uint256,uint256)": "14267",
				"claimMonthlyCRoyaltyReward(uint256,uint256)": "infinite",
				"claimTopRoyaltyReward(uint256,uint256)": "infinite",
				"claimWeeklyContestReward(uint256,uint256)": "infinite",
				"communityAccPerPackage(uint256)": "2907",
				"communityAccPerUser()": "3149",
				"communityDebt(uint256,uint256)": "3408",
				"creatorWallet()": "3195",
				"currentMonthlyRound()": "3633",
				"currentMonthlyStartTime()": "3787",
				"currentWeeklyRound()": "3655",
				"currentWeeklyStartTime()": "3936",
				"defaultRefId()": "3853",
				"directReferrals(uint256,uint256)": "7505",
				"glbBoosterPackages(uint256)": "6814",
				"incomeHistory(uint256,uint256)": "13976",
				"matrixDirect(uint256)": "3281",
				"minLevelForGlbBooster(uint256)": "3760",
				"minLevelForPool(uint256)": "2506",
				"minPoolForGlbBooster(uint256)": "3364",
				"monthlyCapping()": "1508",
				"monthlyQualifiedUsers(uint256)": "6902",
				"monthlyRoyaltyUserdtl(uint256)": "9332",
				"monthlyRoyaltydtl(uint256)": "20230",
				"monthlyTotalReward()": "3413",
				"monthlyUserDirects(uint256,uint256)": "8385",
				"packageQualifiedUsers(uint256)": "2419",
				"packages(uint256)": "7903",
				"poolPackages(uint256)": "7782",
				"poolUsers(uint256,uint256)": "6879",
				"registeredUserIds(uint256)": "7078",
				"systemMaintance()": "3833",
				"teamDevelopment()": "3921",
				"teams(uint256,uint256,uint256)": "7511",
				"topRoyaltyQualifiedUsers(uint256)": "8200",
				"topRoyaltyReward()": "3017",
				"topRoyaltyRound()": "2885",
				"topRoyaltyStartTime()": "3369",
				"topRoyaltyUserDirects(uint256,uint256)": "7373",
				"topRoyaltyUserdtl(uint256)": "10278",
				"topRoyaltydtl(uint256)": "19500",
				"totalUsers()": "3523",
				"usdt()": "2623",
				"userBoosterChildren(uint256,uint256,uint256)": "6927",
				"userBoosterdtl(uint256,uint256)": "12039",
				"userChildren(uint256,uint256,uint256)": "7819",
				"userHasPool(uint256,uint256)": "3662",
				"userHasbooster(uint256,uint256)": "3574",
				"userIdPerPool(uint256,uint256,uint256)": "7797",
				"userIncomes(uint256)": "26318",
				"userPackage(uint256,uint256)": "9613",
				"userPooldtl(uint256,uint256)": "12435",
				"userPooltopup(uint256,uint256)": "5799",
				"users(uint256)": "45524",
				"weeklyContestdtl(uint256)": "20736",
				"weeklyQualifiedUsers(uint256,uint256)": "6835",
				"weeklyUserDirects(uint256,uint256,uint256)": "7467",
				"weeklyUserdtl(uint256,uint256)": "8877"
			},
			"internal": {
				"_closeMonthlyRoyalty()": "infinite",
				"_closeTopRoyalty()": "infinite",
				"_closeWeeklyContest()": "infinite"
			}
		},
		"methodIdentifiers": {
			"ACC_PRECISION()": "32fcd966",
			"MONTHLY_ROYALTY_DIRECT()": "d2f0490d",
			"MONTHLY_ROYALTY_LEVEL()": "23fd338e",
			"MONTHLY_ROYALTY_TIME()": "a5e52b99",
			"MONTH_DURATION()": "2a891534",
			"PERCENTS_DIVIDER()": "01c234a8",
			"ROI_2X_TIME()": "3a5084b3",
			"ROI_CAP_DIVIDER()": "58c7d352",
			"ROI_CAP_MULTIPLIER()": "375b43b4",
			"TIME_STEP()": "32bc298c",
			"TOP_ROYALTY_DIRECT()": "31bb6a30",
			"TOP_ROYALTY_LEVEL()": "2ae0ee0d",
			"TOP_ROYALTY_TIME()": "705fee2d",
			"WEEK_DURATION()": "76f5f700",
			"WeeklyCapping()": "ebe0ff15",
			"WeeklyTotalReward()": "3080b5bc",
			"addressToId(address)": "cb0e0d7d",
			"boosterUsers(uint256,uint256)": "c7bb62e8",
			"canClaimMonthlyReward(uint256,uint256)": "7d846e38",
			"claimMonthlyCRoyaltyReward(uint256,uint256)": "39f2e64a",
			"claimTopRoyaltyReward(uint256,uint256)": "97358004",
			"claimWeeklyContestReward(uint256,uint256)": "16298056",
			"communityAccPerPackage(uint256)": "45cb537c",
			"communityAccPerUser()": "78f6ad6d",
			"communityDebt(uint256,uint256)": "89043ece",
			"creatorWallet()": "7cdc65f2",
			"currentMonthlyRound()": "c9ed0708",
			"currentMonthlyStartTime()": "e898fc38",
			"currentWeeklyRound()": "ca8e9121",
			"currentWeeklyStartTime()": "fddc806f",
			"defaultRefId()": "ec597e6f",
			"directReferrals(uint256,uint256)": "5ec64a44",
			"glbBoosterPackages(uint256)": "2350268f",
			"incomeHistory(uint256,uint256)": "70c8d770",
			"matrixDirect(uint256)": "88afbe3e",
			"minLevelForGlbBooster(uint256)": "d0a2fd79",
			"minLevelForPool(uint256)": "2132d204",
			"minPoolForGlbBooster(uint256)": "956a3228",
			"monthlyCapping()": "c8df2908",
			"monthlyQualifiedUsers(uint256)": "2d66014f",
			"monthlyRoyaltyUserdtl(uint256)": "4036436c",
			"monthlyRoyaltydtl(uint256)": "6a424782",
			"monthlyTotalReward()": "a59d17d1",
			"monthlyUserDirects(uint256,uint256)": "f7a24806",
			"packageQualifiedUsers(uint256)": "0676d0d6",
			"packages(uint256)": "c216212a",
			"poolPackages(uint256)": "ae4708dc",
			"poolUsers(uint256,uint256)": "0f2b7cc9",
			"registeredUserIds(uint256)": "39ab3603",
			"systemMaintance()": "e9e34a16",
			"teamDevelopment()": "f5d74d93",
			"teams(uint256,uint256,uint256)": "5aabf7f1",
			"topRoyaltyQualifiedUsers(uint256)": "f5748c4f",
			"topRoyaltyReward()": "5b62d1d5",
			"topRoyaltyRound()": "4b8cbf9b",
			"topRoyaltyStartTime()": "9b40ab97",
			"topRoyaltyUserDirects(uint256,uint256)": "4d12ae0f",
			"topRoyaltyUserdtl(uint256)": "db27cc71",
			"topRoyaltydtl(uint256)": "056b4d1f",
			"totalUsers()": "bff1f9e1",
			"usdt()": "2f48ab7d",
			"userBoosterChildren(uint256,uint256,uint256)": "0ef81b74",
			"userBoosterdtl(uint256,uint256)": "907c84a7",
			"userChildren(uint256,uint256,uint256)": "8f030ece",
			"userHasPool(uint256,uint256)": "bd1aae40",
			"userHasbooster(uint256,uint256)": "9c383486",
			"userIdPerPool(uint256,uint256,uint256)": "8d58644c",
			"userIncomes(uint256)": "46b9dece",
			"userPackage(uint256,uint256)": "5b58ce6c",
			"userPooldtl(uint256,uint256)": "ce79c2c3",
			"userPooltopup(uint256,uint256)": "bf724672",
			"users(uint256)": "365b98b2",
			"weeklyContestdtl(uint256)": "c4eb42a5",
			"weeklyQualifiedUsers(uint256,uint256)": "0a5c5d69",
			"weeklyUserDirects(uint256,uint256,uint256)": "4d4cc5ca",
			"weeklyUserdtl(uint256,uint256)": "0054815d"
		}
	},
	"abi": [
		{
			"inputs": [],
			"stateMutability": "nonpayable",
			"type": "constructor"
		},
		{
			"inputs": [
				{
					"internalType": "address",
					"name": "token",
					"type": "address"
				}
			],
			"name": "SafeERC20FailedOperation",
			"type": "error"
		},
		{
			"anonymous": false,
			"inputs": [
				{
					"indexed": false,
					"internalType": "uint256",
					"name": "amount",
					"type": "uint256"
				},
				{
					"indexed": false,
					"internalType": "uint256",
					"name": "usersCount",
					"type": "uint256"
				},
				{
					"indexed": false,
					"internalType": "uint256",
					"name": "perUser",
					"type": "uint256"
				}
			],
			"name": "CommunityBonusDistributed",
			"type": "event"
		},
		{
			"anonymous": false,
			"inputs": [
				{
					"indexed": true,
					"internalType": "address",
					"name": "to",
					"type": "address"
				},
				{
					"indexed": true,
					"internalType": "address",
					"name": "from",
					"type": "address"
				},
				{
					"indexed": false,
					"internalType": "uint256",
					"name": "amount",
					"type": "uint256"
				},
				{
					"indexed": false,
					"internalType": "uint256",
					"name": "packageLevel",
					"type": "uint256"
				},
				{
					"indexed": false,
					"internalType": "uint256",
					"name": "incomeType",
					"type": "uint256"
				}
			],
			"name": "IncomeDistributed",
			"type": "event"
		},
		{
			"anonymous": false,
			"inputs": [
				{
					"indexed": true,
					"internalType": "address",
					"name": "to",
					"type": "address"
				},
				{
					"indexed": true,
					"internalType": "uint256",
					"name": "toId",
					"type": "uint256"
				},
				{
					"indexed": true,
					"internalType": "uint256",
					"name": "fromId",
					"type": "uint256"
				},
				{
					"indexed": false,
					"internalType": "uint256",
					"name": "amount",
					"type": "uint256"
				},
				{
					"indexed": false,
					"internalType": "uint256",
					"name": "packageLevel",
					"type": "uint256"
				},
				{
					"indexed": false,
					"internalType": "enum Storage.IncomeType",
					"name": "incomeType",
					"type": "uint8"
				},
				{
					"indexed": false,
					"internalType": "uint256",
					"name": "timestamp",
					"type": "uint256"
				}
			],
			"name": "IncomeDistribution",
			"type": "event"
		},
		{
			"anonymous": false,
			"inputs": [
				{
					"indexed": true,
					"internalType": "address",
					"name": "winner",
					"type": "address"
				},
				{
					"indexed": true,
					"internalType": "uint256",
					"name": "fromUserId",
					"type": "uint256"
				},
				{
					"indexed": false,
					"internalType": "uint256",
					"name": "amount",
					"type": "uint256"
				},
				{
					"indexed": false,
					"internalType": "uint256",
					"name": "timestamp",
					"type": "uint256"
				}
			],
			"name": "LotteryReward",
			"type": "event"
		},
		{
			"anonymous": false,
			"inputs": [
				{
					"indexed": false,
					"internalType": "uint256",
					"name": "roundId",
					"type": "uint256"
				},
				{
					"indexed": false,
					"internalType": "uint256",
					"name": "totalUsers",
					"type": "uint256"
				},
				{
					"indexed": false,
					"internalType": "uint256",
					"name": "perUserReward",
					"type": "uint256"
				},
				{
					"indexed": false,
					"internalType": "uint256",
					"name": "totalReward",
					"type": "uint256"
				},
				{
					"indexed": false,
					"internalType": "uint256",
					"name": "totalDistributed",
					"type": "uint256"
				},
				{
					"indexed": false,
					"internalType": "uint256",
					"name": "leftoverReward",
					"type": "uint256"
				},
				{
					"indexed": false,
					"internalType": "uint256",
					"name": "endTime",
					"type": "uint256"
				}
			],
			"name": "MonthlyClosed",
			"type": "event"
		},
		{
			"anonymous": false,
			"inputs": [
				{
					"indexed": false,
					"internalType": "uint256",
					"name": "roundId",
					"type": "uint256"
				},
				{
					"indexed": false,
					"internalType": "uint256",
					"name": "userId",
					"type": "uint256"
				},
				{
					"indexed": false,
					"internalType": "uint256",
					"name": "perUserReward",
					"type": "uint256"
				},
				{
					"indexed": false,
					"internalType": "uint256",
					"name": "claimTime",
					"type": "uint256"
				}
			],
			"name": "MonthlyRewardClaim",
			"type": "event"
		},
		{
			"anonymous": false,
			"inputs": [
				{
					"indexed": false,
					"internalType": "uint256",
					"name": "roundId",
					"type": "uint256"
				},
				{
					"indexed": false,
					"internalType": "uint256",
					"name": "userId",
					"type": "uint256"
				},
				{
					"indexed": false,
					"internalType": "uint256",
					"name": "joinTime",
					"type": "uint256"
				}
			],
			"name": "MonthlyRoyaltyQualified",
			"type": "event"
		},
		{
			"anonymous": false,
			"inputs": [
				{
					"indexed": true,
					"internalType": "address",
					"name": "user",
					"type": "address"
				},
				{
					"indexed": true,
					"internalType": "address",
					"name": "sponsor",
					"type": "address"
				},
				{
					"indexed": true,
					"internalType": "uint256",
					"name": "userId",
					"type": "uint256"
				},
				{
					"indexed": false,
					"internalType": "uint256",
					"name": "uplineId",
					"type": "uint256"
				}
			],
			"name": "Registration",
			"type": "event"
		},
		{
			"anonymous": false,
			"inputs": [
				{
					"indexed": true,
					"internalType": "address",
					"name": "to",
					"type": "address"
				},
				{
					"indexed": false,
					"internalType": "uint256",
					"name": "amount",
					"type": "uint256"
				},
				{
					"indexed": false,
					"internalType": "string",
					"name": "level",
					"type": "string"
				}
			],
			"name": "RewardSent",
			"type": "event"
		},
		{
			"anonymous": false,
			"inputs": [
				{
					"indexed": false,
					"internalType": "uint256",
					"name": "roundId",
					"type": "uint256"
				},
				{
					"indexed": false,
					"internalType": "uint256",
					"name": "totalUsers",
					"type": "uint256"
				},
				{
					"indexed": false,
					"internalType": "uint256",
					"name": "perUserReward",
					"type": "uint256"
				},
				{
					"indexed": false,
					"internalType": "uint256",
					"name": "totalReward",
					"type": "uint256"
				},
				{
					"indexed": false,
					"internalType": "uint256",
					"name": "totalDistributed",
					"type": "uint256"
				},
				{
					"indexed": false,
					"internalType": "uint256",
					"name": "leftoverReward",
					"type": "uint256"
				},
				{
					"indexed": false,
					"internalType": "uint256",
					"name": "endTime",
					"type": "uint256"
				}
			],
			"name": "TopRoyaltyClosed",
			"type": "event"
		},
		{
			"anonymous": false,
			"inputs": [
				{
					"indexed": false,
					"internalType": "uint256",
					"name": "roundId",
					"type": "uint256"
				},
				{
					"indexed": false,
					"internalType": "uint256",
					"name": "userId",
					"type": "uint256"
				},
				{
					"indexed": false,
					"internalType": "uint256",
					"name": "joinTime",
					"type": "uint256"
				}
			],
			"name": "TopRoyaltyQualified",
			"type": "event"
		},
		{
			"anonymous": false,
			"inputs": [
				{
					"indexed": false,
					"internalType": "uint256",
					"name": "roundId",
					"type": "uint256"
				},
				{
					"indexed": false,
					"internalType": "uint256",
					"name": "userId",
					"type": "uint256"
				},
				{
					"indexed": false,
					"internalType": "uint256",
					"name": "perUserReward",
					"type": "uint256"
				},
				{
					"indexed": false,
					"internalType": "uint256",
					"name": "claimTime",
					"type": "uint256"
				}
			],
			"name": "TopRoyaltyRewardClaim",
			"type": "event"
		},
		{
			"anonymous": false,
			"inputs": [
				{
					"indexed": true,
					"internalType": "address",
					"name": "user",
					"type": "address"
				},
				{
					"indexed": true,
					"internalType": "uint256",
					"name": "userId",
					"type": "uint256"
				},
				{
					"indexed": false,
					"internalType": "uint256",
					"name": "packageLevel",
					"type": "uint256"
				},
				{
					"indexed": false,
					"internalType": "uint256",
					"name": "packagePrice",
					"type": "uint256"
				},
				{
					"indexed": false,
					"internalType": "string",
					"name": "depositType",
					"type": "string"
				},
				{
					"indexed": false,
					"internalType": "uint256",
					"name": "upgradeTime",
					"type": "uint256"
				}
			],
			"name": "Upgrade",
			"type": "event"
		},
		{
			"anonymous": false,
			"inputs": [
				{
					"indexed": true,
					"internalType": "uint8",
					"name": "matrixId",
					"type": "uint8"
				},
				{
					"indexed": true,
					"internalType": "uint32",
					"name": "userId",
					"type": "uint32"
				},
				{
					"indexed": true,
					"internalType": "address",
					"name": "user",
					"type": "address"
				},
				{
					"indexed": false,
					"internalType": "uint32",
					"name": "parentId",
					"type": "uint32"
				},
				{
					"indexed": false,
					"internalType": "address",
					"name": "parentAddr",
					"type": "address"
				},
				{
					"indexed": false,
					"internalType": "uint8",
					"name": "position",
					"type": "uint8"
				}
			],
			"name": "UserJoined",
			"type": "event"
		},
		{
			"anonymous": false,
			"inputs": [
				{
					"indexed": false,
					"internalType": "uint256",
					"name": "roundId",
					"type": "uint256"
				},
				{
					"indexed": false,
					"internalType": "uint256",
					"name": "totalUsers",
					"type": "uint256"
				},
				{
					"indexed": false,
					"internalType": "uint256",
					"name": "perUserReward",
					"type": "uint256"
				},
				{
					"indexed": false,
					"internalType": "uint256",
					"name": "totalReward",
					"type": "uint256"
				},
				{
					"indexed": false,
					"internalType": "uint256",
					"name": "totalDistributed",
					"type": "uint256"
				},
				{
					"indexed": false,
					"internalType": "uint256",
					"name": "leftoverReward",
					"type": "uint256"
				},
				{
					"indexed": false,
					"internalType": "uint256",
					"name": "endTime",
					"type": "uint256"
				}
			],
			"name": "WeeklyClosed",
			"type": "event"
		},
		{
			"anonymous": false,
			"inputs": [
				{
					"indexed": false,
					"internalType": "uint256",
					"name": "roundId",
					"type": "uint256"
				},
				{
					"indexed": false,
					"internalType": "uint256",
					"name": "userId",
					"type": "uint256"
				},
				{
					"indexed": false,
					"internalType": "uint256",
					"name": "joinTime",
					"type": "uint256"
				}
			],
			"name": "WeeklyContestQualified",
			"type": "event"
		},
		{
			"anonymous": false,
			"inputs": [
				{
					"indexed": false,
					"internalType": "uint256",
					"name": "roundId",
					"type": "uint256"
				},
				{
					"indexed": false,
					"internalType": "uint256",
					"name": "userId",
					"type": "uint256"
				},
				{
					"indexed": false,
					"internalType": "uint256",
					"name": "perUserReward",
					"type": "uint256"
				},
				{
					"indexed": false,
					"internalType": "uint256",
					"name": "claimTime",
					"type": "uint256"
				}
			],
			"name": "WeeklyRewardClaim",
			"type": "event"
		},
		{
			"inputs": [],
			"name": "ACC_PRECISION",
			"outputs": [
				{
					"internalType": "uint256",
					"name": "",
					"type": "uint256"
				}
			],
			"stateMutability": "view",
			"type": "function"
		},
		{
			"inputs": [],
			"name": "MONTHLY_ROYALTY_DIRECT",
			"outputs": [
				{
					"internalType": "uint256",
					"name": "",
					"type": "uint256"
				}
			],
			"stateMutability": "view",
			"type": "function"
		},
		{
			"inputs": [],
			"name": "MONTHLY_ROYALTY_LEVEL",
			"outputs": [
				{
					"internalType": "uint256",
					"name": "",
					"type": "uint256"
				}
			],
			"stateMutability": "view",
			"type": "function"
		},
		{
			"inputs": [],
			"name": "MONTHLY_ROYALTY_TIME",
			"outputs": [
				{
					"internalType": "uint256",
					"name": "",
					"type": "uint256"
				}
			],
			"stateMutability": "view",
			"type": "function"
		},
		{
			"inputs": [],
			"name": "MONTH_DURATION",
			"outputs": [
				{
					"internalType": "uint256",
					"name": "",
					"type": "uint256"
				}
			],
			"stateMutability": "view",
			"type": "function"
		},
		{
			"inputs": [],
			"name": "PERCENTS_DIVIDER",
			"outputs": [
				{
					"internalType": "uint256",
					"name": "",
					"type": "uint256"
				}
			],
			"stateMutability": "view",
			"type": "function"
		},
		{
			"inputs": [],
			"name": "ROI_2X_TIME",
			"outputs": [
				{
					"internalType": "uint256",
					"name": "",
					"type": "uint256"
				}
			],
			"stateMutability": "view",
			"type": "function"
		},
		{
			"inputs": [],
			"name": "ROI_CAP_DIVIDER",
			"outputs": [
				{
					"internalType": "uint256",
					"name": "",
					"type": "uint256"
				}
			],
			"stateMutability": "view",
			"type": "function"
		},
		{
			"inputs": [],
			"name": "ROI_CAP_MULTIPLIER",
			"outputs": [
				{
					"internalType": "uint256",
					"name": "",
					"type": "uint256"
				}
			],
			"stateMutability": "view",
			"type": "function"
		},
		{
			"inputs": [],
			"name": "TIME_STEP",
			"outputs": [
				{
					"internalType": "uint256",
					"name": "",
					"type": "uint256"
				}
			],
			"stateMutability": "view",
			"type": "function"
		},
		{
			"inputs": [],
			"name": "TOP_ROYALTY_DIRECT",
			"outputs": [
				{
					"internalType": "uint256",
					"name": "",
					"type": "uint256"
				}
			],
			"stateMutability": "view",
			"type": "function"
		},
		{
			"inputs": [],
			"name": "TOP_ROYALTY_LEVEL",
			"outputs": [
				{
					"internalType": "uint256",
					"name": "",
					"type": "uint256"
				}
			],
			"stateMutability": "view",
			"type": "function"
		},
		{
			"inputs": [],
			"name": "TOP_ROYALTY_TIME",
			"outputs": [
				{
					"internalType": "uint256",
					"name": "",
					"type": "uint256"
				}
			],
			"stateMutability": "view",
			"type": "function"
		},
		{
			"inputs": [],
			"name": "WEEK_DURATION",
			"outputs": [
				{
					"internalType": "uint256",
					"name": "",
					"type": "uint256"
				}
			],
			"stateMutability": "view",
			"type": "function"
		},
		{
			"inputs": [],
			"name": "WeeklyCapping",
			"outputs": [
				{
					"internalType": "uint256",
					"name": "",
					"type": "uint256"
				}
			],
			"stateMutability": "view",
			"type": "function"
		},
		{
			"inputs": [],
			"name": "WeeklyTotalReward",
			"outputs": [
				{
					"internalType": "uint256",
					"name": "",
					"type": "uint256"
				}
			],
			"stateMutability": "view",
			"type": "function"
		},
		{
			"inputs": [
				{
					"internalType": "address",
					"name": "",
					"type": "address"
				}
			],
			"name": "addressToId",
			"outputs": [
				{
					"internalType": "uint256",
					"name": "",
					"type": "uint256"
				}
			],
			"stateMutability": "view",
			"type": "function"
		},
		{
			"inputs": [
				{
					"internalType": "uint256",
					"name": "",
					"type": "uint256"
				},
				{
					"internalType": "uint256",
					"name": "",
					"type": "uint256"
				}
			],
			"name": "boosterUsers",
			"outputs": [
				{
					"internalType": "uint256",
					"name": "",
					"type": "uint256"
				}
			],
			"stateMutability": "view",
			"type": "function"
		},
		{
			"inputs": [
				{
					"internalType": "uint256",
					"name": "_userId",
					"type": "uint256"
				},
				{
					"internalType": "uint256",
					"name": "_roundId",
					"type": "uint256"
				}
			],
			"name": "canClaimMonthlyReward",
			"outputs": [
				{
					"internalType": "bool",
					"name": "",
					"type": "bool"
				}
			],
			"stateMutability": "view",
			"type": "function"
		},
		{
			"inputs": [
				{
					"internalType": "uint256",
					"name": "_userId",
					"type": "uint256"
				},
				{
					"internalType": "uint256",
					"name": "_roundId",
					"type": "uint256"
				}
			],
			"name": "claimMonthlyCRoyaltyReward",
			"outputs": [],
			"stateMutability": "nonpayable",
			"type": "function"
		},
		{
			"inputs": [
				{
					"internalType": "uint256",
					"name": "_userId",
					"type": "uint256"
				},
				{
					"internalType": "uint256",
					"name": "_roundId",
					"type": "uint256"
				}
			],
			"name": "claimTopRoyaltyReward",
			"outputs": [],
			"stateMutability": "nonpayable",
			"type": "function"
		},
		{
			"inputs": [
				{
					"internalType": "uint256",
					"name": "_userId",
					"type": "uint256"
				},
				{
					"internalType": "uint256",
					"name": "_roundId",
					"type": "uint256"
				}
			],
			"name": "claimWeeklyContestReward",
			"outputs": [],
			"stateMutability": "nonpayable",
			"type": "function"
		},
		{
			"inputs": [
				{
					"internalType": "uint256",
					"name": "",
					"type": "uint256"
				}
			],
			"name": "communityAccPerPackage",
			"outputs": [
				{
					"internalType": "uint256",
					"name": "",
					"type": "uint256"
				}
			],
			"stateMutability": "view",
			"type": "function"
		},
		{
			"inputs": [],
			"name": "communityAccPerUser",
			"outputs": [
				{
					"internalType": "uint256",
					"name": "",
					"type": "uint256"
				}
			],
			"stateMutability": "view",
			"type": "function"
		},
		{
			"inputs": [
				{
					"internalType": "uint256",
					"name": "",
					"type": "uint256"
				},
				{
					"internalType": "uint256",
					"name": "",
					"type": "uint256"
				}
			],
			"name": "communityDebt",
			"outputs": [
				{
					"internalType": "uint256",
					"name": "",
					"type": "uint256"
				}
			],
			"stateMutability": "view",
			"type": "function"
		},
		{
			"inputs": [],
			"name": "creatorWallet",
			"outputs": [
				{
					"internalType": "address",
					"name": "",
					"type": "address"
				}
			],
			"stateMutability": "view",
			"type": "function"
		},
		{
			"inputs": [],
			"name": "currentMonthlyRound",
			"outputs": [
				{
					"internalType": "uint256",
					"name": "",
					"type": "uint256"
				}
			],
			"stateMutability": "view",
			"type": "function"
		},
		{
			"inputs": [],
			"name": "currentMonthlyStartTime",
			"outputs": [
				{
					"internalType": "uint256",
					"name": "",
					"type": "uint256"
				}
			],
			"stateMutability": "view",
			"type": "function"
		},
		{
			"inputs": [],
			"name": "currentWeeklyRound",
			"outputs": [
				{
					"internalType": "uint256",
					"name": "",
					"type": "uint256"
				}
			],
			"stateMutability": "view",
			"type": "function"
		},
		{
			"inputs": [],
			"name": "currentWeeklyStartTime",
			"outputs": [
				{
					"internalType": "uint256",
					"name": "",
					"type": "uint256"
				}
			],
			"stateMutability": "view",
			"type": "function"
		},
		{
			"inputs": [],
			"name": "defaultRefId",
			"outputs": [
				{
					"internalType": "uint256",
					"name": "",
					"type": "uint256"
				}
			],
			"stateMutability": "view",
			"type": "function"
		},
		{
			"inputs": [
				{
					"internalType": "uint256",
					"name": "",
					"type": "uint256"
				},
				{
					"internalType": "uint256",
					"name": "",
					"type": "uint256"
				}
			],
			"name": "directReferrals",
			"outputs": [
				{
					"internalType": "uint256",
					"name": "",
					"type": "uint256"
				}
			],
			"stateMutability": "view",
			"type": "function"
		},
		{
			"inputs": [
				{
					"internalType": "uint256",
					"name": "",
					"type": "uint256"
				}
			],
			"name": "glbBoosterPackages",
			"outputs": [
				{
					"internalType": "uint256",
					"name": "",
					"type": "uint256"
				}
			],
			"stateMutability": "view",
			"type": "function"
		},
		{
			"inputs": [
				{
					"internalType": "uint256",
					"name": "",
					"type": "uint256"
				},
				{
					"internalType": "uint256",
					"name": "",
					"type": "uint256"
				}
			],
			"name": "incomeHistory",
			"outputs": [
				{
					"internalType": "uint256",
					"name": "fromUserId",
					"type": "uint256"
				},
				{
					"internalType": "uint256",
					"name": "amount",
					"type": "uint256"
				},
				{
					"internalType": "uint256",
					"name": "packageLevel",
					"type": "uint256"
				},
				{
					"internalType": "uint256",
					"name": "timestamp",
					"type": "uint256"
				},
				{
					"internalType": "uint256",
					"name": "incomeType",
					"type": "uint256"
				}
			],
			"stateMutability": "view",
			"type": "function"
		},
		{
			"inputs": [
				{
					"internalType": "uint256",
					"name": "",
					"type": "uint256"
				}
			],
			"name": "matrixDirect",
			"outputs": [
				{
					"internalType": "uint256",
					"name": "",
					"type": "uint256"
				}
			],
			"stateMutability": "view",
			"type": "function"
		},
		{
			"inputs": [
				{
					"internalType": "uint256",
					"name": "",
					"type": "uint256"
				}
			],
			"name": "minLevelForGlbBooster",
			"outputs": [
				{
					"internalType": "uint256",
					"name": "",
					"type": "uint256"
				}
			],
			"stateMutability": "view",
			"type": "function"
		},
		{
			"inputs": [
				{
					"internalType": "uint256",
					"name": "",
					"type": "uint256"
				}
			],
			"name": "minLevelForPool",
			"outputs": [
				{
					"internalType": "uint256",
					"name": "",
					"type": "uint256"
				}
			],
			"stateMutability": "view",
			"type": "function"
		},
		{
			"inputs": [
				{
					"internalType": "uint256",
					"name": "",
					"type": "uint256"
				}
			],
			"name": "minPoolForGlbBooster",
			"outputs": [
				{
					"internalType": "uint256",
					"name": "",
					"type": "uint256"
				}
			],
			"stateMutability": "view",
			"type": "function"
		},
		{
			"inputs": [],
			"name": "monthlyCapping",
			"outputs": [
				{
					"internalType": "uint256",
					"name": "",
					"type": "uint256"
				}
			],
			"stateMutability": "view",
			"type": "function"
		},
		{
			"inputs": [
				{
					"internalType": "uint256",
					"name": "",
					"type": "uint256"
				}
			],
			"name": "monthlyQualifiedUsers",
			"outputs": [
				{
					"internalType": "uint256",
					"name": "",
					"type": "uint256"
				}
			],
			"stateMutability": "view",
			"type": "function"
		},
		{
			"inputs": [
				{
					"internalType": "uint256",
					"name": "",
					"type": "uint256"
				}
			],
			"name": "monthlyRoyaltyUserdtl",
			"outputs": [
				{
					"internalType": "uint256",
					"name": "joinTime",
					"type": "uint256"
				},
				{
					"internalType": "uint256",
					"name": "qualifiedRoundId",
					"type": "uint256"
				},
				{
					"internalType": "uint256",
					"name": "claimTime",
					"type": "uint256"
				},
				{
					"internalType": "bool",
					"name": "isQualified",
					"type": "bool"
				}
			],
			"stateMutability": "view",
			"type": "function"
		},
		{
			"inputs": [
				{
					"internalType": "uint256",
					"name": "",
					"type": "uint256"
				}
			],
			"name": "monthlyRoyaltydtl",
			"outputs": [
				{
					"internalType": "uint256",
					"name": "roundId",
					"type": "uint256"
				},
				{
					"internalType": "uint256",
					"name": "totalReward",
					"type": "uint256"
				},
				{
					"internalType": "uint256",
					"name": "totalUsers",
					"type": "uint256"
				},
				{
					"internalType": "uint256",
					"name": "perUserReward",
					"type": "uint256"
				},
				{
					"internalType": "uint256",
					"name": "claimedCount",
					"type": "uint256"
				},
				{
					"internalType": "uint256",
					"name": "startTime",
					"type": "uint256"
				},
				{
					"internalType": "uint256",
					"name": "endTime",
					"type": "uint256"
				},
				{
					"internalType": "uint256",
					"name": "carryForward",
					"type": "uint256"
				},
				{
					"internalType": "bool",
					"name": "closed",
					"type": "bool"
				}
			],
			"stateMutability": "view",
			"type": "function"
		},
		{
			"inputs": [],
			"name": "monthlyTotalReward",
			"outputs": [
				{
					"internalType": "uint256",
					"name": "",
					"type": "uint256"
				}
			],
			"stateMutability": "view",
			"type": "function"
		},
		{
			"inputs": [
				{
					"internalType": "uint256",
					"name": "",
					"type": "uint256"
				},
				{
					"internalType": "uint256",
					"name": "",
					"type": "uint256"
				}
			],
			"name": "monthlyUserDirects",
			"outputs": [
				{
					"internalType": "uint256",
					"name": "",
					"type": "uint256"
				}
			],
			"stateMutability": "view",
			"type": "function"
		},
		{
			"inputs": [
				{
					"internalType": "uint256",
					"name": "",
					"type": "uint256"
				}
			],
			"name": "packageQualifiedUsers",
			"outputs": [
				{
					"internalType": "uint256",
					"name": "",
					"type": "uint256"
				}
			],
			"stateMutability": "view",
			"type": "function"
		},
		{
			"inputs": [
				{
					"internalType": "uint256",
					"name": "",
					"type": "uint256"
				}
			],
			"name": "packages",
			"outputs": [
				{
					"internalType": "uint256",
					"name": "",
					"type": "uint256"
				}
			],
			"stateMutability": "view",
			"type": "function"
		},
		{
			"inputs": [
				{
					"internalType": "uint256",
					"name": "",
					"type": "uint256"
				}
			],
			"name": "poolPackages",
			"outputs": [
				{
					"internalType": "uint256",
					"name": "",
					"type": "uint256"
				}
			],
			"stateMutability": "view",
			"type": "function"
		},
		{
			"inputs": [
				{
					"internalType": "uint256",
					"name": "",
					"type": "uint256"
				},
				{
					"internalType": "uint256",
					"name": "",
					"type": "uint256"
				}
			],
			"name": "poolUsers",
			"outputs": [
				{
					"internalType": "uint256",
					"name": "",
					"type": "uint256"
				}
			],
			"stateMutability": "view",
			"type": "function"
		},
		{
			"inputs": [
				{
					"internalType": "uint256",
					"name": "",
					"type": "uint256"
				}
			],
			"name": "registeredUserIds",
			"outputs": [
				{
					"internalType": "uint256",
					"name": "",
					"type": "uint256"
				}
			],
			"stateMutability": "view",
			"type": "function"
		},
		{
			"inputs": [],
			"name": "systemMaintance",
			"outputs": [
				{
					"internalType": "address",
					"name": "",
					"type": "address"
				}
			],
			"stateMutability": "view",
			"type": "function"
		},
		{
			"inputs": [],
			"name": "teamDevelopment",
			"outputs": [
				{
					"internalType": "address",
					"name": "",
					"type": "address"
				}
			],
			"stateMutability": "view",
			"type": "function"
		},
		{
			"inputs": [
				{
					"internalType": "uint256",
					"name": "",
					"type": "uint256"
				},
				{
					"internalType": "uint256",
					"name": "",
					"type": "uint256"
				},
				{
					"internalType": "uint256",
					"name": "",
					"type": "uint256"
				}
			],
			"name": "teams",
			"outputs": [
				{
					"internalType": "uint256",
					"name": "",
					"type": "uint256"
				}
			],
			"stateMutability": "view",
			"type": "function"
		},
		{
			"inputs": [
				{
					"internalType": "uint256",
					"name": "",
					"type": "uint256"
				}
			],
			"name": "topRoyaltyQualifiedUsers",
			"outputs": [
				{
					"internalType": "uint256",
					"name": "",
					"type": "uint256"
				}
			],
			"stateMutability": "view",
			"type": "function"
		},
		{
			"inputs": [],
			"name": "topRoyaltyReward",
			"outputs": [
				{
					"internalType": "uint256",
					"name": "",
					"type": "uint256"
				}
			],
			"stateMutability": "view",
			"type": "function"
		},
		{
			"inputs": [],
			"name": "topRoyaltyRound",
			"outputs": [
				{
					"internalType": "uint256",
					"name": "",
					"type": "uint256"
				}
			],
			"stateMutability": "view",
			"type": "function"
		},
		{
			"inputs": [],
			"name": "topRoyaltyStartTime",
			"outputs": [
				{
					"internalType": "uint256",
					"name": "",
					"type": "uint256"
				}
			],
			"stateMutability": "view",
			"type": "function"
		},
		{
			"inputs": [
				{
					"internalType": "uint256",
					"name": "",
					"type": "uint256"
				},
				{
					"internalType": "uint256",
					"name": "",
					"type": "uint256"
				}
			],
			"name": "topRoyaltyUserDirects",
			"outputs": [
				{
					"internalType": "uint256",
					"name": "",
					"type": "uint256"
				}
			],
			"stateMutability": "view",
			"type": "function"
		},
		{
			"inputs": [
				{
					"internalType": "uint256",
					"name": "",
					"type": "uint256"
				}
			],
			"name": "topRoyaltyUserdtl",
			"outputs": [
				{
					"internalType": "uint256",
					"name": "joinTime",
					"type": "uint256"
				},
				{
					"internalType": "uint256",
					"name": "qualifiedRoundId",
					"type": "uint256"
				},
				{
					"internalType": "uint256",
					"name": "claimTime",
					"type": "uint256"
				},
				{
					"internalType": "bool",
					"name": "isQualified",
					"type": "bool"
				}
			],
			"stateMutability": "view",
			"type": "function"
		},
		{
			"inputs": [
				{
					"internalType": "uint256",
					"name": "",
					"type": "uint256"
				}
			],
			"name": "topRoyaltydtl",
			"outputs": [
				{
					"internalType": "uint256",
					"name": "roundId",
					"type": "uint256"
				},
				{
					"internalType": "uint256",
					"name": "totalReward",
					"type": "uint256"
				},
				{
					"internalType": "uint256",
					"name": "totalUsers",
					"type": "uint256"
				},
				{
					"internalType": "uint256",
					"name": "perUserReward",
					"type": "uint256"
				},
				{
					"internalType": "uint256",
					"name": "claimedCount",
					"type": "uint256"
				},
				{
					"internalType": "uint256",
					"name": "startTime",
					"type": "uint256"
				},
				{
					"internalType": "uint256",
					"name": "endTime",
					"type": "uint256"
				},
				{
					"internalType": "uint256",
					"name": "carryForward",
					"type": "uint256"
				},
				{
					"internalType": "bool",
					"name": "closed",
					"type": "bool"
				}
			],
			"stateMutability": "view",
			"type": "function"
		},
		{
			"inputs": [],
			"name": "totalUsers",
			"outputs": [
				{
					"internalType": "uint256",
					"name": "",
					"type": "uint256"
				}
			],
			"stateMutability": "view",
			"type": "function"
		},
		{
			"inputs": [],
			"name": "usdt",
			"outputs": [
				{
					"internalType": "contract IERC20",
					"name": "",
					"type": "address"
				}
			],
			"stateMutability": "view",
			"type": "function"
		},
		{
			"inputs": [
				{
					"internalType": "uint256",
					"name": "",
					"type": "uint256"
				},
				{
					"internalType": "uint256",
					"name": "",
					"type": "uint256"
				},
				{
					"internalType": "uint256",
					"name": "",
					"type": "uint256"
				}
			],
			"name": "userBoosterChildren",
			"outputs": [
				{
					"internalType": "uint256",
					"name": "",
					"type": "uint256"
				}
			],
			"stateMutability": "view",
			"type": "function"
		},
		{
			"inputs": [
				{
					"internalType": "uint256",
					"name": "",
					"type": "uint256"
				},
				{
					"internalType": "uint256",
					"name": "",
					"type": "uint256"
				}
			],
			"name": "userBoosterdtl",
			"outputs": [
				{
					"internalType": "uint256",
					"name": "id",
					"type": "uint256"
				},
				{
					"internalType": "uint256",
					"name": "poolId",
					"type": "uint256"
				},
				{
					"internalType": "uint256",
					"name": "parentId",
					"type": "uint256"
				},
				{
					"internalType": "uint256",
					"name": "bonusCount",
					"type": "uint256"
				},
				{
					"internalType": "uint256",
					"name": "joinTime",
					"type": "uint256"
				}
			],
			"stateMutability": "view",
			"type": "function"
		},
		{
			"inputs": [
				{
					"internalType": "uint256",
					"name": "",
					"type": "uint256"
				},
				{
					"internalType": "uint256",
					"name": "",
					"type": "uint256"
				},
				{
					"internalType": "uint256",
					"name": "",
					"type": "uint256"
				}
			],
			"name": "userChildren",
			"outputs": [
				{
					"internalType": "uint256",
					"name": "",
					"type": "uint256"
				}
			],
			"stateMutability": "view",
			"type": "function"
		},
		{
			"inputs": [
				{
					"internalType": "uint256",
					"name": "",
					"type": "uint256"
				},
				{
					"internalType": "uint256",
					"name": "",
					"type": "uint256"
				}
			],
			"name": "userHasPool",
			"outputs": [
				{
					"internalType": "bool",
					"name": "",
					"type": "bool"
				}
			],
			"stateMutability": "view",
			"type": "function"
		},
		{
			"inputs": [
				{
					"internalType": "uint256",
					"name": "",
					"type": "uint256"
				},
				{
					"internalType": "uint256",
					"name": "",
					"type": "uint256"
				}
			],
			"name": "userHasbooster",
			"outputs": [
				{
					"internalType": "bool",
					"name": "",
					"type": "bool"
				}
			],
			"stateMutability": "view",
			"type": "function"
		},
		{
			"inputs": [
				{
					"internalType": "uint256",
					"name": "",
					"type": "uint256"
				},
				{
					"internalType": "uint256",
					"name": "",
					"type": "uint256"
				},
				{
					"internalType": "uint256",
					"name": "",
					"type": "uint256"
				}
			],
			"name": "userIdPerPool",
			"outputs": [
				{
					"internalType": "uint256",
					"name": "",
					"type": "uint256"
				}
			],
			"stateMutability": "view",
			"type": "function"
		},
		{
			"inputs": [
				{
					"internalType": "uint256",
					"name": "",
					"type": "uint256"
				}
			],
			"name": "userIncomes",
			"outputs": [
				{
					"internalType": "uint256",
					"name": "totalIncome",
					"type": "uint256"
				},
				{
					"internalType": "uint256",
					"name": "sponsorIncome",
					"type": "uint256"
				},
				{
					"internalType": "uint256",
					"name": "matrixIncome",
					"type": "uint256"
				},
				{
					"internalType": "uint256",
					"name": "levelBoosterIncome",
					"type": "uint256"
				},
				{
					"internalType": "uint256",
					"name": "royaltyIncome",
					"type": "uint256"
				},
				{
					"internalType": "uint256",
					"name": "royaltyIncomeClaimed",
					"type": "uint256"
				},
				{
					"internalType": "uint256",
					"name": "communityIncome",
					"type": "uint256"
				},
				{
					"internalType": "uint256",
					"name": "poolIncome",
					"type": "uint256"
				},
				{
					"internalType": "uint256",
					"name": "boosterIncome",
					"type": "uint256"
				},
				{
					"internalType": "uint256",
					"name": "weeklyContestIncome",
					"type": "uint256"
				},
				{
					"internalType": "uint256",
					"name": "monthlyRoyalty",
					"type": "uint256"
				},
				{
					"internalType": "uint256",
					"name": "topRoyalty",
					"type": "uint256"
				}
			],
			"stateMutability": "view",
			"type": "function"
		},
		{
			"inputs": [
				{
					"internalType": "uint256",
					"name": "",
					"type": "uint256"
				},
				{
					"internalType": "uint256",
					"name": "",
					"type": "uint256"
				}
			],
			"name": "userPackage",
			"outputs": [
				{
					"internalType": "uint256",
					"name": "roiCap",
					"type": "uint256"
				},
				{
					"internalType": "uint256",
					"name": "currentIncome",
					"type": "uint256"
				},
				{
					"internalType": "uint256",
					"name": "closingAmount",
					"type": "uint256"
				},
				{
					"internalType": "bool",
					"name": "closed",
					"type": "bool"
				}
			],
			"stateMutability": "view",
			"type": "function"
		},
		{
			"inputs": [
				{
					"internalType": "uint256",
					"name": "",
					"type": "uint256"
				},
				{
					"internalType": "uint256",
					"name": "",
					"type": "uint256"
				}
			],
			"name": "userPooldtl",
			"outputs": [
				{
					"internalType": "uint256",
					"name": "id",
					"type": "uint256"
				},
				{
					"internalType": "uint256",
					"name": "mainid",
					"type": "uint256"
				},
				{
					"internalType": "uint256",
					"name": "poolId",
					"type": "uint256"
				},
				{
					"internalType": "uint256",
					"name": "parentId",
					"type": "uint256"
				},
				{
					"internalType": "uint256",
					"name": "bonusCount",
					"type": "uint256"
				}
			],
			"stateMutability": "view",
			"type": "function"
		},
		{
			"inputs": [
				{
					"internalType": "uint256",
					"name": "",
					"type": "uint256"
				},
				{
					"internalType": "uint256",
					"name": "",
					"type": "uint256"
				}
			],
			"name": "userPooltopup",
			"outputs": [
				{
					"internalType": "uint256",
					"name": "nextPoolAmt",
					"type": "uint256"
				},
				{
					"internalType": "uint256",
					"name": "reTopupAmt",
					"type": "uint256"
				}
			],
			"stateMutability": "view",
			"type": "function"
		},
		{
			"inputs": [
				{
					"internalType": "uint256",
					"name": "",
					"type": "uint256"
				}
			],
			"name": "users",
			"outputs": [
				{
					"internalType": "address",
					"name": "account",
					"type": "address"
				},
				{
					"internalType": "uint256",
					"name": "checkpoint",
					"type": "uint256"
				},
				{
					"internalType": "uint256",
					"name": "id",
					"type": "uint256"
				},
				{
					"internalType": "uint256",
					"name": "sponsorId",
					"type": "uint256"
				},
				{
					"internalType": "uint256",
					"name": "uplineId",
					"type": "uint256"
				},
				{
					"internalType": "uint256",
					"name": "level",
					"type": "uint256"
				},
				{
					"internalType": "uint256",
					"name": "directTeam",
					"type": "uint256"
				},
				{
					"internalType": "uint256",
					"name": "directPoolQualified",
					"type": "uint256"
				},
				{
					"internalType": "uint256",
					"name": "totalMatrixTeam",
					"type": "uint256"
				},
				{
					"internalType": "uint256",
					"name": "totalDeposit",
					"type": "uint256"
				},
				{
					"internalType": "uint256",
					"name": "roiCap",
					"type": "uint256"
				},
				{
					"internalType": "uint256",
					"name": "poollevel",
					"type": "uint256"
				},
				{
					"internalType": "uint256",
					"name": "poolDeposit",
					"type": "uint256"
				},
				{
					"internalType": "uint256",
					"name": "poolStartTime",
					"type": "uint256"
				},
				{
					"internalType": "uint256",
					"name": "boosterlevel",
					"type": "uint256"
				},
				{
					"internalType": "uint256",
					"name": "boosterDeposit",
					"type": "uint256"
				},
				{
					"internalType": "uint256",
					"name": "registrationTime",
					"type": "uint256"
				},
				{
					"internalType": "uint256",
					"name": "level10Time",
					"type": "uint256"
				},
				{
					"internalType": "uint256",
					"name": "level15Time",
					"type": "uint256"
				},
				{
					"internalType": "uint256",
					"name": "monthlyUserDirectCount",
					"type": "uint256"
				},
				{
					"internalType": "uint256",
					"name": "topRoyaltyDirectCount",
					"type": "uint256"
				}
			],
			"stateMutability": "view",
			"type": "function"
		},
		{
			"inputs": [
				{
					"internalType": "uint256",
					"name": "",
					"type": "uint256"
				}
			],
			"name": "weeklyContestdtl",
			"outputs": [
				{
					"internalType": "uint256",
					"name": "roundId",
					"type": "uint256"
				},
				{
					"internalType": "uint256",
					"name": "totalReward",
					"type": "uint256"
				},
				{
					"internalType": "uint256",
					"name": "totalUsers",
					"type": "uint256"
				},
				{
					"internalType": "uint256",
					"name": "perUserReward",
					"type": "uint256"
				},
				{
					"internalType": "uint256",
					"name": "claimedCount",
					"type": "uint256"
				},
				{
					"internalType": "uint256",
					"name": "startTime",
					"type": "uint256"
				},
				{
					"internalType": "uint256",
					"name": "endTime",
					"type": "uint256"
				},
				{
					"internalType": "uint256",
					"name": "carryForward",
					"type": "uint256"
				},
				{
					"internalType": "bool",
					"name": "closed",
					"type": "bool"
				}
			],
			"stateMutability": "view",
			"type": "function"
		},
		{
			"inputs": [
				{
					"internalType": "uint256",
					"name": "",
					"type": "uint256"
				},
				{
					"internalType": "uint256",
					"name": "",
					"type": "uint256"
				}
			],
			"name": "weeklyQualifiedUsers",
			"outputs": [
				{
					"internalType": "uint256",
					"name": "",
					"type": "uint256"
				}
			],
			"stateMutability": "view",
			"type": "function"
		},
		{
			"inputs": [
				{
					"internalType": "uint256",
					"name": "",
					"type": "uint256"
				},
				{
					"internalType": "uint256",
					"name": "",
					"type": "uint256"
				},
				{
					"internalType": "uint256",
					"name": "",
					"type": "uint256"
				}
			],
			"name": "weeklyUserDirects",
			"outputs": [
				{
					"internalType": "uint256",
					"name": "",
					"type": "uint256"
				}
			],
			"stateMutability": "view",
			"type": "function"
		},
		{
			"inputs": [
				{
					"internalType": "uint256",
					"name": "",
					"type": "uint256"
				},
				{
					"internalType": "uint256",
					"name": "",
					"type": "uint256"
				}
			],
			"name": "weeklyUserdtl",
			"outputs": [
				{
					"internalType": "uint256",
					"name": "joinTime",
					"type": "uint256"
				},
				{
					"internalType": "uint256",
					"name": "roundId",
					"type": "uint256"
				},
				{
					"internalType": "uint256",
					"name": "claimTime",
					"type": "uint256"
				},
				{
					"internalType": "bool",
					"name": "isClaimed",
					"type": "bool"
				},
				{
					"internalType": "bool",
					"name": "isQualified",
					"type": "bool"
				}
			],
			"stateMutability": "view",
			"type": "function"
		}
	]
}