{
	"data": {
		"bytecode": {
			"linkReferences": {},
			"object": "60806040523461052b5760015f556040516101e081016001600160401b038111828210176105175760405267d02ab486cedc0000815268015af1d78b58c4000060208201526802b5e3af16b1880000604082015268056bc75e2d631000006060820152680ad78ebc5ac620000060808201526815af1d78b58c40000060a0820152682b5e3af16b1880000060c08201526856bc75e2d63100000060e082015268ad78ebc5ac6200000061010082015269015af1d78b58c40000006101208201526902b5e3af16b18800000061014082015269056bc75e2d6310000000610160820152690ad78ebc5ac6200000006101808201526915af1d78b58c400000006101a0820152692b5e3af16b18800000006101c0820152600d54600f600d5580600f106104c1575b50600d5f5260205f20905f5b600f81106104a45761014161052f565b680410d586a20a4c00008152681043561a8829300000602082015268410d586a20a4c0000060408201526901043561a882930000006060820152690410d586a20a4c0000006080820152691043561a88293000000060a082015269410d586a20a4c000000060c082015260165460076016558060071061044e575b5060165f5260205f20905f5b60078110610431576101d861054e565b68056bc75e2d631000008152680ad78ebc5ac620000060208201526815af1d78b58c4000006040820152682b5e3af16b1880000060608201526856bc75e2d631000000608082015268ad78ebc5ac6200000060a082015269015af1d78b58c400000060c08201526902b5e3af16b18800000060e08201526017546008601755806008106103db575b5060175f5260205f20905f5b600881106103be5761027c61052f565b60038152600560208201526007604082015260096060820152600b6080820152600d60a0820152600f60c08201525f5b600781106103a6576102bc61054e565b6004815260056020820152600660408201526007606082015260086080820152600960a0820152600a60c0820152600b60e08201525f5b6008811061038e5761030361054e565b5f815260016020820152600160408201526001606082015260016080820152600160a0820152600160c0820152600160e08201525f5b60088110610376575f6039555f603a555f603b5560016040555f6041555f60425560016047555f6048555f604955604051612e1290816105858239f35b600190602060ff845116930192816027015501610339565b600190602060ff84511693019281601f0155016102f3565b600190602060ff8451169301928160180155016102ac565b81516001600160501b03168184015560209091019060010161026c565b60175f5261042b907fc624b66cc0138b8fabc209247f72d758e1cf3343756d543badbf24212bed8c15017fc624b66cc0138b8fabc209247f72d758e1cf3343756d543badbf24212bed8c1d61056e565b81610260565b81516001600160501b0316818401556020909101906001016101c8565b60165f5261049e907fd833147d7dc355ba459fc788f669e58cfaf9dc25ddcd0702e87d69c7b5124289017fd833147d7dc355ba459fc788f669e58cfaf9dc25ddcd0702e87d69c7b512429061056e565b816101bc565b81516001600160501b031681840155602090910190600101610131565b600d5f52610511907fd7b6990105719101dabeb77144f2a3385c8033acd3af97e9423a695e81ad1eb5017fd7b6990105719101dabeb77144f2a3385c8033acd3af97e9423a695e81ad1ec461056e565b5f610125565b634e487b7160e01b5f52604160045260245ffd5b5f80fd5b6040519060e082016001600160401b0381118382101761051757604052565b6040519061010082016001600160401b0381118382101761051757604052565b818110610579575050565b5f815560010161056e56fe6101a0806040526004361015610013575f80fd5b5f3560e01c90816254815d146127195750806301c234a8146126fd57806304f18ced146126ac578063056b4d1f1461264c5780630676d0d6146126225780630a5c5d69146125f35780630b3c4371146125a25780630b3f58eb146125395780630ef81b74146125005780630f2b7cc9146124d157806318847cf01461249a5780631cbc203a146124365780632132d2041461240a5780632350268f146123b057806323fd338e146118485780632571781c146122745780632a891534146122575780632ae0ee0d14611e675780632d5aca46146121c95780632d66014f1461216f5780632d7ce320146120be5780632f48ab7d146120965780633080b5bc1461207957806331bb6a301461205e57806332bc298c1461204157806332fcd9661461201f578063365b98b214611e6c578063375b43b414611e6757806339ab360314611e0d5780633a5084b314611df05780633bd990ac14611d875780634036436c14611d2857806343ee4bd914611cc757806345cb537c14611c9d57806346b9dece14611bf85780634b8cbf9b14611bdb5780634d12ae0f14611bac5780634d4cc5ca14611b735780634eb5424014611b055780635227cc141461184d57806358c7d352146118485780635aabf7f11461180f5780635b58ce6c146117a75780635b62d1d51461178a5780635cf3fa1b1461173a5780635ec64a441461170b5780636a424782146116ab578063705fee2d1461168d57806370c8d7701461161857806376f5f700146115fb57806378f6ad6d146115de5780637cdc65f2146115b657806382601f961461143757806388afbe3e14610e7257806389043ece146114085780638d58644c146113cf5780638f030ece14611396578063907c84a71461132b578063956a3228146112ff5780639b40ab97146112e25780639c383486146112ae5780639c8fe9931461124a578063a59d17d11461122d578063a5de878814611067578063a5e52b991461104a578063aaa359c214610e9c578063aac6b12114610e72578063ae4708dc14610e18578063bb6a611514610cb7578063bd1aae4014610c83578063be4eb94e14610c1a578063bf72467214610be2578063bf8058b114610a7f578063bff1f9e114610a62578063c216212a14610a39578063c4eb42a5146109d9578063c592a97c1461095c578063c7bb62e81461092d578063c8df290814610909578063c9ed0708146108ec578063ca8e9121146108cf578063cb0e0d7d14610893578063ce79c2c314610828578063d0a2fd79146107fc578063d2f0490d146107e1578063d379dadf14610762578063db27cc7114610703578063e191996c146106a2578063e898fc3814610685578063e9e34a161461065d578063ebe0ff151461063a578063ec597e6f1461061d578063f5748c4f146105af578063f5d74d9314610587578063f7a2480614610549578063f7e87e90146104d5578063fb67693c146104735763fddc806f14610452575f80fd5b3461046f575f36600319011261046f576020603a54604051908152f35b5f80fd5b3461046f5761048136612788565b905f602060405161049181612a54565b82815201525f52602f60205260405f20905f526020526040805f2081516104b781612a54565b60206001835493848452015491019081528251918252516020820152f35b3461046f576104fb6104e636612788565b9190604054811115908161053f575b50612b0e565b5f908152604560209081526040918290208054600182015460028301546004909301548551928352938201529283015260ff161515606082015280608081015b0390f35b90501515836104f5565b3461046f5761055736612788565b905f52604660205260405f20805482101561046f57602091610578916127f6565b90549060031b1c604051908152f35b3461046f575f36600319011261046f576004546040516001600160a01b039091168152602090f35b3461046f57602036600319011261046f57600435604b5481101561046f57604b5481101561060957604b5f527f17b0af156a929edf60c351f3df2d53ed643fdd750aef9eda90dc7c8759a104a80154604051908152602090f35b634e487b7160e01b5f52603260045260245ffd5b3461046f575f36600319011261046f576020600554604051908152f35b3461046f575f36600319011261046f576020604051683635c9adc5dea000008152f35b3461046f575f36600319011261046f576003546040516001600160a01b039091168152602090f35b3461046f575f36600319011261046f576020604154604051908152f35b3461046f576106b036612788565b805f52604c60205281600160405f2001541015806106fa575b6106d290612d01565b5f52604c602052600360405f2001905f52602052602060ff60405f2054166040519015158152f35b508115156106c9565b3461046f57602036600319011261046f576004355f52604c60205260405f20805461053b60018301549260ff60046002830154920154169060405194859485926060929594919560808501968552602085015260408401521515910152565b3461046f57602036600319011261046f576004355f52601060205261010060405f2060018060a01b038154169060038101549060048101546005820154600683015490600784015492600a600986015495015495604051978852602088015260408701526060860152608085015260a084015260c083015260e0820152f35b3461046f575f36600319011261046f57602060405160058152f35b3461046f57602036600319011261046f57600435600881101561046f57602090601f0154604051908152f35b3461046f5761083636612788565b905f52603060205260405f20905f5260205260405f20805461053b6001830154926002810154906004600382015491015491604051958695869192608093969594919660a084019784526020840152604083015260608201520152565b3461046f57602036600319011261046f576004356001600160a01b0381169081900361046f575f52600f602052602060405f2054604051908152f35b3461046f575f36600319011261046f576020603954604051908152f35b3461046f575f36600319011261046f576020604054604051908152f35b3461046f575f36600319011261046f57602060405169021e19e0c9bab24000008152f35b3461046f5761093b36612788565b905f52603760205260405f20805482101561046f57602091610578916127f6565b3461046f5761096a36612788565b905f52603f60205260405f20905f5260205260405f206040519081602082549182815201915f5260205f20905f5b8181106109c35761053b856109af81870382612aa9565b60405191829160208352602083019061280b565b8254845260209093019260019283019201610998565b3461046f57602036600319011261046f576004355f52603c60205260405f20805461053b6001830154926002810154906003810154600482015460058301549060068401549260ff600860078701549601541695604051998a998a61279e565b3461046f57602036600319011261046f57600435600d5481101561046f576105786020916127de565b3461046f575f36600319011261046f576020600654604051908152f35b3461046f57602036600319011261046f575f610160604051610aa081612a37565b8281528260208201528260408201528260608201528260808201528260a08201528260c08201528260e082015282610100820152826101208201528261014082015201526004355f52601160205261018060405f20604051610b0181612a37565b8082549283825260018101546020830190815260028201546040840190815260038301546060850190815260048401546080860190815260058501549060a0870191825260068601549260c0880193845260078701549460e089019586526008880154966101008a01978852610160600b60098b01549a6101208d019b8c52610140600a8201549d019c8d5201549b019a8b526040519b8c525160208c01525160408b01525160608a01525160808901525160a08801525160c08701525160e086015251610100850152516101208401525161014083015251610160820152f35b3461046f57610bf036612788565b905f52602f60205260405f20905f526020526040805f206001815491015482519182526020820152f35b3461046f57610c2836612788565b905f52603660205260405f20905f5260205260405f206040519081602082549182815201915f5260205f20905f5b818110610c6d5761053b856109af81870382612aa9565b8254845260209093019260019283019201610c56565b3461046f57610c9136612788565b905f52603460205260405f20905f52602052602060ff60405f2054166040519015158152f35b3461046f57602036600319011261046f57604051600435610200610cdb8184612aa9565b600f8352601f19015f5b818110610e075750505f5b600f8110610d8a57826040518091602082016020835281518091526040830190602060408260051b8601019301915f905b828210610d3057505050500390f35b919390929450603f19868203018252845190602080835192838152019201905f905b808210610d72575050506020806001929601920192018594939192610d21565b90919260208060019286518152019401920190610d52565b815f52601360205260405f20815f5260205260405f206040519081602082549182815201915f5260205f20905f905b808210610def5750505090610dd381600194930382612aa9565b610ddd8286612ca9565b52610de88185612ca9565b5001610cf0565b90919260016020819286548152019401920190610db9565b806060602080938701015201610ce5565b3461046f57602036600319011261046f5760043560165481101561046f576016548110156106095760165f527fd833147d7dc355ba459fc788f669e58cfaf9dc25ddcd0702e87d69c7b51242890154604051908152602090f35b3461046f57602036600319011261046f576004355f526014602052602060405f2054604051908152f35b3461046f57602036600319011261046f57610eb5612d3d565b506004355f52601060205260405f20604051610ed0816129ea565b81546001600160a01b03168152600182018054610eec81612c22565b91610efa6040519384612aa9565b81835260208301905f5260205f205f915b8383106110065761053b86601589886020840152600281015460408401526003810154606084015260048101546080840152600581015460a0840152600681015460c0840152600781015460e084015260088101546101008401526009810154610120840152600a810154610140840152600b810154610160840152600c810154610180840152600d8101546101a0840152600e8101546101c0840152600f8101546101e08401526010810154610200840152601181015461022084015260128101546102408401526013810154610260840152601481015461028084015201546102a082015260405191829160208352602083019061288e565b6004602060019260405161101981612a1b565b8554815284860154838201526002860154604082015260ff6003870154166060820152815201920192019190610f0b565b3461046f575f36600319011261046f5760206040516283d6008152f35b3461046f57602036600319011261046f576004355f52601560205260405f20604051808260208294549384815201905f5260205f20925f5b8181106112145750506110b492500382612aa9565b8051906110c082612c3a565b906110ca83612c22565b926110d86040519485612aa9565b8084526110e481612c22565b602085019490601f19013686376110fa82612c3a565b9061110483612c3a565b9261110e81612c3a565b945f5b8281106111a25750505060206111326040519660a0885260a088019061280b565b918683038288015251918281520195905f5b81811061118357868061053b88611175896111678e8b878203604089015261280b565b90858203606087015261280b565b90838203608085015261280b565b82516001600160a01b0316885260209788019790920191600101611144565b806111af60019284612ca9565b515f526010602052601160405f2060038101546111cc848d612ca9565b52838060a01b038154166111e08489612ca9565b5260068101546111f0848a612ca9565b52600a810154611200848b612ca9565b52015461120d828a612ca9565b5201611111565b845483526001948501948694506020909301920161109f565b3461046f575f36600319011261046f576020604254604051908152f35b3461046f57602036600319011261046f576004355f52604660205260405f206040519081602082549182815201915f5260205f20905f5b8181106112985761053b856109af81870382612aa9565b8254845260209093019260019283019201611281565b3461046f576112bc36612788565b905f52603860205260405f20905f52602052602060ff60405f2054166040519015158152f35b3461046f575f36600319011261046f576020604854604051908152f35b3461046f57602036600319011261046f57600435600881101561046f5760209060270154604051908152f35b3461046f5761133936612788565b905f52603560205260405f20905f5260205260405f20805461053b6001830154926002810154906004600382015491015491604051958695869192608093969594919660a084019784526020840152604083015260608201520152565b3461046f576113a43661283e565b915f52603160205260405f20905f5260205260405f20805482101561046f57602091610578916127f6565b3461046f576113dd3661283e565b915f52603260205260405f20905f5260205260405f20805482101561046f57602091610578916127f6565b3461046f5761141636612788565b905f52600b60205260405f20905f52602052602060405f2054604051908152f35b3461046f57602036600319011261046f57600435805f52601060205260405f20600381015415611580576006015461146e81612c22565b9161147c6040519384612aa9565b818352601f1961148b83612c22565b015f5b8181106115695750505f5b82811061151c57836040518091602082016020835281518091526020604084019201905f5b8181106114cc575050500390f35b91935091602060a08261150e60019488516080809180518452602081015160208501526040810151604085015260608101511515606085015201511515910152565b0194019101918493926114be565b806115286001926127de565b90549060031b1c835f52600e60205260405f20905f5260205261154d60405f20612cbd565b6115578287612ca9565b526115628186612ca9565b5001611499565b602090611574612bbc565b8282880101520161148e565b60405162461bcd60e51b815260206004820152600e60248201526d155cd95c881b9bdd08199bdd5b9960921b6044820152606490fd5b3461046f575f36600319011261046f576002546040516001600160a01b039091168152602090f35b3461046f575f36600319011261046f576020600954604051908152f35b3461046f575f36600319011261046f57602060405162093a808152f35b3461046f5761162636612788565b905f52601260205260405f20805482101561046f575f52600560205f20910201805461053b6001830154926002810154906004600382015491015491604051958695869192608093969594919660a084019784526020840152604083015260608201520152565b3461046f575f36600319011261046f57602060405163025143008152f35b3461046f57602036600319011261046f576004355f52604360205260405f20805461053b6001830154926002810154906003810154600482015460058301549060068401549260ff600860078701549601541695604051998a998a61279e565b3461046f5761171936612788565b905f52601560205260405f20805482101561046f57602091610578916127f6565b3461046f5761174b6104e636612788565b5f908152604c60209081526040918290208054600182015460028301546004909301548551928352938201529283015260ff1615156060820152608090f35b3461046f575f36600319011261046f576020604954604051908152f35b3461046f576117b536612788565b5f918252600e60209081526040808420928452918152918190208054600182015460028301546003909301548451928352948201529182015260ff8083161515606083015260089290921c9091161515608082015260a090f35b3461046f5761181d3661283e565b915f52601360205260405f20905f5260205260405f20805482101561046f57602091610578916127f6565b612858565b3461046f5761185b36612788565b815f52601360205260405f20815f5260205260405f205461187b81612c22565b906118896040519283612aa9565b808252611898601f1991612c22565b015f5b818110611aee5750505f5b835f52601360205260405f20835f5260205260405f2054811015611a8757835f52601360205260405f20835f526020526118e38160405f206127f6565b90549060031b1c5f52601060205260405f2060405190611902826129ea565b80546001600160a01b0316825260018101805461191e81612c22565b9161192c6040519384612aa9565b81835260208301905f5260205f20905f905b838210611a4357505050506020830152600281015460408301526003810154606083015260048101546080830152600581015460a0830152600681015460c0830152600781015460e083015260088101546101008301526009810154610120830152600a810154610140830152600b810154610160830152600c810154610180830152600d8101546101a0830152600e8101546101c0830152600f8101546101e083015260108101546102008301526011810154610220830152601281015461024083015260138101546102608301526014810154610280830152601501546102a082015260019190611a318285612ca9565b52611a3c8184612ca9565b50016118a6565b60046020600192604051611a5681612a1b565b8654815284870154838201526002870154604082015260ff600388015416606082015281520193019101909161193e565b506040518091602082016020835281518091526040830190602060408260051b8601019301915f905b828210611abf57505050500390f35b91936001919395506020611ade8192603f198a8203018652885161288e565b9601920192018594939192611ab0565b602090611af9612d3d565b8282860101520161189b565b3461046f57611b1336612788565b90611b1c612bbc565b505f52603060205260405f20905f5260205260a0611b3c60405f20612be6565b611b71604051809260808091805184526020810151602085015260408101516040850152606081015160608501520151910152565bf35b3461046f57611b813661283e565b915f52603f60205260405f20905f5260205260405f20805482101561046f57602091610578916127f6565b3461046f57611bba36612788565b905f52604d60205260405f20805482101561046f57602091610578916127f6565b3461046f575f36600319011261046f576020604754604051908152f35b3461046f57602036600319011261046f576004355f52601160205261018060405f208054906001810154906002810154600382015460048301546005840154600685015490600786015492600887015494600988015496600b600a8a0154990154996040519b8c5260208c015260408b015260608a0152608089015260a088015260c087015260e0860152610100850152610120840152610140830152610160820152f35b3461046f57602036600319011261046f576004355f52600a602052602060405f2054604051908152f35b3461046f57611cd536612788565b805f52604560205281600160405f200154101580611d1f575b611cf790612d01565b5f526045602052600360405f2001905f52602052602060ff60405f2054166040519015158152f35b50811515611cee565b3461046f57602036600319011261046f576004355f52604560205260405f20805461053b60018301549260ff60046002830154920154169060405194859485926060929594919560808501968552602085015260408401521515910152565b3461046f57611d9536612788565b905f52603260205260405f20905f5260205260405f206040519081602082549182815201915f5260205f20905f5b818110611dda5761053b856109af81870382612aa9565b8254845260209093019260019283019201611dc3565b3461046f575f36600319011261046f5760206040516202a3008152f35b3461046f57602036600319011261046f5760043560075481101561046f576007548110156106095760075f527fa66cc928b5edb82af9bd49922954155ab7b0942694bea4ce44661d9a8736c6880154604051908152602090f35b612873565b3461046f57602036600319011261046f576004355f52601060205260405f206101805260018060a01b03610180515416600261018051015461010052600361018051015461014052600461018051015460056101805101546006610180510154600761018051015460086101805101546009610180510154600a61018051015490600b61018051015492600c61018051015494600d61018051015496600e61018051015498600f6101805101549a60106101805101549c6011610180510154608052601261018051015460c052601361018051015461016052601461018051015461012052601561018051015460e05260405160a05260a0515261010051602060a051015261014051604060a0510152606060a0510152608060a051015260a08051015260c060a051015260e060a051015261010060a051015261012060a051015261014060a051015261016060a051015261018060a05101526101a060a05101526101c060a05101526101e060a051015260805161020060a051015260c05161022060a05101526101605161024060a05101526101205161026060a051015260e05161028060a05101526102a060a051f35b3461046f575f36600319011261046f576020604051670de0b6b3a76400008152f35b3461046f575f36600319011261046f576020604051620151808152f35b3461046f575f36600319011261046f57602060405160028152f35b3461046f575f36600319011261046f576020603b54604051908152f35b3461046f575f36600319011261046f576001546040516001600160a01b039091168152602090f35b3461046f57602036600319011261046f576004356120da612acb565b5060405481111580612166575b6120f090612b0e565b5f52604360205261012061210660405f20612b52565b611b7160405180926101008091805184526020810151602085015260408101516040850152606081015160608501526080810151608085015260a081015160a085015260c081015160c085015260e081015160e085015201511515910152565b508015156120e7565b3461046f57602036600319011261046f5760043560445481101561046f576044548110156106095760445f527f9b22d3d61959b4d3528b1d8ba932c96fbe302b36a1aad1d95cab54f9e0a135ea0154604051908152602090f35b3461046f576121d736612788565b906121e0612bbc565b506039548111158061224e575b6121f690612b0e565b5f52603e60205260405f20905f5260205260a061221560405f20612cbd565b611b7160405180926080809180518452602081015160208501526040810151604085015260608101511515606085015201511515910152565b508015156121ed565b3461046f575f36600319011261046f57602060405162278d008152f35b3461046f575f36600319011261046f5761239460405161229560a082612aa9565b6004815261053b6080803660208501376123a26040516122b660a082612aa9565b6004815282366020830137604051926122d060a085612aa9565b60048452366020850137603954806122e787612c6c565b52603b546122f487612c79565b525f52603d60205260405f205461230a86612c89565b52603a5461231786612c99565b5260405461232482612c6c565b5260425461233182612c79565b5260445461233e82612c89565b5260415461234b82612c99565b5260475461235884612c6c565b5260495461236584612c79565b52604b5461237284612c89565b5260485461237f84612c99565b5260405195869560608752606087019061280b565b90858203602087015261280b565b90838203604085015261280b565b3461046f57602036600319011261046f5760043560175481101561046f576017548110156106095760175f527fc624b66cc0138b8fabc209247f72d758e1cf3343756d543badbf24212bed8c150154604051908152602090f35b3461046f57602036600319011261046f57600435600781101561046f5760209060180154604051908152f35b3461046f57602036600319011261046f576004355f52604d60205260405f206040519081602082549182815201915f5260205f20905f5b8181106124845761053b856109af81870382612aa9565b825484526020909301926001928301920161246d565b3461046f576124a836612788565b906124b1612bbc565b505f52603560205260405f20905f5260205260a0611b3c60405f20612be6565b3461046f576124df36612788565b905f52603360205260405f20805482101561046f57602091610578916127f6565b3461046f5761250e3661283e565b915f52603660205260405f20905f5260205260405f20805482101561046f57602091610578916127f6565b3461046f5761254736612788565b905f52603160205260405f20905f5260205260405f206040519081602082549182815201915f5260205f20905f5b81811061258c5761053b856109af81870382612aa9565b8254845260209093019260019283019201612575565b3461046f57602036600319011261046f576004356125be612acb565b50604754811115806125ea575b6125d490612b0e565b5f52604a60205261012061210660405f20612b52565b508015156125cb565b3461046f5761260136612788565b905f52603d60205260405f20805482101561046f57602091610578916127f6565b3461046f57602036600319011261046f576004355f52600c602052602060405f2054604051908152f35b3461046f57602036600319011261046f576004355f52604a60205260405f20805461053b6001830154926002810154906003810154600482015460058301549060068401549260ff600860078701549601541695604051998a998a61279e565b3461046f57602036600319011261046f576004356126c8612acb565b50603954811115806126f4575b6126de90612b0e565b5f52603c60205261012061210660405f20612b52565b508015156126d5565b3461046f575f36600319011261046f5760206040516127108152f35b3461046f5761272736612788565b905f52603e60205260405f20905f526020528061053b60405f208054600182015491600360028201549101549260ff808560081c169416928693909594919260809360a0860197865260208601526040850152151560608401521515910152565b604090600319011261046f576004359060243590565b979491926101009794919a9996936101208a019b8a5260208a015260408901526060880152608087015260a086015260c085015260e08401521515910152565b600d5481101561060957600d5f5260205f2001905f90565b8054821015610609575f5260205f2001905f90565b90602080835192838152019201905f5b8181106128285750505090565b825184526020938401939092019160010161281b565b606090600319011261046f57600435906024359060443590565b3461046f575f36600319011261046f576020604051600a8152f35b3461046f575f36600319011261046f576020604051600f8152f35b906102c081019160018060a01b0381511682526020810151926102c06020840152835180915260206102e084019401905f5b8181106129af575050506102a0816040829301516040850152606081015160608501526080810151608085015260a081015160a085015260c081015160c085015260e081015160e08501526101008101516101008501526101208101516101208501526101408101516101408501526101608101516101608501526101808101516101808501526101a08101516101a08501526101c08101516101c08501526101e08101516101e0850152610200810151610200850152610220810151610220850152610240810151610240850152610260810151610260850152610280810151610280850152015191015290565b9091946020608060019260ff60608a5180518452858101518685015260408101516040850152015116606082015201960191019190916128c0565b6102c0810190811067ffffffffffffffff821117612a0757604052565b634e487b7160e01b5f52604160045260245ffd5b6080810190811067ffffffffffffffff821117612a0757604052565b610180810190811067ffffffffffffffff821117612a0757604052565b6040810190811067ffffffffffffffff821117612a0757604052565b610120810190811067ffffffffffffffff821117612a0757604052565b60a0810190811067ffffffffffffffff821117612a0757604052565b90601f8019910116810190811067ffffffffffffffff821117612a0757604052565b60405190612ad882612a70565b5f610100838281528260208201528260408201528260608201528260808201528260a08201528260c08201528260e08201520152565b15612b1557565b60405162461bcd60e51b8152602060048201526015602482015274125b9d985b1a59081bdc881b9bdd0818db1bdcd959605a1b6044820152606490fd5b90604051612b5f81612a70565b61010060ff600883958054855260018101546020860152600281015460408601526003810154606086015260048101546080860152600581015460a0860152600681015460c0860152600781015460e08601520154161515910152565b60405190612bc982612a8d565b5f6080838281528260208201528260408201528260608201520152565b90604051612bf381612a8d565b608060048294805484526001810154602085015260028101546040850152600381015460608501520154910152565b67ffffffffffffffff8111612a075760051b60200190565b90612c4482612c22565b612c516040519182612aa9565b8281528092612c62601f1991612c22565b0190602036910137565b8051156106095760200190565b8051600110156106095760400190565b8051600210156106095760600190565b8051600310156106095760800190565b80518210156106095760209160051b010190565b90604051612cca81612a8d565b608060ff6003839580548552600181015460208601526002810154604086015201548181161515606085015260081c161515910152565b15612d0857565b60405162461bcd60e51b815260206004820152600d60248201526c139bdd081c5d585b1a599a5959609a1b6044820152606490fd5b60405190612d4a826129ea565b5f6102a083828152606060208201528260408201528260608201528260808201528260a08201528260c08201528260e08201528261010082015282610120820152826101408201528261016082015282610180820152826101a0820152826101c0820152826101e08201528261020082015282610220820152826102408201528261026082015282610280820152015256fea26469706673582212200e6ec09d3ccd4eb9a64d4d46ab7771f22f389469fbe2334d59f5c5ace741c2fc64736f6c634300081e0033",
			"opcodes": "PUSH1 0x80 PUSH1 0x40 MSTORE CALLVALUE PUSH2 0x52B JUMPI PUSH1 0x1 PUSH0 SSTORE PUSH1 0x40 MLOAD PUSH2 0x1E0 DUP2 ADD PUSH1 0x1 PUSH1 0x1 PUSH1 0x40 SHL SUB DUP2 GT DUP3 DUP3 LT OR PUSH2 0x517 JUMPI PUSH1 0x40 MSTORE PUSH8 0xD02AB486CEDC0000 DUP2 MSTORE PUSH9 0x15AF1D78B58C40000 PUSH1 0x20 DUP3 ADD MSTORE PUSH9 0x2B5E3AF16B1880000 PUSH1 0x40 DUP3 ADD MSTORE PUSH9 0x56BC75E2D63100000 PUSH1 0x60 DUP3 ADD MSTORE PUSH9 0xAD78EBC5AC6200000 PUSH1 0x80 DUP3 ADD MSTORE PUSH9 0x15AF1D78B58C400000 PUSH1 0xA0 DUP3 ADD MSTORE PUSH9 0x2B5E3AF16B18800000 PUSH1 0xC0 DUP3 ADD MSTORE PUSH9 0x56BC75E2D631000000 PUSH1 0xE0 DUP3 ADD MSTORE PUSH9 0xAD78EBC5AC62000000 PUSH2 0x100 DUP3 ADD MSTORE PUSH10 0x15AF1D78B58C4000000 PUSH2 0x120 DUP3 ADD MSTORE PUSH10 0x2B5E3AF16B188000000 PUSH2 0x140 DUP3 ADD MSTORE PUSH10 0x56BC75E2D6310000000 PUSH2 0x160 DUP3 ADD MSTORE PUSH10 0xAD78EBC5AC620000000 PUSH2 0x180 DUP3 ADD MSTORE PUSH10 0x15AF1D78B58C40000000 PUSH2 0x1A0 DUP3 ADD MSTORE PUSH10 0x2B5E3AF16B1880000000 PUSH2 0x1C0 DUP3 ADD MSTORE PUSH1 0xD SLOAD PUSH1 0xF PUSH1 0xD SSTORE DUP1 PUSH1 0xF LT PUSH2 0x4C1 JUMPI JUMPDEST POP PUSH1 0xD PUSH0 MSTORE PUSH1 0x20 PUSH0 KECCAK256 SWAP1 PUSH0 JUMPDEST PUSH1 0xF DUP2 LT PUSH2 0x4A4 JUMPI PUSH2 0x141 PUSH2 0x52F JUMP JUMPDEST PUSH9 0x410D586A20A4C0000 DUP2 MSTORE PUSH9 0x1043561A8829300000 PUSH1 0x20 DUP3 ADD MSTORE PUSH9 0x410D586A20A4C00000 PUSH1 0x40 DUP3 ADD MSTORE PUSH10 0x1043561A88293000000 PUSH1 0x60 DUP3 ADD MSTORE PUSH10 0x410D586A20A4C000000 PUSH1 0x80 DUP3 ADD MSTORE PUSH10 0x1043561A882930000000 PUSH1 0xA0 DUP3 ADD MSTORE PUSH10 0x410D586A20A4C0000000 PUSH1 0xC0 DUP3 ADD MSTORE PUSH1 0x16 SLOAD PUSH1 0x7 PUSH1 0x16 SSTORE DUP1 PUSH1 0x7 LT PUSH2 0x44E JUMPI JUMPDEST POP PUSH1 0x16 PUSH0 MSTORE PUSH1 0x20 PUSH0 KECCAK256 SWAP1 PUSH0 JUMPDEST PUSH1 0x7 DUP2 LT PUSH2 0x431 JUMPI PUSH2 0x1D8 PUSH2 0x54E JUMP JUMPDEST PUSH9 0x56BC75E2D63100000 DUP2 MSTORE PUSH9 0xAD78EBC5AC6200000 PUSH1 0x20 DUP3 ADD MSTORE PUSH9 0x15AF1D78B58C400000 PUSH1 0x40 DUP3 ADD MSTORE PUSH9 0x2B5E3AF16B18800000 PUSH1 0x60 DUP3 ADD MSTORE PUSH9 0x56BC75E2D631000000 PUSH1 0x80 DUP3 ADD MSTORE PUSH9 0xAD78EBC5AC62000000 PUSH1 0xA0 DUP3 ADD MSTORE PUSH10 0x15AF1D78B58C4000000 PUSH1 0xC0 DUP3 ADD MSTORE PUSH10 0x2B5E3AF16B188000000 PUSH1 0xE0 DUP3 ADD MSTORE PUSH1 0x17 SLOAD PUSH1 0x8 PUSH1 0x17 SSTORE DUP1 PUSH1 0x8 LT PUSH2 0x3DB JUMPI JUMPDEST POP PUSH1 0x17 PUSH0 MSTORE PUSH1 0x20 PUSH0 KECCAK256 SWAP1 PUSH0 JUMPDEST PUSH1 0x8 DUP2 LT PUSH2 0x3BE JUMPI PUSH2 0x27C PUSH2 0x52F JUMP JUMPDEST PUSH1 0x3 DUP2 MSTORE PUSH1 0x5 PUSH1 0x20 DUP3 ADD MSTORE PUSH1 0x7 PUSH1 0x40 DUP3 ADD MSTORE PUSH1 0x9 PUSH1 0x60 DUP3 ADD MSTORE PUSH1 0xB PUSH1 0x80 DUP3 ADD MSTORE PUSH1 0xD PUSH1 0xA0 DUP3 ADD MSTORE PUSH1 0xF PUSH1 0xC0 DUP3 ADD MSTORE PUSH0 JUMPDEST PUSH1 0x7 DUP2 LT PUSH2 0x3A6 JUMPI PUSH2 0x2BC PUSH2 0x54E JUMP JUMPDEST PUSH1 0x4 DUP2 MSTORE PUSH1 0x5 PUSH1 0x20 DUP3 ADD MSTORE PUSH1 0x6 PUSH1 0x40 DUP3 ADD MSTORE PUSH1 0x7 PUSH1 0x60 DUP3 ADD MSTORE PUSH1 0x8 PUSH1 0x80 DUP3 ADD MSTORE PUSH1 0x9 PUSH1 0xA0 DUP3 ADD MSTORE PUSH1 0xA PUSH1 0xC0 DUP3 ADD MSTORE PUSH1 0xB PUSH1 0xE0 DUP3 ADD MSTORE PUSH0 JUMPDEST PUSH1 0x8 DUP2 LT PUSH2 0x38E JUMPI PUSH2 0x303 PUSH2 0x54E JUMP JUMPDEST PUSH0 DUP2 MSTORE PUSH1 0x1 PUSH1 0x20 DUP3 ADD MSTORE PUSH1 0x1 PUSH1 0x40 DUP3 ADD MSTORE PUSH1 0x1 PUSH1 0x60 DUP3 ADD MSTORE PUSH1 0x1 PUSH1 0x80 DUP3 ADD MSTORE PUSH1 0x1 PUSH1 0xA0 DUP3 ADD MSTORE PUSH1 0x1 PUSH1 0xC0 DUP3 ADD MSTORE PUSH1 0x1 PUSH1 0xE0 DUP3 ADD MSTORE PUSH0 JUMPDEST PUSH1 0x8 DUP2 LT PUSH2 0x376 JUMPI PUSH0 PUSH1 0x39 SSTORE PUSH0 PUSH1 0x3A SSTORE PUSH0 PUSH1 0x3B SSTORE PUSH1 0x1 PUSH1 0x40 SSTORE PUSH0 PUSH1 0x41 SSTORE PUSH0 PUSH1 0x42 SSTORE PUSH1 0x1 PUSH1 0x47 SSTORE PUSH0 PUSH1 0x48 SSTORE PUSH0 PUSH1 0x49 SSTORE PUSH1 0x40 MLOAD PUSH2 0x2E12 SWAP1 DUP2 PUSH2 0x585 DUP3 CODECOPY RETURN JUMPDEST PUSH1 0x1 SWAP1 PUSH1 0x20 PUSH1 0xFF DUP5 MLOAD AND SWAP4 ADD SWAP3 DUP2 PUSH1 0x27 ADD SSTORE ADD PUSH2 0x339 JUMP JUMPDEST PUSH1 0x1 SWAP1 PUSH1 0x20 PUSH1 0xFF DUP5 MLOAD AND SWAP4 ADD SWAP3 DUP2 PUSH1 0x1F ADD SSTORE ADD PUSH2 0x2F3 JUMP JUMPDEST PUSH1 0x1 SWAP1 PUSH1 0x20 PUSH1 0xFF DUP5 MLOAD AND SWAP4 ADD SWAP3 DUP2 PUSH1 0x18 ADD SSTORE ADD PUSH2 0x2AC JUMP JUMPDEST DUP2 MLOAD PUSH1 0x1 PUSH1 0x1 PUSH1 0x50 SHL SUB AND DUP2 DUP5 ADD SSTORE PUSH1 0x20 SWAP1 SWAP2 ADD SWAP1 PUSH1 0x1 ADD PUSH2 0x26C JUMP JUMPDEST PUSH1 0x17 PUSH0 MSTORE PUSH2 0x42B SWAP1 PUSH32 0xC624B66CC0138B8FABC209247F72D758E1CF3343756D543BADBF24212BED8C15 ADD PUSH32 0xC624B66CC0138B8FABC209247F72D758E1CF3343756D543BADBF24212BED8C1D PUSH2 0x56E JUMP JUMPDEST DUP2 PUSH2 0x260 JUMP JUMPDEST DUP2 MLOAD PUSH1 0x1 PUSH1 0x1 PUSH1 0x50 SHL SUB AND DUP2 DUP5 ADD SSTORE PUSH1 0x20 SWAP1 SWAP2 ADD SWAP1 PUSH1 0x1 ADD PUSH2 0x1C8 JUMP JUMPDEST PUSH1 0x16 PUSH0 MSTORE PUSH2 0x49E SWAP1 PUSH32 0xD833147D7DC355BA459FC788F669E58CFAF9DC25DDCD0702E87D69C7B5124289 ADD PUSH32 0xD833147D7DC355BA459FC788F669E58CFAF9DC25DDCD0702E87D69C7B5124290 PUSH2 0x56E JUMP JUMPDEST DUP2 PUSH2 0x1BC JUMP JUMPDEST DUP2 MLOAD PUSH1 0x1 PUSH1 0x1 PUSH1 0x50 SHL SUB AND DUP2 DUP5 ADD SSTORE PUSH1 0x20 SWAP1 SWAP2 ADD SWAP1 PUSH1 0x1 ADD PUSH2 0x131 JUMP JUMPDEST PUSH1 0xD PUSH0 MSTORE PUSH2 0x511 SWAP1 PUSH32 0xD7B6990105719101DABEB77144F2A3385C8033ACD3AF97E9423A695E81AD1EB5 ADD PUSH32 0xD7B6990105719101DABEB77144F2A3385C8033ACD3AF97E9423A695E81AD1EC4 PUSH2 0x56E JUMP JUMPDEST PUSH0 PUSH2 0x125 JUMP JUMPDEST PUSH4 0x4E487B71 PUSH1 0xE0 SHL PUSH0 MSTORE PUSH1 0x41 PUSH1 0x4 MSTORE PUSH1 0x24 PUSH0 REVERT JUMPDEST PUSH0 DUP1 REVERT JUMPDEST PUSH1 0x40 MLOAD SWAP1 PUSH1 0xE0 DUP3 ADD PUSH1 0x1 PUSH1 0x1 PUSH1 0x40 SHL SUB DUP2 GT DUP4 DUP3 LT OR PUSH2 0x517 JUMPI PUSH1 0x40 MSTORE JUMP JUMPDEST PUSH1 0x40 MLOAD SWAP1 PUSH2 0x100 DUP3 ADD PUSH1 0x1 PUSH1 0x1 PUSH1 0x40 SHL SUB DUP2 GT DUP4 DUP3 LT OR PUSH2 0x517 JUMPI PUSH1 0x40 MSTORE JUMP JUMPDEST DUP2 DUP2 LT PUSH2 0x579 JUMPI POP POP JUMP JUMPDEST PUSH0 DUP2 SSTORE PUSH1 0x1 ADD PUSH2 0x56E JUMP INVALID PUSH2 0x1A0 DUP1 PUSH1 0x40 MSTORE PUSH1 0x4 CALLDATASIZE LT ISZERO PUSH2 0x13 JUMPI PUSH0 DUP1 REVERT JUMPDEST PUSH0 CALLDATALOAD PUSH1 0xE0 SHR SWAP1 DUP2 PUSH3 0x54815D EQ PUSH2 0x2719 JUMPI POP DUP1 PUSH4 0x1C234A8 EQ PUSH2 0x26FD JUMPI DUP1 PUSH4 0x4F18CED EQ PUSH2 0x26AC JUMPI DUP1 PUSH4 0x56B4D1F EQ PUSH2 0x264C JUMPI DUP1 PUSH4 0x676D0D6 EQ PUSH2 0x2622 JUMPI DUP1 PUSH4 0xA5C5D69 EQ PUSH2 0x25F3 JUMPI DUP1 PUSH4 0xB3C4371 EQ PUSH2 0x25A2 JUMPI DUP1 PUSH4 0xB3F58EB EQ PUSH2 0x2539 JUMPI DUP1 PUSH4 0xEF81B74 EQ PUSH2 0x2500 JUMPI DUP1 PUSH4 0xF2B7CC9 EQ PUSH2 0x24D1 JUMPI DUP1 PUSH4 0x18847CF0 EQ PUSH2 0x249A JUMPI DUP1 PUSH4 0x1CBC203A EQ PUSH2 0x2436 JUMPI DUP1 PUSH4 0x2132D204 EQ PUSH2 0x240A JUMPI DUP1 PUSH4 0x2350268F EQ PUSH2 0x23B0 JUMPI DUP1 PUSH4 0x23FD338E EQ PUSH2 0x1848 JUMPI DUP1 PUSH4 0x2571781C EQ PUSH2 0x2274 JUMPI DUP1 PUSH4 0x2A891534 EQ PUSH2 0x2257 JUMPI DUP1 PUSH4 0x2AE0EE0D EQ PUSH2 0x1E67 JUMPI DUP1 PUSH4 0x2D5ACA46 EQ PUSH2 0x21C9 JUMPI DUP1 PUSH4 0x2D66014F EQ PUSH2 0x216F JUMPI DUP1 PUSH4 0x2D7CE320 EQ PUSH2 0x20BE JUMPI DUP1 PUSH4 0x2F48AB7D EQ PUSH2 0x2096 JUMPI DUP1 PUSH4 0x3080B5BC EQ PUSH2 0x2079 JUMPI DUP1 PUSH4 0x31BB6A30 EQ PUSH2 0x205E JUMPI DUP1 PUSH4 0x32BC298C EQ PUSH2 0x2041 JUMPI DUP1 PUSH4 0x32FCD966 EQ PUSH2 0x201F JUMPI DUP1 PUSH4 0x365B98B2 EQ PUSH2 0x1E6C JUMPI DUP1 PUSH4 0x375B43B4 EQ PUSH2 0x1E67 JUMPI DUP1 PUSH4 0x39AB3603 EQ PUSH2 0x1E0D JUMPI DUP1 PUSH4 0x3A5084B3 EQ PUSH2 0x1DF0 JUMPI DUP1 PUSH4 0x3BD990AC EQ PUSH2 0x1D87 JUMPI DUP1 PUSH4 0x4036436C EQ PUSH2 0x1D28 JUMPI DUP1 PUSH4 0x43EE4BD9 EQ PUSH2 0x1CC7 JUMPI DUP1 PUSH4 0x45CB537C EQ PUSH2 0x1C9D JUMPI DUP1 PUSH4 0x46B9DECE EQ PUSH2 0x1BF8 JUMPI DUP1 PUSH4 0x4B8CBF9B EQ PUSH2 0x1BDB JUMPI DUP1 PUSH4 0x4D12AE0F EQ PUSH2 0x1BAC JUMPI DUP1 PUSH4 0x4D4CC5CA EQ PUSH2 0x1B73 JUMPI DUP1 PUSH4 0x4EB54240 EQ PUSH2 0x1B05 JUMPI DUP1 PUSH4 0x5227CC14 EQ PUSH2 0x184D JUMPI DUP1 PUSH4 0x58C7D352 EQ PUSH2 0x1848 JUMPI DUP1 PUSH4 0x5AABF7F1 EQ PUSH2 0x180F JUMPI DUP1 PUSH4 0x5B58CE6C EQ PUSH2 0x17A7 JUMPI DUP1 PUSH4 0x5B62D1D5 EQ PUSH2 0x178A JUMPI DUP1 PUSH4 0x5CF3FA1B EQ PUSH2 0x173A JUMPI DUP1 PUSH4 0x5EC64A44 EQ PUSH2 0x170B JUMPI DUP1 PUSH4 0x6A424782 EQ PUSH2 0x16AB JUMPI DUP1 PUSH4 0x705FEE2D EQ PUSH2 0x168D JUMPI DUP1 PUSH4 0x70C8D770 EQ PUSH2 0x1618 JUMPI DUP1 PUSH4 0x76F5F700 EQ PUSH2 0x15FB JUMPI DUP1 PUSH4 0x78F6AD6D EQ PUSH2 0x15DE JUMPI DUP1 PUSH4 0x7CDC65F2 EQ PUSH2 0x15B6 JUMPI DUP1 PUSH4 0x82601F96 EQ PUSH2 0x1437 JUMPI DUP1 PUSH4 0x88AFBE3E EQ PUSH2 0xE72 JUMPI DUP1 PUSH4 0x89043ECE EQ PUSH2 0x1408 JUMPI DUP1 PUSH4 0x8D58644C EQ PUSH2 0x13CF JUMPI DUP1 PUSH4 0x8F030ECE EQ PUSH2 0x1396 JUMPI DUP1 PUSH4 0x907C84A7 EQ PUSH2 0x132B JUMPI DUP1 PUSH4 0x956A3228 EQ PUSH2 0x12FF JUMPI DUP1 PUSH4 0x9B40AB97 EQ PUSH2 0x12E2 JUMPI DUP1 PUSH4 0x9C383486 EQ PUSH2 0x12AE JUMPI DUP1 PUSH4 0x9C8FE993 EQ PUSH2 0x124A JUMPI DUP1 PUSH4 0xA59D17D1 EQ PUSH2 0x122D JUMPI DUP1 PUSH4 0xA5DE8788 EQ PUSH2 0x1067 JUMPI DUP1 PUSH4 0xA5E52B99 EQ PUSH2 0x104A JUMPI DUP1 PUSH4 0xAAA359C2 EQ PUSH2 0xE9C JUMPI DUP1 PUSH4 0xAAC6B121 EQ PUSH2 0xE72 JUMPI DUP1 PUSH4 0xAE4708DC EQ PUSH2 0xE18 JUMPI DUP1 PUSH4 0xBB6A6115 EQ PUSH2 0xCB7 JUMPI DUP1 PUSH4 0xBD1AAE40 EQ PUSH2 0xC83 JUMPI DUP1 PUSH4 0xBE4EB94E EQ PUSH2 0xC1A JUMPI DUP1 PUSH4 0xBF724672 EQ PUSH2 0xBE2 JUMPI DUP1 PUSH4 0xBF8058B1 EQ PUSH2 0xA7F JUMPI DUP1 PUSH4 0xBFF1F9E1 EQ PUSH2 0xA62 JUMPI DUP1 PUSH4 0xC216212A EQ PUSH2 0xA39 JUMPI DUP1 PUSH4 0xC4EB42A5 EQ PUSH2 0x9D9 JUMPI DUP1 PUSH4 0xC592A97C EQ PUSH2 0x95C JUMPI DUP1 PUSH4 0xC7BB62E8 EQ PUSH2 0x92D JUMPI DUP1 PUSH4 0xC8DF2908 EQ PUSH2 0x909 JUMPI DUP1 PUSH4 0xC9ED0708 EQ PUSH2 0x8EC JUMPI DUP1 PUSH4 0xCA8E9121 EQ PUSH2 0x8CF JUMPI DUP1 PUSH4 0xCB0E0D7D EQ PUSH2 0x893 JUMPI DUP1 PUSH4 0xCE79C2C3 EQ PUSH2 0x828 JUMPI DUP1 PUSH4 0xD0A2FD79 EQ PUSH2 0x7FC JUMPI DUP1 PUSH4 0xD2F0490D EQ PUSH2 0x7E1 JUMPI DUP1 PUSH4 0xD379DADF EQ PUSH2 0x762 JUMPI DUP1 PUSH4 0xDB27CC71 EQ PUSH2 0x703 JUMPI DUP1 PUSH4 0xE191996C EQ PUSH2 0x6A2 JUMPI DUP1 PUSH4 0xE898FC38 EQ PUSH2 0x685 JUMPI DUP1 PUSH4 0xE9E34A16 EQ PUSH2 0x65D JUMPI DUP1 PUSH4 0xEBE0FF15 EQ PUSH2 0x63A JUMPI DUP1 PUSH4 0xEC597E6F EQ PUSH2 0x61D JUMPI DUP1 PUSH4 0xF5748C4F EQ PUSH2 0x5AF JUMPI DUP1 PUSH4 0xF5D74D93 EQ PUSH2 0x587 JUMPI DUP1 PUSH4 0xF7A24806 EQ PUSH2 0x549 JUMPI DUP1 PUSH4 0xF7E87E90 EQ PUSH2 0x4D5 JUMPI DUP1 PUSH4 0xFB67693C EQ PUSH2 0x473 JUMPI PUSH4 0xFDDC806F EQ PUSH2 0x452 JUMPI PUSH0 DUP1 REVERT JUMPDEST CALLVALUE PUSH2 0x46F JUMPI PUSH0 CALLDATASIZE PUSH1 0x3 NOT ADD SLT PUSH2 0x46F JUMPI PUSH1 0x20 PUSH1 0x3A SLOAD PUSH1 0x40 MLOAD SWAP1 DUP2 MSTORE RETURN JUMPDEST PUSH0 DUP1 REVERT JUMPDEST CALLVALUE PUSH2 0x46F JUMPI PUSH2 0x481 CALLDATASIZE PUSH2 0x2788 JUMP JUMPDEST SWAP1 PUSH0 PUSH1 0x20 PUSH1 0x40 MLOAD PUSH2 0x491 DUP2 PUSH2 0x2A54 JUMP JUMPDEST DUP3 DUP2 MSTORE ADD MSTORE PUSH0 MSTORE PUSH1 0x2F PUSH1 0x20 MSTORE PUSH1 0x40 PUSH0 KECCAK256 SWAP1 PUSH0 MSTORE PUSH1 0x20 MSTORE PUSH1 0x40 DUP1 PUSH0 KECCAK256 DUP2 MLOAD PUSH2 0x4B7 DUP2 PUSH2 0x2A54 JUMP JUMPDEST PUSH1 0x20 PUSH1 0x1 DUP4 SLOAD SWAP4 DUP5 DUP5 MSTORE ADD SLOAD SWAP2 ADD SWAP1 DUP2 MSTORE DUP3 MLOAD SWAP2 DUP3 MSTORE MLOAD PUSH1 0x20 DUP3 ADD MSTORE RETURN JUMPDEST CALLVALUE PUSH2 0x46F JUMPI PUSH2 0x4FB PUSH2 0x4E6 CALLDATASIZE PUSH2 0x2788 JUMP JUMPDEST SWAP2 SWAP1 PUSH1 0x40 SLOAD DUP2 GT ISZERO SWAP1 DUP2 PUSH2 0x53F JUMPI JUMPDEST POP PUSH2 0x2B0E JUMP JUMPDEST PUSH0 SWAP1 DUP2 MSTORE PUSH1 0x45 PUSH1 0x20 SWAP1 DUP2 MSTORE PUSH1 0x40 SWAP2 DUP3 SWAP1 KECCAK256 DUP1 SLOAD PUSH1 0x1 DUP3 ADD SLOAD PUSH1 0x2 DUP4 ADD SLOAD PUSH1 0x4 SWAP1 SWAP4 ADD SLOAD DUP6 MLOAD SWAP3 DUP4 MSTORE SWAP4 DUP3 ADD MSTORE SWAP3 DUP4 ADD MSTORE PUSH1 0xFF AND ISZERO ISZERO PUSH1 0x60 DUP3 ADD MSTORE DUP1 PUSH1 0x80 DUP2 ADD JUMPDEST SUB SWAP1 RETURN JUMPDEST SWAP1 POP ISZERO ISZERO DUP4 PUSH2 0x4F5 JUMP JUMPDEST CALLVALUE PUSH2 0x46F JUMPI PUSH2 0x557 CALLDATASIZE PUSH2 0x2788 JUMP JUMPDEST SWAP1 PUSH0 MSTORE PUSH1 0x46 PUSH1 0x20 MSTORE PUSH1 0x40 PUSH0 KECCAK256 DUP1 SLOAD DUP3 LT ISZERO PUSH2 0x46F JUMPI PUSH1 0x20 SWAP2 PUSH2 0x578 SWAP2 PUSH2 0x27F6 JUMP JUMPDEST SWAP1 SLOAD SWAP1 PUSH1 0x3 SHL SHR PUSH1 0x40 MLOAD SWAP1 DUP2 MSTORE RETURN JUMPDEST CALLVALUE PUSH2 0x46F JUMPI PUSH0 CALLDATASIZE PUSH1 0x3 NOT ADD SLT PUSH2 0x46F JUMPI PUSH1 0x4 SLOAD PUSH1 0x40 MLOAD PUSH1 0x1 PUSH1 0x1 PUSH1 0xA0 SHL SUB SWAP1 SWAP2 AND DUP2 MSTORE PUSH1 0x20 SWAP1 RETURN JUMPDEST CALLVALUE PUSH2 0x46F JUMPI PUSH1 0x20 CALLDATASIZE PUSH1 0x3 NOT ADD SLT PUSH2 0x46F JUMPI PUSH1 0x4 CALLDATALOAD PUSH1 0x4B SLOAD DUP2 LT ISZERO PUSH2 0x46F JUMPI PUSH1 0x4B SLOAD DUP2 LT ISZERO PUSH2 0x609 JUMPI PUSH1 0x4B PUSH0 MSTORE PUSH32 0x17B0AF156A929EDF60C351F3DF2D53ED643FDD750AEF9EDA90DC7C8759A104A8 ADD SLOAD PUSH1 0x40 MLOAD SWAP1 DUP2 MSTORE PUSH1 0x20 SWAP1 RETURN JUMPDEST PUSH4 0x4E487B71 PUSH1 0xE0 SHL PUSH0 MSTORE PUSH1 0x32 PUSH1 0x4 MSTORE PUSH1 0x24 PUSH0 REVERT JUMPDEST CALLVALUE PUSH2 0x46F JUMPI PUSH0 CALLDATASIZE PUSH1 0x3 NOT ADD SLT PUSH2 0x46F JUMPI PUSH1 0x20 PUSH1 0x5 SLOAD PUSH1 0x40 MLOAD SWAP1 DUP2 MSTORE RETURN JUMPDEST CALLVALUE PUSH2 0x46F JUMPI PUSH0 CALLDATASIZE PUSH1 0x3 NOT ADD SLT PUSH2 0x46F JUMPI PUSH1 0x20 PUSH1 0x40 MLOAD PUSH9 0x3635C9ADC5DEA00000 DUP2 MSTORE RETURN JUMPDEST CALLVALUE PUSH2 0x46F JUMPI PUSH0 CALLDATASIZE PUSH1 0x3 NOT ADD SLT PUSH2 0x46F JUMPI PUSH1 0x3 SLOAD PUSH1 0x40 MLOAD PUSH1 0x1 PUSH1 0x1 PUSH1 0xA0 SHL SUB SWAP1 SWAP2 AND DUP2 MSTORE PUSH1 0x20 SWAP1 RETURN JUMPDEST CALLVALUE PUSH2 0x46F JUMPI PUSH0 CALLDATASIZE PUSH1 0x3 NOT ADD SLT PUSH2 0x46F JUMPI PUSH1 0x20 PUSH1 0x41 SLOAD PUSH1 0x40 MLOAD SWAP1 DUP2 MSTORE RETURN JUMPDEST CALLVALUE PUSH2 0x46F JUMPI PUSH2 0x6B0 CALLDATASIZE PUSH2 0x2788 JUMP JUMPDEST DUP1 PUSH0 MSTORE PUSH1 0x4C PUSH1 0x20 MSTORE DUP2 PUSH1 0x1 PUSH1 0x40 PUSH0 KECCAK256 ADD SLOAD LT ISZERO DUP1 PUSH2 0x6FA JUMPI JUMPDEST PUSH2 0x6D2 SWAP1 PUSH2 0x2D01 JUMP JUMPDEST PUSH0 MSTORE PUSH1 0x4C PUSH1 0x20 MSTORE PUSH1 0x3 PUSH1 0x40 PUSH0 KECCAK256 ADD SWAP1 PUSH0 MSTORE PUSH1 0x20 MSTORE PUSH1 0x20 PUSH1 0xFF PUSH1 0x40 PUSH0 KECCAK256 SLOAD AND PUSH1 0x40 MLOAD SWAP1 ISZERO ISZERO DUP2 MSTORE RETURN JUMPDEST POP DUP2 ISZERO ISZERO PUSH2 0x6C9 JUMP JUMPDEST CALLVALUE PUSH2 0x46F JUMPI PUSH1 0x20 CALLDATASIZE PUSH1 0x3 NOT ADD SLT PUSH2 0x46F JUMPI PUSH1 0x4 CALLDATALOAD PUSH0 MSTORE PUSH1 0x4C PUSH1 0x20 MSTORE PUSH1 0x40 PUSH0 KECCAK256 DUP1 SLOAD PUSH2 0x53B PUSH1 0x1 DUP4 ADD SLOAD SWAP3 PUSH1 0xFF PUSH1 0x4 PUSH1 0x2 DUP4 ADD SLOAD SWAP3 ADD SLOAD AND SWAP1 PUSH1 0x40 MLOAD SWAP5 DUP6 SWAP5 DUP6 SWAP3 PUSH1 0x60 SWAP3 SWAP6 SWAP5 SWAP2 SWAP6 PUSH1 0x80 DUP6 ADD SWAP7 DUP6 MSTORE PUSH1 0x20 DUP6 ADD MSTORE PUSH1 0x40 DUP5 ADD MSTORE ISZERO ISZERO SWAP2 ADD MSTORE JUMP JUMPDEST CALLVALUE PUSH2 0x46F JUMPI PUSH1 0x20 CALLDATASIZE PUSH1 0x3 NOT ADD SLT PUSH2 0x46F JUMPI PUSH1 0x4 CALLDATALOAD PUSH0 MSTORE PUSH1 0x10 PUSH1 0x20 MSTORE PUSH2 0x100 PUSH1 0x40 PUSH0 KECCAK256 PUSH1 0x1 DUP1 PUSH1 0xA0 SHL SUB DUP2 SLOAD AND SWAP1 PUSH1 0x3 DUP2 ADD SLOAD SWAP1 PUSH1 0x4 DUP2 ADD SLOAD PUSH1 0x5 DUP3 ADD SLOAD PUSH1 0x6 DUP4 ADD SLOAD SWAP1 PUSH1 0x7 DUP5 ADD SLOAD SWAP3 PUSH1 0xA PUSH1 0x9 DUP7 ADD SLOAD SWAP6 ADD SLOAD SWAP6 PUSH1 0x40 MLOAD SWAP8 DUP9 MSTORE PUSH1 0x20 DUP9 ADD MSTORE PUSH1 0x40 DUP8 ADD MSTORE PUSH1 0x60 DUP7 ADD MSTORE PUSH1 0x80 DUP6 ADD MSTORE PUSH1 0xA0 DUP5 ADD MSTORE PUSH1 0xC0 DUP4 ADD MSTORE PUSH1 0xE0 DUP3 ADD MSTORE RETURN JUMPDEST CALLVALUE PUSH2 0x46F JUMPI PUSH0 CALLDATASIZE PUSH1 0x3 NOT ADD SLT PUSH2 0x46F JUMPI PUSH1 0x20 PUSH1 0x40 MLOAD PUSH1 0x5 DUP2 MSTORE RETURN JUMPDEST CALLVALUE PUSH2 0x46F JUMPI PUSH1 0x20 CALLDATASIZE PUSH1 0x3 NOT ADD SLT PUSH2 0x46F JUMPI PUSH1 0x4 CALLDATALOAD PUSH1 0x8 DUP2 LT ISZERO PUSH2 0x46F JUMPI PUSH1 0x20 SWAP1 PUSH1 0x1F ADD SLOAD PUSH1 0x40 MLOAD SWAP1 DUP2 MSTORE RETURN JUMPDEST CALLVALUE PUSH2 0x46F JUMPI PUSH2 0x836 CALLDATASIZE PUSH2 0x2788 JUMP JUMPDEST SWAP1 PUSH0 MSTORE PUSH1 0x30 PUSH1 0x20 MSTORE PUSH1 0x40 PUSH0 KECCAK256 SWAP1 PUSH0 MSTORE PUSH1 0x20 MSTORE PUSH1 0x40 PUSH0 KECCAK256 DUP1 SLOAD PUSH2 0x53B PUSH1 0x1 DUP4 ADD SLOAD SWAP3 PUSH1 0x2 DUP2 ADD SLOAD SWAP1 PUSH1 0x4 PUSH1 0x3 DUP3 ADD SLOAD SWAP2 ADD SLOAD SWAP2 PUSH1 0x40 MLOAD SWAP6 DUP7 SWAP6 DUP7 SWAP2 SWAP3 PUSH1 0x80 SWAP4 SWAP7 SWAP6 SWAP5 SWAP2 SWAP7 PUSH1 0xA0 DUP5 ADD SWAP8 DUP5 MSTORE PUSH1 0x20 DUP5 ADD MSTORE PUSH1 0x40 DUP4 ADD MSTORE PUSH1 0x60 DUP3 ADD MSTORE ADD MSTORE JUMP JUMPDEST CALLVALUE PUSH2 0x46F JUMPI PUSH1 0x20 CALLDATASIZE PUSH1 0x3 NOT ADD SLT PUSH2 0x46F JUMPI PUSH1 0x4 CALLDATALOAD PUSH1 0x1 PUSH1 0x1 PUSH1 0xA0 SHL SUB DUP2 AND SWAP1 DUP2 SWAP1 SUB PUSH2 0x46F JUMPI PUSH0 MSTORE PUSH1 0xF PUSH1 0x20 MSTORE PUSH1 0x20 PUSH1 0x40 PUSH0 KECCAK256 SLOAD PUSH1 0x40 MLOAD SWAP1 DUP2 MSTORE RETURN JUMPDEST CALLVALUE PUSH2 0x46F JUMPI PUSH0 CALLDATASIZE PUSH1 0x3 NOT ADD SLT PUSH2 0x46F JUMPI PUSH1 0x20 PUSH1 0x39 SLOAD PUSH1 0x40 MLOAD SWAP1 DUP2 MSTORE RETURN JUMPDEST CALLVALUE PUSH2 0x46F JUMPI PUSH0 CALLDATASIZE PUSH1 0x3 NOT ADD SLT PUSH2 0x46F JUMPI PUSH1 0x20 PUSH1 0x40 SLOAD PUSH1 0x40 MLOAD SWAP1 DUP2 MSTORE RETURN JUMPDEST CALLVALUE PUSH2 0x46F JUMPI PUSH0 CALLDATASIZE PUSH1 0x3 NOT ADD SLT PUSH2 0x46F JUMPI PUSH1 0x20 PUSH1 0x40 MLOAD PUSH10 0x21E19E0C9BAB2400000 DUP2 MSTORE RETURN JUMPDEST CALLVALUE PUSH2 0x46F JUMPI PUSH2 0x93B CALLDATASIZE PUSH2 0x2788 JUMP JUMPDEST SWAP1 PUSH0 MSTORE PUSH1 0x37 PUSH1 0x20 MSTORE PUSH1 0x40 PUSH0 KECCAK256 DUP1 SLOAD DUP3 LT ISZERO PUSH2 0x46F JUMPI PUSH1 0x20 SWAP2 PUSH2 0x578 SWAP2 PUSH2 0x27F6 JUMP JUMPDEST CALLVALUE PUSH2 0x46F JUMPI PUSH2 0x96A CALLDATASIZE PUSH2 0x2788 JUMP JUMPDEST SWAP1 PUSH0 MSTORE PUSH1 0x3F PUSH1 0x20 MSTORE PUSH1 0x40 PUSH0 KECCAK256 SWAP1 PUSH0 MSTORE PUSH1 0x20 MSTORE PUSH1 0x40 PUSH0 KECCAK256 PUSH1 0x40 MLOAD SWAP1 DUP2 PUSH1 0x20 DUP3 SLOAD SWAP2 DUP3 DUP2 MSTORE ADD SWAP2 PUSH0 MSTORE PUSH1 0x20 PUSH0 KECCAK256 SWAP1 PUSH0 JUMPDEST DUP2 DUP2 LT PUSH2 0x9C3 JUMPI PUSH2 0x53B DUP6 PUSH2 0x9AF DUP2 DUP8 SUB DUP3 PUSH2 0x2AA9 JUMP JUMPDEST PUSH1 0x40 MLOAD SWAP2 DUP3 SWAP2 PUSH1 0x20 DUP4 MSTORE PUSH1 0x20 DUP4 ADD SWAP1 PUSH2 0x280B JUMP JUMPDEST DUP3 SLOAD DUP5 MSTORE PUSH1 0x20 SWAP1 SWAP4 ADD SWAP3 PUSH1 0x1 SWAP3 DUP4 ADD SWAP3 ADD PUSH2 0x998 JUMP JUMPDEST CALLVALUE PUSH2 0x46F JUMPI PUSH1 0x20 CALLDATASIZE PUSH1 0x3 NOT ADD SLT PUSH2 0x46F JUMPI PUSH1 0x4 CALLDATALOAD PUSH0 MSTORE PUSH1 0x3C PUSH1 0x20 MSTORE PUSH1 0x40 PUSH0 KECCAK256 DUP1 SLOAD PUSH2 0x53B PUSH1 0x1 DUP4 ADD SLOAD SWAP3 PUSH1 0x2 DUP2 ADD SLOAD SWAP1 PUSH1 0x3 DUP2 ADD SLOAD PUSH1 0x4 DUP3 ADD SLOAD PUSH1 0x5 DUP4 ADD SLOAD SWAP1 PUSH1 0x6 DUP5 ADD SLOAD SWAP3 PUSH1 0xFF PUSH1 0x8 PUSH1 0x7 DUP8 ADD SLOAD SWAP7 ADD SLOAD AND SWAP6 PUSH1 0x40 MLOAD SWAP10 DUP11 SWAP10 DUP11 PUSH2 0x279E JUMP JUMPDEST CALLVALUE PUSH2 0x46F JUMPI PUSH1 0x20 CALLDATASIZE PUSH1 0x3 NOT ADD SLT PUSH2 0x46F JUMPI PUSH1 0x4 CALLDATALOAD PUSH1 0xD SLOAD DUP2 LT ISZERO PUSH2 0x46F JUMPI PUSH2 0x578 PUSH1 0x20 SWAP2 PUSH2 0x27DE JUMP JUMPDEST CALLVALUE PUSH2 0x46F JUMPI PUSH0 CALLDATASIZE PUSH1 0x3 NOT ADD SLT PUSH2 0x46F JUMPI PUSH1 0x20 PUSH1 0x6 SLOAD PUSH1 0x40 MLOAD SWAP1 DUP2 MSTORE RETURN JUMPDEST CALLVALUE PUSH2 0x46F JUMPI PUSH1 0x20 CALLDATASIZE PUSH1 0x3 NOT ADD SLT PUSH2 0x46F JUMPI PUSH0 PUSH2 0x160 PUSH1 0x40 MLOAD PUSH2 0xAA0 DUP2 PUSH2 0x2A37 JUMP JUMPDEST DUP3 DUP2 MSTORE DUP3 PUSH1 0x20 DUP3 ADD MSTORE DUP3 PUSH1 0x40 DUP3 ADD MSTORE DUP3 PUSH1 0x60 DUP3 ADD MSTORE DUP3 PUSH1 0x80 DUP3 ADD MSTORE DUP3 PUSH1 0xA0 DUP3 ADD MSTORE DUP3 PUSH1 0xC0 DUP3 ADD MSTORE DUP3 PUSH1 0xE0 DUP3 ADD MSTORE DUP3 PUSH2 0x100 DUP3 ADD MSTORE DUP3 PUSH2 0x120 DUP3 ADD MSTORE DUP3 PUSH2 0x140 DUP3 ADD MSTORE ADD MSTORE PUSH1 0x4 CALLDATALOAD PUSH0 MSTORE PUSH1 0x11 PUSH1 0x20 MSTORE PUSH2 0x180 PUSH1 0x40 PUSH0 KECCAK256 PUSH1 0x40 MLOAD PUSH2 0xB01 DUP2 PUSH2 0x2A37 JUMP JUMPDEST DUP1 DUP3 SLOAD SWAP3 DUP4 DUP3 MSTORE PUSH1 0x1 DUP2 ADD SLOAD PUSH1 0x20 DUP4 ADD SWAP1 DUP2 MSTORE PUSH1 0x2 DUP3 ADD SLOAD PUSH1 0x40 DUP5 ADD SWAP1 DUP2 MSTORE PUSH1 0x3 DUP4 ADD SLOAD PUSH1 0x60 DUP6 ADD SWAP1 DUP2 MSTORE PUSH1 0x4 DUP5 ADD SLOAD PUSH1 0x80 DUP7 ADD SWAP1 DUP2 MSTORE PUSH1 0x5 DUP6 ADD SLOAD SWAP1 PUSH1 0xA0 DUP8 ADD SWAP2 DUP3 MSTORE PUSH1 0x6 DUP7 ADD SLOAD SWAP3 PUSH1 0xC0 DUP9 ADD SWAP4 DUP5 MSTORE PUSH1 0x7 DUP8 ADD SLOAD SWAP5 PUSH1 0xE0 DUP10 ADD SWAP6 DUP7 MSTORE PUSH1 0x8 DUP9 ADD SLOAD SWAP7 PUSH2 0x100 DUP11 ADD SWAP8 DUP9 MSTORE PUSH2 0x160 PUSH1 0xB PUSH1 0x9 DUP12 ADD SLOAD SWAP11 PUSH2 0x120 DUP14 ADD SWAP12 DUP13 MSTORE PUSH2 0x140 PUSH1 0xA DUP3 ADD SLOAD SWAP14 ADD SWAP13 DUP14 MSTORE ADD SLOAD SWAP12 ADD SWAP11 DUP12 MSTORE PUSH1 0x40 MLOAD SWAP12 DUP13 MSTORE MLOAD PUSH1 0x20 DUP13 ADD MSTORE MLOAD PUSH1 0x40 DUP12 ADD MSTORE MLOAD PUSH1 0x60 DUP11 ADD MSTORE MLOAD PUSH1 0x80 DUP10 ADD MSTORE MLOAD PUSH1 0xA0 DUP9 ADD MSTORE MLOAD PUSH1 0xC0 DUP8 ADD MSTORE MLOAD PUSH1 0xE0 DUP7 ADD MSTORE MLOAD PUSH2 0x100 DUP6 ADD MSTORE MLOAD PUSH2 0x120 DUP5 ADD MSTORE MLOAD PUSH2 0x140 DUP4 ADD MSTORE MLOAD PUSH2 0x160 DUP3 ADD MSTORE RETURN JUMPDEST CALLVALUE PUSH2 0x46F JUMPI PUSH2 0xBF0 CALLDATASIZE PUSH2 0x2788 JUMP JUMPDEST SWAP1 PUSH0 MSTORE PUSH1 0x2F PUSH1 0x20 MSTORE PUSH1 0x40 PUSH0 KECCAK256 SWAP1 PUSH0 MSTORE PUSH1 0x20 MSTORE PUSH1 0x40 DUP1 PUSH0 KECCAK256 PUSH1 0x1 DUP2 SLOAD SWAP2 ADD SLOAD DUP3 MLOAD SWAP2 DUP3 MSTORE PUSH1 0x20 DUP3 ADD MSTORE RETURN JUMPDEST CALLVALUE PUSH2 0x46F JUMPI PUSH2 0xC28 CALLDATASIZE PUSH2 0x2788 JUMP JUMPDEST SWAP1 PUSH0 MSTORE PUSH1 0x36 PUSH1 0x20 MSTORE PUSH1 0x40 PUSH0 KECCAK256 SWAP1 PUSH0 MSTORE PUSH1 0x20 MSTORE PUSH1 0x40 PUSH0 KECCAK256 PUSH1 0x40 MLOAD SWAP1 DUP2 PUSH1 0x20 DUP3 SLOAD SWAP2 DUP3 DUP2 MSTORE ADD SWAP2 PUSH0 MSTORE PUSH1 0x20 PUSH0 KECCAK256 SWAP1 PUSH0 JUMPDEST DUP2 DUP2 LT PUSH2 0xC6D JUMPI PUSH2 0x53B DUP6 PUSH2 0x9AF DUP2 DUP8 SUB DUP3 PUSH2 0x2AA9 JUMP JUMPDEST DUP3 SLOAD DUP5 MSTORE PUSH1 0x20 SWAP1 SWAP4 ADD SWAP3 PUSH1 0x1 SWAP3 DUP4 ADD SWAP3 ADD PUSH2 0xC56 JUMP JUMPDEST CALLVALUE PUSH2 0x46F JUMPI PUSH2 0xC91 CALLDATASIZE PUSH2 0x2788 JUMP JUMPDEST SWAP1 PUSH0 MSTORE PUSH1 0x34 PUSH1 0x20 MSTORE PUSH1 0x40 PUSH0 KECCAK256 SWAP1 PUSH0 MSTORE PUSH1 0x20 MSTORE PUSH1 0x20 PUSH1 0xFF PUSH1 0x40 PUSH0 KECCAK256 SLOAD AND PUSH1 0x40 MLOAD SWAP1 ISZERO ISZERO DUP2 MSTORE RETURN JUMPDEST CALLVALUE PUSH2 0x46F JUMPI PUSH1 0x20 CALLDATASIZE PUSH1 0x3 NOT ADD SLT PUSH2 0x46F JUMPI PUSH1 0x40 MLOAD PUSH1 0x4 CALLDATALOAD PUSH2 0x200 PUSH2 0xCDB DUP2 DUP5 PUSH2 0x2AA9 JUMP JUMPDEST PUSH1 0xF DUP4 MSTORE PUSH1 0x1F NOT ADD PUSH0 JUMPDEST DUP2 DUP2 LT PUSH2 0xE07 JUMPI POP POP PUSH0 JUMPDEST PUSH1 0xF DUP2 LT PUSH2 0xD8A JUMPI DUP3 PUSH1 0x40 MLOAD DUP1 SWAP2 PUSH1 0x20 DUP3 ADD PUSH1 0x20 DUP4 MSTORE DUP2 MLOAD DUP1 SWAP2 MSTORE PUSH1 0x40 DUP4 ADD SWAP1 PUSH1 0x20 PUSH1 0x40 DUP3 PUSH1 0x5 SHL DUP7 ADD ADD SWAP4 ADD SWAP2 PUSH0 SWAP1 JUMPDEST DUP3 DUP3 LT PUSH2 0xD30 JUMPI POP POP POP POP SUB SWAP1 RETURN JUMPDEST SWAP2 SWAP4 SWAP1 SWAP3 SWAP5 POP PUSH1 0x3F NOT DUP7 DUP3 SUB ADD DUP3 MSTORE DUP5 MLOAD SWAP1 PUSH1 0x20 DUP1 DUP4 MLOAD SWAP3 DUP4 DUP2 MSTORE ADD SWAP3 ADD SWAP1 PUSH0 SWAP1 JUMPDEST DUP1 DUP3 LT PUSH2 0xD72 JUMPI POP POP POP PUSH1 0x20 DUP1 PUSH1 0x1 SWAP3 SWAP7 ADD SWAP3 ADD SWAP3 ADD DUP6 SWAP5 SWAP4 SWAP2 SWAP3 PUSH2 0xD21 JUMP JUMPDEST SWAP1 SWAP2 SWAP3 PUSH1 0x20 DUP1 PUSH1 0x1 SWAP3 DUP7 MLOAD DUP2 MSTORE ADD SWAP5 ADD SWAP3 ADD SWAP1 PUSH2 0xD52 JUMP JUMPDEST DUP2 PUSH0 MSTORE PUSH1 0x13 PUSH1 0x20 MSTORE PUSH1 0x40 PUSH0 KECCAK256 DUP2 PUSH0 MSTORE PUSH1 0x20 MSTORE PUSH1 0x40 PUSH0 KECCAK256 PUSH1 0x40 MLOAD SWAP1 DUP2 PUSH1 0x20 DUP3 SLOAD SWAP2 DUP3 DUP2 MSTORE ADD SWAP2 PUSH0 MSTORE PUSH1 0x20 PUSH0 KECCAK256 SWAP1 PUSH0 SWAP1 JUMPDEST DUP1 DUP3 LT PUSH2 0xDEF JUMPI POP POP POP SWAP1 PUSH2 0xDD3 DUP2 PUSH1 0x1 SWAP5 SWAP4 SUB DUP3 PUSH2 0x2AA9 JUMP JUMPDEST PUSH2 0xDDD DUP3 DUP7 PUSH2 0x2CA9 JUMP JUMPDEST MSTORE PUSH2 0xDE8 DUP2 DUP6 PUSH2 0x2CA9 JUMP JUMPDEST POP ADD PUSH2 0xCF0 JUMP JUMPDEST SWAP1 SWAP2 SWAP3 PUSH1 0x1 PUSH1 0x20 DUP2 SWAP3 DUP7 SLOAD DUP2 MSTORE ADD SWAP5 ADD SWAP3 ADD SWAP1 PUSH2 0xDB9 JUMP JUMPDEST DUP1 PUSH1 0x60 PUSH1 0x20 DUP1 SWAP4 DUP8 ADD ADD MSTORE ADD PUSH2 0xCE5 JUMP JUMPDEST CALLVALUE PUSH2 0x46F JUMPI PUSH1 0x20 CALLDATASIZE PUSH1 0x3 NOT ADD SLT PUSH2 0x46F JUMPI PUSH1 0x4 CALLDATALOAD PUSH1 0x16 SLOAD DUP2 LT ISZERO PUSH2 0x46F JUMPI PUSH1 0x16 SLOAD DUP2 LT ISZERO PUSH2 0x609 JUMPI PUSH1 0x16 PUSH0 MSTORE PUSH32 0xD833147D7DC355BA459FC788F669E58CFAF9DC25DDCD0702E87D69C7B5124289 ADD SLOAD PUSH1 0x40 MLOAD SWAP1 DUP2 MSTORE PUSH1 0x20 SWAP1 RETURN JUMPDEST CALLVALUE PUSH2 0x46F JUMPI PUSH1 0x20 CALLDATASIZE PUSH1 0x3 NOT ADD SLT PUSH2 0x46F JUMPI PUSH1 0x4 CALLDATALOAD PUSH0 MSTORE PUSH1 0x14 PUSH1 0x20 MSTORE PUSH1 0x20 PUSH1 0x40 PUSH0 KECCAK256 SLOAD PUSH1 0x40 MLOAD SWAP1 DUP2 MSTORE RETURN JUMPDEST CALLVALUE PUSH2 0x46F JUMPI PUSH1 0x20 CALLDATASIZE PUSH1 0x3 NOT ADD SLT PUSH2 0x46F JUMPI PUSH2 0xEB5 PUSH2 0x2D3D JUMP JUMPDEST POP PUSH1 0x4 CALLDATALOAD PUSH0 MSTORE PUSH1 0x10 PUSH1 0x20 MSTORE PUSH1 0x40 PUSH0 KECCAK256 PUSH1 0x40 MLOAD PUSH2 0xED0 DUP2 PUSH2 0x29EA JUMP JUMPDEST DUP2 SLOAD PUSH1 0x1 PUSH1 0x1 PUSH1 0xA0 SHL SUB AND DUP2 MSTORE PUSH1 0x1 DUP3 ADD DUP1 SLOAD PUSH2 0xEEC DUP2 PUSH2 0x2C22 JUMP JUMPDEST SWAP2 PUSH2 0xEFA PUSH1 0x40 MLOAD SWAP4 DUP5 PUSH2 0x2AA9 JUMP JUMPDEST DUP2 DUP4 MSTORE PUSH1 0x20 DUP4 ADD SWAP1 PUSH0 MSTORE PUSH1 0x20 PUSH0 KECCAK256 PUSH0 SWAP2 JUMPDEST DUP4 DUP4 LT PUSH2 0x1006 JUMPI PUSH2 0x53B DUP7 PUSH1 0x15 DUP10 DUP9 PUSH1 0x20 DUP5 ADD MSTORE PUSH1 0x2 DUP2 ADD SLOAD PUSH1 0x40 DUP5 ADD MSTORE PUSH1 0x3 DUP2 ADD SLOAD PUSH1 0x60 DUP5 ADD MSTORE PUSH1 0x4 DUP2 ADD SLOAD PUSH1 0x80 DUP5 ADD MSTORE PUSH1 0x5 DUP2 ADD SLOAD PUSH1 0xA0 DUP5 ADD MSTORE PUSH1 0x6 DUP2 ADD SLOAD PUSH1 0xC0 DUP5 ADD MSTORE PUSH1 0x7 DUP2 ADD SLOAD PUSH1 0xE0 DUP5 ADD MSTORE PUSH1 0x8 DUP2 ADD SLOAD PUSH2 0x100 DUP5 ADD MSTORE PUSH1 0x9 DUP2 ADD SLOAD PUSH2 0x120 DUP5 ADD MSTORE PUSH1 0xA DUP2 ADD SLOAD PUSH2 0x140 DUP5 ADD MSTORE PUSH1 0xB DUP2 ADD SLOAD PUSH2 0x160 DUP5 ADD MSTORE PUSH1 0xC DUP2 ADD SLOAD PUSH2 0x180 DUP5 ADD MSTORE PUSH1 0xD DUP2 ADD SLOAD PUSH2 0x1A0 DUP5 ADD MSTORE PUSH1 0xE DUP2 ADD SLOAD PUSH2 0x1C0 DUP5 ADD MSTORE PUSH1 0xF DUP2 ADD SLOAD PUSH2 0x1E0 DUP5 ADD MSTORE PUSH1 0x10 DUP2 ADD SLOAD PUSH2 0x200 DUP5 ADD MSTORE PUSH1 0x11 DUP2 ADD SLOAD PUSH2 0x220 DUP5 ADD MSTORE PUSH1 0x12 DUP2 ADD SLOAD PUSH2 0x240 DUP5 ADD MSTORE PUSH1 0x13 DUP2 ADD SLOAD PUSH2 0x260 DUP5 ADD MSTORE PUSH1 0x14 DUP2 ADD SLOAD PUSH2 0x280 DUP5 ADD MSTORE ADD SLOAD PUSH2 0x2A0 DUP3 ADD MSTORE PUSH1 0x40 MLOAD SWAP2 DUP3 SWAP2 PUSH1 0x20 DUP4 MSTORE PUSH1 0x20 DUP4 ADD SWAP1 PUSH2 0x288E JUMP JUMPDEST PUSH1 0x4 PUSH1 0x20 PUSH1 0x1 SWAP3 PUSH1 0x40 MLOAD PUSH2 0x1019 DUP2 PUSH2 0x2A1B JUMP JUMPDEST DUP6 SLOAD DUP2 MSTORE DUP5 DUP7 ADD SLOAD DUP4 DUP3 ADD MSTORE PUSH1 0x2 DUP7 ADD SLOAD PUSH1 0x40 DUP3 ADD MSTORE PUSH1 0xFF PUSH1 0x3 DUP8 ADD SLOAD AND PUSH1 0x60 DUP3 ADD MSTORE DUP2 MSTORE ADD SWAP3 ADD SWAP3 ADD SWAP2 SWAP1 PUSH2 0xF0B JUMP JUMPDEST CALLVALUE PUSH2 0x46F JUMPI PUSH0 CALLDATASIZE PUSH1 0x3 NOT ADD SLT PUSH2 0x46F JUMPI PUSH1 0x20 PUSH1 0x40 MLOAD PUSH3 0x83D600 DUP2 MSTORE RETURN JUMPDEST CALLVALUE PUSH2 0x46F JUMPI PUSH1 0x20 CALLDATASIZE PUSH1 0x3 NOT ADD SLT PUSH2 0x46F JUMPI PUSH1 0x4 CALLDATALOAD PUSH0 MSTORE PUSH1 0x15 PUSH1 0x20 MSTORE PUSH1 0x40 PUSH0 KECCAK256 PUSH1 0x40 MLOAD DUP1 DUP3 PUSH1 0x20 DUP3 SWAP5 SLOAD SWAP4 DUP5 DUP2 MSTORE ADD SWAP1 PUSH0 MSTORE PUSH1 0x20 PUSH0 KECCAK256 SWAP3 PUSH0 JUMPDEST DUP2 DUP2 LT PUSH2 0x1214 JUMPI POP POP PUSH2 0x10B4 SWAP3 POP SUB DUP3 PUSH2 0x2AA9 JUMP JUMPDEST DUP1 MLOAD SWAP1 PUSH2 0x10C0 DUP3 PUSH2 0x2C3A JUMP JUMPDEST SWAP1 PUSH2 0x10CA DUP4 PUSH2 0x2C22 JUMP JUMPDEST SWAP3 PUSH2 0x10D8 PUSH1 0x40 MLOAD SWAP5 DUP6 PUSH2 0x2AA9 JUMP JUMPDEST DUP1 DUP5 MSTORE PUSH2 0x10E4 DUP2 PUSH2 0x2C22 JUMP JUMPDEST PUSH1 0x20 DUP6 ADD SWAP5 SWAP1 PUSH1 0x1F NOT ADD CALLDATASIZE DUP7 CALLDATACOPY PUSH2 0x10FA DUP3 PUSH2 0x2C3A JUMP JUMPDEST SWAP1 PUSH2 0x1104 DUP4 PUSH2 0x2C3A JUMP JUMPDEST SWAP3 PUSH2 0x110E DUP2 PUSH2 0x2C3A JUMP JUMPDEST SWAP5 PUSH0 JUMPDEST DUP3 DUP2 LT PUSH2 0x11A2 JUMPI POP POP POP PUSH1 0x20 PUSH2 0x1132 PUSH1 0x40 MLOAD SWAP7 PUSH1 0xA0 DUP9 MSTORE PUSH1 0xA0 DUP9 ADD SWAP1 PUSH2 0x280B JUMP JUMPDEST SWAP2 DUP7 DUP4 SUB DUP3 DUP9 ADD MSTORE MLOAD SWAP2 DUP3 DUP2 MSTORE ADD SWAP6 SWAP1 PUSH0 JUMPDEST DUP2 DUP2 LT PUSH2 0x1183 JUMPI DUP7 DUP1 PUSH2 0x53B DUP9 PUSH2 0x1175 DUP10 PUSH2 0x1167 DUP15 DUP12 DUP8 DUP3 SUB PUSH1 0x40 DUP10 ADD MSTORE PUSH2 0x280B JUMP JUMPDEST SWAP1 DUP6 DUP3 SUB PUSH1 0x60 DUP8 ADD MSTORE PUSH2 0x280B JUMP JUMPDEST SWAP1 DUP4 DUP3 SUB PUSH1 0x80 DUP6 ADD MSTORE PUSH2 0x280B JUMP JUMPDEST DUP3 MLOAD PUSH1 0x1 PUSH1 0x1 PUSH1 0xA0 SHL SUB AND DUP9 MSTORE PUSH1 0x20 SWAP8 DUP9 ADD SWAP8 SWAP1 SWAP3 ADD SWAP2 PUSH1 0x1 ADD PUSH2 0x1144 JUMP JUMPDEST DUP1 PUSH2 0x11AF PUSH1 0x1 SWAP3 DUP5 PUSH2 0x2CA9 JUMP JUMPDEST MLOAD PUSH0 MSTORE PUSH1 0x10 PUSH1 0x20 MSTORE PUSH1 0x11 PUSH1 0x40 PUSH0 KECCAK256 PUSH1 0x3 DUP2 ADD SLOAD PUSH2 0x11CC DUP5 DUP14 PUSH2 0x2CA9 JUMP JUMPDEST MSTORE DUP4 DUP1 PUSH1 0xA0 SHL SUB DUP2 SLOAD AND PUSH2 0x11E0 DUP5 DUP10 PUSH2 0x2CA9 JUMP JUMPDEST MSTORE PUSH1 0x6 DUP2 ADD SLOAD PUSH2 0x11F0 DUP5 DUP11 PUSH2 0x2CA9 JUMP JUMPDEST MSTORE PUSH1 0xA DUP2 ADD SLOAD PUSH2 0x1200 DUP5 DUP12 PUSH2 0x2CA9 JUMP JUMPDEST MSTORE ADD SLOAD PUSH2 0x120D DUP3 DUP11 PUSH2 0x2CA9 JUMP JUMPDEST MSTORE ADD PUSH2 0x1111 JUMP JUMPDEST DUP5 SLOAD DUP4 MSTORE PUSH1 0x1 SWAP5 DUP6 ADD SWAP5 DUP7 SWAP5 POP PUSH1 0x20 SWAP1 SWAP4 ADD SWAP3 ADD PUSH2 0x109F JUMP JUMPDEST CALLVALUE PUSH2 0x46F JUMPI PUSH0 CALLDATASIZE PUSH1 0x3 NOT ADD SLT PUSH2 0x46F JUMPI PUSH1 0x20 PUSH1 0x42 SLOAD PUSH1 0x40 MLOAD SWAP1 DUP2 MSTORE RETURN JUMPDEST CALLVALUE PUSH2 0x46F JUMPI PUSH1 0x20 CALLDATASIZE PUSH1 0x3 NOT ADD SLT PUSH2 0x46F JUMPI PUSH1 0x4 CALLDATALOAD PUSH0 MSTORE PUSH1 0x46 PUSH1 0x20 MSTORE PUSH1 0x40 PUSH0 KECCAK256 PUSH1 0x40 MLOAD SWAP1 DUP2 PUSH1 0x20 DUP3 SLOAD SWAP2 DUP3 DUP2 MSTORE ADD SWAP2 PUSH0 MSTORE PUSH1 0x20 PUSH0 KECCAK256 SWAP1 PUSH0 JUMPDEST DUP2 DUP2 LT PUSH2 0x1298 JUMPI PUSH2 0x53B DUP6 PUSH2 0x9AF DUP2 DUP8 SUB DUP3 PUSH2 0x2AA9 JUMP JUMPDEST DUP3 SLOAD DUP5 MSTORE PUSH1 0x20 SWAP1 SWAP4 ADD SWAP3 PUSH1 0x1 SWAP3 DUP4 ADD SWAP3 ADD PUSH2 0x1281 JUMP JUMPDEST CALLVALUE PUSH2 0x46F JUMPI PUSH2 0x12BC CALLDATASIZE PUSH2 0x2788 JUMP JUMPDEST SWAP1 PUSH0 MSTORE PUSH1 0x38 PUSH1 0x20 MSTORE PUSH1 0x40 PUSH0 KECCAK256 SWAP1 PUSH0 MSTORE PUSH1 0x20 MSTORE PUSH1 0x20 PUSH1 0xFF PUSH1 0x40 PUSH0 KECCAK256 SLOAD AND PUSH1 0x40 MLOAD SWAP1 ISZERO ISZERO DUP2 MSTORE RETURN JUMPDEST CALLVALUE PUSH2 0x46F JUMPI PUSH0 CALLDATASIZE PUSH1 0x3 NOT ADD SLT PUSH2 0x46F JUMPI PUSH1 0x20 PUSH1 0x48 SLOAD PUSH1 0x40 MLOAD SWAP1 DUP2 MSTORE RETURN JUMPDEST CALLVALUE PUSH2 0x46F JUMPI PUSH1 0x20 CALLDATASIZE PUSH1 0x3 NOT ADD SLT PUSH2 0x46F JUMPI PUSH1 0x4 CALLDATALOAD PUSH1 0x8 DUP2 LT ISZERO PUSH2 0x46F JUMPI PUSH1 0x20 SWAP1 PUSH1 0x27 ADD SLOAD PUSH1 0x40 MLOAD SWAP1 DUP2 MSTORE RETURN JUMPDEST CALLVALUE PUSH2 0x46F JUMPI PUSH2 0x1339 CALLDATASIZE PUSH2 0x2788 JUMP JUMPDEST SWAP1 PUSH0 MSTORE PUSH1 0x35 PUSH1 0x20 MSTORE PUSH1 0x40 PUSH0 KECCAK256 SWAP1 PUSH0 MSTORE PUSH1 0x20 MSTORE PUSH1 0x40 PUSH0 KECCAK256 DUP1 SLOAD PUSH2 0x53B PUSH1 0x1 DUP4 ADD SLOAD SWAP3 PUSH1 0x2 DUP2 ADD SLOAD SWAP1 PUSH1 0x4 PUSH1 0x3 DUP3 ADD SLOAD SWAP2 ADD SLOAD SWAP2 PUSH1 0x40 MLOAD SWAP6 DUP7 SWAP6 DUP7 SWAP2 SWAP3 PUSH1 0x80 SWAP4 SWAP7 SWAP6 SWAP5 SWAP2 SWAP7 PUSH1 0xA0 DUP5 ADD SWAP8 DUP5 MSTORE PUSH1 0x20 DUP5 ADD MSTORE PUSH1 0x40 DUP4 ADD MSTORE PUSH1 0x60 DUP3 ADD MSTORE ADD MSTORE JUMP JUMPDEST CALLVALUE PUSH2 0x46F JUMPI PUSH2 0x13A4 CALLDATASIZE PUSH2 0x283E JUMP JUMPDEST SWAP2 PUSH0 MSTORE PUSH1 0x31 PUSH1 0x20 MSTORE PUSH1 0x40 PUSH0 KECCAK256 SWAP1 PUSH0 MSTORE PUSH1 0x20 MSTORE PUSH1 0x40 PUSH0 KECCAK256 DUP1 SLOAD DUP3 LT ISZERO PUSH2 0x46F JUMPI PUSH1 0x20 SWAP2 PUSH2 0x578 SWAP2 PUSH2 0x27F6 JUMP JUMPDEST CALLVALUE PUSH2 0x46F JUMPI PUSH2 0x13DD CALLDATASIZE PUSH2 0x283E JUMP JUMPDEST SWAP2 PUSH0 MSTORE PUSH1 0x32 PUSH1 0x20 MSTORE PUSH1 0x40 PUSH0 KECCAK256 SWAP1 PUSH0 MSTORE PUSH1 0x20 MSTORE PUSH1 0x40 PUSH0 KECCAK256 DUP1 SLOAD DUP3 LT ISZERO PUSH2 0x46F JUMPI PUSH1 0x20 SWAP2 PUSH2 0x578 SWAP2 PUSH2 0x27F6 JUMP JUMPDEST CALLVALUE PUSH2 0x46F JUMPI PUSH2 0x1416 CALLDATASIZE PUSH2 0x2788 JUMP JUMPDEST SWAP1 PUSH0 MSTORE PUSH1 0xB PUSH1 0x20 MSTORE PUSH1 0x40 PUSH0 KECCAK256 SWAP1 PUSH0 MSTORE PUSH1 0x20 MSTORE PUSH1 0x20 PUSH1 0x40 PUSH0 KECCAK256 SLOAD PUSH1 0x40 MLOAD SWAP1 DUP2 MSTORE RETURN JUMPDEST CALLVALUE PUSH2 0x46F JUMPI PUSH1 0x20 CALLDATASIZE PUSH1 0x3 NOT ADD SLT PUSH2 0x46F JUMPI PUSH1 0x4 CALLDATALOAD DUP1 PUSH0 MSTORE PUSH1 0x10 PUSH1 0x20 MSTORE PUSH1 0x40 PUSH0 KECCAK256 PUSH1 0x3 DUP2 ADD SLOAD ISZERO PUSH2 0x1580 JUMPI PUSH1 0x6 ADD SLOAD PUSH2 0x146E DUP2 PUSH2 0x2C22 JUMP JUMPDEST SWAP2 PUSH2 0x147C PUSH1 0x40 MLOAD SWAP4 DUP5 PUSH2 0x2AA9 JUMP JUMPDEST DUP2 DUP4 MSTORE PUSH1 0x1F NOT PUSH2 0x148B DUP4 PUSH2 0x2C22 JUMP JUMPDEST ADD PUSH0 JUMPDEST DUP2 DUP2 LT PUSH2 0x1569 JUMPI POP POP PUSH0 JUMPDEST DUP3 DUP2 LT PUSH2 0x151C JUMPI DUP4 PUSH1 0x40 MLOAD DUP1 SWAP2 PUSH1 0x20 DUP3 ADD PUSH1 0x20 DUP4 MSTORE DUP2 MLOAD DUP1 SWAP2 MSTORE PUSH1 0x20 PUSH1 0x40 DUP5 ADD SWAP3 ADD SWAP1 PUSH0 JUMPDEST DUP2 DUP2 LT PUSH2 0x14CC JUMPI POP POP POP SUB SWAP1 RETURN JUMPDEST SWAP2 SWAP4 POP SWAP2 PUSH1 0x20 PUSH1 0xA0 DUP3 PUSH2 0x150E PUSH1 0x1 SWAP5 DUP9 MLOAD PUSH1 0x80 DUP1 SWAP2 DUP1 MLOAD DUP5 MSTORE PUSH1 0x20 DUP2 ADD MLOAD PUSH1 0x20 DUP6 ADD MSTORE PUSH1 0x40 DUP2 ADD MLOAD PUSH1 0x40 DUP6 ADD MSTORE PUSH1 0x60 DUP2 ADD MLOAD ISZERO ISZERO PUSH1 0x60 DUP6 ADD MSTORE ADD MLOAD ISZERO ISZERO SWAP2 ADD MSTORE JUMP JUMPDEST ADD SWAP5 ADD SWAP2 ADD SWAP2 DUP5 SWAP4 SWAP3 PUSH2 0x14BE JUMP JUMPDEST DUP1 PUSH2 0x1528 PUSH1 0x1 SWAP3 PUSH2 0x27DE JUMP JUMPDEST SWAP1 SLOAD SWAP1 PUSH1 0x3 SHL SHR DUP4 PUSH0 MSTORE PUSH1 0xE PUSH1 0x20 MSTORE PUSH1 0x40 PUSH0 KECCAK256 SWAP1 PUSH0 MSTORE PUSH1 0x20 MSTORE PUSH2 0x154D PUSH1 0x40 PUSH0 KECCAK256 PUSH2 0x2CBD JUMP JUMPDEST PUSH2 0x1557 DUP3 DUP8 PUSH2 0x2CA9 JUMP JUMPDEST MSTORE PUSH2 0x1562 DUP2 DUP7 PUSH2 0x2CA9 JUMP JUMPDEST POP ADD PUSH2 0x1499 JUMP JUMPDEST PUSH1 0x20 SWAP1 PUSH2 0x1574 PUSH2 0x2BBC JUMP JUMPDEST DUP3 DUP3 DUP9 ADD ADD MSTORE ADD PUSH2 0x148E JUMP JUMPDEST PUSH1 0x40 MLOAD PUSH3 0x461BCD PUSH1 0xE5 SHL DUP2 MSTORE PUSH1 0x20 PUSH1 0x4 DUP3 ADD MSTORE PUSH1 0xE PUSH1 0x24 DUP3 ADD MSTORE PUSH14 0x155CD95C881B9BDD08199BDD5B99 PUSH1 0x92 SHL PUSH1 0x44 DUP3 ADD MSTORE PUSH1 0x64 SWAP1 REVERT JUMPDEST CALLVALUE PUSH2 0x46F JUMPI PUSH0 CALLDATASIZE PUSH1 0x3 NOT ADD SLT PUSH2 0x46F JUMPI PUSH1 0x2 SLOAD PUSH1 0x40 MLOAD PUSH1 0x1 PUSH1 0x1 PUSH1 0xA0 SHL SUB SWAP1 SWAP2 AND DUP2 MSTORE PUSH1 0x20 SWAP1 RETURN JUMPDEST CALLVALUE PUSH2 0x46F JUMPI PUSH0 CALLDATASIZE PUSH1 0x3 NOT ADD SLT PUSH2 0x46F JUMPI PUSH1 0x20 PUSH1 0x9 SLOAD PUSH1 0x40 MLOAD SWAP1 DUP2 MSTORE RETURN JUMPDEST CALLVALUE PUSH2 0x46F JUMPI PUSH0 CALLDATASIZE PUSH1 0x3 NOT ADD SLT PUSH2 0x46F JUMPI PUSH1 0x20 PUSH1 0x40 MLOAD PUSH3 0x93A80 DUP2 MSTORE RETURN JUMPDEST CALLVALUE PUSH2 0x46F JUMPI PUSH2 0x1626 CALLDATASIZE PUSH2 0x2788 JUMP JUMPDEST SWAP1 PUSH0 MSTORE PUSH1 0x12 PUSH1 0x20 MSTORE PUSH1 0x40 PUSH0 KECCAK256 DUP1 SLOAD DUP3 LT ISZERO PUSH2 0x46F JUMPI PUSH0 MSTORE PUSH1 0x5 PUSH1 0x20 PUSH0 KECCAK256 SWAP2 MUL ADD DUP1 SLOAD PUSH2 0x53B PUSH1 0x1 DUP4 ADD SLOAD SWAP3 PUSH1 0x2 DUP2 ADD SLOAD SWAP1 PUSH1 0x4 PUSH1 0x3 DUP3 ADD SLOAD SWAP2 ADD SLOAD SWAP2 PUSH1 0x40 MLOAD SWAP6 DUP7 SWAP6 DUP7 SWAP2 SWAP3 PUSH1 0x80 SWAP4 SWAP7 SWAP6 SWAP5 SWAP2 SWAP7 PUSH1 0xA0 DUP5 ADD SWAP8 DUP5 MSTORE PUSH1 0x20 DUP5 ADD MSTORE PUSH1 0x40 DUP4 ADD MSTORE PUSH1 0x60 DUP3 ADD MSTORE ADD MSTORE JUMP JUMPDEST CALLVALUE PUSH2 0x46F JUMPI PUSH0 CALLDATASIZE PUSH1 0x3 NOT ADD SLT PUSH2 0x46F JUMPI PUSH1 0x20 PUSH1 0x40 MLOAD PUSH4 0x2514300 DUP2 MSTORE RETURN JUMPDEST CALLVALUE PUSH2 0x46F JUMPI PUSH1 0x20 CALLDATASIZE PUSH1 0x3 NOT ADD SLT PUSH2 0x46F JUMPI PUSH1 0x4 CALLDATALOAD PUSH0 MSTORE PUSH1 0x43 PUSH1 0x20 MSTORE PUSH1 0x40 PUSH0 KECCAK256 DUP1 SLOAD PUSH2 0x53B PUSH1 0x1 DUP4 ADD SLOAD SWAP3 PUSH1 0x2 DUP2 ADD SLOAD SWAP1 PUSH1 0x3 DUP2 ADD SLOAD PUSH1 0x4 DUP3 ADD SLOAD PUSH1 0x5 DUP4 ADD SLOAD SWAP1 PUSH1 0x6 DUP5 ADD SLOAD SWAP3 PUSH1 0xFF PUSH1 0x8 PUSH1 0x7 DUP8 ADD SLOAD SWAP7 ADD SLOAD AND SWAP6 PUSH1 0x40 MLOAD SWAP10 DUP11 SWAP10 DUP11 PUSH2 0x279E JUMP JUMPDEST CALLVALUE PUSH2 0x46F JUMPI PUSH2 0x1719 CALLDATASIZE PUSH2 0x2788 JUMP JUMPDEST SWAP1 PUSH0 MSTORE PUSH1 0x15 PUSH1 0x20 MSTORE PUSH1 0x40 PUSH0 KECCAK256 DUP1 SLOAD DUP3 LT ISZERO PUSH2 0x46F JUMPI PUSH1 0x20 SWAP2 PUSH2 0x578 SWAP2 PUSH2 0x27F6 JUMP JUMPDEST CALLVALUE PUSH2 0x46F JUMPI PUSH2 0x174B PUSH2 0x4E6 CALLDATASIZE PUSH2 0x2788 JUMP JUMPDEST PUSH0 SWAP1 DUP2 MSTORE PUSH1 0x4C PUSH1 0x20 SWAP1 DUP2 MSTORE PUSH1 0x40 SWAP2 DUP3 SWAP1 KECCAK256 DUP1 SLOAD PUSH1 0x1 DUP3 ADD SLOAD PUSH1 0x2 DUP4 ADD SLOAD PUSH1 0x4 SWAP1 SWAP4 ADD SLOAD DUP6 MLOAD SWAP3 DUP4 MSTORE SWAP4 DUP3 ADD MSTORE SWAP3 DUP4 ADD MSTORE PUSH1 0xFF AND ISZERO ISZERO PUSH1 0x60 DUP3 ADD MSTORE PUSH1 0x80 SWAP1 RETURN JUMPDEST CALLVALUE PUSH2 0x46F JUMPI PUSH0 CALLDATASIZE PUSH1 0x3 NOT ADD SLT PUSH2 0x46F JUMPI PUSH1 0x20 PUSH1 0x49 SLOAD PUSH1 0x40 MLOAD SWAP1 DUP2 MSTORE RETURN JUMPDEST CALLVALUE PUSH2 0x46F JUMPI PUSH2 0x17B5 CALLDATASIZE PUSH2 0x2788 JUMP JUMPDEST PUSH0 SWAP2 DUP3 MSTORE PUSH1 0xE PUSH1 0x20 SWAP1 DUP2 MSTORE PUSH1 0x40 DUP1 DUP5 KECCAK256 SWAP3 DUP5 MSTORE SWAP2 DUP2 MSTORE SWAP2 DUP2 SWAP1 KECCAK256 DUP1 SLOAD PUSH1 0x1 DUP3 ADD SLOAD PUSH1 0x2 DUP4 ADD SLOAD PUSH1 0x3 SWAP1 SWAP4 ADD SLOAD DUP5 MLOAD SWAP3 DUP4 MSTORE SWAP5 DUP3 ADD MSTORE SWAP2 DUP3 ADD MSTORE PUSH1 0xFF DUP1 DUP4 AND ISZERO ISZERO PUSH1 0x60 DUP4 ADD MSTORE PUSH1 0x8 SWAP3 SWAP1 SWAP3 SHR SWAP1 SWAP2 AND ISZERO ISZERO PUSH1 0x80 DUP3 ADD MSTORE PUSH1 0xA0 SWAP1 RETURN JUMPDEST CALLVALUE PUSH2 0x46F JUMPI PUSH2 0x181D CALLDATASIZE PUSH2 0x283E JUMP JUMPDEST SWAP2 PUSH0 MSTORE PUSH1 0x13 PUSH1 0x20 MSTORE PUSH1 0x40 PUSH0 KECCAK256 SWAP1 PUSH0 MSTORE PUSH1 0x20 MSTORE PUSH1 0x40 PUSH0 KECCAK256 DUP1 SLOAD DUP3 LT ISZERO PUSH2 0x46F JUMPI PUSH1 0x20 SWAP2 PUSH2 0x578 SWAP2 PUSH2 0x27F6 JUMP JUMPDEST PUSH2 0x2858 JUMP JUMPDEST CALLVALUE PUSH2 0x46F JUMPI PUSH2 0x185B CALLDATASIZE PUSH2 0x2788 JUMP JUMPDEST DUP2 PUSH0 MSTORE PUSH1 0x13 PUSH1 0x20 MSTORE PUSH1 0x40 PUSH0 KECCAK256 DUP2 PUSH0 MSTORE PUSH1 0x20 MSTORE PUSH1 0x40 PUSH0 KECCAK256 SLOAD PUSH2 0x187B DUP2 PUSH2 0x2C22 JUMP JUMPDEST SWAP1 PUSH2 0x1889 PUSH1 0x40 MLOAD SWAP3 DUP4 PUSH2 0x2AA9 JUMP JUMPDEST DUP1 DUP3 MSTORE PUSH2 0x1898 PUSH1 0x1F NOT SWAP2 PUSH2 0x2C22 JUMP JUMPDEST ADD PUSH0 JUMPDEST DUP2 DUP2 LT PUSH2 0x1AEE JUMPI POP POP PUSH0 JUMPDEST DUP4 PUSH0 MSTORE PUSH1 0x13 PUSH1 0x20 MSTORE PUSH1 0x40 PUSH0 KECCAK256 DUP4 PUSH0 MSTORE PUSH1 0x20 MSTORE PUSH1 0x40 PUSH0 KECCAK256 SLOAD DUP2 LT ISZERO PUSH2 0x1A87 JUMPI DUP4 PUSH0 MSTORE PUSH1 0x13 PUSH1 0x20 MSTORE PUSH1 0x40 PUSH0 KECCAK256 DUP4 PUSH0 MSTORE PUSH1 0x20 MSTORE PUSH2 0x18E3 DUP2 PUSH1 0x40 PUSH0 KECCAK256 PUSH2 0x27F6 JUMP JUMPDEST SWAP1 SLOAD SWAP1 PUSH1 0x3 SHL SHR PUSH0 MSTORE PUSH1 0x10 PUSH1 0x20 MSTORE PUSH1 0x40 PUSH0 KECCAK256 PUSH1 0x40 MLOAD SWAP1 PUSH2 0x1902 DUP3 PUSH2 0x29EA JUMP JUMPDEST DUP1 SLOAD PUSH1 0x1 PUSH1 0x1 PUSH1 0xA0 SHL SUB AND DUP3 MSTORE PUSH1 0x1 DUP2 ADD DUP1 SLOAD PUSH2 0x191E DUP2 PUSH2 0x2C22 JUMP JUMPDEST SWAP2 PUSH2 0x192C PUSH1 0x40 MLOAD SWAP4 DUP5 PUSH2 0x2AA9 JUMP JUMPDEST DUP2 DUP4 MSTORE PUSH1 0x20 DUP4 ADD SWAP1 PUSH0 MSTORE PUSH1 0x20 PUSH0 KECCAK256 SWAP1 PUSH0 SWAP1 JUMPDEST DUP4 DUP3 LT PUSH2 0x1A43 JUMPI POP POP POP POP PUSH1 0x20 DUP4 ADD MSTORE PUSH1 0x2 DUP2 ADD SLOAD PUSH1 0x40 DUP4 ADD MSTORE PUSH1 0x3 DUP2 ADD SLOAD PUSH1 0x60 DUP4 ADD MSTORE PUSH1 0x4 DUP2 ADD SLOAD PUSH1 0x80 DUP4 ADD MSTORE PUSH1 0x5 DUP2 ADD SLOAD PUSH1 0xA0 DUP4 ADD MSTORE PUSH1 0x6 DUP2 ADD SLOAD PUSH1 0xC0 DUP4 ADD MSTORE PUSH1 0x7 DUP2 ADD SLOAD PUSH1 0xE0 DUP4 ADD MSTORE PUSH1 0x8 DUP2 ADD SLOAD PUSH2 0x100 DUP4 ADD MSTORE PUSH1 0x9 DUP2 ADD SLOAD PUSH2 0x120 DUP4 ADD MSTORE PUSH1 0xA DUP2 ADD SLOAD PUSH2 0x140 DUP4 ADD MSTORE PUSH1 0xB DUP2 ADD SLOAD PUSH2 0x160 DUP4 ADD MSTORE PUSH1 0xC DUP2 ADD SLOAD PUSH2 0x180 DUP4 ADD MSTORE PUSH1 0xD DUP2 ADD SLOAD PUSH2 0x1A0 DUP4 ADD MSTORE PUSH1 0xE DUP2 ADD SLOAD PUSH2 0x1C0 DUP4 ADD MSTORE PUSH1 0xF DUP2 ADD SLOAD PUSH2 0x1E0 DUP4 ADD MSTORE PUSH1 0x10 DUP2 ADD SLOAD PUSH2 0x200 DUP4 ADD MSTORE PUSH1 0x11 DUP2 ADD SLOAD PUSH2 0x220 DUP4 ADD MSTORE PUSH1 0x12 DUP2 ADD SLOAD PUSH2 0x240 DUP4 ADD MSTORE PUSH1 0x13 DUP2 ADD SLOAD PUSH2 0x260 DUP4 ADD MSTORE PUSH1 0x14 DUP2 ADD SLOAD PUSH2 0x280 DUP4 ADD MSTORE PUSH1 0x15 ADD SLOAD PUSH2 0x2A0 DUP3 ADD MSTORE PUSH1 0x1 SWAP2 SWAP1 PUSH2 0x1A31 DUP3 DUP6 PUSH2 0x2CA9 JUMP JUMPDEST MSTORE PUSH2 0x1A3C DUP2 DUP5 PUSH2 0x2CA9 JUMP JUMPDEST POP ADD PUSH2 0x18A6 JUMP JUMPDEST PUSH1 0x4 PUSH1 0x20 PUSH1 0x1 SWAP3 PUSH1 0x40 MLOAD PUSH2 0x1A56 DUP2 PUSH2 0x2A1B JUMP JUMPDEST DUP7 SLOAD DUP2 MSTORE DUP5 DUP8 ADD SLOAD DUP4 DUP3 ADD MSTORE PUSH1 0x2 DUP8 ADD SLOAD PUSH1 0x40 DUP3 ADD MSTORE PUSH1 0xFF PUSH1 0x3 DUP9 ADD SLOAD AND PUSH1 0x60 DUP3 ADD MSTORE DUP2 MSTORE ADD SWAP4 ADD SWAP2 ADD SWAP1 SWAP2 PUSH2 0x193E JUMP JUMPDEST POP PUSH1 0x40 MLOAD DUP1 SWAP2 PUSH1 0x20 DUP3 ADD PUSH1 0x20 DUP4 MSTORE DUP2 MLOAD DUP1 SWAP2 MSTORE PUSH1 0x40 DUP4 ADD SWAP1 PUSH1 0x20 PUSH1 0x40 DUP3 PUSH1 0x5 SHL DUP7 ADD ADD SWAP4 ADD SWAP2 PUSH0 SWAP1 JUMPDEST DUP3 DUP3 LT PUSH2 0x1ABF JUMPI POP POP POP POP SUB SWAP1 RETURN JUMPDEST SWAP2 SWAP4 PUSH1 0x1 SWAP2 SWAP4 SWAP6 POP PUSH1 0x20 PUSH2 0x1ADE DUP2 SWAP3 PUSH1 0x3F NOT DUP11 DUP3 SUB ADD DUP7 MSTORE DUP9 MLOAD PUSH2 0x288E JUMP JUMPDEST SWAP7 ADD SWAP3 ADD SWAP3 ADD DUP6 SWAP5 SWAP4 SWAP2 SWAP3 PUSH2 0x1AB0 JUMP JUMPDEST PUSH1 0x20 SWAP1 PUSH2 0x1AF9 PUSH2 0x2D3D JUMP JUMPDEST DUP3 DUP3 DUP7 ADD ADD MSTORE ADD PUSH2 0x189B JUMP JUMPDEST CALLVALUE PUSH2 0x46F JUMPI PUSH2 0x1B13 CALLDATASIZE PUSH2 0x2788 JUMP JUMPDEST SWAP1 PUSH2 0x1B1C PUSH2 0x2BBC JUMP JUMPDEST POP PUSH0 MSTORE PUSH1 0x30 PUSH1 0x20 MSTORE PUSH1 0x40 PUSH0 KECCAK256 SWAP1 PUSH0 MSTORE PUSH1 0x20 MSTORE PUSH1 0xA0 PUSH2 0x1B3C PUSH1 0x40 PUSH0 KECCAK256 PUSH2 0x2BE6 JUMP JUMPDEST PUSH2 0x1B71 PUSH1 0x40 MLOAD DUP1 SWAP3 PUSH1 0x80 DUP1 SWAP2 DUP1 MLOAD DUP5 MSTORE PUSH1 0x20 DUP2 ADD MLOAD PUSH1 0x20 DUP6 ADD MSTORE PUSH1 0x40 DUP2 ADD MLOAD PUSH1 0x40 DUP6 ADD MSTORE PUSH1 0x60 DUP2 ADD MLOAD PUSH1 0x60 DUP6 ADD MSTORE ADD MLOAD SWAP2 ADD MSTORE JUMP JUMPDEST RETURN JUMPDEST CALLVALUE PUSH2 0x46F JUMPI PUSH2 0x1B81 CALLDATASIZE PUSH2 0x283E JUMP JUMPDEST SWAP2 PUSH0 MSTORE PUSH1 0x3F PUSH1 0x20 MSTORE PUSH1 0x40 PUSH0 KECCAK256 SWAP1 PUSH0 MSTORE PUSH1 0x20 MSTORE PUSH1 0x40 PUSH0 KECCAK256 DUP1 SLOAD DUP3 LT ISZERO PUSH2 0x46F JUMPI PUSH1 0x20 SWAP2 PUSH2 0x578 SWAP2 PUSH2 0x27F6 JUMP JUMPDEST CALLVALUE PUSH2 0x46F JUMPI PUSH2 0x1BBA CALLDATASIZE PUSH2 0x2788 JUMP JUMPDEST SWAP1 PUSH0 MSTORE PUSH1 0x4D PUSH1 0x20 MSTORE PUSH1 0x40 PUSH0 KECCAK256 DUP1 SLOAD DUP3 LT ISZERO PUSH2 0x46F JUMPI PUSH1 0x20 SWAP2 PUSH2 0x578 SWAP2 PUSH2 0x27F6 JUMP JUMPDEST CALLVALUE PUSH2 0x46F JUMPI PUSH0 CALLDATASIZE PUSH1 0x3 NOT ADD SLT PUSH2 0x46F JUMPI PUSH1 0x20 PUSH1 0x47 SLOAD PUSH1 0x40 MLOAD SWAP1 DUP2 MSTORE RETURN JUMPDEST CALLVALUE PUSH2 0x46F JUMPI PUSH1 0x20 CALLDATASIZE PUSH1 0x3 NOT ADD SLT PUSH2 0x46F JUMPI PUSH1 0x4 CALLDATALOAD PUSH0 MSTORE PUSH1 0x11 PUSH1 0x20 MSTORE PUSH2 0x180 PUSH1 0x40 PUSH0 KECCAK256 DUP1 SLOAD SWAP1 PUSH1 0x1 DUP2 ADD SLOAD SWAP1 PUSH1 0x2 DUP2 ADD SLOAD PUSH1 0x3 DUP3 ADD SLOAD PUSH1 0x4 DUP4 ADD SLOAD PUSH1 0x5 DUP5 ADD SLOAD PUSH1 0x6 DUP6 ADD SLOAD SWAP1 PUSH1 0x7 DUP7 ADD SLOAD SWAP3 PUSH1 0x8 DUP8 ADD SLOAD SWAP5 PUSH1 0x9 DUP9 ADD SLOAD SWAP7 PUSH1 0xB PUSH1 0xA DUP11 ADD SLOAD SWAP10 ADD SLOAD SWAP10 PUSH1 0x40 MLOAD SWAP12 DUP13 MSTORE PUSH1 0x20 DUP13 ADD MSTORE PUSH1 0x40 DUP12 ADD MSTORE PUSH1 0x60 DUP11 ADD MSTORE PUSH1 0x80 DUP10 ADD MSTORE PUSH1 0xA0 DUP9 ADD MSTORE PUSH1 0xC0 DUP8 ADD MSTORE PUSH1 0xE0 DUP7 ADD MSTORE PUSH2 0x100 DUP6 ADD MSTORE PUSH2 0x120 DUP5 ADD MSTORE PUSH2 0x140 DUP4 ADD MSTORE PUSH2 0x160 DUP3 ADD MSTORE RETURN JUMPDEST CALLVALUE PUSH2 0x46F JUMPI PUSH1 0x20 CALLDATASIZE PUSH1 0x3 NOT ADD SLT PUSH2 0x46F JUMPI PUSH1 0x4 CALLDATALOAD PUSH0 MSTORE PUSH1 0xA PUSH1 0x20 MSTORE PUSH1 0x20 PUSH1 0x40 PUSH0 KECCAK256 SLOAD PUSH1 0x40 MLOAD SWAP1 DUP2 MSTORE RETURN JUMPDEST CALLVALUE PUSH2 0x46F JUMPI PUSH2 0x1CD5 CALLDATASIZE PUSH2 0x2788 JUMP JUMPDEST DUP1 PUSH0 MSTORE PUSH1 0x45 PUSH1 0x20 MSTORE DUP2 PUSH1 0x1 PUSH1 0x40 PUSH0 KECCAK256 ADD SLOAD LT ISZERO DUP1 PUSH2 0x1D1F JUMPI JUMPDEST PUSH2 0x1CF7 SWAP1 PUSH2 0x2D01 JUMP JUMPDEST PUSH0 MSTORE PUSH1 0x45 PUSH1 0x20 MSTORE PUSH1 0x3 PUSH1 0x40 PUSH0 KECCAK256 ADD SWAP1 PUSH0 MSTORE PUSH1 0x20 MSTORE PUSH1 0x20 PUSH1 0xFF PUSH1 0x40 PUSH0 KECCAK256 SLOAD AND PUSH1 0x40 MLOAD SWAP1 ISZERO ISZERO DUP2 MSTORE RETURN JUMPDEST POP DUP2 ISZERO ISZERO PUSH2 0x1CEE JUMP JUMPDEST CALLVALUE PUSH2 0x46F JUMPI PUSH1 0x20 CALLDATASIZE PUSH1 0x3 NOT ADD SLT PUSH2 0x46F JUMPI PUSH1 0x4 CALLDATALOAD PUSH0 MSTORE PUSH1 0x45 PUSH1 0x20 MSTORE PUSH1 0x40 PUSH0 KECCAK256 DUP1 SLOAD PUSH2 0x53B PUSH1 0x1 DUP4 ADD SLOAD SWAP3 PUSH1 0xFF PUSH1 0x4 PUSH1 0x2 DUP4 ADD SLOAD SWAP3 ADD SLOAD AND SWAP1 PUSH1 0x40 MLOAD SWAP5 DUP6 SWAP5 DUP6 SWAP3 PUSH1 0x60 SWAP3 SWAP6 SWAP5 SWAP2 SWAP6 PUSH1 0x80 DUP6 ADD SWAP7 DUP6 MSTORE PUSH1 0x20 DUP6 ADD MSTORE PUSH1 0x40 DUP5 ADD MSTORE ISZERO ISZERO SWAP2 ADD MSTORE JUMP JUMPDEST CALLVALUE PUSH2 0x46F JUMPI PUSH2 0x1D95 CALLDATASIZE PUSH2 0x2788 JUMP JUMPDEST SWAP1 PUSH0 MSTORE PUSH1 0x32 PUSH1 0x20 MSTORE PUSH1 0x40 PUSH0 KECCAK256 SWAP1 PUSH0 MSTORE PUSH1 0x20 MSTORE PUSH1 0x40 PUSH0 KECCAK256 PUSH1 0x40 MLOAD SWAP1 DUP2 PUSH1 0x20 DUP3 SLOAD SWAP2 DUP3 DUP2 MSTORE ADD SWAP2 PUSH0 MSTORE PUSH1 0x20 PUSH0 KECCAK256 SWAP1 PUSH0 JUMPDEST DUP2 DUP2 LT PUSH2 0x1DDA JUMPI PUSH2 0x53B DUP6 PUSH2 0x9AF DUP2 DUP8 SUB DUP3 PUSH2 0x2AA9 JUMP JUMPDEST DUP3 SLOAD DUP5 MSTORE PUSH1 0x20 SWAP1 SWAP4 ADD SWAP3 PUSH1 0x1 SWAP3 DUP4 ADD SWAP3 ADD PUSH2 0x1DC3 JUMP JUMPDEST CALLVALUE PUSH2 0x46F JUMPI PUSH0 CALLDATASIZE PUSH1 0x3 NOT ADD SLT PUSH2 0x46F JUMPI PUSH1 0x20 PUSH1 0x40 MLOAD PUSH3 0x2A300 DUP2 MSTORE RETURN JUMPDEST CALLVALUE PUSH2 0x46F JUMPI PUSH1 0x20 CALLDATASIZE PUSH1 0x3 NOT ADD SLT PUSH2 0x46F JUMPI PUSH1 0x4 CALLDATALOAD PUSH1 0x7 SLOAD DUP2 LT ISZERO PUSH2 0x46F JUMPI PUSH1 0x7 SLOAD DUP2 LT ISZERO PUSH2 0x609 JUMPI PUSH1 0x7 PUSH0 MSTORE PUSH32 0xA66CC928B5EDB82AF9BD49922954155AB7B0942694BEA4CE44661D9A8736C688 ADD SLOAD PUSH1 0x40 MLOAD SWAP1 DUP2 MSTORE PUSH1 0x20 SWAP1 RETURN JUMPDEST PUSH2 0x2873 JUMP JUMPDEST CALLVALUE PUSH2 0x46F JUMPI PUSH1 0x20 CALLDATASIZE PUSH1 0x3 NOT ADD SLT PUSH2 0x46F JUMPI PUSH1 0x4 CALLDATALOAD PUSH0 MSTORE PUSH1 0x10 PUSH1 0x20 MSTORE PUSH1 0x40 PUSH0 KECCAK256 PUSH2 0x180 MSTORE PUSH1 0x1 DUP1 PUSH1 0xA0 SHL SUB PUSH2 0x180 MLOAD SLOAD AND PUSH1 0x2 PUSH2 0x180 MLOAD ADD SLOAD PUSH2 0x100 MSTORE PUSH1 0x3 PUSH2 0x180 MLOAD ADD SLOAD PUSH2 0x140 MSTORE PUSH1 0x4 PUSH2 0x180 MLOAD ADD SLOAD PUSH1 0x5 PUSH2 0x180 MLOAD ADD SLOAD PUSH1 0x6 PUSH2 0x180 MLOAD ADD SLOAD PUSH1 0x7 PUSH2 0x180 MLOAD ADD SLOAD PUSH1 0x8 PUSH2 0x180 MLOAD ADD SLOAD PUSH1 0x9 PUSH2 0x180 MLOAD ADD SLOAD PUSH1 0xA PUSH2 0x180 MLOAD ADD SLOAD SWAP1 PUSH1 0xB PUSH2 0x180 MLOAD ADD SLOAD SWAP3 PUSH1 0xC PUSH2 0x180 MLOAD ADD SLOAD SWAP5 PUSH1 0xD PUSH2 0x180 MLOAD ADD SLOAD SWAP7 PUSH1 0xE PUSH2 0x180 MLOAD ADD SLOAD SWAP9 PUSH1 0xF PUSH2 0x180 MLOAD ADD SLOAD SWAP11 PUSH1 0x10 PUSH2 0x180 MLOAD ADD SLOAD SWAP13 PUSH1 0x11 PUSH2 0x180 MLOAD ADD SLOAD PUSH1 0x80 MSTORE PUSH1 0x12 PUSH2 0x180 MLOAD ADD SLOAD PUSH1 0xC0 MSTORE PUSH1 0x13 PUSH2 0x180 MLOAD ADD SLOAD PUSH2 0x160 MSTORE PUSH1 0x14 PUSH2 0x180 MLOAD ADD SLOAD PUSH2 0x120 MSTORE PUSH1 0x15 PUSH2 0x180 MLOAD ADD SLOAD PUSH1 0xE0 MSTORE PUSH1 0x40 MLOAD PUSH1 0xA0 MSTORE PUSH1 0xA0 MLOAD MSTORE PUSH2 0x100 MLOAD PUSH1 0x20 PUSH1 0xA0 MLOAD ADD MSTORE PUSH2 0x140 MLOAD PUSH1 0x40 PUSH1 0xA0 MLOAD ADD MSTORE PUSH1 0x60 PUSH1 0xA0 MLOAD ADD MSTORE PUSH1 0x80 PUSH1 0xA0 MLOAD ADD MSTORE PUSH1 0xA0 DUP1 MLOAD ADD MSTORE PUSH1 0xC0 PUSH1 0xA0 MLOAD ADD MSTORE PUSH1 0xE0 PUSH1 0xA0 MLOAD ADD MSTORE PUSH2 0x100 PUSH1 0xA0 MLOAD ADD MSTORE PUSH2 0x120 PUSH1 0xA0 MLOAD ADD MSTORE PUSH2 0x140 PUSH1 0xA0 MLOAD ADD MSTORE PUSH2 0x160 PUSH1 0xA0 MLOAD ADD MSTORE PUSH2 0x180 PUSH1 0xA0 MLOAD ADD MSTORE PUSH2 0x1A0 PUSH1 0xA0 MLOAD ADD MSTORE PUSH2 0x1C0 PUSH1 0xA0 MLOAD ADD MSTORE PUSH2 0x1E0 PUSH1 0xA0 MLOAD ADD MSTORE PUSH1 0x80 MLOAD PUSH2 0x200 PUSH1 0xA0 MLOAD ADD MSTORE PUSH1 0xC0 MLOAD PUSH2 0x220 PUSH1 0xA0 MLOAD ADD MSTORE PUSH2 0x160 MLOAD PUSH2 0x240 PUSH1 0xA0 MLOAD ADD MSTORE PUSH2 0x120 MLOAD PUSH2 0x260 PUSH1 0xA0 MLOAD ADD MSTORE PUSH1 0xE0 MLOAD PUSH2 0x280 PUSH1 0xA0 MLOAD ADD MSTORE PUSH2 0x2A0 PUSH1 0xA0 MLOAD RETURN JUMPDEST CALLVALUE PUSH2 0x46F JUMPI PUSH0 CALLDATASIZE PUSH1 0x3 NOT ADD SLT PUSH2 0x46F JUMPI PUSH1 0x20 PUSH1 0x40 MLOAD PUSH8 0xDE0B6B3A7640000 DUP2 MSTORE RETURN JUMPDEST CALLVALUE PUSH2 0x46F JUMPI PUSH0 CALLDATASIZE PUSH1 0x3 NOT ADD SLT PUSH2 0x46F JUMPI PUSH1 0x20 PUSH1 0x40 MLOAD PUSH3 0x15180 DUP2 MSTORE RETURN JUMPDEST CALLVALUE PUSH2 0x46F JUMPI PUSH0 CALLDATASIZE PUSH1 0x3 NOT ADD SLT PUSH2 0x46F JUMPI PUSH1 0x20 PUSH1 0x40 MLOAD PUSH1 0x2 DUP2 MSTORE RETURN JUMPDEST CALLVALUE PUSH2 0x46F JUMPI PUSH0 CALLDATASIZE PUSH1 0x3 NOT ADD SLT PUSH2 0x46F JUMPI PUSH1 0x20 PUSH1 0x3B SLOAD PUSH1 0x40 MLOAD SWAP1 DUP2 MSTORE RETURN JUMPDEST CALLVALUE PUSH2 0x46F JUMPI PUSH0 CALLDATASIZE PUSH1 0x3 NOT ADD SLT PUSH2 0x46F JUMPI PUSH1 0x1 SLOAD PUSH1 0x40 MLOAD PUSH1 0x1 PUSH1 0x1 PUSH1 0xA0 SHL SUB SWAP1 SWAP2 AND DUP2 MSTORE PUSH1 0x20 SWAP1 RETURN JUMPDEST CALLVALUE PUSH2 0x46F JUMPI PUSH1 0x20 CALLDATASIZE PUSH1 0x3 NOT ADD SLT PUSH2 0x46F JUMPI PUSH1 0x4 CALLDATALOAD PUSH2 0x20DA PUSH2 0x2ACB JUMP JUMPDEST POP PUSH1 0x40 SLOAD DUP2 GT ISZERO DUP1 PUSH2 0x2166 JUMPI JUMPDEST PUSH2 0x20F0 SWAP1 PUSH2 0x2B0E JUMP JUMPDEST PUSH0 MSTORE PUSH1 0x43 PUSH1 0x20 MSTORE PUSH2 0x120 PUSH2 0x2106 PUSH1 0x40 PUSH0 KECCAK256 PUSH2 0x2B52 JUMP JUMPDEST PUSH2 0x1B71 PUSH1 0x40 MLOAD DUP1 SWAP3 PUSH2 0x100 DUP1 SWAP2 DUP1 MLOAD DUP5 MSTORE PUSH1 0x20 DUP2 ADD MLOAD PUSH1 0x20 DUP6 ADD MSTORE PUSH1 0x40 DUP2 ADD MLOAD PUSH1 0x40 DUP6 ADD MSTORE PUSH1 0x60 DUP2 ADD MLOAD PUSH1 0x60 DUP6 ADD MSTORE PUSH1 0x80 DUP2 ADD MLOAD PUSH1 0x80 DUP6 ADD MSTORE PUSH1 0xA0 DUP2 ADD MLOAD PUSH1 0xA0 DUP6 ADD MSTORE PUSH1 0xC0 DUP2 ADD MLOAD PUSH1 0xC0 DUP6 ADD MSTORE PUSH1 0xE0 DUP2 ADD MLOAD PUSH1 0xE0 DUP6 ADD MSTORE ADD MLOAD ISZERO ISZERO SWAP2 ADD MSTORE JUMP JUMPDEST POP DUP1 ISZERO ISZERO PUSH2 0x20E7 JUMP JUMPDEST CALLVALUE PUSH2 0x46F JUMPI PUSH1 0x20 CALLDATASIZE PUSH1 0x3 NOT ADD SLT PUSH2 0x46F JUMPI PUSH1 0x4 CALLDATALOAD PUSH1 0x44 SLOAD DUP2 LT ISZERO PUSH2 0x46F JUMPI PUSH1 0x44 SLOAD DUP2 LT ISZERO PUSH2 0x609 JUMPI PUSH1 0x44 PUSH0 MSTORE PUSH32 0x9B22D3D61959B4D3528B1D8BA932C96FBE302B36A1AAD1D95CAB54F9E0A135EA ADD SLOAD PUSH1 0x40 MLOAD SWAP1 DUP2 MSTORE PUSH1 0x20 SWAP1 RETURN JUMPDEST CALLVALUE PUSH2 0x46F JUMPI PUSH2 0x21D7 CALLDATASIZE PUSH2 0x2788 JUMP JUMPDEST SWAP1 PUSH2 0x21E0 PUSH2 0x2BBC JUMP JUMPDEST POP PUSH1 0x39 SLOAD DUP2 GT ISZERO DUP1 PUSH2 0x224E JUMPI JUMPDEST PUSH2 0x21F6 SWAP1 PUSH2 0x2B0E JUMP JUMPDEST PUSH0 MSTORE PUSH1 0x3E PUSH1 0x20 MSTORE PUSH1 0x40 PUSH0 KECCAK256 SWAP1 PUSH0 MSTORE PUSH1 0x20 MSTORE PUSH1 0xA0 PUSH2 0x2215 PUSH1 0x40 PUSH0 KECCAK256 PUSH2 0x2CBD JUMP JUMPDEST PUSH2 0x1B71 PUSH1 0x40 MLOAD DUP1 SWAP3 PUSH1 0x80 DUP1 SWAP2 DUP1 MLOAD DUP5 MSTORE PUSH1 0x20 DUP2 ADD MLOAD PUSH1 0x20 DUP6 ADD MSTORE PUSH1 0x40 DUP2 ADD MLOAD PUSH1 0x40 DUP6 ADD MSTORE PUSH1 0x60 DUP2 ADD MLOAD ISZERO ISZERO PUSH1 0x60 DUP6 ADD MSTORE ADD MLOAD ISZERO ISZERO SWAP2 ADD MSTORE JUMP JUMPDEST POP DUP1 ISZERO ISZERO PUSH2 0x21ED JUMP JUMPDEST CALLVALUE PUSH2 0x46F JUMPI PUSH0 CALLDATASIZE PUSH1 0x3 NOT ADD SLT PUSH2 0x46F JUMPI PUSH1 0x20 PUSH1 0x40 MLOAD PUSH3 0x278D00 DUP2 MSTORE RETURN JUMPDEST CALLVALUE PUSH2 0x46F JUMPI PUSH0 CALLDATASIZE PUSH1 0x3 NOT ADD SLT PUSH2 0x46F JUMPI PUSH2 0x2394 PUSH1 0x40 MLOAD PUSH2 0x2295 PUSH1 0xA0 DUP3 PUSH2 0x2AA9 JUMP JUMPDEST PUSH1 0x4 DUP2 MSTORE PUSH2 0x53B PUSH1 0x80 DUP1 CALLDATASIZE PUSH1 0x20 DUP6 ADD CALLDATACOPY PUSH2 0x23A2 PUSH1 0x40 MLOAD PUSH2 0x22B6 PUSH1 0xA0 DUP3 PUSH2 0x2AA9 JUMP JUMPDEST PUSH1 0x4 DUP2 MSTORE DUP3 CALLDATASIZE PUSH1 0x20 DUP4 ADD CALLDATACOPY PUSH1 0x40 MLOAD SWAP3 PUSH2 0x22D0 PUSH1 0xA0 DUP6 PUSH2 0x2AA9 JUMP JUMPDEST PUSH1 0x4 DUP5 MSTORE CALLDATASIZE PUSH1 0x20 DUP6 ADD CALLDATACOPY PUSH1 0x39 SLOAD DUP1 PUSH2 0x22E7 DUP8 PUSH2 0x2C6C JUMP JUMPDEST MSTORE PUSH1 0x3B SLOAD PUSH2 0x22F4 DUP8 PUSH2 0x2C79 JUMP JUMPDEST MSTORE PUSH0 MSTORE PUSH1 0x3D PUSH1 0x20 MSTORE PUSH1 0x40 PUSH0 KECCAK256 SLOAD PUSH2 0x230A DUP7 PUSH2 0x2C89 JUMP JUMPDEST MSTORE PUSH1 0x3A SLOAD PUSH2 0x2317 DUP7 PUSH2 0x2C99 JUMP JUMPDEST MSTORE PUSH1 0x40 SLOAD PUSH2 0x2324 DUP3 PUSH2 0x2C6C JUMP JUMPDEST MSTORE PUSH1 0x42 SLOAD PUSH2 0x2331 DUP3 PUSH2 0x2C79 JUMP JUMPDEST MSTORE PUSH1 0x44 SLOAD PUSH2 0x233E DUP3 PUSH2 0x2C89 JUMP JUMPDEST MSTORE PUSH1 0x41 SLOAD PUSH2 0x234B DUP3 PUSH2 0x2C99 JUMP JUMPDEST MSTORE PUSH1 0x47 SLOAD PUSH2 0x2358 DUP5 PUSH2 0x2C6C JUMP JUMPDEST MSTORE PUSH1 0x49 SLOAD PUSH2 0x2365 DUP5 PUSH2 0x2C79 JUMP JUMPDEST MSTORE PUSH1 0x4B SLOAD PUSH2 0x2372 DUP5 PUSH2 0x2C89 JUMP JUMPDEST MSTORE PUSH1 0x48 SLOAD PUSH2 0x237F DUP5 PUSH2 0x2C99 JUMP JUMPDEST MSTORE PUSH1 0x40 MLOAD SWAP6 DUP7 SWAP6 PUSH1 0x60 DUP8 MSTORE PUSH1 0x60 DUP8 ADD SWAP1 PUSH2 0x280B JUMP JUMPDEST SWAP1 DUP6 DUP3 SUB PUSH1 0x20 DUP8 ADD MSTORE PUSH2 0x280B JUMP JUMPDEST SWAP1 DUP4 DUP3 SUB PUSH1 0x40 DUP6 ADD MSTORE PUSH2 0x280B JUMP JUMPDEST CALLVALUE PUSH2 0x46F JUMPI PUSH1 0x20 CALLDATASIZE PUSH1 0x3 NOT ADD SLT PUSH2 0x46F JUMPI PUSH1 0x4 CALLDATALOAD PUSH1 0x17 SLOAD DUP2 LT ISZERO PUSH2 0x46F JUMPI PUSH1 0x17 SLOAD DUP2 LT ISZERO PUSH2 0x609 JUMPI PUSH1 0x17 PUSH0 MSTORE PUSH32 0xC624B66CC0138B8FABC209247F72D758E1CF3343756D543BADBF24212BED8C15 ADD SLOAD PUSH1 0x40 MLOAD SWAP1 DUP2 MSTORE PUSH1 0x20 SWAP1 RETURN JUMPDEST CALLVALUE PUSH2 0x46F JUMPI PUSH1 0x20 CALLDATASIZE PUSH1 0x3 NOT ADD SLT PUSH2 0x46F JUMPI PUSH1 0x4 CALLDATALOAD PUSH1 0x7 DUP2 LT ISZERO PUSH2 0x46F JUMPI PUSH1 0x20 SWAP1 PUSH1 0x18 ADD SLOAD PUSH1 0x40 MLOAD SWAP1 DUP2 MSTORE RETURN JUMPDEST CALLVALUE PUSH2 0x46F JUMPI PUSH1 0x20 CALLDATASIZE PUSH1 0x3 NOT ADD SLT PUSH2 0x46F JUMPI PUSH1 0x4 CALLDATALOAD PUSH0 MSTORE PUSH1 0x4D PUSH1 0x20 MSTORE PUSH1 0x40 PUSH0 KECCAK256 PUSH1 0x40 MLOAD SWAP1 DUP2 PUSH1 0x20 DUP3 SLOAD SWAP2 DUP3 DUP2 MSTORE ADD SWAP2 PUSH0 MSTORE PUSH1 0x20 PUSH0 KECCAK256 SWAP1 PUSH0 JUMPDEST DUP2 DUP2 LT PUSH2 0x2484 JUMPI PUSH2 0x53B DUP6 PUSH2 0x9AF DUP2 DUP8 SUB DUP3 PUSH2 0x2AA9 JUMP JUMPDEST DUP3 SLOAD DUP5 MSTORE PUSH1 0x20 SWAP1 SWAP4 ADD SWAP3 PUSH1 0x1 SWAP3 DUP4 ADD SWAP3 ADD PUSH2 0x246D JUMP JUMPDEST CALLVALUE PUSH2 0x46F JUMPI PUSH2 0x24A8 CALLDATASIZE PUSH2 0x2788 JUMP JUMPDEST SWAP1 PUSH2 0x24B1 PUSH2 0x2BBC JUMP JUMPDEST POP PUSH0 MSTORE PUSH1 0x35 PUSH1 0x20 MSTORE PUSH1 0x40 PUSH0 KECCAK256 SWAP1 PUSH0 MSTORE PUSH1 0x20 MSTORE PUSH1 0xA0 PUSH2 0x1B3C PUSH1 0x40 PUSH0 KECCAK256 PUSH2 0x2BE6 JUMP JUMPDEST CALLVALUE PUSH2 0x46F JUMPI PUSH2 0x24DF CALLDATASIZE PUSH2 0x2788 JUMP JUMPDEST SWAP1 PUSH0 MSTORE PUSH1 0x33 PUSH1 0x20 MSTORE PUSH1 0x40 PUSH0 KECCAK256 DUP1 SLOAD DUP3 LT ISZERO PUSH2 0x46F JUMPI PUSH1 0x20 SWAP2 PUSH2 0x578 SWAP2 PUSH2 0x27F6 JUMP JUMPDEST CALLVALUE PUSH2 0x46F JUMPI PUSH2 0x250E CALLDATASIZE PUSH2 0x283E JUMP JUMPDEST SWAP2 PUSH0 MSTORE PUSH1 0x36 PUSH1 0x20 MSTORE PUSH1 0x40 PUSH0 KECCAK256 SWAP1 PUSH0 MSTORE PUSH1 0x20 MSTORE PUSH1 0x40 PUSH0 KECCAK256 DUP1 SLOAD DUP3 LT ISZERO PUSH2 0x46F JUMPI PUSH1 0x20 SWAP2 PUSH2 0x578 SWAP2 PUSH2 0x27F6 JUMP JUMPDEST CALLVALUE PUSH2 0x46F JUMPI PUSH2 0x2547 CALLDATASIZE PUSH2 0x2788 JUMP JUMPDEST SWAP1 PUSH0 MSTORE PUSH1 0x31 PUSH1 0x20 MSTORE PUSH1 0x40 PUSH0 KECCAK256 SWAP1 PUSH0 MSTORE PUSH1 0x20 MSTORE PUSH1 0x40 PUSH0 KECCAK256 PUSH1 0x40 MLOAD SWAP1 DUP2 PUSH1 0x20 DUP3 SLOAD SWAP2 DUP3 DUP2 MSTORE ADD SWAP2 PUSH0 MSTORE PUSH1 0x20 PUSH0 KECCAK256 SWAP1 PUSH0 JUMPDEST DUP2 DUP2 LT PUSH2 0x258C JUMPI PUSH2 0x53B DUP6 PUSH2 0x9AF DUP2 DUP8 SUB DUP3 PUSH2 0x2AA9 JUMP JUMPDEST DUP3 SLOAD DUP5 MSTORE PUSH1 0x20 SWAP1 SWAP4 ADD SWAP3 PUSH1 0x1 SWAP3 DUP4 ADD SWAP3 ADD PUSH2 0x2575 JUMP JUMPDEST CALLVALUE PUSH2 0x46F JUMPI PUSH1 0x20 CALLDATASIZE PUSH1 0x3 NOT ADD SLT PUSH2 0x46F JUMPI PUSH1 0x4 CALLDATALOAD PUSH2 0x25BE PUSH2 0x2ACB JUMP JUMPDEST POP PUSH1 0x47 SLOAD DUP2 GT ISZERO DUP1 PUSH2 0x25EA JUMPI JUMPDEST PUSH2 0x25D4 SWAP1 PUSH2 0x2B0E JUMP JUMPDEST PUSH0 MSTORE PUSH1 0x4A PUSH1 0x20 MSTORE PUSH2 0x120 PUSH2 0x2106 PUSH1 0x40 PUSH0 KECCAK256 PUSH2 0x2B52 JUMP JUMPDEST POP DUP1 ISZERO ISZERO PUSH2 0x25CB JUMP JUMPDEST CALLVALUE PUSH2 0x46F JUMPI PUSH2 0x2601 CALLDATASIZE PUSH2 0x2788 JUMP JUMPDEST SWAP1 PUSH0 MSTORE PUSH1 0x3D PUSH1 0x20 MSTORE PUSH1 0x40 PUSH0 KECCAK256 DUP1 SLOAD DUP3 LT ISZERO PUSH2 0x46F JUMPI PUSH1 0x20 SWAP2 PUSH2 0x578 SWAP2 PUSH2 0x27F6 JUMP JUMPDEST CALLVALUE PUSH2 0x46F JUMPI PUSH1 0x20 CALLDATASIZE PUSH1 0x3 NOT ADD SLT PUSH2 0x46F JUMPI PUSH1 0x4 CALLDATALOAD PUSH0 MSTORE PUSH1 0xC PUSH1 0x20 MSTORE PUSH1 0x20 PUSH1 0x40 PUSH0 KECCAK256 SLOAD PUSH1 0x40 MLOAD SWAP1 DUP2 MSTORE RETURN JUMPDEST CALLVALUE PUSH2 0x46F JUMPI PUSH1 0x20 CALLDATASIZE PUSH1 0x3 NOT ADD SLT PUSH2 0x46F JUMPI PUSH1 0x4 CALLDATALOAD PUSH0 MSTORE PUSH1 0x4A PUSH1 0x20 MSTORE PUSH1 0x40 PUSH0 KECCAK256 DUP1 SLOAD PUSH2 0x53B PUSH1 0x1 DUP4 ADD SLOAD SWAP3 PUSH1 0x2 DUP2 ADD SLOAD SWAP1 PUSH1 0x3 DUP2 ADD SLOAD PUSH1 0x4 DUP3 ADD SLOAD PUSH1 0x5 DUP4 ADD SLOAD SWAP1 PUSH1 0x6 DUP5 ADD SLOAD SWAP3 PUSH1 0xFF PUSH1 0x8 PUSH1 0x7 DUP8 ADD SLOAD SWAP7 ADD SLOAD AND SWAP6 PUSH1 0x40 MLOAD SWAP10 DUP11 SWAP10 DUP11 PUSH2 0x279E JUMP JUMPDEST CALLVALUE PUSH2 0x46F JUMPI PUSH1 0x20 CALLDATASIZE PUSH1 0x3 NOT ADD SLT PUSH2 0x46F JUMPI PUSH1 0x4 CALLDATALOAD PUSH2 0x26C8 PUSH2 0x2ACB JUMP JUMPDEST POP PUSH1 0x39 SLOAD DUP2 GT ISZERO DUP1 PUSH2 0x26F4 JUMPI JUMPDEST PUSH2 0x26DE SWAP1 PUSH2 0x2B0E JUMP JUMPDEST PUSH0 MSTORE PUSH1 0x3C PUSH1 0x20 MSTORE PUSH2 0x120 PUSH2 0x2106 PUSH1 0x40 PUSH0 KECCAK256 PUSH2 0x2B52 JUMP JUMPDEST POP DUP1 ISZERO ISZERO PUSH2 0x26D5 JUMP JUMPDEST CALLVALUE PUSH2 0x46F JUMPI PUSH0 CALLDATASIZE PUSH1 0x3 NOT ADD SLT PUSH2 0x46F JUMPI PUSH1 0x20 PUSH1 0x40 MLOAD PUSH2 0x2710 DUP2 MSTORE RETURN JUMPDEST CALLVALUE PUSH2 0x46F JUMPI PUSH2 0x2727 CALLDATASIZE PUSH2 0x2788 JUMP JUMPDEST SWAP1 PUSH0 MSTORE PUSH1 0x3E PUSH1 0x20 MSTORE PUSH1 0x40 PUSH0 KECCAK256 SWAP1 PUSH0 MSTORE PUSH1 0x20 MSTORE DUP1 PUSH2 0x53B PUSH1 0x40 PUSH0 KECCAK256 DUP1 SLOAD PUSH1 0x1 DUP3 ADD SLOAD SWAP2 PUSH1 0x3 PUSH1 0x2 DUP3 ADD SLOAD SWAP2 ADD SLOAD SWAP3 PUSH1 0xFF DUP1 DUP6 PUSH1 0x8 SHR AND SWAP5 AND SWAP3 DUP7 SWAP4 SWAP1 SWAP6 SWAP5 SWAP2 SWAP3 PUSH1 0x80 SWAP4 PUSH1 0xA0 DUP7 ADD SWAP8 DUP7 MSTORE PUSH1 0x20 DUP7 ADD MSTORE PUSH1 0x40 DUP6 ADD MSTORE ISZERO ISZERO PUSH1 0x60 DUP5 ADD MSTORE ISZERO ISZERO SWAP2 ADD MSTORE JUMP JUMPDEST PUSH1 0x40 SWAP1 PUSH1 0x3 NOT ADD SLT PUSH2 0x46F JUMPI PUSH1 0x4 CALLDATALOAD SWAP1 PUSH1 0x24 CALLDATALOAD SWAP1 JUMP JUMPDEST SWAP8 SWAP5 SWAP2 SWAP3 PUSH2 0x100 SWAP8 SWAP5 SWAP2 SWAP11 SWAP10 SWAP7 SWAP4 PUSH2 0x120 DUP11 ADD SWAP12 DUP11 MSTORE PUSH1 0x20 DUP11 ADD MSTORE PUSH1 0x40 DUP10 ADD MSTORE PUSH1 0x60 DUP9 ADD MSTORE PUSH1 0x80 DUP8 ADD MSTORE PUSH1 0xA0 DUP7 ADD MSTORE PUSH1 0xC0 DUP6 ADD MSTORE PUSH1 0xE0 DUP5 ADD MSTORE ISZERO ISZERO SWAP2 ADD MSTORE JUMP JUMPDEST PUSH1 0xD SLOAD DUP2 LT ISZERO PUSH2 0x609 JUMPI PUSH1 0xD PUSH0 MSTORE PUSH1 0x20 PUSH0 KECCAK256 ADD SWAP1 PUSH0 SWAP1 JUMP JUMPDEST DUP1 SLOAD DUP3 LT ISZERO PUSH2 0x609 JUMPI PUSH0 MSTORE PUSH1 0x20 PUSH0 KECCAK256 ADD SWAP1 PUSH0 SWAP1 JUMP JUMPDEST SWAP1 PUSH1 0x20 DUP1 DUP4 MLOAD SWAP3 DUP4 DUP2 MSTORE ADD SWAP3 ADD SWAP1 PUSH0 JUMPDEST DUP2 DUP2 LT PUSH2 0x2828 JUMPI POP POP POP SWAP1 JUMP JUMPDEST DUP3 MLOAD DUP5 MSTORE PUSH1 0x20 SWAP4 DUP5 ADD SWAP4 SWAP1 SWAP3 ADD SWAP2 PUSH1 0x1 ADD PUSH2 0x281B JUMP JUMPDEST PUSH1 0x60 SWAP1 PUSH1 0x3 NOT ADD SLT PUSH2 0x46F JUMPI PUSH1 0x4 CALLDATALOAD SWAP1 PUSH1 0x24 CALLDATALOAD SWAP1 PUSH1 0x44 CALLDATALOAD SWAP1 JUMP JUMPDEST CALLVALUE PUSH2 0x46F JUMPI PUSH0 CALLDATASIZE PUSH1 0x3 NOT ADD SLT PUSH2 0x46F JUMPI PUSH1 0x20 PUSH1 0x40 MLOAD PUSH1 0xA DUP2 MSTORE RETURN JUMPDEST CALLVALUE PUSH2 0x46F JUMPI PUSH0 CALLDATASIZE PUSH1 0x3 NOT ADD SLT PUSH2 0x46F JUMPI PUSH1 0x20 PUSH1 0x40 MLOAD PUSH1 0xF DUP2 MSTORE RETURN JUMPDEST SWAP1 PUSH2 0x2C0 DUP2 ADD SWAP2 PUSH1 0x1 DUP1 PUSH1 0xA0 SHL SUB DUP2 MLOAD AND DUP3 MSTORE PUSH1 0x20 DUP2 ADD MLOAD SWAP3 PUSH2 0x2C0 PUSH1 0x20 DUP5 ADD MSTORE DUP4 MLOAD DUP1 SWAP2 MSTORE PUSH1 0x20 PUSH2 0x2E0 DUP5 ADD SWAP5 ADD SWAP1 PUSH0 JUMPDEST DUP2 DUP2 LT PUSH2 0x29AF JUMPI POP POP POP PUSH2 0x2A0 DUP2 PUSH1 0x40 DUP3 SWAP4 ADD MLOAD PUSH1 0x40 DUP6 ADD MSTORE PUSH1 0x60 DUP2 ADD MLOAD PUSH1 0x60 DUP6 ADD MSTORE PUSH1 0x80 DUP2 ADD MLOAD PUSH1 0x80 DUP6 ADD MSTORE PUSH1 0xA0 DUP2 ADD MLOAD PUSH1 0xA0 DUP6 ADD MSTORE PUSH1 0xC0 DUP2 ADD MLOAD PUSH1 0xC0 DUP6 ADD MSTORE PUSH1 0xE0 DUP2 ADD MLOAD PUSH1 0xE0 DUP6 ADD MSTORE PUSH2 0x100 DUP2 ADD MLOAD PUSH2 0x100 DUP6 ADD MSTORE PUSH2 0x120 DUP2 ADD MLOAD PUSH2 0x120 DUP6 ADD MSTORE PUSH2 0x140 DUP2 ADD MLOAD PUSH2 0x140 DUP6 ADD MSTORE PUSH2 0x160 DUP2 ADD MLOAD PUSH2 0x160 DUP6 ADD MSTORE PUSH2 0x180 DUP2 ADD MLOAD PUSH2 0x180 DUP6 ADD MSTORE PUSH2 0x1A0 DUP2 ADD MLOAD PUSH2 0x1A0 DUP6 ADD MSTORE PUSH2 0x1C0 DUP2 ADD MLOAD PUSH2 0x1C0 DUP6 ADD MSTORE PUSH2 0x1E0 DUP2 ADD MLOAD PUSH2 0x1E0 DUP6 ADD MSTORE PUSH2 0x200 DUP2 ADD MLOAD PUSH2 0x200 DUP6 ADD MSTORE PUSH2 0x220 DUP2 ADD MLOAD PUSH2 0x220 DUP6 ADD MSTORE PUSH2 0x240 DUP2 ADD MLOAD PUSH2 0x240 DUP6 ADD MSTORE PUSH2 0x260 DUP2 ADD MLOAD PUSH2 0x260 DUP6 ADD MSTORE PUSH2 0x280 DUP2 ADD MLOAD PUSH2 0x280 DUP6 ADD MSTORE ADD MLOAD SWAP2 ADD MSTORE SWAP1 JUMP JUMPDEST SWAP1 SWAP2 SWAP5 PUSH1 0x20 PUSH1 0x80 PUSH1 0x1 SWAP3 PUSH1 0xFF PUSH1 0x60 DUP11 MLOAD DUP1 MLOAD DUP5 MSTORE DUP6 DUP2 ADD MLOAD DUP7 DUP6 ADD MSTORE PUSH1 0x40 DUP2 ADD MLOAD PUSH1 0x40 DUP6 ADD MSTORE ADD MLOAD AND PUSH1 0x60 DUP3 ADD MSTORE ADD SWAP7 ADD SWAP2 ADD SWAP2 SWAP1 SWAP2 PUSH2 0x28C0 JUMP JUMPDEST PUSH2 0x2C0 DUP2 ADD SWAP1 DUP2 LT PUSH8 0xFFFFFFFFFFFFFFFF DUP3 GT OR PUSH2 0x2A07 JUMPI PUSH1 0x40 MSTORE JUMP JUMPDEST PUSH4 0x4E487B71 PUSH1 0xE0 SHL PUSH0 MSTORE PUSH1 0x41 PUSH1 0x4 MSTORE PUSH1 0x24 PUSH0 REVERT JUMPDEST PUSH1 0x80 DUP2 ADD SWAP1 DUP2 LT PUSH8 0xFFFFFFFFFFFFFFFF DUP3 GT OR PUSH2 0x2A07 JUMPI PUSH1 0x40 MSTORE JUMP JUMPDEST PUSH2 0x180 DUP2 ADD SWAP1 DUP2 LT PUSH8 0xFFFFFFFFFFFFFFFF DUP3 GT OR PUSH2 0x2A07 JUMPI PUSH1 0x40 MSTORE JUMP JUMPDEST PUSH1 0x40 DUP2 ADD SWAP1 DUP2 LT PUSH8 0xFFFFFFFFFFFFFFFF DUP3 GT OR PUSH2 0x2A07 JUMPI PUSH1 0x40 MSTORE JUMP JUMPDEST PUSH2 0x120 DUP2 ADD SWAP1 DUP2 LT PUSH8 0xFFFFFFFFFFFFFFFF DUP3 GT OR PUSH2 0x2A07 JUMPI PUSH1 0x40 MSTORE JUMP JUMPDEST PUSH1 0xA0 DUP2 ADD SWAP1 DUP2 LT PUSH8 0xFFFFFFFFFFFFFFFF DUP3 GT OR PUSH2 0x2A07 JUMPI PUSH1 0x40 MSTORE JUMP JUMPDEST SWAP1 PUSH1 0x1F DUP1 NOT SWAP2 ADD AND DUP2 ADD SWAP1 DUP2 LT PUSH8 0xFFFFFFFFFFFFFFFF DUP3 GT OR PUSH2 0x2A07 JUMPI PUSH1 0x40 MSTORE JUMP JUMPDEST PUSH1 0x40 MLOAD SWAP1 PUSH2 0x2AD8 DUP3 PUSH2 0x2A70 JUMP JUMPDEST PUSH0 PUSH2 0x100 DUP4 DUP3 DUP2 MSTORE DUP3 PUSH1 0x20 DUP3 ADD MSTORE DUP3 PUSH1 0x40 DUP3 ADD MSTORE DUP3 PUSH1 0x60 DUP3 ADD MSTORE DUP3 PUSH1 0x80 DUP3 ADD MSTORE DUP3 PUSH1 0xA0 DUP3 ADD MSTORE DUP3 PUSH1 0xC0 DUP3 ADD MSTORE DUP3 PUSH1 0xE0 DUP3 ADD MSTORE ADD MSTORE JUMP JUMPDEST ISZERO PUSH2 0x2B15 JUMPI JUMP JUMPDEST PUSH1 0x40 MLOAD PUSH3 0x461BCD PUSH1 0xE5 SHL DUP2 MSTORE PUSH1 0x20 PUSH1 0x4 DUP3 ADD MSTORE PUSH1 0x15 PUSH1 0x24 DUP3 ADD MSTORE PUSH21 0x125B9D985B1A59081BDC881B9BDD0818DB1BDCD959 PUSH1 0x5A SHL PUSH1 0x44 DUP3 ADD MSTORE PUSH1 0x64 SWAP1 REVERT JUMPDEST SWAP1 PUSH1 0x40 MLOAD PUSH2 0x2B5F DUP2 PUSH2 0x2A70 JUMP JUMPDEST PUSH2 0x100 PUSH1 0xFF PUSH1 0x8 DUP4 SWAP6 DUP1 SLOAD DUP6 MSTORE PUSH1 0x1 DUP2 ADD SLOAD PUSH1 0x20 DUP7 ADD MSTORE PUSH1 0x2 DUP2 ADD SLOAD PUSH1 0x40 DUP7 ADD MSTORE PUSH1 0x3 DUP2 ADD SLOAD PUSH1 0x60 DUP7 ADD MSTORE PUSH1 0x4 DUP2 ADD SLOAD PUSH1 0x80 DUP7 ADD MSTORE PUSH1 0x5 DUP2 ADD SLOAD PUSH1 0xA0 DUP7 ADD MSTORE PUSH1 0x6 DUP2 ADD SLOAD PUSH1 0xC0 DUP7 ADD MSTORE PUSH1 0x7 DUP2 ADD SLOAD PUSH1 0xE0 DUP7 ADD MSTORE ADD SLOAD AND ISZERO ISZERO SWAP2 ADD MSTORE JUMP JUMPDEST PUSH1 0x40 MLOAD SWAP1 PUSH2 0x2BC9 DUP3 PUSH2 0x2A8D JUMP JUMPDEST PUSH0 PUSH1 0x80 DUP4 DUP3 DUP2 MSTORE DUP3 PUSH1 0x20 DUP3 ADD MSTORE DUP3 PUSH1 0x40 DUP3 ADD MSTORE DUP3 PUSH1 0x60 DUP3 ADD MSTORE ADD MSTORE JUMP JUMPDEST SWAP1 PUSH1 0x40 MLOAD PUSH2 0x2BF3 DUP2 PUSH2 0x2A8D JUMP JUMPDEST PUSH1 0x80 PUSH1 0x4 DUP3 SWAP5 DUP1 SLOAD DUP5 MSTORE PUSH1 0x1 DUP2 ADD SLOAD PUSH1 0x20 DUP6 ADD MSTORE PUSH1 0x2 DUP2 ADD SLOAD PUSH1 0x40 DUP6 ADD MSTORE PUSH1 0x3 DUP2 ADD SLOAD PUSH1 0x60 DUP6 ADD MSTORE ADD SLOAD SWAP2 ADD MSTORE JUMP JUMPDEST PUSH8 0xFFFFFFFFFFFFFFFF DUP2 GT PUSH2 0x2A07 JUMPI PUSH1 0x5 SHL PUSH1 0x20 ADD SWAP1 JUMP JUMPDEST SWAP1 PUSH2 0x2C44 DUP3 PUSH2 0x2C22 JUMP JUMPDEST PUSH2 0x2C51 PUSH1 0x40 MLOAD SWAP2 DUP3 PUSH2 0x2AA9 JUMP JUMPDEST DUP3 DUP2 MSTORE DUP1 SWAP3 PUSH2 0x2C62 PUSH1 0x1F NOT SWAP2 PUSH2 0x2C22 JUMP JUMPDEST ADD SWAP1 PUSH1 0x20 CALLDATASIZE SWAP2 ADD CALLDATACOPY JUMP JUMPDEST DUP1 MLOAD ISZERO PUSH2 0x609 JUMPI PUSH1 0x20 ADD SWAP1 JUMP JUMPDEST DUP1 MLOAD PUSH1 0x1 LT ISZERO PUSH2 0x609 JUMPI PUSH1 0x40 ADD SWAP1 JUMP JUMPDEST DUP1 MLOAD PUSH1 0x2 LT ISZERO PUSH2 0x609 JUMPI PUSH1 0x60 ADD SWAP1 JUMP JUMPDEST DUP1 MLOAD PUSH1 0x3 LT ISZERO PUSH2 0x609 JUMPI PUSH1 0x80 ADD SWAP1 JUMP JUMPDEST DUP1 MLOAD DUP3 LT ISZERO PUSH2 0x609 JUMPI PUSH1 0x20 SWAP2 PUSH1 0x5 SHL ADD ADD SWAP1 JUMP JUMPDEST SWAP1 PUSH1 0x40 MLOAD PUSH2 0x2CCA DUP2 PUSH2 0x2A8D JUMP JUMPDEST PUSH1 0x80 PUSH1 0xFF PUSH1 0x3 DUP4 SWAP6 DUP1 SLOAD DUP6 MSTORE PUSH1 0x1 DUP2 ADD SLOAD PUSH1 0x20 DUP7 ADD MSTORE PUSH1 0x2 DUP2 ADD SLOAD PUSH1 0x40 DUP7 ADD MSTORE ADD SLOAD DUP2 DUP2 AND ISZERO ISZERO PUSH1 0x60 DUP6 ADD MSTORE PUSH1 0x8 SHR AND ISZERO ISZERO SWAP2 ADD MSTORE JUMP JUMPDEST ISZERO PUSH2 0x2D08 JUMPI JUMP JUMPDEST PUSH1 0x40 MLOAD PUSH3 0x461BCD PUSH1 0xE5 SHL DUP2 MSTORE PUSH1 0x20 PUSH1 0x4 DUP3 ADD MSTORE PUSH1 0xD PUSH1 0x24 DUP3 ADD MSTORE PUSH13 0x139BDD081C5D585B1A599A5959 PUSH1 0x9A SHL PUSH1 0x44 DUP3 ADD MSTORE PUSH1 0x64 SWAP1 REVERT JUMPDEST PUSH1 0x40 MLOAD SWAP1 PUSH2 0x2D4A DUP3 PUSH2 0x29EA JUMP JUMPDEST PUSH0 PUSH2 0x2A0 DUP4 DUP3 DUP2 MSTORE PUSH1 0x60 PUSH1 0x20 DUP3 ADD MSTORE DUP3 PUSH1 0x40 DUP3 ADD MSTORE DUP3 PUSH1 0x60 DUP3 ADD MSTORE DUP3 PUSH1 0x80 DUP3 ADD MSTORE DUP3 PUSH1 0xA0 DUP3 ADD MSTORE DUP3 PUSH1 0xC0 DUP3 ADD MSTORE DUP3 PUSH1 0xE0 DUP3 ADD MSTORE DUP3 PUSH2 0x100 DUP3 ADD MSTORE DUP3 PUSH2 0x120 DUP3 ADD MSTORE DUP3 PUSH2 0x140 DUP3 ADD MSTORE DUP3 PUSH2 0x160 DUP3 ADD MSTORE DUP3 PUSH2 0x180 DUP3 ADD MSTORE DUP3 PUSH2 0x1A0 DUP3 ADD MSTORE DUP3 PUSH2 0x1C0 DUP3 ADD MSTORE DUP3 PUSH2 0x1E0 DUP3 ADD MSTORE DUP3 PUSH2 0x200 DUP3 ADD MSTORE DUP3 PUSH2 0x220 DUP3 ADD MSTORE DUP3 PUSH2 0x240 DUP3 ADD MSTORE DUP3 PUSH2 0x260 DUP3 ADD MSTORE DUP3 PUSH2 0x280 DUP3 ADD MSTORE ADD MSTORE JUMP INVALID LOG2 PUSH5 0x6970667358 0x22 SLT KECCAK256 0xE PUSH15 0xC09D3CCD4EB9A64D4D46AB7771F22F CODESIZE SWAP5 PUSH10 0xFBE2334D59F5C5ACE741 0xC2 0xFC PUSH5 0x736F6C6343 STOP ADDMOD 0x1E STOP CALLER "
		},
		"gasEstimates": {
			"creation": {
				"codeDepositCost": "2358800",
				"executionCost": "infinite",
				"totalCost": "infinite"
			},
			"external": {
				"ACC_PRECISION()": "730",
				"MONTHLY_ROYALTY_DIRECT()": "2028",
				"MONTHLY_ROYALTY_LEVEL()": "500",
				"MONTHLY_ROYALTY_TIME()": "1588",
				"MONTH_DURATION()": "532",
				"PERCENTS_DIVIDER()": "202",
				"ROI_2X_TIME()": "818",
				"ROI_CAP_DIVIDER()": "1072",
				"ROI_CAP_MULTIPLIER()": "786",
				"TIME_STEP()": "708",
				"TOP_ROYALTY_DIRECT()": "686",
				"TOP_ROYALTY_LEVEL()": "566",
				"TOP_ROYALTY_TIME()": "1214",
				"WEEK_DURATION()": "1258",
				"WeeklyCapping()": "2160",
				"WeeklyTotalReward()": "2767",
				"addressToId(address)": "4176",
				"boosterUsers(uint256,uint256)": "8436",
				"communityAccPerPackage(uint256)": "3074",
				"communityAccPerUser()": "3383",
				"communityDebt(uint256,uint256)": "3639",
				"creatorWallet()": "3429",
				"currentMonthlyRound()": "4021",
				"currentMonthlyStartTime()": "4219",
				"currentWeeklyRound()": "4043",
				"currentWeeklyStartTime()": "4414",
				"defaultRefId()": "4285",
				"directReferrals(uint256,uint256)": "7732",
				"getBoosterChild(uint256,uint256)": "infinite",
				"getBoosterDetails(uint256,uint256)": "infinite",
				"getCompleteUserInfo(uint256)": "infinite",
				"getCurrrentContestDetails()": "infinite",
				"getDirectsUsersEssentialInfo(uint256)": "infinite",
				"getMatrixDirect(uint256)": "3800",
				"getMatrixUsers(uint256,uint256)": "infinite",
				"getMonthlyRoyaltyDetails(uint256)": "infinite",
				"getMonthlyRoyaltyUserDirects(uint256)": "infinite",
				"getPoolChild(uint256,uint256)": "infinite",
				"getPoolDetails(uint256,uint256)": "infinite",
				"getPoolTopup(uint256,uint256)": "infinite",
				"getTopRoyaltyDetails(uint256)": "infinite",
				"getTopRoyaltyUserDirects(uint256)": "infinite",
				"getUserIncomeDetails(uint256)": "infinite",
				"getUserInfo(uint256)": "19122",
				"getUserMonthlyRoyaltyDetails(uint256,uint256)": "13108",
				"getUserPackage(uint256)": "infinite",
				"getUserPoolIds(uint256,uint256)": "infinite",
				"getUserTeam(uint256)": "infinite",
				"getUserTopRoyaltyDetails(uint256,uint256)": "11973",
				"getWeeklyContestDetails(uint256)": "infinite",
				"getWeeklyUserDetails(uint256,uint256)": "infinite",
				"getWeeklyUserDirects(uint256,uint256)": "infinite",
				"glbBoosterPackages(uint256)": "6840",
				"incomeHistory(uint256,uint256)": "14196",
				"isUserClaimedMonthlyRoyalty(uint256,uint256)": "5432",
				"isUserClaimedTopRoyalty(uint256,uint256)": "6642",
				"matrixDirect(uint256)": "3514",
				"minLevelForGlbBooster(uint256)": "4147",
				"minLevelForPool(uint256)": "2585",
				"minPoolForGlbBooster(uint256)": "3597",
				"monthlyCapping()": "1896",
				"monthlyQualifiedUsers(uint256)": "6972",
				"monthlyRoyaltyUserdtl(uint256)": "9477",
				"monthlyRoyaltydtl(uint256)": "20463",
				"monthlyTotalReward()": "3647",
				"monthlyUserDirects(uint256,uint256)": "8810",
				"packageQualifiedUsers(uint256)": "2436",
				"packages(uint256)": "8267",
				"poolPackages(uint256)": "8028",
				"poolUsers(uint256,uint256)": "6940",
				"registeredUserIds(uint256)": "7170",
				"systemMaintance()": "4265",
				"teamDevelopment()": "4353",
				"teams(uint256,uint256,uint256)": "7714",
				"topRoyaltyQualifiedUsers(uint256)": "8578",
				"topRoyaltyReward()": "3229",
				"topRoyaltyRound()": "3053",
				"topRoyaltyStartTime()": "3581",
				"topRoyaltyUserDirects(uint256,uint256)": "7534",
				"topRoyaltyUserdtl(uint256)": "10687",
				"topRoyaltydtl(uint256)": "19517",
				"totalUsers()": "3889",
				"usdt()": "2769",
				"userBoosterChildren(uint256,uint256,uint256)": "6988",
				"userBoosterdtl(uint256,uint256)": "12270",
				"userChildren(uint256,uint256,uint256)": "8044",
				"userHasPool(uint256,uint256)": "3981",
				"userHasbooster(uint256,uint256)": "3783",
				"userIdPerPool(uint256,uint256,uint256)": "8022",
				"userIncomes(uint256)": "26485",
				"userPackage(uint256,uint256)": "9840",
				"userPooldtl(uint256,uint256)": "12820",
				"userPooltopup(uint256,uint256)": "6140",
				"users(uint256)": "45669",
				"weeklyContestdtl(uint256)": "21101",
				"weeklyQualifiedUsers(uint256,uint256)": "6852",
				"weeklyUserDirects(uint256,uint256,uint256)": "7626",
				"weeklyUserdtl(uint256,uint256)": "8929"
			}
		},
		"methodIdentifiers": {
			"ACC_PRECISION()": "32fcd966",
			"MONTHLY_ROYALTY_DIRECT()": "d2f0490d",
			"MONTHLY_ROYALTY_LEVEL()": "23fd338e",
			"MONTHLY_ROYALTY_TIME()": "a5e52b99",
			"MONTH_DURATION()": "2a891534",
			"PERCENTS_DIVIDER()": "01c234a8",
			"ROI_2X_TIME()": "3a5084b3",
			"ROI_CAP_DIVIDER()": "58c7d352",
			"ROI_CAP_MULTIPLIER()": "375b43b4",
			"TIME_STEP()": "32bc298c",
			"TOP_ROYALTY_DIRECT()": "31bb6a30",
			"TOP_ROYALTY_LEVEL()": "2ae0ee0d",
			"TOP_ROYALTY_TIME()": "705fee2d",
			"WEEK_DURATION()": "76f5f700",
			"WeeklyCapping()": "ebe0ff15",
			"WeeklyTotalReward()": "3080b5bc",
			"addressToId(address)": "cb0e0d7d",
			"boosterUsers(uint256,uint256)": "c7bb62e8",
			"communityAccPerPackage(uint256)": "45cb537c",
			"communityAccPerUser()": "78f6ad6d",
			"communityDebt(uint256,uint256)": "89043ece",
			"creatorWallet()": "7cdc65f2",
			"currentMonthlyRound()": "c9ed0708",
			"currentMonthlyStartTime()": "e898fc38",
			"currentWeeklyRound()": "ca8e9121",
			"currentWeeklyStartTime()": "fddc806f",
			"defaultRefId()": "ec597e6f",
			"directReferrals(uint256,uint256)": "5ec64a44",
			"getBoosterChild(uint256,uint256)": "be4eb94e",
			"getBoosterDetails(uint256,uint256)": "18847cf0",
			"getCompleteUserInfo(uint256)": "aaa359c2",
			"getCurrrentContestDetails()": "2571781c",
			"getDirectsUsersEssentialInfo(uint256)": "a5de8788",
			"getMatrixDirect(uint256)": "aac6b121",
			"getMatrixUsers(uint256,uint256)": "5227cc14",
			"getMonthlyRoyaltyDetails(uint256)": "2d7ce320",
			"getMonthlyRoyaltyUserDirects(uint256)": "9c8fe993",
			"getPoolChild(uint256,uint256)": "0b3f58eb",
			"getPoolDetails(uint256,uint256)": "4eb54240",
			"getPoolTopup(uint256,uint256)": "fb67693c",
			"getTopRoyaltyDetails(uint256)": "0b3c4371",
			"getTopRoyaltyUserDirects(uint256)": "1cbc203a",
			"getUserIncomeDetails(uint256)": "bf8058b1",
			"getUserInfo(uint256)": "d379dadf",
			"getUserMonthlyRoyaltyDetails(uint256,uint256)": "f7e87e90",
			"getUserPackage(uint256)": "82601f96",
			"getUserPoolIds(uint256,uint256)": "3bd990ac",
			"getUserTeam(uint256)": "bb6a6115",
			"getUserTopRoyaltyDetails(uint256,uint256)": "5cf3fa1b",
			"getWeeklyContestDetails(uint256)": "04f18ced",
			"getWeeklyUserDetails(uint256,uint256)": "2d5aca46",
			"getWeeklyUserDirects(uint256,uint256)": "c592a97c",
			"glbBoosterPackages(uint256)": "2350268f",
			"incomeHistory(uint256,uint256)": "70c8d770",
			"isUserClaimedMonthlyRoyalty(uint256,uint256)": "43ee4bd9",
			"isUserClaimedTopRoyalty(uint256,uint256)": "e191996c",
			"matrixDirect(uint256)": "88afbe3e",
			"minLevelForGlbBooster(uint256)": "d0a2fd79",
			"minLevelForPool(uint256)": "2132d204",
			"minPoolForGlbBooster(uint256)": "956a3228",
			"monthlyCapping()": "c8df2908",
			"monthlyQualifiedUsers(uint256)": "2d66014f",
			"monthlyRoyaltyUserdtl(uint256)": "4036436c",
			"monthlyRoyaltydtl(uint256)": "6a424782",
			"monthlyTotalReward()": "a59d17d1",
			"monthlyUserDirects(uint256,uint256)": "f7a24806",
			"packageQualifiedUsers(uint256)": "0676d0d6",
			"packages(uint256)": "c216212a",
			"poolPackages(uint256)": "ae4708dc",
			"poolUsers(uint256,uint256)": "0f2b7cc9",
			"registeredUserIds(uint256)": "39ab3603",
			"systemMaintance()": "e9e34a16",
			"teamDevelopment()": "f5d74d93",
			"teams(uint256,uint256,uint256)": "5aabf7f1",
			"topRoyaltyQualifiedUsers(uint256)": "f5748c4f",
			"topRoyaltyReward()": "5b62d1d5",
			"topRoyaltyRound()": "4b8cbf9b",
			"topRoyaltyStartTime()": "9b40ab97",
			"topRoyaltyUserDirects(uint256,uint256)": "4d12ae0f",
			"topRoyaltyUserdtl(uint256)": "db27cc71",
			"topRoyaltydtl(uint256)": "056b4d1f",
			"totalUsers()": "bff1f9e1",
			"usdt()": "2f48ab7d",
			"userBoosterChildren(uint256,uint256,uint256)": "0ef81b74",
			"userBoosterdtl(uint256,uint256)": "907c84a7",
			"userChildren(uint256,uint256,uint256)": "8f030ece",
			"userHasPool(uint256,uint256)": "bd1aae40",
			"userHasbooster(uint256,uint256)": "9c383486",
			"userIdPerPool(uint256,uint256,uint256)": "8d58644c",
			"userIncomes(uint256)": "46b9dece",
			"userPackage(uint256,uint256)": "5b58ce6c",
			"userPooldtl(uint256,uint256)": "ce79c2c3",
			"userPooltopup(uint256,uint256)": "bf724672",
			"users(uint256)": "365b98b2",
			"weeklyContestdtl(uint256)": "c4eb42a5",
			"weeklyQualifiedUsers(uint256,uint256)": "0a5c5d69",
			"weeklyUserDirects(uint256,uint256,uint256)": "4d4cc5ca",
			"weeklyUserdtl(uint256,uint256)": "0054815d"
		}
	},
	"abi": [
		{
			"inputs": [],
			"stateMutability": "nonpayable",
			"type": "constructor"
		},
		{
			"anonymous": false,
			"inputs": [
				{
					"indexed": false,
					"internalType": "uint256",
					"name": "amount",
					"type": "uint256"
				},
				{
					"indexed": false,
					"internalType": "uint256",
					"name": "usersCount",
					"type": "uint256"
				},
				{
					"indexed": false,
					"internalType": "uint256",
					"name": "perUser",
					"type": "uint256"
				}
			],
			"name": "CommunityBonusDistributed",
			"type": "event"
		},
		{
			"anonymous": false,
			"inputs": [
				{
					"indexed": true,
					"internalType": "address",
					"name": "to",
					"type": "address"
				},
				{
					"indexed": true,
					"internalType": "address",
					"name": "from",
					"type": "address"
				},
				{
					"indexed": false,
					"internalType": "uint256",
					"name": "amount",
					"type": "uint256"
				},
				{
					"indexed": false,
					"internalType": "uint256",
					"name": "packageLevel",
					"type": "uint256"
				},
				{
					"indexed": false,
					"internalType": "uint256",
					"name": "incomeType",
					"type": "uint256"
				}
			],
			"name": "IncomeDistributed",
			"type": "event"
		},
		{
			"anonymous": false,
			"inputs": [
				{
					"indexed": true,
					"internalType": "address",
					"name": "to",
					"type": "address"
				},
				{
					"indexed": true,
					"internalType": "uint256",
					"name": "toId",
					"type": "uint256"
				},
				{
					"indexed": true,
					"internalType": "uint256",
					"name": "fromId",
					"type": "uint256"
				},
				{
					"indexed": false,
					"internalType": "uint256",
					"name": "amount",
					"type": "uint256"
				},
				{
					"indexed": false,
					"internalType": "uint256",
					"name": "packageLevel",
					"type": "uint256"
				},
				{
					"indexed": false,
					"internalType": "enum Storage.IncomeType",
					"name": "incomeType",
					"type": "uint8"
				},
				{
					"indexed": false,
					"internalType": "uint256",
					"name": "timestamp",
					"type": "uint256"
				}
			],
			"name": "IncomeDistribution",
			"type": "event"
		},
		{
			"anonymous": false,
			"inputs": [
				{
					"indexed": true,
					"internalType": "address",
					"name": "winner",
					"type": "address"
				},
				{
					"indexed": true,
					"internalType": "uint256",
					"name": "fromUserId",
					"type": "uint256"
				},
				{
					"indexed": false,
					"internalType": "uint256",
					"name": "amount",
					"type": "uint256"
				},
				{
					"indexed": false,
					"internalType": "uint256",
					"name": "timestamp",
					"type": "uint256"
				}
			],
			"name": "LotteryReward",
			"type": "event"
		},
		{
			"anonymous": false,
			"inputs": [
				{
					"indexed": false,
					"internalType": "uint256",
					"name": "roundId",
					"type": "uint256"
				},
				{
					"indexed": false,
					"internalType": "uint256",
					"name": "totalUsers",
					"type": "uint256"
				},
				{
					"indexed": false,
					"internalType": "uint256",
					"name": "perUserReward",
					"type": "uint256"
				},
				{
					"indexed": false,
					"internalType": "uint256",
					"name": "totalReward",
					"type": "uint256"
				},
				{
					"indexed": false,
					"internalType": "uint256",
					"name": "totalDistributed",
					"type": "uint256"
				},
				{
					"indexed": false,
					"internalType": "uint256",
					"name": "leftoverReward",
					"type": "uint256"
				},
				{
					"indexed": false,
					"internalType": "uint256",
					"name": "endTime",
					"type": "uint256"
				}
			],
			"name": "MonthlyClosed",
			"type": "event"
		},
		{
			"anonymous": false,
			"inputs": [
				{
					"indexed": false,
					"internalType": "uint256",
					"name": "roundId",
					"type": "uint256"
				},
				{
					"indexed": false,
					"internalType": "uint256",
					"name": "userId",
					"type": "uint256"
				},
				{
					"indexed": false,
					"internalType": "uint256",
					"name": "perUserReward",
					"type": "uint256"
				},
				{
					"indexed": false,
					"internalType": "uint256",
					"name": "claimTime",
					"type": "uint256"
				}
			],
			"name": "MonthlyRewardClaim",
			"type": "event"
		},
		{
			"anonymous": false,
			"inputs": [
				{
					"indexed": false,
					"internalType": "uint256",
					"name": "roundId",
					"type": "uint256"
				},
				{
					"indexed": false,
					"internalType": "uint256",
					"name": "userId",
					"type": "uint256"
				},
				{
					"indexed": false,
					"internalType": "uint256",
					"name": "joinTime",
					"type": "uint256"
				}
			],
			"name": "MonthlyRoyaltyQualified",
			"type": "event"
		},
		{
			"anonymous": false,
			"inputs": [
				{
					"indexed": true,
					"internalType": "address",
					"name": "user",
					"type": "address"
				},
				{
					"indexed": true,
					"internalType": "address",
					"name": "sponsor",
					"type": "address"
				},
				{
					"indexed": true,
					"internalType": "uint256",
					"name": "userId",
					"type": "uint256"
				},
				{
					"indexed": false,
					"internalType": "uint256",
					"name": "uplineId",
					"type": "uint256"
				}
			],
			"name": "Registration",
			"type": "event"
		},
		{
			"anonymous": false,
			"inputs": [
				{
					"indexed": true,
					"internalType": "address",
					"name": "to",
					"type": "address"
				},
				{
					"indexed": false,
					"internalType": "uint256",
					"name": "amount",
					"type": "uint256"
				},
				{
					"indexed": false,
					"internalType": "string",
					"name": "level",
					"type": "string"
				}
			],
			"name": "RewardSent",
			"type": "event"
		},
		{
			"anonymous": false,
			"inputs": [
				{
					"indexed": false,
					"internalType": "uint256",
					"name": "roundId",
					"type": "uint256"
				},
				{
					"indexed": false,
					"internalType": "uint256",
					"name": "totalUsers",
					"type": "uint256"
				},
				{
					"indexed": false,
					"internalType": "uint256",
					"name": "perUserReward",
					"type": "uint256"
				},
				{
					"indexed": false,
					"internalType": "uint256",
					"name": "totalReward",
					"type": "uint256"
				},
				{
					"indexed": false,
					"internalType": "uint256",
					"name": "totalDistributed",
					"type": "uint256"
				},
				{
					"indexed": false,
					"internalType": "uint256",
					"name": "leftoverReward",
					"type": "uint256"
				},
				{
					"indexed": false,
					"internalType": "uint256",
					"name": "endTime",
					"type": "uint256"
				}
			],
			"name": "TopRoyaltyClosed",
			"type": "event"
		},
		{
			"anonymous": false,
			"inputs": [
				{
					"indexed": false,
					"internalType": "uint256",
					"name": "roundId",
					"type": "uint256"
				},
				{
					"indexed": false,
					"internalType": "uint256",
					"name": "userId",
					"type": "uint256"
				},
				{
					"indexed": false,
					"internalType": "uint256",
					"name": "joinTime",
					"type": "uint256"
				}
			],
			"name": "TopRoyaltyQualified",
			"type": "event"
		},
		{
			"anonymous": false,
			"inputs": [
				{
					"indexed": false,
					"internalType": "uint256",
					"name": "roundId",
					"type": "uint256"
				},
				{
					"indexed": false,
					"internalType": "uint256",
					"name": "userId",
					"type": "uint256"
				},
				{
					"indexed": false,
					"internalType": "uint256",
					"name": "perUserReward",
					"type": "uint256"
				},
				{
					"indexed": false,
					"internalType": "uint256",
					"name": "claimTime",
					"type": "uint256"
				}
			],
			"name": "TopRoyaltyRewardClaim",
			"type": "event"
		},
		{
			"anonymous": false,
			"inputs": [
				{
					"indexed": true,
					"internalType": "address",
					"name": "user",
					"type": "address"
				},
				{
					"indexed": true,
					"internalType": "uint256",
					"name": "userId",
					"type": "uint256"
				},
				{
					"indexed": false,
					"internalType": "uint256",
					"name": "packageLevel",
					"type": "uint256"
				},
				{
					"indexed": false,
					"internalType": "uint256",
					"name": "packagePrice",
					"type": "uint256"
				},
				{
					"indexed": false,
					"internalType": "string",
					"name": "depositType",
					"type": "string"
				},
				{
					"indexed": false,
					"internalType": "uint256",
					"name": "upgradeTime",
					"type": "uint256"
				}
			],
			"name": "Upgrade",
			"type": "event"
		},
		{
			"anonymous": false,
			"inputs": [
				{
					"indexed": true,
					"internalType": "uint8",
					"name": "matrixId",
					"type": "uint8"
				},
				{
					"indexed": true,
					"internalType": "uint32",
					"name": "userId",
					"type": "uint32"
				},
				{
					"indexed": true,
					"internalType": "address",
					"name": "user",
					"type": "address"
				},
				{
					"indexed": false,
					"internalType": "uint32",
					"name": "parentId",
					"type": "uint32"
				},
				{
					"indexed": false,
					"internalType": "address",
					"name": "parentAddr",
					"type": "address"
				},
				{
					"indexed": false,
					"internalType": "uint8",
					"name": "position",
					"type": "uint8"
				}
			],
			"name": "UserJoined",
			"type": "event"
		},
		{
			"anonymous": false,
			"inputs": [
				{
					"indexed": false,
					"internalType": "uint256",
					"name": "roundId",
					"type": "uint256"
				},
				{
					"indexed": false,
					"internalType": "uint256",
					"name": "totalUsers",
					"type": "uint256"
				},
				{
					"indexed": false,
					"internalType": "uint256",
					"name": "perUserReward",
					"type": "uint256"
				},
				{
					"indexed": false,
					"internalType": "uint256",
					"name": "totalReward",
					"type": "uint256"
				},
				{
					"indexed": false,
					"internalType": "uint256",
					"name": "totalDistributed",
					"type": "uint256"
				},
				{
					"indexed": false,
					"internalType": "uint256",
					"name": "leftoverReward",
					"type": "uint256"
				},
				{
					"indexed": false,
					"internalType": "uint256",
					"name": "endTime",
					"type": "uint256"
				}
			],
			"name": "WeeklyClosed",
			"type": "event"
		},
		{
			"anonymous": false,
			"inputs": [
				{
					"indexed": false,
					"internalType": "uint256",
					"name": "roundId",
					"type": "uint256"
				},
				{
					"indexed": false,
					"internalType": "uint256",
					"name": "userId",
					"type": "uint256"
				},
				{
					"indexed": false,
					"internalType": "uint256",
					"name": "joinTime",
					"type": "uint256"
				}
			],
			"name": "WeeklyContestQualified",
			"type": "event"
		},
		{
			"anonymous": false,
			"inputs": [
				{
					"indexed": false,
					"internalType": "uint256",
					"name": "roundId",
					"type": "uint256"
				},
				{
					"indexed": false,
					"internalType": "uint256",
					"name": "userId",
					"type": "uint256"
				},
				{
					"indexed": false,
					"internalType": "uint256",
					"name": "perUserReward",
					"type": "uint256"
				},
				{
					"indexed": false,
					"internalType": "uint256",
					"name": "claimTime",
					"type": "uint256"
				}
			],
			"name": "WeeklyRewardClaim",
			"type": "event"
		},
		{
			"inputs": [],
			"name": "ACC_PRECISION",
			"outputs": [
				{
					"internalType": "uint256",
					"name": "",
					"type": "uint256"
				}
			],
			"stateMutability": "view",
			"type": "function"
		},
		{
			"inputs": [],
			"name": "MONTHLY_ROYALTY_DIRECT",
			"outputs": [
				{
					"internalType": "uint256",
					"name": "",
					"type": "uint256"
				}
			],
			"stateMutability": "view",
			"type": "function"
		},
		{
			"inputs": [],
			"name": "MONTHLY_ROYALTY_LEVEL",
			"outputs": [
				{
					"internalType": "uint256",
					"name": "",
					"type": "uint256"
				}
			],
			"stateMutability": "view",
			"type": "function"
		},
		{
			"inputs": [],
			"name": "MONTHLY_ROYALTY_TIME",
			"outputs": [
				{
					"internalType": "uint256",
					"name": "",
					"type": "uint256"
				}
			],
			"stateMutability": "view",
			"type": "function"
		},
		{
			"inputs": [],
			"name": "MONTH_DURATION",
			"outputs": [
				{
					"internalType": "uint256",
					"name": "",
					"type": "uint256"
				}
			],
			"stateMutability": "view",
			"type": "function"
		},
		{
			"inputs": [],
			"name": "PERCENTS_DIVIDER",
			"outputs": [
				{
					"internalType": "uint256",
					"name": "",
					"type": "uint256"
				}
			],
			"stateMutability": "view",
			"type": "function"
		},
		{
			"inputs": [],
			"name": "ROI_2X_TIME",
			"outputs": [
				{
					"internalType": "uint256",
					"name": "",
					"type": "uint256"
				}
			],
			"stateMutability": "view",
			"type": "function"
		},
		{
			"inputs": [],
			"name": "ROI_CAP_DIVIDER",
			"outputs": [
				{
					"internalType": "uint256",
					"name": "",
					"type": "uint256"
				}
			],
			"stateMutability": "view",
			"type": "function"
		},
		{
			"inputs": [],
			"name": "ROI_CAP_MULTIPLIER",
			"outputs": [
				{
					"internalType": "uint256",
					"name": "",
					"type": "uint256"
				}
			],
			"stateMutability": "view",
			"type": "function"
		},
		{
			"inputs": [],
			"name": "TIME_STEP",
			"outputs": [
				{
					"internalType": "uint256",
					"name": "",
					"type": "uint256"
				}
			],
			"stateMutability": "view",
			"type": "function"
		},
		{
			"inputs": [],
			"name": "TOP_ROYALTY_DIRECT",
			"outputs": [
				{
					"internalType": "uint256",
					"name": "",
					"type": "uint256"
				}
			],
			"stateMutability": "view",
			"type": "function"
		},
		{
			"inputs": [],
			"name": "TOP_ROYALTY_LEVEL",
			"outputs": [
				{
					"internalType": "uint256",
					"name": "",
					"type": "uint256"
				}
			],
			"stateMutability": "view",
			"type": "function"
		},
		{
			"inputs": [],
			"name": "TOP_ROYALTY_TIME",
			"outputs": [
				{
					"internalType": "uint256",
					"name": "",
					"type": "uint256"
				}
			],
			"stateMutability": "view",
			"type": "function"
		},
		{
			"inputs": [],
			"name": "WEEK_DURATION",
			"outputs": [
				{
					"internalType": "uint256",
					"name": "",
					"type": "uint256"
				}
			],
			"stateMutability": "view",
			"type": "function"
		},
		{
			"inputs": [],
			"name": "WeeklyCapping",
			"outputs": [
				{
					"internalType": "uint256",
					"name": "",
					"type": "uint256"
				}
			],
			"stateMutability": "view",
			"type": "function"
		},
		{
			"inputs": [],
			"name": "WeeklyTotalReward",
			"outputs": [
				{
					"internalType": "uint256",
					"name": "",
					"type": "uint256"
				}
			],
			"stateMutability": "view",
			"type": "function"
		},
		{
			"inputs": [
				{
					"internalType": "address",
					"name": "",
					"type": "address"
				}
			],
			"name": "addressToId",
			"outputs": [
				{
					"internalType": "uint256",
					"name": "",
					"type": "uint256"
				}
			],
			"stateMutability": "view",
			"type": "function"
		},
		{
			"inputs": [
				{
					"internalType": "uint256",
					"name": "",
					"type": "uint256"
				},
				{
					"internalType": "uint256",
					"name": "",
					"type": "uint256"
				}
			],
			"name": "boosterUsers",
			"outputs": [
				{
					"internalType": "uint256",
					"name": "",
					"type": "uint256"
				}
			],
			"stateMutability": "view",
			"type": "function"
		},
		{
			"inputs": [
				{
					"internalType": "uint256",
					"name": "",
					"type": "uint256"
				}
			],
			"name": "communityAccPerPackage",
			"outputs": [
				{
					"internalType": "uint256",
					"name": "",
					"type": "uint256"
				}
			],
			"stateMutability": "view",
			"type": "function"
		},
		{
			"inputs": [],
			"name": "communityAccPerUser",
			"outputs": [
				{
					"internalType": "uint256",
					"name": "",
					"type": "uint256"
				}
			],
			"stateMutability": "view",
			"type": "function"
		},
		{
			"inputs": [
				{
					"internalType": "uint256",
					"name": "",
					"type": "uint256"
				},
				{
					"internalType": "uint256",
					"name": "",
					"type": "uint256"
				}
			],
			"name": "communityDebt",
			"outputs": [
				{
					"internalType": "uint256",
					"name": "",
					"type": "uint256"
				}
			],
			"stateMutability": "view",
			"type": "function"
		},
		{
			"inputs": [],
			"name": "creatorWallet",
			"outputs": [
				{
					"internalType": "address",
					"name": "",
					"type": "address"
				}
			],
			"stateMutability": "view",
			"type": "function"
		},
		{
			"inputs": [],
			"name": "currentMonthlyRound",
			"outputs": [
				{
					"internalType": "uint256",
					"name": "",
					"type": "uint256"
				}
			],
			"stateMutability": "view",
			"type": "function"
		},
		{
			"inputs": [],
			"name": "currentMonthlyStartTime",
			"outputs": [
				{
					"internalType": "uint256",
					"name": "",
					"type": "uint256"
				}
			],
			"stateMutability": "view",
			"type": "function"
		},
		{
			"inputs": [],
			"name": "currentWeeklyRound",
			"outputs": [
				{
					"internalType": "uint256",
					"name": "",
					"type": "uint256"
				}
			],
			"stateMutability": "view",
			"type": "function"
		},
		{
			"inputs": [],
			"name": "currentWeeklyStartTime",
			"outputs": [
				{
					"internalType": "uint256",
					"name": "",
					"type": "uint256"
				}
			],
			"stateMutability": "view",
			"type": "function"
		},
		{
			"inputs": [],
			"name": "defaultRefId",
			"outputs": [
				{
					"internalType": "uint256",
					"name": "",
					"type": "uint256"
				}
			],
			"stateMutability": "view",
			"type": "function"
		},
		{
			"inputs": [
				{
					"internalType": "uint256",
					"name": "",
					"type": "uint256"
				},
				{
					"internalType": "uint256",
					"name": "",
					"type": "uint256"
				}
			],
			"name": "directReferrals",
			"outputs": [
				{
					"internalType": "uint256",
					"name": "",
					"type": "uint256"
				}
			],
			"stateMutability": "view",
			"type": "function"
		},
		{
			"inputs": [
				{
					"internalType": "uint256",
					"name": "_poolId",
					"type": "uint256"
				},
				{
					"internalType": "uint256",
					"name": "_userId",
					"type": "uint256"
				}
			],
			"name": "getBoosterChild",
			"outputs": [
				{
					"internalType": "uint256[]",
					"name": "",
					"type": "uint256[]"
				}
			],
			"stateMutability": "view",
			"type": "function"
		},
		{
			"inputs": [
				{
					"internalType": "uint256",
					"name": "_poolId",
					"type": "uint256"
				},
				{
					"internalType": "uint256",
					"name": "_userId",
					"type": "uint256"
				}
			],
			"name": "getBoosterDetails",
			"outputs": [
				{
					"components": [
						{
							"internalType": "uint256",
							"name": "id",
							"type": "uint256"
						},
						{
							"internalType": "uint256",
							"name": "poolId",
							"type": "uint256"
						},
						{
							"internalType": "uint256",
							"name": "parentId",
							"type": "uint256"
						},
						{
							"internalType": "uint256",
							"name": "bonusCount",
							"type": "uint256"
						},
						{
							"internalType": "uint256",
							"name": "joinTime",
							"type": "uint256"
						}
					],
					"internalType": "struct Storage.UserBooster",
					"name": "",
					"type": "tuple"
				}
			],
			"stateMutability": "view",
			"type": "function"
		},
		{
			"inputs": [
				{
					"internalType": "uint256",
					"name": "_userId",
					"type": "uint256"
				}
			],
			"name": "getCompleteUserInfo",
			"outputs": [
				{
					"components": [
						{
							"internalType": "address",
							"name": "account",
							"type": "address"
						},
						{
							"components": [
								{
									"internalType": "uint256",
									"name": "amount",
									"type": "uint256"
								},
								{
									"internalType": "uint256",
									"name": "withdrawn",
									"type": "uint256"
								},
								{
									"internalType": "uint256",
									"name": "start",
									"type": "uint256"
								},
								{
									"internalType": "uint8",
									"name": "depositType",
									"type": "uint8"
								}
							],
							"internalType": "struct Storage.Deposit[]",
							"name": "deposits",
							"type": "tuple[]"
						},
						{
							"internalType": "uint256",
							"name": "checkpoint",
							"type": "uint256"
						},
						{
							"internalType": "uint256",
							"name": "id",
							"type": "uint256"
						},
						{
							"internalType": "uint256",
							"name": "sponsorId",
							"type": "uint256"
						},
						{
							"internalType": "uint256",
							"name": "uplineId",
							"type": "uint256"
						},
						{
							"internalType": "uint256",
							"name": "level",
							"type": "uint256"
						},
						{
							"internalType": "uint256",
							"name": "directTeam",
							"type": "uint256"
						},
						{
							"internalType": "uint256",
							"name": "directPoolQualified",
							"type": "uint256"
						},
						{
							"internalType": "uint256",
							"name": "totalMatrixTeam",
							"type": "uint256"
						},
						{
							"internalType": "uint256",
							"name": "totalDeposit",
							"type": "uint256"
						},
						{
							"internalType": "uint256",
							"name": "roiCap",
							"type": "uint256"
						},
						{
							"internalType": "uint256",
							"name": "poollevel",
							"type": "uint256"
						},
						{
							"internalType": "uint256",
							"name": "poolDeposit",
							"type": "uint256"
						},
						{
							"internalType": "uint256",
							"name": "poolStartTime",
							"type": "uint256"
						},
						{
							"internalType": "uint256",
							"name": "boosterlevel",
							"type": "uint256"
						},
						{
							"internalType": "uint256",
							"name": "boosterDeposit",
							"type": "uint256"
						},
						{
							"internalType": "uint256",
							"name": "registrationTime",
							"type": "uint256"
						},
						{
							"internalType": "uint256",
							"name": "level10Time",
							"type": "uint256"
						},
						{
							"internalType": "uint256",
							"name": "level15Time",
							"type": "uint256"
						},
						{
							"internalType": "uint256",
							"name": "monthlyUserDirectCount",
							"type": "uint256"
						},
						{
							"internalType": "uint256",
							"name": "topRoyaltyDirectCount",
							"type": "uint256"
						}
					],
					"internalType": "struct Storage.User",
					"name": "",
					"type": "tuple"
				}
			],
			"stateMutability": "view",
			"type": "function"
		},
		{
			"inputs": [],
			"name": "getCurrrentContestDetails",
			"outputs": [
				{
					"internalType": "uint256[]",
					"name": "",
					"type": "uint256[]"
				},
				{
					"internalType": "uint256[]",
					"name": "",
					"type": "uint256[]"
				},
				{
					"internalType": "uint256[]",
					"name": "",
					"type": "uint256[]"
				}
			],
			"stateMutability": "view",
			"type": "function"
		},
		{
			"inputs": [
				{
					"internalType": "uint256",
					"name": "_userId",
					"type": "uint256"
				}
			],
			"name": "getDirectsUsersEssentialInfo",
			"outputs": [
				{
					"internalType": "uint256[]",
					"name": "ids",
					"type": "uint256[]"
				},
				{
					"internalType": "address[]",
					"name": "accounts",
					"type": "address[]"
				},
				{
					"internalType": "uint256[]",
					"name": "levels",
					"type": "uint256[]"
				},
				{
					"internalType": "uint256[]",
					"name": "totalDeposits",
					"type": "uint256[]"
				},
				{
					"internalType": "uint256[]",
					"name": "registrationTimes",
					"type": "uint256[]"
				}
			],
			"stateMutability": "view",
			"type": "function"
		},
		{
			"inputs": [
				{
					"internalType": "uint256",
					"name": "_userId",
					"type": "uint256"
				}
			],
			"name": "getMatrixDirect",
			"outputs": [
				{
					"internalType": "uint256",
					"name": "",
					"type": "uint256"
				}
			],
			"stateMutability": "view",
			"type": "function"
		},
		{
			"inputs": [
				{
					"internalType": "uint256",
					"name": "_user",
					"type": "uint256"
				},
				{
					"internalType": "uint256",
					"name": "_layer",
					"type": "uint256"
				}
			],
			"name": "getMatrixUsers",
			"outputs": [
				{
					"components": [
						{
							"internalType": "address",
							"name": "account",
							"type": "address"
						},
						{
							"components": [
								{
									"internalType": "uint256",
									"name": "amount",
									"type": "uint256"
								},
								{
									"internalType": "uint256",
									"name": "withdrawn",
									"type": "uint256"
								},
								{
									"internalType": "uint256",
									"name": "start",
									"type": "uint256"
								},
								{
									"internalType": "uint8",
									"name": "depositType",
									"type": "uint8"
								}
							],
							"internalType": "struct Storage.Deposit[]",
							"name": "deposits",
							"type": "tuple[]"
						},
						{
							"internalType": "uint256",
							"name": "checkpoint",
							"type": "uint256"
						},
						{
							"internalType": "uint256",
							"name": "id",
							"type": "uint256"
						},
						{
							"internalType": "uint256",
							"name": "sponsorId",
							"type": "uint256"
						},
						{
							"internalType": "uint256",
							"name": "uplineId",
							"type": "uint256"
						},
						{
							"internalType": "uint256",
							"name": "level",
							"type": "uint256"
						},
						{
							"internalType": "uint256",
							"name": "directTeam",
							"type": "uint256"
						},
						{
							"internalType": "uint256",
							"name": "directPoolQualified",
							"type": "uint256"
						},
						{
							"internalType": "uint256",
							"name": "totalMatrixTeam",
							"type": "uint256"
						},
						{
							"internalType": "uint256",
							"name": "totalDeposit",
							"type": "uint256"
						},
						{
							"internalType": "uint256",
							"name": "roiCap",
							"type": "uint256"
						},
						{
							"internalType": "uint256",
							"name": "poollevel",
							"type": "uint256"
						},
						{
							"internalType": "uint256",
							"name": "poolDeposit",
							"type": "uint256"
						},
						{
							"internalType": "uint256",
							"name": "poolStartTime",
							"type": "uint256"
						},
						{
							"internalType": "uint256",
							"name": "boosterlevel",
							"type": "uint256"
						},
						{
							"internalType": "uint256",
							"name": "boosterDeposit",
							"type": "uint256"
						},
						{
							"internalType": "uint256",
							"name": "registrationTime",
							"type": "uint256"
						},
						{
							"internalType": "uint256",
							"name": "level10Time",
							"type": "uint256"
						},
						{
							"internalType": "uint256",
							"name": "level15Time",
							"type": "uint256"
						},
						{
							"internalType": "uint256",
							"name": "monthlyUserDirectCount",
							"type": "uint256"
						},
						{
							"internalType": "uint256",
							"name": "topRoyaltyDirectCount",
							"type": "uint256"
						}
					],
					"internalType": "struct Storage.User[]",
					"name": "",
					"type": "tuple[]"
				}
			],
			"stateMutability": "view",
			"type": "function"
		},
		{
			"inputs": [
				{
					"internalType": "uint256",
					"name": "_roundId",
					"type": "uint256"
				}
			],
			"name": "getMonthlyRoyaltyDetails",
			"outputs": [
				{
					"components": [
						{
							"internalType": "uint256",
							"name": "roundId",
							"type": "uint256"
						},
						{
							"internalType": "uint256",
							"name": "totalReward",
							"type": "uint256"
						},
						{
							"internalType": "uint256",
							"name": "totalUsers",
							"type": "uint256"
						},
						{
							"internalType": "uint256",
							"name": "perUserReward",
							"type": "uint256"
						},
						{
							"internalType": "uint256",
							"name": "claimedCount",
							"type": "uint256"
						},
						{
							"internalType": "uint256",
							"name": "startTime",
							"type": "uint256"
						},
						{
							"internalType": "uint256",
							"name": "endTime",
							"type": "uint256"
						},
						{
							"internalType": "uint256",
							"name": "carryForward",
							"type": "uint256"
						},
						{
							"internalType": "bool",
							"name": "closed",
							"type": "bool"
						}
					],
					"internalType": "struct Storage.monthlyRoyalty",
					"name": "",
					"type": "tuple"
				}
			],
			"stateMutability": "view",
			"type": "function"
		},
		{
			"inputs": [
				{
					"internalType": "uint256",
					"name": "_userId",
					"type": "uint256"
				}
			],
			"name": "getMonthlyRoyaltyUserDirects",
			"outputs": [
				{
					"internalType": "uint256[]",
					"name": "",
					"type": "uint256[]"
				}
			],
			"stateMutability": "view",
			"type": "function"
		},
		{
			"inputs": [
				{
					"internalType": "uint256",
					"name": "_poolId",
					"type": "uint256"
				},
				{
					"internalType": "uint256",
					"name": "_userId",
					"type": "uint256"
				}
			],
			"name": "getPoolChild",
			"outputs": [
				{
					"internalType": "uint256[]",
					"name": "",
					"type": "uint256[]"
				}
			],
			"stateMutability": "view",
			"type": "function"
		},
		{
			"inputs": [
				{
					"internalType": "uint256",
					"name": "_poolId",
					"type": "uint256"
				},
				{
					"internalType": "uint256",
					"name": "_userId",
					"type": "uint256"
				}
			],
			"name": "getPoolDetails",
			"outputs": [
				{
					"components": [
						{
							"internalType": "uint256",
							"name": "id",
							"type": "uint256"
						},
						{
							"internalType": "uint256",
							"name": "mainid",
							"type": "uint256"
						},
						{
							"internalType": "uint256",
							"name": "poolId",
							"type": "uint256"
						},
						{
							"internalType": "uint256",
							"name": "parentId",
							"type": "uint256"
						},
						{
							"internalType": "uint256",
							"name": "bonusCount",
							"type": "uint256"
						}
					],
					"internalType": "struct Storage.UserPool",
					"name": "",
					"type": "tuple"
				}
			],
			"stateMutability": "view",
			"type": "function"
		},
		{
			"inputs": [
				{
					"internalType": "uint256",
					"name": "_poolId",
					"type": "uint256"
				},
				{
					"internalType": "uint256",
					"name": "_userId",
					"type": "uint256"
				}
			],
			"name": "getPoolTopup",
			"outputs": [
				{
					"components": [
						{
							"internalType": "uint256",
							"name": "nextPoolAmt",
							"type": "uint256"
						},
						{
							"internalType": "uint256",
							"name": "reTopupAmt",
							"type": "uint256"
						}
					],
					"internalType": "struct Storage.UserPoolTopup",
					"name": "",
					"type": "tuple"
				}
			],
			"stateMutability": "view",
			"type": "function"
		},
		{
			"inputs": [
				{
					"internalType": "uint256",
					"name": "_roundId",
					"type": "uint256"
				}
			],
			"name": "getTopRoyaltyDetails",
			"outputs": [
				{
					"components": [
						{
							"internalType": "uint256",
							"name": "roundId",
							"type": "uint256"
						},
						{
							"internalType": "uint256",
							"name": "totalReward",
							"type": "uint256"
						},
						{
							"internalType": "uint256",
							"name": "totalUsers",
							"type": "uint256"
						},
						{
							"internalType": "uint256",
							"name": "perUserReward",
							"type": "uint256"
						},
						{
							"internalType": "uint256",
							"name": "claimedCount",
							"type": "uint256"
						},
						{
							"internalType": "uint256",
							"name": "startTime",
							"type": "uint256"
						},
						{
							"internalType": "uint256",
							"name": "endTime",
							"type": "uint256"
						},
						{
							"internalType": "uint256",
							"name": "carryForward",
							"type": "uint256"
						},
						{
							"internalType": "bool",
							"name": "closed",
							"type": "bool"
						}
					],
					"internalType": "struct Storage.topRoyalty",
					"name": "",
					"type": "tuple"
				}
			],
			"stateMutability": "view",
			"type": "function"
		},
		{
			"inputs": [
				{
					"internalType": "uint256",
					"name": "_userId",
					"type": "uint256"
				}
			],
			"name": "getTopRoyaltyUserDirects",
			"outputs": [
				{
					"internalType": "uint256[]",
					"name": "",
					"type": "uint256[]"
				}
			],
			"stateMutability": "view",
			"type": "function"
		},
		{
			"inputs": [
				{
					"internalType": "uint256",
					"name": "_userId",
					"type": "uint256"
				}
			],
			"name": "getUserIncomeDetails",
			"outputs": [
				{
					"components": [
						{
							"internalType": "uint256",
							"name": "totalIncome",
							"type": "uint256"
						},
						{
							"internalType": "uint256",
							"name": "sponsorIncome",
							"type": "uint256"
						},
						{
							"internalType": "uint256",
							"name": "matrixIncome",
							"type": "uint256"
						},
						{
							"internalType": "uint256",
							"name": "levelBoosterIncome",
							"type": "uint256"
						},
						{
							"internalType": "uint256",
							"name": "royaltyIncome",
							"type": "uint256"
						},
						{
							"internalType": "uint256",
							"name": "royaltyIncomeClaimed",
							"type": "uint256"
						},
						{
							"internalType": "uint256",
							"name": "communityIncome",
							"type": "uint256"
						},
						{
							"internalType": "uint256",
							"name": "poolIncome",
							"type": "uint256"
						},
						{
							"internalType": "uint256",
							"name": "boosterIncome",
							"type": "uint256"
						},
						{
							"internalType": "uint256",
							"name": "weeklyContestIncome",
							"type": "uint256"
						},
						{
							"internalType": "uint256",
							"name": "monthlyRoyalty",
							"type": "uint256"
						},
						{
							"internalType": "uint256",
							"name": "topRoyalty",
							"type": "uint256"
						}
					],
					"internalType": "struct Storage.UserIncome",
					"name": "",
					"type": "tuple"
				}
			],
			"stateMutability": "view",
			"type": "function"
		},
		{
			"inputs": [
				{
					"internalType": "uint256",
					"name": "_userId",
					"type": "uint256"
				}
			],
			"name": "getUserInfo",
			"outputs": [
				{
					"internalType": "address",
					"name": "account",
					"type": "address"
				},
				{
					"internalType": "uint256",
					"name": "id",
					"type": "uint256"
				},
				{
					"internalType": "uint256",
					"name": "sponsorId",
					"type": "uint256"
				},
				{
					"internalType": "uint256",
					"name": "uplineId",
					"type": "uint256"
				},
				{
					"internalType": "uint256",
					"name": "level",
					"type": "uint256"
				},
				{
					"internalType": "uint256",
					"name": "directTeam",
					"type": "uint256"
				},
				{
					"internalType": "uint256",
					"name": "totalMatrixTeam",
					"type": "uint256"
				},
				{
					"internalType": "uint256",
					"name": "totalDeposit",
					"type": "uint256"
				}
			],
			"stateMutability": "view",
			"type": "function"
		},
		{
			"inputs": [
				{
					"internalType": "uint256",
					"name": "_roundId",
					"type": "uint256"
				},
				{
					"internalType": "uint256",
					"name": "_userId",
					"type": "uint256"
				}
			],
			"name": "getUserMonthlyRoyaltyDetails",
			"outputs": [
				{
					"internalType": "uint256",
					"name": "joinTime",
					"type": "uint256"
				},
				{
					"internalType": "uint256",
					"name": "qualifiedRoundId",
					"type": "uint256"
				},
				{
					"internalType": "uint256",
					"name": "claimTime",
					"type": "uint256"
				},
				{
					"internalType": "bool",
					"name": "isQualified",
					"type": "bool"
				}
			],
			"stateMutability": "view",
			"type": "function"
		},
		{
			"inputs": [
				{
					"internalType": "uint256",
					"name": "_userId",
					"type": "uint256"
				}
			],
			"name": "getUserPackage",
			"outputs": [
				{
					"components": [
						{
							"internalType": "uint256",
							"name": "roiCap",
							"type": "uint256"
						},
						{
							"internalType": "uint256",
							"name": "currentIncome",
							"type": "uint256"
						},
						{
							"internalType": "uint256",
							"name": "closingAmount",
							"type": "uint256"
						},
						{
							"internalType": "bool",
							"name": "qualified",
							"type": "bool"
						},
						{
							"internalType": "bool",
							"name": "closed",
							"type": "bool"
						}
					],
					"internalType": "struct Storage.UserPackage[]",
					"name": "packagesdtl",
					"type": "tuple[]"
				}
			],
			"stateMutability": "view",
			"type": "function"
		},
		{
			"inputs": [
				{
					"internalType": "uint256",
					"name": "_poolId",
					"type": "uint256"
				},
				{
					"internalType": "uint256",
					"name": "_userId",
					"type": "uint256"
				}
			],
			"name": "getUserPoolIds",
			"outputs": [
				{
					"internalType": "uint256[]",
					"name": "",
					"type": "uint256[]"
				}
			],
			"stateMutability": "view",
			"type": "function"
		},
		{
			"inputs": [
				{
					"internalType": "uint256",
					"name": "_userId",
					"type": "uint256"
				}
			],
			"name": "getUserTeam",
			"outputs": [
				{
					"internalType": "uint256[][]",
					"name": "",
					"type": "uint256[][]"
				}
			],
			"stateMutability": "view",
			"type": "function"
		},
		{
			"inputs": [
				{
					"internalType": "uint256",
					"name": "_roundId",
					"type": "uint256"
				},
				{
					"internalType": "uint256",
					"name": "_userId",
					"type": "uint256"
				}
			],
			"name": "getUserTopRoyaltyDetails",
			"outputs": [
				{
					"internalType": "uint256",
					"name": "joinTime",
					"type": "uint256"
				},
				{
					"internalType": "uint256",
					"name": "qualifiedRoundId",
					"type": "uint256"
				},
				{
					"internalType": "uint256",
					"name": "claimTime",
					"type": "uint256"
				},
				{
					"internalType": "bool",
					"name": "isQualified",
					"type": "bool"
				}
			],
			"stateMutability": "view",
			"type": "function"
		},
		{
			"inputs": [
				{
					"internalType": "uint256",
					"name": "_roundId",
					"type": "uint256"
				}
			],
			"name": "getWeeklyContestDetails",
			"outputs": [
				{
					"components": [
						{
							"internalType": "uint256",
							"name": "roundId",
							"type": "uint256"
						},
						{
							"internalType": "uint256",
							"name": "totalReward",
							"type": "uint256"
						},
						{
							"internalType": "uint256",
							"name": "totalUsers",
							"type": "uint256"
						},
						{
							"internalType": "uint256",
							"name": "perUserReward",
							"type": "uint256"
						},
						{
							"internalType": "uint256",
							"name": "claimedCount",
							"type": "uint256"
						},
						{
							"internalType": "uint256",
							"name": "startTime",
							"type": "uint256"
						},
						{
							"internalType": "uint256",
							"name": "endTime",
							"type": "uint256"
						},
						{
							"internalType": "uint256",
							"name": "carryForward",
							"type": "uint256"
						},
						{
							"internalType": "bool",
							"name": "closed",
							"type": "bool"
						}
					],
					"internalType": "struct Storage.WeeklyContest",
					"name": "",
					"type": "tuple"
				}
			],
			"stateMutability": "view",
			"type": "function"
		},
		{
			"inputs": [
				{
					"internalType": "uint256",
					"name": "_roundId",
					"type": "uint256"
				},
				{
					"internalType": "uint256",
					"name": "_userId",
					"type": "uint256"
				}
			],
			"name": "getWeeklyUserDetails",
			"outputs": [
				{
					"components": [
						{
							"internalType": "uint256",
							"name": "joinTime",
							"type": "uint256"
						},
						{
							"internalType": "uint256",
							"name": "roundId",
							"type": "uint256"
						},
						{
							"internalType": "uint256",
							"name": "claimTime",
							"type": "uint256"
						},
						{
							"internalType": "bool",
							"name": "isClaimed",
							"type": "bool"
						},
						{
							"internalType": "bool",
							"name": "isQualified",
							"type": "bool"
						}
					],
					"internalType": "struct Storage.weeklyUser",
					"name": "",
					"type": "tuple"
				}
			],
			"stateMutability": "view",
			"type": "function"
		},
		{
			"inputs": [
				{
					"internalType": "uint256",
					"name": "_roundId",
					"type": "uint256"
				},
				{
					"internalType": "uint256",
					"name": "_userId",
					"type": "uint256"
				}
			],
			"name": "getWeeklyUserDirects",
			"outputs": [
				{
					"internalType": "uint256[]",
					"name": "",
					"type": "uint256[]"
				}
			],
			"stateMutability": "view",
			"type": "function"
		},
		{
			"inputs": [
				{
					"internalType": "uint256",
					"name": "",
					"type": "uint256"
				}
			],
			"name": "glbBoosterPackages",
			"outputs": [
				{
					"internalType": "uint256",
					"name": "",
					"type": "uint256"
				}
			],
			"stateMutability": "view",
			"type": "function"
		},
		{
			"inputs": [
				{
					"internalType": "uint256",
					"name": "",
					"type": "uint256"
				},
				{
					"internalType": "uint256",
					"name": "",
					"type": "uint256"
				}
			],
			"name": "incomeHistory",
			"outputs": [
				{
					"internalType": "uint256",
					"name": "fromUserId",
					"type": "uint256"
				},
				{
					"internalType": "uint256",
					"name": "amount",
					"type": "uint256"
				},
				{
					"internalType": "uint256",
					"name": "packageLevel",
					"type": "uint256"
				},
				{
					"internalType": "uint256",
					"name": "timestamp",
					"type": "uint256"
				},
				{
					"internalType": "uint256",
					"name": "incomeType",
					"type": "uint256"
				}
			],
			"stateMutability": "view",
			"type": "function"
		},
		{
			"inputs": [
				{
					"internalType": "uint256",
					"name": "_roundId",
					"type": "uint256"
				},
				{
					"internalType": "uint256",
					"name": "_userId",
					"type": "uint256"
				}
			],
			"name": "isUserClaimedMonthlyRoyalty",
			"outputs": [
				{
					"internalType": "bool",
					"name": "",
					"type": "bool"
				}
			],
			"stateMutability": "view",
			"type": "function"
		},
		{
			"inputs": [
				{
					"internalType": "uint256",
					"name": "_roundId",
					"type": "uint256"
				},
				{
					"internalType": "uint256",
					"name": "_userId",
					"type": "uint256"
				}
			],
			"name": "isUserClaimedTopRoyalty",
			"outputs": [
				{
					"internalType": "bool",
					"name": "",
					"type": "bool"
				}
			],
			"stateMutability": "view",
			"type": "function"
		},
		{
			"inputs": [
				{
					"internalType": "uint256",
					"name": "",
					"type": "uint256"
				}
			],
			"name": "matrixDirect",
			"outputs": [
				{
					"internalType": "uint256",
					"name": "",
					"type": "uint256"
				}
			],
			"stateMutability": "view",
			"type": "function"
		},
		{
			"inputs": [
				{
					"internalType": "uint256",
					"name": "",
					"type": "uint256"
				}
			],
			"name": "minLevelForGlbBooster",
			"outputs": [
				{
					"internalType": "uint256",
					"name": "",
					"type": "uint256"
				}
			],
			"stateMutability": "view",
			"type": "function"
		},
		{
			"inputs": [
				{
					"internalType": "uint256",
					"name": "",
					"type": "uint256"
				}
			],
			"name": "minLevelForPool",
			"outputs": [
				{
					"internalType": "uint256",
					"name": "",
					"type": "uint256"
				}
			],
			"stateMutability": "view",
			"type": "function"
		},
		{
			"inputs": [
				{
					"internalType": "uint256",
					"name": "",
					"type": "uint256"
				}
			],
			"name": "minPoolForGlbBooster",
			"outputs": [
				{
					"internalType": "uint256",
					"name": "",
					"type": "uint256"
				}
			],
			"stateMutability": "view",
			"type": "function"
		},
		{
			"inputs": [],
			"name": "monthlyCapping",
			"outputs": [
				{
					"internalType": "uint256",
					"name": "",
					"type": "uint256"
				}
			],
			"stateMutability": "view",
			"type": "function"
		},
		{
			"inputs": [
				{
					"internalType": "uint256",
					"name": "",
					"type": "uint256"
				}
			],
			"name": "monthlyQualifiedUsers",
			"outputs": [
				{
					"internalType": "uint256",
					"name": "",
					"type": "uint256"
				}
			],
			"stateMutability": "view",
			"type": "function"
		},
		{
			"inputs": [
				{
					"internalType": "uint256",
					"name": "",
					"type": "uint256"
				}
			],
			"name": "monthlyRoyaltyUserdtl",
			"outputs": [
				{
					"internalType": "uint256",
					"name": "joinTime",
					"type": "uint256"
				},
				{
					"internalType": "uint256",
					"name": "qualifiedRoundId",
					"type": "uint256"
				},
				{
					"internalType": "uint256",
					"name": "claimTime",
					"type": "uint256"
				},
				{
					"internalType": "bool",
					"name": "isQualified",
					"type": "bool"
				}
			],
			"stateMutability": "view",
			"type": "function"
		},
		{
			"inputs": [
				{
					"internalType": "uint256",
					"name": "",
					"type": "uint256"
				}
			],
			"name": "monthlyRoyaltydtl",
			"outputs": [
				{
					"internalType": "uint256",
					"name": "roundId",
					"type": "uint256"
				},
				{
					"internalType": "uint256",
					"name": "totalReward",
					"type": "uint256"
				},
				{
					"internalType": "uint256",
					"name": "totalUsers",
					"type": "uint256"
				},
				{
					"internalType": "uint256",
					"name": "perUserReward",
					"type": "uint256"
				},
				{
					"internalType": "uint256",
					"name": "claimedCount",
					"type": "uint256"
				},
				{
					"internalType": "uint256",
					"name": "startTime",
					"type": "uint256"
				},
				{
					"internalType": "uint256",
					"name": "endTime",
					"type": "uint256"
				},
				{
					"internalType": "uint256",
					"name": "carryForward",
					"type": "uint256"
				},
				{
					"internalType": "bool",
					"name": "closed",
					"type": "bool"
				}
			],
			"stateMutability": "view",
			"type": "function"
		},
		{
			"inputs": [],
			"name": "monthlyTotalReward",
			"outputs": [
				{
					"internalType": "uint256",
					"name": "",
					"type": "uint256"
				}
			],
			"stateMutability": "view",
			"type": "function"
		},
		{
			"inputs": [
				{
					"internalType": "uint256",
					"name": "",
					"type": "uint256"
				},
				{
					"internalType": "uint256",
					"name": "",
					"type": "uint256"
				}
			],
			"name": "monthlyUserDirects",
			"outputs": [
				{
					"internalType": "uint256",
					"name": "",
					"type": "uint256"
				}
			],
			"stateMutability": "view",
			"type": "function"
		},
		{
			"inputs": [
				{
					"internalType": "uint256",
					"name": "",
					"type": "uint256"
				}
			],
			"name": "packageQualifiedUsers",
			"outputs": [
				{
					"internalType": "uint256",
					"name": "",
					"type": "uint256"
				}
			],
			"stateMutability": "view",
			"type": "function"
		},
		{
			"inputs": [
				{
					"internalType": "uint256",
					"name": "",
					"type": "uint256"
				}
			],
			"name": "packages",
			"outputs": [
				{
					"internalType": "uint256",
					"name": "",
					"type": "uint256"
				}
			],
			"stateMutability": "view",
			"type": "function"
		},
		{
			"inputs": [
				{
					"internalType": "uint256",
					"name": "",
					"type": "uint256"
				}
			],
			"name": "poolPackages",
			"outputs": [
				{
					"internalType": "uint256",
					"name": "",
					"type": "uint256"
				}
			],
			"stateMutability": "view",
			"type": "function"
		},
		{
			"inputs": [
				{
					"internalType": "uint256",
					"name": "",
					"type": "uint256"
				},
				{
					"internalType": "uint256",
					"name": "",
					"type": "uint256"
				}
			],
			"name": "poolUsers",
			"outputs": [
				{
					"internalType": "uint256",
					"name": "",
					"type": "uint256"
				}
			],
			"stateMutability": "view",
			"type": "function"
		},
		{
			"inputs": [
				{
					"internalType": "uint256",
					"name": "",
					"type": "uint256"
				}
			],
			"name": "registeredUserIds",
			"outputs": [
				{
					"internalType": "uint256",
					"name": "",
					"type": "uint256"
				}
			],
			"stateMutability": "view",
			"type": "function"
		},
		{
			"inputs": [],
			"name": "systemMaintance",
			"outputs": [
				{
					"internalType": "address",
					"name": "",
					"type": "address"
				}
			],
			"stateMutability": "view",
			"type": "function"
		},
		{
			"inputs": [],
			"name": "teamDevelopment",
			"outputs": [
				{
					"internalType": "address",
					"name": "",
					"type": "address"
				}
			],
			"stateMutability": "view",
			"type": "function"
		},
		{
			"inputs": [
				{
					"internalType": "uint256",
					"name": "",
					"type": "uint256"
				},
				{
					"internalType": "uint256",
					"name": "",
					"type": "uint256"
				},
				{
					"internalType": "uint256",
					"name": "",
					"type": "uint256"
				}
			],
			"name": "teams",
			"outputs": [
				{
					"internalType": "uint256",
					"name": "",
					"type": "uint256"
				}
			],
			"stateMutability": "view",
			"type": "function"
		},
		{
			"inputs": [
				{
					"internalType": "uint256",
					"name": "",
					"type": "uint256"
				}
			],
			"name": "topRoyaltyQualifiedUsers",
			"outputs": [
				{
					"internalType": "uint256",
					"name": "",
					"type": "uint256"
				}
			],
			"stateMutability": "view",
			"type": "function"
		},
		{
			"inputs": [],
			"name": "topRoyaltyReward",
			"outputs": [
				{
					"internalType": "uint256",
					"name": "",
					"type": "uint256"
				}
			],
			"stateMutability": "view",
			"type": "function"
		},
		{
			"inputs": [],
			"name": "topRoyaltyRound",
			"outputs": [
				{
					"internalType": "uint256",
					"name": "",
					"type": "uint256"
				}
			],
			"stateMutability": "view",
			"type": "function"
		},
		{
			"inputs": [],
			"name": "topRoyaltyStartTime",
			"outputs": [
				{
					"internalType": "uint256",
					"name": "",
					"type": "uint256"
				}
			],
			"stateMutability": "view",
			"type": "function"
		},
		{
			"inputs": [
				{
					"internalType": "uint256",
					"name": "",
					"type": "uint256"
				},
				{
					"internalType": "uint256",
					"name": "",
					"type": "uint256"
				}
			],
			"name": "topRoyaltyUserDirects",
			"outputs": [
				{
					"internalType": "uint256",
					"name": "",
					"type": "uint256"
				}
			],
			"stateMutability": "view",
			"type": "function"
		},
		{
			"inputs": [
				{
					"internalType": "uint256",
					"name": "",
					"type": "uint256"
				}
			],
			"name": "topRoyaltyUserdtl",
			"outputs": [
				{
					"internalType": "uint256",
					"name": "joinTime",
					"type": "uint256"
				},
				{
					"internalType": "uint256",
					"name": "qualifiedRoundId",
					"type": "uint256"
				},
				{
					"internalType": "uint256",
					"name": "claimTime",
					"type": "uint256"
				},
				{
					"internalType": "bool",
					"name": "isQualified",
					"type": "bool"
				}
			],
			"stateMutability": "view",
			"type": "function"
		},
		{
			"inputs": [
				{
					"internalType": "uint256",
					"name": "",
					"type": "uint256"
				}
			],
			"name": "topRoyaltydtl",
			"outputs": [
				{
					"internalType": "uint256",
					"name": "roundId",
					"type": "uint256"
				},
				{
					"internalType": "uint256",
					"name": "totalReward",
					"type": "uint256"
				},
				{
					"internalType": "uint256",
					"name": "totalUsers",
					"type": "uint256"
				},
				{
					"internalType": "uint256",
					"name": "perUserReward",
					"type": "uint256"
				},
				{
					"internalType": "uint256",
					"name": "claimedCount",
					"type": "uint256"
				},
				{
					"internalType": "uint256",
					"name": "startTime",
					"type": "uint256"
				},
				{
					"internalType": "uint256",
					"name": "endTime",
					"type": "uint256"
				},
				{
					"internalType": "uint256",
					"name": "carryForward",
					"type": "uint256"
				},
				{
					"internalType": "bool",
					"name": "closed",
					"type": "bool"
				}
			],
			"stateMutability": "view",
			"type": "function"
		},
		{
			"inputs": [],
			"name": "totalUsers",
			"outputs": [
				{
					"internalType": "uint256",
					"name": "",
					"type": "uint256"
				}
			],
			"stateMutability": "view",
			"type": "function"
		},
		{
			"inputs": [],
			"name": "usdt",
			"outputs": [
				{
					"internalType": "contract IERC20",
					"name": "",
					"type": "address"
				}
			],
			"stateMutability": "view",
			"type": "function"
		},
		{
			"inputs": [
				{
					"internalType": "uint256",
					"name": "",
					"type": "uint256"
				},
				{
					"internalType": "uint256",
					"name": "",
					"type": "uint256"
				},
				{
					"internalType": "uint256",
					"name": "",
					"type": "uint256"
				}
			],
			"name": "userBoosterChildren",
			"outputs": [
				{
					"internalType": "uint256",
					"name": "",
					"type": "uint256"
				}
			],
			"stateMutability": "view",
			"type": "function"
		},
		{
			"inputs": [
				{
					"internalType": "uint256",
					"name": "",
					"type": "uint256"
				},
				{
					"internalType": "uint256",
					"name": "",
					"type": "uint256"
				}
			],
			"name": "userBoosterdtl",
			"outputs": [
				{
					"internalType": "uint256",
					"name": "id",
					"type": "uint256"
				},
				{
					"internalType": "uint256",
					"name": "poolId",
					"type": "uint256"
				},
				{
					"internalType": "uint256",
					"name": "parentId",
					"type": "uint256"
				},
				{
					"internalType": "uint256",
					"name": "bonusCount",
					"type": "uint256"
				},
				{
					"internalType": "uint256",
					"name": "joinTime",
					"type": "uint256"
				}
			],
			"stateMutability": "view",
			"type": "function"
		},
		{
			"inputs": [
				{
					"internalType": "uint256",
					"name": "",
					"type": "uint256"
				},
				{
					"internalType": "uint256",
					"name": "",
					"type": "uint256"
				},
				{
					"internalType": "uint256",
					"name": "",
					"type": "uint256"
				}
			],
			"name": "userChildren",
			"outputs": [
				{
					"internalType": "uint256",
					"name": "",
					"type": "uint256"
				}
			],
			"stateMutability": "view",
			"type": "function"
		},
		{
			"inputs": [
				{
					"internalType": "uint256",
					"name": "",
					"type": "uint256"
				},
				{
					"internalType": "uint256",
					"name": "",
					"type": "uint256"
				}
			],
			"name": "userHasPool",
			"outputs": [
				{
					"internalType": "bool",
					"name": "",
					"type": "bool"
				}
			],
			"stateMutability": "view",
			"type": "function"
		},
		{
			"inputs": [
				{
					"internalType": "uint256",
					"name": "",
					"type": "uint256"
				},
				{
					"internalType": "uint256",
					"name": "",
					"type": "uint256"
				}
			],
			"name": "userHasbooster",
			"outputs": [
				{
					"internalType": "bool",
					"name": "",
					"type": "bool"
				}
			],
			"stateMutability": "view",
			"type": "function"
		},
		{
			"inputs": [
				{
					"internalType": "uint256",
					"name": "",
					"type": "uint256"
				},
				{
					"internalType": "uint256",
					"name": "",
					"type": "uint256"
				},
				{
					"internalType": "uint256",
					"name": "",
					"type": "uint256"
				}
			],
			"name": "userIdPerPool",
			"outputs": [
				{
					"internalType": "uint256",
					"name": "",
					"type": "uint256"
				}
			],
			"stateMutability": "view",
			"type": "function"
		},
		{
			"inputs": [
				{
					"internalType": "uint256",
					"name": "",
					"type": "uint256"
				}
			],
			"name": "userIncomes",
			"outputs": [
				{
					"internalType": "uint256",
					"name": "totalIncome",
					"type": "uint256"
				},
				{
					"internalType": "uint256",
					"name": "sponsorIncome",
					"type": "uint256"
				},
				{
					"internalType": "uint256",
					"name": "matrixIncome",
					"type": "uint256"
				},
				{
					"internalType": "uint256",
					"name": "levelBoosterIncome",
					"type": "uint256"
				},
				{
					"internalType": "uint256",
					"name": "royaltyIncome",
					"type": "uint256"
				},
				{
					"internalType": "uint256",
					"name": "royaltyIncomeClaimed",
					"type": "uint256"
				},
				{
					"internalType": "uint256",
					"name": "communityIncome",
					"type": "uint256"
				},
				{
					"internalType": "uint256",
					"name": "poolIncome",
					"type": "uint256"
				},
				{
					"internalType": "uint256",
					"name": "boosterIncome",
					"type": "uint256"
				},
				{
					"internalType": "uint256",
					"name": "weeklyContestIncome",
					"type": "uint256"
				},
				{
					"internalType": "uint256",
					"name": "monthlyRoyalty",
					"type": "uint256"
				},
				{
					"internalType": "uint256",
					"name": "topRoyalty",
					"type": "uint256"
				}
			],
			"stateMutability": "view",
			"type": "function"
		},
		{
			"inputs": [
				{
					"internalType": "uint256",
					"name": "",
					"type": "uint256"
				},
				{
					"internalType": "uint256",
					"name": "",
					"type": "uint256"
				}
			],
			"name": "userPackage",
			"outputs": [
				{
					"internalType": "uint256",
					"name": "roiCap",
					"type": "uint256"
				},
				{
					"internalType": "uint256",
					"name": "currentIncome",
					"type": "uint256"
				},
				{
					"internalType": "uint256",
					"name": "closingAmount",
					"type": "uint256"
				},
				{
					"internalType": "bool",
					"name": "qualified",
					"type": "bool"
				},
				{
					"internalType": "bool",
					"name": "closed",
					"type": "bool"
				}
			],
			"stateMutability": "view",
			"type": "function"
		},
		{
			"inputs": [
				{
					"internalType": "uint256",
					"name": "",
					"type": "uint256"
				},
				{
					"internalType": "uint256",
					"name": "",
					"type": "uint256"
				}
			],
			"name": "userPooldtl",
			"outputs": [
				{
					"internalType": "uint256",
					"name": "id",
					"type": "uint256"
				},
				{
					"internalType": "uint256",
					"name": "mainid",
					"type": "uint256"
				},
				{
					"internalType": "uint256",
					"name": "poolId",
					"type": "uint256"
				},
				{
					"internalType": "uint256",
					"name": "parentId",
					"type": "uint256"
				},
				{
					"internalType": "uint256",
					"name": "bonusCount",
					"type": "uint256"
				}
			],
			"stateMutability": "view",
			"type": "function"
		},
		{
			"inputs": [
				{
					"internalType": "uint256",
					"name": "",
					"type": "uint256"
				},
				{
					"internalType": "uint256",
					"name": "",
					"type": "uint256"
				}
			],
			"name": "userPooltopup",
			"outputs": [
				{
					"internalType": "uint256",
					"name": "nextPoolAmt",
					"type": "uint256"
				},
				{
					"internalType": "uint256",
					"name": "reTopupAmt",
					"type": "uint256"
				}
			],
			"stateMutability": "view",
			"type": "function"
		},
		{
			"inputs": [
				{
					"internalType": "uint256",
					"name": "",
					"type": "uint256"
				}
			],
			"name": "users",
			"outputs": [
				{
					"internalType": "address",
					"name": "account",
					"type": "address"
				},
				{
					"internalType": "uint256",
					"name": "checkpoint",
					"type": "uint256"
				},
				{
					"internalType": "uint256",
					"name": "id",
					"type": "uint256"
				},
				{
					"internalType": "uint256",
					"name": "sponsorId",
					"type": "uint256"
				},
				{
					"internalType": "uint256",
					"name": "uplineId",
					"type": "uint256"
				},
				{
					"internalType": "uint256",
					"name": "level",
					"type": "uint256"
				},
				{
					"internalType": "uint256",
					"name": "directTeam",
					"type": "uint256"
				},
				{
					"internalType": "uint256",
					"name": "directPoolQualified",
					"type": "uint256"
				},
				{
					"internalType": "uint256",
					"name": "totalMatrixTeam",
					"type": "uint256"
				},
				{
					"internalType": "uint256",
					"name": "totalDeposit",
					"type": "uint256"
				},
				{
					"internalType": "uint256",
					"name": "roiCap",
					"type": "uint256"
				},
				{
					"internalType": "uint256",
					"name": "poollevel",
					"type": "uint256"
				},
				{
					"internalType": "uint256",
					"name": "poolDeposit",
					"type": "uint256"
				},
				{
					"internalType": "uint256",
					"name": "poolStartTime",
					"type": "uint256"
				},
				{
					"internalType": "uint256",
					"name": "boosterlevel",
					"type": "uint256"
				},
				{
					"internalType": "uint256",
					"name": "boosterDeposit",
					"type": "uint256"
				},
				{
					"internalType": "uint256",
					"name": "registrationTime",
					"type": "uint256"
				},
				{
					"internalType": "uint256",
					"name": "level10Time",
					"type": "uint256"
				},
				{
					"internalType": "uint256",
					"name": "level15Time",
					"type": "uint256"
				},
				{
					"internalType": "uint256",
					"name": "monthlyUserDirectCount",
					"type": "uint256"
				},
				{
					"internalType": "uint256",
					"name": "topRoyaltyDirectCount",
					"type": "uint256"
				}
			],
			"stateMutability": "view",
			"type": "function"
		},
		{
			"inputs": [
				{
					"internalType": "uint256",
					"name": "",
					"type": "uint256"
				}
			],
			"name": "weeklyContestdtl",
			"outputs": [
				{
					"internalType": "uint256",
					"name": "roundId",
					"type": "uint256"
				},
				{
					"internalType": "uint256",
					"name": "totalReward",
					"type": "uint256"
				},
				{
					"internalType": "uint256",
					"name": "totalUsers",
					"type": "uint256"
				},
				{
					"internalType": "uint256",
					"name": "perUserReward",
					"type": "uint256"
				},
				{
					"internalType": "uint256",
					"name": "claimedCount",
					"type": "uint256"
				},
				{
					"internalType": "uint256",
					"name": "startTime",
					"type": "uint256"
				},
				{
					"internalType": "uint256",
					"name": "endTime",
					"type": "uint256"
				},
				{
					"internalType": "uint256",
					"name": "carryForward",
					"type": "uint256"
				},
				{
					"internalType": "bool",
					"name": "closed",
					"type": "bool"
				}
			],
			"stateMutability": "view",
			"type": "function"
		},
		{
			"inputs": [
				{
					"internalType": "uint256",
					"name": "",
					"type": "uint256"
				},
				{
					"internalType": "uint256",
					"name": "",
					"type": "uint256"
				}
			],
			"name": "weeklyQualifiedUsers",
			"outputs": [
				{
					"internalType": "uint256",
					"name": "",
					"type": "uint256"
				}
			],
			"stateMutability": "view",
			"type": "function"
		},
		{
			"inputs": [
				{
					"internalType": "uint256",
					"name": "",
					"type": "uint256"
				},
				{
					"internalType": "uint256",
					"name": "",
					"type": "uint256"
				},
				{
					"internalType": "uint256",
					"name": "",
					"type": "uint256"
				}
			],
			"name": "weeklyUserDirects",
			"outputs": [
				{
					"internalType": "uint256",
					"name": "",
					"type": "uint256"
				}
			],
			"stateMutability": "view",
			"type": "function"
		},
		{
			"inputs": [
				{
					"internalType": "uint256",
					"name": "",
					"type": "uint256"
				},
				{
					"internalType": "uint256",
					"name": "",
					"type": "uint256"
				}
			],
			"name": "weeklyUserdtl",
			"outputs": [
				{
					"internalType": "uint256",
					"name": "joinTime",
					"type": "uint256"
				},
				{
					"internalType": "uint256",
					"name": "roundId",
					"type": "uint256"
				},
				{
					"internalType": "uint256",
					"name": "claimTime",
					"type": "uint256"
				},
				{
					"internalType": "bool",
					"name": "isClaimed",
					"type": "bool"
				},
				{
					"internalType": "bool",
					"name": "isQualified",
					"type": "bool"
				}
			],
			"stateMutability": "view",
			"type": "function"
		}
	]
}