{
	"data": {
		"bytecode": {
			"linkReferences": {},
			"object": "6080604052346104ff576040516101e081016001600160401b038111828210176104eb5760405267d02ab486cedc0000815268015af1d78b58c4000060208201526802b5e3af16b1880000604082015268056bc75e2d631000006060820152680ad78ebc5ac620000060808201526815af1d78b58c40000060a0820152682b5e3af16b1880000060c08201526856bc75e2d63100000060e082015268ad78ebc5ac6200000061010082015269015af1d78b58c40000006101208201526902b5e3af16b18800000061014082015269056bc75e2d6310000000610160820152690ad78ebc5ac6200000006101808201526915af1d78b58c400000006101a0820152692b5e3af16b18800000006101c0820152600654600f60065580600f10610495575b5060065f5260205f20905f5b600f81106104785761013d610503565b680410d586a20a4c00008152681043561a8829300000602082015268410d586a20a4c0000060408201526901043561a882930000006060820152690410d586a20a4c0000006080820152691043561a88293000000060a082015269410d586a20a4c000000060c08201526007546007805580600710610422575b5060075f5260205f20905f5b60078110610405576101d3610522565b68056bc75e2d631000008152680ad78ebc5ac620000060208201526815af1d78b58c4000006040820152682b5e3af16b1880000060608201526856bc75e2d631000000608082015268ad78ebc5ac6200000060a082015269015af1d78b58c400000060c08201526902b5e3af16b18800000060e082015260085460088055806008106103af575b5060085f5260205f20905f5b6008811061039257610276610503565b60038152600560208201526007604082015260096060820152600b6080820152600d60a0820152600f60c08201525f5b6007811061037a576102b6610522565b6004815260056020820152600660408201526007606082015260086080820152600960a0820152600a60c0820152600b60e08201525f5b60088110610362576102fd610522565b5f815260016020820152600160408201526001606082015260016080820152600160a0820152600160c0820152600160e08201525f5b6008811061034a5760405161190090816105598239f35b600190602060ff845116930192816018015501610333565b600190602060ff8451169301928160100155016102ed565b600190602060ff8451169301928160090155016102a6565b81516001600160501b031681840155602090910190600101610266565b60085f526103ff907ff3f7a9fe364faab93b216da50a3214154f22a0a2b415b23a84c8169e8b636ee3017ff3f7a9fe364faab93b216da50a3214154f22a0a2b415b23a84c8169e8b636eeb610542565b8161025a565b81516001600160501b0316818401556020909101906001016101c3565b60075f52610472907fa66cc928b5edb82af9bd49922954155ab7b0942694bea4ce44661d9a8736c688017fa66cc928b5edb82af9bd49922954155ab7b0942694bea4ce44661d9a8736c68f610542565b816101b7565b81516001600160501b03168184015560209091019060010161012d565b60065f526104e5907ff652222313e28459528d920b65115c16c04f3efc82aaedc97be59f3f377c0d3f017ff652222313e28459528d920b65115c16c04f3efc82aaedc97be59f3f377c0d4e610542565b5f610121565b634e487b7160e01b5f52604160045260245ffd5b5f80fd5b6040519060e082016001600160401b038111838210176104eb57604052565b6040519061010082016001600160401b038111838210176104eb57604052565b81811061054d575050565b5f815560010161054256fe6080806040526004361015610012575f80fd5b5f3560e01c90816301c234a814610c96575080632132d20414610c6a5780632350268f14610c415780632f48ab7d14610c1a57806332bc298c14610bfd57806332fcd96614610bdb578063375b43b414610bc057806339ab360314610b665780634060160a1461093b57806358c7d3521461092057806367d52d4d146108c95780637848f0a31461076c57806378f6ad6d1461074f5780637cdc65f2146107275780638e222e24146104fd578063956a3228146104d1578063ae4708dc14610499578063bc1fa7c01461024c578063bff1f9e11461022f578063c216212a146101c1578063d0a2fd7914610195578063e9e34a161461016d578063ec597e6f146101505763f5d74d9314610124575f80fd5b3461014c575f36600319011261014c576003546040516001600160a01b039091168152602090f35b5f80fd5b3461014c575f36600319011261014c576020600454604051908152f35b3461014c575f36600319011261014c576002546040516001600160a01b039091168152602090f35b3461014c57602036600319011261014c57600435600881101561014c5760209060100154604051908152f35b3461014c57602036600319011261014c5760043560065481101561014c5760065481101561021b5760065f527ff652222313e28459528d920b65115c16c04f3efc82aaedc97be59f3f377c0d3f0154604051908152602090f35b634e487b7160e01b5f52603260045260245ffd5b3461014c575f36600319011261014c576020600554604051908152f35b3461014c57602036600319011261014c57600435805f52602b60205260405f2061028060018060a01b038254163314610cf5565b600d8101908154916008831061029581610d34565b1561021b57826010015483601801549060068401541015908161048a575b501561044d5782610448575b835f52602960205260405f20835f526020526102e260ff60405f20541615610d6f565b6102eb83610cb0565b90545f80546040516323b872dd60e01b815233600482015230602482015260039490941b9290921c60448401819052939291602091839160649183916001600160a01b03165af1801561043d57610410575b50805492600184018094116103fc576103b89360019255855f52602960205260405f20855f5260205260405f208260ff19825416179055600e8101610383848254610e3a565b90556103908387876114c4565b6040519261039d84610db4565b83525f6020840152426040840152600b606084015201610e47565b600181018091116103fc576040519081526040602082015260076040820152662137b7b9ba32b960c91b60608201525f5160206118ab5f395f51905f5260803392a3005b634e487b7160e01b5f52601160045260245ffd5b6104319060203d602011610436575b6104298183610e00565b810190610e22565b61033d565b503d61041f565b6040513d5f823e3d90fd5b6102bf565b60405162461bcd60e51b8152602060048201526015602482015274155c19dc9859194814db1bdd08185b9908141bdbdb605a1b6044820152606490fd5b9050600b8301541015856102b3565b3461014c57602036600319011261014c5760043560075481101561014c576104c2602091610cc8565b90549060031b1c604051908152f35b3461014c57602036600319011261014c57600435600881101561014c5760209060180154604051908152f35b3461014c57604036600319011261014c5760043563ffffffff811680910361014c57602435815f52602b60205260405f2061054260018060a01b038254163314610cf5565b600b8101916105546007845410610ffc565b60018101928382116103fc576007548410156106f15761057384610cc8565b90549060031b1c825f526020805260405f20865f5260205260405f2080548281106106ac57875f52602560205260405f20875f5260205260ff60405f20541661066757826105c091611036565b9055815491600183018093116103fc576002946106179360019255600c81016105ea848254610e3a565b9055875f52602560205260405f20875f5260205260405f208260ff198254161790556103908389896110ec565b018091116103fc57604051908152604060208201526016604082015275506f6f6c205570677261646520284561726e696e672960501b60608201525f5160206118ab5f395f51905f5260803392a3005b60405162461bcd60e51b815260206004820152601b60248201527f416c726561647920707572636861736564206e65787420706f6f6c00000000006044820152606490fd5b60405162461bcd60e51b815260206004820152601c60248201527f4e6f7420656e6f756768206e65787420706f6f6c2062616c616e6365000000006044820152606490fd5b60405162461bcd60e51b815260206004820152600e60248201526d139bc81a1a59da195c881c1bdbdb60921b6044820152606490fd5b3461014c575f36600319011261014c576001546040516001600160a01b039091168152602090f35b3461014c575f36600319011261014c576020603154604051908152f35b3461014c57604036600319011261014c57600435602435815f52602b60205260405f206107a360018060a01b038254163314610cf5565b6107b36007600b83015410610ffc565b6107bc82610cc8565b90549060031b1c825f526020805260405f20845f52602052600160405f2001918254908282106108845761083c936107f684600194611036565b9055600c8101610807848254610e3a565b90556108148387876110ec565b6040519261082184610db4565b83525f6020840152426040840152600a606084015201610e47565b604051908152604060208201526016604082015275506f6f6c205265546f70757020284561726e696e672960501b60608201525f5160206118ab5f395f51905f5260803392a3005b60405162461bcd60e51b815260206004820152601a60248201527f4e6f7420656e6f756768207265546f7075702062616c616e63650000000000006044820152606490fd5b3461014c57602036600319011261014c5760606108e7600435610e9e565b91906020604051938492151583526040828401528051918291826040860152018484015e5f828201840152601f01601f19168101030190f35b3461014c575f36600319011261014c576020604051600a8152f35b3461014c57602036600319011261014c57600435805f52602b60205260405f2061096f60018060a01b038254163314610cf5565b600b8101908154916007831061098481610d34565b1561021b578260090154600683015410610b21578215908115610b1c575b845f52602560205260405f20845f526020526109c560ff60405f20541615610d6f565b6109ce84610cc8565b90545f80546040516323b872dd60e01b815233600482015230602482015260039490941b9290921c60448401819052949291602091839160649183916001600160a01b03165af1801561043d57610aff575b50610aac575b805492600184018094116103fc57610a6b9360019255855f52602560205260405f20855f5260205260405f208260ff19825416179055600c8101610807848254610e3a565b600181018091116103fc57604051908152604060208201526004604082015263141bdbdb60e21b60608201525f5160206118ab5f395f51905f5260803392a3005b6004830154805f52602b602052600f60405f2001546202a30081018091116103fc57421015610adc575b50610a26565b5f52602b602052600860405f2001805490600182018092116103fc575585610ad6565b610b179060203d602011610436576104298183610e00565b610a20565b6109a2565b60405162461bcd60e51b815260206004820152601860248201527f5570677261646520796f7572206c6576656c20666972737400000000000000006044820152606490fd5b3461014c57602036600319011261014c5760043560335481101561014c5760335481101561021b5760335f527f82a75bdeeae8604d839476ae9efd8b0e15aa447e21bfd7f41283bb54e22c9a820154604051908152602090f35b3461014c575f36600319011261014c576020604051600f8152f35b3461014c575f36600319011261014c576020604051670de0b6b3a76400008152f35b3461014c575f36600319011261014c576020604051620151808152f35b3461014c575f36600319011261014c575f546040516001600160a01b039091168152602090f35b3461014c57602036600319011261014c5760043560085481101561014c576104c2602091610cb0565b3461014c57602036600319011261014c57600435600781101561014c5760209060090154604051908152f35b3461014c575f36600319011261014c578061271060209252f35b60085481101561021b5760085f5260205f2001905f90565b60075481101561021b5760075f5260205f2001905f90565b805482101561021b575f5260205f2001905f90565b15610cfc57565b60405162461bcd60e51b815260206004820152601060248201526f139bdd081e5bdd5c881858d8dbdd5b9d60821b6044820152606490fd5b15610d3b57565b60405162461bcd60e51b815260206004820152600c60248201526b105d081b585e081b195d995b60a21b6044820152606490fd5b15610d7657565b60405162461bcd60e51b8152602060048201526016602482015275141bdbdb08185b1c9958591e481c1d5c98da185cd95960521b6044820152606490fd5b6080810190811067ffffffffffffffff821117610dd057604052565b634e487b7160e01b5f52604160045260245ffd5b60a0810190811067ffffffffffffffff821117610dd057604052565b90601f8019910116810190811067ffffffffffffffff821117610dd057604052565b9081602091031261014c5751801515810361014c5790565b919082018092116103fc57565b8054600160401b811015610dd0576001810180835581101561021b57600360609160ff935f5260205f209060021b01845181556020850151600182015560408501516002820155019201511660ff19825416179055565b6060905f52602b60205260405f20600b81015491600754831015610fb05750600782101561021b576006826009015491015410610f6357151580610f5c575b610f1f57600190604051610ef2604082610e00565b601981527f456c696769626c6520746f20627579206e65787420706f6f6c00000000000000602082015290565b5f90604051610f2f604082610e00565b601781527f4275792070726576696f757320706f6f6c206669727374000000000000000000602082015290565b505f610edd565b505f90604051610f74606082610e00565b602681527f596f75206e65656420746f207265616368206120686967686572206c6576656c60208201526508199a5c9cdd60d21b604082015290565b929150505f91610fc36040519182610e00565b602381527f596f752061726520616c726561647920617420746865206869676865737420706020820152621bdbdb60ea1b604082015290565b1561100357565b60405162461bcd60e51b815260206004820152600b60248201526a105d081b585e081c1bdbdb60aa1b6044820152606490fd5b919082039182116103fc57565b1561104a57565b60405162461bcd60e51b8152602060048201526007602482015266125b9d985b1a5960ca1b6044820152606490fd5b1561108057565b60405162461bcd60e51b815260206004820152601060248201526f125b98dbdc9c9958dd08185b5bdd5b9d60821b6044820152606490fd5b8054600160401b811015610dd0576110d591600182018155610ce0565b819291549060031b91821b915f19901b1916179055565b92916110fb6007548510611043565b61111561110785610cc8565b90549060031b1c3414611079565b835f52602460205260405f205461112e81600454610e3a565b90855f5260246020526111448260405f206110b8565b5f1981019081116103fc5761116a600361121292885f5260246020520460405f20610ce0565b90549060031b1c916111d860405161118181610de4565b828152602080820188815260408084018c8152606085018981525f608087018181528f8252602187528482208a83529096529290922094518555915160018501559051600284015551600383015551600490910155565b865f52602360205260405f20855f526020526111f78160405f206110b8565b865f52602260205260405f20835f5260205260405f206110b8565b60038204945f935f925b60038410611247575b50505050611234929350611036565b8061123c5750565b611245906117a4565b565b801580156114b9575b61148757825f52602160205260405f20905f5260205260405f20948760018701546004880180546027811061129c575b505050611291600391600193610e3a565b96015493019261121c565b90919250600181018091116103fc579081905589906018811161142c575050805f52602c602052600860405f206112d48b8254610e3a565b8155016112e28a8254610e3a565b9055805f52602d60205261132260405f206040519061130082610de4565b8582528b602083015260016040830152426060830152600a6080830152611749565b5f908152602b6020526040902054881591906001600160a01b0316605f8a8102908b8204148417156103fc575f805460405163a9059cbb60e01b81526001600160a01b03858116600483015260649094046024820152926020928492604492849291165af1801561043d57611410575b5060058a02928a840460051417156103fc5789600392611291926113ba6064600197046117a4565b865f52602b602052858060a01b0360405f205416907fe17b61d324ce17328f433d0ab62581c0f0aa997312bae80fbdfcd2aa9b91d6e36060604051868152896020820152600a6040820152a35b93819350611280565b6114279060203d8111610436576104298183610e00565b611392565b600193600393611291939260241061146557875f526020805260405f20905f5260205260405f2061145e838254610e3a565b9055611407565b875f526020805260405f20905f526020528460405f200161145e838254610e3a565b5050505061123492935061149b8282611036565b806114aa575b84938180611225565b6114b3906117a4565b5f6114a1565b506004548114611250565b6114d16008548210611043565b6114dd61110782610cb0565b5f8181526028602052604090208054906114f89084906110b8565b5f1981019081116103fc57600361151b91835f5260286020520460405f20610ce0565b90549060031b1c9060405161152f81610db4565b8381526003602082018381526040830185815260608401915f8352855f52602660205260405f20885f5260205260405f209451855551600185015551600284015551910155805f52602760205260405f20825f526020526115938360405f206110b8565b8115801561173e575b611732575f52602660205260405f20815f52602052600360405f200160038154105f1461173257805490600182018092116103fc5755805f52602c602052600960405f206115eb858254610e3a565b8155016115f9848254610e3a565b9055805f52602d60205261163960405f206040519061161782610de4565b84825285602083015260016040830152426060830152600b6080830152611749565b5f908152602b60205260409020546001600160a01b0316908215605f84810290858204148217156103fc575f805460405163a9059cbb60e01b81526001600160a01b03878116600483015260649094046024820152926020928492604492849291165af1801561043d57611715575b50600584029084820460051417156103fc5760646116c691046117a4565b5f52602b6020527fe17b61d324ce17328f433d0ab62581c0f0aa997312bae80fbdfcd2aa9b91d6e3606060018060a01b0360405f2054169360405190815260016020820152600b6040820152a3565b61172d9060203d602011610436576104298183610e00565b6116a8565b505050611245906117a4565b50600454821461159c565b908154600160401b811015610dd0576001810180845581101561021b57611245925f52600560205f20910201906080600491805184556020810151600185015560408101516002850155606081015160038501550151910155565b6001546001600160a01b0316908115611871575f805460405163a9059cbb60e01b81526001600160a01b03948516600482015260248101849052936020928592604492849291165af191821561043d5761124592611854575b506004545f52602c60205260405f20611817828254610e3a565b90556004545f52602d60205260405f206040519161183483610de4565b5f835260208301525f604083015242606083015260056080830152611749565b61186c9060203d602011610436576104298183610e00565b6117fd565b60405162461bcd60e51b8152602060048201526011602482015270199959481859191c9cc81b9bdd081cd95d607a1b6044820152606490fdfebabb6a363fd9a057996d09882c0b74b710d121707d19eeffd91c51c3171a7c91a26469706673582212200336573f8013798ae9666e3d13ff6c2f2e3067b6f2b80ae513be6200489e8b6e64736f6c634300081e0033",
			"opcodes": "PUSH1 0x80 PUSH1 0x40 MSTORE CALLVALUE PUSH2 0x4FF JUMPI PUSH1 0x40 MLOAD PUSH2 0x1E0 DUP2 ADD PUSH1 0x1 PUSH1 0x1 PUSH1 0x40 SHL SUB DUP2 GT DUP3 DUP3 LT OR PUSH2 0x4EB JUMPI PUSH1 0x40 MSTORE PUSH8 0xD02AB486CEDC0000 DUP2 MSTORE PUSH9 0x15AF1D78B58C40000 PUSH1 0x20 DUP3 ADD MSTORE PUSH9 0x2B5E3AF16B1880000 PUSH1 0x40 DUP3 ADD MSTORE PUSH9 0x56BC75E2D63100000 PUSH1 0x60 DUP3 ADD MSTORE PUSH9 0xAD78EBC5AC6200000 PUSH1 0x80 DUP3 ADD MSTORE PUSH9 0x15AF1D78B58C400000 PUSH1 0xA0 DUP3 ADD MSTORE PUSH9 0x2B5E3AF16B18800000 PUSH1 0xC0 DUP3 ADD MSTORE PUSH9 0x56BC75E2D631000000 PUSH1 0xE0 DUP3 ADD MSTORE PUSH9 0xAD78EBC5AC62000000 PUSH2 0x100 DUP3 ADD MSTORE PUSH10 0x15AF1D78B58C4000000 PUSH2 0x120 DUP3 ADD MSTORE PUSH10 0x2B5E3AF16B188000000 PUSH2 0x140 DUP3 ADD MSTORE PUSH10 0x56BC75E2D6310000000 PUSH2 0x160 DUP3 ADD MSTORE PUSH10 0xAD78EBC5AC620000000 PUSH2 0x180 DUP3 ADD MSTORE PUSH10 0x15AF1D78B58C40000000 PUSH2 0x1A0 DUP3 ADD MSTORE PUSH10 0x2B5E3AF16B1880000000 PUSH2 0x1C0 DUP3 ADD MSTORE PUSH1 0x6 SLOAD PUSH1 0xF PUSH1 0x6 SSTORE DUP1 PUSH1 0xF LT PUSH2 0x495 JUMPI JUMPDEST POP PUSH1 0x6 PUSH0 MSTORE PUSH1 0x20 PUSH0 KECCAK256 SWAP1 PUSH0 JUMPDEST PUSH1 0xF DUP2 LT PUSH2 0x478 JUMPI PUSH2 0x13D PUSH2 0x503 JUMP JUMPDEST PUSH9 0x410D586A20A4C0000 DUP2 MSTORE PUSH9 0x1043561A8829300000 PUSH1 0x20 DUP3 ADD MSTORE PUSH9 0x410D586A20A4C00000 PUSH1 0x40 DUP3 ADD MSTORE PUSH10 0x1043561A88293000000 PUSH1 0x60 DUP3 ADD MSTORE PUSH10 0x410D586A20A4C000000 PUSH1 0x80 DUP3 ADD MSTORE PUSH10 0x1043561A882930000000 PUSH1 0xA0 DUP3 ADD MSTORE PUSH10 0x410D586A20A4C0000000 PUSH1 0xC0 DUP3 ADD MSTORE PUSH1 0x7 SLOAD PUSH1 0x7 DUP1 SSTORE DUP1 PUSH1 0x7 LT PUSH2 0x422 JUMPI JUMPDEST POP PUSH1 0x7 PUSH0 MSTORE PUSH1 0x20 PUSH0 KECCAK256 SWAP1 PUSH0 JUMPDEST PUSH1 0x7 DUP2 LT PUSH2 0x405 JUMPI PUSH2 0x1D3 PUSH2 0x522 JUMP JUMPDEST PUSH9 0x56BC75E2D63100000 DUP2 MSTORE PUSH9 0xAD78EBC5AC6200000 PUSH1 0x20 DUP3 ADD MSTORE PUSH9 0x15AF1D78B58C400000 PUSH1 0x40 DUP3 ADD MSTORE PUSH9 0x2B5E3AF16B18800000 PUSH1 0x60 DUP3 ADD MSTORE PUSH9 0x56BC75E2D631000000 PUSH1 0x80 DUP3 ADD MSTORE PUSH9 0xAD78EBC5AC62000000 PUSH1 0xA0 DUP3 ADD MSTORE PUSH10 0x15AF1D78B58C4000000 PUSH1 0xC0 DUP3 ADD MSTORE PUSH10 0x2B5E3AF16B188000000 PUSH1 0xE0 DUP3 ADD MSTORE PUSH1 0x8 SLOAD PUSH1 0x8 DUP1 SSTORE DUP1 PUSH1 0x8 LT PUSH2 0x3AF JUMPI JUMPDEST POP PUSH1 0x8 PUSH0 MSTORE PUSH1 0x20 PUSH0 KECCAK256 SWAP1 PUSH0 JUMPDEST PUSH1 0x8 DUP2 LT PUSH2 0x392 JUMPI PUSH2 0x276 PUSH2 0x503 JUMP JUMPDEST PUSH1 0x3 DUP2 MSTORE PUSH1 0x5 PUSH1 0x20 DUP3 ADD MSTORE PUSH1 0x7 PUSH1 0x40 DUP3 ADD MSTORE PUSH1 0x9 PUSH1 0x60 DUP3 ADD MSTORE PUSH1 0xB PUSH1 0x80 DUP3 ADD MSTORE PUSH1 0xD PUSH1 0xA0 DUP3 ADD MSTORE PUSH1 0xF PUSH1 0xC0 DUP3 ADD MSTORE PUSH0 JUMPDEST PUSH1 0x7 DUP2 LT PUSH2 0x37A JUMPI PUSH2 0x2B6 PUSH2 0x522 JUMP JUMPDEST PUSH1 0x4 DUP2 MSTORE PUSH1 0x5 PUSH1 0x20 DUP3 ADD MSTORE PUSH1 0x6 PUSH1 0x40 DUP3 ADD MSTORE PUSH1 0x7 PUSH1 0x60 DUP3 ADD MSTORE PUSH1 0x8 PUSH1 0x80 DUP3 ADD MSTORE PUSH1 0x9 PUSH1 0xA0 DUP3 ADD MSTORE PUSH1 0xA PUSH1 0xC0 DUP3 ADD MSTORE PUSH1 0xB PUSH1 0xE0 DUP3 ADD MSTORE PUSH0 JUMPDEST PUSH1 0x8 DUP2 LT PUSH2 0x362 JUMPI PUSH2 0x2FD PUSH2 0x522 JUMP JUMPDEST PUSH0 DUP2 MSTORE PUSH1 0x1 PUSH1 0x20 DUP3 ADD MSTORE PUSH1 0x1 PUSH1 0x40 DUP3 ADD MSTORE PUSH1 0x1 PUSH1 0x60 DUP3 ADD MSTORE PUSH1 0x1 PUSH1 0x80 DUP3 ADD MSTORE PUSH1 0x1 PUSH1 0xA0 DUP3 ADD MSTORE PUSH1 0x1 PUSH1 0xC0 DUP3 ADD MSTORE PUSH1 0x1 PUSH1 0xE0 DUP3 ADD MSTORE PUSH0 JUMPDEST PUSH1 0x8 DUP2 LT PUSH2 0x34A JUMPI PUSH1 0x40 MLOAD PUSH2 0x1900 SWAP1 DUP2 PUSH2 0x559 DUP3 CODECOPY RETURN JUMPDEST PUSH1 0x1 SWAP1 PUSH1 0x20 PUSH1 0xFF DUP5 MLOAD AND SWAP4 ADD SWAP3 DUP2 PUSH1 0x18 ADD SSTORE ADD PUSH2 0x333 JUMP JUMPDEST PUSH1 0x1 SWAP1 PUSH1 0x20 PUSH1 0xFF DUP5 MLOAD AND SWAP4 ADD SWAP3 DUP2 PUSH1 0x10 ADD SSTORE ADD PUSH2 0x2ED JUMP JUMPDEST PUSH1 0x1 SWAP1 PUSH1 0x20 PUSH1 0xFF DUP5 MLOAD AND SWAP4 ADD SWAP3 DUP2 PUSH1 0x9 ADD SSTORE ADD PUSH2 0x2A6 JUMP JUMPDEST DUP2 MLOAD PUSH1 0x1 PUSH1 0x1 PUSH1 0x50 SHL SUB AND DUP2 DUP5 ADD SSTORE PUSH1 0x20 SWAP1 SWAP2 ADD SWAP1 PUSH1 0x1 ADD PUSH2 0x266 JUMP JUMPDEST PUSH1 0x8 PUSH0 MSTORE PUSH2 0x3FF SWAP1 PUSH32 0xF3F7A9FE364FAAB93B216DA50A3214154F22A0A2B415B23A84C8169E8B636EE3 ADD PUSH32 0xF3F7A9FE364FAAB93B216DA50A3214154F22A0A2B415B23A84C8169E8B636EEB PUSH2 0x542 JUMP JUMPDEST DUP2 PUSH2 0x25A JUMP JUMPDEST DUP2 MLOAD PUSH1 0x1 PUSH1 0x1 PUSH1 0x50 SHL SUB AND DUP2 DUP5 ADD SSTORE PUSH1 0x20 SWAP1 SWAP2 ADD SWAP1 PUSH1 0x1 ADD PUSH2 0x1C3 JUMP JUMPDEST PUSH1 0x7 PUSH0 MSTORE PUSH2 0x472 SWAP1 PUSH32 0xA66CC928B5EDB82AF9BD49922954155AB7B0942694BEA4CE44661D9A8736C688 ADD PUSH32 0xA66CC928B5EDB82AF9BD49922954155AB7B0942694BEA4CE44661D9A8736C68F PUSH2 0x542 JUMP JUMPDEST DUP2 PUSH2 0x1B7 JUMP JUMPDEST DUP2 MLOAD PUSH1 0x1 PUSH1 0x1 PUSH1 0x50 SHL SUB AND DUP2 DUP5 ADD SSTORE PUSH1 0x20 SWAP1 SWAP2 ADD SWAP1 PUSH1 0x1 ADD PUSH2 0x12D JUMP JUMPDEST PUSH1 0x6 PUSH0 MSTORE PUSH2 0x4E5 SWAP1 PUSH32 0xF652222313E28459528D920B65115C16C04F3EFC82AAEDC97BE59F3F377C0D3F ADD PUSH32 0xF652222313E28459528D920B65115C16C04F3EFC82AAEDC97BE59F3F377C0D4E PUSH2 0x542 JUMP JUMPDEST PUSH0 PUSH2 0x121 JUMP JUMPDEST PUSH4 0x4E487B71 PUSH1 0xE0 SHL PUSH0 MSTORE PUSH1 0x41 PUSH1 0x4 MSTORE PUSH1 0x24 PUSH0 REVERT JUMPDEST PUSH0 DUP1 REVERT JUMPDEST PUSH1 0x40 MLOAD SWAP1 PUSH1 0xE0 DUP3 ADD PUSH1 0x1 PUSH1 0x1 PUSH1 0x40 SHL SUB DUP2 GT DUP4 DUP3 LT OR PUSH2 0x4EB JUMPI PUSH1 0x40 MSTORE JUMP JUMPDEST PUSH1 0x40 MLOAD SWAP1 PUSH2 0x100 DUP3 ADD PUSH1 0x1 PUSH1 0x1 PUSH1 0x40 SHL SUB DUP2 GT DUP4 DUP3 LT OR PUSH2 0x4EB JUMPI PUSH1 0x40 MSTORE JUMP JUMPDEST DUP2 DUP2 LT PUSH2 0x54D JUMPI POP POP JUMP JUMPDEST PUSH0 DUP2 SSTORE PUSH1 0x1 ADD PUSH2 0x542 JUMP INVALID PUSH1 0x80 DUP1 PUSH1 0x40 MSTORE PUSH1 0x4 CALLDATASIZE LT ISZERO PUSH2 0x12 JUMPI PUSH0 DUP1 REVERT JUMPDEST PUSH0 CALLDATALOAD PUSH1 0xE0 SHR SWAP1 DUP2 PUSH4 0x1C234A8 EQ PUSH2 0xC96 JUMPI POP DUP1 PUSH4 0x2132D204 EQ PUSH2 0xC6A JUMPI DUP1 PUSH4 0x2350268F EQ PUSH2 0xC41 JUMPI DUP1 PUSH4 0x2F48AB7D EQ PUSH2 0xC1A JUMPI DUP1 PUSH4 0x32BC298C EQ PUSH2 0xBFD JUMPI DUP1 PUSH4 0x32FCD966 EQ PUSH2 0xBDB JUMPI DUP1 PUSH4 0x375B43B4 EQ PUSH2 0xBC0 JUMPI DUP1 PUSH4 0x39AB3603 EQ PUSH2 0xB66 JUMPI DUP1 PUSH4 0x4060160A EQ PUSH2 0x93B JUMPI DUP1 PUSH4 0x58C7D352 EQ PUSH2 0x920 JUMPI DUP1 PUSH4 0x67D52D4D EQ PUSH2 0x8C9 JUMPI DUP1 PUSH4 0x7848F0A3 EQ PUSH2 0x76C JUMPI DUP1 PUSH4 0x78F6AD6D EQ PUSH2 0x74F JUMPI DUP1 PUSH4 0x7CDC65F2 EQ PUSH2 0x727 JUMPI DUP1 PUSH4 0x8E222E24 EQ PUSH2 0x4FD JUMPI DUP1 PUSH4 0x956A3228 EQ PUSH2 0x4D1 JUMPI DUP1 PUSH4 0xAE4708DC EQ PUSH2 0x499 JUMPI DUP1 PUSH4 0xBC1FA7C0 EQ PUSH2 0x24C JUMPI DUP1 PUSH4 0xBFF1F9E1 EQ PUSH2 0x22F JUMPI DUP1 PUSH4 0xC216212A EQ PUSH2 0x1C1 JUMPI DUP1 PUSH4 0xD0A2FD79 EQ PUSH2 0x195 JUMPI DUP1 PUSH4 0xE9E34A16 EQ PUSH2 0x16D JUMPI DUP1 PUSH4 0xEC597E6F EQ PUSH2 0x150 JUMPI PUSH4 0xF5D74D93 EQ PUSH2 0x124 JUMPI PUSH0 DUP1 REVERT JUMPDEST CALLVALUE PUSH2 0x14C JUMPI PUSH0 CALLDATASIZE PUSH1 0x3 NOT ADD SLT PUSH2 0x14C JUMPI PUSH1 0x3 SLOAD PUSH1 0x40 MLOAD PUSH1 0x1 PUSH1 0x1 PUSH1 0xA0 SHL SUB SWAP1 SWAP2 AND DUP2 MSTORE PUSH1 0x20 SWAP1 RETURN JUMPDEST PUSH0 DUP1 REVERT JUMPDEST CALLVALUE PUSH2 0x14C JUMPI PUSH0 CALLDATASIZE PUSH1 0x3 NOT ADD SLT PUSH2 0x14C JUMPI PUSH1 0x20 PUSH1 0x4 SLOAD PUSH1 0x40 MLOAD SWAP1 DUP2 MSTORE RETURN JUMPDEST CALLVALUE PUSH2 0x14C JUMPI PUSH0 CALLDATASIZE PUSH1 0x3 NOT ADD SLT PUSH2 0x14C JUMPI PUSH1 0x2 SLOAD PUSH1 0x40 MLOAD PUSH1 0x1 PUSH1 0x1 PUSH1 0xA0 SHL SUB SWAP1 SWAP2 AND DUP2 MSTORE PUSH1 0x20 SWAP1 RETURN JUMPDEST CALLVALUE PUSH2 0x14C JUMPI PUSH1 0x20 CALLDATASIZE PUSH1 0x3 NOT ADD SLT PUSH2 0x14C JUMPI PUSH1 0x4 CALLDATALOAD PUSH1 0x8 DUP2 LT ISZERO PUSH2 0x14C JUMPI PUSH1 0x20 SWAP1 PUSH1 0x10 ADD SLOAD PUSH1 0x40 MLOAD SWAP1 DUP2 MSTORE RETURN JUMPDEST CALLVALUE PUSH2 0x14C JUMPI PUSH1 0x20 CALLDATASIZE PUSH1 0x3 NOT ADD SLT PUSH2 0x14C JUMPI PUSH1 0x4 CALLDATALOAD PUSH1 0x6 SLOAD DUP2 LT ISZERO PUSH2 0x14C JUMPI PUSH1 0x6 SLOAD DUP2 LT ISZERO PUSH2 0x21B JUMPI PUSH1 0x6 PUSH0 MSTORE PUSH32 0xF652222313E28459528D920B65115C16C04F3EFC82AAEDC97BE59F3F377C0D3F ADD SLOAD PUSH1 0x40 MLOAD SWAP1 DUP2 MSTORE PUSH1 0x20 SWAP1 RETURN JUMPDEST PUSH4 0x4E487B71 PUSH1 0xE0 SHL PUSH0 MSTORE PUSH1 0x32 PUSH1 0x4 MSTORE PUSH1 0x24 PUSH0 REVERT JUMPDEST CALLVALUE PUSH2 0x14C JUMPI PUSH0 CALLDATASIZE PUSH1 0x3 NOT ADD SLT PUSH2 0x14C JUMPI PUSH1 0x20 PUSH1 0x5 SLOAD PUSH1 0x40 MLOAD SWAP1 DUP2 MSTORE RETURN JUMPDEST CALLVALUE PUSH2 0x14C JUMPI PUSH1 0x20 CALLDATASIZE PUSH1 0x3 NOT ADD SLT PUSH2 0x14C JUMPI PUSH1 0x4 CALLDATALOAD DUP1 PUSH0 MSTORE PUSH1 0x2B PUSH1 0x20 MSTORE PUSH1 0x40 PUSH0 KECCAK256 PUSH2 0x280 PUSH1 0x1 DUP1 PUSH1 0xA0 SHL SUB DUP3 SLOAD AND CALLER EQ PUSH2 0xCF5 JUMP JUMPDEST PUSH1 0xD DUP2 ADD SWAP1 DUP2 SLOAD SWAP2 PUSH1 0x8 DUP4 LT PUSH2 0x295 DUP2 PUSH2 0xD34 JUMP JUMPDEST ISZERO PUSH2 0x21B JUMPI DUP3 PUSH1 0x10 ADD SLOAD DUP4 PUSH1 0x18 ADD SLOAD SWAP1 PUSH1 0x6 DUP5 ADD SLOAD LT ISZERO SWAP1 DUP2 PUSH2 0x48A JUMPI JUMPDEST POP ISZERO PUSH2 0x44D JUMPI DUP3 PUSH2 0x448 JUMPI JUMPDEST DUP4 PUSH0 MSTORE PUSH1 0x29 PUSH1 0x20 MSTORE PUSH1 0x40 PUSH0 KECCAK256 DUP4 PUSH0 MSTORE PUSH1 0x20 MSTORE PUSH2 0x2E2 PUSH1 0xFF PUSH1 0x40 PUSH0 KECCAK256 SLOAD AND ISZERO PUSH2 0xD6F JUMP JUMPDEST PUSH2 0x2EB DUP4 PUSH2 0xCB0 JUMP JUMPDEST SWAP1 SLOAD PUSH0 DUP1 SLOAD PUSH1 0x40 MLOAD PUSH4 0x23B872DD PUSH1 0xE0 SHL DUP2 MSTORE CALLER PUSH1 0x4 DUP3 ADD MSTORE ADDRESS PUSH1 0x24 DUP3 ADD MSTORE PUSH1 0x3 SWAP5 SWAP1 SWAP5 SHL SWAP3 SWAP1 SWAP3 SHR PUSH1 0x44 DUP5 ADD DUP2 SWAP1 MSTORE SWAP4 SWAP3 SWAP2 PUSH1 0x20 SWAP2 DUP4 SWAP2 PUSH1 0x64 SWAP2 DUP4 SWAP2 PUSH1 0x1 PUSH1 0x1 PUSH1 0xA0 SHL SUB AND GAS CALL DUP1 ISZERO PUSH2 0x43D JUMPI PUSH2 0x410 JUMPI JUMPDEST POP DUP1 SLOAD SWAP3 PUSH1 0x1 DUP5 ADD DUP1 SWAP5 GT PUSH2 0x3FC JUMPI PUSH2 0x3B8 SWAP4 PUSH1 0x1 SWAP3 SSTORE DUP6 PUSH0 MSTORE PUSH1 0x29 PUSH1 0x20 MSTORE PUSH1 0x40 PUSH0 KECCAK256 DUP6 PUSH0 MSTORE PUSH1 0x20 MSTORE PUSH1 0x40 PUSH0 KECCAK256 DUP3 PUSH1 0xFF NOT DUP3 SLOAD AND OR SWAP1 SSTORE PUSH1 0xE DUP2 ADD PUSH2 0x383 DUP5 DUP3 SLOAD PUSH2 0xE3A JUMP JUMPDEST SWAP1 SSTORE PUSH2 0x390 DUP4 DUP8 DUP8 PUSH2 0x14C4 JUMP JUMPDEST PUSH1 0x40 MLOAD SWAP3 PUSH2 0x39D DUP5 PUSH2 0xDB4 JUMP JUMPDEST DUP4 MSTORE PUSH0 PUSH1 0x20 DUP5 ADD MSTORE TIMESTAMP PUSH1 0x40 DUP5 ADD MSTORE PUSH1 0xB PUSH1 0x60 DUP5 ADD MSTORE ADD PUSH2 0xE47 JUMP JUMPDEST PUSH1 0x1 DUP2 ADD DUP1 SWAP2 GT PUSH2 0x3FC JUMPI PUSH1 0x40 MLOAD SWAP1 DUP2 MSTORE PUSH1 0x40 PUSH1 0x20 DUP3 ADD MSTORE PUSH1 0x7 PUSH1 0x40 DUP3 ADD MSTORE PUSH7 0x2137B7B9BA32B9 PUSH1 0xC9 SHL PUSH1 0x60 DUP3 ADD MSTORE PUSH0 MLOAD PUSH1 0x20 PUSH2 0x18AB PUSH0 CODECOPY PUSH0 MLOAD SWAP1 PUSH0 MSTORE PUSH1 0x80 CALLER SWAP3 LOG3 STOP JUMPDEST PUSH4 0x4E487B71 PUSH1 0xE0 SHL PUSH0 MSTORE PUSH1 0x11 PUSH1 0x4 MSTORE PUSH1 0x24 PUSH0 REVERT JUMPDEST PUSH2 0x431 SWAP1 PUSH1 0x20 RETURNDATASIZE PUSH1 0x20 GT PUSH2 0x436 JUMPI JUMPDEST PUSH2 0x429 DUP2 DUP4 PUSH2 0xE00 JUMP JUMPDEST DUP2 ADD SWAP1 PUSH2 0xE22 JUMP JUMPDEST PUSH2 0x33D JUMP JUMPDEST POP RETURNDATASIZE PUSH2 0x41F JUMP JUMPDEST PUSH1 0x40 MLOAD RETURNDATASIZE PUSH0 DUP3 RETURNDATACOPY RETURNDATASIZE SWAP1 REVERT JUMPDEST PUSH2 0x2BF JUMP JUMPDEST PUSH1 0x40 MLOAD PUSH3 0x461BCD PUSH1 0xE5 SHL DUP2 MSTORE PUSH1 0x20 PUSH1 0x4 DUP3 ADD MSTORE PUSH1 0x15 PUSH1 0x24 DUP3 ADD MSTORE PUSH21 0x155C19DC9859194814DB1BDD08185B9908141BDBDB PUSH1 0x5A SHL PUSH1 0x44 DUP3 ADD MSTORE PUSH1 0x64 SWAP1 REVERT JUMPDEST SWAP1 POP PUSH1 0xB DUP4 ADD SLOAD LT ISZERO DUP6 PUSH2 0x2B3 JUMP JUMPDEST CALLVALUE PUSH2 0x14C JUMPI PUSH1 0x20 CALLDATASIZE PUSH1 0x3 NOT ADD SLT PUSH2 0x14C JUMPI PUSH1 0x4 CALLDATALOAD PUSH1 0x7 SLOAD DUP2 LT ISZERO PUSH2 0x14C JUMPI PUSH2 0x4C2 PUSH1 0x20 SWAP2 PUSH2 0xCC8 JUMP JUMPDEST SWAP1 SLOAD SWAP1 PUSH1 0x3 SHL SHR PUSH1 0x40 MLOAD SWAP1 DUP2 MSTORE RETURN JUMPDEST CALLVALUE PUSH2 0x14C JUMPI PUSH1 0x20 CALLDATASIZE PUSH1 0x3 NOT ADD SLT PUSH2 0x14C JUMPI PUSH1 0x4 CALLDATALOAD PUSH1 0x8 DUP2 LT ISZERO PUSH2 0x14C JUMPI PUSH1 0x20 SWAP1 PUSH1 0x18 ADD SLOAD PUSH1 0x40 MLOAD SWAP1 DUP2 MSTORE RETURN JUMPDEST CALLVALUE PUSH2 0x14C JUMPI PUSH1 0x40 CALLDATASIZE PUSH1 0x3 NOT ADD SLT PUSH2 0x14C JUMPI PUSH1 0x4 CALLDATALOAD PUSH4 0xFFFFFFFF DUP2 AND DUP1 SWAP2 SUB PUSH2 0x14C JUMPI PUSH1 0x24 CALLDATALOAD DUP2 PUSH0 MSTORE PUSH1 0x2B PUSH1 0x20 MSTORE PUSH1 0x40 PUSH0 KECCAK256 PUSH2 0x542 PUSH1 0x1 DUP1 PUSH1 0xA0 SHL SUB DUP3 SLOAD AND CALLER EQ PUSH2 0xCF5 JUMP JUMPDEST PUSH1 0xB DUP2 ADD SWAP2 PUSH2 0x554 PUSH1 0x7 DUP5 SLOAD LT PUSH2 0xFFC JUMP JUMPDEST PUSH1 0x1 DUP2 ADD SWAP3 DUP4 DUP3 GT PUSH2 0x3FC JUMPI PUSH1 0x7 SLOAD DUP5 LT ISZERO PUSH2 0x6F1 JUMPI PUSH2 0x573 DUP5 PUSH2 0xCC8 JUMP JUMPDEST SWAP1 SLOAD SWAP1 PUSH1 0x3 SHL SHR DUP3 PUSH0 MSTORE PUSH1 0x20 DUP1 MSTORE PUSH1 0x40 PUSH0 KECCAK256 DUP7 PUSH0 MSTORE PUSH1 0x20 MSTORE PUSH1 0x40 PUSH0 KECCAK256 DUP1 SLOAD DUP3 DUP2 LT PUSH2 0x6AC JUMPI DUP8 PUSH0 MSTORE PUSH1 0x25 PUSH1 0x20 MSTORE PUSH1 0x40 PUSH0 KECCAK256 DUP8 PUSH0 MSTORE PUSH1 0x20 MSTORE PUSH1 0xFF PUSH1 0x40 PUSH0 KECCAK256 SLOAD AND PUSH2 0x667 JUMPI DUP3 PUSH2 0x5C0 SWAP2 PUSH2 0x1036 JUMP JUMPDEST SWAP1 SSTORE DUP2 SLOAD SWAP2 PUSH1 0x1 DUP4 ADD DUP1 SWAP4 GT PUSH2 0x3FC JUMPI PUSH1 0x2 SWAP5 PUSH2 0x617 SWAP4 PUSH1 0x1 SWAP3 SSTORE PUSH1 0xC DUP2 ADD PUSH2 0x5EA DUP5 DUP3 SLOAD PUSH2 0xE3A JUMP JUMPDEST SWAP1 SSTORE DUP8 PUSH0 MSTORE PUSH1 0x25 PUSH1 0x20 MSTORE PUSH1 0x40 PUSH0 KECCAK256 DUP8 PUSH0 MSTORE PUSH1 0x20 MSTORE PUSH1 0x40 PUSH0 KECCAK256 DUP3 PUSH1 0xFF NOT DUP3 SLOAD AND OR SWAP1 SSTORE PUSH2 0x390 DUP4 DUP10 DUP10 PUSH2 0x10EC JUMP JUMPDEST ADD DUP1 SWAP2 GT PUSH2 0x3FC JUMPI PUSH1 0x40 MLOAD SWAP1 DUP2 MSTORE PUSH1 0x40 PUSH1 0x20 DUP3 ADD MSTORE PUSH1 0x16 PUSH1 0x40 DUP3 ADD MSTORE PUSH22 0x506F6F6C205570677261646520284561726E696E6729 PUSH1 0x50 SHL PUSH1 0x60 DUP3 ADD MSTORE PUSH0 MLOAD PUSH1 0x20 PUSH2 0x18AB PUSH0 CODECOPY PUSH0 MLOAD SWAP1 PUSH0 MSTORE PUSH1 0x80 CALLER SWAP3 LOG3 STOP JUMPDEST PUSH1 0x40 MLOAD PUSH3 0x461BCD PUSH1 0xE5 SHL DUP2 MSTORE PUSH1 0x20 PUSH1 0x4 DUP3 ADD MSTORE PUSH1 0x1B PUSH1 0x24 DUP3 ADD MSTORE PUSH32 0x416C726561647920707572636861736564206E65787420706F6F6C0000000000 PUSH1 0x44 DUP3 ADD MSTORE PUSH1 0x64 SWAP1 REVERT JUMPDEST PUSH1 0x40 MLOAD PUSH3 0x461BCD PUSH1 0xE5 SHL DUP2 MSTORE PUSH1 0x20 PUSH1 0x4 DUP3 ADD MSTORE PUSH1 0x1C PUSH1 0x24 DUP3 ADD MSTORE PUSH32 0x4E6F7420656E6F756768206E65787420706F6F6C2062616C616E636500000000 PUSH1 0x44 DUP3 ADD MSTORE PUSH1 0x64 SWAP1 REVERT JUMPDEST PUSH1 0x40 MLOAD PUSH3 0x461BCD PUSH1 0xE5 SHL DUP2 MSTORE PUSH1 0x20 PUSH1 0x4 DUP3 ADD MSTORE PUSH1 0xE PUSH1 0x24 DUP3 ADD MSTORE PUSH14 0x139BC81A1A59DA195C881C1BDBDB PUSH1 0x92 SHL PUSH1 0x44 DUP3 ADD MSTORE PUSH1 0x64 SWAP1 REVERT JUMPDEST CALLVALUE PUSH2 0x14C JUMPI PUSH0 CALLDATASIZE PUSH1 0x3 NOT ADD SLT PUSH2 0x14C JUMPI PUSH1 0x1 SLOAD PUSH1 0x40 MLOAD PUSH1 0x1 PUSH1 0x1 PUSH1 0xA0 SHL SUB SWAP1 SWAP2 AND DUP2 MSTORE PUSH1 0x20 SWAP1 RETURN JUMPDEST CALLVALUE PUSH2 0x14C JUMPI PUSH0 CALLDATASIZE PUSH1 0x3 NOT ADD SLT PUSH2 0x14C JUMPI PUSH1 0x20 PUSH1 0x31 SLOAD PUSH1 0x40 MLOAD SWAP1 DUP2 MSTORE RETURN JUMPDEST CALLVALUE PUSH2 0x14C JUMPI PUSH1 0x40 CALLDATASIZE PUSH1 0x3 NOT ADD SLT PUSH2 0x14C JUMPI PUSH1 0x4 CALLDATALOAD PUSH1 0x24 CALLDATALOAD DUP2 PUSH0 MSTORE PUSH1 0x2B PUSH1 0x20 MSTORE PUSH1 0x40 PUSH0 KECCAK256 PUSH2 0x7A3 PUSH1 0x1 DUP1 PUSH1 0xA0 SHL SUB DUP3 SLOAD AND CALLER EQ PUSH2 0xCF5 JUMP JUMPDEST PUSH2 0x7B3 PUSH1 0x7 PUSH1 0xB DUP4 ADD SLOAD LT PUSH2 0xFFC JUMP JUMPDEST PUSH2 0x7BC DUP3 PUSH2 0xCC8 JUMP JUMPDEST SWAP1 SLOAD SWAP1 PUSH1 0x3 SHL SHR DUP3 PUSH0 MSTORE PUSH1 0x20 DUP1 MSTORE PUSH1 0x40 PUSH0 KECCAK256 DUP5 PUSH0 MSTORE PUSH1 0x20 MSTORE PUSH1 0x1 PUSH1 0x40 PUSH0 KECCAK256 ADD SWAP2 DUP3 SLOAD SWAP1 DUP3 DUP3 LT PUSH2 0x884 JUMPI PUSH2 0x83C SWAP4 PUSH2 0x7F6 DUP5 PUSH1 0x1 SWAP5 PUSH2 0x1036 JUMP JUMPDEST SWAP1 SSTORE PUSH1 0xC DUP2 ADD PUSH2 0x807 DUP5 DUP3 SLOAD PUSH2 0xE3A JUMP JUMPDEST SWAP1 SSTORE PUSH2 0x814 DUP4 DUP8 DUP8 PUSH2 0x10EC JUMP JUMPDEST PUSH1 0x40 MLOAD SWAP3 PUSH2 0x821 DUP5 PUSH2 0xDB4 JUMP JUMPDEST DUP4 MSTORE PUSH0 PUSH1 0x20 DUP5 ADD MSTORE TIMESTAMP PUSH1 0x40 DUP5 ADD MSTORE PUSH1 0xA PUSH1 0x60 DUP5 ADD MSTORE ADD PUSH2 0xE47 JUMP JUMPDEST PUSH1 0x40 MLOAD SWAP1 DUP2 MSTORE PUSH1 0x40 PUSH1 0x20 DUP3 ADD MSTORE PUSH1 0x16 PUSH1 0x40 DUP3 ADD MSTORE PUSH22 0x506F6F6C205265546F70757020284561726E696E6729 PUSH1 0x50 SHL PUSH1 0x60 DUP3 ADD MSTORE PUSH0 MLOAD PUSH1 0x20 PUSH2 0x18AB PUSH0 CODECOPY PUSH0 MLOAD SWAP1 PUSH0 MSTORE PUSH1 0x80 CALLER SWAP3 LOG3 STOP JUMPDEST PUSH1 0x40 MLOAD PUSH3 0x461BCD PUSH1 0xE5 SHL DUP2 MSTORE PUSH1 0x20 PUSH1 0x4 DUP3 ADD MSTORE PUSH1 0x1A PUSH1 0x24 DUP3 ADD MSTORE PUSH32 0x4E6F7420656E6F756768207265546F7075702062616C616E6365000000000000 PUSH1 0x44 DUP3 ADD MSTORE PUSH1 0x64 SWAP1 REVERT JUMPDEST CALLVALUE PUSH2 0x14C JUMPI PUSH1 0x20 CALLDATASIZE PUSH1 0x3 NOT ADD SLT PUSH2 0x14C JUMPI PUSH1 0x60 PUSH2 0x8E7 PUSH1 0x4 CALLDATALOAD PUSH2 0xE9E JUMP JUMPDEST SWAP2 SWAP1 PUSH1 0x20 PUSH1 0x40 MLOAD SWAP4 DUP5 SWAP3 ISZERO ISZERO DUP4 MSTORE PUSH1 0x40 DUP3 DUP5 ADD MSTORE DUP1 MLOAD SWAP2 DUP3 SWAP2 DUP3 PUSH1 0x40 DUP7 ADD MSTORE ADD DUP5 DUP5 ADD MCOPY PUSH0 DUP3 DUP3 ADD DUP5 ADD MSTORE PUSH1 0x1F ADD PUSH1 0x1F NOT AND DUP2 ADD SUB ADD SWAP1 RETURN JUMPDEST CALLVALUE PUSH2 0x14C JUMPI PUSH0 CALLDATASIZE PUSH1 0x3 NOT ADD SLT PUSH2 0x14C JUMPI PUSH1 0x20 PUSH1 0x40 MLOAD PUSH1 0xA DUP2 MSTORE RETURN JUMPDEST CALLVALUE PUSH2 0x14C JUMPI PUSH1 0x20 CALLDATASIZE PUSH1 0x3 NOT ADD SLT PUSH2 0x14C JUMPI PUSH1 0x4 CALLDATALOAD DUP1 PUSH0 MSTORE PUSH1 0x2B PUSH1 0x20 MSTORE PUSH1 0x40 PUSH0 KECCAK256 PUSH2 0x96F PUSH1 0x1 DUP1 PUSH1 0xA0 SHL SUB DUP3 SLOAD AND CALLER EQ PUSH2 0xCF5 JUMP JUMPDEST PUSH1 0xB DUP2 ADD SWAP1 DUP2 SLOAD SWAP2 PUSH1 0x7 DUP4 LT PUSH2 0x984 DUP2 PUSH2 0xD34 JUMP JUMPDEST ISZERO PUSH2 0x21B JUMPI DUP3 PUSH1 0x9 ADD SLOAD PUSH1 0x6 DUP4 ADD SLOAD LT PUSH2 0xB21 JUMPI DUP3 ISZERO SWAP1 DUP2 ISZERO PUSH2 0xB1C JUMPI JUMPDEST DUP5 PUSH0 MSTORE PUSH1 0x25 PUSH1 0x20 MSTORE PUSH1 0x40 PUSH0 KECCAK256 DUP5 PUSH0 MSTORE PUSH1 0x20 MSTORE PUSH2 0x9C5 PUSH1 0xFF PUSH1 0x40 PUSH0 KECCAK256 SLOAD AND ISZERO PUSH2 0xD6F JUMP JUMPDEST PUSH2 0x9CE DUP5 PUSH2 0xCC8 JUMP JUMPDEST SWAP1 SLOAD PUSH0 DUP1 SLOAD PUSH1 0x40 MLOAD PUSH4 0x23B872DD PUSH1 0xE0 SHL DUP2 MSTORE CALLER PUSH1 0x4 DUP3 ADD MSTORE ADDRESS PUSH1 0x24 DUP3 ADD MSTORE PUSH1 0x3 SWAP5 SWAP1 SWAP5 SHL SWAP3 SWAP1 SWAP3 SHR PUSH1 0x44 DUP5 ADD DUP2 SWAP1 MSTORE SWAP5 SWAP3 SWAP2 PUSH1 0x20 SWAP2 DUP4 SWAP2 PUSH1 0x64 SWAP2 DUP4 SWAP2 PUSH1 0x1 PUSH1 0x1 PUSH1 0xA0 SHL SUB AND GAS CALL DUP1 ISZERO PUSH2 0x43D JUMPI PUSH2 0xAFF JUMPI JUMPDEST POP PUSH2 0xAAC JUMPI JUMPDEST DUP1 SLOAD SWAP3 PUSH1 0x1 DUP5 ADD DUP1 SWAP5 GT PUSH2 0x3FC JUMPI PUSH2 0xA6B SWAP4 PUSH1 0x1 SWAP3 SSTORE DUP6 PUSH0 MSTORE PUSH1 0x25 PUSH1 0x20 MSTORE PUSH1 0x40 PUSH0 KECCAK256 DUP6 PUSH0 MSTORE PUSH1 0x20 MSTORE PUSH1 0x40 PUSH0 KECCAK256 DUP3 PUSH1 0xFF NOT DUP3 SLOAD AND OR SWAP1 SSTORE PUSH1 0xC DUP2 ADD PUSH2 0x807 DUP5 DUP3 SLOAD PUSH2 0xE3A JUMP JUMPDEST PUSH1 0x1 DUP2 ADD DUP1 SWAP2 GT PUSH2 0x3FC JUMPI PUSH1 0x40 MLOAD SWAP1 DUP2 MSTORE PUSH1 0x40 PUSH1 0x20 DUP3 ADD MSTORE PUSH1 0x4 PUSH1 0x40 DUP3 ADD MSTORE PUSH4 0x141BDBDB PUSH1 0xE2 SHL PUSH1 0x60 DUP3 ADD MSTORE PUSH0 MLOAD PUSH1 0x20 PUSH2 0x18AB PUSH0 CODECOPY PUSH0 MLOAD SWAP1 PUSH0 MSTORE PUSH1 0x80 CALLER SWAP3 LOG3 STOP JUMPDEST PUSH1 0x4 DUP4 ADD SLOAD DUP1 PUSH0 MSTORE PUSH1 0x2B PUSH1 0x20 MSTORE PUSH1 0xF PUSH1 0x40 PUSH0 KECCAK256 ADD SLOAD PUSH3 0x2A300 DUP2 ADD DUP1 SWAP2 GT PUSH2 0x3FC JUMPI TIMESTAMP LT ISZERO PUSH2 0xADC JUMPI JUMPDEST POP PUSH2 0xA26 JUMP JUMPDEST PUSH0 MSTORE PUSH1 0x2B PUSH1 0x20 MSTORE PUSH1 0x8 PUSH1 0x40 PUSH0 KECCAK256 ADD DUP1 SLOAD SWAP1 PUSH1 0x1 DUP3 ADD DUP1 SWAP3 GT PUSH2 0x3FC JUMPI SSTORE DUP6 PUSH2 0xAD6 JUMP JUMPDEST PUSH2 0xB17 SWAP1 PUSH1 0x20 RETURNDATASIZE PUSH1 0x20 GT PUSH2 0x436 JUMPI PUSH2 0x429 DUP2 DUP4 PUSH2 0xE00 JUMP JUMPDEST PUSH2 0xA20 JUMP JUMPDEST PUSH2 0x9A2 JUMP JUMPDEST PUSH1 0x40 MLOAD PUSH3 0x461BCD PUSH1 0xE5 SHL DUP2 MSTORE PUSH1 0x20 PUSH1 0x4 DUP3 ADD MSTORE PUSH1 0x18 PUSH1 0x24 DUP3 ADD MSTORE PUSH32 0x5570677261646520796F7572206C6576656C2066697273740000000000000000 PUSH1 0x44 DUP3 ADD MSTORE PUSH1 0x64 SWAP1 REVERT JUMPDEST CALLVALUE PUSH2 0x14C JUMPI PUSH1 0x20 CALLDATASIZE PUSH1 0x3 NOT ADD SLT PUSH2 0x14C JUMPI PUSH1 0x4 CALLDATALOAD PUSH1 0x33 SLOAD DUP2 LT ISZERO PUSH2 0x14C JUMPI PUSH1 0x33 SLOAD DUP2 LT ISZERO PUSH2 0x21B JUMPI PUSH1 0x33 PUSH0 MSTORE PUSH32 0x82A75BDEEAE8604D839476AE9EFD8B0E15AA447E21BFD7F41283BB54E22C9A82 ADD SLOAD PUSH1 0x40 MLOAD SWAP1 DUP2 MSTORE PUSH1 0x20 SWAP1 RETURN JUMPDEST CALLVALUE PUSH2 0x14C JUMPI PUSH0 CALLDATASIZE PUSH1 0x3 NOT ADD SLT PUSH2 0x14C JUMPI PUSH1 0x20 PUSH1 0x40 MLOAD PUSH1 0xF DUP2 MSTORE RETURN JUMPDEST CALLVALUE PUSH2 0x14C JUMPI PUSH0 CALLDATASIZE PUSH1 0x3 NOT ADD SLT PUSH2 0x14C JUMPI PUSH1 0x20 PUSH1 0x40 MLOAD PUSH8 0xDE0B6B3A7640000 DUP2 MSTORE RETURN JUMPDEST CALLVALUE PUSH2 0x14C JUMPI PUSH0 CALLDATASIZE PUSH1 0x3 NOT ADD SLT PUSH2 0x14C JUMPI PUSH1 0x20 PUSH1 0x40 MLOAD PUSH3 0x15180 DUP2 MSTORE RETURN JUMPDEST CALLVALUE PUSH2 0x14C JUMPI PUSH0 CALLDATASIZE PUSH1 0x3 NOT ADD SLT PUSH2 0x14C JUMPI PUSH0 SLOAD PUSH1 0x40 MLOAD PUSH1 0x1 PUSH1 0x1 PUSH1 0xA0 SHL SUB SWAP1 SWAP2 AND DUP2 MSTORE PUSH1 0x20 SWAP1 RETURN JUMPDEST CALLVALUE PUSH2 0x14C JUMPI PUSH1 0x20 CALLDATASIZE PUSH1 0x3 NOT ADD SLT PUSH2 0x14C JUMPI PUSH1 0x4 CALLDATALOAD PUSH1 0x8 SLOAD DUP2 LT ISZERO PUSH2 0x14C JUMPI PUSH2 0x4C2 PUSH1 0x20 SWAP2 PUSH2 0xCB0 JUMP JUMPDEST CALLVALUE PUSH2 0x14C JUMPI PUSH1 0x20 CALLDATASIZE PUSH1 0x3 NOT ADD SLT PUSH2 0x14C JUMPI PUSH1 0x4 CALLDATALOAD PUSH1 0x7 DUP2 LT ISZERO PUSH2 0x14C JUMPI PUSH1 0x20 SWAP1 PUSH1 0x9 ADD SLOAD PUSH1 0x40 MLOAD SWAP1 DUP2 MSTORE RETURN JUMPDEST CALLVALUE PUSH2 0x14C JUMPI PUSH0 CALLDATASIZE PUSH1 0x3 NOT ADD SLT PUSH2 0x14C JUMPI DUP1 PUSH2 0x2710 PUSH1 0x20 SWAP3 MSTORE RETURN JUMPDEST PUSH1 0x8 SLOAD DUP2 LT ISZERO PUSH2 0x21B JUMPI PUSH1 0x8 PUSH0 MSTORE PUSH1 0x20 PUSH0 KECCAK256 ADD SWAP1 PUSH0 SWAP1 JUMP JUMPDEST PUSH1 0x7 SLOAD DUP2 LT ISZERO PUSH2 0x21B JUMPI PUSH1 0x7 PUSH0 MSTORE PUSH1 0x20 PUSH0 KECCAK256 ADD SWAP1 PUSH0 SWAP1 JUMP JUMPDEST DUP1 SLOAD DUP3 LT ISZERO PUSH2 0x21B JUMPI PUSH0 MSTORE PUSH1 0x20 PUSH0 KECCAK256 ADD SWAP1 PUSH0 SWAP1 JUMP JUMPDEST ISZERO PUSH2 0xCFC JUMPI JUMP JUMPDEST PUSH1 0x40 MLOAD PUSH3 0x461BCD PUSH1 0xE5 SHL DUP2 MSTORE PUSH1 0x20 PUSH1 0x4 DUP3 ADD MSTORE PUSH1 0x10 PUSH1 0x24 DUP3 ADD MSTORE PUSH16 0x139BDD081E5BDD5C881858D8DBDD5B9D PUSH1 0x82 SHL PUSH1 0x44 DUP3 ADD MSTORE PUSH1 0x64 SWAP1 REVERT JUMPDEST ISZERO PUSH2 0xD3B JUMPI JUMP JUMPDEST PUSH1 0x40 MLOAD PUSH3 0x461BCD PUSH1 0xE5 SHL DUP2 MSTORE PUSH1 0x20 PUSH1 0x4 DUP3 ADD MSTORE PUSH1 0xC PUSH1 0x24 DUP3 ADD MSTORE PUSH12 0x105D081B585E081B195D995B PUSH1 0xA2 SHL PUSH1 0x44 DUP3 ADD MSTORE PUSH1 0x64 SWAP1 REVERT JUMPDEST ISZERO PUSH2 0xD76 JUMPI JUMP JUMPDEST PUSH1 0x40 MLOAD PUSH3 0x461BCD PUSH1 0xE5 SHL DUP2 MSTORE PUSH1 0x20 PUSH1 0x4 DUP3 ADD MSTORE PUSH1 0x16 PUSH1 0x24 DUP3 ADD MSTORE PUSH22 0x141BDBDB08185B1C9958591E481C1D5C98DA185CD959 PUSH1 0x52 SHL PUSH1 0x44 DUP3 ADD MSTORE PUSH1 0x64 SWAP1 REVERT JUMPDEST PUSH1 0x80 DUP2 ADD SWAP1 DUP2 LT PUSH8 0xFFFFFFFFFFFFFFFF DUP3 GT OR PUSH2 0xDD0 JUMPI PUSH1 0x40 MSTORE JUMP JUMPDEST PUSH4 0x4E487B71 PUSH1 0xE0 SHL PUSH0 MSTORE PUSH1 0x41 PUSH1 0x4 MSTORE PUSH1 0x24 PUSH0 REVERT JUMPDEST PUSH1 0xA0 DUP2 ADD SWAP1 DUP2 LT PUSH8 0xFFFFFFFFFFFFFFFF DUP3 GT OR PUSH2 0xDD0 JUMPI PUSH1 0x40 MSTORE JUMP JUMPDEST SWAP1 PUSH1 0x1F DUP1 NOT SWAP2 ADD AND DUP2 ADD SWAP1 DUP2 LT PUSH8 0xFFFFFFFFFFFFFFFF DUP3 GT OR PUSH2 0xDD0 JUMPI PUSH1 0x40 MSTORE JUMP JUMPDEST SWAP1 DUP2 PUSH1 0x20 SWAP2 SUB SLT PUSH2 0x14C JUMPI MLOAD DUP1 ISZERO ISZERO DUP2 SUB PUSH2 0x14C JUMPI SWAP1 JUMP JUMPDEST SWAP2 SWAP1 DUP3 ADD DUP1 SWAP3 GT PUSH2 0x3FC JUMPI JUMP JUMPDEST DUP1 SLOAD PUSH1 0x1 PUSH1 0x40 SHL DUP2 LT ISZERO PUSH2 0xDD0 JUMPI PUSH1 0x1 DUP2 ADD DUP1 DUP4 SSTORE DUP2 LT ISZERO PUSH2 0x21B JUMPI PUSH1 0x3 PUSH1 0x60 SWAP2 PUSH1 0xFF SWAP4 PUSH0 MSTORE PUSH1 0x20 PUSH0 KECCAK256 SWAP1 PUSH1 0x2 SHL ADD DUP5 MLOAD DUP2 SSTORE PUSH1 0x20 DUP6 ADD MLOAD PUSH1 0x1 DUP3 ADD SSTORE PUSH1 0x40 DUP6 ADD MLOAD PUSH1 0x2 DUP3 ADD SSTORE ADD SWAP3 ADD MLOAD AND PUSH1 0xFF NOT DUP3 SLOAD AND OR SWAP1 SSTORE JUMP JUMPDEST PUSH1 0x60 SWAP1 PUSH0 MSTORE PUSH1 0x2B PUSH1 0x20 MSTORE PUSH1 0x40 PUSH0 KECCAK256 PUSH1 0xB DUP2 ADD SLOAD SWAP2 PUSH1 0x7 SLOAD DUP4 LT ISZERO PUSH2 0xFB0 JUMPI POP PUSH1 0x7 DUP3 LT ISZERO PUSH2 0x21B JUMPI PUSH1 0x6 DUP3 PUSH1 0x9 ADD SLOAD SWAP2 ADD SLOAD LT PUSH2 0xF63 JUMPI ISZERO ISZERO DUP1 PUSH2 0xF5C JUMPI JUMPDEST PUSH2 0xF1F JUMPI PUSH1 0x1 SWAP1 PUSH1 0x40 MLOAD PUSH2 0xEF2 PUSH1 0x40 DUP3 PUSH2 0xE00 JUMP JUMPDEST PUSH1 0x19 DUP2 MSTORE PUSH32 0x456C696769626C6520746F20627579206E65787420706F6F6C00000000000000 PUSH1 0x20 DUP3 ADD MSTORE SWAP1 JUMP JUMPDEST PUSH0 SWAP1 PUSH1 0x40 MLOAD PUSH2 0xF2F PUSH1 0x40 DUP3 PUSH2 0xE00 JUMP JUMPDEST PUSH1 0x17 DUP2 MSTORE PUSH32 0x4275792070726576696F757320706F6F6C206669727374000000000000000000 PUSH1 0x20 DUP3 ADD MSTORE SWAP1 JUMP JUMPDEST POP PUSH0 PUSH2 0xEDD JUMP JUMPDEST POP PUSH0 SWAP1 PUSH1 0x40 MLOAD PUSH2 0xF74 PUSH1 0x60 DUP3 PUSH2 0xE00 JUMP JUMPDEST PUSH1 0x26 DUP2 MSTORE PUSH32 0x596F75206E65656420746F207265616368206120686967686572206C6576656C PUSH1 0x20 DUP3 ADD MSTORE PUSH6 0x8199A5C9CDD PUSH1 0xD2 SHL PUSH1 0x40 DUP3 ADD MSTORE SWAP1 JUMP JUMPDEST SWAP3 SWAP2 POP POP PUSH0 SWAP2 PUSH2 0xFC3 PUSH1 0x40 MLOAD SWAP2 DUP3 PUSH2 0xE00 JUMP JUMPDEST PUSH1 0x23 DUP2 MSTORE PUSH32 0x596F752061726520616C72656164792061742074686520686967686573742070 PUSH1 0x20 DUP3 ADD MSTORE PUSH3 0x1BDBDB PUSH1 0xEA SHL PUSH1 0x40 DUP3 ADD MSTORE SWAP1 JUMP JUMPDEST ISZERO PUSH2 0x1003 JUMPI JUMP JUMPDEST PUSH1 0x40 MLOAD PUSH3 0x461BCD PUSH1 0xE5 SHL DUP2 MSTORE PUSH1 0x20 PUSH1 0x4 DUP3 ADD MSTORE PUSH1 0xB PUSH1 0x24 DUP3 ADD MSTORE PUSH11 0x105D081B585E081C1BDBDB PUSH1 0xAA SHL PUSH1 0x44 DUP3 ADD MSTORE PUSH1 0x64 SWAP1 REVERT JUMPDEST SWAP2 SWAP1 DUP3 SUB SWAP2 DUP3 GT PUSH2 0x3FC JUMPI JUMP JUMPDEST ISZERO PUSH2 0x104A JUMPI JUMP JUMPDEST PUSH1 0x40 MLOAD PUSH3 0x461BCD PUSH1 0xE5 SHL DUP2 MSTORE PUSH1 0x20 PUSH1 0x4 DUP3 ADD MSTORE PUSH1 0x7 PUSH1 0x24 DUP3 ADD MSTORE PUSH7 0x125B9D985B1A59 PUSH1 0xCA SHL PUSH1 0x44 DUP3 ADD MSTORE PUSH1 0x64 SWAP1 REVERT JUMPDEST ISZERO PUSH2 0x1080 JUMPI JUMP JUMPDEST PUSH1 0x40 MLOAD PUSH3 0x461BCD PUSH1 0xE5 SHL DUP2 MSTORE PUSH1 0x20 PUSH1 0x4 DUP3 ADD MSTORE PUSH1 0x10 PUSH1 0x24 DUP3 ADD MSTORE PUSH16 0x125B98DBDC9C9958DD08185B5BDD5B9D PUSH1 0x82 SHL PUSH1 0x44 DUP3 ADD MSTORE PUSH1 0x64 SWAP1 REVERT JUMPDEST DUP1 SLOAD PUSH1 0x1 PUSH1 0x40 SHL DUP2 LT ISZERO PUSH2 0xDD0 JUMPI PUSH2 0x10D5 SWAP2 PUSH1 0x1 DUP3 ADD DUP2 SSTORE PUSH2 0xCE0 JUMP JUMPDEST DUP2 SWAP3 SWAP2 SLOAD SWAP1 PUSH1 0x3 SHL SWAP2 DUP3 SHL SWAP2 PUSH0 NOT SWAP1 SHL NOT AND OR SWAP1 SSTORE JUMP JUMPDEST SWAP3 SWAP2 PUSH2 0x10FB PUSH1 0x7 SLOAD DUP6 LT PUSH2 0x1043 JUMP JUMPDEST PUSH2 0x1115 PUSH2 0x1107 DUP6 PUSH2 0xCC8 JUMP JUMPDEST SWAP1 SLOAD SWAP1 PUSH1 0x3 SHL SHR CALLVALUE EQ PUSH2 0x1079 JUMP JUMPDEST DUP4 PUSH0 MSTORE PUSH1 0x24 PUSH1 0x20 MSTORE PUSH1 0x40 PUSH0 KECCAK256 SLOAD PUSH2 0x112E DUP2 PUSH1 0x4 SLOAD PUSH2 0xE3A JUMP JUMPDEST SWAP1 DUP6 PUSH0 MSTORE PUSH1 0x24 PUSH1 0x20 MSTORE PUSH2 0x1144 DUP3 PUSH1 0x40 PUSH0 KECCAK256 PUSH2 0x10B8 JUMP JUMPDEST PUSH0 NOT DUP2 ADD SWAP1 DUP2 GT PUSH2 0x3FC JUMPI PUSH2 0x116A PUSH1 0x3 PUSH2 0x1212 SWAP3 DUP9 PUSH0 MSTORE PUSH1 0x24 PUSH1 0x20 MSTORE DIV PUSH1 0x40 PUSH0 KECCAK256 PUSH2 0xCE0 JUMP JUMPDEST SWAP1 SLOAD SWAP1 PUSH1 0x3 SHL SHR SWAP2 PUSH2 0x11D8 PUSH1 0x40 MLOAD PUSH2 0x1181 DUP2 PUSH2 0xDE4 JUMP JUMPDEST DUP3 DUP2 MSTORE PUSH1 0x20 DUP1 DUP3 ADD DUP9 DUP2 MSTORE PUSH1 0x40 DUP1 DUP5 ADD DUP13 DUP2 MSTORE PUSH1 0x60 DUP6 ADD DUP10 DUP2 MSTORE PUSH0 PUSH1 0x80 DUP8 ADD DUP2 DUP2 MSTORE DUP16 DUP3 MSTORE PUSH1 0x21 DUP8 MSTORE DUP5 DUP3 KECCAK256 DUP11 DUP4 MSTORE SWAP1 SWAP7 MSTORE SWAP3 SWAP1 SWAP3 KECCAK256 SWAP5 MLOAD DUP6 SSTORE SWAP2 MLOAD PUSH1 0x1 DUP6 ADD SSTORE SWAP1 MLOAD PUSH1 0x2 DUP5 ADD SSTORE MLOAD PUSH1 0x3 DUP4 ADD SSTORE MLOAD PUSH1 0x4 SWAP1 SWAP2 ADD SSTORE JUMP JUMPDEST DUP7 PUSH0 MSTORE PUSH1 0x23 PUSH1 0x20 MSTORE PUSH1 0x40 PUSH0 KECCAK256 DUP6 PUSH0 MSTORE PUSH1 0x20 MSTORE PUSH2 0x11F7 DUP2 PUSH1 0x40 PUSH0 KECCAK256 PUSH2 0x10B8 JUMP JUMPDEST DUP7 PUSH0 MSTORE PUSH1 0x22 PUSH1 0x20 MSTORE PUSH1 0x40 PUSH0 KECCAK256 DUP4 PUSH0 MSTORE PUSH1 0x20 MSTORE PUSH1 0x40 PUSH0 KECCAK256 PUSH2 0x10B8 JUMP JUMPDEST PUSH1 0x3 DUP3 DIV SWAP5 PUSH0 SWAP4 PUSH0 SWAP3 JUMPDEST PUSH1 0x3 DUP5 LT PUSH2 0x1247 JUMPI JUMPDEST POP POP POP POP PUSH2 0x1234 SWAP3 SWAP4 POP PUSH2 0x1036 JUMP JUMPDEST DUP1 PUSH2 0x123C JUMPI POP JUMP JUMPDEST PUSH2 0x1245 SWAP1 PUSH2 0x17A4 JUMP JUMPDEST JUMP JUMPDEST DUP1 ISZERO DUP1 ISZERO PUSH2 0x14B9 JUMPI JUMPDEST PUSH2 0x1487 JUMPI DUP3 PUSH0 MSTORE PUSH1 0x21 PUSH1 0x20 MSTORE PUSH1 0x40 PUSH0 KECCAK256 SWAP1 PUSH0 MSTORE PUSH1 0x20 MSTORE PUSH1 0x40 PUSH0 KECCAK256 SWAP5 DUP8 PUSH1 0x1 DUP8 ADD SLOAD PUSH1 0x4 DUP9 ADD DUP1 SLOAD PUSH1 0x27 DUP2 LT PUSH2 0x129C JUMPI JUMPDEST POP POP POP PUSH2 0x1291 PUSH1 0x3 SWAP2 PUSH1 0x1 SWAP4 PUSH2 0xE3A JUMP JUMPDEST SWAP7 ADD SLOAD SWAP4 ADD SWAP3 PUSH2 0x121C JUMP JUMPDEST SWAP1 SWAP2 SWAP3 POP PUSH1 0x1 DUP2 ADD DUP1 SWAP2 GT PUSH2 0x3FC JUMPI SWAP1 DUP2 SWAP1 SSTORE DUP10 SWAP1 PUSH1 0x18 DUP2 GT PUSH2 0x142C JUMPI POP POP DUP1 PUSH0 MSTORE PUSH1 0x2C PUSH1 0x20 MSTORE PUSH1 0x8 PUSH1 0x40 PUSH0 KECCAK256 PUSH2 0x12D4 DUP12 DUP3 SLOAD PUSH2 0xE3A JUMP JUMPDEST DUP2 SSTORE ADD PUSH2 0x12E2 DUP11 DUP3 SLOAD PUSH2 0xE3A JUMP JUMPDEST SWAP1 SSTORE DUP1 PUSH0 MSTORE PUSH1 0x2D PUSH1 0x20 MSTORE PUSH2 0x1322 PUSH1 0x40 PUSH0 KECCAK256 PUSH1 0x40 MLOAD SWAP1 PUSH2 0x1300 DUP3 PUSH2 0xDE4 JUMP JUMPDEST DUP6 DUP3 MSTORE DUP12 PUSH1 0x20 DUP4 ADD MSTORE PUSH1 0x1 PUSH1 0x40 DUP4 ADD MSTORE TIMESTAMP PUSH1 0x60 DUP4 ADD MSTORE PUSH1 0xA PUSH1 0x80 DUP4 ADD MSTORE PUSH2 0x1749 JUMP JUMPDEST PUSH0 SWAP1 DUP2 MSTORE PUSH1 0x2B PUSH1 0x20 MSTORE PUSH1 0x40 SWAP1 KECCAK256 SLOAD DUP9 ISZERO SWAP2 SWAP1 PUSH1 0x1 PUSH1 0x1 PUSH1 0xA0 SHL SUB AND PUSH1 0x5F DUP11 DUP2 MUL SWAP1 DUP12 DUP3 DIV EQ DUP5 OR ISZERO PUSH2 0x3FC JUMPI PUSH0 DUP1 SLOAD PUSH1 0x40 MLOAD PUSH4 0xA9059CBB PUSH1 0xE0 SHL DUP2 MSTORE PUSH1 0x1 PUSH1 0x1 PUSH1 0xA0 SHL SUB DUP6 DUP2 AND PUSH1 0x4 DUP4 ADD MSTORE PUSH1 0x64 SWAP1 SWAP5 DIV PUSH1 0x24 DUP3 ADD MSTORE SWAP3 PUSH1 0x20 SWAP3 DUP5 SWAP3 PUSH1 0x44 SWAP3 DUP5 SWAP3 SWAP2 AND GAS CALL DUP1 ISZERO PUSH2 0x43D JUMPI PUSH2 0x1410 JUMPI JUMPDEST POP PUSH1 0x5 DUP11 MUL SWAP3 DUP11 DUP5 DIV PUSH1 0x5 EQ OR ISZERO PUSH2 0x3FC JUMPI DUP10 PUSH1 0x3 SWAP3 PUSH2 0x1291 SWAP3 PUSH2 0x13BA PUSH1 0x64 PUSH1 0x1 SWAP8 DIV PUSH2 0x17A4 JUMP JUMPDEST DUP7 PUSH0 MSTORE PUSH1 0x2B PUSH1 0x20 MSTORE DUP6 DUP1 PUSH1 0xA0 SHL SUB PUSH1 0x40 PUSH0 KECCAK256 SLOAD AND SWAP1 PUSH32 0xE17B61D324CE17328F433D0AB62581C0F0AA997312BAE80FBDFCD2AA9B91D6E3 PUSH1 0x60 PUSH1 0x40 MLOAD DUP7 DUP2 MSTORE DUP10 PUSH1 0x20 DUP3 ADD MSTORE PUSH1 0xA PUSH1 0x40 DUP3 ADD MSTORE LOG3 JUMPDEST SWAP4 DUP2 SWAP4 POP PUSH2 0x1280 JUMP JUMPDEST PUSH2 0x1427 SWAP1 PUSH1 0x20 RETURNDATASIZE DUP2 GT PUSH2 0x436 JUMPI PUSH2 0x429 DUP2 DUP4 PUSH2 0xE00 JUMP JUMPDEST PUSH2 0x1392 JUMP JUMPDEST PUSH1 0x1 SWAP4 PUSH1 0x3 SWAP4 PUSH2 0x1291 SWAP4 SWAP3 PUSH1 0x24 LT PUSH2 0x1465 JUMPI DUP8 PUSH0 MSTORE PUSH1 0x20 DUP1 MSTORE PUSH1 0x40 PUSH0 KECCAK256 SWAP1 PUSH0 MSTORE PUSH1 0x20 MSTORE PUSH1 0x40 PUSH0 KECCAK256 PUSH2 0x145E DUP4 DUP3 SLOAD PUSH2 0xE3A JUMP JUMPDEST SWAP1 SSTORE PUSH2 0x1407 JUMP JUMPDEST DUP8 PUSH0 MSTORE PUSH1 0x20 DUP1 MSTORE PUSH1 0x40 PUSH0 KECCAK256 SWAP1 PUSH0 MSTORE PUSH1 0x20 MSTORE DUP5 PUSH1 0x40 PUSH0 KECCAK256 ADD PUSH2 0x145E DUP4 DUP3 SLOAD PUSH2 0xE3A JUMP JUMPDEST POP POP POP POP PUSH2 0x1234 SWAP3 SWAP4 POP PUSH2 0x149B DUP3 DUP3 PUSH2 0x1036 JUMP JUMPDEST DUP1 PUSH2 0x14AA JUMPI JUMPDEST DUP5 SWAP4 DUP2 DUP1 PUSH2 0x1225 JUMP JUMPDEST PUSH2 0x14B3 SWAP1 PUSH2 0x17A4 JUMP JUMPDEST PUSH0 PUSH2 0x14A1 JUMP JUMPDEST POP PUSH1 0x4 SLOAD DUP2 EQ PUSH2 0x1250 JUMP JUMPDEST PUSH2 0x14D1 PUSH1 0x8 SLOAD DUP3 LT PUSH2 0x1043 JUMP JUMPDEST PUSH2 0x14DD PUSH2 0x1107 DUP3 PUSH2 0xCB0 JUMP JUMPDEST PUSH0 DUP2 DUP2 MSTORE PUSH1 0x28 PUSH1 0x20 MSTORE PUSH1 0x40 SWAP1 KECCAK256 DUP1 SLOAD SWAP1 PUSH2 0x14F8 SWAP1 DUP5 SWAP1 PUSH2 0x10B8 JUMP JUMPDEST PUSH0 NOT DUP2 ADD SWAP1 DUP2 GT PUSH2 0x3FC JUMPI PUSH1 0x3 PUSH2 0x151B SWAP2 DUP4 PUSH0 MSTORE PUSH1 0x28 PUSH1 0x20 MSTORE DIV PUSH1 0x40 PUSH0 KECCAK256 PUSH2 0xCE0 JUMP JUMPDEST SWAP1 SLOAD SWAP1 PUSH1 0x3 SHL SHR SWAP1 PUSH1 0x40 MLOAD PUSH2 0x152F DUP2 PUSH2 0xDB4 JUMP JUMPDEST DUP4 DUP2 MSTORE PUSH1 0x3 PUSH1 0x20 DUP3 ADD DUP4 DUP2 MSTORE PUSH1 0x40 DUP4 ADD DUP6 DUP2 MSTORE PUSH1 0x60 DUP5 ADD SWAP2 PUSH0 DUP4 MSTORE DUP6 PUSH0 MSTORE PUSH1 0x26 PUSH1 0x20 MSTORE PUSH1 0x40 PUSH0 KECCAK256 DUP9 PUSH0 MSTORE PUSH1 0x20 MSTORE PUSH1 0x40 PUSH0 KECCAK256 SWAP5 MLOAD DUP6 SSTORE MLOAD PUSH1 0x1 DUP6 ADD SSTORE MLOAD PUSH1 0x2 DUP5 ADD SSTORE MLOAD SWAP2 ADD SSTORE DUP1 PUSH0 MSTORE PUSH1 0x27 PUSH1 0x20 MSTORE PUSH1 0x40 PUSH0 KECCAK256 DUP3 PUSH0 MSTORE PUSH1 0x20 MSTORE PUSH2 0x1593 DUP4 PUSH1 0x40 PUSH0 KECCAK256 PUSH2 0x10B8 JUMP JUMPDEST DUP2 ISZERO DUP1 ISZERO PUSH2 0x173E JUMPI JUMPDEST PUSH2 0x1732 JUMPI PUSH0 MSTORE PUSH1 0x26 PUSH1 0x20 MSTORE PUSH1 0x40 PUSH0 KECCAK256 DUP2 PUSH0 MSTORE PUSH1 0x20 MSTORE PUSH1 0x3 PUSH1 0x40 PUSH0 KECCAK256 ADD PUSH1 0x3 DUP2 SLOAD LT PUSH0 EQ PUSH2 0x1732 JUMPI DUP1 SLOAD SWAP1 PUSH1 0x1 DUP3 ADD DUP1 SWAP3 GT PUSH2 0x3FC JUMPI SSTORE DUP1 PUSH0 MSTORE PUSH1 0x2C PUSH1 0x20 MSTORE PUSH1 0x9 PUSH1 0x40 PUSH0 KECCAK256 PUSH2 0x15EB DUP6 DUP3 SLOAD PUSH2 0xE3A JUMP JUMPDEST DUP2 SSTORE ADD PUSH2 0x15F9 DUP5 DUP3 SLOAD PUSH2 0xE3A JUMP JUMPDEST SWAP1 SSTORE DUP1 PUSH0 MSTORE PUSH1 0x2D PUSH1 0x20 MSTORE PUSH2 0x1639 PUSH1 0x40 PUSH0 KECCAK256 PUSH1 0x40 MLOAD SWAP1 PUSH2 0x1617 DUP3 PUSH2 0xDE4 JUMP JUMPDEST DUP5 DUP3 MSTORE DUP6 PUSH1 0x20 DUP4 ADD MSTORE PUSH1 0x1 PUSH1 0x40 DUP4 ADD MSTORE TIMESTAMP PUSH1 0x60 DUP4 ADD MSTORE PUSH1 0xB PUSH1 0x80 DUP4 ADD MSTORE PUSH2 0x1749 JUMP JUMPDEST PUSH0 SWAP1 DUP2 MSTORE PUSH1 0x2B PUSH1 0x20 MSTORE PUSH1 0x40 SWAP1 KECCAK256 SLOAD PUSH1 0x1 PUSH1 0x1 PUSH1 0xA0 SHL SUB AND SWAP1 DUP3 ISZERO PUSH1 0x5F DUP5 DUP2 MUL SWAP1 DUP6 DUP3 DIV EQ DUP3 OR ISZERO PUSH2 0x3FC JUMPI PUSH0 DUP1 SLOAD PUSH1 0x40 MLOAD PUSH4 0xA9059CBB PUSH1 0xE0 SHL DUP2 MSTORE PUSH1 0x1 PUSH1 0x1 PUSH1 0xA0 SHL SUB DUP8 DUP2 AND PUSH1 0x4 DUP4 ADD MSTORE PUSH1 0x64 SWAP1 SWAP5 DIV PUSH1 0x24 DUP3 ADD MSTORE SWAP3 PUSH1 0x20 SWAP3 DUP5 SWAP3 PUSH1 0x44 SWAP3 DUP5 SWAP3 SWAP2 AND GAS CALL DUP1 ISZERO PUSH2 0x43D JUMPI PUSH2 0x1715 JUMPI JUMPDEST POP PUSH1 0x5 DUP5 MUL SWAP1 DUP5 DUP3 DIV PUSH1 0x5 EQ OR ISZERO PUSH2 0x3FC JUMPI PUSH1 0x64 PUSH2 0x16C6 SWAP2 DIV PUSH2 0x17A4 JUMP JUMPDEST PUSH0 MSTORE PUSH1 0x2B PUSH1 0x20 MSTORE PUSH32 0xE17B61D324CE17328F433D0AB62581C0F0AA997312BAE80FBDFCD2AA9B91D6E3 PUSH1 0x60 PUSH1 0x1 DUP1 PUSH1 0xA0 SHL SUB PUSH1 0x40 PUSH0 KECCAK256 SLOAD AND SWAP4 PUSH1 0x40 MLOAD SWAP1 DUP2 MSTORE PUSH1 0x1 PUSH1 0x20 DUP3 ADD MSTORE PUSH1 0xB PUSH1 0x40 DUP3 ADD MSTORE LOG3 JUMP JUMPDEST PUSH2 0x172D SWAP1 PUSH1 0x20 RETURNDATASIZE PUSH1 0x20 GT PUSH2 0x436 JUMPI PUSH2 0x429 DUP2 DUP4 PUSH2 0xE00 JUMP JUMPDEST PUSH2 0x16A8 JUMP JUMPDEST POP POP POP PUSH2 0x1245 SWAP1 PUSH2 0x17A4 JUMP JUMPDEST POP PUSH1 0x4 SLOAD DUP3 EQ PUSH2 0x159C JUMP JUMPDEST SWAP1 DUP2 SLOAD PUSH1 0x1 PUSH1 0x40 SHL DUP2 LT ISZERO PUSH2 0xDD0 JUMPI PUSH1 0x1 DUP2 ADD DUP1 DUP5 SSTORE DUP2 LT ISZERO PUSH2 0x21B JUMPI PUSH2 0x1245 SWAP3 PUSH0 MSTORE PUSH1 0x5 PUSH1 0x20 PUSH0 KECCAK256 SWAP2 MUL ADD SWAP1 PUSH1 0x80 PUSH1 0x4 SWAP2 DUP1 MLOAD DUP5 SSTORE PUSH1 0x20 DUP2 ADD MLOAD PUSH1 0x1 DUP6 ADD SSTORE PUSH1 0x40 DUP2 ADD MLOAD PUSH1 0x2 DUP6 ADD SSTORE PUSH1 0x60 DUP2 ADD MLOAD PUSH1 0x3 DUP6 ADD SSTORE ADD MLOAD SWAP2 ADD SSTORE JUMP JUMPDEST PUSH1 0x1 SLOAD PUSH1 0x1 PUSH1 0x1 PUSH1 0xA0 SHL SUB AND SWAP1 DUP2 ISZERO PUSH2 0x1871 JUMPI PUSH0 DUP1 SLOAD PUSH1 0x40 MLOAD PUSH4 0xA9059CBB PUSH1 0xE0 SHL DUP2 MSTORE PUSH1 0x1 PUSH1 0x1 PUSH1 0xA0 SHL SUB SWAP5 DUP6 AND PUSH1 0x4 DUP3 ADD MSTORE PUSH1 0x24 DUP2 ADD DUP5 SWAP1 MSTORE SWAP4 PUSH1 0x20 SWAP3 DUP6 SWAP3 PUSH1 0x44 SWAP3 DUP5 SWAP3 SWAP2 AND GAS CALL SWAP2 DUP3 ISZERO PUSH2 0x43D JUMPI PUSH2 0x1245 SWAP3 PUSH2 0x1854 JUMPI JUMPDEST POP PUSH1 0x4 SLOAD PUSH0 MSTORE PUSH1 0x2C PUSH1 0x20 MSTORE PUSH1 0x40 PUSH0 KECCAK256 PUSH2 0x1817 DUP3 DUP3 SLOAD PUSH2 0xE3A JUMP JUMPDEST SWAP1 SSTORE PUSH1 0x4 SLOAD PUSH0 MSTORE PUSH1 0x2D PUSH1 0x20 MSTORE PUSH1 0x40 PUSH0 KECCAK256 PUSH1 0x40 MLOAD SWAP2 PUSH2 0x1834 DUP4 PUSH2 0xDE4 JUMP JUMPDEST PUSH0 DUP4 MSTORE PUSH1 0x20 DUP4 ADD MSTORE PUSH0 PUSH1 0x40 DUP4 ADD MSTORE TIMESTAMP PUSH1 0x60 DUP4 ADD MSTORE PUSH1 0x5 PUSH1 0x80 DUP4 ADD MSTORE PUSH2 0x1749 JUMP JUMPDEST PUSH2 0x186C SWAP1 PUSH1 0x20 RETURNDATASIZE PUSH1 0x20 GT PUSH2 0x436 JUMPI PUSH2 0x429 DUP2 DUP4 PUSH2 0xE00 JUMP JUMPDEST PUSH2 0x17FD JUMP JUMPDEST PUSH1 0x40 MLOAD PUSH3 0x461BCD PUSH1 0xE5 SHL DUP2 MSTORE PUSH1 0x20 PUSH1 0x4 DUP3 ADD MSTORE PUSH1 0x11 PUSH1 0x24 DUP3 ADD MSTORE PUSH17 0x199959481859191C9CC81B9BDD081CD95D PUSH1 0x7A SHL PUSH1 0x44 DUP3 ADD MSTORE PUSH1 0x64 SWAP1 REVERT INVALID 0xBA 0xBB PUSH11 0x363FD9A057996D09882C0B PUSH21 0xB710D121707D19EEFFD91C51C3171A7C91A2646970 PUSH7 0x73582212200336 JUMPI EXTCODEHASH DUP1 SGT PUSH26 0x8AE9666E3D13FF6C2F2E3067B6F2B80AE513BE6200489E8B6E64 PUSH20 0x6F6C634300081E00330000000000000000000000 "
		},
		"gasEstimates": {
			"creation": {
				"codeDepositCost": "1280000",
				"executionCost": "infinite",
				"totalCost": "infinite"
			},
			"external": {
				"ACC_PRECISION()": "263",
				"PERCENTS_DIVIDER()": "148",
				"ROI_CAP_DIVIDER()": "351",
				"ROI_CAP_MULTIPLIER()": "285",
				"RetopPoolByEarning(uint256,uint256)": "infinite",
				"TIME_STEP()": "241",
				"canBuyNextPool(uint256)": "9309",
				"communityAccPerUser()": "2520",
				"creatorWallet()": "2566",
				"defaultRefId()": "2740",
				"glbBoosterPackages(uint256)": "6656",
				"minLevelForGlbBooster(uint256)": "2734",
				"minLevelForPool(uint256)": "2316",
				"minPoolForGlbBooster(uint256)": "2624",
				"packages(uint256)": "6945",
				"poolPackages(uint256)": "6964",
				"registeredUserIds(uint256)": "6681",
				"systemMaintance()": "2742",
				"teamDevelopment()": "2783",
				"totalUsers()": "2652",
				"upgradeBooster(uint256)": "infinite",
				"upgradePool(uint256)": "infinite",
				"upgradePoolByEarning(uint32,uint256)": "infinite",
				"usdt()": "2345"
			},
			"internal": {
				"_distributePoolIncome(uint256,uint256,uint256,uint256)": "infinite",
				"_payPoolIncome(uint256,uint256,uint256,uint256,uint256)": "infinite",
				"_placeInBooster(uint256,uint256,uint256)": "infinite",
				"_placeInPool(uint256,uint256,uint256)": "infinite"
			}
		},
		"methodIdentifiers": {
			"ACC_PRECISION()": "32fcd966",
			"PERCENTS_DIVIDER()": "01c234a8",
			"ROI_CAP_DIVIDER()": "58c7d352",
			"ROI_CAP_MULTIPLIER()": "375b43b4",
			"RetopPoolByEarning(uint256,uint256)": "7848f0a3",
			"TIME_STEP()": "32bc298c",
			"canBuyNextPool(uint256)": "67d52d4d",
			"communityAccPerUser()": "78f6ad6d",
			"creatorWallet()": "7cdc65f2",
			"defaultRefId()": "ec597e6f",
			"glbBoosterPackages(uint256)": "2350268f",
			"minLevelForGlbBooster(uint256)": "d0a2fd79",
			"minLevelForPool(uint256)": "2132d204",
			"minPoolForGlbBooster(uint256)": "956a3228",
			"packages(uint256)": "c216212a",
			"poolPackages(uint256)": "ae4708dc",
			"registeredUserIds(uint256)": "39ab3603",
			"systemMaintance()": "e9e34a16",
			"teamDevelopment()": "f5d74d93",
			"totalUsers()": "bff1f9e1",
			"upgradeBooster(uint256)": "bc1fa7c0",
			"upgradePool(uint256)": "4060160a",
			"upgradePoolByEarning(uint32,uint256)": "8e222e24",
			"usdt()": "2f48ab7d"
		}
	},
	"abi": [
		{
			"inputs": [],
			"stateMutability": "nonpayable",
			"type": "constructor"
		},
		{
			"anonymous": false,
			"inputs": [
				{
					"indexed": false,
					"internalType": "uint256",
					"name": "amount",
					"type": "uint256"
				},
				{
					"indexed": false,
					"internalType": "uint256",
					"name": "usersCount",
					"type": "uint256"
				},
				{
					"indexed": false,
					"internalType": "uint256",
					"name": "perUser",
					"type": "uint256"
				}
			],
			"name": "CommunityBonusDistributed",
			"type": "event"
		},
		{
			"anonymous": false,
			"inputs": [
				{
					"indexed": true,
					"internalType": "address",
					"name": "to",
					"type": "address"
				},
				{
					"indexed": true,
					"internalType": "address",
					"name": "from",
					"type": "address"
				},
				{
					"indexed": false,
					"internalType": "uint256",
					"name": "amount",
					"type": "uint256"
				},
				{
					"indexed": false,
					"internalType": "uint256",
					"name": "packageLevel",
					"type": "uint256"
				},
				{
					"indexed": false,
					"internalType": "uint256",
					"name": "incomeType",
					"type": "uint256"
				}
			],
			"name": "IncomeDistributed",
			"type": "event"
		},
		{
			"anonymous": false,
			"inputs": [
				{
					"indexed": true,
					"internalType": "address",
					"name": "winner",
					"type": "address"
				},
				{
					"indexed": true,
					"internalType": "uint256",
					"name": "fromUserId",
					"type": "uint256"
				},
				{
					"indexed": false,
					"internalType": "uint256",
					"name": "amount",
					"type": "uint256"
				},
				{
					"indexed": false,
					"internalType": "uint256",
					"name": "timestamp",
					"type": "uint256"
				}
			],
			"name": "LotteryReward",
			"type": "event"
		},
		{
			"anonymous": false,
			"inputs": [
				{
					"indexed": true,
					"internalType": "address",
					"name": "user",
					"type": "address"
				},
				{
					"indexed": true,
					"internalType": "address",
					"name": "sponsor",
					"type": "address"
				},
				{
					"indexed": true,
					"internalType": "uint256",
					"name": "userId",
					"type": "uint256"
				},
				{
					"indexed": false,
					"internalType": "uint256",
					"name": "uplineId",
					"type": "uint256"
				}
			],
			"name": "Registration",
			"type": "event"
		},
		{
			"anonymous": false,
			"inputs": [
				{
					"indexed": true,
					"internalType": "address",
					"name": "to",
					"type": "address"
				},
				{
					"indexed": false,
					"internalType": "uint256",
					"name": "amount",
					"type": "uint256"
				},
				{
					"indexed": false,
					"internalType": "string",
					"name": "level",
					"type": "string"
				}
			],
			"name": "RewardSent",
			"type": "event"
		},
		{
			"anonymous": false,
			"inputs": [
				{
					"indexed": true,
					"internalType": "address",
					"name": "user",
					"type": "address"
				},
				{
					"indexed": true,
					"internalType": "uint256",
					"name": "userId",
					"type": "uint256"
				},
				{
					"indexed": false,
					"internalType": "uint256",
					"name": "packageLevel",
					"type": "uint256"
				},
				{
					"indexed": false,
					"internalType": "string",
					"name": "depositType",
					"type": "string"
				}
			],
			"name": "Upgrade",
			"type": "event"
		},
		{
			"anonymous": false,
			"inputs": [
				{
					"indexed": true,
					"internalType": "uint8",
					"name": "matrixId",
					"type": "uint8"
				},
				{
					"indexed": true,
					"internalType": "uint32",
					"name": "userId",
					"type": "uint32"
				},
				{
					"indexed": true,
					"internalType": "address",
					"name": "user",
					"type": "address"
				},
				{
					"indexed": false,
					"internalType": "uint32",
					"name": "parentId",
					"type": "uint32"
				},
				{
					"indexed": false,
					"internalType": "address",
					"name": "parentAddr",
					"type": "address"
				},
				{
					"indexed": false,
					"internalType": "uint8",
					"name": "position",
					"type": "uint8"
				}
			],
			"name": "UserJoined",
			"type": "event"
		},
		{
			"inputs": [],
			"name": "ACC_PRECISION",
			"outputs": [
				{
					"internalType": "uint256",
					"name": "",
					"type": "uint256"
				}
			],
			"stateMutability": "view",
			"type": "function"
		},
		{
			"inputs": [],
			"name": "PERCENTS_DIVIDER",
			"outputs": [
				{
					"internalType": "uint256",
					"name": "",
					"type": "uint256"
				}
			],
			"stateMutability": "view",
			"type": "function"
		},
		{
			"inputs": [],
			"name": "ROI_CAP_DIVIDER",
			"outputs": [
				{
					"internalType": "uint256",
					"name": "",
					"type": "uint256"
				}
			],
			"stateMutability": "view",
			"type": "function"
		},
		{
			"inputs": [],
			"name": "ROI_CAP_MULTIPLIER",
			"outputs": [
				{
					"internalType": "uint256",
					"name": "",
					"type": "uint256"
				}
			],
			"stateMutability": "view",
			"type": "function"
		},
		{
			"inputs": [
				{
					"internalType": "uint256",
					"name": "_userId",
					"type": "uint256"
				},
				{
					"internalType": "uint256",
					"name": "_poolId",
					"type": "uint256"
				}
			],
			"name": "RetopPoolByEarning",
			"outputs": [],
			"stateMutability": "nonpayable",
			"type": "function"
		},
		{
			"inputs": [],
			"name": "TIME_STEP",
			"outputs": [
				{
					"internalType": "uint256",
					"name": "",
					"type": "uint256"
				}
			],
			"stateMutability": "view",
			"type": "function"
		},
		{
			"inputs": [
				{
					"internalType": "uint256",
					"name": "userId",
					"type": "uint256"
				}
			],
			"name": "canBuyNextPool",
			"outputs": [
				{
					"internalType": "bool",
					"name": "eligible",
					"type": "bool"
				},
				{
					"internalType": "string",
					"name": "reason",
					"type": "string"
				}
			],
			"stateMutability": "view",
			"type": "function"
		},
		{
			"inputs": [],
			"name": "communityAccPerUser",
			"outputs": [
				{
					"internalType": "uint256",
					"name": "",
					"type": "uint256"
				}
			],
			"stateMutability": "view",
			"type": "function"
		},
		{
			"inputs": [],
			"name": "creatorWallet",
			"outputs": [
				{
					"internalType": "address",
					"name": "",
					"type": "address"
				}
			],
			"stateMutability": "view",
			"type": "function"
		},
		{
			"inputs": [],
			"name": "defaultRefId",
			"outputs": [
				{
					"internalType": "uint256",
					"name": "",
					"type": "uint256"
				}
			],
			"stateMutability": "view",
			"type": "function"
		},
		{
			"inputs": [
				{
					"internalType": "uint256",
					"name": "",
					"type": "uint256"
				}
			],
			"name": "glbBoosterPackages",
			"outputs": [
				{
					"internalType": "uint256",
					"name": "",
					"type": "uint256"
				}
			],
			"stateMutability": "view",
			"type": "function"
		},
		{
			"inputs": [
				{
					"internalType": "uint256",
					"name": "",
					"type": "uint256"
				}
			],
			"name": "minLevelForGlbBooster",
			"outputs": [
				{
					"internalType": "uint256",
					"name": "",
					"type": "uint256"
				}
			],
			"stateMutability": "view",
			"type": "function"
		},
		{
			"inputs": [
				{
					"internalType": "uint256",
					"name": "",
					"type": "uint256"
				}
			],
			"name": "minLevelForPool",
			"outputs": [
				{
					"internalType": "uint256",
					"name": "",
					"type": "uint256"
				}
			],
			"stateMutability": "view",
			"type": "function"
		},
		{
			"inputs": [
				{
					"internalType": "uint256",
					"name": "",
					"type": "uint256"
				}
			],
			"name": "minPoolForGlbBooster",
			"outputs": [
				{
					"internalType": "uint256",
					"name": "",
					"type": "uint256"
				}
			],
			"stateMutability": "view",
			"type": "function"
		},
		{
			"inputs": [
				{
					"internalType": "uint256",
					"name": "",
					"type": "uint256"
				}
			],
			"name": "packages",
			"outputs": [
				{
					"internalType": "uint256",
					"name": "",
					"type": "uint256"
				}
			],
			"stateMutability": "view",
			"type": "function"
		},
		{
			"inputs": [
				{
					"internalType": "uint256",
					"name": "",
					"type": "uint256"
				}
			],
			"name": "poolPackages",
			"outputs": [
				{
					"internalType": "uint256",
					"name": "",
					"type": "uint256"
				}
			],
			"stateMutability": "view",
			"type": "function"
		},
		{
			"inputs": [
				{
					"internalType": "uint256",
					"name": "",
					"type": "uint256"
				}
			],
			"name": "registeredUserIds",
			"outputs": [
				{
					"internalType": "uint256",
					"name": "",
					"type": "uint256"
				}
			],
			"stateMutability": "view",
			"type": "function"
		},
		{
			"inputs": [],
			"name": "systemMaintance",
			"outputs": [
				{
					"internalType": "address",
					"name": "",
					"type": "address"
				}
			],
			"stateMutability": "view",
			"type": "function"
		},
		{
			"inputs": [],
			"name": "teamDevelopment",
			"outputs": [
				{
					"internalType": "address",
					"name": "",
					"type": "address"
				}
			],
			"stateMutability": "view",
			"type": "function"
		},
		{
			"inputs": [],
			"name": "totalUsers",
			"outputs": [
				{
					"internalType": "uint256",
					"name": "",
					"type": "uint256"
				}
			],
			"stateMutability": "view",
			"type": "function"
		},
		{
			"inputs": [
				{
					"internalType": "uint256",
					"name": "_userId",
					"type": "uint256"
				}
			],
			"name": "upgradeBooster",
			"outputs": [],
			"stateMutability": "nonpayable",
			"type": "function"
		},
		{
			"inputs": [
				{
					"internalType": "uint256",
					"name": "_userId",
					"type": "uint256"
				}
			],
			"name": "upgradePool",
			"outputs": [],
			"stateMutability": "nonpayable",
			"type": "function"
		},
		{
			"inputs": [
				{
					"internalType": "uint32",
					"name": "_userId",
					"type": "uint32"
				},
				{
					"internalType": "uint256",
					"name": "_poolId",
					"type": "uint256"
				}
			],
			"name": "upgradePoolByEarning",
			"outputs": [],
			"stateMutability": "nonpayable",
			"type": "function"
		},
		{
			"inputs": [],
			"name": "usdt",
			"outputs": [
				{
					"internalType": "contract IERC20",
					"name": "",
					"type": "address"
				}
			],
			"stateMutability": "view",
			"type": "function"
		}
	]
}