{
	"data": {
		"bytecode": {
			"linkReferences": {},
			"object": "60806040523461052b5760015f556040516101e081016001600160401b038111828210176105175760405267d02ab486cedc0000815268015af1d78b58c4000060208201526802b5e3af16b1880000604082015268056bc75e2d631000006060820152680ad78ebc5ac620000060808201526815af1d78b58c40000060a0820152682b5e3af16b1880000060c08201526856bc75e2d63100000060e082015268ad78ebc5ac6200000061010082015269015af1d78b58c40000006101208201526902b5e3af16b18800000061014082015269056bc75e2d6310000000610160820152690ad78ebc5ac6200000006101808201526915af1d78b58c400000006101a0820152692b5e3af16b18800000006101c0820152600d54600f600d5580600f106104c1575b50600d5f5260205f20905f5b600f81106104a45761014161052f565b680410d586a20a4c00008152681043561a8829300000602082015268410d586a20a4c0000060408201526901043561a882930000006060820152690410d586a20a4c0000006080820152691043561a88293000000060a082015269410d586a20a4c000000060c082015260165460076016558060071061044e575b5060165f5260205f20905f5b60078110610431576101d861054e565b68056bc75e2d631000008152680ad78ebc5ac620000060208201526815af1d78b58c4000006040820152682b5e3af16b1880000060608201526856bc75e2d631000000608082015268ad78ebc5ac6200000060a082015269015af1d78b58c400000060c08201526902b5e3af16b18800000060e08201526017546008601755806008106103db575b5060175f5260205f20905f5b600881106103be5761027c61052f565b60038152600560208201526007604082015260096060820152600b6080820152600d60a0820152600f60c08201525f5b600781106103a6576102bc61054e565b6004815260056020820152600660408201526007606082015260086080820152600960a0820152600a60c0820152600b60e08201525f5b6008811061038e5761030361054e565b5f815260016020820152600160408201526001606082015260016080820152600160a0820152600160c0820152600160e08201525f5b60088110610376575f6039555f603a555f603b5560016040555f6041555f60425560016047555f6048555f60495560405161344690816105858239f35b600190602060ff845116930192816027015501610339565b600190602060ff84511693019281601f0155016102f3565b600190602060ff8451169301928160180155016102ac565b81516001600160501b03168184015560209091019060010161026c565b60175f5261042b907fc624b66cc0138b8fabc209247f72d758e1cf3343756d543badbf24212bed8c15017fc624b66cc0138b8fabc209247f72d758e1cf3343756d543badbf24212bed8c1d61056e565b81610260565b81516001600160501b0316818401556020909101906001016101c8565b60165f5261049e907fd833147d7dc355ba459fc788f669e58cfaf9dc25ddcd0702e87d69c7b5124289017fd833147d7dc355ba459fc788f669e58cfaf9dc25ddcd0702e87d69c7b512429061056e565b816101bc565b81516001600160501b031681840155602090910190600101610131565b600d5f52610511907fd7b6990105719101dabeb77144f2a3385c8033acd3af97e9423a695e81ad1eb5017fd7b6990105719101dabeb77144f2a3385c8033acd3af97e9423a695e81ad1ec461056e565b5f610125565b634e487b7160e01b5f52604160045260245ffd5b5f80fd5b6040519060e082016001600160401b0381118382101761051757604052565b6040519061010082016001600160401b0381118382101761051757604052565b818110610579575050565b5f815560010161056e56fe6101a0806040526004361015610013575f80fd5b5f3560e01c90816254815d14611c255750806301c234a814611c09578063056b4d1f14611ba95780630676d0d614611b7f5780630a5c5d6914611b505780630ef81b7414611b175780630f2b7cc914611ae85780632132d20414611abc5780632350268f14611a9357806323fd338e146112ce5780632a89153414611a765780632ae0ee0d146117c55780632d66014f14611a1c5780632f48ab7d146119f45780633080b5bc146119d757806331bb6a30146119bc57806332bc298c1461199f57806332fcd9661461197d578063365b98b2146117ca578063375b43b4146117c557806339ab36031461176b5780633a5084b31461174e5780634036436c146116ef5780634060160a1461142757806345cb537c146113fd57806346b9dece146113585780634b8cbf9b1461133b5780634d12ae0f1461130c5780634d4cc5ca146112d357806358c7d352146112ce5780635aabf7f1146112955780635b58ce6c1461122d5780635b62d1d5146112105780635ec64a44146111e157806367d52d4d1461118a5780636a4247821461112a578063705fee2d1461110c57806370c8d7701461109757806376f5f7001461107a5780637848f0a314610ebc57806378f6ad6d14610e9f5780637cdc65f214610e7757806388afbe3e14610e4d57806389043ece14610e1e5780638d58644c14610de55780638e222e2414610b9c5780638f030ece14610b63578063907c84a714610af8578063956a322814610acc5780639b40ab9714610aaf5780639c38348614610a7b578063a59d17d114610a5e578063a5e52b9914610a41578063ae4708dc14610a18578063bc1fa7c0146107d5578063bd1aae40146107a1578063bf72467214610769578063bff1f9e11461074c578063c216212a14610723578063c4eb42a5146106c3578063c7bb62e814610694578063c8df290814610670578063c9ed070814610653578063ca8e912114610636578063cb0e0d7d146105fa578063ce79c2c31461058f578063d0a2fd7914610563578063d2f0490d14610548578063db27cc71146104e5578063e898fc38146104c8578063e9e34a16146104a0578063ebe0ff151461047d578063ec597e6f14610460578063f5748c4f146103f2578063f5d74d93146103ca578063f7a248061461038c5763fddc806f1461036b575f80fd5b34610388575f366003190112610388576020603a54604051908152f35b5f80fd5b346103885761039a36611c94565b905f52604660205260405f208054821015610388576020916103bb91611d32565b90549060031b1c604051908152f35b34610388575f366003190112610388576004546040516001600160a01b039091168152602090f35b3461038857602036600319011261038857600435604b5481101561038857604b5481101561044c57604b5f527f17b0af156a929edf60c351f3df2d53ed643fdd750aef9eda90dc7c8759a104a80154604051908152602090f35b634e487b7160e01b5f52603260045260245ffd5b34610388575f366003190112610388576020600554604051908152f35b34610388575f366003190112610388576020604051683635c9adc5dea000008152f35b34610388575f366003190112610388576003546040516001600160a01b039091168152602090f35b34610388575f366003190112610388576020604154604051908152f35b34610388576020366003190112610388576004355f52604c60205260405f20805461054460018301549260ff60046002830154920154169060405194859485926060929594919560808501968552602085015260408401521515910152565b0390f35b34610388575f36600319011261038857602060405160058152f35b3461038857602036600319011261038857600435600881101561038857602090601f0154604051908152f35b346103885761059d36611c94565b905f52603060205260405f20905f5260205260405f2080546105446001830154926002810154906004600382015491015491604051958695869192608093969594919660a084019784526020840152604083015260608201520152565b34610388576020366003190112610388576004356001600160a01b03811690819003610388575f52600f602052602060405f2054604051908152f35b34610388575f366003190112610388576020603954604051908152f35b34610388575f366003190112610388576020604054604051908152f35b34610388575f36600319011261038857602060405169021e19e0c9bab24000008152f35b34610388576106a236611c94565b905f52603760205260405f208054821015610388576020916103bb91611d32565b34610388576020366003190112610388576004355f52603c60205260405f2080546105446001830154926002810154906003810154600482015460058301549060068401549260ff600860078701549601541695604051998a998a611caa565b3461038857602036600319011261038857600435600d54811015610388576103bb602091611d1a565b34610388575f366003190112610388576020600654604051908152f35b346103885761077736611c94565b905f52602f60205260405f20905f526020526040805f206001815491015482519182526020820152f35b34610388576107af36611c94565b905f52603460205260405f20905f52602052602060ff60405f2054166040519015158152f35b3461038857602036600319011261038857600435805f52601060205260405f2061080960018060a01b038254163314611d97565b600f8101908154916008831061081e81611dd6565b1561044c5782601f0154836027015490600684015410159081610a09575b50156109cc57826109c7575b835f52603860205260405f20835f5260205261086b60ff60405f20541615611e11565b61087483611cea565b90546001546040516323b872dd60e01b815233600482015230602482015260039390931b9190911c60448301819052939190602090829060649082905f906001600160a01b03165af180156109bc5761098f575b5081546001810180911161097b5760109255845f52603860205260405f20845f5260205260405f20600160ff1982541617905501610907828254611ec8565b90556109148184846126d9565b61091c612c99565b610924612e14565b61092c612f43565b6001820180921161097b5760405191825260208201526080604082015260076080820152662137b7b9ba32b960c91b60a08201524260608201525f5160206133f15f395f51905f5260c03392a3005b634e487b7160e01b5f52601160045260245ffd5b6109b09060203d6020116109b5575b6109a88183611e8e565b810190611eb0565b6108c8565b503d61099e565b6040513d5f823e3d90fd5b610848565b60405162461bcd60e51b8152602060048201526015602482015274155c19dc9859194814db1bdd08185b9908141bdbdb605a1b6044820152606490fd5b9050600c83015410158561083c565b3461038857602036600319011261038857600435601654811015610388576103bb602091611d02565b34610388575f3660031901126103885760206040516283d6008152f35b34610388575f366003190112610388576020604254604051908152f35b3461038857610a8936611c94565b905f52603860205260405f20905f52602052602060ff60405f2054166040519015158152f35b34610388575f366003190112610388576020604854604051908152f35b346103885760203660031901126103885760043560088110156103885760209060270154604051908152f35b3461038857610b0636611c94565b905f52603560205260405f20905f5260205260405f2080546105446001830154926002810154906004600382015491015491604051958695869192608093969594919660a084019784526020840152604083015260608201520152565b3461038857610b7136611d47565b915f52603160205260405f20905f5260205260405f208054821015610388576020916103bb91611d32565b346103885760403660031901126103885760043563ffffffff811680910361038857602435815f52601060205260405f20610be160018060a01b038254163314611d97565b600c810190610bf36007835410612033565b600183019283811161097b57601654841015610daf57610c1284611d02565b90549060031b1c92815f52602f60205260405f20865f5260205260405f208054858110610d6a57875f52603460205260405f20875f5260205260ff60405f205416610d255785610c619161206d565b90558054926001840180941161097b57600293600d925501610c84848254611ec8565b9055845f52603460205260405f20845f5260205260405f20600160ff19825416179055610cb2838686612141565b610cba612c99565b610cc2612e14565b610cca612f43565b0180921161097b576040519182526020820152608060408201526016608082015275506f6f6c205570677261646520284561726e696e672960501b60a08201524260608201525f5160206133f15f395f51905f5260c03392a3005b60405162461bcd60e51b815260206004820152601b60248201527f416c726561647920707572636861736564206e65787420706f6f6c00000000006044820152606490fd5b60405162461bcd60e51b815260206004820152601c60248201527f4e6f7420656e6f756768206e65787420706f6f6c2062616c616e6365000000006044820152606490fd5b60405162461bcd60e51b815260206004820152600e60248201526d139bc81a1a59da195c881c1bdbdb60921b6044820152606490fd5b3461038857610df336611d47565b915f52603260205260405f20905f5260205260405f208054821015610388576020916103bb91611d32565b3461038857610e2c36611c94565b905f52600b60205260405f20905f52602052602060405f2054604051908152f35b34610388576020366003190112610388576004355f526014602052602060405f2054604051908152f35b34610388575f366003190112610388576002546040516001600160a01b039091168152602090f35b34610388575f366003190112610388576020600954604051908152f35b3461038857610eca36611c94565b815f52601060205260405f20610eea60018060a01b038254163314611d97565b610efa6007600c83015410612033565b610f0382611d02565b90549060031b1c90825f52602f60205260405f20845f52602052600160405f20019081549183831061103557610f3b8460019461206d565b9055600d8101610f4c848254611ec8565b9055610f59838686612141565b0160405190610f6782611e56565b82825260208201905f825260408301924284526060810193600a8552825493600160401b851015611021576001850180855585101561044c5760ff946003945f5260205f209060021b01925183555160018301555160028201550191511660ff198254161790556040519182526020820152608060408201526016608082015275506f6f6c205265546f70757020284561726e696e672960501b60a08201524260608201525f5160206133f15f395f51905f5260c03392a3005b634e487b7160e01b5f52604160045260245ffd5b60405162461bcd60e51b815260206004820152601a60248201527f4e6f7420656e6f756768207265546f7075702062616c616e63650000000000006044820152606490fd5b34610388575f36600319011261038857602060405162093a808152f35b34610388576110a536611c94565b905f52601260205260405f208054821015610388575f52600560205f2091020180546105446001830154926002810154906004600382015491015491604051958695869192608093969594919660a084019784526020840152604083015260608201520152565b34610388575f36600319011261038857602060405163025143008152f35b34610388576020366003190112610388576004355f52604360205260405f2080546105446001830154926002810154906003810154600482015460058301549060068401549260ff600860078701549601541695604051998a998a611caa565b346103885760203660031901126103885760606111a8600435611ed5565b91906020604051938492151583526040828401528051918291826040860152018484015e5f828201840152601f01601f19168101030190f35b34610388576111ef36611c94565b905f52601560205260405f208054821015610388576020916103bb91611d32565b34610388575f366003190112610388576020604954604051908152f35b346103885761123b36611c94565b5f918252600e60209081526040808420928452918152918190208054600182015460028301546003909301548451928352948201529182015260ff8083161515606083015260089290921c9091161515608082015260a090f35b34610388576112a336611d47565b915f52601360205260405f20905f5260205260405f208054821015610388576020916103bb91611d32565b611d61565b34610388576112e136611d47565b915f52603f60205260405f20905f5260205260405f208054821015610388576020916103bb91611d32565b346103885761131a36611c94565b905f52604d60205260405f208054821015610388576020916103bb91611d32565b34610388575f366003190112610388576020604754604051908152f35b34610388576020366003190112610388576004355f52601160205261018060405f208054906001810154906002810154600382015460048301546005840154600685015490600786015492600887015494600988015496600b600a8a0154990154996040519b8c5260208c015260408b015260608a0152608089015260a088015260c087015260e0860152610100850152610120840152610140830152610160820152f35b34610388576020366003190112610388576004355f52600a602052602060405f2054604051908152f35b3461038857602036600319011261038857600435805f52601060205260405f2061145b60018060a01b038254163314611d97565b600c8101908154916007831061147081611dd6565b1561044c5782601801546006830154106116aa5782159182156116a5575b845f52603460205260405f20845f526020526114b160ff60405f20541615611e11565b6114ba84611d02565b90546001546040516323b872dd60e01b815233600482015230602482015260039390931b9190911c60448301819052949190602090829060649082905f906001600160a01b03165af180156109bc57611688575b50611615575b6001600882015411806115f6575b806115e8575b6115dc575b81546001810180911161097b57600d9255845f52603460205260405f20845f5260205260405f20600160ff198254161790550161156b828254611ec8565b9055611578818484612141565b611580612c99565b611588612e14565b611590612f43565b6001820180921161097b576040519182526020820152608060408201526004608082015263141bdbdb60e21b60a08201524260608201525f5160206133f15f395f51905f5260c03392a3005b6014600b82015561152d565b50600f600b82015414611528565b5060118101546202a300810180911161097b57600e8201541115611522565b42600e82015560048101545f52601060205260405f2060118101546202a300810180911161097b574210158061167a575b611651575b50611514565b6008810180546001810180911161097b578060019255111561164b57600b60149101558561164b565b50600f600b82015414611646565b6116a09060203d6020116109b5576109a88183611e8e565b61150e565b61148e565b60405162461bcd60e51b815260206004820152601860248201527f5570677261646520796f7572206c6576656c20666972737400000000000000006044820152606490fd5b34610388576020366003190112610388576004355f52604560205260405f20805461054460018301549260ff60046002830154920154169060405194859485926060929594919560808501968552602085015260408401521515910152565b34610388575f3660031901126103885760206040516202a3008152f35b34610388576020366003190112610388576004356007548110156103885760075481101561044c5760075f527fa66cc928b5edb82af9bd49922954155ab7b0942694bea4ce44661d9a8736c6880154604051908152602090f35b611d7c565b34610388576020366003190112610388576004355f52601060205260405f206101805260018060a01b03610180515416600261018051015461010052600361018051015461014052600461018051015460056101805101546006610180510154600761018051015460086101805101546009610180510154600a61018051015490600b61018051015492600c61018051015494600d61018051015496600e61018051015498600f6101805101549a60106101805101549c6011610180510154608052601261018051015460c052601361018051015461016052601461018051015461012052601561018051015460e05260405160a05260a0515261010051602060a051015261014051604060a0510152606060a0510152608060a051015260a08051015260c060a051015260e060a051015261010060a051015261012060a051015261014060a051015261016060a051015261018060a05101526101a060a05101526101c060a05101526101e060a051015260805161020060a051015260c05161022060a05101526101605161024060a05101526101205161026060a051015260e05161028060a05101526102a060a051f35b34610388575f366003190112610388576020604051670de0b6b3a76400008152f35b34610388575f366003190112610388576020604051620151808152f35b34610388575f36600319011261038857602060405160028152f35b34610388575f366003190112610388576020603b54604051908152f35b34610388575f366003190112610388576001546040516001600160a01b039091168152602090f35b34610388576020366003190112610388576004356044548110156103885760445481101561044c5760445f527f9b22d3d61959b4d3528b1d8ba932c96fbe302b36a1aad1d95cab54f9e0a135ea0154604051908152602090f35b34610388575f36600319011261038857602060405162278d008152f35b3461038857602036600319011261038857600435601754811015610388576103bb602091611cea565b346103885760203660031901126103885760043560078110156103885760209060180154604051908152f35b3461038857611af636611c94565b905f52603360205260405f208054821015610388576020916103bb91611d32565b3461038857611b2536611d47565b915f52603660205260405f20905f5260205260405f208054821015610388576020916103bb91611d32565b3461038857611b5e36611c94565b905f52603d60205260405f208054821015610388576020916103bb91611d32565b34610388576020366003190112610388576004355f52600c602052602060405f2054604051908152f35b34610388576020366003190112610388576004355f52604a60205260405f2080546105446001830154926002810154906003810154600482015460058301549060068401549260ff600860078701549601541695604051998a998a611caa565b34610388575f3660031901126103885760206040516127108152f35b3461038857611c3336611c94565b905f52603e60205260405f20905f526020528061054460405f208054600182015491600360028201549101549260ff808560081c169416928693909594919260809360a0860197865260208601526040850152151560608401521515910152565b6040906003190112610388576004359060243590565b979491926101009794919a9996936101208a019b8a5260208a015260408901526060880152608087015260a086015260c085015260e08401521515910152565b60175481101561044c5760175f5260205f2001905f90565b60165481101561044c5760165f5260205f2001905f90565b600d5481101561044c57600d5f5260205f2001905f90565b805482101561044c575f5260205f2001905f90565b606090600319011261038857600435906024359060443590565b34610388575f366003190112610388576020604051600a8152f35b34610388575f366003190112610388576020604051600f8152f35b15611d9e57565b60405162461bcd60e51b815260206004820152601060248201526f139bdd081e5bdd5c881858d8dbdd5b9d60821b6044820152606490fd5b15611ddd57565b60405162461bcd60e51b815260206004820152600c60248201526b105d081b585e081b195d995b60a21b6044820152606490fd5b15611e1857565b60405162461bcd60e51b8152602060048201526016602482015275141bdbdb08185b1c9958591e481c1d5c98da185cd95960521b6044820152606490fd5b6080810190811067ffffffffffffffff82111761102157604052565b60a0810190811067ffffffffffffffff82111761102157604052565b90601f8019910116810190811067ffffffffffffffff82111761102157604052565b90816020910312610388575180151581036103885790565b9190820180921161097b57565b6060905f52601060205260405f20600c81015491601654831015611fe75750600782101561044c576006826018015491015410611f9a57151580611f93575b611f5657600190604051611f29604082611e8e565b601981527f456c696769626c6520746f20627579206e65787420706f6f6c00000000000000602082015290565b5f90604051611f66604082611e8e565b601781527f4275792070726576696f757320706f6f6c206669727374000000000000000000602082015290565b505f611f14565b505f90604051611fab606082611e8e565b602681527f596f75206e65656420746f207265616368206120686967686572206c6576656c60208201526508199a5c9cdd60d21b604082015290565b929150505f91611ffa6040519182611e8e565b602381527f596f752061726520616c726561647920617420746865206869676865737420706020820152621bdbdb60ea1b604082015290565b1561203a57565b60405162461bcd60e51b815260206004820152600b60248201526a105d081b585e081c1bdbdb60aa1b6044820152606490fd5b9190820391821161097b57565b1561208157565b60405162461bcd60e51b8152602060048201526007602482015266125b9d985b1a5960ca1b6044820152606490fd5b156120b757565b60405162461bcd60e51b815260206004820152601060248201526f125b98dbdc9c9958dd08185b5bdd5b9d60821b6044820152606490fd5b8054600160401b8110156110215761210c91600182018155611d32565b819291549060031b91821b915f19901b1916179055565b811561212d570490565b634e487b7160e01b5f52601260045260245ffd5b9092916016546121535f91841061207a565b61216d61215f84611d02565b90549060031b1c34146120b0565b825f52603360205260405f205461218681600554611ec8565b90845f52603360205261219c8260405f206120ef565b5f19810190811161097b576121c2600361226a92875f5260336020520460405f20611d32565b90549060031b1c916122306040516121d981611e72565b82815260208082018b815260408084018b8152606085018981525f608087018181528e8252603087528482208a83529096529290922094518555915160018501559051600284015551600383015551600490910155565b855f52603260205260405f20885f5260205261224f8160405f206120ef565b855f52603160205260405f20835f5260205260405f206120ef565b5f95869460038504925b600389106122a0575b505050505061228d92935061206d565b806122955750565b61229e9061306c565b565b801580156126ce575b61269a578185526030602052604085209085526020526040842095600187015460048801805490602782106122f5575b50505060036122ea85600193611ec8565b970154980197612274565b6001829c95989b9997969c9a939a0180921161261d578190556018811161263157508789526011602052600760408a2001612331858254611ec8565b9055605f8402841590858104605f1482171561261d57898b52601060205260408b2080546001600160a01b031699606490920492918a156125e95783156125b6578b8d52601160205260408d209c806125a2575090975f9c60078101612398868254611ec8565b9055549c600b8a01549960065f91019e8f5b5482101561258c57918f9492918f94928d906123c583611d1a565b90549060031b1c965f52600e60205260405f20875f5260205260405f20916003830160ff815460081c16801590818092612576575b15612458575050805461ff00191661010017905561242e929190600a612420828b612c86565b04928360028201555561206d565b945f52600c60205260405f209081545f19810190811161097b57600192555b0191939092946123aa565b809194969a925090612561575b1561248457505050600191600261247e9201549061206d565b9461244d565b90918093949950979495969792612549575b50506124ab5750908f9493929160019061244d565b919c999f50506001919c969d93929e9f999a5094939401555b6001546124dd90839086906001600160a01b0316613362565b604051918252600160208301526005937f4d634c31300b97dad99b3af799178230163d88ad306370d063be9cd992d0be7f6080848760408c970152426060820152a48186029186830414171561097b576122ea8560019361254260646003950461306c565b93506122d9565b600a92509061255791612c86565b0486108d5f612496565b50600a61256e8383612c86565b048511612465565b50600a612583858d612c86565b048510156123fa565b505099969d97985099939a909b509190916124c4565b634e487b7160e01b81526021600452602490fd5b60405162461bcd60e51b815260206004820152600b60248201526a16995c9bc8185b5bdd5b9d60aa1b6044820152606490fd5b60405162461bcd60e51b815260206004820152600c60248201526b24b73b30b634b2103ab9b2b960a11b6044820152606490fd5b634e487b7160e01b8b52601160045260248bfd5b846001936003939a60246122ea949e98999b9d9a979e11155f1461267757868a52602f60205260408a20908a5260205260408920612670838254611ec8565b9055612542565b868a52602f60205260408a20908a526020528460408a2001612670838254611ec8565b505050505061228d9293506126af828261206d565b806126bf575b849381808061227d565b6126c89061306c565b5f6126b5565b5060055481146122a9565b90926126e8601754831061207a565b6126f461215f83611cea565b5f82815260376020526040902080549061270f9086906120ef565b5f19810190811161097b57600361273291845f5260376020520460405f20611d32565b90549060031b1c916127a060405161274981611e72565b868152602080820184815260408084018881525f606086018181524260808801908152898352603587528483208e845290965292902094518555915160018501559051600284015551600383015551600490910155565b805f52603660205260405f20835f526020526127bf8560405f206120ef565b60018114612a5b575b82158015612a50575b612a43575f52603560205260405f20825f52602052600360405f200160038154105f14612a43578054906001820180921161097b5755815f526011602052600860405f2001612821848254611ec8565b9055605f830292801593818104605f1485171561097b576064900493835f52601060205260405f209460018060a01b038654169384156125e95781156125b657855f52601160205260405f206008810161287c848254611ec8565b90555493600b8801549360065f9901985b8954811015612a345761289f81611d1a565b90549060031b1c96895f52600e60205260405f20885f5260205260405f20906003820160ff815460081c16801590818b8d8294612a1b575b505015612924575050805461ff0019166101001790556128ff919088600a612420828d612c86565b965f52600c60205260405f209081545f19810190811161097b57600192555b0161288d565b809193959b925090612a06575b1561294f57505060019160026129499201549061206d565b9661291e565b9298928890826129ee575b5050612969575060019061291e565b919896939a97955050600191985001555b60015461299390829084906001600160a01b0316613362565b60405190815260016020820152608081600660407f4d634c31300b97dad99b3af799178230163d88ad306370d063be9cd992d0be7f940152426060820152a460058202918204600514171561097b57606461229e910461306c565b600a9250906129fc91612c86565b048810875f61295a565b50600a612a138a83612c86565b048411612931565b600a925090612a2991612c86565b048410158b8d6128d7565b5096945096509693915061297a565b5092505061229e9061306c565b5060055483146127d1565b845f52601060205260405f20604051906102c0820182811067ffffffffffffffff8211176110215760405280546001600160a01b0316825260018101805467ffffffffffffffff81116110215760405191612abc60208360051b0184611e8e565b81835260208301905f5260205f205f915b838310612c4257505050506020830152600281015460408301526003810154606083015260048101549160808101928352600582015460a0820152600682015460c0820152600782015460e082015260088201546101008201526009820154610120820152600a820154610140820152600b820154610160820152600c820154610180820152600d8201546101a0820152600e8201546101c0820152600f8201546101e082015260108201546102008201526102a06015601184015493610220840194855260128101546102408501526013810154610260850152601481015461028085015201549101526039545f52603f60205260405f2082515f52602052612bda8760405f206120ef565b60395490815f52603f60205260405f2083515f5260205260405f205490519162015180830180931161097b57600592421115612c32575b501015612c1f575b506127c8565b51603954612c2c91613039565b5f612c19565b612c3c9089613039565b5f612c11565b60046020600192604051612c5581611e56565b8554815284860154838201526002860154604082015260ff6003870154166060820152815201920192019190612acd565b8181029291811591840414171561097b57565b603a5462093a80810180911161097b57421015612cb257565b603954805f52603c60205260405f20600881019182549260ff8416612e0e575f828152603d6020526040902054928315612e0157603b5491612cf48584612123565b683635c9adc5dea00000811115612dfb5750683635c9adc5dea00000915b612d1c8684612c86565b938480821115612df357612d2f9161206d565b915b858255836003830155866002830155603b546001830155826007830155603a549162093a80830180931161097b5760066001910198838a5560ff1916179055603a55600184019283851161097b577fca8a78d1841a8dafbb8ff53c869b3fa9a69abd051022178024f84b680ffd2e3c96612dee9460395582603b55612db68383611ec8565b9054936040519788978893909796959260c0959260e08601998652602086015260408501526060840152608083015260a08201520152565b0390a1565b50505f612d2f565b91612d12565b90603b545f925f92612d31565b50505050565b60415462278d00810180911161097b57421015612e2d57565b604054805f52604360205260405f20600881019182549260ff8416612e0e57604454928315612f365760425491612e648584612123565b69021e19e0c9bab2400000811115612f30575069021e19e0c9bab2400000915b612e8e8684612c86565b938480821115612f2857612ea19161206d565b915b85825583600383015586600283015560425460018301558260078301556041549162278d00830180931161097b5760066001910198838a5560ff1916179055604155600184019283851161097b577f1b674071adfa65db18518e4868ae7d5f54dd365c69e0babe9b704cbade8fe4bb96612dee9460405582604255612db68383611ec8565b50505f612ea1565b91612e84565b906042545f925f92612ea3565b60485462278d00810180911161097b57421061229e57604754805f52604a60205260405f20600881019182549260ff8416612e0e57604b5492831561302c5760495491612f908584612123565b91612fa5612f9e8785612c86565b809561206d565b915b85825583600383015586600283015560495460018301558260078301556048549162278d00830180931161097b5760066001910198838a5560ff1916179055604855600184019283851161097b577f3e2269a22c7571b51c53565ece51da09613519b306c6dde588beea1f5fd3cfd396612dee9460475582604955612db68383611ec8565b906049545f925f92612fa7565b90805f52603e60205260405f20825f5260205260ff600360405f20015460081c1615613063575050565b61229e9161313b565b6002546001600160a01b03169081156131025760015460809261309a918391906001600160a01b0316613362565b6005545f52601160205260405f206130b3828254611ec8565b905560018060a01b03600254167f4d634c31300b97dad99b3af799178230163d88ad306370d063be9cd992d0be7f6005549384936040519081525f60208201525f6040820152426060820152a4565b60405162461bcd60e51b8152602060048201526011602482015270199959481859191c9cc81b9bdd081cd95d607a1b6044820152606490fd5b90603954810361332d57805f52603c60205260ff600860405f200154166132f9575f8281527f8e3caac72b6c5bb0462da38c8c8c3b5fbc00a646bd75367c23c11d594c4e36c960205260409081902090519060049061319983611e72565b80548352600181015460208401526002810154604084015260038101546060840152015460808201908152825f52603f60205260405f20845f5260205283600560405f20541092511490816132d0575b508115916132c8575b501561328357805f52603e60205260405f20825f5260205260405f2090600382019260ff845460081c16612e0e577f360cb96d3e85b4fc299ddfa9a572850fc70961c86f0f1703f033143b0e5a82cf93826001606095825f52603d60205261325d8560405f206120ef565b428155015561010061ff00198254161790556040519182526020820152426040820152a1565b60405162461bcd60e51b815260206004820152601f60248201527f4e6f7420656c696769626c6520666f72207765656b6c7920636f6e74657374006044820152606490fd5b90505f6131f2565b905051835f526010602052601160405f2001549062015180820180921161097b5711155f6131e9565b60405162461bcd60e51b815260206004820152600c60248201526b149bdd5b990818db1bdcd95960a21b6044820152606490fd5b60405162461bcd60e51b815260206004820152600d60248201526c125b9d985b1a59081c9bdd5b99609a1b6044820152606490fd5b60405163a9059cbb60e01b60208281019182526001600160a01b03909416602483015260448083019590955293815290925f916133a0606482611e8e565b519082855af1156109bc575f513d6133e757506001600160a01b0381163b155b6133c75750565b635274afe760e01b5f9081526001600160a01b0391909116600452602490fd5b600114156133c056fe26adb22cec823ef144935e9fbef1b6b4a3a29dacbe5444d59292fa2620f3d377a2646970667358221220598392e6068119efb8cfd420b84b231bfbd5448cf8f7cae1d04a08b90c44240164736f6c634300081e0033",
			"opcodes": "PUSH1 0x80 PUSH1 0x40 MSTORE CALLVALUE PUSH2 0x52B JUMPI PUSH1 0x1 PUSH0 SSTORE PUSH1 0x40 MLOAD PUSH2 0x1E0 DUP2 ADD PUSH1 0x1 PUSH1 0x1 PUSH1 0x40 SHL SUB DUP2 GT DUP3 DUP3 LT OR PUSH2 0x517 JUMPI PUSH1 0x40 MSTORE PUSH8 0xD02AB486CEDC0000 DUP2 MSTORE PUSH9 0x15AF1D78B58C40000 PUSH1 0x20 DUP3 ADD MSTORE PUSH9 0x2B5E3AF16B1880000 PUSH1 0x40 DUP3 ADD MSTORE PUSH9 0x56BC75E2D63100000 PUSH1 0x60 DUP3 ADD MSTORE PUSH9 0xAD78EBC5AC6200000 PUSH1 0x80 DUP3 ADD MSTORE PUSH9 0x15AF1D78B58C400000 PUSH1 0xA0 DUP3 ADD MSTORE PUSH9 0x2B5E3AF16B18800000 PUSH1 0xC0 DUP3 ADD MSTORE PUSH9 0x56BC75E2D631000000 PUSH1 0xE0 DUP3 ADD MSTORE PUSH9 0xAD78EBC5AC62000000 PUSH2 0x100 DUP3 ADD MSTORE PUSH10 0x15AF1D78B58C4000000 PUSH2 0x120 DUP3 ADD MSTORE PUSH10 0x2B5E3AF16B188000000 PUSH2 0x140 DUP3 ADD MSTORE PUSH10 0x56BC75E2D6310000000 PUSH2 0x160 DUP3 ADD MSTORE PUSH10 0xAD78EBC5AC620000000 PUSH2 0x180 DUP3 ADD MSTORE PUSH10 0x15AF1D78B58C40000000 PUSH2 0x1A0 DUP3 ADD MSTORE PUSH10 0x2B5E3AF16B1880000000 PUSH2 0x1C0 DUP3 ADD MSTORE PUSH1 0xD SLOAD PUSH1 0xF PUSH1 0xD SSTORE DUP1 PUSH1 0xF LT PUSH2 0x4C1 JUMPI JUMPDEST POP PUSH1 0xD PUSH0 MSTORE PUSH1 0x20 PUSH0 KECCAK256 SWAP1 PUSH0 JUMPDEST PUSH1 0xF DUP2 LT PUSH2 0x4A4 JUMPI PUSH2 0x141 PUSH2 0x52F JUMP JUMPDEST PUSH9 0x410D586A20A4C0000 DUP2 MSTORE PUSH9 0x1043561A8829300000 PUSH1 0x20 DUP3 ADD MSTORE PUSH9 0x410D586A20A4C00000 PUSH1 0x40 DUP3 ADD MSTORE PUSH10 0x1043561A88293000000 PUSH1 0x60 DUP3 ADD MSTORE PUSH10 0x410D586A20A4C000000 PUSH1 0x80 DUP3 ADD MSTORE PUSH10 0x1043561A882930000000 PUSH1 0xA0 DUP3 ADD MSTORE PUSH10 0x410D586A20A4C0000000 PUSH1 0xC0 DUP3 ADD MSTORE PUSH1 0x16 SLOAD PUSH1 0x7 PUSH1 0x16 SSTORE DUP1 PUSH1 0x7 LT PUSH2 0x44E JUMPI JUMPDEST POP PUSH1 0x16 PUSH0 MSTORE PUSH1 0x20 PUSH0 KECCAK256 SWAP1 PUSH0 JUMPDEST PUSH1 0x7 DUP2 LT PUSH2 0x431 JUMPI PUSH2 0x1D8 PUSH2 0x54E JUMP JUMPDEST PUSH9 0x56BC75E2D63100000 DUP2 MSTORE PUSH9 0xAD78EBC5AC6200000 PUSH1 0x20 DUP3 ADD MSTORE PUSH9 0x15AF1D78B58C400000 PUSH1 0x40 DUP3 ADD MSTORE PUSH9 0x2B5E3AF16B18800000 PUSH1 0x60 DUP3 ADD MSTORE PUSH9 0x56BC75E2D631000000 PUSH1 0x80 DUP3 ADD MSTORE PUSH9 0xAD78EBC5AC62000000 PUSH1 0xA0 DUP3 ADD MSTORE PUSH10 0x15AF1D78B58C4000000 PUSH1 0xC0 DUP3 ADD MSTORE PUSH10 0x2B5E3AF16B188000000 PUSH1 0xE0 DUP3 ADD MSTORE PUSH1 0x17 SLOAD PUSH1 0x8 PUSH1 0x17 SSTORE DUP1 PUSH1 0x8 LT PUSH2 0x3DB JUMPI JUMPDEST POP PUSH1 0x17 PUSH0 MSTORE PUSH1 0x20 PUSH0 KECCAK256 SWAP1 PUSH0 JUMPDEST PUSH1 0x8 DUP2 LT PUSH2 0x3BE JUMPI PUSH2 0x27C PUSH2 0x52F JUMP JUMPDEST PUSH1 0x3 DUP2 MSTORE PUSH1 0x5 PUSH1 0x20 DUP3 ADD MSTORE PUSH1 0x7 PUSH1 0x40 DUP3 ADD MSTORE PUSH1 0x9 PUSH1 0x60 DUP3 ADD MSTORE PUSH1 0xB PUSH1 0x80 DUP3 ADD MSTORE PUSH1 0xD PUSH1 0xA0 DUP3 ADD MSTORE PUSH1 0xF PUSH1 0xC0 DUP3 ADD MSTORE PUSH0 JUMPDEST PUSH1 0x7 DUP2 LT PUSH2 0x3A6 JUMPI PUSH2 0x2BC PUSH2 0x54E JUMP JUMPDEST PUSH1 0x4 DUP2 MSTORE PUSH1 0x5 PUSH1 0x20 DUP3 ADD MSTORE PUSH1 0x6 PUSH1 0x40 DUP3 ADD MSTORE PUSH1 0x7 PUSH1 0x60 DUP3 ADD MSTORE PUSH1 0x8 PUSH1 0x80 DUP3 ADD MSTORE PUSH1 0x9 PUSH1 0xA0 DUP3 ADD MSTORE PUSH1 0xA PUSH1 0xC0 DUP3 ADD MSTORE PUSH1 0xB PUSH1 0xE0 DUP3 ADD MSTORE PUSH0 JUMPDEST PUSH1 0x8 DUP2 LT PUSH2 0x38E JUMPI PUSH2 0x303 PUSH2 0x54E JUMP JUMPDEST PUSH0 DUP2 MSTORE PUSH1 0x1 PUSH1 0x20 DUP3 ADD MSTORE PUSH1 0x1 PUSH1 0x40 DUP3 ADD MSTORE PUSH1 0x1 PUSH1 0x60 DUP3 ADD MSTORE PUSH1 0x1 PUSH1 0x80 DUP3 ADD MSTORE PUSH1 0x1 PUSH1 0xA0 DUP3 ADD MSTORE PUSH1 0x1 PUSH1 0xC0 DUP3 ADD MSTORE PUSH1 0x1 PUSH1 0xE0 DUP3 ADD MSTORE PUSH0 JUMPDEST PUSH1 0x8 DUP2 LT PUSH2 0x376 JUMPI PUSH0 PUSH1 0x39 SSTORE PUSH0 PUSH1 0x3A SSTORE PUSH0 PUSH1 0x3B SSTORE PUSH1 0x1 PUSH1 0x40 SSTORE PUSH0 PUSH1 0x41 SSTORE PUSH0 PUSH1 0x42 SSTORE PUSH1 0x1 PUSH1 0x47 SSTORE PUSH0 PUSH1 0x48 SSTORE PUSH0 PUSH1 0x49 SSTORE PUSH1 0x40 MLOAD PUSH2 0x3446 SWAP1 DUP2 PUSH2 0x585 DUP3 CODECOPY RETURN JUMPDEST PUSH1 0x1 SWAP1 PUSH1 0x20 PUSH1 0xFF DUP5 MLOAD AND SWAP4 ADD SWAP3 DUP2 PUSH1 0x27 ADD SSTORE ADD PUSH2 0x339 JUMP JUMPDEST PUSH1 0x1 SWAP1 PUSH1 0x20 PUSH1 0xFF DUP5 MLOAD AND SWAP4 ADD SWAP3 DUP2 PUSH1 0x1F ADD SSTORE ADD PUSH2 0x2F3 JUMP JUMPDEST PUSH1 0x1 SWAP1 PUSH1 0x20 PUSH1 0xFF DUP5 MLOAD AND SWAP4 ADD SWAP3 DUP2 PUSH1 0x18 ADD SSTORE ADD PUSH2 0x2AC JUMP JUMPDEST DUP2 MLOAD PUSH1 0x1 PUSH1 0x1 PUSH1 0x50 SHL SUB AND DUP2 DUP5 ADD SSTORE PUSH1 0x20 SWAP1 SWAP2 ADD SWAP1 PUSH1 0x1 ADD PUSH2 0x26C JUMP JUMPDEST PUSH1 0x17 PUSH0 MSTORE PUSH2 0x42B SWAP1 PUSH32 0xC624B66CC0138B8FABC209247F72D758E1CF3343756D543BADBF24212BED8C15 ADD PUSH32 0xC624B66CC0138B8FABC209247F72D758E1CF3343756D543BADBF24212BED8C1D PUSH2 0x56E JUMP JUMPDEST DUP2 PUSH2 0x260 JUMP JUMPDEST DUP2 MLOAD PUSH1 0x1 PUSH1 0x1 PUSH1 0x50 SHL SUB AND DUP2 DUP5 ADD SSTORE PUSH1 0x20 SWAP1 SWAP2 ADD SWAP1 PUSH1 0x1 ADD PUSH2 0x1C8 JUMP JUMPDEST PUSH1 0x16 PUSH0 MSTORE PUSH2 0x49E SWAP1 PUSH32 0xD833147D7DC355BA459FC788F669E58CFAF9DC25DDCD0702E87D69C7B5124289 ADD PUSH32 0xD833147D7DC355BA459FC788F669E58CFAF9DC25DDCD0702E87D69C7B5124290 PUSH2 0x56E JUMP JUMPDEST DUP2 PUSH2 0x1BC JUMP JUMPDEST DUP2 MLOAD PUSH1 0x1 PUSH1 0x1 PUSH1 0x50 SHL SUB AND DUP2 DUP5 ADD SSTORE PUSH1 0x20 SWAP1 SWAP2 ADD SWAP1 PUSH1 0x1 ADD PUSH2 0x131 JUMP JUMPDEST PUSH1 0xD PUSH0 MSTORE PUSH2 0x511 SWAP1 PUSH32 0xD7B6990105719101DABEB77144F2A3385C8033ACD3AF97E9423A695E81AD1EB5 ADD PUSH32 0xD7B6990105719101DABEB77144F2A3385C8033ACD3AF97E9423A695E81AD1EC4 PUSH2 0x56E JUMP JUMPDEST PUSH0 PUSH2 0x125 JUMP JUMPDEST PUSH4 0x4E487B71 PUSH1 0xE0 SHL PUSH0 MSTORE PUSH1 0x41 PUSH1 0x4 MSTORE PUSH1 0x24 PUSH0 REVERT JUMPDEST PUSH0 DUP1 REVERT JUMPDEST PUSH1 0x40 MLOAD SWAP1 PUSH1 0xE0 DUP3 ADD PUSH1 0x1 PUSH1 0x1 PUSH1 0x40 SHL SUB DUP2 GT DUP4 DUP3 LT OR PUSH2 0x517 JUMPI PUSH1 0x40 MSTORE JUMP JUMPDEST PUSH1 0x40 MLOAD SWAP1 PUSH2 0x100 DUP3 ADD PUSH1 0x1 PUSH1 0x1 PUSH1 0x40 SHL SUB DUP2 GT DUP4 DUP3 LT OR PUSH2 0x517 JUMPI PUSH1 0x40 MSTORE JUMP JUMPDEST DUP2 DUP2 LT PUSH2 0x579 JUMPI POP POP JUMP JUMPDEST PUSH0 DUP2 SSTORE PUSH1 0x1 ADD PUSH2 0x56E JUMP INVALID PUSH2 0x1A0 DUP1 PUSH1 0x40 MSTORE PUSH1 0x4 CALLDATASIZE LT ISZERO PUSH2 0x13 JUMPI PUSH0 DUP1 REVERT JUMPDEST PUSH0 CALLDATALOAD PUSH1 0xE0 SHR SWAP1 DUP2 PUSH3 0x54815D EQ PUSH2 0x1C25 JUMPI POP DUP1 PUSH4 0x1C234A8 EQ PUSH2 0x1C09 JUMPI DUP1 PUSH4 0x56B4D1F EQ PUSH2 0x1BA9 JUMPI DUP1 PUSH4 0x676D0D6 EQ PUSH2 0x1B7F JUMPI DUP1 PUSH4 0xA5C5D69 EQ PUSH2 0x1B50 JUMPI DUP1 PUSH4 0xEF81B74 EQ PUSH2 0x1B17 JUMPI DUP1 PUSH4 0xF2B7CC9 EQ PUSH2 0x1AE8 JUMPI DUP1 PUSH4 0x2132D204 EQ PUSH2 0x1ABC JUMPI DUP1 PUSH4 0x2350268F EQ PUSH2 0x1A93 JUMPI DUP1 PUSH4 0x23FD338E EQ PUSH2 0x12CE JUMPI DUP1 PUSH4 0x2A891534 EQ PUSH2 0x1A76 JUMPI DUP1 PUSH4 0x2AE0EE0D EQ PUSH2 0x17C5 JUMPI DUP1 PUSH4 0x2D66014F EQ PUSH2 0x1A1C JUMPI DUP1 PUSH4 0x2F48AB7D EQ PUSH2 0x19F4 JUMPI DUP1 PUSH4 0x3080B5BC EQ PUSH2 0x19D7 JUMPI DUP1 PUSH4 0x31BB6A30 EQ PUSH2 0x19BC JUMPI DUP1 PUSH4 0x32BC298C EQ PUSH2 0x199F JUMPI DUP1 PUSH4 0x32FCD966 EQ PUSH2 0x197D JUMPI DUP1 PUSH4 0x365B98B2 EQ PUSH2 0x17CA JUMPI DUP1 PUSH4 0x375B43B4 EQ PUSH2 0x17C5 JUMPI DUP1 PUSH4 0x39AB3603 EQ PUSH2 0x176B JUMPI DUP1 PUSH4 0x3A5084B3 EQ PUSH2 0x174E JUMPI DUP1 PUSH4 0x4036436C EQ PUSH2 0x16EF JUMPI DUP1 PUSH4 0x4060160A EQ PUSH2 0x1427 JUMPI DUP1 PUSH4 0x45CB537C EQ PUSH2 0x13FD JUMPI DUP1 PUSH4 0x46B9DECE EQ PUSH2 0x1358 JUMPI DUP1 PUSH4 0x4B8CBF9B EQ PUSH2 0x133B JUMPI DUP1 PUSH4 0x4D12AE0F EQ PUSH2 0x130C JUMPI DUP1 PUSH4 0x4D4CC5CA EQ PUSH2 0x12D3 JUMPI DUP1 PUSH4 0x58C7D352 EQ PUSH2 0x12CE JUMPI DUP1 PUSH4 0x5AABF7F1 EQ PUSH2 0x1295 JUMPI DUP1 PUSH4 0x5B58CE6C EQ PUSH2 0x122D JUMPI DUP1 PUSH4 0x5B62D1D5 EQ PUSH2 0x1210 JUMPI DUP1 PUSH4 0x5EC64A44 EQ PUSH2 0x11E1 JUMPI DUP1 PUSH4 0x67D52D4D EQ PUSH2 0x118A JUMPI DUP1 PUSH4 0x6A424782 EQ PUSH2 0x112A JUMPI DUP1 PUSH4 0x705FEE2D EQ PUSH2 0x110C JUMPI DUP1 PUSH4 0x70C8D770 EQ PUSH2 0x1097 JUMPI DUP1 PUSH4 0x76F5F700 EQ PUSH2 0x107A JUMPI DUP1 PUSH4 0x7848F0A3 EQ PUSH2 0xEBC JUMPI DUP1 PUSH4 0x78F6AD6D EQ PUSH2 0xE9F JUMPI DUP1 PUSH4 0x7CDC65F2 EQ PUSH2 0xE77 JUMPI DUP1 PUSH4 0x88AFBE3E EQ PUSH2 0xE4D JUMPI DUP1 PUSH4 0x89043ECE EQ PUSH2 0xE1E JUMPI DUP1 PUSH4 0x8D58644C EQ PUSH2 0xDE5 JUMPI DUP1 PUSH4 0x8E222E24 EQ PUSH2 0xB9C JUMPI DUP1 PUSH4 0x8F030ECE EQ PUSH2 0xB63 JUMPI DUP1 PUSH4 0x907C84A7 EQ PUSH2 0xAF8 JUMPI DUP1 PUSH4 0x956A3228 EQ PUSH2 0xACC JUMPI DUP1 PUSH4 0x9B40AB97 EQ PUSH2 0xAAF JUMPI DUP1 PUSH4 0x9C383486 EQ PUSH2 0xA7B JUMPI DUP1 PUSH4 0xA59D17D1 EQ PUSH2 0xA5E JUMPI DUP1 PUSH4 0xA5E52B99 EQ PUSH2 0xA41 JUMPI DUP1 PUSH4 0xAE4708DC EQ PUSH2 0xA18 JUMPI DUP1 PUSH4 0xBC1FA7C0 EQ PUSH2 0x7D5 JUMPI DUP1 PUSH4 0xBD1AAE40 EQ PUSH2 0x7A1 JUMPI DUP1 PUSH4 0xBF724672 EQ PUSH2 0x769 JUMPI DUP1 PUSH4 0xBFF1F9E1 EQ PUSH2 0x74C JUMPI DUP1 PUSH4 0xC216212A EQ PUSH2 0x723 JUMPI DUP1 PUSH4 0xC4EB42A5 EQ PUSH2 0x6C3 JUMPI DUP1 PUSH4 0xC7BB62E8 EQ PUSH2 0x694 JUMPI DUP1 PUSH4 0xC8DF2908 EQ PUSH2 0x670 JUMPI DUP1 PUSH4 0xC9ED0708 EQ PUSH2 0x653 JUMPI DUP1 PUSH4 0xCA8E9121 EQ PUSH2 0x636 JUMPI DUP1 PUSH4 0xCB0E0D7D EQ PUSH2 0x5FA JUMPI DUP1 PUSH4 0xCE79C2C3 EQ PUSH2 0x58F JUMPI DUP1 PUSH4 0xD0A2FD79 EQ PUSH2 0x563 JUMPI DUP1 PUSH4 0xD2F0490D EQ PUSH2 0x548 JUMPI DUP1 PUSH4 0xDB27CC71 EQ PUSH2 0x4E5 JUMPI DUP1 PUSH4 0xE898FC38 EQ PUSH2 0x4C8 JUMPI DUP1 PUSH4 0xE9E34A16 EQ PUSH2 0x4A0 JUMPI DUP1 PUSH4 0xEBE0FF15 EQ PUSH2 0x47D JUMPI DUP1 PUSH4 0xEC597E6F EQ PUSH2 0x460 JUMPI DUP1 PUSH4 0xF5748C4F EQ PUSH2 0x3F2 JUMPI DUP1 PUSH4 0xF5D74D93 EQ PUSH2 0x3CA JUMPI DUP1 PUSH4 0xF7A24806 EQ PUSH2 0x38C JUMPI PUSH4 0xFDDC806F EQ PUSH2 0x36B JUMPI PUSH0 DUP1 REVERT JUMPDEST CALLVALUE PUSH2 0x388 JUMPI PUSH0 CALLDATASIZE PUSH1 0x3 NOT ADD SLT PUSH2 0x388 JUMPI PUSH1 0x20 PUSH1 0x3A SLOAD PUSH1 0x40 MLOAD SWAP1 DUP2 MSTORE RETURN JUMPDEST PUSH0 DUP1 REVERT JUMPDEST CALLVALUE PUSH2 0x388 JUMPI PUSH2 0x39A CALLDATASIZE PUSH2 0x1C94 JUMP JUMPDEST SWAP1 PUSH0 MSTORE PUSH1 0x46 PUSH1 0x20 MSTORE PUSH1 0x40 PUSH0 KECCAK256 DUP1 SLOAD DUP3 LT ISZERO PUSH2 0x388 JUMPI PUSH1 0x20 SWAP2 PUSH2 0x3BB SWAP2 PUSH2 0x1D32 JUMP JUMPDEST SWAP1 SLOAD SWAP1 PUSH1 0x3 SHL SHR PUSH1 0x40 MLOAD SWAP1 DUP2 MSTORE RETURN JUMPDEST CALLVALUE PUSH2 0x388 JUMPI PUSH0 CALLDATASIZE PUSH1 0x3 NOT ADD SLT PUSH2 0x388 JUMPI PUSH1 0x4 SLOAD PUSH1 0x40 MLOAD PUSH1 0x1 PUSH1 0x1 PUSH1 0xA0 SHL SUB SWAP1 SWAP2 AND DUP2 MSTORE PUSH1 0x20 SWAP1 RETURN JUMPDEST CALLVALUE PUSH2 0x388 JUMPI PUSH1 0x20 CALLDATASIZE PUSH1 0x3 NOT ADD SLT PUSH2 0x388 JUMPI PUSH1 0x4 CALLDATALOAD PUSH1 0x4B SLOAD DUP2 LT ISZERO PUSH2 0x388 JUMPI PUSH1 0x4B SLOAD DUP2 LT ISZERO PUSH2 0x44C JUMPI PUSH1 0x4B PUSH0 MSTORE PUSH32 0x17B0AF156A929EDF60C351F3DF2D53ED643FDD750AEF9EDA90DC7C8759A104A8 ADD SLOAD PUSH1 0x40 MLOAD SWAP1 DUP2 MSTORE PUSH1 0x20 SWAP1 RETURN JUMPDEST PUSH4 0x4E487B71 PUSH1 0xE0 SHL PUSH0 MSTORE PUSH1 0x32 PUSH1 0x4 MSTORE PUSH1 0x24 PUSH0 REVERT JUMPDEST CALLVALUE PUSH2 0x388 JUMPI PUSH0 CALLDATASIZE PUSH1 0x3 NOT ADD SLT PUSH2 0x388 JUMPI PUSH1 0x20 PUSH1 0x5 SLOAD PUSH1 0x40 MLOAD SWAP1 DUP2 MSTORE RETURN JUMPDEST CALLVALUE PUSH2 0x388 JUMPI PUSH0 CALLDATASIZE PUSH1 0x3 NOT ADD SLT PUSH2 0x388 JUMPI PUSH1 0x20 PUSH1 0x40 MLOAD PUSH9 0x3635C9ADC5DEA00000 DUP2 MSTORE RETURN JUMPDEST CALLVALUE PUSH2 0x388 JUMPI PUSH0 CALLDATASIZE PUSH1 0x3 NOT ADD SLT PUSH2 0x388 JUMPI PUSH1 0x3 SLOAD PUSH1 0x40 MLOAD PUSH1 0x1 PUSH1 0x1 PUSH1 0xA0 SHL SUB SWAP1 SWAP2 AND DUP2 MSTORE PUSH1 0x20 SWAP1 RETURN JUMPDEST CALLVALUE PUSH2 0x388 JUMPI PUSH0 CALLDATASIZE PUSH1 0x3 NOT ADD SLT PUSH2 0x388 JUMPI PUSH1 0x20 PUSH1 0x41 SLOAD PUSH1 0x40 MLOAD SWAP1 DUP2 MSTORE RETURN JUMPDEST CALLVALUE PUSH2 0x388 JUMPI PUSH1 0x20 CALLDATASIZE PUSH1 0x3 NOT ADD SLT PUSH2 0x388 JUMPI PUSH1 0x4 CALLDATALOAD PUSH0 MSTORE PUSH1 0x4C PUSH1 0x20 MSTORE PUSH1 0x40 PUSH0 KECCAK256 DUP1 SLOAD PUSH2 0x544 PUSH1 0x1 DUP4 ADD SLOAD SWAP3 PUSH1 0xFF PUSH1 0x4 PUSH1 0x2 DUP4 ADD SLOAD SWAP3 ADD SLOAD AND SWAP1 PUSH1 0x40 MLOAD SWAP5 DUP6 SWAP5 DUP6 SWAP3 PUSH1 0x60 SWAP3 SWAP6 SWAP5 SWAP2 SWAP6 PUSH1 0x80 DUP6 ADD SWAP7 DUP6 MSTORE PUSH1 0x20 DUP6 ADD MSTORE PUSH1 0x40 DUP5 ADD MSTORE ISZERO ISZERO SWAP2 ADD MSTORE JUMP JUMPDEST SUB SWAP1 RETURN JUMPDEST CALLVALUE PUSH2 0x388 JUMPI PUSH0 CALLDATASIZE PUSH1 0x3 NOT ADD SLT PUSH2 0x388 JUMPI PUSH1 0x20 PUSH1 0x40 MLOAD PUSH1 0x5 DUP2 MSTORE RETURN JUMPDEST CALLVALUE PUSH2 0x388 JUMPI PUSH1 0x20 CALLDATASIZE PUSH1 0x3 NOT ADD SLT PUSH2 0x388 JUMPI PUSH1 0x4 CALLDATALOAD PUSH1 0x8 DUP2 LT ISZERO PUSH2 0x388 JUMPI PUSH1 0x20 SWAP1 PUSH1 0x1F ADD SLOAD PUSH1 0x40 MLOAD SWAP1 DUP2 MSTORE RETURN JUMPDEST CALLVALUE PUSH2 0x388 JUMPI PUSH2 0x59D CALLDATASIZE PUSH2 0x1C94 JUMP JUMPDEST SWAP1 PUSH0 MSTORE PUSH1 0x30 PUSH1 0x20 MSTORE PUSH1 0x40 PUSH0 KECCAK256 SWAP1 PUSH0 MSTORE PUSH1 0x20 MSTORE PUSH1 0x40 PUSH0 KECCAK256 DUP1 SLOAD PUSH2 0x544 PUSH1 0x1 DUP4 ADD SLOAD SWAP3 PUSH1 0x2 DUP2 ADD SLOAD SWAP1 PUSH1 0x4 PUSH1 0x3 DUP3 ADD SLOAD SWAP2 ADD SLOAD SWAP2 PUSH1 0x40 MLOAD SWAP6 DUP7 SWAP6 DUP7 SWAP2 SWAP3 PUSH1 0x80 SWAP4 SWAP7 SWAP6 SWAP5 SWAP2 SWAP7 PUSH1 0xA0 DUP5 ADD SWAP8 DUP5 MSTORE PUSH1 0x20 DUP5 ADD MSTORE PUSH1 0x40 DUP4 ADD MSTORE PUSH1 0x60 DUP3 ADD MSTORE ADD MSTORE JUMP JUMPDEST CALLVALUE PUSH2 0x388 JUMPI PUSH1 0x20 CALLDATASIZE PUSH1 0x3 NOT ADD SLT PUSH2 0x388 JUMPI PUSH1 0x4 CALLDATALOAD PUSH1 0x1 PUSH1 0x1 PUSH1 0xA0 SHL SUB DUP2 AND SWAP1 DUP2 SWAP1 SUB PUSH2 0x388 JUMPI PUSH0 MSTORE PUSH1 0xF PUSH1 0x20 MSTORE PUSH1 0x20 PUSH1 0x40 PUSH0 KECCAK256 SLOAD PUSH1 0x40 MLOAD SWAP1 DUP2 MSTORE RETURN JUMPDEST CALLVALUE PUSH2 0x388 JUMPI PUSH0 CALLDATASIZE PUSH1 0x3 NOT ADD SLT PUSH2 0x388 JUMPI PUSH1 0x20 PUSH1 0x39 SLOAD PUSH1 0x40 MLOAD SWAP1 DUP2 MSTORE RETURN JUMPDEST CALLVALUE PUSH2 0x388 JUMPI PUSH0 CALLDATASIZE PUSH1 0x3 NOT ADD SLT PUSH2 0x388 JUMPI PUSH1 0x20 PUSH1 0x40 SLOAD PUSH1 0x40 MLOAD SWAP1 DUP2 MSTORE RETURN JUMPDEST CALLVALUE PUSH2 0x388 JUMPI PUSH0 CALLDATASIZE PUSH1 0x3 NOT ADD SLT PUSH2 0x388 JUMPI PUSH1 0x20 PUSH1 0x40 MLOAD PUSH10 0x21E19E0C9BAB2400000 DUP2 MSTORE RETURN JUMPDEST CALLVALUE PUSH2 0x388 JUMPI PUSH2 0x6A2 CALLDATASIZE PUSH2 0x1C94 JUMP JUMPDEST SWAP1 PUSH0 MSTORE PUSH1 0x37 PUSH1 0x20 MSTORE PUSH1 0x40 PUSH0 KECCAK256 DUP1 SLOAD DUP3 LT ISZERO PUSH2 0x388 JUMPI PUSH1 0x20 SWAP2 PUSH2 0x3BB SWAP2 PUSH2 0x1D32 JUMP JUMPDEST CALLVALUE PUSH2 0x388 JUMPI PUSH1 0x20 CALLDATASIZE PUSH1 0x3 NOT ADD SLT PUSH2 0x388 JUMPI PUSH1 0x4 CALLDATALOAD PUSH0 MSTORE PUSH1 0x3C PUSH1 0x20 MSTORE PUSH1 0x40 PUSH0 KECCAK256 DUP1 SLOAD PUSH2 0x544 PUSH1 0x1 DUP4 ADD SLOAD SWAP3 PUSH1 0x2 DUP2 ADD SLOAD SWAP1 PUSH1 0x3 DUP2 ADD SLOAD PUSH1 0x4 DUP3 ADD SLOAD PUSH1 0x5 DUP4 ADD SLOAD SWAP1 PUSH1 0x6 DUP5 ADD SLOAD SWAP3 PUSH1 0xFF PUSH1 0x8 PUSH1 0x7 DUP8 ADD SLOAD SWAP7 ADD SLOAD AND SWAP6 PUSH1 0x40 MLOAD SWAP10 DUP11 SWAP10 DUP11 PUSH2 0x1CAA JUMP JUMPDEST CALLVALUE PUSH2 0x388 JUMPI PUSH1 0x20 CALLDATASIZE PUSH1 0x3 NOT ADD SLT PUSH2 0x388 JUMPI PUSH1 0x4 CALLDATALOAD PUSH1 0xD SLOAD DUP2 LT ISZERO PUSH2 0x388 JUMPI PUSH2 0x3BB PUSH1 0x20 SWAP2 PUSH2 0x1D1A JUMP JUMPDEST CALLVALUE PUSH2 0x388 JUMPI PUSH0 CALLDATASIZE PUSH1 0x3 NOT ADD SLT PUSH2 0x388 JUMPI PUSH1 0x20 PUSH1 0x6 SLOAD PUSH1 0x40 MLOAD SWAP1 DUP2 MSTORE RETURN JUMPDEST CALLVALUE PUSH2 0x388 JUMPI PUSH2 0x777 CALLDATASIZE PUSH2 0x1C94 JUMP JUMPDEST SWAP1 PUSH0 MSTORE PUSH1 0x2F PUSH1 0x20 MSTORE PUSH1 0x40 PUSH0 KECCAK256 SWAP1 PUSH0 MSTORE PUSH1 0x20 MSTORE PUSH1 0x40 DUP1 PUSH0 KECCAK256 PUSH1 0x1 DUP2 SLOAD SWAP2 ADD SLOAD DUP3 MLOAD SWAP2 DUP3 MSTORE PUSH1 0x20 DUP3 ADD MSTORE RETURN JUMPDEST CALLVALUE PUSH2 0x388 JUMPI PUSH2 0x7AF CALLDATASIZE PUSH2 0x1C94 JUMP JUMPDEST SWAP1 PUSH0 MSTORE PUSH1 0x34 PUSH1 0x20 MSTORE PUSH1 0x40 PUSH0 KECCAK256 SWAP1 PUSH0 MSTORE PUSH1 0x20 MSTORE PUSH1 0x20 PUSH1 0xFF PUSH1 0x40 PUSH0 KECCAK256 SLOAD AND PUSH1 0x40 MLOAD SWAP1 ISZERO ISZERO DUP2 MSTORE RETURN JUMPDEST CALLVALUE PUSH2 0x388 JUMPI PUSH1 0x20 CALLDATASIZE PUSH1 0x3 NOT ADD SLT PUSH2 0x388 JUMPI PUSH1 0x4 CALLDATALOAD DUP1 PUSH0 MSTORE PUSH1 0x10 PUSH1 0x20 MSTORE PUSH1 0x40 PUSH0 KECCAK256 PUSH2 0x809 PUSH1 0x1 DUP1 PUSH1 0xA0 SHL SUB DUP3 SLOAD AND CALLER EQ PUSH2 0x1D97 JUMP JUMPDEST PUSH1 0xF DUP2 ADD SWAP1 DUP2 SLOAD SWAP2 PUSH1 0x8 DUP4 LT PUSH2 0x81E DUP2 PUSH2 0x1DD6 JUMP JUMPDEST ISZERO PUSH2 0x44C JUMPI DUP3 PUSH1 0x1F ADD SLOAD DUP4 PUSH1 0x27 ADD SLOAD SWAP1 PUSH1 0x6 DUP5 ADD SLOAD LT ISZERO SWAP1 DUP2 PUSH2 0xA09 JUMPI JUMPDEST POP ISZERO PUSH2 0x9CC JUMPI DUP3 PUSH2 0x9C7 JUMPI JUMPDEST DUP4 PUSH0 MSTORE PUSH1 0x38 PUSH1 0x20 MSTORE PUSH1 0x40 PUSH0 KECCAK256 DUP4 PUSH0 MSTORE PUSH1 0x20 MSTORE PUSH2 0x86B PUSH1 0xFF PUSH1 0x40 PUSH0 KECCAK256 SLOAD AND ISZERO PUSH2 0x1E11 JUMP JUMPDEST PUSH2 0x874 DUP4 PUSH2 0x1CEA JUMP JUMPDEST SWAP1 SLOAD PUSH1 0x1 SLOAD PUSH1 0x40 MLOAD PUSH4 0x23B872DD PUSH1 0xE0 SHL DUP2 MSTORE CALLER PUSH1 0x4 DUP3 ADD MSTORE ADDRESS PUSH1 0x24 DUP3 ADD MSTORE PUSH1 0x3 SWAP4 SWAP1 SWAP4 SHL SWAP2 SWAP1 SWAP2 SHR PUSH1 0x44 DUP4 ADD DUP2 SWAP1 MSTORE SWAP4 SWAP2 SWAP1 PUSH1 0x20 SWAP1 DUP3 SWAP1 PUSH1 0x64 SWAP1 DUP3 SWAP1 PUSH0 SWAP1 PUSH1 0x1 PUSH1 0x1 PUSH1 0xA0 SHL SUB AND GAS CALL DUP1 ISZERO PUSH2 0x9BC JUMPI PUSH2 0x98F JUMPI JUMPDEST POP DUP2 SLOAD PUSH1 0x1 DUP2 ADD DUP1 SWAP2 GT PUSH2 0x97B JUMPI PUSH1 0x10 SWAP3 SSTORE DUP5 PUSH0 MSTORE PUSH1 0x38 PUSH1 0x20 MSTORE PUSH1 0x40 PUSH0 KECCAK256 DUP5 PUSH0 MSTORE PUSH1 0x20 MSTORE PUSH1 0x40 PUSH0 KECCAK256 PUSH1 0x1 PUSH1 0xFF NOT DUP3 SLOAD AND OR SWAP1 SSTORE ADD PUSH2 0x907 DUP3 DUP3 SLOAD PUSH2 0x1EC8 JUMP JUMPDEST SWAP1 SSTORE PUSH2 0x914 DUP2 DUP5 DUP5 PUSH2 0x26D9 JUMP JUMPDEST PUSH2 0x91C PUSH2 0x2C99 JUMP JUMPDEST PUSH2 0x924 PUSH2 0x2E14 JUMP JUMPDEST PUSH2 0x92C PUSH2 0x2F43 JUMP JUMPDEST PUSH1 0x1 DUP3 ADD DUP1 SWAP3 GT PUSH2 0x97B JUMPI PUSH1 0x40 MLOAD SWAP2 DUP3 MSTORE PUSH1 0x20 DUP3 ADD MSTORE PUSH1 0x80 PUSH1 0x40 DUP3 ADD MSTORE PUSH1 0x7 PUSH1 0x80 DUP3 ADD MSTORE PUSH7 0x2137B7B9BA32B9 PUSH1 0xC9 SHL PUSH1 0xA0 DUP3 ADD MSTORE TIMESTAMP PUSH1 0x60 DUP3 ADD MSTORE PUSH0 MLOAD PUSH1 0x20 PUSH2 0x33F1 PUSH0 CODECOPY PUSH0 MLOAD SWAP1 PUSH0 MSTORE PUSH1 0xC0 CALLER SWAP3 LOG3 STOP JUMPDEST PUSH4 0x4E487B71 PUSH1 0xE0 SHL PUSH0 MSTORE PUSH1 0x11 PUSH1 0x4 MSTORE PUSH1 0x24 PUSH0 REVERT JUMPDEST PUSH2 0x9B0 SWAP1 PUSH1 0x20 RETURNDATASIZE PUSH1 0x20 GT PUSH2 0x9B5 JUMPI JUMPDEST PUSH2 0x9A8 DUP2 DUP4 PUSH2 0x1E8E JUMP JUMPDEST DUP2 ADD SWAP1 PUSH2 0x1EB0 JUMP JUMPDEST PUSH2 0x8C8 JUMP JUMPDEST POP RETURNDATASIZE PUSH2 0x99E JUMP JUMPDEST PUSH1 0x40 MLOAD RETURNDATASIZE PUSH0 DUP3 RETURNDATACOPY RETURNDATASIZE SWAP1 REVERT JUMPDEST PUSH2 0x848 JUMP JUMPDEST PUSH1 0x40 MLOAD PUSH3 0x461BCD PUSH1 0xE5 SHL DUP2 MSTORE PUSH1 0x20 PUSH1 0x4 DUP3 ADD MSTORE PUSH1 0x15 PUSH1 0x24 DUP3 ADD MSTORE PUSH21 0x155C19DC9859194814DB1BDD08185B9908141BDBDB PUSH1 0x5A SHL PUSH1 0x44 DUP3 ADD MSTORE PUSH1 0x64 SWAP1 REVERT JUMPDEST SWAP1 POP PUSH1 0xC DUP4 ADD SLOAD LT ISZERO DUP6 PUSH2 0x83C JUMP JUMPDEST CALLVALUE PUSH2 0x388 JUMPI PUSH1 0x20 CALLDATASIZE PUSH1 0x3 NOT ADD SLT PUSH2 0x388 JUMPI PUSH1 0x4 CALLDATALOAD PUSH1 0x16 SLOAD DUP2 LT ISZERO PUSH2 0x388 JUMPI PUSH2 0x3BB PUSH1 0x20 SWAP2 PUSH2 0x1D02 JUMP JUMPDEST CALLVALUE PUSH2 0x388 JUMPI PUSH0 CALLDATASIZE PUSH1 0x3 NOT ADD SLT PUSH2 0x388 JUMPI PUSH1 0x20 PUSH1 0x40 MLOAD PUSH3 0x83D600 DUP2 MSTORE RETURN JUMPDEST CALLVALUE PUSH2 0x388 JUMPI PUSH0 CALLDATASIZE PUSH1 0x3 NOT ADD SLT PUSH2 0x388 JUMPI PUSH1 0x20 PUSH1 0x42 SLOAD PUSH1 0x40 MLOAD SWAP1 DUP2 MSTORE RETURN JUMPDEST CALLVALUE PUSH2 0x388 JUMPI PUSH2 0xA89 CALLDATASIZE PUSH2 0x1C94 JUMP JUMPDEST SWAP1 PUSH0 MSTORE PUSH1 0x38 PUSH1 0x20 MSTORE PUSH1 0x40 PUSH0 KECCAK256 SWAP1 PUSH0 MSTORE PUSH1 0x20 MSTORE PUSH1 0x20 PUSH1 0xFF PUSH1 0x40 PUSH0 KECCAK256 SLOAD AND PUSH1 0x40 MLOAD SWAP1 ISZERO ISZERO DUP2 MSTORE RETURN JUMPDEST CALLVALUE PUSH2 0x388 JUMPI PUSH0 CALLDATASIZE PUSH1 0x3 NOT ADD SLT PUSH2 0x388 JUMPI PUSH1 0x20 PUSH1 0x48 SLOAD PUSH1 0x40 MLOAD SWAP1 DUP2 MSTORE RETURN JUMPDEST CALLVALUE PUSH2 0x388 JUMPI PUSH1 0x20 CALLDATASIZE PUSH1 0x3 NOT ADD SLT PUSH2 0x388 JUMPI PUSH1 0x4 CALLDATALOAD PUSH1 0x8 DUP2 LT ISZERO PUSH2 0x388 JUMPI PUSH1 0x20 SWAP1 PUSH1 0x27 ADD SLOAD PUSH1 0x40 MLOAD SWAP1 DUP2 MSTORE RETURN JUMPDEST CALLVALUE PUSH2 0x388 JUMPI PUSH2 0xB06 CALLDATASIZE PUSH2 0x1C94 JUMP JUMPDEST SWAP1 PUSH0 MSTORE PUSH1 0x35 PUSH1 0x20 MSTORE PUSH1 0x40 PUSH0 KECCAK256 SWAP1 PUSH0 MSTORE PUSH1 0x20 MSTORE PUSH1 0x40 PUSH0 KECCAK256 DUP1 SLOAD PUSH2 0x544 PUSH1 0x1 DUP4 ADD SLOAD SWAP3 PUSH1 0x2 DUP2 ADD SLOAD SWAP1 PUSH1 0x4 PUSH1 0x3 DUP3 ADD SLOAD SWAP2 ADD SLOAD SWAP2 PUSH1 0x40 MLOAD SWAP6 DUP7 SWAP6 DUP7 SWAP2 SWAP3 PUSH1 0x80 SWAP4 SWAP7 SWAP6 SWAP5 SWAP2 SWAP7 PUSH1 0xA0 DUP5 ADD SWAP8 DUP5 MSTORE PUSH1 0x20 DUP5 ADD MSTORE PUSH1 0x40 DUP4 ADD MSTORE PUSH1 0x60 DUP3 ADD MSTORE ADD MSTORE JUMP JUMPDEST CALLVALUE PUSH2 0x388 JUMPI PUSH2 0xB71 CALLDATASIZE PUSH2 0x1D47 JUMP JUMPDEST SWAP2 PUSH0 MSTORE PUSH1 0x31 PUSH1 0x20 MSTORE PUSH1 0x40 PUSH0 KECCAK256 SWAP1 PUSH0 MSTORE PUSH1 0x20 MSTORE PUSH1 0x40 PUSH0 KECCAK256 DUP1 SLOAD DUP3 LT ISZERO PUSH2 0x388 JUMPI PUSH1 0x20 SWAP2 PUSH2 0x3BB SWAP2 PUSH2 0x1D32 JUMP JUMPDEST CALLVALUE PUSH2 0x388 JUMPI PUSH1 0x40 CALLDATASIZE PUSH1 0x3 NOT ADD SLT PUSH2 0x388 JUMPI PUSH1 0x4 CALLDATALOAD PUSH4 0xFFFFFFFF DUP2 AND DUP1 SWAP2 SUB PUSH2 0x388 JUMPI PUSH1 0x24 CALLDATALOAD DUP2 PUSH0 MSTORE PUSH1 0x10 PUSH1 0x20 MSTORE PUSH1 0x40 PUSH0 KECCAK256 PUSH2 0xBE1 PUSH1 0x1 DUP1 PUSH1 0xA0 SHL SUB DUP3 SLOAD AND CALLER EQ PUSH2 0x1D97 JUMP JUMPDEST PUSH1 0xC DUP2 ADD SWAP1 PUSH2 0xBF3 PUSH1 0x7 DUP4 SLOAD LT PUSH2 0x2033 JUMP JUMPDEST PUSH1 0x1 DUP4 ADD SWAP3 DUP4 DUP2 GT PUSH2 0x97B JUMPI PUSH1 0x16 SLOAD DUP5 LT ISZERO PUSH2 0xDAF JUMPI PUSH2 0xC12 DUP5 PUSH2 0x1D02 JUMP JUMPDEST SWAP1 SLOAD SWAP1 PUSH1 0x3 SHL SHR SWAP3 DUP2 PUSH0 MSTORE PUSH1 0x2F PUSH1 0x20 MSTORE PUSH1 0x40 PUSH0 KECCAK256 DUP7 PUSH0 MSTORE PUSH1 0x20 MSTORE PUSH1 0x40 PUSH0 KECCAK256 DUP1 SLOAD DUP6 DUP2 LT PUSH2 0xD6A JUMPI DUP8 PUSH0 MSTORE PUSH1 0x34 PUSH1 0x20 MSTORE PUSH1 0x40 PUSH0 KECCAK256 DUP8 PUSH0 MSTORE PUSH1 0x20 MSTORE PUSH1 0xFF PUSH1 0x40 PUSH0 KECCAK256 SLOAD AND PUSH2 0xD25 JUMPI DUP6 PUSH2 0xC61 SWAP2 PUSH2 0x206D JUMP JUMPDEST SWAP1 SSTORE DUP1 SLOAD SWAP3 PUSH1 0x1 DUP5 ADD DUP1 SWAP5 GT PUSH2 0x97B JUMPI PUSH1 0x2 SWAP4 PUSH1 0xD SWAP3 SSTORE ADD PUSH2 0xC84 DUP5 DUP3 SLOAD PUSH2 0x1EC8 JUMP JUMPDEST SWAP1 SSTORE DUP5 PUSH0 MSTORE PUSH1 0x34 PUSH1 0x20 MSTORE PUSH1 0x40 PUSH0 KECCAK256 DUP5 PUSH0 MSTORE PUSH1 0x20 MSTORE PUSH1 0x40 PUSH0 KECCAK256 PUSH1 0x1 PUSH1 0xFF NOT DUP3 SLOAD AND OR SWAP1 SSTORE PUSH2 0xCB2 DUP4 DUP7 DUP7 PUSH2 0x2141 JUMP JUMPDEST PUSH2 0xCBA PUSH2 0x2C99 JUMP JUMPDEST PUSH2 0xCC2 PUSH2 0x2E14 JUMP JUMPDEST PUSH2 0xCCA PUSH2 0x2F43 JUMP JUMPDEST ADD DUP1 SWAP3 GT PUSH2 0x97B JUMPI PUSH1 0x40 MLOAD SWAP2 DUP3 MSTORE PUSH1 0x20 DUP3 ADD MSTORE PUSH1 0x80 PUSH1 0x40 DUP3 ADD MSTORE PUSH1 0x16 PUSH1 0x80 DUP3 ADD MSTORE PUSH22 0x506F6F6C205570677261646520284561726E696E6729 PUSH1 0x50 SHL PUSH1 0xA0 DUP3 ADD MSTORE TIMESTAMP PUSH1 0x60 DUP3 ADD MSTORE PUSH0 MLOAD PUSH1 0x20 PUSH2 0x33F1 PUSH0 CODECOPY PUSH0 MLOAD SWAP1 PUSH0 MSTORE PUSH1 0xC0 CALLER SWAP3 LOG3 STOP JUMPDEST PUSH1 0x40 MLOAD PUSH3 0x461BCD PUSH1 0xE5 SHL DUP2 MSTORE PUSH1 0x20 PUSH1 0x4 DUP3 ADD MSTORE PUSH1 0x1B PUSH1 0x24 DUP3 ADD MSTORE PUSH32 0x416C726561647920707572636861736564206E65787420706F6F6C0000000000 PUSH1 0x44 DUP3 ADD MSTORE PUSH1 0x64 SWAP1 REVERT JUMPDEST PUSH1 0x40 MLOAD PUSH3 0x461BCD PUSH1 0xE5 SHL DUP2 MSTORE PUSH1 0x20 PUSH1 0x4 DUP3 ADD MSTORE PUSH1 0x1C PUSH1 0x24 DUP3 ADD MSTORE PUSH32 0x4E6F7420656E6F756768206E65787420706F6F6C2062616C616E636500000000 PUSH1 0x44 DUP3 ADD MSTORE PUSH1 0x64 SWAP1 REVERT JUMPDEST PUSH1 0x40 MLOAD PUSH3 0x461BCD PUSH1 0xE5 SHL DUP2 MSTORE PUSH1 0x20 PUSH1 0x4 DUP3 ADD MSTORE PUSH1 0xE PUSH1 0x24 DUP3 ADD MSTORE PUSH14 0x139BC81A1A59DA195C881C1BDBDB PUSH1 0x92 SHL PUSH1 0x44 DUP3 ADD MSTORE PUSH1 0x64 SWAP1 REVERT JUMPDEST CALLVALUE PUSH2 0x388 JUMPI PUSH2 0xDF3 CALLDATASIZE PUSH2 0x1D47 JUMP JUMPDEST SWAP2 PUSH0 MSTORE PUSH1 0x32 PUSH1 0x20 MSTORE PUSH1 0x40 PUSH0 KECCAK256 SWAP1 PUSH0 MSTORE PUSH1 0x20 MSTORE PUSH1 0x40 PUSH0 KECCAK256 DUP1 SLOAD DUP3 LT ISZERO PUSH2 0x388 JUMPI PUSH1 0x20 SWAP2 PUSH2 0x3BB SWAP2 PUSH2 0x1D32 JUMP JUMPDEST CALLVALUE PUSH2 0x388 JUMPI PUSH2 0xE2C CALLDATASIZE PUSH2 0x1C94 JUMP JUMPDEST SWAP1 PUSH0 MSTORE PUSH1 0xB PUSH1 0x20 MSTORE PUSH1 0x40 PUSH0 KECCAK256 SWAP1 PUSH0 MSTORE PUSH1 0x20 MSTORE PUSH1 0x20 PUSH1 0x40 PUSH0 KECCAK256 SLOAD PUSH1 0x40 MLOAD SWAP1 DUP2 MSTORE RETURN JUMPDEST CALLVALUE PUSH2 0x388 JUMPI PUSH1 0x20 CALLDATASIZE PUSH1 0x3 NOT ADD SLT PUSH2 0x388 JUMPI PUSH1 0x4 CALLDATALOAD PUSH0 MSTORE PUSH1 0x14 PUSH1 0x20 MSTORE PUSH1 0x20 PUSH1 0x40 PUSH0 KECCAK256 SLOAD PUSH1 0x40 MLOAD SWAP1 DUP2 MSTORE RETURN JUMPDEST CALLVALUE PUSH2 0x388 JUMPI PUSH0 CALLDATASIZE PUSH1 0x3 NOT ADD SLT PUSH2 0x388 JUMPI PUSH1 0x2 SLOAD PUSH1 0x40 MLOAD PUSH1 0x1 PUSH1 0x1 PUSH1 0xA0 SHL SUB SWAP1 SWAP2 AND DUP2 MSTORE PUSH1 0x20 SWAP1 RETURN JUMPDEST CALLVALUE PUSH2 0x388 JUMPI PUSH0 CALLDATASIZE PUSH1 0x3 NOT ADD SLT PUSH2 0x388 JUMPI PUSH1 0x20 PUSH1 0x9 SLOAD PUSH1 0x40 MLOAD SWAP1 DUP2 MSTORE RETURN JUMPDEST CALLVALUE PUSH2 0x388 JUMPI PUSH2 0xECA CALLDATASIZE PUSH2 0x1C94 JUMP JUMPDEST DUP2 PUSH0 MSTORE PUSH1 0x10 PUSH1 0x20 MSTORE PUSH1 0x40 PUSH0 KECCAK256 PUSH2 0xEEA PUSH1 0x1 DUP1 PUSH1 0xA0 SHL SUB DUP3 SLOAD AND CALLER EQ PUSH2 0x1D97 JUMP JUMPDEST PUSH2 0xEFA PUSH1 0x7 PUSH1 0xC DUP4 ADD SLOAD LT PUSH2 0x2033 JUMP JUMPDEST PUSH2 0xF03 DUP3 PUSH2 0x1D02 JUMP JUMPDEST SWAP1 SLOAD SWAP1 PUSH1 0x3 SHL SHR SWAP1 DUP3 PUSH0 MSTORE PUSH1 0x2F PUSH1 0x20 MSTORE PUSH1 0x40 PUSH0 KECCAK256 DUP5 PUSH0 MSTORE PUSH1 0x20 MSTORE PUSH1 0x1 PUSH1 0x40 PUSH0 KECCAK256 ADD SWAP1 DUP2 SLOAD SWAP2 DUP4 DUP4 LT PUSH2 0x1035 JUMPI PUSH2 0xF3B DUP5 PUSH1 0x1 SWAP5 PUSH2 0x206D JUMP JUMPDEST SWAP1 SSTORE PUSH1 0xD DUP2 ADD PUSH2 0xF4C DUP5 DUP3 SLOAD PUSH2 0x1EC8 JUMP JUMPDEST SWAP1 SSTORE PUSH2 0xF59 DUP4 DUP7 DUP7 PUSH2 0x2141 JUMP JUMPDEST ADD PUSH1 0x40 MLOAD SWAP1 PUSH2 0xF67 DUP3 PUSH2 0x1E56 JUMP JUMPDEST DUP3 DUP3 MSTORE PUSH1 0x20 DUP3 ADD SWAP1 PUSH0 DUP3 MSTORE PUSH1 0x40 DUP4 ADD SWAP3 TIMESTAMP DUP5 MSTORE PUSH1 0x60 DUP2 ADD SWAP4 PUSH1 0xA DUP6 MSTORE DUP3 SLOAD SWAP4 PUSH1 0x1 PUSH1 0x40 SHL DUP6 LT ISZERO PUSH2 0x1021 JUMPI PUSH1 0x1 DUP6 ADD DUP1 DUP6 SSTORE DUP6 LT ISZERO PUSH2 0x44C JUMPI PUSH1 0xFF SWAP5 PUSH1 0x3 SWAP5 PUSH0 MSTORE PUSH1 0x20 PUSH0 KECCAK256 SWAP1 PUSH1 0x2 SHL ADD SWAP3 MLOAD DUP4 SSTORE MLOAD PUSH1 0x1 DUP4 ADD SSTORE MLOAD PUSH1 0x2 DUP3 ADD SSTORE ADD SWAP2 MLOAD AND PUSH1 0xFF NOT DUP3 SLOAD AND OR SWAP1 SSTORE PUSH1 0x40 MLOAD SWAP2 DUP3 MSTORE PUSH1 0x20 DUP3 ADD MSTORE PUSH1 0x80 PUSH1 0x40 DUP3 ADD MSTORE PUSH1 0x16 PUSH1 0x80 DUP3 ADD MSTORE PUSH22 0x506F6F6C205265546F70757020284561726E696E6729 PUSH1 0x50 SHL PUSH1 0xA0 DUP3 ADD MSTORE TIMESTAMP PUSH1 0x60 DUP3 ADD MSTORE PUSH0 MLOAD PUSH1 0x20 PUSH2 0x33F1 PUSH0 CODECOPY PUSH0 MLOAD SWAP1 PUSH0 MSTORE PUSH1 0xC0 CALLER SWAP3 LOG3 STOP JUMPDEST PUSH4 0x4E487B71 PUSH1 0xE0 SHL PUSH0 MSTORE PUSH1 0x41 PUSH1 0x4 MSTORE PUSH1 0x24 PUSH0 REVERT JUMPDEST PUSH1 0x40 MLOAD PUSH3 0x461BCD PUSH1 0xE5 SHL DUP2 MSTORE PUSH1 0x20 PUSH1 0x4 DUP3 ADD MSTORE PUSH1 0x1A PUSH1 0x24 DUP3 ADD MSTORE PUSH32 0x4E6F7420656E6F756768207265546F7075702062616C616E6365000000000000 PUSH1 0x44 DUP3 ADD MSTORE PUSH1 0x64 SWAP1 REVERT JUMPDEST CALLVALUE PUSH2 0x388 JUMPI PUSH0 CALLDATASIZE PUSH1 0x3 NOT ADD SLT PUSH2 0x388 JUMPI PUSH1 0x20 PUSH1 0x40 MLOAD PUSH3 0x93A80 DUP2 MSTORE RETURN JUMPDEST CALLVALUE PUSH2 0x388 JUMPI PUSH2 0x10A5 CALLDATASIZE PUSH2 0x1C94 JUMP JUMPDEST SWAP1 PUSH0 MSTORE PUSH1 0x12 PUSH1 0x20 MSTORE PUSH1 0x40 PUSH0 KECCAK256 DUP1 SLOAD DUP3 LT ISZERO PUSH2 0x388 JUMPI PUSH0 MSTORE PUSH1 0x5 PUSH1 0x20 PUSH0 KECCAK256 SWAP2 MUL ADD DUP1 SLOAD PUSH2 0x544 PUSH1 0x1 DUP4 ADD SLOAD SWAP3 PUSH1 0x2 DUP2 ADD SLOAD SWAP1 PUSH1 0x4 PUSH1 0x3 DUP3 ADD SLOAD SWAP2 ADD SLOAD SWAP2 PUSH1 0x40 MLOAD SWAP6 DUP7 SWAP6 DUP7 SWAP2 SWAP3 PUSH1 0x80 SWAP4 SWAP7 SWAP6 SWAP5 SWAP2 SWAP7 PUSH1 0xA0 DUP5 ADD SWAP8 DUP5 MSTORE PUSH1 0x20 DUP5 ADD MSTORE PUSH1 0x40 DUP4 ADD MSTORE PUSH1 0x60 DUP3 ADD MSTORE ADD MSTORE JUMP JUMPDEST CALLVALUE PUSH2 0x388 JUMPI PUSH0 CALLDATASIZE PUSH1 0x3 NOT ADD SLT PUSH2 0x388 JUMPI PUSH1 0x20 PUSH1 0x40 MLOAD PUSH4 0x2514300 DUP2 MSTORE RETURN JUMPDEST CALLVALUE PUSH2 0x388 JUMPI PUSH1 0x20 CALLDATASIZE PUSH1 0x3 NOT ADD SLT PUSH2 0x388 JUMPI PUSH1 0x4 CALLDATALOAD PUSH0 MSTORE PUSH1 0x43 PUSH1 0x20 MSTORE PUSH1 0x40 PUSH0 KECCAK256 DUP1 SLOAD PUSH2 0x544 PUSH1 0x1 DUP4 ADD SLOAD SWAP3 PUSH1 0x2 DUP2 ADD SLOAD SWAP1 PUSH1 0x3 DUP2 ADD SLOAD PUSH1 0x4 DUP3 ADD SLOAD PUSH1 0x5 DUP4 ADD SLOAD SWAP1 PUSH1 0x6 DUP5 ADD SLOAD SWAP3 PUSH1 0xFF PUSH1 0x8 PUSH1 0x7 DUP8 ADD SLOAD SWAP7 ADD SLOAD AND SWAP6 PUSH1 0x40 MLOAD SWAP10 DUP11 SWAP10 DUP11 PUSH2 0x1CAA JUMP JUMPDEST CALLVALUE PUSH2 0x388 JUMPI PUSH1 0x20 CALLDATASIZE PUSH1 0x3 NOT ADD SLT PUSH2 0x388 JUMPI PUSH1 0x60 PUSH2 0x11A8 PUSH1 0x4 CALLDATALOAD PUSH2 0x1ED5 JUMP JUMPDEST SWAP2 SWAP1 PUSH1 0x20 PUSH1 0x40 MLOAD SWAP4 DUP5 SWAP3 ISZERO ISZERO DUP4 MSTORE PUSH1 0x40 DUP3 DUP5 ADD MSTORE DUP1 MLOAD SWAP2 DUP3 SWAP2 DUP3 PUSH1 0x40 DUP7 ADD MSTORE ADD DUP5 DUP5 ADD MCOPY PUSH0 DUP3 DUP3 ADD DUP5 ADD MSTORE PUSH1 0x1F ADD PUSH1 0x1F NOT AND DUP2 ADD SUB ADD SWAP1 RETURN JUMPDEST CALLVALUE PUSH2 0x388 JUMPI PUSH2 0x11EF CALLDATASIZE PUSH2 0x1C94 JUMP JUMPDEST SWAP1 PUSH0 MSTORE PUSH1 0x15 PUSH1 0x20 MSTORE PUSH1 0x40 PUSH0 KECCAK256 DUP1 SLOAD DUP3 LT ISZERO PUSH2 0x388 JUMPI PUSH1 0x20 SWAP2 PUSH2 0x3BB SWAP2 PUSH2 0x1D32 JUMP JUMPDEST CALLVALUE PUSH2 0x388 JUMPI PUSH0 CALLDATASIZE PUSH1 0x3 NOT ADD SLT PUSH2 0x388 JUMPI PUSH1 0x20 PUSH1 0x49 SLOAD PUSH1 0x40 MLOAD SWAP1 DUP2 MSTORE RETURN JUMPDEST CALLVALUE PUSH2 0x388 JUMPI PUSH2 0x123B CALLDATASIZE PUSH2 0x1C94 JUMP JUMPDEST PUSH0 SWAP2 DUP3 MSTORE PUSH1 0xE PUSH1 0x20 SWAP1 DUP2 MSTORE PUSH1 0x40 DUP1 DUP5 KECCAK256 SWAP3 DUP5 MSTORE SWAP2 DUP2 MSTORE SWAP2 DUP2 SWAP1 KECCAK256 DUP1 SLOAD PUSH1 0x1 DUP3 ADD SLOAD PUSH1 0x2 DUP4 ADD SLOAD PUSH1 0x3 SWAP1 SWAP4 ADD SLOAD DUP5 MLOAD SWAP3 DUP4 MSTORE SWAP5 DUP3 ADD MSTORE SWAP2 DUP3 ADD MSTORE PUSH1 0xFF DUP1 DUP4 AND ISZERO ISZERO PUSH1 0x60 DUP4 ADD MSTORE PUSH1 0x8 SWAP3 SWAP1 SWAP3 SHR SWAP1 SWAP2 AND ISZERO ISZERO PUSH1 0x80 DUP3 ADD MSTORE PUSH1 0xA0 SWAP1 RETURN JUMPDEST CALLVALUE PUSH2 0x388 JUMPI PUSH2 0x12A3 CALLDATASIZE PUSH2 0x1D47 JUMP JUMPDEST SWAP2 PUSH0 MSTORE PUSH1 0x13 PUSH1 0x20 MSTORE PUSH1 0x40 PUSH0 KECCAK256 SWAP1 PUSH0 MSTORE PUSH1 0x20 MSTORE PUSH1 0x40 PUSH0 KECCAK256 DUP1 SLOAD DUP3 LT ISZERO PUSH2 0x388 JUMPI PUSH1 0x20 SWAP2 PUSH2 0x3BB SWAP2 PUSH2 0x1D32 JUMP JUMPDEST PUSH2 0x1D61 JUMP JUMPDEST CALLVALUE PUSH2 0x388 JUMPI PUSH2 0x12E1 CALLDATASIZE PUSH2 0x1D47 JUMP JUMPDEST SWAP2 PUSH0 MSTORE PUSH1 0x3F PUSH1 0x20 MSTORE PUSH1 0x40 PUSH0 KECCAK256 SWAP1 PUSH0 MSTORE PUSH1 0x20 MSTORE PUSH1 0x40 PUSH0 KECCAK256 DUP1 SLOAD DUP3 LT ISZERO PUSH2 0x388 JUMPI PUSH1 0x20 SWAP2 PUSH2 0x3BB SWAP2 PUSH2 0x1D32 JUMP JUMPDEST CALLVALUE PUSH2 0x388 JUMPI PUSH2 0x131A CALLDATASIZE PUSH2 0x1C94 JUMP JUMPDEST SWAP1 PUSH0 MSTORE PUSH1 0x4D PUSH1 0x20 MSTORE PUSH1 0x40 PUSH0 KECCAK256 DUP1 SLOAD DUP3 LT ISZERO PUSH2 0x388 JUMPI PUSH1 0x20 SWAP2 PUSH2 0x3BB SWAP2 PUSH2 0x1D32 JUMP JUMPDEST CALLVALUE PUSH2 0x388 JUMPI PUSH0 CALLDATASIZE PUSH1 0x3 NOT ADD SLT PUSH2 0x388 JUMPI PUSH1 0x20 PUSH1 0x47 SLOAD PUSH1 0x40 MLOAD SWAP1 DUP2 MSTORE RETURN JUMPDEST CALLVALUE PUSH2 0x388 JUMPI PUSH1 0x20 CALLDATASIZE PUSH1 0x3 NOT ADD SLT PUSH2 0x388 JUMPI PUSH1 0x4 CALLDATALOAD PUSH0 MSTORE PUSH1 0x11 PUSH1 0x20 MSTORE PUSH2 0x180 PUSH1 0x40 PUSH0 KECCAK256 DUP1 SLOAD SWAP1 PUSH1 0x1 DUP2 ADD SLOAD SWAP1 PUSH1 0x2 DUP2 ADD SLOAD PUSH1 0x3 DUP3 ADD SLOAD PUSH1 0x4 DUP4 ADD SLOAD PUSH1 0x5 DUP5 ADD SLOAD PUSH1 0x6 DUP6 ADD SLOAD SWAP1 PUSH1 0x7 DUP7 ADD SLOAD SWAP3 PUSH1 0x8 DUP8 ADD SLOAD SWAP5 PUSH1 0x9 DUP9 ADD SLOAD SWAP7 PUSH1 0xB PUSH1 0xA DUP11 ADD SLOAD SWAP10 ADD SLOAD SWAP10 PUSH1 0x40 MLOAD SWAP12 DUP13 MSTORE PUSH1 0x20 DUP13 ADD MSTORE PUSH1 0x40 DUP12 ADD MSTORE PUSH1 0x60 DUP11 ADD MSTORE PUSH1 0x80 DUP10 ADD MSTORE PUSH1 0xA0 DUP9 ADD MSTORE PUSH1 0xC0 DUP8 ADD MSTORE PUSH1 0xE0 DUP7 ADD MSTORE PUSH2 0x100 DUP6 ADD MSTORE PUSH2 0x120 DUP5 ADD MSTORE PUSH2 0x140 DUP4 ADD MSTORE PUSH2 0x160 DUP3 ADD MSTORE RETURN JUMPDEST CALLVALUE PUSH2 0x388 JUMPI PUSH1 0x20 CALLDATASIZE PUSH1 0x3 NOT ADD SLT PUSH2 0x388 JUMPI PUSH1 0x4 CALLDATALOAD PUSH0 MSTORE PUSH1 0xA PUSH1 0x20 MSTORE PUSH1 0x20 PUSH1 0x40 PUSH0 KECCAK256 SLOAD PUSH1 0x40 MLOAD SWAP1 DUP2 MSTORE RETURN JUMPDEST CALLVALUE PUSH2 0x388 JUMPI PUSH1 0x20 CALLDATASIZE PUSH1 0x3 NOT ADD SLT PUSH2 0x388 JUMPI PUSH1 0x4 CALLDATALOAD DUP1 PUSH0 MSTORE PUSH1 0x10 PUSH1 0x20 MSTORE PUSH1 0x40 PUSH0 KECCAK256 PUSH2 0x145B PUSH1 0x1 DUP1 PUSH1 0xA0 SHL SUB DUP3 SLOAD AND CALLER EQ PUSH2 0x1D97 JUMP JUMPDEST PUSH1 0xC DUP2 ADD SWAP1 DUP2 SLOAD SWAP2 PUSH1 0x7 DUP4 LT PUSH2 0x1470 DUP2 PUSH2 0x1DD6 JUMP JUMPDEST ISZERO PUSH2 0x44C JUMPI DUP3 PUSH1 0x18 ADD SLOAD PUSH1 0x6 DUP4 ADD SLOAD LT PUSH2 0x16AA JUMPI DUP3 ISZERO SWAP2 DUP3 ISZERO PUSH2 0x16A5 JUMPI JUMPDEST DUP5 PUSH0 MSTORE PUSH1 0x34 PUSH1 0x20 MSTORE PUSH1 0x40 PUSH0 KECCAK256 DUP5 PUSH0 MSTORE PUSH1 0x20 MSTORE PUSH2 0x14B1 PUSH1 0xFF PUSH1 0x40 PUSH0 KECCAK256 SLOAD AND ISZERO PUSH2 0x1E11 JUMP JUMPDEST PUSH2 0x14BA DUP5 PUSH2 0x1D02 JUMP JUMPDEST SWAP1 SLOAD PUSH1 0x1 SLOAD PUSH1 0x40 MLOAD PUSH4 0x23B872DD PUSH1 0xE0 SHL DUP2 MSTORE CALLER PUSH1 0x4 DUP3 ADD MSTORE ADDRESS PUSH1 0x24 DUP3 ADD MSTORE PUSH1 0x3 SWAP4 SWAP1 SWAP4 SHL SWAP2 SWAP1 SWAP2 SHR PUSH1 0x44 DUP4 ADD DUP2 SWAP1 MSTORE SWAP5 SWAP2 SWAP1 PUSH1 0x20 SWAP1 DUP3 SWAP1 PUSH1 0x64 SWAP1 DUP3 SWAP1 PUSH0 SWAP1 PUSH1 0x1 PUSH1 0x1 PUSH1 0xA0 SHL SUB AND GAS CALL DUP1 ISZERO PUSH2 0x9BC JUMPI PUSH2 0x1688 JUMPI JUMPDEST POP PUSH2 0x1615 JUMPI JUMPDEST PUSH1 0x1 PUSH1 0x8 DUP3 ADD SLOAD GT DUP1 PUSH2 0x15F6 JUMPI JUMPDEST DUP1 PUSH2 0x15E8 JUMPI JUMPDEST PUSH2 0x15DC JUMPI JUMPDEST DUP2 SLOAD PUSH1 0x1 DUP2 ADD DUP1 SWAP2 GT PUSH2 0x97B JUMPI PUSH1 0xD SWAP3 SSTORE DUP5 PUSH0 MSTORE PUSH1 0x34 PUSH1 0x20 MSTORE PUSH1 0x40 PUSH0 KECCAK256 DUP5 PUSH0 MSTORE PUSH1 0x20 MSTORE PUSH1 0x40 PUSH0 KECCAK256 PUSH1 0x1 PUSH1 0xFF NOT DUP3 SLOAD AND OR SWAP1 SSTORE ADD PUSH2 0x156B DUP3 DUP3 SLOAD PUSH2 0x1EC8 JUMP JUMPDEST SWAP1 SSTORE PUSH2 0x1578 DUP2 DUP5 DUP5 PUSH2 0x2141 JUMP JUMPDEST PUSH2 0x1580 PUSH2 0x2C99 JUMP JUMPDEST PUSH2 0x1588 PUSH2 0x2E14 JUMP JUMPDEST PUSH2 0x1590 PUSH2 0x2F43 JUMP JUMPDEST PUSH1 0x1 DUP3 ADD DUP1 SWAP3 GT PUSH2 0x97B JUMPI PUSH1 0x40 MLOAD SWAP2 DUP3 MSTORE PUSH1 0x20 DUP3 ADD MSTORE PUSH1 0x80 PUSH1 0x40 DUP3 ADD MSTORE PUSH1 0x4 PUSH1 0x80 DUP3 ADD MSTORE PUSH4 0x141BDBDB PUSH1 0xE2 SHL PUSH1 0xA0 DUP3 ADD MSTORE TIMESTAMP PUSH1 0x60 DUP3 ADD MSTORE PUSH0 MLOAD PUSH1 0x20 PUSH2 0x33F1 PUSH0 CODECOPY PUSH0 MLOAD SWAP1 PUSH0 MSTORE PUSH1 0xC0 CALLER SWAP3 LOG3 STOP JUMPDEST PUSH1 0x14 PUSH1 0xB DUP3 ADD SSTORE PUSH2 0x152D JUMP JUMPDEST POP PUSH1 0xF PUSH1 0xB DUP3 ADD SLOAD EQ PUSH2 0x1528 JUMP JUMPDEST POP PUSH1 0x11 DUP2 ADD SLOAD PUSH3 0x2A300 DUP2 ADD DUP1 SWAP2 GT PUSH2 0x97B JUMPI PUSH1 0xE DUP3 ADD SLOAD GT ISZERO PUSH2 0x1522 JUMP JUMPDEST TIMESTAMP PUSH1 0xE DUP3 ADD SSTORE PUSH1 0x4 DUP2 ADD SLOAD PUSH0 MSTORE PUSH1 0x10 PUSH1 0x20 MSTORE PUSH1 0x40 PUSH0 KECCAK256 PUSH1 0x11 DUP2 ADD SLOAD PUSH3 0x2A300 DUP2 ADD DUP1 SWAP2 GT PUSH2 0x97B JUMPI TIMESTAMP LT ISZERO DUP1 PUSH2 0x167A JUMPI JUMPDEST PUSH2 0x1651 JUMPI JUMPDEST POP PUSH2 0x1514 JUMP JUMPDEST PUSH1 0x8 DUP2 ADD DUP1 SLOAD PUSH1 0x1 DUP2 ADD DUP1 SWAP2 GT PUSH2 0x97B JUMPI DUP1 PUSH1 0x1 SWAP3 SSTORE GT ISZERO PUSH2 0x164B JUMPI PUSH1 0xB PUSH1 0x14 SWAP2 ADD SSTORE DUP6 PUSH2 0x164B JUMP JUMPDEST POP PUSH1 0xF PUSH1 0xB DUP3 ADD SLOAD EQ PUSH2 0x1646 JUMP JUMPDEST PUSH2 0x16A0 SWAP1 PUSH1 0x20 RETURNDATASIZE PUSH1 0x20 GT PUSH2 0x9B5 JUMPI PUSH2 0x9A8 DUP2 DUP4 PUSH2 0x1E8E JUMP JUMPDEST PUSH2 0x150E JUMP JUMPDEST PUSH2 0x148E JUMP JUMPDEST PUSH1 0x40 MLOAD PUSH3 0x461BCD PUSH1 0xE5 SHL DUP2 MSTORE PUSH1 0x20 PUSH1 0x4 DUP3 ADD MSTORE PUSH1 0x18 PUSH1 0x24 DUP3 ADD MSTORE PUSH32 0x5570677261646520796F7572206C6576656C2066697273740000000000000000 PUSH1 0x44 DUP3 ADD MSTORE PUSH1 0x64 SWAP1 REVERT JUMPDEST CALLVALUE PUSH2 0x388 JUMPI PUSH1 0x20 CALLDATASIZE PUSH1 0x3 NOT ADD SLT PUSH2 0x388 JUMPI PUSH1 0x4 CALLDATALOAD PUSH0 MSTORE PUSH1 0x45 PUSH1 0x20 MSTORE PUSH1 0x40 PUSH0 KECCAK256 DUP1 SLOAD PUSH2 0x544 PUSH1 0x1 DUP4 ADD SLOAD SWAP3 PUSH1 0xFF PUSH1 0x4 PUSH1 0x2 DUP4 ADD SLOAD SWAP3 ADD SLOAD AND SWAP1 PUSH1 0x40 MLOAD SWAP5 DUP6 SWAP5 DUP6 SWAP3 PUSH1 0x60 SWAP3 SWAP6 SWAP5 SWAP2 SWAP6 PUSH1 0x80 DUP6 ADD SWAP7 DUP6 MSTORE PUSH1 0x20 DUP6 ADD MSTORE PUSH1 0x40 DUP5 ADD MSTORE ISZERO ISZERO SWAP2 ADD MSTORE JUMP JUMPDEST CALLVALUE PUSH2 0x388 JUMPI PUSH0 CALLDATASIZE PUSH1 0x3 NOT ADD SLT PUSH2 0x388 JUMPI PUSH1 0x20 PUSH1 0x40 MLOAD PUSH3 0x2A300 DUP2 MSTORE RETURN JUMPDEST CALLVALUE PUSH2 0x388 JUMPI PUSH1 0x20 CALLDATASIZE PUSH1 0x3 NOT ADD SLT PUSH2 0x388 JUMPI PUSH1 0x4 CALLDATALOAD PUSH1 0x7 SLOAD DUP2 LT ISZERO PUSH2 0x388 JUMPI PUSH1 0x7 SLOAD DUP2 LT ISZERO PUSH2 0x44C JUMPI PUSH1 0x7 PUSH0 MSTORE PUSH32 0xA66CC928B5EDB82AF9BD49922954155AB7B0942694BEA4CE44661D9A8736C688 ADD SLOAD PUSH1 0x40 MLOAD SWAP1 DUP2 MSTORE PUSH1 0x20 SWAP1 RETURN JUMPDEST PUSH2 0x1D7C JUMP JUMPDEST CALLVALUE PUSH2 0x388 JUMPI PUSH1 0x20 CALLDATASIZE PUSH1 0x3 NOT ADD SLT PUSH2 0x388 JUMPI PUSH1 0x4 CALLDATALOAD PUSH0 MSTORE PUSH1 0x10 PUSH1 0x20 MSTORE PUSH1 0x40 PUSH0 KECCAK256 PUSH2 0x180 MSTORE PUSH1 0x1 DUP1 PUSH1 0xA0 SHL SUB PUSH2 0x180 MLOAD SLOAD AND PUSH1 0x2 PUSH2 0x180 MLOAD ADD SLOAD PUSH2 0x100 MSTORE PUSH1 0x3 PUSH2 0x180 MLOAD ADD SLOAD PUSH2 0x140 MSTORE PUSH1 0x4 PUSH2 0x180 MLOAD ADD SLOAD PUSH1 0x5 PUSH2 0x180 MLOAD ADD SLOAD PUSH1 0x6 PUSH2 0x180 MLOAD ADD SLOAD PUSH1 0x7 PUSH2 0x180 MLOAD ADD SLOAD PUSH1 0x8 PUSH2 0x180 MLOAD ADD SLOAD PUSH1 0x9 PUSH2 0x180 MLOAD ADD SLOAD PUSH1 0xA PUSH2 0x180 MLOAD ADD SLOAD SWAP1 PUSH1 0xB PUSH2 0x180 MLOAD ADD SLOAD SWAP3 PUSH1 0xC PUSH2 0x180 MLOAD ADD SLOAD SWAP5 PUSH1 0xD PUSH2 0x180 MLOAD ADD SLOAD SWAP7 PUSH1 0xE PUSH2 0x180 MLOAD ADD SLOAD SWAP9 PUSH1 0xF PUSH2 0x180 MLOAD ADD SLOAD SWAP11 PUSH1 0x10 PUSH2 0x180 MLOAD ADD SLOAD SWAP13 PUSH1 0x11 PUSH2 0x180 MLOAD ADD SLOAD PUSH1 0x80 MSTORE PUSH1 0x12 PUSH2 0x180 MLOAD ADD SLOAD PUSH1 0xC0 MSTORE PUSH1 0x13 PUSH2 0x180 MLOAD ADD SLOAD PUSH2 0x160 MSTORE PUSH1 0x14 PUSH2 0x180 MLOAD ADD SLOAD PUSH2 0x120 MSTORE PUSH1 0x15 PUSH2 0x180 MLOAD ADD SLOAD PUSH1 0xE0 MSTORE PUSH1 0x40 MLOAD PUSH1 0xA0 MSTORE PUSH1 0xA0 MLOAD MSTORE PUSH2 0x100 MLOAD PUSH1 0x20 PUSH1 0xA0 MLOAD ADD MSTORE PUSH2 0x140 MLOAD PUSH1 0x40 PUSH1 0xA0 MLOAD ADD MSTORE PUSH1 0x60 PUSH1 0xA0 MLOAD ADD MSTORE PUSH1 0x80 PUSH1 0xA0 MLOAD ADD MSTORE PUSH1 0xA0 DUP1 MLOAD ADD MSTORE PUSH1 0xC0 PUSH1 0xA0 MLOAD ADD MSTORE PUSH1 0xE0 PUSH1 0xA0 MLOAD ADD MSTORE PUSH2 0x100 PUSH1 0xA0 MLOAD ADD MSTORE PUSH2 0x120 PUSH1 0xA0 MLOAD ADD MSTORE PUSH2 0x140 PUSH1 0xA0 MLOAD ADD MSTORE PUSH2 0x160 PUSH1 0xA0 MLOAD ADD MSTORE PUSH2 0x180 PUSH1 0xA0 MLOAD ADD MSTORE PUSH2 0x1A0 PUSH1 0xA0 MLOAD ADD MSTORE PUSH2 0x1C0 PUSH1 0xA0 MLOAD ADD MSTORE PUSH2 0x1E0 PUSH1 0xA0 MLOAD ADD MSTORE PUSH1 0x80 MLOAD PUSH2 0x200 PUSH1 0xA0 MLOAD ADD MSTORE PUSH1 0xC0 MLOAD PUSH2 0x220 PUSH1 0xA0 MLOAD ADD MSTORE PUSH2 0x160 MLOAD PUSH2 0x240 PUSH1 0xA0 MLOAD ADD MSTORE PUSH2 0x120 MLOAD PUSH2 0x260 PUSH1 0xA0 MLOAD ADD MSTORE PUSH1 0xE0 MLOAD PUSH2 0x280 PUSH1 0xA0 MLOAD ADD MSTORE PUSH2 0x2A0 PUSH1 0xA0 MLOAD RETURN JUMPDEST CALLVALUE PUSH2 0x388 JUMPI PUSH0 CALLDATASIZE PUSH1 0x3 NOT ADD SLT PUSH2 0x388 JUMPI PUSH1 0x20 PUSH1 0x40 MLOAD PUSH8 0xDE0B6B3A7640000 DUP2 MSTORE RETURN JUMPDEST CALLVALUE PUSH2 0x388 JUMPI PUSH0 CALLDATASIZE PUSH1 0x3 NOT ADD SLT PUSH2 0x388 JUMPI PUSH1 0x20 PUSH1 0x40 MLOAD PUSH3 0x15180 DUP2 MSTORE RETURN JUMPDEST CALLVALUE PUSH2 0x388 JUMPI PUSH0 CALLDATASIZE PUSH1 0x3 NOT ADD SLT PUSH2 0x388 JUMPI PUSH1 0x20 PUSH1 0x40 MLOAD PUSH1 0x2 DUP2 MSTORE RETURN JUMPDEST CALLVALUE PUSH2 0x388 JUMPI PUSH0 CALLDATASIZE PUSH1 0x3 NOT ADD SLT PUSH2 0x388 JUMPI PUSH1 0x20 PUSH1 0x3B SLOAD PUSH1 0x40 MLOAD SWAP1 DUP2 MSTORE RETURN JUMPDEST CALLVALUE PUSH2 0x388 JUMPI PUSH0 CALLDATASIZE PUSH1 0x3 NOT ADD SLT PUSH2 0x388 JUMPI PUSH1 0x1 SLOAD PUSH1 0x40 MLOAD PUSH1 0x1 PUSH1 0x1 PUSH1 0xA0 SHL SUB SWAP1 SWAP2 AND DUP2 MSTORE PUSH1 0x20 SWAP1 RETURN JUMPDEST CALLVALUE PUSH2 0x388 JUMPI PUSH1 0x20 CALLDATASIZE PUSH1 0x3 NOT ADD SLT PUSH2 0x388 JUMPI PUSH1 0x4 CALLDATALOAD PUSH1 0x44 SLOAD DUP2 LT ISZERO PUSH2 0x388 JUMPI PUSH1 0x44 SLOAD DUP2 LT ISZERO PUSH2 0x44C JUMPI PUSH1 0x44 PUSH0 MSTORE PUSH32 0x9B22D3D61959B4D3528B1D8BA932C96FBE302B36A1AAD1D95CAB54F9E0A135EA ADD SLOAD PUSH1 0x40 MLOAD SWAP1 DUP2 MSTORE PUSH1 0x20 SWAP1 RETURN JUMPDEST CALLVALUE PUSH2 0x388 JUMPI PUSH0 CALLDATASIZE PUSH1 0x3 NOT ADD SLT PUSH2 0x388 JUMPI PUSH1 0x20 PUSH1 0x40 MLOAD PUSH3 0x278D00 DUP2 MSTORE RETURN JUMPDEST CALLVALUE PUSH2 0x388 JUMPI PUSH1 0x20 CALLDATASIZE PUSH1 0x3 NOT ADD SLT PUSH2 0x388 JUMPI PUSH1 0x4 CALLDATALOAD PUSH1 0x17 SLOAD DUP2 LT ISZERO PUSH2 0x388 JUMPI PUSH2 0x3BB PUSH1 0x20 SWAP2 PUSH2 0x1CEA JUMP JUMPDEST CALLVALUE PUSH2 0x388 JUMPI PUSH1 0x20 CALLDATASIZE PUSH1 0x3 NOT ADD SLT PUSH2 0x388 JUMPI PUSH1 0x4 CALLDATALOAD PUSH1 0x7 DUP2 LT ISZERO PUSH2 0x388 JUMPI PUSH1 0x20 SWAP1 PUSH1 0x18 ADD SLOAD PUSH1 0x40 MLOAD SWAP1 DUP2 MSTORE RETURN JUMPDEST CALLVALUE PUSH2 0x388 JUMPI PUSH2 0x1AF6 CALLDATASIZE PUSH2 0x1C94 JUMP JUMPDEST SWAP1 PUSH0 MSTORE PUSH1 0x33 PUSH1 0x20 MSTORE PUSH1 0x40 PUSH0 KECCAK256 DUP1 SLOAD DUP3 LT ISZERO PUSH2 0x388 JUMPI PUSH1 0x20 SWAP2 PUSH2 0x3BB SWAP2 PUSH2 0x1D32 JUMP JUMPDEST CALLVALUE PUSH2 0x388 JUMPI PUSH2 0x1B25 CALLDATASIZE PUSH2 0x1D47 JUMP JUMPDEST SWAP2 PUSH0 MSTORE PUSH1 0x36 PUSH1 0x20 MSTORE PUSH1 0x40 PUSH0 KECCAK256 SWAP1 PUSH0 MSTORE PUSH1 0x20 MSTORE PUSH1 0x40 PUSH0 KECCAK256 DUP1 SLOAD DUP3 LT ISZERO PUSH2 0x388 JUMPI PUSH1 0x20 SWAP2 PUSH2 0x3BB SWAP2 PUSH2 0x1D32 JUMP JUMPDEST CALLVALUE PUSH2 0x388 JUMPI PUSH2 0x1B5E CALLDATASIZE PUSH2 0x1C94 JUMP JUMPDEST SWAP1 PUSH0 MSTORE PUSH1 0x3D PUSH1 0x20 MSTORE PUSH1 0x40 PUSH0 KECCAK256 DUP1 SLOAD DUP3 LT ISZERO PUSH2 0x388 JUMPI PUSH1 0x20 SWAP2 PUSH2 0x3BB SWAP2 PUSH2 0x1D32 JUMP JUMPDEST CALLVALUE PUSH2 0x388 JUMPI PUSH1 0x20 CALLDATASIZE PUSH1 0x3 NOT ADD SLT PUSH2 0x388 JUMPI PUSH1 0x4 CALLDATALOAD PUSH0 MSTORE PUSH1 0xC PUSH1 0x20 MSTORE PUSH1 0x20 PUSH1 0x40 PUSH0 KECCAK256 SLOAD PUSH1 0x40 MLOAD SWAP1 DUP2 MSTORE RETURN JUMPDEST CALLVALUE PUSH2 0x388 JUMPI PUSH1 0x20 CALLDATASIZE PUSH1 0x3 NOT ADD SLT PUSH2 0x388 JUMPI PUSH1 0x4 CALLDATALOAD PUSH0 MSTORE PUSH1 0x4A PUSH1 0x20 MSTORE PUSH1 0x40 PUSH0 KECCAK256 DUP1 SLOAD PUSH2 0x544 PUSH1 0x1 DUP4 ADD SLOAD SWAP3 PUSH1 0x2 DUP2 ADD SLOAD SWAP1 PUSH1 0x3 DUP2 ADD SLOAD PUSH1 0x4 DUP3 ADD SLOAD PUSH1 0x5 DUP4 ADD SLOAD SWAP1 PUSH1 0x6 DUP5 ADD SLOAD SWAP3 PUSH1 0xFF PUSH1 0x8 PUSH1 0x7 DUP8 ADD SLOAD SWAP7 ADD SLOAD AND SWAP6 PUSH1 0x40 MLOAD SWAP10 DUP11 SWAP10 DUP11 PUSH2 0x1CAA JUMP JUMPDEST CALLVALUE PUSH2 0x388 JUMPI PUSH0 CALLDATASIZE PUSH1 0x3 NOT ADD SLT PUSH2 0x388 JUMPI PUSH1 0x20 PUSH1 0x40 MLOAD PUSH2 0x2710 DUP2 MSTORE RETURN JUMPDEST CALLVALUE PUSH2 0x388 JUMPI PUSH2 0x1C33 CALLDATASIZE PUSH2 0x1C94 JUMP JUMPDEST SWAP1 PUSH0 MSTORE PUSH1 0x3E PUSH1 0x20 MSTORE PUSH1 0x40 PUSH0 KECCAK256 SWAP1 PUSH0 MSTORE PUSH1 0x20 MSTORE DUP1 PUSH2 0x544 PUSH1 0x40 PUSH0 KECCAK256 DUP1 SLOAD PUSH1 0x1 DUP3 ADD SLOAD SWAP2 PUSH1 0x3 PUSH1 0x2 DUP3 ADD SLOAD SWAP2 ADD SLOAD SWAP3 PUSH1 0xFF DUP1 DUP6 PUSH1 0x8 SHR AND SWAP5 AND SWAP3 DUP7 SWAP4 SWAP1 SWAP6 SWAP5 SWAP2 SWAP3 PUSH1 0x80 SWAP4 PUSH1 0xA0 DUP7 ADD SWAP8 DUP7 MSTORE PUSH1 0x20 DUP7 ADD MSTORE PUSH1 0x40 DUP6 ADD MSTORE ISZERO ISZERO PUSH1 0x60 DUP5 ADD MSTORE ISZERO ISZERO SWAP2 ADD MSTORE JUMP JUMPDEST PUSH1 0x40 SWAP1 PUSH1 0x3 NOT ADD SLT PUSH2 0x388 JUMPI PUSH1 0x4 CALLDATALOAD SWAP1 PUSH1 0x24 CALLDATALOAD SWAP1 JUMP JUMPDEST SWAP8 SWAP5 SWAP2 SWAP3 PUSH2 0x100 SWAP8 SWAP5 SWAP2 SWAP11 SWAP10 SWAP7 SWAP4 PUSH2 0x120 DUP11 ADD SWAP12 DUP11 MSTORE PUSH1 0x20 DUP11 ADD MSTORE PUSH1 0x40 DUP10 ADD MSTORE PUSH1 0x60 DUP9 ADD MSTORE PUSH1 0x80 DUP8 ADD MSTORE PUSH1 0xA0 DUP7 ADD MSTORE PUSH1 0xC0 DUP6 ADD MSTORE PUSH1 0xE0 DUP5 ADD MSTORE ISZERO ISZERO SWAP2 ADD MSTORE JUMP JUMPDEST PUSH1 0x17 SLOAD DUP2 LT ISZERO PUSH2 0x44C JUMPI PUSH1 0x17 PUSH0 MSTORE PUSH1 0x20 PUSH0 KECCAK256 ADD SWAP1 PUSH0 SWAP1 JUMP JUMPDEST PUSH1 0x16 SLOAD DUP2 LT ISZERO PUSH2 0x44C JUMPI PUSH1 0x16 PUSH0 MSTORE PUSH1 0x20 PUSH0 KECCAK256 ADD SWAP1 PUSH0 SWAP1 JUMP JUMPDEST PUSH1 0xD SLOAD DUP2 LT ISZERO PUSH2 0x44C JUMPI PUSH1 0xD PUSH0 MSTORE PUSH1 0x20 PUSH0 KECCAK256 ADD SWAP1 PUSH0 SWAP1 JUMP JUMPDEST DUP1 SLOAD DUP3 LT ISZERO PUSH2 0x44C JUMPI PUSH0 MSTORE PUSH1 0x20 PUSH0 KECCAK256 ADD SWAP1 PUSH0 SWAP1 JUMP JUMPDEST PUSH1 0x60 SWAP1 PUSH1 0x3 NOT ADD SLT PUSH2 0x388 JUMPI PUSH1 0x4 CALLDATALOAD SWAP1 PUSH1 0x24 CALLDATALOAD SWAP1 PUSH1 0x44 CALLDATALOAD SWAP1 JUMP JUMPDEST CALLVALUE PUSH2 0x388 JUMPI PUSH0 CALLDATASIZE PUSH1 0x3 NOT ADD SLT PUSH2 0x388 JUMPI PUSH1 0x20 PUSH1 0x40 MLOAD PUSH1 0xA DUP2 MSTORE RETURN JUMPDEST CALLVALUE PUSH2 0x388 JUMPI PUSH0 CALLDATASIZE PUSH1 0x3 NOT ADD SLT PUSH2 0x388 JUMPI PUSH1 0x20 PUSH1 0x40 MLOAD PUSH1 0xF DUP2 MSTORE RETURN JUMPDEST ISZERO PUSH2 0x1D9E JUMPI JUMP JUMPDEST PUSH1 0x40 MLOAD PUSH3 0x461BCD PUSH1 0xE5 SHL DUP2 MSTORE PUSH1 0x20 PUSH1 0x4 DUP3 ADD MSTORE PUSH1 0x10 PUSH1 0x24 DUP3 ADD MSTORE PUSH16 0x139BDD081E5BDD5C881858D8DBDD5B9D PUSH1 0x82 SHL PUSH1 0x44 DUP3 ADD MSTORE PUSH1 0x64 SWAP1 REVERT JUMPDEST ISZERO PUSH2 0x1DDD JUMPI JUMP JUMPDEST PUSH1 0x40 MLOAD PUSH3 0x461BCD PUSH1 0xE5 SHL DUP2 MSTORE PUSH1 0x20 PUSH1 0x4 DUP3 ADD MSTORE PUSH1 0xC PUSH1 0x24 DUP3 ADD MSTORE PUSH12 0x105D081B585E081B195D995B PUSH1 0xA2 SHL PUSH1 0x44 DUP3 ADD MSTORE PUSH1 0x64 SWAP1 REVERT JUMPDEST ISZERO PUSH2 0x1E18 JUMPI JUMP JUMPDEST PUSH1 0x40 MLOAD PUSH3 0x461BCD PUSH1 0xE5 SHL DUP2 MSTORE PUSH1 0x20 PUSH1 0x4 DUP3 ADD MSTORE PUSH1 0x16 PUSH1 0x24 DUP3 ADD MSTORE PUSH22 0x141BDBDB08185B1C9958591E481C1D5C98DA185CD959 PUSH1 0x52 SHL PUSH1 0x44 DUP3 ADD MSTORE PUSH1 0x64 SWAP1 REVERT JUMPDEST PUSH1 0x80 DUP2 ADD SWAP1 DUP2 LT PUSH8 0xFFFFFFFFFFFFFFFF DUP3 GT OR PUSH2 0x1021 JUMPI PUSH1 0x40 MSTORE JUMP JUMPDEST PUSH1 0xA0 DUP2 ADD SWAP1 DUP2 LT PUSH8 0xFFFFFFFFFFFFFFFF DUP3 GT OR PUSH2 0x1021 JUMPI PUSH1 0x40 MSTORE JUMP JUMPDEST SWAP1 PUSH1 0x1F DUP1 NOT SWAP2 ADD AND DUP2 ADD SWAP1 DUP2 LT PUSH8 0xFFFFFFFFFFFFFFFF DUP3 GT OR PUSH2 0x1021 JUMPI PUSH1 0x40 MSTORE JUMP JUMPDEST SWAP1 DUP2 PUSH1 0x20 SWAP2 SUB SLT PUSH2 0x388 JUMPI MLOAD DUP1 ISZERO ISZERO DUP2 SUB PUSH2 0x388 JUMPI SWAP1 JUMP JUMPDEST SWAP2 SWAP1 DUP3 ADD DUP1 SWAP3 GT PUSH2 0x97B JUMPI JUMP JUMPDEST PUSH1 0x60 SWAP1 PUSH0 MSTORE PUSH1 0x10 PUSH1 0x20 MSTORE PUSH1 0x40 PUSH0 KECCAK256 PUSH1 0xC DUP2 ADD SLOAD SWAP2 PUSH1 0x16 SLOAD DUP4 LT ISZERO PUSH2 0x1FE7 JUMPI POP PUSH1 0x7 DUP3 LT ISZERO PUSH2 0x44C JUMPI PUSH1 0x6 DUP3 PUSH1 0x18 ADD SLOAD SWAP2 ADD SLOAD LT PUSH2 0x1F9A JUMPI ISZERO ISZERO DUP1 PUSH2 0x1F93 JUMPI JUMPDEST PUSH2 0x1F56 JUMPI PUSH1 0x1 SWAP1 PUSH1 0x40 MLOAD PUSH2 0x1F29 PUSH1 0x40 DUP3 PUSH2 0x1E8E JUMP JUMPDEST PUSH1 0x19 DUP2 MSTORE PUSH32 0x456C696769626C6520746F20627579206E65787420706F6F6C00000000000000 PUSH1 0x20 DUP3 ADD MSTORE SWAP1 JUMP JUMPDEST PUSH0 SWAP1 PUSH1 0x40 MLOAD PUSH2 0x1F66 PUSH1 0x40 DUP3 PUSH2 0x1E8E JUMP JUMPDEST PUSH1 0x17 DUP2 MSTORE PUSH32 0x4275792070726576696F757320706F6F6C206669727374000000000000000000 PUSH1 0x20 DUP3 ADD MSTORE SWAP1 JUMP JUMPDEST POP PUSH0 PUSH2 0x1F14 JUMP JUMPDEST POP PUSH0 SWAP1 PUSH1 0x40 MLOAD PUSH2 0x1FAB PUSH1 0x60 DUP3 PUSH2 0x1E8E JUMP JUMPDEST PUSH1 0x26 DUP2 MSTORE PUSH32 0x596F75206E65656420746F207265616368206120686967686572206C6576656C PUSH1 0x20 DUP3 ADD MSTORE PUSH6 0x8199A5C9CDD PUSH1 0xD2 SHL PUSH1 0x40 DUP3 ADD MSTORE SWAP1 JUMP JUMPDEST SWAP3 SWAP2 POP POP PUSH0 SWAP2 PUSH2 0x1FFA PUSH1 0x40 MLOAD SWAP2 DUP3 PUSH2 0x1E8E JUMP JUMPDEST PUSH1 0x23 DUP2 MSTORE PUSH32 0x596F752061726520616C72656164792061742074686520686967686573742070 PUSH1 0x20 DUP3 ADD MSTORE PUSH3 0x1BDBDB PUSH1 0xEA SHL PUSH1 0x40 DUP3 ADD MSTORE SWAP1 JUMP JUMPDEST ISZERO PUSH2 0x203A JUMPI JUMP JUMPDEST PUSH1 0x40 MLOAD PUSH3 0x461BCD PUSH1 0xE5 SHL DUP2 MSTORE PUSH1 0x20 PUSH1 0x4 DUP3 ADD MSTORE PUSH1 0xB PUSH1 0x24 DUP3 ADD MSTORE PUSH11 0x105D081B585E081C1BDBDB PUSH1 0xAA SHL PUSH1 0x44 DUP3 ADD MSTORE PUSH1 0x64 SWAP1 REVERT JUMPDEST SWAP2 SWAP1 DUP3 SUB SWAP2 DUP3 GT PUSH2 0x97B JUMPI JUMP JUMPDEST ISZERO PUSH2 0x2081 JUMPI JUMP JUMPDEST PUSH1 0x40 MLOAD PUSH3 0x461BCD PUSH1 0xE5 SHL DUP2 MSTORE PUSH1 0x20 PUSH1 0x4 DUP3 ADD MSTORE PUSH1 0x7 PUSH1 0x24 DUP3 ADD MSTORE PUSH7 0x125B9D985B1A59 PUSH1 0xCA SHL PUSH1 0x44 DUP3 ADD MSTORE PUSH1 0x64 SWAP1 REVERT JUMPDEST ISZERO PUSH2 0x20B7 JUMPI JUMP JUMPDEST PUSH1 0x40 MLOAD PUSH3 0x461BCD PUSH1 0xE5 SHL DUP2 MSTORE PUSH1 0x20 PUSH1 0x4 DUP3 ADD MSTORE PUSH1 0x10 PUSH1 0x24 DUP3 ADD MSTORE PUSH16 0x125B98DBDC9C9958DD08185B5BDD5B9D PUSH1 0x82 SHL PUSH1 0x44 DUP3 ADD MSTORE PUSH1 0x64 SWAP1 REVERT JUMPDEST DUP1 SLOAD PUSH1 0x1 PUSH1 0x40 SHL DUP2 LT ISZERO PUSH2 0x1021 JUMPI PUSH2 0x210C SWAP2 PUSH1 0x1 DUP3 ADD DUP2 SSTORE PUSH2 0x1D32 JUMP JUMPDEST DUP2 SWAP3 SWAP2 SLOAD SWAP1 PUSH1 0x3 SHL SWAP2 DUP3 SHL SWAP2 PUSH0 NOT SWAP1 SHL NOT AND OR SWAP1 SSTORE JUMP JUMPDEST DUP2 ISZERO PUSH2 0x212D JUMPI DIV SWAP1 JUMP JUMPDEST PUSH4 0x4E487B71 PUSH1 0xE0 SHL PUSH0 MSTORE PUSH1 0x12 PUSH1 0x4 MSTORE PUSH1 0x24 PUSH0 REVERT JUMPDEST SWAP1 SWAP3 SWAP2 PUSH1 0x16 SLOAD PUSH2 0x2153 PUSH0 SWAP2 DUP5 LT PUSH2 0x207A JUMP JUMPDEST PUSH2 0x216D PUSH2 0x215F DUP5 PUSH2 0x1D02 JUMP JUMPDEST SWAP1 SLOAD SWAP1 PUSH1 0x3 SHL SHR CALLVALUE EQ PUSH2 0x20B0 JUMP JUMPDEST DUP3 PUSH0 MSTORE PUSH1 0x33 PUSH1 0x20 MSTORE PUSH1 0x40 PUSH0 KECCAK256 SLOAD PUSH2 0x2186 DUP2 PUSH1 0x5 SLOAD PUSH2 0x1EC8 JUMP JUMPDEST SWAP1 DUP5 PUSH0 MSTORE PUSH1 0x33 PUSH1 0x20 MSTORE PUSH2 0x219C DUP3 PUSH1 0x40 PUSH0 KECCAK256 PUSH2 0x20EF JUMP JUMPDEST PUSH0 NOT DUP2 ADD SWAP1 DUP2 GT PUSH2 0x97B JUMPI PUSH2 0x21C2 PUSH1 0x3 PUSH2 0x226A SWAP3 DUP8 PUSH0 MSTORE PUSH1 0x33 PUSH1 0x20 MSTORE DIV PUSH1 0x40 PUSH0 KECCAK256 PUSH2 0x1D32 JUMP JUMPDEST SWAP1 SLOAD SWAP1 PUSH1 0x3 SHL SHR SWAP2 PUSH2 0x2230 PUSH1 0x40 MLOAD PUSH2 0x21D9 DUP2 PUSH2 0x1E72 JUMP JUMPDEST DUP3 DUP2 MSTORE PUSH1 0x20 DUP1 DUP3 ADD DUP12 DUP2 MSTORE PUSH1 0x40 DUP1 DUP5 ADD DUP12 DUP2 MSTORE PUSH1 0x60 DUP6 ADD DUP10 DUP2 MSTORE PUSH0 PUSH1 0x80 DUP8 ADD DUP2 DUP2 MSTORE DUP15 DUP3 MSTORE PUSH1 0x30 DUP8 MSTORE DUP5 DUP3 KECCAK256 DUP11 DUP4 MSTORE SWAP1 SWAP7 MSTORE SWAP3 SWAP1 SWAP3 KECCAK256 SWAP5 MLOAD DUP6 SSTORE SWAP2 MLOAD PUSH1 0x1 DUP6 ADD SSTORE SWAP1 MLOAD PUSH1 0x2 DUP5 ADD SSTORE MLOAD PUSH1 0x3 DUP4 ADD SSTORE MLOAD PUSH1 0x4 SWAP1 SWAP2 ADD SSTORE JUMP JUMPDEST DUP6 PUSH0 MSTORE PUSH1 0x32 PUSH1 0x20 MSTORE PUSH1 0x40 PUSH0 KECCAK256 DUP9 PUSH0 MSTORE PUSH1 0x20 MSTORE PUSH2 0x224F DUP2 PUSH1 0x40 PUSH0 KECCAK256 PUSH2 0x20EF JUMP JUMPDEST DUP6 PUSH0 MSTORE PUSH1 0x31 PUSH1 0x20 MSTORE PUSH1 0x40 PUSH0 KECCAK256 DUP4 PUSH0 MSTORE PUSH1 0x20 MSTORE PUSH1 0x40 PUSH0 KECCAK256 PUSH2 0x20EF JUMP JUMPDEST PUSH0 SWAP6 DUP7 SWAP5 PUSH1 0x3 DUP6 DIV SWAP3 JUMPDEST PUSH1 0x3 DUP10 LT PUSH2 0x22A0 JUMPI JUMPDEST POP POP POP POP POP PUSH2 0x228D SWAP3 SWAP4 POP PUSH2 0x206D JUMP JUMPDEST DUP1 PUSH2 0x2295 JUMPI POP JUMP JUMPDEST PUSH2 0x229E SWAP1 PUSH2 0x306C JUMP JUMPDEST JUMP JUMPDEST DUP1 ISZERO DUP1 ISZERO PUSH2 0x26CE JUMPI JUMPDEST PUSH2 0x269A JUMPI DUP2 DUP6 MSTORE PUSH1 0x30 PUSH1 0x20 MSTORE PUSH1 0x40 DUP6 KECCAK256 SWAP1 DUP6 MSTORE PUSH1 0x20 MSTORE PUSH1 0x40 DUP5 KECCAK256 SWAP6 PUSH1 0x1 DUP8 ADD SLOAD PUSH1 0x4 DUP9 ADD DUP1 SLOAD SWAP1 PUSH1 0x27 DUP3 LT PUSH2 0x22F5 JUMPI JUMPDEST POP POP POP PUSH1 0x3 PUSH2 0x22EA DUP6 PUSH1 0x1 SWAP4 PUSH2 0x1EC8 JUMP JUMPDEST SWAP8 ADD SLOAD SWAP9 ADD SWAP8 PUSH2 0x2274 JUMP JUMPDEST PUSH1 0x1 DUP3 SWAP13 SWAP6 SWAP9 SWAP12 SWAP10 SWAP8 SWAP7 SWAP13 SWAP11 SWAP4 SWAP11 ADD DUP1 SWAP3 GT PUSH2 0x261D JUMPI DUP2 SWAP1 SSTORE PUSH1 0x18 DUP2 GT PUSH2 0x2631 JUMPI POP DUP8 DUP10 MSTORE PUSH1 0x11 PUSH1 0x20 MSTORE PUSH1 0x7 PUSH1 0x40 DUP11 KECCAK256 ADD PUSH2 0x2331 DUP6 DUP3 SLOAD PUSH2 0x1EC8 JUMP JUMPDEST SWAP1 SSTORE PUSH1 0x5F DUP5 MUL DUP5 ISZERO SWAP1 DUP6 DUP2 DIV PUSH1 0x5F EQ DUP3 OR ISZERO PUSH2 0x261D JUMPI DUP10 DUP12 MSTORE PUSH1 0x10 PUSH1 0x20 MSTORE PUSH1 0x40 DUP12 KECCAK256 DUP1 SLOAD PUSH1 0x1 PUSH1 0x1 PUSH1 0xA0 SHL SUB AND SWAP10 PUSH1 0x64 SWAP1 SWAP3 DIV SWAP3 SWAP2 DUP11 ISZERO PUSH2 0x25E9 JUMPI DUP4 ISZERO PUSH2 0x25B6 JUMPI DUP12 DUP14 MSTORE PUSH1 0x11 PUSH1 0x20 MSTORE PUSH1 0x40 DUP14 KECCAK256 SWAP13 DUP1 PUSH2 0x25A2 JUMPI POP SWAP1 SWAP8 PUSH0 SWAP13 PUSH1 0x7 DUP2 ADD PUSH2 0x2398 DUP7 DUP3 SLOAD PUSH2 0x1EC8 JUMP JUMPDEST SWAP1 SSTORE SLOAD SWAP13 PUSH1 0xB DUP11 ADD SLOAD SWAP10 PUSH1 0x6 PUSH0 SWAP2 ADD SWAP15 DUP16 JUMPDEST SLOAD DUP3 LT ISZERO PUSH2 0x258C JUMPI SWAP2 DUP16 SWAP5 SWAP3 SWAP2 DUP16 SWAP5 SWAP3 DUP14 SWAP1 PUSH2 0x23C5 DUP4 PUSH2 0x1D1A JUMP JUMPDEST SWAP1 SLOAD SWAP1 PUSH1 0x3 SHL SHR SWAP7 PUSH0 MSTORE PUSH1 0xE PUSH1 0x20 MSTORE PUSH1 0x40 PUSH0 KECCAK256 DUP8 PUSH0 MSTORE PUSH1 0x20 MSTORE PUSH1 0x40 PUSH0 KECCAK256 SWAP2 PUSH1 0x3 DUP4 ADD PUSH1 0xFF DUP2 SLOAD PUSH1 0x8 SHR AND DUP1 ISZERO SWAP1 DUP2 DUP1 SWAP3 PUSH2 0x2576 JUMPI JUMPDEST ISZERO PUSH2 0x2458 JUMPI POP POP DUP1 SLOAD PUSH2 0xFF00 NOT AND PUSH2 0x100 OR SWAP1 SSTORE PUSH2 0x242E SWAP3 SWAP2 SWAP1 PUSH1 0xA PUSH2 0x2420 DUP3 DUP12 PUSH2 0x2C86 JUMP JUMPDEST DIV SWAP3 DUP4 PUSH1 0x2 DUP3 ADD SSTORE SSTORE PUSH2 0x206D JUMP JUMPDEST SWAP5 PUSH0 MSTORE PUSH1 0xC PUSH1 0x20 MSTORE PUSH1 0x40 PUSH0 KECCAK256 SWAP1 DUP2 SLOAD PUSH0 NOT DUP2 ADD SWAP1 DUP2 GT PUSH2 0x97B JUMPI PUSH1 0x1 SWAP3 SSTORE JUMPDEST ADD SWAP2 SWAP4 SWAP1 SWAP3 SWAP5 PUSH2 0x23AA JUMP JUMPDEST DUP1 SWAP2 SWAP5 SWAP7 SWAP11 SWAP3 POP SWAP1 PUSH2 0x2561 JUMPI JUMPDEST ISZERO PUSH2 0x2484 JUMPI POP POP POP PUSH1 0x1 SWAP2 PUSH1 0x2 PUSH2 0x247E SWAP3 ADD SLOAD SWAP1 PUSH2 0x206D JUMP JUMPDEST SWAP5 PUSH2 0x244D JUMP JUMPDEST SWAP1 SWAP2 DUP1 SWAP4 SWAP5 SWAP10 POP SWAP8 SWAP5 SWAP6 SWAP7 SWAP8 SWAP3 PUSH2 0x2549 JUMPI JUMPDEST POP POP PUSH2 0x24AB JUMPI POP SWAP1 DUP16 SWAP5 SWAP4 SWAP3 SWAP2 PUSH1 0x1 SWAP1 PUSH2 0x244D JUMP JUMPDEST SWAP2 SWAP13 SWAP10 SWAP16 POP POP PUSH1 0x1 SWAP2 SWAP13 SWAP7 SWAP14 SWAP4 SWAP3 SWAP15 SWAP16 SWAP10 SWAP11 POP SWAP5 SWAP4 SWAP5 ADD SSTORE JUMPDEST PUSH1 0x1 SLOAD PUSH2 0x24DD SWAP1 DUP4 SWAP1 DUP7 SWAP1 PUSH1 0x1 PUSH1 0x1 PUSH1 0xA0 SHL SUB AND PUSH2 0x3362 JUMP JUMPDEST PUSH1 0x40 MLOAD SWAP2 DUP3 MSTORE PUSH1 0x1 PUSH1 0x20 DUP4 ADD MSTORE PUSH1 0x5 SWAP4 PUSH32 0x4D634C31300B97DAD99B3AF799178230163D88AD306370D063BE9CD992D0BE7F PUSH1 0x80 DUP5 DUP8 PUSH1 0x40 DUP13 SWAP8 ADD MSTORE TIMESTAMP PUSH1 0x60 DUP3 ADD MSTORE LOG4 DUP2 DUP7 MUL SWAP2 DUP7 DUP4 DIV EQ OR ISZERO PUSH2 0x97B JUMPI PUSH2 0x22EA DUP6 PUSH1 0x1 SWAP4 PUSH2 0x2542 PUSH1 0x64 PUSH1 0x3 SWAP6 DIV PUSH2 0x306C JUMP JUMPDEST SWAP4 POP PUSH2 0x22D9 JUMP JUMPDEST PUSH1 0xA SWAP3 POP SWAP1 PUSH2 0x2557 SWAP2 PUSH2 0x2C86 JUMP JUMPDEST DIV DUP7 LT DUP14 PUSH0 PUSH2 0x2496 JUMP JUMPDEST POP PUSH1 0xA PUSH2 0x256E DUP4 DUP4 PUSH2 0x2C86 JUMP JUMPDEST DIV DUP6 GT PUSH2 0x2465 JUMP JUMPDEST POP PUSH1 0xA PUSH2 0x2583 DUP6 DUP14 PUSH2 0x2C86 JUMP JUMPDEST DIV DUP6 LT ISZERO PUSH2 0x23FA JUMP JUMPDEST POP POP SWAP10 SWAP7 SWAP14 SWAP8 SWAP9 POP SWAP10 SWAP4 SWAP11 SWAP1 SWAP12 POP SWAP2 SWAP1 SWAP2 PUSH2 0x24C4 JUMP JUMPDEST PUSH4 0x4E487B71 PUSH1 0xE0 SHL DUP2 MSTORE PUSH1 0x21 PUSH1 0x4 MSTORE PUSH1 0x24 SWAP1 REVERT JUMPDEST PUSH1 0x40 MLOAD PUSH3 0x461BCD PUSH1 0xE5 SHL DUP2 MSTORE PUSH1 0x20 PUSH1 0x4 DUP3 ADD MSTORE PUSH1 0xB PUSH1 0x24 DUP3 ADD MSTORE PUSH11 0x16995C9BC8185B5BDD5B9D PUSH1 0xAA SHL PUSH1 0x44 DUP3 ADD MSTORE PUSH1 0x64 SWAP1 REVERT JUMPDEST PUSH1 0x40 MLOAD PUSH3 0x461BCD PUSH1 0xE5 SHL DUP2 MSTORE PUSH1 0x20 PUSH1 0x4 DUP3 ADD MSTORE PUSH1 0xC PUSH1 0x24 DUP3 ADD MSTORE PUSH12 0x24B73B30B634B2103AB9B2B9 PUSH1 0xA1 SHL PUSH1 0x44 DUP3 ADD MSTORE PUSH1 0x64 SWAP1 REVERT JUMPDEST PUSH4 0x4E487B71 PUSH1 0xE0 SHL DUP12 MSTORE PUSH1 0x11 PUSH1 0x4 MSTORE PUSH1 0x24 DUP12 REVERT JUMPDEST DUP5 PUSH1 0x1 SWAP4 PUSH1 0x3 SWAP4 SWAP11 PUSH1 0x24 PUSH2 0x22EA SWAP5 SWAP15 SWAP9 SWAP10 SWAP12 SWAP14 SWAP11 SWAP8 SWAP15 GT ISZERO PUSH0 EQ PUSH2 0x2677 JUMPI DUP7 DUP11 MSTORE PUSH1 0x2F PUSH1 0x20 MSTORE PUSH1 0x40 DUP11 KECCAK256 SWAP1 DUP11 MSTORE PUSH1 0x20 MSTORE PUSH1 0x40 DUP10 KECCAK256 PUSH2 0x2670 DUP4 DUP3 SLOAD PUSH2 0x1EC8 JUMP JUMPDEST SWAP1 SSTORE PUSH2 0x2542 JUMP JUMPDEST DUP7 DUP11 MSTORE PUSH1 0x2F PUSH1 0x20 MSTORE PUSH1 0x40 DUP11 KECCAK256 SWAP1 DUP11 MSTORE PUSH1 0x20 MSTORE DUP5 PUSH1 0x40 DUP11 KECCAK256 ADD PUSH2 0x2670 DUP4 DUP3 SLOAD PUSH2 0x1EC8 JUMP JUMPDEST POP POP POP POP POP PUSH2 0x228D SWAP3 SWAP4 POP PUSH2 0x26AF DUP3 DUP3 PUSH2 0x206D JUMP JUMPDEST DUP1 PUSH2 0x26BF JUMPI JUMPDEST DUP5 SWAP4 DUP2 DUP1 DUP1 PUSH2 0x227D JUMP JUMPDEST PUSH2 0x26C8 SWAP1 PUSH2 0x306C JUMP JUMPDEST PUSH0 PUSH2 0x26B5 JUMP JUMPDEST POP PUSH1 0x5 SLOAD DUP2 EQ PUSH2 0x22A9 JUMP JUMPDEST SWAP1 SWAP3 PUSH2 0x26E8 PUSH1 0x17 SLOAD DUP4 LT PUSH2 0x207A JUMP JUMPDEST PUSH2 0x26F4 PUSH2 0x215F DUP4 PUSH2 0x1CEA JUMP JUMPDEST PUSH0 DUP3 DUP2 MSTORE PUSH1 0x37 PUSH1 0x20 MSTORE PUSH1 0x40 SWAP1 KECCAK256 DUP1 SLOAD SWAP1 PUSH2 0x270F SWAP1 DUP7 SWAP1 PUSH2 0x20EF JUMP JUMPDEST PUSH0 NOT DUP2 ADD SWAP1 DUP2 GT PUSH2 0x97B JUMPI PUSH1 0x3 PUSH2 0x2732 SWAP2 DUP5 PUSH0 MSTORE PUSH1 0x37 PUSH1 0x20 MSTORE DIV PUSH1 0x40 PUSH0 KECCAK256 PUSH2 0x1D32 JUMP JUMPDEST SWAP1 SLOAD SWAP1 PUSH1 0x3 SHL SHR SWAP2 PUSH2 0x27A0 PUSH1 0x40 MLOAD PUSH2 0x2749 DUP2 PUSH2 0x1E72 JUMP JUMPDEST DUP7 DUP2 MSTORE PUSH1 0x20 DUP1 DUP3 ADD DUP5 DUP2 MSTORE PUSH1 0x40 DUP1 DUP5 ADD DUP9 DUP2 MSTORE PUSH0 PUSH1 0x60 DUP7 ADD DUP2 DUP2 MSTORE TIMESTAMP PUSH1 0x80 DUP9 ADD SWAP1 DUP2 MSTORE DUP10 DUP4 MSTORE PUSH1 0x35 DUP8 MSTORE DUP5 DUP4 KECCAK256 DUP15 DUP5 MSTORE SWAP1 SWAP7 MSTORE SWAP3 SWAP1 KECCAK256 SWAP5 MLOAD DUP6 SSTORE SWAP2 MLOAD PUSH1 0x1 DUP6 ADD SSTORE SWAP1 MLOAD PUSH1 0x2 DUP5 ADD SSTORE MLOAD PUSH1 0x3 DUP4 ADD SSTORE MLOAD PUSH1 0x4 SWAP1 SWAP2 ADD SSTORE JUMP JUMPDEST DUP1 PUSH0 MSTORE PUSH1 0x36 PUSH1 0x20 MSTORE PUSH1 0x40 PUSH0 KECCAK256 DUP4 PUSH0 MSTORE PUSH1 0x20 MSTORE PUSH2 0x27BF DUP6 PUSH1 0x40 PUSH0 KECCAK256 PUSH2 0x20EF JUMP JUMPDEST PUSH1 0x1 DUP2 EQ PUSH2 0x2A5B JUMPI JUMPDEST DUP3 ISZERO DUP1 ISZERO PUSH2 0x2A50 JUMPI JUMPDEST PUSH2 0x2A43 JUMPI PUSH0 MSTORE PUSH1 0x35 PUSH1 0x20 MSTORE PUSH1 0x40 PUSH0 KECCAK256 DUP3 PUSH0 MSTORE PUSH1 0x20 MSTORE PUSH1 0x3 PUSH1 0x40 PUSH0 KECCAK256 ADD PUSH1 0x3 DUP2 SLOAD LT PUSH0 EQ PUSH2 0x2A43 JUMPI DUP1 SLOAD SWAP1 PUSH1 0x1 DUP3 ADD DUP1 SWAP3 GT PUSH2 0x97B JUMPI SSTORE DUP2 PUSH0 MSTORE PUSH1 0x11 PUSH1 0x20 MSTORE PUSH1 0x8 PUSH1 0x40 PUSH0 KECCAK256 ADD PUSH2 0x2821 DUP5 DUP3 SLOAD PUSH2 0x1EC8 JUMP JUMPDEST SWAP1 SSTORE PUSH1 0x5F DUP4 MUL SWAP3 DUP1 ISZERO SWAP4 DUP2 DUP2 DIV PUSH1 0x5F EQ DUP6 OR ISZERO PUSH2 0x97B JUMPI PUSH1 0x64 SWAP1 DIV SWAP4 DUP4 PUSH0 MSTORE PUSH1 0x10 PUSH1 0x20 MSTORE PUSH1 0x40 PUSH0 KECCAK256 SWAP5 PUSH1 0x1 DUP1 PUSH1 0xA0 SHL SUB DUP7 SLOAD AND SWAP4 DUP5 ISZERO PUSH2 0x25E9 JUMPI DUP2 ISZERO PUSH2 0x25B6 JUMPI DUP6 PUSH0 MSTORE PUSH1 0x11 PUSH1 0x20 MSTORE PUSH1 0x40 PUSH0 KECCAK256 PUSH1 0x8 DUP2 ADD PUSH2 0x287C DUP5 DUP3 SLOAD PUSH2 0x1EC8 JUMP JUMPDEST SWAP1 SSTORE SLOAD SWAP4 PUSH1 0xB DUP9 ADD SLOAD SWAP4 PUSH1 0x6 PUSH0 SWAP10 ADD SWAP9 JUMPDEST DUP10 SLOAD DUP2 LT ISZERO PUSH2 0x2A34 JUMPI PUSH2 0x289F DUP2 PUSH2 0x1D1A JUMP JUMPDEST SWAP1 SLOAD SWAP1 PUSH1 0x3 SHL SHR SWAP7 DUP10 PUSH0 MSTORE PUSH1 0xE PUSH1 0x20 MSTORE PUSH1 0x40 PUSH0 KECCAK256 DUP9 PUSH0 MSTORE PUSH1 0x20 MSTORE PUSH1 0x40 PUSH0 KECCAK256 SWAP1 PUSH1 0x3 DUP3 ADD PUSH1 0xFF DUP2 SLOAD PUSH1 0x8 SHR AND DUP1 ISZERO SWAP1 DUP2 DUP12 DUP14 DUP3 SWAP5 PUSH2 0x2A1B JUMPI JUMPDEST POP POP ISZERO PUSH2 0x2924 JUMPI POP POP DUP1 SLOAD PUSH2 0xFF00 NOT AND PUSH2 0x100 OR SWAP1 SSTORE PUSH2 0x28FF SWAP2 SWAP1 DUP9 PUSH1 0xA PUSH2 0x2420 DUP3 DUP14 PUSH2 0x2C86 JUMP JUMPDEST SWAP7 PUSH0 MSTORE PUSH1 0xC PUSH1 0x20 MSTORE PUSH1 0x40 PUSH0 KECCAK256 SWAP1 DUP2 SLOAD PUSH0 NOT DUP2 ADD SWAP1 DUP2 GT PUSH2 0x97B JUMPI PUSH1 0x1 SWAP3 SSTORE JUMPDEST ADD PUSH2 0x288D JUMP JUMPDEST DUP1 SWAP2 SWAP4 SWAP6 SWAP12 SWAP3 POP SWAP1 PUSH2 0x2A06 JUMPI JUMPDEST ISZERO PUSH2 0x294F JUMPI POP POP PUSH1 0x1 SWAP2 PUSH1 0x2 PUSH2 0x2949 SWAP3 ADD SLOAD SWAP1 PUSH2 0x206D JUMP JUMPDEST SWAP7 PUSH2 0x291E JUMP JUMPDEST SWAP3 SWAP9 SWAP3 DUP9 SWAP1 DUP3 PUSH2 0x29EE JUMPI JUMPDEST POP POP PUSH2 0x2969 JUMPI POP PUSH1 0x1 SWAP1 PUSH2 0x291E JUMP JUMPDEST SWAP2 SWAP9 SWAP7 SWAP4 SWAP11 SWAP8 SWAP6 POP POP PUSH1 0x1 SWAP2 SWAP9 POP ADD SSTORE JUMPDEST PUSH1 0x1 SLOAD PUSH2 0x2993 SWAP1 DUP3 SWAP1 DUP5 SWAP1 PUSH1 0x1 PUSH1 0x1 PUSH1 0xA0 SHL SUB AND PUSH2 0x3362 JUMP JUMPDEST PUSH1 0x40 MLOAD SWAP1 DUP2 MSTORE PUSH1 0x1 PUSH1 0x20 DUP3 ADD MSTORE PUSH1 0x80 DUP2 PUSH1 0x6 PUSH1 0x40 PUSH32 0x4D634C31300B97DAD99B3AF799178230163D88AD306370D063BE9CD992D0BE7F SWAP5 ADD MSTORE TIMESTAMP PUSH1 0x60 DUP3 ADD MSTORE LOG4 PUSH1 0x5 DUP3 MUL SWAP2 DUP3 DIV PUSH1 0x5 EQ OR ISZERO PUSH2 0x97B JUMPI PUSH1 0x64 PUSH2 0x229E SWAP2 DIV PUSH2 0x306C JUMP JUMPDEST PUSH1 0xA SWAP3 POP SWAP1 PUSH2 0x29FC SWAP2 PUSH2 0x2C86 JUMP JUMPDEST DIV DUP9 LT DUP8 PUSH0 PUSH2 0x295A JUMP JUMPDEST POP PUSH1 0xA PUSH2 0x2A13 DUP11 DUP4 PUSH2 0x2C86 JUMP JUMPDEST DIV DUP5 GT PUSH2 0x2931 JUMP JUMPDEST PUSH1 0xA SWAP3 POP SWAP1 PUSH2 0x2A29 SWAP2 PUSH2 0x2C86 JUMP JUMPDEST DIV DUP5 LT ISZERO DUP12 DUP14 PUSH2 0x28D7 JUMP JUMPDEST POP SWAP7 SWAP5 POP SWAP7 POP SWAP7 SWAP4 SWAP2 POP PUSH2 0x297A JUMP JUMPDEST POP SWAP3 POP POP PUSH2 0x229E SWAP1 PUSH2 0x306C JUMP JUMPDEST POP PUSH1 0x5 SLOAD DUP4 EQ PUSH2 0x27D1 JUMP JUMPDEST DUP5 PUSH0 MSTORE PUSH1 0x10 PUSH1 0x20 MSTORE PUSH1 0x40 PUSH0 KECCAK256 PUSH1 0x40 MLOAD SWAP1 PUSH2 0x2C0 DUP3 ADD DUP3 DUP2 LT PUSH8 0xFFFFFFFFFFFFFFFF DUP3 GT OR PUSH2 0x1021 JUMPI PUSH1 0x40 MSTORE DUP1 SLOAD PUSH1 0x1 PUSH1 0x1 PUSH1 0xA0 SHL SUB AND DUP3 MSTORE PUSH1 0x1 DUP2 ADD DUP1 SLOAD PUSH8 0xFFFFFFFFFFFFFFFF DUP2 GT PUSH2 0x1021 JUMPI PUSH1 0x40 MLOAD SWAP2 PUSH2 0x2ABC PUSH1 0x20 DUP4 PUSH1 0x5 SHL ADD DUP5 PUSH2 0x1E8E JUMP JUMPDEST DUP2 DUP4 MSTORE PUSH1 0x20 DUP4 ADD SWAP1 PUSH0 MSTORE PUSH1 0x20 PUSH0 KECCAK256 PUSH0 SWAP2 JUMPDEST DUP4 DUP4 LT PUSH2 0x2C42 JUMPI POP POP POP POP PUSH1 0x20 DUP4 ADD MSTORE PUSH1 0x2 DUP2 ADD SLOAD PUSH1 0x40 DUP4 ADD MSTORE PUSH1 0x3 DUP2 ADD SLOAD PUSH1 0x60 DUP4 ADD MSTORE PUSH1 0x4 DUP2 ADD SLOAD SWAP2 PUSH1 0x80 DUP2 ADD SWAP3 DUP4 MSTORE PUSH1 0x5 DUP3 ADD SLOAD PUSH1 0xA0 DUP3 ADD MSTORE PUSH1 0x6 DUP3 ADD SLOAD PUSH1 0xC0 DUP3 ADD MSTORE PUSH1 0x7 DUP3 ADD SLOAD PUSH1 0xE0 DUP3 ADD MSTORE PUSH1 0x8 DUP3 ADD SLOAD PUSH2 0x100 DUP3 ADD MSTORE PUSH1 0x9 DUP3 ADD SLOAD PUSH2 0x120 DUP3 ADD MSTORE PUSH1 0xA DUP3 ADD SLOAD PUSH2 0x140 DUP3 ADD MSTORE PUSH1 0xB DUP3 ADD SLOAD PUSH2 0x160 DUP3 ADD MSTORE PUSH1 0xC DUP3 ADD SLOAD PUSH2 0x180 DUP3 ADD MSTORE PUSH1 0xD DUP3 ADD SLOAD PUSH2 0x1A0 DUP3 ADD MSTORE PUSH1 0xE DUP3 ADD SLOAD PUSH2 0x1C0 DUP3 ADD MSTORE PUSH1 0xF DUP3 ADD SLOAD PUSH2 0x1E0 DUP3 ADD MSTORE PUSH1 0x10 DUP3 ADD SLOAD PUSH2 0x200 DUP3 ADD MSTORE PUSH2 0x2A0 PUSH1 0x15 PUSH1 0x11 DUP5 ADD SLOAD SWAP4 PUSH2 0x220 DUP5 ADD SWAP5 DUP6 MSTORE PUSH1 0x12 DUP2 ADD SLOAD PUSH2 0x240 DUP6 ADD MSTORE PUSH1 0x13 DUP2 ADD SLOAD PUSH2 0x260 DUP6 ADD MSTORE PUSH1 0x14 DUP2 ADD SLOAD PUSH2 0x280 DUP6 ADD MSTORE ADD SLOAD SWAP2 ADD MSTORE PUSH1 0x39 SLOAD PUSH0 MSTORE PUSH1 0x3F PUSH1 0x20 MSTORE PUSH1 0x40 PUSH0 KECCAK256 DUP3 MLOAD PUSH0 MSTORE PUSH1 0x20 MSTORE PUSH2 0x2BDA DUP8 PUSH1 0x40 PUSH0 KECCAK256 PUSH2 0x20EF JUMP JUMPDEST PUSH1 0x39 SLOAD SWAP1 DUP2 PUSH0 MSTORE PUSH1 0x3F PUSH1 0x20 MSTORE PUSH1 0x40 PUSH0 KECCAK256 DUP4 MLOAD PUSH0 MSTORE PUSH1 0x20 MSTORE PUSH1 0x40 PUSH0 KECCAK256 SLOAD SWAP1 MLOAD SWAP2 PUSH3 0x15180 DUP4 ADD DUP1 SWAP4 GT PUSH2 0x97B JUMPI PUSH1 0x5 SWAP3 TIMESTAMP GT ISZERO PUSH2 0x2C32 JUMPI JUMPDEST POP LT ISZERO PUSH2 0x2C1F JUMPI JUMPDEST POP PUSH2 0x27C8 JUMP JUMPDEST MLOAD PUSH1 0x39 SLOAD PUSH2 0x2C2C SWAP2 PUSH2 0x3039 JUMP JUMPDEST PUSH0 PUSH2 0x2C19 JUMP JUMPDEST PUSH2 0x2C3C SWAP1 DUP10 PUSH2 0x3039 JUMP JUMPDEST PUSH0 PUSH2 0x2C11 JUMP JUMPDEST PUSH1 0x4 PUSH1 0x20 PUSH1 0x1 SWAP3 PUSH1 0x40 MLOAD PUSH2 0x2C55 DUP2 PUSH2 0x1E56 JUMP JUMPDEST DUP6 SLOAD DUP2 MSTORE DUP5 DUP7 ADD SLOAD DUP4 DUP3 ADD MSTORE PUSH1 0x2 DUP7 ADD SLOAD PUSH1 0x40 DUP3 ADD MSTORE PUSH1 0xFF PUSH1 0x3 DUP8 ADD SLOAD AND PUSH1 0x60 DUP3 ADD MSTORE DUP2 MSTORE ADD SWAP3 ADD SWAP3 ADD SWAP2 SWAP1 PUSH2 0x2ACD JUMP JUMPDEST DUP2 DUP2 MUL SWAP3 SWAP2 DUP2 ISZERO SWAP2 DUP5 DIV EQ OR ISZERO PUSH2 0x97B JUMPI JUMP JUMPDEST PUSH1 0x3A SLOAD PUSH3 0x93A80 DUP2 ADD DUP1 SWAP2 GT PUSH2 0x97B JUMPI TIMESTAMP LT ISZERO PUSH2 0x2CB2 JUMPI JUMP JUMPDEST PUSH1 0x39 SLOAD DUP1 PUSH0 MSTORE PUSH1 0x3C PUSH1 0x20 MSTORE PUSH1 0x40 PUSH0 KECCAK256 PUSH1 0x8 DUP2 ADD SWAP2 DUP3 SLOAD SWAP3 PUSH1 0xFF DUP5 AND PUSH2 0x2E0E JUMPI PUSH0 DUP3 DUP2 MSTORE PUSH1 0x3D PUSH1 0x20 MSTORE PUSH1 0x40 SWAP1 KECCAK256 SLOAD SWAP3 DUP4 ISZERO PUSH2 0x2E01 JUMPI PUSH1 0x3B SLOAD SWAP2 PUSH2 0x2CF4 DUP6 DUP5 PUSH2 0x2123 JUMP JUMPDEST PUSH9 0x3635C9ADC5DEA00000 DUP2 GT ISZERO PUSH2 0x2DFB JUMPI POP PUSH9 0x3635C9ADC5DEA00000 SWAP2 JUMPDEST PUSH2 0x2D1C DUP7 DUP5 PUSH2 0x2C86 JUMP JUMPDEST SWAP4 DUP5 DUP1 DUP3 GT ISZERO PUSH2 0x2DF3 JUMPI PUSH2 0x2D2F SWAP2 PUSH2 0x206D JUMP JUMPDEST SWAP2 JUMPDEST DUP6 DUP3 SSTORE DUP4 PUSH1 0x3 DUP4 ADD SSTORE DUP7 PUSH1 0x2 DUP4 ADD SSTORE PUSH1 0x3B SLOAD PUSH1 0x1 DUP4 ADD SSTORE DUP3 PUSH1 0x7 DUP4 ADD SSTORE PUSH1 0x3A SLOAD SWAP2 PUSH3 0x93A80 DUP4 ADD DUP1 SWAP4 GT PUSH2 0x97B JUMPI PUSH1 0x6 PUSH1 0x1 SWAP2 ADD SWAP9 DUP4 DUP11 SSTORE PUSH1 0xFF NOT AND OR SWAP1 SSTORE PUSH1 0x3A SSTORE PUSH1 0x1 DUP5 ADD SWAP3 DUP4 DUP6 GT PUSH2 0x97B JUMPI PUSH32 0xCA8A78D1841A8DAFBB8FF53C869B3FA9A69ABD051022178024F84B680FFD2E3C SWAP7 PUSH2 0x2DEE SWAP5 PUSH1 0x39 SSTORE DUP3 PUSH1 0x3B SSTORE PUSH2 0x2DB6 DUP4 DUP4 PUSH2 0x1EC8 JUMP JUMPDEST SWAP1 SLOAD SWAP4 PUSH1 0x40 MLOAD SWAP8 DUP9 SWAP8 DUP9 SWAP4 SWAP1 SWAP8 SWAP7 SWAP6 SWAP3 PUSH1 0xC0 SWAP6 SWAP3 PUSH1 0xE0 DUP7 ADD SWAP10 DUP7 MSTORE PUSH1 0x20 DUP7 ADD MSTORE PUSH1 0x40 DUP6 ADD MSTORE PUSH1 0x60 DUP5 ADD MSTORE PUSH1 0x80 DUP4 ADD MSTORE PUSH1 0xA0 DUP3 ADD MSTORE ADD MSTORE JUMP JUMPDEST SUB SWAP1 LOG1 JUMP JUMPDEST POP POP PUSH0 PUSH2 0x2D2F JUMP JUMPDEST SWAP2 PUSH2 0x2D12 JUMP JUMPDEST SWAP1 PUSH1 0x3B SLOAD PUSH0 SWAP3 PUSH0 SWAP3 PUSH2 0x2D31 JUMP JUMPDEST POP POP POP POP JUMP JUMPDEST PUSH1 0x41 SLOAD PUSH3 0x278D00 DUP2 ADD DUP1 SWAP2 GT PUSH2 0x97B JUMPI TIMESTAMP LT ISZERO PUSH2 0x2E2D JUMPI JUMP JUMPDEST PUSH1 0x40 SLOAD DUP1 PUSH0 MSTORE PUSH1 0x43 PUSH1 0x20 MSTORE PUSH1 0x40 PUSH0 KECCAK256 PUSH1 0x8 DUP2 ADD SWAP2 DUP3 SLOAD SWAP3 PUSH1 0xFF DUP5 AND PUSH2 0x2E0E JUMPI PUSH1 0x44 SLOAD SWAP3 DUP4 ISZERO PUSH2 0x2F36 JUMPI PUSH1 0x42 SLOAD SWAP2 PUSH2 0x2E64 DUP6 DUP5 PUSH2 0x2123 JUMP JUMPDEST PUSH10 0x21E19E0C9BAB2400000 DUP2 GT ISZERO PUSH2 0x2F30 JUMPI POP PUSH10 0x21E19E0C9BAB2400000 SWAP2 JUMPDEST PUSH2 0x2E8E DUP7 DUP5 PUSH2 0x2C86 JUMP JUMPDEST SWAP4 DUP5 DUP1 DUP3 GT ISZERO PUSH2 0x2F28 JUMPI PUSH2 0x2EA1 SWAP2 PUSH2 0x206D JUMP JUMPDEST SWAP2 JUMPDEST DUP6 DUP3 SSTORE DUP4 PUSH1 0x3 DUP4 ADD SSTORE DUP7 PUSH1 0x2 DUP4 ADD SSTORE PUSH1 0x42 SLOAD PUSH1 0x1 DUP4 ADD SSTORE DUP3 PUSH1 0x7 DUP4 ADD SSTORE PUSH1 0x41 SLOAD SWAP2 PUSH3 0x278D00 DUP4 ADD DUP1 SWAP4 GT PUSH2 0x97B JUMPI PUSH1 0x6 PUSH1 0x1 SWAP2 ADD SWAP9 DUP4 DUP11 SSTORE PUSH1 0xFF NOT AND OR SWAP1 SSTORE PUSH1 0x41 SSTORE PUSH1 0x1 DUP5 ADD SWAP3 DUP4 DUP6 GT PUSH2 0x97B JUMPI PUSH32 0x1B674071ADFA65DB18518E4868AE7D5F54DD365C69E0BABE9B704CBADE8FE4BB SWAP7 PUSH2 0x2DEE SWAP5 PUSH1 0x40 SSTORE DUP3 PUSH1 0x42 SSTORE PUSH2 0x2DB6 DUP4 DUP4 PUSH2 0x1EC8 JUMP JUMPDEST POP POP PUSH0 PUSH2 0x2EA1 JUMP JUMPDEST SWAP2 PUSH2 0x2E84 JUMP JUMPDEST SWAP1 PUSH1 0x42 SLOAD PUSH0 SWAP3 PUSH0 SWAP3 PUSH2 0x2EA3 JUMP JUMPDEST PUSH1 0x48 SLOAD PUSH3 0x278D00 DUP2 ADD DUP1 SWAP2 GT PUSH2 0x97B JUMPI TIMESTAMP LT PUSH2 0x229E JUMPI PUSH1 0x47 SLOAD DUP1 PUSH0 MSTORE PUSH1 0x4A PUSH1 0x20 MSTORE PUSH1 0x40 PUSH0 KECCAK256 PUSH1 0x8 DUP2 ADD SWAP2 DUP3 SLOAD SWAP3 PUSH1 0xFF DUP5 AND PUSH2 0x2E0E JUMPI PUSH1 0x4B SLOAD SWAP3 DUP4 ISZERO PUSH2 0x302C JUMPI PUSH1 0x49 SLOAD SWAP2 PUSH2 0x2F90 DUP6 DUP5 PUSH2 0x2123 JUMP JUMPDEST SWAP2 PUSH2 0x2FA5 PUSH2 0x2F9E DUP8 DUP6 PUSH2 0x2C86 JUMP JUMPDEST DUP1 SWAP6 PUSH2 0x206D JUMP JUMPDEST SWAP2 JUMPDEST DUP6 DUP3 SSTORE DUP4 PUSH1 0x3 DUP4 ADD SSTORE DUP7 PUSH1 0x2 DUP4 ADD SSTORE PUSH1 0x49 SLOAD PUSH1 0x1 DUP4 ADD SSTORE DUP3 PUSH1 0x7 DUP4 ADD SSTORE PUSH1 0x48 SLOAD SWAP2 PUSH3 0x278D00 DUP4 ADD DUP1 SWAP4 GT PUSH2 0x97B JUMPI PUSH1 0x6 PUSH1 0x1 SWAP2 ADD SWAP9 DUP4 DUP11 SSTORE PUSH1 0xFF NOT AND OR SWAP1 SSTORE PUSH1 0x48 SSTORE PUSH1 0x1 DUP5 ADD SWAP3 DUP4 DUP6 GT PUSH2 0x97B JUMPI PUSH32 0x3E2269A22C7571B51C53565ECE51DA09613519B306C6DDE588BEEA1F5FD3CFD3 SWAP7 PUSH2 0x2DEE SWAP5 PUSH1 0x47 SSTORE DUP3 PUSH1 0x49 SSTORE PUSH2 0x2DB6 DUP4 DUP4 PUSH2 0x1EC8 JUMP JUMPDEST SWAP1 PUSH1 0x49 SLOAD PUSH0 SWAP3 PUSH0 SWAP3 PUSH2 0x2FA7 JUMP JUMPDEST SWAP1 DUP1 PUSH0 MSTORE PUSH1 0x3E PUSH1 0x20 MSTORE PUSH1 0x40 PUSH0 KECCAK256 DUP3 PUSH0 MSTORE PUSH1 0x20 MSTORE PUSH1 0xFF PUSH1 0x3 PUSH1 0x40 PUSH0 KECCAK256 ADD SLOAD PUSH1 0x8 SHR AND ISZERO PUSH2 0x3063 JUMPI POP POP JUMP JUMPDEST PUSH2 0x229E SWAP2 PUSH2 0x313B JUMP JUMPDEST PUSH1 0x2 SLOAD PUSH1 0x1 PUSH1 0x1 PUSH1 0xA0 SHL SUB AND SWAP1 DUP2 ISZERO PUSH2 0x3102 JUMPI PUSH1 0x1 SLOAD PUSH1 0x80 SWAP3 PUSH2 0x309A SWAP2 DUP4 SWAP2 SWAP1 PUSH1 0x1 PUSH1 0x1 PUSH1 0xA0 SHL SUB AND PUSH2 0x3362 JUMP JUMPDEST PUSH1 0x5 SLOAD PUSH0 MSTORE PUSH1 0x11 PUSH1 0x20 MSTORE PUSH1 0x40 PUSH0 KECCAK256 PUSH2 0x30B3 DUP3 DUP3 SLOAD PUSH2 0x1EC8 JUMP JUMPDEST SWAP1 SSTORE PUSH1 0x1 DUP1 PUSH1 0xA0 SHL SUB PUSH1 0x2 SLOAD AND PUSH32 0x4D634C31300B97DAD99B3AF799178230163D88AD306370D063BE9CD992D0BE7F PUSH1 0x5 SLOAD SWAP4 DUP5 SWAP4 PUSH1 0x40 MLOAD SWAP1 DUP2 MSTORE PUSH0 PUSH1 0x20 DUP3 ADD MSTORE PUSH0 PUSH1 0x40 DUP3 ADD MSTORE TIMESTAMP PUSH1 0x60 DUP3 ADD MSTORE LOG4 JUMP JUMPDEST PUSH1 0x40 MLOAD PUSH3 0x461BCD PUSH1 0xE5 SHL DUP2 MSTORE PUSH1 0x20 PUSH1 0x4 DUP3 ADD MSTORE PUSH1 0x11 PUSH1 0x24 DUP3 ADD MSTORE PUSH17 0x199959481859191C9CC81B9BDD081CD95D PUSH1 0x7A SHL PUSH1 0x44 DUP3 ADD MSTORE PUSH1 0x64 SWAP1 REVERT JUMPDEST SWAP1 PUSH1 0x39 SLOAD DUP2 SUB PUSH2 0x332D JUMPI DUP1 PUSH0 MSTORE PUSH1 0x3C PUSH1 0x20 MSTORE PUSH1 0xFF PUSH1 0x8 PUSH1 0x40 PUSH0 KECCAK256 ADD SLOAD AND PUSH2 0x32F9 JUMPI PUSH0 DUP3 DUP2 MSTORE PUSH32 0x8E3CAAC72B6C5BB0462DA38C8C8C3B5FBC00A646BD75367C23C11D594C4E36C9 PUSH1 0x20 MSTORE PUSH1 0x40 SWAP1 DUP2 SWAP1 KECCAK256 SWAP1 MLOAD SWAP1 PUSH1 0x4 SWAP1 PUSH2 0x3199 DUP4 PUSH2 0x1E72 JUMP JUMPDEST DUP1 SLOAD DUP4 MSTORE PUSH1 0x1 DUP2 ADD SLOAD PUSH1 0x20 DUP5 ADD MSTORE PUSH1 0x2 DUP2 ADD SLOAD PUSH1 0x40 DUP5 ADD MSTORE PUSH1 0x3 DUP2 ADD SLOAD PUSH1 0x60 DUP5 ADD MSTORE ADD SLOAD PUSH1 0x80 DUP3 ADD SWAP1 DUP2 MSTORE DUP3 PUSH0 MSTORE PUSH1 0x3F PUSH1 0x20 MSTORE PUSH1 0x40 PUSH0 KECCAK256 DUP5 PUSH0 MSTORE PUSH1 0x20 MSTORE DUP4 PUSH1 0x5 PUSH1 0x40 PUSH0 KECCAK256 SLOAD LT SWAP3 MLOAD EQ SWAP1 DUP2 PUSH2 0x32D0 JUMPI JUMPDEST POP DUP2 ISZERO SWAP2 PUSH2 0x32C8 JUMPI JUMPDEST POP ISZERO PUSH2 0x3283 JUMPI DUP1 PUSH0 MSTORE PUSH1 0x3E PUSH1 0x20 MSTORE PUSH1 0x40 PUSH0 KECCAK256 DUP3 PUSH0 MSTORE PUSH1 0x20 MSTORE PUSH1 0x40 PUSH0 KECCAK256 SWAP1 PUSH1 0x3 DUP3 ADD SWAP3 PUSH1 0xFF DUP5 SLOAD PUSH1 0x8 SHR AND PUSH2 0x2E0E JUMPI PUSH32 0x360CB96D3E85B4FC299DDFA9A572850FC70961C86F0F1703F033143B0E5A82CF SWAP4 DUP3 PUSH1 0x1 PUSH1 0x60 SWAP6 DUP3 PUSH0 MSTORE PUSH1 0x3D PUSH1 0x20 MSTORE PUSH2 0x325D DUP6 PUSH1 0x40 PUSH0 KECCAK256 PUSH2 0x20EF JUMP JUMPDEST TIMESTAMP DUP2 SSTORE ADD SSTORE PUSH2 0x100 PUSH2 0xFF00 NOT DUP3 SLOAD AND OR SWAP1 SSTORE PUSH1 0x40 MLOAD SWAP2 DUP3 MSTORE PUSH1 0x20 DUP3 ADD MSTORE TIMESTAMP PUSH1 0x40 DUP3 ADD MSTORE LOG1 JUMP JUMPDEST PUSH1 0x40 MLOAD PUSH3 0x461BCD PUSH1 0xE5 SHL DUP2 MSTORE PUSH1 0x20 PUSH1 0x4 DUP3 ADD MSTORE PUSH1 0x1F PUSH1 0x24 DUP3 ADD MSTORE PUSH32 0x4E6F7420656C696769626C6520666F72207765656B6C7920636F6E7465737400 PUSH1 0x44 DUP3 ADD MSTORE PUSH1 0x64 SWAP1 REVERT JUMPDEST SWAP1 POP PUSH0 PUSH2 0x31F2 JUMP JUMPDEST SWAP1 POP MLOAD DUP4 PUSH0 MSTORE PUSH1 0x10 PUSH1 0x20 MSTORE PUSH1 0x11 PUSH1 0x40 PUSH0 KECCAK256 ADD SLOAD SWAP1 PUSH3 0x15180 DUP3 ADD DUP1 SWAP3 GT PUSH2 0x97B JUMPI GT ISZERO PUSH0 PUSH2 0x31E9 JUMP JUMPDEST PUSH1 0x40 MLOAD PUSH3 0x461BCD PUSH1 0xE5 SHL DUP2 MSTORE PUSH1 0x20 PUSH1 0x4 DUP3 ADD MSTORE PUSH1 0xC PUSH1 0x24 DUP3 ADD MSTORE PUSH12 0x149BDD5B990818DB1BDCD959 PUSH1 0xA2 SHL PUSH1 0x44 DUP3 ADD MSTORE PUSH1 0x64 SWAP1 REVERT JUMPDEST PUSH1 0x40 MLOAD PUSH3 0x461BCD PUSH1 0xE5 SHL DUP2 MSTORE PUSH1 0x20 PUSH1 0x4 DUP3 ADD MSTORE PUSH1 0xD PUSH1 0x24 DUP3 ADD MSTORE PUSH13 0x125B9D985B1A59081C9BDD5B99 PUSH1 0x9A SHL PUSH1 0x44 DUP3 ADD MSTORE PUSH1 0x64 SWAP1 REVERT JUMPDEST PUSH1 0x40 MLOAD PUSH4 0xA9059CBB PUSH1 0xE0 SHL PUSH1 0x20 DUP3 DUP2 ADD SWAP2 DUP3 MSTORE PUSH1 0x1 PUSH1 0x1 PUSH1 0xA0 SHL SUB SWAP1 SWAP5 AND PUSH1 0x24 DUP4 ADD MSTORE PUSH1 0x44 DUP1 DUP4 ADD SWAP6 SWAP1 SWAP6 MSTORE SWAP4 DUP2 MSTORE SWAP1 SWAP3 PUSH0 SWAP2 PUSH2 0x33A0 PUSH1 0x64 DUP3 PUSH2 0x1E8E JUMP JUMPDEST MLOAD SWAP1 DUP3 DUP6 GAS CALL ISZERO PUSH2 0x9BC JUMPI PUSH0 MLOAD RETURNDATASIZE PUSH2 0x33E7 JUMPI POP PUSH1 0x1 PUSH1 0x1 PUSH1 0xA0 SHL SUB DUP2 AND EXTCODESIZE ISZERO JUMPDEST PUSH2 0x33C7 JUMPI POP JUMP JUMPDEST PUSH4 0x5274AFE7 PUSH1 0xE0 SHL PUSH0 SWAP1 DUP2 MSTORE PUSH1 0x1 PUSH1 0x1 PUSH1 0xA0 SHL SUB SWAP2 SWAP1 SWAP2 AND PUSH1 0x4 MSTORE PUSH1 0x24 SWAP1 REVERT JUMPDEST PUSH1 0x1 EQ ISZERO PUSH2 0x33C0 JUMP INVALID 0x26 0xAD 0xB2 0x2C EOFCREATE 0x82 RETURNDATACOPY CALL PREVRANDAO SWAP4 MCOPY SWAP16 0xBE CALL 0xB6 0xB4 LOG3 LOG2 SWAP14 0xAC 0xBE SLOAD PREVRANDAO 0xD5 SWAP3 SWAP3 STATICCALL 0x26 KECCAK256 RETURN 0xD3 PUSH24 0xA2646970667358221220598392E6068119EFB8CFD420B84B 0x23 SHL EXTSTATICCALL 0xD5 PREVRANDAO DUP13 EXTCALL 0xF7 0xCA RJUMPI 0xD04A ADDMOD 0xB9 0xC PREVRANDAO 0x24 ADD PUSH5 0x736F6C6343 STOP ADDMOD 0x1E STOP CALLER "
		},
		"gasEstimates": {
			"creation": {
				"codeDepositCost": "2676400",
				"executionCost": "infinite",
				"totalCost": "infinite"
			},
			"external": {
				"ACC_PRECISION()": "554",
				"MONTHLY_ROYALTY_DIRECT()": "1654",
				"MONTHLY_ROYALTY_LEVEL()": "390",
				"MONTHLY_ROYALTY_TIME()": "1324",
				"MONTH_DURATION()": "400",
				"PERCENTS_DIVIDER()": "202",
				"ROI_2X_TIME()": "642",
				"ROI_CAP_DIVIDER()": "830",
				"ROI_CAP_MULTIPLIER()": "610",
				"RetopPoolByEarning(uint256,uint256)": "infinite",
				"TIME_STEP()": "532",
				"TOP_ROYALTY_DIRECT()": "510",
				"TOP_ROYALTY_LEVEL()": "434",
				"TOP_ROYALTY_TIME()": "972",
				"WEEK_DURATION()": "1016",
				"WeeklyCapping()": "1742",
				"WeeklyTotalReward()": "2591",
				"addressToId(address)": "3802",
				"boosterUsers(uint256,uint256)": "8062",
				"canBuyNextPool(uint256)": "9864",
				"communityAccPerPackage(uint256)": "2876",
				"communityAccPerUser()": "3163",
				"communityDebt(uint256,uint256)": "3397",
				"creatorWallet()": "3209",
				"currentMonthlyRound()": "3647",
				"currentMonthlyStartTime()": "3801",
				"currentWeeklyRound()": "3669",
				"currentWeeklyStartTime()": "3952",
				"defaultRefId()": "3867",
				"directReferrals(uint256,uint256)": "7468",
				"glbBoosterPackages(uint256)": "6815",
				"incomeHistory(uint256,uint256)": "13954",
				"matrixDirect(uint256)": "3272",
				"minLevelForGlbBooster(uint256)": "3773",
				"minLevelForPool(uint256)": "2475",
				"minPoolForGlbBooster(uint256)": "3377",
				"monthlyCapping()": "1522",
				"monthlyQualifiedUsers(uint256)": "6818",
				"monthlyRoyaltyUserdtl(uint256)": "9279",
				"monthlyRoyaltydtl(uint256)": "20221",
				"monthlyTotalReward()": "3405",
				"monthlyUserDirects(uint256,uint256)": "8392",
				"packageQualifiedUsers(uint256)": "2414",
				"packages(uint256)": "7915",
				"poolPackages(uint256)": "7805",
				"poolUsers(uint256,uint256)": "6874",
				"registeredUserIds(uint256)": "6994",
				"systemMaintance()": "3847",
				"teamDevelopment()": "3935",
				"teams(uint256,uint256,uint256)": "7472",
				"topRoyaltyQualifiedUsers(uint256)": "8160",
				"topRoyaltyReward()": "2987",
				"topRoyaltyRound()": "2855",
				"topRoyaltyStartTime()": "3361",
				"topRoyaltyUserDirects(uint256,uint256)": "7336",
				"topRoyaltyUserdtl(uint256)": "10291",
				"topRoyaltydtl(uint256)": "19495",
				"totalUsers()": "3537",
				"upgradeBooster(uint256)": "infinite",
				"upgradePool(uint256)": "infinite",
				"upgradePoolByEarning(uint32,uint256)": "infinite",
				"usdt()": "2593",
				"userBoosterChildren(uint256,uint256,uint256)": "6922",
				"userBoosterdtl(uint256,uint256)": "12050",
				"userChildren(uint256,uint256,uint256)": "7824",
				"userHasPool(uint256,uint256)": "3673",
				"userHasbooster(uint256,uint256)": "3563",
				"userIdPerPool(uint256,uint256,uint256)": "7780",
				"userIncomes(uint256)": "26287",
				"userPackage(uint256,uint256)": "9598",
				"userPooldtl(uint256,uint256)": "12446",
				"userPooltopup(uint256,uint256)": "5810",
				"users(uint256)": "45493",
				"weeklyContestdtl(uint256)": "20749",
				"weeklyQualifiedUsers(uint256,uint256)": "6830",
				"weeklyUserDirects(uint256,uint256,uint256)": "7428",
				"weeklyUserdtl(uint256,uint256)": "8929"
			},
			"internal": {
				"_distributePoolIncome(uint256,uint256,uint256,uint256)": "infinite",
				"_payPoolIncome(uint256,uint256,uint256,uint256,uint256)": "infinite",
				"_placeInBooster(uint256,uint256,uint256)": "infinite",
				"_placeInPool(uint256,uint256,uint256)": "infinite"
			}
		},
		"methodIdentifiers": {
			"ACC_PRECISION()": "32fcd966",
			"MONTHLY_ROYALTY_DIRECT()": "d2f0490d",
			"MONTHLY_ROYALTY_LEVEL()": "23fd338e",
			"MONTHLY_ROYALTY_TIME()": "a5e52b99",
			"MONTH_DURATION()": "2a891534",
			"PERCENTS_DIVIDER()": "01c234a8",
			"ROI_2X_TIME()": "3a5084b3",
			"ROI_CAP_DIVIDER()": "58c7d352",
			"ROI_CAP_MULTIPLIER()": "375b43b4",
			"RetopPoolByEarning(uint256,uint256)": "7848f0a3",
			"TIME_STEP()": "32bc298c",
			"TOP_ROYALTY_DIRECT()": "31bb6a30",
			"TOP_ROYALTY_LEVEL()": "2ae0ee0d",
			"TOP_ROYALTY_TIME()": "705fee2d",
			"WEEK_DURATION()": "76f5f700",
			"WeeklyCapping()": "ebe0ff15",
			"WeeklyTotalReward()": "3080b5bc",
			"addressToId(address)": "cb0e0d7d",
			"boosterUsers(uint256,uint256)": "c7bb62e8",
			"canBuyNextPool(uint256)": "67d52d4d",
			"communityAccPerPackage(uint256)": "45cb537c",
			"communityAccPerUser()": "78f6ad6d",
			"communityDebt(uint256,uint256)": "89043ece",
			"creatorWallet()": "7cdc65f2",
			"currentMonthlyRound()": "c9ed0708",
			"currentMonthlyStartTime()": "e898fc38",
			"currentWeeklyRound()": "ca8e9121",
			"currentWeeklyStartTime()": "fddc806f",
			"defaultRefId()": "ec597e6f",
			"directReferrals(uint256,uint256)": "5ec64a44",
			"glbBoosterPackages(uint256)": "2350268f",
			"incomeHistory(uint256,uint256)": "70c8d770",
			"matrixDirect(uint256)": "88afbe3e",
			"minLevelForGlbBooster(uint256)": "d0a2fd79",
			"minLevelForPool(uint256)": "2132d204",
			"minPoolForGlbBooster(uint256)": "956a3228",
			"monthlyCapping()": "c8df2908",
			"monthlyQualifiedUsers(uint256)": "2d66014f",
			"monthlyRoyaltyUserdtl(uint256)": "4036436c",
			"monthlyRoyaltydtl(uint256)": "6a424782",
			"monthlyTotalReward()": "a59d17d1",
			"monthlyUserDirects(uint256,uint256)": "f7a24806",
			"packageQualifiedUsers(uint256)": "0676d0d6",
			"packages(uint256)": "c216212a",
			"poolPackages(uint256)": "ae4708dc",
			"poolUsers(uint256,uint256)": "0f2b7cc9",
			"registeredUserIds(uint256)": "39ab3603",
			"systemMaintance()": "e9e34a16",
			"teamDevelopment()": "f5d74d93",
			"teams(uint256,uint256,uint256)": "5aabf7f1",
			"topRoyaltyQualifiedUsers(uint256)": "f5748c4f",
			"topRoyaltyReward()": "5b62d1d5",
			"topRoyaltyRound()": "4b8cbf9b",
			"topRoyaltyStartTime()": "9b40ab97",
			"topRoyaltyUserDirects(uint256,uint256)": "4d12ae0f",
			"topRoyaltyUserdtl(uint256)": "db27cc71",
			"topRoyaltydtl(uint256)": "056b4d1f",
			"totalUsers()": "bff1f9e1",
			"upgradeBooster(uint256)": "bc1fa7c0",
			"upgradePool(uint256)": "4060160a",
			"upgradePoolByEarning(uint32,uint256)": "8e222e24",
			"usdt()": "2f48ab7d",
			"userBoosterChildren(uint256,uint256,uint256)": "0ef81b74",
			"userBoosterdtl(uint256,uint256)": "907c84a7",
			"userChildren(uint256,uint256,uint256)": "8f030ece",
			"userHasPool(uint256,uint256)": "bd1aae40",
			"userHasbooster(uint256,uint256)": "9c383486",
			"userIdPerPool(uint256,uint256,uint256)": "8d58644c",
			"userIncomes(uint256)": "46b9dece",
			"userPackage(uint256,uint256)": "5b58ce6c",
			"userPooldtl(uint256,uint256)": "ce79c2c3",
			"userPooltopup(uint256,uint256)": "bf724672",
			"users(uint256)": "365b98b2",
			"weeklyContestdtl(uint256)": "c4eb42a5",
			"weeklyQualifiedUsers(uint256,uint256)": "0a5c5d69",
			"weeklyUserDirects(uint256,uint256,uint256)": "4d4cc5ca",
			"weeklyUserdtl(uint256,uint256)": "0054815d"
		}
	},
	"abi": [
		{
			"inputs": [],
			"stateMutability": "nonpayable",
			"type": "constructor"
		},
		{
			"inputs": [
				{
					"internalType": "address",
					"name": "token",
					"type": "address"
				}
			],
			"name": "SafeERC20FailedOperation",
			"type": "error"
		},
		{
			"anonymous": false,
			"inputs": [
				{
					"indexed": false,
					"internalType": "uint256",
					"name": "amount",
					"type": "uint256"
				},
				{
					"indexed": false,
					"internalType": "uint256",
					"name": "usersCount",
					"type": "uint256"
				},
				{
					"indexed": false,
					"internalType": "uint256",
					"name": "perUser",
					"type": "uint256"
				}
			],
			"name": "CommunityBonusDistributed",
			"type": "event"
		},
		{
			"anonymous": false,
			"inputs": [
				{
					"indexed": true,
					"internalType": "address",
					"name": "to",
					"type": "address"
				},
				{
					"indexed": true,
					"internalType": "address",
					"name": "from",
					"type": "address"
				},
				{
					"indexed": false,
					"internalType": "uint256",
					"name": "amount",
					"type": "uint256"
				},
				{
					"indexed": false,
					"internalType": "uint256",
					"name": "packageLevel",
					"type": "uint256"
				},
				{
					"indexed": false,
					"internalType": "uint256",
					"name": "incomeType",
					"type": "uint256"
				}
			],
			"name": "IncomeDistributed",
			"type": "event"
		},
		{
			"anonymous": false,
			"inputs": [
				{
					"indexed": true,
					"internalType": "address",
					"name": "to",
					"type": "address"
				},
				{
					"indexed": true,
					"internalType": "uint256",
					"name": "toId",
					"type": "uint256"
				},
				{
					"indexed": true,
					"internalType": "uint256",
					"name": "fromId",
					"type": "uint256"
				},
				{
					"indexed": false,
					"internalType": "uint256",
					"name": "amount",
					"type": "uint256"
				},
				{
					"indexed": false,
					"internalType": "uint256",
					"name": "packageLevel",
					"type": "uint256"
				},
				{
					"indexed": false,
					"internalType": "enum Storage.IncomeType",
					"name": "incomeType",
					"type": "uint8"
				},
				{
					"indexed": false,
					"internalType": "uint256",
					"name": "timestamp",
					"type": "uint256"
				}
			],
			"name": "IncomeDistribution",
			"type": "event"
		},
		{
			"anonymous": false,
			"inputs": [
				{
					"indexed": true,
					"internalType": "address",
					"name": "winner",
					"type": "address"
				},
				{
					"indexed": true,
					"internalType": "uint256",
					"name": "fromUserId",
					"type": "uint256"
				},
				{
					"indexed": false,
					"internalType": "uint256",
					"name": "amount",
					"type": "uint256"
				},
				{
					"indexed": false,
					"internalType": "uint256",
					"name": "timestamp",
					"type": "uint256"
				}
			],
			"name": "LotteryReward",
			"type": "event"
		},
		{
			"anonymous": false,
			"inputs": [
				{
					"indexed": false,
					"internalType": "uint256",
					"name": "roundId",
					"type": "uint256"
				},
				{
					"indexed": false,
					"internalType": "uint256",
					"name": "totalUsers",
					"type": "uint256"
				},
				{
					"indexed": false,
					"internalType": "uint256",
					"name": "perUserReward",
					"type": "uint256"
				},
				{
					"indexed": false,
					"internalType": "uint256",
					"name": "totalReward",
					"type": "uint256"
				},
				{
					"indexed": false,
					"internalType": "uint256",
					"name": "totalDistributed",
					"type": "uint256"
				},
				{
					"indexed": false,
					"internalType": "uint256",
					"name": "leftoverReward",
					"type": "uint256"
				},
				{
					"indexed": false,
					"internalType": "uint256",
					"name": "endTime",
					"type": "uint256"
				}
			],
			"name": "MonthlyClosed",
			"type": "event"
		},
		{
			"anonymous": false,
			"inputs": [
				{
					"indexed": false,
					"internalType": "uint256",
					"name": "roundId",
					"type": "uint256"
				},
				{
					"indexed": false,
					"internalType": "uint256",
					"name": "userId",
					"type": "uint256"
				},
				{
					"indexed": false,
					"internalType": "uint256",
					"name": "perUserReward",
					"type": "uint256"
				},
				{
					"indexed": false,
					"internalType": "uint256",
					"name": "claimTime",
					"type": "uint256"
				}
			],
			"name": "MonthlyRewardClaim",
			"type": "event"
		},
		{
			"anonymous": false,
			"inputs": [
				{
					"indexed": false,
					"internalType": "uint256",
					"name": "roundId",
					"type": "uint256"
				},
				{
					"indexed": false,
					"internalType": "uint256",
					"name": "userId",
					"type": "uint256"
				},
				{
					"indexed": false,
					"internalType": "uint256",
					"name": "joinTime",
					"type": "uint256"
				}
			],
			"name": "MonthlyRoyaltyQualified",
			"type": "event"
		},
		{
			"anonymous": false,
			"inputs": [
				{
					"indexed": true,
					"internalType": "address",
					"name": "user",
					"type": "address"
				},
				{
					"indexed": true,
					"internalType": "address",
					"name": "sponsor",
					"type": "address"
				},
				{
					"indexed": true,
					"internalType": "uint256",
					"name": "userId",
					"type": "uint256"
				},
				{
					"indexed": false,
					"internalType": "uint256",
					"name": "uplineId",
					"type": "uint256"
				}
			],
			"name": "Registration",
			"type": "event"
		},
		{
			"anonymous": false,
			"inputs": [
				{
					"indexed": true,
					"internalType": "address",
					"name": "to",
					"type": "address"
				},
				{
					"indexed": false,
					"internalType": "uint256",
					"name": "amount",
					"type": "uint256"
				},
				{
					"indexed": false,
					"internalType": "string",
					"name": "level",
					"type": "string"
				}
			],
			"name": "RewardSent",
			"type": "event"
		},
		{
			"anonymous": false,
			"inputs": [
				{
					"indexed": false,
					"internalType": "uint256",
					"name": "roundId",
					"type": "uint256"
				},
				{
					"indexed": false,
					"internalType": "uint256",
					"name": "totalUsers",
					"type": "uint256"
				},
				{
					"indexed": false,
					"internalType": "uint256",
					"name": "perUserReward",
					"type": "uint256"
				},
				{
					"indexed": false,
					"internalType": "uint256",
					"name": "totalReward",
					"type": "uint256"
				},
				{
					"indexed": false,
					"internalType": "uint256",
					"name": "totalDistributed",
					"type": "uint256"
				},
				{
					"indexed": false,
					"internalType": "uint256",
					"name": "leftoverReward",
					"type": "uint256"
				},
				{
					"indexed": false,
					"internalType": "uint256",
					"name": "endTime",
					"type": "uint256"
				}
			],
			"name": "TopRoyaltyClosed",
			"type": "event"
		},
		{
			"anonymous": false,
			"inputs": [
				{
					"indexed": false,
					"internalType": "uint256",
					"name": "roundId",
					"type": "uint256"
				},
				{
					"indexed": false,
					"internalType": "uint256",
					"name": "userId",
					"type": "uint256"
				},
				{
					"indexed": false,
					"internalType": "uint256",
					"name": "joinTime",
					"type": "uint256"
				}
			],
			"name": "TopRoyaltyQualified",
			"type": "event"
		},
		{
			"anonymous": false,
			"inputs": [
				{
					"indexed": false,
					"internalType": "uint256",
					"name": "roundId",
					"type": "uint256"
				},
				{
					"indexed": false,
					"internalType": "uint256",
					"name": "userId",
					"type": "uint256"
				},
				{
					"indexed": false,
					"internalType": "uint256",
					"name": "perUserReward",
					"type": "uint256"
				},
				{
					"indexed": false,
					"internalType": "uint256",
					"name": "claimTime",
					"type": "uint256"
				}
			],
			"name": "TopRoyaltyRewardClaim",
			"type": "event"
		},
		{
			"anonymous": false,
			"inputs": [
				{
					"indexed": true,
					"internalType": "address",
					"name": "user",
					"type": "address"
				},
				{
					"indexed": true,
					"internalType": "uint256",
					"name": "userId",
					"type": "uint256"
				},
				{
					"indexed": false,
					"internalType": "uint256",
					"name": "packageLevel",
					"type": "uint256"
				},
				{
					"indexed": false,
					"internalType": "uint256",
					"name": "packagePrice",
					"type": "uint256"
				},
				{
					"indexed": false,
					"internalType": "string",
					"name": "depositType",
					"type": "string"
				},
				{
					"indexed": false,
					"internalType": "uint256",
					"name": "upgradeTime",
					"type": "uint256"
				}
			],
			"name": "Upgrade",
			"type": "event"
		},
		{
			"anonymous": false,
			"inputs": [
				{
					"indexed": true,
					"internalType": "uint8",
					"name": "matrixId",
					"type": "uint8"
				},
				{
					"indexed": true,
					"internalType": "uint32",
					"name": "userId",
					"type": "uint32"
				},
				{
					"indexed": true,
					"internalType": "address",
					"name": "user",
					"type": "address"
				},
				{
					"indexed": false,
					"internalType": "uint32",
					"name": "parentId",
					"type": "uint32"
				},
				{
					"indexed": false,
					"internalType": "address",
					"name": "parentAddr",
					"type": "address"
				},
				{
					"indexed": false,
					"internalType": "uint8",
					"name": "position",
					"type": "uint8"
				}
			],
			"name": "UserJoined",
			"type": "event"
		},
		{
			"anonymous": false,
			"inputs": [
				{
					"indexed": false,
					"internalType": "uint256",
					"name": "roundId",
					"type": "uint256"
				},
				{
					"indexed": false,
					"internalType": "uint256",
					"name": "totalUsers",
					"type": "uint256"
				},
				{
					"indexed": false,
					"internalType": "uint256",
					"name": "perUserReward",
					"type": "uint256"
				},
				{
					"indexed": false,
					"internalType": "uint256",
					"name": "totalReward",
					"type": "uint256"
				},
				{
					"indexed": false,
					"internalType": "uint256",
					"name": "totalDistributed",
					"type": "uint256"
				},
				{
					"indexed": false,
					"internalType": "uint256",
					"name": "leftoverReward",
					"type": "uint256"
				},
				{
					"indexed": false,
					"internalType": "uint256",
					"name": "endTime",
					"type": "uint256"
				}
			],
			"name": "WeeklyClosed",
			"type": "event"
		},
		{
			"anonymous": false,
			"inputs": [
				{
					"indexed": false,
					"internalType": "uint256",
					"name": "roundId",
					"type": "uint256"
				},
				{
					"indexed": false,
					"internalType": "uint256",
					"name": "userId",
					"type": "uint256"
				},
				{
					"indexed": false,
					"internalType": "uint256",
					"name": "joinTime",
					"type": "uint256"
				}
			],
			"name": "WeeklyContestQualified",
			"type": "event"
		},
		{
			"anonymous": false,
			"inputs": [
				{
					"indexed": false,
					"internalType": "uint256",
					"name": "roundId",
					"type": "uint256"
				},
				{
					"indexed": false,
					"internalType": "uint256",
					"name": "userId",
					"type": "uint256"
				},
				{
					"indexed": false,
					"internalType": "uint256",
					"name": "perUserReward",
					"type": "uint256"
				},
				{
					"indexed": false,
					"internalType": "uint256",
					"name": "claimTime",
					"type": "uint256"
				}
			],
			"name": "WeeklyRewardClaim",
			"type": "event"
		},
		{
			"inputs": [],
			"name": "ACC_PRECISION",
			"outputs": [
				{
					"internalType": "uint256",
					"name": "",
					"type": "uint256"
				}
			],
			"stateMutability": "view",
			"type": "function"
		},
		{
			"inputs": [],
			"name": "MONTHLY_ROYALTY_DIRECT",
			"outputs": [
				{
					"internalType": "uint256",
					"name": "",
					"type": "uint256"
				}
			],
			"stateMutability": "view",
			"type": "function"
		},
		{
			"inputs": [],
			"name": "MONTHLY_ROYALTY_LEVEL",
			"outputs": [
				{
					"internalType": "uint256",
					"name": "",
					"type": "uint256"
				}
			],
			"stateMutability": "view",
			"type": "function"
		},
		{
			"inputs": [],
			"name": "MONTHLY_ROYALTY_TIME",
			"outputs": [
				{
					"internalType": "uint256",
					"name": "",
					"type": "uint256"
				}
			],
			"stateMutability": "view",
			"type": "function"
		},
		{
			"inputs": [],
			"name": "MONTH_DURATION",
			"outputs": [
				{
					"internalType": "uint256",
					"name": "",
					"type": "uint256"
				}
			],
			"stateMutability": "view",
			"type": "function"
		},
		{
			"inputs": [],
			"name": "PERCENTS_DIVIDER",
			"outputs": [
				{
					"internalType": "uint256",
					"name": "",
					"type": "uint256"
				}
			],
			"stateMutability": "view",
			"type": "function"
		},
		{
			"inputs": [],
			"name": "ROI_2X_TIME",
			"outputs": [
				{
					"internalType": "uint256",
					"name": "",
					"type": "uint256"
				}
			],
			"stateMutability": "view",
			"type": "function"
		},
		{
			"inputs": [],
			"name": "ROI_CAP_DIVIDER",
			"outputs": [
				{
					"internalType": "uint256",
					"name": "",
					"type": "uint256"
				}
			],
			"stateMutability": "view",
			"type": "function"
		},
		{
			"inputs": [],
			"name": "ROI_CAP_MULTIPLIER",
			"outputs": [
				{
					"internalType": "uint256",
					"name": "",
					"type": "uint256"
				}
			],
			"stateMutability": "view",
			"type": "function"
		},
		{
			"inputs": [
				{
					"internalType": "uint256",
					"name": "_userId",
					"type": "uint256"
				},
				{
					"internalType": "uint256",
					"name": "_poolId",
					"type": "uint256"
				}
			],
			"name": "RetopPoolByEarning",
			"outputs": [],
			"stateMutability": "nonpayable",
			"type": "function"
		},
		{
			"inputs": [],
			"name": "TIME_STEP",
			"outputs": [
				{
					"internalType": "uint256",
					"name": "",
					"type": "uint256"
				}
			],
			"stateMutability": "view",
			"type": "function"
		},
		{
			"inputs": [],
			"name": "TOP_ROYALTY_DIRECT",
			"outputs": [
				{
					"internalType": "uint256",
					"name": "",
					"type": "uint256"
				}
			],
			"stateMutability": "view",
			"type": "function"
		},
		{
			"inputs": [],
			"name": "TOP_ROYALTY_LEVEL",
			"outputs": [
				{
					"internalType": "uint256",
					"name": "",
					"type": "uint256"
				}
			],
			"stateMutability": "view",
			"type": "function"
		},
		{
			"inputs": [],
			"name": "TOP_ROYALTY_TIME",
			"outputs": [
				{
					"internalType": "uint256",
					"name": "",
					"type": "uint256"
				}
			],
			"stateMutability": "view",
			"type": "function"
		},
		{
			"inputs": [],
			"name": "WEEK_DURATION",
			"outputs": [
				{
					"internalType": "uint256",
					"name": "",
					"type": "uint256"
				}
			],
			"stateMutability": "view",
			"type": "function"
		},
		{
			"inputs": [],
			"name": "WeeklyCapping",
			"outputs": [
				{
					"internalType": "uint256",
					"name": "",
					"type": "uint256"
				}
			],
			"stateMutability": "view",
			"type": "function"
		},
		{
			"inputs": [],
			"name": "WeeklyTotalReward",
			"outputs": [
				{
					"internalType": "uint256",
					"name": "",
					"type": "uint256"
				}
			],
			"stateMutability": "view",
			"type": "function"
		},
		{
			"inputs": [
				{
					"internalType": "address",
					"name": "",
					"type": "address"
				}
			],
			"name": "addressToId",
			"outputs": [
				{
					"internalType": "uint256",
					"name": "",
					"type": "uint256"
				}
			],
			"stateMutability": "view",
			"type": "function"
		},
		{
			"inputs": [
				{
					"internalType": "uint256",
					"name": "",
					"type": "uint256"
				},
				{
					"internalType": "uint256",
					"name": "",
					"type": "uint256"
				}
			],
			"name": "boosterUsers",
			"outputs": [
				{
					"internalType": "uint256",
					"name": "",
					"type": "uint256"
				}
			],
			"stateMutability": "view",
			"type": "function"
		},
		{
			"inputs": [
				{
					"internalType": "uint256",
					"name": "userId",
					"type": "uint256"
				}
			],
			"name": "canBuyNextPool",
			"outputs": [
				{
					"internalType": "bool",
					"name": "eligible",
					"type": "bool"
				},
				{
					"internalType": "string",
					"name": "reason",
					"type": "string"
				}
			],
			"stateMutability": "view",
			"type": "function"
		},
		{
			"inputs": [
				{
					"internalType": "uint256",
					"name": "",
					"type": "uint256"
				}
			],
			"name": "communityAccPerPackage",
			"outputs": [
				{
					"internalType": "uint256",
					"name": "",
					"type": "uint256"
				}
			],
			"stateMutability": "view",
			"type": "function"
		},
		{
			"inputs": [],
			"name": "communityAccPerUser",
			"outputs": [
				{
					"internalType": "uint256",
					"name": "",
					"type": "uint256"
				}
			],
			"stateMutability": "view",
			"type": "function"
		},
		{
			"inputs": [
				{
					"internalType": "uint256",
					"name": "",
					"type": "uint256"
				},
				{
					"internalType": "uint256",
					"name": "",
					"type": "uint256"
				}
			],
			"name": "communityDebt",
			"outputs": [
				{
					"internalType": "uint256",
					"name": "",
					"type": "uint256"
				}
			],
			"stateMutability": "view",
			"type": "function"
		},
		{
			"inputs": [],
			"name": "creatorWallet",
			"outputs": [
				{
					"internalType": "address",
					"name": "",
					"type": "address"
				}
			],
			"stateMutability": "view",
			"type": "function"
		},
		{
			"inputs": [],
			"name": "currentMonthlyRound",
			"outputs": [
				{
					"internalType": "uint256",
					"name": "",
					"type": "uint256"
				}
			],
			"stateMutability": "view",
			"type": "function"
		},
		{
			"inputs": [],
			"name": "currentMonthlyStartTime",
			"outputs": [
				{
					"internalType": "uint256",
					"name": "",
					"type": "uint256"
				}
			],
			"stateMutability": "view",
			"type": "function"
		},
		{
			"inputs": [],
			"name": "currentWeeklyRound",
			"outputs": [
				{
					"internalType": "uint256",
					"name": "",
					"type": "uint256"
				}
			],
			"stateMutability": "view",
			"type": "function"
		},
		{
			"inputs": [],
			"name": "currentWeeklyStartTime",
			"outputs": [
				{
					"internalType": "uint256",
					"name": "",
					"type": "uint256"
				}
			],
			"stateMutability": "view",
			"type": "function"
		},
		{
			"inputs": [],
			"name": "defaultRefId",
			"outputs": [
				{
					"internalType": "uint256",
					"name": "",
					"type": "uint256"
				}
			],
			"stateMutability": "view",
			"type": "function"
		},
		{
			"inputs": [
				{
					"internalType": "uint256",
					"name": "",
					"type": "uint256"
				},
				{
					"internalType": "uint256",
					"name": "",
					"type": "uint256"
				}
			],
			"name": "directReferrals",
			"outputs": [
				{
					"internalType": "uint256",
					"name": "",
					"type": "uint256"
				}
			],
			"stateMutability": "view",
			"type": "function"
		},
		{
			"inputs": [
				{
					"internalType": "uint256",
					"name": "",
					"type": "uint256"
				}
			],
			"name": "glbBoosterPackages",
			"outputs": [
				{
					"internalType": "uint256",
					"name": "",
					"type": "uint256"
				}
			],
			"stateMutability": "view",
			"type": "function"
		},
		{
			"inputs": [
				{
					"internalType": "uint256",
					"name": "",
					"type": "uint256"
				},
				{
					"internalType": "uint256",
					"name": "",
					"type": "uint256"
				}
			],
			"name": "incomeHistory",
			"outputs": [
				{
					"internalType": "uint256",
					"name": "fromUserId",
					"type": "uint256"
				},
				{
					"internalType": "uint256",
					"name": "amount",
					"type": "uint256"
				},
				{
					"internalType": "uint256",
					"name": "packageLevel",
					"type": "uint256"
				},
				{
					"internalType": "uint256",
					"name": "timestamp",
					"type": "uint256"
				},
				{
					"internalType": "uint256",
					"name": "incomeType",
					"type": "uint256"
				}
			],
			"stateMutability": "view",
			"type": "function"
		},
		{
			"inputs": [
				{
					"internalType": "uint256",
					"name": "",
					"type": "uint256"
				}
			],
			"name": "matrixDirect",
			"outputs": [
				{
					"internalType": "uint256",
					"name": "",
					"type": "uint256"
				}
			],
			"stateMutability": "view",
			"type": "function"
		},
		{
			"inputs": [
				{
					"internalType": "uint256",
					"name": "",
					"type": "uint256"
				}
			],
			"name": "minLevelForGlbBooster",
			"outputs": [
				{
					"internalType": "uint256",
					"name": "",
					"type": "uint256"
				}
			],
			"stateMutability": "view",
			"type": "function"
		},
		{
			"inputs": [
				{
					"internalType": "uint256",
					"name": "",
					"type": "uint256"
				}
			],
			"name": "minLevelForPool",
			"outputs": [
				{
					"internalType": "uint256",
					"name": "",
					"type": "uint256"
				}
			],
			"stateMutability": "view",
			"type": "function"
		},
		{
			"inputs": [
				{
					"internalType": "uint256",
					"name": "",
					"type": "uint256"
				}
			],
			"name": "minPoolForGlbBooster",
			"outputs": [
				{
					"internalType": "uint256",
					"name": "",
					"type": "uint256"
				}
			],
			"stateMutability": "view",
			"type": "function"
		},
		{
			"inputs": [],
			"name": "monthlyCapping",
			"outputs": [
				{
					"internalType": "uint256",
					"name": "",
					"type": "uint256"
				}
			],
			"stateMutability": "view",
			"type": "function"
		},
		{
			"inputs": [
				{
					"internalType": "uint256",
					"name": "",
					"type": "uint256"
				}
			],
			"name": "monthlyQualifiedUsers",
			"outputs": [
				{
					"internalType": "uint256",
					"name": "",
					"type": "uint256"
				}
			],
			"stateMutability": "view",
			"type": "function"
		},
		{
			"inputs": [
				{
					"internalType": "uint256",
					"name": "",
					"type": "uint256"
				}
			],
			"name": "monthlyRoyaltyUserdtl",
			"outputs": [
				{
					"internalType": "uint256",
					"name": "joinTime",
					"type": "uint256"
				},
				{
					"internalType": "uint256",
					"name": "qualifiedRoundId",
					"type": "uint256"
				},
				{
					"internalType": "uint256",
					"name": "claimTime",
					"type": "uint256"
				},
				{
					"internalType": "bool",
					"name": "isQualified",
					"type": "bool"
				}
			],
			"stateMutability": "view",
			"type": "function"
		},
		{
			"inputs": [
				{
					"internalType": "uint256",
					"name": "",
					"type": "uint256"
				}
			],
			"name": "monthlyRoyaltydtl",
			"outputs": [
				{
					"internalType": "uint256",
					"name": "roundId",
					"type": "uint256"
				},
				{
					"internalType": "uint256",
					"name": "totalReward",
					"type": "uint256"
				},
				{
					"internalType": "uint256",
					"name": "totalUsers",
					"type": "uint256"
				},
				{
					"internalType": "uint256",
					"name": "perUserReward",
					"type": "uint256"
				},
				{
					"internalType": "uint256",
					"name": "claimedCount",
					"type": "uint256"
				},
				{
					"internalType": "uint256",
					"name": "startTime",
					"type": "uint256"
				},
				{
					"internalType": "uint256",
					"name": "endTime",
					"type": "uint256"
				},
				{
					"internalType": "uint256",
					"name": "carryForward",
					"type": "uint256"
				},
				{
					"internalType": "bool",
					"name": "closed",
					"type": "bool"
				}
			],
			"stateMutability": "view",
			"type": "function"
		},
		{
			"inputs": [],
			"name": "monthlyTotalReward",
			"outputs": [
				{
					"internalType": "uint256",
					"name": "",
					"type": "uint256"
				}
			],
			"stateMutability": "view",
			"type": "function"
		},
		{
			"inputs": [
				{
					"internalType": "uint256",
					"name": "",
					"type": "uint256"
				},
				{
					"internalType": "uint256",
					"name": "",
					"type": "uint256"
				}
			],
			"name": "monthlyUserDirects",
			"outputs": [
				{
					"internalType": "uint256",
					"name": "",
					"type": "uint256"
				}
			],
			"stateMutability": "view",
			"type": "function"
		},
		{
			"inputs": [
				{
					"internalType": "uint256",
					"name": "",
					"type": "uint256"
				}
			],
			"name": "packageQualifiedUsers",
			"outputs": [
				{
					"internalType": "uint256",
					"name": "",
					"type": "uint256"
				}
			],
			"stateMutability": "view",
			"type": "function"
		},
		{
			"inputs": [
				{
					"internalType": "uint256",
					"name": "",
					"type": "uint256"
				}
			],
			"name": "packages",
			"outputs": [
				{
					"internalType": "uint256",
					"name": "",
					"type": "uint256"
				}
			],
			"stateMutability": "view",
			"type": "function"
		},
		{
			"inputs": [
				{
					"internalType": "uint256",
					"name": "",
					"type": "uint256"
				}
			],
			"name": "poolPackages",
			"outputs": [
				{
					"internalType": "uint256",
					"name": "",
					"type": "uint256"
				}
			],
			"stateMutability": "view",
			"type": "function"
		},
		{
			"inputs": [
				{
					"internalType": "uint256",
					"name": "",
					"type": "uint256"
				},
				{
					"internalType": "uint256",
					"name": "",
					"type": "uint256"
				}
			],
			"name": "poolUsers",
			"outputs": [
				{
					"internalType": "uint256",
					"name": "",
					"type": "uint256"
				}
			],
			"stateMutability": "view",
			"type": "function"
		},
		{
			"inputs": [
				{
					"internalType": "uint256",
					"name": "",
					"type": "uint256"
				}
			],
			"name": "registeredUserIds",
			"outputs": [
				{
					"internalType": "uint256",
					"name": "",
					"type": "uint256"
				}
			],
			"stateMutability": "view",
			"type": "function"
		},
		{
			"inputs": [],
			"name": "systemMaintance",
			"outputs": [
				{
					"internalType": "address",
					"name": "",
					"type": "address"
				}
			],
			"stateMutability": "view",
			"type": "function"
		},
		{
			"inputs": [],
			"name": "teamDevelopment",
			"outputs": [
				{
					"internalType": "address",
					"name": "",
					"type": "address"
				}
			],
			"stateMutability": "view",
			"type": "function"
		},
		{
			"inputs": [
				{
					"internalType": "uint256",
					"name": "",
					"type": "uint256"
				},
				{
					"internalType": "uint256",
					"name": "",
					"type": "uint256"
				},
				{
					"internalType": "uint256",
					"name": "",
					"type": "uint256"
				}
			],
			"name": "teams",
			"outputs": [
				{
					"internalType": "uint256",
					"name": "",
					"type": "uint256"
				}
			],
			"stateMutability": "view",
			"type": "function"
		},
		{
			"inputs": [
				{
					"internalType": "uint256",
					"name": "",
					"type": "uint256"
				}
			],
			"name": "topRoyaltyQualifiedUsers",
			"outputs": [
				{
					"internalType": "uint256",
					"name": "",
					"type": "uint256"
				}
			],
			"stateMutability": "view",
			"type": "function"
		},
		{
			"inputs": [],
			"name": "topRoyaltyReward",
			"outputs": [
				{
					"internalType": "uint256",
					"name": "",
					"type": "uint256"
				}
			],
			"stateMutability": "view",
			"type": "function"
		},
		{
			"inputs": [],
			"name": "topRoyaltyRound",
			"outputs": [
				{
					"internalType": "uint256",
					"name": "",
					"type": "uint256"
				}
			],
			"stateMutability": "view",
			"type": "function"
		},
		{
			"inputs": [],
			"name": "topRoyaltyStartTime",
			"outputs": [
				{
					"internalType": "uint256",
					"name": "",
					"type": "uint256"
				}
			],
			"stateMutability": "view",
			"type": "function"
		},
		{
			"inputs": [
				{
					"internalType": "uint256",
					"name": "",
					"type": "uint256"
				},
				{
					"internalType": "uint256",
					"name": "",
					"type": "uint256"
				}
			],
			"name": "topRoyaltyUserDirects",
			"outputs": [
				{
					"internalType": "uint256",
					"name": "",
					"type": "uint256"
				}
			],
			"stateMutability": "view",
			"type": "function"
		},
		{
			"inputs": [
				{
					"internalType": "uint256",
					"name": "",
					"type": "uint256"
				}
			],
			"name": "topRoyaltyUserdtl",
			"outputs": [
				{
					"internalType": "uint256",
					"name": "joinTime",
					"type": "uint256"
				},
				{
					"internalType": "uint256",
					"name": "qualifiedRoundId",
					"type": "uint256"
				},
				{
					"internalType": "uint256",
					"name": "claimTime",
					"type": "uint256"
				},
				{
					"internalType": "bool",
					"name": "isQualified",
					"type": "bool"
				}
			],
			"stateMutability": "view",
			"type": "function"
		},
		{
			"inputs": [
				{
					"internalType": "uint256",
					"name": "",
					"type": "uint256"
				}
			],
			"name": "topRoyaltydtl",
			"outputs": [
				{
					"internalType": "uint256",
					"name": "roundId",
					"type": "uint256"
				},
				{
					"internalType": "uint256",
					"name": "totalReward",
					"type": "uint256"
				},
				{
					"internalType": "uint256",
					"name": "totalUsers",
					"type": "uint256"
				},
				{
					"internalType": "uint256",
					"name": "perUserReward",
					"type": "uint256"
				},
				{
					"internalType": "uint256",
					"name": "claimedCount",
					"type": "uint256"
				},
				{
					"internalType": "uint256",
					"name": "startTime",
					"type": "uint256"
				},
				{
					"internalType": "uint256",
					"name": "endTime",
					"type": "uint256"
				},
				{
					"internalType": "uint256",
					"name": "carryForward",
					"type": "uint256"
				},
				{
					"internalType": "bool",
					"name": "closed",
					"type": "bool"
				}
			],
			"stateMutability": "view",
			"type": "function"
		},
		{
			"inputs": [],
			"name": "totalUsers",
			"outputs": [
				{
					"internalType": "uint256",
					"name": "",
					"type": "uint256"
				}
			],
			"stateMutability": "view",
			"type": "function"
		},
		{
			"inputs": [
				{
					"internalType": "uint256",
					"name": "_userId",
					"type": "uint256"
				}
			],
			"name": "upgradeBooster",
			"outputs": [],
			"stateMutability": "nonpayable",
			"type": "function"
		},
		{
			"inputs": [
				{
					"internalType": "uint256",
					"name": "_userId",
					"type": "uint256"
				}
			],
			"name": "upgradePool",
			"outputs": [],
			"stateMutability": "nonpayable",
			"type": "function"
		},
		{
			"inputs": [
				{
					"internalType": "uint32",
					"name": "_userId",
					"type": "uint32"
				},
				{
					"internalType": "uint256",
					"name": "_poolId",
					"type": "uint256"
				}
			],
			"name": "upgradePoolByEarning",
			"outputs": [],
			"stateMutability": "nonpayable",
			"type": "function"
		},
		{
			"inputs": [],
			"name": "usdt",
			"outputs": [
				{
					"internalType": "contract IERC20",
					"name": "",
					"type": "address"
				}
			],
			"stateMutability": "view",
			"type": "function"
		},
		{
			"inputs": [
				{
					"internalType": "uint256",
					"name": "",
					"type": "uint256"
				},
				{
					"internalType": "uint256",
					"name": "",
					"type": "uint256"
				},
				{
					"internalType": "uint256",
					"name": "",
					"type": "uint256"
				}
			],
			"name": "userBoosterChildren",
			"outputs": [
				{
					"internalType": "uint256",
					"name": "",
					"type": "uint256"
				}
			],
			"stateMutability": "view",
			"type": "function"
		},
		{
			"inputs": [
				{
					"internalType": "uint256",
					"name": "",
					"type": "uint256"
				},
				{
					"internalType": "uint256",
					"name": "",
					"type": "uint256"
				}
			],
			"name": "userBoosterdtl",
			"outputs": [
				{
					"internalType": "uint256",
					"name": "id",
					"type": "uint256"
				},
				{
					"internalType": "uint256",
					"name": "poolId",
					"type": "uint256"
				},
				{
					"internalType": "uint256",
					"name": "parentId",
					"type": "uint256"
				},
				{
					"internalType": "uint256",
					"name": "bonusCount",
					"type": "uint256"
				},
				{
					"internalType": "uint256",
					"name": "joinTime",
					"type": "uint256"
				}
			],
			"stateMutability": "view",
			"type": "function"
		},
		{
			"inputs": [
				{
					"internalType": "uint256",
					"name": "",
					"type": "uint256"
				},
				{
					"internalType": "uint256",
					"name": "",
					"type": "uint256"
				},
				{
					"internalType": "uint256",
					"name": "",
					"type": "uint256"
				}
			],
			"name": "userChildren",
			"outputs": [
				{
					"internalType": "uint256",
					"name": "",
					"type": "uint256"
				}
			],
			"stateMutability": "view",
			"type": "function"
		},
		{
			"inputs": [
				{
					"internalType": "uint256",
					"name": "",
					"type": "uint256"
				},
				{
					"internalType": "uint256",
					"name": "",
					"type": "uint256"
				}
			],
			"name": "userHasPool",
			"outputs": [
				{
					"internalType": "bool",
					"name": "",
					"type": "bool"
				}
			],
			"stateMutability": "view",
			"type": "function"
		},
		{
			"inputs": [
				{
					"internalType": "uint256",
					"name": "",
					"type": "uint256"
				},
				{
					"internalType": "uint256",
					"name": "",
					"type": "uint256"
				}
			],
			"name": "userHasbooster",
			"outputs": [
				{
					"internalType": "bool",
					"name": "",
					"type": "bool"
				}
			],
			"stateMutability": "view",
			"type": "function"
		},
		{
			"inputs": [
				{
					"internalType": "uint256",
					"name": "",
					"type": "uint256"
				},
				{
					"internalType": "uint256",
					"name": "",
					"type": "uint256"
				},
				{
					"internalType": "uint256",
					"name": "",
					"type": "uint256"
				}
			],
			"name": "userIdPerPool",
			"outputs": [
				{
					"internalType": "uint256",
					"name": "",
					"type": "uint256"
				}
			],
			"stateMutability": "view",
			"type": "function"
		},
		{
			"inputs": [
				{
					"internalType": "uint256",
					"name": "",
					"type": "uint256"
				}
			],
			"name": "userIncomes",
			"outputs": [
				{
					"internalType": "uint256",
					"name": "totalIncome",
					"type": "uint256"
				},
				{
					"internalType": "uint256",
					"name": "sponsorIncome",
					"type": "uint256"
				},
				{
					"internalType": "uint256",
					"name": "matrixIncome",
					"type": "uint256"
				},
				{
					"internalType": "uint256",
					"name": "levelBoosterIncome",
					"type": "uint256"
				},
				{
					"internalType": "uint256",
					"name": "royaltyIncome",
					"type": "uint256"
				},
				{
					"internalType": "uint256",
					"name": "royaltyIncomeClaimed",
					"type": "uint256"
				},
				{
					"internalType": "uint256",
					"name": "communityIncome",
					"type": "uint256"
				},
				{
					"internalType": "uint256",
					"name": "poolIncome",
					"type": "uint256"
				},
				{
					"internalType": "uint256",
					"name": "boosterIncome",
					"type": "uint256"
				},
				{
					"internalType": "uint256",
					"name": "weeklyContestIncome",
					"type": "uint256"
				},
				{
					"internalType": "uint256",
					"name": "monthlyRoyalty",
					"type": "uint256"
				},
				{
					"internalType": "uint256",
					"name": "topRoyalty",
					"type": "uint256"
				}
			],
			"stateMutability": "view",
			"type": "function"
		},
		{
			"inputs": [
				{
					"internalType": "uint256",
					"name": "",
					"type": "uint256"
				},
				{
					"internalType": "uint256",
					"name": "",
					"type": "uint256"
				}
			],
			"name": "userPackage",
			"outputs": [
				{
					"internalType": "uint256",
					"name": "roiCap",
					"type": "uint256"
				},
				{
					"internalType": "uint256",
					"name": "currentIncome",
					"type": "uint256"
				},
				{
					"internalType": "uint256",
					"name": "closingAmount",
					"type": "uint256"
				},
				{
					"internalType": "bool",
					"name": "qualified",
					"type": "bool"
				},
				{
					"internalType": "bool",
					"name": "closed",
					"type": "bool"
				}
			],
			"stateMutability": "view",
			"type": "function"
		},
		{
			"inputs": [
				{
					"internalType": "uint256",
					"name": "",
					"type": "uint256"
				},
				{
					"internalType": "uint256",
					"name": "",
					"type": "uint256"
				}
			],
			"name": "userPooldtl",
			"outputs": [
				{
					"internalType": "uint256",
					"name": "id",
					"type": "uint256"
				},
				{
					"internalType": "uint256",
					"name": "mainid",
					"type": "uint256"
				},
				{
					"internalType": "uint256",
					"name": "poolId",
					"type": "uint256"
				},
				{
					"internalType": "uint256",
					"name": "parentId",
					"type": "uint256"
				},
				{
					"internalType": "uint256",
					"name": "bonusCount",
					"type": "uint256"
				}
			],
			"stateMutability": "view",
			"type": "function"
		},
		{
			"inputs": [
				{
					"internalType": "uint256",
					"name": "",
					"type": "uint256"
				},
				{
					"internalType": "uint256",
					"name": "",
					"type": "uint256"
				}
			],
			"name": "userPooltopup",
			"outputs": [
				{
					"internalType": "uint256",
					"name": "nextPoolAmt",
					"type": "uint256"
				},
				{
					"internalType": "uint256",
					"name": "reTopupAmt",
					"type": "uint256"
				}
			],
			"stateMutability": "view",
			"type": "function"
		},
		{
			"inputs": [
				{
					"internalType": "uint256",
					"name": "",
					"type": "uint256"
				}
			],
			"name": "users",
			"outputs": [
				{
					"internalType": "address",
					"name": "account",
					"type": "address"
				},
				{
					"internalType": "uint256",
					"name": "checkpoint",
					"type": "uint256"
				},
				{
					"internalType": "uint256",
					"name": "id",
					"type": "uint256"
				},
				{
					"internalType": "uint256",
					"name": "sponsorId",
					"type": "uint256"
				},
				{
					"internalType": "uint256",
					"name": "uplineId",
					"type": "uint256"
				},
				{
					"internalType": "uint256",
					"name": "level",
					"type": "uint256"
				},
				{
					"internalType": "uint256",
					"name": "directTeam",
					"type": "uint256"
				},
				{
					"internalType": "uint256",
					"name": "directPoolQualified",
					"type": "uint256"
				},
				{
					"internalType": "uint256",
					"name": "totalMatrixTeam",
					"type": "uint256"
				},
				{
					"internalType": "uint256",
					"name": "totalDeposit",
					"type": "uint256"
				},
				{
					"internalType": "uint256",
					"name": "roiCap",
					"type": "uint256"
				},
				{
					"internalType": "uint256",
					"name": "poollevel",
					"type": "uint256"
				},
				{
					"internalType": "uint256",
					"name": "poolDeposit",
					"type": "uint256"
				},
				{
					"internalType": "uint256",
					"name": "poolStartTime",
					"type": "uint256"
				},
				{
					"internalType": "uint256",
					"name": "boosterlevel",
					"type": "uint256"
				},
				{
					"internalType": "uint256",
					"name": "boosterDeposit",
					"type": "uint256"
				},
				{
					"internalType": "uint256",
					"name": "registrationTime",
					"type": "uint256"
				},
				{
					"internalType": "uint256",
					"name": "level10Time",
					"type": "uint256"
				},
				{
					"internalType": "uint256",
					"name": "level15Time",
					"type": "uint256"
				},
				{
					"internalType": "uint256",
					"name": "monthlyUserDirectCount",
					"type": "uint256"
				},
				{
					"internalType": "uint256",
					"name": "topRoyaltyDirectCount",
					"type": "uint256"
				}
			],
			"stateMutability": "view",
			"type": "function"
		},
		{
			"inputs": [
				{
					"internalType": "uint256",
					"name": "",
					"type": "uint256"
				}
			],
			"name": "weeklyContestdtl",
			"outputs": [
				{
					"internalType": "uint256",
					"name": "roundId",
					"type": "uint256"
				},
				{
					"internalType": "uint256",
					"name": "totalReward",
					"type": "uint256"
				},
				{
					"internalType": "uint256",
					"name": "totalUsers",
					"type": "uint256"
				},
				{
					"internalType": "uint256",
					"name": "perUserReward",
					"type": "uint256"
				},
				{
					"internalType": "uint256",
					"name": "claimedCount",
					"type": "uint256"
				},
				{
					"internalType": "uint256",
					"name": "startTime",
					"type": "uint256"
				},
				{
					"internalType": "uint256",
					"name": "endTime",
					"type": "uint256"
				},
				{
					"internalType": "uint256",
					"name": "carryForward",
					"type": "uint256"
				},
				{
					"internalType": "bool",
					"name": "closed",
					"type": "bool"
				}
			],
			"stateMutability": "view",
			"type": "function"
		},
		{
			"inputs": [
				{
					"internalType": "uint256",
					"name": "",
					"type": "uint256"
				},
				{
					"internalType": "uint256",
					"name": "",
					"type": "uint256"
				}
			],
			"name": "weeklyQualifiedUsers",
			"outputs": [
				{
					"internalType": "uint256",
					"name": "",
					"type": "uint256"
				}
			],
			"stateMutability": "view",
			"type": "function"
		},
		{
			"inputs": [
				{
					"internalType": "uint256",
					"name": "",
					"type": "uint256"
				},
				{
					"internalType": "uint256",
					"name": "",
					"type": "uint256"
				},
				{
					"internalType": "uint256",
					"name": "",
					"type": "uint256"
				}
			],
			"name": "weeklyUserDirects",
			"outputs": [
				{
					"internalType": "uint256",
					"name": "",
					"type": "uint256"
				}
			],
			"stateMutability": "view",
			"type": "function"
		},
		{
			"inputs": [
				{
					"internalType": "uint256",
					"name": "",
					"type": "uint256"
				},
				{
					"internalType": "uint256",
					"name": "",
					"type": "uint256"
				}
			],
			"name": "weeklyUserdtl",
			"outputs": [
				{
					"internalType": "uint256",
					"name": "joinTime",
					"type": "uint256"
				},
				{
					"internalType": "uint256",
					"name": "roundId",
					"type": "uint256"
				},
				{
					"internalType": "uint256",
					"name": "claimTime",
					"type": "uint256"
				},
				{
					"internalType": "bool",
					"name": "isClaimed",
					"type": "bool"
				},
				{
					"internalType": "bool",
					"name": "isQualified",
					"type": "bool"
				}
			],
			"stateMutability": "view",
			"type": "function"
		}
	]
}