{
	"data": {
		"bytecode": {
			"linkReferences": {},
			"object": "60806040523461052b5760015f556040516101e081016001600160401b038111828210176105175760405267d02ab486cedc0000815268015af1d78b58c4000060208201526802b5e3af16b1880000604082015268056bc75e2d631000006060820152680ad78ebc5ac620000060808201526815af1d78b58c40000060a0820152682b5e3af16b1880000060c08201526856bc75e2d63100000060e082015268ad78ebc5ac6200000061010082015269015af1d78b58c40000006101208201526902b5e3af16b18800000061014082015269056bc75e2d6310000000610160820152690ad78ebc5ac6200000006101808201526915af1d78b58c400000006101a0820152692b5e3af16b18800000006101c0820152600d54600f600d5580600f106104c1575b50600d5f5260205f20905f5b600f81106104a45761014161052f565b680410d586a20a4c00008152681043561a8829300000602082015268410d586a20a4c0000060408201526901043561a882930000006060820152690410d586a20a4c0000006080820152691043561a88293000000060a082015269410d586a20a4c000000060c082015260155460076015558060071061044e575b5060155f5260205f20905f5b60078110610431576101d861054e565b68056bc75e2d631000008152680ad78ebc5ac620000060208201526815af1d78b58c4000006040820152682b5e3af16b1880000060608201526856bc75e2d631000000608082015268ad78ebc5ac6200000060a082015269015af1d78b58c400000060c08201526902b5e3af16b18800000060e08201526016546008601655806008106103db575b5060165f5260205f20905f5b600881106103be5761027c61052f565b60038152600560208201526007604082015260096060820152600b6080820152600d60a0820152600f60c08201525f5b600781106103a6576102bc61054e565b6004815260056020820152600660408201526007606082015260086080820152600960a0820152600a60c0820152600b60e08201525f5b6008811061038e5761030361054e565b5f815260016020820152600160408201526001606082015260016080820152600160a0820152600160c0820152600160e08201525f5b60088110610376575f6038555f6039555f603a556001603f555f6040555f60415560016046555f6047555f60485560405161217690816105858239f35b600190602060ff845116930192816026015501610339565b600190602060ff84511693019281601e0155016102f3565b600190602060ff8451169301928160170155016102ac565b81516001600160501b03168184015560209091019060010161026c565b60165f5261042b907fd833147d7dc355ba459fc788f669e58cfaf9dc25ddcd0702e87d69c7b5124289017fd833147d7dc355ba459fc788f669e58cfaf9dc25ddcd0702e87d69c7b512429161056e565b81610260565b81516001600160501b0316818401556020909101906001016101c8565b60155f5261049e907f55f448fdea98c4d29eb340757ef0a66cd03dbb9538908a6a81d96026b71ec475017f55f448fdea98c4d29eb340757ef0a66cd03dbb9538908a6a81d96026b71ec47c61056e565b816101bc565b81516001600160501b031681840155602090910190600101610131565b600d5f52610511907fd7b6990105719101dabeb77144f2a3385c8033acd3af97e9423a695e81ad1eb5017fd7b6990105719101dabeb77144f2a3385c8033acd3af97e9423a695e81ad1ec461056e565b5f610125565b634e487b7160e01b5f52604160045260245ffd5b5f80fd5b6040519060e082016001600160401b0381118382101761051757604052565b6040519061010082016001600160401b0381118382101761051757604052565b818110610579575050565b5f815560010161056e56fe6080806040526004361015610012575f80fd5b5f3560e01c90816301c234a8146110ca575080630676d0d6146110a05780632132d204146110745780632350268f1461104b57806323fd338e14610c175780632a8915341461102e5780632ae0ee0d14610f8a5780632f48ab7d146110065780633080b5bc14610fe957806331bb6a3014610fce57806332bc298c14610fb157806332fcd96614610f8f578063375b43b414610f8a57806339ab360314610f305780633a5084b314610f135780634060160a14610c6357806345cb537c14610c395780634b8cbf9b14610c1c57806358c7d35214610c175780635b62d1d514610bfa57806367d52d4d14610ba3578063705fee2d14610b8557806376f5f70014610b685780637848f0a3146109aa57806378f6ad6d1461098d5780637cdc65f21461096557806389043ece146109365780638e222e2414610705578063956a3228146106d95780639b40ab97146106bc578063a59d17d11461069f578063a5e52b9914610682578063ae4708dc1461064a578063bc1fa7c01461041f578063bff1f9e114610402578063c216212a14610394578063c8df290814610370578063c9ed070814610353578063ca8e912114610336578063d0a2fd791461030a578063d2f0490d146102ef578063e898fc38146102d2578063e9e34a16146102aa578063ebe0ff1514610287578063ec597e6f1461026a578063f5d74d93146102425763fddc806f14610221575f80fd5b3461023e575f36600319011261023e576020603954604051908152f35b5f80fd5b3461023e575f36600319011261023e576004546040516001600160a01b039091168152602090f35b3461023e575f36600319011261023e576020600554604051908152f35b3461023e575f36600319011261023e576020604051683635c9adc5dea000008152f35b3461023e575f36600319011261023e576003546040516001600160a01b039091168152602090f35b3461023e575f36600319011261023e576020604054604051908152f35b3461023e575f36600319011261023e57602060405160058152f35b3461023e57602036600319011261023e57600435600881101561023e57602090601e0154604051908152f35b3461023e575f36600319011261023e576020603854604051908152f35b3461023e575f36600319011261023e576020603f54604051908152f35b3461023e575f36600319011261023e57602060405169021e19e0c9bab24000008152f35b3461023e57602036600319011261023e57600435600d5481101561023e57600d548110156103ee57600d5f527fd7b6990105719101dabeb77144f2a3385c8033acd3af97e9423a695e81ad1eb50154604051908152602090f35b634e487b7160e01b5f52603260045260245ffd5b3461023e575f36600319011261023e576020600654604051908152f35b3461023e57602036600319011261023e57600435805f52600f60205260405f2061045360018060a01b038254163314611175565b600f81019081549160088310610468816111b4565b156103ee5782601e015483602601549060068401541015908161063b575b50156105fe57826105f9575b835f52603760205260405f20835f526020526104b560ff60405f205416156111ef565b6104be836110e4565b90546001546040516323b872dd60e01b815233600482015230602482015260039390931b9190911c60448301819052939190602090829060649082905f906001600160a01b03165af180156105ee576105c1575b508154600181018091116105ad5760109255845f52603760205260405f20845f5260205260405f20600160ff19825416179055016105518282546112a6565b905561055e818484611913565b600182018092116105ad5760405191825260208201526080604082015260076080820152662137b7b9ba32b960c91b60a08201524260608201525f5160206121215f395f51905f5260c03392a3005b634e487b7160e01b5f52601160045260245ffd5b6105e29060203d6020116105e7575b6105da818361126c565b81019061128e565b610512565b503d6105d0565b6040513d5f823e3d90fd5b610492565b60405162461bcd60e51b8152602060048201526015602482015274155c19dc9859194814db1bdd08185b9908141bdbdb605a1b6044820152606490fd5b9050600c830154101585610486565b3461023e57602036600319011261023e5760043560155481101561023e576106736020916110fc565b90549060031b1c604051908152f35b3461023e575f36600319011261023e5760206040516283d6008152f35b3461023e575f36600319011261023e576020604154604051908152f35b3461023e575f36600319011261023e576020604754604051908152f35b3461023e57602036600319011261023e57600435600881101561023e5760209060260154604051908152f35b3461023e57604036600319011261023e5760043563ffffffff811680910361023e57602435815f52600f60205260405f2061074a60018060a01b038254163314611175565b600c81019061075c6007835410611411565b60018301928381116105ad576015548410156109005761077b846110fc565b90549060031b1c92815f52602e60205260405f20865f5260205260405f2080548581106108bb57875f52603360205260405f20875f5260205260ff60405f20541661087657856107ca9161144b565b9055805492600184018094116105ad57600293600d9255016107ed8482546112a6565b9055845f52603360205260405f20845f5260205260405f20600160ff1982541617905561081b838686611501565b018092116105ad576040519182526020820152608060408201526016608082015275506f6f6c205570677261646520284561726e696e672960501b60a08201524260608201525f5160206121215f395f51905f5260c03392a3005b60405162461bcd60e51b815260206004820152601b60248201527f416c726561647920707572636861736564206e65787420706f6f6c00000000006044820152606490fd5b60405162461bcd60e51b815260206004820152601c60248201527f4e6f7420656e6f756768206e65787420706f6f6c2062616c616e6365000000006044820152606490fd5b60405162461bcd60e51b815260206004820152600e60248201526d139bc81a1a59da195c881c1bdbdb60921b6044820152606490fd5b3461023e576109443661115f565b905f52600b60205260405f20905f52602052602060405f2054604051908152f35b3461023e575f36600319011261023e576002546040516001600160a01b039091168152602090f35b3461023e575f36600319011261023e576020600954604051908152f35b3461023e576109b83661115f565b815f52600f60205260405f206109d860018060a01b038254163314611175565b6109e86007600c83015410611411565b6109f1826110fc565b90549060031b1c90825f52602e60205260405f20845f52602052600160405f200190815491838310610b2357610a298460019461144b565b9055600d8101610a3a8482546112a6565b9055610a47838686611501565b0160405190610a5582611234565b82825260208201905f825260408301924284526060810193600a8552825493600160401b851015610b0f57600185018085558510156103ee5760ff946003945f5260205f209060021b01925183555160018301555160028201550191511660ff198254161790556040519182526020820152608060408201526016608082015275506f6f6c205265546f70757020284561726e696e672960501b60a08201524260608201525f5160206121215f395f51905f5260c03392a3005b634e487b7160e01b5f52604160045260245ffd5b60405162461bcd60e51b815260206004820152601a60248201527f4e6f7420656e6f756768207265546f7075702062616c616e63650000000000006044820152606490fd5b3461023e575f36600319011261023e57602060405162093a808152f35b3461023e575f36600319011261023e57602060405163025143008152f35b3461023e57602036600319011261023e576060610bc16004356112b3565b91906020604051938492151583526040828401528051918291826040860152018484015e5f828201840152601f01601f19168101030190f35b3461023e575f36600319011261023e576020604854604051908152f35b611129565b3461023e575f36600319011261023e576020604654604051908152f35b3461023e57602036600319011261023e576004355f52600a602052602060405f2054604051908152f35b3461023e57602036600319011261023e57600435805f52600f60205260405f20610c9760018060a01b038254163314611175565b600c81019081549160078310610cac816111b4565b156103ee578260170154600683015410610ece578215918215610ec9575b845f52603360205260405f20845f52602052610ced60ff60405f205416156111ef565b610cf6846110fc565b90546001546040516323b872dd60e01b815233600482015230602482015260039390931b9190911c60448301819052949190602090829060649082905f906001600160a01b03165af180156105ee57610eac575b50610e39575b600160088201541180610e1a575b80610e0c575b610e00575b8154600181018091116105ad57600d9255845f52603360205260405f20845f5260205260405f20600160ff1982541617905501610da78282546112a6565b9055610db4818484611501565b600182018092116105ad576040519182526020820152608060408201526004608082015263141bdbdb60e21b60a08201524260608201525f5160206121215f395f51905f5260c03392a3005b6014600b820155610d69565b50600f600b82015414610d64565b5060118101546202a30081018091116105ad57600e8201541115610d5e565b42600e82015560048101545f52600f60205260405f2060118101546202a30081018091116105ad5742101580610e9e575b610e75575b50610d50565b600881018054600181018091116105ad5780600192551115610e6f57600b601491015585610e6f565b50600f600b82015414610e6a565b610ec49060203d6020116105e7576105da818361126c565b610d4a565b610cca565b60405162461bcd60e51b815260206004820152601860248201527f5570677261646520796f7572206c6576656c20666972737400000000000000006044820152606490fd5b3461023e575f36600319011261023e5760206040516202a3008152f35b3461023e57602036600319011261023e5760043560075481101561023e576007548110156103ee5760075f527fa66cc928b5edb82af9bd49922954155ab7b0942694bea4ce44661d9a8736c6880154604051908152602090f35b611144565b3461023e575f36600319011261023e576020604051670de0b6b3a76400008152f35b3461023e575f36600319011261023e576020604051620151808152f35b3461023e575f36600319011261023e57602060405160028152f35b3461023e575f36600319011261023e576020603a54604051908152f35b3461023e575f36600319011261023e576001546040516001600160a01b039091168152602090f35b3461023e575f36600319011261023e57602060405162278d008152f35b3461023e57602036600319011261023e5760043560165481101561023e576106736020916110e4565b3461023e57602036600319011261023e57600435600781101561023e5760209060170154604051908152f35b3461023e57602036600319011261023e576004355f52600c602052602060405f2054604051908152f35b3461023e575f36600319011261023e578061271060209252f35b6016548110156103ee5760165f5260205f2001905f90565b6015548110156103ee5760155f5260205f2001905f90565b80548210156103ee575f5260205f2001905f90565b3461023e575f36600319011261023e576020604051600a8152f35b3461023e575f36600319011261023e576020604051600f8152f35b604090600319011261023e576004359060243590565b1561117c57565b60405162461bcd60e51b815260206004820152601060248201526f139bdd081e5bdd5c881858d8dbdd5b9d60821b6044820152606490fd5b156111bb57565b60405162461bcd60e51b815260206004820152600c60248201526b105d081b585e081b195d995b60a21b6044820152606490fd5b156111f657565b60405162461bcd60e51b8152602060048201526016602482015275141bdbdb08185b1c9958591e481c1d5c98da185cd95960521b6044820152606490fd5b6080810190811067ffffffffffffffff821117610b0f57604052565b60a0810190811067ffffffffffffffff821117610b0f57604052565b90601f8019910116810190811067ffffffffffffffff821117610b0f57604052565b9081602091031261023e5751801515810361023e5790565b919082018092116105ad57565b6060905f52600f60205260405f20600c810154916015548310156113c5575060078210156103ee57600682601701549101541061137857151580611371575b6113345760019060405161130760408261126c565b601981527f456c696769626c6520746f20627579206e65787420706f6f6c00000000000000602082015290565b5f9060405161134460408261126c565b601781527f4275792070726576696f757320706f6f6c206669727374000000000000000000602082015290565b505f6112f2565b505f9060405161138960608261126c565b602681527f596f75206e65656420746f207265616368206120686967686572206c6576656c60208201526508199a5c9cdd60d21b604082015290565b929150505f916113d8604051918261126c565b602381527f596f752061726520616c726561647920617420746865206869676865737420706020820152621bdbdb60ea1b604082015290565b1561141857565b60405162461bcd60e51b815260206004820152600b60248201526a105d081b585e081c1bdbdb60aa1b6044820152606490fd5b919082039182116105ad57565b1561145f57565b60405162461bcd60e51b8152602060048201526007602482015266125b9d985b1a5960ca1b6044820152606490fd5b1561149557565b60405162461bcd60e51b815260206004820152601060248201526f125b98dbdc9c9958dd08185b5bdd5b9d60821b6044820152606490fd5b8054600160401b811015610b0f576114ea91600182018155611114565b819291549060031b91821b915f19901b1916179055565b909291601554936115145f958410611458565b61152e611520846110fc565b90549060031b1c341461148e565b825f52603260205260405f2054611547816005546112a6565b90845f52603260205261155d8260405f206114cd565b5f1981019081116105ad57611583600361162b92875f5260326020520460405f20611114565b90549060031b1c916115f160405161159a81611250565b828152602080820187815260408084018b8152606085018981525f608087018181528e8252602f87528482208a83529096529290922094518555915160018501559051600284015551600383015551600490910155565b855f52603160205260405f20845f526020526116108160405f206114cd565b855f52603060205260405f20835f5260205260405f206114cd565b9060038304955f945f935b60038510611662575b505050505061164f92935061144b565b806116575750565b61166090611dab565b565b80158015611908575b6118d457818352602f60205260408320908352602052604082209588600188015460048901805490602782106116b8575b5050506116ad6003916001936112a6565b970154940193611636565b9091925060018201809211611863578190558a90601881116118775750508084526010602052600760408520016116f08b82546112a6565b9055605f8a028a15908b8104605f1482171561186357828652600f60205260408620546001600160a01b031692606490910490831561182f5781156117fc5780875260106020526040872096806117e8575061174d8288546112a6565b875560075f970161175f8382546112a6565b905560015461177a90839086906001600160a01b0316612092565b604051918252600160208301526005937f4d634c31300b97dad99b3af799178230163d88ad306370d063be9cd992d0be7f6080848760408d970152426060820152a4818b02918b83041417156105ad576116ad8a6001936117df606460039504611dab565b9381935061169c565b634e487b7160e01b81526021600452602490fd5b60405162461bcd60e51b815260206004820152600b60248201526a16995c9bc8185b5bdd5b9d60aa1b6044820152606490fd5b60405162461bcd60e51b815260206004820152600c60248201526b24b73b30b634b2103ab9b2b960a11b6044820152606490fd5b634e487b7160e01b86526011600452602486fd5b6001936003936116ad93926024106118b157868852602e60205260408820908852602052604087206118aa8382546112a6565b90556117df565b868852602e602052604088209088526020528460408820016118aa8382546112a6565b505050505061164f9293506118e9828261144b565b806118f9575b849381808061163f565b61190290611dab565b5f6118ef565b50600554811461166b565b906119216016548310611458565b61192d611520836110e4565b5f8281526036602052604090208054906119489083906114cd565b5f1981019081116105ad57600361196b91845f5260366020520460405f20611114565b90549060031b1c916119d960405161198281611250565b838152602080820184815260408084018881525f606086018181524260808801908152898352603487528483208b845290965292902094518555915160018501559051600284015551600383015551600490910155565b805f52603560205260405f20835f526020526119f88260405f206114cd565b60018114611b4d575b82158015611b42575b611b36575f52603460205260405f20825f52602052600360405f200160038154105f14611b3657805490600182018092116105ad5755815f526010602052600860405f2001611a5a8482546112a6565b9055605f830291831592848104605f148417156105ad575f828152600f60205260409020546001600160a01b03169060649004811561182f5780156117fc57825f526010602052600860405f20611ab28382546112a6565b815501611ac08282546112a6565b9055600154611adb90829084906001600160a01b0316612092565b60405190815260016020820152608081600660407f4d634c31300b97dad99b3af799178230163d88ad306370d063be9cd992d0be7f940152426060820152a46005820291820460051417156105ad5760646116609104611dab565b50505061166090611dab565b506005548314611a0a565b815f52600f60205260405f20604051906102c0820182811067ffffffffffffffff821117610b0f5760405280546001600160a01b0316825260018101805467ffffffffffffffff8111610b0f5760405191611bae60208360051b018461126c565b81835260208301905f5260205f205f915b838310611d3457505050506020830152600281015460408301526003810154606083015260048101549160808101928352600582015460a0820152600682015460c0820152600782015460e082015260088201546101008201526009820154610120820152600a820154610140820152600b820154610160820152600c820154610180820152600d8201546101a0820152600e8201546101c0820152600f8201546101e082015260108201546102008201526102a06015601184015493610220840194855260128101546102408501526013810154610260850152601481015461028085015201549101526038545f52603e60205260405f2082515f52602052611ccc8460405f206114cd565b60385490815f52603e60205260405f2083515f5260205260405f20549051916201518083018093116105ad57600592421115611d24575b501015611d11575b50611a01565b51603854611d1e91611d78565b5f611d0b565b611d2e9086611d78565b5f611d03565b60046020600192604051611d4781611234565b8554815284860154838201526002860154604082015260ff6003870154166060820152815201920192019190611bbf565b90805f52603d60205260405f20825f5260205260ff600360405f20015460081c1615611da2575050565b61166091611e7a565b6002546001600160a01b0316908115611e4157600154608092611dd9918391906001600160a01b0316612092565b6005545f52601060205260405f20611df28282546112a6565b905560018060a01b03600254167f4d634c31300b97dad99b3af799178230163d88ad306370d063be9cd992d0be7f6005549384936040519081525f60208201525f6040820152426060820152a4565b60405162461bcd60e51b8152602060048201526011602482015270199959481859191c9cc81b9bdd081cd95d607a1b6044820152606490fd5b603854820361205d57815f52603b60205260ff600860405f20015416612029575f8181527f7fb70d3b53b50f6798636307bc089a811f848f8c80c93eb14575305275478318602052604090819020905190600490611ed783611250565b80548352600181015460208401526002810154604084015260038101546060840152015460808201908152835f52603e60205260405f20835f5260205282600560405f2054109251149081612000575b50811591611ff8575b5015611fb357815f52603d60205260405f20815f5260205260405f2091600383019182549260ff8460081c16611fac576101006060948460017f360cb96d3e85b4fc299ddfa9a572850fc70961c86f0f1703f033143b0e5a82cf98428155015561ff0019161790556040519182526020820152426040820152a1565b5050505050565b60405162461bcd60e51b815260206004820152601f60248201527f4e6f7420656c696769626c6520666f72207765656b6c7920636f6e74657374006044820152606490fd5b90505f611f30565b905051825f52600f602052601160405f200154906201518082018092116105ad5711155f611f27565b60405162461bcd60e51b815260206004820152600c60248201526b149bdd5b990818db1bdcd95960a21b6044820152606490fd5b60405162461bcd60e51b815260206004820152600d60248201526c125b9d985b1a59081c9bdd5b99609a1b6044820152606490fd5b60405163a9059cbb60e01b60208281019182526001600160a01b03909416602483015260448083019590955293815290925f916120d060648261126c565b519082855af1156105ee575f513d61211757506001600160a01b0381163b155b6120f75750565b635274afe760e01b5f9081526001600160a01b0391909116600452602490fd5b600114156120f056fe26adb22cec823ef144935e9fbef1b6b4a3a29dacbe5444d59292fa2620f3d377a2646970667358221220994561b3ece918bc689eb0ccba086ce0f72c731d6270e8921782d5da605ba04f64736f6c634300081e0033",
			"opcodes": "PUSH1 0x80 PUSH1 0x40 MSTORE CALLVALUE PUSH2 0x52B JUMPI PUSH1 0x1 PUSH0 SSTORE PUSH1 0x40 MLOAD PUSH2 0x1E0 DUP2 ADD PUSH1 0x1 PUSH1 0x1 PUSH1 0x40 SHL SUB DUP2 GT DUP3 DUP3 LT OR PUSH2 0x517 JUMPI PUSH1 0x40 MSTORE PUSH8 0xD02AB486CEDC0000 DUP2 MSTORE PUSH9 0x15AF1D78B58C40000 PUSH1 0x20 DUP3 ADD MSTORE PUSH9 0x2B5E3AF16B1880000 PUSH1 0x40 DUP3 ADD MSTORE PUSH9 0x56BC75E2D63100000 PUSH1 0x60 DUP3 ADD MSTORE PUSH9 0xAD78EBC5AC6200000 PUSH1 0x80 DUP3 ADD MSTORE PUSH9 0x15AF1D78B58C400000 PUSH1 0xA0 DUP3 ADD MSTORE PUSH9 0x2B5E3AF16B18800000 PUSH1 0xC0 DUP3 ADD MSTORE PUSH9 0x56BC75E2D631000000 PUSH1 0xE0 DUP3 ADD MSTORE PUSH9 0xAD78EBC5AC62000000 PUSH2 0x100 DUP3 ADD MSTORE PUSH10 0x15AF1D78B58C4000000 PUSH2 0x120 DUP3 ADD MSTORE PUSH10 0x2B5E3AF16B188000000 PUSH2 0x140 DUP3 ADD MSTORE PUSH10 0x56BC75E2D6310000000 PUSH2 0x160 DUP3 ADD MSTORE PUSH10 0xAD78EBC5AC620000000 PUSH2 0x180 DUP3 ADD MSTORE PUSH10 0x15AF1D78B58C40000000 PUSH2 0x1A0 DUP3 ADD MSTORE PUSH10 0x2B5E3AF16B1880000000 PUSH2 0x1C0 DUP3 ADD MSTORE PUSH1 0xD SLOAD PUSH1 0xF PUSH1 0xD SSTORE DUP1 PUSH1 0xF LT PUSH2 0x4C1 JUMPI JUMPDEST POP PUSH1 0xD PUSH0 MSTORE PUSH1 0x20 PUSH0 KECCAK256 SWAP1 PUSH0 JUMPDEST PUSH1 0xF DUP2 LT PUSH2 0x4A4 JUMPI PUSH2 0x141 PUSH2 0x52F JUMP JUMPDEST PUSH9 0x410D586A20A4C0000 DUP2 MSTORE PUSH9 0x1043561A8829300000 PUSH1 0x20 DUP3 ADD MSTORE PUSH9 0x410D586A20A4C00000 PUSH1 0x40 DUP3 ADD MSTORE PUSH10 0x1043561A88293000000 PUSH1 0x60 DUP3 ADD MSTORE PUSH10 0x410D586A20A4C000000 PUSH1 0x80 DUP3 ADD MSTORE PUSH10 0x1043561A882930000000 PUSH1 0xA0 DUP3 ADD MSTORE PUSH10 0x410D586A20A4C0000000 PUSH1 0xC0 DUP3 ADD MSTORE PUSH1 0x15 SLOAD PUSH1 0x7 PUSH1 0x15 SSTORE DUP1 PUSH1 0x7 LT PUSH2 0x44E JUMPI JUMPDEST POP PUSH1 0x15 PUSH0 MSTORE PUSH1 0x20 PUSH0 KECCAK256 SWAP1 PUSH0 JUMPDEST PUSH1 0x7 DUP2 LT PUSH2 0x431 JUMPI PUSH2 0x1D8 PUSH2 0x54E JUMP JUMPDEST PUSH9 0x56BC75E2D63100000 DUP2 MSTORE PUSH9 0xAD78EBC5AC6200000 PUSH1 0x20 DUP3 ADD MSTORE PUSH9 0x15AF1D78B58C400000 PUSH1 0x40 DUP3 ADD MSTORE PUSH9 0x2B5E3AF16B18800000 PUSH1 0x60 DUP3 ADD MSTORE PUSH9 0x56BC75E2D631000000 PUSH1 0x80 DUP3 ADD MSTORE PUSH9 0xAD78EBC5AC62000000 PUSH1 0xA0 DUP3 ADD MSTORE PUSH10 0x15AF1D78B58C4000000 PUSH1 0xC0 DUP3 ADD MSTORE PUSH10 0x2B5E3AF16B188000000 PUSH1 0xE0 DUP3 ADD MSTORE PUSH1 0x16 SLOAD PUSH1 0x8 PUSH1 0x16 SSTORE DUP1 PUSH1 0x8 LT PUSH2 0x3DB JUMPI JUMPDEST POP PUSH1 0x16 PUSH0 MSTORE PUSH1 0x20 PUSH0 KECCAK256 SWAP1 PUSH0 JUMPDEST PUSH1 0x8 DUP2 LT PUSH2 0x3BE JUMPI PUSH2 0x27C PUSH2 0x52F JUMP JUMPDEST PUSH1 0x3 DUP2 MSTORE PUSH1 0x5 PUSH1 0x20 DUP3 ADD MSTORE PUSH1 0x7 PUSH1 0x40 DUP3 ADD MSTORE PUSH1 0x9 PUSH1 0x60 DUP3 ADD MSTORE PUSH1 0xB PUSH1 0x80 DUP3 ADD MSTORE PUSH1 0xD PUSH1 0xA0 DUP3 ADD MSTORE PUSH1 0xF PUSH1 0xC0 DUP3 ADD MSTORE PUSH0 JUMPDEST PUSH1 0x7 DUP2 LT PUSH2 0x3A6 JUMPI PUSH2 0x2BC PUSH2 0x54E JUMP JUMPDEST PUSH1 0x4 DUP2 MSTORE PUSH1 0x5 PUSH1 0x20 DUP3 ADD MSTORE PUSH1 0x6 PUSH1 0x40 DUP3 ADD MSTORE PUSH1 0x7 PUSH1 0x60 DUP3 ADD MSTORE PUSH1 0x8 PUSH1 0x80 DUP3 ADD MSTORE PUSH1 0x9 PUSH1 0xA0 DUP3 ADD MSTORE PUSH1 0xA PUSH1 0xC0 DUP3 ADD MSTORE PUSH1 0xB PUSH1 0xE0 DUP3 ADD MSTORE PUSH0 JUMPDEST PUSH1 0x8 DUP2 LT PUSH2 0x38E JUMPI PUSH2 0x303 PUSH2 0x54E JUMP JUMPDEST PUSH0 DUP2 MSTORE PUSH1 0x1 PUSH1 0x20 DUP3 ADD MSTORE PUSH1 0x1 PUSH1 0x40 DUP3 ADD MSTORE PUSH1 0x1 PUSH1 0x60 DUP3 ADD MSTORE PUSH1 0x1 PUSH1 0x80 DUP3 ADD MSTORE PUSH1 0x1 PUSH1 0xA0 DUP3 ADD MSTORE PUSH1 0x1 PUSH1 0xC0 DUP3 ADD MSTORE PUSH1 0x1 PUSH1 0xE0 DUP3 ADD MSTORE PUSH0 JUMPDEST PUSH1 0x8 DUP2 LT PUSH2 0x376 JUMPI PUSH0 PUSH1 0x38 SSTORE PUSH0 PUSH1 0x39 SSTORE PUSH0 PUSH1 0x3A SSTORE PUSH1 0x1 PUSH1 0x3F SSTORE PUSH0 PUSH1 0x40 SSTORE PUSH0 PUSH1 0x41 SSTORE PUSH1 0x1 PUSH1 0x46 SSTORE PUSH0 PUSH1 0x47 SSTORE PUSH0 PUSH1 0x48 SSTORE PUSH1 0x40 MLOAD PUSH2 0x2176 SWAP1 DUP2 PUSH2 0x585 DUP3 CODECOPY RETURN JUMPDEST PUSH1 0x1 SWAP1 PUSH1 0x20 PUSH1 0xFF DUP5 MLOAD AND SWAP4 ADD SWAP3 DUP2 PUSH1 0x26 ADD SSTORE ADD PUSH2 0x339 JUMP JUMPDEST PUSH1 0x1 SWAP1 PUSH1 0x20 PUSH1 0xFF DUP5 MLOAD AND SWAP4 ADD SWAP3 DUP2 PUSH1 0x1E ADD SSTORE ADD PUSH2 0x2F3 JUMP JUMPDEST PUSH1 0x1 SWAP1 PUSH1 0x20 PUSH1 0xFF DUP5 MLOAD AND SWAP4 ADD SWAP3 DUP2 PUSH1 0x17 ADD SSTORE ADD PUSH2 0x2AC JUMP JUMPDEST DUP2 MLOAD PUSH1 0x1 PUSH1 0x1 PUSH1 0x50 SHL SUB AND DUP2 DUP5 ADD SSTORE PUSH1 0x20 SWAP1 SWAP2 ADD SWAP1 PUSH1 0x1 ADD PUSH2 0x26C JUMP JUMPDEST PUSH1 0x16 PUSH0 MSTORE PUSH2 0x42B SWAP1 PUSH32 0xD833147D7DC355BA459FC788F669E58CFAF9DC25DDCD0702E87D69C7B5124289 ADD PUSH32 0xD833147D7DC355BA459FC788F669E58CFAF9DC25DDCD0702E87D69C7B5124291 PUSH2 0x56E JUMP JUMPDEST DUP2 PUSH2 0x260 JUMP JUMPDEST DUP2 MLOAD PUSH1 0x1 PUSH1 0x1 PUSH1 0x50 SHL SUB AND DUP2 DUP5 ADD SSTORE PUSH1 0x20 SWAP1 SWAP2 ADD SWAP1 PUSH1 0x1 ADD PUSH2 0x1C8 JUMP JUMPDEST PUSH1 0x15 PUSH0 MSTORE PUSH2 0x49E SWAP1 PUSH32 0x55F448FDEA98C4D29EB340757EF0A66CD03DBB9538908A6A81D96026B71EC475 ADD PUSH32 0x55F448FDEA98C4D29EB340757EF0A66CD03DBB9538908A6A81D96026B71EC47C PUSH2 0x56E JUMP JUMPDEST DUP2 PUSH2 0x1BC JUMP JUMPDEST DUP2 MLOAD PUSH1 0x1 PUSH1 0x1 PUSH1 0x50 SHL SUB AND DUP2 DUP5 ADD SSTORE PUSH1 0x20 SWAP1 SWAP2 ADD SWAP1 PUSH1 0x1 ADD PUSH2 0x131 JUMP JUMPDEST PUSH1 0xD PUSH0 MSTORE PUSH2 0x511 SWAP1 PUSH32 0xD7B6990105719101DABEB77144F2A3385C8033ACD3AF97E9423A695E81AD1EB5 ADD PUSH32 0xD7B6990105719101DABEB77144F2A3385C8033ACD3AF97E9423A695E81AD1EC4 PUSH2 0x56E JUMP JUMPDEST PUSH0 PUSH2 0x125 JUMP JUMPDEST PUSH4 0x4E487B71 PUSH1 0xE0 SHL PUSH0 MSTORE PUSH1 0x41 PUSH1 0x4 MSTORE PUSH1 0x24 PUSH0 REVERT JUMPDEST PUSH0 DUP1 REVERT JUMPDEST PUSH1 0x40 MLOAD SWAP1 PUSH1 0xE0 DUP3 ADD PUSH1 0x1 PUSH1 0x1 PUSH1 0x40 SHL SUB DUP2 GT DUP4 DUP3 LT OR PUSH2 0x517 JUMPI PUSH1 0x40 MSTORE JUMP JUMPDEST PUSH1 0x40 MLOAD SWAP1 PUSH2 0x100 DUP3 ADD PUSH1 0x1 PUSH1 0x1 PUSH1 0x40 SHL SUB DUP2 GT DUP4 DUP3 LT OR PUSH2 0x517 JUMPI PUSH1 0x40 MSTORE JUMP JUMPDEST DUP2 DUP2 LT PUSH2 0x579 JUMPI POP POP JUMP JUMPDEST PUSH0 DUP2 SSTORE PUSH1 0x1 ADD PUSH2 0x56E JUMP INVALID PUSH1 0x80 DUP1 PUSH1 0x40 MSTORE PUSH1 0x4 CALLDATASIZE LT ISZERO PUSH2 0x12 JUMPI PUSH0 DUP1 REVERT JUMPDEST PUSH0 CALLDATALOAD PUSH1 0xE0 SHR SWAP1 DUP2 PUSH4 0x1C234A8 EQ PUSH2 0x10CA JUMPI POP DUP1 PUSH4 0x676D0D6 EQ PUSH2 0x10A0 JUMPI DUP1 PUSH4 0x2132D204 EQ PUSH2 0x1074 JUMPI DUP1 PUSH4 0x2350268F EQ PUSH2 0x104B JUMPI DUP1 PUSH4 0x23FD338E EQ PUSH2 0xC17 JUMPI DUP1 PUSH4 0x2A891534 EQ PUSH2 0x102E JUMPI DUP1 PUSH4 0x2AE0EE0D EQ PUSH2 0xF8A JUMPI DUP1 PUSH4 0x2F48AB7D EQ PUSH2 0x1006 JUMPI DUP1 PUSH4 0x3080B5BC EQ PUSH2 0xFE9 JUMPI DUP1 PUSH4 0x31BB6A30 EQ PUSH2 0xFCE JUMPI DUP1 PUSH4 0x32BC298C EQ PUSH2 0xFB1 JUMPI DUP1 PUSH4 0x32FCD966 EQ PUSH2 0xF8F JUMPI DUP1 PUSH4 0x375B43B4 EQ PUSH2 0xF8A JUMPI DUP1 PUSH4 0x39AB3603 EQ PUSH2 0xF30 JUMPI DUP1 PUSH4 0x3A5084B3 EQ PUSH2 0xF13 JUMPI DUP1 PUSH4 0x4060160A EQ PUSH2 0xC63 JUMPI DUP1 PUSH4 0x45CB537C EQ PUSH2 0xC39 JUMPI DUP1 PUSH4 0x4B8CBF9B EQ PUSH2 0xC1C JUMPI DUP1 PUSH4 0x58C7D352 EQ PUSH2 0xC17 JUMPI DUP1 PUSH4 0x5B62D1D5 EQ PUSH2 0xBFA JUMPI DUP1 PUSH4 0x67D52D4D EQ PUSH2 0xBA3 JUMPI DUP1 PUSH4 0x705FEE2D EQ PUSH2 0xB85 JUMPI DUP1 PUSH4 0x76F5F700 EQ PUSH2 0xB68 JUMPI DUP1 PUSH4 0x7848F0A3 EQ PUSH2 0x9AA JUMPI DUP1 PUSH4 0x78F6AD6D EQ PUSH2 0x98D JUMPI DUP1 PUSH4 0x7CDC65F2 EQ PUSH2 0x965 JUMPI DUP1 PUSH4 0x89043ECE EQ PUSH2 0x936 JUMPI DUP1 PUSH4 0x8E222E24 EQ PUSH2 0x705 JUMPI DUP1 PUSH4 0x956A3228 EQ PUSH2 0x6D9 JUMPI DUP1 PUSH4 0x9B40AB97 EQ PUSH2 0x6BC JUMPI DUP1 PUSH4 0xA59D17D1 EQ PUSH2 0x69F JUMPI DUP1 PUSH4 0xA5E52B99 EQ PUSH2 0x682 JUMPI DUP1 PUSH4 0xAE4708DC EQ PUSH2 0x64A JUMPI DUP1 PUSH4 0xBC1FA7C0 EQ PUSH2 0x41F JUMPI DUP1 PUSH4 0xBFF1F9E1 EQ PUSH2 0x402 JUMPI DUP1 PUSH4 0xC216212A EQ PUSH2 0x394 JUMPI DUP1 PUSH4 0xC8DF2908 EQ PUSH2 0x370 JUMPI DUP1 PUSH4 0xC9ED0708 EQ PUSH2 0x353 JUMPI DUP1 PUSH4 0xCA8E9121 EQ PUSH2 0x336 JUMPI DUP1 PUSH4 0xD0A2FD79 EQ PUSH2 0x30A JUMPI DUP1 PUSH4 0xD2F0490D EQ PUSH2 0x2EF JUMPI DUP1 PUSH4 0xE898FC38 EQ PUSH2 0x2D2 JUMPI DUP1 PUSH4 0xE9E34A16 EQ PUSH2 0x2AA JUMPI DUP1 PUSH4 0xEBE0FF15 EQ PUSH2 0x287 JUMPI DUP1 PUSH4 0xEC597E6F EQ PUSH2 0x26A JUMPI DUP1 PUSH4 0xF5D74D93 EQ PUSH2 0x242 JUMPI PUSH4 0xFDDC806F EQ PUSH2 0x221 JUMPI PUSH0 DUP1 REVERT JUMPDEST CALLVALUE PUSH2 0x23E JUMPI PUSH0 CALLDATASIZE PUSH1 0x3 NOT ADD SLT PUSH2 0x23E JUMPI PUSH1 0x20 PUSH1 0x39 SLOAD PUSH1 0x40 MLOAD SWAP1 DUP2 MSTORE RETURN JUMPDEST PUSH0 DUP1 REVERT JUMPDEST CALLVALUE PUSH2 0x23E JUMPI PUSH0 CALLDATASIZE PUSH1 0x3 NOT ADD SLT PUSH2 0x23E JUMPI PUSH1 0x4 SLOAD PUSH1 0x40 MLOAD PUSH1 0x1 PUSH1 0x1 PUSH1 0xA0 SHL SUB SWAP1 SWAP2 AND DUP2 MSTORE PUSH1 0x20 SWAP1 RETURN JUMPDEST CALLVALUE PUSH2 0x23E JUMPI PUSH0 CALLDATASIZE PUSH1 0x3 NOT ADD SLT PUSH2 0x23E JUMPI PUSH1 0x20 PUSH1 0x5 SLOAD PUSH1 0x40 MLOAD SWAP1 DUP2 MSTORE RETURN JUMPDEST CALLVALUE PUSH2 0x23E JUMPI PUSH0 CALLDATASIZE PUSH1 0x3 NOT ADD SLT PUSH2 0x23E JUMPI PUSH1 0x20 PUSH1 0x40 MLOAD PUSH9 0x3635C9ADC5DEA00000 DUP2 MSTORE RETURN JUMPDEST CALLVALUE PUSH2 0x23E JUMPI PUSH0 CALLDATASIZE PUSH1 0x3 NOT ADD SLT PUSH2 0x23E JUMPI PUSH1 0x3 SLOAD PUSH1 0x40 MLOAD PUSH1 0x1 PUSH1 0x1 PUSH1 0xA0 SHL SUB SWAP1 SWAP2 AND DUP2 MSTORE PUSH1 0x20 SWAP1 RETURN JUMPDEST CALLVALUE PUSH2 0x23E JUMPI PUSH0 CALLDATASIZE PUSH1 0x3 NOT ADD SLT PUSH2 0x23E JUMPI PUSH1 0x20 PUSH1 0x40 SLOAD PUSH1 0x40 MLOAD SWAP1 DUP2 MSTORE RETURN JUMPDEST CALLVALUE PUSH2 0x23E JUMPI PUSH0 CALLDATASIZE PUSH1 0x3 NOT ADD SLT PUSH2 0x23E JUMPI PUSH1 0x20 PUSH1 0x40 MLOAD PUSH1 0x5 DUP2 MSTORE RETURN JUMPDEST CALLVALUE PUSH2 0x23E JUMPI PUSH1 0x20 CALLDATASIZE PUSH1 0x3 NOT ADD SLT PUSH2 0x23E JUMPI PUSH1 0x4 CALLDATALOAD PUSH1 0x8 DUP2 LT ISZERO PUSH2 0x23E JUMPI PUSH1 0x20 SWAP1 PUSH1 0x1E ADD SLOAD PUSH1 0x40 MLOAD SWAP1 DUP2 MSTORE RETURN JUMPDEST CALLVALUE PUSH2 0x23E JUMPI PUSH0 CALLDATASIZE PUSH1 0x3 NOT ADD SLT PUSH2 0x23E JUMPI PUSH1 0x20 PUSH1 0x38 SLOAD PUSH1 0x40 MLOAD SWAP1 DUP2 MSTORE RETURN JUMPDEST CALLVALUE PUSH2 0x23E JUMPI PUSH0 CALLDATASIZE PUSH1 0x3 NOT ADD SLT PUSH2 0x23E JUMPI PUSH1 0x20 PUSH1 0x3F SLOAD PUSH1 0x40 MLOAD SWAP1 DUP2 MSTORE RETURN JUMPDEST CALLVALUE PUSH2 0x23E JUMPI PUSH0 CALLDATASIZE PUSH1 0x3 NOT ADD SLT PUSH2 0x23E JUMPI PUSH1 0x20 PUSH1 0x40 MLOAD PUSH10 0x21E19E0C9BAB2400000 DUP2 MSTORE RETURN JUMPDEST CALLVALUE PUSH2 0x23E JUMPI PUSH1 0x20 CALLDATASIZE PUSH1 0x3 NOT ADD SLT PUSH2 0x23E JUMPI PUSH1 0x4 CALLDATALOAD PUSH1 0xD SLOAD DUP2 LT ISZERO PUSH2 0x23E JUMPI PUSH1 0xD SLOAD DUP2 LT ISZERO PUSH2 0x3EE JUMPI PUSH1 0xD PUSH0 MSTORE PUSH32 0xD7B6990105719101DABEB77144F2A3385C8033ACD3AF97E9423A695E81AD1EB5 ADD SLOAD PUSH1 0x40 MLOAD SWAP1 DUP2 MSTORE PUSH1 0x20 SWAP1 RETURN JUMPDEST PUSH4 0x4E487B71 PUSH1 0xE0 SHL PUSH0 MSTORE PUSH1 0x32 PUSH1 0x4 MSTORE PUSH1 0x24 PUSH0 REVERT JUMPDEST CALLVALUE PUSH2 0x23E JUMPI PUSH0 CALLDATASIZE PUSH1 0x3 NOT ADD SLT PUSH2 0x23E JUMPI PUSH1 0x20 PUSH1 0x6 SLOAD PUSH1 0x40 MLOAD SWAP1 DUP2 MSTORE RETURN JUMPDEST CALLVALUE PUSH2 0x23E JUMPI PUSH1 0x20 CALLDATASIZE PUSH1 0x3 NOT ADD SLT PUSH2 0x23E JUMPI PUSH1 0x4 CALLDATALOAD DUP1 PUSH0 MSTORE PUSH1 0xF PUSH1 0x20 MSTORE PUSH1 0x40 PUSH0 KECCAK256 PUSH2 0x453 PUSH1 0x1 DUP1 PUSH1 0xA0 SHL SUB DUP3 SLOAD AND CALLER EQ PUSH2 0x1175 JUMP JUMPDEST PUSH1 0xF DUP2 ADD SWAP1 DUP2 SLOAD SWAP2 PUSH1 0x8 DUP4 LT PUSH2 0x468 DUP2 PUSH2 0x11B4 JUMP JUMPDEST ISZERO PUSH2 0x3EE JUMPI DUP3 PUSH1 0x1E ADD SLOAD DUP4 PUSH1 0x26 ADD SLOAD SWAP1 PUSH1 0x6 DUP5 ADD SLOAD LT ISZERO SWAP1 DUP2 PUSH2 0x63B JUMPI JUMPDEST POP ISZERO PUSH2 0x5FE JUMPI DUP3 PUSH2 0x5F9 JUMPI JUMPDEST DUP4 PUSH0 MSTORE PUSH1 0x37 PUSH1 0x20 MSTORE PUSH1 0x40 PUSH0 KECCAK256 DUP4 PUSH0 MSTORE PUSH1 0x20 MSTORE PUSH2 0x4B5 PUSH1 0xFF PUSH1 0x40 PUSH0 KECCAK256 SLOAD AND ISZERO PUSH2 0x11EF JUMP JUMPDEST PUSH2 0x4BE DUP4 PUSH2 0x10E4 JUMP JUMPDEST SWAP1 SLOAD PUSH1 0x1 SLOAD PUSH1 0x40 MLOAD PUSH4 0x23B872DD PUSH1 0xE0 SHL DUP2 MSTORE CALLER PUSH1 0x4 DUP3 ADD MSTORE ADDRESS PUSH1 0x24 DUP3 ADD MSTORE PUSH1 0x3 SWAP4 SWAP1 SWAP4 SHL SWAP2 SWAP1 SWAP2 SHR PUSH1 0x44 DUP4 ADD DUP2 SWAP1 MSTORE SWAP4 SWAP2 SWAP1 PUSH1 0x20 SWAP1 DUP3 SWAP1 PUSH1 0x64 SWAP1 DUP3 SWAP1 PUSH0 SWAP1 PUSH1 0x1 PUSH1 0x1 PUSH1 0xA0 SHL SUB AND GAS CALL DUP1 ISZERO PUSH2 0x5EE JUMPI PUSH2 0x5C1 JUMPI JUMPDEST POP DUP2 SLOAD PUSH1 0x1 DUP2 ADD DUP1 SWAP2 GT PUSH2 0x5AD JUMPI PUSH1 0x10 SWAP3 SSTORE DUP5 PUSH0 MSTORE PUSH1 0x37 PUSH1 0x20 MSTORE PUSH1 0x40 PUSH0 KECCAK256 DUP5 PUSH0 MSTORE PUSH1 0x20 MSTORE PUSH1 0x40 PUSH0 KECCAK256 PUSH1 0x1 PUSH1 0xFF NOT DUP3 SLOAD AND OR SWAP1 SSTORE ADD PUSH2 0x551 DUP3 DUP3 SLOAD PUSH2 0x12A6 JUMP JUMPDEST SWAP1 SSTORE PUSH2 0x55E DUP2 DUP5 DUP5 PUSH2 0x1913 JUMP JUMPDEST PUSH1 0x1 DUP3 ADD DUP1 SWAP3 GT PUSH2 0x5AD JUMPI PUSH1 0x40 MLOAD SWAP2 DUP3 MSTORE PUSH1 0x20 DUP3 ADD MSTORE PUSH1 0x80 PUSH1 0x40 DUP3 ADD MSTORE PUSH1 0x7 PUSH1 0x80 DUP3 ADD MSTORE PUSH7 0x2137B7B9BA32B9 PUSH1 0xC9 SHL PUSH1 0xA0 DUP3 ADD MSTORE TIMESTAMP PUSH1 0x60 DUP3 ADD MSTORE PUSH0 MLOAD PUSH1 0x20 PUSH2 0x2121 PUSH0 CODECOPY PUSH0 MLOAD SWAP1 PUSH0 MSTORE PUSH1 0xC0 CALLER SWAP3 LOG3 STOP JUMPDEST PUSH4 0x4E487B71 PUSH1 0xE0 SHL PUSH0 MSTORE PUSH1 0x11 PUSH1 0x4 MSTORE PUSH1 0x24 PUSH0 REVERT JUMPDEST PUSH2 0x5E2 SWAP1 PUSH1 0x20 RETURNDATASIZE PUSH1 0x20 GT PUSH2 0x5E7 JUMPI JUMPDEST PUSH2 0x5DA DUP2 DUP4 PUSH2 0x126C JUMP JUMPDEST DUP2 ADD SWAP1 PUSH2 0x128E JUMP JUMPDEST PUSH2 0x512 JUMP JUMPDEST POP RETURNDATASIZE PUSH2 0x5D0 JUMP JUMPDEST PUSH1 0x40 MLOAD RETURNDATASIZE PUSH0 DUP3 RETURNDATACOPY RETURNDATASIZE SWAP1 REVERT JUMPDEST PUSH2 0x492 JUMP JUMPDEST PUSH1 0x40 MLOAD PUSH3 0x461BCD PUSH1 0xE5 SHL DUP2 MSTORE PUSH1 0x20 PUSH1 0x4 DUP3 ADD MSTORE PUSH1 0x15 PUSH1 0x24 DUP3 ADD MSTORE PUSH21 0x155C19DC9859194814DB1BDD08185B9908141BDBDB PUSH1 0x5A SHL PUSH1 0x44 DUP3 ADD MSTORE PUSH1 0x64 SWAP1 REVERT JUMPDEST SWAP1 POP PUSH1 0xC DUP4 ADD SLOAD LT ISZERO DUP6 PUSH2 0x486 JUMP JUMPDEST CALLVALUE PUSH2 0x23E JUMPI PUSH1 0x20 CALLDATASIZE PUSH1 0x3 NOT ADD SLT PUSH2 0x23E JUMPI PUSH1 0x4 CALLDATALOAD PUSH1 0x15 SLOAD DUP2 LT ISZERO PUSH2 0x23E JUMPI PUSH2 0x673 PUSH1 0x20 SWAP2 PUSH2 0x10FC JUMP JUMPDEST SWAP1 SLOAD SWAP1 PUSH1 0x3 SHL SHR PUSH1 0x40 MLOAD SWAP1 DUP2 MSTORE RETURN JUMPDEST CALLVALUE PUSH2 0x23E JUMPI PUSH0 CALLDATASIZE PUSH1 0x3 NOT ADD SLT PUSH2 0x23E JUMPI PUSH1 0x20 PUSH1 0x40 MLOAD PUSH3 0x83D600 DUP2 MSTORE RETURN JUMPDEST CALLVALUE PUSH2 0x23E JUMPI PUSH0 CALLDATASIZE PUSH1 0x3 NOT ADD SLT PUSH2 0x23E JUMPI PUSH1 0x20 PUSH1 0x41 SLOAD PUSH1 0x40 MLOAD SWAP1 DUP2 MSTORE RETURN JUMPDEST CALLVALUE PUSH2 0x23E JUMPI PUSH0 CALLDATASIZE PUSH1 0x3 NOT ADD SLT PUSH2 0x23E JUMPI PUSH1 0x20 PUSH1 0x47 SLOAD PUSH1 0x40 MLOAD SWAP1 DUP2 MSTORE RETURN JUMPDEST CALLVALUE PUSH2 0x23E JUMPI PUSH1 0x20 CALLDATASIZE PUSH1 0x3 NOT ADD SLT PUSH2 0x23E JUMPI PUSH1 0x4 CALLDATALOAD PUSH1 0x8 DUP2 LT ISZERO PUSH2 0x23E JUMPI PUSH1 0x20 SWAP1 PUSH1 0x26 ADD SLOAD PUSH1 0x40 MLOAD SWAP1 DUP2 MSTORE RETURN JUMPDEST CALLVALUE PUSH2 0x23E JUMPI PUSH1 0x40 CALLDATASIZE PUSH1 0x3 NOT ADD SLT PUSH2 0x23E JUMPI PUSH1 0x4 CALLDATALOAD PUSH4 0xFFFFFFFF DUP2 AND DUP1 SWAP2 SUB PUSH2 0x23E JUMPI PUSH1 0x24 CALLDATALOAD DUP2 PUSH0 MSTORE PUSH1 0xF PUSH1 0x20 MSTORE PUSH1 0x40 PUSH0 KECCAK256 PUSH2 0x74A PUSH1 0x1 DUP1 PUSH1 0xA0 SHL SUB DUP3 SLOAD AND CALLER EQ PUSH2 0x1175 JUMP JUMPDEST PUSH1 0xC DUP2 ADD SWAP1 PUSH2 0x75C PUSH1 0x7 DUP4 SLOAD LT PUSH2 0x1411 JUMP JUMPDEST PUSH1 0x1 DUP4 ADD SWAP3 DUP4 DUP2 GT PUSH2 0x5AD JUMPI PUSH1 0x15 SLOAD DUP5 LT ISZERO PUSH2 0x900 JUMPI PUSH2 0x77B DUP5 PUSH2 0x10FC JUMP JUMPDEST SWAP1 SLOAD SWAP1 PUSH1 0x3 SHL SHR SWAP3 DUP2 PUSH0 MSTORE PUSH1 0x2E PUSH1 0x20 MSTORE PUSH1 0x40 PUSH0 KECCAK256 DUP7 PUSH0 MSTORE PUSH1 0x20 MSTORE PUSH1 0x40 PUSH0 KECCAK256 DUP1 SLOAD DUP6 DUP2 LT PUSH2 0x8BB JUMPI DUP8 PUSH0 MSTORE PUSH1 0x33 PUSH1 0x20 MSTORE PUSH1 0x40 PUSH0 KECCAK256 DUP8 PUSH0 MSTORE PUSH1 0x20 MSTORE PUSH1 0xFF PUSH1 0x40 PUSH0 KECCAK256 SLOAD AND PUSH2 0x876 JUMPI DUP6 PUSH2 0x7CA SWAP2 PUSH2 0x144B JUMP JUMPDEST SWAP1 SSTORE DUP1 SLOAD SWAP3 PUSH1 0x1 DUP5 ADD DUP1 SWAP5 GT PUSH2 0x5AD JUMPI PUSH1 0x2 SWAP4 PUSH1 0xD SWAP3 SSTORE ADD PUSH2 0x7ED DUP5 DUP3 SLOAD PUSH2 0x12A6 JUMP JUMPDEST SWAP1 SSTORE DUP5 PUSH0 MSTORE PUSH1 0x33 PUSH1 0x20 MSTORE PUSH1 0x40 PUSH0 KECCAK256 DUP5 PUSH0 MSTORE PUSH1 0x20 MSTORE PUSH1 0x40 PUSH0 KECCAK256 PUSH1 0x1 PUSH1 0xFF NOT DUP3 SLOAD AND OR SWAP1 SSTORE PUSH2 0x81B DUP4 DUP7 DUP7 PUSH2 0x1501 JUMP JUMPDEST ADD DUP1 SWAP3 GT PUSH2 0x5AD JUMPI PUSH1 0x40 MLOAD SWAP2 DUP3 MSTORE PUSH1 0x20 DUP3 ADD MSTORE PUSH1 0x80 PUSH1 0x40 DUP3 ADD MSTORE PUSH1 0x16 PUSH1 0x80 DUP3 ADD MSTORE PUSH22 0x506F6F6C205570677261646520284561726E696E6729 PUSH1 0x50 SHL PUSH1 0xA0 DUP3 ADD MSTORE TIMESTAMP PUSH1 0x60 DUP3 ADD MSTORE PUSH0 MLOAD PUSH1 0x20 PUSH2 0x2121 PUSH0 CODECOPY PUSH0 MLOAD SWAP1 PUSH0 MSTORE PUSH1 0xC0 CALLER SWAP3 LOG3 STOP JUMPDEST PUSH1 0x40 MLOAD PUSH3 0x461BCD PUSH1 0xE5 SHL DUP2 MSTORE PUSH1 0x20 PUSH1 0x4 DUP3 ADD MSTORE PUSH1 0x1B PUSH1 0x24 DUP3 ADD MSTORE PUSH32 0x416C726561647920707572636861736564206E65787420706F6F6C0000000000 PUSH1 0x44 DUP3 ADD MSTORE PUSH1 0x64 SWAP1 REVERT JUMPDEST PUSH1 0x40 MLOAD PUSH3 0x461BCD PUSH1 0xE5 SHL DUP2 MSTORE PUSH1 0x20 PUSH1 0x4 DUP3 ADD MSTORE PUSH1 0x1C PUSH1 0x24 DUP3 ADD MSTORE PUSH32 0x4E6F7420656E6F756768206E65787420706F6F6C2062616C616E636500000000 PUSH1 0x44 DUP3 ADD MSTORE PUSH1 0x64 SWAP1 REVERT JUMPDEST PUSH1 0x40 MLOAD PUSH3 0x461BCD PUSH1 0xE5 SHL DUP2 MSTORE PUSH1 0x20 PUSH1 0x4 DUP3 ADD MSTORE PUSH1 0xE PUSH1 0x24 DUP3 ADD MSTORE PUSH14 0x139BC81A1A59DA195C881C1BDBDB PUSH1 0x92 SHL PUSH1 0x44 DUP3 ADD MSTORE PUSH1 0x64 SWAP1 REVERT JUMPDEST CALLVALUE PUSH2 0x23E JUMPI PUSH2 0x944 CALLDATASIZE PUSH2 0x115F JUMP JUMPDEST SWAP1 PUSH0 MSTORE PUSH1 0xB PUSH1 0x20 MSTORE PUSH1 0x40 PUSH0 KECCAK256 SWAP1 PUSH0 MSTORE PUSH1 0x20 MSTORE PUSH1 0x20 PUSH1 0x40 PUSH0 KECCAK256 SLOAD PUSH1 0x40 MLOAD SWAP1 DUP2 MSTORE RETURN JUMPDEST CALLVALUE PUSH2 0x23E JUMPI PUSH0 CALLDATASIZE PUSH1 0x3 NOT ADD SLT PUSH2 0x23E JUMPI PUSH1 0x2 SLOAD PUSH1 0x40 MLOAD PUSH1 0x1 PUSH1 0x1 PUSH1 0xA0 SHL SUB SWAP1 SWAP2 AND DUP2 MSTORE PUSH1 0x20 SWAP1 RETURN JUMPDEST CALLVALUE PUSH2 0x23E JUMPI PUSH0 CALLDATASIZE PUSH1 0x3 NOT ADD SLT PUSH2 0x23E JUMPI PUSH1 0x20 PUSH1 0x9 SLOAD PUSH1 0x40 MLOAD SWAP1 DUP2 MSTORE RETURN JUMPDEST CALLVALUE PUSH2 0x23E JUMPI PUSH2 0x9B8 CALLDATASIZE PUSH2 0x115F JUMP JUMPDEST DUP2 PUSH0 MSTORE PUSH1 0xF PUSH1 0x20 MSTORE PUSH1 0x40 PUSH0 KECCAK256 PUSH2 0x9D8 PUSH1 0x1 DUP1 PUSH1 0xA0 SHL SUB DUP3 SLOAD AND CALLER EQ PUSH2 0x1175 JUMP JUMPDEST PUSH2 0x9E8 PUSH1 0x7 PUSH1 0xC DUP4 ADD SLOAD LT PUSH2 0x1411 JUMP JUMPDEST PUSH2 0x9F1 DUP3 PUSH2 0x10FC JUMP JUMPDEST SWAP1 SLOAD SWAP1 PUSH1 0x3 SHL SHR SWAP1 DUP3 PUSH0 MSTORE PUSH1 0x2E PUSH1 0x20 MSTORE PUSH1 0x40 PUSH0 KECCAK256 DUP5 PUSH0 MSTORE PUSH1 0x20 MSTORE PUSH1 0x1 PUSH1 0x40 PUSH0 KECCAK256 ADD SWAP1 DUP2 SLOAD SWAP2 DUP4 DUP4 LT PUSH2 0xB23 JUMPI PUSH2 0xA29 DUP5 PUSH1 0x1 SWAP5 PUSH2 0x144B JUMP JUMPDEST SWAP1 SSTORE PUSH1 0xD DUP2 ADD PUSH2 0xA3A DUP5 DUP3 SLOAD PUSH2 0x12A6 JUMP JUMPDEST SWAP1 SSTORE PUSH2 0xA47 DUP4 DUP7 DUP7 PUSH2 0x1501 JUMP JUMPDEST ADD PUSH1 0x40 MLOAD SWAP1 PUSH2 0xA55 DUP3 PUSH2 0x1234 JUMP JUMPDEST DUP3 DUP3 MSTORE PUSH1 0x20 DUP3 ADD SWAP1 PUSH0 DUP3 MSTORE PUSH1 0x40 DUP4 ADD SWAP3 TIMESTAMP DUP5 MSTORE PUSH1 0x60 DUP2 ADD SWAP4 PUSH1 0xA DUP6 MSTORE DUP3 SLOAD SWAP4 PUSH1 0x1 PUSH1 0x40 SHL DUP6 LT ISZERO PUSH2 0xB0F JUMPI PUSH1 0x1 DUP6 ADD DUP1 DUP6 SSTORE DUP6 LT ISZERO PUSH2 0x3EE JUMPI PUSH1 0xFF SWAP5 PUSH1 0x3 SWAP5 PUSH0 MSTORE PUSH1 0x20 PUSH0 KECCAK256 SWAP1 PUSH1 0x2 SHL ADD SWAP3 MLOAD DUP4 SSTORE MLOAD PUSH1 0x1 DUP4 ADD SSTORE MLOAD PUSH1 0x2 DUP3 ADD SSTORE ADD SWAP2 MLOAD AND PUSH1 0xFF NOT DUP3 SLOAD AND OR SWAP1 SSTORE PUSH1 0x40 MLOAD SWAP2 DUP3 MSTORE PUSH1 0x20 DUP3 ADD MSTORE PUSH1 0x80 PUSH1 0x40 DUP3 ADD MSTORE PUSH1 0x16 PUSH1 0x80 DUP3 ADD MSTORE PUSH22 0x506F6F6C205265546F70757020284561726E696E6729 PUSH1 0x50 SHL PUSH1 0xA0 DUP3 ADD MSTORE TIMESTAMP PUSH1 0x60 DUP3 ADD MSTORE PUSH0 MLOAD PUSH1 0x20 PUSH2 0x2121 PUSH0 CODECOPY PUSH0 MLOAD SWAP1 PUSH0 MSTORE PUSH1 0xC0 CALLER SWAP3 LOG3 STOP JUMPDEST PUSH4 0x4E487B71 PUSH1 0xE0 SHL PUSH0 MSTORE PUSH1 0x41 PUSH1 0x4 MSTORE PUSH1 0x24 PUSH0 REVERT JUMPDEST PUSH1 0x40 MLOAD PUSH3 0x461BCD PUSH1 0xE5 SHL DUP2 MSTORE PUSH1 0x20 PUSH1 0x4 DUP3 ADD MSTORE PUSH1 0x1A PUSH1 0x24 DUP3 ADD MSTORE PUSH32 0x4E6F7420656E6F756768207265546F7075702062616C616E6365000000000000 PUSH1 0x44 DUP3 ADD MSTORE PUSH1 0x64 SWAP1 REVERT JUMPDEST CALLVALUE PUSH2 0x23E JUMPI PUSH0 CALLDATASIZE PUSH1 0x3 NOT ADD SLT PUSH2 0x23E JUMPI PUSH1 0x20 PUSH1 0x40 MLOAD PUSH3 0x93A80 DUP2 MSTORE RETURN JUMPDEST CALLVALUE PUSH2 0x23E JUMPI PUSH0 CALLDATASIZE PUSH1 0x3 NOT ADD SLT PUSH2 0x23E JUMPI PUSH1 0x20 PUSH1 0x40 MLOAD PUSH4 0x2514300 DUP2 MSTORE RETURN JUMPDEST CALLVALUE PUSH2 0x23E JUMPI PUSH1 0x20 CALLDATASIZE PUSH1 0x3 NOT ADD SLT PUSH2 0x23E JUMPI PUSH1 0x60 PUSH2 0xBC1 PUSH1 0x4 CALLDATALOAD PUSH2 0x12B3 JUMP JUMPDEST SWAP2 SWAP1 PUSH1 0x20 PUSH1 0x40 MLOAD SWAP4 DUP5 SWAP3 ISZERO ISZERO DUP4 MSTORE PUSH1 0x40 DUP3 DUP5 ADD MSTORE DUP1 MLOAD SWAP2 DUP3 SWAP2 DUP3 PUSH1 0x40 DUP7 ADD MSTORE ADD DUP5 DUP5 ADD MCOPY PUSH0 DUP3 DUP3 ADD DUP5 ADD MSTORE PUSH1 0x1F ADD PUSH1 0x1F NOT AND DUP2 ADD SUB ADD SWAP1 RETURN JUMPDEST CALLVALUE PUSH2 0x23E JUMPI PUSH0 CALLDATASIZE PUSH1 0x3 NOT ADD SLT PUSH2 0x23E JUMPI PUSH1 0x20 PUSH1 0x48 SLOAD PUSH1 0x40 MLOAD SWAP1 DUP2 MSTORE RETURN JUMPDEST PUSH2 0x1129 JUMP JUMPDEST CALLVALUE PUSH2 0x23E JUMPI PUSH0 CALLDATASIZE PUSH1 0x3 NOT ADD SLT PUSH2 0x23E JUMPI PUSH1 0x20 PUSH1 0x46 SLOAD PUSH1 0x40 MLOAD SWAP1 DUP2 MSTORE RETURN JUMPDEST CALLVALUE PUSH2 0x23E JUMPI PUSH1 0x20 CALLDATASIZE PUSH1 0x3 NOT ADD SLT PUSH2 0x23E JUMPI PUSH1 0x4 CALLDATALOAD PUSH0 MSTORE PUSH1 0xA PUSH1 0x20 MSTORE PUSH1 0x20 PUSH1 0x40 PUSH0 KECCAK256 SLOAD PUSH1 0x40 MLOAD SWAP1 DUP2 MSTORE RETURN JUMPDEST CALLVALUE PUSH2 0x23E JUMPI PUSH1 0x20 CALLDATASIZE PUSH1 0x3 NOT ADD SLT PUSH2 0x23E JUMPI PUSH1 0x4 CALLDATALOAD DUP1 PUSH0 MSTORE PUSH1 0xF PUSH1 0x20 MSTORE PUSH1 0x40 PUSH0 KECCAK256 PUSH2 0xC97 PUSH1 0x1 DUP1 PUSH1 0xA0 SHL SUB DUP3 SLOAD AND CALLER EQ PUSH2 0x1175 JUMP JUMPDEST PUSH1 0xC DUP2 ADD SWAP1 DUP2 SLOAD SWAP2 PUSH1 0x7 DUP4 LT PUSH2 0xCAC DUP2 PUSH2 0x11B4 JUMP JUMPDEST ISZERO PUSH2 0x3EE JUMPI DUP3 PUSH1 0x17 ADD SLOAD PUSH1 0x6 DUP4 ADD SLOAD LT PUSH2 0xECE JUMPI DUP3 ISZERO SWAP2 DUP3 ISZERO PUSH2 0xEC9 JUMPI JUMPDEST DUP5 PUSH0 MSTORE PUSH1 0x33 PUSH1 0x20 MSTORE PUSH1 0x40 PUSH0 KECCAK256 DUP5 PUSH0 MSTORE PUSH1 0x20 MSTORE PUSH2 0xCED PUSH1 0xFF PUSH1 0x40 PUSH0 KECCAK256 SLOAD AND ISZERO PUSH2 0x11EF JUMP JUMPDEST PUSH2 0xCF6 DUP5 PUSH2 0x10FC JUMP JUMPDEST SWAP1 SLOAD PUSH1 0x1 SLOAD PUSH1 0x40 MLOAD PUSH4 0x23B872DD PUSH1 0xE0 SHL DUP2 MSTORE CALLER PUSH1 0x4 DUP3 ADD MSTORE ADDRESS PUSH1 0x24 DUP3 ADD MSTORE PUSH1 0x3 SWAP4 SWAP1 SWAP4 SHL SWAP2 SWAP1 SWAP2 SHR PUSH1 0x44 DUP4 ADD DUP2 SWAP1 MSTORE SWAP5 SWAP2 SWAP1 PUSH1 0x20 SWAP1 DUP3 SWAP1 PUSH1 0x64 SWAP1 DUP3 SWAP1 PUSH0 SWAP1 PUSH1 0x1 PUSH1 0x1 PUSH1 0xA0 SHL SUB AND GAS CALL DUP1 ISZERO PUSH2 0x5EE JUMPI PUSH2 0xEAC JUMPI JUMPDEST POP PUSH2 0xE39 JUMPI JUMPDEST PUSH1 0x1 PUSH1 0x8 DUP3 ADD SLOAD GT DUP1 PUSH2 0xE1A JUMPI JUMPDEST DUP1 PUSH2 0xE0C JUMPI JUMPDEST PUSH2 0xE00 JUMPI JUMPDEST DUP2 SLOAD PUSH1 0x1 DUP2 ADD DUP1 SWAP2 GT PUSH2 0x5AD JUMPI PUSH1 0xD SWAP3 SSTORE DUP5 PUSH0 MSTORE PUSH1 0x33 PUSH1 0x20 MSTORE PUSH1 0x40 PUSH0 KECCAK256 DUP5 PUSH0 MSTORE PUSH1 0x20 MSTORE PUSH1 0x40 PUSH0 KECCAK256 PUSH1 0x1 PUSH1 0xFF NOT DUP3 SLOAD AND OR SWAP1 SSTORE ADD PUSH2 0xDA7 DUP3 DUP3 SLOAD PUSH2 0x12A6 JUMP JUMPDEST SWAP1 SSTORE PUSH2 0xDB4 DUP2 DUP5 DUP5 PUSH2 0x1501 JUMP JUMPDEST PUSH1 0x1 DUP3 ADD DUP1 SWAP3 GT PUSH2 0x5AD JUMPI PUSH1 0x40 MLOAD SWAP2 DUP3 MSTORE PUSH1 0x20 DUP3 ADD MSTORE PUSH1 0x80 PUSH1 0x40 DUP3 ADD MSTORE PUSH1 0x4 PUSH1 0x80 DUP3 ADD MSTORE PUSH4 0x141BDBDB PUSH1 0xE2 SHL PUSH1 0xA0 DUP3 ADD MSTORE TIMESTAMP PUSH1 0x60 DUP3 ADD MSTORE PUSH0 MLOAD PUSH1 0x20 PUSH2 0x2121 PUSH0 CODECOPY PUSH0 MLOAD SWAP1 PUSH0 MSTORE PUSH1 0xC0 CALLER SWAP3 LOG3 STOP JUMPDEST PUSH1 0x14 PUSH1 0xB DUP3 ADD SSTORE PUSH2 0xD69 JUMP JUMPDEST POP PUSH1 0xF PUSH1 0xB DUP3 ADD SLOAD EQ PUSH2 0xD64 JUMP JUMPDEST POP PUSH1 0x11 DUP2 ADD SLOAD PUSH3 0x2A300 DUP2 ADD DUP1 SWAP2 GT PUSH2 0x5AD JUMPI PUSH1 0xE DUP3 ADD SLOAD GT ISZERO PUSH2 0xD5E JUMP JUMPDEST TIMESTAMP PUSH1 0xE DUP3 ADD SSTORE PUSH1 0x4 DUP2 ADD SLOAD PUSH0 MSTORE PUSH1 0xF PUSH1 0x20 MSTORE PUSH1 0x40 PUSH0 KECCAK256 PUSH1 0x11 DUP2 ADD SLOAD PUSH3 0x2A300 DUP2 ADD DUP1 SWAP2 GT PUSH2 0x5AD JUMPI TIMESTAMP LT ISZERO DUP1 PUSH2 0xE9E JUMPI JUMPDEST PUSH2 0xE75 JUMPI JUMPDEST POP PUSH2 0xD50 JUMP JUMPDEST PUSH1 0x8 DUP2 ADD DUP1 SLOAD PUSH1 0x1 DUP2 ADD DUP1 SWAP2 GT PUSH2 0x5AD JUMPI DUP1 PUSH1 0x1 SWAP3 SSTORE GT ISZERO PUSH2 0xE6F JUMPI PUSH1 0xB PUSH1 0x14 SWAP2 ADD SSTORE DUP6 PUSH2 0xE6F JUMP JUMPDEST POP PUSH1 0xF PUSH1 0xB DUP3 ADD SLOAD EQ PUSH2 0xE6A JUMP JUMPDEST PUSH2 0xEC4 SWAP1 PUSH1 0x20 RETURNDATASIZE PUSH1 0x20 GT PUSH2 0x5E7 JUMPI PUSH2 0x5DA DUP2 DUP4 PUSH2 0x126C JUMP JUMPDEST PUSH2 0xD4A JUMP JUMPDEST PUSH2 0xCCA JUMP JUMPDEST PUSH1 0x40 MLOAD PUSH3 0x461BCD PUSH1 0xE5 SHL DUP2 MSTORE PUSH1 0x20 PUSH1 0x4 DUP3 ADD MSTORE PUSH1 0x18 PUSH1 0x24 DUP3 ADD MSTORE PUSH32 0x5570677261646520796F7572206C6576656C2066697273740000000000000000 PUSH1 0x44 DUP3 ADD MSTORE PUSH1 0x64 SWAP1 REVERT JUMPDEST CALLVALUE PUSH2 0x23E JUMPI PUSH0 CALLDATASIZE PUSH1 0x3 NOT ADD SLT PUSH2 0x23E JUMPI PUSH1 0x20 PUSH1 0x40 MLOAD PUSH3 0x2A300 DUP2 MSTORE RETURN JUMPDEST CALLVALUE PUSH2 0x23E JUMPI PUSH1 0x20 CALLDATASIZE PUSH1 0x3 NOT ADD SLT PUSH2 0x23E JUMPI PUSH1 0x4 CALLDATALOAD PUSH1 0x7 SLOAD DUP2 LT ISZERO PUSH2 0x23E JUMPI PUSH1 0x7 SLOAD DUP2 LT ISZERO PUSH2 0x3EE JUMPI PUSH1 0x7 PUSH0 MSTORE PUSH32 0xA66CC928B5EDB82AF9BD49922954155AB7B0942694BEA4CE44661D9A8736C688 ADD SLOAD PUSH1 0x40 MLOAD SWAP1 DUP2 MSTORE PUSH1 0x20 SWAP1 RETURN JUMPDEST PUSH2 0x1144 JUMP JUMPDEST CALLVALUE PUSH2 0x23E JUMPI PUSH0 CALLDATASIZE PUSH1 0x3 NOT ADD SLT PUSH2 0x23E JUMPI PUSH1 0x20 PUSH1 0x40 MLOAD PUSH8 0xDE0B6B3A7640000 DUP2 MSTORE RETURN JUMPDEST CALLVALUE PUSH2 0x23E JUMPI PUSH0 CALLDATASIZE PUSH1 0x3 NOT ADD SLT PUSH2 0x23E JUMPI PUSH1 0x20 PUSH1 0x40 MLOAD PUSH3 0x15180 DUP2 MSTORE RETURN JUMPDEST CALLVALUE PUSH2 0x23E JUMPI PUSH0 CALLDATASIZE PUSH1 0x3 NOT ADD SLT PUSH2 0x23E JUMPI PUSH1 0x20 PUSH1 0x40 MLOAD PUSH1 0x2 DUP2 MSTORE RETURN JUMPDEST CALLVALUE PUSH2 0x23E JUMPI PUSH0 CALLDATASIZE PUSH1 0x3 NOT ADD SLT PUSH2 0x23E JUMPI PUSH1 0x20 PUSH1 0x3A SLOAD PUSH1 0x40 MLOAD SWAP1 DUP2 MSTORE RETURN JUMPDEST CALLVALUE PUSH2 0x23E JUMPI PUSH0 CALLDATASIZE PUSH1 0x3 NOT ADD SLT PUSH2 0x23E JUMPI PUSH1 0x1 SLOAD PUSH1 0x40 MLOAD PUSH1 0x1 PUSH1 0x1 PUSH1 0xA0 SHL SUB SWAP1 SWAP2 AND DUP2 MSTORE PUSH1 0x20 SWAP1 RETURN JUMPDEST CALLVALUE PUSH2 0x23E JUMPI PUSH0 CALLDATASIZE PUSH1 0x3 NOT ADD SLT PUSH2 0x23E JUMPI PUSH1 0x20 PUSH1 0x40 MLOAD PUSH3 0x278D00 DUP2 MSTORE RETURN JUMPDEST CALLVALUE PUSH2 0x23E JUMPI PUSH1 0x20 CALLDATASIZE PUSH1 0x3 NOT ADD SLT PUSH2 0x23E JUMPI PUSH1 0x4 CALLDATALOAD PUSH1 0x16 SLOAD DUP2 LT ISZERO PUSH2 0x23E JUMPI PUSH2 0x673 PUSH1 0x20 SWAP2 PUSH2 0x10E4 JUMP JUMPDEST CALLVALUE PUSH2 0x23E JUMPI PUSH1 0x20 CALLDATASIZE PUSH1 0x3 NOT ADD SLT PUSH2 0x23E JUMPI PUSH1 0x4 CALLDATALOAD PUSH1 0x7 DUP2 LT ISZERO PUSH2 0x23E JUMPI PUSH1 0x20 SWAP1 PUSH1 0x17 ADD SLOAD PUSH1 0x40 MLOAD SWAP1 DUP2 MSTORE RETURN JUMPDEST CALLVALUE PUSH2 0x23E JUMPI PUSH1 0x20 CALLDATASIZE PUSH1 0x3 NOT ADD SLT PUSH2 0x23E JUMPI PUSH1 0x4 CALLDATALOAD PUSH0 MSTORE PUSH1 0xC PUSH1 0x20 MSTORE PUSH1 0x20 PUSH1 0x40 PUSH0 KECCAK256 SLOAD PUSH1 0x40 MLOAD SWAP1 DUP2 MSTORE RETURN JUMPDEST CALLVALUE PUSH2 0x23E JUMPI PUSH0 CALLDATASIZE PUSH1 0x3 NOT ADD SLT PUSH2 0x23E JUMPI DUP1 PUSH2 0x2710 PUSH1 0x20 SWAP3 MSTORE RETURN JUMPDEST PUSH1 0x16 SLOAD DUP2 LT ISZERO PUSH2 0x3EE JUMPI PUSH1 0x16 PUSH0 MSTORE PUSH1 0x20 PUSH0 KECCAK256 ADD SWAP1 PUSH0 SWAP1 JUMP JUMPDEST PUSH1 0x15 SLOAD DUP2 LT ISZERO PUSH2 0x3EE JUMPI PUSH1 0x15 PUSH0 MSTORE PUSH1 0x20 PUSH0 KECCAK256 ADD SWAP1 PUSH0 SWAP1 JUMP JUMPDEST DUP1 SLOAD DUP3 LT ISZERO PUSH2 0x3EE JUMPI PUSH0 MSTORE PUSH1 0x20 PUSH0 KECCAK256 ADD SWAP1 PUSH0 SWAP1 JUMP JUMPDEST CALLVALUE PUSH2 0x23E JUMPI PUSH0 CALLDATASIZE PUSH1 0x3 NOT ADD SLT PUSH2 0x23E JUMPI PUSH1 0x20 PUSH1 0x40 MLOAD PUSH1 0xA DUP2 MSTORE RETURN JUMPDEST CALLVALUE PUSH2 0x23E JUMPI PUSH0 CALLDATASIZE PUSH1 0x3 NOT ADD SLT PUSH2 0x23E JUMPI PUSH1 0x20 PUSH1 0x40 MLOAD PUSH1 0xF DUP2 MSTORE RETURN JUMPDEST PUSH1 0x40 SWAP1 PUSH1 0x3 NOT ADD SLT PUSH2 0x23E JUMPI PUSH1 0x4 CALLDATALOAD SWAP1 PUSH1 0x24 CALLDATALOAD SWAP1 JUMP JUMPDEST ISZERO PUSH2 0x117C JUMPI JUMP JUMPDEST PUSH1 0x40 MLOAD PUSH3 0x461BCD PUSH1 0xE5 SHL DUP2 MSTORE PUSH1 0x20 PUSH1 0x4 DUP3 ADD MSTORE PUSH1 0x10 PUSH1 0x24 DUP3 ADD MSTORE PUSH16 0x139BDD081E5BDD5C881858D8DBDD5B9D PUSH1 0x82 SHL PUSH1 0x44 DUP3 ADD MSTORE PUSH1 0x64 SWAP1 REVERT JUMPDEST ISZERO PUSH2 0x11BB JUMPI JUMP JUMPDEST PUSH1 0x40 MLOAD PUSH3 0x461BCD PUSH1 0xE5 SHL DUP2 MSTORE PUSH1 0x20 PUSH1 0x4 DUP3 ADD MSTORE PUSH1 0xC PUSH1 0x24 DUP3 ADD MSTORE PUSH12 0x105D081B585E081B195D995B PUSH1 0xA2 SHL PUSH1 0x44 DUP3 ADD MSTORE PUSH1 0x64 SWAP1 REVERT JUMPDEST ISZERO PUSH2 0x11F6 JUMPI JUMP JUMPDEST PUSH1 0x40 MLOAD PUSH3 0x461BCD PUSH1 0xE5 SHL DUP2 MSTORE PUSH1 0x20 PUSH1 0x4 DUP3 ADD MSTORE PUSH1 0x16 PUSH1 0x24 DUP3 ADD MSTORE PUSH22 0x141BDBDB08185B1C9958591E481C1D5C98DA185CD959 PUSH1 0x52 SHL PUSH1 0x44 DUP3 ADD MSTORE PUSH1 0x64 SWAP1 REVERT JUMPDEST PUSH1 0x80 DUP2 ADD SWAP1 DUP2 LT PUSH8 0xFFFFFFFFFFFFFFFF DUP3 GT OR PUSH2 0xB0F JUMPI PUSH1 0x40 MSTORE JUMP JUMPDEST PUSH1 0xA0 DUP2 ADD SWAP1 DUP2 LT PUSH8 0xFFFFFFFFFFFFFFFF DUP3 GT OR PUSH2 0xB0F JUMPI PUSH1 0x40 MSTORE JUMP JUMPDEST SWAP1 PUSH1 0x1F DUP1 NOT SWAP2 ADD AND DUP2 ADD SWAP1 DUP2 LT PUSH8 0xFFFFFFFFFFFFFFFF DUP3 GT OR PUSH2 0xB0F JUMPI PUSH1 0x40 MSTORE JUMP JUMPDEST SWAP1 DUP2 PUSH1 0x20 SWAP2 SUB SLT PUSH2 0x23E JUMPI MLOAD DUP1 ISZERO ISZERO DUP2 SUB PUSH2 0x23E JUMPI SWAP1 JUMP JUMPDEST SWAP2 SWAP1 DUP3 ADD DUP1 SWAP3 GT PUSH2 0x5AD JUMPI JUMP JUMPDEST PUSH1 0x60 SWAP1 PUSH0 MSTORE PUSH1 0xF PUSH1 0x20 MSTORE PUSH1 0x40 PUSH0 KECCAK256 PUSH1 0xC DUP2 ADD SLOAD SWAP2 PUSH1 0x15 SLOAD DUP4 LT ISZERO PUSH2 0x13C5 JUMPI POP PUSH1 0x7 DUP3 LT ISZERO PUSH2 0x3EE JUMPI PUSH1 0x6 DUP3 PUSH1 0x17 ADD SLOAD SWAP2 ADD SLOAD LT PUSH2 0x1378 JUMPI ISZERO ISZERO DUP1 PUSH2 0x1371 JUMPI JUMPDEST PUSH2 0x1334 JUMPI PUSH1 0x1 SWAP1 PUSH1 0x40 MLOAD PUSH2 0x1307 PUSH1 0x40 DUP3 PUSH2 0x126C JUMP JUMPDEST PUSH1 0x19 DUP2 MSTORE PUSH32 0x456C696769626C6520746F20627579206E65787420706F6F6C00000000000000 PUSH1 0x20 DUP3 ADD MSTORE SWAP1 JUMP JUMPDEST PUSH0 SWAP1 PUSH1 0x40 MLOAD PUSH2 0x1344 PUSH1 0x40 DUP3 PUSH2 0x126C JUMP JUMPDEST PUSH1 0x17 DUP2 MSTORE PUSH32 0x4275792070726576696F757320706F6F6C206669727374000000000000000000 PUSH1 0x20 DUP3 ADD MSTORE SWAP1 JUMP JUMPDEST POP PUSH0 PUSH2 0x12F2 JUMP JUMPDEST POP PUSH0 SWAP1 PUSH1 0x40 MLOAD PUSH2 0x1389 PUSH1 0x60 DUP3 PUSH2 0x126C JUMP JUMPDEST PUSH1 0x26 DUP2 MSTORE PUSH32 0x596F75206E65656420746F207265616368206120686967686572206C6576656C PUSH1 0x20 DUP3 ADD MSTORE PUSH6 0x8199A5C9CDD PUSH1 0xD2 SHL PUSH1 0x40 DUP3 ADD MSTORE SWAP1 JUMP JUMPDEST SWAP3 SWAP2 POP POP PUSH0 SWAP2 PUSH2 0x13D8 PUSH1 0x40 MLOAD SWAP2 DUP3 PUSH2 0x126C JUMP JUMPDEST PUSH1 0x23 DUP2 MSTORE PUSH32 0x596F752061726520616C72656164792061742074686520686967686573742070 PUSH1 0x20 DUP3 ADD MSTORE PUSH3 0x1BDBDB PUSH1 0xEA SHL PUSH1 0x40 DUP3 ADD MSTORE SWAP1 JUMP JUMPDEST ISZERO PUSH2 0x1418 JUMPI JUMP JUMPDEST PUSH1 0x40 MLOAD PUSH3 0x461BCD PUSH1 0xE5 SHL DUP2 MSTORE PUSH1 0x20 PUSH1 0x4 DUP3 ADD MSTORE PUSH1 0xB PUSH1 0x24 DUP3 ADD MSTORE PUSH11 0x105D081B585E081C1BDBDB PUSH1 0xAA SHL PUSH1 0x44 DUP3 ADD MSTORE PUSH1 0x64 SWAP1 REVERT JUMPDEST SWAP2 SWAP1 DUP3 SUB SWAP2 DUP3 GT PUSH2 0x5AD JUMPI JUMP JUMPDEST ISZERO PUSH2 0x145F JUMPI JUMP JUMPDEST PUSH1 0x40 MLOAD PUSH3 0x461BCD PUSH1 0xE5 SHL DUP2 MSTORE PUSH1 0x20 PUSH1 0x4 DUP3 ADD MSTORE PUSH1 0x7 PUSH1 0x24 DUP3 ADD MSTORE PUSH7 0x125B9D985B1A59 PUSH1 0xCA SHL PUSH1 0x44 DUP3 ADD MSTORE PUSH1 0x64 SWAP1 REVERT JUMPDEST ISZERO PUSH2 0x1495 JUMPI JUMP JUMPDEST PUSH1 0x40 MLOAD PUSH3 0x461BCD PUSH1 0xE5 SHL DUP2 MSTORE PUSH1 0x20 PUSH1 0x4 DUP3 ADD MSTORE PUSH1 0x10 PUSH1 0x24 DUP3 ADD MSTORE PUSH16 0x125B98DBDC9C9958DD08185B5BDD5B9D PUSH1 0x82 SHL PUSH1 0x44 DUP3 ADD MSTORE PUSH1 0x64 SWAP1 REVERT JUMPDEST DUP1 SLOAD PUSH1 0x1 PUSH1 0x40 SHL DUP2 LT ISZERO PUSH2 0xB0F JUMPI PUSH2 0x14EA SWAP2 PUSH1 0x1 DUP3 ADD DUP2 SSTORE PUSH2 0x1114 JUMP JUMPDEST DUP2 SWAP3 SWAP2 SLOAD SWAP1 PUSH1 0x3 SHL SWAP2 DUP3 SHL SWAP2 PUSH0 NOT SWAP1 SHL NOT AND OR SWAP1 SSTORE JUMP JUMPDEST SWAP1 SWAP3 SWAP2 PUSH1 0x15 SLOAD SWAP4 PUSH2 0x1514 PUSH0 SWAP6 DUP5 LT PUSH2 0x1458 JUMP JUMPDEST PUSH2 0x152E PUSH2 0x1520 DUP5 PUSH2 0x10FC JUMP JUMPDEST SWAP1 SLOAD SWAP1 PUSH1 0x3 SHL SHR CALLVALUE EQ PUSH2 0x148E JUMP JUMPDEST DUP3 PUSH0 MSTORE PUSH1 0x32 PUSH1 0x20 MSTORE PUSH1 0x40 PUSH0 KECCAK256 SLOAD PUSH2 0x1547 DUP2 PUSH1 0x5 SLOAD PUSH2 0x12A6 JUMP JUMPDEST SWAP1 DUP5 PUSH0 MSTORE PUSH1 0x32 PUSH1 0x20 MSTORE PUSH2 0x155D DUP3 PUSH1 0x40 PUSH0 KECCAK256 PUSH2 0x14CD JUMP JUMPDEST PUSH0 NOT DUP2 ADD SWAP1 DUP2 GT PUSH2 0x5AD JUMPI PUSH2 0x1583 PUSH1 0x3 PUSH2 0x162B SWAP3 DUP8 PUSH0 MSTORE PUSH1 0x32 PUSH1 0x20 MSTORE DIV PUSH1 0x40 PUSH0 KECCAK256 PUSH2 0x1114 JUMP JUMPDEST SWAP1 SLOAD SWAP1 PUSH1 0x3 SHL SHR SWAP2 PUSH2 0x15F1 PUSH1 0x40 MLOAD PUSH2 0x159A DUP2 PUSH2 0x1250 JUMP JUMPDEST DUP3 DUP2 MSTORE PUSH1 0x20 DUP1 DUP3 ADD DUP8 DUP2 MSTORE PUSH1 0x40 DUP1 DUP5 ADD DUP12 DUP2 MSTORE PUSH1 0x60 DUP6 ADD DUP10 DUP2 MSTORE PUSH0 PUSH1 0x80 DUP8 ADD DUP2 DUP2 MSTORE DUP15 DUP3 MSTORE PUSH1 0x2F DUP8 MSTORE DUP5 DUP3 KECCAK256 DUP11 DUP4 MSTORE SWAP1 SWAP7 MSTORE SWAP3 SWAP1 SWAP3 KECCAK256 SWAP5 MLOAD DUP6 SSTORE SWAP2 MLOAD PUSH1 0x1 DUP6 ADD SSTORE SWAP1 MLOAD PUSH1 0x2 DUP5 ADD SSTORE MLOAD PUSH1 0x3 DUP4 ADD SSTORE MLOAD PUSH1 0x4 SWAP1 SWAP2 ADD SSTORE JUMP JUMPDEST DUP6 PUSH0 MSTORE PUSH1 0x31 PUSH1 0x20 MSTORE PUSH1 0x40 PUSH0 KECCAK256 DUP5 PUSH0 MSTORE PUSH1 0x20 MSTORE PUSH2 0x1610 DUP2 PUSH1 0x40 PUSH0 KECCAK256 PUSH2 0x14CD JUMP JUMPDEST DUP6 PUSH0 MSTORE PUSH1 0x30 PUSH1 0x20 MSTORE PUSH1 0x40 PUSH0 KECCAK256 DUP4 PUSH0 MSTORE PUSH1 0x20 MSTORE PUSH1 0x40 PUSH0 KECCAK256 PUSH2 0x14CD JUMP JUMPDEST SWAP1 PUSH1 0x3 DUP4 DIV SWAP6 PUSH0 SWAP5 PUSH0 SWAP4 JUMPDEST PUSH1 0x3 DUP6 LT PUSH2 0x1662 JUMPI JUMPDEST POP POP POP POP POP PUSH2 0x164F SWAP3 SWAP4 POP PUSH2 0x144B JUMP JUMPDEST DUP1 PUSH2 0x1657 JUMPI POP JUMP JUMPDEST PUSH2 0x1660 SWAP1 PUSH2 0x1DAB JUMP JUMPDEST JUMP JUMPDEST DUP1 ISZERO DUP1 ISZERO PUSH2 0x1908 JUMPI JUMPDEST PUSH2 0x18D4 JUMPI DUP2 DUP4 MSTORE PUSH1 0x2F PUSH1 0x20 MSTORE PUSH1 0x40 DUP4 KECCAK256 SWAP1 DUP4 MSTORE PUSH1 0x20 MSTORE PUSH1 0x40 DUP3 KECCAK256 SWAP6 DUP9 PUSH1 0x1 DUP9 ADD SLOAD PUSH1 0x4 DUP10 ADD DUP1 SLOAD SWAP1 PUSH1 0x27 DUP3 LT PUSH2 0x16B8 JUMPI JUMPDEST POP POP POP PUSH2 0x16AD PUSH1 0x3 SWAP2 PUSH1 0x1 SWAP4 PUSH2 0x12A6 JUMP JUMPDEST SWAP8 ADD SLOAD SWAP5 ADD SWAP4 PUSH2 0x1636 JUMP JUMPDEST SWAP1 SWAP2 SWAP3 POP PUSH1 0x1 DUP3 ADD DUP1 SWAP3 GT PUSH2 0x1863 JUMPI DUP2 SWAP1 SSTORE DUP11 SWAP1 PUSH1 0x18 DUP2 GT PUSH2 0x1877 JUMPI POP POP DUP1 DUP5 MSTORE PUSH1 0x10 PUSH1 0x20 MSTORE PUSH1 0x7 PUSH1 0x40 DUP6 KECCAK256 ADD PUSH2 0x16F0 DUP12 DUP3 SLOAD PUSH2 0x12A6 JUMP JUMPDEST SWAP1 SSTORE PUSH1 0x5F DUP11 MUL DUP11 ISZERO SWAP1 DUP12 DUP2 DIV PUSH1 0x5F EQ DUP3 OR ISZERO PUSH2 0x1863 JUMPI DUP3 DUP7 MSTORE PUSH1 0xF PUSH1 0x20 MSTORE PUSH1 0x40 DUP7 KECCAK256 SLOAD PUSH1 0x1 PUSH1 0x1 PUSH1 0xA0 SHL SUB AND SWAP3 PUSH1 0x64 SWAP1 SWAP2 DIV SWAP1 DUP4 ISZERO PUSH2 0x182F JUMPI DUP2 ISZERO PUSH2 0x17FC JUMPI DUP1 DUP8 MSTORE PUSH1 0x10 PUSH1 0x20 MSTORE PUSH1 0x40 DUP8 KECCAK256 SWAP7 DUP1 PUSH2 0x17E8 JUMPI POP PUSH2 0x174D DUP3 DUP9 SLOAD PUSH2 0x12A6 JUMP JUMPDEST DUP8 SSTORE PUSH1 0x7 PUSH0 SWAP8 ADD PUSH2 0x175F DUP4 DUP3 SLOAD PUSH2 0x12A6 JUMP JUMPDEST SWAP1 SSTORE PUSH1 0x1 SLOAD PUSH2 0x177A SWAP1 DUP4 SWAP1 DUP7 SWAP1 PUSH1 0x1 PUSH1 0x1 PUSH1 0xA0 SHL SUB AND PUSH2 0x2092 JUMP JUMPDEST PUSH1 0x40 MLOAD SWAP2 DUP3 MSTORE PUSH1 0x1 PUSH1 0x20 DUP4 ADD MSTORE PUSH1 0x5 SWAP4 PUSH32 0x4D634C31300B97DAD99B3AF799178230163D88AD306370D063BE9CD992D0BE7F PUSH1 0x80 DUP5 DUP8 PUSH1 0x40 DUP14 SWAP8 ADD MSTORE TIMESTAMP PUSH1 0x60 DUP3 ADD MSTORE LOG4 DUP2 DUP12 MUL SWAP2 DUP12 DUP4 DIV EQ OR ISZERO PUSH2 0x5AD JUMPI PUSH2 0x16AD DUP11 PUSH1 0x1 SWAP4 PUSH2 0x17DF PUSH1 0x64 PUSH1 0x3 SWAP6 DIV PUSH2 0x1DAB JUMP JUMPDEST SWAP4 DUP2 SWAP4 POP PUSH2 0x169C JUMP JUMPDEST PUSH4 0x4E487B71 PUSH1 0xE0 SHL DUP2 MSTORE PUSH1 0x21 PUSH1 0x4 MSTORE PUSH1 0x24 SWAP1 REVERT JUMPDEST PUSH1 0x40 MLOAD PUSH3 0x461BCD PUSH1 0xE5 SHL DUP2 MSTORE PUSH1 0x20 PUSH1 0x4 DUP3 ADD MSTORE PUSH1 0xB PUSH1 0x24 DUP3 ADD MSTORE PUSH11 0x16995C9BC8185B5BDD5B9D PUSH1 0xAA SHL PUSH1 0x44 DUP3 ADD MSTORE PUSH1 0x64 SWAP1 REVERT JUMPDEST PUSH1 0x40 MLOAD PUSH3 0x461BCD PUSH1 0xE5 SHL DUP2 MSTORE PUSH1 0x20 PUSH1 0x4 DUP3 ADD MSTORE PUSH1 0xC PUSH1 0x24 DUP3 ADD MSTORE PUSH12 0x24B73B30B634B2103AB9B2B9 PUSH1 0xA1 SHL PUSH1 0x44 DUP3 ADD MSTORE PUSH1 0x64 SWAP1 REVERT JUMPDEST PUSH4 0x4E487B71 PUSH1 0xE0 SHL DUP7 MSTORE PUSH1 0x11 PUSH1 0x4 MSTORE PUSH1 0x24 DUP7 REVERT JUMPDEST PUSH1 0x1 SWAP4 PUSH1 0x3 SWAP4 PUSH2 0x16AD SWAP4 SWAP3 PUSH1 0x24 LT PUSH2 0x18B1 JUMPI DUP7 DUP9 MSTORE PUSH1 0x2E PUSH1 0x20 MSTORE PUSH1 0x40 DUP9 KECCAK256 SWAP1 DUP9 MSTORE PUSH1 0x20 MSTORE PUSH1 0x40 DUP8 KECCAK256 PUSH2 0x18AA DUP4 DUP3 SLOAD PUSH2 0x12A6 JUMP JUMPDEST SWAP1 SSTORE PUSH2 0x17DF JUMP JUMPDEST DUP7 DUP9 MSTORE PUSH1 0x2E PUSH1 0x20 MSTORE PUSH1 0x40 DUP9 KECCAK256 SWAP1 DUP9 MSTORE PUSH1 0x20 MSTORE DUP5 PUSH1 0x40 DUP9 KECCAK256 ADD PUSH2 0x18AA DUP4 DUP3 SLOAD PUSH2 0x12A6 JUMP JUMPDEST POP POP POP POP POP PUSH2 0x164F SWAP3 SWAP4 POP PUSH2 0x18E9 DUP3 DUP3 PUSH2 0x144B JUMP JUMPDEST DUP1 PUSH2 0x18F9 JUMPI JUMPDEST DUP5 SWAP4 DUP2 DUP1 DUP1 PUSH2 0x163F JUMP JUMPDEST PUSH2 0x1902 SWAP1 PUSH2 0x1DAB JUMP JUMPDEST PUSH0 PUSH2 0x18EF JUMP JUMPDEST POP PUSH1 0x5 SLOAD DUP2 EQ PUSH2 0x166B JUMP JUMPDEST SWAP1 PUSH2 0x1921 PUSH1 0x16 SLOAD DUP4 LT PUSH2 0x1458 JUMP JUMPDEST PUSH2 0x192D PUSH2 0x1520 DUP4 PUSH2 0x10E4 JUMP JUMPDEST PUSH0 DUP3 DUP2 MSTORE PUSH1 0x36 PUSH1 0x20 MSTORE PUSH1 0x40 SWAP1 KECCAK256 DUP1 SLOAD SWAP1 PUSH2 0x1948 SWAP1 DUP4 SWAP1 PUSH2 0x14CD JUMP JUMPDEST PUSH0 NOT DUP2 ADD SWAP1 DUP2 GT PUSH2 0x5AD JUMPI PUSH1 0x3 PUSH2 0x196B SWAP2 DUP5 PUSH0 MSTORE PUSH1 0x36 PUSH1 0x20 MSTORE DIV PUSH1 0x40 PUSH0 KECCAK256 PUSH2 0x1114 JUMP JUMPDEST SWAP1 SLOAD SWAP1 PUSH1 0x3 SHL SHR SWAP2 PUSH2 0x19D9 PUSH1 0x40 MLOAD PUSH2 0x1982 DUP2 PUSH2 0x1250 JUMP JUMPDEST DUP4 DUP2 MSTORE PUSH1 0x20 DUP1 DUP3 ADD DUP5 DUP2 MSTORE PUSH1 0x40 DUP1 DUP5 ADD DUP9 DUP2 MSTORE PUSH0 PUSH1 0x60 DUP7 ADD DUP2 DUP2 MSTORE TIMESTAMP PUSH1 0x80 DUP9 ADD SWAP1 DUP2 MSTORE DUP10 DUP4 MSTORE PUSH1 0x34 DUP8 MSTORE DUP5 DUP4 KECCAK256 DUP12 DUP5 MSTORE SWAP1 SWAP7 MSTORE SWAP3 SWAP1 KECCAK256 SWAP5 MLOAD DUP6 SSTORE SWAP2 MLOAD PUSH1 0x1 DUP6 ADD SSTORE SWAP1 MLOAD PUSH1 0x2 DUP5 ADD SSTORE MLOAD PUSH1 0x3 DUP4 ADD SSTORE MLOAD PUSH1 0x4 SWAP1 SWAP2 ADD SSTORE JUMP JUMPDEST DUP1 PUSH0 MSTORE PUSH1 0x35 PUSH1 0x20 MSTORE PUSH1 0x40 PUSH0 KECCAK256 DUP4 PUSH0 MSTORE PUSH1 0x20 MSTORE PUSH2 0x19F8 DUP3 PUSH1 0x40 PUSH0 KECCAK256 PUSH2 0x14CD JUMP JUMPDEST PUSH1 0x1 DUP2 EQ PUSH2 0x1B4D JUMPI JUMPDEST DUP3 ISZERO DUP1 ISZERO PUSH2 0x1B42 JUMPI JUMPDEST PUSH2 0x1B36 JUMPI PUSH0 MSTORE PUSH1 0x34 PUSH1 0x20 MSTORE PUSH1 0x40 PUSH0 KECCAK256 DUP3 PUSH0 MSTORE PUSH1 0x20 MSTORE PUSH1 0x3 PUSH1 0x40 PUSH0 KECCAK256 ADD PUSH1 0x3 DUP2 SLOAD LT PUSH0 EQ PUSH2 0x1B36 JUMPI DUP1 SLOAD SWAP1 PUSH1 0x1 DUP3 ADD DUP1 SWAP3 GT PUSH2 0x5AD JUMPI SSTORE DUP2 PUSH0 MSTORE PUSH1 0x10 PUSH1 0x20 MSTORE PUSH1 0x8 PUSH1 0x40 PUSH0 KECCAK256 ADD PUSH2 0x1A5A DUP5 DUP3 SLOAD PUSH2 0x12A6 JUMP JUMPDEST SWAP1 SSTORE PUSH1 0x5F DUP4 MUL SWAP2 DUP4 ISZERO SWAP3 DUP5 DUP2 DIV PUSH1 0x5F EQ DUP5 OR ISZERO PUSH2 0x5AD JUMPI PUSH0 DUP3 DUP2 MSTORE PUSH1 0xF PUSH1 0x20 MSTORE PUSH1 0x40 SWAP1 KECCAK256 SLOAD PUSH1 0x1 PUSH1 0x1 PUSH1 0xA0 SHL SUB AND SWAP1 PUSH1 0x64 SWAP1 DIV DUP2 ISZERO PUSH2 0x182F JUMPI DUP1 ISZERO PUSH2 0x17FC JUMPI DUP3 PUSH0 MSTORE PUSH1 0x10 PUSH1 0x20 MSTORE PUSH1 0x8 PUSH1 0x40 PUSH0 KECCAK256 PUSH2 0x1AB2 DUP4 DUP3 SLOAD PUSH2 0x12A6 JUMP JUMPDEST DUP2 SSTORE ADD PUSH2 0x1AC0 DUP3 DUP3 SLOAD PUSH2 0x12A6 JUMP JUMPDEST SWAP1 SSTORE PUSH1 0x1 SLOAD PUSH2 0x1ADB SWAP1 DUP3 SWAP1 DUP5 SWAP1 PUSH1 0x1 PUSH1 0x1 PUSH1 0xA0 SHL SUB AND PUSH2 0x2092 JUMP JUMPDEST PUSH1 0x40 MLOAD SWAP1 DUP2 MSTORE PUSH1 0x1 PUSH1 0x20 DUP3 ADD MSTORE PUSH1 0x80 DUP2 PUSH1 0x6 PUSH1 0x40 PUSH32 0x4D634C31300B97DAD99B3AF799178230163D88AD306370D063BE9CD992D0BE7F SWAP5 ADD MSTORE TIMESTAMP PUSH1 0x60 DUP3 ADD MSTORE LOG4 PUSH1 0x5 DUP3 MUL SWAP2 DUP3 DIV PUSH1 0x5 EQ OR ISZERO PUSH2 0x5AD JUMPI PUSH1 0x64 PUSH2 0x1660 SWAP2 DIV PUSH2 0x1DAB JUMP JUMPDEST POP POP POP PUSH2 0x1660 SWAP1 PUSH2 0x1DAB JUMP JUMPDEST POP PUSH1 0x5 SLOAD DUP4 EQ PUSH2 0x1A0A JUMP JUMPDEST DUP2 PUSH0 MSTORE PUSH1 0xF PUSH1 0x20 MSTORE PUSH1 0x40 PUSH0 KECCAK256 PUSH1 0x40 MLOAD SWAP1 PUSH2 0x2C0 DUP3 ADD DUP3 DUP2 LT PUSH8 0xFFFFFFFFFFFFFFFF DUP3 GT OR PUSH2 0xB0F JUMPI PUSH1 0x40 MSTORE DUP1 SLOAD PUSH1 0x1 PUSH1 0x1 PUSH1 0xA0 SHL SUB AND DUP3 MSTORE PUSH1 0x1 DUP2 ADD DUP1 SLOAD PUSH8 0xFFFFFFFFFFFFFFFF DUP2 GT PUSH2 0xB0F JUMPI PUSH1 0x40 MLOAD SWAP2 PUSH2 0x1BAE PUSH1 0x20 DUP4 PUSH1 0x5 SHL ADD DUP5 PUSH2 0x126C JUMP JUMPDEST DUP2 DUP4 MSTORE PUSH1 0x20 DUP4 ADD SWAP1 PUSH0 MSTORE PUSH1 0x20 PUSH0 KECCAK256 PUSH0 SWAP2 JUMPDEST DUP4 DUP4 LT PUSH2 0x1D34 JUMPI POP POP POP POP PUSH1 0x20 DUP4 ADD MSTORE PUSH1 0x2 DUP2 ADD SLOAD PUSH1 0x40 DUP4 ADD MSTORE PUSH1 0x3 DUP2 ADD SLOAD PUSH1 0x60 DUP4 ADD MSTORE PUSH1 0x4 DUP2 ADD SLOAD SWAP2 PUSH1 0x80 DUP2 ADD SWAP3 DUP4 MSTORE PUSH1 0x5 DUP3 ADD SLOAD PUSH1 0xA0 DUP3 ADD MSTORE PUSH1 0x6 DUP3 ADD SLOAD PUSH1 0xC0 DUP3 ADD MSTORE PUSH1 0x7 DUP3 ADD SLOAD PUSH1 0xE0 DUP3 ADD MSTORE PUSH1 0x8 DUP3 ADD SLOAD PUSH2 0x100 DUP3 ADD MSTORE PUSH1 0x9 DUP3 ADD SLOAD PUSH2 0x120 DUP3 ADD MSTORE PUSH1 0xA DUP3 ADD SLOAD PUSH2 0x140 DUP3 ADD MSTORE PUSH1 0xB DUP3 ADD SLOAD PUSH2 0x160 DUP3 ADD MSTORE PUSH1 0xC DUP3 ADD SLOAD PUSH2 0x180 DUP3 ADD MSTORE PUSH1 0xD DUP3 ADD SLOAD PUSH2 0x1A0 DUP3 ADD MSTORE PUSH1 0xE DUP3 ADD SLOAD PUSH2 0x1C0 DUP3 ADD MSTORE PUSH1 0xF DUP3 ADD SLOAD PUSH2 0x1E0 DUP3 ADD MSTORE PUSH1 0x10 DUP3 ADD SLOAD PUSH2 0x200 DUP3 ADD MSTORE PUSH2 0x2A0 PUSH1 0x15 PUSH1 0x11 DUP5 ADD SLOAD SWAP4 PUSH2 0x220 DUP5 ADD SWAP5 DUP6 MSTORE PUSH1 0x12 DUP2 ADD SLOAD PUSH2 0x240 DUP6 ADD MSTORE PUSH1 0x13 DUP2 ADD SLOAD PUSH2 0x260 DUP6 ADD MSTORE PUSH1 0x14 DUP2 ADD SLOAD PUSH2 0x280 DUP6 ADD MSTORE ADD SLOAD SWAP2 ADD MSTORE PUSH1 0x38 SLOAD PUSH0 MSTORE PUSH1 0x3E PUSH1 0x20 MSTORE PUSH1 0x40 PUSH0 KECCAK256 DUP3 MLOAD PUSH0 MSTORE PUSH1 0x20 MSTORE PUSH2 0x1CCC DUP5 PUSH1 0x40 PUSH0 KECCAK256 PUSH2 0x14CD JUMP JUMPDEST PUSH1 0x38 SLOAD SWAP1 DUP2 PUSH0 MSTORE PUSH1 0x3E PUSH1 0x20 MSTORE PUSH1 0x40 PUSH0 KECCAK256 DUP4 MLOAD PUSH0 MSTORE PUSH1 0x20 MSTORE PUSH1 0x40 PUSH0 KECCAK256 SLOAD SWAP1 MLOAD SWAP2 PUSH3 0x15180 DUP4 ADD DUP1 SWAP4 GT PUSH2 0x5AD JUMPI PUSH1 0x5 SWAP3 TIMESTAMP GT ISZERO PUSH2 0x1D24 JUMPI JUMPDEST POP LT ISZERO PUSH2 0x1D11 JUMPI JUMPDEST POP PUSH2 0x1A01 JUMP JUMPDEST MLOAD PUSH1 0x38 SLOAD PUSH2 0x1D1E SWAP2 PUSH2 0x1D78 JUMP JUMPDEST PUSH0 PUSH2 0x1D0B JUMP JUMPDEST PUSH2 0x1D2E SWAP1 DUP7 PUSH2 0x1D78 JUMP JUMPDEST PUSH0 PUSH2 0x1D03 JUMP JUMPDEST PUSH1 0x4 PUSH1 0x20 PUSH1 0x1 SWAP3 PUSH1 0x40 MLOAD PUSH2 0x1D47 DUP2 PUSH2 0x1234 JUMP JUMPDEST DUP6 SLOAD DUP2 MSTORE DUP5 DUP7 ADD SLOAD DUP4 DUP3 ADD MSTORE PUSH1 0x2 DUP7 ADD SLOAD PUSH1 0x40 DUP3 ADD MSTORE PUSH1 0xFF PUSH1 0x3 DUP8 ADD SLOAD AND PUSH1 0x60 DUP3 ADD MSTORE DUP2 MSTORE ADD SWAP3 ADD SWAP3 ADD SWAP2 SWAP1 PUSH2 0x1BBF JUMP JUMPDEST SWAP1 DUP1 PUSH0 MSTORE PUSH1 0x3D PUSH1 0x20 MSTORE PUSH1 0x40 PUSH0 KECCAK256 DUP3 PUSH0 MSTORE PUSH1 0x20 MSTORE PUSH1 0xFF PUSH1 0x3 PUSH1 0x40 PUSH0 KECCAK256 ADD SLOAD PUSH1 0x8 SHR AND ISZERO PUSH2 0x1DA2 JUMPI POP POP JUMP JUMPDEST PUSH2 0x1660 SWAP2 PUSH2 0x1E7A JUMP JUMPDEST PUSH1 0x2 SLOAD PUSH1 0x1 PUSH1 0x1 PUSH1 0xA0 SHL SUB AND SWAP1 DUP2 ISZERO PUSH2 0x1E41 JUMPI PUSH1 0x1 SLOAD PUSH1 0x80 SWAP3 PUSH2 0x1DD9 SWAP2 DUP4 SWAP2 SWAP1 PUSH1 0x1 PUSH1 0x1 PUSH1 0xA0 SHL SUB AND PUSH2 0x2092 JUMP JUMPDEST PUSH1 0x5 SLOAD PUSH0 MSTORE PUSH1 0x10 PUSH1 0x20 MSTORE PUSH1 0x40 PUSH0 KECCAK256 PUSH2 0x1DF2 DUP3 DUP3 SLOAD PUSH2 0x12A6 JUMP JUMPDEST SWAP1 SSTORE PUSH1 0x1 DUP1 PUSH1 0xA0 SHL SUB PUSH1 0x2 SLOAD AND PUSH32 0x4D634C31300B97DAD99B3AF799178230163D88AD306370D063BE9CD992D0BE7F PUSH1 0x5 SLOAD SWAP4 DUP5 SWAP4 PUSH1 0x40 MLOAD SWAP1 DUP2 MSTORE PUSH0 PUSH1 0x20 DUP3 ADD MSTORE PUSH0 PUSH1 0x40 DUP3 ADD MSTORE TIMESTAMP PUSH1 0x60 DUP3 ADD MSTORE LOG4 JUMP JUMPDEST PUSH1 0x40 MLOAD PUSH3 0x461BCD PUSH1 0xE5 SHL DUP2 MSTORE PUSH1 0x20 PUSH1 0x4 DUP3 ADD MSTORE PUSH1 0x11 PUSH1 0x24 DUP3 ADD MSTORE PUSH17 0x199959481859191C9CC81B9BDD081CD95D PUSH1 0x7A SHL PUSH1 0x44 DUP3 ADD MSTORE PUSH1 0x64 SWAP1 REVERT JUMPDEST PUSH1 0x38 SLOAD DUP3 SUB PUSH2 0x205D JUMPI DUP2 PUSH0 MSTORE PUSH1 0x3B PUSH1 0x20 MSTORE PUSH1 0xFF PUSH1 0x8 PUSH1 0x40 PUSH0 KECCAK256 ADD SLOAD AND PUSH2 0x2029 JUMPI PUSH0 DUP2 DUP2 MSTORE PUSH32 0x7FB70D3B53B50F6798636307BC089A811F848F8C80C93EB14575305275478318 PUSH1 0x20 MSTORE PUSH1 0x40 SWAP1 DUP2 SWAP1 KECCAK256 SWAP1 MLOAD SWAP1 PUSH1 0x4 SWAP1 PUSH2 0x1ED7 DUP4 PUSH2 0x1250 JUMP JUMPDEST DUP1 SLOAD DUP4 MSTORE PUSH1 0x1 DUP2 ADD SLOAD PUSH1 0x20 DUP5 ADD MSTORE PUSH1 0x2 DUP2 ADD SLOAD PUSH1 0x40 DUP5 ADD MSTORE PUSH1 0x3 DUP2 ADD SLOAD PUSH1 0x60 DUP5 ADD MSTORE ADD SLOAD PUSH1 0x80 DUP3 ADD SWAP1 DUP2 MSTORE DUP4 PUSH0 MSTORE PUSH1 0x3E PUSH1 0x20 MSTORE PUSH1 0x40 PUSH0 KECCAK256 DUP4 PUSH0 MSTORE PUSH1 0x20 MSTORE DUP3 PUSH1 0x5 PUSH1 0x40 PUSH0 KECCAK256 SLOAD LT SWAP3 MLOAD EQ SWAP1 DUP2 PUSH2 0x2000 JUMPI JUMPDEST POP DUP2 ISZERO SWAP2 PUSH2 0x1FF8 JUMPI JUMPDEST POP ISZERO PUSH2 0x1FB3 JUMPI DUP2 PUSH0 MSTORE PUSH1 0x3D PUSH1 0x20 MSTORE PUSH1 0x40 PUSH0 KECCAK256 DUP2 PUSH0 MSTORE PUSH1 0x20 MSTORE PUSH1 0x40 PUSH0 KECCAK256 SWAP2 PUSH1 0x3 DUP4 ADD SWAP2 DUP3 SLOAD SWAP3 PUSH1 0xFF DUP5 PUSH1 0x8 SHR AND PUSH2 0x1FAC JUMPI PUSH2 0x100 PUSH1 0x60 SWAP5 DUP5 PUSH1 0x1 PUSH32 0x360CB96D3E85B4FC299DDFA9A572850FC70961C86F0F1703F033143B0E5A82CF SWAP9 TIMESTAMP DUP2 SSTORE ADD SSTORE PUSH2 0xFF00 NOT AND OR SWAP1 SSTORE PUSH1 0x40 MLOAD SWAP2 DUP3 MSTORE PUSH1 0x20 DUP3 ADD MSTORE TIMESTAMP PUSH1 0x40 DUP3 ADD MSTORE LOG1 JUMP JUMPDEST POP POP POP POP POP JUMP JUMPDEST PUSH1 0x40 MLOAD PUSH3 0x461BCD PUSH1 0xE5 SHL DUP2 MSTORE PUSH1 0x20 PUSH1 0x4 DUP3 ADD MSTORE PUSH1 0x1F PUSH1 0x24 DUP3 ADD MSTORE PUSH32 0x4E6F7420656C696769626C6520666F72207765656B6C7920636F6E7465737400 PUSH1 0x44 DUP3 ADD MSTORE PUSH1 0x64 SWAP1 REVERT JUMPDEST SWAP1 POP PUSH0 PUSH2 0x1F30 JUMP JUMPDEST SWAP1 POP MLOAD DUP3 PUSH0 MSTORE PUSH1 0xF PUSH1 0x20 MSTORE PUSH1 0x11 PUSH1 0x40 PUSH0 KECCAK256 ADD SLOAD SWAP1 PUSH3 0x15180 DUP3 ADD DUP1 SWAP3 GT PUSH2 0x5AD JUMPI GT ISZERO PUSH0 PUSH2 0x1F27 JUMP JUMPDEST PUSH1 0x40 MLOAD PUSH3 0x461BCD PUSH1 0xE5 SHL DUP2 MSTORE PUSH1 0x20 PUSH1 0x4 DUP3 ADD MSTORE PUSH1 0xC PUSH1 0x24 DUP3 ADD MSTORE PUSH12 0x149BDD5B990818DB1BDCD959 PUSH1 0xA2 SHL PUSH1 0x44 DUP3 ADD MSTORE PUSH1 0x64 SWAP1 REVERT JUMPDEST PUSH1 0x40 MLOAD PUSH3 0x461BCD PUSH1 0xE5 SHL DUP2 MSTORE PUSH1 0x20 PUSH1 0x4 DUP3 ADD MSTORE PUSH1 0xD PUSH1 0x24 DUP3 ADD MSTORE PUSH13 0x125B9D985B1A59081C9BDD5B99 PUSH1 0x9A SHL PUSH1 0x44 DUP3 ADD MSTORE PUSH1 0x64 SWAP1 REVERT JUMPDEST PUSH1 0x40 MLOAD PUSH4 0xA9059CBB PUSH1 0xE0 SHL PUSH1 0x20 DUP3 DUP2 ADD SWAP2 DUP3 MSTORE PUSH1 0x1 PUSH1 0x1 PUSH1 0xA0 SHL SUB SWAP1 SWAP5 AND PUSH1 0x24 DUP4 ADD MSTORE PUSH1 0x44 DUP1 DUP4 ADD SWAP6 SWAP1 SWAP6 MSTORE SWAP4 DUP2 MSTORE SWAP1 SWAP3 PUSH0 SWAP2 PUSH2 0x20D0 PUSH1 0x64 DUP3 PUSH2 0x126C JUMP JUMPDEST MLOAD SWAP1 DUP3 DUP6 GAS CALL ISZERO PUSH2 0x5EE JUMPI PUSH0 MLOAD RETURNDATASIZE PUSH2 0x2117 JUMPI POP PUSH1 0x1 PUSH1 0x1 PUSH1 0xA0 SHL SUB DUP2 AND EXTCODESIZE ISZERO JUMPDEST PUSH2 0x20F7 JUMPI POP JUMP JUMPDEST PUSH4 0x5274AFE7 PUSH1 0xE0 SHL PUSH0 SWAP1 DUP2 MSTORE PUSH1 0x1 PUSH1 0x1 PUSH1 0xA0 SHL SUB SWAP2 SWAP1 SWAP2 AND PUSH1 0x4 MSTORE PUSH1 0x24 SWAP1 REVERT JUMPDEST PUSH1 0x1 EQ ISZERO PUSH2 0x20F0 JUMP INVALID 0x26 0xAD 0xB2 0x2C EOFCREATE 0x82 RETURNDATACOPY CALL PREVRANDAO SWAP4 MCOPY SWAP16 0xBE CALL 0xB6 0xB4 LOG3 LOG2 SWAP14 0xAC 0xBE SLOAD PREVRANDAO 0xD5 SWAP3 SWAP3 STATICCALL 0x26 KECCAK256 RETURN 0xD3 PUSH24 0xA2646970667358221220994561B3ECE918BC689EB0CCBA08 PUSH13 0xE0F72C731D6270E8921782D5DA PUSH1 0x5B LOG0 0x4F PUSH5 0x736F6C6343 STOP ADDMOD 0x1E STOP CALLER "
		},
		"gasEstimates": {
			"creation": {
				"codeDepositCost": "1713200",
				"executionCost": "infinite",
				"totalCost": "infinite"
			},
			"external": {
				"ACC_PRECISION()": "395",
				"MONTHLY_ROYALTY_DIRECT()": "1033",
				"MONTHLY_ROYALTY_LEVEL()": "253",
				"MONTHLY_ROYALTY_TIME()": "835",
				"MONTH_DURATION()": "263",
				"PERCENTS_DIVIDER()": "148",
				"ROI_2X_TIME()": "461",
				"ROI_CAP_DIVIDER()": "561",
				"ROI_CAP_MULTIPLIER()": "429",
				"RetopPoolByEarning(uint256,uint256)": "infinite",
				"TIME_STEP()": "373",
				"TOP_ROYALTY_DIRECT()": "351",
				"TOP_ROYALTY_LEVEL()": "297",
				"TOP_ROYALTY_TIME()": "615",
				"WEEK_DURATION()": "637",
				"WeeklyCapping()": "1099",
				"WeeklyTotalReward()": "2432",
				"canBuyNextPool(uint256)": "9529",
				"communityAccPerPackage(uint256)": "2673",
				"communityAccPerUser()": "2784",
				"communityDebt(uint256,uint256)": "2996",
				"creatorWallet()": "2830",
				"currentMonthlyRound()": "3070",
				"currentMonthlyStartTime()": "3158",
				"currentWeeklyRound()": "3092",
				"currentWeeklyStartTime()": "3265",
				"defaultRefId()": "3224",
				"glbBoosterPackages(uint256)": "6678",
				"minLevelForGlbBooster(uint256)": "3152",
				"minLevelForPool(uint256)": "2338",
				"minPoolForGlbBooster(uint256)": "2910",
				"monthlyCapping()": "945",
				"monthlyTotalReward()": "2916",
				"packageQualifiedUsers(uint256)": "2343",
				"packages(uint256)": "7297",
				"poolPackages(uint256)": "7316",
				"registeredUserIds(uint256)": "6813",
				"systemMaintance()": "3204",
				"teamDevelopment()": "3270",
				"topRoyaltyReward()": "2674",
				"topRoyaltyRound()": "2630",
				"topRoyaltyStartTime()": "2894",
				"totalUsers()": "3004",
				"upgradeBooster(uint256)": "infinite",
				"upgradePool(uint256)": "infinite",
				"upgradePoolByEarning(uint32,uint256)": "infinite",
				"usdt()": "2434"
			},
			"internal": {
				"_distributePoolIncome(uint256,uint256,uint256,uint256)": "infinite",
				"_payPoolIncome(uint256,uint256,uint256,uint256,uint256)": "infinite",
				"_placeInBooster(uint256,uint256,uint256)": "infinite",
				"_placeInPool(uint256,uint256,uint256)": "infinite"
			}
		},
		"methodIdentifiers": {
			"ACC_PRECISION()": "32fcd966",
			"MONTHLY_ROYALTY_DIRECT()": "d2f0490d",
			"MONTHLY_ROYALTY_LEVEL()": "23fd338e",
			"MONTHLY_ROYALTY_TIME()": "a5e52b99",
			"MONTH_DURATION()": "2a891534",
			"PERCENTS_DIVIDER()": "01c234a8",
			"ROI_2X_TIME()": "3a5084b3",
			"ROI_CAP_DIVIDER()": "58c7d352",
			"ROI_CAP_MULTIPLIER()": "375b43b4",
			"RetopPoolByEarning(uint256,uint256)": "7848f0a3",
			"TIME_STEP()": "32bc298c",
			"TOP_ROYALTY_DIRECT()": "31bb6a30",
			"TOP_ROYALTY_LEVEL()": "2ae0ee0d",
			"TOP_ROYALTY_TIME()": "705fee2d",
			"WEEK_DURATION()": "76f5f700",
			"WeeklyCapping()": "ebe0ff15",
			"WeeklyTotalReward()": "3080b5bc",
			"canBuyNextPool(uint256)": "67d52d4d",
			"communityAccPerPackage(uint256)": "45cb537c",
			"communityAccPerUser()": "78f6ad6d",
			"communityDebt(uint256,uint256)": "89043ece",
			"creatorWallet()": "7cdc65f2",
			"currentMonthlyRound()": "c9ed0708",
			"currentMonthlyStartTime()": "e898fc38",
			"currentWeeklyRound()": "ca8e9121",
			"currentWeeklyStartTime()": "fddc806f",
			"defaultRefId()": "ec597e6f",
			"glbBoosterPackages(uint256)": "2350268f",
			"minLevelForGlbBooster(uint256)": "d0a2fd79",
			"minLevelForPool(uint256)": "2132d204",
			"minPoolForGlbBooster(uint256)": "956a3228",
			"monthlyCapping()": "c8df2908",
			"monthlyTotalReward()": "a59d17d1",
			"packageQualifiedUsers(uint256)": "0676d0d6",
			"packages(uint256)": "c216212a",
			"poolPackages(uint256)": "ae4708dc",
			"registeredUserIds(uint256)": "39ab3603",
			"systemMaintance()": "e9e34a16",
			"teamDevelopment()": "f5d74d93",
			"topRoyaltyReward()": "5b62d1d5",
			"topRoyaltyRound()": "4b8cbf9b",
			"topRoyaltyStartTime()": "9b40ab97",
			"totalUsers()": "bff1f9e1",
			"upgradeBooster(uint256)": "bc1fa7c0",
			"upgradePool(uint256)": "4060160a",
			"upgradePoolByEarning(uint32,uint256)": "8e222e24",
			"usdt()": "2f48ab7d"
		}
	},
	"abi": [
		{
			"inputs": [],
			"stateMutability": "nonpayable",
			"type": "constructor"
		},
		{
			"inputs": [
				{
					"internalType": "address",
					"name": "token",
					"type": "address"
				}
			],
			"name": "SafeERC20FailedOperation",
			"type": "error"
		},
		{
			"anonymous": false,
			"inputs": [
				{
					"indexed": false,
					"internalType": "uint256",
					"name": "amount",
					"type": "uint256"
				},
				{
					"indexed": false,
					"internalType": "uint256",
					"name": "usersCount",
					"type": "uint256"
				},
				{
					"indexed": false,
					"internalType": "uint256",
					"name": "perUser",
					"type": "uint256"
				}
			],
			"name": "CommunityBonusDistributed",
			"type": "event"
		},
		{
			"anonymous": false,
			"inputs": [
				{
					"indexed": true,
					"internalType": "address",
					"name": "to",
					"type": "address"
				},
				{
					"indexed": true,
					"internalType": "address",
					"name": "from",
					"type": "address"
				},
				{
					"indexed": false,
					"internalType": "uint256",
					"name": "amount",
					"type": "uint256"
				},
				{
					"indexed": false,
					"internalType": "uint256",
					"name": "packageLevel",
					"type": "uint256"
				},
				{
					"indexed": false,
					"internalType": "uint256",
					"name": "incomeType",
					"type": "uint256"
				}
			],
			"name": "IncomeDistributed",
			"type": "event"
		},
		{
			"anonymous": false,
			"inputs": [
				{
					"indexed": true,
					"internalType": "address",
					"name": "to",
					"type": "address"
				},
				{
					"indexed": true,
					"internalType": "uint256",
					"name": "toId",
					"type": "uint256"
				},
				{
					"indexed": true,
					"internalType": "uint256",
					"name": "fromId",
					"type": "uint256"
				},
				{
					"indexed": false,
					"internalType": "uint256",
					"name": "amount",
					"type": "uint256"
				},
				{
					"indexed": false,
					"internalType": "uint256",
					"name": "packageLevel",
					"type": "uint256"
				},
				{
					"indexed": false,
					"internalType": "enum Storage.IncomeType",
					"name": "incomeType",
					"type": "uint8"
				},
				{
					"indexed": false,
					"internalType": "uint256",
					"name": "timestamp",
					"type": "uint256"
				}
			],
			"name": "IncomeDistribution",
			"type": "event"
		},
		{
			"anonymous": false,
			"inputs": [
				{
					"indexed": true,
					"internalType": "address",
					"name": "winner",
					"type": "address"
				},
				{
					"indexed": true,
					"internalType": "uint256",
					"name": "fromUserId",
					"type": "uint256"
				},
				{
					"indexed": false,
					"internalType": "uint256",
					"name": "amount",
					"type": "uint256"
				},
				{
					"indexed": false,
					"internalType": "uint256",
					"name": "timestamp",
					"type": "uint256"
				}
			],
			"name": "LotteryReward",
			"type": "event"
		},
		{
			"anonymous": false,
			"inputs": [
				{
					"indexed": false,
					"internalType": "uint256",
					"name": "roundId",
					"type": "uint256"
				},
				{
					"indexed": false,
					"internalType": "uint256",
					"name": "totalUsers",
					"type": "uint256"
				},
				{
					"indexed": false,
					"internalType": "uint256",
					"name": "perUserReward",
					"type": "uint256"
				},
				{
					"indexed": false,
					"internalType": "uint256",
					"name": "totalReward",
					"type": "uint256"
				},
				{
					"indexed": false,
					"internalType": "uint256",
					"name": "totalDistributed",
					"type": "uint256"
				},
				{
					"indexed": false,
					"internalType": "uint256",
					"name": "leftoverReward",
					"type": "uint256"
				},
				{
					"indexed": false,
					"internalType": "uint256",
					"name": "endTime",
					"type": "uint256"
				}
			],
			"name": "MonthlyClosed",
			"type": "event"
		},
		{
			"anonymous": false,
			"inputs": [
				{
					"indexed": false,
					"internalType": "uint256",
					"name": "roundId",
					"type": "uint256"
				},
				{
					"indexed": false,
					"internalType": "uint256",
					"name": "userId",
					"type": "uint256"
				},
				{
					"indexed": false,
					"internalType": "uint256",
					"name": "perUserReward",
					"type": "uint256"
				},
				{
					"indexed": false,
					"internalType": "uint256",
					"name": "claimTime",
					"type": "uint256"
				}
			],
			"name": "MonthlyRewardClaim",
			"type": "event"
		},
		{
			"anonymous": false,
			"inputs": [
				{
					"indexed": false,
					"internalType": "uint256",
					"name": "roundId",
					"type": "uint256"
				},
				{
					"indexed": false,
					"internalType": "uint256",
					"name": "userId",
					"type": "uint256"
				},
				{
					"indexed": false,
					"internalType": "uint256",
					"name": "joinTime",
					"type": "uint256"
				}
			],
			"name": "MonthlyRoyaltyQualified",
			"type": "event"
		},
		{
			"anonymous": false,
			"inputs": [
				{
					"indexed": true,
					"internalType": "address",
					"name": "user",
					"type": "address"
				},
				{
					"indexed": true,
					"internalType": "address",
					"name": "sponsor",
					"type": "address"
				},
				{
					"indexed": true,
					"internalType": "uint256",
					"name": "userId",
					"type": "uint256"
				},
				{
					"indexed": false,
					"internalType": "uint256",
					"name": "uplineId",
					"type": "uint256"
				}
			],
			"name": "Registration",
			"type": "event"
		},
		{
			"anonymous": false,
			"inputs": [
				{
					"indexed": true,
					"internalType": "address",
					"name": "to",
					"type": "address"
				},
				{
					"indexed": false,
					"internalType": "uint256",
					"name": "amount",
					"type": "uint256"
				},
				{
					"indexed": false,
					"internalType": "string",
					"name": "level",
					"type": "string"
				}
			],
			"name": "RewardSent",
			"type": "event"
		},
		{
			"anonymous": false,
			"inputs": [
				{
					"indexed": false,
					"internalType": "uint256",
					"name": "roundId",
					"type": "uint256"
				},
				{
					"indexed": false,
					"internalType": "uint256",
					"name": "totalUsers",
					"type": "uint256"
				},
				{
					"indexed": false,
					"internalType": "uint256",
					"name": "perUserReward",
					"type": "uint256"
				},
				{
					"indexed": false,
					"internalType": "uint256",
					"name": "totalReward",
					"type": "uint256"
				},
				{
					"indexed": false,
					"internalType": "uint256",
					"name": "totalDistributed",
					"type": "uint256"
				},
				{
					"indexed": false,
					"internalType": "uint256",
					"name": "leftoverReward",
					"type": "uint256"
				},
				{
					"indexed": false,
					"internalType": "uint256",
					"name": "endTime",
					"type": "uint256"
				}
			],
			"name": "TopRoyaltyClosed",
			"type": "event"
		},
		{
			"anonymous": false,
			"inputs": [
				{
					"indexed": false,
					"internalType": "uint256",
					"name": "roundId",
					"type": "uint256"
				},
				{
					"indexed": false,
					"internalType": "uint256",
					"name": "userId",
					"type": "uint256"
				},
				{
					"indexed": false,
					"internalType": "uint256",
					"name": "joinTime",
					"type": "uint256"
				}
			],
			"name": "TopRoyaltyQualified",
			"type": "event"
		},
		{
			"anonymous": false,
			"inputs": [
				{
					"indexed": false,
					"internalType": "uint256",
					"name": "roundId",
					"type": "uint256"
				},
				{
					"indexed": false,
					"internalType": "uint256",
					"name": "userId",
					"type": "uint256"
				},
				{
					"indexed": false,
					"internalType": "uint256",
					"name": "perUserReward",
					"type": "uint256"
				},
				{
					"indexed": false,
					"internalType": "uint256",
					"name": "claimTime",
					"type": "uint256"
				}
			],
			"name": "TopRoyaltyRewardClaim",
			"type": "event"
		},
		{
			"anonymous": false,
			"inputs": [
				{
					"indexed": true,
					"internalType": "address",
					"name": "user",
					"type": "address"
				},
				{
					"indexed": true,
					"internalType": "uint256",
					"name": "userId",
					"type": "uint256"
				},
				{
					"indexed": false,
					"internalType": "uint256",
					"name": "packageLevel",
					"type": "uint256"
				},
				{
					"indexed": false,
					"internalType": "uint256",
					"name": "packagePrice",
					"type": "uint256"
				},
				{
					"indexed": false,
					"internalType": "string",
					"name": "depositType",
					"type": "string"
				},
				{
					"indexed": false,
					"internalType": "uint256",
					"name": "upgradeTime",
					"type": "uint256"
				}
			],
			"name": "Upgrade",
			"type": "event"
		},
		{
			"anonymous": false,
			"inputs": [
				{
					"indexed": true,
					"internalType": "uint8",
					"name": "matrixId",
					"type": "uint8"
				},
				{
					"indexed": true,
					"internalType": "uint32",
					"name": "userId",
					"type": "uint32"
				},
				{
					"indexed": true,
					"internalType": "address",
					"name": "user",
					"type": "address"
				},
				{
					"indexed": false,
					"internalType": "uint32",
					"name": "parentId",
					"type": "uint32"
				},
				{
					"indexed": false,
					"internalType": "address",
					"name": "parentAddr",
					"type": "address"
				},
				{
					"indexed": false,
					"internalType": "uint8",
					"name": "position",
					"type": "uint8"
				}
			],
			"name": "UserJoined",
			"type": "event"
		},
		{
			"anonymous": false,
			"inputs": [
				{
					"indexed": false,
					"internalType": "uint256",
					"name": "roundId",
					"type": "uint256"
				},
				{
					"indexed": false,
					"internalType": "uint256",
					"name": "totalUsers",
					"type": "uint256"
				},
				{
					"indexed": false,
					"internalType": "uint256",
					"name": "perUserReward",
					"type": "uint256"
				},
				{
					"indexed": false,
					"internalType": "uint256",
					"name": "totalReward",
					"type": "uint256"
				},
				{
					"indexed": false,
					"internalType": "uint256",
					"name": "totalDistributed",
					"type": "uint256"
				},
				{
					"indexed": false,
					"internalType": "uint256",
					"name": "leftoverReward",
					"type": "uint256"
				},
				{
					"indexed": false,
					"internalType": "uint256",
					"name": "endTime",
					"type": "uint256"
				}
			],
			"name": "WeeklyClosed",
			"type": "event"
		},
		{
			"anonymous": false,
			"inputs": [
				{
					"indexed": false,
					"internalType": "uint256",
					"name": "roundId",
					"type": "uint256"
				},
				{
					"indexed": false,
					"internalType": "uint256",
					"name": "userId",
					"type": "uint256"
				},
				{
					"indexed": false,
					"internalType": "uint256",
					"name": "joinTime",
					"type": "uint256"
				}
			],
			"name": "WeeklyContestQualified",
			"type": "event"
		},
		{
			"anonymous": false,
			"inputs": [
				{
					"indexed": false,
					"internalType": "uint256",
					"name": "roundId",
					"type": "uint256"
				},
				{
					"indexed": false,
					"internalType": "uint256",
					"name": "userId",
					"type": "uint256"
				},
				{
					"indexed": false,
					"internalType": "uint256",
					"name": "perUserReward",
					"type": "uint256"
				},
				{
					"indexed": false,
					"internalType": "uint256",
					"name": "claimTime",
					"type": "uint256"
				}
			],
			"name": "WeeklyRewardClaim",
			"type": "event"
		},
		{
			"inputs": [],
			"name": "ACC_PRECISION",
			"outputs": [
				{
					"internalType": "uint256",
					"name": "",
					"type": "uint256"
				}
			],
			"stateMutability": "view",
			"type": "function"
		},
		{
			"inputs": [],
			"name": "MONTHLY_ROYALTY_DIRECT",
			"outputs": [
				{
					"internalType": "uint256",
					"name": "",
					"type": "uint256"
				}
			],
			"stateMutability": "view",
			"type": "function"
		},
		{
			"inputs": [],
			"name": "MONTHLY_ROYALTY_LEVEL",
			"outputs": [
				{
					"internalType": "uint256",
					"name": "",
					"type": "uint256"
				}
			],
			"stateMutability": "view",
			"type": "function"
		},
		{
			"inputs": [],
			"name": "MONTHLY_ROYALTY_TIME",
			"outputs": [
				{
					"internalType": "uint256",
					"name": "",
					"type": "uint256"
				}
			],
			"stateMutability": "view",
			"type": "function"
		},
		{
			"inputs": [],
			"name": "MONTH_DURATION",
			"outputs": [
				{
					"internalType": "uint256",
					"name": "",
					"type": "uint256"
				}
			],
			"stateMutability": "view",
			"type": "function"
		},
		{
			"inputs": [],
			"name": "PERCENTS_DIVIDER",
			"outputs": [
				{
					"internalType": "uint256",
					"name": "",
					"type": "uint256"
				}
			],
			"stateMutability": "view",
			"type": "function"
		},
		{
			"inputs": [],
			"name": "ROI_2X_TIME",
			"outputs": [
				{
					"internalType": "uint256",
					"name": "",
					"type": "uint256"
				}
			],
			"stateMutability": "view",
			"type": "function"
		},
		{
			"inputs": [],
			"name": "ROI_CAP_DIVIDER",
			"outputs": [
				{
					"internalType": "uint256",
					"name": "",
					"type": "uint256"
				}
			],
			"stateMutability": "view",
			"type": "function"
		},
		{
			"inputs": [],
			"name": "ROI_CAP_MULTIPLIER",
			"outputs": [
				{
					"internalType": "uint256",
					"name": "",
					"type": "uint256"
				}
			],
			"stateMutability": "view",
			"type": "function"
		},
		{
			"inputs": [
				{
					"internalType": "uint256",
					"name": "_userId",
					"type": "uint256"
				},
				{
					"internalType": "uint256",
					"name": "_poolId",
					"type": "uint256"
				}
			],
			"name": "RetopPoolByEarning",
			"outputs": [],
			"stateMutability": "nonpayable",
			"type": "function"
		},
		{
			"inputs": [],
			"name": "TIME_STEP",
			"outputs": [
				{
					"internalType": "uint256",
					"name": "",
					"type": "uint256"
				}
			],
			"stateMutability": "view",
			"type": "function"
		},
		{
			"inputs": [],
			"name": "TOP_ROYALTY_DIRECT",
			"outputs": [
				{
					"internalType": "uint256",
					"name": "",
					"type": "uint256"
				}
			],
			"stateMutability": "view",
			"type": "function"
		},
		{
			"inputs": [],
			"name": "TOP_ROYALTY_LEVEL",
			"outputs": [
				{
					"internalType": "uint256",
					"name": "",
					"type": "uint256"
				}
			],
			"stateMutability": "view",
			"type": "function"
		},
		{
			"inputs": [],
			"name": "TOP_ROYALTY_TIME",
			"outputs": [
				{
					"internalType": "uint256",
					"name": "",
					"type": "uint256"
				}
			],
			"stateMutability": "view",
			"type": "function"
		},
		{
			"inputs": [],
			"name": "WEEK_DURATION",
			"outputs": [
				{
					"internalType": "uint256",
					"name": "",
					"type": "uint256"
				}
			],
			"stateMutability": "view",
			"type": "function"
		},
		{
			"inputs": [],
			"name": "WeeklyCapping",
			"outputs": [
				{
					"internalType": "uint256",
					"name": "",
					"type": "uint256"
				}
			],
			"stateMutability": "view",
			"type": "function"
		},
		{
			"inputs": [],
			"name": "WeeklyTotalReward",
			"outputs": [
				{
					"internalType": "uint256",
					"name": "",
					"type": "uint256"
				}
			],
			"stateMutability": "view",
			"type": "function"
		},
		{
			"inputs": [
				{
					"internalType": "uint256",
					"name": "userId",
					"type": "uint256"
				}
			],
			"name": "canBuyNextPool",
			"outputs": [
				{
					"internalType": "bool",
					"name": "eligible",
					"type": "bool"
				},
				{
					"internalType": "string",
					"name": "reason",
					"type": "string"
				}
			],
			"stateMutability": "view",
			"type": "function"
		},
		{
			"inputs": [
				{
					"internalType": "uint256",
					"name": "",
					"type": "uint256"
				}
			],
			"name": "communityAccPerPackage",
			"outputs": [
				{
					"internalType": "uint256",
					"name": "",
					"type": "uint256"
				}
			],
			"stateMutability": "view",
			"type": "function"
		},
		{
			"inputs": [],
			"name": "communityAccPerUser",
			"outputs": [
				{
					"internalType": "uint256",
					"name": "",
					"type": "uint256"
				}
			],
			"stateMutability": "view",
			"type": "function"
		},
		{
			"inputs": [
				{
					"internalType": "uint256",
					"name": "",
					"type": "uint256"
				},
				{
					"internalType": "uint256",
					"name": "",
					"type": "uint256"
				}
			],
			"name": "communityDebt",
			"outputs": [
				{
					"internalType": "uint256",
					"name": "",
					"type": "uint256"
				}
			],
			"stateMutability": "view",
			"type": "function"
		},
		{
			"inputs": [],
			"name": "creatorWallet",
			"outputs": [
				{
					"internalType": "address",
					"name": "",
					"type": "address"
				}
			],
			"stateMutability": "view",
			"type": "function"
		},
		{
			"inputs": [],
			"name": "currentMonthlyRound",
			"outputs": [
				{
					"internalType": "uint256",
					"name": "",
					"type": "uint256"
				}
			],
			"stateMutability": "view",
			"type": "function"
		},
		{
			"inputs": [],
			"name": "currentMonthlyStartTime",
			"outputs": [
				{
					"internalType": "uint256",
					"name": "",
					"type": "uint256"
				}
			],
			"stateMutability": "view",
			"type": "function"
		},
		{
			"inputs": [],
			"name": "currentWeeklyRound",
			"outputs": [
				{
					"internalType": "uint256",
					"name": "",
					"type": "uint256"
				}
			],
			"stateMutability": "view",
			"type": "function"
		},
		{
			"inputs": [],
			"name": "currentWeeklyStartTime",
			"outputs": [
				{
					"internalType": "uint256",
					"name": "",
					"type": "uint256"
				}
			],
			"stateMutability": "view",
			"type": "function"
		},
		{
			"inputs": [],
			"name": "defaultRefId",
			"outputs": [
				{
					"internalType": "uint256",
					"name": "",
					"type": "uint256"
				}
			],
			"stateMutability": "view",
			"type": "function"
		},
		{
			"inputs": [
				{
					"internalType": "uint256",
					"name": "",
					"type": "uint256"
				}
			],
			"name": "glbBoosterPackages",
			"outputs": [
				{
					"internalType": "uint256",
					"name": "",
					"type": "uint256"
				}
			],
			"stateMutability": "view",
			"type": "function"
		},
		{
			"inputs": [
				{
					"internalType": "uint256",
					"name": "",
					"type": "uint256"
				}
			],
			"name": "minLevelForGlbBooster",
			"outputs": [
				{
					"internalType": "uint256",
					"name": "",
					"type": "uint256"
				}
			],
			"stateMutability": "view",
			"type": "function"
		},
		{
			"inputs": [
				{
					"internalType": "uint256",
					"name": "",
					"type": "uint256"
				}
			],
			"name": "minLevelForPool",
			"outputs": [
				{
					"internalType": "uint256",
					"name": "",
					"type": "uint256"
				}
			],
			"stateMutability": "view",
			"type": "function"
		},
		{
			"inputs": [
				{
					"internalType": "uint256",
					"name": "",
					"type": "uint256"
				}
			],
			"name": "minPoolForGlbBooster",
			"outputs": [
				{
					"internalType": "uint256",
					"name": "",
					"type": "uint256"
				}
			],
			"stateMutability": "view",
			"type": "function"
		},
		{
			"inputs": [],
			"name": "monthlyCapping",
			"outputs": [
				{
					"internalType": "uint256",
					"name": "",
					"type": "uint256"
				}
			],
			"stateMutability": "view",
			"type": "function"
		},
		{
			"inputs": [],
			"name": "monthlyTotalReward",
			"outputs": [
				{
					"internalType": "uint256",
					"name": "",
					"type": "uint256"
				}
			],
			"stateMutability": "view",
			"type": "function"
		},
		{
			"inputs": [
				{
					"internalType": "uint256",
					"name": "",
					"type": "uint256"
				}
			],
			"name": "packageQualifiedUsers",
			"outputs": [
				{
					"internalType": "uint256",
					"name": "",
					"type": "uint256"
				}
			],
			"stateMutability": "view",
			"type": "function"
		},
		{
			"inputs": [
				{
					"internalType": "uint256",
					"name": "",
					"type": "uint256"
				}
			],
			"name": "packages",
			"outputs": [
				{
					"internalType": "uint256",
					"name": "",
					"type": "uint256"
				}
			],
			"stateMutability": "view",
			"type": "function"
		},
		{
			"inputs": [
				{
					"internalType": "uint256",
					"name": "",
					"type": "uint256"
				}
			],
			"name": "poolPackages",
			"outputs": [
				{
					"internalType": "uint256",
					"name": "",
					"type": "uint256"
				}
			],
			"stateMutability": "view",
			"type": "function"
		},
		{
			"inputs": [
				{
					"internalType": "uint256",
					"name": "",
					"type": "uint256"
				}
			],
			"name": "registeredUserIds",
			"outputs": [
				{
					"internalType": "uint256",
					"name": "",
					"type": "uint256"
				}
			],
			"stateMutability": "view",
			"type": "function"
		},
		{
			"inputs": [],
			"name": "systemMaintance",
			"outputs": [
				{
					"internalType": "address",
					"name": "",
					"type": "address"
				}
			],
			"stateMutability": "view",
			"type": "function"
		},
		{
			"inputs": [],
			"name": "teamDevelopment",
			"outputs": [
				{
					"internalType": "address",
					"name": "",
					"type": "address"
				}
			],
			"stateMutability": "view",
			"type": "function"
		},
		{
			"inputs": [],
			"name": "topRoyaltyReward",
			"outputs": [
				{
					"internalType": "uint256",
					"name": "",
					"type": "uint256"
				}
			],
			"stateMutability": "view",
			"type": "function"
		},
		{
			"inputs": [],
			"name": "topRoyaltyRound",
			"outputs": [
				{
					"internalType": "uint256",
					"name": "",
					"type": "uint256"
				}
			],
			"stateMutability": "view",
			"type": "function"
		},
		{
			"inputs": [],
			"name": "topRoyaltyStartTime",
			"outputs": [
				{
					"internalType": "uint256",
					"name": "",
					"type": "uint256"
				}
			],
			"stateMutability": "view",
			"type": "function"
		},
		{
			"inputs": [],
			"name": "totalUsers",
			"outputs": [
				{
					"internalType": "uint256",
					"name": "",
					"type": "uint256"
				}
			],
			"stateMutability": "view",
			"type": "function"
		},
		{
			"inputs": [
				{
					"internalType": "uint256",
					"name": "_userId",
					"type": "uint256"
				}
			],
			"name": "upgradeBooster",
			"outputs": [],
			"stateMutability": "nonpayable",
			"type": "function"
		},
		{
			"inputs": [
				{
					"internalType": "uint256",
					"name": "_userId",
					"type": "uint256"
				}
			],
			"name": "upgradePool",
			"outputs": [],
			"stateMutability": "nonpayable",
			"type": "function"
		},
		{
			"inputs": [
				{
					"internalType": "uint32",
					"name": "_userId",
					"type": "uint32"
				},
				{
					"internalType": "uint256",
					"name": "_poolId",
					"type": "uint256"
				}
			],
			"name": "upgradePoolByEarning",
			"outputs": [],
			"stateMutability": "nonpayable",
			"type": "function"
		},
		{
			"inputs": [],
			"name": "usdt",
			"outputs": [
				{
					"internalType": "contract IERC20",
					"name": "",
					"type": "address"
				}
			],
			"stateMutability": "view",
			"type": "function"
		}
	]
}