{
	"data": {
		"bytecode": {
			"linkReferences": {},
			"object": "60806040523461098c57604051601f6150b538819003918201601f19168301916001600160401b0383118484101761097857808492604094855283398101031261098c576100586020610051836109ee565b92016109ee565b60015f556040519091906101e081016001600160401b038111828210176109785760405267d02ab486cedc0000815268015af1d78b58c4000060208201526802b5e3af16b1880000604082015268056bc75e2d631000006060820152680ad78ebc5ac620000060808201526815af1d78b58c40000060a0820152682b5e3af16b1880000060c08201526856bc75e2d63100000060e082015268ad78ebc5ac6200000061010082015269015af1d78b58c40000006101208201526902b5e3af16b18800000061014082015269056bc75e2d6310000000610160820152690ad78ebc5ac6200000006101808201526915af1d78b58c400000006101a0820152692b5e3af16b18800000006101c0820152600d54600f600d5580600f10610935575b50600d5f5260205f20905f5b600f811061091857505050610196610990565b680410d586a20a4c00008152681043561a8829300000602082015268410d586a20a4c0000060408201526901043561a882930000006060820152690410d586a20a4c0000006080820152691043561a88293000000060a082015269410d586a20a4c000000060c08201526016546007601655806007106108d5575b5060165f5260205f20905f5b600781106108b8575050506102306109af565b68056bc75e2d631000008152680ad78ebc5ac620000060208201526815af1d78b58c4000006040820152682b5e3af16b1880000060608201526856bc75e2d631000000608082015268ad78ebc5ac6200000060a082015269015af1d78b58c400000060c08201526902b5e3af16b18800000060e0820152601754600860175580600810610875575b5060175f5260205f20905f5b60088110610858575050506102d7610990565b60038152600560208201526007604082015260096060820152600b6080820152600d60a0820152600f60c08201525f5b600781106108405750506103196109af565b6004815260056020820152600660408201526007606082015260086080820152600960a0820152600a60c0820152600b60e08201525f5b600881106108285750506103626109af565b5f815260016020820152600160408201526001606082015260016080820152600160a0820152600160c0820152600160e08201525f5b600881106108105750505f6039819055603a819055603b819055600160408190556041829055604282905560478190556048829055604982905580546001600160a01b03199081166001600160a01b039485161782556002805482169590941694851784556103e8600581905560069290925581835260106020527f92673bc4b5ff73490af990ea8b2927e66ec918198708735b1dd7fcff379d9d858054909116851781557f92673bc4b5ff73490af990ea8b2927e66ec918198708735b1dd7fcff379d9d8891909155600f7f92673bc4b5ff73490af990ea8b2927e66ec918198708735b1dd7fcff379d9d8b55427f92673bc4b5ff73490af990ea8b2927e66ec918198708735b1dd7fcff379d9d965560077f92673bc4b5ff73490af990ea8b2927e66ec918198708735b1dd7fcff379d9d915560087f92673bc4b5ff73490af990ea8b2927e66ec918198708735b1dd7fcff379d9d94557f92673bc4b5ff73490af990ea8b2927e66ec918198708735b1dd7fcff379d9d8d9290925560147f92673bc4b5ff73490af990ea8b2927e66ec918198708735b1dd7fcff379d9d9055600d5491929181905b600f82106107dc575050600a8301556005545f918252600f602052604082205590815b601654831015610658576016548310156106445760165f525f5160206150955f395f51905f5283015460019161059c9190610a02565b926106036005546105ab6109cf565b818152602080820183815260408084018781525f60608601818152608087018281528a835260308752848320988352979095529190912093518455905160018401555160028301555160038201559051600490910155565b805f52603360205261061b60405f2060055490610a23565b805f52603260205261063d60405f2060055490815f5260205260405f20610a23565b0191610566565b634e487b7160e01b5f52603260045260245ffd5b600d8201555f905f5b6008811061072b57506010015542603a5542604155426048555f603b5560016039555f60425560016040555f604955600160475560015f52603e602052600360405f2060055490815f526020526106c860405f209160015f52603d60205260405f20610a23565b42815560395460018201550161010061ff00198254161790557f360cb96d3e85b4fc299ddfa9a572850fc70961c86f0f1703f033143b0e5a82cf60606039546005546040519182526020820152426040820152a16040516145ef9081610a668239f35b916017548310156106445760175f525f5160206150755f395f51905f528301546001916107589190610a02565b926107be6005546107676109cf565b81815260208082018581525f60408085018281526060860183815242608088019081528a85526035875283852098855297909552912093518455905160018401555160028301555160038201559051600490910155565b805f5260376020526107d660405f2060055490610a23565b01610661565b90918183101561064457600d5f525f5160206150555f395f51905f528301546001916108089190610a02565b920190610543565b600190602060ff845116930192816027015501610398565b600190602060ff84511693019281601f015501610350565b600190602060ff845116930192816018015501610307565b81516001600160501b0316818401556020909101906001016102c4565b60175f526108b2905f5160206150755f395f51905f52017fc624b66cc0138b8fabc209247f72d758e1cf3343756d543badbf24212bed8c1d610a4f565b5f6102b8565b81516001600160501b03168184015560209091019060010161021d565b60165f52610912905f5160206150955f395f51905f52017fd833147d7dc355ba459fc788f669e58cfaf9dc25ddcd0702e87d69c7b5124290610a4f565b5f610211565b81516001600160501b031681840155602090910190600101610183565b600d5f52610972905f5160206150555f395f51905f52017fd7b6990105719101dabeb77144f2a3385c8033acd3af97e9423a695e81ad1ec4610a4f565b5f610177565b634e487b7160e01b5f52604160045260245ffd5b5f80fd5b6040519060e082016001600160401b0381118382101761097857604052565b6040519061010082016001600160401b0381118382101761097857604052565b6040519060a082016001600160401b0381118382101761097857604052565b51906001600160a01b038216820361098c57565b91908201809211610a0f57565b634e487b7160e01b5f52601160045260245ffd5b805490680100000000000000008210156109785760018201808255821015610644575f5260205f200155565b818110610a5a575050565b5f8155600101610a4f56fe610280806040526004361015610013575f80fd5b5f905f3560e01c90816254815d14612a245750806301c234a814612a08578063056b4d1f146129a85780630676d0d61461297e5780630a5c5d691461294f5780630ef81b74146129165780630f2b7cc9146128e757806316298056146125525780631c4ecf68146125375780632132d204146125095780632350268f146124c657806323fd338e1461175f5780632a891534146124a85780632ae0ee0d146122085780632d66014f146124655780632f48ab7d1461243c5780633080b5bc1461241e57806331bb6a301461240257806332bc298c146123e457806332fcd966146123c1578063365b98b21461220d578063375b43b41461220857806339ab3603146121c557806339f2e64a14611e5e5780633a5084b314611e405780634036436c14611de057806345977d03146118e657806345cb537c146118bc57806346b9dece146118165780634b8cbf9b146117f85780634d12ae0f146117c65780634d4cc5ca1461178a57806354c5bd901461176457806358c7d3521461175f5780635aabf7f1146117235780635b58ce6c146116af5780635b62d1d5146116915780635ec64a441461165f5780636a424782146115fe578063705fee2d146115df57806370c8d7701461156557806376f5f7001461154757806378f6ad6d146115295780637cdc65f2146115005780637d846e38146114dc57806388afbe3e146114b257806389043ece146114855780638d58644c146114495780638f030ece1461140d578063907c84a7146113a2578063956a3228146113745780639735800414610f0c5780639b40ab9714610eee5780639c38348614610ebc578063a59d17d114610e9e578063a5e52b9914610e80578063ae4708dc14610e3d578063bd1aae4014610e0b578063bf72467214610dd3578063bff1f9e114610db5578063c216212a14610d8a578063c4eb42a514610d29578063c7bb62e814610cf7578063c8df290814610cd2578063c9ed070814610cb4578063ca8e912114610c96578063cb0e0d7d14610c59578063ce79c2c314610bee578063d0a2fd7914610bbc578063d2f0490d14610ba0578063db27cc7114610b3c578063e898fc3814610b1e578063e9e34a1614610af5578063ebe0ff1514610ad1578063ec597e6f14610ab3578063f207564e1461046f578063f5748c4f14610418578063f5d74d93146103ef578063f7a24806146103ae5763fddc806f1461038e575f80fd5b346103ab57806003193601126103ab576020603a54604051908152f35b80fd5b50346103ab576103bd36612a93565b919081526046602052604081209081548310156103ab5760206103e08484612b47565b90549060031b1c604051908152f35b50346103ab57806003193601126103ab576004546040516001600160a01b039091168152602090f35b50346103ab5760203660031901126103ab5760043590604b548210156103ab57604b5482101561045b57602091604b825282822001549060031b1c604051908152f35b634e487b7160e01b81526032600452602490fd5b50346103ab5760203660031901126103ab57600435338252600f6020526040822054610a79578082526010602052600360408320015415610a425760015482906020906104fd906001600160a01b03166104c7612b15565b90546040516323b872dd60e01b815233600482015230602482015260039290921b1c604482015293849283919082906064820190565b03925af18015610a3757610a0a575b506005549061051e6006548093612cd1565b91600181018091116109f657600655338352600f602052816040842055610543612b15565b90549060031b1c9082845260106020526040842091336bffffffffffffffffffffffff60a01b845416178355426002840155836003840155600483018281556001600685015581600a850155426011850155600f600b8501558286526010602052600760408720018054906001820180921161083c575582865260156020526105cf8560408820613307565b848652600e6020526040862082875260205260036040872001600160ff19825416179055818652600c602052604086208054906001820180921161083c5755818652600a6020526040862054828752600b602052604087208688526020526040872055858690848852601460205260026040892054105f146108b157505084865260106020528260056040882001558286526014602052604086208054906001820180921161083c5755825b86905b600f8210610850575b50506005820282159083810460051482171561083c5760649004603c840291848304603c14811715610814576106bb614079565b6106c36141e9565b6106cb614318565b6106d782603b54612cd1565b603b5560238502858104602314821715610828576103e86106fb9104604254612cd1565b604255600f8502858104600f14821715610828576103e861071f9104604954612cd1565b6049556019850290858204601914171561081457606461075a9361075287969461074d8c99858b9704613682565b6135c6565b0491546136f3565b60405190600182526020820152608060408201527f26adb22cec823ef144935e9fbef1b6b4a3a29dacbe5444d59292fa2620f3d3776107bf60808301604090601581527453706f6e736f72736869702053747275637475726560581b60208201520190565b914260608201528033930390a383526010602052600560018060a01b036040852054169101546040519081527f309bb360e8b69c23937ccc5fb01f9aeeead1c95a99604e175113ff82f2b1723a60203392a480f35b634e487b7160e01b89526011600452602489fd5b634e487b7160e01b8a52601160045260248afd5b634e487b7160e01b88526011600452602488fd5b80156108ac578088526010602052600960408920018054906001820180921161082857558088526013602052604088208289526020526108938760408a20613307565b875260106020526001600560408920015491019061067e565b610687565b875b600f81106108c3575b505061067b565b816109f157858952601360205260408920600182018083116109ba578a526020526040892054600282018083116109ba5760ff81116109ba576001901b1161090e575b6001016108b3565b94939096959192885b858a52601360205260408a20878b5260205260408a20548110156109e157886109ce57858a52601360205260408a20878b526020526109598160408c20612b47565b90549060031b1c808b526014602052600260408c20541061097e575b50600101610917565b9194509750868952601060205280600560408b200155808952601460205260408920805490600182018092116109ba5755926001809890610975565b634e487b7160e01b8b52601160045260248bfd5b50929195969093946001905b9050610906565b50929195969093946001906109da565b6108bc565b634e487b7160e01b84526011600452602484fd5b610a2b9060203d602011610a30575b610a238183613186565b8101906131bc565b61050c565b503d610a19565b6040513d85823e3d90fd5b60405162461bcd60e51b815260206004820152600f60248201526e24b73b30b634b21039b837b739b7b960891b6044820152606490fd5b60405162461bcd60e51b8152602060048201526012602482015271105b1c9958591e481c9959da5cdd195c995960721b6044820152606490fd5b50346103ab57806003193601126103ab576020600554604051908152f35b50346103ab57806003193601126103ab576020604051683635c9adc5dea000008152f35b50346103ab57806003193601126103ab576003546040516001600160a01b039091168152602090f35b50346103ab57806003193601126103ab576020604154604051908152f35b50346103ab5760203660031901126103ab576040906004358152604c602052208054610b9c60018301549260ff60046002830154920154169060405194859485926060929594919560808501968552602085015260408401521515910152565b0390f35b50346103ab57806003193601126103ab57602060405160058152f35b50346103ab5760203660031901126103ab576004356008811015610bea5760209150601f0154604051908152f35b5080fd5b50346103ab57604090610c0036612a93565b9082526030602052828220908252602052208054610b9c6001830154926002810154906004600382015491015491604051958695869192608093969594919660a084019784526020840152604083015260608201520152565b50346103ab5760203660031901126103ab576004356001600160a01b03811690819003610bea578160409160209352600f83522054604051908152f35b50346103ab57806003193601126103ab576020603954604051908152f35b50346103ab57806003193601126103ab576020604054604051908152f35b50346103ab57806003193601126103ab57602060405169021e19e0c9bab24000008152f35b50346103ab57610d0636612a93565b919081526037602052604081209081548310156103ab5760206103e08484612b47565b50346103ab5760203660031901126103ab576040906004358152603c602052208054610b9c6001830154926002810154906003810154600482015460058301549060068401549260ff600860078701549601541695604051998a998a612aa9565b50346103ab5760203660031901126103ab5760043590600d548210156103ab5760206103e083612ae9565b50346103ab57806003193601126103ab576020600654604051908152f35b50346103ab5760408091610de636612a93565b908252602f602052828220908252602052206001815491015482519182526020820152f35b50346103ab5760ff6040602092610e2136612a93565b9082526034855282822090825284522054166040519015158152f35b50346103ab5760203660031901126103ab57600435906016548210156103ab5760165482101561045b576020916016825282822001549060031b1c604051908152f35b50346103ab57806003193601126103ab5760206040516283d6008152f35b50346103ab57806003193601126103ab576020604254604051908152f35b50346103ab5760ff6040602092610ed236612a93565b9082526038855282822090825284522054166040519015158152f35b50346103ab57806003193601126103ab576020604854604051908152f35b50346103ab57610f1b36612a93565b610f2692919261333b565b610f2e614079565b610f366141e9565b610f3e614318565b828252601060205260408220546001600160a01b0316610f5f338214612bac565b1561133d5782151580611334575b80611316575b8061130b575b610f8290612beb565b828252604c6020526040822090808352604a6020526040832090610fb1600160ff6004860154161515146130b9565b6003830181855280602052610fcd60ff604087205416156130f6565b600383015492831594610fe08615612c50565b6110058460016004850193610ffc600286549701548710612c91565b01541115613142565b600182018092116112f7575581855260205260408420600160ff198254161790558484526010602052604084209360018060a01b038554169384156112c357611290578581526011602052604081209080611061858454612cd1565b835561127c5750600b8101611077848254612cd1565b90555490600b8501549060065f9601955b865481101561126e5761109a81612ae9565b90549060031b1c93885f52600e60205260405f20855f5260205260405f20906003820160ff815460081c16801590818092611258575b1561113d575050805461ff001916610100179055611104919085600a6110f6828a6131d4565b049283600282015555612cde565b935f52600c60205260405f209081545f19810190811161112957600192555b01611088565b634e487b7160e01b5f52601160045260245ffd5b8091939598925090611243575b15611168575050600191600261116292015490612cde565b93611123565b92959285908261122b575b50506111825750600190611123565b91949650506001915095939501555b6001546111aa90849086906001600160a01b031661440e565b6040518381525f60208201529082807f6ac5dc27fbf1276a5db7faad992ea92a268d34b18f81922f747d9d3beb5f9c55965f51602061459a5f395f51905f5260808660096040611222990152426060820152a46040519384934292859094939260609260808301968352602083015260408201520152565b0390a160015f55005b600a925090611239916131d4565b048510845f611173565b50600a61125087836131d4565b04841161114a565b50600a611265898b6131d4565b048410156110d0565b509294505050929092611191565b634e487b7160e01b81526021600452602490fd5b60405162461bcd60e51b815260206004820152600b60248201526a16995c9bc8185b5bdd5b9d60aa1b6044820152606490fd5b60405162461bcd60e51b815260206004820152600c60248201526b24b73b30b634b2103ab9b2b960a11b6044820152606490fd5b634e487b7160e01b87526011600452602487fd5b506047548110610f79565b50808252604a602052600160ff600860408520015416151514610f73565b50801515610f6d565b60405162461bcd60e51b815260206004820152600f60248201526e125b9d985b1a59081858d8dbdd5b9d608a1b6044820152606490fd5b50346103ab5760203660031901126103ab576004356008811015610bea576020915060270154604051908152f35b50346103ab576040906113b436612a93565b9082526035602052828220908252602052208054610b9c6001830154926002810154906004600382015491015491604051958695869192608093969594919660a084019784526020840152604083015260608201520152565b50346103ab5761141c36612b5c565b92918252603160205260408220908252602052604081209081548310156103ab5760206103e08484612b47565b50346103ab5761145836612b5c565b92918252603260205260408220908252602052604081209081548310156103ab5760206103e08484612b47565b50346103ab57604060209161149936612a93565b908252600b845282822090825283522054604051908152f35b50346103ab5760203660031901126103ab5760406020916004358152601483522054604051908152f35b50346103ab5760206114f66114f036612a93565b9061325e565b6040519015158152f35b50346103ab57806003193601126103ab576002546040516001600160a01b039091168152602090f35b50346103ab57806003193601126103ab576020600954604051908152f35b50346103ab57806003193601126103ab57602060405162093a808152f35b50346103ab5761157436612a93565b919081526012602052604081208054831015610bea5781602091600593508152209102018054610b9c6001830154926002810154906004600382015491015491604051958695869192608093969594919660a084019784526020840152604083015260608201520152565b50346103ab57806003193601126103ab57602060405163025143008152f35b50346103ab5760203660031901126103ab5760409060043581526043602052208054610b9c6001830154926002810154906003810154600482015460058301549060068401549260ff600860078701549601541695604051998a998a612aa9565b50346103ab5761166e36612a93565b919081526015602052604081209081548310156103ab5760206103e08484612b47565b50346103ab57806003193601126103ab576020604954604051908152f35b50346103ab576040906116c136612a93565b908252600e602052828220908252602052208054610b9c600183015491600360028501549401549060405194859460ff808560081c169416928693909594919260809360a0860197865260208601526040850152151560608401521515910152565b50346103ab5761173236612b5c565b92918252601360205260408220908252602052604081209081548310156103ab5760206103e08484612b47565b612b76565b50346103ab57604061177e61177836612a93565b906131e7565b82519182526020820152f35b50346103ab5761179936612b5c565b92918252603f60205260408220908252602052604081209081548310156103ab5760206103e08484612b47565b50346103ab576117d536612a93565b91908152604d602052604081209081548310156103ab5760206103e08484612b47565b50346103ab57806003193601126103ab576020604754604051908152f35b50346103ab5760203660031901126103ab5760406101809160043581526011602052208054906001810154906002810154600382015460048301546005840154600685015490600786015492600887015494600988015496600b600a8a0154990154996040519b8c5260208c015260408b015260608a0152608089015260a088015260c087015260e0860152610100850152610120840152610140830152610160820152f35b50346103ab5760203660031901126103ab5760406020916004358152600a83522054604051908152f35b50346103ab5760203660031901126103ab5760043580825260106020526040822061191b60018060a01b038254163314612bac565b600681018054600f811015611da45761193381612ae9565b90546001546040516323b872dd60e01b815233600482015230602482015260039390931b9190911c60448301819052939190602090829060649082908b906001600160a01b03165af18015611d9957611d7c575b50805490600182018092116112f75755600a83016119a6838254612cd1565b9055838552600e6020526040852082865260205260036040862001600160ff1982541617905560058202928215938381046005148517156112f75760649004936019840284810460191482171561083c57846064611a049204613682565b838752600a6020526040872054848852600b602052604088208789526020526040882055611a31856135c6565b838752600c602052604087208054906001820180921161081457556014840284810460141482171561083c576064900494600483019384549660018201978883116109ba57918882611a8c82611aa7958e611ac79998613723565b8b8d60058a01611a9f8585858454613762565b549050613a14565b611aaf614079565b611ab76141e9565b611abf614318565b603b54612cd1565b603b556023840284810460231482171561083c576103e8611aeb9104604254612cd1565b604255600f840290848204600f1417156112f7576103e8611b0f9104604954612cd1565b604955600a8414611c8f575b600f8414611b99575b50506040519182526020820152608060408201527f26adb22cec823ef144935e9fbef1b6b4a3a29dacbe5444d59292fa2620f3d377611b8960808301604090601581527453706f6e736f72736869702053747275637475726560581b60208201520190565b914260608201528033930390a380f35b60134291015583855260106020526040852090548552601060205260408520601581018054906001820180921161083c5790806002925510159081611c71575b81611c61575b50611c4b575b6002601582015410159081611c28575b81611c19575b50611c08575b5f80611b24565b611c1460475484613f3f565b611c01565b600f915060060154145f611bfb565b90506013810154601182015490630251430082018092116112f757111590611bf5565b611c5c600482015460475490613f3f565b611be5565b600f91506006015410155f611bdf565b90506011810154630251430081018091116112f75742111590611bd9565b4260128201558486526010602052604086208254875260106020526040872060148101805490600182018092116108285790806005925510159081611d5f575b81611d4f575b50611d39575b6005601482015410159081611d17575b81611d08575b5015611b1b57611d0360405486613da9565b611b1b565b600a915060060154145f611cf1565b905060128101546011820154906283d600820180921161081457111590611ceb565b611d4a600482015460405490613da9565b611cdb565b600a91506006015410155f611cd5565b905060118101546283d60081018091116108145742111590611ccf565b611d949060203d602011610a3057610a238183613186565b611987565b6040513d89823e3d90fd5b60405162461bcd60e51b8152602060048201526014602482015273105b1c9958591e48185d081b585e081b195d995b60621b6044820152606490fd5b50346103ab5760203660031901126103ab5760409060043581526045602052208054610b9c60018301549260ff60046002830154920154169060405194859485926060929594919560808501968552602085015260408401521515910152565b50346103ab57806003193601126103ab5760206040516202a3008152f35b50346103ab57611e6d36612a93565b611e7892919261333b565b611e80614079565b611e886141e9565b611e90614318565b8282526010602052611eaf60018060a01b036040842054163314612bac565b821515806121bc575b8061219e575b80612193575b611ecd90612beb565b8282526045602052604082209080835260436020526040832090611efc600160ff6004860154161515146130b9565b6003830181855280602052611f1860ff604087205416156130f6565b600383015492831594611f2b8615612c50565b611f478460016004850193610ffc600286549701548710612c91565b600182018092116112f7575581855260205260408420600160ff198254161790558484526010602052604084209360018060a01b038554169384156112c357611290578581526011602052604081209080611fa3858454612cd1565b835561127c5750600a8101611fb9848254612cd1565b90555490600b8501549060065f9601955b865481101561218557611fdc81612ae9565b90549060031b1c93885f52600e60205260405f20855f5260205260405f20906003820160ff815460081c1680159081809261216f575b1561205d575050805461ff001916610100179055612038919085600a6110f6828a6131d4565b935f52600c60205260405f209081545f19810190811161112957600192555b01611fca565b809193959892509061215a575b15612088575050600191600261208292015490612cde565b93612057565b929592859082612142575b50506120a25750600190612057565b91949650506001915095939501555b6001546120ca90849086906001600160a01b031661440e565b6040518381525f60208201529082807f8211032682f8fd8be8ff252e0a106cdb6ad4b10427152b4d93c2bc9a1f11c3c2965f51602061459a5f395f51905f5260808660086040611222990152426060820152a46040519384934292859094939260609260808301968352602083015260408201520152565b600a925090612150916131d4565b048510845f612093565b50600a61216787836131d4565b04841161206a565b50600a61217c898b6131d4565b04841015612012565b5092945050509290926120b1565b506040548110611ec4565b508082526043602052600160ff600860408520015416151514611ebe565b50801515611eb8565b50346103ab5760203660031901126103ab57600435906007548210156103ab5760075482101561045b576020916007825282822001549060031b1c604051908152f35b612b91565b50346103ab5760203660031901126103ab5760409060043581526010602052206101805260018060a01b03610180515416600261018051015461010052600361018051015461014052600461018051015460056101805101546006610180510154600761018051015460086101805101546009610180510154600a61018051015490600b61018051015492600c61018051015494600d61018051015496600e61018051015498600f6101805101549a60106101805101549c6011610180510154608052601261018051015460c052601361018051015461016052601461018051015461012052601561018051015460e05260405160a05260a0515261010051602060a051015261014051604060a0510152606060a0510152608060a051015260a08051015260c060a051015260e060a051015261010060a051015261012060a051015261014060a051015261016060a051015261018060a05101526101a060a05101526101c060a05101526101e060a051015260805161020060a051015260c05161022060a05101526101605161024060a05101526101205161026060a051015260e05161028060a05101526102a060a051f35b50346103ab57806003193601126103ab576020604051670de0b6b3a76400008152f35b50346103ab57806003193601126103ab576020604051620151808152f35b50346103ab57806003193601126103ab57602060405160028152f35b50346103ab57806003193601126103ab576020603b54604051908152f35b50346103ab57806003193601126103ab576001546040516001600160a01b039091168152602090f35b50346103ab5760203660031901126103ab57600435906044548210156103ab5760445482101561045b576020916044825282822001549060031b1c604051908152f35b50346103ab57806003193601126103ab57602060405162278d008152f35b50346103ab5760203660031901126103ab57600435906017548210156103ab5760175482101561045b576020916017825282822001549060031b1c604051908152f35b50346103ab5760203660031901126103ab576004356007811015610bea576020915060180154604051908152f35b50346103ab5761254f61254936612a93565b90612d09565b80f35b346128e35761256036612a93565b61256861333b565b612570614079565b6125786141e9565b612580614318565b815f52601060205261259f60018060a01b0360405f2054163314612bac565b811515806128da575b806128bc575b806128b1575b6125bd90612beb565b805f52603e60205260405f20825f5260205260405f20815f52603c602052600360405f2091018054600160ff8260081c1615151490816128a5575b5015612861576003820154908115926126118415612c50565b60048101612626600282549301548310612c91565b600182018092116111295755600160ff19825416179055835f52601060205260405f209260018060a01b038454169283156112c35761129057845f52601160205260405f20612676838254612cd1565b815560098101612687848254612cd1565b90555490600b8501549060065f9601955b8654811015612853576126aa81612ae9565b90549060031b1c93885f52600e60205260405f20855f5260205260405f20906003820160ff815460081c1680159081809261283d575b1561272b575050805461ff001916610100179055612706919085600a6110f6828a6131d4565b935f52600c60205260405f209081545f19810190811161112957600192555b01612698565b8091939598925090612828575b15612756575050600191600261275092015490612cde565b93612725565b929592859082612810575b50506127705750600190612725565b91949650506001915095939501555b60015461279890849086906001600160a01b031661440e565b6040518381525f60208201529082807f96ee4f374d0394c5383b347dc3b7ec04a1eceddcd2e25521157bce21c42b24d5965f51602061459a5f395f51905f5260808660076040611222990152426060820152a46040519384934292859094939260609260808301968352602083015260408201520152565b600a92509061281e916131d4565b048510848b612761565b50600a61283587836131d4565b048411612738565b50600a61284a898b6131d4565b048410156126e0565b50929450505092909261277f565b606460405162461bcd60e51b815260206004820152602060248201527f4e6f74207175616c6966696564206f7220616c726561647920636c61696d65646044820152fd5b60ff91501615856125f8565b5060395481106125b4565b50805f52603c602052600160ff600860405f200154161515146125ae565b508015156125a8565b5f80fd5b346128e3576128f536612a93565b905f52603360205260405f2080548210156128e3576020916103e091612b47565b346128e35761292436612b5c565b915f52603660205260405f20905f5260205260405f2080548210156128e3576020916103e091612b47565b346128e35761295d36612a93565b905f52603d60205260405f2080548210156128e3576020916103e091612b47565b346128e35760203660031901126128e3576004355f52600c602052602060405f2054604051908152f35b346128e35760203660031901126128e3576004355f52604a60205260405f208054610b9c6001830154926002810154906003810154600482015460058301549060068401549260ff600860078701549601541695604051998a998a612aa9565b346128e3575f3660031901126128e35760206040516127108152f35b346128e357612a3236612a93565b905f52603e60205260405f20905f5260205280610b9c60405f208054600182015491600360028201549101549260ff808560081c169416928693909594919260809360a0860197865260208601526040850152151560608401521515910152565b60409060031901126128e3576004359060243590565b979491926101009794919a9996936101208a019b8a5260208a015260408901526060880152608087015260a086015260c085015260e08401521515910152565b600d54811015612b0157600d5f5260205f2001905f90565b634e487b7160e01b5f52603260045260245ffd5b600d5415612b0157600d5f9081527fd7b6990105719101dabeb77144f2a3385c8033acd3af97e9423a695e81ad1eb591565b8054821015612b01575f5260205f2001905f90565b60609060031901126128e357600435906024359060443590565b346128e3575f3660031901126128e3576020604051600a8152f35b346128e3575f3660031901126128e3576020604051600f8152f35b15612bb357565b60405162461bcd60e51b815260206004820152601060248201526f139bdd081e5bdd5c881858d8dbdd5b9d60821b6044820152606490fd5b15612bf257565b60405162461bcd60e51b815260206004820152603060248201527f496e76616c696420757365724964206f7220726f756e644964206f7220726f7560448201526f1b99081bdc881b9bdd0818db1bdcd95960821b6064820152608490fd5b15612c5757565b60405162461bcd60e51b81526020600482015260126024820152714e6f2072657761726420746f20636c61696d60701b6044820152606490fd5b15612c9857565b60405162461bcd60e51b8152602060048201526011602482015270105b1b081d5cd95c9cc818db185a5b5959607a1b6044820152606490fd5b9190820180921161112957565b9190820391821161112957565b8115612cf5570490565b634e487b7160e01b5f52601260045260245ffd5b90815f52601060205260405f206003810154156130835754612d35906001600160a01b03163314612bac565b815f52600e60205260405f20815f5260205260ff600360405f200154161561304c57815f52600e60205260405f20815f5260205260ff600360405f20015460081c1661301657805f52600a60205260405f205491815f52600b60205260405f20815f5260205260405f205480841461301057612dba670de0b6b3a76400009185612cde565b04918215612ff557612dcc838361356d565b93815f52600b60205260405f20835f5260205260405f20558315918215612e0b575b505050818111612dfc575050565b612e099161074d91612cde565b565b5f81815260106020526040902080546001600160a01b0316969095919390929087156112c35761129057835f52601160205260405f20612e4c838254612cd1565b815560068101612e5d848254612cd1565b90555492600b8701549260065f9801975b8854811015612fe857612e8081612ae9565b90549060031b1c95875f52600e60205260405f20875f5260205260405f20906003820160ff815460081c16801590818092612fd2575b15612f01575050805461ff001916610100179055612edc919087600a6110f6828c6131d4565b955f52600c60205260405f209081545f19810190811161112957600192555b01612e6e565b809193959a925090612fbd575b15612f2c5750506001916002612f2692015490612cde565b95612efb565b929792879082612fa5575b5050612f465750600190612efb565b9198505060019198935093919301555b600154612f6f90869083906001600160a01b031661440e565b60405185815260208101929092525f51602061459a5f395f51905f526080836004604087960152426060820152a45f8080612dee565b600a925090612fb3916131d4565b048710865f612f37565b50600a612fca89836131d4565b048411612f0e565b50600a612fdf8b8d6131d4565b04841015612eb6565b5096509691509150612f56565b9091505f52600b60205260405f20905f5260205260405f2055565b50505050565b60405162461bcd60e51b815260206004820152600e60248201526d141858dad859d94810db1bdcd95960921b6044820152606490fd5b60405162461bcd60e51b815260206004820152600f60248201526e496e76616c6964207061636b61676560881b6044820152606490fd5b60405162461bcd60e51b815260206004820152600e60248201526d155cd95c881b9bdd08199bdd5b9960921b6044820152606490fd5b156130c057565b60405162461bcd60e51b815260206004820152600e60248201526d02737ba1038bab0b634b334b2b2160951b6044820152606490fd5b156130fd57565b60405162461bcd60e51b815260206004820152601e60248201527f416c726561647920636c61696d656420666f72207468697320726f756e6400006044820152606490fd5b1561314957565b60405162461bcd60e51b81526020600482015260156024820152744e6f7420656c696769626c6520746f20636c61696d60581b6044820152606490fd5b90601f8019910116810190811067ffffffffffffffff8211176131a857604052565b634e487b7160e01b5f52604160045260245ffd5b908160209103126128e3575180151581036128e35790565b8181029291811591840414171561112957565b9190825f526010602052600360405f2001541561325657805f52600a60205260405f2054905f52600b60205260405f20835f5260205260405f2054908181111561324c5761324161324992670de0b6b3a764000092612cde565b04809361356d565b90565b505090505f905f90565b505f91508190565b5f52604560205260405f20815f52604360205260405f209060ff600883015416159283156132fa575b83156132ea575b83156132db575b83156132c0575b505081156132b3575b506132af57600190565b5f90565b600391500154155f6132a5565b60039293505f520160205260ff60405f205416905f8061329c565b80935060018201541192613295565b600482015460ff1615935061328e565b6040548110159350613287565b8054600160401b8110156131a85761332491600182018155612b47565b819291549060031b91821b915f19901b1916179055565b60025f541461334a5760025f55565b60405162461bcd60e51b815260206004820152601f60248201527f5265656e7472616e637947756172643a207265656e7472616e742063616c6c006044820152606490fd5b91909293825f52601060205260405f209360018060a01b038554169283156112c357801561129057845f52601160205260405f206133ce828254612cd1565b8155600181016133df838254612cd1565b90555492600b8701549260065f9801975b88548110156135605761340281612ae9565b90549060031b1c95885f52600e60205260405f20875f5260205260405f20906003820160ff815460081c1680159081809261354a575b15613483575050805461ff00191661010017905561345e919087600a6110f6828c6131d4565b955f52600c60205260405f209081545f19810190811161112957600192555b016133f0565b809193959a925090613535575b156134ae57505060019160026134a892015490612cde565b9561347d565b92979287908261351d575b50506134c8575060019061347d565b9198505060019198935093919301555b6001546134f190839085906001600160a01b031661440e565b6040519182526020820152608081600160405f51602061459a5f395f51905f52940152426060820152a4565b600a92509061352b916131d4565b048710865f6134b9565b50600a61354289836131d4565b048411613490565b50600a6135578b8d6131d4565b04841015613438565b50965096915091506134d8565b805f52601060205260405f20905f526011602052600a61359960405f209282600b8201549101546131d4565b049054818110156135bf576135ad91612cde565b90818111156135ba575090565b905090565b5050505f90565b6002546001600160a01b0316908115613649576001546080926135f4918391906001600160a01b031661440e565b6005545f52601160205260405f2061360d828254612cd1565b905560018060a01b03600254165f51602061459a5f395f51905f526005549384936040519081525f60208201525f6040820152426060820152a4565b60405162461bcd60e51b8152602060048201526011602482015270199959481859191c9cc81b9bdd081cd95d607a1b6044820152606490fd5b905f52600c60205260405f205490811580156136eb575b6136d857670de0b6b3a7640000810290808204670de0b6b3a76400001490151715611129576136d3916136cb91612ceb565b600954612cd1565b600955565b8091506136e25750565b612e09906135c6565b508015613699565b80158015613718575b61370d5791600191612e099361338f565b5050612e09906135c6565b5060055481146136fc565b92919083158015613749575b61373c57612e099361338f565b509050612e0991506135c6565b50600554841461372f565b5f1981146111295760010190565b92919260055481148015613a0c575b613a005760015b8381106139cf57505f905b801515806139c3575b806139b9575b156139ac57805f52601060205260405f209084600683015410156137c5575060056137bf91015491613754565b90613783565b5f81815260106020526040902080549597909691956001600160a01b031694909350915083156112c357801561129057845f52601160205260405f2061380c828254612cd1565b81556002810161381d838254612cd1565b90555492600b8701549260065f9801975b885481101561399f5761384081612ae9565b90549060031b1c95885f52600e60205260405f20875f5260205260405f20906003820160ff815460081c16801590818092613989575b156138c1575050805461ff00191661010017905561389c919087600a6110f6828c6131d4565b955f52600c60205260405f209081545f19810190811161112957600192555b0161382e565b809193959a925090613974575b156138ec57505060019160026138e692015490612cde565b956138bb565b92979287908261395c575b505061390657506001906138bb565b9198505060019198935093919301555b60015461392f90839085906001600160a01b031661440e565b604051918252602082015260028160809160405f51602061459a5f395f51905f52940152426060820152a4565b600a92509061396a916131d4565b048710865f6138f7565b50600a61398189836131d4565b0484116138ce565b50600a6139968b8d6131d4565b04841015613876565b5096509691509150613916565b50505050612e09906135c6565b50600f8210613792565b5060055481141561378c565b905f526010602052600560405f20015490811580156139f5575b6139ac57600101613778565b5060055482146139e9565b505050612e09906135c6565b508015613771565b93906101e05283158015613d9e575b8015613d96575b61373c57613a388183612ceb565b61022052613a52613a4c82610220516131d4565b83612cde565b936101c0525f925f6101a0526001915f5b601e8110613a98575b5050505090613a7a91612cde565b80613a89575b50806136e25750565b613a92906135c6565b5f613a80565b91956101c0979195939751158015613d88575b613d70576101c0515f52601060205260405f20978760068a015410155f14613d5057613ada81610220516131d4565b956101c0515f52601060205260405f206102605260018060a01b036102605154169788156112c3578715611290576101c0515f52601160205260405f20613b22898254612cd1565b815560038101613b338a8254612cd1565b90555461024052600b610260510154610200525f5b6006610260510154811015613d3f57613b6081612ae9565b90549060031b1c6101c0515f52600e60205260405f20815f5260205260405f206003810160ff815460081c16801590818092613d23575b15613bfe57505090613bd69161010061ff0019825416179055600a613bbf61020051856131d4565b049081600282015561020051905561024051612cde565b610240525f52600c60205260405f209081545f19810190811161112957600192555b01613b48565b80919394925090613d08575b15613c2e57505090613c256002600193015461024051612cde565b61024052613bf8565b81613ceb575b50613c425750600190613bf8565b905060016102409c98949a939992969c9b97959b519101555b600154613c7490829084906001600160a01b031661440e565b604051818152602081018790529260039284613cb8946040613cc29701524260608201526101e051915f51602061459a5f395f51905f5260806101c05193a4612cd1565b966101a051612cd1565b6101a0526001935b826101a0511015613ce557600501546101c052600101613a63565b50613a6c565b61020051600a9250613cfc916131d4565b0461024051105f613c34565b50600a613d1861020051836131d4565b046102405111613c0a565b50600a613d3361020051876131d4565b04610240511015613b97565b509399959197909698949298613c5b565b939591978285989492981015613cca5793613d6a90613754565b93613cca565b509550509150613d809250612cde565b806136e25750565b506005546101c05114613aab565b508015613a2a565b506005548414613a23565b90815f52604560205260ff600460405f2001541615613dc6575050565b613dd360405482146144a7565b805f526043602052613def60ff600860405f20015416156144e3565b815f52601060205260405f206012810154908115613f065760118101546283d600810180911161112957613e469211159060056014600a6006840154101592015410159082613efe575b5081613ef6575b5061451e565b815f52604560205260405f209160048301613e6560ff82541615614559565b60445493600160401b8510156131a85760018491613eab87837f42ee5ef523a95c6fb3ffdd2e9b34955b83ea8c2b11ff268c87ae6ea25556eaac99016044556044612b47565b81549060031b9087821b915f19901b19161790554281550155600160ff19825416179055613ef16040519283924291846040919493926060820195825260208201520152565b0390a1565b90505f613e40565b91505f613e39565b60405162461bcd60e51b8152602060048201526011602482015270055736572206e6f74206c6576656c20313607c1b6044820152606490fd5b90815f52604c60205260ff600460405f2001541615613f5c575050565b613f6960475482146144a7565b805f52604a602052613f8560ff600860405f20015416156144e3565b815f52601060205260405f2060138101549081156140405760118101546302514300810180911161112957613fdb9211159060026015600f6006840154101592015410159082613efe575081613ef6575061451e565b815f52604c60205260405f209160048301613ffa60ff82541615614559565b604b5493600160401b8510156131a85760018491613eab87837f42ee5ef523a95c6fb3ffdd2e9b34955b83ea8c2b11ff268c87ae6ea25556eaac9901604b55604b612b47565b60405162461bcd60e51b815260206004820152601160248201527055736572206e6f74206c6576656c20313560781b6044820152606490fd5b603a5462093a8081018091116111295742101561409257565b603954805f52603c60205260405f20600881019182549260ff8416613010575f828152603d60205260409020549283156141dc57603b54916140d48584612ceb565b683635c9adc5dea000008111156141d65750683635c9adc5dea00000915b6140fc86846131d4565b9384808211156141ce5761410f91612cde565b915b858255836003830155866002830155603b546001830155826007830155603a549162093a8083018093116111295760066001910198838a5560ff1916179055603a556001840192838511611129577fca8a78d1841a8dafbb8ff53c869b3fa9a69abd051022178024f84b680ffd2e3c96613ef19460395582603b556141968383612cd1565b9054936040519788978893909796959260c0959260e08601998652602086015260408501526060840152608083015260a08201520152565b50505f61410f565b916140f2565b90603b545f925f92614111565b60415462278d0081018091116111295742101561420257565b604054805f52604360205260405f20600881019182549260ff84166130105760445492831561430b57604254916142398584612ceb565b69021e19e0c9bab2400000811115614305575069021e19e0c9bab2400000915b61426386846131d4565b9384808211156142fd5761427691612cde565b915b85825583600383015586600283015560425460018301558260078301556041549162278d0083018093116111295760066001910198838a5560ff19161790556041556001840192838511611129577f1b674071adfa65db18518e4868ae7d5f54dd365c69e0babe9b704cbade8fe4bb96613ef194604055826042556141968383612cd1565b50505f614276565b91614259565b906042545f925f92614278565b60485462278d008101809111611129574210612e0957604754805f52604a60205260405f20600881019182549260ff841661301057604b5492831561440157604954916143658584612ceb565b9161437a61437387856131d4565b8095612cde565b915b85825583600383015586600283015560495460018301558260078301556048549162278d0083018093116111295760066001910198838a5560ff19161790556048556001840192838511611129577f3e2269a22c7571b51c53565ece51da09613519b306c6dde588beea1f5fd3cfd396613ef194604755826049556141968383612cd1565b906049545f925f9261437c565b60405163a9059cbb60e01b60208281019182526001600160a01b03909416602483015260448083019590955293815290925f9161444c606482613186565b519082855af11561449c575f513d61449357506001600160a01b0381163b155b6144735750565b635274afe760e01b5f9081526001600160a01b0391909116600452602490fd5b6001141561446c565b6040513d5f823e3d90fd5b156144ae57565b60405162461bcd60e51b815260206004820152600d60248201526c125b9d985b1a59081c9bdd5b99609a1b6044820152606490fd5b156144ea57565b60405162461bcd60e51b815260206004820152600c60248201526b149bdd5b990818db1bdcd95960a21b6044820152606490fd5b1561452557565b60405162461bcd60e51b815260206004820152600c60248201526b4e6f7420656c696769626c6560a01b6044820152606490fd5b1561456057565b60405162461bcd60e51b8152602060048201526011602482015270185b1c9958591e48145d585b1a599a5959607a1b6044820152606490fdfe4d634c31300b97dad99b3af799178230163d88ad306370d063be9cd992d0be7fa264697066735822122024437640d115b9ae5236fe54734b699a120e646f7f0497533ed1f50e4eee5c9e64736f6c634300081e0033d7b6990105719101dabeb77144f2a3385c8033acd3af97e9423a695e81ad1eb5c624b66cc0138b8fabc209247f72d758e1cf3343756d543badbf24212bed8c15d833147d7dc355ba459fc788f669e58cfaf9dc25ddcd0702e87d69c7b5124289",
			"opcodes": "PUSH1 0x80 PUSH1 0x40 MSTORE CALLVALUE PUSH2 0x98C JUMPI PUSH1 0x40 MLOAD PUSH1 0x1F PUSH2 0x50B5 CODESIZE DUP2 SWAP1 SUB SWAP2 DUP3 ADD PUSH1 0x1F NOT AND DUP4 ADD SWAP2 PUSH1 0x1 PUSH1 0x1 PUSH1 0x40 SHL SUB DUP4 GT DUP5 DUP5 LT OR PUSH2 0x978 JUMPI DUP1 DUP5 SWAP3 PUSH1 0x40 SWAP5 DUP6 MSTORE DUP4 CODECOPY DUP2 ADD SUB SLT PUSH2 0x98C JUMPI PUSH2 0x58 PUSH1 0x20 PUSH2 0x51 DUP4 PUSH2 0x9EE JUMP JUMPDEST SWAP3 ADD PUSH2 0x9EE JUMP JUMPDEST PUSH1 0x1 PUSH0 SSTORE PUSH1 0x40 MLOAD SWAP1 SWAP2 SWAP1 PUSH2 0x1E0 DUP2 ADD PUSH1 0x1 PUSH1 0x1 PUSH1 0x40 SHL SUB DUP2 GT DUP3 DUP3 LT OR PUSH2 0x978 JUMPI PUSH1 0x40 MSTORE PUSH8 0xD02AB486CEDC0000 DUP2 MSTORE PUSH9 0x15AF1D78B58C40000 PUSH1 0x20 DUP3 ADD MSTORE PUSH9 0x2B5E3AF16B1880000 PUSH1 0x40 DUP3 ADD MSTORE PUSH9 0x56BC75E2D63100000 PUSH1 0x60 DUP3 ADD MSTORE PUSH9 0xAD78EBC5AC6200000 PUSH1 0x80 DUP3 ADD MSTORE PUSH9 0x15AF1D78B58C400000 PUSH1 0xA0 DUP3 ADD MSTORE PUSH9 0x2B5E3AF16B18800000 PUSH1 0xC0 DUP3 ADD MSTORE PUSH9 0x56BC75E2D631000000 PUSH1 0xE0 DUP3 ADD MSTORE PUSH9 0xAD78EBC5AC62000000 PUSH2 0x100 DUP3 ADD MSTORE PUSH10 0x15AF1D78B58C4000000 PUSH2 0x120 DUP3 ADD MSTORE PUSH10 0x2B5E3AF16B188000000 PUSH2 0x140 DUP3 ADD MSTORE PUSH10 0x56BC75E2D6310000000 PUSH2 0x160 DUP3 ADD MSTORE PUSH10 0xAD78EBC5AC620000000 PUSH2 0x180 DUP3 ADD MSTORE PUSH10 0x15AF1D78B58C40000000 PUSH2 0x1A0 DUP3 ADD MSTORE PUSH10 0x2B5E3AF16B1880000000 PUSH2 0x1C0 DUP3 ADD MSTORE PUSH1 0xD SLOAD PUSH1 0xF PUSH1 0xD SSTORE DUP1 PUSH1 0xF LT PUSH2 0x935 JUMPI JUMPDEST POP PUSH1 0xD PUSH0 MSTORE PUSH1 0x20 PUSH0 KECCAK256 SWAP1 PUSH0 JUMPDEST PUSH1 0xF DUP2 LT PUSH2 0x918 JUMPI POP POP POP PUSH2 0x196 PUSH2 0x990 JUMP JUMPDEST PUSH9 0x410D586A20A4C0000 DUP2 MSTORE PUSH9 0x1043561A8829300000 PUSH1 0x20 DUP3 ADD MSTORE PUSH9 0x410D586A20A4C00000 PUSH1 0x40 DUP3 ADD MSTORE PUSH10 0x1043561A88293000000 PUSH1 0x60 DUP3 ADD MSTORE PUSH10 0x410D586A20A4C000000 PUSH1 0x80 DUP3 ADD MSTORE PUSH10 0x1043561A882930000000 PUSH1 0xA0 DUP3 ADD MSTORE PUSH10 0x410D586A20A4C0000000 PUSH1 0xC0 DUP3 ADD MSTORE PUSH1 0x16 SLOAD PUSH1 0x7 PUSH1 0x16 SSTORE DUP1 PUSH1 0x7 LT PUSH2 0x8D5 JUMPI JUMPDEST POP PUSH1 0x16 PUSH0 MSTORE PUSH1 0x20 PUSH0 KECCAK256 SWAP1 PUSH0 JUMPDEST PUSH1 0x7 DUP2 LT PUSH2 0x8B8 JUMPI POP POP POP PUSH2 0x230 PUSH2 0x9AF JUMP JUMPDEST PUSH9 0x56BC75E2D63100000 DUP2 MSTORE PUSH9 0xAD78EBC5AC6200000 PUSH1 0x20 DUP3 ADD MSTORE PUSH9 0x15AF1D78B58C400000 PUSH1 0x40 DUP3 ADD MSTORE PUSH9 0x2B5E3AF16B18800000 PUSH1 0x60 DUP3 ADD MSTORE PUSH9 0x56BC75E2D631000000 PUSH1 0x80 DUP3 ADD MSTORE PUSH9 0xAD78EBC5AC62000000 PUSH1 0xA0 DUP3 ADD MSTORE PUSH10 0x15AF1D78B58C4000000 PUSH1 0xC0 DUP3 ADD MSTORE PUSH10 0x2B5E3AF16B188000000 PUSH1 0xE0 DUP3 ADD MSTORE PUSH1 0x17 SLOAD PUSH1 0x8 PUSH1 0x17 SSTORE DUP1 PUSH1 0x8 LT PUSH2 0x875 JUMPI JUMPDEST POP PUSH1 0x17 PUSH0 MSTORE PUSH1 0x20 PUSH0 KECCAK256 SWAP1 PUSH0 JUMPDEST PUSH1 0x8 DUP2 LT PUSH2 0x858 JUMPI POP POP POP PUSH2 0x2D7 PUSH2 0x990 JUMP JUMPDEST PUSH1 0x3 DUP2 MSTORE PUSH1 0x5 PUSH1 0x20 DUP3 ADD MSTORE PUSH1 0x7 PUSH1 0x40 DUP3 ADD MSTORE PUSH1 0x9 PUSH1 0x60 DUP3 ADD MSTORE PUSH1 0xB PUSH1 0x80 DUP3 ADD MSTORE PUSH1 0xD PUSH1 0xA0 DUP3 ADD MSTORE PUSH1 0xF PUSH1 0xC0 DUP3 ADD MSTORE PUSH0 JUMPDEST PUSH1 0x7 DUP2 LT PUSH2 0x840 JUMPI POP POP PUSH2 0x319 PUSH2 0x9AF JUMP JUMPDEST PUSH1 0x4 DUP2 MSTORE PUSH1 0x5 PUSH1 0x20 DUP3 ADD MSTORE PUSH1 0x6 PUSH1 0x40 DUP3 ADD MSTORE PUSH1 0x7 PUSH1 0x60 DUP3 ADD MSTORE PUSH1 0x8 PUSH1 0x80 DUP3 ADD MSTORE PUSH1 0x9 PUSH1 0xA0 DUP3 ADD MSTORE PUSH1 0xA PUSH1 0xC0 DUP3 ADD MSTORE PUSH1 0xB PUSH1 0xE0 DUP3 ADD MSTORE PUSH0 JUMPDEST PUSH1 0x8 DUP2 LT PUSH2 0x828 JUMPI POP POP PUSH2 0x362 PUSH2 0x9AF JUMP JUMPDEST PUSH0 DUP2 MSTORE PUSH1 0x1 PUSH1 0x20 DUP3 ADD MSTORE PUSH1 0x1 PUSH1 0x40 DUP3 ADD MSTORE PUSH1 0x1 PUSH1 0x60 DUP3 ADD MSTORE PUSH1 0x1 PUSH1 0x80 DUP3 ADD MSTORE PUSH1 0x1 PUSH1 0xA0 DUP3 ADD MSTORE PUSH1 0x1 PUSH1 0xC0 DUP3 ADD MSTORE PUSH1 0x1 PUSH1 0xE0 DUP3 ADD MSTORE PUSH0 JUMPDEST PUSH1 0x8 DUP2 LT PUSH2 0x810 JUMPI POP POP PUSH0 PUSH1 0x39 DUP2 SWAP1 SSTORE PUSH1 0x3A DUP2 SWAP1 SSTORE PUSH1 0x3B DUP2 SWAP1 SSTORE PUSH1 0x1 PUSH1 0x40 DUP2 SWAP1 SSTORE PUSH1 0x41 DUP3 SWAP1 SSTORE PUSH1 0x42 DUP3 SWAP1 SSTORE PUSH1 0x47 DUP2 SWAP1 SSTORE PUSH1 0x48 DUP3 SWAP1 SSTORE PUSH1 0x49 DUP3 SWAP1 SSTORE DUP1 SLOAD PUSH1 0x1 PUSH1 0x1 PUSH1 0xA0 SHL SUB NOT SWAP1 DUP2 AND PUSH1 0x1 PUSH1 0x1 PUSH1 0xA0 SHL SUB SWAP5 DUP6 AND OR DUP3 SSTORE PUSH1 0x2 DUP1 SLOAD DUP3 AND SWAP6 SWAP1 SWAP5 AND SWAP5 DUP6 OR DUP5 SSTORE PUSH2 0x3E8 PUSH1 0x5 DUP2 SWAP1 SSTORE PUSH1 0x6 SWAP3 SWAP1 SWAP3 SSTORE DUP2 DUP4 MSTORE PUSH1 0x10 PUSH1 0x20 MSTORE PUSH32 0x92673BC4B5FF73490AF990EA8B2927E66EC918198708735B1DD7FCFF379D9D85 DUP1 SLOAD SWAP1 SWAP2 AND DUP6 OR DUP2 SSTORE PUSH32 0x92673BC4B5FF73490AF990EA8B2927E66EC918198708735B1DD7FCFF379D9D88 SWAP2 SWAP1 SWAP2 SSTORE PUSH1 0xF PUSH32 0x92673BC4B5FF73490AF990EA8B2927E66EC918198708735B1DD7FCFF379D9D8B SSTORE TIMESTAMP PUSH32 0x92673BC4B5FF73490AF990EA8B2927E66EC918198708735B1DD7FCFF379D9D96 SSTORE PUSH1 0x7 PUSH32 0x92673BC4B5FF73490AF990EA8B2927E66EC918198708735B1DD7FCFF379D9D91 SSTORE PUSH1 0x8 PUSH32 0x92673BC4B5FF73490AF990EA8B2927E66EC918198708735B1DD7FCFF379D9D94 SSTORE PUSH32 0x92673BC4B5FF73490AF990EA8B2927E66EC918198708735B1DD7FCFF379D9D8D SWAP3 SWAP1 SWAP3 SSTORE PUSH1 0x14 PUSH32 0x92673BC4B5FF73490AF990EA8B2927E66EC918198708735B1DD7FCFF379D9D90 SSTORE PUSH1 0xD SLOAD SWAP2 SWAP3 SWAP2 DUP2 SWAP1 JUMPDEST PUSH1 0xF DUP3 LT PUSH2 0x7DC JUMPI POP POP PUSH1 0xA DUP4 ADD SSTORE PUSH1 0x5 SLOAD PUSH0 SWAP2 DUP3 MSTORE PUSH1 0xF PUSH1 0x20 MSTORE PUSH1 0x40 DUP3 KECCAK256 SSTORE SWAP1 DUP2 JUMPDEST PUSH1 0x16 SLOAD DUP4 LT ISZERO PUSH2 0x658 JUMPI PUSH1 0x16 SLOAD DUP4 LT ISZERO PUSH2 0x644 JUMPI PUSH1 0x16 PUSH0 MSTORE PUSH0 MLOAD PUSH1 0x20 PUSH2 0x5095 PUSH0 CODECOPY PUSH0 MLOAD SWAP1 PUSH0 MSTORE DUP4 ADD SLOAD PUSH1 0x1 SWAP2 PUSH2 0x59C SWAP2 SWAP1 PUSH2 0xA02 JUMP JUMPDEST SWAP3 PUSH2 0x603 PUSH1 0x5 SLOAD PUSH2 0x5AB PUSH2 0x9CF JUMP JUMPDEST DUP2 DUP2 MSTORE PUSH1 0x20 DUP1 DUP3 ADD DUP4 DUP2 MSTORE PUSH1 0x40 DUP1 DUP5 ADD DUP8 DUP2 MSTORE PUSH0 PUSH1 0x60 DUP7 ADD DUP2 DUP2 MSTORE PUSH1 0x80 DUP8 ADD DUP3 DUP2 MSTORE DUP11 DUP4 MSTORE PUSH1 0x30 DUP8 MSTORE DUP5 DUP4 KECCAK256 SWAP9 DUP4 MSTORE SWAP8 SWAP1 SWAP6 MSTORE SWAP2 SWAP1 SWAP2 KECCAK256 SWAP4 MLOAD DUP5 SSTORE SWAP1 MLOAD PUSH1 0x1 DUP5 ADD SSTORE MLOAD PUSH1 0x2 DUP4 ADD SSTORE MLOAD PUSH1 0x3 DUP3 ADD SSTORE SWAP1 MLOAD PUSH1 0x4 SWAP1 SWAP2 ADD SSTORE JUMP JUMPDEST DUP1 PUSH0 MSTORE PUSH1 0x33 PUSH1 0x20 MSTORE PUSH2 0x61B PUSH1 0x40 PUSH0 KECCAK256 PUSH1 0x5 SLOAD SWAP1 PUSH2 0xA23 JUMP JUMPDEST DUP1 PUSH0 MSTORE PUSH1 0x32 PUSH1 0x20 MSTORE PUSH2 0x63D PUSH1 0x40 PUSH0 KECCAK256 PUSH1 0x5 SLOAD SWAP1 DUP2 PUSH0 MSTORE PUSH1 0x20 MSTORE PUSH1 0x40 PUSH0 KECCAK256 PUSH2 0xA23 JUMP JUMPDEST ADD SWAP2 PUSH2 0x566 JUMP JUMPDEST PUSH4 0x4E487B71 PUSH1 0xE0 SHL PUSH0 MSTORE PUSH1 0x32 PUSH1 0x4 MSTORE PUSH1 0x24 PUSH0 REVERT JUMPDEST PUSH1 0xD DUP3 ADD SSTORE PUSH0 SWAP1 PUSH0 JUMPDEST PUSH1 0x8 DUP2 LT PUSH2 0x72B JUMPI POP PUSH1 0x10 ADD SSTORE TIMESTAMP PUSH1 0x3A SSTORE TIMESTAMP PUSH1 0x41 SSTORE TIMESTAMP PUSH1 0x48 SSTORE PUSH0 PUSH1 0x3B SSTORE PUSH1 0x1 PUSH1 0x39 SSTORE PUSH0 PUSH1 0x42 SSTORE PUSH1 0x1 PUSH1 0x40 SSTORE PUSH0 PUSH1 0x49 SSTORE PUSH1 0x1 PUSH1 0x47 SSTORE PUSH1 0x1 PUSH0 MSTORE PUSH1 0x3E PUSH1 0x20 MSTORE PUSH1 0x3 PUSH1 0x40 PUSH0 KECCAK256 PUSH1 0x5 SLOAD SWAP1 DUP2 PUSH0 MSTORE PUSH1 0x20 MSTORE PUSH2 0x6C8 PUSH1 0x40 PUSH0 KECCAK256 SWAP2 PUSH1 0x1 PUSH0 MSTORE PUSH1 0x3D PUSH1 0x20 MSTORE PUSH1 0x40 PUSH0 KECCAK256 PUSH2 0xA23 JUMP JUMPDEST TIMESTAMP DUP2 SSTORE PUSH1 0x39 SLOAD PUSH1 0x1 DUP3 ADD SSTORE ADD PUSH2 0x100 PUSH2 0xFF00 NOT DUP3 SLOAD AND OR SWAP1 SSTORE PUSH32 0x360CB96D3E85B4FC299DDFA9A572850FC70961C86F0F1703F033143B0E5A82CF PUSH1 0x60 PUSH1 0x39 SLOAD PUSH1 0x5 SLOAD PUSH1 0x40 MLOAD SWAP2 DUP3 MSTORE PUSH1 0x20 DUP3 ADD MSTORE TIMESTAMP PUSH1 0x40 DUP3 ADD MSTORE LOG1 PUSH1 0x40 MLOAD PUSH2 0x45EF SWAP1 DUP2 PUSH2 0xA66 DUP3 CODECOPY RETURN JUMPDEST SWAP2 PUSH1 0x17 SLOAD DUP4 LT ISZERO PUSH2 0x644 JUMPI PUSH1 0x17 PUSH0 MSTORE PUSH0 MLOAD PUSH1 0x20 PUSH2 0x5075 PUSH0 CODECOPY PUSH0 MLOAD SWAP1 PUSH0 MSTORE DUP4 ADD SLOAD PUSH1 0x1 SWAP2 PUSH2 0x758 SWAP2 SWAP1 PUSH2 0xA02 JUMP JUMPDEST SWAP3 PUSH2 0x7BE PUSH1 0x5 SLOAD PUSH2 0x767 PUSH2 0x9CF JUMP JUMPDEST DUP2 DUP2 MSTORE PUSH1 0x20 DUP1 DUP3 ADD DUP6 DUP2 MSTORE PUSH0 PUSH1 0x40 DUP1 DUP6 ADD DUP3 DUP2 MSTORE PUSH1 0x60 DUP7 ADD DUP4 DUP2 MSTORE TIMESTAMP PUSH1 0x80 DUP9 ADD SWAP1 DUP2 MSTORE DUP11 DUP6 MSTORE PUSH1 0x35 DUP8 MSTORE DUP4 DUP6 KECCAK256 SWAP9 DUP6 MSTORE SWAP8 SWAP1 SWAP6 MSTORE SWAP2 KECCAK256 SWAP4 MLOAD DUP5 SSTORE SWAP1 MLOAD PUSH1 0x1 DUP5 ADD SSTORE MLOAD PUSH1 0x2 DUP4 ADD SSTORE MLOAD PUSH1 0x3 DUP3 ADD SSTORE SWAP1 MLOAD PUSH1 0x4 SWAP1 SWAP2 ADD SSTORE JUMP JUMPDEST DUP1 PUSH0 MSTORE PUSH1 0x37 PUSH1 0x20 MSTORE PUSH2 0x7D6 PUSH1 0x40 PUSH0 KECCAK256 PUSH1 0x5 SLOAD SWAP1 PUSH2 0xA23 JUMP JUMPDEST ADD PUSH2 0x661 JUMP JUMPDEST SWAP1 SWAP2 DUP2 DUP4 LT ISZERO PUSH2 0x644 JUMPI PUSH1 0xD PUSH0 MSTORE PUSH0 MLOAD PUSH1 0x20 PUSH2 0x5055 PUSH0 CODECOPY PUSH0 MLOAD SWAP1 PUSH0 MSTORE DUP4 ADD SLOAD PUSH1 0x1 SWAP2 PUSH2 0x808 SWAP2 SWAP1 PUSH2 0xA02 JUMP JUMPDEST SWAP3 ADD SWAP1 PUSH2 0x543 JUMP JUMPDEST PUSH1 0x1 SWAP1 PUSH1 0x20 PUSH1 0xFF DUP5 MLOAD AND SWAP4 ADD SWAP3 DUP2 PUSH1 0x27 ADD SSTORE ADD PUSH2 0x398 JUMP JUMPDEST PUSH1 0x1 SWAP1 PUSH1 0x20 PUSH1 0xFF DUP5 MLOAD AND SWAP4 ADD SWAP3 DUP2 PUSH1 0x1F ADD SSTORE ADD PUSH2 0x350 JUMP JUMPDEST PUSH1 0x1 SWAP1 PUSH1 0x20 PUSH1 0xFF DUP5 MLOAD AND SWAP4 ADD SWAP3 DUP2 PUSH1 0x18 ADD SSTORE ADD PUSH2 0x307 JUMP JUMPDEST DUP2 MLOAD PUSH1 0x1 PUSH1 0x1 PUSH1 0x50 SHL SUB AND DUP2 DUP5 ADD SSTORE PUSH1 0x20 SWAP1 SWAP2 ADD SWAP1 PUSH1 0x1 ADD PUSH2 0x2C4 JUMP JUMPDEST PUSH1 0x17 PUSH0 MSTORE PUSH2 0x8B2 SWAP1 PUSH0 MLOAD PUSH1 0x20 PUSH2 0x5075 PUSH0 CODECOPY PUSH0 MLOAD SWAP1 PUSH0 MSTORE ADD PUSH32 0xC624B66CC0138B8FABC209247F72D758E1CF3343756D543BADBF24212BED8C1D PUSH2 0xA4F JUMP JUMPDEST PUSH0 PUSH2 0x2B8 JUMP JUMPDEST DUP2 MLOAD PUSH1 0x1 PUSH1 0x1 PUSH1 0x50 SHL SUB AND DUP2 DUP5 ADD SSTORE PUSH1 0x20 SWAP1 SWAP2 ADD SWAP1 PUSH1 0x1 ADD PUSH2 0x21D JUMP JUMPDEST PUSH1 0x16 PUSH0 MSTORE PUSH2 0x912 SWAP1 PUSH0 MLOAD PUSH1 0x20 PUSH2 0x5095 PUSH0 CODECOPY PUSH0 MLOAD SWAP1 PUSH0 MSTORE ADD PUSH32 0xD833147D7DC355BA459FC788F669E58CFAF9DC25DDCD0702E87D69C7B5124290 PUSH2 0xA4F JUMP JUMPDEST PUSH0 PUSH2 0x211 JUMP JUMPDEST DUP2 MLOAD PUSH1 0x1 PUSH1 0x1 PUSH1 0x50 SHL SUB AND DUP2 DUP5 ADD SSTORE PUSH1 0x20 SWAP1 SWAP2 ADD SWAP1 PUSH1 0x1 ADD PUSH2 0x183 JUMP JUMPDEST PUSH1 0xD PUSH0 MSTORE PUSH2 0x972 SWAP1 PUSH0 MLOAD PUSH1 0x20 PUSH2 0x5055 PUSH0 CODECOPY PUSH0 MLOAD SWAP1 PUSH0 MSTORE ADD PUSH32 0xD7B6990105719101DABEB77144F2A3385C8033ACD3AF97E9423A695E81AD1EC4 PUSH2 0xA4F JUMP JUMPDEST PUSH0 PUSH2 0x177 JUMP JUMPDEST PUSH4 0x4E487B71 PUSH1 0xE0 SHL PUSH0 MSTORE PUSH1 0x41 PUSH1 0x4 MSTORE PUSH1 0x24 PUSH0 REVERT JUMPDEST PUSH0 DUP1 REVERT JUMPDEST PUSH1 0x40 MLOAD SWAP1 PUSH1 0xE0 DUP3 ADD PUSH1 0x1 PUSH1 0x1 PUSH1 0x40 SHL SUB DUP2 GT DUP4 DUP3 LT OR PUSH2 0x978 JUMPI PUSH1 0x40 MSTORE JUMP JUMPDEST PUSH1 0x40 MLOAD SWAP1 PUSH2 0x100 DUP3 ADD PUSH1 0x1 PUSH1 0x1 PUSH1 0x40 SHL SUB DUP2 GT DUP4 DUP3 LT OR PUSH2 0x978 JUMPI PUSH1 0x40 MSTORE JUMP JUMPDEST PUSH1 0x40 MLOAD SWAP1 PUSH1 0xA0 DUP3 ADD PUSH1 0x1 PUSH1 0x1 PUSH1 0x40 SHL SUB DUP2 GT DUP4 DUP3 LT OR PUSH2 0x978 JUMPI PUSH1 0x40 MSTORE JUMP JUMPDEST MLOAD SWAP1 PUSH1 0x1 PUSH1 0x1 PUSH1 0xA0 SHL SUB DUP3 AND DUP3 SUB PUSH2 0x98C JUMPI JUMP JUMPDEST SWAP2 SWAP1 DUP3 ADD DUP1 SWAP3 GT PUSH2 0xA0F JUMPI JUMP JUMPDEST PUSH4 0x4E487B71 PUSH1 0xE0 SHL PUSH0 MSTORE PUSH1 0x11 PUSH1 0x4 MSTORE PUSH1 0x24 PUSH0 REVERT JUMPDEST DUP1 SLOAD SWAP1 PUSH9 0x10000000000000000 DUP3 LT ISZERO PUSH2 0x978 JUMPI PUSH1 0x1 DUP3 ADD DUP1 DUP3 SSTORE DUP3 LT ISZERO PUSH2 0x644 JUMPI PUSH0 MSTORE PUSH1 0x20 PUSH0 KECCAK256 ADD SSTORE JUMP JUMPDEST DUP2 DUP2 LT PUSH2 0xA5A JUMPI POP POP JUMP JUMPDEST PUSH0 DUP2 SSTORE PUSH1 0x1 ADD PUSH2 0xA4F JUMP INVALID PUSH2 0x280 DUP1 PUSH1 0x40 MSTORE PUSH1 0x4 CALLDATASIZE LT ISZERO PUSH2 0x13 JUMPI PUSH0 DUP1 REVERT JUMPDEST PUSH0 SWAP1 PUSH0 CALLDATALOAD PUSH1 0xE0 SHR SWAP1 DUP2 PUSH3 0x54815D EQ PUSH2 0x2A24 JUMPI POP DUP1 PUSH4 0x1C234A8 EQ PUSH2 0x2A08 JUMPI DUP1 PUSH4 0x56B4D1F EQ PUSH2 0x29A8 JUMPI DUP1 PUSH4 0x676D0D6 EQ PUSH2 0x297E JUMPI DUP1 PUSH4 0xA5C5D69 EQ PUSH2 0x294F JUMPI DUP1 PUSH4 0xEF81B74 EQ PUSH2 0x2916 JUMPI DUP1 PUSH4 0xF2B7CC9 EQ PUSH2 0x28E7 JUMPI DUP1 PUSH4 0x16298056 EQ PUSH2 0x2552 JUMPI DUP1 PUSH4 0x1C4ECF68 EQ PUSH2 0x2537 JUMPI DUP1 PUSH4 0x2132D204 EQ PUSH2 0x2509 JUMPI DUP1 PUSH4 0x2350268F EQ PUSH2 0x24C6 JUMPI DUP1 PUSH4 0x23FD338E EQ PUSH2 0x175F JUMPI DUP1 PUSH4 0x2A891534 EQ PUSH2 0x24A8 JUMPI DUP1 PUSH4 0x2AE0EE0D EQ PUSH2 0x2208 JUMPI DUP1 PUSH4 0x2D66014F EQ PUSH2 0x2465 JUMPI DUP1 PUSH4 0x2F48AB7D EQ PUSH2 0x243C JUMPI DUP1 PUSH4 0x3080B5BC EQ PUSH2 0x241E JUMPI DUP1 PUSH4 0x31BB6A30 EQ PUSH2 0x2402 JUMPI DUP1 PUSH4 0x32BC298C EQ PUSH2 0x23E4 JUMPI DUP1 PUSH4 0x32FCD966 EQ PUSH2 0x23C1 JUMPI DUP1 PUSH4 0x365B98B2 EQ PUSH2 0x220D JUMPI DUP1 PUSH4 0x375B43B4 EQ PUSH2 0x2208 JUMPI DUP1 PUSH4 0x39AB3603 EQ PUSH2 0x21C5 JUMPI DUP1 PUSH4 0x39F2E64A EQ PUSH2 0x1E5E JUMPI DUP1 PUSH4 0x3A5084B3 EQ PUSH2 0x1E40 JUMPI DUP1 PUSH4 0x4036436C EQ PUSH2 0x1DE0 JUMPI DUP1 PUSH4 0x45977D03 EQ PUSH2 0x18E6 JUMPI DUP1 PUSH4 0x45CB537C EQ PUSH2 0x18BC JUMPI DUP1 PUSH4 0x46B9DECE EQ PUSH2 0x1816 JUMPI DUP1 PUSH4 0x4B8CBF9B EQ PUSH2 0x17F8 JUMPI DUP1 PUSH4 0x4D12AE0F EQ PUSH2 0x17C6 JUMPI DUP1 PUSH4 0x4D4CC5CA EQ PUSH2 0x178A JUMPI DUP1 PUSH4 0x54C5BD90 EQ PUSH2 0x1764 JUMPI DUP1 PUSH4 0x58C7D352 EQ PUSH2 0x175F JUMPI DUP1 PUSH4 0x5AABF7F1 EQ PUSH2 0x1723 JUMPI DUP1 PUSH4 0x5B58CE6C EQ PUSH2 0x16AF JUMPI DUP1 PUSH4 0x5B62D1D5 EQ PUSH2 0x1691 JUMPI DUP1 PUSH4 0x5EC64A44 EQ PUSH2 0x165F JUMPI DUP1 PUSH4 0x6A424782 EQ PUSH2 0x15FE JUMPI DUP1 PUSH4 0x705FEE2D EQ PUSH2 0x15DF JUMPI DUP1 PUSH4 0x70C8D770 EQ PUSH2 0x1565 JUMPI DUP1 PUSH4 0x76F5F700 EQ PUSH2 0x1547 JUMPI DUP1 PUSH4 0x78F6AD6D EQ PUSH2 0x1529 JUMPI DUP1 PUSH4 0x7CDC65F2 EQ PUSH2 0x1500 JUMPI DUP1 PUSH4 0x7D846E38 EQ PUSH2 0x14DC JUMPI DUP1 PUSH4 0x88AFBE3E EQ PUSH2 0x14B2 JUMPI DUP1 PUSH4 0x89043ECE EQ PUSH2 0x1485 JUMPI DUP1 PUSH4 0x8D58644C EQ PUSH2 0x1449 JUMPI DUP1 PUSH4 0x8F030ECE EQ PUSH2 0x140D JUMPI DUP1 PUSH4 0x907C84A7 EQ PUSH2 0x13A2 JUMPI DUP1 PUSH4 0x956A3228 EQ PUSH2 0x1374 JUMPI DUP1 PUSH4 0x97358004 EQ PUSH2 0xF0C JUMPI DUP1 PUSH4 0x9B40AB97 EQ PUSH2 0xEEE JUMPI DUP1 PUSH4 0x9C383486 EQ PUSH2 0xEBC JUMPI DUP1 PUSH4 0xA59D17D1 EQ PUSH2 0xE9E JUMPI DUP1 PUSH4 0xA5E52B99 EQ PUSH2 0xE80 JUMPI DUP1 PUSH4 0xAE4708DC EQ PUSH2 0xE3D JUMPI DUP1 PUSH4 0xBD1AAE40 EQ PUSH2 0xE0B JUMPI DUP1 PUSH4 0xBF724672 EQ PUSH2 0xDD3 JUMPI DUP1 PUSH4 0xBFF1F9E1 EQ PUSH2 0xDB5 JUMPI DUP1 PUSH4 0xC216212A EQ PUSH2 0xD8A JUMPI DUP1 PUSH4 0xC4EB42A5 EQ PUSH2 0xD29 JUMPI DUP1 PUSH4 0xC7BB62E8 EQ PUSH2 0xCF7 JUMPI DUP1 PUSH4 0xC8DF2908 EQ PUSH2 0xCD2 JUMPI DUP1 PUSH4 0xC9ED0708 EQ PUSH2 0xCB4 JUMPI DUP1 PUSH4 0xCA8E9121 EQ PUSH2 0xC96 JUMPI DUP1 PUSH4 0xCB0E0D7D EQ PUSH2 0xC59 JUMPI DUP1 PUSH4 0xCE79C2C3 EQ PUSH2 0xBEE JUMPI DUP1 PUSH4 0xD0A2FD79 EQ PUSH2 0xBBC JUMPI DUP1 PUSH4 0xD2F0490D EQ PUSH2 0xBA0 JUMPI DUP1 PUSH4 0xDB27CC71 EQ PUSH2 0xB3C JUMPI DUP1 PUSH4 0xE898FC38 EQ PUSH2 0xB1E JUMPI DUP1 PUSH4 0xE9E34A16 EQ PUSH2 0xAF5 JUMPI DUP1 PUSH4 0xEBE0FF15 EQ PUSH2 0xAD1 JUMPI DUP1 PUSH4 0xEC597E6F EQ PUSH2 0xAB3 JUMPI DUP1 PUSH4 0xF207564E EQ PUSH2 0x46F JUMPI DUP1 PUSH4 0xF5748C4F EQ PUSH2 0x418 JUMPI DUP1 PUSH4 0xF5D74D93 EQ PUSH2 0x3EF JUMPI DUP1 PUSH4 0xF7A24806 EQ PUSH2 0x3AE JUMPI PUSH4 0xFDDC806F EQ PUSH2 0x38E JUMPI PUSH0 DUP1 REVERT JUMPDEST CALLVALUE PUSH2 0x3AB JUMPI DUP1 PUSH1 0x3 NOT CALLDATASIZE ADD SLT PUSH2 0x3AB JUMPI PUSH1 0x20 PUSH1 0x3A SLOAD PUSH1 0x40 MLOAD SWAP1 DUP2 MSTORE RETURN JUMPDEST DUP1 REVERT JUMPDEST POP CALLVALUE PUSH2 0x3AB JUMPI PUSH2 0x3BD CALLDATASIZE PUSH2 0x2A93 JUMP JUMPDEST SWAP2 SWAP1 DUP2 MSTORE PUSH1 0x46 PUSH1 0x20 MSTORE PUSH1 0x40 DUP2 KECCAK256 SWAP1 DUP2 SLOAD DUP4 LT ISZERO PUSH2 0x3AB JUMPI PUSH1 0x20 PUSH2 0x3E0 DUP5 DUP5 PUSH2 0x2B47 JUMP JUMPDEST SWAP1 SLOAD SWAP1 PUSH1 0x3 SHL SHR PUSH1 0x40 MLOAD SWAP1 DUP2 MSTORE RETURN JUMPDEST POP CALLVALUE PUSH2 0x3AB JUMPI DUP1 PUSH1 0x3 NOT CALLDATASIZE ADD SLT PUSH2 0x3AB JUMPI PUSH1 0x4 SLOAD PUSH1 0x40 MLOAD PUSH1 0x1 PUSH1 0x1 PUSH1 0xA0 SHL SUB SWAP1 SWAP2 AND DUP2 MSTORE PUSH1 0x20 SWAP1 RETURN JUMPDEST POP CALLVALUE PUSH2 0x3AB JUMPI PUSH1 0x20 CALLDATASIZE PUSH1 0x3 NOT ADD SLT PUSH2 0x3AB JUMPI PUSH1 0x4 CALLDATALOAD SWAP1 PUSH1 0x4B SLOAD DUP3 LT ISZERO PUSH2 0x3AB JUMPI PUSH1 0x4B SLOAD DUP3 LT ISZERO PUSH2 0x45B JUMPI PUSH1 0x20 SWAP2 PUSH1 0x4B DUP3 MSTORE DUP3 DUP3 KECCAK256 ADD SLOAD SWAP1 PUSH1 0x3 SHL SHR PUSH1 0x40 MLOAD SWAP1 DUP2 MSTORE RETURN JUMPDEST PUSH4 0x4E487B71 PUSH1 0xE0 SHL DUP2 MSTORE PUSH1 0x32 PUSH1 0x4 MSTORE PUSH1 0x24 SWAP1 REVERT JUMPDEST POP CALLVALUE PUSH2 0x3AB JUMPI PUSH1 0x20 CALLDATASIZE PUSH1 0x3 NOT ADD SLT PUSH2 0x3AB JUMPI PUSH1 0x4 CALLDATALOAD CALLER DUP3 MSTORE PUSH1 0xF PUSH1 0x20 MSTORE PUSH1 0x40 DUP3 KECCAK256 SLOAD PUSH2 0xA79 JUMPI DUP1 DUP3 MSTORE PUSH1 0x10 PUSH1 0x20 MSTORE PUSH1 0x3 PUSH1 0x40 DUP4 KECCAK256 ADD SLOAD ISZERO PUSH2 0xA42 JUMPI PUSH1 0x1 SLOAD DUP3 SWAP1 PUSH1 0x20 SWAP1 PUSH2 0x4FD SWAP1 PUSH1 0x1 PUSH1 0x1 PUSH1 0xA0 SHL SUB AND PUSH2 0x4C7 PUSH2 0x2B15 JUMP JUMPDEST SWAP1 SLOAD PUSH1 0x40 MLOAD PUSH4 0x23B872DD PUSH1 0xE0 SHL DUP2 MSTORE CALLER PUSH1 0x4 DUP3 ADD MSTORE ADDRESS PUSH1 0x24 DUP3 ADD MSTORE PUSH1 0x3 SWAP3 SWAP1 SWAP3 SHL SHR PUSH1 0x44 DUP3 ADD MSTORE SWAP4 DUP5 SWAP3 DUP4 SWAP2 SWAP1 DUP3 SWAP1 PUSH1 0x64 DUP3 ADD SWAP1 JUMP JUMPDEST SUB SWAP3 GAS CALL DUP1 ISZERO PUSH2 0xA37 JUMPI PUSH2 0xA0A JUMPI JUMPDEST POP PUSH1 0x5 SLOAD SWAP1 PUSH2 0x51E PUSH1 0x6 SLOAD DUP1 SWAP4 PUSH2 0x2CD1 JUMP JUMPDEST SWAP2 PUSH1 0x1 DUP2 ADD DUP1 SWAP2 GT PUSH2 0x9F6 JUMPI PUSH1 0x6 SSTORE CALLER DUP4 MSTORE PUSH1 0xF PUSH1 0x20 MSTORE DUP2 PUSH1 0x40 DUP5 KECCAK256 SSTORE PUSH2 0x543 PUSH2 0x2B15 JUMP JUMPDEST SWAP1 SLOAD SWAP1 PUSH1 0x3 SHL SHR SWAP1 DUP3 DUP5 MSTORE PUSH1 0x10 PUSH1 0x20 MSTORE PUSH1 0x40 DUP5 KECCAK256 SWAP2 CALLER PUSH12 0xFFFFFFFFFFFFFFFFFFFFFFFF PUSH1 0xA0 SHL DUP5 SLOAD AND OR DUP4 SSTORE TIMESTAMP PUSH1 0x2 DUP5 ADD SSTORE DUP4 PUSH1 0x3 DUP5 ADD SSTORE PUSH1 0x4 DUP4 ADD DUP3 DUP2 SSTORE PUSH1 0x1 PUSH1 0x6 DUP6 ADD SSTORE DUP2 PUSH1 0xA DUP6 ADD SSTORE TIMESTAMP PUSH1 0x11 DUP6 ADD SSTORE PUSH1 0xF PUSH1 0xB DUP6 ADD SSTORE DUP3 DUP7 MSTORE PUSH1 0x10 PUSH1 0x20 MSTORE PUSH1 0x7 PUSH1 0x40 DUP8 KECCAK256 ADD DUP1 SLOAD SWAP1 PUSH1 0x1 DUP3 ADD DUP1 SWAP3 GT PUSH2 0x83C JUMPI SSTORE DUP3 DUP7 MSTORE PUSH1 0x15 PUSH1 0x20 MSTORE PUSH2 0x5CF DUP6 PUSH1 0x40 DUP9 KECCAK256 PUSH2 0x3307 JUMP JUMPDEST DUP5 DUP7 MSTORE PUSH1 0xE PUSH1 0x20 MSTORE PUSH1 0x40 DUP7 KECCAK256 DUP3 DUP8 MSTORE PUSH1 0x20 MSTORE PUSH1 0x3 PUSH1 0x40 DUP8 KECCAK256 ADD PUSH1 0x1 PUSH1 0xFF NOT DUP3 SLOAD AND OR SWAP1 SSTORE DUP2 DUP7 MSTORE PUSH1 0xC PUSH1 0x20 MSTORE PUSH1 0x40 DUP7 KECCAK256 DUP1 SLOAD SWAP1 PUSH1 0x1 DUP3 ADD DUP1 SWAP3 GT PUSH2 0x83C JUMPI SSTORE DUP2 DUP7 MSTORE PUSH1 0xA PUSH1 0x20 MSTORE PUSH1 0x40 DUP7 KECCAK256 SLOAD DUP3 DUP8 MSTORE PUSH1 0xB PUSH1 0x20 MSTORE PUSH1 0x40 DUP8 KECCAK256 DUP7 DUP9 MSTORE PUSH1 0x20 MSTORE PUSH1 0x40 DUP8 KECCAK256 SSTORE DUP6 DUP7 SWAP1 DUP5 DUP9 MSTORE PUSH1 0x14 PUSH1 0x20 MSTORE PUSH1 0x2 PUSH1 0x40 DUP10 KECCAK256 SLOAD LT PUSH0 EQ PUSH2 0x8B1 JUMPI POP POP DUP5 DUP7 MSTORE PUSH1 0x10 PUSH1 0x20 MSTORE DUP3 PUSH1 0x5 PUSH1 0x40 DUP9 KECCAK256 ADD SSTORE DUP3 DUP7 MSTORE PUSH1 0x14 PUSH1 0x20 MSTORE PUSH1 0x40 DUP7 KECCAK256 DUP1 SLOAD SWAP1 PUSH1 0x1 DUP3 ADD DUP1 SWAP3 GT PUSH2 0x83C JUMPI SSTORE DUP3 JUMPDEST DUP7 SWAP1 JUMPDEST PUSH1 0xF DUP3 LT PUSH2 0x850 JUMPI JUMPDEST POP POP PUSH1 0x5 DUP3 MUL DUP3 ISZERO SWAP1 DUP4 DUP2 DIV PUSH1 0x5 EQ DUP3 OR ISZERO PUSH2 0x83C JUMPI PUSH1 0x64 SWAP1 DIV PUSH1 0x3C DUP5 MUL SWAP2 DUP5 DUP4 DIV PUSH1 0x3C EQ DUP2 OR ISZERO PUSH2 0x814 JUMPI PUSH2 0x6BB PUSH2 0x4079 JUMP JUMPDEST PUSH2 0x6C3 PUSH2 0x41E9 JUMP JUMPDEST PUSH2 0x6CB PUSH2 0x4318 JUMP JUMPDEST PUSH2 0x6D7 DUP3 PUSH1 0x3B SLOAD PUSH2 0x2CD1 JUMP JUMPDEST PUSH1 0x3B SSTORE PUSH1 0x23 DUP6 MUL DUP6 DUP2 DIV PUSH1 0x23 EQ DUP3 OR ISZERO PUSH2 0x828 JUMPI PUSH2 0x3E8 PUSH2 0x6FB SWAP2 DIV PUSH1 0x42 SLOAD PUSH2 0x2CD1 JUMP JUMPDEST PUSH1 0x42 SSTORE PUSH1 0xF DUP6 MUL DUP6 DUP2 DIV PUSH1 0xF EQ DUP3 OR ISZERO PUSH2 0x828 JUMPI PUSH2 0x3E8 PUSH2 0x71F SWAP2 DIV PUSH1 0x49 SLOAD PUSH2 0x2CD1 JUMP JUMPDEST PUSH1 0x49 SSTORE PUSH1 0x19 DUP6 MUL SWAP1 DUP6 DUP3 DIV PUSH1 0x19 EQ OR ISZERO PUSH2 0x814 JUMPI PUSH1 0x64 PUSH2 0x75A SWAP4 PUSH2 0x752 DUP8 SWAP7 SWAP5 PUSH2 0x74D DUP13 SWAP10 DUP6 DUP12 SWAP8 DIV PUSH2 0x3682 JUMP JUMPDEST PUSH2 0x35C6 JUMP JUMPDEST DIV SWAP2 SLOAD PUSH2 0x36F3 JUMP JUMPDEST PUSH1 0x40 MLOAD SWAP1 PUSH1 0x1 DUP3 MSTORE PUSH1 0x20 DUP3 ADD MSTORE PUSH1 0x80 PUSH1 0x40 DUP3 ADD MSTORE PUSH32 0x26ADB22CEC823EF144935E9FBEF1B6B4A3A29DACBE5444D59292FA2620F3D377 PUSH2 0x7BF PUSH1 0x80 DUP4 ADD PUSH1 0x40 SWAP1 PUSH1 0x15 DUP2 MSTORE PUSH21 0x53706F6E736F727368697020537472756374757265 PUSH1 0x58 SHL PUSH1 0x20 DUP3 ADD MSTORE ADD SWAP1 JUMP JUMPDEST SWAP2 TIMESTAMP PUSH1 0x60 DUP3 ADD MSTORE DUP1 CALLER SWAP4 SUB SWAP1 LOG3 DUP4 MSTORE PUSH1 0x10 PUSH1 0x20 MSTORE PUSH1 0x5 PUSH1 0x1 DUP1 PUSH1 0xA0 SHL SUB PUSH1 0x40 DUP6 KECCAK256 SLOAD AND SWAP2 ADD SLOAD PUSH1 0x40 MLOAD SWAP1 DUP2 MSTORE PUSH32 0x309BB360E8B69C23937CCC5FB01F9AEEEAD1C95A99604E175113FF82F2B1723A PUSH1 0x20 CALLER SWAP3 LOG4 DUP1 RETURN JUMPDEST PUSH4 0x4E487B71 PUSH1 0xE0 SHL DUP10 MSTORE PUSH1 0x11 PUSH1 0x4 MSTORE PUSH1 0x24 DUP10 REVERT JUMPDEST PUSH4 0x4E487B71 PUSH1 0xE0 SHL DUP11 MSTORE PUSH1 0x11 PUSH1 0x4 MSTORE PUSH1 0x24 DUP11 REVERT JUMPDEST PUSH4 0x4E487B71 PUSH1 0xE0 SHL DUP9 MSTORE PUSH1 0x11 PUSH1 0x4 MSTORE PUSH1 0x24 DUP9 REVERT JUMPDEST DUP1 ISZERO PUSH2 0x8AC JUMPI DUP1 DUP9 MSTORE PUSH1 0x10 PUSH1 0x20 MSTORE PUSH1 0x9 PUSH1 0x40 DUP10 KECCAK256 ADD DUP1 SLOAD SWAP1 PUSH1 0x1 DUP3 ADD DUP1 SWAP3 GT PUSH2 0x828 JUMPI SSTORE DUP1 DUP9 MSTORE PUSH1 0x13 PUSH1 0x20 MSTORE PUSH1 0x40 DUP9 KECCAK256 DUP3 DUP10 MSTORE PUSH1 0x20 MSTORE PUSH2 0x893 DUP8 PUSH1 0x40 DUP11 KECCAK256 PUSH2 0x3307 JUMP JUMPDEST DUP8 MSTORE PUSH1 0x10 PUSH1 0x20 MSTORE PUSH1 0x1 PUSH1 0x5 PUSH1 0x40 DUP10 KECCAK256 ADD SLOAD SWAP2 ADD SWAP1 PUSH2 0x67E JUMP JUMPDEST PUSH2 0x687 JUMP JUMPDEST DUP8 JUMPDEST PUSH1 0xF DUP2 LT PUSH2 0x8C3 JUMPI JUMPDEST POP POP PUSH2 0x67B JUMP JUMPDEST DUP2 PUSH2 0x9F1 JUMPI DUP6 DUP10 MSTORE PUSH1 0x13 PUSH1 0x20 MSTORE PUSH1 0x40 DUP10 KECCAK256 PUSH1 0x1 DUP3 ADD DUP1 DUP4 GT PUSH2 0x9BA JUMPI DUP11 MSTORE PUSH1 0x20 MSTORE PUSH1 0x40 DUP10 KECCAK256 SLOAD PUSH1 0x2 DUP3 ADD DUP1 DUP4 GT PUSH2 0x9BA JUMPI PUSH1 0xFF DUP2 GT PUSH2 0x9BA JUMPI PUSH1 0x1 SWAP1 SHL GT PUSH2 0x90E JUMPI JUMPDEST PUSH1 0x1 ADD PUSH2 0x8B3 JUMP JUMPDEST SWAP5 SWAP4 SWAP1 SWAP7 SWAP6 SWAP2 SWAP3 DUP9 JUMPDEST DUP6 DUP11 MSTORE PUSH1 0x13 PUSH1 0x20 MSTORE PUSH1 0x40 DUP11 KECCAK256 DUP8 DUP12 MSTORE PUSH1 0x20 MSTORE PUSH1 0x40 DUP11 KECCAK256 SLOAD DUP2 LT ISZERO PUSH2 0x9E1 JUMPI DUP9 PUSH2 0x9CE JUMPI DUP6 DUP11 MSTORE PUSH1 0x13 PUSH1 0x20 MSTORE PUSH1 0x40 DUP11 KECCAK256 DUP8 DUP12 MSTORE PUSH1 0x20 MSTORE PUSH2 0x959 DUP2 PUSH1 0x40 DUP13 KECCAK256 PUSH2 0x2B47 JUMP JUMPDEST SWAP1 SLOAD SWAP1 PUSH1 0x3 SHL SHR DUP1 DUP12 MSTORE PUSH1 0x14 PUSH1 0x20 MSTORE PUSH1 0x2 PUSH1 0x40 DUP13 KECCAK256 SLOAD LT PUSH2 0x97E JUMPI JUMPDEST POP PUSH1 0x1 ADD PUSH2 0x917 JUMP JUMPDEST SWAP2 SWAP5 POP SWAP8 POP DUP7 DUP10 MSTORE PUSH1 0x10 PUSH1 0x20 MSTORE DUP1 PUSH1 0x5 PUSH1 0x40 DUP12 KECCAK256 ADD SSTORE DUP1 DUP10 MSTORE PUSH1 0x14 PUSH1 0x20 MSTORE PUSH1 0x40 DUP10 KECCAK256 DUP1 SLOAD SWAP1 PUSH1 0x1 DUP3 ADD DUP1 SWAP3 GT PUSH2 0x9BA JUMPI SSTORE SWAP3 PUSH1 0x1 DUP1 SWAP9 SWAP1 PUSH2 0x975 JUMP JUMPDEST PUSH4 0x4E487B71 PUSH1 0xE0 SHL DUP12 MSTORE PUSH1 0x11 PUSH1 0x4 MSTORE PUSH1 0x24 DUP12 REVERT JUMPDEST POP SWAP3 SWAP2 SWAP6 SWAP7 SWAP1 SWAP4 SWAP5 PUSH1 0x1 SWAP1 JUMPDEST SWAP1 POP PUSH2 0x906 JUMP JUMPDEST POP SWAP3 SWAP2 SWAP6 SWAP7 SWAP1 SWAP4 SWAP5 PUSH1 0x1 SWAP1 PUSH2 0x9DA JUMP JUMPDEST PUSH2 0x8BC JUMP JUMPDEST PUSH4 0x4E487B71 PUSH1 0xE0 SHL DUP5 MSTORE PUSH1 0x11 PUSH1 0x4 MSTORE PUSH1 0x24 DUP5 REVERT JUMPDEST PUSH2 0xA2B SWAP1 PUSH1 0x20 RETURNDATASIZE PUSH1 0x20 GT PUSH2 0xA30 JUMPI JUMPDEST PUSH2 0xA23 DUP2 DUP4 PUSH2 0x3186 JUMP JUMPDEST DUP2 ADD SWAP1 PUSH2 0x31BC JUMP JUMPDEST PUSH2 0x50C JUMP JUMPDEST POP RETURNDATASIZE PUSH2 0xA19 JUMP JUMPDEST PUSH1 0x40 MLOAD RETURNDATASIZE DUP6 DUP3 RETURNDATACOPY RETURNDATASIZE SWAP1 REVERT JUMPDEST PUSH1 0x40 MLOAD PUSH3 0x461BCD PUSH1 0xE5 SHL DUP2 MSTORE PUSH1 0x20 PUSH1 0x4 DUP3 ADD MSTORE PUSH1 0xF PUSH1 0x24 DUP3 ADD MSTORE PUSH15 0x24B73B30B634B21039B837B739B7B9 PUSH1 0x89 SHL PUSH1 0x44 DUP3 ADD MSTORE PUSH1 0x64 SWAP1 REVERT JUMPDEST PUSH1 0x40 MLOAD PUSH3 0x461BCD PUSH1 0xE5 SHL DUP2 MSTORE PUSH1 0x20 PUSH1 0x4 DUP3 ADD MSTORE PUSH1 0x12 PUSH1 0x24 DUP3 ADD MSTORE PUSH18 0x105B1C9958591E481C9959DA5CDD195C9959 PUSH1 0x72 SHL PUSH1 0x44 DUP3 ADD MSTORE PUSH1 0x64 SWAP1 REVERT JUMPDEST POP CALLVALUE PUSH2 0x3AB JUMPI DUP1 PUSH1 0x3 NOT CALLDATASIZE ADD SLT PUSH2 0x3AB JUMPI PUSH1 0x20 PUSH1 0x5 SLOAD PUSH1 0x40 MLOAD SWAP1 DUP2 MSTORE RETURN JUMPDEST POP CALLVALUE PUSH2 0x3AB JUMPI DUP1 PUSH1 0x3 NOT CALLDATASIZE ADD SLT PUSH2 0x3AB JUMPI PUSH1 0x20 PUSH1 0x40 MLOAD PUSH9 0x3635C9ADC5DEA00000 DUP2 MSTORE RETURN JUMPDEST POP CALLVALUE PUSH2 0x3AB JUMPI DUP1 PUSH1 0x3 NOT CALLDATASIZE ADD SLT PUSH2 0x3AB JUMPI PUSH1 0x3 SLOAD PUSH1 0x40 MLOAD PUSH1 0x1 PUSH1 0x1 PUSH1 0xA0 SHL SUB SWAP1 SWAP2 AND DUP2 MSTORE PUSH1 0x20 SWAP1 RETURN JUMPDEST POP CALLVALUE PUSH2 0x3AB JUMPI DUP1 PUSH1 0x3 NOT CALLDATASIZE ADD SLT PUSH2 0x3AB JUMPI PUSH1 0x20 PUSH1 0x41 SLOAD PUSH1 0x40 MLOAD SWAP1 DUP2 MSTORE RETURN JUMPDEST POP CALLVALUE PUSH2 0x3AB JUMPI PUSH1 0x20 CALLDATASIZE PUSH1 0x3 NOT ADD SLT PUSH2 0x3AB JUMPI PUSH1 0x40 SWAP1 PUSH1 0x4 CALLDATALOAD DUP2 MSTORE PUSH1 0x4C PUSH1 0x20 MSTORE KECCAK256 DUP1 SLOAD PUSH2 0xB9C PUSH1 0x1 DUP4 ADD SLOAD SWAP3 PUSH1 0xFF PUSH1 0x4 PUSH1 0x2 DUP4 ADD SLOAD SWAP3 ADD SLOAD AND SWAP1 PUSH1 0x40 MLOAD SWAP5 DUP6 SWAP5 DUP6 SWAP3 PUSH1 0x60 SWAP3 SWAP6 SWAP5 SWAP2 SWAP6 PUSH1 0x80 DUP6 ADD SWAP7 DUP6 MSTORE PUSH1 0x20 DUP6 ADD MSTORE PUSH1 0x40 DUP5 ADD MSTORE ISZERO ISZERO SWAP2 ADD MSTORE JUMP JUMPDEST SUB SWAP1 RETURN JUMPDEST POP CALLVALUE PUSH2 0x3AB JUMPI DUP1 PUSH1 0x3 NOT CALLDATASIZE ADD SLT PUSH2 0x3AB JUMPI PUSH1 0x20 PUSH1 0x40 MLOAD PUSH1 0x5 DUP2 MSTORE RETURN JUMPDEST POP CALLVALUE PUSH2 0x3AB JUMPI PUSH1 0x20 CALLDATASIZE PUSH1 0x3 NOT ADD SLT PUSH2 0x3AB JUMPI PUSH1 0x4 CALLDATALOAD PUSH1 0x8 DUP2 LT ISZERO PUSH2 0xBEA JUMPI PUSH1 0x20 SWAP2 POP PUSH1 0x1F ADD SLOAD PUSH1 0x40 MLOAD SWAP1 DUP2 MSTORE RETURN JUMPDEST POP DUP1 REVERT JUMPDEST POP CALLVALUE PUSH2 0x3AB JUMPI PUSH1 0x40 SWAP1 PUSH2 0xC00 CALLDATASIZE PUSH2 0x2A93 JUMP JUMPDEST SWAP1 DUP3 MSTORE PUSH1 0x30 PUSH1 0x20 MSTORE DUP3 DUP3 KECCAK256 SWAP1 DUP3 MSTORE PUSH1 0x20 MSTORE KECCAK256 DUP1 SLOAD PUSH2 0xB9C PUSH1 0x1 DUP4 ADD SLOAD SWAP3 PUSH1 0x2 DUP2 ADD SLOAD SWAP1 PUSH1 0x4 PUSH1 0x3 DUP3 ADD SLOAD SWAP2 ADD SLOAD SWAP2 PUSH1 0x40 MLOAD SWAP6 DUP7 SWAP6 DUP7 SWAP2 SWAP3 PUSH1 0x80 SWAP4 SWAP7 SWAP6 SWAP5 SWAP2 SWAP7 PUSH1 0xA0 DUP5 ADD SWAP8 DUP5 MSTORE PUSH1 0x20 DUP5 ADD MSTORE PUSH1 0x40 DUP4 ADD MSTORE PUSH1 0x60 DUP3 ADD MSTORE ADD MSTORE JUMP JUMPDEST POP CALLVALUE PUSH2 0x3AB JUMPI PUSH1 0x20 CALLDATASIZE PUSH1 0x3 NOT ADD SLT PUSH2 0x3AB JUMPI PUSH1 0x4 CALLDATALOAD PUSH1 0x1 PUSH1 0x1 PUSH1 0xA0 SHL SUB DUP2 AND SWAP1 DUP2 SWAP1 SUB PUSH2 0xBEA JUMPI DUP2 PUSH1 0x40 SWAP2 PUSH1 0x20 SWAP4 MSTORE PUSH1 0xF DUP4 MSTORE KECCAK256 SLOAD PUSH1 0x40 MLOAD SWAP1 DUP2 MSTORE RETURN JUMPDEST POP CALLVALUE PUSH2 0x3AB JUMPI DUP1 PUSH1 0x3 NOT CALLDATASIZE ADD SLT PUSH2 0x3AB JUMPI PUSH1 0x20 PUSH1 0x39 SLOAD PUSH1 0x40 MLOAD SWAP1 DUP2 MSTORE RETURN JUMPDEST POP CALLVALUE PUSH2 0x3AB JUMPI DUP1 PUSH1 0x3 NOT CALLDATASIZE ADD SLT PUSH2 0x3AB JUMPI PUSH1 0x20 PUSH1 0x40 SLOAD PUSH1 0x40 MLOAD SWAP1 DUP2 MSTORE RETURN JUMPDEST POP CALLVALUE PUSH2 0x3AB JUMPI DUP1 PUSH1 0x3 NOT CALLDATASIZE ADD SLT PUSH2 0x3AB JUMPI PUSH1 0x20 PUSH1 0x40 MLOAD PUSH10 0x21E19E0C9BAB2400000 DUP2 MSTORE RETURN JUMPDEST POP CALLVALUE PUSH2 0x3AB JUMPI PUSH2 0xD06 CALLDATASIZE PUSH2 0x2A93 JUMP JUMPDEST SWAP2 SWAP1 DUP2 MSTORE PUSH1 0x37 PUSH1 0x20 MSTORE PUSH1 0x40 DUP2 KECCAK256 SWAP1 DUP2 SLOAD DUP4 LT ISZERO PUSH2 0x3AB JUMPI PUSH1 0x20 PUSH2 0x3E0 DUP5 DUP5 PUSH2 0x2B47 JUMP JUMPDEST POP CALLVALUE PUSH2 0x3AB JUMPI PUSH1 0x20 CALLDATASIZE PUSH1 0x3 NOT ADD SLT PUSH2 0x3AB JUMPI PUSH1 0x40 SWAP1 PUSH1 0x4 CALLDATALOAD DUP2 MSTORE PUSH1 0x3C PUSH1 0x20 MSTORE KECCAK256 DUP1 SLOAD PUSH2 0xB9C PUSH1 0x1 DUP4 ADD SLOAD SWAP3 PUSH1 0x2 DUP2 ADD SLOAD SWAP1 PUSH1 0x3 DUP2 ADD SLOAD PUSH1 0x4 DUP3 ADD SLOAD PUSH1 0x5 DUP4 ADD SLOAD SWAP1 PUSH1 0x6 DUP5 ADD SLOAD SWAP3 PUSH1 0xFF PUSH1 0x8 PUSH1 0x7 DUP8 ADD SLOAD SWAP7 ADD SLOAD AND SWAP6 PUSH1 0x40 MLOAD SWAP10 DUP11 SWAP10 DUP11 PUSH2 0x2AA9 JUMP JUMPDEST POP CALLVALUE PUSH2 0x3AB JUMPI PUSH1 0x20 CALLDATASIZE PUSH1 0x3 NOT ADD SLT PUSH2 0x3AB JUMPI PUSH1 0x4 CALLDATALOAD SWAP1 PUSH1 0xD SLOAD DUP3 LT ISZERO PUSH2 0x3AB JUMPI PUSH1 0x20 PUSH2 0x3E0 DUP4 PUSH2 0x2AE9 JUMP JUMPDEST POP CALLVALUE PUSH2 0x3AB JUMPI DUP1 PUSH1 0x3 NOT CALLDATASIZE ADD SLT PUSH2 0x3AB JUMPI PUSH1 0x20 PUSH1 0x6 SLOAD PUSH1 0x40 MLOAD SWAP1 DUP2 MSTORE RETURN JUMPDEST POP CALLVALUE PUSH2 0x3AB JUMPI PUSH1 0x40 DUP1 SWAP2 PUSH2 0xDE6 CALLDATASIZE PUSH2 0x2A93 JUMP JUMPDEST SWAP1 DUP3 MSTORE PUSH1 0x2F PUSH1 0x20 MSTORE DUP3 DUP3 KECCAK256 SWAP1 DUP3 MSTORE PUSH1 0x20 MSTORE KECCAK256 PUSH1 0x1 DUP2 SLOAD SWAP2 ADD SLOAD DUP3 MLOAD SWAP2 DUP3 MSTORE PUSH1 0x20 DUP3 ADD MSTORE RETURN JUMPDEST POP CALLVALUE PUSH2 0x3AB JUMPI PUSH1 0xFF PUSH1 0x40 PUSH1 0x20 SWAP3 PUSH2 0xE21 CALLDATASIZE PUSH2 0x2A93 JUMP JUMPDEST SWAP1 DUP3 MSTORE PUSH1 0x34 DUP6 MSTORE DUP3 DUP3 KECCAK256 SWAP1 DUP3 MSTORE DUP5 MSTORE KECCAK256 SLOAD AND PUSH1 0x40 MLOAD SWAP1 ISZERO ISZERO DUP2 MSTORE RETURN JUMPDEST POP CALLVALUE PUSH2 0x3AB JUMPI PUSH1 0x20 CALLDATASIZE PUSH1 0x3 NOT ADD SLT PUSH2 0x3AB JUMPI PUSH1 0x4 CALLDATALOAD SWAP1 PUSH1 0x16 SLOAD DUP3 LT ISZERO PUSH2 0x3AB JUMPI PUSH1 0x16 SLOAD DUP3 LT ISZERO PUSH2 0x45B JUMPI PUSH1 0x20 SWAP2 PUSH1 0x16 DUP3 MSTORE DUP3 DUP3 KECCAK256 ADD SLOAD SWAP1 PUSH1 0x3 SHL SHR PUSH1 0x40 MLOAD SWAP1 DUP2 MSTORE RETURN JUMPDEST POP CALLVALUE PUSH2 0x3AB JUMPI DUP1 PUSH1 0x3 NOT CALLDATASIZE ADD SLT PUSH2 0x3AB JUMPI PUSH1 0x20 PUSH1 0x40 MLOAD PUSH3 0x83D600 DUP2 MSTORE RETURN JUMPDEST POP CALLVALUE PUSH2 0x3AB JUMPI DUP1 PUSH1 0x3 NOT CALLDATASIZE ADD SLT PUSH2 0x3AB JUMPI PUSH1 0x20 PUSH1 0x42 SLOAD PUSH1 0x40 MLOAD SWAP1 DUP2 MSTORE RETURN JUMPDEST POP CALLVALUE PUSH2 0x3AB JUMPI PUSH1 0xFF PUSH1 0x40 PUSH1 0x20 SWAP3 PUSH2 0xED2 CALLDATASIZE PUSH2 0x2A93 JUMP JUMPDEST SWAP1 DUP3 MSTORE PUSH1 0x38 DUP6 MSTORE DUP3 DUP3 KECCAK256 SWAP1 DUP3 MSTORE DUP5 MSTORE KECCAK256 SLOAD AND PUSH1 0x40 MLOAD SWAP1 ISZERO ISZERO DUP2 MSTORE RETURN JUMPDEST POP CALLVALUE PUSH2 0x3AB JUMPI DUP1 PUSH1 0x3 NOT CALLDATASIZE ADD SLT PUSH2 0x3AB JUMPI PUSH1 0x20 PUSH1 0x48 SLOAD PUSH1 0x40 MLOAD SWAP1 DUP2 MSTORE RETURN JUMPDEST POP CALLVALUE PUSH2 0x3AB JUMPI PUSH2 0xF1B CALLDATASIZE PUSH2 0x2A93 JUMP JUMPDEST PUSH2 0xF26 SWAP3 SWAP2 SWAP3 PUSH2 0x333B JUMP JUMPDEST PUSH2 0xF2E PUSH2 0x4079 JUMP JUMPDEST PUSH2 0xF36 PUSH2 0x41E9 JUMP JUMPDEST PUSH2 0xF3E PUSH2 0x4318 JUMP JUMPDEST DUP3 DUP3 MSTORE PUSH1 0x10 PUSH1 0x20 MSTORE PUSH1 0x40 DUP3 KECCAK256 SLOAD PUSH1 0x1 PUSH1 0x1 PUSH1 0xA0 SHL SUB AND PUSH2 0xF5F CALLER DUP3 EQ PUSH2 0x2BAC JUMP JUMPDEST ISZERO PUSH2 0x133D JUMPI DUP3 ISZERO ISZERO DUP1 PUSH2 0x1334 JUMPI JUMPDEST DUP1 PUSH2 0x1316 JUMPI JUMPDEST DUP1 PUSH2 0x130B JUMPI JUMPDEST PUSH2 0xF82 SWAP1 PUSH2 0x2BEB JUMP JUMPDEST DUP3 DUP3 MSTORE PUSH1 0x4C PUSH1 0x20 MSTORE PUSH1 0x40 DUP3 KECCAK256 SWAP1 DUP1 DUP4 MSTORE PUSH1 0x4A PUSH1 0x20 MSTORE PUSH1 0x40 DUP4 KECCAK256 SWAP1 PUSH2 0xFB1 PUSH1 0x1 PUSH1 0xFF PUSH1 0x4 DUP7 ADD SLOAD AND ISZERO ISZERO EQ PUSH2 0x30B9 JUMP JUMPDEST PUSH1 0x3 DUP4 ADD DUP2 DUP6 MSTORE DUP1 PUSH1 0x20 MSTORE PUSH2 0xFCD PUSH1 0xFF PUSH1 0x40 DUP8 KECCAK256 SLOAD AND ISZERO PUSH2 0x30F6 JUMP JUMPDEST PUSH1 0x3 DUP4 ADD SLOAD SWAP3 DUP4 ISZERO SWAP5 PUSH2 0xFE0 DUP7 ISZERO PUSH2 0x2C50 JUMP JUMPDEST PUSH2 0x1005 DUP5 PUSH1 0x1 PUSH1 0x4 DUP6 ADD SWAP4 PUSH2 0xFFC PUSH1 0x2 DUP7 SLOAD SWAP8 ADD SLOAD DUP8 LT PUSH2 0x2C91 JUMP JUMPDEST ADD SLOAD GT ISZERO PUSH2 0x3142 JUMP JUMPDEST PUSH1 0x1 DUP3 ADD DUP1 SWAP3 GT PUSH2 0x12F7 JUMPI SSTORE DUP2 DUP6 MSTORE PUSH1 0x20 MSTORE PUSH1 0x40 DUP5 KECCAK256 PUSH1 0x1 PUSH1 0xFF NOT DUP3 SLOAD AND OR SWAP1 SSTORE DUP5 DUP5 MSTORE PUSH1 0x10 PUSH1 0x20 MSTORE PUSH1 0x40 DUP5 KECCAK256 SWAP4 PUSH1 0x1 DUP1 PUSH1 0xA0 SHL SUB DUP6 SLOAD AND SWAP4 DUP5 ISZERO PUSH2 0x12C3 JUMPI PUSH2 0x1290 JUMPI DUP6 DUP2 MSTORE PUSH1 0x11 PUSH1 0x20 MSTORE PUSH1 0x40 DUP2 KECCAK256 SWAP1 DUP1 PUSH2 0x1061 DUP6 DUP5 SLOAD PUSH2 0x2CD1 JUMP JUMPDEST DUP4 SSTORE PUSH2 0x127C JUMPI POP PUSH1 0xB DUP2 ADD PUSH2 0x1077 DUP5 DUP3 SLOAD PUSH2 0x2CD1 JUMP JUMPDEST SWAP1 SSTORE SLOAD SWAP1 PUSH1 0xB DUP6 ADD SLOAD SWAP1 PUSH1 0x6 PUSH0 SWAP7 ADD SWAP6 JUMPDEST DUP7 SLOAD DUP2 LT ISZERO PUSH2 0x126E JUMPI PUSH2 0x109A DUP2 PUSH2 0x2AE9 JUMP JUMPDEST SWAP1 SLOAD SWAP1 PUSH1 0x3 SHL SHR SWAP4 DUP9 PUSH0 MSTORE PUSH1 0xE PUSH1 0x20 MSTORE PUSH1 0x40 PUSH0 KECCAK256 DUP6 PUSH0 MSTORE PUSH1 0x20 MSTORE PUSH1 0x40 PUSH0 KECCAK256 SWAP1 PUSH1 0x3 DUP3 ADD PUSH1 0xFF DUP2 SLOAD PUSH1 0x8 SHR AND DUP1 ISZERO SWAP1 DUP2 DUP1 SWAP3 PUSH2 0x1258 JUMPI JUMPDEST ISZERO PUSH2 0x113D JUMPI POP POP DUP1 SLOAD PUSH2 0xFF00 NOT AND PUSH2 0x100 OR SWAP1 SSTORE PUSH2 0x1104 SWAP2 SWAP1 DUP6 PUSH1 0xA PUSH2 0x10F6 DUP3 DUP11 PUSH2 0x31D4 JUMP JUMPDEST DIV SWAP3 DUP4 PUSH1 0x2 DUP3 ADD SSTORE SSTORE PUSH2 0x2CDE JUMP JUMPDEST SWAP4 PUSH0 MSTORE PUSH1 0xC PUSH1 0x20 MSTORE PUSH1 0x40 PUSH0 KECCAK256 SWAP1 DUP2 SLOAD PUSH0 NOT DUP2 ADD SWAP1 DUP2 GT PUSH2 0x1129 JUMPI PUSH1 0x1 SWAP3 SSTORE JUMPDEST ADD PUSH2 0x1088 JUMP JUMPDEST PUSH4 0x4E487B71 PUSH1 0xE0 SHL PUSH0 MSTORE PUSH1 0x11 PUSH1 0x4 MSTORE PUSH1 0x24 PUSH0 REVERT JUMPDEST DUP1 SWAP2 SWAP4 SWAP6 SWAP9 SWAP3 POP SWAP1 PUSH2 0x1243 JUMPI JUMPDEST ISZERO PUSH2 0x1168 JUMPI POP POP PUSH1 0x1 SWAP2 PUSH1 0x2 PUSH2 0x1162 SWAP3 ADD SLOAD SWAP1 PUSH2 0x2CDE JUMP JUMPDEST SWAP4 PUSH2 0x1123 JUMP JUMPDEST SWAP3 SWAP6 SWAP3 DUP6 SWAP1 DUP3 PUSH2 0x122B JUMPI JUMPDEST POP POP PUSH2 0x1182 JUMPI POP PUSH1 0x1 SWAP1 PUSH2 0x1123 JUMP JUMPDEST SWAP2 SWAP5 SWAP7 POP POP PUSH1 0x1 SWAP2 POP SWAP6 SWAP4 SWAP6 ADD SSTORE JUMPDEST PUSH1 0x1 SLOAD PUSH2 0x11AA SWAP1 DUP5 SWAP1 DUP7 SWAP1 PUSH1 0x1 PUSH1 0x1 PUSH1 0xA0 SHL SUB AND PUSH2 0x440E JUMP JUMPDEST PUSH1 0x40 MLOAD DUP4 DUP2 MSTORE PUSH0 PUSH1 0x20 DUP3 ADD MSTORE SWAP1 DUP3 DUP1 PUSH32 0x6AC5DC27FBF1276A5DB7FAAD992EA92A268D34B18F81922F747D9D3BEB5F9C55 SWAP7 PUSH0 MLOAD PUSH1 0x20 PUSH2 0x459A PUSH0 CODECOPY PUSH0 MLOAD SWAP1 PUSH0 MSTORE PUSH1 0x80 DUP7 PUSH1 0x9 PUSH1 0x40 PUSH2 0x1222 SWAP10 ADD MSTORE TIMESTAMP PUSH1 0x60 DUP3 ADD MSTORE LOG4 PUSH1 0x40 MLOAD SWAP4 DUP5 SWAP4 TIMESTAMP SWAP3 DUP6 SWAP1 SWAP5 SWAP4 SWAP3 PUSH1 0x60 SWAP3 PUSH1 0x80 DUP4 ADD SWAP7 DUP4 MSTORE PUSH1 0x20 DUP4 ADD MSTORE PUSH1 0x40 DUP3 ADD MSTORE ADD MSTORE JUMP JUMPDEST SUB SWAP1 LOG1 PUSH1 0x1 PUSH0 SSTORE STOP JUMPDEST PUSH1 0xA SWAP3 POP SWAP1 PUSH2 0x1239 SWAP2 PUSH2 0x31D4 JUMP JUMPDEST DIV DUP6 LT DUP5 PUSH0 PUSH2 0x1173 JUMP JUMPDEST POP PUSH1 0xA PUSH2 0x1250 DUP8 DUP4 PUSH2 0x31D4 JUMP JUMPDEST DIV DUP5 GT PUSH2 0x114A JUMP JUMPDEST POP PUSH1 0xA PUSH2 0x1265 DUP10 DUP12 PUSH2 0x31D4 JUMP JUMPDEST DIV DUP5 LT ISZERO PUSH2 0x10D0 JUMP JUMPDEST POP SWAP3 SWAP5 POP POP POP SWAP3 SWAP1 SWAP3 PUSH2 0x1191 JUMP JUMPDEST PUSH4 0x4E487B71 PUSH1 0xE0 SHL DUP2 MSTORE PUSH1 0x21 PUSH1 0x4 MSTORE PUSH1 0x24 SWAP1 REVERT JUMPDEST PUSH1 0x40 MLOAD PUSH3 0x461BCD PUSH1 0xE5 SHL DUP2 MSTORE PUSH1 0x20 PUSH1 0x4 DUP3 ADD MSTORE PUSH1 0xB PUSH1 0x24 DUP3 ADD MSTORE PUSH11 0x16995C9BC8185B5BDD5B9D PUSH1 0xAA SHL PUSH1 0x44 DUP3 ADD MSTORE PUSH1 0x64 SWAP1 REVERT JUMPDEST PUSH1 0x40 MLOAD PUSH3 0x461BCD PUSH1 0xE5 SHL DUP2 MSTORE PUSH1 0x20 PUSH1 0x4 DUP3 ADD MSTORE PUSH1 0xC PUSH1 0x24 DUP3 ADD MSTORE PUSH12 0x24B73B30B634B2103AB9B2B9 PUSH1 0xA1 SHL PUSH1 0x44 DUP3 ADD MSTORE PUSH1 0x64 SWAP1 REVERT JUMPDEST PUSH4 0x4E487B71 PUSH1 0xE0 SHL DUP8 MSTORE PUSH1 0x11 PUSH1 0x4 MSTORE PUSH1 0x24 DUP8 REVERT JUMPDEST POP PUSH1 0x47 SLOAD DUP2 LT PUSH2 0xF79 JUMP JUMPDEST POP DUP1 DUP3 MSTORE PUSH1 0x4A PUSH1 0x20 MSTORE PUSH1 0x1 PUSH1 0xFF PUSH1 0x8 PUSH1 0x40 DUP6 KECCAK256 ADD SLOAD AND ISZERO ISZERO EQ PUSH2 0xF73 JUMP JUMPDEST POP DUP1 ISZERO ISZERO PUSH2 0xF6D JUMP JUMPDEST PUSH1 0x40 MLOAD PUSH3 0x461BCD PUSH1 0xE5 SHL DUP2 MSTORE PUSH1 0x20 PUSH1 0x4 DUP3 ADD MSTORE PUSH1 0xF PUSH1 0x24 DUP3 ADD MSTORE PUSH15 0x125B9D985B1A59081858D8DBDD5B9D PUSH1 0x8A SHL PUSH1 0x44 DUP3 ADD MSTORE PUSH1 0x64 SWAP1 REVERT JUMPDEST POP CALLVALUE PUSH2 0x3AB JUMPI PUSH1 0x20 CALLDATASIZE PUSH1 0x3 NOT ADD SLT PUSH2 0x3AB JUMPI PUSH1 0x4 CALLDATALOAD PUSH1 0x8 DUP2 LT ISZERO PUSH2 0xBEA JUMPI PUSH1 0x20 SWAP2 POP PUSH1 0x27 ADD SLOAD PUSH1 0x40 MLOAD SWAP1 DUP2 MSTORE RETURN JUMPDEST POP CALLVALUE PUSH2 0x3AB JUMPI PUSH1 0x40 SWAP1 PUSH2 0x13B4 CALLDATASIZE PUSH2 0x2A93 JUMP JUMPDEST SWAP1 DUP3 MSTORE PUSH1 0x35 PUSH1 0x20 MSTORE DUP3 DUP3 KECCAK256 SWAP1 DUP3 MSTORE PUSH1 0x20 MSTORE KECCAK256 DUP1 SLOAD PUSH2 0xB9C PUSH1 0x1 DUP4 ADD SLOAD SWAP3 PUSH1 0x2 DUP2 ADD SLOAD SWAP1 PUSH1 0x4 PUSH1 0x3 DUP3 ADD SLOAD SWAP2 ADD SLOAD SWAP2 PUSH1 0x40 MLOAD SWAP6 DUP7 SWAP6 DUP7 SWAP2 SWAP3 PUSH1 0x80 SWAP4 SWAP7 SWAP6 SWAP5 SWAP2 SWAP7 PUSH1 0xA0 DUP5 ADD SWAP8 DUP5 MSTORE PUSH1 0x20 DUP5 ADD MSTORE PUSH1 0x40 DUP4 ADD MSTORE PUSH1 0x60 DUP3 ADD MSTORE ADD MSTORE JUMP JUMPDEST POP CALLVALUE PUSH2 0x3AB JUMPI PUSH2 0x141C CALLDATASIZE PUSH2 0x2B5C JUMP JUMPDEST SWAP3 SWAP2 DUP3 MSTORE PUSH1 0x31 PUSH1 0x20 MSTORE PUSH1 0x40 DUP3 KECCAK256 SWAP1 DUP3 MSTORE PUSH1 0x20 MSTORE PUSH1 0x40 DUP2 KECCAK256 SWAP1 DUP2 SLOAD DUP4 LT ISZERO PUSH2 0x3AB JUMPI PUSH1 0x20 PUSH2 0x3E0 DUP5 DUP5 PUSH2 0x2B47 JUMP JUMPDEST POP CALLVALUE PUSH2 0x3AB JUMPI PUSH2 0x1458 CALLDATASIZE PUSH2 0x2B5C JUMP JUMPDEST SWAP3 SWAP2 DUP3 MSTORE PUSH1 0x32 PUSH1 0x20 MSTORE PUSH1 0x40 DUP3 KECCAK256 SWAP1 DUP3 MSTORE PUSH1 0x20 MSTORE PUSH1 0x40 DUP2 KECCAK256 SWAP1 DUP2 SLOAD DUP4 LT ISZERO PUSH2 0x3AB JUMPI PUSH1 0x20 PUSH2 0x3E0 DUP5 DUP5 PUSH2 0x2B47 JUMP JUMPDEST POP CALLVALUE PUSH2 0x3AB JUMPI PUSH1 0x40 PUSH1 0x20 SWAP2 PUSH2 0x1499 CALLDATASIZE PUSH2 0x2A93 JUMP JUMPDEST SWAP1 DUP3 MSTORE PUSH1 0xB DUP5 MSTORE DUP3 DUP3 KECCAK256 SWAP1 DUP3 MSTORE DUP4 MSTORE KECCAK256 SLOAD PUSH1 0x40 MLOAD SWAP1 DUP2 MSTORE RETURN JUMPDEST POP CALLVALUE PUSH2 0x3AB JUMPI PUSH1 0x20 CALLDATASIZE PUSH1 0x3 NOT ADD SLT PUSH2 0x3AB JUMPI PUSH1 0x40 PUSH1 0x20 SWAP2 PUSH1 0x4 CALLDATALOAD DUP2 MSTORE PUSH1 0x14 DUP4 MSTORE KECCAK256 SLOAD PUSH1 0x40 MLOAD SWAP1 DUP2 MSTORE RETURN JUMPDEST POP CALLVALUE PUSH2 0x3AB JUMPI PUSH1 0x20 PUSH2 0x14F6 PUSH2 0x14F0 CALLDATASIZE PUSH2 0x2A93 JUMP JUMPDEST SWAP1 PUSH2 0x325E JUMP JUMPDEST PUSH1 0x40 MLOAD SWAP1 ISZERO ISZERO DUP2 MSTORE RETURN JUMPDEST POP CALLVALUE PUSH2 0x3AB JUMPI DUP1 PUSH1 0x3 NOT CALLDATASIZE ADD SLT PUSH2 0x3AB JUMPI PUSH1 0x2 SLOAD PUSH1 0x40 MLOAD PUSH1 0x1 PUSH1 0x1 PUSH1 0xA0 SHL SUB SWAP1 SWAP2 AND DUP2 MSTORE PUSH1 0x20 SWAP1 RETURN JUMPDEST POP CALLVALUE PUSH2 0x3AB JUMPI DUP1 PUSH1 0x3 NOT CALLDATASIZE ADD SLT PUSH2 0x3AB JUMPI PUSH1 0x20 PUSH1 0x9 SLOAD PUSH1 0x40 MLOAD SWAP1 DUP2 MSTORE RETURN JUMPDEST POP CALLVALUE PUSH2 0x3AB JUMPI DUP1 PUSH1 0x3 NOT CALLDATASIZE ADD SLT PUSH2 0x3AB JUMPI PUSH1 0x20 PUSH1 0x40 MLOAD PUSH3 0x93A80 DUP2 MSTORE RETURN JUMPDEST POP CALLVALUE PUSH2 0x3AB JUMPI PUSH2 0x1574 CALLDATASIZE PUSH2 0x2A93 JUMP JUMPDEST SWAP2 SWAP1 DUP2 MSTORE PUSH1 0x12 PUSH1 0x20 MSTORE PUSH1 0x40 DUP2 KECCAK256 DUP1 SLOAD DUP4 LT ISZERO PUSH2 0xBEA JUMPI DUP2 PUSH1 0x20 SWAP2 PUSH1 0x5 SWAP4 POP DUP2 MSTORE KECCAK256 SWAP2 MUL ADD DUP1 SLOAD PUSH2 0xB9C PUSH1 0x1 DUP4 ADD SLOAD SWAP3 PUSH1 0x2 DUP2 ADD SLOAD SWAP1 PUSH1 0x4 PUSH1 0x3 DUP3 ADD SLOAD SWAP2 ADD SLOAD SWAP2 PUSH1 0x40 MLOAD SWAP6 DUP7 SWAP6 DUP7 SWAP2 SWAP3 PUSH1 0x80 SWAP4 SWAP7 SWAP6 SWAP5 SWAP2 SWAP7 PUSH1 0xA0 DUP5 ADD SWAP8 DUP5 MSTORE PUSH1 0x20 DUP5 ADD MSTORE PUSH1 0x40 DUP4 ADD MSTORE PUSH1 0x60 DUP3 ADD MSTORE ADD MSTORE JUMP JUMPDEST POP CALLVALUE PUSH2 0x3AB JUMPI DUP1 PUSH1 0x3 NOT CALLDATASIZE ADD SLT PUSH2 0x3AB JUMPI PUSH1 0x20 PUSH1 0x40 MLOAD PUSH4 0x2514300 DUP2 MSTORE RETURN JUMPDEST POP CALLVALUE PUSH2 0x3AB JUMPI PUSH1 0x20 CALLDATASIZE PUSH1 0x3 NOT ADD SLT PUSH2 0x3AB JUMPI PUSH1 0x40 SWAP1 PUSH1 0x4 CALLDATALOAD DUP2 MSTORE PUSH1 0x43 PUSH1 0x20 MSTORE KECCAK256 DUP1 SLOAD PUSH2 0xB9C PUSH1 0x1 DUP4 ADD SLOAD SWAP3 PUSH1 0x2 DUP2 ADD SLOAD SWAP1 PUSH1 0x3 DUP2 ADD SLOAD PUSH1 0x4 DUP3 ADD SLOAD PUSH1 0x5 DUP4 ADD SLOAD SWAP1 PUSH1 0x6 DUP5 ADD SLOAD SWAP3 PUSH1 0xFF PUSH1 0x8 PUSH1 0x7 DUP8 ADD SLOAD SWAP7 ADD SLOAD AND SWAP6 PUSH1 0x40 MLOAD SWAP10 DUP11 SWAP10 DUP11 PUSH2 0x2AA9 JUMP JUMPDEST POP CALLVALUE PUSH2 0x3AB JUMPI PUSH2 0x166E CALLDATASIZE PUSH2 0x2A93 JUMP JUMPDEST SWAP2 SWAP1 DUP2 MSTORE PUSH1 0x15 PUSH1 0x20 MSTORE PUSH1 0x40 DUP2 KECCAK256 SWAP1 DUP2 SLOAD DUP4 LT ISZERO PUSH2 0x3AB JUMPI PUSH1 0x20 PUSH2 0x3E0 DUP5 DUP5 PUSH2 0x2B47 JUMP JUMPDEST POP CALLVALUE PUSH2 0x3AB JUMPI DUP1 PUSH1 0x3 NOT CALLDATASIZE ADD SLT PUSH2 0x3AB JUMPI PUSH1 0x20 PUSH1 0x49 SLOAD PUSH1 0x40 MLOAD SWAP1 DUP2 MSTORE RETURN JUMPDEST POP CALLVALUE PUSH2 0x3AB JUMPI PUSH1 0x40 SWAP1 PUSH2 0x16C1 CALLDATASIZE PUSH2 0x2A93 JUMP JUMPDEST SWAP1 DUP3 MSTORE PUSH1 0xE PUSH1 0x20 MSTORE DUP3 DUP3 KECCAK256 SWAP1 DUP3 MSTORE PUSH1 0x20 MSTORE KECCAK256 DUP1 SLOAD PUSH2 0xB9C PUSH1 0x1 DUP4 ADD SLOAD SWAP2 PUSH1 0x3 PUSH1 0x2 DUP6 ADD SLOAD SWAP5 ADD SLOAD SWAP1 PUSH1 0x40 MLOAD SWAP5 DUP6 SWAP5 PUSH1 0xFF DUP1 DUP6 PUSH1 0x8 SHR AND SWAP5 AND SWAP3 DUP7 SWAP4 SWAP1 SWAP6 SWAP5 SWAP2 SWAP3 PUSH1 0x80 SWAP4 PUSH1 0xA0 DUP7 ADD SWAP8 DUP7 MSTORE PUSH1 0x20 DUP7 ADD MSTORE PUSH1 0x40 DUP6 ADD MSTORE ISZERO ISZERO PUSH1 0x60 DUP5 ADD MSTORE ISZERO ISZERO SWAP2 ADD MSTORE JUMP JUMPDEST POP CALLVALUE PUSH2 0x3AB JUMPI PUSH2 0x1732 CALLDATASIZE PUSH2 0x2B5C JUMP JUMPDEST SWAP3 SWAP2 DUP3 MSTORE PUSH1 0x13 PUSH1 0x20 MSTORE PUSH1 0x40 DUP3 KECCAK256 SWAP1 DUP3 MSTORE PUSH1 0x20 MSTORE PUSH1 0x40 DUP2 KECCAK256 SWAP1 DUP2 SLOAD DUP4 LT ISZERO PUSH2 0x3AB JUMPI PUSH1 0x20 PUSH2 0x3E0 DUP5 DUP5 PUSH2 0x2B47 JUMP JUMPDEST PUSH2 0x2B76 JUMP JUMPDEST POP CALLVALUE PUSH2 0x3AB JUMPI PUSH1 0x40 PUSH2 0x177E PUSH2 0x1778 CALLDATASIZE PUSH2 0x2A93 JUMP JUMPDEST SWAP1 PUSH2 0x31E7 JUMP JUMPDEST DUP3 MLOAD SWAP2 DUP3 MSTORE PUSH1 0x20 DUP3 ADD MSTORE RETURN JUMPDEST POP CALLVALUE PUSH2 0x3AB JUMPI PUSH2 0x1799 CALLDATASIZE PUSH2 0x2B5C JUMP JUMPDEST SWAP3 SWAP2 DUP3 MSTORE PUSH1 0x3F PUSH1 0x20 MSTORE PUSH1 0x40 DUP3 KECCAK256 SWAP1 DUP3 MSTORE PUSH1 0x20 MSTORE PUSH1 0x40 DUP2 KECCAK256 SWAP1 DUP2 SLOAD DUP4 LT ISZERO PUSH2 0x3AB JUMPI PUSH1 0x20 PUSH2 0x3E0 DUP5 DUP5 PUSH2 0x2B47 JUMP JUMPDEST POP CALLVALUE PUSH2 0x3AB JUMPI PUSH2 0x17D5 CALLDATASIZE PUSH2 0x2A93 JUMP JUMPDEST SWAP2 SWAP1 DUP2 MSTORE PUSH1 0x4D PUSH1 0x20 MSTORE PUSH1 0x40 DUP2 KECCAK256 SWAP1 DUP2 SLOAD DUP4 LT ISZERO PUSH2 0x3AB JUMPI PUSH1 0x20 PUSH2 0x3E0 DUP5 DUP5 PUSH2 0x2B47 JUMP JUMPDEST POP CALLVALUE PUSH2 0x3AB JUMPI DUP1 PUSH1 0x3 NOT CALLDATASIZE ADD SLT PUSH2 0x3AB JUMPI PUSH1 0x20 PUSH1 0x47 SLOAD PUSH1 0x40 MLOAD SWAP1 DUP2 MSTORE RETURN JUMPDEST POP CALLVALUE PUSH2 0x3AB JUMPI PUSH1 0x20 CALLDATASIZE PUSH1 0x3 NOT ADD SLT PUSH2 0x3AB JUMPI PUSH1 0x40 PUSH2 0x180 SWAP2 PUSH1 0x4 CALLDATALOAD DUP2 MSTORE PUSH1 0x11 PUSH1 0x20 MSTORE KECCAK256 DUP1 SLOAD SWAP1 PUSH1 0x1 DUP2 ADD SLOAD SWAP1 PUSH1 0x2 DUP2 ADD SLOAD PUSH1 0x3 DUP3 ADD SLOAD PUSH1 0x4 DUP4 ADD SLOAD PUSH1 0x5 DUP5 ADD SLOAD PUSH1 0x6 DUP6 ADD SLOAD SWAP1 PUSH1 0x7 DUP7 ADD SLOAD SWAP3 PUSH1 0x8 DUP8 ADD SLOAD SWAP5 PUSH1 0x9 DUP9 ADD SLOAD SWAP7 PUSH1 0xB PUSH1 0xA DUP11 ADD SLOAD SWAP10 ADD SLOAD SWAP10 PUSH1 0x40 MLOAD SWAP12 DUP13 MSTORE PUSH1 0x20 DUP13 ADD MSTORE PUSH1 0x40 DUP12 ADD MSTORE PUSH1 0x60 DUP11 ADD MSTORE PUSH1 0x80 DUP10 ADD MSTORE PUSH1 0xA0 DUP9 ADD MSTORE PUSH1 0xC0 DUP8 ADD MSTORE PUSH1 0xE0 DUP7 ADD MSTORE PUSH2 0x100 DUP6 ADD MSTORE PUSH2 0x120 DUP5 ADD MSTORE PUSH2 0x140 DUP4 ADD MSTORE PUSH2 0x160 DUP3 ADD MSTORE RETURN JUMPDEST POP CALLVALUE PUSH2 0x3AB JUMPI PUSH1 0x20 CALLDATASIZE PUSH1 0x3 NOT ADD SLT PUSH2 0x3AB JUMPI PUSH1 0x40 PUSH1 0x20 SWAP2 PUSH1 0x4 CALLDATALOAD DUP2 MSTORE PUSH1 0xA DUP4 MSTORE KECCAK256 SLOAD PUSH1 0x40 MLOAD SWAP1 DUP2 MSTORE RETURN JUMPDEST POP CALLVALUE PUSH2 0x3AB JUMPI PUSH1 0x20 CALLDATASIZE PUSH1 0x3 NOT ADD SLT PUSH2 0x3AB JUMPI PUSH1 0x4 CALLDATALOAD DUP1 DUP3 MSTORE PUSH1 0x10 PUSH1 0x20 MSTORE PUSH1 0x40 DUP3 KECCAK256 PUSH2 0x191B PUSH1 0x1 DUP1 PUSH1 0xA0 SHL SUB DUP3 SLOAD AND CALLER EQ PUSH2 0x2BAC JUMP JUMPDEST PUSH1 0x6 DUP2 ADD DUP1 SLOAD PUSH1 0xF DUP2 LT ISZERO PUSH2 0x1DA4 JUMPI PUSH2 0x1933 DUP2 PUSH2 0x2AE9 JUMP JUMPDEST SWAP1 SLOAD PUSH1 0x1 SLOAD PUSH1 0x40 MLOAD PUSH4 0x23B872DD PUSH1 0xE0 SHL DUP2 MSTORE CALLER PUSH1 0x4 DUP3 ADD MSTORE ADDRESS PUSH1 0x24 DUP3 ADD MSTORE PUSH1 0x3 SWAP4 SWAP1 SWAP4 SHL SWAP2 SWAP1 SWAP2 SHR PUSH1 0x44 DUP4 ADD DUP2 SWAP1 MSTORE SWAP4 SWAP2 SWAP1 PUSH1 0x20 SWAP1 DUP3 SWAP1 PUSH1 0x64 SWAP1 DUP3 SWAP1 DUP12 SWAP1 PUSH1 0x1 PUSH1 0x1 PUSH1 0xA0 SHL SUB AND GAS CALL DUP1 ISZERO PUSH2 0x1D99 JUMPI PUSH2 0x1D7C JUMPI JUMPDEST POP DUP1 SLOAD SWAP1 PUSH1 0x1 DUP3 ADD DUP1 SWAP3 GT PUSH2 0x12F7 JUMPI SSTORE PUSH1 0xA DUP4 ADD PUSH2 0x19A6 DUP4 DUP3 SLOAD PUSH2 0x2CD1 JUMP JUMPDEST SWAP1 SSTORE DUP4 DUP6 MSTORE PUSH1 0xE PUSH1 0x20 MSTORE PUSH1 0x40 DUP6 KECCAK256 DUP3 DUP7 MSTORE PUSH1 0x20 MSTORE PUSH1 0x3 PUSH1 0x40 DUP7 KECCAK256 ADD PUSH1 0x1 PUSH1 0xFF NOT DUP3 SLOAD AND OR SWAP1 SSTORE PUSH1 0x5 DUP3 MUL SWAP3 DUP3 ISZERO SWAP4 DUP4 DUP2 DIV PUSH1 0x5 EQ DUP6 OR ISZERO PUSH2 0x12F7 JUMPI PUSH1 0x64 SWAP1 DIV SWAP4 PUSH1 0x19 DUP5 MUL DUP5 DUP2 DIV PUSH1 0x19 EQ DUP3 OR ISZERO PUSH2 0x83C JUMPI DUP5 PUSH1 0x64 PUSH2 0x1A04 SWAP3 DIV PUSH2 0x3682 JUMP JUMPDEST DUP4 DUP8 MSTORE PUSH1 0xA PUSH1 0x20 MSTORE PUSH1 0x40 DUP8 KECCAK256 SLOAD DUP5 DUP9 MSTORE PUSH1 0xB PUSH1 0x20 MSTORE PUSH1 0x40 DUP9 KECCAK256 DUP8 DUP10 MSTORE PUSH1 0x20 MSTORE PUSH1 0x40 DUP9 KECCAK256 SSTORE PUSH2 0x1A31 DUP6 PUSH2 0x35C6 JUMP JUMPDEST DUP4 DUP8 MSTORE PUSH1 0xC PUSH1 0x20 MSTORE PUSH1 0x40 DUP8 KECCAK256 DUP1 SLOAD SWAP1 PUSH1 0x1 DUP3 ADD DUP1 SWAP3 GT PUSH2 0x814 JUMPI SSTORE PUSH1 0x14 DUP5 MUL DUP5 DUP2 DIV PUSH1 0x14 EQ DUP3 OR ISZERO PUSH2 0x83C JUMPI PUSH1 0x64 SWAP1 DIV SWAP5 PUSH1 0x4 DUP4 ADD SWAP4 DUP5 SLOAD SWAP7 PUSH1 0x1 DUP3 ADD SWAP8 DUP9 DUP4 GT PUSH2 0x9BA JUMPI SWAP2 DUP9 DUP3 PUSH2 0x1A8C DUP3 PUSH2 0x1AA7 SWAP6 DUP15 PUSH2 0x1AC7 SWAP10 SWAP9 PUSH2 0x3723 JUMP JUMPDEST DUP12 DUP14 PUSH1 0x5 DUP11 ADD PUSH2 0x1A9F DUP6 DUP6 DUP6 DUP5 SLOAD PUSH2 0x3762 JUMP JUMPDEST SLOAD SWAP1 POP PUSH2 0x3A14 JUMP JUMPDEST PUSH2 0x1AAF PUSH2 0x4079 JUMP JUMPDEST PUSH2 0x1AB7 PUSH2 0x41E9 JUMP JUMPDEST PUSH2 0x1ABF PUSH2 0x4318 JUMP JUMPDEST PUSH1 0x3B SLOAD PUSH2 0x2CD1 JUMP JUMPDEST PUSH1 0x3B SSTORE PUSH1 0x23 DUP5 MUL DUP5 DUP2 DIV PUSH1 0x23 EQ DUP3 OR ISZERO PUSH2 0x83C JUMPI PUSH2 0x3E8 PUSH2 0x1AEB SWAP2 DIV PUSH1 0x42 SLOAD PUSH2 0x2CD1 JUMP JUMPDEST PUSH1 0x42 SSTORE PUSH1 0xF DUP5 MUL SWAP1 DUP5 DUP3 DIV PUSH1 0xF EQ OR ISZERO PUSH2 0x12F7 JUMPI PUSH2 0x3E8 PUSH2 0x1B0F SWAP2 DIV PUSH1 0x49 SLOAD PUSH2 0x2CD1 JUMP JUMPDEST PUSH1 0x49 SSTORE PUSH1 0xA DUP5 EQ PUSH2 0x1C8F JUMPI JUMPDEST PUSH1 0xF DUP5 EQ PUSH2 0x1B99 JUMPI JUMPDEST POP POP PUSH1 0x40 MLOAD SWAP2 DUP3 MSTORE PUSH1 0x20 DUP3 ADD MSTORE PUSH1 0x80 PUSH1 0x40 DUP3 ADD MSTORE PUSH32 0x26ADB22CEC823EF144935E9FBEF1B6B4A3A29DACBE5444D59292FA2620F3D377 PUSH2 0x1B89 PUSH1 0x80 DUP4 ADD PUSH1 0x40 SWAP1 PUSH1 0x15 DUP2 MSTORE PUSH21 0x53706F6E736F727368697020537472756374757265 PUSH1 0x58 SHL PUSH1 0x20 DUP3 ADD MSTORE ADD SWAP1 JUMP JUMPDEST SWAP2 TIMESTAMP PUSH1 0x60 DUP3 ADD MSTORE DUP1 CALLER SWAP4 SUB SWAP1 LOG3 DUP1 RETURN JUMPDEST PUSH1 0x13 TIMESTAMP SWAP2 ADD SSTORE DUP4 DUP6 MSTORE PUSH1 0x10 PUSH1 0x20 MSTORE PUSH1 0x40 DUP6 KECCAK256 SWAP1 SLOAD DUP6 MSTORE PUSH1 0x10 PUSH1 0x20 MSTORE PUSH1 0x40 DUP6 KECCAK256 PUSH1 0x15 DUP2 ADD DUP1 SLOAD SWAP1 PUSH1 0x1 DUP3 ADD DUP1 SWAP3 GT PUSH2 0x83C JUMPI SWAP1 DUP1 PUSH1 0x2 SWAP3 SSTORE LT ISZERO SWAP1 DUP2 PUSH2 0x1C71 JUMPI JUMPDEST DUP2 PUSH2 0x1C61 JUMPI JUMPDEST POP PUSH2 0x1C4B JUMPI JUMPDEST PUSH1 0x2 PUSH1 0x15 DUP3 ADD SLOAD LT ISZERO SWAP1 DUP2 PUSH2 0x1C28 JUMPI JUMPDEST DUP2 PUSH2 0x1C19 JUMPI JUMPDEST POP PUSH2 0x1C08 JUMPI JUMPDEST PUSH0 DUP1 PUSH2 0x1B24 JUMP JUMPDEST PUSH2 0x1C14 PUSH1 0x47 SLOAD DUP5 PUSH2 0x3F3F JUMP JUMPDEST PUSH2 0x1C01 JUMP JUMPDEST PUSH1 0xF SWAP2 POP PUSH1 0x6 ADD SLOAD EQ PUSH0 PUSH2 0x1BFB JUMP JUMPDEST SWAP1 POP PUSH1 0x13 DUP2 ADD SLOAD PUSH1 0x11 DUP3 ADD SLOAD SWAP1 PUSH4 0x2514300 DUP3 ADD DUP1 SWAP3 GT PUSH2 0x12F7 JUMPI GT ISZERO SWAP1 PUSH2 0x1BF5 JUMP JUMPDEST PUSH2 0x1C5C PUSH1 0x4 DUP3 ADD SLOAD PUSH1 0x47 SLOAD SWAP1 PUSH2 0x3F3F JUMP JUMPDEST PUSH2 0x1BE5 JUMP JUMPDEST PUSH1 0xF SWAP2 POP PUSH1 0x6 ADD SLOAD LT ISZERO PUSH0 PUSH2 0x1BDF JUMP JUMPDEST SWAP1 POP PUSH1 0x11 DUP2 ADD SLOAD PUSH4 0x2514300 DUP2 ADD DUP1 SWAP2 GT PUSH2 0x12F7 JUMPI TIMESTAMP GT ISZERO SWAP1 PUSH2 0x1BD9 JUMP JUMPDEST TIMESTAMP PUSH1 0x12 DUP3 ADD SSTORE DUP5 DUP7 MSTORE PUSH1 0x10 PUSH1 0x20 MSTORE PUSH1 0x40 DUP7 KECCAK256 DUP3 SLOAD DUP8 MSTORE PUSH1 0x10 PUSH1 0x20 MSTORE PUSH1 0x40 DUP8 KECCAK256 PUSH1 0x14 DUP2 ADD DUP1 SLOAD SWAP1 PUSH1 0x1 DUP3 ADD DUP1 SWAP3 GT PUSH2 0x828 JUMPI SWAP1 DUP1 PUSH1 0x5 SWAP3 SSTORE LT ISZERO SWAP1 DUP2 PUSH2 0x1D5F JUMPI JUMPDEST DUP2 PUSH2 0x1D4F JUMPI JUMPDEST POP PUSH2 0x1D39 JUMPI JUMPDEST PUSH1 0x5 PUSH1 0x14 DUP3 ADD SLOAD LT ISZERO SWAP1 DUP2 PUSH2 0x1D17 JUMPI JUMPDEST DUP2 PUSH2 0x1D08 JUMPI JUMPDEST POP ISZERO PUSH2 0x1B1B JUMPI PUSH2 0x1D03 PUSH1 0x40 SLOAD DUP7 PUSH2 0x3DA9 JUMP JUMPDEST PUSH2 0x1B1B JUMP JUMPDEST PUSH1 0xA SWAP2 POP PUSH1 0x6 ADD SLOAD EQ PUSH0 PUSH2 0x1CF1 JUMP JUMPDEST SWAP1 POP PUSH1 0x12 DUP2 ADD SLOAD PUSH1 0x11 DUP3 ADD SLOAD SWAP1 PUSH3 0x83D600 DUP3 ADD DUP1 SWAP3 GT PUSH2 0x814 JUMPI GT ISZERO SWAP1 PUSH2 0x1CEB JUMP JUMPDEST PUSH2 0x1D4A PUSH1 0x4 DUP3 ADD SLOAD PUSH1 0x40 SLOAD SWAP1 PUSH2 0x3DA9 JUMP JUMPDEST PUSH2 0x1CDB JUMP JUMPDEST PUSH1 0xA SWAP2 POP PUSH1 0x6 ADD SLOAD LT ISZERO PUSH0 PUSH2 0x1CD5 JUMP JUMPDEST SWAP1 POP PUSH1 0x11 DUP2 ADD SLOAD PUSH3 0x83D600 DUP2 ADD DUP1 SWAP2 GT PUSH2 0x814 JUMPI TIMESTAMP GT ISZERO SWAP1 PUSH2 0x1CCF JUMP JUMPDEST PUSH2 0x1D94 SWAP1 PUSH1 0x20 RETURNDATASIZE PUSH1 0x20 GT PUSH2 0xA30 JUMPI PUSH2 0xA23 DUP2 DUP4 PUSH2 0x3186 JUMP JUMPDEST PUSH2 0x1987 JUMP JUMPDEST PUSH1 0x40 MLOAD RETURNDATASIZE DUP10 DUP3 RETURNDATACOPY RETURNDATASIZE SWAP1 REVERT JUMPDEST PUSH1 0x40 MLOAD PUSH3 0x461BCD PUSH1 0xE5 SHL DUP2 MSTORE PUSH1 0x20 PUSH1 0x4 DUP3 ADD MSTORE PUSH1 0x14 PUSH1 0x24 DUP3 ADD MSTORE PUSH20 0x105B1C9958591E48185D081B585E081B195D995B PUSH1 0x62 SHL PUSH1 0x44 DUP3 ADD MSTORE PUSH1 0x64 SWAP1 REVERT JUMPDEST POP CALLVALUE PUSH2 0x3AB JUMPI PUSH1 0x20 CALLDATASIZE PUSH1 0x3 NOT ADD SLT PUSH2 0x3AB JUMPI PUSH1 0x40 SWAP1 PUSH1 0x4 CALLDATALOAD DUP2 MSTORE PUSH1 0x45 PUSH1 0x20 MSTORE KECCAK256 DUP1 SLOAD PUSH2 0xB9C PUSH1 0x1 DUP4 ADD SLOAD SWAP3 PUSH1 0xFF PUSH1 0x4 PUSH1 0x2 DUP4 ADD SLOAD SWAP3 ADD SLOAD AND SWAP1 PUSH1 0x40 MLOAD SWAP5 DUP6 SWAP5 DUP6 SWAP3 PUSH1 0x60 SWAP3 SWAP6 SWAP5 SWAP2 SWAP6 PUSH1 0x80 DUP6 ADD SWAP7 DUP6 MSTORE PUSH1 0x20 DUP6 ADD MSTORE PUSH1 0x40 DUP5 ADD MSTORE ISZERO ISZERO SWAP2 ADD MSTORE JUMP JUMPDEST POP CALLVALUE PUSH2 0x3AB JUMPI DUP1 PUSH1 0x3 NOT CALLDATASIZE ADD SLT PUSH2 0x3AB JUMPI PUSH1 0x20 PUSH1 0x40 MLOAD PUSH3 0x2A300 DUP2 MSTORE RETURN JUMPDEST POP CALLVALUE PUSH2 0x3AB JUMPI PUSH2 0x1E6D CALLDATASIZE PUSH2 0x2A93 JUMP JUMPDEST PUSH2 0x1E78 SWAP3 SWAP2 SWAP3 PUSH2 0x333B JUMP JUMPDEST PUSH2 0x1E80 PUSH2 0x4079 JUMP JUMPDEST PUSH2 0x1E88 PUSH2 0x41E9 JUMP JUMPDEST PUSH2 0x1E90 PUSH2 0x4318 JUMP JUMPDEST DUP3 DUP3 MSTORE PUSH1 0x10 PUSH1 0x20 MSTORE PUSH2 0x1EAF PUSH1 0x1 DUP1 PUSH1 0xA0 SHL SUB PUSH1 0x40 DUP5 KECCAK256 SLOAD AND CALLER EQ PUSH2 0x2BAC JUMP JUMPDEST DUP3 ISZERO ISZERO DUP1 PUSH2 0x21BC JUMPI JUMPDEST DUP1 PUSH2 0x219E JUMPI JUMPDEST DUP1 PUSH2 0x2193 JUMPI JUMPDEST PUSH2 0x1ECD SWAP1 PUSH2 0x2BEB JUMP JUMPDEST DUP3 DUP3 MSTORE PUSH1 0x45 PUSH1 0x20 MSTORE PUSH1 0x40 DUP3 KECCAK256 SWAP1 DUP1 DUP4 MSTORE PUSH1 0x43 PUSH1 0x20 MSTORE PUSH1 0x40 DUP4 KECCAK256 SWAP1 PUSH2 0x1EFC PUSH1 0x1 PUSH1 0xFF PUSH1 0x4 DUP7 ADD SLOAD AND ISZERO ISZERO EQ PUSH2 0x30B9 JUMP JUMPDEST PUSH1 0x3 DUP4 ADD DUP2 DUP6 MSTORE DUP1 PUSH1 0x20 MSTORE PUSH2 0x1F18 PUSH1 0xFF PUSH1 0x40 DUP8 KECCAK256 SLOAD AND ISZERO PUSH2 0x30F6 JUMP JUMPDEST PUSH1 0x3 DUP4 ADD SLOAD SWAP3 DUP4 ISZERO SWAP5 PUSH2 0x1F2B DUP7 ISZERO PUSH2 0x2C50 JUMP JUMPDEST PUSH2 0x1F47 DUP5 PUSH1 0x1 PUSH1 0x4 DUP6 ADD SWAP4 PUSH2 0xFFC PUSH1 0x2 DUP7 SLOAD SWAP8 ADD SLOAD DUP8 LT PUSH2 0x2C91 JUMP JUMPDEST PUSH1 0x1 DUP3 ADD DUP1 SWAP3 GT PUSH2 0x12F7 JUMPI SSTORE DUP2 DUP6 MSTORE PUSH1 0x20 MSTORE PUSH1 0x40 DUP5 KECCAK256 PUSH1 0x1 PUSH1 0xFF NOT DUP3 SLOAD AND OR SWAP1 SSTORE DUP5 DUP5 MSTORE PUSH1 0x10 PUSH1 0x20 MSTORE PUSH1 0x40 DUP5 KECCAK256 SWAP4 PUSH1 0x1 DUP1 PUSH1 0xA0 SHL SUB DUP6 SLOAD AND SWAP4 DUP5 ISZERO PUSH2 0x12C3 JUMPI PUSH2 0x1290 JUMPI DUP6 DUP2 MSTORE PUSH1 0x11 PUSH1 0x20 MSTORE PUSH1 0x40 DUP2 KECCAK256 SWAP1 DUP1 PUSH2 0x1FA3 DUP6 DUP5 SLOAD PUSH2 0x2CD1 JUMP JUMPDEST DUP4 SSTORE PUSH2 0x127C JUMPI POP PUSH1 0xA DUP2 ADD PUSH2 0x1FB9 DUP5 DUP3 SLOAD PUSH2 0x2CD1 JUMP JUMPDEST SWAP1 SSTORE SLOAD SWAP1 PUSH1 0xB DUP6 ADD SLOAD SWAP1 PUSH1 0x6 PUSH0 SWAP7 ADD SWAP6 JUMPDEST DUP7 SLOAD DUP2 LT ISZERO PUSH2 0x2185 JUMPI PUSH2 0x1FDC DUP2 PUSH2 0x2AE9 JUMP JUMPDEST SWAP1 SLOAD SWAP1 PUSH1 0x3 SHL SHR SWAP4 DUP9 PUSH0 MSTORE PUSH1 0xE PUSH1 0x20 MSTORE PUSH1 0x40 PUSH0 KECCAK256 DUP6 PUSH0 MSTORE PUSH1 0x20 MSTORE PUSH1 0x40 PUSH0 KECCAK256 SWAP1 PUSH1 0x3 DUP3 ADD PUSH1 0xFF DUP2 SLOAD PUSH1 0x8 SHR AND DUP1 ISZERO SWAP1 DUP2 DUP1 SWAP3 PUSH2 0x216F JUMPI JUMPDEST ISZERO PUSH2 0x205D JUMPI POP POP DUP1 SLOAD PUSH2 0xFF00 NOT AND PUSH2 0x100 OR SWAP1 SSTORE PUSH2 0x2038 SWAP2 SWAP1 DUP6 PUSH1 0xA PUSH2 0x10F6 DUP3 DUP11 PUSH2 0x31D4 JUMP JUMPDEST SWAP4 PUSH0 MSTORE PUSH1 0xC PUSH1 0x20 MSTORE PUSH1 0x40 PUSH0 KECCAK256 SWAP1 DUP2 SLOAD PUSH0 NOT DUP2 ADD SWAP1 DUP2 GT PUSH2 0x1129 JUMPI PUSH1 0x1 SWAP3 SSTORE JUMPDEST ADD PUSH2 0x1FCA JUMP JUMPDEST DUP1 SWAP2 SWAP4 SWAP6 SWAP9 SWAP3 POP SWAP1 PUSH2 0x215A JUMPI JUMPDEST ISZERO PUSH2 0x2088 JUMPI POP POP PUSH1 0x1 SWAP2 PUSH1 0x2 PUSH2 0x2082 SWAP3 ADD SLOAD SWAP1 PUSH2 0x2CDE JUMP JUMPDEST SWAP4 PUSH2 0x2057 JUMP JUMPDEST SWAP3 SWAP6 SWAP3 DUP6 SWAP1 DUP3 PUSH2 0x2142 JUMPI JUMPDEST POP POP PUSH2 0x20A2 JUMPI POP PUSH1 0x1 SWAP1 PUSH2 0x2057 JUMP JUMPDEST SWAP2 SWAP5 SWAP7 POP POP PUSH1 0x1 SWAP2 POP SWAP6 SWAP4 SWAP6 ADD SSTORE JUMPDEST PUSH1 0x1 SLOAD PUSH2 0x20CA SWAP1 DUP5 SWAP1 DUP7 SWAP1 PUSH1 0x1 PUSH1 0x1 PUSH1 0xA0 SHL SUB AND PUSH2 0x440E JUMP JUMPDEST PUSH1 0x40 MLOAD DUP4 DUP2 MSTORE PUSH0 PUSH1 0x20 DUP3 ADD MSTORE SWAP1 DUP3 DUP1 PUSH32 0x8211032682F8FD8BE8FF252E0A106CDB6AD4B10427152B4D93C2BC9A1F11C3C2 SWAP7 PUSH0 MLOAD PUSH1 0x20 PUSH2 0x459A PUSH0 CODECOPY PUSH0 MLOAD SWAP1 PUSH0 MSTORE PUSH1 0x80 DUP7 PUSH1 0x8 PUSH1 0x40 PUSH2 0x1222 SWAP10 ADD MSTORE TIMESTAMP PUSH1 0x60 DUP3 ADD MSTORE LOG4 PUSH1 0x40 MLOAD SWAP4 DUP5 SWAP4 TIMESTAMP SWAP3 DUP6 SWAP1 SWAP5 SWAP4 SWAP3 PUSH1 0x60 SWAP3 PUSH1 0x80 DUP4 ADD SWAP7 DUP4 MSTORE PUSH1 0x20 DUP4 ADD MSTORE PUSH1 0x40 DUP3 ADD MSTORE ADD MSTORE JUMP JUMPDEST PUSH1 0xA SWAP3 POP SWAP1 PUSH2 0x2150 SWAP2 PUSH2 0x31D4 JUMP JUMPDEST DIV DUP6 LT DUP5 PUSH0 PUSH2 0x2093 JUMP JUMPDEST POP PUSH1 0xA PUSH2 0x2167 DUP8 DUP4 PUSH2 0x31D4 JUMP JUMPDEST DIV DUP5 GT PUSH2 0x206A JUMP JUMPDEST POP PUSH1 0xA PUSH2 0x217C DUP10 DUP12 PUSH2 0x31D4 JUMP JUMPDEST DIV DUP5 LT ISZERO PUSH2 0x2012 JUMP JUMPDEST POP SWAP3 SWAP5 POP POP POP SWAP3 SWAP1 SWAP3 PUSH2 0x20B1 JUMP JUMPDEST POP PUSH1 0x40 SLOAD DUP2 LT PUSH2 0x1EC4 JUMP JUMPDEST POP DUP1 DUP3 MSTORE PUSH1 0x43 PUSH1 0x20 MSTORE PUSH1 0x1 PUSH1 0xFF PUSH1 0x8 PUSH1 0x40 DUP6 KECCAK256 ADD SLOAD AND ISZERO ISZERO EQ PUSH2 0x1EBE JUMP JUMPDEST POP DUP1 ISZERO ISZERO PUSH2 0x1EB8 JUMP JUMPDEST POP CALLVALUE PUSH2 0x3AB JUMPI PUSH1 0x20 CALLDATASIZE PUSH1 0x3 NOT ADD SLT PUSH2 0x3AB JUMPI PUSH1 0x4 CALLDATALOAD SWAP1 PUSH1 0x7 SLOAD DUP3 LT ISZERO PUSH2 0x3AB JUMPI PUSH1 0x7 SLOAD DUP3 LT ISZERO PUSH2 0x45B JUMPI PUSH1 0x20 SWAP2 PUSH1 0x7 DUP3 MSTORE DUP3 DUP3 KECCAK256 ADD SLOAD SWAP1 PUSH1 0x3 SHL SHR PUSH1 0x40 MLOAD SWAP1 DUP2 MSTORE RETURN JUMPDEST PUSH2 0x2B91 JUMP JUMPDEST POP CALLVALUE PUSH2 0x3AB JUMPI PUSH1 0x20 CALLDATASIZE PUSH1 0x3 NOT ADD SLT PUSH2 0x3AB JUMPI PUSH1 0x40 SWAP1 PUSH1 0x4 CALLDATALOAD DUP2 MSTORE PUSH1 0x10 PUSH1 0x20 MSTORE KECCAK256 PUSH2 0x180 MSTORE PUSH1 0x1 DUP1 PUSH1 0xA0 SHL SUB PUSH2 0x180 MLOAD SLOAD AND PUSH1 0x2 PUSH2 0x180 MLOAD ADD SLOAD PUSH2 0x100 MSTORE PUSH1 0x3 PUSH2 0x180 MLOAD ADD SLOAD PUSH2 0x140 MSTORE PUSH1 0x4 PUSH2 0x180 MLOAD ADD SLOAD PUSH1 0x5 PUSH2 0x180 MLOAD ADD SLOAD PUSH1 0x6 PUSH2 0x180 MLOAD ADD SLOAD PUSH1 0x7 PUSH2 0x180 MLOAD ADD SLOAD PUSH1 0x8 PUSH2 0x180 MLOAD ADD SLOAD PUSH1 0x9 PUSH2 0x180 MLOAD ADD SLOAD PUSH1 0xA PUSH2 0x180 MLOAD ADD SLOAD SWAP1 PUSH1 0xB PUSH2 0x180 MLOAD ADD SLOAD SWAP3 PUSH1 0xC PUSH2 0x180 MLOAD ADD SLOAD SWAP5 PUSH1 0xD PUSH2 0x180 MLOAD ADD SLOAD SWAP7 PUSH1 0xE PUSH2 0x180 MLOAD ADD SLOAD SWAP9 PUSH1 0xF PUSH2 0x180 MLOAD ADD SLOAD SWAP11 PUSH1 0x10 PUSH2 0x180 MLOAD ADD SLOAD SWAP13 PUSH1 0x11 PUSH2 0x180 MLOAD ADD SLOAD PUSH1 0x80 MSTORE PUSH1 0x12 PUSH2 0x180 MLOAD ADD SLOAD PUSH1 0xC0 MSTORE PUSH1 0x13 PUSH2 0x180 MLOAD ADD SLOAD PUSH2 0x160 MSTORE PUSH1 0x14 PUSH2 0x180 MLOAD ADD SLOAD PUSH2 0x120 MSTORE PUSH1 0x15 PUSH2 0x180 MLOAD ADD SLOAD PUSH1 0xE0 MSTORE PUSH1 0x40 MLOAD PUSH1 0xA0 MSTORE PUSH1 0xA0 MLOAD MSTORE PUSH2 0x100 MLOAD PUSH1 0x20 PUSH1 0xA0 MLOAD ADD MSTORE PUSH2 0x140 MLOAD PUSH1 0x40 PUSH1 0xA0 MLOAD ADD MSTORE PUSH1 0x60 PUSH1 0xA0 MLOAD ADD MSTORE PUSH1 0x80 PUSH1 0xA0 MLOAD ADD MSTORE PUSH1 0xA0 DUP1 MLOAD ADD MSTORE PUSH1 0xC0 PUSH1 0xA0 MLOAD ADD MSTORE PUSH1 0xE0 PUSH1 0xA0 MLOAD ADD MSTORE PUSH2 0x100 PUSH1 0xA0 MLOAD ADD MSTORE PUSH2 0x120 PUSH1 0xA0 MLOAD ADD MSTORE PUSH2 0x140 PUSH1 0xA0 MLOAD ADD MSTORE PUSH2 0x160 PUSH1 0xA0 MLOAD ADD MSTORE PUSH2 0x180 PUSH1 0xA0 MLOAD ADD MSTORE PUSH2 0x1A0 PUSH1 0xA0 MLOAD ADD MSTORE PUSH2 0x1C0 PUSH1 0xA0 MLOAD ADD MSTORE PUSH2 0x1E0 PUSH1 0xA0 MLOAD ADD MSTORE PUSH1 0x80 MLOAD PUSH2 0x200 PUSH1 0xA0 MLOAD ADD MSTORE PUSH1 0xC0 MLOAD PUSH2 0x220 PUSH1 0xA0 MLOAD ADD MSTORE PUSH2 0x160 MLOAD PUSH2 0x240 PUSH1 0xA0 MLOAD ADD MSTORE PUSH2 0x120 MLOAD PUSH2 0x260 PUSH1 0xA0 MLOAD ADD MSTORE PUSH1 0xE0 MLOAD PUSH2 0x280 PUSH1 0xA0 MLOAD ADD MSTORE PUSH2 0x2A0 PUSH1 0xA0 MLOAD RETURN JUMPDEST POP CALLVALUE PUSH2 0x3AB JUMPI DUP1 PUSH1 0x3 NOT CALLDATASIZE ADD SLT PUSH2 0x3AB JUMPI PUSH1 0x20 PUSH1 0x40 MLOAD PUSH8 0xDE0B6B3A7640000 DUP2 MSTORE RETURN JUMPDEST POP CALLVALUE PUSH2 0x3AB JUMPI DUP1 PUSH1 0x3 NOT CALLDATASIZE ADD SLT PUSH2 0x3AB JUMPI PUSH1 0x20 PUSH1 0x40 MLOAD PUSH3 0x15180 DUP2 MSTORE RETURN JUMPDEST POP CALLVALUE PUSH2 0x3AB JUMPI DUP1 PUSH1 0x3 NOT CALLDATASIZE ADD SLT PUSH2 0x3AB JUMPI PUSH1 0x20 PUSH1 0x40 MLOAD PUSH1 0x2 DUP2 MSTORE RETURN JUMPDEST POP CALLVALUE PUSH2 0x3AB JUMPI DUP1 PUSH1 0x3 NOT CALLDATASIZE ADD SLT PUSH2 0x3AB JUMPI PUSH1 0x20 PUSH1 0x3B SLOAD PUSH1 0x40 MLOAD SWAP1 DUP2 MSTORE RETURN JUMPDEST POP CALLVALUE PUSH2 0x3AB JUMPI DUP1 PUSH1 0x3 NOT CALLDATASIZE ADD SLT PUSH2 0x3AB JUMPI PUSH1 0x1 SLOAD PUSH1 0x40 MLOAD PUSH1 0x1 PUSH1 0x1 PUSH1 0xA0 SHL SUB SWAP1 SWAP2 AND DUP2 MSTORE PUSH1 0x20 SWAP1 RETURN JUMPDEST POP CALLVALUE PUSH2 0x3AB JUMPI PUSH1 0x20 CALLDATASIZE PUSH1 0x3 NOT ADD SLT PUSH2 0x3AB JUMPI PUSH1 0x4 CALLDATALOAD SWAP1 PUSH1 0x44 SLOAD DUP3 LT ISZERO PUSH2 0x3AB JUMPI PUSH1 0x44 SLOAD DUP3 LT ISZERO PUSH2 0x45B JUMPI PUSH1 0x20 SWAP2 PUSH1 0x44 DUP3 MSTORE DUP3 DUP3 KECCAK256 ADD SLOAD SWAP1 PUSH1 0x3 SHL SHR PUSH1 0x40 MLOAD SWAP1 DUP2 MSTORE RETURN JUMPDEST POP CALLVALUE PUSH2 0x3AB JUMPI DUP1 PUSH1 0x3 NOT CALLDATASIZE ADD SLT PUSH2 0x3AB JUMPI PUSH1 0x20 PUSH1 0x40 MLOAD PUSH3 0x278D00 DUP2 MSTORE RETURN JUMPDEST POP CALLVALUE PUSH2 0x3AB JUMPI PUSH1 0x20 CALLDATASIZE PUSH1 0x3 NOT ADD SLT PUSH2 0x3AB JUMPI PUSH1 0x4 CALLDATALOAD SWAP1 PUSH1 0x17 SLOAD DUP3 LT ISZERO PUSH2 0x3AB JUMPI PUSH1 0x17 SLOAD DUP3 LT ISZERO PUSH2 0x45B JUMPI PUSH1 0x20 SWAP2 PUSH1 0x17 DUP3 MSTORE DUP3 DUP3 KECCAK256 ADD SLOAD SWAP1 PUSH1 0x3 SHL SHR PUSH1 0x40 MLOAD SWAP1 DUP2 MSTORE RETURN JUMPDEST POP CALLVALUE PUSH2 0x3AB JUMPI PUSH1 0x20 CALLDATASIZE PUSH1 0x3 NOT ADD SLT PUSH2 0x3AB JUMPI PUSH1 0x4 CALLDATALOAD PUSH1 0x7 DUP2 LT ISZERO PUSH2 0xBEA JUMPI PUSH1 0x20 SWAP2 POP PUSH1 0x18 ADD SLOAD PUSH1 0x40 MLOAD SWAP1 DUP2 MSTORE RETURN JUMPDEST POP CALLVALUE PUSH2 0x3AB JUMPI PUSH2 0x254F PUSH2 0x2549 CALLDATASIZE PUSH2 0x2A93 JUMP JUMPDEST SWAP1 PUSH2 0x2D09 JUMP JUMPDEST DUP1 RETURN JUMPDEST CALLVALUE PUSH2 0x28E3 JUMPI PUSH2 0x2560 CALLDATASIZE PUSH2 0x2A93 JUMP JUMPDEST PUSH2 0x2568 PUSH2 0x333B JUMP JUMPDEST PUSH2 0x2570 PUSH2 0x4079 JUMP JUMPDEST PUSH2 0x2578 PUSH2 0x41E9 JUMP JUMPDEST PUSH2 0x2580 PUSH2 0x4318 JUMP JUMPDEST DUP2 PUSH0 MSTORE PUSH1 0x10 PUSH1 0x20 MSTORE PUSH2 0x259F PUSH1 0x1 DUP1 PUSH1 0xA0 SHL SUB PUSH1 0x40 PUSH0 KECCAK256 SLOAD AND CALLER EQ PUSH2 0x2BAC JUMP JUMPDEST DUP2 ISZERO ISZERO DUP1 PUSH2 0x28DA JUMPI JUMPDEST DUP1 PUSH2 0x28BC JUMPI JUMPDEST DUP1 PUSH2 0x28B1 JUMPI JUMPDEST PUSH2 0x25BD SWAP1 PUSH2 0x2BEB JUMP JUMPDEST DUP1 PUSH0 MSTORE PUSH1 0x3E PUSH1 0x20 MSTORE PUSH1 0x40 PUSH0 KECCAK256 DUP3 PUSH0 MSTORE PUSH1 0x20 MSTORE PUSH1 0x40 PUSH0 KECCAK256 DUP2 PUSH0 MSTORE PUSH1 0x3C PUSH1 0x20 MSTORE PUSH1 0x3 PUSH1 0x40 PUSH0 KECCAK256 SWAP2 ADD DUP1 SLOAD PUSH1 0x1 PUSH1 0xFF DUP3 PUSH1 0x8 SHR AND ISZERO ISZERO EQ SWAP1 DUP2 PUSH2 0x28A5 JUMPI JUMPDEST POP ISZERO PUSH2 0x2861 JUMPI PUSH1 0x3 DUP3 ADD SLOAD SWAP1 DUP2 ISZERO SWAP3 PUSH2 0x2611 DUP5 ISZERO PUSH2 0x2C50 JUMP JUMPDEST PUSH1 0x4 DUP2 ADD PUSH2 0x2626 PUSH1 0x2 DUP3 SLOAD SWAP4 ADD SLOAD DUP4 LT PUSH2 0x2C91 JUMP JUMPDEST PUSH1 0x1 DUP3 ADD DUP1 SWAP3 GT PUSH2 0x1129 JUMPI SSTORE PUSH1 0x1 PUSH1 0xFF NOT DUP3 SLOAD AND OR SWAP1 SSTORE DUP4 PUSH0 MSTORE PUSH1 0x10 PUSH1 0x20 MSTORE PUSH1 0x40 PUSH0 KECCAK256 SWAP3 PUSH1 0x1 DUP1 PUSH1 0xA0 SHL SUB DUP5 SLOAD AND SWAP3 DUP4 ISZERO PUSH2 0x12C3 JUMPI PUSH2 0x1290 JUMPI DUP5 PUSH0 MSTORE PUSH1 0x11 PUSH1 0x20 MSTORE PUSH1 0x40 PUSH0 KECCAK256 PUSH2 0x2676 DUP4 DUP3 SLOAD PUSH2 0x2CD1 JUMP JUMPDEST DUP2 SSTORE PUSH1 0x9 DUP2 ADD PUSH2 0x2687 DUP5 DUP3 SLOAD PUSH2 0x2CD1 JUMP JUMPDEST SWAP1 SSTORE SLOAD SWAP1 PUSH1 0xB DUP6 ADD SLOAD SWAP1 PUSH1 0x6 PUSH0 SWAP7 ADD SWAP6 JUMPDEST DUP7 SLOAD DUP2 LT ISZERO PUSH2 0x2853 JUMPI PUSH2 0x26AA DUP2 PUSH2 0x2AE9 JUMP JUMPDEST SWAP1 SLOAD SWAP1 PUSH1 0x3 SHL SHR SWAP4 DUP9 PUSH0 MSTORE PUSH1 0xE PUSH1 0x20 MSTORE PUSH1 0x40 PUSH0 KECCAK256 DUP6 PUSH0 MSTORE PUSH1 0x20 MSTORE PUSH1 0x40 PUSH0 KECCAK256 SWAP1 PUSH1 0x3 DUP3 ADD PUSH1 0xFF DUP2 SLOAD PUSH1 0x8 SHR AND DUP1 ISZERO SWAP1 DUP2 DUP1 SWAP3 PUSH2 0x283D JUMPI JUMPDEST ISZERO PUSH2 0x272B JUMPI POP POP DUP1 SLOAD PUSH2 0xFF00 NOT AND PUSH2 0x100 OR SWAP1 SSTORE PUSH2 0x2706 SWAP2 SWAP1 DUP6 PUSH1 0xA PUSH2 0x10F6 DUP3 DUP11 PUSH2 0x31D4 JUMP JUMPDEST SWAP4 PUSH0 MSTORE PUSH1 0xC PUSH1 0x20 MSTORE PUSH1 0x40 PUSH0 KECCAK256 SWAP1 DUP2 SLOAD PUSH0 NOT DUP2 ADD SWAP1 DUP2 GT PUSH2 0x1129 JUMPI PUSH1 0x1 SWAP3 SSTORE JUMPDEST ADD PUSH2 0x2698 JUMP JUMPDEST DUP1 SWAP2 SWAP4 SWAP6 SWAP9 SWAP3 POP SWAP1 PUSH2 0x2828 JUMPI JUMPDEST ISZERO PUSH2 0x2756 JUMPI POP POP PUSH1 0x1 SWAP2 PUSH1 0x2 PUSH2 0x2750 SWAP3 ADD SLOAD SWAP1 PUSH2 0x2CDE JUMP JUMPDEST SWAP4 PUSH2 0x2725 JUMP JUMPDEST SWAP3 SWAP6 SWAP3 DUP6 SWAP1 DUP3 PUSH2 0x2810 JUMPI JUMPDEST POP POP PUSH2 0x2770 JUMPI POP PUSH1 0x1 SWAP1 PUSH2 0x2725 JUMP JUMPDEST SWAP2 SWAP5 SWAP7 POP POP PUSH1 0x1 SWAP2 POP SWAP6 SWAP4 SWAP6 ADD SSTORE JUMPDEST PUSH1 0x1 SLOAD PUSH2 0x2798 SWAP1 DUP5 SWAP1 DUP7 SWAP1 PUSH1 0x1 PUSH1 0x1 PUSH1 0xA0 SHL SUB AND PUSH2 0x440E JUMP JUMPDEST PUSH1 0x40 MLOAD DUP4 DUP2 MSTORE PUSH0 PUSH1 0x20 DUP3 ADD MSTORE SWAP1 DUP3 DUP1 PUSH32 0x96EE4F374D0394C5383B347DC3B7EC04A1ECEDDCD2E25521157BCE21C42B24D5 SWAP7 PUSH0 MLOAD PUSH1 0x20 PUSH2 0x459A PUSH0 CODECOPY PUSH0 MLOAD SWAP1 PUSH0 MSTORE PUSH1 0x80 DUP7 PUSH1 0x7 PUSH1 0x40 PUSH2 0x1222 SWAP10 ADD MSTORE TIMESTAMP PUSH1 0x60 DUP3 ADD MSTORE LOG4 PUSH1 0x40 MLOAD SWAP4 DUP5 SWAP4 TIMESTAMP SWAP3 DUP6 SWAP1 SWAP5 SWAP4 SWAP3 PUSH1 0x60 SWAP3 PUSH1 0x80 DUP4 ADD SWAP7 DUP4 MSTORE PUSH1 0x20 DUP4 ADD MSTORE PUSH1 0x40 DUP3 ADD MSTORE ADD MSTORE JUMP JUMPDEST PUSH1 0xA SWAP3 POP SWAP1 PUSH2 0x281E SWAP2 PUSH2 0x31D4 JUMP JUMPDEST DIV DUP6 LT DUP5 DUP12 PUSH2 0x2761 JUMP JUMPDEST POP PUSH1 0xA PUSH2 0x2835 DUP8 DUP4 PUSH2 0x31D4 JUMP JUMPDEST DIV DUP5 GT PUSH2 0x2738 JUMP JUMPDEST POP PUSH1 0xA PUSH2 0x284A DUP10 DUP12 PUSH2 0x31D4 JUMP JUMPDEST DIV DUP5 LT ISZERO PUSH2 0x26E0 JUMP JUMPDEST POP SWAP3 SWAP5 POP POP POP SWAP3 SWAP1 SWAP3 PUSH2 0x277F JUMP JUMPDEST PUSH1 0x64 PUSH1 0x40 MLOAD PUSH3 0x461BCD PUSH1 0xE5 SHL DUP2 MSTORE PUSH1 0x20 PUSH1 0x4 DUP3 ADD MSTORE PUSH1 0x20 PUSH1 0x24 DUP3 ADD MSTORE PUSH32 0x4E6F74207175616C6966696564206F7220616C726561647920636C61696D6564 PUSH1 0x44 DUP3 ADD MSTORE REVERT JUMPDEST PUSH1 0xFF SWAP2 POP AND ISZERO DUP6 PUSH2 0x25F8 JUMP JUMPDEST POP PUSH1 0x39 SLOAD DUP2 LT PUSH2 0x25B4 JUMP JUMPDEST POP DUP1 PUSH0 MSTORE PUSH1 0x3C PUSH1 0x20 MSTORE PUSH1 0x1 PUSH1 0xFF PUSH1 0x8 PUSH1 0x40 PUSH0 KECCAK256 ADD SLOAD AND ISZERO ISZERO EQ PUSH2 0x25AE JUMP JUMPDEST POP DUP1 ISZERO ISZERO PUSH2 0x25A8 JUMP JUMPDEST PUSH0 DUP1 REVERT JUMPDEST CALLVALUE PUSH2 0x28E3 JUMPI PUSH2 0x28F5 CALLDATASIZE PUSH2 0x2A93 JUMP JUMPDEST SWAP1 PUSH0 MSTORE PUSH1 0x33 PUSH1 0x20 MSTORE PUSH1 0x40 PUSH0 KECCAK256 DUP1 SLOAD DUP3 LT ISZERO PUSH2 0x28E3 JUMPI PUSH1 0x20 SWAP2 PUSH2 0x3E0 SWAP2 PUSH2 0x2B47 JUMP JUMPDEST CALLVALUE PUSH2 0x28E3 JUMPI PUSH2 0x2924 CALLDATASIZE PUSH2 0x2B5C JUMP JUMPDEST SWAP2 PUSH0 MSTORE PUSH1 0x36 PUSH1 0x20 MSTORE PUSH1 0x40 PUSH0 KECCAK256 SWAP1 PUSH0 MSTORE PUSH1 0x20 MSTORE PUSH1 0x40 PUSH0 KECCAK256 DUP1 SLOAD DUP3 LT ISZERO PUSH2 0x28E3 JUMPI PUSH1 0x20 SWAP2 PUSH2 0x3E0 SWAP2 PUSH2 0x2B47 JUMP JUMPDEST CALLVALUE PUSH2 0x28E3 JUMPI PUSH2 0x295D CALLDATASIZE PUSH2 0x2A93 JUMP JUMPDEST SWAP1 PUSH0 MSTORE PUSH1 0x3D PUSH1 0x20 MSTORE PUSH1 0x40 PUSH0 KECCAK256 DUP1 SLOAD DUP3 LT ISZERO PUSH2 0x28E3 JUMPI PUSH1 0x20 SWAP2 PUSH2 0x3E0 SWAP2 PUSH2 0x2B47 JUMP JUMPDEST CALLVALUE PUSH2 0x28E3 JUMPI PUSH1 0x20 CALLDATASIZE PUSH1 0x3 NOT ADD SLT PUSH2 0x28E3 JUMPI PUSH1 0x4 CALLDATALOAD PUSH0 MSTORE PUSH1 0xC PUSH1 0x20 MSTORE PUSH1 0x20 PUSH1 0x40 PUSH0 KECCAK256 SLOAD PUSH1 0x40 MLOAD SWAP1 DUP2 MSTORE RETURN JUMPDEST CALLVALUE PUSH2 0x28E3 JUMPI PUSH1 0x20 CALLDATASIZE PUSH1 0x3 NOT ADD SLT PUSH2 0x28E3 JUMPI PUSH1 0x4 CALLDATALOAD PUSH0 MSTORE PUSH1 0x4A PUSH1 0x20 MSTORE PUSH1 0x40 PUSH0 KECCAK256 DUP1 SLOAD PUSH2 0xB9C PUSH1 0x1 DUP4 ADD SLOAD SWAP3 PUSH1 0x2 DUP2 ADD SLOAD SWAP1 PUSH1 0x3 DUP2 ADD SLOAD PUSH1 0x4 DUP3 ADD SLOAD PUSH1 0x5 DUP4 ADD SLOAD SWAP1 PUSH1 0x6 DUP5 ADD SLOAD SWAP3 PUSH1 0xFF PUSH1 0x8 PUSH1 0x7 DUP8 ADD SLOAD SWAP7 ADD SLOAD AND SWAP6 PUSH1 0x40 MLOAD SWAP10 DUP11 SWAP10 DUP11 PUSH2 0x2AA9 JUMP JUMPDEST CALLVALUE PUSH2 0x28E3 JUMPI PUSH0 CALLDATASIZE PUSH1 0x3 NOT ADD SLT PUSH2 0x28E3 JUMPI PUSH1 0x20 PUSH1 0x40 MLOAD PUSH2 0x2710 DUP2 MSTORE RETURN JUMPDEST CALLVALUE PUSH2 0x28E3 JUMPI PUSH2 0x2A32 CALLDATASIZE PUSH2 0x2A93 JUMP JUMPDEST SWAP1 PUSH0 MSTORE PUSH1 0x3E PUSH1 0x20 MSTORE PUSH1 0x40 PUSH0 KECCAK256 SWAP1 PUSH0 MSTORE PUSH1 0x20 MSTORE DUP1 PUSH2 0xB9C PUSH1 0x40 PUSH0 KECCAK256 DUP1 SLOAD PUSH1 0x1 DUP3 ADD SLOAD SWAP2 PUSH1 0x3 PUSH1 0x2 DUP3 ADD SLOAD SWAP2 ADD SLOAD SWAP3 PUSH1 0xFF DUP1 DUP6 PUSH1 0x8 SHR AND SWAP5 AND SWAP3 DUP7 SWAP4 SWAP1 SWAP6 SWAP5 SWAP2 SWAP3 PUSH1 0x80 SWAP4 PUSH1 0xA0 DUP7 ADD SWAP8 DUP7 MSTORE PUSH1 0x20 DUP7 ADD MSTORE PUSH1 0x40 DUP6 ADD MSTORE ISZERO ISZERO PUSH1 0x60 DUP5 ADD MSTORE ISZERO ISZERO SWAP2 ADD MSTORE JUMP JUMPDEST PUSH1 0x40 SWAP1 PUSH1 0x3 NOT ADD SLT PUSH2 0x28E3 JUMPI PUSH1 0x4 CALLDATALOAD SWAP1 PUSH1 0x24 CALLDATALOAD SWAP1 JUMP JUMPDEST SWAP8 SWAP5 SWAP2 SWAP3 PUSH2 0x100 SWAP8 SWAP5 SWAP2 SWAP11 SWAP10 SWAP7 SWAP4 PUSH2 0x120 DUP11 ADD SWAP12 DUP11 MSTORE PUSH1 0x20 DUP11 ADD MSTORE PUSH1 0x40 DUP10 ADD MSTORE PUSH1 0x60 DUP9 ADD MSTORE PUSH1 0x80 DUP8 ADD MSTORE PUSH1 0xA0 DUP7 ADD MSTORE PUSH1 0xC0 DUP6 ADD MSTORE PUSH1 0xE0 DUP5 ADD MSTORE ISZERO ISZERO SWAP2 ADD MSTORE JUMP JUMPDEST PUSH1 0xD SLOAD DUP2 LT ISZERO PUSH2 0x2B01 JUMPI PUSH1 0xD PUSH0 MSTORE PUSH1 0x20 PUSH0 KECCAK256 ADD SWAP1 PUSH0 SWAP1 JUMP JUMPDEST PUSH4 0x4E487B71 PUSH1 0xE0 SHL PUSH0 MSTORE PUSH1 0x32 PUSH1 0x4 MSTORE PUSH1 0x24 PUSH0 REVERT JUMPDEST PUSH1 0xD SLOAD ISZERO PUSH2 0x2B01 JUMPI PUSH1 0xD PUSH0 SWAP1 DUP2 MSTORE PUSH32 0xD7B6990105719101DABEB77144F2A3385C8033ACD3AF97E9423A695E81AD1EB5 SWAP2 JUMP JUMPDEST DUP1 SLOAD DUP3 LT ISZERO PUSH2 0x2B01 JUMPI PUSH0 MSTORE PUSH1 0x20 PUSH0 KECCAK256 ADD SWAP1 PUSH0 SWAP1 JUMP JUMPDEST PUSH1 0x60 SWAP1 PUSH1 0x3 NOT ADD SLT PUSH2 0x28E3 JUMPI PUSH1 0x4 CALLDATALOAD SWAP1 PUSH1 0x24 CALLDATALOAD SWAP1 PUSH1 0x44 CALLDATALOAD SWAP1 JUMP JUMPDEST CALLVALUE PUSH2 0x28E3 JUMPI PUSH0 CALLDATASIZE PUSH1 0x3 NOT ADD SLT PUSH2 0x28E3 JUMPI PUSH1 0x20 PUSH1 0x40 MLOAD PUSH1 0xA DUP2 MSTORE RETURN JUMPDEST CALLVALUE PUSH2 0x28E3 JUMPI PUSH0 CALLDATASIZE PUSH1 0x3 NOT ADD SLT PUSH2 0x28E3 JUMPI PUSH1 0x20 PUSH1 0x40 MLOAD PUSH1 0xF DUP2 MSTORE RETURN JUMPDEST ISZERO PUSH2 0x2BB3 JUMPI JUMP JUMPDEST PUSH1 0x40 MLOAD PUSH3 0x461BCD PUSH1 0xE5 SHL DUP2 MSTORE PUSH1 0x20 PUSH1 0x4 DUP3 ADD MSTORE PUSH1 0x10 PUSH1 0x24 DUP3 ADD MSTORE PUSH16 0x139BDD081E5BDD5C881858D8DBDD5B9D PUSH1 0x82 SHL PUSH1 0x44 DUP3 ADD MSTORE PUSH1 0x64 SWAP1 REVERT JUMPDEST ISZERO PUSH2 0x2BF2 JUMPI JUMP JUMPDEST PUSH1 0x40 MLOAD PUSH3 0x461BCD PUSH1 0xE5 SHL DUP2 MSTORE PUSH1 0x20 PUSH1 0x4 DUP3 ADD MSTORE PUSH1 0x30 PUSH1 0x24 DUP3 ADD MSTORE PUSH32 0x496E76616C696420757365724964206F7220726F756E644964206F7220726F75 PUSH1 0x44 DUP3 ADD MSTORE PUSH16 0x1B99081BDC881B9BDD0818DB1BDCD959 PUSH1 0x82 SHL PUSH1 0x64 DUP3 ADD MSTORE PUSH1 0x84 SWAP1 REVERT JUMPDEST ISZERO PUSH2 0x2C57 JUMPI JUMP JUMPDEST PUSH1 0x40 MLOAD PUSH3 0x461BCD PUSH1 0xE5 SHL DUP2 MSTORE PUSH1 0x20 PUSH1 0x4 DUP3 ADD MSTORE PUSH1 0x12 PUSH1 0x24 DUP3 ADD MSTORE PUSH18 0x4E6F2072657761726420746F20636C61696D PUSH1 0x70 SHL PUSH1 0x44 DUP3 ADD MSTORE PUSH1 0x64 SWAP1 REVERT JUMPDEST ISZERO PUSH2 0x2C98 JUMPI JUMP JUMPDEST PUSH1 0x40 MLOAD PUSH3 0x461BCD PUSH1 0xE5 SHL DUP2 MSTORE PUSH1 0x20 PUSH1 0x4 DUP3 ADD MSTORE PUSH1 0x11 PUSH1 0x24 DUP3 ADD MSTORE PUSH17 0x105B1B081D5CD95C9CC818DB185A5B5959 PUSH1 0x7A SHL PUSH1 0x44 DUP3 ADD MSTORE PUSH1 0x64 SWAP1 REVERT JUMPDEST SWAP2 SWAP1 DUP3 ADD DUP1 SWAP3 GT PUSH2 0x1129 JUMPI JUMP JUMPDEST SWAP2 SWAP1 DUP3 SUB SWAP2 DUP3 GT PUSH2 0x1129 JUMPI JUMP JUMPDEST DUP2 ISZERO PUSH2 0x2CF5 JUMPI DIV SWAP1 JUMP JUMPDEST PUSH4 0x4E487B71 PUSH1 0xE0 SHL PUSH0 MSTORE PUSH1 0x12 PUSH1 0x4 MSTORE PUSH1 0x24 PUSH0 REVERT JUMPDEST SWAP1 DUP2 PUSH0 MSTORE PUSH1 0x10 PUSH1 0x20 MSTORE PUSH1 0x40 PUSH0 KECCAK256 PUSH1 0x3 DUP2 ADD SLOAD ISZERO PUSH2 0x3083 JUMPI SLOAD PUSH2 0x2D35 SWAP1 PUSH1 0x1 PUSH1 0x1 PUSH1 0xA0 SHL SUB AND CALLER EQ PUSH2 0x2BAC JUMP JUMPDEST DUP2 PUSH0 MSTORE PUSH1 0xE PUSH1 0x20 MSTORE PUSH1 0x40 PUSH0 KECCAK256 DUP2 PUSH0 MSTORE PUSH1 0x20 MSTORE PUSH1 0xFF PUSH1 0x3 PUSH1 0x40 PUSH0 KECCAK256 ADD SLOAD AND ISZERO PUSH2 0x304C JUMPI DUP2 PUSH0 MSTORE PUSH1 0xE PUSH1 0x20 MSTORE PUSH1 0x40 PUSH0 KECCAK256 DUP2 PUSH0 MSTORE PUSH1 0x20 MSTORE PUSH1 0xFF PUSH1 0x3 PUSH1 0x40 PUSH0 KECCAK256 ADD SLOAD PUSH1 0x8 SHR AND PUSH2 0x3016 JUMPI DUP1 PUSH0 MSTORE PUSH1 0xA PUSH1 0x20 MSTORE PUSH1 0x40 PUSH0 KECCAK256 SLOAD SWAP2 DUP2 PUSH0 MSTORE PUSH1 0xB PUSH1 0x20 MSTORE PUSH1 0x40 PUSH0 KECCAK256 DUP2 PUSH0 MSTORE PUSH1 0x20 MSTORE PUSH1 0x40 PUSH0 KECCAK256 SLOAD DUP1 DUP5 EQ PUSH2 0x3010 JUMPI PUSH2 0x2DBA PUSH8 0xDE0B6B3A7640000 SWAP2 DUP6 PUSH2 0x2CDE JUMP JUMPDEST DIV SWAP2 DUP3 ISZERO PUSH2 0x2FF5 JUMPI PUSH2 0x2DCC DUP4 DUP4 PUSH2 0x356D JUMP JUMPDEST SWAP4 DUP2 PUSH0 MSTORE PUSH1 0xB PUSH1 0x20 MSTORE PUSH1 0x40 PUSH0 KECCAK256 DUP4 PUSH0 MSTORE PUSH1 0x20 MSTORE PUSH1 0x40 PUSH0 KECCAK256 SSTORE DUP4 ISZERO SWAP2 DUP3 ISZERO PUSH2 0x2E0B JUMPI JUMPDEST POP POP POP DUP2 DUP2 GT PUSH2 0x2DFC JUMPI POP POP JUMP JUMPDEST PUSH2 0x2E09 SWAP2 PUSH2 0x74D SWAP2 PUSH2 0x2CDE JUMP JUMPDEST JUMP JUMPDEST PUSH0 DUP2 DUP2 MSTORE PUSH1 0x10 PUSH1 0x20 MSTORE PUSH1 0x40 SWAP1 KECCAK256 DUP1 SLOAD PUSH1 0x1 PUSH1 0x1 PUSH1 0xA0 SHL SUB AND SWAP7 SWAP1 SWAP6 SWAP2 SWAP4 SWAP1 SWAP3 SWAP1 DUP8 ISZERO PUSH2 0x12C3 JUMPI PUSH2 0x1290 JUMPI DUP4 PUSH0 MSTORE PUSH1 0x11 PUSH1 0x20 MSTORE PUSH1 0x40 PUSH0 KECCAK256 PUSH2 0x2E4C DUP4 DUP3 SLOAD PUSH2 0x2CD1 JUMP JUMPDEST DUP2 SSTORE PUSH1 0x6 DUP2 ADD PUSH2 0x2E5D DUP5 DUP3 SLOAD PUSH2 0x2CD1 JUMP JUMPDEST SWAP1 SSTORE SLOAD SWAP3 PUSH1 0xB DUP8 ADD SLOAD SWAP3 PUSH1 0x6 PUSH0 SWAP9 ADD SWAP8 JUMPDEST DUP9 SLOAD DUP2 LT ISZERO PUSH2 0x2FE8 JUMPI PUSH2 0x2E80 DUP2 PUSH2 0x2AE9 JUMP JUMPDEST SWAP1 SLOAD SWAP1 PUSH1 0x3 SHL SHR SWAP6 DUP8 PUSH0 MSTORE PUSH1 0xE PUSH1 0x20 MSTORE PUSH1 0x40 PUSH0 KECCAK256 DUP8 PUSH0 MSTORE PUSH1 0x20 MSTORE PUSH1 0x40 PUSH0 KECCAK256 SWAP1 PUSH1 0x3 DUP3 ADD PUSH1 0xFF DUP2 SLOAD PUSH1 0x8 SHR AND DUP1 ISZERO SWAP1 DUP2 DUP1 SWAP3 PUSH2 0x2FD2 JUMPI JUMPDEST ISZERO PUSH2 0x2F01 JUMPI POP POP DUP1 SLOAD PUSH2 0xFF00 NOT AND PUSH2 0x100 OR SWAP1 SSTORE PUSH2 0x2EDC SWAP2 SWAP1 DUP8 PUSH1 0xA PUSH2 0x10F6 DUP3 DUP13 PUSH2 0x31D4 JUMP JUMPDEST SWAP6 PUSH0 MSTORE PUSH1 0xC PUSH1 0x20 MSTORE PUSH1 0x40 PUSH0 KECCAK256 SWAP1 DUP2 SLOAD PUSH0 NOT DUP2 ADD SWAP1 DUP2 GT PUSH2 0x1129 JUMPI PUSH1 0x1 SWAP3 SSTORE JUMPDEST ADD PUSH2 0x2E6E JUMP JUMPDEST DUP1 SWAP2 SWAP4 SWAP6 SWAP11 SWAP3 POP SWAP1 PUSH2 0x2FBD JUMPI JUMPDEST ISZERO PUSH2 0x2F2C JUMPI POP POP PUSH1 0x1 SWAP2 PUSH1 0x2 PUSH2 0x2F26 SWAP3 ADD SLOAD SWAP1 PUSH2 0x2CDE JUMP JUMPDEST SWAP6 PUSH2 0x2EFB JUMP JUMPDEST SWAP3 SWAP8 SWAP3 DUP8 SWAP1 DUP3 PUSH2 0x2FA5 JUMPI JUMPDEST POP POP PUSH2 0x2F46 JUMPI POP PUSH1 0x1 SWAP1 PUSH2 0x2EFB JUMP JUMPDEST SWAP2 SWAP9 POP POP PUSH1 0x1 SWAP2 SWAP9 SWAP4 POP SWAP4 SWAP2 SWAP4 ADD SSTORE JUMPDEST PUSH1 0x1 SLOAD PUSH2 0x2F6F SWAP1 DUP7 SWAP1 DUP4 SWAP1 PUSH1 0x1 PUSH1 0x1 PUSH1 0xA0 SHL SUB AND PUSH2 0x440E JUMP JUMPDEST PUSH1 0x40 MLOAD DUP6 DUP2 MSTORE PUSH1 0x20 DUP2 ADD SWAP3 SWAP1 SWAP3 MSTORE PUSH0 MLOAD PUSH1 0x20 PUSH2 0x459A PUSH0 CODECOPY PUSH0 MLOAD SWAP1 PUSH0 MSTORE PUSH1 0x80 DUP4 PUSH1 0x4 PUSH1 0x40 DUP8 SWAP7 ADD MSTORE TIMESTAMP PUSH1 0x60 DUP3 ADD MSTORE LOG4 PUSH0 DUP1 DUP1 PUSH2 0x2DEE JUMP JUMPDEST PUSH1 0xA SWAP3 POP SWAP1 PUSH2 0x2FB3 SWAP2 PUSH2 0x31D4 JUMP JUMPDEST DIV DUP8 LT DUP7 PUSH0 PUSH2 0x2F37 JUMP JUMPDEST POP PUSH1 0xA PUSH2 0x2FCA DUP10 DUP4 PUSH2 0x31D4 JUMP JUMPDEST DIV DUP5 GT PUSH2 0x2F0E JUMP JUMPDEST POP PUSH1 0xA PUSH2 0x2FDF DUP12 DUP14 PUSH2 0x31D4 JUMP JUMPDEST DIV DUP5 LT ISZERO PUSH2 0x2EB6 JUMP JUMPDEST POP SWAP7 POP SWAP7 SWAP2 POP SWAP2 POP PUSH2 0x2F56 JUMP JUMPDEST SWAP1 SWAP2 POP PUSH0 MSTORE PUSH1 0xB PUSH1 0x20 MSTORE PUSH1 0x40 PUSH0 KECCAK256 SWAP1 PUSH0 MSTORE PUSH1 0x20 MSTORE PUSH1 0x40 PUSH0 KECCAK256 SSTORE JUMP JUMPDEST POP POP POP POP JUMP JUMPDEST PUSH1 0x40 MLOAD PUSH3 0x461BCD PUSH1 0xE5 SHL DUP2 MSTORE PUSH1 0x20 PUSH1 0x4 DUP3 ADD MSTORE PUSH1 0xE PUSH1 0x24 DUP3 ADD MSTORE PUSH14 0x141858DAD859D94810DB1BDCD959 PUSH1 0x92 SHL PUSH1 0x44 DUP3 ADD MSTORE PUSH1 0x64 SWAP1 REVERT JUMPDEST PUSH1 0x40 MLOAD PUSH3 0x461BCD PUSH1 0xE5 SHL DUP2 MSTORE PUSH1 0x20 PUSH1 0x4 DUP3 ADD MSTORE PUSH1 0xF PUSH1 0x24 DUP3 ADD MSTORE PUSH15 0x496E76616C6964207061636B616765 PUSH1 0x88 SHL PUSH1 0x44 DUP3 ADD MSTORE PUSH1 0x64 SWAP1 REVERT JUMPDEST PUSH1 0x40 MLOAD PUSH3 0x461BCD PUSH1 0xE5 SHL DUP2 MSTORE PUSH1 0x20 PUSH1 0x4 DUP3 ADD MSTORE PUSH1 0xE PUSH1 0x24 DUP3 ADD MSTORE PUSH14 0x155CD95C881B9BDD08199BDD5B99 PUSH1 0x92 SHL PUSH1 0x44 DUP3 ADD MSTORE PUSH1 0x64 SWAP1 REVERT JUMPDEST ISZERO PUSH2 0x30C0 JUMPI JUMP JUMPDEST PUSH1 0x40 MLOAD PUSH3 0x461BCD PUSH1 0xE5 SHL DUP2 MSTORE PUSH1 0x20 PUSH1 0x4 DUP3 ADD MSTORE PUSH1 0xE PUSH1 0x24 DUP3 ADD MSTORE PUSH14 0x2737BA1038BAB0B634B334B2B21 PUSH1 0x95 SHL PUSH1 0x44 DUP3 ADD MSTORE PUSH1 0x64 SWAP1 REVERT JUMPDEST ISZERO PUSH2 0x30FD JUMPI JUMP JUMPDEST PUSH1 0x40 MLOAD PUSH3 0x461BCD PUSH1 0xE5 SHL DUP2 MSTORE PUSH1 0x20 PUSH1 0x4 DUP3 ADD MSTORE PUSH1 0x1E PUSH1 0x24 DUP3 ADD MSTORE PUSH32 0x416C726561647920636C61696D656420666F72207468697320726F756E640000 PUSH1 0x44 DUP3 ADD MSTORE PUSH1 0x64 SWAP1 REVERT JUMPDEST ISZERO PUSH2 0x3149 JUMPI JUMP JUMPDEST PUSH1 0x40 MLOAD PUSH3 0x461BCD PUSH1 0xE5 SHL DUP2 MSTORE PUSH1 0x20 PUSH1 0x4 DUP3 ADD MSTORE PUSH1 0x15 PUSH1 0x24 DUP3 ADD MSTORE PUSH21 0x4E6F7420656C696769626C6520746F20636C61696D PUSH1 0x58 SHL PUSH1 0x44 DUP3 ADD MSTORE PUSH1 0x64 SWAP1 REVERT JUMPDEST SWAP1 PUSH1 0x1F DUP1 NOT SWAP2 ADD AND DUP2 ADD SWAP1 DUP2 LT PUSH8 0xFFFFFFFFFFFFFFFF DUP3 GT OR PUSH2 0x31A8 JUMPI PUSH1 0x40 MSTORE JUMP JUMPDEST PUSH4 0x4E487B71 PUSH1 0xE0 SHL PUSH0 MSTORE PUSH1 0x41 PUSH1 0x4 MSTORE PUSH1 0x24 PUSH0 REVERT JUMPDEST SWAP1 DUP2 PUSH1 0x20 SWAP2 SUB SLT PUSH2 0x28E3 JUMPI MLOAD DUP1 ISZERO ISZERO DUP2 SUB PUSH2 0x28E3 JUMPI SWAP1 JUMP JUMPDEST DUP2 DUP2 MUL SWAP3 SWAP2 DUP2 ISZERO SWAP2 DUP5 DIV EQ OR ISZERO PUSH2 0x1129 JUMPI JUMP JUMPDEST SWAP2 SWAP1 DUP3 PUSH0 MSTORE PUSH1 0x10 PUSH1 0x20 MSTORE PUSH1 0x3 PUSH1 0x40 PUSH0 KECCAK256 ADD SLOAD ISZERO PUSH2 0x3256 JUMPI DUP1 PUSH0 MSTORE PUSH1 0xA PUSH1 0x20 MSTORE PUSH1 0x40 PUSH0 KECCAK256 SLOAD SWAP1 PUSH0 MSTORE PUSH1 0xB PUSH1 0x20 MSTORE PUSH1 0x40 PUSH0 KECCAK256 DUP4 PUSH0 MSTORE PUSH1 0x20 MSTORE PUSH1 0x40 PUSH0 KECCAK256 SLOAD SWAP1 DUP2 DUP2 GT ISZERO PUSH2 0x324C JUMPI PUSH2 0x3241 PUSH2 0x3249 SWAP3 PUSH8 0xDE0B6B3A7640000 SWAP3 PUSH2 0x2CDE JUMP JUMPDEST DIV DUP1 SWAP4 PUSH2 0x356D JUMP JUMPDEST SWAP1 JUMP JUMPDEST POP POP SWAP1 POP PUSH0 SWAP1 PUSH0 SWAP1 JUMP JUMPDEST POP PUSH0 SWAP2 POP DUP2 SWAP1 JUMP JUMPDEST PUSH0 MSTORE PUSH1 0x45 PUSH1 0x20 MSTORE PUSH1 0x40 PUSH0 KECCAK256 DUP2 PUSH0 MSTORE PUSH1 0x43 PUSH1 0x20 MSTORE PUSH1 0x40 PUSH0 KECCAK256 SWAP1 PUSH1 0xFF PUSH1 0x8 DUP4 ADD SLOAD AND ISZERO SWAP3 DUP4 ISZERO PUSH2 0x32FA JUMPI JUMPDEST DUP4 ISZERO PUSH2 0x32EA JUMPI JUMPDEST DUP4 ISZERO PUSH2 0x32DB JUMPI JUMPDEST DUP4 ISZERO PUSH2 0x32C0 JUMPI JUMPDEST POP POP DUP2 ISZERO PUSH2 0x32B3 JUMPI JUMPDEST POP PUSH2 0x32AF JUMPI PUSH1 0x1 SWAP1 JUMP JUMPDEST PUSH0 SWAP1 JUMP JUMPDEST PUSH1 0x3 SWAP2 POP ADD SLOAD ISZERO PUSH0 PUSH2 0x32A5 JUMP JUMPDEST PUSH1 0x3 SWAP3 SWAP4 POP PUSH0 MSTORE ADD PUSH1 0x20 MSTORE PUSH1 0xFF PUSH1 0x40 PUSH0 KECCAK256 SLOAD AND SWAP1 PUSH0 DUP1 PUSH2 0x329C JUMP JUMPDEST DUP1 SWAP4 POP PUSH1 0x1 DUP3 ADD SLOAD GT SWAP3 PUSH2 0x3295 JUMP JUMPDEST PUSH1 0x4 DUP3 ADD SLOAD PUSH1 0xFF AND ISZERO SWAP4 POP PUSH2 0x328E JUMP JUMPDEST PUSH1 0x40 SLOAD DUP2 LT ISZERO SWAP4 POP PUSH2 0x3287 JUMP JUMPDEST DUP1 SLOAD PUSH1 0x1 PUSH1 0x40 SHL DUP2 LT ISZERO PUSH2 0x31A8 JUMPI PUSH2 0x3324 SWAP2 PUSH1 0x1 DUP3 ADD DUP2 SSTORE PUSH2 0x2B47 JUMP JUMPDEST DUP2 SWAP3 SWAP2 SLOAD SWAP1 PUSH1 0x3 SHL SWAP2 DUP3 SHL SWAP2 PUSH0 NOT SWAP1 SHL NOT AND OR SWAP1 SSTORE JUMP JUMPDEST PUSH1 0x2 PUSH0 SLOAD EQ PUSH2 0x334A JUMPI PUSH1 0x2 PUSH0 SSTORE JUMP JUMPDEST PUSH1 0x40 MLOAD PUSH3 0x461BCD PUSH1 0xE5 SHL DUP2 MSTORE PUSH1 0x20 PUSH1 0x4 DUP3 ADD MSTORE PUSH1 0x1F PUSH1 0x24 DUP3 ADD MSTORE PUSH32 0x5265656E7472616E637947756172643A207265656E7472616E742063616C6C00 PUSH1 0x44 DUP3 ADD MSTORE PUSH1 0x64 SWAP1 REVERT JUMPDEST SWAP2 SWAP1 SWAP3 SWAP4 DUP3 PUSH0 MSTORE PUSH1 0x10 PUSH1 0x20 MSTORE PUSH1 0x40 PUSH0 KECCAK256 SWAP4 PUSH1 0x1 DUP1 PUSH1 0xA0 SHL SUB DUP6 SLOAD AND SWAP3 DUP4 ISZERO PUSH2 0x12C3 JUMPI DUP1 ISZERO PUSH2 0x1290 JUMPI DUP5 PUSH0 MSTORE PUSH1 0x11 PUSH1 0x20 MSTORE PUSH1 0x40 PUSH0 KECCAK256 PUSH2 0x33CE DUP3 DUP3 SLOAD PUSH2 0x2CD1 JUMP JUMPDEST DUP2 SSTORE PUSH1 0x1 DUP2 ADD PUSH2 0x33DF DUP4 DUP3 SLOAD PUSH2 0x2CD1 JUMP JUMPDEST SWAP1 SSTORE SLOAD SWAP3 PUSH1 0xB DUP8 ADD SLOAD SWAP3 PUSH1 0x6 PUSH0 SWAP9 ADD SWAP8 JUMPDEST DUP9 SLOAD DUP2 LT ISZERO PUSH2 0x3560 JUMPI PUSH2 0x3402 DUP2 PUSH2 0x2AE9 JUMP JUMPDEST SWAP1 SLOAD SWAP1 PUSH1 0x3 SHL SHR SWAP6 DUP9 PUSH0 MSTORE PUSH1 0xE PUSH1 0x20 MSTORE PUSH1 0x40 PUSH0 KECCAK256 DUP8 PUSH0 MSTORE PUSH1 0x20 MSTORE PUSH1 0x40 PUSH0 KECCAK256 SWAP1 PUSH1 0x3 DUP3 ADD PUSH1 0xFF DUP2 SLOAD PUSH1 0x8 SHR AND DUP1 ISZERO SWAP1 DUP2 DUP1 SWAP3 PUSH2 0x354A JUMPI JUMPDEST ISZERO PUSH2 0x3483 JUMPI POP POP DUP1 SLOAD PUSH2 0xFF00 NOT AND PUSH2 0x100 OR SWAP1 SSTORE PUSH2 0x345E SWAP2 SWAP1 DUP8 PUSH1 0xA PUSH2 0x10F6 DUP3 DUP13 PUSH2 0x31D4 JUMP JUMPDEST SWAP6 PUSH0 MSTORE PUSH1 0xC PUSH1 0x20 MSTORE PUSH1 0x40 PUSH0 KECCAK256 SWAP1 DUP2 SLOAD PUSH0 NOT DUP2 ADD SWAP1 DUP2 GT PUSH2 0x1129 JUMPI PUSH1 0x1 SWAP3 SSTORE JUMPDEST ADD PUSH2 0x33F0 JUMP JUMPDEST DUP1 SWAP2 SWAP4 SWAP6 SWAP11 SWAP3 POP SWAP1 PUSH2 0x3535 JUMPI JUMPDEST ISZERO PUSH2 0x34AE JUMPI POP POP PUSH1 0x1 SWAP2 PUSH1 0x2 PUSH2 0x34A8 SWAP3 ADD SLOAD SWAP1 PUSH2 0x2CDE JUMP JUMPDEST SWAP6 PUSH2 0x347D JUMP JUMPDEST SWAP3 SWAP8 SWAP3 DUP8 SWAP1 DUP3 PUSH2 0x351D JUMPI JUMPDEST POP POP PUSH2 0x34C8 JUMPI POP PUSH1 0x1 SWAP1 PUSH2 0x347D JUMP JUMPDEST SWAP2 SWAP9 POP POP PUSH1 0x1 SWAP2 SWAP9 SWAP4 POP SWAP4 SWAP2 SWAP4 ADD SSTORE JUMPDEST PUSH1 0x1 SLOAD PUSH2 0x34F1 SWAP1 DUP4 SWAP1 DUP6 SWAP1 PUSH1 0x1 PUSH1 0x1 PUSH1 0xA0 SHL SUB AND PUSH2 0x440E JUMP JUMPDEST PUSH1 0x40 MLOAD SWAP2 DUP3 MSTORE PUSH1 0x20 DUP3 ADD MSTORE PUSH1 0x80 DUP2 PUSH1 0x1 PUSH1 0x40 PUSH0 MLOAD PUSH1 0x20 PUSH2 0x459A PUSH0 CODECOPY PUSH0 MLOAD SWAP1 PUSH0 MSTORE SWAP5 ADD MSTORE TIMESTAMP PUSH1 0x60 DUP3 ADD MSTORE LOG4 JUMP JUMPDEST PUSH1 0xA SWAP3 POP SWAP1 PUSH2 0x352B SWAP2 PUSH2 0x31D4 JUMP JUMPDEST DIV DUP8 LT DUP7 PUSH0 PUSH2 0x34B9 JUMP JUMPDEST POP PUSH1 0xA PUSH2 0x3542 DUP10 DUP4 PUSH2 0x31D4 JUMP JUMPDEST DIV DUP5 GT PUSH2 0x3490 JUMP JUMPDEST POP PUSH1 0xA PUSH2 0x3557 DUP12 DUP14 PUSH2 0x31D4 JUMP JUMPDEST DIV DUP5 LT ISZERO PUSH2 0x3438 JUMP JUMPDEST POP SWAP7 POP SWAP7 SWAP2 POP SWAP2 POP PUSH2 0x34D8 JUMP JUMPDEST DUP1 PUSH0 MSTORE PUSH1 0x10 PUSH1 0x20 MSTORE PUSH1 0x40 PUSH0 KECCAK256 SWAP1 PUSH0 MSTORE PUSH1 0x11 PUSH1 0x20 MSTORE PUSH1 0xA PUSH2 0x3599 PUSH1 0x40 PUSH0 KECCAK256 SWAP3 DUP3 PUSH1 0xB DUP3 ADD SLOAD SWAP2 ADD SLOAD PUSH2 0x31D4 JUMP JUMPDEST DIV SWAP1 SLOAD DUP2 DUP2 LT ISZERO PUSH2 0x35BF JUMPI PUSH2 0x35AD SWAP2 PUSH2 0x2CDE JUMP JUMPDEST SWAP1 DUP2 DUP2 GT ISZERO PUSH2 0x35BA JUMPI POP SWAP1 JUMP JUMPDEST SWAP1 POP SWAP1 JUMP JUMPDEST POP POP POP PUSH0 SWAP1 JUMP JUMPDEST PUSH1 0x2 SLOAD PUSH1 0x1 PUSH1 0x1 PUSH1 0xA0 SHL SUB AND SWAP1 DUP2 ISZERO PUSH2 0x3649 JUMPI PUSH1 0x1 SLOAD PUSH1 0x80 SWAP3 PUSH2 0x35F4 SWAP2 DUP4 SWAP2 SWAP1 PUSH1 0x1 PUSH1 0x1 PUSH1 0xA0 SHL SUB AND PUSH2 0x440E JUMP JUMPDEST PUSH1 0x5 SLOAD PUSH0 MSTORE PUSH1 0x11 PUSH1 0x20 MSTORE PUSH1 0x40 PUSH0 KECCAK256 PUSH2 0x360D DUP3 DUP3 SLOAD PUSH2 0x2CD1 JUMP JUMPDEST SWAP1 SSTORE PUSH1 0x1 DUP1 PUSH1 0xA0 SHL SUB PUSH1 0x2 SLOAD AND PUSH0 MLOAD PUSH1 0x20 PUSH2 0x459A PUSH0 CODECOPY PUSH0 MLOAD SWAP1 PUSH0 MSTORE PUSH1 0x5 SLOAD SWAP4 DUP5 SWAP4 PUSH1 0x40 MLOAD SWAP1 DUP2 MSTORE PUSH0 PUSH1 0x20 DUP3 ADD MSTORE PUSH0 PUSH1 0x40 DUP3 ADD MSTORE TIMESTAMP PUSH1 0x60 DUP3 ADD MSTORE LOG4 JUMP JUMPDEST PUSH1 0x40 MLOAD PUSH3 0x461BCD PUSH1 0xE5 SHL DUP2 MSTORE PUSH1 0x20 PUSH1 0x4 DUP3 ADD MSTORE PUSH1 0x11 PUSH1 0x24 DUP3 ADD MSTORE PUSH17 0x199959481859191C9CC81B9BDD081CD95D PUSH1 0x7A SHL PUSH1 0x44 DUP3 ADD MSTORE PUSH1 0x64 SWAP1 REVERT JUMPDEST SWAP1 PUSH0 MSTORE PUSH1 0xC PUSH1 0x20 MSTORE PUSH1 0x40 PUSH0 KECCAK256 SLOAD SWAP1 DUP2 ISZERO DUP1 ISZERO PUSH2 0x36EB JUMPI JUMPDEST PUSH2 0x36D8 JUMPI PUSH8 0xDE0B6B3A7640000 DUP2 MUL SWAP1 DUP1 DUP3 DIV PUSH8 0xDE0B6B3A7640000 EQ SWAP1 ISZERO OR ISZERO PUSH2 0x1129 JUMPI PUSH2 0x36D3 SWAP2 PUSH2 0x36CB SWAP2 PUSH2 0x2CEB JUMP JUMPDEST PUSH1 0x9 SLOAD PUSH2 0x2CD1 JUMP JUMPDEST PUSH1 0x9 SSTORE JUMP JUMPDEST DUP1 SWAP2 POP PUSH2 0x36E2 JUMPI POP JUMP JUMPDEST PUSH2 0x2E09 SWAP1 PUSH2 0x35C6 JUMP JUMPDEST POP DUP1 ISZERO PUSH2 0x3699 JUMP JUMPDEST DUP1 ISZERO DUP1 ISZERO PUSH2 0x3718 JUMPI JUMPDEST PUSH2 0x370D JUMPI SWAP2 PUSH1 0x1 SWAP2 PUSH2 0x2E09 SWAP4 PUSH2 0x338F JUMP JUMPDEST POP POP PUSH2 0x2E09 SWAP1 PUSH2 0x35C6 JUMP JUMPDEST POP PUSH1 0x5 SLOAD DUP2 EQ PUSH2 0x36FC JUMP JUMPDEST SWAP3 SWAP2 SWAP1 DUP4 ISZERO DUP1 ISZERO PUSH2 0x3749 JUMPI JUMPDEST PUSH2 0x373C JUMPI PUSH2 0x2E09 SWAP4 PUSH2 0x338F JUMP JUMPDEST POP SWAP1 POP PUSH2 0x2E09 SWAP2 POP PUSH2 0x35C6 JUMP JUMPDEST POP PUSH1 0x5 SLOAD DUP5 EQ PUSH2 0x372F JUMP JUMPDEST PUSH0 NOT DUP2 EQ PUSH2 0x1129 JUMPI PUSH1 0x1 ADD SWAP1 JUMP JUMPDEST SWAP3 SWAP2 SWAP3 PUSH1 0x5 SLOAD DUP2 EQ DUP1 ISZERO PUSH2 0x3A0C JUMPI JUMPDEST PUSH2 0x3A00 JUMPI PUSH1 0x1 JUMPDEST DUP4 DUP2 LT PUSH2 0x39CF JUMPI POP PUSH0 SWAP1 JUMPDEST DUP1 ISZERO ISZERO DUP1 PUSH2 0x39C3 JUMPI JUMPDEST DUP1 PUSH2 0x39B9 JUMPI JUMPDEST ISZERO PUSH2 0x39AC JUMPI DUP1 PUSH0 MSTORE PUSH1 0x10 PUSH1 0x20 MSTORE PUSH1 0x40 PUSH0 KECCAK256 SWAP1 DUP5 PUSH1 0x6 DUP4 ADD SLOAD LT ISZERO PUSH2 0x37C5 JUMPI POP PUSH1 0x5 PUSH2 0x37BF SWAP2 ADD SLOAD SWAP2 PUSH2 0x3754 JUMP JUMPDEST SWAP1 PUSH2 0x3783 JUMP JUMPDEST PUSH0 DUP2 DUP2 MSTORE PUSH1 0x10 PUSH1 0x20 MSTORE PUSH1 0x40 SWAP1 KECCAK256 DUP1 SLOAD SWAP6 SWAP8 SWAP1 SWAP7 SWAP2 SWAP6 PUSH1 0x1 PUSH1 0x1 PUSH1 0xA0 SHL SUB AND SWAP5 SWAP1 SWAP4 POP SWAP2 POP DUP4 ISZERO PUSH2 0x12C3 JUMPI DUP1 ISZERO PUSH2 0x1290 JUMPI DUP5 PUSH0 MSTORE PUSH1 0x11 PUSH1 0x20 MSTORE PUSH1 0x40 PUSH0 KECCAK256 PUSH2 0x380C DUP3 DUP3 SLOAD PUSH2 0x2CD1 JUMP JUMPDEST DUP2 SSTORE PUSH1 0x2 DUP2 ADD PUSH2 0x381D DUP4 DUP3 SLOAD PUSH2 0x2CD1 JUMP JUMPDEST SWAP1 SSTORE SLOAD SWAP3 PUSH1 0xB DUP8 ADD SLOAD SWAP3 PUSH1 0x6 PUSH0 SWAP9 ADD SWAP8 JUMPDEST DUP9 SLOAD DUP2 LT ISZERO PUSH2 0x399F JUMPI PUSH2 0x3840 DUP2 PUSH2 0x2AE9 JUMP JUMPDEST SWAP1 SLOAD SWAP1 PUSH1 0x3 SHL SHR SWAP6 DUP9 PUSH0 MSTORE PUSH1 0xE PUSH1 0x20 MSTORE PUSH1 0x40 PUSH0 KECCAK256 DUP8 PUSH0 MSTORE PUSH1 0x20 MSTORE PUSH1 0x40 PUSH0 KECCAK256 SWAP1 PUSH1 0x3 DUP3 ADD PUSH1 0xFF DUP2 SLOAD PUSH1 0x8 SHR AND DUP1 ISZERO SWAP1 DUP2 DUP1 SWAP3 PUSH2 0x3989 JUMPI JUMPDEST ISZERO PUSH2 0x38C1 JUMPI POP POP DUP1 SLOAD PUSH2 0xFF00 NOT AND PUSH2 0x100 OR SWAP1 SSTORE PUSH2 0x389C SWAP2 SWAP1 DUP8 PUSH1 0xA PUSH2 0x10F6 DUP3 DUP13 PUSH2 0x31D4 JUMP JUMPDEST SWAP6 PUSH0 MSTORE PUSH1 0xC PUSH1 0x20 MSTORE PUSH1 0x40 PUSH0 KECCAK256 SWAP1 DUP2 SLOAD PUSH0 NOT DUP2 ADD SWAP1 DUP2 GT PUSH2 0x1129 JUMPI PUSH1 0x1 SWAP3 SSTORE JUMPDEST ADD PUSH2 0x382E JUMP JUMPDEST DUP1 SWAP2 SWAP4 SWAP6 SWAP11 SWAP3 POP SWAP1 PUSH2 0x3974 JUMPI JUMPDEST ISZERO PUSH2 0x38EC JUMPI POP POP PUSH1 0x1 SWAP2 PUSH1 0x2 PUSH2 0x38E6 SWAP3 ADD SLOAD SWAP1 PUSH2 0x2CDE JUMP JUMPDEST SWAP6 PUSH2 0x38BB JUMP JUMPDEST SWAP3 SWAP8 SWAP3 DUP8 SWAP1 DUP3 PUSH2 0x395C JUMPI JUMPDEST POP POP PUSH2 0x3906 JUMPI POP PUSH1 0x1 SWAP1 PUSH2 0x38BB JUMP JUMPDEST SWAP2 SWAP9 POP POP PUSH1 0x1 SWAP2 SWAP9 SWAP4 POP SWAP4 SWAP2 SWAP4 ADD SSTORE JUMPDEST PUSH1 0x1 SLOAD PUSH2 0x392F SWAP1 DUP4 SWAP1 DUP6 SWAP1 PUSH1 0x1 PUSH1 0x1 PUSH1 0xA0 SHL SUB AND PUSH2 0x440E JUMP JUMPDEST PUSH1 0x40 MLOAD SWAP2 DUP3 MSTORE PUSH1 0x20 DUP3 ADD MSTORE PUSH1 0x2 DUP2 PUSH1 0x80 SWAP2 PUSH1 0x40 PUSH0 MLOAD PUSH1 0x20 PUSH2 0x459A PUSH0 CODECOPY PUSH0 MLOAD SWAP1 PUSH0 MSTORE SWAP5 ADD MSTORE TIMESTAMP PUSH1 0x60 DUP3 ADD MSTORE LOG4 JUMP JUMPDEST PUSH1 0xA SWAP3 POP SWAP1 PUSH2 0x396A SWAP2 PUSH2 0x31D4 JUMP JUMPDEST DIV DUP8 LT DUP7 PUSH0 PUSH2 0x38F7 JUMP JUMPDEST POP PUSH1 0xA PUSH2 0x3981 DUP10 DUP4 PUSH2 0x31D4 JUMP JUMPDEST DIV DUP5 GT PUSH2 0x38CE JUMP JUMPDEST POP PUSH1 0xA PUSH2 0x3996 DUP12 DUP14 PUSH2 0x31D4 JUMP JUMPDEST DIV DUP5 LT ISZERO PUSH2 0x3876 JUMP JUMPDEST POP SWAP7 POP SWAP7 SWAP2 POP SWAP2 POP PUSH2 0x3916 JUMP JUMPDEST POP POP POP POP PUSH2 0x2E09 SWAP1 PUSH2 0x35C6 JUMP JUMPDEST POP PUSH1 0xF DUP3 LT PUSH2 0x3792 JUMP JUMPDEST POP PUSH1 0x5 SLOAD DUP2 EQ ISZERO PUSH2 0x378C JUMP JUMPDEST SWAP1 PUSH0 MSTORE PUSH1 0x10 PUSH1 0x20 MSTORE PUSH1 0x5 PUSH1 0x40 PUSH0 KECCAK256 ADD SLOAD SWAP1 DUP2 ISZERO DUP1 ISZERO PUSH2 0x39F5 JUMPI JUMPDEST PUSH2 0x39AC JUMPI PUSH1 0x1 ADD PUSH2 0x3778 JUMP JUMPDEST POP PUSH1 0x5 SLOAD DUP3 EQ PUSH2 0x39E9 JUMP JUMPDEST POP POP POP PUSH2 0x2E09 SWAP1 PUSH2 0x35C6 JUMP JUMPDEST POP DUP1 ISZERO PUSH2 0x3771 JUMP JUMPDEST SWAP4 SWAP1 PUSH2 0x1E0 MSTORE DUP4 ISZERO DUP1 ISZERO PUSH2 0x3D9E JUMPI JUMPDEST DUP1 ISZERO PUSH2 0x3D96 JUMPI JUMPDEST PUSH2 0x373C JUMPI PUSH2 0x3A38 DUP2 DUP4 PUSH2 0x2CEB JUMP JUMPDEST PUSH2 0x220 MSTORE PUSH2 0x3A52 PUSH2 0x3A4C DUP3 PUSH2 0x220 MLOAD PUSH2 0x31D4 JUMP JUMPDEST DUP4 PUSH2 0x2CDE JUMP JUMPDEST SWAP4 PUSH2 0x1C0 MSTORE PUSH0 SWAP3 PUSH0 PUSH2 0x1A0 MSTORE PUSH1 0x1 SWAP2 PUSH0 JUMPDEST PUSH1 0x1E DUP2 LT PUSH2 0x3A98 JUMPI JUMPDEST POP POP POP POP SWAP1 PUSH2 0x3A7A SWAP2 PUSH2 0x2CDE JUMP JUMPDEST DUP1 PUSH2 0x3A89 JUMPI JUMPDEST POP DUP1 PUSH2 0x36E2 JUMPI POP JUMP JUMPDEST PUSH2 0x3A92 SWAP1 PUSH2 0x35C6 JUMP JUMPDEST PUSH0 PUSH2 0x3A80 JUMP JUMPDEST SWAP2 SWAP6 PUSH2 0x1C0 SWAP8 SWAP2 SWAP6 SWAP4 SWAP8 MLOAD ISZERO DUP1 ISZERO PUSH2 0x3D88 JUMPI JUMPDEST PUSH2 0x3D70 JUMPI PUSH2 0x1C0 MLOAD PUSH0 MSTORE PUSH1 0x10 PUSH1 0x20 MSTORE PUSH1 0x40 PUSH0 KECCAK256 SWAP8 DUP8 PUSH1 0x6 DUP11 ADD SLOAD LT ISZERO PUSH0 EQ PUSH2 0x3D50 JUMPI PUSH2 0x3ADA DUP2 PUSH2 0x220 MLOAD PUSH2 0x31D4 JUMP JUMPDEST SWAP6 PUSH2 0x1C0 MLOAD PUSH0 MSTORE PUSH1 0x10 PUSH1 0x20 MSTORE PUSH1 0x40 PUSH0 KECCAK256 PUSH2 0x260 MSTORE PUSH1 0x1 DUP1 PUSH1 0xA0 SHL SUB PUSH2 0x260 MLOAD SLOAD AND SWAP8 DUP9 ISZERO PUSH2 0x12C3 JUMPI DUP8 ISZERO PUSH2 0x1290 JUMPI PUSH2 0x1C0 MLOAD PUSH0 MSTORE PUSH1 0x11 PUSH1 0x20 MSTORE PUSH1 0x40 PUSH0 KECCAK256 PUSH2 0x3B22 DUP10 DUP3 SLOAD PUSH2 0x2CD1 JUMP JUMPDEST DUP2 SSTORE PUSH1 0x3 DUP2 ADD PUSH2 0x3B33 DUP11 DUP3 SLOAD PUSH2 0x2CD1 JUMP JUMPDEST SWAP1 SSTORE SLOAD PUSH2 0x240 MSTORE PUSH1 0xB PUSH2 0x260 MLOAD ADD SLOAD PUSH2 0x200 MSTORE PUSH0 JUMPDEST PUSH1 0x6 PUSH2 0x260 MLOAD ADD SLOAD DUP2 LT ISZERO PUSH2 0x3D3F JUMPI PUSH2 0x3B60 DUP2 PUSH2 0x2AE9 JUMP JUMPDEST SWAP1 SLOAD SWAP1 PUSH1 0x3 SHL SHR PUSH2 0x1C0 MLOAD PUSH0 MSTORE PUSH1 0xE PUSH1 0x20 MSTORE PUSH1 0x40 PUSH0 KECCAK256 DUP2 PUSH0 MSTORE PUSH1 0x20 MSTORE PUSH1 0x40 PUSH0 KECCAK256 PUSH1 0x3 DUP2 ADD PUSH1 0xFF DUP2 SLOAD PUSH1 0x8 SHR AND DUP1 ISZERO SWAP1 DUP2 DUP1 SWAP3 PUSH2 0x3D23 JUMPI JUMPDEST ISZERO PUSH2 0x3BFE JUMPI POP POP SWAP1 PUSH2 0x3BD6 SWAP2 PUSH2 0x100 PUSH2 0xFF00 NOT DUP3 SLOAD AND OR SWAP1 SSTORE PUSH1 0xA PUSH2 0x3BBF PUSH2 0x200 MLOAD DUP6 PUSH2 0x31D4 JUMP JUMPDEST DIV SWAP1 DUP2 PUSH1 0x2 DUP3 ADD SSTORE PUSH2 0x200 MLOAD SWAP1 SSTORE PUSH2 0x240 MLOAD PUSH2 0x2CDE JUMP JUMPDEST PUSH2 0x240 MSTORE PUSH0 MSTORE PUSH1 0xC PUSH1 0x20 MSTORE PUSH1 0x40 PUSH0 KECCAK256 SWAP1 DUP2 SLOAD PUSH0 NOT DUP2 ADD SWAP1 DUP2 GT PUSH2 0x1129 JUMPI PUSH1 0x1 SWAP3 SSTORE JUMPDEST ADD PUSH2 0x3B48 JUMP JUMPDEST DUP1 SWAP2 SWAP4 SWAP5 SWAP3 POP SWAP1 PUSH2 0x3D08 JUMPI JUMPDEST ISZERO PUSH2 0x3C2E JUMPI POP POP SWAP1 PUSH2 0x3C25 PUSH1 0x2 PUSH1 0x1 SWAP4 ADD SLOAD PUSH2 0x240 MLOAD PUSH2 0x2CDE JUMP JUMPDEST PUSH2 0x240 MSTORE PUSH2 0x3BF8 JUMP JUMPDEST DUP2 PUSH2 0x3CEB JUMPI JUMPDEST POP PUSH2 0x3C42 JUMPI POP PUSH1 0x1 SWAP1 PUSH2 0x3BF8 JUMP JUMPDEST SWAP1 POP PUSH1 0x1 PUSH2 0x240 SWAP13 SWAP9 SWAP5 SWAP11 SWAP4 SWAP10 SWAP3 SWAP7 SWAP13 SWAP12 SWAP8 SWAP6 SWAP12 MLOAD SWAP2 ADD SSTORE JUMPDEST PUSH1 0x1 SLOAD PUSH2 0x3C74 SWAP1 DUP3 SWAP1 DUP5 SWAP1 PUSH1 0x1 PUSH1 0x1 PUSH1 0xA0 SHL SUB AND PUSH2 0x440E JUMP JUMPDEST PUSH1 0x40 MLOAD DUP2 DUP2 MSTORE PUSH1 0x20 DUP2 ADD DUP8 SWAP1 MSTORE SWAP3 PUSH1 0x3 SWAP3 DUP5 PUSH2 0x3CB8 SWAP5 PUSH1 0x40 PUSH2 0x3CC2 SWAP8 ADD MSTORE TIMESTAMP PUSH1 0x60 DUP3 ADD MSTORE PUSH2 0x1E0 MLOAD SWAP2 PUSH0 MLOAD PUSH1 0x20 PUSH2 0x459A PUSH0 CODECOPY PUSH0 MLOAD SWAP1 PUSH0 MSTORE PUSH1 0x80 PUSH2 0x1C0 MLOAD SWAP4 LOG4 PUSH2 0x2CD1 JUMP JUMPDEST SWAP7 PUSH2 0x1A0 MLOAD PUSH2 0x2CD1 JUMP JUMPDEST PUSH2 0x1A0 MSTORE PUSH1 0x1 SWAP4 JUMPDEST DUP3 PUSH2 0x1A0 MLOAD LT ISZERO PUSH2 0x3CE5 JUMPI PUSH1 0x5 ADD SLOAD PUSH2 0x1C0 MSTORE PUSH1 0x1 ADD PUSH2 0x3A63 JUMP JUMPDEST POP PUSH2 0x3A6C JUMP JUMPDEST PUSH2 0x200 MLOAD PUSH1 0xA SWAP3 POP PUSH2 0x3CFC SWAP2 PUSH2 0x31D4 JUMP JUMPDEST DIV PUSH2 0x240 MLOAD LT PUSH0 PUSH2 0x3C34 JUMP JUMPDEST POP PUSH1 0xA PUSH2 0x3D18 PUSH2 0x200 MLOAD DUP4 PUSH2 0x31D4 JUMP JUMPDEST DIV PUSH2 0x240 MLOAD GT PUSH2 0x3C0A JUMP JUMPDEST POP PUSH1 0xA PUSH2 0x3D33 PUSH2 0x200 MLOAD DUP8 PUSH2 0x31D4 JUMP JUMPDEST DIV PUSH2 0x240 MLOAD LT ISZERO PUSH2 0x3B97 JUMP JUMPDEST POP SWAP4 SWAP10 SWAP6 SWAP2 SWAP8 SWAP1 SWAP7 SWAP9 SWAP5 SWAP3 SWAP9 PUSH2 0x3C5B JUMP JUMPDEST SWAP4 SWAP6 SWAP2 SWAP8 DUP3 DUP6 SWAP9 SWAP5 SWAP3 SWAP9 LT ISZERO PUSH2 0x3CCA JUMPI SWAP4 PUSH2 0x3D6A SWAP1 PUSH2 0x3754 JUMP JUMPDEST SWAP4 PUSH2 0x3CCA JUMP JUMPDEST POP SWAP6 POP POP SWAP2 POP PUSH2 0x3D80 SWAP3 POP PUSH2 0x2CDE JUMP JUMPDEST DUP1 PUSH2 0x36E2 JUMPI POP JUMP JUMPDEST POP PUSH1 0x5 SLOAD PUSH2 0x1C0 MLOAD EQ PUSH2 0x3AAB JUMP JUMPDEST POP DUP1 ISZERO PUSH2 0x3A2A JUMP JUMPDEST POP PUSH1 0x5 SLOAD DUP5 EQ PUSH2 0x3A23 JUMP JUMPDEST SWAP1 DUP2 PUSH0 MSTORE PUSH1 0x45 PUSH1 0x20 MSTORE PUSH1 0xFF PUSH1 0x4 PUSH1 0x40 PUSH0 KECCAK256 ADD SLOAD AND ISZERO PUSH2 0x3DC6 JUMPI POP POP JUMP JUMPDEST PUSH2 0x3DD3 PUSH1 0x40 SLOAD DUP3 EQ PUSH2 0x44A7 JUMP JUMPDEST DUP1 PUSH0 MSTORE PUSH1 0x43 PUSH1 0x20 MSTORE PUSH2 0x3DEF PUSH1 0xFF PUSH1 0x8 PUSH1 0x40 PUSH0 KECCAK256 ADD SLOAD AND ISZERO PUSH2 0x44E3 JUMP JUMPDEST DUP2 PUSH0 MSTORE PUSH1 0x10 PUSH1 0x20 MSTORE PUSH1 0x40 PUSH0 KECCAK256 PUSH1 0x12 DUP2 ADD SLOAD SWAP1 DUP2 ISZERO PUSH2 0x3F06 JUMPI PUSH1 0x11 DUP2 ADD SLOAD PUSH3 0x83D600 DUP2 ADD DUP1 SWAP2 GT PUSH2 0x1129 JUMPI PUSH2 0x3E46 SWAP3 GT ISZERO SWAP1 PUSH1 0x5 PUSH1 0x14 PUSH1 0xA PUSH1 0x6 DUP5 ADD SLOAD LT ISZERO SWAP3 ADD SLOAD LT ISZERO SWAP1 DUP3 PUSH2 0x3EFE JUMPI JUMPDEST POP DUP2 PUSH2 0x3EF6 JUMPI JUMPDEST POP PUSH2 0x451E JUMP JUMPDEST DUP2 PUSH0 MSTORE PUSH1 0x45 PUSH1 0x20 MSTORE PUSH1 0x40 PUSH0 KECCAK256 SWAP2 PUSH1 0x4 DUP4 ADD PUSH2 0x3E65 PUSH1 0xFF DUP3 SLOAD AND ISZERO PUSH2 0x4559 JUMP JUMPDEST PUSH1 0x44 SLOAD SWAP4 PUSH1 0x1 PUSH1 0x40 SHL DUP6 LT ISZERO PUSH2 0x31A8 JUMPI PUSH1 0x1 DUP5 SWAP2 PUSH2 0x3EAB DUP8 DUP4 PUSH32 0x42EE5EF523A95C6FB3FFDD2E9B34955B83EA8C2B11FF268C87AE6EA25556EAAC SWAP10 ADD PUSH1 0x44 SSTORE PUSH1 0x44 PUSH2 0x2B47 JUMP JUMPDEST DUP2 SLOAD SWAP1 PUSH1 0x3 SHL SWAP1 DUP8 DUP3 SHL SWAP2 PUSH0 NOT SWAP1 SHL NOT AND OR SWAP1 SSTORE TIMESTAMP DUP2 SSTORE ADD SSTORE PUSH1 0x1 PUSH1 0xFF NOT DUP3 SLOAD AND OR SWAP1 SSTORE PUSH2 0x3EF1 PUSH1 0x40 MLOAD SWAP3 DUP4 SWAP3 TIMESTAMP SWAP2 DUP5 PUSH1 0x40 SWAP2 SWAP5 SWAP4 SWAP3 PUSH1 0x60 DUP3 ADD SWAP6 DUP3 MSTORE PUSH1 0x20 DUP3 ADD MSTORE ADD MSTORE JUMP JUMPDEST SUB SWAP1 LOG1 JUMP JUMPDEST SWAP1 POP PUSH0 PUSH2 0x3E40 JUMP JUMPDEST SWAP2 POP PUSH0 PUSH2 0x3E39 JUMP JUMPDEST PUSH1 0x40 MLOAD PUSH3 0x461BCD PUSH1 0xE5 SHL DUP2 MSTORE PUSH1 0x20 PUSH1 0x4 DUP3 ADD MSTORE PUSH1 0x11 PUSH1 0x24 DUP3 ADD MSTORE PUSH17 0x55736572206E6F74206C6576656C20313 PUSH1 0x7C SHL PUSH1 0x44 DUP3 ADD MSTORE PUSH1 0x64 SWAP1 REVERT JUMPDEST SWAP1 DUP2 PUSH0 MSTORE PUSH1 0x4C PUSH1 0x20 MSTORE PUSH1 0xFF PUSH1 0x4 PUSH1 0x40 PUSH0 KECCAK256 ADD SLOAD AND ISZERO PUSH2 0x3F5C JUMPI POP POP JUMP JUMPDEST PUSH2 0x3F69 PUSH1 0x47 SLOAD DUP3 EQ PUSH2 0x44A7 JUMP JUMPDEST DUP1 PUSH0 MSTORE PUSH1 0x4A PUSH1 0x20 MSTORE PUSH2 0x3F85 PUSH1 0xFF PUSH1 0x8 PUSH1 0x40 PUSH0 KECCAK256 ADD SLOAD AND ISZERO PUSH2 0x44E3 JUMP JUMPDEST DUP2 PUSH0 MSTORE PUSH1 0x10 PUSH1 0x20 MSTORE PUSH1 0x40 PUSH0 KECCAK256 PUSH1 0x13 DUP2 ADD SLOAD SWAP1 DUP2 ISZERO PUSH2 0x4040 JUMPI PUSH1 0x11 DUP2 ADD SLOAD PUSH4 0x2514300 DUP2 ADD DUP1 SWAP2 GT PUSH2 0x1129 JUMPI PUSH2 0x3FDB SWAP3 GT ISZERO SWAP1 PUSH1 0x2 PUSH1 0x15 PUSH1 0xF PUSH1 0x6 DUP5 ADD SLOAD LT ISZERO SWAP3 ADD SLOAD LT ISZERO SWAP1 DUP3 PUSH2 0x3EFE JUMPI POP DUP2 PUSH2 0x3EF6 JUMPI POP PUSH2 0x451E JUMP JUMPDEST DUP2 PUSH0 MSTORE PUSH1 0x4C PUSH1 0x20 MSTORE PUSH1 0x40 PUSH0 KECCAK256 SWAP2 PUSH1 0x4 DUP4 ADD PUSH2 0x3FFA PUSH1 0xFF DUP3 SLOAD AND ISZERO PUSH2 0x4559 JUMP JUMPDEST PUSH1 0x4B SLOAD SWAP4 PUSH1 0x1 PUSH1 0x40 SHL DUP6 LT ISZERO PUSH2 0x31A8 JUMPI PUSH1 0x1 DUP5 SWAP2 PUSH2 0x3EAB DUP8 DUP4 PUSH32 0x42EE5EF523A95C6FB3FFDD2E9B34955B83EA8C2B11FF268C87AE6EA25556EAAC SWAP10 ADD PUSH1 0x4B SSTORE PUSH1 0x4B PUSH2 0x2B47 JUMP JUMPDEST PUSH1 0x40 MLOAD PUSH3 0x461BCD PUSH1 0xE5 SHL DUP2 MSTORE PUSH1 0x20 PUSH1 0x4 DUP3 ADD MSTORE PUSH1 0x11 PUSH1 0x24 DUP3 ADD MSTORE PUSH17 0x55736572206E6F74206C6576656C203135 PUSH1 0x78 SHL PUSH1 0x44 DUP3 ADD MSTORE PUSH1 0x64 SWAP1 REVERT JUMPDEST PUSH1 0x3A SLOAD PUSH3 0x93A80 DUP2 ADD DUP1 SWAP2 GT PUSH2 0x1129 JUMPI TIMESTAMP LT ISZERO PUSH2 0x4092 JUMPI JUMP JUMPDEST PUSH1 0x39 SLOAD DUP1 PUSH0 MSTORE PUSH1 0x3C PUSH1 0x20 MSTORE PUSH1 0x40 PUSH0 KECCAK256 PUSH1 0x8 DUP2 ADD SWAP2 DUP3 SLOAD SWAP3 PUSH1 0xFF DUP5 AND PUSH2 0x3010 JUMPI PUSH0 DUP3 DUP2 MSTORE PUSH1 0x3D PUSH1 0x20 MSTORE PUSH1 0x40 SWAP1 KECCAK256 SLOAD SWAP3 DUP4 ISZERO PUSH2 0x41DC JUMPI PUSH1 0x3B SLOAD SWAP2 PUSH2 0x40D4 DUP6 DUP5 PUSH2 0x2CEB JUMP JUMPDEST PUSH9 0x3635C9ADC5DEA00000 DUP2 GT ISZERO PUSH2 0x41D6 JUMPI POP PUSH9 0x3635C9ADC5DEA00000 SWAP2 JUMPDEST PUSH2 0x40FC DUP7 DUP5 PUSH2 0x31D4 JUMP JUMPDEST SWAP4 DUP5 DUP1 DUP3 GT ISZERO PUSH2 0x41CE JUMPI PUSH2 0x410F SWAP2 PUSH2 0x2CDE JUMP JUMPDEST SWAP2 JUMPDEST DUP6 DUP3 SSTORE DUP4 PUSH1 0x3 DUP4 ADD SSTORE DUP7 PUSH1 0x2 DUP4 ADD SSTORE PUSH1 0x3B SLOAD PUSH1 0x1 DUP4 ADD SSTORE DUP3 PUSH1 0x7 DUP4 ADD SSTORE PUSH1 0x3A SLOAD SWAP2 PUSH3 0x93A80 DUP4 ADD DUP1 SWAP4 GT PUSH2 0x1129 JUMPI PUSH1 0x6 PUSH1 0x1 SWAP2 ADD SWAP9 DUP4 DUP11 SSTORE PUSH1 0xFF NOT AND OR SWAP1 SSTORE PUSH1 0x3A SSTORE PUSH1 0x1 DUP5 ADD SWAP3 DUP4 DUP6 GT PUSH2 0x1129 JUMPI PUSH32 0xCA8A78D1841A8DAFBB8FF53C869B3FA9A69ABD051022178024F84B680FFD2E3C SWAP7 PUSH2 0x3EF1 SWAP5 PUSH1 0x39 SSTORE DUP3 PUSH1 0x3B SSTORE PUSH2 0x4196 DUP4 DUP4 PUSH2 0x2CD1 JUMP JUMPDEST SWAP1 SLOAD SWAP4 PUSH1 0x40 MLOAD SWAP8 DUP9 SWAP8 DUP9 SWAP4 SWAP1 SWAP8 SWAP7 SWAP6 SWAP3 PUSH1 0xC0 SWAP6 SWAP3 PUSH1 0xE0 DUP7 ADD SWAP10 DUP7 MSTORE PUSH1 0x20 DUP7 ADD MSTORE PUSH1 0x40 DUP6 ADD MSTORE PUSH1 0x60 DUP5 ADD MSTORE PUSH1 0x80 DUP4 ADD MSTORE PUSH1 0xA0 DUP3 ADD MSTORE ADD MSTORE JUMP JUMPDEST POP POP PUSH0 PUSH2 0x410F JUMP JUMPDEST SWAP2 PUSH2 0x40F2 JUMP JUMPDEST SWAP1 PUSH1 0x3B SLOAD PUSH0 SWAP3 PUSH0 SWAP3 PUSH2 0x4111 JUMP JUMPDEST PUSH1 0x41 SLOAD PUSH3 0x278D00 DUP2 ADD DUP1 SWAP2 GT PUSH2 0x1129 JUMPI TIMESTAMP LT ISZERO PUSH2 0x4202 JUMPI JUMP JUMPDEST PUSH1 0x40 SLOAD DUP1 PUSH0 MSTORE PUSH1 0x43 PUSH1 0x20 MSTORE PUSH1 0x40 PUSH0 KECCAK256 PUSH1 0x8 DUP2 ADD SWAP2 DUP3 SLOAD SWAP3 PUSH1 0xFF DUP5 AND PUSH2 0x3010 JUMPI PUSH1 0x44 SLOAD SWAP3 DUP4 ISZERO PUSH2 0x430B JUMPI PUSH1 0x42 SLOAD SWAP2 PUSH2 0x4239 DUP6 DUP5 PUSH2 0x2CEB JUMP JUMPDEST PUSH10 0x21E19E0C9BAB2400000 DUP2 GT ISZERO PUSH2 0x4305 JUMPI POP PUSH10 0x21E19E0C9BAB2400000 SWAP2 JUMPDEST PUSH2 0x4263 DUP7 DUP5 PUSH2 0x31D4 JUMP JUMPDEST SWAP4 DUP5 DUP1 DUP3 GT ISZERO PUSH2 0x42FD JUMPI PUSH2 0x4276 SWAP2 PUSH2 0x2CDE JUMP JUMPDEST SWAP2 JUMPDEST DUP6 DUP3 SSTORE DUP4 PUSH1 0x3 DUP4 ADD SSTORE DUP7 PUSH1 0x2 DUP4 ADD SSTORE PUSH1 0x42 SLOAD PUSH1 0x1 DUP4 ADD SSTORE DUP3 PUSH1 0x7 DUP4 ADD SSTORE PUSH1 0x41 SLOAD SWAP2 PUSH3 0x278D00 DUP4 ADD DUP1 SWAP4 GT PUSH2 0x1129 JUMPI PUSH1 0x6 PUSH1 0x1 SWAP2 ADD SWAP9 DUP4 DUP11 SSTORE PUSH1 0xFF NOT AND OR SWAP1 SSTORE PUSH1 0x41 SSTORE PUSH1 0x1 DUP5 ADD SWAP3 DUP4 DUP6 GT PUSH2 0x1129 JUMPI PUSH32 0x1B674071ADFA65DB18518E4868AE7D5F54DD365C69E0BABE9B704CBADE8FE4BB SWAP7 PUSH2 0x3EF1 SWAP5 PUSH1 0x40 SSTORE DUP3 PUSH1 0x42 SSTORE PUSH2 0x4196 DUP4 DUP4 PUSH2 0x2CD1 JUMP JUMPDEST POP POP PUSH0 PUSH2 0x4276 JUMP JUMPDEST SWAP2 PUSH2 0x4259 JUMP JUMPDEST SWAP1 PUSH1 0x42 SLOAD PUSH0 SWAP3 PUSH0 SWAP3 PUSH2 0x4278 JUMP JUMPDEST PUSH1 0x48 SLOAD PUSH3 0x278D00 DUP2 ADD DUP1 SWAP2 GT PUSH2 0x1129 JUMPI TIMESTAMP LT PUSH2 0x2E09 JUMPI PUSH1 0x47 SLOAD DUP1 PUSH0 MSTORE PUSH1 0x4A PUSH1 0x20 MSTORE PUSH1 0x40 PUSH0 KECCAK256 PUSH1 0x8 DUP2 ADD SWAP2 DUP3 SLOAD SWAP3 PUSH1 0xFF DUP5 AND PUSH2 0x3010 JUMPI PUSH1 0x4B SLOAD SWAP3 DUP4 ISZERO PUSH2 0x4401 JUMPI PUSH1 0x49 SLOAD SWAP2 PUSH2 0x4365 DUP6 DUP5 PUSH2 0x2CEB JUMP JUMPDEST SWAP2 PUSH2 0x437A PUSH2 0x4373 DUP8 DUP6 PUSH2 0x31D4 JUMP JUMPDEST DUP1 SWAP6 PUSH2 0x2CDE JUMP JUMPDEST SWAP2 JUMPDEST DUP6 DUP3 SSTORE DUP4 PUSH1 0x3 DUP4 ADD SSTORE DUP7 PUSH1 0x2 DUP4 ADD SSTORE PUSH1 0x49 SLOAD PUSH1 0x1 DUP4 ADD SSTORE DUP3 PUSH1 0x7 DUP4 ADD SSTORE PUSH1 0x48 SLOAD SWAP2 PUSH3 0x278D00 DUP4 ADD DUP1 SWAP4 GT PUSH2 0x1129 JUMPI PUSH1 0x6 PUSH1 0x1 SWAP2 ADD SWAP9 DUP4 DUP11 SSTORE PUSH1 0xFF NOT AND OR SWAP1 SSTORE PUSH1 0x48 SSTORE PUSH1 0x1 DUP5 ADD SWAP3 DUP4 DUP6 GT PUSH2 0x1129 JUMPI PUSH32 0x3E2269A22C7571B51C53565ECE51DA09613519B306C6DDE588BEEA1F5FD3CFD3 SWAP7 PUSH2 0x3EF1 SWAP5 PUSH1 0x47 SSTORE DUP3 PUSH1 0x49 SSTORE PUSH2 0x4196 DUP4 DUP4 PUSH2 0x2CD1 JUMP JUMPDEST SWAP1 PUSH1 0x49 SLOAD PUSH0 SWAP3 PUSH0 SWAP3 PUSH2 0x437C JUMP JUMPDEST PUSH1 0x40 MLOAD PUSH4 0xA9059CBB PUSH1 0xE0 SHL PUSH1 0x20 DUP3 DUP2 ADD SWAP2 DUP3 MSTORE PUSH1 0x1 PUSH1 0x1 PUSH1 0xA0 SHL SUB SWAP1 SWAP5 AND PUSH1 0x24 DUP4 ADD MSTORE PUSH1 0x44 DUP1 DUP4 ADD SWAP6 SWAP1 SWAP6 MSTORE SWAP4 DUP2 MSTORE SWAP1 SWAP3 PUSH0 SWAP2 PUSH2 0x444C PUSH1 0x64 DUP3 PUSH2 0x3186 JUMP JUMPDEST MLOAD SWAP1 DUP3 DUP6 GAS CALL ISZERO PUSH2 0x449C JUMPI PUSH0 MLOAD RETURNDATASIZE PUSH2 0x4493 JUMPI POP PUSH1 0x1 PUSH1 0x1 PUSH1 0xA0 SHL SUB DUP2 AND EXTCODESIZE ISZERO JUMPDEST PUSH2 0x4473 JUMPI POP JUMP JUMPDEST PUSH4 0x5274AFE7 PUSH1 0xE0 SHL PUSH0 SWAP1 DUP2 MSTORE PUSH1 0x1 PUSH1 0x1 PUSH1 0xA0 SHL SUB SWAP2 SWAP1 SWAP2 AND PUSH1 0x4 MSTORE PUSH1 0x24 SWAP1 REVERT JUMPDEST PUSH1 0x1 EQ ISZERO PUSH2 0x446C JUMP JUMPDEST PUSH1 0x40 MLOAD RETURNDATASIZE PUSH0 DUP3 RETURNDATACOPY RETURNDATASIZE SWAP1 REVERT JUMPDEST ISZERO PUSH2 0x44AE JUMPI JUMP JUMPDEST PUSH1 0x40 MLOAD PUSH3 0x461BCD PUSH1 0xE5 SHL DUP2 MSTORE PUSH1 0x20 PUSH1 0x4 DUP3 ADD MSTORE PUSH1 0xD PUSH1 0x24 DUP3 ADD MSTORE PUSH13 0x125B9D985B1A59081C9BDD5B99 PUSH1 0x9A SHL PUSH1 0x44 DUP3 ADD MSTORE PUSH1 0x64 SWAP1 REVERT JUMPDEST ISZERO PUSH2 0x44EA JUMPI JUMP JUMPDEST PUSH1 0x40 MLOAD PUSH3 0x461BCD PUSH1 0xE5 SHL DUP2 MSTORE PUSH1 0x20 PUSH1 0x4 DUP3 ADD MSTORE PUSH1 0xC PUSH1 0x24 DUP3 ADD MSTORE PUSH12 0x149BDD5B990818DB1BDCD959 PUSH1 0xA2 SHL PUSH1 0x44 DUP3 ADD MSTORE PUSH1 0x64 SWAP1 REVERT JUMPDEST ISZERO PUSH2 0x4525 JUMPI JUMP JUMPDEST PUSH1 0x40 MLOAD PUSH3 0x461BCD PUSH1 0xE5 SHL DUP2 MSTORE PUSH1 0x20 PUSH1 0x4 DUP3 ADD MSTORE PUSH1 0xC PUSH1 0x24 DUP3 ADD MSTORE PUSH12 0x4E6F7420656C696769626C65 PUSH1 0xA0 SHL PUSH1 0x44 DUP3 ADD MSTORE PUSH1 0x64 SWAP1 REVERT JUMPDEST ISZERO PUSH2 0x4560 JUMPI JUMP JUMPDEST PUSH1 0x40 MLOAD PUSH3 0x461BCD PUSH1 0xE5 SHL DUP2 MSTORE PUSH1 0x20 PUSH1 0x4 DUP3 ADD MSTORE PUSH1 0x11 PUSH1 0x24 DUP3 ADD MSTORE PUSH17 0x185B1C9958591E48145D585B1A599A5959 PUSH1 0x7A SHL PUSH1 0x44 DUP3 ADD MSTORE PUSH1 0x64 SWAP1 REVERT INVALID 0x4D PUSH4 0x4C31300B SWAP8 0xDA 0xD9 SWAP12 GASPRICE 0xF7 SWAP10 OR DUP3 ADDRESS AND RETURNDATASIZE DUP9 0xAD ADDRESS PUSH4 0x70D063BE SWAP13 0xD9 SWAP3 0xD0 0xBE PUSH32 0xA264697066735822122024437640D115B9AE5236FE54734B699A120E646F7F04 SWAP8 MSTORE8 RETURNDATACOPY DATALOADN 0xF50E 0x4E RETURNCONTRACT 0x5C SWAP15 PUSH5 0x736F6C6343 STOP ADDMOD 0x1E STOP CALLER 0xD7 0xB6 SWAP10 ADD SDIV PUSH18 0x9101DABEB77144F2A3385C8033ACD3AF97E9 TIMESTAMP GASPRICE PUSH10 0x5E81AD1EB5C624B66CC0 SGT DUP12 DUP16 0xAB 0xC2 MULMOD 0x24 PUSH32 0x72D758E1CF3343756D543BADBF24212BED8C15D833147D7DC355BA459FC788F6 PUSH10 0xE58CFAF9DC25DDCD0702 0xE8 PUSH30 0x69C7B5124289000000000000000000000000000000000000000000000000 "
		},
		"gasEstimates": {
			"creation": {
				"codeDepositCost": "3580600",
				"executionCost": "infinite",
				"totalCost": "infinite"
			},
			"external": {
				"ACC_PRECISION()": "627",
				"MONTHLY_ROYALTY_DIRECT()": "1727",
				"MONTHLY_ROYALTY_LEVEL()": "460",
				"MONTHLY_ROYALTY_TIME()": "1419",
				"MONTH_DURATION()": "473",
				"PERCENTS_DIVIDER()": "228",
				"ROI_2X_TIME()": "737",
				"ROI_CAP_DIVIDER()": "944",
				"ROI_CAP_MULTIPLIER()": "680",
				"TIME_STEP()": "605",
				"TOP_ROYALTY_DIRECT()": "583",
				"TOP_ROYALTY_LEVEL()": "504",
				"TOP_ROYALTY_TIME()": "1067",
				"WEEK_DURATION()": "1111",
				"WeeklyCapping()": "1815",
				"WeeklyTotalReward()": "2664",
				"addressToId(address)": "3879",
				"boosterUsers(uint256,uint256)": "8142",
				"canClaimMonthlyReward(uint256,uint256)": "14354",
				"claimCommunity(uint256,uint256)": "infinite",
				"claimMonthlyCRoyaltyReward(uint256,uint256)": "infinite",
				"claimTopRoyaltyReward(uint256,uint256)": "infinite",
				"claimWeeklyContestReward(uint256,uint256)": "infinite",
				"communityAccPerPackage(uint256)": "2972",
				"communityAccPerUser()": "3236",
				"communityDebt(uint256,uint256)": "3495",
				"creatorWallet()": "3282",
				"currentMonthlyRound()": "3720",
				"currentMonthlyStartTime()": "3874",
				"currentWeeklyRound()": "3742",
				"currentWeeklyStartTime()": "4045",
				"defaultRefId()": "3940",
				"directReferrals(uint256,uint256)": "7592",
				"glbBoosterPackages(uint256)": "6857",
				"incomeHistory(uint256,uint256)": "14064",
				"matrixDirect(uint256)": "3368",
				"minLevelForGlbBooster(uint256)": "3847",
				"minLevelForPool(uint256)": "2549",
				"minPoolForGlbBooster(uint256)": "3451",
				"monthlyCapping()": "1595",
				"monthlyQualifiedUsers(uint256)": "6945",
				"monthlyRoyaltyUserdtl(uint256)": "9376",
				"monthlyRoyaltydtl(uint256)": "20318",
				"monthlyTotalReward()": "3500",
				"monthlyUserDirects(uint256,uint256)": "8494",
				"packageQualifiedUsers(uint256)": "2440",
				"packages(uint256)": "7990",
				"pendingCommunity(uint256,uint256)": "infinite",
				"poolPackages(uint256)": "7869",
				"poolUsers(uint256,uint256)": "6900",
				"register(uint256)": "infinite",
				"registeredUserIds(uint256)": "7121",
				"systemMaintance()": "3920",
				"teamDevelopment()": "4030",
				"teams(uint256,uint256,uint256)": "7598",
				"topRoyaltyQualifiedUsers(uint256)": "8309",
				"topRoyaltyReward()": "3104",
				"topRoyaltyRound()": "2950",
				"topRoyaltyStartTime()": "3456",
				"topRoyaltyUserDirects(uint256,uint256)": "7438",
				"topRoyaltyUserdtl(uint256)": "10366",
				"topRoyaltydtl(uint256)": "19522",
				"totalUsers()": "3610",
				"upgrade(uint256)": "infinite",
				"usdt()": "2666",
				"userBoosterChildren(uint256,uint256,uint256)": "6948",
				"userBoosterdtl(uint256,uint256)": "12127",
				"userChildren(uint256,uint256,uint256)": "7906",
				"userHasPool(uint256,uint256)": "3749",
				"userHasbooster(uint256,uint256)": "3661",
				"userIdPerPool(uint256,uint256,uint256)": "7884",
				"userIncomes(uint256)": "26384",
				"userPackage(uint256,uint256)": "9746",
				"userPooldtl(uint256,uint256)": "12523",
				"userPooltopup(uint256,uint256)": "5886",
				"users(uint256)": "45568",
				"weeklyContestdtl(uint256)": "20824",
				"weeklyQualifiedUsers(uint256,uint256)": "6856",
				"weeklyUserDirects(uint256,uint256,uint256)": "7532",
				"weeklyUserdtl(uint256,uint256)": "8956"
			}
		},
		"methodIdentifiers": {
			"ACC_PRECISION()": "32fcd966",
			"MONTHLY_ROYALTY_DIRECT()": "d2f0490d",
			"MONTHLY_ROYALTY_LEVEL()": "23fd338e",
			"MONTHLY_ROYALTY_TIME()": "a5e52b99",
			"MONTH_DURATION()": "2a891534",
			"PERCENTS_DIVIDER()": "01c234a8",
			"ROI_2X_TIME()": "3a5084b3",
			"ROI_CAP_DIVIDER()": "58c7d352",
			"ROI_CAP_MULTIPLIER()": "375b43b4",
			"TIME_STEP()": "32bc298c",
			"TOP_ROYALTY_DIRECT()": "31bb6a30",
			"TOP_ROYALTY_LEVEL()": "2ae0ee0d",
			"TOP_ROYALTY_TIME()": "705fee2d",
			"WEEK_DURATION()": "76f5f700",
			"WeeklyCapping()": "ebe0ff15",
			"WeeklyTotalReward()": "3080b5bc",
			"addressToId(address)": "cb0e0d7d",
			"boosterUsers(uint256,uint256)": "c7bb62e8",
			"canClaimMonthlyReward(uint256,uint256)": "7d846e38",
			"claimCommunity(uint256,uint256)": "1c4ecf68",
			"claimMonthlyCRoyaltyReward(uint256,uint256)": "39f2e64a",
			"claimTopRoyaltyReward(uint256,uint256)": "97358004",
			"claimWeeklyContestReward(uint256,uint256)": "16298056",
			"communityAccPerPackage(uint256)": "45cb537c",
			"communityAccPerUser()": "78f6ad6d",
			"communityDebt(uint256,uint256)": "89043ece",
			"creatorWallet()": "7cdc65f2",
			"currentMonthlyRound()": "c9ed0708",
			"currentMonthlyStartTime()": "e898fc38",
			"currentWeeklyRound()": "ca8e9121",
			"currentWeeklyStartTime()": "fddc806f",
			"defaultRefId()": "ec597e6f",
			"directReferrals(uint256,uint256)": "5ec64a44",
			"glbBoosterPackages(uint256)": "2350268f",
			"incomeHistory(uint256,uint256)": "70c8d770",
			"matrixDirect(uint256)": "88afbe3e",
			"minLevelForGlbBooster(uint256)": "d0a2fd79",
			"minLevelForPool(uint256)": "2132d204",
			"minPoolForGlbBooster(uint256)": "956a3228",
			"monthlyCapping()": "c8df2908",
			"monthlyQualifiedUsers(uint256)": "2d66014f",
			"monthlyRoyaltyUserdtl(uint256)": "4036436c",
			"monthlyRoyaltydtl(uint256)": "6a424782",
			"monthlyTotalReward()": "a59d17d1",
			"monthlyUserDirects(uint256,uint256)": "f7a24806",
			"packageQualifiedUsers(uint256)": "0676d0d6",
			"packages(uint256)": "c216212a",
			"pendingCommunity(uint256,uint256)": "54c5bd90",
			"poolPackages(uint256)": "ae4708dc",
			"poolUsers(uint256,uint256)": "0f2b7cc9",
			"register(uint256)": "f207564e",
			"registeredUserIds(uint256)": "39ab3603",
			"systemMaintance()": "e9e34a16",
			"teamDevelopment()": "f5d74d93",
			"teams(uint256,uint256,uint256)": "5aabf7f1",
			"topRoyaltyQualifiedUsers(uint256)": "f5748c4f",
			"topRoyaltyReward()": "5b62d1d5",
			"topRoyaltyRound()": "4b8cbf9b",
			"topRoyaltyStartTime()": "9b40ab97",
			"topRoyaltyUserDirects(uint256,uint256)": "4d12ae0f",
			"topRoyaltyUserdtl(uint256)": "db27cc71",
			"topRoyaltydtl(uint256)": "056b4d1f",
			"totalUsers()": "bff1f9e1",
			"upgrade(uint256)": "45977d03",
			"usdt()": "2f48ab7d",
			"userBoosterChildren(uint256,uint256,uint256)": "0ef81b74",
			"userBoosterdtl(uint256,uint256)": "907c84a7",
			"userChildren(uint256,uint256,uint256)": "8f030ece",
			"userHasPool(uint256,uint256)": "bd1aae40",
			"userHasbooster(uint256,uint256)": "9c383486",
			"userIdPerPool(uint256,uint256,uint256)": "8d58644c",
			"userIncomes(uint256)": "46b9dece",
			"userPackage(uint256,uint256)": "5b58ce6c",
			"userPooldtl(uint256,uint256)": "ce79c2c3",
			"userPooltopup(uint256,uint256)": "bf724672",
			"users(uint256)": "365b98b2",
			"weeklyContestdtl(uint256)": "c4eb42a5",
			"weeklyQualifiedUsers(uint256,uint256)": "0a5c5d69",
			"weeklyUserDirects(uint256,uint256,uint256)": "4d4cc5ca",
			"weeklyUserdtl(uint256,uint256)": "0054815d"
		}
	},
	"abi": [
		{
			"inputs": [
				{
					"internalType": "address",
					"name": "_usdt",
					"type": "address"
				},
				{
					"internalType": "address",
					"name": "_creatorWallet",
					"type": "address"
				}
			],
			"stateMutability": "nonpayable",
			"type": "constructor"
		},
		{
			"inputs": [
				{
					"internalType": "address",
					"name": "token",
					"type": "address"
				}
			],
			"name": "SafeERC20FailedOperation",
			"type": "error"
		},
		{
			"anonymous": false,
			"inputs": [
				{
					"indexed": false,
					"internalType": "uint256",
					"name": "amount",
					"type": "uint256"
				},
				{
					"indexed": false,
					"internalType": "uint256",
					"name": "usersCount",
					"type": "uint256"
				},
				{
					"indexed": false,
					"internalType": "uint256",
					"name": "perUser",
					"type": "uint256"
				}
			],
			"name": "CommunityBonusDistributed",
			"type": "event"
		},
		{
			"anonymous": false,
			"inputs": [
				{
					"indexed": true,
					"internalType": "address",
					"name": "to",
					"type": "address"
				},
				{
					"indexed": true,
					"internalType": "address",
					"name": "from",
					"type": "address"
				},
				{
					"indexed": false,
					"internalType": "uint256",
					"name": "amount",
					"type": "uint256"
				},
				{
					"indexed": false,
					"internalType": "uint256",
					"name": "packageLevel",
					"type": "uint256"
				},
				{
					"indexed": false,
					"internalType": "uint256",
					"name": "incomeType",
					"type": "uint256"
				}
			],
			"name": "IncomeDistributed",
			"type": "event"
		},
		{
			"anonymous": false,
			"inputs": [
				{
					"indexed": true,
					"internalType": "address",
					"name": "to",
					"type": "address"
				},
				{
					"indexed": true,
					"internalType": "uint256",
					"name": "toId",
					"type": "uint256"
				},
				{
					"indexed": true,
					"internalType": "uint256",
					"name": "fromId",
					"type": "uint256"
				},
				{
					"indexed": false,
					"internalType": "uint256",
					"name": "amount",
					"type": "uint256"
				},
				{
					"indexed": false,
					"internalType": "uint256",
					"name": "packageLevel",
					"type": "uint256"
				},
				{
					"indexed": false,
					"internalType": "enum Storage.IncomeType",
					"name": "incomeType",
					"type": "uint8"
				},
				{
					"indexed": false,
					"internalType": "uint256",
					"name": "timestamp",
					"type": "uint256"
				}
			],
			"name": "IncomeDistribution",
			"type": "event"
		},
		{
			"anonymous": false,
			"inputs": [
				{
					"indexed": true,
					"internalType": "address",
					"name": "winner",
					"type": "address"
				},
				{
					"indexed": true,
					"internalType": "uint256",
					"name": "fromUserId",
					"type": "uint256"
				},
				{
					"indexed": false,
					"internalType": "uint256",
					"name": "amount",
					"type": "uint256"
				},
				{
					"indexed": false,
					"internalType": "uint256",
					"name": "timestamp",
					"type": "uint256"
				}
			],
			"name": "LotteryReward",
			"type": "event"
		},
		{
			"anonymous": false,
			"inputs": [
				{
					"indexed": false,
					"internalType": "uint256",
					"name": "roundId",
					"type": "uint256"
				},
				{
					"indexed": false,
					"internalType": "uint256",
					"name": "totalUsers",
					"type": "uint256"
				},
				{
					"indexed": false,
					"internalType": "uint256",
					"name": "perUserReward",
					"type": "uint256"
				},
				{
					"indexed": false,
					"internalType": "uint256",
					"name": "totalReward",
					"type": "uint256"
				},
				{
					"indexed": false,
					"internalType": "uint256",
					"name": "totalDistributed",
					"type": "uint256"
				},
				{
					"indexed": false,
					"internalType": "uint256",
					"name": "leftoverReward",
					"type": "uint256"
				},
				{
					"indexed": false,
					"internalType": "uint256",
					"name": "endTime",
					"type": "uint256"
				}
			],
			"name": "MonthlyClosed",
			"type": "event"
		},
		{
			"anonymous": false,
			"inputs": [
				{
					"indexed": false,
					"internalType": "uint256",
					"name": "roundId",
					"type": "uint256"
				},
				{
					"indexed": false,
					"internalType": "uint256",
					"name": "userId",
					"type": "uint256"
				},
				{
					"indexed": false,
					"internalType": "uint256",
					"name": "perUserReward",
					"type": "uint256"
				},
				{
					"indexed": false,
					"internalType": "uint256",
					"name": "claimTime",
					"type": "uint256"
				}
			],
			"name": "MonthlyRewardClaim",
			"type": "event"
		},
		{
			"anonymous": false,
			"inputs": [
				{
					"indexed": false,
					"internalType": "uint256",
					"name": "roundId",
					"type": "uint256"
				},
				{
					"indexed": false,
					"internalType": "uint256",
					"name": "userId",
					"type": "uint256"
				},
				{
					"indexed": false,
					"internalType": "uint256",
					"name": "joinTime",
					"type": "uint256"
				}
			],
			"name": "MonthlyRoyaltyQualified",
			"type": "event"
		},
		{
			"anonymous": false,
			"inputs": [
				{
					"indexed": true,
					"internalType": "address",
					"name": "user",
					"type": "address"
				},
				{
					"indexed": true,
					"internalType": "address",
					"name": "sponsor",
					"type": "address"
				},
				{
					"indexed": true,
					"internalType": "uint256",
					"name": "userId",
					"type": "uint256"
				},
				{
					"indexed": false,
					"internalType": "uint256",
					"name": "uplineId",
					"type": "uint256"
				}
			],
			"name": "Registration",
			"type": "event"
		},
		{
			"anonymous": false,
			"inputs": [
				{
					"indexed": true,
					"internalType": "address",
					"name": "to",
					"type": "address"
				},
				{
					"indexed": false,
					"internalType": "uint256",
					"name": "amount",
					"type": "uint256"
				},
				{
					"indexed": false,
					"internalType": "string",
					"name": "level",
					"type": "string"
				}
			],
			"name": "RewardSent",
			"type": "event"
		},
		{
			"anonymous": false,
			"inputs": [
				{
					"indexed": false,
					"internalType": "uint256",
					"name": "roundId",
					"type": "uint256"
				},
				{
					"indexed": false,
					"internalType": "uint256",
					"name": "totalUsers",
					"type": "uint256"
				},
				{
					"indexed": false,
					"internalType": "uint256",
					"name": "perUserReward",
					"type": "uint256"
				},
				{
					"indexed": false,
					"internalType": "uint256",
					"name": "totalReward",
					"type": "uint256"
				},
				{
					"indexed": false,
					"internalType": "uint256",
					"name": "totalDistributed",
					"type": "uint256"
				},
				{
					"indexed": false,
					"internalType": "uint256",
					"name": "leftoverReward",
					"type": "uint256"
				},
				{
					"indexed": false,
					"internalType": "uint256",
					"name": "endTime",
					"type": "uint256"
				}
			],
			"name": "TopRoyaltyClosed",
			"type": "event"
		},
		{
			"anonymous": false,
			"inputs": [
				{
					"indexed": false,
					"internalType": "uint256",
					"name": "roundId",
					"type": "uint256"
				},
				{
					"indexed": false,
					"internalType": "uint256",
					"name": "userId",
					"type": "uint256"
				},
				{
					"indexed": false,
					"internalType": "uint256",
					"name": "joinTime",
					"type": "uint256"
				}
			],
			"name": "TopRoyaltyQualified",
			"type": "event"
		},
		{
			"anonymous": false,
			"inputs": [
				{
					"indexed": false,
					"internalType": "uint256",
					"name": "roundId",
					"type": "uint256"
				},
				{
					"indexed": false,
					"internalType": "uint256",
					"name": "userId",
					"type": "uint256"
				},
				{
					"indexed": false,
					"internalType": "uint256",
					"name": "perUserReward",
					"type": "uint256"
				},
				{
					"indexed": false,
					"internalType": "uint256",
					"name": "claimTime",
					"type": "uint256"
				}
			],
			"name": "TopRoyaltyRewardClaim",
			"type": "event"
		},
		{
			"anonymous": false,
			"inputs": [
				{
					"indexed": true,
					"internalType": "address",
					"name": "user",
					"type": "address"
				},
				{
					"indexed": true,
					"internalType": "uint256",
					"name": "userId",
					"type": "uint256"
				},
				{
					"indexed": false,
					"internalType": "uint256",
					"name": "packageLevel",
					"type": "uint256"
				},
				{
					"indexed": false,
					"internalType": "uint256",
					"name": "packagePrice",
					"type": "uint256"
				},
				{
					"indexed": false,
					"internalType": "string",
					"name": "depositType",
					"type": "string"
				},
				{
					"indexed": false,
					"internalType": "uint256",
					"name": "upgradeTime",
					"type": "uint256"
				}
			],
			"name": "Upgrade",
			"type": "event"
		},
		{
			"anonymous": false,
			"inputs": [
				{
					"indexed": true,
					"internalType": "uint8",
					"name": "matrixId",
					"type": "uint8"
				},
				{
					"indexed": true,
					"internalType": "uint32",
					"name": "userId",
					"type": "uint32"
				},
				{
					"indexed": true,
					"internalType": "address",
					"name": "user",
					"type": "address"
				},
				{
					"indexed": false,
					"internalType": "uint32",
					"name": "parentId",
					"type": "uint32"
				},
				{
					"indexed": false,
					"internalType": "address",
					"name": "parentAddr",
					"type": "address"
				},
				{
					"indexed": false,
					"internalType": "uint8",
					"name": "position",
					"type": "uint8"
				}
			],
			"name": "UserJoined",
			"type": "event"
		},
		{
			"anonymous": false,
			"inputs": [
				{
					"indexed": false,
					"internalType": "uint256",
					"name": "roundId",
					"type": "uint256"
				},
				{
					"indexed": false,
					"internalType": "uint256",
					"name": "totalUsers",
					"type": "uint256"
				},
				{
					"indexed": false,
					"internalType": "uint256",
					"name": "perUserReward",
					"type": "uint256"
				},
				{
					"indexed": false,
					"internalType": "uint256",
					"name": "totalReward",
					"type": "uint256"
				},
				{
					"indexed": false,
					"internalType": "uint256",
					"name": "totalDistributed",
					"type": "uint256"
				},
				{
					"indexed": false,
					"internalType": "uint256",
					"name": "leftoverReward",
					"type": "uint256"
				},
				{
					"indexed": false,
					"internalType": "uint256",
					"name": "endTime",
					"type": "uint256"
				}
			],
			"name": "WeeklyClosed",
			"type": "event"
		},
		{
			"anonymous": false,
			"inputs": [
				{
					"indexed": false,
					"internalType": "uint256",
					"name": "roundId",
					"type": "uint256"
				},
				{
					"indexed": false,
					"internalType": "uint256",
					"name": "userId",
					"type": "uint256"
				},
				{
					"indexed": false,
					"internalType": "uint256",
					"name": "joinTime",
					"type": "uint256"
				}
			],
			"name": "WeeklyContestQualified",
			"type": "event"
		},
		{
			"anonymous": false,
			"inputs": [
				{
					"indexed": false,
					"internalType": "uint256",
					"name": "roundId",
					"type": "uint256"
				},
				{
					"indexed": false,
					"internalType": "uint256",
					"name": "userId",
					"type": "uint256"
				},
				{
					"indexed": false,
					"internalType": "uint256",
					"name": "perUserReward",
					"type": "uint256"
				},
				{
					"indexed": false,
					"internalType": "uint256",
					"name": "claimTime",
					"type": "uint256"
				}
			],
			"name": "WeeklyRewardClaim",
			"type": "event"
		},
		{
			"inputs": [],
			"name": "ACC_PRECISION",
			"outputs": [
				{
					"internalType": "uint256",
					"name": "",
					"type": "uint256"
				}
			],
			"stateMutability": "view",
			"type": "function"
		},
		{
			"inputs": [],
			"name": "MONTHLY_ROYALTY_DIRECT",
			"outputs": [
				{
					"internalType": "uint256",
					"name": "",
					"type": "uint256"
				}
			],
			"stateMutability": "view",
			"type": "function"
		},
		{
			"inputs": [],
			"name": "MONTHLY_ROYALTY_LEVEL",
			"outputs": [
				{
					"internalType": "uint256",
					"name": "",
					"type": "uint256"
				}
			],
			"stateMutability": "view",
			"type": "function"
		},
		{
			"inputs": [],
			"name": "MONTHLY_ROYALTY_TIME",
			"outputs": [
				{
					"internalType": "uint256",
					"name": "",
					"type": "uint256"
				}
			],
			"stateMutability": "view",
			"type": "function"
		},
		{
			"inputs": [],
			"name": "MONTH_DURATION",
			"outputs": [
				{
					"internalType": "uint256",
					"name": "",
					"type": "uint256"
				}
			],
			"stateMutability": "view",
			"type": "function"
		},
		{
			"inputs": [],
			"name": "PERCENTS_DIVIDER",
			"outputs": [
				{
					"internalType": "uint256",
					"name": "",
					"type": "uint256"
				}
			],
			"stateMutability": "view",
			"type": "function"
		},
		{
			"inputs": [],
			"name": "ROI_2X_TIME",
			"outputs": [
				{
					"internalType": "uint256",
					"name": "",
					"type": "uint256"
				}
			],
			"stateMutability": "view",
			"type": "function"
		},
		{
			"inputs": [],
			"name": "ROI_CAP_DIVIDER",
			"outputs": [
				{
					"internalType": "uint256",
					"name": "",
					"type": "uint256"
				}
			],
			"stateMutability": "view",
			"type": "function"
		},
		{
			"inputs": [],
			"name": "ROI_CAP_MULTIPLIER",
			"outputs": [
				{
					"internalType": "uint256",
					"name": "",
					"type": "uint256"
				}
			],
			"stateMutability": "view",
			"type": "function"
		},
		{
			"inputs": [],
			"name": "TIME_STEP",
			"outputs": [
				{
					"internalType": "uint256",
					"name": "",
					"type": "uint256"
				}
			],
			"stateMutability": "view",
			"type": "function"
		},
		{
			"inputs": [],
			"name": "TOP_ROYALTY_DIRECT",
			"outputs": [
				{
					"internalType": "uint256",
					"name": "",
					"type": "uint256"
				}
			],
			"stateMutability": "view",
			"type": "function"
		},
		{
			"inputs": [],
			"name": "TOP_ROYALTY_LEVEL",
			"outputs": [
				{
					"internalType": "uint256",
					"name": "",
					"type": "uint256"
				}
			],
			"stateMutability": "view",
			"type": "function"
		},
		{
			"inputs": [],
			"name": "TOP_ROYALTY_TIME",
			"outputs": [
				{
					"internalType": "uint256",
					"name": "",
					"type": "uint256"
				}
			],
			"stateMutability": "view",
			"type": "function"
		},
		{
			"inputs": [],
			"name": "WEEK_DURATION",
			"outputs": [
				{
					"internalType": "uint256",
					"name": "",
					"type": "uint256"
				}
			],
			"stateMutability": "view",
			"type": "function"
		},
		{
			"inputs": [],
			"name": "WeeklyCapping",
			"outputs": [
				{
					"internalType": "uint256",
					"name": "",
					"type": "uint256"
				}
			],
			"stateMutability": "view",
			"type": "function"
		},
		{
			"inputs": [],
			"name": "WeeklyTotalReward",
			"outputs": [
				{
					"internalType": "uint256",
					"name": "",
					"type": "uint256"
				}
			],
			"stateMutability": "view",
			"type": "function"
		},
		{
			"inputs": [
				{
					"internalType": "address",
					"name": "",
					"type": "address"
				}
			],
			"name": "addressToId",
			"outputs": [
				{
					"internalType": "uint256",
					"name": "",
					"type": "uint256"
				}
			],
			"stateMutability": "view",
			"type": "function"
		},
		{
			"inputs": [
				{
					"internalType": "uint256",
					"name": "",
					"type": "uint256"
				},
				{
					"internalType": "uint256",
					"name": "",
					"type": "uint256"
				}
			],
			"name": "boosterUsers",
			"outputs": [
				{
					"internalType": "uint256",
					"name": "",
					"type": "uint256"
				}
			],
			"stateMutability": "view",
			"type": "function"
		},
		{
			"inputs": [
				{
					"internalType": "uint256",
					"name": "_userId",
					"type": "uint256"
				},
				{
					"internalType": "uint256",
					"name": "_roundId",
					"type": "uint256"
				}
			],
			"name": "canClaimMonthlyReward",
			"outputs": [
				{
					"internalType": "bool",
					"name": "",
					"type": "bool"
				}
			],
			"stateMutability": "view",
			"type": "function"
		},
		{
			"inputs": [
				{
					"internalType": "uint256",
					"name": "_userId",
					"type": "uint256"
				},
				{
					"internalType": "uint256",
					"name": "packagePrice",
					"type": "uint256"
				}
			],
			"name": "claimCommunity",
			"outputs": [],
			"stateMutability": "nonpayable",
			"type": "function"
		},
		{
			"inputs": [
				{
					"internalType": "uint256",
					"name": "_userId",
					"type": "uint256"
				},
				{
					"internalType": "uint256",
					"name": "_roundId",
					"type": "uint256"
				}
			],
			"name": "claimMonthlyCRoyaltyReward",
			"outputs": [],
			"stateMutability": "nonpayable",
			"type": "function"
		},
		{
			"inputs": [
				{
					"internalType": "uint256",
					"name": "_userId",
					"type": "uint256"
				},
				{
					"internalType": "uint256",
					"name": "_roundId",
					"type": "uint256"
				}
			],
			"name": "claimTopRoyaltyReward",
			"outputs": [],
			"stateMutability": "nonpayable",
			"type": "function"
		},
		{
			"inputs": [
				{
					"internalType": "uint256",
					"name": "_userId",
					"type": "uint256"
				},
				{
					"internalType": "uint256",
					"name": "_roundId",
					"type": "uint256"
				}
			],
			"name": "claimWeeklyContestReward",
			"outputs": [],
			"stateMutability": "nonpayable",
			"type": "function"
		},
		{
			"inputs": [
				{
					"internalType": "uint256",
					"name": "",
					"type": "uint256"
				}
			],
			"name": "communityAccPerPackage",
			"outputs": [
				{
					"internalType": "uint256",
					"name": "",
					"type": "uint256"
				}
			],
			"stateMutability": "view",
			"type": "function"
		},
		{
			"inputs": [],
			"name": "communityAccPerUser",
			"outputs": [
				{
					"internalType": "uint256",
					"name": "",
					"type": "uint256"
				}
			],
			"stateMutability": "view",
			"type": "function"
		},
		{
			"inputs": [
				{
					"internalType": "uint256",
					"name": "",
					"type": "uint256"
				},
				{
					"internalType": "uint256",
					"name": "",
					"type": "uint256"
				}
			],
			"name": "communityDebt",
			"outputs": [
				{
					"internalType": "uint256",
					"name": "",
					"type": "uint256"
				}
			],
			"stateMutability": "view",
			"type": "function"
		},
		{
			"inputs": [],
			"name": "creatorWallet",
			"outputs": [
				{
					"internalType": "address",
					"name": "",
					"type": "address"
				}
			],
			"stateMutability": "view",
			"type": "function"
		},
		{
			"inputs": [],
			"name": "currentMonthlyRound",
			"outputs": [
				{
					"internalType": "uint256",
					"name": "",
					"type": "uint256"
				}
			],
			"stateMutability": "view",
			"type": "function"
		},
		{
			"inputs": [],
			"name": "currentMonthlyStartTime",
			"outputs": [
				{
					"internalType": "uint256",
					"name": "",
					"type": "uint256"
				}
			],
			"stateMutability": "view",
			"type": "function"
		},
		{
			"inputs": [],
			"name": "currentWeeklyRound",
			"outputs": [
				{
					"internalType": "uint256",
					"name": "",
					"type": "uint256"
				}
			],
			"stateMutability": "view",
			"type": "function"
		},
		{
			"inputs": [],
			"name": "currentWeeklyStartTime",
			"outputs": [
				{
					"internalType": "uint256",
					"name": "",
					"type": "uint256"
				}
			],
			"stateMutability": "view",
			"type": "function"
		},
		{
			"inputs": [],
			"name": "defaultRefId",
			"outputs": [
				{
					"internalType": "uint256",
					"name": "",
					"type": "uint256"
				}
			],
			"stateMutability": "view",
			"type": "function"
		},
		{
			"inputs": [
				{
					"internalType": "uint256",
					"name": "",
					"type": "uint256"
				},
				{
					"internalType": "uint256",
					"name": "",
					"type": "uint256"
				}
			],
			"name": "directReferrals",
			"outputs": [
				{
					"internalType": "uint256",
					"name": "",
					"type": "uint256"
				}
			],
			"stateMutability": "view",
			"type": "function"
		},
		{
			"inputs": [
				{
					"internalType": "uint256",
					"name": "",
					"type": "uint256"
				}
			],
			"name": "glbBoosterPackages",
			"outputs": [
				{
					"internalType": "uint256",
					"name": "",
					"type": "uint256"
				}
			],
			"stateMutability": "view",
			"type": "function"
		},
		{
			"inputs": [
				{
					"internalType": "uint256",
					"name": "",
					"type": "uint256"
				},
				{
					"internalType": "uint256",
					"name": "",
					"type": "uint256"
				}
			],
			"name": "incomeHistory",
			"outputs": [
				{
					"internalType": "uint256",
					"name": "fromUserId",
					"type": "uint256"
				},
				{
					"internalType": "uint256",
					"name": "amount",
					"type": "uint256"
				},
				{
					"internalType": "uint256",
					"name": "packageLevel",
					"type": "uint256"
				},
				{
					"internalType": "uint256",
					"name": "timestamp",
					"type": "uint256"
				},
				{
					"internalType": "uint256",
					"name": "incomeType",
					"type": "uint256"
				}
			],
			"stateMutability": "view",
			"type": "function"
		},
		{
			"inputs": [
				{
					"internalType": "uint256",
					"name": "",
					"type": "uint256"
				}
			],
			"name": "matrixDirect",
			"outputs": [
				{
					"internalType": "uint256",
					"name": "",
					"type": "uint256"
				}
			],
			"stateMutability": "view",
			"type": "function"
		},
		{
			"inputs": [
				{
					"internalType": "uint256",
					"name": "",
					"type": "uint256"
				}
			],
			"name": "minLevelForGlbBooster",
			"outputs": [
				{
					"internalType": "uint256",
					"name": "",
					"type": "uint256"
				}
			],
			"stateMutability": "view",
			"type": "function"
		},
		{
			"inputs": [
				{
					"internalType": "uint256",
					"name": "",
					"type": "uint256"
				}
			],
			"name": "minLevelForPool",
			"outputs": [
				{
					"internalType": "uint256",
					"name": "",
					"type": "uint256"
				}
			],
			"stateMutability": "view",
			"type": "function"
		},
		{
			"inputs": [
				{
					"internalType": "uint256",
					"name": "",
					"type": "uint256"
				}
			],
			"name": "minPoolForGlbBooster",
			"outputs": [
				{
					"internalType": "uint256",
					"name": "",
					"type": "uint256"
				}
			],
			"stateMutability": "view",
			"type": "function"
		},
		{
			"inputs": [],
			"name": "monthlyCapping",
			"outputs": [
				{
					"internalType": "uint256",
					"name": "",
					"type": "uint256"
				}
			],
			"stateMutability": "view",
			"type": "function"
		},
		{
			"inputs": [
				{
					"internalType": "uint256",
					"name": "",
					"type": "uint256"
				}
			],
			"name": "monthlyQualifiedUsers",
			"outputs": [
				{
					"internalType": "uint256",
					"name": "",
					"type": "uint256"
				}
			],
			"stateMutability": "view",
			"type": "function"
		},
		{
			"inputs": [
				{
					"internalType": "uint256",
					"name": "",
					"type": "uint256"
				}
			],
			"name": "monthlyRoyaltyUserdtl",
			"outputs": [
				{
					"internalType": "uint256",
					"name": "joinTime",
					"type": "uint256"
				},
				{
					"internalType": "uint256",
					"name": "qualifiedRoundId",
					"type": "uint256"
				},
				{
					"internalType": "uint256",
					"name": "claimTime",
					"type": "uint256"
				},
				{
					"internalType": "bool",
					"name": "isQualified",
					"type": "bool"
				}
			],
			"stateMutability": "view",
			"type": "function"
		},
		{
			"inputs": [
				{
					"internalType": "uint256",
					"name": "",
					"type": "uint256"
				}
			],
			"name": "monthlyRoyaltydtl",
			"outputs": [
				{
					"internalType": "uint256",
					"name": "roundId",
					"type": "uint256"
				},
				{
					"internalType": "uint256",
					"name": "totalReward",
					"type": "uint256"
				},
				{
					"internalType": "uint256",
					"name": "totalUsers",
					"type": "uint256"
				},
				{
					"internalType": "uint256",
					"name": "perUserReward",
					"type": "uint256"
				},
				{
					"internalType": "uint256",
					"name": "claimedCount",
					"type": "uint256"
				},
				{
					"internalType": "uint256",
					"name": "startTime",
					"type": "uint256"
				},
				{
					"internalType": "uint256",
					"name": "endTime",
					"type": "uint256"
				},
				{
					"internalType": "uint256",
					"name": "carryForward",
					"type": "uint256"
				},
				{
					"internalType": "bool",
					"name": "closed",
					"type": "bool"
				}
			],
			"stateMutability": "view",
			"type": "function"
		},
		{
			"inputs": [],
			"name": "monthlyTotalReward",
			"outputs": [
				{
					"internalType": "uint256",
					"name": "",
					"type": "uint256"
				}
			],
			"stateMutability": "view",
			"type": "function"
		},
		{
			"inputs": [
				{
					"internalType": "uint256",
					"name": "",
					"type": "uint256"
				},
				{
					"internalType": "uint256",
					"name": "",
					"type": "uint256"
				}
			],
			"name": "monthlyUserDirects",
			"outputs": [
				{
					"internalType": "uint256",
					"name": "",
					"type": "uint256"
				}
			],
			"stateMutability": "view",
			"type": "function"
		},
		{
			"inputs": [
				{
					"internalType": "uint256",
					"name": "",
					"type": "uint256"
				}
			],
			"name": "packageQualifiedUsers",
			"outputs": [
				{
					"internalType": "uint256",
					"name": "",
					"type": "uint256"
				}
			],
			"stateMutability": "view",
			"type": "function"
		},
		{
			"inputs": [
				{
					"internalType": "uint256",
					"name": "",
					"type": "uint256"
				}
			],
			"name": "packages",
			"outputs": [
				{
					"internalType": "uint256",
					"name": "",
					"type": "uint256"
				}
			],
			"stateMutability": "view",
			"type": "function"
		},
		{
			"inputs": [
				{
					"internalType": "uint256",
					"name": "_userId",
					"type": "uint256"
				},
				{
					"internalType": "uint256",
					"name": "_packagePrice",
					"type": "uint256"
				}
			],
			"name": "pendingCommunity",
			"outputs": [
				{
					"internalType": "uint256",
					"name": "pendingGross",
					"type": "uint256"
				},
				{
					"internalType": "uint256",
					"name": "pendingAfterCap",
					"type": "uint256"
				}
			],
			"stateMutability": "view",
			"type": "function"
		},
		{
			"inputs": [
				{
					"internalType": "uint256",
					"name": "",
					"type": "uint256"
				}
			],
			"name": "poolPackages",
			"outputs": [
				{
					"internalType": "uint256",
					"name": "",
					"type": "uint256"
				}
			],
			"stateMutability": "view",
			"type": "function"
		},
		{
			"inputs": [
				{
					"internalType": "uint256",
					"name": "",
					"type": "uint256"
				},
				{
					"internalType": "uint256",
					"name": "",
					"type": "uint256"
				}
			],
			"name": "poolUsers",
			"outputs": [
				{
					"internalType": "uint256",
					"name": "",
					"type": "uint256"
				}
			],
			"stateMutability": "view",
			"type": "function"
		},
		{
			"inputs": [
				{
					"internalType": "uint256",
					"name": "_sponsorId",
					"type": "uint256"
				}
			],
			"name": "register",
			"outputs": [],
			"stateMutability": "nonpayable",
			"type": "function"
		},
		{
			"inputs": [
				{
					"internalType": "uint256",
					"name": "",
					"type": "uint256"
				}
			],
			"name": "registeredUserIds",
			"outputs": [
				{
					"internalType": "uint256",
					"name": "",
					"type": "uint256"
				}
			],
			"stateMutability": "view",
			"type": "function"
		},
		{
			"inputs": [],
			"name": "systemMaintance",
			"outputs": [
				{
					"internalType": "address",
					"name": "",
					"type": "address"
				}
			],
			"stateMutability": "view",
			"type": "function"
		},
		{
			"inputs": [],
			"name": "teamDevelopment",
			"outputs": [
				{
					"internalType": "address",
					"name": "",
					"type": "address"
				}
			],
			"stateMutability": "view",
			"type": "function"
		},
		{
			"inputs": [
				{
					"internalType": "uint256",
					"name": "",
					"type": "uint256"
				},
				{
					"internalType": "uint256",
					"name": "",
					"type": "uint256"
				},
				{
					"internalType": "uint256",
					"name": "",
					"type": "uint256"
				}
			],
			"name": "teams",
			"outputs": [
				{
					"internalType": "uint256",
					"name": "",
					"type": "uint256"
				}
			],
			"stateMutability": "view",
			"type": "function"
		},
		{
			"inputs": [
				{
					"internalType": "uint256",
					"name": "",
					"type": "uint256"
				}
			],
			"name": "topRoyaltyQualifiedUsers",
			"outputs": [
				{
					"internalType": "uint256",
					"name": "",
					"type": "uint256"
				}
			],
			"stateMutability": "view",
			"type": "function"
		},
		{
			"inputs": [],
			"name": "topRoyaltyReward",
			"outputs": [
				{
					"internalType": "uint256",
					"name": "",
					"type": "uint256"
				}
			],
			"stateMutability": "view",
			"type": "function"
		},
		{
			"inputs": [],
			"name": "topRoyaltyRound",
			"outputs": [
				{
					"internalType": "uint256",
					"name": "",
					"type": "uint256"
				}
			],
			"stateMutability": "view",
			"type": "function"
		},
		{
			"inputs": [],
			"name": "topRoyaltyStartTime",
			"outputs": [
				{
					"internalType": "uint256",
					"name": "",
					"type": "uint256"
				}
			],
			"stateMutability": "view",
			"type": "function"
		},
		{
			"inputs": [
				{
					"internalType": "uint256",
					"name": "",
					"type": "uint256"
				},
				{
					"internalType": "uint256",
					"name": "",
					"type": "uint256"
				}
			],
			"name": "topRoyaltyUserDirects",
			"outputs": [
				{
					"internalType": "uint256",
					"name": "",
					"type": "uint256"
				}
			],
			"stateMutability": "view",
			"type": "function"
		},
		{
			"inputs": [
				{
					"internalType": "uint256",
					"name": "",
					"type": "uint256"
				}
			],
			"name": "topRoyaltyUserdtl",
			"outputs": [
				{
					"internalType": "uint256",
					"name": "joinTime",
					"type": "uint256"
				},
				{
					"internalType": "uint256",
					"name": "qualifiedRoundId",
					"type": "uint256"
				},
				{
					"internalType": "uint256",
					"name": "claimTime",
					"type": "uint256"
				},
				{
					"internalType": "bool",
					"name": "isQualified",
					"type": "bool"
				}
			],
			"stateMutability": "view",
			"type": "function"
		},
		{
			"inputs": [
				{
					"internalType": "uint256",
					"name": "",
					"type": "uint256"
				}
			],
			"name": "topRoyaltydtl",
			"outputs": [
				{
					"internalType": "uint256",
					"name": "roundId",
					"type": "uint256"
				},
				{
					"internalType": "uint256",
					"name": "totalReward",
					"type": "uint256"
				},
				{
					"internalType": "uint256",
					"name": "totalUsers",
					"type": "uint256"
				},
				{
					"internalType": "uint256",
					"name": "perUserReward",
					"type": "uint256"
				},
				{
					"internalType": "uint256",
					"name": "claimedCount",
					"type": "uint256"
				},
				{
					"internalType": "uint256",
					"name": "startTime",
					"type": "uint256"
				},
				{
					"internalType": "uint256",
					"name": "endTime",
					"type": "uint256"
				},
				{
					"internalType": "uint256",
					"name": "carryForward",
					"type": "uint256"
				},
				{
					"internalType": "bool",
					"name": "closed",
					"type": "bool"
				}
			],
			"stateMutability": "view",
			"type": "function"
		},
		{
			"inputs": [],
			"name": "totalUsers",
			"outputs": [
				{
					"internalType": "uint256",
					"name": "",
					"type": "uint256"
				}
			],
			"stateMutability": "view",
			"type": "function"
		},
		{
			"inputs": [
				{
					"internalType": "uint256",
					"name": "_userId",
					"type": "uint256"
				}
			],
			"name": "upgrade",
			"outputs": [],
			"stateMutability": "nonpayable",
			"type": "function"
		},
		{
			"inputs": [],
			"name": "usdt",
			"outputs": [
				{
					"internalType": "contract IERC20",
					"name": "",
					"type": "address"
				}
			],
			"stateMutability": "view",
			"type": "function"
		},
		{
			"inputs": [
				{
					"internalType": "uint256",
					"name": "",
					"type": "uint256"
				},
				{
					"internalType": "uint256",
					"name": "",
					"type": "uint256"
				},
				{
					"internalType": "uint256",
					"name": "",
					"type": "uint256"
				}
			],
			"name": "userBoosterChildren",
			"outputs": [
				{
					"internalType": "uint256",
					"name": "",
					"type": "uint256"
				}
			],
			"stateMutability": "view",
			"type": "function"
		},
		{
			"inputs": [
				{
					"internalType": "uint256",
					"name": "",
					"type": "uint256"
				},
				{
					"internalType": "uint256",
					"name": "",
					"type": "uint256"
				}
			],
			"name": "userBoosterdtl",
			"outputs": [
				{
					"internalType": "uint256",
					"name": "id",
					"type": "uint256"
				},
				{
					"internalType": "uint256",
					"name": "poolId",
					"type": "uint256"
				},
				{
					"internalType": "uint256",
					"name": "parentId",
					"type": "uint256"
				},
				{
					"internalType": "uint256",
					"name": "bonusCount",
					"type": "uint256"
				},
				{
					"internalType": "uint256",
					"name": "joinTime",
					"type": "uint256"
				}
			],
			"stateMutability": "view",
			"type": "function"
		},
		{
			"inputs": [
				{
					"internalType": "uint256",
					"name": "",
					"type": "uint256"
				},
				{
					"internalType": "uint256",
					"name": "",
					"type": "uint256"
				},
				{
					"internalType": "uint256",
					"name": "",
					"type": "uint256"
				}
			],
			"name": "userChildren",
			"outputs": [
				{
					"internalType": "uint256",
					"name": "",
					"type": "uint256"
				}
			],
			"stateMutability": "view",
			"type": "function"
		},
		{
			"inputs": [
				{
					"internalType": "uint256",
					"name": "",
					"type": "uint256"
				},
				{
					"internalType": "uint256",
					"name": "",
					"type": "uint256"
				}
			],
			"name": "userHasPool",
			"outputs": [
				{
					"internalType": "bool",
					"name": "",
					"type": "bool"
				}
			],
			"stateMutability": "view",
			"type": "function"
		},
		{
			"inputs": [
				{
					"internalType": "uint256",
					"name": "",
					"type": "uint256"
				},
				{
					"internalType": "uint256",
					"name": "",
					"type": "uint256"
				}
			],
			"name": "userHasbooster",
			"outputs": [
				{
					"internalType": "bool",
					"name": "",
					"type": "bool"
				}
			],
			"stateMutability": "view",
			"type": "function"
		},
		{
			"inputs": [
				{
					"internalType": "uint256",
					"name": "",
					"type": "uint256"
				},
				{
					"internalType": "uint256",
					"name": "",
					"type": "uint256"
				},
				{
					"internalType": "uint256",
					"name": "",
					"type": "uint256"
				}
			],
			"name": "userIdPerPool",
			"outputs": [
				{
					"internalType": "uint256",
					"name": "",
					"type": "uint256"
				}
			],
			"stateMutability": "view",
			"type": "function"
		},
		{
			"inputs": [
				{
					"internalType": "uint256",
					"name": "",
					"type": "uint256"
				}
			],
			"name": "userIncomes",
			"outputs": [
				{
					"internalType": "uint256",
					"name": "totalIncome",
					"type": "uint256"
				},
				{
					"internalType": "uint256",
					"name": "sponsorIncome",
					"type": "uint256"
				},
				{
					"internalType": "uint256",
					"name": "matrixIncome",
					"type": "uint256"
				},
				{
					"internalType": "uint256",
					"name": "levelBoosterIncome",
					"type": "uint256"
				},
				{
					"internalType": "uint256",
					"name": "royaltyIncome",
					"type": "uint256"
				},
				{
					"internalType": "uint256",
					"name": "royaltyIncomeClaimed",
					"type": "uint256"
				},
				{
					"internalType": "uint256",
					"name": "communityIncome",
					"type": "uint256"
				},
				{
					"internalType": "uint256",
					"name": "poolIncome",
					"type": "uint256"
				},
				{
					"internalType": "uint256",
					"name": "boosterIncome",
					"type": "uint256"
				},
				{
					"internalType": "uint256",
					"name": "weeklyContestIncome",
					"type": "uint256"
				},
				{
					"internalType": "uint256",
					"name": "monthlyRoyalty",
					"type": "uint256"
				},
				{
					"internalType": "uint256",
					"name": "topRoyalty",
					"type": "uint256"
				}
			],
			"stateMutability": "view",
			"type": "function"
		},
		{
			"inputs": [
				{
					"internalType": "uint256",
					"name": "",
					"type": "uint256"
				},
				{
					"internalType": "uint256",
					"name": "",
					"type": "uint256"
				}
			],
			"name": "userPackage",
			"outputs": [
				{
					"internalType": "uint256",
					"name": "roiCap",
					"type": "uint256"
				},
				{
					"internalType": "uint256",
					"name": "currentIncome",
					"type": "uint256"
				},
				{
					"internalType": "uint256",
					"name": "closingAmount",
					"type": "uint256"
				},
				{
					"internalType": "bool",
					"name": "qualified",
					"type": "bool"
				},
				{
					"internalType": "bool",
					"name": "closed",
					"type": "bool"
				}
			],
			"stateMutability": "view",
			"type": "function"
		},
		{
			"inputs": [
				{
					"internalType": "uint256",
					"name": "",
					"type": "uint256"
				},
				{
					"internalType": "uint256",
					"name": "",
					"type": "uint256"
				}
			],
			"name": "userPooldtl",
			"outputs": [
				{
					"internalType": "uint256",
					"name": "id",
					"type": "uint256"
				},
				{
					"internalType": "uint256",
					"name": "mainid",
					"type": "uint256"
				},
				{
					"internalType": "uint256",
					"name": "poolId",
					"type": "uint256"
				},
				{
					"internalType": "uint256",
					"name": "parentId",
					"type": "uint256"
				},
				{
					"internalType": "uint256",
					"name": "bonusCount",
					"type": "uint256"
				}
			],
			"stateMutability": "view",
			"type": "function"
		},
		{
			"inputs": [
				{
					"internalType": "uint256",
					"name": "",
					"type": "uint256"
				},
				{
					"internalType": "uint256",
					"name": "",
					"type": "uint256"
				}
			],
			"name": "userPooltopup",
			"outputs": [
				{
					"internalType": "uint256",
					"name": "nextPoolAmt",
					"type": "uint256"
				},
				{
					"internalType": "uint256",
					"name": "reTopupAmt",
					"type": "uint256"
				}
			],
			"stateMutability": "view",
			"type": "function"
		},
		{
			"inputs": [
				{
					"internalType": "uint256",
					"name": "",
					"type": "uint256"
				}
			],
			"name": "users",
			"outputs": [
				{
					"internalType": "address",
					"name": "account",
					"type": "address"
				},
				{
					"internalType": "uint256",
					"name": "checkpoint",
					"type": "uint256"
				},
				{
					"internalType": "uint256",
					"name": "id",
					"type": "uint256"
				},
				{
					"internalType": "uint256",
					"name": "sponsorId",
					"type": "uint256"
				},
				{
					"internalType": "uint256",
					"name": "uplineId",
					"type": "uint256"
				},
				{
					"internalType": "uint256",
					"name": "level",
					"type": "uint256"
				},
				{
					"internalType": "uint256",
					"name": "directTeam",
					"type": "uint256"
				},
				{
					"internalType": "uint256",
					"name": "directPoolQualified",
					"type": "uint256"
				},
				{
					"internalType": "uint256",
					"name": "totalMatrixTeam",
					"type": "uint256"
				},
				{
					"internalType": "uint256",
					"name": "totalDeposit",
					"type": "uint256"
				},
				{
					"internalType": "uint256",
					"name": "roiCap",
					"type": "uint256"
				},
				{
					"internalType": "uint256",
					"name": "poollevel",
					"type": "uint256"
				},
				{
					"internalType": "uint256",
					"name": "poolDeposit",
					"type": "uint256"
				},
				{
					"internalType": "uint256",
					"name": "poolStartTime",
					"type": "uint256"
				},
				{
					"internalType": "uint256",
					"name": "boosterlevel",
					"type": "uint256"
				},
				{
					"internalType": "uint256",
					"name": "boosterDeposit",
					"type": "uint256"
				},
				{
					"internalType": "uint256",
					"name": "registrationTime",
					"type": "uint256"
				},
				{
					"internalType": "uint256",
					"name": "level10Time",
					"type": "uint256"
				},
				{
					"internalType": "uint256",
					"name": "level15Time",
					"type": "uint256"
				},
				{
					"internalType": "uint256",
					"name": "monthlyUserDirectCount",
					"type": "uint256"
				},
				{
					"internalType": "uint256",
					"name": "topRoyaltyDirectCount",
					"type": "uint256"
				}
			],
			"stateMutability": "view",
			"type": "function"
		},
		{
			"inputs": [
				{
					"internalType": "uint256",
					"name": "",
					"type": "uint256"
				}
			],
			"name": "weeklyContestdtl",
			"outputs": [
				{
					"internalType": "uint256",
					"name": "roundId",
					"type": "uint256"
				},
				{
					"internalType": "uint256",
					"name": "totalReward",
					"type": "uint256"
				},
				{
					"internalType": "uint256",
					"name": "totalUsers",
					"type": "uint256"
				},
				{
					"internalType": "uint256",
					"name": "perUserReward",
					"type": "uint256"
				},
				{
					"internalType": "uint256",
					"name": "claimedCount",
					"type": "uint256"
				},
				{
					"internalType": "uint256",
					"name": "startTime",
					"type": "uint256"
				},
				{
					"internalType": "uint256",
					"name": "endTime",
					"type": "uint256"
				},
				{
					"internalType": "uint256",
					"name": "carryForward",
					"type": "uint256"
				},
				{
					"internalType": "bool",
					"name": "closed",
					"type": "bool"
				}
			],
			"stateMutability": "view",
			"type": "function"
		},
		{
			"inputs": [
				{
					"internalType": "uint256",
					"name": "",
					"type": "uint256"
				},
				{
					"internalType": "uint256",
					"name": "",
					"type": "uint256"
				}
			],
			"name": "weeklyQualifiedUsers",
			"outputs": [
				{
					"internalType": "uint256",
					"name": "",
					"type": "uint256"
				}
			],
			"stateMutability": "view",
			"type": "function"
		},
		{
			"inputs": [
				{
					"internalType": "uint256",
					"name": "",
					"type": "uint256"
				},
				{
					"internalType": "uint256",
					"name": "",
					"type": "uint256"
				},
				{
					"internalType": "uint256",
					"name": "",
					"type": "uint256"
				}
			],
			"name": "weeklyUserDirects",
			"outputs": [
				{
					"internalType": "uint256",
					"name": "",
					"type": "uint256"
				}
			],
			"stateMutability": "view",
			"type": "function"
		},
		{
			"inputs": [
				{
					"internalType": "uint256",
					"name": "",
					"type": "uint256"
				},
				{
					"internalType": "uint256",
					"name": "",
					"type": "uint256"
				}
			],
			"name": "weeklyUserdtl",
			"outputs": [
				{
					"internalType": "uint256",
					"name": "joinTime",
					"type": "uint256"
				},
				{
					"internalType": "uint256",
					"name": "roundId",
					"type": "uint256"
				},
				{
					"internalType": "uint256",
					"name": "claimTime",
					"type": "uint256"
				},
				{
					"internalType": "bool",
					"name": "isClaimed",
					"type": "bool"
				},
				{
					"internalType": "bool",
					"name": "isQualified",
					"type": "bool"
				}
			],
			"stateMutability": "view",
			"type": "function"
		}
	]
}