{
	"data": {
		"bytecode": {
			"linkReferences": {},
			"object": "60806040523461098c57604051601f614b2638819003918201601f19168301916001600160401b0383118484101761097857808492604094855283398101031261098c576100586020610051836109ee565b92016109ee565b60015f556040519091906101e081016001600160401b038111828210176109785760405267d02ab486cedc0000815268015af1d78b58c4000060208201526802b5e3af16b1880000604082015268056bc75e2d631000006060820152680ad78ebc5ac620000060808201526815af1d78b58c40000060a0820152682b5e3af16b1880000060c08201526856bc75e2d63100000060e082015268ad78ebc5ac6200000061010082015269015af1d78b58c40000006101208201526902b5e3af16b18800000061014082015269056bc75e2d6310000000610160820152690ad78ebc5ac6200000006101808201526915af1d78b58c400000006101a0820152692b5e3af16b18800000006101c0820152600d54600f600d5580600f10610935575b50600d5f5260205f20905f5b600f811061091857505050610196610990565b680410d586a20a4c00008152681043561a8829300000602082015268410d586a20a4c0000060408201526901043561a882930000006060820152690410d586a20a4c0000006080820152691043561a88293000000060a082015269410d586a20a4c000000060c08201526016546007601655806007106108d5575b5060165f5260205f20905f5b600781106108b8575050506102306109af565b68056bc75e2d631000008152680ad78ebc5ac620000060208201526815af1d78b58c4000006040820152682b5e3af16b1880000060608201526856bc75e2d631000000608082015268ad78ebc5ac6200000060a082015269015af1d78b58c400000060c08201526902b5e3af16b18800000060e0820152601754600860175580600810610875575b5060175f5260205f20905f5b60088110610858575050506102d7610990565b60038152600560208201526007604082015260096060820152600b6080820152600d60a0820152600f60c08201525f5b600781106108405750506103196109af565b6004815260056020820152600660408201526007606082015260086080820152600960a0820152600a60c0820152600b60e08201525f5b600881106108285750506103626109af565b5f815260016020820152600160408201526001606082015260016080820152600160a0820152600160c0820152600160e08201525f5b600881106108105750505f6039819055603a819055603b819055600160408190556041829055604282905560478190556048829055604982905580546001600160a01b03199081166001600160a01b039485161782556002805482169590941694851784556103e8600581905560069290925581835260106020527f92673bc4b5ff73490af990ea8b2927e66ec918198708735b1dd7fcff379d9d858054909116851781557f92673bc4b5ff73490af990ea8b2927e66ec918198708735b1dd7fcff379d9d8891909155600f7f92673bc4b5ff73490af990ea8b2927e66ec918198708735b1dd7fcff379d9d8b55427f92673bc4b5ff73490af990ea8b2927e66ec918198708735b1dd7fcff379d9d965560077f92673bc4b5ff73490af990ea8b2927e66ec918198708735b1dd7fcff379d9d915560087f92673bc4b5ff73490af990ea8b2927e66ec918198708735b1dd7fcff379d9d94557f92673bc4b5ff73490af990ea8b2927e66ec918198708735b1dd7fcff379d9d8d9290925560147f92673bc4b5ff73490af990ea8b2927e66ec918198708735b1dd7fcff379d9d9055600d5491929181905b600f82106107dc575050600a8301556005545f918252600f602052604082205590815b601654831015610658576016548310156106445760165f525f516020614b065f395f51905f5283015460019161059c9190610a02565b926106036005546105ab6109cf565b818152602080820183815260408084018781525f60608601818152608087018281528a835260308752848320988352979095529190912093518455905160018401555160028301555160038201559051600490910155565b805f52603360205261061b60405f2060055490610a23565b805f52603260205261063d60405f2060055490815f5260205260405f20610a23565b0191610566565b634e487b7160e01b5f52603260045260245ffd5b600d8201555f905f5b6008811061072b57506010015542603a5542604155426048555f603b5560016039555f60425560016040555f604955600160475560015f52603e602052600360405f2060055490815f526020526106c860405f209160015f52603d60205260405f20610a23565b42815560395460018201550161010061ff00198254161790557f360cb96d3e85b4fc299ddfa9a572850fc70961c86f0f1703f033143b0e5a82cf60606039546005546040519182526020820152426040820152a16040516140609081610a668239f35b916017548310156106445760175f525f516020614ae65f395f51905f528301546001916107589190610a02565b926107be6005546107676109cf565b81815260208082018581525f60408085018281526060860183815242608088019081528a85526035875283852098855297909552912093518455905160018401555160028301555160038201559051600490910155565b805f5260376020526107d660405f2060055490610a23565b01610661565b90918183101561064457600d5f525f516020614ac65f395f51905f528301546001916108089190610a02565b920190610543565b600190602060ff845116930192816027015501610398565b600190602060ff84511693019281601f015501610350565b600190602060ff845116930192816018015501610307565b81516001600160501b0316818401556020909101906001016102c4565b60175f526108b2905f516020614ae65f395f51905f52017fc624b66cc0138b8fabc209247f72d758e1cf3343756d543badbf24212bed8c1d610a4f565b5f6102b8565b81516001600160501b03168184015560209091019060010161021d565b60165f52610912905f516020614b065f395f51905f52017fd833147d7dc355ba459fc788f669e58cfaf9dc25ddcd0702e87d69c7b5124290610a4f565b5f610211565b81516001600160501b031681840155602090910190600101610183565b600d5f52610972905f516020614ac65f395f51905f52017fd7b6990105719101dabeb77144f2a3385c8033acd3af97e9423a695e81ad1ec4610a4f565b5f610177565b634e487b7160e01b5f52604160045260245ffd5b5f80fd5b6040519060e082016001600160401b0381118382101761097857604052565b6040519061010082016001600160401b0381118382101761097857604052565b6040519060a082016001600160401b0381118382101761097857604052565b51906001600160a01b038216820361098c57565b91908201809211610a0f57565b634e487b7160e01b5f52601160045260245ffd5b805490680100000000000000008210156109785760018201808255821015610644575f5260205f200155565b818110610a5a575050565b5f8155600101610a4f56fe6102e0806040526004361015610013575f80fd5b5f905f3560e01c90816254815d146128f65750806301c234a8146128da578063056b4d1f1461287a5780630676d0d6146128505780630a5c5d69146128215780630ef81b74146127e85780630f2b7cc9146127b957806316298056146124465780631c4ecf681461242b5780632132d204146123fd5780632350268f146123ba57806323fd338e146116c75780632a8915341461239c5780632ae0ee0d146120fc5780632d66014f146123595780632f48ab7d146123305780633080b5bc1461231257806331bb6a30146122f657806332bc298c146122d857806332fcd966146122b5578063365b98b214612101578063375b43b4146120fc57806339ab3603146120b957806339f2e64a14611d8a5780633a5084b314611d6c5780634036436c14611d0c57806345977d031461184e57806345cb537c1461182457806346b9dece1461177e5780634b8cbf9b146117605780634d12ae0f1461172e5780634d4cc5ca146116f257806354c5bd90146116cc57806358c7d352146116c75780635aabf7f11461168b5780635b58ce6c146116275780635b62d1d5146116095780635ec64a44146115d75780636a42478214611576578063705fee2d1461155757806370c8d770146114dd57806376f5f700146114bf57806378f6ad6d146114a15780637cdc65f2146114785780637d846e381461145457806388afbe3e1461142a57806389043ece146113fd5780638d58644c146113c15780638f030ece14611385578063907c84a71461131a578063956a3228146112ec5780639735800414610ed05780639b40ab9714610eb25780639c38348614610e80578063a59d17d114610e62578063a5e52b9914610e44578063ae4708dc14610e01578063bd1aae4014610dcf578063bf72467214610d97578063bff1f9e114610d79578063c216212a14610d4e578063c4eb42a514610ced578063c7bb62e814610cbb578063c8df290814610c96578063c9ed070814610c78578063ca8e912114610c5a578063cb0e0d7d14610c1d578063ce79c2c314610bb2578063d0a2fd7914610b80578063d2f0490d14610b64578063db27cc7114610b00578063e898fc3814610ae2578063e9e34a1614610ab9578063ebe0ff1514610a95578063ec597e6f14610a77578063f207564e1461046f578063f5748c4f14610418578063f5d74d93146103ef578063f7a24806146103ae5763fddc806f1461038e575f80fd5b346103ab57806003193601126103ab576020603a54604051908152f35b80fd5b50346103ab576103bd36612955565b919081526046602052604081209081548310156103ab5760206103e08484612a09565b90549060031b1c604051908152f35b50346103ab57806003193601126103ab576004546040516001600160a01b039091168152602090f35b50346103ab5760203660031901126103ab5760043590604b548210156103ab57604b5482101561045b57602091604b825282822001549060031b1c604051908152f35b634e487b7160e01b81526032600452602490fd5b50346103ab5760203660031901126103ab57600435338252600f6020526040822054610a3d578082526010602052600360408320015415610a065760015482906020906104fd906001600160a01b03166104c76129d7565b90546040516323b872dd60e01b815233600482015230602482015260039290921b1c604482015293849283919082906064820190565b03925af180156109fb576109ce575b506005549061051e6006548093612b93565b91600181018091116109ba57600655338352600f6020528160408420556105436129d7565b90549060031b1c9082845260106020526040842091336bffffffffffffffffffffffff60a01b845416178355426002840155836003840155600483018281556001600685015581600a850155426011850155600f600b85015582865260106020526007604087200180549060018201809211610800575582865260156020526105cf856040882061313a565b818652600c60205260408620805490600182018092116108005755818652600a6020526040862054828752600b602052604087208688526020526040872055858690848852601460205260026040892054105f146108755750508486526010602052826005604088200155828652601460205260408620805490600182018092116108005755825b86905b600f8210610814575b5050600582028215908381046005148217156108005760649004603c840291848304603c148117156107d85761069b82603b54612b93565b603b55602385028581046023148217156107ec576103e86106bf9104604254612b93565b604255600f8502858104600f148217156107ec576103e86106e39104604954612b93565b604955601985029085820460191417156107d857606461071e936107168796946107118c99858b9704613496565b6133da565b049154613507565b60405190600182526020820152608060408201527f26adb22cec823ef144935e9fbef1b6b4a3a29dacbe5444d59292fa2620f3d37761078360808301604090601581527453706f6e736f72736869702053747275637475726560581b60208201520190565b914260608201528033930390a383526010602052600560018060a01b036040852054169101546040519081527f309bb360e8b69c23937ccc5fb01f9aeeead1c95a99604e175113ff82f2b1723a60203392a480f35b634e487b7160e01b89526011600452602489fd5b634e487b7160e01b8a52601160045260248afd5b634e487b7160e01b88526011600452602488fd5b801561087057808852601060205260096040892001805490600182018092116107ec57558088526013602052604088208289526020526108578760408a2061313a565b875260106020526001600560408920015491019061065a565b610663565b875b600f8110610887575b5050610657565b816109b5578589526013602052604089206001820180831161097e578a5260205260408920546002820180831161097e5760ff811161097e576001901b116108d2575b600101610877565b94939096959192885b858a52601360205260408a20878b5260205260408a20548110156109a5578861099257858a52601360205260408a20878b5260205261091d8160408c20612a09565b90549060031b1c808b526014602052600260408c205410610942575b506001016108db565b9194509750868952601060205280600560408b2001558089526014602052604089208054906001820180921161097e5755926001809890610939565b634e487b7160e01b8b52601160045260248bfd5b50929195969093946001905b90506108ca565b509291959690939460019061099e565b610880565b634e487b7160e01b84526011600452602484fd5b6109ef9060203d6020116109f4575b6109e78183612fb9565b810190612fef565b61050c565b503d6109dd565b6040513d85823e3d90fd5b60405162461bcd60e51b815260206004820152600f60248201526e24b73b30b634b21039b837b739b7b960891b6044820152606490fd5b60405162461bcd60e51b8152602060048201526012602482015271105b1c9958591e481c9959da5cdd195c995960721b6044820152606490fd5b50346103ab57806003193601126103ab576020600554604051908152f35b50346103ab57806003193601126103ab576020604051683635c9adc5dea000008152f35b50346103ab57806003193601126103ab576003546040516001600160a01b039091168152602090f35b50346103ab57806003193601126103ab576020604154604051908152f35b50346103ab5760203660031901126103ab576040906004358152604c602052208054610b6060018301549260ff60046002830154920154169060405194859485926060929594919560808501968552602085015260408401521515910152565b0390f35b50346103ab57806003193601126103ab57602060405160058152f35b50346103ab5760203660031901126103ab576004356008811015610bae5760209150601f0154604051908152f35b5080fd5b50346103ab57604090610bc436612955565b9082526030602052828220908252602052208054610b606001830154926002810154906004600382015491015491604051958695869192608093969594919660a084019784526020840152604083015260608201520152565b50346103ab5760203660031901126103ab576004356001600160a01b03811690819003610bae578160409160209352600f83522054604051908152f35b50346103ab57806003193601126103ab576020603954604051908152f35b50346103ab57806003193601126103ab576020604054604051908152f35b50346103ab57806003193601126103ab57602060405169021e19e0c9bab24000008152f35b50346103ab57610cca36612955565b919081526037602052604081209081548310156103ab5760206103e08484612a09565b50346103ab5760203660031901126103ab576040906004358152603c602052208054610b606001830154926002810154906003810154600482015460058301549060068401549260ff600860078701549601541695604051998a998a61296b565b50346103ab5760203660031901126103ab5760043590600d548210156103ab5760206103e0836129ab565b50346103ab57806003193601126103ab576020600654604051908152f35b50346103ab5760408091610daa36612955565b908252602f602052828220908252602052206001815491015482519182526020820152f35b50346103ab5760ff6040602092610de536612955565b9082526034855282822090825284522054166040519015158152f35b50346103ab5760203660031901126103ab57600435906016548210156103ab5760165482101561045b576020916016825282822001549060031b1c604051908152f35b50346103ab57806003193601126103ab5760206040516283d6008152f35b50346103ab57806003193601126103ab576020604254604051908152f35b50346103ab5760ff6040602092610e9636612955565b9082526038855282822090825284522054166040519015158152f35b50346103ab57806003193601126103ab576020604854604051908152f35b50346103ab57610edf36612955565b610eea92919261316e565b828252601060205260408220546001600160a01b0316610f0b338214612a6e565b156112b557821515806112ac575b8061128e575b80611283575b610f2e90612aad565b828252604c60205260408220818352604a60205260408320610f5b600160ff600485015416151514612eec565b6003820183855280602052610f7760ff60408720541615612f29565b600382015491821593610f8a8515612b12565b610faf8660016004850193610fa6600286549701548710612b53565b01541115612f75565b6001820180921161126f575583855260205260408420600160ff198254161790558484526010602052604084209360018060a01b0385541692831561123b5761120857858152601160205260408120908061100b848454612b93565b83556111f457505f94939450600b8101611026838254612b93565b90555493600b8401549260065f9501955b86548610156111e757611049866129ab565b90549060031b1c885f52600e60205260405f20815f526020528560405f20916003830160ff8154168015908180926111d1575b156110b957505091600a6110a282600197946110b097968960ff19825416179055613007565b049283600282015555612ba0565b955b0194611037565b91509250806111bc575b156110e157505060019160026110db92015490612ba0565b956110b2565b9297928790826111a4575b50506110fb57506001906110b2565b91979593965050600191935001555b60015461112390849086906001600160a01b0316613e7f565b6040518381525f60208201529082807f6ac5dc27fbf1276a5db7faad992ea92a268d34b18f81922f747d9d3beb5f9c55965f51602061400b5f395f51905f526080866009604061119b990152426060820152a46040519384934292859094939260609260808301968352602083015260408201520152565b0390a160015f55005b600a9250906111b291613007565b048710865f6110ec565b50600a6111c98983613007565b0484116110c3565b50600a6111de8686613007565b0487101561107c565b509593509150925061110a565b634e487b7160e01b81526021600452602490fd5b60405162461bcd60e51b815260206004820152600b60248201526a16995c9bc8185b5bdd5b9d60aa1b6044820152606490fd5b60405162461bcd60e51b815260206004820152600c60248201526b24b73b30b634b2103ab9b2b960a11b6044820152606490fd5b634e487b7160e01b87526011600452602487fd5b506047548110610f25565b50808252604a602052600160ff600860408520015416151514610f1f565b50801515610f19565b60405162461bcd60e51b815260206004820152600f60248201526e125b9d985b1a59081858d8dbdd5b9d608a1b6044820152606490fd5b50346103ab5760203660031901126103ab576004356008811015610bae576020915060270154604051908152f35b50346103ab5760409061132c36612955565b9082526035602052828220908252602052208054610b606001830154926002810154906004600382015491015491604051958695869192608093969594919660a084019784526020840152604083015260608201520152565b50346103ab5761139436612a1e565b92918252603160205260408220908252602052604081209081548310156103ab5760206103e08484612a09565b50346103ab576113d036612a1e565b92918252603260205260408220908252602052604081209081548310156103ab5760206103e08484612a09565b50346103ab57604060209161141136612955565b908252600b845282822090825283522054604051908152f35b50346103ab5760203660031901126103ab5760406020916004358152601483522054604051908152f35b50346103ab57602061146e61146836612955565b90613091565b6040519015158152f35b50346103ab57806003193601126103ab576002546040516001600160a01b039091168152602090f35b50346103ab57806003193601126103ab576020600954604051908152f35b50346103ab57806003193601126103ab57602060405162093a808152f35b50346103ab576114ec36612955565b919081526012602052604081208054831015610bae5781602091600593508152209102018054610b606001830154926002810154906004600382015491015491604051958695869192608093969594919660a084019784526020840152604083015260608201520152565b50346103ab57806003193601126103ab57602060405163025143008152f35b50346103ab5760203660031901126103ab5760409060043581526043602052208054610b606001830154926002810154906003810154600482015460058301549060068401549260ff600860078701549601541695604051998a998a61296b565b50346103ab576115e636612955565b919081526015602052604081209081548310156103ab5760206103e08484612a09565b50346103ab57806003193601126103ab576020604954604051908152f35b50346103ab5760409061163936612955565b908252600e602052828220908252602052208054610b6060018301549260ff60036002830154920154169060405194859485926060929594919560808501968552602085015260408401521515910152565b50346103ab5761169a36612a1e565b92918252601360205260408220908252602052604081209081548310156103ab5760206103e08484612a09565b612a38565b50346103ab5760406116e66116e036612955565b9061301a565b82519182526020820152f35b50346103ab5761170136612a1e565b92918252603f60205260408220908252602052604081209081548310156103ab5760206103e08484612a09565b50346103ab5761173d36612955565b91908152604d602052604081209081548310156103ab5760206103e08484612a09565b50346103ab57806003193601126103ab576020604754604051908152f35b50346103ab5760203660031901126103ab5760406101809160043581526011602052208054906001810154906002810154600382015460048301546005840154600685015490600786015492600887015494600988015496600b600a8a0154990154996040519b8c5260208c015260408b015260608a0152608089015260a088015260c087015260e0860152610100850152610120840152610140830152610160820152f35b50346103ab5760203660031901126103ab5760406020916004358152600a83522054604051908152f35b50346103ab5760203660031901126103ab5760043580825260106020526040822061188360018060a01b038254163314612a6e565b600681018054600f811015611cd05761189b816129ab565b90546001546040516323b872dd60e01b815233600482015230602482015260039390931b9190911c60448301819052939190602090829060649082908b906001600160a01b03165af18015611cc557611ca8575b508054906001820180921161126f5755600a830161190e838254612b93565b9055600582029282159383810460051485171561126f57606490049360198402848104601914821715610800578460646119489204613496565b838752600a6020526040872054848852600b602052604088208789526020526040882055611975856133da565b838752600c60205260408720805490600182018092116107d85755601484028481046014148217156108005760649004946004830193845496600182019788831161097e579188826119d0826119eb958e6119f39998613537565b8b8d60058a016119e38585858454613576565b549050613805565b603b54612b93565b603b5560238402848104602314821715610800576103e8611a179104604254612b93565b604255600f840290848204600f14171561126f576103e8611a3b9104604954612b93565b604955600a8414611bbb575b600f8414611ac5575b50506040519182526020820152608060408201527f26adb22cec823ef144935e9fbef1b6b4a3a29dacbe5444d59292fa2620f3d377611ab560808301604090601581527453706f6e736f72736869702053747275637475726560581b60208201520190565b914260608201528033930390a380f35b6013429101558385526010602052604085209054855260106020526040852060158101805490600182018092116108005790806002925510159081611b9d575b81611b8d575b50611b77575b6002601582015410159081611b54575b81611b45575b50611b34575b5f80611a50565b611b4060475484613d45565b611b2d565b600f915060060154145f611b27565b905060138101546011820154906302514300820180921161126f57111590611b21565b611b88600482015460475490613d45565b611b11565b600f91506006015410155f611b0b565b905060118101546302514300810180911161126f5742111590611b05565b4260128201558486526010602052604086208254875260106020526040872060148101805490600182018092116107ec5790806005925510159081611c8b575b81611c7b575b50611c65575b6005601482015410159081611c43575b81611c34575b5015611a4757611c2f60405486613baf565b611a47565b600a915060060154145f611c1d565b905060128101546011820154906283d60082018092116107d857111590611c17565b611c76600482015460405490613baf565b611c07565b600a91506006015410155f611c01565b905060118101546283d60081018091116107d85742111590611bfb565b611cc09060203d6020116109f4576109e78183612fb9565b6118ef565b6040513d89823e3d90fd5b60405162461bcd60e51b8152602060048201526014602482015273105b1c9958591e48185d081b585e081b195d995b60621b6044820152606490fd5b50346103ab5760203660031901126103ab5760409060043581526045602052208054610b6060018301549260ff60046002830154920154169060405194859485926060929594919560808501968552602085015260408401521515910152565b50346103ab57806003193601126103ab5760206040516202a3008152f35b50346103ab57611d9936612955565b611da492919261316e565b8282526010602052611dc360018060a01b036040842054163314612a6e565b821515806120b0575b80612092575b80612087575b611de190612aad565b828252604560205260408220818352604360205260408320611e0e600160ff600485015416151514612eec565b6003820183855280602052611e2a60ff60408720541615612f29565b600382015491821593611e3d8515612b12565b611e598660016004850193610fa6600286549701548710612b53565b6001820180921161126f575583855260205260408420600160ff198254161790558484526010602052604084209360018060a01b0385541692831561123b57611208578581526011602052604081209080611eb5848454612b93565b83556111f457505f94939450600a8101611ed0838254612b93565b90555493600b8401549260065f9501955b865486101561207a57611ef3866129ab565b90549060031b1c885f52600e60205260405f20815f526020528560405f20916003830160ff815416801590818092612064575b15611f5557505091600a6110a28260019794611f4c97968960ff19825416179055613007565b955b0194611ee1565b915092508061204f575b15611f7d5750506001916002611f7792015490612ba0565b95611f4e565b929792879082612037575b5050611f975750600190611f4e565b91979593965050600191935001555b600154611fbf90849086906001600160a01b0316613e7f565b6040518381525f60208201529082807f8211032682f8fd8be8ff252e0a106cdb6ad4b10427152b4d93c2bc9a1f11c3c2965f51602061400b5f395f51905f526080866008604061119b990152426060820152a46040519384934292859094939260609260808301968352602083015260408201520152565b600a92509061204591613007565b048710865f611f88565b50600a61205c8983613007565b048411611f5f565b50600a6120718686613007565b04871015611f26565b5095935091509250611fa6565b506040548110611dd8565b508082526043602052600160ff600860408520015416151514611dd2565b50801515611dcc565b50346103ab5760203660031901126103ab57600435906007548210156103ab5760075482101561045b576020916007825282822001549060031b1c604051908152f35b612a53565b50346103ab5760203660031901126103ab5760409060043581526010602052206101805260018060a01b03610180515416600261018051015461010052600361018051015461014052600461018051015460056101805101546006610180510154600761018051015460086101805101546009610180510154600a61018051015490600b61018051015492600c61018051015494600d61018051015496600e61018051015498600f6101805101549a60106101805101549c6011610180510154608052601261018051015460c052601361018051015461016052601461018051015461012052601561018051015460e05260405160a05260a0515261010051602060a051015261014051604060a0510152606060a0510152608060a051015260a08051015260c060a051015260e060a051015261010060a051015261012060a051015261014060a051015261016060a051015261018060a05101526101a060a05101526101c060a05101526101e060a051015260805161020060a051015260c05161022060a05101526101605161024060a05101526101205161026060a051015260e05161028060a05101526102a060a051f35b50346103ab57806003193601126103ab576020604051670de0b6b3a76400008152f35b50346103ab57806003193601126103ab576020604051620151808152f35b50346103ab57806003193601126103ab57602060405160028152f35b50346103ab57806003193601126103ab576020603b54604051908152f35b50346103ab57806003193601126103ab576001546040516001600160a01b039091168152602090f35b50346103ab5760203660031901126103ab57600435906044548210156103ab5760445482101561045b576020916044825282822001549060031b1c604051908152f35b50346103ab57806003193601126103ab57602060405162278d008152f35b50346103ab5760203660031901126103ab57600435906017548210156103ab5760175482101561045b576020916017825282822001549060031b1c604051908152f35b50346103ab5760203660031901126103ab576004356007811015610bae576020915060180154604051908152f35b50346103ab5761244361243d36612955565b90612bcb565b80f35b346127b55761245436612955565b61245c61316e565b815f52601060205261247b60018060a01b0360405f2054163314612a6e565b811515806127ac575b8061278e575b80612783575b61249990612aad565b805f52603e60205260405f20825f5260205260405f2090805f52603c602052600360405f209201918254600160ff8260081c161515149081612777575b5015612733576003810154928315916124ef8315612b12565b60048101612504600282549301548310612b53565b6001820180921161271f5755600160ff19825416179055835f52601060205260405f209260018060a01b0384541691821561123b5761120857845f94939452601160205260405f20612557828254612b93565b815560098101612568838254612b93565b90555493600b8401549260065f9501955b86548610156127125761258b866129ab565b90549060031b1c885f52600e60205260405f20815f526020528560405f20916003830160ff8154168015908180926126fc575b156125ed57505091600a6110a282600197946125e497968960ff19825416179055613007565b955b0194612579565b91509250806126e7575b15612615575050600191600261260f92015490612ba0565b956125e6565b9297928790826126cf575b505061262f57506001906125e6565b91979593965050600191935001555b60015461265790849086906001600160a01b0316613e7f565b6040518381525f60208201529082807f96ee4f374d0394c5383b347dc3b7ec04a1eceddcd2e25521157bce21c42b24d5965f51602061400b5f395f51905f526080866007604061119b990152426060820152a46040519384934292859094939260609260808301968352602083015260408201520152565b600a9250906126dd91613007565b048710868b612620565b50600a6126f48983613007565b0484116125f7565b50600a6127098686613007565b048710156125be565b509593509150925061263e565b634e487b7160e01b5f52601160045260245ffd5b606460405162461bcd60e51b815260206004820152602060248201527f4e6f74207175616c6966696564206f7220616c726561647920636c61696d65646044820152fd5b60ff91501615856124d6565b506039548110612490565b50805f52603c602052600160ff600860405f2001541615151461248a565b50801515612484565b5f80fd5b346127b5576127c736612955565b905f52603360205260405f2080548210156127b5576020916103e091612a09565b346127b5576127f636612a1e565b915f52603660205260405f20905f5260205260405f2080548210156127b5576020916103e091612a09565b346127b55761282f36612955565b905f52603d60205260405f2080548210156127b5576020916103e091612a09565b346127b55760203660031901126127b5576004355f52600c602052602060405f2054604051908152f35b346127b55760203660031901126127b5576004355f52604a60205260405f208054610b606001830154926002810154906003810154600482015460058301549060068401549260ff600860078701549601541695604051998a998a61296b565b346127b5575f3660031901126127b55760206040516127108152f35b346127b55760a09061290736612955565b905f52603e60205260405f20905f5260205260ff60405f20805490600181015460036002830154920154928552602085015260408401528181161515606084015260081c1615156080820152f35b60409060031901126127b5576004359060243590565b979491926101009794919a9996936101208a019b8a5260208a015260408901526060880152608087015260a086015260c085015260e08401521515910152565b600d548110156129c357600d5f5260205f2001905f90565b634e487b7160e01b5f52603260045260245ffd5b600d54156129c357600d5f9081527fd7b6990105719101dabeb77144f2a3385c8033acd3af97e9423a695e81ad1eb591565b80548210156129c3575f5260205f2001905f90565b60609060031901126127b557600435906024359060443590565b346127b5575f3660031901126127b5576020604051600a8152f35b346127b5575f3660031901126127b5576020604051600f8152f35b15612a7557565b60405162461bcd60e51b815260206004820152601060248201526f139bdd081e5bdd5c881858d8dbdd5b9d60821b6044820152606490fd5b15612ab457565b60405162461bcd60e51b815260206004820152603060248201527f496e76616c696420757365724964206f7220726f756e644964206f7220726f7560448201526f1b99081bdc881b9bdd0818db1bdcd95960821b6064820152608490fd5b15612b1957565b60405162461bcd60e51b81526020600482015260126024820152714e6f2072657761726420746f20636c61696d60701b6044820152606490fd5b15612b5a57565b60405162461bcd60e51b8152602060048201526011602482015270105b1b081d5cd95c9cc818db185a5b5959607a1b6044820152606490fd5b9190820180921161271f57565b9190820391821161271f57565b8115612bb7570490565b634e487b7160e01b5f52601260045260245ffd5b919091805f52601060205260405f20600381015415612eb65760068491612bfc60018060a01b038254163314612a6e565b015403612e7f57825f52600a60205260405f205490835f52600b60205260405f20815f5260205260405f2054808314612e7857612c42670de0b6b3a76400009184612ba0565b04908115612e5b57612c548282613381565b92855f52600b60205260405f20825f5260205260405f205582158015612c95575b505090809293508111612c86575050565b612c939161071191612ba0565b565b815f52601060205260405f209460018060a01b0386541691821561123b5761120857825f96959652601160205260405f20612cd1878254612b93565b815560068101612ce2888254612b93565b90555495600b8601549460065f9701975b8854881015612e4d57612d05886129ab565b90549060031b1c865f52600e60205260405f20815f526020528760405f20916003830160ff815416801590818092612e37575b15612d6757505091600a6110a28260019794612d5e97968960ff19825416179055613007565b975b0196612cf3565b9150925080612e22575b15612d8f5750506001916002612d8992015490612ba0565b97612d60565b929992899082612e0a575b5050612da95750600190612d60565b9197939995965050600191975001555b600154612dd290869083906001600160a01b0316613e7f565b60405185815260208101929092525f51602061400b5f395f51905f526080836004604087960152426060820152a49082915f80612c75565b600a925090612e1891613007565b048910885f612d9a565b50600a612e2f8b83613007565b048411612d71565b50600a612e448686613007565b04871015612d38565b509550955095919250612db9565b91929390505f52600b60205260405f20905f5260205260405f2055565b5050509050565b60405162461bcd60e51b815260206004820152600f60248201526e496e76616c6964207061636b61676560881b6044820152606490fd5b60405162461bcd60e51b815260206004820152600e60248201526d155cd95c881b9bdd08199bdd5b9960921b6044820152606490fd5b15612ef357565b60405162461bcd60e51b815260206004820152600e60248201526d02737ba1038bab0b634b334b2b2160951b6044820152606490fd5b15612f3057565b60405162461bcd60e51b815260206004820152601e60248201527f416c726561647920636c61696d656420666f72207468697320726f756e6400006044820152606490fd5b15612f7c57565b60405162461bcd60e51b81526020600482015260156024820152744e6f7420656c696769626c6520746f20636c61696d60581b6044820152606490fd5b90601f8019910116810190811067ffffffffffffffff821117612fdb57604052565b634e487b7160e01b5f52604160045260245ffd5b908160209103126127b5575180151581036127b55790565b8181029291811591840414171561271f57565b9190825f526010602052600360405f2001541561308957805f52600a60205260405f2054905f52600b60205260405f20835f5260205260405f2054908181111561307f5761307461307c92670de0b6b3a764000092612ba0565b048093613381565b90565b505090505f905f90565b505f91508190565b5f52604560205260405f20815f52604360205260405f209060ff6008830154161592831561312d575b831561311d575b831561310e575b83156130f3575b505081156130e6575b506130e257600190565b5f90565b600391500154155f6130d8565b60039293505f520160205260ff60405f205416905f806130cf565b809350600182015411926130c8565b600482015460ff161593506130c1565b60405481101593506130ba565b8054600160401b811015612fdb5761315791600182018155612a09565b819291549060031b91821b915f19901b1916179055565b60025f541461317d5760025f55565b60405162461bcd60e51b815260206004820152601f60248201527f5265656e7472616e637947756172643a207265656e7472616e742063616c6c006044820152606490fd5b909193815f52601060205260405f209360018060a01b0385541691821561123b57861561120857835f96959652601160205260405f20613203888254612b93565b815560018101613214898254612b93565b90555495600b8601549460065f9701975b885488101561337357613237886129ab565b90549060031b1c825f52600e60205260405f20815f526020528760405f20916003830160ff81541680159081809261335d575b1561329957505091600a6110a2826001979461329097968960ff19825416179055613007565b975b0196613225565b9150925080613348575b156132c157505060019160026132bb92015490612ba0565b97613292565b929992899082613330575b50506132db5750600190613292565b9197939995965050600191975001555b60015461330490839085906001600160a01b0316613e7f565b6040519182526020820152608081600160405f51602061400b5f395f51905f52940152426060820152a4565b600a92509061333e91613007565b048910885f6132cc565b50600a6133558b83613007565b0484116132a3565b50600a61336a8686613007565b0487101561326a565b5095509550959192506132eb565b805f52601060205260405f20905f526011602052600a6133ad60405f209282600b820154910154613007565b049054818110156133d3576133c191612ba0565b90818111156133ce575090565b905090565b5050505f90565b6002546001600160a01b031690811561345d57600154608092613408918391906001600160a01b0316613e7f565b6005545f52601160205260405f20613421828254612b93565b905560018060a01b03600254165f51602061400b5f395f51905f526005549384936040519081525f60208201525f6040820152426060820152a4565b60405162461bcd60e51b8152602060048201526011602482015270199959481859191c9cc81b9bdd081cd95d607a1b6044820152606490fd5b905f52600c60205260405f205490811580156134ff575b6134ec57670de0b6b3a7640000810290808204670de0b6b3a7640000149015171561271f576134e7916134df91612bad565b600954612b93565b600955565b8091506134f65750565b612c93906133da565b5080156134ad565b8015801561352c575b6135215791600191612c93936131c2565b5050612c93906133da565b506005548114613510565b9291908315801561355d575b61355057612c93936131c2565b509050612c9391506133da565b506005548414613543565b5f19811461271f5760010190565b929092600554811480156137fd575b6137f15760015b8281106137c05750925f935b801515806137b4575b806137aa575b1561379d57805f52601060205260405f209083600683015410156135da575060056135d491015494613568565b93613598565b929450509193815f52601060205260405f209360018060a01b0385541691821561123b57861561120857835f96959652601160205260405f2061361e888254612b93565b81556002810161362f898254612b93565b90555495600b8601549460065f9701975b885488101561378f57613652886129ab565b90549060031b1c825f52600e60205260405f20815f526020528760405f20916003830160ff815416801590818092613779575b156136b457505091600a6110a282600197946136ab97968960ff19825416179055613007565b975b0196613640565b9150925080613764575b156136dc57505060019160026136d692015490612ba0565b976136ad565b92999289908261374c575b50506136f657506001906136ad565b9197939995965050600191975001555b60015461371f90839085906001600160a01b0316613e7f565b604051918252602082015260028160809160405f51602061400b5f395f51905f52940152426060820152a4565b600a92509061375a91613007565b048910885f6136e7565b50600a6137718b83613007565b0484116136be565b50600a6137868686613007565b04871015613685565b509550955095919250613706565b505050612c9391506133da565b50600f85106135a7565b506005548114156135a1565b905f526010602052600560405f20015490811580156137e6575b61379d5760010161358c565b5060055482146137da565b5050612c9391506133da565b508015613585565b9091949392946101a05280158015613ba4575b8015613b9c575b613b8b57613830836101a051612bad565b6102a05261384d613844846102a051613007565b6101a051612ba0565b61020052935f925f6101c0526001915f610220525b601e61022051106138ad575b505050506138819192506101a051612ba0565b8061389e575b506102005161389257565b612c93610200516133da565b6138a7906133da565b5f613887565b909192949386158015613b80575b613b64575f878152601060205260409020610240819052600601548211613b45576138e9846102a051613007565b5f8881526010602052604090206102c0819052546001600160a01b031691821561123b57811561120857885f52601160205260405f2061392a838254612b93565b81556003810161393b848254612b93565b90555461026052600b6102c0510154610280525f5b60066102c0510154811015613b3757613968816129ab565b90549060031b1c908a5f52600e60205260405f20825f5260205260405f206101e05260ff60036101e051015416918215808091613b1b575b156139fa575060019250600a6139d36139ef928560ff1960036101e0510154161760036101e05101556102805190613007565b048060026101e0510155610280516101e0515561026051612ba0565b610260525b01613950565b919280613b00575b15613a29575050600190613a2060026101e051015461026051612ba0565b610260526139f4565b81613ae3575b50613a3c576001906139f4565b5061026098929398979596975160016101e05101555b600154613a6b90839086906001600160a01b0316613e7f565b604051828152602081018a905292600390613ab1955f51602061400b5f395f51905f526080878b956040613aa79a0152426060820152a4612b93565b936101c051612b93565b6101c0526001905b806101c0511015613add576005610240510154956001610220510161022052613862565b8061386e565b61028051600a9250613af491613007565b0461026051105f613a2f565b50600a613b106102805183613007565b046102605111613a02565b50600a613b2b6102805184613007565b046102605110156139a0565b509791929796949596613a52565b9394929180919650821015613ab95790613b5e90613568565b90613ab9565b939550505050613b7891506101a051612ba0565b806134f65750565b5060055487146138bb565b5050509050612c936101a0516133da565b50821561381f565b506005548114613818565b90815f52604560205260ff600460405f2001541615613bcc575050565b613bd96040548214613f18565b805f526043602052613bf560ff600860405f2001541615613f54565b815f52601060205260405f206012810154908115613d0c5760118101546283d600810180911161271f57613c4c9211159060056014600a6006840154101592015410159082613d04575b5081613cfc575b50613f8f565b815f52604560205260405f209160048301613c6b60ff82541615613fca565b60445493600160401b851015612fdb5760018491613cb187837f42ee5ef523a95c6fb3ffdd2e9b34955b83ea8c2b11ff268c87ae6ea25556eaac99016044556044612a09565b81549060031b9087821b915f19901b19161790554281550155600160ff19825416179055613cf76040519283924291846040919493926060820195825260208201520152565b0390a1565b90505f613c46565b91505f613c3f565b60405162461bcd60e51b8152602060048201526011602482015270055736572206e6f74206c6576656c20313607c1b6044820152606490fd5b90815f52604c60205260ff600460405f2001541615613d62575050565b613d6f6047548214613f18565b805f52604a602052613d8b60ff600860405f2001541615613f54565b815f52601060205260405f206013810154908115613e465760118101546302514300810180911161271f57613de19211159060026015600f6006840154101592015410159082613d04575081613cfc5750613f8f565b815f52604c60205260405f209160048301613e0060ff82541615613fca565b604b5493600160401b851015612fdb5760018491613cb187837f42ee5ef523a95c6fb3ffdd2e9b34955b83ea8c2b11ff268c87ae6ea25556eaac9901604b55604b612a09565b60405162461bcd60e51b815260206004820152601160248201527055736572206e6f74206c6576656c20313560781b6044820152606490fd5b60405163a9059cbb60e01b60208281019182526001600160a01b03909416602483015260448083019590955293815290925f91613ebd606482612fb9565b519082855af115613f0d575f513d613f0457506001600160a01b0381163b155b613ee45750565b635274afe760e01b5f9081526001600160a01b0391909116600452602490fd5b60011415613edd565b6040513d5f823e3d90fd5b15613f1f57565b60405162461bcd60e51b815260206004820152600d60248201526c125b9d985b1a59081c9bdd5b99609a1b6044820152606490fd5b15613f5b57565b60405162461bcd60e51b815260206004820152600c60248201526b149bdd5b990818db1bdcd95960a21b6044820152606490fd5b15613f9657565b60405162461bcd60e51b815260206004820152600c60248201526b4e6f7420656c696769626c6560a01b6044820152606490fd5b15613fd157565b60405162461bcd60e51b8152602060048201526011602482015270185b1c9958591e48145d585b1a599a5959607a1b6044820152606490fdfe4d634c31300b97dad99b3af799178230163d88ad306370d063be9cd992d0be7fa26469706673582212209ab898e64bb9148f7f193d0c4b4abe515884d4142601519f6adf80a1eb020b8264736f6c634300081e0033d7b6990105719101dabeb77144f2a3385c8033acd3af97e9423a695e81ad1eb5c624b66cc0138b8fabc209247f72d758e1cf3343756d543badbf24212bed8c15d833147d7dc355ba459fc788f669e58cfaf9dc25ddcd0702e87d69c7b5124289",
			"opcodes": "PUSH1 0x80 PUSH1 0x40 MSTORE CALLVALUE PUSH2 0x98C JUMPI PUSH1 0x40 MLOAD PUSH1 0x1F PUSH2 0x4B26 CODESIZE DUP2 SWAP1 SUB SWAP2 DUP3 ADD PUSH1 0x1F NOT AND DUP4 ADD SWAP2 PUSH1 0x1 PUSH1 0x1 PUSH1 0x40 SHL SUB DUP4 GT DUP5 DUP5 LT OR PUSH2 0x978 JUMPI DUP1 DUP5 SWAP3 PUSH1 0x40 SWAP5 DUP6 MSTORE DUP4 CODECOPY DUP2 ADD SUB SLT PUSH2 0x98C JUMPI PUSH2 0x58 PUSH1 0x20 PUSH2 0x51 DUP4 PUSH2 0x9EE JUMP JUMPDEST SWAP3 ADD PUSH2 0x9EE JUMP JUMPDEST PUSH1 0x1 PUSH0 SSTORE PUSH1 0x40 MLOAD SWAP1 SWAP2 SWAP1 PUSH2 0x1E0 DUP2 ADD PUSH1 0x1 PUSH1 0x1 PUSH1 0x40 SHL SUB DUP2 GT DUP3 DUP3 LT OR PUSH2 0x978 JUMPI PUSH1 0x40 MSTORE PUSH8 0xD02AB486CEDC0000 DUP2 MSTORE PUSH9 0x15AF1D78B58C40000 PUSH1 0x20 DUP3 ADD MSTORE PUSH9 0x2B5E3AF16B1880000 PUSH1 0x40 DUP3 ADD MSTORE PUSH9 0x56BC75E2D63100000 PUSH1 0x60 DUP3 ADD MSTORE PUSH9 0xAD78EBC5AC6200000 PUSH1 0x80 DUP3 ADD MSTORE PUSH9 0x15AF1D78B58C400000 PUSH1 0xA0 DUP3 ADD MSTORE PUSH9 0x2B5E3AF16B18800000 PUSH1 0xC0 DUP3 ADD MSTORE PUSH9 0x56BC75E2D631000000 PUSH1 0xE0 DUP3 ADD MSTORE PUSH9 0xAD78EBC5AC62000000 PUSH2 0x100 DUP3 ADD MSTORE PUSH10 0x15AF1D78B58C4000000 PUSH2 0x120 DUP3 ADD MSTORE PUSH10 0x2B5E3AF16B188000000 PUSH2 0x140 DUP3 ADD MSTORE PUSH10 0x56BC75E2D6310000000 PUSH2 0x160 DUP3 ADD MSTORE PUSH10 0xAD78EBC5AC620000000 PUSH2 0x180 DUP3 ADD MSTORE PUSH10 0x15AF1D78B58C40000000 PUSH2 0x1A0 DUP3 ADD MSTORE PUSH10 0x2B5E3AF16B1880000000 PUSH2 0x1C0 DUP3 ADD MSTORE PUSH1 0xD SLOAD PUSH1 0xF PUSH1 0xD SSTORE DUP1 PUSH1 0xF LT PUSH2 0x935 JUMPI JUMPDEST POP PUSH1 0xD PUSH0 MSTORE PUSH1 0x20 PUSH0 KECCAK256 SWAP1 PUSH0 JUMPDEST PUSH1 0xF DUP2 LT PUSH2 0x918 JUMPI POP POP POP PUSH2 0x196 PUSH2 0x990 JUMP JUMPDEST PUSH9 0x410D586A20A4C0000 DUP2 MSTORE PUSH9 0x1043561A8829300000 PUSH1 0x20 DUP3 ADD MSTORE PUSH9 0x410D586A20A4C00000 PUSH1 0x40 DUP3 ADD MSTORE PUSH10 0x1043561A88293000000 PUSH1 0x60 DUP3 ADD MSTORE PUSH10 0x410D586A20A4C000000 PUSH1 0x80 DUP3 ADD MSTORE PUSH10 0x1043561A882930000000 PUSH1 0xA0 DUP3 ADD MSTORE PUSH10 0x410D586A20A4C0000000 PUSH1 0xC0 DUP3 ADD MSTORE PUSH1 0x16 SLOAD PUSH1 0x7 PUSH1 0x16 SSTORE DUP1 PUSH1 0x7 LT PUSH2 0x8D5 JUMPI JUMPDEST POP PUSH1 0x16 PUSH0 MSTORE PUSH1 0x20 PUSH0 KECCAK256 SWAP1 PUSH0 JUMPDEST PUSH1 0x7 DUP2 LT PUSH2 0x8B8 JUMPI POP POP POP PUSH2 0x230 PUSH2 0x9AF JUMP JUMPDEST PUSH9 0x56BC75E2D63100000 DUP2 MSTORE PUSH9 0xAD78EBC5AC6200000 PUSH1 0x20 DUP3 ADD MSTORE PUSH9 0x15AF1D78B58C400000 PUSH1 0x40 DUP3 ADD MSTORE PUSH9 0x2B5E3AF16B18800000 PUSH1 0x60 DUP3 ADD MSTORE PUSH9 0x56BC75E2D631000000 PUSH1 0x80 DUP3 ADD MSTORE PUSH9 0xAD78EBC5AC62000000 PUSH1 0xA0 DUP3 ADD MSTORE PUSH10 0x15AF1D78B58C4000000 PUSH1 0xC0 DUP3 ADD MSTORE PUSH10 0x2B5E3AF16B188000000 PUSH1 0xE0 DUP3 ADD MSTORE PUSH1 0x17 SLOAD PUSH1 0x8 PUSH1 0x17 SSTORE DUP1 PUSH1 0x8 LT PUSH2 0x875 JUMPI JUMPDEST POP PUSH1 0x17 PUSH0 MSTORE PUSH1 0x20 PUSH0 KECCAK256 SWAP1 PUSH0 JUMPDEST PUSH1 0x8 DUP2 LT PUSH2 0x858 JUMPI POP POP POP PUSH2 0x2D7 PUSH2 0x990 JUMP JUMPDEST PUSH1 0x3 DUP2 MSTORE PUSH1 0x5 PUSH1 0x20 DUP3 ADD MSTORE PUSH1 0x7 PUSH1 0x40 DUP3 ADD MSTORE PUSH1 0x9 PUSH1 0x60 DUP3 ADD MSTORE PUSH1 0xB PUSH1 0x80 DUP3 ADD MSTORE PUSH1 0xD PUSH1 0xA0 DUP3 ADD MSTORE PUSH1 0xF PUSH1 0xC0 DUP3 ADD MSTORE PUSH0 JUMPDEST PUSH1 0x7 DUP2 LT PUSH2 0x840 JUMPI POP POP PUSH2 0x319 PUSH2 0x9AF JUMP JUMPDEST PUSH1 0x4 DUP2 MSTORE PUSH1 0x5 PUSH1 0x20 DUP3 ADD MSTORE PUSH1 0x6 PUSH1 0x40 DUP3 ADD MSTORE PUSH1 0x7 PUSH1 0x60 DUP3 ADD MSTORE PUSH1 0x8 PUSH1 0x80 DUP3 ADD MSTORE PUSH1 0x9 PUSH1 0xA0 DUP3 ADD MSTORE PUSH1 0xA PUSH1 0xC0 DUP3 ADD MSTORE PUSH1 0xB PUSH1 0xE0 DUP3 ADD MSTORE PUSH0 JUMPDEST PUSH1 0x8 DUP2 LT PUSH2 0x828 JUMPI POP POP PUSH2 0x362 PUSH2 0x9AF JUMP JUMPDEST PUSH0 DUP2 MSTORE PUSH1 0x1 PUSH1 0x20 DUP3 ADD MSTORE PUSH1 0x1 PUSH1 0x40 DUP3 ADD MSTORE PUSH1 0x1 PUSH1 0x60 DUP3 ADD MSTORE PUSH1 0x1 PUSH1 0x80 DUP3 ADD MSTORE PUSH1 0x1 PUSH1 0xA0 DUP3 ADD MSTORE PUSH1 0x1 PUSH1 0xC0 DUP3 ADD MSTORE PUSH1 0x1 PUSH1 0xE0 DUP3 ADD MSTORE PUSH0 JUMPDEST PUSH1 0x8 DUP2 LT PUSH2 0x810 JUMPI POP POP PUSH0 PUSH1 0x39 DUP2 SWAP1 SSTORE PUSH1 0x3A DUP2 SWAP1 SSTORE PUSH1 0x3B DUP2 SWAP1 SSTORE PUSH1 0x1 PUSH1 0x40 DUP2 SWAP1 SSTORE PUSH1 0x41 DUP3 SWAP1 SSTORE PUSH1 0x42 DUP3 SWAP1 SSTORE PUSH1 0x47 DUP2 SWAP1 SSTORE PUSH1 0x48 DUP3 SWAP1 SSTORE PUSH1 0x49 DUP3 SWAP1 SSTORE DUP1 SLOAD PUSH1 0x1 PUSH1 0x1 PUSH1 0xA0 SHL SUB NOT SWAP1 DUP2 AND PUSH1 0x1 PUSH1 0x1 PUSH1 0xA0 SHL SUB SWAP5 DUP6 AND OR DUP3 SSTORE PUSH1 0x2 DUP1 SLOAD DUP3 AND SWAP6 SWAP1 SWAP5 AND SWAP5 DUP6 OR DUP5 SSTORE PUSH2 0x3E8 PUSH1 0x5 DUP2 SWAP1 SSTORE PUSH1 0x6 SWAP3 SWAP1 SWAP3 SSTORE DUP2 DUP4 MSTORE PUSH1 0x10 PUSH1 0x20 MSTORE PUSH32 0x92673BC4B5FF73490AF990EA8B2927E66EC918198708735B1DD7FCFF379D9D85 DUP1 SLOAD SWAP1 SWAP2 AND DUP6 OR DUP2 SSTORE PUSH32 0x92673BC4B5FF73490AF990EA8B2927E66EC918198708735B1DD7FCFF379D9D88 SWAP2 SWAP1 SWAP2 SSTORE PUSH1 0xF PUSH32 0x92673BC4B5FF73490AF990EA8B2927E66EC918198708735B1DD7FCFF379D9D8B SSTORE TIMESTAMP PUSH32 0x92673BC4B5FF73490AF990EA8B2927E66EC918198708735B1DD7FCFF379D9D96 SSTORE PUSH1 0x7 PUSH32 0x92673BC4B5FF73490AF990EA8B2927E66EC918198708735B1DD7FCFF379D9D91 SSTORE PUSH1 0x8 PUSH32 0x92673BC4B5FF73490AF990EA8B2927E66EC918198708735B1DD7FCFF379D9D94 SSTORE PUSH32 0x92673BC4B5FF73490AF990EA8B2927E66EC918198708735B1DD7FCFF379D9D8D SWAP3 SWAP1 SWAP3 SSTORE PUSH1 0x14 PUSH32 0x92673BC4B5FF73490AF990EA8B2927E66EC918198708735B1DD7FCFF379D9D90 SSTORE PUSH1 0xD SLOAD SWAP2 SWAP3 SWAP2 DUP2 SWAP1 JUMPDEST PUSH1 0xF DUP3 LT PUSH2 0x7DC JUMPI POP POP PUSH1 0xA DUP4 ADD SSTORE PUSH1 0x5 SLOAD PUSH0 SWAP2 DUP3 MSTORE PUSH1 0xF PUSH1 0x20 MSTORE PUSH1 0x40 DUP3 KECCAK256 SSTORE SWAP1 DUP2 JUMPDEST PUSH1 0x16 SLOAD DUP4 LT ISZERO PUSH2 0x658 JUMPI PUSH1 0x16 SLOAD DUP4 LT ISZERO PUSH2 0x644 JUMPI PUSH1 0x16 PUSH0 MSTORE PUSH0 MLOAD PUSH1 0x20 PUSH2 0x4B06 PUSH0 CODECOPY PUSH0 MLOAD SWAP1 PUSH0 MSTORE DUP4 ADD SLOAD PUSH1 0x1 SWAP2 PUSH2 0x59C SWAP2 SWAP1 PUSH2 0xA02 JUMP JUMPDEST SWAP3 PUSH2 0x603 PUSH1 0x5 SLOAD PUSH2 0x5AB PUSH2 0x9CF JUMP JUMPDEST DUP2 DUP2 MSTORE PUSH1 0x20 DUP1 DUP3 ADD DUP4 DUP2 MSTORE PUSH1 0x40 DUP1 DUP5 ADD DUP8 DUP2 MSTORE PUSH0 PUSH1 0x60 DUP7 ADD DUP2 DUP2 MSTORE PUSH1 0x80 DUP8 ADD DUP3 DUP2 MSTORE DUP11 DUP4 MSTORE PUSH1 0x30 DUP8 MSTORE DUP5 DUP4 KECCAK256 SWAP9 DUP4 MSTORE SWAP8 SWAP1 SWAP6 MSTORE SWAP2 SWAP1 SWAP2 KECCAK256 SWAP4 MLOAD DUP5 SSTORE SWAP1 MLOAD PUSH1 0x1 DUP5 ADD SSTORE MLOAD PUSH1 0x2 DUP4 ADD SSTORE MLOAD PUSH1 0x3 DUP3 ADD SSTORE SWAP1 MLOAD PUSH1 0x4 SWAP1 SWAP2 ADD SSTORE JUMP JUMPDEST DUP1 PUSH0 MSTORE PUSH1 0x33 PUSH1 0x20 MSTORE PUSH2 0x61B PUSH1 0x40 PUSH0 KECCAK256 PUSH1 0x5 SLOAD SWAP1 PUSH2 0xA23 JUMP JUMPDEST DUP1 PUSH0 MSTORE PUSH1 0x32 PUSH1 0x20 MSTORE PUSH2 0x63D PUSH1 0x40 PUSH0 KECCAK256 PUSH1 0x5 SLOAD SWAP1 DUP2 PUSH0 MSTORE PUSH1 0x20 MSTORE PUSH1 0x40 PUSH0 KECCAK256 PUSH2 0xA23 JUMP JUMPDEST ADD SWAP2 PUSH2 0x566 JUMP JUMPDEST PUSH4 0x4E487B71 PUSH1 0xE0 SHL PUSH0 MSTORE PUSH1 0x32 PUSH1 0x4 MSTORE PUSH1 0x24 PUSH0 REVERT JUMPDEST PUSH1 0xD DUP3 ADD SSTORE PUSH0 SWAP1 PUSH0 JUMPDEST PUSH1 0x8 DUP2 LT PUSH2 0x72B JUMPI POP PUSH1 0x10 ADD SSTORE TIMESTAMP PUSH1 0x3A SSTORE TIMESTAMP PUSH1 0x41 SSTORE TIMESTAMP PUSH1 0x48 SSTORE PUSH0 PUSH1 0x3B SSTORE PUSH1 0x1 PUSH1 0x39 SSTORE PUSH0 PUSH1 0x42 SSTORE PUSH1 0x1 PUSH1 0x40 SSTORE PUSH0 PUSH1 0x49 SSTORE PUSH1 0x1 PUSH1 0x47 SSTORE PUSH1 0x1 PUSH0 MSTORE PUSH1 0x3E PUSH1 0x20 MSTORE PUSH1 0x3 PUSH1 0x40 PUSH0 KECCAK256 PUSH1 0x5 SLOAD SWAP1 DUP2 PUSH0 MSTORE PUSH1 0x20 MSTORE PUSH2 0x6C8 PUSH1 0x40 PUSH0 KECCAK256 SWAP2 PUSH1 0x1 PUSH0 MSTORE PUSH1 0x3D PUSH1 0x20 MSTORE PUSH1 0x40 PUSH0 KECCAK256 PUSH2 0xA23 JUMP JUMPDEST TIMESTAMP DUP2 SSTORE PUSH1 0x39 SLOAD PUSH1 0x1 DUP3 ADD SSTORE ADD PUSH2 0x100 PUSH2 0xFF00 NOT DUP3 SLOAD AND OR SWAP1 SSTORE PUSH32 0x360CB96D3E85B4FC299DDFA9A572850FC70961C86F0F1703F033143B0E5A82CF PUSH1 0x60 PUSH1 0x39 SLOAD PUSH1 0x5 SLOAD PUSH1 0x40 MLOAD SWAP2 DUP3 MSTORE PUSH1 0x20 DUP3 ADD MSTORE TIMESTAMP PUSH1 0x40 DUP3 ADD MSTORE LOG1 PUSH1 0x40 MLOAD PUSH2 0x4060 SWAP1 DUP2 PUSH2 0xA66 DUP3 CODECOPY RETURN JUMPDEST SWAP2 PUSH1 0x17 SLOAD DUP4 LT ISZERO PUSH2 0x644 JUMPI PUSH1 0x17 PUSH0 MSTORE PUSH0 MLOAD PUSH1 0x20 PUSH2 0x4AE6 PUSH0 CODECOPY PUSH0 MLOAD SWAP1 PUSH0 MSTORE DUP4 ADD SLOAD PUSH1 0x1 SWAP2 PUSH2 0x758 SWAP2 SWAP1 PUSH2 0xA02 JUMP JUMPDEST SWAP3 PUSH2 0x7BE PUSH1 0x5 SLOAD PUSH2 0x767 PUSH2 0x9CF JUMP JUMPDEST DUP2 DUP2 MSTORE PUSH1 0x20 DUP1 DUP3 ADD DUP6 DUP2 MSTORE PUSH0 PUSH1 0x40 DUP1 DUP6 ADD DUP3 DUP2 MSTORE PUSH1 0x60 DUP7 ADD DUP4 DUP2 MSTORE TIMESTAMP PUSH1 0x80 DUP9 ADD SWAP1 DUP2 MSTORE DUP11 DUP6 MSTORE PUSH1 0x35 DUP8 MSTORE DUP4 DUP6 KECCAK256 SWAP9 DUP6 MSTORE SWAP8 SWAP1 SWAP6 MSTORE SWAP2 KECCAK256 SWAP4 MLOAD DUP5 SSTORE SWAP1 MLOAD PUSH1 0x1 DUP5 ADD SSTORE MLOAD PUSH1 0x2 DUP4 ADD SSTORE MLOAD PUSH1 0x3 DUP3 ADD SSTORE SWAP1 MLOAD PUSH1 0x4 SWAP1 SWAP2 ADD SSTORE JUMP JUMPDEST DUP1 PUSH0 MSTORE PUSH1 0x37 PUSH1 0x20 MSTORE PUSH2 0x7D6 PUSH1 0x40 PUSH0 KECCAK256 PUSH1 0x5 SLOAD SWAP1 PUSH2 0xA23 JUMP JUMPDEST ADD PUSH2 0x661 JUMP JUMPDEST SWAP1 SWAP2 DUP2 DUP4 LT ISZERO PUSH2 0x644 JUMPI PUSH1 0xD PUSH0 MSTORE PUSH0 MLOAD PUSH1 0x20 PUSH2 0x4AC6 PUSH0 CODECOPY PUSH0 MLOAD SWAP1 PUSH0 MSTORE DUP4 ADD SLOAD PUSH1 0x1 SWAP2 PUSH2 0x808 SWAP2 SWAP1 PUSH2 0xA02 JUMP JUMPDEST SWAP3 ADD SWAP1 PUSH2 0x543 JUMP JUMPDEST PUSH1 0x1 SWAP1 PUSH1 0x20 PUSH1 0xFF DUP5 MLOAD AND SWAP4 ADD SWAP3 DUP2 PUSH1 0x27 ADD SSTORE ADD PUSH2 0x398 JUMP JUMPDEST PUSH1 0x1 SWAP1 PUSH1 0x20 PUSH1 0xFF DUP5 MLOAD AND SWAP4 ADD SWAP3 DUP2 PUSH1 0x1F ADD SSTORE ADD PUSH2 0x350 JUMP JUMPDEST PUSH1 0x1 SWAP1 PUSH1 0x20 PUSH1 0xFF DUP5 MLOAD AND SWAP4 ADD SWAP3 DUP2 PUSH1 0x18 ADD SSTORE ADD PUSH2 0x307 JUMP JUMPDEST DUP2 MLOAD PUSH1 0x1 PUSH1 0x1 PUSH1 0x50 SHL SUB AND DUP2 DUP5 ADD SSTORE PUSH1 0x20 SWAP1 SWAP2 ADD SWAP1 PUSH1 0x1 ADD PUSH2 0x2C4 JUMP JUMPDEST PUSH1 0x17 PUSH0 MSTORE PUSH2 0x8B2 SWAP1 PUSH0 MLOAD PUSH1 0x20 PUSH2 0x4AE6 PUSH0 CODECOPY PUSH0 MLOAD SWAP1 PUSH0 MSTORE ADD PUSH32 0xC624B66CC0138B8FABC209247F72D758E1CF3343756D543BADBF24212BED8C1D PUSH2 0xA4F JUMP JUMPDEST PUSH0 PUSH2 0x2B8 JUMP JUMPDEST DUP2 MLOAD PUSH1 0x1 PUSH1 0x1 PUSH1 0x50 SHL SUB AND DUP2 DUP5 ADD SSTORE PUSH1 0x20 SWAP1 SWAP2 ADD SWAP1 PUSH1 0x1 ADD PUSH2 0x21D JUMP JUMPDEST PUSH1 0x16 PUSH0 MSTORE PUSH2 0x912 SWAP1 PUSH0 MLOAD PUSH1 0x20 PUSH2 0x4B06 PUSH0 CODECOPY PUSH0 MLOAD SWAP1 PUSH0 MSTORE ADD PUSH32 0xD833147D7DC355BA459FC788F669E58CFAF9DC25DDCD0702E87D69C7B5124290 PUSH2 0xA4F JUMP JUMPDEST PUSH0 PUSH2 0x211 JUMP JUMPDEST DUP2 MLOAD PUSH1 0x1 PUSH1 0x1 PUSH1 0x50 SHL SUB AND DUP2 DUP5 ADD SSTORE PUSH1 0x20 SWAP1 SWAP2 ADD SWAP1 PUSH1 0x1 ADD PUSH2 0x183 JUMP JUMPDEST PUSH1 0xD PUSH0 MSTORE PUSH2 0x972 SWAP1 PUSH0 MLOAD PUSH1 0x20 PUSH2 0x4AC6 PUSH0 CODECOPY PUSH0 MLOAD SWAP1 PUSH0 MSTORE ADD PUSH32 0xD7B6990105719101DABEB77144F2A3385C8033ACD3AF97E9423A695E81AD1EC4 PUSH2 0xA4F JUMP JUMPDEST PUSH0 PUSH2 0x177 JUMP JUMPDEST PUSH4 0x4E487B71 PUSH1 0xE0 SHL PUSH0 MSTORE PUSH1 0x41 PUSH1 0x4 MSTORE PUSH1 0x24 PUSH0 REVERT JUMPDEST PUSH0 DUP1 REVERT JUMPDEST PUSH1 0x40 MLOAD SWAP1 PUSH1 0xE0 DUP3 ADD PUSH1 0x1 PUSH1 0x1 PUSH1 0x40 SHL SUB DUP2 GT DUP4 DUP3 LT OR PUSH2 0x978 JUMPI PUSH1 0x40 MSTORE JUMP JUMPDEST PUSH1 0x40 MLOAD SWAP1 PUSH2 0x100 DUP3 ADD PUSH1 0x1 PUSH1 0x1 PUSH1 0x40 SHL SUB DUP2 GT DUP4 DUP3 LT OR PUSH2 0x978 JUMPI PUSH1 0x40 MSTORE JUMP JUMPDEST PUSH1 0x40 MLOAD SWAP1 PUSH1 0xA0 DUP3 ADD PUSH1 0x1 PUSH1 0x1 PUSH1 0x40 SHL SUB DUP2 GT DUP4 DUP3 LT OR PUSH2 0x978 JUMPI PUSH1 0x40 MSTORE JUMP JUMPDEST MLOAD SWAP1 PUSH1 0x1 PUSH1 0x1 PUSH1 0xA0 SHL SUB DUP3 AND DUP3 SUB PUSH2 0x98C JUMPI JUMP JUMPDEST SWAP2 SWAP1 DUP3 ADD DUP1 SWAP3 GT PUSH2 0xA0F JUMPI JUMP JUMPDEST PUSH4 0x4E487B71 PUSH1 0xE0 SHL PUSH0 MSTORE PUSH1 0x11 PUSH1 0x4 MSTORE PUSH1 0x24 PUSH0 REVERT JUMPDEST DUP1 SLOAD SWAP1 PUSH9 0x10000000000000000 DUP3 LT ISZERO PUSH2 0x978 JUMPI PUSH1 0x1 DUP3 ADD DUP1 DUP3 SSTORE DUP3 LT ISZERO PUSH2 0x644 JUMPI PUSH0 MSTORE PUSH1 0x20 PUSH0 KECCAK256 ADD SSTORE JUMP JUMPDEST DUP2 DUP2 LT PUSH2 0xA5A JUMPI POP POP JUMP JUMPDEST PUSH0 DUP2 SSTORE PUSH1 0x1 ADD PUSH2 0xA4F JUMP INVALID PUSH2 0x2E0 DUP1 PUSH1 0x40 MSTORE PUSH1 0x4 CALLDATASIZE LT ISZERO PUSH2 0x13 JUMPI PUSH0 DUP1 REVERT JUMPDEST PUSH0 SWAP1 PUSH0 CALLDATALOAD PUSH1 0xE0 SHR SWAP1 DUP2 PUSH3 0x54815D EQ PUSH2 0x28F6 JUMPI POP DUP1 PUSH4 0x1C234A8 EQ PUSH2 0x28DA JUMPI DUP1 PUSH4 0x56B4D1F EQ PUSH2 0x287A JUMPI DUP1 PUSH4 0x676D0D6 EQ PUSH2 0x2850 JUMPI DUP1 PUSH4 0xA5C5D69 EQ PUSH2 0x2821 JUMPI DUP1 PUSH4 0xEF81B74 EQ PUSH2 0x27E8 JUMPI DUP1 PUSH4 0xF2B7CC9 EQ PUSH2 0x27B9 JUMPI DUP1 PUSH4 0x16298056 EQ PUSH2 0x2446 JUMPI DUP1 PUSH4 0x1C4ECF68 EQ PUSH2 0x242B JUMPI DUP1 PUSH4 0x2132D204 EQ PUSH2 0x23FD JUMPI DUP1 PUSH4 0x2350268F EQ PUSH2 0x23BA JUMPI DUP1 PUSH4 0x23FD338E EQ PUSH2 0x16C7 JUMPI DUP1 PUSH4 0x2A891534 EQ PUSH2 0x239C JUMPI DUP1 PUSH4 0x2AE0EE0D EQ PUSH2 0x20FC JUMPI DUP1 PUSH4 0x2D66014F EQ PUSH2 0x2359 JUMPI DUP1 PUSH4 0x2F48AB7D EQ PUSH2 0x2330 JUMPI DUP1 PUSH4 0x3080B5BC EQ PUSH2 0x2312 JUMPI DUP1 PUSH4 0x31BB6A30 EQ PUSH2 0x22F6 JUMPI DUP1 PUSH4 0x32BC298C EQ PUSH2 0x22D8 JUMPI DUP1 PUSH4 0x32FCD966 EQ PUSH2 0x22B5 JUMPI DUP1 PUSH4 0x365B98B2 EQ PUSH2 0x2101 JUMPI DUP1 PUSH4 0x375B43B4 EQ PUSH2 0x20FC JUMPI DUP1 PUSH4 0x39AB3603 EQ PUSH2 0x20B9 JUMPI DUP1 PUSH4 0x39F2E64A EQ PUSH2 0x1D8A JUMPI DUP1 PUSH4 0x3A5084B3 EQ PUSH2 0x1D6C JUMPI DUP1 PUSH4 0x4036436C EQ PUSH2 0x1D0C JUMPI DUP1 PUSH4 0x45977D03 EQ PUSH2 0x184E JUMPI DUP1 PUSH4 0x45CB537C EQ PUSH2 0x1824 JUMPI DUP1 PUSH4 0x46B9DECE EQ PUSH2 0x177E JUMPI DUP1 PUSH4 0x4B8CBF9B EQ PUSH2 0x1760 JUMPI DUP1 PUSH4 0x4D12AE0F EQ PUSH2 0x172E JUMPI DUP1 PUSH4 0x4D4CC5CA EQ PUSH2 0x16F2 JUMPI DUP1 PUSH4 0x54C5BD90 EQ PUSH2 0x16CC JUMPI DUP1 PUSH4 0x58C7D352 EQ PUSH2 0x16C7 JUMPI DUP1 PUSH4 0x5AABF7F1 EQ PUSH2 0x168B JUMPI DUP1 PUSH4 0x5B58CE6C EQ PUSH2 0x1627 JUMPI DUP1 PUSH4 0x5B62D1D5 EQ PUSH2 0x1609 JUMPI DUP1 PUSH4 0x5EC64A44 EQ PUSH2 0x15D7 JUMPI DUP1 PUSH4 0x6A424782 EQ PUSH2 0x1576 JUMPI DUP1 PUSH4 0x705FEE2D EQ PUSH2 0x1557 JUMPI DUP1 PUSH4 0x70C8D770 EQ PUSH2 0x14DD JUMPI DUP1 PUSH4 0x76F5F700 EQ PUSH2 0x14BF JUMPI DUP1 PUSH4 0x78F6AD6D EQ PUSH2 0x14A1 JUMPI DUP1 PUSH4 0x7CDC65F2 EQ PUSH2 0x1478 JUMPI DUP1 PUSH4 0x7D846E38 EQ PUSH2 0x1454 JUMPI DUP1 PUSH4 0x88AFBE3E EQ PUSH2 0x142A JUMPI DUP1 PUSH4 0x89043ECE EQ PUSH2 0x13FD JUMPI DUP1 PUSH4 0x8D58644C EQ PUSH2 0x13C1 JUMPI DUP1 PUSH4 0x8F030ECE EQ PUSH2 0x1385 JUMPI DUP1 PUSH4 0x907C84A7 EQ PUSH2 0x131A JUMPI DUP1 PUSH4 0x956A3228 EQ PUSH2 0x12EC JUMPI DUP1 PUSH4 0x97358004 EQ PUSH2 0xED0 JUMPI DUP1 PUSH4 0x9B40AB97 EQ PUSH2 0xEB2 JUMPI DUP1 PUSH4 0x9C383486 EQ PUSH2 0xE80 JUMPI DUP1 PUSH4 0xA59D17D1 EQ PUSH2 0xE62 JUMPI DUP1 PUSH4 0xA5E52B99 EQ PUSH2 0xE44 JUMPI DUP1 PUSH4 0xAE4708DC EQ PUSH2 0xE01 JUMPI DUP1 PUSH4 0xBD1AAE40 EQ PUSH2 0xDCF JUMPI DUP1 PUSH4 0xBF724672 EQ PUSH2 0xD97 JUMPI DUP1 PUSH4 0xBFF1F9E1 EQ PUSH2 0xD79 JUMPI DUP1 PUSH4 0xC216212A EQ PUSH2 0xD4E JUMPI DUP1 PUSH4 0xC4EB42A5 EQ PUSH2 0xCED JUMPI DUP1 PUSH4 0xC7BB62E8 EQ PUSH2 0xCBB JUMPI DUP1 PUSH4 0xC8DF2908 EQ PUSH2 0xC96 JUMPI DUP1 PUSH4 0xC9ED0708 EQ PUSH2 0xC78 JUMPI DUP1 PUSH4 0xCA8E9121 EQ PUSH2 0xC5A JUMPI DUP1 PUSH4 0xCB0E0D7D EQ PUSH2 0xC1D JUMPI DUP1 PUSH4 0xCE79C2C3 EQ PUSH2 0xBB2 JUMPI DUP1 PUSH4 0xD0A2FD79 EQ PUSH2 0xB80 JUMPI DUP1 PUSH4 0xD2F0490D EQ PUSH2 0xB64 JUMPI DUP1 PUSH4 0xDB27CC71 EQ PUSH2 0xB00 JUMPI DUP1 PUSH4 0xE898FC38 EQ PUSH2 0xAE2 JUMPI DUP1 PUSH4 0xE9E34A16 EQ PUSH2 0xAB9 JUMPI DUP1 PUSH4 0xEBE0FF15 EQ PUSH2 0xA95 JUMPI DUP1 PUSH4 0xEC597E6F EQ PUSH2 0xA77 JUMPI DUP1 PUSH4 0xF207564E EQ PUSH2 0x46F JUMPI DUP1 PUSH4 0xF5748C4F EQ PUSH2 0x418 JUMPI DUP1 PUSH4 0xF5D74D93 EQ PUSH2 0x3EF JUMPI DUP1 PUSH4 0xF7A24806 EQ PUSH2 0x3AE JUMPI PUSH4 0xFDDC806F EQ PUSH2 0x38E JUMPI PUSH0 DUP1 REVERT JUMPDEST CALLVALUE PUSH2 0x3AB JUMPI DUP1 PUSH1 0x3 NOT CALLDATASIZE ADD SLT PUSH2 0x3AB JUMPI PUSH1 0x20 PUSH1 0x3A SLOAD PUSH1 0x40 MLOAD SWAP1 DUP2 MSTORE RETURN JUMPDEST DUP1 REVERT JUMPDEST POP CALLVALUE PUSH2 0x3AB JUMPI PUSH2 0x3BD CALLDATASIZE PUSH2 0x2955 JUMP JUMPDEST SWAP2 SWAP1 DUP2 MSTORE PUSH1 0x46 PUSH1 0x20 MSTORE PUSH1 0x40 DUP2 KECCAK256 SWAP1 DUP2 SLOAD DUP4 LT ISZERO PUSH2 0x3AB JUMPI PUSH1 0x20 PUSH2 0x3E0 DUP5 DUP5 PUSH2 0x2A09 JUMP JUMPDEST SWAP1 SLOAD SWAP1 PUSH1 0x3 SHL SHR PUSH1 0x40 MLOAD SWAP1 DUP2 MSTORE RETURN JUMPDEST POP CALLVALUE PUSH2 0x3AB JUMPI DUP1 PUSH1 0x3 NOT CALLDATASIZE ADD SLT PUSH2 0x3AB JUMPI PUSH1 0x4 SLOAD PUSH1 0x40 MLOAD PUSH1 0x1 PUSH1 0x1 PUSH1 0xA0 SHL SUB SWAP1 SWAP2 AND DUP2 MSTORE PUSH1 0x20 SWAP1 RETURN JUMPDEST POP CALLVALUE PUSH2 0x3AB JUMPI PUSH1 0x20 CALLDATASIZE PUSH1 0x3 NOT ADD SLT PUSH2 0x3AB JUMPI PUSH1 0x4 CALLDATALOAD SWAP1 PUSH1 0x4B SLOAD DUP3 LT ISZERO PUSH2 0x3AB JUMPI PUSH1 0x4B SLOAD DUP3 LT ISZERO PUSH2 0x45B JUMPI PUSH1 0x20 SWAP2 PUSH1 0x4B DUP3 MSTORE DUP3 DUP3 KECCAK256 ADD SLOAD SWAP1 PUSH1 0x3 SHL SHR PUSH1 0x40 MLOAD SWAP1 DUP2 MSTORE RETURN JUMPDEST PUSH4 0x4E487B71 PUSH1 0xE0 SHL DUP2 MSTORE PUSH1 0x32 PUSH1 0x4 MSTORE PUSH1 0x24 SWAP1 REVERT JUMPDEST POP CALLVALUE PUSH2 0x3AB JUMPI PUSH1 0x20 CALLDATASIZE PUSH1 0x3 NOT ADD SLT PUSH2 0x3AB JUMPI PUSH1 0x4 CALLDATALOAD CALLER DUP3 MSTORE PUSH1 0xF PUSH1 0x20 MSTORE PUSH1 0x40 DUP3 KECCAK256 SLOAD PUSH2 0xA3D JUMPI DUP1 DUP3 MSTORE PUSH1 0x10 PUSH1 0x20 MSTORE PUSH1 0x3 PUSH1 0x40 DUP4 KECCAK256 ADD SLOAD ISZERO PUSH2 0xA06 JUMPI PUSH1 0x1 SLOAD DUP3 SWAP1 PUSH1 0x20 SWAP1 PUSH2 0x4FD SWAP1 PUSH1 0x1 PUSH1 0x1 PUSH1 0xA0 SHL SUB AND PUSH2 0x4C7 PUSH2 0x29D7 JUMP JUMPDEST SWAP1 SLOAD PUSH1 0x40 MLOAD PUSH4 0x23B872DD PUSH1 0xE0 SHL DUP2 MSTORE CALLER PUSH1 0x4 DUP3 ADD MSTORE ADDRESS PUSH1 0x24 DUP3 ADD MSTORE PUSH1 0x3 SWAP3 SWAP1 SWAP3 SHL SHR PUSH1 0x44 DUP3 ADD MSTORE SWAP4 DUP5 SWAP3 DUP4 SWAP2 SWAP1 DUP3 SWAP1 PUSH1 0x64 DUP3 ADD SWAP1 JUMP JUMPDEST SUB SWAP3 GAS CALL DUP1 ISZERO PUSH2 0x9FB JUMPI PUSH2 0x9CE JUMPI JUMPDEST POP PUSH1 0x5 SLOAD SWAP1 PUSH2 0x51E PUSH1 0x6 SLOAD DUP1 SWAP4 PUSH2 0x2B93 JUMP JUMPDEST SWAP2 PUSH1 0x1 DUP2 ADD DUP1 SWAP2 GT PUSH2 0x9BA JUMPI PUSH1 0x6 SSTORE CALLER DUP4 MSTORE PUSH1 0xF PUSH1 0x20 MSTORE DUP2 PUSH1 0x40 DUP5 KECCAK256 SSTORE PUSH2 0x543 PUSH2 0x29D7 JUMP JUMPDEST SWAP1 SLOAD SWAP1 PUSH1 0x3 SHL SHR SWAP1 DUP3 DUP5 MSTORE PUSH1 0x10 PUSH1 0x20 MSTORE PUSH1 0x40 DUP5 KECCAK256 SWAP2 CALLER PUSH12 0xFFFFFFFFFFFFFFFFFFFFFFFF PUSH1 0xA0 SHL DUP5 SLOAD AND OR DUP4 SSTORE TIMESTAMP PUSH1 0x2 DUP5 ADD SSTORE DUP4 PUSH1 0x3 DUP5 ADD SSTORE PUSH1 0x4 DUP4 ADD DUP3 DUP2 SSTORE PUSH1 0x1 PUSH1 0x6 DUP6 ADD SSTORE DUP2 PUSH1 0xA DUP6 ADD SSTORE TIMESTAMP PUSH1 0x11 DUP6 ADD SSTORE PUSH1 0xF PUSH1 0xB DUP6 ADD SSTORE DUP3 DUP7 MSTORE PUSH1 0x10 PUSH1 0x20 MSTORE PUSH1 0x7 PUSH1 0x40 DUP8 KECCAK256 ADD DUP1 SLOAD SWAP1 PUSH1 0x1 DUP3 ADD DUP1 SWAP3 GT PUSH2 0x800 JUMPI SSTORE DUP3 DUP7 MSTORE PUSH1 0x15 PUSH1 0x20 MSTORE PUSH2 0x5CF DUP6 PUSH1 0x40 DUP9 KECCAK256 PUSH2 0x313A JUMP JUMPDEST DUP2 DUP7 MSTORE PUSH1 0xC PUSH1 0x20 MSTORE PUSH1 0x40 DUP7 KECCAK256 DUP1 SLOAD SWAP1 PUSH1 0x1 DUP3 ADD DUP1 SWAP3 GT PUSH2 0x800 JUMPI SSTORE DUP2 DUP7 MSTORE PUSH1 0xA PUSH1 0x20 MSTORE PUSH1 0x40 DUP7 KECCAK256 SLOAD DUP3 DUP8 MSTORE PUSH1 0xB PUSH1 0x20 MSTORE PUSH1 0x40 DUP8 KECCAK256 DUP7 DUP9 MSTORE PUSH1 0x20 MSTORE PUSH1 0x40 DUP8 KECCAK256 SSTORE DUP6 DUP7 SWAP1 DUP5 DUP9 MSTORE PUSH1 0x14 PUSH1 0x20 MSTORE PUSH1 0x2 PUSH1 0x40 DUP10 KECCAK256 SLOAD LT PUSH0 EQ PUSH2 0x875 JUMPI POP POP DUP5 DUP7 MSTORE PUSH1 0x10 PUSH1 0x20 MSTORE DUP3 PUSH1 0x5 PUSH1 0x40 DUP9 KECCAK256 ADD SSTORE DUP3 DUP7 MSTORE PUSH1 0x14 PUSH1 0x20 MSTORE PUSH1 0x40 DUP7 KECCAK256 DUP1 SLOAD SWAP1 PUSH1 0x1 DUP3 ADD DUP1 SWAP3 GT PUSH2 0x800 JUMPI SSTORE DUP3 JUMPDEST DUP7 SWAP1 JUMPDEST PUSH1 0xF DUP3 LT PUSH2 0x814 JUMPI JUMPDEST POP POP PUSH1 0x5 DUP3 MUL DUP3 ISZERO SWAP1 DUP4 DUP2 DIV PUSH1 0x5 EQ DUP3 OR ISZERO PUSH2 0x800 JUMPI PUSH1 0x64 SWAP1 DIV PUSH1 0x3C DUP5 MUL SWAP2 DUP5 DUP4 DIV PUSH1 0x3C EQ DUP2 OR ISZERO PUSH2 0x7D8 JUMPI PUSH2 0x69B DUP3 PUSH1 0x3B SLOAD PUSH2 0x2B93 JUMP JUMPDEST PUSH1 0x3B SSTORE PUSH1 0x23 DUP6 MUL DUP6 DUP2 DIV PUSH1 0x23 EQ DUP3 OR ISZERO PUSH2 0x7EC JUMPI PUSH2 0x3E8 PUSH2 0x6BF SWAP2 DIV PUSH1 0x42 SLOAD PUSH2 0x2B93 JUMP JUMPDEST PUSH1 0x42 SSTORE PUSH1 0xF DUP6 MUL DUP6 DUP2 DIV PUSH1 0xF EQ DUP3 OR ISZERO PUSH2 0x7EC JUMPI PUSH2 0x3E8 PUSH2 0x6E3 SWAP2 DIV PUSH1 0x49 SLOAD PUSH2 0x2B93 JUMP JUMPDEST PUSH1 0x49 SSTORE PUSH1 0x19 DUP6 MUL SWAP1 DUP6 DUP3 DIV PUSH1 0x19 EQ OR ISZERO PUSH2 0x7D8 JUMPI PUSH1 0x64 PUSH2 0x71E SWAP4 PUSH2 0x716 DUP8 SWAP7 SWAP5 PUSH2 0x711 DUP13 SWAP10 DUP6 DUP12 SWAP8 DIV PUSH2 0x3496 JUMP JUMPDEST PUSH2 0x33DA JUMP JUMPDEST DIV SWAP2 SLOAD PUSH2 0x3507 JUMP JUMPDEST PUSH1 0x40 MLOAD SWAP1 PUSH1 0x1 DUP3 MSTORE PUSH1 0x20 DUP3 ADD MSTORE PUSH1 0x80 PUSH1 0x40 DUP3 ADD MSTORE PUSH32 0x26ADB22CEC823EF144935E9FBEF1B6B4A3A29DACBE5444D59292FA2620F3D377 PUSH2 0x783 PUSH1 0x80 DUP4 ADD PUSH1 0x40 SWAP1 PUSH1 0x15 DUP2 MSTORE PUSH21 0x53706F6E736F727368697020537472756374757265 PUSH1 0x58 SHL PUSH1 0x20 DUP3 ADD MSTORE ADD SWAP1 JUMP JUMPDEST SWAP2 TIMESTAMP PUSH1 0x60 DUP3 ADD MSTORE DUP1 CALLER SWAP4 SUB SWAP1 LOG3 DUP4 MSTORE PUSH1 0x10 PUSH1 0x20 MSTORE PUSH1 0x5 PUSH1 0x1 DUP1 PUSH1 0xA0 SHL SUB PUSH1 0x40 DUP6 KECCAK256 SLOAD AND SWAP2 ADD SLOAD PUSH1 0x40 MLOAD SWAP1 DUP2 MSTORE PUSH32 0x309BB360E8B69C23937CCC5FB01F9AEEEAD1C95A99604E175113FF82F2B1723A PUSH1 0x20 CALLER SWAP3 LOG4 DUP1 RETURN JUMPDEST PUSH4 0x4E487B71 PUSH1 0xE0 SHL DUP10 MSTORE PUSH1 0x11 PUSH1 0x4 MSTORE PUSH1 0x24 DUP10 REVERT JUMPDEST PUSH4 0x4E487B71 PUSH1 0xE0 SHL DUP11 MSTORE PUSH1 0x11 PUSH1 0x4 MSTORE PUSH1 0x24 DUP11 REVERT JUMPDEST PUSH4 0x4E487B71 PUSH1 0xE0 SHL DUP9 MSTORE PUSH1 0x11 PUSH1 0x4 MSTORE PUSH1 0x24 DUP9 REVERT JUMPDEST DUP1 ISZERO PUSH2 0x870 JUMPI DUP1 DUP9 MSTORE PUSH1 0x10 PUSH1 0x20 MSTORE PUSH1 0x9 PUSH1 0x40 DUP10 KECCAK256 ADD DUP1 SLOAD SWAP1 PUSH1 0x1 DUP3 ADD DUP1 SWAP3 GT PUSH2 0x7EC JUMPI SSTORE DUP1 DUP9 MSTORE PUSH1 0x13 PUSH1 0x20 MSTORE PUSH1 0x40 DUP9 KECCAK256 DUP3 DUP10 MSTORE PUSH1 0x20 MSTORE PUSH2 0x857 DUP8 PUSH1 0x40 DUP11 KECCAK256 PUSH2 0x313A JUMP JUMPDEST DUP8 MSTORE PUSH1 0x10 PUSH1 0x20 MSTORE PUSH1 0x1 PUSH1 0x5 PUSH1 0x40 DUP10 KECCAK256 ADD SLOAD SWAP2 ADD SWAP1 PUSH2 0x65A JUMP JUMPDEST PUSH2 0x663 JUMP JUMPDEST DUP8 JUMPDEST PUSH1 0xF DUP2 LT PUSH2 0x887 JUMPI JUMPDEST POP POP PUSH2 0x657 JUMP JUMPDEST DUP2 PUSH2 0x9B5 JUMPI DUP6 DUP10 MSTORE PUSH1 0x13 PUSH1 0x20 MSTORE PUSH1 0x40 DUP10 KECCAK256 PUSH1 0x1 DUP3 ADD DUP1 DUP4 GT PUSH2 0x97E JUMPI DUP11 MSTORE PUSH1 0x20 MSTORE PUSH1 0x40 DUP10 KECCAK256 SLOAD PUSH1 0x2 DUP3 ADD DUP1 DUP4 GT PUSH2 0x97E JUMPI PUSH1 0xFF DUP2 GT PUSH2 0x97E JUMPI PUSH1 0x1 SWAP1 SHL GT PUSH2 0x8D2 JUMPI JUMPDEST PUSH1 0x1 ADD PUSH2 0x877 JUMP JUMPDEST SWAP5 SWAP4 SWAP1 SWAP7 SWAP6 SWAP2 SWAP3 DUP9 JUMPDEST DUP6 DUP11 MSTORE PUSH1 0x13 PUSH1 0x20 MSTORE PUSH1 0x40 DUP11 KECCAK256 DUP8 DUP12 MSTORE PUSH1 0x20 MSTORE PUSH1 0x40 DUP11 KECCAK256 SLOAD DUP2 LT ISZERO PUSH2 0x9A5 JUMPI DUP9 PUSH2 0x992 JUMPI DUP6 DUP11 MSTORE PUSH1 0x13 PUSH1 0x20 MSTORE PUSH1 0x40 DUP11 KECCAK256 DUP8 DUP12 MSTORE PUSH1 0x20 MSTORE PUSH2 0x91D DUP2 PUSH1 0x40 DUP13 KECCAK256 PUSH2 0x2A09 JUMP JUMPDEST SWAP1 SLOAD SWAP1 PUSH1 0x3 SHL SHR DUP1 DUP12 MSTORE PUSH1 0x14 PUSH1 0x20 MSTORE PUSH1 0x2 PUSH1 0x40 DUP13 KECCAK256 SLOAD LT PUSH2 0x942 JUMPI JUMPDEST POP PUSH1 0x1 ADD PUSH2 0x8DB JUMP JUMPDEST SWAP2 SWAP5 POP SWAP8 POP DUP7 DUP10 MSTORE PUSH1 0x10 PUSH1 0x20 MSTORE DUP1 PUSH1 0x5 PUSH1 0x40 DUP12 KECCAK256 ADD SSTORE DUP1 DUP10 MSTORE PUSH1 0x14 PUSH1 0x20 MSTORE PUSH1 0x40 DUP10 KECCAK256 DUP1 SLOAD SWAP1 PUSH1 0x1 DUP3 ADD DUP1 SWAP3 GT PUSH2 0x97E JUMPI SSTORE SWAP3 PUSH1 0x1 DUP1 SWAP9 SWAP1 PUSH2 0x939 JUMP JUMPDEST PUSH4 0x4E487B71 PUSH1 0xE0 SHL DUP12 MSTORE PUSH1 0x11 PUSH1 0x4 MSTORE PUSH1 0x24 DUP12 REVERT JUMPDEST POP SWAP3 SWAP2 SWAP6 SWAP7 SWAP1 SWAP4 SWAP5 PUSH1 0x1 SWAP1 JUMPDEST SWAP1 POP PUSH2 0x8CA JUMP JUMPDEST POP SWAP3 SWAP2 SWAP6 SWAP7 SWAP1 SWAP4 SWAP5 PUSH1 0x1 SWAP1 PUSH2 0x99E JUMP JUMPDEST PUSH2 0x880 JUMP JUMPDEST PUSH4 0x4E487B71 PUSH1 0xE0 SHL DUP5 MSTORE PUSH1 0x11 PUSH1 0x4 MSTORE PUSH1 0x24 DUP5 REVERT JUMPDEST PUSH2 0x9EF SWAP1 PUSH1 0x20 RETURNDATASIZE PUSH1 0x20 GT PUSH2 0x9F4 JUMPI JUMPDEST PUSH2 0x9E7 DUP2 DUP4 PUSH2 0x2FB9 JUMP JUMPDEST DUP2 ADD SWAP1 PUSH2 0x2FEF JUMP JUMPDEST PUSH2 0x50C JUMP JUMPDEST POP RETURNDATASIZE PUSH2 0x9DD JUMP JUMPDEST PUSH1 0x40 MLOAD RETURNDATASIZE DUP6 DUP3 RETURNDATACOPY RETURNDATASIZE SWAP1 REVERT JUMPDEST PUSH1 0x40 MLOAD PUSH3 0x461BCD PUSH1 0xE5 SHL DUP2 MSTORE PUSH1 0x20 PUSH1 0x4 DUP3 ADD MSTORE PUSH1 0xF PUSH1 0x24 DUP3 ADD MSTORE PUSH15 0x24B73B30B634B21039B837B739B7B9 PUSH1 0x89 SHL PUSH1 0x44 DUP3 ADD MSTORE PUSH1 0x64 SWAP1 REVERT JUMPDEST PUSH1 0x40 MLOAD PUSH3 0x461BCD PUSH1 0xE5 SHL DUP2 MSTORE PUSH1 0x20 PUSH1 0x4 DUP3 ADD MSTORE PUSH1 0x12 PUSH1 0x24 DUP3 ADD MSTORE PUSH18 0x105B1C9958591E481C9959DA5CDD195C9959 PUSH1 0x72 SHL PUSH1 0x44 DUP3 ADD MSTORE PUSH1 0x64 SWAP1 REVERT JUMPDEST POP CALLVALUE PUSH2 0x3AB JUMPI DUP1 PUSH1 0x3 NOT CALLDATASIZE ADD SLT PUSH2 0x3AB JUMPI PUSH1 0x20 PUSH1 0x5 SLOAD PUSH1 0x40 MLOAD SWAP1 DUP2 MSTORE RETURN JUMPDEST POP CALLVALUE PUSH2 0x3AB JUMPI DUP1 PUSH1 0x3 NOT CALLDATASIZE ADD SLT PUSH2 0x3AB JUMPI PUSH1 0x20 PUSH1 0x40 MLOAD PUSH9 0x3635C9ADC5DEA00000 DUP2 MSTORE RETURN JUMPDEST POP CALLVALUE PUSH2 0x3AB JUMPI DUP1 PUSH1 0x3 NOT CALLDATASIZE ADD SLT PUSH2 0x3AB JUMPI PUSH1 0x3 SLOAD PUSH1 0x40 MLOAD PUSH1 0x1 PUSH1 0x1 PUSH1 0xA0 SHL SUB SWAP1 SWAP2 AND DUP2 MSTORE PUSH1 0x20 SWAP1 RETURN JUMPDEST POP CALLVALUE PUSH2 0x3AB JUMPI DUP1 PUSH1 0x3 NOT CALLDATASIZE ADD SLT PUSH2 0x3AB JUMPI PUSH1 0x20 PUSH1 0x41 SLOAD PUSH1 0x40 MLOAD SWAP1 DUP2 MSTORE RETURN JUMPDEST POP CALLVALUE PUSH2 0x3AB JUMPI PUSH1 0x20 CALLDATASIZE PUSH1 0x3 NOT ADD SLT PUSH2 0x3AB JUMPI PUSH1 0x40 SWAP1 PUSH1 0x4 CALLDATALOAD DUP2 MSTORE PUSH1 0x4C PUSH1 0x20 MSTORE KECCAK256 DUP1 SLOAD PUSH2 0xB60 PUSH1 0x1 DUP4 ADD SLOAD SWAP3 PUSH1 0xFF PUSH1 0x4 PUSH1 0x2 DUP4 ADD SLOAD SWAP3 ADD SLOAD AND SWAP1 PUSH1 0x40 MLOAD SWAP5 DUP6 SWAP5 DUP6 SWAP3 PUSH1 0x60 SWAP3 SWAP6 SWAP5 SWAP2 SWAP6 PUSH1 0x80 DUP6 ADD SWAP7 DUP6 MSTORE PUSH1 0x20 DUP6 ADD MSTORE PUSH1 0x40 DUP5 ADD MSTORE ISZERO ISZERO SWAP2 ADD MSTORE JUMP JUMPDEST SUB SWAP1 RETURN JUMPDEST POP CALLVALUE PUSH2 0x3AB JUMPI DUP1 PUSH1 0x3 NOT CALLDATASIZE ADD SLT PUSH2 0x3AB JUMPI PUSH1 0x20 PUSH1 0x40 MLOAD PUSH1 0x5 DUP2 MSTORE RETURN JUMPDEST POP CALLVALUE PUSH2 0x3AB JUMPI PUSH1 0x20 CALLDATASIZE PUSH1 0x3 NOT ADD SLT PUSH2 0x3AB JUMPI PUSH1 0x4 CALLDATALOAD PUSH1 0x8 DUP2 LT ISZERO PUSH2 0xBAE JUMPI PUSH1 0x20 SWAP2 POP PUSH1 0x1F ADD SLOAD PUSH1 0x40 MLOAD SWAP1 DUP2 MSTORE RETURN JUMPDEST POP DUP1 REVERT JUMPDEST POP CALLVALUE PUSH2 0x3AB JUMPI PUSH1 0x40 SWAP1 PUSH2 0xBC4 CALLDATASIZE PUSH2 0x2955 JUMP JUMPDEST SWAP1 DUP3 MSTORE PUSH1 0x30 PUSH1 0x20 MSTORE DUP3 DUP3 KECCAK256 SWAP1 DUP3 MSTORE PUSH1 0x20 MSTORE KECCAK256 DUP1 SLOAD PUSH2 0xB60 PUSH1 0x1 DUP4 ADD SLOAD SWAP3 PUSH1 0x2 DUP2 ADD SLOAD SWAP1 PUSH1 0x4 PUSH1 0x3 DUP3 ADD SLOAD SWAP2 ADD SLOAD SWAP2 PUSH1 0x40 MLOAD SWAP6 DUP7 SWAP6 DUP7 SWAP2 SWAP3 PUSH1 0x80 SWAP4 SWAP7 SWAP6 SWAP5 SWAP2 SWAP7 PUSH1 0xA0 DUP5 ADD SWAP8 DUP5 MSTORE PUSH1 0x20 DUP5 ADD MSTORE PUSH1 0x40 DUP4 ADD MSTORE PUSH1 0x60 DUP3 ADD MSTORE ADD MSTORE JUMP JUMPDEST POP CALLVALUE PUSH2 0x3AB JUMPI PUSH1 0x20 CALLDATASIZE PUSH1 0x3 NOT ADD SLT PUSH2 0x3AB JUMPI PUSH1 0x4 CALLDATALOAD PUSH1 0x1 PUSH1 0x1 PUSH1 0xA0 SHL SUB DUP2 AND SWAP1 DUP2 SWAP1 SUB PUSH2 0xBAE JUMPI DUP2 PUSH1 0x40 SWAP2 PUSH1 0x20 SWAP4 MSTORE PUSH1 0xF DUP4 MSTORE KECCAK256 SLOAD PUSH1 0x40 MLOAD SWAP1 DUP2 MSTORE RETURN JUMPDEST POP CALLVALUE PUSH2 0x3AB JUMPI DUP1 PUSH1 0x3 NOT CALLDATASIZE ADD SLT PUSH2 0x3AB JUMPI PUSH1 0x20 PUSH1 0x39 SLOAD PUSH1 0x40 MLOAD SWAP1 DUP2 MSTORE RETURN JUMPDEST POP CALLVALUE PUSH2 0x3AB JUMPI DUP1 PUSH1 0x3 NOT CALLDATASIZE ADD SLT PUSH2 0x3AB JUMPI PUSH1 0x20 PUSH1 0x40 SLOAD PUSH1 0x40 MLOAD SWAP1 DUP2 MSTORE RETURN JUMPDEST POP CALLVALUE PUSH2 0x3AB JUMPI DUP1 PUSH1 0x3 NOT CALLDATASIZE ADD SLT PUSH2 0x3AB JUMPI PUSH1 0x20 PUSH1 0x40 MLOAD PUSH10 0x21E19E0C9BAB2400000 DUP2 MSTORE RETURN JUMPDEST POP CALLVALUE PUSH2 0x3AB JUMPI PUSH2 0xCCA CALLDATASIZE PUSH2 0x2955 JUMP JUMPDEST SWAP2 SWAP1 DUP2 MSTORE PUSH1 0x37 PUSH1 0x20 MSTORE PUSH1 0x40 DUP2 KECCAK256 SWAP1 DUP2 SLOAD DUP4 LT ISZERO PUSH2 0x3AB JUMPI PUSH1 0x20 PUSH2 0x3E0 DUP5 DUP5 PUSH2 0x2A09 JUMP JUMPDEST POP CALLVALUE PUSH2 0x3AB JUMPI PUSH1 0x20 CALLDATASIZE PUSH1 0x3 NOT ADD SLT PUSH2 0x3AB JUMPI PUSH1 0x40 SWAP1 PUSH1 0x4 CALLDATALOAD DUP2 MSTORE PUSH1 0x3C PUSH1 0x20 MSTORE KECCAK256 DUP1 SLOAD PUSH2 0xB60 PUSH1 0x1 DUP4 ADD SLOAD SWAP3 PUSH1 0x2 DUP2 ADD SLOAD SWAP1 PUSH1 0x3 DUP2 ADD SLOAD PUSH1 0x4 DUP3 ADD SLOAD PUSH1 0x5 DUP4 ADD SLOAD SWAP1 PUSH1 0x6 DUP5 ADD SLOAD SWAP3 PUSH1 0xFF PUSH1 0x8 PUSH1 0x7 DUP8 ADD SLOAD SWAP7 ADD SLOAD AND SWAP6 PUSH1 0x40 MLOAD SWAP10 DUP11 SWAP10 DUP11 PUSH2 0x296B JUMP JUMPDEST POP CALLVALUE PUSH2 0x3AB JUMPI PUSH1 0x20 CALLDATASIZE PUSH1 0x3 NOT ADD SLT PUSH2 0x3AB JUMPI PUSH1 0x4 CALLDATALOAD SWAP1 PUSH1 0xD SLOAD DUP3 LT ISZERO PUSH2 0x3AB JUMPI PUSH1 0x20 PUSH2 0x3E0 DUP4 PUSH2 0x29AB JUMP JUMPDEST POP CALLVALUE PUSH2 0x3AB JUMPI DUP1 PUSH1 0x3 NOT CALLDATASIZE ADD SLT PUSH2 0x3AB JUMPI PUSH1 0x20 PUSH1 0x6 SLOAD PUSH1 0x40 MLOAD SWAP1 DUP2 MSTORE RETURN JUMPDEST POP CALLVALUE PUSH2 0x3AB JUMPI PUSH1 0x40 DUP1 SWAP2 PUSH2 0xDAA CALLDATASIZE PUSH2 0x2955 JUMP JUMPDEST SWAP1 DUP3 MSTORE PUSH1 0x2F PUSH1 0x20 MSTORE DUP3 DUP3 KECCAK256 SWAP1 DUP3 MSTORE PUSH1 0x20 MSTORE KECCAK256 PUSH1 0x1 DUP2 SLOAD SWAP2 ADD SLOAD DUP3 MLOAD SWAP2 DUP3 MSTORE PUSH1 0x20 DUP3 ADD MSTORE RETURN JUMPDEST POP CALLVALUE PUSH2 0x3AB JUMPI PUSH1 0xFF PUSH1 0x40 PUSH1 0x20 SWAP3 PUSH2 0xDE5 CALLDATASIZE PUSH2 0x2955 JUMP JUMPDEST SWAP1 DUP3 MSTORE PUSH1 0x34 DUP6 MSTORE DUP3 DUP3 KECCAK256 SWAP1 DUP3 MSTORE DUP5 MSTORE KECCAK256 SLOAD AND PUSH1 0x40 MLOAD SWAP1 ISZERO ISZERO DUP2 MSTORE RETURN JUMPDEST POP CALLVALUE PUSH2 0x3AB JUMPI PUSH1 0x20 CALLDATASIZE PUSH1 0x3 NOT ADD SLT PUSH2 0x3AB JUMPI PUSH1 0x4 CALLDATALOAD SWAP1 PUSH1 0x16 SLOAD DUP3 LT ISZERO PUSH2 0x3AB JUMPI PUSH1 0x16 SLOAD DUP3 LT ISZERO PUSH2 0x45B JUMPI PUSH1 0x20 SWAP2 PUSH1 0x16 DUP3 MSTORE DUP3 DUP3 KECCAK256 ADD SLOAD SWAP1 PUSH1 0x3 SHL SHR PUSH1 0x40 MLOAD SWAP1 DUP2 MSTORE RETURN JUMPDEST POP CALLVALUE PUSH2 0x3AB JUMPI DUP1 PUSH1 0x3 NOT CALLDATASIZE ADD SLT PUSH2 0x3AB JUMPI PUSH1 0x20 PUSH1 0x40 MLOAD PUSH3 0x83D600 DUP2 MSTORE RETURN JUMPDEST POP CALLVALUE PUSH2 0x3AB JUMPI DUP1 PUSH1 0x3 NOT CALLDATASIZE ADD SLT PUSH2 0x3AB JUMPI PUSH1 0x20 PUSH1 0x42 SLOAD PUSH1 0x40 MLOAD SWAP1 DUP2 MSTORE RETURN JUMPDEST POP CALLVALUE PUSH2 0x3AB JUMPI PUSH1 0xFF PUSH1 0x40 PUSH1 0x20 SWAP3 PUSH2 0xE96 CALLDATASIZE PUSH2 0x2955 JUMP JUMPDEST SWAP1 DUP3 MSTORE PUSH1 0x38 DUP6 MSTORE DUP3 DUP3 KECCAK256 SWAP1 DUP3 MSTORE DUP5 MSTORE KECCAK256 SLOAD AND PUSH1 0x40 MLOAD SWAP1 ISZERO ISZERO DUP2 MSTORE RETURN JUMPDEST POP CALLVALUE PUSH2 0x3AB JUMPI DUP1 PUSH1 0x3 NOT CALLDATASIZE ADD SLT PUSH2 0x3AB JUMPI PUSH1 0x20 PUSH1 0x48 SLOAD PUSH1 0x40 MLOAD SWAP1 DUP2 MSTORE RETURN JUMPDEST POP CALLVALUE PUSH2 0x3AB JUMPI PUSH2 0xEDF CALLDATASIZE PUSH2 0x2955 JUMP JUMPDEST PUSH2 0xEEA SWAP3 SWAP2 SWAP3 PUSH2 0x316E JUMP JUMPDEST DUP3 DUP3 MSTORE PUSH1 0x10 PUSH1 0x20 MSTORE PUSH1 0x40 DUP3 KECCAK256 SLOAD PUSH1 0x1 PUSH1 0x1 PUSH1 0xA0 SHL SUB AND PUSH2 0xF0B CALLER DUP3 EQ PUSH2 0x2A6E JUMP JUMPDEST ISZERO PUSH2 0x12B5 JUMPI DUP3 ISZERO ISZERO DUP1 PUSH2 0x12AC JUMPI JUMPDEST DUP1 PUSH2 0x128E JUMPI JUMPDEST DUP1 PUSH2 0x1283 JUMPI JUMPDEST PUSH2 0xF2E SWAP1 PUSH2 0x2AAD JUMP JUMPDEST DUP3 DUP3 MSTORE PUSH1 0x4C PUSH1 0x20 MSTORE PUSH1 0x40 DUP3 KECCAK256 DUP2 DUP4 MSTORE PUSH1 0x4A PUSH1 0x20 MSTORE PUSH1 0x40 DUP4 KECCAK256 PUSH2 0xF5B PUSH1 0x1 PUSH1 0xFF PUSH1 0x4 DUP6 ADD SLOAD AND ISZERO ISZERO EQ PUSH2 0x2EEC JUMP JUMPDEST PUSH1 0x3 DUP3 ADD DUP4 DUP6 MSTORE DUP1 PUSH1 0x20 MSTORE PUSH2 0xF77 PUSH1 0xFF PUSH1 0x40 DUP8 KECCAK256 SLOAD AND ISZERO PUSH2 0x2F29 JUMP JUMPDEST PUSH1 0x3 DUP3 ADD SLOAD SWAP2 DUP3 ISZERO SWAP4 PUSH2 0xF8A DUP6 ISZERO PUSH2 0x2B12 JUMP JUMPDEST PUSH2 0xFAF DUP7 PUSH1 0x1 PUSH1 0x4 DUP6 ADD SWAP4 PUSH2 0xFA6 PUSH1 0x2 DUP7 SLOAD SWAP8 ADD SLOAD DUP8 LT PUSH2 0x2B53 JUMP JUMPDEST ADD SLOAD GT ISZERO PUSH2 0x2F75 JUMP JUMPDEST PUSH1 0x1 DUP3 ADD DUP1 SWAP3 GT PUSH2 0x126F JUMPI SSTORE DUP4 DUP6 MSTORE PUSH1 0x20 MSTORE PUSH1 0x40 DUP5 KECCAK256 PUSH1 0x1 PUSH1 0xFF NOT DUP3 SLOAD AND OR SWAP1 SSTORE DUP5 DUP5 MSTORE PUSH1 0x10 PUSH1 0x20 MSTORE PUSH1 0x40 DUP5 KECCAK256 SWAP4 PUSH1 0x1 DUP1 PUSH1 0xA0 SHL SUB DUP6 SLOAD AND SWAP3 DUP4 ISZERO PUSH2 0x123B JUMPI PUSH2 0x1208 JUMPI DUP6 DUP2 MSTORE PUSH1 0x11 PUSH1 0x20 MSTORE PUSH1 0x40 DUP2 KECCAK256 SWAP1 DUP1 PUSH2 0x100B DUP5 DUP5 SLOAD PUSH2 0x2B93 JUMP JUMPDEST DUP4 SSTORE PUSH2 0x11F4 JUMPI POP PUSH0 SWAP5 SWAP4 SWAP5 POP PUSH1 0xB DUP2 ADD PUSH2 0x1026 DUP4 DUP3 SLOAD PUSH2 0x2B93 JUMP JUMPDEST SWAP1 SSTORE SLOAD SWAP4 PUSH1 0xB DUP5 ADD SLOAD SWAP3 PUSH1 0x6 PUSH0 SWAP6 ADD SWAP6 JUMPDEST DUP7 SLOAD DUP7 LT ISZERO PUSH2 0x11E7 JUMPI PUSH2 0x1049 DUP7 PUSH2 0x29AB JUMP JUMPDEST SWAP1 SLOAD SWAP1 PUSH1 0x3 SHL SHR DUP9 PUSH0 MSTORE PUSH1 0xE PUSH1 0x20 MSTORE PUSH1 0x40 PUSH0 KECCAK256 DUP2 PUSH0 MSTORE PUSH1 0x20 MSTORE DUP6 PUSH1 0x40 PUSH0 KECCAK256 SWAP2 PUSH1 0x3 DUP4 ADD PUSH1 0xFF DUP2 SLOAD AND DUP1 ISZERO SWAP1 DUP2 DUP1 SWAP3 PUSH2 0x11D1 JUMPI JUMPDEST ISZERO PUSH2 0x10B9 JUMPI POP POP SWAP2 PUSH1 0xA PUSH2 0x10A2 DUP3 PUSH1 0x1 SWAP8 SWAP5 PUSH2 0x10B0 SWAP8 SWAP7 DUP10 PUSH1 0xFF NOT DUP3 SLOAD AND OR SWAP1 SSTORE PUSH2 0x3007 JUMP JUMPDEST DIV SWAP3 DUP4 PUSH1 0x2 DUP3 ADD SSTORE SSTORE PUSH2 0x2BA0 JUMP JUMPDEST SWAP6 JUMPDEST ADD SWAP5 PUSH2 0x1037 JUMP JUMPDEST SWAP2 POP SWAP3 POP DUP1 PUSH2 0x11BC JUMPI JUMPDEST ISZERO PUSH2 0x10E1 JUMPI POP POP PUSH1 0x1 SWAP2 PUSH1 0x2 PUSH2 0x10DB SWAP3 ADD SLOAD SWAP1 PUSH2 0x2BA0 JUMP JUMPDEST SWAP6 PUSH2 0x10B2 JUMP JUMPDEST SWAP3 SWAP8 SWAP3 DUP8 SWAP1 DUP3 PUSH2 0x11A4 JUMPI JUMPDEST POP POP PUSH2 0x10FB JUMPI POP PUSH1 0x1 SWAP1 PUSH2 0x10B2 JUMP JUMPDEST SWAP2 SWAP8 SWAP6 SWAP4 SWAP7 POP POP PUSH1 0x1 SWAP2 SWAP4 POP ADD SSTORE JUMPDEST PUSH1 0x1 SLOAD PUSH2 0x1123 SWAP1 DUP5 SWAP1 DUP7 SWAP1 PUSH1 0x1 PUSH1 0x1 PUSH1 0xA0 SHL SUB AND PUSH2 0x3E7F JUMP JUMPDEST PUSH1 0x40 MLOAD DUP4 DUP2 MSTORE PUSH0 PUSH1 0x20 DUP3 ADD MSTORE SWAP1 DUP3 DUP1 PUSH32 0x6AC5DC27FBF1276A5DB7FAAD992EA92A268D34B18F81922F747D9D3BEB5F9C55 SWAP7 PUSH0 MLOAD PUSH1 0x20 PUSH2 0x400B PUSH0 CODECOPY PUSH0 MLOAD SWAP1 PUSH0 MSTORE PUSH1 0x80 DUP7 PUSH1 0x9 PUSH1 0x40 PUSH2 0x119B SWAP10 ADD MSTORE TIMESTAMP PUSH1 0x60 DUP3 ADD MSTORE LOG4 PUSH1 0x40 MLOAD SWAP4 DUP5 SWAP4 TIMESTAMP SWAP3 DUP6 SWAP1 SWAP5 SWAP4 SWAP3 PUSH1 0x60 SWAP3 PUSH1 0x80 DUP4 ADD SWAP7 DUP4 MSTORE PUSH1 0x20 DUP4 ADD MSTORE PUSH1 0x40 DUP3 ADD MSTORE ADD MSTORE JUMP JUMPDEST SUB SWAP1 LOG1 PUSH1 0x1 PUSH0 SSTORE STOP JUMPDEST PUSH1 0xA SWAP3 POP SWAP1 PUSH2 0x11B2 SWAP2 PUSH2 0x3007 JUMP JUMPDEST DIV DUP8 LT DUP7 PUSH0 PUSH2 0x10EC JUMP JUMPDEST POP PUSH1 0xA PUSH2 0x11C9 DUP10 DUP4 PUSH2 0x3007 JUMP JUMPDEST DIV DUP5 GT PUSH2 0x10C3 JUMP JUMPDEST POP PUSH1 0xA PUSH2 0x11DE DUP7 DUP7 PUSH2 0x3007 JUMP JUMPDEST DIV DUP8 LT ISZERO PUSH2 0x107C JUMP JUMPDEST POP SWAP6 SWAP4 POP SWAP2 POP SWAP3 POP PUSH2 0x110A JUMP JUMPDEST PUSH4 0x4E487B71 PUSH1 0xE0 SHL DUP2 MSTORE PUSH1 0x21 PUSH1 0x4 MSTORE PUSH1 0x24 SWAP1 REVERT JUMPDEST PUSH1 0x40 MLOAD PUSH3 0x461BCD PUSH1 0xE5 SHL DUP2 MSTORE PUSH1 0x20 PUSH1 0x4 DUP3 ADD MSTORE PUSH1 0xB PUSH1 0x24 DUP3 ADD MSTORE PUSH11 0x16995C9BC8185B5BDD5B9D PUSH1 0xAA SHL PUSH1 0x44 DUP3 ADD MSTORE PUSH1 0x64 SWAP1 REVERT JUMPDEST PUSH1 0x40 MLOAD PUSH3 0x461BCD PUSH1 0xE5 SHL DUP2 MSTORE PUSH1 0x20 PUSH1 0x4 DUP3 ADD MSTORE PUSH1 0xC PUSH1 0x24 DUP3 ADD MSTORE PUSH12 0x24B73B30B634B2103AB9B2B9 PUSH1 0xA1 SHL PUSH1 0x44 DUP3 ADD MSTORE PUSH1 0x64 SWAP1 REVERT JUMPDEST PUSH4 0x4E487B71 PUSH1 0xE0 SHL DUP8 MSTORE PUSH1 0x11 PUSH1 0x4 MSTORE PUSH1 0x24 DUP8 REVERT JUMPDEST POP PUSH1 0x47 SLOAD DUP2 LT PUSH2 0xF25 JUMP JUMPDEST POP DUP1 DUP3 MSTORE PUSH1 0x4A PUSH1 0x20 MSTORE PUSH1 0x1 PUSH1 0xFF PUSH1 0x8 PUSH1 0x40 DUP6 KECCAK256 ADD SLOAD AND ISZERO ISZERO EQ PUSH2 0xF1F JUMP JUMPDEST POP DUP1 ISZERO ISZERO PUSH2 0xF19 JUMP JUMPDEST PUSH1 0x40 MLOAD PUSH3 0x461BCD PUSH1 0xE5 SHL DUP2 MSTORE PUSH1 0x20 PUSH1 0x4 DUP3 ADD MSTORE PUSH1 0xF PUSH1 0x24 DUP3 ADD MSTORE PUSH15 0x125B9D985B1A59081858D8DBDD5B9D PUSH1 0x8A SHL PUSH1 0x44 DUP3 ADD MSTORE PUSH1 0x64 SWAP1 REVERT JUMPDEST POP CALLVALUE PUSH2 0x3AB JUMPI PUSH1 0x20 CALLDATASIZE PUSH1 0x3 NOT ADD SLT PUSH2 0x3AB JUMPI PUSH1 0x4 CALLDATALOAD PUSH1 0x8 DUP2 LT ISZERO PUSH2 0xBAE JUMPI PUSH1 0x20 SWAP2 POP PUSH1 0x27 ADD SLOAD PUSH1 0x40 MLOAD SWAP1 DUP2 MSTORE RETURN JUMPDEST POP CALLVALUE PUSH2 0x3AB JUMPI PUSH1 0x40 SWAP1 PUSH2 0x132C CALLDATASIZE PUSH2 0x2955 JUMP JUMPDEST SWAP1 DUP3 MSTORE PUSH1 0x35 PUSH1 0x20 MSTORE DUP3 DUP3 KECCAK256 SWAP1 DUP3 MSTORE PUSH1 0x20 MSTORE KECCAK256 DUP1 SLOAD PUSH2 0xB60 PUSH1 0x1 DUP4 ADD SLOAD SWAP3 PUSH1 0x2 DUP2 ADD SLOAD SWAP1 PUSH1 0x4 PUSH1 0x3 DUP3 ADD SLOAD SWAP2 ADD SLOAD SWAP2 PUSH1 0x40 MLOAD SWAP6 DUP7 SWAP6 DUP7 SWAP2 SWAP3 PUSH1 0x80 SWAP4 SWAP7 SWAP6 SWAP5 SWAP2 SWAP7 PUSH1 0xA0 DUP5 ADD SWAP8 DUP5 MSTORE PUSH1 0x20 DUP5 ADD MSTORE PUSH1 0x40 DUP4 ADD MSTORE PUSH1 0x60 DUP3 ADD MSTORE ADD MSTORE JUMP JUMPDEST POP CALLVALUE PUSH2 0x3AB JUMPI PUSH2 0x1394 CALLDATASIZE PUSH2 0x2A1E JUMP JUMPDEST SWAP3 SWAP2 DUP3 MSTORE PUSH1 0x31 PUSH1 0x20 MSTORE PUSH1 0x40 DUP3 KECCAK256 SWAP1 DUP3 MSTORE PUSH1 0x20 MSTORE PUSH1 0x40 DUP2 KECCAK256 SWAP1 DUP2 SLOAD DUP4 LT ISZERO PUSH2 0x3AB JUMPI PUSH1 0x20 PUSH2 0x3E0 DUP5 DUP5 PUSH2 0x2A09 JUMP JUMPDEST POP CALLVALUE PUSH2 0x3AB JUMPI PUSH2 0x13D0 CALLDATASIZE PUSH2 0x2A1E JUMP JUMPDEST SWAP3 SWAP2 DUP3 MSTORE PUSH1 0x32 PUSH1 0x20 MSTORE PUSH1 0x40 DUP3 KECCAK256 SWAP1 DUP3 MSTORE PUSH1 0x20 MSTORE PUSH1 0x40 DUP2 KECCAK256 SWAP1 DUP2 SLOAD DUP4 LT ISZERO PUSH2 0x3AB JUMPI PUSH1 0x20 PUSH2 0x3E0 DUP5 DUP5 PUSH2 0x2A09 JUMP JUMPDEST POP CALLVALUE PUSH2 0x3AB JUMPI PUSH1 0x40 PUSH1 0x20 SWAP2 PUSH2 0x1411 CALLDATASIZE PUSH2 0x2955 JUMP JUMPDEST SWAP1 DUP3 MSTORE PUSH1 0xB DUP5 MSTORE DUP3 DUP3 KECCAK256 SWAP1 DUP3 MSTORE DUP4 MSTORE KECCAK256 SLOAD PUSH1 0x40 MLOAD SWAP1 DUP2 MSTORE RETURN JUMPDEST POP CALLVALUE PUSH2 0x3AB JUMPI PUSH1 0x20 CALLDATASIZE PUSH1 0x3 NOT ADD SLT PUSH2 0x3AB JUMPI PUSH1 0x40 PUSH1 0x20 SWAP2 PUSH1 0x4 CALLDATALOAD DUP2 MSTORE PUSH1 0x14 DUP4 MSTORE KECCAK256 SLOAD PUSH1 0x40 MLOAD SWAP1 DUP2 MSTORE RETURN JUMPDEST POP CALLVALUE PUSH2 0x3AB JUMPI PUSH1 0x20 PUSH2 0x146E PUSH2 0x1468 CALLDATASIZE PUSH2 0x2955 JUMP JUMPDEST SWAP1 PUSH2 0x3091 JUMP JUMPDEST PUSH1 0x40 MLOAD SWAP1 ISZERO ISZERO DUP2 MSTORE RETURN JUMPDEST POP CALLVALUE PUSH2 0x3AB JUMPI DUP1 PUSH1 0x3 NOT CALLDATASIZE ADD SLT PUSH2 0x3AB JUMPI PUSH1 0x2 SLOAD PUSH1 0x40 MLOAD PUSH1 0x1 PUSH1 0x1 PUSH1 0xA0 SHL SUB SWAP1 SWAP2 AND DUP2 MSTORE PUSH1 0x20 SWAP1 RETURN JUMPDEST POP CALLVALUE PUSH2 0x3AB JUMPI DUP1 PUSH1 0x3 NOT CALLDATASIZE ADD SLT PUSH2 0x3AB JUMPI PUSH1 0x20 PUSH1 0x9 SLOAD PUSH1 0x40 MLOAD SWAP1 DUP2 MSTORE RETURN JUMPDEST POP CALLVALUE PUSH2 0x3AB JUMPI DUP1 PUSH1 0x3 NOT CALLDATASIZE ADD SLT PUSH2 0x3AB JUMPI PUSH1 0x20 PUSH1 0x40 MLOAD PUSH3 0x93A80 DUP2 MSTORE RETURN JUMPDEST POP CALLVALUE PUSH2 0x3AB JUMPI PUSH2 0x14EC CALLDATASIZE PUSH2 0x2955 JUMP JUMPDEST SWAP2 SWAP1 DUP2 MSTORE PUSH1 0x12 PUSH1 0x20 MSTORE PUSH1 0x40 DUP2 KECCAK256 DUP1 SLOAD DUP4 LT ISZERO PUSH2 0xBAE JUMPI DUP2 PUSH1 0x20 SWAP2 PUSH1 0x5 SWAP4 POP DUP2 MSTORE KECCAK256 SWAP2 MUL ADD DUP1 SLOAD PUSH2 0xB60 PUSH1 0x1 DUP4 ADD SLOAD SWAP3 PUSH1 0x2 DUP2 ADD SLOAD SWAP1 PUSH1 0x4 PUSH1 0x3 DUP3 ADD SLOAD SWAP2 ADD SLOAD SWAP2 PUSH1 0x40 MLOAD SWAP6 DUP7 SWAP6 DUP7 SWAP2 SWAP3 PUSH1 0x80 SWAP4 SWAP7 SWAP6 SWAP5 SWAP2 SWAP7 PUSH1 0xA0 DUP5 ADD SWAP8 DUP5 MSTORE PUSH1 0x20 DUP5 ADD MSTORE PUSH1 0x40 DUP4 ADD MSTORE PUSH1 0x60 DUP3 ADD MSTORE ADD MSTORE JUMP JUMPDEST POP CALLVALUE PUSH2 0x3AB JUMPI DUP1 PUSH1 0x3 NOT CALLDATASIZE ADD SLT PUSH2 0x3AB JUMPI PUSH1 0x20 PUSH1 0x40 MLOAD PUSH4 0x2514300 DUP2 MSTORE RETURN JUMPDEST POP CALLVALUE PUSH2 0x3AB JUMPI PUSH1 0x20 CALLDATASIZE PUSH1 0x3 NOT ADD SLT PUSH2 0x3AB JUMPI PUSH1 0x40 SWAP1 PUSH1 0x4 CALLDATALOAD DUP2 MSTORE PUSH1 0x43 PUSH1 0x20 MSTORE KECCAK256 DUP1 SLOAD PUSH2 0xB60 PUSH1 0x1 DUP4 ADD SLOAD SWAP3 PUSH1 0x2 DUP2 ADD SLOAD SWAP1 PUSH1 0x3 DUP2 ADD SLOAD PUSH1 0x4 DUP3 ADD SLOAD PUSH1 0x5 DUP4 ADD SLOAD SWAP1 PUSH1 0x6 DUP5 ADD SLOAD SWAP3 PUSH1 0xFF PUSH1 0x8 PUSH1 0x7 DUP8 ADD SLOAD SWAP7 ADD SLOAD AND SWAP6 PUSH1 0x40 MLOAD SWAP10 DUP11 SWAP10 DUP11 PUSH2 0x296B JUMP JUMPDEST POP CALLVALUE PUSH2 0x3AB JUMPI PUSH2 0x15E6 CALLDATASIZE PUSH2 0x2955 JUMP JUMPDEST SWAP2 SWAP1 DUP2 MSTORE PUSH1 0x15 PUSH1 0x20 MSTORE PUSH1 0x40 DUP2 KECCAK256 SWAP1 DUP2 SLOAD DUP4 LT ISZERO PUSH2 0x3AB JUMPI PUSH1 0x20 PUSH2 0x3E0 DUP5 DUP5 PUSH2 0x2A09 JUMP JUMPDEST POP CALLVALUE PUSH2 0x3AB JUMPI DUP1 PUSH1 0x3 NOT CALLDATASIZE ADD SLT PUSH2 0x3AB JUMPI PUSH1 0x20 PUSH1 0x49 SLOAD PUSH1 0x40 MLOAD SWAP1 DUP2 MSTORE RETURN JUMPDEST POP CALLVALUE PUSH2 0x3AB JUMPI PUSH1 0x40 SWAP1 PUSH2 0x1639 CALLDATASIZE PUSH2 0x2955 JUMP JUMPDEST SWAP1 DUP3 MSTORE PUSH1 0xE PUSH1 0x20 MSTORE DUP3 DUP3 KECCAK256 SWAP1 DUP3 MSTORE PUSH1 0x20 MSTORE KECCAK256 DUP1 SLOAD PUSH2 0xB60 PUSH1 0x1 DUP4 ADD SLOAD SWAP3 PUSH1 0xFF PUSH1 0x3 PUSH1 0x2 DUP4 ADD SLOAD SWAP3 ADD SLOAD AND SWAP1 PUSH1 0x40 MLOAD SWAP5 DUP6 SWAP5 DUP6 SWAP3 PUSH1 0x60 SWAP3 SWAP6 SWAP5 SWAP2 SWAP6 PUSH1 0x80 DUP6 ADD SWAP7 DUP6 MSTORE PUSH1 0x20 DUP6 ADD MSTORE PUSH1 0x40 DUP5 ADD MSTORE ISZERO ISZERO SWAP2 ADD MSTORE JUMP JUMPDEST POP CALLVALUE PUSH2 0x3AB JUMPI PUSH2 0x169A CALLDATASIZE PUSH2 0x2A1E JUMP JUMPDEST SWAP3 SWAP2 DUP3 MSTORE PUSH1 0x13 PUSH1 0x20 MSTORE PUSH1 0x40 DUP3 KECCAK256 SWAP1 DUP3 MSTORE PUSH1 0x20 MSTORE PUSH1 0x40 DUP2 KECCAK256 SWAP1 DUP2 SLOAD DUP4 LT ISZERO PUSH2 0x3AB JUMPI PUSH1 0x20 PUSH2 0x3E0 DUP5 DUP5 PUSH2 0x2A09 JUMP JUMPDEST PUSH2 0x2A38 JUMP JUMPDEST POP CALLVALUE PUSH2 0x3AB JUMPI PUSH1 0x40 PUSH2 0x16E6 PUSH2 0x16E0 CALLDATASIZE PUSH2 0x2955 JUMP JUMPDEST SWAP1 PUSH2 0x301A JUMP JUMPDEST DUP3 MLOAD SWAP2 DUP3 MSTORE PUSH1 0x20 DUP3 ADD MSTORE RETURN JUMPDEST POP CALLVALUE PUSH2 0x3AB JUMPI PUSH2 0x1701 CALLDATASIZE PUSH2 0x2A1E JUMP JUMPDEST SWAP3 SWAP2 DUP3 MSTORE PUSH1 0x3F PUSH1 0x20 MSTORE PUSH1 0x40 DUP3 KECCAK256 SWAP1 DUP3 MSTORE PUSH1 0x20 MSTORE PUSH1 0x40 DUP2 KECCAK256 SWAP1 DUP2 SLOAD DUP4 LT ISZERO PUSH2 0x3AB JUMPI PUSH1 0x20 PUSH2 0x3E0 DUP5 DUP5 PUSH2 0x2A09 JUMP JUMPDEST POP CALLVALUE PUSH2 0x3AB JUMPI PUSH2 0x173D CALLDATASIZE PUSH2 0x2955 JUMP JUMPDEST SWAP2 SWAP1 DUP2 MSTORE PUSH1 0x4D PUSH1 0x20 MSTORE PUSH1 0x40 DUP2 KECCAK256 SWAP1 DUP2 SLOAD DUP4 LT ISZERO PUSH2 0x3AB JUMPI PUSH1 0x20 PUSH2 0x3E0 DUP5 DUP5 PUSH2 0x2A09 JUMP JUMPDEST POP CALLVALUE PUSH2 0x3AB JUMPI DUP1 PUSH1 0x3 NOT CALLDATASIZE ADD SLT PUSH2 0x3AB JUMPI PUSH1 0x20 PUSH1 0x47 SLOAD PUSH1 0x40 MLOAD SWAP1 DUP2 MSTORE RETURN JUMPDEST POP CALLVALUE PUSH2 0x3AB JUMPI PUSH1 0x20 CALLDATASIZE PUSH1 0x3 NOT ADD SLT PUSH2 0x3AB JUMPI PUSH1 0x40 PUSH2 0x180 SWAP2 PUSH1 0x4 CALLDATALOAD DUP2 MSTORE PUSH1 0x11 PUSH1 0x20 MSTORE KECCAK256 DUP1 SLOAD SWAP1 PUSH1 0x1 DUP2 ADD SLOAD SWAP1 PUSH1 0x2 DUP2 ADD SLOAD PUSH1 0x3 DUP3 ADD SLOAD PUSH1 0x4 DUP4 ADD SLOAD PUSH1 0x5 DUP5 ADD SLOAD PUSH1 0x6 DUP6 ADD SLOAD SWAP1 PUSH1 0x7 DUP7 ADD SLOAD SWAP3 PUSH1 0x8 DUP8 ADD SLOAD SWAP5 PUSH1 0x9 DUP9 ADD SLOAD SWAP7 PUSH1 0xB PUSH1 0xA DUP11 ADD SLOAD SWAP10 ADD SLOAD SWAP10 PUSH1 0x40 MLOAD SWAP12 DUP13 MSTORE PUSH1 0x20 DUP13 ADD MSTORE PUSH1 0x40 DUP12 ADD MSTORE PUSH1 0x60 DUP11 ADD MSTORE PUSH1 0x80 DUP10 ADD MSTORE PUSH1 0xA0 DUP9 ADD MSTORE PUSH1 0xC0 DUP8 ADD MSTORE PUSH1 0xE0 DUP7 ADD MSTORE PUSH2 0x100 DUP6 ADD MSTORE PUSH2 0x120 DUP5 ADD MSTORE PUSH2 0x140 DUP4 ADD MSTORE PUSH2 0x160 DUP3 ADD MSTORE RETURN JUMPDEST POP CALLVALUE PUSH2 0x3AB JUMPI PUSH1 0x20 CALLDATASIZE PUSH1 0x3 NOT ADD SLT PUSH2 0x3AB JUMPI PUSH1 0x40 PUSH1 0x20 SWAP2 PUSH1 0x4 CALLDATALOAD DUP2 MSTORE PUSH1 0xA DUP4 MSTORE KECCAK256 SLOAD PUSH1 0x40 MLOAD SWAP1 DUP2 MSTORE RETURN JUMPDEST POP CALLVALUE PUSH2 0x3AB JUMPI PUSH1 0x20 CALLDATASIZE PUSH1 0x3 NOT ADD SLT PUSH2 0x3AB JUMPI PUSH1 0x4 CALLDATALOAD DUP1 DUP3 MSTORE PUSH1 0x10 PUSH1 0x20 MSTORE PUSH1 0x40 DUP3 KECCAK256 PUSH2 0x1883 PUSH1 0x1 DUP1 PUSH1 0xA0 SHL SUB DUP3 SLOAD AND CALLER EQ PUSH2 0x2A6E JUMP JUMPDEST PUSH1 0x6 DUP2 ADD DUP1 SLOAD PUSH1 0xF DUP2 LT ISZERO PUSH2 0x1CD0 JUMPI PUSH2 0x189B DUP2 PUSH2 0x29AB JUMP JUMPDEST SWAP1 SLOAD PUSH1 0x1 SLOAD PUSH1 0x40 MLOAD PUSH4 0x23B872DD PUSH1 0xE0 SHL DUP2 MSTORE CALLER PUSH1 0x4 DUP3 ADD MSTORE ADDRESS PUSH1 0x24 DUP3 ADD MSTORE PUSH1 0x3 SWAP4 SWAP1 SWAP4 SHL SWAP2 SWAP1 SWAP2 SHR PUSH1 0x44 DUP4 ADD DUP2 SWAP1 MSTORE SWAP4 SWAP2 SWAP1 PUSH1 0x20 SWAP1 DUP3 SWAP1 PUSH1 0x64 SWAP1 DUP3 SWAP1 DUP12 SWAP1 PUSH1 0x1 PUSH1 0x1 PUSH1 0xA0 SHL SUB AND GAS CALL DUP1 ISZERO PUSH2 0x1CC5 JUMPI PUSH2 0x1CA8 JUMPI JUMPDEST POP DUP1 SLOAD SWAP1 PUSH1 0x1 DUP3 ADD DUP1 SWAP3 GT PUSH2 0x126F JUMPI SSTORE PUSH1 0xA DUP4 ADD PUSH2 0x190E DUP4 DUP3 SLOAD PUSH2 0x2B93 JUMP JUMPDEST SWAP1 SSTORE PUSH1 0x5 DUP3 MUL SWAP3 DUP3 ISZERO SWAP4 DUP4 DUP2 DIV PUSH1 0x5 EQ DUP6 OR ISZERO PUSH2 0x126F JUMPI PUSH1 0x64 SWAP1 DIV SWAP4 PUSH1 0x19 DUP5 MUL DUP5 DUP2 DIV PUSH1 0x19 EQ DUP3 OR ISZERO PUSH2 0x800 JUMPI DUP5 PUSH1 0x64 PUSH2 0x1948 SWAP3 DIV PUSH2 0x3496 JUMP JUMPDEST DUP4 DUP8 MSTORE PUSH1 0xA PUSH1 0x20 MSTORE PUSH1 0x40 DUP8 KECCAK256 SLOAD DUP5 DUP9 MSTORE PUSH1 0xB PUSH1 0x20 MSTORE PUSH1 0x40 DUP9 KECCAK256 DUP8 DUP10 MSTORE PUSH1 0x20 MSTORE PUSH1 0x40 DUP9 KECCAK256 SSTORE PUSH2 0x1975 DUP6 PUSH2 0x33DA JUMP JUMPDEST DUP4 DUP8 MSTORE PUSH1 0xC PUSH1 0x20 MSTORE PUSH1 0x40 DUP8 KECCAK256 DUP1 SLOAD SWAP1 PUSH1 0x1 DUP3 ADD DUP1 SWAP3 GT PUSH2 0x7D8 JUMPI SSTORE PUSH1 0x14 DUP5 MUL DUP5 DUP2 DIV PUSH1 0x14 EQ DUP3 OR ISZERO PUSH2 0x800 JUMPI PUSH1 0x64 SWAP1 DIV SWAP5 PUSH1 0x4 DUP4 ADD SWAP4 DUP5 SLOAD SWAP7 PUSH1 0x1 DUP3 ADD SWAP8 DUP9 DUP4 GT PUSH2 0x97E JUMPI SWAP2 DUP9 DUP3 PUSH2 0x19D0 DUP3 PUSH2 0x19EB SWAP6 DUP15 PUSH2 0x19F3 SWAP10 SWAP9 PUSH2 0x3537 JUMP JUMPDEST DUP12 DUP14 PUSH1 0x5 DUP11 ADD PUSH2 0x19E3 DUP6 DUP6 DUP6 DUP5 SLOAD PUSH2 0x3576 JUMP JUMPDEST SLOAD SWAP1 POP PUSH2 0x3805 JUMP JUMPDEST PUSH1 0x3B SLOAD PUSH2 0x2B93 JUMP JUMPDEST PUSH1 0x3B SSTORE PUSH1 0x23 DUP5 MUL DUP5 DUP2 DIV PUSH1 0x23 EQ DUP3 OR ISZERO PUSH2 0x800 JUMPI PUSH2 0x3E8 PUSH2 0x1A17 SWAP2 DIV PUSH1 0x42 SLOAD PUSH2 0x2B93 JUMP JUMPDEST PUSH1 0x42 SSTORE PUSH1 0xF DUP5 MUL SWAP1 DUP5 DUP3 DIV PUSH1 0xF EQ OR ISZERO PUSH2 0x126F JUMPI PUSH2 0x3E8 PUSH2 0x1A3B SWAP2 DIV PUSH1 0x49 SLOAD PUSH2 0x2B93 JUMP JUMPDEST PUSH1 0x49 SSTORE PUSH1 0xA DUP5 EQ PUSH2 0x1BBB JUMPI JUMPDEST PUSH1 0xF DUP5 EQ PUSH2 0x1AC5 JUMPI JUMPDEST POP POP PUSH1 0x40 MLOAD SWAP2 DUP3 MSTORE PUSH1 0x20 DUP3 ADD MSTORE PUSH1 0x80 PUSH1 0x40 DUP3 ADD MSTORE PUSH32 0x26ADB22CEC823EF144935E9FBEF1B6B4A3A29DACBE5444D59292FA2620F3D377 PUSH2 0x1AB5 PUSH1 0x80 DUP4 ADD PUSH1 0x40 SWAP1 PUSH1 0x15 DUP2 MSTORE PUSH21 0x53706F6E736F727368697020537472756374757265 PUSH1 0x58 SHL PUSH1 0x20 DUP3 ADD MSTORE ADD SWAP1 JUMP JUMPDEST SWAP2 TIMESTAMP PUSH1 0x60 DUP3 ADD MSTORE DUP1 CALLER SWAP4 SUB SWAP1 LOG3 DUP1 RETURN JUMPDEST PUSH1 0x13 TIMESTAMP SWAP2 ADD SSTORE DUP4 DUP6 MSTORE PUSH1 0x10 PUSH1 0x20 MSTORE PUSH1 0x40 DUP6 KECCAK256 SWAP1 SLOAD DUP6 MSTORE PUSH1 0x10 PUSH1 0x20 MSTORE PUSH1 0x40 DUP6 KECCAK256 PUSH1 0x15 DUP2 ADD DUP1 SLOAD SWAP1 PUSH1 0x1 DUP3 ADD DUP1 SWAP3 GT PUSH2 0x800 JUMPI SWAP1 DUP1 PUSH1 0x2 SWAP3 SSTORE LT ISZERO SWAP1 DUP2 PUSH2 0x1B9D JUMPI JUMPDEST DUP2 PUSH2 0x1B8D JUMPI JUMPDEST POP PUSH2 0x1B77 JUMPI JUMPDEST PUSH1 0x2 PUSH1 0x15 DUP3 ADD SLOAD LT ISZERO SWAP1 DUP2 PUSH2 0x1B54 JUMPI JUMPDEST DUP2 PUSH2 0x1B45 JUMPI JUMPDEST POP PUSH2 0x1B34 JUMPI JUMPDEST PUSH0 DUP1 PUSH2 0x1A50 JUMP JUMPDEST PUSH2 0x1B40 PUSH1 0x47 SLOAD DUP5 PUSH2 0x3D45 JUMP JUMPDEST PUSH2 0x1B2D JUMP JUMPDEST PUSH1 0xF SWAP2 POP PUSH1 0x6 ADD SLOAD EQ PUSH0 PUSH2 0x1B27 JUMP JUMPDEST SWAP1 POP PUSH1 0x13 DUP2 ADD SLOAD PUSH1 0x11 DUP3 ADD SLOAD SWAP1 PUSH4 0x2514300 DUP3 ADD DUP1 SWAP3 GT PUSH2 0x126F JUMPI GT ISZERO SWAP1 PUSH2 0x1B21 JUMP JUMPDEST PUSH2 0x1B88 PUSH1 0x4 DUP3 ADD SLOAD PUSH1 0x47 SLOAD SWAP1 PUSH2 0x3D45 JUMP JUMPDEST PUSH2 0x1B11 JUMP JUMPDEST PUSH1 0xF SWAP2 POP PUSH1 0x6 ADD SLOAD LT ISZERO PUSH0 PUSH2 0x1B0B JUMP JUMPDEST SWAP1 POP PUSH1 0x11 DUP2 ADD SLOAD PUSH4 0x2514300 DUP2 ADD DUP1 SWAP2 GT PUSH2 0x126F JUMPI TIMESTAMP GT ISZERO SWAP1 PUSH2 0x1B05 JUMP JUMPDEST TIMESTAMP PUSH1 0x12 DUP3 ADD SSTORE DUP5 DUP7 MSTORE PUSH1 0x10 PUSH1 0x20 MSTORE PUSH1 0x40 DUP7 KECCAK256 DUP3 SLOAD DUP8 MSTORE PUSH1 0x10 PUSH1 0x20 MSTORE PUSH1 0x40 DUP8 KECCAK256 PUSH1 0x14 DUP2 ADD DUP1 SLOAD SWAP1 PUSH1 0x1 DUP3 ADD DUP1 SWAP3 GT PUSH2 0x7EC JUMPI SWAP1 DUP1 PUSH1 0x5 SWAP3 SSTORE LT ISZERO SWAP1 DUP2 PUSH2 0x1C8B JUMPI JUMPDEST DUP2 PUSH2 0x1C7B JUMPI JUMPDEST POP PUSH2 0x1C65 JUMPI JUMPDEST PUSH1 0x5 PUSH1 0x14 DUP3 ADD SLOAD LT ISZERO SWAP1 DUP2 PUSH2 0x1C43 JUMPI JUMPDEST DUP2 PUSH2 0x1C34 JUMPI JUMPDEST POP ISZERO PUSH2 0x1A47 JUMPI PUSH2 0x1C2F PUSH1 0x40 SLOAD DUP7 PUSH2 0x3BAF JUMP JUMPDEST PUSH2 0x1A47 JUMP JUMPDEST PUSH1 0xA SWAP2 POP PUSH1 0x6 ADD SLOAD EQ PUSH0 PUSH2 0x1C1D JUMP JUMPDEST SWAP1 POP PUSH1 0x12 DUP2 ADD SLOAD PUSH1 0x11 DUP3 ADD SLOAD SWAP1 PUSH3 0x83D600 DUP3 ADD DUP1 SWAP3 GT PUSH2 0x7D8 JUMPI GT ISZERO SWAP1 PUSH2 0x1C17 JUMP JUMPDEST PUSH2 0x1C76 PUSH1 0x4 DUP3 ADD SLOAD PUSH1 0x40 SLOAD SWAP1 PUSH2 0x3BAF JUMP JUMPDEST PUSH2 0x1C07 JUMP JUMPDEST PUSH1 0xA SWAP2 POP PUSH1 0x6 ADD SLOAD LT ISZERO PUSH0 PUSH2 0x1C01 JUMP JUMPDEST SWAP1 POP PUSH1 0x11 DUP2 ADD SLOAD PUSH3 0x83D600 DUP2 ADD DUP1 SWAP2 GT PUSH2 0x7D8 JUMPI TIMESTAMP GT ISZERO SWAP1 PUSH2 0x1BFB JUMP JUMPDEST PUSH2 0x1CC0 SWAP1 PUSH1 0x20 RETURNDATASIZE PUSH1 0x20 GT PUSH2 0x9F4 JUMPI PUSH2 0x9E7 DUP2 DUP4 PUSH2 0x2FB9 JUMP JUMPDEST PUSH2 0x18EF JUMP JUMPDEST PUSH1 0x40 MLOAD RETURNDATASIZE DUP10 DUP3 RETURNDATACOPY RETURNDATASIZE SWAP1 REVERT JUMPDEST PUSH1 0x40 MLOAD PUSH3 0x461BCD PUSH1 0xE5 SHL DUP2 MSTORE PUSH1 0x20 PUSH1 0x4 DUP3 ADD MSTORE PUSH1 0x14 PUSH1 0x24 DUP3 ADD MSTORE PUSH20 0x105B1C9958591E48185D081B585E081B195D995B PUSH1 0x62 SHL PUSH1 0x44 DUP3 ADD MSTORE PUSH1 0x64 SWAP1 REVERT JUMPDEST POP CALLVALUE PUSH2 0x3AB JUMPI PUSH1 0x20 CALLDATASIZE PUSH1 0x3 NOT ADD SLT PUSH2 0x3AB JUMPI PUSH1 0x40 SWAP1 PUSH1 0x4 CALLDATALOAD DUP2 MSTORE PUSH1 0x45 PUSH1 0x20 MSTORE KECCAK256 DUP1 SLOAD PUSH2 0xB60 PUSH1 0x1 DUP4 ADD SLOAD SWAP3 PUSH1 0xFF PUSH1 0x4 PUSH1 0x2 DUP4 ADD SLOAD SWAP3 ADD SLOAD AND SWAP1 PUSH1 0x40 MLOAD SWAP5 DUP6 SWAP5 DUP6 SWAP3 PUSH1 0x60 SWAP3 SWAP6 SWAP5 SWAP2 SWAP6 PUSH1 0x80 DUP6 ADD SWAP7 DUP6 MSTORE PUSH1 0x20 DUP6 ADD MSTORE PUSH1 0x40 DUP5 ADD MSTORE ISZERO ISZERO SWAP2 ADD MSTORE JUMP JUMPDEST POP CALLVALUE PUSH2 0x3AB JUMPI DUP1 PUSH1 0x3 NOT CALLDATASIZE ADD SLT PUSH2 0x3AB JUMPI PUSH1 0x20 PUSH1 0x40 MLOAD PUSH3 0x2A300 DUP2 MSTORE RETURN JUMPDEST POP CALLVALUE PUSH2 0x3AB JUMPI PUSH2 0x1D99 CALLDATASIZE PUSH2 0x2955 JUMP JUMPDEST PUSH2 0x1DA4 SWAP3 SWAP2 SWAP3 PUSH2 0x316E JUMP JUMPDEST DUP3 DUP3 MSTORE PUSH1 0x10 PUSH1 0x20 MSTORE PUSH2 0x1DC3 PUSH1 0x1 DUP1 PUSH1 0xA0 SHL SUB PUSH1 0x40 DUP5 KECCAK256 SLOAD AND CALLER EQ PUSH2 0x2A6E JUMP JUMPDEST DUP3 ISZERO ISZERO DUP1 PUSH2 0x20B0 JUMPI JUMPDEST DUP1 PUSH2 0x2092 JUMPI JUMPDEST DUP1 PUSH2 0x2087 JUMPI JUMPDEST PUSH2 0x1DE1 SWAP1 PUSH2 0x2AAD JUMP JUMPDEST DUP3 DUP3 MSTORE PUSH1 0x45 PUSH1 0x20 MSTORE PUSH1 0x40 DUP3 KECCAK256 DUP2 DUP4 MSTORE PUSH1 0x43 PUSH1 0x20 MSTORE PUSH1 0x40 DUP4 KECCAK256 PUSH2 0x1E0E PUSH1 0x1 PUSH1 0xFF PUSH1 0x4 DUP6 ADD SLOAD AND ISZERO ISZERO EQ PUSH2 0x2EEC JUMP JUMPDEST PUSH1 0x3 DUP3 ADD DUP4 DUP6 MSTORE DUP1 PUSH1 0x20 MSTORE PUSH2 0x1E2A PUSH1 0xFF PUSH1 0x40 DUP8 KECCAK256 SLOAD AND ISZERO PUSH2 0x2F29 JUMP JUMPDEST PUSH1 0x3 DUP3 ADD SLOAD SWAP2 DUP3 ISZERO SWAP4 PUSH2 0x1E3D DUP6 ISZERO PUSH2 0x2B12 JUMP JUMPDEST PUSH2 0x1E59 DUP7 PUSH1 0x1 PUSH1 0x4 DUP6 ADD SWAP4 PUSH2 0xFA6 PUSH1 0x2 DUP7 SLOAD SWAP8 ADD SLOAD DUP8 LT PUSH2 0x2B53 JUMP JUMPDEST PUSH1 0x1 DUP3 ADD DUP1 SWAP3 GT PUSH2 0x126F JUMPI SSTORE DUP4 DUP6 MSTORE PUSH1 0x20 MSTORE PUSH1 0x40 DUP5 KECCAK256 PUSH1 0x1 PUSH1 0xFF NOT DUP3 SLOAD AND OR SWAP1 SSTORE DUP5 DUP5 MSTORE PUSH1 0x10 PUSH1 0x20 MSTORE PUSH1 0x40 DUP5 KECCAK256 SWAP4 PUSH1 0x1 DUP1 PUSH1 0xA0 SHL SUB DUP6 SLOAD AND SWAP3 DUP4 ISZERO PUSH2 0x123B JUMPI PUSH2 0x1208 JUMPI DUP6 DUP2 MSTORE PUSH1 0x11 PUSH1 0x20 MSTORE PUSH1 0x40 DUP2 KECCAK256 SWAP1 DUP1 PUSH2 0x1EB5 DUP5 DUP5 SLOAD PUSH2 0x2B93 JUMP JUMPDEST DUP4 SSTORE PUSH2 0x11F4 JUMPI POP PUSH0 SWAP5 SWAP4 SWAP5 POP PUSH1 0xA DUP2 ADD PUSH2 0x1ED0 DUP4 DUP3 SLOAD PUSH2 0x2B93 JUMP JUMPDEST SWAP1 SSTORE SLOAD SWAP4 PUSH1 0xB DUP5 ADD SLOAD SWAP3 PUSH1 0x6 PUSH0 SWAP6 ADD SWAP6 JUMPDEST DUP7 SLOAD DUP7 LT ISZERO PUSH2 0x207A JUMPI PUSH2 0x1EF3 DUP7 PUSH2 0x29AB JUMP JUMPDEST SWAP1 SLOAD SWAP1 PUSH1 0x3 SHL SHR DUP9 PUSH0 MSTORE PUSH1 0xE PUSH1 0x20 MSTORE PUSH1 0x40 PUSH0 KECCAK256 DUP2 PUSH0 MSTORE PUSH1 0x20 MSTORE DUP6 PUSH1 0x40 PUSH0 KECCAK256 SWAP2 PUSH1 0x3 DUP4 ADD PUSH1 0xFF DUP2 SLOAD AND DUP1 ISZERO SWAP1 DUP2 DUP1 SWAP3 PUSH2 0x2064 JUMPI JUMPDEST ISZERO PUSH2 0x1F55 JUMPI POP POP SWAP2 PUSH1 0xA PUSH2 0x10A2 DUP3 PUSH1 0x1 SWAP8 SWAP5 PUSH2 0x1F4C SWAP8 SWAP7 DUP10 PUSH1 0xFF NOT DUP3 SLOAD AND OR SWAP1 SSTORE PUSH2 0x3007 JUMP JUMPDEST SWAP6 JUMPDEST ADD SWAP5 PUSH2 0x1EE1 JUMP JUMPDEST SWAP2 POP SWAP3 POP DUP1 PUSH2 0x204F JUMPI JUMPDEST ISZERO PUSH2 0x1F7D JUMPI POP POP PUSH1 0x1 SWAP2 PUSH1 0x2 PUSH2 0x1F77 SWAP3 ADD SLOAD SWAP1 PUSH2 0x2BA0 JUMP JUMPDEST SWAP6 PUSH2 0x1F4E JUMP JUMPDEST SWAP3 SWAP8 SWAP3 DUP8 SWAP1 DUP3 PUSH2 0x2037 JUMPI JUMPDEST POP POP PUSH2 0x1F97 JUMPI POP PUSH1 0x1 SWAP1 PUSH2 0x1F4E JUMP JUMPDEST SWAP2 SWAP8 SWAP6 SWAP4 SWAP7 POP POP PUSH1 0x1 SWAP2 SWAP4 POP ADD SSTORE JUMPDEST PUSH1 0x1 SLOAD PUSH2 0x1FBF SWAP1 DUP5 SWAP1 DUP7 SWAP1 PUSH1 0x1 PUSH1 0x1 PUSH1 0xA0 SHL SUB AND PUSH2 0x3E7F JUMP JUMPDEST PUSH1 0x40 MLOAD DUP4 DUP2 MSTORE PUSH0 PUSH1 0x20 DUP3 ADD MSTORE SWAP1 DUP3 DUP1 PUSH32 0x8211032682F8FD8BE8FF252E0A106CDB6AD4B10427152B4D93C2BC9A1F11C3C2 SWAP7 PUSH0 MLOAD PUSH1 0x20 PUSH2 0x400B PUSH0 CODECOPY PUSH0 MLOAD SWAP1 PUSH0 MSTORE PUSH1 0x80 DUP7 PUSH1 0x8 PUSH1 0x40 PUSH2 0x119B SWAP10 ADD MSTORE TIMESTAMP PUSH1 0x60 DUP3 ADD MSTORE LOG4 PUSH1 0x40 MLOAD SWAP4 DUP5 SWAP4 TIMESTAMP SWAP3 DUP6 SWAP1 SWAP5 SWAP4 SWAP3 PUSH1 0x60 SWAP3 PUSH1 0x80 DUP4 ADD SWAP7 DUP4 MSTORE PUSH1 0x20 DUP4 ADD MSTORE PUSH1 0x40 DUP3 ADD MSTORE ADD MSTORE JUMP JUMPDEST PUSH1 0xA SWAP3 POP SWAP1 PUSH2 0x2045 SWAP2 PUSH2 0x3007 JUMP JUMPDEST DIV DUP8 LT DUP7 PUSH0 PUSH2 0x1F88 JUMP JUMPDEST POP PUSH1 0xA PUSH2 0x205C DUP10 DUP4 PUSH2 0x3007 JUMP JUMPDEST DIV DUP5 GT PUSH2 0x1F5F JUMP JUMPDEST POP PUSH1 0xA PUSH2 0x2071 DUP7 DUP7 PUSH2 0x3007 JUMP JUMPDEST DIV DUP8 LT ISZERO PUSH2 0x1F26 JUMP JUMPDEST POP SWAP6 SWAP4 POP SWAP2 POP SWAP3 POP PUSH2 0x1FA6 JUMP JUMPDEST POP PUSH1 0x40 SLOAD DUP2 LT PUSH2 0x1DD8 JUMP JUMPDEST POP DUP1 DUP3 MSTORE PUSH1 0x43 PUSH1 0x20 MSTORE PUSH1 0x1 PUSH1 0xFF PUSH1 0x8 PUSH1 0x40 DUP6 KECCAK256 ADD SLOAD AND ISZERO ISZERO EQ PUSH2 0x1DD2 JUMP JUMPDEST POP DUP1 ISZERO ISZERO PUSH2 0x1DCC JUMP JUMPDEST POP CALLVALUE PUSH2 0x3AB JUMPI PUSH1 0x20 CALLDATASIZE PUSH1 0x3 NOT ADD SLT PUSH2 0x3AB JUMPI PUSH1 0x4 CALLDATALOAD SWAP1 PUSH1 0x7 SLOAD DUP3 LT ISZERO PUSH2 0x3AB JUMPI PUSH1 0x7 SLOAD DUP3 LT ISZERO PUSH2 0x45B JUMPI PUSH1 0x20 SWAP2 PUSH1 0x7 DUP3 MSTORE DUP3 DUP3 KECCAK256 ADD SLOAD SWAP1 PUSH1 0x3 SHL SHR PUSH1 0x40 MLOAD SWAP1 DUP2 MSTORE RETURN JUMPDEST PUSH2 0x2A53 JUMP JUMPDEST POP CALLVALUE PUSH2 0x3AB JUMPI PUSH1 0x20 CALLDATASIZE PUSH1 0x3 NOT ADD SLT PUSH2 0x3AB JUMPI PUSH1 0x40 SWAP1 PUSH1 0x4 CALLDATALOAD DUP2 MSTORE PUSH1 0x10 PUSH1 0x20 MSTORE KECCAK256 PUSH2 0x180 MSTORE PUSH1 0x1 DUP1 PUSH1 0xA0 SHL SUB PUSH2 0x180 MLOAD SLOAD AND PUSH1 0x2 PUSH2 0x180 MLOAD ADD SLOAD PUSH2 0x100 MSTORE PUSH1 0x3 PUSH2 0x180 MLOAD ADD SLOAD PUSH2 0x140 MSTORE PUSH1 0x4 PUSH2 0x180 MLOAD ADD SLOAD PUSH1 0x5 PUSH2 0x180 MLOAD ADD SLOAD PUSH1 0x6 PUSH2 0x180 MLOAD ADD SLOAD PUSH1 0x7 PUSH2 0x180 MLOAD ADD SLOAD PUSH1 0x8 PUSH2 0x180 MLOAD ADD SLOAD PUSH1 0x9 PUSH2 0x180 MLOAD ADD SLOAD PUSH1 0xA PUSH2 0x180 MLOAD ADD SLOAD SWAP1 PUSH1 0xB PUSH2 0x180 MLOAD ADD SLOAD SWAP3 PUSH1 0xC PUSH2 0x180 MLOAD ADD SLOAD SWAP5 PUSH1 0xD PUSH2 0x180 MLOAD ADD SLOAD SWAP7 PUSH1 0xE PUSH2 0x180 MLOAD ADD SLOAD SWAP9 PUSH1 0xF PUSH2 0x180 MLOAD ADD SLOAD SWAP11 PUSH1 0x10 PUSH2 0x180 MLOAD ADD SLOAD SWAP13 PUSH1 0x11 PUSH2 0x180 MLOAD ADD SLOAD PUSH1 0x80 MSTORE PUSH1 0x12 PUSH2 0x180 MLOAD ADD SLOAD PUSH1 0xC0 MSTORE PUSH1 0x13 PUSH2 0x180 MLOAD ADD SLOAD PUSH2 0x160 MSTORE PUSH1 0x14 PUSH2 0x180 MLOAD ADD SLOAD PUSH2 0x120 MSTORE PUSH1 0x15 PUSH2 0x180 MLOAD ADD SLOAD PUSH1 0xE0 MSTORE PUSH1 0x40 MLOAD PUSH1 0xA0 MSTORE PUSH1 0xA0 MLOAD MSTORE PUSH2 0x100 MLOAD PUSH1 0x20 PUSH1 0xA0 MLOAD ADD MSTORE PUSH2 0x140 MLOAD PUSH1 0x40 PUSH1 0xA0 MLOAD ADD MSTORE PUSH1 0x60 PUSH1 0xA0 MLOAD ADD MSTORE PUSH1 0x80 PUSH1 0xA0 MLOAD ADD MSTORE PUSH1 0xA0 DUP1 MLOAD ADD MSTORE PUSH1 0xC0 PUSH1 0xA0 MLOAD ADD MSTORE PUSH1 0xE0 PUSH1 0xA0 MLOAD ADD MSTORE PUSH2 0x100 PUSH1 0xA0 MLOAD ADD MSTORE PUSH2 0x120 PUSH1 0xA0 MLOAD ADD MSTORE PUSH2 0x140 PUSH1 0xA0 MLOAD ADD MSTORE PUSH2 0x160 PUSH1 0xA0 MLOAD ADD MSTORE PUSH2 0x180 PUSH1 0xA0 MLOAD ADD MSTORE PUSH2 0x1A0 PUSH1 0xA0 MLOAD ADD MSTORE PUSH2 0x1C0 PUSH1 0xA0 MLOAD ADD MSTORE PUSH2 0x1E0 PUSH1 0xA0 MLOAD ADD MSTORE PUSH1 0x80 MLOAD PUSH2 0x200 PUSH1 0xA0 MLOAD ADD MSTORE PUSH1 0xC0 MLOAD PUSH2 0x220 PUSH1 0xA0 MLOAD ADD MSTORE PUSH2 0x160 MLOAD PUSH2 0x240 PUSH1 0xA0 MLOAD ADD MSTORE PUSH2 0x120 MLOAD PUSH2 0x260 PUSH1 0xA0 MLOAD ADD MSTORE PUSH1 0xE0 MLOAD PUSH2 0x280 PUSH1 0xA0 MLOAD ADD MSTORE PUSH2 0x2A0 PUSH1 0xA0 MLOAD RETURN JUMPDEST POP CALLVALUE PUSH2 0x3AB JUMPI DUP1 PUSH1 0x3 NOT CALLDATASIZE ADD SLT PUSH2 0x3AB JUMPI PUSH1 0x20 PUSH1 0x40 MLOAD PUSH8 0xDE0B6B3A7640000 DUP2 MSTORE RETURN JUMPDEST POP CALLVALUE PUSH2 0x3AB JUMPI DUP1 PUSH1 0x3 NOT CALLDATASIZE ADD SLT PUSH2 0x3AB JUMPI PUSH1 0x20 PUSH1 0x40 MLOAD PUSH3 0x15180 DUP2 MSTORE RETURN JUMPDEST POP CALLVALUE PUSH2 0x3AB JUMPI DUP1 PUSH1 0x3 NOT CALLDATASIZE ADD SLT PUSH2 0x3AB JUMPI PUSH1 0x20 PUSH1 0x40 MLOAD PUSH1 0x2 DUP2 MSTORE RETURN JUMPDEST POP CALLVALUE PUSH2 0x3AB JUMPI DUP1 PUSH1 0x3 NOT CALLDATASIZE ADD SLT PUSH2 0x3AB JUMPI PUSH1 0x20 PUSH1 0x3B SLOAD PUSH1 0x40 MLOAD SWAP1 DUP2 MSTORE RETURN JUMPDEST POP CALLVALUE PUSH2 0x3AB JUMPI DUP1 PUSH1 0x3 NOT CALLDATASIZE ADD SLT PUSH2 0x3AB JUMPI PUSH1 0x1 SLOAD PUSH1 0x40 MLOAD PUSH1 0x1 PUSH1 0x1 PUSH1 0xA0 SHL SUB SWAP1 SWAP2 AND DUP2 MSTORE PUSH1 0x20 SWAP1 RETURN JUMPDEST POP CALLVALUE PUSH2 0x3AB JUMPI PUSH1 0x20 CALLDATASIZE PUSH1 0x3 NOT ADD SLT PUSH2 0x3AB JUMPI PUSH1 0x4 CALLDATALOAD SWAP1 PUSH1 0x44 SLOAD DUP3 LT ISZERO PUSH2 0x3AB JUMPI PUSH1 0x44 SLOAD DUP3 LT ISZERO PUSH2 0x45B JUMPI PUSH1 0x20 SWAP2 PUSH1 0x44 DUP3 MSTORE DUP3 DUP3 KECCAK256 ADD SLOAD SWAP1 PUSH1 0x3 SHL SHR PUSH1 0x40 MLOAD SWAP1 DUP2 MSTORE RETURN JUMPDEST POP CALLVALUE PUSH2 0x3AB JUMPI DUP1 PUSH1 0x3 NOT CALLDATASIZE ADD SLT PUSH2 0x3AB JUMPI PUSH1 0x20 PUSH1 0x40 MLOAD PUSH3 0x278D00 DUP2 MSTORE RETURN JUMPDEST POP CALLVALUE PUSH2 0x3AB JUMPI PUSH1 0x20 CALLDATASIZE PUSH1 0x3 NOT ADD SLT PUSH2 0x3AB JUMPI PUSH1 0x4 CALLDATALOAD SWAP1 PUSH1 0x17 SLOAD DUP3 LT ISZERO PUSH2 0x3AB JUMPI PUSH1 0x17 SLOAD DUP3 LT ISZERO PUSH2 0x45B JUMPI PUSH1 0x20 SWAP2 PUSH1 0x17 DUP3 MSTORE DUP3 DUP3 KECCAK256 ADD SLOAD SWAP1 PUSH1 0x3 SHL SHR PUSH1 0x40 MLOAD SWAP1 DUP2 MSTORE RETURN JUMPDEST POP CALLVALUE PUSH2 0x3AB JUMPI PUSH1 0x20 CALLDATASIZE PUSH1 0x3 NOT ADD SLT PUSH2 0x3AB JUMPI PUSH1 0x4 CALLDATALOAD PUSH1 0x7 DUP2 LT ISZERO PUSH2 0xBAE JUMPI PUSH1 0x20 SWAP2 POP PUSH1 0x18 ADD SLOAD PUSH1 0x40 MLOAD SWAP1 DUP2 MSTORE RETURN JUMPDEST POP CALLVALUE PUSH2 0x3AB JUMPI PUSH2 0x2443 PUSH2 0x243D CALLDATASIZE PUSH2 0x2955 JUMP JUMPDEST SWAP1 PUSH2 0x2BCB JUMP JUMPDEST DUP1 RETURN JUMPDEST CALLVALUE PUSH2 0x27B5 JUMPI PUSH2 0x2454 CALLDATASIZE PUSH2 0x2955 JUMP JUMPDEST PUSH2 0x245C PUSH2 0x316E JUMP JUMPDEST DUP2 PUSH0 MSTORE PUSH1 0x10 PUSH1 0x20 MSTORE PUSH2 0x247B PUSH1 0x1 DUP1 PUSH1 0xA0 SHL SUB PUSH1 0x40 PUSH0 KECCAK256 SLOAD AND CALLER EQ PUSH2 0x2A6E JUMP JUMPDEST DUP2 ISZERO ISZERO DUP1 PUSH2 0x27AC JUMPI JUMPDEST DUP1 PUSH2 0x278E JUMPI JUMPDEST DUP1 PUSH2 0x2783 JUMPI JUMPDEST PUSH2 0x2499 SWAP1 PUSH2 0x2AAD JUMP JUMPDEST DUP1 PUSH0 MSTORE PUSH1 0x3E PUSH1 0x20 MSTORE PUSH1 0x40 PUSH0 KECCAK256 DUP3 PUSH0 MSTORE PUSH1 0x20 MSTORE PUSH1 0x40 PUSH0 KECCAK256 SWAP1 DUP1 PUSH0 MSTORE PUSH1 0x3C PUSH1 0x20 MSTORE PUSH1 0x3 PUSH1 0x40 PUSH0 KECCAK256 SWAP3 ADD SWAP2 DUP3 SLOAD PUSH1 0x1 PUSH1 0xFF DUP3 PUSH1 0x8 SHR AND ISZERO ISZERO EQ SWAP1 DUP2 PUSH2 0x2777 JUMPI JUMPDEST POP ISZERO PUSH2 0x2733 JUMPI PUSH1 0x3 DUP2 ADD SLOAD SWAP3 DUP4 ISZERO SWAP2 PUSH2 0x24EF DUP4 ISZERO PUSH2 0x2B12 JUMP JUMPDEST PUSH1 0x4 DUP2 ADD PUSH2 0x2504 PUSH1 0x2 DUP3 SLOAD SWAP4 ADD SLOAD DUP4 LT PUSH2 0x2B53 JUMP JUMPDEST PUSH1 0x1 DUP3 ADD DUP1 SWAP3 GT PUSH2 0x271F JUMPI SSTORE PUSH1 0x1 PUSH1 0xFF NOT DUP3 SLOAD AND OR SWAP1 SSTORE DUP4 PUSH0 MSTORE PUSH1 0x10 PUSH1 0x20 MSTORE PUSH1 0x40 PUSH0 KECCAK256 SWAP3 PUSH1 0x1 DUP1 PUSH1 0xA0 SHL SUB DUP5 SLOAD AND SWAP2 DUP3 ISZERO PUSH2 0x123B JUMPI PUSH2 0x1208 JUMPI DUP5 PUSH0 SWAP5 SWAP4 SWAP5 MSTORE PUSH1 0x11 PUSH1 0x20 MSTORE PUSH1 0x40 PUSH0 KECCAK256 PUSH2 0x2557 DUP3 DUP3 SLOAD PUSH2 0x2B93 JUMP JUMPDEST DUP2 SSTORE PUSH1 0x9 DUP2 ADD PUSH2 0x2568 DUP4 DUP3 SLOAD PUSH2 0x2B93 JUMP JUMPDEST SWAP1 SSTORE SLOAD SWAP4 PUSH1 0xB DUP5 ADD SLOAD SWAP3 PUSH1 0x6 PUSH0 SWAP6 ADD SWAP6 JUMPDEST DUP7 SLOAD DUP7 LT ISZERO PUSH2 0x2712 JUMPI PUSH2 0x258B DUP7 PUSH2 0x29AB JUMP JUMPDEST SWAP1 SLOAD SWAP1 PUSH1 0x3 SHL SHR DUP9 PUSH0 MSTORE PUSH1 0xE PUSH1 0x20 MSTORE PUSH1 0x40 PUSH0 KECCAK256 DUP2 PUSH0 MSTORE PUSH1 0x20 MSTORE DUP6 PUSH1 0x40 PUSH0 KECCAK256 SWAP2 PUSH1 0x3 DUP4 ADD PUSH1 0xFF DUP2 SLOAD AND DUP1 ISZERO SWAP1 DUP2 DUP1 SWAP3 PUSH2 0x26FC JUMPI JUMPDEST ISZERO PUSH2 0x25ED JUMPI POP POP SWAP2 PUSH1 0xA PUSH2 0x10A2 DUP3 PUSH1 0x1 SWAP8 SWAP5 PUSH2 0x25E4 SWAP8 SWAP7 DUP10 PUSH1 0xFF NOT DUP3 SLOAD AND OR SWAP1 SSTORE PUSH2 0x3007 JUMP JUMPDEST SWAP6 JUMPDEST ADD SWAP5 PUSH2 0x2579 JUMP JUMPDEST SWAP2 POP SWAP3 POP DUP1 PUSH2 0x26E7 JUMPI JUMPDEST ISZERO PUSH2 0x2615 JUMPI POP POP PUSH1 0x1 SWAP2 PUSH1 0x2 PUSH2 0x260F SWAP3 ADD SLOAD SWAP1 PUSH2 0x2BA0 JUMP JUMPDEST SWAP6 PUSH2 0x25E6 JUMP JUMPDEST SWAP3 SWAP8 SWAP3 DUP8 SWAP1 DUP3 PUSH2 0x26CF JUMPI JUMPDEST POP POP PUSH2 0x262F JUMPI POP PUSH1 0x1 SWAP1 PUSH2 0x25E6 JUMP JUMPDEST SWAP2 SWAP8 SWAP6 SWAP4 SWAP7 POP POP PUSH1 0x1 SWAP2 SWAP4 POP ADD SSTORE JUMPDEST PUSH1 0x1 SLOAD PUSH2 0x2657 SWAP1 DUP5 SWAP1 DUP7 SWAP1 PUSH1 0x1 PUSH1 0x1 PUSH1 0xA0 SHL SUB AND PUSH2 0x3E7F JUMP JUMPDEST PUSH1 0x40 MLOAD DUP4 DUP2 MSTORE PUSH0 PUSH1 0x20 DUP3 ADD MSTORE SWAP1 DUP3 DUP1 PUSH32 0x96EE4F374D0394C5383B347DC3B7EC04A1ECEDDCD2E25521157BCE21C42B24D5 SWAP7 PUSH0 MLOAD PUSH1 0x20 PUSH2 0x400B PUSH0 CODECOPY PUSH0 MLOAD SWAP1 PUSH0 MSTORE PUSH1 0x80 DUP7 PUSH1 0x7 PUSH1 0x40 PUSH2 0x119B SWAP10 ADD MSTORE TIMESTAMP PUSH1 0x60 DUP3 ADD MSTORE LOG4 PUSH1 0x40 MLOAD SWAP4 DUP5 SWAP4 TIMESTAMP SWAP3 DUP6 SWAP1 SWAP5 SWAP4 SWAP3 PUSH1 0x60 SWAP3 PUSH1 0x80 DUP4 ADD SWAP7 DUP4 MSTORE PUSH1 0x20 DUP4 ADD MSTORE PUSH1 0x40 DUP3 ADD MSTORE ADD MSTORE JUMP JUMPDEST PUSH1 0xA SWAP3 POP SWAP1 PUSH2 0x26DD SWAP2 PUSH2 0x3007 JUMP JUMPDEST DIV DUP8 LT DUP7 DUP12 PUSH2 0x2620 JUMP JUMPDEST POP PUSH1 0xA PUSH2 0x26F4 DUP10 DUP4 PUSH2 0x3007 JUMP JUMPDEST DIV DUP5 GT PUSH2 0x25F7 JUMP JUMPDEST POP PUSH1 0xA PUSH2 0x2709 DUP7 DUP7 PUSH2 0x3007 JUMP JUMPDEST DIV DUP8 LT ISZERO PUSH2 0x25BE JUMP JUMPDEST POP SWAP6 SWAP4 POP SWAP2 POP SWAP3 POP PUSH2 0x263E JUMP JUMPDEST PUSH4 0x4E487B71 PUSH1 0xE0 SHL PUSH0 MSTORE PUSH1 0x11 PUSH1 0x4 MSTORE PUSH1 0x24 PUSH0 REVERT JUMPDEST PUSH1 0x64 PUSH1 0x40 MLOAD PUSH3 0x461BCD PUSH1 0xE5 SHL DUP2 MSTORE PUSH1 0x20 PUSH1 0x4 DUP3 ADD MSTORE PUSH1 0x20 PUSH1 0x24 DUP3 ADD MSTORE PUSH32 0x4E6F74207175616C6966696564206F7220616C726561647920636C61696D6564 PUSH1 0x44 DUP3 ADD MSTORE REVERT JUMPDEST PUSH1 0xFF SWAP2 POP AND ISZERO DUP6 PUSH2 0x24D6 JUMP JUMPDEST POP PUSH1 0x39 SLOAD DUP2 LT PUSH2 0x2490 JUMP JUMPDEST POP DUP1 PUSH0 MSTORE PUSH1 0x3C PUSH1 0x20 MSTORE PUSH1 0x1 PUSH1 0xFF PUSH1 0x8 PUSH1 0x40 PUSH0 KECCAK256 ADD SLOAD AND ISZERO ISZERO EQ PUSH2 0x248A JUMP JUMPDEST POP DUP1 ISZERO ISZERO PUSH2 0x2484 JUMP JUMPDEST PUSH0 DUP1 REVERT JUMPDEST CALLVALUE PUSH2 0x27B5 JUMPI PUSH2 0x27C7 CALLDATASIZE PUSH2 0x2955 JUMP JUMPDEST SWAP1 PUSH0 MSTORE PUSH1 0x33 PUSH1 0x20 MSTORE PUSH1 0x40 PUSH0 KECCAK256 DUP1 SLOAD DUP3 LT ISZERO PUSH2 0x27B5 JUMPI PUSH1 0x20 SWAP2 PUSH2 0x3E0 SWAP2 PUSH2 0x2A09 JUMP JUMPDEST CALLVALUE PUSH2 0x27B5 JUMPI PUSH2 0x27F6 CALLDATASIZE PUSH2 0x2A1E JUMP JUMPDEST SWAP2 PUSH0 MSTORE PUSH1 0x36 PUSH1 0x20 MSTORE PUSH1 0x40 PUSH0 KECCAK256 SWAP1 PUSH0 MSTORE PUSH1 0x20 MSTORE PUSH1 0x40 PUSH0 KECCAK256 DUP1 SLOAD DUP3 LT ISZERO PUSH2 0x27B5 JUMPI PUSH1 0x20 SWAP2 PUSH2 0x3E0 SWAP2 PUSH2 0x2A09 JUMP JUMPDEST CALLVALUE PUSH2 0x27B5 JUMPI PUSH2 0x282F CALLDATASIZE PUSH2 0x2955 JUMP JUMPDEST SWAP1 PUSH0 MSTORE PUSH1 0x3D PUSH1 0x20 MSTORE PUSH1 0x40 PUSH0 KECCAK256 DUP1 SLOAD DUP3 LT ISZERO PUSH2 0x27B5 JUMPI PUSH1 0x20 SWAP2 PUSH2 0x3E0 SWAP2 PUSH2 0x2A09 JUMP JUMPDEST CALLVALUE PUSH2 0x27B5 JUMPI PUSH1 0x20 CALLDATASIZE PUSH1 0x3 NOT ADD SLT PUSH2 0x27B5 JUMPI PUSH1 0x4 CALLDATALOAD PUSH0 MSTORE PUSH1 0xC PUSH1 0x20 MSTORE PUSH1 0x20 PUSH1 0x40 PUSH0 KECCAK256 SLOAD PUSH1 0x40 MLOAD SWAP1 DUP2 MSTORE RETURN JUMPDEST CALLVALUE PUSH2 0x27B5 JUMPI PUSH1 0x20 CALLDATASIZE PUSH1 0x3 NOT ADD SLT PUSH2 0x27B5 JUMPI PUSH1 0x4 CALLDATALOAD PUSH0 MSTORE PUSH1 0x4A PUSH1 0x20 MSTORE PUSH1 0x40 PUSH0 KECCAK256 DUP1 SLOAD PUSH2 0xB60 PUSH1 0x1 DUP4 ADD SLOAD SWAP3 PUSH1 0x2 DUP2 ADD SLOAD SWAP1 PUSH1 0x3 DUP2 ADD SLOAD PUSH1 0x4 DUP3 ADD SLOAD PUSH1 0x5 DUP4 ADD SLOAD SWAP1 PUSH1 0x6 DUP5 ADD SLOAD SWAP3 PUSH1 0xFF PUSH1 0x8 PUSH1 0x7 DUP8 ADD SLOAD SWAP7 ADD SLOAD AND SWAP6 PUSH1 0x40 MLOAD SWAP10 DUP11 SWAP10 DUP11 PUSH2 0x296B JUMP JUMPDEST CALLVALUE PUSH2 0x27B5 JUMPI PUSH0 CALLDATASIZE PUSH1 0x3 NOT ADD SLT PUSH2 0x27B5 JUMPI PUSH1 0x20 PUSH1 0x40 MLOAD PUSH2 0x2710 DUP2 MSTORE RETURN JUMPDEST CALLVALUE PUSH2 0x27B5 JUMPI PUSH1 0xA0 SWAP1 PUSH2 0x2907 CALLDATASIZE PUSH2 0x2955 JUMP JUMPDEST SWAP1 PUSH0 MSTORE PUSH1 0x3E PUSH1 0x20 MSTORE PUSH1 0x40 PUSH0 KECCAK256 SWAP1 PUSH0 MSTORE PUSH1 0x20 MSTORE PUSH1 0xFF PUSH1 0x40 PUSH0 KECCAK256 DUP1 SLOAD SWAP1 PUSH1 0x1 DUP2 ADD SLOAD PUSH1 0x3 PUSH1 0x2 DUP4 ADD SLOAD SWAP3 ADD SLOAD SWAP3 DUP6 MSTORE PUSH1 0x20 DUP6 ADD MSTORE PUSH1 0x40 DUP5 ADD MSTORE DUP2 DUP2 AND ISZERO ISZERO PUSH1 0x60 DUP5 ADD MSTORE PUSH1 0x8 SHR AND ISZERO ISZERO PUSH1 0x80 DUP3 ADD MSTORE RETURN JUMPDEST PUSH1 0x40 SWAP1 PUSH1 0x3 NOT ADD SLT PUSH2 0x27B5 JUMPI PUSH1 0x4 CALLDATALOAD SWAP1 PUSH1 0x24 CALLDATALOAD SWAP1 JUMP JUMPDEST SWAP8 SWAP5 SWAP2 SWAP3 PUSH2 0x100 SWAP8 SWAP5 SWAP2 SWAP11 SWAP10 SWAP7 SWAP4 PUSH2 0x120 DUP11 ADD SWAP12 DUP11 MSTORE PUSH1 0x20 DUP11 ADD MSTORE PUSH1 0x40 DUP10 ADD MSTORE PUSH1 0x60 DUP9 ADD MSTORE PUSH1 0x80 DUP8 ADD MSTORE PUSH1 0xA0 DUP7 ADD MSTORE PUSH1 0xC0 DUP6 ADD MSTORE PUSH1 0xE0 DUP5 ADD MSTORE ISZERO ISZERO SWAP2 ADD MSTORE JUMP JUMPDEST PUSH1 0xD SLOAD DUP2 LT ISZERO PUSH2 0x29C3 JUMPI PUSH1 0xD PUSH0 MSTORE PUSH1 0x20 PUSH0 KECCAK256 ADD SWAP1 PUSH0 SWAP1 JUMP JUMPDEST PUSH4 0x4E487B71 PUSH1 0xE0 SHL PUSH0 MSTORE PUSH1 0x32 PUSH1 0x4 MSTORE PUSH1 0x24 PUSH0 REVERT JUMPDEST PUSH1 0xD SLOAD ISZERO PUSH2 0x29C3 JUMPI PUSH1 0xD PUSH0 SWAP1 DUP2 MSTORE PUSH32 0xD7B6990105719101DABEB77144F2A3385C8033ACD3AF97E9423A695E81AD1EB5 SWAP2 JUMP JUMPDEST DUP1 SLOAD DUP3 LT ISZERO PUSH2 0x29C3 JUMPI PUSH0 MSTORE PUSH1 0x20 PUSH0 KECCAK256 ADD SWAP1 PUSH0 SWAP1 JUMP JUMPDEST PUSH1 0x60 SWAP1 PUSH1 0x3 NOT ADD SLT PUSH2 0x27B5 JUMPI PUSH1 0x4 CALLDATALOAD SWAP1 PUSH1 0x24 CALLDATALOAD SWAP1 PUSH1 0x44 CALLDATALOAD SWAP1 JUMP JUMPDEST CALLVALUE PUSH2 0x27B5 JUMPI PUSH0 CALLDATASIZE PUSH1 0x3 NOT ADD SLT PUSH2 0x27B5 JUMPI PUSH1 0x20 PUSH1 0x40 MLOAD PUSH1 0xA DUP2 MSTORE RETURN JUMPDEST CALLVALUE PUSH2 0x27B5 JUMPI PUSH0 CALLDATASIZE PUSH1 0x3 NOT ADD SLT PUSH2 0x27B5 JUMPI PUSH1 0x20 PUSH1 0x40 MLOAD PUSH1 0xF DUP2 MSTORE RETURN JUMPDEST ISZERO PUSH2 0x2A75 JUMPI JUMP JUMPDEST PUSH1 0x40 MLOAD PUSH3 0x461BCD PUSH1 0xE5 SHL DUP2 MSTORE PUSH1 0x20 PUSH1 0x4 DUP3 ADD MSTORE PUSH1 0x10 PUSH1 0x24 DUP3 ADD MSTORE PUSH16 0x139BDD081E5BDD5C881858D8DBDD5B9D PUSH1 0x82 SHL PUSH1 0x44 DUP3 ADD MSTORE PUSH1 0x64 SWAP1 REVERT JUMPDEST ISZERO PUSH2 0x2AB4 JUMPI JUMP JUMPDEST PUSH1 0x40 MLOAD PUSH3 0x461BCD PUSH1 0xE5 SHL DUP2 MSTORE PUSH1 0x20 PUSH1 0x4 DUP3 ADD MSTORE PUSH1 0x30 PUSH1 0x24 DUP3 ADD MSTORE PUSH32 0x496E76616C696420757365724964206F7220726F756E644964206F7220726F75 PUSH1 0x44 DUP3 ADD MSTORE PUSH16 0x1B99081BDC881B9BDD0818DB1BDCD959 PUSH1 0x82 SHL PUSH1 0x64 DUP3 ADD MSTORE PUSH1 0x84 SWAP1 REVERT JUMPDEST ISZERO PUSH2 0x2B19 JUMPI JUMP JUMPDEST PUSH1 0x40 MLOAD PUSH3 0x461BCD PUSH1 0xE5 SHL DUP2 MSTORE PUSH1 0x20 PUSH1 0x4 DUP3 ADD MSTORE PUSH1 0x12 PUSH1 0x24 DUP3 ADD MSTORE PUSH18 0x4E6F2072657761726420746F20636C61696D PUSH1 0x70 SHL PUSH1 0x44 DUP3 ADD MSTORE PUSH1 0x64 SWAP1 REVERT JUMPDEST ISZERO PUSH2 0x2B5A JUMPI JUMP JUMPDEST PUSH1 0x40 MLOAD PUSH3 0x461BCD PUSH1 0xE5 SHL DUP2 MSTORE PUSH1 0x20 PUSH1 0x4 DUP3 ADD MSTORE PUSH1 0x11 PUSH1 0x24 DUP3 ADD MSTORE PUSH17 0x105B1B081D5CD95C9CC818DB185A5B5959 PUSH1 0x7A SHL PUSH1 0x44 DUP3 ADD MSTORE PUSH1 0x64 SWAP1 REVERT JUMPDEST SWAP2 SWAP1 DUP3 ADD DUP1 SWAP3 GT PUSH2 0x271F JUMPI JUMP JUMPDEST SWAP2 SWAP1 DUP3 SUB SWAP2 DUP3 GT PUSH2 0x271F JUMPI JUMP JUMPDEST DUP2 ISZERO PUSH2 0x2BB7 JUMPI DIV SWAP1 JUMP JUMPDEST PUSH4 0x4E487B71 PUSH1 0xE0 SHL PUSH0 MSTORE PUSH1 0x12 PUSH1 0x4 MSTORE PUSH1 0x24 PUSH0 REVERT JUMPDEST SWAP2 SWAP1 SWAP2 DUP1 PUSH0 MSTORE PUSH1 0x10 PUSH1 0x20 MSTORE PUSH1 0x40 PUSH0 KECCAK256 PUSH1 0x3 DUP2 ADD SLOAD ISZERO PUSH2 0x2EB6 JUMPI PUSH1 0x6 DUP5 SWAP2 PUSH2 0x2BFC PUSH1 0x1 DUP1 PUSH1 0xA0 SHL SUB DUP3 SLOAD AND CALLER EQ PUSH2 0x2A6E JUMP JUMPDEST ADD SLOAD SUB PUSH2 0x2E7F JUMPI DUP3 PUSH0 MSTORE PUSH1 0xA PUSH1 0x20 MSTORE PUSH1 0x40 PUSH0 KECCAK256 SLOAD SWAP1 DUP4 PUSH0 MSTORE PUSH1 0xB PUSH1 0x20 MSTORE PUSH1 0x40 PUSH0 KECCAK256 DUP2 PUSH0 MSTORE PUSH1 0x20 MSTORE PUSH1 0x40 PUSH0 KECCAK256 SLOAD DUP1 DUP4 EQ PUSH2 0x2E78 JUMPI PUSH2 0x2C42 PUSH8 0xDE0B6B3A7640000 SWAP2 DUP5 PUSH2 0x2BA0 JUMP JUMPDEST DIV SWAP1 DUP2 ISZERO PUSH2 0x2E5B JUMPI PUSH2 0x2C54 DUP3 DUP3 PUSH2 0x3381 JUMP JUMPDEST SWAP3 DUP6 PUSH0 MSTORE PUSH1 0xB PUSH1 0x20 MSTORE PUSH1 0x40 PUSH0 KECCAK256 DUP3 PUSH0 MSTORE PUSH1 0x20 MSTORE PUSH1 0x40 PUSH0 KECCAK256 SSTORE DUP3 ISZERO DUP1 ISZERO PUSH2 0x2C95 JUMPI JUMPDEST POP POP SWAP1 DUP1 SWAP3 SWAP4 POP DUP2 GT PUSH2 0x2C86 JUMPI POP POP JUMP JUMPDEST PUSH2 0x2C93 SWAP2 PUSH2 0x711 SWAP2 PUSH2 0x2BA0 JUMP JUMPDEST JUMP JUMPDEST DUP2 PUSH0 MSTORE PUSH1 0x10 PUSH1 0x20 MSTORE PUSH1 0x40 PUSH0 KECCAK256 SWAP5 PUSH1 0x1 DUP1 PUSH1 0xA0 SHL SUB DUP7 SLOAD AND SWAP2 DUP3 ISZERO PUSH2 0x123B JUMPI PUSH2 0x1208 JUMPI DUP3 PUSH0 SWAP7 SWAP6 SWAP7 MSTORE PUSH1 0x11 PUSH1 0x20 MSTORE PUSH1 0x40 PUSH0 KECCAK256 PUSH2 0x2CD1 DUP8 DUP3 SLOAD PUSH2 0x2B93 JUMP JUMPDEST DUP2 SSTORE PUSH1 0x6 DUP2 ADD PUSH2 0x2CE2 DUP9 DUP3 SLOAD PUSH2 0x2B93 JUMP JUMPDEST SWAP1 SSTORE SLOAD SWAP6 PUSH1 0xB DUP7 ADD SLOAD SWAP5 PUSH1 0x6 PUSH0 SWAP8 ADD SWAP8 JUMPDEST DUP9 SLOAD DUP9 LT ISZERO PUSH2 0x2E4D JUMPI PUSH2 0x2D05 DUP9 PUSH2 0x29AB JUMP JUMPDEST SWAP1 SLOAD SWAP1 PUSH1 0x3 SHL SHR DUP7 PUSH0 MSTORE PUSH1 0xE PUSH1 0x20 MSTORE PUSH1 0x40 PUSH0 KECCAK256 DUP2 PUSH0 MSTORE PUSH1 0x20 MSTORE DUP8 PUSH1 0x40 PUSH0 KECCAK256 SWAP2 PUSH1 0x3 DUP4 ADD PUSH1 0xFF DUP2 SLOAD AND DUP1 ISZERO SWAP1 DUP2 DUP1 SWAP3 PUSH2 0x2E37 JUMPI JUMPDEST ISZERO PUSH2 0x2D67 JUMPI POP POP SWAP2 PUSH1 0xA PUSH2 0x10A2 DUP3 PUSH1 0x1 SWAP8 SWAP5 PUSH2 0x2D5E SWAP8 SWAP7 DUP10 PUSH1 0xFF NOT DUP3 SLOAD AND OR SWAP1 SSTORE PUSH2 0x3007 JUMP JUMPDEST SWAP8 JUMPDEST ADD SWAP7 PUSH2 0x2CF3 JUMP JUMPDEST SWAP2 POP SWAP3 POP DUP1 PUSH2 0x2E22 JUMPI JUMPDEST ISZERO PUSH2 0x2D8F JUMPI POP POP PUSH1 0x1 SWAP2 PUSH1 0x2 PUSH2 0x2D89 SWAP3 ADD SLOAD SWAP1 PUSH2 0x2BA0 JUMP JUMPDEST SWAP8 PUSH2 0x2D60 JUMP JUMPDEST SWAP3 SWAP10 SWAP3 DUP10 SWAP1 DUP3 PUSH2 0x2E0A JUMPI JUMPDEST POP POP PUSH2 0x2DA9 JUMPI POP PUSH1 0x1 SWAP1 PUSH2 0x2D60 JUMP JUMPDEST SWAP2 SWAP8 SWAP4 SWAP10 SWAP6 SWAP7 POP POP PUSH1 0x1 SWAP2 SWAP8 POP ADD SSTORE JUMPDEST PUSH1 0x1 SLOAD PUSH2 0x2DD2 SWAP1 DUP7 SWAP1 DUP4 SWAP1 PUSH1 0x1 PUSH1 0x1 PUSH1 0xA0 SHL SUB AND PUSH2 0x3E7F JUMP JUMPDEST PUSH1 0x40 MLOAD DUP6 DUP2 MSTORE PUSH1 0x20 DUP2 ADD SWAP3 SWAP1 SWAP3 MSTORE PUSH0 MLOAD PUSH1 0x20 PUSH2 0x400B PUSH0 CODECOPY PUSH0 MLOAD SWAP1 PUSH0 MSTORE PUSH1 0x80 DUP4 PUSH1 0x4 PUSH1 0x40 DUP8 SWAP7 ADD MSTORE TIMESTAMP PUSH1 0x60 DUP3 ADD MSTORE LOG4 SWAP1 DUP3 SWAP2 PUSH0 DUP1 PUSH2 0x2C75 JUMP JUMPDEST PUSH1 0xA SWAP3 POP SWAP1 PUSH2 0x2E18 SWAP2 PUSH2 0x3007 JUMP JUMPDEST DIV DUP10 LT DUP9 PUSH0 PUSH2 0x2D9A JUMP JUMPDEST POP PUSH1 0xA PUSH2 0x2E2F DUP12 DUP4 PUSH2 0x3007 JUMP JUMPDEST DIV DUP5 GT PUSH2 0x2D71 JUMP JUMPDEST POP PUSH1 0xA PUSH2 0x2E44 DUP7 DUP7 PUSH2 0x3007 JUMP JUMPDEST DIV DUP8 LT ISZERO PUSH2 0x2D38 JUMP JUMPDEST POP SWAP6 POP SWAP6 POP SWAP6 SWAP2 SWAP3 POP PUSH2 0x2DB9 JUMP JUMPDEST SWAP2 SWAP3 SWAP4 SWAP1 POP PUSH0 MSTORE PUSH1 0xB PUSH1 0x20 MSTORE PUSH1 0x40 PUSH0 KECCAK256 SWAP1 PUSH0 MSTORE PUSH1 0x20 MSTORE PUSH1 0x40 PUSH0 KECCAK256 SSTORE JUMP JUMPDEST POP POP POP SWAP1 POP JUMP JUMPDEST PUSH1 0x40 MLOAD PUSH3 0x461BCD PUSH1 0xE5 SHL DUP2 MSTORE PUSH1 0x20 PUSH1 0x4 DUP3 ADD MSTORE PUSH1 0xF PUSH1 0x24 DUP3 ADD MSTORE PUSH15 0x496E76616C6964207061636B616765 PUSH1 0x88 SHL PUSH1 0x44 DUP3 ADD MSTORE PUSH1 0x64 SWAP1 REVERT JUMPDEST PUSH1 0x40 MLOAD PUSH3 0x461BCD PUSH1 0xE5 SHL DUP2 MSTORE PUSH1 0x20 PUSH1 0x4 DUP3 ADD MSTORE PUSH1 0xE PUSH1 0x24 DUP3 ADD MSTORE PUSH14 0x155CD95C881B9BDD08199BDD5B99 PUSH1 0x92 SHL PUSH1 0x44 DUP3 ADD MSTORE PUSH1 0x64 SWAP1 REVERT JUMPDEST ISZERO PUSH2 0x2EF3 JUMPI JUMP JUMPDEST PUSH1 0x40 MLOAD PUSH3 0x461BCD PUSH1 0xE5 SHL DUP2 MSTORE PUSH1 0x20 PUSH1 0x4 DUP3 ADD MSTORE PUSH1 0xE PUSH1 0x24 DUP3 ADD MSTORE PUSH14 0x2737BA1038BAB0B634B334B2B21 PUSH1 0x95 SHL PUSH1 0x44 DUP3 ADD MSTORE PUSH1 0x64 SWAP1 REVERT JUMPDEST ISZERO PUSH2 0x2F30 JUMPI JUMP JUMPDEST PUSH1 0x40 MLOAD PUSH3 0x461BCD PUSH1 0xE5 SHL DUP2 MSTORE PUSH1 0x20 PUSH1 0x4 DUP3 ADD MSTORE PUSH1 0x1E PUSH1 0x24 DUP3 ADD MSTORE PUSH32 0x416C726561647920636C61696D656420666F72207468697320726F756E640000 PUSH1 0x44 DUP3 ADD MSTORE PUSH1 0x64 SWAP1 REVERT JUMPDEST ISZERO PUSH2 0x2F7C JUMPI JUMP JUMPDEST PUSH1 0x40 MLOAD PUSH3 0x461BCD PUSH1 0xE5 SHL DUP2 MSTORE PUSH1 0x20 PUSH1 0x4 DUP3 ADD MSTORE PUSH1 0x15 PUSH1 0x24 DUP3 ADD MSTORE PUSH21 0x4E6F7420656C696769626C6520746F20636C61696D PUSH1 0x58 SHL PUSH1 0x44 DUP3 ADD MSTORE PUSH1 0x64 SWAP1 REVERT JUMPDEST SWAP1 PUSH1 0x1F DUP1 NOT SWAP2 ADD AND DUP2 ADD SWAP1 DUP2 LT PUSH8 0xFFFFFFFFFFFFFFFF DUP3 GT OR PUSH2 0x2FDB JUMPI PUSH1 0x40 MSTORE JUMP JUMPDEST PUSH4 0x4E487B71 PUSH1 0xE0 SHL PUSH0 MSTORE PUSH1 0x41 PUSH1 0x4 MSTORE PUSH1 0x24 PUSH0 REVERT JUMPDEST SWAP1 DUP2 PUSH1 0x20 SWAP2 SUB SLT PUSH2 0x27B5 JUMPI MLOAD DUP1 ISZERO ISZERO DUP2 SUB PUSH2 0x27B5 JUMPI SWAP1 JUMP JUMPDEST DUP2 DUP2 MUL SWAP3 SWAP2 DUP2 ISZERO SWAP2 DUP5 DIV EQ OR ISZERO PUSH2 0x271F JUMPI JUMP JUMPDEST SWAP2 SWAP1 DUP3 PUSH0 MSTORE PUSH1 0x10 PUSH1 0x20 MSTORE PUSH1 0x3 PUSH1 0x40 PUSH0 KECCAK256 ADD SLOAD ISZERO PUSH2 0x3089 JUMPI DUP1 PUSH0 MSTORE PUSH1 0xA PUSH1 0x20 MSTORE PUSH1 0x40 PUSH0 KECCAK256 SLOAD SWAP1 PUSH0 MSTORE PUSH1 0xB PUSH1 0x20 MSTORE PUSH1 0x40 PUSH0 KECCAK256 DUP4 PUSH0 MSTORE PUSH1 0x20 MSTORE PUSH1 0x40 PUSH0 KECCAK256 SLOAD SWAP1 DUP2 DUP2 GT ISZERO PUSH2 0x307F JUMPI PUSH2 0x3074 PUSH2 0x307C SWAP3 PUSH8 0xDE0B6B3A7640000 SWAP3 PUSH2 0x2BA0 JUMP JUMPDEST DIV DUP1 SWAP4 PUSH2 0x3381 JUMP JUMPDEST SWAP1 JUMP JUMPDEST POP POP SWAP1 POP PUSH0 SWAP1 PUSH0 SWAP1 JUMP JUMPDEST POP PUSH0 SWAP2 POP DUP2 SWAP1 JUMP JUMPDEST PUSH0 MSTORE PUSH1 0x45 PUSH1 0x20 MSTORE PUSH1 0x40 PUSH0 KECCAK256 DUP2 PUSH0 MSTORE PUSH1 0x43 PUSH1 0x20 MSTORE PUSH1 0x40 PUSH0 KECCAK256 SWAP1 PUSH1 0xFF PUSH1 0x8 DUP4 ADD SLOAD AND ISZERO SWAP3 DUP4 ISZERO PUSH2 0x312D JUMPI JUMPDEST DUP4 ISZERO PUSH2 0x311D JUMPI JUMPDEST DUP4 ISZERO PUSH2 0x310E JUMPI JUMPDEST DUP4 ISZERO PUSH2 0x30F3 JUMPI JUMPDEST POP POP DUP2 ISZERO PUSH2 0x30E6 JUMPI JUMPDEST POP PUSH2 0x30E2 JUMPI PUSH1 0x1 SWAP1 JUMP JUMPDEST PUSH0 SWAP1 JUMP JUMPDEST PUSH1 0x3 SWAP2 POP ADD SLOAD ISZERO PUSH0 PUSH2 0x30D8 JUMP JUMPDEST PUSH1 0x3 SWAP3 SWAP4 POP PUSH0 MSTORE ADD PUSH1 0x20 MSTORE PUSH1 0xFF PUSH1 0x40 PUSH0 KECCAK256 SLOAD AND SWAP1 PUSH0 DUP1 PUSH2 0x30CF JUMP JUMPDEST DUP1 SWAP4 POP PUSH1 0x1 DUP3 ADD SLOAD GT SWAP3 PUSH2 0x30C8 JUMP JUMPDEST PUSH1 0x4 DUP3 ADD SLOAD PUSH1 0xFF AND ISZERO SWAP4 POP PUSH2 0x30C1 JUMP JUMPDEST PUSH1 0x40 SLOAD DUP2 LT ISZERO SWAP4 POP PUSH2 0x30BA JUMP JUMPDEST DUP1 SLOAD PUSH1 0x1 PUSH1 0x40 SHL DUP2 LT ISZERO PUSH2 0x2FDB JUMPI PUSH2 0x3157 SWAP2 PUSH1 0x1 DUP3 ADD DUP2 SSTORE PUSH2 0x2A09 JUMP JUMPDEST DUP2 SWAP3 SWAP2 SLOAD SWAP1 PUSH1 0x3 SHL SWAP2 DUP3 SHL SWAP2 PUSH0 NOT SWAP1 SHL NOT AND OR SWAP1 SSTORE JUMP JUMPDEST PUSH1 0x2 PUSH0 SLOAD EQ PUSH2 0x317D JUMPI PUSH1 0x2 PUSH0 SSTORE JUMP JUMPDEST PUSH1 0x40 MLOAD PUSH3 0x461BCD PUSH1 0xE5 SHL DUP2 MSTORE PUSH1 0x20 PUSH1 0x4 DUP3 ADD MSTORE PUSH1 0x1F PUSH1 0x24 DUP3 ADD MSTORE PUSH32 0x5265656E7472616E637947756172643A207265656E7472616E742063616C6C00 PUSH1 0x44 DUP3 ADD MSTORE PUSH1 0x64 SWAP1 REVERT JUMPDEST SWAP1 SWAP2 SWAP4 DUP2 PUSH0 MSTORE PUSH1 0x10 PUSH1 0x20 MSTORE PUSH1 0x40 PUSH0 KECCAK256 SWAP4 PUSH1 0x1 DUP1 PUSH1 0xA0 SHL SUB DUP6 SLOAD AND SWAP2 DUP3 ISZERO PUSH2 0x123B JUMPI DUP7 ISZERO PUSH2 0x1208 JUMPI DUP4 PUSH0 SWAP7 SWAP6 SWAP7 MSTORE PUSH1 0x11 PUSH1 0x20 MSTORE PUSH1 0x40 PUSH0 KECCAK256 PUSH2 0x3203 DUP9 DUP3 SLOAD PUSH2 0x2B93 JUMP JUMPDEST DUP2 SSTORE PUSH1 0x1 DUP2 ADD PUSH2 0x3214 DUP10 DUP3 SLOAD PUSH2 0x2B93 JUMP JUMPDEST SWAP1 SSTORE SLOAD SWAP6 PUSH1 0xB DUP7 ADD SLOAD SWAP5 PUSH1 0x6 PUSH0 SWAP8 ADD SWAP8 JUMPDEST DUP9 SLOAD DUP9 LT ISZERO PUSH2 0x3373 JUMPI PUSH2 0x3237 DUP9 PUSH2 0x29AB JUMP JUMPDEST SWAP1 SLOAD SWAP1 PUSH1 0x3 SHL SHR DUP3 PUSH0 MSTORE PUSH1 0xE PUSH1 0x20 MSTORE PUSH1 0x40 PUSH0 KECCAK256 DUP2 PUSH0 MSTORE PUSH1 0x20 MSTORE DUP8 PUSH1 0x40 PUSH0 KECCAK256 SWAP2 PUSH1 0x3 DUP4 ADD PUSH1 0xFF DUP2 SLOAD AND DUP1 ISZERO SWAP1 DUP2 DUP1 SWAP3 PUSH2 0x335D JUMPI JUMPDEST ISZERO PUSH2 0x3299 JUMPI POP POP SWAP2 PUSH1 0xA PUSH2 0x10A2 DUP3 PUSH1 0x1 SWAP8 SWAP5 PUSH2 0x3290 SWAP8 SWAP7 DUP10 PUSH1 0xFF NOT DUP3 SLOAD AND OR SWAP1 SSTORE PUSH2 0x3007 JUMP JUMPDEST SWAP8 JUMPDEST ADD SWAP7 PUSH2 0x3225 JUMP JUMPDEST SWAP2 POP SWAP3 POP DUP1 PUSH2 0x3348 JUMPI JUMPDEST ISZERO PUSH2 0x32C1 JUMPI POP POP PUSH1 0x1 SWAP2 PUSH1 0x2 PUSH2 0x32BB SWAP3 ADD SLOAD SWAP1 PUSH2 0x2BA0 JUMP JUMPDEST SWAP8 PUSH2 0x3292 JUMP JUMPDEST SWAP3 SWAP10 SWAP3 DUP10 SWAP1 DUP3 PUSH2 0x3330 JUMPI JUMPDEST POP POP PUSH2 0x32DB JUMPI POP PUSH1 0x1 SWAP1 PUSH2 0x3292 JUMP JUMPDEST SWAP2 SWAP8 SWAP4 SWAP10 SWAP6 SWAP7 POP POP PUSH1 0x1 SWAP2 SWAP8 POP ADD SSTORE JUMPDEST PUSH1 0x1 SLOAD PUSH2 0x3304 SWAP1 DUP4 SWAP1 DUP6 SWAP1 PUSH1 0x1 PUSH1 0x1 PUSH1 0xA0 SHL SUB AND PUSH2 0x3E7F JUMP JUMPDEST PUSH1 0x40 MLOAD SWAP2 DUP3 MSTORE PUSH1 0x20 DUP3 ADD MSTORE PUSH1 0x80 DUP2 PUSH1 0x1 PUSH1 0x40 PUSH0 MLOAD PUSH1 0x20 PUSH2 0x400B PUSH0 CODECOPY PUSH0 MLOAD SWAP1 PUSH0 MSTORE SWAP5 ADD MSTORE TIMESTAMP PUSH1 0x60 DUP3 ADD MSTORE LOG4 JUMP JUMPDEST PUSH1 0xA SWAP3 POP SWAP1 PUSH2 0x333E SWAP2 PUSH2 0x3007 JUMP JUMPDEST DIV DUP10 LT DUP9 PUSH0 PUSH2 0x32CC JUMP JUMPDEST POP PUSH1 0xA PUSH2 0x3355 DUP12 DUP4 PUSH2 0x3007 JUMP JUMPDEST DIV DUP5 GT PUSH2 0x32A3 JUMP JUMPDEST POP PUSH1 0xA PUSH2 0x336A DUP7 DUP7 PUSH2 0x3007 JUMP JUMPDEST DIV DUP8 LT ISZERO PUSH2 0x326A JUMP JUMPDEST POP SWAP6 POP SWAP6 POP SWAP6 SWAP2 SWAP3 POP PUSH2 0x32EB JUMP JUMPDEST DUP1 PUSH0 MSTORE PUSH1 0x10 PUSH1 0x20 MSTORE PUSH1 0x40 PUSH0 KECCAK256 SWAP1 PUSH0 MSTORE PUSH1 0x11 PUSH1 0x20 MSTORE PUSH1 0xA PUSH2 0x33AD PUSH1 0x40 PUSH0 KECCAK256 SWAP3 DUP3 PUSH1 0xB DUP3 ADD SLOAD SWAP2 ADD SLOAD PUSH2 0x3007 JUMP JUMPDEST DIV SWAP1 SLOAD DUP2 DUP2 LT ISZERO PUSH2 0x33D3 JUMPI PUSH2 0x33C1 SWAP2 PUSH2 0x2BA0 JUMP JUMPDEST SWAP1 DUP2 DUP2 GT ISZERO PUSH2 0x33CE JUMPI POP SWAP1 JUMP JUMPDEST SWAP1 POP SWAP1 JUMP JUMPDEST POP POP POP PUSH0 SWAP1 JUMP JUMPDEST PUSH1 0x2 SLOAD PUSH1 0x1 PUSH1 0x1 PUSH1 0xA0 SHL SUB AND SWAP1 DUP2 ISZERO PUSH2 0x345D JUMPI PUSH1 0x1 SLOAD PUSH1 0x80 SWAP3 PUSH2 0x3408 SWAP2 DUP4 SWAP2 SWAP1 PUSH1 0x1 PUSH1 0x1 PUSH1 0xA0 SHL SUB AND PUSH2 0x3E7F JUMP JUMPDEST PUSH1 0x5 SLOAD PUSH0 MSTORE PUSH1 0x11 PUSH1 0x20 MSTORE PUSH1 0x40 PUSH0 KECCAK256 PUSH2 0x3421 DUP3 DUP3 SLOAD PUSH2 0x2B93 JUMP JUMPDEST SWAP1 SSTORE PUSH1 0x1 DUP1 PUSH1 0xA0 SHL SUB PUSH1 0x2 SLOAD AND PUSH0 MLOAD PUSH1 0x20 PUSH2 0x400B PUSH0 CODECOPY PUSH0 MLOAD SWAP1 PUSH0 MSTORE PUSH1 0x5 SLOAD SWAP4 DUP5 SWAP4 PUSH1 0x40 MLOAD SWAP1 DUP2 MSTORE PUSH0 PUSH1 0x20 DUP3 ADD MSTORE PUSH0 PUSH1 0x40 DUP3 ADD MSTORE TIMESTAMP PUSH1 0x60 DUP3 ADD MSTORE LOG4 JUMP JUMPDEST PUSH1 0x40 MLOAD PUSH3 0x461BCD PUSH1 0xE5 SHL DUP2 MSTORE PUSH1 0x20 PUSH1 0x4 DUP3 ADD MSTORE PUSH1 0x11 PUSH1 0x24 DUP3 ADD MSTORE PUSH17 0x199959481859191C9CC81B9BDD081CD95D PUSH1 0x7A SHL PUSH1 0x44 DUP3 ADD MSTORE PUSH1 0x64 SWAP1 REVERT JUMPDEST SWAP1 PUSH0 MSTORE PUSH1 0xC PUSH1 0x20 MSTORE PUSH1 0x40 PUSH0 KECCAK256 SLOAD SWAP1 DUP2 ISZERO DUP1 ISZERO PUSH2 0x34FF JUMPI JUMPDEST PUSH2 0x34EC JUMPI PUSH8 0xDE0B6B3A7640000 DUP2 MUL SWAP1 DUP1 DUP3 DIV PUSH8 0xDE0B6B3A7640000 EQ SWAP1 ISZERO OR ISZERO PUSH2 0x271F JUMPI PUSH2 0x34E7 SWAP2 PUSH2 0x34DF SWAP2 PUSH2 0x2BAD JUMP JUMPDEST PUSH1 0x9 SLOAD PUSH2 0x2B93 JUMP JUMPDEST PUSH1 0x9 SSTORE JUMP JUMPDEST DUP1 SWAP2 POP PUSH2 0x34F6 JUMPI POP JUMP JUMPDEST PUSH2 0x2C93 SWAP1 PUSH2 0x33DA JUMP JUMPDEST POP DUP1 ISZERO PUSH2 0x34AD JUMP JUMPDEST DUP1 ISZERO DUP1 ISZERO PUSH2 0x352C JUMPI JUMPDEST PUSH2 0x3521 JUMPI SWAP2 PUSH1 0x1 SWAP2 PUSH2 0x2C93 SWAP4 PUSH2 0x31C2 JUMP JUMPDEST POP POP PUSH2 0x2C93 SWAP1 PUSH2 0x33DA JUMP JUMPDEST POP PUSH1 0x5 SLOAD DUP2 EQ PUSH2 0x3510 JUMP JUMPDEST SWAP3 SWAP2 SWAP1 DUP4 ISZERO DUP1 ISZERO PUSH2 0x355D JUMPI JUMPDEST PUSH2 0x3550 JUMPI PUSH2 0x2C93 SWAP4 PUSH2 0x31C2 JUMP JUMPDEST POP SWAP1 POP PUSH2 0x2C93 SWAP2 POP PUSH2 0x33DA JUMP JUMPDEST POP PUSH1 0x5 SLOAD DUP5 EQ PUSH2 0x3543 JUMP JUMPDEST PUSH0 NOT DUP2 EQ PUSH2 0x271F JUMPI PUSH1 0x1 ADD SWAP1 JUMP JUMPDEST SWAP3 SWAP1 SWAP3 PUSH1 0x5 SLOAD DUP2 EQ DUP1 ISZERO PUSH2 0x37FD JUMPI JUMPDEST PUSH2 0x37F1 JUMPI PUSH1 0x1 JUMPDEST DUP3 DUP2 LT PUSH2 0x37C0 JUMPI POP SWAP3 PUSH0 SWAP4 JUMPDEST DUP1 ISZERO ISZERO DUP1 PUSH2 0x37B4 JUMPI JUMPDEST DUP1 PUSH2 0x37AA JUMPI JUMPDEST ISZERO PUSH2 0x379D JUMPI DUP1 PUSH0 MSTORE PUSH1 0x10 PUSH1 0x20 MSTORE PUSH1 0x40 PUSH0 KECCAK256 SWAP1 DUP4 PUSH1 0x6 DUP4 ADD SLOAD LT ISZERO PUSH2 0x35DA JUMPI POP PUSH1 0x5 PUSH2 0x35D4 SWAP2 ADD SLOAD SWAP5 PUSH2 0x3568 JUMP JUMPDEST SWAP4 PUSH2 0x3598 JUMP JUMPDEST SWAP3 SWAP5 POP POP SWAP2 SWAP4 DUP2 PUSH0 MSTORE PUSH1 0x10 PUSH1 0x20 MSTORE PUSH1 0x40 PUSH0 KECCAK256 SWAP4 PUSH1 0x1 DUP1 PUSH1 0xA0 SHL SUB DUP6 SLOAD AND SWAP2 DUP3 ISZERO PUSH2 0x123B JUMPI DUP7 ISZERO PUSH2 0x1208 JUMPI DUP4 PUSH0 SWAP7 SWAP6 SWAP7 MSTORE PUSH1 0x11 PUSH1 0x20 MSTORE PUSH1 0x40 PUSH0 KECCAK256 PUSH2 0x361E DUP9 DUP3 SLOAD PUSH2 0x2B93 JUMP JUMPDEST DUP2 SSTORE PUSH1 0x2 DUP2 ADD PUSH2 0x362F DUP10 DUP3 SLOAD PUSH2 0x2B93 JUMP JUMPDEST SWAP1 SSTORE SLOAD SWAP6 PUSH1 0xB DUP7 ADD SLOAD SWAP5 PUSH1 0x6 PUSH0 SWAP8 ADD SWAP8 JUMPDEST DUP9 SLOAD DUP9 LT ISZERO PUSH2 0x378F JUMPI PUSH2 0x3652 DUP9 PUSH2 0x29AB JUMP JUMPDEST SWAP1 SLOAD SWAP1 PUSH1 0x3 SHL SHR DUP3 PUSH0 MSTORE PUSH1 0xE PUSH1 0x20 MSTORE PUSH1 0x40 PUSH0 KECCAK256 DUP2 PUSH0 MSTORE PUSH1 0x20 MSTORE DUP8 PUSH1 0x40 PUSH0 KECCAK256 SWAP2 PUSH1 0x3 DUP4 ADD PUSH1 0xFF DUP2 SLOAD AND DUP1 ISZERO SWAP1 DUP2 DUP1 SWAP3 PUSH2 0x3779 JUMPI JUMPDEST ISZERO PUSH2 0x36B4 JUMPI POP POP SWAP2 PUSH1 0xA PUSH2 0x10A2 DUP3 PUSH1 0x1 SWAP8 SWAP5 PUSH2 0x36AB SWAP8 SWAP7 DUP10 PUSH1 0xFF NOT DUP3 SLOAD AND OR SWAP1 SSTORE PUSH2 0x3007 JUMP JUMPDEST SWAP8 JUMPDEST ADD SWAP7 PUSH2 0x3640 JUMP JUMPDEST SWAP2 POP SWAP3 POP DUP1 PUSH2 0x3764 JUMPI JUMPDEST ISZERO PUSH2 0x36DC JUMPI POP POP PUSH1 0x1 SWAP2 PUSH1 0x2 PUSH2 0x36D6 SWAP3 ADD SLOAD SWAP1 PUSH2 0x2BA0 JUMP JUMPDEST SWAP8 PUSH2 0x36AD JUMP JUMPDEST SWAP3 SWAP10 SWAP3 DUP10 SWAP1 DUP3 PUSH2 0x374C JUMPI JUMPDEST POP POP PUSH2 0x36F6 JUMPI POP PUSH1 0x1 SWAP1 PUSH2 0x36AD JUMP JUMPDEST SWAP2 SWAP8 SWAP4 SWAP10 SWAP6 SWAP7 POP POP PUSH1 0x1 SWAP2 SWAP8 POP ADD SSTORE JUMPDEST PUSH1 0x1 SLOAD PUSH2 0x371F SWAP1 DUP4 SWAP1 DUP6 SWAP1 PUSH1 0x1 PUSH1 0x1 PUSH1 0xA0 SHL SUB AND PUSH2 0x3E7F JUMP JUMPDEST PUSH1 0x40 MLOAD SWAP2 DUP3 MSTORE PUSH1 0x20 DUP3 ADD MSTORE PUSH1 0x2 DUP2 PUSH1 0x80 SWAP2 PUSH1 0x40 PUSH0 MLOAD PUSH1 0x20 PUSH2 0x400B PUSH0 CODECOPY PUSH0 MLOAD SWAP1 PUSH0 MSTORE SWAP5 ADD MSTORE TIMESTAMP PUSH1 0x60 DUP3 ADD MSTORE LOG4 JUMP JUMPDEST PUSH1 0xA SWAP3 POP SWAP1 PUSH2 0x375A SWAP2 PUSH2 0x3007 JUMP JUMPDEST DIV DUP10 LT DUP9 PUSH0 PUSH2 0x36E7 JUMP JUMPDEST POP PUSH1 0xA PUSH2 0x3771 DUP12 DUP4 PUSH2 0x3007 JUMP JUMPDEST DIV DUP5 GT PUSH2 0x36BE JUMP JUMPDEST POP PUSH1 0xA PUSH2 0x3786 DUP7 DUP7 PUSH2 0x3007 JUMP JUMPDEST DIV DUP8 LT ISZERO PUSH2 0x3685 JUMP JUMPDEST POP SWAP6 POP SWAP6 POP SWAP6 SWAP2 SWAP3 POP PUSH2 0x3706 JUMP JUMPDEST POP POP POP PUSH2 0x2C93 SWAP2 POP PUSH2 0x33DA JUMP JUMPDEST POP PUSH1 0xF DUP6 LT PUSH2 0x35A7 JUMP JUMPDEST POP PUSH1 0x5 SLOAD DUP2 EQ ISZERO PUSH2 0x35A1 JUMP JUMPDEST SWAP1 PUSH0 MSTORE PUSH1 0x10 PUSH1 0x20 MSTORE PUSH1 0x5 PUSH1 0x40 PUSH0 KECCAK256 ADD SLOAD SWAP1 DUP2 ISZERO DUP1 ISZERO PUSH2 0x37E6 JUMPI JUMPDEST PUSH2 0x379D JUMPI PUSH1 0x1 ADD PUSH2 0x358C JUMP JUMPDEST POP PUSH1 0x5 SLOAD DUP3 EQ PUSH2 0x37DA JUMP JUMPDEST POP POP PUSH2 0x2C93 SWAP2 POP PUSH2 0x33DA JUMP JUMPDEST POP DUP1 ISZERO PUSH2 0x3585 JUMP JUMPDEST SWAP1 SWAP2 SWAP5 SWAP4 SWAP3 SWAP5 PUSH2 0x1A0 MSTORE DUP1 ISZERO DUP1 ISZERO PUSH2 0x3BA4 JUMPI JUMPDEST DUP1 ISZERO PUSH2 0x3B9C JUMPI JUMPDEST PUSH2 0x3B8B JUMPI PUSH2 0x3830 DUP4 PUSH2 0x1A0 MLOAD PUSH2 0x2BAD JUMP JUMPDEST PUSH2 0x2A0 MSTORE PUSH2 0x384D PUSH2 0x3844 DUP5 PUSH2 0x2A0 MLOAD PUSH2 0x3007 JUMP JUMPDEST PUSH2 0x1A0 MLOAD PUSH2 0x2BA0 JUMP JUMPDEST PUSH2 0x200 MSTORE SWAP4 PUSH0 SWAP3 PUSH0 PUSH2 0x1C0 MSTORE PUSH1 0x1 SWAP2 PUSH0 PUSH2 0x220 MSTORE JUMPDEST PUSH1 0x1E PUSH2 0x220 MLOAD LT PUSH2 0x38AD JUMPI JUMPDEST POP POP POP POP PUSH2 0x3881 SWAP2 SWAP3 POP PUSH2 0x1A0 MLOAD PUSH2 0x2BA0 JUMP JUMPDEST DUP1 PUSH2 0x389E JUMPI JUMPDEST POP PUSH2 0x200 MLOAD PUSH2 0x3892 JUMPI JUMP JUMPDEST PUSH2 0x2C93 PUSH2 0x200 MLOAD PUSH2 0x33DA JUMP JUMPDEST PUSH2 0x38A7 SWAP1 PUSH2 0x33DA JUMP JUMPDEST PUSH0 PUSH2 0x3887 JUMP JUMPDEST SWAP1 SWAP2 SWAP3 SWAP5 SWAP4 DUP7 ISZERO DUP1 ISZERO PUSH2 0x3B80 JUMPI JUMPDEST PUSH2 0x3B64 JUMPI PUSH0 DUP8 DUP2 MSTORE PUSH1 0x10 PUSH1 0x20 MSTORE PUSH1 0x40 SWAP1 KECCAK256 PUSH2 0x240 DUP2 SWAP1 MSTORE PUSH1 0x6 ADD SLOAD DUP3 GT PUSH2 0x3B45 JUMPI PUSH2 0x38E9 DUP5 PUSH2 0x2A0 MLOAD PUSH2 0x3007 JUMP JUMPDEST PUSH0 DUP9 DUP2 MSTORE PUSH1 0x10 PUSH1 0x20 MSTORE PUSH1 0x40 SWAP1 KECCAK256 PUSH2 0x2C0 DUP2 SWAP1 MSTORE SLOAD PUSH1 0x1 PUSH1 0x1 PUSH1 0xA0 SHL SUB AND SWAP2 DUP3 ISZERO PUSH2 0x123B JUMPI DUP2 ISZERO PUSH2 0x1208 JUMPI DUP9 PUSH0 MSTORE PUSH1 0x11 PUSH1 0x20 MSTORE PUSH1 0x40 PUSH0 KECCAK256 PUSH2 0x392A DUP4 DUP3 SLOAD PUSH2 0x2B93 JUMP JUMPDEST DUP2 SSTORE PUSH1 0x3 DUP2 ADD PUSH2 0x393B DUP5 DUP3 SLOAD PUSH2 0x2B93 JUMP JUMPDEST SWAP1 SSTORE SLOAD PUSH2 0x260 MSTORE PUSH1 0xB PUSH2 0x2C0 MLOAD ADD SLOAD PUSH2 0x280 MSTORE PUSH0 JUMPDEST PUSH1 0x6 PUSH2 0x2C0 MLOAD ADD SLOAD DUP2 LT ISZERO PUSH2 0x3B37 JUMPI PUSH2 0x3968 DUP2 PUSH2 0x29AB JUMP JUMPDEST SWAP1 SLOAD SWAP1 PUSH1 0x3 SHL SHR SWAP1 DUP11 PUSH0 MSTORE PUSH1 0xE PUSH1 0x20 MSTORE PUSH1 0x40 PUSH0 KECCAK256 DUP3 PUSH0 MSTORE PUSH1 0x20 MSTORE PUSH1 0x40 PUSH0 KECCAK256 PUSH2 0x1E0 MSTORE PUSH1 0xFF PUSH1 0x3 PUSH2 0x1E0 MLOAD ADD SLOAD AND SWAP2 DUP3 ISZERO DUP1 DUP1 SWAP2 PUSH2 0x3B1B JUMPI JUMPDEST ISZERO PUSH2 0x39FA JUMPI POP PUSH1 0x1 SWAP3 POP PUSH1 0xA PUSH2 0x39D3 PUSH2 0x39EF SWAP3 DUP6 PUSH1 0xFF NOT PUSH1 0x3 PUSH2 0x1E0 MLOAD ADD SLOAD AND OR PUSH1 0x3 PUSH2 0x1E0 MLOAD ADD SSTORE PUSH2 0x280 MLOAD SWAP1 PUSH2 0x3007 JUMP JUMPDEST DIV DUP1 PUSH1 0x2 PUSH2 0x1E0 MLOAD ADD SSTORE PUSH2 0x280 MLOAD PUSH2 0x1E0 MLOAD SSTORE PUSH2 0x260 MLOAD PUSH2 0x2BA0 JUMP JUMPDEST PUSH2 0x260 MSTORE JUMPDEST ADD PUSH2 0x3950 JUMP JUMPDEST SWAP2 SWAP3 DUP1 PUSH2 0x3B00 JUMPI JUMPDEST ISZERO PUSH2 0x3A29 JUMPI POP POP PUSH1 0x1 SWAP1 PUSH2 0x3A20 PUSH1 0x2 PUSH2 0x1E0 MLOAD ADD SLOAD PUSH2 0x260 MLOAD PUSH2 0x2BA0 JUMP JUMPDEST PUSH2 0x260 MSTORE PUSH2 0x39F4 JUMP JUMPDEST DUP2 PUSH2 0x3AE3 JUMPI JUMPDEST POP PUSH2 0x3A3C JUMPI PUSH1 0x1 SWAP1 PUSH2 0x39F4 JUMP JUMPDEST POP PUSH2 0x260 SWAP9 SWAP3 SWAP4 SWAP9 SWAP8 SWAP6 SWAP7 SWAP8 MLOAD PUSH1 0x1 PUSH2 0x1E0 MLOAD ADD SSTORE JUMPDEST PUSH1 0x1 SLOAD PUSH2 0x3A6B SWAP1 DUP4 SWAP1 DUP7 SWAP1 PUSH1 0x1 PUSH1 0x1 PUSH1 0xA0 SHL SUB AND PUSH2 0x3E7F JUMP JUMPDEST PUSH1 0x40 MLOAD DUP3 DUP2 MSTORE PUSH1 0x20 DUP2 ADD DUP11 SWAP1 MSTORE SWAP3 PUSH1 0x3 SWAP1 PUSH2 0x3AB1 SWAP6 PUSH0 MLOAD PUSH1 0x20 PUSH2 0x400B PUSH0 CODECOPY PUSH0 MLOAD SWAP1 PUSH0 MSTORE PUSH1 0x80 DUP8 DUP12 SWAP6 PUSH1 0x40 PUSH2 0x3AA7 SWAP11 ADD MSTORE TIMESTAMP PUSH1 0x60 DUP3 ADD MSTORE LOG4 PUSH2 0x2B93 JUMP JUMPDEST SWAP4 PUSH2 0x1C0 MLOAD PUSH2 0x2B93 JUMP JUMPDEST PUSH2 0x1C0 MSTORE PUSH1 0x1 SWAP1 JUMPDEST DUP1 PUSH2 0x1C0 MLOAD LT ISZERO PUSH2 0x3ADD JUMPI PUSH1 0x5 PUSH2 0x240 MLOAD ADD SLOAD SWAP6 PUSH1 0x1 PUSH2 0x220 MLOAD ADD PUSH2 0x220 MSTORE PUSH2 0x3862 JUMP JUMPDEST DUP1 PUSH2 0x386E JUMP JUMPDEST PUSH2 0x280 MLOAD PUSH1 0xA SWAP3 POP PUSH2 0x3AF4 SWAP2 PUSH2 0x3007 JUMP JUMPDEST DIV PUSH2 0x260 MLOAD LT PUSH0 PUSH2 0x3A2F JUMP JUMPDEST POP PUSH1 0xA PUSH2 0x3B10 PUSH2 0x280 MLOAD DUP4 PUSH2 0x3007 JUMP JUMPDEST DIV PUSH2 0x260 MLOAD GT PUSH2 0x3A02 JUMP JUMPDEST POP PUSH1 0xA PUSH2 0x3B2B PUSH2 0x280 MLOAD DUP5 PUSH2 0x3007 JUMP JUMPDEST DIV PUSH2 0x260 MLOAD LT ISZERO PUSH2 0x39A0 JUMP JUMPDEST POP SWAP8 SWAP2 SWAP3 SWAP8 SWAP7 SWAP5 SWAP6 SWAP7 PUSH2 0x3A52 JUMP JUMPDEST SWAP4 SWAP5 SWAP3 SWAP2 DUP1 SWAP2 SWAP7 POP DUP3 LT ISZERO PUSH2 0x3AB9 JUMPI SWAP1 PUSH2 0x3B5E SWAP1 PUSH2 0x3568 JUMP JUMPDEST SWAP1 PUSH2 0x3AB9 JUMP JUMPDEST SWAP4 SWAP6 POP POP POP POP PUSH2 0x3B78 SWAP2 POP PUSH2 0x1A0 MLOAD PUSH2 0x2BA0 JUMP JUMPDEST DUP1 PUSH2 0x34F6 JUMPI POP JUMP JUMPDEST POP PUSH1 0x5 SLOAD DUP8 EQ PUSH2 0x38BB JUMP JUMPDEST POP POP POP SWAP1 POP PUSH2 0x2C93 PUSH2 0x1A0 MLOAD PUSH2 0x33DA JUMP JUMPDEST POP DUP3 ISZERO PUSH2 0x381F JUMP JUMPDEST POP PUSH1 0x5 SLOAD DUP2 EQ PUSH2 0x3818 JUMP JUMPDEST SWAP1 DUP2 PUSH0 MSTORE PUSH1 0x45 PUSH1 0x20 MSTORE PUSH1 0xFF PUSH1 0x4 PUSH1 0x40 PUSH0 KECCAK256 ADD SLOAD AND ISZERO PUSH2 0x3BCC JUMPI POP POP JUMP JUMPDEST PUSH2 0x3BD9 PUSH1 0x40 SLOAD DUP3 EQ PUSH2 0x3F18 JUMP JUMPDEST DUP1 PUSH0 MSTORE PUSH1 0x43 PUSH1 0x20 MSTORE PUSH2 0x3BF5 PUSH1 0xFF PUSH1 0x8 PUSH1 0x40 PUSH0 KECCAK256 ADD SLOAD AND ISZERO PUSH2 0x3F54 JUMP JUMPDEST DUP2 PUSH0 MSTORE PUSH1 0x10 PUSH1 0x20 MSTORE PUSH1 0x40 PUSH0 KECCAK256 PUSH1 0x12 DUP2 ADD SLOAD SWAP1 DUP2 ISZERO PUSH2 0x3D0C JUMPI PUSH1 0x11 DUP2 ADD SLOAD PUSH3 0x83D600 DUP2 ADD DUP1 SWAP2 GT PUSH2 0x271F JUMPI PUSH2 0x3C4C SWAP3 GT ISZERO SWAP1 PUSH1 0x5 PUSH1 0x14 PUSH1 0xA PUSH1 0x6 DUP5 ADD SLOAD LT ISZERO SWAP3 ADD SLOAD LT ISZERO SWAP1 DUP3 PUSH2 0x3D04 JUMPI JUMPDEST POP DUP2 PUSH2 0x3CFC JUMPI JUMPDEST POP PUSH2 0x3F8F JUMP JUMPDEST DUP2 PUSH0 MSTORE PUSH1 0x45 PUSH1 0x20 MSTORE PUSH1 0x40 PUSH0 KECCAK256 SWAP2 PUSH1 0x4 DUP4 ADD PUSH2 0x3C6B PUSH1 0xFF DUP3 SLOAD AND ISZERO PUSH2 0x3FCA JUMP JUMPDEST PUSH1 0x44 SLOAD SWAP4 PUSH1 0x1 PUSH1 0x40 SHL DUP6 LT ISZERO PUSH2 0x2FDB JUMPI PUSH1 0x1 DUP5 SWAP2 PUSH2 0x3CB1 DUP8 DUP4 PUSH32 0x42EE5EF523A95C6FB3FFDD2E9B34955B83EA8C2B11FF268C87AE6EA25556EAAC SWAP10 ADD PUSH1 0x44 SSTORE PUSH1 0x44 PUSH2 0x2A09 JUMP JUMPDEST DUP2 SLOAD SWAP1 PUSH1 0x3 SHL SWAP1 DUP8 DUP3 SHL SWAP2 PUSH0 NOT SWAP1 SHL NOT AND OR SWAP1 SSTORE TIMESTAMP DUP2 SSTORE ADD SSTORE PUSH1 0x1 PUSH1 0xFF NOT DUP3 SLOAD AND OR SWAP1 SSTORE PUSH2 0x3CF7 PUSH1 0x40 MLOAD SWAP3 DUP4 SWAP3 TIMESTAMP SWAP2 DUP5 PUSH1 0x40 SWAP2 SWAP5 SWAP4 SWAP3 PUSH1 0x60 DUP3 ADD SWAP6 DUP3 MSTORE PUSH1 0x20 DUP3 ADD MSTORE ADD MSTORE JUMP JUMPDEST SUB SWAP1 LOG1 JUMP JUMPDEST SWAP1 POP PUSH0 PUSH2 0x3C46 JUMP JUMPDEST SWAP2 POP PUSH0 PUSH2 0x3C3F JUMP JUMPDEST PUSH1 0x40 MLOAD PUSH3 0x461BCD PUSH1 0xE5 SHL DUP2 MSTORE PUSH1 0x20 PUSH1 0x4 DUP3 ADD MSTORE PUSH1 0x11 PUSH1 0x24 DUP3 ADD MSTORE PUSH17 0x55736572206E6F74206C6576656C20313 PUSH1 0x7C SHL PUSH1 0x44 DUP3 ADD MSTORE PUSH1 0x64 SWAP1 REVERT JUMPDEST SWAP1 DUP2 PUSH0 MSTORE PUSH1 0x4C PUSH1 0x20 MSTORE PUSH1 0xFF PUSH1 0x4 PUSH1 0x40 PUSH0 KECCAK256 ADD SLOAD AND ISZERO PUSH2 0x3D62 JUMPI POP POP JUMP JUMPDEST PUSH2 0x3D6F PUSH1 0x47 SLOAD DUP3 EQ PUSH2 0x3F18 JUMP JUMPDEST DUP1 PUSH0 MSTORE PUSH1 0x4A PUSH1 0x20 MSTORE PUSH2 0x3D8B PUSH1 0xFF PUSH1 0x8 PUSH1 0x40 PUSH0 KECCAK256 ADD SLOAD AND ISZERO PUSH2 0x3F54 JUMP JUMPDEST DUP2 PUSH0 MSTORE PUSH1 0x10 PUSH1 0x20 MSTORE PUSH1 0x40 PUSH0 KECCAK256 PUSH1 0x13 DUP2 ADD SLOAD SWAP1 DUP2 ISZERO PUSH2 0x3E46 JUMPI PUSH1 0x11 DUP2 ADD SLOAD PUSH4 0x2514300 DUP2 ADD DUP1 SWAP2 GT PUSH2 0x271F JUMPI PUSH2 0x3DE1 SWAP3 GT ISZERO SWAP1 PUSH1 0x2 PUSH1 0x15 PUSH1 0xF PUSH1 0x6 DUP5 ADD SLOAD LT ISZERO SWAP3 ADD SLOAD LT ISZERO SWAP1 DUP3 PUSH2 0x3D04 JUMPI POP DUP2 PUSH2 0x3CFC JUMPI POP PUSH2 0x3F8F JUMP JUMPDEST DUP2 PUSH0 MSTORE PUSH1 0x4C PUSH1 0x20 MSTORE PUSH1 0x40 PUSH0 KECCAK256 SWAP2 PUSH1 0x4 DUP4 ADD PUSH2 0x3E00 PUSH1 0xFF DUP3 SLOAD AND ISZERO PUSH2 0x3FCA JUMP JUMPDEST PUSH1 0x4B SLOAD SWAP4 PUSH1 0x1 PUSH1 0x40 SHL DUP6 LT ISZERO PUSH2 0x2FDB JUMPI PUSH1 0x1 DUP5 SWAP2 PUSH2 0x3CB1 DUP8 DUP4 PUSH32 0x42EE5EF523A95C6FB3FFDD2E9B34955B83EA8C2B11FF268C87AE6EA25556EAAC SWAP10 ADD PUSH1 0x4B SSTORE PUSH1 0x4B PUSH2 0x2A09 JUMP JUMPDEST PUSH1 0x40 MLOAD PUSH3 0x461BCD PUSH1 0xE5 SHL DUP2 MSTORE PUSH1 0x20 PUSH1 0x4 DUP3 ADD MSTORE PUSH1 0x11 PUSH1 0x24 DUP3 ADD MSTORE PUSH17 0x55736572206E6F74206C6576656C203135 PUSH1 0x78 SHL PUSH1 0x44 DUP3 ADD MSTORE PUSH1 0x64 SWAP1 REVERT JUMPDEST PUSH1 0x40 MLOAD PUSH4 0xA9059CBB PUSH1 0xE0 SHL PUSH1 0x20 DUP3 DUP2 ADD SWAP2 DUP3 MSTORE PUSH1 0x1 PUSH1 0x1 PUSH1 0xA0 SHL SUB SWAP1 SWAP5 AND PUSH1 0x24 DUP4 ADD MSTORE PUSH1 0x44 DUP1 DUP4 ADD SWAP6 SWAP1 SWAP6 MSTORE SWAP4 DUP2 MSTORE SWAP1 SWAP3 PUSH0 SWAP2 PUSH2 0x3EBD PUSH1 0x64 DUP3 PUSH2 0x2FB9 JUMP JUMPDEST MLOAD SWAP1 DUP3 DUP6 GAS CALL ISZERO PUSH2 0x3F0D JUMPI PUSH0 MLOAD RETURNDATASIZE PUSH2 0x3F04 JUMPI POP PUSH1 0x1 PUSH1 0x1 PUSH1 0xA0 SHL SUB DUP2 AND EXTCODESIZE ISZERO JUMPDEST PUSH2 0x3EE4 JUMPI POP JUMP JUMPDEST PUSH4 0x5274AFE7 PUSH1 0xE0 SHL PUSH0 SWAP1 DUP2 MSTORE PUSH1 0x1 PUSH1 0x1 PUSH1 0xA0 SHL SUB SWAP2 SWAP1 SWAP2 AND PUSH1 0x4 MSTORE PUSH1 0x24 SWAP1 REVERT JUMPDEST PUSH1 0x1 EQ ISZERO PUSH2 0x3EDD JUMP JUMPDEST PUSH1 0x40 MLOAD RETURNDATASIZE PUSH0 DUP3 RETURNDATACOPY RETURNDATASIZE SWAP1 REVERT JUMPDEST ISZERO PUSH2 0x3F1F JUMPI JUMP JUMPDEST PUSH1 0x40 MLOAD PUSH3 0x461BCD PUSH1 0xE5 SHL DUP2 MSTORE PUSH1 0x20 PUSH1 0x4 DUP3 ADD MSTORE PUSH1 0xD PUSH1 0x24 DUP3 ADD MSTORE PUSH13 0x125B9D985B1A59081C9BDD5B99 PUSH1 0x9A SHL PUSH1 0x44 DUP3 ADD MSTORE PUSH1 0x64 SWAP1 REVERT JUMPDEST ISZERO PUSH2 0x3F5B JUMPI JUMP JUMPDEST PUSH1 0x40 MLOAD PUSH3 0x461BCD PUSH1 0xE5 SHL DUP2 MSTORE PUSH1 0x20 PUSH1 0x4 DUP3 ADD MSTORE PUSH1 0xC PUSH1 0x24 DUP3 ADD MSTORE PUSH12 0x149BDD5B990818DB1BDCD959 PUSH1 0xA2 SHL PUSH1 0x44 DUP3 ADD MSTORE PUSH1 0x64 SWAP1 REVERT JUMPDEST ISZERO PUSH2 0x3F96 JUMPI JUMP JUMPDEST PUSH1 0x40 MLOAD PUSH3 0x461BCD PUSH1 0xE5 SHL DUP2 MSTORE PUSH1 0x20 PUSH1 0x4 DUP3 ADD MSTORE PUSH1 0xC PUSH1 0x24 DUP3 ADD MSTORE PUSH12 0x4E6F7420656C696769626C65 PUSH1 0xA0 SHL PUSH1 0x44 DUP3 ADD MSTORE PUSH1 0x64 SWAP1 REVERT JUMPDEST ISZERO PUSH2 0x3FD1 JUMPI JUMP JUMPDEST PUSH1 0x40 MLOAD PUSH3 0x461BCD PUSH1 0xE5 SHL DUP2 MSTORE PUSH1 0x20 PUSH1 0x4 DUP3 ADD MSTORE PUSH1 0x11 PUSH1 0x24 DUP3 ADD MSTORE PUSH17 0x185B1C9958591E48145D585B1A599A5959 PUSH1 0x7A SHL PUSH1 0x44 DUP3 ADD MSTORE PUSH1 0x64 SWAP1 REVERT INVALID 0x4D PUSH4 0x4C31300B SWAP8 0xDA 0xD9 SWAP12 GASPRICE 0xF7 SWAP10 OR DUP3 ADDRESS AND RETURNDATASIZE DUP9 0xAD ADDRESS PUSH4 0x70D063BE SWAP13 0xD9 SWAP3 0xD0 0xBE PUSH32 0xA26469706673582212209AB898E64BB9148F7F193D0C4B4ABE515884D4142601 MLOAD SWAP16 PUSH11 0xDF80A1EB020B8264736F6C PUSH4 0x4300081E STOP CALLER 0xD7 0xB6 SWAP10 ADD SDIV PUSH18 0x9101DABEB77144F2A3385C8033ACD3AF97E9 TIMESTAMP GASPRICE PUSH10 0x5E81AD1EB5C624B66CC0 SGT DUP12 DUP16 0xAB 0xC2 MULMOD 0x24 PUSH32 0x72D758E1CF3343756D543BADBF24212BED8C15D833147D7DC355BA459FC788F6 PUSH10 0xE58CFAF9DC25DDCD0702 0xE8 PUSH30 0x69C7B5124289000000000000000000000000000000000000000000000000 "
		},
		"gasEstimates": {
			"creation": {
				"codeDepositCost": "3296000",
				"executionCost": "infinite",
				"totalCost": "infinite"
			},
			"external": {
				"ACC_PRECISION()": "637",
				"MONTHLY_ROYALTY_DIRECT()": "1737",
				"MONTHLY_ROYALTY_LEVEL()": "470",
				"MONTHLY_ROYALTY_TIME()": "1429",
				"MONTH_DURATION()": "483",
				"PERCENTS_DIVIDER()": "238",
				"ROI_2X_TIME()": "747",
				"ROI_CAP_DIVIDER()": "954",
				"ROI_CAP_MULTIPLIER()": "690",
				"TIME_STEP()": "615",
				"TOP_ROYALTY_DIRECT()": "593",
				"TOP_ROYALTY_LEVEL()": "514",
				"TOP_ROYALTY_TIME()": "1077",
				"WEEK_DURATION()": "1121",
				"WeeklyCapping()": "1825",
				"WeeklyTotalReward()": "2674",
				"addressToId(address)": "3889",
				"boosterUsers(uint256,uint256)": "8152",
				"canClaimMonthlyReward(uint256,uint256)": "14364",
				"claimCommunity(uint256,uint256)": "infinite",
				"claimMonthlyCRoyaltyReward(uint256,uint256)": "infinite",
				"claimTopRoyaltyReward(uint256,uint256)": "infinite",
				"claimWeeklyContestReward(uint256,uint256)": "infinite",
				"communityAccPerPackage(uint256)": "2982",
				"communityAccPerUser()": "3246",
				"communityDebt(uint256,uint256)": "3505",
				"creatorWallet()": "3292",
				"currentMonthlyRound()": "3730",
				"currentMonthlyStartTime()": "3884",
				"currentWeeklyRound()": "3752",
				"currentWeeklyStartTime()": "4055",
				"defaultRefId()": "3950",
				"directReferrals(uint256,uint256)": "7602",
				"glbBoosterPackages(uint256)": "6867",
				"incomeHistory(uint256,uint256)": "14073",
				"matrixDirect(uint256)": "3378",
				"minLevelForGlbBooster(uint256)": "3857",
				"minLevelForPool(uint256)": "2559",
				"minPoolForGlbBooster(uint256)": "3461",
				"monthlyCapping()": "1605",
				"monthlyQualifiedUsers(uint256)": "6955",
				"monthlyRoyaltyUserdtl(uint256)": "9385",
				"monthlyRoyaltydtl(uint256)": "20328",
				"monthlyTotalReward()": "3510",
				"monthlyUserDirects(uint256,uint256)": "8504",
				"packageQualifiedUsers(uint256)": "2450",
				"packages(uint256)": "8000",
				"pendingCommunity(uint256,uint256)": "infinite",
				"poolPackages(uint256)": "7879",
				"poolUsers(uint256,uint256)": "6910",
				"register(uint256)": "infinite",
				"registeredUserIds(uint256)": "7131",
				"systemMaintance()": "3930",
				"teamDevelopment()": "4040",
				"teams(uint256,uint256,uint256)": "7608",
				"topRoyaltyQualifiedUsers(uint256)": "8319",
				"topRoyaltyReward()": "3114",
				"topRoyaltyRound()": "2960",
				"topRoyaltyStartTime()": "3466",
				"topRoyaltyUserDirects(uint256,uint256)": "7448",
				"topRoyaltyUserdtl(uint256)": "10375",
				"topRoyaltydtl(uint256)": "19532",
				"totalUsers()": "3620",
				"upgrade(uint256)": "infinite",
				"usdt()": "2676",
				"userBoosterChildren(uint256,uint256,uint256)": "6958",
				"userBoosterdtl(uint256,uint256)": "12136",
				"userChildren(uint256,uint256,uint256)": "7916",
				"userHasPool(uint256,uint256)": "3759",
				"userHasbooster(uint256,uint256)": "3671",
				"userIdPerPool(uint256,uint256,uint256)": "7894",
				"userIncomes(uint256)": "26393",
				"userPackage(uint256,uint256)": "9710",
				"userPooldtl(uint256,uint256)": "12532",
				"userPooltopup(uint256,uint256)": "5896",
				"users(uint256)": "45577",
				"weeklyContestdtl(uint256)": "20834",
				"weeklyQualifiedUsers(uint256,uint256)": "6866",
				"weeklyUserDirects(uint256,uint256,uint256)": "7542",
				"weeklyUserdtl(uint256,uint256)": "8908"
			}
		},
		"methodIdentifiers": {
			"ACC_PRECISION()": "32fcd966",
			"MONTHLY_ROYALTY_DIRECT()": "d2f0490d",
			"MONTHLY_ROYALTY_LEVEL()": "23fd338e",
			"MONTHLY_ROYALTY_TIME()": "a5e52b99",
			"MONTH_DURATION()": "2a891534",
			"PERCENTS_DIVIDER()": "01c234a8",
			"ROI_2X_TIME()": "3a5084b3",
			"ROI_CAP_DIVIDER()": "58c7d352",
			"ROI_CAP_MULTIPLIER()": "375b43b4",
			"TIME_STEP()": "32bc298c",
			"TOP_ROYALTY_DIRECT()": "31bb6a30",
			"TOP_ROYALTY_LEVEL()": "2ae0ee0d",
			"TOP_ROYALTY_TIME()": "705fee2d",
			"WEEK_DURATION()": "76f5f700",
			"WeeklyCapping()": "ebe0ff15",
			"WeeklyTotalReward()": "3080b5bc",
			"addressToId(address)": "cb0e0d7d",
			"boosterUsers(uint256,uint256)": "c7bb62e8",
			"canClaimMonthlyReward(uint256,uint256)": "7d846e38",
			"claimCommunity(uint256,uint256)": "1c4ecf68",
			"claimMonthlyCRoyaltyReward(uint256,uint256)": "39f2e64a",
			"claimTopRoyaltyReward(uint256,uint256)": "97358004",
			"claimWeeklyContestReward(uint256,uint256)": "16298056",
			"communityAccPerPackage(uint256)": "45cb537c",
			"communityAccPerUser()": "78f6ad6d",
			"communityDebt(uint256,uint256)": "89043ece",
			"creatorWallet()": "7cdc65f2",
			"currentMonthlyRound()": "c9ed0708",
			"currentMonthlyStartTime()": "e898fc38",
			"currentWeeklyRound()": "ca8e9121",
			"currentWeeklyStartTime()": "fddc806f",
			"defaultRefId()": "ec597e6f",
			"directReferrals(uint256,uint256)": "5ec64a44",
			"glbBoosterPackages(uint256)": "2350268f",
			"incomeHistory(uint256,uint256)": "70c8d770",
			"matrixDirect(uint256)": "88afbe3e",
			"minLevelForGlbBooster(uint256)": "d0a2fd79",
			"minLevelForPool(uint256)": "2132d204",
			"minPoolForGlbBooster(uint256)": "956a3228",
			"monthlyCapping()": "c8df2908",
			"monthlyQualifiedUsers(uint256)": "2d66014f",
			"monthlyRoyaltyUserdtl(uint256)": "4036436c",
			"monthlyRoyaltydtl(uint256)": "6a424782",
			"monthlyTotalReward()": "a59d17d1",
			"monthlyUserDirects(uint256,uint256)": "f7a24806",
			"packageQualifiedUsers(uint256)": "0676d0d6",
			"packages(uint256)": "c216212a",
			"pendingCommunity(uint256,uint256)": "54c5bd90",
			"poolPackages(uint256)": "ae4708dc",
			"poolUsers(uint256,uint256)": "0f2b7cc9",
			"register(uint256)": "f207564e",
			"registeredUserIds(uint256)": "39ab3603",
			"systemMaintance()": "e9e34a16",
			"teamDevelopment()": "f5d74d93",
			"teams(uint256,uint256,uint256)": "5aabf7f1",
			"topRoyaltyQualifiedUsers(uint256)": "f5748c4f",
			"topRoyaltyReward()": "5b62d1d5",
			"topRoyaltyRound()": "4b8cbf9b",
			"topRoyaltyStartTime()": "9b40ab97",
			"topRoyaltyUserDirects(uint256,uint256)": "4d12ae0f",
			"topRoyaltyUserdtl(uint256)": "db27cc71",
			"topRoyaltydtl(uint256)": "056b4d1f",
			"totalUsers()": "bff1f9e1",
			"upgrade(uint256)": "45977d03",
			"usdt()": "2f48ab7d",
			"userBoosterChildren(uint256,uint256,uint256)": "0ef81b74",
			"userBoosterdtl(uint256,uint256)": "907c84a7",
			"userChildren(uint256,uint256,uint256)": "8f030ece",
			"userHasPool(uint256,uint256)": "bd1aae40",
			"userHasbooster(uint256,uint256)": "9c383486",
			"userIdPerPool(uint256,uint256,uint256)": "8d58644c",
			"userIncomes(uint256)": "46b9dece",
			"userPackage(uint256,uint256)": "5b58ce6c",
			"userPooldtl(uint256,uint256)": "ce79c2c3",
			"userPooltopup(uint256,uint256)": "bf724672",
			"users(uint256)": "365b98b2",
			"weeklyContestdtl(uint256)": "c4eb42a5",
			"weeklyQualifiedUsers(uint256,uint256)": "0a5c5d69",
			"weeklyUserDirects(uint256,uint256,uint256)": "4d4cc5ca",
			"weeklyUserdtl(uint256,uint256)": "0054815d"
		}
	},
	"abi": [
		{
			"inputs": [
				{
					"internalType": "address",
					"name": "_usdt",
					"type": "address"
				},
				{
					"internalType": "address",
					"name": "_creatorWallet",
					"type": "address"
				}
			],
			"stateMutability": "nonpayable",
			"type": "constructor"
		},
		{
			"inputs": [
				{
					"internalType": "address",
					"name": "token",
					"type": "address"
				}
			],
			"name": "SafeERC20FailedOperation",
			"type": "error"
		},
		{
			"anonymous": false,
			"inputs": [
				{
					"indexed": false,
					"internalType": "uint256",
					"name": "amount",
					"type": "uint256"
				},
				{
					"indexed": false,
					"internalType": "uint256",
					"name": "usersCount",
					"type": "uint256"
				},
				{
					"indexed": false,
					"internalType": "uint256",
					"name": "perUser",
					"type": "uint256"
				}
			],
			"name": "CommunityBonusDistributed",
			"type": "event"
		},
		{
			"anonymous": false,
			"inputs": [
				{
					"indexed": true,
					"internalType": "address",
					"name": "to",
					"type": "address"
				},
				{
					"indexed": true,
					"internalType": "address",
					"name": "from",
					"type": "address"
				},
				{
					"indexed": false,
					"internalType": "uint256",
					"name": "amount",
					"type": "uint256"
				},
				{
					"indexed": false,
					"internalType": "uint256",
					"name": "packageLevel",
					"type": "uint256"
				},
				{
					"indexed": false,
					"internalType": "uint256",
					"name": "incomeType",
					"type": "uint256"
				}
			],
			"name": "IncomeDistributed",
			"type": "event"
		},
		{
			"anonymous": false,
			"inputs": [
				{
					"indexed": true,
					"internalType": "address",
					"name": "to",
					"type": "address"
				},
				{
					"indexed": true,
					"internalType": "uint256",
					"name": "toId",
					"type": "uint256"
				},
				{
					"indexed": true,
					"internalType": "uint256",
					"name": "fromId",
					"type": "uint256"
				},
				{
					"indexed": false,
					"internalType": "uint256",
					"name": "amount",
					"type": "uint256"
				},
				{
					"indexed": false,
					"internalType": "uint256",
					"name": "packageLevel",
					"type": "uint256"
				},
				{
					"indexed": false,
					"internalType": "enum Storage.IncomeType",
					"name": "incomeType",
					"type": "uint8"
				},
				{
					"indexed": false,
					"internalType": "uint256",
					"name": "timestamp",
					"type": "uint256"
				}
			],
			"name": "IncomeDistribution",
			"type": "event"
		},
		{
			"anonymous": false,
			"inputs": [
				{
					"indexed": true,
					"internalType": "address",
					"name": "winner",
					"type": "address"
				},
				{
					"indexed": true,
					"internalType": "uint256",
					"name": "fromUserId",
					"type": "uint256"
				},
				{
					"indexed": false,
					"internalType": "uint256",
					"name": "amount",
					"type": "uint256"
				},
				{
					"indexed": false,
					"internalType": "uint256",
					"name": "timestamp",
					"type": "uint256"
				}
			],
			"name": "LotteryReward",
			"type": "event"
		},
		{
			"anonymous": false,
			"inputs": [
				{
					"indexed": false,
					"internalType": "uint256",
					"name": "roundId",
					"type": "uint256"
				},
				{
					"indexed": false,
					"internalType": "uint256",
					"name": "totalUsers",
					"type": "uint256"
				},
				{
					"indexed": false,
					"internalType": "uint256",
					"name": "perUserReward",
					"type": "uint256"
				},
				{
					"indexed": false,
					"internalType": "uint256",
					"name": "totalReward",
					"type": "uint256"
				},
				{
					"indexed": false,
					"internalType": "uint256",
					"name": "totalDistributed",
					"type": "uint256"
				},
				{
					"indexed": false,
					"internalType": "uint256",
					"name": "leftoverReward",
					"type": "uint256"
				},
				{
					"indexed": false,
					"internalType": "uint256",
					"name": "endTime",
					"type": "uint256"
				}
			],
			"name": "MonthlyClosed",
			"type": "event"
		},
		{
			"anonymous": false,
			"inputs": [
				{
					"indexed": false,
					"internalType": "uint256",
					"name": "roundId",
					"type": "uint256"
				},
				{
					"indexed": false,
					"internalType": "uint256",
					"name": "userId",
					"type": "uint256"
				},
				{
					"indexed": false,
					"internalType": "uint256",
					"name": "perUserReward",
					"type": "uint256"
				},
				{
					"indexed": false,
					"internalType": "uint256",
					"name": "claimTime",
					"type": "uint256"
				}
			],
			"name": "MonthlyRewardClaim",
			"type": "event"
		},
		{
			"anonymous": false,
			"inputs": [
				{
					"indexed": false,
					"internalType": "uint256",
					"name": "roundId",
					"type": "uint256"
				},
				{
					"indexed": false,
					"internalType": "uint256",
					"name": "userId",
					"type": "uint256"
				},
				{
					"indexed": false,
					"internalType": "uint256",
					"name": "joinTime",
					"type": "uint256"
				}
			],
			"name": "MonthlyRoyaltyQualified",
			"type": "event"
		},
		{
			"anonymous": false,
			"inputs": [
				{
					"indexed": true,
					"internalType": "address",
					"name": "user",
					"type": "address"
				},
				{
					"indexed": true,
					"internalType": "address",
					"name": "sponsor",
					"type": "address"
				},
				{
					"indexed": true,
					"internalType": "uint256",
					"name": "userId",
					"type": "uint256"
				},
				{
					"indexed": false,
					"internalType": "uint256",
					"name": "uplineId",
					"type": "uint256"
				}
			],
			"name": "Registration",
			"type": "event"
		},
		{
			"anonymous": false,
			"inputs": [
				{
					"indexed": true,
					"internalType": "address",
					"name": "to",
					"type": "address"
				},
				{
					"indexed": false,
					"internalType": "uint256",
					"name": "amount",
					"type": "uint256"
				},
				{
					"indexed": false,
					"internalType": "string",
					"name": "level",
					"type": "string"
				}
			],
			"name": "RewardSent",
			"type": "event"
		},
		{
			"anonymous": false,
			"inputs": [
				{
					"indexed": false,
					"internalType": "uint256",
					"name": "roundId",
					"type": "uint256"
				},
				{
					"indexed": false,
					"internalType": "uint256",
					"name": "totalUsers",
					"type": "uint256"
				},
				{
					"indexed": false,
					"internalType": "uint256",
					"name": "perUserReward",
					"type": "uint256"
				},
				{
					"indexed": false,
					"internalType": "uint256",
					"name": "totalReward",
					"type": "uint256"
				},
				{
					"indexed": false,
					"internalType": "uint256",
					"name": "totalDistributed",
					"type": "uint256"
				},
				{
					"indexed": false,
					"internalType": "uint256",
					"name": "leftoverReward",
					"type": "uint256"
				},
				{
					"indexed": false,
					"internalType": "uint256",
					"name": "endTime",
					"type": "uint256"
				}
			],
			"name": "TopRoyaltyClosed",
			"type": "event"
		},
		{
			"anonymous": false,
			"inputs": [
				{
					"indexed": false,
					"internalType": "uint256",
					"name": "roundId",
					"type": "uint256"
				},
				{
					"indexed": false,
					"internalType": "uint256",
					"name": "userId",
					"type": "uint256"
				},
				{
					"indexed": false,
					"internalType": "uint256",
					"name": "joinTime",
					"type": "uint256"
				}
			],
			"name": "TopRoyaltyQualified",
			"type": "event"
		},
		{
			"anonymous": false,
			"inputs": [
				{
					"indexed": false,
					"internalType": "uint256",
					"name": "roundId",
					"type": "uint256"
				},
				{
					"indexed": false,
					"internalType": "uint256",
					"name": "userId",
					"type": "uint256"
				},
				{
					"indexed": false,
					"internalType": "uint256",
					"name": "perUserReward",
					"type": "uint256"
				},
				{
					"indexed": false,
					"internalType": "uint256",
					"name": "claimTime",
					"type": "uint256"
				}
			],
			"name": "TopRoyaltyRewardClaim",
			"type": "event"
		},
		{
			"anonymous": false,
			"inputs": [
				{
					"indexed": true,
					"internalType": "address",
					"name": "user",
					"type": "address"
				},
				{
					"indexed": true,
					"internalType": "uint256",
					"name": "userId",
					"type": "uint256"
				},
				{
					"indexed": false,
					"internalType": "uint256",
					"name": "packageLevel",
					"type": "uint256"
				},
				{
					"indexed": false,
					"internalType": "uint256",
					"name": "packagePrice",
					"type": "uint256"
				},
				{
					"indexed": false,
					"internalType": "string",
					"name": "depositType",
					"type": "string"
				},
				{
					"indexed": false,
					"internalType": "uint256",
					"name": "upgradeTime",
					"type": "uint256"
				}
			],
			"name": "Upgrade",
			"type": "event"
		},
		{
			"anonymous": false,
			"inputs": [
				{
					"indexed": true,
					"internalType": "uint8",
					"name": "matrixId",
					"type": "uint8"
				},
				{
					"indexed": true,
					"internalType": "uint32",
					"name": "userId",
					"type": "uint32"
				},
				{
					"indexed": true,
					"internalType": "address",
					"name": "user",
					"type": "address"
				},
				{
					"indexed": false,
					"internalType": "uint32",
					"name": "parentId",
					"type": "uint32"
				},
				{
					"indexed": false,
					"internalType": "address",
					"name": "parentAddr",
					"type": "address"
				},
				{
					"indexed": false,
					"internalType": "uint8",
					"name": "position",
					"type": "uint8"
				}
			],
			"name": "UserJoined",
			"type": "event"
		},
		{
			"anonymous": false,
			"inputs": [
				{
					"indexed": false,
					"internalType": "uint256",
					"name": "roundId",
					"type": "uint256"
				},
				{
					"indexed": false,
					"internalType": "uint256",
					"name": "totalUsers",
					"type": "uint256"
				},
				{
					"indexed": false,
					"internalType": "uint256",
					"name": "perUserReward",
					"type": "uint256"
				},
				{
					"indexed": false,
					"internalType": "uint256",
					"name": "totalReward",
					"type": "uint256"
				},
				{
					"indexed": false,
					"internalType": "uint256",
					"name": "totalDistributed",
					"type": "uint256"
				},
				{
					"indexed": false,
					"internalType": "uint256",
					"name": "leftoverReward",
					"type": "uint256"
				},
				{
					"indexed": false,
					"internalType": "uint256",
					"name": "endTime",
					"type": "uint256"
				}
			],
			"name": "WeeklyClosed",
			"type": "event"
		},
		{
			"anonymous": false,
			"inputs": [
				{
					"indexed": false,
					"internalType": "uint256",
					"name": "roundId",
					"type": "uint256"
				},
				{
					"indexed": false,
					"internalType": "uint256",
					"name": "userId",
					"type": "uint256"
				},
				{
					"indexed": false,
					"internalType": "uint256",
					"name": "joinTime",
					"type": "uint256"
				}
			],
			"name": "WeeklyContestQualified",
			"type": "event"
		},
		{
			"anonymous": false,
			"inputs": [
				{
					"indexed": false,
					"internalType": "uint256",
					"name": "roundId",
					"type": "uint256"
				},
				{
					"indexed": false,
					"internalType": "uint256",
					"name": "userId",
					"type": "uint256"
				},
				{
					"indexed": false,
					"internalType": "uint256",
					"name": "perUserReward",
					"type": "uint256"
				},
				{
					"indexed": false,
					"internalType": "uint256",
					"name": "claimTime",
					"type": "uint256"
				}
			],
			"name": "WeeklyRewardClaim",
			"type": "event"
		},
		{
			"inputs": [],
			"name": "ACC_PRECISION",
			"outputs": [
				{
					"internalType": "uint256",
					"name": "",
					"type": "uint256"
				}
			],
			"stateMutability": "view",
			"type": "function"
		},
		{
			"inputs": [],
			"name": "MONTHLY_ROYALTY_DIRECT",
			"outputs": [
				{
					"internalType": "uint256",
					"name": "",
					"type": "uint256"
				}
			],
			"stateMutability": "view",
			"type": "function"
		},
		{
			"inputs": [],
			"name": "MONTHLY_ROYALTY_LEVEL",
			"outputs": [
				{
					"internalType": "uint256",
					"name": "",
					"type": "uint256"
				}
			],
			"stateMutability": "view",
			"type": "function"
		},
		{
			"inputs": [],
			"name": "MONTHLY_ROYALTY_TIME",
			"outputs": [
				{
					"internalType": "uint256",
					"name": "",
					"type": "uint256"
				}
			],
			"stateMutability": "view",
			"type": "function"
		},
		{
			"inputs": [],
			"name": "MONTH_DURATION",
			"outputs": [
				{
					"internalType": "uint256",
					"name": "",
					"type": "uint256"
				}
			],
			"stateMutability": "view",
			"type": "function"
		},
		{
			"inputs": [],
			"name": "PERCENTS_DIVIDER",
			"outputs": [
				{
					"internalType": "uint256",
					"name": "",
					"type": "uint256"
				}
			],
			"stateMutability": "view",
			"type": "function"
		},
		{
			"inputs": [],
			"name": "ROI_2X_TIME",
			"outputs": [
				{
					"internalType": "uint256",
					"name": "",
					"type": "uint256"
				}
			],
			"stateMutability": "view",
			"type": "function"
		},
		{
			"inputs": [],
			"name": "ROI_CAP_DIVIDER",
			"outputs": [
				{
					"internalType": "uint256",
					"name": "",
					"type": "uint256"
				}
			],
			"stateMutability": "view",
			"type": "function"
		},
		{
			"inputs": [],
			"name": "ROI_CAP_MULTIPLIER",
			"outputs": [
				{
					"internalType": "uint256",
					"name": "",
					"type": "uint256"
				}
			],
			"stateMutability": "view",
			"type": "function"
		},
		{
			"inputs": [],
			"name": "TIME_STEP",
			"outputs": [
				{
					"internalType": "uint256",
					"name": "",
					"type": "uint256"
				}
			],
			"stateMutability": "view",
			"type": "function"
		},
		{
			"inputs": [],
			"name": "TOP_ROYALTY_DIRECT",
			"outputs": [
				{
					"internalType": "uint256",
					"name": "",
					"type": "uint256"
				}
			],
			"stateMutability": "view",
			"type": "function"
		},
		{
			"inputs": [],
			"name": "TOP_ROYALTY_LEVEL",
			"outputs": [
				{
					"internalType": "uint256",
					"name": "",
					"type": "uint256"
				}
			],
			"stateMutability": "view",
			"type": "function"
		},
		{
			"inputs": [],
			"name": "TOP_ROYALTY_TIME",
			"outputs": [
				{
					"internalType": "uint256",
					"name": "",
					"type": "uint256"
				}
			],
			"stateMutability": "view",
			"type": "function"
		},
		{
			"inputs": [],
			"name": "WEEK_DURATION",
			"outputs": [
				{
					"internalType": "uint256",
					"name": "",
					"type": "uint256"
				}
			],
			"stateMutability": "view",
			"type": "function"
		},
		{
			"inputs": [],
			"name": "WeeklyCapping",
			"outputs": [
				{
					"internalType": "uint256",
					"name": "",
					"type": "uint256"
				}
			],
			"stateMutability": "view",
			"type": "function"
		},
		{
			"inputs": [],
			"name": "WeeklyTotalReward",
			"outputs": [
				{
					"internalType": "uint256",
					"name": "",
					"type": "uint256"
				}
			],
			"stateMutability": "view",
			"type": "function"
		},
		{
			"inputs": [
				{
					"internalType": "address",
					"name": "",
					"type": "address"
				}
			],
			"name": "addressToId",
			"outputs": [
				{
					"internalType": "uint256",
					"name": "",
					"type": "uint256"
				}
			],
			"stateMutability": "view",
			"type": "function"
		},
		{
			"inputs": [
				{
					"internalType": "uint256",
					"name": "",
					"type": "uint256"
				},
				{
					"internalType": "uint256",
					"name": "",
					"type": "uint256"
				}
			],
			"name": "boosterUsers",
			"outputs": [
				{
					"internalType": "uint256",
					"name": "",
					"type": "uint256"
				}
			],
			"stateMutability": "view",
			"type": "function"
		},
		{
			"inputs": [
				{
					"internalType": "uint256",
					"name": "_userId",
					"type": "uint256"
				},
				{
					"internalType": "uint256",
					"name": "_roundId",
					"type": "uint256"
				}
			],
			"name": "canClaimMonthlyReward",
			"outputs": [
				{
					"internalType": "bool",
					"name": "",
					"type": "bool"
				}
			],
			"stateMutability": "view",
			"type": "function"
		},
		{
			"inputs": [
				{
					"internalType": "uint256",
					"name": "_userId",
					"type": "uint256"
				},
				{
					"internalType": "uint256",
					"name": "packageLevel",
					"type": "uint256"
				}
			],
			"name": "claimCommunity",
			"outputs": [],
			"stateMutability": "nonpayable",
			"type": "function"
		},
		{
			"inputs": [
				{
					"internalType": "uint256",
					"name": "_userId",
					"type": "uint256"
				},
				{
					"internalType": "uint256",
					"name": "_roundId",
					"type": "uint256"
				}
			],
			"name": "claimMonthlyCRoyaltyReward",
			"outputs": [],
			"stateMutability": "nonpayable",
			"type": "function"
		},
		{
			"inputs": [
				{
					"internalType": "uint256",
					"name": "_userId",
					"type": "uint256"
				},
				{
					"internalType": "uint256",
					"name": "_roundId",
					"type": "uint256"
				}
			],
			"name": "claimTopRoyaltyReward",
			"outputs": [],
			"stateMutability": "nonpayable",
			"type": "function"
		},
		{
			"inputs": [
				{
					"internalType": "uint256",
					"name": "_userId",
					"type": "uint256"
				},
				{
					"internalType": "uint256",
					"name": "_roundId",
					"type": "uint256"
				}
			],
			"name": "claimWeeklyContestReward",
			"outputs": [],
			"stateMutability": "nonpayable",
			"type": "function"
		},
		{
			"inputs": [
				{
					"internalType": "uint256",
					"name": "",
					"type": "uint256"
				}
			],
			"name": "communityAccPerPackage",
			"outputs": [
				{
					"internalType": "uint256",
					"name": "",
					"type": "uint256"
				}
			],
			"stateMutability": "view",
			"type": "function"
		},
		{
			"inputs": [],
			"name": "communityAccPerUser",
			"outputs": [
				{
					"internalType": "uint256",
					"name": "",
					"type": "uint256"
				}
			],
			"stateMutability": "view",
			"type": "function"
		},
		{
			"inputs": [
				{
					"internalType": "uint256",
					"name": "",
					"type": "uint256"
				},
				{
					"internalType": "uint256",
					"name": "",
					"type": "uint256"
				}
			],
			"name": "communityDebt",
			"outputs": [
				{
					"internalType": "uint256",
					"name": "",
					"type": "uint256"
				}
			],
			"stateMutability": "view",
			"type": "function"
		},
		{
			"inputs": [],
			"name": "creatorWallet",
			"outputs": [
				{
					"internalType": "address",
					"name": "",
					"type": "address"
				}
			],
			"stateMutability": "view",
			"type": "function"
		},
		{
			"inputs": [],
			"name": "currentMonthlyRound",
			"outputs": [
				{
					"internalType": "uint256",
					"name": "",
					"type": "uint256"
				}
			],
			"stateMutability": "view",
			"type": "function"
		},
		{
			"inputs": [],
			"name": "currentMonthlyStartTime",
			"outputs": [
				{
					"internalType": "uint256",
					"name": "",
					"type": "uint256"
				}
			],
			"stateMutability": "view",
			"type": "function"
		},
		{
			"inputs": [],
			"name": "currentWeeklyRound",
			"outputs": [
				{
					"internalType": "uint256",
					"name": "",
					"type": "uint256"
				}
			],
			"stateMutability": "view",
			"type": "function"
		},
		{
			"inputs": [],
			"name": "currentWeeklyStartTime",
			"outputs": [
				{
					"internalType": "uint256",
					"name": "",
					"type": "uint256"
				}
			],
			"stateMutability": "view",
			"type": "function"
		},
		{
			"inputs": [],
			"name": "defaultRefId",
			"outputs": [
				{
					"internalType": "uint256",
					"name": "",
					"type": "uint256"
				}
			],
			"stateMutability": "view",
			"type": "function"
		},
		{
			"inputs": [
				{
					"internalType": "uint256",
					"name": "",
					"type": "uint256"
				},
				{
					"internalType": "uint256",
					"name": "",
					"type": "uint256"
				}
			],
			"name": "directReferrals",
			"outputs": [
				{
					"internalType": "uint256",
					"name": "",
					"type": "uint256"
				}
			],
			"stateMutability": "view",
			"type": "function"
		},
		{
			"inputs": [
				{
					"internalType": "uint256",
					"name": "",
					"type": "uint256"
				}
			],
			"name": "glbBoosterPackages",
			"outputs": [
				{
					"internalType": "uint256",
					"name": "",
					"type": "uint256"
				}
			],
			"stateMutability": "view",
			"type": "function"
		},
		{
			"inputs": [
				{
					"internalType": "uint256",
					"name": "",
					"type": "uint256"
				},
				{
					"internalType": "uint256",
					"name": "",
					"type": "uint256"
				}
			],
			"name": "incomeHistory",
			"outputs": [
				{
					"internalType": "uint256",
					"name": "fromUserId",
					"type": "uint256"
				},
				{
					"internalType": "uint256",
					"name": "amount",
					"type": "uint256"
				},
				{
					"internalType": "uint256",
					"name": "packageLevel",
					"type": "uint256"
				},
				{
					"internalType": "uint256",
					"name": "timestamp",
					"type": "uint256"
				},
				{
					"internalType": "uint256",
					"name": "incomeType",
					"type": "uint256"
				}
			],
			"stateMutability": "view",
			"type": "function"
		},
		{
			"inputs": [
				{
					"internalType": "uint256",
					"name": "",
					"type": "uint256"
				}
			],
			"name": "matrixDirect",
			"outputs": [
				{
					"internalType": "uint256",
					"name": "",
					"type": "uint256"
				}
			],
			"stateMutability": "view",
			"type": "function"
		},
		{
			"inputs": [
				{
					"internalType": "uint256",
					"name": "",
					"type": "uint256"
				}
			],
			"name": "minLevelForGlbBooster",
			"outputs": [
				{
					"internalType": "uint256",
					"name": "",
					"type": "uint256"
				}
			],
			"stateMutability": "view",
			"type": "function"
		},
		{
			"inputs": [
				{
					"internalType": "uint256",
					"name": "",
					"type": "uint256"
				}
			],
			"name": "minLevelForPool",
			"outputs": [
				{
					"internalType": "uint256",
					"name": "",
					"type": "uint256"
				}
			],
			"stateMutability": "view",
			"type": "function"
		},
		{
			"inputs": [
				{
					"internalType": "uint256",
					"name": "",
					"type": "uint256"
				}
			],
			"name": "minPoolForGlbBooster",
			"outputs": [
				{
					"internalType": "uint256",
					"name": "",
					"type": "uint256"
				}
			],
			"stateMutability": "view",
			"type": "function"
		},
		{
			"inputs": [],
			"name": "monthlyCapping",
			"outputs": [
				{
					"internalType": "uint256",
					"name": "",
					"type": "uint256"
				}
			],
			"stateMutability": "view",
			"type": "function"
		},
		{
			"inputs": [
				{
					"internalType": "uint256",
					"name": "",
					"type": "uint256"
				}
			],
			"name": "monthlyQualifiedUsers",
			"outputs": [
				{
					"internalType": "uint256",
					"name": "",
					"type": "uint256"
				}
			],
			"stateMutability": "view",
			"type": "function"
		},
		{
			"inputs": [
				{
					"internalType": "uint256",
					"name": "",
					"type": "uint256"
				}
			],
			"name": "monthlyRoyaltyUserdtl",
			"outputs": [
				{
					"internalType": "uint256",
					"name": "joinTime",
					"type": "uint256"
				},
				{
					"internalType": "uint256",
					"name": "qualifiedRoundId",
					"type": "uint256"
				},
				{
					"internalType": "uint256",
					"name": "claimTime",
					"type": "uint256"
				},
				{
					"internalType": "bool",
					"name": "isQualified",
					"type": "bool"
				}
			],
			"stateMutability": "view",
			"type": "function"
		},
		{
			"inputs": [
				{
					"internalType": "uint256",
					"name": "",
					"type": "uint256"
				}
			],
			"name": "monthlyRoyaltydtl",
			"outputs": [
				{
					"internalType": "uint256",
					"name": "roundId",
					"type": "uint256"
				},
				{
					"internalType": "uint256",
					"name": "totalReward",
					"type": "uint256"
				},
				{
					"internalType": "uint256",
					"name": "totalUsers",
					"type": "uint256"
				},
				{
					"internalType": "uint256",
					"name": "perUserReward",
					"type": "uint256"
				},
				{
					"internalType": "uint256",
					"name": "claimedCount",
					"type": "uint256"
				},
				{
					"internalType": "uint256",
					"name": "startTime",
					"type": "uint256"
				},
				{
					"internalType": "uint256",
					"name": "endTime",
					"type": "uint256"
				},
				{
					"internalType": "uint256",
					"name": "carryForward",
					"type": "uint256"
				},
				{
					"internalType": "bool",
					"name": "closed",
					"type": "bool"
				}
			],
			"stateMutability": "view",
			"type": "function"
		},
		{
			"inputs": [],
			"name": "monthlyTotalReward",
			"outputs": [
				{
					"internalType": "uint256",
					"name": "",
					"type": "uint256"
				}
			],
			"stateMutability": "view",
			"type": "function"
		},
		{
			"inputs": [
				{
					"internalType": "uint256",
					"name": "",
					"type": "uint256"
				},
				{
					"internalType": "uint256",
					"name": "",
					"type": "uint256"
				}
			],
			"name": "monthlyUserDirects",
			"outputs": [
				{
					"internalType": "uint256",
					"name": "",
					"type": "uint256"
				}
			],
			"stateMutability": "view",
			"type": "function"
		},
		{
			"inputs": [
				{
					"internalType": "uint256",
					"name": "",
					"type": "uint256"
				}
			],
			"name": "packageQualifiedUsers",
			"outputs": [
				{
					"internalType": "uint256",
					"name": "",
					"type": "uint256"
				}
			],
			"stateMutability": "view",
			"type": "function"
		},
		{
			"inputs": [
				{
					"internalType": "uint256",
					"name": "",
					"type": "uint256"
				}
			],
			"name": "packages",
			"outputs": [
				{
					"internalType": "uint256",
					"name": "",
					"type": "uint256"
				}
			],
			"stateMutability": "view",
			"type": "function"
		},
		{
			"inputs": [
				{
					"internalType": "uint256",
					"name": "_userId",
					"type": "uint256"
				},
				{
					"internalType": "uint256",
					"name": "_packagePrice",
					"type": "uint256"
				}
			],
			"name": "pendingCommunity",
			"outputs": [
				{
					"internalType": "uint256",
					"name": "pendingGross",
					"type": "uint256"
				},
				{
					"internalType": "uint256",
					"name": "pendingAfterCap",
					"type": "uint256"
				}
			],
			"stateMutability": "view",
			"type": "function"
		},
		{
			"inputs": [
				{
					"internalType": "uint256",
					"name": "",
					"type": "uint256"
				}
			],
			"name": "poolPackages",
			"outputs": [
				{
					"internalType": "uint256",
					"name": "",
					"type": "uint256"
				}
			],
			"stateMutability": "view",
			"type": "function"
		},
		{
			"inputs": [
				{
					"internalType": "uint256",
					"name": "",
					"type": "uint256"
				},
				{
					"internalType": "uint256",
					"name": "",
					"type": "uint256"
				}
			],
			"name": "poolUsers",
			"outputs": [
				{
					"internalType": "uint256",
					"name": "",
					"type": "uint256"
				}
			],
			"stateMutability": "view",
			"type": "function"
		},
		{
			"inputs": [
				{
					"internalType": "uint256",
					"name": "_sponsorId",
					"type": "uint256"
				}
			],
			"name": "register",
			"outputs": [],
			"stateMutability": "nonpayable",
			"type": "function"
		},
		{
			"inputs": [
				{
					"internalType": "uint256",
					"name": "",
					"type": "uint256"
				}
			],
			"name": "registeredUserIds",
			"outputs": [
				{
					"internalType": "uint256",
					"name": "",
					"type": "uint256"
				}
			],
			"stateMutability": "view",
			"type": "function"
		},
		{
			"inputs": [],
			"name": "systemMaintance",
			"outputs": [
				{
					"internalType": "address",
					"name": "",
					"type": "address"
				}
			],
			"stateMutability": "view",
			"type": "function"
		},
		{
			"inputs": [],
			"name": "teamDevelopment",
			"outputs": [
				{
					"internalType": "address",
					"name": "",
					"type": "address"
				}
			],
			"stateMutability": "view",
			"type": "function"
		},
		{
			"inputs": [
				{
					"internalType": "uint256",
					"name": "",
					"type": "uint256"
				},
				{
					"internalType": "uint256",
					"name": "",
					"type": "uint256"
				},
				{
					"internalType": "uint256",
					"name": "",
					"type": "uint256"
				}
			],
			"name": "teams",
			"outputs": [
				{
					"internalType": "uint256",
					"name": "",
					"type": "uint256"
				}
			],
			"stateMutability": "view",
			"type": "function"
		},
		{
			"inputs": [
				{
					"internalType": "uint256",
					"name": "",
					"type": "uint256"
				}
			],
			"name": "topRoyaltyQualifiedUsers",
			"outputs": [
				{
					"internalType": "uint256",
					"name": "",
					"type": "uint256"
				}
			],
			"stateMutability": "view",
			"type": "function"
		},
		{
			"inputs": [],
			"name": "topRoyaltyReward",
			"outputs": [
				{
					"internalType": "uint256",
					"name": "",
					"type": "uint256"
				}
			],
			"stateMutability": "view",
			"type": "function"
		},
		{
			"inputs": [],
			"name": "topRoyaltyRound",
			"outputs": [
				{
					"internalType": "uint256",
					"name": "",
					"type": "uint256"
				}
			],
			"stateMutability": "view",
			"type": "function"
		},
		{
			"inputs": [],
			"name": "topRoyaltyStartTime",
			"outputs": [
				{
					"internalType": "uint256",
					"name": "",
					"type": "uint256"
				}
			],
			"stateMutability": "view",
			"type": "function"
		},
		{
			"inputs": [
				{
					"internalType": "uint256",
					"name": "",
					"type": "uint256"
				},
				{
					"internalType": "uint256",
					"name": "",
					"type": "uint256"
				}
			],
			"name": "topRoyaltyUserDirects",
			"outputs": [
				{
					"internalType": "uint256",
					"name": "",
					"type": "uint256"
				}
			],
			"stateMutability": "view",
			"type": "function"
		},
		{
			"inputs": [
				{
					"internalType": "uint256",
					"name": "",
					"type": "uint256"
				}
			],
			"name": "topRoyaltyUserdtl",
			"outputs": [
				{
					"internalType": "uint256",
					"name": "joinTime",
					"type": "uint256"
				},
				{
					"internalType": "uint256",
					"name": "qualifiedRoundId",
					"type": "uint256"
				},
				{
					"internalType": "uint256",
					"name": "claimTime",
					"type": "uint256"
				},
				{
					"internalType": "bool",
					"name": "isQualified",
					"type": "bool"
				}
			],
			"stateMutability": "view",
			"type": "function"
		},
		{
			"inputs": [
				{
					"internalType": "uint256",
					"name": "",
					"type": "uint256"
				}
			],
			"name": "topRoyaltydtl",
			"outputs": [
				{
					"internalType": "uint256",
					"name": "roundId",
					"type": "uint256"
				},
				{
					"internalType": "uint256",
					"name": "totalReward",
					"type": "uint256"
				},
				{
					"internalType": "uint256",
					"name": "totalUsers",
					"type": "uint256"
				},
				{
					"internalType": "uint256",
					"name": "perUserReward",
					"type": "uint256"
				},
				{
					"internalType": "uint256",
					"name": "claimedCount",
					"type": "uint256"
				},
				{
					"internalType": "uint256",
					"name": "startTime",
					"type": "uint256"
				},
				{
					"internalType": "uint256",
					"name": "endTime",
					"type": "uint256"
				},
				{
					"internalType": "uint256",
					"name": "carryForward",
					"type": "uint256"
				},
				{
					"internalType": "bool",
					"name": "closed",
					"type": "bool"
				}
			],
			"stateMutability": "view",
			"type": "function"
		},
		{
			"inputs": [],
			"name": "totalUsers",
			"outputs": [
				{
					"internalType": "uint256",
					"name": "",
					"type": "uint256"
				}
			],
			"stateMutability": "view",
			"type": "function"
		},
		{
			"inputs": [
				{
					"internalType": "uint256",
					"name": "_userId",
					"type": "uint256"
				}
			],
			"name": "upgrade",
			"outputs": [],
			"stateMutability": "nonpayable",
			"type": "function"
		},
		{
			"inputs": [],
			"name": "usdt",
			"outputs": [
				{
					"internalType": "contract IERC20",
					"name": "",
					"type": "address"
				}
			],
			"stateMutability": "view",
			"type": "function"
		},
		{
			"inputs": [
				{
					"internalType": "uint256",
					"name": "",
					"type": "uint256"
				},
				{
					"internalType": "uint256",
					"name": "",
					"type": "uint256"
				},
				{
					"internalType": "uint256",
					"name": "",
					"type": "uint256"
				}
			],
			"name": "userBoosterChildren",
			"outputs": [
				{
					"internalType": "uint256",
					"name": "",
					"type": "uint256"
				}
			],
			"stateMutability": "view",
			"type": "function"
		},
		{
			"inputs": [
				{
					"internalType": "uint256",
					"name": "",
					"type": "uint256"
				},
				{
					"internalType": "uint256",
					"name": "",
					"type": "uint256"
				}
			],
			"name": "userBoosterdtl",
			"outputs": [
				{
					"internalType": "uint256",
					"name": "id",
					"type": "uint256"
				},
				{
					"internalType": "uint256",
					"name": "poolId",
					"type": "uint256"
				},
				{
					"internalType": "uint256",
					"name": "parentId",
					"type": "uint256"
				},
				{
					"internalType": "uint256",
					"name": "bonusCount",
					"type": "uint256"
				},
				{
					"internalType": "uint256",
					"name": "joinTime",
					"type": "uint256"
				}
			],
			"stateMutability": "view",
			"type": "function"
		},
		{
			"inputs": [
				{
					"internalType": "uint256",
					"name": "",
					"type": "uint256"
				},
				{
					"internalType": "uint256",
					"name": "",
					"type": "uint256"
				},
				{
					"internalType": "uint256",
					"name": "",
					"type": "uint256"
				}
			],
			"name": "userChildren",
			"outputs": [
				{
					"internalType": "uint256",
					"name": "",
					"type": "uint256"
				}
			],
			"stateMutability": "view",
			"type": "function"
		},
		{
			"inputs": [
				{
					"internalType": "uint256",
					"name": "",
					"type": "uint256"
				},
				{
					"internalType": "uint256",
					"name": "",
					"type": "uint256"
				}
			],
			"name": "userHasPool",
			"outputs": [
				{
					"internalType": "bool",
					"name": "",
					"type": "bool"
				}
			],
			"stateMutability": "view",
			"type": "function"
		},
		{
			"inputs": [
				{
					"internalType": "uint256",
					"name": "",
					"type": "uint256"
				},
				{
					"internalType": "uint256",
					"name": "",
					"type": "uint256"
				}
			],
			"name": "userHasbooster",
			"outputs": [
				{
					"internalType": "bool",
					"name": "",
					"type": "bool"
				}
			],
			"stateMutability": "view",
			"type": "function"
		},
		{
			"inputs": [
				{
					"internalType": "uint256",
					"name": "",
					"type": "uint256"
				},
				{
					"internalType": "uint256",
					"name": "",
					"type": "uint256"
				},
				{
					"internalType": "uint256",
					"name": "",
					"type": "uint256"
				}
			],
			"name": "userIdPerPool",
			"outputs": [
				{
					"internalType": "uint256",
					"name": "",
					"type": "uint256"
				}
			],
			"stateMutability": "view",
			"type": "function"
		},
		{
			"inputs": [
				{
					"internalType": "uint256",
					"name": "",
					"type": "uint256"
				}
			],
			"name": "userIncomes",
			"outputs": [
				{
					"internalType": "uint256",
					"name": "totalIncome",
					"type": "uint256"
				},
				{
					"internalType": "uint256",
					"name": "sponsorIncome",
					"type": "uint256"
				},
				{
					"internalType": "uint256",
					"name": "matrixIncome",
					"type": "uint256"
				},
				{
					"internalType": "uint256",
					"name": "levelBoosterIncome",
					"type": "uint256"
				},
				{
					"internalType": "uint256",
					"name": "royaltyIncome",
					"type": "uint256"
				},
				{
					"internalType": "uint256",
					"name": "royaltyIncomeClaimed",
					"type": "uint256"
				},
				{
					"internalType": "uint256",
					"name": "communityIncome",
					"type": "uint256"
				},
				{
					"internalType": "uint256",
					"name": "poolIncome",
					"type": "uint256"
				},
				{
					"internalType": "uint256",
					"name": "boosterIncome",
					"type": "uint256"
				},
				{
					"internalType": "uint256",
					"name": "weeklyContestIncome",
					"type": "uint256"
				},
				{
					"internalType": "uint256",
					"name": "monthlyRoyalty",
					"type": "uint256"
				},
				{
					"internalType": "uint256",
					"name": "topRoyalty",
					"type": "uint256"
				}
			],
			"stateMutability": "view",
			"type": "function"
		},
		{
			"inputs": [
				{
					"internalType": "uint256",
					"name": "",
					"type": "uint256"
				},
				{
					"internalType": "uint256",
					"name": "",
					"type": "uint256"
				}
			],
			"name": "userPackage",
			"outputs": [
				{
					"internalType": "uint256",
					"name": "roiCap",
					"type": "uint256"
				},
				{
					"internalType": "uint256",
					"name": "currentIncome",
					"type": "uint256"
				},
				{
					"internalType": "uint256",
					"name": "closingAmount",
					"type": "uint256"
				},
				{
					"internalType": "bool",
					"name": "closed",
					"type": "bool"
				}
			],
			"stateMutability": "view",
			"type": "function"
		},
		{
			"inputs": [
				{
					"internalType": "uint256",
					"name": "",
					"type": "uint256"
				},
				{
					"internalType": "uint256",
					"name": "",
					"type": "uint256"
				}
			],
			"name": "userPooldtl",
			"outputs": [
				{
					"internalType": "uint256",
					"name": "id",
					"type": "uint256"
				},
				{
					"internalType": "uint256",
					"name": "mainid",
					"type": "uint256"
				},
				{
					"internalType": "uint256",
					"name": "poolId",
					"type": "uint256"
				},
				{
					"internalType": "uint256",
					"name": "parentId",
					"type": "uint256"
				},
				{
					"internalType": "uint256",
					"name": "bonusCount",
					"type": "uint256"
				}
			],
			"stateMutability": "view",
			"type": "function"
		},
		{
			"inputs": [
				{
					"internalType": "uint256",
					"name": "",
					"type": "uint256"
				},
				{
					"internalType": "uint256",
					"name": "",
					"type": "uint256"
				}
			],
			"name": "userPooltopup",
			"outputs": [
				{
					"internalType": "uint256",
					"name": "nextPoolAmt",
					"type": "uint256"
				},
				{
					"internalType": "uint256",
					"name": "reTopupAmt",
					"type": "uint256"
				}
			],
			"stateMutability": "view",
			"type": "function"
		},
		{
			"inputs": [
				{
					"internalType": "uint256",
					"name": "",
					"type": "uint256"
				}
			],
			"name": "users",
			"outputs": [
				{
					"internalType": "address",
					"name": "account",
					"type": "address"
				},
				{
					"internalType": "uint256",
					"name": "checkpoint",
					"type": "uint256"
				},
				{
					"internalType": "uint256",
					"name": "id",
					"type": "uint256"
				},
				{
					"internalType": "uint256",
					"name": "sponsorId",
					"type": "uint256"
				},
				{
					"internalType": "uint256",
					"name": "uplineId",
					"type": "uint256"
				},
				{
					"internalType": "uint256",
					"name": "level",
					"type": "uint256"
				},
				{
					"internalType": "uint256",
					"name": "directTeam",
					"type": "uint256"
				},
				{
					"internalType": "uint256",
					"name": "directPoolQualified",
					"type": "uint256"
				},
				{
					"internalType": "uint256",
					"name": "totalMatrixTeam",
					"type": "uint256"
				},
				{
					"internalType": "uint256",
					"name": "totalDeposit",
					"type": "uint256"
				},
				{
					"internalType": "uint256",
					"name": "roiCap",
					"type": "uint256"
				},
				{
					"internalType": "uint256",
					"name": "poollevel",
					"type": "uint256"
				},
				{
					"internalType": "uint256",
					"name": "poolDeposit",
					"type": "uint256"
				},
				{
					"internalType": "uint256",
					"name": "poolStartTime",
					"type": "uint256"
				},
				{
					"internalType": "uint256",
					"name": "boosterlevel",
					"type": "uint256"
				},
				{
					"internalType": "uint256",
					"name": "boosterDeposit",
					"type": "uint256"
				},
				{
					"internalType": "uint256",
					"name": "registrationTime",
					"type": "uint256"
				},
				{
					"internalType": "uint256",
					"name": "level10Time",
					"type": "uint256"
				},
				{
					"internalType": "uint256",
					"name": "level15Time",
					"type": "uint256"
				},
				{
					"internalType": "uint256",
					"name": "monthlyUserDirectCount",
					"type": "uint256"
				},
				{
					"internalType": "uint256",
					"name": "topRoyaltyDirectCount",
					"type": "uint256"
				}
			],
			"stateMutability": "view",
			"type": "function"
		},
		{
			"inputs": [
				{
					"internalType": "uint256",
					"name": "",
					"type": "uint256"
				}
			],
			"name": "weeklyContestdtl",
			"outputs": [
				{
					"internalType": "uint256",
					"name": "roundId",
					"type": "uint256"
				},
				{
					"internalType": "uint256",
					"name": "totalReward",
					"type": "uint256"
				},
				{
					"internalType": "uint256",
					"name": "totalUsers",
					"type": "uint256"
				},
				{
					"internalType": "uint256",
					"name": "perUserReward",
					"type": "uint256"
				},
				{
					"internalType": "uint256",
					"name": "claimedCount",
					"type": "uint256"
				},
				{
					"internalType": "uint256",
					"name": "startTime",
					"type": "uint256"
				},
				{
					"internalType": "uint256",
					"name": "endTime",
					"type": "uint256"
				},
				{
					"internalType": "uint256",
					"name": "carryForward",
					"type": "uint256"
				},
				{
					"internalType": "bool",
					"name": "closed",
					"type": "bool"
				}
			],
			"stateMutability": "view",
			"type": "function"
		},
		{
			"inputs": [
				{
					"internalType": "uint256",
					"name": "",
					"type": "uint256"
				},
				{
					"internalType": "uint256",
					"name": "",
					"type": "uint256"
				}
			],
			"name": "weeklyQualifiedUsers",
			"outputs": [
				{
					"internalType": "uint256",
					"name": "",
					"type": "uint256"
				}
			],
			"stateMutability": "view",
			"type": "function"
		},
		{
			"inputs": [
				{
					"internalType": "uint256",
					"name": "",
					"type": "uint256"
				},
				{
					"internalType": "uint256",
					"name": "",
					"type": "uint256"
				},
				{
					"internalType": "uint256",
					"name": "",
					"type": "uint256"
				}
			],
			"name": "weeklyUserDirects",
			"outputs": [
				{
					"internalType": "uint256",
					"name": "",
					"type": "uint256"
				}
			],
			"stateMutability": "view",
			"type": "function"
		},
		{
			"inputs": [
				{
					"internalType": "uint256",
					"name": "",
					"type": "uint256"
				},
				{
					"internalType": "uint256",
					"name": "",
					"type": "uint256"
				}
			],
			"name": "weeklyUserdtl",
			"outputs": [
				{
					"internalType": "uint256",
					"name": "joinTime",
					"type": "uint256"
				},
				{
					"internalType": "uint256",
					"name": "roundId",
					"type": "uint256"
				},
				{
					"internalType": "uint256",
					"name": "claimTime",
					"type": "uint256"
				},
				{
					"internalType": "bool",
					"name": "isClaimed",
					"type": "bool"
				},
				{
					"internalType": "bool",
					"name": "isQualified",
					"type": "bool"
				}
			],
			"stateMutability": "view",
			"type": "function"
		}
	]
}