{
	"data": {
		"bytecode": {
			"linkReferences": {},
			"object": "60806040523461007157604051601f613f1e38819003918201601f19168301916001600160401b03831184841017610075578084926040948552833981010312610071578061005c6020610055610062946100e7565b92016100e7565b9061015c565b6040516134769081610a488239f35b5f80fd5b634e487b7160e01b5f52604160045260245ffd5b6040519060e082016001600160401b0381118382101761007557604052565b6040519061010082016001600160401b0381118382101761007557604052565b6040519060a082016001600160401b0381118382101761007557604052565b51906001600160a01b038216820361007157565b9190820180921161010857565b634e487b7160e01b5f52601160045260245ffd5b805490680100000000000000008210156100755760018201808255821015610148575f5260205f200155565b634e487b7160e01b5f52603260045260245ffd5b60015f556040516101e081016001600160401b038111828210176100755760405267d02ab486cedc0000815268015af1d78b58c4000060208201526802b5e3af16b1880000604082015268056bc75e2d631000006060820152680ad78ebc5ac620000060808201526815af1d78b58c40000060a0820152682b5e3af16b1880000060c08201526856bc75e2d63100000060e082015268ad78ebc5ac6200000061010082015269015af1d78b58c40000006101208201526902b5e3af16b18800000061014082015269056bc75e2d6310000000610160820152690ad78ebc5ac6200000006101808201526915af1d78b58c400000006101a0820152692b5e3af16b18800000006101c0820152600d54600f600d5580600f106109ee575b50600d5f5260205f20905f5b600f81106109d157505050610297610089565b680410d586a20a4c00008152681043561a8829300000602082015268410d586a20a4c0000060408201526901043561a882930000006060820152690410d586a20a4c0000006080820152691043561a88293000000060a082015269410d586a20a4c000000060c082015260165460076016558060071061098e575b5060165f5260205f20905f5b60078110610971575050506103316100a8565b68056bc75e2d631000008152680ad78ebc5ac620000060208201526815af1d78b58c4000006040820152682b5e3af16b1880000060608201526856bc75e2d631000000608082015268ad78ebc5ac6200000060a082015269015af1d78b58c400000060c08201526902b5e3af16b18800000060e082015260175460086017558060081061092e575b5060175f5260205f20905f5b60088110610911575050506103d8610089565b60038152600560208201526007604082015260096060820152600b6080820152600d60a0820152600f60c08201525f5b600781106108f957505061041a6100a8565b6004815260056020820152600660408201526007606082015260086080820152600960a0820152600a60c0820152600b60e08201525f5b600881106108e15750506104636100a8565b5f815260016020820152600160408201526001606082015260016080820152600160a0820152600160c0820152600160e08201525f5b600881106108c95750505f6039819055603a819055603b819055600160408190556041829055604282905560478190556048829055604982905580546001600160a01b03199081166001600160a01b039485161782556002805482169590941694851784556103e8600581905560069290925581835260106020527f92673bc4b5ff73490af990ea8b2927e66ec918198708735b1dd7fcff379d9d858054909116851781557f92673bc4b5ff73490af990ea8b2927e66ec918198708735b1dd7fcff379d9d8891909155600f7f92673bc4b5ff73490af990ea8b2927e66ec918198708735b1dd7fcff379d9d8b55427f92673bc4b5ff73490af990ea8b2927e66ec918198708735b1dd7fcff379d9d965560077f92673bc4b5ff73490af990ea8b2927e66ec918198708735b1dd7fcff379d9d915560087f92673bc4b5ff73490af990ea8b2927e66ec918198708735b1dd7fcff379d9d94557f92673bc4b5ff73490af990ea8b2927e66ec918198708735b1dd7fcff379d9d8d92909255600d5491929181905b600f8210610895575050600a8301556005545f918252600f602052604082205591825b601654841015610721576016548410156101485760165f525f516020613efe5f395f51905f5284015460019161067991906100fb565b936106e06005546106886100c8565b818152602080820183815260408084018781525f60608601818152608087018281528a835260308752848320988352979095529190912093518455905160018401555160028301555160038201559051600490910155565b805f5260336020526106f860405f206005549061011c565b805f52603260205261071a60405f2060055490815f5260205260405f2061011c565b0192610643565b600d83015591505f90815b600881106107e457506010015542603a5542604155426048555f603b5560016039555f60425560016040555f604955600160475560015f52603e60205260405f206005545f5260205260405f206003810190815460ff8160081c166107df5761010091428155600160395491015561ff0019161790557f360cb96d3e85b4fc299ddfa9a572850fc70961c86f0f1703f033143b0e5a82cf60606039546005546040519182526020820152426040820152a1565b505050565b916017548310156101485760175f525f516020613ede5f395f51905f5283015460019161081191906100fb565b926108776005546108206100c8565b81815260208082018581525f60408085018281526060860183815242608088019081528a85526035875283852098855297909552912093518455905160018401555160028301555160038201559051600490910155565b805f52603760205261088f60405f206005549061011c565b0161072c565b90918183101561014857600d5f525f516020613ebe5f395f51905f528301546001916108c191906100fb565b920190610620565b600190602060ff845116930192816027015501610499565b600190602060ff84511693019281601f015501610451565b600190602060ff845116930192816018015501610408565b81516001600160501b0316818401556020909101906001016103c5565b60175f5261096b905f516020613ede5f395f51905f52017fc624b66cc0138b8fabc209247f72d758e1cf3343756d543badbf24212bed8c1d610a31565b5f6103b9565b81516001600160501b03168184015560209091019060010161031e565b60165f526109cb905f516020613efe5f395f51905f52017fd833147d7dc355ba459fc788f669e58cfaf9dc25ddcd0702e87d69c7b5124290610a31565b5f610312565b81516001600160501b031681840155602090910190600101610284565b600d5f52610a2b905f516020613ebe5f395f51905f52017fd7b6990105719101dabeb77144f2a3385c8033acd3af97e9423a695e81ad1ec4610a31565b5f610278565b818110610a3c575050565b5f8155600101610a3156fe6101c0806040526004361015610013575f80fd5b5f905f3560e01c90816301c234a814611e0d575080630676d0d614611de35780631629805614611a705780631c4ecf6814611a555780632132d20414611a275780632350268f146119e457806323fd338e1461105c5780632a891534146119c65780632ae0ee0d1461191d5780632f48ab7d1461199d5780633080b5bc1461197f57806331bb6a301461196357806332bc298c1461194557806332fcd96614611922578063375b43b41461191d57806339ab3603146118da57806339f2e64a146115ab5780633a5084b31461158d57806345977d03146110cf57806345cb537c146110a55780634b8cbf9b1461108757806354c5bd901461106157806358c7d3521461105c5780635b62d1d51461103e578063705fee2d1461101f57806376f5f7001461100157806378f6ad6d14610fe35780637cdc65f214610fba5780637d846e3814610f9657806389043ece14610f69578063956a322814610f3b5780639735800414610b1f5780639b40ab9714610b01578063a59d17d114610ae3578063a5e52b9914610ac5578063ae4708dc14610a6e578063bff1f9e114610a50578063c216212a14610a16578063c8df2908146109f1578063c9ed0708146109d3578063ca8e9121146109b5578063cb0e0d7d14610978578063d0a2fd7914610946578063d2f0490d1461092a578063e898fc381461090c578063e9e34a16146108e3578063ebe0ff15146108bf578063ec597e6f146108a1578063f207564e14610299578063f5d74d93146102705763fddc806f14610250575f80fd5b3461026d578060031936011261026d576020603a54604051908152f35b80fd5b503461026d578060031936011261026d576004546040516001600160a01b039091168152602090f35b503461026d57602036600319011261026d57600435338252600f6020526040822054610867578082526010602052600360408320015415610830576001548290602090610327906001600160a01b03166102f1611e69565b90546040516323b872dd60e01b815233600482015230602482015260039290921b1c604482015293849283919082906064820190565b03925af18015610825576107f8575b5060055490610348600654809361200b565b91600181018091116107e457600655338352600f60205281604084205561036d611e69565b90549060031b1c9082845260106020526040842091336bffffffffffffffffffffffff60a01b845416178355426002840155836003840155600483018281556001600685015581600a850155426011850155600f600b8501558286526010602052600760408720018054906001820180921161062a575582865260156020526103f985604088206125b2565b818652600c602052604086208054906001820180921161062a5755818652600a6020526040862054828752600b602052604087208688526020526040872055858690848852601460205260026040892054105f1461069f57505084865260106020528260056040882001558286526014602052604086208054906001820180921161062a5755825b86905b600f821061063e575b50506005820282159083810460051482171561062a5760649004603c840291848304603c14811715610602576104c582603b5461200b565b603b5560238502858104602314821715610616576103e86104e9910460425461200b565b604255600f8502858104600f14821715610616576103e861050d910460495461200b565b604955601985029085820460191417156106025760646105489361054087969461053b8c99858b9704612913565b612857565b049154612984565b60405190600182526020820152608060408201527f26adb22cec823ef144935e9fbef1b6b4a3a29dacbe5444d59292fa2620f3d3776105ad60808301604090601581527453706f6e736f72736869702053747275637475726560581b60208201520190565b914260608201528033930390a383526010602052600560018060a01b036040852054169101546040519081527f309bb360e8b69c23937ccc5fb01f9aeeead1c95a99604e175113ff82f2b1723a60203392a480f35b634e487b7160e01b89526011600452602489fd5b634e487b7160e01b8a52601160045260248afd5b634e487b7160e01b88526011600452602488fd5b801561069a578088526010602052600960408920018054906001820180921161061657558088526013602052604088208289526020526106818760408a206125b2565b8752601060205260016005604089200154910190610484565b61048d565b875b600f81106106b1575b5050610481565b816107df57858952601360205260408920600182018083116107a8578a526020526040892054600282018083116107a85760ff81116107a8576001901b116106fc575b6001016106a1565b94939096959192885b858a52601360205260408a20878b5260205260408a20548110156107cf57886107bc57858a52601360205260408a20878b526020526107478160408c20611e9b565b90549060031b1c808b526014602052600260408c20541061076c575b50600101610705565b9194509750868952601060205280600560408b200155808952601460205260408920805490600182018092116107a85755926001809890610763565b634e487b7160e01b8b52601160045260248bfd5b50929195969093946001905b90506106f4565b50929195969093946001906107c8565b6106aa565b634e487b7160e01b84526011600452602484fd5b6108199060203d60201161081e575b6108118183612431565b810190612467565b610336565b503d610807565b6040513d85823e3d90fd5b60405162461bcd60e51b815260206004820152600f60248201526e24b73b30b634b21039b837b739b7b960891b6044820152606490fd5b60405162461bcd60e51b8152602060048201526012602482015271105b1c9958591e481c9959da5cdd195c995960721b6044820152606490fd5b503461026d578060031936011261026d576020600554604051908152f35b503461026d578060031936011261026d576020604051683635c9adc5dea000008152f35b503461026d578060031936011261026d576003546040516001600160a01b039091168152602090f35b503461026d578060031936011261026d576020604154604051908152f35b503461026d578060031936011261026d57602060405160058152f35b503461026d57602036600319011261026d5760043560088110156109745760209150601f0154604051908152f35b5080fd5b503461026d57602036600319011261026d576004356001600160a01b03811690819003610974578160409160209352600f83522054604051908152f35b503461026d578060031936011261026d576020603954604051908152f35b503461026d578060031936011261026d576020604054604051908152f35b503461026d578060031936011261026d57602060405169021e19e0c9bab24000008152f35b503461026d57602036600319011261026d5760043590600d5482101561026d576020610a4183611e3d565b90549060031b1c604051908152f35b503461026d578060031936011261026d576020600654604051908152f35b503461026d57602036600319011261026d576004359060165482101561026d57601654821015610ab1576020916016825282822001549060031b1c604051908152f35b634e487b7160e01b81526032600452602490fd5b503461026d578060031936011261026d5760206040516283d6008152f35b503461026d578060031936011261026d576020604254604051908152f35b503461026d578060031936011261026d576020604854604051908152f35b503461026d57610b2e36611e27565b610b399291926125eb565b828252601060205260408220546001600160a01b0316610b5a338214611ee6565b15610f045782151580610efb575b80610edd575b80610ed2575b610b7d90611f25565b828252604c60205260408220818352604a60205260408320610baa600160ff600485015416151514612364565b6003820183855280602052610bc660ff604087205416156123a1565b600382015491821593610bd98515611f8a565b610bfe8660016004850193610bf5600286549701548710611fcb565b015411156123ed565b60018201809211610ebe575583855260205260408420600160ff198254161790558484526010602052604084209360018060a01b03855416928315610e8a57610e57578581526011602052604081209080610c5a84845461200b565b8355610e4357505f94939450600b8101610c7583825461200b565b90555493600b8401549260065f9501955b8654861015610e3657610c9886611e3d565b90549060031b1c885f52600e60205260405f20815f526020528560405f20916003830160ff815416801590818092610e20575b15610d0857505091600a610cf18260019794610cff97968960ff1982541617905561247f565b049283600282015555612018565b955b0194610c86565b9150925080610e0b575b15610d305750506001916002610d2a92015490612018565b95610d01565b929792879082610df3575b5050610d4a5750600190610d01565b91979593965050600191935001555b600154610d7290849086906001600160a01b0316613295565b6040518381525f60208201529082807f6ac5dc27fbf1276a5db7faad992ea92a268d34b18f81922f747d9d3beb5f9c55965f5160206134215f395f51905f5260808660096040610dea990152426060820152a46040519384934292859094939260609260808301968352602083015260408201520152565b0390a160015f55005b600a925090610e019161247f565b048710865f610d3b565b50600a610e18898361247f565b048411610d12565b50600a610e2d868661247f565b04871015610ccb565b5095935091509250610d59565b634e487b7160e01b81526021600452602490fd5b60405162461bcd60e51b815260206004820152600b60248201526a16995c9bc8185b5bdd5b9d60aa1b6044820152606490fd5b60405162461bcd60e51b815260206004820152600c60248201526b24b73b30b634b2103ab9b2b960a11b6044820152606490fd5b634e487b7160e01b87526011600452602487fd5b506047548110610b74565b50808252604a602052600160ff600860408520015416151514610b6e565b50801515610b68565b60405162461bcd60e51b815260206004820152600f60248201526e125b9d985b1a59081858d8dbdd5b9d608a1b6044820152606490fd5b503461026d57602036600319011261026d576004356008811015610974576020915060270154604051908152f35b503461026d576040602091610f7d36611e27565b908252600b845282822090825283522054604051908152f35b503461026d576020610fb0610faa36611e27565b90612509565b6040519015158152f35b503461026d578060031936011261026d576002546040516001600160a01b039091168152602090f35b503461026d578060031936011261026d576020600954604051908152f35b503461026d578060031936011261026d57602060405162093a808152f35b503461026d578060031936011261026d57602060405163025143008152f35b503461026d578060031936011261026d576020604954604051908152f35b611eb0565b503461026d57604061107b61107536611e27565b90612492565b82519182526020820152f35b503461026d578060031936011261026d576020604754604051908152f35b503461026d57602036600319011261026d5760406020916004358152600a83522054604051908152f35b503461026d57602036600319011261026d5760043580825260106020526040822061110460018060a01b038254163314611ee6565b600681018054600f8110156115515761111c81611e3d565b90546001546040516323b872dd60e01b815233600482015230602482015260039390931b9190911c60448301819052939190602090829060649082908b906001600160a01b03165af1801561154657611529575b5080549060018201809211610ebe5755600a830161118f83825461200b565b90556005820292821593838104600514851715610ebe5760649004936019840284810460191482171561062a578460646111c99204612913565b838752600a6020526040872054848852600b6020526040882087895260205260408820556111f685612857565b838752600c602052604087208054906001820180921161060257556014840284810460141482171561062a576064900494600483019384549660018201978883116107a8579188826112518261126c958e61127499986129b4565b8b8d60058a0161126485858584546129f3565b549050612c82565b603b5461200b565b603b556023840284810460231482171561062a576103e8611298910460425461200b565b604255600f840290848204600f141715610ebe576103e86112bc910460495461200b565b604955600a841461143c575b600f8414611346575b50506040519182526020820152608060408201527f26adb22cec823ef144935e9fbef1b6b4a3a29dacbe5444d59292fa2620f3d37761133660808301604090601581527453706f6e736f72736869702053747275637475726560581b60208201520190565b914260608201528033930390a380f35b60134291015583855260106020526040852090548552601060205260408520601581018054906001820180921161062a579080600292551015908161141e575b8161140e575b506113f8575b60026015820154101590816113d5575b816113c6575b506113b5575b5f806112d1565b6113c160475484613178565b6113ae565b600f915060060154145f6113a8565b9050601381015460118201549063025143008201809211610ebe571115906113a2565b611409600482015460475490613178565b611392565b600f91506006015410155f61138c565b9050601181015463025143008101809111610ebe5742111590611386565b426012820155848652601060205260408620825487526010602052604087206014810180549060018201809211610616579080600592551015908161150c575b816114fc575b506114e6575b60056014820154101590816114c4575b816114b5575b50156112c8576114b060405486613017565b6112c8565b600a915060060154145f61149e565b905060128101546011820154906283d600820180921161060257111590611498565b6114f7600482015460405490613017565b611488565b600a91506006015410155f611482565b905060118101546283d6008101809111610602574211159061147c565b6115419060203d60201161081e576108118183612431565b611170565b6040513d89823e3d90fd5b60405162461bcd60e51b8152602060048201526014602482015273105b1c9958591e48185d081b585e081b195d995b60621b6044820152606490fd5b503461026d578060031936011261026d5760206040516202a3008152f35b503461026d576115ba36611e27565b6115c59291926125eb565b82825260106020526115e460018060a01b036040842054163314611ee6565b821515806118d1575b806118b3575b806118a8575b61160290611f25565b82825260456020526040822081835260436020526040832061162f600160ff600485015416151514612364565b600382018385528060205261164b60ff604087205416156123a1565b60038201549182159361165e8515611f8a565b61167a8660016004850193610bf5600286549701548710611fcb565b60018201809211610ebe575583855260205260408420600160ff198254161790558484526010602052604084209360018060a01b03855416928315610e8a57610e575785815260116020526040812090806116d684845461200b565b8355610e4357505f94939450600a81016116f183825461200b565b90555493600b8401549260065f9501955b865486101561189b5761171486611e3d565b90549060031b1c885f52600e60205260405f20815f526020528560405f20916003830160ff815416801590818092611885575b1561177657505091600a610cf1826001979461176d97968960ff1982541617905561247f565b955b0194611702565b9150925080611870575b1561179e575050600191600261179892015490612018565b9561176f565b929792879082611858575b50506117b8575060019061176f565b91979593965050600191935001555b6001546117e090849086906001600160a01b0316613295565b6040518381525f60208201529082807f8211032682f8fd8be8ff252e0a106cdb6ad4b10427152b4d93c2bc9a1f11c3c2965f5160206134215f395f51905f5260808660086040610dea990152426060820152a46040519384934292859094939260609260808301968352602083015260408201520152565b600a9250906118669161247f565b048710865f6117a9565b50600a61187d898361247f565b048411611780565b50600a611892868661247f565b04871015611747565b50959350915092506117c7565b5060405481106115f9565b508082526043602052600160ff6008604085200154161515146115f3565b508015156115ed565b503461026d57602036600319011261026d576004359060075482101561026d57600754821015610ab1576020916007825282822001549060031b1c604051908152f35b611ecb565b503461026d578060031936011261026d576020604051670de0b6b3a76400008152f35b503461026d578060031936011261026d576020604051620151808152f35b503461026d578060031936011261026d57602060405160028152f35b503461026d578060031936011261026d576020603b54604051908152f35b503461026d578060031936011261026d576001546040516001600160a01b039091168152602090f35b503461026d578060031936011261026d57602060405162278d008152f35b503461026d57602036600319011261026d576004359060175482101561026d57601754821015610ab1576020916017825282822001549060031b1c604051908152f35b503461026d57602036600319011261026d576004356007811015610974576020915060180154604051908152f35b503461026d57611a6d611a6736611e27565b90612043565b80f35b34611ddf57611a7e36611e27565b611a866125eb565b815f526010602052611aa560018060a01b0360405f2054163314611ee6565b81151580611dd6575b80611db8575b80611dad575b611ac390611f25565b805f52603e60205260405f20825f5260205260405f2090805f52603c602052600360405f209201918254600160ff8260081c161515149081611da1575b5015611d5d57600381015492831591611b198315611f8a565b60048101611b2e600282549301548310611fcb565b60018201809211611d495755600160ff19825416179055835f52601060205260405f209260018060a01b03845416918215610e8a57610e5757845f94939452601160205260405f20611b8182825461200b565b815560098101611b9283825461200b565b90555493600b8401549260065f9501955b8654861015611d3c57611bb586611e3d565b90549060031b1c885f52600e60205260405f20815f526020528560405f20916003830160ff815416801590818092611d26575b15611c1757505091600a610cf18260019794611c0e97968960ff1982541617905561247f565b955b0194611ba3565b9150925080611d11575b15611c3f5750506001916002611c3992015490612018565b95611c10565b929792879082611cf9575b5050611c595750600190611c10565b91979593965050600191935001555b600154611c8190849086906001600160a01b0316613295565b6040518381525f60208201529082807f96ee4f374d0394c5383b347dc3b7ec04a1eceddcd2e25521157bce21c42b24d5965f5160206134215f395f51905f5260808660076040610dea990152426060820152a46040519384934292859094939260609260808301968352602083015260408201520152565b600a925090611d079161247f565b048710868b611c4a565b50600a611d1e898361247f565b048411611c21565b50600a611d33868661247f565b04871015611be8565b5095935091509250611c68565b634e487b7160e01b5f52601160045260245ffd5b606460405162461bcd60e51b815260206004820152602060248201527f4e6f74207175616c6966696564206f7220616c726561647920636c61696d65646044820152fd5b60ff9150161585611b00565b506039548110611aba565b50805f52603c602052600160ff600860405f20015416151514611ab4565b50801515611aae565b5f80fd5b34611ddf576020366003190112611ddf576004355f52600c602052602060405f2054604051908152f35b34611ddf575f366003190112611ddf578061271060209252f35b6040906003190112611ddf576004359060243590565b600d54811015611e5557600d5f5260205f2001905f90565b634e487b7160e01b5f52603260045260245ffd5b600d5415611e5557600d5f9081527fd7b6990105719101dabeb77144f2a3385c8033acd3af97e9423a695e81ad1eb591565b8054821015611e55575f5260205f2001905f90565b34611ddf575f366003190112611ddf576020604051600a8152f35b34611ddf575f366003190112611ddf576020604051600f8152f35b15611eed57565b60405162461bcd60e51b815260206004820152601060248201526f139bdd081e5bdd5c881858d8dbdd5b9d60821b6044820152606490fd5b15611f2c57565b60405162461bcd60e51b815260206004820152603060248201527f496e76616c696420757365724964206f7220726f756e644964206f7220726f7560448201526f1b99081bdc881b9bdd0818db1bdcd95960821b6064820152608490fd5b15611f9157565b60405162461bcd60e51b81526020600482015260126024820152714e6f2072657761726420746f20636c61696d60701b6044820152606490fd5b15611fd257565b60405162461bcd60e51b8152602060048201526011602482015270105b1b081d5cd95c9cc818db185a5b5959607a1b6044820152606490fd5b91908201809211611d4957565b91908203918211611d4957565b811561202f570490565b634e487b7160e01b5f52601260045260245ffd5b919091805f52601060205260405f2060038101541561232e576006849161207460018060a01b038254163314611ee6565b0154036122f757825f52600a60205260405f205490835f52600b60205260405f20815f5260205260405f20548083146122f0576120ba670de0b6b3a76400009184612018565b049081156122d3576120cc82826127fe565b92855f52600b60205260405f20825f5260205260405f20558215801561210d575b5050908092935081116120fe575050565b61210b9161053b91612018565b565b815f52601060205260405f209460018060a01b03865416918215610e8a57610e5757825f96959652601160205260405f2061214987825461200b565b81556006810161215a88825461200b565b90555495600b8601549460065f9701975b88548810156122c55761217d88611e3d565b90549060031b1c865f52600e60205260405f20815f526020528760405f20916003830160ff8154168015908180926122af575b156121df57505091600a610cf182600197946121d697968960ff1982541617905561247f565b975b019661216b565b915092508061229a575b15612207575050600191600261220192015490612018565b976121d8565b929992899082612282575b505061222157506001906121d8565b9197939995965050600191975001555b60015461224a90869083906001600160a01b0316613295565b60405185815260208101929092525f5160206134215f395f51905f526080836004604087960152426060820152a49082915f806120ed565b600a9250906122909161247f565b048910885f612212565b50600a6122a78b8361247f565b0484116121e9565b50600a6122bc868661247f565b048710156121b0565b509550955095919250612231565b91929390505f52600b60205260405f20905f5260205260405f2055565b5050509050565b60405162461bcd60e51b815260206004820152600f60248201526e496e76616c6964207061636b61676560881b6044820152606490fd5b60405162461bcd60e51b815260206004820152600e60248201526d155cd95c881b9bdd08199bdd5b9960921b6044820152606490fd5b1561236b57565b60405162461bcd60e51b815260206004820152600e60248201526d02737ba1038bab0b634b334b2b2160951b6044820152606490fd5b156123a857565b60405162461bcd60e51b815260206004820152601e60248201527f416c726561647920636c61696d656420666f72207468697320726f756e6400006044820152606490fd5b156123f457565b60405162461bcd60e51b81526020600482015260156024820152744e6f7420656c696769626c6520746f20636c61696d60581b6044820152606490fd5b90601f8019910116810190811067ffffffffffffffff82111761245357604052565b634e487b7160e01b5f52604160045260245ffd5b90816020910312611ddf57518015158103611ddf5790565b81810292918115918404141715611d4957565b9190825f526010602052600360405f2001541561250157805f52600a60205260405f2054905f52600b60205260405f20835f5260205260405f205490818111156124f7576124ec6124f492670de0b6b3a764000092612018565b0480936127fe565b90565b505090505f905f90565b505f91508190565b5f52604560205260405f20815f52604360205260405f209060ff600883015416159283156125a5575b8315612595575b8315612586575b831561256b575b5050811561255e575b5061255a57600190565b5f90565b600391500154155f612550565b60039293505f520160205260ff60405f205416905f80612547565b80935060018201541192612540565b600482015460ff16159350612539565b6040548110159350612532565b805468010000000000000000811015612453576125d491600182018155611e9b565b819291549060031b91821b915f19901b1916179055565b60025f54146125fa5760025f55565b60405162461bcd60e51b815260206004820152601f60248201527f5265656e7472616e637947756172643a207265656e7472616e742063616c6c006044820152606490fd5b909193815f52601060205260405f209360018060a01b03855416918215610e8a578615610e5757835f96959652601160205260405f2061268088825461200b565b81556001810161269189825461200b565b90555495600b8601549460065f9701975b88548810156127f0576126b488611e3d565b90549060031b1c825f52600e60205260405f20815f526020528760405f20916003830160ff8154168015908180926127da575b1561271657505091600a610cf1826001979461270d97968960ff1982541617905561247f565b975b01966126a2565b91509250806127c5575b1561273e575050600191600261273892015490612018565b9761270f565b9299928990826127ad575b5050612758575060019061270f565b9197939995965050600191975001555b60015461278190839085906001600160a01b0316613295565b6040519182526020820152608081600160405f5160206134215f395f51905f52940152426060820152a4565b600a9250906127bb9161247f565b048910885f612749565b50600a6127d28b8361247f565b048411612720565b50600a6127e7868661247f565b048710156126e7565b509550955095919250612768565b805f52601060205260405f20905f526011602052600a61282a60405f209282600b82015491015461247f565b049054818110156128505761283e91612018565b908181111561284b575090565b905090565b5050505f90565b6002546001600160a01b03169081156128da57600154608092612885918391906001600160a01b0316613295565b6005545f52601160205260405f2061289e82825461200b565b905560018060a01b03600254165f5160206134215f395f51905f526005549384936040519081525f60208201525f6040820152426060820152a4565b60405162461bcd60e51b8152602060048201526011602482015270199959481859191c9cc81b9bdd081cd95d607a1b6044820152606490fd5b905f52600c60205260405f2054908115801561297c575b61296957670de0b6b3a7640000810290808204670de0b6b3a76400001490151715611d49576129649161295c91612025565b60095461200b565b600955565b8091506129735750565b61210b90612857565b50801561292a565b801580156129a9575b61299e579160019161210b9361263f565b505061210b90612857565b50600554811461298d565b929190831580156129da575b6129cd5761210b9361263f565b50905061210b9150612857565b5060055484146129c0565b5f198114611d495760010190565b92909260055481148015612c7a575b612c6e5760015b828110612c3d5750925f935b80151580612c31575b80612c27575b15612c1a57805f52601060205260405f20908360068301541015612a5757506005612a51910154946129e5565b93612a15565b929450509193815f52601060205260405f209360018060a01b03855416918215610e8a578615610e5757835f96959652601160205260405f20612a9b88825461200b565b815560028101612aac89825461200b565b90555495600b8601549460065f9701975b8854881015612c0c57612acf88611e3d565b90549060031b1c825f52600e60205260405f20815f526020528760405f20916003830160ff815416801590818092612bf6575b15612b3157505091600a610cf18260019794612b2897968960ff1982541617905561247f565b975b0196612abd565b9150925080612be1575b15612b595750506001916002612b5392015490612018565b97612b2a565b929992899082612bc9575b5050612b735750600190612b2a565b9197939995965050600191975001555b600154612b9c90839085906001600160a01b0316613295565b604051918252602082015260028160809160405f5160206134215f395f51905f52940152426060820152a4565b600a925090612bd79161247f565b048910885f612b64565b50600a612bee8b8361247f565b048411612b3b565b50600a612c03868661247f565b04871015612b02565b509550955095919250612b83565b50505061210b9150612857565b50600f8510612a24565b50600554811415612a1e565b905f526010602052600560405f2001549081158015612c63575b612c1a57600101612a09565b506005548214612c57565b505061210b9150612857565b508015612a02565b9091949392946080528015801561300c575b8015613004575b612ff457612cab83608051612025565b61018052612cc7612cbf846101805161247f565b608051612018565b60e052935f925f60a0526001915f610100525b601e6101005110612d22575b50505050612cf8919250608051612018565b80612d13575b5060e051612d0857565b61210b60e051612857565b612d1c90612857565b5f612cfe565b909192949386158015612fe9575b612fce575f878152601060205260409020610120819052600601548211612faf57612d5e846101805161247f565b5f8881526010602052604090206101a0819052546001600160a01b0316918215610e8a578115610e5757885f52601160205260405f20612d9f83825461200b565b815560038101612db084825461200b565b90555461014052600b6101a0510154610160525f5b60066101a0510154811015612fa157612ddd81611e3d565b90549060031b1c908a5f52600e60205260405f20825f5260205260405f2060c05260ff600360c051015416918215808091612f85575b15612e69575060019250600a612e44612e5e928560ff19600360c05101541617600360c0510155610160519061247f565b0480600260c05101556101605160c0515561014051612018565b610140525b01612dc5565b919280612f6a575b15612e97575050600190612e8e600260c051015461014051612018565b61014052612e63565b81612f4d575b50612eaa57600190612e63565b50610140989293989795969751600160c05101555b600154612ed890839086906001600160a01b0316613295565b604051828152602081018a905292600390612f1d955f5160206134215f395f51905f526080878b956040612f149a0152426060820152a461200b565b9360a05161200b565b60a0526001905b8060a0511015612f47576005610120510154956001610100510161010052612cda565b80612ce6565b61016051600a9250612f5e9161247f565b0461014051105f612e9d565b50600a612f7a610160518361247f565b046101405111612e71565b50600a612f95610160518461247f565b04610140511015612e13565b509791929796949596612ebf565b9394929180919650821015612f245790612fc8906129e5565b90612f24565b939550505050612fe19150608051612018565b806129735750565b506005548714612d30565b505050905061210b608051612857565b508215612c9b565b506005548114612c94565b90815f52604560205260ff600460405f2001541615613034575050565b613041604054821461332e565b805f52604360205261305d60ff600860405f200154161561336a565b815f52601060205260405f20916012830154801561313f576011840154936283d6008501809511611d49577f42ee5ef523a95c6fb3ffdd2e9b34955b83ea8c2b11ff268c87ae6ea25556eaac946130d79211159060056014600a6006840154101592015410159082613137575b508161312f575b506133a5565b805f52604560205260405f206001600482019184828454926130fc60ff8516156133e0565b428155015560ff191617905561312a6040519283924291846040919493926060820195825260208201520152565b0390a1565b90505f6130d1565b91505f6130ca565b60405162461bcd60e51b8152602060048201526011602482015270055736572206e6f74206c6576656c20313607c1b6044820152606490fd5b90815f52604c60205260ff600460405f2001541615613195575050565b6131a2604754821461332e565b805f52604a6020526131be60ff600860405f200154161561336a565b815f52601060205260405f20916013830154801561325c5760118401549363025143008501809511611d49577f42ee5ef523a95c6fb3ffdd2e9b34955b83ea8c2b11ff268c87ae6ea25556eaac946132379211159060026015600f600684015410159201541015908261313757508161312f57506133a5565b805f52604c60205260405f206001600482019184828454926130fc60ff8516156133e0565b60405162461bcd60e51b815260206004820152601160248201527055736572206e6f74206c6576656c20313560781b6044820152606490fd5b60405163a9059cbb60e01b60208281019182526001600160a01b03909416602483015260448083019590955293815290925f916132d3606482612431565b519082855af115613323575f513d61331a57506001600160a01b0381163b155b6132fa5750565b635274afe760e01b5f9081526001600160a01b0391909116600452602490fd5b600114156132f3565b6040513d5f823e3d90fd5b1561333557565b60405162461bcd60e51b815260206004820152600d60248201526c125b9d985b1a59081c9bdd5b99609a1b6044820152606490fd5b1561337157565b60405162461bcd60e51b815260206004820152600c60248201526b149bdd5b990818db1bdcd95960a21b6044820152606490fd5b156133ac57565b60405162461bcd60e51b815260206004820152600c60248201526b4e6f7420656c696769626c6560a01b6044820152606490fd5b156133e757565b60405162461bcd60e51b8152602060048201526011602482015270185b1c9958591e48145d585b1a599a5959607a1b6044820152606490fdfe4d634c31300b97dad99b3af799178230163d88ad306370d063be9cd992d0be7fa2646970667358221220cab83277c44ad003532678ae187f93a5eb1f4b4e4cf6bf874406da220cc774a264736f6c634300081e0033d7b6990105719101dabeb77144f2a3385c8033acd3af97e9423a695e81ad1eb5c624b66cc0138b8fabc209247f72d758e1cf3343756d543badbf24212bed8c15d833147d7dc355ba459fc788f669e58cfaf9dc25ddcd0702e87d69c7b5124289",
			"opcodes": "PUSH1 0x80 PUSH1 0x40 MSTORE CALLVALUE PUSH2 0x71 JUMPI PUSH1 0x40 MLOAD PUSH1 0x1F PUSH2 0x3F1E CODESIZE DUP2 SWAP1 SUB SWAP2 DUP3 ADD PUSH1 0x1F NOT AND DUP4 ADD SWAP2 PUSH1 0x1 PUSH1 0x1 PUSH1 0x40 SHL SUB DUP4 GT DUP5 DUP5 LT OR PUSH2 0x75 JUMPI DUP1 DUP5 SWAP3 PUSH1 0x40 SWAP5 DUP6 MSTORE DUP4 CODECOPY DUP2 ADD SUB SLT PUSH2 0x71 JUMPI DUP1 PUSH2 0x5C PUSH1 0x20 PUSH2 0x55 PUSH2 0x62 SWAP5 PUSH2 0xE7 JUMP JUMPDEST SWAP3 ADD PUSH2 0xE7 JUMP JUMPDEST SWAP1 PUSH2 0x15C JUMP JUMPDEST PUSH1 0x40 MLOAD PUSH2 0x3476 SWAP1 DUP2 PUSH2 0xA48 DUP3 CODECOPY RETURN JUMPDEST PUSH0 DUP1 REVERT JUMPDEST PUSH4 0x4E487B71 PUSH1 0xE0 SHL PUSH0 MSTORE PUSH1 0x41 PUSH1 0x4 MSTORE PUSH1 0x24 PUSH0 REVERT JUMPDEST PUSH1 0x40 MLOAD SWAP1 PUSH1 0xE0 DUP3 ADD PUSH1 0x1 PUSH1 0x1 PUSH1 0x40 SHL SUB DUP2 GT DUP4 DUP3 LT OR PUSH2 0x75 JUMPI PUSH1 0x40 MSTORE JUMP JUMPDEST PUSH1 0x40 MLOAD SWAP1 PUSH2 0x100 DUP3 ADD PUSH1 0x1 PUSH1 0x1 PUSH1 0x40 SHL SUB DUP2 GT DUP4 DUP3 LT OR PUSH2 0x75 JUMPI PUSH1 0x40 MSTORE JUMP JUMPDEST PUSH1 0x40 MLOAD SWAP1 PUSH1 0xA0 DUP3 ADD PUSH1 0x1 PUSH1 0x1 PUSH1 0x40 SHL SUB DUP2 GT DUP4 DUP3 LT OR PUSH2 0x75 JUMPI PUSH1 0x40 MSTORE JUMP JUMPDEST MLOAD SWAP1 PUSH1 0x1 PUSH1 0x1 PUSH1 0xA0 SHL SUB DUP3 AND DUP3 SUB PUSH2 0x71 JUMPI JUMP JUMPDEST SWAP2 SWAP1 DUP3 ADD DUP1 SWAP3 GT PUSH2 0x108 JUMPI JUMP JUMPDEST PUSH4 0x4E487B71 PUSH1 0xE0 SHL PUSH0 MSTORE PUSH1 0x11 PUSH1 0x4 MSTORE PUSH1 0x24 PUSH0 REVERT JUMPDEST DUP1 SLOAD SWAP1 PUSH9 0x10000000000000000 DUP3 LT ISZERO PUSH2 0x75 JUMPI PUSH1 0x1 DUP3 ADD DUP1 DUP3 SSTORE DUP3 LT ISZERO PUSH2 0x148 JUMPI PUSH0 MSTORE PUSH1 0x20 PUSH0 KECCAK256 ADD SSTORE JUMP JUMPDEST PUSH4 0x4E487B71 PUSH1 0xE0 SHL PUSH0 MSTORE PUSH1 0x32 PUSH1 0x4 MSTORE PUSH1 0x24 PUSH0 REVERT JUMPDEST PUSH1 0x1 PUSH0 SSTORE PUSH1 0x40 MLOAD PUSH2 0x1E0 DUP2 ADD PUSH1 0x1 PUSH1 0x1 PUSH1 0x40 SHL SUB DUP2 GT DUP3 DUP3 LT OR PUSH2 0x75 JUMPI PUSH1 0x40 MSTORE PUSH8 0xD02AB486CEDC0000 DUP2 MSTORE PUSH9 0x15AF1D78B58C40000 PUSH1 0x20 DUP3 ADD MSTORE PUSH9 0x2B5E3AF16B1880000 PUSH1 0x40 DUP3 ADD MSTORE PUSH9 0x56BC75E2D63100000 PUSH1 0x60 DUP3 ADD MSTORE PUSH9 0xAD78EBC5AC6200000 PUSH1 0x80 DUP3 ADD MSTORE PUSH9 0x15AF1D78B58C400000 PUSH1 0xA0 DUP3 ADD MSTORE PUSH9 0x2B5E3AF16B18800000 PUSH1 0xC0 DUP3 ADD MSTORE PUSH9 0x56BC75E2D631000000 PUSH1 0xE0 DUP3 ADD MSTORE PUSH9 0xAD78EBC5AC62000000 PUSH2 0x100 DUP3 ADD MSTORE PUSH10 0x15AF1D78B58C4000000 PUSH2 0x120 DUP3 ADD MSTORE PUSH10 0x2B5E3AF16B188000000 PUSH2 0x140 DUP3 ADD MSTORE PUSH10 0x56BC75E2D6310000000 PUSH2 0x160 DUP3 ADD MSTORE PUSH10 0xAD78EBC5AC620000000 PUSH2 0x180 DUP3 ADD MSTORE PUSH10 0x15AF1D78B58C40000000 PUSH2 0x1A0 DUP3 ADD MSTORE PUSH10 0x2B5E3AF16B1880000000 PUSH2 0x1C0 DUP3 ADD MSTORE PUSH1 0xD SLOAD PUSH1 0xF PUSH1 0xD SSTORE DUP1 PUSH1 0xF LT PUSH2 0x9EE JUMPI JUMPDEST POP PUSH1 0xD PUSH0 MSTORE PUSH1 0x20 PUSH0 KECCAK256 SWAP1 PUSH0 JUMPDEST PUSH1 0xF DUP2 LT PUSH2 0x9D1 JUMPI POP POP POP PUSH2 0x297 PUSH2 0x89 JUMP JUMPDEST PUSH9 0x410D586A20A4C0000 DUP2 MSTORE PUSH9 0x1043561A8829300000 PUSH1 0x20 DUP3 ADD MSTORE PUSH9 0x410D586A20A4C00000 PUSH1 0x40 DUP3 ADD MSTORE PUSH10 0x1043561A88293000000 PUSH1 0x60 DUP3 ADD MSTORE PUSH10 0x410D586A20A4C000000 PUSH1 0x80 DUP3 ADD MSTORE PUSH10 0x1043561A882930000000 PUSH1 0xA0 DUP3 ADD MSTORE PUSH10 0x410D586A20A4C0000000 PUSH1 0xC0 DUP3 ADD MSTORE PUSH1 0x16 SLOAD PUSH1 0x7 PUSH1 0x16 SSTORE DUP1 PUSH1 0x7 LT PUSH2 0x98E JUMPI JUMPDEST POP PUSH1 0x16 PUSH0 MSTORE PUSH1 0x20 PUSH0 KECCAK256 SWAP1 PUSH0 JUMPDEST PUSH1 0x7 DUP2 LT PUSH2 0x971 JUMPI POP POP POP PUSH2 0x331 PUSH2 0xA8 JUMP JUMPDEST PUSH9 0x56BC75E2D63100000 DUP2 MSTORE PUSH9 0xAD78EBC5AC6200000 PUSH1 0x20 DUP3 ADD MSTORE PUSH9 0x15AF1D78B58C400000 PUSH1 0x40 DUP3 ADD MSTORE PUSH9 0x2B5E3AF16B18800000 PUSH1 0x60 DUP3 ADD MSTORE PUSH9 0x56BC75E2D631000000 PUSH1 0x80 DUP3 ADD MSTORE PUSH9 0xAD78EBC5AC62000000 PUSH1 0xA0 DUP3 ADD MSTORE PUSH10 0x15AF1D78B58C4000000 PUSH1 0xC0 DUP3 ADD MSTORE PUSH10 0x2B5E3AF16B188000000 PUSH1 0xE0 DUP3 ADD MSTORE PUSH1 0x17 SLOAD PUSH1 0x8 PUSH1 0x17 SSTORE DUP1 PUSH1 0x8 LT PUSH2 0x92E JUMPI JUMPDEST POP PUSH1 0x17 PUSH0 MSTORE PUSH1 0x20 PUSH0 KECCAK256 SWAP1 PUSH0 JUMPDEST PUSH1 0x8 DUP2 LT PUSH2 0x911 JUMPI POP POP POP PUSH2 0x3D8 PUSH2 0x89 JUMP JUMPDEST PUSH1 0x3 DUP2 MSTORE PUSH1 0x5 PUSH1 0x20 DUP3 ADD MSTORE PUSH1 0x7 PUSH1 0x40 DUP3 ADD MSTORE PUSH1 0x9 PUSH1 0x60 DUP3 ADD MSTORE PUSH1 0xB PUSH1 0x80 DUP3 ADD MSTORE PUSH1 0xD PUSH1 0xA0 DUP3 ADD MSTORE PUSH1 0xF PUSH1 0xC0 DUP3 ADD MSTORE PUSH0 JUMPDEST PUSH1 0x7 DUP2 LT PUSH2 0x8F9 JUMPI POP POP PUSH2 0x41A PUSH2 0xA8 JUMP JUMPDEST PUSH1 0x4 DUP2 MSTORE PUSH1 0x5 PUSH1 0x20 DUP3 ADD MSTORE PUSH1 0x6 PUSH1 0x40 DUP3 ADD MSTORE PUSH1 0x7 PUSH1 0x60 DUP3 ADD MSTORE PUSH1 0x8 PUSH1 0x80 DUP3 ADD MSTORE PUSH1 0x9 PUSH1 0xA0 DUP3 ADD MSTORE PUSH1 0xA PUSH1 0xC0 DUP3 ADD MSTORE PUSH1 0xB PUSH1 0xE0 DUP3 ADD MSTORE PUSH0 JUMPDEST PUSH1 0x8 DUP2 LT PUSH2 0x8E1 JUMPI POP POP PUSH2 0x463 PUSH2 0xA8 JUMP JUMPDEST PUSH0 DUP2 MSTORE PUSH1 0x1 PUSH1 0x20 DUP3 ADD MSTORE PUSH1 0x1 PUSH1 0x40 DUP3 ADD MSTORE PUSH1 0x1 PUSH1 0x60 DUP3 ADD MSTORE PUSH1 0x1 PUSH1 0x80 DUP3 ADD MSTORE PUSH1 0x1 PUSH1 0xA0 DUP3 ADD MSTORE PUSH1 0x1 PUSH1 0xC0 DUP3 ADD MSTORE PUSH1 0x1 PUSH1 0xE0 DUP3 ADD MSTORE PUSH0 JUMPDEST PUSH1 0x8 DUP2 LT PUSH2 0x8C9 JUMPI POP POP PUSH0 PUSH1 0x39 DUP2 SWAP1 SSTORE PUSH1 0x3A DUP2 SWAP1 SSTORE PUSH1 0x3B DUP2 SWAP1 SSTORE PUSH1 0x1 PUSH1 0x40 DUP2 SWAP1 SSTORE PUSH1 0x41 DUP3 SWAP1 SSTORE PUSH1 0x42 DUP3 SWAP1 SSTORE PUSH1 0x47 DUP2 SWAP1 SSTORE PUSH1 0x48 DUP3 SWAP1 SSTORE PUSH1 0x49 DUP3 SWAP1 SSTORE DUP1 SLOAD PUSH1 0x1 PUSH1 0x1 PUSH1 0xA0 SHL SUB NOT SWAP1 DUP2 AND PUSH1 0x1 PUSH1 0x1 PUSH1 0xA0 SHL SUB SWAP5 DUP6 AND OR DUP3 SSTORE PUSH1 0x2 DUP1 SLOAD DUP3 AND SWAP6 SWAP1 SWAP5 AND SWAP5 DUP6 OR DUP5 SSTORE PUSH2 0x3E8 PUSH1 0x5 DUP2 SWAP1 SSTORE PUSH1 0x6 SWAP3 SWAP1 SWAP3 SSTORE DUP2 DUP4 MSTORE PUSH1 0x10 PUSH1 0x20 MSTORE PUSH32 0x92673BC4B5FF73490AF990EA8B2927E66EC918198708735B1DD7FCFF379D9D85 DUP1 SLOAD SWAP1 SWAP2 AND DUP6 OR DUP2 SSTORE PUSH32 0x92673BC4B5FF73490AF990EA8B2927E66EC918198708735B1DD7FCFF379D9D88 SWAP2 SWAP1 SWAP2 SSTORE PUSH1 0xF PUSH32 0x92673BC4B5FF73490AF990EA8B2927E66EC918198708735B1DD7FCFF379D9D8B SSTORE TIMESTAMP PUSH32 0x92673BC4B5FF73490AF990EA8B2927E66EC918198708735B1DD7FCFF379D9D96 SSTORE PUSH1 0x7 PUSH32 0x92673BC4B5FF73490AF990EA8B2927E66EC918198708735B1DD7FCFF379D9D91 SSTORE PUSH1 0x8 PUSH32 0x92673BC4B5FF73490AF990EA8B2927E66EC918198708735B1DD7FCFF379D9D94 SSTORE PUSH32 0x92673BC4B5FF73490AF990EA8B2927E66EC918198708735B1DD7FCFF379D9D8D SWAP3 SWAP1 SWAP3 SSTORE PUSH1 0xD SLOAD SWAP2 SWAP3 SWAP2 DUP2 SWAP1 JUMPDEST PUSH1 0xF DUP3 LT PUSH2 0x895 JUMPI POP POP PUSH1 0xA DUP4 ADD SSTORE PUSH1 0x5 SLOAD PUSH0 SWAP2 DUP3 MSTORE PUSH1 0xF PUSH1 0x20 MSTORE PUSH1 0x40 DUP3 KECCAK256 SSTORE SWAP2 DUP3 JUMPDEST PUSH1 0x16 SLOAD DUP5 LT ISZERO PUSH2 0x721 JUMPI PUSH1 0x16 SLOAD DUP5 LT ISZERO PUSH2 0x148 JUMPI PUSH1 0x16 PUSH0 MSTORE PUSH0 MLOAD PUSH1 0x20 PUSH2 0x3EFE PUSH0 CODECOPY PUSH0 MLOAD SWAP1 PUSH0 MSTORE DUP5 ADD SLOAD PUSH1 0x1 SWAP2 PUSH2 0x679 SWAP2 SWAP1 PUSH2 0xFB JUMP JUMPDEST SWAP4 PUSH2 0x6E0 PUSH1 0x5 SLOAD PUSH2 0x688 PUSH2 0xC8 JUMP JUMPDEST DUP2 DUP2 MSTORE PUSH1 0x20 DUP1 DUP3 ADD DUP4 DUP2 MSTORE PUSH1 0x40 DUP1 DUP5 ADD DUP8 DUP2 MSTORE PUSH0 PUSH1 0x60 DUP7 ADD DUP2 DUP2 MSTORE PUSH1 0x80 DUP8 ADD DUP3 DUP2 MSTORE DUP11 DUP4 MSTORE PUSH1 0x30 DUP8 MSTORE DUP5 DUP4 KECCAK256 SWAP9 DUP4 MSTORE SWAP8 SWAP1 SWAP6 MSTORE SWAP2 SWAP1 SWAP2 KECCAK256 SWAP4 MLOAD DUP5 SSTORE SWAP1 MLOAD PUSH1 0x1 DUP5 ADD SSTORE MLOAD PUSH1 0x2 DUP4 ADD SSTORE MLOAD PUSH1 0x3 DUP3 ADD SSTORE SWAP1 MLOAD PUSH1 0x4 SWAP1 SWAP2 ADD SSTORE JUMP JUMPDEST DUP1 PUSH0 MSTORE PUSH1 0x33 PUSH1 0x20 MSTORE PUSH2 0x6F8 PUSH1 0x40 PUSH0 KECCAK256 PUSH1 0x5 SLOAD SWAP1 PUSH2 0x11C JUMP JUMPDEST DUP1 PUSH0 MSTORE PUSH1 0x32 PUSH1 0x20 MSTORE PUSH2 0x71A PUSH1 0x40 PUSH0 KECCAK256 PUSH1 0x5 SLOAD SWAP1 DUP2 PUSH0 MSTORE PUSH1 0x20 MSTORE PUSH1 0x40 PUSH0 KECCAK256 PUSH2 0x11C JUMP JUMPDEST ADD SWAP3 PUSH2 0x643 JUMP JUMPDEST PUSH1 0xD DUP4 ADD SSTORE SWAP2 POP PUSH0 SWAP1 DUP2 JUMPDEST PUSH1 0x8 DUP2 LT PUSH2 0x7E4 JUMPI POP PUSH1 0x10 ADD SSTORE TIMESTAMP PUSH1 0x3A SSTORE TIMESTAMP PUSH1 0x41 SSTORE TIMESTAMP PUSH1 0x48 SSTORE PUSH0 PUSH1 0x3B SSTORE PUSH1 0x1 PUSH1 0x39 SSTORE PUSH0 PUSH1 0x42 SSTORE PUSH1 0x1 PUSH1 0x40 SSTORE PUSH0 PUSH1 0x49 SSTORE PUSH1 0x1 PUSH1 0x47 SSTORE PUSH1 0x1 PUSH0 MSTORE PUSH1 0x3E PUSH1 0x20 MSTORE PUSH1 0x40 PUSH0 KECCAK256 PUSH1 0x5 SLOAD PUSH0 MSTORE PUSH1 0x20 MSTORE PUSH1 0x40 PUSH0 KECCAK256 PUSH1 0x3 DUP2 ADD SWAP1 DUP2 SLOAD PUSH1 0xFF DUP2 PUSH1 0x8 SHR AND PUSH2 0x7DF JUMPI PUSH2 0x100 SWAP2 TIMESTAMP DUP2 SSTORE PUSH1 0x1 PUSH1 0x39 SLOAD SWAP2 ADD SSTORE PUSH2 0xFF00 NOT AND OR SWAP1 SSTORE PUSH32 0x360CB96D3E85B4FC299DDFA9A572850FC70961C86F0F1703F033143B0E5A82CF PUSH1 0x60 PUSH1 0x39 SLOAD PUSH1 0x5 SLOAD PUSH1 0x40 MLOAD SWAP2 DUP3 MSTORE PUSH1 0x20 DUP3 ADD MSTORE TIMESTAMP PUSH1 0x40 DUP3 ADD MSTORE LOG1 JUMP JUMPDEST POP POP POP JUMP JUMPDEST SWAP2 PUSH1 0x17 SLOAD DUP4 LT ISZERO PUSH2 0x148 JUMPI PUSH1 0x17 PUSH0 MSTORE PUSH0 MLOAD PUSH1 0x20 PUSH2 0x3EDE PUSH0 CODECOPY PUSH0 MLOAD SWAP1 PUSH0 MSTORE DUP4 ADD SLOAD PUSH1 0x1 SWAP2 PUSH2 0x811 SWAP2 SWAP1 PUSH2 0xFB JUMP JUMPDEST SWAP3 PUSH2 0x877 PUSH1 0x5 SLOAD PUSH2 0x820 PUSH2 0xC8 JUMP JUMPDEST DUP2 DUP2 MSTORE PUSH1 0x20 DUP1 DUP3 ADD DUP6 DUP2 MSTORE PUSH0 PUSH1 0x40 DUP1 DUP6 ADD DUP3 DUP2 MSTORE PUSH1 0x60 DUP7 ADD DUP4 DUP2 MSTORE TIMESTAMP PUSH1 0x80 DUP9 ADD SWAP1 DUP2 MSTORE DUP11 DUP6 MSTORE PUSH1 0x35 DUP8 MSTORE DUP4 DUP6 KECCAK256 SWAP9 DUP6 MSTORE SWAP8 SWAP1 SWAP6 MSTORE SWAP2 KECCAK256 SWAP4 MLOAD DUP5 SSTORE SWAP1 MLOAD PUSH1 0x1 DUP5 ADD SSTORE MLOAD PUSH1 0x2 DUP4 ADD SSTORE MLOAD PUSH1 0x3 DUP3 ADD SSTORE SWAP1 MLOAD PUSH1 0x4 SWAP1 SWAP2 ADD SSTORE JUMP JUMPDEST DUP1 PUSH0 MSTORE PUSH1 0x37 PUSH1 0x20 MSTORE PUSH2 0x88F PUSH1 0x40 PUSH0 KECCAK256 PUSH1 0x5 SLOAD SWAP1 PUSH2 0x11C JUMP JUMPDEST ADD PUSH2 0x72C JUMP JUMPDEST SWAP1 SWAP2 DUP2 DUP4 LT ISZERO PUSH2 0x148 JUMPI PUSH1 0xD PUSH0 MSTORE PUSH0 MLOAD PUSH1 0x20 PUSH2 0x3EBE PUSH0 CODECOPY PUSH0 MLOAD SWAP1 PUSH0 MSTORE DUP4 ADD SLOAD PUSH1 0x1 SWAP2 PUSH2 0x8C1 SWAP2 SWAP1 PUSH2 0xFB JUMP JUMPDEST SWAP3 ADD SWAP1 PUSH2 0x620 JUMP JUMPDEST PUSH1 0x1 SWAP1 PUSH1 0x20 PUSH1 0xFF DUP5 MLOAD AND SWAP4 ADD SWAP3 DUP2 PUSH1 0x27 ADD SSTORE ADD PUSH2 0x499 JUMP JUMPDEST PUSH1 0x1 SWAP1 PUSH1 0x20 PUSH1 0xFF DUP5 MLOAD AND SWAP4 ADD SWAP3 DUP2 PUSH1 0x1F ADD SSTORE ADD PUSH2 0x451 JUMP JUMPDEST PUSH1 0x1 SWAP1 PUSH1 0x20 PUSH1 0xFF DUP5 MLOAD AND SWAP4 ADD SWAP3 DUP2 PUSH1 0x18 ADD SSTORE ADD PUSH2 0x408 JUMP JUMPDEST DUP2 MLOAD PUSH1 0x1 PUSH1 0x1 PUSH1 0x50 SHL SUB AND DUP2 DUP5 ADD SSTORE PUSH1 0x20 SWAP1 SWAP2 ADD SWAP1 PUSH1 0x1 ADD PUSH2 0x3C5 JUMP JUMPDEST PUSH1 0x17 PUSH0 MSTORE PUSH2 0x96B SWAP1 PUSH0 MLOAD PUSH1 0x20 PUSH2 0x3EDE PUSH0 CODECOPY PUSH0 MLOAD SWAP1 PUSH0 MSTORE ADD PUSH32 0xC624B66CC0138B8FABC209247F72D758E1CF3343756D543BADBF24212BED8C1D PUSH2 0xA31 JUMP JUMPDEST PUSH0 PUSH2 0x3B9 JUMP JUMPDEST DUP2 MLOAD PUSH1 0x1 PUSH1 0x1 PUSH1 0x50 SHL SUB AND DUP2 DUP5 ADD SSTORE PUSH1 0x20 SWAP1 SWAP2 ADD SWAP1 PUSH1 0x1 ADD PUSH2 0x31E JUMP JUMPDEST PUSH1 0x16 PUSH0 MSTORE PUSH2 0x9CB SWAP1 PUSH0 MLOAD PUSH1 0x20 PUSH2 0x3EFE PUSH0 CODECOPY PUSH0 MLOAD SWAP1 PUSH0 MSTORE ADD PUSH32 0xD833147D7DC355BA459FC788F669E58CFAF9DC25DDCD0702E87D69C7B5124290 PUSH2 0xA31 JUMP JUMPDEST PUSH0 PUSH2 0x312 JUMP JUMPDEST DUP2 MLOAD PUSH1 0x1 PUSH1 0x1 PUSH1 0x50 SHL SUB AND DUP2 DUP5 ADD SSTORE PUSH1 0x20 SWAP1 SWAP2 ADD SWAP1 PUSH1 0x1 ADD PUSH2 0x284 JUMP JUMPDEST PUSH1 0xD PUSH0 MSTORE PUSH2 0xA2B SWAP1 PUSH0 MLOAD PUSH1 0x20 PUSH2 0x3EBE PUSH0 CODECOPY PUSH0 MLOAD SWAP1 PUSH0 MSTORE ADD PUSH32 0xD7B6990105719101DABEB77144F2A3385C8033ACD3AF97E9423A695E81AD1EC4 PUSH2 0xA31 JUMP JUMPDEST PUSH0 PUSH2 0x278 JUMP JUMPDEST DUP2 DUP2 LT PUSH2 0xA3C JUMPI POP POP JUMP JUMPDEST PUSH0 DUP2 SSTORE PUSH1 0x1 ADD PUSH2 0xA31 JUMP INVALID PUSH2 0x1C0 DUP1 PUSH1 0x40 MSTORE PUSH1 0x4 CALLDATASIZE LT ISZERO PUSH2 0x13 JUMPI PUSH0 DUP1 REVERT JUMPDEST PUSH0 SWAP1 PUSH0 CALLDATALOAD PUSH1 0xE0 SHR SWAP1 DUP2 PUSH4 0x1C234A8 EQ PUSH2 0x1E0D JUMPI POP DUP1 PUSH4 0x676D0D6 EQ PUSH2 0x1DE3 JUMPI DUP1 PUSH4 0x16298056 EQ PUSH2 0x1A70 JUMPI DUP1 PUSH4 0x1C4ECF68 EQ PUSH2 0x1A55 JUMPI DUP1 PUSH4 0x2132D204 EQ PUSH2 0x1A27 JUMPI DUP1 PUSH4 0x2350268F EQ PUSH2 0x19E4 JUMPI DUP1 PUSH4 0x23FD338E EQ PUSH2 0x105C JUMPI DUP1 PUSH4 0x2A891534 EQ PUSH2 0x19C6 JUMPI DUP1 PUSH4 0x2AE0EE0D EQ PUSH2 0x191D JUMPI DUP1 PUSH4 0x2F48AB7D EQ PUSH2 0x199D JUMPI DUP1 PUSH4 0x3080B5BC EQ PUSH2 0x197F JUMPI DUP1 PUSH4 0x31BB6A30 EQ PUSH2 0x1963 JUMPI DUP1 PUSH4 0x32BC298C EQ PUSH2 0x1945 JUMPI DUP1 PUSH4 0x32FCD966 EQ PUSH2 0x1922 JUMPI DUP1 PUSH4 0x375B43B4 EQ PUSH2 0x191D JUMPI DUP1 PUSH4 0x39AB3603 EQ PUSH2 0x18DA JUMPI DUP1 PUSH4 0x39F2E64A EQ PUSH2 0x15AB JUMPI DUP1 PUSH4 0x3A5084B3 EQ PUSH2 0x158D JUMPI DUP1 PUSH4 0x45977D03 EQ PUSH2 0x10CF JUMPI DUP1 PUSH4 0x45CB537C EQ PUSH2 0x10A5 JUMPI DUP1 PUSH4 0x4B8CBF9B EQ PUSH2 0x1087 JUMPI DUP1 PUSH4 0x54C5BD90 EQ PUSH2 0x1061 JUMPI DUP1 PUSH4 0x58C7D352 EQ PUSH2 0x105C JUMPI DUP1 PUSH4 0x5B62D1D5 EQ PUSH2 0x103E JUMPI DUP1 PUSH4 0x705FEE2D EQ PUSH2 0x101F JUMPI DUP1 PUSH4 0x76F5F700 EQ PUSH2 0x1001 JUMPI DUP1 PUSH4 0x78F6AD6D EQ PUSH2 0xFE3 JUMPI DUP1 PUSH4 0x7CDC65F2 EQ PUSH2 0xFBA JUMPI DUP1 PUSH4 0x7D846E38 EQ PUSH2 0xF96 JUMPI DUP1 PUSH4 0x89043ECE EQ PUSH2 0xF69 JUMPI DUP1 PUSH4 0x956A3228 EQ PUSH2 0xF3B JUMPI DUP1 PUSH4 0x97358004 EQ PUSH2 0xB1F JUMPI DUP1 PUSH4 0x9B40AB97 EQ PUSH2 0xB01 JUMPI DUP1 PUSH4 0xA59D17D1 EQ PUSH2 0xAE3 JUMPI DUP1 PUSH4 0xA5E52B99 EQ PUSH2 0xAC5 JUMPI DUP1 PUSH4 0xAE4708DC EQ PUSH2 0xA6E JUMPI DUP1 PUSH4 0xBFF1F9E1 EQ PUSH2 0xA50 JUMPI DUP1 PUSH4 0xC216212A EQ PUSH2 0xA16 JUMPI DUP1 PUSH4 0xC8DF2908 EQ PUSH2 0x9F1 JUMPI DUP1 PUSH4 0xC9ED0708 EQ PUSH2 0x9D3 JUMPI DUP1 PUSH4 0xCA8E9121 EQ PUSH2 0x9B5 JUMPI DUP1 PUSH4 0xCB0E0D7D EQ PUSH2 0x978 JUMPI DUP1 PUSH4 0xD0A2FD79 EQ PUSH2 0x946 JUMPI DUP1 PUSH4 0xD2F0490D EQ PUSH2 0x92A JUMPI DUP1 PUSH4 0xE898FC38 EQ PUSH2 0x90C JUMPI DUP1 PUSH4 0xE9E34A16 EQ PUSH2 0x8E3 JUMPI DUP1 PUSH4 0xEBE0FF15 EQ PUSH2 0x8BF JUMPI DUP1 PUSH4 0xEC597E6F EQ PUSH2 0x8A1 JUMPI DUP1 PUSH4 0xF207564E EQ PUSH2 0x299 JUMPI DUP1 PUSH4 0xF5D74D93 EQ PUSH2 0x270 JUMPI PUSH4 0xFDDC806F EQ PUSH2 0x250 JUMPI PUSH0 DUP1 REVERT JUMPDEST CALLVALUE PUSH2 0x26D JUMPI DUP1 PUSH1 0x3 NOT CALLDATASIZE ADD SLT PUSH2 0x26D JUMPI PUSH1 0x20 PUSH1 0x3A SLOAD PUSH1 0x40 MLOAD SWAP1 DUP2 MSTORE RETURN JUMPDEST DUP1 REVERT JUMPDEST POP CALLVALUE PUSH2 0x26D JUMPI DUP1 PUSH1 0x3 NOT CALLDATASIZE ADD SLT PUSH2 0x26D JUMPI PUSH1 0x4 SLOAD PUSH1 0x40 MLOAD PUSH1 0x1 PUSH1 0x1 PUSH1 0xA0 SHL SUB SWAP1 SWAP2 AND DUP2 MSTORE PUSH1 0x20 SWAP1 RETURN JUMPDEST POP CALLVALUE PUSH2 0x26D JUMPI PUSH1 0x20 CALLDATASIZE PUSH1 0x3 NOT ADD SLT PUSH2 0x26D JUMPI PUSH1 0x4 CALLDATALOAD CALLER DUP3 MSTORE PUSH1 0xF PUSH1 0x20 MSTORE PUSH1 0x40 DUP3 KECCAK256 SLOAD PUSH2 0x867 JUMPI DUP1 DUP3 MSTORE PUSH1 0x10 PUSH1 0x20 MSTORE PUSH1 0x3 PUSH1 0x40 DUP4 KECCAK256 ADD SLOAD ISZERO PUSH2 0x830 JUMPI PUSH1 0x1 SLOAD DUP3 SWAP1 PUSH1 0x20 SWAP1 PUSH2 0x327 SWAP1 PUSH1 0x1 PUSH1 0x1 PUSH1 0xA0 SHL SUB AND PUSH2 0x2F1 PUSH2 0x1E69 JUMP JUMPDEST SWAP1 SLOAD PUSH1 0x40 MLOAD PUSH4 0x23B872DD PUSH1 0xE0 SHL DUP2 MSTORE CALLER PUSH1 0x4 DUP3 ADD MSTORE ADDRESS PUSH1 0x24 DUP3 ADD MSTORE PUSH1 0x3 SWAP3 SWAP1 SWAP3 SHL SHR PUSH1 0x44 DUP3 ADD MSTORE SWAP4 DUP5 SWAP3 DUP4 SWAP2 SWAP1 DUP3 SWAP1 PUSH1 0x64 DUP3 ADD SWAP1 JUMP JUMPDEST SUB SWAP3 GAS CALL DUP1 ISZERO PUSH2 0x825 JUMPI PUSH2 0x7F8 JUMPI JUMPDEST POP PUSH1 0x5 SLOAD SWAP1 PUSH2 0x348 PUSH1 0x6 SLOAD DUP1 SWAP4 PUSH2 0x200B JUMP JUMPDEST SWAP2 PUSH1 0x1 DUP2 ADD DUP1 SWAP2 GT PUSH2 0x7E4 JUMPI PUSH1 0x6 SSTORE CALLER DUP4 MSTORE PUSH1 0xF PUSH1 0x20 MSTORE DUP2 PUSH1 0x40 DUP5 KECCAK256 SSTORE PUSH2 0x36D PUSH2 0x1E69 JUMP JUMPDEST SWAP1 SLOAD SWAP1 PUSH1 0x3 SHL SHR SWAP1 DUP3 DUP5 MSTORE PUSH1 0x10 PUSH1 0x20 MSTORE PUSH1 0x40 DUP5 KECCAK256 SWAP2 CALLER PUSH12 0xFFFFFFFFFFFFFFFFFFFFFFFF PUSH1 0xA0 SHL DUP5 SLOAD AND OR DUP4 SSTORE TIMESTAMP PUSH1 0x2 DUP5 ADD SSTORE DUP4 PUSH1 0x3 DUP5 ADD SSTORE PUSH1 0x4 DUP4 ADD DUP3 DUP2 SSTORE PUSH1 0x1 PUSH1 0x6 DUP6 ADD SSTORE DUP2 PUSH1 0xA DUP6 ADD SSTORE TIMESTAMP PUSH1 0x11 DUP6 ADD SSTORE PUSH1 0xF PUSH1 0xB DUP6 ADD SSTORE DUP3 DUP7 MSTORE PUSH1 0x10 PUSH1 0x20 MSTORE PUSH1 0x7 PUSH1 0x40 DUP8 KECCAK256 ADD DUP1 SLOAD SWAP1 PUSH1 0x1 DUP3 ADD DUP1 SWAP3 GT PUSH2 0x62A JUMPI SSTORE DUP3 DUP7 MSTORE PUSH1 0x15 PUSH1 0x20 MSTORE PUSH2 0x3F9 DUP6 PUSH1 0x40 DUP9 KECCAK256 PUSH2 0x25B2 JUMP JUMPDEST DUP2 DUP7 MSTORE PUSH1 0xC PUSH1 0x20 MSTORE PUSH1 0x40 DUP7 KECCAK256 DUP1 SLOAD SWAP1 PUSH1 0x1 DUP3 ADD DUP1 SWAP3 GT PUSH2 0x62A JUMPI SSTORE DUP2 DUP7 MSTORE PUSH1 0xA PUSH1 0x20 MSTORE PUSH1 0x40 DUP7 KECCAK256 SLOAD DUP3 DUP8 MSTORE PUSH1 0xB PUSH1 0x20 MSTORE PUSH1 0x40 DUP8 KECCAK256 DUP7 DUP9 MSTORE PUSH1 0x20 MSTORE PUSH1 0x40 DUP8 KECCAK256 SSTORE DUP6 DUP7 SWAP1 DUP5 DUP9 MSTORE PUSH1 0x14 PUSH1 0x20 MSTORE PUSH1 0x2 PUSH1 0x40 DUP10 KECCAK256 SLOAD LT PUSH0 EQ PUSH2 0x69F JUMPI POP POP DUP5 DUP7 MSTORE PUSH1 0x10 PUSH1 0x20 MSTORE DUP3 PUSH1 0x5 PUSH1 0x40 DUP9 KECCAK256 ADD SSTORE DUP3 DUP7 MSTORE PUSH1 0x14 PUSH1 0x20 MSTORE PUSH1 0x40 DUP7 KECCAK256 DUP1 SLOAD SWAP1 PUSH1 0x1 DUP3 ADD DUP1 SWAP3 GT PUSH2 0x62A JUMPI SSTORE DUP3 JUMPDEST DUP7 SWAP1 JUMPDEST PUSH1 0xF DUP3 LT PUSH2 0x63E JUMPI JUMPDEST POP POP PUSH1 0x5 DUP3 MUL DUP3 ISZERO SWAP1 DUP4 DUP2 DIV PUSH1 0x5 EQ DUP3 OR ISZERO PUSH2 0x62A JUMPI PUSH1 0x64 SWAP1 DIV PUSH1 0x3C DUP5 MUL SWAP2 DUP5 DUP4 DIV PUSH1 0x3C EQ DUP2 OR ISZERO PUSH2 0x602 JUMPI PUSH2 0x4C5 DUP3 PUSH1 0x3B SLOAD PUSH2 0x200B JUMP JUMPDEST PUSH1 0x3B SSTORE PUSH1 0x23 DUP6 MUL DUP6 DUP2 DIV PUSH1 0x23 EQ DUP3 OR ISZERO PUSH2 0x616 JUMPI PUSH2 0x3E8 PUSH2 0x4E9 SWAP2 DIV PUSH1 0x42 SLOAD PUSH2 0x200B JUMP JUMPDEST PUSH1 0x42 SSTORE PUSH1 0xF DUP6 MUL DUP6 DUP2 DIV PUSH1 0xF EQ DUP3 OR ISZERO PUSH2 0x616 JUMPI PUSH2 0x3E8 PUSH2 0x50D SWAP2 DIV PUSH1 0x49 SLOAD PUSH2 0x200B JUMP JUMPDEST PUSH1 0x49 SSTORE PUSH1 0x19 DUP6 MUL SWAP1 DUP6 DUP3 DIV PUSH1 0x19 EQ OR ISZERO PUSH2 0x602 JUMPI PUSH1 0x64 PUSH2 0x548 SWAP4 PUSH2 0x540 DUP8 SWAP7 SWAP5 PUSH2 0x53B DUP13 SWAP10 DUP6 DUP12 SWAP8 DIV PUSH2 0x2913 JUMP JUMPDEST PUSH2 0x2857 JUMP JUMPDEST DIV SWAP2 SLOAD PUSH2 0x2984 JUMP JUMPDEST PUSH1 0x40 MLOAD SWAP1 PUSH1 0x1 DUP3 MSTORE PUSH1 0x20 DUP3 ADD MSTORE PUSH1 0x80 PUSH1 0x40 DUP3 ADD MSTORE PUSH32 0x26ADB22CEC823EF144935E9FBEF1B6B4A3A29DACBE5444D59292FA2620F3D377 PUSH2 0x5AD PUSH1 0x80 DUP4 ADD PUSH1 0x40 SWAP1 PUSH1 0x15 DUP2 MSTORE PUSH21 0x53706F6E736F727368697020537472756374757265 PUSH1 0x58 SHL PUSH1 0x20 DUP3 ADD MSTORE ADD SWAP1 JUMP JUMPDEST SWAP2 TIMESTAMP PUSH1 0x60 DUP3 ADD MSTORE DUP1 CALLER SWAP4 SUB SWAP1 LOG3 DUP4 MSTORE PUSH1 0x10 PUSH1 0x20 MSTORE PUSH1 0x5 PUSH1 0x1 DUP1 PUSH1 0xA0 SHL SUB PUSH1 0x40 DUP6 KECCAK256 SLOAD AND SWAP2 ADD SLOAD PUSH1 0x40 MLOAD SWAP1 DUP2 MSTORE PUSH32 0x309BB360E8B69C23937CCC5FB01F9AEEEAD1C95A99604E175113FF82F2B1723A PUSH1 0x20 CALLER SWAP3 LOG4 DUP1 RETURN JUMPDEST PUSH4 0x4E487B71 PUSH1 0xE0 SHL DUP10 MSTORE PUSH1 0x11 PUSH1 0x4 MSTORE PUSH1 0x24 DUP10 REVERT JUMPDEST PUSH4 0x4E487B71 PUSH1 0xE0 SHL DUP11 MSTORE PUSH1 0x11 PUSH1 0x4 MSTORE PUSH1 0x24 DUP11 REVERT JUMPDEST PUSH4 0x4E487B71 PUSH1 0xE0 SHL DUP9 MSTORE PUSH1 0x11 PUSH1 0x4 MSTORE PUSH1 0x24 DUP9 REVERT JUMPDEST DUP1 ISZERO PUSH2 0x69A JUMPI DUP1 DUP9 MSTORE PUSH1 0x10 PUSH1 0x20 MSTORE PUSH1 0x9 PUSH1 0x40 DUP10 KECCAK256 ADD DUP1 SLOAD SWAP1 PUSH1 0x1 DUP3 ADD DUP1 SWAP3 GT PUSH2 0x616 JUMPI SSTORE DUP1 DUP9 MSTORE PUSH1 0x13 PUSH1 0x20 MSTORE PUSH1 0x40 DUP9 KECCAK256 DUP3 DUP10 MSTORE PUSH1 0x20 MSTORE PUSH2 0x681 DUP8 PUSH1 0x40 DUP11 KECCAK256 PUSH2 0x25B2 JUMP JUMPDEST DUP8 MSTORE PUSH1 0x10 PUSH1 0x20 MSTORE PUSH1 0x1 PUSH1 0x5 PUSH1 0x40 DUP10 KECCAK256 ADD SLOAD SWAP2 ADD SWAP1 PUSH2 0x484 JUMP JUMPDEST PUSH2 0x48D JUMP JUMPDEST DUP8 JUMPDEST PUSH1 0xF DUP2 LT PUSH2 0x6B1 JUMPI JUMPDEST POP POP PUSH2 0x481 JUMP JUMPDEST DUP2 PUSH2 0x7DF JUMPI DUP6 DUP10 MSTORE PUSH1 0x13 PUSH1 0x20 MSTORE PUSH1 0x40 DUP10 KECCAK256 PUSH1 0x1 DUP3 ADD DUP1 DUP4 GT PUSH2 0x7A8 JUMPI DUP11 MSTORE PUSH1 0x20 MSTORE PUSH1 0x40 DUP10 KECCAK256 SLOAD PUSH1 0x2 DUP3 ADD DUP1 DUP4 GT PUSH2 0x7A8 JUMPI PUSH1 0xFF DUP2 GT PUSH2 0x7A8 JUMPI PUSH1 0x1 SWAP1 SHL GT PUSH2 0x6FC JUMPI JUMPDEST PUSH1 0x1 ADD PUSH2 0x6A1 JUMP JUMPDEST SWAP5 SWAP4 SWAP1 SWAP7 SWAP6 SWAP2 SWAP3 DUP9 JUMPDEST DUP6 DUP11 MSTORE PUSH1 0x13 PUSH1 0x20 MSTORE PUSH1 0x40 DUP11 KECCAK256 DUP8 DUP12 MSTORE PUSH1 0x20 MSTORE PUSH1 0x40 DUP11 KECCAK256 SLOAD DUP2 LT ISZERO PUSH2 0x7CF JUMPI DUP9 PUSH2 0x7BC JUMPI DUP6 DUP11 MSTORE PUSH1 0x13 PUSH1 0x20 MSTORE PUSH1 0x40 DUP11 KECCAK256 DUP8 DUP12 MSTORE PUSH1 0x20 MSTORE PUSH2 0x747 DUP2 PUSH1 0x40 DUP13 KECCAK256 PUSH2 0x1E9B JUMP JUMPDEST SWAP1 SLOAD SWAP1 PUSH1 0x3 SHL SHR DUP1 DUP12 MSTORE PUSH1 0x14 PUSH1 0x20 MSTORE PUSH1 0x2 PUSH1 0x40 DUP13 KECCAK256 SLOAD LT PUSH2 0x76C JUMPI JUMPDEST POP PUSH1 0x1 ADD PUSH2 0x705 JUMP JUMPDEST SWAP2 SWAP5 POP SWAP8 POP DUP7 DUP10 MSTORE PUSH1 0x10 PUSH1 0x20 MSTORE DUP1 PUSH1 0x5 PUSH1 0x40 DUP12 KECCAK256 ADD SSTORE DUP1 DUP10 MSTORE PUSH1 0x14 PUSH1 0x20 MSTORE PUSH1 0x40 DUP10 KECCAK256 DUP1 SLOAD SWAP1 PUSH1 0x1 DUP3 ADD DUP1 SWAP3 GT PUSH2 0x7A8 JUMPI SSTORE SWAP3 PUSH1 0x1 DUP1 SWAP9 SWAP1 PUSH2 0x763 JUMP JUMPDEST PUSH4 0x4E487B71 PUSH1 0xE0 SHL DUP12 MSTORE PUSH1 0x11 PUSH1 0x4 MSTORE PUSH1 0x24 DUP12 REVERT JUMPDEST POP SWAP3 SWAP2 SWAP6 SWAP7 SWAP1 SWAP4 SWAP5 PUSH1 0x1 SWAP1 JUMPDEST SWAP1 POP PUSH2 0x6F4 JUMP JUMPDEST POP SWAP3 SWAP2 SWAP6 SWAP7 SWAP1 SWAP4 SWAP5 PUSH1 0x1 SWAP1 PUSH2 0x7C8 JUMP JUMPDEST PUSH2 0x6AA JUMP JUMPDEST PUSH4 0x4E487B71 PUSH1 0xE0 SHL DUP5 MSTORE PUSH1 0x11 PUSH1 0x4 MSTORE PUSH1 0x24 DUP5 REVERT JUMPDEST PUSH2 0x819 SWAP1 PUSH1 0x20 RETURNDATASIZE PUSH1 0x20 GT PUSH2 0x81E JUMPI JUMPDEST PUSH2 0x811 DUP2 DUP4 PUSH2 0x2431 JUMP JUMPDEST DUP2 ADD SWAP1 PUSH2 0x2467 JUMP JUMPDEST PUSH2 0x336 JUMP JUMPDEST POP RETURNDATASIZE PUSH2 0x807 JUMP JUMPDEST PUSH1 0x40 MLOAD RETURNDATASIZE DUP6 DUP3 RETURNDATACOPY RETURNDATASIZE SWAP1 REVERT JUMPDEST PUSH1 0x40 MLOAD PUSH3 0x461BCD PUSH1 0xE5 SHL DUP2 MSTORE PUSH1 0x20 PUSH1 0x4 DUP3 ADD MSTORE PUSH1 0xF PUSH1 0x24 DUP3 ADD MSTORE PUSH15 0x24B73B30B634B21039B837B739B7B9 PUSH1 0x89 SHL PUSH1 0x44 DUP3 ADD MSTORE PUSH1 0x64 SWAP1 REVERT JUMPDEST PUSH1 0x40 MLOAD PUSH3 0x461BCD PUSH1 0xE5 SHL DUP2 MSTORE PUSH1 0x20 PUSH1 0x4 DUP3 ADD MSTORE PUSH1 0x12 PUSH1 0x24 DUP3 ADD MSTORE PUSH18 0x105B1C9958591E481C9959DA5CDD195C9959 PUSH1 0x72 SHL PUSH1 0x44 DUP3 ADD MSTORE PUSH1 0x64 SWAP1 REVERT JUMPDEST POP CALLVALUE PUSH2 0x26D JUMPI DUP1 PUSH1 0x3 NOT CALLDATASIZE ADD SLT PUSH2 0x26D JUMPI PUSH1 0x20 PUSH1 0x5 SLOAD PUSH1 0x40 MLOAD SWAP1 DUP2 MSTORE RETURN JUMPDEST POP CALLVALUE PUSH2 0x26D JUMPI DUP1 PUSH1 0x3 NOT CALLDATASIZE ADD SLT PUSH2 0x26D JUMPI PUSH1 0x20 PUSH1 0x40 MLOAD PUSH9 0x3635C9ADC5DEA00000 DUP2 MSTORE RETURN JUMPDEST POP CALLVALUE PUSH2 0x26D JUMPI DUP1 PUSH1 0x3 NOT CALLDATASIZE ADD SLT PUSH2 0x26D JUMPI PUSH1 0x3 SLOAD PUSH1 0x40 MLOAD PUSH1 0x1 PUSH1 0x1 PUSH1 0xA0 SHL SUB SWAP1 SWAP2 AND DUP2 MSTORE PUSH1 0x20 SWAP1 RETURN JUMPDEST POP CALLVALUE PUSH2 0x26D JUMPI DUP1 PUSH1 0x3 NOT CALLDATASIZE ADD SLT PUSH2 0x26D JUMPI PUSH1 0x20 PUSH1 0x41 SLOAD PUSH1 0x40 MLOAD SWAP1 DUP2 MSTORE RETURN JUMPDEST POP CALLVALUE PUSH2 0x26D JUMPI DUP1 PUSH1 0x3 NOT CALLDATASIZE ADD SLT PUSH2 0x26D JUMPI PUSH1 0x20 PUSH1 0x40 MLOAD PUSH1 0x5 DUP2 MSTORE RETURN JUMPDEST POP CALLVALUE PUSH2 0x26D JUMPI PUSH1 0x20 CALLDATASIZE PUSH1 0x3 NOT ADD SLT PUSH2 0x26D JUMPI PUSH1 0x4 CALLDATALOAD PUSH1 0x8 DUP2 LT ISZERO PUSH2 0x974 JUMPI PUSH1 0x20 SWAP2 POP PUSH1 0x1F ADD SLOAD PUSH1 0x40 MLOAD SWAP1 DUP2 MSTORE RETURN JUMPDEST POP DUP1 REVERT JUMPDEST POP CALLVALUE PUSH2 0x26D JUMPI PUSH1 0x20 CALLDATASIZE PUSH1 0x3 NOT ADD SLT PUSH2 0x26D JUMPI PUSH1 0x4 CALLDATALOAD PUSH1 0x1 PUSH1 0x1 PUSH1 0xA0 SHL SUB DUP2 AND SWAP1 DUP2 SWAP1 SUB PUSH2 0x974 JUMPI DUP2 PUSH1 0x40 SWAP2 PUSH1 0x20 SWAP4 MSTORE PUSH1 0xF DUP4 MSTORE KECCAK256 SLOAD PUSH1 0x40 MLOAD SWAP1 DUP2 MSTORE RETURN JUMPDEST POP CALLVALUE PUSH2 0x26D JUMPI DUP1 PUSH1 0x3 NOT CALLDATASIZE ADD SLT PUSH2 0x26D JUMPI PUSH1 0x20 PUSH1 0x39 SLOAD PUSH1 0x40 MLOAD SWAP1 DUP2 MSTORE RETURN JUMPDEST POP CALLVALUE PUSH2 0x26D JUMPI DUP1 PUSH1 0x3 NOT CALLDATASIZE ADD SLT PUSH2 0x26D JUMPI PUSH1 0x20 PUSH1 0x40 SLOAD PUSH1 0x40 MLOAD SWAP1 DUP2 MSTORE RETURN JUMPDEST POP CALLVALUE PUSH2 0x26D JUMPI DUP1 PUSH1 0x3 NOT CALLDATASIZE ADD SLT PUSH2 0x26D JUMPI PUSH1 0x20 PUSH1 0x40 MLOAD PUSH10 0x21E19E0C9BAB2400000 DUP2 MSTORE RETURN JUMPDEST POP CALLVALUE PUSH2 0x26D JUMPI PUSH1 0x20 CALLDATASIZE PUSH1 0x3 NOT ADD SLT PUSH2 0x26D JUMPI PUSH1 0x4 CALLDATALOAD SWAP1 PUSH1 0xD SLOAD DUP3 LT ISZERO PUSH2 0x26D JUMPI PUSH1 0x20 PUSH2 0xA41 DUP4 PUSH2 0x1E3D JUMP JUMPDEST SWAP1 SLOAD SWAP1 PUSH1 0x3 SHL SHR PUSH1 0x40 MLOAD SWAP1 DUP2 MSTORE RETURN JUMPDEST POP CALLVALUE PUSH2 0x26D JUMPI DUP1 PUSH1 0x3 NOT CALLDATASIZE ADD SLT PUSH2 0x26D JUMPI PUSH1 0x20 PUSH1 0x6 SLOAD PUSH1 0x40 MLOAD SWAP1 DUP2 MSTORE RETURN JUMPDEST POP CALLVALUE PUSH2 0x26D JUMPI PUSH1 0x20 CALLDATASIZE PUSH1 0x3 NOT ADD SLT PUSH2 0x26D JUMPI PUSH1 0x4 CALLDATALOAD SWAP1 PUSH1 0x16 SLOAD DUP3 LT ISZERO PUSH2 0x26D JUMPI PUSH1 0x16 SLOAD DUP3 LT ISZERO PUSH2 0xAB1 JUMPI PUSH1 0x20 SWAP2 PUSH1 0x16 DUP3 MSTORE DUP3 DUP3 KECCAK256 ADD SLOAD SWAP1 PUSH1 0x3 SHL SHR PUSH1 0x40 MLOAD SWAP1 DUP2 MSTORE RETURN JUMPDEST PUSH4 0x4E487B71 PUSH1 0xE0 SHL DUP2 MSTORE PUSH1 0x32 PUSH1 0x4 MSTORE PUSH1 0x24 SWAP1 REVERT JUMPDEST POP CALLVALUE PUSH2 0x26D JUMPI DUP1 PUSH1 0x3 NOT CALLDATASIZE ADD SLT PUSH2 0x26D JUMPI PUSH1 0x20 PUSH1 0x40 MLOAD PUSH3 0x83D600 DUP2 MSTORE RETURN JUMPDEST POP CALLVALUE PUSH2 0x26D JUMPI DUP1 PUSH1 0x3 NOT CALLDATASIZE ADD SLT PUSH2 0x26D JUMPI PUSH1 0x20 PUSH1 0x42 SLOAD PUSH1 0x40 MLOAD SWAP1 DUP2 MSTORE RETURN JUMPDEST POP CALLVALUE PUSH2 0x26D JUMPI DUP1 PUSH1 0x3 NOT CALLDATASIZE ADD SLT PUSH2 0x26D JUMPI PUSH1 0x20 PUSH1 0x48 SLOAD PUSH1 0x40 MLOAD SWAP1 DUP2 MSTORE RETURN JUMPDEST POP CALLVALUE PUSH2 0x26D JUMPI PUSH2 0xB2E CALLDATASIZE PUSH2 0x1E27 JUMP JUMPDEST PUSH2 0xB39 SWAP3 SWAP2 SWAP3 PUSH2 0x25EB JUMP JUMPDEST DUP3 DUP3 MSTORE PUSH1 0x10 PUSH1 0x20 MSTORE PUSH1 0x40 DUP3 KECCAK256 SLOAD PUSH1 0x1 PUSH1 0x1 PUSH1 0xA0 SHL SUB AND PUSH2 0xB5A CALLER DUP3 EQ PUSH2 0x1EE6 JUMP JUMPDEST ISZERO PUSH2 0xF04 JUMPI DUP3 ISZERO ISZERO DUP1 PUSH2 0xEFB JUMPI JUMPDEST DUP1 PUSH2 0xEDD JUMPI JUMPDEST DUP1 PUSH2 0xED2 JUMPI JUMPDEST PUSH2 0xB7D SWAP1 PUSH2 0x1F25 JUMP JUMPDEST DUP3 DUP3 MSTORE PUSH1 0x4C PUSH1 0x20 MSTORE PUSH1 0x40 DUP3 KECCAK256 DUP2 DUP4 MSTORE PUSH1 0x4A PUSH1 0x20 MSTORE PUSH1 0x40 DUP4 KECCAK256 PUSH2 0xBAA PUSH1 0x1 PUSH1 0xFF PUSH1 0x4 DUP6 ADD SLOAD AND ISZERO ISZERO EQ PUSH2 0x2364 JUMP JUMPDEST PUSH1 0x3 DUP3 ADD DUP4 DUP6 MSTORE DUP1 PUSH1 0x20 MSTORE PUSH2 0xBC6 PUSH1 0xFF PUSH1 0x40 DUP8 KECCAK256 SLOAD AND ISZERO PUSH2 0x23A1 JUMP JUMPDEST PUSH1 0x3 DUP3 ADD SLOAD SWAP2 DUP3 ISZERO SWAP4 PUSH2 0xBD9 DUP6 ISZERO PUSH2 0x1F8A JUMP JUMPDEST PUSH2 0xBFE DUP7 PUSH1 0x1 PUSH1 0x4 DUP6 ADD SWAP4 PUSH2 0xBF5 PUSH1 0x2 DUP7 SLOAD SWAP8 ADD SLOAD DUP8 LT PUSH2 0x1FCB JUMP JUMPDEST ADD SLOAD GT ISZERO PUSH2 0x23ED JUMP JUMPDEST PUSH1 0x1 DUP3 ADD DUP1 SWAP3 GT PUSH2 0xEBE JUMPI SSTORE DUP4 DUP6 MSTORE PUSH1 0x20 MSTORE PUSH1 0x40 DUP5 KECCAK256 PUSH1 0x1 PUSH1 0xFF NOT DUP3 SLOAD AND OR SWAP1 SSTORE DUP5 DUP5 MSTORE PUSH1 0x10 PUSH1 0x20 MSTORE PUSH1 0x40 DUP5 KECCAK256 SWAP4 PUSH1 0x1 DUP1 PUSH1 0xA0 SHL SUB DUP6 SLOAD AND SWAP3 DUP4 ISZERO PUSH2 0xE8A JUMPI PUSH2 0xE57 JUMPI DUP6 DUP2 MSTORE PUSH1 0x11 PUSH1 0x20 MSTORE PUSH1 0x40 DUP2 KECCAK256 SWAP1 DUP1 PUSH2 0xC5A DUP5 DUP5 SLOAD PUSH2 0x200B JUMP JUMPDEST DUP4 SSTORE PUSH2 0xE43 JUMPI POP PUSH0 SWAP5 SWAP4 SWAP5 POP PUSH1 0xB DUP2 ADD PUSH2 0xC75 DUP4 DUP3 SLOAD PUSH2 0x200B JUMP JUMPDEST SWAP1 SSTORE SLOAD SWAP4 PUSH1 0xB DUP5 ADD SLOAD SWAP3 PUSH1 0x6 PUSH0 SWAP6 ADD SWAP6 JUMPDEST DUP7 SLOAD DUP7 LT ISZERO PUSH2 0xE36 JUMPI PUSH2 0xC98 DUP7 PUSH2 0x1E3D JUMP JUMPDEST SWAP1 SLOAD SWAP1 PUSH1 0x3 SHL SHR DUP9 PUSH0 MSTORE PUSH1 0xE PUSH1 0x20 MSTORE PUSH1 0x40 PUSH0 KECCAK256 DUP2 PUSH0 MSTORE PUSH1 0x20 MSTORE DUP6 PUSH1 0x40 PUSH0 KECCAK256 SWAP2 PUSH1 0x3 DUP4 ADD PUSH1 0xFF DUP2 SLOAD AND DUP1 ISZERO SWAP1 DUP2 DUP1 SWAP3 PUSH2 0xE20 JUMPI JUMPDEST ISZERO PUSH2 0xD08 JUMPI POP POP SWAP2 PUSH1 0xA PUSH2 0xCF1 DUP3 PUSH1 0x1 SWAP8 SWAP5 PUSH2 0xCFF SWAP8 SWAP7 DUP10 PUSH1 0xFF NOT DUP3 SLOAD AND OR SWAP1 SSTORE PUSH2 0x247F JUMP JUMPDEST DIV SWAP3 DUP4 PUSH1 0x2 DUP3 ADD SSTORE SSTORE PUSH2 0x2018 JUMP JUMPDEST SWAP6 JUMPDEST ADD SWAP5 PUSH2 0xC86 JUMP JUMPDEST SWAP2 POP SWAP3 POP DUP1 PUSH2 0xE0B JUMPI JUMPDEST ISZERO PUSH2 0xD30 JUMPI POP POP PUSH1 0x1 SWAP2 PUSH1 0x2 PUSH2 0xD2A SWAP3 ADD SLOAD SWAP1 PUSH2 0x2018 JUMP JUMPDEST SWAP6 PUSH2 0xD01 JUMP JUMPDEST SWAP3 SWAP8 SWAP3 DUP8 SWAP1 DUP3 PUSH2 0xDF3 JUMPI JUMPDEST POP POP PUSH2 0xD4A JUMPI POP PUSH1 0x1 SWAP1 PUSH2 0xD01 JUMP JUMPDEST SWAP2 SWAP8 SWAP6 SWAP4 SWAP7 POP POP PUSH1 0x1 SWAP2 SWAP4 POP ADD SSTORE JUMPDEST PUSH1 0x1 SLOAD PUSH2 0xD72 SWAP1 DUP5 SWAP1 DUP7 SWAP1 PUSH1 0x1 PUSH1 0x1 PUSH1 0xA0 SHL SUB AND PUSH2 0x3295 JUMP JUMPDEST PUSH1 0x40 MLOAD DUP4 DUP2 MSTORE PUSH0 PUSH1 0x20 DUP3 ADD MSTORE SWAP1 DUP3 DUP1 PUSH32 0x6AC5DC27FBF1276A5DB7FAAD992EA92A268D34B18F81922F747D9D3BEB5F9C55 SWAP7 PUSH0 MLOAD PUSH1 0x20 PUSH2 0x3421 PUSH0 CODECOPY PUSH0 MLOAD SWAP1 PUSH0 MSTORE PUSH1 0x80 DUP7 PUSH1 0x9 PUSH1 0x40 PUSH2 0xDEA SWAP10 ADD MSTORE TIMESTAMP PUSH1 0x60 DUP3 ADD MSTORE LOG4 PUSH1 0x40 MLOAD SWAP4 DUP5 SWAP4 TIMESTAMP SWAP3 DUP6 SWAP1 SWAP5 SWAP4 SWAP3 PUSH1 0x60 SWAP3 PUSH1 0x80 DUP4 ADD SWAP7 DUP4 MSTORE PUSH1 0x20 DUP4 ADD MSTORE PUSH1 0x40 DUP3 ADD MSTORE ADD MSTORE JUMP JUMPDEST SUB SWAP1 LOG1 PUSH1 0x1 PUSH0 SSTORE STOP JUMPDEST PUSH1 0xA SWAP3 POP SWAP1 PUSH2 0xE01 SWAP2 PUSH2 0x247F JUMP JUMPDEST DIV DUP8 LT DUP7 PUSH0 PUSH2 0xD3B JUMP JUMPDEST POP PUSH1 0xA PUSH2 0xE18 DUP10 DUP4 PUSH2 0x247F JUMP JUMPDEST DIV DUP5 GT PUSH2 0xD12 JUMP JUMPDEST POP PUSH1 0xA PUSH2 0xE2D DUP7 DUP7 PUSH2 0x247F JUMP JUMPDEST DIV DUP8 LT ISZERO PUSH2 0xCCB JUMP JUMPDEST POP SWAP6 SWAP4 POP SWAP2 POP SWAP3 POP PUSH2 0xD59 JUMP JUMPDEST PUSH4 0x4E487B71 PUSH1 0xE0 SHL DUP2 MSTORE PUSH1 0x21 PUSH1 0x4 MSTORE PUSH1 0x24 SWAP1 REVERT JUMPDEST PUSH1 0x40 MLOAD PUSH3 0x461BCD PUSH1 0xE5 SHL DUP2 MSTORE PUSH1 0x20 PUSH1 0x4 DUP3 ADD MSTORE PUSH1 0xB PUSH1 0x24 DUP3 ADD MSTORE PUSH11 0x16995C9BC8185B5BDD5B9D PUSH1 0xAA SHL PUSH1 0x44 DUP3 ADD MSTORE PUSH1 0x64 SWAP1 REVERT JUMPDEST PUSH1 0x40 MLOAD PUSH3 0x461BCD PUSH1 0xE5 SHL DUP2 MSTORE PUSH1 0x20 PUSH1 0x4 DUP3 ADD MSTORE PUSH1 0xC PUSH1 0x24 DUP3 ADD MSTORE PUSH12 0x24B73B30B634B2103AB9B2B9 PUSH1 0xA1 SHL PUSH1 0x44 DUP3 ADD MSTORE PUSH1 0x64 SWAP1 REVERT JUMPDEST PUSH4 0x4E487B71 PUSH1 0xE0 SHL DUP8 MSTORE PUSH1 0x11 PUSH1 0x4 MSTORE PUSH1 0x24 DUP8 REVERT JUMPDEST POP PUSH1 0x47 SLOAD DUP2 LT PUSH2 0xB74 JUMP JUMPDEST POP DUP1 DUP3 MSTORE PUSH1 0x4A PUSH1 0x20 MSTORE PUSH1 0x1 PUSH1 0xFF PUSH1 0x8 PUSH1 0x40 DUP6 KECCAK256 ADD SLOAD AND ISZERO ISZERO EQ PUSH2 0xB6E JUMP JUMPDEST POP DUP1 ISZERO ISZERO PUSH2 0xB68 JUMP JUMPDEST PUSH1 0x40 MLOAD PUSH3 0x461BCD PUSH1 0xE5 SHL DUP2 MSTORE PUSH1 0x20 PUSH1 0x4 DUP3 ADD MSTORE PUSH1 0xF PUSH1 0x24 DUP3 ADD MSTORE PUSH15 0x125B9D985B1A59081858D8DBDD5B9D PUSH1 0x8A SHL PUSH1 0x44 DUP3 ADD MSTORE PUSH1 0x64 SWAP1 REVERT JUMPDEST POP CALLVALUE PUSH2 0x26D JUMPI PUSH1 0x20 CALLDATASIZE PUSH1 0x3 NOT ADD SLT PUSH2 0x26D JUMPI PUSH1 0x4 CALLDATALOAD PUSH1 0x8 DUP2 LT ISZERO PUSH2 0x974 JUMPI PUSH1 0x20 SWAP2 POP PUSH1 0x27 ADD SLOAD PUSH1 0x40 MLOAD SWAP1 DUP2 MSTORE RETURN JUMPDEST POP CALLVALUE PUSH2 0x26D JUMPI PUSH1 0x40 PUSH1 0x20 SWAP2 PUSH2 0xF7D CALLDATASIZE PUSH2 0x1E27 JUMP JUMPDEST SWAP1 DUP3 MSTORE PUSH1 0xB DUP5 MSTORE DUP3 DUP3 KECCAK256 SWAP1 DUP3 MSTORE DUP4 MSTORE KECCAK256 SLOAD PUSH1 0x40 MLOAD SWAP1 DUP2 MSTORE RETURN JUMPDEST POP CALLVALUE PUSH2 0x26D JUMPI PUSH1 0x20 PUSH2 0xFB0 PUSH2 0xFAA CALLDATASIZE PUSH2 0x1E27 JUMP JUMPDEST SWAP1 PUSH2 0x2509 JUMP JUMPDEST PUSH1 0x40 MLOAD SWAP1 ISZERO ISZERO DUP2 MSTORE RETURN JUMPDEST POP CALLVALUE PUSH2 0x26D JUMPI DUP1 PUSH1 0x3 NOT CALLDATASIZE ADD SLT PUSH2 0x26D JUMPI PUSH1 0x2 SLOAD PUSH1 0x40 MLOAD PUSH1 0x1 PUSH1 0x1 PUSH1 0xA0 SHL SUB SWAP1 SWAP2 AND DUP2 MSTORE PUSH1 0x20 SWAP1 RETURN JUMPDEST POP CALLVALUE PUSH2 0x26D JUMPI DUP1 PUSH1 0x3 NOT CALLDATASIZE ADD SLT PUSH2 0x26D JUMPI PUSH1 0x20 PUSH1 0x9 SLOAD PUSH1 0x40 MLOAD SWAP1 DUP2 MSTORE RETURN JUMPDEST POP CALLVALUE PUSH2 0x26D JUMPI DUP1 PUSH1 0x3 NOT CALLDATASIZE ADD SLT PUSH2 0x26D JUMPI PUSH1 0x20 PUSH1 0x40 MLOAD PUSH3 0x93A80 DUP2 MSTORE RETURN JUMPDEST POP CALLVALUE PUSH2 0x26D JUMPI DUP1 PUSH1 0x3 NOT CALLDATASIZE ADD SLT PUSH2 0x26D JUMPI PUSH1 0x20 PUSH1 0x40 MLOAD PUSH4 0x2514300 DUP2 MSTORE RETURN JUMPDEST POP CALLVALUE PUSH2 0x26D JUMPI DUP1 PUSH1 0x3 NOT CALLDATASIZE ADD SLT PUSH2 0x26D JUMPI PUSH1 0x20 PUSH1 0x49 SLOAD PUSH1 0x40 MLOAD SWAP1 DUP2 MSTORE RETURN JUMPDEST PUSH2 0x1EB0 JUMP JUMPDEST POP CALLVALUE PUSH2 0x26D JUMPI PUSH1 0x40 PUSH2 0x107B PUSH2 0x1075 CALLDATASIZE PUSH2 0x1E27 JUMP JUMPDEST SWAP1 PUSH2 0x2492 JUMP JUMPDEST DUP3 MLOAD SWAP2 DUP3 MSTORE PUSH1 0x20 DUP3 ADD MSTORE RETURN JUMPDEST POP CALLVALUE PUSH2 0x26D JUMPI DUP1 PUSH1 0x3 NOT CALLDATASIZE ADD SLT PUSH2 0x26D JUMPI PUSH1 0x20 PUSH1 0x47 SLOAD PUSH1 0x40 MLOAD SWAP1 DUP2 MSTORE RETURN JUMPDEST POP CALLVALUE PUSH2 0x26D JUMPI PUSH1 0x20 CALLDATASIZE PUSH1 0x3 NOT ADD SLT PUSH2 0x26D JUMPI PUSH1 0x40 PUSH1 0x20 SWAP2 PUSH1 0x4 CALLDATALOAD DUP2 MSTORE PUSH1 0xA DUP4 MSTORE KECCAK256 SLOAD PUSH1 0x40 MLOAD SWAP1 DUP2 MSTORE RETURN JUMPDEST POP CALLVALUE PUSH2 0x26D JUMPI PUSH1 0x20 CALLDATASIZE PUSH1 0x3 NOT ADD SLT PUSH2 0x26D JUMPI PUSH1 0x4 CALLDATALOAD DUP1 DUP3 MSTORE PUSH1 0x10 PUSH1 0x20 MSTORE PUSH1 0x40 DUP3 KECCAK256 PUSH2 0x1104 PUSH1 0x1 DUP1 PUSH1 0xA0 SHL SUB DUP3 SLOAD AND CALLER EQ PUSH2 0x1EE6 JUMP JUMPDEST PUSH1 0x6 DUP2 ADD DUP1 SLOAD PUSH1 0xF DUP2 LT ISZERO PUSH2 0x1551 JUMPI PUSH2 0x111C DUP2 PUSH2 0x1E3D JUMP JUMPDEST SWAP1 SLOAD PUSH1 0x1 SLOAD PUSH1 0x40 MLOAD PUSH4 0x23B872DD PUSH1 0xE0 SHL DUP2 MSTORE CALLER PUSH1 0x4 DUP3 ADD MSTORE ADDRESS PUSH1 0x24 DUP3 ADD MSTORE PUSH1 0x3 SWAP4 SWAP1 SWAP4 SHL SWAP2 SWAP1 SWAP2 SHR PUSH1 0x44 DUP4 ADD DUP2 SWAP1 MSTORE SWAP4 SWAP2 SWAP1 PUSH1 0x20 SWAP1 DUP3 SWAP1 PUSH1 0x64 SWAP1 DUP3 SWAP1 DUP12 SWAP1 PUSH1 0x1 PUSH1 0x1 PUSH1 0xA0 SHL SUB AND GAS CALL DUP1 ISZERO PUSH2 0x1546 JUMPI PUSH2 0x1529 JUMPI JUMPDEST POP DUP1 SLOAD SWAP1 PUSH1 0x1 DUP3 ADD DUP1 SWAP3 GT PUSH2 0xEBE JUMPI SSTORE PUSH1 0xA DUP4 ADD PUSH2 0x118F DUP4 DUP3 SLOAD PUSH2 0x200B JUMP JUMPDEST SWAP1 SSTORE PUSH1 0x5 DUP3 MUL SWAP3 DUP3 ISZERO SWAP4 DUP4 DUP2 DIV PUSH1 0x5 EQ DUP6 OR ISZERO PUSH2 0xEBE JUMPI PUSH1 0x64 SWAP1 DIV SWAP4 PUSH1 0x19 DUP5 MUL DUP5 DUP2 DIV PUSH1 0x19 EQ DUP3 OR ISZERO PUSH2 0x62A JUMPI DUP5 PUSH1 0x64 PUSH2 0x11C9 SWAP3 DIV PUSH2 0x2913 JUMP JUMPDEST DUP4 DUP8 MSTORE PUSH1 0xA PUSH1 0x20 MSTORE PUSH1 0x40 DUP8 KECCAK256 SLOAD DUP5 DUP9 MSTORE PUSH1 0xB PUSH1 0x20 MSTORE PUSH1 0x40 DUP9 KECCAK256 DUP8 DUP10 MSTORE PUSH1 0x20 MSTORE PUSH1 0x40 DUP9 KECCAK256 SSTORE PUSH2 0x11F6 DUP6 PUSH2 0x2857 JUMP JUMPDEST DUP4 DUP8 MSTORE PUSH1 0xC PUSH1 0x20 MSTORE PUSH1 0x40 DUP8 KECCAK256 DUP1 SLOAD SWAP1 PUSH1 0x1 DUP3 ADD DUP1 SWAP3 GT PUSH2 0x602 JUMPI SSTORE PUSH1 0x14 DUP5 MUL DUP5 DUP2 DIV PUSH1 0x14 EQ DUP3 OR ISZERO PUSH2 0x62A JUMPI PUSH1 0x64 SWAP1 DIV SWAP5 PUSH1 0x4 DUP4 ADD SWAP4 DUP5 SLOAD SWAP7 PUSH1 0x1 DUP3 ADD SWAP8 DUP9 DUP4 GT PUSH2 0x7A8 JUMPI SWAP2 DUP9 DUP3 PUSH2 0x1251 DUP3 PUSH2 0x126C SWAP6 DUP15 PUSH2 0x1274 SWAP10 SWAP9 PUSH2 0x29B4 JUMP JUMPDEST DUP12 DUP14 PUSH1 0x5 DUP11 ADD PUSH2 0x1264 DUP6 DUP6 DUP6 DUP5 SLOAD PUSH2 0x29F3 JUMP JUMPDEST SLOAD SWAP1 POP PUSH2 0x2C82 JUMP JUMPDEST PUSH1 0x3B SLOAD PUSH2 0x200B JUMP JUMPDEST PUSH1 0x3B SSTORE PUSH1 0x23 DUP5 MUL DUP5 DUP2 DIV PUSH1 0x23 EQ DUP3 OR ISZERO PUSH2 0x62A JUMPI PUSH2 0x3E8 PUSH2 0x1298 SWAP2 DIV PUSH1 0x42 SLOAD PUSH2 0x200B JUMP JUMPDEST PUSH1 0x42 SSTORE PUSH1 0xF DUP5 MUL SWAP1 DUP5 DUP3 DIV PUSH1 0xF EQ OR ISZERO PUSH2 0xEBE JUMPI PUSH2 0x3E8 PUSH2 0x12BC SWAP2 DIV PUSH1 0x49 SLOAD PUSH2 0x200B JUMP JUMPDEST PUSH1 0x49 SSTORE PUSH1 0xA DUP5 EQ PUSH2 0x143C JUMPI JUMPDEST PUSH1 0xF DUP5 EQ PUSH2 0x1346 JUMPI JUMPDEST POP POP PUSH1 0x40 MLOAD SWAP2 DUP3 MSTORE PUSH1 0x20 DUP3 ADD MSTORE PUSH1 0x80 PUSH1 0x40 DUP3 ADD MSTORE PUSH32 0x26ADB22CEC823EF144935E9FBEF1B6B4A3A29DACBE5444D59292FA2620F3D377 PUSH2 0x1336 PUSH1 0x80 DUP4 ADD PUSH1 0x40 SWAP1 PUSH1 0x15 DUP2 MSTORE PUSH21 0x53706F6E736F727368697020537472756374757265 PUSH1 0x58 SHL PUSH1 0x20 DUP3 ADD MSTORE ADD SWAP1 JUMP JUMPDEST SWAP2 TIMESTAMP PUSH1 0x60 DUP3 ADD MSTORE DUP1 CALLER SWAP4 SUB SWAP1 LOG3 DUP1 RETURN JUMPDEST PUSH1 0x13 TIMESTAMP SWAP2 ADD SSTORE DUP4 DUP6 MSTORE PUSH1 0x10 PUSH1 0x20 MSTORE PUSH1 0x40 DUP6 KECCAK256 SWAP1 SLOAD DUP6 MSTORE PUSH1 0x10 PUSH1 0x20 MSTORE PUSH1 0x40 DUP6 KECCAK256 PUSH1 0x15 DUP2 ADD DUP1 SLOAD SWAP1 PUSH1 0x1 DUP3 ADD DUP1 SWAP3 GT PUSH2 0x62A JUMPI SWAP1 DUP1 PUSH1 0x2 SWAP3 SSTORE LT ISZERO SWAP1 DUP2 PUSH2 0x141E JUMPI JUMPDEST DUP2 PUSH2 0x140E JUMPI JUMPDEST POP PUSH2 0x13F8 JUMPI JUMPDEST PUSH1 0x2 PUSH1 0x15 DUP3 ADD SLOAD LT ISZERO SWAP1 DUP2 PUSH2 0x13D5 JUMPI JUMPDEST DUP2 PUSH2 0x13C6 JUMPI JUMPDEST POP PUSH2 0x13B5 JUMPI JUMPDEST PUSH0 DUP1 PUSH2 0x12D1 JUMP JUMPDEST PUSH2 0x13C1 PUSH1 0x47 SLOAD DUP5 PUSH2 0x3178 JUMP JUMPDEST PUSH2 0x13AE JUMP JUMPDEST PUSH1 0xF SWAP2 POP PUSH1 0x6 ADD SLOAD EQ PUSH0 PUSH2 0x13A8 JUMP JUMPDEST SWAP1 POP PUSH1 0x13 DUP2 ADD SLOAD PUSH1 0x11 DUP3 ADD SLOAD SWAP1 PUSH4 0x2514300 DUP3 ADD DUP1 SWAP3 GT PUSH2 0xEBE JUMPI GT ISZERO SWAP1 PUSH2 0x13A2 JUMP JUMPDEST PUSH2 0x1409 PUSH1 0x4 DUP3 ADD SLOAD PUSH1 0x47 SLOAD SWAP1 PUSH2 0x3178 JUMP JUMPDEST PUSH2 0x1392 JUMP JUMPDEST PUSH1 0xF SWAP2 POP PUSH1 0x6 ADD SLOAD LT ISZERO PUSH0 PUSH2 0x138C JUMP JUMPDEST SWAP1 POP PUSH1 0x11 DUP2 ADD SLOAD PUSH4 0x2514300 DUP2 ADD DUP1 SWAP2 GT PUSH2 0xEBE JUMPI TIMESTAMP GT ISZERO SWAP1 PUSH2 0x1386 JUMP JUMPDEST TIMESTAMP PUSH1 0x12 DUP3 ADD SSTORE DUP5 DUP7 MSTORE PUSH1 0x10 PUSH1 0x20 MSTORE PUSH1 0x40 DUP7 KECCAK256 DUP3 SLOAD DUP8 MSTORE PUSH1 0x10 PUSH1 0x20 MSTORE PUSH1 0x40 DUP8 KECCAK256 PUSH1 0x14 DUP2 ADD DUP1 SLOAD SWAP1 PUSH1 0x1 DUP3 ADD DUP1 SWAP3 GT PUSH2 0x616 JUMPI SWAP1 DUP1 PUSH1 0x5 SWAP3 SSTORE LT ISZERO SWAP1 DUP2 PUSH2 0x150C JUMPI JUMPDEST DUP2 PUSH2 0x14FC JUMPI JUMPDEST POP PUSH2 0x14E6 JUMPI JUMPDEST PUSH1 0x5 PUSH1 0x14 DUP3 ADD SLOAD LT ISZERO SWAP1 DUP2 PUSH2 0x14C4 JUMPI JUMPDEST DUP2 PUSH2 0x14B5 JUMPI JUMPDEST POP ISZERO PUSH2 0x12C8 JUMPI PUSH2 0x14B0 PUSH1 0x40 SLOAD DUP7 PUSH2 0x3017 JUMP JUMPDEST PUSH2 0x12C8 JUMP JUMPDEST PUSH1 0xA SWAP2 POP PUSH1 0x6 ADD SLOAD EQ PUSH0 PUSH2 0x149E JUMP JUMPDEST SWAP1 POP PUSH1 0x12 DUP2 ADD SLOAD PUSH1 0x11 DUP3 ADD SLOAD SWAP1 PUSH3 0x83D600 DUP3 ADD DUP1 SWAP3 GT PUSH2 0x602 JUMPI GT ISZERO SWAP1 PUSH2 0x1498 JUMP JUMPDEST PUSH2 0x14F7 PUSH1 0x4 DUP3 ADD SLOAD PUSH1 0x40 SLOAD SWAP1 PUSH2 0x3017 JUMP JUMPDEST PUSH2 0x1488 JUMP JUMPDEST PUSH1 0xA SWAP2 POP PUSH1 0x6 ADD SLOAD LT ISZERO PUSH0 PUSH2 0x1482 JUMP JUMPDEST SWAP1 POP PUSH1 0x11 DUP2 ADD SLOAD PUSH3 0x83D600 DUP2 ADD DUP1 SWAP2 GT PUSH2 0x602 JUMPI TIMESTAMP GT ISZERO SWAP1 PUSH2 0x147C JUMP JUMPDEST PUSH2 0x1541 SWAP1 PUSH1 0x20 RETURNDATASIZE PUSH1 0x20 GT PUSH2 0x81E JUMPI PUSH2 0x811 DUP2 DUP4 PUSH2 0x2431 JUMP JUMPDEST PUSH2 0x1170 JUMP JUMPDEST PUSH1 0x40 MLOAD RETURNDATASIZE DUP10 DUP3 RETURNDATACOPY RETURNDATASIZE SWAP1 REVERT JUMPDEST PUSH1 0x40 MLOAD PUSH3 0x461BCD PUSH1 0xE5 SHL DUP2 MSTORE PUSH1 0x20 PUSH1 0x4 DUP3 ADD MSTORE PUSH1 0x14 PUSH1 0x24 DUP3 ADD MSTORE PUSH20 0x105B1C9958591E48185D081B585E081B195D995B PUSH1 0x62 SHL PUSH1 0x44 DUP3 ADD MSTORE PUSH1 0x64 SWAP1 REVERT JUMPDEST POP CALLVALUE PUSH2 0x26D JUMPI DUP1 PUSH1 0x3 NOT CALLDATASIZE ADD SLT PUSH2 0x26D JUMPI PUSH1 0x20 PUSH1 0x40 MLOAD PUSH3 0x2A300 DUP2 MSTORE RETURN JUMPDEST POP CALLVALUE PUSH2 0x26D JUMPI PUSH2 0x15BA CALLDATASIZE PUSH2 0x1E27 JUMP JUMPDEST PUSH2 0x15C5 SWAP3 SWAP2 SWAP3 PUSH2 0x25EB JUMP JUMPDEST DUP3 DUP3 MSTORE PUSH1 0x10 PUSH1 0x20 MSTORE PUSH2 0x15E4 PUSH1 0x1 DUP1 PUSH1 0xA0 SHL SUB PUSH1 0x40 DUP5 KECCAK256 SLOAD AND CALLER EQ PUSH2 0x1EE6 JUMP JUMPDEST DUP3 ISZERO ISZERO DUP1 PUSH2 0x18D1 JUMPI JUMPDEST DUP1 PUSH2 0x18B3 JUMPI JUMPDEST DUP1 PUSH2 0x18A8 JUMPI JUMPDEST PUSH2 0x1602 SWAP1 PUSH2 0x1F25 JUMP JUMPDEST DUP3 DUP3 MSTORE PUSH1 0x45 PUSH1 0x20 MSTORE PUSH1 0x40 DUP3 KECCAK256 DUP2 DUP4 MSTORE PUSH1 0x43 PUSH1 0x20 MSTORE PUSH1 0x40 DUP4 KECCAK256 PUSH2 0x162F PUSH1 0x1 PUSH1 0xFF PUSH1 0x4 DUP6 ADD SLOAD AND ISZERO ISZERO EQ PUSH2 0x2364 JUMP JUMPDEST PUSH1 0x3 DUP3 ADD DUP4 DUP6 MSTORE DUP1 PUSH1 0x20 MSTORE PUSH2 0x164B PUSH1 0xFF PUSH1 0x40 DUP8 KECCAK256 SLOAD AND ISZERO PUSH2 0x23A1 JUMP JUMPDEST PUSH1 0x3 DUP3 ADD SLOAD SWAP2 DUP3 ISZERO SWAP4 PUSH2 0x165E DUP6 ISZERO PUSH2 0x1F8A JUMP JUMPDEST PUSH2 0x167A DUP7 PUSH1 0x1 PUSH1 0x4 DUP6 ADD SWAP4 PUSH2 0xBF5 PUSH1 0x2 DUP7 SLOAD SWAP8 ADD SLOAD DUP8 LT PUSH2 0x1FCB JUMP JUMPDEST PUSH1 0x1 DUP3 ADD DUP1 SWAP3 GT PUSH2 0xEBE JUMPI SSTORE DUP4 DUP6 MSTORE PUSH1 0x20 MSTORE PUSH1 0x40 DUP5 KECCAK256 PUSH1 0x1 PUSH1 0xFF NOT DUP3 SLOAD AND OR SWAP1 SSTORE DUP5 DUP5 MSTORE PUSH1 0x10 PUSH1 0x20 MSTORE PUSH1 0x40 DUP5 KECCAK256 SWAP4 PUSH1 0x1 DUP1 PUSH1 0xA0 SHL SUB DUP6 SLOAD AND SWAP3 DUP4 ISZERO PUSH2 0xE8A JUMPI PUSH2 0xE57 JUMPI DUP6 DUP2 MSTORE PUSH1 0x11 PUSH1 0x20 MSTORE PUSH1 0x40 DUP2 KECCAK256 SWAP1 DUP1 PUSH2 0x16D6 DUP5 DUP5 SLOAD PUSH2 0x200B JUMP JUMPDEST DUP4 SSTORE PUSH2 0xE43 JUMPI POP PUSH0 SWAP5 SWAP4 SWAP5 POP PUSH1 0xA DUP2 ADD PUSH2 0x16F1 DUP4 DUP3 SLOAD PUSH2 0x200B JUMP JUMPDEST SWAP1 SSTORE SLOAD SWAP4 PUSH1 0xB DUP5 ADD SLOAD SWAP3 PUSH1 0x6 PUSH0 SWAP6 ADD SWAP6 JUMPDEST DUP7 SLOAD DUP7 LT ISZERO PUSH2 0x189B JUMPI PUSH2 0x1714 DUP7 PUSH2 0x1E3D JUMP JUMPDEST SWAP1 SLOAD SWAP1 PUSH1 0x3 SHL SHR DUP9 PUSH0 MSTORE PUSH1 0xE PUSH1 0x20 MSTORE PUSH1 0x40 PUSH0 KECCAK256 DUP2 PUSH0 MSTORE PUSH1 0x20 MSTORE DUP6 PUSH1 0x40 PUSH0 KECCAK256 SWAP2 PUSH1 0x3 DUP4 ADD PUSH1 0xFF DUP2 SLOAD AND DUP1 ISZERO SWAP1 DUP2 DUP1 SWAP3 PUSH2 0x1885 JUMPI JUMPDEST ISZERO PUSH2 0x1776 JUMPI POP POP SWAP2 PUSH1 0xA PUSH2 0xCF1 DUP3 PUSH1 0x1 SWAP8 SWAP5 PUSH2 0x176D SWAP8 SWAP7 DUP10 PUSH1 0xFF NOT DUP3 SLOAD AND OR SWAP1 SSTORE PUSH2 0x247F JUMP JUMPDEST SWAP6 JUMPDEST ADD SWAP5 PUSH2 0x1702 JUMP JUMPDEST SWAP2 POP SWAP3 POP DUP1 PUSH2 0x1870 JUMPI JUMPDEST ISZERO PUSH2 0x179E JUMPI POP POP PUSH1 0x1 SWAP2 PUSH1 0x2 PUSH2 0x1798 SWAP3 ADD SLOAD SWAP1 PUSH2 0x2018 JUMP JUMPDEST SWAP6 PUSH2 0x176F JUMP JUMPDEST SWAP3 SWAP8 SWAP3 DUP8 SWAP1 DUP3 PUSH2 0x1858 JUMPI JUMPDEST POP POP PUSH2 0x17B8 JUMPI POP PUSH1 0x1 SWAP1 PUSH2 0x176F JUMP JUMPDEST SWAP2 SWAP8 SWAP6 SWAP4 SWAP7 POP POP PUSH1 0x1 SWAP2 SWAP4 POP ADD SSTORE JUMPDEST PUSH1 0x1 SLOAD PUSH2 0x17E0 SWAP1 DUP5 SWAP1 DUP7 SWAP1 PUSH1 0x1 PUSH1 0x1 PUSH1 0xA0 SHL SUB AND PUSH2 0x3295 JUMP JUMPDEST PUSH1 0x40 MLOAD DUP4 DUP2 MSTORE PUSH0 PUSH1 0x20 DUP3 ADD MSTORE SWAP1 DUP3 DUP1 PUSH32 0x8211032682F8FD8BE8FF252E0A106CDB6AD4B10427152B4D93C2BC9A1F11C3C2 SWAP7 PUSH0 MLOAD PUSH1 0x20 PUSH2 0x3421 PUSH0 CODECOPY PUSH0 MLOAD SWAP1 PUSH0 MSTORE PUSH1 0x80 DUP7 PUSH1 0x8 PUSH1 0x40 PUSH2 0xDEA SWAP10 ADD MSTORE TIMESTAMP PUSH1 0x60 DUP3 ADD MSTORE LOG4 PUSH1 0x40 MLOAD SWAP4 DUP5 SWAP4 TIMESTAMP SWAP3 DUP6 SWAP1 SWAP5 SWAP4 SWAP3 PUSH1 0x60 SWAP3 PUSH1 0x80 DUP4 ADD SWAP7 DUP4 MSTORE PUSH1 0x20 DUP4 ADD MSTORE PUSH1 0x40 DUP3 ADD MSTORE ADD MSTORE JUMP JUMPDEST PUSH1 0xA SWAP3 POP SWAP1 PUSH2 0x1866 SWAP2 PUSH2 0x247F JUMP JUMPDEST DIV DUP8 LT DUP7 PUSH0 PUSH2 0x17A9 JUMP JUMPDEST POP PUSH1 0xA PUSH2 0x187D DUP10 DUP4 PUSH2 0x247F JUMP JUMPDEST DIV DUP5 GT PUSH2 0x1780 JUMP JUMPDEST POP PUSH1 0xA PUSH2 0x1892 DUP7 DUP7 PUSH2 0x247F JUMP JUMPDEST DIV DUP8 LT ISZERO PUSH2 0x1747 JUMP JUMPDEST POP SWAP6 SWAP4 POP SWAP2 POP SWAP3 POP PUSH2 0x17C7 JUMP JUMPDEST POP PUSH1 0x40 SLOAD DUP2 LT PUSH2 0x15F9 JUMP JUMPDEST POP DUP1 DUP3 MSTORE PUSH1 0x43 PUSH1 0x20 MSTORE PUSH1 0x1 PUSH1 0xFF PUSH1 0x8 PUSH1 0x40 DUP6 KECCAK256 ADD SLOAD AND ISZERO ISZERO EQ PUSH2 0x15F3 JUMP JUMPDEST POP DUP1 ISZERO ISZERO PUSH2 0x15ED JUMP JUMPDEST POP CALLVALUE PUSH2 0x26D JUMPI PUSH1 0x20 CALLDATASIZE PUSH1 0x3 NOT ADD SLT PUSH2 0x26D JUMPI PUSH1 0x4 CALLDATALOAD SWAP1 PUSH1 0x7 SLOAD DUP3 LT ISZERO PUSH2 0x26D JUMPI PUSH1 0x7 SLOAD DUP3 LT ISZERO PUSH2 0xAB1 JUMPI PUSH1 0x20 SWAP2 PUSH1 0x7 DUP3 MSTORE DUP3 DUP3 KECCAK256 ADD SLOAD SWAP1 PUSH1 0x3 SHL SHR PUSH1 0x40 MLOAD SWAP1 DUP2 MSTORE RETURN JUMPDEST PUSH2 0x1ECB JUMP JUMPDEST POP CALLVALUE PUSH2 0x26D JUMPI DUP1 PUSH1 0x3 NOT CALLDATASIZE ADD SLT PUSH2 0x26D JUMPI PUSH1 0x20 PUSH1 0x40 MLOAD PUSH8 0xDE0B6B3A7640000 DUP2 MSTORE RETURN JUMPDEST POP CALLVALUE PUSH2 0x26D JUMPI DUP1 PUSH1 0x3 NOT CALLDATASIZE ADD SLT PUSH2 0x26D JUMPI PUSH1 0x20 PUSH1 0x40 MLOAD PUSH3 0x15180 DUP2 MSTORE RETURN JUMPDEST POP CALLVALUE PUSH2 0x26D JUMPI DUP1 PUSH1 0x3 NOT CALLDATASIZE ADD SLT PUSH2 0x26D JUMPI PUSH1 0x20 PUSH1 0x40 MLOAD PUSH1 0x2 DUP2 MSTORE RETURN JUMPDEST POP CALLVALUE PUSH2 0x26D JUMPI DUP1 PUSH1 0x3 NOT CALLDATASIZE ADD SLT PUSH2 0x26D JUMPI PUSH1 0x20 PUSH1 0x3B SLOAD PUSH1 0x40 MLOAD SWAP1 DUP2 MSTORE RETURN JUMPDEST POP CALLVALUE PUSH2 0x26D JUMPI DUP1 PUSH1 0x3 NOT CALLDATASIZE ADD SLT PUSH2 0x26D JUMPI PUSH1 0x1 SLOAD PUSH1 0x40 MLOAD PUSH1 0x1 PUSH1 0x1 PUSH1 0xA0 SHL SUB SWAP1 SWAP2 AND DUP2 MSTORE PUSH1 0x20 SWAP1 RETURN JUMPDEST POP CALLVALUE PUSH2 0x26D JUMPI DUP1 PUSH1 0x3 NOT CALLDATASIZE ADD SLT PUSH2 0x26D JUMPI PUSH1 0x20 PUSH1 0x40 MLOAD PUSH3 0x278D00 DUP2 MSTORE RETURN JUMPDEST POP CALLVALUE PUSH2 0x26D JUMPI PUSH1 0x20 CALLDATASIZE PUSH1 0x3 NOT ADD SLT PUSH2 0x26D JUMPI PUSH1 0x4 CALLDATALOAD SWAP1 PUSH1 0x17 SLOAD DUP3 LT ISZERO PUSH2 0x26D JUMPI PUSH1 0x17 SLOAD DUP3 LT ISZERO PUSH2 0xAB1 JUMPI PUSH1 0x20 SWAP2 PUSH1 0x17 DUP3 MSTORE DUP3 DUP3 KECCAK256 ADD SLOAD SWAP1 PUSH1 0x3 SHL SHR PUSH1 0x40 MLOAD SWAP1 DUP2 MSTORE RETURN JUMPDEST POP CALLVALUE PUSH2 0x26D JUMPI PUSH1 0x20 CALLDATASIZE PUSH1 0x3 NOT ADD SLT PUSH2 0x26D JUMPI PUSH1 0x4 CALLDATALOAD PUSH1 0x7 DUP2 LT ISZERO PUSH2 0x974 JUMPI PUSH1 0x20 SWAP2 POP PUSH1 0x18 ADD SLOAD PUSH1 0x40 MLOAD SWAP1 DUP2 MSTORE RETURN JUMPDEST POP CALLVALUE PUSH2 0x26D JUMPI PUSH2 0x1A6D PUSH2 0x1A67 CALLDATASIZE PUSH2 0x1E27 JUMP JUMPDEST SWAP1 PUSH2 0x2043 JUMP JUMPDEST DUP1 RETURN JUMPDEST CALLVALUE PUSH2 0x1DDF JUMPI PUSH2 0x1A7E CALLDATASIZE PUSH2 0x1E27 JUMP JUMPDEST PUSH2 0x1A86 PUSH2 0x25EB JUMP JUMPDEST DUP2 PUSH0 MSTORE PUSH1 0x10 PUSH1 0x20 MSTORE PUSH2 0x1AA5 PUSH1 0x1 DUP1 PUSH1 0xA0 SHL SUB PUSH1 0x40 PUSH0 KECCAK256 SLOAD AND CALLER EQ PUSH2 0x1EE6 JUMP JUMPDEST DUP2 ISZERO ISZERO DUP1 PUSH2 0x1DD6 JUMPI JUMPDEST DUP1 PUSH2 0x1DB8 JUMPI JUMPDEST DUP1 PUSH2 0x1DAD JUMPI JUMPDEST PUSH2 0x1AC3 SWAP1 PUSH2 0x1F25 JUMP JUMPDEST DUP1 PUSH0 MSTORE PUSH1 0x3E PUSH1 0x20 MSTORE PUSH1 0x40 PUSH0 KECCAK256 DUP3 PUSH0 MSTORE PUSH1 0x20 MSTORE PUSH1 0x40 PUSH0 KECCAK256 SWAP1 DUP1 PUSH0 MSTORE PUSH1 0x3C PUSH1 0x20 MSTORE PUSH1 0x3 PUSH1 0x40 PUSH0 KECCAK256 SWAP3 ADD SWAP2 DUP3 SLOAD PUSH1 0x1 PUSH1 0xFF DUP3 PUSH1 0x8 SHR AND ISZERO ISZERO EQ SWAP1 DUP2 PUSH2 0x1DA1 JUMPI JUMPDEST POP ISZERO PUSH2 0x1D5D JUMPI PUSH1 0x3 DUP2 ADD SLOAD SWAP3 DUP4 ISZERO SWAP2 PUSH2 0x1B19 DUP4 ISZERO PUSH2 0x1F8A JUMP JUMPDEST PUSH1 0x4 DUP2 ADD PUSH2 0x1B2E PUSH1 0x2 DUP3 SLOAD SWAP4 ADD SLOAD DUP4 LT PUSH2 0x1FCB JUMP JUMPDEST PUSH1 0x1 DUP3 ADD DUP1 SWAP3 GT PUSH2 0x1D49 JUMPI SSTORE PUSH1 0x1 PUSH1 0xFF NOT DUP3 SLOAD AND OR SWAP1 SSTORE DUP4 PUSH0 MSTORE PUSH1 0x10 PUSH1 0x20 MSTORE PUSH1 0x40 PUSH0 KECCAK256 SWAP3 PUSH1 0x1 DUP1 PUSH1 0xA0 SHL SUB DUP5 SLOAD AND SWAP2 DUP3 ISZERO PUSH2 0xE8A JUMPI PUSH2 0xE57 JUMPI DUP5 PUSH0 SWAP5 SWAP4 SWAP5 MSTORE PUSH1 0x11 PUSH1 0x20 MSTORE PUSH1 0x40 PUSH0 KECCAK256 PUSH2 0x1B81 DUP3 DUP3 SLOAD PUSH2 0x200B JUMP JUMPDEST DUP2 SSTORE PUSH1 0x9 DUP2 ADD PUSH2 0x1B92 DUP4 DUP3 SLOAD PUSH2 0x200B JUMP JUMPDEST SWAP1 SSTORE SLOAD SWAP4 PUSH1 0xB DUP5 ADD SLOAD SWAP3 PUSH1 0x6 PUSH0 SWAP6 ADD SWAP6 JUMPDEST DUP7 SLOAD DUP7 LT ISZERO PUSH2 0x1D3C JUMPI PUSH2 0x1BB5 DUP7 PUSH2 0x1E3D JUMP JUMPDEST SWAP1 SLOAD SWAP1 PUSH1 0x3 SHL SHR DUP9 PUSH0 MSTORE PUSH1 0xE PUSH1 0x20 MSTORE PUSH1 0x40 PUSH0 KECCAK256 DUP2 PUSH0 MSTORE PUSH1 0x20 MSTORE DUP6 PUSH1 0x40 PUSH0 KECCAK256 SWAP2 PUSH1 0x3 DUP4 ADD PUSH1 0xFF DUP2 SLOAD AND DUP1 ISZERO SWAP1 DUP2 DUP1 SWAP3 PUSH2 0x1D26 JUMPI JUMPDEST ISZERO PUSH2 0x1C17 JUMPI POP POP SWAP2 PUSH1 0xA PUSH2 0xCF1 DUP3 PUSH1 0x1 SWAP8 SWAP5 PUSH2 0x1C0E SWAP8 SWAP7 DUP10 PUSH1 0xFF NOT DUP3 SLOAD AND OR SWAP1 SSTORE PUSH2 0x247F JUMP JUMPDEST SWAP6 JUMPDEST ADD SWAP5 PUSH2 0x1BA3 JUMP JUMPDEST SWAP2 POP SWAP3 POP DUP1 PUSH2 0x1D11 JUMPI JUMPDEST ISZERO PUSH2 0x1C3F JUMPI POP POP PUSH1 0x1 SWAP2 PUSH1 0x2 PUSH2 0x1C39 SWAP3 ADD SLOAD SWAP1 PUSH2 0x2018 JUMP JUMPDEST SWAP6 PUSH2 0x1C10 JUMP JUMPDEST SWAP3 SWAP8 SWAP3 DUP8 SWAP1 DUP3 PUSH2 0x1CF9 JUMPI JUMPDEST POP POP PUSH2 0x1C59 JUMPI POP PUSH1 0x1 SWAP1 PUSH2 0x1C10 JUMP JUMPDEST SWAP2 SWAP8 SWAP6 SWAP4 SWAP7 POP POP PUSH1 0x1 SWAP2 SWAP4 POP ADD SSTORE JUMPDEST PUSH1 0x1 SLOAD PUSH2 0x1C81 SWAP1 DUP5 SWAP1 DUP7 SWAP1 PUSH1 0x1 PUSH1 0x1 PUSH1 0xA0 SHL SUB AND PUSH2 0x3295 JUMP JUMPDEST PUSH1 0x40 MLOAD DUP4 DUP2 MSTORE PUSH0 PUSH1 0x20 DUP3 ADD MSTORE SWAP1 DUP3 DUP1 PUSH32 0x96EE4F374D0394C5383B347DC3B7EC04A1ECEDDCD2E25521157BCE21C42B24D5 SWAP7 PUSH0 MLOAD PUSH1 0x20 PUSH2 0x3421 PUSH0 CODECOPY PUSH0 MLOAD SWAP1 PUSH0 MSTORE PUSH1 0x80 DUP7 PUSH1 0x7 PUSH1 0x40 PUSH2 0xDEA SWAP10 ADD MSTORE TIMESTAMP PUSH1 0x60 DUP3 ADD MSTORE LOG4 PUSH1 0x40 MLOAD SWAP4 DUP5 SWAP4 TIMESTAMP SWAP3 DUP6 SWAP1 SWAP5 SWAP4 SWAP3 PUSH1 0x60 SWAP3 PUSH1 0x80 DUP4 ADD SWAP7 DUP4 MSTORE PUSH1 0x20 DUP4 ADD MSTORE PUSH1 0x40 DUP3 ADD MSTORE ADD MSTORE JUMP JUMPDEST PUSH1 0xA SWAP3 POP SWAP1 PUSH2 0x1D07 SWAP2 PUSH2 0x247F JUMP JUMPDEST DIV DUP8 LT DUP7 DUP12 PUSH2 0x1C4A JUMP JUMPDEST POP PUSH1 0xA PUSH2 0x1D1E DUP10 DUP4 PUSH2 0x247F JUMP JUMPDEST DIV DUP5 GT PUSH2 0x1C21 JUMP JUMPDEST POP PUSH1 0xA PUSH2 0x1D33 DUP7 DUP7 PUSH2 0x247F JUMP JUMPDEST DIV DUP8 LT ISZERO PUSH2 0x1BE8 JUMP JUMPDEST POP SWAP6 SWAP4 POP SWAP2 POP SWAP3 POP PUSH2 0x1C68 JUMP JUMPDEST PUSH4 0x4E487B71 PUSH1 0xE0 SHL PUSH0 MSTORE PUSH1 0x11 PUSH1 0x4 MSTORE PUSH1 0x24 PUSH0 REVERT JUMPDEST PUSH1 0x64 PUSH1 0x40 MLOAD PUSH3 0x461BCD PUSH1 0xE5 SHL DUP2 MSTORE PUSH1 0x20 PUSH1 0x4 DUP3 ADD MSTORE PUSH1 0x20 PUSH1 0x24 DUP3 ADD MSTORE PUSH32 0x4E6F74207175616C6966696564206F7220616C726561647920636C61696D6564 PUSH1 0x44 DUP3 ADD MSTORE REVERT JUMPDEST PUSH1 0xFF SWAP2 POP AND ISZERO DUP6 PUSH2 0x1B00 JUMP JUMPDEST POP PUSH1 0x39 SLOAD DUP2 LT PUSH2 0x1ABA JUMP JUMPDEST POP DUP1 PUSH0 MSTORE PUSH1 0x3C PUSH1 0x20 MSTORE PUSH1 0x1 PUSH1 0xFF PUSH1 0x8 PUSH1 0x40 PUSH0 KECCAK256 ADD SLOAD AND ISZERO ISZERO EQ PUSH2 0x1AB4 JUMP JUMPDEST POP DUP1 ISZERO ISZERO PUSH2 0x1AAE JUMP JUMPDEST PUSH0 DUP1 REVERT JUMPDEST CALLVALUE PUSH2 0x1DDF JUMPI PUSH1 0x20 CALLDATASIZE PUSH1 0x3 NOT ADD SLT PUSH2 0x1DDF JUMPI PUSH1 0x4 CALLDATALOAD PUSH0 MSTORE PUSH1 0xC PUSH1 0x20 MSTORE PUSH1 0x20 PUSH1 0x40 PUSH0 KECCAK256 SLOAD PUSH1 0x40 MLOAD SWAP1 DUP2 MSTORE RETURN JUMPDEST CALLVALUE PUSH2 0x1DDF JUMPI PUSH0 CALLDATASIZE PUSH1 0x3 NOT ADD SLT PUSH2 0x1DDF JUMPI DUP1 PUSH2 0x2710 PUSH1 0x20 SWAP3 MSTORE RETURN JUMPDEST PUSH1 0x40 SWAP1 PUSH1 0x3 NOT ADD SLT PUSH2 0x1DDF JUMPI PUSH1 0x4 CALLDATALOAD SWAP1 PUSH1 0x24 CALLDATALOAD SWAP1 JUMP JUMPDEST PUSH1 0xD SLOAD DUP2 LT ISZERO PUSH2 0x1E55 JUMPI PUSH1 0xD PUSH0 MSTORE PUSH1 0x20 PUSH0 KECCAK256 ADD SWAP1 PUSH0 SWAP1 JUMP JUMPDEST PUSH4 0x4E487B71 PUSH1 0xE0 SHL PUSH0 MSTORE PUSH1 0x32 PUSH1 0x4 MSTORE PUSH1 0x24 PUSH0 REVERT JUMPDEST PUSH1 0xD SLOAD ISZERO PUSH2 0x1E55 JUMPI PUSH1 0xD PUSH0 SWAP1 DUP2 MSTORE PUSH32 0xD7B6990105719101DABEB77144F2A3385C8033ACD3AF97E9423A695E81AD1EB5 SWAP2 JUMP JUMPDEST DUP1 SLOAD DUP3 LT ISZERO PUSH2 0x1E55 JUMPI PUSH0 MSTORE PUSH1 0x20 PUSH0 KECCAK256 ADD SWAP1 PUSH0 SWAP1 JUMP JUMPDEST CALLVALUE PUSH2 0x1DDF JUMPI PUSH0 CALLDATASIZE PUSH1 0x3 NOT ADD SLT PUSH2 0x1DDF JUMPI PUSH1 0x20 PUSH1 0x40 MLOAD PUSH1 0xA DUP2 MSTORE RETURN JUMPDEST CALLVALUE PUSH2 0x1DDF JUMPI PUSH0 CALLDATASIZE PUSH1 0x3 NOT ADD SLT PUSH2 0x1DDF JUMPI PUSH1 0x20 PUSH1 0x40 MLOAD PUSH1 0xF DUP2 MSTORE RETURN JUMPDEST ISZERO PUSH2 0x1EED JUMPI JUMP JUMPDEST PUSH1 0x40 MLOAD PUSH3 0x461BCD PUSH1 0xE5 SHL DUP2 MSTORE PUSH1 0x20 PUSH1 0x4 DUP3 ADD MSTORE PUSH1 0x10 PUSH1 0x24 DUP3 ADD MSTORE PUSH16 0x139BDD081E5BDD5C881858D8DBDD5B9D PUSH1 0x82 SHL PUSH1 0x44 DUP3 ADD MSTORE PUSH1 0x64 SWAP1 REVERT JUMPDEST ISZERO PUSH2 0x1F2C JUMPI JUMP JUMPDEST PUSH1 0x40 MLOAD PUSH3 0x461BCD PUSH1 0xE5 SHL DUP2 MSTORE PUSH1 0x20 PUSH1 0x4 DUP3 ADD MSTORE PUSH1 0x30 PUSH1 0x24 DUP3 ADD MSTORE PUSH32 0x496E76616C696420757365724964206F7220726F756E644964206F7220726F75 PUSH1 0x44 DUP3 ADD MSTORE PUSH16 0x1B99081BDC881B9BDD0818DB1BDCD959 PUSH1 0x82 SHL PUSH1 0x64 DUP3 ADD MSTORE PUSH1 0x84 SWAP1 REVERT JUMPDEST ISZERO PUSH2 0x1F91 JUMPI JUMP JUMPDEST PUSH1 0x40 MLOAD PUSH3 0x461BCD PUSH1 0xE5 SHL DUP2 MSTORE PUSH1 0x20 PUSH1 0x4 DUP3 ADD MSTORE PUSH1 0x12 PUSH1 0x24 DUP3 ADD MSTORE PUSH18 0x4E6F2072657761726420746F20636C61696D PUSH1 0x70 SHL PUSH1 0x44 DUP3 ADD MSTORE PUSH1 0x64 SWAP1 REVERT JUMPDEST ISZERO PUSH2 0x1FD2 JUMPI JUMP JUMPDEST PUSH1 0x40 MLOAD PUSH3 0x461BCD PUSH1 0xE5 SHL DUP2 MSTORE PUSH1 0x20 PUSH1 0x4 DUP3 ADD MSTORE PUSH1 0x11 PUSH1 0x24 DUP3 ADD MSTORE PUSH17 0x105B1B081D5CD95C9CC818DB185A5B5959 PUSH1 0x7A SHL PUSH1 0x44 DUP3 ADD MSTORE PUSH1 0x64 SWAP1 REVERT JUMPDEST SWAP2 SWAP1 DUP3 ADD DUP1 SWAP3 GT PUSH2 0x1D49 JUMPI JUMP JUMPDEST SWAP2 SWAP1 DUP3 SUB SWAP2 DUP3 GT PUSH2 0x1D49 JUMPI JUMP JUMPDEST DUP2 ISZERO PUSH2 0x202F JUMPI DIV SWAP1 JUMP JUMPDEST PUSH4 0x4E487B71 PUSH1 0xE0 SHL PUSH0 MSTORE PUSH1 0x12 PUSH1 0x4 MSTORE PUSH1 0x24 PUSH0 REVERT JUMPDEST SWAP2 SWAP1 SWAP2 DUP1 PUSH0 MSTORE PUSH1 0x10 PUSH1 0x20 MSTORE PUSH1 0x40 PUSH0 KECCAK256 PUSH1 0x3 DUP2 ADD SLOAD ISZERO PUSH2 0x232E JUMPI PUSH1 0x6 DUP5 SWAP2 PUSH2 0x2074 PUSH1 0x1 DUP1 PUSH1 0xA0 SHL SUB DUP3 SLOAD AND CALLER EQ PUSH2 0x1EE6 JUMP JUMPDEST ADD SLOAD SUB PUSH2 0x22F7 JUMPI DUP3 PUSH0 MSTORE PUSH1 0xA PUSH1 0x20 MSTORE PUSH1 0x40 PUSH0 KECCAK256 SLOAD SWAP1 DUP4 PUSH0 MSTORE PUSH1 0xB PUSH1 0x20 MSTORE PUSH1 0x40 PUSH0 KECCAK256 DUP2 PUSH0 MSTORE PUSH1 0x20 MSTORE PUSH1 0x40 PUSH0 KECCAK256 SLOAD DUP1 DUP4 EQ PUSH2 0x22F0 JUMPI PUSH2 0x20BA PUSH8 0xDE0B6B3A7640000 SWAP2 DUP5 PUSH2 0x2018 JUMP JUMPDEST DIV SWAP1 DUP2 ISZERO PUSH2 0x22D3 JUMPI PUSH2 0x20CC DUP3 DUP3 PUSH2 0x27FE JUMP JUMPDEST SWAP3 DUP6 PUSH0 MSTORE PUSH1 0xB PUSH1 0x20 MSTORE PUSH1 0x40 PUSH0 KECCAK256 DUP3 PUSH0 MSTORE PUSH1 0x20 MSTORE PUSH1 0x40 PUSH0 KECCAK256 SSTORE DUP3 ISZERO DUP1 ISZERO PUSH2 0x210D JUMPI JUMPDEST POP POP SWAP1 DUP1 SWAP3 SWAP4 POP DUP2 GT PUSH2 0x20FE JUMPI POP POP JUMP JUMPDEST PUSH2 0x210B SWAP2 PUSH2 0x53B SWAP2 PUSH2 0x2018 JUMP JUMPDEST JUMP JUMPDEST DUP2 PUSH0 MSTORE PUSH1 0x10 PUSH1 0x20 MSTORE PUSH1 0x40 PUSH0 KECCAK256 SWAP5 PUSH1 0x1 DUP1 PUSH1 0xA0 SHL SUB DUP7 SLOAD AND SWAP2 DUP3 ISZERO PUSH2 0xE8A JUMPI PUSH2 0xE57 JUMPI DUP3 PUSH0 SWAP7 SWAP6 SWAP7 MSTORE PUSH1 0x11 PUSH1 0x20 MSTORE PUSH1 0x40 PUSH0 KECCAK256 PUSH2 0x2149 DUP8 DUP3 SLOAD PUSH2 0x200B JUMP JUMPDEST DUP2 SSTORE PUSH1 0x6 DUP2 ADD PUSH2 0x215A DUP9 DUP3 SLOAD PUSH2 0x200B JUMP JUMPDEST SWAP1 SSTORE SLOAD SWAP6 PUSH1 0xB DUP7 ADD SLOAD SWAP5 PUSH1 0x6 PUSH0 SWAP8 ADD SWAP8 JUMPDEST DUP9 SLOAD DUP9 LT ISZERO PUSH2 0x22C5 JUMPI PUSH2 0x217D DUP9 PUSH2 0x1E3D JUMP JUMPDEST SWAP1 SLOAD SWAP1 PUSH1 0x3 SHL SHR DUP7 PUSH0 MSTORE PUSH1 0xE PUSH1 0x20 MSTORE PUSH1 0x40 PUSH0 KECCAK256 DUP2 PUSH0 MSTORE PUSH1 0x20 MSTORE DUP8 PUSH1 0x40 PUSH0 KECCAK256 SWAP2 PUSH1 0x3 DUP4 ADD PUSH1 0xFF DUP2 SLOAD AND DUP1 ISZERO SWAP1 DUP2 DUP1 SWAP3 PUSH2 0x22AF JUMPI JUMPDEST ISZERO PUSH2 0x21DF JUMPI POP POP SWAP2 PUSH1 0xA PUSH2 0xCF1 DUP3 PUSH1 0x1 SWAP8 SWAP5 PUSH2 0x21D6 SWAP8 SWAP7 DUP10 PUSH1 0xFF NOT DUP3 SLOAD AND OR SWAP1 SSTORE PUSH2 0x247F JUMP JUMPDEST SWAP8 JUMPDEST ADD SWAP7 PUSH2 0x216B JUMP JUMPDEST SWAP2 POP SWAP3 POP DUP1 PUSH2 0x229A JUMPI JUMPDEST ISZERO PUSH2 0x2207 JUMPI POP POP PUSH1 0x1 SWAP2 PUSH1 0x2 PUSH2 0x2201 SWAP3 ADD SLOAD SWAP1 PUSH2 0x2018 JUMP JUMPDEST SWAP8 PUSH2 0x21D8 JUMP JUMPDEST SWAP3 SWAP10 SWAP3 DUP10 SWAP1 DUP3 PUSH2 0x2282 JUMPI JUMPDEST POP POP PUSH2 0x2221 JUMPI POP PUSH1 0x1 SWAP1 PUSH2 0x21D8 JUMP JUMPDEST SWAP2 SWAP8 SWAP4 SWAP10 SWAP6 SWAP7 POP POP PUSH1 0x1 SWAP2 SWAP8 POP ADD SSTORE JUMPDEST PUSH1 0x1 SLOAD PUSH2 0x224A SWAP1 DUP7 SWAP1 DUP4 SWAP1 PUSH1 0x1 PUSH1 0x1 PUSH1 0xA0 SHL SUB AND PUSH2 0x3295 JUMP JUMPDEST PUSH1 0x40 MLOAD DUP6 DUP2 MSTORE PUSH1 0x20 DUP2 ADD SWAP3 SWAP1 SWAP3 MSTORE PUSH0 MLOAD PUSH1 0x20 PUSH2 0x3421 PUSH0 CODECOPY PUSH0 MLOAD SWAP1 PUSH0 MSTORE PUSH1 0x80 DUP4 PUSH1 0x4 PUSH1 0x40 DUP8 SWAP7 ADD MSTORE TIMESTAMP PUSH1 0x60 DUP3 ADD MSTORE LOG4 SWAP1 DUP3 SWAP2 PUSH0 DUP1 PUSH2 0x20ED JUMP JUMPDEST PUSH1 0xA SWAP3 POP SWAP1 PUSH2 0x2290 SWAP2 PUSH2 0x247F JUMP JUMPDEST DIV DUP10 LT DUP9 PUSH0 PUSH2 0x2212 JUMP JUMPDEST POP PUSH1 0xA PUSH2 0x22A7 DUP12 DUP4 PUSH2 0x247F JUMP JUMPDEST DIV DUP5 GT PUSH2 0x21E9 JUMP JUMPDEST POP PUSH1 0xA PUSH2 0x22BC DUP7 DUP7 PUSH2 0x247F JUMP JUMPDEST DIV DUP8 LT ISZERO PUSH2 0x21B0 JUMP JUMPDEST POP SWAP6 POP SWAP6 POP SWAP6 SWAP2 SWAP3 POP PUSH2 0x2231 JUMP JUMPDEST SWAP2 SWAP3 SWAP4 SWAP1 POP PUSH0 MSTORE PUSH1 0xB PUSH1 0x20 MSTORE PUSH1 0x40 PUSH0 KECCAK256 SWAP1 PUSH0 MSTORE PUSH1 0x20 MSTORE PUSH1 0x40 PUSH0 KECCAK256 SSTORE JUMP JUMPDEST POP POP POP SWAP1 POP JUMP JUMPDEST PUSH1 0x40 MLOAD PUSH3 0x461BCD PUSH1 0xE5 SHL DUP2 MSTORE PUSH1 0x20 PUSH1 0x4 DUP3 ADD MSTORE PUSH1 0xF PUSH1 0x24 DUP3 ADD MSTORE PUSH15 0x496E76616C6964207061636B616765 PUSH1 0x88 SHL PUSH1 0x44 DUP3 ADD MSTORE PUSH1 0x64 SWAP1 REVERT JUMPDEST PUSH1 0x40 MLOAD PUSH3 0x461BCD PUSH1 0xE5 SHL DUP2 MSTORE PUSH1 0x20 PUSH1 0x4 DUP3 ADD MSTORE PUSH1 0xE PUSH1 0x24 DUP3 ADD MSTORE PUSH14 0x155CD95C881B9BDD08199BDD5B99 PUSH1 0x92 SHL PUSH1 0x44 DUP3 ADD MSTORE PUSH1 0x64 SWAP1 REVERT JUMPDEST ISZERO PUSH2 0x236B JUMPI JUMP JUMPDEST PUSH1 0x40 MLOAD PUSH3 0x461BCD PUSH1 0xE5 SHL DUP2 MSTORE PUSH1 0x20 PUSH1 0x4 DUP3 ADD MSTORE PUSH1 0xE PUSH1 0x24 DUP3 ADD MSTORE PUSH14 0x2737BA1038BAB0B634B334B2B21 PUSH1 0x95 SHL PUSH1 0x44 DUP3 ADD MSTORE PUSH1 0x64 SWAP1 REVERT JUMPDEST ISZERO PUSH2 0x23A8 JUMPI JUMP JUMPDEST PUSH1 0x40 MLOAD PUSH3 0x461BCD PUSH1 0xE5 SHL DUP2 MSTORE PUSH1 0x20 PUSH1 0x4 DUP3 ADD MSTORE PUSH1 0x1E PUSH1 0x24 DUP3 ADD MSTORE PUSH32 0x416C726561647920636C61696D656420666F72207468697320726F756E640000 PUSH1 0x44 DUP3 ADD MSTORE PUSH1 0x64 SWAP1 REVERT JUMPDEST ISZERO PUSH2 0x23F4 JUMPI JUMP JUMPDEST PUSH1 0x40 MLOAD PUSH3 0x461BCD PUSH1 0xE5 SHL DUP2 MSTORE PUSH1 0x20 PUSH1 0x4 DUP3 ADD MSTORE PUSH1 0x15 PUSH1 0x24 DUP3 ADD MSTORE PUSH21 0x4E6F7420656C696769626C6520746F20636C61696D PUSH1 0x58 SHL PUSH1 0x44 DUP3 ADD MSTORE PUSH1 0x64 SWAP1 REVERT JUMPDEST SWAP1 PUSH1 0x1F DUP1 NOT SWAP2 ADD AND DUP2 ADD SWAP1 DUP2 LT PUSH8 0xFFFFFFFFFFFFFFFF DUP3 GT OR PUSH2 0x2453 JUMPI PUSH1 0x40 MSTORE JUMP JUMPDEST PUSH4 0x4E487B71 PUSH1 0xE0 SHL PUSH0 MSTORE PUSH1 0x41 PUSH1 0x4 MSTORE PUSH1 0x24 PUSH0 REVERT JUMPDEST SWAP1 DUP2 PUSH1 0x20 SWAP2 SUB SLT PUSH2 0x1DDF JUMPI MLOAD DUP1 ISZERO ISZERO DUP2 SUB PUSH2 0x1DDF JUMPI SWAP1 JUMP JUMPDEST DUP2 DUP2 MUL SWAP3 SWAP2 DUP2 ISZERO SWAP2 DUP5 DIV EQ OR ISZERO PUSH2 0x1D49 JUMPI JUMP JUMPDEST SWAP2 SWAP1 DUP3 PUSH0 MSTORE PUSH1 0x10 PUSH1 0x20 MSTORE PUSH1 0x3 PUSH1 0x40 PUSH0 KECCAK256 ADD SLOAD ISZERO PUSH2 0x2501 JUMPI DUP1 PUSH0 MSTORE PUSH1 0xA PUSH1 0x20 MSTORE PUSH1 0x40 PUSH0 KECCAK256 SLOAD SWAP1 PUSH0 MSTORE PUSH1 0xB PUSH1 0x20 MSTORE PUSH1 0x40 PUSH0 KECCAK256 DUP4 PUSH0 MSTORE PUSH1 0x20 MSTORE PUSH1 0x40 PUSH0 KECCAK256 SLOAD SWAP1 DUP2 DUP2 GT ISZERO PUSH2 0x24F7 JUMPI PUSH2 0x24EC PUSH2 0x24F4 SWAP3 PUSH8 0xDE0B6B3A7640000 SWAP3 PUSH2 0x2018 JUMP JUMPDEST DIV DUP1 SWAP4 PUSH2 0x27FE JUMP JUMPDEST SWAP1 JUMP JUMPDEST POP POP SWAP1 POP PUSH0 SWAP1 PUSH0 SWAP1 JUMP JUMPDEST POP PUSH0 SWAP2 POP DUP2 SWAP1 JUMP JUMPDEST PUSH0 MSTORE PUSH1 0x45 PUSH1 0x20 MSTORE PUSH1 0x40 PUSH0 KECCAK256 DUP2 PUSH0 MSTORE PUSH1 0x43 PUSH1 0x20 MSTORE PUSH1 0x40 PUSH0 KECCAK256 SWAP1 PUSH1 0xFF PUSH1 0x8 DUP4 ADD SLOAD AND ISZERO SWAP3 DUP4 ISZERO PUSH2 0x25A5 JUMPI JUMPDEST DUP4 ISZERO PUSH2 0x2595 JUMPI JUMPDEST DUP4 ISZERO PUSH2 0x2586 JUMPI JUMPDEST DUP4 ISZERO PUSH2 0x256B JUMPI JUMPDEST POP POP DUP2 ISZERO PUSH2 0x255E JUMPI JUMPDEST POP PUSH2 0x255A JUMPI PUSH1 0x1 SWAP1 JUMP JUMPDEST PUSH0 SWAP1 JUMP JUMPDEST PUSH1 0x3 SWAP2 POP ADD SLOAD ISZERO PUSH0 PUSH2 0x2550 JUMP JUMPDEST PUSH1 0x3 SWAP3 SWAP4 POP PUSH0 MSTORE ADD PUSH1 0x20 MSTORE PUSH1 0xFF PUSH1 0x40 PUSH0 KECCAK256 SLOAD AND SWAP1 PUSH0 DUP1 PUSH2 0x2547 JUMP JUMPDEST DUP1 SWAP4 POP PUSH1 0x1 DUP3 ADD SLOAD GT SWAP3 PUSH2 0x2540 JUMP JUMPDEST PUSH1 0x4 DUP3 ADD SLOAD PUSH1 0xFF AND ISZERO SWAP4 POP PUSH2 0x2539 JUMP JUMPDEST PUSH1 0x40 SLOAD DUP2 LT ISZERO SWAP4 POP PUSH2 0x2532 JUMP JUMPDEST DUP1 SLOAD PUSH9 0x10000000000000000 DUP2 LT ISZERO PUSH2 0x2453 JUMPI PUSH2 0x25D4 SWAP2 PUSH1 0x1 DUP3 ADD DUP2 SSTORE PUSH2 0x1E9B JUMP JUMPDEST DUP2 SWAP3 SWAP2 SLOAD SWAP1 PUSH1 0x3 SHL SWAP2 DUP3 SHL SWAP2 PUSH0 NOT SWAP1 SHL NOT AND OR SWAP1 SSTORE JUMP JUMPDEST PUSH1 0x2 PUSH0 SLOAD EQ PUSH2 0x25FA JUMPI PUSH1 0x2 PUSH0 SSTORE JUMP JUMPDEST PUSH1 0x40 MLOAD PUSH3 0x461BCD PUSH1 0xE5 SHL DUP2 MSTORE PUSH1 0x20 PUSH1 0x4 DUP3 ADD MSTORE PUSH1 0x1F PUSH1 0x24 DUP3 ADD MSTORE PUSH32 0x5265656E7472616E637947756172643A207265656E7472616E742063616C6C00 PUSH1 0x44 DUP3 ADD MSTORE PUSH1 0x64 SWAP1 REVERT JUMPDEST SWAP1 SWAP2 SWAP4 DUP2 PUSH0 MSTORE PUSH1 0x10 PUSH1 0x20 MSTORE PUSH1 0x40 PUSH0 KECCAK256 SWAP4 PUSH1 0x1 DUP1 PUSH1 0xA0 SHL SUB DUP6 SLOAD AND SWAP2 DUP3 ISZERO PUSH2 0xE8A JUMPI DUP7 ISZERO PUSH2 0xE57 JUMPI DUP4 PUSH0 SWAP7 SWAP6 SWAP7 MSTORE PUSH1 0x11 PUSH1 0x20 MSTORE PUSH1 0x40 PUSH0 KECCAK256 PUSH2 0x2680 DUP9 DUP3 SLOAD PUSH2 0x200B JUMP JUMPDEST DUP2 SSTORE PUSH1 0x1 DUP2 ADD PUSH2 0x2691 DUP10 DUP3 SLOAD PUSH2 0x200B JUMP JUMPDEST SWAP1 SSTORE SLOAD SWAP6 PUSH1 0xB DUP7 ADD SLOAD SWAP5 PUSH1 0x6 PUSH0 SWAP8 ADD SWAP8 JUMPDEST DUP9 SLOAD DUP9 LT ISZERO PUSH2 0x27F0 JUMPI PUSH2 0x26B4 DUP9 PUSH2 0x1E3D JUMP JUMPDEST SWAP1 SLOAD SWAP1 PUSH1 0x3 SHL SHR DUP3 PUSH0 MSTORE PUSH1 0xE PUSH1 0x20 MSTORE PUSH1 0x40 PUSH0 KECCAK256 DUP2 PUSH0 MSTORE PUSH1 0x20 MSTORE DUP8 PUSH1 0x40 PUSH0 KECCAK256 SWAP2 PUSH1 0x3 DUP4 ADD PUSH1 0xFF DUP2 SLOAD AND DUP1 ISZERO SWAP1 DUP2 DUP1 SWAP3 PUSH2 0x27DA JUMPI JUMPDEST ISZERO PUSH2 0x2716 JUMPI POP POP SWAP2 PUSH1 0xA PUSH2 0xCF1 DUP3 PUSH1 0x1 SWAP8 SWAP5 PUSH2 0x270D SWAP8 SWAP7 DUP10 PUSH1 0xFF NOT DUP3 SLOAD AND OR SWAP1 SSTORE PUSH2 0x247F JUMP JUMPDEST SWAP8 JUMPDEST ADD SWAP7 PUSH2 0x26A2 JUMP JUMPDEST SWAP2 POP SWAP3 POP DUP1 PUSH2 0x27C5 JUMPI JUMPDEST ISZERO PUSH2 0x273E JUMPI POP POP PUSH1 0x1 SWAP2 PUSH1 0x2 PUSH2 0x2738 SWAP3 ADD SLOAD SWAP1 PUSH2 0x2018 JUMP JUMPDEST SWAP8 PUSH2 0x270F JUMP JUMPDEST SWAP3 SWAP10 SWAP3 DUP10 SWAP1 DUP3 PUSH2 0x27AD JUMPI JUMPDEST POP POP PUSH2 0x2758 JUMPI POP PUSH1 0x1 SWAP1 PUSH2 0x270F JUMP JUMPDEST SWAP2 SWAP8 SWAP4 SWAP10 SWAP6 SWAP7 POP POP PUSH1 0x1 SWAP2 SWAP8 POP ADD SSTORE JUMPDEST PUSH1 0x1 SLOAD PUSH2 0x2781 SWAP1 DUP4 SWAP1 DUP6 SWAP1 PUSH1 0x1 PUSH1 0x1 PUSH1 0xA0 SHL SUB AND PUSH2 0x3295 JUMP JUMPDEST PUSH1 0x40 MLOAD SWAP2 DUP3 MSTORE PUSH1 0x20 DUP3 ADD MSTORE PUSH1 0x80 DUP2 PUSH1 0x1 PUSH1 0x40 PUSH0 MLOAD PUSH1 0x20 PUSH2 0x3421 PUSH0 CODECOPY PUSH0 MLOAD SWAP1 PUSH0 MSTORE SWAP5 ADD MSTORE TIMESTAMP PUSH1 0x60 DUP3 ADD MSTORE LOG4 JUMP JUMPDEST PUSH1 0xA SWAP3 POP SWAP1 PUSH2 0x27BB SWAP2 PUSH2 0x247F JUMP JUMPDEST DIV DUP10 LT DUP9 PUSH0 PUSH2 0x2749 JUMP JUMPDEST POP PUSH1 0xA PUSH2 0x27D2 DUP12 DUP4 PUSH2 0x247F JUMP JUMPDEST DIV DUP5 GT PUSH2 0x2720 JUMP JUMPDEST POP PUSH1 0xA PUSH2 0x27E7 DUP7 DUP7 PUSH2 0x247F JUMP JUMPDEST DIV DUP8 LT ISZERO PUSH2 0x26E7 JUMP JUMPDEST POP SWAP6 POP SWAP6 POP SWAP6 SWAP2 SWAP3 POP PUSH2 0x2768 JUMP JUMPDEST DUP1 PUSH0 MSTORE PUSH1 0x10 PUSH1 0x20 MSTORE PUSH1 0x40 PUSH0 KECCAK256 SWAP1 PUSH0 MSTORE PUSH1 0x11 PUSH1 0x20 MSTORE PUSH1 0xA PUSH2 0x282A PUSH1 0x40 PUSH0 KECCAK256 SWAP3 DUP3 PUSH1 0xB DUP3 ADD SLOAD SWAP2 ADD SLOAD PUSH2 0x247F JUMP JUMPDEST DIV SWAP1 SLOAD DUP2 DUP2 LT ISZERO PUSH2 0x2850 JUMPI PUSH2 0x283E SWAP2 PUSH2 0x2018 JUMP JUMPDEST SWAP1 DUP2 DUP2 GT ISZERO PUSH2 0x284B JUMPI POP SWAP1 JUMP JUMPDEST SWAP1 POP SWAP1 JUMP JUMPDEST POP POP POP PUSH0 SWAP1 JUMP JUMPDEST PUSH1 0x2 SLOAD PUSH1 0x1 PUSH1 0x1 PUSH1 0xA0 SHL SUB AND SWAP1 DUP2 ISZERO PUSH2 0x28DA JUMPI PUSH1 0x1 SLOAD PUSH1 0x80 SWAP3 PUSH2 0x2885 SWAP2 DUP4 SWAP2 SWAP1 PUSH1 0x1 PUSH1 0x1 PUSH1 0xA0 SHL SUB AND PUSH2 0x3295 JUMP JUMPDEST PUSH1 0x5 SLOAD PUSH0 MSTORE PUSH1 0x11 PUSH1 0x20 MSTORE PUSH1 0x40 PUSH0 KECCAK256 PUSH2 0x289E DUP3 DUP3 SLOAD PUSH2 0x200B JUMP JUMPDEST SWAP1 SSTORE PUSH1 0x1 DUP1 PUSH1 0xA0 SHL SUB PUSH1 0x2 SLOAD AND PUSH0 MLOAD PUSH1 0x20 PUSH2 0x3421 PUSH0 CODECOPY PUSH0 MLOAD SWAP1 PUSH0 MSTORE PUSH1 0x5 SLOAD SWAP4 DUP5 SWAP4 PUSH1 0x40 MLOAD SWAP1 DUP2 MSTORE PUSH0 PUSH1 0x20 DUP3 ADD MSTORE PUSH0 PUSH1 0x40 DUP3 ADD MSTORE TIMESTAMP PUSH1 0x60 DUP3 ADD MSTORE LOG4 JUMP JUMPDEST PUSH1 0x40 MLOAD PUSH3 0x461BCD PUSH1 0xE5 SHL DUP2 MSTORE PUSH1 0x20 PUSH1 0x4 DUP3 ADD MSTORE PUSH1 0x11 PUSH1 0x24 DUP3 ADD MSTORE PUSH17 0x199959481859191C9CC81B9BDD081CD95D PUSH1 0x7A SHL PUSH1 0x44 DUP3 ADD MSTORE PUSH1 0x64 SWAP1 REVERT JUMPDEST SWAP1 PUSH0 MSTORE PUSH1 0xC PUSH1 0x20 MSTORE PUSH1 0x40 PUSH0 KECCAK256 SLOAD SWAP1 DUP2 ISZERO DUP1 ISZERO PUSH2 0x297C JUMPI JUMPDEST PUSH2 0x2969 JUMPI PUSH8 0xDE0B6B3A7640000 DUP2 MUL SWAP1 DUP1 DUP3 DIV PUSH8 0xDE0B6B3A7640000 EQ SWAP1 ISZERO OR ISZERO PUSH2 0x1D49 JUMPI PUSH2 0x2964 SWAP2 PUSH2 0x295C SWAP2 PUSH2 0x2025 JUMP JUMPDEST PUSH1 0x9 SLOAD PUSH2 0x200B JUMP JUMPDEST PUSH1 0x9 SSTORE JUMP JUMPDEST DUP1 SWAP2 POP PUSH2 0x2973 JUMPI POP JUMP JUMPDEST PUSH2 0x210B SWAP1 PUSH2 0x2857 JUMP JUMPDEST POP DUP1 ISZERO PUSH2 0x292A JUMP JUMPDEST DUP1 ISZERO DUP1 ISZERO PUSH2 0x29A9 JUMPI JUMPDEST PUSH2 0x299E JUMPI SWAP2 PUSH1 0x1 SWAP2 PUSH2 0x210B SWAP4 PUSH2 0x263F JUMP JUMPDEST POP POP PUSH2 0x210B SWAP1 PUSH2 0x2857 JUMP JUMPDEST POP PUSH1 0x5 SLOAD DUP2 EQ PUSH2 0x298D JUMP JUMPDEST SWAP3 SWAP2 SWAP1 DUP4 ISZERO DUP1 ISZERO PUSH2 0x29DA JUMPI JUMPDEST PUSH2 0x29CD JUMPI PUSH2 0x210B SWAP4 PUSH2 0x263F JUMP JUMPDEST POP SWAP1 POP PUSH2 0x210B SWAP2 POP PUSH2 0x2857 JUMP JUMPDEST POP PUSH1 0x5 SLOAD DUP5 EQ PUSH2 0x29C0 JUMP JUMPDEST PUSH0 NOT DUP2 EQ PUSH2 0x1D49 JUMPI PUSH1 0x1 ADD SWAP1 JUMP JUMPDEST SWAP3 SWAP1 SWAP3 PUSH1 0x5 SLOAD DUP2 EQ DUP1 ISZERO PUSH2 0x2C7A JUMPI JUMPDEST PUSH2 0x2C6E JUMPI PUSH1 0x1 JUMPDEST DUP3 DUP2 LT PUSH2 0x2C3D JUMPI POP SWAP3 PUSH0 SWAP4 JUMPDEST DUP1 ISZERO ISZERO DUP1 PUSH2 0x2C31 JUMPI JUMPDEST DUP1 PUSH2 0x2C27 JUMPI JUMPDEST ISZERO PUSH2 0x2C1A JUMPI DUP1 PUSH0 MSTORE PUSH1 0x10 PUSH1 0x20 MSTORE PUSH1 0x40 PUSH0 KECCAK256 SWAP1 DUP4 PUSH1 0x6 DUP4 ADD SLOAD LT ISZERO PUSH2 0x2A57 JUMPI POP PUSH1 0x5 PUSH2 0x2A51 SWAP2 ADD SLOAD SWAP5 PUSH2 0x29E5 JUMP JUMPDEST SWAP4 PUSH2 0x2A15 JUMP JUMPDEST SWAP3 SWAP5 POP POP SWAP2 SWAP4 DUP2 PUSH0 MSTORE PUSH1 0x10 PUSH1 0x20 MSTORE PUSH1 0x40 PUSH0 KECCAK256 SWAP4 PUSH1 0x1 DUP1 PUSH1 0xA0 SHL SUB DUP6 SLOAD AND SWAP2 DUP3 ISZERO PUSH2 0xE8A JUMPI DUP7 ISZERO PUSH2 0xE57 JUMPI DUP4 PUSH0 SWAP7 SWAP6 SWAP7 MSTORE PUSH1 0x11 PUSH1 0x20 MSTORE PUSH1 0x40 PUSH0 KECCAK256 PUSH2 0x2A9B DUP9 DUP3 SLOAD PUSH2 0x200B JUMP JUMPDEST DUP2 SSTORE PUSH1 0x2 DUP2 ADD PUSH2 0x2AAC DUP10 DUP3 SLOAD PUSH2 0x200B JUMP JUMPDEST SWAP1 SSTORE SLOAD SWAP6 PUSH1 0xB DUP7 ADD SLOAD SWAP5 PUSH1 0x6 PUSH0 SWAP8 ADD SWAP8 JUMPDEST DUP9 SLOAD DUP9 LT ISZERO PUSH2 0x2C0C JUMPI PUSH2 0x2ACF DUP9 PUSH2 0x1E3D JUMP JUMPDEST SWAP1 SLOAD SWAP1 PUSH1 0x3 SHL SHR DUP3 PUSH0 MSTORE PUSH1 0xE PUSH1 0x20 MSTORE PUSH1 0x40 PUSH0 KECCAK256 DUP2 PUSH0 MSTORE PUSH1 0x20 MSTORE DUP8 PUSH1 0x40 PUSH0 KECCAK256 SWAP2 PUSH1 0x3 DUP4 ADD PUSH1 0xFF DUP2 SLOAD AND DUP1 ISZERO SWAP1 DUP2 DUP1 SWAP3 PUSH2 0x2BF6 JUMPI JUMPDEST ISZERO PUSH2 0x2B31 JUMPI POP POP SWAP2 PUSH1 0xA PUSH2 0xCF1 DUP3 PUSH1 0x1 SWAP8 SWAP5 PUSH2 0x2B28 SWAP8 SWAP7 DUP10 PUSH1 0xFF NOT DUP3 SLOAD AND OR SWAP1 SSTORE PUSH2 0x247F JUMP JUMPDEST SWAP8 JUMPDEST ADD SWAP7 PUSH2 0x2ABD JUMP JUMPDEST SWAP2 POP SWAP3 POP DUP1 PUSH2 0x2BE1 JUMPI JUMPDEST ISZERO PUSH2 0x2B59 JUMPI POP POP PUSH1 0x1 SWAP2 PUSH1 0x2 PUSH2 0x2B53 SWAP3 ADD SLOAD SWAP1 PUSH2 0x2018 JUMP JUMPDEST SWAP8 PUSH2 0x2B2A JUMP JUMPDEST SWAP3 SWAP10 SWAP3 DUP10 SWAP1 DUP3 PUSH2 0x2BC9 JUMPI JUMPDEST POP POP PUSH2 0x2B73 JUMPI POP PUSH1 0x1 SWAP1 PUSH2 0x2B2A JUMP JUMPDEST SWAP2 SWAP8 SWAP4 SWAP10 SWAP6 SWAP7 POP POP PUSH1 0x1 SWAP2 SWAP8 POP ADD SSTORE JUMPDEST PUSH1 0x1 SLOAD PUSH2 0x2B9C SWAP1 DUP4 SWAP1 DUP6 SWAP1 PUSH1 0x1 PUSH1 0x1 PUSH1 0xA0 SHL SUB AND PUSH2 0x3295 JUMP JUMPDEST PUSH1 0x40 MLOAD SWAP2 DUP3 MSTORE PUSH1 0x20 DUP3 ADD MSTORE PUSH1 0x2 DUP2 PUSH1 0x80 SWAP2 PUSH1 0x40 PUSH0 MLOAD PUSH1 0x20 PUSH2 0x3421 PUSH0 CODECOPY PUSH0 MLOAD SWAP1 PUSH0 MSTORE SWAP5 ADD MSTORE TIMESTAMP PUSH1 0x60 DUP3 ADD MSTORE LOG4 JUMP JUMPDEST PUSH1 0xA SWAP3 POP SWAP1 PUSH2 0x2BD7 SWAP2 PUSH2 0x247F JUMP JUMPDEST DIV DUP10 LT DUP9 PUSH0 PUSH2 0x2B64 JUMP JUMPDEST POP PUSH1 0xA PUSH2 0x2BEE DUP12 DUP4 PUSH2 0x247F JUMP JUMPDEST DIV DUP5 GT PUSH2 0x2B3B JUMP JUMPDEST POP PUSH1 0xA PUSH2 0x2C03 DUP7 DUP7 PUSH2 0x247F JUMP JUMPDEST DIV DUP8 LT ISZERO PUSH2 0x2B02 JUMP JUMPDEST POP SWAP6 POP SWAP6 POP SWAP6 SWAP2 SWAP3 POP PUSH2 0x2B83 JUMP JUMPDEST POP POP POP PUSH2 0x210B SWAP2 POP PUSH2 0x2857 JUMP JUMPDEST POP PUSH1 0xF DUP6 LT PUSH2 0x2A24 JUMP JUMPDEST POP PUSH1 0x5 SLOAD DUP2 EQ ISZERO PUSH2 0x2A1E JUMP JUMPDEST SWAP1 PUSH0 MSTORE PUSH1 0x10 PUSH1 0x20 MSTORE PUSH1 0x5 PUSH1 0x40 PUSH0 KECCAK256 ADD SLOAD SWAP1 DUP2 ISZERO DUP1 ISZERO PUSH2 0x2C63 JUMPI JUMPDEST PUSH2 0x2C1A JUMPI PUSH1 0x1 ADD PUSH2 0x2A09 JUMP JUMPDEST POP PUSH1 0x5 SLOAD DUP3 EQ PUSH2 0x2C57 JUMP JUMPDEST POP POP PUSH2 0x210B SWAP2 POP PUSH2 0x2857 JUMP JUMPDEST POP DUP1 ISZERO PUSH2 0x2A02 JUMP JUMPDEST SWAP1 SWAP2 SWAP5 SWAP4 SWAP3 SWAP5 PUSH1 0x80 MSTORE DUP1 ISZERO DUP1 ISZERO PUSH2 0x300C JUMPI JUMPDEST DUP1 ISZERO PUSH2 0x3004 JUMPI JUMPDEST PUSH2 0x2FF4 JUMPI PUSH2 0x2CAB DUP4 PUSH1 0x80 MLOAD PUSH2 0x2025 JUMP JUMPDEST PUSH2 0x180 MSTORE PUSH2 0x2CC7 PUSH2 0x2CBF DUP5 PUSH2 0x180 MLOAD PUSH2 0x247F JUMP JUMPDEST PUSH1 0x80 MLOAD PUSH2 0x2018 JUMP JUMPDEST PUSH1 0xE0 MSTORE SWAP4 PUSH0 SWAP3 PUSH0 PUSH1 0xA0 MSTORE PUSH1 0x1 SWAP2 PUSH0 PUSH2 0x100 MSTORE JUMPDEST PUSH1 0x1E PUSH2 0x100 MLOAD LT PUSH2 0x2D22 JUMPI JUMPDEST POP POP POP POP PUSH2 0x2CF8 SWAP2 SWAP3 POP PUSH1 0x80 MLOAD PUSH2 0x2018 JUMP JUMPDEST DUP1 PUSH2 0x2D13 JUMPI JUMPDEST POP PUSH1 0xE0 MLOAD PUSH2 0x2D08 JUMPI JUMP JUMPDEST PUSH2 0x210B PUSH1 0xE0 MLOAD PUSH2 0x2857 JUMP JUMPDEST PUSH2 0x2D1C SWAP1 PUSH2 0x2857 JUMP JUMPDEST PUSH0 PUSH2 0x2CFE JUMP JUMPDEST SWAP1 SWAP2 SWAP3 SWAP5 SWAP4 DUP7 ISZERO DUP1 ISZERO PUSH2 0x2FE9 JUMPI JUMPDEST PUSH2 0x2FCE JUMPI PUSH0 DUP8 DUP2 MSTORE PUSH1 0x10 PUSH1 0x20 MSTORE PUSH1 0x40 SWAP1 KECCAK256 PUSH2 0x120 DUP2 SWAP1 MSTORE PUSH1 0x6 ADD SLOAD DUP3 GT PUSH2 0x2FAF JUMPI PUSH2 0x2D5E DUP5 PUSH2 0x180 MLOAD PUSH2 0x247F JUMP JUMPDEST PUSH0 DUP9 DUP2 MSTORE PUSH1 0x10 PUSH1 0x20 MSTORE PUSH1 0x40 SWAP1 KECCAK256 PUSH2 0x1A0 DUP2 SWAP1 MSTORE SLOAD PUSH1 0x1 PUSH1 0x1 PUSH1 0xA0 SHL SUB AND SWAP2 DUP3 ISZERO PUSH2 0xE8A JUMPI DUP2 ISZERO PUSH2 0xE57 JUMPI DUP9 PUSH0 MSTORE PUSH1 0x11 PUSH1 0x20 MSTORE PUSH1 0x40 PUSH0 KECCAK256 PUSH2 0x2D9F DUP4 DUP3 SLOAD PUSH2 0x200B JUMP JUMPDEST DUP2 SSTORE PUSH1 0x3 DUP2 ADD PUSH2 0x2DB0 DUP5 DUP3 SLOAD PUSH2 0x200B JUMP JUMPDEST SWAP1 SSTORE SLOAD PUSH2 0x140 MSTORE PUSH1 0xB PUSH2 0x1A0 MLOAD ADD SLOAD PUSH2 0x160 MSTORE PUSH0 JUMPDEST PUSH1 0x6 PUSH2 0x1A0 MLOAD ADD SLOAD DUP2 LT ISZERO PUSH2 0x2FA1 JUMPI PUSH2 0x2DDD DUP2 PUSH2 0x1E3D JUMP JUMPDEST SWAP1 SLOAD SWAP1 PUSH1 0x3 SHL SHR SWAP1 DUP11 PUSH0 MSTORE PUSH1 0xE PUSH1 0x20 MSTORE PUSH1 0x40 PUSH0 KECCAK256 DUP3 PUSH0 MSTORE PUSH1 0x20 MSTORE PUSH1 0x40 PUSH0 KECCAK256 PUSH1 0xC0 MSTORE PUSH1 0xFF PUSH1 0x3 PUSH1 0xC0 MLOAD ADD SLOAD AND SWAP2 DUP3 ISZERO DUP1 DUP1 SWAP2 PUSH2 0x2F85 JUMPI JUMPDEST ISZERO PUSH2 0x2E69 JUMPI POP PUSH1 0x1 SWAP3 POP PUSH1 0xA PUSH2 0x2E44 PUSH2 0x2E5E SWAP3 DUP6 PUSH1 0xFF NOT PUSH1 0x3 PUSH1 0xC0 MLOAD ADD SLOAD AND OR PUSH1 0x3 PUSH1 0xC0 MLOAD ADD SSTORE PUSH2 0x160 MLOAD SWAP1 PUSH2 0x247F JUMP JUMPDEST DIV DUP1 PUSH1 0x2 PUSH1 0xC0 MLOAD ADD SSTORE PUSH2 0x160 MLOAD PUSH1 0xC0 MLOAD SSTORE PUSH2 0x140 MLOAD PUSH2 0x2018 JUMP JUMPDEST PUSH2 0x140 MSTORE JUMPDEST ADD PUSH2 0x2DC5 JUMP JUMPDEST SWAP2 SWAP3 DUP1 PUSH2 0x2F6A JUMPI JUMPDEST ISZERO PUSH2 0x2E97 JUMPI POP POP PUSH1 0x1 SWAP1 PUSH2 0x2E8E PUSH1 0x2 PUSH1 0xC0 MLOAD ADD SLOAD PUSH2 0x140 MLOAD PUSH2 0x2018 JUMP JUMPDEST PUSH2 0x140 MSTORE PUSH2 0x2E63 JUMP JUMPDEST DUP2 PUSH2 0x2F4D JUMPI JUMPDEST POP PUSH2 0x2EAA JUMPI PUSH1 0x1 SWAP1 PUSH2 0x2E63 JUMP JUMPDEST POP PUSH2 0x140 SWAP9 SWAP3 SWAP4 SWAP9 SWAP8 SWAP6 SWAP7 SWAP8 MLOAD PUSH1 0x1 PUSH1 0xC0 MLOAD ADD SSTORE JUMPDEST PUSH1 0x1 SLOAD PUSH2 0x2ED8 SWAP1 DUP4 SWAP1 DUP7 SWAP1 PUSH1 0x1 PUSH1 0x1 PUSH1 0xA0 SHL SUB AND PUSH2 0x3295 JUMP JUMPDEST PUSH1 0x40 MLOAD DUP3 DUP2 MSTORE PUSH1 0x20 DUP2 ADD DUP11 SWAP1 MSTORE SWAP3 PUSH1 0x3 SWAP1 PUSH2 0x2F1D SWAP6 PUSH0 MLOAD PUSH1 0x20 PUSH2 0x3421 PUSH0 CODECOPY PUSH0 MLOAD SWAP1 PUSH0 MSTORE PUSH1 0x80 DUP8 DUP12 SWAP6 PUSH1 0x40 PUSH2 0x2F14 SWAP11 ADD MSTORE TIMESTAMP PUSH1 0x60 DUP3 ADD MSTORE LOG4 PUSH2 0x200B JUMP JUMPDEST SWAP4 PUSH1 0xA0 MLOAD PUSH2 0x200B JUMP JUMPDEST PUSH1 0xA0 MSTORE PUSH1 0x1 SWAP1 JUMPDEST DUP1 PUSH1 0xA0 MLOAD LT ISZERO PUSH2 0x2F47 JUMPI PUSH1 0x5 PUSH2 0x120 MLOAD ADD SLOAD SWAP6 PUSH1 0x1 PUSH2 0x100 MLOAD ADD PUSH2 0x100 MSTORE PUSH2 0x2CDA JUMP JUMPDEST DUP1 PUSH2 0x2CE6 JUMP JUMPDEST PUSH2 0x160 MLOAD PUSH1 0xA SWAP3 POP PUSH2 0x2F5E SWAP2 PUSH2 0x247F JUMP JUMPDEST DIV PUSH2 0x140 MLOAD LT PUSH0 PUSH2 0x2E9D JUMP JUMPDEST POP PUSH1 0xA PUSH2 0x2F7A PUSH2 0x160 MLOAD DUP4 PUSH2 0x247F JUMP JUMPDEST DIV PUSH2 0x140 MLOAD GT PUSH2 0x2E71 JUMP JUMPDEST POP PUSH1 0xA PUSH2 0x2F95 PUSH2 0x160 MLOAD DUP5 PUSH2 0x247F JUMP JUMPDEST DIV PUSH2 0x140 MLOAD LT ISZERO PUSH2 0x2E13 JUMP JUMPDEST POP SWAP8 SWAP2 SWAP3 SWAP8 SWAP7 SWAP5 SWAP6 SWAP7 PUSH2 0x2EBF JUMP JUMPDEST SWAP4 SWAP5 SWAP3 SWAP2 DUP1 SWAP2 SWAP7 POP DUP3 LT ISZERO PUSH2 0x2F24 JUMPI SWAP1 PUSH2 0x2FC8 SWAP1 PUSH2 0x29E5 JUMP JUMPDEST SWAP1 PUSH2 0x2F24 JUMP JUMPDEST SWAP4 SWAP6 POP POP POP POP PUSH2 0x2FE1 SWAP2 POP PUSH1 0x80 MLOAD PUSH2 0x2018 JUMP JUMPDEST DUP1 PUSH2 0x2973 JUMPI POP JUMP JUMPDEST POP PUSH1 0x5 SLOAD DUP8 EQ PUSH2 0x2D30 JUMP JUMPDEST POP POP POP SWAP1 POP PUSH2 0x210B PUSH1 0x80 MLOAD PUSH2 0x2857 JUMP JUMPDEST POP DUP3 ISZERO PUSH2 0x2C9B JUMP JUMPDEST POP PUSH1 0x5 SLOAD DUP2 EQ PUSH2 0x2C94 JUMP JUMPDEST SWAP1 DUP2 PUSH0 MSTORE PUSH1 0x45 PUSH1 0x20 MSTORE PUSH1 0xFF PUSH1 0x4 PUSH1 0x40 PUSH0 KECCAK256 ADD SLOAD AND ISZERO PUSH2 0x3034 JUMPI POP POP JUMP JUMPDEST PUSH2 0x3041 PUSH1 0x40 SLOAD DUP3 EQ PUSH2 0x332E JUMP JUMPDEST DUP1 PUSH0 MSTORE PUSH1 0x43 PUSH1 0x20 MSTORE PUSH2 0x305D PUSH1 0xFF PUSH1 0x8 PUSH1 0x40 PUSH0 KECCAK256 ADD SLOAD AND ISZERO PUSH2 0x336A JUMP JUMPDEST DUP2 PUSH0 MSTORE PUSH1 0x10 PUSH1 0x20 MSTORE PUSH1 0x40 PUSH0 KECCAK256 SWAP2 PUSH1 0x12 DUP4 ADD SLOAD DUP1 ISZERO PUSH2 0x313F JUMPI PUSH1 0x11 DUP5 ADD SLOAD SWAP4 PUSH3 0x83D600 DUP6 ADD DUP1 SWAP6 GT PUSH2 0x1D49 JUMPI PUSH32 0x42EE5EF523A95C6FB3FFDD2E9B34955B83EA8C2B11FF268C87AE6EA25556EAAC SWAP5 PUSH2 0x30D7 SWAP3 GT ISZERO SWAP1 PUSH1 0x5 PUSH1 0x14 PUSH1 0xA PUSH1 0x6 DUP5 ADD SLOAD LT ISZERO SWAP3 ADD SLOAD LT ISZERO SWAP1 DUP3 PUSH2 0x3137 JUMPI JUMPDEST POP DUP2 PUSH2 0x312F JUMPI JUMPDEST POP PUSH2 0x33A5 JUMP JUMPDEST DUP1 PUSH0 MSTORE PUSH1 0x45 PUSH1 0x20 MSTORE PUSH1 0x40 PUSH0 KECCAK256 PUSH1 0x1 PUSH1 0x4 DUP3 ADD SWAP2 DUP5 DUP3 DUP5 SLOAD SWAP3 PUSH2 0x30FC PUSH1 0xFF DUP6 AND ISZERO PUSH2 0x33E0 JUMP JUMPDEST TIMESTAMP DUP2 SSTORE ADD SSTORE PUSH1 0xFF NOT AND OR SWAP1 SSTORE PUSH2 0x312A PUSH1 0x40 MLOAD SWAP3 DUP4 SWAP3 TIMESTAMP SWAP2 DUP5 PUSH1 0x40 SWAP2 SWAP5 SWAP4 SWAP3 PUSH1 0x60 DUP3 ADD SWAP6 DUP3 MSTORE PUSH1 0x20 DUP3 ADD MSTORE ADD MSTORE JUMP JUMPDEST SUB SWAP1 LOG1 JUMP JUMPDEST SWAP1 POP PUSH0 PUSH2 0x30D1 JUMP JUMPDEST SWAP2 POP PUSH0 PUSH2 0x30CA JUMP JUMPDEST PUSH1 0x40 MLOAD PUSH3 0x461BCD PUSH1 0xE5 SHL DUP2 MSTORE PUSH1 0x20 PUSH1 0x4 DUP3 ADD MSTORE PUSH1 0x11 PUSH1 0x24 DUP3 ADD MSTORE PUSH17 0x55736572206E6F74206C6576656C20313 PUSH1 0x7C SHL PUSH1 0x44 DUP3 ADD MSTORE PUSH1 0x64 SWAP1 REVERT JUMPDEST SWAP1 DUP2 PUSH0 MSTORE PUSH1 0x4C PUSH1 0x20 MSTORE PUSH1 0xFF PUSH1 0x4 PUSH1 0x40 PUSH0 KECCAK256 ADD SLOAD AND ISZERO PUSH2 0x3195 JUMPI POP POP JUMP JUMPDEST PUSH2 0x31A2 PUSH1 0x47 SLOAD DUP3 EQ PUSH2 0x332E JUMP JUMPDEST DUP1 PUSH0 MSTORE PUSH1 0x4A PUSH1 0x20 MSTORE PUSH2 0x31BE PUSH1 0xFF PUSH1 0x8 PUSH1 0x40 PUSH0 KECCAK256 ADD SLOAD AND ISZERO PUSH2 0x336A JUMP JUMPDEST DUP2 PUSH0 MSTORE PUSH1 0x10 PUSH1 0x20 MSTORE PUSH1 0x40 PUSH0 KECCAK256 SWAP2 PUSH1 0x13 DUP4 ADD SLOAD DUP1 ISZERO PUSH2 0x325C JUMPI PUSH1 0x11 DUP5 ADD SLOAD SWAP4 PUSH4 0x2514300 DUP6 ADD DUP1 SWAP6 GT PUSH2 0x1D49 JUMPI PUSH32 0x42EE5EF523A95C6FB3FFDD2E9B34955B83EA8C2B11FF268C87AE6EA25556EAAC SWAP5 PUSH2 0x3237 SWAP3 GT ISZERO SWAP1 PUSH1 0x2 PUSH1 0x15 PUSH1 0xF PUSH1 0x6 DUP5 ADD SLOAD LT ISZERO SWAP3 ADD SLOAD LT ISZERO SWAP1 DUP3 PUSH2 0x3137 JUMPI POP DUP2 PUSH2 0x312F JUMPI POP PUSH2 0x33A5 JUMP JUMPDEST DUP1 PUSH0 MSTORE PUSH1 0x4C PUSH1 0x20 MSTORE PUSH1 0x40 PUSH0 KECCAK256 PUSH1 0x1 PUSH1 0x4 DUP3 ADD SWAP2 DUP5 DUP3 DUP5 SLOAD SWAP3 PUSH2 0x30FC PUSH1 0xFF DUP6 AND ISZERO PUSH2 0x33E0 JUMP JUMPDEST PUSH1 0x40 MLOAD PUSH3 0x461BCD PUSH1 0xE5 SHL DUP2 MSTORE PUSH1 0x20 PUSH1 0x4 DUP3 ADD MSTORE PUSH1 0x11 PUSH1 0x24 DUP3 ADD MSTORE PUSH17 0x55736572206E6F74206C6576656C203135 PUSH1 0x78 SHL PUSH1 0x44 DUP3 ADD MSTORE PUSH1 0x64 SWAP1 REVERT JUMPDEST PUSH1 0x40 MLOAD PUSH4 0xA9059CBB PUSH1 0xE0 SHL PUSH1 0x20 DUP3 DUP2 ADD SWAP2 DUP3 MSTORE PUSH1 0x1 PUSH1 0x1 PUSH1 0xA0 SHL SUB SWAP1 SWAP5 AND PUSH1 0x24 DUP4 ADD MSTORE PUSH1 0x44 DUP1 DUP4 ADD SWAP6 SWAP1 SWAP6 MSTORE SWAP4 DUP2 MSTORE SWAP1 SWAP3 PUSH0 SWAP2 PUSH2 0x32D3 PUSH1 0x64 DUP3 PUSH2 0x2431 JUMP JUMPDEST MLOAD SWAP1 DUP3 DUP6 GAS CALL ISZERO PUSH2 0x3323 JUMPI PUSH0 MLOAD RETURNDATASIZE PUSH2 0x331A JUMPI POP PUSH1 0x1 PUSH1 0x1 PUSH1 0xA0 SHL SUB DUP2 AND EXTCODESIZE ISZERO JUMPDEST PUSH2 0x32FA JUMPI POP JUMP JUMPDEST PUSH4 0x5274AFE7 PUSH1 0xE0 SHL PUSH0 SWAP1 DUP2 MSTORE PUSH1 0x1 PUSH1 0x1 PUSH1 0xA0 SHL SUB SWAP2 SWAP1 SWAP2 AND PUSH1 0x4 MSTORE PUSH1 0x24 SWAP1 REVERT JUMPDEST PUSH1 0x1 EQ ISZERO PUSH2 0x32F3 JUMP JUMPDEST PUSH1 0x40 MLOAD RETURNDATASIZE PUSH0 DUP3 RETURNDATACOPY RETURNDATASIZE SWAP1 REVERT JUMPDEST ISZERO PUSH2 0x3335 JUMPI JUMP JUMPDEST PUSH1 0x40 MLOAD PUSH3 0x461BCD PUSH1 0xE5 SHL DUP2 MSTORE PUSH1 0x20 PUSH1 0x4 DUP3 ADD MSTORE PUSH1 0xD PUSH1 0x24 DUP3 ADD MSTORE PUSH13 0x125B9D985B1A59081C9BDD5B99 PUSH1 0x9A SHL PUSH1 0x44 DUP3 ADD MSTORE PUSH1 0x64 SWAP1 REVERT JUMPDEST ISZERO PUSH2 0x3371 JUMPI JUMP JUMPDEST PUSH1 0x40 MLOAD PUSH3 0x461BCD PUSH1 0xE5 SHL DUP2 MSTORE PUSH1 0x20 PUSH1 0x4 DUP3 ADD MSTORE PUSH1 0xC PUSH1 0x24 DUP3 ADD MSTORE PUSH12 0x149BDD5B990818DB1BDCD959 PUSH1 0xA2 SHL PUSH1 0x44 DUP3 ADD MSTORE PUSH1 0x64 SWAP1 REVERT JUMPDEST ISZERO PUSH2 0x33AC JUMPI JUMP JUMPDEST PUSH1 0x40 MLOAD PUSH3 0x461BCD PUSH1 0xE5 SHL DUP2 MSTORE PUSH1 0x20 PUSH1 0x4 DUP3 ADD MSTORE PUSH1 0xC PUSH1 0x24 DUP3 ADD MSTORE PUSH12 0x4E6F7420656C696769626C65 PUSH1 0xA0 SHL PUSH1 0x44 DUP3 ADD MSTORE PUSH1 0x64 SWAP1 REVERT JUMPDEST ISZERO PUSH2 0x33E7 JUMPI JUMP JUMPDEST PUSH1 0x40 MLOAD PUSH3 0x461BCD PUSH1 0xE5 SHL DUP2 MSTORE PUSH1 0x20 PUSH1 0x4 DUP3 ADD MSTORE PUSH1 0x11 PUSH1 0x24 DUP3 ADD MSTORE PUSH17 0x185B1C9958591E48145D585B1A599A5959 PUSH1 0x7A SHL PUSH1 0x44 DUP3 ADD MSTORE PUSH1 0x64 SWAP1 REVERT INVALID 0x4D PUSH4 0x4C31300B SWAP8 0xDA 0xD9 SWAP12 GASPRICE 0xF7 SWAP10 OR DUP3 ADDRESS AND RETURNDATASIZE DUP9 0xAD ADDRESS PUSH4 0x70D063BE SWAP13 0xD9 SWAP3 0xD0 0xBE PUSH32 0xA2646970667358221220CAB83277C44AD003532678AE187F93A5EB1F4B4E4CF6 0xBF DUP8 PREVRANDAO MOD 0xDA 0x22 0xC 0xC7 PUSH21 0xA264736F6C634300081E0033D7B6990105719101DA 0xBE 0xB7 PUSH18 0x44F2A3385C8033ACD3AF97E9423A695E81AD 0x1E 0xB5 0xC6 0x24 0xB6 PUSH13 0xC0138B8FABC209247F72D758E1 0xCF CALLER NUMBER PUSH22 0x6D543BADBF24212BED8C15D833147D7DC355BA459FC7 DUP9 0xF6 PUSH10 0xE58CFAF9DC25DDCD0702 0xE8 PUSH30 0x69C7B5124289000000000000000000000000000000000000000000000000 "
		},
		"gasEstimates": {
			"creation": {
				"codeDepositCost": "2686000",
				"executionCost": "infinite",
				"totalCost": "infinite"
			},
			"external": {
				"ACC_PRECISION()": "477",
				"MONTHLY_ROYALTY_DIRECT()": "1137",
				"MONTHLY_ROYALTY_LEVEL()": "332",
				"MONTHLY_ROYALTY_TIME()": "939",
				"MONTH_DURATION()": "345",
				"PERCENTS_DIVIDER()": "183",
				"ROI_2X_TIME()": "565",
				"ROI_CAP_DIVIDER()": "684",
				"ROI_CAP_MULTIPLIER()": "508",
				"TIME_STEP()": "455",
				"TOP_ROYALTY_DIRECT()": "433",
				"TOP_ROYALTY_LEVEL()": "376",
				"TOP_ROYALTY_TIME()": "719",
				"WEEK_DURATION()": "741",
				"WeeklyCapping()": "1203",
				"WeeklyTotalReward()": "2514",
				"addressToId(address)": "3311",
				"canClaimMonthlyReward(uint256,uint256)": "13984",
				"claimCommunity(uint256,uint256)": "infinite",
				"claimMonthlyCRoyaltyReward(uint256,uint256)": "infinite",
				"claimTopRoyaltyReward(uint256,uint256)": "infinite",
				"claimWeeklyContestReward(uint256,uint256)": "infinite",
				"communityAccPerPackage(uint256)": "2778",
				"communityAccPerUser()": "2866",
				"communityDebt(uint256,uint256)": "3103",
				"creatorWallet()": "2912",
				"currentMonthlyRound()": "3152",
				"currentMonthlyStartTime()": "3262",
				"currentWeeklyRound()": "3174",
				"currentWeeklyStartTime()": "3389",
				"defaultRefId()": "3328",
				"glbBoosterPackages(uint256)": "6729",
				"minLevelForGlbBooster(uint256)": "3257",
				"minLevelForPool(uint256)": "2421",
				"minPoolForGlbBooster(uint256)": "2993",
				"monthlyCapping()": "1027",
				"monthlyTotalReward()": "3020",
				"packageQualifiedUsers(uint256)": "2378",
				"packages(uint256)": "7466",
				"pendingCommunity(uint256,uint256)": "infinite",
				"poolPackages(uint256)": "7389",
				"register(uint256)": "infinite",
				"registeredUserIds(uint256)": "6949",
				"systemMaintance()": "3308",
				"teamDevelopment()": "3396",
				"topRoyaltyReward()": "2800",
				"topRoyaltyRound()": "2734",
				"topRoyaltyStartTime()": "2998",
				"totalUsers()": "3086",
				"upgrade(uint256)": "infinite",
				"usdt()": "2516"
			}
		},
		"methodIdentifiers": {
			"ACC_PRECISION()": "32fcd966",
			"MONTHLY_ROYALTY_DIRECT()": "d2f0490d",
			"MONTHLY_ROYALTY_LEVEL()": "23fd338e",
			"MONTHLY_ROYALTY_TIME()": "a5e52b99",
			"MONTH_DURATION()": "2a891534",
			"PERCENTS_DIVIDER()": "01c234a8",
			"ROI_2X_TIME()": "3a5084b3",
			"ROI_CAP_DIVIDER()": "58c7d352",
			"ROI_CAP_MULTIPLIER()": "375b43b4",
			"TIME_STEP()": "32bc298c",
			"TOP_ROYALTY_DIRECT()": "31bb6a30",
			"TOP_ROYALTY_LEVEL()": "2ae0ee0d",
			"TOP_ROYALTY_TIME()": "705fee2d",
			"WEEK_DURATION()": "76f5f700",
			"WeeklyCapping()": "ebe0ff15",
			"WeeklyTotalReward()": "3080b5bc",
			"addressToId(address)": "cb0e0d7d",
			"canClaimMonthlyReward(uint256,uint256)": "7d846e38",
			"claimCommunity(uint256,uint256)": "1c4ecf68",
			"claimMonthlyCRoyaltyReward(uint256,uint256)": "39f2e64a",
			"claimTopRoyaltyReward(uint256,uint256)": "97358004",
			"claimWeeklyContestReward(uint256,uint256)": "16298056",
			"communityAccPerPackage(uint256)": "45cb537c",
			"communityAccPerUser()": "78f6ad6d",
			"communityDebt(uint256,uint256)": "89043ece",
			"creatorWallet()": "7cdc65f2",
			"currentMonthlyRound()": "c9ed0708",
			"currentMonthlyStartTime()": "e898fc38",
			"currentWeeklyRound()": "ca8e9121",
			"currentWeeklyStartTime()": "fddc806f",
			"defaultRefId()": "ec597e6f",
			"glbBoosterPackages(uint256)": "2350268f",
			"minLevelForGlbBooster(uint256)": "d0a2fd79",
			"minLevelForPool(uint256)": "2132d204",
			"minPoolForGlbBooster(uint256)": "956a3228",
			"monthlyCapping()": "c8df2908",
			"monthlyTotalReward()": "a59d17d1",
			"packageQualifiedUsers(uint256)": "0676d0d6",
			"packages(uint256)": "c216212a",
			"pendingCommunity(uint256,uint256)": "54c5bd90",
			"poolPackages(uint256)": "ae4708dc",
			"register(uint256)": "f207564e",
			"registeredUserIds(uint256)": "39ab3603",
			"systemMaintance()": "e9e34a16",
			"teamDevelopment()": "f5d74d93",
			"topRoyaltyReward()": "5b62d1d5",
			"topRoyaltyRound()": "4b8cbf9b",
			"topRoyaltyStartTime()": "9b40ab97",
			"totalUsers()": "bff1f9e1",
			"upgrade(uint256)": "45977d03",
			"usdt()": "2f48ab7d"
		}
	},
	"abi": [
		{
			"inputs": [
				{
					"internalType": "address",
					"name": "_usdt",
					"type": "address"
				},
				{
					"internalType": "address",
					"name": "_creatorWallet",
					"type": "address"
				}
			],
			"stateMutability": "nonpayable",
			"type": "constructor"
		},
		{
			"inputs": [
				{
					"internalType": "address",
					"name": "token",
					"type": "address"
				}
			],
			"name": "SafeERC20FailedOperation",
			"type": "error"
		},
		{
			"anonymous": false,
			"inputs": [
				{
					"indexed": false,
					"internalType": "uint256",
					"name": "amount",
					"type": "uint256"
				},
				{
					"indexed": false,
					"internalType": "uint256",
					"name": "usersCount",
					"type": "uint256"
				},
				{
					"indexed": false,
					"internalType": "uint256",
					"name": "perUser",
					"type": "uint256"
				}
			],
			"name": "CommunityBonusDistributed",
			"type": "event"
		},
		{
			"anonymous": false,
			"inputs": [
				{
					"indexed": true,
					"internalType": "address",
					"name": "to",
					"type": "address"
				},
				{
					"indexed": true,
					"internalType": "address",
					"name": "from",
					"type": "address"
				},
				{
					"indexed": false,
					"internalType": "uint256",
					"name": "amount",
					"type": "uint256"
				},
				{
					"indexed": false,
					"internalType": "uint256",
					"name": "packageLevel",
					"type": "uint256"
				},
				{
					"indexed": false,
					"internalType": "uint256",
					"name": "incomeType",
					"type": "uint256"
				}
			],
			"name": "IncomeDistributed",
			"type": "event"
		},
		{
			"anonymous": false,
			"inputs": [
				{
					"indexed": true,
					"internalType": "address",
					"name": "to",
					"type": "address"
				},
				{
					"indexed": true,
					"internalType": "uint256",
					"name": "toId",
					"type": "uint256"
				},
				{
					"indexed": true,
					"internalType": "uint256",
					"name": "fromId",
					"type": "uint256"
				},
				{
					"indexed": false,
					"internalType": "uint256",
					"name": "amount",
					"type": "uint256"
				},
				{
					"indexed": false,
					"internalType": "uint256",
					"name": "packageLevel",
					"type": "uint256"
				},
				{
					"indexed": false,
					"internalType": "enum Storage.IncomeType",
					"name": "incomeType",
					"type": "uint8"
				},
				{
					"indexed": false,
					"internalType": "uint256",
					"name": "timestamp",
					"type": "uint256"
				}
			],
			"name": "IncomeDistribution",
			"type": "event"
		},
		{
			"anonymous": false,
			"inputs": [
				{
					"indexed": true,
					"internalType": "address",
					"name": "winner",
					"type": "address"
				},
				{
					"indexed": true,
					"internalType": "uint256",
					"name": "fromUserId",
					"type": "uint256"
				},
				{
					"indexed": false,
					"internalType": "uint256",
					"name": "amount",
					"type": "uint256"
				},
				{
					"indexed": false,
					"internalType": "uint256",
					"name": "timestamp",
					"type": "uint256"
				}
			],
			"name": "LotteryReward",
			"type": "event"
		},
		{
			"anonymous": false,
			"inputs": [
				{
					"indexed": false,
					"internalType": "uint256",
					"name": "roundId",
					"type": "uint256"
				},
				{
					"indexed": false,
					"internalType": "uint256",
					"name": "totalUsers",
					"type": "uint256"
				},
				{
					"indexed": false,
					"internalType": "uint256",
					"name": "perUserReward",
					"type": "uint256"
				},
				{
					"indexed": false,
					"internalType": "uint256",
					"name": "totalReward",
					"type": "uint256"
				},
				{
					"indexed": false,
					"internalType": "uint256",
					"name": "totalDistributed",
					"type": "uint256"
				},
				{
					"indexed": false,
					"internalType": "uint256",
					"name": "leftoverReward",
					"type": "uint256"
				},
				{
					"indexed": false,
					"internalType": "uint256",
					"name": "endTime",
					"type": "uint256"
				}
			],
			"name": "MonthlyClosed",
			"type": "event"
		},
		{
			"anonymous": false,
			"inputs": [
				{
					"indexed": false,
					"internalType": "uint256",
					"name": "roundId",
					"type": "uint256"
				},
				{
					"indexed": false,
					"internalType": "uint256",
					"name": "userId",
					"type": "uint256"
				},
				{
					"indexed": false,
					"internalType": "uint256",
					"name": "perUserReward",
					"type": "uint256"
				},
				{
					"indexed": false,
					"internalType": "uint256",
					"name": "claimTime",
					"type": "uint256"
				}
			],
			"name": "MonthlyRewardClaim",
			"type": "event"
		},
		{
			"anonymous": false,
			"inputs": [
				{
					"indexed": false,
					"internalType": "uint256",
					"name": "roundId",
					"type": "uint256"
				},
				{
					"indexed": false,
					"internalType": "uint256",
					"name": "userId",
					"type": "uint256"
				},
				{
					"indexed": false,
					"internalType": "uint256",
					"name": "joinTime",
					"type": "uint256"
				}
			],
			"name": "MonthlyRoyaltyQualified",
			"type": "event"
		},
		{
			"anonymous": false,
			"inputs": [
				{
					"indexed": true,
					"internalType": "address",
					"name": "user",
					"type": "address"
				},
				{
					"indexed": true,
					"internalType": "address",
					"name": "sponsor",
					"type": "address"
				},
				{
					"indexed": true,
					"internalType": "uint256",
					"name": "userId",
					"type": "uint256"
				},
				{
					"indexed": false,
					"internalType": "uint256",
					"name": "uplineId",
					"type": "uint256"
				}
			],
			"name": "Registration",
			"type": "event"
		},
		{
			"anonymous": false,
			"inputs": [
				{
					"indexed": true,
					"internalType": "address",
					"name": "to",
					"type": "address"
				},
				{
					"indexed": false,
					"internalType": "uint256",
					"name": "amount",
					"type": "uint256"
				},
				{
					"indexed": false,
					"internalType": "string",
					"name": "level",
					"type": "string"
				}
			],
			"name": "RewardSent",
			"type": "event"
		},
		{
			"anonymous": false,
			"inputs": [
				{
					"indexed": false,
					"internalType": "uint256",
					"name": "roundId",
					"type": "uint256"
				},
				{
					"indexed": false,
					"internalType": "uint256",
					"name": "totalUsers",
					"type": "uint256"
				},
				{
					"indexed": false,
					"internalType": "uint256",
					"name": "perUserReward",
					"type": "uint256"
				},
				{
					"indexed": false,
					"internalType": "uint256",
					"name": "totalReward",
					"type": "uint256"
				},
				{
					"indexed": false,
					"internalType": "uint256",
					"name": "totalDistributed",
					"type": "uint256"
				},
				{
					"indexed": false,
					"internalType": "uint256",
					"name": "leftoverReward",
					"type": "uint256"
				},
				{
					"indexed": false,
					"internalType": "uint256",
					"name": "endTime",
					"type": "uint256"
				}
			],
			"name": "TopRoyaltyClosed",
			"type": "event"
		},
		{
			"anonymous": false,
			"inputs": [
				{
					"indexed": false,
					"internalType": "uint256",
					"name": "roundId",
					"type": "uint256"
				},
				{
					"indexed": false,
					"internalType": "uint256",
					"name": "userId",
					"type": "uint256"
				},
				{
					"indexed": false,
					"internalType": "uint256",
					"name": "joinTime",
					"type": "uint256"
				}
			],
			"name": "TopRoyaltyQualified",
			"type": "event"
		},
		{
			"anonymous": false,
			"inputs": [
				{
					"indexed": false,
					"internalType": "uint256",
					"name": "roundId",
					"type": "uint256"
				},
				{
					"indexed": false,
					"internalType": "uint256",
					"name": "userId",
					"type": "uint256"
				},
				{
					"indexed": false,
					"internalType": "uint256",
					"name": "perUserReward",
					"type": "uint256"
				},
				{
					"indexed": false,
					"internalType": "uint256",
					"name": "claimTime",
					"type": "uint256"
				}
			],
			"name": "TopRoyaltyRewardClaim",
			"type": "event"
		},
		{
			"anonymous": false,
			"inputs": [
				{
					"indexed": true,
					"internalType": "address",
					"name": "user",
					"type": "address"
				},
				{
					"indexed": true,
					"internalType": "uint256",
					"name": "userId",
					"type": "uint256"
				},
				{
					"indexed": false,
					"internalType": "uint256",
					"name": "packageLevel",
					"type": "uint256"
				},
				{
					"indexed": false,
					"internalType": "uint256",
					"name": "packagePrice",
					"type": "uint256"
				},
				{
					"indexed": false,
					"internalType": "string",
					"name": "depositType",
					"type": "string"
				},
				{
					"indexed": false,
					"internalType": "uint256",
					"name": "upgradeTime",
					"type": "uint256"
				}
			],
			"name": "Upgrade",
			"type": "event"
		},
		{
			"anonymous": false,
			"inputs": [
				{
					"indexed": true,
					"internalType": "uint8",
					"name": "matrixId",
					"type": "uint8"
				},
				{
					"indexed": true,
					"internalType": "uint32",
					"name": "userId",
					"type": "uint32"
				},
				{
					"indexed": true,
					"internalType": "address",
					"name": "user",
					"type": "address"
				},
				{
					"indexed": false,
					"internalType": "uint32",
					"name": "parentId",
					"type": "uint32"
				},
				{
					"indexed": false,
					"internalType": "address",
					"name": "parentAddr",
					"type": "address"
				},
				{
					"indexed": false,
					"internalType": "uint8",
					"name": "position",
					"type": "uint8"
				}
			],
			"name": "UserJoined",
			"type": "event"
		},
		{
			"anonymous": false,
			"inputs": [
				{
					"indexed": false,
					"internalType": "uint256",
					"name": "roundId",
					"type": "uint256"
				},
				{
					"indexed": false,
					"internalType": "uint256",
					"name": "totalUsers",
					"type": "uint256"
				},
				{
					"indexed": false,
					"internalType": "uint256",
					"name": "perUserReward",
					"type": "uint256"
				},
				{
					"indexed": false,
					"internalType": "uint256",
					"name": "totalReward",
					"type": "uint256"
				},
				{
					"indexed": false,
					"internalType": "uint256",
					"name": "totalDistributed",
					"type": "uint256"
				},
				{
					"indexed": false,
					"internalType": "uint256",
					"name": "leftoverReward",
					"type": "uint256"
				},
				{
					"indexed": false,
					"internalType": "uint256",
					"name": "endTime",
					"type": "uint256"
				}
			],
			"name": "WeeklyClosed",
			"type": "event"
		},
		{
			"anonymous": false,
			"inputs": [
				{
					"indexed": false,
					"internalType": "uint256",
					"name": "roundId",
					"type": "uint256"
				},
				{
					"indexed": false,
					"internalType": "uint256",
					"name": "userId",
					"type": "uint256"
				},
				{
					"indexed": false,
					"internalType": "uint256",
					"name": "joinTime",
					"type": "uint256"
				}
			],
			"name": "WeeklyContestQualified",
			"type": "event"
		},
		{
			"anonymous": false,
			"inputs": [
				{
					"indexed": false,
					"internalType": "uint256",
					"name": "roundId",
					"type": "uint256"
				},
				{
					"indexed": false,
					"internalType": "uint256",
					"name": "userId",
					"type": "uint256"
				},
				{
					"indexed": false,
					"internalType": "uint256",
					"name": "perUserReward",
					"type": "uint256"
				},
				{
					"indexed": false,
					"internalType": "uint256",
					"name": "claimTime",
					"type": "uint256"
				}
			],
			"name": "WeeklyRewardClaim",
			"type": "event"
		},
		{
			"inputs": [],
			"name": "ACC_PRECISION",
			"outputs": [
				{
					"internalType": "uint256",
					"name": "",
					"type": "uint256"
				}
			],
			"stateMutability": "view",
			"type": "function"
		},
		{
			"inputs": [],
			"name": "MONTHLY_ROYALTY_DIRECT",
			"outputs": [
				{
					"internalType": "uint256",
					"name": "",
					"type": "uint256"
				}
			],
			"stateMutability": "view",
			"type": "function"
		},
		{
			"inputs": [],
			"name": "MONTHLY_ROYALTY_LEVEL",
			"outputs": [
				{
					"internalType": "uint256",
					"name": "",
					"type": "uint256"
				}
			],
			"stateMutability": "view",
			"type": "function"
		},
		{
			"inputs": [],
			"name": "MONTHLY_ROYALTY_TIME",
			"outputs": [
				{
					"internalType": "uint256",
					"name": "",
					"type": "uint256"
				}
			],
			"stateMutability": "view",
			"type": "function"
		},
		{
			"inputs": [],
			"name": "MONTH_DURATION",
			"outputs": [
				{
					"internalType": "uint256",
					"name": "",
					"type": "uint256"
				}
			],
			"stateMutability": "view",
			"type": "function"
		},
		{
			"inputs": [],
			"name": "PERCENTS_DIVIDER",
			"outputs": [
				{
					"internalType": "uint256",
					"name": "",
					"type": "uint256"
				}
			],
			"stateMutability": "view",
			"type": "function"
		},
		{
			"inputs": [],
			"name": "ROI_2X_TIME",
			"outputs": [
				{
					"internalType": "uint256",
					"name": "",
					"type": "uint256"
				}
			],
			"stateMutability": "view",
			"type": "function"
		},
		{
			"inputs": [],
			"name": "ROI_CAP_DIVIDER",
			"outputs": [
				{
					"internalType": "uint256",
					"name": "",
					"type": "uint256"
				}
			],
			"stateMutability": "view",
			"type": "function"
		},
		{
			"inputs": [],
			"name": "ROI_CAP_MULTIPLIER",
			"outputs": [
				{
					"internalType": "uint256",
					"name": "",
					"type": "uint256"
				}
			],
			"stateMutability": "view",
			"type": "function"
		},
		{
			"inputs": [],
			"name": "TIME_STEP",
			"outputs": [
				{
					"internalType": "uint256",
					"name": "",
					"type": "uint256"
				}
			],
			"stateMutability": "view",
			"type": "function"
		},
		{
			"inputs": [],
			"name": "TOP_ROYALTY_DIRECT",
			"outputs": [
				{
					"internalType": "uint256",
					"name": "",
					"type": "uint256"
				}
			],
			"stateMutability": "view",
			"type": "function"
		},
		{
			"inputs": [],
			"name": "TOP_ROYALTY_LEVEL",
			"outputs": [
				{
					"internalType": "uint256",
					"name": "",
					"type": "uint256"
				}
			],
			"stateMutability": "view",
			"type": "function"
		},
		{
			"inputs": [],
			"name": "TOP_ROYALTY_TIME",
			"outputs": [
				{
					"internalType": "uint256",
					"name": "",
					"type": "uint256"
				}
			],
			"stateMutability": "view",
			"type": "function"
		},
		{
			"inputs": [],
			"name": "WEEK_DURATION",
			"outputs": [
				{
					"internalType": "uint256",
					"name": "",
					"type": "uint256"
				}
			],
			"stateMutability": "view",
			"type": "function"
		},
		{
			"inputs": [],
			"name": "WeeklyCapping",
			"outputs": [
				{
					"internalType": "uint256",
					"name": "",
					"type": "uint256"
				}
			],
			"stateMutability": "view",
			"type": "function"
		},
		{
			"inputs": [],
			"name": "WeeklyTotalReward",
			"outputs": [
				{
					"internalType": "uint256",
					"name": "",
					"type": "uint256"
				}
			],
			"stateMutability": "view",
			"type": "function"
		},
		{
			"inputs": [
				{
					"internalType": "address",
					"name": "",
					"type": "address"
				}
			],
			"name": "addressToId",
			"outputs": [
				{
					"internalType": "uint256",
					"name": "",
					"type": "uint256"
				}
			],
			"stateMutability": "view",
			"type": "function"
		},
		{
			"inputs": [
				{
					"internalType": "uint256",
					"name": "_userId",
					"type": "uint256"
				},
				{
					"internalType": "uint256",
					"name": "_roundId",
					"type": "uint256"
				}
			],
			"name": "canClaimMonthlyReward",
			"outputs": [
				{
					"internalType": "bool",
					"name": "",
					"type": "bool"
				}
			],
			"stateMutability": "view",
			"type": "function"
		},
		{
			"inputs": [
				{
					"internalType": "uint256",
					"name": "_userId",
					"type": "uint256"
				},
				{
					"internalType": "uint256",
					"name": "packageLevel",
					"type": "uint256"
				}
			],
			"name": "claimCommunity",
			"outputs": [],
			"stateMutability": "nonpayable",
			"type": "function"
		},
		{
			"inputs": [
				{
					"internalType": "uint256",
					"name": "_userId",
					"type": "uint256"
				},
				{
					"internalType": "uint256",
					"name": "_roundId",
					"type": "uint256"
				}
			],
			"name": "claimMonthlyCRoyaltyReward",
			"outputs": [],
			"stateMutability": "nonpayable",
			"type": "function"
		},
		{
			"inputs": [
				{
					"internalType": "uint256",
					"name": "_userId",
					"type": "uint256"
				},
				{
					"internalType": "uint256",
					"name": "_roundId",
					"type": "uint256"
				}
			],
			"name": "claimTopRoyaltyReward",
			"outputs": [],
			"stateMutability": "nonpayable",
			"type": "function"
		},
		{
			"inputs": [
				{
					"internalType": "uint256",
					"name": "_userId",
					"type": "uint256"
				},
				{
					"internalType": "uint256",
					"name": "_roundId",
					"type": "uint256"
				}
			],
			"name": "claimWeeklyContestReward",
			"outputs": [],
			"stateMutability": "nonpayable",
			"type": "function"
		},
		{
			"inputs": [
				{
					"internalType": "uint256",
					"name": "",
					"type": "uint256"
				}
			],
			"name": "communityAccPerPackage",
			"outputs": [
				{
					"internalType": "uint256",
					"name": "",
					"type": "uint256"
				}
			],
			"stateMutability": "view",
			"type": "function"
		},
		{
			"inputs": [],
			"name": "communityAccPerUser",
			"outputs": [
				{
					"internalType": "uint256",
					"name": "",
					"type": "uint256"
				}
			],
			"stateMutability": "view",
			"type": "function"
		},
		{
			"inputs": [
				{
					"internalType": "uint256",
					"name": "",
					"type": "uint256"
				},
				{
					"internalType": "uint256",
					"name": "",
					"type": "uint256"
				}
			],
			"name": "communityDebt",
			"outputs": [
				{
					"internalType": "uint256",
					"name": "",
					"type": "uint256"
				}
			],
			"stateMutability": "view",
			"type": "function"
		},
		{
			"inputs": [],
			"name": "creatorWallet",
			"outputs": [
				{
					"internalType": "address",
					"name": "",
					"type": "address"
				}
			],
			"stateMutability": "view",
			"type": "function"
		},
		{
			"inputs": [],
			"name": "currentMonthlyRound",
			"outputs": [
				{
					"internalType": "uint256",
					"name": "",
					"type": "uint256"
				}
			],
			"stateMutability": "view",
			"type": "function"
		},
		{
			"inputs": [],
			"name": "currentMonthlyStartTime",
			"outputs": [
				{
					"internalType": "uint256",
					"name": "",
					"type": "uint256"
				}
			],
			"stateMutability": "view",
			"type": "function"
		},
		{
			"inputs": [],
			"name": "currentWeeklyRound",
			"outputs": [
				{
					"internalType": "uint256",
					"name": "",
					"type": "uint256"
				}
			],
			"stateMutability": "view",
			"type": "function"
		},
		{
			"inputs": [],
			"name": "currentWeeklyStartTime",
			"outputs": [
				{
					"internalType": "uint256",
					"name": "",
					"type": "uint256"
				}
			],
			"stateMutability": "view",
			"type": "function"
		},
		{
			"inputs": [],
			"name": "defaultRefId",
			"outputs": [
				{
					"internalType": "uint256",
					"name": "",
					"type": "uint256"
				}
			],
			"stateMutability": "view",
			"type": "function"
		},
		{
			"inputs": [
				{
					"internalType": "uint256",
					"name": "",
					"type": "uint256"
				}
			],
			"name": "glbBoosterPackages",
			"outputs": [
				{
					"internalType": "uint256",
					"name": "",
					"type": "uint256"
				}
			],
			"stateMutability": "view",
			"type": "function"
		},
		{
			"inputs": [
				{
					"internalType": "uint256",
					"name": "",
					"type": "uint256"
				}
			],
			"name": "minLevelForGlbBooster",
			"outputs": [
				{
					"internalType": "uint256",
					"name": "",
					"type": "uint256"
				}
			],
			"stateMutability": "view",
			"type": "function"
		},
		{
			"inputs": [
				{
					"internalType": "uint256",
					"name": "",
					"type": "uint256"
				}
			],
			"name": "minLevelForPool",
			"outputs": [
				{
					"internalType": "uint256",
					"name": "",
					"type": "uint256"
				}
			],
			"stateMutability": "view",
			"type": "function"
		},
		{
			"inputs": [
				{
					"internalType": "uint256",
					"name": "",
					"type": "uint256"
				}
			],
			"name": "minPoolForGlbBooster",
			"outputs": [
				{
					"internalType": "uint256",
					"name": "",
					"type": "uint256"
				}
			],
			"stateMutability": "view",
			"type": "function"
		},
		{
			"inputs": [],
			"name": "monthlyCapping",
			"outputs": [
				{
					"internalType": "uint256",
					"name": "",
					"type": "uint256"
				}
			],
			"stateMutability": "view",
			"type": "function"
		},
		{
			"inputs": [],
			"name": "monthlyTotalReward",
			"outputs": [
				{
					"internalType": "uint256",
					"name": "",
					"type": "uint256"
				}
			],
			"stateMutability": "view",
			"type": "function"
		},
		{
			"inputs": [
				{
					"internalType": "uint256",
					"name": "",
					"type": "uint256"
				}
			],
			"name": "packageQualifiedUsers",
			"outputs": [
				{
					"internalType": "uint256",
					"name": "",
					"type": "uint256"
				}
			],
			"stateMutability": "view",
			"type": "function"
		},
		{
			"inputs": [
				{
					"internalType": "uint256",
					"name": "",
					"type": "uint256"
				}
			],
			"name": "packages",
			"outputs": [
				{
					"internalType": "uint256",
					"name": "",
					"type": "uint256"
				}
			],
			"stateMutability": "view",
			"type": "function"
		},
		{
			"inputs": [
				{
					"internalType": "uint256",
					"name": "_userId",
					"type": "uint256"
				},
				{
					"internalType": "uint256",
					"name": "_packagePrice",
					"type": "uint256"
				}
			],
			"name": "pendingCommunity",
			"outputs": [
				{
					"internalType": "uint256",
					"name": "pendingGross",
					"type": "uint256"
				},
				{
					"internalType": "uint256",
					"name": "pendingAfterCap",
					"type": "uint256"
				}
			],
			"stateMutability": "view",
			"type": "function"
		},
		{
			"inputs": [
				{
					"internalType": "uint256",
					"name": "",
					"type": "uint256"
				}
			],
			"name": "poolPackages",
			"outputs": [
				{
					"internalType": "uint256",
					"name": "",
					"type": "uint256"
				}
			],
			"stateMutability": "view",
			"type": "function"
		},
		{
			"inputs": [
				{
					"internalType": "uint256",
					"name": "_sponsorId",
					"type": "uint256"
				}
			],
			"name": "register",
			"outputs": [],
			"stateMutability": "nonpayable",
			"type": "function"
		},
		{
			"inputs": [
				{
					"internalType": "uint256",
					"name": "",
					"type": "uint256"
				}
			],
			"name": "registeredUserIds",
			"outputs": [
				{
					"internalType": "uint256",
					"name": "",
					"type": "uint256"
				}
			],
			"stateMutability": "view",
			"type": "function"
		},
		{
			"inputs": [],
			"name": "systemMaintance",
			"outputs": [
				{
					"internalType": "address",
					"name": "",
					"type": "address"
				}
			],
			"stateMutability": "view",
			"type": "function"
		},
		{
			"inputs": [],
			"name": "teamDevelopment",
			"outputs": [
				{
					"internalType": "address",
					"name": "",
					"type": "address"
				}
			],
			"stateMutability": "view",
			"type": "function"
		},
		{
			"inputs": [],
			"name": "topRoyaltyReward",
			"outputs": [
				{
					"internalType": "uint256",
					"name": "",
					"type": "uint256"
				}
			],
			"stateMutability": "view",
			"type": "function"
		},
		{
			"inputs": [],
			"name": "topRoyaltyRound",
			"outputs": [
				{
					"internalType": "uint256",
					"name": "",
					"type": "uint256"
				}
			],
			"stateMutability": "view",
			"type": "function"
		},
		{
			"inputs": [],
			"name": "topRoyaltyStartTime",
			"outputs": [
				{
					"internalType": "uint256",
					"name": "",
					"type": "uint256"
				}
			],
			"stateMutability": "view",
			"type": "function"
		},
		{
			"inputs": [],
			"name": "totalUsers",
			"outputs": [
				{
					"internalType": "uint256",
					"name": "",
					"type": "uint256"
				}
			],
			"stateMutability": "view",
			"type": "function"
		},
		{
			"inputs": [
				{
					"internalType": "uint256",
					"name": "_userId",
					"type": "uint256"
				}
			],
			"name": "upgrade",
			"outputs": [],
			"stateMutability": "nonpayable",
			"type": "function"
		},
		{
			"inputs": [],
			"name": "usdt",
			"outputs": [
				{
					"internalType": "contract IERC20",
					"name": "",
					"type": "address"
				}
			],
			"stateMutability": "view",
			"type": "function"
		}
	]
}