{
	"data": {
		"bytecode": {
			"linkReferences": {},
			"object": "6080604052346108fb57604051601f61334938819003918201601f19168301916001600160401b0383118484101761065a5780849260409485528339810103126108fb5761005860206100518361093e565b920161093e565b6040519091906101e081016001600160401b0381118282101761065a5760405267d02ab486cedc0000815268015af1d78b58c4000060208201526802b5e3af16b1880000604082015268056bc75e2d631000006060820152680ad78ebc5ac620000060808201526815af1d78b58c40000060a0820152682b5e3af16b1880000060c08201526856bc75e2d63100000060e082015268ad78ebc5ac6200000061010082015269015af1d78b58c40000006101208201526902b5e3af16b18800000061014082015269056bc75e2d6310000000610160820152690ad78ebc5ac6200000006101808201526915af1d78b58c400000006101a0820152692b5e3af16b18800000006101c0820152600654600f60065580600f106108b8575b5060065f5260205f20905f5b600f811061089b575050506101926108ff565b680410d586a20a4c00008152681043561a8829300000602082015268410d586a20a4c0000060408201526901043561a882930000006060820152690410d586a20a4c0000006080820152691043561a88293000000060a082015269410d586a20a4c000000060c08201526007546007805580600710610858575b5060075f5260205f20905f5b6007811061083b5750505061022b61091e565b68056bc75e2d631000008152680ad78ebc5ac620000060208201526815af1d78b58c4000006040820152682b5e3af16b1880000060608201526856bc75e2d631000000608082015268ad78ebc5ac6200000060a082015269015af1d78b58c400000060c08201526902b5e3af16b18800000060e082015260085460088055806008106107f8575b5060085f5260205f20905f5b600881106107db575050506102d16108ff565b60038152600560208201526007604082015260096060820152600b6080820152600d60a0820152600f60c08201525f5b600781106107c357505061031361091e565b6004815260056020820152600660408201526007606082015260086080820152600960a0820152600a60c0820152600b60e08201525f5b600881106107ab57505061035c61091e565b5f815260016020820152600160408201526001606082015260016080820152600160a0820152600160c0820152600160e08201525f5b60088110610793575050620151806036556001603a819055603b81905542603c819055603d8190557f79e068d87311f0999d8cc460f83efdb75159f5d2a58c037053e1489685917ab78190557fcae482817da5739a72d01cb9874e04d330e5e8dc74bc0bece220f5b3532c14bc8190555f80546001600160a01b03199081166001600160a01b03958616178255835481169590941694851783556103e86004819055600593909355828152602b6020527f8a1f26b60293b18a6f9fdcf925437a626a3ac076b0b4d60944a43c0554b6f6278054909416851784557f8a1f26b60293b18a6f9fdcf925437a626a3ac076b0b4d60944a43c0554b6f62a92909255600f7f8a1f26b60293b18a6f9fdcf925437a626a3ac076b0b4d60944a43c0554b6f62d557f8a1f26b60293b18a6f9fdcf925437a626a3ac076b0b4d60944a43c0554b6f6365560077f8a1f26b60293b18a6f9fdcf925437a626a3ac076b0b4d60944a43c0554b6f6325560087f8a1f26b60293b18a6f9fdcf925437a626a3ac076b0b4d60944a43c0554b6f6345560027f8a1f26b60293b18a6f9fdcf925437a626a3ac076b0b4d60944a43c0554b6f62f5560065491929181905b600f821061075f575050600a8301556004545f918252602a6020526040822055805b6007548210156106825760075482101561066e5760075f525f5160206132e95f395f51905f528201546105a091610952565b6004546040519192909160a081016001600160401b0381118282101761065a57600193600491604052808352602083018181526040840185815260608501915f835260808601935f8552875f52602160205260405f20905f5260205260405f2095518655518786015551600285015551600384015551910155805f52602460205261063160405f2060045490610973565b805f52602360205261065360405f2060045490815f5260205260405f20610973565b019061056e565b634e487b7160e01b5f52604160045260245ffd5b634e487b7160e01b5f52603260045260245ffd5b600c830155505f90815b600881106106a85750600e015560405161293390816109b68239f35b909160085482101561066e5760085f525f5160206133095f395f51905f528201546106d291610952565b60045460405191929091608081016001600160401b0381118282101761065a576001936003916040528083526020830184815260408401905f825260608501925f8452865f52602660205260405f20905f5260205260405f2094518555518685015551600284015551910155805f52602860205261075660405f2060045490610973565b0191909161068c565b90918183101561066e5760065f525f5160206133295f395f51905f5283015460019161078b9190610952565b92019061054c565b600190602060ff845116930192816018015501610392565b600190602060ff84511693019281601001550161034a565b600190602060ff845116930192816009015501610301565b81516001600160501b0316818401556020909101906001016102be565b60085f52610835905f5160206133095f395f51905f52017ff3f7a9fe364faab93b216da50a3214154f22a0a2b415b23a84c8169e8b636eeb61099f565b5f6102b2565b81516001600160501b031681840155602090910190600101610218565b60075f52610895905f5160206132e95f395f51905f52017fa66cc928b5edb82af9bd49922954155ab7b0942694bea4ce44661d9a8736c68f61099f565b5f61020c565b81516001600160501b03168184015560209091019060010161017f565b60065f526108f5905f5160206133295f395f51905f52017ff652222313e28459528d920b65115c16c04f3efc82aaedc97be59f3f377c0d4e61099f565b5f610173565b5f80fd5b6040519060e082016001600160401b0381118382101761065a57604052565b6040519061010082016001600160401b0381118382101761065a57604052565b51906001600160a01b03821682036108fb57565b9190820180921161095f57565b634e487b7160e01b5f52601160045260245ffd5b8054906801000000000000000082101561065a576001820180825582101561066e575f5260205f200155565b8181106109aa575050565b5f815560010161099f56fe6080806040526004361015610012575f80fd5b5f3560e01c90816301be02b214611a195750806301c234a8146119fd5780630a3f5a42146119075780631c1da18e146118be5780632132d204146118925780632350268f14611838578063245130881461180e5780632a891534146117f15780632c831633146117d45780632f48ab7d146117ad57806332bc298c1461179057806332fcd9661461176e578063375b43b41461175357806339ab3603146116f957806345977d03146114e457806351a4f04e1461139257806352a8c4c41461137557806358c7d3521461135a5780635e5bb367146113115780636b77c79d146110b557806376f5f7001461109857806378f6ad6d1461107b5780637cdc65f21461105357806381a0b8161461102b578063956a322814610fff5780639680003d14610e46578063a058dc0914610bc1578063a22b9e8714610b78578063a56b181514610af6578063a6791eae14610ad9578063a80fee5514610a75578063ad127e6b14610a11578063ae4708dc146109a3578063b4ba97fc1461095a578063bff1f9e11461093d578063c1c13b2f14610920578063c216212a146108e8578063c9ed0708146108cb578063ca8e9121146108ae578063d0a2fd7914610882578063d54d6ddb14610864578063e9e34a161461083c578063ec597e6f1461081f578063ef4549eb14610799578063f207564e146102425763f5d74d9314610216575f80fd5b3461023e575f36600319011261023e576003546040516001600160a01b039091168152602090f35b5f80fd5b3461023e57602036600319011261023e57600435335f52602a60205260405f205461075f57805f52602b602052600360405f20015415610728575f80546020906102cd906001600160a01b0316610297611a61565b90546040516323b872dd60e01b815233600482015230602482015260039290921b1c604482015293849283919082906064820190565b03925af1801561071d576106f0575b5060045460055460058102908082046005149015171561053c576102ff91611cf6565b90335f52602a6020528160405f2055815f52602b60205260405f2090336bffffffffffffffffffffffff60a01b8354161782554260028301558260038301556004820181815560016006840155610354611a61565b90549060031b1c600a84015542600f840155815f52602b602052600760405f20018054906001820180921161053c5755815f5260306020526103998460405f20612013565b603754600160401b8110156106dc57846103be8260016103d694016037556037611a93565b90919082549060031b91821b915f19901b1916179055565b603154845f52603260205260405f20555f5f90835f52602f602052600260405f2054105f146105b1575050835f52602b60205281600560405f200155815f52602f60205260405f208054906001820180921161053c5755815b5f905b600f8210610550575b5050610479610448611a61565b90546040519160031b1c61045b82611ac4565b81525f60208201524260408201526001606082015260018501611d03565b610481611a61565b90549060031b1c906005820282159280820460051484171561053c57603c810293818504603c1481171561053c5760198202918204601914171561053c576104e4936104dc606489946104d6828096046120a2565b04612109565b04915461220f565b6005546001810180911161053c576005555f52602b602052600560018060a01b0360405f2054169101546040519081527f309bb360e8b69c23937ccc5fb01f9aeeead1c95a99604e175113ff82f2b1723a60203392a4005b634e487b7160e01b5f52601160045260245ffd5b80156105ac57805f52602b602052600960405f20018054906001820180921161053c5755805f52602e60205260405f20825f526020526105938660405f20612013565b5f52602b6020526001600560405f200154910190610432565b61043b565b5f5b600f81106105c3575b505061042f565b816106d757845f52602e60205260405f206001820180831161053c575f5260205260405f20546002820180831161053c5760ff811161053c576001901b1161060e575b6001016105b3565b93925f9591955b845f52602e60205260405f20865f5260205260405f20548110156106c957866106b857845f52602e60205260405f20865f526020526106578160405f20611a93565b90549060031b1c805f52602f602052600260405f20541061067c575b50600101610615565b9193509550865f52602b60205280600560405f200155805f52602f60205260405f208054906001820180921161053c5755916001809690610673565b5092936001909591955b9050610606565b5092936001909591956106c2565b6105bc565b634e487b7160e01b5f52604160045260245ffd5b6107119060203d602011610716575b6107098183611afc565b810190611cde565b6102dc565b503d6106ff565b6040513d5f823e3d90fd5b60405162461bcd60e51b815260206004820152600f60248201526e24b73b30b634b21039b837b739b7b960891b6044820152606490fd5b60405162461bcd60e51b8152602060048201526012602482015271105b1c9958591e481c9959da5cdd195c995960721b6044820152606490fd5b3461023e57602036600319011261023e576004355f52604160205260405f20805461081b600183015492600281015490600381015460048201549060ff60066005850154940154169360405197889788959260c09592989794919860e08801998852602088015260408701526060860152608085015260a08401521515910152565b0390f35b3461023e575f36600319011261023e576020600454604051908152f35b3461023e575f36600319011261023e576002546040516001600160a01b039091168152602090f35b3461023e57602036600319011261023e57610880600435611e05565b005b3461023e57602036600319011261023e57600435600881101561023e5760209060100154604051908152f35b3461023e575f36600319011261023e576020603a54604051908152f35b3461023e575f36600319011261023e576020603b54604051908152f35b3461023e57602036600319011261023e5760043560065481101561023e57610911602091611a49565b90549060031b1c604051908152f35b3461023e575f36600319011261023e576020603c54604051908152f35b3461023e575f36600319011261023e576020600554604051908152f35b3461023e57604036600319011261023e57610973611a33565b6004355f52604260205260405f209060018060a01b03165f52602052602060ff60405f2054166040519015158152f35b3461023e57602036600319011261023e5760043560075481101561023e576007548110156109fd5760075f527fa66cc928b5edb82af9bd49922954155ab7b0942694bea4ce44661d9a8736c6880154604051908152602090f35b634e487b7160e01b5f52603260045260245ffd5b3461023e57602036600319011261023e57600435603e5481101561023e57603e548110156109fd57603e5f527f8d800d6614d35eed73733ee453164a3b48076eb3138f466adeeb9dec7bb31f7001546040516001600160a01b039091168152602090f35b3461023e57602036600319011261023e57600435603f5481101561023e57603f548110156109fd57603f5f527fc03004e3ce0784bf68186394306849f9b7b1200073105cd9aeb554a1802b58fd01546040516001600160a01b039091168152602090f35b3461023e575f36600319011261023e576020603d54604051908152f35b3461023e57602036600319011261023e576004355f52604060205260405f20805461081b600183015492600281015490600381015460048201549060ff60066005850154940154169360405197889788959260c09592989794919860e08801998852602088015260408701526060860152608085015260a08401521515910152565b3461023e57604036600319011261023e57610b91611a33565b6004355f52604460205260405f209060018060a01b03165f52602052602060ff60405f2054166040519015158152f35b5f36600319011261023e57603d5462278d00810180821161053c57421015610cd2575b50603b545f52604360205260405f2060018060a01b0333165f52602052610c1260ff60405f20541615611d6d565b603f54600160401b8110156106dc57806001610c339201603f55603f611a93565b81549060031b9033821b9160018060a01b03901b1916179055603b545f52604360205260405f2060018060a01b0333165f5260205260405f20600160ff19825416179055603b547f577158c2e8120577a90c3a1ee00ad3d7acbadba003577f10f7ba8ae958c5af4260405160408152610cc46040820160409060078152664d6f6e74686c7960c81b60208201520190565b9260208201528033930390a2005b603f54610de7914760011c917fb486e0c214f6d65e1072cc27c74ada7881ca4cc7d3b577a0c141f48ba0fbfbf591610d9e908215610e3d576006610d168487611c20565b955b603b549060405193610d2985611aa8565b82855260208501918783526040860190815260608601908a82526080870192835260a087019342855260c0880195600187525f52604160205260405f209751885551600188015551600287015551600386015551600485015551600584015551151591019060ff801983541691151516179055565b603b549260405191829160808352610dce6080840160409060078152664d6f6e74686c7960c81b60208201520190565b91866020850152604084015260608301520390a16124b8565b603b5542603d55603f545f603f558015610be457603f5f527fc03004e3ce0784bf68186394306849f9b7b1200073105cd9aeb554a1802b58fd908101905b818110610e325750610be4565b5f8155600101610e25565b60065f95610d18565b3461023e57606036600319011261023e576004356001600160a01b038116810361023e5760243560443591821515830361023e5760809215610f4d57815f52604060205260405f209060405190610e9c82611aa8565b82548252600183015460208301526002830154604083015260c060ff600660038601549560608601968752600481015489870152600581015460a087015201541692019115158252835f52604260205260405f2060018060a01b0382165f5260205260ff60405f205416935f52604460205260405f209060018060a01b03165f5260205260ff60405f205416915190511515915b604051931515845215156020840152604083015215156060820152f35b815f52604160205260405f209060405190610f6782611aa8565b82548252600183015460208301526002830154604083015260c060ff600660038601549560608601968752600481015489870152600581015460a087015201541692019115158252835f52604360205260405f2060018060a01b0382165f5260205260ff60405f205416935f52604560205260405f209060018060a01b03165f5260205260ff60405f20541691519051151591610f30565b3461023e57602036600319011261023e57600435600881101561023e5760209060180154604051908152f35b3461023e575f36600319011261023e576034546040516001600160a01b039091168152602090f35b3461023e575f36600319011261023e576001546040516001600160a01b039091168152602090f35b3461023e575f36600319011261023e576020603154604051908152f35b3461023e575f36600319011261023e57602060405162093a808152f35b5f36600319011261023e57603c5462093a80810180821161053c574210156111b7575b50603a545f52604260205260405f2060018060a01b0333165f5260205261110660ff60405f20541615611d6d565b603e54600160401b8110156106dc578060016111279201603e55603e611a93565b81549060031b9033821b9160018060a01b03901b1916179055603a545f52604260205260405f2060018060a01b0333165f5260205260405f20600160ff19825416179055603a547f577158c2e8120577a90c3a1ee00ad3d7acbadba003577f10f7ba8ae958c5af4260405160408152610cc46040820160409060068152655765656b6c7960d01b60208201520190565b603e546112b2914760011c917fb486e0c214f6d65e1072cc27c74ada7881ca4cc7d3b577a0c141f48ba0fbfbf5916112839082156113085760066111fb8487611c20565b955b603a54906040519361120e85611aa8565b82855260208501918783526040860190815260608601908a82526080870192835260a087019342855260c0880195600187525f52604060205260405f209751885551600188015551600287015551600386015551600485015551600584015551151591019060ff801983541691151516179055565b603a549260405191829160808352610dce6080840160409060068152655765656b6c7960d01b60208201520190565b603a5542603c55603e545f603e5580156110d857603e5f527f8d800d6614d35eed73733ee453164a3b48076eb3138f466adeeb9dec7bb31f70908101905b8181106112fd57506110d8565b5f81556001016112f0565b60065f956111fd565b3461023e57604036600319011261023e5761132a611a33565b6004355f52604360205260405f209060018060a01b03165f52602052602060ff60405f2054166040519015158152f35b3461023e575f36600319011261023e576020604051600a8152f35b3461023e575f36600319011261023e576020603654604051908152f35b3461023e57602036600319011261023e57600435805f5260416020527f1a3be26d9ba470ad16bb376aa13666c5c90511b63416723049a5adffeaefa64760405f2061143060c06040516113e481611aa8565b83548152600184015460208201526002840154604082015260ff60066003860154956060840196875260048101546080850152600581015460a085015201541615159182910152611b1e565b5f8381526043602090815260408083203384529091529020546114559060ff16611b61565b5f83815260456020908152604080832033845290915290205461147b9060ff1615611b9d565b61148781511515611bdb565b5f83815260456020908152604080832033845290915290819020805460ff19166001179055905190516060808252600790820152664d6f6e74686c7960c81b60808201529060a082015b93602083015260408201528033930390a2005b3461023e57602036600319011261023e57600435805f52602b60205260405f2061151860018060a01b038254163314611c9f565b6006810190815491600f8310156116bd5761153283611a49565b90545f80546040516323b872dd60e01b815233600482015230602482015260039490941b9290921c60448401819052939291602091839160649183916001600160a01b03165af1801561071d576116a0575b508054906001820180921161053c5755600a82016115a3828254611cf6565b90556115d36040516115b481611ac4565b8281525f60208201524260408201526001606082015260018401611d03565b6005810281159082810460051482171561053c576023830283810460231483171561053c57611609916104d660648093046120a2565b600f8202918204600f14171561053c5760649004916004820154600182019384831161053c5785600561165795611643888585829861234f565b0161165184848484546124c6565b546126b4565b60405190815260406020820152600460408201526314db1bdd60e21b60608201527fbabb6a363fd9a057996d09882c0b74b710d121707d19eeffd91c51c3171a7c9160803392a3005b6116b89060203d602011610716576107098183611afc565b611584565b60405162461bcd60e51b8152602060048201526014602482015273105b1c9958591e48185d081b585e081b195d995b60621b6044820152606490fd5b3461023e57602036600319011261023e5760043560375481101561023e576037548110156109fd5760375f527f42a7b7dd785cd69714a189dffb3fd7d7174edc9ece837694ce50f7078f7c31ae0154604051908152602090f35b3461023e575f36600319011261023e576020604051600f8152f35b3461023e575f36600319011261023e576020604051670de0b6b3a76400008152f35b3461023e575f36600319011261023e576020604051620151808152f35b3461023e575f36600319011261023e575f546040516001600160a01b039091168152602090f35b3461023e575f36600319011261023e576020603354604051908152f35b3461023e575f36600319011261023e57602060405162278d008152f35b3461023e57602036600319011261023e57604061182c600435611c3e565b82519182526020820152f35b3461023e57602036600319011261023e5760043560085481101561023e576008548110156109fd5760085f527ff3f7a9fe364faab93b216da50a3214154f22a0a2b415b23a84c8169e8b636ee30154604051908152602090f35b3461023e57602036600319011261023e57600435600781101561023e5760209060090154604051908152f35b3461023e57604036600319011261023e576118d7611a33565b6004355f52604560205260405f209060018060a01b03165f52602052602060ff60405f2054166040519015158152f35b3461023e57602036600319011261023e57600435805f5260406020527f1a3be26d9ba470ad16bb376aa13666c5c90511b63416723049a5adffeaefa64760405f2061195960c06040516113e481611aa8565b5f83815260426020908152604080832033845290915290205461197e9060ff16611b61565b5f8381526044602090815260408083203384529091529020546119a49060ff1615611b9d565b6119b081511515611bdb565b5f83815260446020908152604080832033845290915290819020805460ff19166001179055905190516060808252600690820152655765656b6c7960d01b60808201529060a082016114d1565b3461023e575f36600319011261023e5760206040516127108152f35b3461023e575f36600319011261023e576020906035548152f35b602435906001600160a01b038216820361023e57565b6006548110156109fd5760065f5260205f2001905f90565b600654156109fd5760065f9081527ff652222313e28459528d920b65115c16c04f3efc82aaedc97be59f3f377c0d3f91565b80548210156109fd575f5260205f2001905f90565b60e0810190811067ffffffffffffffff8211176106dc57604052565b6080810190811067ffffffffffffffff8211176106dc57604052565b60a0810190811067ffffffffffffffff8211176106dc57604052565b90601f8019910116810190811067ffffffffffffffff8211176106dc57604052565b15611b2557565b60405162461bcd60e51b8152602060048201526014602482015273149bdd5b99081b9bdd0818db1bdcd959081e595d60621b6044820152606490fd5b15611b6857565b60405162461bcd60e51b815260206004820152600d60248201526c139bdd081c5d585b1a599a5959609a1b6044820152606490fd5b15611ba457565b60405162461bcd60e51b815260206004820152600f60248201526e105b1c9958591e4818db185a5b5959608a1b6044820152606490fd5b15611be257565b60405162461bcd60e51b8152602060048201526009602482015268139bc81c995dd85c9960ba1b6044820152606490fd5b9190820391821161053c57565b8115611c2a570490565b634e487b7160e01b5f52601260045260245ffd5b90815f52602b602052600360405f20015415611c9857603154825f52603260205260405f20549081811115611c8e57611c83611c8b92670de0b6b3a764000092611c13565b048093612036565b90565b505090505f905f90565b5f91508190565b15611ca657565b60405162461bcd60e51b815260206004820152601060248201526f139bdd081e5bdd5c881858d8dbdd5b9d60821b6044820152606490fd5b9081602091031261023e5751801515810361023e5790565b9190820180921161053c57565b8054600160401b8110156106dc57600181018083558110156109fd57600360609160ff935f5260205f209060021b01845181556020850151600182015560408501516002820155019201511660ff19825416179055565b8181029291811591840414171561053c57565b15611d7457565b60405162461bcd60e51b8152602060048201526011602482015270105b1c9958591e481c5d585b1a599a5959607a1b6044820152606490fd5b805490600160401b8210156106dc57600182018082558210156109fd576004916080915f52600560205f2091020192805184556020810151600185015560408101516002850155606081015160038501550151910155565b805f52602b60205260405f2090600382015415611fdd57611e3060018060a01b038354163314611c9f565b60315491815f52603260205260405f2054808414611fd757611e5b670de0b6b3a76400009185611c13565b04918215611fc657611e6d8382612036565b93815f52603260205260405f20558380611ea3575b9150508111611e8f575050565b611ea191611e9c91611c13565b612109565b565b611f4b92611f0d836020945f52602c8552600760405f20611ec5868254611cf6565b815501611ed3858254611cf6565b9055805f52602d855260405f2060405191611eed83611ae0565b825284868301526001604083015242606083015260096080830152611dad565b5f8054915460405163a9059cbb60e01b81526001600160a01b0391821660048201526024810194909452929485939092169183919082906044820190565b03925af190811561071d575f91611fa7575b5015611f6b575f8083611e82565b60405162461bcd60e51b81526020600482015260146024820152731554d115081d1c985b9cd9995c8819985a5b195960621b6044820152606490fd5b611fc0915060203d602011610716576107098183611afc565b5f611f5d565b9150505f52603260205260405f2055565b50505050565b60405162461bcd60e51b815260206004820152600e60248201526d155cd95c881b9bdd08199bdd5b9960921b6044820152606490fd5b90815491600160401b8310156106dc57826103be916001611ea195018155611a93565b805f52602b60205260405f20905f52602c602052600a61206c60405f2092600f906001600882015411612099575b830154611d5a565b049054818110156120925761208091611c13565b908181111561208d575090565b905090565b5050505f90565b60149150612064565b6037549081158015612101575b6120ee57670de0b6b3a7640000810290808204670de0b6b3a7640000149015171561053c576120e9916120e191611c20565b603154611cf6565b603155565b8091506120f85750565b611ea190612109565b5080156120af565b6001546001600160a01b03169081156121d6575f805460405163a9059cbb60e01b81526001600160a01b03948516600482015260248101849052936020928592604492849291165af191821561071d57611ea1926121b9575b506004545f52602c60205260405f2061217c828254611cf6565b90556004545f52602d60205260405f206040519161219983611ae0565b5f835260208301525f604083015242606083015260056080830152611dad565b6121d19060203d602011610716576107098183611afc565b612162565b60405162461bcd60e51b8152602060048201526011602482015270199959481859191c9cc81b9bdd081cd95d607a1b6044820152606490fd5b80158015612344575b612339575f818152602b6020908152604080832083548154925163a9059cbb60e01b81526001600160a01b0393841660048201526024810189905291959491939284926044928492165af1801561071d5761231c575b50805f52602c602052600160405f20612288868254611cf6565b815501612296858254611cf6565b90555f52602d6020526122d560405f20604051906122b382611ae0565b8482528560208301526001604083015242606083015260016080830152611dad565b60018060a01b03905416905f52602b6020525f5160206128de5f395f51905f52606060018060a01b0360405f205416936040519081526001602082015260016040820152a3565b6123349060203d602011610716576107098183611afc565b61226e565b5050611ea190612109565b506004548114612218565b9091811580156124ad575b6124a057815f52602b60205260405f2060018503612484575b5f8054825460405163a9059cbb60e01b81526001600160a01b0391821660048201526024810186905295949392602092879260449284929091165af192831561071d575f5160206128de5f395f51905f5294606094612467575b50805f52602c602052600160405f206123e7858254611cf6565b8155016123f5848254611cf6565b90555f52602d60205261243260405f206040519061241282611ae0565b878252846020830152886040830152428683015260016080830152611dad565b60018060a01b03905416935f52602b60205260018060a01b0360405f20541694604051918252602082015260016040820152a3565b61247f9060203d602011610716576107098183611afc565b6123cd565b600260078201541015612373575b50915050611ea19150612109565b915050611ea19150612109565b50600454821461235a565b5f19811461053c5760010190565b939193929092600190600454811480156126ac575b61264757905b82811061266b5750925f935b8015158061265f575b80612655575b1561264757805f52602b60205260405f2090836006830154101561252f57506005612529910154946124b8565b936124ed565b5f8054835460405163a9059cbb60e01b81526001600160a01b039182166004820152602481018b9052979996985094969592949293926020928792604492849291165af192831561071d575f5160206128de5f395f51905f529460609461262b575b50805f52602c602052600260405f206125ab858254611cf6565b8155016125b9848254611cf6565b90555f52602d6020526125f660405f20604051906125d682611ae0565b878252846020830152886040830152428683015260026080830152611dad565b60018060a01b03905416935f52602b60205260018060a01b0360405f20541694604051918252602082015260026040820152a3565b6126429060203d8111610716576107098183611afc565b612591565b50505091611ea19150612109565b50600f85106124fc565b506004548114156124f6565b612674906124b8565b905f52602b602052600560405f20015490600454821480156126a4575b156124e15750505091611ea19150612109565b508115612691565b5080156124db565b9391909293801580156128d2575b612492578215612492576126ea6126d98484611c20565b926126e48585611d5a565b90611c13565b94600191945f5b8581106127075750505050505050806120f85750565b861515806128c6575b612745575b6001908715801561273a575b61272c575b016126f1565b61273586612109565b612726565b506004548814612721565b92865f97929752602b60205282600660405f20015410155f146128a4575f5b8181106127895750505f52602b602052600560405f20015494600180935b9050612715565b5f838152602b60209081526040808320548354915163a9059cbb60e01b81526001600160a01b0391821660048201819052602482018c9052909594909392869260449284929091165af192831561071d57600193612888575b50845f52602c602052600360405f206127fc8a8254611cf6565b81550161280a898254611cf6565b9055845f52602d60205261284960405f206040519061282882611ae0565b8c82528a602083015288604083015242606083015260046080830152611dad565b895f52602b602052828060a01b0360405f205416905f5160206128de5f395f51905f5260606040518b815289602082015260046040820152a301612764565b61289f9060203d8111610716576107098183611afc565b6127e2565b95905f52602b60205260016128c0600560405f200154976124b8565b93612782565b50600454871415612710565b5060045481146126c256fee17b61d324ce17328f433d0ab62581c0f0aa997312bae80fbdfcd2aa9b91d6e3a2646970667358221220f13b4570fc74dec4e08512ac374d23ac3f4e86e889521fb3230430ac98edf23664736f6c634300081e0033a66cc928b5edb82af9bd49922954155ab7b0942694bea4ce44661d9a8736c688f3f7a9fe364faab93b216da50a3214154f22a0a2b415b23a84c8169e8b636ee3f652222313e28459528d920b65115c16c04f3efc82aaedc97be59f3f377c0d3f",
			"opcodes": "PUSH1 0x80 PUSH1 0x40 MSTORE CALLVALUE PUSH2 0x8FB JUMPI PUSH1 0x40 MLOAD PUSH1 0x1F PUSH2 0x3349 CODESIZE DUP2 SWAP1 SUB SWAP2 DUP3 ADD PUSH1 0x1F NOT AND DUP4 ADD SWAP2 PUSH1 0x1 PUSH1 0x1 PUSH1 0x40 SHL SUB DUP4 GT DUP5 DUP5 LT OR PUSH2 0x65A JUMPI DUP1 DUP5 SWAP3 PUSH1 0x40 SWAP5 DUP6 MSTORE DUP4 CODECOPY DUP2 ADD SUB SLT PUSH2 0x8FB JUMPI PUSH2 0x58 PUSH1 0x20 PUSH2 0x51 DUP4 PUSH2 0x93E JUMP JUMPDEST SWAP3 ADD PUSH2 0x93E JUMP JUMPDEST PUSH1 0x40 MLOAD SWAP1 SWAP2 SWAP1 PUSH2 0x1E0 DUP2 ADD PUSH1 0x1 PUSH1 0x1 PUSH1 0x40 SHL SUB DUP2 GT DUP3 DUP3 LT OR PUSH2 0x65A JUMPI PUSH1 0x40 MSTORE PUSH8 0xD02AB486CEDC0000 DUP2 MSTORE PUSH9 0x15AF1D78B58C40000 PUSH1 0x20 DUP3 ADD MSTORE PUSH9 0x2B5E3AF16B1880000 PUSH1 0x40 DUP3 ADD MSTORE PUSH9 0x56BC75E2D63100000 PUSH1 0x60 DUP3 ADD MSTORE PUSH9 0xAD78EBC5AC6200000 PUSH1 0x80 DUP3 ADD MSTORE PUSH9 0x15AF1D78B58C400000 PUSH1 0xA0 DUP3 ADD MSTORE PUSH9 0x2B5E3AF16B18800000 PUSH1 0xC0 DUP3 ADD MSTORE PUSH9 0x56BC75E2D631000000 PUSH1 0xE0 DUP3 ADD MSTORE PUSH9 0xAD78EBC5AC62000000 PUSH2 0x100 DUP3 ADD MSTORE PUSH10 0x15AF1D78B58C4000000 PUSH2 0x120 DUP3 ADD MSTORE PUSH10 0x2B5E3AF16B188000000 PUSH2 0x140 DUP3 ADD MSTORE PUSH10 0x56BC75E2D6310000000 PUSH2 0x160 DUP3 ADD MSTORE PUSH10 0xAD78EBC5AC620000000 PUSH2 0x180 DUP3 ADD MSTORE PUSH10 0x15AF1D78B58C40000000 PUSH2 0x1A0 DUP3 ADD MSTORE PUSH10 0x2B5E3AF16B1880000000 PUSH2 0x1C0 DUP3 ADD MSTORE PUSH1 0x6 SLOAD PUSH1 0xF PUSH1 0x6 SSTORE DUP1 PUSH1 0xF LT PUSH2 0x8B8 JUMPI JUMPDEST POP PUSH1 0x6 PUSH0 MSTORE PUSH1 0x20 PUSH0 KECCAK256 SWAP1 PUSH0 JUMPDEST PUSH1 0xF DUP2 LT PUSH2 0x89B JUMPI POP POP POP PUSH2 0x192 PUSH2 0x8FF JUMP JUMPDEST PUSH9 0x410D586A20A4C0000 DUP2 MSTORE PUSH9 0x1043561A8829300000 PUSH1 0x20 DUP3 ADD MSTORE PUSH9 0x410D586A20A4C00000 PUSH1 0x40 DUP3 ADD MSTORE PUSH10 0x1043561A88293000000 PUSH1 0x60 DUP3 ADD MSTORE PUSH10 0x410D586A20A4C000000 PUSH1 0x80 DUP3 ADD MSTORE PUSH10 0x1043561A882930000000 PUSH1 0xA0 DUP3 ADD MSTORE PUSH10 0x410D586A20A4C0000000 PUSH1 0xC0 DUP3 ADD MSTORE PUSH1 0x7 SLOAD PUSH1 0x7 DUP1 SSTORE DUP1 PUSH1 0x7 LT PUSH2 0x858 JUMPI JUMPDEST POP PUSH1 0x7 PUSH0 MSTORE PUSH1 0x20 PUSH0 KECCAK256 SWAP1 PUSH0 JUMPDEST PUSH1 0x7 DUP2 LT PUSH2 0x83B JUMPI POP POP POP PUSH2 0x22B PUSH2 0x91E JUMP JUMPDEST PUSH9 0x56BC75E2D63100000 DUP2 MSTORE PUSH9 0xAD78EBC5AC6200000 PUSH1 0x20 DUP3 ADD MSTORE PUSH9 0x15AF1D78B58C400000 PUSH1 0x40 DUP3 ADD MSTORE PUSH9 0x2B5E3AF16B18800000 PUSH1 0x60 DUP3 ADD MSTORE PUSH9 0x56BC75E2D631000000 PUSH1 0x80 DUP3 ADD MSTORE PUSH9 0xAD78EBC5AC62000000 PUSH1 0xA0 DUP3 ADD MSTORE PUSH10 0x15AF1D78B58C4000000 PUSH1 0xC0 DUP3 ADD MSTORE PUSH10 0x2B5E3AF16B188000000 PUSH1 0xE0 DUP3 ADD MSTORE PUSH1 0x8 SLOAD PUSH1 0x8 DUP1 SSTORE DUP1 PUSH1 0x8 LT PUSH2 0x7F8 JUMPI JUMPDEST POP PUSH1 0x8 PUSH0 MSTORE PUSH1 0x20 PUSH0 KECCAK256 SWAP1 PUSH0 JUMPDEST PUSH1 0x8 DUP2 LT PUSH2 0x7DB JUMPI POP POP POP PUSH2 0x2D1 PUSH2 0x8FF JUMP JUMPDEST PUSH1 0x3 DUP2 MSTORE PUSH1 0x5 PUSH1 0x20 DUP3 ADD MSTORE PUSH1 0x7 PUSH1 0x40 DUP3 ADD MSTORE PUSH1 0x9 PUSH1 0x60 DUP3 ADD MSTORE PUSH1 0xB PUSH1 0x80 DUP3 ADD MSTORE PUSH1 0xD PUSH1 0xA0 DUP3 ADD MSTORE PUSH1 0xF PUSH1 0xC0 DUP3 ADD MSTORE PUSH0 JUMPDEST PUSH1 0x7 DUP2 LT PUSH2 0x7C3 JUMPI POP POP PUSH2 0x313 PUSH2 0x91E JUMP JUMPDEST PUSH1 0x4 DUP2 MSTORE PUSH1 0x5 PUSH1 0x20 DUP3 ADD MSTORE PUSH1 0x6 PUSH1 0x40 DUP3 ADD MSTORE PUSH1 0x7 PUSH1 0x60 DUP3 ADD MSTORE PUSH1 0x8 PUSH1 0x80 DUP3 ADD MSTORE PUSH1 0x9 PUSH1 0xA0 DUP3 ADD MSTORE PUSH1 0xA PUSH1 0xC0 DUP3 ADD MSTORE PUSH1 0xB PUSH1 0xE0 DUP3 ADD MSTORE PUSH0 JUMPDEST PUSH1 0x8 DUP2 LT PUSH2 0x7AB JUMPI POP POP PUSH2 0x35C PUSH2 0x91E JUMP JUMPDEST PUSH0 DUP2 MSTORE PUSH1 0x1 PUSH1 0x20 DUP3 ADD MSTORE PUSH1 0x1 PUSH1 0x40 DUP3 ADD MSTORE PUSH1 0x1 PUSH1 0x60 DUP3 ADD MSTORE PUSH1 0x1 PUSH1 0x80 DUP3 ADD MSTORE PUSH1 0x1 PUSH1 0xA0 DUP3 ADD MSTORE PUSH1 0x1 PUSH1 0xC0 DUP3 ADD MSTORE PUSH1 0x1 PUSH1 0xE0 DUP3 ADD MSTORE PUSH0 JUMPDEST PUSH1 0x8 DUP2 LT PUSH2 0x793 JUMPI POP POP PUSH3 0x15180 PUSH1 0x36 SSTORE PUSH1 0x1 PUSH1 0x3A DUP2 SWAP1 SSTORE PUSH1 0x3B DUP2 SWAP1 SSTORE TIMESTAMP PUSH1 0x3C DUP2 SWAP1 SSTORE PUSH1 0x3D DUP2 SWAP1 SSTORE PUSH32 0x79E068D87311F0999D8CC460F83EFDB75159F5D2A58C037053E1489685917AB7 DUP2 SWAP1 SSTORE PUSH32 0xCAE482817DA5739A72D01CB9874E04D330E5E8DC74BC0BECE220F5B3532C14BC DUP2 SWAP1 SSTORE PUSH0 DUP1 SLOAD PUSH1 0x1 PUSH1 0x1 PUSH1 0xA0 SHL SUB NOT SWAP1 DUP2 AND PUSH1 0x1 PUSH1 0x1 PUSH1 0xA0 SHL SUB SWAP6 DUP7 AND OR DUP3 SSTORE DUP4 SLOAD DUP2 AND SWAP6 SWAP1 SWAP5 AND SWAP5 DUP6 OR DUP4 SSTORE PUSH2 0x3E8 PUSH1 0x4 DUP2 SWAP1 SSTORE PUSH1 0x5 SWAP4 SWAP1 SWAP4 SSTORE DUP3 DUP2 MSTORE PUSH1 0x2B PUSH1 0x20 MSTORE PUSH32 0x8A1F26B60293B18A6F9FDCF925437A626A3AC076B0B4D60944A43C0554B6F627 DUP1 SLOAD SWAP1 SWAP5 AND DUP6 OR DUP5 SSTORE PUSH32 0x8A1F26B60293B18A6F9FDCF925437A626A3AC076B0B4D60944A43C0554B6F62A SWAP3 SWAP1 SWAP3 SSTORE PUSH1 0xF PUSH32 0x8A1F26B60293B18A6F9FDCF925437A626A3AC076B0B4D60944A43C0554B6F62D SSTORE PUSH32 0x8A1F26B60293B18A6F9FDCF925437A626A3AC076B0B4D60944A43C0554B6F636 SSTORE PUSH1 0x7 PUSH32 0x8A1F26B60293B18A6F9FDCF925437A626A3AC076B0B4D60944A43C0554B6F632 SSTORE PUSH1 0x8 PUSH32 0x8A1F26B60293B18A6F9FDCF925437A626A3AC076B0B4D60944A43C0554B6F634 SSTORE PUSH1 0x2 PUSH32 0x8A1F26B60293B18A6F9FDCF925437A626A3AC076B0B4D60944A43C0554B6F62F SSTORE PUSH1 0x6 SLOAD SWAP2 SWAP3 SWAP2 DUP2 SWAP1 JUMPDEST PUSH1 0xF DUP3 LT PUSH2 0x75F JUMPI POP POP PUSH1 0xA DUP4 ADD SSTORE PUSH1 0x4 SLOAD PUSH0 SWAP2 DUP3 MSTORE PUSH1 0x2A PUSH1 0x20 MSTORE PUSH1 0x40 DUP3 KECCAK256 SSTORE DUP1 JUMPDEST PUSH1 0x7 SLOAD DUP3 LT ISZERO PUSH2 0x682 JUMPI PUSH1 0x7 SLOAD DUP3 LT ISZERO PUSH2 0x66E JUMPI PUSH1 0x7 PUSH0 MSTORE PUSH0 MLOAD PUSH1 0x20 PUSH2 0x32E9 PUSH0 CODECOPY PUSH0 MLOAD SWAP1 PUSH0 MSTORE DUP3 ADD SLOAD PUSH2 0x5A0 SWAP2 PUSH2 0x952 JUMP JUMPDEST PUSH1 0x4 SLOAD PUSH1 0x40 MLOAD SWAP2 SWAP3 SWAP1 SWAP2 PUSH1 0xA0 DUP2 ADD PUSH1 0x1 PUSH1 0x1 PUSH1 0x40 SHL SUB DUP2 GT DUP3 DUP3 LT OR PUSH2 0x65A JUMPI PUSH1 0x1 SWAP4 PUSH1 0x4 SWAP2 PUSH1 0x40 MSTORE DUP1 DUP4 MSTORE PUSH1 0x20 DUP4 ADD DUP2 DUP2 MSTORE PUSH1 0x40 DUP5 ADD DUP6 DUP2 MSTORE PUSH1 0x60 DUP6 ADD SWAP2 PUSH0 DUP4 MSTORE PUSH1 0x80 DUP7 ADD SWAP4 PUSH0 DUP6 MSTORE DUP8 PUSH0 MSTORE PUSH1 0x21 PUSH1 0x20 MSTORE PUSH1 0x40 PUSH0 KECCAK256 SWAP1 PUSH0 MSTORE PUSH1 0x20 MSTORE PUSH1 0x40 PUSH0 KECCAK256 SWAP6 MLOAD DUP7 SSTORE MLOAD DUP8 DUP7 ADD SSTORE MLOAD PUSH1 0x2 DUP6 ADD SSTORE MLOAD PUSH1 0x3 DUP5 ADD SSTORE MLOAD SWAP2 ADD SSTORE DUP1 PUSH0 MSTORE PUSH1 0x24 PUSH1 0x20 MSTORE PUSH2 0x631 PUSH1 0x40 PUSH0 KECCAK256 PUSH1 0x4 SLOAD SWAP1 PUSH2 0x973 JUMP JUMPDEST DUP1 PUSH0 MSTORE PUSH1 0x23 PUSH1 0x20 MSTORE PUSH2 0x653 PUSH1 0x40 PUSH0 KECCAK256 PUSH1 0x4 SLOAD SWAP1 DUP2 PUSH0 MSTORE PUSH1 0x20 MSTORE PUSH1 0x40 PUSH0 KECCAK256 PUSH2 0x973 JUMP JUMPDEST ADD SWAP1 PUSH2 0x56E JUMP JUMPDEST PUSH4 0x4E487B71 PUSH1 0xE0 SHL PUSH0 MSTORE PUSH1 0x41 PUSH1 0x4 MSTORE PUSH1 0x24 PUSH0 REVERT JUMPDEST PUSH4 0x4E487B71 PUSH1 0xE0 SHL PUSH0 MSTORE PUSH1 0x32 PUSH1 0x4 MSTORE PUSH1 0x24 PUSH0 REVERT JUMPDEST PUSH1 0xC DUP4 ADD SSTORE POP PUSH0 SWAP1 DUP2 JUMPDEST PUSH1 0x8 DUP2 LT PUSH2 0x6A8 JUMPI POP PUSH1 0xE ADD SSTORE PUSH1 0x40 MLOAD PUSH2 0x2933 SWAP1 DUP2 PUSH2 0x9B6 DUP3 CODECOPY RETURN JUMPDEST SWAP1 SWAP2 PUSH1 0x8 SLOAD DUP3 LT ISZERO PUSH2 0x66E JUMPI PUSH1 0x8 PUSH0 MSTORE PUSH0 MLOAD PUSH1 0x20 PUSH2 0x3309 PUSH0 CODECOPY PUSH0 MLOAD SWAP1 PUSH0 MSTORE DUP3 ADD SLOAD PUSH2 0x6D2 SWAP2 PUSH2 0x952 JUMP JUMPDEST PUSH1 0x4 SLOAD PUSH1 0x40 MLOAD SWAP2 SWAP3 SWAP1 SWAP2 PUSH1 0x80 DUP2 ADD PUSH1 0x1 PUSH1 0x1 PUSH1 0x40 SHL SUB DUP2 GT DUP3 DUP3 LT OR PUSH2 0x65A JUMPI PUSH1 0x1 SWAP4 PUSH1 0x3 SWAP2 PUSH1 0x40 MSTORE DUP1 DUP4 MSTORE PUSH1 0x20 DUP4 ADD DUP5 DUP2 MSTORE PUSH1 0x40 DUP5 ADD SWAP1 PUSH0 DUP3 MSTORE PUSH1 0x60 DUP6 ADD SWAP3 PUSH0 DUP5 MSTORE DUP7 PUSH0 MSTORE PUSH1 0x26 PUSH1 0x20 MSTORE PUSH1 0x40 PUSH0 KECCAK256 SWAP1 PUSH0 MSTORE PUSH1 0x20 MSTORE PUSH1 0x40 PUSH0 KECCAK256 SWAP5 MLOAD DUP6 SSTORE MLOAD DUP7 DUP6 ADD SSTORE MLOAD PUSH1 0x2 DUP5 ADD SSTORE MLOAD SWAP2 ADD SSTORE DUP1 PUSH0 MSTORE PUSH1 0x28 PUSH1 0x20 MSTORE PUSH2 0x756 PUSH1 0x40 PUSH0 KECCAK256 PUSH1 0x4 SLOAD SWAP1 PUSH2 0x973 JUMP JUMPDEST ADD SWAP2 SWAP1 SWAP2 PUSH2 0x68C JUMP JUMPDEST SWAP1 SWAP2 DUP2 DUP4 LT ISZERO PUSH2 0x66E JUMPI PUSH1 0x6 PUSH0 MSTORE PUSH0 MLOAD PUSH1 0x20 PUSH2 0x3329 PUSH0 CODECOPY PUSH0 MLOAD SWAP1 PUSH0 MSTORE DUP4 ADD SLOAD PUSH1 0x1 SWAP2 PUSH2 0x78B SWAP2 SWAP1 PUSH2 0x952 JUMP JUMPDEST SWAP3 ADD SWAP1 PUSH2 0x54C JUMP JUMPDEST PUSH1 0x1 SWAP1 PUSH1 0x20 PUSH1 0xFF DUP5 MLOAD AND SWAP4 ADD SWAP3 DUP2 PUSH1 0x18 ADD SSTORE ADD PUSH2 0x392 JUMP JUMPDEST PUSH1 0x1 SWAP1 PUSH1 0x20 PUSH1 0xFF DUP5 MLOAD AND SWAP4 ADD SWAP3 DUP2 PUSH1 0x10 ADD SSTORE ADD PUSH2 0x34A JUMP JUMPDEST PUSH1 0x1 SWAP1 PUSH1 0x20 PUSH1 0xFF DUP5 MLOAD AND SWAP4 ADD SWAP3 DUP2 PUSH1 0x9 ADD SSTORE ADD PUSH2 0x301 JUMP JUMPDEST DUP2 MLOAD PUSH1 0x1 PUSH1 0x1 PUSH1 0x50 SHL SUB AND DUP2 DUP5 ADD SSTORE PUSH1 0x20 SWAP1 SWAP2 ADD SWAP1 PUSH1 0x1 ADD PUSH2 0x2BE JUMP JUMPDEST PUSH1 0x8 PUSH0 MSTORE PUSH2 0x835 SWAP1 PUSH0 MLOAD PUSH1 0x20 PUSH2 0x3309 PUSH0 CODECOPY PUSH0 MLOAD SWAP1 PUSH0 MSTORE ADD PUSH32 0xF3F7A9FE364FAAB93B216DA50A3214154F22A0A2B415B23A84C8169E8B636EEB PUSH2 0x99F JUMP JUMPDEST PUSH0 PUSH2 0x2B2 JUMP JUMPDEST DUP2 MLOAD PUSH1 0x1 PUSH1 0x1 PUSH1 0x50 SHL SUB AND DUP2 DUP5 ADD SSTORE PUSH1 0x20 SWAP1 SWAP2 ADD SWAP1 PUSH1 0x1 ADD PUSH2 0x218 JUMP JUMPDEST PUSH1 0x7 PUSH0 MSTORE PUSH2 0x895 SWAP1 PUSH0 MLOAD PUSH1 0x20 PUSH2 0x32E9 PUSH0 CODECOPY PUSH0 MLOAD SWAP1 PUSH0 MSTORE ADD PUSH32 0xA66CC928B5EDB82AF9BD49922954155AB7B0942694BEA4CE44661D9A8736C68F PUSH2 0x99F JUMP JUMPDEST PUSH0 PUSH2 0x20C JUMP JUMPDEST DUP2 MLOAD PUSH1 0x1 PUSH1 0x1 PUSH1 0x50 SHL SUB AND DUP2 DUP5 ADD SSTORE PUSH1 0x20 SWAP1 SWAP2 ADD SWAP1 PUSH1 0x1 ADD PUSH2 0x17F JUMP JUMPDEST PUSH1 0x6 PUSH0 MSTORE PUSH2 0x8F5 SWAP1 PUSH0 MLOAD PUSH1 0x20 PUSH2 0x3329 PUSH0 CODECOPY PUSH0 MLOAD SWAP1 PUSH0 MSTORE ADD PUSH32 0xF652222313E28459528D920B65115C16C04F3EFC82AAEDC97BE59F3F377C0D4E PUSH2 0x99F JUMP JUMPDEST PUSH0 PUSH2 0x173 JUMP JUMPDEST PUSH0 DUP1 REVERT JUMPDEST PUSH1 0x40 MLOAD SWAP1 PUSH1 0xE0 DUP3 ADD PUSH1 0x1 PUSH1 0x1 PUSH1 0x40 SHL SUB DUP2 GT DUP4 DUP3 LT OR PUSH2 0x65A JUMPI PUSH1 0x40 MSTORE JUMP JUMPDEST PUSH1 0x40 MLOAD SWAP1 PUSH2 0x100 DUP3 ADD PUSH1 0x1 PUSH1 0x1 PUSH1 0x40 SHL SUB DUP2 GT DUP4 DUP3 LT OR PUSH2 0x65A JUMPI PUSH1 0x40 MSTORE JUMP JUMPDEST MLOAD SWAP1 PUSH1 0x1 PUSH1 0x1 PUSH1 0xA0 SHL SUB DUP3 AND DUP3 SUB PUSH2 0x8FB JUMPI JUMP JUMPDEST SWAP2 SWAP1 DUP3 ADD DUP1 SWAP3 GT PUSH2 0x95F JUMPI JUMP JUMPDEST PUSH4 0x4E487B71 PUSH1 0xE0 SHL PUSH0 MSTORE PUSH1 0x11 PUSH1 0x4 MSTORE PUSH1 0x24 PUSH0 REVERT JUMPDEST DUP1 SLOAD SWAP1 PUSH9 0x10000000000000000 DUP3 LT ISZERO PUSH2 0x65A JUMPI PUSH1 0x1 DUP3 ADD DUP1 DUP3 SSTORE DUP3 LT ISZERO PUSH2 0x66E JUMPI PUSH0 MSTORE PUSH1 0x20 PUSH0 KECCAK256 ADD SSTORE JUMP JUMPDEST DUP2 DUP2 LT PUSH2 0x9AA JUMPI POP POP JUMP JUMPDEST PUSH0 DUP2 SSTORE PUSH1 0x1 ADD PUSH2 0x99F JUMP INVALID PUSH1 0x80 DUP1 PUSH1 0x40 MSTORE PUSH1 0x4 CALLDATASIZE LT ISZERO PUSH2 0x12 JUMPI PUSH0 DUP1 REVERT JUMPDEST PUSH0 CALLDATALOAD PUSH1 0xE0 SHR SWAP1 DUP2 PUSH4 0x1BE02B2 EQ PUSH2 0x1A19 JUMPI POP DUP1 PUSH4 0x1C234A8 EQ PUSH2 0x19FD JUMPI DUP1 PUSH4 0xA3F5A42 EQ PUSH2 0x1907 JUMPI DUP1 PUSH4 0x1C1DA18E EQ PUSH2 0x18BE JUMPI DUP1 PUSH4 0x2132D204 EQ PUSH2 0x1892 JUMPI DUP1 PUSH4 0x2350268F EQ PUSH2 0x1838 JUMPI DUP1 PUSH4 0x24513088 EQ PUSH2 0x180E JUMPI DUP1 PUSH4 0x2A891534 EQ PUSH2 0x17F1 JUMPI DUP1 PUSH4 0x2C831633 EQ PUSH2 0x17D4 JUMPI DUP1 PUSH4 0x2F48AB7D EQ PUSH2 0x17AD JUMPI DUP1 PUSH4 0x32BC298C EQ PUSH2 0x1790 JUMPI DUP1 PUSH4 0x32FCD966 EQ PUSH2 0x176E JUMPI DUP1 PUSH4 0x375B43B4 EQ PUSH2 0x1753 JUMPI DUP1 PUSH4 0x39AB3603 EQ PUSH2 0x16F9 JUMPI DUP1 PUSH4 0x45977D03 EQ PUSH2 0x14E4 JUMPI DUP1 PUSH4 0x51A4F04E EQ PUSH2 0x1392 JUMPI DUP1 PUSH4 0x52A8C4C4 EQ PUSH2 0x1375 JUMPI DUP1 PUSH4 0x58C7D352 EQ PUSH2 0x135A JUMPI DUP1 PUSH4 0x5E5BB367 EQ PUSH2 0x1311 JUMPI DUP1 PUSH4 0x6B77C79D EQ PUSH2 0x10B5 JUMPI DUP1 PUSH4 0x76F5F700 EQ PUSH2 0x1098 JUMPI DUP1 PUSH4 0x78F6AD6D EQ PUSH2 0x107B JUMPI DUP1 PUSH4 0x7CDC65F2 EQ PUSH2 0x1053 JUMPI DUP1 PUSH4 0x81A0B816 EQ PUSH2 0x102B JUMPI DUP1 PUSH4 0x956A3228 EQ PUSH2 0xFFF JUMPI DUP1 PUSH4 0x9680003D EQ PUSH2 0xE46 JUMPI DUP1 PUSH4 0xA058DC09 EQ PUSH2 0xBC1 JUMPI DUP1 PUSH4 0xA22B9E87 EQ PUSH2 0xB78 JUMPI DUP1 PUSH4 0xA56B1815 EQ PUSH2 0xAF6 JUMPI DUP1 PUSH4 0xA6791EAE EQ PUSH2 0xAD9 JUMPI DUP1 PUSH4 0xA80FEE55 EQ PUSH2 0xA75 JUMPI DUP1 PUSH4 0xAD127E6B EQ PUSH2 0xA11 JUMPI DUP1 PUSH4 0xAE4708DC EQ PUSH2 0x9A3 JUMPI DUP1 PUSH4 0xB4BA97FC EQ PUSH2 0x95A JUMPI DUP1 PUSH4 0xBFF1F9E1 EQ PUSH2 0x93D JUMPI DUP1 PUSH4 0xC1C13B2F EQ PUSH2 0x920 JUMPI DUP1 PUSH4 0xC216212A EQ PUSH2 0x8E8 JUMPI DUP1 PUSH4 0xC9ED0708 EQ PUSH2 0x8CB JUMPI DUP1 PUSH4 0xCA8E9121 EQ PUSH2 0x8AE JUMPI DUP1 PUSH4 0xD0A2FD79 EQ PUSH2 0x882 JUMPI DUP1 PUSH4 0xD54D6DDB EQ PUSH2 0x864 JUMPI DUP1 PUSH4 0xE9E34A16 EQ PUSH2 0x83C JUMPI DUP1 PUSH4 0xEC597E6F EQ PUSH2 0x81F JUMPI DUP1 PUSH4 0xEF4549EB EQ PUSH2 0x799 JUMPI DUP1 PUSH4 0xF207564E EQ PUSH2 0x242 JUMPI PUSH4 0xF5D74D93 EQ PUSH2 0x216 JUMPI PUSH0 DUP1 REVERT JUMPDEST CALLVALUE PUSH2 0x23E JUMPI PUSH0 CALLDATASIZE PUSH1 0x3 NOT ADD SLT PUSH2 0x23E JUMPI PUSH1 0x3 SLOAD PUSH1 0x40 MLOAD PUSH1 0x1 PUSH1 0x1 PUSH1 0xA0 SHL SUB SWAP1 SWAP2 AND DUP2 MSTORE PUSH1 0x20 SWAP1 RETURN JUMPDEST PUSH0 DUP1 REVERT JUMPDEST CALLVALUE PUSH2 0x23E JUMPI PUSH1 0x20 CALLDATASIZE PUSH1 0x3 NOT ADD SLT PUSH2 0x23E JUMPI PUSH1 0x4 CALLDATALOAD CALLER PUSH0 MSTORE PUSH1 0x2A PUSH1 0x20 MSTORE PUSH1 0x40 PUSH0 KECCAK256 SLOAD PUSH2 0x75F JUMPI DUP1 PUSH0 MSTORE PUSH1 0x2B PUSH1 0x20 MSTORE PUSH1 0x3 PUSH1 0x40 PUSH0 KECCAK256 ADD SLOAD ISZERO PUSH2 0x728 JUMPI PUSH0 DUP1 SLOAD PUSH1 0x20 SWAP1 PUSH2 0x2CD SWAP1 PUSH1 0x1 PUSH1 0x1 PUSH1 0xA0 SHL SUB AND PUSH2 0x297 PUSH2 0x1A61 JUMP JUMPDEST SWAP1 SLOAD PUSH1 0x40 MLOAD PUSH4 0x23B872DD PUSH1 0xE0 SHL DUP2 MSTORE CALLER PUSH1 0x4 DUP3 ADD MSTORE ADDRESS PUSH1 0x24 DUP3 ADD MSTORE PUSH1 0x3 SWAP3 SWAP1 SWAP3 SHL SHR PUSH1 0x44 DUP3 ADD MSTORE SWAP4 DUP5 SWAP3 DUP4 SWAP2 SWAP1 DUP3 SWAP1 PUSH1 0x64 DUP3 ADD SWAP1 JUMP JUMPDEST SUB SWAP3 GAS CALL DUP1 ISZERO PUSH2 0x71D JUMPI PUSH2 0x6F0 JUMPI JUMPDEST POP PUSH1 0x4 SLOAD PUSH1 0x5 SLOAD PUSH1 0x5 DUP2 MUL SWAP1 DUP1 DUP3 DIV PUSH1 0x5 EQ SWAP1 ISZERO OR ISZERO PUSH2 0x53C JUMPI PUSH2 0x2FF SWAP2 PUSH2 0x1CF6 JUMP JUMPDEST SWAP1 CALLER PUSH0 MSTORE PUSH1 0x2A PUSH1 0x20 MSTORE DUP2 PUSH1 0x40 PUSH0 KECCAK256 SSTORE DUP2 PUSH0 MSTORE PUSH1 0x2B PUSH1 0x20 MSTORE PUSH1 0x40 PUSH0 KECCAK256 SWAP1 CALLER PUSH12 0xFFFFFFFFFFFFFFFFFFFFFFFF PUSH1 0xA0 SHL DUP4 SLOAD AND OR DUP3 SSTORE TIMESTAMP PUSH1 0x2 DUP4 ADD SSTORE DUP3 PUSH1 0x3 DUP4 ADD SSTORE PUSH1 0x4 DUP3 ADD DUP2 DUP2 SSTORE PUSH1 0x1 PUSH1 0x6 DUP5 ADD SSTORE PUSH2 0x354 PUSH2 0x1A61 JUMP JUMPDEST SWAP1 SLOAD SWAP1 PUSH1 0x3 SHL SHR PUSH1 0xA DUP5 ADD SSTORE TIMESTAMP PUSH1 0xF DUP5 ADD SSTORE DUP2 PUSH0 MSTORE PUSH1 0x2B PUSH1 0x20 MSTORE PUSH1 0x7 PUSH1 0x40 PUSH0 KECCAK256 ADD DUP1 SLOAD SWAP1 PUSH1 0x1 DUP3 ADD DUP1 SWAP3 GT PUSH2 0x53C JUMPI SSTORE DUP2 PUSH0 MSTORE PUSH1 0x30 PUSH1 0x20 MSTORE PUSH2 0x399 DUP5 PUSH1 0x40 PUSH0 KECCAK256 PUSH2 0x2013 JUMP JUMPDEST PUSH1 0x37 SLOAD PUSH1 0x1 PUSH1 0x40 SHL DUP2 LT ISZERO PUSH2 0x6DC JUMPI DUP5 PUSH2 0x3BE DUP3 PUSH1 0x1 PUSH2 0x3D6 SWAP5 ADD PUSH1 0x37 SSTORE PUSH1 0x37 PUSH2 0x1A93 JUMP JUMPDEST SWAP1 SWAP2 SWAP1 DUP3 SLOAD SWAP1 PUSH1 0x3 SHL SWAP2 DUP3 SHL SWAP2 PUSH0 NOT SWAP1 SHL NOT AND OR SWAP1 SSTORE JUMP JUMPDEST PUSH1 0x31 SLOAD DUP5 PUSH0 MSTORE PUSH1 0x32 PUSH1 0x20 MSTORE PUSH1 0x40 PUSH0 KECCAK256 SSTORE PUSH0 PUSH0 SWAP1 DUP4 PUSH0 MSTORE PUSH1 0x2F PUSH1 0x20 MSTORE PUSH1 0x2 PUSH1 0x40 PUSH0 KECCAK256 SLOAD LT PUSH0 EQ PUSH2 0x5B1 JUMPI POP POP DUP4 PUSH0 MSTORE PUSH1 0x2B PUSH1 0x20 MSTORE DUP2 PUSH1 0x5 PUSH1 0x40 PUSH0 KECCAK256 ADD SSTORE DUP2 PUSH0 MSTORE PUSH1 0x2F PUSH1 0x20 MSTORE PUSH1 0x40 PUSH0 KECCAK256 DUP1 SLOAD SWAP1 PUSH1 0x1 DUP3 ADD DUP1 SWAP3 GT PUSH2 0x53C JUMPI SSTORE DUP2 JUMPDEST PUSH0 SWAP1 JUMPDEST PUSH1 0xF DUP3 LT PUSH2 0x550 JUMPI JUMPDEST POP POP PUSH2 0x479 PUSH2 0x448 PUSH2 0x1A61 JUMP JUMPDEST SWAP1 SLOAD PUSH1 0x40 MLOAD SWAP2 PUSH1 0x3 SHL SHR PUSH2 0x45B DUP3 PUSH2 0x1AC4 JUMP JUMPDEST DUP2 MSTORE PUSH0 PUSH1 0x20 DUP3 ADD MSTORE TIMESTAMP PUSH1 0x40 DUP3 ADD MSTORE PUSH1 0x1 PUSH1 0x60 DUP3 ADD MSTORE PUSH1 0x1 DUP6 ADD PUSH2 0x1D03 JUMP JUMPDEST PUSH2 0x481 PUSH2 0x1A61 JUMP JUMPDEST SWAP1 SLOAD SWAP1 PUSH1 0x3 SHL SHR SWAP1 PUSH1 0x5 DUP3 MUL DUP3 ISZERO SWAP3 DUP1 DUP3 DIV PUSH1 0x5 EQ DUP5 OR ISZERO PUSH2 0x53C JUMPI PUSH1 0x3C DUP2 MUL SWAP4 DUP2 DUP6 DIV PUSH1 0x3C EQ DUP2 OR ISZERO PUSH2 0x53C JUMPI PUSH1 0x19 DUP3 MUL SWAP2 DUP3 DIV PUSH1 0x19 EQ OR ISZERO PUSH2 0x53C JUMPI PUSH2 0x4E4 SWAP4 PUSH2 0x4DC PUSH1 0x64 DUP10 SWAP5 PUSH2 0x4D6 DUP3 DUP1 SWAP7 DIV PUSH2 0x20A2 JUMP JUMPDEST DIV PUSH2 0x2109 JUMP JUMPDEST DIV SWAP2 SLOAD PUSH2 0x220F JUMP JUMPDEST PUSH1 0x5 SLOAD PUSH1 0x1 DUP2 ADD DUP1 SWAP2 GT PUSH2 0x53C JUMPI PUSH1 0x5 SSTORE PUSH0 MSTORE PUSH1 0x2B PUSH1 0x20 MSTORE PUSH1 0x5 PUSH1 0x1 DUP1 PUSH1 0xA0 SHL SUB PUSH1 0x40 PUSH0 KECCAK256 SLOAD AND SWAP2 ADD SLOAD PUSH1 0x40 MLOAD SWAP1 DUP2 MSTORE PUSH32 0x309BB360E8B69C23937CCC5FB01F9AEEEAD1C95A99604E175113FF82F2B1723A PUSH1 0x20 CALLER SWAP3 LOG4 STOP JUMPDEST PUSH4 0x4E487B71 PUSH1 0xE0 SHL PUSH0 MSTORE PUSH1 0x11 PUSH1 0x4 MSTORE PUSH1 0x24 PUSH0 REVERT JUMPDEST DUP1 ISZERO PUSH2 0x5AC JUMPI DUP1 PUSH0 MSTORE PUSH1 0x2B PUSH1 0x20 MSTORE PUSH1 0x9 PUSH1 0x40 PUSH0 KECCAK256 ADD DUP1 SLOAD SWAP1 PUSH1 0x1 DUP3 ADD DUP1 SWAP3 GT PUSH2 0x53C JUMPI SSTORE DUP1 PUSH0 MSTORE PUSH1 0x2E PUSH1 0x20 MSTORE PUSH1 0x40 PUSH0 KECCAK256 DUP3 PUSH0 MSTORE PUSH1 0x20 MSTORE PUSH2 0x593 DUP7 PUSH1 0x40 PUSH0 KECCAK256 PUSH2 0x2013 JUMP JUMPDEST PUSH0 MSTORE PUSH1 0x2B PUSH1 0x20 MSTORE PUSH1 0x1 PUSH1 0x5 PUSH1 0x40 PUSH0 KECCAK256 ADD SLOAD SWAP2 ADD SWAP1 PUSH2 0x432 JUMP JUMPDEST PUSH2 0x43B JUMP JUMPDEST PUSH0 JUMPDEST PUSH1 0xF DUP2 LT PUSH2 0x5C3 JUMPI JUMPDEST POP POP PUSH2 0x42F JUMP JUMPDEST DUP2 PUSH2 0x6D7 JUMPI DUP5 PUSH0 MSTORE PUSH1 0x2E PUSH1 0x20 MSTORE PUSH1 0x40 PUSH0 KECCAK256 PUSH1 0x1 DUP3 ADD DUP1 DUP4 GT PUSH2 0x53C JUMPI PUSH0 MSTORE PUSH1 0x20 MSTORE PUSH1 0x40 PUSH0 KECCAK256 SLOAD PUSH1 0x2 DUP3 ADD DUP1 DUP4 GT PUSH2 0x53C JUMPI PUSH1 0xFF DUP2 GT PUSH2 0x53C JUMPI PUSH1 0x1 SWAP1 SHL GT PUSH2 0x60E JUMPI JUMPDEST PUSH1 0x1 ADD PUSH2 0x5B3 JUMP JUMPDEST SWAP4 SWAP3 PUSH0 SWAP6 SWAP2 SWAP6 JUMPDEST DUP5 PUSH0 MSTORE PUSH1 0x2E PUSH1 0x20 MSTORE PUSH1 0x40 PUSH0 KECCAK256 DUP7 PUSH0 MSTORE PUSH1 0x20 MSTORE PUSH1 0x40 PUSH0 KECCAK256 SLOAD DUP2 LT ISZERO PUSH2 0x6C9 JUMPI DUP7 PUSH2 0x6B8 JUMPI DUP5 PUSH0 MSTORE PUSH1 0x2E PUSH1 0x20 MSTORE PUSH1 0x40 PUSH0 KECCAK256 DUP7 PUSH0 MSTORE PUSH1 0x20 MSTORE PUSH2 0x657 DUP2 PUSH1 0x40 PUSH0 KECCAK256 PUSH2 0x1A93 JUMP JUMPDEST SWAP1 SLOAD SWAP1 PUSH1 0x3 SHL SHR DUP1 PUSH0 MSTORE PUSH1 0x2F PUSH1 0x20 MSTORE PUSH1 0x2 PUSH1 0x40 PUSH0 KECCAK256 SLOAD LT PUSH2 0x67C JUMPI JUMPDEST POP PUSH1 0x1 ADD PUSH2 0x615 JUMP JUMPDEST SWAP2 SWAP4 POP SWAP6 POP DUP7 PUSH0 MSTORE PUSH1 0x2B PUSH1 0x20 MSTORE DUP1 PUSH1 0x5 PUSH1 0x40 PUSH0 KECCAK256 ADD SSTORE DUP1 PUSH0 MSTORE PUSH1 0x2F PUSH1 0x20 MSTORE PUSH1 0x40 PUSH0 KECCAK256 DUP1 SLOAD SWAP1 PUSH1 0x1 DUP3 ADD DUP1 SWAP3 GT PUSH2 0x53C JUMPI SSTORE SWAP2 PUSH1 0x1 DUP1 SWAP7 SWAP1 PUSH2 0x673 JUMP JUMPDEST POP SWAP3 SWAP4 PUSH1 0x1 SWAP1 SWAP6 SWAP2 SWAP6 JUMPDEST SWAP1 POP PUSH2 0x606 JUMP JUMPDEST POP SWAP3 SWAP4 PUSH1 0x1 SWAP1 SWAP6 SWAP2 SWAP6 PUSH2 0x6C2 JUMP JUMPDEST PUSH2 0x5BC JUMP JUMPDEST PUSH4 0x4E487B71 PUSH1 0xE0 SHL PUSH0 MSTORE PUSH1 0x41 PUSH1 0x4 MSTORE PUSH1 0x24 PUSH0 REVERT JUMPDEST PUSH2 0x711 SWAP1 PUSH1 0x20 RETURNDATASIZE PUSH1 0x20 GT PUSH2 0x716 JUMPI JUMPDEST PUSH2 0x709 DUP2 DUP4 PUSH2 0x1AFC JUMP JUMPDEST DUP2 ADD SWAP1 PUSH2 0x1CDE JUMP JUMPDEST PUSH2 0x2DC JUMP JUMPDEST POP RETURNDATASIZE PUSH2 0x6FF JUMP JUMPDEST PUSH1 0x40 MLOAD RETURNDATASIZE PUSH0 DUP3 RETURNDATACOPY RETURNDATASIZE SWAP1 REVERT JUMPDEST PUSH1 0x40 MLOAD PUSH3 0x461BCD PUSH1 0xE5 SHL DUP2 MSTORE PUSH1 0x20 PUSH1 0x4 DUP3 ADD MSTORE PUSH1 0xF PUSH1 0x24 DUP3 ADD MSTORE PUSH15 0x24B73B30B634B21039B837B739B7B9 PUSH1 0x89 SHL PUSH1 0x44 DUP3 ADD MSTORE PUSH1 0x64 SWAP1 REVERT JUMPDEST PUSH1 0x40 MLOAD PUSH3 0x461BCD PUSH1 0xE5 SHL DUP2 MSTORE PUSH1 0x20 PUSH1 0x4 DUP3 ADD MSTORE PUSH1 0x12 PUSH1 0x24 DUP3 ADD MSTORE PUSH18 0x105B1C9958591E481C9959DA5CDD195C9959 PUSH1 0x72 SHL PUSH1 0x44 DUP3 ADD MSTORE PUSH1 0x64 SWAP1 REVERT JUMPDEST CALLVALUE PUSH2 0x23E JUMPI PUSH1 0x20 CALLDATASIZE PUSH1 0x3 NOT ADD SLT PUSH2 0x23E JUMPI PUSH1 0x4 CALLDATALOAD PUSH0 MSTORE PUSH1 0x41 PUSH1 0x20 MSTORE PUSH1 0x40 PUSH0 KECCAK256 DUP1 SLOAD PUSH2 0x81B PUSH1 0x1 DUP4 ADD SLOAD SWAP3 PUSH1 0x2 DUP2 ADD SLOAD SWAP1 PUSH1 0x3 DUP2 ADD SLOAD PUSH1 0x4 DUP3 ADD SLOAD SWAP1 PUSH1 0xFF PUSH1 0x6 PUSH1 0x5 DUP6 ADD SLOAD SWAP5 ADD SLOAD AND SWAP4 PUSH1 0x40 MLOAD SWAP8 DUP9 SWAP8 DUP9 SWAP6 SWAP3 PUSH1 0xC0 SWAP6 SWAP3 SWAP9 SWAP8 SWAP5 SWAP2 SWAP9 PUSH1 0xE0 DUP9 ADD SWAP10 DUP9 MSTORE PUSH1 0x20 DUP9 ADD MSTORE PUSH1 0x40 DUP8 ADD MSTORE PUSH1 0x60 DUP7 ADD MSTORE PUSH1 0x80 DUP6 ADD MSTORE PUSH1 0xA0 DUP5 ADD MSTORE ISZERO ISZERO SWAP2 ADD MSTORE JUMP JUMPDEST SUB SWAP1 RETURN JUMPDEST CALLVALUE PUSH2 0x23E JUMPI PUSH0 CALLDATASIZE PUSH1 0x3 NOT ADD SLT PUSH2 0x23E JUMPI PUSH1 0x20 PUSH1 0x4 SLOAD PUSH1 0x40 MLOAD SWAP1 DUP2 MSTORE RETURN JUMPDEST CALLVALUE PUSH2 0x23E JUMPI PUSH0 CALLDATASIZE PUSH1 0x3 NOT ADD SLT PUSH2 0x23E JUMPI PUSH1 0x2 SLOAD PUSH1 0x40 MLOAD PUSH1 0x1 PUSH1 0x1 PUSH1 0xA0 SHL SUB SWAP1 SWAP2 AND DUP2 MSTORE PUSH1 0x20 SWAP1 RETURN JUMPDEST CALLVALUE PUSH2 0x23E JUMPI PUSH1 0x20 CALLDATASIZE PUSH1 0x3 NOT ADD SLT PUSH2 0x23E JUMPI PUSH2 0x880 PUSH1 0x4 CALLDATALOAD PUSH2 0x1E05 JUMP JUMPDEST STOP JUMPDEST CALLVALUE PUSH2 0x23E JUMPI PUSH1 0x20 CALLDATASIZE PUSH1 0x3 NOT ADD SLT PUSH2 0x23E JUMPI PUSH1 0x4 CALLDATALOAD PUSH1 0x8 DUP2 LT ISZERO PUSH2 0x23E JUMPI PUSH1 0x20 SWAP1 PUSH1 0x10 ADD SLOAD PUSH1 0x40 MLOAD SWAP1 DUP2 MSTORE RETURN JUMPDEST CALLVALUE PUSH2 0x23E JUMPI PUSH0 CALLDATASIZE PUSH1 0x3 NOT ADD SLT PUSH2 0x23E JUMPI PUSH1 0x20 PUSH1 0x3A SLOAD PUSH1 0x40 MLOAD SWAP1 DUP2 MSTORE RETURN JUMPDEST CALLVALUE PUSH2 0x23E JUMPI PUSH0 CALLDATASIZE PUSH1 0x3 NOT ADD SLT PUSH2 0x23E JUMPI PUSH1 0x20 PUSH1 0x3B SLOAD PUSH1 0x40 MLOAD SWAP1 DUP2 MSTORE RETURN JUMPDEST CALLVALUE PUSH2 0x23E JUMPI PUSH1 0x20 CALLDATASIZE PUSH1 0x3 NOT ADD SLT PUSH2 0x23E JUMPI PUSH1 0x4 CALLDATALOAD PUSH1 0x6 SLOAD DUP2 LT ISZERO PUSH2 0x23E JUMPI PUSH2 0x911 PUSH1 0x20 SWAP2 PUSH2 0x1A49 JUMP JUMPDEST SWAP1 SLOAD SWAP1 PUSH1 0x3 SHL SHR PUSH1 0x40 MLOAD SWAP1 DUP2 MSTORE RETURN JUMPDEST CALLVALUE PUSH2 0x23E JUMPI PUSH0 CALLDATASIZE PUSH1 0x3 NOT ADD SLT PUSH2 0x23E JUMPI PUSH1 0x20 PUSH1 0x3C SLOAD PUSH1 0x40 MLOAD SWAP1 DUP2 MSTORE RETURN JUMPDEST CALLVALUE PUSH2 0x23E JUMPI PUSH0 CALLDATASIZE PUSH1 0x3 NOT ADD SLT PUSH2 0x23E JUMPI PUSH1 0x20 PUSH1 0x5 SLOAD PUSH1 0x40 MLOAD SWAP1 DUP2 MSTORE RETURN JUMPDEST CALLVALUE PUSH2 0x23E JUMPI PUSH1 0x40 CALLDATASIZE PUSH1 0x3 NOT ADD SLT PUSH2 0x23E JUMPI PUSH2 0x973 PUSH2 0x1A33 JUMP JUMPDEST PUSH1 0x4 CALLDATALOAD PUSH0 MSTORE PUSH1 0x42 PUSH1 0x20 MSTORE PUSH1 0x40 PUSH0 KECCAK256 SWAP1 PUSH1 0x1 DUP1 PUSH1 0xA0 SHL SUB AND PUSH0 MSTORE PUSH1 0x20 MSTORE PUSH1 0x20 PUSH1 0xFF PUSH1 0x40 PUSH0 KECCAK256 SLOAD AND PUSH1 0x40 MLOAD SWAP1 ISZERO ISZERO DUP2 MSTORE RETURN JUMPDEST CALLVALUE PUSH2 0x23E JUMPI PUSH1 0x20 CALLDATASIZE PUSH1 0x3 NOT ADD SLT PUSH2 0x23E JUMPI PUSH1 0x4 CALLDATALOAD PUSH1 0x7 SLOAD DUP2 LT ISZERO PUSH2 0x23E JUMPI PUSH1 0x7 SLOAD DUP2 LT ISZERO PUSH2 0x9FD JUMPI PUSH1 0x7 PUSH0 MSTORE PUSH32 0xA66CC928B5EDB82AF9BD49922954155AB7B0942694BEA4CE44661D9A8736C688 ADD SLOAD PUSH1 0x40 MLOAD SWAP1 DUP2 MSTORE PUSH1 0x20 SWAP1 RETURN JUMPDEST PUSH4 0x4E487B71 PUSH1 0xE0 SHL PUSH0 MSTORE PUSH1 0x32 PUSH1 0x4 MSTORE PUSH1 0x24 PUSH0 REVERT JUMPDEST CALLVALUE PUSH2 0x23E JUMPI PUSH1 0x20 CALLDATASIZE PUSH1 0x3 NOT ADD SLT PUSH2 0x23E JUMPI PUSH1 0x4 CALLDATALOAD PUSH1 0x3E SLOAD DUP2 LT ISZERO PUSH2 0x23E JUMPI PUSH1 0x3E SLOAD DUP2 LT ISZERO PUSH2 0x9FD JUMPI PUSH1 0x3E PUSH0 MSTORE PUSH32 0x8D800D6614D35EED73733EE453164A3B48076EB3138F466ADEEB9DEC7BB31F70 ADD SLOAD PUSH1 0x40 MLOAD PUSH1 0x1 PUSH1 0x1 PUSH1 0xA0 SHL SUB SWAP1 SWAP2 AND DUP2 MSTORE PUSH1 0x20 SWAP1 RETURN JUMPDEST CALLVALUE PUSH2 0x23E JUMPI PUSH1 0x20 CALLDATASIZE PUSH1 0x3 NOT ADD SLT PUSH2 0x23E JUMPI PUSH1 0x4 CALLDATALOAD PUSH1 0x3F SLOAD DUP2 LT ISZERO PUSH2 0x23E JUMPI PUSH1 0x3F SLOAD DUP2 LT ISZERO PUSH2 0x9FD JUMPI PUSH1 0x3F PUSH0 MSTORE PUSH32 0xC03004E3CE0784BF68186394306849F9B7B1200073105CD9AEB554A1802B58FD ADD SLOAD PUSH1 0x40 MLOAD PUSH1 0x1 PUSH1 0x1 PUSH1 0xA0 SHL SUB SWAP1 SWAP2 AND DUP2 MSTORE PUSH1 0x20 SWAP1 RETURN JUMPDEST CALLVALUE PUSH2 0x23E JUMPI PUSH0 CALLDATASIZE PUSH1 0x3 NOT ADD SLT PUSH2 0x23E JUMPI PUSH1 0x20 PUSH1 0x3D SLOAD PUSH1 0x40 MLOAD SWAP1 DUP2 MSTORE RETURN JUMPDEST CALLVALUE PUSH2 0x23E JUMPI PUSH1 0x20 CALLDATASIZE PUSH1 0x3 NOT ADD SLT PUSH2 0x23E JUMPI PUSH1 0x4 CALLDATALOAD PUSH0 MSTORE PUSH1 0x40 PUSH1 0x20 MSTORE PUSH1 0x40 PUSH0 KECCAK256 DUP1 SLOAD PUSH2 0x81B PUSH1 0x1 DUP4 ADD SLOAD SWAP3 PUSH1 0x2 DUP2 ADD SLOAD SWAP1 PUSH1 0x3 DUP2 ADD SLOAD PUSH1 0x4 DUP3 ADD SLOAD SWAP1 PUSH1 0xFF PUSH1 0x6 PUSH1 0x5 DUP6 ADD SLOAD SWAP5 ADD SLOAD AND SWAP4 PUSH1 0x40 MLOAD SWAP8 DUP9 SWAP8 DUP9 SWAP6 SWAP3 PUSH1 0xC0 SWAP6 SWAP3 SWAP9 SWAP8 SWAP5 SWAP2 SWAP9 PUSH1 0xE0 DUP9 ADD SWAP10 DUP9 MSTORE PUSH1 0x20 DUP9 ADD MSTORE PUSH1 0x40 DUP8 ADD MSTORE PUSH1 0x60 DUP7 ADD MSTORE PUSH1 0x80 DUP6 ADD MSTORE PUSH1 0xA0 DUP5 ADD MSTORE ISZERO ISZERO SWAP2 ADD MSTORE JUMP JUMPDEST CALLVALUE PUSH2 0x23E JUMPI PUSH1 0x40 CALLDATASIZE PUSH1 0x3 NOT ADD SLT PUSH2 0x23E JUMPI PUSH2 0xB91 PUSH2 0x1A33 JUMP JUMPDEST PUSH1 0x4 CALLDATALOAD PUSH0 MSTORE PUSH1 0x44 PUSH1 0x20 MSTORE PUSH1 0x40 PUSH0 KECCAK256 SWAP1 PUSH1 0x1 DUP1 PUSH1 0xA0 SHL SUB AND PUSH0 MSTORE PUSH1 0x20 MSTORE PUSH1 0x20 PUSH1 0xFF PUSH1 0x40 PUSH0 KECCAK256 SLOAD AND PUSH1 0x40 MLOAD SWAP1 ISZERO ISZERO DUP2 MSTORE RETURN JUMPDEST PUSH0 CALLDATASIZE PUSH1 0x3 NOT ADD SLT PUSH2 0x23E JUMPI PUSH1 0x3D SLOAD PUSH3 0x278D00 DUP2 ADD DUP1 DUP3 GT PUSH2 0x53C JUMPI TIMESTAMP LT ISZERO PUSH2 0xCD2 JUMPI JUMPDEST POP PUSH1 0x3B SLOAD PUSH0 MSTORE PUSH1 0x43 PUSH1 0x20 MSTORE PUSH1 0x40 PUSH0 KECCAK256 PUSH1 0x1 DUP1 PUSH1 0xA0 SHL SUB CALLER AND PUSH0 MSTORE PUSH1 0x20 MSTORE PUSH2 0xC12 PUSH1 0xFF PUSH1 0x40 PUSH0 KECCAK256 SLOAD AND ISZERO PUSH2 0x1D6D JUMP JUMPDEST PUSH1 0x3F SLOAD PUSH1 0x1 PUSH1 0x40 SHL DUP2 LT ISZERO PUSH2 0x6DC JUMPI DUP1 PUSH1 0x1 PUSH2 0xC33 SWAP3 ADD PUSH1 0x3F SSTORE PUSH1 0x3F PUSH2 0x1A93 JUMP JUMPDEST DUP2 SLOAD SWAP1 PUSH1 0x3 SHL SWAP1 CALLER DUP3 SHL SWAP2 PUSH1 0x1 DUP1 PUSH1 0xA0 SHL SUB SWAP1 SHL NOT AND OR SWAP1 SSTORE PUSH1 0x3B SLOAD PUSH0 MSTORE PUSH1 0x43 PUSH1 0x20 MSTORE PUSH1 0x40 PUSH0 KECCAK256 PUSH1 0x1 DUP1 PUSH1 0xA0 SHL SUB CALLER AND PUSH0 MSTORE PUSH1 0x20 MSTORE PUSH1 0x40 PUSH0 KECCAK256 PUSH1 0x1 PUSH1 0xFF NOT DUP3 SLOAD AND OR SWAP1 SSTORE PUSH1 0x3B SLOAD PUSH32 0x577158C2E8120577A90C3A1EE00AD3D7ACBADBA003577F10F7BA8AE958C5AF42 PUSH1 0x40 MLOAD PUSH1 0x40 DUP2 MSTORE PUSH2 0xCC4 PUSH1 0x40 DUP3 ADD PUSH1 0x40 SWAP1 PUSH1 0x7 DUP2 MSTORE PUSH7 0x4D6F6E74686C79 PUSH1 0xC8 SHL PUSH1 0x20 DUP3 ADD MSTORE ADD SWAP1 JUMP JUMPDEST SWAP3 PUSH1 0x20 DUP3 ADD MSTORE DUP1 CALLER SWAP4 SUB SWAP1 LOG2 STOP JUMPDEST PUSH1 0x3F SLOAD PUSH2 0xDE7 SWAP2 SELFBALANCE PUSH1 0x1 SHR SWAP2 PUSH32 0xB486E0C214F6D65E1072CC27C74ADA7881CA4CC7D3B577A0C141F48BA0FBFBF5 SWAP2 PUSH2 0xD9E SWAP1 DUP3 ISZERO PUSH2 0xE3D JUMPI PUSH1 0x6 PUSH2 0xD16 DUP5 DUP8 PUSH2 0x1C20 JUMP JUMPDEST SWAP6 JUMPDEST PUSH1 0x3B SLOAD SWAP1 PUSH1 0x40 MLOAD SWAP4 PUSH2 0xD29 DUP6 PUSH2 0x1AA8 JUMP JUMPDEST DUP3 DUP6 MSTORE PUSH1 0x20 DUP6 ADD SWAP2 DUP8 DUP4 MSTORE PUSH1 0x40 DUP7 ADD SWAP1 DUP2 MSTORE PUSH1 0x60 DUP7 ADD SWAP1 DUP11 DUP3 MSTORE PUSH1 0x80 DUP8 ADD SWAP3 DUP4 MSTORE PUSH1 0xA0 DUP8 ADD SWAP4 TIMESTAMP DUP6 MSTORE PUSH1 0xC0 DUP9 ADD SWAP6 PUSH1 0x1 DUP8 MSTORE PUSH0 MSTORE PUSH1 0x41 PUSH1 0x20 MSTORE PUSH1 0x40 PUSH0 KECCAK256 SWAP8 MLOAD DUP9 SSTORE MLOAD PUSH1 0x1 DUP9 ADD SSTORE MLOAD PUSH1 0x2 DUP8 ADD SSTORE MLOAD PUSH1 0x3 DUP7 ADD SSTORE MLOAD PUSH1 0x4 DUP6 ADD SSTORE MLOAD PUSH1 0x5 DUP5 ADD SSTORE MLOAD ISZERO ISZERO SWAP2 ADD SWAP1 PUSH1 0xFF DUP1 NOT DUP4 SLOAD AND SWAP2 ISZERO ISZERO AND OR SWAP1 SSTORE JUMP JUMPDEST PUSH1 0x3B SLOAD SWAP3 PUSH1 0x40 MLOAD SWAP2 DUP3 SWAP2 PUSH1 0x80 DUP4 MSTORE PUSH2 0xDCE PUSH1 0x80 DUP5 ADD PUSH1 0x40 SWAP1 PUSH1 0x7 DUP2 MSTORE PUSH7 0x4D6F6E74686C79 PUSH1 0xC8 SHL PUSH1 0x20 DUP3 ADD MSTORE ADD SWAP1 JUMP JUMPDEST SWAP2 DUP7 PUSH1 0x20 DUP6 ADD MSTORE PUSH1 0x40 DUP5 ADD MSTORE PUSH1 0x60 DUP4 ADD MSTORE SUB SWAP1 LOG1 PUSH2 0x24B8 JUMP JUMPDEST PUSH1 0x3B SSTORE TIMESTAMP PUSH1 0x3D SSTORE PUSH1 0x3F SLOAD PUSH0 PUSH1 0x3F SSTORE DUP1 ISZERO PUSH2 0xBE4 JUMPI PUSH1 0x3F PUSH0 MSTORE PUSH32 0xC03004E3CE0784BF68186394306849F9B7B1200073105CD9AEB554A1802B58FD SWAP1 DUP2 ADD SWAP1 JUMPDEST DUP2 DUP2 LT PUSH2 0xE32 JUMPI POP PUSH2 0xBE4 JUMP JUMPDEST PUSH0 DUP2 SSTORE PUSH1 0x1 ADD PUSH2 0xE25 JUMP JUMPDEST PUSH1 0x6 PUSH0 SWAP6 PUSH2 0xD18 JUMP JUMPDEST CALLVALUE PUSH2 0x23E JUMPI PUSH1 0x60 CALLDATASIZE PUSH1 0x3 NOT ADD SLT PUSH2 0x23E JUMPI PUSH1 0x4 CALLDATALOAD PUSH1 0x1 PUSH1 0x1 PUSH1 0xA0 SHL SUB DUP2 AND DUP2 SUB PUSH2 0x23E JUMPI PUSH1 0x24 CALLDATALOAD PUSH1 0x44 CALLDATALOAD SWAP2 DUP3 ISZERO ISZERO DUP4 SUB PUSH2 0x23E JUMPI PUSH1 0x80 SWAP3 ISZERO PUSH2 0xF4D JUMPI DUP2 PUSH0 MSTORE PUSH1 0x40 PUSH1 0x20 MSTORE PUSH1 0x40 PUSH0 KECCAK256 SWAP1 PUSH1 0x40 MLOAD SWAP1 PUSH2 0xE9C DUP3 PUSH2 0x1AA8 JUMP JUMPDEST DUP3 SLOAD DUP3 MSTORE PUSH1 0x1 DUP4 ADD SLOAD PUSH1 0x20 DUP4 ADD MSTORE PUSH1 0x2 DUP4 ADD SLOAD PUSH1 0x40 DUP4 ADD MSTORE PUSH1 0xC0 PUSH1 0xFF PUSH1 0x6 PUSH1 0x3 DUP7 ADD SLOAD SWAP6 PUSH1 0x60 DUP7 ADD SWAP7 DUP8 MSTORE PUSH1 0x4 DUP2 ADD SLOAD DUP10 DUP8 ADD MSTORE PUSH1 0x5 DUP2 ADD SLOAD PUSH1 0xA0 DUP8 ADD MSTORE ADD SLOAD AND SWAP3 ADD SWAP2 ISZERO ISZERO DUP3 MSTORE DUP4 PUSH0 MSTORE PUSH1 0x42 PUSH1 0x20 MSTORE PUSH1 0x40 PUSH0 KECCAK256 PUSH1 0x1 DUP1 PUSH1 0xA0 SHL SUB DUP3 AND PUSH0 MSTORE PUSH1 0x20 MSTORE PUSH1 0xFF PUSH1 0x40 PUSH0 KECCAK256 SLOAD AND SWAP4 PUSH0 MSTORE PUSH1 0x44 PUSH1 0x20 MSTORE PUSH1 0x40 PUSH0 KECCAK256 SWAP1 PUSH1 0x1 DUP1 PUSH1 0xA0 SHL SUB AND PUSH0 MSTORE PUSH1 0x20 MSTORE PUSH1 0xFF PUSH1 0x40 PUSH0 KECCAK256 SLOAD AND SWAP2 MLOAD SWAP1 MLOAD ISZERO ISZERO SWAP2 JUMPDEST PUSH1 0x40 MLOAD SWAP4 ISZERO ISZERO DUP5 MSTORE ISZERO ISZERO PUSH1 0x20 DUP5 ADD MSTORE PUSH1 0x40 DUP4 ADD MSTORE ISZERO ISZERO PUSH1 0x60 DUP3 ADD MSTORE RETURN JUMPDEST DUP2 PUSH0 MSTORE PUSH1 0x41 PUSH1 0x20 MSTORE PUSH1 0x40 PUSH0 KECCAK256 SWAP1 PUSH1 0x40 MLOAD SWAP1 PUSH2 0xF67 DUP3 PUSH2 0x1AA8 JUMP JUMPDEST DUP3 SLOAD DUP3 MSTORE PUSH1 0x1 DUP4 ADD SLOAD PUSH1 0x20 DUP4 ADD MSTORE PUSH1 0x2 DUP4 ADD SLOAD PUSH1 0x40 DUP4 ADD MSTORE PUSH1 0xC0 PUSH1 0xFF PUSH1 0x6 PUSH1 0x3 DUP7 ADD SLOAD SWAP6 PUSH1 0x60 DUP7 ADD SWAP7 DUP8 MSTORE PUSH1 0x4 DUP2 ADD SLOAD DUP10 DUP8 ADD MSTORE PUSH1 0x5 DUP2 ADD SLOAD PUSH1 0xA0 DUP8 ADD MSTORE ADD SLOAD AND SWAP3 ADD SWAP2 ISZERO ISZERO DUP3 MSTORE DUP4 PUSH0 MSTORE PUSH1 0x43 PUSH1 0x20 MSTORE PUSH1 0x40 PUSH0 KECCAK256 PUSH1 0x1 DUP1 PUSH1 0xA0 SHL SUB DUP3 AND PUSH0 MSTORE PUSH1 0x20 MSTORE PUSH1 0xFF PUSH1 0x40 PUSH0 KECCAK256 SLOAD AND SWAP4 PUSH0 MSTORE PUSH1 0x45 PUSH1 0x20 MSTORE PUSH1 0x40 PUSH0 KECCAK256 SWAP1 PUSH1 0x1 DUP1 PUSH1 0xA0 SHL SUB AND PUSH0 MSTORE PUSH1 0x20 MSTORE PUSH1 0xFF PUSH1 0x40 PUSH0 KECCAK256 SLOAD AND SWAP2 MLOAD SWAP1 MLOAD ISZERO ISZERO SWAP2 PUSH2 0xF30 JUMP JUMPDEST CALLVALUE PUSH2 0x23E JUMPI PUSH1 0x20 CALLDATASIZE PUSH1 0x3 NOT ADD SLT PUSH2 0x23E JUMPI PUSH1 0x4 CALLDATALOAD PUSH1 0x8 DUP2 LT ISZERO PUSH2 0x23E JUMPI PUSH1 0x20 SWAP1 PUSH1 0x18 ADD SLOAD PUSH1 0x40 MLOAD SWAP1 DUP2 MSTORE RETURN JUMPDEST CALLVALUE PUSH2 0x23E JUMPI PUSH0 CALLDATASIZE PUSH1 0x3 NOT ADD SLT PUSH2 0x23E JUMPI PUSH1 0x34 SLOAD PUSH1 0x40 MLOAD PUSH1 0x1 PUSH1 0x1 PUSH1 0xA0 SHL SUB SWAP1 SWAP2 AND DUP2 MSTORE PUSH1 0x20 SWAP1 RETURN JUMPDEST CALLVALUE PUSH2 0x23E JUMPI PUSH0 CALLDATASIZE PUSH1 0x3 NOT ADD SLT PUSH2 0x23E JUMPI PUSH1 0x1 SLOAD PUSH1 0x40 MLOAD PUSH1 0x1 PUSH1 0x1 PUSH1 0xA0 SHL SUB SWAP1 SWAP2 AND DUP2 MSTORE PUSH1 0x20 SWAP1 RETURN JUMPDEST CALLVALUE PUSH2 0x23E JUMPI PUSH0 CALLDATASIZE PUSH1 0x3 NOT ADD SLT PUSH2 0x23E JUMPI PUSH1 0x20 PUSH1 0x31 SLOAD PUSH1 0x40 MLOAD SWAP1 DUP2 MSTORE RETURN JUMPDEST CALLVALUE PUSH2 0x23E JUMPI PUSH0 CALLDATASIZE PUSH1 0x3 NOT ADD SLT PUSH2 0x23E JUMPI PUSH1 0x20 PUSH1 0x40 MLOAD PUSH3 0x93A80 DUP2 MSTORE RETURN JUMPDEST PUSH0 CALLDATASIZE PUSH1 0x3 NOT ADD SLT PUSH2 0x23E JUMPI PUSH1 0x3C SLOAD PUSH3 0x93A80 DUP2 ADD DUP1 DUP3 GT PUSH2 0x53C JUMPI TIMESTAMP LT ISZERO PUSH2 0x11B7 JUMPI JUMPDEST POP PUSH1 0x3A SLOAD PUSH0 MSTORE PUSH1 0x42 PUSH1 0x20 MSTORE PUSH1 0x40 PUSH0 KECCAK256 PUSH1 0x1 DUP1 PUSH1 0xA0 SHL SUB CALLER AND PUSH0 MSTORE PUSH1 0x20 MSTORE PUSH2 0x1106 PUSH1 0xFF PUSH1 0x40 PUSH0 KECCAK256 SLOAD AND ISZERO PUSH2 0x1D6D JUMP JUMPDEST PUSH1 0x3E SLOAD PUSH1 0x1 PUSH1 0x40 SHL DUP2 LT ISZERO PUSH2 0x6DC JUMPI DUP1 PUSH1 0x1 PUSH2 0x1127 SWAP3 ADD PUSH1 0x3E SSTORE PUSH1 0x3E PUSH2 0x1A93 JUMP JUMPDEST DUP2 SLOAD SWAP1 PUSH1 0x3 SHL SWAP1 CALLER DUP3 SHL SWAP2 PUSH1 0x1 DUP1 PUSH1 0xA0 SHL SUB SWAP1 SHL NOT AND OR SWAP1 SSTORE PUSH1 0x3A SLOAD PUSH0 MSTORE PUSH1 0x42 PUSH1 0x20 MSTORE PUSH1 0x40 PUSH0 KECCAK256 PUSH1 0x1 DUP1 PUSH1 0xA0 SHL SUB CALLER AND PUSH0 MSTORE PUSH1 0x20 MSTORE PUSH1 0x40 PUSH0 KECCAK256 PUSH1 0x1 PUSH1 0xFF NOT DUP3 SLOAD AND OR SWAP1 SSTORE PUSH1 0x3A SLOAD PUSH32 0x577158C2E8120577A90C3A1EE00AD3D7ACBADBA003577F10F7BA8AE958C5AF42 PUSH1 0x40 MLOAD PUSH1 0x40 DUP2 MSTORE PUSH2 0xCC4 PUSH1 0x40 DUP3 ADD PUSH1 0x40 SWAP1 PUSH1 0x6 DUP2 MSTORE PUSH6 0x5765656B6C79 PUSH1 0xD0 SHL PUSH1 0x20 DUP3 ADD MSTORE ADD SWAP1 JUMP JUMPDEST PUSH1 0x3E SLOAD PUSH2 0x12B2 SWAP2 SELFBALANCE PUSH1 0x1 SHR SWAP2 PUSH32 0xB486E0C214F6D65E1072CC27C74ADA7881CA4CC7D3B577A0C141F48BA0FBFBF5 SWAP2 PUSH2 0x1283 SWAP1 DUP3 ISZERO PUSH2 0x1308 JUMPI PUSH1 0x6 PUSH2 0x11FB DUP5 DUP8 PUSH2 0x1C20 JUMP JUMPDEST SWAP6 JUMPDEST PUSH1 0x3A SLOAD SWAP1 PUSH1 0x40 MLOAD SWAP4 PUSH2 0x120E DUP6 PUSH2 0x1AA8 JUMP JUMPDEST DUP3 DUP6 MSTORE PUSH1 0x20 DUP6 ADD SWAP2 DUP8 DUP4 MSTORE PUSH1 0x40 DUP7 ADD SWAP1 DUP2 MSTORE PUSH1 0x60 DUP7 ADD SWAP1 DUP11 DUP3 MSTORE PUSH1 0x80 DUP8 ADD SWAP3 DUP4 MSTORE PUSH1 0xA0 DUP8 ADD SWAP4 TIMESTAMP DUP6 MSTORE PUSH1 0xC0 DUP9 ADD SWAP6 PUSH1 0x1 DUP8 MSTORE PUSH0 MSTORE PUSH1 0x40 PUSH1 0x20 MSTORE PUSH1 0x40 PUSH0 KECCAK256 SWAP8 MLOAD DUP9 SSTORE MLOAD PUSH1 0x1 DUP9 ADD SSTORE MLOAD PUSH1 0x2 DUP8 ADD SSTORE MLOAD PUSH1 0x3 DUP7 ADD SSTORE MLOAD PUSH1 0x4 DUP6 ADD SSTORE MLOAD PUSH1 0x5 DUP5 ADD SSTORE MLOAD ISZERO ISZERO SWAP2 ADD SWAP1 PUSH1 0xFF DUP1 NOT DUP4 SLOAD AND SWAP2 ISZERO ISZERO AND OR SWAP1 SSTORE JUMP JUMPDEST PUSH1 0x3A SLOAD SWAP3 PUSH1 0x40 MLOAD SWAP2 DUP3 SWAP2 PUSH1 0x80 DUP4 MSTORE PUSH2 0xDCE PUSH1 0x80 DUP5 ADD PUSH1 0x40 SWAP1 PUSH1 0x6 DUP2 MSTORE PUSH6 0x5765656B6C79 PUSH1 0xD0 SHL PUSH1 0x20 DUP3 ADD MSTORE ADD SWAP1 JUMP JUMPDEST PUSH1 0x3A SSTORE TIMESTAMP PUSH1 0x3C SSTORE PUSH1 0x3E SLOAD PUSH0 PUSH1 0x3E SSTORE DUP1 ISZERO PUSH2 0x10D8 JUMPI PUSH1 0x3E PUSH0 MSTORE PUSH32 0x8D800D6614D35EED73733EE453164A3B48076EB3138F466ADEEB9DEC7BB31F70 SWAP1 DUP2 ADD SWAP1 JUMPDEST DUP2 DUP2 LT PUSH2 0x12FD JUMPI POP PUSH2 0x10D8 JUMP JUMPDEST PUSH0 DUP2 SSTORE PUSH1 0x1 ADD PUSH2 0x12F0 JUMP JUMPDEST PUSH1 0x6 PUSH0 SWAP6 PUSH2 0x11FD JUMP JUMPDEST CALLVALUE PUSH2 0x23E JUMPI PUSH1 0x40 CALLDATASIZE PUSH1 0x3 NOT ADD SLT PUSH2 0x23E JUMPI PUSH2 0x132A PUSH2 0x1A33 JUMP JUMPDEST PUSH1 0x4 CALLDATALOAD PUSH0 MSTORE PUSH1 0x43 PUSH1 0x20 MSTORE PUSH1 0x40 PUSH0 KECCAK256 SWAP1 PUSH1 0x1 DUP1 PUSH1 0xA0 SHL SUB AND PUSH0 MSTORE PUSH1 0x20 MSTORE PUSH1 0x20 PUSH1 0xFF PUSH1 0x40 PUSH0 KECCAK256 SLOAD AND PUSH1 0x40 MLOAD SWAP1 ISZERO ISZERO DUP2 MSTORE RETURN JUMPDEST CALLVALUE PUSH2 0x23E JUMPI PUSH0 CALLDATASIZE PUSH1 0x3 NOT ADD SLT PUSH2 0x23E JUMPI PUSH1 0x20 PUSH1 0x40 MLOAD PUSH1 0xA DUP2 MSTORE RETURN JUMPDEST CALLVALUE PUSH2 0x23E JUMPI PUSH0 CALLDATASIZE PUSH1 0x3 NOT ADD SLT PUSH2 0x23E JUMPI PUSH1 0x20 PUSH1 0x36 SLOAD PUSH1 0x40 MLOAD SWAP1 DUP2 MSTORE RETURN JUMPDEST CALLVALUE PUSH2 0x23E JUMPI PUSH1 0x20 CALLDATASIZE PUSH1 0x3 NOT ADD SLT PUSH2 0x23E JUMPI PUSH1 0x4 CALLDATALOAD DUP1 PUSH0 MSTORE PUSH1 0x41 PUSH1 0x20 MSTORE PUSH32 0x1A3BE26D9BA470AD16BB376AA13666C5C90511B63416723049A5ADFFEAEFA647 PUSH1 0x40 PUSH0 KECCAK256 PUSH2 0x1430 PUSH1 0xC0 PUSH1 0x40 MLOAD PUSH2 0x13E4 DUP2 PUSH2 0x1AA8 JUMP JUMPDEST DUP4 SLOAD DUP2 MSTORE PUSH1 0x1 DUP5 ADD SLOAD PUSH1 0x20 DUP3 ADD MSTORE PUSH1 0x2 DUP5 ADD SLOAD PUSH1 0x40 DUP3 ADD MSTORE PUSH1 0xFF PUSH1 0x6 PUSH1 0x3 DUP7 ADD SLOAD SWAP6 PUSH1 0x60 DUP5 ADD SWAP7 DUP8 MSTORE PUSH1 0x4 DUP2 ADD SLOAD PUSH1 0x80 DUP6 ADD MSTORE PUSH1 0x5 DUP2 ADD SLOAD PUSH1 0xA0 DUP6 ADD MSTORE ADD SLOAD AND ISZERO ISZERO SWAP2 DUP3 SWAP2 ADD MSTORE PUSH2 0x1B1E JUMP JUMPDEST PUSH0 DUP4 DUP2 MSTORE PUSH1 0x43 PUSH1 0x20 SWAP1 DUP2 MSTORE PUSH1 0x40 DUP1 DUP4 KECCAK256 CALLER DUP5 MSTORE SWAP1 SWAP2 MSTORE SWAP1 KECCAK256 SLOAD PUSH2 0x1455 SWAP1 PUSH1 0xFF AND PUSH2 0x1B61 JUMP JUMPDEST PUSH0 DUP4 DUP2 MSTORE PUSH1 0x45 PUSH1 0x20 SWAP1 DUP2 MSTORE PUSH1 0x40 DUP1 DUP4 KECCAK256 CALLER DUP5 MSTORE SWAP1 SWAP2 MSTORE SWAP1 KECCAK256 SLOAD PUSH2 0x147B SWAP1 PUSH1 0xFF AND ISZERO PUSH2 0x1B9D JUMP JUMPDEST PUSH2 0x1487 DUP2 MLOAD ISZERO ISZERO PUSH2 0x1BDB JUMP JUMPDEST PUSH0 DUP4 DUP2 MSTORE PUSH1 0x45 PUSH1 0x20 SWAP1 DUP2 MSTORE PUSH1 0x40 DUP1 DUP4 KECCAK256 CALLER DUP5 MSTORE SWAP1 SWAP2 MSTORE SWAP1 DUP2 SWAP1 KECCAK256 DUP1 SLOAD PUSH1 0xFF NOT AND PUSH1 0x1 OR SWAP1 SSTORE SWAP1 MLOAD SWAP1 MLOAD PUSH1 0x60 DUP1 DUP3 MSTORE PUSH1 0x7 SWAP1 DUP3 ADD MSTORE PUSH7 0x4D6F6E74686C79 PUSH1 0xC8 SHL PUSH1 0x80 DUP3 ADD MSTORE SWAP1 PUSH1 0xA0 DUP3 ADD JUMPDEST SWAP4 PUSH1 0x20 DUP4 ADD MSTORE PUSH1 0x40 DUP3 ADD MSTORE DUP1 CALLER SWAP4 SUB SWAP1 LOG2 STOP JUMPDEST CALLVALUE PUSH2 0x23E JUMPI PUSH1 0x20 CALLDATASIZE PUSH1 0x3 NOT ADD SLT PUSH2 0x23E JUMPI PUSH1 0x4 CALLDATALOAD DUP1 PUSH0 MSTORE PUSH1 0x2B PUSH1 0x20 MSTORE PUSH1 0x40 PUSH0 KECCAK256 PUSH2 0x1518 PUSH1 0x1 DUP1 PUSH1 0xA0 SHL SUB DUP3 SLOAD AND CALLER EQ PUSH2 0x1C9F JUMP JUMPDEST PUSH1 0x6 DUP2 ADD SWAP1 DUP2 SLOAD SWAP2 PUSH1 0xF DUP4 LT ISZERO PUSH2 0x16BD JUMPI PUSH2 0x1532 DUP4 PUSH2 0x1A49 JUMP JUMPDEST SWAP1 SLOAD PUSH0 DUP1 SLOAD PUSH1 0x40 MLOAD PUSH4 0x23B872DD PUSH1 0xE0 SHL DUP2 MSTORE CALLER PUSH1 0x4 DUP3 ADD MSTORE ADDRESS PUSH1 0x24 DUP3 ADD MSTORE PUSH1 0x3 SWAP5 SWAP1 SWAP5 SHL SWAP3 SWAP1 SWAP3 SHR PUSH1 0x44 DUP5 ADD DUP2 SWAP1 MSTORE SWAP4 SWAP3 SWAP2 PUSH1 0x20 SWAP2 DUP4 SWAP2 PUSH1 0x64 SWAP2 DUP4 SWAP2 PUSH1 0x1 PUSH1 0x1 PUSH1 0xA0 SHL SUB AND GAS CALL DUP1 ISZERO PUSH2 0x71D JUMPI PUSH2 0x16A0 JUMPI JUMPDEST POP DUP1 SLOAD SWAP1 PUSH1 0x1 DUP3 ADD DUP1 SWAP3 GT PUSH2 0x53C JUMPI SSTORE PUSH1 0xA DUP3 ADD PUSH2 0x15A3 DUP3 DUP3 SLOAD PUSH2 0x1CF6 JUMP JUMPDEST SWAP1 SSTORE PUSH2 0x15D3 PUSH1 0x40 MLOAD PUSH2 0x15B4 DUP2 PUSH2 0x1AC4 JUMP JUMPDEST DUP3 DUP2 MSTORE PUSH0 PUSH1 0x20 DUP3 ADD MSTORE TIMESTAMP PUSH1 0x40 DUP3 ADD MSTORE PUSH1 0x1 PUSH1 0x60 DUP3 ADD MSTORE PUSH1 0x1 DUP5 ADD PUSH2 0x1D03 JUMP JUMPDEST PUSH1 0x5 DUP2 MUL DUP2 ISZERO SWAP1 DUP3 DUP2 DIV PUSH1 0x5 EQ DUP3 OR ISZERO PUSH2 0x53C JUMPI PUSH1 0x23 DUP4 MUL DUP4 DUP2 DIV PUSH1 0x23 EQ DUP4 OR ISZERO PUSH2 0x53C JUMPI PUSH2 0x1609 SWAP2 PUSH2 0x4D6 PUSH1 0x64 DUP1 SWAP4 DIV PUSH2 0x20A2 JUMP JUMPDEST PUSH1 0xF DUP3 MUL SWAP2 DUP3 DIV PUSH1 0xF EQ OR ISZERO PUSH2 0x53C JUMPI PUSH1 0x64 SWAP1 DIV SWAP2 PUSH1 0x4 DUP3 ADD SLOAD PUSH1 0x1 DUP3 ADD SWAP4 DUP5 DUP4 GT PUSH2 0x53C JUMPI DUP6 PUSH1 0x5 PUSH2 0x1657 SWAP6 PUSH2 0x1643 DUP9 DUP6 DUP6 DUP3 SWAP9 PUSH2 0x234F JUMP JUMPDEST ADD PUSH2 0x1651 DUP5 DUP5 DUP5 DUP5 SLOAD PUSH2 0x24C6 JUMP JUMPDEST SLOAD PUSH2 0x26B4 JUMP JUMPDEST PUSH1 0x40 MLOAD SWAP1 DUP2 MSTORE PUSH1 0x40 PUSH1 0x20 DUP3 ADD MSTORE PUSH1 0x4 PUSH1 0x40 DUP3 ADD MSTORE PUSH4 0x14DB1BDD PUSH1 0xE2 SHL PUSH1 0x60 DUP3 ADD MSTORE PUSH32 0xBABB6A363FD9A057996D09882C0B74B710D121707D19EEFFD91C51C3171A7C91 PUSH1 0x80 CALLER SWAP3 LOG3 STOP JUMPDEST PUSH2 0x16B8 SWAP1 PUSH1 0x20 RETURNDATASIZE PUSH1 0x20 GT PUSH2 0x716 JUMPI PUSH2 0x709 DUP2 DUP4 PUSH2 0x1AFC JUMP JUMPDEST PUSH2 0x1584 JUMP JUMPDEST PUSH1 0x40 MLOAD PUSH3 0x461BCD PUSH1 0xE5 SHL DUP2 MSTORE PUSH1 0x20 PUSH1 0x4 DUP3 ADD MSTORE PUSH1 0x14 PUSH1 0x24 DUP3 ADD MSTORE PUSH20 0x105B1C9958591E48185D081B585E081B195D995B PUSH1 0x62 SHL PUSH1 0x44 DUP3 ADD MSTORE PUSH1 0x64 SWAP1 REVERT JUMPDEST CALLVALUE PUSH2 0x23E JUMPI PUSH1 0x20 CALLDATASIZE PUSH1 0x3 NOT ADD SLT PUSH2 0x23E JUMPI PUSH1 0x4 CALLDATALOAD PUSH1 0x37 SLOAD DUP2 LT ISZERO PUSH2 0x23E JUMPI PUSH1 0x37 SLOAD DUP2 LT ISZERO PUSH2 0x9FD JUMPI PUSH1 0x37 PUSH0 MSTORE PUSH32 0x42A7B7DD785CD69714A189DFFB3FD7D7174EDC9ECE837694CE50F7078F7C31AE ADD SLOAD PUSH1 0x40 MLOAD SWAP1 DUP2 MSTORE PUSH1 0x20 SWAP1 RETURN JUMPDEST CALLVALUE PUSH2 0x23E JUMPI PUSH0 CALLDATASIZE PUSH1 0x3 NOT ADD SLT PUSH2 0x23E JUMPI PUSH1 0x20 PUSH1 0x40 MLOAD PUSH1 0xF DUP2 MSTORE RETURN JUMPDEST CALLVALUE PUSH2 0x23E JUMPI PUSH0 CALLDATASIZE PUSH1 0x3 NOT ADD SLT PUSH2 0x23E JUMPI PUSH1 0x20 PUSH1 0x40 MLOAD PUSH8 0xDE0B6B3A7640000 DUP2 MSTORE RETURN JUMPDEST CALLVALUE PUSH2 0x23E JUMPI PUSH0 CALLDATASIZE PUSH1 0x3 NOT ADD SLT PUSH2 0x23E JUMPI PUSH1 0x20 PUSH1 0x40 MLOAD PUSH3 0x15180 DUP2 MSTORE RETURN JUMPDEST CALLVALUE PUSH2 0x23E JUMPI PUSH0 CALLDATASIZE PUSH1 0x3 NOT ADD SLT PUSH2 0x23E JUMPI PUSH0 SLOAD PUSH1 0x40 MLOAD PUSH1 0x1 PUSH1 0x1 PUSH1 0xA0 SHL SUB SWAP1 SWAP2 AND DUP2 MSTORE PUSH1 0x20 SWAP1 RETURN JUMPDEST CALLVALUE PUSH2 0x23E JUMPI PUSH0 CALLDATASIZE PUSH1 0x3 NOT ADD SLT PUSH2 0x23E JUMPI PUSH1 0x20 PUSH1 0x33 SLOAD PUSH1 0x40 MLOAD SWAP1 DUP2 MSTORE RETURN JUMPDEST CALLVALUE PUSH2 0x23E JUMPI PUSH0 CALLDATASIZE PUSH1 0x3 NOT ADD SLT PUSH2 0x23E JUMPI PUSH1 0x20 PUSH1 0x40 MLOAD PUSH3 0x278D00 DUP2 MSTORE RETURN JUMPDEST CALLVALUE PUSH2 0x23E JUMPI PUSH1 0x20 CALLDATASIZE PUSH1 0x3 NOT ADD SLT PUSH2 0x23E JUMPI PUSH1 0x40 PUSH2 0x182C PUSH1 0x4 CALLDATALOAD PUSH2 0x1C3E JUMP JUMPDEST DUP3 MLOAD SWAP2 DUP3 MSTORE PUSH1 0x20 DUP3 ADD MSTORE RETURN JUMPDEST CALLVALUE PUSH2 0x23E JUMPI PUSH1 0x20 CALLDATASIZE PUSH1 0x3 NOT ADD SLT PUSH2 0x23E JUMPI PUSH1 0x4 CALLDATALOAD PUSH1 0x8 SLOAD DUP2 LT ISZERO PUSH2 0x23E JUMPI PUSH1 0x8 SLOAD DUP2 LT ISZERO PUSH2 0x9FD JUMPI PUSH1 0x8 PUSH0 MSTORE PUSH32 0xF3F7A9FE364FAAB93B216DA50A3214154F22A0A2B415B23A84C8169E8B636EE3 ADD SLOAD PUSH1 0x40 MLOAD SWAP1 DUP2 MSTORE PUSH1 0x20 SWAP1 RETURN JUMPDEST CALLVALUE PUSH2 0x23E JUMPI PUSH1 0x20 CALLDATASIZE PUSH1 0x3 NOT ADD SLT PUSH2 0x23E JUMPI PUSH1 0x4 CALLDATALOAD PUSH1 0x7 DUP2 LT ISZERO PUSH2 0x23E JUMPI PUSH1 0x20 SWAP1 PUSH1 0x9 ADD SLOAD PUSH1 0x40 MLOAD SWAP1 DUP2 MSTORE RETURN JUMPDEST CALLVALUE PUSH2 0x23E JUMPI PUSH1 0x40 CALLDATASIZE PUSH1 0x3 NOT ADD SLT PUSH2 0x23E JUMPI PUSH2 0x18D7 PUSH2 0x1A33 JUMP JUMPDEST PUSH1 0x4 CALLDATALOAD PUSH0 MSTORE PUSH1 0x45 PUSH1 0x20 MSTORE PUSH1 0x40 PUSH0 KECCAK256 SWAP1 PUSH1 0x1 DUP1 PUSH1 0xA0 SHL SUB AND PUSH0 MSTORE PUSH1 0x20 MSTORE PUSH1 0x20 PUSH1 0xFF PUSH1 0x40 PUSH0 KECCAK256 SLOAD AND PUSH1 0x40 MLOAD SWAP1 ISZERO ISZERO DUP2 MSTORE RETURN JUMPDEST CALLVALUE PUSH2 0x23E JUMPI PUSH1 0x20 CALLDATASIZE PUSH1 0x3 NOT ADD SLT PUSH2 0x23E JUMPI PUSH1 0x4 CALLDATALOAD DUP1 PUSH0 MSTORE PUSH1 0x40 PUSH1 0x20 MSTORE PUSH32 0x1A3BE26D9BA470AD16BB376AA13666C5C90511B63416723049A5ADFFEAEFA647 PUSH1 0x40 PUSH0 KECCAK256 PUSH2 0x1959 PUSH1 0xC0 PUSH1 0x40 MLOAD PUSH2 0x13E4 DUP2 PUSH2 0x1AA8 JUMP JUMPDEST PUSH0 DUP4 DUP2 MSTORE PUSH1 0x42 PUSH1 0x20 SWAP1 DUP2 MSTORE PUSH1 0x40 DUP1 DUP4 KECCAK256 CALLER DUP5 MSTORE SWAP1 SWAP2 MSTORE SWAP1 KECCAK256 SLOAD PUSH2 0x197E SWAP1 PUSH1 0xFF AND PUSH2 0x1B61 JUMP JUMPDEST PUSH0 DUP4 DUP2 MSTORE PUSH1 0x44 PUSH1 0x20 SWAP1 DUP2 MSTORE PUSH1 0x40 DUP1 DUP4 KECCAK256 CALLER DUP5 MSTORE SWAP1 SWAP2 MSTORE SWAP1 KECCAK256 SLOAD PUSH2 0x19A4 SWAP1 PUSH1 0xFF AND ISZERO PUSH2 0x1B9D JUMP JUMPDEST PUSH2 0x19B0 DUP2 MLOAD ISZERO ISZERO PUSH2 0x1BDB JUMP JUMPDEST PUSH0 DUP4 DUP2 MSTORE PUSH1 0x44 PUSH1 0x20 SWAP1 DUP2 MSTORE PUSH1 0x40 DUP1 DUP4 KECCAK256 CALLER DUP5 MSTORE SWAP1 SWAP2 MSTORE SWAP1 DUP2 SWAP1 KECCAK256 DUP1 SLOAD PUSH1 0xFF NOT AND PUSH1 0x1 OR SWAP1 SSTORE SWAP1 MLOAD SWAP1 MLOAD PUSH1 0x60 DUP1 DUP3 MSTORE PUSH1 0x6 SWAP1 DUP3 ADD MSTORE PUSH6 0x5765656B6C79 PUSH1 0xD0 SHL PUSH1 0x80 DUP3 ADD MSTORE SWAP1 PUSH1 0xA0 DUP3 ADD PUSH2 0x14D1 JUMP JUMPDEST CALLVALUE PUSH2 0x23E JUMPI PUSH0 CALLDATASIZE PUSH1 0x3 NOT ADD SLT PUSH2 0x23E JUMPI PUSH1 0x20 PUSH1 0x40 MLOAD PUSH2 0x2710 DUP2 MSTORE RETURN JUMPDEST CALLVALUE PUSH2 0x23E JUMPI PUSH0 CALLDATASIZE PUSH1 0x3 NOT ADD SLT PUSH2 0x23E JUMPI PUSH1 0x20 SWAP1 PUSH1 0x35 SLOAD DUP2 MSTORE RETURN JUMPDEST PUSH1 0x24 CALLDATALOAD SWAP1 PUSH1 0x1 PUSH1 0x1 PUSH1 0xA0 SHL SUB DUP3 AND DUP3 SUB PUSH2 0x23E JUMPI JUMP JUMPDEST PUSH1 0x6 SLOAD DUP2 LT ISZERO PUSH2 0x9FD JUMPI PUSH1 0x6 PUSH0 MSTORE PUSH1 0x20 PUSH0 KECCAK256 ADD SWAP1 PUSH0 SWAP1 JUMP JUMPDEST PUSH1 0x6 SLOAD ISZERO PUSH2 0x9FD JUMPI PUSH1 0x6 PUSH0 SWAP1 DUP2 MSTORE PUSH32 0xF652222313E28459528D920B65115C16C04F3EFC82AAEDC97BE59F3F377C0D3F SWAP2 JUMP JUMPDEST DUP1 SLOAD DUP3 LT ISZERO PUSH2 0x9FD JUMPI PUSH0 MSTORE PUSH1 0x20 PUSH0 KECCAK256 ADD SWAP1 PUSH0 SWAP1 JUMP JUMPDEST PUSH1 0xE0 DUP2 ADD SWAP1 DUP2 LT PUSH8 0xFFFFFFFFFFFFFFFF DUP3 GT OR PUSH2 0x6DC JUMPI PUSH1 0x40 MSTORE JUMP JUMPDEST PUSH1 0x80 DUP2 ADD SWAP1 DUP2 LT PUSH8 0xFFFFFFFFFFFFFFFF DUP3 GT OR PUSH2 0x6DC JUMPI PUSH1 0x40 MSTORE JUMP JUMPDEST PUSH1 0xA0 DUP2 ADD SWAP1 DUP2 LT PUSH8 0xFFFFFFFFFFFFFFFF DUP3 GT OR PUSH2 0x6DC JUMPI PUSH1 0x40 MSTORE JUMP JUMPDEST SWAP1 PUSH1 0x1F DUP1 NOT SWAP2 ADD AND DUP2 ADD SWAP1 DUP2 LT PUSH8 0xFFFFFFFFFFFFFFFF DUP3 GT OR PUSH2 0x6DC JUMPI PUSH1 0x40 MSTORE JUMP JUMPDEST ISZERO PUSH2 0x1B25 JUMPI JUMP JUMPDEST PUSH1 0x40 MLOAD PUSH3 0x461BCD PUSH1 0xE5 SHL DUP2 MSTORE PUSH1 0x20 PUSH1 0x4 DUP3 ADD MSTORE PUSH1 0x14 PUSH1 0x24 DUP3 ADD MSTORE PUSH20 0x149BDD5B99081B9BDD0818DB1BDCD959081E595D PUSH1 0x62 SHL PUSH1 0x44 DUP3 ADD MSTORE PUSH1 0x64 SWAP1 REVERT JUMPDEST ISZERO PUSH2 0x1B68 JUMPI JUMP JUMPDEST PUSH1 0x40 MLOAD PUSH3 0x461BCD PUSH1 0xE5 SHL DUP2 MSTORE PUSH1 0x20 PUSH1 0x4 DUP3 ADD MSTORE PUSH1 0xD PUSH1 0x24 DUP3 ADD MSTORE PUSH13 0x139BDD081C5D585B1A599A5959 PUSH1 0x9A SHL PUSH1 0x44 DUP3 ADD MSTORE PUSH1 0x64 SWAP1 REVERT JUMPDEST ISZERO PUSH2 0x1BA4 JUMPI JUMP JUMPDEST PUSH1 0x40 MLOAD PUSH3 0x461BCD PUSH1 0xE5 SHL DUP2 MSTORE PUSH1 0x20 PUSH1 0x4 DUP3 ADD MSTORE PUSH1 0xF PUSH1 0x24 DUP3 ADD MSTORE PUSH15 0x105B1C9958591E4818DB185A5B5959 PUSH1 0x8A SHL PUSH1 0x44 DUP3 ADD MSTORE PUSH1 0x64 SWAP1 REVERT JUMPDEST ISZERO PUSH2 0x1BE2 JUMPI JUMP JUMPDEST PUSH1 0x40 MLOAD PUSH3 0x461BCD PUSH1 0xE5 SHL DUP2 MSTORE PUSH1 0x20 PUSH1 0x4 DUP3 ADD MSTORE PUSH1 0x9 PUSH1 0x24 DUP3 ADD MSTORE PUSH9 0x139BC81C995DD85C99 PUSH1 0xBA SHL PUSH1 0x44 DUP3 ADD MSTORE PUSH1 0x64 SWAP1 REVERT JUMPDEST SWAP2 SWAP1 DUP3 SUB SWAP2 DUP3 GT PUSH2 0x53C JUMPI JUMP JUMPDEST DUP2 ISZERO PUSH2 0x1C2A JUMPI DIV SWAP1 JUMP JUMPDEST PUSH4 0x4E487B71 PUSH1 0xE0 SHL PUSH0 MSTORE PUSH1 0x12 PUSH1 0x4 MSTORE PUSH1 0x24 PUSH0 REVERT JUMPDEST SWAP1 DUP2 PUSH0 MSTORE PUSH1 0x2B PUSH1 0x20 MSTORE PUSH1 0x3 PUSH1 0x40 PUSH0 KECCAK256 ADD SLOAD ISZERO PUSH2 0x1C98 JUMPI PUSH1 0x31 SLOAD DUP3 PUSH0 MSTORE PUSH1 0x32 PUSH1 0x20 MSTORE PUSH1 0x40 PUSH0 KECCAK256 SLOAD SWAP1 DUP2 DUP2 GT ISZERO PUSH2 0x1C8E JUMPI PUSH2 0x1C83 PUSH2 0x1C8B SWAP3 PUSH8 0xDE0B6B3A7640000 SWAP3 PUSH2 0x1C13 JUMP JUMPDEST DIV DUP1 SWAP4 PUSH2 0x2036 JUMP JUMPDEST SWAP1 JUMP JUMPDEST POP POP SWAP1 POP PUSH0 SWAP1 PUSH0 SWAP1 JUMP JUMPDEST PUSH0 SWAP2 POP DUP2 SWAP1 JUMP JUMPDEST ISZERO PUSH2 0x1CA6 JUMPI JUMP JUMPDEST PUSH1 0x40 MLOAD PUSH3 0x461BCD PUSH1 0xE5 SHL DUP2 MSTORE PUSH1 0x20 PUSH1 0x4 DUP3 ADD MSTORE PUSH1 0x10 PUSH1 0x24 DUP3 ADD MSTORE PUSH16 0x139BDD081E5BDD5C881858D8DBDD5B9D PUSH1 0x82 SHL PUSH1 0x44 DUP3 ADD MSTORE PUSH1 0x64 SWAP1 REVERT JUMPDEST SWAP1 DUP2 PUSH1 0x20 SWAP2 SUB SLT PUSH2 0x23E JUMPI MLOAD DUP1 ISZERO ISZERO DUP2 SUB PUSH2 0x23E JUMPI SWAP1 JUMP JUMPDEST SWAP2 SWAP1 DUP3 ADD DUP1 SWAP3 GT PUSH2 0x53C JUMPI JUMP JUMPDEST DUP1 SLOAD PUSH1 0x1 PUSH1 0x40 SHL DUP2 LT ISZERO PUSH2 0x6DC JUMPI PUSH1 0x1 DUP2 ADD DUP1 DUP4 SSTORE DUP2 LT ISZERO PUSH2 0x9FD JUMPI PUSH1 0x3 PUSH1 0x60 SWAP2 PUSH1 0xFF SWAP4 PUSH0 MSTORE PUSH1 0x20 PUSH0 KECCAK256 SWAP1 PUSH1 0x2 SHL ADD DUP5 MLOAD DUP2 SSTORE PUSH1 0x20 DUP6 ADD MLOAD PUSH1 0x1 DUP3 ADD SSTORE PUSH1 0x40 DUP6 ADD MLOAD PUSH1 0x2 DUP3 ADD SSTORE ADD SWAP3 ADD MLOAD AND PUSH1 0xFF NOT DUP3 SLOAD AND OR SWAP1 SSTORE JUMP JUMPDEST DUP2 DUP2 MUL SWAP3 SWAP2 DUP2 ISZERO SWAP2 DUP5 DIV EQ OR ISZERO PUSH2 0x53C JUMPI JUMP JUMPDEST ISZERO PUSH2 0x1D74 JUMPI JUMP JUMPDEST PUSH1 0x40 MLOAD PUSH3 0x461BCD PUSH1 0xE5 SHL DUP2 MSTORE PUSH1 0x20 PUSH1 0x4 DUP3 ADD MSTORE PUSH1 0x11 PUSH1 0x24 DUP3 ADD MSTORE PUSH17 0x105B1C9958591E481C5D585B1A599A5959 PUSH1 0x7A SHL PUSH1 0x44 DUP3 ADD MSTORE PUSH1 0x64 SWAP1 REVERT JUMPDEST DUP1 SLOAD SWAP1 PUSH1 0x1 PUSH1 0x40 SHL DUP3 LT ISZERO PUSH2 0x6DC JUMPI PUSH1 0x1 DUP3 ADD DUP1 DUP3 SSTORE DUP3 LT ISZERO PUSH2 0x9FD JUMPI PUSH1 0x4 SWAP2 PUSH1 0x80 SWAP2 PUSH0 MSTORE PUSH1 0x5 PUSH1 0x20 PUSH0 KECCAK256 SWAP2 MUL ADD SWAP3 DUP1 MLOAD DUP5 SSTORE PUSH1 0x20 DUP2 ADD MLOAD PUSH1 0x1 DUP6 ADD SSTORE PUSH1 0x40 DUP2 ADD MLOAD PUSH1 0x2 DUP6 ADD SSTORE PUSH1 0x60 DUP2 ADD MLOAD PUSH1 0x3 DUP6 ADD SSTORE ADD MLOAD SWAP2 ADD SSTORE JUMP JUMPDEST DUP1 PUSH0 MSTORE PUSH1 0x2B PUSH1 0x20 MSTORE PUSH1 0x40 PUSH0 KECCAK256 SWAP1 PUSH1 0x3 DUP3 ADD SLOAD ISZERO PUSH2 0x1FDD JUMPI PUSH2 0x1E30 PUSH1 0x1 DUP1 PUSH1 0xA0 SHL SUB DUP4 SLOAD AND CALLER EQ PUSH2 0x1C9F JUMP JUMPDEST PUSH1 0x31 SLOAD SWAP2 DUP2 PUSH0 MSTORE PUSH1 0x32 PUSH1 0x20 MSTORE PUSH1 0x40 PUSH0 KECCAK256 SLOAD DUP1 DUP5 EQ PUSH2 0x1FD7 JUMPI PUSH2 0x1E5B PUSH8 0xDE0B6B3A7640000 SWAP2 DUP6 PUSH2 0x1C13 JUMP JUMPDEST DIV SWAP2 DUP3 ISZERO PUSH2 0x1FC6 JUMPI PUSH2 0x1E6D DUP4 DUP3 PUSH2 0x2036 JUMP JUMPDEST SWAP4 DUP2 PUSH0 MSTORE PUSH1 0x32 PUSH1 0x20 MSTORE PUSH1 0x40 PUSH0 KECCAK256 SSTORE DUP4 DUP1 PUSH2 0x1EA3 JUMPI JUMPDEST SWAP2 POP POP DUP2 GT PUSH2 0x1E8F JUMPI POP POP JUMP JUMPDEST PUSH2 0x1EA1 SWAP2 PUSH2 0x1E9C SWAP2 PUSH2 0x1C13 JUMP JUMPDEST PUSH2 0x2109 JUMP JUMPDEST JUMP JUMPDEST PUSH2 0x1F4B SWAP3 PUSH2 0x1F0D DUP4 PUSH1 0x20 SWAP5 PUSH0 MSTORE PUSH1 0x2C DUP6 MSTORE PUSH1 0x7 PUSH1 0x40 PUSH0 KECCAK256 PUSH2 0x1EC5 DUP7 DUP3 SLOAD PUSH2 0x1CF6 JUMP JUMPDEST DUP2 SSTORE ADD PUSH2 0x1ED3 DUP6 DUP3 SLOAD PUSH2 0x1CF6 JUMP JUMPDEST SWAP1 SSTORE DUP1 PUSH0 MSTORE PUSH1 0x2D DUP6 MSTORE PUSH1 0x40 PUSH0 KECCAK256 PUSH1 0x40 MLOAD SWAP2 PUSH2 0x1EED DUP4 PUSH2 0x1AE0 JUMP JUMPDEST DUP3 MSTORE DUP5 DUP7 DUP4 ADD MSTORE PUSH1 0x1 PUSH1 0x40 DUP4 ADD MSTORE TIMESTAMP PUSH1 0x60 DUP4 ADD MSTORE PUSH1 0x9 PUSH1 0x80 DUP4 ADD MSTORE PUSH2 0x1DAD JUMP JUMPDEST PUSH0 DUP1 SLOAD SWAP2 SLOAD PUSH1 0x40 MLOAD PUSH4 0xA9059CBB PUSH1 0xE0 SHL DUP2 MSTORE PUSH1 0x1 PUSH1 0x1 PUSH1 0xA0 SHL SUB SWAP2 DUP3 AND PUSH1 0x4 DUP3 ADD MSTORE PUSH1 0x24 DUP2 ADD SWAP5 SWAP1 SWAP5 MSTORE SWAP3 SWAP5 DUP6 SWAP4 SWAP1 SWAP3 AND SWAP2 DUP4 SWAP2 SWAP1 DUP3 SWAP1 PUSH1 0x44 DUP3 ADD SWAP1 JUMP JUMPDEST SUB SWAP3 GAS CALL SWAP1 DUP2 ISZERO PUSH2 0x71D JUMPI PUSH0 SWAP2 PUSH2 0x1FA7 JUMPI JUMPDEST POP ISZERO PUSH2 0x1F6B JUMPI PUSH0 DUP1 DUP4 PUSH2 0x1E82 JUMP JUMPDEST PUSH1 0x40 MLOAD PUSH3 0x461BCD PUSH1 0xE5 SHL DUP2 MSTORE PUSH1 0x20 PUSH1 0x4 DUP3 ADD MSTORE PUSH1 0x14 PUSH1 0x24 DUP3 ADD MSTORE PUSH20 0x1554D115081D1C985B9CD9995C8819985A5B1959 PUSH1 0x62 SHL PUSH1 0x44 DUP3 ADD MSTORE PUSH1 0x64 SWAP1 REVERT JUMPDEST PUSH2 0x1FC0 SWAP2 POP PUSH1 0x20 RETURNDATASIZE PUSH1 0x20 GT PUSH2 0x716 JUMPI PUSH2 0x709 DUP2 DUP4 PUSH2 0x1AFC JUMP JUMPDEST PUSH0 PUSH2 0x1F5D JUMP JUMPDEST SWAP2 POP POP PUSH0 MSTORE PUSH1 0x32 PUSH1 0x20 MSTORE PUSH1 0x40 PUSH0 KECCAK256 SSTORE JUMP JUMPDEST POP POP POP POP JUMP JUMPDEST PUSH1 0x40 MLOAD PUSH3 0x461BCD PUSH1 0xE5 SHL DUP2 MSTORE PUSH1 0x20 PUSH1 0x4 DUP3 ADD MSTORE PUSH1 0xE PUSH1 0x24 DUP3 ADD MSTORE PUSH14 0x155CD95C881B9BDD08199BDD5B99 PUSH1 0x92 SHL PUSH1 0x44 DUP3 ADD MSTORE PUSH1 0x64 SWAP1 REVERT JUMPDEST SWAP1 DUP2 SLOAD SWAP2 PUSH1 0x1 PUSH1 0x40 SHL DUP4 LT ISZERO PUSH2 0x6DC JUMPI DUP3 PUSH2 0x3BE SWAP2 PUSH1 0x1 PUSH2 0x1EA1 SWAP6 ADD DUP2 SSTORE PUSH2 0x1A93 JUMP JUMPDEST DUP1 PUSH0 MSTORE PUSH1 0x2B PUSH1 0x20 MSTORE PUSH1 0x40 PUSH0 KECCAK256 SWAP1 PUSH0 MSTORE PUSH1 0x2C PUSH1 0x20 MSTORE PUSH1 0xA PUSH2 0x206C PUSH1 0x40 PUSH0 KECCAK256 SWAP3 PUSH1 0xF SWAP1 PUSH1 0x1 PUSH1 0x8 DUP3 ADD SLOAD GT PUSH2 0x2099 JUMPI JUMPDEST DUP4 ADD SLOAD PUSH2 0x1D5A JUMP JUMPDEST DIV SWAP1 SLOAD DUP2 DUP2 LT ISZERO PUSH2 0x2092 JUMPI PUSH2 0x2080 SWAP2 PUSH2 0x1C13 JUMP JUMPDEST SWAP1 DUP2 DUP2 GT ISZERO PUSH2 0x208D JUMPI POP SWAP1 JUMP JUMPDEST SWAP1 POP SWAP1 JUMP JUMPDEST POP POP POP PUSH0 SWAP1 JUMP JUMPDEST PUSH1 0x14 SWAP2 POP PUSH2 0x2064 JUMP JUMPDEST PUSH1 0x37 SLOAD SWAP1 DUP2 ISZERO DUP1 ISZERO PUSH2 0x2101 JUMPI JUMPDEST PUSH2 0x20EE JUMPI PUSH8 0xDE0B6B3A7640000 DUP2 MUL SWAP1 DUP1 DUP3 DIV PUSH8 0xDE0B6B3A7640000 EQ SWAP1 ISZERO OR ISZERO PUSH2 0x53C JUMPI PUSH2 0x20E9 SWAP2 PUSH2 0x20E1 SWAP2 PUSH2 0x1C20 JUMP JUMPDEST PUSH1 0x31 SLOAD PUSH2 0x1CF6 JUMP JUMPDEST PUSH1 0x31 SSTORE JUMP JUMPDEST DUP1 SWAP2 POP PUSH2 0x20F8 JUMPI POP JUMP JUMPDEST PUSH2 0x1EA1 SWAP1 PUSH2 0x2109 JUMP JUMPDEST POP DUP1 ISZERO PUSH2 0x20AF JUMP JUMPDEST PUSH1 0x1 SLOAD PUSH1 0x1 PUSH1 0x1 PUSH1 0xA0 SHL SUB AND SWAP1 DUP2 ISZERO PUSH2 0x21D6 JUMPI PUSH0 DUP1 SLOAD PUSH1 0x40 MLOAD PUSH4 0xA9059CBB PUSH1 0xE0 SHL DUP2 MSTORE PUSH1 0x1 PUSH1 0x1 PUSH1 0xA0 SHL SUB SWAP5 DUP6 AND PUSH1 0x4 DUP3 ADD MSTORE PUSH1 0x24 DUP2 ADD DUP5 SWAP1 MSTORE SWAP4 PUSH1 0x20 SWAP3 DUP6 SWAP3 PUSH1 0x44 SWAP3 DUP5 SWAP3 SWAP2 AND GAS CALL SWAP2 DUP3 ISZERO PUSH2 0x71D JUMPI PUSH2 0x1EA1 SWAP3 PUSH2 0x21B9 JUMPI JUMPDEST POP PUSH1 0x4 SLOAD PUSH0 MSTORE PUSH1 0x2C PUSH1 0x20 MSTORE PUSH1 0x40 PUSH0 KECCAK256 PUSH2 0x217C DUP3 DUP3 SLOAD PUSH2 0x1CF6 JUMP JUMPDEST SWAP1 SSTORE PUSH1 0x4 SLOAD PUSH0 MSTORE PUSH1 0x2D PUSH1 0x20 MSTORE PUSH1 0x40 PUSH0 KECCAK256 PUSH1 0x40 MLOAD SWAP2 PUSH2 0x2199 DUP4 PUSH2 0x1AE0 JUMP JUMPDEST PUSH0 DUP4 MSTORE PUSH1 0x20 DUP4 ADD MSTORE PUSH0 PUSH1 0x40 DUP4 ADD MSTORE TIMESTAMP PUSH1 0x60 DUP4 ADD MSTORE PUSH1 0x5 PUSH1 0x80 DUP4 ADD MSTORE PUSH2 0x1DAD JUMP JUMPDEST PUSH2 0x21D1 SWAP1 PUSH1 0x20 RETURNDATASIZE PUSH1 0x20 GT PUSH2 0x716 JUMPI PUSH2 0x709 DUP2 DUP4 PUSH2 0x1AFC JUMP JUMPDEST PUSH2 0x2162 JUMP JUMPDEST PUSH1 0x40 MLOAD PUSH3 0x461BCD PUSH1 0xE5 SHL DUP2 MSTORE PUSH1 0x20 PUSH1 0x4 DUP3 ADD MSTORE PUSH1 0x11 PUSH1 0x24 DUP3 ADD MSTORE PUSH17 0x199959481859191C9CC81B9BDD081CD95D PUSH1 0x7A SHL PUSH1 0x44 DUP3 ADD MSTORE PUSH1 0x64 SWAP1 REVERT JUMPDEST DUP1 ISZERO DUP1 ISZERO PUSH2 0x2344 JUMPI JUMPDEST PUSH2 0x2339 JUMPI PUSH0 DUP2 DUP2 MSTORE PUSH1 0x2B PUSH1 0x20 SWAP1 DUP2 MSTORE PUSH1 0x40 DUP1 DUP4 KECCAK256 DUP4 SLOAD DUP2 SLOAD SWAP3 MLOAD PUSH4 0xA9059CBB PUSH1 0xE0 SHL DUP2 MSTORE PUSH1 0x1 PUSH1 0x1 PUSH1 0xA0 SHL SUB SWAP4 DUP5 AND PUSH1 0x4 DUP3 ADD MSTORE PUSH1 0x24 DUP2 ADD DUP10 SWAP1 MSTORE SWAP2 SWAP6 SWAP5 SWAP2 SWAP4 SWAP3 DUP5 SWAP3 PUSH1 0x44 SWAP3 DUP5 SWAP3 AND GAS CALL DUP1 ISZERO PUSH2 0x71D JUMPI PUSH2 0x231C JUMPI JUMPDEST POP DUP1 PUSH0 MSTORE PUSH1 0x2C PUSH1 0x20 MSTORE PUSH1 0x1 PUSH1 0x40 PUSH0 KECCAK256 PUSH2 0x2288 DUP7 DUP3 SLOAD PUSH2 0x1CF6 JUMP JUMPDEST DUP2 SSTORE ADD PUSH2 0x2296 DUP6 DUP3 SLOAD PUSH2 0x1CF6 JUMP JUMPDEST SWAP1 SSTORE PUSH0 MSTORE PUSH1 0x2D PUSH1 0x20 MSTORE PUSH2 0x22D5 PUSH1 0x40 PUSH0 KECCAK256 PUSH1 0x40 MLOAD SWAP1 PUSH2 0x22B3 DUP3 PUSH2 0x1AE0 JUMP JUMPDEST DUP5 DUP3 MSTORE DUP6 PUSH1 0x20 DUP4 ADD MSTORE PUSH1 0x1 PUSH1 0x40 DUP4 ADD MSTORE TIMESTAMP PUSH1 0x60 DUP4 ADD MSTORE PUSH1 0x1 PUSH1 0x80 DUP4 ADD MSTORE PUSH2 0x1DAD JUMP JUMPDEST PUSH1 0x1 DUP1 PUSH1 0xA0 SHL SUB SWAP1 SLOAD AND SWAP1 PUSH0 MSTORE PUSH1 0x2B PUSH1 0x20 MSTORE PUSH0 MLOAD PUSH1 0x20 PUSH2 0x28DE PUSH0 CODECOPY PUSH0 MLOAD SWAP1 PUSH0 MSTORE PUSH1 0x60 PUSH1 0x1 DUP1 PUSH1 0xA0 SHL SUB PUSH1 0x40 PUSH0 KECCAK256 SLOAD AND SWAP4 PUSH1 0x40 MLOAD SWAP1 DUP2 MSTORE PUSH1 0x1 PUSH1 0x20 DUP3 ADD MSTORE PUSH1 0x1 PUSH1 0x40 DUP3 ADD MSTORE LOG3 JUMP JUMPDEST PUSH2 0x2334 SWAP1 PUSH1 0x20 RETURNDATASIZE PUSH1 0x20 GT PUSH2 0x716 JUMPI PUSH2 0x709 DUP2 DUP4 PUSH2 0x1AFC JUMP JUMPDEST PUSH2 0x226E JUMP JUMPDEST POP POP PUSH2 0x1EA1 SWAP1 PUSH2 0x2109 JUMP JUMPDEST POP PUSH1 0x4 SLOAD DUP2 EQ PUSH2 0x2218 JUMP JUMPDEST SWAP1 SWAP2 DUP2 ISZERO DUP1 ISZERO PUSH2 0x24AD JUMPI JUMPDEST PUSH2 0x24A0 JUMPI DUP2 PUSH0 MSTORE PUSH1 0x2B PUSH1 0x20 MSTORE PUSH1 0x40 PUSH0 KECCAK256 PUSH1 0x1 DUP6 SUB PUSH2 0x2484 JUMPI JUMPDEST PUSH0 DUP1 SLOAD DUP3 SLOAD PUSH1 0x40 MLOAD PUSH4 0xA9059CBB PUSH1 0xE0 SHL DUP2 MSTORE PUSH1 0x1 PUSH1 0x1 PUSH1 0xA0 SHL SUB SWAP2 DUP3 AND PUSH1 0x4 DUP3 ADD MSTORE PUSH1 0x24 DUP2 ADD DUP7 SWAP1 MSTORE SWAP6 SWAP5 SWAP4 SWAP3 PUSH1 0x20 SWAP3 DUP8 SWAP3 PUSH1 0x44 SWAP3 DUP5 SWAP3 SWAP1 SWAP2 AND GAS CALL SWAP3 DUP4 ISZERO PUSH2 0x71D JUMPI PUSH0 MLOAD PUSH1 0x20 PUSH2 0x28DE PUSH0 CODECOPY PUSH0 MLOAD SWAP1 PUSH0 MSTORE SWAP5 PUSH1 0x60 SWAP5 PUSH2 0x2467 JUMPI JUMPDEST POP DUP1 PUSH0 MSTORE PUSH1 0x2C PUSH1 0x20 MSTORE PUSH1 0x1 PUSH1 0x40 PUSH0 KECCAK256 PUSH2 0x23E7 DUP6 DUP3 SLOAD PUSH2 0x1CF6 JUMP JUMPDEST DUP2 SSTORE ADD PUSH2 0x23F5 DUP5 DUP3 SLOAD PUSH2 0x1CF6 JUMP JUMPDEST SWAP1 SSTORE PUSH0 MSTORE PUSH1 0x2D PUSH1 0x20 MSTORE PUSH2 0x2432 PUSH1 0x40 PUSH0 KECCAK256 PUSH1 0x40 MLOAD SWAP1 PUSH2 0x2412 DUP3 PUSH2 0x1AE0 JUMP JUMPDEST DUP8 DUP3 MSTORE DUP5 PUSH1 0x20 DUP4 ADD MSTORE DUP9 PUSH1 0x40 DUP4 ADD MSTORE TIMESTAMP DUP7 DUP4 ADD MSTORE PUSH1 0x1 PUSH1 0x80 DUP4 ADD MSTORE PUSH2 0x1DAD JUMP JUMPDEST PUSH1 0x1 DUP1 PUSH1 0xA0 SHL SUB SWAP1 SLOAD AND SWAP4 PUSH0 MSTORE PUSH1 0x2B PUSH1 0x20 MSTORE PUSH1 0x1 DUP1 PUSH1 0xA0 SHL SUB PUSH1 0x40 PUSH0 KECCAK256 SLOAD AND SWAP5 PUSH1 0x40 MLOAD SWAP2 DUP3 MSTORE PUSH1 0x20 DUP3 ADD MSTORE PUSH1 0x1 PUSH1 0x40 DUP3 ADD MSTORE LOG3 JUMP JUMPDEST PUSH2 0x247F SWAP1 PUSH1 0x20 RETURNDATASIZE PUSH1 0x20 GT PUSH2 0x716 JUMPI PUSH2 0x709 DUP2 DUP4 PUSH2 0x1AFC JUMP JUMPDEST PUSH2 0x23CD JUMP JUMPDEST PUSH1 0x2 PUSH1 0x7 DUP3 ADD SLOAD LT ISZERO PUSH2 0x2373 JUMPI JUMPDEST POP SWAP2 POP POP PUSH2 0x1EA1 SWAP2 POP PUSH2 0x2109 JUMP JUMPDEST SWAP2 POP POP PUSH2 0x1EA1 SWAP2 POP PUSH2 0x2109 JUMP JUMPDEST POP PUSH1 0x4 SLOAD DUP3 EQ PUSH2 0x235A JUMP JUMPDEST PUSH0 NOT DUP2 EQ PUSH2 0x53C JUMPI PUSH1 0x1 ADD SWAP1 JUMP JUMPDEST SWAP4 SWAP2 SWAP4 SWAP3 SWAP1 SWAP3 PUSH1 0x1 SWAP1 PUSH1 0x4 SLOAD DUP2 EQ DUP1 ISZERO PUSH2 0x26AC JUMPI JUMPDEST PUSH2 0x2647 JUMPI SWAP1 JUMPDEST DUP3 DUP2 LT PUSH2 0x266B JUMPI POP SWAP3 PUSH0 SWAP4 JUMPDEST DUP1 ISZERO ISZERO DUP1 PUSH2 0x265F JUMPI JUMPDEST DUP1 PUSH2 0x2655 JUMPI JUMPDEST ISZERO PUSH2 0x2647 JUMPI DUP1 PUSH0 MSTORE PUSH1 0x2B PUSH1 0x20 MSTORE PUSH1 0x40 PUSH0 KECCAK256 SWAP1 DUP4 PUSH1 0x6 DUP4 ADD SLOAD LT ISZERO PUSH2 0x252F JUMPI POP PUSH1 0x5 PUSH2 0x2529 SWAP2 ADD SLOAD SWAP5 PUSH2 0x24B8 JUMP JUMPDEST SWAP4 PUSH2 0x24ED JUMP JUMPDEST PUSH0 DUP1 SLOAD DUP4 SLOAD PUSH1 0x40 MLOAD PUSH4 0xA9059CBB PUSH1 0xE0 SHL DUP2 MSTORE PUSH1 0x1 PUSH1 0x1 PUSH1 0xA0 SHL SUB SWAP2 DUP3 AND PUSH1 0x4 DUP3 ADD MSTORE PUSH1 0x24 DUP2 ADD DUP12 SWAP1 MSTORE SWAP8 SWAP10 SWAP7 SWAP9 POP SWAP5 SWAP7 SWAP6 SWAP3 SWAP5 SWAP3 SWAP4 SWAP3 PUSH1 0x20 SWAP3 DUP8 SWAP3 PUSH1 0x44 SWAP3 DUP5 SWAP3 SWAP2 AND GAS CALL SWAP3 DUP4 ISZERO PUSH2 0x71D JUMPI PUSH0 MLOAD PUSH1 0x20 PUSH2 0x28DE PUSH0 CODECOPY PUSH0 MLOAD SWAP1 PUSH0 MSTORE SWAP5 PUSH1 0x60 SWAP5 PUSH2 0x262B JUMPI JUMPDEST POP DUP1 PUSH0 MSTORE PUSH1 0x2C PUSH1 0x20 MSTORE PUSH1 0x2 PUSH1 0x40 PUSH0 KECCAK256 PUSH2 0x25AB DUP6 DUP3 SLOAD PUSH2 0x1CF6 JUMP JUMPDEST DUP2 SSTORE ADD PUSH2 0x25B9 DUP5 DUP3 SLOAD PUSH2 0x1CF6 JUMP JUMPDEST SWAP1 SSTORE PUSH0 MSTORE PUSH1 0x2D PUSH1 0x20 MSTORE PUSH2 0x25F6 PUSH1 0x40 PUSH0 KECCAK256 PUSH1 0x40 MLOAD SWAP1 PUSH2 0x25D6 DUP3 PUSH2 0x1AE0 JUMP JUMPDEST DUP8 DUP3 MSTORE DUP5 PUSH1 0x20 DUP4 ADD MSTORE DUP9 PUSH1 0x40 DUP4 ADD MSTORE TIMESTAMP DUP7 DUP4 ADD MSTORE PUSH1 0x2 PUSH1 0x80 DUP4 ADD MSTORE PUSH2 0x1DAD JUMP JUMPDEST PUSH1 0x1 DUP1 PUSH1 0xA0 SHL SUB SWAP1 SLOAD AND SWAP4 PUSH0 MSTORE PUSH1 0x2B PUSH1 0x20 MSTORE PUSH1 0x1 DUP1 PUSH1 0xA0 SHL SUB PUSH1 0x40 PUSH0 KECCAK256 SLOAD AND SWAP5 PUSH1 0x40 MLOAD SWAP2 DUP3 MSTORE PUSH1 0x20 DUP3 ADD MSTORE PUSH1 0x2 PUSH1 0x40 DUP3 ADD MSTORE LOG3 JUMP JUMPDEST PUSH2 0x2642 SWAP1 PUSH1 0x20 RETURNDATASIZE DUP2 GT PUSH2 0x716 JUMPI PUSH2 0x709 DUP2 DUP4 PUSH2 0x1AFC JUMP JUMPDEST PUSH2 0x2591 JUMP JUMPDEST POP POP POP SWAP2 PUSH2 0x1EA1 SWAP2 POP PUSH2 0x2109 JUMP JUMPDEST POP PUSH1 0xF DUP6 LT PUSH2 0x24FC JUMP JUMPDEST POP PUSH1 0x4 SLOAD DUP2 EQ ISZERO PUSH2 0x24F6 JUMP JUMPDEST PUSH2 0x2674 SWAP1 PUSH2 0x24B8 JUMP JUMPDEST SWAP1 PUSH0 MSTORE PUSH1 0x2B PUSH1 0x20 MSTORE PUSH1 0x5 PUSH1 0x40 PUSH0 KECCAK256 ADD SLOAD SWAP1 PUSH1 0x4 SLOAD DUP3 EQ DUP1 ISZERO PUSH2 0x26A4 JUMPI JUMPDEST ISZERO PUSH2 0x24E1 JUMPI POP POP POP SWAP2 PUSH2 0x1EA1 SWAP2 POP PUSH2 0x2109 JUMP JUMPDEST POP DUP2 ISZERO PUSH2 0x2691 JUMP JUMPDEST POP DUP1 ISZERO PUSH2 0x24DB JUMP JUMPDEST SWAP4 SWAP2 SWAP1 SWAP3 SWAP4 DUP1 ISZERO DUP1 ISZERO PUSH2 0x28D2 JUMPI JUMPDEST PUSH2 0x2492 JUMPI DUP3 ISZERO PUSH2 0x2492 JUMPI PUSH2 0x26EA PUSH2 0x26D9 DUP5 DUP5 PUSH2 0x1C20 JUMP JUMPDEST SWAP3 PUSH2 0x26E4 DUP6 DUP6 PUSH2 0x1D5A JUMP JUMPDEST SWAP1 PUSH2 0x1C13 JUMP JUMPDEST SWAP5 PUSH1 0x1 SWAP2 SWAP5 PUSH0 JUMPDEST DUP6 DUP2 LT PUSH2 0x2707 JUMPI POP POP POP POP POP POP POP DUP1 PUSH2 0x20F8 JUMPI POP JUMP JUMPDEST DUP7 ISZERO ISZERO DUP1 PUSH2 0x28C6 JUMPI JUMPDEST PUSH2 0x2745 JUMPI JUMPDEST PUSH1 0x1 SWAP1 DUP8 ISZERO DUP1 ISZERO PUSH2 0x273A JUMPI JUMPDEST PUSH2 0x272C JUMPI JUMPDEST ADD PUSH2 0x26F1 JUMP JUMPDEST PUSH2 0x2735 DUP7 PUSH2 0x2109 JUMP JUMPDEST PUSH2 0x2726 JUMP JUMPDEST POP PUSH1 0x4 SLOAD DUP9 EQ PUSH2 0x2721 JUMP JUMPDEST SWAP3 DUP7 PUSH0 SWAP8 SWAP3 SWAP8 MSTORE PUSH1 0x2B PUSH1 0x20 MSTORE DUP3 PUSH1 0x6 PUSH1 0x40 PUSH0 KECCAK256 ADD SLOAD LT ISZERO PUSH0 EQ PUSH2 0x28A4 JUMPI PUSH0 JUMPDEST DUP2 DUP2 LT PUSH2 0x2789 JUMPI POP POP PUSH0 MSTORE PUSH1 0x2B PUSH1 0x20 MSTORE PUSH1 0x5 PUSH1 0x40 PUSH0 KECCAK256 ADD SLOAD SWAP5 PUSH1 0x1 DUP1 SWAP4 JUMPDEST SWAP1 POP PUSH2 0x2715 JUMP JUMPDEST PUSH0 DUP4 DUP2 MSTORE PUSH1 0x2B PUSH1 0x20 SWAP1 DUP2 MSTORE PUSH1 0x40 DUP1 DUP4 KECCAK256 SLOAD DUP4 SLOAD SWAP2 MLOAD PUSH4 0xA9059CBB PUSH1 0xE0 SHL DUP2 MSTORE PUSH1 0x1 PUSH1 0x1 PUSH1 0xA0 SHL SUB SWAP2 DUP3 AND PUSH1 0x4 DUP3 ADD DUP2 SWAP1 MSTORE PUSH1 0x24 DUP3 ADD DUP13 SWAP1 MSTORE SWAP1 SWAP6 SWAP5 SWAP1 SWAP4 SWAP3 DUP7 SWAP3 PUSH1 0x44 SWAP3 DUP5 SWAP3 SWAP1 SWAP2 AND GAS CALL SWAP3 DUP4 ISZERO PUSH2 0x71D JUMPI PUSH1 0x1 SWAP4 PUSH2 0x2888 JUMPI JUMPDEST POP DUP5 PUSH0 MSTORE PUSH1 0x2C PUSH1 0x20 MSTORE PUSH1 0x3 PUSH1 0x40 PUSH0 KECCAK256 PUSH2 0x27FC DUP11 DUP3 SLOAD PUSH2 0x1CF6 JUMP JUMPDEST DUP2 SSTORE ADD PUSH2 0x280A DUP10 DUP3 SLOAD PUSH2 0x1CF6 JUMP JUMPDEST SWAP1 SSTORE DUP5 PUSH0 MSTORE PUSH1 0x2D PUSH1 0x20 MSTORE PUSH2 0x2849 PUSH1 0x40 PUSH0 KECCAK256 PUSH1 0x40 MLOAD SWAP1 PUSH2 0x2828 DUP3 PUSH2 0x1AE0 JUMP JUMPDEST DUP13 DUP3 MSTORE DUP11 PUSH1 0x20 DUP4 ADD MSTORE DUP9 PUSH1 0x40 DUP4 ADD MSTORE TIMESTAMP PUSH1 0x60 DUP4 ADD MSTORE PUSH1 0x4 PUSH1 0x80 DUP4 ADD MSTORE PUSH2 0x1DAD JUMP JUMPDEST DUP10 PUSH0 MSTORE PUSH1 0x2B PUSH1 0x20 MSTORE DUP3 DUP1 PUSH1 0xA0 SHL SUB PUSH1 0x40 PUSH0 KECCAK256 SLOAD AND SWAP1 PUSH0 MLOAD PUSH1 0x20 PUSH2 0x28DE PUSH0 CODECOPY PUSH0 MLOAD SWAP1 PUSH0 MSTORE PUSH1 0x60 PUSH1 0x40 MLOAD DUP12 DUP2 MSTORE DUP10 PUSH1 0x20 DUP3 ADD MSTORE PUSH1 0x4 PUSH1 0x40 DUP3 ADD MSTORE LOG3 ADD PUSH2 0x2764 JUMP JUMPDEST PUSH2 0x289F SWAP1 PUSH1 0x20 RETURNDATASIZE DUP2 GT PUSH2 0x716 JUMPI PUSH2 0x709 DUP2 DUP4 PUSH2 0x1AFC JUMP JUMPDEST PUSH2 0x27E2 JUMP JUMPDEST SWAP6 SWAP1 PUSH0 MSTORE PUSH1 0x2B PUSH1 0x20 MSTORE PUSH1 0x1 PUSH2 0x28C0 PUSH1 0x5 PUSH1 0x40 PUSH0 KECCAK256 ADD SLOAD SWAP8 PUSH2 0x24B8 JUMP JUMPDEST SWAP4 PUSH2 0x2782 JUMP JUMPDEST POP PUSH1 0x4 SLOAD DUP8 EQ ISZERO PUSH2 0x2710 JUMP JUMPDEST POP PUSH1 0x4 SLOAD DUP2 EQ PUSH2 0x26C2 JUMP INVALID RJUMPI 0x7B61 0xD3 0x24 0xCE OR ORIGIN DUP16 NUMBER RETURNDATASIZE EXP 0xB6 0x25 DUP2 0xC0 CREATE 0xAA SWAP10 PUSH20 0x12BAE80FBDFCD2AA9B91D6E3A264697066735822 SLT KECCAK256 CALL EXTCODESIZE GASLIMIT PUSH17 0xFC74DEC4E08512AC374D23AC3F4E86E889 MSTORE 0x1F 0xB3 0x23 DIV ADDRESS 0xAC SWAP9 0xED CALLCODE CALLDATASIZE PUSH5 0x736F6C6343 STOP ADDMOD 0x1E STOP CALLER 0xA6 PUSH13 0xC928B5EDB82AF9BD4992295415 GAS 0xB7 0xB0 SWAP5 0x26 SWAP5 0xBE LOG4 0xCE PREVRANDAO PUSH7 0x1D9A8736C688F3 0xF7 0xA9 INVALID CALLDATASIZE 0x4F 0xAA 0xB9 EXTCODESIZE 0x21 PUSH14 0xA50A3214154F22A0A2B415B23A84 0xC8 AND SWAP15 DUP12 PUSH4 0x6EE3F652 0x22 0x23 SGT 0xE2 DUP5 MSIZE MSTORE DUP14 SWAP3 SIGNEXTEND PUSH6 0x115C16C04F3E 0xFC DUP3 0xAA 0xED 0xC9 PUSH28 0xE59F3F377C0D3F000000000000000000000000000000000000000000 "
		},
		"gasEstimates": {
			"creation": {
				"codeDepositCost": "2109400",
				"executionCost": "infinite",
				"totalCost": "infinite"
			},
			"external": {
				"ACC_PRECISION()": "395",
				"MONTH_DURATION()": "307",
				"PERCENTS_DIVIDER()": "175",
				"ROI_CAP_DIVIDER()": "527",
				"ROI_CAP_MULTIPLIER()": "417",
				"TIME_STEP()": "373",
				"WEEK_DURATION()": "593",
				"claimCommunity(uint256)": "infinite",
				"claimMonthlyReward(uint256)": "47069",
				"claimWeeklyReward(uint256)": "46794",
				"communityAccPerUser()": "2718",
				"creatorWallet()": "2764",
				"currentMonthlyRound()": "3070",
				"currentWeeklyRound()": "3092",
				"defaultRefId()": "3180",
				"getUserRoundStatus(address,uint256,bool)": "20439",
				"glbBoosterPackages(uint256)": "6637",
				"hasClaimedMonthly(uint256,address)": "2551",
				"hasClaimedWeekly(uint256,address)": "3079",
				"isMonthlyQualified(uint256,address)": "2881",
				"isWeeklyQualified(uint256,address)": "3211",
				"lastLotteryRun()": "2248",
				"lastLotteryWinner()": "2786",
				"lastMonthlyReset()": "2894",
				"lastWeeklyReset()": "3026",
				"lotteryInterval()": "2608",
				"lotteryPool()": "2432",
				"minLevelForGlbBooster(uint256)": "3152",
				"minLevelForPool(uint256)": "2382",
				"minPoolForGlbBooster(uint256)": "2822",
				"monthlyRounds(uint256)": "16101",
				"packages(uint256)": "7404",
				"pendingCommunity(uint256)": "infinite",
				"poolPackages(uint256)": "7231",
				"qualifiedMonthly(uint256)": "7208",
				"qualifiedWeekly(uint256)": "7230",
				"qualifyMonthly()": "infinite",
				"qualifyWeekly()": "infinite",
				"register(uint256)": "infinite",
				"registeredUserIds(uint256)": "6813",
				"systemMaintance()": "3182",
				"teamDevelopment()": "3267",
				"totalUsers()": "3004",
				"upgrade(uint256)": "infinite",
				"usdt()": "2477",
				"weeklyRounds(uint256)": "15771"
			}
		},
		"methodIdentifiers": {
			"ACC_PRECISION()": "32fcd966",
			"MONTH_DURATION()": "2a891534",
			"PERCENTS_DIVIDER()": "01c234a8",
			"ROI_CAP_DIVIDER()": "58c7d352",
			"ROI_CAP_MULTIPLIER()": "375b43b4",
			"TIME_STEP()": "32bc298c",
			"WEEK_DURATION()": "76f5f700",
			"claimCommunity(uint256)": "d54d6ddb",
			"claimMonthlyReward(uint256)": "51a4f04e",
			"claimWeeklyReward(uint256)": "0a3f5a42",
			"communityAccPerUser()": "78f6ad6d",
			"creatorWallet()": "7cdc65f2",
			"currentMonthlyRound()": "c9ed0708",
			"currentWeeklyRound()": "ca8e9121",
			"defaultRefId()": "ec597e6f",
			"getUserRoundStatus(address,uint256,bool)": "9680003d",
			"glbBoosterPackages(uint256)": "2350268f",
			"hasClaimedMonthly(uint256,address)": "1c1da18e",
			"hasClaimedWeekly(uint256,address)": "a22b9e87",
			"isMonthlyQualified(uint256,address)": "5e5bb367",
			"isWeeklyQualified(uint256,address)": "b4ba97fc",
			"lastLotteryRun()": "01be02b2",
			"lastLotteryWinner()": "81a0b816",
			"lastMonthlyReset()": "a6791eae",
			"lastWeeklyReset()": "c1c13b2f",
			"lotteryInterval()": "52a8c4c4",
			"lotteryPool()": "2c831633",
			"minLevelForGlbBooster(uint256)": "d0a2fd79",
			"minLevelForPool(uint256)": "2132d204",
			"minPoolForGlbBooster(uint256)": "956a3228",
			"monthlyRounds(uint256)": "ef4549eb",
			"packages(uint256)": "c216212a",
			"pendingCommunity(uint256)": "24513088",
			"poolPackages(uint256)": "ae4708dc",
			"qualifiedMonthly(uint256)": "a80fee55",
			"qualifiedWeekly(uint256)": "ad127e6b",
			"qualifyMonthly()": "a058dc09",
			"qualifyWeekly()": "6b77c79d",
			"register(uint256)": "f207564e",
			"registeredUserIds(uint256)": "39ab3603",
			"systemMaintance()": "e9e34a16",
			"teamDevelopment()": "f5d74d93",
			"totalUsers()": "bff1f9e1",
			"upgrade(uint256)": "45977d03",
			"usdt()": "2f48ab7d",
			"weeklyRounds(uint256)": "a56b1815"
		}
	},
	"abi": [
		{
			"inputs": [
				{
					"internalType": "address",
					"name": "_usdt",
					"type": "address"
				},
				{
					"internalType": "address",
					"name": "_creatorWallet",
					"type": "address"
				}
			],
			"stateMutability": "nonpayable",
			"type": "constructor"
		},
		{
			"anonymous": false,
			"inputs": [
				{
					"indexed": false,
					"internalType": "uint256",
					"name": "amount",
					"type": "uint256"
				},
				{
					"indexed": false,
					"internalType": "uint256",
					"name": "usersCount",
					"type": "uint256"
				},
				{
					"indexed": false,
					"internalType": "uint256",
					"name": "perUser",
					"type": "uint256"
				}
			],
			"name": "CommunityBonusDistributed",
			"type": "event"
		},
		{
			"anonymous": false,
			"inputs": [
				{
					"indexed": true,
					"internalType": "address",
					"name": "to",
					"type": "address"
				},
				{
					"indexed": true,
					"internalType": "address",
					"name": "from",
					"type": "address"
				},
				{
					"indexed": false,
					"internalType": "uint256",
					"name": "amount",
					"type": "uint256"
				},
				{
					"indexed": false,
					"internalType": "uint256",
					"name": "packageLevel",
					"type": "uint256"
				},
				{
					"indexed": false,
					"internalType": "uint256",
					"name": "incomeType",
					"type": "uint256"
				}
			],
			"name": "IncomeDistributed",
			"type": "event"
		},
		{
			"anonymous": false,
			"inputs": [
				{
					"indexed": true,
					"internalType": "address",
					"name": "winner",
					"type": "address"
				},
				{
					"indexed": true,
					"internalType": "uint256",
					"name": "fromUserId",
					"type": "uint256"
				},
				{
					"indexed": false,
					"internalType": "uint256",
					"name": "amount",
					"type": "uint256"
				},
				{
					"indexed": false,
					"internalType": "uint256",
					"name": "timestamp",
					"type": "uint256"
				}
			],
			"name": "LotteryReward",
			"type": "event"
		},
		{
			"anonymous": false,
			"inputs": [
				{
					"indexed": true,
					"internalType": "address",
					"name": "user",
					"type": "address"
				},
				{
					"indexed": true,
					"internalType": "address",
					"name": "sponsor",
					"type": "address"
				},
				{
					"indexed": true,
					"internalType": "uint256",
					"name": "userId",
					"type": "uint256"
				},
				{
					"indexed": false,
					"internalType": "uint256",
					"name": "uplineId",
					"type": "uint256"
				}
			],
			"name": "Registration",
			"type": "event"
		},
		{
			"anonymous": false,
			"inputs": [
				{
					"indexed": true,
					"internalType": "address",
					"name": "user",
					"type": "address"
				},
				{
					"indexed": false,
					"internalType": "string",
					"name": "period",
					"type": "string"
				},
				{
					"indexed": false,
					"internalType": "uint256",
					"name": "roundId",
					"type": "uint256"
				},
				{
					"indexed": false,
					"internalType": "uint256",
					"name": "amount",
					"type": "uint256"
				}
			],
			"name": "RewardClaimed",
			"type": "event"
		},
		{
			"anonymous": false,
			"inputs": [
				{
					"indexed": true,
					"internalType": "address",
					"name": "to",
					"type": "address"
				},
				{
					"indexed": false,
					"internalType": "uint256",
					"name": "amount",
					"type": "uint256"
				},
				{
					"indexed": false,
					"internalType": "string",
					"name": "level",
					"type": "string"
				}
			],
			"name": "RewardSent",
			"type": "event"
		},
		{
			"anonymous": false,
			"inputs": [
				{
					"indexed": false,
					"internalType": "string",
					"name": "period",
					"type": "string"
				},
				{
					"indexed": false,
					"internalType": "uint256",
					"name": "roundId",
					"type": "uint256"
				},
				{
					"indexed": false,
					"internalType": "uint256",
					"name": "users",
					"type": "uint256"
				},
				{
					"indexed": false,
					"internalType": "uint256",
					"name": "perUser",
					"type": "uint256"
				}
			],
			"name": "RoundEnded",
			"type": "event"
		},
		{
			"anonymous": false,
			"inputs": [
				{
					"indexed": true,
					"internalType": "address",
					"name": "user",
					"type": "address"
				},
				{
					"indexed": true,
					"internalType": "uint256",
					"name": "userId",
					"type": "uint256"
				},
				{
					"indexed": false,
					"internalType": "uint256",
					"name": "packageLevel",
					"type": "uint256"
				},
				{
					"indexed": false,
					"internalType": "string",
					"name": "depositType",
					"type": "string"
				}
			],
			"name": "Upgrade",
			"type": "event"
		},
		{
			"anonymous": false,
			"inputs": [
				{
					"indexed": true,
					"internalType": "uint8",
					"name": "matrixId",
					"type": "uint8"
				},
				{
					"indexed": true,
					"internalType": "uint32",
					"name": "userId",
					"type": "uint32"
				},
				{
					"indexed": true,
					"internalType": "address",
					"name": "user",
					"type": "address"
				},
				{
					"indexed": false,
					"internalType": "uint32",
					"name": "parentId",
					"type": "uint32"
				},
				{
					"indexed": false,
					"internalType": "address",
					"name": "parentAddr",
					"type": "address"
				},
				{
					"indexed": false,
					"internalType": "uint8",
					"name": "position",
					"type": "uint8"
				}
			],
			"name": "UserJoined",
			"type": "event"
		},
		{
			"anonymous": false,
			"inputs": [
				{
					"indexed": true,
					"internalType": "address",
					"name": "user",
					"type": "address"
				},
				{
					"indexed": false,
					"internalType": "string",
					"name": "period",
					"type": "string"
				},
				{
					"indexed": false,
					"internalType": "uint256",
					"name": "roundId",
					"type": "uint256"
				}
			],
			"name": "UserQualified",
			"type": "event"
		},
		{
			"inputs": [],
			"name": "ACC_PRECISION",
			"outputs": [
				{
					"internalType": "uint256",
					"name": "",
					"type": "uint256"
				}
			],
			"stateMutability": "view",
			"type": "function"
		},
		{
			"inputs": [],
			"name": "MONTH_DURATION",
			"outputs": [
				{
					"internalType": "uint256",
					"name": "",
					"type": "uint256"
				}
			],
			"stateMutability": "view",
			"type": "function"
		},
		{
			"inputs": [],
			"name": "PERCENTS_DIVIDER",
			"outputs": [
				{
					"internalType": "uint256",
					"name": "",
					"type": "uint256"
				}
			],
			"stateMutability": "view",
			"type": "function"
		},
		{
			"inputs": [],
			"name": "ROI_CAP_DIVIDER",
			"outputs": [
				{
					"internalType": "uint256",
					"name": "",
					"type": "uint256"
				}
			],
			"stateMutability": "view",
			"type": "function"
		},
		{
			"inputs": [],
			"name": "ROI_CAP_MULTIPLIER",
			"outputs": [
				{
					"internalType": "uint256",
					"name": "",
					"type": "uint256"
				}
			],
			"stateMutability": "view",
			"type": "function"
		},
		{
			"inputs": [],
			"name": "TIME_STEP",
			"outputs": [
				{
					"internalType": "uint256",
					"name": "",
					"type": "uint256"
				}
			],
			"stateMutability": "view",
			"type": "function"
		},
		{
			"inputs": [],
			"name": "WEEK_DURATION",
			"outputs": [
				{
					"internalType": "uint256",
					"name": "",
					"type": "uint256"
				}
			],
			"stateMutability": "view",
			"type": "function"
		},
		{
			"inputs": [
				{
					"internalType": "uint256",
					"name": "_userId",
					"type": "uint256"
				}
			],
			"name": "claimCommunity",
			"outputs": [],
			"stateMutability": "nonpayable",
			"type": "function"
		},
		{
			"inputs": [
				{
					"internalType": "uint256",
					"name": "roundId",
					"type": "uint256"
				}
			],
			"name": "claimMonthlyReward",
			"outputs": [],
			"stateMutability": "nonpayable",
			"type": "function"
		},
		{
			"inputs": [
				{
					"internalType": "uint256",
					"name": "roundId",
					"type": "uint256"
				}
			],
			"name": "claimWeeklyReward",
			"outputs": [],
			"stateMutability": "nonpayable",
			"type": "function"
		},
		{
			"inputs": [],
			"name": "communityAccPerUser",
			"outputs": [
				{
					"internalType": "uint256",
					"name": "",
					"type": "uint256"
				}
			],
			"stateMutability": "view",
			"type": "function"
		},
		{
			"inputs": [],
			"name": "creatorWallet",
			"outputs": [
				{
					"internalType": "address",
					"name": "",
					"type": "address"
				}
			],
			"stateMutability": "view",
			"type": "function"
		},
		{
			"inputs": [],
			"name": "currentMonthlyRound",
			"outputs": [
				{
					"internalType": "uint256",
					"name": "",
					"type": "uint256"
				}
			],
			"stateMutability": "view",
			"type": "function"
		},
		{
			"inputs": [],
			"name": "currentWeeklyRound",
			"outputs": [
				{
					"internalType": "uint256",
					"name": "",
					"type": "uint256"
				}
			],
			"stateMutability": "view",
			"type": "function"
		},
		{
			"inputs": [],
			"name": "defaultRefId",
			"outputs": [
				{
					"internalType": "uint256",
					"name": "",
					"type": "uint256"
				}
			],
			"stateMutability": "view",
			"type": "function"
		},
		{
			"inputs": [
				{
					"internalType": "address",
					"name": "user",
					"type": "address"
				},
				{
					"internalType": "uint256",
					"name": "roundId",
					"type": "uint256"
				},
				{
					"internalType": "bool",
					"name": "isWeekly",
					"type": "bool"
				}
			],
			"name": "getUserRoundStatus",
			"outputs": [
				{
					"internalType": "bool",
					"name": "qualified",
					"type": "bool"
				},
				{
					"internalType": "bool",
					"name": "claimed",
					"type": "bool"
				},
				{
					"internalType": "uint256",
					"name": "rewardAmount",
					"type": "uint256"
				},
				{
					"internalType": "bool",
					"name": "roundClosed",
					"type": "bool"
				}
			],
			"stateMutability": "view",
			"type": "function"
		},
		{
			"inputs": [
				{
					"internalType": "uint256",
					"name": "",
					"type": "uint256"
				}
			],
			"name": "glbBoosterPackages",
			"outputs": [
				{
					"internalType": "uint256",
					"name": "",
					"type": "uint256"
				}
			],
			"stateMutability": "view",
			"type": "function"
		},
		{
			"inputs": [
				{
					"internalType": "uint256",
					"name": "",
					"type": "uint256"
				},
				{
					"internalType": "address",
					"name": "",
					"type": "address"
				}
			],
			"name": "hasClaimedMonthly",
			"outputs": [
				{
					"internalType": "bool",
					"name": "",
					"type": "bool"
				}
			],
			"stateMutability": "view",
			"type": "function"
		},
		{
			"inputs": [
				{
					"internalType": "uint256",
					"name": "",
					"type": "uint256"
				},
				{
					"internalType": "address",
					"name": "",
					"type": "address"
				}
			],
			"name": "hasClaimedWeekly",
			"outputs": [
				{
					"internalType": "bool",
					"name": "",
					"type": "bool"
				}
			],
			"stateMutability": "view",
			"type": "function"
		},
		{
			"inputs": [
				{
					"internalType": "uint256",
					"name": "",
					"type": "uint256"
				},
				{
					"internalType": "address",
					"name": "",
					"type": "address"
				}
			],
			"name": "isMonthlyQualified",
			"outputs": [
				{
					"internalType": "bool",
					"name": "",
					"type": "bool"
				}
			],
			"stateMutability": "view",
			"type": "function"
		},
		{
			"inputs": [
				{
					"internalType": "uint256",
					"name": "",
					"type": "uint256"
				},
				{
					"internalType": "address",
					"name": "",
					"type": "address"
				}
			],
			"name": "isWeeklyQualified",
			"outputs": [
				{
					"internalType": "bool",
					"name": "",
					"type": "bool"
				}
			],
			"stateMutability": "view",
			"type": "function"
		},
		{
			"inputs": [],
			"name": "lastLotteryRun",
			"outputs": [
				{
					"internalType": "uint256",
					"name": "",
					"type": "uint256"
				}
			],
			"stateMutability": "view",
			"type": "function"
		},
		{
			"inputs": [],
			"name": "lastLotteryWinner",
			"outputs": [
				{
					"internalType": "address",
					"name": "",
					"type": "address"
				}
			],
			"stateMutability": "view",
			"type": "function"
		},
		{
			"inputs": [],
			"name": "lastMonthlyReset",
			"outputs": [
				{
					"internalType": "uint256",
					"name": "",
					"type": "uint256"
				}
			],
			"stateMutability": "view",
			"type": "function"
		},
		{
			"inputs": [],
			"name": "lastWeeklyReset",
			"outputs": [
				{
					"internalType": "uint256",
					"name": "",
					"type": "uint256"
				}
			],
			"stateMutability": "view",
			"type": "function"
		},
		{
			"inputs": [],
			"name": "lotteryInterval",
			"outputs": [
				{
					"internalType": "uint256",
					"name": "",
					"type": "uint256"
				}
			],
			"stateMutability": "view",
			"type": "function"
		},
		{
			"inputs": [],
			"name": "lotteryPool",
			"outputs": [
				{
					"internalType": "uint256",
					"name": "",
					"type": "uint256"
				}
			],
			"stateMutability": "view",
			"type": "function"
		},
		{
			"inputs": [
				{
					"internalType": "uint256",
					"name": "",
					"type": "uint256"
				}
			],
			"name": "minLevelForGlbBooster",
			"outputs": [
				{
					"internalType": "uint256",
					"name": "",
					"type": "uint256"
				}
			],
			"stateMutability": "view",
			"type": "function"
		},
		{
			"inputs": [
				{
					"internalType": "uint256",
					"name": "",
					"type": "uint256"
				}
			],
			"name": "minLevelForPool",
			"outputs": [
				{
					"internalType": "uint256",
					"name": "",
					"type": "uint256"
				}
			],
			"stateMutability": "view",
			"type": "function"
		},
		{
			"inputs": [
				{
					"internalType": "uint256",
					"name": "",
					"type": "uint256"
				}
			],
			"name": "minPoolForGlbBooster",
			"outputs": [
				{
					"internalType": "uint256",
					"name": "",
					"type": "uint256"
				}
			],
			"stateMutability": "view",
			"type": "function"
		},
		{
			"inputs": [
				{
					"internalType": "uint256",
					"name": "",
					"type": "uint256"
				}
			],
			"name": "monthlyRounds",
			"outputs": [
				{
					"internalType": "uint256",
					"name": "id",
					"type": "uint256"
				},
				{
					"internalType": "uint256",
					"name": "totalUsers",
					"type": "uint256"
				},
				{
					"internalType": "uint256",
					"name": "totalReward",
					"type": "uint256"
				},
				{
					"internalType": "uint256",
					"name": "perUserReward",
					"type": "uint256"
				},
				{
					"internalType": "uint256",
					"name": "startTime",
					"type": "uint256"
				},
				{
					"internalType": "uint256",
					"name": "endTime",
					"type": "uint256"
				},
				{
					"internalType": "bool",
					"name": "closed",
					"type": "bool"
				}
			],
			"stateMutability": "view",
			"type": "function"
		},
		{
			"inputs": [
				{
					"internalType": "uint256",
					"name": "",
					"type": "uint256"
				}
			],
			"name": "packages",
			"outputs": [
				{
					"internalType": "uint256",
					"name": "",
					"type": "uint256"
				}
			],
			"stateMutability": "view",
			"type": "function"
		},
		{
			"inputs": [
				{
					"internalType": "uint256",
					"name": "_userId",
					"type": "uint256"
				}
			],
			"name": "pendingCommunity",
			"outputs": [
				{
					"internalType": "uint256",
					"name": "pendingGross",
					"type": "uint256"
				},
				{
					"internalType": "uint256",
					"name": "pendingAfterCap",
					"type": "uint256"
				}
			],
			"stateMutability": "view",
			"type": "function"
		},
		{
			"inputs": [
				{
					"internalType": "uint256",
					"name": "",
					"type": "uint256"
				}
			],
			"name": "poolPackages",
			"outputs": [
				{
					"internalType": "uint256",
					"name": "",
					"type": "uint256"
				}
			],
			"stateMutability": "view",
			"type": "function"
		},
		{
			"inputs": [
				{
					"internalType": "uint256",
					"name": "",
					"type": "uint256"
				}
			],
			"name": "qualifiedMonthly",
			"outputs": [
				{
					"internalType": "address",
					"name": "",
					"type": "address"
				}
			],
			"stateMutability": "view",
			"type": "function"
		},
		{
			"inputs": [
				{
					"internalType": "uint256",
					"name": "",
					"type": "uint256"
				}
			],
			"name": "qualifiedWeekly",
			"outputs": [
				{
					"internalType": "address",
					"name": "",
					"type": "address"
				}
			],
			"stateMutability": "view",
			"type": "function"
		},
		{
			"inputs": [],
			"name": "qualifyMonthly",
			"outputs": [],
			"stateMutability": "payable",
			"type": "function"
		},
		{
			"inputs": [],
			"name": "qualifyWeekly",
			"outputs": [],
			"stateMutability": "payable",
			"type": "function"
		},
		{
			"inputs": [
				{
					"internalType": "uint256",
					"name": "_sponsorId",
					"type": "uint256"
				}
			],
			"name": "register",
			"outputs": [],
			"stateMutability": "nonpayable",
			"type": "function"
		},
		{
			"inputs": [
				{
					"internalType": "uint256",
					"name": "",
					"type": "uint256"
				}
			],
			"name": "registeredUserIds",
			"outputs": [
				{
					"internalType": "uint256",
					"name": "",
					"type": "uint256"
				}
			],
			"stateMutability": "view",
			"type": "function"
		},
		{
			"inputs": [],
			"name": "systemMaintance",
			"outputs": [
				{
					"internalType": "address",
					"name": "",
					"type": "address"
				}
			],
			"stateMutability": "view",
			"type": "function"
		},
		{
			"inputs": [],
			"name": "teamDevelopment",
			"outputs": [
				{
					"internalType": "address",
					"name": "",
					"type": "address"
				}
			],
			"stateMutability": "view",
			"type": "function"
		},
		{
			"inputs": [],
			"name": "totalUsers",
			"outputs": [
				{
					"internalType": "uint256",
					"name": "",
					"type": "uint256"
				}
			],
			"stateMutability": "view",
			"type": "function"
		},
		{
			"inputs": [
				{
					"internalType": "uint256",
					"name": "_userId",
					"type": "uint256"
				}
			],
			"name": "upgrade",
			"outputs": [],
			"stateMutability": "nonpayable",
			"type": "function"
		},
		{
			"inputs": [],
			"name": "usdt",
			"outputs": [
				{
					"internalType": "contract IERC20",
					"name": "",
					"type": "address"
				}
			],
			"stateMutability": "view",
			"type": "function"
		},
		{
			"inputs": [
				{
					"internalType": "uint256",
					"name": "",
					"type": "uint256"
				}
			],
			"name": "weeklyRounds",
			"outputs": [
				{
					"internalType": "uint256",
					"name": "id",
					"type": "uint256"
				},
				{
					"internalType": "uint256",
					"name": "totalUsers",
					"type": "uint256"
				},
				{
					"internalType": "uint256",
					"name": "totalReward",
					"type": "uint256"
				},
				{
					"internalType": "uint256",
					"name": "perUserReward",
					"type": "uint256"
				},
				{
					"internalType": "uint256",
					"name": "startTime",
					"type": "uint256"
				},
				{
					"internalType": "uint256",
					"name": "endTime",
					"type": "uint256"
				},
				{
					"internalType": "bool",
					"name": "closed",
					"type": "bool"
				}
			],
			"stateMutability": "view",
			"type": "function"
		}
	]
}