{
	"data": {
		"bytecode": {
			"linkReferences": {},
			"object": "6080604052604051806101e0016040528067d02ab486cedc000069ffffffffffffffffffff16815260200168015af1d78b58c4000069ffffffffffffffffffff1681526020016802b5e3af16b188000069ffffffffffffffffffff16815260200168056bc75e2d6310000069ffffffffffffffffffff168152602001680ad78ebc5ac620000069ffffffffffffffffffff1681526020016815af1d78b58c40000069ffffffffffffffffffff168152602001682b5e3af16b1880000069ffffffffffffffffffff1681526020016856bc75e2d63100000069ffffffffffffffffffff16815260200168ad78ebc5ac6200000069ffffffffffffffffffff16815260200169015af1d78b58c400000069ffffffffffffffffffff1681526020016902b5e3af16b18800000069ffffffffffffffffffff16815260200169056bc75e2d631000000069ffffffffffffffffffff168152602001690ad78ebc5ac62000000069ffffffffffffffffffff1681526020016915af1d78b58c4000000069ffffffffffffffffffff168152602001692b5e3af16b188000000069ffffffffffffffffffff16815250600790600f6101b892919061062d565b506040518060e0016040528068015af1d78b58c4000069ffffffffffffffffffff16815260200168056bc75e2d6310000069ffffffffffffffffffff1681526020016815af1d78b58c40000069ffffffffffffffffffff1681526020016856bc75e2d63100000069ffffffffffffffffffff16815260200169015af1d78b58c400000069ffffffffffffffffffff16815260200169056bc75e2d631000000069ffffffffffffffffffff1681526020016915af1d78b58c4000000069ffffffffffffffffffff16815250600b906007610292929190610686565b50620151806019553480156102a5575f5ffd5b50604051614a10380380614a1083398181016040528101906102c79190610758565b835f5f6101000a81548173ffffffffffffffffffffffffffffffffffffffff021916908373ffffffffffffffffffffffffffffffffffffffff1602179055508260025f6101000a81548173ffffffffffffffffffffffffffffffffffffffff021916908373ffffffffffffffffffffffffffffffffffffffff1602179055508160035f6101000a81548173ffffffffffffffffffffffffffffffffffffffff021916908373ffffffffffffffffffffffffffffffffffffffff1602179055508060045f6101000a81548173ffffffffffffffffffffffffffffffffffffffff021916908373ffffffffffffffffffffffffffffffffffffffff1602179055506103e860058190555060016006819055505f600e5f60055481526020019081526020015f20905083815f015f6101000a81548173ffffffffffffffffffffffffffffffffffffffff021916908373ffffffffffffffffffffffffffffffffffffffff1602179055506005548160030181905550600f81600601819055504281600c01819055505f5f90505f5f90505b600f8110156104955760078181548110610472576104716107bc565b5b905f5260205f20015482610486919061081f565b91508080600101915050610455565b50808260090181905550600554600d5f8773ffffffffffffffffffffffffffffffffffffffff1673ffffffffffffffffffffffffffffffffffffffff1681526020019081526020015f20819055505f5f90505b600b80549050811015610621576040518060e00160405280600554815260200160055481526020018281526020015f81526020015f81526020015f81526020015f81525060085f8381526020019081526020015f205f60055481526020019081526020015f205f820151815f01556020820151816001015560408201518160020155606082015181600301556080820151816004015560a0820151816005015560c08201518160060155905050600c5f8281526020019081526020015f20600554908060018154018082558091505060019003905f5260205f20015f9091909190915055600a5f8281526020019081526020015f205f60055481526020019081526020015f20600554908060018154018082558091505060019003905f5260205f20015f909190919091505580806001019150506104e8565b50505050505050610852565b828054828255905f5260205f20908101928215610675579160200282015b82811115610674578251829069ffffffffffffffffffff1690559160200191906001019061064b565b5b50905061068291906106df565b5090565b828054828255905f5260205f209081019282156106ce579160200282015b828111156106cd578251829069ffffffffffffffffffff169055916020019190600101906106a4565b5b5090506106db91906106df565b5090565b5b808211156106f6575f815f9055506001016106e0565b5090565b5f5ffd5b5f73ffffffffffffffffffffffffffffffffffffffff82169050919050565b5f610727826106fe565b9050919050565b6107378161071d565b8114610741575f5ffd5b50565b5f815190506107528161072e565b92915050565b5f5f5f5f608085870312156107705761076f6106fa565b5b5f61077d87828801610744565b945050602061078e87828801610744565b935050604061079f87828801610744565b92505060606107b087828801610744565b91505092959194509250565b7f4e487b71000000000000000000000000000000000000000000000000000000005f52603260045260245ffd5b5f819050919050565b7f4e487b71000000000000000000000000000000000000000000000000000000005f52601160045260245ffd5b5f610829826107e9565b9150610834836107e9565b925082820190508082111561084c5761084b6107f2565b5b92915050565b6141b18061085f5f395ff3fe608060405234801561000f575f5ffd5b5060043610610225575f3560e01c80635ec64a441161012e578063ae4708dc116100b6578063d54d6ddb1161007a578063d54d6ddb14610723578063e9e34a161461073f578063ec597e6f1461075d578063f207564e1461077b578063f5d74d931461079757610225565b8063ae4708dc1461063f578063bff1f9e11461066f578063c216212a1461068d578063cb0e0d7d146106bd578063ce79c2c3146106ed57610225565b806381a0b816116100fd57806381a0b8161461057357806388afbe3e146105915780638d58644c146105c15780638da5cb5b146105f15780638f030ece1461060f57610225565b80635ec64a44146104d357806370c8d7701461050357806378f6ad6d146105375780637cdc65f21461055557610225565b806332fcd966116101b157806345977d031161018057806345977d031461041357806346b9dece1461042f57806352a8c4c41461046757806358c7d352146104855780635aabf7f1146104a357610225565b806332fcd9661461036c578063365b98b21461038a578063375b43b4146103c557806339ab3603146103e357610225565b806318ab487f116101f857806318ab487f146102b157806324513088146102e15780632c831633146103125780632f48ab7d1461033057806332bc298c1461034e57610225565b806301be02b21461022957806301c234a8146102475780630f2b7cc91461026557806311f65d3914610295575b5f5ffd5b6102316107b5565b60405161023e9190613230565b60405180910390f35b61024f6107bb565b60405161025c9190613230565b60405180910390f35b61027f600480360381019061027a9190613277565b6107c1565b60405161028c9190613230565b60405180910390f35b6102af60048036038101906102aa91906132ee565b6107ec565b005b6102cb60048036038101906102c69190613319565b610ad7565b6040516102d89190613230565b60405180910390f35b6102fb60048036038101906102f69190613319565b610aec565b604051610309929190613344565b60405180910390f35b61031a610b82565b6040516103279190613230565b60405180910390f35b610338610b88565b60405161034591906133e5565b60405180910390f35b610356610bac565b6040516103639190613230565b60405180910390f35b610374610bb3565b6040516103819190613230565b60405180910390f35b6103a4600480360381019061039f9190613319565b610bbf565b6040516103bc9c9b9a9998979695949392919061341e565b60405180910390f35b6103cd610c3a565b6040516103da9190613230565b60405180910390f35b6103fd60048036038101906103f89190613319565b610c3f565b60405161040a9190613230565b60405180910390f35b61042d60048036038101906104289190613319565b610c5f565b005b61044960048036038101906104449190613319565b61102b565b60405161045e999897969594939291906134d6565b60405180910390f35b61046f611075565b60405161047c9190613230565b60405180910390f35b61048d61107b565b60405161049a9190613230565b60405180910390f35b6104bd60048036038101906104b89190613561565b611080565b6040516104ca9190613230565b60405180910390f35b6104ed60048036038101906104e89190613277565b6110b6565b6040516104fa9190613230565b60405180910390f35b61051d60048036038101906105189190613277565b6110e1565b60405161052e9594939291906135b1565b60405180910390f35b61053f61112d565b60405161054c9190613230565b60405180910390f35b61055d611133565b60405161056a9190613602565b60405180910390f35b61057b611158565b6040516105889190613602565b60405180910390f35b6105ab60048036038101906105a69190613319565b61117d565b6040516105b89190613230565b60405180910390f35b6105db60048036038101906105d69190613561565b611192565b6040516105e89190613230565b60405180910390f35b6105f96111c8565b6040516106069190613602565b60405180910390f35b61062960048036038101906106249190613561565b6111ed565b6040516106369190613230565b60405180910390f35b61065960048036038101906106549190613319565b611223565b6040516106669190613230565b60405180910390f35b610677611243565b6040516106849190613230565b60405180910390f35b6106a760048036038101906106a29190613319565b611249565b6040516106b49190613230565b60405180910390f35b6106d760048036038101906106d29190613645565b611269565b6040516106e49190613230565b60405180910390f35b61070760048036038101906107029190613277565b61127e565b60405161071a9796959493929190613670565b60405180910390f35b61073d60048036038101906107389190613319565b6112c7565b005b61074761164b565b6040516107549190613602565b60405180910390f35b610765611670565b6040516107729190613230565b60405180910390f35b61079560048036038101906107909190613319565b611676565b005b61079f611be4565b6040516107ac9190613602565b60405180910390f35b60185481565b61271081565b600c602052815f5260405f2081815481106107da575f80fd5b905f5260205f20015f91509150505481565b5f600e5f8363ffffffff1681526020019081526020015f2090503373ffffffffffffffffffffffffffffffffffffffff16815f015f9054906101000a900473ffffffffffffffffffffffffffffffffffffffff1673ffffffffffffffffffffffffffffffffffffffff1614610896576040517f08c379a000000000000000000000000000000000000000000000000000000000815260040161088d90613737565b60405180910390fd5b600781600a0154106108dd576040517f08c379a00000000000000000000000000000000000000000000000000000000081526004016108d49061379f565b60405180910390fd5b5f81600a015490505f600b82815481106108fa576108f96137bd565b5b905f5260205f20015490505f5f9054906101000a900473ffffffffffffffffffffffffffffffffffffffff1673ffffffffffffffffffffffffffffffffffffffff166323b872dd3330846040518463ffffffff1660e01b8152600401610962939291906137ea565b6020604051808303815f875af115801561097e573d5f5f3e3d5ffd5b505050506040513d601f19601f820116820180604052508101906109a29190613854565b50600183600a015f8282546109b791906138ac565b925050819055508083600b015f8282546109d191906138ac565b925050819055506109e3828583611c09565b8260010160405180608001604052808381526020015f8152602001428152602001600260ff16815250908060018154018082558091505060019003905f5260205f2090600402015f909190919091505f820151815f015560208201518160010155604082015181600201556060820151816003015f6101000a81548160ff021916908360ff16021790555050508363ffffffff163373ffffffffffffffffffffffffffffffffffffffff167fbabb6a363fd9a057996d09882c0b74b710d121707d19eeffd91c51c3171a7c91600185610abc91906138ac565b604051610ac99190613929565b60405180910390a350505050565b6015602052805f5260405f205f915090505481565b5f5f5f600e5f8581526020019081526020015f206003015403610b14575f5f91509150610b7d565b5f60145490505f60155f8681526020019081526020015f20549050808211610b43575f5f935093505050610b7d565b5f670de0b6b3a76400008284610b599190613955565b610b6391906139b5565b90505f610b708783611f13565b9050818195509550505050505b915091565b60165481565b5f5f9054906101000a900473ffffffffffffffffffffffffffffffffffffffff1681565b6201518081565b670de0b6b3a764000081565b600e602052805f5260405f205f91509050805f015f9054906101000a900473ffffffffffffffffffffffffffffffffffffffff169080600201549080600301549080600401549080600501549080600601549080600701549080600801549080600901549080600a01549080600b01549080600c015490508c565b601981565b601a8181548110610c4e575f80fd5b905f5260205f20015f915090505481565b5f600e5f8381526020019081526020015f2090503373ffffffffffffffffffffffffffffffffffffffff16815f015f9054906101000a900473ffffffffffffffffffffffffffffffffffffffff1673ffffffffffffffffffffffffffffffffffffffff1614610d03576040517f08c379a0000000000000000000000000000000000000000000000000000000008152600401610cfa90613737565b60405180910390fd5b600f816006015410610d4a576040517f08c379a0000000000000000000000000000000000000000000000000000000008152600401610d4190613a2f565b60405180910390fd5b5f816006015490505f60078281548110610d6757610d666137bd565b5b905f5260205f20015490505f5f9054906101000a900473ffffffffffffffffffffffffffffffffffffffff1673ffffffffffffffffffffffffffffffffffffffff166323b872dd3330846040518463ffffffff1660e01b8152600401610dcf939291906137ea565b6020604051808303815f875af1158015610deb573d5f5f3e3d5ffd5b505050506040513d601f19601f82011682018060405250810190610e0f9190613854565b506001836006015f828254610e2491906138ac565b9250508190555080836009015f828254610e3e91906138ac565b925050819055508260010160405180608001604052808381526020015f8152602001428152602001600160ff16815250908060018154018082558091505060019003905f5260205f2090600402015f909190919091505f820151815f015560208201518160010155604082015181600201556060820151816003015f6101000a81548160ff021916908360ff16021790555050505f6064600583610ee29190613a4d565b610eec91906139b5565b90505f6064602384610efe9190613a4d565b610f0891906139b5565b9050610f1381611fb9565b610f1c82612027565b5f6064600f85610f2c9190613a4d565b610f3691906139b5565b9050610f5486600401548883600189610f4f91906138ac565b612239565b5f6064600f86610f649190613a4d565b610f6e91906139b5565b9050610f8c8760050154898360018a610f8791906138ac565b6124f1565b5f6064600f87610f9c9190613a4d565b610fa691906139b5565b9050610fc588600501548a8360018b610fbf91906138ac565b8b61284d565b883373ffffffffffffffffffffffffffffffffffffffff167fbabb6a363fd9a057996d09882c0b74b710d121707d19eeffd91c51c3171a7c9160018a61100b91906138ac565b6040516110189190613ad8565b60405180910390a3505050505050505050565b600f602052805f5260405f205f91509050805f0154908060010154908060020154908060030154908060040154908060050154908060060154908060070154908060080154905089565b60195481565b600a81565b6011602052825f5260405f20602052815f5260405f2081815481106110a3575f80fd5b905f5260205f20015f9250925050505481565b6013602052815f5260405f2081815481106110cf575f80fd5b905f5260205f20015f91509150505481565b6010602052815f5260405f2081815481106110fa575f80fd5b905f5260205f2090600502015f9150915050805f0154908060010154908060020154908060030154908060040154905085565b60145481565b60025f9054906101000a900473ffffffffffffffffffffffffffffffffffffffff1681565b60175f9054906101000a900473ffffffffffffffffffffffffffffffffffffffff1681565b6012602052805f5260405f205f915090505481565b600a602052825f5260405f20602052815f5260405f2081815481106111b5575f80fd5b905f5260205f20015f9250925050505481565b60015f9054906101000a900473ffffffffffffffffffffffffffffffffffffffff1681565b6009602052825f5260405f20602052815f5260405f208181548110611210575f80fd5b905f5260205f20015f9250925050505481565b600b8181548110611232575f80fd5b905f5260205f20015f915090505481565b60065481565b60078181548110611258575f80fd5b905f5260205f20015f915090505481565b600d602052805f5260405f205f915090505481565b6008602052815f5260405f20602052805f5260405f205f9150915050805f0154908060010154908060020154908060030154908060040154908060050154908060060154905087565b5f600e5f8381526020019081526020015f2090505f816003015403611321576040517f08c379a000000000000000000000000000000000000000000000000000000000815260040161131890613b4e565b60405180910390fd5b3373ffffffffffffffffffffffffffffffffffffffff16815f015f9054906101000a900473ffffffffffffffffffffffffffffffffffffffff1673ffffffffffffffffffffffffffffffffffffffff16146113b1576040517f08c379a00000000000000000000000000000000000000000000000000000000081526004016113a890613737565b60405180910390fd5b5f60145490505f60155f8581526020019081526020015f205490508082036113db57505050611648565b5f670de0b6b3a764000082846113f19190613955565b6113fb91906139b5565b90505f8103611423578260155f8781526020019081526020015f208190555050505050611648565b5f61142e8683611f13565b90508360155f8881526020019081526020015f20819055505f811115611625575f600f5f8881526020019081526020015f20905081815f015f82825461147491906138ac565b9250508190555081816007015f82825461148e91906138ac565b9250508190555060105f8881526020019081526020015f206040518060a00160405280898152602001848152602001600181526020014281526020016009815250908060018154018082558091505060019003905f5260205f2090600502015f909190919091505f820151815f01556020820151816001015560408201518160020155606082015181600301556080820151816004015550505f5f9054906101000a900473ffffffffffffffffffffffffffffffffffffffff1673ffffffffffffffffffffffffffffffffffffffff1663a9059cbb875f015f9054906101000a900473ffffffffffffffffffffffffffffffffffffffff16846040518363ffffffff1660e01b81526004016115a4929190613b6c565b6020604051808303815f875af11580156115c0573d5f5f3e3d5ffd5b505050506040513d601f19601f820116820180604052508101906115e49190613854565b611623576040517f08c379a000000000000000000000000000000000000000000000000000000000815260040161161a90613bdd565b60405180910390fd5b505b8082111561164257611641818361163c9190613955565b612027565b5b50505050505b50565b60035f9054906101000a900473ffffffffffffffffffffffffffffffffffffffff1681565b60055481565b5f600d5f3373ffffffffffffffffffffffffffffffffffffffff1673ffffffffffffffffffffffffffffffffffffffff1681526020019081526020015f2054146116f5576040517f08c379a00000000000000000000000000000000000000000000000000000000081526004016116ec90613c45565b60405180910390fd5b5f600e5f8381526020019081526020015f20600301541161174b576040517f08c379a000000000000000000000000000000000000000000000000000000000815260040161174290613cad565b60405180910390fd5b5f5f9054906101000a900473ffffffffffffffffffffffffffffffffffffffff1673ffffffffffffffffffffffffffffffffffffffff166323b872dd333060075f8154811061179d5761179c6137bd565b5b905f5260205f2001546040518463ffffffff1660e01b81526004016117c4939291906137ea565b6020604051808303815f875af11580156117e0573d5f5f3e3d5ffd5b505050506040513d601f19601f820116820180604052508101906118049190613854565b505f60056006546118159190613a4d565b60055461182291906138ac565b905080600d5f3373ffffffffffffffffffffffffffffffffffffffff1673ffffffffffffffffffffffffffffffffffffffff1681526020019081526020015f20819055505f600e5f8381526020019081526020015f20905033815f015f6101000a81548173ffffffffffffffffffffffffffffffffffffffff021916908373ffffffffffffffffffffffffffffffffffffffff1602179055504281600201819055508181600301819055508281600401819055506001816006018190555060075f815481106118f4576118f36137bd565b5b905f5260205f20015481600901819055504281600c01819055506001600e5f8581526020019081526020015f206007015f82825461193291906138ac565b9250508190555060135f8481526020019081526020015f2082908060018154018082558091505060019003905f5260205f20015f9091909190915055601a82908060018154018082558091505060019003905f5260205f20015f909190919091505560145460155f8481526020019081526020015f20819055506119b682846129b3565b80600101604051806080016040528060075f815481106119d9576119d86137bd565b5b905f5260205f20015481526020015f8152602001428152602001600160ff16815250908060018154018082558091505060019003905f5260205f2090600402015f909190919091505f820151815f015560208201518160010155604082015181600201556060820151816003015f6101000a81548160ff021916908360ff16021790555050505f60075f81548110611a7457611a736137bd565b5b905f5260205f20015490505f6064600a83611a8f9190613a4d565b611a9991906139b5565b90505f6064602384611aab9190613a4d565b611ab591906139b5565b90506064600584611ac69190613a4d565b611ad091906139b5565b60165f828254611ae091906138ac565b925050819055505f6064603285611af79190613a4d565b611b0191906139b5565b9050611b0c81611fb9565b611b1583612027565b611b26856004015487846001612239565b600160065f828254611b3891906138ac565b9250508190555085600e5f8981526020019081526020015f205f015f9054906101000a900473ffffffffffffffffffffffffffffffffffffffff1673ffffffffffffffffffffffffffffffffffffffff163373ffffffffffffffffffffffffffffffffffffffff167f309bb360e8b69c23937ccc5fb01f9aeeead1c95a99604e175113ff82f2b1723a8860050154604051611bd39190613230565b60405180910390a450505050505050565b60045f9054906101000a900473ffffffffffffffffffffffffffffffffffffffff1681565b600b805490508310611c50576040517f08c379a0000000000000000000000000000000000000000000000000000000008152600401611c4790613d15565b60405180910390fd5b600b8381548110611c6457611c636137bd565b5b905f5260205f2001543414611cae576040517f08c379a0000000000000000000000000000000000000000000000000000000008152600401611ca590613d7d565b60405180910390fd5b5f600c5f8581526020019081526020015f20805480602002602001604051908101604052809291908181526020018280548015611d0857602002820191905f5260205f20905b815481526020019060010190808311611cf4575b505050505090505f815190505f81600554611d2391906138ac565b9050600c5f8781526020019081526020015f2081908060018154018082558091505060019003905f5260205f20015f90919091909150555f6003600184611d6a9190613955565b611d7491906139b5565b90505f848281518110611d8a57611d896137bd565b5b602002602001015190506040518060e001604052808481526020018863ffffffff1681526020018981526020018281526020015f81526020015f81526020015f81525060085f8a81526020019081526020015f205f8581526020019081526020015f205f820151815f01556020820151816001015560408201518160020155606082015181600301556080820151816004015560a0820151816005015560c08201518160060155905050600c5f8981526020019081526020015f2083908060018154018082558091505060019003905f5260205f20015f9091909190915055600a5f8981526020019081526020015f205f8863ffffffff1681526020019081526020015f2083908060018154018082558091505060019003905f5260205f20015f909190919091505560095f8981526020019081526020015f205f8281526020019081526020015f2083908060018154018082558091505060019003905f5260205f20015f9091909190915055611f0981898963ffffffff1689612c1f565b5050505050505050565b5f5f600e5f8581526020019081526020015f2090505f600f5f8681526020019081526020015f209050600780549050826006015403611f56578392505050611fb3565b5f600a60198460090154611f6a9190613a4d565b611f7491906139b5565b905080825f015410611f8b575f9350505050611fb3565b5f825f015482611f9b9190613955565b9050808611611faa5785611fac565b805b9450505050505b92915050565b5f601a8054905090505f811480611fcf57505f82145b15611fec575f821115611fe657611fe582612027565b5b50612024565b80670de0b6b3a7640000836120019190613a4d565b61200b91906139b5565b60145f82825461201b91906138ac565b92505081905550505b50565b5f73ffffffffffffffffffffffffffffffffffffffff1660025f9054906101000a900473ffffffffffffffffffffffffffffffffffffffff1673ffffffffffffffffffffffffffffffffffffffff16036120b6576040517f08c379a00000000000000000000000000000000000000000000000000000000081526004016120ad90613de5565b60405180910390fd5b5f5f9054906101000a900473ffffffffffffffffffffffffffffffffffffffff1673ffffffffffffffffffffffffffffffffffffffff1663a9059cbb60025f9054906101000a900473ffffffffffffffffffffffffffffffffffffffff16836040518363ffffffff1660e01b8152600401612132929190613b6c565b6020604051808303815f875af115801561214e573d5f5f3e3d5ffd5b505050506040513d601f19601f820116820180604052508101906121729190613854565b505f600f5f60055481526020019081526020015f20905081815f015f82825461219b91906138ac565b9250508190555060105f60055481526020019081526020015f206040518060a001604052805f81526020018481526020015f81526020014281526020016005815250908060018154018082558091505060019003905f5260205f2090600502015f909190919091505f820151815f01556020820151816001015560408201518160020155606082015181600301556080820151816004015550505050565b5f841480612248575060055484145b1561225b5761225682612027565b6124eb565b5f600e5f8681526020019081526020015f20905060018214612294576002816007015410156122935761228d83612027565b506124eb565b5b5f5f9054906101000a900473ffffffffffffffffffffffffffffffffffffffff1673ffffffffffffffffffffffffffffffffffffffff1663a9059cbb825f015f9054906101000a900473ffffffffffffffffffffffffffffffffffffffff16856040518363ffffffff1660e01b8152600401612311929190613b6c565b6020604051808303815f875af115801561232d573d5f5f3e3d5ffd5b505050506040513d601f19601f820116820180604052508101906123519190613854565b505f600f5f8781526020019081526020015f20905083815f015f82825461237891906138ac565b9250508190555083816001015f82825461239291906138ac565b9250508190555060105f8781526020019081526020015f206040518060a001604052808781526020018681526020018581526020014281526020016001815250908060018154018082558091505060019003905f5260205f2090600502015f909190919091505f820151815f0155602082015181600101556040820151816002015560608201518160030155608082015181600401555050600e5f8681526020019081526020015f205f015f9054906101000a900473ffffffffffffffffffffffffffffffffffffffff1673ffffffffffffffffffffffffffffffffffffffff16825f015f9054906101000a900473ffffffffffffffffffffffffffffffffffffffff1673ffffffffffffffffffffffffffffffffffffffff167fe17b61d324ce17328f433d0ab62581c0f0aa997312bae80fbdfcd2aa9b91d6e3868660016040516124e093929190613e3c565b60405180910390a350505b50505050565b5f6001905060055485148061250557505f85145b156125195761251383612027565b50612847565b5f8590505b8282101561257757818061253190613e71565b925050600e5f8281526020019081526020015f2060050154905060055481148061255a57505f81145b156125725782915061256b84612027565b5050612847565b61251e565b5f8190505f92505b5f811415801561259157506005548114155b801561259d5750600f83105b1561283a575f600e5f8381526020019081526020015f2090508481600601541061281f575f5f9054906101000a900473ffffffffffffffffffffffffffffffffffffffff1673ffffffffffffffffffffffffffffffffffffffff1663a9059cbb825f015f9054906101000a900473ffffffffffffffffffffffffffffffffffffffff16886040518363ffffffff1660e01b815260040161263e929190613b6c565b6020604051808303815f875af115801561265a573d5f5f3e3d5ffd5b505050506040513d601f19601f8201168201806040525081019061267e9190613854565b505f600f5f8481526020019081526020015f20905086815f015f8282546126a591906138ac565b9250508190555086816002015f8282546126bf91906138ac565b9250508190555060105f8481526020019081526020015f206040518060a001604052808a81526020018981526020018881526020014281526020016002815250908060018154018082558091505060019003905f5260205f2090600502015f909190919091505f820151815f0155602082015181600101556040820151816002015560608201518160030155608082015181600401555050600e5f8981526020019081526020015f205f015f9054906101000a900473ffffffffffffffffffffffffffffffffffffffff1673ffffffffffffffffffffffffffffffffffffffff16825f015f9054906101000a900473ffffffffffffffffffffffffffffffffffffffff1673ffffffffffffffffffffffffffffffffffffffff167fe17b61d324ce17328f433d0ab62581c0f0aa997312bae80fbdfcd2aa9b91d6e38989600260405161280d93929190613ef1565b60405180910390a35050505050612847565b80600501549150838061283190613e71565b9450505061257f565b61284385612027565b5050505b50505050565b5f85148061285c575060055485145b1561286f5761286a83612027565b6129ac565b5f8190505f81036128895761288384612027565b506129ac565b5f818561289691906139b5565b90505f82826128a59190613a4d565b866128b09190613955565b90505f600190505f8990505f5f90505b85811015612993575f82141580156128da57506005548214155b156129685787600e5f8481526020019081526020015f206006015410612941575f5f90505b8381101561292057612913838c888c612d7c565b80806001019150506128ff565b50600e5f8381526020019081526020015f2060050154915060019250612967565b600e5f8381526020019081526020015f20600501549150828061296390613e71565b9350505b5b5f821480612977575060055482145b156129865761298585612027565b5b80806001019150506128c0565b505f8311156129a6576129a583612027565b5b50505050505b5050505050565b5f5f600260125f8581526020019081526020015f20541015612a185782600e5f8681526020019081526020015f2060050181905550600160125f8581526020019081526020015f205f828254612a0991906138ac565b92505081905550829050612b6f565b5f5f90505b600f811015612b6d5782612b6d57600281612a3891906138ac565b6002612a449190614055565b60115f8681526020019081526020015f205f600184612a6391906138ac565b81526020019081526020015f20805490501015612b60575f5f90505b60115f8681526020019081526020015f205f8381526020019081526020015f2080549050811015612b5e5783612b5e575f60115f8781526020019081526020015f205f8481526020019081526020015f208281548110612ae257612ae16137bd565b5b905f5260205f2001549050600260125f8381526020019081526020015f20541015612b505780600e5f8981526020019081526020015f2060050181905550600160125f8381526020019081526020015f205f828254612b4191906138ac565b92505081905550809350600194505b508080600101915050612a7f565b505b8080600101915050612a1d565b505b5f5f90505b600f811015612c18575f820315612c18576001600e5f8481526020019081526020015f206008015f828254612ba991906138ac565b9250508190555060115f8381526020019081526020015f205f8281526020019081526020015f2085908060018154018082558091505060019003905f5260205f20015f9091909190915055600e5f8381526020019081526020015f206005015491508080600101915050612b74565b5050505050565b5f841480612c2e575060055484145b15612c4157612c3c81612027565b612d76565b5f600382612c4f91906139b5565b90505f5f90505b6003811015612d73575f60085f8781526020019081526020015f205f8881526020019081526020015f2090505f81600101549050602782600401541015612d6457601882600401541015612ccd576001826004015f828254612cb891906138ac565b92505081905550612ccc8187866001612fca565b5b6018826004015410158015612ce6575060248260040154105b15612d21576001826004015f828254612cff91906138ac565b9250508190555083826005015f828254612d1991906138ac565b925050819055505b6024826004015410612d63576001826004015f828254612d4191906138ac565b9250508190555083826006015f828254612d5b91906138ac565b925050819055505b5b50508080600101915050612c56565b50505b50505050565b5f600e5f8681526020019081526020015f205f015f9054906101000a900473ffffffffffffffffffffffffffffffffffffffff1690505f5f9054906101000a900473ffffffffffffffffffffffffffffffffffffffff1673ffffffffffffffffffffffffffffffffffffffff1663a9059cbb82856040518363ffffffff1660e01b8152600401612e0d929190613b6c565b6020604051808303815f875af1158015612e29573d5f5f3e3d5ffd5b505050506040513d601f19601f82011682018060405250810190612e4d9190613854565b505f600f5f8781526020019081526020015f20905083815f015f828254612e7491906138ac565b9250508190555083816003015f828254612e8e91906138ac565b9250508190555060105f8781526020019081526020015f206040518060a001604052808781526020018681526020018581526020014281526020016004815250908060018154018082558091505060019003905f5260205f2090600502015f909190919091505f820151815f0155602082015181600101556040820151816002015560608201518160030155608082015181600401555050600e5f8681526020019081526020015f205f015f9054906101000a900473ffffffffffffffffffffffffffffffffffffffff1673ffffffffffffffffffffffffffffffffffffffff168273ffffffffffffffffffffffffffffffffffffffff167fe17b61d324ce17328f433d0ab62581c0f0aa997312bae80fbdfcd2aa9b91d6e386866004604051612fba939291906140d8565b60405180910390a3505050505050565b5f600e5f8681526020019081526020015f205f015f9054906101000a900473ffffffffffffffffffffffffffffffffffffffff1690505f5f9054906101000a900473ffffffffffffffffffffffffffffffffffffffff1673ffffffffffffffffffffffffffffffffffffffff1663a9059cbb82856040518363ffffffff1660e01b815260040161305b929190613b6c565b6020604051808303815f875af1158015613077573d5f5f3e3d5ffd5b505050506040513d601f19601f8201168201806040525081019061309b9190613854565b505f600f5f8781526020019081526020015f20905083815f015f8282546130c291906138ac565b9250508190555083816008015f8282546130dc91906138ac565b9250508190555060105f8781526020019081526020015f206040518060a00160405280878152602001868152602001858152602001428152602001600a815250908060018154018082558091505060019003905f5260205f2090600502015f909190919091505f820151815f0155602082015181600101556040820151816002015560608201518160030155608082015181600401555050600e5f8681526020019081526020015f205f015f9054906101000a900473ffffffffffffffffffffffffffffffffffffffff1673ffffffffffffffffffffffffffffffffffffffff168273ffffffffffffffffffffffffffffffffffffffff167fe17b61d324ce17328f433d0ab62581c0f0aa997312bae80fbdfcd2aa9b91d6e38686600a60405161320893929190614146565b60405180910390a3505050505050565b5f819050919050565b61322a81613218565b82525050565b5f6020820190506132435f830184613221565b92915050565b5f5ffd5b61325681613218565b8114613260575f5ffd5b50565b5f813590506132718161324d565b92915050565b5f5f6040838503121561328d5761328c613249565b5b5f61329a85828601613263565b92505060206132ab85828601613263565b9150509250929050565b5f63ffffffff82169050919050565b6132cd816132b5565b81146132d7575f5ffd5b50565b5f813590506132e8816132c4565b92915050565b5f6020828403121561330357613302613249565b5b5f613310848285016132da565b91505092915050565b5f6020828403121561332e5761332d613249565b5b5f61333b84828501613263565b91505092915050565b5f6040820190506133575f830185613221565b6133646020830184613221565b9392505050565b5f73ffffffffffffffffffffffffffffffffffffffff82169050919050565b5f819050919050565b5f6133ad6133a86133a38461336b565b61338a565b61336b565b9050919050565b5f6133be82613393565b9050919050565b5f6133cf826133b4565b9050919050565b6133df816133c5565b82525050565b5f6020820190506133f85f8301846133d6565b92915050565b5f6134088261336b565b9050919050565b613418816133fe565b82525050565b5f610180820190506134325f83018f61340f565b61343f602083018e613221565b61344c604083018d613221565b613459606083018c613221565b613466608083018b613221565b61347360a083018a613221565b61348060c0830189613221565b61348d60e0830188613221565b61349b610100830187613221565b6134a9610120830186613221565b6134b7610140830185613221565b6134c5610160830184613221565b9d9c50505050505050505050505050565b5f610120820190506134ea5f83018c613221565b6134f7602083018b613221565b613504604083018a613221565b6135116060830189613221565b61351e6080830188613221565b61352b60a0830187613221565b61353860c0830186613221565b61354560e0830185613221565b613553610100830184613221565b9a9950505050505050505050565b5f5f5f6060848603121561357857613577613249565b5b5f61358586828701613263565b935050602061359686828701613263565b92505060406135a786828701613263565b9150509250925092565b5f60a0820190506135c45f830188613221565b6135d16020830187613221565b6135de6040830186613221565b6135eb6060830185613221565b6135f86080830184613221565b9695505050505050565b5f6020820190506136155f83018461340f565b92915050565b613624816133fe565b811461362e575f5ffd5b50565b5f8135905061363f8161361b565b92915050565b5f6020828403121561365a57613659613249565b5b5f61366784828501613631565b91505092915050565b5f60e0820190506136835f83018a613221565b6136906020830189613221565b61369d6040830188613221565b6136aa6060830187613221565b6136b76080830186613221565b6136c460a0830185613221565b6136d160c0830184613221565b98975050505050505050565b5f82825260208201905092915050565b7f4e6f7420796f7572206163636f756e74000000000000000000000000000000005f82015250565b5f6137216010836136dd565b915061372c826136ed565b602082019050919050565b5f6020820190508181035f83015261374e81613715565b9050919050565b7f4174206d6178206c6576656c00000000000000000000000000000000000000005f82015250565b5f613789600c836136dd565b915061379482613755565b602082019050919050565b5f6020820190508181035f8301526137b68161377d565b9050919050565b7f4e487b71000000000000000000000000000000000000000000000000000000005f52603260045260245ffd5b5f6060820190506137fd5f83018661340f565b61380a602083018561340f565b6138176040830184613221565b949350505050565b5f8115159050919050565b6138338161381f565b811461383d575f5ffd5b50565b5f8151905061384e8161382a565b92915050565b5f6020828403121561386957613868613249565b5b5f61387684828501613840565b91505092915050565b7f4e487b71000000000000000000000000000000000000000000000000000000005f52601160045260245ffd5b5f6138b682613218565b91506138c183613218565b92508282019050808211156138d9576138d861387f565b5b92915050565b7f506f6f6c000000000000000000000000000000000000000000000000000000005f82015250565b5f6139136004836136dd565b915061391e826138df565b602082019050919050565b5f60408201905061393c5f830184613221565b818103602083015261394d81613907565b905092915050565b5f61395f82613218565b915061396a83613218565b92508282039050818111156139825761398161387f565b5b92915050565b7f4e487b71000000000000000000000000000000000000000000000000000000005f52601260045260245ffd5b5f6139bf82613218565b91506139ca83613218565b9250826139da576139d9613988565b5b828204905092915050565b7f416c7265616479206174206d6178206c6576656c0000000000000000000000005f82015250565b5f613a196014836136dd565b9150613a24826139e5565b602082019050919050565b5f6020820190508181035f830152613a4681613a0d565b9050919050565b5f613a5782613218565b9150613a6283613218565b9250828202613a7081613218565b91508282048414831517613a8757613a8661387f565b5b5092915050565b7f536c6f74000000000000000000000000000000000000000000000000000000005f82015250565b5f613ac26004836136dd565b9150613acd82613a8e565b602082019050919050565b5f604082019050613aeb5f830184613221565b8181036020830152613afc81613ab6565b905092915050565b7f55736572206e6f7420666f756e640000000000000000000000000000000000005f82015250565b5f613b38600e836136dd565b9150613b4382613b04565b602082019050919050565b5f6020820190508181035f830152613b6581613b2c565b9050919050565b5f604082019050613b7f5f83018561340f565b613b8c6020830184613221565b9392505050565b7f55534454207472616e73666572206661696c65640000000000000000000000005f82015250565b5f613bc76014836136dd565b9150613bd282613b93565b602082019050919050565b5f6020820190508181035f830152613bf481613bbb565b9050919050565b7f416c7265616479207265676973746572656400000000000000000000000000005f82015250565b5f613c2f6012836136dd565b9150613c3a82613bfb565b602082019050919050565b5f6020820190508181035f830152613c5c81613c23565b9050919050565b7f496e76616c69642073706f6e736f7200000000000000000000000000000000005f82015250565b5f613c97600f836136dd565b9150613ca282613c63565b602082019050919050565b5f6020820190508181035f830152613cc481613c8b565b9050919050565b7f496e76616c6964000000000000000000000000000000000000000000000000005f82015250565b5f613cff6007836136dd565b9150613d0a82613ccb565b602082019050919050565b5f6020820190508181035f830152613d2c81613cf3565b9050919050565b7f496e636f727265637420616d6f756e74000000000000000000000000000000005f82015250565b5f613d676010836136dd565b9150613d7282613d33565b602082019050919050565b5f6020820190508181035f830152613d9481613d5b565b9050919050565b7f666565206164647273206e6f74207365740000000000000000000000000000005f82015250565b5f613dcf6011836136dd565b9150613dda82613d9b565b602082019050919050565b5f6020820190508181035f830152613dfc81613dc3565b9050919050565b5f819050919050565b5f613e26613e21613e1c84613e03565b61338a565b613218565b9050919050565b613e3681613e0c565b82525050565b5f606082019050613e4f5f830186613221565b613e5c6020830185613221565b613e696040830184613e2d565b949350505050565b5f613e7b82613218565b91507fffffffffffffffffffffffffffffffffffffffffffffffffffffffffffffffff8203613ead57613eac61387f565b5b600182019050919050565b5f819050919050565b5f613edb613ed6613ed184613eb8565b61338a565b613218565b9050919050565b613eeb81613ec1565b82525050565b5f606082019050613f045f830186613221565b613f116020830185613221565b613f1e6040830184613ee2565b949350505050565b5f8160011c9050919050565b5f5f8291508390505b6001851115613f7b57808604811115613f5757613f5661387f565b5b6001851615613f665780820291505b8081029050613f7485613f26565b9450613f3b565b94509492505050565b5f82613f93576001905061404e565b81613fa0575f905061404e565b8160018114613fb65760028114613fc057613fef565b600191505061404e565b60ff841115613fd257613fd161387f565b5b8360020a915084821115613fe957613fe861387f565b5b5061404e565b5060208310610133831016604e8410600b84101617156140245782820a90508381111561401f5761401e61387f565b5b61404e565b6140318484846001613f32565b925090508184048111156140485761404761387f565b5b81810290505b9392505050565b5f61405f82613218565b915061406a83613218565b92506140977fffffffffffffffffffffffffffffffffffffffffffffffffffffffffffffffff8484613f84565b905092915050565b5f819050919050565b5f6140c26140bd6140b88461409f565b61338a565b613218565b9050919050565b6140d2816140a8565b82525050565b5f6060820190506140eb5f830186613221565b6140f86020830185613221565b61410560408301846140c9565b949350505050565b5f819050919050565b5f61413061412b6141268461410d565b61338a565b613218565b9050919050565b61414081614116565b82525050565b5f6060820190506141595f830186613221565b6141666020830185613221565b6141736040830184614137565b94935050505056fea2646970667358221220709bf10e6c8e0fc570192b8f4e102c0e85238ec28a3c98960b7b6208e58b273364736f6c634300081e0033",
			"opcodes": "PUSH1 0x80 PUSH1 0x40 MSTORE PUSH1 0x40 MLOAD DUP1 PUSH2 0x1E0 ADD PUSH1 0x40 MSTORE DUP1 PUSH8 0xD02AB486CEDC0000 PUSH10 0xFFFFFFFFFFFFFFFFFFFF AND DUP2 MSTORE PUSH1 0x20 ADD PUSH9 0x15AF1D78B58C40000 PUSH10 0xFFFFFFFFFFFFFFFFFFFF AND DUP2 MSTORE PUSH1 0x20 ADD PUSH9 0x2B5E3AF16B1880000 PUSH10 0xFFFFFFFFFFFFFFFFFFFF AND DUP2 MSTORE PUSH1 0x20 ADD PUSH9 0x56BC75E2D63100000 PUSH10 0xFFFFFFFFFFFFFFFFFFFF AND DUP2 MSTORE PUSH1 0x20 ADD PUSH9 0xAD78EBC5AC6200000 PUSH10 0xFFFFFFFFFFFFFFFFFFFF AND DUP2 MSTORE PUSH1 0x20 ADD PUSH9 0x15AF1D78B58C400000 PUSH10 0xFFFFFFFFFFFFFFFFFFFF AND DUP2 MSTORE PUSH1 0x20 ADD PUSH9 0x2B5E3AF16B18800000 PUSH10 0xFFFFFFFFFFFFFFFFFFFF AND DUP2 MSTORE PUSH1 0x20 ADD PUSH9 0x56BC75E2D631000000 PUSH10 0xFFFFFFFFFFFFFFFFFFFF AND DUP2 MSTORE PUSH1 0x20 ADD PUSH9 0xAD78EBC5AC62000000 PUSH10 0xFFFFFFFFFFFFFFFFFFFF AND DUP2 MSTORE PUSH1 0x20 ADD PUSH10 0x15AF1D78B58C4000000 PUSH10 0xFFFFFFFFFFFFFFFFFFFF AND DUP2 MSTORE PUSH1 0x20 ADD PUSH10 0x2B5E3AF16B188000000 PUSH10 0xFFFFFFFFFFFFFFFFFFFF AND DUP2 MSTORE PUSH1 0x20 ADD PUSH10 0x56BC75E2D6310000000 PUSH10 0xFFFFFFFFFFFFFFFFFFFF AND DUP2 MSTORE PUSH1 0x20 ADD PUSH10 0xAD78EBC5AC620000000 PUSH10 0xFFFFFFFFFFFFFFFFFFFF AND DUP2 MSTORE PUSH1 0x20 ADD PUSH10 0x15AF1D78B58C40000000 PUSH10 0xFFFFFFFFFFFFFFFFFFFF AND DUP2 MSTORE PUSH1 0x20 ADD PUSH10 0x2B5E3AF16B1880000000 PUSH10 0xFFFFFFFFFFFFFFFFFFFF AND DUP2 MSTORE POP PUSH1 0x7 SWAP1 PUSH1 0xF PUSH2 0x1B8 SWAP3 SWAP2 SWAP1 PUSH2 0x62D JUMP JUMPDEST POP PUSH1 0x40 MLOAD DUP1 PUSH1 0xE0 ADD PUSH1 0x40 MSTORE DUP1 PUSH9 0x15AF1D78B58C40000 PUSH10 0xFFFFFFFFFFFFFFFFFFFF AND DUP2 MSTORE PUSH1 0x20 ADD PUSH9 0x56BC75E2D63100000 PUSH10 0xFFFFFFFFFFFFFFFFFFFF AND DUP2 MSTORE PUSH1 0x20 ADD PUSH9 0x15AF1D78B58C400000 PUSH10 0xFFFFFFFFFFFFFFFFFFFF AND DUP2 MSTORE PUSH1 0x20 ADD PUSH9 0x56BC75E2D631000000 PUSH10 0xFFFFFFFFFFFFFFFFFFFF AND DUP2 MSTORE PUSH1 0x20 ADD PUSH10 0x15AF1D78B58C4000000 PUSH10 0xFFFFFFFFFFFFFFFFFFFF AND DUP2 MSTORE PUSH1 0x20 ADD PUSH10 0x56BC75E2D6310000000 PUSH10 0xFFFFFFFFFFFFFFFFFFFF AND DUP2 MSTORE PUSH1 0x20 ADD PUSH10 0x15AF1D78B58C40000000 PUSH10 0xFFFFFFFFFFFFFFFFFFFF AND DUP2 MSTORE POP PUSH1 0xB SWAP1 PUSH1 0x7 PUSH2 0x292 SWAP3 SWAP2 SWAP1 PUSH2 0x686 JUMP JUMPDEST POP PUSH3 0x15180 PUSH1 0x19 SSTORE CALLVALUE DUP1 ISZERO PUSH2 0x2A5 JUMPI PUSH0 PUSH0 REVERT JUMPDEST POP PUSH1 0x40 MLOAD PUSH2 0x4A10 CODESIZE SUB DUP1 PUSH2 0x4A10 DUP4 CODECOPY DUP2 DUP2 ADD PUSH1 0x40 MSTORE DUP2 ADD SWAP1 PUSH2 0x2C7 SWAP2 SWAP1 PUSH2 0x758 JUMP JUMPDEST DUP4 PUSH0 PUSH0 PUSH2 0x100 EXP DUP2 SLOAD DUP2 PUSH20 0xFFFFFFFFFFFFFFFFFFFFFFFFFFFFFFFFFFFFFFFF MUL NOT AND SWAP1 DUP4 PUSH20 0xFFFFFFFFFFFFFFFFFFFFFFFFFFFFFFFFFFFFFFFF AND MUL OR SWAP1 SSTORE POP DUP3 PUSH1 0x2 PUSH0 PUSH2 0x100 EXP DUP2 SLOAD DUP2 PUSH20 0xFFFFFFFFFFFFFFFFFFFFFFFFFFFFFFFFFFFFFFFF MUL NOT AND SWAP1 DUP4 PUSH20 0xFFFFFFFFFFFFFFFFFFFFFFFFFFFFFFFFFFFFFFFF AND MUL OR SWAP1 SSTORE POP DUP2 PUSH1 0x3 PUSH0 PUSH2 0x100 EXP DUP2 SLOAD DUP2 PUSH20 0xFFFFFFFFFFFFFFFFFFFFFFFFFFFFFFFFFFFFFFFF MUL NOT AND SWAP1 DUP4 PUSH20 0xFFFFFFFFFFFFFFFFFFFFFFFFFFFFFFFFFFFFFFFF AND MUL OR SWAP1 SSTORE POP DUP1 PUSH1 0x4 PUSH0 PUSH2 0x100 EXP DUP2 SLOAD DUP2 PUSH20 0xFFFFFFFFFFFFFFFFFFFFFFFFFFFFFFFFFFFFFFFF MUL NOT AND SWAP1 DUP4 PUSH20 0xFFFFFFFFFFFFFFFFFFFFFFFFFFFFFFFFFFFFFFFF AND MUL OR SWAP1 SSTORE POP PUSH2 0x3E8 PUSH1 0x5 DUP2 SWAP1 SSTORE POP PUSH1 0x1 PUSH1 0x6 DUP2 SWAP1 SSTORE POP PUSH0 PUSH1 0xE PUSH0 PUSH1 0x5 SLOAD DUP2 MSTORE PUSH1 0x20 ADD SWAP1 DUP2 MSTORE PUSH1 0x20 ADD PUSH0 KECCAK256 SWAP1 POP DUP4 DUP2 PUSH0 ADD PUSH0 PUSH2 0x100 EXP DUP2 SLOAD DUP2 PUSH20 0xFFFFFFFFFFFFFFFFFFFFFFFFFFFFFFFFFFFFFFFF MUL NOT AND SWAP1 DUP4 PUSH20 0xFFFFFFFFFFFFFFFFFFFFFFFFFFFFFFFFFFFFFFFF AND MUL OR SWAP1 SSTORE POP PUSH1 0x5 SLOAD DUP2 PUSH1 0x3 ADD DUP2 SWAP1 SSTORE POP PUSH1 0xF DUP2 PUSH1 0x6 ADD DUP2 SWAP1 SSTORE POP TIMESTAMP DUP2 PUSH1 0xC ADD DUP2 SWAP1 SSTORE POP PUSH0 PUSH0 SWAP1 POP PUSH0 PUSH0 SWAP1 POP JUMPDEST PUSH1 0xF DUP2 LT ISZERO PUSH2 0x495 JUMPI PUSH1 0x7 DUP2 DUP2 SLOAD DUP2 LT PUSH2 0x472 JUMPI PUSH2 0x471 PUSH2 0x7BC JUMP JUMPDEST JUMPDEST SWAP1 PUSH0 MSTORE PUSH1 0x20 PUSH0 KECCAK256 ADD SLOAD DUP3 PUSH2 0x486 SWAP2 SWAP1 PUSH2 0x81F JUMP JUMPDEST SWAP2 POP DUP1 DUP1 PUSH1 0x1 ADD SWAP2 POP POP PUSH2 0x455 JUMP JUMPDEST POP DUP1 DUP3 PUSH1 0x9 ADD DUP2 SWAP1 SSTORE POP PUSH1 0x5 SLOAD PUSH1 0xD PUSH0 DUP8 PUSH20 0xFFFFFFFFFFFFFFFFFFFFFFFFFFFFFFFFFFFFFFFF AND PUSH20 0xFFFFFFFFFFFFFFFFFFFFFFFFFFFFFFFFFFFFFFFF AND DUP2 MSTORE PUSH1 0x20 ADD SWAP1 DUP2 MSTORE PUSH1 0x20 ADD PUSH0 KECCAK256 DUP2 SWAP1 SSTORE POP PUSH0 PUSH0 SWAP1 POP JUMPDEST PUSH1 0xB DUP1 SLOAD SWAP1 POP DUP2 LT ISZERO PUSH2 0x621 JUMPI PUSH1 0x40 MLOAD DUP1 PUSH1 0xE0 ADD PUSH1 0x40 MSTORE DUP1 PUSH1 0x5 SLOAD DUP2 MSTORE PUSH1 0x20 ADD PUSH1 0x5 SLOAD DUP2 MSTORE PUSH1 0x20 ADD DUP3 DUP2 MSTORE PUSH1 0x20 ADD PUSH0 DUP2 MSTORE PUSH1 0x20 ADD PUSH0 DUP2 MSTORE PUSH1 0x20 ADD PUSH0 DUP2 MSTORE PUSH1 0x20 ADD PUSH0 DUP2 MSTORE POP PUSH1 0x8 PUSH0 DUP4 DUP2 MSTORE PUSH1 0x20 ADD SWAP1 DUP2 MSTORE PUSH1 0x20 ADD PUSH0 KECCAK256 PUSH0 PUSH1 0x5 SLOAD DUP2 MSTORE PUSH1 0x20 ADD SWAP1 DUP2 MSTORE PUSH1 0x20 ADD PUSH0 KECCAK256 PUSH0 DUP3 ADD MLOAD DUP2 PUSH0 ADD SSTORE PUSH1 0x20 DUP3 ADD MLOAD DUP2 PUSH1 0x1 ADD SSTORE PUSH1 0x40 DUP3 ADD MLOAD DUP2 PUSH1 0x2 ADD SSTORE PUSH1 0x60 DUP3 ADD MLOAD DUP2 PUSH1 0x3 ADD SSTORE PUSH1 0x80 DUP3 ADD MLOAD DUP2 PUSH1 0x4 ADD SSTORE PUSH1 0xA0 DUP3 ADD MLOAD DUP2 PUSH1 0x5 ADD SSTORE PUSH1 0xC0 DUP3 ADD MLOAD DUP2 PUSH1 0x6 ADD SSTORE SWAP1 POP POP PUSH1 0xC PUSH0 DUP3 DUP2 MSTORE PUSH1 0x20 ADD SWAP1 DUP2 MSTORE PUSH1 0x20 ADD PUSH0 KECCAK256 PUSH1 0x5 SLOAD SWAP1 DUP1 PUSH1 0x1 DUP2 SLOAD ADD DUP1 DUP3 SSTORE DUP1 SWAP2 POP POP PUSH1 0x1 SWAP1 SUB SWAP1 PUSH0 MSTORE PUSH1 0x20 PUSH0 KECCAK256 ADD PUSH0 SWAP1 SWAP2 SWAP1 SWAP2 SWAP1 SWAP2 POP SSTORE PUSH1 0xA PUSH0 DUP3 DUP2 MSTORE PUSH1 0x20 ADD SWAP1 DUP2 MSTORE PUSH1 0x20 ADD PUSH0 KECCAK256 PUSH0 PUSH1 0x5 SLOAD DUP2 MSTORE PUSH1 0x20 ADD SWAP1 DUP2 MSTORE PUSH1 0x20 ADD PUSH0 KECCAK256 PUSH1 0x5 SLOAD SWAP1 DUP1 PUSH1 0x1 DUP2 SLOAD ADD DUP1 DUP3 SSTORE DUP1 SWAP2 POP POP PUSH1 0x1 SWAP1 SUB SWAP1 PUSH0 MSTORE PUSH1 0x20 PUSH0 KECCAK256 ADD PUSH0 SWAP1 SWAP2 SWAP1 SWAP2 SWAP1 SWAP2 POP SSTORE DUP1 DUP1 PUSH1 0x1 ADD SWAP2 POP POP PUSH2 0x4E8 JUMP JUMPDEST POP POP POP POP POP POP POP PUSH2 0x852 JUMP JUMPDEST DUP3 DUP1 SLOAD DUP3 DUP3 SSTORE SWAP1 PUSH0 MSTORE PUSH1 0x20 PUSH0 KECCAK256 SWAP1 DUP2 ADD SWAP3 DUP3 ISZERO PUSH2 0x675 JUMPI SWAP2 PUSH1 0x20 MUL DUP3 ADD JUMPDEST DUP3 DUP2 GT ISZERO PUSH2 0x674 JUMPI DUP3 MLOAD DUP3 SWAP1 PUSH10 0xFFFFFFFFFFFFFFFFFFFF AND SWAP1 SSTORE SWAP2 PUSH1 0x20 ADD SWAP2 SWAP1 PUSH1 0x1 ADD SWAP1 PUSH2 0x64B JUMP JUMPDEST JUMPDEST POP SWAP1 POP PUSH2 0x682 SWAP2 SWAP1 PUSH2 0x6DF JUMP JUMPDEST POP SWAP1 JUMP JUMPDEST DUP3 DUP1 SLOAD DUP3 DUP3 SSTORE SWAP1 PUSH0 MSTORE PUSH1 0x20 PUSH0 KECCAK256 SWAP1 DUP2 ADD SWAP3 DUP3 ISZERO PUSH2 0x6CE JUMPI SWAP2 PUSH1 0x20 MUL DUP3 ADD JUMPDEST DUP3 DUP2 GT ISZERO PUSH2 0x6CD JUMPI DUP3 MLOAD DUP3 SWAP1 PUSH10 0xFFFFFFFFFFFFFFFFFFFF AND SWAP1 SSTORE SWAP2 PUSH1 0x20 ADD SWAP2 SWAP1 PUSH1 0x1 ADD SWAP1 PUSH2 0x6A4 JUMP JUMPDEST JUMPDEST POP SWAP1 POP PUSH2 0x6DB SWAP2 SWAP1 PUSH2 0x6DF JUMP JUMPDEST POP SWAP1 JUMP JUMPDEST JUMPDEST DUP1 DUP3 GT ISZERO PUSH2 0x6F6 JUMPI PUSH0 DUP2 PUSH0 SWAP1 SSTORE POP PUSH1 0x1 ADD PUSH2 0x6E0 JUMP JUMPDEST POP SWAP1 JUMP JUMPDEST PUSH0 PUSH0 REVERT JUMPDEST PUSH0 PUSH20 0xFFFFFFFFFFFFFFFFFFFFFFFFFFFFFFFFFFFFFFFF DUP3 AND SWAP1 POP SWAP2 SWAP1 POP JUMP JUMPDEST PUSH0 PUSH2 0x727 DUP3 PUSH2 0x6FE JUMP JUMPDEST SWAP1 POP SWAP2 SWAP1 POP JUMP JUMPDEST PUSH2 0x737 DUP2 PUSH2 0x71D JUMP JUMPDEST DUP2 EQ PUSH2 0x741 JUMPI PUSH0 PUSH0 REVERT JUMPDEST POP JUMP JUMPDEST PUSH0 DUP2 MLOAD SWAP1 POP PUSH2 0x752 DUP2 PUSH2 0x72E JUMP JUMPDEST SWAP3 SWAP2 POP POP JUMP JUMPDEST PUSH0 PUSH0 PUSH0 PUSH0 PUSH1 0x80 DUP6 DUP8 SUB SLT ISZERO PUSH2 0x770 JUMPI PUSH2 0x76F PUSH2 0x6FA JUMP JUMPDEST JUMPDEST PUSH0 PUSH2 0x77D DUP8 DUP3 DUP9 ADD PUSH2 0x744 JUMP JUMPDEST SWAP5 POP POP PUSH1 0x20 PUSH2 0x78E DUP8 DUP3 DUP9 ADD PUSH2 0x744 JUMP JUMPDEST SWAP4 POP POP PUSH1 0x40 PUSH2 0x79F DUP8 DUP3 DUP9 ADD PUSH2 0x744 JUMP JUMPDEST SWAP3 POP POP PUSH1 0x60 PUSH2 0x7B0 DUP8 DUP3 DUP9 ADD PUSH2 0x744 JUMP JUMPDEST SWAP2 POP POP SWAP3 SWAP6 SWAP2 SWAP5 POP SWAP3 POP JUMP JUMPDEST PUSH32 0x4E487B7100000000000000000000000000000000000000000000000000000000 PUSH0 MSTORE PUSH1 0x32 PUSH1 0x4 MSTORE PUSH1 0x24 PUSH0 REVERT JUMPDEST PUSH0 DUP2 SWAP1 POP SWAP2 SWAP1 POP JUMP JUMPDEST PUSH32 0x4E487B7100000000000000000000000000000000000000000000000000000000 PUSH0 MSTORE PUSH1 0x11 PUSH1 0x4 MSTORE PUSH1 0x24 PUSH0 REVERT JUMPDEST PUSH0 PUSH2 0x829 DUP3 PUSH2 0x7E9 JUMP JUMPDEST SWAP2 POP PUSH2 0x834 DUP4 PUSH2 0x7E9 JUMP JUMPDEST SWAP3 POP DUP3 DUP3 ADD SWAP1 POP DUP1 DUP3 GT ISZERO PUSH2 0x84C JUMPI PUSH2 0x84B PUSH2 0x7F2 JUMP JUMPDEST JUMPDEST SWAP3 SWAP2 POP POP JUMP JUMPDEST PUSH2 0x41B1 DUP1 PUSH2 0x85F PUSH0 CODECOPY PUSH0 RETURN INVALID PUSH1 0x80 PUSH1 0x40 MSTORE CALLVALUE DUP1 ISZERO PUSH2 0xF JUMPI PUSH0 PUSH0 REVERT JUMPDEST POP PUSH1 0x4 CALLDATASIZE LT PUSH2 0x225 JUMPI PUSH0 CALLDATALOAD PUSH1 0xE0 SHR DUP1 PUSH4 0x5EC64A44 GT PUSH2 0x12E JUMPI DUP1 PUSH4 0xAE4708DC GT PUSH2 0xB6 JUMPI DUP1 PUSH4 0xD54D6DDB GT PUSH2 0x7A JUMPI DUP1 PUSH4 0xD54D6DDB EQ PUSH2 0x723 JUMPI DUP1 PUSH4 0xE9E34A16 EQ PUSH2 0x73F JUMPI DUP1 PUSH4 0xEC597E6F EQ PUSH2 0x75D JUMPI DUP1 PUSH4 0xF207564E EQ PUSH2 0x77B JUMPI DUP1 PUSH4 0xF5D74D93 EQ PUSH2 0x797 JUMPI PUSH2 0x225 JUMP JUMPDEST DUP1 PUSH4 0xAE4708DC EQ PUSH2 0x63F JUMPI DUP1 PUSH4 0xBFF1F9E1 EQ PUSH2 0x66F JUMPI DUP1 PUSH4 0xC216212A EQ PUSH2 0x68D JUMPI DUP1 PUSH4 0xCB0E0D7D EQ PUSH2 0x6BD JUMPI DUP1 PUSH4 0xCE79C2C3 EQ PUSH2 0x6ED JUMPI PUSH2 0x225 JUMP JUMPDEST DUP1 PUSH4 0x81A0B816 GT PUSH2 0xFD JUMPI DUP1 PUSH4 0x81A0B816 EQ PUSH2 0x573 JUMPI DUP1 PUSH4 0x88AFBE3E EQ PUSH2 0x591 JUMPI DUP1 PUSH4 0x8D58644C EQ PUSH2 0x5C1 JUMPI DUP1 PUSH4 0x8DA5CB5B EQ PUSH2 0x5F1 JUMPI DUP1 PUSH4 0x8F030ECE EQ PUSH2 0x60F JUMPI PUSH2 0x225 JUMP JUMPDEST DUP1 PUSH4 0x5EC64A44 EQ PUSH2 0x4D3 JUMPI DUP1 PUSH4 0x70C8D770 EQ PUSH2 0x503 JUMPI DUP1 PUSH4 0x78F6AD6D EQ PUSH2 0x537 JUMPI DUP1 PUSH4 0x7CDC65F2 EQ PUSH2 0x555 JUMPI PUSH2 0x225 JUMP JUMPDEST DUP1 PUSH4 0x32FCD966 GT PUSH2 0x1B1 JUMPI DUP1 PUSH4 0x45977D03 GT PUSH2 0x180 JUMPI DUP1 PUSH4 0x45977D03 EQ PUSH2 0x413 JUMPI DUP1 PUSH4 0x46B9DECE EQ PUSH2 0x42F JUMPI DUP1 PUSH4 0x52A8C4C4 EQ PUSH2 0x467 JUMPI DUP1 PUSH4 0x58C7D352 EQ PUSH2 0x485 JUMPI DUP1 PUSH4 0x5AABF7F1 EQ PUSH2 0x4A3 JUMPI PUSH2 0x225 JUMP JUMPDEST DUP1 PUSH4 0x32FCD966 EQ PUSH2 0x36C JUMPI DUP1 PUSH4 0x365B98B2 EQ PUSH2 0x38A JUMPI DUP1 PUSH4 0x375B43B4 EQ PUSH2 0x3C5 JUMPI DUP1 PUSH4 0x39AB3603 EQ PUSH2 0x3E3 JUMPI PUSH2 0x225 JUMP JUMPDEST DUP1 PUSH4 0x18AB487F GT PUSH2 0x1F8 JUMPI DUP1 PUSH4 0x18AB487F EQ PUSH2 0x2B1 JUMPI DUP1 PUSH4 0x24513088 EQ PUSH2 0x2E1 JUMPI DUP1 PUSH4 0x2C831633 EQ PUSH2 0x312 JUMPI DUP1 PUSH4 0x2F48AB7D EQ PUSH2 0x330 JUMPI DUP1 PUSH4 0x32BC298C EQ PUSH2 0x34E JUMPI PUSH2 0x225 JUMP JUMPDEST DUP1 PUSH4 0x1BE02B2 EQ PUSH2 0x229 JUMPI DUP1 PUSH4 0x1C234A8 EQ PUSH2 0x247 JUMPI DUP1 PUSH4 0xF2B7CC9 EQ PUSH2 0x265 JUMPI DUP1 PUSH4 0x11F65D39 EQ PUSH2 0x295 JUMPI JUMPDEST PUSH0 PUSH0 REVERT JUMPDEST PUSH2 0x231 PUSH2 0x7B5 JUMP JUMPDEST PUSH1 0x40 MLOAD PUSH2 0x23E SWAP2 SWAP1 PUSH2 0x3230 JUMP JUMPDEST PUSH1 0x40 MLOAD DUP1 SWAP2 SUB SWAP1 RETURN JUMPDEST PUSH2 0x24F PUSH2 0x7BB JUMP JUMPDEST PUSH1 0x40 MLOAD PUSH2 0x25C SWAP2 SWAP1 PUSH2 0x3230 JUMP JUMPDEST PUSH1 0x40 MLOAD DUP1 SWAP2 SUB SWAP1 RETURN JUMPDEST PUSH2 0x27F PUSH1 0x4 DUP1 CALLDATASIZE SUB DUP2 ADD SWAP1 PUSH2 0x27A SWAP2 SWAP1 PUSH2 0x3277 JUMP JUMPDEST PUSH2 0x7C1 JUMP JUMPDEST PUSH1 0x40 MLOAD PUSH2 0x28C SWAP2 SWAP1 PUSH2 0x3230 JUMP JUMPDEST PUSH1 0x40 MLOAD DUP1 SWAP2 SUB SWAP1 RETURN JUMPDEST PUSH2 0x2AF PUSH1 0x4 DUP1 CALLDATASIZE SUB DUP2 ADD SWAP1 PUSH2 0x2AA SWAP2 SWAP1 PUSH2 0x32EE JUMP JUMPDEST PUSH2 0x7EC JUMP JUMPDEST STOP JUMPDEST PUSH2 0x2CB PUSH1 0x4 DUP1 CALLDATASIZE SUB DUP2 ADD SWAP1 PUSH2 0x2C6 SWAP2 SWAP1 PUSH2 0x3319 JUMP JUMPDEST PUSH2 0xAD7 JUMP JUMPDEST PUSH1 0x40 MLOAD PUSH2 0x2D8 SWAP2 SWAP1 PUSH2 0x3230 JUMP JUMPDEST PUSH1 0x40 MLOAD DUP1 SWAP2 SUB SWAP1 RETURN JUMPDEST PUSH2 0x2FB PUSH1 0x4 DUP1 CALLDATASIZE SUB DUP2 ADD SWAP1 PUSH2 0x2F6 SWAP2 SWAP1 PUSH2 0x3319 JUMP JUMPDEST PUSH2 0xAEC JUMP JUMPDEST PUSH1 0x40 MLOAD PUSH2 0x309 SWAP3 SWAP2 SWAP1 PUSH2 0x3344 JUMP JUMPDEST PUSH1 0x40 MLOAD DUP1 SWAP2 SUB SWAP1 RETURN JUMPDEST PUSH2 0x31A PUSH2 0xB82 JUMP JUMPDEST PUSH1 0x40 MLOAD PUSH2 0x327 SWAP2 SWAP1 PUSH2 0x3230 JUMP JUMPDEST PUSH1 0x40 MLOAD DUP1 SWAP2 SUB SWAP1 RETURN JUMPDEST PUSH2 0x338 PUSH2 0xB88 JUMP JUMPDEST PUSH1 0x40 MLOAD PUSH2 0x345 SWAP2 SWAP1 PUSH2 0x33E5 JUMP JUMPDEST PUSH1 0x40 MLOAD DUP1 SWAP2 SUB SWAP1 RETURN JUMPDEST PUSH2 0x356 PUSH2 0xBAC JUMP JUMPDEST PUSH1 0x40 MLOAD PUSH2 0x363 SWAP2 SWAP1 PUSH2 0x3230 JUMP JUMPDEST PUSH1 0x40 MLOAD DUP1 SWAP2 SUB SWAP1 RETURN JUMPDEST PUSH2 0x374 PUSH2 0xBB3 JUMP JUMPDEST PUSH1 0x40 MLOAD PUSH2 0x381 SWAP2 SWAP1 PUSH2 0x3230 JUMP JUMPDEST PUSH1 0x40 MLOAD DUP1 SWAP2 SUB SWAP1 RETURN JUMPDEST PUSH2 0x3A4 PUSH1 0x4 DUP1 CALLDATASIZE SUB DUP2 ADD SWAP1 PUSH2 0x39F SWAP2 SWAP1 PUSH2 0x3319 JUMP JUMPDEST PUSH2 0xBBF JUMP JUMPDEST PUSH1 0x40 MLOAD PUSH2 0x3BC SWAP13 SWAP12 SWAP11 SWAP10 SWAP9 SWAP8 SWAP7 SWAP6 SWAP5 SWAP4 SWAP3 SWAP2 SWAP1 PUSH2 0x341E JUMP JUMPDEST PUSH1 0x40 MLOAD DUP1 SWAP2 SUB SWAP1 RETURN JUMPDEST PUSH2 0x3CD PUSH2 0xC3A JUMP JUMPDEST PUSH1 0x40 MLOAD PUSH2 0x3DA SWAP2 SWAP1 PUSH2 0x3230 JUMP JUMPDEST PUSH1 0x40 MLOAD DUP1 SWAP2 SUB SWAP1 RETURN JUMPDEST PUSH2 0x3FD PUSH1 0x4 DUP1 CALLDATASIZE SUB DUP2 ADD SWAP1 PUSH2 0x3F8 SWAP2 SWAP1 PUSH2 0x3319 JUMP JUMPDEST PUSH2 0xC3F JUMP JUMPDEST PUSH1 0x40 MLOAD PUSH2 0x40A SWAP2 SWAP1 PUSH2 0x3230 JUMP JUMPDEST PUSH1 0x40 MLOAD DUP1 SWAP2 SUB SWAP1 RETURN JUMPDEST PUSH2 0x42D PUSH1 0x4 DUP1 CALLDATASIZE SUB DUP2 ADD SWAP1 PUSH2 0x428 SWAP2 SWAP1 PUSH2 0x3319 JUMP JUMPDEST PUSH2 0xC5F JUMP JUMPDEST STOP JUMPDEST PUSH2 0x449 PUSH1 0x4 DUP1 CALLDATASIZE SUB DUP2 ADD SWAP1 PUSH2 0x444 SWAP2 SWAP1 PUSH2 0x3319 JUMP JUMPDEST PUSH2 0x102B JUMP JUMPDEST PUSH1 0x40 MLOAD PUSH2 0x45E SWAP10 SWAP9 SWAP8 SWAP7 SWAP6 SWAP5 SWAP4 SWAP3 SWAP2 SWAP1 PUSH2 0x34D6 JUMP JUMPDEST PUSH1 0x40 MLOAD DUP1 SWAP2 SUB SWAP1 RETURN JUMPDEST PUSH2 0x46F PUSH2 0x1075 JUMP JUMPDEST PUSH1 0x40 MLOAD PUSH2 0x47C SWAP2 SWAP1 PUSH2 0x3230 JUMP JUMPDEST PUSH1 0x40 MLOAD DUP1 SWAP2 SUB SWAP1 RETURN JUMPDEST PUSH2 0x48D PUSH2 0x107B JUMP JUMPDEST PUSH1 0x40 MLOAD PUSH2 0x49A SWAP2 SWAP1 PUSH2 0x3230 JUMP JUMPDEST PUSH1 0x40 MLOAD DUP1 SWAP2 SUB SWAP1 RETURN JUMPDEST PUSH2 0x4BD PUSH1 0x4 DUP1 CALLDATASIZE SUB DUP2 ADD SWAP1 PUSH2 0x4B8 SWAP2 SWAP1 PUSH2 0x3561 JUMP JUMPDEST PUSH2 0x1080 JUMP JUMPDEST PUSH1 0x40 MLOAD PUSH2 0x4CA SWAP2 SWAP1 PUSH2 0x3230 JUMP JUMPDEST PUSH1 0x40 MLOAD DUP1 SWAP2 SUB SWAP1 RETURN JUMPDEST PUSH2 0x4ED PUSH1 0x4 DUP1 CALLDATASIZE SUB DUP2 ADD SWAP1 PUSH2 0x4E8 SWAP2 SWAP1 PUSH2 0x3277 JUMP JUMPDEST PUSH2 0x10B6 JUMP JUMPDEST PUSH1 0x40 MLOAD PUSH2 0x4FA SWAP2 SWAP1 PUSH2 0x3230 JUMP JUMPDEST PUSH1 0x40 MLOAD DUP1 SWAP2 SUB SWAP1 RETURN JUMPDEST PUSH2 0x51D PUSH1 0x4 DUP1 CALLDATASIZE SUB DUP2 ADD SWAP1 PUSH2 0x518 SWAP2 SWAP1 PUSH2 0x3277 JUMP JUMPDEST PUSH2 0x10E1 JUMP JUMPDEST PUSH1 0x40 MLOAD PUSH2 0x52E SWAP6 SWAP5 SWAP4 SWAP3 SWAP2 SWAP1 PUSH2 0x35B1 JUMP JUMPDEST PUSH1 0x40 MLOAD DUP1 SWAP2 SUB SWAP1 RETURN JUMPDEST PUSH2 0x53F PUSH2 0x112D JUMP JUMPDEST PUSH1 0x40 MLOAD PUSH2 0x54C SWAP2 SWAP1 PUSH2 0x3230 JUMP JUMPDEST PUSH1 0x40 MLOAD DUP1 SWAP2 SUB SWAP1 RETURN JUMPDEST PUSH2 0x55D PUSH2 0x1133 JUMP JUMPDEST PUSH1 0x40 MLOAD PUSH2 0x56A SWAP2 SWAP1 PUSH2 0x3602 JUMP JUMPDEST PUSH1 0x40 MLOAD DUP1 SWAP2 SUB SWAP1 RETURN JUMPDEST PUSH2 0x57B PUSH2 0x1158 JUMP JUMPDEST PUSH1 0x40 MLOAD PUSH2 0x588 SWAP2 SWAP1 PUSH2 0x3602 JUMP JUMPDEST PUSH1 0x40 MLOAD DUP1 SWAP2 SUB SWAP1 RETURN JUMPDEST PUSH2 0x5AB PUSH1 0x4 DUP1 CALLDATASIZE SUB DUP2 ADD SWAP1 PUSH2 0x5A6 SWAP2 SWAP1 PUSH2 0x3319 JUMP JUMPDEST PUSH2 0x117D JUMP JUMPDEST PUSH1 0x40 MLOAD PUSH2 0x5B8 SWAP2 SWAP1 PUSH2 0x3230 JUMP JUMPDEST PUSH1 0x40 MLOAD DUP1 SWAP2 SUB SWAP1 RETURN JUMPDEST PUSH2 0x5DB PUSH1 0x4 DUP1 CALLDATASIZE SUB DUP2 ADD SWAP1 PUSH2 0x5D6 SWAP2 SWAP1 PUSH2 0x3561 JUMP JUMPDEST PUSH2 0x1192 JUMP JUMPDEST PUSH1 0x40 MLOAD PUSH2 0x5E8 SWAP2 SWAP1 PUSH2 0x3230 JUMP JUMPDEST PUSH1 0x40 MLOAD DUP1 SWAP2 SUB SWAP1 RETURN JUMPDEST PUSH2 0x5F9 PUSH2 0x11C8 JUMP JUMPDEST PUSH1 0x40 MLOAD PUSH2 0x606 SWAP2 SWAP1 PUSH2 0x3602 JUMP JUMPDEST PUSH1 0x40 MLOAD DUP1 SWAP2 SUB SWAP1 RETURN JUMPDEST PUSH2 0x629 PUSH1 0x4 DUP1 CALLDATASIZE SUB DUP2 ADD SWAP1 PUSH2 0x624 SWAP2 SWAP1 PUSH2 0x3561 JUMP JUMPDEST PUSH2 0x11ED JUMP JUMPDEST PUSH1 0x40 MLOAD PUSH2 0x636 SWAP2 SWAP1 PUSH2 0x3230 JUMP JUMPDEST PUSH1 0x40 MLOAD DUP1 SWAP2 SUB SWAP1 RETURN JUMPDEST PUSH2 0x659 PUSH1 0x4 DUP1 CALLDATASIZE SUB DUP2 ADD SWAP1 PUSH2 0x654 SWAP2 SWAP1 PUSH2 0x3319 JUMP JUMPDEST PUSH2 0x1223 JUMP JUMPDEST PUSH1 0x40 MLOAD PUSH2 0x666 SWAP2 SWAP1 PUSH2 0x3230 JUMP JUMPDEST PUSH1 0x40 MLOAD DUP1 SWAP2 SUB SWAP1 RETURN JUMPDEST PUSH2 0x677 PUSH2 0x1243 JUMP JUMPDEST PUSH1 0x40 MLOAD PUSH2 0x684 SWAP2 SWAP1 PUSH2 0x3230 JUMP JUMPDEST PUSH1 0x40 MLOAD DUP1 SWAP2 SUB SWAP1 RETURN JUMPDEST PUSH2 0x6A7 PUSH1 0x4 DUP1 CALLDATASIZE SUB DUP2 ADD SWAP1 PUSH2 0x6A2 SWAP2 SWAP1 PUSH2 0x3319 JUMP JUMPDEST PUSH2 0x1249 JUMP JUMPDEST PUSH1 0x40 MLOAD PUSH2 0x6B4 SWAP2 SWAP1 PUSH2 0x3230 JUMP JUMPDEST PUSH1 0x40 MLOAD DUP1 SWAP2 SUB SWAP1 RETURN JUMPDEST PUSH2 0x6D7 PUSH1 0x4 DUP1 CALLDATASIZE SUB DUP2 ADD SWAP1 PUSH2 0x6D2 SWAP2 SWAP1 PUSH2 0x3645 JUMP JUMPDEST PUSH2 0x1269 JUMP JUMPDEST PUSH1 0x40 MLOAD PUSH2 0x6E4 SWAP2 SWAP1 PUSH2 0x3230 JUMP JUMPDEST PUSH1 0x40 MLOAD DUP1 SWAP2 SUB SWAP1 RETURN JUMPDEST PUSH2 0x707 PUSH1 0x4 DUP1 CALLDATASIZE SUB DUP2 ADD SWAP1 PUSH2 0x702 SWAP2 SWAP1 PUSH2 0x3277 JUMP JUMPDEST PUSH2 0x127E JUMP JUMPDEST PUSH1 0x40 MLOAD PUSH2 0x71A SWAP8 SWAP7 SWAP6 SWAP5 SWAP4 SWAP3 SWAP2 SWAP1 PUSH2 0x3670 JUMP JUMPDEST PUSH1 0x40 MLOAD DUP1 SWAP2 SUB SWAP1 RETURN JUMPDEST PUSH2 0x73D PUSH1 0x4 DUP1 CALLDATASIZE SUB DUP2 ADD SWAP1 PUSH2 0x738 SWAP2 SWAP1 PUSH2 0x3319 JUMP JUMPDEST PUSH2 0x12C7 JUMP JUMPDEST STOP JUMPDEST PUSH2 0x747 PUSH2 0x164B JUMP JUMPDEST PUSH1 0x40 MLOAD PUSH2 0x754 SWAP2 SWAP1 PUSH2 0x3602 JUMP JUMPDEST PUSH1 0x40 MLOAD DUP1 SWAP2 SUB SWAP1 RETURN JUMPDEST PUSH2 0x765 PUSH2 0x1670 JUMP JUMPDEST PUSH1 0x40 MLOAD PUSH2 0x772 SWAP2 SWAP1 PUSH2 0x3230 JUMP JUMPDEST PUSH1 0x40 MLOAD DUP1 SWAP2 SUB SWAP1 RETURN JUMPDEST PUSH2 0x795 PUSH1 0x4 DUP1 CALLDATASIZE SUB DUP2 ADD SWAP1 PUSH2 0x790 SWAP2 SWAP1 PUSH2 0x3319 JUMP JUMPDEST PUSH2 0x1676 JUMP JUMPDEST STOP JUMPDEST PUSH2 0x79F PUSH2 0x1BE4 JUMP JUMPDEST PUSH1 0x40 MLOAD PUSH2 0x7AC SWAP2 SWAP1 PUSH2 0x3602 JUMP JUMPDEST PUSH1 0x40 MLOAD DUP1 SWAP2 SUB SWAP1 RETURN JUMPDEST PUSH1 0x18 SLOAD DUP2 JUMP JUMPDEST PUSH2 0x2710 DUP2 JUMP JUMPDEST PUSH1 0xC PUSH1 0x20 MSTORE DUP2 PUSH0 MSTORE PUSH1 0x40 PUSH0 KECCAK256 DUP2 DUP2 SLOAD DUP2 LT PUSH2 0x7DA JUMPI PUSH0 DUP1 REVERT JUMPDEST SWAP1 PUSH0 MSTORE PUSH1 0x20 PUSH0 KECCAK256 ADD PUSH0 SWAP2 POP SWAP2 POP POP SLOAD DUP2 JUMP JUMPDEST PUSH0 PUSH1 0xE PUSH0 DUP4 PUSH4 0xFFFFFFFF AND DUP2 MSTORE PUSH1 0x20 ADD SWAP1 DUP2 MSTORE PUSH1 0x20 ADD PUSH0 KECCAK256 SWAP1 POP CALLER PUSH20 0xFFFFFFFFFFFFFFFFFFFFFFFFFFFFFFFFFFFFFFFF AND DUP2 PUSH0 ADD PUSH0 SWAP1 SLOAD SWAP1 PUSH2 0x100 EXP SWAP1 DIV PUSH20 0xFFFFFFFFFFFFFFFFFFFFFFFFFFFFFFFFFFFFFFFF AND PUSH20 0xFFFFFFFFFFFFFFFFFFFFFFFFFFFFFFFFFFFFFFFF AND EQ PUSH2 0x896 JUMPI PUSH1 0x40 MLOAD PUSH32 0x8C379A000000000000000000000000000000000000000000000000000000000 DUP2 MSTORE PUSH1 0x4 ADD PUSH2 0x88D SWAP1 PUSH2 0x3737 JUMP JUMPDEST PUSH1 0x40 MLOAD DUP1 SWAP2 SUB SWAP1 REVERT JUMPDEST PUSH1 0x7 DUP2 PUSH1 0xA ADD SLOAD LT PUSH2 0x8DD JUMPI PUSH1 0x40 MLOAD PUSH32 0x8C379A000000000000000000000000000000000000000000000000000000000 DUP2 MSTORE PUSH1 0x4 ADD PUSH2 0x8D4 SWAP1 PUSH2 0x379F JUMP JUMPDEST PUSH1 0x40 MLOAD DUP1 SWAP2 SUB SWAP1 REVERT JUMPDEST PUSH0 DUP2 PUSH1 0xA ADD SLOAD SWAP1 POP PUSH0 PUSH1 0xB DUP3 DUP2 SLOAD DUP2 LT PUSH2 0x8FA JUMPI PUSH2 0x8F9 PUSH2 0x37BD JUMP JUMPDEST JUMPDEST SWAP1 PUSH0 MSTORE PUSH1 0x20 PUSH0 KECCAK256 ADD SLOAD SWAP1 POP PUSH0 PUSH0 SWAP1 SLOAD SWAP1 PUSH2 0x100 EXP SWAP1 DIV PUSH20 0xFFFFFFFFFFFFFFFFFFFFFFFFFFFFFFFFFFFFFFFF AND PUSH20 0xFFFFFFFFFFFFFFFFFFFFFFFFFFFFFFFFFFFFFFFF AND PUSH4 0x23B872DD CALLER ADDRESS DUP5 PUSH1 0x40 MLOAD DUP5 PUSH4 0xFFFFFFFF AND PUSH1 0xE0 SHL DUP2 MSTORE PUSH1 0x4 ADD PUSH2 0x962 SWAP4 SWAP3 SWAP2 SWAP1 PUSH2 0x37EA JUMP JUMPDEST PUSH1 0x20 PUSH1 0x40 MLOAD DUP1 DUP4 SUB DUP2 PUSH0 DUP8 GAS CALL ISZERO DUP1 ISZERO PUSH2 0x97E JUMPI RETURNDATASIZE PUSH0 PUSH0 RETURNDATACOPY RETURNDATASIZE PUSH0 REVERT JUMPDEST POP POP POP POP PUSH1 0x40 MLOAD RETURNDATASIZE PUSH1 0x1F NOT PUSH1 0x1F DUP3 ADD AND DUP3 ADD DUP1 PUSH1 0x40 MSTORE POP DUP2 ADD SWAP1 PUSH2 0x9A2 SWAP2 SWAP1 PUSH2 0x3854 JUMP JUMPDEST POP PUSH1 0x1 DUP4 PUSH1 0xA ADD PUSH0 DUP3 DUP3 SLOAD PUSH2 0x9B7 SWAP2 SWAP1 PUSH2 0x38AC JUMP JUMPDEST SWAP3 POP POP DUP2 SWAP1 SSTORE POP DUP1 DUP4 PUSH1 0xB ADD PUSH0 DUP3 DUP3 SLOAD PUSH2 0x9D1 SWAP2 SWAP1 PUSH2 0x38AC JUMP JUMPDEST SWAP3 POP POP DUP2 SWAP1 SSTORE POP PUSH2 0x9E3 DUP3 DUP6 DUP4 PUSH2 0x1C09 JUMP JUMPDEST DUP3 PUSH1 0x1 ADD PUSH1 0x40 MLOAD DUP1 PUSH1 0x80 ADD PUSH1 0x40 MSTORE DUP1 DUP4 DUP2 MSTORE PUSH1 0x20 ADD PUSH0 DUP2 MSTORE PUSH1 0x20 ADD TIMESTAMP DUP2 MSTORE PUSH1 0x20 ADD PUSH1 0x2 PUSH1 0xFF AND DUP2 MSTORE POP SWAP1 DUP1 PUSH1 0x1 DUP2 SLOAD ADD DUP1 DUP3 SSTORE DUP1 SWAP2 POP POP PUSH1 0x1 SWAP1 SUB SWAP1 PUSH0 MSTORE PUSH1 0x20 PUSH0 KECCAK256 SWAP1 PUSH1 0x4 MUL ADD PUSH0 SWAP1 SWAP2 SWAP1 SWAP2 SWAP1 SWAP2 POP PUSH0 DUP3 ADD MLOAD DUP2 PUSH0 ADD SSTORE PUSH1 0x20 DUP3 ADD MLOAD DUP2 PUSH1 0x1 ADD SSTORE PUSH1 0x40 DUP3 ADD MLOAD DUP2 PUSH1 0x2 ADD SSTORE PUSH1 0x60 DUP3 ADD MLOAD DUP2 PUSH1 0x3 ADD PUSH0 PUSH2 0x100 EXP DUP2 SLOAD DUP2 PUSH1 0xFF MUL NOT AND SWAP1 DUP4 PUSH1 0xFF AND MUL OR SWAP1 SSTORE POP POP POP DUP4 PUSH4 0xFFFFFFFF AND CALLER PUSH20 0xFFFFFFFFFFFFFFFFFFFFFFFFFFFFFFFFFFFFFFFF AND PUSH32 0xBABB6A363FD9A057996D09882C0B74B710D121707D19EEFFD91C51C3171A7C91 PUSH1 0x1 DUP6 PUSH2 0xABC SWAP2 SWAP1 PUSH2 0x38AC JUMP JUMPDEST PUSH1 0x40 MLOAD PUSH2 0xAC9 SWAP2 SWAP1 PUSH2 0x3929 JUMP JUMPDEST PUSH1 0x40 MLOAD DUP1 SWAP2 SUB SWAP1 LOG3 POP POP POP POP JUMP JUMPDEST PUSH1 0x15 PUSH1 0x20 MSTORE DUP1 PUSH0 MSTORE PUSH1 0x40 PUSH0 KECCAK256 PUSH0 SWAP2 POP SWAP1 POP SLOAD DUP2 JUMP JUMPDEST PUSH0 PUSH0 PUSH0 PUSH1 0xE PUSH0 DUP6 DUP2 MSTORE PUSH1 0x20 ADD SWAP1 DUP2 MSTORE PUSH1 0x20 ADD PUSH0 KECCAK256 PUSH1 0x3 ADD SLOAD SUB PUSH2 0xB14 JUMPI PUSH0 PUSH0 SWAP2 POP SWAP2 POP PUSH2 0xB7D JUMP JUMPDEST PUSH0 PUSH1 0x14 SLOAD SWAP1 POP PUSH0 PUSH1 0x15 PUSH0 DUP7 DUP2 MSTORE PUSH1 0x20 ADD SWAP1 DUP2 MSTORE PUSH1 0x20 ADD PUSH0 KECCAK256 SLOAD SWAP1 POP DUP1 DUP3 GT PUSH2 0xB43 JUMPI PUSH0 PUSH0 SWAP4 POP SWAP4 POP POP POP PUSH2 0xB7D JUMP JUMPDEST PUSH0 PUSH8 0xDE0B6B3A7640000 DUP3 DUP5 PUSH2 0xB59 SWAP2 SWAP1 PUSH2 0x3955 JUMP JUMPDEST PUSH2 0xB63 SWAP2 SWAP1 PUSH2 0x39B5 JUMP JUMPDEST SWAP1 POP PUSH0 PUSH2 0xB70 DUP8 DUP4 PUSH2 0x1F13 JUMP JUMPDEST SWAP1 POP DUP2 DUP2 SWAP6 POP SWAP6 POP POP POP POP POP JUMPDEST SWAP2 POP SWAP2 JUMP JUMPDEST PUSH1 0x16 SLOAD DUP2 JUMP JUMPDEST PUSH0 PUSH0 SWAP1 SLOAD SWAP1 PUSH2 0x100 EXP SWAP1 DIV PUSH20 0xFFFFFFFFFFFFFFFFFFFFFFFFFFFFFFFFFFFFFFFF AND DUP2 JUMP JUMPDEST PUSH3 0x15180 DUP2 JUMP JUMPDEST PUSH8 0xDE0B6B3A7640000 DUP2 JUMP JUMPDEST PUSH1 0xE PUSH1 0x20 MSTORE DUP1 PUSH0 MSTORE PUSH1 0x40 PUSH0 KECCAK256 PUSH0 SWAP2 POP SWAP1 POP DUP1 PUSH0 ADD PUSH0 SWAP1 SLOAD SWAP1 PUSH2 0x100 EXP SWAP1 DIV PUSH20 0xFFFFFFFFFFFFFFFFFFFFFFFFFFFFFFFFFFFFFFFF AND SWAP1 DUP1 PUSH1 0x2 ADD SLOAD SWAP1 DUP1 PUSH1 0x3 ADD SLOAD SWAP1 DUP1 PUSH1 0x4 ADD SLOAD SWAP1 DUP1 PUSH1 0x5 ADD SLOAD SWAP1 DUP1 PUSH1 0x6 ADD SLOAD SWAP1 DUP1 PUSH1 0x7 ADD SLOAD SWAP1 DUP1 PUSH1 0x8 ADD SLOAD SWAP1 DUP1 PUSH1 0x9 ADD SLOAD SWAP1 DUP1 PUSH1 0xA ADD SLOAD SWAP1 DUP1 PUSH1 0xB ADD SLOAD SWAP1 DUP1 PUSH1 0xC ADD SLOAD SWAP1 POP DUP13 JUMP JUMPDEST PUSH1 0x19 DUP2 JUMP JUMPDEST PUSH1 0x1A DUP2 DUP2 SLOAD DUP2 LT PUSH2 0xC4E JUMPI PUSH0 DUP1 REVERT JUMPDEST SWAP1 PUSH0 MSTORE PUSH1 0x20 PUSH0 KECCAK256 ADD PUSH0 SWAP2 POP SWAP1 POP SLOAD DUP2 JUMP JUMPDEST PUSH0 PUSH1 0xE PUSH0 DUP4 DUP2 MSTORE PUSH1 0x20 ADD SWAP1 DUP2 MSTORE PUSH1 0x20 ADD PUSH0 KECCAK256 SWAP1 POP CALLER PUSH20 0xFFFFFFFFFFFFFFFFFFFFFFFFFFFFFFFFFFFFFFFF AND DUP2 PUSH0 ADD PUSH0 SWAP1 SLOAD SWAP1 PUSH2 0x100 EXP SWAP1 DIV PUSH20 0xFFFFFFFFFFFFFFFFFFFFFFFFFFFFFFFFFFFFFFFF AND PUSH20 0xFFFFFFFFFFFFFFFFFFFFFFFFFFFFFFFFFFFFFFFF AND EQ PUSH2 0xD03 JUMPI PUSH1 0x40 MLOAD PUSH32 0x8C379A000000000000000000000000000000000000000000000000000000000 DUP2 MSTORE PUSH1 0x4 ADD PUSH2 0xCFA SWAP1 PUSH2 0x3737 JUMP JUMPDEST PUSH1 0x40 MLOAD DUP1 SWAP2 SUB SWAP1 REVERT JUMPDEST PUSH1 0xF DUP2 PUSH1 0x6 ADD SLOAD LT PUSH2 0xD4A JUMPI PUSH1 0x40 MLOAD PUSH32 0x8C379A000000000000000000000000000000000000000000000000000000000 DUP2 MSTORE PUSH1 0x4 ADD PUSH2 0xD41 SWAP1 PUSH2 0x3A2F JUMP JUMPDEST PUSH1 0x40 MLOAD DUP1 SWAP2 SUB SWAP1 REVERT JUMPDEST PUSH0 DUP2 PUSH1 0x6 ADD SLOAD SWAP1 POP PUSH0 PUSH1 0x7 DUP3 DUP2 SLOAD DUP2 LT PUSH2 0xD67 JUMPI PUSH2 0xD66 PUSH2 0x37BD JUMP JUMPDEST JUMPDEST SWAP1 PUSH0 MSTORE PUSH1 0x20 PUSH0 KECCAK256 ADD SLOAD SWAP1 POP PUSH0 PUSH0 SWAP1 SLOAD SWAP1 PUSH2 0x100 EXP SWAP1 DIV PUSH20 0xFFFFFFFFFFFFFFFFFFFFFFFFFFFFFFFFFFFFFFFF AND PUSH20 0xFFFFFFFFFFFFFFFFFFFFFFFFFFFFFFFFFFFFFFFF AND PUSH4 0x23B872DD CALLER ADDRESS DUP5 PUSH1 0x40 MLOAD DUP5 PUSH4 0xFFFFFFFF AND PUSH1 0xE0 SHL DUP2 MSTORE PUSH1 0x4 ADD PUSH2 0xDCF SWAP4 SWAP3 SWAP2 SWAP1 PUSH2 0x37EA JUMP JUMPDEST PUSH1 0x20 PUSH1 0x40 MLOAD DUP1 DUP4 SUB DUP2 PUSH0 DUP8 GAS CALL ISZERO DUP1 ISZERO PUSH2 0xDEB JUMPI RETURNDATASIZE PUSH0 PUSH0 RETURNDATACOPY RETURNDATASIZE PUSH0 REVERT JUMPDEST POP POP POP POP PUSH1 0x40 MLOAD RETURNDATASIZE PUSH1 0x1F NOT PUSH1 0x1F DUP3 ADD AND DUP3 ADD DUP1 PUSH1 0x40 MSTORE POP DUP2 ADD SWAP1 PUSH2 0xE0F SWAP2 SWAP1 PUSH2 0x3854 JUMP JUMPDEST POP PUSH1 0x1 DUP4 PUSH1 0x6 ADD PUSH0 DUP3 DUP3 SLOAD PUSH2 0xE24 SWAP2 SWAP1 PUSH2 0x38AC JUMP JUMPDEST SWAP3 POP POP DUP2 SWAP1 SSTORE POP DUP1 DUP4 PUSH1 0x9 ADD PUSH0 DUP3 DUP3 SLOAD PUSH2 0xE3E SWAP2 SWAP1 PUSH2 0x38AC JUMP JUMPDEST SWAP3 POP POP DUP2 SWAP1 SSTORE POP DUP3 PUSH1 0x1 ADD PUSH1 0x40 MLOAD DUP1 PUSH1 0x80 ADD PUSH1 0x40 MSTORE DUP1 DUP4 DUP2 MSTORE PUSH1 0x20 ADD PUSH0 DUP2 MSTORE PUSH1 0x20 ADD TIMESTAMP DUP2 MSTORE PUSH1 0x20 ADD PUSH1 0x1 PUSH1 0xFF AND DUP2 MSTORE POP SWAP1 DUP1 PUSH1 0x1 DUP2 SLOAD ADD DUP1 DUP3 SSTORE DUP1 SWAP2 POP POP PUSH1 0x1 SWAP1 SUB SWAP1 PUSH0 MSTORE PUSH1 0x20 PUSH0 KECCAK256 SWAP1 PUSH1 0x4 MUL ADD PUSH0 SWAP1 SWAP2 SWAP1 SWAP2 SWAP1 SWAP2 POP PUSH0 DUP3 ADD MLOAD DUP2 PUSH0 ADD SSTORE PUSH1 0x20 DUP3 ADD MLOAD DUP2 PUSH1 0x1 ADD SSTORE PUSH1 0x40 DUP3 ADD MLOAD DUP2 PUSH1 0x2 ADD SSTORE PUSH1 0x60 DUP3 ADD MLOAD DUP2 PUSH1 0x3 ADD PUSH0 PUSH2 0x100 EXP DUP2 SLOAD DUP2 PUSH1 0xFF MUL NOT AND SWAP1 DUP4 PUSH1 0xFF AND MUL OR SWAP1 SSTORE POP POP POP PUSH0 PUSH1 0x64 PUSH1 0x5 DUP4 PUSH2 0xEE2 SWAP2 SWAP1 PUSH2 0x3A4D JUMP JUMPDEST PUSH2 0xEEC SWAP2 SWAP1 PUSH2 0x39B5 JUMP JUMPDEST SWAP1 POP PUSH0 PUSH1 0x64 PUSH1 0x23 DUP5 PUSH2 0xEFE SWAP2 SWAP1 PUSH2 0x3A4D JUMP JUMPDEST PUSH2 0xF08 SWAP2 SWAP1 PUSH2 0x39B5 JUMP JUMPDEST SWAP1 POP PUSH2 0xF13 DUP2 PUSH2 0x1FB9 JUMP JUMPDEST PUSH2 0xF1C DUP3 PUSH2 0x2027 JUMP JUMPDEST PUSH0 PUSH1 0x64 PUSH1 0xF DUP6 PUSH2 0xF2C SWAP2 SWAP1 PUSH2 0x3A4D JUMP JUMPDEST PUSH2 0xF36 SWAP2 SWAP1 PUSH2 0x39B5 JUMP JUMPDEST SWAP1 POP PUSH2 0xF54 DUP7 PUSH1 0x4 ADD SLOAD DUP9 DUP4 PUSH1 0x1 DUP10 PUSH2 0xF4F SWAP2 SWAP1 PUSH2 0x38AC JUMP JUMPDEST PUSH2 0x2239 JUMP JUMPDEST PUSH0 PUSH1 0x64 PUSH1 0xF DUP7 PUSH2 0xF64 SWAP2 SWAP1 PUSH2 0x3A4D JUMP JUMPDEST PUSH2 0xF6E SWAP2 SWAP1 PUSH2 0x39B5 JUMP JUMPDEST SWAP1 POP PUSH2 0xF8C DUP8 PUSH1 0x5 ADD SLOAD DUP10 DUP4 PUSH1 0x1 DUP11 PUSH2 0xF87 SWAP2 SWAP1 PUSH2 0x38AC JUMP JUMPDEST PUSH2 0x24F1 JUMP JUMPDEST PUSH0 PUSH1 0x64 PUSH1 0xF DUP8 PUSH2 0xF9C SWAP2 SWAP1 PUSH2 0x3A4D JUMP JUMPDEST PUSH2 0xFA6 SWAP2 SWAP1 PUSH2 0x39B5 JUMP JUMPDEST SWAP1 POP PUSH2 0xFC5 DUP9 PUSH1 0x5 ADD SLOAD DUP11 DUP4 PUSH1 0x1 DUP12 PUSH2 0xFBF SWAP2 SWAP1 PUSH2 0x38AC JUMP JUMPDEST DUP12 PUSH2 0x284D JUMP JUMPDEST DUP9 CALLER PUSH20 0xFFFFFFFFFFFFFFFFFFFFFFFFFFFFFFFFFFFFFFFF AND PUSH32 0xBABB6A363FD9A057996D09882C0B74B710D121707D19EEFFD91C51C3171A7C91 PUSH1 0x1 DUP11 PUSH2 0x100B SWAP2 SWAP1 PUSH2 0x38AC JUMP JUMPDEST PUSH1 0x40 MLOAD PUSH2 0x1018 SWAP2 SWAP1 PUSH2 0x3AD8 JUMP JUMPDEST PUSH1 0x40 MLOAD DUP1 SWAP2 SUB SWAP1 LOG3 POP POP POP POP POP POP POP POP POP JUMP JUMPDEST PUSH1 0xF PUSH1 0x20 MSTORE DUP1 PUSH0 MSTORE PUSH1 0x40 PUSH0 KECCAK256 PUSH0 SWAP2 POP SWAP1 POP DUP1 PUSH0 ADD SLOAD SWAP1 DUP1 PUSH1 0x1 ADD SLOAD SWAP1 DUP1 PUSH1 0x2 ADD SLOAD SWAP1 DUP1 PUSH1 0x3 ADD SLOAD SWAP1 DUP1 PUSH1 0x4 ADD SLOAD SWAP1 DUP1 PUSH1 0x5 ADD SLOAD SWAP1 DUP1 PUSH1 0x6 ADD SLOAD SWAP1 DUP1 PUSH1 0x7 ADD SLOAD SWAP1 DUP1 PUSH1 0x8 ADD SLOAD SWAP1 POP DUP10 JUMP JUMPDEST PUSH1 0x19 SLOAD DUP2 JUMP JUMPDEST PUSH1 0xA DUP2 JUMP JUMPDEST PUSH1 0x11 PUSH1 0x20 MSTORE DUP3 PUSH0 MSTORE PUSH1 0x40 PUSH0 KECCAK256 PUSH1 0x20 MSTORE DUP2 PUSH0 MSTORE PUSH1 0x40 PUSH0 KECCAK256 DUP2 DUP2 SLOAD DUP2 LT PUSH2 0x10A3 JUMPI PUSH0 DUP1 REVERT JUMPDEST SWAP1 PUSH0 MSTORE PUSH1 0x20 PUSH0 KECCAK256 ADD PUSH0 SWAP3 POP SWAP3 POP POP POP SLOAD DUP2 JUMP JUMPDEST PUSH1 0x13 PUSH1 0x20 MSTORE DUP2 PUSH0 MSTORE PUSH1 0x40 PUSH0 KECCAK256 DUP2 DUP2 SLOAD DUP2 LT PUSH2 0x10CF JUMPI PUSH0 DUP1 REVERT JUMPDEST SWAP1 PUSH0 MSTORE PUSH1 0x20 PUSH0 KECCAK256 ADD PUSH0 SWAP2 POP SWAP2 POP POP SLOAD DUP2 JUMP JUMPDEST PUSH1 0x10 PUSH1 0x20 MSTORE DUP2 PUSH0 MSTORE PUSH1 0x40 PUSH0 KECCAK256 DUP2 DUP2 SLOAD DUP2 LT PUSH2 0x10FA JUMPI PUSH0 DUP1 REVERT JUMPDEST SWAP1 PUSH0 MSTORE PUSH1 0x20 PUSH0 KECCAK256 SWAP1 PUSH1 0x5 MUL ADD PUSH0 SWAP2 POP SWAP2 POP POP DUP1 PUSH0 ADD SLOAD SWAP1 DUP1 PUSH1 0x1 ADD SLOAD SWAP1 DUP1 PUSH1 0x2 ADD SLOAD SWAP1 DUP1 PUSH1 0x3 ADD SLOAD SWAP1 DUP1 PUSH1 0x4 ADD SLOAD SWAP1 POP DUP6 JUMP JUMPDEST PUSH1 0x14 SLOAD DUP2 JUMP JUMPDEST PUSH1 0x2 PUSH0 SWAP1 SLOAD SWAP1 PUSH2 0x100 EXP SWAP1 DIV PUSH20 0xFFFFFFFFFFFFFFFFFFFFFFFFFFFFFFFFFFFFFFFF AND DUP2 JUMP JUMPDEST PUSH1 0x17 PUSH0 SWAP1 SLOAD SWAP1 PUSH2 0x100 EXP SWAP1 DIV PUSH20 0xFFFFFFFFFFFFFFFFFFFFFFFFFFFFFFFFFFFFFFFF AND DUP2 JUMP JUMPDEST PUSH1 0x12 PUSH1 0x20 MSTORE DUP1 PUSH0 MSTORE PUSH1 0x40 PUSH0 KECCAK256 PUSH0 SWAP2 POP SWAP1 POP SLOAD DUP2 JUMP JUMPDEST PUSH1 0xA PUSH1 0x20 MSTORE DUP3 PUSH0 MSTORE PUSH1 0x40 PUSH0 KECCAK256 PUSH1 0x20 MSTORE DUP2 PUSH0 MSTORE PUSH1 0x40 PUSH0 KECCAK256 DUP2 DUP2 SLOAD DUP2 LT PUSH2 0x11B5 JUMPI PUSH0 DUP1 REVERT JUMPDEST SWAP1 PUSH0 MSTORE PUSH1 0x20 PUSH0 KECCAK256 ADD PUSH0 SWAP3 POP SWAP3 POP POP POP SLOAD DUP2 JUMP JUMPDEST PUSH1 0x1 PUSH0 SWAP1 SLOAD SWAP1 PUSH2 0x100 EXP SWAP1 DIV PUSH20 0xFFFFFFFFFFFFFFFFFFFFFFFFFFFFFFFFFFFFFFFF AND DUP2 JUMP JUMPDEST PUSH1 0x9 PUSH1 0x20 MSTORE DUP3 PUSH0 MSTORE PUSH1 0x40 PUSH0 KECCAK256 PUSH1 0x20 MSTORE DUP2 PUSH0 MSTORE PUSH1 0x40 PUSH0 KECCAK256 DUP2 DUP2 SLOAD DUP2 LT PUSH2 0x1210 JUMPI PUSH0 DUP1 REVERT JUMPDEST SWAP1 PUSH0 MSTORE PUSH1 0x20 PUSH0 KECCAK256 ADD PUSH0 SWAP3 POP SWAP3 POP POP POP SLOAD DUP2 JUMP JUMPDEST PUSH1 0xB DUP2 DUP2 SLOAD DUP2 LT PUSH2 0x1232 JUMPI PUSH0 DUP1 REVERT JUMPDEST SWAP1 PUSH0 MSTORE PUSH1 0x20 PUSH0 KECCAK256 ADD PUSH0 SWAP2 POP SWAP1 POP SLOAD DUP2 JUMP JUMPDEST PUSH1 0x6 SLOAD DUP2 JUMP JUMPDEST PUSH1 0x7 DUP2 DUP2 SLOAD DUP2 LT PUSH2 0x1258 JUMPI PUSH0 DUP1 REVERT JUMPDEST SWAP1 PUSH0 MSTORE PUSH1 0x20 PUSH0 KECCAK256 ADD PUSH0 SWAP2 POP SWAP1 POP SLOAD DUP2 JUMP JUMPDEST PUSH1 0xD PUSH1 0x20 MSTORE DUP1 PUSH0 MSTORE PUSH1 0x40 PUSH0 KECCAK256 PUSH0 SWAP2 POP SWAP1 POP SLOAD DUP2 JUMP JUMPDEST PUSH1 0x8 PUSH1 0x20 MSTORE DUP2 PUSH0 MSTORE PUSH1 0x40 PUSH0 KECCAK256 PUSH1 0x20 MSTORE DUP1 PUSH0 MSTORE PUSH1 0x40 PUSH0 KECCAK256 PUSH0 SWAP2 POP SWAP2 POP POP DUP1 PUSH0 ADD SLOAD SWAP1 DUP1 PUSH1 0x1 ADD SLOAD SWAP1 DUP1 PUSH1 0x2 ADD SLOAD SWAP1 DUP1 PUSH1 0x3 ADD SLOAD SWAP1 DUP1 PUSH1 0x4 ADD SLOAD SWAP1 DUP1 PUSH1 0x5 ADD SLOAD SWAP1 DUP1 PUSH1 0x6 ADD SLOAD SWAP1 POP DUP8 JUMP JUMPDEST PUSH0 PUSH1 0xE PUSH0 DUP4 DUP2 MSTORE PUSH1 0x20 ADD SWAP1 DUP2 MSTORE PUSH1 0x20 ADD PUSH0 KECCAK256 SWAP1 POP PUSH0 DUP2 PUSH1 0x3 ADD SLOAD SUB PUSH2 0x1321 JUMPI PUSH1 0x40 MLOAD PUSH32 0x8C379A000000000000000000000000000000000000000000000000000000000 DUP2 MSTORE PUSH1 0x4 ADD PUSH2 0x1318 SWAP1 PUSH2 0x3B4E JUMP JUMPDEST PUSH1 0x40 MLOAD DUP1 SWAP2 SUB SWAP1 REVERT JUMPDEST CALLER PUSH20 0xFFFFFFFFFFFFFFFFFFFFFFFFFFFFFFFFFFFFFFFF AND DUP2 PUSH0 ADD PUSH0 SWAP1 SLOAD SWAP1 PUSH2 0x100 EXP SWAP1 DIV PUSH20 0xFFFFFFFFFFFFFFFFFFFFFFFFFFFFFFFFFFFFFFFF AND PUSH20 0xFFFFFFFFFFFFFFFFFFFFFFFFFFFFFFFFFFFFFFFF AND EQ PUSH2 0x13B1 JUMPI PUSH1 0x40 MLOAD PUSH32 0x8C379A000000000000000000000000000000000000000000000000000000000 DUP2 MSTORE PUSH1 0x4 ADD PUSH2 0x13A8 SWAP1 PUSH2 0x3737 JUMP JUMPDEST PUSH1 0x40 MLOAD DUP1 SWAP2 SUB SWAP1 REVERT JUMPDEST PUSH0 PUSH1 0x14 SLOAD SWAP1 POP PUSH0 PUSH1 0x15 PUSH0 DUP6 DUP2 MSTORE PUSH1 0x20 ADD SWAP1 DUP2 MSTORE PUSH1 0x20 ADD PUSH0 KECCAK256 SLOAD SWAP1 POP DUP1 DUP3 SUB PUSH2 0x13DB JUMPI POP POP POP PUSH2 0x1648 JUMP JUMPDEST PUSH0 PUSH8 0xDE0B6B3A7640000 DUP3 DUP5 PUSH2 0x13F1 SWAP2 SWAP1 PUSH2 0x3955 JUMP JUMPDEST PUSH2 0x13FB SWAP2 SWAP1 PUSH2 0x39B5 JUMP JUMPDEST SWAP1 POP PUSH0 DUP2 SUB PUSH2 0x1423 JUMPI DUP3 PUSH1 0x15 PUSH0 DUP8 DUP2 MSTORE PUSH1 0x20 ADD SWAP1 DUP2 MSTORE PUSH1 0x20 ADD PUSH0 KECCAK256 DUP2 SWAP1 SSTORE POP POP POP POP POP PUSH2 0x1648 JUMP JUMPDEST PUSH0 PUSH2 0x142E DUP7 DUP4 PUSH2 0x1F13 JUMP JUMPDEST SWAP1 POP DUP4 PUSH1 0x15 PUSH0 DUP9 DUP2 MSTORE PUSH1 0x20 ADD SWAP1 DUP2 MSTORE PUSH1 0x20 ADD PUSH0 KECCAK256 DUP2 SWAP1 SSTORE POP PUSH0 DUP2 GT ISZERO PUSH2 0x1625 JUMPI PUSH0 PUSH1 0xF PUSH0 DUP9 DUP2 MSTORE PUSH1 0x20 ADD SWAP1 DUP2 MSTORE PUSH1 0x20 ADD PUSH0 KECCAK256 SWAP1 POP DUP2 DUP2 PUSH0 ADD PUSH0 DUP3 DUP3 SLOAD PUSH2 0x1474 SWAP2 SWAP1 PUSH2 0x38AC JUMP JUMPDEST SWAP3 POP POP DUP2 SWAP1 SSTORE POP DUP2 DUP2 PUSH1 0x7 ADD PUSH0 DUP3 DUP3 SLOAD PUSH2 0x148E SWAP2 SWAP1 PUSH2 0x38AC JUMP JUMPDEST SWAP3 POP POP DUP2 SWAP1 SSTORE POP PUSH1 0x10 PUSH0 DUP9 DUP2 MSTORE PUSH1 0x20 ADD SWAP1 DUP2 MSTORE PUSH1 0x20 ADD PUSH0 KECCAK256 PUSH1 0x40 MLOAD DUP1 PUSH1 0xA0 ADD PUSH1 0x40 MSTORE DUP1 DUP10 DUP2 MSTORE PUSH1 0x20 ADD DUP5 DUP2 MSTORE PUSH1 0x20 ADD PUSH1 0x1 DUP2 MSTORE PUSH1 0x20 ADD TIMESTAMP DUP2 MSTORE PUSH1 0x20 ADD PUSH1 0x9 DUP2 MSTORE POP SWAP1 DUP1 PUSH1 0x1 DUP2 SLOAD ADD DUP1 DUP3 SSTORE DUP1 SWAP2 POP POP PUSH1 0x1 SWAP1 SUB SWAP1 PUSH0 MSTORE PUSH1 0x20 PUSH0 KECCAK256 SWAP1 PUSH1 0x5 MUL ADD PUSH0 SWAP1 SWAP2 SWAP1 SWAP2 SWAP1 SWAP2 POP PUSH0 DUP3 ADD MLOAD DUP2 PUSH0 ADD SSTORE PUSH1 0x20 DUP3 ADD MLOAD DUP2 PUSH1 0x1 ADD SSTORE PUSH1 0x40 DUP3 ADD MLOAD DUP2 PUSH1 0x2 ADD SSTORE PUSH1 0x60 DUP3 ADD MLOAD DUP2 PUSH1 0x3 ADD SSTORE PUSH1 0x80 DUP3 ADD MLOAD DUP2 PUSH1 0x4 ADD SSTORE POP POP PUSH0 PUSH0 SWAP1 SLOAD SWAP1 PUSH2 0x100 EXP SWAP1 DIV PUSH20 0xFFFFFFFFFFFFFFFFFFFFFFFFFFFFFFFFFFFFFFFF AND PUSH20 0xFFFFFFFFFFFFFFFFFFFFFFFFFFFFFFFFFFFFFFFF AND PUSH4 0xA9059CBB DUP8 PUSH0 ADD PUSH0 SWAP1 SLOAD SWAP1 PUSH2 0x100 EXP SWAP1 DIV PUSH20 0xFFFFFFFFFFFFFFFFFFFFFFFFFFFFFFFFFFFFFFFF AND DUP5 PUSH1 0x40 MLOAD DUP4 PUSH4 0xFFFFFFFF AND PUSH1 0xE0 SHL DUP2 MSTORE PUSH1 0x4 ADD PUSH2 0x15A4 SWAP3 SWAP2 SWAP1 PUSH2 0x3B6C JUMP JUMPDEST PUSH1 0x20 PUSH1 0x40 MLOAD DUP1 DUP4 SUB DUP2 PUSH0 DUP8 GAS CALL ISZERO DUP1 ISZERO PUSH2 0x15C0 JUMPI RETURNDATASIZE PUSH0 PUSH0 RETURNDATACOPY RETURNDATASIZE PUSH0 REVERT JUMPDEST POP POP POP POP PUSH1 0x40 MLOAD RETURNDATASIZE PUSH1 0x1F NOT PUSH1 0x1F DUP3 ADD AND DUP3 ADD DUP1 PUSH1 0x40 MSTORE POP DUP2 ADD SWAP1 PUSH2 0x15E4 SWAP2 SWAP1 PUSH2 0x3854 JUMP JUMPDEST PUSH2 0x1623 JUMPI PUSH1 0x40 MLOAD PUSH32 0x8C379A000000000000000000000000000000000000000000000000000000000 DUP2 MSTORE PUSH1 0x4 ADD PUSH2 0x161A SWAP1 PUSH2 0x3BDD JUMP JUMPDEST PUSH1 0x40 MLOAD DUP1 SWAP2 SUB SWAP1 REVERT JUMPDEST POP JUMPDEST DUP1 DUP3 GT ISZERO PUSH2 0x1642 JUMPI PUSH2 0x1641 DUP2 DUP4 PUSH2 0x163C SWAP2 SWAP1 PUSH2 0x3955 JUMP JUMPDEST PUSH2 0x2027 JUMP JUMPDEST JUMPDEST POP POP POP POP POP JUMPDEST POP JUMP JUMPDEST PUSH1 0x3 PUSH0 SWAP1 SLOAD SWAP1 PUSH2 0x100 EXP SWAP1 DIV PUSH20 0xFFFFFFFFFFFFFFFFFFFFFFFFFFFFFFFFFFFFFFFF AND DUP2 JUMP JUMPDEST PUSH1 0x5 SLOAD DUP2 JUMP JUMPDEST PUSH0 PUSH1 0xD PUSH0 CALLER PUSH20 0xFFFFFFFFFFFFFFFFFFFFFFFFFFFFFFFFFFFFFFFF AND PUSH20 0xFFFFFFFFFFFFFFFFFFFFFFFFFFFFFFFFFFFFFFFF AND DUP2 MSTORE PUSH1 0x20 ADD SWAP1 DUP2 MSTORE PUSH1 0x20 ADD PUSH0 KECCAK256 SLOAD EQ PUSH2 0x16F5 JUMPI PUSH1 0x40 MLOAD PUSH32 0x8C379A000000000000000000000000000000000000000000000000000000000 DUP2 MSTORE PUSH1 0x4 ADD PUSH2 0x16EC SWAP1 PUSH2 0x3C45 JUMP JUMPDEST PUSH1 0x40 MLOAD DUP1 SWAP2 SUB SWAP1 REVERT JUMPDEST PUSH0 PUSH1 0xE PUSH0 DUP4 DUP2 MSTORE PUSH1 0x20 ADD SWAP1 DUP2 MSTORE PUSH1 0x20 ADD PUSH0 KECCAK256 PUSH1 0x3 ADD SLOAD GT PUSH2 0x174B JUMPI PUSH1 0x40 MLOAD PUSH32 0x8C379A000000000000000000000000000000000000000000000000000000000 DUP2 MSTORE PUSH1 0x4 ADD PUSH2 0x1742 SWAP1 PUSH2 0x3CAD JUMP JUMPDEST PUSH1 0x40 MLOAD DUP1 SWAP2 SUB SWAP1 REVERT JUMPDEST PUSH0 PUSH0 SWAP1 SLOAD SWAP1 PUSH2 0x100 EXP SWAP1 DIV PUSH20 0xFFFFFFFFFFFFFFFFFFFFFFFFFFFFFFFFFFFFFFFF AND PUSH20 0xFFFFFFFFFFFFFFFFFFFFFFFFFFFFFFFFFFFFFFFF AND PUSH4 0x23B872DD CALLER ADDRESS PUSH1 0x7 PUSH0 DUP2 SLOAD DUP2 LT PUSH2 0x179D JUMPI PUSH2 0x179C PUSH2 0x37BD JUMP JUMPDEST JUMPDEST SWAP1 PUSH0 MSTORE PUSH1 0x20 PUSH0 KECCAK256 ADD SLOAD PUSH1 0x40 MLOAD DUP5 PUSH4 0xFFFFFFFF AND PUSH1 0xE0 SHL DUP2 MSTORE PUSH1 0x4 ADD PUSH2 0x17C4 SWAP4 SWAP3 SWAP2 SWAP1 PUSH2 0x37EA JUMP JUMPDEST PUSH1 0x20 PUSH1 0x40 MLOAD DUP1 DUP4 SUB DUP2 PUSH0 DUP8 GAS CALL ISZERO DUP1 ISZERO PUSH2 0x17E0 JUMPI RETURNDATASIZE PUSH0 PUSH0 RETURNDATACOPY RETURNDATASIZE PUSH0 REVERT JUMPDEST POP POP POP POP PUSH1 0x40 MLOAD RETURNDATASIZE PUSH1 0x1F NOT PUSH1 0x1F DUP3 ADD AND DUP3 ADD DUP1 PUSH1 0x40 MSTORE POP DUP2 ADD SWAP1 PUSH2 0x1804 SWAP2 SWAP1 PUSH2 0x3854 JUMP JUMPDEST POP PUSH0 PUSH1 0x5 PUSH1 0x6 SLOAD PUSH2 0x1815 SWAP2 SWAP1 PUSH2 0x3A4D JUMP JUMPDEST PUSH1 0x5 SLOAD PUSH2 0x1822 SWAP2 SWAP1 PUSH2 0x38AC JUMP JUMPDEST SWAP1 POP DUP1 PUSH1 0xD PUSH0 CALLER PUSH20 0xFFFFFFFFFFFFFFFFFFFFFFFFFFFFFFFFFFFFFFFF AND PUSH20 0xFFFFFFFFFFFFFFFFFFFFFFFFFFFFFFFFFFFFFFFF AND DUP2 MSTORE PUSH1 0x20 ADD SWAP1 DUP2 MSTORE PUSH1 0x20 ADD PUSH0 KECCAK256 DUP2 SWAP1 SSTORE POP PUSH0 PUSH1 0xE PUSH0 DUP4 DUP2 MSTORE PUSH1 0x20 ADD SWAP1 DUP2 MSTORE PUSH1 0x20 ADD PUSH0 KECCAK256 SWAP1 POP CALLER DUP2 PUSH0 ADD PUSH0 PUSH2 0x100 EXP DUP2 SLOAD DUP2 PUSH20 0xFFFFFFFFFFFFFFFFFFFFFFFFFFFFFFFFFFFFFFFF MUL NOT AND SWAP1 DUP4 PUSH20 0xFFFFFFFFFFFFFFFFFFFFFFFFFFFFFFFFFFFFFFFF AND MUL OR SWAP1 SSTORE POP TIMESTAMP DUP2 PUSH1 0x2 ADD DUP2 SWAP1 SSTORE POP DUP2 DUP2 PUSH1 0x3 ADD DUP2 SWAP1 SSTORE POP DUP3 DUP2 PUSH1 0x4 ADD DUP2 SWAP1 SSTORE POP PUSH1 0x1 DUP2 PUSH1 0x6 ADD DUP2 SWAP1 SSTORE POP PUSH1 0x7 PUSH0 DUP2 SLOAD DUP2 LT PUSH2 0x18F4 JUMPI PUSH2 0x18F3 PUSH2 0x37BD JUMP JUMPDEST JUMPDEST SWAP1 PUSH0 MSTORE PUSH1 0x20 PUSH0 KECCAK256 ADD SLOAD DUP2 PUSH1 0x9 ADD DUP2 SWAP1 SSTORE POP TIMESTAMP DUP2 PUSH1 0xC ADD DUP2 SWAP1 SSTORE POP PUSH1 0x1 PUSH1 0xE PUSH0 DUP6 DUP2 MSTORE PUSH1 0x20 ADD SWAP1 DUP2 MSTORE PUSH1 0x20 ADD PUSH0 KECCAK256 PUSH1 0x7 ADD PUSH0 DUP3 DUP3 SLOAD PUSH2 0x1932 SWAP2 SWAP1 PUSH2 0x38AC JUMP JUMPDEST SWAP3 POP POP DUP2 SWAP1 SSTORE POP PUSH1 0x13 PUSH0 DUP5 DUP2 MSTORE PUSH1 0x20 ADD SWAP1 DUP2 MSTORE PUSH1 0x20 ADD PUSH0 KECCAK256 DUP3 SWAP1 DUP1 PUSH1 0x1 DUP2 SLOAD ADD DUP1 DUP3 SSTORE DUP1 SWAP2 POP POP PUSH1 0x1 SWAP1 SUB SWAP1 PUSH0 MSTORE PUSH1 0x20 PUSH0 KECCAK256 ADD PUSH0 SWAP1 SWAP2 SWAP1 SWAP2 SWAP1 SWAP2 POP SSTORE PUSH1 0x1A DUP3 SWAP1 DUP1 PUSH1 0x1 DUP2 SLOAD ADD DUP1 DUP3 SSTORE DUP1 SWAP2 POP POP PUSH1 0x1 SWAP1 SUB SWAP1 PUSH0 MSTORE PUSH1 0x20 PUSH0 KECCAK256 ADD PUSH0 SWAP1 SWAP2 SWAP1 SWAP2 SWAP1 SWAP2 POP SSTORE PUSH1 0x14 SLOAD PUSH1 0x15 PUSH0 DUP5 DUP2 MSTORE PUSH1 0x20 ADD SWAP1 DUP2 MSTORE PUSH1 0x20 ADD PUSH0 KECCAK256 DUP2 SWAP1 SSTORE POP PUSH2 0x19B6 DUP3 DUP5 PUSH2 0x29B3 JUMP JUMPDEST DUP1 PUSH1 0x1 ADD PUSH1 0x40 MLOAD DUP1 PUSH1 0x80 ADD PUSH1 0x40 MSTORE DUP1 PUSH1 0x7 PUSH0 DUP2 SLOAD DUP2 LT PUSH2 0x19D9 JUMPI PUSH2 0x19D8 PUSH2 0x37BD JUMP JUMPDEST JUMPDEST SWAP1 PUSH0 MSTORE PUSH1 0x20 PUSH0 KECCAK256 ADD SLOAD DUP2 MSTORE PUSH1 0x20 ADD PUSH0 DUP2 MSTORE PUSH1 0x20 ADD TIMESTAMP DUP2 MSTORE PUSH1 0x20 ADD PUSH1 0x1 PUSH1 0xFF AND DUP2 MSTORE POP SWAP1 DUP1 PUSH1 0x1 DUP2 SLOAD ADD DUP1 DUP3 SSTORE DUP1 SWAP2 POP POP PUSH1 0x1 SWAP1 SUB SWAP1 PUSH0 MSTORE PUSH1 0x20 PUSH0 KECCAK256 SWAP1 PUSH1 0x4 MUL ADD PUSH0 SWAP1 SWAP2 SWAP1 SWAP2 SWAP1 SWAP2 POP PUSH0 DUP3 ADD MLOAD DUP2 PUSH0 ADD SSTORE PUSH1 0x20 DUP3 ADD MLOAD DUP2 PUSH1 0x1 ADD SSTORE PUSH1 0x40 DUP3 ADD MLOAD DUP2 PUSH1 0x2 ADD SSTORE PUSH1 0x60 DUP3 ADD MLOAD DUP2 PUSH1 0x3 ADD PUSH0 PUSH2 0x100 EXP DUP2 SLOAD DUP2 PUSH1 0xFF MUL NOT AND SWAP1 DUP4 PUSH1 0xFF AND MUL OR SWAP1 SSTORE POP POP POP PUSH0 PUSH1 0x7 PUSH0 DUP2 SLOAD DUP2 LT PUSH2 0x1A74 JUMPI PUSH2 0x1A73 PUSH2 0x37BD JUMP JUMPDEST JUMPDEST SWAP1 PUSH0 MSTORE PUSH1 0x20 PUSH0 KECCAK256 ADD SLOAD SWAP1 POP PUSH0 PUSH1 0x64 PUSH1 0xA DUP4 PUSH2 0x1A8F SWAP2 SWAP1 PUSH2 0x3A4D JUMP JUMPDEST PUSH2 0x1A99 SWAP2 SWAP1 PUSH2 0x39B5 JUMP JUMPDEST SWAP1 POP PUSH0 PUSH1 0x64 PUSH1 0x23 DUP5 PUSH2 0x1AAB SWAP2 SWAP1 PUSH2 0x3A4D JUMP JUMPDEST PUSH2 0x1AB5 SWAP2 SWAP1 PUSH2 0x39B5 JUMP JUMPDEST SWAP1 POP PUSH1 0x64 PUSH1 0x5 DUP5 PUSH2 0x1AC6 SWAP2 SWAP1 PUSH2 0x3A4D JUMP JUMPDEST PUSH2 0x1AD0 SWAP2 SWAP1 PUSH2 0x39B5 JUMP JUMPDEST PUSH1 0x16 PUSH0 DUP3 DUP3 SLOAD PUSH2 0x1AE0 SWAP2 SWAP1 PUSH2 0x38AC JUMP JUMPDEST SWAP3 POP POP DUP2 SWAP1 SSTORE POP PUSH0 PUSH1 0x64 PUSH1 0x32 DUP6 PUSH2 0x1AF7 SWAP2 SWAP1 PUSH2 0x3A4D JUMP JUMPDEST PUSH2 0x1B01 SWAP2 SWAP1 PUSH2 0x39B5 JUMP JUMPDEST SWAP1 POP PUSH2 0x1B0C DUP2 PUSH2 0x1FB9 JUMP JUMPDEST PUSH2 0x1B15 DUP4 PUSH2 0x2027 JUMP JUMPDEST PUSH2 0x1B26 DUP6 PUSH1 0x4 ADD SLOAD DUP8 DUP5 PUSH1 0x1 PUSH2 0x2239 JUMP JUMPDEST PUSH1 0x1 PUSH1 0x6 PUSH0 DUP3 DUP3 SLOAD PUSH2 0x1B38 SWAP2 SWAP1 PUSH2 0x38AC JUMP JUMPDEST SWAP3 POP POP DUP2 SWAP1 SSTORE POP DUP6 PUSH1 0xE PUSH0 DUP10 DUP2 MSTORE PUSH1 0x20 ADD SWAP1 DUP2 MSTORE PUSH1 0x20 ADD PUSH0 KECCAK256 PUSH0 ADD PUSH0 SWAP1 SLOAD SWAP1 PUSH2 0x100 EXP SWAP1 DIV PUSH20 0xFFFFFFFFFFFFFFFFFFFFFFFFFFFFFFFFFFFFFFFF AND PUSH20 0xFFFFFFFFFFFFFFFFFFFFFFFFFFFFFFFFFFFFFFFF AND CALLER PUSH20 0xFFFFFFFFFFFFFFFFFFFFFFFFFFFFFFFFFFFFFFFF AND PUSH32 0x309BB360E8B69C23937CCC5FB01F9AEEEAD1C95A99604E175113FF82F2B1723A DUP9 PUSH1 0x5 ADD SLOAD PUSH1 0x40 MLOAD PUSH2 0x1BD3 SWAP2 SWAP1 PUSH2 0x3230 JUMP JUMPDEST PUSH1 0x40 MLOAD DUP1 SWAP2 SUB SWAP1 LOG4 POP POP POP POP POP POP POP JUMP JUMPDEST PUSH1 0x4 PUSH0 SWAP1 SLOAD SWAP1 PUSH2 0x100 EXP SWAP1 DIV PUSH20 0xFFFFFFFFFFFFFFFFFFFFFFFFFFFFFFFFFFFFFFFF AND DUP2 JUMP JUMPDEST PUSH1 0xB DUP1 SLOAD SWAP1 POP DUP4 LT PUSH2 0x1C50 JUMPI PUSH1 0x40 MLOAD PUSH32 0x8C379A000000000000000000000000000000000000000000000000000000000 DUP2 MSTORE PUSH1 0x4 ADD PUSH2 0x1C47 SWAP1 PUSH2 0x3D15 JUMP JUMPDEST PUSH1 0x40 MLOAD DUP1 SWAP2 SUB SWAP1 REVERT JUMPDEST PUSH1 0xB DUP4 DUP2 SLOAD DUP2 LT PUSH2 0x1C64 JUMPI PUSH2 0x1C63 PUSH2 0x37BD JUMP JUMPDEST JUMPDEST SWAP1 PUSH0 MSTORE PUSH1 0x20 PUSH0 KECCAK256 ADD SLOAD CALLVALUE EQ PUSH2 0x1CAE JUMPI PUSH1 0x40 MLOAD PUSH32 0x8C379A000000000000000000000000000000000000000000000000000000000 DUP2 MSTORE PUSH1 0x4 ADD PUSH2 0x1CA5 SWAP1 PUSH2 0x3D7D JUMP JUMPDEST PUSH1 0x40 MLOAD DUP1 SWAP2 SUB SWAP1 REVERT JUMPDEST PUSH0 PUSH1 0xC PUSH0 DUP6 DUP2 MSTORE PUSH1 0x20 ADD SWAP1 DUP2 MSTORE PUSH1 0x20 ADD PUSH0 KECCAK256 DUP1 SLOAD DUP1 PUSH1 0x20 MUL PUSH1 0x20 ADD PUSH1 0x40 MLOAD SWAP1 DUP2 ADD PUSH1 0x40 MSTORE DUP1 SWAP3 SWAP2 SWAP1 DUP2 DUP2 MSTORE PUSH1 0x20 ADD DUP3 DUP1 SLOAD DUP1 ISZERO PUSH2 0x1D08 JUMPI PUSH1 0x20 MUL DUP3 ADD SWAP2 SWAP1 PUSH0 MSTORE PUSH1 0x20 PUSH0 KECCAK256 SWAP1 JUMPDEST DUP2 SLOAD DUP2 MSTORE PUSH1 0x20 ADD SWAP1 PUSH1 0x1 ADD SWAP1 DUP1 DUP4 GT PUSH2 0x1CF4 JUMPI JUMPDEST POP POP POP POP POP SWAP1 POP PUSH0 DUP2 MLOAD SWAP1 POP PUSH0 DUP2 PUSH1 0x5 SLOAD PUSH2 0x1D23 SWAP2 SWAP1 PUSH2 0x38AC JUMP JUMPDEST SWAP1 POP PUSH1 0xC PUSH0 DUP8 DUP2 MSTORE PUSH1 0x20 ADD SWAP1 DUP2 MSTORE PUSH1 0x20 ADD PUSH0 KECCAK256 DUP2 SWAP1 DUP1 PUSH1 0x1 DUP2 SLOAD ADD DUP1 DUP3 SSTORE DUP1 SWAP2 POP POP PUSH1 0x1 SWAP1 SUB SWAP1 PUSH0 MSTORE PUSH1 0x20 PUSH0 KECCAK256 ADD PUSH0 SWAP1 SWAP2 SWAP1 SWAP2 SWAP1 SWAP2 POP SSTORE PUSH0 PUSH1 0x3 PUSH1 0x1 DUP5 PUSH2 0x1D6A SWAP2 SWAP1 PUSH2 0x3955 JUMP JUMPDEST PUSH2 0x1D74 SWAP2 SWAP1 PUSH2 0x39B5 JUMP JUMPDEST SWAP1 POP PUSH0 DUP5 DUP3 DUP2 MLOAD DUP2 LT PUSH2 0x1D8A JUMPI PUSH2 0x1D89 PUSH2 0x37BD JUMP JUMPDEST JUMPDEST PUSH1 0x20 MUL PUSH1 0x20 ADD ADD MLOAD SWAP1 POP PUSH1 0x40 MLOAD DUP1 PUSH1 0xE0 ADD PUSH1 0x40 MSTORE DUP1 DUP5 DUP2 MSTORE PUSH1 0x20 ADD DUP9 PUSH4 0xFFFFFFFF AND DUP2 MSTORE PUSH1 0x20 ADD DUP10 DUP2 MSTORE PUSH1 0x20 ADD DUP3 DUP2 MSTORE PUSH1 0x20 ADD PUSH0 DUP2 MSTORE PUSH1 0x20 ADD PUSH0 DUP2 MSTORE PUSH1 0x20 ADD PUSH0 DUP2 MSTORE POP PUSH1 0x8 PUSH0 DUP11 DUP2 MSTORE PUSH1 0x20 ADD SWAP1 DUP2 MSTORE PUSH1 0x20 ADD PUSH0 KECCAK256 PUSH0 DUP6 DUP2 MSTORE PUSH1 0x20 ADD SWAP1 DUP2 MSTORE PUSH1 0x20 ADD PUSH0 KECCAK256 PUSH0 DUP3 ADD MLOAD DUP2 PUSH0 ADD SSTORE PUSH1 0x20 DUP3 ADD MLOAD DUP2 PUSH1 0x1 ADD SSTORE PUSH1 0x40 DUP3 ADD MLOAD DUP2 PUSH1 0x2 ADD SSTORE PUSH1 0x60 DUP3 ADD MLOAD DUP2 PUSH1 0x3 ADD SSTORE PUSH1 0x80 DUP3 ADD MLOAD DUP2 PUSH1 0x4 ADD SSTORE PUSH1 0xA0 DUP3 ADD MLOAD DUP2 PUSH1 0x5 ADD SSTORE PUSH1 0xC0 DUP3 ADD MLOAD DUP2 PUSH1 0x6 ADD SSTORE SWAP1 POP POP PUSH1 0xC PUSH0 DUP10 DUP2 MSTORE PUSH1 0x20 ADD SWAP1 DUP2 MSTORE PUSH1 0x20 ADD PUSH0 KECCAK256 DUP4 SWAP1 DUP1 PUSH1 0x1 DUP2 SLOAD ADD DUP1 DUP3 SSTORE DUP1 SWAP2 POP POP PUSH1 0x1 SWAP1 SUB SWAP1 PUSH0 MSTORE PUSH1 0x20 PUSH0 KECCAK256 ADD PUSH0 SWAP1 SWAP2 SWAP1 SWAP2 SWAP1 SWAP2 POP SSTORE PUSH1 0xA PUSH0 DUP10 DUP2 MSTORE PUSH1 0x20 ADD SWAP1 DUP2 MSTORE PUSH1 0x20 ADD PUSH0 KECCAK256 PUSH0 DUP9 PUSH4 0xFFFFFFFF AND DUP2 MSTORE PUSH1 0x20 ADD SWAP1 DUP2 MSTORE PUSH1 0x20 ADD PUSH0 KECCAK256 DUP4 SWAP1 DUP1 PUSH1 0x1 DUP2 SLOAD ADD DUP1 DUP3 SSTORE DUP1 SWAP2 POP POP PUSH1 0x1 SWAP1 SUB SWAP1 PUSH0 MSTORE PUSH1 0x20 PUSH0 KECCAK256 ADD PUSH0 SWAP1 SWAP2 SWAP1 SWAP2 SWAP1 SWAP2 POP SSTORE PUSH1 0x9 PUSH0 DUP10 DUP2 MSTORE PUSH1 0x20 ADD SWAP1 DUP2 MSTORE PUSH1 0x20 ADD PUSH0 KECCAK256 PUSH0 DUP3 DUP2 MSTORE PUSH1 0x20 ADD SWAP1 DUP2 MSTORE PUSH1 0x20 ADD PUSH0 KECCAK256 DUP4 SWAP1 DUP1 PUSH1 0x1 DUP2 SLOAD ADD DUP1 DUP3 SSTORE DUP1 SWAP2 POP POP PUSH1 0x1 SWAP1 SUB SWAP1 PUSH0 MSTORE PUSH1 0x20 PUSH0 KECCAK256 ADD PUSH0 SWAP1 SWAP2 SWAP1 SWAP2 SWAP1 SWAP2 POP SSTORE PUSH2 0x1F09 DUP2 DUP10 DUP10 PUSH4 0xFFFFFFFF AND DUP10 PUSH2 0x2C1F JUMP JUMPDEST POP POP POP POP POP POP POP POP JUMP JUMPDEST PUSH0 PUSH0 PUSH1 0xE PUSH0 DUP6 DUP2 MSTORE PUSH1 0x20 ADD SWAP1 DUP2 MSTORE PUSH1 0x20 ADD PUSH0 KECCAK256 SWAP1 POP PUSH0 PUSH1 0xF PUSH0 DUP7 DUP2 MSTORE PUSH1 0x20 ADD SWAP1 DUP2 MSTORE PUSH1 0x20 ADD PUSH0 KECCAK256 SWAP1 POP PUSH1 0x7 DUP1 SLOAD SWAP1 POP DUP3 PUSH1 0x6 ADD SLOAD SUB PUSH2 0x1F56 JUMPI DUP4 SWAP3 POP POP POP PUSH2 0x1FB3 JUMP JUMPDEST PUSH0 PUSH1 0xA PUSH1 0x19 DUP5 PUSH1 0x9 ADD SLOAD PUSH2 0x1F6A SWAP2 SWAP1 PUSH2 0x3A4D JUMP JUMPDEST PUSH2 0x1F74 SWAP2 SWAP1 PUSH2 0x39B5 JUMP JUMPDEST SWAP1 POP DUP1 DUP3 PUSH0 ADD SLOAD LT PUSH2 0x1F8B JUMPI PUSH0 SWAP4 POP POP POP POP PUSH2 0x1FB3 JUMP JUMPDEST PUSH0 DUP3 PUSH0 ADD SLOAD DUP3 PUSH2 0x1F9B SWAP2 SWAP1 PUSH2 0x3955 JUMP JUMPDEST SWAP1 POP DUP1 DUP7 GT PUSH2 0x1FAA JUMPI DUP6 PUSH2 0x1FAC JUMP JUMPDEST DUP1 JUMPDEST SWAP5 POP POP POP POP POP JUMPDEST SWAP3 SWAP2 POP POP JUMP JUMPDEST PUSH0 PUSH1 0x1A DUP1 SLOAD SWAP1 POP SWAP1 POP PUSH0 DUP2 EQ DUP1 PUSH2 0x1FCF JUMPI POP PUSH0 DUP3 EQ JUMPDEST ISZERO PUSH2 0x1FEC JUMPI PUSH0 DUP3 GT ISZERO PUSH2 0x1FE6 JUMPI PUSH2 0x1FE5 DUP3 PUSH2 0x2027 JUMP JUMPDEST JUMPDEST POP PUSH2 0x2024 JUMP JUMPDEST DUP1 PUSH8 0xDE0B6B3A7640000 DUP4 PUSH2 0x2001 SWAP2 SWAP1 PUSH2 0x3A4D JUMP JUMPDEST PUSH2 0x200B SWAP2 SWAP1 PUSH2 0x39B5 JUMP JUMPDEST PUSH1 0x14 PUSH0 DUP3 DUP3 SLOAD PUSH2 0x201B SWAP2 SWAP1 PUSH2 0x38AC JUMP JUMPDEST SWAP3 POP POP DUP2 SWAP1 SSTORE POP POP JUMPDEST POP JUMP JUMPDEST PUSH0 PUSH20 0xFFFFFFFFFFFFFFFFFFFFFFFFFFFFFFFFFFFFFFFF AND PUSH1 0x2 PUSH0 SWAP1 SLOAD SWAP1 PUSH2 0x100 EXP SWAP1 DIV PUSH20 0xFFFFFFFFFFFFFFFFFFFFFFFFFFFFFFFFFFFFFFFF AND PUSH20 0xFFFFFFFFFFFFFFFFFFFFFFFFFFFFFFFFFFFFFFFF AND SUB PUSH2 0x20B6 JUMPI PUSH1 0x40 MLOAD PUSH32 0x8C379A000000000000000000000000000000000000000000000000000000000 DUP2 MSTORE PUSH1 0x4 ADD PUSH2 0x20AD SWAP1 PUSH2 0x3DE5 JUMP JUMPDEST PUSH1 0x40 MLOAD DUP1 SWAP2 SUB SWAP1 REVERT JUMPDEST PUSH0 PUSH0 SWAP1 SLOAD SWAP1 PUSH2 0x100 EXP SWAP1 DIV PUSH20 0xFFFFFFFFFFFFFFFFFFFFFFFFFFFFFFFFFFFFFFFF AND PUSH20 0xFFFFFFFFFFFFFFFFFFFFFFFFFFFFFFFFFFFFFFFF AND PUSH4 0xA9059CBB PUSH1 0x2 PUSH0 SWAP1 SLOAD SWAP1 PUSH2 0x100 EXP SWAP1 DIV PUSH20 0xFFFFFFFFFFFFFFFFFFFFFFFFFFFFFFFFFFFFFFFF AND DUP4 PUSH1 0x40 MLOAD DUP4 PUSH4 0xFFFFFFFF AND PUSH1 0xE0 SHL DUP2 MSTORE PUSH1 0x4 ADD PUSH2 0x2132 SWAP3 SWAP2 SWAP1 PUSH2 0x3B6C JUMP JUMPDEST PUSH1 0x20 PUSH1 0x40 MLOAD DUP1 DUP4 SUB DUP2 PUSH0 DUP8 GAS CALL ISZERO DUP1 ISZERO PUSH2 0x214E JUMPI RETURNDATASIZE PUSH0 PUSH0 RETURNDATACOPY RETURNDATASIZE PUSH0 REVERT JUMPDEST POP POP POP POP PUSH1 0x40 MLOAD RETURNDATASIZE PUSH1 0x1F NOT PUSH1 0x1F DUP3 ADD AND DUP3 ADD DUP1 PUSH1 0x40 MSTORE POP DUP2 ADD SWAP1 PUSH2 0x2172 SWAP2 SWAP1 PUSH2 0x3854 JUMP JUMPDEST POP PUSH0 PUSH1 0xF PUSH0 PUSH1 0x5 SLOAD DUP2 MSTORE PUSH1 0x20 ADD SWAP1 DUP2 MSTORE PUSH1 0x20 ADD PUSH0 KECCAK256 SWAP1 POP DUP2 DUP2 PUSH0 ADD PUSH0 DUP3 DUP3 SLOAD PUSH2 0x219B SWAP2 SWAP1 PUSH2 0x38AC JUMP JUMPDEST SWAP3 POP POP DUP2 SWAP1 SSTORE POP PUSH1 0x10 PUSH0 PUSH1 0x5 SLOAD DUP2 MSTORE PUSH1 0x20 ADD SWAP1 DUP2 MSTORE PUSH1 0x20 ADD PUSH0 KECCAK256 PUSH1 0x40 MLOAD DUP1 PUSH1 0xA0 ADD PUSH1 0x40 MSTORE DUP1 PUSH0 DUP2 MSTORE PUSH1 0x20 ADD DUP5 DUP2 MSTORE PUSH1 0x20 ADD PUSH0 DUP2 MSTORE PUSH1 0x20 ADD TIMESTAMP DUP2 MSTORE PUSH1 0x20 ADD PUSH1 0x5 DUP2 MSTORE POP SWAP1 DUP1 PUSH1 0x1 DUP2 SLOAD ADD DUP1 DUP3 SSTORE DUP1 SWAP2 POP POP PUSH1 0x1 SWAP1 SUB SWAP1 PUSH0 MSTORE PUSH1 0x20 PUSH0 KECCAK256 SWAP1 PUSH1 0x5 MUL ADD PUSH0 SWAP1 SWAP2 SWAP1 SWAP2 SWAP1 SWAP2 POP PUSH0 DUP3 ADD MLOAD DUP2 PUSH0 ADD SSTORE PUSH1 0x20 DUP3 ADD MLOAD DUP2 PUSH1 0x1 ADD SSTORE PUSH1 0x40 DUP3 ADD MLOAD DUP2 PUSH1 0x2 ADD SSTORE PUSH1 0x60 DUP3 ADD MLOAD DUP2 PUSH1 0x3 ADD SSTORE PUSH1 0x80 DUP3 ADD MLOAD DUP2 PUSH1 0x4 ADD SSTORE POP POP POP POP JUMP JUMPDEST PUSH0 DUP5 EQ DUP1 PUSH2 0x2248 JUMPI POP PUSH1 0x5 SLOAD DUP5 EQ JUMPDEST ISZERO PUSH2 0x225B JUMPI PUSH2 0x2256 DUP3 PUSH2 0x2027 JUMP JUMPDEST PUSH2 0x24EB JUMP JUMPDEST PUSH0 PUSH1 0xE PUSH0 DUP7 DUP2 MSTORE PUSH1 0x20 ADD SWAP1 DUP2 MSTORE PUSH1 0x20 ADD PUSH0 KECCAK256 SWAP1 POP PUSH1 0x1 DUP3 EQ PUSH2 0x2294 JUMPI PUSH1 0x2 DUP2 PUSH1 0x7 ADD SLOAD LT ISZERO PUSH2 0x2293 JUMPI PUSH2 0x228D DUP4 PUSH2 0x2027 JUMP JUMPDEST POP PUSH2 0x24EB JUMP JUMPDEST JUMPDEST PUSH0 PUSH0 SWAP1 SLOAD SWAP1 PUSH2 0x100 EXP SWAP1 DIV PUSH20 0xFFFFFFFFFFFFFFFFFFFFFFFFFFFFFFFFFFFFFFFF AND PUSH20 0xFFFFFFFFFFFFFFFFFFFFFFFFFFFFFFFFFFFFFFFF AND PUSH4 0xA9059CBB DUP3 PUSH0 ADD PUSH0 SWAP1 SLOAD SWAP1 PUSH2 0x100 EXP SWAP1 DIV PUSH20 0xFFFFFFFFFFFFFFFFFFFFFFFFFFFFFFFFFFFFFFFF AND DUP6 PUSH1 0x40 MLOAD DUP4 PUSH4 0xFFFFFFFF AND PUSH1 0xE0 SHL DUP2 MSTORE PUSH1 0x4 ADD PUSH2 0x2311 SWAP3 SWAP2 SWAP1 PUSH2 0x3B6C JUMP JUMPDEST PUSH1 0x20 PUSH1 0x40 MLOAD DUP1 DUP4 SUB DUP2 PUSH0 DUP8 GAS CALL ISZERO DUP1 ISZERO PUSH2 0x232D JUMPI RETURNDATASIZE PUSH0 PUSH0 RETURNDATACOPY RETURNDATASIZE PUSH0 REVERT JUMPDEST POP POP POP POP PUSH1 0x40 MLOAD RETURNDATASIZE PUSH1 0x1F NOT PUSH1 0x1F DUP3 ADD AND DUP3 ADD DUP1 PUSH1 0x40 MSTORE POP DUP2 ADD SWAP1 PUSH2 0x2351 SWAP2 SWAP1 PUSH2 0x3854 JUMP JUMPDEST POP PUSH0 PUSH1 0xF PUSH0 DUP8 DUP2 MSTORE PUSH1 0x20 ADD SWAP1 DUP2 MSTORE PUSH1 0x20 ADD PUSH0 KECCAK256 SWAP1 POP DUP4 DUP2 PUSH0 ADD PUSH0 DUP3 DUP3 SLOAD PUSH2 0x2378 SWAP2 SWAP1 PUSH2 0x38AC JUMP JUMPDEST SWAP3 POP POP DUP2 SWAP1 SSTORE POP DUP4 DUP2 PUSH1 0x1 ADD PUSH0 DUP3 DUP3 SLOAD PUSH2 0x2392 SWAP2 SWAP1 PUSH2 0x38AC JUMP JUMPDEST SWAP3 POP POP DUP2 SWAP1 SSTORE POP PUSH1 0x10 PUSH0 DUP8 DUP2 MSTORE PUSH1 0x20 ADD SWAP1 DUP2 MSTORE PUSH1 0x20 ADD PUSH0 KECCAK256 PUSH1 0x40 MLOAD DUP1 PUSH1 0xA0 ADD PUSH1 0x40 MSTORE DUP1 DUP8 DUP2 MSTORE PUSH1 0x20 ADD DUP7 DUP2 MSTORE PUSH1 0x20 ADD DUP6 DUP2 MSTORE PUSH1 0x20 ADD TIMESTAMP DUP2 MSTORE PUSH1 0x20 ADD PUSH1 0x1 DUP2 MSTORE POP SWAP1 DUP1 PUSH1 0x1 DUP2 SLOAD ADD DUP1 DUP3 SSTORE DUP1 SWAP2 POP POP PUSH1 0x1 SWAP1 SUB SWAP1 PUSH0 MSTORE PUSH1 0x20 PUSH0 KECCAK256 SWAP1 PUSH1 0x5 MUL ADD PUSH0 SWAP1 SWAP2 SWAP1 SWAP2 SWAP1 SWAP2 POP PUSH0 DUP3 ADD MLOAD DUP2 PUSH0 ADD SSTORE PUSH1 0x20 DUP3 ADD MLOAD DUP2 PUSH1 0x1 ADD SSTORE PUSH1 0x40 DUP3 ADD MLOAD DUP2 PUSH1 0x2 ADD SSTORE PUSH1 0x60 DUP3 ADD MLOAD DUP2 PUSH1 0x3 ADD SSTORE PUSH1 0x80 DUP3 ADD MLOAD DUP2 PUSH1 0x4 ADD SSTORE POP POP PUSH1 0xE PUSH0 DUP7 DUP2 MSTORE PUSH1 0x20 ADD SWAP1 DUP2 MSTORE PUSH1 0x20 ADD PUSH0 KECCAK256 PUSH0 ADD PUSH0 SWAP1 SLOAD SWAP1 PUSH2 0x100 EXP SWAP1 DIV PUSH20 0xFFFFFFFFFFFFFFFFFFFFFFFFFFFFFFFFFFFFFFFF AND PUSH20 0xFFFFFFFFFFFFFFFFFFFFFFFFFFFFFFFFFFFFFFFF AND DUP3 PUSH0 ADD PUSH0 SWAP1 SLOAD SWAP1 PUSH2 0x100 EXP SWAP1 DIV PUSH20 0xFFFFFFFFFFFFFFFFFFFFFFFFFFFFFFFFFFFFFFFF AND PUSH20 0xFFFFFFFFFFFFFFFFFFFFFFFFFFFFFFFFFFFFFFFF AND PUSH32 0xE17B61D324CE17328F433D0AB62581C0F0AA997312BAE80FBDFCD2AA9B91D6E3 DUP7 DUP7 PUSH1 0x1 PUSH1 0x40 MLOAD PUSH2 0x24E0 SWAP4 SWAP3 SWAP2 SWAP1 PUSH2 0x3E3C JUMP JUMPDEST PUSH1 0x40 MLOAD DUP1 SWAP2 SUB SWAP1 LOG3 POP POP JUMPDEST POP POP POP POP JUMP JUMPDEST PUSH0 PUSH1 0x1 SWAP1 POP PUSH1 0x5 SLOAD DUP6 EQ DUP1 PUSH2 0x2505 JUMPI POP PUSH0 DUP6 EQ JUMPDEST ISZERO PUSH2 0x2519 JUMPI PUSH2 0x2513 DUP4 PUSH2 0x2027 JUMP JUMPDEST POP PUSH2 0x2847 JUMP JUMPDEST PUSH0 DUP6 SWAP1 POP JUMPDEST DUP3 DUP3 LT ISZERO PUSH2 0x2577 JUMPI DUP2 DUP1 PUSH2 0x2531 SWAP1 PUSH2 0x3E71 JUMP JUMPDEST SWAP3 POP POP PUSH1 0xE PUSH0 DUP3 DUP2 MSTORE PUSH1 0x20 ADD SWAP1 DUP2 MSTORE PUSH1 0x20 ADD PUSH0 KECCAK256 PUSH1 0x5 ADD SLOAD SWAP1 POP PUSH1 0x5 SLOAD DUP2 EQ DUP1 PUSH2 0x255A JUMPI POP PUSH0 DUP2 EQ JUMPDEST ISZERO PUSH2 0x2572 JUMPI DUP3 SWAP2 POP PUSH2 0x256B DUP5 PUSH2 0x2027 JUMP JUMPDEST POP POP PUSH2 0x2847 JUMP JUMPDEST PUSH2 0x251E JUMP JUMPDEST PUSH0 DUP2 SWAP1 POP PUSH0 SWAP3 POP JUMPDEST PUSH0 DUP2 EQ ISZERO DUP1 ISZERO PUSH2 0x2591 JUMPI POP PUSH1 0x5 SLOAD DUP2 EQ ISZERO JUMPDEST DUP1 ISZERO PUSH2 0x259D JUMPI POP PUSH1 0xF DUP4 LT JUMPDEST ISZERO PUSH2 0x283A JUMPI PUSH0 PUSH1 0xE PUSH0 DUP4 DUP2 MSTORE PUSH1 0x20 ADD SWAP1 DUP2 MSTORE PUSH1 0x20 ADD PUSH0 KECCAK256 SWAP1 POP DUP5 DUP2 PUSH1 0x6 ADD SLOAD LT PUSH2 0x281F JUMPI PUSH0 PUSH0 SWAP1 SLOAD SWAP1 PUSH2 0x100 EXP SWAP1 DIV PUSH20 0xFFFFFFFFFFFFFFFFFFFFFFFFFFFFFFFFFFFFFFFF AND PUSH20 0xFFFFFFFFFFFFFFFFFFFFFFFFFFFFFFFFFFFFFFFF AND PUSH4 0xA9059CBB DUP3 PUSH0 ADD PUSH0 SWAP1 SLOAD SWAP1 PUSH2 0x100 EXP SWAP1 DIV PUSH20 0xFFFFFFFFFFFFFFFFFFFFFFFFFFFFFFFFFFFFFFFF AND DUP9 PUSH1 0x40 MLOAD DUP4 PUSH4 0xFFFFFFFF AND PUSH1 0xE0 SHL DUP2 MSTORE PUSH1 0x4 ADD PUSH2 0x263E SWAP3 SWAP2 SWAP1 PUSH2 0x3B6C JUMP JUMPDEST PUSH1 0x20 PUSH1 0x40 MLOAD DUP1 DUP4 SUB DUP2 PUSH0 DUP8 GAS CALL ISZERO DUP1 ISZERO PUSH2 0x265A JUMPI RETURNDATASIZE PUSH0 PUSH0 RETURNDATACOPY RETURNDATASIZE PUSH0 REVERT JUMPDEST POP POP POP POP PUSH1 0x40 MLOAD RETURNDATASIZE PUSH1 0x1F NOT PUSH1 0x1F DUP3 ADD AND DUP3 ADD DUP1 PUSH1 0x40 MSTORE POP DUP2 ADD SWAP1 PUSH2 0x267E SWAP2 SWAP1 PUSH2 0x3854 JUMP JUMPDEST POP PUSH0 PUSH1 0xF PUSH0 DUP5 DUP2 MSTORE PUSH1 0x20 ADD SWAP1 DUP2 MSTORE PUSH1 0x20 ADD PUSH0 KECCAK256 SWAP1 POP DUP7 DUP2 PUSH0 ADD PUSH0 DUP3 DUP3 SLOAD PUSH2 0x26A5 SWAP2 SWAP1 PUSH2 0x38AC JUMP JUMPDEST SWAP3 POP POP DUP2 SWAP1 SSTORE POP DUP7 DUP2 PUSH1 0x2 ADD PUSH0 DUP3 DUP3 SLOAD PUSH2 0x26BF SWAP2 SWAP1 PUSH2 0x38AC JUMP JUMPDEST SWAP3 POP POP DUP2 SWAP1 SSTORE POP PUSH1 0x10 PUSH0 DUP5 DUP2 MSTORE PUSH1 0x20 ADD SWAP1 DUP2 MSTORE PUSH1 0x20 ADD PUSH0 KECCAK256 PUSH1 0x40 MLOAD DUP1 PUSH1 0xA0 ADD PUSH1 0x40 MSTORE DUP1 DUP11 DUP2 MSTORE PUSH1 0x20 ADD DUP10 DUP2 MSTORE PUSH1 0x20 ADD DUP9 DUP2 MSTORE PUSH1 0x20 ADD TIMESTAMP DUP2 MSTORE PUSH1 0x20 ADD PUSH1 0x2 DUP2 MSTORE POP SWAP1 DUP1 PUSH1 0x1 DUP2 SLOAD ADD DUP1 DUP3 SSTORE DUP1 SWAP2 POP POP PUSH1 0x1 SWAP1 SUB SWAP1 PUSH0 MSTORE PUSH1 0x20 PUSH0 KECCAK256 SWAP1 PUSH1 0x5 MUL ADD PUSH0 SWAP1 SWAP2 SWAP1 SWAP2 SWAP1 SWAP2 POP PUSH0 DUP3 ADD MLOAD DUP2 PUSH0 ADD SSTORE PUSH1 0x20 DUP3 ADD MLOAD DUP2 PUSH1 0x1 ADD SSTORE PUSH1 0x40 DUP3 ADD MLOAD DUP2 PUSH1 0x2 ADD SSTORE PUSH1 0x60 DUP3 ADD MLOAD DUP2 PUSH1 0x3 ADD SSTORE PUSH1 0x80 DUP3 ADD MLOAD DUP2 PUSH1 0x4 ADD SSTORE POP POP PUSH1 0xE PUSH0 DUP10 DUP2 MSTORE PUSH1 0x20 ADD SWAP1 DUP2 MSTORE PUSH1 0x20 ADD PUSH0 KECCAK256 PUSH0 ADD PUSH0 SWAP1 SLOAD SWAP1 PUSH2 0x100 EXP SWAP1 DIV PUSH20 0xFFFFFFFFFFFFFFFFFFFFFFFFFFFFFFFFFFFFFFFF AND PUSH20 0xFFFFFFFFFFFFFFFFFFFFFFFFFFFFFFFFFFFFFFFF AND DUP3 PUSH0 ADD PUSH0 SWAP1 SLOAD SWAP1 PUSH2 0x100 EXP SWAP1 DIV PUSH20 0xFFFFFFFFFFFFFFFFFFFFFFFFFFFFFFFFFFFFFFFF AND PUSH20 0xFFFFFFFFFFFFFFFFFFFFFFFFFFFFFFFFFFFFFFFF AND PUSH32 0xE17B61D324CE17328F433D0AB62581C0F0AA997312BAE80FBDFCD2AA9B91D6E3 DUP10 DUP10 PUSH1 0x2 PUSH1 0x40 MLOAD PUSH2 0x280D SWAP4 SWAP3 SWAP2 SWAP1 PUSH2 0x3EF1 JUMP JUMPDEST PUSH1 0x40 MLOAD DUP1 SWAP2 SUB SWAP1 LOG3 POP POP POP POP POP PUSH2 0x2847 JUMP JUMPDEST DUP1 PUSH1 0x5 ADD SLOAD SWAP2 POP DUP4 DUP1 PUSH2 0x2831 SWAP1 PUSH2 0x3E71 JUMP JUMPDEST SWAP5 POP POP POP PUSH2 0x257F JUMP JUMPDEST PUSH2 0x2843 DUP6 PUSH2 0x2027 JUMP JUMPDEST POP POP POP JUMPDEST POP POP POP POP JUMP JUMPDEST PUSH0 DUP6 EQ DUP1 PUSH2 0x285C JUMPI POP PUSH1 0x5 SLOAD DUP6 EQ JUMPDEST ISZERO PUSH2 0x286F JUMPI PUSH2 0x286A DUP4 PUSH2 0x2027 JUMP JUMPDEST PUSH2 0x29AC JUMP JUMPDEST PUSH0 DUP2 SWAP1 POP PUSH0 DUP2 SUB PUSH2 0x2889 JUMPI PUSH2 0x2883 DUP5 PUSH2 0x2027 JUMP JUMPDEST POP PUSH2 0x29AC JUMP JUMPDEST PUSH0 DUP2 DUP6 PUSH2 0x2896 SWAP2 SWAP1 PUSH2 0x39B5 JUMP JUMPDEST SWAP1 POP PUSH0 DUP3 DUP3 PUSH2 0x28A5 SWAP2 SWAP1 PUSH2 0x3A4D JUMP JUMPDEST DUP7 PUSH2 0x28B0 SWAP2 SWAP1 PUSH2 0x3955 JUMP JUMPDEST SWAP1 POP PUSH0 PUSH1 0x1 SWAP1 POP PUSH0 DUP10 SWAP1 POP PUSH0 PUSH0 SWAP1 POP JUMPDEST DUP6 DUP2 LT ISZERO PUSH2 0x2993 JUMPI PUSH0 DUP3 EQ ISZERO DUP1 ISZERO PUSH2 0x28DA JUMPI POP PUSH1 0x5 SLOAD DUP3 EQ ISZERO JUMPDEST ISZERO PUSH2 0x2968 JUMPI DUP8 PUSH1 0xE PUSH0 DUP5 DUP2 MSTORE PUSH1 0x20 ADD SWAP1 DUP2 MSTORE PUSH1 0x20 ADD PUSH0 KECCAK256 PUSH1 0x6 ADD SLOAD LT PUSH2 0x2941 JUMPI PUSH0 PUSH0 SWAP1 POP JUMPDEST DUP4 DUP2 LT ISZERO PUSH2 0x2920 JUMPI PUSH2 0x2913 DUP4 DUP13 DUP9 DUP13 PUSH2 0x2D7C JUMP JUMPDEST DUP1 DUP1 PUSH1 0x1 ADD SWAP2 POP POP PUSH2 0x28FF JUMP JUMPDEST POP PUSH1 0xE PUSH0 DUP4 DUP2 MSTORE PUSH1 0x20 ADD SWAP1 DUP2 MSTORE PUSH1 0x20 ADD PUSH0 KECCAK256 PUSH1 0x5 ADD SLOAD SWAP2 POP PUSH1 0x1 SWAP3 POP PUSH2 0x2967 JUMP JUMPDEST PUSH1 0xE PUSH0 DUP4 DUP2 MSTORE PUSH1 0x20 ADD SWAP1 DUP2 MSTORE PUSH1 0x20 ADD PUSH0 KECCAK256 PUSH1 0x5 ADD SLOAD SWAP2 POP DUP3 DUP1 PUSH2 0x2963 SWAP1 PUSH2 0x3E71 JUMP JUMPDEST SWAP4 POP POP JUMPDEST JUMPDEST PUSH0 DUP3 EQ DUP1 PUSH2 0x2977 JUMPI POP PUSH1 0x5 SLOAD DUP3 EQ JUMPDEST ISZERO PUSH2 0x2986 JUMPI PUSH2 0x2985 DUP6 PUSH2 0x2027 JUMP JUMPDEST JUMPDEST DUP1 DUP1 PUSH1 0x1 ADD SWAP2 POP POP PUSH2 0x28C0 JUMP JUMPDEST POP PUSH0 DUP4 GT ISZERO PUSH2 0x29A6 JUMPI PUSH2 0x29A5 DUP4 PUSH2 0x2027 JUMP JUMPDEST JUMPDEST POP POP POP POP POP JUMPDEST POP POP POP POP POP JUMP JUMPDEST PUSH0 PUSH0 PUSH1 0x2 PUSH1 0x12 PUSH0 DUP6 DUP2 MSTORE PUSH1 0x20 ADD SWAP1 DUP2 MSTORE PUSH1 0x20 ADD PUSH0 KECCAK256 SLOAD LT ISZERO PUSH2 0x2A18 JUMPI DUP3 PUSH1 0xE PUSH0 DUP7 DUP2 MSTORE PUSH1 0x20 ADD SWAP1 DUP2 MSTORE PUSH1 0x20 ADD PUSH0 KECCAK256 PUSH1 0x5 ADD DUP2 SWAP1 SSTORE POP PUSH1 0x1 PUSH1 0x12 PUSH0 DUP6 DUP2 MSTORE PUSH1 0x20 ADD SWAP1 DUP2 MSTORE PUSH1 0x20 ADD PUSH0 KECCAK256 PUSH0 DUP3 DUP3 SLOAD PUSH2 0x2A09 SWAP2 SWAP1 PUSH2 0x38AC JUMP JUMPDEST SWAP3 POP POP DUP2 SWAP1 SSTORE POP DUP3 SWAP1 POP PUSH2 0x2B6F JUMP JUMPDEST PUSH0 PUSH0 SWAP1 POP JUMPDEST PUSH1 0xF DUP2 LT ISZERO PUSH2 0x2B6D JUMPI DUP3 PUSH2 0x2B6D JUMPI PUSH1 0x2 DUP2 PUSH2 0x2A38 SWAP2 SWAP1 PUSH2 0x38AC JUMP JUMPDEST PUSH1 0x2 PUSH2 0x2A44 SWAP2 SWAP1 PUSH2 0x4055 JUMP JUMPDEST PUSH1 0x11 PUSH0 DUP7 DUP2 MSTORE PUSH1 0x20 ADD SWAP1 DUP2 MSTORE PUSH1 0x20 ADD PUSH0 KECCAK256 PUSH0 PUSH1 0x1 DUP5 PUSH2 0x2A63 SWAP2 SWAP1 PUSH2 0x38AC JUMP JUMPDEST DUP2 MSTORE PUSH1 0x20 ADD SWAP1 DUP2 MSTORE PUSH1 0x20 ADD PUSH0 KECCAK256 DUP1 SLOAD SWAP1 POP LT ISZERO PUSH2 0x2B60 JUMPI PUSH0 PUSH0 SWAP1 POP JUMPDEST PUSH1 0x11 PUSH0 DUP7 DUP2 MSTORE PUSH1 0x20 ADD SWAP1 DUP2 MSTORE PUSH1 0x20 ADD PUSH0 KECCAK256 PUSH0 DUP4 DUP2 MSTORE PUSH1 0x20 ADD SWAP1 DUP2 MSTORE PUSH1 0x20 ADD PUSH0 KECCAK256 DUP1 SLOAD SWAP1 POP DUP2 LT ISZERO PUSH2 0x2B5E JUMPI DUP4 PUSH2 0x2B5E JUMPI PUSH0 PUSH1 0x11 PUSH0 DUP8 DUP2 MSTORE PUSH1 0x20 ADD SWAP1 DUP2 MSTORE PUSH1 0x20 ADD PUSH0 KECCAK256 PUSH0 DUP5 DUP2 MSTORE PUSH1 0x20 ADD SWAP1 DUP2 MSTORE PUSH1 0x20 ADD PUSH0 KECCAK256 DUP3 DUP2 SLOAD DUP2 LT PUSH2 0x2AE2 JUMPI PUSH2 0x2AE1 PUSH2 0x37BD JUMP JUMPDEST JUMPDEST SWAP1 PUSH0 MSTORE PUSH1 0x20 PUSH0 KECCAK256 ADD SLOAD SWAP1 POP PUSH1 0x2 PUSH1 0x12 PUSH0 DUP4 DUP2 MSTORE PUSH1 0x20 ADD SWAP1 DUP2 MSTORE PUSH1 0x20 ADD PUSH0 KECCAK256 SLOAD LT ISZERO PUSH2 0x2B50 JUMPI DUP1 PUSH1 0xE PUSH0 DUP10 DUP2 MSTORE PUSH1 0x20 ADD SWAP1 DUP2 MSTORE PUSH1 0x20 ADD PUSH0 KECCAK256 PUSH1 0x5 ADD DUP2 SWAP1 SSTORE POP PUSH1 0x1 PUSH1 0x12 PUSH0 DUP4 DUP2 MSTORE PUSH1 0x20 ADD SWAP1 DUP2 MSTORE PUSH1 0x20 ADD PUSH0 KECCAK256 PUSH0 DUP3 DUP3 SLOAD PUSH2 0x2B41 SWAP2 SWAP1 PUSH2 0x38AC JUMP JUMPDEST SWAP3 POP POP DUP2 SWAP1 SSTORE POP DUP1 SWAP4 POP PUSH1 0x1 SWAP5 POP JUMPDEST POP DUP1 DUP1 PUSH1 0x1 ADD SWAP2 POP POP PUSH2 0x2A7F JUMP JUMPDEST POP JUMPDEST DUP1 DUP1 PUSH1 0x1 ADD SWAP2 POP POP PUSH2 0x2A1D JUMP JUMPDEST POP JUMPDEST PUSH0 PUSH0 SWAP1 POP JUMPDEST PUSH1 0xF DUP2 LT ISZERO PUSH2 0x2C18 JUMPI PUSH0 DUP3 SUB ISZERO PUSH2 0x2C18 JUMPI PUSH1 0x1 PUSH1 0xE PUSH0 DUP5 DUP2 MSTORE PUSH1 0x20 ADD SWAP1 DUP2 MSTORE PUSH1 0x20 ADD PUSH0 KECCAK256 PUSH1 0x8 ADD PUSH0 DUP3 DUP3 SLOAD PUSH2 0x2BA9 SWAP2 SWAP1 PUSH2 0x38AC JUMP JUMPDEST SWAP3 POP POP DUP2 SWAP1 SSTORE POP PUSH1 0x11 PUSH0 DUP4 DUP2 MSTORE PUSH1 0x20 ADD SWAP1 DUP2 MSTORE PUSH1 0x20 ADD PUSH0 KECCAK256 PUSH0 DUP3 DUP2 MSTORE PUSH1 0x20 ADD SWAP1 DUP2 MSTORE PUSH1 0x20 ADD PUSH0 KECCAK256 DUP6 SWAP1 DUP1 PUSH1 0x1 DUP2 SLOAD ADD DUP1 DUP3 SSTORE DUP1 SWAP2 POP POP PUSH1 0x1 SWAP1 SUB SWAP1 PUSH0 MSTORE PUSH1 0x20 PUSH0 KECCAK256 ADD PUSH0 SWAP1 SWAP2 SWAP1 SWAP2 SWAP1 SWAP2 POP SSTORE PUSH1 0xE PUSH0 DUP4 DUP2 MSTORE PUSH1 0x20 ADD SWAP1 DUP2 MSTORE PUSH1 0x20 ADD PUSH0 KECCAK256 PUSH1 0x5 ADD SLOAD SWAP2 POP DUP1 DUP1 PUSH1 0x1 ADD SWAP2 POP POP PUSH2 0x2B74 JUMP JUMPDEST POP POP POP POP POP JUMP JUMPDEST PUSH0 DUP5 EQ DUP1 PUSH2 0x2C2E JUMPI POP PUSH1 0x5 SLOAD DUP5 EQ JUMPDEST ISZERO PUSH2 0x2C41 JUMPI PUSH2 0x2C3C DUP2 PUSH2 0x2027 JUMP JUMPDEST PUSH2 0x2D76 JUMP JUMPDEST PUSH0 PUSH1 0x3 DUP3 PUSH2 0x2C4F SWAP2 SWAP1 PUSH2 0x39B5 JUMP JUMPDEST SWAP1 POP PUSH0 PUSH0 SWAP1 POP JUMPDEST PUSH1 0x3 DUP2 LT ISZERO PUSH2 0x2D73 JUMPI PUSH0 PUSH1 0x8 PUSH0 DUP8 DUP2 MSTORE PUSH1 0x20 ADD SWAP1 DUP2 MSTORE PUSH1 0x20 ADD PUSH0 KECCAK256 PUSH0 DUP9 DUP2 MSTORE PUSH1 0x20 ADD SWAP1 DUP2 MSTORE PUSH1 0x20 ADD PUSH0 KECCAK256 SWAP1 POP PUSH0 DUP2 PUSH1 0x1 ADD SLOAD SWAP1 POP PUSH1 0x27 DUP3 PUSH1 0x4 ADD SLOAD LT ISZERO PUSH2 0x2D64 JUMPI PUSH1 0x18 DUP3 PUSH1 0x4 ADD SLOAD LT ISZERO PUSH2 0x2CCD JUMPI PUSH1 0x1 DUP3 PUSH1 0x4 ADD PUSH0 DUP3 DUP3 SLOAD PUSH2 0x2CB8 SWAP2 SWAP1 PUSH2 0x38AC JUMP JUMPDEST SWAP3 POP POP DUP2 SWAP1 SSTORE POP PUSH2 0x2CCC DUP2 DUP8 DUP7 PUSH1 0x1 PUSH2 0x2FCA JUMP JUMPDEST JUMPDEST PUSH1 0x18 DUP3 PUSH1 0x4 ADD SLOAD LT ISZERO DUP1 ISZERO PUSH2 0x2CE6 JUMPI POP PUSH1 0x24 DUP3 PUSH1 0x4 ADD SLOAD LT JUMPDEST ISZERO PUSH2 0x2D21 JUMPI PUSH1 0x1 DUP3 PUSH1 0x4 ADD PUSH0 DUP3 DUP3 SLOAD PUSH2 0x2CFF SWAP2 SWAP1 PUSH2 0x38AC JUMP JUMPDEST SWAP3 POP POP DUP2 SWAP1 SSTORE POP DUP4 DUP3 PUSH1 0x5 ADD PUSH0 DUP3 DUP3 SLOAD PUSH2 0x2D19 SWAP2 SWAP1 PUSH2 0x38AC JUMP JUMPDEST SWAP3 POP POP DUP2 SWAP1 SSTORE POP JUMPDEST PUSH1 0x24 DUP3 PUSH1 0x4 ADD SLOAD LT PUSH2 0x2D63 JUMPI PUSH1 0x1 DUP3 PUSH1 0x4 ADD PUSH0 DUP3 DUP3 SLOAD PUSH2 0x2D41 SWAP2 SWAP1 PUSH2 0x38AC JUMP JUMPDEST SWAP3 POP POP DUP2 SWAP1 SSTORE POP DUP4 DUP3 PUSH1 0x6 ADD PUSH0 DUP3 DUP3 SLOAD PUSH2 0x2D5B SWAP2 SWAP1 PUSH2 0x38AC JUMP JUMPDEST SWAP3 POP POP DUP2 SWAP1 SSTORE POP JUMPDEST JUMPDEST POP POP DUP1 DUP1 PUSH1 0x1 ADD SWAP2 POP POP PUSH2 0x2C56 JUMP JUMPDEST POP POP JUMPDEST POP POP POP POP JUMP JUMPDEST PUSH0 PUSH1 0xE PUSH0 DUP7 DUP2 MSTORE PUSH1 0x20 ADD SWAP1 DUP2 MSTORE PUSH1 0x20 ADD PUSH0 KECCAK256 PUSH0 ADD PUSH0 SWAP1 SLOAD SWAP1 PUSH2 0x100 EXP SWAP1 DIV PUSH20 0xFFFFFFFFFFFFFFFFFFFFFFFFFFFFFFFFFFFFFFFF AND SWAP1 POP PUSH0 PUSH0 SWAP1 SLOAD SWAP1 PUSH2 0x100 EXP SWAP1 DIV PUSH20 0xFFFFFFFFFFFFFFFFFFFFFFFFFFFFFFFFFFFFFFFF AND PUSH20 0xFFFFFFFFFFFFFFFFFFFFFFFFFFFFFFFFFFFFFFFF AND PUSH4 0xA9059CBB DUP3 DUP6 PUSH1 0x40 MLOAD DUP4 PUSH4 0xFFFFFFFF AND PUSH1 0xE0 SHL DUP2 MSTORE PUSH1 0x4 ADD PUSH2 0x2E0D SWAP3 SWAP2 SWAP1 PUSH2 0x3B6C JUMP JUMPDEST PUSH1 0x20 PUSH1 0x40 MLOAD DUP1 DUP4 SUB DUP2 PUSH0 DUP8 GAS CALL ISZERO DUP1 ISZERO PUSH2 0x2E29 JUMPI RETURNDATASIZE PUSH0 PUSH0 RETURNDATACOPY RETURNDATASIZE PUSH0 REVERT JUMPDEST POP POP POP POP PUSH1 0x40 MLOAD RETURNDATASIZE PUSH1 0x1F NOT PUSH1 0x1F DUP3 ADD AND DUP3 ADD DUP1 PUSH1 0x40 MSTORE POP DUP2 ADD SWAP1 PUSH2 0x2E4D SWAP2 SWAP1 PUSH2 0x3854 JUMP JUMPDEST POP PUSH0 PUSH1 0xF PUSH0 DUP8 DUP2 MSTORE PUSH1 0x20 ADD SWAP1 DUP2 MSTORE PUSH1 0x20 ADD PUSH0 KECCAK256 SWAP1 POP DUP4 DUP2 PUSH0 ADD PUSH0 DUP3 DUP3 SLOAD PUSH2 0x2E74 SWAP2 SWAP1 PUSH2 0x38AC JUMP JUMPDEST SWAP3 POP POP DUP2 SWAP1 SSTORE POP DUP4 DUP2 PUSH1 0x3 ADD PUSH0 DUP3 DUP3 SLOAD PUSH2 0x2E8E SWAP2 SWAP1 PUSH2 0x38AC JUMP JUMPDEST SWAP3 POP POP DUP2 SWAP1 SSTORE POP PUSH1 0x10 PUSH0 DUP8 DUP2 MSTORE PUSH1 0x20 ADD SWAP1 DUP2 MSTORE PUSH1 0x20 ADD PUSH0 KECCAK256 PUSH1 0x40 MLOAD DUP1 PUSH1 0xA0 ADD PUSH1 0x40 MSTORE DUP1 DUP8 DUP2 MSTORE PUSH1 0x20 ADD DUP7 DUP2 MSTORE PUSH1 0x20 ADD DUP6 DUP2 MSTORE PUSH1 0x20 ADD TIMESTAMP DUP2 MSTORE PUSH1 0x20 ADD PUSH1 0x4 DUP2 MSTORE POP SWAP1 DUP1 PUSH1 0x1 DUP2 SLOAD ADD DUP1 DUP3 SSTORE DUP1 SWAP2 POP POP PUSH1 0x1 SWAP1 SUB SWAP1 PUSH0 MSTORE PUSH1 0x20 PUSH0 KECCAK256 SWAP1 PUSH1 0x5 MUL ADD PUSH0 SWAP1 SWAP2 SWAP1 SWAP2 SWAP1 SWAP2 POP PUSH0 DUP3 ADD MLOAD DUP2 PUSH0 ADD SSTORE PUSH1 0x20 DUP3 ADD MLOAD DUP2 PUSH1 0x1 ADD SSTORE PUSH1 0x40 DUP3 ADD MLOAD DUP2 PUSH1 0x2 ADD SSTORE PUSH1 0x60 DUP3 ADD MLOAD DUP2 PUSH1 0x3 ADD SSTORE PUSH1 0x80 DUP3 ADD MLOAD DUP2 PUSH1 0x4 ADD SSTORE POP POP PUSH1 0xE PUSH0 DUP7 DUP2 MSTORE PUSH1 0x20 ADD SWAP1 DUP2 MSTORE PUSH1 0x20 ADD PUSH0 KECCAK256 PUSH0 ADD PUSH0 SWAP1 SLOAD SWAP1 PUSH2 0x100 EXP SWAP1 DIV PUSH20 0xFFFFFFFFFFFFFFFFFFFFFFFFFFFFFFFFFFFFFFFF AND PUSH20 0xFFFFFFFFFFFFFFFFFFFFFFFFFFFFFFFFFFFFFFFF AND DUP3 PUSH20 0xFFFFFFFFFFFFFFFFFFFFFFFFFFFFFFFFFFFFFFFF AND PUSH32 0xE17B61D324CE17328F433D0AB62581C0F0AA997312BAE80FBDFCD2AA9B91D6E3 DUP7 DUP7 PUSH1 0x4 PUSH1 0x40 MLOAD PUSH2 0x2FBA SWAP4 SWAP3 SWAP2 SWAP1 PUSH2 0x40D8 JUMP JUMPDEST PUSH1 0x40 MLOAD DUP1 SWAP2 SUB SWAP1 LOG3 POP POP POP POP POP POP JUMP JUMPDEST PUSH0 PUSH1 0xE PUSH0 DUP7 DUP2 MSTORE PUSH1 0x20 ADD SWAP1 DUP2 MSTORE PUSH1 0x20 ADD PUSH0 KECCAK256 PUSH0 ADD PUSH0 SWAP1 SLOAD SWAP1 PUSH2 0x100 EXP SWAP1 DIV PUSH20 0xFFFFFFFFFFFFFFFFFFFFFFFFFFFFFFFFFFFFFFFF AND SWAP1 POP PUSH0 PUSH0 SWAP1 SLOAD SWAP1 PUSH2 0x100 EXP SWAP1 DIV PUSH20 0xFFFFFFFFFFFFFFFFFFFFFFFFFFFFFFFFFFFFFFFF AND PUSH20 0xFFFFFFFFFFFFFFFFFFFFFFFFFFFFFFFFFFFFFFFF AND PUSH4 0xA9059CBB DUP3 DUP6 PUSH1 0x40 MLOAD DUP4 PUSH4 0xFFFFFFFF AND PUSH1 0xE0 SHL DUP2 MSTORE PUSH1 0x4 ADD PUSH2 0x305B SWAP3 SWAP2 SWAP1 PUSH2 0x3B6C JUMP JUMPDEST PUSH1 0x20 PUSH1 0x40 MLOAD DUP1 DUP4 SUB DUP2 PUSH0 DUP8 GAS CALL ISZERO DUP1 ISZERO PUSH2 0x3077 JUMPI RETURNDATASIZE PUSH0 PUSH0 RETURNDATACOPY RETURNDATASIZE PUSH0 REVERT JUMPDEST POP POP POP POP PUSH1 0x40 MLOAD RETURNDATASIZE PUSH1 0x1F NOT PUSH1 0x1F DUP3 ADD AND DUP3 ADD DUP1 PUSH1 0x40 MSTORE POP DUP2 ADD SWAP1 PUSH2 0x309B SWAP2 SWAP1 PUSH2 0x3854 JUMP JUMPDEST POP PUSH0 PUSH1 0xF PUSH0 DUP8 DUP2 MSTORE PUSH1 0x20 ADD SWAP1 DUP2 MSTORE PUSH1 0x20 ADD PUSH0 KECCAK256 SWAP1 POP DUP4 DUP2 PUSH0 ADD PUSH0 DUP3 DUP3 SLOAD PUSH2 0x30C2 SWAP2 SWAP1 PUSH2 0x38AC JUMP JUMPDEST SWAP3 POP POP DUP2 SWAP1 SSTORE POP DUP4 DUP2 PUSH1 0x8 ADD PUSH0 DUP3 DUP3 SLOAD PUSH2 0x30DC SWAP2 SWAP1 PUSH2 0x38AC JUMP JUMPDEST SWAP3 POP POP DUP2 SWAP1 SSTORE POP PUSH1 0x10 PUSH0 DUP8 DUP2 MSTORE PUSH1 0x20 ADD SWAP1 DUP2 MSTORE PUSH1 0x20 ADD PUSH0 KECCAK256 PUSH1 0x40 MLOAD DUP1 PUSH1 0xA0 ADD PUSH1 0x40 MSTORE DUP1 DUP8 DUP2 MSTORE PUSH1 0x20 ADD DUP7 DUP2 MSTORE PUSH1 0x20 ADD DUP6 DUP2 MSTORE PUSH1 0x20 ADD TIMESTAMP DUP2 MSTORE PUSH1 0x20 ADD PUSH1 0xA DUP2 MSTORE POP SWAP1 DUP1 PUSH1 0x1 DUP2 SLOAD ADD DUP1 DUP3 SSTORE DUP1 SWAP2 POP POP PUSH1 0x1 SWAP1 SUB SWAP1 PUSH0 MSTORE PUSH1 0x20 PUSH0 KECCAK256 SWAP1 PUSH1 0x5 MUL ADD PUSH0 SWAP1 SWAP2 SWAP1 SWAP2 SWAP1 SWAP2 POP PUSH0 DUP3 ADD MLOAD DUP2 PUSH0 ADD SSTORE PUSH1 0x20 DUP3 ADD MLOAD DUP2 PUSH1 0x1 ADD SSTORE PUSH1 0x40 DUP3 ADD MLOAD DUP2 PUSH1 0x2 ADD SSTORE PUSH1 0x60 DUP3 ADD MLOAD DUP2 PUSH1 0x3 ADD SSTORE PUSH1 0x80 DUP3 ADD MLOAD DUP2 PUSH1 0x4 ADD SSTORE POP POP PUSH1 0xE PUSH0 DUP7 DUP2 MSTORE PUSH1 0x20 ADD SWAP1 DUP2 MSTORE PUSH1 0x20 ADD PUSH0 KECCAK256 PUSH0 ADD PUSH0 SWAP1 SLOAD SWAP1 PUSH2 0x100 EXP SWAP1 DIV PUSH20 0xFFFFFFFFFFFFFFFFFFFFFFFFFFFFFFFFFFFFFFFF AND PUSH20 0xFFFFFFFFFFFFFFFFFFFFFFFFFFFFFFFFFFFFFFFF AND DUP3 PUSH20 0xFFFFFFFFFFFFFFFFFFFFFFFFFFFFFFFFFFFFFFFF AND PUSH32 0xE17B61D324CE17328F433D0AB62581C0F0AA997312BAE80FBDFCD2AA9B91D6E3 DUP7 DUP7 PUSH1 0xA PUSH1 0x40 MLOAD PUSH2 0x3208 SWAP4 SWAP3 SWAP2 SWAP1 PUSH2 0x4146 JUMP JUMPDEST PUSH1 0x40 MLOAD DUP1 SWAP2 SUB SWAP1 LOG3 POP POP POP POP POP POP JUMP JUMPDEST PUSH0 DUP2 SWAP1 POP SWAP2 SWAP1 POP JUMP JUMPDEST PUSH2 0x322A DUP2 PUSH2 0x3218 JUMP JUMPDEST DUP3 MSTORE POP POP JUMP JUMPDEST PUSH0 PUSH1 0x20 DUP3 ADD SWAP1 POP PUSH2 0x3243 PUSH0 DUP4 ADD DUP5 PUSH2 0x3221 JUMP JUMPDEST SWAP3 SWAP2 POP POP JUMP JUMPDEST PUSH0 PUSH0 REVERT JUMPDEST PUSH2 0x3256 DUP2 PUSH2 0x3218 JUMP JUMPDEST DUP2 EQ PUSH2 0x3260 JUMPI PUSH0 PUSH0 REVERT JUMPDEST POP JUMP JUMPDEST PUSH0 DUP2 CALLDATALOAD SWAP1 POP PUSH2 0x3271 DUP2 PUSH2 0x324D JUMP JUMPDEST SWAP3 SWAP2 POP POP JUMP JUMPDEST PUSH0 PUSH0 PUSH1 0x40 DUP4 DUP6 SUB SLT ISZERO PUSH2 0x328D JUMPI PUSH2 0x328C PUSH2 0x3249 JUMP JUMPDEST JUMPDEST PUSH0 PUSH2 0x329A DUP6 DUP3 DUP7 ADD PUSH2 0x3263 JUMP JUMPDEST SWAP3 POP POP PUSH1 0x20 PUSH2 0x32AB DUP6 DUP3 DUP7 ADD PUSH2 0x3263 JUMP JUMPDEST SWAP2 POP POP SWAP3 POP SWAP3 SWAP1 POP JUMP JUMPDEST PUSH0 PUSH4 0xFFFFFFFF DUP3 AND SWAP1 POP SWAP2 SWAP1 POP JUMP JUMPDEST PUSH2 0x32CD DUP2 PUSH2 0x32B5 JUMP JUMPDEST DUP2 EQ PUSH2 0x32D7 JUMPI PUSH0 PUSH0 REVERT JUMPDEST POP JUMP JUMPDEST PUSH0 DUP2 CALLDATALOAD SWAP1 POP PUSH2 0x32E8 DUP2 PUSH2 0x32C4 JUMP JUMPDEST SWAP3 SWAP2 POP POP JUMP JUMPDEST PUSH0 PUSH1 0x20 DUP3 DUP5 SUB SLT ISZERO PUSH2 0x3303 JUMPI PUSH2 0x3302 PUSH2 0x3249 JUMP JUMPDEST JUMPDEST PUSH0 PUSH2 0x3310 DUP5 DUP3 DUP6 ADD PUSH2 0x32DA JUMP JUMPDEST SWAP2 POP POP SWAP3 SWAP2 POP POP JUMP JUMPDEST PUSH0 PUSH1 0x20 DUP3 DUP5 SUB SLT ISZERO PUSH2 0x332E JUMPI PUSH2 0x332D PUSH2 0x3249 JUMP JUMPDEST JUMPDEST PUSH0 PUSH2 0x333B DUP5 DUP3 DUP6 ADD PUSH2 0x3263 JUMP JUMPDEST SWAP2 POP POP SWAP3 SWAP2 POP POP JUMP JUMPDEST PUSH0 PUSH1 0x40 DUP3 ADD SWAP1 POP PUSH2 0x3357 PUSH0 DUP4 ADD DUP6 PUSH2 0x3221 JUMP JUMPDEST PUSH2 0x3364 PUSH1 0x20 DUP4 ADD DUP5 PUSH2 0x3221 JUMP JUMPDEST SWAP4 SWAP3 POP POP POP JUMP JUMPDEST PUSH0 PUSH20 0xFFFFFFFFFFFFFFFFFFFFFFFFFFFFFFFFFFFFFFFF DUP3 AND SWAP1 POP SWAP2 SWAP1 POP JUMP JUMPDEST PUSH0 DUP2 SWAP1 POP SWAP2 SWAP1 POP JUMP JUMPDEST PUSH0 PUSH2 0x33AD PUSH2 0x33A8 PUSH2 0x33A3 DUP5 PUSH2 0x336B JUMP JUMPDEST PUSH2 0x338A JUMP JUMPDEST PUSH2 0x336B JUMP JUMPDEST SWAP1 POP SWAP2 SWAP1 POP JUMP JUMPDEST PUSH0 PUSH2 0x33BE DUP3 PUSH2 0x3393 JUMP JUMPDEST SWAP1 POP SWAP2 SWAP1 POP JUMP JUMPDEST PUSH0 PUSH2 0x33CF DUP3 PUSH2 0x33B4 JUMP JUMPDEST SWAP1 POP SWAP2 SWAP1 POP JUMP JUMPDEST PUSH2 0x33DF DUP2 PUSH2 0x33C5 JUMP JUMPDEST DUP3 MSTORE POP POP JUMP JUMPDEST PUSH0 PUSH1 0x20 DUP3 ADD SWAP1 POP PUSH2 0x33F8 PUSH0 DUP4 ADD DUP5 PUSH2 0x33D6 JUMP JUMPDEST SWAP3 SWAP2 POP POP JUMP JUMPDEST PUSH0 PUSH2 0x3408 DUP3 PUSH2 0x336B JUMP JUMPDEST SWAP1 POP SWAP2 SWAP1 POP JUMP JUMPDEST PUSH2 0x3418 DUP2 PUSH2 0x33FE JUMP JUMPDEST DUP3 MSTORE POP POP JUMP JUMPDEST PUSH0 PUSH2 0x180 DUP3 ADD SWAP1 POP PUSH2 0x3432 PUSH0 DUP4 ADD DUP16 PUSH2 0x340F JUMP JUMPDEST PUSH2 0x343F PUSH1 0x20 DUP4 ADD DUP15 PUSH2 0x3221 JUMP JUMPDEST PUSH2 0x344C PUSH1 0x40 DUP4 ADD DUP14 PUSH2 0x3221 JUMP JUMPDEST PUSH2 0x3459 PUSH1 0x60 DUP4 ADD DUP13 PUSH2 0x3221 JUMP JUMPDEST PUSH2 0x3466 PUSH1 0x80 DUP4 ADD DUP12 PUSH2 0x3221 JUMP JUMPDEST PUSH2 0x3473 PUSH1 0xA0 DUP4 ADD DUP11 PUSH2 0x3221 JUMP JUMPDEST PUSH2 0x3480 PUSH1 0xC0 DUP4 ADD DUP10 PUSH2 0x3221 JUMP JUMPDEST PUSH2 0x348D PUSH1 0xE0 DUP4 ADD DUP9 PUSH2 0x3221 JUMP JUMPDEST PUSH2 0x349B PUSH2 0x100 DUP4 ADD DUP8 PUSH2 0x3221 JUMP JUMPDEST PUSH2 0x34A9 PUSH2 0x120 DUP4 ADD DUP7 PUSH2 0x3221 JUMP JUMPDEST PUSH2 0x34B7 PUSH2 0x140 DUP4 ADD DUP6 PUSH2 0x3221 JUMP JUMPDEST PUSH2 0x34C5 PUSH2 0x160 DUP4 ADD DUP5 PUSH2 0x3221 JUMP JUMPDEST SWAP14 SWAP13 POP POP POP POP POP POP POP POP POP POP POP POP POP JUMP JUMPDEST PUSH0 PUSH2 0x120 DUP3 ADD SWAP1 POP PUSH2 0x34EA PUSH0 DUP4 ADD DUP13 PUSH2 0x3221 JUMP JUMPDEST PUSH2 0x34F7 PUSH1 0x20 DUP4 ADD DUP12 PUSH2 0x3221 JUMP JUMPDEST PUSH2 0x3504 PUSH1 0x40 DUP4 ADD DUP11 PUSH2 0x3221 JUMP JUMPDEST PUSH2 0x3511 PUSH1 0x60 DUP4 ADD DUP10 PUSH2 0x3221 JUMP JUMPDEST PUSH2 0x351E PUSH1 0x80 DUP4 ADD DUP9 PUSH2 0x3221 JUMP JUMPDEST PUSH2 0x352B PUSH1 0xA0 DUP4 ADD DUP8 PUSH2 0x3221 JUMP JUMPDEST PUSH2 0x3538 PUSH1 0xC0 DUP4 ADD DUP7 PUSH2 0x3221 JUMP JUMPDEST PUSH2 0x3545 PUSH1 0xE0 DUP4 ADD DUP6 PUSH2 0x3221 JUMP JUMPDEST PUSH2 0x3553 PUSH2 0x100 DUP4 ADD DUP5 PUSH2 0x3221 JUMP JUMPDEST SWAP11 SWAP10 POP POP POP POP POP POP POP POP POP POP JUMP JUMPDEST PUSH0 PUSH0 PUSH0 PUSH1 0x60 DUP5 DUP7 SUB SLT ISZERO PUSH2 0x3578 JUMPI PUSH2 0x3577 PUSH2 0x3249 JUMP JUMPDEST JUMPDEST PUSH0 PUSH2 0x3585 DUP7 DUP3 DUP8 ADD PUSH2 0x3263 JUMP JUMPDEST SWAP4 POP POP PUSH1 0x20 PUSH2 0x3596 DUP7 DUP3 DUP8 ADD PUSH2 0x3263 JUMP JUMPDEST SWAP3 POP POP PUSH1 0x40 PUSH2 0x35A7 DUP7 DUP3 DUP8 ADD PUSH2 0x3263 JUMP JUMPDEST SWAP2 POP POP SWAP3 POP SWAP3 POP SWAP3 JUMP JUMPDEST PUSH0 PUSH1 0xA0 DUP3 ADD SWAP1 POP PUSH2 0x35C4 PUSH0 DUP4 ADD DUP9 PUSH2 0x3221 JUMP JUMPDEST PUSH2 0x35D1 PUSH1 0x20 DUP4 ADD DUP8 PUSH2 0x3221 JUMP JUMPDEST PUSH2 0x35DE PUSH1 0x40 DUP4 ADD DUP7 PUSH2 0x3221 JUMP JUMPDEST PUSH2 0x35EB PUSH1 0x60 DUP4 ADD DUP6 PUSH2 0x3221 JUMP JUMPDEST PUSH2 0x35F8 PUSH1 0x80 DUP4 ADD DUP5 PUSH2 0x3221 JUMP JUMPDEST SWAP7 SWAP6 POP POP POP POP POP POP JUMP JUMPDEST PUSH0 PUSH1 0x20 DUP3 ADD SWAP1 POP PUSH2 0x3615 PUSH0 DUP4 ADD DUP5 PUSH2 0x340F JUMP JUMPDEST SWAP3 SWAP2 POP POP JUMP JUMPDEST PUSH2 0x3624 DUP2 PUSH2 0x33FE JUMP JUMPDEST DUP2 EQ PUSH2 0x362E JUMPI PUSH0 PUSH0 REVERT JUMPDEST POP JUMP JUMPDEST PUSH0 DUP2 CALLDATALOAD SWAP1 POP PUSH2 0x363F DUP2 PUSH2 0x361B JUMP JUMPDEST SWAP3 SWAP2 POP POP JUMP JUMPDEST PUSH0 PUSH1 0x20 DUP3 DUP5 SUB SLT ISZERO PUSH2 0x365A JUMPI PUSH2 0x3659 PUSH2 0x3249 JUMP JUMPDEST JUMPDEST PUSH0 PUSH2 0x3667 DUP5 DUP3 DUP6 ADD PUSH2 0x3631 JUMP JUMPDEST SWAP2 POP POP SWAP3 SWAP2 POP POP JUMP JUMPDEST PUSH0 PUSH1 0xE0 DUP3 ADD SWAP1 POP PUSH2 0x3683 PUSH0 DUP4 ADD DUP11 PUSH2 0x3221 JUMP JUMPDEST PUSH2 0x3690 PUSH1 0x20 DUP4 ADD DUP10 PUSH2 0x3221 JUMP JUMPDEST PUSH2 0x369D PUSH1 0x40 DUP4 ADD DUP9 PUSH2 0x3221 JUMP JUMPDEST PUSH2 0x36AA PUSH1 0x60 DUP4 ADD DUP8 PUSH2 0x3221 JUMP JUMPDEST PUSH2 0x36B7 PUSH1 0x80 DUP4 ADD DUP7 PUSH2 0x3221 JUMP JUMPDEST PUSH2 0x36C4 PUSH1 0xA0 DUP4 ADD DUP6 PUSH2 0x3221 JUMP JUMPDEST PUSH2 0x36D1 PUSH1 0xC0 DUP4 ADD DUP5 PUSH2 0x3221 JUMP JUMPDEST SWAP9 SWAP8 POP POP POP POP POP POP POP POP JUMP JUMPDEST PUSH0 DUP3 DUP3 MSTORE PUSH1 0x20 DUP3 ADD SWAP1 POP SWAP3 SWAP2 POP POP JUMP JUMPDEST PUSH32 0x4E6F7420796F7572206163636F756E7400000000000000000000000000000000 PUSH0 DUP3 ADD MSTORE POP JUMP JUMPDEST PUSH0 PUSH2 0x3721 PUSH1 0x10 DUP4 PUSH2 0x36DD JUMP JUMPDEST SWAP2 POP PUSH2 0x372C DUP3 PUSH2 0x36ED JUMP JUMPDEST PUSH1 0x20 DUP3 ADD SWAP1 POP SWAP2 SWAP1 POP JUMP JUMPDEST PUSH0 PUSH1 0x20 DUP3 ADD SWAP1 POP DUP2 DUP2 SUB PUSH0 DUP4 ADD MSTORE PUSH2 0x374E DUP2 PUSH2 0x3715 JUMP JUMPDEST SWAP1 POP SWAP2 SWAP1 POP JUMP JUMPDEST PUSH32 0x4174206D6178206C6576656C0000000000000000000000000000000000000000 PUSH0 DUP3 ADD MSTORE POP JUMP JUMPDEST PUSH0 PUSH2 0x3789 PUSH1 0xC DUP4 PUSH2 0x36DD JUMP JUMPDEST SWAP2 POP PUSH2 0x3794 DUP3 PUSH2 0x3755 JUMP JUMPDEST PUSH1 0x20 DUP3 ADD SWAP1 POP SWAP2 SWAP1 POP JUMP JUMPDEST PUSH0 PUSH1 0x20 DUP3 ADD SWAP1 POP DUP2 DUP2 SUB PUSH0 DUP4 ADD MSTORE PUSH2 0x37B6 DUP2 PUSH2 0x377D JUMP JUMPDEST SWAP1 POP SWAP2 SWAP1 POP JUMP JUMPDEST PUSH32 0x4E487B7100000000000000000000000000000000000000000000000000000000 PUSH0 MSTORE PUSH1 0x32 PUSH1 0x4 MSTORE PUSH1 0x24 PUSH0 REVERT JUMPDEST PUSH0 PUSH1 0x60 DUP3 ADD SWAP1 POP PUSH2 0x37FD PUSH0 DUP4 ADD DUP7 PUSH2 0x340F JUMP JUMPDEST PUSH2 0x380A PUSH1 0x20 DUP4 ADD DUP6 PUSH2 0x340F JUMP JUMPDEST PUSH2 0x3817 PUSH1 0x40 DUP4 ADD DUP5 PUSH2 0x3221 JUMP JUMPDEST SWAP5 SWAP4 POP POP POP POP JUMP JUMPDEST PUSH0 DUP2 ISZERO ISZERO SWAP1 POP SWAP2 SWAP1 POP JUMP JUMPDEST PUSH2 0x3833 DUP2 PUSH2 0x381F JUMP JUMPDEST DUP2 EQ PUSH2 0x383D JUMPI PUSH0 PUSH0 REVERT JUMPDEST POP JUMP JUMPDEST PUSH0 DUP2 MLOAD SWAP1 POP PUSH2 0x384E DUP2 PUSH2 0x382A JUMP JUMPDEST SWAP3 SWAP2 POP POP JUMP JUMPDEST PUSH0 PUSH1 0x20 DUP3 DUP5 SUB SLT ISZERO PUSH2 0x3869 JUMPI PUSH2 0x3868 PUSH2 0x3249 JUMP JUMPDEST JUMPDEST PUSH0 PUSH2 0x3876 DUP5 DUP3 DUP6 ADD PUSH2 0x3840 JUMP JUMPDEST SWAP2 POP POP SWAP3 SWAP2 POP POP JUMP JUMPDEST PUSH32 0x4E487B7100000000000000000000000000000000000000000000000000000000 PUSH0 MSTORE PUSH1 0x11 PUSH1 0x4 MSTORE PUSH1 0x24 PUSH0 REVERT JUMPDEST PUSH0 PUSH2 0x38B6 DUP3 PUSH2 0x3218 JUMP JUMPDEST SWAP2 POP PUSH2 0x38C1 DUP4 PUSH2 0x3218 JUMP JUMPDEST SWAP3 POP DUP3 DUP3 ADD SWAP1 POP DUP1 DUP3 GT ISZERO PUSH2 0x38D9 JUMPI PUSH2 0x38D8 PUSH2 0x387F JUMP JUMPDEST JUMPDEST SWAP3 SWAP2 POP POP JUMP JUMPDEST PUSH32 0x506F6F6C00000000000000000000000000000000000000000000000000000000 PUSH0 DUP3 ADD MSTORE POP JUMP JUMPDEST PUSH0 PUSH2 0x3913 PUSH1 0x4 DUP4 PUSH2 0x36DD JUMP JUMPDEST SWAP2 POP PUSH2 0x391E DUP3 PUSH2 0x38DF JUMP JUMPDEST PUSH1 0x20 DUP3 ADD SWAP1 POP SWAP2 SWAP1 POP JUMP JUMPDEST PUSH0 PUSH1 0x40 DUP3 ADD SWAP1 POP PUSH2 0x393C PUSH0 DUP4 ADD DUP5 PUSH2 0x3221 JUMP JUMPDEST DUP2 DUP2 SUB PUSH1 0x20 DUP4 ADD MSTORE PUSH2 0x394D DUP2 PUSH2 0x3907 JUMP JUMPDEST SWAP1 POP SWAP3 SWAP2 POP POP JUMP JUMPDEST PUSH0 PUSH2 0x395F DUP3 PUSH2 0x3218 JUMP JUMPDEST SWAP2 POP PUSH2 0x396A DUP4 PUSH2 0x3218 JUMP JUMPDEST SWAP3 POP DUP3 DUP3 SUB SWAP1 POP DUP2 DUP2 GT ISZERO PUSH2 0x3982 JUMPI PUSH2 0x3981 PUSH2 0x387F JUMP JUMPDEST JUMPDEST SWAP3 SWAP2 POP POP JUMP JUMPDEST PUSH32 0x4E487B7100000000000000000000000000000000000000000000000000000000 PUSH0 MSTORE PUSH1 0x12 PUSH1 0x4 MSTORE PUSH1 0x24 PUSH0 REVERT JUMPDEST PUSH0 PUSH2 0x39BF DUP3 PUSH2 0x3218 JUMP JUMPDEST SWAP2 POP PUSH2 0x39CA DUP4 PUSH2 0x3218 JUMP JUMPDEST SWAP3 POP DUP3 PUSH2 0x39DA JUMPI PUSH2 0x39D9 PUSH2 0x3988 JUMP JUMPDEST JUMPDEST DUP3 DUP3 DIV SWAP1 POP SWAP3 SWAP2 POP POP JUMP JUMPDEST PUSH32 0x416C7265616479206174206D6178206C6576656C000000000000000000000000 PUSH0 DUP3 ADD MSTORE POP JUMP JUMPDEST PUSH0 PUSH2 0x3A19 PUSH1 0x14 DUP4 PUSH2 0x36DD JUMP JUMPDEST SWAP2 POP PUSH2 0x3A24 DUP3 PUSH2 0x39E5 JUMP JUMPDEST PUSH1 0x20 DUP3 ADD SWAP1 POP SWAP2 SWAP1 POP JUMP JUMPDEST PUSH0 PUSH1 0x20 DUP3 ADD SWAP1 POP DUP2 DUP2 SUB PUSH0 DUP4 ADD MSTORE PUSH2 0x3A46 DUP2 PUSH2 0x3A0D JUMP JUMPDEST SWAP1 POP SWAP2 SWAP1 POP JUMP JUMPDEST PUSH0 PUSH2 0x3A57 DUP3 PUSH2 0x3218 JUMP JUMPDEST SWAP2 POP PUSH2 0x3A62 DUP4 PUSH2 0x3218 JUMP JUMPDEST SWAP3 POP DUP3 DUP3 MUL PUSH2 0x3A70 DUP2 PUSH2 0x3218 JUMP JUMPDEST SWAP2 POP DUP3 DUP3 DIV DUP5 EQ DUP4 ISZERO OR PUSH2 0x3A87 JUMPI PUSH2 0x3A86 PUSH2 0x387F JUMP JUMPDEST JUMPDEST POP SWAP3 SWAP2 POP POP JUMP JUMPDEST PUSH32 0x536C6F7400000000000000000000000000000000000000000000000000000000 PUSH0 DUP3 ADD MSTORE POP JUMP JUMPDEST PUSH0 PUSH2 0x3AC2 PUSH1 0x4 DUP4 PUSH2 0x36DD JUMP JUMPDEST SWAP2 POP PUSH2 0x3ACD DUP3 PUSH2 0x3A8E JUMP JUMPDEST PUSH1 0x20 DUP3 ADD SWAP1 POP SWAP2 SWAP1 POP JUMP JUMPDEST PUSH0 PUSH1 0x40 DUP3 ADD SWAP1 POP PUSH2 0x3AEB PUSH0 DUP4 ADD DUP5 PUSH2 0x3221 JUMP JUMPDEST DUP2 DUP2 SUB PUSH1 0x20 DUP4 ADD MSTORE PUSH2 0x3AFC DUP2 PUSH2 0x3AB6 JUMP JUMPDEST SWAP1 POP SWAP3 SWAP2 POP POP JUMP JUMPDEST PUSH32 0x55736572206E6F7420666F756E64000000000000000000000000000000000000 PUSH0 DUP3 ADD MSTORE POP JUMP JUMPDEST PUSH0 PUSH2 0x3B38 PUSH1 0xE DUP4 PUSH2 0x36DD JUMP JUMPDEST SWAP2 POP PUSH2 0x3B43 DUP3 PUSH2 0x3B04 JUMP JUMPDEST PUSH1 0x20 DUP3 ADD SWAP1 POP SWAP2 SWAP1 POP JUMP JUMPDEST PUSH0 PUSH1 0x20 DUP3 ADD SWAP1 POP DUP2 DUP2 SUB PUSH0 DUP4 ADD MSTORE PUSH2 0x3B65 DUP2 PUSH2 0x3B2C JUMP JUMPDEST SWAP1 POP SWAP2 SWAP1 POP JUMP JUMPDEST PUSH0 PUSH1 0x40 DUP3 ADD SWAP1 POP PUSH2 0x3B7F PUSH0 DUP4 ADD DUP6 PUSH2 0x340F JUMP JUMPDEST PUSH2 0x3B8C PUSH1 0x20 DUP4 ADD DUP5 PUSH2 0x3221 JUMP JUMPDEST SWAP4 SWAP3 POP POP POP JUMP JUMPDEST PUSH32 0x55534454207472616E73666572206661696C6564000000000000000000000000 PUSH0 DUP3 ADD MSTORE POP JUMP JUMPDEST PUSH0 PUSH2 0x3BC7 PUSH1 0x14 DUP4 PUSH2 0x36DD JUMP JUMPDEST SWAP2 POP PUSH2 0x3BD2 DUP3 PUSH2 0x3B93 JUMP JUMPDEST PUSH1 0x20 DUP3 ADD SWAP1 POP SWAP2 SWAP1 POP JUMP JUMPDEST PUSH0 PUSH1 0x20 DUP3 ADD SWAP1 POP DUP2 DUP2 SUB PUSH0 DUP4 ADD MSTORE PUSH2 0x3BF4 DUP2 PUSH2 0x3BBB JUMP JUMPDEST SWAP1 POP SWAP2 SWAP1 POP JUMP JUMPDEST PUSH32 0x416C726561647920726567697374657265640000000000000000000000000000 PUSH0 DUP3 ADD MSTORE POP JUMP JUMPDEST PUSH0 PUSH2 0x3C2F PUSH1 0x12 DUP4 PUSH2 0x36DD JUMP JUMPDEST SWAP2 POP PUSH2 0x3C3A DUP3 PUSH2 0x3BFB JUMP JUMPDEST PUSH1 0x20 DUP3 ADD SWAP1 POP SWAP2 SWAP1 POP JUMP JUMPDEST PUSH0 PUSH1 0x20 DUP3 ADD SWAP1 POP DUP2 DUP2 SUB PUSH0 DUP4 ADD MSTORE PUSH2 0x3C5C DUP2 PUSH2 0x3C23 JUMP JUMPDEST SWAP1 POP SWAP2 SWAP1 POP JUMP JUMPDEST PUSH32 0x496E76616C69642073706F6E736F720000000000000000000000000000000000 PUSH0 DUP3 ADD MSTORE POP JUMP JUMPDEST PUSH0 PUSH2 0x3C97 PUSH1 0xF DUP4 PUSH2 0x36DD JUMP JUMPDEST SWAP2 POP PUSH2 0x3CA2 DUP3 PUSH2 0x3C63 JUMP JUMPDEST PUSH1 0x20 DUP3 ADD SWAP1 POP SWAP2 SWAP1 POP JUMP JUMPDEST PUSH0 PUSH1 0x20 DUP3 ADD SWAP1 POP DUP2 DUP2 SUB PUSH0 DUP4 ADD MSTORE PUSH2 0x3CC4 DUP2 PUSH2 0x3C8B JUMP JUMPDEST SWAP1 POP SWAP2 SWAP1 POP JUMP JUMPDEST PUSH32 0x496E76616C696400000000000000000000000000000000000000000000000000 PUSH0 DUP3 ADD MSTORE POP JUMP JUMPDEST PUSH0 PUSH2 0x3CFF PUSH1 0x7 DUP4 PUSH2 0x36DD JUMP JUMPDEST SWAP2 POP PUSH2 0x3D0A DUP3 PUSH2 0x3CCB JUMP JUMPDEST PUSH1 0x20 DUP3 ADD SWAP1 POP SWAP2 SWAP1 POP JUMP JUMPDEST PUSH0 PUSH1 0x20 DUP3 ADD SWAP1 POP DUP2 DUP2 SUB PUSH0 DUP4 ADD MSTORE PUSH2 0x3D2C DUP2 PUSH2 0x3CF3 JUMP JUMPDEST SWAP1 POP SWAP2 SWAP1 POP JUMP JUMPDEST PUSH32 0x496E636F727265637420616D6F756E7400000000000000000000000000000000 PUSH0 DUP3 ADD MSTORE POP JUMP JUMPDEST PUSH0 PUSH2 0x3D67 PUSH1 0x10 DUP4 PUSH2 0x36DD JUMP JUMPDEST SWAP2 POP PUSH2 0x3D72 DUP3 PUSH2 0x3D33 JUMP JUMPDEST PUSH1 0x20 DUP3 ADD SWAP1 POP SWAP2 SWAP1 POP JUMP JUMPDEST PUSH0 PUSH1 0x20 DUP3 ADD SWAP1 POP DUP2 DUP2 SUB PUSH0 DUP4 ADD MSTORE PUSH2 0x3D94 DUP2 PUSH2 0x3D5B JUMP JUMPDEST SWAP1 POP SWAP2 SWAP1 POP JUMP JUMPDEST PUSH32 0x666565206164647273206E6F7420736574000000000000000000000000000000 PUSH0 DUP3 ADD MSTORE POP JUMP JUMPDEST PUSH0 PUSH2 0x3DCF PUSH1 0x11 DUP4 PUSH2 0x36DD JUMP JUMPDEST SWAP2 POP PUSH2 0x3DDA DUP3 PUSH2 0x3D9B JUMP JUMPDEST PUSH1 0x20 DUP3 ADD SWAP1 POP SWAP2 SWAP1 POP JUMP JUMPDEST PUSH0 PUSH1 0x20 DUP3 ADD SWAP1 POP DUP2 DUP2 SUB PUSH0 DUP4 ADD MSTORE PUSH2 0x3DFC DUP2 PUSH2 0x3DC3 JUMP JUMPDEST SWAP1 POP SWAP2 SWAP1 POP JUMP JUMPDEST PUSH0 DUP2 SWAP1 POP SWAP2 SWAP1 POP JUMP JUMPDEST PUSH0 PUSH2 0x3E26 PUSH2 0x3E21 PUSH2 0x3E1C DUP5 PUSH2 0x3E03 JUMP JUMPDEST PUSH2 0x338A JUMP JUMPDEST PUSH2 0x3218 JUMP JUMPDEST SWAP1 POP SWAP2 SWAP1 POP JUMP JUMPDEST PUSH2 0x3E36 DUP2 PUSH2 0x3E0C JUMP JUMPDEST DUP3 MSTORE POP POP JUMP JUMPDEST PUSH0 PUSH1 0x60 DUP3 ADD SWAP1 POP PUSH2 0x3E4F PUSH0 DUP4 ADD DUP7 PUSH2 0x3221 JUMP JUMPDEST PUSH2 0x3E5C PUSH1 0x20 DUP4 ADD DUP6 PUSH2 0x3221 JUMP JUMPDEST PUSH2 0x3E69 PUSH1 0x40 DUP4 ADD DUP5 PUSH2 0x3E2D JUMP JUMPDEST SWAP5 SWAP4 POP POP POP POP JUMP JUMPDEST PUSH0 PUSH2 0x3E7B DUP3 PUSH2 0x3218 JUMP JUMPDEST SWAP2 POP PUSH32 0xFFFFFFFFFFFFFFFFFFFFFFFFFFFFFFFFFFFFFFFFFFFFFFFFFFFFFFFFFFFFFFFF DUP3 SUB PUSH2 0x3EAD JUMPI PUSH2 0x3EAC PUSH2 0x387F JUMP JUMPDEST JUMPDEST PUSH1 0x1 DUP3 ADD SWAP1 POP SWAP2 SWAP1 POP JUMP JUMPDEST PUSH0 DUP2 SWAP1 POP SWAP2 SWAP1 POP JUMP JUMPDEST PUSH0 PUSH2 0x3EDB PUSH2 0x3ED6 PUSH2 0x3ED1 DUP5 PUSH2 0x3EB8 JUMP JUMPDEST PUSH2 0x338A JUMP JUMPDEST PUSH2 0x3218 JUMP JUMPDEST SWAP1 POP SWAP2 SWAP1 POP JUMP JUMPDEST PUSH2 0x3EEB DUP2 PUSH2 0x3EC1 JUMP JUMPDEST DUP3 MSTORE POP POP JUMP JUMPDEST PUSH0 PUSH1 0x60 DUP3 ADD SWAP1 POP PUSH2 0x3F04 PUSH0 DUP4 ADD DUP7 PUSH2 0x3221 JUMP JUMPDEST PUSH2 0x3F11 PUSH1 0x20 DUP4 ADD DUP6 PUSH2 0x3221 JUMP JUMPDEST PUSH2 0x3F1E PUSH1 0x40 DUP4 ADD DUP5 PUSH2 0x3EE2 JUMP JUMPDEST SWAP5 SWAP4 POP POP POP POP JUMP JUMPDEST PUSH0 DUP2 PUSH1 0x1 SHR SWAP1 POP SWAP2 SWAP1 POP JUMP JUMPDEST PUSH0 PUSH0 DUP3 SWAP2 POP DUP4 SWAP1 POP JUMPDEST PUSH1 0x1 DUP6 GT ISZERO PUSH2 0x3F7B JUMPI DUP1 DUP7 DIV DUP2 GT ISZERO PUSH2 0x3F57 JUMPI PUSH2 0x3F56 PUSH2 0x387F JUMP JUMPDEST JUMPDEST PUSH1 0x1 DUP6 AND ISZERO PUSH2 0x3F66 JUMPI DUP1 DUP3 MUL SWAP2 POP JUMPDEST DUP1 DUP2 MUL SWAP1 POP PUSH2 0x3F74 DUP6 PUSH2 0x3F26 JUMP JUMPDEST SWAP5 POP PUSH2 0x3F3B JUMP JUMPDEST SWAP5 POP SWAP5 SWAP3 POP POP POP JUMP JUMPDEST PUSH0 DUP3 PUSH2 0x3F93 JUMPI PUSH1 0x1 SWAP1 POP PUSH2 0x404E JUMP JUMPDEST DUP2 PUSH2 0x3FA0 JUMPI PUSH0 SWAP1 POP PUSH2 0x404E JUMP JUMPDEST DUP2 PUSH1 0x1 DUP2 EQ PUSH2 0x3FB6 JUMPI PUSH1 0x2 DUP2 EQ PUSH2 0x3FC0 JUMPI PUSH2 0x3FEF JUMP JUMPDEST PUSH1 0x1 SWAP2 POP POP PUSH2 0x404E JUMP JUMPDEST PUSH1 0xFF DUP5 GT ISZERO PUSH2 0x3FD2 JUMPI PUSH2 0x3FD1 PUSH2 0x387F JUMP JUMPDEST JUMPDEST DUP4 PUSH1 0x2 EXP SWAP2 POP DUP5 DUP3 GT ISZERO PUSH2 0x3FE9 JUMPI PUSH2 0x3FE8 PUSH2 0x387F JUMP JUMPDEST JUMPDEST POP PUSH2 0x404E JUMP JUMPDEST POP PUSH1 0x20 DUP4 LT PUSH2 0x133 DUP4 LT AND PUSH1 0x4E DUP5 LT PUSH1 0xB DUP5 LT AND OR ISZERO PUSH2 0x4024 JUMPI DUP3 DUP3 EXP SWAP1 POP DUP4 DUP2 GT ISZERO PUSH2 0x401F JUMPI PUSH2 0x401E PUSH2 0x387F JUMP JUMPDEST JUMPDEST PUSH2 0x404E JUMP JUMPDEST PUSH2 0x4031 DUP5 DUP5 DUP5 PUSH1 0x1 PUSH2 0x3F32 JUMP JUMPDEST SWAP3 POP SWAP1 POP DUP2 DUP5 DIV DUP2 GT ISZERO PUSH2 0x4048 JUMPI PUSH2 0x4047 PUSH2 0x387F JUMP JUMPDEST JUMPDEST DUP2 DUP2 MUL SWAP1 POP JUMPDEST SWAP4 SWAP3 POP POP POP JUMP JUMPDEST PUSH0 PUSH2 0x405F DUP3 PUSH2 0x3218 JUMP JUMPDEST SWAP2 POP PUSH2 0x406A DUP4 PUSH2 0x3218 JUMP JUMPDEST SWAP3 POP PUSH2 0x4097 PUSH32 0xFFFFFFFFFFFFFFFFFFFFFFFFFFFFFFFFFFFFFFFFFFFFFFFFFFFFFFFFFFFFFFFF DUP5 DUP5 PUSH2 0x3F84 JUMP JUMPDEST SWAP1 POP SWAP3 SWAP2 POP POP JUMP JUMPDEST PUSH0 DUP2 SWAP1 POP SWAP2 SWAP1 POP JUMP JUMPDEST PUSH0 PUSH2 0x40C2 PUSH2 0x40BD PUSH2 0x40B8 DUP5 PUSH2 0x409F JUMP JUMPDEST PUSH2 0x338A JUMP JUMPDEST PUSH2 0x3218 JUMP JUMPDEST SWAP1 POP SWAP2 SWAP1 POP JUMP JUMPDEST PUSH2 0x40D2 DUP2 PUSH2 0x40A8 JUMP JUMPDEST DUP3 MSTORE POP POP JUMP JUMPDEST PUSH0 PUSH1 0x60 DUP3 ADD SWAP1 POP PUSH2 0x40EB PUSH0 DUP4 ADD DUP7 PUSH2 0x3221 JUMP JUMPDEST PUSH2 0x40F8 PUSH1 0x20 DUP4 ADD DUP6 PUSH2 0x3221 JUMP JUMPDEST PUSH2 0x4105 PUSH1 0x40 DUP4 ADD DUP5 PUSH2 0x40C9 JUMP JUMPDEST SWAP5 SWAP4 POP POP POP POP JUMP JUMPDEST PUSH0 DUP2 SWAP1 POP SWAP2 SWAP1 POP JUMP JUMPDEST PUSH0 PUSH2 0x4130 PUSH2 0x412B PUSH2 0x4126 DUP5 PUSH2 0x410D JUMP JUMPDEST PUSH2 0x338A JUMP JUMPDEST PUSH2 0x3218 JUMP JUMPDEST SWAP1 POP SWAP2 SWAP1 POP JUMP JUMPDEST PUSH2 0x4140 DUP2 PUSH2 0x4116 JUMP JUMPDEST DUP3 MSTORE POP POP JUMP JUMPDEST PUSH0 PUSH1 0x60 DUP3 ADD SWAP1 POP PUSH2 0x4159 PUSH0 DUP4 ADD DUP7 PUSH2 0x3221 JUMP JUMPDEST PUSH2 0x4166 PUSH1 0x20 DUP4 ADD DUP6 PUSH2 0x3221 JUMP JUMPDEST PUSH2 0x4173 PUSH1 0x40 DUP4 ADD DUP5 PUSH2 0x4137 JUMP JUMPDEST SWAP5 SWAP4 POP POP POP POP JUMP INVALID LOG2 PUSH5 0x6970667358 0x22 SLT KECCAK256 PUSH17 0x9BF10E6C8E0FC570192B8F4E102C0E8523 DUP15 0xC2 DUP11 EXTCODECOPY SWAP9 SWAP7 SIGNEXTEND PUSH28 0x6208E58B273364736F6C634300081E00330000000000000000000000 "
		},
		"gasEstimates": {
			"creation": {
				"codeDepositCost": "3363400",
				"executionCost": "infinite",
				"totalCost": "infinite"
			},
			"external": {
				"ACC_PRECISION()": "371",
				"PERCENTS_DIVIDER()": "394",
				"ROI_CAP_DIVIDER()": "436",
				"ROI_CAP_MULTIPLIER()": "415",
				"TIME_STEP()": "459",
				"addressToId(address)": "2913",
				"claimCommunity(uint256)": "infinite",
				"communityAccPerUser()": "2515",
				"communityDebt(uint256)": "infinite",
				"creatorWallet()": "2620",
				"defaultRefId()": "2513",
				"directReferrals(uint256,uint256)": "infinite",
				"incomeHistory(uint256,uint256)": "infinite",
				"lastLotteryRun()": "2472",
				"lastLotteryWinner()": "2553",
				"lotteryInterval()": "2514",
				"lotteryPool()": "2515",
				"matrixDirect(uint256)": "infinite",
				"owner()": "2619",
				"packages(uint256)": "infinite",
				"pendingCommunity(uint256)": "infinite",
				"poolPackages(uint256)": "infinite",
				"poolUsers(uint256,uint256)": "infinite",
				"register(uint256)": "infinite",
				"registeredUserIds(uint256)": "infinite",
				"systemMaintance()": "2574",
				"teamDevelopment()": "2640",
				"teams(uint256,uint256,uint256)": "infinite",
				"totalUsers()": "2492",
				"upgrade(uint256)": "infinite",
				"upgradePool(uint32)": "infinite",
				"usdt()": "infinite",
				"userChildren(uint256,uint256,uint256)": "infinite",
				"userIdPerPool(uint256,uint256,uint256)": "infinite",
				"userIncomes(uint256)": "infinite",
				"userPooldtl(uint256,uint256)": "infinite",
				"users(uint256)": "infinite"
			},
			"internal": {
				"_accrueCommunityBonus(uint256)": "infinite",
				"_applyGlobalCapping(uint256,uint256)": "infinite",
				"_distributeLevelBoosterIncome(uint256,uint256,uint256,uint256,uint256)": "infinite",
				"_distributeLevelIncome(uint256,uint256,uint256,uint256,uint256)": "infinite",
				"_distributeMatrixIncome(uint256,uint256,uint256,uint256)": "infinite",
				"_distributePoolIncome(uint256,uint256,uint256,uint256)": "infinite",
				"_distributeSponsorIncome(uint256,uint256,uint256,uint256)": "infinite",
				"_findEligibleSponsor(uint256,uint256)": "infinite",
				"_payLevelBooster(uint256,uint256,uint256,uint256)": "infinite",
				"_payPoolIncome(uint256,uint256,uint256,uint256)": "infinite",
				"_placeInMatrix(uint256,uint256)": "infinite",
				"_placeInPool(uint256,uint32,uint256)": "infinite",
				"_sendToCreator(uint256)": "infinite"
			}
		},
		"methodIdentifiers": {
			"ACC_PRECISION()": "32fcd966",
			"PERCENTS_DIVIDER()": "01c234a8",
			"ROI_CAP_DIVIDER()": "58c7d352",
			"ROI_CAP_MULTIPLIER()": "375b43b4",
			"TIME_STEP()": "32bc298c",
			"addressToId(address)": "cb0e0d7d",
			"claimCommunity(uint256)": "d54d6ddb",
			"communityAccPerUser()": "78f6ad6d",
			"communityDebt(uint256)": "18ab487f",
			"creatorWallet()": "7cdc65f2",
			"defaultRefId()": "ec597e6f",
			"directReferrals(uint256,uint256)": "5ec64a44",
			"incomeHistory(uint256,uint256)": "70c8d770",
			"lastLotteryRun()": "01be02b2",
			"lastLotteryWinner()": "81a0b816",
			"lotteryInterval()": "52a8c4c4",
			"lotteryPool()": "2c831633",
			"matrixDirect(uint256)": "88afbe3e",
			"owner()": "8da5cb5b",
			"packages(uint256)": "c216212a",
			"pendingCommunity(uint256)": "24513088",
			"poolPackages(uint256)": "ae4708dc",
			"poolUsers(uint256,uint256)": "0f2b7cc9",
			"register(uint256)": "f207564e",
			"registeredUserIds(uint256)": "39ab3603",
			"systemMaintance()": "e9e34a16",
			"teamDevelopment()": "f5d74d93",
			"teams(uint256,uint256,uint256)": "5aabf7f1",
			"totalUsers()": "bff1f9e1",
			"upgrade(uint256)": "45977d03",
			"upgradePool(uint32)": "11f65d39",
			"usdt()": "2f48ab7d",
			"userChildren(uint256,uint256,uint256)": "8f030ece",
			"userIdPerPool(uint256,uint256,uint256)": "8d58644c",
			"userIncomes(uint256)": "46b9dece",
			"userPooldtl(uint256,uint256)": "ce79c2c3",
			"users(uint256)": "365b98b2"
		}
	},
	"abi": [
		{
			"inputs": [
				{
					"internalType": "address",
					"name": "_usdt",
					"type": "address"
				},
				{
					"internalType": "address",
					"name": "_creatorWallet",
					"type": "address"
				},
				{
					"internalType": "address",
					"name": "_systemMaintance",
					"type": "address"
				},
				{
					"internalType": "address",
					"name": "_teamDevelopment",
					"type": "address"
				}
			],
			"stateMutability": "nonpayable",
			"type": "constructor"
		},
		{
			"anonymous": false,
			"inputs": [
				{
					"indexed": false,
					"internalType": "uint256",
					"name": "amount",
					"type": "uint256"
				},
				{
					"indexed": false,
					"internalType": "uint256",
					"name": "usersCount",
					"type": "uint256"
				},
				{
					"indexed": false,
					"internalType": "uint256",
					"name": "perUser",
					"type": "uint256"
				}
			],
			"name": "CommunityBonusDistributed",
			"type": "event"
		},
		{
			"anonymous": false,
			"inputs": [
				{
					"indexed": true,
					"internalType": "address",
					"name": "to",
					"type": "address"
				},
				{
					"indexed": true,
					"internalType": "address",
					"name": "from",
					"type": "address"
				},
				{
					"indexed": false,
					"internalType": "uint256",
					"name": "amount",
					"type": "uint256"
				},
				{
					"indexed": false,
					"internalType": "uint256",
					"name": "packageLevel",
					"type": "uint256"
				},
				{
					"indexed": false,
					"internalType": "uint256",
					"name": "incomeType",
					"type": "uint256"
				}
			],
			"name": "IncomeDistributed",
			"type": "event"
		},
		{
			"anonymous": false,
			"inputs": [
				{
					"indexed": true,
					"internalType": "address",
					"name": "winner",
					"type": "address"
				},
				{
					"indexed": true,
					"internalType": "uint256",
					"name": "fromUserId",
					"type": "uint256"
				},
				{
					"indexed": false,
					"internalType": "uint256",
					"name": "amount",
					"type": "uint256"
				},
				{
					"indexed": false,
					"internalType": "uint256",
					"name": "timestamp",
					"type": "uint256"
				}
			],
			"name": "LotteryReward",
			"type": "event"
		},
		{
			"anonymous": false,
			"inputs": [
				{
					"indexed": true,
					"internalType": "address",
					"name": "user",
					"type": "address"
				},
				{
					"indexed": true,
					"internalType": "address",
					"name": "sponsor",
					"type": "address"
				},
				{
					"indexed": true,
					"internalType": "uint256",
					"name": "userId",
					"type": "uint256"
				},
				{
					"indexed": false,
					"internalType": "uint256",
					"name": "uplineId",
					"type": "uint256"
				}
			],
			"name": "Registration",
			"type": "event"
		},
		{
			"anonymous": false,
			"inputs": [
				{
					"indexed": true,
					"internalType": "address",
					"name": "to",
					"type": "address"
				},
				{
					"indexed": false,
					"internalType": "uint256",
					"name": "amount",
					"type": "uint256"
				},
				{
					"indexed": false,
					"internalType": "string",
					"name": "level",
					"type": "string"
				}
			],
			"name": "RewardSent",
			"type": "event"
		},
		{
			"anonymous": false,
			"inputs": [
				{
					"indexed": true,
					"internalType": "address",
					"name": "user",
					"type": "address"
				},
				{
					"indexed": true,
					"internalType": "uint256",
					"name": "userId",
					"type": "uint256"
				},
				{
					"indexed": false,
					"internalType": "uint256",
					"name": "packageLevel",
					"type": "uint256"
				},
				{
					"indexed": false,
					"internalType": "string",
					"name": "depositType",
					"type": "string"
				}
			],
			"name": "Upgrade",
			"type": "event"
		},
		{
			"anonymous": false,
			"inputs": [
				{
					"indexed": true,
					"internalType": "uint8",
					"name": "matrixId",
					"type": "uint8"
				},
				{
					"indexed": true,
					"internalType": "uint32",
					"name": "userId",
					"type": "uint32"
				},
				{
					"indexed": true,
					"internalType": "address",
					"name": "user",
					"type": "address"
				},
				{
					"indexed": false,
					"internalType": "uint32",
					"name": "parentId",
					"type": "uint32"
				},
				{
					"indexed": false,
					"internalType": "address",
					"name": "parentAddr",
					"type": "address"
				},
				{
					"indexed": false,
					"internalType": "uint8",
					"name": "position",
					"type": "uint8"
				}
			],
			"name": "UserJoined",
			"type": "event"
		},
		{
			"inputs": [],
			"name": "ACC_PRECISION",
			"outputs": [
				{
					"internalType": "uint256",
					"name": "",
					"type": "uint256"
				}
			],
			"stateMutability": "view",
			"type": "function"
		},
		{
			"inputs": [],
			"name": "PERCENTS_DIVIDER",
			"outputs": [
				{
					"internalType": "uint256",
					"name": "",
					"type": "uint256"
				}
			],
			"stateMutability": "view",
			"type": "function"
		},
		{
			"inputs": [],
			"name": "ROI_CAP_DIVIDER",
			"outputs": [
				{
					"internalType": "uint256",
					"name": "",
					"type": "uint256"
				}
			],
			"stateMutability": "view",
			"type": "function"
		},
		{
			"inputs": [],
			"name": "ROI_CAP_MULTIPLIER",
			"outputs": [
				{
					"internalType": "uint256",
					"name": "",
					"type": "uint256"
				}
			],
			"stateMutability": "view",
			"type": "function"
		},
		{
			"inputs": [],
			"name": "TIME_STEP",
			"outputs": [
				{
					"internalType": "uint256",
					"name": "",
					"type": "uint256"
				}
			],
			"stateMutability": "view",
			"type": "function"
		},
		{
			"inputs": [
				{
					"internalType": "address",
					"name": "",
					"type": "address"
				}
			],
			"name": "addressToId",
			"outputs": [
				{
					"internalType": "uint256",
					"name": "",
					"type": "uint256"
				}
			],
			"stateMutability": "view",
			"type": "function"
		},
		{
			"inputs": [
				{
					"internalType": "uint256",
					"name": "_userId",
					"type": "uint256"
				}
			],
			"name": "claimCommunity",
			"outputs": [],
			"stateMutability": "nonpayable",
			"type": "function"
		},
		{
			"inputs": [],
			"name": "communityAccPerUser",
			"outputs": [
				{
					"internalType": "uint256",
					"name": "",
					"type": "uint256"
				}
			],
			"stateMutability": "view",
			"type": "function"
		},
		{
			"inputs": [
				{
					"internalType": "uint256",
					"name": "",
					"type": "uint256"
				}
			],
			"name": "communityDebt",
			"outputs": [
				{
					"internalType": "uint256",
					"name": "",
					"type": "uint256"
				}
			],
			"stateMutability": "view",
			"type": "function"
		},
		{
			"inputs": [],
			"name": "creatorWallet",
			"outputs": [
				{
					"internalType": "address",
					"name": "",
					"type": "address"
				}
			],
			"stateMutability": "view",
			"type": "function"
		},
		{
			"inputs": [],
			"name": "defaultRefId",
			"outputs": [
				{
					"internalType": "uint256",
					"name": "",
					"type": "uint256"
				}
			],
			"stateMutability": "view",
			"type": "function"
		},
		{
			"inputs": [
				{
					"internalType": "uint256",
					"name": "",
					"type": "uint256"
				},
				{
					"internalType": "uint256",
					"name": "",
					"type": "uint256"
				}
			],
			"name": "directReferrals",
			"outputs": [
				{
					"internalType": "uint256",
					"name": "",
					"type": "uint256"
				}
			],
			"stateMutability": "view",
			"type": "function"
		},
		{
			"inputs": [
				{
					"internalType": "uint256",
					"name": "",
					"type": "uint256"
				},
				{
					"internalType": "uint256",
					"name": "",
					"type": "uint256"
				}
			],
			"name": "incomeHistory",
			"outputs": [
				{
					"internalType": "uint256",
					"name": "fromUserId",
					"type": "uint256"
				},
				{
					"internalType": "uint256",
					"name": "amount",
					"type": "uint256"
				},
				{
					"internalType": "uint256",
					"name": "packageLevel",
					"type": "uint256"
				},
				{
					"internalType": "uint256",
					"name": "timestamp",
					"type": "uint256"
				},
				{
					"internalType": "uint256",
					"name": "incomeType",
					"type": "uint256"
				}
			],
			"stateMutability": "view",
			"type": "function"
		},
		{
			"inputs": [],
			"name": "lastLotteryRun",
			"outputs": [
				{
					"internalType": "uint256",
					"name": "",
					"type": "uint256"
				}
			],
			"stateMutability": "view",
			"type": "function"
		},
		{
			"inputs": [],
			"name": "lastLotteryWinner",
			"outputs": [
				{
					"internalType": "address",
					"name": "",
					"type": "address"
				}
			],
			"stateMutability": "view",
			"type": "function"
		},
		{
			"inputs": [],
			"name": "lotteryInterval",
			"outputs": [
				{
					"internalType": "uint256",
					"name": "",
					"type": "uint256"
				}
			],
			"stateMutability": "view",
			"type": "function"
		},
		{
			"inputs": [],
			"name": "lotteryPool",
			"outputs": [
				{
					"internalType": "uint256",
					"name": "",
					"type": "uint256"
				}
			],
			"stateMutability": "view",
			"type": "function"
		},
		{
			"inputs": [
				{
					"internalType": "uint256",
					"name": "",
					"type": "uint256"
				}
			],
			"name": "matrixDirect",
			"outputs": [
				{
					"internalType": "uint256",
					"name": "",
					"type": "uint256"
				}
			],
			"stateMutability": "view",
			"type": "function"
		},
		{
			"inputs": [],
			"name": "owner",
			"outputs": [
				{
					"internalType": "address",
					"name": "",
					"type": "address"
				}
			],
			"stateMutability": "view",
			"type": "function"
		},
		{
			"inputs": [
				{
					"internalType": "uint256",
					"name": "",
					"type": "uint256"
				}
			],
			"name": "packages",
			"outputs": [
				{
					"internalType": "uint256",
					"name": "",
					"type": "uint256"
				}
			],
			"stateMutability": "view",
			"type": "function"
		},
		{
			"inputs": [
				{
					"internalType": "uint256",
					"name": "_userId",
					"type": "uint256"
				}
			],
			"name": "pendingCommunity",
			"outputs": [
				{
					"internalType": "uint256",
					"name": "pendingGross",
					"type": "uint256"
				},
				{
					"internalType": "uint256",
					"name": "pendingAfterCap",
					"type": "uint256"
				}
			],
			"stateMutability": "view",
			"type": "function"
		},
		{
			"inputs": [
				{
					"internalType": "uint256",
					"name": "",
					"type": "uint256"
				}
			],
			"name": "poolPackages",
			"outputs": [
				{
					"internalType": "uint256",
					"name": "",
					"type": "uint256"
				}
			],
			"stateMutability": "view",
			"type": "function"
		},
		{
			"inputs": [
				{
					"internalType": "uint256",
					"name": "",
					"type": "uint256"
				},
				{
					"internalType": "uint256",
					"name": "",
					"type": "uint256"
				}
			],
			"name": "poolUsers",
			"outputs": [
				{
					"internalType": "uint256",
					"name": "",
					"type": "uint256"
				}
			],
			"stateMutability": "view",
			"type": "function"
		},
		{
			"inputs": [
				{
					"internalType": "uint256",
					"name": "_sponsorId",
					"type": "uint256"
				}
			],
			"name": "register",
			"outputs": [],
			"stateMutability": "nonpayable",
			"type": "function"
		},
		{
			"inputs": [
				{
					"internalType": "uint256",
					"name": "",
					"type": "uint256"
				}
			],
			"name": "registeredUserIds",
			"outputs": [
				{
					"internalType": "uint256",
					"name": "",
					"type": "uint256"
				}
			],
			"stateMutability": "view",
			"type": "function"
		},
		{
			"inputs": [],
			"name": "systemMaintance",
			"outputs": [
				{
					"internalType": "address",
					"name": "",
					"type": "address"
				}
			],
			"stateMutability": "view",
			"type": "function"
		},
		{
			"inputs": [],
			"name": "teamDevelopment",
			"outputs": [
				{
					"internalType": "address",
					"name": "",
					"type": "address"
				}
			],
			"stateMutability": "view",
			"type": "function"
		},
		{
			"inputs": [
				{
					"internalType": "uint256",
					"name": "",
					"type": "uint256"
				},
				{
					"internalType": "uint256",
					"name": "",
					"type": "uint256"
				},
				{
					"internalType": "uint256",
					"name": "",
					"type": "uint256"
				}
			],
			"name": "teams",
			"outputs": [
				{
					"internalType": "uint256",
					"name": "",
					"type": "uint256"
				}
			],
			"stateMutability": "view",
			"type": "function"
		},
		{
			"inputs": [],
			"name": "totalUsers",
			"outputs": [
				{
					"internalType": "uint256",
					"name": "",
					"type": "uint256"
				}
			],
			"stateMutability": "view",
			"type": "function"
		},
		{
			"inputs": [
				{
					"internalType": "uint256",
					"name": "_userId",
					"type": "uint256"
				}
			],
			"name": "upgrade",
			"outputs": [],
			"stateMutability": "nonpayable",
			"type": "function"
		},
		{
			"inputs": [
				{
					"internalType": "uint32",
					"name": "_userId",
					"type": "uint32"
				}
			],
			"name": "upgradePool",
			"outputs": [],
			"stateMutability": "nonpayable",
			"type": "function"
		},
		{
			"inputs": [],
			"name": "usdt",
			"outputs": [
				{
					"internalType": "contract IERC20",
					"name": "",
					"type": "address"
				}
			],
			"stateMutability": "view",
			"type": "function"
		},
		{
			"inputs": [
				{
					"internalType": "uint256",
					"name": "",
					"type": "uint256"
				},
				{
					"internalType": "uint256",
					"name": "",
					"type": "uint256"
				},
				{
					"internalType": "uint256",
					"name": "",
					"type": "uint256"
				}
			],
			"name": "userChildren",
			"outputs": [
				{
					"internalType": "uint256",
					"name": "",
					"type": "uint256"
				}
			],
			"stateMutability": "view",
			"type": "function"
		},
		{
			"inputs": [
				{
					"internalType": "uint256",
					"name": "",
					"type": "uint256"
				},
				{
					"internalType": "uint256",
					"name": "",
					"type": "uint256"
				},
				{
					"internalType": "uint256",
					"name": "",
					"type": "uint256"
				}
			],
			"name": "userIdPerPool",
			"outputs": [
				{
					"internalType": "uint256",
					"name": "",
					"type": "uint256"
				}
			],
			"stateMutability": "view",
			"type": "function"
		},
		{
			"inputs": [
				{
					"internalType": "uint256",
					"name": "",
					"type": "uint256"
				}
			],
			"name": "userIncomes",
			"outputs": [
				{
					"internalType": "uint256",
					"name": "totalIncome",
					"type": "uint256"
				},
				{
					"internalType": "uint256",
					"name": "sponsorIncome",
					"type": "uint256"
				},
				{
					"internalType": "uint256",
					"name": "matrixIncome",
					"type": "uint256"
				},
				{
					"internalType": "uint256",
					"name": "levelBoosterIncome",
					"type": "uint256"
				},
				{
					"internalType": "uint256",
					"name": "levelIncome",
					"type": "uint256"
				},
				{
					"internalType": "uint256",
					"name": "royaltyIncome",
					"type": "uint256"
				},
				{
					"internalType": "uint256",
					"name": "royaltyIncomeClaimed",
					"type": "uint256"
				},
				{
					"internalType": "uint256",
					"name": "communityIncome",
					"type": "uint256"
				},
				{
					"internalType": "uint256",
					"name": "poolIncome",
					"type": "uint256"
				}
			],
			"stateMutability": "view",
			"type": "function"
		},
		{
			"inputs": [
				{
					"internalType": "uint256",
					"name": "",
					"type": "uint256"
				},
				{
					"internalType": "uint256",
					"name": "",
					"type": "uint256"
				}
			],
			"name": "userPooldtl",
			"outputs": [
				{
					"internalType": "uint256",
					"name": "id",
					"type": "uint256"
				},
				{
					"internalType": "uint256",
					"name": "mainid",
					"type": "uint256"
				},
				{
					"internalType": "uint256",
					"name": "poolId",
					"type": "uint256"
				},
				{
					"internalType": "uint256",
					"name": "parentId",
					"type": "uint256"
				},
				{
					"internalType": "uint256",
					"name": "bonusCount",
					"type": "uint256"
				},
				{
					"internalType": "uint256",
					"name": "nextPoolAmt",
					"type": "uint256"
				},
				{
					"internalType": "uint256",
					"name": "reTopupAmt",
					"type": "uint256"
				}
			],
			"stateMutability": "view",
			"type": "function"
		},
		{
			"inputs": [
				{
					"internalType": "uint256",
					"name": "",
					"type": "uint256"
				}
			],
			"name": "users",
			"outputs": [
				{
					"internalType": "address",
					"name": "account",
					"type": "address"
				},
				{
					"internalType": "uint256",
					"name": "checkpoint",
					"type": "uint256"
				},
				{
					"internalType": "uint256",
					"name": "id",
					"type": "uint256"
				},
				{
					"internalType": "uint256",
					"name": "sponsorId",
					"type": "uint256"
				},
				{
					"internalType": "uint256",
					"name": "uplineId",
					"type": "uint256"
				},
				{
					"internalType": "uint256",
					"name": "level",
					"type": "uint256"
				},
				{
					"internalType": "uint256",
					"name": "directTeam",
					"type": "uint256"
				},
				{
					"internalType": "uint256",
					"name": "totalMatrixTeam",
					"type": "uint256"
				},
				{
					"internalType": "uint256",
					"name": "totalDeposit",
					"type": "uint256"
				},
				{
					"internalType": "uint256",
					"name": "poollevel",
					"type": "uint256"
				},
				{
					"internalType": "uint256",
					"name": "poolDeposit",
					"type": "uint256"
				},
				{
					"internalType": "uint256",
					"name": "registrationTime",
					"type": "uint256"
				}
			],
			"stateMutability": "view",
			"type": "function"
		}
	]
}