{
	"data": {
		"bytecode": {
			"linkReferences": {},
			"object": "60806040523461052b5760015f556040516101e081016001600160401b038111828210176105175760405267d02ab486cedc0000815268015af1d78b58c4000060208201526802b5e3af16b1880000604082015268056bc75e2d631000006060820152680ad78ebc5ac620000060808201526815af1d78b58c40000060a0820152682b5e3af16b1880000060c08201526856bc75e2d63100000060e082015268ad78ebc5ac6200000061010082015269015af1d78b58c40000006101208201526902b5e3af16b18800000061014082015269056bc75e2d6310000000610160820152690ad78ebc5ac6200000006101808201526915af1d78b58c400000006101a0820152692b5e3af16b18800000006101c0820152600d54600f600d5580600f106104c1575b50600d5f5260205f20905f5b600f81106104a45761014161052f565b680410d586a20a4c00008152681043561a8829300000602082015268410d586a20a4c0000060408201526901043561a882930000006060820152690410d586a20a4c0000006080820152691043561a88293000000060a082015269410d586a20a4c000000060c082015260165460076016558060071061044e575b5060165f5260205f20905f5b60078110610431576101d861054e565b68056bc75e2d631000008152680ad78ebc5ac620000060208201526815af1d78b58c4000006040820152682b5e3af16b1880000060608201526856bc75e2d631000000608082015268ad78ebc5ac6200000060a082015269015af1d78b58c400000060c08201526902b5e3af16b18800000060e08201526017546008601755806008106103db575b5060175f5260205f20905f5b600881106103be5761027c61052f565b60038152600560208201526007604082015260096060820152600b6080820152600d60a0820152600f60c08201525f5b600781106103a6576102bc61054e565b6004815260056020820152600660408201526007606082015260086080820152600960a0820152600a60c0820152600b60e08201525f5b6008811061038e5761030361054e565b5f815260016020820152600160408201526001606082015260016080820152600160a0820152600160c0820152600160e08201525f5b60088110610376575f6039555f603a555f603b5560016040555f6041555f60425560016047555f6048555f60495560405161377890816105858239f35b600190602060ff845116930192816027015501610339565b600190602060ff84511693019281601f0155016102f3565b600190602060ff8451169301928160180155016102ac565b81516001600160501b03168184015560209091019060010161026c565b60175f5261042b907fc624b66cc0138b8fabc209247f72d758e1cf3343756d543badbf24212bed8c15017fc624b66cc0138b8fabc209247f72d758e1cf3343756d543badbf24212bed8c1d61056e565b81610260565b81516001600160501b0316818401556020909101906001016101c8565b60165f5261049e907fd833147d7dc355ba459fc788f669e58cfaf9dc25ddcd0702e87d69c7b5124289017fd833147d7dc355ba459fc788f669e58cfaf9dc25ddcd0702e87d69c7b512429061056e565b816101bc565b81516001600160501b031681840155602090910190600101610131565b600d5f52610511907fd7b6990105719101dabeb77144f2a3385c8033acd3af97e9423a695e81ad1eb5017fd7b6990105719101dabeb77144f2a3385c8033acd3af97e9423a695e81ad1ec461056e565b5f610125565b634e487b7160e01b5f52604160045260245ffd5b5f80fd5b6040519060e082016001600160401b0381118382101761051757604052565b6040519061010082016001600160401b0381118382101761051757604052565b818110610579575050565b5f815560010161056e56fe610280806040526004361015610013575f80fd5b5f3560e01c90816254815d14611e075750806301c234a814611deb578063056b4d1f14611d8b5780630676d0d614611d615780630a5c5d6914611d325780630ef81b7414611cf95780630f2b7cc914611cca5780631c4ecf6814611cb15780632132d20414611c855780632350268f14611c2b57806323fd338e146112425780632a89153414611c0e5780632ae0ee0d1461195d5780632d66014f14611bb45780632f48ab7d14611b8c5780633080b5bc14611b6f57806331bb6a3014611b5457806332bc298c14611b3757806332fcd96614611b15578063365b98b214611962578063375b43b41461195d57806339ab3603146119035780633a5084b3146118e65780634036436c1461188757806345977d03146113c057806345cb537c1461139657806346b9dece146112f15780634b8cbf9b146112d45780634d12ae0f146112a55780634d4cc5ca1461126c57806354c5bd901461124757806358c7d352146112425780635aabf7f1146112095780635b58ce6c146111a15780635b62d1d5146111845780635ec64a44146111555780636a424782146110f5578063705fee2d146110d757806370c8d7701461106257806376f5f7001461104557806378f6ad6d146110285780637cdc65f21461100057806388afbe3e14610fd657806389043ece14610fa75780638d58644c14610f6e5780638f030ece14610f35578063907c84a714610eca578063956a322814610e9e5780639b40ab9714610e815780639c38348614610e4d578063a59d17d114610e30578063a5e52b9914610e13578063ae4708dc14610db9578063bd1aae4014610d85578063bf72467214610d4d578063bff1f9e114610d30578063c216212a14610d07578063c4eb42a514610ca7578063c7bb62e814610c78578063c8df290814610c54578063c9ed070814610c37578063ca8e912114610c1a578063cb0e0d7d14610bde578063ce79c2c314610b73578063d0a2fd7914610b47578063d2f0490d14610b2c578063db27cc7114610ac9578063e898fc3814610aac578063e9e34a1614610a84578063ebe0ff1514610a61578063ec597e6f14610a44578063f207564e14610455578063f5748c4f146103e7578063f5d74d93146103bf578063f7a24806146103815763fddc806f14610360575f80fd5b3461037d575f36600319011261037d576020603a54604051908152f35b5f80fd5b3461037d5761038f36611e76565b905f52604660205260405f20805482101561037d576020916103b091611f16565b90549060031b1c604051908152f35b3461037d575f36600319011261037d576004546040516001600160a01b039091168152602090f35b3461037d57602036600319011261037d57600435604b5481101561037d57604b5481101561044157604b5f527f17b0af156a929edf60c351f3df2d53ed643fdd750aef9eda90dc7c8759a104a80154604051908152602090f35b634e487b7160e01b5f52603260045260245ffd5b3461037d57602036600319011261037d57600435335f52600f60205260405f2054610a0a57805f526010602052600360405f200154156109d3576001545f906020906104e2906001600160a01b03166104ac611ee4565b90546040516323b872dd60e01b815233600482015230602482015260039290921b1c604482015293849283919082906064820190565b03925af180156109c85761099b575b50600554906105036006548093612458565b91600181018091116107f857600655335f52600f6020528160405f2055610528611ee4565b90549060031b1c90825f52601060205260405f2091336bffffffffffffffffffffffff60a01b84541617835542600284015583600384015560048301908282556001600685015580600a850155426011850155600f600b850155825f526010602052600760405f2001805490600182018092116107f85755825f5260156020526105b58560405f206124ef565b845f52600e60205260405f20815f52602052600360405f2001600160ff19825416179055805f52600c60205260405f20805490600182018092116107f85755805f52600a60205260405f2054815f52600b60205260405f20865f5260205260405f20555f5f90845f526014602052600260405f2054105f1461086d575050845f52601060205282600560405f200155825f52601460205260405f20805490600182018092116107f85755825b5f905b600f821061080c575b505061067761338d565b61067f6134fd565b61068761362c565b600581028115908281046005148217156107f8576064900492603c830291838304603c148117156107f8576106be85603b54612458565b603b55602384028481046023148217156107f8576103e86106e29104604254612458565b604255600f8402848104600f148217156107f8576103e86107069104604954612458565b604955601984029084820460191417156107f857606461073f936107378a9761073288858b9704612816565b61275a565b049154612887565b60405190600182526020820152608060408201527f26adb22cec823ef144935e9fbef1b6b4a3a29dacbe5444d59292fa2620f3d3776107a460808301604090601581527453706f6e736f72736869702053747275637475726560581b60208201520190565b914260608201528033930390a35f526010602052600560018060a01b0360405f2054169101546040519081527f309bb360e8b69c23937ccc5fb01f9aeeead1c95a99604e175113ff82f2b1723a60203392a4005b634e487b7160e01b5f52601160045260245ffd5b801561086857805f526010602052600960405f2001805490600182018092116107f85755805f52601360205260405f20825f5260205261084f8760405f206124ef565b5f5260106020526001600560405f200154910190610664565b61066d565b5f5b600f811061087f575b5050610661565b8161099657855f52601360205260405f20600182018083116107f8575f5260205260405f2054600282018083116107f85760ff81116107f8576001901b116108ca575b60010161086f565b9493909591925f5b855f52601360205260405f20875f5260205260405f2054811015610987578761097557855f52601360205260405f20875f526020526109148160405f20611f16565b90549060031b1c805f526014602052600260405f205410610939575b506001016108d2565b9194509650875f52601060205280600560405f200155805f52601460205260405f20805490600182018092116107f85755926001809790610930565b509291959093946001905b90506108c2565b50929195909394600190610980565b610878565b6109bc9060203d6020116109c1575b6109b4818361240a565b810190612440565b6104f1565b503d6109aa565b6040513d5f823e3d90fd5b60405162461bcd60e51b815260206004820152600f60248201526e24b73b30b634b21039b837b739b7b960891b6044820152606490fd5b60405162461bcd60e51b8152602060048201526012602482015271105b1c9958591e481c9959da5cdd195c995960721b6044820152606490fd5b3461037d575f36600319011261037d576020600554604051908152f35b3461037d575f36600319011261037d576020604051683635c9adc5dea000008152f35b3461037d575f36600319011261037d576003546040516001600160a01b039091168152602090f35b3461037d575f36600319011261037d576020604154604051908152f35b3461037d57602036600319011261037d576004355f52604c60205260405f208054610b2860018301549260ff60046002830154920154169060405194859485926060929594919560808501968552602085015260408401521515910152565b0390f35b3461037d575f36600319011261037d57602060405160058152f35b3461037d57602036600319011261037d57600435600881101561037d57602090601f0154604051908152f35b3461037d57610b8136611e76565b905f52603060205260405f20905f5260205260405f208054610b286001830154926002810154906004600382015491015491604051958695869192608093969594919660a084019784526020840152604083015260608201520152565b3461037d57602036600319011261037d576004356001600160a01b0381169081900361037d575f52600f602052602060405f2054604051908152f35b3461037d575f36600319011261037d576020603954604051908152f35b3461037d575f36600319011261037d576020604054604051908152f35b3461037d575f36600319011261037d57602060405169021e19e0c9bab24000008152f35b3461037d57610c8636611e76565b905f52603760205260405f20805482101561037d576020916103b091611f16565b3461037d57602036600319011261037d576004355f52603c60205260405f208054610b286001830154926002810154906003810154600482015460058301549060068401549260ff600860078701549601541695604051998a998a611e8c565b3461037d57602036600319011261037d57600435600d5481101561037d576103b0602091611ecc565b3461037d575f36600319011261037d576020600654604051908152f35b3461037d57610d5b36611e76565b905f52602f60205260405f20905f526020526040805f206001815491015482519182526020820152f35b3461037d57610d9336611e76565b905f52603460205260405f20905f52602052602060ff60405f2054166040519015158152f35b3461037d57602036600319011261037d5760043560165481101561037d576016548110156104415760165f527fd833147d7dc355ba459fc788f669e58cfaf9dc25ddcd0702e87d69c7b51242890154604051908152602090f35b3461037d575f36600319011261037d5760206040516283d6008152f35b3461037d575f36600319011261037d576020604254604051908152f35b3461037d57610e5b36611e76565b905f52603860205260405f20905f52602052602060ff60405f2054166040519015158152f35b3461037d575f36600319011261037d576020604854604051908152f35b3461037d57602036600319011261037d57600435600881101561037d5760209060270154604051908152f35b3461037d57610ed836611e76565b905f52603560205260405f20905f5260205260405f208054610b286001830154926002810154906004600382015491015491604051958695869192608093969594919660a084019784526020840152604083015260608201520152565b3461037d57610f4336611f2b565b915f52603160205260405f20905f5260205260405f20805482101561037d576020916103b091611f16565b3461037d57610f7c36611f2b565b915f52603260205260405f20905f5260205260405f20805482101561037d576020916103b091611f16565b3461037d57610fb536611e76565b905f52600b60205260405f20905f52602052602060405f2054604051908152f35b3461037d57602036600319011261037d576004355f526014602052602060405f2054604051908152f35b3461037d575f36600319011261037d576002546040516001600160a01b039091168152602090f35b3461037d575f36600319011261037d576020600954604051908152f35b3461037d575f36600319011261037d57602060405162093a808152f35b3461037d5761107036611e76565b905f52601260205260405f20805482101561037d575f52600560205f209102018054610b286001830154926002810154906004600382015491015491604051958695869192608093969594919660a084019784526020840152604083015260608201520152565b3461037d575f36600319011261037d57602060405163025143008152f35b3461037d57602036600319011261037d576004355f52604360205260405f208054610b286001830154926002810154906003810154600482015460058301549060068401549260ff600860078701549601541695604051998a998a611e8c565b3461037d5761116336611e76565b905f52601560205260405f20805482101561037d576020916103b091611f16565b3461037d575f36600319011261037d576020604954604051908152f35b3461037d576111af36611e76565b5f918252600e60209081526040808420928452918152918190208054600182015460028301546003909301548451928352948201529182015260ff8083161515606083015260089290921c9091161515608082015260a090f35b3461037d5761121736611f2b565b915f52601360205260405f20905f5260205260405f20805482101561037d576020916103b091611f16565b611f45565b3461037d57604061126061125a36611e76565b90612478565b82519182526020820152f35b3461037d5761127a36611f2b565b915f52603f60205260405f20905f5260205260405f20805482101561037d576020916103b091611f16565b3461037d576112b336611e76565b905f52604d60205260405f20805482101561037d576020916103b091611f16565b3461037d575f36600319011261037d576020604754604051908152f35b3461037d57602036600319011261037d576004355f52601160205261018060405f208054906001810154906002810154600382015460048301546005840154600685015490600786015492600887015494600988015496600b600a8a0154990154996040519b8c5260208c015260408b015260608a0152608089015260a088015260c087015260e0860152610100850152610120840152610140830152610160820152f35b3461037d57602036600319011261037d576004355f52600a602052602060405f2054604051908152f35b3461037d57602036600319011261037d57600435805f52601060205260405f206113f460018060a01b038254163314611f7b565b60068101805491600f83101561184b5761140d83611ecc565b90546001546040516323b872dd60e01b815233600482015230602482015260039390931b9190911c60448301819052939190602090829060649082905f906001600160a01b03165af180156109c85761182e575b50805490600182018092116107f85755600a8101611480838254612458565b9055835f52600e60205260405f20825f52602052600360405f2001600160ff1982541617905560058202908215918381046005148317156107f8576064900491601984028481046019148217156107f8578460646114de9204612816565b835f52600a60205260405f2054845f52600b60205260405f20875f5260205260405f205561150b8361275a565b835f52600c60205260405f20805490600182018092116107f85755601484028481046014148217156107f85760649004600483019384549160018801978881116107f85788826115638261157b958e611583996128b7565b8b6005890161157584848484546128f6565b54612ba8565b603b54612458565b603b55602384028481046023148217156107f8576103e86115a79104604254612458565b604255600f840290848204600f1417156107f8576103e86115cb9104604954612458565b604955600a8414611748575b600f8414611654575b50506040519182526020820152608060408201527f26adb22cec823ef144935e9fbef1b6b4a3a29dacbe5444d59292fa2620f3d37761164560808301604090601581527453706f6e736f72736869702053747275637475726560581b60208201520190565b914260608201528033930390a3005b601342910155835f52601060205260405f2090545f52601060205260405f20601581018054600181018091116107f85780600292551015908161172a575b8161171a575b50611704575b60026015820154101590816116e1575b816116d2575b506116c1575b83806115e0565b6116cd604754846130d3565b6116ba565b600f91506006015414846116b4565b90506013810154601182015490630251430082018092116107f8571115906116ae565b6117156004820154604754906130d3565b61169e565b600f915060060154101585611698565b90506011810154630251430081018091116107f85742111590611692565b4260128201555f85815260106020526040808220845483529120601481018054600181019081106107f857806005925510159081611811575b81611801575b506117eb575b60056014820154101590816117c9575b816117ba575b50156115d7576117b560405486612f3d565b6115d7565b600a91506006015414866117a3565b905060128101546011820154906283d60082018092116107f85711159061179d565b6117fc600482015460405490612f3d565b61178d565b600a915060060154101587611787565b905060118101546283d60081018091116107f85742111590611781565b6118469060203d6020116109c1576109b4818361240a565b611461565b60405162461bcd60e51b8152602060048201526014602482015273105b1c9958591e48185d081b585e081b195d995b60621b6044820152606490fd5b3461037d57602036600319011261037d576004355f52604560205260405f208054610b2860018301549260ff60046002830154920154169060405194859485926060929594919560808501968552602085015260408401521515910152565b3461037d575f36600319011261037d5760206040516202a3008152f35b3461037d57602036600319011261037d5760043560075481101561037d576007548110156104415760075f527fa66cc928b5edb82af9bd49922954155ab7b0942694bea4ce44661d9a8736c6880154604051908152602090f35b611f60565b3461037d57602036600319011261037d576004355f52601060205260405f206101805260018060a01b03610180515416600261018051015461010052600361018051015461014052600461018051015460056101805101546006610180510154600761018051015460086101805101546009610180510154600a61018051015490600b61018051015492600c61018051015494600d61018051015496600e61018051015498600f6101805101549a60106101805101549c6011610180510154608052601261018051015460c052601361018051015461016052601461018051015461012052601561018051015460e05260405160a05260a0515261010051602060a051015261014051604060a0510152606060a0510152608060a051015260a08051015260c060a051015260e060a051015261010060a051015261012060a051015261014060a051015261016060a051015261018060a05101526101a060a05101526101c060a05101526101e060a051015260805161020060a051015260c05161022060a05101526101605161024060a05101526101205161026060a051015260e05161028060a05101526102a060a051f35b3461037d575f36600319011261037d576020604051670de0b6b3a76400008152f35b3461037d575f36600319011261037d576020604051620151808152f35b3461037d575f36600319011261037d57602060405160028152f35b3461037d575f36600319011261037d576020603b54604051908152f35b3461037d575f36600319011261037d576001546040516001600160a01b039091168152602090f35b3461037d57602036600319011261037d5760043560445481101561037d576044548110156104415760445f527f9b22d3d61959b4d3528b1d8ba932c96fbe302b36a1aad1d95cab54f9e0a135ea0154604051908152602090f35b3461037d575f36600319011261037d57602060405162278d008152f35b3461037d57602036600319011261037d5760043560175481101561037d576017548110156104415760175f527fc624b66cc0138b8fabc209247f72d758e1cf3343756d543badbf24212bed8c150154604051908152602090f35b3461037d57602036600319011261037d57600435600781101561037d5760209060180154604051908152f35b3461037d57611cc8611cc236611e76565b90611fe5565b005b3461037d57611cd836611e76565b905f52603360205260405f20805482101561037d576020916103b091611f16565b3461037d57611d0736611f2b565b915f52603660205260405f20905f5260205260405f20805482101561037d576020916103b091611f16565b3461037d57611d4036611e76565b905f52603d60205260405f20805482101561037d576020916103b091611f16565b3461037d57602036600319011261037d576004355f52600c602052602060405f2054604051908152f35b3461037d57602036600319011261037d576004355f52604a60205260405f208054610b286001830154926002810154906003810154600482015460058301549060068401549260ff600860078701549601541695604051998a998a611e8c565b3461037d575f36600319011261037d5760206040516127108152f35b3461037d57611e1536611e76565b905f52603e60205260405f20905f5260205280610b2860405f208054600182015491600360028201549101549260ff808560081c169416928693909594919260809360a0860197865260208601526040850152151560608401521515910152565b604090600319011261037d576004359060243590565b979491926101009794919a9996936101208a019b8a5260208a015260408901526060880152608087015260a086015260c085015260e08401521515910152565b600d5481101561044157600d5f5260205f2001905f90565b600d541561044157600d5f9081527fd7b6990105719101dabeb77144f2a3385c8033acd3af97e9423a695e81ad1eb591565b8054821015610441575f5260205f2001905f90565b606090600319011261037d57600435906024359060443590565b3461037d575f36600319011261037d576020604051600a8152f35b3461037d575f36600319011261037d576020604051600f8152f35b15611f8257565b60405162461bcd60e51b815260206004820152601060248201526f139bdd081e5bdd5c881858d8dbdd5b9d60821b6044820152606490fd5b919082039182116107f857565b8115611fd1570490565b634e487b7160e01b5f52601260045260245ffd5b90815f52601060205260405f206003810154156123d45754612011906001600160a01b03163314611f7b565b815f52600e60205260405f20815f5260205260ff600360405f200154161561239d57815f52600e60205260405f20815f5260205260ff600360405f20015460081c1661236757805f52600a60205260405f205491815f52600b60205260405f20815f5260205260405f205480841461236157612096670de0b6b3a76400009185611fba565b04918215612346576120a88383612523565b93815f52600b60205260405f20835f5260205260405f205583159182156120e7575b5050508181116120d8575050565b6120e59161073291611fba565b565b5f81815260106020526040902080546001600160a01b031696909591939092908715612312576122df57835f52601160205260405f20612128838254612458565b815560068101612139848254612458565b90555492600b8701549260065f9801975b88548110156122d25761215c81611ecc565b90549060031b1c95875f52600e60205260405f20875f5260205260405f20906003820160ff815460081c168015908180926122bc575b156121eb575050805461ff0019166101001790556121c6919087600a6121b8828c612465565b049283600282015555611fba565b955f52600c60205260405f209081545f1981019081116107f857600192555b0161214a565b809193959a9250906122a7575b15612216575050600191600261221092015490611fba565b956121e5565b92979287908261228f575b505061223057506001906121e5565b9198505060019198935093919301555b60015461225990869083906001600160a01b031661320d565b60405185815260208101929092525f5160206137235f395f51905f526080836004604087960152426060820152a45f80806120ca565b600a92509061229d91612465565b048710865f612221565b50600a6122b48983612465565b0484116121f8565b50600a6122c98b8d612465565b04841015612192565b5096509691509150612240565b60405162461bcd60e51b815260206004820152600b60248201526a16995c9bc8185b5bdd5b9d60aa1b6044820152606490fd5b60405162461bcd60e51b815260206004820152600c60248201526b24b73b30b634b2103ab9b2b960a11b6044820152606490fd5b9091505f52600b60205260405f20905f5260205260405f2055565b50505050565b60405162461bcd60e51b815260206004820152600e60248201526d141858dad859d94810db1bdcd95960921b6044820152606490fd5b60405162461bcd60e51b815260206004820152600f60248201526e496e76616c6964207061636b61676560881b6044820152606490fd5b60405162461bcd60e51b815260206004820152600e60248201526d155cd95c881b9bdd08199bdd5b9960921b6044820152606490fd5b90601f8019910116810190811067ffffffffffffffff82111761242c57604052565b634e487b7160e01b5f52604160045260245ffd5b9081602091031261037d5751801515810361037d5790565b919082018092116107f857565b818102929181159184041417156107f857565b9190825f526010602052600360405f200154156124e757805f52600a60205260405f2054905f52600b60205260405f20835f5260205260405f205490818111156124dd576124d26124da92670de0b6b3a764000092611fba565b048093612523565b90565b505090505f905f90565b505f91508190565b8054600160401b81101561242c5761250c91600182018155611f16565b819291549060031b91821b915f19901b1916179055565b805f52601060205260405f20905f526011602052600a61254f60405f209282600b820154910154612465565b049054818110156125755761256391611fba565b9081811115612570575090565b905090565b5050505f90565b91909293825f52601060205260405f209360018060a01b038554169283156123125780156122df57845f52601160205260405f206125bb828254612458565b8155600181016125cc838254612458565b90555492600b8701549260065f9801975b885481101561274d576125ef81611ecc565b90549060031b1c95885f52600e60205260405f20875f5260205260405f20906003820160ff815460081c16801590818092612737575b15612670575050805461ff00191661010017905561264b919087600a6121b8828c612465565b955f52600c60205260405f209081545f1981019081116107f857600192555b016125dd565b809193959a925090612722575b1561269b575050600191600261269592015490611fba565b9561266a565b92979287908261270a575b50506126b5575060019061266a565b9198505060019198935093919301555b6001546126de90839085906001600160a01b031661320d565b6040519182526020820152608081600160405f5160206137235f395f51905f52940152426060820152a4565b600a92509061271891612465565b048710865f6126a6565b50600a61272f8983612465565b04841161267d565b50600a6127448b8d612465565b04841015612625565b50965096915091506126c5565b6002546001600160a01b03169081156127dd57600154608092612788918391906001600160a01b031661320d565b6005545f52601160205260405f206127a1828254612458565b905560018060a01b03600254165f5160206137235f395f51905f526005549384936040519081525f60208201525f6040820152426060820152a4565b60405162461bcd60e51b8152602060048201526011602482015270199959481859191c9cc81b9bdd081cd95d607a1b6044820152606490fd5b905f52600c60205260405f2054908115801561287f575b61286c57670de0b6b3a7640000810290808204670de0b6b3a764000014901517156107f8576128679161285f91611fc7565b600954612458565b600955565b8091506128765750565b6120e59061275a565b50801561282d565b801580156128ac575b6128a157916001916120e59361257c565b50506120e59061275a565b506005548114612890565b929190831580156128dd575b6128d0576120e59361257c565b5090506120e5915061275a565b5060055484146128c3565b5f1981146107f85760010190565b92919260055481148015612ba0575b612b945760015b838110612b6357505f905b80151580612b57575b80612b4d575b15612b4057805f52601060205260405f2090846006830154101561295957506005612953910154916128e8565b90612917565b5f81815260106020526040902080549597909691956001600160a01b031694909350915083156123125780156122df57845f52601160205260405f206129a0828254612458565b8155600281016129b1838254612458565b90555492600b8701549260065f9801975b8854811015612b33576129d481611ecc565b90549060031b1c95885f52600e60205260405f20875f5260205260405f20906003820160ff815460081c16801590818092612b1d575b15612a55575050805461ff001916610100179055612a30919087600a6121b8828c612465565b955f52600c60205260405f209081545f1981019081116107f857600192555b016129c2565b809193959a925090612b08575b15612a805750506001916002612a7a92015490611fba565b95612a4f565b929792879082612af0575b5050612a9a5750600190612a4f565b9198505060019198935093919301555b600154612ac390839085906001600160a01b031661320d565b604051918252602082015260028160809160405f5160206137235f395f51905f52940152426060820152a4565b600a925090612afe91612465565b048710865f612a8b565b50600a612b158983612465565b048411612a62565b50600a612b2a8b8d612465565b04841015612a0a565b5096509691509150612aaa565b505050506120e59061275a565b50600f8210612926565b50600554811415612920565b905f526010602052600560405f2001549081158015612b89575b612b405760010161290c565b506005548214612b7d565b5050506120e59061275a565b508015612905565b93906101e05283158015612f32575b8015612f2a575b6128d057612bcc8183611fc7565b61022052612be6612be08261022051612465565b83611fba565b936101c0525f925f6101a0526001915f5b601e8110612c2c575b5050505090612c0e91611fba565b80612c1d575b50806128765750565b612c269061275a565b5f612c14565b91956101c0979195939751158015612f1c575b612f04576101c0515f52601060205260405f20978760068a015410155f14612ee457612c6e8161022051612465565b956101c0515f52601060205260405f206102605260018060a01b036102605154169788156123125787156122df576101c0515f52601160205260405f20612cb6898254612458565b815560038101612cc78a8254612458565b90555461024052600b610260510154610200525f5b6006610260510154811015612ed357612cf481611ecc565b90549060031b1c6101c0515f52600e60205260405f20815f5260205260405f206003810160ff815460081c16801590818092612eb7575b15612d9257505090612d6a9161010061ff0019825416179055600a612d536102005185612465565b049081600282015561020051905561024051611fba565b610240525f52600c60205260405f209081545f1981019081116107f857600192555b01612cdc565b80919394925090612e9c575b15612dc257505090612db96002600193015461024051611fba565b61024052612d8c565b81612e7f575b50612dd65750600190612d8c565b905060016102409c98949a939992969c9b97959b519101555b600154612e0890829084906001600160a01b031661320d565b604051818152602081018790529260039284612e4c946040612e569701524260608201526101e051915f5160206137235f395f51905f5260806101c05193a4612458565b966101a051612458565b6101a0526001935b826101a0511015612e7957600501546101c052600101612bf7565b50612c00565b61020051600a9250612e9091612465565b0461024051105f612dc8565b50600a612eac6102005183612465565b046102405111612d9e565b50600a612ec76102005187612465565b04610240511015612d2b565b509399959197909698949298612def565b939591978285989492981015612e5e5793612efe906128e8565b93612e5e565b509550509150612f149250611fba565b806128765750565b506005546101c05114612c3f565b508015612bbe565b506005548414612bb7565b90815f52604560205260ff600460405f2001541615612f5a575050565b612f67604054821461329b565b805f526043602052612f8360ff600860405f20015416156132d7565b815f52601060205260405f20601281015490811561309a5760118101546283d60081018091116107f857612fda9211159060056014600a6006840154101592015410159082613092575b508161308a575b50613312565b815f52604560205260405f209160048301612ff960ff8254161561334d565b60445493600160401b85101561242c576001849161303f87837f42ee5ef523a95c6fb3ffdd2e9b34955b83ea8c2b11ff268c87ae6ea25556eaac99016044556044611f16565b81549060031b9087821b915f19901b19161790554281550155600160ff198254161790556130856040519283924291846040919493926060820195825260208201520152565b0390a1565b90505f612fd4565b91505f612fcd565b60405162461bcd60e51b8152602060048201526011602482015270055736572206e6f74206c6576656c20313607c1b6044820152606490fd5b90815f52604c60205260ff600460405f20015416156130f0575050565b6130fd604754821461329b565b805f52604a60205261311960ff600860405f20015416156132d7565b815f52601060205260405f2060138101549081156131d4576011810154630251430081018091116107f85761316f9211159060026015600f600684015410159201541015908261309257508161308a5750613312565b815f52604c60205260405f20916004830161318e60ff8254161561334d565b604b5493600160401b85101561242c576001849161303f87837f42ee5ef523a95c6fb3ffdd2e9b34955b83ea8c2b11ff268c87ae6ea25556eaac9901604b55604b611f16565b60405162461bcd60e51b815260206004820152601160248201527055736572206e6f74206c6576656c20313560781b6044820152606490fd5b60405163a9059cbb60e01b60208281019182526001600160a01b03909416602483015260448083019590955293815290925f9161324b60648261240a565b519082855af1156109c8575f513d61329257506001600160a01b0381163b155b6132725750565b635274afe760e01b5f9081526001600160a01b0391909116600452602490fd5b6001141561326b565b156132a257565b60405162461bcd60e51b815260206004820152600d60248201526c125b9d985b1a59081c9bdd5b99609a1b6044820152606490fd5b156132de57565b60405162461bcd60e51b815260206004820152600c60248201526b149bdd5b990818db1bdcd95960a21b6044820152606490fd5b1561331957565b60405162461bcd60e51b815260206004820152600c60248201526b4e6f7420656c696769626c6560a01b6044820152606490fd5b1561335457565b60405162461bcd60e51b8152602060048201526011602482015270185b1c9958591e48145d585b1a599a5959607a1b6044820152606490fd5b603a5462093a8081018091116107f8574210156133a657565b603954805f52603c60205260405f20600881019182549260ff8416612361575f828152603d60205260409020549283156134f057603b54916133e88584611fc7565b683635c9adc5dea000008111156134ea5750683635c9adc5dea00000915b6134108684612465565b9384808211156134e25761342391611fba565b915b858255836003830155866002830155603b546001830155826007830155603a549162093a8083018093116107f85760066001910198838a5560ff1916179055603a5560018401928385116107f8577fca8a78d1841a8dafbb8ff53c869b3fa9a69abd051022178024f84b680ffd2e3c966130859460395582603b556134aa8383612458565b9054936040519788978893909796959260c0959260e08601998652602086015260408501526060840152608083015260a08201520152565b50505f613423565b91613406565b90603b545f925f92613425565b60415462278d0081018091116107f85742101561351657565b604054805f52604360205260405f20600881019182549260ff84166123615760445492831561361f576042549161354d8584611fc7565b69021e19e0c9bab2400000811115613619575069021e19e0c9bab2400000915b6135778684612465565b9384808211156136115761358a91611fba565b915b85825583600383015586600283015560425460018301558260078301556041549162278d0083018093116107f85760066001910198838a5560ff191617905560415560018401928385116107f8577f1b674071adfa65db18518e4868ae7d5f54dd365c69e0babe9b704cbade8fe4bb9661308594604055826042556134aa8383612458565b50505f61358a565b9161356d565b906042545f925f9261358c565b60485462278d0081018091116107f85742106120e557604754805f52604a60205260405f20600881019182549260ff841661236157604b5492831561371557604954916136798584611fc7565b9161368e6136878785612465565b8095611fba565b915b85825583600383015586600283015560495460018301558260078301556048549162278d0083018093116107f85760066001910198838a5560ff191617905560485560018401928385116107f8577f3e2269a22c7571b51c53565ece51da09613519b306c6dde588beea1f5fd3cfd39661308594604755826049556134aa8383612458565b906049545f925f9261369056fe4d634c31300b97dad99b3af799178230163d88ad306370d063be9cd992d0be7fa2646970667358221220d72965e626660cfdd5589fda930e791dccabd6e6b0ea68f99bfe5a6dd45c4e1464736f6c634300081e0033",
			"opcodes": "PUSH1 0x80 PUSH1 0x40 MSTORE CALLVALUE PUSH2 0x52B JUMPI PUSH1 0x1 PUSH0 SSTORE PUSH1 0x40 MLOAD PUSH2 0x1E0 DUP2 ADD PUSH1 0x1 PUSH1 0x1 PUSH1 0x40 SHL SUB DUP2 GT DUP3 DUP3 LT OR PUSH2 0x517 JUMPI PUSH1 0x40 MSTORE PUSH8 0xD02AB486CEDC0000 DUP2 MSTORE PUSH9 0x15AF1D78B58C40000 PUSH1 0x20 DUP3 ADD MSTORE PUSH9 0x2B5E3AF16B1880000 PUSH1 0x40 DUP3 ADD MSTORE PUSH9 0x56BC75E2D63100000 PUSH1 0x60 DUP3 ADD MSTORE PUSH9 0xAD78EBC5AC6200000 PUSH1 0x80 DUP3 ADD MSTORE PUSH9 0x15AF1D78B58C400000 PUSH1 0xA0 DUP3 ADD MSTORE PUSH9 0x2B5E3AF16B18800000 PUSH1 0xC0 DUP3 ADD MSTORE PUSH9 0x56BC75E2D631000000 PUSH1 0xE0 DUP3 ADD MSTORE PUSH9 0xAD78EBC5AC62000000 PUSH2 0x100 DUP3 ADD MSTORE PUSH10 0x15AF1D78B58C4000000 PUSH2 0x120 DUP3 ADD MSTORE PUSH10 0x2B5E3AF16B188000000 PUSH2 0x140 DUP3 ADD MSTORE PUSH10 0x56BC75E2D6310000000 PUSH2 0x160 DUP3 ADD MSTORE PUSH10 0xAD78EBC5AC620000000 PUSH2 0x180 DUP3 ADD MSTORE PUSH10 0x15AF1D78B58C40000000 PUSH2 0x1A0 DUP3 ADD MSTORE PUSH10 0x2B5E3AF16B1880000000 PUSH2 0x1C0 DUP3 ADD MSTORE PUSH1 0xD SLOAD PUSH1 0xF PUSH1 0xD SSTORE DUP1 PUSH1 0xF LT PUSH2 0x4C1 JUMPI JUMPDEST POP PUSH1 0xD PUSH0 MSTORE PUSH1 0x20 PUSH0 KECCAK256 SWAP1 PUSH0 JUMPDEST PUSH1 0xF DUP2 LT PUSH2 0x4A4 JUMPI PUSH2 0x141 PUSH2 0x52F JUMP JUMPDEST PUSH9 0x410D586A20A4C0000 DUP2 MSTORE PUSH9 0x1043561A8829300000 PUSH1 0x20 DUP3 ADD MSTORE PUSH9 0x410D586A20A4C00000 PUSH1 0x40 DUP3 ADD MSTORE PUSH10 0x1043561A88293000000 PUSH1 0x60 DUP3 ADD MSTORE PUSH10 0x410D586A20A4C000000 PUSH1 0x80 DUP3 ADD MSTORE PUSH10 0x1043561A882930000000 PUSH1 0xA0 DUP3 ADD MSTORE PUSH10 0x410D586A20A4C0000000 PUSH1 0xC0 DUP3 ADD MSTORE PUSH1 0x16 SLOAD PUSH1 0x7 PUSH1 0x16 SSTORE DUP1 PUSH1 0x7 LT PUSH2 0x44E JUMPI JUMPDEST POP PUSH1 0x16 PUSH0 MSTORE PUSH1 0x20 PUSH0 KECCAK256 SWAP1 PUSH0 JUMPDEST PUSH1 0x7 DUP2 LT PUSH2 0x431 JUMPI PUSH2 0x1D8 PUSH2 0x54E JUMP JUMPDEST PUSH9 0x56BC75E2D63100000 DUP2 MSTORE PUSH9 0xAD78EBC5AC6200000 PUSH1 0x20 DUP3 ADD MSTORE PUSH9 0x15AF1D78B58C400000 PUSH1 0x40 DUP3 ADD MSTORE PUSH9 0x2B5E3AF16B18800000 PUSH1 0x60 DUP3 ADD MSTORE PUSH9 0x56BC75E2D631000000 PUSH1 0x80 DUP3 ADD MSTORE PUSH9 0xAD78EBC5AC62000000 PUSH1 0xA0 DUP3 ADD MSTORE PUSH10 0x15AF1D78B58C4000000 PUSH1 0xC0 DUP3 ADD MSTORE PUSH10 0x2B5E3AF16B188000000 PUSH1 0xE0 DUP3 ADD MSTORE PUSH1 0x17 SLOAD PUSH1 0x8 PUSH1 0x17 SSTORE DUP1 PUSH1 0x8 LT PUSH2 0x3DB JUMPI JUMPDEST POP PUSH1 0x17 PUSH0 MSTORE PUSH1 0x20 PUSH0 KECCAK256 SWAP1 PUSH0 JUMPDEST PUSH1 0x8 DUP2 LT PUSH2 0x3BE JUMPI PUSH2 0x27C PUSH2 0x52F JUMP JUMPDEST PUSH1 0x3 DUP2 MSTORE PUSH1 0x5 PUSH1 0x20 DUP3 ADD MSTORE PUSH1 0x7 PUSH1 0x40 DUP3 ADD MSTORE PUSH1 0x9 PUSH1 0x60 DUP3 ADD MSTORE PUSH1 0xB PUSH1 0x80 DUP3 ADD MSTORE PUSH1 0xD PUSH1 0xA0 DUP3 ADD MSTORE PUSH1 0xF PUSH1 0xC0 DUP3 ADD MSTORE PUSH0 JUMPDEST PUSH1 0x7 DUP2 LT PUSH2 0x3A6 JUMPI PUSH2 0x2BC PUSH2 0x54E JUMP JUMPDEST PUSH1 0x4 DUP2 MSTORE PUSH1 0x5 PUSH1 0x20 DUP3 ADD MSTORE PUSH1 0x6 PUSH1 0x40 DUP3 ADD MSTORE PUSH1 0x7 PUSH1 0x60 DUP3 ADD MSTORE PUSH1 0x8 PUSH1 0x80 DUP3 ADD MSTORE PUSH1 0x9 PUSH1 0xA0 DUP3 ADD MSTORE PUSH1 0xA PUSH1 0xC0 DUP3 ADD MSTORE PUSH1 0xB PUSH1 0xE0 DUP3 ADD MSTORE PUSH0 JUMPDEST PUSH1 0x8 DUP2 LT PUSH2 0x38E JUMPI PUSH2 0x303 PUSH2 0x54E JUMP JUMPDEST PUSH0 DUP2 MSTORE PUSH1 0x1 PUSH1 0x20 DUP3 ADD MSTORE PUSH1 0x1 PUSH1 0x40 DUP3 ADD MSTORE PUSH1 0x1 PUSH1 0x60 DUP3 ADD MSTORE PUSH1 0x1 PUSH1 0x80 DUP3 ADD MSTORE PUSH1 0x1 PUSH1 0xA0 DUP3 ADD MSTORE PUSH1 0x1 PUSH1 0xC0 DUP3 ADD MSTORE PUSH1 0x1 PUSH1 0xE0 DUP3 ADD MSTORE PUSH0 JUMPDEST PUSH1 0x8 DUP2 LT PUSH2 0x376 JUMPI PUSH0 PUSH1 0x39 SSTORE PUSH0 PUSH1 0x3A SSTORE PUSH0 PUSH1 0x3B SSTORE PUSH1 0x1 PUSH1 0x40 SSTORE PUSH0 PUSH1 0x41 SSTORE PUSH0 PUSH1 0x42 SSTORE PUSH1 0x1 PUSH1 0x47 SSTORE PUSH0 PUSH1 0x48 SSTORE PUSH0 PUSH1 0x49 SSTORE PUSH1 0x40 MLOAD PUSH2 0x3778 SWAP1 DUP2 PUSH2 0x585 DUP3 CODECOPY RETURN JUMPDEST PUSH1 0x1 SWAP1 PUSH1 0x20 PUSH1 0xFF DUP5 MLOAD AND SWAP4 ADD SWAP3 DUP2 PUSH1 0x27 ADD SSTORE ADD PUSH2 0x339 JUMP JUMPDEST PUSH1 0x1 SWAP1 PUSH1 0x20 PUSH1 0xFF DUP5 MLOAD AND SWAP4 ADD SWAP3 DUP2 PUSH1 0x1F ADD SSTORE ADD PUSH2 0x2F3 JUMP JUMPDEST PUSH1 0x1 SWAP1 PUSH1 0x20 PUSH1 0xFF DUP5 MLOAD AND SWAP4 ADD SWAP3 DUP2 PUSH1 0x18 ADD SSTORE ADD PUSH2 0x2AC JUMP JUMPDEST DUP2 MLOAD PUSH1 0x1 PUSH1 0x1 PUSH1 0x50 SHL SUB AND DUP2 DUP5 ADD SSTORE PUSH1 0x20 SWAP1 SWAP2 ADD SWAP1 PUSH1 0x1 ADD PUSH2 0x26C JUMP JUMPDEST PUSH1 0x17 PUSH0 MSTORE PUSH2 0x42B SWAP1 PUSH32 0xC624B66CC0138B8FABC209247F72D758E1CF3343756D543BADBF24212BED8C15 ADD PUSH32 0xC624B66CC0138B8FABC209247F72D758E1CF3343756D543BADBF24212BED8C1D PUSH2 0x56E JUMP JUMPDEST DUP2 PUSH2 0x260 JUMP JUMPDEST DUP2 MLOAD PUSH1 0x1 PUSH1 0x1 PUSH1 0x50 SHL SUB AND DUP2 DUP5 ADD SSTORE PUSH1 0x20 SWAP1 SWAP2 ADD SWAP1 PUSH1 0x1 ADD PUSH2 0x1C8 JUMP JUMPDEST PUSH1 0x16 PUSH0 MSTORE PUSH2 0x49E SWAP1 PUSH32 0xD833147D7DC355BA459FC788F669E58CFAF9DC25DDCD0702E87D69C7B5124289 ADD PUSH32 0xD833147D7DC355BA459FC788F669E58CFAF9DC25DDCD0702E87D69C7B5124290 PUSH2 0x56E JUMP JUMPDEST DUP2 PUSH2 0x1BC JUMP JUMPDEST DUP2 MLOAD PUSH1 0x1 PUSH1 0x1 PUSH1 0x50 SHL SUB AND DUP2 DUP5 ADD SSTORE PUSH1 0x20 SWAP1 SWAP2 ADD SWAP1 PUSH1 0x1 ADD PUSH2 0x131 JUMP JUMPDEST PUSH1 0xD PUSH0 MSTORE PUSH2 0x511 SWAP1 PUSH32 0xD7B6990105719101DABEB77144F2A3385C8033ACD3AF97E9423A695E81AD1EB5 ADD PUSH32 0xD7B6990105719101DABEB77144F2A3385C8033ACD3AF97E9423A695E81AD1EC4 PUSH2 0x56E JUMP JUMPDEST PUSH0 PUSH2 0x125 JUMP JUMPDEST PUSH4 0x4E487B71 PUSH1 0xE0 SHL PUSH0 MSTORE PUSH1 0x41 PUSH1 0x4 MSTORE PUSH1 0x24 PUSH0 REVERT JUMPDEST PUSH0 DUP1 REVERT JUMPDEST PUSH1 0x40 MLOAD SWAP1 PUSH1 0xE0 DUP3 ADD PUSH1 0x1 PUSH1 0x1 PUSH1 0x40 SHL SUB DUP2 GT DUP4 DUP3 LT OR PUSH2 0x517 JUMPI PUSH1 0x40 MSTORE JUMP JUMPDEST PUSH1 0x40 MLOAD SWAP1 PUSH2 0x100 DUP3 ADD PUSH1 0x1 PUSH1 0x1 PUSH1 0x40 SHL SUB DUP2 GT DUP4 DUP3 LT OR PUSH2 0x517 JUMPI PUSH1 0x40 MSTORE JUMP JUMPDEST DUP2 DUP2 LT PUSH2 0x579 JUMPI POP POP JUMP JUMPDEST PUSH0 DUP2 SSTORE PUSH1 0x1 ADD PUSH2 0x56E JUMP INVALID PUSH2 0x280 DUP1 PUSH1 0x40 MSTORE PUSH1 0x4 CALLDATASIZE LT ISZERO PUSH2 0x13 JUMPI PUSH0 DUP1 REVERT JUMPDEST PUSH0 CALLDATALOAD PUSH1 0xE0 SHR SWAP1 DUP2 PUSH3 0x54815D EQ PUSH2 0x1E07 JUMPI POP DUP1 PUSH4 0x1C234A8 EQ PUSH2 0x1DEB JUMPI DUP1 PUSH4 0x56B4D1F EQ PUSH2 0x1D8B JUMPI DUP1 PUSH4 0x676D0D6 EQ PUSH2 0x1D61 JUMPI DUP1 PUSH4 0xA5C5D69 EQ PUSH2 0x1D32 JUMPI DUP1 PUSH4 0xEF81B74 EQ PUSH2 0x1CF9 JUMPI DUP1 PUSH4 0xF2B7CC9 EQ PUSH2 0x1CCA JUMPI DUP1 PUSH4 0x1C4ECF68 EQ PUSH2 0x1CB1 JUMPI DUP1 PUSH4 0x2132D204 EQ PUSH2 0x1C85 JUMPI DUP1 PUSH4 0x2350268F EQ PUSH2 0x1C2B JUMPI DUP1 PUSH4 0x23FD338E EQ PUSH2 0x1242 JUMPI DUP1 PUSH4 0x2A891534 EQ PUSH2 0x1C0E JUMPI DUP1 PUSH4 0x2AE0EE0D EQ PUSH2 0x195D JUMPI DUP1 PUSH4 0x2D66014F EQ PUSH2 0x1BB4 JUMPI DUP1 PUSH4 0x2F48AB7D EQ PUSH2 0x1B8C JUMPI DUP1 PUSH4 0x3080B5BC EQ PUSH2 0x1B6F JUMPI DUP1 PUSH4 0x31BB6A30 EQ PUSH2 0x1B54 JUMPI DUP1 PUSH4 0x32BC298C EQ PUSH2 0x1B37 JUMPI DUP1 PUSH4 0x32FCD966 EQ PUSH2 0x1B15 JUMPI DUP1 PUSH4 0x365B98B2 EQ PUSH2 0x1962 JUMPI DUP1 PUSH4 0x375B43B4 EQ PUSH2 0x195D JUMPI DUP1 PUSH4 0x39AB3603 EQ PUSH2 0x1903 JUMPI DUP1 PUSH4 0x3A5084B3 EQ PUSH2 0x18E6 JUMPI DUP1 PUSH4 0x4036436C EQ PUSH2 0x1887 JUMPI DUP1 PUSH4 0x45977D03 EQ PUSH2 0x13C0 JUMPI DUP1 PUSH4 0x45CB537C EQ PUSH2 0x1396 JUMPI DUP1 PUSH4 0x46B9DECE EQ PUSH2 0x12F1 JUMPI DUP1 PUSH4 0x4B8CBF9B EQ PUSH2 0x12D4 JUMPI DUP1 PUSH4 0x4D12AE0F EQ PUSH2 0x12A5 JUMPI DUP1 PUSH4 0x4D4CC5CA EQ PUSH2 0x126C JUMPI DUP1 PUSH4 0x54C5BD90 EQ PUSH2 0x1247 JUMPI DUP1 PUSH4 0x58C7D352 EQ PUSH2 0x1242 JUMPI DUP1 PUSH4 0x5AABF7F1 EQ PUSH2 0x1209 JUMPI DUP1 PUSH4 0x5B58CE6C EQ PUSH2 0x11A1 JUMPI DUP1 PUSH4 0x5B62D1D5 EQ PUSH2 0x1184 JUMPI DUP1 PUSH4 0x5EC64A44 EQ PUSH2 0x1155 JUMPI DUP1 PUSH4 0x6A424782 EQ PUSH2 0x10F5 JUMPI DUP1 PUSH4 0x705FEE2D EQ PUSH2 0x10D7 JUMPI DUP1 PUSH4 0x70C8D770 EQ PUSH2 0x1062 JUMPI DUP1 PUSH4 0x76F5F700 EQ PUSH2 0x1045 JUMPI DUP1 PUSH4 0x78F6AD6D EQ PUSH2 0x1028 JUMPI DUP1 PUSH4 0x7CDC65F2 EQ PUSH2 0x1000 JUMPI DUP1 PUSH4 0x88AFBE3E EQ PUSH2 0xFD6 JUMPI DUP1 PUSH4 0x89043ECE EQ PUSH2 0xFA7 JUMPI DUP1 PUSH4 0x8D58644C EQ PUSH2 0xF6E JUMPI DUP1 PUSH4 0x8F030ECE EQ PUSH2 0xF35 JUMPI DUP1 PUSH4 0x907C84A7 EQ PUSH2 0xECA JUMPI DUP1 PUSH4 0x956A3228 EQ PUSH2 0xE9E JUMPI DUP1 PUSH4 0x9B40AB97 EQ PUSH2 0xE81 JUMPI DUP1 PUSH4 0x9C383486 EQ PUSH2 0xE4D JUMPI DUP1 PUSH4 0xA59D17D1 EQ PUSH2 0xE30 JUMPI DUP1 PUSH4 0xA5E52B99 EQ PUSH2 0xE13 JUMPI DUP1 PUSH4 0xAE4708DC EQ PUSH2 0xDB9 JUMPI DUP1 PUSH4 0xBD1AAE40 EQ PUSH2 0xD85 JUMPI DUP1 PUSH4 0xBF724672 EQ PUSH2 0xD4D JUMPI DUP1 PUSH4 0xBFF1F9E1 EQ PUSH2 0xD30 JUMPI DUP1 PUSH4 0xC216212A EQ PUSH2 0xD07 JUMPI DUP1 PUSH4 0xC4EB42A5 EQ PUSH2 0xCA7 JUMPI DUP1 PUSH4 0xC7BB62E8 EQ PUSH2 0xC78 JUMPI DUP1 PUSH4 0xC8DF2908 EQ PUSH2 0xC54 JUMPI DUP1 PUSH4 0xC9ED0708 EQ PUSH2 0xC37 JUMPI DUP1 PUSH4 0xCA8E9121 EQ PUSH2 0xC1A JUMPI DUP1 PUSH4 0xCB0E0D7D EQ PUSH2 0xBDE JUMPI DUP1 PUSH4 0xCE79C2C3 EQ PUSH2 0xB73 JUMPI DUP1 PUSH4 0xD0A2FD79 EQ PUSH2 0xB47 JUMPI DUP1 PUSH4 0xD2F0490D EQ PUSH2 0xB2C JUMPI DUP1 PUSH4 0xDB27CC71 EQ PUSH2 0xAC9 JUMPI DUP1 PUSH4 0xE898FC38 EQ PUSH2 0xAAC JUMPI DUP1 PUSH4 0xE9E34A16 EQ PUSH2 0xA84 JUMPI DUP1 PUSH4 0xEBE0FF15 EQ PUSH2 0xA61 JUMPI DUP1 PUSH4 0xEC597E6F EQ PUSH2 0xA44 JUMPI DUP1 PUSH4 0xF207564E EQ PUSH2 0x455 JUMPI DUP1 PUSH4 0xF5748C4F EQ PUSH2 0x3E7 JUMPI DUP1 PUSH4 0xF5D74D93 EQ PUSH2 0x3BF JUMPI DUP1 PUSH4 0xF7A24806 EQ PUSH2 0x381 JUMPI PUSH4 0xFDDC806F EQ PUSH2 0x360 JUMPI PUSH0 DUP1 REVERT JUMPDEST CALLVALUE PUSH2 0x37D JUMPI PUSH0 CALLDATASIZE PUSH1 0x3 NOT ADD SLT PUSH2 0x37D JUMPI PUSH1 0x20 PUSH1 0x3A SLOAD PUSH1 0x40 MLOAD SWAP1 DUP2 MSTORE RETURN JUMPDEST PUSH0 DUP1 REVERT JUMPDEST CALLVALUE PUSH2 0x37D JUMPI PUSH2 0x38F CALLDATASIZE PUSH2 0x1E76 JUMP JUMPDEST SWAP1 PUSH0 MSTORE PUSH1 0x46 PUSH1 0x20 MSTORE PUSH1 0x40 PUSH0 KECCAK256 DUP1 SLOAD DUP3 LT ISZERO PUSH2 0x37D JUMPI PUSH1 0x20 SWAP2 PUSH2 0x3B0 SWAP2 PUSH2 0x1F16 JUMP JUMPDEST SWAP1 SLOAD SWAP1 PUSH1 0x3 SHL SHR PUSH1 0x40 MLOAD SWAP1 DUP2 MSTORE RETURN JUMPDEST CALLVALUE PUSH2 0x37D JUMPI PUSH0 CALLDATASIZE PUSH1 0x3 NOT ADD SLT PUSH2 0x37D JUMPI PUSH1 0x4 SLOAD PUSH1 0x40 MLOAD PUSH1 0x1 PUSH1 0x1 PUSH1 0xA0 SHL SUB SWAP1 SWAP2 AND DUP2 MSTORE PUSH1 0x20 SWAP1 RETURN JUMPDEST CALLVALUE PUSH2 0x37D JUMPI PUSH1 0x20 CALLDATASIZE PUSH1 0x3 NOT ADD SLT PUSH2 0x37D JUMPI PUSH1 0x4 CALLDATALOAD PUSH1 0x4B SLOAD DUP2 LT ISZERO PUSH2 0x37D JUMPI PUSH1 0x4B SLOAD DUP2 LT ISZERO PUSH2 0x441 JUMPI PUSH1 0x4B PUSH0 MSTORE PUSH32 0x17B0AF156A929EDF60C351F3DF2D53ED643FDD750AEF9EDA90DC7C8759A104A8 ADD SLOAD PUSH1 0x40 MLOAD SWAP1 DUP2 MSTORE PUSH1 0x20 SWAP1 RETURN JUMPDEST PUSH4 0x4E487B71 PUSH1 0xE0 SHL PUSH0 MSTORE PUSH1 0x32 PUSH1 0x4 MSTORE PUSH1 0x24 PUSH0 REVERT JUMPDEST CALLVALUE PUSH2 0x37D JUMPI PUSH1 0x20 CALLDATASIZE PUSH1 0x3 NOT ADD SLT PUSH2 0x37D JUMPI PUSH1 0x4 CALLDATALOAD CALLER PUSH0 MSTORE PUSH1 0xF PUSH1 0x20 MSTORE PUSH1 0x40 PUSH0 KECCAK256 SLOAD PUSH2 0xA0A JUMPI DUP1 PUSH0 MSTORE PUSH1 0x10 PUSH1 0x20 MSTORE PUSH1 0x3 PUSH1 0x40 PUSH0 KECCAK256 ADD SLOAD ISZERO PUSH2 0x9D3 JUMPI PUSH1 0x1 SLOAD PUSH0 SWAP1 PUSH1 0x20 SWAP1 PUSH2 0x4E2 SWAP1 PUSH1 0x1 PUSH1 0x1 PUSH1 0xA0 SHL SUB AND PUSH2 0x4AC PUSH2 0x1EE4 JUMP JUMPDEST SWAP1 SLOAD PUSH1 0x40 MLOAD PUSH4 0x23B872DD PUSH1 0xE0 SHL DUP2 MSTORE CALLER PUSH1 0x4 DUP3 ADD MSTORE ADDRESS PUSH1 0x24 DUP3 ADD MSTORE PUSH1 0x3 SWAP3 SWAP1 SWAP3 SHL SHR PUSH1 0x44 DUP3 ADD MSTORE SWAP4 DUP5 SWAP3 DUP4 SWAP2 SWAP1 DUP3 SWAP1 PUSH1 0x64 DUP3 ADD SWAP1 JUMP JUMPDEST SUB SWAP3 GAS CALL DUP1 ISZERO PUSH2 0x9C8 JUMPI PUSH2 0x99B JUMPI JUMPDEST POP PUSH1 0x5 SLOAD SWAP1 PUSH2 0x503 PUSH1 0x6 SLOAD DUP1 SWAP4 PUSH2 0x2458 JUMP JUMPDEST SWAP2 PUSH1 0x1 DUP2 ADD DUP1 SWAP2 GT PUSH2 0x7F8 JUMPI PUSH1 0x6 SSTORE CALLER PUSH0 MSTORE PUSH1 0xF PUSH1 0x20 MSTORE DUP2 PUSH1 0x40 PUSH0 KECCAK256 SSTORE PUSH2 0x528 PUSH2 0x1EE4 JUMP JUMPDEST SWAP1 SLOAD SWAP1 PUSH1 0x3 SHL SHR SWAP1 DUP3 PUSH0 MSTORE PUSH1 0x10 PUSH1 0x20 MSTORE PUSH1 0x40 PUSH0 KECCAK256 SWAP2 CALLER PUSH12 0xFFFFFFFFFFFFFFFFFFFFFFFF PUSH1 0xA0 SHL DUP5 SLOAD AND OR DUP4 SSTORE TIMESTAMP PUSH1 0x2 DUP5 ADD SSTORE DUP4 PUSH1 0x3 DUP5 ADD SSTORE PUSH1 0x4 DUP4 ADD SWAP1 DUP3 DUP3 SSTORE PUSH1 0x1 PUSH1 0x6 DUP6 ADD SSTORE DUP1 PUSH1 0xA DUP6 ADD SSTORE TIMESTAMP PUSH1 0x11 DUP6 ADD SSTORE PUSH1 0xF PUSH1 0xB DUP6 ADD SSTORE DUP3 PUSH0 MSTORE PUSH1 0x10 PUSH1 0x20 MSTORE PUSH1 0x7 PUSH1 0x40 PUSH0 KECCAK256 ADD DUP1 SLOAD SWAP1 PUSH1 0x1 DUP3 ADD DUP1 SWAP3 GT PUSH2 0x7F8 JUMPI SSTORE DUP3 PUSH0 MSTORE PUSH1 0x15 PUSH1 0x20 MSTORE PUSH2 0x5B5 DUP6 PUSH1 0x40 PUSH0 KECCAK256 PUSH2 0x24EF JUMP JUMPDEST DUP5 PUSH0 MSTORE PUSH1 0xE PUSH1 0x20 MSTORE PUSH1 0x40 PUSH0 KECCAK256 DUP2 PUSH0 MSTORE PUSH1 0x20 MSTORE PUSH1 0x3 PUSH1 0x40 PUSH0 KECCAK256 ADD PUSH1 0x1 PUSH1 0xFF NOT DUP3 SLOAD AND OR SWAP1 SSTORE DUP1 PUSH0 MSTORE PUSH1 0xC PUSH1 0x20 MSTORE PUSH1 0x40 PUSH0 KECCAK256 DUP1 SLOAD SWAP1 PUSH1 0x1 DUP3 ADD DUP1 SWAP3 GT PUSH2 0x7F8 JUMPI SSTORE DUP1 PUSH0 MSTORE PUSH1 0xA PUSH1 0x20 MSTORE PUSH1 0x40 PUSH0 KECCAK256 SLOAD DUP2 PUSH0 MSTORE PUSH1 0xB PUSH1 0x20 MSTORE PUSH1 0x40 PUSH0 KECCAK256 DUP7 PUSH0 MSTORE PUSH1 0x20 MSTORE PUSH1 0x40 PUSH0 KECCAK256 SSTORE PUSH0 PUSH0 SWAP1 DUP5 PUSH0 MSTORE PUSH1 0x14 PUSH1 0x20 MSTORE PUSH1 0x2 PUSH1 0x40 PUSH0 KECCAK256 SLOAD LT PUSH0 EQ PUSH2 0x86D JUMPI POP POP DUP5 PUSH0 MSTORE PUSH1 0x10 PUSH1 0x20 MSTORE DUP3 PUSH1 0x5 PUSH1 0x40 PUSH0 KECCAK256 ADD SSTORE DUP3 PUSH0 MSTORE PUSH1 0x14 PUSH1 0x20 MSTORE PUSH1 0x40 PUSH0 KECCAK256 DUP1 SLOAD SWAP1 PUSH1 0x1 DUP3 ADD DUP1 SWAP3 GT PUSH2 0x7F8 JUMPI SSTORE DUP3 JUMPDEST PUSH0 SWAP1 JUMPDEST PUSH1 0xF DUP3 LT PUSH2 0x80C JUMPI JUMPDEST POP POP PUSH2 0x677 PUSH2 0x338D JUMP JUMPDEST PUSH2 0x67F PUSH2 0x34FD JUMP JUMPDEST PUSH2 0x687 PUSH2 0x362C JUMP JUMPDEST PUSH1 0x5 DUP2 MUL DUP2 ISZERO SWAP1 DUP3 DUP2 DIV PUSH1 0x5 EQ DUP3 OR ISZERO PUSH2 0x7F8 JUMPI PUSH1 0x64 SWAP1 DIV SWAP3 PUSH1 0x3C DUP4 MUL SWAP2 DUP4 DUP4 DIV PUSH1 0x3C EQ DUP2 OR ISZERO PUSH2 0x7F8 JUMPI PUSH2 0x6BE DUP6 PUSH1 0x3B SLOAD PUSH2 0x2458 JUMP JUMPDEST PUSH1 0x3B SSTORE PUSH1 0x23 DUP5 MUL DUP5 DUP2 DIV PUSH1 0x23 EQ DUP3 OR ISZERO PUSH2 0x7F8 JUMPI PUSH2 0x3E8 PUSH2 0x6E2 SWAP2 DIV PUSH1 0x42 SLOAD PUSH2 0x2458 JUMP JUMPDEST PUSH1 0x42 SSTORE PUSH1 0xF DUP5 MUL DUP5 DUP2 DIV PUSH1 0xF EQ DUP3 OR ISZERO PUSH2 0x7F8 JUMPI PUSH2 0x3E8 PUSH2 0x706 SWAP2 DIV PUSH1 0x49 SLOAD PUSH2 0x2458 JUMP JUMPDEST PUSH1 0x49 SSTORE PUSH1 0x19 DUP5 MUL SWAP1 DUP5 DUP3 DIV PUSH1 0x19 EQ OR ISZERO PUSH2 0x7F8 JUMPI PUSH1 0x64 PUSH2 0x73F SWAP4 PUSH2 0x737 DUP11 SWAP8 PUSH2 0x732 DUP9 DUP6 DUP12 SWAP8 DIV PUSH2 0x2816 JUMP JUMPDEST PUSH2 0x275A JUMP JUMPDEST DIV SWAP2 SLOAD PUSH2 0x2887 JUMP JUMPDEST PUSH1 0x40 MLOAD SWAP1 PUSH1 0x1 DUP3 MSTORE PUSH1 0x20 DUP3 ADD MSTORE PUSH1 0x80 PUSH1 0x40 DUP3 ADD MSTORE PUSH32 0x26ADB22CEC823EF144935E9FBEF1B6B4A3A29DACBE5444D59292FA2620F3D377 PUSH2 0x7A4 PUSH1 0x80 DUP4 ADD PUSH1 0x40 SWAP1 PUSH1 0x15 DUP2 MSTORE PUSH21 0x53706F6E736F727368697020537472756374757265 PUSH1 0x58 SHL PUSH1 0x20 DUP3 ADD MSTORE ADD SWAP1 JUMP JUMPDEST SWAP2 TIMESTAMP PUSH1 0x60 DUP3 ADD MSTORE DUP1 CALLER SWAP4 SUB SWAP1 LOG3 PUSH0 MSTORE PUSH1 0x10 PUSH1 0x20 MSTORE PUSH1 0x5 PUSH1 0x1 DUP1 PUSH1 0xA0 SHL SUB PUSH1 0x40 PUSH0 KECCAK256 SLOAD AND SWAP2 ADD SLOAD PUSH1 0x40 MLOAD SWAP1 DUP2 MSTORE PUSH32 0x309BB360E8B69C23937CCC5FB01F9AEEEAD1C95A99604E175113FF82F2B1723A PUSH1 0x20 CALLER SWAP3 LOG4 STOP JUMPDEST PUSH4 0x4E487B71 PUSH1 0xE0 SHL PUSH0 MSTORE PUSH1 0x11 PUSH1 0x4 MSTORE PUSH1 0x24 PUSH0 REVERT JUMPDEST DUP1 ISZERO PUSH2 0x868 JUMPI DUP1 PUSH0 MSTORE PUSH1 0x10 PUSH1 0x20 MSTORE PUSH1 0x9 PUSH1 0x40 PUSH0 KECCAK256 ADD DUP1 SLOAD SWAP1 PUSH1 0x1 DUP3 ADD DUP1 SWAP3 GT PUSH2 0x7F8 JUMPI SSTORE DUP1 PUSH0 MSTORE PUSH1 0x13 PUSH1 0x20 MSTORE PUSH1 0x40 PUSH0 KECCAK256 DUP3 PUSH0 MSTORE PUSH1 0x20 MSTORE PUSH2 0x84F DUP8 PUSH1 0x40 PUSH0 KECCAK256 PUSH2 0x24EF JUMP JUMPDEST PUSH0 MSTORE PUSH1 0x10 PUSH1 0x20 MSTORE PUSH1 0x1 PUSH1 0x5 PUSH1 0x40 PUSH0 KECCAK256 ADD SLOAD SWAP2 ADD SWAP1 PUSH2 0x664 JUMP JUMPDEST PUSH2 0x66D JUMP JUMPDEST PUSH0 JUMPDEST PUSH1 0xF DUP2 LT PUSH2 0x87F JUMPI JUMPDEST POP POP PUSH2 0x661 JUMP JUMPDEST DUP2 PUSH2 0x996 JUMPI DUP6 PUSH0 MSTORE PUSH1 0x13 PUSH1 0x20 MSTORE PUSH1 0x40 PUSH0 KECCAK256 PUSH1 0x1 DUP3 ADD DUP1 DUP4 GT PUSH2 0x7F8 JUMPI PUSH0 MSTORE PUSH1 0x20 MSTORE PUSH1 0x40 PUSH0 KECCAK256 SLOAD PUSH1 0x2 DUP3 ADD DUP1 DUP4 GT PUSH2 0x7F8 JUMPI PUSH1 0xFF DUP2 GT PUSH2 0x7F8 JUMPI PUSH1 0x1 SWAP1 SHL GT PUSH2 0x8CA JUMPI JUMPDEST PUSH1 0x1 ADD PUSH2 0x86F JUMP JUMPDEST SWAP5 SWAP4 SWAP1 SWAP6 SWAP2 SWAP3 PUSH0 JUMPDEST DUP6 PUSH0 MSTORE PUSH1 0x13 PUSH1 0x20 MSTORE PUSH1 0x40 PUSH0 KECCAK256 DUP8 PUSH0 MSTORE PUSH1 0x20 MSTORE PUSH1 0x40 PUSH0 KECCAK256 SLOAD DUP2 LT ISZERO PUSH2 0x987 JUMPI DUP8 PUSH2 0x975 JUMPI DUP6 PUSH0 MSTORE PUSH1 0x13 PUSH1 0x20 MSTORE PUSH1 0x40 PUSH0 KECCAK256 DUP8 PUSH0 MSTORE PUSH1 0x20 MSTORE PUSH2 0x914 DUP2 PUSH1 0x40 PUSH0 KECCAK256 PUSH2 0x1F16 JUMP JUMPDEST SWAP1 SLOAD SWAP1 PUSH1 0x3 SHL SHR DUP1 PUSH0 MSTORE PUSH1 0x14 PUSH1 0x20 MSTORE PUSH1 0x2 PUSH1 0x40 PUSH0 KECCAK256 SLOAD LT PUSH2 0x939 JUMPI JUMPDEST POP PUSH1 0x1 ADD PUSH2 0x8D2 JUMP JUMPDEST SWAP2 SWAP5 POP SWAP7 POP DUP8 PUSH0 MSTORE PUSH1 0x10 PUSH1 0x20 MSTORE DUP1 PUSH1 0x5 PUSH1 0x40 PUSH0 KECCAK256 ADD SSTORE DUP1 PUSH0 MSTORE PUSH1 0x14 PUSH1 0x20 MSTORE PUSH1 0x40 PUSH0 KECCAK256 DUP1 SLOAD SWAP1 PUSH1 0x1 DUP3 ADD DUP1 SWAP3 GT PUSH2 0x7F8 JUMPI SSTORE SWAP3 PUSH1 0x1 DUP1 SWAP8 SWAP1 PUSH2 0x930 JUMP JUMPDEST POP SWAP3 SWAP2 SWAP6 SWAP1 SWAP4 SWAP5 PUSH1 0x1 SWAP1 JUMPDEST SWAP1 POP PUSH2 0x8C2 JUMP JUMPDEST POP SWAP3 SWAP2 SWAP6 SWAP1 SWAP4 SWAP5 PUSH1 0x1 SWAP1 PUSH2 0x980 JUMP JUMPDEST PUSH2 0x878 JUMP JUMPDEST PUSH2 0x9BC SWAP1 PUSH1 0x20 RETURNDATASIZE PUSH1 0x20 GT PUSH2 0x9C1 JUMPI JUMPDEST PUSH2 0x9B4 DUP2 DUP4 PUSH2 0x240A JUMP JUMPDEST DUP2 ADD SWAP1 PUSH2 0x2440 JUMP JUMPDEST PUSH2 0x4F1 JUMP JUMPDEST POP RETURNDATASIZE PUSH2 0x9AA JUMP JUMPDEST PUSH1 0x40 MLOAD RETURNDATASIZE PUSH0 DUP3 RETURNDATACOPY RETURNDATASIZE SWAP1 REVERT JUMPDEST PUSH1 0x40 MLOAD PUSH3 0x461BCD PUSH1 0xE5 SHL DUP2 MSTORE PUSH1 0x20 PUSH1 0x4 DUP3 ADD MSTORE PUSH1 0xF PUSH1 0x24 DUP3 ADD MSTORE PUSH15 0x24B73B30B634B21039B837B739B7B9 PUSH1 0x89 SHL PUSH1 0x44 DUP3 ADD MSTORE PUSH1 0x64 SWAP1 REVERT JUMPDEST PUSH1 0x40 MLOAD PUSH3 0x461BCD PUSH1 0xE5 SHL DUP2 MSTORE PUSH1 0x20 PUSH1 0x4 DUP3 ADD MSTORE PUSH1 0x12 PUSH1 0x24 DUP3 ADD MSTORE PUSH18 0x105B1C9958591E481C9959DA5CDD195C9959 PUSH1 0x72 SHL PUSH1 0x44 DUP3 ADD MSTORE PUSH1 0x64 SWAP1 REVERT JUMPDEST CALLVALUE PUSH2 0x37D JUMPI PUSH0 CALLDATASIZE PUSH1 0x3 NOT ADD SLT PUSH2 0x37D JUMPI PUSH1 0x20 PUSH1 0x5 SLOAD PUSH1 0x40 MLOAD SWAP1 DUP2 MSTORE RETURN JUMPDEST CALLVALUE PUSH2 0x37D JUMPI PUSH0 CALLDATASIZE PUSH1 0x3 NOT ADD SLT PUSH2 0x37D JUMPI PUSH1 0x20 PUSH1 0x40 MLOAD PUSH9 0x3635C9ADC5DEA00000 DUP2 MSTORE RETURN JUMPDEST CALLVALUE PUSH2 0x37D JUMPI PUSH0 CALLDATASIZE PUSH1 0x3 NOT ADD SLT PUSH2 0x37D JUMPI PUSH1 0x3 SLOAD PUSH1 0x40 MLOAD PUSH1 0x1 PUSH1 0x1 PUSH1 0xA0 SHL SUB SWAP1 SWAP2 AND DUP2 MSTORE PUSH1 0x20 SWAP1 RETURN JUMPDEST CALLVALUE PUSH2 0x37D JUMPI PUSH0 CALLDATASIZE PUSH1 0x3 NOT ADD SLT PUSH2 0x37D JUMPI PUSH1 0x20 PUSH1 0x41 SLOAD PUSH1 0x40 MLOAD SWAP1 DUP2 MSTORE RETURN JUMPDEST CALLVALUE PUSH2 0x37D JUMPI PUSH1 0x20 CALLDATASIZE PUSH1 0x3 NOT ADD SLT PUSH2 0x37D JUMPI PUSH1 0x4 CALLDATALOAD PUSH0 MSTORE PUSH1 0x4C PUSH1 0x20 MSTORE PUSH1 0x40 PUSH0 KECCAK256 DUP1 SLOAD PUSH2 0xB28 PUSH1 0x1 DUP4 ADD SLOAD SWAP3 PUSH1 0xFF PUSH1 0x4 PUSH1 0x2 DUP4 ADD SLOAD SWAP3 ADD SLOAD AND SWAP1 PUSH1 0x40 MLOAD SWAP5 DUP6 SWAP5 DUP6 SWAP3 PUSH1 0x60 SWAP3 SWAP6 SWAP5 SWAP2 SWAP6 PUSH1 0x80 DUP6 ADD SWAP7 DUP6 MSTORE PUSH1 0x20 DUP6 ADD MSTORE PUSH1 0x40 DUP5 ADD MSTORE ISZERO ISZERO SWAP2 ADD MSTORE JUMP JUMPDEST SUB SWAP1 RETURN JUMPDEST CALLVALUE PUSH2 0x37D JUMPI PUSH0 CALLDATASIZE PUSH1 0x3 NOT ADD SLT PUSH2 0x37D JUMPI PUSH1 0x20 PUSH1 0x40 MLOAD PUSH1 0x5 DUP2 MSTORE RETURN JUMPDEST CALLVALUE PUSH2 0x37D JUMPI PUSH1 0x20 CALLDATASIZE PUSH1 0x3 NOT ADD SLT PUSH2 0x37D JUMPI PUSH1 0x4 CALLDATALOAD PUSH1 0x8 DUP2 LT ISZERO PUSH2 0x37D JUMPI PUSH1 0x20 SWAP1 PUSH1 0x1F ADD SLOAD PUSH1 0x40 MLOAD SWAP1 DUP2 MSTORE RETURN JUMPDEST CALLVALUE PUSH2 0x37D JUMPI PUSH2 0xB81 CALLDATASIZE PUSH2 0x1E76 JUMP JUMPDEST SWAP1 PUSH0 MSTORE PUSH1 0x30 PUSH1 0x20 MSTORE PUSH1 0x40 PUSH0 KECCAK256 SWAP1 PUSH0 MSTORE PUSH1 0x20 MSTORE PUSH1 0x40 PUSH0 KECCAK256 DUP1 SLOAD PUSH2 0xB28 PUSH1 0x1 DUP4 ADD SLOAD SWAP3 PUSH1 0x2 DUP2 ADD SLOAD SWAP1 PUSH1 0x4 PUSH1 0x3 DUP3 ADD SLOAD SWAP2 ADD SLOAD SWAP2 PUSH1 0x40 MLOAD SWAP6 DUP7 SWAP6 DUP7 SWAP2 SWAP3 PUSH1 0x80 SWAP4 SWAP7 SWAP6 SWAP5 SWAP2 SWAP7 PUSH1 0xA0 DUP5 ADD SWAP8 DUP5 MSTORE PUSH1 0x20 DUP5 ADD MSTORE PUSH1 0x40 DUP4 ADD MSTORE PUSH1 0x60 DUP3 ADD MSTORE ADD MSTORE JUMP JUMPDEST CALLVALUE PUSH2 0x37D JUMPI PUSH1 0x20 CALLDATASIZE PUSH1 0x3 NOT ADD SLT PUSH2 0x37D JUMPI PUSH1 0x4 CALLDATALOAD PUSH1 0x1 PUSH1 0x1 PUSH1 0xA0 SHL SUB DUP2 AND SWAP1 DUP2 SWAP1 SUB PUSH2 0x37D JUMPI PUSH0 MSTORE PUSH1 0xF PUSH1 0x20 MSTORE PUSH1 0x20 PUSH1 0x40 PUSH0 KECCAK256 SLOAD PUSH1 0x40 MLOAD SWAP1 DUP2 MSTORE RETURN JUMPDEST CALLVALUE PUSH2 0x37D JUMPI PUSH0 CALLDATASIZE PUSH1 0x3 NOT ADD SLT PUSH2 0x37D JUMPI PUSH1 0x20 PUSH1 0x39 SLOAD PUSH1 0x40 MLOAD SWAP1 DUP2 MSTORE RETURN JUMPDEST CALLVALUE PUSH2 0x37D JUMPI PUSH0 CALLDATASIZE PUSH1 0x3 NOT ADD SLT PUSH2 0x37D JUMPI PUSH1 0x20 PUSH1 0x40 SLOAD PUSH1 0x40 MLOAD SWAP1 DUP2 MSTORE RETURN JUMPDEST CALLVALUE PUSH2 0x37D JUMPI PUSH0 CALLDATASIZE PUSH1 0x3 NOT ADD SLT PUSH2 0x37D JUMPI PUSH1 0x20 PUSH1 0x40 MLOAD PUSH10 0x21E19E0C9BAB2400000 DUP2 MSTORE RETURN JUMPDEST CALLVALUE PUSH2 0x37D JUMPI PUSH2 0xC86 CALLDATASIZE PUSH2 0x1E76 JUMP JUMPDEST SWAP1 PUSH0 MSTORE PUSH1 0x37 PUSH1 0x20 MSTORE PUSH1 0x40 PUSH0 KECCAK256 DUP1 SLOAD DUP3 LT ISZERO PUSH2 0x37D JUMPI PUSH1 0x20 SWAP2 PUSH2 0x3B0 SWAP2 PUSH2 0x1F16 JUMP JUMPDEST CALLVALUE PUSH2 0x37D JUMPI PUSH1 0x20 CALLDATASIZE PUSH1 0x3 NOT ADD SLT PUSH2 0x37D JUMPI PUSH1 0x4 CALLDATALOAD PUSH0 MSTORE PUSH1 0x3C PUSH1 0x20 MSTORE PUSH1 0x40 PUSH0 KECCAK256 DUP1 SLOAD PUSH2 0xB28 PUSH1 0x1 DUP4 ADD SLOAD SWAP3 PUSH1 0x2 DUP2 ADD SLOAD SWAP1 PUSH1 0x3 DUP2 ADD SLOAD PUSH1 0x4 DUP3 ADD SLOAD PUSH1 0x5 DUP4 ADD SLOAD SWAP1 PUSH1 0x6 DUP5 ADD SLOAD SWAP3 PUSH1 0xFF PUSH1 0x8 PUSH1 0x7 DUP8 ADD SLOAD SWAP7 ADD SLOAD AND SWAP6 PUSH1 0x40 MLOAD SWAP10 DUP11 SWAP10 DUP11 PUSH2 0x1E8C JUMP JUMPDEST CALLVALUE PUSH2 0x37D JUMPI PUSH1 0x20 CALLDATASIZE PUSH1 0x3 NOT ADD SLT PUSH2 0x37D JUMPI PUSH1 0x4 CALLDATALOAD PUSH1 0xD SLOAD DUP2 LT ISZERO PUSH2 0x37D JUMPI PUSH2 0x3B0 PUSH1 0x20 SWAP2 PUSH2 0x1ECC JUMP JUMPDEST CALLVALUE PUSH2 0x37D JUMPI PUSH0 CALLDATASIZE PUSH1 0x3 NOT ADD SLT PUSH2 0x37D JUMPI PUSH1 0x20 PUSH1 0x6 SLOAD PUSH1 0x40 MLOAD SWAP1 DUP2 MSTORE RETURN JUMPDEST CALLVALUE PUSH2 0x37D JUMPI PUSH2 0xD5B CALLDATASIZE PUSH2 0x1E76 JUMP JUMPDEST SWAP1 PUSH0 MSTORE PUSH1 0x2F PUSH1 0x20 MSTORE PUSH1 0x40 PUSH0 KECCAK256 SWAP1 PUSH0 MSTORE PUSH1 0x20 MSTORE PUSH1 0x40 DUP1 PUSH0 KECCAK256 PUSH1 0x1 DUP2 SLOAD SWAP2 ADD SLOAD DUP3 MLOAD SWAP2 DUP3 MSTORE PUSH1 0x20 DUP3 ADD MSTORE RETURN JUMPDEST CALLVALUE PUSH2 0x37D JUMPI PUSH2 0xD93 CALLDATASIZE PUSH2 0x1E76 JUMP JUMPDEST SWAP1 PUSH0 MSTORE PUSH1 0x34 PUSH1 0x20 MSTORE PUSH1 0x40 PUSH0 KECCAK256 SWAP1 PUSH0 MSTORE PUSH1 0x20 MSTORE PUSH1 0x20 PUSH1 0xFF PUSH1 0x40 PUSH0 KECCAK256 SLOAD AND PUSH1 0x40 MLOAD SWAP1 ISZERO ISZERO DUP2 MSTORE RETURN JUMPDEST CALLVALUE PUSH2 0x37D JUMPI PUSH1 0x20 CALLDATASIZE PUSH1 0x3 NOT ADD SLT PUSH2 0x37D JUMPI PUSH1 0x4 CALLDATALOAD PUSH1 0x16 SLOAD DUP2 LT ISZERO PUSH2 0x37D JUMPI PUSH1 0x16 SLOAD DUP2 LT ISZERO PUSH2 0x441 JUMPI PUSH1 0x16 PUSH0 MSTORE PUSH32 0xD833147D7DC355BA459FC788F669E58CFAF9DC25DDCD0702E87D69C7B5124289 ADD SLOAD PUSH1 0x40 MLOAD SWAP1 DUP2 MSTORE PUSH1 0x20 SWAP1 RETURN JUMPDEST CALLVALUE PUSH2 0x37D JUMPI PUSH0 CALLDATASIZE PUSH1 0x3 NOT ADD SLT PUSH2 0x37D JUMPI PUSH1 0x20 PUSH1 0x40 MLOAD PUSH3 0x83D600 DUP2 MSTORE RETURN JUMPDEST CALLVALUE PUSH2 0x37D JUMPI PUSH0 CALLDATASIZE PUSH1 0x3 NOT ADD SLT PUSH2 0x37D JUMPI PUSH1 0x20 PUSH1 0x42 SLOAD PUSH1 0x40 MLOAD SWAP1 DUP2 MSTORE RETURN JUMPDEST CALLVALUE PUSH2 0x37D JUMPI PUSH2 0xE5B CALLDATASIZE PUSH2 0x1E76 JUMP JUMPDEST SWAP1 PUSH0 MSTORE PUSH1 0x38 PUSH1 0x20 MSTORE PUSH1 0x40 PUSH0 KECCAK256 SWAP1 PUSH0 MSTORE PUSH1 0x20 MSTORE PUSH1 0x20 PUSH1 0xFF PUSH1 0x40 PUSH0 KECCAK256 SLOAD AND PUSH1 0x40 MLOAD SWAP1 ISZERO ISZERO DUP2 MSTORE RETURN JUMPDEST CALLVALUE PUSH2 0x37D JUMPI PUSH0 CALLDATASIZE PUSH1 0x3 NOT ADD SLT PUSH2 0x37D JUMPI PUSH1 0x20 PUSH1 0x48 SLOAD PUSH1 0x40 MLOAD SWAP1 DUP2 MSTORE RETURN JUMPDEST CALLVALUE PUSH2 0x37D JUMPI PUSH1 0x20 CALLDATASIZE PUSH1 0x3 NOT ADD SLT PUSH2 0x37D JUMPI PUSH1 0x4 CALLDATALOAD PUSH1 0x8 DUP2 LT ISZERO PUSH2 0x37D JUMPI PUSH1 0x20 SWAP1 PUSH1 0x27 ADD SLOAD PUSH1 0x40 MLOAD SWAP1 DUP2 MSTORE RETURN JUMPDEST CALLVALUE PUSH2 0x37D JUMPI PUSH2 0xED8 CALLDATASIZE PUSH2 0x1E76 JUMP JUMPDEST SWAP1 PUSH0 MSTORE PUSH1 0x35 PUSH1 0x20 MSTORE PUSH1 0x40 PUSH0 KECCAK256 SWAP1 PUSH0 MSTORE PUSH1 0x20 MSTORE PUSH1 0x40 PUSH0 KECCAK256 DUP1 SLOAD PUSH2 0xB28 PUSH1 0x1 DUP4 ADD SLOAD SWAP3 PUSH1 0x2 DUP2 ADD SLOAD SWAP1 PUSH1 0x4 PUSH1 0x3 DUP3 ADD SLOAD SWAP2 ADD SLOAD SWAP2 PUSH1 0x40 MLOAD SWAP6 DUP7 SWAP6 DUP7 SWAP2 SWAP3 PUSH1 0x80 SWAP4 SWAP7 SWAP6 SWAP5 SWAP2 SWAP7 PUSH1 0xA0 DUP5 ADD SWAP8 DUP5 MSTORE PUSH1 0x20 DUP5 ADD MSTORE PUSH1 0x40 DUP4 ADD MSTORE PUSH1 0x60 DUP3 ADD MSTORE ADD MSTORE JUMP JUMPDEST CALLVALUE PUSH2 0x37D JUMPI PUSH2 0xF43 CALLDATASIZE PUSH2 0x1F2B JUMP JUMPDEST SWAP2 PUSH0 MSTORE PUSH1 0x31 PUSH1 0x20 MSTORE PUSH1 0x40 PUSH0 KECCAK256 SWAP1 PUSH0 MSTORE PUSH1 0x20 MSTORE PUSH1 0x40 PUSH0 KECCAK256 DUP1 SLOAD DUP3 LT ISZERO PUSH2 0x37D JUMPI PUSH1 0x20 SWAP2 PUSH2 0x3B0 SWAP2 PUSH2 0x1F16 JUMP JUMPDEST CALLVALUE PUSH2 0x37D JUMPI PUSH2 0xF7C CALLDATASIZE PUSH2 0x1F2B JUMP JUMPDEST SWAP2 PUSH0 MSTORE PUSH1 0x32 PUSH1 0x20 MSTORE PUSH1 0x40 PUSH0 KECCAK256 SWAP1 PUSH0 MSTORE PUSH1 0x20 MSTORE PUSH1 0x40 PUSH0 KECCAK256 DUP1 SLOAD DUP3 LT ISZERO PUSH2 0x37D JUMPI PUSH1 0x20 SWAP2 PUSH2 0x3B0 SWAP2 PUSH2 0x1F16 JUMP JUMPDEST CALLVALUE PUSH2 0x37D JUMPI PUSH2 0xFB5 CALLDATASIZE PUSH2 0x1E76 JUMP JUMPDEST SWAP1 PUSH0 MSTORE PUSH1 0xB PUSH1 0x20 MSTORE PUSH1 0x40 PUSH0 KECCAK256 SWAP1 PUSH0 MSTORE PUSH1 0x20 MSTORE PUSH1 0x20 PUSH1 0x40 PUSH0 KECCAK256 SLOAD PUSH1 0x40 MLOAD SWAP1 DUP2 MSTORE RETURN JUMPDEST CALLVALUE PUSH2 0x37D JUMPI PUSH1 0x20 CALLDATASIZE PUSH1 0x3 NOT ADD SLT PUSH2 0x37D JUMPI PUSH1 0x4 CALLDATALOAD PUSH0 MSTORE PUSH1 0x14 PUSH1 0x20 MSTORE PUSH1 0x20 PUSH1 0x40 PUSH0 KECCAK256 SLOAD PUSH1 0x40 MLOAD SWAP1 DUP2 MSTORE RETURN JUMPDEST CALLVALUE PUSH2 0x37D JUMPI PUSH0 CALLDATASIZE PUSH1 0x3 NOT ADD SLT PUSH2 0x37D JUMPI PUSH1 0x2 SLOAD PUSH1 0x40 MLOAD PUSH1 0x1 PUSH1 0x1 PUSH1 0xA0 SHL SUB SWAP1 SWAP2 AND DUP2 MSTORE PUSH1 0x20 SWAP1 RETURN JUMPDEST CALLVALUE PUSH2 0x37D JUMPI PUSH0 CALLDATASIZE PUSH1 0x3 NOT ADD SLT PUSH2 0x37D JUMPI PUSH1 0x20 PUSH1 0x9 SLOAD PUSH1 0x40 MLOAD SWAP1 DUP2 MSTORE RETURN JUMPDEST CALLVALUE PUSH2 0x37D JUMPI PUSH0 CALLDATASIZE PUSH1 0x3 NOT ADD SLT PUSH2 0x37D JUMPI PUSH1 0x20 PUSH1 0x40 MLOAD PUSH3 0x93A80 DUP2 MSTORE RETURN JUMPDEST CALLVALUE PUSH2 0x37D JUMPI PUSH2 0x1070 CALLDATASIZE PUSH2 0x1E76 JUMP JUMPDEST SWAP1 PUSH0 MSTORE PUSH1 0x12 PUSH1 0x20 MSTORE PUSH1 0x40 PUSH0 KECCAK256 DUP1 SLOAD DUP3 LT ISZERO PUSH2 0x37D JUMPI PUSH0 MSTORE PUSH1 0x5 PUSH1 0x20 PUSH0 KECCAK256 SWAP2 MUL ADD DUP1 SLOAD PUSH2 0xB28 PUSH1 0x1 DUP4 ADD SLOAD SWAP3 PUSH1 0x2 DUP2 ADD SLOAD SWAP1 PUSH1 0x4 PUSH1 0x3 DUP3 ADD SLOAD SWAP2 ADD SLOAD SWAP2 PUSH1 0x40 MLOAD SWAP6 DUP7 SWAP6 DUP7 SWAP2 SWAP3 PUSH1 0x80 SWAP4 SWAP7 SWAP6 SWAP5 SWAP2 SWAP7 PUSH1 0xA0 DUP5 ADD SWAP8 DUP5 MSTORE PUSH1 0x20 DUP5 ADD MSTORE PUSH1 0x40 DUP4 ADD MSTORE PUSH1 0x60 DUP3 ADD MSTORE ADD MSTORE JUMP JUMPDEST CALLVALUE PUSH2 0x37D JUMPI PUSH0 CALLDATASIZE PUSH1 0x3 NOT ADD SLT PUSH2 0x37D JUMPI PUSH1 0x20 PUSH1 0x40 MLOAD PUSH4 0x2514300 DUP2 MSTORE RETURN JUMPDEST CALLVALUE PUSH2 0x37D JUMPI PUSH1 0x20 CALLDATASIZE PUSH1 0x3 NOT ADD SLT PUSH2 0x37D JUMPI PUSH1 0x4 CALLDATALOAD PUSH0 MSTORE PUSH1 0x43 PUSH1 0x20 MSTORE PUSH1 0x40 PUSH0 KECCAK256 DUP1 SLOAD PUSH2 0xB28 PUSH1 0x1 DUP4 ADD SLOAD SWAP3 PUSH1 0x2 DUP2 ADD SLOAD SWAP1 PUSH1 0x3 DUP2 ADD SLOAD PUSH1 0x4 DUP3 ADD SLOAD PUSH1 0x5 DUP4 ADD SLOAD SWAP1 PUSH1 0x6 DUP5 ADD SLOAD SWAP3 PUSH1 0xFF PUSH1 0x8 PUSH1 0x7 DUP8 ADD SLOAD SWAP7 ADD SLOAD AND SWAP6 PUSH1 0x40 MLOAD SWAP10 DUP11 SWAP10 DUP11 PUSH2 0x1E8C JUMP JUMPDEST CALLVALUE PUSH2 0x37D JUMPI PUSH2 0x1163 CALLDATASIZE PUSH2 0x1E76 JUMP JUMPDEST SWAP1 PUSH0 MSTORE PUSH1 0x15 PUSH1 0x20 MSTORE PUSH1 0x40 PUSH0 KECCAK256 DUP1 SLOAD DUP3 LT ISZERO PUSH2 0x37D JUMPI PUSH1 0x20 SWAP2 PUSH2 0x3B0 SWAP2 PUSH2 0x1F16 JUMP JUMPDEST CALLVALUE PUSH2 0x37D JUMPI PUSH0 CALLDATASIZE PUSH1 0x3 NOT ADD SLT PUSH2 0x37D JUMPI PUSH1 0x20 PUSH1 0x49 SLOAD PUSH1 0x40 MLOAD SWAP1 DUP2 MSTORE RETURN JUMPDEST CALLVALUE PUSH2 0x37D JUMPI PUSH2 0x11AF CALLDATASIZE PUSH2 0x1E76 JUMP JUMPDEST PUSH0 SWAP2 DUP3 MSTORE PUSH1 0xE PUSH1 0x20 SWAP1 DUP2 MSTORE PUSH1 0x40 DUP1 DUP5 KECCAK256 SWAP3 DUP5 MSTORE SWAP2 DUP2 MSTORE SWAP2 DUP2 SWAP1 KECCAK256 DUP1 SLOAD PUSH1 0x1 DUP3 ADD SLOAD PUSH1 0x2 DUP4 ADD SLOAD PUSH1 0x3 SWAP1 SWAP4 ADD SLOAD DUP5 MLOAD SWAP3 DUP4 MSTORE SWAP5 DUP3 ADD MSTORE SWAP2 DUP3 ADD MSTORE PUSH1 0xFF DUP1 DUP4 AND ISZERO ISZERO PUSH1 0x60 DUP4 ADD MSTORE PUSH1 0x8 SWAP3 SWAP1 SWAP3 SHR SWAP1 SWAP2 AND ISZERO ISZERO PUSH1 0x80 DUP3 ADD MSTORE PUSH1 0xA0 SWAP1 RETURN JUMPDEST CALLVALUE PUSH2 0x37D JUMPI PUSH2 0x1217 CALLDATASIZE PUSH2 0x1F2B JUMP JUMPDEST SWAP2 PUSH0 MSTORE PUSH1 0x13 PUSH1 0x20 MSTORE PUSH1 0x40 PUSH0 KECCAK256 SWAP1 PUSH0 MSTORE PUSH1 0x20 MSTORE PUSH1 0x40 PUSH0 KECCAK256 DUP1 SLOAD DUP3 LT ISZERO PUSH2 0x37D JUMPI PUSH1 0x20 SWAP2 PUSH2 0x3B0 SWAP2 PUSH2 0x1F16 JUMP JUMPDEST PUSH2 0x1F45 JUMP JUMPDEST CALLVALUE PUSH2 0x37D JUMPI PUSH1 0x40 PUSH2 0x1260 PUSH2 0x125A CALLDATASIZE PUSH2 0x1E76 JUMP JUMPDEST SWAP1 PUSH2 0x2478 JUMP JUMPDEST DUP3 MLOAD SWAP2 DUP3 MSTORE PUSH1 0x20 DUP3 ADD MSTORE RETURN JUMPDEST CALLVALUE PUSH2 0x37D JUMPI PUSH2 0x127A CALLDATASIZE PUSH2 0x1F2B JUMP JUMPDEST SWAP2 PUSH0 MSTORE PUSH1 0x3F PUSH1 0x20 MSTORE PUSH1 0x40 PUSH0 KECCAK256 SWAP1 PUSH0 MSTORE PUSH1 0x20 MSTORE PUSH1 0x40 PUSH0 KECCAK256 DUP1 SLOAD DUP3 LT ISZERO PUSH2 0x37D JUMPI PUSH1 0x20 SWAP2 PUSH2 0x3B0 SWAP2 PUSH2 0x1F16 JUMP JUMPDEST CALLVALUE PUSH2 0x37D JUMPI PUSH2 0x12B3 CALLDATASIZE PUSH2 0x1E76 JUMP JUMPDEST SWAP1 PUSH0 MSTORE PUSH1 0x4D PUSH1 0x20 MSTORE PUSH1 0x40 PUSH0 KECCAK256 DUP1 SLOAD DUP3 LT ISZERO PUSH2 0x37D JUMPI PUSH1 0x20 SWAP2 PUSH2 0x3B0 SWAP2 PUSH2 0x1F16 JUMP JUMPDEST CALLVALUE PUSH2 0x37D JUMPI PUSH0 CALLDATASIZE PUSH1 0x3 NOT ADD SLT PUSH2 0x37D JUMPI PUSH1 0x20 PUSH1 0x47 SLOAD PUSH1 0x40 MLOAD SWAP1 DUP2 MSTORE RETURN JUMPDEST CALLVALUE PUSH2 0x37D JUMPI PUSH1 0x20 CALLDATASIZE PUSH1 0x3 NOT ADD SLT PUSH2 0x37D JUMPI PUSH1 0x4 CALLDATALOAD PUSH0 MSTORE PUSH1 0x11 PUSH1 0x20 MSTORE PUSH2 0x180 PUSH1 0x40 PUSH0 KECCAK256 DUP1 SLOAD SWAP1 PUSH1 0x1 DUP2 ADD SLOAD SWAP1 PUSH1 0x2 DUP2 ADD SLOAD PUSH1 0x3 DUP3 ADD SLOAD PUSH1 0x4 DUP4 ADD SLOAD PUSH1 0x5 DUP5 ADD SLOAD PUSH1 0x6 DUP6 ADD SLOAD SWAP1 PUSH1 0x7 DUP7 ADD SLOAD SWAP3 PUSH1 0x8 DUP8 ADD SLOAD SWAP5 PUSH1 0x9 DUP9 ADD SLOAD SWAP7 PUSH1 0xB PUSH1 0xA DUP11 ADD SLOAD SWAP10 ADD SLOAD SWAP10 PUSH1 0x40 MLOAD SWAP12 DUP13 MSTORE PUSH1 0x20 DUP13 ADD MSTORE PUSH1 0x40 DUP12 ADD MSTORE PUSH1 0x60 DUP11 ADD MSTORE PUSH1 0x80 DUP10 ADD MSTORE PUSH1 0xA0 DUP9 ADD MSTORE PUSH1 0xC0 DUP8 ADD MSTORE PUSH1 0xE0 DUP7 ADD MSTORE PUSH2 0x100 DUP6 ADD MSTORE PUSH2 0x120 DUP5 ADD MSTORE PUSH2 0x140 DUP4 ADD MSTORE PUSH2 0x160 DUP3 ADD MSTORE RETURN JUMPDEST CALLVALUE PUSH2 0x37D JUMPI PUSH1 0x20 CALLDATASIZE PUSH1 0x3 NOT ADD SLT PUSH2 0x37D JUMPI PUSH1 0x4 CALLDATALOAD PUSH0 MSTORE PUSH1 0xA PUSH1 0x20 MSTORE PUSH1 0x20 PUSH1 0x40 PUSH0 KECCAK256 SLOAD PUSH1 0x40 MLOAD SWAP1 DUP2 MSTORE RETURN JUMPDEST CALLVALUE PUSH2 0x37D JUMPI PUSH1 0x20 CALLDATASIZE PUSH1 0x3 NOT ADD SLT PUSH2 0x37D JUMPI PUSH1 0x4 CALLDATALOAD DUP1 PUSH0 MSTORE PUSH1 0x10 PUSH1 0x20 MSTORE PUSH1 0x40 PUSH0 KECCAK256 PUSH2 0x13F4 PUSH1 0x1 DUP1 PUSH1 0xA0 SHL SUB DUP3 SLOAD AND CALLER EQ PUSH2 0x1F7B JUMP JUMPDEST PUSH1 0x6 DUP2 ADD DUP1 SLOAD SWAP2 PUSH1 0xF DUP4 LT ISZERO PUSH2 0x184B JUMPI PUSH2 0x140D DUP4 PUSH2 0x1ECC JUMP JUMPDEST SWAP1 SLOAD PUSH1 0x1 SLOAD PUSH1 0x40 MLOAD PUSH4 0x23B872DD PUSH1 0xE0 SHL DUP2 MSTORE CALLER PUSH1 0x4 DUP3 ADD MSTORE ADDRESS PUSH1 0x24 DUP3 ADD MSTORE PUSH1 0x3 SWAP4 SWAP1 SWAP4 SHL SWAP2 SWAP1 SWAP2 SHR PUSH1 0x44 DUP4 ADD DUP2 SWAP1 MSTORE SWAP4 SWAP2 SWAP1 PUSH1 0x20 SWAP1 DUP3 SWAP1 PUSH1 0x64 SWAP1 DUP3 SWAP1 PUSH0 SWAP1 PUSH1 0x1 PUSH1 0x1 PUSH1 0xA0 SHL SUB AND GAS CALL DUP1 ISZERO PUSH2 0x9C8 JUMPI PUSH2 0x182E JUMPI JUMPDEST POP DUP1 SLOAD SWAP1 PUSH1 0x1 DUP3 ADD DUP1 SWAP3 GT PUSH2 0x7F8 JUMPI SSTORE PUSH1 0xA DUP2 ADD PUSH2 0x1480 DUP4 DUP3 SLOAD PUSH2 0x2458 JUMP JUMPDEST SWAP1 SSTORE DUP4 PUSH0 MSTORE PUSH1 0xE PUSH1 0x20 MSTORE PUSH1 0x40 PUSH0 KECCAK256 DUP3 PUSH0 MSTORE PUSH1 0x20 MSTORE PUSH1 0x3 PUSH1 0x40 PUSH0 KECCAK256 ADD PUSH1 0x1 PUSH1 0xFF NOT DUP3 SLOAD AND OR SWAP1 SSTORE PUSH1 0x5 DUP3 MUL SWAP1 DUP3 ISZERO SWAP2 DUP4 DUP2 DIV PUSH1 0x5 EQ DUP4 OR ISZERO PUSH2 0x7F8 JUMPI PUSH1 0x64 SWAP1 DIV SWAP2 PUSH1 0x19 DUP5 MUL DUP5 DUP2 DIV PUSH1 0x19 EQ DUP3 OR ISZERO PUSH2 0x7F8 JUMPI DUP5 PUSH1 0x64 PUSH2 0x14DE SWAP3 DIV PUSH2 0x2816 JUMP JUMPDEST DUP4 PUSH0 MSTORE PUSH1 0xA PUSH1 0x20 MSTORE PUSH1 0x40 PUSH0 KECCAK256 SLOAD DUP5 PUSH0 MSTORE PUSH1 0xB PUSH1 0x20 MSTORE PUSH1 0x40 PUSH0 KECCAK256 DUP8 PUSH0 MSTORE PUSH1 0x20 MSTORE PUSH1 0x40 PUSH0 KECCAK256 SSTORE PUSH2 0x150B DUP4 PUSH2 0x275A JUMP JUMPDEST DUP4 PUSH0 MSTORE PUSH1 0xC PUSH1 0x20 MSTORE PUSH1 0x40 PUSH0 KECCAK256 DUP1 SLOAD SWAP1 PUSH1 0x1 DUP3 ADD DUP1 SWAP3 GT PUSH2 0x7F8 JUMPI SSTORE PUSH1 0x14 DUP5 MUL DUP5 DUP2 DIV PUSH1 0x14 EQ DUP3 OR ISZERO PUSH2 0x7F8 JUMPI PUSH1 0x64 SWAP1 DIV PUSH1 0x4 DUP4 ADD SWAP4 DUP5 SLOAD SWAP2 PUSH1 0x1 DUP9 ADD SWAP8 DUP9 DUP2 GT PUSH2 0x7F8 JUMPI DUP9 DUP3 PUSH2 0x1563 DUP3 PUSH2 0x157B SWAP6 DUP15 PUSH2 0x1583 SWAP10 PUSH2 0x28B7 JUMP JUMPDEST DUP12 PUSH1 0x5 DUP10 ADD PUSH2 0x1575 DUP5 DUP5 DUP5 DUP5 SLOAD PUSH2 0x28F6 JUMP JUMPDEST SLOAD PUSH2 0x2BA8 JUMP JUMPDEST PUSH1 0x3B SLOAD PUSH2 0x2458 JUMP JUMPDEST PUSH1 0x3B SSTORE PUSH1 0x23 DUP5 MUL DUP5 DUP2 DIV PUSH1 0x23 EQ DUP3 OR ISZERO PUSH2 0x7F8 JUMPI PUSH2 0x3E8 PUSH2 0x15A7 SWAP2 DIV PUSH1 0x42 SLOAD PUSH2 0x2458 JUMP JUMPDEST PUSH1 0x42 SSTORE PUSH1 0xF DUP5 MUL SWAP1 DUP5 DUP3 DIV PUSH1 0xF EQ OR ISZERO PUSH2 0x7F8 JUMPI PUSH2 0x3E8 PUSH2 0x15CB SWAP2 DIV PUSH1 0x49 SLOAD PUSH2 0x2458 JUMP JUMPDEST PUSH1 0x49 SSTORE PUSH1 0xA DUP5 EQ PUSH2 0x1748 JUMPI JUMPDEST PUSH1 0xF DUP5 EQ PUSH2 0x1654 JUMPI JUMPDEST POP POP PUSH1 0x40 MLOAD SWAP2 DUP3 MSTORE PUSH1 0x20 DUP3 ADD MSTORE PUSH1 0x80 PUSH1 0x40 DUP3 ADD MSTORE PUSH32 0x26ADB22CEC823EF144935E9FBEF1B6B4A3A29DACBE5444D59292FA2620F3D377 PUSH2 0x1645 PUSH1 0x80 DUP4 ADD PUSH1 0x40 SWAP1 PUSH1 0x15 DUP2 MSTORE PUSH21 0x53706F6E736F727368697020537472756374757265 PUSH1 0x58 SHL PUSH1 0x20 DUP3 ADD MSTORE ADD SWAP1 JUMP JUMPDEST SWAP2 TIMESTAMP PUSH1 0x60 DUP3 ADD MSTORE DUP1 CALLER SWAP4 SUB SWAP1 LOG3 STOP JUMPDEST PUSH1 0x13 TIMESTAMP SWAP2 ADD SSTORE DUP4 PUSH0 MSTORE PUSH1 0x10 PUSH1 0x20 MSTORE PUSH1 0x40 PUSH0 KECCAK256 SWAP1 SLOAD PUSH0 MSTORE PUSH1 0x10 PUSH1 0x20 MSTORE PUSH1 0x40 PUSH0 KECCAK256 PUSH1 0x15 DUP2 ADD DUP1 SLOAD PUSH1 0x1 DUP2 ADD DUP1 SWAP2 GT PUSH2 0x7F8 JUMPI DUP1 PUSH1 0x2 SWAP3 SSTORE LT ISZERO SWAP1 DUP2 PUSH2 0x172A JUMPI JUMPDEST DUP2 PUSH2 0x171A JUMPI JUMPDEST POP PUSH2 0x1704 JUMPI JUMPDEST PUSH1 0x2 PUSH1 0x15 DUP3 ADD SLOAD LT ISZERO SWAP1 DUP2 PUSH2 0x16E1 JUMPI JUMPDEST DUP2 PUSH2 0x16D2 JUMPI JUMPDEST POP PUSH2 0x16C1 JUMPI JUMPDEST DUP4 DUP1 PUSH2 0x15E0 JUMP JUMPDEST PUSH2 0x16CD PUSH1 0x47 SLOAD DUP5 PUSH2 0x30D3 JUMP JUMPDEST PUSH2 0x16BA JUMP JUMPDEST PUSH1 0xF SWAP2 POP PUSH1 0x6 ADD SLOAD EQ DUP5 PUSH2 0x16B4 JUMP JUMPDEST SWAP1 POP PUSH1 0x13 DUP2 ADD SLOAD PUSH1 0x11 DUP3 ADD SLOAD SWAP1 PUSH4 0x2514300 DUP3 ADD DUP1 SWAP3 GT PUSH2 0x7F8 JUMPI GT ISZERO SWAP1 PUSH2 0x16AE JUMP JUMPDEST PUSH2 0x1715 PUSH1 0x4 DUP3 ADD SLOAD PUSH1 0x47 SLOAD SWAP1 PUSH2 0x30D3 JUMP JUMPDEST PUSH2 0x169E JUMP JUMPDEST PUSH1 0xF SWAP2 POP PUSH1 0x6 ADD SLOAD LT ISZERO DUP6 PUSH2 0x1698 JUMP JUMPDEST SWAP1 POP PUSH1 0x11 DUP2 ADD SLOAD PUSH4 0x2514300 DUP2 ADD DUP1 SWAP2 GT PUSH2 0x7F8 JUMPI TIMESTAMP GT ISZERO SWAP1 PUSH2 0x1692 JUMP JUMPDEST TIMESTAMP PUSH1 0x12 DUP3 ADD SSTORE PUSH0 DUP6 DUP2 MSTORE PUSH1 0x10 PUSH1 0x20 MSTORE PUSH1 0x40 DUP1 DUP3 KECCAK256 DUP5 SLOAD DUP4 MSTORE SWAP2 KECCAK256 PUSH1 0x14 DUP2 ADD DUP1 SLOAD PUSH1 0x1 DUP2 ADD SWAP1 DUP2 LT PUSH2 0x7F8 JUMPI DUP1 PUSH1 0x5 SWAP3 SSTORE LT ISZERO SWAP1 DUP2 PUSH2 0x1811 JUMPI JUMPDEST DUP2 PUSH2 0x1801 JUMPI JUMPDEST POP PUSH2 0x17EB JUMPI JUMPDEST PUSH1 0x5 PUSH1 0x14 DUP3 ADD SLOAD LT ISZERO SWAP1 DUP2 PUSH2 0x17C9 JUMPI JUMPDEST DUP2 PUSH2 0x17BA JUMPI JUMPDEST POP ISZERO PUSH2 0x15D7 JUMPI PUSH2 0x17B5 PUSH1 0x40 SLOAD DUP7 PUSH2 0x2F3D JUMP JUMPDEST PUSH2 0x15D7 JUMP JUMPDEST PUSH1 0xA SWAP2 POP PUSH1 0x6 ADD SLOAD EQ DUP7 PUSH2 0x17A3 JUMP JUMPDEST SWAP1 POP PUSH1 0x12 DUP2 ADD SLOAD PUSH1 0x11 DUP3 ADD SLOAD SWAP1 PUSH3 0x83D600 DUP3 ADD DUP1 SWAP3 GT PUSH2 0x7F8 JUMPI GT ISZERO SWAP1 PUSH2 0x179D JUMP JUMPDEST PUSH2 0x17FC PUSH1 0x4 DUP3 ADD SLOAD PUSH1 0x40 SLOAD SWAP1 PUSH2 0x2F3D JUMP JUMPDEST PUSH2 0x178D JUMP JUMPDEST PUSH1 0xA SWAP2 POP PUSH1 0x6 ADD SLOAD LT ISZERO DUP8 PUSH2 0x1787 JUMP JUMPDEST SWAP1 POP PUSH1 0x11 DUP2 ADD SLOAD PUSH3 0x83D600 DUP2 ADD DUP1 SWAP2 GT PUSH2 0x7F8 JUMPI TIMESTAMP GT ISZERO SWAP1 PUSH2 0x1781 JUMP JUMPDEST PUSH2 0x1846 SWAP1 PUSH1 0x20 RETURNDATASIZE PUSH1 0x20 GT PUSH2 0x9C1 JUMPI PUSH2 0x9B4 DUP2 DUP4 PUSH2 0x240A JUMP JUMPDEST PUSH2 0x1461 JUMP JUMPDEST PUSH1 0x40 MLOAD PUSH3 0x461BCD PUSH1 0xE5 SHL DUP2 MSTORE PUSH1 0x20 PUSH1 0x4 DUP3 ADD MSTORE PUSH1 0x14 PUSH1 0x24 DUP3 ADD MSTORE PUSH20 0x105B1C9958591E48185D081B585E081B195D995B PUSH1 0x62 SHL PUSH1 0x44 DUP3 ADD MSTORE PUSH1 0x64 SWAP1 REVERT JUMPDEST CALLVALUE PUSH2 0x37D JUMPI PUSH1 0x20 CALLDATASIZE PUSH1 0x3 NOT ADD SLT PUSH2 0x37D JUMPI PUSH1 0x4 CALLDATALOAD PUSH0 MSTORE PUSH1 0x45 PUSH1 0x20 MSTORE PUSH1 0x40 PUSH0 KECCAK256 DUP1 SLOAD PUSH2 0xB28 PUSH1 0x1 DUP4 ADD SLOAD SWAP3 PUSH1 0xFF PUSH1 0x4 PUSH1 0x2 DUP4 ADD SLOAD SWAP3 ADD SLOAD AND SWAP1 PUSH1 0x40 MLOAD SWAP5 DUP6 SWAP5 DUP6 SWAP3 PUSH1 0x60 SWAP3 SWAP6 SWAP5 SWAP2 SWAP6 PUSH1 0x80 DUP6 ADD SWAP7 DUP6 MSTORE PUSH1 0x20 DUP6 ADD MSTORE PUSH1 0x40 DUP5 ADD MSTORE ISZERO ISZERO SWAP2 ADD MSTORE JUMP JUMPDEST CALLVALUE PUSH2 0x37D JUMPI PUSH0 CALLDATASIZE PUSH1 0x3 NOT ADD SLT PUSH2 0x37D JUMPI PUSH1 0x20 PUSH1 0x40 MLOAD PUSH3 0x2A300 DUP2 MSTORE RETURN JUMPDEST CALLVALUE PUSH2 0x37D JUMPI PUSH1 0x20 CALLDATASIZE PUSH1 0x3 NOT ADD SLT PUSH2 0x37D JUMPI PUSH1 0x4 CALLDATALOAD PUSH1 0x7 SLOAD DUP2 LT ISZERO PUSH2 0x37D JUMPI PUSH1 0x7 SLOAD DUP2 LT ISZERO PUSH2 0x441 JUMPI PUSH1 0x7 PUSH0 MSTORE PUSH32 0xA66CC928B5EDB82AF9BD49922954155AB7B0942694BEA4CE44661D9A8736C688 ADD SLOAD PUSH1 0x40 MLOAD SWAP1 DUP2 MSTORE PUSH1 0x20 SWAP1 RETURN JUMPDEST PUSH2 0x1F60 JUMP JUMPDEST CALLVALUE PUSH2 0x37D JUMPI PUSH1 0x20 CALLDATASIZE PUSH1 0x3 NOT ADD SLT PUSH2 0x37D JUMPI PUSH1 0x4 CALLDATALOAD PUSH0 MSTORE PUSH1 0x10 PUSH1 0x20 MSTORE PUSH1 0x40 PUSH0 KECCAK256 PUSH2 0x180 MSTORE PUSH1 0x1 DUP1 PUSH1 0xA0 SHL SUB PUSH2 0x180 MLOAD SLOAD AND PUSH1 0x2 PUSH2 0x180 MLOAD ADD SLOAD PUSH2 0x100 MSTORE PUSH1 0x3 PUSH2 0x180 MLOAD ADD SLOAD PUSH2 0x140 MSTORE PUSH1 0x4 PUSH2 0x180 MLOAD ADD SLOAD PUSH1 0x5 PUSH2 0x180 MLOAD ADD SLOAD PUSH1 0x6 PUSH2 0x180 MLOAD ADD SLOAD PUSH1 0x7 PUSH2 0x180 MLOAD ADD SLOAD PUSH1 0x8 PUSH2 0x180 MLOAD ADD SLOAD PUSH1 0x9 PUSH2 0x180 MLOAD ADD SLOAD PUSH1 0xA PUSH2 0x180 MLOAD ADD SLOAD SWAP1 PUSH1 0xB PUSH2 0x180 MLOAD ADD SLOAD SWAP3 PUSH1 0xC PUSH2 0x180 MLOAD ADD SLOAD SWAP5 PUSH1 0xD PUSH2 0x180 MLOAD ADD SLOAD SWAP7 PUSH1 0xE PUSH2 0x180 MLOAD ADD SLOAD SWAP9 PUSH1 0xF PUSH2 0x180 MLOAD ADD SLOAD SWAP11 PUSH1 0x10 PUSH2 0x180 MLOAD ADD SLOAD SWAP13 PUSH1 0x11 PUSH2 0x180 MLOAD ADD SLOAD PUSH1 0x80 MSTORE PUSH1 0x12 PUSH2 0x180 MLOAD ADD SLOAD PUSH1 0xC0 MSTORE PUSH1 0x13 PUSH2 0x180 MLOAD ADD SLOAD PUSH2 0x160 MSTORE PUSH1 0x14 PUSH2 0x180 MLOAD ADD SLOAD PUSH2 0x120 MSTORE PUSH1 0x15 PUSH2 0x180 MLOAD ADD SLOAD PUSH1 0xE0 MSTORE PUSH1 0x40 MLOAD PUSH1 0xA0 MSTORE PUSH1 0xA0 MLOAD MSTORE PUSH2 0x100 MLOAD PUSH1 0x20 PUSH1 0xA0 MLOAD ADD MSTORE PUSH2 0x140 MLOAD PUSH1 0x40 PUSH1 0xA0 MLOAD ADD MSTORE PUSH1 0x60 PUSH1 0xA0 MLOAD ADD MSTORE PUSH1 0x80 PUSH1 0xA0 MLOAD ADD MSTORE PUSH1 0xA0 DUP1 MLOAD ADD MSTORE PUSH1 0xC0 PUSH1 0xA0 MLOAD ADD MSTORE PUSH1 0xE0 PUSH1 0xA0 MLOAD ADD MSTORE PUSH2 0x100 PUSH1 0xA0 MLOAD ADD MSTORE PUSH2 0x120 PUSH1 0xA0 MLOAD ADD MSTORE PUSH2 0x140 PUSH1 0xA0 MLOAD ADD MSTORE PUSH2 0x160 PUSH1 0xA0 MLOAD ADD MSTORE PUSH2 0x180 PUSH1 0xA0 MLOAD ADD MSTORE PUSH2 0x1A0 PUSH1 0xA0 MLOAD ADD MSTORE PUSH2 0x1C0 PUSH1 0xA0 MLOAD ADD MSTORE PUSH2 0x1E0 PUSH1 0xA0 MLOAD ADD MSTORE PUSH1 0x80 MLOAD PUSH2 0x200 PUSH1 0xA0 MLOAD ADD MSTORE PUSH1 0xC0 MLOAD PUSH2 0x220 PUSH1 0xA0 MLOAD ADD MSTORE PUSH2 0x160 MLOAD PUSH2 0x240 PUSH1 0xA0 MLOAD ADD MSTORE PUSH2 0x120 MLOAD PUSH2 0x260 PUSH1 0xA0 MLOAD ADD MSTORE PUSH1 0xE0 MLOAD PUSH2 0x280 PUSH1 0xA0 MLOAD ADD MSTORE PUSH2 0x2A0 PUSH1 0xA0 MLOAD RETURN JUMPDEST CALLVALUE PUSH2 0x37D JUMPI PUSH0 CALLDATASIZE PUSH1 0x3 NOT ADD SLT PUSH2 0x37D JUMPI PUSH1 0x20 PUSH1 0x40 MLOAD PUSH8 0xDE0B6B3A7640000 DUP2 MSTORE RETURN JUMPDEST CALLVALUE PUSH2 0x37D JUMPI PUSH0 CALLDATASIZE PUSH1 0x3 NOT ADD SLT PUSH2 0x37D JUMPI PUSH1 0x20 PUSH1 0x40 MLOAD PUSH3 0x15180 DUP2 MSTORE RETURN JUMPDEST CALLVALUE PUSH2 0x37D JUMPI PUSH0 CALLDATASIZE PUSH1 0x3 NOT ADD SLT PUSH2 0x37D JUMPI PUSH1 0x20 PUSH1 0x40 MLOAD PUSH1 0x2 DUP2 MSTORE RETURN JUMPDEST CALLVALUE PUSH2 0x37D JUMPI PUSH0 CALLDATASIZE PUSH1 0x3 NOT ADD SLT PUSH2 0x37D JUMPI PUSH1 0x20 PUSH1 0x3B SLOAD PUSH1 0x40 MLOAD SWAP1 DUP2 MSTORE RETURN JUMPDEST CALLVALUE PUSH2 0x37D JUMPI PUSH0 CALLDATASIZE PUSH1 0x3 NOT ADD SLT PUSH2 0x37D JUMPI PUSH1 0x1 SLOAD PUSH1 0x40 MLOAD PUSH1 0x1 PUSH1 0x1 PUSH1 0xA0 SHL SUB SWAP1 SWAP2 AND DUP2 MSTORE PUSH1 0x20 SWAP1 RETURN JUMPDEST CALLVALUE PUSH2 0x37D JUMPI PUSH1 0x20 CALLDATASIZE PUSH1 0x3 NOT ADD SLT PUSH2 0x37D JUMPI PUSH1 0x4 CALLDATALOAD PUSH1 0x44 SLOAD DUP2 LT ISZERO PUSH2 0x37D JUMPI PUSH1 0x44 SLOAD DUP2 LT ISZERO PUSH2 0x441 JUMPI PUSH1 0x44 PUSH0 MSTORE PUSH32 0x9B22D3D61959B4D3528B1D8BA932C96FBE302B36A1AAD1D95CAB54F9E0A135EA ADD SLOAD PUSH1 0x40 MLOAD SWAP1 DUP2 MSTORE PUSH1 0x20 SWAP1 RETURN JUMPDEST CALLVALUE PUSH2 0x37D JUMPI PUSH0 CALLDATASIZE PUSH1 0x3 NOT ADD SLT PUSH2 0x37D JUMPI PUSH1 0x20 PUSH1 0x40 MLOAD PUSH3 0x278D00 DUP2 MSTORE RETURN JUMPDEST CALLVALUE PUSH2 0x37D JUMPI PUSH1 0x20 CALLDATASIZE PUSH1 0x3 NOT ADD SLT PUSH2 0x37D JUMPI PUSH1 0x4 CALLDATALOAD PUSH1 0x17 SLOAD DUP2 LT ISZERO PUSH2 0x37D JUMPI PUSH1 0x17 SLOAD DUP2 LT ISZERO PUSH2 0x441 JUMPI PUSH1 0x17 PUSH0 MSTORE PUSH32 0xC624B66CC0138B8FABC209247F72D758E1CF3343756D543BADBF24212BED8C15 ADD SLOAD PUSH1 0x40 MLOAD SWAP1 DUP2 MSTORE PUSH1 0x20 SWAP1 RETURN JUMPDEST CALLVALUE PUSH2 0x37D JUMPI PUSH1 0x20 CALLDATASIZE PUSH1 0x3 NOT ADD SLT PUSH2 0x37D JUMPI PUSH1 0x4 CALLDATALOAD PUSH1 0x7 DUP2 LT ISZERO PUSH2 0x37D JUMPI PUSH1 0x20 SWAP1 PUSH1 0x18 ADD SLOAD PUSH1 0x40 MLOAD SWAP1 DUP2 MSTORE RETURN JUMPDEST CALLVALUE PUSH2 0x37D JUMPI PUSH2 0x1CC8 PUSH2 0x1CC2 CALLDATASIZE PUSH2 0x1E76 JUMP JUMPDEST SWAP1 PUSH2 0x1FE5 JUMP JUMPDEST STOP JUMPDEST CALLVALUE PUSH2 0x37D JUMPI PUSH2 0x1CD8 CALLDATASIZE PUSH2 0x1E76 JUMP JUMPDEST SWAP1 PUSH0 MSTORE PUSH1 0x33 PUSH1 0x20 MSTORE PUSH1 0x40 PUSH0 KECCAK256 DUP1 SLOAD DUP3 LT ISZERO PUSH2 0x37D JUMPI PUSH1 0x20 SWAP2 PUSH2 0x3B0 SWAP2 PUSH2 0x1F16 JUMP JUMPDEST CALLVALUE PUSH2 0x37D JUMPI PUSH2 0x1D07 CALLDATASIZE PUSH2 0x1F2B JUMP JUMPDEST SWAP2 PUSH0 MSTORE PUSH1 0x36 PUSH1 0x20 MSTORE PUSH1 0x40 PUSH0 KECCAK256 SWAP1 PUSH0 MSTORE PUSH1 0x20 MSTORE PUSH1 0x40 PUSH0 KECCAK256 DUP1 SLOAD DUP3 LT ISZERO PUSH2 0x37D JUMPI PUSH1 0x20 SWAP2 PUSH2 0x3B0 SWAP2 PUSH2 0x1F16 JUMP JUMPDEST CALLVALUE PUSH2 0x37D JUMPI PUSH2 0x1D40 CALLDATASIZE PUSH2 0x1E76 JUMP JUMPDEST SWAP1 PUSH0 MSTORE PUSH1 0x3D PUSH1 0x20 MSTORE PUSH1 0x40 PUSH0 KECCAK256 DUP1 SLOAD DUP3 LT ISZERO PUSH2 0x37D JUMPI PUSH1 0x20 SWAP2 PUSH2 0x3B0 SWAP2 PUSH2 0x1F16 JUMP JUMPDEST CALLVALUE PUSH2 0x37D JUMPI PUSH1 0x20 CALLDATASIZE PUSH1 0x3 NOT ADD SLT PUSH2 0x37D JUMPI PUSH1 0x4 CALLDATALOAD PUSH0 MSTORE PUSH1 0xC PUSH1 0x20 MSTORE PUSH1 0x20 PUSH1 0x40 PUSH0 KECCAK256 SLOAD PUSH1 0x40 MLOAD SWAP1 DUP2 MSTORE RETURN JUMPDEST CALLVALUE PUSH2 0x37D JUMPI PUSH1 0x20 CALLDATASIZE PUSH1 0x3 NOT ADD SLT PUSH2 0x37D JUMPI PUSH1 0x4 CALLDATALOAD PUSH0 MSTORE PUSH1 0x4A PUSH1 0x20 MSTORE PUSH1 0x40 PUSH0 KECCAK256 DUP1 SLOAD PUSH2 0xB28 PUSH1 0x1 DUP4 ADD SLOAD SWAP3 PUSH1 0x2 DUP2 ADD SLOAD SWAP1 PUSH1 0x3 DUP2 ADD SLOAD PUSH1 0x4 DUP3 ADD SLOAD PUSH1 0x5 DUP4 ADD SLOAD SWAP1 PUSH1 0x6 DUP5 ADD SLOAD SWAP3 PUSH1 0xFF PUSH1 0x8 PUSH1 0x7 DUP8 ADD SLOAD SWAP7 ADD SLOAD AND SWAP6 PUSH1 0x40 MLOAD SWAP10 DUP11 SWAP10 DUP11 PUSH2 0x1E8C JUMP JUMPDEST CALLVALUE PUSH2 0x37D JUMPI PUSH0 CALLDATASIZE PUSH1 0x3 NOT ADD SLT PUSH2 0x37D JUMPI PUSH1 0x20 PUSH1 0x40 MLOAD PUSH2 0x2710 DUP2 MSTORE RETURN JUMPDEST CALLVALUE PUSH2 0x37D JUMPI PUSH2 0x1E15 CALLDATASIZE PUSH2 0x1E76 JUMP JUMPDEST SWAP1 PUSH0 MSTORE PUSH1 0x3E PUSH1 0x20 MSTORE PUSH1 0x40 PUSH0 KECCAK256 SWAP1 PUSH0 MSTORE PUSH1 0x20 MSTORE DUP1 PUSH2 0xB28 PUSH1 0x40 PUSH0 KECCAK256 DUP1 SLOAD PUSH1 0x1 DUP3 ADD SLOAD SWAP2 PUSH1 0x3 PUSH1 0x2 DUP3 ADD SLOAD SWAP2 ADD SLOAD SWAP3 PUSH1 0xFF DUP1 DUP6 PUSH1 0x8 SHR AND SWAP5 AND SWAP3 DUP7 SWAP4 SWAP1 SWAP6 SWAP5 SWAP2 SWAP3 PUSH1 0x80 SWAP4 PUSH1 0xA0 DUP7 ADD SWAP8 DUP7 MSTORE PUSH1 0x20 DUP7 ADD MSTORE PUSH1 0x40 DUP6 ADD MSTORE ISZERO ISZERO PUSH1 0x60 DUP5 ADD MSTORE ISZERO ISZERO SWAP2 ADD MSTORE JUMP JUMPDEST PUSH1 0x40 SWAP1 PUSH1 0x3 NOT ADD SLT PUSH2 0x37D JUMPI PUSH1 0x4 CALLDATALOAD SWAP1 PUSH1 0x24 CALLDATALOAD SWAP1 JUMP JUMPDEST SWAP8 SWAP5 SWAP2 SWAP3 PUSH2 0x100 SWAP8 SWAP5 SWAP2 SWAP11 SWAP10 SWAP7 SWAP4 PUSH2 0x120 DUP11 ADD SWAP12 DUP11 MSTORE PUSH1 0x20 DUP11 ADD MSTORE PUSH1 0x40 DUP10 ADD MSTORE PUSH1 0x60 DUP9 ADD MSTORE PUSH1 0x80 DUP8 ADD MSTORE PUSH1 0xA0 DUP7 ADD MSTORE PUSH1 0xC0 DUP6 ADD MSTORE PUSH1 0xE0 DUP5 ADD MSTORE ISZERO ISZERO SWAP2 ADD MSTORE JUMP JUMPDEST PUSH1 0xD SLOAD DUP2 LT ISZERO PUSH2 0x441 JUMPI PUSH1 0xD PUSH0 MSTORE PUSH1 0x20 PUSH0 KECCAK256 ADD SWAP1 PUSH0 SWAP1 JUMP JUMPDEST PUSH1 0xD SLOAD ISZERO PUSH2 0x441 JUMPI PUSH1 0xD PUSH0 SWAP1 DUP2 MSTORE PUSH32 0xD7B6990105719101DABEB77144F2A3385C8033ACD3AF97E9423A695E81AD1EB5 SWAP2 JUMP JUMPDEST DUP1 SLOAD DUP3 LT ISZERO PUSH2 0x441 JUMPI PUSH0 MSTORE PUSH1 0x20 PUSH0 KECCAK256 ADD SWAP1 PUSH0 SWAP1 JUMP JUMPDEST PUSH1 0x60 SWAP1 PUSH1 0x3 NOT ADD SLT PUSH2 0x37D JUMPI PUSH1 0x4 CALLDATALOAD SWAP1 PUSH1 0x24 CALLDATALOAD SWAP1 PUSH1 0x44 CALLDATALOAD SWAP1 JUMP JUMPDEST CALLVALUE PUSH2 0x37D JUMPI PUSH0 CALLDATASIZE PUSH1 0x3 NOT ADD SLT PUSH2 0x37D JUMPI PUSH1 0x20 PUSH1 0x40 MLOAD PUSH1 0xA DUP2 MSTORE RETURN JUMPDEST CALLVALUE PUSH2 0x37D JUMPI PUSH0 CALLDATASIZE PUSH1 0x3 NOT ADD SLT PUSH2 0x37D JUMPI PUSH1 0x20 PUSH1 0x40 MLOAD PUSH1 0xF DUP2 MSTORE RETURN JUMPDEST ISZERO PUSH2 0x1F82 JUMPI JUMP JUMPDEST PUSH1 0x40 MLOAD PUSH3 0x461BCD PUSH1 0xE5 SHL DUP2 MSTORE PUSH1 0x20 PUSH1 0x4 DUP3 ADD MSTORE PUSH1 0x10 PUSH1 0x24 DUP3 ADD MSTORE PUSH16 0x139BDD081E5BDD5C881858D8DBDD5B9D PUSH1 0x82 SHL PUSH1 0x44 DUP3 ADD MSTORE PUSH1 0x64 SWAP1 REVERT JUMPDEST SWAP2 SWAP1 DUP3 SUB SWAP2 DUP3 GT PUSH2 0x7F8 JUMPI JUMP JUMPDEST DUP2 ISZERO PUSH2 0x1FD1 JUMPI DIV SWAP1 JUMP JUMPDEST PUSH4 0x4E487B71 PUSH1 0xE0 SHL PUSH0 MSTORE PUSH1 0x12 PUSH1 0x4 MSTORE PUSH1 0x24 PUSH0 REVERT JUMPDEST SWAP1 DUP2 PUSH0 MSTORE PUSH1 0x10 PUSH1 0x20 MSTORE PUSH1 0x40 PUSH0 KECCAK256 PUSH1 0x3 DUP2 ADD SLOAD ISZERO PUSH2 0x23D4 JUMPI SLOAD PUSH2 0x2011 SWAP1 PUSH1 0x1 PUSH1 0x1 PUSH1 0xA0 SHL SUB AND CALLER EQ PUSH2 0x1F7B JUMP JUMPDEST DUP2 PUSH0 MSTORE PUSH1 0xE PUSH1 0x20 MSTORE PUSH1 0x40 PUSH0 KECCAK256 DUP2 PUSH0 MSTORE PUSH1 0x20 MSTORE PUSH1 0xFF PUSH1 0x3 PUSH1 0x40 PUSH0 KECCAK256 ADD SLOAD AND ISZERO PUSH2 0x239D JUMPI DUP2 PUSH0 MSTORE PUSH1 0xE PUSH1 0x20 MSTORE PUSH1 0x40 PUSH0 KECCAK256 DUP2 PUSH0 MSTORE PUSH1 0x20 MSTORE PUSH1 0xFF PUSH1 0x3 PUSH1 0x40 PUSH0 KECCAK256 ADD SLOAD PUSH1 0x8 SHR AND PUSH2 0x2367 JUMPI DUP1 PUSH0 MSTORE PUSH1 0xA PUSH1 0x20 MSTORE PUSH1 0x40 PUSH0 KECCAK256 SLOAD SWAP2 DUP2 PUSH0 MSTORE PUSH1 0xB PUSH1 0x20 MSTORE PUSH1 0x40 PUSH0 KECCAK256 DUP2 PUSH0 MSTORE PUSH1 0x20 MSTORE PUSH1 0x40 PUSH0 KECCAK256 SLOAD DUP1 DUP5 EQ PUSH2 0x2361 JUMPI PUSH2 0x2096 PUSH8 0xDE0B6B3A7640000 SWAP2 DUP6 PUSH2 0x1FBA JUMP JUMPDEST DIV SWAP2 DUP3 ISZERO PUSH2 0x2346 JUMPI PUSH2 0x20A8 DUP4 DUP4 PUSH2 0x2523 JUMP JUMPDEST SWAP4 DUP2 PUSH0 MSTORE PUSH1 0xB PUSH1 0x20 MSTORE PUSH1 0x40 PUSH0 KECCAK256 DUP4 PUSH0 MSTORE PUSH1 0x20 MSTORE PUSH1 0x40 PUSH0 KECCAK256 SSTORE DUP4 ISZERO SWAP2 DUP3 ISZERO PUSH2 0x20E7 JUMPI JUMPDEST POP POP POP DUP2 DUP2 GT PUSH2 0x20D8 JUMPI POP POP JUMP JUMPDEST PUSH2 0x20E5 SWAP2 PUSH2 0x732 SWAP2 PUSH2 0x1FBA JUMP JUMPDEST JUMP JUMPDEST PUSH0 DUP2 DUP2 MSTORE PUSH1 0x10 PUSH1 0x20 MSTORE PUSH1 0x40 SWAP1 KECCAK256 DUP1 SLOAD PUSH1 0x1 PUSH1 0x1 PUSH1 0xA0 SHL SUB AND SWAP7 SWAP1 SWAP6 SWAP2 SWAP4 SWAP1 SWAP3 SWAP1 DUP8 ISZERO PUSH2 0x2312 JUMPI PUSH2 0x22DF JUMPI DUP4 PUSH0 MSTORE PUSH1 0x11 PUSH1 0x20 MSTORE PUSH1 0x40 PUSH0 KECCAK256 PUSH2 0x2128 DUP4 DUP3 SLOAD PUSH2 0x2458 JUMP JUMPDEST DUP2 SSTORE PUSH1 0x6 DUP2 ADD PUSH2 0x2139 DUP5 DUP3 SLOAD PUSH2 0x2458 JUMP JUMPDEST SWAP1 SSTORE SLOAD SWAP3 PUSH1 0xB DUP8 ADD SLOAD SWAP3 PUSH1 0x6 PUSH0 SWAP9 ADD SWAP8 JUMPDEST DUP9 SLOAD DUP2 LT ISZERO PUSH2 0x22D2 JUMPI PUSH2 0x215C DUP2 PUSH2 0x1ECC JUMP JUMPDEST SWAP1 SLOAD SWAP1 PUSH1 0x3 SHL SHR SWAP6 DUP8 PUSH0 MSTORE PUSH1 0xE PUSH1 0x20 MSTORE PUSH1 0x40 PUSH0 KECCAK256 DUP8 PUSH0 MSTORE PUSH1 0x20 MSTORE PUSH1 0x40 PUSH0 KECCAK256 SWAP1 PUSH1 0x3 DUP3 ADD PUSH1 0xFF DUP2 SLOAD PUSH1 0x8 SHR AND DUP1 ISZERO SWAP1 DUP2 DUP1 SWAP3 PUSH2 0x22BC JUMPI JUMPDEST ISZERO PUSH2 0x21EB JUMPI POP POP DUP1 SLOAD PUSH2 0xFF00 NOT AND PUSH2 0x100 OR SWAP1 SSTORE PUSH2 0x21C6 SWAP2 SWAP1 DUP8 PUSH1 0xA PUSH2 0x21B8 DUP3 DUP13 PUSH2 0x2465 JUMP JUMPDEST DIV SWAP3 DUP4 PUSH1 0x2 DUP3 ADD SSTORE SSTORE PUSH2 0x1FBA JUMP JUMPDEST SWAP6 PUSH0 MSTORE PUSH1 0xC PUSH1 0x20 MSTORE PUSH1 0x40 PUSH0 KECCAK256 SWAP1 DUP2 SLOAD PUSH0 NOT DUP2 ADD SWAP1 DUP2 GT PUSH2 0x7F8 JUMPI PUSH1 0x1 SWAP3 SSTORE JUMPDEST ADD PUSH2 0x214A JUMP JUMPDEST DUP1 SWAP2 SWAP4 SWAP6 SWAP11 SWAP3 POP SWAP1 PUSH2 0x22A7 JUMPI JUMPDEST ISZERO PUSH2 0x2216 JUMPI POP POP PUSH1 0x1 SWAP2 PUSH1 0x2 PUSH2 0x2210 SWAP3 ADD SLOAD SWAP1 PUSH2 0x1FBA JUMP JUMPDEST SWAP6 PUSH2 0x21E5 JUMP JUMPDEST SWAP3 SWAP8 SWAP3 DUP8 SWAP1 DUP3 PUSH2 0x228F JUMPI JUMPDEST POP POP PUSH2 0x2230 JUMPI POP PUSH1 0x1 SWAP1 PUSH2 0x21E5 JUMP JUMPDEST SWAP2 SWAP9 POP POP PUSH1 0x1 SWAP2 SWAP9 SWAP4 POP SWAP4 SWAP2 SWAP4 ADD SSTORE JUMPDEST PUSH1 0x1 SLOAD PUSH2 0x2259 SWAP1 DUP7 SWAP1 DUP4 SWAP1 PUSH1 0x1 PUSH1 0x1 PUSH1 0xA0 SHL SUB AND PUSH2 0x320D JUMP JUMPDEST PUSH1 0x40 MLOAD DUP6 DUP2 MSTORE PUSH1 0x20 DUP2 ADD SWAP3 SWAP1 SWAP3 MSTORE PUSH0 MLOAD PUSH1 0x20 PUSH2 0x3723 PUSH0 CODECOPY PUSH0 MLOAD SWAP1 PUSH0 MSTORE PUSH1 0x80 DUP4 PUSH1 0x4 PUSH1 0x40 DUP8 SWAP7 ADD MSTORE TIMESTAMP PUSH1 0x60 DUP3 ADD MSTORE LOG4 PUSH0 DUP1 DUP1 PUSH2 0x20CA JUMP JUMPDEST PUSH1 0xA SWAP3 POP SWAP1 PUSH2 0x229D SWAP2 PUSH2 0x2465 JUMP JUMPDEST DIV DUP8 LT DUP7 PUSH0 PUSH2 0x2221 JUMP JUMPDEST POP PUSH1 0xA PUSH2 0x22B4 DUP10 DUP4 PUSH2 0x2465 JUMP JUMPDEST DIV DUP5 GT PUSH2 0x21F8 JUMP JUMPDEST POP PUSH1 0xA PUSH2 0x22C9 DUP12 DUP14 PUSH2 0x2465 JUMP JUMPDEST DIV DUP5 LT ISZERO PUSH2 0x2192 JUMP JUMPDEST POP SWAP7 POP SWAP7 SWAP2 POP SWAP2 POP PUSH2 0x2240 JUMP JUMPDEST PUSH1 0x40 MLOAD PUSH3 0x461BCD PUSH1 0xE5 SHL DUP2 MSTORE PUSH1 0x20 PUSH1 0x4 DUP3 ADD MSTORE PUSH1 0xB PUSH1 0x24 DUP3 ADD MSTORE PUSH11 0x16995C9BC8185B5BDD5B9D PUSH1 0xAA SHL PUSH1 0x44 DUP3 ADD MSTORE PUSH1 0x64 SWAP1 REVERT JUMPDEST PUSH1 0x40 MLOAD PUSH3 0x461BCD PUSH1 0xE5 SHL DUP2 MSTORE PUSH1 0x20 PUSH1 0x4 DUP3 ADD MSTORE PUSH1 0xC PUSH1 0x24 DUP3 ADD MSTORE PUSH12 0x24B73B30B634B2103AB9B2B9 PUSH1 0xA1 SHL PUSH1 0x44 DUP3 ADD MSTORE PUSH1 0x64 SWAP1 REVERT JUMPDEST SWAP1 SWAP2 POP PUSH0 MSTORE PUSH1 0xB PUSH1 0x20 MSTORE PUSH1 0x40 PUSH0 KECCAK256 SWAP1 PUSH0 MSTORE PUSH1 0x20 MSTORE PUSH1 0x40 PUSH0 KECCAK256 SSTORE JUMP JUMPDEST POP POP POP POP JUMP JUMPDEST PUSH1 0x40 MLOAD PUSH3 0x461BCD PUSH1 0xE5 SHL DUP2 MSTORE PUSH1 0x20 PUSH1 0x4 DUP3 ADD MSTORE PUSH1 0xE PUSH1 0x24 DUP3 ADD MSTORE PUSH14 0x141858DAD859D94810DB1BDCD959 PUSH1 0x92 SHL PUSH1 0x44 DUP3 ADD MSTORE PUSH1 0x64 SWAP1 REVERT JUMPDEST PUSH1 0x40 MLOAD PUSH3 0x461BCD PUSH1 0xE5 SHL DUP2 MSTORE PUSH1 0x20 PUSH1 0x4 DUP3 ADD MSTORE PUSH1 0xF PUSH1 0x24 DUP3 ADD MSTORE PUSH15 0x496E76616C6964207061636B616765 PUSH1 0x88 SHL PUSH1 0x44 DUP3 ADD MSTORE PUSH1 0x64 SWAP1 REVERT JUMPDEST PUSH1 0x40 MLOAD PUSH3 0x461BCD PUSH1 0xE5 SHL DUP2 MSTORE PUSH1 0x20 PUSH1 0x4 DUP3 ADD MSTORE PUSH1 0xE PUSH1 0x24 DUP3 ADD MSTORE PUSH14 0x155CD95C881B9BDD08199BDD5B99 PUSH1 0x92 SHL PUSH1 0x44 DUP3 ADD MSTORE PUSH1 0x64 SWAP1 REVERT JUMPDEST SWAP1 PUSH1 0x1F DUP1 NOT SWAP2 ADD AND DUP2 ADD SWAP1 DUP2 LT PUSH8 0xFFFFFFFFFFFFFFFF DUP3 GT OR PUSH2 0x242C JUMPI PUSH1 0x40 MSTORE JUMP JUMPDEST PUSH4 0x4E487B71 PUSH1 0xE0 SHL PUSH0 MSTORE PUSH1 0x41 PUSH1 0x4 MSTORE PUSH1 0x24 PUSH0 REVERT JUMPDEST SWAP1 DUP2 PUSH1 0x20 SWAP2 SUB SLT PUSH2 0x37D JUMPI MLOAD DUP1 ISZERO ISZERO DUP2 SUB PUSH2 0x37D JUMPI SWAP1 JUMP JUMPDEST SWAP2 SWAP1 DUP3 ADD DUP1 SWAP3 GT PUSH2 0x7F8 JUMPI JUMP JUMPDEST DUP2 DUP2 MUL SWAP3 SWAP2 DUP2 ISZERO SWAP2 DUP5 DIV EQ OR ISZERO PUSH2 0x7F8 JUMPI JUMP JUMPDEST SWAP2 SWAP1 DUP3 PUSH0 MSTORE PUSH1 0x10 PUSH1 0x20 MSTORE PUSH1 0x3 PUSH1 0x40 PUSH0 KECCAK256 ADD SLOAD ISZERO PUSH2 0x24E7 JUMPI DUP1 PUSH0 MSTORE PUSH1 0xA PUSH1 0x20 MSTORE PUSH1 0x40 PUSH0 KECCAK256 SLOAD SWAP1 PUSH0 MSTORE PUSH1 0xB PUSH1 0x20 MSTORE PUSH1 0x40 PUSH0 KECCAK256 DUP4 PUSH0 MSTORE PUSH1 0x20 MSTORE PUSH1 0x40 PUSH0 KECCAK256 SLOAD SWAP1 DUP2 DUP2 GT ISZERO PUSH2 0x24DD JUMPI PUSH2 0x24D2 PUSH2 0x24DA SWAP3 PUSH8 0xDE0B6B3A7640000 SWAP3 PUSH2 0x1FBA JUMP JUMPDEST DIV DUP1 SWAP4 PUSH2 0x2523 JUMP JUMPDEST SWAP1 JUMP JUMPDEST POP POP SWAP1 POP PUSH0 SWAP1 PUSH0 SWAP1 JUMP JUMPDEST POP PUSH0 SWAP2 POP DUP2 SWAP1 JUMP JUMPDEST DUP1 SLOAD PUSH1 0x1 PUSH1 0x40 SHL DUP2 LT ISZERO PUSH2 0x242C JUMPI PUSH2 0x250C SWAP2 PUSH1 0x1 DUP3 ADD DUP2 SSTORE PUSH2 0x1F16 JUMP JUMPDEST DUP2 SWAP3 SWAP2 SLOAD SWAP1 PUSH1 0x3 SHL SWAP2 DUP3 SHL SWAP2 PUSH0 NOT SWAP1 SHL NOT AND OR SWAP1 SSTORE JUMP JUMPDEST DUP1 PUSH0 MSTORE PUSH1 0x10 PUSH1 0x20 MSTORE PUSH1 0x40 PUSH0 KECCAK256 SWAP1 PUSH0 MSTORE PUSH1 0x11 PUSH1 0x20 MSTORE PUSH1 0xA PUSH2 0x254F PUSH1 0x40 PUSH0 KECCAK256 SWAP3 DUP3 PUSH1 0xB DUP3 ADD SLOAD SWAP2 ADD SLOAD PUSH2 0x2465 JUMP JUMPDEST DIV SWAP1 SLOAD DUP2 DUP2 LT ISZERO PUSH2 0x2575 JUMPI PUSH2 0x2563 SWAP2 PUSH2 0x1FBA JUMP JUMPDEST SWAP1 DUP2 DUP2 GT ISZERO PUSH2 0x2570 JUMPI POP SWAP1 JUMP JUMPDEST SWAP1 POP SWAP1 JUMP JUMPDEST POP POP POP PUSH0 SWAP1 JUMP JUMPDEST SWAP2 SWAP1 SWAP3 SWAP4 DUP3 PUSH0 MSTORE PUSH1 0x10 PUSH1 0x20 MSTORE PUSH1 0x40 PUSH0 KECCAK256 SWAP4 PUSH1 0x1 DUP1 PUSH1 0xA0 SHL SUB DUP6 SLOAD AND SWAP3 DUP4 ISZERO PUSH2 0x2312 JUMPI DUP1 ISZERO PUSH2 0x22DF JUMPI DUP5 PUSH0 MSTORE PUSH1 0x11 PUSH1 0x20 MSTORE PUSH1 0x40 PUSH0 KECCAK256 PUSH2 0x25BB DUP3 DUP3 SLOAD PUSH2 0x2458 JUMP JUMPDEST DUP2 SSTORE PUSH1 0x1 DUP2 ADD PUSH2 0x25CC DUP4 DUP3 SLOAD PUSH2 0x2458 JUMP JUMPDEST SWAP1 SSTORE SLOAD SWAP3 PUSH1 0xB DUP8 ADD SLOAD SWAP3 PUSH1 0x6 PUSH0 SWAP9 ADD SWAP8 JUMPDEST DUP9 SLOAD DUP2 LT ISZERO PUSH2 0x274D JUMPI PUSH2 0x25EF DUP2 PUSH2 0x1ECC JUMP JUMPDEST SWAP1 SLOAD SWAP1 PUSH1 0x3 SHL SHR SWAP6 DUP9 PUSH0 MSTORE PUSH1 0xE PUSH1 0x20 MSTORE PUSH1 0x40 PUSH0 KECCAK256 DUP8 PUSH0 MSTORE PUSH1 0x20 MSTORE PUSH1 0x40 PUSH0 KECCAK256 SWAP1 PUSH1 0x3 DUP3 ADD PUSH1 0xFF DUP2 SLOAD PUSH1 0x8 SHR AND DUP1 ISZERO SWAP1 DUP2 DUP1 SWAP3 PUSH2 0x2737 JUMPI JUMPDEST ISZERO PUSH2 0x2670 JUMPI POP POP DUP1 SLOAD PUSH2 0xFF00 NOT AND PUSH2 0x100 OR SWAP1 SSTORE PUSH2 0x264B SWAP2 SWAP1 DUP8 PUSH1 0xA PUSH2 0x21B8 DUP3 DUP13 PUSH2 0x2465 JUMP JUMPDEST SWAP6 PUSH0 MSTORE PUSH1 0xC PUSH1 0x20 MSTORE PUSH1 0x40 PUSH0 KECCAK256 SWAP1 DUP2 SLOAD PUSH0 NOT DUP2 ADD SWAP1 DUP2 GT PUSH2 0x7F8 JUMPI PUSH1 0x1 SWAP3 SSTORE JUMPDEST ADD PUSH2 0x25DD JUMP JUMPDEST DUP1 SWAP2 SWAP4 SWAP6 SWAP11 SWAP3 POP SWAP1 PUSH2 0x2722 JUMPI JUMPDEST ISZERO PUSH2 0x269B JUMPI POP POP PUSH1 0x1 SWAP2 PUSH1 0x2 PUSH2 0x2695 SWAP3 ADD SLOAD SWAP1 PUSH2 0x1FBA JUMP JUMPDEST SWAP6 PUSH2 0x266A JUMP JUMPDEST SWAP3 SWAP8 SWAP3 DUP8 SWAP1 DUP3 PUSH2 0x270A JUMPI JUMPDEST POP POP PUSH2 0x26B5 JUMPI POP PUSH1 0x1 SWAP1 PUSH2 0x266A JUMP JUMPDEST SWAP2 SWAP9 POP POP PUSH1 0x1 SWAP2 SWAP9 SWAP4 POP SWAP4 SWAP2 SWAP4 ADD SSTORE JUMPDEST PUSH1 0x1 SLOAD PUSH2 0x26DE SWAP1 DUP4 SWAP1 DUP6 SWAP1 PUSH1 0x1 PUSH1 0x1 PUSH1 0xA0 SHL SUB AND PUSH2 0x320D JUMP JUMPDEST PUSH1 0x40 MLOAD SWAP2 DUP3 MSTORE PUSH1 0x20 DUP3 ADD MSTORE PUSH1 0x80 DUP2 PUSH1 0x1 PUSH1 0x40 PUSH0 MLOAD PUSH1 0x20 PUSH2 0x3723 PUSH0 CODECOPY PUSH0 MLOAD SWAP1 PUSH0 MSTORE SWAP5 ADD MSTORE TIMESTAMP PUSH1 0x60 DUP3 ADD MSTORE LOG4 JUMP JUMPDEST PUSH1 0xA SWAP3 POP SWAP1 PUSH2 0x2718 SWAP2 PUSH2 0x2465 JUMP JUMPDEST DIV DUP8 LT DUP7 PUSH0 PUSH2 0x26A6 JUMP JUMPDEST POP PUSH1 0xA PUSH2 0x272F DUP10 DUP4 PUSH2 0x2465 JUMP JUMPDEST DIV DUP5 GT PUSH2 0x267D JUMP JUMPDEST POP PUSH1 0xA PUSH2 0x2744 DUP12 DUP14 PUSH2 0x2465 JUMP JUMPDEST DIV DUP5 LT ISZERO PUSH2 0x2625 JUMP JUMPDEST POP SWAP7 POP SWAP7 SWAP2 POP SWAP2 POP PUSH2 0x26C5 JUMP JUMPDEST PUSH1 0x2 SLOAD PUSH1 0x1 PUSH1 0x1 PUSH1 0xA0 SHL SUB AND SWAP1 DUP2 ISZERO PUSH2 0x27DD JUMPI PUSH1 0x1 SLOAD PUSH1 0x80 SWAP3 PUSH2 0x2788 SWAP2 DUP4 SWAP2 SWAP1 PUSH1 0x1 PUSH1 0x1 PUSH1 0xA0 SHL SUB AND PUSH2 0x320D JUMP JUMPDEST PUSH1 0x5 SLOAD PUSH0 MSTORE PUSH1 0x11 PUSH1 0x20 MSTORE PUSH1 0x40 PUSH0 KECCAK256 PUSH2 0x27A1 DUP3 DUP3 SLOAD PUSH2 0x2458 JUMP JUMPDEST SWAP1 SSTORE PUSH1 0x1 DUP1 PUSH1 0xA0 SHL SUB PUSH1 0x2 SLOAD AND PUSH0 MLOAD PUSH1 0x20 PUSH2 0x3723 PUSH0 CODECOPY PUSH0 MLOAD SWAP1 PUSH0 MSTORE PUSH1 0x5 SLOAD SWAP4 DUP5 SWAP4 PUSH1 0x40 MLOAD SWAP1 DUP2 MSTORE PUSH0 PUSH1 0x20 DUP3 ADD MSTORE PUSH0 PUSH1 0x40 DUP3 ADD MSTORE TIMESTAMP PUSH1 0x60 DUP3 ADD MSTORE LOG4 JUMP JUMPDEST PUSH1 0x40 MLOAD PUSH3 0x461BCD PUSH1 0xE5 SHL DUP2 MSTORE PUSH1 0x20 PUSH1 0x4 DUP3 ADD MSTORE PUSH1 0x11 PUSH1 0x24 DUP3 ADD MSTORE PUSH17 0x199959481859191C9CC81B9BDD081CD95D PUSH1 0x7A SHL PUSH1 0x44 DUP3 ADD MSTORE PUSH1 0x64 SWAP1 REVERT JUMPDEST SWAP1 PUSH0 MSTORE PUSH1 0xC PUSH1 0x20 MSTORE PUSH1 0x40 PUSH0 KECCAK256 SLOAD SWAP1 DUP2 ISZERO DUP1 ISZERO PUSH2 0x287F JUMPI JUMPDEST PUSH2 0x286C JUMPI PUSH8 0xDE0B6B3A7640000 DUP2 MUL SWAP1 DUP1 DUP3 DIV PUSH8 0xDE0B6B3A7640000 EQ SWAP1 ISZERO OR ISZERO PUSH2 0x7F8 JUMPI PUSH2 0x2867 SWAP2 PUSH2 0x285F SWAP2 PUSH2 0x1FC7 JUMP JUMPDEST PUSH1 0x9 SLOAD PUSH2 0x2458 JUMP JUMPDEST PUSH1 0x9 SSTORE JUMP JUMPDEST DUP1 SWAP2 POP PUSH2 0x2876 JUMPI POP JUMP JUMPDEST PUSH2 0x20E5 SWAP1 PUSH2 0x275A JUMP JUMPDEST POP DUP1 ISZERO PUSH2 0x282D JUMP JUMPDEST DUP1 ISZERO DUP1 ISZERO PUSH2 0x28AC JUMPI JUMPDEST PUSH2 0x28A1 JUMPI SWAP2 PUSH1 0x1 SWAP2 PUSH2 0x20E5 SWAP4 PUSH2 0x257C JUMP JUMPDEST POP POP PUSH2 0x20E5 SWAP1 PUSH2 0x275A JUMP JUMPDEST POP PUSH1 0x5 SLOAD DUP2 EQ PUSH2 0x2890 JUMP JUMPDEST SWAP3 SWAP2 SWAP1 DUP4 ISZERO DUP1 ISZERO PUSH2 0x28DD JUMPI JUMPDEST PUSH2 0x28D0 JUMPI PUSH2 0x20E5 SWAP4 PUSH2 0x257C JUMP JUMPDEST POP SWAP1 POP PUSH2 0x20E5 SWAP2 POP PUSH2 0x275A JUMP JUMPDEST POP PUSH1 0x5 SLOAD DUP5 EQ PUSH2 0x28C3 JUMP JUMPDEST PUSH0 NOT DUP2 EQ PUSH2 0x7F8 JUMPI PUSH1 0x1 ADD SWAP1 JUMP JUMPDEST SWAP3 SWAP2 SWAP3 PUSH1 0x5 SLOAD DUP2 EQ DUP1 ISZERO PUSH2 0x2BA0 JUMPI JUMPDEST PUSH2 0x2B94 JUMPI PUSH1 0x1 JUMPDEST DUP4 DUP2 LT PUSH2 0x2B63 JUMPI POP PUSH0 SWAP1 JUMPDEST DUP1 ISZERO ISZERO DUP1 PUSH2 0x2B57 JUMPI JUMPDEST DUP1 PUSH2 0x2B4D JUMPI JUMPDEST ISZERO PUSH2 0x2B40 JUMPI DUP1 PUSH0 MSTORE PUSH1 0x10 PUSH1 0x20 MSTORE PUSH1 0x40 PUSH0 KECCAK256 SWAP1 DUP5 PUSH1 0x6 DUP4 ADD SLOAD LT ISZERO PUSH2 0x2959 JUMPI POP PUSH1 0x5 PUSH2 0x2953 SWAP2 ADD SLOAD SWAP2 PUSH2 0x28E8 JUMP JUMPDEST SWAP1 PUSH2 0x2917 JUMP JUMPDEST PUSH0 DUP2 DUP2 MSTORE PUSH1 0x10 PUSH1 0x20 MSTORE PUSH1 0x40 SWAP1 KECCAK256 DUP1 SLOAD SWAP6 SWAP8 SWAP1 SWAP7 SWAP2 SWAP6 PUSH1 0x1 PUSH1 0x1 PUSH1 0xA0 SHL SUB AND SWAP5 SWAP1 SWAP4 POP SWAP2 POP DUP4 ISZERO PUSH2 0x2312 JUMPI DUP1 ISZERO PUSH2 0x22DF JUMPI DUP5 PUSH0 MSTORE PUSH1 0x11 PUSH1 0x20 MSTORE PUSH1 0x40 PUSH0 KECCAK256 PUSH2 0x29A0 DUP3 DUP3 SLOAD PUSH2 0x2458 JUMP JUMPDEST DUP2 SSTORE PUSH1 0x2 DUP2 ADD PUSH2 0x29B1 DUP4 DUP3 SLOAD PUSH2 0x2458 JUMP JUMPDEST SWAP1 SSTORE SLOAD SWAP3 PUSH1 0xB DUP8 ADD SLOAD SWAP3 PUSH1 0x6 PUSH0 SWAP9 ADD SWAP8 JUMPDEST DUP9 SLOAD DUP2 LT ISZERO PUSH2 0x2B33 JUMPI PUSH2 0x29D4 DUP2 PUSH2 0x1ECC JUMP JUMPDEST SWAP1 SLOAD SWAP1 PUSH1 0x3 SHL SHR SWAP6 DUP9 PUSH0 MSTORE PUSH1 0xE PUSH1 0x20 MSTORE PUSH1 0x40 PUSH0 KECCAK256 DUP8 PUSH0 MSTORE PUSH1 0x20 MSTORE PUSH1 0x40 PUSH0 KECCAK256 SWAP1 PUSH1 0x3 DUP3 ADD PUSH1 0xFF DUP2 SLOAD PUSH1 0x8 SHR AND DUP1 ISZERO SWAP1 DUP2 DUP1 SWAP3 PUSH2 0x2B1D JUMPI JUMPDEST ISZERO PUSH2 0x2A55 JUMPI POP POP DUP1 SLOAD PUSH2 0xFF00 NOT AND PUSH2 0x100 OR SWAP1 SSTORE PUSH2 0x2A30 SWAP2 SWAP1 DUP8 PUSH1 0xA PUSH2 0x21B8 DUP3 DUP13 PUSH2 0x2465 JUMP JUMPDEST SWAP6 PUSH0 MSTORE PUSH1 0xC PUSH1 0x20 MSTORE PUSH1 0x40 PUSH0 KECCAK256 SWAP1 DUP2 SLOAD PUSH0 NOT DUP2 ADD SWAP1 DUP2 GT PUSH2 0x7F8 JUMPI PUSH1 0x1 SWAP3 SSTORE JUMPDEST ADD PUSH2 0x29C2 JUMP JUMPDEST DUP1 SWAP2 SWAP4 SWAP6 SWAP11 SWAP3 POP SWAP1 PUSH2 0x2B08 JUMPI JUMPDEST ISZERO PUSH2 0x2A80 JUMPI POP POP PUSH1 0x1 SWAP2 PUSH1 0x2 PUSH2 0x2A7A SWAP3 ADD SLOAD SWAP1 PUSH2 0x1FBA JUMP JUMPDEST SWAP6 PUSH2 0x2A4F JUMP JUMPDEST SWAP3 SWAP8 SWAP3 DUP8 SWAP1 DUP3 PUSH2 0x2AF0 JUMPI JUMPDEST POP POP PUSH2 0x2A9A JUMPI POP PUSH1 0x1 SWAP1 PUSH2 0x2A4F JUMP JUMPDEST SWAP2 SWAP9 POP POP PUSH1 0x1 SWAP2 SWAP9 SWAP4 POP SWAP4 SWAP2 SWAP4 ADD SSTORE JUMPDEST PUSH1 0x1 SLOAD PUSH2 0x2AC3 SWAP1 DUP4 SWAP1 DUP6 SWAP1 PUSH1 0x1 PUSH1 0x1 PUSH1 0xA0 SHL SUB AND PUSH2 0x320D JUMP JUMPDEST PUSH1 0x40 MLOAD SWAP2 DUP3 MSTORE PUSH1 0x20 DUP3 ADD MSTORE PUSH1 0x2 DUP2 PUSH1 0x80 SWAP2 PUSH1 0x40 PUSH0 MLOAD PUSH1 0x20 PUSH2 0x3723 PUSH0 CODECOPY PUSH0 MLOAD SWAP1 PUSH0 MSTORE SWAP5 ADD MSTORE TIMESTAMP PUSH1 0x60 DUP3 ADD MSTORE LOG4 JUMP JUMPDEST PUSH1 0xA SWAP3 POP SWAP1 PUSH2 0x2AFE SWAP2 PUSH2 0x2465 JUMP JUMPDEST DIV DUP8 LT DUP7 PUSH0 PUSH2 0x2A8B JUMP JUMPDEST POP PUSH1 0xA PUSH2 0x2B15 DUP10 DUP4 PUSH2 0x2465 JUMP JUMPDEST DIV DUP5 GT PUSH2 0x2A62 JUMP JUMPDEST POP PUSH1 0xA PUSH2 0x2B2A DUP12 DUP14 PUSH2 0x2465 JUMP JUMPDEST DIV DUP5 LT ISZERO PUSH2 0x2A0A JUMP JUMPDEST POP SWAP7 POP SWAP7 SWAP2 POP SWAP2 POP PUSH2 0x2AAA JUMP JUMPDEST POP POP POP POP PUSH2 0x20E5 SWAP1 PUSH2 0x275A JUMP JUMPDEST POP PUSH1 0xF DUP3 LT PUSH2 0x2926 JUMP JUMPDEST POP PUSH1 0x5 SLOAD DUP2 EQ ISZERO PUSH2 0x2920 JUMP JUMPDEST SWAP1 PUSH0 MSTORE PUSH1 0x10 PUSH1 0x20 MSTORE PUSH1 0x5 PUSH1 0x40 PUSH0 KECCAK256 ADD SLOAD SWAP1 DUP2 ISZERO DUP1 ISZERO PUSH2 0x2B89 JUMPI JUMPDEST PUSH2 0x2B40 JUMPI PUSH1 0x1 ADD PUSH2 0x290C JUMP JUMPDEST POP PUSH1 0x5 SLOAD DUP3 EQ PUSH2 0x2B7D JUMP JUMPDEST POP POP POP PUSH2 0x20E5 SWAP1 PUSH2 0x275A JUMP JUMPDEST POP DUP1 ISZERO PUSH2 0x2905 JUMP JUMPDEST SWAP4 SWAP1 PUSH2 0x1E0 MSTORE DUP4 ISZERO DUP1 ISZERO PUSH2 0x2F32 JUMPI JUMPDEST DUP1 ISZERO PUSH2 0x2F2A JUMPI JUMPDEST PUSH2 0x28D0 JUMPI PUSH2 0x2BCC DUP2 DUP4 PUSH2 0x1FC7 JUMP JUMPDEST PUSH2 0x220 MSTORE PUSH2 0x2BE6 PUSH2 0x2BE0 DUP3 PUSH2 0x220 MLOAD PUSH2 0x2465 JUMP JUMPDEST DUP4 PUSH2 0x1FBA JUMP JUMPDEST SWAP4 PUSH2 0x1C0 MSTORE PUSH0 SWAP3 PUSH0 PUSH2 0x1A0 MSTORE PUSH1 0x1 SWAP2 PUSH0 JUMPDEST PUSH1 0x1E DUP2 LT PUSH2 0x2C2C JUMPI JUMPDEST POP POP POP POP SWAP1 PUSH2 0x2C0E SWAP2 PUSH2 0x1FBA JUMP JUMPDEST DUP1 PUSH2 0x2C1D JUMPI JUMPDEST POP DUP1 PUSH2 0x2876 JUMPI POP JUMP JUMPDEST PUSH2 0x2C26 SWAP1 PUSH2 0x275A JUMP JUMPDEST PUSH0 PUSH2 0x2C14 JUMP JUMPDEST SWAP2 SWAP6 PUSH2 0x1C0 SWAP8 SWAP2 SWAP6 SWAP4 SWAP8 MLOAD ISZERO DUP1 ISZERO PUSH2 0x2F1C JUMPI JUMPDEST PUSH2 0x2F04 JUMPI PUSH2 0x1C0 MLOAD PUSH0 MSTORE PUSH1 0x10 PUSH1 0x20 MSTORE PUSH1 0x40 PUSH0 KECCAK256 SWAP8 DUP8 PUSH1 0x6 DUP11 ADD SLOAD LT ISZERO PUSH0 EQ PUSH2 0x2EE4 JUMPI PUSH2 0x2C6E DUP2 PUSH2 0x220 MLOAD PUSH2 0x2465 JUMP JUMPDEST SWAP6 PUSH2 0x1C0 MLOAD PUSH0 MSTORE PUSH1 0x10 PUSH1 0x20 MSTORE PUSH1 0x40 PUSH0 KECCAK256 PUSH2 0x260 MSTORE PUSH1 0x1 DUP1 PUSH1 0xA0 SHL SUB PUSH2 0x260 MLOAD SLOAD AND SWAP8 DUP9 ISZERO PUSH2 0x2312 JUMPI DUP8 ISZERO PUSH2 0x22DF JUMPI PUSH2 0x1C0 MLOAD PUSH0 MSTORE PUSH1 0x11 PUSH1 0x20 MSTORE PUSH1 0x40 PUSH0 KECCAK256 PUSH2 0x2CB6 DUP10 DUP3 SLOAD PUSH2 0x2458 JUMP JUMPDEST DUP2 SSTORE PUSH1 0x3 DUP2 ADD PUSH2 0x2CC7 DUP11 DUP3 SLOAD PUSH2 0x2458 JUMP JUMPDEST SWAP1 SSTORE SLOAD PUSH2 0x240 MSTORE PUSH1 0xB PUSH2 0x260 MLOAD ADD SLOAD PUSH2 0x200 MSTORE PUSH0 JUMPDEST PUSH1 0x6 PUSH2 0x260 MLOAD ADD SLOAD DUP2 LT ISZERO PUSH2 0x2ED3 JUMPI PUSH2 0x2CF4 DUP2 PUSH2 0x1ECC JUMP JUMPDEST SWAP1 SLOAD SWAP1 PUSH1 0x3 SHL SHR PUSH2 0x1C0 MLOAD PUSH0 MSTORE PUSH1 0xE PUSH1 0x20 MSTORE PUSH1 0x40 PUSH0 KECCAK256 DUP2 PUSH0 MSTORE PUSH1 0x20 MSTORE PUSH1 0x40 PUSH0 KECCAK256 PUSH1 0x3 DUP2 ADD PUSH1 0xFF DUP2 SLOAD PUSH1 0x8 SHR AND DUP1 ISZERO SWAP1 DUP2 DUP1 SWAP3 PUSH2 0x2EB7 JUMPI JUMPDEST ISZERO PUSH2 0x2D92 JUMPI POP POP SWAP1 PUSH2 0x2D6A SWAP2 PUSH2 0x100 PUSH2 0xFF00 NOT DUP3 SLOAD AND OR SWAP1 SSTORE PUSH1 0xA PUSH2 0x2D53 PUSH2 0x200 MLOAD DUP6 PUSH2 0x2465 JUMP JUMPDEST DIV SWAP1 DUP2 PUSH1 0x2 DUP3 ADD SSTORE PUSH2 0x200 MLOAD SWAP1 SSTORE PUSH2 0x240 MLOAD PUSH2 0x1FBA JUMP JUMPDEST PUSH2 0x240 MSTORE PUSH0 MSTORE PUSH1 0xC PUSH1 0x20 MSTORE PUSH1 0x40 PUSH0 KECCAK256 SWAP1 DUP2 SLOAD PUSH0 NOT DUP2 ADD SWAP1 DUP2 GT PUSH2 0x7F8 JUMPI PUSH1 0x1 SWAP3 SSTORE JUMPDEST ADD PUSH2 0x2CDC JUMP JUMPDEST DUP1 SWAP2 SWAP4 SWAP5 SWAP3 POP SWAP1 PUSH2 0x2E9C JUMPI JUMPDEST ISZERO PUSH2 0x2DC2 JUMPI POP POP SWAP1 PUSH2 0x2DB9 PUSH1 0x2 PUSH1 0x1 SWAP4 ADD SLOAD PUSH2 0x240 MLOAD PUSH2 0x1FBA JUMP JUMPDEST PUSH2 0x240 MSTORE PUSH2 0x2D8C JUMP JUMPDEST DUP2 PUSH2 0x2E7F JUMPI JUMPDEST POP PUSH2 0x2DD6 JUMPI POP PUSH1 0x1 SWAP1 PUSH2 0x2D8C JUMP JUMPDEST SWAP1 POP PUSH1 0x1 PUSH2 0x240 SWAP13 SWAP9 SWAP5 SWAP11 SWAP4 SWAP10 SWAP3 SWAP7 SWAP13 SWAP12 SWAP8 SWAP6 SWAP12 MLOAD SWAP2 ADD SSTORE JUMPDEST PUSH1 0x1 SLOAD PUSH2 0x2E08 SWAP1 DUP3 SWAP1 DUP5 SWAP1 PUSH1 0x1 PUSH1 0x1 PUSH1 0xA0 SHL SUB AND PUSH2 0x320D JUMP JUMPDEST PUSH1 0x40 MLOAD DUP2 DUP2 MSTORE PUSH1 0x20 DUP2 ADD DUP8 SWAP1 MSTORE SWAP3 PUSH1 0x3 SWAP3 DUP5 PUSH2 0x2E4C SWAP5 PUSH1 0x40 PUSH2 0x2E56 SWAP8 ADD MSTORE TIMESTAMP PUSH1 0x60 DUP3 ADD MSTORE PUSH2 0x1E0 MLOAD SWAP2 PUSH0 MLOAD PUSH1 0x20 PUSH2 0x3723 PUSH0 CODECOPY PUSH0 MLOAD SWAP1 PUSH0 MSTORE PUSH1 0x80 PUSH2 0x1C0 MLOAD SWAP4 LOG4 PUSH2 0x2458 JUMP JUMPDEST SWAP7 PUSH2 0x1A0 MLOAD PUSH2 0x2458 JUMP JUMPDEST PUSH2 0x1A0 MSTORE PUSH1 0x1 SWAP4 JUMPDEST DUP3 PUSH2 0x1A0 MLOAD LT ISZERO PUSH2 0x2E79 JUMPI PUSH1 0x5 ADD SLOAD PUSH2 0x1C0 MSTORE PUSH1 0x1 ADD PUSH2 0x2BF7 JUMP JUMPDEST POP PUSH2 0x2C00 JUMP JUMPDEST PUSH2 0x200 MLOAD PUSH1 0xA SWAP3 POP PUSH2 0x2E90 SWAP2 PUSH2 0x2465 JUMP JUMPDEST DIV PUSH2 0x240 MLOAD LT PUSH0 PUSH2 0x2DC8 JUMP JUMPDEST POP PUSH1 0xA PUSH2 0x2EAC PUSH2 0x200 MLOAD DUP4 PUSH2 0x2465 JUMP JUMPDEST DIV PUSH2 0x240 MLOAD GT PUSH2 0x2D9E JUMP JUMPDEST POP PUSH1 0xA PUSH2 0x2EC7 PUSH2 0x200 MLOAD DUP8 PUSH2 0x2465 JUMP JUMPDEST DIV PUSH2 0x240 MLOAD LT ISZERO PUSH2 0x2D2B JUMP JUMPDEST POP SWAP4 SWAP10 SWAP6 SWAP2 SWAP8 SWAP1 SWAP7 SWAP9 SWAP5 SWAP3 SWAP9 PUSH2 0x2DEF JUMP JUMPDEST SWAP4 SWAP6 SWAP2 SWAP8 DUP3 DUP6 SWAP9 SWAP5 SWAP3 SWAP9 LT ISZERO PUSH2 0x2E5E JUMPI SWAP4 PUSH2 0x2EFE SWAP1 PUSH2 0x28E8 JUMP JUMPDEST SWAP4 PUSH2 0x2E5E JUMP JUMPDEST POP SWAP6 POP POP SWAP2 POP PUSH2 0x2F14 SWAP3 POP PUSH2 0x1FBA JUMP JUMPDEST DUP1 PUSH2 0x2876 JUMPI POP JUMP JUMPDEST POP PUSH1 0x5 SLOAD PUSH2 0x1C0 MLOAD EQ PUSH2 0x2C3F JUMP JUMPDEST POP DUP1 ISZERO PUSH2 0x2BBE JUMP JUMPDEST POP PUSH1 0x5 SLOAD DUP5 EQ PUSH2 0x2BB7 JUMP JUMPDEST SWAP1 DUP2 PUSH0 MSTORE PUSH1 0x45 PUSH1 0x20 MSTORE PUSH1 0xFF PUSH1 0x4 PUSH1 0x40 PUSH0 KECCAK256 ADD SLOAD AND ISZERO PUSH2 0x2F5A JUMPI POP POP JUMP JUMPDEST PUSH2 0x2F67 PUSH1 0x40 SLOAD DUP3 EQ PUSH2 0x329B JUMP JUMPDEST DUP1 PUSH0 MSTORE PUSH1 0x43 PUSH1 0x20 MSTORE PUSH2 0x2F83 PUSH1 0xFF PUSH1 0x8 PUSH1 0x40 PUSH0 KECCAK256 ADD SLOAD AND ISZERO PUSH2 0x32D7 JUMP JUMPDEST DUP2 PUSH0 MSTORE PUSH1 0x10 PUSH1 0x20 MSTORE PUSH1 0x40 PUSH0 KECCAK256 PUSH1 0x12 DUP2 ADD SLOAD SWAP1 DUP2 ISZERO PUSH2 0x309A JUMPI PUSH1 0x11 DUP2 ADD SLOAD PUSH3 0x83D600 DUP2 ADD DUP1 SWAP2 GT PUSH2 0x7F8 JUMPI PUSH2 0x2FDA SWAP3 GT ISZERO SWAP1 PUSH1 0x5 PUSH1 0x14 PUSH1 0xA PUSH1 0x6 DUP5 ADD SLOAD LT ISZERO SWAP3 ADD SLOAD LT ISZERO SWAP1 DUP3 PUSH2 0x3092 JUMPI JUMPDEST POP DUP2 PUSH2 0x308A JUMPI JUMPDEST POP PUSH2 0x3312 JUMP JUMPDEST DUP2 PUSH0 MSTORE PUSH1 0x45 PUSH1 0x20 MSTORE PUSH1 0x40 PUSH0 KECCAK256 SWAP2 PUSH1 0x4 DUP4 ADD PUSH2 0x2FF9 PUSH1 0xFF DUP3 SLOAD AND ISZERO PUSH2 0x334D JUMP JUMPDEST PUSH1 0x44 SLOAD SWAP4 PUSH1 0x1 PUSH1 0x40 SHL DUP6 LT ISZERO PUSH2 0x242C JUMPI PUSH1 0x1 DUP5 SWAP2 PUSH2 0x303F DUP8 DUP4 PUSH32 0x42EE5EF523A95C6FB3FFDD2E9B34955B83EA8C2B11FF268C87AE6EA25556EAAC SWAP10 ADD PUSH1 0x44 SSTORE PUSH1 0x44 PUSH2 0x1F16 JUMP JUMPDEST DUP2 SLOAD SWAP1 PUSH1 0x3 SHL SWAP1 DUP8 DUP3 SHL SWAP2 PUSH0 NOT SWAP1 SHL NOT AND OR SWAP1 SSTORE TIMESTAMP DUP2 SSTORE ADD SSTORE PUSH1 0x1 PUSH1 0xFF NOT DUP3 SLOAD AND OR SWAP1 SSTORE PUSH2 0x3085 PUSH1 0x40 MLOAD SWAP3 DUP4 SWAP3 TIMESTAMP SWAP2 DUP5 PUSH1 0x40 SWAP2 SWAP5 SWAP4 SWAP3 PUSH1 0x60 DUP3 ADD SWAP6 DUP3 MSTORE PUSH1 0x20 DUP3 ADD MSTORE ADD MSTORE JUMP JUMPDEST SUB SWAP1 LOG1 JUMP JUMPDEST SWAP1 POP PUSH0 PUSH2 0x2FD4 JUMP JUMPDEST SWAP2 POP PUSH0 PUSH2 0x2FCD JUMP JUMPDEST PUSH1 0x40 MLOAD PUSH3 0x461BCD PUSH1 0xE5 SHL DUP2 MSTORE PUSH1 0x20 PUSH1 0x4 DUP3 ADD MSTORE PUSH1 0x11 PUSH1 0x24 DUP3 ADD MSTORE PUSH17 0x55736572206E6F74206C6576656C20313 PUSH1 0x7C SHL PUSH1 0x44 DUP3 ADD MSTORE PUSH1 0x64 SWAP1 REVERT JUMPDEST SWAP1 DUP2 PUSH0 MSTORE PUSH1 0x4C PUSH1 0x20 MSTORE PUSH1 0xFF PUSH1 0x4 PUSH1 0x40 PUSH0 KECCAK256 ADD SLOAD AND ISZERO PUSH2 0x30F0 JUMPI POP POP JUMP JUMPDEST PUSH2 0x30FD PUSH1 0x47 SLOAD DUP3 EQ PUSH2 0x329B JUMP JUMPDEST DUP1 PUSH0 MSTORE PUSH1 0x4A PUSH1 0x20 MSTORE PUSH2 0x3119 PUSH1 0xFF PUSH1 0x8 PUSH1 0x40 PUSH0 KECCAK256 ADD SLOAD AND ISZERO PUSH2 0x32D7 JUMP JUMPDEST DUP2 PUSH0 MSTORE PUSH1 0x10 PUSH1 0x20 MSTORE PUSH1 0x40 PUSH0 KECCAK256 PUSH1 0x13 DUP2 ADD SLOAD SWAP1 DUP2 ISZERO PUSH2 0x31D4 JUMPI PUSH1 0x11 DUP2 ADD SLOAD PUSH4 0x2514300 DUP2 ADD DUP1 SWAP2 GT PUSH2 0x7F8 JUMPI PUSH2 0x316F SWAP3 GT ISZERO SWAP1 PUSH1 0x2 PUSH1 0x15 PUSH1 0xF PUSH1 0x6 DUP5 ADD SLOAD LT ISZERO SWAP3 ADD SLOAD LT ISZERO SWAP1 DUP3 PUSH2 0x3092 JUMPI POP DUP2 PUSH2 0x308A JUMPI POP PUSH2 0x3312 JUMP JUMPDEST DUP2 PUSH0 MSTORE PUSH1 0x4C PUSH1 0x20 MSTORE PUSH1 0x40 PUSH0 KECCAK256 SWAP2 PUSH1 0x4 DUP4 ADD PUSH2 0x318E PUSH1 0xFF DUP3 SLOAD AND ISZERO PUSH2 0x334D JUMP JUMPDEST PUSH1 0x4B SLOAD SWAP4 PUSH1 0x1 PUSH1 0x40 SHL DUP6 LT ISZERO PUSH2 0x242C JUMPI PUSH1 0x1 DUP5 SWAP2 PUSH2 0x303F DUP8 DUP4 PUSH32 0x42EE5EF523A95C6FB3FFDD2E9B34955B83EA8C2B11FF268C87AE6EA25556EAAC SWAP10 ADD PUSH1 0x4B SSTORE PUSH1 0x4B PUSH2 0x1F16 JUMP JUMPDEST PUSH1 0x40 MLOAD PUSH3 0x461BCD PUSH1 0xE5 SHL DUP2 MSTORE PUSH1 0x20 PUSH1 0x4 DUP3 ADD MSTORE PUSH1 0x11 PUSH1 0x24 DUP3 ADD MSTORE PUSH17 0x55736572206E6F74206C6576656C203135 PUSH1 0x78 SHL PUSH1 0x44 DUP3 ADD MSTORE PUSH1 0x64 SWAP1 REVERT JUMPDEST PUSH1 0x40 MLOAD PUSH4 0xA9059CBB PUSH1 0xE0 SHL PUSH1 0x20 DUP3 DUP2 ADD SWAP2 DUP3 MSTORE PUSH1 0x1 PUSH1 0x1 PUSH1 0xA0 SHL SUB SWAP1 SWAP5 AND PUSH1 0x24 DUP4 ADD MSTORE PUSH1 0x44 DUP1 DUP4 ADD SWAP6 SWAP1 SWAP6 MSTORE SWAP4 DUP2 MSTORE SWAP1 SWAP3 PUSH0 SWAP2 PUSH2 0x324B PUSH1 0x64 DUP3 PUSH2 0x240A JUMP JUMPDEST MLOAD SWAP1 DUP3 DUP6 GAS CALL ISZERO PUSH2 0x9C8 JUMPI PUSH0 MLOAD RETURNDATASIZE PUSH2 0x3292 JUMPI POP PUSH1 0x1 PUSH1 0x1 PUSH1 0xA0 SHL SUB DUP2 AND EXTCODESIZE ISZERO JUMPDEST PUSH2 0x3272 JUMPI POP JUMP JUMPDEST PUSH4 0x5274AFE7 PUSH1 0xE0 SHL PUSH0 SWAP1 DUP2 MSTORE PUSH1 0x1 PUSH1 0x1 PUSH1 0xA0 SHL SUB SWAP2 SWAP1 SWAP2 AND PUSH1 0x4 MSTORE PUSH1 0x24 SWAP1 REVERT JUMPDEST PUSH1 0x1 EQ ISZERO PUSH2 0x326B JUMP JUMPDEST ISZERO PUSH2 0x32A2 JUMPI JUMP JUMPDEST PUSH1 0x40 MLOAD PUSH3 0x461BCD PUSH1 0xE5 SHL DUP2 MSTORE PUSH1 0x20 PUSH1 0x4 DUP3 ADD MSTORE PUSH1 0xD PUSH1 0x24 DUP3 ADD MSTORE PUSH13 0x125B9D985B1A59081C9BDD5B99 PUSH1 0x9A SHL PUSH1 0x44 DUP3 ADD MSTORE PUSH1 0x64 SWAP1 REVERT JUMPDEST ISZERO PUSH2 0x32DE JUMPI JUMP JUMPDEST PUSH1 0x40 MLOAD PUSH3 0x461BCD PUSH1 0xE5 SHL DUP2 MSTORE PUSH1 0x20 PUSH1 0x4 DUP3 ADD MSTORE PUSH1 0xC PUSH1 0x24 DUP3 ADD MSTORE PUSH12 0x149BDD5B990818DB1BDCD959 PUSH1 0xA2 SHL PUSH1 0x44 DUP3 ADD MSTORE PUSH1 0x64 SWAP1 REVERT JUMPDEST ISZERO PUSH2 0x3319 JUMPI JUMP JUMPDEST PUSH1 0x40 MLOAD PUSH3 0x461BCD PUSH1 0xE5 SHL DUP2 MSTORE PUSH1 0x20 PUSH1 0x4 DUP3 ADD MSTORE PUSH1 0xC PUSH1 0x24 DUP3 ADD MSTORE PUSH12 0x4E6F7420656C696769626C65 PUSH1 0xA0 SHL PUSH1 0x44 DUP3 ADD MSTORE PUSH1 0x64 SWAP1 REVERT JUMPDEST ISZERO PUSH2 0x3354 JUMPI JUMP JUMPDEST PUSH1 0x40 MLOAD PUSH3 0x461BCD PUSH1 0xE5 SHL DUP2 MSTORE PUSH1 0x20 PUSH1 0x4 DUP3 ADD MSTORE PUSH1 0x11 PUSH1 0x24 DUP3 ADD MSTORE PUSH17 0x185B1C9958591E48145D585B1A599A5959 PUSH1 0x7A SHL PUSH1 0x44 DUP3 ADD MSTORE PUSH1 0x64 SWAP1 REVERT JUMPDEST PUSH1 0x3A SLOAD PUSH3 0x93A80 DUP2 ADD DUP1 SWAP2 GT PUSH2 0x7F8 JUMPI TIMESTAMP LT ISZERO PUSH2 0x33A6 JUMPI JUMP JUMPDEST PUSH1 0x39 SLOAD DUP1 PUSH0 MSTORE PUSH1 0x3C PUSH1 0x20 MSTORE PUSH1 0x40 PUSH0 KECCAK256 PUSH1 0x8 DUP2 ADD SWAP2 DUP3 SLOAD SWAP3 PUSH1 0xFF DUP5 AND PUSH2 0x2361 JUMPI PUSH0 DUP3 DUP2 MSTORE PUSH1 0x3D PUSH1 0x20 MSTORE PUSH1 0x40 SWAP1 KECCAK256 SLOAD SWAP3 DUP4 ISZERO PUSH2 0x34F0 JUMPI PUSH1 0x3B SLOAD SWAP2 PUSH2 0x33E8 DUP6 DUP5 PUSH2 0x1FC7 JUMP JUMPDEST PUSH9 0x3635C9ADC5DEA00000 DUP2 GT ISZERO PUSH2 0x34EA JUMPI POP PUSH9 0x3635C9ADC5DEA00000 SWAP2 JUMPDEST PUSH2 0x3410 DUP7 DUP5 PUSH2 0x2465 JUMP JUMPDEST SWAP4 DUP5 DUP1 DUP3 GT ISZERO PUSH2 0x34E2 JUMPI PUSH2 0x3423 SWAP2 PUSH2 0x1FBA JUMP JUMPDEST SWAP2 JUMPDEST DUP6 DUP3 SSTORE DUP4 PUSH1 0x3 DUP4 ADD SSTORE DUP7 PUSH1 0x2 DUP4 ADD SSTORE PUSH1 0x3B SLOAD PUSH1 0x1 DUP4 ADD SSTORE DUP3 PUSH1 0x7 DUP4 ADD SSTORE PUSH1 0x3A SLOAD SWAP2 PUSH3 0x93A80 DUP4 ADD DUP1 SWAP4 GT PUSH2 0x7F8 JUMPI PUSH1 0x6 PUSH1 0x1 SWAP2 ADD SWAP9 DUP4 DUP11 SSTORE PUSH1 0xFF NOT AND OR SWAP1 SSTORE PUSH1 0x3A SSTORE PUSH1 0x1 DUP5 ADD SWAP3 DUP4 DUP6 GT PUSH2 0x7F8 JUMPI PUSH32 0xCA8A78D1841A8DAFBB8FF53C869B3FA9A69ABD051022178024F84B680FFD2E3C SWAP7 PUSH2 0x3085 SWAP5 PUSH1 0x39 SSTORE DUP3 PUSH1 0x3B SSTORE PUSH2 0x34AA DUP4 DUP4 PUSH2 0x2458 JUMP JUMPDEST SWAP1 SLOAD SWAP4 PUSH1 0x40 MLOAD SWAP8 DUP9 SWAP8 DUP9 SWAP4 SWAP1 SWAP8 SWAP7 SWAP6 SWAP3 PUSH1 0xC0 SWAP6 SWAP3 PUSH1 0xE0 DUP7 ADD SWAP10 DUP7 MSTORE PUSH1 0x20 DUP7 ADD MSTORE PUSH1 0x40 DUP6 ADD MSTORE PUSH1 0x60 DUP5 ADD MSTORE PUSH1 0x80 DUP4 ADD MSTORE PUSH1 0xA0 DUP3 ADD MSTORE ADD MSTORE JUMP JUMPDEST POP POP PUSH0 PUSH2 0x3423 JUMP JUMPDEST SWAP2 PUSH2 0x3406 JUMP JUMPDEST SWAP1 PUSH1 0x3B SLOAD PUSH0 SWAP3 PUSH0 SWAP3 PUSH2 0x3425 JUMP JUMPDEST PUSH1 0x41 SLOAD PUSH3 0x278D00 DUP2 ADD DUP1 SWAP2 GT PUSH2 0x7F8 JUMPI TIMESTAMP LT ISZERO PUSH2 0x3516 JUMPI JUMP JUMPDEST PUSH1 0x40 SLOAD DUP1 PUSH0 MSTORE PUSH1 0x43 PUSH1 0x20 MSTORE PUSH1 0x40 PUSH0 KECCAK256 PUSH1 0x8 DUP2 ADD SWAP2 DUP3 SLOAD SWAP3 PUSH1 0xFF DUP5 AND PUSH2 0x2361 JUMPI PUSH1 0x44 SLOAD SWAP3 DUP4 ISZERO PUSH2 0x361F JUMPI PUSH1 0x42 SLOAD SWAP2 PUSH2 0x354D DUP6 DUP5 PUSH2 0x1FC7 JUMP JUMPDEST PUSH10 0x21E19E0C9BAB2400000 DUP2 GT ISZERO PUSH2 0x3619 JUMPI POP PUSH10 0x21E19E0C9BAB2400000 SWAP2 JUMPDEST PUSH2 0x3577 DUP7 DUP5 PUSH2 0x2465 JUMP JUMPDEST SWAP4 DUP5 DUP1 DUP3 GT ISZERO PUSH2 0x3611 JUMPI PUSH2 0x358A SWAP2 PUSH2 0x1FBA JUMP JUMPDEST SWAP2 JUMPDEST DUP6 DUP3 SSTORE DUP4 PUSH1 0x3 DUP4 ADD SSTORE DUP7 PUSH1 0x2 DUP4 ADD SSTORE PUSH1 0x42 SLOAD PUSH1 0x1 DUP4 ADD SSTORE DUP3 PUSH1 0x7 DUP4 ADD SSTORE PUSH1 0x41 SLOAD SWAP2 PUSH3 0x278D00 DUP4 ADD DUP1 SWAP4 GT PUSH2 0x7F8 JUMPI PUSH1 0x6 PUSH1 0x1 SWAP2 ADD SWAP9 DUP4 DUP11 SSTORE PUSH1 0xFF NOT AND OR SWAP1 SSTORE PUSH1 0x41 SSTORE PUSH1 0x1 DUP5 ADD SWAP3 DUP4 DUP6 GT PUSH2 0x7F8 JUMPI PUSH32 0x1B674071ADFA65DB18518E4868AE7D5F54DD365C69E0BABE9B704CBADE8FE4BB SWAP7 PUSH2 0x3085 SWAP5 PUSH1 0x40 SSTORE DUP3 PUSH1 0x42 SSTORE PUSH2 0x34AA DUP4 DUP4 PUSH2 0x2458 JUMP JUMPDEST POP POP PUSH0 PUSH2 0x358A JUMP JUMPDEST SWAP2 PUSH2 0x356D JUMP JUMPDEST SWAP1 PUSH1 0x42 SLOAD PUSH0 SWAP3 PUSH0 SWAP3 PUSH2 0x358C JUMP JUMPDEST PUSH1 0x48 SLOAD PUSH3 0x278D00 DUP2 ADD DUP1 SWAP2 GT PUSH2 0x7F8 JUMPI TIMESTAMP LT PUSH2 0x20E5 JUMPI PUSH1 0x47 SLOAD DUP1 PUSH0 MSTORE PUSH1 0x4A PUSH1 0x20 MSTORE PUSH1 0x40 PUSH0 KECCAK256 PUSH1 0x8 DUP2 ADD SWAP2 DUP3 SLOAD SWAP3 PUSH1 0xFF DUP5 AND PUSH2 0x2361 JUMPI PUSH1 0x4B SLOAD SWAP3 DUP4 ISZERO PUSH2 0x3715 JUMPI PUSH1 0x49 SLOAD SWAP2 PUSH2 0x3679 DUP6 DUP5 PUSH2 0x1FC7 JUMP JUMPDEST SWAP2 PUSH2 0x368E PUSH2 0x3687 DUP8 DUP6 PUSH2 0x2465 JUMP JUMPDEST DUP1 SWAP6 PUSH2 0x1FBA JUMP JUMPDEST SWAP2 JUMPDEST DUP6 DUP3 SSTORE DUP4 PUSH1 0x3 DUP4 ADD SSTORE DUP7 PUSH1 0x2 DUP4 ADD SSTORE PUSH1 0x49 SLOAD PUSH1 0x1 DUP4 ADD SSTORE DUP3 PUSH1 0x7 DUP4 ADD SSTORE PUSH1 0x48 SLOAD SWAP2 PUSH3 0x278D00 DUP4 ADD DUP1 SWAP4 GT PUSH2 0x7F8 JUMPI PUSH1 0x6 PUSH1 0x1 SWAP2 ADD SWAP9 DUP4 DUP11 SSTORE PUSH1 0xFF NOT AND OR SWAP1 SSTORE PUSH1 0x48 SSTORE PUSH1 0x1 DUP5 ADD SWAP3 DUP4 DUP6 GT PUSH2 0x7F8 JUMPI PUSH32 0x3E2269A22C7571B51C53565ECE51DA09613519B306C6DDE588BEEA1F5FD3CFD3 SWAP7 PUSH2 0x3085 SWAP5 PUSH1 0x47 SSTORE DUP3 PUSH1 0x49 SSTORE PUSH2 0x34AA DUP4 DUP4 PUSH2 0x2458 JUMP JUMPDEST SWAP1 PUSH1 0x49 SLOAD PUSH0 SWAP3 PUSH0 SWAP3 PUSH2 0x3690 JUMP INVALID 0x4D PUSH4 0x4C31300B SWAP8 0xDA 0xD9 SWAP12 GASPRICE 0xF7 SWAP10 OR DUP3 ADDRESS AND RETURNDATASIZE DUP9 0xAD ADDRESS PUSH4 0x70D063BE SWAP13 0xD9 SWAP3 0xD0 0xBE PUSH32 0xA2646970667358221220D72965E626660CFDD5589FDA930E791DCCABD6E6B0EA PUSH9 0xF99BFE5A6DD45C4E14 PUSH5 0x736F6C6343 STOP ADDMOD 0x1E STOP CALLER "
		},
		"gasEstimates": {
			"creation": {
				"codeDepositCost": "2840000",
				"executionCost": "infinite",
				"totalCost": "infinite"
			},
			"external": {
				"ACC_PRECISION()": "597",
				"MONTHLY_ROYALTY_DIRECT()": "1631",
				"MONTHLY_ROYALTY_LEVEL()": "433",
				"MONTHLY_ROYALTY_TIME()": "1323",
				"MONTH_DURATION()": "443",
				"PERCENTS_DIVIDER()": "223",
				"ROI_2X_TIME()": "685",
				"ROI_CAP_DIVIDER()": "895",
				"ROI_CAP_MULTIPLIER()": "653",
				"TIME_STEP()": "575",
				"TOP_ROYALTY_DIRECT()": "553",
				"TOP_ROYALTY_LEVEL()": "477",
				"TOP_ROYALTY_TIME()": "1015",
				"WEEK_DURATION()": "1059",
				"WeeklyCapping()": "1719",
				"WeeklyTotalReward()": "2634",
				"addressToId(address)": "3779",
				"boosterUsers(uint256,uint256)": "8039",
				"claimCommunity(uint256,uint256)": "infinite",
				"communityAccPerPackage(uint256)": "2919",
				"communityAccPerUser()": "3184",
				"communityDebt(uint256,uint256)": "3418",
				"creatorWallet()": "3230",
				"currentMonthlyRound()": "3624",
				"currentMonthlyStartTime()": "3778",
				"currentWeeklyRound()": "3646",
				"currentWeeklyStartTime()": "3951",
				"defaultRefId()": "3844",
				"directReferrals(uint256,uint256)": "7533",
				"glbBoosterPackages(uint256)": "6773",
				"incomeHistory(uint256,uint256)": "13998",
				"matrixDirect(uint256)": "3293",
				"minLevelForGlbBooster(uint256)": "3750",
				"minLevelForPool(uint256)": "2518",
				"minPoolForGlbBooster(uint256)": "3376",
				"monthlyCapping()": "1499",
				"monthlyQualifiedUsers(uint256)": "6861",
				"monthlyRoyaltyUserdtl(uint256)": "9323",
				"monthlyRoyaltydtl(uint256)": "20265",
				"monthlyTotalReward()": "3404",
				"monthlyUserDirects(uint256,uint256)": "8391",
				"packageQualifiedUsers(uint256)": "2435",
				"packages(uint256)": "7892",
				"pendingCommunity(uint256,uint256)": "infinite",
				"poolPackages(uint256)": "7719",
				"poolUsers(uint256,uint256)": "6895",
				"register(uint256)": "infinite",
				"registeredUserIds(uint256)": "7037",
				"systemMaintance()": "3824",
				"teamDevelopment()": "3934",
				"teams(uint256,uint256,uint256)": "7537",
				"topRoyaltyQualifiedUsers(uint256)": "8159",
				"topRoyaltyReward()": "3052",
				"topRoyaltyRound()": "2898",
				"topRoyaltyStartTime()": "3360",
				"topRoyaltyUserDirects(uint256,uint256)": "7379",
				"topRoyaltyUserdtl(uint256)": "10269",
				"topRoyaltydtl(uint256)": "19517",
				"totalUsers()": "3514",
				"upgrade(uint256)": "infinite",
				"usdt()": "2636",
				"userBoosterChildren(uint256,uint256,uint256)": "6943",
				"userBoosterdtl(uint256,uint256)": "12050",
				"userChildren(uint256,uint256,uint256)": "7823",
				"userHasPool(uint256,uint256)": "3650",
				"userHasbooster(uint256,uint256)": "3562",
				"userIdPerPool(uint256,uint256,uint256)": "7801",
				"userIncomes(uint256)": "26331",
				"userPackage(uint256,uint256)": "9664",
				"userPooldtl(uint256,uint256)": "12424",
				"userPooltopup(uint256,uint256)": "5787",
				"users(uint256)": "45537",
				"weeklyContestdtl(uint256)": "20727",
				"weeklyQualifiedUsers(uint256,uint256)": "6851",
				"weeklyUserDirects(uint256,uint256,uint256)": "7471",
				"weeklyUserdtl(uint256,uint256)": "8951"
			},
			"internal": {
				"_accrueCommunityBonus(uint256,uint256)": "infinite",
				"_applyGlobalCapping(uint256,uint256)": "6678",
				"_distributeLevelBoosterIncome(uint256,uint256,uint256,uint256,uint256)": "infinite",
				"_distributeMatrixIncome(uint256,uint256,uint256,uint256)": "infinite",
				"_distributeSponsorIncome(uint256,uint256,uint256,uint256)": "infinite",
				"_findEligibleSponsor(uint256,uint256)": "infinite",
				"_payLevelBooster(uint256,uint256,uint256,uint256)": "infinite",
				"_placeInMatrix(uint256,uint256)": "infinite"
			}
		},
		"methodIdentifiers": {
			"ACC_PRECISION()": "32fcd966",
			"MONTHLY_ROYALTY_DIRECT()": "d2f0490d",
			"MONTHLY_ROYALTY_LEVEL()": "23fd338e",
			"MONTHLY_ROYALTY_TIME()": "a5e52b99",
			"MONTH_DURATION()": "2a891534",
			"PERCENTS_DIVIDER()": "01c234a8",
			"ROI_2X_TIME()": "3a5084b3",
			"ROI_CAP_DIVIDER()": "58c7d352",
			"ROI_CAP_MULTIPLIER()": "375b43b4",
			"TIME_STEP()": "32bc298c",
			"TOP_ROYALTY_DIRECT()": "31bb6a30",
			"TOP_ROYALTY_LEVEL()": "2ae0ee0d",
			"TOP_ROYALTY_TIME()": "705fee2d",
			"WEEK_DURATION()": "76f5f700",
			"WeeklyCapping()": "ebe0ff15",
			"WeeklyTotalReward()": "3080b5bc",
			"addressToId(address)": "cb0e0d7d",
			"boosterUsers(uint256,uint256)": "c7bb62e8",
			"claimCommunity(uint256,uint256)": "1c4ecf68",
			"communityAccPerPackage(uint256)": "45cb537c",
			"communityAccPerUser()": "78f6ad6d",
			"communityDebt(uint256,uint256)": "89043ece",
			"creatorWallet()": "7cdc65f2",
			"currentMonthlyRound()": "c9ed0708",
			"currentMonthlyStartTime()": "e898fc38",
			"currentWeeklyRound()": "ca8e9121",
			"currentWeeklyStartTime()": "fddc806f",
			"defaultRefId()": "ec597e6f",
			"directReferrals(uint256,uint256)": "5ec64a44",
			"glbBoosterPackages(uint256)": "2350268f",
			"incomeHistory(uint256,uint256)": "70c8d770",
			"matrixDirect(uint256)": "88afbe3e",
			"minLevelForGlbBooster(uint256)": "d0a2fd79",
			"minLevelForPool(uint256)": "2132d204",
			"minPoolForGlbBooster(uint256)": "956a3228",
			"monthlyCapping()": "c8df2908",
			"monthlyQualifiedUsers(uint256)": "2d66014f",
			"monthlyRoyaltyUserdtl(uint256)": "4036436c",
			"monthlyRoyaltydtl(uint256)": "6a424782",
			"monthlyTotalReward()": "a59d17d1",
			"monthlyUserDirects(uint256,uint256)": "f7a24806",
			"packageQualifiedUsers(uint256)": "0676d0d6",
			"packages(uint256)": "c216212a",
			"pendingCommunity(uint256,uint256)": "54c5bd90",
			"poolPackages(uint256)": "ae4708dc",
			"poolUsers(uint256,uint256)": "0f2b7cc9",
			"register(uint256)": "f207564e",
			"registeredUserIds(uint256)": "39ab3603",
			"systemMaintance()": "e9e34a16",
			"teamDevelopment()": "f5d74d93",
			"teams(uint256,uint256,uint256)": "5aabf7f1",
			"topRoyaltyQualifiedUsers(uint256)": "f5748c4f",
			"topRoyaltyReward()": "5b62d1d5",
			"topRoyaltyRound()": "4b8cbf9b",
			"topRoyaltyStartTime()": "9b40ab97",
			"topRoyaltyUserDirects(uint256,uint256)": "4d12ae0f",
			"topRoyaltyUserdtl(uint256)": "db27cc71",
			"topRoyaltydtl(uint256)": "056b4d1f",
			"totalUsers()": "bff1f9e1",
			"upgrade(uint256)": "45977d03",
			"usdt()": "2f48ab7d",
			"userBoosterChildren(uint256,uint256,uint256)": "0ef81b74",
			"userBoosterdtl(uint256,uint256)": "907c84a7",
			"userChildren(uint256,uint256,uint256)": "8f030ece",
			"userHasPool(uint256,uint256)": "bd1aae40",
			"userHasbooster(uint256,uint256)": "9c383486",
			"userIdPerPool(uint256,uint256,uint256)": "8d58644c",
			"userIncomes(uint256)": "46b9dece",
			"userPackage(uint256,uint256)": "5b58ce6c",
			"userPooldtl(uint256,uint256)": "ce79c2c3",
			"userPooltopup(uint256,uint256)": "bf724672",
			"users(uint256)": "365b98b2",
			"weeklyContestdtl(uint256)": "c4eb42a5",
			"weeklyQualifiedUsers(uint256,uint256)": "0a5c5d69",
			"weeklyUserDirects(uint256,uint256,uint256)": "4d4cc5ca",
			"weeklyUserdtl(uint256,uint256)": "0054815d"
		}
	},
	"abi": [
		{
			"inputs": [],
			"stateMutability": "nonpayable",
			"type": "constructor"
		},
		{
			"inputs": [
				{
					"internalType": "address",
					"name": "token",
					"type": "address"
				}
			],
			"name": "SafeERC20FailedOperation",
			"type": "error"
		},
		{
			"anonymous": false,
			"inputs": [
				{
					"indexed": false,
					"internalType": "uint256",
					"name": "amount",
					"type": "uint256"
				},
				{
					"indexed": false,
					"internalType": "uint256",
					"name": "usersCount",
					"type": "uint256"
				},
				{
					"indexed": false,
					"internalType": "uint256",
					"name": "perUser",
					"type": "uint256"
				}
			],
			"name": "CommunityBonusDistributed",
			"type": "event"
		},
		{
			"anonymous": false,
			"inputs": [
				{
					"indexed": true,
					"internalType": "address",
					"name": "to",
					"type": "address"
				},
				{
					"indexed": true,
					"internalType": "address",
					"name": "from",
					"type": "address"
				},
				{
					"indexed": false,
					"internalType": "uint256",
					"name": "amount",
					"type": "uint256"
				},
				{
					"indexed": false,
					"internalType": "uint256",
					"name": "packageLevel",
					"type": "uint256"
				},
				{
					"indexed": false,
					"internalType": "uint256",
					"name": "incomeType",
					"type": "uint256"
				}
			],
			"name": "IncomeDistributed",
			"type": "event"
		},
		{
			"anonymous": false,
			"inputs": [
				{
					"indexed": true,
					"internalType": "address",
					"name": "to",
					"type": "address"
				},
				{
					"indexed": true,
					"internalType": "uint256",
					"name": "toId",
					"type": "uint256"
				},
				{
					"indexed": true,
					"internalType": "uint256",
					"name": "fromId",
					"type": "uint256"
				},
				{
					"indexed": false,
					"internalType": "uint256",
					"name": "amount",
					"type": "uint256"
				},
				{
					"indexed": false,
					"internalType": "uint256",
					"name": "packageLevel",
					"type": "uint256"
				},
				{
					"indexed": false,
					"internalType": "enum Storage.IncomeType",
					"name": "incomeType",
					"type": "uint8"
				},
				{
					"indexed": false,
					"internalType": "uint256",
					"name": "timestamp",
					"type": "uint256"
				}
			],
			"name": "IncomeDistribution",
			"type": "event"
		},
		{
			"anonymous": false,
			"inputs": [
				{
					"indexed": true,
					"internalType": "address",
					"name": "winner",
					"type": "address"
				},
				{
					"indexed": true,
					"internalType": "uint256",
					"name": "fromUserId",
					"type": "uint256"
				},
				{
					"indexed": false,
					"internalType": "uint256",
					"name": "amount",
					"type": "uint256"
				},
				{
					"indexed": false,
					"internalType": "uint256",
					"name": "timestamp",
					"type": "uint256"
				}
			],
			"name": "LotteryReward",
			"type": "event"
		},
		{
			"anonymous": false,
			"inputs": [
				{
					"indexed": false,
					"internalType": "uint256",
					"name": "roundId",
					"type": "uint256"
				},
				{
					"indexed": false,
					"internalType": "uint256",
					"name": "totalUsers",
					"type": "uint256"
				},
				{
					"indexed": false,
					"internalType": "uint256",
					"name": "perUserReward",
					"type": "uint256"
				},
				{
					"indexed": false,
					"internalType": "uint256",
					"name": "totalReward",
					"type": "uint256"
				},
				{
					"indexed": false,
					"internalType": "uint256",
					"name": "totalDistributed",
					"type": "uint256"
				},
				{
					"indexed": false,
					"internalType": "uint256",
					"name": "leftoverReward",
					"type": "uint256"
				},
				{
					"indexed": false,
					"internalType": "uint256",
					"name": "endTime",
					"type": "uint256"
				}
			],
			"name": "MonthlyClosed",
			"type": "event"
		},
		{
			"anonymous": false,
			"inputs": [
				{
					"indexed": false,
					"internalType": "uint256",
					"name": "roundId",
					"type": "uint256"
				},
				{
					"indexed": false,
					"internalType": "uint256",
					"name": "userId",
					"type": "uint256"
				},
				{
					"indexed": false,
					"internalType": "uint256",
					"name": "perUserReward",
					"type": "uint256"
				},
				{
					"indexed": false,
					"internalType": "uint256",
					"name": "claimTime",
					"type": "uint256"
				}
			],
			"name": "MonthlyRewardClaim",
			"type": "event"
		},
		{
			"anonymous": false,
			"inputs": [
				{
					"indexed": false,
					"internalType": "uint256",
					"name": "roundId",
					"type": "uint256"
				},
				{
					"indexed": false,
					"internalType": "uint256",
					"name": "userId",
					"type": "uint256"
				},
				{
					"indexed": false,
					"internalType": "uint256",
					"name": "joinTime",
					"type": "uint256"
				}
			],
			"name": "MonthlyRoyaltyQualified",
			"type": "event"
		},
		{
			"anonymous": false,
			"inputs": [
				{
					"indexed": true,
					"internalType": "address",
					"name": "user",
					"type": "address"
				},
				{
					"indexed": true,
					"internalType": "address",
					"name": "sponsor",
					"type": "address"
				},
				{
					"indexed": true,
					"internalType": "uint256",
					"name": "userId",
					"type": "uint256"
				},
				{
					"indexed": false,
					"internalType": "uint256",
					"name": "uplineId",
					"type": "uint256"
				}
			],
			"name": "Registration",
			"type": "event"
		},
		{
			"anonymous": false,
			"inputs": [
				{
					"indexed": true,
					"internalType": "address",
					"name": "to",
					"type": "address"
				},
				{
					"indexed": false,
					"internalType": "uint256",
					"name": "amount",
					"type": "uint256"
				},
				{
					"indexed": false,
					"internalType": "string",
					"name": "level",
					"type": "string"
				}
			],
			"name": "RewardSent",
			"type": "event"
		},
		{
			"anonymous": false,
			"inputs": [
				{
					"indexed": false,
					"internalType": "uint256",
					"name": "roundId",
					"type": "uint256"
				},
				{
					"indexed": false,
					"internalType": "uint256",
					"name": "totalUsers",
					"type": "uint256"
				},
				{
					"indexed": false,
					"internalType": "uint256",
					"name": "perUserReward",
					"type": "uint256"
				},
				{
					"indexed": false,
					"internalType": "uint256",
					"name": "totalReward",
					"type": "uint256"
				},
				{
					"indexed": false,
					"internalType": "uint256",
					"name": "totalDistributed",
					"type": "uint256"
				},
				{
					"indexed": false,
					"internalType": "uint256",
					"name": "leftoverReward",
					"type": "uint256"
				},
				{
					"indexed": false,
					"internalType": "uint256",
					"name": "endTime",
					"type": "uint256"
				}
			],
			"name": "TopRoyaltyClosed",
			"type": "event"
		},
		{
			"anonymous": false,
			"inputs": [
				{
					"indexed": false,
					"internalType": "uint256",
					"name": "roundId",
					"type": "uint256"
				},
				{
					"indexed": false,
					"internalType": "uint256",
					"name": "userId",
					"type": "uint256"
				},
				{
					"indexed": false,
					"internalType": "uint256",
					"name": "joinTime",
					"type": "uint256"
				}
			],
			"name": "TopRoyaltyQualified",
			"type": "event"
		},
		{
			"anonymous": false,
			"inputs": [
				{
					"indexed": false,
					"internalType": "uint256",
					"name": "roundId",
					"type": "uint256"
				},
				{
					"indexed": false,
					"internalType": "uint256",
					"name": "userId",
					"type": "uint256"
				},
				{
					"indexed": false,
					"internalType": "uint256",
					"name": "perUserReward",
					"type": "uint256"
				},
				{
					"indexed": false,
					"internalType": "uint256",
					"name": "claimTime",
					"type": "uint256"
				}
			],
			"name": "TopRoyaltyRewardClaim",
			"type": "event"
		},
		{
			"anonymous": false,
			"inputs": [
				{
					"indexed": true,
					"internalType": "address",
					"name": "user",
					"type": "address"
				},
				{
					"indexed": true,
					"internalType": "uint256",
					"name": "userId",
					"type": "uint256"
				},
				{
					"indexed": false,
					"internalType": "uint256",
					"name": "packageLevel",
					"type": "uint256"
				},
				{
					"indexed": false,
					"internalType": "uint256",
					"name": "packagePrice",
					"type": "uint256"
				},
				{
					"indexed": false,
					"internalType": "string",
					"name": "depositType",
					"type": "string"
				},
				{
					"indexed": false,
					"internalType": "uint256",
					"name": "upgradeTime",
					"type": "uint256"
				}
			],
			"name": "Upgrade",
			"type": "event"
		},
		{
			"anonymous": false,
			"inputs": [
				{
					"indexed": true,
					"internalType": "uint8",
					"name": "matrixId",
					"type": "uint8"
				},
				{
					"indexed": true,
					"internalType": "uint32",
					"name": "userId",
					"type": "uint32"
				},
				{
					"indexed": true,
					"internalType": "address",
					"name": "user",
					"type": "address"
				},
				{
					"indexed": false,
					"internalType": "uint32",
					"name": "parentId",
					"type": "uint32"
				},
				{
					"indexed": false,
					"internalType": "address",
					"name": "parentAddr",
					"type": "address"
				},
				{
					"indexed": false,
					"internalType": "uint8",
					"name": "position",
					"type": "uint8"
				}
			],
			"name": "UserJoined",
			"type": "event"
		},
		{
			"anonymous": false,
			"inputs": [
				{
					"indexed": false,
					"internalType": "uint256",
					"name": "roundId",
					"type": "uint256"
				},
				{
					"indexed": false,
					"internalType": "uint256",
					"name": "totalUsers",
					"type": "uint256"
				},
				{
					"indexed": false,
					"internalType": "uint256",
					"name": "perUserReward",
					"type": "uint256"
				},
				{
					"indexed": false,
					"internalType": "uint256",
					"name": "totalReward",
					"type": "uint256"
				},
				{
					"indexed": false,
					"internalType": "uint256",
					"name": "totalDistributed",
					"type": "uint256"
				},
				{
					"indexed": false,
					"internalType": "uint256",
					"name": "leftoverReward",
					"type": "uint256"
				},
				{
					"indexed": false,
					"internalType": "uint256",
					"name": "endTime",
					"type": "uint256"
				}
			],
			"name": "WeeklyClosed",
			"type": "event"
		},
		{
			"anonymous": false,
			"inputs": [
				{
					"indexed": false,
					"internalType": "uint256",
					"name": "roundId",
					"type": "uint256"
				},
				{
					"indexed": false,
					"internalType": "uint256",
					"name": "userId",
					"type": "uint256"
				},
				{
					"indexed": false,
					"internalType": "uint256",
					"name": "joinTime",
					"type": "uint256"
				}
			],
			"name": "WeeklyContestQualified",
			"type": "event"
		},
		{
			"anonymous": false,
			"inputs": [
				{
					"indexed": false,
					"internalType": "uint256",
					"name": "roundId",
					"type": "uint256"
				},
				{
					"indexed": false,
					"internalType": "uint256",
					"name": "userId",
					"type": "uint256"
				},
				{
					"indexed": false,
					"internalType": "uint256",
					"name": "perUserReward",
					"type": "uint256"
				},
				{
					"indexed": false,
					"internalType": "uint256",
					"name": "claimTime",
					"type": "uint256"
				}
			],
			"name": "WeeklyRewardClaim",
			"type": "event"
		},
		{
			"inputs": [],
			"name": "ACC_PRECISION",
			"outputs": [
				{
					"internalType": "uint256",
					"name": "",
					"type": "uint256"
				}
			],
			"stateMutability": "view",
			"type": "function"
		},
		{
			"inputs": [],
			"name": "MONTHLY_ROYALTY_DIRECT",
			"outputs": [
				{
					"internalType": "uint256",
					"name": "",
					"type": "uint256"
				}
			],
			"stateMutability": "view",
			"type": "function"
		},
		{
			"inputs": [],
			"name": "MONTHLY_ROYALTY_LEVEL",
			"outputs": [
				{
					"internalType": "uint256",
					"name": "",
					"type": "uint256"
				}
			],
			"stateMutability": "view",
			"type": "function"
		},
		{
			"inputs": [],
			"name": "MONTHLY_ROYALTY_TIME",
			"outputs": [
				{
					"internalType": "uint256",
					"name": "",
					"type": "uint256"
				}
			],
			"stateMutability": "view",
			"type": "function"
		},
		{
			"inputs": [],
			"name": "MONTH_DURATION",
			"outputs": [
				{
					"internalType": "uint256",
					"name": "",
					"type": "uint256"
				}
			],
			"stateMutability": "view",
			"type": "function"
		},
		{
			"inputs": [],
			"name": "PERCENTS_DIVIDER",
			"outputs": [
				{
					"internalType": "uint256",
					"name": "",
					"type": "uint256"
				}
			],
			"stateMutability": "view",
			"type": "function"
		},
		{
			"inputs": [],
			"name": "ROI_2X_TIME",
			"outputs": [
				{
					"internalType": "uint256",
					"name": "",
					"type": "uint256"
				}
			],
			"stateMutability": "view",
			"type": "function"
		},
		{
			"inputs": [],
			"name": "ROI_CAP_DIVIDER",
			"outputs": [
				{
					"internalType": "uint256",
					"name": "",
					"type": "uint256"
				}
			],
			"stateMutability": "view",
			"type": "function"
		},
		{
			"inputs": [],
			"name": "ROI_CAP_MULTIPLIER",
			"outputs": [
				{
					"internalType": "uint256",
					"name": "",
					"type": "uint256"
				}
			],
			"stateMutability": "view",
			"type": "function"
		},
		{
			"inputs": [],
			"name": "TIME_STEP",
			"outputs": [
				{
					"internalType": "uint256",
					"name": "",
					"type": "uint256"
				}
			],
			"stateMutability": "view",
			"type": "function"
		},
		{
			"inputs": [],
			"name": "TOP_ROYALTY_DIRECT",
			"outputs": [
				{
					"internalType": "uint256",
					"name": "",
					"type": "uint256"
				}
			],
			"stateMutability": "view",
			"type": "function"
		},
		{
			"inputs": [],
			"name": "TOP_ROYALTY_LEVEL",
			"outputs": [
				{
					"internalType": "uint256",
					"name": "",
					"type": "uint256"
				}
			],
			"stateMutability": "view",
			"type": "function"
		},
		{
			"inputs": [],
			"name": "TOP_ROYALTY_TIME",
			"outputs": [
				{
					"internalType": "uint256",
					"name": "",
					"type": "uint256"
				}
			],
			"stateMutability": "view",
			"type": "function"
		},
		{
			"inputs": [],
			"name": "WEEK_DURATION",
			"outputs": [
				{
					"internalType": "uint256",
					"name": "",
					"type": "uint256"
				}
			],
			"stateMutability": "view",
			"type": "function"
		},
		{
			"inputs": [],
			"name": "WeeklyCapping",
			"outputs": [
				{
					"internalType": "uint256",
					"name": "",
					"type": "uint256"
				}
			],
			"stateMutability": "view",
			"type": "function"
		},
		{
			"inputs": [],
			"name": "WeeklyTotalReward",
			"outputs": [
				{
					"internalType": "uint256",
					"name": "",
					"type": "uint256"
				}
			],
			"stateMutability": "view",
			"type": "function"
		},
		{
			"inputs": [
				{
					"internalType": "address",
					"name": "",
					"type": "address"
				}
			],
			"name": "addressToId",
			"outputs": [
				{
					"internalType": "uint256",
					"name": "",
					"type": "uint256"
				}
			],
			"stateMutability": "view",
			"type": "function"
		},
		{
			"inputs": [
				{
					"internalType": "uint256",
					"name": "",
					"type": "uint256"
				},
				{
					"internalType": "uint256",
					"name": "",
					"type": "uint256"
				}
			],
			"name": "boosterUsers",
			"outputs": [
				{
					"internalType": "uint256",
					"name": "",
					"type": "uint256"
				}
			],
			"stateMutability": "view",
			"type": "function"
		},
		{
			"inputs": [
				{
					"internalType": "uint256",
					"name": "_userId",
					"type": "uint256"
				},
				{
					"internalType": "uint256",
					"name": "packagePrice",
					"type": "uint256"
				}
			],
			"name": "claimCommunity",
			"outputs": [],
			"stateMutability": "nonpayable",
			"type": "function"
		},
		{
			"inputs": [
				{
					"internalType": "uint256",
					"name": "",
					"type": "uint256"
				}
			],
			"name": "communityAccPerPackage",
			"outputs": [
				{
					"internalType": "uint256",
					"name": "",
					"type": "uint256"
				}
			],
			"stateMutability": "view",
			"type": "function"
		},
		{
			"inputs": [],
			"name": "communityAccPerUser",
			"outputs": [
				{
					"internalType": "uint256",
					"name": "",
					"type": "uint256"
				}
			],
			"stateMutability": "view",
			"type": "function"
		},
		{
			"inputs": [
				{
					"internalType": "uint256",
					"name": "",
					"type": "uint256"
				},
				{
					"internalType": "uint256",
					"name": "",
					"type": "uint256"
				}
			],
			"name": "communityDebt",
			"outputs": [
				{
					"internalType": "uint256",
					"name": "",
					"type": "uint256"
				}
			],
			"stateMutability": "view",
			"type": "function"
		},
		{
			"inputs": [],
			"name": "creatorWallet",
			"outputs": [
				{
					"internalType": "address",
					"name": "",
					"type": "address"
				}
			],
			"stateMutability": "view",
			"type": "function"
		},
		{
			"inputs": [],
			"name": "currentMonthlyRound",
			"outputs": [
				{
					"internalType": "uint256",
					"name": "",
					"type": "uint256"
				}
			],
			"stateMutability": "view",
			"type": "function"
		},
		{
			"inputs": [],
			"name": "currentMonthlyStartTime",
			"outputs": [
				{
					"internalType": "uint256",
					"name": "",
					"type": "uint256"
				}
			],
			"stateMutability": "view",
			"type": "function"
		},
		{
			"inputs": [],
			"name": "currentWeeklyRound",
			"outputs": [
				{
					"internalType": "uint256",
					"name": "",
					"type": "uint256"
				}
			],
			"stateMutability": "view",
			"type": "function"
		},
		{
			"inputs": [],
			"name": "currentWeeklyStartTime",
			"outputs": [
				{
					"internalType": "uint256",
					"name": "",
					"type": "uint256"
				}
			],
			"stateMutability": "view",
			"type": "function"
		},
		{
			"inputs": [],
			"name": "defaultRefId",
			"outputs": [
				{
					"internalType": "uint256",
					"name": "",
					"type": "uint256"
				}
			],
			"stateMutability": "view",
			"type": "function"
		},
		{
			"inputs": [
				{
					"internalType": "uint256",
					"name": "",
					"type": "uint256"
				},
				{
					"internalType": "uint256",
					"name": "",
					"type": "uint256"
				}
			],
			"name": "directReferrals",
			"outputs": [
				{
					"internalType": "uint256",
					"name": "",
					"type": "uint256"
				}
			],
			"stateMutability": "view",
			"type": "function"
		},
		{
			"inputs": [
				{
					"internalType": "uint256",
					"name": "",
					"type": "uint256"
				}
			],
			"name": "glbBoosterPackages",
			"outputs": [
				{
					"internalType": "uint256",
					"name": "",
					"type": "uint256"
				}
			],
			"stateMutability": "view",
			"type": "function"
		},
		{
			"inputs": [
				{
					"internalType": "uint256",
					"name": "",
					"type": "uint256"
				},
				{
					"internalType": "uint256",
					"name": "",
					"type": "uint256"
				}
			],
			"name": "incomeHistory",
			"outputs": [
				{
					"internalType": "uint256",
					"name": "fromUserId",
					"type": "uint256"
				},
				{
					"internalType": "uint256",
					"name": "amount",
					"type": "uint256"
				},
				{
					"internalType": "uint256",
					"name": "packageLevel",
					"type": "uint256"
				},
				{
					"internalType": "uint256",
					"name": "timestamp",
					"type": "uint256"
				},
				{
					"internalType": "uint256",
					"name": "incomeType",
					"type": "uint256"
				}
			],
			"stateMutability": "view",
			"type": "function"
		},
		{
			"inputs": [
				{
					"internalType": "uint256",
					"name": "",
					"type": "uint256"
				}
			],
			"name": "matrixDirect",
			"outputs": [
				{
					"internalType": "uint256",
					"name": "",
					"type": "uint256"
				}
			],
			"stateMutability": "view",
			"type": "function"
		},
		{
			"inputs": [
				{
					"internalType": "uint256",
					"name": "",
					"type": "uint256"
				}
			],
			"name": "minLevelForGlbBooster",
			"outputs": [
				{
					"internalType": "uint256",
					"name": "",
					"type": "uint256"
				}
			],
			"stateMutability": "view",
			"type": "function"
		},
		{
			"inputs": [
				{
					"internalType": "uint256",
					"name": "",
					"type": "uint256"
				}
			],
			"name": "minLevelForPool",
			"outputs": [
				{
					"internalType": "uint256",
					"name": "",
					"type": "uint256"
				}
			],
			"stateMutability": "view",
			"type": "function"
		},
		{
			"inputs": [
				{
					"internalType": "uint256",
					"name": "",
					"type": "uint256"
				}
			],
			"name": "minPoolForGlbBooster",
			"outputs": [
				{
					"internalType": "uint256",
					"name": "",
					"type": "uint256"
				}
			],
			"stateMutability": "view",
			"type": "function"
		},
		{
			"inputs": [],
			"name": "monthlyCapping",
			"outputs": [
				{
					"internalType": "uint256",
					"name": "",
					"type": "uint256"
				}
			],
			"stateMutability": "view",
			"type": "function"
		},
		{
			"inputs": [
				{
					"internalType": "uint256",
					"name": "",
					"type": "uint256"
				}
			],
			"name": "monthlyQualifiedUsers",
			"outputs": [
				{
					"internalType": "uint256",
					"name": "",
					"type": "uint256"
				}
			],
			"stateMutability": "view",
			"type": "function"
		},
		{
			"inputs": [
				{
					"internalType": "uint256",
					"name": "",
					"type": "uint256"
				}
			],
			"name": "monthlyRoyaltyUserdtl",
			"outputs": [
				{
					"internalType": "uint256",
					"name": "joinTime",
					"type": "uint256"
				},
				{
					"internalType": "uint256",
					"name": "qualifiedRoundId",
					"type": "uint256"
				},
				{
					"internalType": "uint256",
					"name": "claimTime",
					"type": "uint256"
				},
				{
					"internalType": "bool",
					"name": "isQualified",
					"type": "bool"
				}
			],
			"stateMutability": "view",
			"type": "function"
		},
		{
			"inputs": [
				{
					"internalType": "uint256",
					"name": "",
					"type": "uint256"
				}
			],
			"name": "monthlyRoyaltydtl",
			"outputs": [
				{
					"internalType": "uint256",
					"name": "roundId",
					"type": "uint256"
				},
				{
					"internalType": "uint256",
					"name": "totalReward",
					"type": "uint256"
				},
				{
					"internalType": "uint256",
					"name": "totalUsers",
					"type": "uint256"
				},
				{
					"internalType": "uint256",
					"name": "perUserReward",
					"type": "uint256"
				},
				{
					"internalType": "uint256",
					"name": "claimedCount",
					"type": "uint256"
				},
				{
					"internalType": "uint256",
					"name": "startTime",
					"type": "uint256"
				},
				{
					"internalType": "uint256",
					"name": "endTime",
					"type": "uint256"
				},
				{
					"internalType": "uint256",
					"name": "carryForward",
					"type": "uint256"
				},
				{
					"internalType": "bool",
					"name": "closed",
					"type": "bool"
				}
			],
			"stateMutability": "view",
			"type": "function"
		},
		{
			"inputs": [],
			"name": "monthlyTotalReward",
			"outputs": [
				{
					"internalType": "uint256",
					"name": "",
					"type": "uint256"
				}
			],
			"stateMutability": "view",
			"type": "function"
		},
		{
			"inputs": [
				{
					"internalType": "uint256",
					"name": "",
					"type": "uint256"
				},
				{
					"internalType": "uint256",
					"name": "",
					"type": "uint256"
				}
			],
			"name": "monthlyUserDirects",
			"outputs": [
				{
					"internalType": "uint256",
					"name": "",
					"type": "uint256"
				}
			],
			"stateMutability": "view",
			"type": "function"
		},
		{
			"inputs": [
				{
					"internalType": "uint256",
					"name": "",
					"type": "uint256"
				}
			],
			"name": "packageQualifiedUsers",
			"outputs": [
				{
					"internalType": "uint256",
					"name": "",
					"type": "uint256"
				}
			],
			"stateMutability": "view",
			"type": "function"
		},
		{
			"inputs": [
				{
					"internalType": "uint256",
					"name": "",
					"type": "uint256"
				}
			],
			"name": "packages",
			"outputs": [
				{
					"internalType": "uint256",
					"name": "",
					"type": "uint256"
				}
			],
			"stateMutability": "view",
			"type": "function"
		},
		{
			"inputs": [
				{
					"internalType": "uint256",
					"name": "_userId",
					"type": "uint256"
				},
				{
					"internalType": "uint256",
					"name": "_packagePrice",
					"type": "uint256"
				}
			],
			"name": "pendingCommunity",
			"outputs": [
				{
					"internalType": "uint256",
					"name": "pendingGross",
					"type": "uint256"
				},
				{
					"internalType": "uint256",
					"name": "pendingAfterCap",
					"type": "uint256"
				}
			],
			"stateMutability": "view",
			"type": "function"
		},
		{
			"inputs": [
				{
					"internalType": "uint256",
					"name": "",
					"type": "uint256"
				}
			],
			"name": "poolPackages",
			"outputs": [
				{
					"internalType": "uint256",
					"name": "",
					"type": "uint256"
				}
			],
			"stateMutability": "view",
			"type": "function"
		},
		{
			"inputs": [
				{
					"internalType": "uint256",
					"name": "",
					"type": "uint256"
				},
				{
					"internalType": "uint256",
					"name": "",
					"type": "uint256"
				}
			],
			"name": "poolUsers",
			"outputs": [
				{
					"internalType": "uint256",
					"name": "",
					"type": "uint256"
				}
			],
			"stateMutability": "view",
			"type": "function"
		},
		{
			"inputs": [
				{
					"internalType": "uint256",
					"name": "_sponsorId",
					"type": "uint256"
				}
			],
			"name": "register",
			"outputs": [],
			"stateMutability": "nonpayable",
			"type": "function"
		},
		{
			"inputs": [
				{
					"internalType": "uint256",
					"name": "",
					"type": "uint256"
				}
			],
			"name": "registeredUserIds",
			"outputs": [
				{
					"internalType": "uint256",
					"name": "",
					"type": "uint256"
				}
			],
			"stateMutability": "view",
			"type": "function"
		},
		{
			"inputs": [],
			"name": "systemMaintance",
			"outputs": [
				{
					"internalType": "address",
					"name": "",
					"type": "address"
				}
			],
			"stateMutability": "view",
			"type": "function"
		},
		{
			"inputs": [],
			"name": "teamDevelopment",
			"outputs": [
				{
					"internalType": "address",
					"name": "",
					"type": "address"
				}
			],
			"stateMutability": "view",
			"type": "function"
		},
		{
			"inputs": [
				{
					"internalType": "uint256",
					"name": "",
					"type": "uint256"
				},
				{
					"internalType": "uint256",
					"name": "",
					"type": "uint256"
				},
				{
					"internalType": "uint256",
					"name": "",
					"type": "uint256"
				}
			],
			"name": "teams",
			"outputs": [
				{
					"internalType": "uint256",
					"name": "",
					"type": "uint256"
				}
			],
			"stateMutability": "view",
			"type": "function"
		},
		{
			"inputs": [
				{
					"internalType": "uint256",
					"name": "",
					"type": "uint256"
				}
			],
			"name": "topRoyaltyQualifiedUsers",
			"outputs": [
				{
					"internalType": "uint256",
					"name": "",
					"type": "uint256"
				}
			],
			"stateMutability": "view",
			"type": "function"
		},
		{
			"inputs": [],
			"name": "topRoyaltyReward",
			"outputs": [
				{
					"internalType": "uint256",
					"name": "",
					"type": "uint256"
				}
			],
			"stateMutability": "view",
			"type": "function"
		},
		{
			"inputs": [],
			"name": "topRoyaltyRound",
			"outputs": [
				{
					"internalType": "uint256",
					"name": "",
					"type": "uint256"
				}
			],
			"stateMutability": "view",
			"type": "function"
		},
		{
			"inputs": [],
			"name": "topRoyaltyStartTime",
			"outputs": [
				{
					"internalType": "uint256",
					"name": "",
					"type": "uint256"
				}
			],
			"stateMutability": "view",
			"type": "function"
		},
		{
			"inputs": [
				{
					"internalType": "uint256",
					"name": "",
					"type": "uint256"
				},
				{
					"internalType": "uint256",
					"name": "",
					"type": "uint256"
				}
			],
			"name": "topRoyaltyUserDirects",
			"outputs": [
				{
					"internalType": "uint256",
					"name": "",
					"type": "uint256"
				}
			],
			"stateMutability": "view",
			"type": "function"
		},
		{
			"inputs": [
				{
					"internalType": "uint256",
					"name": "",
					"type": "uint256"
				}
			],
			"name": "topRoyaltyUserdtl",
			"outputs": [
				{
					"internalType": "uint256",
					"name": "joinTime",
					"type": "uint256"
				},
				{
					"internalType": "uint256",
					"name": "qualifiedRoundId",
					"type": "uint256"
				},
				{
					"internalType": "uint256",
					"name": "claimTime",
					"type": "uint256"
				},
				{
					"internalType": "bool",
					"name": "isQualified",
					"type": "bool"
				}
			],
			"stateMutability": "view",
			"type": "function"
		},
		{
			"inputs": [
				{
					"internalType": "uint256",
					"name": "",
					"type": "uint256"
				}
			],
			"name": "topRoyaltydtl",
			"outputs": [
				{
					"internalType": "uint256",
					"name": "roundId",
					"type": "uint256"
				},
				{
					"internalType": "uint256",
					"name": "totalReward",
					"type": "uint256"
				},
				{
					"internalType": "uint256",
					"name": "totalUsers",
					"type": "uint256"
				},
				{
					"internalType": "uint256",
					"name": "perUserReward",
					"type": "uint256"
				},
				{
					"internalType": "uint256",
					"name": "claimedCount",
					"type": "uint256"
				},
				{
					"internalType": "uint256",
					"name": "startTime",
					"type": "uint256"
				},
				{
					"internalType": "uint256",
					"name": "endTime",
					"type": "uint256"
				},
				{
					"internalType": "uint256",
					"name": "carryForward",
					"type": "uint256"
				},
				{
					"internalType": "bool",
					"name": "closed",
					"type": "bool"
				}
			],
			"stateMutability": "view",
			"type": "function"
		},
		{
			"inputs": [],
			"name": "totalUsers",
			"outputs": [
				{
					"internalType": "uint256",
					"name": "",
					"type": "uint256"
				}
			],
			"stateMutability": "view",
			"type": "function"
		},
		{
			"inputs": [
				{
					"internalType": "uint256",
					"name": "_userId",
					"type": "uint256"
				}
			],
			"name": "upgrade",
			"outputs": [],
			"stateMutability": "nonpayable",
			"type": "function"
		},
		{
			"inputs": [],
			"name": "usdt",
			"outputs": [
				{
					"internalType": "contract IERC20",
					"name": "",
					"type": "address"
				}
			],
			"stateMutability": "view",
			"type": "function"
		},
		{
			"inputs": [
				{
					"internalType": "uint256",
					"name": "",
					"type": "uint256"
				},
				{
					"internalType": "uint256",
					"name": "",
					"type": "uint256"
				},
				{
					"internalType": "uint256",
					"name": "",
					"type": "uint256"
				}
			],
			"name": "userBoosterChildren",
			"outputs": [
				{
					"internalType": "uint256",
					"name": "",
					"type": "uint256"
				}
			],
			"stateMutability": "view",
			"type": "function"
		},
		{
			"inputs": [
				{
					"internalType": "uint256",
					"name": "",
					"type": "uint256"
				},
				{
					"internalType": "uint256",
					"name": "",
					"type": "uint256"
				}
			],
			"name": "userBoosterdtl",
			"outputs": [
				{
					"internalType": "uint256",
					"name": "id",
					"type": "uint256"
				},
				{
					"internalType": "uint256",
					"name": "poolId",
					"type": "uint256"
				},
				{
					"internalType": "uint256",
					"name": "parentId",
					"type": "uint256"
				},
				{
					"internalType": "uint256",
					"name": "bonusCount",
					"type": "uint256"
				},
				{
					"internalType": "uint256",
					"name": "joinTime",
					"type": "uint256"
				}
			],
			"stateMutability": "view",
			"type": "function"
		},
		{
			"inputs": [
				{
					"internalType": "uint256",
					"name": "",
					"type": "uint256"
				},
				{
					"internalType": "uint256",
					"name": "",
					"type": "uint256"
				},
				{
					"internalType": "uint256",
					"name": "",
					"type": "uint256"
				}
			],
			"name": "userChildren",
			"outputs": [
				{
					"internalType": "uint256",
					"name": "",
					"type": "uint256"
				}
			],
			"stateMutability": "view",
			"type": "function"
		},
		{
			"inputs": [
				{
					"internalType": "uint256",
					"name": "",
					"type": "uint256"
				},
				{
					"internalType": "uint256",
					"name": "",
					"type": "uint256"
				}
			],
			"name": "userHasPool",
			"outputs": [
				{
					"internalType": "bool",
					"name": "",
					"type": "bool"
				}
			],
			"stateMutability": "view",
			"type": "function"
		},
		{
			"inputs": [
				{
					"internalType": "uint256",
					"name": "",
					"type": "uint256"
				},
				{
					"internalType": "uint256",
					"name": "",
					"type": "uint256"
				}
			],
			"name": "userHasbooster",
			"outputs": [
				{
					"internalType": "bool",
					"name": "",
					"type": "bool"
				}
			],
			"stateMutability": "view",
			"type": "function"
		},
		{
			"inputs": [
				{
					"internalType": "uint256",
					"name": "",
					"type": "uint256"
				},
				{
					"internalType": "uint256",
					"name": "",
					"type": "uint256"
				},
				{
					"internalType": "uint256",
					"name": "",
					"type": "uint256"
				}
			],
			"name": "userIdPerPool",
			"outputs": [
				{
					"internalType": "uint256",
					"name": "",
					"type": "uint256"
				}
			],
			"stateMutability": "view",
			"type": "function"
		},
		{
			"inputs": [
				{
					"internalType": "uint256",
					"name": "",
					"type": "uint256"
				}
			],
			"name": "userIncomes",
			"outputs": [
				{
					"internalType": "uint256",
					"name": "totalIncome",
					"type": "uint256"
				},
				{
					"internalType": "uint256",
					"name": "sponsorIncome",
					"type": "uint256"
				},
				{
					"internalType": "uint256",
					"name": "matrixIncome",
					"type": "uint256"
				},
				{
					"internalType": "uint256",
					"name": "levelBoosterIncome",
					"type": "uint256"
				},
				{
					"internalType": "uint256",
					"name": "royaltyIncome",
					"type": "uint256"
				},
				{
					"internalType": "uint256",
					"name": "royaltyIncomeClaimed",
					"type": "uint256"
				},
				{
					"internalType": "uint256",
					"name": "communityIncome",
					"type": "uint256"
				},
				{
					"internalType": "uint256",
					"name": "poolIncome",
					"type": "uint256"
				},
				{
					"internalType": "uint256",
					"name": "boosterIncome",
					"type": "uint256"
				},
				{
					"internalType": "uint256",
					"name": "weeklyContestIncome",
					"type": "uint256"
				},
				{
					"internalType": "uint256",
					"name": "monthlyRoyalty",
					"type": "uint256"
				},
				{
					"internalType": "uint256",
					"name": "topRoyalty",
					"type": "uint256"
				}
			],
			"stateMutability": "view",
			"type": "function"
		},
		{
			"inputs": [
				{
					"internalType": "uint256",
					"name": "",
					"type": "uint256"
				},
				{
					"internalType": "uint256",
					"name": "",
					"type": "uint256"
				}
			],
			"name": "userPackage",
			"outputs": [
				{
					"internalType": "uint256",
					"name": "roiCap",
					"type": "uint256"
				},
				{
					"internalType": "uint256",
					"name": "currentIncome",
					"type": "uint256"
				},
				{
					"internalType": "uint256",
					"name": "closingAmount",
					"type": "uint256"
				},
				{
					"internalType": "bool",
					"name": "qualified",
					"type": "bool"
				},
				{
					"internalType": "bool",
					"name": "closed",
					"type": "bool"
				}
			],
			"stateMutability": "view",
			"type": "function"
		},
		{
			"inputs": [
				{
					"internalType": "uint256",
					"name": "",
					"type": "uint256"
				},
				{
					"internalType": "uint256",
					"name": "",
					"type": "uint256"
				}
			],
			"name": "userPooldtl",
			"outputs": [
				{
					"internalType": "uint256",
					"name": "id",
					"type": "uint256"
				},
				{
					"internalType": "uint256",
					"name": "mainid",
					"type": "uint256"
				},
				{
					"internalType": "uint256",
					"name": "poolId",
					"type": "uint256"
				},
				{
					"internalType": "uint256",
					"name": "parentId",
					"type": "uint256"
				},
				{
					"internalType": "uint256",
					"name": "bonusCount",
					"type": "uint256"
				}
			],
			"stateMutability": "view",
			"type": "function"
		},
		{
			"inputs": [
				{
					"internalType": "uint256",
					"name": "",
					"type": "uint256"
				},
				{
					"internalType": "uint256",
					"name": "",
					"type": "uint256"
				}
			],
			"name": "userPooltopup",
			"outputs": [
				{
					"internalType": "uint256",
					"name": "nextPoolAmt",
					"type": "uint256"
				},
				{
					"internalType": "uint256",
					"name": "reTopupAmt",
					"type": "uint256"
				}
			],
			"stateMutability": "view",
			"type": "function"
		},
		{
			"inputs": [
				{
					"internalType": "uint256",
					"name": "",
					"type": "uint256"
				}
			],
			"name": "users",
			"outputs": [
				{
					"internalType": "address",
					"name": "account",
					"type": "address"
				},
				{
					"internalType": "uint256",
					"name": "checkpoint",
					"type": "uint256"
				},
				{
					"internalType": "uint256",
					"name": "id",
					"type": "uint256"
				},
				{
					"internalType": "uint256",
					"name": "sponsorId",
					"type": "uint256"
				},
				{
					"internalType": "uint256",
					"name": "uplineId",
					"type": "uint256"
				},
				{
					"internalType": "uint256",
					"name": "level",
					"type": "uint256"
				},
				{
					"internalType": "uint256",
					"name": "directTeam",
					"type": "uint256"
				},
				{
					"internalType": "uint256",
					"name": "directPoolQualified",
					"type": "uint256"
				},
				{
					"internalType": "uint256",
					"name": "totalMatrixTeam",
					"type": "uint256"
				},
				{
					"internalType": "uint256",
					"name": "totalDeposit",
					"type": "uint256"
				},
				{
					"internalType": "uint256",
					"name": "roiCap",
					"type": "uint256"
				},
				{
					"internalType": "uint256",
					"name": "poollevel",
					"type": "uint256"
				},
				{
					"internalType": "uint256",
					"name": "poolDeposit",
					"type": "uint256"
				},
				{
					"internalType": "uint256",
					"name": "poolStartTime",
					"type": "uint256"
				},
				{
					"internalType": "uint256",
					"name": "boosterlevel",
					"type": "uint256"
				},
				{
					"internalType": "uint256",
					"name": "boosterDeposit",
					"type": "uint256"
				},
				{
					"internalType": "uint256",
					"name": "registrationTime",
					"type": "uint256"
				},
				{
					"internalType": "uint256",
					"name": "level10Time",
					"type": "uint256"
				},
				{
					"internalType": "uint256",
					"name": "level15Time",
					"type": "uint256"
				},
				{
					"internalType": "uint256",
					"name": "monthlyUserDirectCount",
					"type": "uint256"
				},
				{
					"internalType": "uint256",
					"name": "topRoyaltyDirectCount",
					"type": "uint256"
				}
			],
			"stateMutability": "view",
			"type": "function"
		},
		{
			"inputs": [
				{
					"internalType": "uint256",
					"name": "",
					"type": "uint256"
				}
			],
			"name": "weeklyContestdtl",
			"outputs": [
				{
					"internalType": "uint256",
					"name": "roundId",
					"type": "uint256"
				},
				{
					"internalType": "uint256",
					"name": "totalReward",
					"type": "uint256"
				},
				{
					"internalType": "uint256",
					"name": "totalUsers",
					"type": "uint256"
				},
				{
					"internalType": "uint256",
					"name": "perUserReward",
					"type": "uint256"
				},
				{
					"internalType": "uint256",
					"name": "claimedCount",
					"type": "uint256"
				},
				{
					"internalType": "uint256",
					"name": "startTime",
					"type": "uint256"
				},
				{
					"internalType": "uint256",
					"name": "endTime",
					"type": "uint256"
				},
				{
					"internalType": "uint256",
					"name": "carryForward",
					"type": "uint256"
				},
				{
					"internalType": "bool",
					"name": "closed",
					"type": "bool"
				}
			],
			"stateMutability": "view",
			"type": "function"
		},
		{
			"inputs": [
				{
					"internalType": "uint256",
					"name": "",
					"type": "uint256"
				},
				{
					"internalType": "uint256",
					"name": "",
					"type": "uint256"
				}
			],
			"name": "weeklyQualifiedUsers",
			"outputs": [
				{
					"internalType": "uint256",
					"name": "",
					"type": "uint256"
				}
			],
			"stateMutability": "view",
			"type": "function"
		},
		{
			"inputs": [
				{
					"internalType": "uint256",
					"name": "",
					"type": "uint256"
				},
				{
					"internalType": "uint256",
					"name": "",
					"type": "uint256"
				},
				{
					"internalType": "uint256",
					"name": "",
					"type": "uint256"
				}
			],
			"name": "weeklyUserDirects",
			"outputs": [
				{
					"internalType": "uint256",
					"name": "",
					"type": "uint256"
				}
			],
			"stateMutability": "view",
			"type": "function"
		},
		{
			"inputs": [
				{
					"internalType": "uint256",
					"name": "",
					"type": "uint256"
				},
				{
					"internalType": "uint256",
					"name": "",
					"type": "uint256"
				}
			],
			"name": "weeklyUserdtl",
			"outputs": [
				{
					"internalType": "uint256",
					"name": "joinTime",
					"type": "uint256"
				},
				{
					"internalType": "uint256",
					"name": "roundId",
					"type": "uint256"
				},
				{
					"internalType": "uint256",
					"name": "claimTime",
					"type": "uint256"
				},
				{
					"internalType": "bool",
					"name": "isClaimed",
					"type": "bool"
				},
				{
					"internalType": "bool",
					"name": "isQualified",
					"type": "bool"
				}
			],
			"stateMutability": "view",
			"type": "function"
		}
	]
}