{
	"data": {
		"bytecode": {
			"linkReferences": {},
			"object": "60806040523461052b5760015f556040516101e081016001600160401b038111828210176105175760405267d02ab486cedc0000815268015af1d78b58c4000060208201526802b5e3af16b1880000604082015268056bc75e2d631000006060820152680ad78ebc5ac620000060808201526815af1d78b58c40000060a0820152682b5e3af16b1880000060c08201526856bc75e2d63100000060e082015268ad78ebc5ac6200000061010082015269015af1d78b58c40000006101208201526902b5e3af16b18800000061014082015269056bc75e2d6310000000610160820152690ad78ebc5ac6200000006101808201526915af1d78b58c400000006101a0820152692b5e3af16b18800000006101c0820152600d54600f600d5580600f106104c1575b50600d5f5260205f20905f5b600f81106104a45761014161052f565b680410d586a20a4c00008152681043561a8829300000602082015268410d586a20a4c0000060408201526901043561a882930000006060820152690410d586a20a4c0000006080820152691043561a88293000000060a082015269410d586a20a4c000000060c082015260165460076016558060071061044e575b5060165f5260205f20905f5b60078110610431576101d861054e565b68056bc75e2d631000008152680ad78ebc5ac620000060208201526815af1d78b58c4000006040820152682b5e3af16b1880000060608201526856bc75e2d631000000608082015268ad78ebc5ac6200000060a082015269015af1d78b58c400000060c08201526902b5e3af16b18800000060e08201526017546008601755806008106103db575b5060175f5260205f20905f5b600881106103be5761027c61052f565b60038152600560208201526007604082015260096060820152600b6080820152600d60a0820152600f60c08201525f5b600781106103a6576102bc61054e565b6004815260056020820152600660408201526007606082015260086080820152600960a0820152600a60c0820152600b60e08201525f5b6008811061038e5761030361054e565b5f815260016020820152600160408201526001606082015260016080820152600160a0820152600160c0820152600160e08201525f5b60088110610376575f6039555f603a555f603b5560016040555f6041555f60425560016047555f6048555f6049556040516133cb90816105858239f35b600190602060ff845116930192816027015501610339565b600190602060ff84511693019281601f0155016102f3565b600190602060ff8451169301928160180155016102ac565b81516001600160501b03168184015560209091019060010161026c565b60175f5261042b907fc624b66cc0138b8fabc209247f72d758e1cf3343756d543badbf24212bed8c15017fc624b66cc0138b8fabc209247f72d758e1cf3343756d543badbf24212bed8c1d61056e565b81610260565b81516001600160501b0316818401556020909101906001016101c8565b60165f5261049e907fd833147d7dc355ba459fc788f669e58cfaf9dc25ddcd0702e87d69c7b5124289017fd833147d7dc355ba459fc788f669e58cfaf9dc25ddcd0702e87d69c7b512429061056e565b816101bc565b81516001600160501b031681840155602090910190600101610131565b600d5f52610511907fd7b6990105719101dabeb77144f2a3385c8033acd3af97e9423a695e81ad1eb5017fd7b6990105719101dabeb77144f2a3385c8033acd3af97e9423a695e81ad1ec461056e565b5f610125565b634e487b7160e01b5f52604160045260245ffd5b5f80fd5b6040519060e082016001600160401b0381118382101761051757604052565b6040519061010082016001600160401b0381118382101761051757604052565b818110610579575050565b5f815560010161056e56fe610280806040526004361015610013575f80fd5b5f3560e01c90816254815d14611def5750806301c234a814611dd3578063056b4d1f14611d735780630676d0d614611d495780630a5c5d6914611d1a5780630ef81b7414611ce15780630f2b7cc914611cb25780631c4ecf6814611c995780632132d20414611c6d5780632350268f14611c1357806323fd338e1461122a5780632a89153414611bf65780632ae0ee0d146119455780632d66014f14611b9c5780632f48ab7d14611b745780633080b5bc14611b5757806331bb6a3014611b3c57806332bc298c14611b1f57806332fcd96614611afd578063365b98b21461194a578063375b43b41461194557806339ab3603146118eb5780633a5084b3146118ce5780634036436c1461186f57806345977d03146113a857806345cb537c1461137e57806346b9dece146112d95780634b8cbf9b146112bc5780634d12ae0f1461128d5780634d4cc5ca1461125457806354c5bd901461122f57806358c7d3521461122a5780635aabf7f1146111f15780635b58ce6c146111895780635b62d1d51461116c5780635ec64a441461113d5780636a424782146110dd578063705fee2d146110bf57806370c8d7701461104a57806376f5f7001461102d57806378f6ad6d146110105780637cdc65f214610fe857806388afbe3e14610fbe57806389043ece14610f8f5780638d58644c14610f565780638f030ece14610f1d578063907c84a714610eb2578063956a322814610e865780639b40ab9714610e695780639c38348614610e35578063a59d17d114610e18578063a5e52b9914610dfb578063ae4708dc14610da1578063bd1aae4014610d6d578063bf72467214610d35578063bff1f9e114610d18578063c216212a14610cef578063c4eb42a514610c8f578063c7bb62e814610c60578063c8df290814610c3c578063c9ed070814610c1f578063ca8e912114610c02578063cb0e0d7d14610bc6578063ce79c2c314610b5b578063d0a2fd7914610b2f578063d2f0490d14610b14578063db27cc7114610ab1578063e898fc3814610a94578063e9e34a1614610a6c578063ebe0ff1514610a49578063ec597e6f14610a2c578063f207564e14610455578063f5748c4f146103e7578063f5d74d93146103bf578063f7a24806146103815763fddc806f14610360575f80fd5b3461037d575f36600319011261037d576020603a54604051908152f35b5f80fd5b3461037d5761038f36611e5e565b905f52604660205260405f20805482101561037d576020916103b091611efe565b90549060031b1c604051908152f35b3461037d575f36600319011261037d576004546040516001600160a01b039091168152602090f35b3461037d57602036600319011261037d57600435604b5481101561037d57604b5481101561044157604b5f527f17b0af156a929edf60c351f3df2d53ed643fdd750aef9eda90dc7c8759a104a80154604051908152602090f35b634e487b7160e01b5f52603260045260245ffd5b3461037d57602036600319011261037d57600435335f52600f60205260405f20546109f257805f526010602052600360405f200154156109bb576001545f906020906104e2906001600160a01b03166104ac611ecc565b90546040516323b872dd60e01b815233600482015230602482015260039290921b1c604482015293849283919082906064820190565b03925af180156109b057610983575b50600554906105036006548093612440565b91600181018091116107e057600655335f52600f6020528160405f2055610528611ecc565b90549060031b1c90825f52601060205260405f2091336bffffffffffffffffffffffff60a01b84541617835542600284015583600384015560048301908282556001600685015580600a850155426011850155600f600b850155825f526010602052600760405f2001805490600182018092116107e05755825f5260156020526105b58560405f206124d7565b845f52600e60205260405f20815f52602052600360405f2001600160ff19825416179055805f52600c60205260405f20805490600182018092116107e05755805f52600a60205260405f2054815f52600b60205260405f20865f5260205260405f20555f5f90845f526014602052600260405f2054105f14610855575050845f52601060205282600560405f200155825f52601460205260405f20805490600182018092116107e05755825b5f905b600f82106107f4575b5050600581028115908281046005148217156107e0576064900492603c830291838304603c148117156107e0576106a685603b54612440565b603b55602384028481046023148217156107e0576103e86106ca9104604254612440565b604255600f8402848104600f148217156107e0576103e86106ee9104604954612440565b604955601984029084820460191417156107e05760646107279361071f8a9761071a88858b97046127fe565b612742565b04915461286f565b60405190600182526020820152608060408201527f26adb22cec823ef144935e9fbef1b6b4a3a29dacbe5444d59292fa2620f3d37761078c60808301604090601581527453706f6e736f72736869702053747275637475726560581b60208201520190565b914260608201528033930390a35f526010602052600560018060a01b0360405f2054169101546040519081527f309bb360e8b69c23937ccc5fb01f9aeeead1c95a99604e175113ff82f2b1723a60203392a4005b634e487b7160e01b5f52601160045260245ffd5b801561085057805f526010602052600960405f2001805490600182018092116107e05755805f52601360205260405f20825f526020526108378760405f206124d7565b5f5260106020526001600560405f200154910190610664565b61066d565b5f5b600f8110610867575b5050610661565b8161097e57855f52601360205260405f20600182018083116107e0575f5260205260405f2054600282018083116107e05760ff81116107e0576001901b116108b2575b600101610857565b9493909591925f5b855f52601360205260405f20875f5260205260405f205481101561096f578761095d57855f52601360205260405f20875f526020526108fc8160405f20611efe565b90549060031b1c805f526014602052600260405f205410610921575b506001016108ba565b9194509650875f52601060205280600560405f200155805f52601460205260405f20805490600182018092116107e05755926001809790610918565b509291959093946001905b90506108aa565b50929195909394600190610968565b610860565b6109a49060203d6020116109a9575b61099c81836123f2565b810190612428565b6104f1565b503d610992565b6040513d5f823e3d90fd5b60405162461bcd60e51b815260206004820152600f60248201526e24b73b30b634b21039b837b739b7b960891b6044820152606490fd5b60405162461bcd60e51b8152602060048201526012602482015271105b1c9958591e481c9959da5cdd195c995960721b6044820152606490fd5b3461037d575f36600319011261037d576020600554604051908152f35b3461037d575f36600319011261037d576020604051683635c9adc5dea000008152f35b3461037d575f36600319011261037d576003546040516001600160a01b039091168152602090f35b3461037d575f36600319011261037d576020604154604051908152f35b3461037d57602036600319011261037d576004355f52604c60205260405f208054610b1060018301549260ff60046002830154920154169060405194859485926060929594919560808501968552602085015260408401521515910152565b0390f35b3461037d575f36600319011261037d57602060405160058152f35b3461037d57602036600319011261037d57600435600881101561037d57602090601f0154604051908152f35b3461037d57610b6936611e5e565b905f52603060205260405f20905f5260205260405f208054610b106001830154926002810154906004600382015491015491604051958695869192608093969594919660a084019784526020840152604083015260608201520152565b3461037d57602036600319011261037d576004356001600160a01b0381169081900361037d575f52600f602052602060405f2054604051908152f35b3461037d575f36600319011261037d576020603954604051908152f35b3461037d575f36600319011261037d576020604054604051908152f35b3461037d575f36600319011261037d57602060405169021e19e0c9bab24000008152f35b3461037d57610c6e36611e5e565b905f52603760205260405f20805482101561037d576020916103b091611efe565b3461037d57602036600319011261037d576004355f52603c60205260405f208054610b106001830154926002810154906003810154600482015460058301549060068401549260ff600860078701549601541695604051998a998a611e74565b3461037d57602036600319011261037d57600435600d5481101561037d576103b0602091611eb4565b3461037d575f36600319011261037d576020600654604051908152f35b3461037d57610d4336611e5e565b905f52602f60205260405f20905f526020526040805f206001815491015482519182526020820152f35b3461037d57610d7b36611e5e565b905f52603460205260405f20905f52602052602060ff60405f2054166040519015158152f35b3461037d57602036600319011261037d5760043560165481101561037d576016548110156104415760165f527fd833147d7dc355ba459fc788f669e58cfaf9dc25ddcd0702e87d69c7b51242890154604051908152602090f35b3461037d575f36600319011261037d5760206040516283d6008152f35b3461037d575f36600319011261037d576020604254604051908152f35b3461037d57610e4336611e5e565b905f52603860205260405f20905f52602052602060ff60405f2054166040519015158152f35b3461037d575f36600319011261037d576020604854604051908152f35b3461037d57602036600319011261037d57600435600881101561037d5760209060270154604051908152f35b3461037d57610ec036611e5e565b905f52603560205260405f20905f5260205260405f208054610b106001830154926002810154906004600382015491015491604051958695869192608093969594919660a084019784526020840152604083015260608201520152565b3461037d57610f2b36611f13565b915f52603160205260405f20905f5260205260405f20805482101561037d576020916103b091611efe565b3461037d57610f6436611f13565b915f52603260205260405f20905f5260205260405f20805482101561037d576020916103b091611efe565b3461037d57610f9d36611e5e565b905f52600b60205260405f20905f52602052602060405f2054604051908152f35b3461037d57602036600319011261037d576004355f526014602052602060405f2054604051908152f35b3461037d575f36600319011261037d576002546040516001600160a01b039091168152602090f35b3461037d575f36600319011261037d576020600954604051908152f35b3461037d575f36600319011261037d57602060405162093a808152f35b3461037d5761105836611e5e565b905f52601260205260405f20805482101561037d575f52600560205f209102018054610b106001830154926002810154906004600382015491015491604051958695869192608093969594919660a084019784526020840152604083015260608201520152565b3461037d575f36600319011261037d57602060405163025143008152f35b3461037d57602036600319011261037d576004355f52604360205260405f208054610b106001830154926002810154906003810154600482015460058301549060068401549260ff600860078701549601541695604051998a998a611e74565b3461037d5761114b36611e5e565b905f52601560205260405f20805482101561037d576020916103b091611efe565b3461037d575f36600319011261037d576020604954604051908152f35b3461037d5761119736611e5e565b5f918252600e60209081526040808420928452918152918190208054600182015460028301546003909301548451928352948201529182015260ff8083161515606083015260089290921c9091161515608082015260a090f35b3461037d576111ff36611f13565b915f52601360205260405f20905f5260205260405f20805482101561037d576020916103b091611efe565b611f2d565b3461037d57604061124861124236611e5e565b90612460565b82519182526020820152f35b3461037d5761126236611f13565b915f52603f60205260405f20905f5260205260405f20805482101561037d576020916103b091611efe565b3461037d5761129b36611e5e565b905f52604d60205260405f20805482101561037d576020916103b091611efe565b3461037d575f36600319011261037d576020604754604051908152f35b3461037d57602036600319011261037d576004355f52601160205261018060405f208054906001810154906002810154600382015460048301546005840154600685015490600786015492600887015494600988015496600b600a8a0154990154996040519b8c5260208c015260408b015260608a0152608089015260a088015260c087015260e0860152610100850152610120840152610140830152610160820152f35b3461037d57602036600319011261037d576004355f52600a602052602060405f2054604051908152f35b3461037d57602036600319011261037d57600435805f52601060205260405f206113dc60018060a01b038254163314611f63565b60068101805491600f831015611833576113f583611eb4565b90546001546040516323b872dd60e01b815233600482015230602482015260039390931b9190911c60448301819052939190602090829060649082905f906001600160a01b03165af180156109b057611816575b50805490600182018092116107e05755600a8101611468838254612440565b9055835f52600e60205260405f20825f52602052600360405f2001600160ff1982541617905560058202908215918381046005148317156107e0576064900491601984028481046019148217156107e0578460646114c692046127fe565b835f52600a60205260405f2054845f52600b60205260405f20875f5260205260405f20556114f383612742565b835f52600c60205260405f20805490600182018092116107e05755601484028481046014148217156107e05760649004600483019384549160018801978881116107e057888261154b82611563958e61156b9961289f565b8b6005890161155d84848484546128de565b54612b90565b603b54612440565b603b55602384028481046023148217156107e0576103e861158f9104604254612440565b604255600f840290848204600f1417156107e0576103e86115b39104604954612440565b604955600a8414611730575b600f841461163c575b50506040519182526020820152608060408201527f26adb22cec823ef144935e9fbef1b6b4a3a29dacbe5444d59292fa2620f3d37761162d60808301604090601581527453706f6e736f72736869702053747275637475726560581b60208201520190565b914260608201528033930390a3005b601342910155835f52601060205260405f2090545f52601060205260405f20601581018054600181018091116107e057806002925510159081611712575b81611702575b506116ec575b60026015820154101590816116c9575b816116ba575b506116a9575b83806115c8565b6116b5604754846130bb565b6116a2565b600f915060060154148461169c565b90506013810154601182015490630251430082018092116107e057111590611696565b6116fd6004820154604754906130bb565b611686565b600f915060060154101585611680565b90506011810154630251430081018091116107e0574211159061167a565b4260128201555f85815260106020526040808220845483529120601481018054600181019081106107e0578060059255101590816117f9575b816117e9575b506117d3575b60056014820154101590816117b1575b816117a2575b50156115bf5761179d60405486612f25565b6115bf565b600a915060060154148661178b565b905060128101546011820154906283d60082018092116107e057111590611785565b6117e4600482015460405490612f25565b611775565b600a91506006015410158761176f565b905060118101546283d60081018091116107e05742111590611769565b61182e9060203d6020116109a95761099c81836123f2565b611449565b60405162461bcd60e51b8152602060048201526014602482015273105b1c9958591e48185d081b585e081b195d995b60621b6044820152606490fd5b3461037d57602036600319011261037d576004355f52604560205260405f208054610b1060018301549260ff60046002830154920154169060405194859485926060929594919560808501968552602085015260408401521515910152565b3461037d575f36600319011261037d5760206040516202a3008152f35b3461037d57602036600319011261037d5760043560075481101561037d576007548110156104415760075f527fa66cc928b5edb82af9bd49922954155ab7b0942694bea4ce44661d9a8736c6880154604051908152602090f35b611f48565b3461037d57602036600319011261037d576004355f52601060205260405f206101805260018060a01b03610180515416600261018051015461010052600361018051015461014052600461018051015460056101805101546006610180510154600761018051015460086101805101546009610180510154600a61018051015490600b61018051015492600c61018051015494600d61018051015496600e61018051015498600f6101805101549a60106101805101549c6011610180510154608052601261018051015460c052601361018051015461016052601461018051015461012052601561018051015460e05260405160a05260a0515261010051602060a051015261014051604060a0510152606060a0510152608060a051015260a08051015260c060a051015260e060a051015261010060a051015261012060a051015261014060a051015261016060a051015261018060a05101526101a060a05101526101c060a05101526101e060a051015260805161020060a051015260c05161022060a05101526101605161024060a05101526101205161026060a051015260e05161028060a05101526102a060a051f35b3461037d575f36600319011261037d576020604051670de0b6b3a76400008152f35b3461037d575f36600319011261037d576020604051620151808152f35b3461037d575f36600319011261037d57602060405160028152f35b3461037d575f36600319011261037d576020603b54604051908152f35b3461037d575f36600319011261037d576001546040516001600160a01b039091168152602090f35b3461037d57602036600319011261037d5760043560445481101561037d576044548110156104415760445f527f9b22d3d61959b4d3528b1d8ba932c96fbe302b36a1aad1d95cab54f9e0a135ea0154604051908152602090f35b3461037d575f36600319011261037d57602060405162278d008152f35b3461037d57602036600319011261037d5760043560175481101561037d576017548110156104415760175f527fc624b66cc0138b8fabc209247f72d758e1cf3343756d543badbf24212bed8c150154604051908152602090f35b3461037d57602036600319011261037d57600435600781101561037d5760209060180154604051908152f35b3461037d57611cb0611caa36611e5e565b90611fcd565b005b3461037d57611cc036611e5e565b905f52603360205260405f20805482101561037d576020916103b091611efe565b3461037d57611cef36611f13565b915f52603660205260405f20905f5260205260405f20805482101561037d576020916103b091611efe565b3461037d57611d2836611e5e565b905f52603d60205260405f20805482101561037d576020916103b091611efe565b3461037d57602036600319011261037d576004355f52600c602052602060405f2054604051908152f35b3461037d57602036600319011261037d576004355f52604a60205260405f208054610b106001830154926002810154906003810154600482015460058301549060068401549260ff600860078701549601541695604051998a998a611e74565b3461037d575f36600319011261037d5760206040516127108152f35b3461037d57611dfd36611e5e565b905f52603e60205260405f20905f5260205280610b1060405f208054600182015491600360028201549101549260ff808560081c169416928693909594919260809360a0860197865260208601526040850152151560608401521515910152565b604090600319011261037d576004359060243590565b979491926101009794919a9996936101208a019b8a5260208a015260408901526060880152608087015260a086015260c085015260e08401521515910152565b600d5481101561044157600d5f5260205f2001905f90565b600d541561044157600d5f9081527fd7b6990105719101dabeb77144f2a3385c8033acd3af97e9423a695e81ad1eb591565b8054821015610441575f5260205f2001905f90565b606090600319011261037d57600435906024359060443590565b3461037d575f36600319011261037d576020604051600a8152f35b3461037d575f36600319011261037d576020604051600f8152f35b15611f6a57565b60405162461bcd60e51b815260206004820152601060248201526f139bdd081e5bdd5c881858d8dbdd5b9d60821b6044820152606490fd5b919082039182116107e057565b8115611fb9570490565b634e487b7160e01b5f52601260045260245ffd5b90815f52601060205260405f206003810154156123bc5754611ff9906001600160a01b03163314611f63565b815f52600e60205260405f20815f5260205260ff600360405f200154161561238557815f52600e60205260405f20815f5260205260ff600360405f20015460081c1661234f57805f52600a60205260405f205491815f52600b60205260405f20815f5260205260405f20548084146123495761207e670de0b6b3a76400009185611fa2565b0491821561232e57612090838361250b565b93815f52600b60205260405f20835f5260205260405f205583159182156120cf575b5050508181116120c0575050565b6120cd9161071a91611fa2565b565b5f81815260106020526040902080546001600160a01b0316969095919390929087156122fa576122c757835f52601160205260405f20612110838254612440565b815560068101612121848254612440565b90555492600b8701549260065f9801975b88548110156122ba5761214481611eb4565b90549060031b1c95875f52600e60205260405f20875f5260205260405f20906003820160ff815460081c168015908180926122a4575b156121d3575050805461ff0019166101001790556121ae919087600a6121a0828c61244d565b049283600282015555611fa2565b955f52600c60205260405f209081545f1981019081116107e057600192555b01612132565b809193959a92509061228f575b156121fe57505060019160026121f892015490611fa2565b956121cd565b929792879082612277575b505061221857506001906121cd565b9198505060019198935093919301555b60015461224190869083906001600160a01b03166131f5565b60405185815260208101929092525f5160206133765f395f51905f526080836004604087960152426060820152a45f80806120b2565b600a9250906122859161244d565b048710865f612209565b50600a61229c898361244d565b0484116121e0565b50600a6122b18b8d61244d565b0484101561217a565b5096509691509150612228565b60405162461bcd60e51b815260206004820152600b60248201526a16995c9bc8185b5bdd5b9d60aa1b6044820152606490fd5b60405162461bcd60e51b815260206004820152600c60248201526b24b73b30b634b2103ab9b2b960a11b6044820152606490fd5b9091505f52600b60205260405f20905f5260205260405f2055565b50505050565b60405162461bcd60e51b815260206004820152600e60248201526d141858dad859d94810db1bdcd95960921b6044820152606490fd5b60405162461bcd60e51b815260206004820152600f60248201526e496e76616c6964207061636b61676560881b6044820152606490fd5b60405162461bcd60e51b815260206004820152600e60248201526d155cd95c881b9bdd08199bdd5b9960921b6044820152606490fd5b90601f8019910116810190811067ffffffffffffffff82111761241457604052565b634e487b7160e01b5f52604160045260245ffd5b9081602091031261037d5751801515810361037d5790565b919082018092116107e057565b818102929181159184041417156107e057565b9190825f526010602052600360405f200154156124cf57805f52600a60205260405f2054905f52600b60205260405f20835f5260205260405f205490818111156124c5576124ba6124c292670de0b6b3a764000092611fa2565b04809361250b565b90565b505090505f905f90565b505f91508190565b8054600160401b811015612414576124f491600182018155611efe565b819291549060031b91821b915f19901b1916179055565b805f52601060205260405f20905f526011602052600a61253760405f209282600b82015491015461244d565b0490548181101561255d5761254b91611fa2565b9081811115612558575090565b905090565b5050505f90565b91909293825f52601060205260405f209360018060a01b038554169283156122fa5780156122c757845f52601160205260405f206125a3828254612440565b8155600181016125b4838254612440565b90555492600b8701549260065f9801975b8854811015612735576125d781611eb4565b90549060031b1c95885f52600e60205260405f20875f5260205260405f20906003820160ff815460081c1680159081809261271f575b15612658575050805461ff001916610100179055612633919087600a6121a0828c61244d565b955f52600c60205260405f209081545f1981019081116107e057600192555b016125c5565b809193959a92509061270a575b15612683575050600191600261267d92015490611fa2565b95612652565b9297928790826126f2575b505061269d5750600190612652565b9198505060019198935093919301555b6001546126c690839085906001600160a01b03166131f5565b6040519182526020820152608081600160405f5160206133765f395f51905f52940152426060820152a4565b600a9250906127009161244d565b048710865f61268e565b50600a612717898361244d565b048411612665565b50600a61272c8b8d61244d565b0484101561260d565b50965096915091506126ad565b6002546001600160a01b03169081156127c557600154608092612770918391906001600160a01b03166131f5565b6005545f52601160205260405f20612789828254612440565b905560018060a01b03600254165f5160206133765f395f51905f526005549384936040519081525f60208201525f6040820152426060820152a4565b60405162461bcd60e51b8152602060048201526011602482015270199959481859191c9cc81b9bdd081cd95d607a1b6044820152606490fd5b905f52600c60205260405f20549081158015612867575b61285457670de0b6b3a7640000810290808204670de0b6b3a764000014901517156107e05761284f9161284791611faf565b600954612440565b600955565b80915061285e5750565b6120cd90612742565b508015612815565b80158015612894575b61288957916001916120cd93612564565b50506120cd90612742565b506005548114612878565b929190831580156128c5575b6128b8576120cd93612564565b5090506120cd9150612742565b5060055484146128ab565b5f1981146107e05760010190565b92919260055481148015612b88575b612b7c5760015b838110612b4b57505f905b80151580612b3f575b80612b35575b15612b2857805f52601060205260405f209084600683015410156129415750600561293b910154916128d0565b906128ff565b5f81815260106020526040902080549597909691956001600160a01b031694909350915083156122fa5780156122c757845f52601160205260405f20612988828254612440565b815560028101612999838254612440565b90555492600b8701549260065f9801975b8854811015612b1b576129bc81611eb4565b90549060031b1c95885f52600e60205260405f20875f5260205260405f20906003820160ff815460081c16801590818092612b05575b15612a3d575050805461ff001916610100179055612a18919087600a6121a0828c61244d565b955f52600c60205260405f209081545f1981019081116107e057600192555b016129aa565b809193959a925090612af0575b15612a685750506001916002612a6292015490611fa2565b95612a37565b929792879082612ad8575b5050612a825750600190612a37565b9198505060019198935093919301555b600154612aab90839085906001600160a01b03166131f5565b604051918252602082015260028160809160405f5160206133765f395f51905f52940152426060820152a4565b600a925090612ae69161244d565b048710865f612a73565b50600a612afd898361244d565b048411612a4a565b50600a612b128b8d61244d565b048410156129f2565b5096509691509150612a92565b505050506120cd90612742565b50600f821061290e565b50600554811415612908565b905f526010602052600560405f2001549081158015612b71575b612b28576001016128f4565b506005548214612b65565b5050506120cd90612742565b5080156128ed565b93906101e05283158015612f1a575b8015612f12575b6128b857612bb48183611faf565b61022052612bce612bc8826102205161244d565b83611fa2565b936101c0525f925f6101a0526001915f5b601e8110612c14575b5050505090612bf691611fa2565b80612c05575b508061285e5750565b612c0e90612742565b5f612bfc565b91956101c0979195939751158015612f04575b612eec576101c0515f52601060205260405f20978760068a015410155f14612ecc57612c56816102205161244d565b956101c0515f52601060205260405f206102605260018060a01b036102605154169788156122fa5787156122c7576101c0515f52601160205260405f20612c9e898254612440565b815560038101612caf8a8254612440565b90555461024052600b610260510154610200525f5b6006610260510154811015612ebb57612cdc81611eb4565b90549060031b1c6101c0515f52600e60205260405f20815f5260205260405f206003810160ff815460081c16801590818092612e9f575b15612d7a57505090612d529161010061ff0019825416179055600a612d3b610200518561244d565b049081600282015561020051905561024051611fa2565b610240525f52600c60205260405f209081545f1981019081116107e057600192555b01612cc4565b80919394925090612e84575b15612daa57505090612da16002600193015461024051611fa2565b61024052612d74565b81612e67575b50612dbe5750600190612d74565b905060016102409c98949a939992969c9b97959b519101555b600154612df090829084906001600160a01b03166131f5565b604051818152602081018790529260039284612e34946040612e3e9701524260608201526101e051915f5160206133765f395f51905f5260806101c05193a4612440565b966101a051612440565b6101a0526001935b826101a0511015612e6157600501546101c052600101612bdf565b50612be8565b61020051600a9250612e789161244d565b0461024051105f612db0565b50600a612e94610200518361244d565b046102405111612d86565b50600a612eaf610200518761244d565b04610240511015612d13565b509399959197909698949298612dd7565b939591978285989492981015612e465793612ee6906128d0565b93612e46565b509550509150612efc9250611fa2565b8061285e5750565b506005546101c05114612c27565b508015612ba6565b506005548414612b9f565b90815f52604560205260ff600460405f2001541615612f42575050565b612f4f6040548214613283565b805f526043602052612f6b60ff600860405f20015416156132bf565b815f52601060205260405f2060128101549081156130825760118101546283d60081018091116107e057612fc29211159060056014600a600684015410159201541015908261307a575b5081613072575b506132fa565b815f52604560205260405f209160048301612fe160ff82541615613335565b60445493600160401b851015612414576001849161302787837f42ee5ef523a95c6fb3ffdd2e9b34955b83ea8c2b11ff268c87ae6ea25556eaac99016044556044611efe565b81549060031b9087821b915f19901b19161790554281550155600160ff1982541617905561306d6040519283924291846040919493926060820195825260208201520152565b0390a1565b90505f612fbc565b91505f612fb5565b60405162461bcd60e51b8152602060048201526011602482015270055736572206e6f74206c6576656c20313607c1b6044820152606490fd5b90815f52604c60205260ff600460405f20015416156130d8575050565b6130e56047548214613283565b805f52604a60205261310160ff600860405f20015416156132bf565b815f52601060205260405f2060138101549081156131bc576011810154630251430081018091116107e0576131579211159060026015600f600684015410159201541015908261307a57508161307257506132fa565b815f52604c60205260405f20916004830161317660ff82541615613335565b604b5493600160401b851015612414576001849161302787837f42ee5ef523a95c6fb3ffdd2e9b34955b83ea8c2b11ff268c87ae6ea25556eaac9901604b55604b611efe565b60405162461bcd60e51b815260206004820152601160248201527055736572206e6f74206c6576656c20313560781b6044820152606490fd5b60405163a9059cbb60e01b60208281019182526001600160a01b03909416602483015260448083019590955293815290925f916132336064826123f2565b519082855af1156109b0575f513d61327a57506001600160a01b0381163b155b61325a5750565b635274afe760e01b5f9081526001600160a01b0391909116600452602490fd5b60011415613253565b1561328a57565b60405162461bcd60e51b815260206004820152600d60248201526c125b9d985b1a59081c9bdd5b99609a1b6044820152606490fd5b156132c657565b60405162461bcd60e51b815260206004820152600c60248201526b149bdd5b990818db1bdcd95960a21b6044820152606490fd5b1561330157565b60405162461bcd60e51b815260206004820152600c60248201526b4e6f7420656c696769626c6560a01b6044820152606490fd5b1561333c57565b60405162461bcd60e51b8152602060048201526011602482015270185b1c9958591e48145d585b1a599a5959607a1b6044820152606490fdfe4d634c31300b97dad99b3af799178230163d88ad306370d063be9cd992d0be7fa264697066735822122072e0f5b2e264367b66853011d83a1ddf1c81a4fa99736ab4bc5860778ee1571264736f6c634300081e0033",
			"opcodes": "PUSH1 0x80 PUSH1 0x40 MSTORE CALLVALUE PUSH2 0x52B JUMPI PUSH1 0x1 PUSH0 SSTORE PUSH1 0x40 MLOAD PUSH2 0x1E0 DUP2 ADD PUSH1 0x1 PUSH1 0x1 PUSH1 0x40 SHL SUB DUP2 GT DUP3 DUP3 LT OR PUSH2 0x517 JUMPI PUSH1 0x40 MSTORE PUSH8 0xD02AB486CEDC0000 DUP2 MSTORE PUSH9 0x15AF1D78B58C40000 PUSH1 0x20 DUP3 ADD MSTORE PUSH9 0x2B5E3AF16B1880000 PUSH1 0x40 DUP3 ADD MSTORE PUSH9 0x56BC75E2D63100000 PUSH1 0x60 DUP3 ADD MSTORE PUSH9 0xAD78EBC5AC6200000 PUSH1 0x80 DUP3 ADD MSTORE PUSH9 0x15AF1D78B58C400000 PUSH1 0xA0 DUP3 ADD MSTORE PUSH9 0x2B5E3AF16B18800000 PUSH1 0xC0 DUP3 ADD MSTORE PUSH9 0x56BC75E2D631000000 PUSH1 0xE0 DUP3 ADD MSTORE PUSH9 0xAD78EBC5AC62000000 PUSH2 0x100 DUP3 ADD MSTORE PUSH10 0x15AF1D78B58C4000000 PUSH2 0x120 DUP3 ADD MSTORE PUSH10 0x2B5E3AF16B188000000 PUSH2 0x140 DUP3 ADD MSTORE PUSH10 0x56BC75E2D6310000000 PUSH2 0x160 DUP3 ADD MSTORE PUSH10 0xAD78EBC5AC620000000 PUSH2 0x180 DUP3 ADD MSTORE PUSH10 0x15AF1D78B58C40000000 PUSH2 0x1A0 DUP3 ADD MSTORE PUSH10 0x2B5E3AF16B1880000000 PUSH2 0x1C0 DUP3 ADD MSTORE PUSH1 0xD SLOAD PUSH1 0xF PUSH1 0xD SSTORE DUP1 PUSH1 0xF LT PUSH2 0x4C1 JUMPI JUMPDEST POP PUSH1 0xD PUSH0 MSTORE PUSH1 0x20 PUSH0 KECCAK256 SWAP1 PUSH0 JUMPDEST PUSH1 0xF DUP2 LT PUSH2 0x4A4 JUMPI PUSH2 0x141 PUSH2 0x52F JUMP JUMPDEST PUSH9 0x410D586A20A4C0000 DUP2 MSTORE PUSH9 0x1043561A8829300000 PUSH1 0x20 DUP3 ADD MSTORE PUSH9 0x410D586A20A4C00000 PUSH1 0x40 DUP3 ADD MSTORE PUSH10 0x1043561A88293000000 PUSH1 0x60 DUP3 ADD MSTORE PUSH10 0x410D586A20A4C000000 PUSH1 0x80 DUP3 ADD MSTORE PUSH10 0x1043561A882930000000 PUSH1 0xA0 DUP3 ADD MSTORE PUSH10 0x410D586A20A4C0000000 PUSH1 0xC0 DUP3 ADD MSTORE PUSH1 0x16 SLOAD PUSH1 0x7 PUSH1 0x16 SSTORE DUP1 PUSH1 0x7 LT PUSH2 0x44E JUMPI JUMPDEST POP PUSH1 0x16 PUSH0 MSTORE PUSH1 0x20 PUSH0 KECCAK256 SWAP1 PUSH0 JUMPDEST PUSH1 0x7 DUP2 LT PUSH2 0x431 JUMPI PUSH2 0x1D8 PUSH2 0x54E JUMP JUMPDEST PUSH9 0x56BC75E2D63100000 DUP2 MSTORE PUSH9 0xAD78EBC5AC6200000 PUSH1 0x20 DUP3 ADD MSTORE PUSH9 0x15AF1D78B58C400000 PUSH1 0x40 DUP3 ADD MSTORE PUSH9 0x2B5E3AF16B18800000 PUSH1 0x60 DUP3 ADD MSTORE PUSH9 0x56BC75E2D631000000 PUSH1 0x80 DUP3 ADD MSTORE PUSH9 0xAD78EBC5AC62000000 PUSH1 0xA0 DUP3 ADD MSTORE PUSH10 0x15AF1D78B58C4000000 PUSH1 0xC0 DUP3 ADD MSTORE PUSH10 0x2B5E3AF16B188000000 PUSH1 0xE0 DUP3 ADD MSTORE PUSH1 0x17 SLOAD PUSH1 0x8 PUSH1 0x17 SSTORE DUP1 PUSH1 0x8 LT PUSH2 0x3DB JUMPI JUMPDEST POP PUSH1 0x17 PUSH0 MSTORE PUSH1 0x20 PUSH0 KECCAK256 SWAP1 PUSH0 JUMPDEST PUSH1 0x8 DUP2 LT PUSH2 0x3BE JUMPI PUSH2 0x27C PUSH2 0x52F JUMP JUMPDEST PUSH1 0x3 DUP2 MSTORE PUSH1 0x5 PUSH1 0x20 DUP3 ADD MSTORE PUSH1 0x7 PUSH1 0x40 DUP3 ADD MSTORE PUSH1 0x9 PUSH1 0x60 DUP3 ADD MSTORE PUSH1 0xB PUSH1 0x80 DUP3 ADD MSTORE PUSH1 0xD PUSH1 0xA0 DUP3 ADD MSTORE PUSH1 0xF PUSH1 0xC0 DUP3 ADD MSTORE PUSH0 JUMPDEST PUSH1 0x7 DUP2 LT PUSH2 0x3A6 JUMPI PUSH2 0x2BC PUSH2 0x54E JUMP JUMPDEST PUSH1 0x4 DUP2 MSTORE PUSH1 0x5 PUSH1 0x20 DUP3 ADD MSTORE PUSH1 0x6 PUSH1 0x40 DUP3 ADD MSTORE PUSH1 0x7 PUSH1 0x60 DUP3 ADD MSTORE PUSH1 0x8 PUSH1 0x80 DUP3 ADD MSTORE PUSH1 0x9 PUSH1 0xA0 DUP3 ADD MSTORE PUSH1 0xA PUSH1 0xC0 DUP3 ADD MSTORE PUSH1 0xB PUSH1 0xE0 DUP3 ADD MSTORE PUSH0 JUMPDEST PUSH1 0x8 DUP2 LT PUSH2 0x38E JUMPI PUSH2 0x303 PUSH2 0x54E JUMP JUMPDEST PUSH0 DUP2 MSTORE PUSH1 0x1 PUSH1 0x20 DUP3 ADD MSTORE PUSH1 0x1 PUSH1 0x40 DUP3 ADD MSTORE PUSH1 0x1 PUSH1 0x60 DUP3 ADD MSTORE PUSH1 0x1 PUSH1 0x80 DUP3 ADD MSTORE PUSH1 0x1 PUSH1 0xA0 DUP3 ADD MSTORE PUSH1 0x1 PUSH1 0xC0 DUP3 ADD MSTORE PUSH1 0x1 PUSH1 0xE0 DUP3 ADD MSTORE PUSH0 JUMPDEST PUSH1 0x8 DUP2 LT PUSH2 0x376 JUMPI PUSH0 PUSH1 0x39 SSTORE PUSH0 PUSH1 0x3A SSTORE PUSH0 PUSH1 0x3B SSTORE PUSH1 0x1 PUSH1 0x40 SSTORE PUSH0 PUSH1 0x41 SSTORE PUSH0 PUSH1 0x42 SSTORE PUSH1 0x1 PUSH1 0x47 SSTORE PUSH0 PUSH1 0x48 SSTORE PUSH0 PUSH1 0x49 SSTORE PUSH1 0x40 MLOAD PUSH2 0x33CB SWAP1 DUP2 PUSH2 0x585 DUP3 CODECOPY RETURN JUMPDEST PUSH1 0x1 SWAP1 PUSH1 0x20 PUSH1 0xFF DUP5 MLOAD AND SWAP4 ADD SWAP3 DUP2 PUSH1 0x27 ADD SSTORE ADD PUSH2 0x339 JUMP JUMPDEST PUSH1 0x1 SWAP1 PUSH1 0x20 PUSH1 0xFF DUP5 MLOAD AND SWAP4 ADD SWAP3 DUP2 PUSH1 0x1F ADD SSTORE ADD PUSH2 0x2F3 JUMP JUMPDEST PUSH1 0x1 SWAP1 PUSH1 0x20 PUSH1 0xFF DUP5 MLOAD AND SWAP4 ADD SWAP3 DUP2 PUSH1 0x18 ADD SSTORE ADD PUSH2 0x2AC JUMP JUMPDEST DUP2 MLOAD PUSH1 0x1 PUSH1 0x1 PUSH1 0x50 SHL SUB AND DUP2 DUP5 ADD SSTORE PUSH1 0x20 SWAP1 SWAP2 ADD SWAP1 PUSH1 0x1 ADD PUSH2 0x26C JUMP JUMPDEST PUSH1 0x17 PUSH0 MSTORE PUSH2 0x42B SWAP1 PUSH32 0xC624B66CC0138B8FABC209247F72D758E1CF3343756D543BADBF24212BED8C15 ADD PUSH32 0xC624B66CC0138B8FABC209247F72D758E1CF3343756D543BADBF24212BED8C1D PUSH2 0x56E JUMP JUMPDEST DUP2 PUSH2 0x260 JUMP JUMPDEST DUP2 MLOAD PUSH1 0x1 PUSH1 0x1 PUSH1 0x50 SHL SUB AND DUP2 DUP5 ADD SSTORE PUSH1 0x20 SWAP1 SWAP2 ADD SWAP1 PUSH1 0x1 ADD PUSH2 0x1C8 JUMP JUMPDEST PUSH1 0x16 PUSH0 MSTORE PUSH2 0x49E SWAP1 PUSH32 0xD833147D7DC355BA459FC788F669E58CFAF9DC25DDCD0702E87D69C7B5124289 ADD PUSH32 0xD833147D7DC355BA459FC788F669E58CFAF9DC25DDCD0702E87D69C7B5124290 PUSH2 0x56E JUMP JUMPDEST DUP2 PUSH2 0x1BC JUMP JUMPDEST DUP2 MLOAD PUSH1 0x1 PUSH1 0x1 PUSH1 0x50 SHL SUB AND DUP2 DUP5 ADD SSTORE PUSH1 0x20 SWAP1 SWAP2 ADD SWAP1 PUSH1 0x1 ADD PUSH2 0x131 JUMP JUMPDEST PUSH1 0xD PUSH0 MSTORE PUSH2 0x511 SWAP1 PUSH32 0xD7B6990105719101DABEB77144F2A3385C8033ACD3AF97E9423A695E81AD1EB5 ADD PUSH32 0xD7B6990105719101DABEB77144F2A3385C8033ACD3AF97E9423A695E81AD1EC4 PUSH2 0x56E JUMP JUMPDEST PUSH0 PUSH2 0x125 JUMP JUMPDEST PUSH4 0x4E487B71 PUSH1 0xE0 SHL PUSH0 MSTORE PUSH1 0x41 PUSH1 0x4 MSTORE PUSH1 0x24 PUSH0 REVERT JUMPDEST PUSH0 DUP1 REVERT JUMPDEST PUSH1 0x40 MLOAD SWAP1 PUSH1 0xE0 DUP3 ADD PUSH1 0x1 PUSH1 0x1 PUSH1 0x40 SHL SUB DUP2 GT DUP4 DUP3 LT OR PUSH2 0x517 JUMPI PUSH1 0x40 MSTORE JUMP JUMPDEST PUSH1 0x40 MLOAD SWAP1 PUSH2 0x100 DUP3 ADD PUSH1 0x1 PUSH1 0x1 PUSH1 0x40 SHL SUB DUP2 GT DUP4 DUP3 LT OR PUSH2 0x517 JUMPI PUSH1 0x40 MSTORE JUMP JUMPDEST DUP2 DUP2 LT PUSH2 0x579 JUMPI POP POP JUMP JUMPDEST PUSH0 DUP2 SSTORE PUSH1 0x1 ADD PUSH2 0x56E JUMP INVALID PUSH2 0x280 DUP1 PUSH1 0x40 MSTORE PUSH1 0x4 CALLDATASIZE LT ISZERO PUSH2 0x13 JUMPI PUSH0 DUP1 REVERT JUMPDEST PUSH0 CALLDATALOAD PUSH1 0xE0 SHR SWAP1 DUP2 PUSH3 0x54815D EQ PUSH2 0x1DEF JUMPI POP DUP1 PUSH4 0x1C234A8 EQ PUSH2 0x1DD3 JUMPI DUP1 PUSH4 0x56B4D1F EQ PUSH2 0x1D73 JUMPI DUP1 PUSH4 0x676D0D6 EQ PUSH2 0x1D49 JUMPI DUP1 PUSH4 0xA5C5D69 EQ PUSH2 0x1D1A JUMPI DUP1 PUSH4 0xEF81B74 EQ PUSH2 0x1CE1 JUMPI DUP1 PUSH4 0xF2B7CC9 EQ PUSH2 0x1CB2 JUMPI DUP1 PUSH4 0x1C4ECF68 EQ PUSH2 0x1C99 JUMPI DUP1 PUSH4 0x2132D204 EQ PUSH2 0x1C6D JUMPI DUP1 PUSH4 0x2350268F EQ PUSH2 0x1C13 JUMPI DUP1 PUSH4 0x23FD338E EQ PUSH2 0x122A JUMPI DUP1 PUSH4 0x2A891534 EQ PUSH2 0x1BF6 JUMPI DUP1 PUSH4 0x2AE0EE0D EQ PUSH2 0x1945 JUMPI DUP1 PUSH4 0x2D66014F EQ PUSH2 0x1B9C JUMPI DUP1 PUSH4 0x2F48AB7D EQ PUSH2 0x1B74 JUMPI DUP1 PUSH4 0x3080B5BC EQ PUSH2 0x1B57 JUMPI DUP1 PUSH4 0x31BB6A30 EQ PUSH2 0x1B3C JUMPI DUP1 PUSH4 0x32BC298C EQ PUSH2 0x1B1F JUMPI DUP1 PUSH4 0x32FCD966 EQ PUSH2 0x1AFD JUMPI DUP1 PUSH4 0x365B98B2 EQ PUSH2 0x194A JUMPI DUP1 PUSH4 0x375B43B4 EQ PUSH2 0x1945 JUMPI DUP1 PUSH4 0x39AB3603 EQ PUSH2 0x18EB JUMPI DUP1 PUSH4 0x3A5084B3 EQ PUSH2 0x18CE JUMPI DUP1 PUSH4 0x4036436C EQ PUSH2 0x186F JUMPI DUP1 PUSH4 0x45977D03 EQ PUSH2 0x13A8 JUMPI DUP1 PUSH4 0x45CB537C EQ PUSH2 0x137E JUMPI DUP1 PUSH4 0x46B9DECE EQ PUSH2 0x12D9 JUMPI DUP1 PUSH4 0x4B8CBF9B EQ PUSH2 0x12BC JUMPI DUP1 PUSH4 0x4D12AE0F EQ PUSH2 0x128D JUMPI DUP1 PUSH4 0x4D4CC5CA EQ PUSH2 0x1254 JUMPI DUP1 PUSH4 0x54C5BD90 EQ PUSH2 0x122F JUMPI DUP1 PUSH4 0x58C7D352 EQ PUSH2 0x122A JUMPI DUP1 PUSH4 0x5AABF7F1 EQ PUSH2 0x11F1 JUMPI DUP1 PUSH4 0x5B58CE6C EQ PUSH2 0x1189 JUMPI DUP1 PUSH4 0x5B62D1D5 EQ PUSH2 0x116C JUMPI DUP1 PUSH4 0x5EC64A44 EQ PUSH2 0x113D JUMPI DUP1 PUSH4 0x6A424782 EQ PUSH2 0x10DD JUMPI DUP1 PUSH4 0x705FEE2D EQ PUSH2 0x10BF JUMPI DUP1 PUSH4 0x70C8D770 EQ PUSH2 0x104A JUMPI DUP1 PUSH4 0x76F5F700 EQ PUSH2 0x102D JUMPI DUP1 PUSH4 0x78F6AD6D EQ PUSH2 0x1010 JUMPI DUP1 PUSH4 0x7CDC65F2 EQ PUSH2 0xFE8 JUMPI DUP1 PUSH4 0x88AFBE3E EQ PUSH2 0xFBE JUMPI DUP1 PUSH4 0x89043ECE EQ PUSH2 0xF8F JUMPI DUP1 PUSH4 0x8D58644C EQ PUSH2 0xF56 JUMPI DUP1 PUSH4 0x8F030ECE EQ PUSH2 0xF1D JUMPI DUP1 PUSH4 0x907C84A7 EQ PUSH2 0xEB2 JUMPI DUP1 PUSH4 0x956A3228 EQ PUSH2 0xE86 JUMPI DUP1 PUSH4 0x9B40AB97 EQ PUSH2 0xE69 JUMPI DUP1 PUSH4 0x9C383486 EQ PUSH2 0xE35 JUMPI DUP1 PUSH4 0xA59D17D1 EQ PUSH2 0xE18 JUMPI DUP1 PUSH4 0xA5E52B99 EQ PUSH2 0xDFB JUMPI DUP1 PUSH4 0xAE4708DC EQ PUSH2 0xDA1 JUMPI DUP1 PUSH4 0xBD1AAE40 EQ PUSH2 0xD6D JUMPI DUP1 PUSH4 0xBF724672 EQ PUSH2 0xD35 JUMPI DUP1 PUSH4 0xBFF1F9E1 EQ PUSH2 0xD18 JUMPI DUP1 PUSH4 0xC216212A EQ PUSH2 0xCEF JUMPI DUP1 PUSH4 0xC4EB42A5 EQ PUSH2 0xC8F JUMPI DUP1 PUSH4 0xC7BB62E8 EQ PUSH2 0xC60 JUMPI DUP1 PUSH4 0xC8DF2908 EQ PUSH2 0xC3C JUMPI DUP1 PUSH4 0xC9ED0708 EQ PUSH2 0xC1F JUMPI DUP1 PUSH4 0xCA8E9121 EQ PUSH2 0xC02 JUMPI DUP1 PUSH4 0xCB0E0D7D EQ PUSH2 0xBC6 JUMPI DUP1 PUSH4 0xCE79C2C3 EQ PUSH2 0xB5B JUMPI DUP1 PUSH4 0xD0A2FD79 EQ PUSH2 0xB2F JUMPI DUP1 PUSH4 0xD2F0490D EQ PUSH2 0xB14 JUMPI DUP1 PUSH4 0xDB27CC71 EQ PUSH2 0xAB1 JUMPI DUP1 PUSH4 0xE898FC38 EQ PUSH2 0xA94 JUMPI DUP1 PUSH4 0xE9E34A16 EQ PUSH2 0xA6C JUMPI DUP1 PUSH4 0xEBE0FF15 EQ PUSH2 0xA49 JUMPI DUP1 PUSH4 0xEC597E6F EQ PUSH2 0xA2C JUMPI DUP1 PUSH4 0xF207564E EQ PUSH2 0x455 JUMPI DUP1 PUSH4 0xF5748C4F EQ PUSH2 0x3E7 JUMPI DUP1 PUSH4 0xF5D74D93 EQ PUSH2 0x3BF JUMPI DUP1 PUSH4 0xF7A24806 EQ PUSH2 0x381 JUMPI PUSH4 0xFDDC806F EQ PUSH2 0x360 JUMPI PUSH0 DUP1 REVERT JUMPDEST CALLVALUE PUSH2 0x37D JUMPI PUSH0 CALLDATASIZE PUSH1 0x3 NOT ADD SLT PUSH2 0x37D JUMPI PUSH1 0x20 PUSH1 0x3A SLOAD PUSH1 0x40 MLOAD SWAP1 DUP2 MSTORE RETURN JUMPDEST PUSH0 DUP1 REVERT JUMPDEST CALLVALUE PUSH2 0x37D JUMPI PUSH2 0x38F CALLDATASIZE PUSH2 0x1E5E JUMP JUMPDEST SWAP1 PUSH0 MSTORE PUSH1 0x46 PUSH1 0x20 MSTORE PUSH1 0x40 PUSH0 KECCAK256 DUP1 SLOAD DUP3 LT ISZERO PUSH2 0x37D JUMPI PUSH1 0x20 SWAP2 PUSH2 0x3B0 SWAP2 PUSH2 0x1EFE JUMP JUMPDEST SWAP1 SLOAD SWAP1 PUSH1 0x3 SHL SHR PUSH1 0x40 MLOAD SWAP1 DUP2 MSTORE RETURN JUMPDEST CALLVALUE PUSH2 0x37D JUMPI PUSH0 CALLDATASIZE PUSH1 0x3 NOT ADD SLT PUSH2 0x37D JUMPI PUSH1 0x4 SLOAD PUSH1 0x40 MLOAD PUSH1 0x1 PUSH1 0x1 PUSH1 0xA0 SHL SUB SWAP1 SWAP2 AND DUP2 MSTORE PUSH1 0x20 SWAP1 RETURN JUMPDEST CALLVALUE PUSH2 0x37D JUMPI PUSH1 0x20 CALLDATASIZE PUSH1 0x3 NOT ADD SLT PUSH2 0x37D JUMPI PUSH1 0x4 CALLDATALOAD PUSH1 0x4B SLOAD DUP2 LT ISZERO PUSH2 0x37D JUMPI PUSH1 0x4B SLOAD DUP2 LT ISZERO PUSH2 0x441 JUMPI PUSH1 0x4B PUSH0 MSTORE PUSH32 0x17B0AF156A929EDF60C351F3DF2D53ED643FDD750AEF9EDA90DC7C8759A104A8 ADD SLOAD PUSH1 0x40 MLOAD SWAP1 DUP2 MSTORE PUSH1 0x20 SWAP1 RETURN JUMPDEST PUSH4 0x4E487B71 PUSH1 0xE0 SHL PUSH0 MSTORE PUSH1 0x32 PUSH1 0x4 MSTORE PUSH1 0x24 PUSH0 REVERT JUMPDEST CALLVALUE PUSH2 0x37D JUMPI PUSH1 0x20 CALLDATASIZE PUSH1 0x3 NOT ADD SLT PUSH2 0x37D JUMPI PUSH1 0x4 CALLDATALOAD CALLER PUSH0 MSTORE PUSH1 0xF PUSH1 0x20 MSTORE PUSH1 0x40 PUSH0 KECCAK256 SLOAD PUSH2 0x9F2 JUMPI DUP1 PUSH0 MSTORE PUSH1 0x10 PUSH1 0x20 MSTORE PUSH1 0x3 PUSH1 0x40 PUSH0 KECCAK256 ADD SLOAD ISZERO PUSH2 0x9BB JUMPI PUSH1 0x1 SLOAD PUSH0 SWAP1 PUSH1 0x20 SWAP1 PUSH2 0x4E2 SWAP1 PUSH1 0x1 PUSH1 0x1 PUSH1 0xA0 SHL SUB AND PUSH2 0x4AC PUSH2 0x1ECC JUMP JUMPDEST SWAP1 SLOAD PUSH1 0x40 MLOAD PUSH4 0x23B872DD PUSH1 0xE0 SHL DUP2 MSTORE CALLER PUSH1 0x4 DUP3 ADD MSTORE ADDRESS PUSH1 0x24 DUP3 ADD MSTORE PUSH1 0x3 SWAP3 SWAP1 SWAP3 SHL SHR PUSH1 0x44 DUP3 ADD MSTORE SWAP4 DUP5 SWAP3 DUP4 SWAP2 SWAP1 DUP3 SWAP1 PUSH1 0x64 DUP3 ADD SWAP1 JUMP JUMPDEST SUB SWAP3 GAS CALL DUP1 ISZERO PUSH2 0x9B0 JUMPI PUSH2 0x983 JUMPI JUMPDEST POP PUSH1 0x5 SLOAD SWAP1 PUSH2 0x503 PUSH1 0x6 SLOAD DUP1 SWAP4 PUSH2 0x2440 JUMP JUMPDEST SWAP2 PUSH1 0x1 DUP2 ADD DUP1 SWAP2 GT PUSH2 0x7E0 JUMPI PUSH1 0x6 SSTORE CALLER PUSH0 MSTORE PUSH1 0xF PUSH1 0x20 MSTORE DUP2 PUSH1 0x40 PUSH0 KECCAK256 SSTORE PUSH2 0x528 PUSH2 0x1ECC JUMP JUMPDEST SWAP1 SLOAD SWAP1 PUSH1 0x3 SHL SHR SWAP1 DUP3 PUSH0 MSTORE PUSH1 0x10 PUSH1 0x20 MSTORE PUSH1 0x40 PUSH0 KECCAK256 SWAP2 CALLER PUSH12 0xFFFFFFFFFFFFFFFFFFFFFFFF PUSH1 0xA0 SHL DUP5 SLOAD AND OR DUP4 SSTORE TIMESTAMP PUSH1 0x2 DUP5 ADD SSTORE DUP4 PUSH1 0x3 DUP5 ADD SSTORE PUSH1 0x4 DUP4 ADD SWAP1 DUP3 DUP3 SSTORE PUSH1 0x1 PUSH1 0x6 DUP6 ADD SSTORE DUP1 PUSH1 0xA DUP6 ADD SSTORE TIMESTAMP PUSH1 0x11 DUP6 ADD SSTORE PUSH1 0xF PUSH1 0xB DUP6 ADD SSTORE DUP3 PUSH0 MSTORE PUSH1 0x10 PUSH1 0x20 MSTORE PUSH1 0x7 PUSH1 0x40 PUSH0 KECCAK256 ADD DUP1 SLOAD SWAP1 PUSH1 0x1 DUP3 ADD DUP1 SWAP3 GT PUSH2 0x7E0 JUMPI SSTORE DUP3 PUSH0 MSTORE PUSH1 0x15 PUSH1 0x20 MSTORE PUSH2 0x5B5 DUP6 PUSH1 0x40 PUSH0 KECCAK256 PUSH2 0x24D7 JUMP JUMPDEST DUP5 PUSH0 MSTORE PUSH1 0xE PUSH1 0x20 MSTORE PUSH1 0x40 PUSH0 KECCAK256 DUP2 PUSH0 MSTORE PUSH1 0x20 MSTORE PUSH1 0x3 PUSH1 0x40 PUSH0 KECCAK256 ADD PUSH1 0x1 PUSH1 0xFF NOT DUP3 SLOAD AND OR SWAP1 SSTORE DUP1 PUSH0 MSTORE PUSH1 0xC PUSH1 0x20 MSTORE PUSH1 0x40 PUSH0 KECCAK256 DUP1 SLOAD SWAP1 PUSH1 0x1 DUP3 ADD DUP1 SWAP3 GT PUSH2 0x7E0 JUMPI SSTORE DUP1 PUSH0 MSTORE PUSH1 0xA PUSH1 0x20 MSTORE PUSH1 0x40 PUSH0 KECCAK256 SLOAD DUP2 PUSH0 MSTORE PUSH1 0xB PUSH1 0x20 MSTORE PUSH1 0x40 PUSH0 KECCAK256 DUP7 PUSH0 MSTORE PUSH1 0x20 MSTORE PUSH1 0x40 PUSH0 KECCAK256 SSTORE PUSH0 PUSH0 SWAP1 DUP5 PUSH0 MSTORE PUSH1 0x14 PUSH1 0x20 MSTORE PUSH1 0x2 PUSH1 0x40 PUSH0 KECCAK256 SLOAD LT PUSH0 EQ PUSH2 0x855 JUMPI POP POP DUP5 PUSH0 MSTORE PUSH1 0x10 PUSH1 0x20 MSTORE DUP3 PUSH1 0x5 PUSH1 0x40 PUSH0 KECCAK256 ADD SSTORE DUP3 PUSH0 MSTORE PUSH1 0x14 PUSH1 0x20 MSTORE PUSH1 0x40 PUSH0 KECCAK256 DUP1 SLOAD SWAP1 PUSH1 0x1 DUP3 ADD DUP1 SWAP3 GT PUSH2 0x7E0 JUMPI SSTORE DUP3 JUMPDEST PUSH0 SWAP1 JUMPDEST PUSH1 0xF DUP3 LT PUSH2 0x7F4 JUMPI JUMPDEST POP POP PUSH1 0x5 DUP2 MUL DUP2 ISZERO SWAP1 DUP3 DUP2 DIV PUSH1 0x5 EQ DUP3 OR ISZERO PUSH2 0x7E0 JUMPI PUSH1 0x64 SWAP1 DIV SWAP3 PUSH1 0x3C DUP4 MUL SWAP2 DUP4 DUP4 DIV PUSH1 0x3C EQ DUP2 OR ISZERO PUSH2 0x7E0 JUMPI PUSH2 0x6A6 DUP6 PUSH1 0x3B SLOAD PUSH2 0x2440 JUMP JUMPDEST PUSH1 0x3B SSTORE PUSH1 0x23 DUP5 MUL DUP5 DUP2 DIV PUSH1 0x23 EQ DUP3 OR ISZERO PUSH2 0x7E0 JUMPI PUSH2 0x3E8 PUSH2 0x6CA SWAP2 DIV PUSH1 0x42 SLOAD PUSH2 0x2440 JUMP JUMPDEST PUSH1 0x42 SSTORE PUSH1 0xF DUP5 MUL DUP5 DUP2 DIV PUSH1 0xF EQ DUP3 OR ISZERO PUSH2 0x7E0 JUMPI PUSH2 0x3E8 PUSH2 0x6EE SWAP2 DIV PUSH1 0x49 SLOAD PUSH2 0x2440 JUMP JUMPDEST PUSH1 0x49 SSTORE PUSH1 0x19 DUP5 MUL SWAP1 DUP5 DUP3 DIV PUSH1 0x19 EQ OR ISZERO PUSH2 0x7E0 JUMPI PUSH1 0x64 PUSH2 0x727 SWAP4 PUSH2 0x71F DUP11 SWAP8 PUSH2 0x71A DUP9 DUP6 DUP12 SWAP8 DIV PUSH2 0x27FE JUMP JUMPDEST PUSH2 0x2742 JUMP JUMPDEST DIV SWAP2 SLOAD PUSH2 0x286F JUMP JUMPDEST PUSH1 0x40 MLOAD SWAP1 PUSH1 0x1 DUP3 MSTORE PUSH1 0x20 DUP3 ADD MSTORE PUSH1 0x80 PUSH1 0x40 DUP3 ADD MSTORE PUSH32 0x26ADB22CEC823EF144935E9FBEF1B6B4A3A29DACBE5444D59292FA2620F3D377 PUSH2 0x78C PUSH1 0x80 DUP4 ADD PUSH1 0x40 SWAP1 PUSH1 0x15 DUP2 MSTORE PUSH21 0x53706F6E736F727368697020537472756374757265 PUSH1 0x58 SHL PUSH1 0x20 DUP3 ADD MSTORE ADD SWAP1 JUMP JUMPDEST SWAP2 TIMESTAMP PUSH1 0x60 DUP3 ADD MSTORE DUP1 CALLER SWAP4 SUB SWAP1 LOG3 PUSH0 MSTORE PUSH1 0x10 PUSH1 0x20 MSTORE PUSH1 0x5 PUSH1 0x1 DUP1 PUSH1 0xA0 SHL SUB PUSH1 0x40 PUSH0 KECCAK256 SLOAD AND SWAP2 ADD SLOAD PUSH1 0x40 MLOAD SWAP1 DUP2 MSTORE PUSH32 0x309BB360E8B69C23937CCC5FB01F9AEEEAD1C95A99604E175113FF82F2B1723A PUSH1 0x20 CALLER SWAP3 LOG4 STOP JUMPDEST PUSH4 0x4E487B71 PUSH1 0xE0 SHL PUSH0 MSTORE PUSH1 0x11 PUSH1 0x4 MSTORE PUSH1 0x24 PUSH0 REVERT JUMPDEST DUP1 ISZERO PUSH2 0x850 JUMPI DUP1 PUSH0 MSTORE PUSH1 0x10 PUSH1 0x20 MSTORE PUSH1 0x9 PUSH1 0x40 PUSH0 KECCAK256 ADD DUP1 SLOAD SWAP1 PUSH1 0x1 DUP3 ADD DUP1 SWAP3 GT PUSH2 0x7E0 JUMPI SSTORE DUP1 PUSH0 MSTORE PUSH1 0x13 PUSH1 0x20 MSTORE PUSH1 0x40 PUSH0 KECCAK256 DUP3 PUSH0 MSTORE PUSH1 0x20 MSTORE PUSH2 0x837 DUP8 PUSH1 0x40 PUSH0 KECCAK256 PUSH2 0x24D7 JUMP JUMPDEST PUSH0 MSTORE PUSH1 0x10 PUSH1 0x20 MSTORE PUSH1 0x1 PUSH1 0x5 PUSH1 0x40 PUSH0 KECCAK256 ADD SLOAD SWAP2 ADD SWAP1 PUSH2 0x664 JUMP JUMPDEST PUSH2 0x66D JUMP JUMPDEST PUSH0 JUMPDEST PUSH1 0xF DUP2 LT PUSH2 0x867 JUMPI JUMPDEST POP POP PUSH2 0x661 JUMP JUMPDEST DUP2 PUSH2 0x97E JUMPI DUP6 PUSH0 MSTORE PUSH1 0x13 PUSH1 0x20 MSTORE PUSH1 0x40 PUSH0 KECCAK256 PUSH1 0x1 DUP3 ADD DUP1 DUP4 GT PUSH2 0x7E0 JUMPI PUSH0 MSTORE PUSH1 0x20 MSTORE PUSH1 0x40 PUSH0 KECCAK256 SLOAD PUSH1 0x2 DUP3 ADD DUP1 DUP4 GT PUSH2 0x7E0 JUMPI PUSH1 0xFF DUP2 GT PUSH2 0x7E0 JUMPI PUSH1 0x1 SWAP1 SHL GT PUSH2 0x8B2 JUMPI JUMPDEST PUSH1 0x1 ADD PUSH2 0x857 JUMP JUMPDEST SWAP5 SWAP4 SWAP1 SWAP6 SWAP2 SWAP3 PUSH0 JUMPDEST DUP6 PUSH0 MSTORE PUSH1 0x13 PUSH1 0x20 MSTORE PUSH1 0x40 PUSH0 KECCAK256 DUP8 PUSH0 MSTORE PUSH1 0x20 MSTORE PUSH1 0x40 PUSH0 KECCAK256 SLOAD DUP2 LT ISZERO PUSH2 0x96F JUMPI DUP8 PUSH2 0x95D JUMPI DUP6 PUSH0 MSTORE PUSH1 0x13 PUSH1 0x20 MSTORE PUSH1 0x40 PUSH0 KECCAK256 DUP8 PUSH0 MSTORE PUSH1 0x20 MSTORE PUSH2 0x8FC DUP2 PUSH1 0x40 PUSH0 KECCAK256 PUSH2 0x1EFE JUMP JUMPDEST SWAP1 SLOAD SWAP1 PUSH1 0x3 SHL SHR DUP1 PUSH0 MSTORE PUSH1 0x14 PUSH1 0x20 MSTORE PUSH1 0x2 PUSH1 0x40 PUSH0 KECCAK256 SLOAD LT PUSH2 0x921 JUMPI JUMPDEST POP PUSH1 0x1 ADD PUSH2 0x8BA JUMP JUMPDEST SWAP2 SWAP5 POP SWAP7 POP DUP8 PUSH0 MSTORE PUSH1 0x10 PUSH1 0x20 MSTORE DUP1 PUSH1 0x5 PUSH1 0x40 PUSH0 KECCAK256 ADD SSTORE DUP1 PUSH0 MSTORE PUSH1 0x14 PUSH1 0x20 MSTORE PUSH1 0x40 PUSH0 KECCAK256 DUP1 SLOAD SWAP1 PUSH1 0x1 DUP3 ADD DUP1 SWAP3 GT PUSH2 0x7E0 JUMPI SSTORE SWAP3 PUSH1 0x1 DUP1 SWAP8 SWAP1 PUSH2 0x918 JUMP JUMPDEST POP SWAP3 SWAP2 SWAP6 SWAP1 SWAP4 SWAP5 PUSH1 0x1 SWAP1 JUMPDEST SWAP1 POP PUSH2 0x8AA JUMP JUMPDEST POP SWAP3 SWAP2 SWAP6 SWAP1 SWAP4 SWAP5 PUSH1 0x1 SWAP1 PUSH2 0x968 JUMP JUMPDEST PUSH2 0x860 JUMP JUMPDEST PUSH2 0x9A4 SWAP1 PUSH1 0x20 RETURNDATASIZE PUSH1 0x20 GT PUSH2 0x9A9 JUMPI JUMPDEST PUSH2 0x99C DUP2 DUP4 PUSH2 0x23F2 JUMP JUMPDEST DUP2 ADD SWAP1 PUSH2 0x2428 JUMP JUMPDEST PUSH2 0x4F1 JUMP JUMPDEST POP RETURNDATASIZE PUSH2 0x992 JUMP JUMPDEST PUSH1 0x40 MLOAD RETURNDATASIZE PUSH0 DUP3 RETURNDATACOPY RETURNDATASIZE SWAP1 REVERT JUMPDEST PUSH1 0x40 MLOAD PUSH3 0x461BCD PUSH1 0xE5 SHL DUP2 MSTORE PUSH1 0x20 PUSH1 0x4 DUP3 ADD MSTORE PUSH1 0xF PUSH1 0x24 DUP3 ADD MSTORE PUSH15 0x24B73B30B634B21039B837B739B7B9 PUSH1 0x89 SHL PUSH1 0x44 DUP3 ADD MSTORE PUSH1 0x64 SWAP1 REVERT JUMPDEST PUSH1 0x40 MLOAD PUSH3 0x461BCD PUSH1 0xE5 SHL DUP2 MSTORE PUSH1 0x20 PUSH1 0x4 DUP3 ADD MSTORE PUSH1 0x12 PUSH1 0x24 DUP3 ADD MSTORE PUSH18 0x105B1C9958591E481C9959DA5CDD195C9959 PUSH1 0x72 SHL PUSH1 0x44 DUP3 ADD MSTORE PUSH1 0x64 SWAP1 REVERT JUMPDEST CALLVALUE PUSH2 0x37D JUMPI PUSH0 CALLDATASIZE PUSH1 0x3 NOT ADD SLT PUSH2 0x37D JUMPI PUSH1 0x20 PUSH1 0x5 SLOAD PUSH1 0x40 MLOAD SWAP1 DUP2 MSTORE RETURN JUMPDEST CALLVALUE PUSH2 0x37D JUMPI PUSH0 CALLDATASIZE PUSH1 0x3 NOT ADD SLT PUSH2 0x37D JUMPI PUSH1 0x20 PUSH1 0x40 MLOAD PUSH9 0x3635C9ADC5DEA00000 DUP2 MSTORE RETURN JUMPDEST CALLVALUE PUSH2 0x37D JUMPI PUSH0 CALLDATASIZE PUSH1 0x3 NOT ADD SLT PUSH2 0x37D JUMPI PUSH1 0x3 SLOAD PUSH1 0x40 MLOAD PUSH1 0x1 PUSH1 0x1 PUSH1 0xA0 SHL SUB SWAP1 SWAP2 AND DUP2 MSTORE PUSH1 0x20 SWAP1 RETURN JUMPDEST CALLVALUE PUSH2 0x37D JUMPI PUSH0 CALLDATASIZE PUSH1 0x3 NOT ADD SLT PUSH2 0x37D JUMPI PUSH1 0x20 PUSH1 0x41 SLOAD PUSH1 0x40 MLOAD SWAP1 DUP2 MSTORE RETURN JUMPDEST CALLVALUE PUSH2 0x37D JUMPI PUSH1 0x20 CALLDATASIZE PUSH1 0x3 NOT ADD SLT PUSH2 0x37D JUMPI PUSH1 0x4 CALLDATALOAD PUSH0 MSTORE PUSH1 0x4C PUSH1 0x20 MSTORE PUSH1 0x40 PUSH0 KECCAK256 DUP1 SLOAD PUSH2 0xB10 PUSH1 0x1 DUP4 ADD SLOAD SWAP3 PUSH1 0xFF PUSH1 0x4 PUSH1 0x2 DUP4 ADD SLOAD SWAP3 ADD SLOAD AND SWAP1 PUSH1 0x40 MLOAD SWAP5 DUP6 SWAP5 DUP6 SWAP3 PUSH1 0x60 SWAP3 SWAP6 SWAP5 SWAP2 SWAP6 PUSH1 0x80 DUP6 ADD SWAP7 DUP6 MSTORE PUSH1 0x20 DUP6 ADD MSTORE PUSH1 0x40 DUP5 ADD MSTORE ISZERO ISZERO SWAP2 ADD MSTORE JUMP JUMPDEST SUB SWAP1 RETURN JUMPDEST CALLVALUE PUSH2 0x37D JUMPI PUSH0 CALLDATASIZE PUSH1 0x3 NOT ADD SLT PUSH2 0x37D JUMPI PUSH1 0x20 PUSH1 0x40 MLOAD PUSH1 0x5 DUP2 MSTORE RETURN JUMPDEST CALLVALUE PUSH2 0x37D JUMPI PUSH1 0x20 CALLDATASIZE PUSH1 0x3 NOT ADD SLT PUSH2 0x37D JUMPI PUSH1 0x4 CALLDATALOAD PUSH1 0x8 DUP2 LT ISZERO PUSH2 0x37D JUMPI PUSH1 0x20 SWAP1 PUSH1 0x1F ADD SLOAD PUSH1 0x40 MLOAD SWAP1 DUP2 MSTORE RETURN JUMPDEST CALLVALUE PUSH2 0x37D JUMPI PUSH2 0xB69 CALLDATASIZE PUSH2 0x1E5E JUMP JUMPDEST SWAP1 PUSH0 MSTORE PUSH1 0x30 PUSH1 0x20 MSTORE PUSH1 0x40 PUSH0 KECCAK256 SWAP1 PUSH0 MSTORE PUSH1 0x20 MSTORE PUSH1 0x40 PUSH0 KECCAK256 DUP1 SLOAD PUSH2 0xB10 PUSH1 0x1 DUP4 ADD SLOAD SWAP3 PUSH1 0x2 DUP2 ADD SLOAD SWAP1 PUSH1 0x4 PUSH1 0x3 DUP3 ADD SLOAD SWAP2 ADD SLOAD SWAP2 PUSH1 0x40 MLOAD SWAP6 DUP7 SWAP6 DUP7 SWAP2 SWAP3 PUSH1 0x80 SWAP4 SWAP7 SWAP6 SWAP5 SWAP2 SWAP7 PUSH1 0xA0 DUP5 ADD SWAP8 DUP5 MSTORE PUSH1 0x20 DUP5 ADD MSTORE PUSH1 0x40 DUP4 ADD MSTORE PUSH1 0x60 DUP3 ADD MSTORE ADD MSTORE JUMP JUMPDEST CALLVALUE PUSH2 0x37D JUMPI PUSH1 0x20 CALLDATASIZE PUSH1 0x3 NOT ADD SLT PUSH2 0x37D JUMPI PUSH1 0x4 CALLDATALOAD PUSH1 0x1 PUSH1 0x1 PUSH1 0xA0 SHL SUB DUP2 AND SWAP1 DUP2 SWAP1 SUB PUSH2 0x37D JUMPI PUSH0 MSTORE PUSH1 0xF PUSH1 0x20 MSTORE PUSH1 0x20 PUSH1 0x40 PUSH0 KECCAK256 SLOAD PUSH1 0x40 MLOAD SWAP1 DUP2 MSTORE RETURN JUMPDEST CALLVALUE PUSH2 0x37D JUMPI PUSH0 CALLDATASIZE PUSH1 0x3 NOT ADD SLT PUSH2 0x37D JUMPI PUSH1 0x20 PUSH1 0x39 SLOAD PUSH1 0x40 MLOAD SWAP1 DUP2 MSTORE RETURN JUMPDEST CALLVALUE PUSH2 0x37D JUMPI PUSH0 CALLDATASIZE PUSH1 0x3 NOT ADD SLT PUSH2 0x37D JUMPI PUSH1 0x20 PUSH1 0x40 SLOAD PUSH1 0x40 MLOAD SWAP1 DUP2 MSTORE RETURN JUMPDEST CALLVALUE PUSH2 0x37D JUMPI PUSH0 CALLDATASIZE PUSH1 0x3 NOT ADD SLT PUSH2 0x37D JUMPI PUSH1 0x20 PUSH1 0x40 MLOAD PUSH10 0x21E19E0C9BAB2400000 DUP2 MSTORE RETURN JUMPDEST CALLVALUE PUSH2 0x37D JUMPI PUSH2 0xC6E CALLDATASIZE PUSH2 0x1E5E JUMP JUMPDEST SWAP1 PUSH0 MSTORE PUSH1 0x37 PUSH1 0x20 MSTORE PUSH1 0x40 PUSH0 KECCAK256 DUP1 SLOAD DUP3 LT ISZERO PUSH2 0x37D JUMPI PUSH1 0x20 SWAP2 PUSH2 0x3B0 SWAP2 PUSH2 0x1EFE JUMP JUMPDEST CALLVALUE PUSH2 0x37D JUMPI PUSH1 0x20 CALLDATASIZE PUSH1 0x3 NOT ADD SLT PUSH2 0x37D JUMPI PUSH1 0x4 CALLDATALOAD PUSH0 MSTORE PUSH1 0x3C PUSH1 0x20 MSTORE PUSH1 0x40 PUSH0 KECCAK256 DUP1 SLOAD PUSH2 0xB10 PUSH1 0x1 DUP4 ADD SLOAD SWAP3 PUSH1 0x2 DUP2 ADD SLOAD SWAP1 PUSH1 0x3 DUP2 ADD SLOAD PUSH1 0x4 DUP3 ADD SLOAD PUSH1 0x5 DUP4 ADD SLOAD SWAP1 PUSH1 0x6 DUP5 ADD SLOAD SWAP3 PUSH1 0xFF PUSH1 0x8 PUSH1 0x7 DUP8 ADD SLOAD SWAP7 ADD SLOAD AND SWAP6 PUSH1 0x40 MLOAD SWAP10 DUP11 SWAP10 DUP11 PUSH2 0x1E74 JUMP JUMPDEST CALLVALUE PUSH2 0x37D JUMPI PUSH1 0x20 CALLDATASIZE PUSH1 0x3 NOT ADD SLT PUSH2 0x37D JUMPI PUSH1 0x4 CALLDATALOAD PUSH1 0xD SLOAD DUP2 LT ISZERO PUSH2 0x37D JUMPI PUSH2 0x3B0 PUSH1 0x20 SWAP2 PUSH2 0x1EB4 JUMP JUMPDEST CALLVALUE PUSH2 0x37D JUMPI PUSH0 CALLDATASIZE PUSH1 0x3 NOT ADD SLT PUSH2 0x37D JUMPI PUSH1 0x20 PUSH1 0x6 SLOAD PUSH1 0x40 MLOAD SWAP1 DUP2 MSTORE RETURN JUMPDEST CALLVALUE PUSH2 0x37D JUMPI PUSH2 0xD43 CALLDATASIZE PUSH2 0x1E5E JUMP JUMPDEST SWAP1 PUSH0 MSTORE PUSH1 0x2F PUSH1 0x20 MSTORE PUSH1 0x40 PUSH0 KECCAK256 SWAP1 PUSH0 MSTORE PUSH1 0x20 MSTORE PUSH1 0x40 DUP1 PUSH0 KECCAK256 PUSH1 0x1 DUP2 SLOAD SWAP2 ADD SLOAD DUP3 MLOAD SWAP2 DUP3 MSTORE PUSH1 0x20 DUP3 ADD MSTORE RETURN JUMPDEST CALLVALUE PUSH2 0x37D JUMPI PUSH2 0xD7B CALLDATASIZE PUSH2 0x1E5E JUMP JUMPDEST SWAP1 PUSH0 MSTORE PUSH1 0x34 PUSH1 0x20 MSTORE PUSH1 0x40 PUSH0 KECCAK256 SWAP1 PUSH0 MSTORE PUSH1 0x20 MSTORE PUSH1 0x20 PUSH1 0xFF PUSH1 0x40 PUSH0 KECCAK256 SLOAD AND PUSH1 0x40 MLOAD SWAP1 ISZERO ISZERO DUP2 MSTORE RETURN JUMPDEST CALLVALUE PUSH2 0x37D JUMPI PUSH1 0x20 CALLDATASIZE PUSH1 0x3 NOT ADD SLT PUSH2 0x37D JUMPI PUSH1 0x4 CALLDATALOAD PUSH1 0x16 SLOAD DUP2 LT ISZERO PUSH2 0x37D JUMPI PUSH1 0x16 SLOAD DUP2 LT ISZERO PUSH2 0x441 JUMPI PUSH1 0x16 PUSH0 MSTORE PUSH32 0xD833147D7DC355BA459FC788F669E58CFAF9DC25DDCD0702E87D69C7B5124289 ADD SLOAD PUSH1 0x40 MLOAD SWAP1 DUP2 MSTORE PUSH1 0x20 SWAP1 RETURN JUMPDEST CALLVALUE PUSH2 0x37D JUMPI PUSH0 CALLDATASIZE PUSH1 0x3 NOT ADD SLT PUSH2 0x37D JUMPI PUSH1 0x20 PUSH1 0x40 MLOAD PUSH3 0x83D600 DUP2 MSTORE RETURN JUMPDEST CALLVALUE PUSH2 0x37D JUMPI PUSH0 CALLDATASIZE PUSH1 0x3 NOT ADD SLT PUSH2 0x37D JUMPI PUSH1 0x20 PUSH1 0x42 SLOAD PUSH1 0x40 MLOAD SWAP1 DUP2 MSTORE RETURN JUMPDEST CALLVALUE PUSH2 0x37D JUMPI PUSH2 0xE43 CALLDATASIZE PUSH2 0x1E5E JUMP JUMPDEST SWAP1 PUSH0 MSTORE PUSH1 0x38 PUSH1 0x20 MSTORE PUSH1 0x40 PUSH0 KECCAK256 SWAP1 PUSH0 MSTORE PUSH1 0x20 MSTORE PUSH1 0x20 PUSH1 0xFF PUSH1 0x40 PUSH0 KECCAK256 SLOAD AND PUSH1 0x40 MLOAD SWAP1 ISZERO ISZERO DUP2 MSTORE RETURN JUMPDEST CALLVALUE PUSH2 0x37D JUMPI PUSH0 CALLDATASIZE PUSH1 0x3 NOT ADD SLT PUSH2 0x37D JUMPI PUSH1 0x20 PUSH1 0x48 SLOAD PUSH1 0x40 MLOAD SWAP1 DUP2 MSTORE RETURN JUMPDEST CALLVALUE PUSH2 0x37D JUMPI PUSH1 0x20 CALLDATASIZE PUSH1 0x3 NOT ADD SLT PUSH2 0x37D JUMPI PUSH1 0x4 CALLDATALOAD PUSH1 0x8 DUP2 LT ISZERO PUSH2 0x37D JUMPI PUSH1 0x20 SWAP1 PUSH1 0x27 ADD SLOAD PUSH1 0x40 MLOAD SWAP1 DUP2 MSTORE RETURN JUMPDEST CALLVALUE PUSH2 0x37D JUMPI PUSH2 0xEC0 CALLDATASIZE PUSH2 0x1E5E JUMP JUMPDEST SWAP1 PUSH0 MSTORE PUSH1 0x35 PUSH1 0x20 MSTORE PUSH1 0x40 PUSH0 KECCAK256 SWAP1 PUSH0 MSTORE PUSH1 0x20 MSTORE PUSH1 0x40 PUSH0 KECCAK256 DUP1 SLOAD PUSH2 0xB10 PUSH1 0x1 DUP4 ADD SLOAD SWAP3 PUSH1 0x2 DUP2 ADD SLOAD SWAP1 PUSH1 0x4 PUSH1 0x3 DUP3 ADD SLOAD SWAP2 ADD SLOAD SWAP2 PUSH1 0x40 MLOAD SWAP6 DUP7 SWAP6 DUP7 SWAP2 SWAP3 PUSH1 0x80 SWAP4 SWAP7 SWAP6 SWAP5 SWAP2 SWAP7 PUSH1 0xA0 DUP5 ADD SWAP8 DUP5 MSTORE PUSH1 0x20 DUP5 ADD MSTORE PUSH1 0x40 DUP4 ADD MSTORE PUSH1 0x60 DUP3 ADD MSTORE ADD MSTORE JUMP JUMPDEST CALLVALUE PUSH2 0x37D JUMPI PUSH2 0xF2B CALLDATASIZE PUSH2 0x1F13 JUMP JUMPDEST SWAP2 PUSH0 MSTORE PUSH1 0x31 PUSH1 0x20 MSTORE PUSH1 0x40 PUSH0 KECCAK256 SWAP1 PUSH0 MSTORE PUSH1 0x20 MSTORE PUSH1 0x40 PUSH0 KECCAK256 DUP1 SLOAD DUP3 LT ISZERO PUSH2 0x37D JUMPI PUSH1 0x20 SWAP2 PUSH2 0x3B0 SWAP2 PUSH2 0x1EFE JUMP JUMPDEST CALLVALUE PUSH2 0x37D JUMPI PUSH2 0xF64 CALLDATASIZE PUSH2 0x1F13 JUMP JUMPDEST SWAP2 PUSH0 MSTORE PUSH1 0x32 PUSH1 0x20 MSTORE PUSH1 0x40 PUSH0 KECCAK256 SWAP1 PUSH0 MSTORE PUSH1 0x20 MSTORE PUSH1 0x40 PUSH0 KECCAK256 DUP1 SLOAD DUP3 LT ISZERO PUSH2 0x37D JUMPI PUSH1 0x20 SWAP2 PUSH2 0x3B0 SWAP2 PUSH2 0x1EFE JUMP JUMPDEST CALLVALUE PUSH2 0x37D JUMPI PUSH2 0xF9D CALLDATASIZE PUSH2 0x1E5E JUMP JUMPDEST SWAP1 PUSH0 MSTORE PUSH1 0xB PUSH1 0x20 MSTORE PUSH1 0x40 PUSH0 KECCAK256 SWAP1 PUSH0 MSTORE PUSH1 0x20 MSTORE PUSH1 0x20 PUSH1 0x40 PUSH0 KECCAK256 SLOAD PUSH1 0x40 MLOAD SWAP1 DUP2 MSTORE RETURN JUMPDEST CALLVALUE PUSH2 0x37D JUMPI PUSH1 0x20 CALLDATASIZE PUSH1 0x3 NOT ADD SLT PUSH2 0x37D JUMPI PUSH1 0x4 CALLDATALOAD PUSH0 MSTORE PUSH1 0x14 PUSH1 0x20 MSTORE PUSH1 0x20 PUSH1 0x40 PUSH0 KECCAK256 SLOAD PUSH1 0x40 MLOAD SWAP1 DUP2 MSTORE RETURN JUMPDEST CALLVALUE PUSH2 0x37D JUMPI PUSH0 CALLDATASIZE PUSH1 0x3 NOT ADD SLT PUSH2 0x37D JUMPI PUSH1 0x2 SLOAD PUSH1 0x40 MLOAD PUSH1 0x1 PUSH1 0x1 PUSH1 0xA0 SHL SUB SWAP1 SWAP2 AND DUP2 MSTORE PUSH1 0x20 SWAP1 RETURN JUMPDEST CALLVALUE PUSH2 0x37D JUMPI PUSH0 CALLDATASIZE PUSH1 0x3 NOT ADD SLT PUSH2 0x37D JUMPI PUSH1 0x20 PUSH1 0x9 SLOAD PUSH1 0x40 MLOAD SWAP1 DUP2 MSTORE RETURN JUMPDEST CALLVALUE PUSH2 0x37D JUMPI PUSH0 CALLDATASIZE PUSH1 0x3 NOT ADD SLT PUSH2 0x37D JUMPI PUSH1 0x20 PUSH1 0x40 MLOAD PUSH3 0x93A80 DUP2 MSTORE RETURN JUMPDEST CALLVALUE PUSH2 0x37D JUMPI PUSH2 0x1058 CALLDATASIZE PUSH2 0x1E5E JUMP JUMPDEST SWAP1 PUSH0 MSTORE PUSH1 0x12 PUSH1 0x20 MSTORE PUSH1 0x40 PUSH0 KECCAK256 DUP1 SLOAD DUP3 LT ISZERO PUSH2 0x37D JUMPI PUSH0 MSTORE PUSH1 0x5 PUSH1 0x20 PUSH0 KECCAK256 SWAP2 MUL ADD DUP1 SLOAD PUSH2 0xB10 PUSH1 0x1 DUP4 ADD SLOAD SWAP3 PUSH1 0x2 DUP2 ADD SLOAD SWAP1 PUSH1 0x4 PUSH1 0x3 DUP3 ADD SLOAD SWAP2 ADD SLOAD SWAP2 PUSH1 0x40 MLOAD SWAP6 DUP7 SWAP6 DUP7 SWAP2 SWAP3 PUSH1 0x80 SWAP4 SWAP7 SWAP6 SWAP5 SWAP2 SWAP7 PUSH1 0xA0 DUP5 ADD SWAP8 DUP5 MSTORE PUSH1 0x20 DUP5 ADD MSTORE PUSH1 0x40 DUP4 ADD MSTORE PUSH1 0x60 DUP3 ADD MSTORE ADD MSTORE JUMP JUMPDEST CALLVALUE PUSH2 0x37D JUMPI PUSH0 CALLDATASIZE PUSH1 0x3 NOT ADD SLT PUSH2 0x37D JUMPI PUSH1 0x20 PUSH1 0x40 MLOAD PUSH4 0x2514300 DUP2 MSTORE RETURN JUMPDEST CALLVALUE PUSH2 0x37D JUMPI PUSH1 0x20 CALLDATASIZE PUSH1 0x3 NOT ADD SLT PUSH2 0x37D JUMPI PUSH1 0x4 CALLDATALOAD PUSH0 MSTORE PUSH1 0x43 PUSH1 0x20 MSTORE PUSH1 0x40 PUSH0 KECCAK256 DUP1 SLOAD PUSH2 0xB10 PUSH1 0x1 DUP4 ADD SLOAD SWAP3 PUSH1 0x2 DUP2 ADD SLOAD SWAP1 PUSH1 0x3 DUP2 ADD SLOAD PUSH1 0x4 DUP3 ADD SLOAD PUSH1 0x5 DUP4 ADD SLOAD SWAP1 PUSH1 0x6 DUP5 ADD SLOAD SWAP3 PUSH1 0xFF PUSH1 0x8 PUSH1 0x7 DUP8 ADD SLOAD SWAP7 ADD SLOAD AND SWAP6 PUSH1 0x40 MLOAD SWAP10 DUP11 SWAP10 DUP11 PUSH2 0x1E74 JUMP JUMPDEST CALLVALUE PUSH2 0x37D JUMPI PUSH2 0x114B CALLDATASIZE PUSH2 0x1E5E JUMP JUMPDEST SWAP1 PUSH0 MSTORE PUSH1 0x15 PUSH1 0x20 MSTORE PUSH1 0x40 PUSH0 KECCAK256 DUP1 SLOAD DUP3 LT ISZERO PUSH2 0x37D JUMPI PUSH1 0x20 SWAP2 PUSH2 0x3B0 SWAP2 PUSH2 0x1EFE JUMP JUMPDEST CALLVALUE PUSH2 0x37D JUMPI PUSH0 CALLDATASIZE PUSH1 0x3 NOT ADD SLT PUSH2 0x37D JUMPI PUSH1 0x20 PUSH1 0x49 SLOAD PUSH1 0x40 MLOAD SWAP1 DUP2 MSTORE RETURN JUMPDEST CALLVALUE PUSH2 0x37D JUMPI PUSH2 0x1197 CALLDATASIZE PUSH2 0x1E5E JUMP JUMPDEST PUSH0 SWAP2 DUP3 MSTORE PUSH1 0xE PUSH1 0x20 SWAP1 DUP2 MSTORE PUSH1 0x40 DUP1 DUP5 KECCAK256 SWAP3 DUP5 MSTORE SWAP2 DUP2 MSTORE SWAP2 DUP2 SWAP1 KECCAK256 DUP1 SLOAD PUSH1 0x1 DUP3 ADD SLOAD PUSH1 0x2 DUP4 ADD SLOAD PUSH1 0x3 SWAP1 SWAP4 ADD SLOAD DUP5 MLOAD SWAP3 DUP4 MSTORE SWAP5 DUP3 ADD MSTORE SWAP2 DUP3 ADD MSTORE PUSH1 0xFF DUP1 DUP4 AND ISZERO ISZERO PUSH1 0x60 DUP4 ADD MSTORE PUSH1 0x8 SWAP3 SWAP1 SWAP3 SHR SWAP1 SWAP2 AND ISZERO ISZERO PUSH1 0x80 DUP3 ADD MSTORE PUSH1 0xA0 SWAP1 RETURN JUMPDEST CALLVALUE PUSH2 0x37D JUMPI PUSH2 0x11FF CALLDATASIZE PUSH2 0x1F13 JUMP JUMPDEST SWAP2 PUSH0 MSTORE PUSH1 0x13 PUSH1 0x20 MSTORE PUSH1 0x40 PUSH0 KECCAK256 SWAP1 PUSH0 MSTORE PUSH1 0x20 MSTORE PUSH1 0x40 PUSH0 KECCAK256 DUP1 SLOAD DUP3 LT ISZERO PUSH2 0x37D JUMPI PUSH1 0x20 SWAP2 PUSH2 0x3B0 SWAP2 PUSH2 0x1EFE JUMP JUMPDEST PUSH2 0x1F2D JUMP JUMPDEST CALLVALUE PUSH2 0x37D JUMPI PUSH1 0x40 PUSH2 0x1248 PUSH2 0x1242 CALLDATASIZE PUSH2 0x1E5E JUMP JUMPDEST SWAP1 PUSH2 0x2460 JUMP JUMPDEST DUP3 MLOAD SWAP2 DUP3 MSTORE PUSH1 0x20 DUP3 ADD MSTORE RETURN JUMPDEST CALLVALUE PUSH2 0x37D JUMPI PUSH2 0x1262 CALLDATASIZE PUSH2 0x1F13 JUMP JUMPDEST SWAP2 PUSH0 MSTORE PUSH1 0x3F PUSH1 0x20 MSTORE PUSH1 0x40 PUSH0 KECCAK256 SWAP1 PUSH0 MSTORE PUSH1 0x20 MSTORE PUSH1 0x40 PUSH0 KECCAK256 DUP1 SLOAD DUP3 LT ISZERO PUSH2 0x37D JUMPI PUSH1 0x20 SWAP2 PUSH2 0x3B0 SWAP2 PUSH2 0x1EFE JUMP JUMPDEST CALLVALUE PUSH2 0x37D JUMPI PUSH2 0x129B CALLDATASIZE PUSH2 0x1E5E JUMP JUMPDEST SWAP1 PUSH0 MSTORE PUSH1 0x4D PUSH1 0x20 MSTORE PUSH1 0x40 PUSH0 KECCAK256 DUP1 SLOAD DUP3 LT ISZERO PUSH2 0x37D JUMPI PUSH1 0x20 SWAP2 PUSH2 0x3B0 SWAP2 PUSH2 0x1EFE JUMP JUMPDEST CALLVALUE PUSH2 0x37D JUMPI PUSH0 CALLDATASIZE PUSH1 0x3 NOT ADD SLT PUSH2 0x37D JUMPI PUSH1 0x20 PUSH1 0x47 SLOAD PUSH1 0x40 MLOAD SWAP1 DUP2 MSTORE RETURN JUMPDEST CALLVALUE PUSH2 0x37D JUMPI PUSH1 0x20 CALLDATASIZE PUSH1 0x3 NOT ADD SLT PUSH2 0x37D JUMPI PUSH1 0x4 CALLDATALOAD PUSH0 MSTORE PUSH1 0x11 PUSH1 0x20 MSTORE PUSH2 0x180 PUSH1 0x40 PUSH0 KECCAK256 DUP1 SLOAD SWAP1 PUSH1 0x1 DUP2 ADD SLOAD SWAP1 PUSH1 0x2 DUP2 ADD SLOAD PUSH1 0x3 DUP3 ADD SLOAD PUSH1 0x4 DUP4 ADD SLOAD PUSH1 0x5 DUP5 ADD SLOAD PUSH1 0x6 DUP6 ADD SLOAD SWAP1 PUSH1 0x7 DUP7 ADD SLOAD SWAP3 PUSH1 0x8 DUP8 ADD SLOAD SWAP5 PUSH1 0x9 DUP9 ADD SLOAD SWAP7 PUSH1 0xB PUSH1 0xA DUP11 ADD SLOAD SWAP10 ADD SLOAD SWAP10 PUSH1 0x40 MLOAD SWAP12 DUP13 MSTORE PUSH1 0x20 DUP13 ADD MSTORE PUSH1 0x40 DUP12 ADD MSTORE PUSH1 0x60 DUP11 ADD MSTORE PUSH1 0x80 DUP10 ADD MSTORE PUSH1 0xA0 DUP9 ADD MSTORE PUSH1 0xC0 DUP8 ADD MSTORE PUSH1 0xE0 DUP7 ADD MSTORE PUSH2 0x100 DUP6 ADD MSTORE PUSH2 0x120 DUP5 ADD MSTORE PUSH2 0x140 DUP4 ADD MSTORE PUSH2 0x160 DUP3 ADD MSTORE RETURN JUMPDEST CALLVALUE PUSH2 0x37D JUMPI PUSH1 0x20 CALLDATASIZE PUSH1 0x3 NOT ADD SLT PUSH2 0x37D JUMPI PUSH1 0x4 CALLDATALOAD PUSH0 MSTORE PUSH1 0xA PUSH1 0x20 MSTORE PUSH1 0x20 PUSH1 0x40 PUSH0 KECCAK256 SLOAD PUSH1 0x40 MLOAD SWAP1 DUP2 MSTORE RETURN JUMPDEST CALLVALUE PUSH2 0x37D JUMPI PUSH1 0x20 CALLDATASIZE PUSH1 0x3 NOT ADD SLT PUSH2 0x37D JUMPI PUSH1 0x4 CALLDATALOAD DUP1 PUSH0 MSTORE PUSH1 0x10 PUSH1 0x20 MSTORE PUSH1 0x40 PUSH0 KECCAK256 PUSH2 0x13DC PUSH1 0x1 DUP1 PUSH1 0xA0 SHL SUB DUP3 SLOAD AND CALLER EQ PUSH2 0x1F63 JUMP JUMPDEST PUSH1 0x6 DUP2 ADD DUP1 SLOAD SWAP2 PUSH1 0xF DUP4 LT ISZERO PUSH2 0x1833 JUMPI PUSH2 0x13F5 DUP4 PUSH2 0x1EB4 JUMP JUMPDEST SWAP1 SLOAD PUSH1 0x1 SLOAD PUSH1 0x40 MLOAD PUSH4 0x23B872DD PUSH1 0xE0 SHL DUP2 MSTORE CALLER PUSH1 0x4 DUP3 ADD MSTORE ADDRESS PUSH1 0x24 DUP3 ADD MSTORE PUSH1 0x3 SWAP4 SWAP1 SWAP4 SHL SWAP2 SWAP1 SWAP2 SHR PUSH1 0x44 DUP4 ADD DUP2 SWAP1 MSTORE SWAP4 SWAP2 SWAP1 PUSH1 0x20 SWAP1 DUP3 SWAP1 PUSH1 0x64 SWAP1 DUP3 SWAP1 PUSH0 SWAP1 PUSH1 0x1 PUSH1 0x1 PUSH1 0xA0 SHL SUB AND GAS CALL DUP1 ISZERO PUSH2 0x9B0 JUMPI PUSH2 0x1816 JUMPI JUMPDEST POP DUP1 SLOAD SWAP1 PUSH1 0x1 DUP3 ADD DUP1 SWAP3 GT PUSH2 0x7E0 JUMPI SSTORE PUSH1 0xA DUP2 ADD PUSH2 0x1468 DUP4 DUP3 SLOAD PUSH2 0x2440 JUMP JUMPDEST SWAP1 SSTORE DUP4 PUSH0 MSTORE PUSH1 0xE PUSH1 0x20 MSTORE PUSH1 0x40 PUSH0 KECCAK256 DUP3 PUSH0 MSTORE PUSH1 0x20 MSTORE PUSH1 0x3 PUSH1 0x40 PUSH0 KECCAK256 ADD PUSH1 0x1 PUSH1 0xFF NOT DUP3 SLOAD AND OR SWAP1 SSTORE PUSH1 0x5 DUP3 MUL SWAP1 DUP3 ISZERO SWAP2 DUP4 DUP2 DIV PUSH1 0x5 EQ DUP4 OR ISZERO PUSH2 0x7E0 JUMPI PUSH1 0x64 SWAP1 DIV SWAP2 PUSH1 0x19 DUP5 MUL DUP5 DUP2 DIV PUSH1 0x19 EQ DUP3 OR ISZERO PUSH2 0x7E0 JUMPI DUP5 PUSH1 0x64 PUSH2 0x14C6 SWAP3 DIV PUSH2 0x27FE JUMP JUMPDEST DUP4 PUSH0 MSTORE PUSH1 0xA PUSH1 0x20 MSTORE PUSH1 0x40 PUSH0 KECCAK256 SLOAD DUP5 PUSH0 MSTORE PUSH1 0xB PUSH1 0x20 MSTORE PUSH1 0x40 PUSH0 KECCAK256 DUP8 PUSH0 MSTORE PUSH1 0x20 MSTORE PUSH1 0x40 PUSH0 KECCAK256 SSTORE PUSH2 0x14F3 DUP4 PUSH2 0x2742 JUMP JUMPDEST DUP4 PUSH0 MSTORE PUSH1 0xC PUSH1 0x20 MSTORE PUSH1 0x40 PUSH0 KECCAK256 DUP1 SLOAD SWAP1 PUSH1 0x1 DUP3 ADD DUP1 SWAP3 GT PUSH2 0x7E0 JUMPI SSTORE PUSH1 0x14 DUP5 MUL DUP5 DUP2 DIV PUSH1 0x14 EQ DUP3 OR ISZERO PUSH2 0x7E0 JUMPI PUSH1 0x64 SWAP1 DIV PUSH1 0x4 DUP4 ADD SWAP4 DUP5 SLOAD SWAP2 PUSH1 0x1 DUP9 ADD SWAP8 DUP9 DUP2 GT PUSH2 0x7E0 JUMPI DUP9 DUP3 PUSH2 0x154B DUP3 PUSH2 0x1563 SWAP6 DUP15 PUSH2 0x156B SWAP10 PUSH2 0x289F JUMP JUMPDEST DUP12 PUSH1 0x5 DUP10 ADD PUSH2 0x155D DUP5 DUP5 DUP5 DUP5 SLOAD PUSH2 0x28DE JUMP JUMPDEST SLOAD PUSH2 0x2B90 JUMP JUMPDEST PUSH1 0x3B SLOAD PUSH2 0x2440 JUMP JUMPDEST PUSH1 0x3B SSTORE PUSH1 0x23 DUP5 MUL DUP5 DUP2 DIV PUSH1 0x23 EQ DUP3 OR ISZERO PUSH2 0x7E0 JUMPI PUSH2 0x3E8 PUSH2 0x158F SWAP2 DIV PUSH1 0x42 SLOAD PUSH2 0x2440 JUMP JUMPDEST PUSH1 0x42 SSTORE PUSH1 0xF DUP5 MUL SWAP1 DUP5 DUP3 DIV PUSH1 0xF EQ OR ISZERO PUSH2 0x7E0 JUMPI PUSH2 0x3E8 PUSH2 0x15B3 SWAP2 DIV PUSH1 0x49 SLOAD PUSH2 0x2440 JUMP JUMPDEST PUSH1 0x49 SSTORE PUSH1 0xA DUP5 EQ PUSH2 0x1730 JUMPI JUMPDEST PUSH1 0xF DUP5 EQ PUSH2 0x163C JUMPI JUMPDEST POP POP PUSH1 0x40 MLOAD SWAP2 DUP3 MSTORE PUSH1 0x20 DUP3 ADD MSTORE PUSH1 0x80 PUSH1 0x40 DUP3 ADD MSTORE PUSH32 0x26ADB22CEC823EF144935E9FBEF1B6B4A3A29DACBE5444D59292FA2620F3D377 PUSH2 0x162D PUSH1 0x80 DUP4 ADD PUSH1 0x40 SWAP1 PUSH1 0x15 DUP2 MSTORE PUSH21 0x53706F6E736F727368697020537472756374757265 PUSH1 0x58 SHL PUSH1 0x20 DUP3 ADD MSTORE ADD SWAP1 JUMP JUMPDEST SWAP2 TIMESTAMP PUSH1 0x60 DUP3 ADD MSTORE DUP1 CALLER SWAP4 SUB SWAP1 LOG3 STOP JUMPDEST PUSH1 0x13 TIMESTAMP SWAP2 ADD SSTORE DUP4 PUSH0 MSTORE PUSH1 0x10 PUSH1 0x20 MSTORE PUSH1 0x40 PUSH0 KECCAK256 SWAP1 SLOAD PUSH0 MSTORE PUSH1 0x10 PUSH1 0x20 MSTORE PUSH1 0x40 PUSH0 KECCAK256 PUSH1 0x15 DUP2 ADD DUP1 SLOAD PUSH1 0x1 DUP2 ADD DUP1 SWAP2 GT PUSH2 0x7E0 JUMPI DUP1 PUSH1 0x2 SWAP3 SSTORE LT ISZERO SWAP1 DUP2 PUSH2 0x1712 JUMPI JUMPDEST DUP2 PUSH2 0x1702 JUMPI JUMPDEST POP PUSH2 0x16EC JUMPI JUMPDEST PUSH1 0x2 PUSH1 0x15 DUP3 ADD SLOAD LT ISZERO SWAP1 DUP2 PUSH2 0x16C9 JUMPI JUMPDEST DUP2 PUSH2 0x16BA JUMPI JUMPDEST POP PUSH2 0x16A9 JUMPI JUMPDEST DUP4 DUP1 PUSH2 0x15C8 JUMP JUMPDEST PUSH2 0x16B5 PUSH1 0x47 SLOAD DUP5 PUSH2 0x30BB JUMP JUMPDEST PUSH2 0x16A2 JUMP JUMPDEST PUSH1 0xF SWAP2 POP PUSH1 0x6 ADD SLOAD EQ DUP5 PUSH2 0x169C JUMP JUMPDEST SWAP1 POP PUSH1 0x13 DUP2 ADD SLOAD PUSH1 0x11 DUP3 ADD SLOAD SWAP1 PUSH4 0x2514300 DUP3 ADD DUP1 SWAP3 GT PUSH2 0x7E0 JUMPI GT ISZERO SWAP1 PUSH2 0x1696 JUMP JUMPDEST PUSH2 0x16FD PUSH1 0x4 DUP3 ADD SLOAD PUSH1 0x47 SLOAD SWAP1 PUSH2 0x30BB JUMP JUMPDEST PUSH2 0x1686 JUMP JUMPDEST PUSH1 0xF SWAP2 POP PUSH1 0x6 ADD SLOAD LT ISZERO DUP6 PUSH2 0x1680 JUMP JUMPDEST SWAP1 POP PUSH1 0x11 DUP2 ADD SLOAD PUSH4 0x2514300 DUP2 ADD DUP1 SWAP2 GT PUSH2 0x7E0 JUMPI TIMESTAMP GT ISZERO SWAP1 PUSH2 0x167A JUMP JUMPDEST TIMESTAMP PUSH1 0x12 DUP3 ADD SSTORE PUSH0 DUP6 DUP2 MSTORE PUSH1 0x10 PUSH1 0x20 MSTORE PUSH1 0x40 DUP1 DUP3 KECCAK256 DUP5 SLOAD DUP4 MSTORE SWAP2 KECCAK256 PUSH1 0x14 DUP2 ADD DUP1 SLOAD PUSH1 0x1 DUP2 ADD SWAP1 DUP2 LT PUSH2 0x7E0 JUMPI DUP1 PUSH1 0x5 SWAP3 SSTORE LT ISZERO SWAP1 DUP2 PUSH2 0x17F9 JUMPI JUMPDEST DUP2 PUSH2 0x17E9 JUMPI JUMPDEST POP PUSH2 0x17D3 JUMPI JUMPDEST PUSH1 0x5 PUSH1 0x14 DUP3 ADD SLOAD LT ISZERO SWAP1 DUP2 PUSH2 0x17B1 JUMPI JUMPDEST DUP2 PUSH2 0x17A2 JUMPI JUMPDEST POP ISZERO PUSH2 0x15BF JUMPI PUSH2 0x179D PUSH1 0x40 SLOAD DUP7 PUSH2 0x2F25 JUMP JUMPDEST PUSH2 0x15BF JUMP JUMPDEST PUSH1 0xA SWAP2 POP PUSH1 0x6 ADD SLOAD EQ DUP7 PUSH2 0x178B JUMP JUMPDEST SWAP1 POP PUSH1 0x12 DUP2 ADD SLOAD PUSH1 0x11 DUP3 ADD SLOAD SWAP1 PUSH3 0x83D600 DUP3 ADD DUP1 SWAP3 GT PUSH2 0x7E0 JUMPI GT ISZERO SWAP1 PUSH2 0x1785 JUMP JUMPDEST PUSH2 0x17E4 PUSH1 0x4 DUP3 ADD SLOAD PUSH1 0x40 SLOAD SWAP1 PUSH2 0x2F25 JUMP JUMPDEST PUSH2 0x1775 JUMP JUMPDEST PUSH1 0xA SWAP2 POP PUSH1 0x6 ADD SLOAD LT ISZERO DUP8 PUSH2 0x176F JUMP JUMPDEST SWAP1 POP PUSH1 0x11 DUP2 ADD SLOAD PUSH3 0x83D600 DUP2 ADD DUP1 SWAP2 GT PUSH2 0x7E0 JUMPI TIMESTAMP GT ISZERO SWAP1 PUSH2 0x1769 JUMP JUMPDEST PUSH2 0x182E SWAP1 PUSH1 0x20 RETURNDATASIZE PUSH1 0x20 GT PUSH2 0x9A9 JUMPI PUSH2 0x99C DUP2 DUP4 PUSH2 0x23F2 JUMP JUMPDEST PUSH2 0x1449 JUMP JUMPDEST PUSH1 0x40 MLOAD PUSH3 0x461BCD PUSH1 0xE5 SHL DUP2 MSTORE PUSH1 0x20 PUSH1 0x4 DUP3 ADD MSTORE PUSH1 0x14 PUSH1 0x24 DUP3 ADD MSTORE PUSH20 0x105B1C9958591E48185D081B585E081B195D995B PUSH1 0x62 SHL PUSH1 0x44 DUP3 ADD MSTORE PUSH1 0x64 SWAP1 REVERT JUMPDEST CALLVALUE PUSH2 0x37D JUMPI PUSH1 0x20 CALLDATASIZE PUSH1 0x3 NOT ADD SLT PUSH2 0x37D JUMPI PUSH1 0x4 CALLDATALOAD PUSH0 MSTORE PUSH1 0x45 PUSH1 0x20 MSTORE PUSH1 0x40 PUSH0 KECCAK256 DUP1 SLOAD PUSH2 0xB10 PUSH1 0x1 DUP4 ADD SLOAD SWAP3 PUSH1 0xFF PUSH1 0x4 PUSH1 0x2 DUP4 ADD SLOAD SWAP3 ADD SLOAD AND SWAP1 PUSH1 0x40 MLOAD SWAP5 DUP6 SWAP5 DUP6 SWAP3 PUSH1 0x60 SWAP3 SWAP6 SWAP5 SWAP2 SWAP6 PUSH1 0x80 DUP6 ADD SWAP7 DUP6 MSTORE PUSH1 0x20 DUP6 ADD MSTORE PUSH1 0x40 DUP5 ADD MSTORE ISZERO ISZERO SWAP2 ADD MSTORE JUMP JUMPDEST CALLVALUE PUSH2 0x37D JUMPI PUSH0 CALLDATASIZE PUSH1 0x3 NOT ADD SLT PUSH2 0x37D JUMPI PUSH1 0x20 PUSH1 0x40 MLOAD PUSH3 0x2A300 DUP2 MSTORE RETURN JUMPDEST CALLVALUE PUSH2 0x37D JUMPI PUSH1 0x20 CALLDATASIZE PUSH1 0x3 NOT ADD SLT PUSH2 0x37D JUMPI PUSH1 0x4 CALLDATALOAD PUSH1 0x7 SLOAD DUP2 LT ISZERO PUSH2 0x37D JUMPI PUSH1 0x7 SLOAD DUP2 LT ISZERO PUSH2 0x441 JUMPI PUSH1 0x7 PUSH0 MSTORE PUSH32 0xA66CC928B5EDB82AF9BD49922954155AB7B0942694BEA4CE44661D9A8736C688 ADD SLOAD PUSH1 0x40 MLOAD SWAP1 DUP2 MSTORE PUSH1 0x20 SWAP1 RETURN JUMPDEST PUSH2 0x1F48 JUMP JUMPDEST CALLVALUE PUSH2 0x37D JUMPI PUSH1 0x20 CALLDATASIZE PUSH1 0x3 NOT ADD SLT PUSH2 0x37D JUMPI PUSH1 0x4 CALLDATALOAD PUSH0 MSTORE PUSH1 0x10 PUSH1 0x20 MSTORE PUSH1 0x40 PUSH0 KECCAK256 PUSH2 0x180 MSTORE PUSH1 0x1 DUP1 PUSH1 0xA0 SHL SUB PUSH2 0x180 MLOAD SLOAD AND PUSH1 0x2 PUSH2 0x180 MLOAD ADD SLOAD PUSH2 0x100 MSTORE PUSH1 0x3 PUSH2 0x180 MLOAD ADD SLOAD PUSH2 0x140 MSTORE PUSH1 0x4 PUSH2 0x180 MLOAD ADD SLOAD PUSH1 0x5 PUSH2 0x180 MLOAD ADD SLOAD PUSH1 0x6 PUSH2 0x180 MLOAD ADD SLOAD PUSH1 0x7 PUSH2 0x180 MLOAD ADD SLOAD PUSH1 0x8 PUSH2 0x180 MLOAD ADD SLOAD PUSH1 0x9 PUSH2 0x180 MLOAD ADD SLOAD PUSH1 0xA PUSH2 0x180 MLOAD ADD SLOAD SWAP1 PUSH1 0xB PUSH2 0x180 MLOAD ADD SLOAD SWAP3 PUSH1 0xC PUSH2 0x180 MLOAD ADD SLOAD SWAP5 PUSH1 0xD PUSH2 0x180 MLOAD ADD SLOAD SWAP7 PUSH1 0xE PUSH2 0x180 MLOAD ADD SLOAD SWAP9 PUSH1 0xF PUSH2 0x180 MLOAD ADD SLOAD SWAP11 PUSH1 0x10 PUSH2 0x180 MLOAD ADD SLOAD SWAP13 PUSH1 0x11 PUSH2 0x180 MLOAD ADD SLOAD PUSH1 0x80 MSTORE PUSH1 0x12 PUSH2 0x180 MLOAD ADD SLOAD PUSH1 0xC0 MSTORE PUSH1 0x13 PUSH2 0x180 MLOAD ADD SLOAD PUSH2 0x160 MSTORE PUSH1 0x14 PUSH2 0x180 MLOAD ADD SLOAD PUSH2 0x120 MSTORE PUSH1 0x15 PUSH2 0x180 MLOAD ADD SLOAD PUSH1 0xE0 MSTORE PUSH1 0x40 MLOAD PUSH1 0xA0 MSTORE PUSH1 0xA0 MLOAD MSTORE PUSH2 0x100 MLOAD PUSH1 0x20 PUSH1 0xA0 MLOAD ADD MSTORE PUSH2 0x140 MLOAD PUSH1 0x40 PUSH1 0xA0 MLOAD ADD MSTORE PUSH1 0x60 PUSH1 0xA0 MLOAD ADD MSTORE PUSH1 0x80 PUSH1 0xA0 MLOAD ADD MSTORE PUSH1 0xA0 DUP1 MLOAD ADD MSTORE PUSH1 0xC0 PUSH1 0xA0 MLOAD ADD MSTORE PUSH1 0xE0 PUSH1 0xA0 MLOAD ADD MSTORE PUSH2 0x100 PUSH1 0xA0 MLOAD ADD MSTORE PUSH2 0x120 PUSH1 0xA0 MLOAD ADD MSTORE PUSH2 0x140 PUSH1 0xA0 MLOAD ADD MSTORE PUSH2 0x160 PUSH1 0xA0 MLOAD ADD MSTORE PUSH2 0x180 PUSH1 0xA0 MLOAD ADD MSTORE PUSH2 0x1A0 PUSH1 0xA0 MLOAD ADD MSTORE PUSH2 0x1C0 PUSH1 0xA0 MLOAD ADD MSTORE PUSH2 0x1E0 PUSH1 0xA0 MLOAD ADD MSTORE PUSH1 0x80 MLOAD PUSH2 0x200 PUSH1 0xA0 MLOAD ADD MSTORE PUSH1 0xC0 MLOAD PUSH2 0x220 PUSH1 0xA0 MLOAD ADD MSTORE PUSH2 0x160 MLOAD PUSH2 0x240 PUSH1 0xA0 MLOAD ADD MSTORE PUSH2 0x120 MLOAD PUSH2 0x260 PUSH1 0xA0 MLOAD ADD MSTORE PUSH1 0xE0 MLOAD PUSH2 0x280 PUSH1 0xA0 MLOAD ADD MSTORE PUSH2 0x2A0 PUSH1 0xA0 MLOAD RETURN JUMPDEST CALLVALUE PUSH2 0x37D JUMPI PUSH0 CALLDATASIZE PUSH1 0x3 NOT ADD SLT PUSH2 0x37D JUMPI PUSH1 0x20 PUSH1 0x40 MLOAD PUSH8 0xDE0B6B3A7640000 DUP2 MSTORE RETURN JUMPDEST CALLVALUE PUSH2 0x37D JUMPI PUSH0 CALLDATASIZE PUSH1 0x3 NOT ADD SLT PUSH2 0x37D JUMPI PUSH1 0x20 PUSH1 0x40 MLOAD PUSH3 0x15180 DUP2 MSTORE RETURN JUMPDEST CALLVALUE PUSH2 0x37D JUMPI PUSH0 CALLDATASIZE PUSH1 0x3 NOT ADD SLT PUSH2 0x37D JUMPI PUSH1 0x20 PUSH1 0x40 MLOAD PUSH1 0x2 DUP2 MSTORE RETURN JUMPDEST CALLVALUE PUSH2 0x37D JUMPI PUSH0 CALLDATASIZE PUSH1 0x3 NOT ADD SLT PUSH2 0x37D JUMPI PUSH1 0x20 PUSH1 0x3B SLOAD PUSH1 0x40 MLOAD SWAP1 DUP2 MSTORE RETURN JUMPDEST CALLVALUE PUSH2 0x37D JUMPI PUSH0 CALLDATASIZE PUSH1 0x3 NOT ADD SLT PUSH2 0x37D JUMPI PUSH1 0x1 SLOAD PUSH1 0x40 MLOAD PUSH1 0x1 PUSH1 0x1 PUSH1 0xA0 SHL SUB SWAP1 SWAP2 AND DUP2 MSTORE PUSH1 0x20 SWAP1 RETURN JUMPDEST CALLVALUE PUSH2 0x37D JUMPI PUSH1 0x20 CALLDATASIZE PUSH1 0x3 NOT ADD SLT PUSH2 0x37D JUMPI PUSH1 0x4 CALLDATALOAD PUSH1 0x44 SLOAD DUP2 LT ISZERO PUSH2 0x37D JUMPI PUSH1 0x44 SLOAD DUP2 LT ISZERO PUSH2 0x441 JUMPI PUSH1 0x44 PUSH0 MSTORE PUSH32 0x9B22D3D61959B4D3528B1D8BA932C96FBE302B36A1AAD1D95CAB54F9E0A135EA ADD SLOAD PUSH1 0x40 MLOAD SWAP1 DUP2 MSTORE PUSH1 0x20 SWAP1 RETURN JUMPDEST CALLVALUE PUSH2 0x37D JUMPI PUSH0 CALLDATASIZE PUSH1 0x3 NOT ADD SLT PUSH2 0x37D JUMPI PUSH1 0x20 PUSH1 0x40 MLOAD PUSH3 0x278D00 DUP2 MSTORE RETURN JUMPDEST CALLVALUE PUSH2 0x37D JUMPI PUSH1 0x20 CALLDATASIZE PUSH1 0x3 NOT ADD SLT PUSH2 0x37D JUMPI PUSH1 0x4 CALLDATALOAD PUSH1 0x17 SLOAD DUP2 LT ISZERO PUSH2 0x37D JUMPI PUSH1 0x17 SLOAD DUP2 LT ISZERO PUSH2 0x441 JUMPI PUSH1 0x17 PUSH0 MSTORE PUSH32 0xC624B66CC0138B8FABC209247F72D758E1CF3343756D543BADBF24212BED8C15 ADD SLOAD PUSH1 0x40 MLOAD SWAP1 DUP2 MSTORE PUSH1 0x20 SWAP1 RETURN JUMPDEST CALLVALUE PUSH2 0x37D JUMPI PUSH1 0x20 CALLDATASIZE PUSH1 0x3 NOT ADD SLT PUSH2 0x37D JUMPI PUSH1 0x4 CALLDATALOAD PUSH1 0x7 DUP2 LT ISZERO PUSH2 0x37D JUMPI PUSH1 0x20 SWAP1 PUSH1 0x18 ADD SLOAD PUSH1 0x40 MLOAD SWAP1 DUP2 MSTORE RETURN JUMPDEST CALLVALUE PUSH2 0x37D JUMPI PUSH2 0x1CB0 PUSH2 0x1CAA CALLDATASIZE PUSH2 0x1E5E JUMP JUMPDEST SWAP1 PUSH2 0x1FCD JUMP JUMPDEST STOP JUMPDEST CALLVALUE PUSH2 0x37D JUMPI PUSH2 0x1CC0 CALLDATASIZE PUSH2 0x1E5E JUMP JUMPDEST SWAP1 PUSH0 MSTORE PUSH1 0x33 PUSH1 0x20 MSTORE PUSH1 0x40 PUSH0 KECCAK256 DUP1 SLOAD DUP3 LT ISZERO PUSH2 0x37D JUMPI PUSH1 0x20 SWAP2 PUSH2 0x3B0 SWAP2 PUSH2 0x1EFE JUMP JUMPDEST CALLVALUE PUSH2 0x37D JUMPI PUSH2 0x1CEF CALLDATASIZE PUSH2 0x1F13 JUMP JUMPDEST SWAP2 PUSH0 MSTORE PUSH1 0x36 PUSH1 0x20 MSTORE PUSH1 0x40 PUSH0 KECCAK256 SWAP1 PUSH0 MSTORE PUSH1 0x20 MSTORE PUSH1 0x40 PUSH0 KECCAK256 DUP1 SLOAD DUP3 LT ISZERO PUSH2 0x37D JUMPI PUSH1 0x20 SWAP2 PUSH2 0x3B0 SWAP2 PUSH2 0x1EFE JUMP JUMPDEST CALLVALUE PUSH2 0x37D JUMPI PUSH2 0x1D28 CALLDATASIZE PUSH2 0x1E5E JUMP JUMPDEST SWAP1 PUSH0 MSTORE PUSH1 0x3D PUSH1 0x20 MSTORE PUSH1 0x40 PUSH0 KECCAK256 DUP1 SLOAD DUP3 LT ISZERO PUSH2 0x37D JUMPI PUSH1 0x20 SWAP2 PUSH2 0x3B0 SWAP2 PUSH2 0x1EFE JUMP JUMPDEST CALLVALUE PUSH2 0x37D JUMPI PUSH1 0x20 CALLDATASIZE PUSH1 0x3 NOT ADD SLT PUSH2 0x37D JUMPI PUSH1 0x4 CALLDATALOAD PUSH0 MSTORE PUSH1 0xC PUSH1 0x20 MSTORE PUSH1 0x20 PUSH1 0x40 PUSH0 KECCAK256 SLOAD PUSH1 0x40 MLOAD SWAP1 DUP2 MSTORE RETURN JUMPDEST CALLVALUE PUSH2 0x37D JUMPI PUSH1 0x20 CALLDATASIZE PUSH1 0x3 NOT ADD SLT PUSH2 0x37D JUMPI PUSH1 0x4 CALLDATALOAD PUSH0 MSTORE PUSH1 0x4A PUSH1 0x20 MSTORE PUSH1 0x40 PUSH0 KECCAK256 DUP1 SLOAD PUSH2 0xB10 PUSH1 0x1 DUP4 ADD SLOAD SWAP3 PUSH1 0x2 DUP2 ADD SLOAD SWAP1 PUSH1 0x3 DUP2 ADD SLOAD PUSH1 0x4 DUP3 ADD SLOAD PUSH1 0x5 DUP4 ADD SLOAD SWAP1 PUSH1 0x6 DUP5 ADD SLOAD SWAP3 PUSH1 0xFF PUSH1 0x8 PUSH1 0x7 DUP8 ADD SLOAD SWAP7 ADD SLOAD AND SWAP6 PUSH1 0x40 MLOAD SWAP10 DUP11 SWAP10 DUP11 PUSH2 0x1E74 JUMP JUMPDEST CALLVALUE PUSH2 0x37D JUMPI PUSH0 CALLDATASIZE PUSH1 0x3 NOT ADD SLT PUSH2 0x37D JUMPI PUSH1 0x20 PUSH1 0x40 MLOAD PUSH2 0x2710 DUP2 MSTORE RETURN JUMPDEST CALLVALUE PUSH2 0x37D JUMPI PUSH2 0x1DFD CALLDATASIZE PUSH2 0x1E5E JUMP JUMPDEST SWAP1 PUSH0 MSTORE PUSH1 0x3E PUSH1 0x20 MSTORE PUSH1 0x40 PUSH0 KECCAK256 SWAP1 PUSH0 MSTORE PUSH1 0x20 MSTORE DUP1 PUSH2 0xB10 PUSH1 0x40 PUSH0 KECCAK256 DUP1 SLOAD PUSH1 0x1 DUP3 ADD SLOAD SWAP2 PUSH1 0x3 PUSH1 0x2 DUP3 ADD SLOAD SWAP2 ADD SLOAD SWAP3 PUSH1 0xFF DUP1 DUP6 PUSH1 0x8 SHR AND SWAP5 AND SWAP3 DUP7 SWAP4 SWAP1 SWAP6 SWAP5 SWAP2 SWAP3 PUSH1 0x80 SWAP4 PUSH1 0xA0 DUP7 ADD SWAP8 DUP7 MSTORE PUSH1 0x20 DUP7 ADD MSTORE PUSH1 0x40 DUP6 ADD MSTORE ISZERO ISZERO PUSH1 0x60 DUP5 ADD MSTORE ISZERO ISZERO SWAP2 ADD MSTORE JUMP JUMPDEST PUSH1 0x40 SWAP1 PUSH1 0x3 NOT ADD SLT PUSH2 0x37D JUMPI PUSH1 0x4 CALLDATALOAD SWAP1 PUSH1 0x24 CALLDATALOAD SWAP1 JUMP JUMPDEST SWAP8 SWAP5 SWAP2 SWAP3 PUSH2 0x100 SWAP8 SWAP5 SWAP2 SWAP11 SWAP10 SWAP7 SWAP4 PUSH2 0x120 DUP11 ADD SWAP12 DUP11 MSTORE PUSH1 0x20 DUP11 ADD MSTORE PUSH1 0x40 DUP10 ADD MSTORE PUSH1 0x60 DUP9 ADD MSTORE PUSH1 0x80 DUP8 ADD MSTORE PUSH1 0xA0 DUP7 ADD MSTORE PUSH1 0xC0 DUP6 ADD MSTORE PUSH1 0xE0 DUP5 ADD MSTORE ISZERO ISZERO SWAP2 ADD MSTORE JUMP JUMPDEST PUSH1 0xD SLOAD DUP2 LT ISZERO PUSH2 0x441 JUMPI PUSH1 0xD PUSH0 MSTORE PUSH1 0x20 PUSH0 KECCAK256 ADD SWAP1 PUSH0 SWAP1 JUMP JUMPDEST PUSH1 0xD SLOAD ISZERO PUSH2 0x441 JUMPI PUSH1 0xD PUSH0 SWAP1 DUP2 MSTORE PUSH32 0xD7B6990105719101DABEB77144F2A3385C8033ACD3AF97E9423A695E81AD1EB5 SWAP2 JUMP JUMPDEST DUP1 SLOAD DUP3 LT ISZERO PUSH2 0x441 JUMPI PUSH0 MSTORE PUSH1 0x20 PUSH0 KECCAK256 ADD SWAP1 PUSH0 SWAP1 JUMP JUMPDEST PUSH1 0x60 SWAP1 PUSH1 0x3 NOT ADD SLT PUSH2 0x37D JUMPI PUSH1 0x4 CALLDATALOAD SWAP1 PUSH1 0x24 CALLDATALOAD SWAP1 PUSH1 0x44 CALLDATALOAD SWAP1 JUMP JUMPDEST CALLVALUE PUSH2 0x37D JUMPI PUSH0 CALLDATASIZE PUSH1 0x3 NOT ADD SLT PUSH2 0x37D JUMPI PUSH1 0x20 PUSH1 0x40 MLOAD PUSH1 0xA DUP2 MSTORE RETURN JUMPDEST CALLVALUE PUSH2 0x37D JUMPI PUSH0 CALLDATASIZE PUSH1 0x3 NOT ADD SLT PUSH2 0x37D JUMPI PUSH1 0x20 PUSH1 0x40 MLOAD PUSH1 0xF DUP2 MSTORE RETURN JUMPDEST ISZERO PUSH2 0x1F6A JUMPI JUMP JUMPDEST PUSH1 0x40 MLOAD PUSH3 0x461BCD PUSH1 0xE5 SHL DUP2 MSTORE PUSH1 0x20 PUSH1 0x4 DUP3 ADD MSTORE PUSH1 0x10 PUSH1 0x24 DUP3 ADD MSTORE PUSH16 0x139BDD081E5BDD5C881858D8DBDD5B9D PUSH1 0x82 SHL PUSH1 0x44 DUP3 ADD MSTORE PUSH1 0x64 SWAP1 REVERT JUMPDEST SWAP2 SWAP1 DUP3 SUB SWAP2 DUP3 GT PUSH2 0x7E0 JUMPI JUMP JUMPDEST DUP2 ISZERO PUSH2 0x1FB9 JUMPI DIV SWAP1 JUMP JUMPDEST PUSH4 0x4E487B71 PUSH1 0xE0 SHL PUSH0 MSTORE PUSH1 0x12 PUSH1 0x4 MSTORE PUSH1 0x24 PUSH0 REVERT JUMPDEST SWAP1 DUP2 PUSH0 MSTORE PUSH1 0x10 PUSH1 0x20 MSTORE PUSH1 0x40 PUSH0 KECCAK256 PUSH1 0x3 DUP2 ADD SLOAD ISZERO PUSH2 0x23BC JUMPI SLOAD PUSH2 0x1FF9 SWAP1 PUSH1 0x1 PUSH1 0x1 PUSH1 0xA0 SHL SUB AND CALLER EQ PUSH2 0x1F63 JUMP JUMPDEST DUP2 PUSH0 MSTORE PUSH1 0xE PUSH1 0x20 MSTORE PUSH1 0x40 PUSH0 KECCAK256 DUP2 PUSH0 MSTORE PUSH1 0x20 MSTORE PUSH1 0xFF PUSH1 0x3 PUSH1 0x40 PUSH0 KECCAK256 ADD SLOAD AND ISZERO PUSH2 0x2385 JUMPI DUP2 PUSH0 MSTORE PUSH1 0xE PUSH1 0x20 MSTORE PUSH1 0x40 PUSH0 KECCAK256 DUP2 PUSH0 MSTORE PUSH1 0x20 MSTORE PUSH1 0xFF PUSH1 0x3 PUSH1 0x40 PUSH0 KECCAK256 ADD SLOAD PUSH1 0x8 SHR AND PUSH2 0x234F JUMPI DUP1 PUSH0 MSTORE PUSH1 0xA PUSH1 0x20 MSTORE PUSH1 0x40 PUSH0 KECCAK256 SLOAD SWAP2 DUP2 PUSH0 MSTORE PUSH1 0xB PUSH1 0x20 MSTORE PUSH1 0x40 PUSH0 KECCAK256 DUP2 PUSH0 MSTORE PUSH1 0x20 MSTORE PUSH1 0x40 PUSH0 KECCAK256 SLOAD DUP1 DUP5 EQ PUSH2 0x2349 JUMPI PUSH2 0x207E PUSH8 0xDE0B6B3A7640000 SWAP2 DUP6 PUSH2 0x1FA2 JUMP JUMPDEST DIV SWAP2 DUP3 ISZERO PUSH2 0x232E JUMPI PUSH2 0x2090 DUP4 DUP4 PUSH2 0x250B JUMP JUMPDEST SWAP4 DUP2 PUSH0 MSTORE PUSH1 0xB PUSH1 0x20 MSTORE PUSH1 0x40 PUSH0 KECCAK256 DUP4 PUSH0 MSTORE PUSH1 0x20 MSTORE PUSH1 0x40 PUSH0 KECCAK256 SSTORE DUP4 ISZERO SWAP2 DUP3 ISZERO PUSH2 0x20CF JUMPI JUMPDEST POP POP POP DUP2 DUP2 GT PUSH2 0x20C0 JUMPI POP POP JUMP JUMPDEST PUSH2 0x20CD SWAP2 PUSH2 0x71A SWAP2 PUSH2 0x1FA2 JUMP JUMPDEST JUMP JUMPDEST PUSH0 DUP2 DUP2 MSTORE PUSH1 0x10 PUSH1 0x20 MSTORE PUSH1 0x40 SWAP1 KECCAK256 DUP1 SLOAD PUSH1 0x1 PUSH1 0x1 PUSH1 0xA0 SHL SUB AND SWAP7 SWAP1 SWAP6 SWAP2 SWAP4 SWAP1 SWAP3 SWAP1 DUP8 ISZERO PUSH2 0x22FA JUMPI PUSH2 0x22C7 JUMPI DUP4 PUSH0 MSTORE PUSH1 0x11 PUSH1 0x20 MSTORE PUSH1 0x40 PUSH0 KECCAK256 PUSH2 0x2110 DUP4 DUP3 SLOAD PUSH2 0x2440 JUMP JUMPDEST DUP2 SSTORE PUSH1 0x6 DUP2 ADD PUSH2 0x2121 DUP5 DUP3 SLOAD PUSH2 0x2440 JUMP JUMPDEST SWAP1 SSTORE SLOAD SWAP3 PUSH1 0xB DUP8 ADD SLOAD SWAP3 PUSH1 0x6 PUSH0 SWAP9 ADD SWAP8 JUMPDEST DUP9 SLOAD DUP2 LT ISZERO PUSH2 0x22BA JUMPI PUSH2 0x2144 DUP2 PUSH2 0x1EB4 JUMP JUMPDEST SWAP1 SLOAD SWAP1 PUSH1 0x3 SHL SHR SWAP6 DUP8 PUSH0 MSTORE PUSH1 0xE PUSH1 0x20 MSTORE PUSH1 0x40 PUSH0 KECCAK256 DUP8 PUSH0 MSTORE PUSH1 0x20 MSTORE PUSH1 0x40 PUSH0 KECCAK256 SWAP1 PUSH1 0x3 DUP3 ADD PUSH1 0xFF DUP2 SLOAD PUSH1 0x8 SHR AND DUP1 ISZERO SWAP1 DUP2 DUP1 SWAP3 PUSH2 0x22A4 JUMPI JUMPDEST ISZERO PUSH2 0x21D3 JUMPI POP POP DUP1 SLOAD PUSH2 0xFF00 NOT AND PUSH2 0x100 OR SWAP1 SSTORE PUSH2 0x21AE SWAP2 SWAP1 DUP8 PUSH1 0xA PUSH2 0x21A0 DUP3 DUP13 PUSH2 0x244D JUMP JUMPDEST DIV SWAP3 DUP4 PUSH1 0x2 DUP3 ADD SSTORE SSTORE PUSH2 0x1FA2 JUMP JUMPDEST SWAP6 PUSH0 MSTORE PUSH1 0xC PUSH1 0x20 MSTORE PUSH1 0x40 PUSH0 KECCAK256 SWAP1 DUP2 SLOAD PUSH0 NOT DUP2 ADD SWAP1 DUP2 GT PUSH2 0x7E0 JUMPI PUSH1 0x1 SWAP3 SSTORE JUMPDEST ADD PUSH2 0x2132 JUMP JUMPDEST DUP1 SWAP2 SWAP4 SWAP6 SWAP11 SWAP3 POP SWAP1 PUSH2 0x228F JUMPI JUMPDEST ISZERO PUSH2 0x21FE JUMPI POP POP PUSH1 0x1 SWAP2 PUSH1 0x2 PUSH2 0x21F8 SWAP3 ADD SLOAD SWAP1 PUSH2 0x1FA2 JUMP JUMPDEST SWAP6 PUSH2 0x21CD JUMP JUMPDEST SWAP3 SWAP8 SWAP3 DUP8 SWAP1 DUP3 PUSH2 0x2277 JUMPI JUMPDEST POP POP PUSH2 0x2218 JUMPI POP PUSH1 0x1 SWAP1 PUSH2 0x21CD JUMP JUMPDEST SWAP2 SWAP9 POP POP PUSH1 0x1 SWAP2 SWAP9 SWAP4 POP SWAP4 SWAP2 SWAP4 ADD SSTORE JUMPDEST PUSH1 0x1 SLOAD PUSH2 0x2241 SWAP1 DUP7 SWAP1 DUP4 SWAP1 PUSH1 0x1 PUSH1 0x1 PUSH1 0xA0 SHL SUB AND PUSH2 0x31F5 JUMP JUMPDEST PUSH1 0x40 MLOAD DUP6 DUP2 MSTORE PUSH1 0x20 DUP2 ADD SWAP3 SWAP1 SWAP3 MSTORE PUSH0 MLOAD PUSH1 0x20 PUSH2 0x3376 PUSH0 CODECOPY PUSH0 MLOAD SWAP1 PUSH0 MSTORE PUSH1 0x80 DUP4 PUSH1 0x4 PUSH1 0x40 DUP8 SWAP7 ADD MSTORE TIMESTAMP PUSH1 0x60 DUP3 ADD MSTORE LOG4 PUSH0 DUP1 DUP1 PUSH2 0x20B2 JUMP JUMPDEST PUSH1 0xA SWAP3 POP SWAP1 PUSH2 0x2285 SWAP2 PUSH2 0x244D JUMP JUMPDEST DIV DUP8 LT DUP7 PUSH0 PUSH2 0x2209 JUMP JUMPDEST POP PUSH1 0xA PUSH2 0x229C DUP10 DUP4 PUSH2 0x244D JUMP JUMPDEST DIV DUP5 GT PUSH2 0x21E0 JUMP JUMPDEST POP PUSH1 0xA PUSH2 0x22B1 DUP12 DUP14 PUSH2 0x244D JUMP JUMPDEST DIV DUP5 LT ISZERO PUSH2 0x217A JUMP JUMPDEST POP SWAP7 POP SWAP7 SWAP2 POP SWAP2 POP PUSH2 0x2228 JUMP JUMPDEST PUSH1 0x40 MLOAD PUSH3 0x461BCD PUSH1 0xE5 SHL DUP2 MSTORE PUSH1 0x20 PUSH1 0x4 DUP3 ADD MSTORE PUSH1 0xB PUSH1 0x24 DUP3 ADD MSTORE PUSH11 0x16995C9BC8185B5BDD5B9D PUSH1 0xAA SHL PUSH1 0x44 DUP3 ADD MSTORE PUSH1 0x64 SWAP1 REVERT JUMPDEST PUSH1 0x40 MLOAD PUSH3 0x461BCD PUSH1 0xE5 SHL DUP2 MSTORE PUSH1 0x20 PUSH1 0x4 DUP3 ADD MSTORE PUSH1 0xC PUSH1 0x24 DUP3 ADD MSTORE PUSH12 0x24B73B30B634B2103AB9B2B9 PUSH1 0xA1 SHL PUSH1 0x44 DUP3 ADD MSTORE PUSH1 0x64 SWAP1 REVERT JUMPDEST SWAP1 SWAP2 POP PUSH0 MSTORE PUSH1 0xB PUSH1 0x20 MSTORE PUSH1 0x40 PUSH0 KECCAK256 SWAP1 PUSH0 MSTORE PUSH1 0x20 MSTORE PUSH1 0x40 PUSH0 KECCAK256 SSTORE JUMP JUMPDEST POP POP POP POP JUMP JUMPDEST PUSH1 0x40 MLOAD PUSH3 0x461BCD PUSH1 0xE5 SHL DUP2 MSTORE PUSH1 0x20 PUSH1 0x4 DUP3 ADD MSTORE PUSH1 0xE PUSH1 0x24 DUP3 ADD MSTORE PUSH14 0x141858DAD859D94810DB1BDCD959 PUSH1 0x92 SHL PUSH1 0x44 DUP3 ADD MSTORE PUSH1 0x64 SWAP1 REVERT JUMPDEST PUSH1 0x40 MLOAD PUSH3 0x461BCD PUSH1 0xE5 SHL DUP2 MSTORE PUSH1 0x20 PUSH1 0x4 DUP3 ADD MSTORE PUSH1 0xF PUSH1 0x24 DUP3 ADD MSTORE PUSH15 0x496E76616C6964207061636B616765 PUSH1 0x88 SHL PUSH1 0x44 DUP3 ADD MSTORE PUSH1 0x64 SWAP1 REVERT JUMPDEST PUSH1 0x40 MLOAD PUSH3 0x461BCD PUSH1 0xE5 SHL DUP2 MSTORE PUSH1 0x20 PUSH1 0x4 DUP3 ADD MSTORE PUSH1 0xE PUSH1 0x24 DUP3 ADD MSTORE PUSH14 0x155CD95C881B9BDD08199BDD5B99 PUSH1 0x92 SHL PUSH1 0x44 DUP3 ADD MSTORE PUSH1 0x64 SWAP1 REVERT JUMPDEST SWAP1 PUSH1 0x1F DUP1 NOT SWAP2 ADD AND DUP2 ADD SWAP1 DUP2 LT PUSH8 0xFFFFFFFFFFFFFFFF DUP3 GT OR PUSH2 0x2414 JUMPI PUSH1 0x40 MSTORE JUMP JUMPDEST PUSH4 0x4E487B71 PUSH1 0xE0 SHL PUSH0 MSTORE PUSH1 0x41 PUSH1 0x4 MSTORE PUSH1 0x24 PUSH0 REVERT JUMPDEST SWAP1 DUP2 PUSH1 0x20 SWAP2 SUB SLT PUSH2 0x37D JUMPI MLOAD DUP1 ISZERO ISZERO DUP2 SUB PUSH2 0x37D JUMPI SWAP1 JUMP JUMPDEST SWAP2 SWAP1 DUP3 ADD DUP1 SWAP3 GT PUSH2 0x7E0 JUMPI JUMP JUMPDEST DUP2 DUP2 MUL SWAP3 SWAP2 DUP2 ISZERO SWAP2 DUP5 DIV EQ OR ISZERO PUSH2 0x7E0 JUMPI JUMP JUMPDEST SWAP2 SWAP1 DUP3 PUSH0 MSTORE PUSH1 0x10 PUSH1 0x20 MSTORE PUSH1 0x3 PUSH1 0x40 PUSH0 KECCAK256 ADD SLOAD ISZERO PUSH2 0x24CF JUMPI DUP1 PUSH0 MSTORE PUSH1 0xA PUSH1 0x20 MSTORE PUSH1 0x40 PUSH0 KECCAK256 SLOAD SWAP1 PUSH0 MSTORE PUSH1 0xB PUSH1 0x20 MSTORE PUSH1 0x40 PUSH0 KECCAK256 DUP4 PUSH0 MSTORE PUSH1 0x20 MSTORE PUSH1 0x40 PUSH0 KECCAK256 SLOAD SWAP1 DUP2 DUP2 GT ISZERO PUSH2 0x24C5 JUMPI PUSH2 0x24BA PUSH2 0x24C2 SWAP3 PUSH8 0xDE0B6B3A7640000 SWAP3 PUSH2 0x1FA2 JUMP JUMPDEST DIV DUP1 SWAP4 PUSH2 0x250B JUMP JUMPDEST SWAP1 JUMP JUMPDEST POP POP SWAP1 POP PUSH0 SWAP1 PUSH0 SWAP1 JUMP JUMPDEST POP PUSH0 SWAP2 POP DUP2 SWAP1 JUMP JUMPDEST DUP1 SLOAD PUSH1 0x1 PUSH1 0x40 SHL DUP2 LT ISZERO PUSH2 0x2414 JUMPI PUSH2 0x24F4 SWAP2 PUSH1 0x1 DUP3 ADD DUP2 SSTORE PUSH2 0x1EFE JUMP JUMPDEST DUP2 SWAP3 SWAP2 SLOAD SWAP1 PUSH1 0x3 SHL SWAP2 DUP3 SHL SWAP2 PUSH0 NOT SWAP1 SHL NOT AND OR SWAP1 SSTORE JUMP JUMPDEST DUP1 PUSH0 MSTORE PUSH1 0x10 PUSH1 0x20 MSTORE PUSH1 0x40 PUSH0 KECCAK256 SWAP1 PUSH0 MSTORE PUSH1 0x11 PUSH1 0x20 MSTORE PUSH1 0xA PUSH2 0x2537 PUSH1 0x40 PUSH0 KECCAK256 SWAP3 DUP3 PUSH1 0xB DUP3 ADD SLOAD SWAP2 ADD SLOAD PUSH2 0x244D JUMP JUMPDEST DIV SWAP1 SLOAD DUP2 DUP2 LT ISZERO PUSH2 0x255D JUMPI PUSH2 0x254B SWAP2 PUSH2 0x1FA2 JUMP JUMPDEST SWAP1 DUP2 DUP2 GT ISZERO PUSH2 0x2558 JUMPI POP SWAP1 JUMP JUMPDEST SWAP1 POP SWAP1 JUMP JUMPDEST POP POP POP PUSH0 SWAP1 JUMP JUMPDEST SWAP2 SWAP1 SWAP3 SWAP4 DUP3 PUSH0 MSTORE PUSH1 0x10 PUSH1 0x20 MSTORE PUSH1 0x40 PUSH0 KECCAK256 SWAP4 PUSH1 0x1 DUP1 PUSH1 0xA0 SHL SUB DUP6 SLOAD AND SWAP3 DUP4 ISZERO PUSH2 0x22FA JUMPI DUP1 ISZERO PUSH2 0x22C7 JUMPI DUP5 PUSH0 MSTORE PUSH1 0x11 PUSH1 0x20 MSTORE PUSH1 0x40 PUSH0 KECCAK256 PUSH2 0x25A3 DUP3 DUP3 SLOAD PUSH2 0x2440 JUMP JUMPDEST DUP2 SSTORE PUSH1 0x1 DUP2 ADD PUSH2 0x25B4 DUP4 DUP3 SLOAD PUSH2 0x2440 JUMP JUMPDEST SWAP1 SSTORE SLOAD SWAP3 PUSH1 0xB DUP8 ADD SLOAD SWAP3 PUSH1 0x6 PUSH0 SWAP9 ADD SWAP8 JUMPDEST DUP9 SLOAD DUP2 LT ISZERO PUSH2 0x2735 JUMPI PUSH2 0x25D7 DUP2 PUSH2 0x1EB4 JUMP JUMPDEST SWAP1 SLOAD SWAP1 PUSH1 0x3 SHL SHR SWAP6 DUP9 PUSH0 MSTORE PUSH1 0xE PUSH1 0x20 MSTORE PUSH1 0x40 PUSH0 KECCAK256 DUP8 PUSH0 MSTORE PUSH1 0x20 MSTORE PUSH1 0x40 PUSH0 KECCAK256 SWAP1 PUSH1 0x3 DUP3 ADD PUSH1 0xFF DUP2 SLOAD PUSH1 0x8 SHR AND DUP1 ISZERO SWAP1 DUP2 DUP1 SWAP3 PUSH2 0x271F JUMPI JUMPDEST ISZERO PUSH2 0x2658 JUMPI POP POP DUP1 SLOAD PUSH2 0xFF00 NOT AND PUSH2 0x100 OR SWAP1 SSTORE PUSH2 0x2633 SWAP2 SWAP1 DUP8 PUSH1 0xA PUSH2 0x21A0 DUP3 DUP13 PUSH2 0x244D JUMP JUMPDEST SWAP6 PUSH0 MSTORE PUSH1 0xC PUSH1 0x20 MSTORE PUSH1 0x40 PUSH0 KECCAK256 SWAP1 DUP2 SLOAD PUSH0 NOT DUP2 ADD SWAP1 DUP2 GT PUSH2 0x7E0 JUMPI PUSH1 0x1 SWAP3 SSTORE JUMPDEST ADD PUSH2 0x25C5 JUMP JUMPDEST DUP1 SWAP2 SWAP4 SWAP6 SWAP11 SWAP3 POP SWAP1 PUSH2 0x270A JUMPI JUMPDEST ISZERO PUSH2 0x2683 JUMPI POP POP PUSH1 0x1 SWAP2 PUSH1 0x2 PUSH2 0x267D SWAP3 ADD SLOAD SWAP1 PUSH2 0x1FA2 JUMP JUMPDEST SWAP6 PUSH2 0x2652 JUMP JUMPDEST SWAP3 SWAP8 SWAP3 DUP8 SWAP1 DUP3 PUSH2 0x26F2 JUMPI JUMPDEST POP POP PUSH2 0x269D JUMPI POP PUSH1 0x1 SWAP1 PUSH2 0x2652 JUMP JUMPDEST SWAP2 SWAP9 POP POP PUSH1 0x1 SWAP2 SWAP9 SWAP4 POP SWAP4 SWAP2 SWAP4 ADD SSTORE JUMPDEST PUSH1 0x1 SLOAD PUSH2 0x26C6 SWAP1 DUP4 SWAP1 DUP6 SWAP1 PUSH1 0x1 PUSH1 0x1 PUSH1 0xA0 SHL SUB AND PUSH2 0x31F5 JUMP JUMPDEST PUSH1 0x40 MLOAD SWAP2 DUP3 MSTORE PUSH1 0x20 DUP3 ADD MSTORE PUSH1 0x80 DUP2 PUSH1 0x1 PUSH1 0x40 PUSH0 MLOAD PUSH1 0x20 PUSH2 0x3376 PUSH0 CODECOPY PUSH0 MLOAD SWAP1 PUSH0 MSTORE SWAP5 ADD MSTORE TIMESTAMP PUSH1 0x60 DUP3 ADD MSTORE LOG4 JUMP JUMPDEST PUSH1 0xA SWAP3 POP SWAP1 PUSH2 0x2700 SWAP2 PUSH2 0x244D JUMP JUMPDEST DIV DUP8 LT DUP7 PUSH0 PUSH2 0x268E JUMP JUMPDEST POP PUSH1 0xA PUSH2 0x2717 DUP10 DUP4 PUSH2 0x244D JUMP JUMPDEST DIV DUP5 GT PUSH2 0x2665 JUMP JUMPDEST POP PUSH1 0xA PUSH2 0x272C DUP12 DUP14 PUSH2 0x244D JUMP JUMPDEST DIV DUP5 LT ISZERO PUSH2 0x260D JUMP JUMPDEST POP SWAP7 POP SWAP7 SWAP2 POP SWAP2 POP PUSH2 0x26AD JUMP JUMPDEST PUSH1 0x2 SLOAD PUSH1 0x1 PUSH1 0x1 PUSH1 0xA0 SHL SUB AND SWAP1 DUP2 ISZERO PUSH2 0x27C5 JUMPI PUSH1 0x1 SLOAD PUSH1 0x80 SWAP3 PUSH2 0x2770 SWAP2 DUP4 SWAP2 SWAP1 PUSH1 0x1 PUSH1 0x1 PUSH1 0xA0 SHL SUB AND PUSH2 0x31F5 JUMP JUMPDEST PUSH1 0x5 SLOAD PUSH0 MSTORE PUSH1 0x11 PUSH1 0x20 MSTORE PUSH1 0x40 PUSH0 KECCAK256 PUSH2 0x2789 DUP3 DUP3 SLOAD PUSH2 0x2440 JUMP JUMPDEST SWAP1 SSTORE PUSH1 0x1 DUP1 PUSH1 0xA0 SHL SUB PUSH1 0x2 SLOAD AND PUSH0 MLOAD PUSH1 0x20 PUSH2 0x3376 PUSH0 CODECOPY PUSH0 MLOAD SWAP1 PUSH0 MSTORE PUSH1 0x5 SLOAD SWAP4 DUP5 SWAP4 PUSH1 0x40 MLOAD SWAP1 DUP2 MSTORE PUSH0 PUSH1 0x20 DUP3 ADD MSTORE PUSH0 PUSH1 0x40 DUP3 ADD MSTORE TIMESTAMP PUSH1 0x60 DUP3 ADD MSTORE LOG4 JUMP JUMPDEST PUSH1 0x40 MLOAD PUSH3 0x461BCD PUSH1 0xE5 SHL DUP2 MSTORE PUSH1 0x20 PUSH1 0x4 DUP3 ADD MSTORE PUSH1 0x11 PUSH1 0x24 DUP3 ADD MSTORE PUSH17 0x199959481859191C9CC81B9BDD081CD95D PUSH1 0x7A SHL PUSH1 0x44 DUP3 ADD MSTORE PUSH1 0x64 SWAP1 REVERT JUMPDEST SWAP1 PUSH0 MSTORE PUSH1 0xC PUSH1 0x20 MSTORE PUSH1 0x40 PUSH0 KECCAK256 SLOAD SWAP1 DUP2 ISZERO DUP1 ISZERO PUSH2 0x2867 JUMPI JUMPDEST PUSH2 0x2854 JUMPI PUSH8 0xDE0B6B3A7640000 DUP2 MUL SWAP1 DUP1 DUP3 DIV PUSH8 0xDE0B6B3A7640000 EQ SWAP1 ISZERO OR ISZERO PUSH2 0x7E0 JUMPI PUSH2 0x284F SWAP2 PUSH2 0x2847 SWAP2 PUSH2 0x1FAF JUMP JUMPDEST PUSH1 0x9 SLOAD PUSH2 0x2440 JUMP JUMPDEST PUSH1 0x9 SSTORE JUMP JUMPDEST DUP1 SWAP2 POP PUSH2 0x285E JUMPI POP JUMP JUMPDEST PUSH2 0x20CD SWAP1 PUSH2 0x2742 JUMP JUMPDEST POP DUP1 ISZERO PUSH2 0x2815 JUMP JUMPDEST DUP1 ISZERO DUP1 ISZERO PUSH2 0x2894 JUMPI JUMPDEST PUSH2 0x2889 JUMPI SWAP2 PUSH1 0x1 SWAP2 PUSH2 0x20CD SWAP4 PUSH2 0x2564 JUMP JUMPDEST POP POP PUSH2 0x20CD SWAP1 PUSH2 0x2742 JUMP JUMPDEST POP PUSH1 0x5 SLOAD DUP2 EQ PUSH2 0x2878 JUMP JUMPDEST SWAP3 SWAP2 SWAP1 DUP4 ISZERO DUP1 ISZERO PUSH2 0x28C5 JUMPI JUMPDEST PUSH2 0x28B8 JUMPI PUSH2 0x20CD SWAP4 PUSH2 0x2564 JUMP JUMPDEST POP SWAP1 POP PUSH2 0x20CD SWAP2 POP PUSH2 0x2742 JUMP JUMPDEST POP PUSH1 0x5 SLOAD DUP5 EQ PUSH2 0x28AB JUMP JUMPDEST PUSH0 NOT DUP2 EQ PUSH2 0x7E0 JUMPI PUSH1 0x1 ADD SWAP1 JUMP JUMPDEST SWAP3 SWAP2 SWAP3 PUSH1 0x5 SLOAD DUP2 EQ DUP1 ISZERO PUSH2 0x2B88 JUMPI JUMPDEST PUSH2 0x2B7C JUMPI PUSH1 0x1 JUMPDEST DUP4 DUP2 LT PUSH2 0x2B4B JUMPI POP PUSH0 SWAP1 JUMPDEST DUP1 ISZERO ISZERO DUP1 PUSH2 0x2B3F JUMPI JUMPDEST DUP1 PUSH2 0x2B35 JUMPI JUMPDEST ISZERO PUSH2 0x2B28 JUMPI DUP1 PUSH0 MSTORE PUSH1 0x10 PUSH1 0x20 MSTORE PUSH1 0x40 PUSH0 KECCAK256 SWAP1 DUP5 PUSH1 0x6 DUP4 ADD SLOAD LT ISZERO PUSH2 0x2941 JUMPI POP PUSH1 0x5 PUSH2 0x293B SWAP2 ADD SLOAD SWAP2 PUSH2 0x28D0 JUMP JUMPDEST SWAP1 PUSH2 0x28FF JUMP JUMPDEST PUSH0 DUP2 DUP2 MSTORE PUSH1 0x10 PUSH1 0x20 MSTORE PUSH1 0x40 SWAP1 KECCAK256 DUP1 SLOAD SWAP6 SWAP8 SWAP1 SWAP7 SWAP2 SWAP6 PUSH1 0x1 PUSH1 0x1 PUSH1 0xA0 SHL SUB AND SWAP5 SWAP1 SWAP4 POP SWAP2 POP DUP4 ISZERO PUSH2 0x22FA JUMPI DUP1 ISZERO PUSH2 0x22C7 JUMPI DUP5 PUSH0 MSTORE PUSH1 0x11 PUSH1 0x20 MSTORE PUSH1 0x40 PUSH0 KECCAK256 PUSH2 0x2988 DUP3 DUP3 SLOAD PUSH2 0x2440 JUMP JUMPDEST DUP2 SSTORE PUSH1 0x2 DUP2 ADD PUSH2 0x2999 DUP4 DUP3 SLOAD PUSH2 0x2440 JUMP JUMPDEST SWAP1 SSTORE SLOAD SWAP3 PUSH1 0xB DUP8 ADD SLOAD SWAP3 PUSH1 0x6 PUSH0 SWAP9 ADD SWAP8 JUMPDEST DUP9 SLOAD DUP2 LT ISZERO PUSH2 0x2B1B JUMPI PUSH2 0x29BC DUP2 PUSH2 0x1EB4 JUMP JUMPDEST SWAP1 SLOAD SWAP1 PUSH1 0x3 SHL SHR SWAP6 DUP9 PUSH0 MSTORE PUSH1 0xE PUSH1 0x20 MSTORE PUSH1 0x40 PUSH0 KECCAK256 DUP8 PUSH0 MSTORE PUSH1 0x20 MSTORE PUSH1 0x40 PUSH0 KECCAK256 SWAP1 PUSH1 0x3 DUP3 ADD PUSH1 0xFF DUP2 SLOAD PUSH1 0x8 SHR AND DUP1 ISZERO SWAP1 DUP2 DUP1 SWAP3 PUSH2 0x2B05 JUMPI JUMPDEST ISZERO PUSH2 0x2A3D JUMPI POP POP DUP1 SLOAD PUSH2 0xFF00 NOT AND PUSH2 0x100 OR SWAP1 SSTORE PUSH2 0x2A18 SWAP2 SWAP1 DUP8 PUSH1 0xA PUSH2 0x21A0 DUP3 DUP13 PUSH2 0x244D JUMP JUMPDEST SWAP6 PUSH0 MSTORE PUSH1 0xC PUSH1 0x20 MSTORE PUSH1 0x40 PUSH0 KECCAK256 SWAP1 DUP2 SLOAD PUSH0 NOT DUP2 ADD SWAP1 DUP2 GT PUSH2 0x7E0 JUMPI PUSH1 0x1 SWAP3 SSTORE JUMPDEST ADD PUSH2 0x29AA JUMP JUMPDEST DUP1 SWAP2 SWAP4 SWAP6 SWAP11 SWAP3 POP SWAP1 PUSH2 0x2AF0 JUMPI JUMPDEST ISZERO PUSH2 0x2A68 JUMPI POP POP PUSH1 0x1 SWAP2 PUSH1 0x2 PUSH2 0x2A62 SWAP3 ADD SLOAD SWAP1 PUSH2 0x1FA2 JUMP JUMPDEST SWAP6 PUSH2 0x2A37 JUMP JUMPDEST SWAP3 SWAP8 SWAP3 DUP8 SWAP1 DUP3 PUSH2 0x2AD8 JUMPI JUMPDEST POP POP PUSH2 0x2A82 JUMPI POP PUSH1 0x1 SWAP1 PUSH2 0x2A37 JUMP JUMPDEST SWAP2 SWAP9 POP POP PUSH1 0x1 SWAP2 SWAP9 SWAP4 POP SWAP4 SWAP2 SWAP4 ADD SSTORE JUMPDEST PUSH1 0x1 SLOAD PUSH2 0x2AAB SWAP1 DUP4 SWAP1 DUP6 SWAP1 PUSH1 0x1 PUSH1 0x1 PUSH1 0xA0 SHL SUB AND PUSH2 0x31F5 JUMP JUMPDEST PUSH1 0x40 MLOAD SWAP2 DUP3 MSTORE PUSH1 0x20 DUP3 ADD MSTORE PUSH1 0x2 DUP2 PUSH1 0x80 SWAP2 PUSH1 0x40 PUSH0 MLOAD PUSH1 0x20 PUSH2 0x3376 PUSH0 CODECOPY PUSH0 MLOAD SWAP1 PUSH0 MSTORE SWAP5 ADD MSTORE TIMESTAMP PUSH1 0x60 DUP3 ADD MSTORE LOG4 JUMP JUMPDEST PUSH1 0xA SWAP3 POP SWAP1 PUSH2 0x2AE6 SWAP2 PUSH2 0x244D JUMP JUMPDEST DIV DUP8 LT DUP7 PUSH0 PUSH2 0x2A73 JUMP JUMPDEST POP PUSH1 0xA PUSH2 0x2AFD DUP10 DUP4 PUSH2 0x244D JUMP JUMPDEST DIV DUP5 GT PUSH2 0x2A4A JUMP JUMPDEST POP PUSH1 0xA PUSH2 0x2B12 DUP12 DUP14 PUSH2 0x244D JUMP JUMPDEST DIV DUP5 LT ISZERO PUSH2 0x29F2 JUMP JUMPDEST POP SWAP7 POP SWAP7 SWAP2 POP SWAP2 POP PUSH2 0x2A92 JUMP JUMPDEST POP POP POP POP PUSH2 0x20CD SWAP1 PUSH2 0x2742 JUMP JUMPDEST POP PUSH1 0xF DUP3 LT PUSH2 0x290E JUMP JUMPDEST POP PUSH1 0x5 SLOAD DUP2 EQ ISZERO PUSH2 0x2908 JUMP JUMPDEST SWAP1 PUSH0 MSTORE PUSH1 0x10 PUSH1 0x20 MSTORE PUSH1 0x5 PUSH1 0x40 PUSH0 KECCAK256 ADD SLOAD SWAP1 DUP2 ISZERO DUP1 ISZERO PUSH2 0x2B71 JUMPI JUMPDEST PUSH2 0x2B28 JUMPI PUSH1 0x1 ADD PUSH2 0x28F4 JUMP JUMPDEST POP PUSH1 0x5 SLOAD DUP3 EQ PUSH2 0x2B65 JUMP JUMPDEST POP POP POP PUSH2 0x20CD SWAP1 PUSH2 0x2742 JUMP JUMPDEST POP DUP1 ISZERO PUSH2 0x28ED JUMP JUMPDEST SWAP4 SWAP1 PUSH2 0x1E0 MSTORE DUP4 ISZERO DUP1 ISZERO PUSH2 0x2F1A JUMPI JUMPDEST DUP1 ISZERO PUSH2 0x2F12 JUMPI JUMPDEST PUSH2 0x28B8 JUMPI PUSH2 0x2BB4 DUP2 DUP4 PUSH2 0x1FAF JUMP JUMPDEST PUSH2 0x220 MSTORE PUSH2 0x2BCE PUSH2 0x2BC8 DUP3 PUSH2 0x220 MLOAD PUSH2 0x244D JUMP JUMPDEST DUP4 PUSH2 0x1FA2 JUMP JUMPDEST SWAP4 PUSH2 0x1C0 MSTORE PUSH0 SWAP3 PUSH0 PUSH2 0x1A0 MSTORE PUSH1 0x1 SWAP2 PUSH0 JUMPDEST PUSH1 0x1E DUP2 LT PUSH2 0x2C14 JUMPI JUMPDEST POP POP POP POP SWAP1 PUSH2 0x2BF6 SWAP2 PUSH2 0x1FA2 JUMP JUMPDEST DUP1 PUSH2 0x2C05 JUMPI JUMPDEST POP DUP1 PUSH2 0x285E JUMPI POP JUMP JUMPDEST PUSH2 0x2C0E SWAP1 PUSH2 0x2742 JUMP JUMPDEST PUSH0 PUSH2 0x2BFC JUMP JUMPDEST SWAP2 SWAP6 PUSH2 0x1C0 SWAP8 SWAP2 SWAP6 SWAP4 SWAP8 MLOAD ISZERO DUP1 ISZERO PUSH2 0x2F04 JUMPI JUMPDEST PUSH2 0x2EEC JUMPI PUSH2 0x1C0 MLOAD PUSH0 MSTORE PUSH1 0x10 PUSH1 0x20 MSTORE PUSH1 0x40 PUSH0 KECCAK256 SWAP8 DUP8 PUSH1 0x6 DUP11 ADD SLOAD LT ISZERO PUSH0 EQ PUSH2 0x2ECC JUMPI PUSH2 0x2C56 DUP2 PUSH2 0x220 MLOAD PUSH2 0x244D JUMP JUMPDEST SWAP6 PUSH2 0x1C0 MLOAD PUSH0 MSTORE PUSH1 0x10 PUSH1 0x20 MSTORE PUSH1 0x40 PUSH0 KECCAK256 PUSH2 0x260 MSTORE PUSH1 0x1 DUP1 PUSH1 0xA0 SHL SUB PUSH2 0x260 MLOAD SLOAD AND SWAP8 DUP9 ISZERO PUSH2 0x22FA JUMPI DUP8 ISZERO PUSH2 0x22C7 JUMPI PUSH2 0x1C0 MLOAD PUSH0 MSTORE PUSH1 0x11 PUSH1 0x20 MSTORE PUSH1 0x40 PUSH0 KECCAK256 PUSH2 0x2C9E DUP10 DUP3 SLOAD PUSH2 0x2440 JUMP JUMPDEST DUP2 SSTORE PUSH1 0x3 DUP2 ADD PUSH2 0x2CAF DUP11 DUP3 SLOAD PUSH2 0x2440 JUMP JUMPDEST SWAP1 SSTORE SLOAD PUSH2 0x240 MSTORE PUSH1 0xB PUSH2 0x260 MLOAD ADD SLOAD PUSH2 0x200 MSTORE PUSH0 JUMPDEST PUSH1 0x6 PUSH2 0x260 MLOAD ADD SLOAD DUP2 LT ISZERO PUSH2 0x2EBB JUMPI PUSH2 0x2CDC DUP2 PUSH2 0x1EB4 JUMP JUMPDEST SWAP1 SLOAD SWAP1 PUSH1 0x3 SHL SHR PUSH2 0x1C0 MLOAD PUSH0 MSTORE PUSH1 0xE PUSH1 0x20 MSTORE PUSH1 0x40 PUSH0 KECCAK256 DUP2 PUSH0 MSTORE PUSH1 0x20 MSTORE PUSH1 0x40 PUSH0 KECCAK256 PUSH1 0x3 DUP2 ADD PUSH1 0xFF DUP2 SLOAD PUSH1 0x8 SHR AND DUP1 ISZERO SWAP1 DUP2 DUP1 SWAP3 PUSH2 0x2E9F JUMPI JUMPDEST ISZERO PUSH2 0x2D7A JUMPI POP POP SWAP1 PUSH2 0x2D52 SWAP2 PUSH2 0x100 PUSH2 0xFF00 NOT DUP3 SLOAD AND OR SWAP1 SSTORE PUSH1 0xA PUSH2 0x2D3B PUSH2 0x200 MLOAD DUP6 PUSH2 0x244D JUMP JUMPDEST DIV SWAP1 DUP2 PUSH1 0x2 DUP3 ADD SSTORE PUSH2 0x200 MLOAD SWAP1 SSTORE PUSH2 0x240 MLOAD PUSH2 0x1FA2 JUMP JUMPDEST PUSH2 0x240 MSTORE PUSH0 MSTORE PUSH1 0xC PUSH1 0x20 MSTORE PUSH1 0x40 PUSH0 KECCAK256 SWAP1 DUP2 SLOAD PUSH0 NOT DUP2 ADD SWAP1 DUP2 GT PUSH2 0x7E0 JUMPI PUSH1 0x1 SWAP3 SSTORE JUMPDEST ADD PUSH2 0x2CC4 JUMP JUMPDEST DUP1 SWAP2 SWAP4 SWAP5 SWAP3 POP SWAP1 PUSH2 0x2E84 JUMPI JUMPDEST ISZERO PUSH2 0x2DAA JUMPI POP POP SWAP1 PUSH2 0x2DA1 PUSH1 0x2 PUSH1 0x1 SWAP4 ADD SLOAD PUSH2 0x240 MLOAD PUSH2 0x1FA2 JUMP JUMPDEST PUSH2 0x240 MSTORE PUSH2 0x2D74 JUMP JUMPDEST DUP2 PUSH2 0x2E67 JUMPI JUMPDEST POP PUSH2 0x2DBE JUMPI POP PUSH1 0x1 SWAP1 PUSH2 0x2D74 JUMP JUMPDEST SWAP1 POP PUSH1 0x1 PUSH2 0x240 SWAP13 SWAP9 SWAP5 SWAP11 SWAP4 SWAP10 SWAP3 SWAP7 SWAP13 SWAP12 SWAP8 SWAP6 SWAP12 MLOAD SWAP2 ADD SSTORE JUMPDEST PUSH1 0x1 SLOAD PUSH2 0x2DF0 SWAP1 DUP3 SWAP1 DUP5 SWAP1 PUSH1 0x1 PUSH1 0x1 PUSH1 0xA0 SHL SUB AND PUSH2 0x31F5 JUMP JUMPDEST PUSH1 0x40 MLOAD DUP2 DUP2 MSTORE PUSH1 0x20 DUP2 ADD DUP8 SWAP1 MSTORE SWAP3 PUSH1 0x3 SWAP3 DUP5 PUSH2 0x2E34 SWAP5 PUSH1 0x40 PUSH2 0x2E3E SWAP8 ADD MSTORE TIMESTAMP PUSH1 0x60 DUP3 ADD MSTORE PUSH2 0x1E0 MLOAD SWAP2 PUSH0 MLOAD PUSH1 0x20 PUSH2 0x3376 PUSH0 CODECOPY PUSH0 MLOAD SWAP1 PUSH0 MSTORE PUSH1 0x80 PUSH2 0x1C0 MLOAD SWAP4 LOG4 PUSH2 0x2440 JUMP JUMPDEST SWAP7 PUSH2 0x1A0 MLOAD PUSH2 0x2440 JUMP JUMPDEST PUSH2 0x1A0 MSTORE PUSH1 0x1 SWAP4 JUMPDEST DUP3 PUSH2 0x1A0 MLOAD LT ISZERO PUSH2 0x2E61 JUMPI PUSH1 0x5 ADD SLOAD PUSH2 0x1C0 MSTORE PUSH1 0x1 ADD PUSH2 0x2BDF JUMP JUMPDEST POP PUSH2 0x2BE8 JUMP JUMPDEST PUSH2 0x200 MLOAD PUSH1 0xA SWAP3 POP PUSH2 0x2E78 SWAP2 PUSH2 0x244D JUMP JUMPDEST DIV PUSH2 0x240 MLOAD LT PUSH0 PUSH2 0x2DB0 JUMP JUMPDEST POP PUSH1 0xA PUSH2 0x2E94 PUSH2 0x200 MLOAD DUP4 PUSH2 0x244D JUMP JUMPDEST DIV PUSH2 0x240 MLOAD GT PUSH2 0x2D86 JUMP JUMPDEST POP PUSH1 0xA PUSH2 0x2EAF PUSH2 0x200 MLOAD DUP8 PUSH2 0x244D JUMP JUMPDEST DIV PUSH2 0x240 MLOAD LT ISZERO PUSH2 0x2D13 JUMP JUMPDEST POP SWAP4 SWAP10 SWAP6 SWAP2 SWAP8 SWAP1 SWAP7 SWAP9 SWAP5 SWAP3 SWAP9 PUSH2 0x2DD7 JUMP JUMPDEST SWAP4 SWAP6 SWAP2 SWAP8 DUP3 DUP6 SWAP9 SWAP5 SWAP3 SWAP9 LT ISZERO PUSH2 0x2E46 JUMPI SWAP4 PUSH2 0x2EE6 SWAP1 PUSH2 0x28D0 JUMP JUMPDEST SWAP4 PUSH2 0x2E46 JUMP JUMPDEST POP SWAP6 POP POP SWAP2 POP PUSH2 0x2EFC SWAP3 POP PUSH2 0x1FA2 JUMP JUMPDEST DUP1 PUSH2 0x285E JUMPI POP JUMP JUMPDEST POP PUSH1 0x5 SLOAD PUSH2 0x1C0 MLOAD EQ PUSH2 0x2C27 JUMP JUMPDEST POP DUP1 ISZERO PUSH2 0x2BA6 JUMP JUMPDEST POP PUSH1 0x5 SLOAD DUP5 EQ PUSH2 0x2B9F JUMP JUMPDEST SWAP1 DUP2 PUSH0 MSTORE PUSH1 0x45 PUSH1 0x20 MSTORE PUSH1 0xFF PUSH1 0x4 PUSH1 0x40 PUSH0 KECCAK256 ADD SLOAD AND ISZERO PUSH2 0x2F42 JUMPI POP POP JUMP JUMPDEST PUSH2 0x2F4F PUSH1 0x40 SLOAD DUP3 EQ PUSH2 0x3283 JUMP JUMPDEST DUP1 PUSH0 MSTORE PUSH1 0x43 PUSH1 0x20 MSTORE PUSH2 0x2F6B PUSH1 0xFF PUSH1 0x8 PUSH1 0x40 PUSH0 KECCAK256 ADD SLOAD AND ISZERO PUSH2 0x32BF JUMP JUMPDEST DUP2 PUSH0 MSTORE PUSH1 0x10 PUSH1 0x20 MSTORE PUSH1 0x40 PUSH0 KECCAK256 PUSH1 0x12 DUP2 ADD SLOAD SWAP1 DUP2 ISZERO PUSH2 0x3082 JUMPI PUSH1 0x11 DUP2 ADD SLOAD PUSH3 0x83D600 DUP2 ADD DUP1 SWAP2 GT PUSH2 0x7E0 JUMPI PUSH2 0x2FC2 SWAP3 GT ISZERO SWAP1 PUSH1 0x5 PUSH1 0x14 PUSH1 0xA PUSH1 0x6 DUP5 ADD SLOAD LT ISZERO SWAP3 ADD SLOAD LT ISZERO SWAP1 DUP3 PUSH2 0x307A JUMPI JUMPDEST POP DUP2 PUSH2 0x3072 JUMPI JUMPDEST POP PUSH2 0x32FA JUMP JUMPDEST DUP2 PUSH0 MSTORE PUSH1 0x45 PUSH1 0x20 MSTORE PUSH1 0x40 PUSH0 KECCAK256 SWAP2 PUSH1 0x4 DUP4 ADD PUSH2 0x2FE1 PUSH1 0xFF DUP3 SLOAD AND ISZERO PUSH2 0x3335 JUMP JUMPDEST PUSH1 0x44 SLOAD SWAP4 PUSH1 0x1 PUSH1 0x40 SHL DUP6 LT ISZERO PUSH2 0x2414 JUMPI PUSH1 0x1 DUP5 SWAP2 PUSH2 0x3027 DUP8 DUP4 PUSH32 0x42EE5EF523A95C6FB3FFDD2E9B34955B83EA8C2B11FF268C87AE6EA25556EAAC SWAP10 ADD PUSH1 0x44 SSTORE PUSH1 0x44 PUSH2 0x1EFE JUMP JUMPDEST DUP2 SLOAD SWAP1 PUSH1 0x3 SHL SWAP1 DUP8 DUP3 SHL SWAP2 PUSH0 NOT SWAP1 SHL NOT AND OR SWAP1 SSTORE TIMESTAMP DUP2 SSTORE ADD SSTORE PUSH1 0x1 PUSH1 0xFF NOT DUP3 SLOAD AND OR SWAP1 SSTORE PUSH2 0x306D PUSH1 0x40 MLOAD SWAP3 DUP4 SWAP3 TIMESTAMP SWAP2 DUP5 PUSH1 0x40 SWAP2 SWAP5 SWAP4 SWAP3 PUSH1 0x60 DUP3 ADD SWAP6 DUP3 MSTORE PUSH1 0x20 DUP3 ADD MSTORE ADD MSTORE JUMP JUMPDEST SUB SWAP1 LOG1 JUMP JUMPDEST SWAP1 POP PUSH0 PUSH2 0x2FBC JUMP JUMPDEST SWAP2 POP PUSH0 PUSH2 0x2FB5 JUMP JUMPDEST PUSH1 0x40 MLOAD PUSH3 0x461BCD PUSH1 0xE5 SHL DUP2 MSTORE PUSH1 0x20 PUSH1 0x4 DUP3 ADD MSTORE PUSH1 0x11 PUSH1 0x24 DUP3 ADD MSTORE PUSH17 0x55736572206E6F74206C6576656C20313 PUSH1 0x7C SHL PUSH1 0x44 DUP3 ADD MSTORE PUSH1 0x64 SWAP1 REVERT JUMPDEST SWAP1 DUP2 PUSH0 MSTORE PUSH1 0x4C PUSH1 0x20 MSTORE PUSH1 0xFF PUSH1 0x4 PUSH1 0x40 PUSH0 KECCAK256 ADD SLOAD AND ISZERO PUSH2 0x30D8 JUMPI POP POP JUMP JUMPDEST PUSH2 0x30E5 PUSH1 0x47 SLOAD DUP3 EQ PUSH2 0x3283 JUMP JUMPDEST DUP1 PUSH0 MSTORE PUSH1 0x4A PUSH1 0x20 MSTORE PUSH2 0x3101 PUSH1 0xFF PUSH1 0x8 PUSH1 0x40 PUSH0 KECCAK256 ADD SLOAD AND ISZERO PUSH2 0x32BF JUMP JUMPDEST DUP2 PUSH0 MSTORE PUSH1 0x10 PUSH1 0x20 MSTORE PUSH1 0x40 PUSH0 KECCAK256 PUSH1 0x13 DUP2 ADD SLOAD SWAP1 DUP2 ISZERO PUSH2 0x31BC JUMPI PUSH1 0x11 DUP2 ADD SLOAD PUSH4 0x2514300 DUP2 ADD DUP1 SWAP2 GT PUSH2 0x7E0 JUMPI PUSH2 0x3157 SWAP3 GT ISZERO SWAP1 PUSH1 0x2 PUSH1 0x15 PUSH1 0xF PUSH1 0x6 DUP5 ADD SLOAD LT ISZERO SWAP3 ADD SLOAD LT ISZERO SWAP1 DUP3 PUSH2 0x307A JUMPI POP DUP2 PUSH2 0x3072 JUMPI POP PUSH2 0x32FA JUMP JUMPDEST DUP2 PUSH0 MSTORE PUSH1 0x4C PUSH1 0x20 MSTORE PUSH1 0x40 PUSH0 KECCAK256 SWAP2 PUSH1 0x4 DUP4 ADD PUSH2 0x3176 PUSH1 0xFF DUP3 SLOAD AND ISZERO PUSH2 0x3335 JUMP JUMPDEST PUSH1 0x4B SLOAD SWAP4 PUSH1 0x1 PUSH1 0x40 SHL DUP6 LT ISZERO PUSH2 0x2414 JUMPI PUSH1 0x1 DUP5 SWAP2 PUSH2 0x3027 DUP8 DUP4 PUSH32 0x42EE5EF523A95C6FB3FFDD2E9B34955B83EA8C2B11FF268C87AE6EA25556EAAC SWAP10 ADD PUSH1 0x4B SSTORE PUSH1 0x4B PUSH2 0x1EFE JUMP JUMPDEST PUSH1 0x40 MLOAD PUSH3 0x461BCD PUSH1 0xE5 SHL DUP2 MSTORE PUSH1 0x20 PUSH1 0x4 DUP3 ADD MSTORE PUSH1 0x11 PUSH1 0x24 DUP3 ADD MSTORE PUSH17 0x55736572206E6F74206C6576656C203135 PUSH1 0x78 SHL PUSH1 0x44 DUP3 ADD MSTORE PUSH1 0x64 SWAP1 REVERT JUMPDEST PUSH1 0x40 MLOAD PUSH4 0xA9059CBB PUSH1 0xE0 SHL PUSH1 0x20 DUP3 DUP2 ADD SWAP2 DUP3 MSTORE PUSH1 0x1 PUSH1 0x1 PUSH1 0xA0 SHL SUB SWAP1 SWAP5 AND PUSH1 0x24 DUP4 ADD MSTORE PUSH1 0x44 DUP1 DUP4 ADD SWAP6 SWAP1 SWAP6 MSTORE SWAP4 DUP2 MSTORE SWAP1 SWAP3 PUSH0 SWAP2 PUSH2 0x3233 PUSH1 0x64 DUP3 PUSH2 0x23F2 JUMP JUMPDEST MLOAD SWAP1 DUP3 DUP6 GAS CALL ISZERO PUSH2 0x9B0 JUMPI PUSH0 MLOAD RETURNDATASIZE PUSH2 0x327A JUMPI POP PUSH1 0x1 PUSH1 0x1 PUSH1 0xA0 SHL SUB DUP2 AND EXTCODESIZE ISZERO JUMPDEST PUSH2 0x325A JUMPI POP JUMP JUMPDEST PUSH4 0x5274AFE7 PUSH1 0xE0 SHL PUSH0 SWAP1 DUP2 MSTORE PUSH1 0x1 PUSH1 0x1 PUSH1 0xA0 SHL SUB SWAP2 SWAP1 SWAP2 AND PUSH1 0x4 MSTORE PUSH1 0x24 SWAP1 REVERT JUMPDEST PUSH1 0x1 EQ ISZERO PUSH2 0x3253 JUMP JUMPDEST ISZERO PUSH2 0x328A JUMPI JUMP JUMPDEST PUSH1 0x40 MLOAD PUSH3 0x461BCD PUSH1 0xE5 SHL DUP2 MSTORE PUSH1 0x20 PUSH1 0x4 DUP3 ADD MSTORE PUSH1 0xD PUSH1 0x24 DUP3 ADD MSTORE PUSH13 0x125B9D985B1A59081C9BDD5B99 PUSH1 0x9A SHL PUSH1 0x44 DUP3 ADD MSTORE PUSH1 0x64 SWAP1 REVERT JUMPDEST ISZERO PUSH2 0x32C6 JUMPI JUMP JUMPDEST PUSH1 0x40 MLOAD PUSH3 0x461BCD PUSH1 0xE5 SHL DUP2 MSTORE PUSH1 0x20 PUSH1 0x4 DUP3 ADD MSTORE PUSH1 0xC PUSH1 0x24 DUP3 ADD MSTORE PUSH12 0x149BDD5B990818DB1BDCD959 PUSH1 0xA2 SHL PUSH1 0x44 DUP3 ADD MSTORE PUSH1 0x64 SWAP1 REVERT JUMPDEST ISZERO PUSH2 0x3301 JUMPI JUMP JUMPDEST PUSH1 0x40 MLOAD PUSH3 0x461BCD PUSH1 0xE5 SHL DUP2 MSTORE PUSH1 0x20 PUSH1 0x4 DUP3 ADD MSTORE PUSH1 0xC PUSH1 0x24 DUP3 ADD MSTORE PUSH12 0x4E6F7420656C696769626C65 PUSH1 0xA0 SHL PUSH1 0x44 DUP3 ADD MSTORE PUSH1 0x64 SWAP1 REVERT JUMPDEST ISZERO PUSH2 0x333C JUMPI JUMP JUMPDEST PUSH1 0x40 MLOAD PUSH3 0x461BCD PUSH1 0xE5 SHL DUP2 MSTORE PUSH1 0x20 PUSH1 0x4 DUP3 ADD MSTORE PUSH1 0x11 PUSH1 0x24 DUP3 ADD MSTORE PUSH17 0x185B1C9958591E48145D585B1A599A5959 PUSH1 0x7A SHL PUSH1 0x44 DUP3 ADD MSTORE PUSH1 0x64 SWAP1 REVERT INVALID 0x4D PUSH4 0x4C31300B SWAP8 0xDA 0xD9 SWAP12 GASPRICE 0xF7 SWAP10 OR DUP3 ADDRESS AND RETURNDATASIZE DUP9 0xAD ADDRESS PUSH4 0x70D063BE SWAP13 0xD9 SWAP3 0xD0 0xBE PUSH32 0xA264697066735822122072E0F5B2E264367B66853011D83A1DDF1C81A4FA9973 PUSH11 0xB4BC5860778EE157126473 PUSH16 0x6C634300081E00330000000000000000 "
		},
		"gasEstimates": {
			"creation": {
				"codeDepositCost": "2651800",
				"executionCost": "infinite",
				"totalCost": "infinite"
			},
			"external": {
				"ACC_PRECISION()": "597",
				"MONTHLY_ROYALTY_DIRECT()": "1631",
				"MONTHLY_ROYALTY_LEVEL()": "433",
				"MONTHLY_ROYALTY_TIME()": "1323",
				"MONTH_DURATION()": "443",
				"PERCENTS_DIVIDER()": "223",
				"ROI_2X_TIME()": "685",
				"ROI_CAP_DIVIDER()": "895",
				"ROI_CAP_MULTIPLIER()": "653",
				"TIME_STEP()": "575",
				"TOP_ROYALTY_DIRECT()": "553",
				"TOP_ROYALTY_LEVEL()": "477",
				"TOP_ROYALTY_TIME()": "1015",
				"WEEK_DURATION()": "1059",
				"WeeklyCapping()": "1719",
				"WeeklyTotalReward()": "2634",
				"addressToId(address)": "3779",
				"boosterUsers(uint256,uint256)": "8039",
				"claimCommunity(uint256,uint256)": "infinite",
				"communityAccPerPackage(uint256)": "2919",
				"communityAccPerUser()": "3184",
				"communityDebt(uint256,uint256)": "3418",
				"creatorWallet()": "3230",
				"currentMonthlyRound()": "3624",
				"currentMonthlyStartTime()": "3778",
				"currentWeeklyRound()": "3646",
				"currentWeeklyStartTime()": "3951",
				"defaultRefId()": "3844",
				"directReferrals(uint256,uint256)": "7533",
				"glbBoosterPackages(uint256)": "6773",
				"incomeHistory(uint256,uint256)": "13998",
				"matrixDirect(uint256)": "3293",
				"minLevelForGlbBooster(uint256)": "3750",
				"minLevelForPool(uint256)": "2518",
				"minPoolForGlbBooster(uint256)": "3376",
				"monthlyCapping()": "1499",
				"monthlyQualifiedUsers(uint256)": "6861",
				"monthlyRoyaltyUserdtl(uint256)": "9323",
				"monthlyRoyaltydtl(uint256)": "20265",
				"monthlyTotalReward()": "3404",
				"monthlyUserDirects(uint256,uint256)": "8391",
				"packageQualifiedUsers(uint256)": "2435",
				"packages(uint256)": "7892",
				"pendingCommunity(uint256,uint256)": "infinite",
				"poolPackages(uint256)": "7719",
				"poolUsers(uint256,uint256)": "6895",
				"register(uint256)": "infinite",
				"registeredUserIds(uint256)": "7037",
				"systemMaintance()": "3824",
				"teamDevelopment()": "3934",
				"teams(uint256,uint256,uint256)": "7537",
				"topRoyaltyQualifiedUsers(uint256)": "8159",
				"topRoyaltyReward()": "3052",
				"topRoyaltyRound()": "2898",
				"topRoyaltyStartTime()": "3360",
				"topRoyaltyUserDirects(uint256,uint256)": "7379",
				"topRoyaltyUserdtl(uint256)": "10269",
				"topRoyaltydtl(uint256)": "19517",
				"totalUsers()": "3514",
				"upgrade(uint256)": "infinite",
				"usdt()": "2636",
				"userBoosterChildren(uint256,uint256,uint256)": "6943",
				"userBoosterdtl(uint256,uint256)": "12050",
				"userChildren(uint256,uint256,uint256)": "7823",
				"userHasPool(uint256,uint256)": "3650",
				"userHasbooster(uint256,uint256)": "3562",
				"userIdPerPool(uint256,uint256,uint256)": "7801",
				"userIncomes(uint256)": "26331",
				"userPackage(uint256,uint256)": "9664",
				"userPooldtl(uint256,uint256)": "12424",
				"userPooltopup(uint256,uint256)": "5787",
				"users(uint256)": "45537",
				"weeklyContestdtl(uint256)": "20727",
				"weeklyQualifiedUsers(uint256,uint256)": "6851",
				"weeklyUserDirects(uint256,uint256,uint256)": "7471",
				"weeklyUserdtl(uint256,uint256)": "8951"
			},
			"internal": {
				"_accrueCommunityBonus(uint256,uint256)": "infinite",
				"_applyGlobalCapping(uint256,uint256)": "6678",
				"_distributeLevelBoosterIncome(uint256,uint256,uint256,uint256,uint256)": "infinite",
				"_distributeMatrixIncome(uint256,uint256,uint256,uint256)": "infinite",
				"_distributeSponsorIncome(uint256,uint256,uint256,uint256)": "infinite",
				"_findEligibleSponsor(uint256,uint256)": "infinite",
				"_payLevelBooster(uint256,uint256,uint256,uint256)": "infinite",
				"_placeInMatrix(uint256,uint256)": "infinite"
			}
		},
		"methodIdentifiers": {
			"ACC_PRECISION()": "32fcd966",
			"MONTHLY_ROYALTY_DIRECT()": "d2f0490d",
			"MONTHLY_ROYALTY_LEVEL()": "23fd338e",
			"MONTHLY_ROYALTY_TIME()": "a5e52b99",
			"MONTH_DURATION()": "2a891534",
			"PERCENTS_DIVIDER()": "01c234a8",
			"ROI_2X_TIME()": "3a5084b3",
			"ROI_CAP_DIVIDER()": "58c7d352",
			"ROI_CAP_MULTIPLIER()": "375b43b4",
			"TIME_STEP()": "32bc298c",
			"TOP_ROYALTY_DIRECT()": "31bb6a30",
			"TOP_ROYALTY_LEVEL()": "2ae0ee0d",
			"TOP_ROYALTY_TIME()": "705fee2d",
			"WEEK_DURATION()": "76f5f700",
			"WeeklyCapping()": "ebe0ff15",
			"WeeklyTotalReward()": "3080b5bc",
			"addressToId(address)": "cb0e0d7d",
			"boosterUsers(uint256,uint256)": "c7bb62e8",
			"claimCommunity(uint256,uint256)": "1c4ecf68",
			"communityAccPerPackage(uint256)": "45cb537c",
			"communityAccPerUser()": "78f6ad6d",
			"communityDebt(uint256,uint256)": "89043ece",
			"creatorWallet()": "7cdc65f2",
			"currentMonthlyRound()": "c9ed0708",
			"currentMonthlyStartTime()": "e898fc38",
			"currentWeeklyRound()": "ca8e9121",
			"currentWeeklyStartTime()": "fddc806f",
			"defaultRefId()": "ec597e6f",
			"directReferrals(uint256,uint256)": "5ec64a44",
			"glbBoosterPackages(uint256)": "2350268f",
			"incomeHistory(uint256,uint256)": "70c8d770",
			"matrixDirect(uint256)": "88afbe3e",
			"minLevelForGlbBooster(uint256)": "d0a2fd79",
			"minLevelForPool(uint256)": "2132d204",
			"minPoolForGlbBooster(uint256)": "956a3228",
			"monthlyCapping()": "c8df2908",
			"monthlyQualifiedUsers(uint256)": "2d66014f",
			"monthlyRoyaltyUserdtl(uint256)": "4036436c",
			"monthlyRoyaltydtl(uint256)": "6a424782",
			"monthlyTotalReward()": "a59d17d1",
			"monthlyUserDirects(uint256,uint256)": "f7a24806",
			"packageQualifiedUsers(uint256)": "0676d0d6",
			"packages(uint256)": "c216212a",
			"pendingCommunity(uint256,uint256)": "54c5bd90",
			"poolPackages(uint256)": "ae4708dc",
			"poolUsers(uint256,uint256)": "0f2b7cc9",
			"register(uint256)": "f207564e",
			"registeredUserIds(uint256)": "39ab3603",
			"systemMaintance()": "e9e34a16",
			"teamDevelopment()": "f5d74d93",
			"teams(uint256,uint256,uint256)": "5aabf7f1",
			"topRoyaltyQualifiedUsers(uint256)": "f5748c4f",
			"topRoyaltyReward()": "5b62d1d5",
			"topRoyaltyRound()": "4b8cbf9b",
			"topRoyaltyStartTime()": "9b40ab97",
			"topRoyaltyUserDirects(uint256,uint256)": "4d12ae0f",
			"topRoyaltyUserdtl(uint256)": "db27cc71",
			"topRoyaltydtl(uint256)": "056b4d1f",
			"totalUsers()": "bff1f9e1",
			"upgrade(uint256)": "45977d03",
			"usdt()": "2f48ab7d",
			"userBoosterChildren(uint256,uint256,uint256)": "0ef81b74",
			"userBoosterdtl(uint256,uint256)": "907c84a7",
			"userChildren(uint256,uint256,uint256)": "8f030ece",
			"userHasPool(uint256,uint256)": "bd1aae40",
			"userHasbooster(uint256,uint256)": "9c383486",
			"userIdPerPool(uint256,uint256,uint256)": "8d58644c",
			"userIncomes(uint256)": "46b9dece",
			"userPackage(uint256,uint256)": "5b58ce6c",
			"userPooldtl(uint256,uint256)": "ce79c2c3",
			"userPooltopup(uint256,uint256)": "bf724672",
			"users(uint256)": "365b98b2",
			"weeklyContestdtl(uint256)": "c4eb42a5",
			"weeklyQualifiedUsers(uint256,uint256)": "0a5c5d69",
			"weeklyUserDirects(uint256,uint256,uint256)": "4d4cc5ca",
			"weeklyUserdtl(uint256,uint256)": "0054815d"
		}
	},
	"abi": [
		{
			"inputs": [],
			"stateMutability": "nonpayable",
			"type": "constructor"
		},
		{
			"inputs": [
				{
					"internalType": "address",
					"name": "token",
					"type": "address"
				}
			],
			"name": "SafeERC20FailedOperation",
			"type": "error"
		},
		{
			"anonymous": false,
			"inputs": [
				{
					"indexed": false,
					"internalType": "uint256",
					"name": "amount",
					"type": "uint256"
				},
				{
					"indexed": false,
					"internalType": "uint256",
					"name": "usersCount",
					"type": "uint256"
				},
				{
					"indexed": false,
					"internalType": "uint256",
					"name": "perUser",
					"type": "uint256"
				}
			],
			"name": "CommunityBonusDistributed",
			"type": "event"
		},
		{
			"anonymous": false,
			"inputs": [
				{
					"indexed": true,
					"internalType": "address",
					"name": "to",
					"type": "address"
				},
				{
					"indexed": true,
					"internalType": "address",
					"name": "from",
					"type": "address"
				},
				{
					"indexed": false,
					"internalType": "uint256",
					"name": "amount",
					"type": "uint256"
				},
				{
					"indexed": false,
					"internalType": "uint256",
					"name": "packageLevel",
					"type": "uint256"
				},
				{
					"indexed": false,
					"internalType": "uint256",
					"name": "incomeType",
					"type": "uint256"
				}
			],
			"name": "IncomeDistributed",
			"type": "event"
		},
		{
			"anonymous": false,
			"inputs": [
				{
					"indexed": true,
					"internalType": "address",
					"name": "to",
					"type": "address"
				},
				{
					"indexed": true,
					"internalType": "uint256",
					"name": "toId",
					"type": "uint256"
				},
				{
					"indexed": true,
					"internalType": "uint256",
					"name": "fromId",
					"type": "uint256"
				},
				{
					"indexed": false,
					"internalType": "uint256",
					"name": "amount",
					"type": "uint256"
				},
				{
					"indexed": false,
					"internalType": "uint256",
					"name": "packageLevel",
					"type": "uint256"
				},
				{
					"indexed": false,
					"internalType": "enum Storage.IncomeType",
					"name": "incomeType",
					"type": "uint8"
				},
				{
					"indexed": false,
					"internalType": "uint256",
					"name": "timestamp",
					"type": "uint256"
				}
			],
			"name": "IncomeDistribution",
			"type": "event"
		},
		{
			"anonymous": false,
			"inputs": [
				{
					"indexed": true,
					"internalType": "address",
					"name": "winner",
					"type": "address"
				},
				{
					"indexed": true,
					"internalType": "uint256",
					"name": "fromUserId",
					"type": "uint256"
				},
				{
					"indexed": false,
					"internalType": "uint256",
					"name": "amount",
					"type": "uint256"
				},
				{
					"indexed": false,
					"internalType": "uint256",
					"name": "timestamp",
					"type": "uint256"
				}
			],
			"name": "LotteryReward",
			"type": "event"
		},
		{
			"anonymous": false,
			"inputs": [
				{
					"indexed": false,
					"internalType": "uint256",
					"name": "roundId",
					"type": "uint256"
				},
				{
					"indexed": false,
					"internalType": "uint256",
					"name": "totalUsers",
					"type": "uint256"
				},
				{
					"indexed": false,
					"internalType": "uint256",
					"name": "perUserReward",
					"type": "uint256"
				},
				{
					"indexed": false,
					"internalType": "uint256",
					"name": "totalReward",
					"type": "uint256"
				},
				{
					"indexed": false,
					"internalType": "uint256",
					"name": "totalDistributed",
					"type": "uint256"
				},
				{
					"indexed": false,
					"internalType": "uint256",
					"name": "leftoverReward",
					"type": "uint256"
				},
				{
					"indexed": false,
					"internalType": "uint256",
					"name": "endTime",
					"type": "uint256"
				}
			],
			"name": "MonthlyClosed",
			"type": "event"
		},
		{
			"anonymous": false,
			"inputs": [
				{
					"indexed": false,
					"internalType": "uint256",
					"name": "roundId",
					"type": "uint256"
				},
				{
					"indexed": false,
					"internalType": "uint256",
					"name": "userId",
					"type": "uint256"
				},
				{
					"indexed": false,
					"internalType": "uint256",
					"name": "perUserReward",
					"type": "uint256"
				},
				{
					"indexed": false,
					"internalType": "uint256",
					"name": "claimTime",
					"type": "uint256"
				}
			],
			"name": "MonthlyRewardClaim",
			"type": "event"
		},
		{
			"anonymous": false,
			"inputs": [
				{
					"indexed": false,
					"internalType": "uint256",
					"name": "roundId",
					"type": "uint256"
				},
				{
					"indexed": false,
					"internalType": "uint256",
					"name": "userId",
					"type": "uint256"
				},
				{
					"indexed": false,
					"internalType": "uint256",
					"name": "joinTime",
					"type": "uint256"
				}
			],
			"name": "MonthlyRoyaltyQualified",
			"type": "event"
		},
		{
			"anonymous": false,
			"inputs": [
				{
					"indexed": true,
					"internalType": "address",
					"name": "user",
					"type": "address"
				},
				{
					"indexed": true,
					"internalType": "address",
					"name": "sponsor",
					"type": "address"
				},
				{
					"indexed": true,
					"internalType": "uint256",
					"name": "userId",
					"type": "uint256"
				},
				{
					"indexed": false,
					"internalType": "uint256",
					"name": "uplineId",
					"type": "uint256"
				}
			],
			"name": "Registration",
			"type": "event"
		},
		{
			"anonymous": false,
			"inputs": [
				{
					"indexed": true,
					"internalType": "address",
					"name": "to",
					"type": "address"
				},
				{
					"indexed": false,
					"internalType": "uint256",
					"name": "amount",
					"type": "uint256"
				},
				{
					"indexed": false,
					"internalType": "string",
					"name": "level",
					"type": "string"
				}
			],
			"name": "RewardSent",
			"type": "event"
		},
		{
			"anonymous": false,
			"inputs": [
				{
					"indexed": false,
					"internalType": "uint256",
					"name": "roundId",
					"type": "uint256"
				},
				{
					"indexed": false,
					"internalType": "uint256",
					"name": "totalUsers",
					"type": "uint256"
				},
				{
					"indexed": false,
					"internalType": "uint256",
					"name": "perUserReward",
					"type": "uint256"
				},
				{
					"indexed": false,
					"internalType": "uint256",
					"name": "totalReward",
					"type": "uint256"
				},
				{
					"indexed": false,
					"internalType": "uint256",
					"name": "totalDistributed",
					"type": "uint256"
				},
				{
					"indexed": false,
					"internalType": "uint256",
					"name": "leftoverReward",
					"type": "uint256"
				},
				{
					"indexed": false,
					"internalType": "uint256",
					"name": "endTime",
					"type": "uint256"
				}
			],
			"name": "TopRoyaltyClosed",
			"type": "event"
		},
		{
			"anonymous": false,
			"inputs": [
				{
					"indexed": false,
					"internalType": "uint256",
					"name": "roundId",
					"type": "uint256"
				},
				{
					"indexed": false,
					"internalType": "uint256",
					"name": "userId",
					"type": "uint256"
				},
				{
					"indexed": false,
					"internalType": "uint256",
					"name": "joinTime",
					"type": "uint256"
				}
			],
			"name": "TopRoyaltyQualified",
			"type": "event"
		},
		{
			"anonymous": false,
			"inputs": [
				{
					"indexed": false,
					"internalType": "uint256",
					"name": "roundId",
					"type": "uint256"
				},
				{
					"indexed": false,
					"internalType": "uint256",
					"name": "userId",
					"type": "uint256"
				},
				{
					"indexed": false,
					"internalType": "uint256",
					"name": "perUserReward",
					"type": "uint256"
				},
				{
					"indexed": false,
					"internalType": "uint256",
					"name": "claimTime",
					"type": "uint256"
				}
			],
			"name": "TopRoyaltyRewardClaim",
			"type": "event"
		},
		{
			"anonymous": false,
			"inputs": [
				{
					"indexed": true,
					"internalType": "address",
					"name": "user",
					"type": "address"
				},
				{
					"indexed": true,
					"internalType": "uint256",
					"name": "userId",
					"type": "uint256"
				},
				{
					"indexed": false,
					"internalType": "uint256",
					"name": "packageLevel",
					"type": "uint256"
				},
				{
					"indexed": false,
					"internalType": "uint256",
					"name": "packagePrice",
					"type": "uint256"
				},
				{
					"indexed": false,
					"internalType": "string",
					"name": "depositType",
					"type": "string"
				},
				{
					"indexed": false,
					"internalType": "uint256",
					"name": "upgradeTime",
					"type": "uint256"
				}
			],
			"name": "Upgrade",
			"type": "event"
		},
		{
			"anonymous": false,
			"inputs": [
				{
					"indexed": true,
					"internalType": "uint8",
					"name": "matrixId",
					"type": "uint8"
				},
				{
					"indexed": true,
					"internalType": "uint32",
					"name": "userId",
					"type": "uint32"
				},
				{
					"indexed": true,
					"internalType": "address",
					"name": "user",
					"type": "address"
				},
				{
					"indexed": false,
					"internalType": "uint32",
					"name": "parentId",
					"type": "uint32"
				},
				{
					"indexed": false,
					"internalType": "address",
					"name": "parentAddr",
					"type": "address"
				},
				{
					"indexed": false,
					"internalType": "uint8",
					"name": "position",
					"type": "uint8"
				}
			],
			"name": "UserJoined",
			"type": "event"
		},
		{
			"anonymous": false,
			"inputs": [
				{
					"indexed": false,
					"internalType": "uint256",
					"name": "roundId",
					"type": "uint256"
				},
				{
					"indexed": false,
					"internalType": "uint256",
					"name": "totalUsers",
					"type": "uint256"
				},
				{
					"indexed": false,
					"internalType": "uint256",
					"name": "perUserReward",
					"type": "uint256"
				},
				{
					"indexed": false,
					"internalType": "uint256",
					"name": "totalReward",
					"type": "uint256"
				},
				{
					"indexed": false,
					"internalType": "uint256",
					"name": "totalDistributed",
					"type": "uint256"
				},
				{
					"indexed": false,
					"internalType": "uint256",
					"name": "leftoverReward",
					"type": "uint256"
				},
				{
					"indexed": false,
					"internalType": "uint256",
					"name": "endTime",
					"type": "uint256"
				}
			],
			"name": "WeeklyClosed",
			"type": "event"
		},
		{
			"anonymous": false,
			"inputs": [
				{
					"indexed": false,
					"internalType": "uint256",
					"name": "roundId",
					"type": "uint256"
				},
				{
					"indexed": false,
					"internalType": "uint256",
					"name": "userId",
					"type": "uint256"
				},
				{
					"indexed": false,
					"internalType": "uint256",
					"name": "joinTime",
					"type": "uint256"
				}
			],
			"name": "WeeklyContestQualified",
			"type": "event"
		},
		{
			"anonymous": false,
			"inputs": [
				{
					"indexed": false,
					"internalType": "uint256",
					"name": "roundId",
					"type": "uint256"
				},
				{
					"indexed": false,
					"internalType": "uint256",
					"name": "userId",
					"type": "uint256"
				},
				{
					"indexed": false,
					"internalType": "uint256",
					"name": "perUserReward",
					"type": "uint256"
				},
				{
					"indexed": false,
					"internalType": "uint256",
					"name": "claimTime",
					"type": "uint256"
				}
			],
			"name": "WeeklyRewardClaim",
			"type": "event"
		},
		{
			"inputs": [],
			"name": "ACC_PRECISION",
			"outputs": [
				{
					"internalType": "uint256",
					"name": "",
					"type": "uint256"
				}
			],
			"stateMutability": "view",
			"type": "function"
		},
		{
			"inputs": [],
			"name": "MONTHLY_ROYALTY_DIRECT",
			"outputs": [
				{
					"internalType": "uint256",
					"name": "",
					"type": "uint256"
				}
			],
			"stateMutability": "view",
			"type": "function"
		},
		{
			"inputs": [],
			"name": "MONTHLY_ROYALTY_LEVEL",
			"outputs": [
				{
					"internalType": "uint256",
					"name": "",
					"type": "uint256"
				}
			],
			"stateMutability": "view",
			"type": "function"
		},
		{
			"inputs": [],
			"name": "MONTHLY_ROYALTY_TIME",
			"outputs": [
				{
					"internalType": "uint256",
					"name": "",
					"type": "uint256"
				}
			],
			"stateMutability": "view",
			"type": "function"
		},
		{
			"inputs": [],
			"name": "MONTH_DURATION",
			"outputs": [
				{
					"internalType": "uint256",
					"name": "",
					"type": "uint256"
				}
			],
			"stateMutability": "view",
			"type": "function"
		},
		{
			"inputs": [],
			"name": "PERCENTS_DIVIDER",
			"outputs": [
				{
					"internalType": "uint256",
					"name": "",
					"type": "uint256"
				}
			],
			"stateMutability": "view",
			"type": "function"
		},
		{
			"inputs": [],
			"name": "ROI_2X_TIME",
			"outputs": [
				{
					"internalType": "uint256",
					"name": "",
					"type": "uint256"
				}
			],
			"stateMutability": "view",
			"type": "function"
		},
		{
			"inputs": [],
			"name": "ROI_CAP_DIVIDER",
			"outputs": [
				{
					"internalType": "uint256",
					"name": "",
					"type": "uint256"
				}
			],
			"stateMutability": "view",
			"type": "function"
		},
		{
			"inputs": [],
			"name": "ROI_CAP_MULTIPLIER",
			"outputs": [
				{
					"internalType": "uint256",
					"name": "",
					"type": "uint256"
				}
			],
			"stateMutability": "view",
			"type": "function"
		},
		{
			"inputs": [],
			"name": "TIME_STEP",
			"outputs": [
				{
					"internalType": "uint256",
					"name": "",
					"type": "uint256"
				}
			],
			"stateMutability": "view",
			"type": "function"
		},
		{
			"inputs": [],
			"name": "TOP_ROYALTY_DIRECT",
			"outputs": [
				{
					"internalType": "uint256",
					"name": "",
					"type": "uint256"
				}
			],
			"stateMutability": "view",
			"type": "function"
		},
		{
			"inputs": [],
			"name": "TOP_ROYALTY_LEVEL",
			"outputs": [
				{
					"internalType": "uint256",
					"name": "",
					"type": "uint256"
				}
			],
			"stateMutability": "view",
			"type": "function"
		},
		{
			"inputs": [],
			"name": "TOP_ROYALTY_TIME",
			"outputs": [
				{
					"internalType": "uint256",
					"name": "",
					"type": "uint256"
				}
			],
			"stateMutability": "view",
			"type": "function"
		},
		{
			"inputs": [],
			"name": "WEEK_DURATION",
			"outputs": [
				{
					"internalType": "uint256",
					"name": "",
					"type": "uint256"
				}
			],
			"stateMutability": "view",
			"type": "function"
		},
		{
			"inputs": [],
			"name": "WeeklyCapping",
			"outputs": [
				{
					"internalType": "uint256",
					"name": "",
					"type": "uint256"
				}
			],
			"stateMutability": "view",
			"type": "function"
		},
		{
			"inputs": [],
			"name": "WeeklyTotalReward",
			"outputs": [
				{
					"internalType": "uint256",
					"name": "",
					"type": "uint256"
				}
			],
			"stateMutability": "view",
			"type": "function"
		},
		{
			"inputs": [
				{
					"internalType": "address",
					"name": "",
					"type": "address"
				}
			],
			"name": "addressToId",
			"outputs": [
				{
					"internalType": "uint256",
					"name": "",
					"type": "uint256"
				}
			],
			"stateMutability": "view",
			"type": "function"
		},
		{
			"inputs": [
				{
					"internalType": "uint256",
					"name": "",
					"type": "uint256"
				},
				{
					"internalType": "uint256",
					"name": "",
					"type": "uint256"
				}
			],
			"name": "boosterUsers",
			"outputs": [
				{
					"internalType": "uint256",
					"name": "",
					"type": "uint256"
				}
			],
			"stateMutability": "view",
			"type": "function"
		},
		{
			"inputs": [
				{
					"internalType": "uint256",
					"name": "_userId",
					"type": "uint256"
				},
				{
					"internalType": "uint256",
					"name": "packagePrice",
					"type": "uint256"
				}
			],
			"name": "claimCommunity",
			"outputs": [],
			"stateMutability": "nonpayable",
			"type": "function"
		},
		{
			"inputs": [
				{
					"internalType": "uint256",
					"name": "",
					"type": "uint256"
				}
			],
			"name": "communityAccPerPackage",
			"outputs": [
				{
					"internalType": "uint256",
					"name": "",
					"type": "uint256"
				}
			],
			"stateMutability": "view",
			"type": "function"
		},
		{
			"inputs": [],
			"name": "communityAccPerUser",
			"outputs": [
				{
					"internalType": "uint256",
					"name": "",
					"type": "uint256"
				}
			],
			"stateMutability": "view",
			"type": "function"
		},
		{
			"inputs": [
				{
					"internalType": "uint256",
					"name": "",
					"type": "uint256"
				},
				{
					"internalType": "uint256",
					"name": "",
					"type": "uint256"
				}
			],
			"name": "communityDebt",
			"outputs": [
				{
					"internalType": "uint256",
					"name": "",
					"type": "uint256"
				}
			],
			"stateMutability": "view",
			"type": "function"
		},
		{
			"inputs": [],
			"name": "creatorWallet",
			"outputs": [
				{
					"internalType": "address",
					"name": "",
					"type": "address"
				}
			],
			"stateMutability": "view",
			"type": "function"
		},
		{
			"inputs": [],
			"name": "currentMonthlyRound",
			"outputs": [
				{
					"internalType": "uint256",
					"name": "",
					"type": "uint256"
				}
			],
			"stateMutability": "view",
			"type": "function"
		},
		{
			"inputs": [],
			"name": "currentMonthlyStartTime",
			"outputs": [
				{
					"internalType": "uint256",
					"name": "",
					"type": "uint256"
				}
			],
			"stateMutability": "view",
			"type": "function"
		},
		{
			"inputs": [],
			"name": "currentWeeklyRound",
			"outputs": [
				{
					"internalType": "uint256",
					"name": "",
					"type": "uint256"
				}
			],
			"stateMutability": "view",
			"type": "function"
		},
		{
			"inputs": [],
			"name": "currentWeeklyStartTime",
			"outputs": [
				{
					"internalType": "uint256",
					"name": "",
					"type": "uint256"
				}
			],
			"stateMutability": "view",
			"type": "function"
		},
		{
			"inputs": [],
			"name": "defaultRefId",
			"outputs": [
				{
					"internalType": "uint256",
					"name": "",
					"type": "uint256"
				}
			],
			"stateMutability": "view",
			"type": "function"
		},
		{
			"inputs": [
				{
					"internalType": "uint256",
					"name": "",
					"type": "uint256"
				},
				{
					"internalType": "uint256",
					"name": "",
					"type": "uint256"
				}
			],
			"name": "directReferrals",
			"outputs": [
				{
					"internalType": "uint256",
					"name": "",
					"type": "uint256"
				}
			],
			"stateMutability": "view",
			"type": "function"
		},
		{
			"inputs": [
				{
					"internalType": "uint256",
					"name": "",
					"type": "uint256"
				}
			],
			"name": "glbBoosterPackages",
			"outputs": [
				{
					"internalType": "uint256",
					"name": "",
					"type": "uint256"
				}
			],
			"stateMutability": "view",
			"type": "function"
		},
		{
			"inputs": [
				{
					"internalType": "uint256",
					"name": "",
					"type": "uint256"
				},
				{
					"internalType": "uint256",
					"name": "",
					"type": "uint256"
				}
			],
			"name": "incomeHistory",
			"outputs": [
				{
					"internalType": "uint256",
					"name": "fromUserId",
					"type": "uint256"
				},
				{
					"internalType": "uint256",
					"name": "amount",
					"type": "uint256"
				},
				{
					"internalType": "uint256",
					"name": "packageLevel",
					"type": "uint256"
				},
				{
					"internalType": "uint256",
					"name": "timestamp",
					"type": "uint256"
				},
				{
					"internalType": "uint256",
					"name": "incomeType",
					"type": "uint256"
				}
			],
			"stateMutability": "view",
			"type": "function"
		},
		{
			"inputs": [
				{
					"internalType": "uint256",
					"name": "",
					"type": "uint256"
				}
			],
			"name": "matrixDirect",
			"outputs": [
				{
					"internalType": "uint256",
					"name": "",
					"type": "uint256"
				}
			],
			"stateMutability": "view",
			"type": "function"
		},
		{
			"inputs": [
				{
					"internalType": "uint256",
					"name": "",
					"type": "uint256"
				}
			],
			"name": "minLevelForGlbBooster",
			"outputs": [
				{
					"internalType": "uint256",
					"name": "",
					"type": "uint256"
				}
			],
			"stateMutability": "view",
			"type": "function"
		},
		{
			"inputs": [
				{
					"internalType": "uint256",
					"name": "",
					"type": "uint256"
				}
			],
			"name": "minLevelForPool",
			"outputs": [
				{
					"internalType": "uint256",
					"name": "",
					"type": "uint256"
				}
			],
			"stateMutability": "view",
			"type": "function"
		},
		{
			"inputs": [
				{
					"internalType": "uint256",
					"name": "",
					"type": "uint256"
				}
			],
			"name": "minPoolForGlbBooster",
			"outputs": [
				{
					"internalType": "uint256",
					"name": "",
					"type": "uint256"
				}
			],
			"stateMutability": "view",
			"type": "function"
		},
		{
			"inputs": [],
			"name": "monthlyCapping",
			"outputs": [
				{
					"internalType": "uint256",
					"name": "",
					"type": "uint256"
				}
			],
			"stateMutability": "view",
			"type": "function"
		},
		{
			"inputs": [
				{
					"internalType": "uint256",
					"name": "",
					"type": "uint256"
				}
			],
			"name": "monthlyQualifiedUsers",
			"outputs": [
				{
					"internalType": "uint256",
					"name": "",
					"type": "uint256"
				}
			],
			"stateMutability": "view",
			"type": "function"
		},
		{
			"inputs": [
				{
					"internalType": "uint256",
					"name": "",
					"type": "uint256"
				}
			],
			"name": "monthlyRoyaltyUserdtl",
			"outputs": [
				{
					"internalType": "uint256",
					"name": "joinTime",
					"type": "uint256"
				},
				{
					"internalType": "uint256",
					"name": "qualifiedRoundId",
					"type": "uint256"
				},
				{
					"internalType": "uint256",
					"name": "claimTime",
					"type": "uint256"
				},
				{
					"internalType": "bool",
					"name": "isQualified",
					"type": "bool"
				}
			],
			"stateMutability": "view",
			"type": "function"
		},
		{
			"inputs": [
				{
					"internalType": "uint256",
					"name": "",
					"type": "uint256"
				}
			],
			"name": "monthlyRoyaltydtl",
			"outputs": [
				{
					"internalType": "uint256",
					"name": "roundId",
					"type": "uint256"
				},
				{
					"internalType": "uint256",
					"name": "totalReward",
					"type": "uint256"
				},
				{
					"internalType": "uint256",
					"name": "totalUsers",
					"type": "uint256"
				},
				{
					"internalType": "uint256",
					"name": "perUserReward",
					"type": "uint256"
				},
				{
					"internalType": "uint256",
					"name": "claimedCount",
					"type": "uint256"
				},
				{
					"internalType": "uint256",
					"name": "startTime",
					"type": "uint256"
				},
				{
					"internalType": "uint256",
					"name": "endTime",
					"type": "uint256"
				},
				{
					"internalType": "uint256",
					"name": "carryForward",
					"type": "uint256"
				},
				{
					"internalType": "bool",
					"name": "closed",
					"type": "bool"
				}
			],
			"stateMutability": "view",
			"type": "function"
		},
		{
			"inputs": [],
			"name": "monthlyTotalReward",
			"outputs": [
				{
					"internalType": "uint256",
					"name": "",
					"type": "uint256"
				}
			],
			"stateMutability": "view",
			"type": "function"
		},
		{
			"inputs": [
				{
					"internalType": "uint256",
					"name": "",
					"type": "uint256"
				},
				{
					"internalType": "uint256",
					"name": "",
					"type": "uint256"
				}
			],
			"name": "monthlyUserDirects",
			"outputs": [
				{
					"internalType": "uint256",
					"name": "",
					"type": "uint256"
				}
			],
			"stateMutability": "view",
			"type": "function"
		},
		{
			"inputs": [
				{
					"internalType": "uint256",
					"name": "",
					"type": "uint256"
				}
			],
			"name": "packageQualifiedUsers",
			"outputs": [
				{
					"internalType": "uint256",
					"name": "",
					"type": "uint256"
				}
			],
			"stateMutability": "view",
			"type": "function"
		},
		{
			"inputs": [
				{
					"internalType": "uint256",
					"name": "",
					"type": "uint256"
				}
			],
			"name": "packages",
			"outputs": [
				{
					"internalType": "uint256",
					"name": "",
					"type": "uint256"
				}
			],
			"stateMutability": "view",
			"type": "function"
		},
		{
			"inputs": [
				{
					"internalType": "uint256",
					"name": "_userId",
					"type": "uint256"
				},
				{
					"internalType": "uint256",
					"name": "_packagePrice",
					"type": "uint256"
				}
			],
			"name": "pendingCommunity",
			"outputs": [
				{
					"internalType": "uint256",
					"name": "pendingGross",
					"type": "uint256"
				},
				{
					"internalType": "uint256",
					"name": "pendingAfterCap",
					"type": "uint256"
				}
			],
			"stateMutability": "view",
			"type": "function"
		},
		{
			"inputs": [
				{
					"internalType": "uint256",
					"name": "",
					"type": "uint256"
				}
			],
			"name": "poolPackages",
			"outputs": [
				{
					"internalType": "uint256",
					"name": "",
					"type": "uint256"
				}
			],
			"stateMutability": "view",
			"type": "function"
		},
		{
			"inputs": [
				{
					"internalType": "uint256",
					"name": "",
					"type": "uint256"
				},
				{
					"internalType": "uint256",
					"name": "",
					"type": "uint256"
				}
			],
			"name": "poolUsers",
			"outputs": [
				{
					"internalType": "uint256",
					"name": "",
					"type": "uint256"
				}
			],
			"stateMutability": "view",
			"type": "function"
		},
		{
			"inputs": [
				{
					"internalType": "uint256",
					"name": "_sponsorId",
					"type": "uint256"
				}
			],
			"name": "register",
			"outputs": [],
			"stateMutability": "nonpayable",
			"type": "function"
		},
		{
			"inputs": [
				{
					"internalType": "uint256",
					"name": "",
					"type": "uint256"
				}
			],
			"name": "registeredUserIds",
			"outputs": [
				{
					"internalType": "uint256",
					"name": "",
					"type": "uint256"
				}
			],
			"stateMutability": "view",
			"type": "function"
		},
		{
			"inputs": [],
			"name": "systemMaintance",
			"outputs": [
				{
					"internalType": "address",
					"name": "",
					"type": "address"
				}
			],
			"stateMutability": "view",
			"type": "function"
		},
		{
			"inputs": [],
			"name": "teamDevelopment",
			"outputs": [
				{
					"internalType": "address",
					"name": "",
					"type": "address"
				}
			],
			"stateMutability": "view",
			"type": "function"
		},
		{
			"inputs": [
				{
					"internalType": "uint256",
					"name": "",
					"type": "uint256"
				},
				{
					"internalType": "uint256",
					"name": "",
					"type": "uint256"
				},
				{
					"internalType": "uint256",
					"name": "",
					"type": "uint256"
				}
			],
			"name": "teams",
			"outputs": [
				{
					"internalType": "uint256",
					"name": "",
					"type": "uint256"
				}
			],
			"stateMutability": "view",
			"type": "function"
		},
		{
			"inputs": [
				{
					"internalType": "uint256",
					"name": "",
					"type": "uint256"
				}
			],
			"name": "topRoyaltyQualifiedUsers",
			"outputs": [
				{
					"internalType": "uint256",
					"name": "",
					"type": "uint256"
				}
			],
			"stateMutability": "view",
			"type": "function"
		},
		{
			"inputs": [],
			"name": "topRoyaltyReward",
			"outputs": [
				{
					"internalType": "uint256",
					"name": "",
					"type": "uint256"
				}
			],
			"stateMutability": "view",
			"type": "function"
		},
		{
			"inputs": [],
			"name": "topRoyaltyRound",
			"outputs": [
				{
					"internalType": "uint256",
					"name": "",
					"type": "uint256"
				}
			],
			"stateMutability": "view",
			"type": "function"
		},
		{
			"inputs": [],
			"name": "topRoyaltyStartTime",
			"outputs": [
				{
					"internalType": "uint256",
					"name": "",
					"type": "uint256"
				}
			],
			"stateMutability": "view",
			"type": "function"
		},
		{
			"inputs": [
				{
					"internalType": "uint256",
					"name": "",
					"type": "uint256"
				},
				{
					"internalType": "uint256",
					"name": "",
					"type": "uint256"
				}
			],
			"name": "topRoyaltyUserDirects",
			"outputs": [
				{
					"internalType": "uint256",
					"name": "",
					"type": "uint256"
				}
			],
			"stateMutability": "view",
			"type": "function"
		},
		{
			"inputs": [
				{
					"internalType": "uint256",
					"name": "",
					"type": "uint256"
				}
			],
			"name": "topRoyaltyUserdtl",
			"outputs": [
				{
					"internalType": "uint256",
					"name": "joinTime",
					"type": "uint256"
				},
				{
					"internalType": "uint256",
					"name": "qualifiedRoundId",
					"type": "uint256"
				},
				{
					"internalType": "uint256",
					"name": "claimTime",
					"type": "uint256"
				},
				{
					"internalType": "bool",
					"name": "isQualified",
					"type": "bool"
				}
			],
			"stateMutability": "view",
			"type": "function"
		},
		{
			"inputs": [
				{
					"internalType": "uint256",
					"name": "",
					"type": "uint256"
				}
			],
			"name": "topRoyaltydtl",
			"outputs": [
				{
					"internalType": "uint256",
					"name": "roundId",
					"type": "uint256"
				},
				{
					"internalType": "uint256",
					"name": "totalReward",
					"type": "uint256"
				},
				{
					"internalType": "uint256",
					"name": "totalUsers",
					"type": "uint256"
				},
				{
					"internalType": "uint256",
					"name": "perUserReward",
					"type": "uint256"
				},
				{
					"internalType": "uint256",
					"name": "claimedCount",
					"type": "uint256"
				},
				{
					"internalType": "uint256",
					"name": "startTime",
					"type": "uint256"
				},
				{
					"internalType": "uint256",
					"name": "endTime",
					"type": "uint256"
				},
				{
					"internalType": "uint256",
					"name": "carryForward",
					"type": "uint256"
				},
				{
					"internalType": "bool",
					"name": "closed",
					"type": "bool"
				}
			],
			"stateMutability": "view",
			"type": "function"
		},
		{
			"inputs": [],
			"name": "totalUsers",
			"outputs": [
				{
					"internalType": "uint256",
					"name": "",
					"type": "uint256"
				}
			],
			"stateMutability": "view",
			"type": "function"
		},
		{
			"inputs": [
				{
					"internalType": "uint256",
					"name": "_userId",
					"type": "uint256"
				}
			],
			"name": "upgrade",
			"outputs": [],
			"stateMutability": "nonpayable",
			"type": "function"
		},
		{
			"inputs": [],
			"name": "usdt",
			"outputs": [
				{
					"internalType": "contract IERC20",
					"name": "",
					"type": "address"
				}
			],
			"stateMutability": "view",
			"type": "function"
		},
		{
			"inputs": [
				{
					"internalType": "uint256",
					"name": "",
					"type": "uint256"
				},
				{
					"internalType": "uint256",
					"name": "",
					"type": "uint256"
				},
				{
					"internalType": "uint256",
					"name": "",
					"type": "uint256"
				}
			],
			"name": "userBoosterChildren",
			"outputs": [
				{
					"internalType": "uint256",
					"name": "",
					"type": "uint256"
				}
			],
			"stateMutability": "view",
			"type": "function"
		},
		{
			"inputs": [
				{
					"internalType": "uint256",
					"name": "",
					"type": "uint256"
				},
				{
					"internalType": "uint256",
					"name": "",
					"type": "uint256"
				}
			],
			"name": "userBoosterdtl",
			"outputs": [
				{
					"internalType": "uint256",
					"name": "id",
					"type": "uint256"
				},
				{
					"internalType": "uint256",
					"name": "poolId",
					"type": "uint256"
				},
				{
					"internalType": "uint256",
					"name": "parentId",
					"type": "uint256"
				},
				{
					"internalType": "uint256",
					"name": "bonusCount",
					"type": "uint256"
				},
				{
					"internalType": "uint256",
					"name": "joinTime",
					"type": "uint256"
				}
			],
			"stateMutability": "view",
			"type": "function"
		},
		{
			"inputs": [
				{
					"internalType": "uint256",
					"name": "",
					"type": "uint256"
				},
				{
					"internalType": "uint256",
					"name": "",
					"type": "uint256"
				},
				{
					"internalType": "uint256",
					"name": "",
					"type": "uint256"
				}
			],
			"name": "userChildren",
			"outputs": [
				{
					"internalType": "uint256",
					"name": "",
					"type": "uint256"
				}
			],
			"stateMutability": "view",
			"type": "function"
		},
		{
			"inputs": [
				{
					"internalType": "uint256",
					"name": "",
					"type": "uint256"
				},
				{
					"internalType": "uint256",
					"name": "",
					"type": "uint256"
				}
			],
			"name": "userHasPool",
			"outputs": [
				{
					"internalType": "bool",
					"name": "",
					"type": "bool"
				}
			],
			"stateMutability": "view",
			"type": "function"
		},
		{
			"inputs": [
				{
					"internalType": "uint256",
					"name": "",
					"type": "uint256"
				},
				{
					"internalType": "uint256",
					"name": "",
					"type": "uint256"
				}
			],
			"name": "userHasbooster",
			"outputs": [
				{
					"internalType": "bool",
					"name": "",
					"type": "bool"
				}
			],
			"stateMutability": "view",
			"type": "function"
		},
		{
			"inputs": [
				{
					"internalType": "uint256",
					"name": "",
					"type": "uint256"
				},
				{
					"internalType": "uint256",
					"name": "",
					"type": "uint256"
				},
				{
					"internalType": "uint256",
					"name": "",
					"type": "uint256"
				}
			],
			"name": "userIdPerPool",
			"outputs": [
				{
					"internalType": "uint256",
					"name": "",
					"type": "uint256"
				}
			],
			"stateMutability": "view",
			"type": "function"
		},
		{
			"inputs": [
				{
					"internalType": "uint256",
					"name": "",
					"type": "uint256"
				}
			],
			"name": "userIncomes",
			"outputs": [
				{
					"internalType": "uint256",
					"name": "totalIncome",
					"type": "uint256"
				},
				{
					"internalType": "uint256",
					"name": "sponsorIncome",
					"type": "uint256"
				},
				{
					"internalType": "uint256",
					"name": "matrixIncome",
					"type": "uint256"
				},
				{
					"internalType": "uint256",
					"name": "levelBoosterIncome",
					"type": "uint256"
				},
				{
					"internalType": "uint256",
					"name": "royaltyIncome",
					"type": "uint256"
				},
				{
					"internalType": "uint256",
					"name": "royaltyIncomeClaimed",
					"type": "uint256"
				},
				{
					"internalType": "uint256",
					"name": "communityIncome",
					"type": "uint256"
				},
				{
					"internalType": "uint256",
					"name": "poolIncome",
					"type": "uint256"
				},
				{
					"internalType": "uint256",
					"name": "boosterIncome",
					"type": "uint256"
				},
				{
					"internalType": "uint256",
					"name": "weeklyContestIncome",
					"type": "uint256"
				},
				{
					"internalType": "uint256",
					"name": "monthlyRoyalty",
					"type": "uint256"
				},
				{
					"internalType": "uint256",
					"name": "topRoyalty",
					"type": "uint256"
				}
			],
			"stateMutability": "view",
			"type": "function"
		},
		{
			"inputs": [
				{
					"internalType": "uint256",
					"name": "",
					"type": "uint256"
				},
				{
					"internalType": "uint256",
					"name": "",
					"type": "uint256"
				}
			],
			"name": "userPackage",
			"outputs": [
				{
					"internalType": "uint256",
					"name": "roiCap",
					"type": "uint256"
				},
				{
					"internalType": "uint256",
					"name": "currentIncome",
					"type": "uint256"
				},
				{
					"internalType": "uint256",
					"name": "closingAmount",
					"type": "uint256"
				},
				{
					"internalType": "bool",
					"name": "qualified",
					"type": "bool"
				},
				{
					"internalType": "bool",
					"name": "closed",
					"type": "bool"
				}
			],
			"stateMutability": "view",
			"type": "function"
		},
		{
			"inputs": [
				{
					"internalType": "uint256",
					"name": "",
					"type": "uint256"
				},
				{
					"internalType": "uint256",
					"name": "",
					"type": "uint256"
				}
			],
			"name": "userPooldtl",
			"outputs": [
				{
					"internalType": "uint256",
					"name": "id",
					"type": "uint256"
				},
				{
					"internalType": "uint256",
					"name": "mainid",
					"type": "uint256"
				},
				{
					"internalType": "uint256",
					"name": "poolId",
					"type": "uint256"
				},
				{
					"internalType": "uint256",
					"name": "parentId",
					"type": "uint256"
				},
				{
					"internalType": "uint256",
					"name": "bonusCount",
					"type": "uint256"
				}
			],
			"stateMutability": "view",
			"type": "function"
		},
		{
			"inputs": [
				{
					"internalType": "uint256",
					"name": "",
					"type": "uint256"
				},
				{
					"internalType": "uint256",
					"name": "",
					"type": "uint256"
				}
			],
			"name": "userPooltopup",
			"outputs": [
				{
					"internalType": "uint256",
					"name": "nextPoolAmt",
					"type": "uint256"
				},
				{
					"internalType": "uint256",
					"name": "reTopupAmt",
					"type": "uint256"
				}
			],
			"stateMutability": "view",
			"type": "function"
		},
		{
			"inputs": [
				{
					"internalType": "uint256",
					"name": "",
					"type": "uint256"
				}
			],
			"name": "users",
			"outputs": [
				{
					"internalType": "address",
					"name": "account",
					"type": "address"
				},
				{
					"internalType": "uint256",
					"name": "checkpoint",
					"type": "uint256"
				},
				{
					"internalType": "uint256",
					"name": "id",
					"type": "uint256"
				},
				{
					"internalType": "uint256",
					"name": "sponsorId",
					"type": "uint256"
				},
				{
					"internalType": "uint256",
					"name": "uplineId",
					"type": "uint256"
				},
				{
					"internalType": "uint256",
					"name": "level",
					"type": "uint256"
				},
				{
					"internalType": "uint256",
					"name": "directTeam",
					"type": "uint256"
				},
				{
					"internalType": "uint256",
					"name": "directPoolQualified",
					"type": "uint256"
				},
				{
					"internalType": "uint256",
					"name": "totalMatrixTeam",
					"type": "uint256"
				},
				{
					"internalType": "uint256",
					"name": "totalDeposit",
					"type": "uint256"
				},
				{
					"internalType": "uint256",
					"name": "roiCap",
					"type": "uint256"
				},
				{
					"internalType": "uint256",
					"name": "poollevel",
					"type": "uint256"
				},
				{
					"internalType": "uint256",
					"name": "poolDeposit",
					"type": "uint256"
				},
				{
					"internalType": "uint256",
					"name": "poolStartTime",
					"type": "uint256"
				},
				{
					"internalType": "uint256",
					"name": "boosterlevel",
					"type": "uint256"
				},
				{
					"internalType": "uint256",
					"name": "boosterDeposit",
					"type": "uint256"
				},
				{
					"internalType": "uint256",
					"name": "registrationTime",
					"type": "uint256"
				},
				{
					"internalType": "uint256",
					"name": "level10Time",
					"type": "uint256"
				},
				{
					"internalType": "uint256",
					"name": "level15Time",
					"type": "uint256"
				},
				{
					"internalType": "uint256",
					"name": "monthlyUserDirectCount",
					"type": "uint256"
				},
				{
					"internalType": "uint256",
					"name": "topRoyaltyDirectCount",
					"type": "uint256"
				}
			],
			"stateMutability": "view",
			"type": "function"
		},
		{
			"inputs": [
				{
					"internalType": "uint256",
					"name": "",
					"type": "uint256"
				}
			],
			"name": "weeklyContestdtl",
			"outputs": [
				{
					"internalType": "uint256",
					"name": "roundId",
					"type": "uint256"
				},
				{
					"internalType": "uint256",
					"name": "totalReward",
					"type": "uint256"
				},
				{
					"internalType": "uint256",
					"name": "totalUsers",
					"type": "uint256"
				},
				{
					"internalType": "uint256",
					"name": "perUserReward",
					"type": "uint256"
				},
				{
					"internalType": "uint256",
					"name": "claimedCount",
					"type": "uint256"
				},
				{
					"internalType": "uint256",
					"name": "startTime",
					"type": "uint256"
				},
				{
					"internalType": "uint256",
					"name": "endTime",
					"type": "uint256"
				},
				{
					"internalType": "uint256",
					"name": "carryForward",
					"type": "uint256"
				},
				{
					"internalType": "bool",
					"name": "closed",
					"type": "bool"
				}
			],
			"stateMutability": "view",
			"type": "function"
		},
		{
			"inputs": [
				{
					"internalType": "uint256",
					"name": "",
					"type": "uint256"
				},
				{
					"internalType": "uint256",
					"name": "",
					"type": "uint256"
				}
			],
			"name": "weeklyQualifiedUsers",
			"outputs": [
				{
					"internalType": "uint256",
					"name": "",
					"type": "uint256"
				}
			],
			"stateMutability": "view",
			"type": "function"
		},
		{
			"inputs": [
				{
					"internalType": "uint256",
					"name": "",
					"type": "uint256"
				},
				{
					"internalType": "uint256",
					"name": "",
					"type": "uint256"
				},
				{
					"internalType": "uint256",
					"name": "",
					"type": "uint256"
				}
			],
			"name": "weeklyUserDirects",
			"outputs": [
				{
					"internalType": "uint256",
					"name": "",
					"type": "uint256"
				}
			],
			"stateMutability": "view",
			"type": "function"
		},
		{
			"inputs": [
				{
					"internalType": "uint256",
					"name": "",
					"type": "uint256"
				},
				{
					"internalType": "uint256",
					"name": "",
					"type": "uint256"
				}
			],
			"name": "weeklyUserdtl",
			"outputs": [
				{
					"internalType": "uint256",
					"name": "joinTime",
					"type": "uint256"
				},
				{
					"internalType": "uint256",
					"name": "roundId",
					"type": "uint256"
				},
				{
					"internalType": "uint256",
					"name": "claimTime",
					"type": "uint256"
				},
				{
					"internalType": "bool",
					"name": "isClaimed",
					"type": "bool"
				},
				{
					"internalType": "bool",
					"name": "isQualified",
					"type": "bool"
				}
			],
			"stateMutability": "view",
			"type": "function"
		}
	]
}