{
	"data": {
		"bytecode": {
			"linkReferences": {},
			"object": "60806040523461052b5760015f556040516101e081016001600160401b038111828210176105175760405267d02ab486cedc0000815268015af1d78b58c4000060208201526802b5e3af16b1880000604082015268056bc75e2d631000006060820152680ad78ebc5ac620000060808201526815af1d78b58c40000060a0820152682b5e3af16b1880000060c08201526856bc75e2d63100000060e082015268ad78ebc5ac6200000061010082015269015af1d78b58c40000006101208201526902b5e3af16b18800000061014082015269056bc75e2d6310000000610160820152690ad78ebc5ac6200000006101808201526915af1d78b58c400000006101a0820152692b5e3af16b18800000006101c0820152600d54600f600d5580600f106104c1575b50600d5f5260205f20905f5b600f81106104a45761014161052f565b680410d586a20a4c00008152681043561a8829300000602082015268410d586a20a4c0000060408201526901043561a882930000006060820152690410d586a20a4c0000006080820152691043561a88293000000060a082015269410d586a20a4c000000060c082015260165460076016558060071061044e575b5060165f5260205f20905f5b60078110610431576101d861054e565b68056bc75e2d631000008152680ad78ebc5ac620000060208201526815af1d78b58c4000006040820152682b5e3af16b1880000060608201526856bc75e2d631000000608082015268ad78ebc5ac6200000060a082015269015af1d78b58c400000060c08201526902b5e3af16b18800000060e08201526017546008601755806008106103db575b5060175f5260205f20905f5b600881106103be5761027c61052f565b60038152600560208201526007604082015260096060820152600b6080820152600d60a0820152600f60c08201525f5b600781106103a6576102bc61054e565b6004815260056020820152600660408201526007606082015260086080820152600960a0820152600a60c0820152600b60e08201525f5b6008811061038e5761030361054e565b5f815260016020820152600160408201526001606082015260016080820152600160a0820152600160c0820152600160e08201525f5b60088110610376575f6039555f603a555f603b5560016040555f6041555f60425560016047555f6048555f60495560405161256190816105858239f35b600190602060ff845116930192816027015501610339565b600190602060ff84511693019281601f0155016102f3565b600190602060ff8451169301928160180155016102ac565b81516001600160501b03168184015560209091019060010161026c565b60175f5261042b907fc624b66cc0138b8fabc209247f72d758e1cf3343756d543badbf24212bed8c15017fc624b66cc0138b8fabc209247f72d758e1cf3343756d543badbf24212bed8c1d61056e565b81610260565b81516001600160501b0316818401556020909101906001016101c8565b60165f5261049e907fd833147d7dc355ba459fc788f669e58cfaf9dc25ddcd0702e87d69c7b5124289017fd833147d7dc355ba459fc788f669e58cfaf9dc25ddcd0702e87d69c7b512429061056e565b816101bc565b81516001600160501b031681840155602090910190600101610131565b600d5f52610511907fd7b6990105719101dabeb77144f2a3385c8033acd3af97e9423a695e81ad1eb5017fd7b6990105719101dabeb77144f2a3385c8033acd3af97e9423a695e81ad1ec461056e565b5f610125565b634e487b7160e01b5f52604160045260245ffd5b5f80fd5b6040519060e082016001600160401b0381118382101761051757604052565b6040519061010082016001600160401b0381118382101761051757604052565b818110610579575050565b5f815560010161056e56fe610200806040526004361015610013575f80fd5b5f3560e01c90816301c234a8146112ab575080630676d0d6146112815780631c4ecf68146112685780632132d2041461123c5780632350268f146111e257806323fd338e14610b965780632a891534146111c55780632ae0ee0d146111215780632f48ab7d1461119d5780633080b5bc1461118057806331bb6a301461116557806332bc298c1461114857806332fcd96614611126578063375b43b41461112157806339ab3603146110c75780633a5084b3146110aa57806345977d0314610c0757806345cb537c14610bdd5780634b8cbf9b14610bc057806354c5bd9014610b9b57806358c7d35214610b965780635b62d1d514610b79578063705fee2d14610b5b57806376f5f70014610b3e57806378f6ad6d14610b215780637cdc65f214610af957806389043ece14610aca578063956a322814610a9e5780639b40ab9714610a81578063a59d17d114610a64578063a5e52b9914610a47578063ae4708dc146109d9578063bff1f9e1146109bc578063c216212a14610984578063c8df290814610960578063c9ed070814610943578063ca8e912114610926578063cb0e0d7d146108ea578063d0a2fd79146108be578063d2f0490d146108a3578063e898fc3814610886578063e9e34a161461085e578063ebe0ff151461083b578063ec597e6f1461081e578063f207564e1461026b578063f5d74d93146102435763fddc806f14610222575f80fd5b3461023f575f36600319011261023f576020603a54604051908152f35b5f80fd5b3461023f575f36600319011261023f576004546040516001600160a01b039091168152602090f35b3461023f57602036600319011261023f57600435335f52600f60205260405f20546107e457805f526010602052600360405f200154156107ad576001545f906020906102f8906001600160a01b03166102c26112f3565b90546040516323b872dd60e01b815233600482015230602482015260039290921b1c604482015293849283919082906064820190565b03925af180156107a257610775575b50600554906103196006548093611740565b91600181018091116105d257600655335f52600f6020528160405f205561033e6112f3565b90549060031b1c90825f52601060205260405f2091336bffffffffffffffffffffffff60a01b84541617835542600284015583600384015560048301908282556001600685015580600a850155426011850155600f600b850155825f526010602052600760405f2001805490600182018092116105d25755825f5260156020526103cb8560405f206117d7565b805f52600c60205260405f20805490600182018092116105d25755805f52600a60205260405f2054815f52600b60205260405f20865f5260205260405f20555f5f90845f526014602052600260405f2054105f14610647575050845f52601060205282600560405f200155825f52601460205260405f20805490600182018092116105d25755825b5f905b600f82106105e6575b5050600581028115908281046005148217156105d2576064900492603c830291838304603c148117156105d25761049885603b54611740565b603b55602384028481046023148217156105d2576103e86104bc9104604254611740565b604255600f8402848104600f148217156105d2576103e86104e09104604954611740565b604955601984029084820460191417156105d2576064610519936105118a9761050c88858b9704611a8e565b6119d2565b049154611aff565b60405190600182526020820152608060408201527f26adb22cec823ef144935e9fbef1b6b4a3a29dacbe5444d59292fa2620f3d37761057e60808301604090601581527453706f6e736f72736869702053747275637475726560581b60208201520190565b914260608201528033930390a35f526010602052600560018060a01b0360405f2054169101546040519081527f309bb360e8b69c23937ccc5fb01f9aeeead1c95a99604e175113ff82f2b1723a60203392a4005b634e487b7160e01b5f52601160045260245ffd5b801561064257805f526010602052600960405f2001805490600182018092116105d25755805f52601360205260405f20825f526020526106298760405f206117d7565b5f5260106020526001600560405f200154910190610456565b61045f565b5f5b600f8110610659575b5050610453565b8161077057855f52601360205260405f20600182018083116105d2575f5260205260405f2054600282018083116105d25760ff81116105d2576001901b116106a4575b600101610649565b9493909591925f5b855f52601360205260405f20875f5260205260405f2054811015610761578761074f57855f52601360205260405f20875f526020526106ee8160405f20611312565b90549060031b1c805f526014602052600260405f205410610713575b506001016106ac565b9194509650875f52601060205280600560405f200155805f52601460205260405f20805490600182018092116105d2575592600180979061070a565b509291959093946001905b905061069c565b5092919590939460019061075a565b610652565b6107969060203d60201161079b575b61078e81836116f2565b810190611728565b610307565b503d610784565b6040513d5f823e3d90fd5b60405162461bcd60e51b815260206004820152600f60248201526e24b73b30b634b21039b837b739b7b960891b6044820152606490fd5b60405162461bcd60e51b8152602060048201526012602482015271105b1c9958591e481c9959da5cdd195c995960721b6044820152606490fd5b3461023f575f36600319011261023f576020600554604051908152f35b3461023f575f36600319011261023f576020604051683635c9adc5dea000008152f35b3461023f575f36600319011261023f576003546040516001600160a01b039091168152602090f35b3461023f575f36600319011261023f576020604154604051908152f35b3461023f575f36600319011261023f57602060405160058152f35b3461023f57602036600319011261023f57600435600881101561023f57602090601f0154604051908152f35b3461023f57602036600319011261023f576004356001600160a01b0381169081900361023f575f52600f602052602060405f2054604051908152f35b3461023f575f36600319011261023f576020603954604051908152f35b3461023f575f36600319011261023f576020604054604051908152f35b3461023f575f36600319011261023f57602060405169021e19e0c9bab24000008152f35b3461023f57602036600319011261023f57600435600d5481101561023f576109ad6020916112db565b90549060031b1c604051908152f35b3461023f575f36600319011261023f576020600654604051908152f35b3461023f57602036600319011261023f5760043560165481101561023f57601654811015610a335760165f527fd833147d7dc355ba459fc788f669e58cfaf9dc25ddcd0702e87d69c7b51242890154604051908152602090f35b634e487b7160e01b5f52603260045260245ffd5b3461023f575f36600319011261023f5760206040516283d6008152f35b3461023f575f36600319011261023f576020604254604051908152f35b3461023f575f36600319011261023f576020604854604051908152f35b3461023f57602036600319011261023f57600435600881101561023f5760209060270154604051908152f35b3461023f57610ad8366112c5565b905f52600b60205260405f20905f52602052602060405f2054604051908152f35b3461023f575f36600319011261023f576002546040516001600160a01b039091168152602090f35b3461023f575f36600319011261023f576020600954604051908152f35b3461023f575f36600319011261023f57602060405162093a808152f35b3461023f575f36600319011261023f57602060405163025143008152f35b3461023f575f36600319011261023f576020604954604051908152f35b611327565b3461023f576040610bb4610bae366112c5565b90611760565b82519182526020820152f35b3461023f575f36600319011261023f576020604754604051908152f35b3461023f57602036600319011261023f576004355f52600a602052602060405f2054604051908152f35b3461023f57602036600319011261023f57600435805f52601060205260405f20610c3b60018060a01b03825416331461135d565b60068101805491600f83101561106e57610c54836112db565b90546001546040516323b872dd60e01b815233600482015230602482015260039390931b9190911c60448301819052939190602090829060649082905f906001600160a01b03165af180156107a257611051575b50805490600182018092116105d25755600a8101610cc7838254611740565b905560058202908215918381046005148317156105d2576064900491601984028481046019148217156105d257846064610d019204611a8e565b835f52600a60205260405f2054845f52600b60205260405f20875f5260205260405f2055610d2e836119d2565b835f52600c60205260405f20805490600182018092116105d25755601484028481046014148217156105d25760649004600483019384549160018801978881116105d2578882610d8682610d9e958e610da699611b2f565b8b60058901610d988484848454611b6e565b54611da3565b603b54611740565b603b55602384028481046023148217156105d2576103e8610dca9104604254611740565b604255600f840290848204600f1417156105d2576103e8610dee9104604954611740565b604955600a8414610f6b575b600f8414610e77575b50506040519182526020820152608060408201527f26adb22cec823ef144935e9fbef1b6b4a3a29dacbe5444d59292fa2620f3d377610e6860808301604090601581527453706f6e736f72736869702053747275637475726560581b60208201520190565b914260608201528033930390a3005b601342910155835f52601060205260405f2090545f52601060205260405f20601581018054600181018091116105d257806002925510159081610f4d575b81610f3d575b50610f27575b6002601582015410159081610f04575b81610ef5575b50610ee4575b8380610e03565b610ef06047548461224e565b610edd565b600f9150600601541484610ed7565b90506013810154601182015490630251430082018092116105d257111590610ed1565b610f3860048201546047549061224e565b610ec1565b600f915060060154101585610ebb565b90506011810154630251430081018091116105d25742111590610eb5565b4260128201555f85815260106020526040808220845483529120601481018054600181019081106105d257806005925510159081611034575b81611024575b5061100e575b6005601482015410159081610fec575b81610fdd575b5015610dfa57610fd8604054866120ed565b610dfa565b600a9150600601541486610fc6565b905060128101546011820154906283d60082018092116105d257111590610fc0565b61101f6004820154604054906120ed565b610fb0565b600a915060060154101587610faa565b905060118101546283d60081018091116105d25742111590610fa4565b6110699060203d60201161079b5761078e81836116f2565b610ca8565b60405162461bcd60e51b8152602060048201526014602482015273105b1c9958591e48185d081b585e081b195d995b60621b6044820152606490fd5b3461023f575f36600319011261023f5760206040516202a3008152f35b3461023f57602036600319011261023f5760043560075481101561023f57600754811015610a335760075f527fa66cc928b5edb82af9bd49922954155ab7b0942694bea4ce44661d9a8736c6880154604051908152602090f35b611342565b3461023f575f36600319011261023f576020604051670de0b6b3a76400008152f35b3461023f575f36600319011261023f576020604051620151808152f35b3461023f575f36600319011261023f57602060405160028152f35b3461023f575f36600319011261023f576020603b54604051908152f35b3461023f575f36600319011261023f576001546040516001600160a01b039091168152602090f35b3461023f575f36600319011261023f57602060405162278d008152f35b3461023f57602036600319011261023f5760043560175481101561023f57601754811015610a335760175f527fc624b66cc0138b8fabc209247f72d758e1cf3343756d543badbf24212bed8c150154604051908152602090f35b3461023f57602036600319011261023f57600435600781101561023f5760209060180154604051908152f35b3461023f5761127f611279366112c5565b906113c7565b005b3461023f57602036600319011261023f576004355f52600c602052602060405f2054604051908152f35b3461023f575f36600319011261023f578061271060209252f35b604090600319011261023f576004359060243590565b600d54811015610a3357600d5f5260205f2001905f90565b600d5415610a3357600d5f9081525f5160206124ec5f395f51905f5291565b8054821015610a33575f5260205f2001905f90565b3461023f575f36600319011261023f576020604051600a8152f35b3461023f575f36600319011261023f576020604051600f8152f35b1561136457565b60405162461bcd60e51b815260206004820152601060248201526f139bdd081e5bdd5c881858d8dbdd5b9d60821b6044820152606490fd5b919082039182116105d257565b81156113b3570490565b634e487b7160e01b5f52601260045260245ffd5b805f52601060205260405f206003810154156116bc57600683916113f560018060a01b03825416331461135d565b01540361168557815f52600a60205260405f205491805f52600b60205260405f20825f5260205260405f205480841461167f5761143b670de0b6b3a7640000918561139c565b049182156116655761144d8382611810565b93825f52600b60205260405f20825f5260205260405f2055831590811561148c575b50505081811161147d575050565b61148a9161050c9161139c565b565b9194909293825f52601060205260405f209460018060a01b03865416948515611631576115fe57835f52601160205260405f20966114cb838954611740565b8855600688016114dc848254611740565b90556040519788896020600d549283815201600d5f525f5160206124ec5f395f51905f52925f5b8181106115e55750506115189250038a6116f2565b549560065f9801975b8854811015611591578951811015610a335780602060019260051b8c010151805f52600e60205260405f20895f52602052600260405f20019081549060ff8216159081611586575b50611577575b505001611521565b60ff1916831790555f8061156f565b90508b10155f611569565b5092965092965093506115af858260018060a01b036001541661236b565b60405185815260208101929092525f51602061250c5f395f51905f526080836004604087960152426060820152a45f808061146f565b845483526001948501948e945060209093019201611503565b60405162461bcd60e51b815260206004820152600b60248201526a16995c9bc8185b5bdd5b9d60aa1b6044820152606490fd5b60405162461bcd60e51b815260206004820152600c60248201526b24b73b30b634b2103ab9b2b960a11b6044820152606490fd5b91505f52600b60205260405f20905f5260205260405f2055565b50505050565b60405162461bcd60e51b815260206004820152600f60248201526e496e76616c6964207061636b61676560881b6044820152606490fd5b60405162461bcd60e51b815260206004820152600e60248201526d155cd95c881b9bdd08199bdd5b9960921b6044820152606490fd5b90601f8019910116810190811067ffffffffffffffff82111761171457604052565b634e487b7160e01b5f52604160045260245ffd5b9081602091031261023f5751801515810361023f5790565b919082018092116105d257565b818102929181159184041417156105d257565b9190825f526010602052600360405f200154156117cf57805f52600a60205260405f2054905f52600b60205260405f20835f5260205260405f205490818111156117c5576117ba6117c292670de0b6b3a76400009261139c565b048093611810565b90565b505090505f905f90565b505f91508190565b805468010000000000000000811015611714576117f991600182018155611312565b819291549060031b91821b915f19901b1916179055565b805f52601060205260405f20905f526011602052600a61183c60405f209282600b82015491015461174d565b04905481811015611862576118509161139c565b908181111561185d575090565b905090565b5050505f90565b90929193815f52601060205260405f209360018060a01b0385541680156116315786156115fe57835f52601160205260405f20966118a8818954611740565b8855600188016118b9828254611740565b90556040519788896020600d549283815201600d5f525f5160206124ec5f395f51905f52925f5b8181106119b95750506118f59250038a6116f2565b549560065f9801975b885481101561196e578951811015610a335780602060019260051b8c010151805f52600e60205260405f20895f52602052600260405f20019081549060ff8216159081611963575b50611954575b5050016118fe565b60ff1916831790555f8061194c565b90508b10155f611946565b5092965092965092935061198d828460018060a01b036001541661236b565b6040519182526020820152608081600160405f51602061250c5f395f51905f52940152426060820152a4565b845483526001948501948e9450602090930192016118e0565b6002546001600160a01b0316908115611a5557600154608092611a00918391906001600160a01b031661236b565b6005545f52601160205260405f20611a19828254611740565b905560018060a01b03600254165f51602061250c5f395f51905f526005549384936040519081525f60208201525f6040820152426060820152a4565b60405162461bcd60e51b8152602060048201526011602482015270199959481859191c9cc81b9bdd081cd95d607a1b6044820152606490fd5b905f52600c60205260405f20549081158015611af7575b611ae457670de0b6b3a7640000810290808204670de0b6b3a764000014901517156105d257611adf91611ad7916113a9565b600954611740565b600955565b809150611aee5750565b61148a906119d2565b508015611aa5565b80158015611b24575b611b19579160019161148a93611869565b505061148a906119d2565b506005548114611b08565b92919083158015611b55575b611b485761148a93611869565b50905061148a91506119d2565b506005548414611b3b565b5f1981146105d25760010190565b60055481148015611d9b575b611d8f5760015b848110611d5e5750925f935b80151580611d52575b80611d48575b15611d3b57805f52601060205260405f20908260068301541015611bcf57506005611bc991015494611b60565b93611b8d565b929450509193815f52601060205260405f209360018060a01b0385541680156116315786156115fe57835f52601160205260405f2096611c10818954611740565b885560028801611c21828254611740565b90556040519788896020600d549283815201600d5f525f5160206124ec5f395f51905f52925f5b818110611d22575050611c5d9250038a6116f2565b549560065f9801975b8854811015611cd6578951811015610a335780602060019260051b8c010151805f52600e60205260405f20895f52602052600260405f20019081549060ff8216159081611ccb575b50611cbc575b505001611c66565b60ff1916831790555f80611cb4565b90508b10155f611cae565b50929650929650929350611cf5828460018060a01b036001541661236b565b604051918252602082015260028160809160405f51602061250c5f395f51905f52940152426060820152a4565b845483526001948501948e945060209093019201611c48565b50505061148a91506119d2565b50600f8510611b9c565b50600554811415611b96565b905f526010602052600560405f2001549081158015611d84575b611d3b57600101611b81565b506005548214611d78565b505061148a91506119d2565b508015611b7a565b9094939291608052801580156120e2575b80156120da575b6120ca57611dcb836080516113a9565b6101e052611de7611ddf846101e05161174d565b60805161139c565b60e052610160525f915f60a0526001915f610100525b601e6101005110611e44575b505050611e1a91925060805161139c565b80611e35575b5060e051611e2a57565b61148a60e0516119d2565b611e3e906119d2565b5f611e20565b61016093919293511580156120bc575b6120a257610160515f52601060205260405f206101205280600661012051015410155f1461208757611e89846101e05161174d565b610160515f9081526010602052604090206101a0819052546001600160a01b03169283156116315781156115fe57610160515f52601160205260405f206101c052611ed8826101c05154611740565b6101c0515560036101c05101611eef838254611740565b9055604051610180526101805161014052600d548061018051526020610180510161018052600d5f525f5160206124ec5f395f51905f525f905b82821061206857505050611f48610140516101805103610140516116f2565b6101c0515460c0525f5b60066101a0510154811015611fd3576101405151811015610a335780602060019260051b61014051010151805f52600e60205260405f20610160515f52602052600260405f20019081549060ff8216159081611fc6575b50611fb7575b505001611f52565b60ff1916831790555f80611faf565b905060c05110155f611fa9565b5091939290611fed818360018060a01b036001541661236b565b604051818152602081018690529260038461202d948b9260406120369801524260608301525f51602061250c5f395f51905f5260806101605193a4611740565b9360a051611740565b60a0526001915b8160a0511015612063576005610120510154610160526001610100510161010052611dfd565b611e09565b6001818192546101805152602061018051016101805201910190611f29565b8284939294101561203d579161209c90611b60565b9161203d565b509150506120b491925060805161139c565b80611aee5750565b506005546101605114611e54565b505050905061148a6080516119d2565b508215611dbb565b506005548114611db4565b90815f52604560205260ff600460405f200154161561210a575050565b61211760405482146123f9565b805f52604360205261213360ff600860405f2001541615612435565b815f52601060205260405f209160128301548015612215576011840154936283d60085018095116105d2577f42ee5ef523a95c6fb3ffdd2e9b34955b83ea8c2b11ff268c87ae6ea25556eaac946121ad9211159060056014600a600684015410159201541015908261220d575b5081612205575b50612470565b805f52604560205260405f206001600482019184828454926121d260ff8516156124ab565b428155015560ff19161790556122006040519283924291846040919493926060820195825260208201520152565b0390a1565b90505f6121a7565b91505f6121a0565b60405162461bcd60e51b8152602060048201526011602482015270055736572206e6f74206c6576656c20313607c1b6044820152606490fd5b90815f52604c60205260ff600460405f200154161561226b575050565b61227860475482146123f9565b805f52604a60205261229460ff600860405f2001541615612435565b815f52601060205260405f20916013830154801561233257601184015493630251430085018095116105d2577f42ee5ef523a95c6fb3ffdd2e9b34955b83ea8c2b11ff268c87ae6ea25556eaac9461230d9211159060026015600f600684015410159201541015908261220d5750816122055750612470565b805f52604c60205260405f206001600482019184828454926121d260ff8516156124ab565b60405162461bcd60e51b815260206004820152601160248201527055736572206e6f74206c6576656c20313560781b6044820152606490fd5b60405163a9059cbb60e01b60208281019182526001600160a01b03909416602483015260448083019590955293815290925f916123a96064826116f2565b519082855af1156107a2575f513d6123f057506001600160a01b0381163b155b6123d05750565b635274afe760e01b5f9081526001600160a01b0391909116600452602490fd5b600114156123c9565b1561240057565b60405162461bcd60e51b815260206004820152600d60248201526c125b9d985b1a59081c9bdd5b99609a1b6044820152606490fd5b1561243c57565b60405162461bcd60e51b815260206004820152600c60248201526b149bdd5b990818db1bdcd95960a21b6044820152606490fd5b1561247757565b60405162461bcd60e51b815260206004820152600c60248201526b4e6f7420656c696769626c6560a01b6044820152606490fd5b156124b257565b60405162461bcd60e51b8152602060048201526011602482015270185b1c9958591e48145d585b1a599a5959607a1b6044820152606490fdfed7b6990105719101dabeb77144f2a3385c8033acd3af97e9423a695e81ad1eb54d634c31300b97dad99b3af799178230163d88ad306370d063be9cd992d0be7fa2646970667358221220a5bf1dcfc5e114cda195864397a4355a5cf9c469064c190a6d3fe5968879677f64736f6c634300081e0033",
			"opcodes": "PUSH1 0x80 PUSH1 0x40 MSTORE CALLVALUE PUSH2 0x52B JUMPI PUSH1 0x1 PUSH0 SSTORE PUSH1 0x40 MLOAD PUSH2 0x1E0 DUP2 ADD PUSH1 0x1 PUSH1 0x1 PUSH1 0x40 SHL SUB DUP2 GT DUP3 DUP3 LT OR PUSH2 0x517 JUMPI PUSH1 0x40 MSTORE PUSH8 0xD02AB486CEDC0000 DUP2 MSTORE PUSH9 0x15AF1D78B58C40000 PUSH1 0x20 DUP3 ADD MSTORE PUSH9 0x2B5E3AF16B1880000 PUSH1 0x40 DUP3 ADD MSTORE PUSH9 0x56BC75E2D63100000 PUSH1 0x60 DUP3 ADD MSTORE PUSH9 0xAD78EBC5AC6200000 PUSH1 0x80 DUP3 ADD MSTORE PUSH9 0x15AF1D78B58C400000 PUSH1 0xA0 DUP3 ADD MSTORE PUSH9 0x2B5E3AF16B18800000 PUSH1 0xC0 DUP3 ADD MSTORE PUSH9 0x56BC75E2D631000000 PUSH1 0xE0 DUP3 ADD MSTORE PUSH9 0xAD78EBC5AC62000000 PUSH2 0x100 DUP3 ADD MSTORE PUSH10 0x15AF1D78B58C4000000 PUSH2 0x120 DUP3 ADD MSTORE PUSH10 0x2B5E3AF16B188000000 PUSH2 0x140 DUP3 ADD MSTORE PUSH10 0x56BC75E2D6310000000 PUSH2 0x160 DUP3 ADD MSTORE PUSH10 0xAD78EBC5AC620000000 PUSH2 0x180 DUP3 ADD MSTORE PUSH10 0x15AF1D78B58C40000000 PUSH2 0x1A0 DUP3 ADD MSTORE PUSH10 0x2B5E3AF16B1880000000 PUSH2 0x1C0 DUP3 ADD MSTORE PUSH1 0xD SLOAD PUSH1 0xF PUSH1 0xD SSTORE DUP1 PUSH1 0xF LT PUSH2 0x4C1 JUMPI JUMPDEST POP PUSH1 0xD PUSH0 MSTORE PUSH1 0x20 PUSH0 KECCAK256 SWAP1 PUSH0 JUMPDEST PUSH1 0xF DUP2 LT PUSH2 0x4A4 JUMPI PUSH2 0x141 PUSH2 0x52F JUMP JUMPDEST PUSH9 0x410D586A20A4C0000 DUP2 MSTORE PUSH9 0x1043561A8829300000 PUSH1 0x20 DUP3 ADD MSTORE PUSH9 0x410D586A20A4C00000 PUSH1 0x40 DUP3 ADD MSTORE PUSH10 0x1043561A88293000000 PUSH1 0x60 DUP3 ADD MSTORE PUSH10 0x410D586A20A4C000000 PUSH1 0x80 DUP3 ADD MSTORE PUSH10 0x1043561A882930000000 PUSH1 0xA0 DUP3 ADD MSTORE PUSH10 0x410D586A20A4C0000000 PUSH1 0xC0 DUP3 ADD MSTORE PUSH1 0x16 SLOAD PUSH1 0x7 PUSH1 0x16 SSTORE DUP1 PUSH1 0x7 LT PUSH2 0x44E JUMPI JUMPDEST POP PUSH1 0x16 PUSH0 MSTORE PUSH1 0x20 PUSH0 KECCAK256 SWAP1 PUSH0 JUMPDEST PUSH1 0x7 DUP2 LT PUSH2 0x431 JUMPI PUSH2 0x1D8 PUSH2 0x54E JUMP JUMPDEST PUSH9 0x56BC75E2D63100000 DUP2 MSTORE PUSH9 0xAD78EBC5AC6200000 PUSH1 0x20 DUP3 ADD MSTORE PUSH9 0x15AF1D78B58C400000 PUSH1 0x40 DUP3 ADD MSTORE PUSH9 0x2B5E3AF16B18800000 PUSH1 0x60 DUP3 ADD MSTORE PUSH9 0x56BC75E2D631000000 PUSH1 0x80 DUP3 ADD MSTORE PUSH9 0xAD78EBC5AC62000000 PUSH1 0xA0 DUP3 ADD MSTORE PUSH10 0x15AF1D78B58C4000000 PUSH1 0xC0 DUP3 ADD MSTORE PUSH10 0x2B5E3AF16B188000000 PUSH1 0xE0 DUP3 ADD MSTORE PUSH1 0x17 SLOAD PUSH1 0x8 PUSH1 0x17 SSTORE DUP1 PUSH1 0x8 LT PUSH2 0x3DB JUMPI JUMPDEST POP PUSH1 0x17 PUSH0 MSTORE PUSH1 0x20 PUSH0 KECCAK256 SWAP1 PUSH0 JUMPDEST PUSH1 0x8 DUP2 LT PUSH2 0x3BE JUMPI PUSH2 0x27C PUSH2 0x52F JUMP JUMPDEST PUSH1 0x3 DUP2 MSTORE PUSH1 0x5 PUSH1 0x20 DUP3 ADD MSTORE PUSH1 0x7 PUSH1 0x40 DUP3 ADD MSTORE PUSH1 0x9 PUSH1 0x60 DUP3 ADD MSTORE PUSH1 0xB PUSH1 0x80 DUP3 ADD MSTORE PUSH1 0xD PUSH1 0xA0 DUP3 ADD MSTORE PUSH1 0xF PUSH1 0xC0 DUP3 ADD MSTORE PUSH0 JUMPDEST PUSH1 0x7 DUP2 LT PUSH2 0x3A6 JUMPI PUSH2 0x2BC PUSH2 0x54E JUMP JUMPDEST PUSH1 0x4 DUP2 MSTORE PUSH1 0x5 PUSH1 0x20 DUP3 ADD MSTORE PUSH1 0x6 PUSH1 0x40 DUP3 ADD MSTORE PUSH1 0x7 PUSH1 0x60 DUP3 ADD MSTORE PUSH1 0x8 PUSH1 0x80 DUP3 ADD MSTORE PUSH1 0x9 PUSH1 0xA0 DUP3 ADD MSTORE PUSH1 0xA PUSH1 0xC0 DUP3 ADD MSTORE PUSH1 0xB PUSH1 0xE0 DUP3 ADD MSTORE PUSH0 JUMPDEST PUSH1 0x8 DUP2 LT PUSH2 0x38E JUMPI PUSH2 0x303 PUSH2 0x54E JUMP JUMPDEST PUSH0 DUP2 MSTORE PUSH1 0x1 PUSH1 0x20 DUP3 ADD MSTORE PUSH1 0x1 PUSH1 0x40 DUP3 ADD MSTORE PUSH1 0x1 PUSH1 0x60 DUP3 ADD MSTORE PUSH1 0x1 PUSH1 0x80 DUP3 ADD MSTORE PUSH1 0x1 PUSH1 0xA0 DUP3 ADD MSTORE PUSH1 0x1 PUSH1 0xC0 DUP3 ADD MSTORE PUSH1 0x1 PUSH1 0xE0 DUP3 ADD MSTORE PUSH0 JUMPDEST PUSH1 0x8 DUP2 LT PUSH2 0x376 JUMPI PUSH0 PUSH1 0x39 SSTORE PUSH0 PUSH1 0x3A SSTORE PUSH0 PUSH1 0x3B SSTORE PUSH1 0x1 PUSH1 0x40 SSTORE PUSH0 PUSH1 0x41 SSTORE PUSH0 PUSH1 0x42 SSTORE PUSH1 0x1 PUSH1 0x47 SSTORE PUSH0 PUSH1 0x48 SSTORE PUSH0 PUSH1 0x49 SSTORE PUSH1 0x40 MLOAD PUSH2 0x2561 SWAP1 DUP2 PUSH2 0x585 DUP3 CODECOPY RETURN JUMPDEST PUSH1 0x1 SWAP1 PUSH1 0x20 PUSH1 0xFF DUP5 MLOAD AND SWAP4 ADD SWAP3 DUP2 PUSH1 0x27 ADD SSTORE ADD PUSH2 0x339 JUMP JUMPDEST PUSH1 0x1 SWAP1 PUSH1 0x20 PUSH1 0xFF DUP5 MLOAD AND SWAP4 ADD SWAP3 DUP2 PUSH1 0x1F ADD SSTORE ADD PUSH2 0x2F3 JUMP JUMPDEST PUSH1 0x1 SWAP1 PUSH1 0x20 PUSH1 0xFF DUP5 MLOAD AND SWAP4 ADD SWAP3 DUP2 PUSH1 0x18 ADD SSTORE ADD PUSH2 0x2AC JUMP JUMPDEST DUP2 MLOAD PUSH1 0x1 PUSH1 0x1 PUSH1 0x50 SHL SUB AND DUP2 DUP5 ADD SSTORE PUSH1 0x20 SWAP1 SWAP2 ADD SWAP1 PUSH1 0x1 ADD PUSH2 0x26C JUMP JUMPDEST PUSH1 0x17 PUSH0 MSTORE PUSH2 0x42B SWAP1 PUSH32 0xC624B66CC0138B8FABC209247F72D758E1CF3343756D543BADBF24212BED8C15 ADD PUSH32 0xC624B66CC0138B8FABC209247F72D758E1CF3343756D543BADBF24212BED8C1D PUSH2 0x56E JUMP JUMPDEST DUP2 PUSH2 0x260 JUMP JUMPDEST DUP2 MLOAD PUSH1 0x1 PUSH1 0x1 PUSH1 0x50 SHL SUB AND DUP2 DUP5 ADD SSTORE PUSH1 0x20 SWAP1 SWAP2 ADD SWAP1 PUSH1 0x1 ADD PUSH2 0x1C8 JUMP JUMPDEST PUSH1 0x16 PUSH0 MSTORE PUSH2 0x49E SWAP1 PUSH32 0xD833147D7DC355BA459FC788F669E58CFAF9DC25DDCD0702E87D69C7B5124289 ADD PUSH32 0xD833147D7DC355BA459FC788F669E58CFAF9DC25DDCD0702E87D69C7B5124290 PUSH2 0x56E JUMP JUMPDEST DUP2 PUSH2 0x1BC JUMP JUMPDEST DUP2 MLOAD PUSH1 0x1 PUSH1 0x1 PUSH1 0x50 SHL SUB AND DUP2 DUP5 ADD SSTORE PUSH1 0x20 SWAP1 SWAP2 ADD SWAP1 PUSH1 0x1 ADD PUSH2 0x131 JUMP JUMPDEST PUSH1 0xD PUSH0 MSTORE PUSH2 0x511 SWAP1 PUSH32 0xD7B6990105719101DABEB77144F2A3385C8033ACD3AF97E9423A695E81AD1EB5 ADD PUSH32 0xD7B6990105719101DABEB77144F2A3385C8033ACD3AF97E9423A695E81AD1EC4 PUSH2 0x56E JUMP JUMPDEST PUSH0 PUSH2 0x125 JUMP JUMPDEST PUSH4 0x4E487B71 PUSH1 0xE0 SHL PUSH0 MSTORE PUSH1 0x41 PUSH1 0x4 MSTORE PUSH1 0x24 PUSH0 REVERT JUMPDEST PUSH0 DUP1 REVERT JUMPDEST PUSH1 0x40 MLOAD SWAP1 PUSH1 0xE0 DUP3 ADD PUSH1 0x1 PUSH1 0x1 PUSH1 0x40 SHL SUB DUP2 GT DUP4 DUP3 LT OR PUSH2 0x517 JUMPI PUSH1 0x40 MSTORE JUMP JUMPDEST PUSH1 0x40 MLOAD SWAP1 PUSH2 0x100 DUP3 ADD PUSH1 0x1 PUSH1 0x1 PUSH1 0x40 SHL SUB DUP2 GT DUP4 DUP3 LT OR PUSH2 0x517 JUMPI PUSH1 0x40 MSTORE JUMP JUMPDEST DUP2 DUP2 LT PUSH2 0x579 JUMPI POP POP JUMP JUMPDEST PUSH0 DUP2 SSTORE PUSH1 0x1 ADD PUSH2 0x56E JUMP INVALID PUSH2 0x200 DUP1 PUSH1 0x40 MSTORE PUSH1 0x4 CALLDATASIZE LT ISZERO PUSH2 0x13 JUMPI PUSH0 DUP1 REVERT JUMPDEST PUSH0 CALLDATALOAD PUSH1 0xE0 SHR SWAP1 DUP2 PUSH4 0x1C234A8 EQ PUSH2 0x12AB JUMPI POP DUP1 PUSH4 0x676D0D6 EQ PUSH2 0x1281 JUMPI DUP1 PUSH4 0x1C4ECF68 EQ PUSH2 0x1268 JUMPI DUP1 PUSH4 0x2132D204 EQ PUSH2 0x123C JUMPI DUP1 PUSH4 0x2350268F EQ PUSH2 0x11E2 JUMPI DUP1 PUSH4 0x23FD338E EQ PUSH2 0xB96 JUMPI DUP1 PUSH4 0x2A891534 EQ PUSH2 0x11C5 JUMPI DUP1 PUSH4 0x2AE0EE0D EQ PUSH2 0x1121 JUMPI DUP1 PUSH4 0x2F48AB7D EQ PUSH2 0x119D JUMPI DUP1 PUSH4 0x3080B5BC EQ PUSH2 0x1180 JUMPI DUP1 PUSH4 0x31BB6A30 EQ PUSH2 0x1165 JUMPI DUP1 PUSH4 0x32BC298C EQ PUSH2 0x1148 JUMPI DUP1 PUSH4 0x32FCD966 EQ PUSH2 0x1126 JUMPI DUP1 PUSH4 0x375B43B4 EQ PUSH2 0x1121 JUMPI DUP1 PUSH4 0x39AB3603 EQ PUSH2 0x10C7 JUMPI DUP1 PUSH4 0x3A5084B3 EQ PUSH2 0x10AA JUMPI DUP1 PUSH4 0x45977D03 EQ PUSH2 0xC07 JUMPI DUP1 PUSH4 0x45CB537C EQ PUSH2 0xBDD JUMPI DUP1 PUSH4 0x4B8CBF9B EQ PUSH2 0xBC0 JUMPI DUP1 PUSH4 0x54C5BD90 EQ PUSH2 0xB9B JUMPI DUP1 PUSH4 0x58C7D352 EQ PUSH2 0xB96 JUMPI DUP1 PUSH4 0x5B62D1D5 EQ PUSH2 0xB79 JUMPI DUP1 PUSH4 0x705FEE2D EQ PUSH2 0xB5B JUMPI DUP1 PUSH4 0x76F5F700 EQ PUSH2 0xB3E JUMPI DUP1 PUSH4 0x78F6AD6D EQ PUSH2 0xB21 JUMPI DUP1 PUSH4 0x7CDC65F2 EQ PUSH2 0xAF9 JUMPI DUP1 PUSH4 0x89043ECE EQ PUSH2 0xACA JUMPI DUP1 PUSH4 0x956A3228 EQ PUSH2 0xA9E JUMPI DUP1 PUSH4 0x9B40AB97 EQ PUSH2 0xA81 JUMPI DUP1 PUSH4 0xA59D17D1 EQ PUSH2 0xA64 JUMPI DUP1 PUSH4 0xA5E52B99 EQ PUSH2 0xA47 JUMPI DUP1 PUSH4 0xAE4708DC EQ PUSH2 0x9D9 JUMPI DUP1 PUSH4 0xBFF1F9E1 EQ PUSH2 0x9BC JUMPI DUP1 PUSH4 0xC216212A EQ PUSH2 0x984 JUMPI DUP1 PUSH4 0xC8DF2908 EQ PUSH2 0x960 JUMPI DUP1 PUSH4 0xC9ED0708 EQ PUSH2 0x943 JUMPI DUP1 PUSH4 0xCA8E9121 EQ PUSH2 0x926 JUMPI DUP1 PUSH4 0xCB0E0D7D EQ PUSH2 0x8EA JUMPI DUP1 PUSH4 0xD0A2FD79 EQ PUSH2 0x8BE JUMPI DUP1 PUSH4 0xD2F0490D EQ PUSH2 0x8A3 JUMPI DUP1 PUSH4 0xE898FC38 EQ PUSH2 0x886 JUMPI DUP1 PUSH4 0xE9E34A16 EQ PUSH2 0x85E JUMPI DUP1 PUSH4 0xEBE0FF15 EQ PUSH2 0x83B JUMPI DUP1 PUSH4 0xEC597E6F EQ PUSH2 0x81E JUMPI DUP1 PUSH4 0xF207564E EQ PUSH2 0x26B JUMPI DUP1 PUSH4 0xF5D74D93 EQ PUSH2 0x243 JUMPI PUSH4 0xFDDC806F EQ PUSH2 0x222 JUMPI PUSH0 DUP1 REVERT JUMPDEST CALLVALUE PUSH2 0x23F JUMPI PUSH0 CALLDATASIZE PUSH1 0x3 NOT ADD SLT PUSH2 0x23F JUMPI PUSH1 0x20 PUSH1 0x3A SLOAD PUSH1 0x40 MLOAD SWAP1 DUP2 MSTORE RETURN JUMPDEST PUSH0 DUP1 REVERT JUMPDEST CALLVALUE PUSH2 0x23F JUMPI PUSH0 CALLDATASIZE PUSH1 0x3 NOT ADD SLT PUSH2 0x23F JUMPI PUSH1 0x4 SLOAD PUSH1 0x40 MLOAD PUSH1 0x1 PUSH1 0x1 PUSH1 0xA0 SHL SUB SWAP1 SWAP2 AND DUP2 MSTORE PUSH1 0x20 SWAP1 RETURN JUMPDEST CALLVALUE PUSH2 0x23F JUMPI PUSH1 0x20 CALLDATASIZE PUSH1 0x3 NOT ADD SLT PUSH2 0x23F JUMPI PUSH1 0x4 CALLDATALOAD CALLER PUSH0 MSTORE PUSH1 0xF PUSH1 0x20 MSTORE PUSH1 0x40 PUSH0 KECCAK256 SLOAD PUSH2 0x7E4 JUMPI DUP1 PUSH0 MSTORE PUSH1 0x10 PUSH1 0x20 MSTORE PUSH1 0x3 PUSH1 0x40 PUSH0 KECCAK256 ADD SLOAD ISZERO PUSH2 0x7AD JUMPI PUSH1 0x1 SLOAD PUSH0 SWAP1 PUSH1 0x20 SWAP1 PUSH2 0x2F8 SWAP1 PUSH1 0x1 PUSH1 0x1 PUSH1 0xA0 SHL SUB AND PUSH2 0x2C2 PUSH2 0x12F3 JUMP JUMPDEST SWAP1 SLOAD PUSH1 0x40 MLOAD PUSH4 0x23B872DD PUSH1 0xE0 SHL DUP2 MSTORE CALLER PUSH1 0x4 DUP3 ADD MSTORE ADDRESS PUSH1 0x24 DUP3 ADD MSTORE PUSH1 0x3 SWAP3 SWAP1 SWAP3 SHL SHR PUSH1 0x44 DUP3 ADD MSTORE SWAP4 DUP5 SWAP3 DUP4 SWAP2 SWAP1 DUP3 SWAP1 PUSH1 0x64 DUP3 ADD SWAP1 JUMP JUMPDEST SUB SWAP3 GAS CALL DUP1 ISZERO PUSH2 0x7A2 JUMPI PUSH2 0x775 JUMPI JUMPDEST POP PUSH1 0x5 SLOAD SWAP1 PUSH2 0x319 PUSH1 0x6 SLOAD DUP1 SWAP4 PUSH2 0x1740 JUMP JUMPDEST SWAP2 PUSH1 0x1 DUP2 ADD DUP1 SWAP2 GT PUSH2 0x5D2 JUMPI PUSH1 0x6 SSTORE CALLER PUSH0 MSTORE PUSH1 0xF PUSH1 0x20 MSTORE DUP2 PUSH1 0x40 PUSH0 KECCAK256 SSTORE PUSH2 0x33E PUSH2 0x12F3 JUMP JUMPDEST SWAP1 SLOAD SWAP1 PUSH1 0x3 SHL SHR SWAP1 DUP3 PUSH0 MSTORE PUSH1 0x10 PUSH1 0x20 MSTORE PUSH1 0x40 PUSH0 KECCAK256 SWAP2 CALLER PUSH12 0xFFFFFFFFFFFFFFFFFFFFFFFF PUSH1 0xA0 SHL DUP5 SLOAD AND OR DUP4 SSTORE TIMESTAMP PUSH1 0x2 DUP5 ADD SSTORE DUP4 PUSH1 0x3 DUP5 ADD SSTORE PUSH1 0x4 DUP4 ADD SWAP1 DUP3 DUP3 SSTORE PUSH1 0x1 PUSH1 0x6 DUP6 ADD SSTORE DUP1 PUSH1 0xA DUP6 ADD SSTORE TIMESTAMP PUSH1 0x11 DUP6 ADD SSTORE PUSH1 0xF PUSH1 0xB DUP6 ADD SSTORE DUP3 PUSH0 MSTORE PUSH1 0x10 PUSH1 0x20 MSTORE PUSH1 0x7 PUSH1 0x40 PUSH0 KECCAK256 ADD DUP1 SLOAD SWAP1 PUSH1 0x1 DUP3 ADD DUP1 SWAP3 GT PUSH2 0x5D2 JUMPI SSTORE DUP3 PUSH0 MSTORE PUSH1 0x15 PUSH1 0x20 MSTORE PUSH2 0x3CB DUP6 PUSH1 0x40 PUSH0 KECCAK256 PUSH2 0x17D7 JUMP JUMPDEST DUP1 PUSH0 MSTORE PUSH1 0xC PUSH1 0x20 MSTORE PUSH1 0x40 PUSH0 KECCAK256 DUP1 SLOAD SWAP1 PUSH1 0x1 DUP3 ADD DUP1 SWAP3 GT PUSH2 0x5D2 JUMPI SSTORE DUP1 PUSH0 MSTORE PUSH1 0xA PUSH1 0x20 MSTORE PUSH1 0x40 PUSH0 KECCAK256 SLOAD DUP2 PUSH0 MSTORE PUSH1 0xB PUSH1 0x20 MSTORE PUSH1 0x40 PUSH0 KECCAK256 DUP7 PUSH0 MSTORE PUSH1 0x20 MSTORE PUSH1 0x40 PUSH0 KECCAK256 SSTORE PUSH0 PUSH0 SWAP1 DUP5 PUSH0 MSTORE PUSH1 0x14 PUSH1 0x20 MSTORE PUSH1 0x2 PUSH1 0x40 PUSH0 KECCAK256 SLOAD LT PUSH0 EQ PUSH2 0x647 JUMPI POP POP DUP5 PUSH0 MSTORE PUSH1 0x10 PUSH1 0x20 MSTORE DUP3 PUSH1 0x5 PUSH1 0x40 PUSH0 KECCAK256 ADD SSTORE DUP3 PUSH0 MSTORE PUSH1 0x14 PUSH1 0x20 MSTORE PUSH1 0x40 PUSH0 KECCAK256 DUP1 SLOAD SWAP1 PUSH1 0x1 DUP3 ADD DUP1 SWAP3 GT PUSH2 0x5D2 JUMPI SSTORE DUP3 JUMPDEST PUSH0 SWAP1 JUMPDEST PUSH1 0xF DUP3 LT PUSH2 0x5E6 JUMPI JUMPDEST POP POP PUSH1 0x5 DUP2 MUL DUP2 ISZERO SWAP1 DUP3 DUP2 DIV PUSH1 0x5 EQ DUP3 OR ISZERO PUSH2 0x5D2 JUMPI PUSH1 0x64 SWAP1 DIV SWAP3 PUSH1 0x3C DUP4 MUL SWAP2 DUP4 DUP4 DIV PUSH1 0x3C EQ DUP2 OR ISZERO PUSH2 0x5D2 JUMPI PUSH2 0x498 DUP6 PUSH1 0x3B SLOAD PUSH2 0x1740 JUMP JUMPDEST PUSH1 0x3B SSTORE PUSH1 0x23 DUP5 MUL DUP5 DUP2 DIV PUSH1 0x23 EQ DUP3 OR ISZERO PUSH2 0x5D2 JUMPI PUSH2 0x3E8 PUSH2 0x4BC SWAP2 DIV PUSH1 0x42 SLOAD PUSH2 0x1740 JUMP JUMPDEST PUSH1 0x42 SSTORE PUSH1 0xF DUP5 MUL DUP5 DUP2 DIV PUSH1 0xF EQ DUP3 OR ISZERO PUSH2 0x5D2 JUMPI PUSH2 0x3E8 PUSH2 0x4E0 SWAP2 DIV PUSH1 0x49 SLOAD PUSH2 0x1740 JUMP JUMPDEST PUSH1 0x49 SSTORE PUSH1 0x19 DUP5 MUL SWAP1 DUP5 DUP3 DIV PUSH1 0x19 EQ OR ISZERO PUSH2 0x5D2 JUMPI PUSH1 0x64 PUSH2 0x519 SWAP4 PUSH2 0x511 DUP11 SWAP8 PUSH2 0x50C DUP9 DUP6 DUP12 SWAP8 DIV PUSH2 0x1A8E JUMP JUMPDEST PUSH2 0x19D2 JUMP JUMPDEST DIV SWAP2 SLOAD PUSH2 0x1AFF JUMP JUMPDEST PUSH1 0x40 MLOAD SWAP1 PUSH1 0x1 DUP3 MSTORE PUSH1 0x20 DUP3 ADD MSTORE PUSH1 0x80 PUSH1 0x40 DUP3 ADD MSTORE PUSH32 0x26ADB22CEC823EF144935E9FBEF1B6B4A3A29DACBE5444D59292FA2620F3D377 PUSH2 0x57E PUSH1 0x80 DUP4 ADD PUSH1 0x40 SWAP1 PUSH1 0x15 DUP2 MSTORE PUSH21 0x53706F6E736F727368697020537472756374757265 PUSH1 0x58 SHL PUSH1 0x20 DUP3 ADD MSTORE ADD SWAP1 JUMP JUMPDEST SWAP2 TIMESTAMP PUSH1 0x60 DUP3 ADD MSTORE DUP1 CALLER SWAP4 SUB SWAP1 LOG3 PUSH0 MSTORE PUSH1 0x10 PUSH1 0x20 MSTORE PUSH1 0x5 PUSH1 0x1 DUP1 PUSH1 0xA0 SHL SUB PUSH1 0x40 PUSH0 KECCAK256 SLOAD AND SWAP2 ADD SLOAD PUSH1 0x40 MLOAD SWAP1 DUP2 MSTORE PUSH32 0x309BB360E8B69C23937CCC5FB01F9AEEEAD1C95A99604E175113FF82F2B1723A PUSH1 0x20 CALLER SWAP3 LOG4 STOP JUMPDEST PUSH4 0x4E487B71 PUSH1 0xE0 SHL PUSH0 MSTORE PUSH1 0x11 PUSH1 0x4 MSTORE PUSH1 0x24 PUSH0 REVERT JUMPDEST DUP1 ISZERO PUSH2 0x642 JUMPI DUP1 PUSH0 MSTORE PUSH1 0x10 PUSH1 0x20 MSTORE PUSH1 0x9 PUSH1 0x40 PUSH0 KECCAK256 ADD DUP1 SLOAD SWAP1 PUSH1 0x1 DUP3 ADD DUP1 SWAP3 GT PUSH2 0x5D2 JUMPI SSTORE DUP1 PUSH0 MSTORE PUSH1 0x13 PUSH1 0x20 MSTORE PUSH1 0x40 PUSH0 KECCAK256 DUP3 PUSH0 MSTORE PUSH1 0x20 MSTORE PUSH2 0x629 DUP8 PUSH1 0x40 PUSH0 KECCAK256 PUSH2 0x17D7 JUMP JUMPDEST PUSH0 MSTORE PUSH1 0x10 PUSH1 0x20 MSTORE PUSH1 0x1 PUSH1 0x5 PUSH1 0x40 PUSH0 KECCAK256 ADD SLOAD SWAP2 ADD SWAP1 PUSH2 0x456 JUMP JUMPDEST PUSH2 0x45F JUMP JUMPDEST PUSH0 JUMPDEST PUSH1 0xF DUP2 LT PUSH2 0x659 JUMPI JUMPDEST POP POP PUSH2 0x453 JUMP JUMPDEST DUP2 PUSH2 0x770 JUMPI DUP6 PUSH0 MSTORE PUSH1 0x13 PUSH1 0x20 MSTORE PUSH1 0x40 PUSH0 KECCAK256 PUSH1 0x1 DUP3 ADD DUP1 DUP4 GT PUSH2 0x5D2 JUMPI PUSH0 MSTORE PUSH1 0x20 MSTORE PUSH1 0x40 PUSH0 KECCAK256 SLOAD PUSH1 0x2 DUP3 ADD DUP1 DUP4 GT PUSH2 0x5D2 JUMPI PUSH1 0xFF DUP2 GT PUSH2 0x5D2 JUMPI PUSH1 0x1 SWAP1 SHL GT PUSH2 0x6A4 JUMPI JUMPDEST PUSH1 0x1 ADD PUSH2 0x649 JUMP JUMPDEST SWAP5 SWAP4 SWAP1 SWAP6 SWAP2 SWAP3 PUSH0 JUMPDEST DUP6 PUSH0 MSTORE PUSH1 0x13 PUSH1 0x20 MSTORE PUSH1 0x40 PUSH0 KECCAK256 DUP8 PUSH0 MSTORE PUSH1 0x20 MSTORE PUSH1 0x40 PUSH0 KECCAK256 SLOAD DUP2 LT ISZERO PUSH2 0x761 JUMPI DUP8 PUSH2 0x74F JUMPI DUP6 PUSH0 MSTORE PUSH1 0x13 PUSH1 0x20 MSTORE PUSH1 0x40 PUSH0 KECCAK256 DUP8 PUSH0 MSTORE PUSH1 0x20 MSTORE PUSH2 0x6EE DUP2 PUSH1 0x40 PUSH0 KECCAK256 PUSH2 0x1312 JUMP JUMPDEST SWAP1 SLOAD SWAP1 PUSH1 0x3 SHL SHR DUP1 PUSH0 MSTORE PUSH1 0x14 PUSH1 0x20 MSTORE PUSH1 0x2 PUSH1 0x40 PUSH0 KECCAK256 SLOAD LT PUSH2 0x713 JUMPI JUMPDEST POP PUSH1 0x1 ADD PUSH2 0x6AC JUMP JUMPDEST SWAP2 SWAP5 POP SWAP7 POP DUP8 PUSH0 MSTORE PUSH1 0x10 PUSH1 0x20 MSTORE DUP1 PUSH1 0x5 PUSH1 0x40 PUSH0 KECCAK256 ADD SSTORE DUP1 PUSH0 MSTORE PUSH1 0x14 PUSH1 0x20 MSTORE PUSH1 0x40 PUSH0 KECCAK256 DUP1 SLOAD SWAP1 PUSH1 0x1 DUP3 ADD DUP1 SWAP3 GT PUSH2 0x5D2 JUMPI SSTORE SWAP3 PUSH1 0x1 DUP1 SWAP8 SWAP1 PUSH2 0x70A JUMP JUMPDEST POP SWAP3 SWAP2 SWAP6 SWAP1 SWAP4 SWAP5 PUSH1 0x1 SWAP1 JUMPDEST SWAP1 POP PUSH2 0x69C JUMP JUMPDEST POP SWAP3 SWAP2 SWAP6 SWAP1 SWAP4 SWAP5 PUSH1 0x1 SWAP1 PUSH2 0x75A JUMP JUMPDEST PUSH2 0x652 JUMP JUMPDEST PUSH2 0x796 SWAP1 PUSH1 0x20 RETURNDATASIZE PUSH1 0x20 GT PUSH2 0x79B JUMPI JUMPDEST PUSH2 0x78E DUP2 DUP4 PUSH2 0x16F2 JUMP JUMPDEST DUP2 ADD SWAP1 PUSH2 0x1728 JUMP JUMPDEST PUSH2 0x307 JUMP JUMPDEST POP RETURNDATASIZE PUSH2 0x784 JUMP JUMPDEST PUSH1 0x40 MLOAD RETURNDATASIZE PUSH0 DUP3 RETURNDATACOPY RETURNDATASIZE SWAP1 REVERT JUMPDEST PUSH1 0x40 MLOAD PUSH3 0x461BCD PUSH1 0xE5 SHL DUP2 MSTORE PUSH1 0x20 PUSH1 0x4 DUP3 ADD MSTORE PUSH1 0xF PUSH1 0x24 DUP3 ADD MSTORE PUSH15 0x24B73B30B634B21039B837B739B7B9 PUSH1 0x89 SHL PUSH1 0x44 DUP3 ADD MSTORE PUSH1 0x64 SWAP1 REVERT JUMPDEST PUSH1 0x40 MLOAD PUSH3 0x461BCD PUSH1 0xE5 SHL DUP2 MSTORE PUSH1 0x20 PUSH1 0x4 DUP3 ADD MSTORE PUSH1 0x12 PUSH1 0x24 DUP3 ADD MSTORE PUSH18 0x105B1C9958591E481C9959DA5CDD195C9959 PUSH1 0x72 SHL PUSH1 0x44 DUP3 ADD MSTORE PUSH1 0x64 SWAP1 REVERT JUMPDEST CALLVALUE PUSH2 0x23F JUMPI PUSH0 CALLDATASIZE PUSH1 0x3 NOT ADD SLT PUSH2 0x23F JUMPI PUSH1 0x20 PUSH1 0x5 SLOAD PUSH1 0x40 MLOAD SWAP1 DUP2 MSTORE RETURN JUMPDEST CALLVALUE PUSH2 0x23F JUMPI PUSH0 CALLDATASIZE PUSH1 0x3 NOT ADD SLT PUSH2 0x23F JUMPI PUSH1 0x20 PUSH1 0x40 MLOAD PUSH9 0x3635C9ADC5DEA00000 DUP2 MSTORE RETURN JUMPDEST CALLVALUE PUSH2 0x23F JUMPI PUSH0 CALLDATASIZE PUSH1 0x3 NOT ADD SLT PUSH2 0x23F JUMPI PUSH1 0x3 SLOAD PUSH1 0x40 MLOAD PUSH1 0x1 PUSH1 0x1 PUSH1 0xA0 SHL SUB SWAP1 SWAP2 AND DUP2 MSTORE PUSH1 0x20 SWAP1 RETURN JUMPDEST CALLVALUE PUSH2 0x23F JUMPI PUSH0 CALLDATASIZE PUSH1 0x3 NOT ADD SLT PUSH2 0x23F JUMPI PUSH1 0x20 PUSH1 0x41 SLOAD PUSH1 0x40 MLOAD SWAP1 DUP2 MSTORE RETURN JUMPDEST CALLVALUE PUSH2 0x23F JUMPI PUSH0 CALLDATASIZE PUSH1 0x3 NOT ADD SLT PUSH2 0x23F JUMPI PUSH1 0x20 PUSH1 0x40 MLOAD PUSH1 0x5 DUP2 MSTORE RETURN JUMPDEST CALLVALUE PUSH2 0x23F JUMPI PUSH1 0x20 CALLDATASIZE PUSH1 0x3 NOT ADD SLT PUSH2 0x23F JUMPI PUSH1 0x4 CALLDATALOAD PUSH1 0x8 DUP2 LT ISZERO PUSH2 0x23F JUMPI PUSH1 0x20 SWAP1 PUSH1 0x1F ADD SLOAD PUSH1 0x40 MLOAD SWAP1 DUP2 MSTORE RETURN JUMPDEST CALLVALUE PUSH2 0x23F JUMPI PUSH1 0x20 CALLDATASIZE PUSH1 0x3 NOT ADD SLT PUSH2 0x23F JUMPI PUSH1 0x4 CALLDATALOAD PUSH1 0x1 PUSH1 0x1 PUSH1 0xA0 SHL SUB DUP2 AND SWAP1 DUP2 SWAP1 SUB PUSH2 0x23F JUMPI PUSH0 MSTORE PUSH1 0xF PUSH1 0x20 MSTORE PUSH1 0x20 PUSH1 0x40 PUSH0 KECCAK256 SLOAD PUSH1 0x40 MLOAD SWAP1 DUP2 MSTORE RETURN JUMPDEST CALLVALUE PUSH2 0x23F JUMPI PUSH0 CALLDATASIZE PUSH1 0x3 NOT ADD SLT PUSH2 0x23F JUMPI PUSH1 0x20 PUSH1 0x39 SLOAD PUSH1 0x40 MLOAD SWAP1 DUP2 MSTORE RETURN JUMPDEST CALLVALUE PUSH2 0x23F JUMPI PUSH0 CALLDATASIZE PUSH1 0x3 NOT ADD SLT PUSH2 0x23F JUMPI PUSH1 0x20 PUSH1 0x40 SLOAD PUSH1 0x40 MLOAD SWAP1 DUP2 MSTORE RETURN JUMPDEST CALLVALUE PUSH2 0x23F JUMPI PUSH0 CALLDATASIZE PUSH1 0x3 NOT ADD SLT PUSH2 0x23F JUMPI PUSH1 0x20 PUSH1 0x40 MLOAD PUSH10 0x21E19E0C9BAB2400000 DUP2 MSTORE RETURN JUMPDEST CALLVALUE PUSH2 0x23F JUMPI PUSH1 0x20 CALLDATASIZE PUSH1 0x3 NOT ADD SLT PUSH2 0x23F JUMPI PUSH1 0x4 CALLDATALOAD PUSH1 0xD SLOAD DUP2 LT ISZERO PUSH2 0x23F JUMPI PUSH2 0x9AD PUSH1 0x20 SWAP2 PUSH2 0x12DB JUMP JUMPDEST SWAP1 SLOAD SWAP1 PUSH1 0x3 SHL SHR PUSH1 0x40 MLOAD SWAP1 DUP2 MSTORE RETURN JUMPDEST CALLVALUE PUSH2 0x23F JUMPI PUSH0 CALLDATASIZE PUSH1 0x3 NOT ADD SLT PUSH2 0x23F JUMPI PUSH1 0x20 PUSH1 0x6 SLOAD PUSH1 0x40 MLOAD SWAP1 DUP2 MSTORE RETURN JUMPDEST CALLVALUE PUSH2 0x23F JUMPI PUSH1 0x20 CALLDATASIZE PUSH1 0x3 NOT ADD SLT PUSH2 0x23F JUMPI PUSH1 0x4 CALLDATALOAD PUSH1 0x16 SLOAD DUP2 LT ISZERO PUSH2 0x23F JUMPI PUSH1 0x16 SLOAD DUP2 LT ISZERO PUSH2 0xA33 JUMPI PUSH1 0x16 PUSH0 MSTORE PUSH32 0xD833147D7DC355BA459FC788F669E58CFAF9DC25DDCD0702E87D69C7B5124289 ADD SLOAD PUSH1 0x40 MLOAD SWAP1 DUP2 MSTORE PUSH1 0x20 SWAP1 RETURN JUMPDEST PUSH4 0x4E487B71 PUSH1 0xE0 SHL PUSH0 MSTORE PUSH1 0x32 PUSH1 0x4 MSTORE PUSH1 0x24 PUSH0 REVERT JUMPDEST CALLVALUE PUSH2 0x23F JUMPI PUSH0 CALLDATASIZE PUSH1 0x3 NOT ADD SLT PUSH2 0x23F JUMPI PUSH1 0x20 PUSH1 0x40 MLOAD PUSH3 0x83D600 DUP2 MSTORE RETURN JUMPDEST CALLVALUE PUSH2 0x23F JUMPI PUSH0 CALLDATASIZE PUSH1 0x3 NOT ADD SLT PUSH2 0x23F JUMPI PUSH1 0x20 PUSH1 0x42 SLOAD PUSH1 0x40 MLOAD SWAP1 DUP2 MSTORE RETURN JUMPDEST CALLVALUE PUSH2 0x23F JUMPI PUSH0 CALLDATASIZE PUSH1 0x3 NOT ADD SLT PUSH2 0x23F JUMPI PUSH1 0x20 PUSH1 0x48 SLOAD PUSH1 0x40 MLOAD SWAP1 DUP2 MSTORE RETURN JUMPDEST CALLVALUE PUSH2 0x23F JUMPI PUSH1 0x20 CALLDATASIZE PUSH1 0x3 NOT ADD SLT PUSH2 0x23F JUMPI PUSH1 0x4 CALLDATALOAD PUSH1 0x8 DUP2 LT ISZERO PUSH2 0x23F JUMPI PUSH1 0x20 SWAP1 PUSH1 0x27 ADD SLOAD PUSH1 0x40 MLOAD SWAP1 DUP2 MSTORE RETURN JUMPDEST CALLVALUE PUSH2 0x23F JUMPI PUSH2 0xAD8 CALLDATASIZE PUSH2 0x12C5 JUMP JUMPDEST SWAP1 PUSH0 MSTORE PUSH1 0xB PUSH1 0x20 MSTORE PUSH1 0x40 PUSH0 KECCAK256 SWAP1 PUSH0 MSTORE PUSH1 0x20 MSTORE PUSH1 0x20 PUSH1 0x40 PUSH0 KECCAK256 SLOAD PUSH1 0x40 MLOAD SWAP1 DUP2 MSTORE RETURN JUMPDEST CALLVALUE PUSH2 0x23F JUMPI PUSH0 CALLDATASIZE PUSH1 0x3 NOT ADD SLT PUSH2 0x23F JUMPI PUSH1 0x2 SLOAD PUSH1 0x40 MLOAD PUSH1 0x1 PUSH1 0x1 PUSH1 0xA0 SHL SUB SWAP1 SWAP2 AND DUP2 MSTORE PUSH1 0x20 SWAP1 RETURN JUMPDEST CALLVALUE PUSH2 0x23F JUMPI PUSH0 CALLDATASIZE PUSH1 0x3 NOT ADD SLT PUSH2 0x23F JUMPI PUSH1 0x20 PUSH1 0x9 SLOAD PUSH1 0x40 MLOAD SWAP1 DUP2 MSTORE RETURN JUMPDEST CALLVALUE PUSH2 0x23F JUMPI PUSH0 CALLDATASIZE PUSH1 0x3 NOT ADD SLT PUSH2 0x23F JUMPI PUSH1 0x20 PUSH1 0x40 MLOAD PUSH3 0x93A80 DUP2 MSTORE RETURN JUMPDEST CALLVALUE PUSH2 0x23F JUMPI PUSH0 CALLDATASIZE PUSH1 0x3 NOT ADD SLT PUSH2 0x23F JUMPI PUSH1 0x20 PUSH1 0x40 MLOAD PUSH4 0x2514300 DUP2 MSTORE RETURN JUMPDEST CALLVALUE PUSH2 0x23F JUMPI PUSH0 CALLDATASIZE PUSH1 0x3 NOT ADD SLT PUSH2 0x23F JUMPI PUSH1 0x20 PUSH1 0x49 SLOAD PUSH1 0x40 MLOAD SWAP1 DUP2 MSTORE RETURN JUMPDEST PUSH2 0x1327 JUMP JUMPDEST CALLVALUE PUSH2 0x23F JUMPI PUSH1 0x40 PUSH2 0xBB4 PUSH2 0xBAE CALLDATASIZE PUSH2 0x12C5 JUMP JUMPDEST SWAP1 PUSH2 0x1760 JUMP JUMPDEST DUP3 MLOAD SWAP2 DUP3 MSTORE PUSH1 0x20 DUP3 ADD MSTORE RETURN JUMPDEST CALLVALUE PUSH2 0x23F JUMPI PUSH0 CALLDATASIZE PUSH1 0x3 NOT ADD SLT PUSH2 0x23F JUMPI PUSH1 0x20 PUSH1 0x47 SLOAD PUSH1 0x40 MLOAD SWAP1 DUP2 MSTORE RETURN JUMPDEST CALLVALUE PUSH2 0x23F JUMPI PUSH1 0x20 CALLDATASIZE PUSH1 0x3 NOT ADD SLT PUSH2 0x23F JUMPI PUSH1 0x4 CALLDATALOAD PUSH0 MSTORE PUSH1 0xA PUSH1 0x20 MSTORE PUSH1 0x20 PUSH1 0x40 PUSH0 KECCAK256 SLOAD PUSH1 0x40 MLOAD SWAP1 DUP2 MSTORE RETURN JUMPDEST CALLVALUE PUSH2 0x23F JUMPI PUSH1 0x20 CALLDATASIZE PUSH1 0x3 NOT ADD SLT PUSH2 0x23F JUMPI PUSH1 0x4 CALLDATALOAD DUP1 PUSH0 MSTORE PUSH1 0x10 PUSH1 0x20 MSTORE PUSH1 0x40 PUSH0 KECCAK256 PUSH2 0xC3B PUSH1 0x1 DUP1 PUSH1 0xA0 SHL SUB DUP3 SLOAD AND CALLER EQ PUSH2 0x135D JUMP JUMPDEST PUSH1 0x6 DUP2 ADD DUP1 SLOAD SWAP2 PUSH1 0xF DUP4 LT ISZERO PUSH2 0x106E JUMPI PUSH2 0xC54 DUP4 PUSH2 0x12DB JUMP JUMPDEST SWAP1 SLOAD PUSH1 0x1 SLOAD PUSH1 0x40 MLOAD PUSH4 0x23B872DD PUSH1 0xE0 SHL DUP2 MSTORE CALLER PUSH1 0x4 DUP3 ADD MSTORE ADDRESS PUSH1 0x24 DUP3 ADD MSTORE PUSH1 0x3 SWAP4 SWAP1 SWAP4 SHL SWAP2 SWAP1 SWAP2 SHR PUSH1 0x44 DUP4 ADD DUP2 SWAP1 MSTORE SWAP4 SWAP2 SWAP1 PUSH1 0x20 SWAP1 DUP3 SWAP1 PUSH1 0x64 SWAP1 DUP3 SWAP1 PUSH0 SWAP1 PUSH1 0x1 PUSH1 0x1 PUSH1 0xA0 SHL SUB AND GAS CALL DUP1 ISZERO PUSH2 0x7A2 JUMPI PUSH2 0x1051 JUMPI JUMPDEST POP DUP1 SLOAD SWAP1 PUSH1 0x1 DUP3 ADD DUP1 SWAP3 GT PUSH2 0x5D2 JUMPI SSTORE PUSH1 0xA DUP2 ADD PUSH2 0xCC7 DUP4 DUP3 SLOAD PUSH2 0x1740 JUMP JUMPDEST SWAP1 SSTORE PUSH1 0x5 DUP3 MUL SWAP1 DUP3 ISZERO SWAP2 DUP4 DUP2 DIV PUSH1 0x5 EQ DUP4 OR ISZERO PUSH2 0x5D2 JUMPI PUSH1 0x64 SWAP1 DIV SWAP2 PUSH1 0x19 DUP5 MUL DUP5 DUP2 DIV PUSH1 0x19 EQ DUP3 OR ISZERO PUSH2 0x5D2 JUMPI DUP5 PUSH1 0x64 PUSH2 0xD01 SWAP3 DIV PUSH2 0x1A8E JUMP JUMPDEST DUP4 PUSH0 MSTORE PUSH1 0xA PUSH1 0x20 MSTORE PUSH1 0x40 PUSH0 KECCAK256 SLOAD DUP5 PUSH0 MSTORE PUSH1 0xB PUSH1 0x20 MSTORE PUSH1 0x40 PUSH0 KECCAK256 DUP8 PUSH0 MSTORE PUSH1 0x20 MSTORE PUSH1 0x40 PUSH0 KECCAK256 SSTORE PUSH2 0xD2E DUP4 PUSH2 0x19D2 JUMP JUMPDEST DUP4 PUSH0 MSTORE PUSH1 0xC PUSH1 0x20 MSTORE PUSH1 0x40 PUSH0 KECCAK256 DUP1 SLOAD SWAP1 PUSH1 0x1 DUP3 ADD DUP1 SWAP3 GT PUSH2 0x5D2 JUMPI SSTORE PUSH1 0x14 DUP5 MUL DUP5 DUP2 DIV PUSH1 0x14 EQ DUP3 OR ISZERO PUSH2 0x5D2 JUMPI PUSH1 0x64 SWAP1 DIV PUSH1 0x4 DUP4 ADD SWAP4 DUP5 SLOAD SWAP2 PUSH1 0x1 DUP9 ADD SWAP8 DUP9 DUP2 GT PUSH2 0x5D2 JUMPI DUP9 DUP3 PUSH2 0xD86 DUP3 PUSH2 0xD9E SWAP6 DUP15 PUSH2 0xDA6 SWAP10 PUSH2 0x1B2F JUMP JUMPDEST DUP12 PUSH1 0x5 DUP10 ADD PUSH2 0xD98 DUP5 DUP5 DUP5 DUP5 SLOAD PUSH2 0x1B6E JUMP JUMPDEST SLOAD PUSH2 0x1DA3 JUMP JUMPDEST PUSH1 0x3B SLOAD PUSH2 0x1740 JUMP JUMPDEST PUSH1 0x3B SSTORE PUSH1 0x23 DUP5 MUL DUP5 DUP2 DIV PUSH1 0x23 EQ DUP3 OR ISZERO PUSH2 0x5D2 JUMPI PUSH2 0x3E8 PUSH2 0xDCA SWAP2 DIV PUSH1 0x42 SLOAD PUSH2 0x1740 JUMP JUMPDEST PUSH1 0x42 SSTORE PUSH1 0xF DUP5 MUL SWAP1 DUP5 DUP3 DIV PUSH1 0xF EQ OR ISZERO PUSH2 0x5D2 JUMPI PUSH2 0x3E8 PUSH2 0xDEE SWAP2 DIV PUSH1 0x49 SLOAD PUSH2 0x1740 JUMP JUMPDEST PUSH1 0x49 SSTORE PUSH1 0xA DUP5 EQ PUSH2 0xF6B JUMPI JUMPDEST PUSH1 0xF DUP5 EQ PUSH2 0xE77 JUMPI JUMPDEST POP POP PUSH1 0x40 MLOAD SWAP2 DUP3 MSTORE PUSH1 0x20 DUP3 ADD MSTORE PUSH1 0x80 PUSH1 0x40 DUP3 ADD MSTORE PUSH32 0x26ADB22CEC823EF144935E9FBEF1B6B4A3A29DACBE5444D59292FA2620F3D377 PUSH2 0xE68 PUSH1 0x80 DUP4 ADD PUSH1 0x40 SWAP1 PUSH1 0x15 DUP2 MSTORE PUSH21 0x53706F6E736F727368697020537472756374757265 PUSH1 0x58 SHL PUSH1 0x20 DUP3 ADD MSTORE ADD SWAP1 JUMP JUMPDEST SWAP2 TIMESTAMP PUSH1 0x60 DUP3 ADD MSTORE DUP1 CALLER SWAP4 SUB SWAP1 LOG3 STOP JUMPDEST PUSH1 0x13 TIMESTAMP SWAP2 ADD SSTORE DUP4 PUSH0 MSTORE PUSH1 0x10 PUSH1 0x20 MSTORE PUSH1 0x40 PUSH0 KECCAK256 SWAP1 SLOAD PUSH0 MSTORE PUSH1 0x10 PUSH1 0x20 MSTORE PUSH1 0x40 PUSH0 KECCAK256 PUSH1 0x15 DUP2 ADD DUP1 SLOAD PUSH1 0x1 DUP2 ADD DUP1 SWAP2 GT PUSH2 0x5D2 JUMPI DUP1 PUSH1 0x2 SWAP3 SSTORE LT ISZERO SWAP1 DUP2 PUSH2 0xF4D JUMPI JUMPDEST DUP2 PUSH2 0xF3D JUMPI JUMPDEST POP PUSH2 0xF27 JUMPI JUMPDEST PUSH1 0x2 PUSH1 0x15 DUP3 ADD SLOAD LT ISZERO SWAP1 DUP2 PUSH2 0xF04 JUMPI JUMPDEST DUP2 PUSH2 0xEF5 JUMPI JUMPDEST POP PUSH2 0xEE4 JUMPI JUMPDEST DUP4 DUP1 PUSH2 0xE03 JUMP JUMPDEST PUSH2 0xEF0 PUSH1 0x47 SLOAD DUP5 PUSH2 0x224E JUMP JUMPDEST PUSH2 0xEDD JUMP JUMPDEST PUSH1 0xF SWAP2 POP PUSH1 0x6 ADD SLOAD EQ DUP5 PUSH2 0xED7 JUMP JUMPDEST SWAP1 POP PUSH1 0x13 DUP2 ADD SLOAD PUSH1 0x11 DUP3 ADD SLOAD SWAP1 PUSH4 0x2514300 DUP3 ADD DUP1 SWAP3 GT PUSH2 0x5D2 JUMPI GT ISZERO SWAP1 PUSH2 0xED1 JUMP JUMPDEST PUSH2 0xF38 PUSH1 0x4 DUP3 ADD SLOAD PUSH1 0x47 SLOAD SWAP1 PUSH2 0x224E JUMP JUMPDEST PUSH2 0xEC1 JUMP JUMPDEST PUSH1 0xF SWAP2 POP PUSH1 0x6 ADD SLOAD LT ISZERO DUP6 PUSH2 0xEBB JUMP JUMPDEST SWAP1 POP PUSH1 0x11 DUP2 ADD SLOAD PUSH4 0x2514300 DUP2 ADD DUP1 SWAP2 GT PUSH2 0x5D2 JUMPI TIMESTAMP GT ISZERO SWAP1 PUSH2 0xEB5 JUMP JUMPDEST TIMESTAMP PUSH1 0x12 DUP3 ADD SSTORE PUSH0 DUP6 DUP2 MSTORE PUSH1 0x10 PUSH1 0x20 MSTORE PUSH1 0x40 DUP1 DUP3 KECCAK256 DUP5 SLOAD DUP4 MSTORE SWAP2 KECCAK256 PUSH1 0x14 DUP2 ADD DUP1 SLOAD PUSH1 0x1 DUP2 ADD SWAP1 DUP2 LT PUSH2 0x5D2 JUMPI DUP1 PUSH1 0x5 SWAP3 SSTORE LT ISZERO SWAP1 DUP2 PUSH2 0x1034 JUMPI JUMPDEST DUP2 PUSH2 0x1024 JUMPI JUMPDEST POP PUSH2 0x100E JUMPI JUMPDEST PUSH1 0x5 PUSH1 0x14 DUP3 ADD SLOAD LT ISZERO SWAP1 DUP2 PUSH2 0xFEC JUMPI JUMPDEST DUP2 PUSH2 0xFDD JUMPI JUMPDEST POP ISZERO PUSH2 0xDFA JUMPI PUSH2 0xFD8 PUSH1 0x40 SLOAD DUP7 PUSH2 0x20ED JUMP JUMPDEST PUSH2 0xDFA JUMP JUMPDEST PUSH1 0xA SWAP2 POP PUSH1 0x6 ADD SLOAD EQ DUP7 PUSH2 0xFC6 JUMP JUMPDEST SWAP1 POP PUSH1 0x12 DUP2 ADD SLOAD PUSH1 0x11 DUP3 ADD SLOAD SWAP1 PUSH3 0x83D600 DUP3 ADD DUP1 SWAP3 GT PUSH2 0x5D2 JUMPI GT ISZERO SWAP1 PUSH2 0xFC0 JUMP JUMPDEST PUSH2 0x101F PUSH1 0x4 DUP3 ADD SLOAD PUSH1 0x40 SLOAD SWAP1 PUSH2 0x20ED JUMP JUMPDEST PUSH2 0xFB0 JUMP JUMPDEST PUSH1 0xA SWAP2 POP PUSH1 0x6 ADD SLOAD LT ISZERO DUP8 PUSH2 0xFAA JUMP JUMPDEST SWAP1 POP PUSH1 0x11 DUP2 ADD SLOAD PUSH3 0x83D600 DUP2 ADD DUP1 SWAP2 GT PUSH2 0x5D2 JUMPI TIMESTAMP GT ISZERO SWAP1 PUSH2 0xFA4 JUMP JUMPDEST PUSH2 0x1069 SWAP1 PUSH1 0x20 RETURNDATASIZE PUSH1 0x20 GT PUSH2 0x79B JUMPI PUSH2 0x78E DUP2 DUP4 PUSH2 0x16F2 JUMP JUMPDEST PUSH2 0xCA8 JUMP JUMPDEST PUSH1 0x40 MLOAD PUSH3 0x461BCD PUSH1 0xE5 SHL DUP2 MSTORE PUSH1 0x20 PUSH1 0x4 DUP3 ADD MSTORE PUSH1 0x14 PUSH1 0x24 DUP3 ADD MSTORE PUSH20 0x105B1C9958591E48185D081B585E081B195D995B PUSH1 0x62 SHL PUSH1 0x44 DUP3 ADD MSTORE PUSH1 0x64 SWAP1 REVERT JUMPDEST CALLVALUE PUSH2 0x23F JUMPI PUSH0 CALLDATASIZE PUSH1 0x3 NOT ADD SLT PUSH2 0x23F JUMPI PUSH1 0x20 PUSH1 0x40 MLOAD PUSH3 0x2A300 DUP2 MSTORE RETURN JUMPDEST CALLVALUE PUSH2 0x23F JUMPI PUSH1 0x20 CALLDATASIZE PUSH1 0x3 NOT ADD SLT PUSH2 0x23F JUMPI PUSH1 0x4 CALLDATALOAD PUSH1 0x7 SLOAD DUP2 LT ISZERO PUSH2 0x23F JUMPI PUSH1 0x7 SLOAD DUP2 LT ISZERO PUSH2 0xA33 JUMPI PUSH1 0x7 PUSH0 MSTORE PUSH32 0xA66CC928B5EDB82AF9BD49922954155AB7B0942694BEA4CE44661D9A8736C688 ADD SLOAD PUSH1 0x40 MLOAD SWAP1 DUP2 MSTORE PUSH1 0x20 SWAP1 RETURN JUMPDEST PUSH2 0x1342 JUMP JUMPDEST CALLVALUE PUSH2 0x23F JUMPI PUSH0 CALLDATASIZE PUSH1 0x3 NOT ADD SLT PUSH2 0x23F JUMPI PUSH1 0x20 PUSH1 0x40 MLOAD PUSH8 0xDE0B6B3A7640000 DUP2 MSTORE RETURN JUMPDEST CALLVALUE PUSH2 0x23F JUMPI PUSH0 CALLDATASIZE PUSH1 0x3 NOT ADD SLT PUSH2 0x23F JUMPI PUSH1 0x20 PUSH1 0x40 MLOAD PUSH3 0x15180 DUP2 MSTORE RETURN JUMPDEST CALLVALUE PUSH2 0x23F JUMPI PUSH0 CALLDATASIZE PUSH1 0x3 NOT ADD SLT PUSH2 0x23F JUMPI PUSH1 0x20 PUSH1 0x40 MLOAD PUSH1 0x2 DUP2 MSTORE RETURN JUMPDEST CALLVALUE PUSH2 0x23F JUMPI PUSH0 CALLDATASIZE PUSH1 0x3 NOT ADD SLT PUSH2 0x23F JUMPI PUSH1 0x20 PUSH1 0x3B SLOAD PUSH1 0x40 MLOAD SWAP1 DUP2 MSTORE RETURN JUMPDEST CALLVALUE PUSH2 0x23F JUMPI PUSH0 CALLDATASIZE PUSH1 0x3 NOT ADD SLT PUSH2 0x23F JUMPI PUSH1 0x1 SLOAD PUSH1 0x40 MLOAD PUSH1 0x1 PUSH1 0x1 PUSH1 0xA0 SHL SUB SWAP1 SWAP2 AND DUP2 MSTORE PUSH1 0x20 SWAP1 RETURN JUMPDEST CALLVALUE PUSH2 0x23F JUMPI PUSH0 CALLDATASIZE PUSH1 0x3 NOT ADD SLT PUSH2 0x23F JUMPI PUSH1 0x20 PUSH1 0x40 MLOAD PUSH3 0x278D00 DUP2 MSTORE RETURN JUMPDEST CALLVALUE PUSH2 0x23F JUMPI PUSH1 0x20 CALLDATASIZE PUSH1 0x3 NOT ADD SLT PUSH2 0x23F JUMPI PUSH1 0x4 CALLDATALOAD PUSH1 0x17 SLOAD DUP2 LT ISZERO PUSH2 0x23F JUMPI PUSH1 0x17 SLOAD DUP2 LT ISZERO PUSH2 0xA33 JUMPI PUSH1 0x17 PUSH0 MSTORE PUSH32 0xC624B66CC0138B8FABC209247F72D758E1CF3343756D543BADBF24212BED8C15 ADD SLOAD PUSH1 0x40 MLOAD SWAP1 DUP2 MSTORE PUSH1 0x20 SWAP1 RETURN JUMPDEST CALLVALUE PUSH2 0x23F JUMPI PUSH1 0x20 CALLDATASIZE PUSH1 0x3 NOT ADD SLT PUSH2 0x23F JUMPI PUSH1 0x4 CALLDATALOAD PUSH1 0x7 DUP2 LT ISZERO PUSH2 0x23F JUMPI PUSH1 0x20 SWAP1 PUSH1 0x18 ADD SLOAD PUSH1 0x40 MLOAD SWAP1 DUP2 MSTORE RETURN JUMPDEST CALLVALUE PUSH2 0x23F JUMPI PUSH2 0x127F PUSH2 0x1279 CALLDATASIZE PUSH2 0x12C5 JUMP JUMPDEST SWAP1 PUSH2 0x13C7 JUMP JUMPDEST STOP JUMPDEST CALLVALUE PUSH2 0x23F JUMPI PUSH1 0x20 CALLDATASIZE PUSH1 0x3 NOT ADD SLT PUSH2 0x23F JUMPI PUSH1 0x4 CALLDATALOAD PUSH0 MSTORE PUSH1 0xC PUSH1 0x20 MSTORE PUSH1 0x20 PUSH1 0x40 PUSH0 KECCAK256 SLOAD PUSH1 0x40 MLOAD SWAP1 DUP2 MSTORE RETURN JUMPDEST CALLVALUE PUSH2 0x23F JUMPI PUSH0 CALLDATASIZE PUSH1 0x3 NOT ADD SLT PUSH2 0x23F JUMPI DUP1 PUSH2 0x2710 PUSH1 0x20 SWAP3 MSTORE RETURN JUMPDEST PUSH1 0x40 SWAP1 PUSH1 0x3 NOT ADD SLT PUSH2 0x23F JUMPI PUSH1 0x4 CALLDATALOAD SWAP1 PUSH1 0x24 CALLDATALOAD SWAP1 JUMP JUMPDEST PUSH1 0xD SLOAD DUP2 LT ISZERO PUSH2 0xA33 JUMPI PUSH1 0xD PUSH0 MSTORE PUSH1 0x20 PUSH0 KECCAK256 ADD SWAP1 PUSH0 SWAP1 JUMP JUMPDEST PUSH1 0xD SLOAD ISZERO PUSH2 0xA33 JUMPI PUSH1 0xD PUSH0 SWAP1 DUP2 MSTORE PUSH0 MLOAD PUSH1 0x20 PUSH2 0x24EC PUSH0 CODECOPY PUSH0 MLOAD SWAP1 PUSH0 MSTORE SWAP2 JUMP JUMPDEST DUP1 SLOAD DUP3 LT ISZERO PUSH2 0xA33 JUMPI PUSH0 MSTORE PUSH1 0x20 PUSH0 KECCAK256 ADD SWAP1 PUSH0 SWAP1 JUMP JUMPDEST CALLVALUE PUSH2 0x23F JUMPI PUSH0 CALLDATASIZE PUSH1 0x3 NOT ADD SLT PUSH2 0x23F JUMPI PUSH1 0x20 PUSH1 0x40 MLOAD PUSH1 0xA DUP2 MSTORE RETURN JUMPDEST CALLVALUE PUSH2 0x23F JUMPI PUSH0 CALLDATASIZE PUSH1 0x3 NOT ADD SLT PUSH2 0x23F JUMPI PUSH1 0x20 PUSH1 0x40 MLOAD PUSH1 0xF DUP2 MSTORE RETURN JUMPDEST ISZERO PUSH2 0x1364 JUMPI JUMP JUMPDEST PUSH1 0x40 MLOAD PUSH3 0x461BCD PUSH1 0xE5 SHL DUP2 MSTORE PUSH1 0x20 PUSH1 0x4 DUP3 ADD MSTORE PUSH1 0x10 PUSH1 0x24 DUP3 ADD MSTORE PUSH16 0x139BDD081E5BDD5C881858D8DBDD5B9D PUSH1 0x82 SHL PUSH1 0x44 DUP3 ADD MSTORE PUSH1 0x64 SWAP1 REVERT JUMPDEST SWAP2 SWAP1 DUP3 SUB SWAP2 DUP3 GT PUSH2 0x5D2 JUMPI JUMP JUMPDEST DUP2 ISZERO PUSH2 0x13B3 JUMPI DIV SWAP1 JUMP JUMPDEST PUSH4 0x4E487B71 PUSH1 0xE0 SHL PUSH0 MSTORE PUSH1 0x12 PUSH1 0x4 MSTORE PUSH1 0x24 PUSH0 REVERT JUMPDEST DUP1 PUSH0 MSTORE PUSH1 0x10 PUSH1 0x20 MSTORE PUSH1 0x40 PUSH0 KECCAK256 PUSH1 0x3 DUP2 ADD SLOAD ISZERO PUSH2 0x16BC JUMPI PUSH1 0x6 DUP4 SWAP2 PUSH2 0x13F5 PUSH1 0x1 DUP1 PUSH1 0xA0 SHL SUB DUP3 SLOAD AND CALLER EQ PUSH2 0x135D JUMP JUMPDEST ADD SLOAD SUB PUSH2 0x1685 JUMPI DUP2 PUSH0 MSTORE PUSH1 0xA PUSH1 0x20 MSTORE PUSH1 0x40 PUSH0 KECCAK256 SLOAD SWAP2 DUP1 PUSH0 MSTORE PUSH1 0xB PUSH1 0x20 MSTORE PUSH1 0x40 PUSH0 KECCAK256 DUP3 PUSH0 MSTORE PUSH1 0x20 MSTORE PUSH1 0x40 PUSH0 KECCAK256 SLOAD DUP1 DUP5 EQ PUSH2 0x167F JUMPI PUSH2 0x143B PUSH8 0xDE0B6B3A7640000 SWAP2 DUP6 PUSH2 0x139C JUMP JUMPDEST DIV SWAP2 DUP3 ISZERO PUSH2 0x1665 JUMPI PUSH2 0x144D DUP4 DUP3 PUSH2 0x1810 JUMP JUMPDEST SWAP4 DUP3 PUSH0 MSTORE PUSH1 0xB PUSH1 0x20 MSTORE PUSH1 0x40 PUSH0 KECCAK256 DUP3 PUSH0 MSTORE PUSH1 0x20 MSTORE PUSH1 0x40 PUSH0 KECCAK256 SSTORE DUP4 ISZERO SWAP1 DUP2 ISZERO PUSH2 0x148C JUMPI JUMPDEST POP POP POP DUP2 DUP2 GT PUSH2 0x147D JUMPI POP POP JUMP JUMPDEST PUSH2 0x148A SWAP2 PUSH2 0x50C SWAP2 PUSH2 0x139C JUMP JUMPDEST JUMP JUMPDEST SWAP2 SWAP5 SWAP1 SWAP3 SWAP4 DUP3 PUSH0 MSTORE PUSH1 0x10 PUSH1 0x20 MSTORE PUSH1 0x40 PUSH0 KECCAK256 SWAP5 PUSH1 0x1 DUP1 PUSH1 0xA0 SHL SUB DUP7 SLOAD AND SWAP5 DUP6 ISZERO PUSH2 0x1631 JUMPI PUSH2 0x15FE JUMPI DUP4 PUSH0 MSTORE PUSH1 0x11 PUSH1 0x20 MSTORE PUSH1 0x40 PUSH0 KECCAK256 SWAP7 PUSH2 0x14CB DUP4 DUP10 SLOAD PUSH2 0x1740 JUMP JUMPDEST DUP9 SSTORE PUSH1 0x6 DUP9 ADD PUSH2 0x14DC DUP5 DUP3 SLOAD PUSH2 0x1740 JUMP JUMPDEST SWAP1 SSTORE PUSH1 0x40 MLOAD SWAP8 DUP9 DUP10 PUSH1 0x20 PUSH1 0xD SLOAD SWAP3 DUP4 DUP2 MSTORE ADD PUSH1 0xD PUSH0 MSTORE PUSH0 MLOAD PUSH1 0x20 PUSH2 0x24EC PUSH0 CODECOPY PUSH0 MLOAD SWAP1 PUSH0 MSTORE SWAP3 PUSH0 JUMPDEST DUP2 DUP2 LT PUSH2 0x15E5 JUMPI POP POP PUSH2 0x1518 SWAP3 POP SUB DUP11 PUSH2 0x16F2 JUMP JUMPDEST SLOAD SWAP6 PUSH1 0x6 PUSH0 SWAP9 ADD SWAP8 JUMPDEST DUP9 SLOAD DUP2 LT ISZERO PUSH2 0x1591 JUMPI DUP10 MLOAD DUP2 LT ISZERO PUSH2 0xA33 JUMPI DUP1 PUSH1 0x20 PUSH1 0x1 SWAP3 PUSH1 0x5 SHL DUP13 ADD ADD MLOAD DUP1 PUSH0 MSTORE PUSH1 0xE PUSH1 0x20 MSTORE PUSH1 0x40 PUSH0 KECCAK256 DUP10 PUSH0 MSTORE PUSH1 0x20 MSTORE PUSH1 0x2 PUSH1 0x40 PUSH0 KECCAK256 ADD SWAP1 DUP2 SLOAD SWAP1 PUSH1 0xFF DUP3 AND ISZERO SWAP1 DUP2 PUSH2 0x1586 JUMPI JUMPDEST POP PUSH2 0x1577 JUMPI JUMPDEST POP POP ADD PUSH2 0x1521 JUMP JUMPDEST PUSH1 0xFF NOT AND DUP4 OR SWAP1 SSTORE PUSH0 DUP1 PUSH2 0x156F JUMP JUMPDEST SWAP1 POP DUP12 LT ISZERO PUSH0 PUSH2 0x1569 JUMP JUMPDEST POP SWAP3 SWAP7 POP SWAP3 SWAP7 POP SWAP4 POP PUSH2 0x15AF DUP6 DUP3 PUSH1 0x1 DUP1 PUSH1 0xA0 SHL SUB PUSH1 0x1 SLOAD AND PUSH2 0x236B JUMP JUMPDEST PUSH1 0x40 MLOAD DUP6 DUP2 MSTORE PUSH1 0x20 DUP2 ADD SWAP3 SWAP1 SWAP3 MSTORE PUSH0 MLOAD PUSH1 0x20 PUSH2 0x250C PUSH0 CODECOPY PUSH0 MLOAD SWAP1 PUSH0 MSTORE PUSH1 0x80 DUP4 PUSH1 0x4 PUSH1 0x40 DUP8 SWAP7 ADD MSTORE TIMESTAMP PUSH1 0x60 DUP3 ADD MSTORE LOG4 PUSH0 DUP1 DUP1 PUSH2 0x146F JUMP JUMPDEST DUP5 SLOAD DUP4 MSTORE PUSH1 0x1 SWAP5 DUP6 ADD SWAP5 DUP15 SWAP5 POP PUSH1 0x20 SWAP1 SWAP4 ADD SWAP3 ADD PUSH2 0x1503 JUMP JUMPDEST PUSH1 0x40 MLOAD PUSH3 0x461BCD PUSH1 0xE5 SHL DUP2 MSTORE PUSH1 0x20 PUSH1 0x4 DUP3 ADD MSTORE PUSH1 0xB PUSH1 0x24 DUP3 ADD MSTORE PUSH11 0x16995C9BC8185B5BDD5B9D PUSH1 0xAA SHL PUSH1 0x44 DUP3 ADD MSTORE PUSH1 0x64 SWAP1 REVERT JUMPDEST PUSH1 0x40 MLOAD PUSH3 0x461BCD PUSH1 0xE5 SHL DUP2 MSTORE PUSH1 0x20 PUSH1 0x4 DUP3 ADD MSTORE PUSH1 0xC PUSH1 0x24 DUP3 ADD MSTORE PUSH12 0x24B73B30B634B2103AB9B2B9 PUSH1 0xA1 SHL PUSH1 0x44 DUP3 ADD MSTORE PUSH1 0x64 SWAP1 REVERT JUMPDEST SWAP2 POP PUSH0 MSTORE PUSH1 0xB PUSH1 0x20 MSTORE PUSH1 0x40 PUSH0 KECCAK256 SWAP1 PUSH0 MSTORE PUSH1 0x20 MSTORE PUSH1 0x40 PUSH0 KECCAK256 SSTORE JUMP JUMPDEST POP POP POP POP JUMP JUMPDEST PUSH1 0x40 MLOAD PUSH3 0x461BCD PUSH1 0xE5 SHL DUP2 MSTORE PUSH1 0x20 PUSH1 0x4 DUP3 ADD MSTORE PUSH1 0xF PUSH1 0x24 DUP3 ADD MSTORE PUSH15 0x496E76616C6964207061636B616765 PUSH1 0x88 SHL PUSH1 0x44 DUP3 ADD MSTORE PUSH1 0x64 SWAP1 REVERT JUMPDEST PUSH1 0x40 MLOAD PUSH3 0x461BCD PUSH1 0xE5 SHL DUP2 MSTORE PUSH1 0x20 PUSH1 0x4 DUP3 ADD MSTORE PUSH1 0xE PUSH1 0x24 DUP3 ADD MSTORE PUSH14 0x155CD95C881B9BDD08199BDD5B99 PUSH1 0x92 SHL PUSH1 0x44 DUP3 ADD MSTORE PUSH1 0x64 SWAP1 REVERT JUMPDEST SWAP1 PUSH1 0x1F DUP1 NOT SWAP2 ADD AND DUP2 ADD SWAP1 DUP2 LT PUSH8 0xFFFFFFFFFFFFFFFF DUP3 GT OR PUSH2 0x1714 JUMPI PUSH1 0x40 MSTORE JUMP JUMPDEST PUSH4 0x4E487B71 PUSH1 0xE0 SHL PUSH0 MSTORE PUSH1 0x41 PUSH1 0x4 MSTORE PUSH1 0x24 PUSH0 REVERT JUMPDEST SWAP1 DUP2 PUSH1 0x20 SWAP2 SUB SLT PUSH2 0x23F JUMPI MLOAD DUP1 ISZERO ISZERO DUP2 SUB PUSH2 0x23F JUMPI SWAP1 JUMP JUMPDEST SWAP2 SWAP1 DUP3 ADD DUP1 SWAP3 GT PUSH2 0x5D2 JUMPI JUMP JUMPDEST DUP2 DUP2 MUL SWAP3 SWAP2 DUP2 ISZERO SWAP2 DUP5 DIV EQ OR ISZERO PUSH2 0x5D2 JUMPI JUMP JUMPDEST SWAP2 SWAP1 DUP3 PUSH0 MSTORE PUSH1 0x10 PUSH1 0x20 MSTORE PUSH1 0x3 PUSH1 0x40 PUSH0 KECCAK256 ADD SLOAD ISZERO PUSH2 0x17CF JUMPI DUP1 PUSH0 MSTORE PUSH1 0xA PUSH1 0x20 MSTORE PUSH1 0x40 PUSH0 KECCAK256 SLOAD SWAP1 PUSH0 MSTORE PUSH1 0xB PUSH1 0x20 MSTORE PUSH1 0x40 PUSH0 KECCAK256 DUP4 PUSH0 MSTORE PUSH1 0x20 MSTORE PUSH1 0x40 PUSH0 KECCAK256 SLOAD SWAP1 DUP2 DUP2 GT ISZERO PUSH2 0x17C5 JUMPI PUSH2 0x17BA PUSH2 0x17C2 SWAP3 PUSH8 0xDE0B6B3A7640000 SWAP3 PUSH2 0x139C JUMP JUMPDEST DIV DUP1 SWAP4 PUSH2 0x1810 JUMP JUMPDEST SWAP1 JUMP JUMPDEST POP POP SWAP1 POP PUSH0 SWAP1 PUSH0 SWAP1 JUMP JUMPDEST POP PUSH0 SWAP2 POP DUP2 SWAP1 JUMP JUMPDEST DUP1 SLOAD PUSH9 0x10000000000000000 DUP2 LT ISZERO PUSH2 0x1714 JUMPI PUSH2 0x17F9 SWAP2 PUSH1 0x1 DUP3 ADD DUP2 SSTORE PUSH2 0x1312 JUMP JUMPDEST DUP2 SWAP3 SWAP2 SLOAD SWAP1 PUSH1 0x3 SHL SWAP2 DUP3 SHL SWAP2 PUSH0 NOT SWAP1 SHL NOT AND OR SWAP1 SSTORE JUMP JUMPDEST DUP1 PUSH0 MSTORE PUSH1 0x10 PUSH1 0x20 MSTORE PUSH1 0x40 PUSH0 KECCAK256 SWAP1 PUSH0 MSTORE PUSH1 0x11 PUSH1 0x20 MSTORE PUSH1 0xA PUSH2 0x183C PUSH1 0x40 PUSH0 KECCAK256 SWAP3 DUP3 PUSH1 0xB DUP3 ADD SLOAD SWAP2 ADD SLOAD PUSH2 0x174D JUMP JUMPDEST DIV SWAP1 SLOAD DUP2 DUP2 LT ISZERO PUSH2 0x1862 JUMPI PUSH2 0x1850 SWAP2 PUSH2 0x139C JUMP JUMPDEST SWAP1 DUP2 DUP2 GT ISZERO PUSH2 0x185D JUMPI POP SWAP1 JUMP JUMPDEST SWAP1 POP SWAP1 JUMP JUMPDEST POP POP POP PUSH0 SWAP1 JUMP JUMPDEST SWAP1 SWAP3 SWAP2 SWAP4 DUP2 PUSH0 MSTORE PUSH1 0x10 PUSH1 0x20 MSTORE PUSH1 0x40 PUSH0 KECCAK256 SWAP4 PUSH1 0x1 DUP1 PUSH1 0xA0 SHL SUB DUP6 SLOAD AND DUP1 ISZERO PUSH2 0x1631 JUMPI DUP7 ISZERO PUSH2 0x15FE JUMPI DUP4 PUSH0 MSTORE PUSH1 0x11 PUSH1 0x20 MSTORE PUSH1 0x40 PUSH0 KECCAK256 SWAP7 PUSH2 0x18A8 DUP2 DUP10 SLOAD PUSH2 0x1740 JUMP JUMPDEST DUP9 SSTORE PUSH1 0x1 DUP9 ADD PUSH2 0x18B9 DUP3 DUP3 SLOAD PUSH2 0x1740 JUMP JUMPDEST SWAP1 SSTORE PUSH1 0x40 MLOAD SWAP8 DUP9 DUP10 PUSH1 0x20 PUSH1 0xD SLOAD SWAP3 DUP4 DUP2 MSTORE ADD PUSH1 0xD PUSH0 MSTORE PUSH0 MLOAD PUSH1 0x20 PUSH2 0x24EC PUSH0 CODECOPY PUSH0 MLOAD SWAP1 PUSH0 MSTORE SWAP3 PUSH0 JUMPDEST DUP2 DUP2 LT PUSH2 0x19B9 JUMPI POP POP PUSH2 0x18F5 SWAP3 POP SUB DUP11 PUSH2 0x16F2 JUMP JUMPDEST SLOAD SWAP6 PUSH1 0x6 PUSH0 SWAP9 ADD SWAP8 JUMPDEST DUP9 SLOAD DUP2 LT ISZERO PUSH2 0x196E JUMPI DUP10 MLOAD DUP2 LT ISZERO PUSH2 0xA33 JUMPI DUP1 PUSH1 0x20 PUSH1 0x1 SWAP3 PUSH1 0x5 SHL DUP13 ADD ADD MLOAD DUP1 PUSH0 MSTORE PUSH1 0xE PUSH1 0x20 MSTORE PUSH1 0x40 PUSH0 KECCAK256 DUP10 PUSH0 MSTORE PUSH1 0x20 MSTORE PUSH1 0x2 PUSH1 0x40 PUSH0 KECCAK256 ADD SWAP1 DUP2 SLOAD SWAP1 PUSH1 0xFF DUP3 AND ISZERO SWAP1 DUP2 PUSH2 0x1963 JUMPI JUMPDEST POP PUSH2 0x1954 JUMPI JUMPDEST POP POP ADD PUSH2 0x18FE JUMP JUMPDEST PUSH1 0xFF NOT AND DUP4 OR SWAP1 SSTORE PUSH0 DUP1 PUSH2 0x194C JUMP JUMPDEST SWAP1 POP DUP12 LT ISZERO PUSH0 PUSH2 0x1946 JUMP JUMPDEST POP SWAP3 SWAP7 POP SWAP3 SWAP7 POP SWAP3 SWAP4 POP PUSH2 0x198D DUP3 DUP5 PUSH1 0x1 DUP1 PUSH1 0xA0 SHL SUB PUSH1 0x1 SLOAD AND PUSH2 0x236B JUMP JUMPDEST PUSH1 0x40 MLOAD SWAP2 DUP3 MSTORE PUSH1 0x20 DUP3 ADD MSTORE PUSH1 0x80 DUP2 PUSH1 0x1 PUSH1 0x40 PUSH0 MLOAD PUSH1 0x20 PUSH2 0x250C PUSH0 CODECOPY PUSH0 MLOAD SWAP1 PUSH0 MSTORE SWAP5 ADD MSTORE TIMESTAMP PUSH1 0x60 DUP3 ADD MSTORE LOG4 JUMP JUMPDEST DUP5 SLOAD DUP4 MSTORE PUSH1 0x1 SWAP5 DUP6 ADD SWAP5 DUP15 SWAP5 POP PUSH1 0x20 SWAP1 SWAP4 ADD SWAP3 ADD PUSH2 0x18E0 JUMP JUMPDEST PUSH1 0x2 SLOAD PUSH1 0x1 PUSH1 0x1 PUSH1 0xA0 SHL SUB AND SWAP1 DUP2 ISZERO PUSH2 0x1A55 JUMPI PUSH1 0x1 SLOAD PUSH1 0x80 SWAP3 PUSH2 0x1A00 SWAP2 DUP4 SWAP2 SWAP1 PUSH1 0x1 PUSH1 0x1 PUSH1 0xA0 SHL SUB AND PUSH2 0x236B JUMP JUMPDEST PUSH1 0x5 SLOAD PUSH0 MSTORE PUSH1 0x11 PUSH1 0x20 MSTORE PUSH1 0x40 PUSH0 KECCAK256 PUSH2 0x1A19 DUP3 DUP3 SLOAD PUSH2 0x1740 JUMP JUMPDEST SWAP1 SSTORE PUSH1 0x1 DUP1 PUSH1 0xA0 SHL SUB PUSH1 0x2 SLOAD AND PUSH0 MLOAD PUSH1 0x20 PUSH2 0x250C PUSH0 CODECOPY PUSH0 MLOAD SWAP1 PUSH0 MSTORE PUSH1 0x5 SLOAD SWAP4 DUP5 SWAP4 PUSH1 0x40 MLOAD SWAP1 DUP2 MSTORE PUSH0 PUSH1 0x20 DUP3 ADD MSTORE PUSH0 PUSH1 0x40 DUP3 ADD MSTORE TIMESTAMP PUSH1 0x60 DUP3 ADD MSTORE LOG4 JUMP JUMPDEST PUSH1 0x40 MLOAD PUSH3 0x461BCD PUSH1 0xE5 SHL DUP2 MSTORE PUSH1 0x20 PUSH1 0x4 DUP3 ADD MSTORE PUSH1 0x11 PUSH1 0x24 DUP3 ADD MSTORE PUSH17 0x199959481859191C9CC81B9BDD081CD95D PUSH1 0x7A SHL PUSH1 0x44 DUP3 ADD MSTORE PUSH1 0x64 SWAP1 REVERT JUMPDEST SWAP1 PUSH0 MSTORE PUSH1 0xC PUSH1 0x20 MSTORE PUSH1 0x40 PUSH0 KECCAK256 SLOAD SWAP1 DUP2 ISZERO DUP1 ISZERO PUSH2 0x1AF7 JUMPI JUMPDEST PUSH2 0x1AE4 JUMPI PUSH8 0xDE0B6B3A7640000 DUP2 MUL SWAP1 DUP1 DUP3 DIV PUSH8 0xDE0B6B3A7640000 EQ SWAP1 ISZERO OR ISZERO PUSH2 0x5D2 JUMPI PUSH2 0x1ADF SWAP2 PUSH2 0x1AD7 SWAP2 PUSH2 0x13A9 JUMP JUMPDEST PUSH1 0x9 SLOAD PUSH2 0x1740 JUMP JUMPDEST PUSH1 0x9 SSTORE JUMP JUMPDEST DUP1 SWAP2 POP PUSH2 0x1AEE JUMPI POP JUMP JUMPDEST PUSH2 0x148A SWAP1 PUSH2 0x19D2 JUMP JUMPDEST POP DUP1 ISZERO PUSH2 0x1AA5 JUMP JUMPDEST DUP1 ISZERO DUP1 ISZERO PUSH2 0x1B24 JUMPI JUMPDEST PUSH2 0x1B19 JUMPI SWAP2 PUSH1 0x1 SWAP2 PUSH2 0x148A SWAP4 PUSH2 0x1869 JUMP JUMPDEST POP POP PUSH2 0x148A SWAP1 PUSH2 0x19D2 JUMP JUMPDEST POP PUSH1 0x5 SLOAD DUP2 EQ PUSH2 0x1B08 JUMP JUMPDEST SWAP3 SWAP2 SWAP1 DUP4 ISZERO DUP1 ISZERO PUSH2 0x1B55 JUMPI JUMPDEST PUSH2 0x1B48 JUMPI PUSH2 0x148A SWAP4 PUSH2 0x1869 JUMP JUMPDEST POP SWAP1 POP PUSH2 0x148A SWAP2 POP PUSH2 0x19D2 JUMP JUMPDEST POP PUSH1 0x5 SLOAD DUP5 EQ PUSH2 0x1B3B JUMP JUMPDEST PUSH0 NOT DUP2 EQ PUSH2 0x5D2 JUMPI PUSH1 0x1 ADD SWAP1 JUMP JUMPDEST PUSH1 0x5 SLOAD DUP2 EQ DUP1 ISZERO PUSH2 0x1D9B JUMPI JUMPDEST PUSH2 0x1D8F JUMPI PUSH1 0x1 JUMPDEST DUP5 DUP2 LT PUSH2 0x1D5E JUMPI POP SWAP3 PUSH0 SWAP4 JUMPDEST DUP1 ISZERO ISZERO DUP1 PUSH2 0x1D52 JUMPI JUMPDEST DUP1 PUSH2 0x1D48 JUMPI JUMPDEST ISZERO PUSH2 0x1D3B JUMPI DUP1 PUSH0 MSTORE PUSH1 0x10 PUSH1 0x20 MSTORE PUSH1 0x40 PUSH0 KECCAK256 SWAP1 DUP3 PUSH1 0x6 DUP4 ADD SLOAD LT ISZERO PUSH2 0x1BCF JUMPI POP PUSH1 0x5 PUSH2 0x1BC9 SWAP2 ADD SLOAD SWAP5 PUSH2 0x1B60 JUMP JUMPDEST SWAP4 PUSH2 0x1B8D JUMP JUMPDEST SWAP3 SWAP5 POP POP SWAP2 SWAP4 DUP2 PUSH0 MSTORE PUSH1 0x10 PUSH1 0x20 MSTORE PUSH1 0x40 PUSH0 KECCAK256 SWAP4 PUSH1 0x1 DUP1 PUSH1 0xA0 SHL SUB DUP6 SLOAD AND DUP1 ISZERO PUSH2 0x1631 JUMPI DUP7 ISZERO PUSH2 0x15FE JUMPI DUP4 PUSH0 MSTORE PUSH1 0x11 PUSH1 0x20 MSTORE PUSH1 0x40 PUSH0 KECCAK256 SWAP7 PUSH2 0x1C10 DUP2 DUP10 SLOAD PUSH2 0x1740 JUMP JUMPDEST DUP9 SSTORE PUSH1 0x2 DUP9 ADD PUSH2 0x1C21 DUP3 DUP3 SLOAD PUSH2 0x1740 JUMP JUMPDEST SWAP1 SSTORE PUSH1 0x40 MLOAD SWAP8 DUP9 DUP10 PUSH1 0x20 PUSH1 0xD SLOAD SWAP3 DUP4 DUP2 MSTORE ADD PUSH1 0xD PUSH0 MSTORE PUSH0 MLOAD PUSH1 0x20 PUSH2 0x24EC PUSH0 CODECOPY PUSH0 MLOAD SWAP1 PUSH0 MSTORE SWAP3 PUSH0 JUMPDEST DUP2 DUP2 LT PUSH2 0x1D22 JUMPI POP POP PUSH2 0x1C5D SWAP3 POP SUB DUP11 PUSH2 0x16F2 JUMP JUMPDEST SLOAD SWAP6 PUSH1 0x6 PUSH0 SWAP9 ADD SWAP8 JUMPDEST DUP9 SLOAD DUP2 LT ISZERO PUSH2 0x1CD6 JUMPI DUP10 MLOAD DUP2 LT ISZERO PUSH2 0xA33 JUMPI DUP1 PUSH1 0x20 PUSH1 0x1 SWAP3 PUSH1 0x5 SHL DUP13 ADD ADD MLOAD DUP1 PUSH0 MSTORE PUSH1 0xE PUSH1 0x20 MSTORE PUSH1 0x40 PUSH0 KECCAK256 DUP10 PUSH0 MSTORE PUSH1 0x20 MSTORE PUSH1 0x2 PUSH1 0x40 PUSH0 KECCAK256 ADD SWAP1 DUP2 SLOAD SWAP1 PUSH1 0xFF DUP3 AND ISZERO SWAP1 DUP2 PUSH2 0x1CCB JUMPI JUMPDEST POP PUSH2 0x1CBC JUMPI JUMPDEST POP POP ADD PUSH2 0x1C66 JUMP JUMPDEST PUSH1 0xFF NOT AND DUP4 OR SWAP1 SSTORE PUSH0 DUP1 PUSH2 0x1CB4 JUMP JUMPDEST SWAP1 POP DUP12 LT ISZERO PUSH0 PUSH2 0x1CAE JUMP JUMPDEST POP SWAP3 SWAP7 POP SWAP3 SWAP7 POP SWAP3 SWAP4 POP PUSH2 0x1CF5 DUP3 DUP5 PUSH1 0x1 DUP1 PUSH1 0xA0 SHL SUB PUSH1 0x1 SLOAD AND PUSH2 0x236B JUMP JUMPDEST PUSH1 0x40 MLOAD SWAP2 DUP3 MSTORE PUSH1 0x20 DUP3 ADD MSTORE PUSH1 0x2 DUP2 PUSH1 0x80 SWAP2 PUSH1 0x40 PUSH0 MLOAD PUSH1 0x20 PUSH2 0x250C PUSH0 CODECOPY PUSH0 MLOAD SWAP1 PUSH0 MSTORE SWAP5 ADD MSTORE TIMESTAMP PUSH1 0x60 DUP3 ADD MSTORE LOG4 JUMP JUMPDEST DUP5 SLOAD DUP4 MSTORE PUSH1 0x1 SWAP5 DUP6 ADD SWAP5 DUP15 SWAP5 POP PUSH1 0x20 SWAP1 SWAP4 ADD SWAP3 ADD PUSH2 0x1C48 JUMP JUMPDEST POP POP POP PUSH2 0x148A SWAP2 POP PUSH2 0x19D2 JUMP JUMPDEST POP PUSH1 0xF DUP6 LT PUSH2 0x1B9C JUMP JUMPDEST POP PUSH1 0x5 SLOAD DUP2 EQ ISZERO PUSH2 0x1B96 JUMP JUMPDEST SWAP1 PUSH0 MSTORE PUSH1 0x10 PUSH1 0x20 MSTORE PUSH1 0x5 PUSH1 0x40 PUSH0 KECCAK256 ADD SLOAD SWAP1 DUP2 ISZERO DUP1 ISZERO PUSH2 0x1D84 JUMPI JUMPDEST PUSH2 0x1D3B JUMPI PUSH1 0x1 ADD PUSH2 0x1B81 JUMP JUMPDEST POP PUSH1 0x5 SLOAD DUP3 EQ PUSH2 0x1D78 JUMP JUMPDEST POP POP PUSH2 0x148A SWAP2 POP PUSH2 0x19D2 JUMP JUMPDEST POP DUP1 ISZERO PUSH2 0x1B7A JUMP JUMPDEST SWAP1 SWAP5 SWAP4 SWAP3 SWAP2 PUSH1 0x80 MSTORE DUP1 ISZERO DUP1 ISZERO PUSH2 0x20E2 JUMPI JUMPDEST DUP1 ISZERO PUSH2 0x20DA JUMPI JUMPDEST PUSH2 0x20CA JUMPI PUSH2 0x1DCB DUP4 PUSH1 0x80 MLOAD PUSH2 0x13A9 JUMP JUMPDEST PUSH2 0x1E0 MSTORE PUSH2 0x1DE7 PUSH2 0x1DDF DUP5 PUSH2 0x1E0 MLOAD PUSH2 0x174D JUMP JUMPDEST PUSH1 0x80 MLOAD PUSH2 0x139C JUMP JUMPDEST PUSH1 0xE0 MSTORE PUSH2 0x160 MSTORE PUSH0 SWAP2 PUSH0 PUSH1 0xA0 MSTORE PUSH1 0x1 SWAP2 PUSH0 PUSH2 0x100 MSTORE JUMPDEST PUSH1 0x1E PUSH2 0x100 MLOAD LT PUSH2 0x1E44 JUMPI JUMPDEST POP POP POP PUSH2 0x1E1A SWAP2 SWAP3 POP PUSH1 0x80 MLOAD PUSH2 0x139C JUMP JUMPDEST DUP1 PUSH2 0x1E35 JUMPI JUMPDEST POP PUSH1 0xE0 MLOAD PUSH2 0x1E2A JUMPI JUMP JUMPDEST PUSH2 0x148A PUSH1 0xE0 MLOAD PUSH2 0x19D2 JUMP JUMPDEST PUSH2 0x1E3E SWAP1 PUSH2 0x19D2 JUMP JUMPDEST PUSH0 PUSH2 0x1E20 JUMP JUMPDEST PUSH2 0x160 SWAP4 SWAP2 SWAP3 SWAP4 MLOAD ISZERO DUP1 ISZERO PUSH2 0x20BC JUMPI JUMPDEST PUSH2 0x20A2 JUMPI PUSH2 0x160 MLOAD PUSH0 MSTORE PUSH1 0x10 PUSH1 0x20 MSTORE PUSH1 0x40 PUSH0 KECCAK256 PUSH2 0x120 MSTORE DUP1 PUSH1 0x6 PUSH2 0x120 MLOAD ADD SLOAD LT ISZERO PUSH0 EQ PUSH2 0x2087 JUMPI PUSH2 0x1E89 DUP5 PUSH2 0x1E0 MLOAD PUSH2 0x174D JUMP JUMPDEST PUSH2 0x160 MLOAD PUSH0 SWAP1 DUP2 MSTORE PUSH1 0x10 PUSH1 0x20 MSTORE PUSH1 0x40 SWAP1 KECCAK256 PUSH2 0x1A0 DUP2 SWAP1 MSTORE SLOAD PUSH1 0x1 PUSH1 0x1 PUSH1 0xA0 SHL SUB AND SWAP3 DUP4 ISZERO PUSH2 0x1631 JUMPI DUP2 ISZERO PUSH2 0x15FE JUMPI PUSH2 0x160 MLOAD PUSH0 MSTORE PUSH1 0x11 PUSH1 0x20 MSTORE PUSH1 0x40 PUSH0 KECCAK256 PUSH2 0x1C0 MSTORE PUSH2 0x1ED8 DUP3 PUSH2 0x1C0 MLOAD SLOAD PUSH2 0x1740 JUMP JUMPDEST PUSH2 0x1C0 MLOAD SSTORE PUSH1 0x3 PUSH2 0x1C0 MLOAD ADD PUSH2 0x1EEF DUP4 DUP3 SLOAD PUSH2 0x1740 JUMP JUMPDEST SWAP1 SSTORE PUSH1 0x40 MLOAD PUSH2 0x180 MSTORE PUSH2 0x180 MLOAD PUSH2 0x140 MSTORE PUSH1 0xD SLOAD DUP1 PUSH2 0x180 MLOAD MSTORE PUSH1 0x20 PUSH2 0x180 MLOAD ADD PUSH2 0x180 MSTORE PUSH1 0xD PUSH0 MSTORE PUSH0 MLOAD PUSH1 0x20 PUSH2 0x24EC PUSH0 CODECOPY PUSH0 MLOAD SWAP1 PUSH0 MSTORE PUSH0 SWAP1 JUMPDEST DUP3 DUP3 LT PUSH2 0x2068 JUMPI POP POP POP PUSH2 0x1F48 PUSH2 0x140 MLOAD PUSH2 0x180 MLOAD SUB PUSH2 0x140 MLOAD PUSH2 0x16F2 JUMP JUMPDEST PUSH2 0x1C0 MLOAD SLOAD PUSH1 0xC0 MSTORE PUSH0 JUMPDEST PUSH1 0x6 PUSH2 0x1A0 MLOAD ADD SLOAD DUP2 LT ISZERO PUSH2 0x1FD3 JUMPI PUSH2 0x140 MLOAD MLOAD DUP2 LT ISZERO PUSH2 0xA33 JUMPI DUP1 PUSH1 0x20 PUSH1 0x1 SWAP3 PUSH1 0x5 SHL PUSH2 0x140 MLOAD ADD ADD MLOAD DUP1 PUSH0 MSTORE PUSH1 0xE PUSH1 0x20 MSTORE PUSH1 0x40 PUSH0 KECCAK256 PUSH2 0x160 MLOAD PUSH0 MSTORE PUSH1 0x20 MSTORE PUSH1 0x2 PUSH1 0x40 PUSH0 KECCAK256 ADD SWAP1 DUP2 SLOAD SWAP1 PUSH1 0xFF DUP3 AND ISZERO SWAP1 DUP2 PUSH2 0x1FC6 JUMPI JUMPDEST POP PUSH2 0x1FB7 JUMPI JUMPDEST POP POP ADD PUSH2 0x1F52 JUMP JUMPDEST PUSH1 0xFF NOT AND DUP4 OR SWAP1 SSTORE PUSH0 DUP1 PUSH2 0x1FAF JUMP JUMPDEST SWAP1 POP PUSH1 0xC0 MLOAD LT ISZERO PUSH0 PUSH2 0x1FA9 JUMP JUMPDEST POP SWAP2 SWAP4 SWAP3 SWAP1 PUSH2 0x1FED DUP2 DUP4 PUSH1 0x1 DUP1 PUSH1 0xA0 SHL SUB PUSH1 0x1 SLOAD AND PUSH2 0x236B JUMP JUMPDEST PUSH1 0x40 MLOAD DUP2 DUP2 MSTORE PUSH1 0x20 DUP2 ADD DUP7 SWAP1 MSTORE SWAP3 PUSH1 0x3 DUP5 PUSH2 0x202D SWAP5 DUP12 SWAP3 PUSH1 0x40 PUSH2 0x2036 SWAP9 ADD MSTORE TIMESTAMP PUSH1 0x60 DUP4 ADD MSTORE PUSH0 MLOAD PUSH1 0x20 PUSH2 0x250C PUSH0 CODECOPY PUSH0 MLOAD SWAP1 PUSH0 MSTORE PUSH1 0x80 PUSH2 0x160 MLOAD SWAP4 LOG4 PUSH2 0x1740 JUMP JUMPDEST SWAP4 PUSH1 0xA0 MLOAD PUSH2 0x1740 JUMP JUMPDEST PUSH1 0xA0 MSTORE PUSH1 0x1 SWAP2 JUMPDEST DUP2 PUSH1 0xA0 MLOAD LT ISZERO PUSH2 0x2063 JUMPI PUSH1 0x5 PUSH2 0x120 MLOAD ADD SLOAD PUSH2 0x160 MSTORE PUSH1 0x1 PUSH2 0x100 MLOAD ADD PUSH2 0x100 MSTORE PUSH2 0x1DFD JUMP JUMPDEST PUSH2 0x1E09 JUMP JUMPDEST PUSH1 0x1 DUP2 DUP2 SWAP3 SLOAD PUSH2 0x180 MLOAD MSTORE PUSH1 0x20 PUSH2 0x180 MLOAD ADD PUSH2 0x180 MSTORE ADD SWAP2 ADD SWAP1 PUSH2 0x1F29 JUMP JUMPDEST DUP3 DUP5 SWAP4 SWAP3 SWAP5 LT ISZERO PUSH2 0x203D JUMPI SWAP2 PUSH2 0x209C SWAP1 PUSH2 0x1B60 JUMP JUMPDEST SWAP2 PUSH2 0x203D JUMP JUMPDEST POP SWAP2 POP POP PUSH2 0x20B4 SWAP2 SWAP3 POP PUSH1 0x80 MLOAD PUSH2 0x139C JUMP JUMPDEST DUP1 PUSH2 0x1AEE JUMPI POP JUMP JUMPDEST POP PUSH1 0x5 SLOAD PUSH2 0x160 MLOAD EQ PUSH2 0x1E54 JUMP JUMPDEST POP POP POP SWAP1 POP PUSH2 0x148A PUSH1 0x80 MLOAD PUSH2 0x19D2 JUMP JUMPDEST POP DUP3 ISZERO PUSH2 0x1DBB JUMP JUMPDEST POP PUSH1 0x5 SLOAD DUP2 EQ PUSH2 0x1DB4 JUMP JUMPDEST SWAP1 DUP2 PUSH0 MSTORE PUSH1 0x45 PUSH1 0x20 MSTORE PUSH1 0xFF PUSH1 0x4 PUSH1 0x40 PUSH0 KECCAK256 ADD SLOAD AND ISZERO PUSH2 0x210A JUMPI POP POP JUMP JUMPDEST PUSH2 0x2117 PUSH1 0x40 SLOAD DUP3 EQ PUSH2 0x23F9 JUMP JUMPDEST DUP1 PUSH0 MSTORE PUSH1 0x43 PUSH1 0x20 MSTORE PUSH2 0x2133 PUSH1 0xFF PUSH1 0x8 PUSH1 0x40 PUSH0 KECCAK256 ADD SLOAD AND ISZERO PUSH2 0x2435 JUMP JUMPDEST DUP2 PUSH0 MSTORE PUSH1 0x10 PUSH1 0x20 MSTORE PUSH1 0x40 PUSH0 KECCAK256 SWAP2 PUSH1 0x12 DUP4 ADD SLOAD DUP1 ISZERO PUSH2 0x2215 JUMPI PUSH1 0x11 DUP5 ADD SLOAD SWAP4 PUSH3 0x83D600 DUP6 ADD DUP1 SWAP6 GT PUSH2 0x5D2 JUMPI PUSH32 0x42EE5EF523A95C6FB3FFDD2E9B34955B83EA8C2B11FF268C87AE6EA25556EAAC SWAP5 PUSH2 0x21AD SWAP3 GT ISZERO SWAP1 PUSH1 0x5 PUSH1 0x14 PUSH1 0xA PUSH1 0x6 DUP5 ADD SLOAD LT ISZERO SWAP3 ADD SLOAD LT ISZERO SWAP1 DUP3 PUSH2 0x220D JUMPI JUMPDEST POP DUP2 PUSH2 0x2205 JUMPI JUMPDEST POP PUSH2 0x2470 JUMP JUMPDEST DUP1 PUSH0 MSTORE PUSH1 0x45 PUSH1 0x20 MSTORE PUSH1 0x40 PUSH0 KECCAK256 PUSH1 0x1 PUSH1 0x4 DUP3 ADD SWAP2 DUP5 DUP3 DUP5 SLOAD SWAP3 PUSH2 0x21D2 PUSH1 0xFF DUP6 AND ISZERO PUSH2 0x24AB JUMP JUMPDEST TIMESTAMP DUP2 SSTORE ADD SSTORE PUSH1 0xFF NOT AND OR SWAP1 SSTORE PUSH2 0x2200 PUSH1 0x40 MLOAD SWAP3 DUP4 SWAP3 TIMESTAMP SWAP2 DUP5 PUSH1 0x40 SWAP2 SWAP5 SWAP4 SWAP3 PUSH1 0x60 DUP3 ADD SWAP6 DUP3 MSTORE PUSH1 0x20 DUP3 ADD MSTORE ADD MSTORE JUMP JUMPDEST SUB SWAP1 LOG1 JUMP JUMPDEST SWAP1 POP PUSH0 PUSH2 0x21A7 JUMP JUMPDEST SWAP2 POP PUSH0 PUSH2 0x21A0 JUMP JUMPDEST PUSH1 0x40 MLOAD PUSH3 0x461BCD PUSH1 0xE5 SHL DUP2 MSTORE PUSH1 0x20 PUSH1 0x4 DUP3 ADD MSTORE PUSH1 0x11 PUSH1 0x24 DUP3 ADD MSTORE PUSH17 0x55736572206E6F74206C6576656C20313 PUSH1 0x7C SHL PUSH1 0x44 DUP3 ADD MSTORE PUSH1 0x64 SWAP1 REVERT JUMPDEST SWAP1 DUP2 PUSH0 MSTORE PUSH1 0x4C PUSH1 0x20 MSTORE PUSH1 0xFF PUSH1 0x4 PUSH1 0x40 PUSH0 KECCAK256 ADD SLOAD AND ISZERO PUSH2 0x226B JUMPI POP POP JUMP JUMPDEST PUSH2 0x2278 PUSH1 0x47 SLOAD DUP3 EQ PUSH2 0x23F9 JUMP JUMPDEST DUP1 PUSH0 MSTORE PUSH1 0x4A PUSH1 0x20 MSTORE PUSH2 0x2294 PUSH1 0xFF PUSH1 0x8 PUSH1 0x40 PUSH0 KECCAK256 ADD SLOAD AND ISZERO PUSH2 0x2435 JUMP JUMPDEST DUP2 PUSH0 MSTORE PUSH1 0x10 PUSH1 0x20 MSTORE PUSH1 0x40 PUSH0 KECCAK256 SWAP2 PUSH1 0x13 DUP4 ADD SLOAD DUP1 ISZERO PUSH2 0x2332 JUMPI PUSH1 0x11 DUP5 ADD SLOAD SWAP4 PUSH4 0x2514300 DUP6 ADD DUP1 SWAP6 GT PUSH2 0x5D2 JUMPI PUSH32 0x42EE5EF523A95C6FB3FFDD2E9B34955B83EA8C2B11FF268C87AE6EA25556EAAC SWAP5 PUSH2 0x230D SWAP3 GT ISZERO SWAP1 PUSH1 0x2 PUSH1 0x15 PUSH1 0xF PUSH1 0x6 DUP5 ADD SLOAD LT ISZERO SWAP3 ADD SLOAD LT ISZERO SWAP1 DUP3 PUSH2 0x220D JUMPI POP DUP2 PUSH2 0x2205 JUMPI POP PUSH2 0x2470 JUMP JUMPDEST DUP1 PUSH0 MSTORE PUSH1 0x4C PUSH1 0x20 MSTORE PUSH1 0x40 PUSH0 KECCAK256 PUSH1 0x1 PUSH1 0x4 DUP3 ADD SWAP2 DUP5 DUP3 DUP5 SLOAD SWAP3 PUSH2 0x21D2 PUSH1 0xFF DUP6 AND ISZERO PUSH2 0x24AB JUMP JUMPDEST PUSH1 0x40 MLOAD PUSH3 0x461BCD PUSH1 0xE5 SHL DUP2 MSTORE PUSH1 0x20 PUSH1 0x4 DUP3 ADD MSTORE PUSH1 0x11 PUSH1 0x24 DUP3 ADD MSTORE PUSH17 0x55736572206E6F74206C6576656C203135 PUSH1 0x78 SHL PUSH1 0x44 DUP3 ADD MSTORE PUSH1 0x64 SWAP1 REVERT JUMPDEST PUSH1 0x40 MLOAD PUSH4 0xA9059CBB PUSH1 0xE0 SHL PUSH1 0x20 DUP3 DUP2 ADD SWAP2 DUP3 MSTORE PUSH1 0x1 PUSH1 0x1 PUSH1 0xA0 SHL SUB SWAP1 SWAP5 AND PUSH1 0x24 DUP4 ADD MSTORE PUSH1 0x44 DUP1 DUP4 ADD SWAP6 SWAP1 SWAP6 MSTORE SWAP4 DUP2 MSTORE SWAP1 SWAP3 PUSH0 SWAP2 PUSH2 0x23A9 PUSH1 0x64 DUP3 PUSH2 0x16F2 JUMP JUMPDEST MLOAD SWAP1 DUP3 DUP6 GAS CALL ISZERO PUSH2 0x7A2 JUMPI PUSH0 MLOAD RETURNDATASIZE PUSH2 0x23F0 JUMPI POP PUSH1 0x1 PUSH1 0x1 PUSH1 0xA0 SHL SUB DUP2 AND EXTCODESIZE ISZERO JUMPDEST PUSH2 0x23D0 JUMPI POP JUMP JUMPDEST PUSH4 0x5274AFE7 PUSH1 0xE0 SHL PUSH0 SWAP1 DUP2 MSTORE PUSH1 0x1 PUSH1 0x1 PUSH1 0xA0 SHL SUB SWAP2 SWAP1 SWAP2 AND PUSH1 0x4 MSTORE PUSH1 0x24 SWAP1 REVERT JUMPDEST PUSH1 0x1 EQ ISZERO PUSH2 0x23C9 JUMP JUMPDEST ISZERO PUSH2 0x2400 JUMPI JUMP JUMPDEST PUSH1 0x40 MLOAD PUSH3 0x461BCD PUSH1 0xE5 SHL DUP2 MSTORE PUSH1 0x20 PUSH1 0x4 DUP3 ADD MSTORE PUSH1 0xD PUSH1 0x24 DUP3 ADD MSTORE PUSH13 0x125B9D985B1A59081C9BDD5B99 PUSH1 0x9A SHL PUSH1 0x44 DUP3 ADD MSTORE PUSH1 0x64 SWAP1 REVERT JUMPDEST ISZERO PUSH2 0x243C JUMPI JUMP JUMPDEST PUSH1 0x40 MLOAD PUSH3 0x461BCD PUSH1 0xE5 SHL DUP2 MSTORE PUSH1 0x20 PUSH1 0x4 DUP3 ADD MSTORE PUSH1 0xC PUSH1 0x24 DUP3 ADD MSTORE PUSH12 0x149BDD5B990818DB1BDCD959 PUSH1 0xA2 SHL PUSH1 0x44 DUP3 ADD MSTORE PUSH1 0x64 SWAP1 REVERT JUMPDEST ISZERO PUSH2 0x2477 JUMPI JUMP JUMPDEST PUSH1 0x40 MLOAD PUSH3 0x461BCD PUSH1 0xE5 SHL DUP2 MSTORE PUSH1 0x20 PUSH1 0x4 DUP3 ADD MSTORE PUSH1 0xC PUSH1 0x24 DUP3 ADD MSTORE PUSH12 0x4E6F7420656C696769626C65 PUSH1 0xA0 SHL PUSH1 0x44 DUP3 ADD MSTORE PUSH1 0x64 SWAP1 REVERT JUMPDEST ISZERO PUSH2 0x24B2 JUMPI JUMP JUMPDEST PUSH1 0x40 MLOAD PUSH3 0x461BCD PUSH1 0xE5 SHL DUP2 MSTORE PUSH1 0x20 PUSH1 0x4 DUP3 ADD MSTORE PUSH1 0x11 PUSH1 0x24 DUP3 ADD MSTORE PUSH17 0x185B1C9958591E48145D585B1A599A5959 PUSH1 0x7A SHL PUSH1 0x44 DUP3 ADD MSTORE PUSH1 0x64 SWAP1 REVERT INVALID 0xD7 0xB6 SWAP10 ADD SDIV PUSH18 0x9101DABEB77144F2A3385C8033ACD3AF97E9 TIMESTAMP GASPRICE PUSH10 0x5E81AD1EB54D634C3130 SIGNEXTEND SWAP8 0xDA 0xD9 SWAP12 GASPRICE 0xF7 SWAP10 OR DUP3 ADDRESS AND RETURNDATASIZE DUP9 0xAD ADDRESS PUSH4 0x70D063BE SWAP13 0xD9 SWAP3 0xD0 0xBE PUSH32 0xA2646970667358221220A5BF1DCFC5E114CDA195864397A4355A5CF9C469064C NOT EXP PUSH14 0x3FE5968879677F64736F6C634300 ADDMOD 0x1E STOP CALLER "
		},
		"gasEstimates": {
			"creation": {
				"codeDepositCost": "1913800",
				"executionCost": "infinite",
				"totalCost": "infinite"
			},
			"external": {
				"ACC_PRECISION()": "453",
				"MONTHLY_ROYALTY_DIRECT()": "1047",
				"MONTHLY_ROYALTY_LEVEL()": "311",
				"MONTHLY_ROYALTY_TIME()": "849",
				"MONTH_DURATION()": "321",
				"PERCENTS_DIVIDER()": "184",
				"ROI_2X_TIME()": "519",
				"ROI_CAP_DIVIDER()": "641",
				"ROI_CAP_MULTIPLIER()": "487",
				"TIME_STEP()": "431",
				"TOP_ROYALTY_DIRECT()": "409",
				"TOP_ROYALTY_LEVEL()": "355",
				"TOP_ROYALTY_TIME()": "673",
				"WEEK_DURATION()": "695",
				"WeeklyCapping()": "1113",
				"WeeklyTotalReward()": "2490",
				"addressToId(address)": "3217",
				"claimCommunity(uint256,uint256)": "infinite",
				"communityAccPerPackage(uint256)": "2731",
				"communityAccPerUser()": "2820",
				"communityDebt(uint256,uint256)": "3032",
				"creatorWallet()": "2866",
				"currentMonthlyRound()": "3062",
				"currentMonthlyStartTime()": "3172",
				"currentWeeklyRound()": "3084",
				"currentWeeklyStartTime()": "3301",
				"defaultRefId()": "3238",
				"glbBoosterPackages(uint256)": "6651",
				"minLevelForGlbBooster(uint256)": "3166",
				"minLevelForPool(uint256)": "2396",
				"minPoolForGlbBooster(uint256)": "2924",
				"monthlyCapping()": "937",
				"monthlyTotalReward()": "2930",
				"packageQualifiedUsers(uint256)": "2379",
				"packages(uint256)": "7374",
				"pendingCommunity(uint256,uint256)": "infinite",
				"poolPackages(uint256)": "7245",
				"register(uint256)": "infinite",
				"registeredUserIds(uint256)": "6871",
				"systemMaintance()": "3218",
				"teamDevelopment()": "3306",
				"topRoyaltyReward()": "2754",
				"topRoyaltyRound()": "2688",
				"topRoyaltyStartTime()": "2908",
				"totalUsers()": "2996",
				"upgrade(uint256)": "infinite",
				"usdt()": "2492"
			},
			"internal": {
				"_accrueCommunityBonus(uint256,uint256)": "infinite",
				"_applyGlobalCapping(uint256,uint256)": "6678",
				"_distributeLevelBoosterIncome(uint256,uint256,uint256,uint256,uint256)": "infinite",
				"_distributeMatrixIncome(uint256,uint256,uint256,uint256)": "infinite",
				"_distributeSponsorIncome(uint256,uint256,uint256,uint256)": "infinite",
				"_findEligibleSponsor(uint256,uint256)": "infinite",
				"_payLevelBooster(uint256,uint256,uint256,uint256)": "infinite",
				"_placeInMatrix(uint256,uint256)": "infinite"
			}
		},
		"methodIdentifiers": {
			"ACC_PRECISION()": "32fcd966",
			"MONTHLY_ROYALTY_DIRECT()": "d2f0490d",
			"MONTHLY_ROYALTY_LEVEL()": "23fd338e",
			"MONTHLY_ROYALTY_TIME()": "a5e52b99",
			"MONTH_DURATION()": "2a891534",
			"PERCENTS_DIVIDER()": "01c234a8",
			"ROI_2X_TIME()": "3a5084b3",
			"ROI_CAP_DIVIDER()": "58c7d352",
			"ROI_CAP_MULTIPLIER()": "375b43b4",
			"TIME_STEP()": "32bc298c",
			"TOP_ROYALTY_DIRECT()": "31bb6a30",
			"TOP_ROYALTY_LEVEL()": "2ae0ee0d",
			"TOP_ROYALTY_TIME()": "705fee2d",
			"WEEK_DURATION()": "76f5f700",
			"WeeklyCapping()": "ebe0ff15",
			"WeeklyTotalReward()": "3080b5bc",
			"addressToId(address)": "cb0e0d7d",
			"claimCommunity(uint256,uint256)": "1c4ecf68",
			"communityAccPerPackage(uint256)": "45cb537c",
			"communityAccPerUser()": "78f6ad6d",
			"communityDebt(uint256,uint256)": "89043ece",
			"creatorWallet()": "7cdc65f2",
			"currentMonthlyRound()": "c9ed0708",
			"currentMonthlyStartTime()": "e898fc38",
			"currentWeeklyRound()": "ca8e9121",
			"currentWeeklyStartTime()": "fddc806f",
			"defaultRefId()": "ec597e6f",
			"glbBoosterPackages(uint256)": "2350268f",
			"minLevelForGlbBooster(uint256)": "d0a2fd79",
			"minLevelForPool(uint256)": "2132d204",
			"minPoolForGlbBooster(uint256)": "956a3228",
			"monthlyCapping()": "c8df2908",
			"monthlyTotalReward()": "a59d17d1",
			"packageQualifiedUsers(uint256)": "0676d0d6",
			"packages(uint256)": "c216212a",
			"pendingCommunity(uint256,uint256)": "54c5bd90",
			"poolPackages(uint256)": "ae4708dc",
			"register(uint256)": "f207564e",
			"registeredUserIds(uint256)": "39ab3603",
			"systemMaintance()": "e9e34a16",
			"teamDevelopment()": "f5d74d93",
			"topRoyaltyReward()": "5b62d1d5",
			"topRoyaltyRound()": "4b8cbf9b",
			"topRoyaltyStartTime()": "9b40ab97",
			"totalUsers()": "bff1f9e1",
			"upgrade(uint256)": "45977d03",
			"usdt()": "2f48ab7d"
		}
	},
	"abi": [
		{
			"inputs": [],
			"stateMutability": "nonpayable",
			"type": "constructor"
		},
		{
			"inputs": [
				{
					"internalType": "address",
					"name": "token",
					"type": "address"
				}
			],
			"name": "SafeERC20FailedOperation",
			"type": "error"
		},
		{
			"anonymous": false,
			"inputs": [
				{
					"indexed": false,
					"internalType": "uint256",
					"name": "amount",
					"type": "uint256"
				},
				{
					"indexed": false,
					"internalType": "uint256",
					"name": "usersCount",
					"type": "uint256"
				},
				{
					"indexed": false,
					"internalType": "uint256",
					"name": "perUser",
					"type": "uint256"
				}
			],
			"name": "CommunityBonusDistributed",
			"type": "event"
		},
		{
			"anonymous": false,
			"inputs": [
				{
					"indexed": true,
					"internalType": "address",
					"name": "to",
					"type": "address"
				},
				{
					"indexed": true,
					"internalType": "address",
					"name": "from",
					"type": "address"
				},
				{
					"indexed": false,
					"internalType": "uint256",
					"name": "amount",
					"type": "uint256"
				},
				{
					"indexed": false,
					"internalType": "uint256",
					"name": "packageLevel",
					"type": "uint256"
				},
				{
					"indexed": false,
					"internalType": "uint256",
					"name": "incomeType",
					"type": "uint256"
				}
			],
			"name": "IncomeDistributed",
			"type": "event"
		},
		{
			"anonymous": false,
			"inputs": [
				{
					"indexed": true,
					"internalType": "address",
					"name": "to",
					"type": "address"
				},
				{
					"indexed": true,
					"internalType": "uint256",
					"name": "toId",
					"type": "uint256"
				},
				{
					"indexed": true,
					"internalType": "uint256",
					"name": "fromId",
					"type": "uint256"
				},
				{
					"indexed": false,
					"internalType": "uint256",
					"name": "amount",
					"type": "uint256"
				},
				{
					"indexed": false,
					"internalType": "uint256",
					"name": "packageLevel",
					"type": "uint256"
				},
				{
					"indexed": false,
					"internalType": "enum Storage.IncomeType",
					"name": "incomeType",
					"type": "uint8"
				},
				{
					"indexed": false,
					"internalType": "uint256",
					"name": "timestamp",
					"type": "uint256"
				}
			],
			"name": "IncomeDistribution",
			"type": "event"
		},
		{
			"anonymous": false,
			"inputs": [
				{
					"indexed": true,
					"internalType": "address",
					"name": "winner",
					"type": "address"
				},
				{
					"indexed": true,
					"internalType": "uint256",
					"name": "fromUserId",
					"type": "uint256"
				},
				{
					"indexed": false,
					"internalType": "uint256",
					"name": "amount",
					"type": "uint256"
				},
				{
					"indexed": false,
					"internalType": "uint256",
					"name": "timestamp",
					"type": "uint256"
				}
			],
			"name": "LotteryReward",
			"type": "event"
		},
		{
			"anonymous": false,
			"inputs": [
				{
					"indexed": false,
					"internalType": "uint256",
					"name": "roundId",
					"type": "uint256"
				},
				{
					"indexed": false,
					"internalType": "uint256",
					"name": "totalUsers",
					"type": "uint256"
				},
				{
					"indexed": false,
					"internalType": "uint256",
					"name": "perUserReward",
					"type": "uint256"
				},
				{
					"indexed": false,
					"internalType": "uint256",
					"name": "totalReward",
					"type": "uint256"
				},
				{
					"indexed": false,
					"internalType": "uint256",
					"name": "totalDistributed",
					"type": "uint256"
				},
				{
					"indexed": false,
					"internalType": "uint256",
					"name": "leftoverReward",
					"type": "uint256"
				},
				{
					"indexed": false,
					"internalType": "uint256",
					"name": "endTime",
					"type": "uint256"
				}
			],
			"name": "MonthlyClosed",
			"type": "event"
		},
		{
			"anonymous": false,
			"inputs": [
				{
					"indexed": false,
					"internalType": "uint256",
					"name": "roundId",
					"type": "uint256"
				},
				{
					"indexed": false,
					"internalType": "uint256",
					"name": "userId",
					"type": "uint256"
				},
				{
					"indexed": false,
					"internalType": "uint256",
					"name": "perUserReward",
					"type": "uint256"
				},
				{
					"indexed": false,
					"internalType": "uint256",
					"name": "claimTime",
					"type": "uint256"
				}
			],
			"name": "MonthlyRewardClaim",
			"type": "event"
		},
		{
			"anonymous": false,
			"inputs": [
				{
					"indexed": false,
					"internalType": "uint256",
					"name": "roundId",
					"type": "uint256"
				},
				{
					"indexed": false,
					"internalType": "uint256",
					"name": "userId",
					"type": "uint256"
				},
				{
					"indexed": false,
					"internalType": "uint256",
					"name": "joinTime",
					"type": "uint256"
				}
			],
			"name": "MonthlyRoyaltyQualified",
			"type": "event"
		},
		{
			"anonymous": false,
			"inputs": [
				{
					"indexed": true,
					"internalType": "address",
					"name": "user",
					"type": "address"
				},
				{
					"indexed": true,
					"internalType": "address",
					"name": "sponsor",
					"type": "address"
				},
				{
					"indexed": true,
					"internalType": "uint256",
					"name": "userId",
					"type": "uint256"
				},
				{
					"indexed": false,
					"internalType": "uint256",
					"name": "uplineId",
					"type": "uint256"
				}
			],
			"name": "Registration",
			"type": "event"
		},
		{
			"anonymous": false,
			"inputs": [
				{
					"indexed": true,
					"internalType": "address",
					"name": "to",
					"type": "address"
				},
				{
					"indexed": false,
					"internalType": "uint256",
					"name": "amount",
					"type": "uint256"
				},
				{
					"indexed": false,
					"internalType": "string",
					"name": "level",
					"type": "string"
				}
			],
			"name": "RewardSent",
			"type": "event"
		},
		{
			"anonymous": false,
			"inputs": [
				{
					"indexed": false,
					"internalType": "uint256",
					"name": "roundId",
					"type": "uint256"
				},
				{
					"indexed": false,
					"internalType": "uint256",
					"name": "totalUsers",
					"type": "uint256"
				},
				{
					"indexed": false,
					"internalType": "uint256",
					"name": "perUserReward",
					"type": "uint256"
				},
				{
					"indexed": false,
					"internalType": "uint256",
					"name": "totalReward",
					"type": "uint256"
				},
				{
					"indexed": false,
					"internalType": "uint256",
					"name": "totalDistributed",
					"type": "uint256"
				},
				{
					"indexed": false,
					"internalType": "uint256",
					"name": "leftoverReward",
					"type": "uint256"
				},
				{
					"indexed": false,
					"internalType": "uint256",
					"name": "endTime",
					"type": "uint256"
				}
			],
			"name": "TopRoyaltyClosed",
			"type": "event"
		},
		{
			"anonymous": false,
			"inputs": [
				{
					"indexed": false,
					"internalType": "uint256",
					"name": "roundId",
					"type": "uint256"
				},
				{
					"indexed": false,
					"internalType": "uint256",
					"name": "userId",
					"type": "uint256"
				},
				{
					"indexed": false,
					"internalType": "uint256",
					"name": "joinTime",
					"type": "uint256"
				}
			],
			"name": "TopRoyaltyQualified",
			"type": "event"
		},
		{
			"anonymous": false,
			"inputs": [
				{
					"indexed": false,
					"internalType": "uint256",
					"name": "roundId",
					"type": "uint256"
				},
				{
					"indexed": false,
					"internalType": "uint256",
					"name": "userId",
					"type": "uint256"
				},
				{
					"indexed": false,
					"internalType": "uint256",
					"name": "perUserReward",
					"type": "uint256"
				},
				{
					"indexed": false,
					"internalType": "uint256",
					"name": "claimTime",
					"type": "uint256"
				}
			],
			"name": "TopRoyaltyRewardClaim",
			"type": "event"
		},
		{
			"anonymous": false,
			"inputs": [
				{
					"indexed": true,
					"internalType": "address",
					"name": "user",
					"type": "address"
				},
				{
					"indexed": true,
					"internalType": "uint256",
					"name": "userId",
					"type": "uint256"
				},
				{
					"indexed": false,
					"internalType": "uint256",
					"name": "packageLevel",
					"type": "uint256"
				},
				{
					"indexed": false,
					"internalType": "uint256",
					"name": "packagePrice",
					"type": "uint256"
				},
				{
					"indexed": false,
					"internalType": "string",
					"name": "depositType",
					"type": "string"
				},
				{
					"indexed": false,
					"internalType": "uint256",
					"name": "upgradeTime",
					"type": "uint256"
				}
			],
			"name": "Upgrade",
			"type": "event"
		},
		{
			"anonymous": false,
			"inputs": [
				{
					"indexed": true,
					"internalType": "uint8",
					"name": "matrixId",
					"type": "uint8"
				},
				{
					"indexed": true,
					"internalType": "uint32",
					"name": "userId",
					"type": "uint32"
				},
				{
					"indexed": true,
					"internalType": "address",
					"name": "user",
					"type": "address"
				},
				{
					"indexed": false,
					"internalType": "uint32",
					"name": "parentId",
					"type": "uint32"
				},
				{
					"indexed": false,
					"internalType": "address",
					"name": "parentAddr",
					"type": "address"
				},
				{
					"indexed": false,
					"internalType": "uint8",
					"name": "position",
					"type": "uint8"
				}
			],
			"name": "UserJoined",
			"type": "event"
		},
		{
			"anonymous": false,
			"inputs": [
				{
					"indexed": false,
					"internalType": "uint256",
					"name": "roundId",
					"type": "uint256"
				},
				{
					"indexed": false,
					"internalType": "uint256",
					"name": "totalUsers",
					"type": "uint256"
				},
				{
					"indexed": false,
					"internalType": "uint256",
					"name": "perUserReward",
					"type": "uint256"
				},
				{
					"indexed": false,
					"internalType": "uint256",
					"name": "totalReward",
					"type": "uint256"
				},
				{
					"indexed": false,
					"internalType": "uint256",
					"name": "totalDistributed",
					"type": "uint256"
				},
				{
					"indexed": false,
					"internalType": "uint256",
					"name": "leftoverReward",
					"type": "uint256"
				},
				{
					"indexed": false,
					"internalType": "uint256",
					"name": "endTime",
					"type": "uint256"
				}
			],
			"name": "WeeklyClosed",
			"type": "event"
		},
		{
			"anonymous": false,
			"inputs": [
				{
					"indexed": false,
					"internalType": "uint256",
					"name": "roundId",
					"type": "uint256"
				},
				{
					"indexed": false,
					"internalType": "uint256",
					"name": "userId",
					"type": "uint256"
				},
				{
					"indexed": false,
					"internalType": "uint256",
					"name": "joinTime",
					"type": "uint256"
				}
			],
			"name": "WeeklyContestQualified",
			"type": "event"
		},
		{
			"anonymous": false,
			"inputs": [
				{
					"indexed": false,
					"internalType": "uint256",
					"name": "roundId",
					"type": "uint256"
				},
				{
					"indexed": false,
					"internalType": "uint256",
					"name": "userId",
					"type": "uint256"
				},
				{
					"indexed": false,
					"internalType": "uint256",
					"name": "perUserReward",
					"type": "uint256"
				},
				{
					"indexed": false,
					"internalType": "uint256",
					"name": "claimTime",
					"type": "uint256"
				}
			],
			"name": "WeeklyRewardClaim",
			"type": "event"
		},
		{
			"inputs": [],
			"name": "ACC_PRECISION",
			"outputs": [
				{
					"internalType": "uint256",
					"name": "",
					"type": "uint256"
				}
			],
			"stateMutability": "view",
			"type": "function"
		},
		{
			"inputs": [],
			"name": "MONTHLY_ROYALTY_DIRECT",
			"outputs": [
				{
					"internalType": "uint256",
					"name": "",
					"type": "uint256"
				}
			],
			"stateMutability": "view",
			"type": "function"
		},
		{
			"inputs": [],
			"name": "MONTHLY_ROYALTY_LEVEL",
			"outputs": [
				{
					"internalType": "uint256",
					"name": "",
					"type": "uint256"
				}
			],
			"stateMutability": "view",
			"type": "function"
		},
		{
			"inputs": [],
			"name": "MONTHLY_ROYALTY_TIME",
			"outputs": [
				{
					"internalType": "uint256",
					"name": "",
					"type": "uint256"
				}
			],
			"stateMutability": "view",
			"type": "function"
		},
		{
			"inputs": [],
			"name": "MONTH_DURATION",
			"outputs": [
				{
					"internalType": "uint256",
					"name": "",
					"type": "uint256"
				}
			],
			"stateMutability": "view",
			"type": "function"
		},
		{
			"inputs": [],
			"name": "PERCENTS_DIVIDER",
			"outputs": [
				{
					"internalType": "uint256",
					"name": "",
					"type": "uint256"
				}
			],
			"stateMutability": "view",
			"type": "function"
		},
		{
			"inputs": [],
			"name": "ROI_2X_TIME",
			"outputs": [
				{
					"internalType": "uint256",
					"name": "",
					"type": "uint256"
				}
			],
			"stateMutability": "view",
			"type": "function"
		},
		{
			"inputs": [],
			"name": "ROI_CAP_DIVIDER",
			"outputs": [
				{
					"internalType": "uint256",
					"name": "",
					"type": "uint256"
				}
			],
			"stateMutability": "view",
			"type": "function"
		},
		{
			"inputs": [],
			"name": "ROI_CAP_MULTIPLIER",
			"outputs": [
				{
					"internalType": "uint256",
					"name": "",
					"type": "uint256"
				}
			],
			"stateMutability": "view",
			"type": "function"
		},
		{
			"inputs": [],
			"name": "TIME_STEP",
			"outputs": [
				{
					"internalType": "uint256",
					"name": "",
					"type": "uint256"
				}
			],
			"stateMutability": "view",
			"type": "function"
		},
		{
			"inputs": [],
			"name": "TOP_ROYALTY_DIRECT",
			"outputs": [
				{
					"internalType": "uint256",
					"name": "",
					"type": "uint256"
				}
			],
			"stateMutability": "view",
			"type": "function"
		},
		{
			"inputs": [],
			"name": "TOP_ROYALTY_LEVEL",
			"outputs": [
				{
					"internalType": "uint256",
					"name": "",
					"type": "uint256"
				}
			],
			"stateMutability": "view",
			"type": "function"
		},
		{
			"inputs": [],
			"name": "TOP_ROYALTY_TIME",
			"outputs": [
				{
					"internalType": "uint256",
					"name": "",
					"type": "uint256"
				}
			],
			"stateMutability": "view",
			"type": "function"
		},
		{
			"inputs": [],
			"name": "WEEK_DURATION",
			"outputs": [
				{
					"internalType": "uint256",
					"name": "",
					"type": "uint256"
				}
			],
			"stateMutability": "view",
			"type": "function"
		},
		{
			"inputs": [],
			"name": "WeeklyCapping",
			"outputs": [
				{
					"internalType": "uint256",
					"name": "",
					"type": "uint256"
				}
			],
			"stateMutability": "view",
			"type": "function"
		},
		{
			"inputs": [],
			"name": "WeeklyTotalReward",
			"outputs": [
				{
					"internalType": "uint256",
					"name": "",
					"type": "uint256"
				}
			],
			"stateMutability": "view",
			"type": "function"
		},
		{
			"inputs": [
				{
					"internalType": "address",
					"name": "",
					"type": "address"
				}
			],
			"name": "addressToId",
			"outputs": [
				{
					"internalType": "uint256",
					"name": "",
					"type": "uint256"
				}
			],
			"stateMutability": "view",
			"type": "function"
		},
		{
			"inputs": [
				{
					"internalType": "uint256",
					"name": "_userId",
					"type": "uint256"
				},
				{
					"internalType": "uint256",
					"name": "packageLevel",
					"type": "uint256"
				}
			],
			"name": "claimCommunity",
			"outputs": [],
			"stateMutability": "nonpayable",
			"type": "function"
		},
		{
			"inputs": [
				{
					"internalType": "uint256",
					"name": "",
					"type": "uint256"
				}
			],
			"name": "communityAccPerPackage",
			"outputs": [
				{
					"internalType": "uint256",
					"name": "",
					"type": "uint256"
				}
			],
			"stateMutability": "view",
			"type": "function"
		},
		{
			"inputs": [],
			"name": "communityAccPerUser",
			"outputs": [
				{
					"internalType": "uint256",
					"name": "",
					"type": "uint256"
				}
			],
			"stateMutability": "view",
			"type": "function"
		},
		{
			"inputs": [
				{
					"internalType": "uint256",
					"name": "",
					"type": "uint256"
				},
				{
					"internalType": "uint256",
					"name": "",
					"type": "uint256"
				}
			],
			"name": "communityDebt",
			"outputs": [
				{
					"internalType": "uint256",
					"name": "",
					"type": "uint256"
				}
			],
			"stateMutability": "view",
			"type": "function"
		},
		{
			"inputs": [],
			"name": "creatorWallet",
			"outputs": [
				{
					"internalType": "address",
					"name": "",
					"type": "address"
				}
			],
			"stateMutability": "view",
			"type": "function"
		},
		{
			"inputs": [],
			"name": "currentMonthlyRound",
			"outputs": [
				{
					"internalType": "uint256",
					"name": "",
					"type": "uint256"
				}
			],
			"stateMutability": "view",
			"type": "function"
		},
		{
			"inputs": [],
			"name": "currentMonthlyStartTime",
			"outputs": [
				{
					"internalType": "uint256",
					"name": "",
					"type": "uint256"
				}
			],
			"stateMutability": "view",
			"type": "function"
		},
		{
			"inputs": [],
			"name": "currentWeeklyRound",
			"outputs": [
				{
					"internalType": "uint256",
					"name": "",
					"type": "uint256"
				}
			],
			"stateMutability": "view",
			"type": "function"
		},
		{
			"inputs": [],
			"name": "currentWeeklyStartTime",
			"outputs": [
				{
					"internalType": "uint256",
					"name": "",
					"type": "uint256"
				}
			],
			"stateMutability": "view",
			"type": "function"
		},
		{
			"inputs": [],
			"name": "defaultRefId",
			"outputs": [
				{
					"internalType": "uint256",
					"name": "",
					"type": "uint256"
				}
			],
			"stateMutability": "view",
			"type": "function"
		},
		{
			"inputs": [
				{
					"internalType": "uint256",
					"name": "",
					"type": "uint256"
				}
			],
			"name": "glbBoosterPackages",
			"outputs": [
				{
					"internalType": "uint256",
					"name": "",
					"type": "uint256"
				}
			],
			"stateMutability": "view",
			"type": "function"
		},
		{
			"inputs": [
				{
					"internalType": "uint256",
					"name": "",
					"type": "uint256"
				}
			],
			"name": "minLevelForGlbBooster",
			"outputs": [
				{
					"internalType": "uint256",
					"name": "",
					"type": "uint256"
				}
			],
			"stateMutability": "view",
			"type": "function"
		},
		{
			"inputs": [
				{
					"internalType": "uint256",
					"name": "",
					"type": "uint256"
				}
			],
			"name": "minLevelForPool",
			"outputs": [
				{
					"internalType": "uint256",
					"name": "",
					"type": "uint256"
				}
			],
			"stateMutability": "view",
			"type": "function"
		},
		{
			"inputs": [
				{
					"internalType": "uint256",
					"name": "",
					"type": "uint256"
				}
			],
			"name": "minPoolForGlbBooster",
			"outputs": [
				{
					"internalType": "uint256",
					"name": "",
					"type": "uint256"
				}
			],
			"stateMutability": "view",
			"type": "function"
		},
		{
			"inputs": [],
			"name": "monthlyCapping",
			"outputs": [
				{
					"internalType": "uint256",
					"name": "",
					"type": "uint256"
				}
			],
			"stateMutability": "view",
			"type": "function"
		},
		{
			"inputs": [],
			"name": "monthlyTotalReward",
			"outputs": [
				{
					"internalType": "uint256",
					"name": "",
					"type": "uint256"
				}
			],
			"stateMutability": "view",
			"type": "function"
		},
		{
			"inputs": [
				{
					"internalType": "uint256",
					"name": "",
					"type": "uint256"
				}
			],
			"name": "packageQualifiedUsers",
			"outputs": [
				{
					"internalType": "uint256",
					"name": "",
					"type": "uint256"
				}
			],
			"stateMutability": "view",
			"type": "function"
		},
		{
			"inputs": [
				{
					"internalType": "uint256",
					"name": "",
					"type": "uint256"
				}
			],
			"name": "packages",
			"outputs": [
				{
					"internalType": "uint256",
					"name": "",
					"type": "uint256"
				}
			],
			"stateMutability": "view",
			"type": "function"
		},
		{
			"inputs": [
				{
					"internalType": "uint256",
					"name": "_userId",
					"type": "uint256"
				},
				{
					"internalType": "uint256",
					"name": "_packagePrice",
					"type": "uint256"
				}
			],
			"name": "pendingCommunity",
			"outputs": [
				{
					"internalType": "uint256",
					"name": "pendingGross",
					"type": "uint256"
				},
				{
					"internalType": "uint256",
					"name": "pendingAfterCap",
					"type": "uint256"
				}
			],
			"stateMutability": "view",
			"type": "function"
		},
		{
			"inputs": [
				{
					"internalType": "uint256",
					"name": "",
					"type": "uint256"
				}
			],
			"name": "poolPackages",
			"outputs": [
				{
					"internalType": "uint256",
					"name": "",
					"type": "uint256"
				}
			],
			"stateMutability": "view",
			"type": "function"
		},
		{
			"inputs": [
				{
					"internalType": "uint256",
					"name": "_sponsorId",
					"type": "uint256"
				}
			],
			"name": "register",
			"outputs": [],
			"stateMutability": "nonpayable",
			"type": "function"
		},
		{
			"inputs": [
				{
					"internalType": "uint256",
					"name": "",
					"type": "uint256"
				}
			],
			"name": "registeredUserIds",
			"outputs": [
				{
					"internalType": "uint256",
					"name": "",
					"type": "uint256"
				}
			],
			"stateMutability": "view",
			"type": "function"
		},
		{
			"inputs": [],
			"name": "systemMaintance",
			"outputs": [
				{
					"internalType": "address",
					"name": "",
					"type": "address"
				}
			],
			"stateMutability": "view",
			"type": "function"
		},
		{
			"inputs": [],
			"name": "teamDevelopment",
			"outputs": [
				{
					"internalType": "address",
					"name": "",
					"type": "address"
				}
			],
			"stateMutability": "view",
			"type": "function"
		},
		{
			"inputs": [],
			"name": "topRoyaltyReward",
			"outputs": [
				{
					"internalType": "uint256",
					"name": "",
					"type": "uint256"
				}
			],
			"stateMutability": "view",
			"type": "function"
		},
		{
			"inputs": [],
			"name": "topRoyaltyRound",
			"outputs": [
				{
					"internalType": "uint256",
					"name": "",
					"type": "uint256"
				}
			],
			"stateMutability": "view",
			"type": "function"
		},
		{
			"inputs": [],
			"name": "topRoyaltyStartTime",
			"outputs": [
				{
					"internalType": "uint256",
					"name": "",
					"type": "uint256"
				}
			],
			"stateMutability": "view",
			"type": "function"
		},
		{
			"inputs": [],
			"name": "totalUsers",
			"outputs": [
				{
					"internalType": "uint256",
					"name": "",
					"type": "uint256"
				}
			],
			"stateMutability": "view",
			"type": "function"
		},
		{
			"inputs": [
				{
					"internalType": "uint256",
					"name": "_userId",
					"type": "uint256"
				}
			],
			"name": "upgrade",
			"outputs": [],
			"stateMutability": "nonpayable",
			"type": "function"
		},
		{
			"inputs": [],
			"name": "usdt",
			"outputs": [
				{
					"internalType": "contract IERC20",
					"name": "",
					"type": "address"
				}
			],
			"stateMutability": "view",
			"type": "function"
		}
	]
}