{
	"data": {
		"bytecode": {
			"linkReferences": {},
			"object": "6080604052604051806101e0016040528067d02ab486cedc000069ffffffffffffffffffff16815260200168015af1d78b58c4000069ffffffffffffffffffff1681526020016802b5e3af16b188000069ffffffffffffffffffff16815260200168056bc75e2d6310000069ffffffffffffffffffff168152602001680ad78ebc5ac620000069ffffffffffffffffffff1681526020016815af1d78b58c40000069ffffffffffffffffffff168152602001682b5e3af16b1880000069ffffffffffffffffffff1681526020016856bc75e2d63100000069ffffffffffffffffffff16815260200168ad78ebc5ac6200000069ffffffffffffffffffff16815260200169015af1d78b58c400000069ffffffffffffffffffff1681526020016902b5e3af16b18800000069ffffffffffffffffffff16815260200169056bc75e2d631000000069ffffffffffffffffffff168152602001690ad78ebc5ac62000000069ffffffffffffffffffff1681526020016915af1d78b58c4000000069ffffffffffffffffffff168152602001692b5e3af16b188000000069ffffffffffffffffffff16815250600790600f6101b8929190610677565b506040518060e0016040528068015af1d78b58c4000069ffffffffffffffffffff16815260200168056bc75e2d6310000069ffffffffffffffffffff1681526020016815af1d78b58c40000069ffffffffffffffffffff1681526020016856bc75e2d63100000069ffffffffffffffffffff16815260200169015af1d78b58c400000069ffffffffffffffffffff16815260200169056bc75e2d631000000069ffffffffffffffffffff1681526020016915af1d78b58c4000000069ffffffffffffffffffff1681525060089060076102929291906106d0565b506040518060e00160405280600360ff168152602001600560ff168152602001600760ff168152602001600960ff168152602001600b60ff168152602001600d60ff168152602001600f60ff1681525060099060076102f2929190610729565b5062015180602255348015610305575f5ffd5b50604051615aff380380615aff833981810160405281019061032791906107e7565b835f5f6101000a81548173ffffffffffffffffffffffffffffffffffffffff021916908373ffffffffffffffffffffffffffffffffffffffff1602179055508260025f6101000a81548173ffffffffffffffffffffffffffffffffffffffff021916908373ffffffffffffffffffffffffffffffffffffffff1602179055508160035f6101000a81548173ffffffffffffffffffffffffffffffffffffffff021916908373ffffffffffffffffffffffffffffffffffffffff1602179055508060045f6101000a81548173ffffffffffffffffffffffffffffffffffffffff021916908373ffffffffffffffffffffffffffffffffffffffff1602179055506103e860058190555060016006819055505f60175f60055481526020019081526020015f20905083815f015f6101000a81548173ffffffffffffffffffffffffffffffffffffffff021916908373ffffffffffffffffffffffffffffffffffffffff1602179055506005548160030181905550600f81600601819055504281600c0181905550600781600a01819055505f5f90505f5f90505b600f8110156104ff57600781815481106104dc576104db61084b565b5b905f5260205f200154826104f091906108ae565b915080806001019150506104bf565b5080826009018190555060055460165f8773ffffffffffffffffffffffffffffffffffffffff1673ffffffffffffffffffffffffffffffffffffffff1681526020019081526020015f20819055505f5f90505b60088054905081101561066b576040518060a00160405280600554815260200160055481526020018281526020015f81526020015f81525060115f8381526020019081526020015f205f60055481526020019081526020015f205f820151815f01556020820151816001015560408201518160020155606082015181600301556080820151816004015590505060145f8281526020019081526020015f20600554908060018154018082558091505060019003905f5260205f20015f909190919091505560135f8281526020019081526020015f205f60055481526020019081526020015f20600554908060018154018082558091505060019003905f5260205f20015f90919091909150558080600101915050610552565b505050505050506108e1565b828054828255905f5260205f209081019282156106bf579160200282015b828111156106be578251829069ffffffffffffffffffff16905591602001919060010190610695565b5b5090506106cc919061076e565b5090565b828054828255905f5260205f20908101928215610718579160200282015b82811115610717578251829069ffffffffffffffffffff169055916020019190600101906106ee565b5b509050610725919061076e565b5090565b826007810192821561075d579160200282015b8281111561075c578251829060ff1690559160200191906001019061073c565b5b50905061076a919061076e565b5090565b5b80821115610785575f815f90555060010161076f565b5090565b5f5ffd5b5f73ffffffffffffffffffffffffffffffffffffffff82169050919050565b5f6107b68261078d565b9050919050565b6107c6816107ac565b81146107d0575f5ffd5b50565b5f815190506107e1816107bd565b92915050565b5f5f5f5f608085870312156107ff576107fe610789565b5b5f61080c878288016107d3565b945050602061081d878288016107d3565b935050604061082e878288016107d3565b925050606061083f878288016107d3565b91505092959194509250565b7f4e487b71000000000000000000000000000000000000000000000000000000005f52603260045260245ffd5b5f819050919050565b7f4e487b71000000000000000000000000000000000000000000000000000000005f52601160045260245ffd5b5f6108b882610878565b91506108c383610878565b92508282019050808211156108db576108da610881565b5b92915050565b615211806108ee5f395ff3fe608060405234801561000f575f5ffd5b506004361061025c575f3560e01c806370c8d77011610144578063bf724672116100c1578063d11fd08d11610085578063d11fd08d1461081a578063d54d6ddb14610836578063e9e34a1614610852578063ec597e6f14610870578063f207564e1461088e578063f5d74d93146108aa5761025c565b8063bf72467214610737578063bff1f9e114610768578063c216212a14610786578063cb0e0d7d146107b6578063ce79c2c3146107e65761025c565b80638d58644c116101085780638d58644c146106595780638da5cb5b146106895780638f030ece146106a7578063ae4708dc146106d7578063bd1aae40146107075761025c565b806370c8d7701461059b57806378f6ad6d146105cf5780637cdc65f2146105ed57806381a0b8161461060b57806388afbe3e146106295761025c565b806332fcd966116101dd57806346b9dece116101a157806346b9dece1461049657806352a8c4c4146104ce57806358c7d352146104ec5780635aabf7f11461050a5780635ec64a441461053a57806367d52d4d1461056a5761025c565b806332fcd966146103d3578063365b98b2146103f1578063375b43b41461042c57806339ab36031461044a57806345977d031461047a5761025c565b80632132d204116102245780632132d2041461031857806324513088146103485780632c831633146103795780632f48ab7d1461039757806332bc298c146103b55761025c565b806301be02b21461026057806301c234a81461027e5780630f2b7cc91461029c57806311f65d39146102cc57806318ab487f146102e8575b5f5ffd5b6102686108c8565b6040516102759190613d1a565b60405180910390f35b6102866108ce565b6040516102939190613d1a565b60405180910390f35b6102b660048036038101906102b19190613d61565b6108d4565b6040516102c39190613d1a565b60405180910390f35b6102e660048036038101906102e19190613dd8565b6108ff565b005b61030260048036038101906102fd9190613e03565b610d54565b60405161030f9190613d1a565b60405180910390f35b610332600480360381019061032d9190613e03565b610d69565b60405161033f9190613d1a565b60405180910390f35b610362600480360381019061035d9190613e03565b610d82565b604051610370929190613e2e565b60405180910390f35b610381610e18565b60405161038e9190613d1a565b60405180910390f35b61039f610e1e565b6040516103ac9190613ecf565b60405180910390f35b6103bd610e42565b6040516103ca9190613d1a565b60405180910390f35b6103db610e49565b6040516103e89190613d1a565b60405180910390f35b61040b60048036038101906104069190613e03565b610e55565b6040516104239c9b9a99989796959493929190613f08565b60405180910390f35b610434610ed0565b6040516104419190613d1a565b60405180910390f35b610464600480360381019061045f9190613e03565b610ed5565b6040516104719190613d1a565b60405180910390f35b610494600480360381019061048f9190613e03565b610ef5565b005b6104b060048036038101906104ab9190613e03565b6112c1565b6040516104c599989796959493929190613fc0565b60405180910390f35b6104d661130b565b6040516104e39190613d1a565b60405180910390f35b6104f4611311565b6040516105019190613d1a565b60405180910390f35b610524600480360381019061051f919061404b565b611316565b6040516105319190613d1a565b60405180910390f35b610554600480360381019061054f9190613d61565b61134c565b6040516105619190613d1a565b60405180910390f35b610584600480360381019061057f9190613e03565b611377565b604051610592929190614125565b60405180910390f35b6105b560048036038101906105b09190613d61565b6114b1565b6040516105c6959493929190614153565b60405180910390f35b6105d76114fd565b6040516105e49190613d1a565b60405180910390f35b6105f5611503565b60405161060291906141a4565b60405180910390f35b610613611528565b60405161062091906141a4565b60405180910390f35b610643600480360381019061063e9190613e03565b61154d565b6040516106509190613d1a565b60405180910390f35b610673600480360381019061066e919061404b565b611562565b6040516106809190613d1a565b60405180910390f35b610691611598565b60405161069e91906141a4565b60405180910390f35b6106c160048036038101906106bc919061404b565b6115bd565b6040516106ce9190613d1a565b60405180910390f35b6106f160048036038101906106ec9190613e03565b6115f3565b6040516106fe9190613d1a565b60405180910390f35b610721600480360381019061071c9190613d61565b611613565b60405161072e91906141bd565b60405180910390f35b610751600480360381019061074c9190613d61565b61163d565b60405161075f929190613e2e565b60405180910390f35b610770611668565b60405161077d9190613d1a565b60405180910390f35b6107a0600480360381019061079b9190613e03565b61166e565b6040516107ad9190613d1a565b60405180910390f35b6107d060048036038101906107cb9190614200565b61168e565b6040516107dd9190613d1a565b60405180910390f35b61080060048036038101906107fb9190613d61565b6116a3565b604051610811959493929190614153565b60405180910390f35b610834600480360381019061082f919061422b565b6116e0565b005b610850600480360381019061084b9190613e03565b611d56565b005b61085a6120da565b60405161086791906141a4565b60405180910390f35b6108786120ff565b6040516108859190613d1a565b60405180910390f35b6108a860048036038101906108a39190613e03565b612105565b005b6108b2612673565b6040516108bf91906141a4565b60405180910390f35b60215481565b61271081565b6014602052815f5260405f2081815481106108ed575f80fd5b905f5260205f20015f91509150505481565b5f60175f8363ffffffff1681526020019081526020015f2090503373ffffffffffffffffffffffffffffffffffffffff16815f015f9054906101000a900473ffffffffffffffffffffffffffffffffffffffff1673ffffffffffffffffffffffffffffffffffffffff16146109a9576040517f08c379a00000000000000000000000000000000000000000000000000000000081526004016109a0906142c5565b60405180910390fd5b600781600a0154106109f0576040517f08c379a00000000000000000000000000000000000000000000000000000000081526004016109e79061432d565b60405180910390fd5b5f81600a015490505f82600a015490505f60098260078110610a1557610a1461434b565b5b015490508084600601541015610a60576040517f08c379a0000000000000000000000000000000000000000000000000000000008152600401610a57906143c2565b60405180910390fd5b5f821115610aaf578184600a015414610aae576040517f08c379a0000000000000000000000000000000000000000000000000000000008152600401610aa59061442a565b60405180910390fd5b5b60155f8663ffffffff1681526020019081526020015f205f8381526020019081526020015f205f9054906101000a900460ff1615610b22576040517f08c379a0000000000000000000000000000000000000000000000000000000008152600401610b1990614492565b60405180910390fd5b5f60088481548110610b3757610b3661434b565b5b905f5260205f20015490505f5f9054906101000a900473ffffffffffffffffffffffffffffffffffffffff1673ffffffffffffffffffffffffffffffffffffffff166323b872dd3330846040518463ffffffff1660e01b8152600401610b9f939291906144b0565b6020604051808303815f875af1158015610bbb573d5f5f3e3d5ffd5b505050506040513d601f19601f82011682018060405250810190610bdf919061450f565b50600185600a015f828254610bf49190614567565b92505081905550600160155f8863ffffffff1681526020019081526020015f205f8581526020019081526020015f205f6101000a81548160ff0219169083151502179055508085600b015f828254610c4c9190614567565b92505081905550610c5e848783612698565b8460010160405180608001604052808381526020015f8152602001428152602001600a60ff16815250908060018154018082558091505060019003905f5260205f2090600402015f909190919091505f820151815f015560208201518160010155604082015181600201556060820151816003015f6101000a81548160ff021916908360ff16021790555050508563ffffffff163373ffffffffffffffffffffffffffffffffffffffff167fbabb6a363fd9a057996d09882c0b74b710d121707d19eeffd91c51c3171a7c91600187610d379190614567565b604051610d4491906145e4565b60405180910390a3505050505050565b601e602052805f5260405f205f915090505481565b60098160078110610d78575f80fd5b015f915090505481565b5f5f5f60175f8581526020019081526020015f206003015403610daa575f5f91509150610e13565b5f601d5490505f601e5f8681526020019081526020015f20549050808211610dd9575f5f935093505050610e13565b5f670de0b6b3a76400008284610def9190614610565b610df99190614670565b90505f610e068783612982565b9050818195509550505050505b915091565b601f5481565b5f5f9054906101000a900473ffffffffffffffffffffffffffffffffffffffff1681565b6201518081565b670de0b6b3a764000081565b6017602052805f5260405f205f91509050805f015f9054906101000a900473ffffffffffffffffffffffffffffffffffffffff169080600201549080600301549080600401549080600501549080600601549080600701549080600801549080600901549080600a01549080600b01549080600c015490508c565b601981565b60238181548110610ee4575f80fd5b905f5260205f20015f915090505481565b5f60175f8381526020019081526020015f2090503373ffffffffffffffffffffffffffffffffffffffff16815f015f9054906101000a900473ffffffffffffffffffffffffffffffffffffffff1673ffffffffffffffffffffffffffffffffffffffff1614610f99576040517f08c379a0000000000000000000000000000000000000000000000000000000008152600401610f90906142c5565b60405180910390fd5b600f816006015410610fe0576040517f08c379a0000000000000000000000000000000000000000000000000000000008152600401610fd7906146ea565b60405180910390fd5b5f816006015490505f60078281548110610ffd57610ffc61434b565b5b905f5260205f20015490505f5f9054906101000a900473ffffffffffffffffffffffffffffffffffffffff1673ffffffffffffffffffffffffffffffffffffffff166323b872dd3330846040518463ffffffff1660e01b8152600401611065939291906144b0565b6020604051808303815f875af1158015611081573d5f5f3e3d5ffd5b505050506040513d601f19601f820116820180604052508101906110a5919061450f565b506001836006015f8282546110ba9190614567565b9250508190555080836009015f8282546110d49190614567565b925050819055508260010160405180608001604052808381526020015f8152602001428152602001600160ff16815250908060018154018082558091505060019003905f5260205f2090600402015f909190919091505f820151815f015560208201518160010155604082015181600201556060820151816003015f6101000a81548160ff021916908360ff16021790555050505f60646005836111789190614708565b6111829190614670565b90505f60646023846111949190614708565b61119e9190614670565b90506111a981612a28565b6111b282612a96565b5f6064600f856111c29190614708565b6111cc9190614670565b90506111ea866004015488836001896111e59190614567565b612ca8565b5f6064600f866111fa9190614708565b6112049190614670565b90506112228760050154898360018a61121d9190614567565b612f60565b5f6064600f876112329190614708565b61123c9190614670565b905061125b88600501548a8360018b6112559190614567565b8b6132bc565b883373ffffffffffffffffffffffffffffffffffffffff167fbabb6a363fd9a057996d09882c0b74b710d121707d19eeffd91c51c3171a7c9160018a6112a19190614567565b6040516112ae9190614793565b60405180910390a3505050505050505050565b6018602052805f5260405f205f91509050805f0154908060010154908060020154908060030154908060040154908060050154908060060154908060070154908060080154905089565b60225481565b600a81565b601a602052825f5260405f20602052815f5260405f208181548110611339575f80fd5b905f5260205f20015f9250925050505481565b601c602052815f5260405f208181548110611365575f80fd5b905f5260205f20015f91509150505481565b5f60605f60175f8581526020019081526020015f2090505f81600a0154905060088054905081106113c7575f6040518060600160405280602381526020016151b9602391399350935050506114ac565b5f600982600781106113dc576113db61434b565b5b015490508083600601541015611412575f60405180606001604052806026815260200161519360269139945094505050506114ac565b5f8211801561142457508183600a0154105b1561146c575f6040518060400160405280601781526020017f4275792070726576696f757320706f6f6c206669727374000000000000000000815250945094505050506114ac565b60016040518060400160405280601981526020017f456c696769626c6520746f20627579206e65787420706f6f6c00000000000000815250945094505050505b915091565b6019602052815f5260405f2081815481106114ca575f80fd5b905f5260205f2090600502015f9150915050805f0154908060010154908060020154908060030154908060040154905085565b601d5481565b60025f9054906101000a900473ffffffffffffffffffffffffffffffffffffffff1681565b60205f9054906101000a900473ffffffffffffffffffffffffffffffffffffffff1681565b601b602052805f5260405f205f915090505481565b6013602052825f5260405f20602052815f5260405f208181548110611585575f80fd5b905f5260205f20015f9250925050505481565b60015f9054906101000a900473ffffffffffffffffffffffffffffffffffffffff1681565b6012602052825f5260405f20602052815f5260405f2081815481106115e0575f80fd5b905f5260205f20015f9250925050505481565b60088181548110611602575f80fd5b905f5260205f20015f915090505481565b6015602052815f5260405f20602052805f5260405f205f915091509054906101000a900460ff1681565b6010602052815f5260405f20602052805f5260405f205f9150915050805f0154908060010154905082565b60065481565b6007818154811061167d575f80fd5b905f5260205f20015f915090505481565b6016602052805f5260405f205f915090505481565b6011602052815f5260405f20602052805f5260405f205f9150915050805f0154908060010154908060020154908060030154908060040154905085565b5f60175f8563ffffffff1681526020019081526020015f2090503373ffffffffffffffffffffffffffffffffffffffff16815f015f9054906101000a900473ffffffffffffffffffffffffffffffffffffffff1673ffffffffffffffffffffffffffffffffffffffff161461178a576040517f08c379a0000000000000000000000000000000000000000000000000000000008152600401611781906142c5565b60405180910390fd5b600781600a0154106117d1576040517f08c379a00000000000000000000000000000000000000000000000000000000081526004016117c890614809565b60405180910390fd5b60018214806117e05750600282145b61181f576040517f08c379a000000000000000000000000000000000000000000000000000000000815260040161181690614871565b60405180910390fd5b5f5f600184036119ee576008858154811061183d5761183c61434b565b5b905f5260205f20015491508490505f60105f8781526020019081526020015f205f8863ffffffff1681526020019081526020015f20905082816001015410156118bb576040517f08c379a00000000000000000000000000000000000000000000000000000000081526004016118b2906148d9565b60405180910390fd5b82816001015f8282546118ce9190614610565b925050819055508284600b015f8282546118e89190614567565b925050819055506118fa828885612698565b8360010160405180608001604052808581526020015f8152602001428152602001600a60ff16815250908060018154018082558091505060019003905f5260205f2090600402015f909190919091505f820151815f015560208201518160010155604082015181600201556060820151816003015f6101000a81548160ff021916908360ff16021790555050508663ffffffff163373ffffffffffffffffffffffffffffffffffffffff167fbabb6a363fd9a057996d09882c0b74b710d121707d19eeffd91c51c3171a7c916001856119d39190614567565b6040516119e09190614941565b60405180910390a350611d4e565b60028403611d4d57600880549050600186611a099190614567565b10611a49576040517f08c379a0000000000000000000000000000000000000000000000000000000008152600401611a40906149b7565b60405180910390fd5b6008600186611a589190614567565b81548110611a6957611a6861434b565b5b905f5260205f2001549150600185611a819190614567565b90505f60098660078110611a9857611a9761434b565b5b015490508084600601541015611ae3576040517f08c379a0000000000000000000000000000000000000000000000000000000008152600401611ada906143c2565b60405180910390fd5b5f60105f8881526020019081526020015f205f8963ffffffff1681526020019081526020015f20905083815f01541015611b52576040517f08c379a0000000000000000000000000000000000000000000000000000000008152600401611b4990614a1f565b60405180910390fd5b60155f8963ffffffff1681526020019081526020015f205f8481526020019081526020015f205f9054906101000a900460ff1615611bc5576040517f08c379a0000000000000000000000000000000000000000000000000000000008152600401611bbc90614a87565b60405180910390fd5b83815f015f828254611bd79190614610565b92505081905550600185600a015f828254611bf29190614567565b925050819055508385600b015f828254611c0c9190614567565b92505081905550600160155f8a63ffffffff1681526020019081526020015f205f8581526020019081526020015f205f6101000a81548160ff021916908315150217905550611c5c838986612698565b8460010160405180608001604052808681526020015f8152602001428152602001600b60ff16815250908060018154018082558091505060019003905f5260205f2090600402015f909190919091505f820151815f015560208201518160010155604082015181600201556060820151816003015f6101000a81548160ff021916908360ff16021790555050508763ffffffff163373ffffffffffffffffffffffffffffffffffffffff167fbabb6a363fd9a057996d09882c0b74b710d121707d19eeffd91c51c3171a7c91600186611d359190614567565b604051611d429190614aef565b60405180910390a350505b5b505050505050565b5f60175f8381526020019081526020015f2090505f816003015403611db0576040517f08c379a0000000000000000000000000000000000000000000000000000000008152600401611da790614b65565b60405180910390fd5b3373ffffffffffffffffffffffffffffffffffffffff16815f015f9054906101000a900473ffffffffffffffffffffffffffffffffffffffff1673ffffffffffffffffffffffffffffffffffffffff1614611e40576040517f08c379a0000000000000000000000000000000000000000000000000000000008152600401611e37906142c5565b60405180910390fd5b5f601d5490505f601e5f8581526020019081526020015f20549050808203611e6a575050506120d7565b5f670de0b6b3a76400008284611e809190614610565b611e8a9190614670565b90505f8103611eb25782601e5f8781526020019081526020015f2081905550505050506120d7565b5f611ebd8683612982565b905083601e5f8881526020019081526020015f20819055505f8111156120b4575f60185f8881526020019081526020015f20905081815f015f828254611f039190614567565b9250508190555081816007015f828254611f1d9190614567565b9250508190555060195f8881526020019081526020015f206040518060a00160405280898152602001848152602001600181526020014281526020016009815250908060018154018082558091505060019003905f5260205f2090600502015f909190919091505f820151815f01556020820151816001015560408201518160020155606082015181600301556080820151816004015550505f5f9054906101000a900473ffffffffffffffffffffffffffffffffffffffff1673ffffffffffffffffffffffffffffffffffffffff1663a9059cbb875f015f9054906101000a900473ffffffffffffffffffffffffffffffffffffffff16846040518363ffffffff1660e01b8152600401612033929190614b83565b6020604051808303815f875af115801561204f573d5f5f3e3d5ffd5b505050506040513d601f19601f82011682018060405250810190612073919061450f565b6120b2576040517f08c379a00000000000000000000000000000000000000000000000000000000081526004016120a990614bf4565b60405180910390fd5b505b808211156120d1576120d081836120cb9190614610565b612a96565b5b50505050505b50565b60035f9054906101000a900473ffffffffffffffffffffffffffffffffffffffff1681565b60055481565b5f60165f3373ffffffffffffffffffffffffffffffffffffffff1673ffffffffffffffffffffffffffffffffffffffff1681526020019081526020015f205414612184576040517f08c379a000000000000000000000000000000000000000000000000000000000815260040161217b90614c5c565b60405180910390fd5b5f60175f8381526020019081526020015f2060030154116121da576040517f08c379a00000000000000000000000000000000000000000000000000000000081526004016121d190614cc4565b60405180910390fd5b5f5f9054906101000a900473ffffffffffffffffffffffffffffffffffffffff1673ffffffffffffffffffffffffffffffffffffffff166323b872dd333060075f8154811061222c5761222b61434b565b5b905f5260205f2001546040518463ffffffff1660e01b8152600401612253939291906144b0565b6020604051808303815f875af115801561226f573d5f5f3e3d5ffd5b505050506040513d601f19601f82011682018060405250810190612293919061450f565b505f60056006546122a49190614708565b6005546122b19190614567565b90508060165f3373ffffffffffffffffffffffffffffffffffffffff1673ffffffffffffffffffffffffffffffffffffffff1681526020019081526020015f20819055505f60175f8381526020019081526020015f20905033815f015f6101000a81548173ffffffffffffffffffffffffffffffffffffffff021916908373ffffffffffffffffffffffffffffffffffffffff1602179055504281600201819055508181600301819055508281600401819055506001816006018190555060075f815481106123835761238261434b565b5b905f5260205f20015481600901819055504281600c0181905550600160175f8581526020019081526020015f206007015f8282546123c19190614567565b92505081905550601c5f8481526020019081526020015f2082908060018154018082558091505060019003905f5260205f20015f9091909190915055602382908060018154018082558091505060019003905f5260205f20015f9091909190915055601d54601e5f8481526020019081526020015f20819055506124458284613422565b80600101604051806080016040528060075f815481106124685761246761434b565b5b905f5260205f20015481526020015f8152602001428152602001600160ff16815250908060018154018082558091505060019003905f5260205f2090600402015f909190919091505f820151815f015560208201518160010155604082015181600201556060820151816003015f6101000a81548160ff021916908360ff16021790555050505f60075f815481106125035761250261434b565b5b905f5260205f20015490505f6064600a8361251e9190614708565b6125289190614670565b90505f606460238461253a9190614708565b6125449190614670565b905060646005846125559190614708565b61255f9190614670565b601f5f82825461256f9190614567565b925050819055505f60646032856125869190614708565b6125909190614670565b905061259b81612a28565b6125a483612a96565b6125b5856004015487846001612ca8565b600160065f8282546125c79190614567565b925050819055508560175f8981526020019081526020015f205f015f9054906101000a900473ffffffffffffffffffffffffffffffffffffffff1673ffffffffffffffffffffffffffffffffffffffff163373ffffffffffffffffffffffffffffffffffffffff167f309bb360e8b69c23937ccc5fb01f9aeeead1c95a99604e175113ff82f2b1723a88600501546040516126629190613d1a565b60405180910390a450505050505050565b60045f9054906101000a900473ffffffffffffffffffffffffffffffffffffffff1681565b60088054905083106126df576040517f08c379a00000000000000000000000000000000000000000000000000000000081526004016126d690614d2c565b60405180910390fd5b600883815481106126f3576126f261434b565b5b905f5260205f200154341461273d576040517f08c379a000000000000000000000000000000000000000000000000000000000815260040161273490614d94565b60405180910390fd5b5f60145f8581526020019081526020015f2080548060200260200160405190810160405280929190818152602001828054801561279757602002820191905f5260205f20905b815481526020019060010190808311612783575b505050505090505f815190505f816005546127b29190614567565b905060145f8781526020019081526020015f2081908060018154018082558091505060019003905f5260205f20015f90919091909150555f60036001846127f99190614610565b6128039190614670565b90505f8482815181106128195761281861434b565b5b602002602001015190506040518060a001604052808481526020018863ffffffff1681526020018981526020018281526020015f81525060115f8a81526020019081526020015f205f8581526020019081526020015f205f820151815f01556020820151816001015560408201518160020155606082015181600301556080820151816004015590505060145f8981526020019081526020015f2083908060018154018082558091505060019003905f5260205f20015f909190919091505560135f8981526020019081526020015f205f8863ffffffff1681526020019081526020015f2083908060018154018082558091505060019003905f5260205f20015f909190919091505560125f8981526020019081526020015f205f8281526020019081526020015f2083908060018154018082558091505060019003905f5260205f20015f909190919091505561297881898963ffffffff168961368e565b5050505050505050565b5f5f60175f8581526020019081526020015f2090505f60185f8681526020019081526020015f2090506007805490508260060154036129c5578392505050612a22565b5f600a601984600901546129d99190614708565b6129e39190614670565b905080825f0154106129fa575f9350505050612a22565b5f825f015482612a0a9190614610565b9050808611612a195785612a1b565b805b9450505050505b92915050565b5f60238054905090505f811480612a3e57505f82145b15612a5b575f821115612a5557612a5482612a96565b5b50612a93565b80670de0b6b3a764000083612a709190614708565b612a7a9190614670565b601d5f828254612a8a9190614567565b92505081905550505b50565b5f73ffffffffffffffffffffffffffffffffffffffff1660025f9054906101000a900473ffffffffffffffffffffffffffffffffffffffff1673ffffffffffffffffffffffffffffffffffffffff1603612b25576040517f08c379a0000000000000000000000000000000000000000000000000000000008152600401612b1c90614dfc565b60405180910390fd5b5f5f9054906101000a900473ffffffffffffffffffffffffffffffffffffffff1673ffffffffffffffffffffffffffffffffffffffff1663a9059cbb60025f9054906101000a900473ffffffffffffffffffffffffffffffffffffffff16836040518363ffffffff1660e01b8152600401612ba1929190614b83565b6020604051808303815f875af1158015612bbd573d5f5f3e3d5ffd5b505050506040513d601f19601f82011682018060405250810190612be1919061450f565b505f60185f60055481526020019081526020015f20905081815f015f828254612c0a9190614567565b9250508190555060195f60055481526020019081526020015f206040518060a001604052805f81526020018481526020015f81526020014281526020016005815250908060018154018082558091505060019003905f5260205f2090600502015f909190919091505f820151815f01556020820151816001015560408201518160020155606082015181600301556080820151816004015550505050565b5f841480612cb7575060055484145b15612cca57612cc582612a96565b612f5a565b5f60175f8681526020019081526020015f20905060018214612d0357600281600701541015612d0257612cfc83612a96565b50612f5a565b5b5f5f9054906101000a900473ffffffffffffffffffffffffffffffffffffffff1673ffffffffffffffffffffffffffffffffffffffff1663a9059cbb825f015f9054906101000a900473ffffffffffffffffffffffffffffffffffffffff16856040518363ffffffff1660e01b8152600401612d80929190614b83565b6020604051808303815f875af1158015612d9c573d5f5f3e3d5ffd5b505050506040513d601f19601f82011682018060405250810190612dc0919061450f565b505f60185f8781526020019081526020015f20905083815f015f828254612de79190614567565b9250508190555083816001015f828254612e019190614567565b9250508190555060195f8781526020019081526020015f206040518060a001604052808781526020018681526020018581526020014281526020016001815250908060018154018082558091505060019003905f5260205f2090600502015f909190919091505f820151815f015560208201518160010155604082015181600201556060820151816003015560808201518160040155505060175f8681526020019081526020015f205f015f9054906101000a900473ffffffffffffffffffffffffffffffffffffffff1673ffffffffffffffffffffffffffffffffffffffff16825f015f9054906101000a900473ffffffffffffffffffffffffffffffffffffffff1673ffffffffffffffffffffffffffffffffffffffff167fe17b61d324ce17328f433d0ab62581c0f0aa997312bae80fbdfcd2aa9b91d6e386866001604051612f4f93929190614e53565b60405180910390a350505b50505050565b5f60019050600554851480612f7457505f85145b15612f8857612f8283612a96565b506132b6565b5f8590505b82821015612fe6578180612fa090614e88565b92505060175f8281526020019081526020015f20600501549050600554811480612fc957505f81145b15612fe157829150612fda84612a96565b50506132b6565b612f8d565b5f8190505f92505b5f811415801561300057506005548114155b801561300c5750600f83105b156132a9575f60175f8381526020019081526020015f2090508481600601541061328e575f5f9054906101000a900473ffffffffffffffffffffffffffffffffffffffff1673ffffffffffffffffffffffffffffffffffffffff1663a9059cbb825f015f9054906101000a900473ffffffffffffffffffffffffffffffffffffffff16886040518363ffffffff1660e01b81526004016130ad929190614b83565b6020604051808303815f875af11580156130c9573d5f5f3e3d5ffd5b505050506040513d601f19601f820116820180604052508101906130ed919061450f565b505f60185f8481526020019081526020015f20905086815f015f8282546131149190614567565b9250508190555086816002015f82825461312e9190614567565b9250508190555060195f8481526020019081526020015f206040518060a001604052808a81526020018981526020018881526020014281526020016002815250908060018154018082558091505060019003905f5260205f2090600502015f909190919091505f820151815f015560208201518160010155604082015181600201556060820151816003015560808201518160040155505060175f8981526020019081526020015f205f015f9054906101000a900473ffffffffffffffffffffffffffffffffffffffff1673ffffffffffffffffffffffffffffffffffffffff16825f015f9054906101000a900473ffffffffffffffffffffffffffffffffffffffff1673ffffffffffffffffffffffffffffffffffffffff167fe17b61d324ce17328f433d0ab62581c0f0aa997312bae80fbdfcd2aa9b91d6e38989600260405161327c93929190614f08565b60405180910390a350505050506132b6565b8060050154915083806132a090614e88565b94505050612fee565b6132b285612a96565b5050505b50505050565b5f8514806132cb575060055485145b156132de576132d983612a96565b61341b565b5f8190505f81036132f8576132f284612a96565b5061341b565b5f81856133059190614670565b90505f82826133149190614708565b8661331f9190614610565b90505f600190505f8990505f5f90505b85811015613402575f821415801561334957506005548214155b156133d7578760175f8481526020019081526020015f2060060154106133b0575f5f90505b8381101561338f57613382838c888c613828565b808060010191505061336e565b5060175f8381526020019081526020015f20600501549150600192506133d6565b60175f8381526020019081526020015f2060050154915082806133d290614e88565b9350505b5b5f8214806133e6575060055482145b156133f5576133f485612a96565b5b808060010191505061332f565b505f8311156134155761341483612a96565b5b50505050505b5050505050565b5f5f6002601b5f8581526020019081526020015f20541015613487578260175f8681526020019081526020015f20600501819055506001601b5f8581526020019081526020015f205f8282546134789190614567565b925050819055508290506135de565b5f5f90505b600f8110156135dc57826135dc576002816134a79190614567565b60026134b3919061506c565b601a5f8681526020019081526020015f205f6001846134d29190614567565b81526020019081526020015f208054905010156135cf575f5f90505b601a5f8681526020019081526020015f205f8381526020019081526020015f20805490508110156135cd57836135cd575f601a5f8781526020019081526020015f205f8481526020019081526020015f2082815481106135515761355061434b565b5b905f5260205f20015490506002601b5f8381526020019081526020015f205410156135bf578060175f8981526020019081526020015f20600501819055506001601b5f8381526020019081526020015f205f8282546135b09190614567565b92505081905550809350600194505b5080806001019150506134ee565b505b808060010191505061348c565b505b5f5f90505b600f811015613687575f82031561368757600160175f8481526020019081526020015f206008015f8282546136189190614567565b92505081905550601a5f8381526020019081526020015f205f8281526020019081526020015f2085908060018154018082558091505060019003905f5260205f20015f909190919091505560175f8381526020019081526020015f2060050154915080806001019150506135e3565b5050505050565b5f84148061369d575060055484145b156136b0576136ab81612a96565b613822565b5f6003826136be9190614670565b90505f5f90505b600381101561381f575f60115f8781526020019081526020015f205f8881526020019081526020015f2090505f816001015490506027826004015410156138105760188260040154101561373c576001826004015f8282546137279190614567565b9250508190555061373b8187866001613a76565b5b6018826004015410158015613755575060248260040154105b156137ae576001826004015f82825461376e9190614567565b925050819055508360105f8981526020019081526020015f205f8381526020019081526020015f205f015f8282546137a69190614567565b925050819055505b602482600401541061380f576001826004015f8282546137ce9190614567565b925050819055508360105f8981526020019081526020015f205f8381526020019081526020015f206001015f8282546138079190614567565b925050819055505b5b505080806001019150506136c5565b50505b50505050565b5f60175f8681526020019081526020015f205f015f9054906101000a900473ffffffffffffffffffffffffffffffffffffffff1690505f5f9054906101000a900473ffffffffffffffffffffffffffffffffffffffff1673ffffffffffffffffffffffffffffffffffffffff1663a9059cbb82856040518363ffffffff1660e01b81526004016138b9929190614b83565b6020604051808303815f875af11580156138d5573d5f5f3e3d5ffd5b505050506040513d601f19601f820116820180604052508101906138f9919061450f565b505f60185f8781526020019081526020015f20905083815f015f8282546139209190614567565b9250508190555083816003015f82825461393a9190614567565b9250508190555060195f8781526020019081526020015f206040518060a001604052808781526020018681526020018581526020014281526020016004815250908060018154018082558091505060019003905f5260205f2090600502015f909190919091505f820151815f015560208201518160010155604082015181600201556060820151816003015560808201518160040155505060175f8681526020019081526020015f205f015f9054906101000a900473ffffffffffffffffffffffffffffffffffffffff1673ffffffffffffffffffffffffffffffffffffffff168273ffffffffffffffffffffffffffffffffffffffff167fe17b61d324ce17328f433d0ab62581c0f0aa997312bae80fbdfcd2aa9b91d6e386866004604051613a66939291906150ef565b60405180910390a3505050505050565b5f60185f8681526020019081526020015f20905082815f015f828254613a9c9190614567565b9250508190555082816008015f828254613ab69190614567565b9250508190555060195f8681526020019081526020015f206040518060a00160405280868152602001858152602001848152602001428152602001600a815250908060018154018082558091505060019003905f5260205f2090600502015f909190919091505f820151815f01556020820151816001015560408201518160020155606082015181600301556080820151816004015550505f60175f8781526020019081526020015f205f015f9054906101000a900473ffffffffffffffffffffffffffffffffffffffff1690505f6064605f86613b949190614708565b613b9e9190614670565b90505f5f9054906101000a900473ffffffffffffffffffffffffffffffffffffffff1673ffffffffffffffffffffffffffffffffffffffff1663a9059cbb83836040518363ffffffff1660e01b8152600401613bfb929190614b83565b6020604051808303815f875af1158015613c17573d5f5f3e3d5ffd5b505050506040513d601f19601f82011682018060405250810190613c3b919061450f565b50613c5d6064600587613c4e9190614708565b613c589190614670565b612a96565b60175f8781526020019081526020015f205f015f9054906101000a900473ffffffffffffffffffffffffffffffffffffffff1673ffffffffffffffffffffffffffffffffffffffff168273ffffffffffffffffffffffffffffffffffffffff167fe17b61d324ce17328f433d0ab62581c0f0aa997312bae80fbdfcd2aa9b91d6e38787600a604051613cf19392919061515d565b60405180910390a350505050505050565b5f819050919050565b613d1481613d02565b82525050565b5f602082019050613d2d5f830184613d0b565b92915050565b5f5ffd5b613d4081613d02565b8114613d4a575f5ffd5b50565b5f81359050613d5b81613d37565b92915050565b5f5f60408385031215613d7757613d76613d33565b5b5f613d8485828601613d4d565b9250506020613d9585828601613d4d565b9150509250929050565b5f63ffffffff82169050919050565b613db781613d9f565b8114613dc1575f5ffd5b50565b5f81359050613dd281613dae565b92915050565b5f60208284031215613ded57613dec613d33565b5b5f613dfa84828501613dc4565b91505092915050565b5f60208284031215613e1857613e17613d33565b5b5f613e2584828501613d4d565b91505092915050565b5f604082019050613e415f830185613d0b565b613e4e6020830184613d0b565b9392505050565b5f73ffffffffffffffffffffffffffffffffffffffff82169050919050565b5f819050919050565b5f613e97613e92613e8d84613e55565b613e74565b613e55565b9050919050565b5f613ea882613e7d565b9050919050565b5f613eb982613e9e565b9050919050565b613ec981613eaf565b82525050565b5f602082019050613ee25f830184613ec0565b92915050565b5f613ef282613e55565b9050919050565b613f0281613ee8565b82525050565b5f61018082019050613f1c5f83018f613ef9565b613f29602083018e613d0b565b613f36604083018d613d0b565b613f43606083018c613d0b565b613f50608083018b613d0b565b613f5d60a083018a613d0b565b613f6a60c0830189613d0b565b613f7760e0830188613d0b565b613f85610100830187613d0b565b613f93610120830186613d0b565b613fa1610140830185613d0b565b613faf610160830184613d0b565b9d9c50505050505050505050505050565b5f61012082019050613fd45f83018c613d0b565b613fe1602083018b613d0b565b613fee604083018a613d0b565b613ffb6060830189613d0b565b6140086080830188613d0b565b61401560a0830187613d0b565b61402260c0830186613d0b565b61402f60e0830185613d0b565b61403d610100830184613d0b565b9a9950505050505050505050565b5f5f5f6060848603121561406257614061613d33565b5b5f61406f86828701613d4d565b935050602061408086828701613d4d565b925050604061409186828701613d4d565b9150509250925092565b5f8115159050919050565b6140af8161409b565b82525050565b5f81519050919050565b5f82825260208201905092915050565b8281835e5f83830152505050565b5f601f19601f8301169050919050565b5f6140f7826140b5565b61410181856140bf565b93506141118185602086016140cf565b61411a816140dd565b840191505092915050565b5f6040820190506141385f8301856140a6565b818103602083015261414a81846140ed565b90509392505050565b5f60a0820190506141665f830188613d0b565b6141736020830187613d0b565b6141806040830186613d0b565b61418d6060830185613d0b565b61419a6080830184613d0b565b9695505050505050565b5f6020820190506141b75f830184613ef9565b92915050565b5f6020820190506141d05f8301846140a6565b92915050565b6141df81613ee8565b81146141e9575f5ffd5b50565b5f813590506141fa816141d6565b92915050565b5f6020828403121561421557614214613d33565b5b5f614222848285016141ec565b91505092915050565b5f5f5f6060848603121561424257614241613d33565b5b5f61424f86828701613dc4565b935050602061426086828701613d4d565b925050604061427186828701613d4d565b9150509250925092565b7f4e6f7420796f7572206163636f756e74000000000000000000000000000000005f82015250565b5f6142af6010836140bf565b91506142ba8261427b565b602082019050919050565b5f6020820190508181035f8301526142dc816142a3565b9050919050565b7f4174206d6178206c6576656c00000000000000000000000000000000000000005f82015250565b5f614317600c836140bf565b9150614322826142e3565b602082019050919050565b5f6020820190508181035f8301526143448161430b565b9050919050565b7f4e487b71000000000000000000000000000000000000000000000000000000005f52603260045260245ffd5b7f5570677261646520796f7572206c6576656c20666972737400000000000000005f82015250565b5f6143ac6018836140bf565b91506143b782614378565b602082019050919050565b5f6020820190508181035f8301526143d9816143a0565b9050919050565b7f4275792070726576696f757320706f6f6c2066697273740000000000000000005f82015250565b5f6144146017836140bf565b915061441f826143e0565b602082019050919050565b5f6020820190508181035f83015261444181614408565b9050919050565b7f506f6f6c20616c726561647920707572636861736564000000000000000000005f82015250565b5f61447c6016836140bf565b915061448782614448565b602082019050919050565b5f6020820190508181035f8301526144a981614470565b9050919050565b5f6060820190506144c35f830186613ef9565b6144d06020830185613ef9565b6144dd6040830184613d0b565b949350505050565b6144ee8161409b565b81146144f8575f5ffd5b50565b5f81519050614509816144e5565b92915050565b5f6020828403121561452457614523613d33565b5b5f614531848285016144fb565b91505092915050565b7f4e487b71000000000000000000000000000000000000000000000000000000005f52601160045260245ffd5b5f61457182613d02565b915061457c83613d02565b92508282019050808211156145945761459361453a565b5b92915050565b7f506f6f6c000000000000000000000000000000000000000000000000000000005f82015250565b5f6145ce6004836140bf565b91506145d98261459a565b602082019050919050565b5f6040820190506145f75f830184613d0b565b8181036020830152614608816145c2565b905092915050565b5f61461a82613d02565b915061462583613d02565b925082820390508181111561463d5761463c61453a565b5b92915050565b7f4e487b71000000000000000000000000000000000000000000000000000000005f52601260045260245ffd5b5f61467a82613d02565b915061468583613d02565b92508261469557614694614643565b5b828204905092915050565b7f416c7265616479206174206d6178206c6576656c0000000000000000000000005f82015250565b5f6146d46014836140bf565b91506146df826146a0565b602082019050919050565b5f6020820190508181035f830152614701816146c8565b9050919050565b5f61471282613d02565b915061471d83613d02565b925082820261472b81613d02565b915082820484148315176147425761474161453a565b5b5092915050565b7f536c6f74000000000000000000000000000000000000000000000000000000005f82015250565b5f61477d6004836140bf565b915061478882614749565b602082019050919050565b5f6040820190506147a65f830184613d0b565b81810360208301526147b781614771565b905092915050565b7f4174206d617820706f6f6c0000000000000000000000000000000000000000005f82015250565b5f6147f3600b836140bf565b91506147fe826147bf565b602082019050919050565b5f6020820190508181035f830152614820816147e7565b9050919050565b7f496e76616c6964207570677261646520747970650000000000000000000000005f82015250565b5f61485b6014836140bf565b915061486682614827565b602082019050919050565b5f6020820190508181035f8301526148888161484f565b9050919050565b7f4e6f7420656e6f756768207265546f7075702062616c616e63650000000000005f82015250565b5f6148c3601a836140bf565b91506148ce8261488f565b602082019050919050565b5f6020820190508181035f8301526148f0816148b7565b9050919050565b7f506f6f6c205265546f70757020284561726e696e6729000000000000000000005f82015250565b5f61492b6016836140bf565b9150614936826148f7565b602082019050919050565b5f6040820190506149545f830184613d0b565b81810360208301526149658161491f565b905092915050565b7f4e6f2068696768657220706f6f6c0000000000000000000000000000000000005f82015250565b5f6149a1600e836140bf565b91506149ac8261496d565b602082019050919050565b5f6020820190508181035f8301526149ce81614995565b9050919050565b7f4e6f7420656e6f756768206e65787420706f6f6c2062616c616e6365000000005f82015250565b5f614a09601c836140bf565b9150614a14826149d5565b602082019050919050565b5f6020820190508181035f830152614a36816149fd565b9050919050565b7f416c726561647920707572636861736564206e65787420706f6f6c00000000005f82015250565b5f614a71601b836140bf565b9150614a7c82614a3d565b602082019050919050565b5f6020820190508181035f830152614a9e81614a65565b9050919050565b7f506f6f6c205570677261646520284561726e696e6729000000000000000000005f82015250565b5f614ad96016836140bf565b9150614ae482614aa5565b602082019050919050565b5f604082019050614b025f830184613d0b565b8181036020830152614b1381614acd565b905092915050565b7f55736572206e6f7420666f756e640000000000000000000000000000000000005f82015250565b5f614b4f600e836140bf565b9150614b5a82614b1b565b602082019050919050565b5f6020820190508181035f830152614b7c81614b43565b9050919050565b5f604082019050614b965f830185613ef9565b614ba36020830184613d0b565b9392505050565b7f55534454207472616e73666572206661696c65640000000000000000000000005f82015250565b5f614bde6014836140bf565b9150614be982614baa565b602082019050919050565b5f6020820190508181035f830152614c0b81614bd2565b9050919050565b7f416c7265616479207265676973746572656400000000000000000000000000005f82015250565b5f614c466012836140bf565b9150614c5182614c12565b602082019050919050565b5f6020820190508181035f830152614c7381614c3a565b9050919050565b7f496e76616c69642073706f6e736f7200000000000000000000000000000000005f82015250565b5f614cae600f836140bf565b9150614cb982614c7a565b602082019050919050565b5f6020820190508181035f830152614cdb81614ca2565b9050919050565b7f496e76616c6964000000000000000000000000000000000000000000000000005f82015250565b5f614d166007836140bf565b9150614d2182614ce2565b602082019050919050565b5f6020820190508181035f830152614d4381614d0a565b9050919050565b7f496e636f727265637420616d6f756e74000000000000000000000000000000005f82015250565b5f614d7e6010836140bf565b9150614d8982614d4a565b602082019050919050565b5f6020820190508181035f830152614dab81614d72565b9050919050565b7f666565206164647273206e6f74207365740000000000000000000000000000005f82015250565b5f614de66011836140bf565b9150614df182614db2565b602082019050919050565b5f6020820190508181035f830152614e1381614dda565b9050919050565b5f819050919050565b5f614e3d614e38614e3384614e1a565b613e74565b613d02565b9050919050565b614e4d81614e23565b82525050565b5f606082019050614e665f830186613d0b565b614e736020830185613d0b565b614e806040830184614e44565b949350505050565b5f614e9282613d02565b91507fffffffffffffffffffffffffffffffffffffffffffffffffffffffffffffffff8203614ec457614ec361453a565b5b600182019050919050565b5f819050919050565b5f614ef2614eed614ee884614ecf565b613e74565b613d02565b9050919050565b614f0281614ed8565b82525050565b5f606082019050614f1b5f830186613d0b565b614f286020830185613d0b565b614f356040830184614ef9565b949350505050565b5f8160011c9050919050565b5f5f8291508390505b6001851115614f9257808604811115614f6e57614f6d61453a565b5b6001851615614f7d5780820291505b8081029050614f8b85614f3d565b9450614f52565b94509492505050565b5f82614faa5760019050615065565b81614fb7575f9050615065565b8160018114614fcd5760028114614fd757615006565b6001915050615065565b60ff841115614fe957614fe861453a565b5b8360020a91508482111561500057614fff61453a565b5b50615065565b5060208310610133831016604e8410600b841016171561503b5782820a9050838111156150365761503561453a565b5b615065565b6150488484846001614f49565b9250905081840481111561505f5761505e61453a565b5b81810290505b9392505050565b5f61507682613d02565b915061508183613d02565b92506150ae7fffffffffffffffffffffffffffffffffffffffffffffffffffffffffffffffff8484614f9b565b905092915050565b5f819050919050565b5f6150d96150d46150cf846150b6565b613e74565b613d02565b9050919050565b6150e9816150bf565b82525050565b5f6060820190506151025f830186613d0b565b61510f6020830185613d0b565b61511c60408301846150e0565b949350505050565b5f819050919050565b5f61514761514261513d84615124565b613e74565b613d02565b9050919050565b6151578161512d565b82525050565b5f6060820190506151705f830186613d0b565b61517d6020830185613d0b565b61518a604083018461514e565b94935050505056fe596f75206e65656420746f207265616368206120686967686572206c6576656c206669727374596f752061726520616c726561647920617420746865206869676865737420706f6f6ca26469706673582212201ee4cb9975a8dc7f7bb3fed0ec92051d331dd5fae69a6460329daa4b6ed0749d64736f6c634300081e0033",
			"opcodes": "PUSH1 0x80 PUSH1 0x40 MSTORE PUSH1 0x40 MLOAD DUP1 PUSH2 0x1E0 ADD PUSH1 0x40 MSTORE DUP1 PUSH8 0xD02AB486CEDC0000 PUSH10 0xFFFFFFFFFFFFFFFFFFFF AND DUP2 MSTORE PUSH1 0x20 ADD PUSH9 0x15AF1D78B58C40000 PUSH10 0xFFFFFFFFFFFFFFFFFFFF AND DUP2 MSTORE PUSH1 0x20 ADD PUSH9 0x2B5E3AF16B1880000 PUSH10 0xFFFFFFFFFFFFFFFFFFFF AND DUP2 MSTORE PUSH1 0x20 ADD PUSH9 0x56BC75E2D63100000 PUSH10 0xFFFFFFFFFFFFFFFFFFFF AND DUP2 MSTORE PUSH1 0x20 ADD PUSH9 0xAD78EBC5AC6200000 PUSH10 0xFFFFFFFFFFFFFFFFFFFF AND DUP2 MSTORE PUSH1 0x20 ADD PUSH9 0x15AF1D78B58C400000 PUSH10 0xFFFFFFFFFFFFFFFFFFFF AND DUP2 MSTORE PUSH1 0x20 ADD PUSH9 0x2B5E3AF16B18800000 PUSH10 0xFFFFFFFFFFFFFFFFFFFF AND DUP2 MSTORE PUSH1 0x20 ADD PUSH9 0x56BC75E2D631000000 PUSH10 0xFFFFFFFFFFFFFFFFFFFF AND DUP2 MSTORE PUSH1 0x20 ADD PUSH9 0xAD78EBC5AC62000000 PUSH10 0xFFFFFFFFFFFFFFFFFFFF AND DUP2 MSTORE PUSH1 0x20 ADD PUSH10 0x15AF1D78B58C4000000 PUSH10 0xFFFFFFFFFFFFFFFFFFFF AND DUP2 MSTORE PUSH1 0x20 ADD PUSH10 0x2B5E3AF16B188000000 PUSH10 0xFFFFFFFFFFFFFFFFFFFF AND DUP2 MSTORE PUSH1 0x20 ADD PUSH10 0x56BC75E2D6310000000 PUSH10 0xFFFFFFFFFFFFFFFFFFFF AND DUP2 MSTORE PUSH1 0x20 ADD PUSH10 0xAD78EBC5AC620000000 PUSH10 0xFFFFFFFFFFFFFFFFFFFF AND DUP2 MSTORE PUSH1 0x20 ADD PUSH10 0x15AF1D78B58C40000000 PUSH10 0xFFFFFFFFFFFFFFFFFFFF AND DUP2 MSTORE PUSH1 0x20 ADD PUSH10 0x2B5E3AF16B1880000000 PUSH10 0xFFFFFFFFFFFFFFFFFFFF AND DUP2 MSTORE POP PUSH1 0x7 SWAP1 PUSH1 0xF PUSH2 0x1B8 SWAP3 SWAP2 SWAP1 PUSH2 0x677 JUMP JUMPDEST POP PUSH1 0x40 MLOAD DUP1 PUSH1 0xE0 ADD PUSH1 0x40 MSTORE DUP1 PUSH9 0x15AF1D78B58C40000 PUSH10 0xFFFFFFFFFFFFFFFFFFFF AND DUP2 MSTORE PUSH1 0x20 ADD PUSH9 0x56BC75E2D63100000 PUSH10 0xFFFFFFFFFFFFFFFFFFFF AND DUP2 MSTORE PUSH1 0x20 ADD PUSH9 0x15AF1D78B58C400000 PUSH10 0xFFFFFFFFFFFFFFFFFFFF AND DUP2 MSTORE PUSH1 0x20 ADD PUSH9 0x56BC75E2D631000000 PUSH10 0xFFFFFFFFFFFFFFFFFFFF AND DUP2 MSTORE PUSH1 0x20 ADD PUSH10 0x15AF1D78B58C4000000 PUSH10 0xFFFFFFFFFFFFFFFFFFFF AND DUP2 MSTORE PUSH1 0x20 ADD PUSH10 0x56BC75E2D6310000000 PUSH10 0xFFFFFFFFFFFFFFFFFFFF AND DUP2 MSTORE PUSH1 0x20 ADD PUSH10 0x15AF1D78B58C40000000 PUSH10 0xFFFFFFFFFFFFFFFFFFFF AND DUP2 MSTORE POP PUSH1 0x8 SWAP1 PUSH1 0x7 PUSH2 0x292 SWAP3 SWAP2 SWAP1 PUSH2 0x6D0 JUMP JUMPDEST POP PUSH1 0x40 MLOAD DUP1 PUSH1 0xE0 ADD PUSH1 0x40 MSTORE DUP1 PUSH1 0x3 PUSH1 0xFF AND DUP2 MSTORE PUSH1 0x20 ADD PUSH1 0x5 PUSH1 0xFF AND DUP2 MSTORE PUSH1 0x20 ADD PUSH1 0x7 PUSH1 0xFF AND DUP2 MSTORE PUSH1 0x20 ADD PUSH1 0x9 PUSH1 0xFF AND DUP2 MSTORE PUSH1 0x20 ADD PUSH1 0xB PUSH1 0xFF AND DUP2 MSTORE PUSH1 0x20 ADD PUSH1 0xD PUSH1 0xFF AND DUP2 MSTORE PUSH1 0x20 ADD PUSH1 0xF PUSH1 0xFF AND DUP2 MSTORE POP PUSH1 0x9 SWAP1 PUSH1 0x7 PUSH2 0x2F2 SWAP3 SWAP2 SWAP1 PUSH2 0x729 JUMP JUMPDEST POP PUSH3 0x15180 PUSH1 0x22 SSTORE CALLVALUE DUP1 ISZERO PUSH2 0x305 JUMPI PUSH0 PUSH0 REVERT JUMPDEST POP PUSH1 0x40 MLOAD PUSH2 0x5AFF CODESIZE SUB DUP1 PUSH2 0x5AFF DUP4 CODECOPY DUP2 DUP2 ADD PUSH1 0x40 MSTORE DUP2 ADD SWAP1 PUSH2 0x327 SWAP2 SWAP1 PUSH2 0x7E7 JUMP JUMPDEST DUP4 PUSH0 PUSH0 PUSH2 0x100 EXP DUP2 SLOAD DUP2 PUSH20 0xFFFFFFFFFFFFFFFFFFFFFFFFFFFFFFFFFFFFFFFF MUL NOT AND SWAP1 DUP4 PUSH20 0xFFFFFFFFFFFFFFFFFFFFFFFFFFFFFFFFFFFFFFFF AND MUL OR SWAP1 SSTORE POP DUP3 PUSH1 0x2 PUSH0 PUSH2 0x100 EXP DUP2 SLOAD DUP2 PUSH20 0xFFFFFFFFFFFFFFFFFFFFFFFFFFFFFFFFFFFFFFFF MUL NOT AND SWAP1 DUP4 PUSH20 0xFFFFFFFFFFFFFFFFFFFFFFFFFFFFFFFFFFFFFFFF AND MUL OR SWAP1 SSTORE POP DUP2 PUSH1 0x3 PUSH0 PUSH2 0x100 EXP DUP2 SLOAD DUP2 PUSH20 0xFFFFFFFFFFFFFFFFFFFFFFFFFFFFFFFFFFFFFFFF MUL NOT AND SWAP1 DUP4 PUSH20 0xFFFFFFFFFFFFFFFFFFFFFFFFFFFFFFFFFFFFFFFF AND MUL OR SWAP1 SSTORE POP DUP1 PUSH1 0x4 PUSH0 PUSH2 0x100 EXP DUP2 SLOAD DUP2 PUSH20 0xFFFFFFFFFFFFFFFFFFFFFFFFFFFFFFFFFFFFFFFF MUL NOT AND SWAP1 DUP4 PUSH20 0xFFFFFFFFFFFFFFFFFFFFFFFFFFFFFFFFFFFFFFFF AND MUL OR SWAP1 SSTORE POP PUSH2 0x3E8 PUSH1 0x5 DUP2 SWAP1 SSTORE POP PUSH1 0x1 PUSH1 0x6 DUP2 SWAP1 SSTORE POP PUSH0 PUSH1 0x17 PUSH0 PUSH1 0x5 SLOAD DUP2 MSTORE PUSH1 0x20 ADD SWAP1 DUP2 MSTORE PUSH1 0x20 ADD PUSH0 KECCAK256 SWAP1 POP DUP4 DUP2 PUSH0 ADD PUSH0 PUSH2 0x100 EXP DUP2 SLOAD DUP2 PUSH20 0xFFFFFFFFFFFFFFFFFFFFFFFFFFFFFFFFFFFFFFFF MUL NOT AND SWAP1 DUP4 PUSH20 0xFFFFFFFFFFFFFFFFFFFFFFFFFFFFFFFFFFFFFFFF AND MUL OR SWAP1 SSTORE POP PUSH1 0x5 SLOAD DUP2 PUSH1 0x3 ADD DUP2 SWAP1 SSTORE POP PUSH1 0xF DUP2 PUSH1 0x6 ADD DUP2 SWAP1 SSTORE POP TIMESTAMP DUP2 PUSH1 0xC ADD DUP2 SWAP1 SSTORE POP PUSH1 0x7 DUP2 PUSH1 0xA ADD DUP2 SWAP1 SSTORE POP PUSH0 PUSH0 SWAP1 POP PUSH0 PUSH0 SWAP1 POP JUMPDEST PUSH1 0xF DUP2 LT ISZERO PUSH2 0x4FF JUMPI PUSH1 0x7 DUP2 DUP2 SLOAD DUP2 LT PUSH2 0x4DC JUMPI PUSH2 0x4DB PUSH2 0x84B JUMP JUMPDEST JUMPDEST SWAP1 PUSH0 MSTORE PUSH1 0x20 PUSH0 KECCAK256 ADD SLOAD DUP3 PUSH2 0x4F0 SWAP2 SWAP1 PUSH2 0x8AE JUMP JUMPDEST SWAP2 POP DUP1 DUP1 PUSH1 0x1 ADD SWAP2 POP POP PUSH2 0x4BF JUMP JUMPDEST POP DUP1 DUP3 PUSH1 0x9 ADD DUP2 SWAP1 SSTORE POP PUSH1 0x5 SLOAD PUSH1 0x16 PUSH0 DUP8 PUSH20 0xFFFFFFFFFFFFFFFFFFFFFFFFFFFFFFFFFFFFFFFF AND PUSH20 0xFFFFFFFFFFFFFFFFFFFFFFFFFFFFFFFFFFFFFFFF AND DUP2 MSTORE PUSH1 0x20 ADD SWAP1 DUP2 MSTORE PUSH1 0x20 ADD PUSH0 KECCAK256 DUP2 SWAP1 SSTORE POP PUSH0 PUSH0 SWAP1 POP JUMPDEST PUSH1 0x8 DUP1 SLOAD SWAP1 POP DUP2 LT ISZERO PUSH2 0x66B JUMPI PUSH1 0x40 MLOAD DUP1 PUSH1 0xA0 ADD PUSH1 0x40 MSTORE DUP1 PUSH1 0x5 SLOAD DUP2 MSTORE PUSH1 0x20 ADD PUSH1 0x5 SLOAD DUP2 MSTORE PUSH1 0x20 ADD DUP3 DUP2 MSTORE PUSH1 0x20 ADD PUSH0 DUP2 MSTORE PUSH1 0x20 ADD PUSH0 DUP2 MSTORE POP PUSH1 0x11 PUSH0 DUP4 DUP2 MSTORE PUSH1 0x20 ADD SWAP1 DUP2 MSTORE PUSH1 0x20 ADD PUSH0 KECCAK256 PUSH0 PUSH1 0x5 SLOAD DUP2 MSTORE PUSH1 0x20 ADD SWAP1 DUP2 MSTORE PUSH1 0x20 ADD PUSH0 KECCAK256 PUSH0 DUP3 ADD MLOAD DUP2 PUSH0 ADD SSTORE PUSH1 0x20 DUP3 ADD MLOAD DUP2 PUSH1 0x1 ADD SSTORE PUSH1 0x40 DUP3 ADD MLOAD DUP2 PUSH1 0x2 ADD SSTORE PUSH1 0x60 DUP3 ADD MLOAD DUP2 PUSH1 0x3 ADD SSTORE PUSH1 0x80 DUP3 ADD MLOAD DUP2 PUSH1 0x4 ADD SSTORE SWAP1 POP POP PUSH1 0x14 PUSH0 DUP3 DUP2 MSTORE PUSH1 0x20 ADD SWAP1 DUP2 MSTORE PUSH1 0x20 ADD PUSH0 KECCAK256 PUSH1 0x5 SLOAD SWAP1 DUP1 PUSH1 0x1 DUP2 SLOAD ADD DUP1 DUP3 SSTORE DUP1 SWAP2 POP POP PUSH1 0x1 SWAP1 SUB SWAP1 PUSH0 MSTORE PUSH1 0x20 PUSH0 KECCAK256 ADD PUSH0 SWAP1 SWAP2 SWAP1 SWAP2 SWAP1 SWAP2 POP SSTORE PUSH1 0x13 PUSH0 DUP3 DUP2 MSTORE PUSH1 0x20 ADD SWAP1 DUP2 MSTORE PUSH1 0x20 ADD PUSH0 KECCAK256 PUSH0 PUSH1 0x5 SLOAD DUP2 MSTORE PUSH1 0x20 ADD SWAP1 DUP2 MSTORE PUSH1 0x20 ADD PUSH0 KECCAK256 PUSH1 0x5 SLOAD SWAP1 DUP1 PUSH1 0x1 DUP2 SLOAD ADD DUP1 DUP3 SSTORE DUP1 SWAP2 POP POP PUSH1 0x1 SWAP1 SUB SWAP1 PUSH0 MSTORE PUSH1 0x20 PUSH0 KECCAK256 ADD PUSH0 SWAP1 SWAP2 SWAP1 SWAP2 SWAP1 SWAP2 POP SSTORE DUP1 DUP1 PUSH1 0x1 ADD SWAP2 POP POP PUSH2 0x552 JUMP JUMPDEST POP POP POP POP POP POP POP PUSH2 0x8E1 JUMP JUMPDEST DUP3 DUP1 SLOAD DUP3 DUP3 SSTORE SWAP1 PUSH0 MSTORE PUSH1 0x20 PUSH0 KECCAK256 SWAP1 DUP2 ADD SWAP3 DUP3 ISZERO PUSH2 0x6BF JUMPI SWAP2 PUSH1 0x20 MUL DUP3 ADD JUMPDEST DUP3 DUP2 GT ISZERO PUSH2 0x6BE JUMPI DUP3 MLOAD DUP3 SWAP1 PUSH10 0xFFFFFFFFFFFFFFFFFFFF AND SWAP1 SSTORE SWAP2 PUSH1 0x20 ADD SWAP2 SWAP1 PUSH1 0x1 ADD SWAP1 PUSH2 0x695 JUMP JUMPDEST JUMPDEST POP SWAP1 POP PUSH2 0x6CC SWAP2 SWAP1 PUSH2 0x76E JUMP JUMPDEST POP SWAP1 JUMP JUMPDEST DUP3 DUP1 SLOAD DUP3 DUP3 SSTORE SWAP1 PUSH0 MSTORE PUSH1 0x20 PUSH0 KECCAK256 SWAP1 DUP2 ADD SWAP3 DUP3 ISZERO PUSH2 0x718 JUMPI SWAP2 PUSH1 0x20 MUL DUP3 ADD JUMPDEST DUP3 DUP2 GT ISZERO PUSH2 0x717 JUMPI DUP3 MLOAD DUP3 SWAP1 PUSH10 0xFFFFFFFFFFFFFFFFFFFF AND SWAP1 SSTORE SWAP2 PUSH1 0x20 ADD SWAP2 SWAP1 PUSH1 0x1 ADD SWAP1 PUSH2 0x6EE JUMP JUMPDEST JUMPDEST POP SWAP1 POP PUSH2 0x725 SWAP2 SWAP1 PUSH2 0x76E JUMP JUMPDEST POP SWAP1 JUMP JUMPDEST DUP3 PUSH1 0x7 DUP2 ADD SWAP3 DUP3 ISZERO PUSH2 0x75D JUMPI SWAP2 PUSH1 0x20 MUL DUP3 ADD JUMPDEST DUP3 DUP2 GT ISZERO PUSH2 0x75C JUMPI DUP3 MLOAD DUP3 SWAP1 PUSH1 0xFF AND SWAP1 SSTORE SWAP2 PUSH1 0x20 ADD SWAP2 SWAP1 PUSH1 0x1 ADD SWAP1 PUSH2 0x73C JUMP JUMPDEST JUMPDEST POP SWAP1 POP PUSH2 0x76A SWAP2 SWAP1 PUSH2 0x76E JUMP JUMPDEST POP SWAP1 JUMP JUMPDEST JUMPDEST DUP1 DUP3 GT ISZERO PUSH2 0x785 JUMPI PUSH0 DUP2 PUSH0 SWAP1 SSTORE POP PUSH1 0x1 ADD PUSH2 0x76F JUMP JUMPDEST POP SWAP1 JUMP JUMPDEST PUSH0 PUSH0 REVERT JUMPDEST PUSH0 PUSH20 0xFFFFFFFFFFFFFFFFFFFFFFFFFFFFFFFFFFFFFFFF DUP3 AND SWAP1 POP SWAP2 SWAP1 POP JUMP JUMPDEST PUSH0 PUSH2 0x7B6 DUP3 PUSH2 0x78D JUMP JUMPDEST SWAP1 POP SWAP2 SWAP1 POP JUMP JUMPDEST PUSH2 0x7C6 DUP2 PUSH2 0x7AC JUMP JUMPDEST DUP2 EQ PUSH2 0x7D0 JUMPI PUSH0 PUSH0 REVERT JUMPDEST POP JUMP JUMPDEST PUSH0 DUP2 MLOAD SWAP1 POP PUSH2 0x7E1 DUP2 PUSH2 0x7BD JUMP JUMPDEST SWAP3 SWAP2 POP POP JUMP JUMPDEST PUSH0 PUSH0 PUSH0 PUSH0 PUSH1 0x80 DUP6 DUP8 SUB SLT ISZERO PUSH2 0x7FF JUMPI PUSH2 0x7FE PUSH2 0x789 JUMP JUMPDEST JUMPDEST PUSH0 PUSH2 0x80C DUP8 DUP3 DUP9 ADD PUSH2 0x7D3 JUMP JUMPDEST SWAP5 POP POP PUSH1 0x20 PUSH2 0x81D DUP8 DUP3 DUP9 ADD PUSH2 0x7D3 JUMP JUMPDEST SWAP4 POP POP PUSH1 0x40 PUSH2 0x82E DUP8 DUP3 DUP9 ADD PUSH2 0x7D3 JUMP JUMPDEST SWAP3 POP POP PUSH1 0x60 PUSH2 0x83F DUP8 DUP3 DUP9 ADD PUSH2 0x7D3 JUMP JUMPDEST SWAP2 POP POP SWAP3 SWAP6 SWAP2 SWAP5 POP SWAP3 POP JUMP JUMPDEST PUSH32 0x4E487B7100000000000000000000000000000000000000000000000000000000 PUSH0 MSTORE PUSH1 0x32 PUSH1 0x4 MSTORE PUSH1 0x24 PUSH0 REVERT JUMPDEST PUSH0 DUP2 SWAP1 POP SWAP2 SWAP1 POP JUMP JUMPDEST PUSH32 0x4E487B7100000000000000000000000000000000000000000000000000000000 PUSH0 MSTORE PUSH1 0x11 PUSH1 0x4 MSTORE PUSH1 0x24 PUSH0 REVERT JUMPDEST PUSH0 PUSH2 0x8B8 DUP3 PUSH2 0x878 JUMP JUMPDEST SWAP2 POP PUSH2 0x8C3 DUP4 PUSH2 0x878 JUMP JUMPDEST SWAP3 POP DUP3 DUP3 ADD SWAP1 POP DUP1 DUP3 GT ISZERO PUSH2 0x8DB JUMPI PUSH2 0x8DA PUSH2 0x881 JUMP JUMPDEST JUMPDEST SWAP3 SWAP2 POP POP JUMP JUMPDEST PUSH2 0x5211 DUP1 PUSH2 0x8EE PUSH0 CODECOPY PUSH0 RETURN INVALID PUSH1 0x80 PUSH1 0x40 MSTORE CALLVALUE DUP1 ISZERO PUSH2 0xF JUMPI PUSH0 PUSH0 REVERT JUMPDEST POP PUSH1 0x4 CALLDATASIZE LT PUSH2 0x25C JUMPI PUSH0 CALLDATALOAD PUSH1 0xE0 SHR DUP1 PUSH4 0x70C8D770 GT PUSH2 0x144 JUMPI DUP1 PUSH4 0xBF724672 GT PUSH2 0xC1 JUMPI DUP1 PUSH4 0xD11FD08D GT PUSH2 0x85 JUMPI DUP1 PUSH4 0xD11FD08D EQ PUSH2 0x81A JUMPI DUP1 PUSH4 0xD54D6DDB EQ PUSH2 0x836 JUMPI DUP1 PUSH4 0xE9E34A16 EQ PUSH2 0x852 JUMPI DUP1 PUSH4 0xEC597E6F EQ PUSH2 0x870 JUMPI DUP1 PUSH4 0xF207564E EQ PUSH2 0x88E JUMPI DUP1 PUSH4 0xF5D74D93 EQ PUSH2 0x8AA JUMPI PUSH2 0x25C JUMP JUMPDEST DUP1 PUSH4 0xBF724672 EQ PUSH2 0x737 JUMPI DUP1 PUSH4 0xBFF1F9E1 EQ PUSH2 0x768 JUMPI DUP1 PUSH4 0xC216212A EQ PUSH2 0x786 JUMPI DUP1 PUSH4 0xCB0E0D7D EQ PUSH2 0x7B6 JUMPI DUP1 PUSH4 0xCE79C2C3 EQ PUSH2 0x7E6 JUMPI PUSH2 0x25C JUMP JUMPDEST DUP1 PUSH4 0x8D58644C GT PUSH2 0x108 JUMPI DUP1 PUSH4 0x8D58644C EQ PUSH2 0x659 JUMPI DUP1 PUSH4 0x8DA5CB5B EQ PUSH2 0x689 JUMPI DUP1 PUSH4 0x8F030ECE EQ PUSH2 0x6A7 JUMPI DUP1 PUSH4 0xAE4708DC EQ PUSH2 0x6D7 JUMPI DUP1 PUSH4 0xBD1AAE40 EQ PUSH2 0x707 JUMPI PUSH2 0x25C JUMP JUMPDEST DUP1 PUSH4 0x70C8D770 EQ PUSH2 0x59B JUMPI DUP1 PUSH4 0x78F6AD6D EQ PUSH2 0x5CF JUMPI DUP1 PUSH4 0x7CDC65F2 EQ PUSH2 0x5ED JUMPI DUP1 PUSH4 0x81A0B816 EQ PUSH2 0x60B JUMPI DUP1 PUSH4 0x88AFBE3E EQ PUSH2 0x629 JUMPI PUSH2 0x25C JUMP JUMPDEST DUP1 PUSH4 0x32FCD966 GT PUSH2 0x1DD JUMPI DUP1 PUSH4 0x46B9DECE GT PUSH2 0x1A1 JUMPI DUP1 PUSH4 0x46B9DECE EQ PUSH2 0x496 JUMPI DUP1 PUSH4 0x52A8C4C4 EQ PUSH2 0x4CE JUMPI DUP1 PUSH4 0x58C7D352 EQ PUSH2 0x4EC JUMPI DUP1 PUSH4 0x5AABF7F1 EQ PUSH2 0x50A JUMPI DUP1 PUSH4 0x5EC64A44 EQ PUSH2 0x53A JUMPI DUP1 PUSH4 0x67D52D4D EQ PUSH2 0x56A JUMPI PUSH2 0x25C JUMP JUMPDEST DUP1 PUSH4 0x32FCD966 EQ PUSH2 0x3D3 JUMPI DUP1 PUSH4 0x365B98B2 EQ PUSH2 0x3F1 JUMPI DUP1 PUSH4 0x375B43B4 EQ PUSH2 0x42C JUMPI DUP1 PUSH4 0x39AB3603 EQ PUSH2 0x44A JUMPI DUP1 PUSH4 0x45977D03 EQ PUSH2 0x47A JUMPI PUSH2 0x25C JUMP JUMPDEST DUP1 PUSH4 0x2132D204 GT PUSH2 0x224 JUMPI DUP1 PUSH4 0x2132D204 EQ PUSH2 0x318 JUMPI DUP1 PUSH4 0x24513088 EQ PUSH2 0x348 JUMPI DUP1 PUSH4 0x2C831633 EQ PUSH2 0x379 JUMPI DUP1 PUSH4 0x2F48AB7D EQ PUSH2 0x397 JUMPI DUP1 PUSH4 0x32BC298C EQ PUSH2 0x3B5 JUMPI PUSH2 0x25C JUMP JUMPDEST DUP1 PUSH4 0x1BE02B2 EQ PUSH2 0x260 JUMPI DUP1 PUSH4 0x1C234A8 EQ PUSH2 0x27E JUMPI DUP1 PUSH4 0xF2B7CC9 EQ PUSH2 0x29C JUMPI DUP1 PUSH4 0x11F65D39 EQ PUSH2 0x2CC JUMPI DUP1 PUSH4 0x18AB487F EQ PUSH2 0x2E8 JUMPI JUMPDEST PUSH0 PUSH0 REVERT JUMPDEST PUSH2 0x268 PUSH2 0x8C8 JUMP JUMPDEST PUSH1 0x40 MLOAD PUSH2 0x275 SWAP2 SWAP1 PUSH2 0x3D1A JUMP JUMPDEST PUSH1 0x40 MLOAD DUP1 SWAP2 SUB SWAP1 RETURN JUMPDEST PUSH2 0x286 PUSH2 0x8CE JUMP JUMPDEST PUSH1 0x40 MLOAD PUSH2 0x293 SWAP2 SWAP1 PUSH2 0x3D1A JUMP JUMPDEST PUSH1 0x40 MLOAD DUP1 SWAP2 SUB SWAP1 RETURN JUMPDEST PUSH2 0x2B6 PUSH1 0x4 DUP1 CALLDATASIZE SUB DUP2 ADD SWAP1 PUSH2 0x2B1 SWAP2 SWAP1 PUSH2 0x3D61 JUMP JUMPDEST PUSH2 0x8D4 JUMP JUMPDEST PUSH1 0x40 MLOAD PUSH2 0x2C3 SWAP2 SWAP1 PUSH2 0x3D1A JUMP JUMPDEST PUSH1 0x40 MLOAD DUP1 SWAP2 SUB SWAP1 RETURN JUMPDEST PUSH2 0x2E6 PUSH1 0x4 DUP1 CALLDATASIZE SUB DUP2 ADD SWAP1 PUSH2 0x2E1 SWAP2 SWAP1 PUSH2 0x3DD8 JUMP JUMPDEST PUSH2 0x8FF JUMP JUMPDEST STOP JUMPDEST PUSH2 0x302 PUSH1 0x4 DUP1 CALLDATASIZE SUB DUP2 ADD SWAP1 PUSH2 0x2FD SWAP2 SWAP1 PUSH2 0x3E03 JUMP JUMPDEST PUSH2 0xD54 JUMP JUMPDEST PUSH1 0x40 MLOAD PUSH2 0x30F SWAP2 SWAP1 PUSH2 0x3D1A JUMP JUMPDEST PUSH1 0x40 MLOAD DUP1 SWAP2 SUB SWAP1 RETURN JUMPDEST PUSH2 0x332 PUSH1 0x4 DUP1 CALLDATASIZE SUB DUP2 ADD SWAP1 PUSH2 0x32D SWAP2 SWAP1 PUSH2 0x3E03 JUMP JUMPDEST PUSH2 0xD69 JUMP JUMPDEST PUSH1 0x40 MLOAD PUSH2 0x33F SWAP2 SWAP1 PUSH2 0x3D1A JUMP JUMPDEST PUSH1 0x40 MLOAD DUP1 SWAP2 SUB SWAP1 RETURN JUMPDEST PUSH2 0x362 PUSH1 0x4 DUP1 CALLDATASIZE SUB DUP2 ADD SWAP1 PUSH2 0x35D SWAP2 SWAP1 PUSH2 0x3E03 JUMP JUMPDEST PUSH2 0xD82 JUMP JUMPDEST PUSH1 0x40 MLOAD PUSH2 0x370 SWAP3 SWAP2 SWAP1 PUSH2 0x3E2E JUMP JUMPDEST PUSH1 0x40 MLOAD DUP1 SWAP2 SUB SWAP1 RETURN JUMPDEST PUSH2 0x381 PUSH2 0xE18 JUMP JUMPDEST PUSH1 0x40 MLOAD PUSH2 0x38E SWAP2 SWAP1 PUSH2 0x3D1A JUMP JUMPDEST PUSH1 0x40 MLOAD DUP1 SWAP2 SUB SWAP1 RETURN JUMPDEST PUSH2 0x39F PUSH2 0xE1E JUMP JUMPDEST PUSH1 0x40 MLOAD PUSH2 0x3AC SWAP2 SWAP1 PUSH2 0x3ECF JUMP JUMPDEST PUSH1 0x40 MLOAD DUP1 SWAP2 SUB SWAP1 RETURN JUMPDEST PUSH2 0x3BD PUSH2 0xE42 JUMP JUMPDEST PUSH1 0x40 MLOAD PUSH2 0x3CA SWAP2 SWAP1 PUSH2 0x3D1A JUMP JUMPDEST PUSH1 0x40 MLOAD DUP1 SWAP2 SUB SWAP1 RETURN JUMPDEST PUSH2 0x3DB PUSH2 0xE49 JUMP JUMPDEST PUSH1 0x40 MLOAD PUSH2 0x3E8 SWAP2 SWAP1 PUSH2 0x3D1A JUMP JUMPDEST PUSH1 0x40 MLOAD DUP1 SWAP2 SUB SWAP1 RETURN JUMPDEST PUSH2 0x40B PUSH1 0x4 DUP1 CALLDATASIZE SUB DUP2 ADD SWAP1 PUSH2 0x406 SWAP2 SWAP1 PUSH2 0x3E03 JUMP JUMPDEST PUSH2 0xE55 JUMP JUMPDEST PUSH1 0x40 MLOAD PUSH2 0x423 SWAP13 SWAP12 SWAP11 SWAP10 SWAP9 SWAP8 SWAP7 SWAP6 SWAP5 SWAP4 SWAP3 SWAP2 SWAP1 PUSH2 0x3F08 JUMP JUMPDEST PUSH1 0x40 MLOAD DUP1 SWAP2 SUB SWAP1 RETURN JUMPDEST PUSH2 0x434 PUSH2 0xED0 JUMP JUMPDEST PUSH1 0x40 MLOAD PUSH2 0x441 SWAP2 SWAP1 PUSH2 0x3D1A JUMP JUMPDEST PUSH1 0x40 MLOAD DUP1 SWAP2 SUB SWAP1 RETURN JUMPDEST PUSH2 0x464 PUSH1 0x4 DUP1 CALLDATASIZE SUB DUP2 ADD SWAP1 PUSH2 0x45F SWAP2 SWAP1 PUSH2 0x3E03 JUMP JUMPDEST PUSH2 0xED5 JUMP JUMPDEST PUSH1 0x40 MLOAD PUSH2 0x471 SWAP2 SWAP1 PUSH2 0x3D1A JUMP JUMPDEST PUSH1 0x40 MLOAD DUP1 SWAP2 SUB SWAP1 RETURN JUMPDEST PUSH2 0x494 PUSH1 0x4 DUP1 CALLDATASIZE SUB DUP2 ADD SWAP1 PUSH2 0x48F SWAP2 SWAP1 PUSH2 0x3E03 JUMP JUMPDEST PUSH2 0xEF5 JUMP JUMPDEST STOP JUMPDEST PUSH2 0x4B0 PUSH1 0x4 DUP1 CALLDATASIZE SUB DUP2 ADD SWAP1 PUSH2 0x4AB SWAP2 SWAP1 PUSH2 0x3E03 JUMP JUMPDEST PUSH2 0x12C1 JUMP JUMPDEST PUSH1 0x40 MLOAD PUSH2 0x4C5 SWAP10 SWAP9 SWAP8 SWAP7 SWAP6 SWAP5 SWAP4 SWAP3 SWAP2 SWAP1 PUSH2 0x3FC0 JUMP JUMPDEST PUSH1 0x40 MLOAD DUP1 SWAP2 SUB SWAP1 RETURN JUMPDEST PUSH2 0x4D6 PUSH2 0x130B JUMP JUMPDEST PUSH1 0x40 MLOAD PUSH2 0x4E3 SWAP2 SWAP1 PUSH2 0x3D1A JUMP JUMPDEST PUSH1 0x40 MLOAD DUP1 SWAP2 SUB SWAP1 RETURN JUMPDEST PUSH2 0x4F4 PUSH2 0x1311 JUMP JUMPDEST PUSH1 0x40 MLOAD PUSH2 0x501 SWAP2 SWAP1 PUSH2 0x3D1A JUMP JUMPDEST PUSH1 0x40 MLOAD DUP1 SWAP2 SUB SWAP1 RETURN JUMPDEST PUSH2 0x524 PUSH1 0x4 DUP1 CALLDATASIZE SUB DUP2 ADD SWAP1 PUSH2 0x51F SWAP2 SWAP1 PUSH2 0x404B JUMP JUMPDEST PUSH2 0x1316 JUMP JUMPDEST PUSH1 0x40 MLOAD PUSH2 0x531 SWAP2 SWAP1 PUSH2 0x3D1A JUMP JUMPDEST PUSH1 0x40 MLOAD DUP1 SWAP2 SUB SWAP1 RETURN JUMPDEST PUSH2 0x554 PUSH1 0x4 DUP1 CALLDATASIZE SUB DUP2 ADD SWAP1 PUSH2 0x54F SWAP2 SWAP1 PUSH2 0x3D61 JUMP JUMPDEST PUSH2 0x134C JUMP JUMPDEST PUSH1 0x40 MLOAD PUSH2 0x561 SWAP2 SWAP1 PUSH2 0x3D1A JUMP JUMPDEST PUSH1 0x40 MLOAD DUP1 SWAP2 SUB SWAP1 RETURN JUMPDEST PUSH2 0x584 PUSH1 0x4 DUP1 CALLDATASIZE SUB DUP2 ADD SWAP1 PUSH2 0x57F SWAP2 SWAP1 PUSH2 0x3E03 JUMP JUMPDEST PUSH2 0x1377 JUMP JUMPDEST PUSH1 0x40 MLOAD PUSH2 0x592 SWAP3 SWAP2 SWAP1 PUSH2 0x4125 JUMP JUMPDEST PUSH1 0x40 MLOAD DUP1 SWAP2 SUB SWAP1 RETURN JUMPDEST PUSH2 0x5B5 PUSH1 0x4 DUP1 CALLDATASIZE SUB DUP2 ADD SWAP1 PUSH2 0x5B0 SWAP2 SWAP1 PUSH2 0x3D61 JUMP JUMPDEST PUSH2 0x14B1 JUMP JUMPDEST PUSH1 0x40 MLOAD PUSH2 0x5C6 SWAP6 SWAP5 SWAP4 SWAP3 SWAP2 SWAP1 PUSH2 0x4153 JUMP JUMPDEST PUSH1 0x40 MLOAD DUP1 SWAP2 SUB SWAP1 RETURN JUMPDEST PUSH2 0x5D7 PUSH2 0x14FD JUMP JUMPDEST PUSH1 0x40 MLOAD PUSH2 0x5E4 SWAP2 SWAP1 PUSH2 0x3D1A JUMP JUMPDEST PUSH1 0x40 MLOAD DUP1 SWAP2 SUB SWAP1 RETURN JUMPDEST PUSH2 0x5F5 PUSH2 0x1503 JUMP JUMPDEST PUSH1 0x40 MLOAD PUSH2 0x602 SWAP2 SWAP1 PUSH2 0x41A4 JUMP JUMPDEST PUSH1 0x40 MLOAD DUP1 SWAP2 SUB SWAP1 RETURN JUMPDEST PUSH2 0x613 PUSH2 0x1528 JUMP JUMPDEST PUSH1 0x40 MLOAD PUSH2 0x620 SWAP2 SWAP1 PUSH2 0x41A4 JUMP JUMPDEST PUSH1 0x40 MLOAD DUP1 SWAP2 SUB SWAP1 RETURN JUMPDEST PUSH2 0x643 PUSH1 0x4 DUP1 CALLDATASIZE SUB DUP2 ADD SWAP1 PUSH2 0x63E SWAP2 SWAP1 PUSH2 0x3E03 JUMP JUMPDEST PUSH2 0x154D JUMP JUMPDEST PUSH1 0x40 MLOAD PUSH2 0x650 SWAP2 SWAP1 PUSH2 0x3D1A JUMP JUMPDEST PUSH1 0x40 MLOAD DUP1 SWAP2 SUB SWAP1 RETURN JUMPDEST PUSH2 0x673 PUSH1 0x4 DUP1 CALLDATASIZE SUB DUP2 ADD SWAP1 PUSH2 0x66E SWAP2 SWAP1 PUSH2 0x404B JUMP JUMPDEST PUSH2 0x1562 JUMP JUMPDEST PUSH1 0x40 MLOAD PUSH2 0x680 SWAP2 SWAP1 PUSH2 0x3D1A JUMP JUMPDEST PUSH1 0x40 MLOAD DUP1 SWAP2 SUB SWAP1 RETURN JUMPDEST PUSH2 0x691 PUSH2 0x1598 JUMP JUMPDEST PUSH1 0x40 MLOAD PUSH2 0x69E SWAP2 SWAP1 PUSH2 0x41A4 JUMP JUMPDEST PUSH1 0x40 MLOAD DUP1 SWAP2 SUB SWAP1 RETURN JUMPDEST PUSH2 0x6C1 PUSH1 0x4 DUP1 CALLDATASIZE SUB DUP2 ADD SWAP1 PUSH2 0x6BC SWAP2 SWAP1 PUSH2 0x404B JUMP JUMPDEST PUSH2 0x15BD JUMP JUMPDEST PUSH1 0x40 MLOAD PUSH2 0x6CE SWAP2 SWAP1 PUSH2 0x3D1A JUMP JUMPDEST PUSH1 0x40 MLOAD DUP1 SWAP2 SUB SWAP1 RETURN JUMPDEST PUSH2 0x6F1 PUSH1 0x4 DUP1 CALLDATASIZE SUB DUP2 ADD SWAP1 PUSH2 0x6EC SWAP2 SWAP1 PUSH2 0x3E03 JUMP JUMPDEST PUSH2 0x15F3 JUMP JUMPDEST PUSH1 0x40 MLOAD PUSH2 0x6FE SWAP2 SWAP1 PUSH2 0x3D1A JUMP JUMPDEST PUSH1 0x40 MLOAD DUP1 SWAP2 SUB SWAP1 RETURN JUMPDEST PUSH2 0x721 PUSH1 0x4 DUP1 CALLDATASIZE SUB DUP2 ADD SWAP1 PUSH2 0x71C SWAP2 SWAP1 PUSH2 0x3D61 JUMP JUMPDEST PUSH2 0x1613 JUMP JUMPDEST PUSH1 0x40 MLOAD PUSH2 0x72E SWAP2 SWAP1 PUSH2 0x41BD JUMP JUMPDEST PUSH1 0x40 MLOAD DUP1 SWAP2 SUB SWAP1 RETURN JUMPDEST PUSH2 0x751 PUSH1 0x4 DUP1 CALLDATASIZE SUB DUP2 ADD SWAP1 PUSH2 0x74C SWAP2 SWAP1 PUSH2 0x3D61 JUMP JUMPDEST PUSH2 0x163D JUMP JUMPDEST PUSH1 0x40 MLOAD PUSH2 0x75F SWAP3 SWAP2 SWAP1 PUSH2 0x3E2E JUMP JUMPDEST PUSH1 0x40 MLOAD DUP1 SWAP2 SUB SWAP1 RETURN JUMPDEST PUSH2 0x770 PUSH2 0x1668 JUMP JUMPDEST PUSH1 0x40 MLOAD PUSH2 0x77D SWAP2 SWAP1 PUSH2 0x3D1A JUMP JUMPDEST PUSH1 0x40 MLOAD DUP1 SWAP2 SUB SWAP1 RETURN JUMPDEST PUSH2 0x7A0 PUSH1 0x4 DUP1 CALLDATASIZE SUB DUP2 ADD SWAP1 PUSH2 0x79B SWAP2 SWAP1 PUSH2 0x3E03 JUMP JUMPDEST PUSH2 0x166E JUMP JUMPDEST PUSH1 0x40 MLOAD PUSH2 0x7AD SWAP2 SWAP1 PUSH2 0x3D1A JUMP JUMPDEST PUSH1 0x40 MLOAD DUP1 SWAP2 SUB SWAP1 RETURN JUMPDEST PUSH2 0x7D0 PUSH1 0x4 DUP1 CALLDATASIZE SUB DUP2 ADD SWAP1 PUSH2 0x7CB SWAP2 SWAP1 PUSH2 0x4200 JUMP JUMPDEST PUSH2 0x168E JUMP JUMPDEST PUSH1 0x40 MLOAD PUSH2 0x7DD SWAP2 SWAP1 PUSH2 0x3D1A JUMP JUMPDEST PUSH1 0x40 MLOAD DUP1 SWAP2 SUB SWAP1 RETURN JUMPDEST PUSH2 0x800 PUSH1 0x4 DUP1 CALLDATASIZE SUB DUP2 ADD SWAP1 PUSH2 0x7FB SWAP2 SWAP1 PUSH2 0x3D61 JUMP JUMPDEST PUSH2 0x16A3 JUMP JUMPDEST PUSH1 0x40 MLOAD PUSH2 0x811 SWAP6 SWAP5 SWAP4 SWAP3 SWAP2 SWAP1 PUSH2 0x4153 JUMP JUMPDEST PUSH1 0x40 MLOAD DUP1 SWAP2 SUB SWAP1 RETURN JUMPDEST PUSH2 0x834 PUSH1 0x4 DUP1 CALLDATASIZE SUB DUP2 ADD SWAP1 PUSH2 0x82F SWAP2 SWAP1 PUSH2 0x422B JUMP JUMPDEST PUSH2 0x16E0 JUMP JUMPDEST STOP JUMPDEST PUSH2 0x850 PUSH1 0x4 DUP1 CALLDATASIZE SUB DUP2 ADD SWAP1 PUSH2 0x84B SWAP2 SWAP1 PUSH2 0x3E03 JUMP JUMPDEST PUSH2 0x1D56 JUMP JUMPDEST STOP JUMPDEST PUSH2 0x85A PUSH2 0x20DA JUMP JUMPDEST PUSH1 0x40 MLOAD PUSH2 0x867 SWAP2 SWAP1 PUSH2 0x41A4 JUMP JUMPDEST PUSH1 0x40 MLOAD DUP1 SWAP2 SUB SWAP1 RETURN JUMPDEST PUSH2 0x878 PUSH2 0x20FF JUMP JUMPDEST PUSH1 0x40 MLOAD PUSH2 0x885 SWAP2 SWAP1 PUSH2 0x3D1A JUMP JUMPDEST PUSH1 0x40 MLOAD DUP1 SWAP2 SUB SWAP1 RETURN JUMPDEST PUSH2 0x8A8 PUSH1 0x4 DUP1 CALLDATASIZE SUB DUP2 ADD SWAP1 PUSH2 0x8A3 SWAP2 SWAP1 PUSH2 0x3E03 JUMP JUMPDEST PUSH2 0x2105 JUMP JUMPDEST STOP JUMPDEST PUSH2 0x8B2 PUSH2 0x2673 JUMP JUMPDEST PUSH1 0x40 MLOAD PUSH2 0x8BF SWAP2 SWAP1 PUSH2 0x41A4 JUMP JUMPDEST PUSH1 0x40 MLOAD DUP1 SWAP2 SUB SWAP1 RETURN JUMPDEST PUSH1 0x21 SLOAD DUP2 JUMP JUMPDEST PUSH2 0x2710 DUP2 JUMP JUMPDEST PUSH1 0x14 PUSH1 0x20 MSTORE DUP2 PUSH0 MSTORE PUSH1 0x40 PUSH0 KECCAK256 DUP2 DUP2 SLOAD DUP2 LT PUSH2 0x8ED JUMPI PUSH0 DUP1 REVERT JUMPDEST SWAP1 PUSH0 MSTORE PUSH1 0x20 PUSH0 KECCAK256 ADD PUSH0 SWAP2 POP SWAP2 POP POP SLOAD DUP2 JUMP JUMPDEST PUSH0 PUSH1 0x17 PUSH0 DUP4 PUSH4 0xFFFFFFFF AND DUP2 MSTORE PUSH1 0x20 ADD SWAP1 DUP2 MSTORE PUSH1 0x20 ADD PUSH0 KECCAK256 SWAP1 POP CALLER PUSH20 0xFFFFFFFFFFFFFFFFFFFFFFFFFFFFFFFFFFFFFFFF AND DUP2 PUSH0 ADD PUSH0 SWAP1 SLOAD SWAP1 PUSH2 0x100 EXP SWAP1 DIV PUSH20 0xFFFFFFFFFFFFFFFFFFFFFFFFFFFFFFFFFFFFFFFF AND PUSH20 0xFFFFFFFFFFFFFFFFFFFFFFFFFFFFFFFFFFFFFFFF AND EQ PUSH2 0x9A9 JUMPI PUSH1 0x40 MLOAD PUSH32 0x8C379A000000000000000000000000000000000000000000000000000000000 DUP2 MSTORE PUSH1 0x4 ADD PUSH2 0x9A0 SWAP1 PUSH2 0x42C5 JUMP JUMPDEST PUSH1 0x40 MLOAD DUP1 SWAP2 SUB SWAP1 REVERT JUMPDEST PUSH1 0x7 DUP2 PUSH1 0xA ADD SLOAD LT PUSH2 0x9F0 JUMPI PUSH1 0x40 MLOAD PUSH32 0x8C379A000000000000000000000000000000000000000000000000000000000 DUP2 MSTORE PUSH1 0x4 ADD PUSH2 0x9E7 SWAP1 PUSH2 0x432D JUMP JUMPDEST PUSH1 0x40 MLOAD DUP1 SWAP2 SUB SWAP1 REVERT JUMPDEST PUSH0 DUP2 PUSH1 0xA ADD SLOAD SWAP1 POP PUSH0 DUP3 PUSH1 0xA ADD SLOAD SWAP1 POP PUSH0 PUSH1 0x9 DUP3 PUSH1 0x7 DUP2 LT PUSH2 0xA15 JUMPI PUSH2 0xA14 PUSH2 0x434B JUMP JUMPDEST JUMPDEST ADD SLOAD SWAP1 POP DUP1 DUP5 PUSH1 0x6 ADD SLOAD LT ISZERO PUSH2 0xA60 JUMPI PUSH1 0x40 MLOAD PUSH32 0x8C379A000000000000000000000000000000000000000000000000000000000 DUP2 MSTORE PUSH1 0x4 ADD PUSH2 0xA57 SWAP1 PUSH2 0x43C2 JUMP JUMPDEST PUSH1 0x40 MLOAD DUP1 SWAP2 SUB SWAP1 REVERT JUMPDEST PUSH0 DUP3 GT ISZERO PUSH2 0xAAF JUMPI DUP2 DUP5 PUSH1 0xA ADD SLOAD EQ PUSH2 0xAAE JUMPI PUSH1 0x40 MLOAD PUSH32 0x8C379A000000000000000000000000000000000000000000000000000000000 DUP2 MSTORE PUSH1 0x4 ADD PUSH2 0xAA5 SWAP1 PUSH2 0x442A JUMP JUMPDEST PUSH1 0x40 MLOAD DUP1 SWAP2 SUB SWAP1 REVERT JUMPDEST JUMPDEST PUSH1 0x15 PUSH0 DUP7 PUSH4 0xFFFFFFFF AND DUP2 MSTORE PUSH1 0x20 ADD SWAP1 DUP2 MSTORE PUSH1 0x20 ADD PUSH0 KECCAK256 PUSH0 DUP4 DUP2 MSTORE PUSH1 0x20 ADD SWAP1 DUP2 MSTORE PUSH1 0x20 ADD PUSH0 KECCAK256 PUSH0 SWAP1 SLOAD SWAP1 PUSH2 0x100 EXP SWAP1 DIV PUSH1 0xFF AND ISZERO PUSH2 0xB22 JUMPI PUSH1 0x40 MLOAD PUSH32 0x8C379A000000000000000000000000000000000000000000000000000000000 DUP2 MSTORE PUSH1 0x4 ADD PUSH2 0xB19 SWAP1 PUSH2 0x4492 JUMP JUMPDEST PUSH1 0x40 MLOAD DUP1 SWAP2 SUB SWAP1 REVERT JUMPDEST PUSH0 PUSH1 0x8 DUP5 DUP2 SLOAD DUP2 LT PUSH2 0xB37 JUMPI PUSH2 0xB36 PUSH2 0x434B JUMP JUMPDEST JUMPDEST SWAP1 PUSH0 MSTORE PUSH1 0x20 PUSH0 KECCAK256 ADD SLOAD SWAP1 POP PUSH0 PUSH0 SWAP1 SLOAD SWAP1 PUSH2 0x100 EXP SWAP1 DIV PUSH20 0xFFFFFFFFFFFFFFFFFFFFFFFFFFFFFFFFFFFFFFFF AND PUSH20 0xFFFFFFFFFFFFFFFFFFFFFFFFFFFFFFFFFFFFFFFF AND PUSH4 0x23B872DD CALLER ADDRESS DUP5 PUSH1 0x40 MLOAD DUP5 PUSH4 0xFFFFFFFF AND PUSH1 0xE0 SHL DUP2 MSTORE PUSH1 0x4 ADD PUSH2 0xB9F SWAP4 SWAP3 SWAP2 SWAP1 PUSH2 0x44B0 JUMP JUMPDEST PUSH1 0x20 PUSH1 0x40 MLOAD DUP1 DUP4 SUB DUP2 PUSH0 DUP8 GAS CALL ISZERO DUP1 ISZERO PUSH2 0xBBB JUMPI RETURNDATASIZE PUSH0 PUSH0 RETURNDATACOPY RETURNDATASIZE PUSH0 REVERT JUMPDEST POP POP POP POP PUSH1 0x40 MLOAD RETURNDATASIZE PUSH1 0x1F NOT PUSH1 0x1F DUP3 ADD AND DUP3 ADD DUP1 PUSH1 0x40 MSTORE POP DUP2 ADD SWAP1 PUSH2 0xBDF SWAP2 SWAP1 PUSH2 0x450F JUMP JUMPDEST POP PUSH1 0x1 DUP6 PUSH1 0xA ADD PUSH0 DUP3 DUP3 SLOAD PUSH2 0xBF4 SWAP2 SWAP1 PUSH2 0x4567 JUMP JUMPDEST SWAP3 POP POP DUP2 SWAP1 SSTORE POP PUSH1 0x1 PUSH1 0x15 PUSH0 DUP9 PUSH4 0xFFFFFFFF AND DUP2 MSTORE PUSH1 0x20 ADD SWAP1 DUP2 MSTORE PUSH1 0x20 ADD PUSH0 KECCAK256 PUSH0 DUP6 DUP2 MSTORE PUSH1 0x20 ADD SWAP1 DUP2 MSTORE PUSH1 0x20 ADD PUSH0 KECCAK256 PUSH0 PUSH2 0x100 EXP DUP2 SLOAD DUP2 PUSH1 0xFF MUL NOT AND SWAP1 DUP4 ISZERO ISZERO MUL OR SWAP1 SSTORE POP DUP1 DUP6 PUSH1 0xB ADD PUSH0 DUP3 DUP3 SLOAD PUSH2 0xC4C SWAP2 SWAP1 PUSH2 0x4567 JUMP JUMPDEST SWAP3 POP POP DUP2 SWAP1 SSTORE POP PUSH2 0xC5E DUP5 DUP8 DUP4 PUSH2 0x2698 JUMP JUMPDEST DUP5 PUSH1 0x1 ADD PUSH1 0x40 MLOAD DUP1 PUSH1 0x80 ADD PUSH1 0x40 MSTORE DUP1 DUP4 DUP2 MSTORE PUSH1 0x20 ADD PUSH0 DUP2 MSTORE PUSH1 0x20 ADD TIMESTAMP DUP2 MSTORE PUSH1 0x20 ADD PUSH1 0xA PUSH1 0xFF AND DUP2 MSTORE POP SWAP1 DUP1 PUSH1 0x1 DUP2 SLOAD ADD DUP1 DUP3 SSTORE DUP1 SWAP2 POP POP PUSH1 0x1 SWAP1 SUB SWAP1 PUSH0 MSTORE PUSH1 0x20 PUSH0 KECCAK256 SWAP1 PUSH1 0x4 MUL ADD PUSH0 SWAP1 SWAP2 SWAP1 SWAP2 SWAP1 SWAP2 POP PUSH0 DUP3 ADD MLOAD DUP2 PUSH0 ADD SSTORE PUSH1 0x20 DUP3 ADD MLOAD DUP2 PUSH1 0x1 ADD SSTORE PUSH1 0x40 DUP3 ADD MLOAD DUP2 PUSH1 0x2 ADD SSTORE PUSH1 0x60 DUP3 ADD MLOAD DUP2 PUSH1 0x3 ADD PUSH0 PUSH2 0x100 EXP DUP2 SLOAD DUP2 PUSH1 0xFF MUL NOT AND SWAP1 DUP4 PUSH1 0xFF AND MUL OR SWAP1 SSTORE POP POP POP DUP6 PUSH4 0xFFFFFFFF AND CALLER PUSH20 0xFFFFFFFFFFFFFFFFFFFFFFFFFFFFFFFFFFFFFFFF AND PUSH32 0xBABB6A363FD9A057996D09882C0B74B710D121707D19EEFFD91C51C3171A7C91 PUSH1 0x1 DUP8 PUSH2 0xD37 SWAP2 SWAP1 PUSH2 0x4567 JUMP JUMPDEST PUSH1 0x40 MLOAD PUSH2 0xD44 SWAP2 SWAP1 PUSH2 0x45E4 JUMP JUMPDEST PUSH1 0x40 MLOAD DUP1 SWAP2 SUB SWAP1 LOG3 POP POP POP POP POP POP JUMP JUMPDEST PUSH1 0x1E PUSH1 0x20 MSTORE DUP1 PUSH0 MSTORE PUSH1 0x40 PUSH0 KECCAK256 PUSH0 SWAP2 POP SWAP1 POP SLOAD DUP2 JUMP JUMPDEST PUSH1 0x9 DUP2 PUSH1 0x7 DUP2 LT PUSH2 0xD78 JUMPI PUSH0 DUP1 REVERT JUMPDEST ADD PUSH0 SWAP2 POP SWAP1 POP SLOAD DUP2 JUMP JUMPDEST PUSH0 PUSH0 PUSH0 PUSH1 0x17 PUSH0 DUP6 DUP2 MSTORE PUSH1 0x20 ADD SWAP1 DUP2 MSTORE PUSH1 0x20 ADD PUSH0 KECCAK256 PUSH1 0x3 ADD SLOAD SUB PUSH2 0xDAA JUMPI PUSH0 PUSH0 SWAP2 POP SWAP2 POP PUSH2 0xE13 JUMP JUMPDEST PUSH0 PUSH1 0x1D SLOAD SWAP1 POP PUSH0 PUSH1 0x1E PUSH0 DUP7 DUP2 MSTORE PUSH1 0x20 ADD SWAP1 DUP2 MSTORE PUSH1 0x20 ADD PUSH0 KECCAK256 SLOAD SWAP1 POP DUP1 DUP3 GT PUSH2 0xDD9 JUMPI PUSH0 PUSH0 SWAP4 POP SWAP4 POP POP POP PUSH2 0xE13 JUMP JUMPDEST PUSH0 PUSH8 0xDE0B6B3A7640000 DUP3 DUP5 PUSH2 0xDEF SWAP2 SWAP1 PUSH2 0x4610 JUMP JUMPDEST PUSH2 0xDF9 SWAP2 SWAP1 PUSH2 0x4670 JUMP JUMPDEST SWAP1 POP PUSH0 PUSH2 0xE06 DUP8 DUP4 PUSH2 0x2982 JUMP JUMPDEST SWAP1 POP DUP2 DUP2 SWAP6 POP SWAP6 POP POP POP POP POP JUMPDEST SWAP2 POP SWAP2 JUMP JUMPDEST PUSH1 0x1F SLOAD DUP2 JUMP JUMPDEST PUSH0 PUSH0 SWAP1 SLOAD SWAP1 PUSH2 0x100 EXP SWAP1 DIV PUSH20 0xFFFFFFFFFFFFFFFFFFFFFFFFFFFFFFFFFFFFFFFF AND DUP2 JUMP JUMPDEST PUSH3 0x15180 DUP2 JUMP JUMPDEST PUSH8 0xDE0B6B3A7640000 DUP2 JUMP JUMPDEST PUSH1 0x17 PUSH1 0x20 MSTORE DUP1 PUSH0 MSTORE PUSH1 0x40 PUSH0 KECCAK256 PUSH0 SWAP2 POP SWAP1 POP DUP1 PUSH0 ADD PUSH0 SWAP1 SLOAD SWAP1 PUSH2 0x100 EXP SWAP1 DIV PUSH20 0xFFFFFFFFFFFFFFFFFFFFFFFFFFFFFFFFFFFFFFFF AND SWAP1 DUP1 PUSH1 0x2 ADD SLOAD SWAP1 DUP1 PUSH1 0x3 ADD SLOAD SWAP1 DUP1 PUSH1 0x4 ADD SLOAD SWAP1 DUP1 PUSH1 0x5 ADD SLOAD SWAP1 DUP1 PUSH1 0x6 ADD SLOAD SWAP1 DUP1 PUSH1 0x7 ADD SLOAD SWAP1 DUP1 PUSH1 0x8 ADD SLOAD SWAP1 DUP1 PUSH1 0x9 ADD SLOAD SWAP1 DUP1 PUSH1 0xA ADD SLOAD SWAP1 DUP1 PUSH1 0xB ADD SLOAD SWAP1 DUP1 PUSH1 0xC ADD SLOAD SWAP1 POP DUP13 JUMP JUMPDEST PUSH1 0x19 DUP2 JUMP JUMPDEST PUSH1 0x23 DUP2 DUP2 SLOAD DUP2 LT PUSH2 0xEE4 JUMPI PUSH0 DUP1 REVERT JUMPDEST SWAP1 PUSH0 MSTORE PUSH1 0x20 PUSH0 KECCAK256 ADD PUSH0 SWAP2 POP SWAP1 POP SLOAD DUP2 JUMP JUMPDEST PUSH0 PUSH1 0x17 PUSH0 DUP4 DUP2 MSTORE PUSH1 0x20 ADD SWAP1 DUP2 MSTORE PUSH1 0x20 ADD PUSH0 KECCAK256 SWAP1 POP CALLER PUSH20 0xFFFFFFFFFFFFFFFFFFFFFFFFFFFFFFFFFFFFFFFF AND DUP2 PUSH0 ADD PUSH0 SWAP1 SLOAD SWAP1 PUSH2 0x100 EXP SWAP1 DIV PUSH20 0xFFFFFFFFFFFFFFFFFFFFFFFFFFFFFFFFFFFFFFFF AND PUSH20 0xFFFFFFFFFFFFFFFFFFFFFFFFFFFFFFFFFFFFFFFF AND EQ PUSH2 0xF99 JUMPI PUSH1 0x40 MLOAD PUSH32 0x8C379A000000000000000000000000000000000000000000000000000000000 DUP2 MSTORE PUSH1 0x4 ADD PUSH2 0xF90 SWAP1 PUSH2 0x42C5 JUMP JUMPDEST PUSH1 0x40 MLOAD DUP1 SWAP2 SUB SWAP1 REVERT JUMPDEST PUSH1 0xF DUP2 PUSH1 0x6 ADD SLOAD LT PUSH2 0xFE0 JUMPI PUSH1 0x40 MLOAD PUSH32 0x8C379A000000000000000000000000000000000000000000000000000000000 DUP2 MSTORE PUSH1 0x4 ADD PUSH2 0xFD7 SWAP1 PUSH2 0x46EA JUMP JUMPDEST PUSH1 0x40 MLOAD DUP1 SWAP2 SUB SWAP1 REVERT JUMPDEST PUSH0 DUP2 PUSH1 0x6 ADD SLOAD SWAP1 POP PUSH0 PUSH1 0x7 DUP3 DUP2 SLOAD DUP2 LT PUSH2 0xFFD JUMPI PUSH2 0xFFC PUSH2 0x434B JUMP JUMPDEST JUMPDEST SWAP1 PUSH0 MSTORE PUSH1 0x20 PUSH0 KECCAK256 ADD SLOAD SWAP1 POP PUSH0 PUSH0 SWAP1 SLOAD SWAP1 PUSH2 0x100 EXP SWAP1 DIV PUSH20 0xFFFFFFFFFFFFFFFFFFFFFFFFFFFFFFFFFFFFFFFF AND PUSH20 0xFFFFFFFFFFFFFFFFFFFFFFFFFFFFFFFFFFFFFFFF AND PUSH4 0x23B872DD CALLER ADDRESS DUP5 PUSH1 0x40 MLOAD DUP5 PUSH4 0xFFFFFFFF AND PUSH1 0xE0 SHL DUP2 MSTORE PUSH1 0x4 ADD PUSH2 0x1065 SWAP4 SWAP3 SWAP2 SWAP1 PUSH2 0x44B0 JUMP JUMPDEST PUSH1 0x20 PUSH1 0x40 MLOAD DUP1 DUP4 SUB DUP2 PUSH0 DUP8 GAS CALL ISZERO DUP1 ISZERO PUSH2 0x1081 JUMPI RETURNDATASIZE PUSH0 PUSH0 RETURNDATACOPY RETURNDATASIZE PUSH0 REVERT JUMPDEST POP POP POP POP PUSH1 0x40 MLOAD RETURNDATASIZE PUSH1 0x1F NOT PUSH1 0x1F DUP3 ADD AND DUP3 ADD DUP1 PUSH1 0x40 MSTORE POP DUP2 ADD SWAP1 PUSH2 0x10A5 SWAP2 SWAP1 PUSH2 0x450F JUMP JUMPDEST POP PUSH1 0x1 DUP4 PUSH1 0x6 ADD PUSH0 DUP3 DUP3 SLOAD PUSH2 0x10BA SWAP2 SWAP1 PUSH2 0x4567 JUMP JUMPDEST SWAP3 POP POP DUP2 SWAP1 SSTORE POP DUP1 DUP4 PUSH1 0x9 ADD PUSH0 DUP3 DUP3 SLOAD PUSH2 0x10D4 SWAP2 SWAP1 PUSH2 0x4567 JUMP JUMPDEST SWAP3 POP POP DUP2 SWAP1 SSTORE POP DUP3 PUSH1 0x1 ADD PUSH1 0x40 MLOAD DUP1 PUSH1 0x80 ADD PUSH1 0x40 MSTORE DUP1 DUP4 DUP2 MSTORE PUSH1 0x20 ADD PUSH0 DUP2 MSTORE PUSH1 0x20 ADD TIMESTAMP DUP2 MSTORE PUSH1 0x20 ADD PUSH1 0x1 PUSH1 0xFF AND DUP2 MSTORE POP SWAP1 DUP1 PUSH1 0x1 DUP2 SLOAD ADD DUP1 DUP3 SSTORE DUP1 SWAP2 POP POP PUSH1 0x1 SWAP1 SUB SWAP1 PUSH0 MSTORE PUSH1 0x20 PUSH0 KECCAK256 SWAP1 PUSH1 0x4 MUL ADD PUSH0 SWAP1 SWAP2 SWAP1 SWAP2 SWAP1 SWAP2 POP PUSH0 DUP3 ADD MLOAD DUP2 PUSH0 ADD SSTORE PUSH1 0x20 DUP3 ADD MLOAD DUP2 PUSH1 0x1 ADD SSTORE PUSH1 0x40 DUP3 ADD MLOAD DUP2 PUSH1 0x2 ADD SSTORE PUSH1 0x60 DUP3 ADD MLOAD DUP2 PUSH1 0x3 ADD PUSH0 PUSH2 0x100 EXP DUP2 SLOAD DUP2 PUSH1 0xFF MUL NOT AND SWAP1 DUP4 PUSH1 0xFF AND MUL OR SWAP1 SSTORE POP POP POP PUSH0 PUSH1 0x64 PUSH1 0x5 DUP4 PUSH2 0x1178 SWAP2 SWAP1 PUSH2 0x4708 JUMP JUMPDEST PUSH2 0x1182 SWAP2 SWAP1 PUSH2 0x4670 JUMP JUMPDEST SWAP1 POP PUSH0 PUSH1 0x64 PUSH1 0x23 DUP5 PUSH2 0x1194 SWAP2 SWAP1 PUSH2 0x4708 JUMP JUMPDEST PUSH2 0x119E SWAP2 SWAP1 PUSH2 0x4670 JUMP JUMPDEST SWAP1 POP PUSH2 0x11A9 DUP2 PUSH2 0x2A28 JUMP JUMPDEST PUSH2 0x11B2 DUP3 PUSH2 0x2A96 JUMP JUMPDEST PUSH0 PUSH1 0x64 PUSH1 0xF DUP6 PUSH2 0x11C2 SWAP2 SWAP1 PUSH2 0x4708 JUMP JUMPDEST PUSH2 0x11CC SWAP2 SWAP1 PUSH2 0x4670 JUMP JUMPDEST SWAP1 POP PUSH2 0x11EA DUP7 PUSH1 0x4 ADD SLOAD DUP9 DUP4 PUSH1 0x1 DUP10 PUSH2 0x11E5 SWAP2 SWAP1 PUSH2 0x4567 JUMP JUMPDEST PUSH2 0x2CA8 JUMP JUMPDEST PUSH0 PUSH1 0x64 PUSH1 0xF DUP7 PUSH2 0x11FA SWAP2 SWAP1 PUSH2 0x4708 JUMP JUMPDEST PUSH2 0x1204 SWAP2 SWAP1 PUSH2 0x4670 JUMP JUMPDEST SWAP1 POP PUSH2 0x1222 DUP8 PUSH1 0x5 ADD SLOAD DUP10 DUP4 PUSH1 0x1 DUP11 PUSH2 0x121D SWAP2 SWAP1 PUSH2 0x4567 JUMP JUMPDEST PUSH2 0x2F60 JUMP JUMPDEST PUSH0 PUSH1 0x64 PUSH1 0xF DUP8 PUSH2 0x1232 SWAP2 SWAP1 PUSH2 0x4708 JUMP JUMPDEST PUSH2 0x123C SWAP2 SWAP1 PUSH2 0x4670 JUMP JUMPDEST SWAP1 POP PUSH2 0x125B DUP9 PUSH1 0x5 ADD SLOAD DUP11 DUP4 PUSH1 0x1 DUP12 PUSH2 0x1255 SWAP2 SWAP1 PUSH2 0x4567 JUMP JUMPDEST DUP12 PUSH2 0x32BC JUMP JUMPDEST DUP9 CALLER PUSH20 0xFFFFFFFFFFFFFFFFFFFFFFFFFFFFFFFFFFFFFFFF AND PUSH32 0xBABB6A363FD9A057996D09882C0B74B710D121707D19EEFFD91C51C3171A7C91 PUSH1 0x1 DUP11 PUSH2 0x12A1 SWAP2 SWAP1 PUSH2 0x4567 JUMP JUMPDEST PUSH1 0x40 MLOAD PUSH2 0x12AE SWAP2 SWAP1 PUSH2 0x4793 JUMP JUMPDEST PUSH1 0x40 MLOAD DUP1 SWAP2 SUB SWAP1 LOG3 POP POP POP POP POP POP POP POP POP JUMP JUMPDEST PUSH1 0x18 PUSH1 0x20 MSTORE DUP1 PUSH0 MSTORE PUSH1 0x40 PUSH0 KECCAK256 PUSH0 SWAP2 POP SWAP1 POP DUP1 PUSH0 ADD SLOAD SWAP1 DUP1 PUSH1 0x1 ADD SLOAD SWAP1 DUP1 PUSH1 0x2 ADD SLOAD SWAP1 DUP1 PUSH1 0x3 ADD SLOAD SWAP1 DUP1 PUSH1 0x4 ADD SLOAD SWAP1 DUP1 PUSH1 0x5 ADD SLOAD SWAP1 DUP1 PUSH1 0x6 ADD SLOAD SWAP1 DUP1 PUSH1 0x7 ADD SLOAD SWAP1 DUP1 PUSH1 0x8 ADD SLOAD SWAP1 POP DUP10 JUMP JUMPDEST PUSH1 0x22 SLOAD DUP2 JUMP JUMPDEST PUSH1 0xA DUP2 JUMP JUMPDEST PUSH1 0x1A PUSH1 0x20 MSTORE DUP3 PUSH0 MSTORE PUSH1 0x40 PUSH0 KECCAK256 PUSH1 0x20 MSTORE DUP2 PUSH0 MSTORE PUSH1 0x40 PUSH0 KECCAK256 DUP2 DUP2 SLOAD DUP2 LT PUSH2 0x1339 JUMPI PUSH0 DUP1 REVERT JUMPDEST SWAP1 PUSH0 MSTORE PUSH1 0x20 PUSH0 KECCAK256 ADD PUSH0 SWAP3 POP SWAP3 POP POP POP SLOAD DUP2 JUMP JUMPDEST PUSH1 0x1C PUSH1 0x20 MSTORE DUP2 PUSH0 MSTORE PUSH1 0x40 PUSH0 KECCAK256 DUP2 DUP2 SLOAD DUP2 LT PUSH2 0x1365 JUMPI PUSH0 DUP1 REVERT JUMPDEST SWAP1 PUSH0 MSTORE PUSH1 0x20 PUSH0 KECCAK256 ADD PUSH0 SWAP2 POP SWAP2 POP POP SLOAD DUP2 JUMP JUMPDEST PUSH0 PUSH1 0x60 PUSH0 PUSH1 0x17 PUSH0 DUP6 DUP2 MSTORE PUSH1 0x20 ADD SWAP1 DUP2 MSTORE PUSH1 0x20 ADD PUSH0 KECCAK256 SWAP1 POP PUSH0 DUP2 PUSH1 0xA ADD SLOAD SWAP1 POP PUSH1 0x8 DUP1 SLOAD SWAP1 POP DUP2 LT PUSH2 0x13C7 JUMPI PUSH0 PUSH1 0x40 MLOAD DUP1 PUSH1 0x60 ADD PUSH1 0x40 MSTORE DUP1 PUSH1 0x23 DUP2 MSTORE PUSH1 0x20 ADD PUSH2 0x51B9 PUSH1 0x23 SWAP2 CODECOPY SWAP4 POP SWAP4 POP POP POP PUSH2 0x14AC JUMP JUMPDEST PUSH0 PUSH1 0x9 DUP3 PUSH1 0x7 DUP2 LT PUSH2 0x13DC JUMPI PUSH2 0x13DB PUSH2 0x434B JUMP JUMPDEST JUMPDEST ADD SLOAD SWAP1 POP DUP1 DUP4 PUSH1 0x6 ADD SLOAD LT ISZERO PUSH2 0x1412 JUMPI PUSH0 PUSH1 0x40 MLOAD DUP1 PUSH1 0x60 ADD PUSH1 0x40 MSTORE DUP1 PUSH1 0x26 DUP2 MSTORE PUSH1 0x20 ADD PUSH2 0x5193 PUSH1 0x26 SWAP2 CODECOPY SWAP5 POP SWAP5 POP POP POP POP PUSH2 0x14AC JUMP JUMPDEST PUSH0 DUP3 GT DUP1 ISZERO PUSH2 0x1424 JUMPI POP DUP2 DUP4 PUSH1 0xA ADD SLOAD LT JUMPDEST ISZERO PUSH2 0x146C JUMPI PUSH0 PUSH1 0x40 MLOAD DUP1 PUSH1 0x40 ADD PUSH1 0x40 MSTORE DUP1 PUSH1 0x17 DUP2 MSTORE PUSH1 0x20 ADD PUSH32 0x4275792070726576696F757320706F6F6C206669727374000000000000000000 DUP2 MSTORE POP SWAP5 POP SWAP5 POP POP POP POP PUSH2 0x14AC JUMP JUMPDEST PUSH1 0x1 PUSH1 0x40 MLOAD DUP1 PUSH1 0x40 ADD PUSH1 0x40 MSTORE DUP1 PUSH1 0x19 DUP2 MSTORE PUSH1 0x20 ADD PUSH32 0x456C696769626C6520746F20627579206E65787420706F6F6C00000000000000 DUP2 MSTORE POP SWAP5 POP SWAP5 POP POP POP POP JUMPDEST SWAP2 POP SWAP2 JUMP JUMPDEST PUSH1 0x19 PUSH1 0x20 MSTORE DUP2 PUSH0 MSTORE PUSH1 0x40 PUSH0 KECCAK256 DUP2 DUP2 SLOAD DUP2 LT PUSH2 0x14CA JUMPI PUSH0 DUP1 REVERT JUMPDEST SWAP1 PUSH0 MSTORE PUSH1 0x20 PUSH0 KECCAK256 SWAP1 PUSH1 0x5 MUL ADD PUSH0 SWAP2 POP SWAP2 POP POP DUP1 PUSH0 ADD SLOAD SWAP1 DUP1 PUSH1 0x1 ADD SLOAD SWAP1 DUP1 PUSH1 0x2 ADD SLOAD SWAP1 DUP1 PUSH1 0x3 ADD SLOAD SWAP1 DUP1 PUSH1 0x4 ADD SLOAD SWAP1 POP DUP6 JUMP JUMPDEST PUSH1 0x1D SLOAD DUP2 JUMP JUMPDEST PUSH1 0x2 PUSH0 SWAP1 SLOAD SWAP1 PUSH2 0x100 EXP SWAP1 DIV PUSH20 0xFFFFFFFFFFFFFFFFFFFFFFFFFFFFFFFFFFFFFFFF AND DUP2 JUMP JUMPDEST PUSH1 0x20 PUSH0 SWAP1 SLOAD SWAP1 PUSH2 0x100 EXP SWAP1 DIV PUSH20 0xFFFFFFFFFFFFFFFFFFFFFFFFFFFFFFFFFFFFFFFF AND DUP2 JUMP JUMPDEST PUSH1 0x1B PUSH1 0x20 MSTORE DUP1 PUSH0 MSTORE PUSH1 0x40 PUSH0 KECCAK256 PUSH0 SWAP2 POP SWAP1 POP SLOAD DUP2 JUMP JUMPDEST PUSH1 0x13 PUSH1 0x20 MSTORE DUP3 PUSH0 MSTORE PUSH1 0x40 PUSH0 KECCAK256 PUSH1 0x20 MSTORE DUP2 PUSH0 MSTORE PUSH1 0x40 PUSH0 KECCAK256 DUP2 DUP2 SLOAD DUP2 LT PUSH2 0x1585 JUMPI PUSH0 DUP1 REVERT JUMPDEST SWAP1 PUSH0 MSTORE PUSH1 0x20 PUSH0 KECCAK256 ADD PUSH0 SWAP3 POP SWAP3 POP POP POP SLOAD DUP2 JUMP JUMPDEST PUSH1 0x1 PUSH0 SWAP1 SLOAD SWAP1 PUSH2 0x100 EXP SWAP1 DIV PUSH20 0xFFFFFFFFFFFFFFFFFFFFFFFFFFFFFFFFFFFFFFFF AND DUP2 JUMP JUMPDEST PUSH1 0x12 PUSH1 0x20 MSTORE DUP3 PUSH0 MSTORE PUSH1 0x40 PUSH0 KECCAK256 PUSH1 0x20 MSTORE DUP2 PUSH0 MSTORE PUSH1 0x40 PUSH0 KECCAK256 DUP2 DUP2 SLOAD DUP2 LT PUSH2 0x15E0 JUMPI PUSH0 DUP1 REVERT JUMPDEST SWAP1 PUSH0 MSTORE PUSH1 0x20 PUSH0 KECCAK256 ADD PUSH0 SWAP3 POP SWAP3 POP POP POP SLOAD DUP2 JUMP JUMPDEST PUSH1 0x8 DUP2 DUP2 SLOAD DUP2 LT PUSH2 0x1602 JUMPI PUSH0 DUP1 REVERT JUMPDEST SWAP1 PUSH0 MSTORE PUSH1 0x20 PUSH0 KECCAK256 ADD PUSH0 SWAP2 POP SWAP1 POP SLOAD DUP2 JUMP JUMPDEST PUSH1 0x15 PUSH1 0x20 MSTORE DUP2 PUSH0 MSTORE PUSH1 0x40 PUSH0 KECCAK256 PUSH1 0x20 MSTORE DUP1 PUSH0 MSTORE PUSH1 0x40 PUSH0 KECCAK256 PUSH0 SWAP2 POP SWAP2 POP SWAP1 SLOAD SWAP1 PUSH2 0x100 EXP SWAP1 DIV PUSH1 0xFF AND DUP2 JUMP JUMPDEST PUSH1 0x10 PUSH1 0x20 MSTORE DUP2 PUSH0 MSTORE PUSH1 0x40 PUSH0 KECCAK256 PUSH1 0x20 MSTORE DUP1 PUSH0 MSTORE PUSH1 0x40 PUSH0 KECCAK256 PUSH0 SWAP2 POP SWAP2 POP POP DUP1 PUSH0 ADD SLOAD SWAP1 DUP1 PUSH1 0x1 ADD SLOAD SWAP1 POP DUP3 JUMP JUMPDEST PUSH1 0x6 SLOAD DUP2 JUMP JUMPDEST PUSH1 0x7 DUP2 DUP2 SLOAD DUP2 LT PUSH2 0x167D JUMPI PUSH0 DUP1 REVERT JUMPDEST SWAP1 PUSH0 MSTORE PUSH1 0x20 PUSH0 KECCAK256 ADD PUSH0 SWAP2 POP SWAP1 POP SLOAD DUP2 JUMP JUMPDEST PUSH1 0x16 PUSH1 0x20 MSTORE DUP1 PUSH0 MSTORE PUSH1 0x40 PUSH0 KECCAK256 PUSH0 SWAP2 POP SWAP1 POP SLOAD DUP2 JUMP JUMPDEST PUSH1 0x11 PUSH1 0x20 MSTORE DUP2 PUSH0 MSTORE PUSH1 0x40 PUSH0 KECCAK256 PUSH1 0x20 MSTORE DUP1 PUSH0 MSTORE PUSH1 0x40 PUSH0 KECCAK256 PUSH0 SWAP2 POP SWAP2 POP POP DUP1 PUSH0 ADD SLOAD SWAP1 DUP1 PUSH1 0x1 ADD SLOAD SWAP1 DUP1 PUSH1 0x2 ADD SLOAD SWAP1 DUP1 PUSH1 0x3 ADD SLOAD SWAP1 DUP1 PUSH1 0x4 ADD SLOAD SWAP1 POP DUP6 JUMP JUMPDEST PUSH0 PUSH1 0x17 PUSH0 DUP6 PUSH4 0xFFFFFFFF AND DUP2 MSTORE PUSH1 0x20 ADD SWAP1 DUP2 MSTORE PUSH1 0x20 ADD PUSH0 KECCAK256 SWAP1 POP CALLER PUSH20 0xFFFFFFFFFFFFFFFFFFFFFFFFFFFFFFFFFFFFFFFF AND DUP2 PUSH0 ADD PUSH0 SWAP1 SLOAD SWAP1 PUSH2 0x100 EXP SWAP1 DIV PUSH20 0xFFFFFFFFFFFFFFFFFFFFFFFFFFFFFFFFFFFFFFFF AND PUSH20 0xFFFFFFFFFFFFFFFFFFFFFFFFFFFFFFFFFFFFFFFF AND EQ PUSH2 0x178A JUMPI PUSH1 0x40 MLOAD PUSH32 0x8C379A000000000000000000000000000000000000000000000000000000000 DUP2 MSTORE PUSH1 0x4 ADD PUSH2 0x1781 SWAP1 PUSH2 0x42C5 JUMP JUMPDEST PUSH1 0x40 MLOAD DUP1 SWAP2 SUB SWAP1 REVERT JUMPDEST PUSH1 0x7 DUP2 PUSH1 0xA ADD SLOAD LT PUSH2 0x17D1 JUMPI PUSH1 0x40 MLOAD PUSH32 0x8C379A000000000000000000000000000000000000000000000000000000000 DUP2 MSTORE PUSH1 0x4 ADD PUSH2 0x17C8 SWAP1 PUSH2 0x4809 JUMP JUMPDEST PUSH1 0x40 MLOAD DUP1 SWAP2 SUB SWAP1 REVERT JUMPDEST PUSH1 0x1 DUP3 EQ DUP1 PUSH2 0x17E0 JUMPI POP PUSH1 0x2 DUP3 EQ JUMPDEST PUSH2 0x181F JUMPI PUSH1 0x40 MLOAD PUSH32 0x8C379A000000000000000000000000000000000000000000000000000000000 DUP2 MSTORE PUSH1 0x4 ADD PUSH2 0x1816 SWAP1 PUSH2 0x4871 JUMP JUMPDEST PUSH1 0x40 MLOAD DUP1 SWAP2 SUB SWAP1 REVERT JUMPDEST PUSH0 PUSH0 PUSH1 0x1 DUP5 SUB PUSH2 0x19EE JUMPI PUSH1 0x8 DUP6 DUP2 SLOAD DUP2 LT PUSH2 0x183D JUMPI PUSH2 0x183C PUSH2 0x434B JUMP JUMPDEST JUMPDEST SWAP1 PUSH0 MSTORE PUSH1 0x20 PUSH0 KECCAK256 ADD SLOAD SWAP2 POP DUP5 SWAP1 POP PUSH0 PUSH1 0x10 PUSH0 DUP8 DUP2 MSTORE PUSH1 0x20 ADD SWAP1 DUP2 MSTORE PUSH1 0x20 ADD PUSH0 KECCAK256 PUSH0 DUP9 PUSH4 0xFFFFFFFF AND DUP2 MSTORE PUSH1 0x20 ADD SWAP1 DUP2 MSTORE PUSH1 0x20 ADD PUSH0 KECCAK256 SWAP1 POP DUP3 DUP2 PUSH1 0x1 ADD SLOAD LT ISZERO PUSH2 0x18BB JUMPI PUSH1 0x40 MLOAD PUSH32 0x8C379A000000000000000000000000000000000000000000000000000000000 DUP2 MSTORE PUSH1 0x4 ADD PUSH2 0x18B2 SWAP1 PUSH2 0x48D9 JUMP JUMPDEST PUSH1 0x40 MLOAD DUP1 SWAP2 SUB SWAP1 REVERT JUMPDEST DUP3 DUP2 PUSH1 0x1 ADD PUSH0 DUP3 DUP3 SLOAD PUSH2 0x18CE SWAP2 SWAP1 PUSH2 0x4610 JUMP JUMPDEST SWAP3 POP POP DUP2 SWAP1 SSTORE POP DUP3 DUP5 PUSH1 0xB ADD PUSH0 DUP3 DUP3 SLOAD PUSH2 0x18E8 SWAP2 SWAP1 PUSH2 0x4567 JUMP JUMPDEST SWAP3 POP POP DUP2 SWAP1 SSTORE POP PUSH2 0x18FA DUP3 DUP9 DUP6 PUSH2 0x2698 JUMP JUMPDEST DUP4 PUSH1 0x1 ADD PUSH1 0x40 MLOAD DUP1 PUSH1 0x80 ADD PUSH1 0x40 MSTORE DUP1 DUP6 DUP2 MSTORE PUSH1 0x20 ADD PUSH0 DUP2 MSTORE PUSH1 0x20 ADD TIMESTAMP DUP2 MSTORE PUSH1 0x20 ADD PUSH1 0xA PUSH1 0xFF AND DUP2 MSTORE POP SWAP1 DUP1 PUSH1 0x1 DUP2 SLOAD ADD DUP1 DUP3 SSTORE DUP1 SWAP2 POP POP PUSH1 0x1 SWAP1 SUB SWAP1 PUSH0 MSTORE PUSH1 0x20 PUSH0 KECCAK256 SWAP1 PUSH1 0x4 MUL ADD PUSH0 SWAP1 SWAP2 SWAP1 SWAP2 SWAP1 SWAP2 POP PUSH0 DUP3 ADD MLOAD DUP2 PUSH0 ADD SSTORE PUSH1 0x20 DUP3 ADD MLOAD DUP2 PUSH1 0x1 ADD SSTORE PUSH1 0x40 DUP3 ADD MLOAD DUP2 PUSH1 0x2 ADD SSTORE PUSH1 0x60 DUP3 ADD MLOAD DUP2 PUSH1 0x3 ADD PUSH0 PUSH2 0x100 EXP DUP2 SLOAD DUP2 PUSH1 0xFF MUL NOT AND SWAP1 DUP4 PUSH1 0xFF AND MUL OR SWAP1 SSTORE POP POP POP DUP7 PUSH4 0xFFFFFFFF AND CALLER PUSH20 0xFFFFFFFFFFFFFFFFFFFFFFFFFFFFFFFFFFFFFFFF AND PUSH32 0xBABB6A363FD9A057996D09882C0B74B710D121707D19EEFFD91C51C3171A7C91 PUSH1 0x1 DUP6 PUSH2 0x19D3 SWAP2 SWAP1 PUSH2 0x4567 JUMP JUMPDEST PUSH1 0x40 MLOAD PUSH2 0x19E0 SWAP2 SWAP1 PUSH2 0x4941 JUMP JUMPDEST PUSH1 0x40 MLOAD DUP1 SWAP2 SUB SWAP1 LOG3 POP PUSH2 0x1D4E JUMP JUMPDEST PUSH1 0x2 DUP5 SUB PUSH2 0x1D4D JUMPI PUSH1 0x8 DUP1 SLOAD SWAP1 POP PUSH1 0x1 DUP7 PUSH2 0x1A09 SWAP2 SWAP1 PUSH2 0x4567 JUMP JUMPDEST LT PUSH2 0x1A49 JUMPI PUSH1 0x40 MLOAD PUSH32 0x8C379A000000000000000000000000000000000000000000000000000000000 DUP2 MSTORE PUSH1 0x4 ADD PUSH2 0x1A40 SWAP1 PUSH2 0x49B7 JUMP JUMPDEST PUSH1 0x40 MLOAD DUP1 SWAP2 SUB SWAP1 REVERT JUMPDEST PUSH1 0x8 PUSH1 0x1 DUP7 PUSH2 0x1A58 SWAP2 SWAP1 PUSH2 0x4567 JUMP JUMPDEST DUP2 SLOAD DUP2 LT PUSH2 0x1A69 JUMPI PUSH2 0x1A68 PUSH2 0x434B JUMP JUMPDEST JUMPDEST SWAP1 PUSH0 MSTORE PUSH1 0x20 PUSH0 KECCAK256 ADD SLOAD SWAP2 POP PUSH1 0x1 DUP6 PUSH2 0x1A81 SWAP2 SWAP1 PUSH2 0x4567 JUMP JUMPDEST SWAP1 POP PUSH0 PUSH1 0x9 DUP7 PUSH1 0x7 DUP2 LT PUSH2 0x1A98 JUMPI PUSH2 0x1A97 PUSH2 0x434B JUMP JUMPDEST JUMPDEST ADD SLOAD SWAP1 POP DUP1 DUP5 PUSH1 0x6 ADD SLOAD LT ISZERO PUSH2 0x1AE3 JUMPI PUSH1 0x40 MLOAD PUSH32 0x8C379A000000000000000000000000000000000000000000000000000000000 DUP2 MSTORE PUSH1 0x4 ADD PUSH2 0x1ADA SWAP1 PUSH2 0x43C2 JUMP JUMPDEST PUSH1 0x40 MLOAD DUP1 SWAP2 SUB SWAP1 REVERT JUMPDEST PUSH0 PUSH1 0x10 PUSH0 DUP9 DUP2 MSTORE PUSH1 0x20 ADD SWAP1 DUP2 MSTORE PUSH1 0x20 ADD PUSH0 KECCAK256 PUSH0 DUP10 PUSH4 0xFFFFFFFF AND DUP2 MSTORE PUSH1 0x20 ADD SWAP1 DUP2 MSTORE PUSH1 0x20 ADD PUSH0 KECCAK256 SWAP1 POP DUP4 DUP2 PUSH0 ADD SLOAD LT ISZERO PUSH2 0x1B52 JUMPI PUSH1 0x40 MLOAD PUSH32 0x8C379A000000000000000000000000000000000000000000000000000000000 DUP2 MSTORE PUSH1 0x4 ADD PUSH2 0x1B49 SWAP1 PUSH2 0x4A1F JUMP JUMPDEST PUSH1 0x40 MLOAD DUP1 SWAP2 SUB SWAP1 REVERT JUMPDEST PUSH1 0x15 PUSH0 DUP10 PUSH4 0xFFFFFFFF AND DUP2 MSTORE PUSH1 0x20 ADD SWAP1 DUP2 MSTORE PUSH1 0x20 ADD PUSH0 KECCAK256 PUSH0 DUP5 DUP2 MSTORE PUSH1 0x20 ADD SWAP1 DUP2 MSTORE PUSH1 0x20 ADD PUSH0 KECCAK256 PUSH0 SWAP1 SLOAD SWAP1 PUSH2 0x100 EXP SWAP1 DIV PUSH1 0xFF AND ISZERO PUSH2 0x1BC5 JUMPI PUSH1 0x40 MLOAD PUSH32 0x8C379A000000000000000000000000000000000000000000000000000000000 DUP2 MSTORE PUSH1 0x4 ADD PUSH2 0x1BBC SWAP1 PUSH2 0x4A87 JUMP JUMPDEST PUSH1 0x40 MLOAD DUP1 SWAP2 SUB SWAP1 REVERT JUMPDEST DUP4 DUP2 PUSH0 ADD PUSH0 DUP3 DUP3 SLOAD PUSH2 0x1BD7 SWAP2 SWAP1 PUSH2 0x4610 JUMP JUMPDEST SWAP3 POP POP DUP2 SWAP1 SSTORE POP PUSH1 0x1 DUP6 PUSH1 0xA ADD PUSH0 DUP3 DUP3 SLOAD PUSH2 0x1BF2 SWAP2 SWAP1 PUSH2 0x4567 JUMP JUMPDEST SWAP3 POP POP DUP2 SWAP1 SSTORE POP DUP4 DUP6 PUSH1 0xB ADD PUSH0 DUP3 DUP3 SLOAD PUSH2 0x1C0C SWAP2 SWAP1 PUSH2 0x4567 JUMP JUMPDEST SWAP3 POP POP DUP2 SWAP1 SSTORE POP PUSH1 0x1 PUSH1 0x15 PUSH0 DUP11 PUSH4 0xFFFFFFFF AND DUP2 MSTORE PUSH1 0x20 ADD SWAP1 DUP2 MSTORE PUSH1 0x20 ADD PUSH0 KECCAK256 PUSH0 DUP6 DUP2 MSTORE PUSH1 0x20 ADD SWAP1 DUP2 MSTORE PUSH1 0x20 ADD PUSH0 KECCAK256 PUSH0 PUSH2 0x100 EXP DUP2 SLOAD DUP2 PUSH1 0xFF MUL NOT AND SWAP1 DUP4 ISZERO ISZERO MUL OR SWAP1 SSTORE POP PUSH2 0x1C5C DUP4 DUP10 DUP7 PUSH2 0x2698 JUMP JUMPDEST DUP5 PUSH1 0x1 ADD PUSH1 0x40 MLOAD DUP1 PUSH1 0x80 ADD PUSH1 0x40 MSTORE DUP1 DUP7 DUP2 MSTORE PUSH1 0x20 ADD PUSH0 DUP2 MSTORE PUSH1 0x20 ADD TIMESTAMP DUP2 MSTORE PUSH1 0x20 ADD PUSH1 0xB PUSH1 0xFF AND DUP2 MSTORE POP SWAP1 DUP1 PUSH1 0x1 DUP2 SLOAD ADD DUP1 DUP3 SSTORE DUP1 SWAP2 POP POP PUSH1 0x1 SWAP1 SUB SWAP1 PUSH0 MSTORE PUSH1 0x20 PUSH0 KECCAK256 SWAP1 PUSH1 0x4 MUL ADD PUSH0 SWAP1 SWAP2 SWAP1 SWAP2 SWAP1 SWAP2 POP PUSH0 DUP3 ADD MLOAD DUP2 PUSH0 ADD SSTORE PUSH1 0x20 DUP3 ADD MLOAD DUP2 PUSH1 0x1 ADD SSTORE PUSH1 0x40 DUP3 ADD MLOAD DUP2 PUSH1 0x2 ADD SSTORE PUSH1 0x60 DUP3 ADD MLOAD DUP2 PUSH1 0x3 ADD PUSH0 PUSH2 0x100 EXP DUP2 SLOAD DUP2 PUSH1 0xFF MUL NOT AND SWAP1 DUP4 PUSH1 0xFF AND MUL OR SWAP1 SSTORE POP POP POP DUP8 PUSH4 0xFFFFFFFF AND CALLER PUSH20 0xFFFFFFFFFFFFFFFFFFFFFFFFFFFFFFFFFFFFFFFF AND PUSH32 0xBABB6A363FD9A057996D09882C0B74B710D121707D19EEFFD91C51C3171A7C91 PUSH1 0x1 DUP7 PUSH2 0x1D35 SWAP2 SWAP1 PUSH2 0x4567 JUMP JUMPDEST PUSH1 0x40 MLOAD PUSH2 0x1D42 SWAP2 SWAP1 PUSH2 0x4AEF JUMP JUMPDEST PUSH1 0x40 MLOAD DUP1 SWAP2 SUB SWAP1 LOG3 POP POP JUMPDEST JUMPDEST POP POP POP POP POP POP JUMP JUMPDEST PUSH0 PUSH1 0x17 PUSH0 DUP4 DUP2 MSTORE PUSH1 0x20 ADD SWAP1 DUP2 MSTORE PUSH1 0x20 ADD PUSH0 KECCAK256 SWAP1 POP PUSH0 DUP2 PUSH1 0x3 ADD SLOAD SUB PUSH2 0x1DB0 JUMPI PUSH1 0x40 MLOAD PUSH32 0x8C379A000000000000000000000000000000000000000000000000000000000 DUP2 MSTORE PUSH1 0x4 ADD PUSH2 0x1DA7 SWAP1 PUSH2 0x4B65 JUMP JUMPDEST PUSH1 0x40 MLOAD DUP1 SWAP2 SUB SWAP1 REVERT JUMPDEST CALLER PUSH20 0xFFFFFFFFFFFFFFFFFFFFFFFFFFFFFFFFFFFFFFFF AND DUP2 PUSH0 ADD PUSH0 SWAP1 SLOAD SWAP1 PUSH2 0x100 EXP SWAP1 DIV PUSH20 0xFFFFFFFFFFFFFFFFFFFFFFFFFFFFFFFFFFFFFFFF AND PUSH20 0xFFFFFFFFFFFFFFFFFFFFFFFFFFFFFFFFFFFFFFFF AND EQ PUSH2 0x1E40 JUMPI PUSH1 0x40 MLOAD PUSH32 0x8C379A000000000000000000000000000000000000000000000000000000000 DUP2 MSTORE PUSH1 0x4 ADD PUSH2 0x1E37 SWAP1 PUSH2 0x42C5 JUMP JUMPDEST PUSH1 0x40 MLOAD DUP1 SWAP2 SUB SWAP1 REVERT JUMPDEST PUSH0 PUSH1 0x1D SLOAD SWAP1 POP PUSH0 PUSH1 0x1E PUSH0 DUP6 DUP2 MSTORE PUSH1 0x20 ADD SWAP1 DUP2 MSTORE PUSH1 0x20 ADD PUSH0 KECCAK256 SLOAD SWAP1 POP DUP1 DUP3 SUB PUSH2 0x1E6A JUMPI POP POP POP PUSH2 0x20D7 JUMP JUMPDEST PUSH0 PUSH8 0xDE0B6B3A7640000 DUP3 DUP5 PUSH2 0x1E80 SWAP2 SWAP1 PUSH2 0x4610 JUMP JUMPDEST PUSH2 0x1E8A SWAP2 SWAP1 PUSH2 0x4670 JUMP JUMPDEST SWAP1 POP PUSH0 DUP2 SUB PUSH2 0x1EB2 JUMPI DUP3 PUSH1 0x1E PUSH0 DUP8 DUP2 MSTORE PUSH1 0x20 ADD SWAP1 DUP2 MSTORE PUSH1 0x20 ADD PUSH0 KECCAK256 DUP2 SWAP1 SSTORE POP POP POP POP POP PUSH2 0x20D7 JUMP JUMPDEST PUSH0 PUSH2 0x1EBD DUP7 DUP4 PUSH2 0x2982 JUMP JUMPDEST SWAP1 POP DUP4 PUSH1 0x1E PUSH0 DUP9 DUP2 MSTORE PUSH1 0x20 ADD SWAP1 DUP2 MSTORE PUSH1 0x20 ADD PUSH0 KECCAK256 DUP2 SWAP1 SSTORE POP PUSH0 DUP2 GT ISZERO PUSH2 0x20B4 JUMPI PUSH0 PUSH1 0x18 PUSH0 DUP9 DUP2 MSTORE PUSH1 0x20 ADD SWAP1 DUP2 MSTORE PUSH1 0x20 ADD PUSH0 KECCAK256 SWAP1 POP DUP2 DUP2 PUSH0 ADD PUSH0 DUP3 DUP3 SLOAD PUSH2 0x1F03 SWAP2 SWAP1 PUSH2 0x4567 JUMP JUMPDEST SWAP3 POP POP DUP2 SWAP1 SSTORE POP DUP2 DUP2 PUSH1 0x7 ADD PUSH0 DUP3 DUP3 SLOAD PUSH2 0x1F1D SWAP2 SWAP1 PUSH2 0x4567 JUMP JUMPDEST SWAP3 POP POP DUP2 SWAP1 SSTORE POP PUSH1 0x19 PUSH0 DUP9 DUP2 MSTORE PUSH1 0x20 ADD SWAP1 DUP2 MSTORE PUSH1 0x20 ADD PUSH0 KECCAK256 PUSH1 0x40 MLOAD DUP1 PUSH1 0xA0 ADD PUSH1 0x40 MSTORE DUP1 DUP10 DUP2 MSTORE PUSH1 0x20 ADD DUP5 DUP2 MSTORE PUSH1 0x20 ADD PUSH1 0x1 DUP2 MSTORE PUSH1 0x20 ADD TIMESTAMP DUP2 MSTORE PUSH1 0x20 ADD PUSH1 0x9 DUP2 MSTORE POP SWAP1 DUP1 PUSH1 0x1 DUP2 SLOAD ADD DUP1 DUP3 SSTORE DUP1 SWAP2 POP POP PUSH1 0x1 SWAP1 SUB SWAP1 PUSH0 MSTORE PUSH1 0x20 PUSH0 KECCAK256 SWAP1 PUSH1 0x5 MUL ADD PUSH0 SWAP1 SWAP2 SWAP1 SWAP2 SWAP1 SWAP2 POP PUSH0 DUP3 ADD MLOAD DUP2 PUSH0 ADD SSTORE PUSH1 0x20 DUP3 ADD MLOAD DUP2 PUSH1 0x1 ADD SSTORE PUSH1 0x40 DUP3 ADD MLOAD DUP2 PUSH1 0x2 ADD SSTORE PUSH1 0x60 DUP3 ADD MLOAD DUP2 PUSH1 0x3 ADD SSTORE PUSH1 0x80 DUP3 ADD MLOAD DUP2 PUSH1 0x4 ADD SSTORE POP POP PUSH0 PUSH0 SWAP1 SLOAD SWAP1 PUSH2 0x100 EXP SWAP1 DIV PUSH20 0xFFFFFFFFFFFFFFFFFFFFFFFFFFFFFFFFFFFFFFFF AND PUSH20 0xFFFFFFFFFFFFFFFFFFFFFFFFFFFFFFFFFFFFFFFF AND PUSH4 0xA9059CBB DUP8 PUSH0 ADD PUSH0 SWAP1 SLOAD SWAP1 PUSH2 0x100 EXP SWAP1 DIV PUSH20 0xFFFFFFFFFFFFFFFFFFFFFFFFFFFFFFFFFFFFFFFF AND DUP5 PUSH1 0x40 MLOAD DUP4 PUSH4 0xFFFFFFFF AND PUSH1 0xE0 SHL DUP2 MSTORE PUSH1 0x4 ADD PUSH2 0x2033 SWAP3 SWAP2 SWAP1 PUSH2 0x4B83 JUMP JUMPDEST PUSH1 0x20 PUSH1 0x40 MLOAD DUP1 DUP4 SUB DUP2 PUSH0 DUP8 GAS CALL ISZERO DUP1 ISZERO PUSH2 0x204F JUMPI RETURNDATASIZE PUSH0 PUSH0 RETURNDATACOPY RETURNDATASIZE PUSH0 REVERT JUMPDEST POP POP POP POP PUSH1 0x40 MLOAD RETURNDATASIZE PUSH1 0x1F NOT PUSH1 0x1F DUP3 ADD AND DUP3 ADD DUP1 PUSH1 0x40 MSTORE POP DUP2 ADD SWAP1 PUSH2 0x2073 SWAP2 SWAP1 PUSH2 0x450F JUMP JUMPDEST PUSH2 0x20B2 JUMPI PUSH1 0x40 MLOAD PUSH32 0x8C379A000000000000000000000000000000000000000000000000000000000 DUP2 MSTORE PUSH1 0x4 ADD PUSH2 0x20A9 SWAP1 PUSH2 0x4BF4 JUMP JUMPDEST PUSH1 0x40 MLOAD DUP1 SWAP2 SUB SWAP1 REVERT JUMPDEST POP JUMPDEST DUP1 DUP3 GT ISZERO PUSH2 0x20D1 JUMPI PUSH2 0x20D0 DUP2 DUP4 PUSH2 0x20CB SWAP2 SWAP1 PUSH2 0x4610 JUMP JUMPDEST PUSH2 0x2A96 JUMP JUMPDEST JUMPDEST POP POP POP POP POP JUMPDEST POP JUMP JUMPDEST PUSH1 0x3 PUSH0 SWAP1 SLOAD SWAP1 PUSH2 0x100 EXP SWAP1 DIV PUSH20 0xFFFFFFFFFFFFFFFFFFFFFFFFFFFFFFFFFFFFFFFF AND DUP2 JUMP JUMPDEST PUSH1 0x5 SLOAD DUP2 JUMP JUMPDEST PUSH0 PUSH1 0x16 PUSH0 CALLER PUSH20 0xFFFFFFFFFFFFFFFFFFFFFFFFFFFFFFFFFFFFFFFF AND PUSH20 0xFFFFFFFFFFFFFFFFFFFFFFFFFFFFFFFFFFFFFFFF AND DUP2 MSTORE PUSH1 0x20 ADD SWAP1 DUP2 MSTORE PUSH1 0x20 ADD PUSH0 KECCAK256 SLOAD EQ PUSH2 0x2184 JUMPI PUSH1 0x40 MLOAD PUSH32 0x8C379A000000000000000000000000000000000000000000000000000000000 DUP2 MSTORE PUSH1 0x4 ADD PUSH2 0x217B SWAP1 PUSH2 0x4C5C JUMP JUMPDEST PUSH1 0x40 MLOAD DUP1 SWAP2 SUB SWAP1 REVERT JUMPDEST PUSH0 PUSH1 0x17 PUSH0 DUP4 DUP2 MSTORE PUSH1 0x20 ADD SWAP1 DUP2 MSTORE PUSH1 0x20 ADD PUSH0 KECCAK256 PUSH1 0x3 ADD SLOAD GT PUSH2 0x21DA JUMPI PUSH1 0x40 MLOAD PUSH32 0x8C379A000000000000000000000000000000000000000000000000000000000 DUP2 MSTORE PUSH1 0x4 ADD PUSH2 0x21D1 SWAP1 PUSH2 0x4CC4 JUMP JUMPDEST PUSH1 0x40 MLOAD DUP1 SWAP2 SUB SWAP1 REVERT JUMPDEST PUSH0 PUSH0 SWAP1 SLOAD SWAP1 PUSH2 0x100 EXP SWAP1 DIV PUSH20 0xFFFFFFFFFFFFFFFFFFFFFFFFFFFFFFFFFFFFFFFF AND PUSH20 0xFFFFFFFFFFFFFFFFFFFFFFFFFFFFFFFFFFFFFFFF AND PUSH4 0x23B872DD CALLER ADDRESS PUSH1 0x7 PUSH0 DUP2 SLOAD DUP2 LT PUSH2 0x222C JUMPI PUSH2 0x222B PUSH2 0x434B JUMP JUMPDEST JUMPDEST SWAP1 PUSH0 MSTORE PUSH1 0x20 PUSH0 KECCAK256 ADD SLOAD PUSH1 0x40 MLOAD DUP5 PUSH4 0xFFFFFFFF AND PUSH1 0xE0 SHL DUP2 MSTORE PUSH1 0x4 ADD PUSH2 0x2253 SWAP4 SWAP3 SWAP2 SWAP1 PUSH2 0x44B0 JUMP JUMPDEST PUSH1 0x20 PUSH1 0x40 MLOAD DUP1 DUP4 SUB DUP2 PUSH0 DUP8 GAS CALL ISZERO DUP1 ISZERO PUSH2 0x226F JUMPI RETURNDATASIZE PUSH0 PUSH0 RETURNDATACOPY RETURNDATASIZE PUSH0 REVERT JUMPDEST POP POP POP POP PUSH1 0x40 MLOAD RETURNDATASIZE PUSH1 0x1F NOT PUSH1 0x1F DUP3 ADD AND DUP3 ADD DUP1 PUSH1 0x40 MSTORE POP DUP2 ADD SWAP1 PUSH2 0x2293 SWAP2 SWAP1 PUSH2 0x450F JUMP JUMPDEST POP PUSH0 PUSH1 0x5 PUSH1 0x6 SLOAD PUSH2 0x22A4 SWAP2 SWAP1 PUSH2 0x4708 JUMP JUMPDEST PUSH1 0x5 SLOAD PUSH2 0x22B1 SWAP2 SWAP1 PUSH2 0x4567 JUMP JUMPDEST SWAP1 POP DUP1 PUSH1 0x16 PUSH0 CALLER PUSH20 0xFFFFFFFFFFFFFFFFFFFFFFFFFFFFFFFFFFFFFFFF AND PUSH20 0xFFFFFFFFFFFFFFFFFFFFFFFFFFFFFFFFFFFFFFFF AND DUP2 MSTORE PUSH1 0x20 ADD SWAP1 DUP2 MSTORE PUSH1 0x20 ADD PUSH0 KECCAK256 DUP2 SWAP1 SSTORE POP PUSH0 PUSH1 0x17 PUSH0 DUP4 DUP2 MSTORE PUSH1 0x20 ADD SWAP1 DUP2 MSTORE PUSH1 0x20 ADD PUSH0 KECCAK256 SWAP1 POP CALLER DUP2 PUSH0 ADD PUSH0 PUSH2 0x100 EXP DUP2 SLOAD DUP2 PUSH20 0xFFFFFFFFFFFFFFFFFFFFFFFFFFFFFFFFFFFFFFFF MUL NOT AND SWAP1 DUP4 PUSH20 0xFFFFFFFFFFFFFFFFFFFFFFFFFFFFFFFFFFFFFFFF AND MUL OR SWAP1 SSTORE POP TIMESTAMP DUP2 PUSH1 0x2 ADD DUP2 SWAP1 SSTORE POP DUP2 DUP2 PUSH1 0x3 ADD DUP2 SWAP1 SSTORE POP DUP3 DUP2 PUSH1 0x4 ADD DUP2 SWAP1 SSTORE POP PUSH1 0x1 DUP2 PUSH1 0x6 ADD DUP2 SWAP1 SSTORE POP PUSH1 0x7 PUSH0 DUP2 SLOAD DUP2 LT PUSH2 0x2383 JUMPI PUSH2 0x2382 PUSH2 0x434B JUMP JUMPDEST JUMPDEST SWAP1 PUSH0 MSTORE PUSH1 0x20 PUSH0 KECCAK256 ADD SLOAD DUP2 PUSH1 0x9 ADD DUP2 SWAP1 SSTORE POP TIMESTAMP DUP2 PUSH1 0xC ADD DUP2 SWAP1 SSTORE POP PUSH1 0x1 PUSH1 0x17 PUSH0 DUP6 DUP2 MSTORE PUSH1 0x20 ADD SWAP1 DUP2 MSTORE PUSH1 0x20 ADD PUSH0 KECCAK256 PUSH1 0x7 ADD PUSH0 DUP3 DUP3 SLOAD PUSH2 0x23C1 SWAP2 SWAP1 PUSH2 0x4567 JUMP JUMPDEST SWAP3 POP POP DUP2 SWAP1 SSTORE POP PUSH1 0x1C PUSH0 DUP5 DUP2 MSTORE PUSH1 0x20 ADD SWAP1 DUP2 MSTORE PUSH1 0x20 ADD PUSH0 KECCAK256 DUP3 SWAP1 DUP1 PUSH1 0x1 DUP2 SLOAD ADD DUP1 DUP3 SSTORE DUP1 SWAP2 POP POP PUSH1 0x1 SWAP1 SUB SWAP1 PUSH0 MSTORE PUSH1 0x20 PUSH0 KECCAK256 ADD PUSH0 SWAP1 SWAP2 SWAP1 SWAP2 SWAP1 SWAP2 POP SSTORE PUSH1 0x23 DUP3 SWAP1 DUP1 PUSH1 0x1 DUP2 SLOAD ADD DUP1 DUP3 SSTORE DUP1 SWAP2 POP POP PUSH1 0x1 SWAP1 SUB SWAP1 PUSH0 MSTORE PUSH1 0x20 PUSH0 KECCAK256 ADD PUSH0 SWAP1 SWAP2 SWAP1 SWAP2 SWAP1 SWAP2 POP SSTORE PUSH1 0x1D SLOAD PUSH1 0x1E PUSH0 DUP5 DUP2 MSTORE PUSH1 0x20 ADD SWAP1 DUP2 MSTORE PUSH1 0x20 ADD PUSH0 KECCAK256 DUP2 SWAP1 SSTORE POP PUSH2 0x2445 DUP3 DUP5 PUSH2 0x3422 JUMP JUMPDEST DUP1 PUSH1 0x1 ADD PUSH1 0x40 MLOAD DUP1 PUSH1 0x80 ADD PUSH1 0x40 MSTORE DUP1 PUSH1 0x7 PUSH0 DUP2 SLOAD DUP2 LT PUSH2 0x2468 JUMPI PUSH2 0x2467 PUSH2 0x434B JUMP JUMPDEST JUMPDEST SWAP1 PUSH0 MSTORE PUSH1 0x20 PUSH0 KECCAK256 ADD SLOAD DUP2 MSTORE PUSH1 0x20 ADD PUSH0 DUP2 MSTORE PUSH1 0x20 ADD TIMESTAMP DUP2 MSTORE PUSH1 0x20 ADD PUSH1 0x1 PUSH1 0xFF AND DUP2 MSTORE POP SWAP1 DUP1 PUSH1 0x1 DUP2 SLOAD ADD DUP1 DUP3 SSTORE DUP1 SWAP2 POP POP PUSH1 0x1 SWAP1 SUB SWAP1 PUSH0 MSTORE PUSH1 0x20 PUSH0 KECCAK256 SWAP1 PUSH1 0x4 MUL ADD PUSH0 SWAP1 SWAP2 SWAP1 SWAP2 SWAP1 SWAP2 POP PUSH0 DUP3 ADD MLOAD DUP2 PUSH0 ADD SSTORE PUSH1 0x20 DUP3 ADD MLOAD DUP2 PUSH1 0x1 ADD SSTORE PUSH1 0x40 DUP3 ADD MLOAD DUP2 PUSH1 0x2 ADD SSTORE PUSH1 0x60 DUP3 ADD MLOAD DUP2 PUSH1 0x3 ADD PUSH0 PUSH2 0x100 EXP DUP2 SLOAD DUP2 PUSH1 0xFF MUL NOT AND SWAP1 DUP4 PUSH1 0xFF AND MUL OR SWAP1 SSTORE POP POP POP PUSH0 PUSH1 0x7 PUSH0 DUP2 SLOAD DUP2 LT PUSH2 0x2503 JUMPI PUSH2 0x2502 PUSH2 0x434B JUMP JUMPDEST JUMPDEST SWAP1 PUSH0 MSTORE PUSH1 0x20 PUSH0 KECCAK256 ADD SLOAD SWAP1 POP PUSH0 PUSH1 0x64 PUSH1 0xA DUP4 PUSH2 0x251E SWAP2 SWAP1 PUSH2 0x4708 JUMP JUMPDEST PUSH2 0x2528 SWAP2 SWAP1 PUSH2 0x4670 JUMP JUMPDEST SWAP1 POP PUSH0 PUSH1 0x64 PUSH1 0x23 DUP5 PUSH2 0x253A SWAP2 SWAP1 PUSH2 0x4708 JUMP JUMPDEST PUSH2 0x2544 SWAP2 SWAP1 PUSH2 0x4670 JUMP JUMPDEST SWAP1 POP PUSH1 0x64 PUSH1 0x5 DUP5 PUSH2 0x2555 SWAP2 SWAP1 PUSH2 0x4708 JUMP JUMPDEST PUSH2 0x255F SWAP2 SWAP1 PUSH2 0x4670 JUMP JUMPDEST PUSH1 0x1F PUSH0 DUP3 DUP3 SLOAD PUSH2 0x256F SWAP2 SWAP1 PUSH2 0x4567 JUMP JUMPDEST SWAP3 POP POP DUP2 SWAP1 SSTORE POP PUSH0 PUSH1 0x64 PUSH1 0x32 DUP6 PUSH2 0x2586 SWAP2 SWAP1 PUSH2 0x4708 JUMP JUMPDEST PUSH2 0x2590 SWAP2 SWAP1 PUSH2 0x4670 JUMP JUMPDEST SWAP1 POP PUSH2 0x259B DUP2 PUSH2 0x2A28 JUMP JUMPDEST PUSH2 0x25A4 DUP4 PUSH2 0x2A96 JUMP JUMPDEST PUSH2 0x25B5 DUP6 PUSH1 0x4 ADD SLOAD DUP8 DUP5 PUSH1 0x1 PUSH2 0x2CA8 JUMP JUMPDEST PUSH1 0x1 PUSH1 0x6 PUSH0 DUP3 DUP3 SLOAD PUSH2 0x25C7 SWAP2 SWAP1 PUSH2 0x4567 JUMP JUMPDEST SWAP3 POP POP DUP2 SWAP1 SSTORE POP DUP6 PUSH1 0x17 PUSH0 DUP10 DUP2 MSTORE PUSH1 0x20 ADD SWAP1 DUP2 MSTORE PUSH1 0x20 ADD PUSH0 KECCAK256 PUSH0 ADD PUSH0 SWAP1 SLOAD SWAP1 PUSH2 0x100 EXP SWAP1 DIV PUSH20 0xFFFFFFFFFFFFFFFFFFFFFFFFFFFFFFFFFFFFFFFF AND PUSH20 0xFFFFFFFFFFFFFFFFFFFFFFFFFFFFFFFFFFFFFFFF AND CALLER PUSH20 0xFFFFFFFFFFFFFFFFFFFFFFFFFFFFFFFFFFFFFFFF AND PUSH32 0x309BB360E8B69C23937CCC5FB01F9AEEEAD1C95A99604E175113FF82F2B1723A DUP9 PUSH1 0x5 ADD SLOAD PUSH1 0x40 MLOAD PUSH2 0x2662 SWAP2 SWAP1 PUSH2 0x3D1A JUMP JUMPDEST PUSH1 0x40 MLOAD DUP1 SWAP2 SUB SWAP1 LOG4 POP POP POP POP POP POP POP JUMP JUMPDEST PUSH1 0x4 PUSH0 SWAP1 SLOAD SWAP1 PUSH2 0x100 EXP SWAP1 DIV PUSH20 0xFFFFFFFFFFFFFFFFFFFFFFFFFFFFFFFFFFFFFFFF AND DUP2 JUMP JUMPDEST PUSH1 0x8 DUP1 SLOAD SWAP1 POP DUP4 LT PUSH2 0x26DF JUMPI PUSH1 0x40 MLOAD PUSH32 0x8C379A000000000000000000000000000000000000000000000000000000000 DUP2 MSTORE PUSH1 0x4 ADD PUSH2 0x26D6 SWAP1 PUSH2 0x4D2C JUMP JUMPDEST PUSH1 0x40 MLOAD DUP1 SWAP2 SUB SWAP1 REVERT JUMPDEST PUSH1 0x8 DUP4 DUP2 SLOAD DUP2 LT PUSH2 0x26F3 JUMPI PUSH2 0x26F2 PUSH2 0x434B JUMP JUMPDEST JUMPDEST SWAP1 PUSH0 MSTORE PUSH1 0x20 PUSH0 KECCAK256 ADD SLOAD CALLVALUE EQ PUSH2 0x273D JUMPI PUSH1 0x40 MLOAD PUSH32 0x8C379A000000000000000000000000000000000000000000000000000000000 DUP2 MSTORE PUSH1 0x4 ADD PUSH2 0x2734 SWAP1 PUSH2 0x4D94 JUMP JUMPDEST PUSH1 0x40 MLOAD DUP1 SWAP2 SUB SWAP1 REVERT JUMPDEST PUSH0 PUSH1 0x14 PUSH0 DUP6 DUP2 MSTORE PUSH1 0x20 ADD SWAP1 DUP2 MSTORE PUSH1 0x20 ADD PUSH0 KECCAK256 DUP1 SLOAD DUP1 PUSH1 0x20 MUL PUSH1 0x20 ADD PUSH1 0x40 MLOAD SWAP1 DUP2 ADD PUSH1 0x40 MSTORE DUP1 SWAP3 SWAP2 SWAP1 DUP2 DUP2 MSTORE PUSH1 0x20 ADD DUP3 DUP1 SLOAD DUP1 ISZERO PUSH2 0x2797 JUMPI PUSH1 0x20 MUL DUP3 ADD SWAP2 SWAP1 PUSH0 MSTORE PUSH1 0x20 PUSH0 KECCAK256 SWAP1 JUMPDEST DUP2 SLOAD DUP2 MSTORE PUSH1 0x20 ADD SWAP1 PUSH1 0x1 ADD SWAP1 DUP1 DUP4 GT PUSH2 0x2783 JUMPI JUMPDEST POP POP POP POP POP SWAP1 POP PUSH0 DUP2 MLOAD SWAP1 POP PUSH0 DUP2 PUSH1 0x5 SLOAD PUSH2 0x27B2 SWAP2 SWAP1 PUSH2 0x4567 JUMP JUMPDEST SWAP1 POP PUSH1 0x14 PUSH0 DUP8 DUP2 MSTORE PUSH1 0x20 ADD SWAP1 DUP2 MSTORE PUSH1 0x20 ADD PUSH0 KECCAK256 DUP2 SWAP1 DUP1 PUSH1 0x1 DUP2 SLOAD ADD DUP1 DUP3 SSTORE DUP1 SWAP2 POP POP PUSH1 0x1 SWAP1 SUB SWAP1 PUSH0 MSTORE PUSH1 0x20 PUSH0 KECCAK256 ADD PUSH0 SWAP1 SWAP2 SWAP1 SWAP2 SWAP1 SWAP2 POP SSTORE PUSH0 PUSH1 0x3 PUSH1 0x1 DUP5 PUSH2 0x27F9 SWAP2 SWAP1 PUSH2 0x4610 JUMP JUMPDEST PUSH2 0x2803 SWAP2 SWAP1 PUSH2 0x4670 JUMP JUMPDEST SWAP1 POP PUSH0 DUP5 DUP3 DUP2 MLOAD DUP2 LT PUSH2 0x2819 JUMPI PUSH2 0x2818 PUSH2 0x434B JUMP JUMPDEST JUMPDEST PUSH1 0x20 MUL PUSH1 0x20 ADD ADD MLOAD SWAP1 POP PUSH1 0x40 MLOAD DUP1 PUSH1 0xA0 ADD PUSH1 0x40 MSTORE DUP1 DUP5 DUP2 MSTORE PUSH1 0x20 ADD DUP9 PUSH4 0xFFFFFFFF AND DUP2 MSTORE PUSH1 0x20 ADD DUP10 DUP2 MSTORE PUSH1 0x20 ADD DUP3 DUP2 MSTORE PUSH1 0x20 ADD PUSH0 DUP2 MSTORE POP PUSH1 0x11 PUSH0 DUP11 DUP2 MSTORE PUSH1 0x20 ADD SWAP1 DUP2 MSTORE PUSH1 0x20 ADD PUSH0 KECCAK256 PUSH0 DUP6 DUP2 MSTORE PUSH1 0x20 ADD SWAP1 DUP2 MSTORE PUSH1 0x20 ADD PUSH0 KECCAK256 PUSH0 DUP3 ADD MLOAD DUP2 PUSH0 ADD SSTORE PUSH1 0x20 DUP3 ADD MLOAD DUP2 PUSH1 0x1 ADD SSTORE PUSH1 0x40 DUP3 ADD MLOAD DUP2 PUSH1 0x2 ADD SSTORE PUSH1 0x60 DUP3 ADD MLOAD DUP2 PUSH1 0x3 ADD SSTORE PUSH1 0x80 DUP3 ADD MLOAD DUP2 PUSH1 0x4 ADD SSTORE SWAP1 POP POP PUSH1 0x14 PUSH0 DUP10 DUP2 MSTORE PUSH1 0x20 ADD SWAP1 DUP2 MSTORE PUSH1 0x20 ADD PUSH0 KECCAK256 DUP4 SWAP1 DUP1 PUSH1 0x1 DUP2 SLOAD ADD DUP1 DUP3 SSTORE DUP1 SWAP2 POP POP PUSH1 0x1 SWAP1 SUB SWAP1 PUSH0 MSTORE PUSH1 0x20 PUSH0 KECCAK256 ADD PUSH0 SWAP1 SWAP2 SWAP1 SWAP2 SWAP1 SWAP2 POP SSTORE PUSH1 0x13 PUSH0 DUP10 DUP2 MSTORE PUSH1 0x20 ADD SWAP1 DUP2 MSTORE PUSH1 0x20 ADD PUSH0 KECCAK256 PUSH0 DUP9 PUSH4 0xFFFFFFFF AND DUP2 MSTORE PUSH1 0x20 ADD SWAP1 DUP2 MSTORE PUSH1 0x20 ADD PUSH0 KECCAK256 DUP4 SWAP1 DUP1 PUSH1 0x1 DUP2 SLOAD ADD DUP1 DUP3 SSTORE DUP1 SWAP2 POP POP PUSH1 0x1 SWAP1 SUB SWAP1 PUSH0 MSTORE PUSH1 0x20 PUSH0 KECCAK256 ADD PUSH0 SWAP1 SWAP2 SWAP1 SWAP2 SWAP1 SWAP2 POP SSTORE PUSH1 0x12 PUSH0 DUP10 DUP2 MSTORE PUSH1 0x20 ADD SWAP1 DUP2 MSTORE PUSH1 0x20 ADD PUSH0 KECCAK256 PUSH0 DUP3 DUP2 MSTORE PUSH1 0x20 ADD SWAP1 DUP2 MSTORE PUSH1 0x20 ADD PUSH0 KECCAK256 DUP4 SWAP1 DUP1 PUSH1 0x1 DUP2 SLOAD ADD DUP1 DUP3 SSTORE DUP1 SWAP2 POP POP PUSH1 0x1 SWAP1 SUB SWAP1 PUSH0 MSTORE PUSH1 0x20 PUSH0 KECCAK256 ADD PUSH0 SWAP1 SWAP2 SWAP1 SWAP2 SWAP1 SWAP2 POP SSTORE PUSH2 0x2978 DUP2 DUP10 DUP10 PUSH4 0xFFFFFFFF AND DUP10 PUSH2 0x368E JUMP JUMPDEST POP POP POP POP POP POP POP POP JUMP JUMPDEST PUSH0 PUSH0 PUSH1 0x17 PUSH0 DUP6 DUP2 MSTORE PUSH1 0x20 ADD SWAP1 DUP2 MSTORE PUSH1 0x20 ADD PUSH0 KECCAK256 SWAP1 POP PUSH0 PUSH1 0x18 PUSH0 DUP7 DUP2 MSTORE PUSH1 0x20 ADD SWAP1 DUP2 MSTORE PUSH1 0x20 ADD PUSH0 KECCAK256 SWAP1 POP PUSH1 0x7 DUP1 SLOAD SWAP1 POP DUP3 PUSH1 0x6 ADD SLOAD SUB PUSH2 0x29C5 JUMPI DUP4 SWAP3 POP POP POP PUSH2 0x2A22 JUMP JUMPDEST PUSH0 PUSH1 0xA PUSH1 0x19 DUP5 PUSH1 0x9 ADD SLOAD PUSH2 0x29D9 SWAP2 SWAP1 PUSH2 0x4708 JUMP JUMPDEST PUSH2 0x29E3 SWAP2 SWAP1 PUSH2 0x4670 JUMP JUMPDEST SWAP1 POP DUP1 DUP3 PUSH0 ADD SLOAD LT PUSH2 0x29FA JUMPI PUSH0 SWAP4 POP POP POP POP PUSH2 0x2A22 JUMP JUMPDEST PUSH0 DUP3 PUSH0 ADD SLOAD DUP3 PUSH2 0x2A0A SWAP2 SWAP1 PUSH2 0x4610 JUMP JUMPDEST SWAP1 POP DUP1 DUP7 GT PUSH2 0x2A19 JUMPI DUP6 PUSH2 0x2A1B JUMP JUMPDEST DUP1 JUMPDEST SWAP5 POP POP POP POP POP JUMPDEST SWAP3 SWAP2 POP POP JUMP JUMPDEST PUSH0 PUSH1 0x23 DUP1 SLOAD SWAP1 POP SWAP1 POP PUSH0 DUP2 EQ DUP1 PUSH2 0x2A3E JUMPI POP PUSH0 DUP3 EQ JUMPDEST ISZERO PUSH2 0x2A5B JUMPI PUSH0 DUP3 GT ISZERO PUSH2 0x2A55 JUMPI PUSH2 0x2A54 DUP3 PUSH2 0x2A96 JUMP JUMPDEST JUMPDEST POP PUSH2 0x2A93 JUMP JUMPDEST DUP1 PUSH8 0xDE0B6B3A7640000 DUP4 PUSH2 0x2A70 SWAP2 SWAP1 PUSH2 0x4708 JUMP JUMPDEST PUSH2 0x2A7A SWAP2 SWAP1 PUSH2 0x4670 JUMP JUMPDEST PUSH1 0x1D PUSH0 DUP3 DUP3 SLOAD PUSH2 0x2A8A SWAP2 SWAP1 PUSH2 0x4567 JUMP JUMPDEST SWAP3 POP POP DUP2 SWAP1 SSTORE POP POP JUMPDEST POP JUMP JUMPDEST PUSH0 PUSH20 0xFFFFFFFFFFFFFFFFFFFFFFFFFFFFFFFFFFFFFFFF AND PUSH1 0x2 PUSH0 SWAP1 SLOAD SWAP1 PUSH2 0x100 EXP SWAP1 DIV PUSH20 0xFFFFFFFFFFFFFFFFFFFFFFFFFFFFFFFFFFFFFFFF AND PUSH20 0xFFFFFFFFFFFFFFFFFFFFFFFFFFFFFFFFFFFFFFFF AND SUB PUSH2 0x2B25 JUMPI PUSH1 0x40 MLOAD PUSH32 0x8C379A000000000000000000000000000000000000000000000000000000000 DUP2 MSTORE PUSH1 0x4 ADD PUSH2 0x2B1C SWAP1 PUSH2 0x4DFC JUMP JUMPDEST PUSH1 0x40 MLOAD DUP1 SWAP2 SUB SWAP1 REVERT JUMPDEST PUSH0 PUSH0 SWAP1 SLOAD SWAP1 PUSH2 0x100 EXP SWAP1 DIV PUSH20 0xFFFFFFFFFFFFFFFFFFFFFFFFFFFFFFFFFFFFFFFF AND PUSH20 0xFFFFFFFFFFFFFFFFFFFFFFFFFFFFFFFFFFFFFFFF AND PUSH4 0xA9059CBB PUSH1 0x2 PUSH0 SWAP1 SLOAD SWAP1 PUSH2 0x100 EXP SWAP1 DIV PUSH20 0xFFFFFFFFFFFFFFFFFFFFFFFFFFFFFFFFFFFFFFFF AND DUP4 PUSH1 0x40 MLOAD DUP4 PUSH4 0xFFFFFFFF AND PUSH1 0xE0 SHL DUP2 MSTORE PUSH1 0x4 ADD PUSH2 0x2BA1 SWAP3 SWAP2 SWAP1 PUSH2 0x4B83 JUMP JUMPDEST PUSH1 0x20 PUSH1 0x40 MLOAD DUP1 DUP4 SUB DUP2 PUSH0 DUP8 GAS CALL ISZERO DUP1 ISZERO PUSH2 0x2BBD JUMPI RETURNDATASIZE PUSH0 PUSH0 RETURNDATACOPY RETURNDATASIZE PUSH0 REVERT JUMPDEST POP POP POP POP PUSH1 0x40 MLOAD RETURNDATASIZE PUSH1 0x1F NOT PUSH1 0x1F DUP3 ADD AND DUP3 ADD DUP1 PUSH1 0x40 MSTORE POP DUP2 ADD SWAP1 PUSH2 0x2BE1 SWAP2 SWAP1 PUSH2 0x450F JUMP JUMPDEST POP PUSH0 PUSH1 0x18 PUSH0 PUSH1 0x5 SLOAD DUP2 MSTORE PUSH1 0x20 ADD SWAP1 DUP2 MSTORE PUSH1 0x20 ADD PUSH0 KECCAK256 SWAP1 POP DUP2 DUP2 PUSH0 ADD PUSH0 DUP3 DUP3 SLOAD PUSH2 0x2C0A SWAP2 SWAP1 PUSH2 0x4567 JUMP JUMPDEST SWAP3 POP POP DUP2 SWAP1 SSTORE POP PUSH1 0x19 PUSH0 PUSH1 0x5 SLOAD DUP2 MSTORE PUSH1 0x20 ADD SWAP1 DUP2 MSTORE PUSH1 0x20 ADD PUSH0 KECCAK256 PUSH1 0x40 MLOAD DUP1 PUSH1 0xA0 ADD PUSH1 0x40 MSTORE DUP1 PUSH0 DUP2 MSTORE PUSH1 0x20 ADD DUP5 DUP2 MSTORE PUSH1 0x20 ADD PUSH0 DUP2 MSTORE PUSH1 0x20 ADD TIMESTAMP DUP2 MSTORE PUSH1 0x20 ADD PUSH1 0x5 DUP2 MSTORE POP SWAP1 DUP1 PUSH1 0x1 DUP2 SLOAD ADD DUP1 DUP3 SSTORE DUP1 SWAP2 POP POP PUSH1 0x1 SWAP1 SUB SWAP1 PUSH0 MSTORE PUSH1 0x20 PUSH0 KECCAK256 SWAP1 PUSH1 0x5 MUL ADD PUSH0 SWAP1 SWAP2 SWAP1 SWAP2 SWAP1 SWAP2 POP PUSH0 DUP3 ADD MLOAD DUP2 PUSH0 ADD SSTORE PUSH1 0x20 DUP3 ADD MLOAD DUP2 PUSH1 0x1 ADD SSTORE PUSH1 0x40 DUP3 ADD MLOAD DUP2 PUSH1 0x2 ADD SSTORE PUSH1 0x60 DUP3 ADD MLOAD DUP2 PUSH1 0x3 ADD SSTORE PUSH1 0x80 DUP3 ADD MLOAD DUP2 PUSH1 0x4 ADD SSTORE POP POP POP POP JUMP JUMPDEST PUSH0 DUP5 EQ DUP1 PUSH2 0x2CB7 JUMPI POP PUSH1 0x5 SLOAD DUP5 EQ JUMPDEST ISZERO PUSH2 0x2CCA JUMPI PUSH2 0x2CC5 DUP3 PUSH2 0x2A96 JUMP JUMPDEST PUSH2 0x2F5A JUMP JUMPDEST PUSH0 PUSH1 0x17 PUSH0 DUP7 DUP2 MSTORE PUSH1 0x20 ADD SWAP1 DUP2 MSTORE PUSH1 0x20 ADD PUSH0 KECCAK256 SWAP1 POP PUSH1 0x1 DUP3 EQ PUSH2 0x2D03 JUMPI PUSH1 0x2 DUP2 PUSH1 0x7 ADD SLOAD LT ISZERO PUSH2 0x2D02 JUMPI PUSH2 0x2CFC DUP4 PUSH2 0x2A96 JUMP JUMPDEST POP PUSH2 0x2F5A JUMP JUMPDEST JUMPDEST PUSH0 PUSH0 SWAP1 SLOAD SWAP1 PUSH2 0x100 EXP SWAP1 DIV PUSH20 0xFFFFFFFFFFFFFFFFFFFFFFFFFFFFFFFFFFFFFFFF AND PUSH20 0xFFFFFFFFFFFFFFFFFFFFFFFFFFFFFFFFFFFFFFFF AND PUSH4 0xA9059CBB DUP3 PUSH0 ADD PUSH0 SWAP1 SLOAD SWAP1 PUSH2 0x100 EXP SWAP1 DIV PUSH20 0xFFFFFFFFFFFFFFFFFFFFFFFFFFFFFFFFFFFFFFFF AND DUP6 PUSH1 0x40 MLOAD DUP4 PUSH4 0xFFFFFFFF AND PUSH1 0xE0 SHL DUP2 MSTORE PUSH1 0x4 ADD PUSH2 0x2D80 SWAP3 SWAP2 SWAP1 PUSH2 0x4B83 JUMP JUMPDEST PUSH1 0x20 PUSH1 0x40 MLOAD DUP1 DUP4 SUB DUP2 PUSH0 DUP8 GAS CALL ISZERO DUP1 ISZERO PUSH2 0x2D9C JUMPI RETURNDATASIZE PUSH0 PUSH0 RETURNDATACOPY RETURNDATASIZE PUSH0 REVERT JUMPDEST POP POP POP POP PUSH1 0x40 MLOAD RETURNDATASIZE PUSH1 0x1F NOT PUSH1 0x1F DUP3 ADD AND DUP3 ADD DUP1 PUSH1 0x40 MSTORE POP DUP2 ADD SWAP1 PUSH2 0x2DC0 SWAP2 SWAP1 PUSH2 0x450F JUMP JUMPDEST POP PUSH0 PUSH1 0x18 PUSH0 DUP8 DUP2 MSTORE PUSH1 0x20 ADD SWAP1 DUP2 MSTORE PUSH1 0x20 ADD PUSH0 KECCAK256 SWAP1 POP DUP4 DUP2 PUSH0 ADD PUSH0 DUP3 DUP3 SLOAD PUSH2 0x2DE7 SWAP2 SWAP1 PUSH2 0x4567 JUMP JUMPDEST SWAP3 POP POP DUP2 SWAP1 SSTORE POP DUP4 DUP2 PUSH1 0x1 ADD PUSH0 DUP3 DUP3 SLOAD PUSH2 0x2E01 SWAP2 SWAP1 PUSH2 0x4567 JUMP JUMPDEST SWAP3 POP POP DUP2 SWAP1 SSTORE POP PUSH1 0x19 PUSH0 DUP8 DUP2 MSTORE PUSH1 0x20 ADD SWAP1 DUP2 MSTORE PUSH1 0x20 ADD PUSH0 KECCAK256 PUSH1 0x40 MLOAD DUP1 PUSH1 0xA0 ADD PUSH1 0x40 MSTORE DUP1 DUP8 DUP2 MSTORE PUSH1 0x20 ADD DUP7 DUP2 MSTORE PUSH1 0x20 ADD DUP6 DUP2 MSTORE PUSH1 0x20 ADD TIMESTAMP DUP2 MSTORE PUSH1 0x20 ADD PUSH1 0x1 DUP2 MSTORE POP SWAP1 DUP1 PUSH1 0x1 DUP2 SLOAD ADD DUP1 DUP3 SSTORE DUP1 SWAP2 POP POP PUSH1 0x1 SWAP1 SUB SWAP1 PUSH0 MSTORE PUSH1 0x20 PUSH0 KECCAK256 SWAP1 PUSH1 0x5 MUL ADD PUSH0 SWAP1 SWAP2 SWAP1 SWAP2 SWAP1 SWAP2 POP PUSH0 DUP3 ADD MLOAD DUP2 PUSH0 ADD SSTORE PUSH1 0x20 DUP3 ADD MLOAD DUP2 PUSH1 0x1 ADD SSTORE PUSH1 0x40 DUP3 ADD MLOAD DUP2 PUSH1 0x2 ADD SSTORE PUSH1 0x60 DUP3 ADD MLOAD DUP2 PUSH1 0x3 ADD SSTORE PUSH1 0x80 DUP3 ADD MLOAD DUP2 PUSH1 0x4 ADD SSTORE POP POP PUSH1 0x17 PUSH0 DUP7 DUP2 MSTORE PUSH1 0x20 ADD SWAP1 DUP2 MSTORE PUSH1 0x20 ADD PUSH0 KECCAK256 PUSH0 ADD PUSH0 SWAP1 SLOAD SWAP1 PUSH2 0x100 EXP SWAP1 DIV PUSH20 0xFFFFFFFFFFFFFFFFFFFFFFFFFFFFFFFFFFFFFFFF AND PUSH20 0xFFFFFFFFFFFFFFFFFFFFFFFFFFFFFFFFFFFFFFFF AND DUP3 PUSH0 ADD PUSH0 SWAP1 SLOAD SWAP1 PUSH2 0x100 EXP SWAP1 DIV PUSH20 0xFFFFFFFFFFFFFFFFFFFFFFFFFFFFFFFFFFFFFFFF AND PUSH20 0xFFFFFFFFFFFFFFFFFFFFFFFFFFFFFFFFFFFFFFFF AND PUSH32 0xE17B61D324CE17328F433D0AB62581C0F0AA997312BAE80FBDFCD2AA9B91D6E3 DUP7 DUP7 PUSH1 0x1 PUSH1 0x40 MLOAD PUSH2 0x2F4F SWAP4 SWAP3 SWAP2 SWAP1 PUSH2 0x4E53 JUMP JUMPDEST PUSH1 0x40 MLOAD DUP1 SWAP2 SUB SWAP1 LOG3 POP POP JUMPDEST POP POP POP POP JUMP JUMPDEST PUSH0 PUSH1 0x1 SWAP1 POP PUSH1 0x5 SLOAD DUP6 EQ DUP1 PUSH2 0x2F74 JUMPI POP PUSH0 DUP6 EQ JUMPDEST ISZERO PUSH2 0x2F88 JUMPI PUSH2 0x2F82 DUP4 PUSH2 0x2A96 JUMP JUMPDEST POP PUSH2 0x32B6 JUMP JUMPDEST PUSH0 DUP6 SWAP1 POP JUMPDEST DUP3 DUP3 LT ISZERO PUSH2 0x2FE6 JUMPI DUP2 DUP1 PUSH2 0x2FA0 SWAP1 PUSH2 0x4E88 JUMP JUMPDEST SWAP3 POP POP PUSH1 0x17 PUSH0 DUP3 DUP2 MSTORE PUSH1 0x20 ADD SWAP1 DUP2 MSTORE PUSH1 0x20 ADD PUSH0 KECCAK256 PUSH1 0x5 ADD SLOAD SWAP1 POP PUSH1 0x5 SLOAD DUP2 EQ DUP1 PUSH2 0x2FC9 JUMPI POP PUSH0 DUP2 EQ JUMPDEST ISZERO PUSH2 0x2FE1 JUMPI DUP3 SWAP2 POP PUSH2 0x2FDA DUP5 PUSH2 0x2A96 JUMP JUMPDEST POP POP PUSH2 0x32B6 JUMP JUMPDEST PUSH2 0x2F8D JUMP JUMPDEST PUSH0 DUP2 SWAP1 POP PUSH0 SWAP3 POP JUMPDEST PUSH0 DUP2 EQ ISZERO DUP1 ISZERO PUSH2 0x3000 JUMPI POP PUSH1 0x5 SLOAD DUP2 EQ ISZERO JUMPDEST DUP1 ISZERO PUSH2 0x300C JUMPI POP PUSH1 0xF DUP4 LT JUMPDEST ISZERO PUSH2 0x32A9 JUMPI PUSH0 PUSH1 0x17 PUSH0 DUP4 DUP2 MSTORE PUSH1 0x20 ADD SWAP1 DUP2 MSTORE PUSH1 0x20 ADD PUSH0 KECCAK256 SWAP1 POP DUP5 DUP2 PUSH1 0x6 ADD SLOAD LT PUSH2 0x328E JUMPI PUSH0 PUSH0 SWAP1 SLOAD SWAP1 PUSH2 0x100 EXP SWAP1 DIV PUSH20 0xFFFFFFFFFFFFFFFFFFFFFFFFFFFFFFFFFFFFFFFF AND PUSH20 0xFFFFFFFFFFFFFFFFFFFFFFFFFFFFFFFFFFFFFFFF AND PUSH4 0xA9059CBB DUP3 PUSH0 ADD PUSH0 SWAP1 SLOAD SWAP1 PUSH2 0x100 EXP SWAP1 DIV PUSH20 0xFFFFFFFFFFFFFFFFFFFFFFFFFFFFFFFFFFFFFFFF AND DUP9 PUSH1 0x40 MLOAD DUP4 PUSH4 0xFFFFFFFF AND PUSH1 0xE0 SHL DUP2 MSTORE PUSH1 0x4 ADD PUSH2 0x30AD SWAP3 SWAP2 SWAP1 PUSH2 0x4B83 JUMP JUMPDEST PUSH1 0x20 PUSH1 0x40 MLOAD DUP1 DUP4 SUB DUP2 PUSH0 DUP8 GAS CALL ISZERO DUP1 ISZERO PUSH2 0x30C9 JUMPI RETURNDATASIZE PUSH0 PUSH0 RETURNDATACOPY RETURNDATASIZE PUSH0 REVERT JUMPDEST POP POP POP POP PUSH1 0x40 MLOAD RETURNDATASIZE PUSH1 0x1F NOT PUSH1 0x1F DUP3 ADD AND DUP3 ADD DUP1 PUSH1 0x40 MSTORE POP DUP2 ADD SWAP1 PUSH2 0x30ED SWAP2 SWAP1 PUSH2 0x450F JUMP JUMPDEST POP PUSH0 PUSH1 0x18 PUSH0 DUP5 DUP2 MSTORE PUSH1 0x20 ADD SWAP1 DUP2 MSTORE PUSH1 0x20 ADD PUSH0 KECCAK256 SWAP1 POP DUP7 DUP2 PUSH0 ADD PUSH0 DUP3 DUP3 SLOAD PUSH2 0x3114 SWAP2 SWAP1 PUSH2 0x4567 JUMP JUMPDEST SWAP3 POP POP DUP2 SWAP1 SSTORE POP DUP7 DUP2 PUSH1 0x2 ADD PUSH0 DUP3 DUP3 SLOAD PUSH2 0x312E SWAP2 SWAP1 PUSH2 0x4567 JUMP JUMPDEST SWAP3 POP POP DUP2 SWAP1 SSTORE POP PUSH1 0x19 PUSH0 DUP5 DUP2 MSTORE PUSH1 0x20 ADD SWAP1 DUP2 MSTORE PUSH1 0x20 ADD PUSH0 KECCAK256 PUSH1 0x40 MLOAD DUP1 PUSH1 0xA0 ADD PUSH1 0x40 MSTORE DUP1 DUP11 DUP2 MSTORE PUSH1 0x20 ADD DUP10 DUP2 MSTORE PUSH1 0x20 ADD DUP9 DUP2 MSTORE PUSH1 0x20 ADD TIMESTAMP DUP2 MSTORE PUSH1 0x20 ADD PUSH1 0x2 DUP2 MSTORE POP SWAP1 DUP1 PUSH1 0x1 DUP2 SLOAD ADD DUP1 DUP3 SSTORE DUP1 SWAP2 POP POP PUSH1 0x1 SWAP1 SUB SWAP1 PUSH0 MSTORE PUSH1 0x20 PUSH0 KECCAK256 SWAP1 PUSH1 0x5 MUL ADD PUSH0 SWAP1 SWAP2 SWAP1 SWAP2 SWAP1 SWAP2 POP PUSH0 DUP3 ADD MLOAD DUP2 PUSH0 ADD SSTORE PUSH1 0x20 DUP3 ADD MLOAD DUP2 PUSH1 0x1 ADD SSTORE PUSH1 0x40 DUP3 ADD MLOAD DUP2 PUSH1 0x2 ADD SSTORE PUSH1 0x60 DUP3 ADD MLOAD DUP2 PUSH1 0x3 ADD SSTORE PUSH1 0x80 DUP3 ADD MLOAD DUP2 PUSH1 0x4 ADD SSTORE POP POP PUSH1 0x17 PUSH0 DUP10 DUP2 MSTORE PUSH1 0x20 ADD SWAP1 DUP2 MSTORE PUSH1 0x20 ADD PUSH0 KECCAK256 PUSH0 ADD PUSH0 SWAP1 SLOAD SWAP1 PUSH2 0x100 EXP SWAP1 DIV PUSH20 0xFFFFFFFFFFFFFFFFFFFFFFFFFFFFFFFFFFFFFFFF AND PUSH20 0xFFFFFFFFFFFFFFFFFFFFFFFFFFFFFFFFFFFFFFFF AND DUP3 PUSH0 ADD PUSH0 SWAP1 SLOAD SWAP1 PUSH2 0x100 EXP SWAP1 DIV PUSH20 0xFFFFFFFFFFFFFFFFFFFFFFFFFFFFFFFFFFFFFFFF AND PUSH20 0xFFFFFFFFFFFFFFFFFFFFFFFFFFFFFFFFFFFFFFFF AND PUSH32 0xE17B61D324CE17328F433D0AB62581C0F0AA997312BAE80FBDFCD2AA9B91D6E3 DUP10 DUP10 PUSH1 0x2 PUSH1 0x40 MLOAD PUSH2 0x327C SWAP4 SWAP3 SWAP2 SWAP1 PUSH2 0x4F08 JUMP JUMPDEST PUSH1 0x40 MLOAD DUP1 SWAP2 SUB SWAP1 LOG3 POP POP POP POP POP PUSH2 0x32B6 JUMP JUMPDEST DUP1 PUSH1 0x5 ADD SLOAD SWAP2 POP DUP4 DUP1 PUSH2 0x32A0 SWAP1 PUSH2 0x4E88 JUMP JUMPDEST SWAP5 POP POP POP PUSH2 0x2FEE JUMP JUMPDEST PUSH2 0x32B2 DUP6 PUSH2 0x2A96 JUMP JUMPDEST POP POP POP JUMPDEST POP POP POP POP JUMP JUMPDEST PUSH0 DUP6 EQ DUP1 PUSH2 0x32CB JUMPI POP PUSH1 0x5 SLOAD DUP6 EQ JUMPDEST ISZERO PUSH2 0x32DE JUMPI PUSH2 0x32D9 DUP4 PUSH2 0x2A96 JUMP JUMPDEST PUSH2 0x341B JUMP JUMPDEST PUSH0 DUP2 SWAP1 POP PUSH0 DUP2 SUB PUSH2 0x32F8 JUMPI PUSH2 0x32F2 DUP5 PUSH2 0x2A96 JUMP JUMPDEST POP PUSH2 0x341B JUMP JUMPDEST PUSH0 DUP2 DUP6 PUSH2 0x3305 SWAP2 SWAP1 PUSH2 0x4670 JUMP JUMPDEST SWAP1 POP PUSH0 DUP3 DUP3 PUSH2 0x3314 SWAP2 SWAP1 PUSH2 0x4708 JUMP JUMPDEST DUP7 PUSH2 0x331F SWAP2 SWAP1 PUSH2 0x4610 JUMP JUMPDEST SWAP1 POP PUSH0 PUSH1 0x1 SWAP1 POP PUSH0 DUP10 SWAP1 POP PUSH0 PUSH0 SWAP1 POP JUMPDEST DUP6 DUP2 LT ISZERO PUSH2 0x3402 JUMPI PUSH0 DUP3 EQ ISZERO DUP1 ISZERO PUSH2 0x3349 JUMPI POP PUSH1 0x5 SLOAD DUP3 EQ ISZERO JUMPDEST ISZERO PUSH2 0x33D7 JUMPI DUP8 PUSH1 0x17 PUSH0 DUP5 DUP2 MSTORE PUSH1 0x20 ADD SWAP1 DUP2 MSTORE PUSH1 0x20 ADD PUSH0 KECCAK256 PUSH1 0x6 ADD SLOAD LT PUSH2 0x33B0 JUMPI PUSH0 PUSH0 SWAP1 POP JUMPDEST DUP4 DUP2 LT ISZERO PUSH2 0x338F JUMPI PUSH2 0x3382 DUP4 DUP13 DUP9 DUP13 PUSH2 0x3828 JUMP JUMPDEST DUP1 DUP1 PUSH1 0x1 ADD SWAP2 POP POP PUSH2 0x336E JUMP JUMPDEST POP PUSH1 0x17 PUSH0 DUP4 DUP2 MSTORE PUSH1 0x20 ADD SWAP1 DUP2 MSTORE PUSH1 0x20 ADD PUSH0 KECCAK256 PUSH1 0x5 ADD SLOAD SWAP2 POP PUSH1 0x1 SWAP3 POP PUSH2 0x33D6 JUMP JUMPDEST PUSH1 0x17 PUSH0 DUP4 DUP2 MSTORE PUSH1 0x20 ADD SWAP1 DUP2 MSTORE PUSH1 0x20 ADD PUSH0 KECCAK256 PUSH1 0x5 ADD SLOAD SWAP2 POP DUP3 DUP1 PUSH2 0x33D2 SWAP1 PUSH2 0x4E88 JUMP JUMPDEST SWAP4 POP POP JUMPDEST JUMPDEST PUSH0 DUP3 EQ DUP1 PUSH2 0x33E6 JUMPI POP PUSH1 0x5 SLOAD DUP3 EQ JUMPDEST ISZERO PUSH2 0x33F5 JUMPI PUSH2 0x33F4 DUP6 PUSH2 0x2A96 JUMP JUMPDEST JUMPDEST DUP1 DUP1 PUSH1 0x1 ADD SWAP2 POP POP PUSH2 0x332F JUMP JUMPDEST POP PUSH0 DUP4 GT ISZERO PUSH2 0x3415 JUMPI PUSH2 0x3414 DUP4 PUSH2 0x2A96 JUMP JUMPDEST JUMPDEST POP POP POP POP POP JUMPDEST POP POP POP POP POP JUMP JUMPDEST PUSH0 PUSH0 PUSH1 0x2 PUSH1 0x1B PUSH0 DUP6 DUP2 MSTORE PUSH1 0x20 ADD SWAP1 DUP2 MSTORE PUSH1 0x20 ADD PUSH0 KECCAK256 SLOAD LT ISZERO PUSH2 0x3487 JUMPI DUP3 PUSH1 0x17 PUSH0 DUP7 DUP2 MSTORE PUSH1 0x20 ADD SWAP1 DUP2 MSTORE PUSH1 0x20 ADD PUSH0 KECCAK256 PUSH1 0x5 ADD DUP2 SWAP1 SSTORE POP PUSH1 0x1 PUSH1 0x1B PUSH0 DUP6 DUP2 MSTORE PUSH1 0x20 ADD SWAP1 DUP2 MSTORE PUSH1 0x20 ADD PUSH0 KECCAK256 PUSH0 DUP3 DUP3 SLOAD PUSH2 0x3478 SWAP2 SWAP1 PUSH2 0x4567 JUMP JUMPDEST SWAP3 POP POP DUP2 SWAP1 SSTORE POP DUP3 SWAP1 POP PUSH2 0x35DE JUMP JUMPDEST PUSH0 PUSH0 SWAP1 POP JUMPDEST PUSH1 0xF DUP2 LT ISZERO PUSH2 0x35DC JUMPI DUP3 PUSH2 0x35DC JUMPI PUSH1 0x2 DUP2 PUSH2 0x34A7 SWAP2 SWAP1 PUSH2 0x4567 JUMP JUMPDEST PUSH1 0x2 PUSH2 0x34B3 SWAP2 SWAP1 PUSH2 0x506C JUMP JUMPDEST PUSH1 0x1A PUSH0 DUP7 DUP2 MSTORE PUSH1 0x20 ADD SWAP1 DUP2 MSTORE PUSH1 0x20 ADD PUSH0 KECCAK256 PUSH0 PUSH1 0x1 DUP5 PUSH2 0x34D2 SWAP2 SWAP1 PUSH2 0x4567 JUMP JUMPDEST DUP2 MSTORE PUSH1 0x20 ADD SWAP1 DUP2 MSTORE PUSH1 0x20 ADD PUSH0 KECCAK256 DUP1 SLOAD SWAP1 POP LT ISZERO PUSH2 0x35CF JUMPI PUSH0 PUSH0 SWAP1 POP JUMPDEST PUSH1 0x1A PUSH0 DUP7 DUP2 MSTORE PUSH1 0x20 ADD SWAP1 DUP2 MSTORE PUSH1 0x20 ADD PUSH0 KECCAK256 PUSH0 DUP4 DUP2 MSTORE PUSH1 0x20 ADD SWAP1 DUP2 MSTORE PUSH1 0x20 ADD PUSH0 KECCAK256 DUP1 SLOAD SWAP1 POP DUP2 LT ISZERO PUSH2 0x35CD JUMPI DUP4 PUSH2 0x35CD JUMPI PUSH0 PUSH1 0x1A PUSH0 DUP8 DUP2 MSTORE PUSH1 0x20 ADD SWAP1 DUP2 MSTORE PUSH1 0x20 ADD PUSH0 KECCAK256 PUSH0 DUP5 DUP2 MSTORE PUSH1 0x20 ADD SWAP1 DUP2 MSTORE PUSH1 0x20 ADD PUSH0 KECCAK256 DUP3 DUP2 SLOAD DUP2 LT PUSH2 0x3551 JUMPI PUSH2 0x3550 PUSH2 0x434B JUMP JUMPDEST JUMPDEST SWAP1 PUSH0 MSTORE PUSH1 0x20 PUSH0 KECCAK256 ADD SLOAD SWAP1 POP PUSH1 0x2 PUSH1 0x1B PUSH0 DUP4 DUP2 MSTORE PUSH1 0x20 ADD SWAP1 DUP2 MSTORE PUSH1 0x20 ADD PUSH0 KECCAK256 SLOAD LT ISZERO PUSH2 0x35BF JUMPI DUP1 PUSH1 0x17 PUSH0 DUP10 DUP2 MSTORE PUSH1 0x20 ADD SWAP1 DUP2 MSTORE PUSH1 0x20 ADD PUSH0 KECCAK256 PUSH1 0x5 ADD DUP2 SWAP1 SSTORE POP PUSH1 0x1 PUSH1 0x1B PUSH0 DUP4 DUP2 MSTORE PUSH1 0x20 ADD SWAP1 DUP2 MSTORE PUSH1 0x20 ADD PUSH0 KECCAK256 PUSH0 DUP3 DUP3 SLOAD PUSH2 0x35B0 SWAP2 SWAP1 PUSH2 0x4567 JUMP JUMPDEST SWAP3 POP POP DUP2 SWAP1 SSTORE POP DUP1 SWAP4 POP PUSH1 0x1 SWAP5 POP JUMPDEST POP DUP1 DUP1 PUSH1 0x1 ADD SWAP2 POP POP PUSH2 0x34EE JUMP JUMPDEST POP JUMPDEST DUP1 DUP1 PUSH1 0x1 ADD SWAP2 POP POP PUSH2 0x348C JUMP JUMPDEST POP JUMPDEST PUSH0 PUSH0 SWAP1 POP JUMPDEST PUSH1 0xF DUP2 LT ISZERO PUSH2 0x3687 JUMPI PUSH0 DUP3 SUB ISZERO PUSH2 0x3687 JUMPI PUSH1 0x1 PUSH1 0x17 PUSH0 DUP5 DUP2 MSTORE PUSH1 0x20 ADD SWAP1 DUP2 MSTORE PUSH1 0x20 ADD PUSH0 KECCAK256 PUSH1 0x8 ADD PUSH0 DUP3 DUP3 SLOAD PUSH2 0x3618 SWAP2 SWAP1 PUSH2 0x4567 JUMP JUMPDEST SWAP3 POP POP DUP2 SWAP1 SSTORE POP PUSH1 0x1A PUSH0 DUP4 DUP2 MSTORE PUSH1 0x20 ADD SWAP1 DUP2 MSTORE PUSH1 0x20 ADD PUSH0 KECCAK256 PUSH0 DUP3 DUP2 MSTORE PUSH1 0x20 ADD SWAP1 DUP2 MSTORE PUSH1 0x20 ADD PUSH0 KECCAK256 DUP6 SWAP1 DUP1 PUSH1 0x1 DUP2 SLOAD ADD DUP1 DUP3 SSTORE DUP1 SWAP2 POP POP PUSH1 0x1 SWAP1 SUB SWAP1 PUSH0 MSTORE PUSH1 0x20 PUSH0 KECCAK256 ADD PUSH0 SWAP1 SWAP2 SWAP1 SWAP2 SWAP1 SWAP2 POP SSTORE PUSH1 0x17 PUSH0 DUP4 DUP2 MSTORE PUSH1 0x20 ADD SWAP1 DUP2 MSTORE PUSH1 0x20 ADD PUSH0 KECCAK256 PUSH1 0x5 ADD SLOAD SWAP2 POP DUP1 DUP1 PUSH1 0x1 ADD SWAP2 POP POP PUSH2 0x35E3 JUMP JUMPDEST POP POP POP POP POP JUMP JUMPDEST PUSH0 DUP5 EQ DUP1 PUSH2 0x369D JUMPI POP PUSH1 0x5 SLOAD DUP5 EQ JUMPDEST ISZERO PUSH2 0x36B0 JUMPI PUSH2 0x36AB DUP2 PUSH2 0x2A96 JUMP JUMPDEST PUSH2 0x3822 JUMP JUMPDEST PUSH0 PUSH1 0x3 DUP3 PUSH2 0x36BE SWAP2 SWAP1 PUSH2 0x4670 JUMP JUMPDEST SWAP1 POP PUSH0 PUSH0 SWAP1 POP JUMPDEST PUSH1 0x3 DUP2 LT ISZERO PUSH2 0x381F JUMPI PUSH0 PUSH1 0x11 PUSH0 DUP8 DUP2 MSTORE PUSH1 0x20 ADD SWAP1 DUP2 MSTORE PUSH1 0x20 ADD PUSH0 KECCAK256 PUSH0 DUP9 DUP2 MSTORE PUSH1 0x20 ADD SWAP1 DUP2 MSTORE PUSH1 0x20 ADD PUSH0 KECCAK256 SWAP1 POP PUSH0 DUP2 PUSH1 0x1 ADD SLOAD SWAP1 POP PUSH1 0x27 DUP3 PUSH1 0x4 ADD SLOAD LT ISZERO PUSH2 0x3810 JUMPI PUSH1 0x18 DUP3 PUSH1 0x4 ADD SLOAD LT ISZERO PUSH2 0x373C JUMPI PUSH1 0x1 DUP3 PUSH1 0x4 ADD PUSH0 DUP3 DUP3 SLOAD PUSH2 0x3727 SWAP2 SWAP1 PUSH2 0x4567 JUMP JUMPDEST SWAP3 POP POP DUP2 SWAP1 SSTORE POP PUSH2 0x373B DUP2 DUP8 DUP7 PUSH1 0x1 PUSH2 0x3A76 JUMP JUMPDEST JUMPDEST PUSH1 0x18 DUP3 PUSH1 0x4 ADD SLOAD LT ISZERO DUP1 ISZERO PUSH2 0x3755 JUMPI POP PUSH1 0x24 DUP3 PUSH1 0x4 ADD SLOAD LT JUMPDEST ISZERO PUSH2 0x37AE JUMPI PUSH1 0x1 DUP3 PUSH1 0x4 ADD PUSH0 DUP3 DUP3 SLOAD PUSH2 0x376E SWAP2 SWAP1 PUSH2 0x4567 JUMP JUMPDEST SWAP3 POP POP DUP2 SWAP1 SSTORE POP DUP4 PUSH1 0x10 PUSH0 DUP10 DUP2 MSTORE PUSH1 0x20 ADD SWAP1 DUP2 MSTORE PUSH1 0x20 ADD PUSH0 KECCAK256 PUSH0 DUP4 DUP2 MSTORE PUSH1 0x20 ADD SWAP1 DUP2 MSTORE PUSH1 0x20 ADD PUSH0 KECCAK256 PUSH0 ADD PUSH0 DUP3 DUP3 SLOAD PUSH2 0x37A6 SWAP2 SWAP1 PUSH2 0x4567 JUMP JUMPDEST SWAP3 POP POP DUP2 SWAP1 SSTORE POP JUMPDEST PUSH1 0x24 DUP3 PUSH1 0x4 ADD SLOAD LT PUSH2 0x380F JUMPI PUSH1 0x1 DUP3 PUSH1 0x4 ADD PUSH0 DUP3 DUP3 SLOAD PUSH2 0x37CE SWAP2 SWAP1 PUSH2 0x4567 JUMP JUMPDEST SWAP3 POP POP DUP2 SWAP1 SSTORE POP DUP4 PUSH1 0x10 PUSH0 DUP10 DUP2 MSTORE PUSH1 0x20 ADD SWAP1 DUP2 MSTORE PUSH1 0x20 ADD PUSH0 KECCAK256 PUSH0 DUP4 DUP2 MSTORE PUSH1 0x20 ADD SWAP1 DUP2 MSTORE PUSH1 0x20 ADD PUSH0 KECCAK256 PUSH1 0x1 ADD PUSH0 DUP3 DUP3 SLOAD PUSH2 0x3807 SWAP2 SWAP1 PUSH2 0x4567 JUMP JUMPDEST SWAP3 POP POP DUP2 SWAP1 SSTORE POP JUMPDEST JUMPDEST POP POP DUP1 DUP1 PUSH1 0x1 ADD SWAP2 POP POP PUSH2 0x36C5 JUMP JUMPDEST POP POP JUMPDEST POP POP POP POP JUMP JUMPDEST PUSH0 PUSH1 0x17 PUSH0 DUP7 DUP2 MSTORE PUSH1 0x20 ADD SWAP1 DUP2 MSTORE PUSH1 0x20 ADD PUSH0 KECCAK256 PUSH0 ADD PUSH0 SWAP1 SLOAD SWAP1 PUSH2 0x100 EXP SWAP1 DIV PUSH20 0xFFFFFFFFFFFFFFFFFFFFFFFFFFFFFFFFFFFFFFFF AND SWAP1 POP PUSH0 PUSH0 SWAP1 SLOAD SWAP1 PUSH2 0x100 EXP SWAP1 DIV PUSH20 0xFFFFFFFFFFFFFFFFFFFFFFFFFFFFFFFFFFFFFFFF AND PUSH20 0xFFFFFFFFFFFFFFFFFFFFFFFFFFFFFFFFFFFFFFFF AND PUSH4 0xA9059CBB DUP3 DUP6 PUSH1 0x40 MLOAD DUP4 PUSH4 0xFFFFFFFF AND PUSH1 0xE0 SHL DUP2 MSTORE PUSH1 0x4 ADD PUSH2 0x38B9 SWAP3 SWAP2 SWAP1 PUSH2 0x4B83 JUMP JUMPDEST PUSH1 0x20 PUSH1 0x40 MLOAD DUP1 DUP4 SUB DUP2 PUSH0 DUP8 GAS CALL ISZERO DUP1 ISZERO PUSH2 0x38D5 JUMPI RETURNDATASIZE PUSH0 PUSH0 RETURNDATACOPY RETURNDATASIZE PUSH0 REVERT JUMPDEST POP POP POP POP PUSH1 0x40 MLOAD RETURNDATASIZE PUSH1 0x1F NOT PUSH1 0x1F DUP3 ADD AND DUP3 ADD DUP1 PUSH1 0x40 MSTORE POP DUP2 ADD SWAP1 PUSH2 0x38F9 SWAP2 SWAP1 PUSH2 0x450F JUMP JUMPDEST POP PUSH0 PUSH1 0x18 PUSH0 DUP8 DUP2 MSTORE PUSH1 0x20 ADD SWAP1 DUP2 MSTORE PUSH1 0x20 ADD PUSH0 KECCAK256 SWAP1 POP DUP4 DUP2 PUSH0 ADD PUSH0 DUP3 DUP3 SLOAD PUSH2 0x3920 SWAP2 SWAP1 PUSH2 0x4567 JUMP JUMPDEST SWAP3 POP POP DUP2 SWAP1 SSTORE POP DUP4 DUP2 PUSH1 0x3 ADD PUSH0 DUP3 DUP3 SLOAD PUSH2 0x393A SWAP2 SWAP1 PUSH2 0x4567 JUMP JUMPDEST SWAP3 POP POP DUP2 SWAP1 SSTORE POP PUSH1 0x19 PUSH0 DUP8 DUP2 MSTORE PUSH1 0x20 ADD SWAP1 DUP2 MSTORE PUSH1 0x20 ADD PUSH0 KECCAK256 PUSH1 0x40 MLOAD DUP1 PUSH1 0xA0 ADD PUSH1 0x40 MSTORE DUP1 DUP8 DUP2 MSTORE PUSH1 0x20 ADD DUP7 DUP2 MSTORE PUSH1 0x20 ADD DUP6 DUP2 MSTORE PUSH1 0x20 ADD TIMESTAMP DUP2 MSTORE PUSH1 0x20 ADD PUSH1 0x4 DUP2 MSTORE POP SWAP1 DUP1 PUSH1 0x1 DUP2 SLOAD ADD DUP1 DUP3 SSTORE DUP1 SWAP2 POP POP PUSH1 0x1 SWAP1 SUB SWAP1 PUSH0 MSTORE PUSH1 0x20 PUSH0 KECCAK256 SWAP1 PUSH1 0x5 MUL ADD PUSH0 SWAP1 SWAP2 SWAP1 SWAP2 SWAP1 SWAP2 POP PUSH0 DUP3 ADD MLOAD DUP2 PUSH0 ADD SSTORE PUSH1 0x20 DUP3 ADD MLOAD DUP2 PUSH1 0x1 ADD SSTORE PUSH1 0x40 DUP3 ADD MLOAD DUP2 PUSH1 0x2 ADD SSTORE PUSH1 0x60 DUP3 ADD MLOAD DUP2 PUSH1 0x3 ADD SSTORE PUSH1 0x80 DUP3 ADD MLOAD DUP2 PUSH1 0x4 ADD SSTORE POP POP PUSH1 0x17 PUSH0 DUP7 DUP2 MSTORE PUSH1 0x20 ADD SWAP1 DUP2 MSTORE PUSH1 0x20 ADD PUSH0 KECCAK256 PUSH0 ADD PUSH0 SWAP1 SLOAD SWAP1 PUSH2 0x100 EXP SWAP1 DIV PUSH20 0xFFFFFFFFFFFFFFFFFFFFFFFFFFFFFFFFFFFFFFFF AND PUSH20 0xFFFFFFFFFFFFFFFFFFFFFFFFFFFFFFFFFFFFFFFF AND DUP3 PUSH20 0xFFFFFFFFFFFFFFFFFFFFFFFFFFFFFFFFFFFFFFFF AND PUSH32 0xE17B61D324CE17328F433D0AB62581C0F0AA997312BAE80FBDFCD2AA9B91D6E3 DUP7 DUP7 PUSH1 0x4 PUSH1 0x40 MLOAD PUSH2 0x3A66 SWAP4 SWAP3 SWAP2 SWAP1 PUSH2 0x50EF JUMP JUMPDEST PUSH1 0x40 MLOAD DUP1 SWAP2 SUB SWAP1 LOG3 POP POP POP POP POP POP JUMP JUMPDEST PUSH0 PUSH1 0x18 PUSH0 DUP7 DUP2 MSTORE PUSH1 0x20 ADD SWAP1 DUP2 MSTORE PUSH1 0x20 ADD PUSH0 KECCAK256 SWAP1 POP DUP3 DUP2 PUSH0 ADD PUSH0 DUP3 DUP3 SLOAD PUSH2 0x3A9C SWAP2 SWAP1 PUSH2 0x4567 JUMP JUMPDEST SWAP3 POP POP DUP2 SWAP1 SSTORE POP DUP3 DUP2 PUSH1 0x8 ADD PUSH0 DUP3 DUP3 SLOAD PUSH2 0x3AB6 SWAP2 SWAP1 PUSH2 0x4567 JUMP JUMPDEST SWAP3 POP POP DUP2 SWAP1 SSTORE POP PUSH1 0x19 PUSH0 DUP7 DUP2 MSTORE PUSH1 0x20 ADD SWAP1 DUP2 MSTORE PUSH1 0x20 ADD PUSH0 KECCAK256 PUSH1 0x40 MLOAD DUP1 PUSH1 0xA0 ADD PUSH1 0x40 MSTORE DUP1 DUP7 DUP2 MSTORE PUSH1 0x20 ADD DUP6 DUP2 MSTORE PUSH1 0x20 ADD DUP5 DUP2 MSTORE PUSH1 0x20 ADD TIMESTAMP DUP2 MSTORE PUSH1 0x20 ADD PUSH1 0xA DUP2 MSTORE POP SWAP1 DUP1 PUSH1 0x1 DUP2 SLOAD ADD DUP1 DUP3 SSTORE DUP1 SWAP2 POP POP PUSH1 0x1 SWAP1 SUB SWAP1 PUSH0 MSTORE PUSH1 0x20 PUSH0 KECCAK256 SWAP1 PUSH1 0x5 MUL ADD PUSH0 SWAP1 SWAP2 SWAP1 SWAP2 SWAP1 SWAP2 POP PUSH0 DUP3 ADD MLOAD DUP2 PUSH0 ADD SSTORE PUSH1 0x20 DUP3 ADD MLOAD DUP2 PUSH1 0x1 ADD SSTORE PUSH1 0x40 DUP3 ADD MLOAD DUP2 PUSH1 0x2 ADD SSTORE PUSH1 0x60 DUP3 ADD MLOAD DUP2 PUSH1 0x3 ADD SSTORE PUSH1 0x80 DUP3 ADD MLOAD DUP2 PUSH1 0x4 ADD SSTORE POP POP PUSH0 PUSH1 0x17 PUSH0 DUP8 DUP2 MSTORE PUSH1 0x20 ADD SWAP1 DUP2 MSTORE PUSH1 0x20 ADD PUSH0 KECCAK256 PUSH0 ADD PUSH0 SWAP1 SLOAD SWAP1 PUSH2 0x100 EXP SWAP1 DIV PUSH20 0xFFFFFFFFFFFFFFFFFFFFFFFFFFFFFFFFFFFFFFFF AND SWAP1 POP PUSH0 PUSH1 0x64 PUSH1 0x5F DUP7 PUSH2 0x3B94 SWAP2 SWAP1 PUSH2 0x4708 JUMP JUMPDEST PUSH2 0x3B9E SWAP2 SWAP1 PUSH2 0x4670 JUMP JUMPDEST SWAP1 POP PUSH0 PUSH0 SWAP1 SLOAD SWAP1 PUSH2 0x100 EXP SWAP1 DIV PUSH20 0xFFFFFFFFFFFFFFFFFFFFFFFFFFFFFFFFFFFFFFFF AND PUSH20 0xFFFFFFFFFFFFFFFFFFFFFFFFFFFFFFFFFFFFFFFF AND PUSH4 0xA9059CBB DUP4 DUP4 PUSH1 0x40 MLOAD DUP4 PUSH4 0xFFFFFFFF AND PUSH1 0xE0 SHL DUP2 MSTORE PUSH1 0x4 ADD PUSH2 0x3BFB SWAP3 SWAP2 SWAP1 PUSH2 0x4B83 JUMP JUMPDEST PUSH1 0x20 PUSH1 0x40 MLOAD DUP1 DUP4 SUB DUP2 PUSH0 DUP8 GAS CALL ISZERO DUP1 ISZERO PUSH2 0x3C17 JUMPI RETURNDATASIZE PUSH0 PUSH0 RETURNDATACOPY RETURNDATASIZE PUSH0 REVERT JUMPDEST POP POP POP POP PUSH1 0x40 MLOAD RETURNDATASIZE PUSH1 0x1F NOT PUSH1 0x1F DUP3 ADD AND DUP3 ADD DUP1 PUSH1 0x40 MSTORE POP DUP2 ADD SWAP1 PUSH2 0x3C3B SWAP2 SWAP1 PUSH2 0x450F JUMP JUMPDEST POP PUSH2 0x3C5D PUSH1 0x64 PUSH1 0x5 DUP8 PUSH2 0x3C4E SWAP2 SWAP1 PUSH2 0x4708 JUMP JUMPDEST PUSH2 0x3C58 SWAP2 SWAP1 PUSH2 0x4670 JUMP JUMPDEST PUSH2 0x2A96 JUMP JUMPDEST PUSH1 0x17 PUSH0 DUP8 DUP2 MSTORE PUSH1 0x20 ADD SWAP1 DUP2 MSTORE PUSH1 0x20 ADD PUSH0 KECCAK256 PUSH0 ADD PUSH0 SWAP1 SLOAD SWAP1 PUSH2 0x100 EXP SWAP1 DIV PUSH20 0xFFFFFFFFFFFFFFFFFFFFFFFFFFFFFFFFFFFFFFFF AND PUSH20 0xFFFFFFFFFFFFFFFFFFFFFFFFFFFFFFFFFFFFFFFF AND DUP3 PUSH20 0xFFFFFFFFFFFFFFFFFFFFFFFFFFFFFFFFFFFFFFFF AND PUSH32 0xE17B61D324CE17328F433D0AB62581C0F0AA997312BAE80FBDFCD2AA9B91D6E3 DUP8 DUP8 PUSH1 0xA PUSH1 0x40 MLOAD PUSH2 0x3CF1 SWAP4 SWAP3 SWAP2 SWAP1 PUSH2 0x515D JUMP JUMPDEST PUSH1 0x40 MLOAD DUP1 SWAP2 SUB SWAP1 LOG3 POP POP POP POP POP POP POP JUMP JUMPDEST PUSH0 DUP2 SWAP1 POP SWAP2 SWAP1 POP JUMP JUMPDEST PUSH2 0x3D14 DUP2 PUSH2 0x3D02 JUMP JUMPDEST DUP3 MSTORE POP POP JUMP JUMPDEST PUSH0 PUSH1 0x20 DUP3 ADD SWAP1 POP PUSH2 0x3D2D PUSH0 DUP4 ADD DUP5 PUSH2 0x3D0B JUMP JUMPDEST SWAP3 SWAP2 POP POP JUMP JUMPDEST PUSH0 PUSH0 REVERT JUMPDEST PUSH2 0x3D40 DUP2 PUSH2 0x3D02 JUMP JUMPDEST DUP2 EQ PUSH2 0x3D4A JUMPI PUSH0 PUSH0 REVERT JUMPDEST POP JUMP JUMPDEST PUSH0 DUP2 CALLDATALOAD SWAP1 POP PUSH2 0x3D5B DUP2 PUSH2 0x3D37 JUMP JUMPDEST SWAP3 SWAP2 POP POP JUMP JUMPDEST PUSH0 PUSH0 PUSH1 0x40 DUP4 DUP6 SUB SLT ISZERO PUSH2 0x3D77 JUMPI PUSH2 0x3D76 PUSH2 0x3D33 JUMP JUMPDEST JUMPDEST PUSH0 PUSH2 0x3D84 DUP6 DUP3 DUP7 ADD PUSH2 0x3D4D JUMP JUMPDEST SWAP3 POP POP PUSH1 0x20 PUSH2 0x3D95 DUP6 DUP3 DUP7 ADD PUSH2 0x3D4D JUMP JUMPDEST SWAP2 POP POP SWAP3 POP SWAP3 SWAP1 POP JUMP JUMPDEST PUSH0 PUSH4 0xFFFFFFFF DUP3 AND SWAP1 POP SWAP2 SWAP1 POP JUMP JUMPDEST PUSH2 0x3DB7 DUP2 PUSH2 0x3D9F JUMP JUMPDEST DUP2 EQ PUSH2 0x3DC1 JUMPI PUSH0 PUSH0 REVERT JUMPDEST POP JUMP JUMPDEST PUSH0 DUP2 CALLDATALOAD SWAP1 POP PUSH2 0x3DD2 DUP2 PUSH2 0x3DAE JUMP JUMPDEST SWAP3 SWAP2 POP POP JUMP JUMPDEST PUSH0 PUSH1 0x20 DUP3 DUP5 SUB SLT ISZERO PUSH2 0x3DED JUMPI PUSH2 0x3DEC PUSH2 0x3D33 JUMP JUMPDEST JUMPDEST PUSH0 PUSH2 0x3DFA DUP5 DUP3 DUP6 ADD PUSH2 0x3DC4 JUMP JUMPDEST SWAP2 POP POP SWAP3 SWAP2 POP POP JUMP JUMPDEST PUSH0 PUSH1 0x20 DUP3 DUP5 SUB SLT ISZERO PUSH2 0x3E18 JUMPI PUSH2 0x3E17 PUSH2 0x3D33 JUMP JUMPDEST JUMPDEST PUSH0 PUSH2 0x3E25 DUP5 DUP3 DUP6 ADD PUSH2 0x3D4D JUMP JUMPDEST SWAP2 POP POP SWAP3 SWAP2 POP POP JUMP JUMPDEST PUSH0 PUSH1 0x40 DUP3 ADD SWAP1 POP PUSH2 0x3E41 PUSH0 DUP4 ADD DUP6 PUSH2 0x3D0B JUMP JUMPDEST PUSH2 0x3E4E PUSH1 0x20 DUP4 ADD DUP5 PUSH2 0x3D0B JUMP JUMPDEST SWAP4 SWAP3 POP POP POP JUMP JUMPDEST PUSH0 PUSH20 0xFFFFFFFFFFFFFFFFFFFFFFFFFFFFFFFFFFFFFFFF DUP3 AND SWAP1 POP SWAP2 SWAP1 POP JUMP JUMPDEST PUSH0 DUP2 SWAP1 POP SWAP2 SWAP1 POP JUMP JUMPDEST PUSH0 PUSH2 0x3E97 PUSH2 0x3E92 PUSH2 0x3E8D DUP5 PUSH2 0x3E55 JUMP JUMPDEST PUSH2 0x3E74 JUMP JUMPDEST PUSH2 0x3E55 JUMP JUMPDEST SWAP1 POP SWAP2 SWAP1 POP JUMP JUMPDEST PUSH0 PUSH2 0x3EA8 DUP3 PUSH2 0x3E7D JUMP JUMPDEST SWAP1 POP SWAP2 SWAP1 POP JUMP JUMPDEST PUSH0 PUSH2 0x3EB9 DUP3 PUSH2 0x3E9E JUMP JUMPDEST SWAP1 POP SWAP2 SWAP1 POP JUMP JUMPDEST PUSH2 0x3EC9 DUP2 PUSH2 0x3EAF JUMP JUMPDEST DUP3 MSTORE POP POP JUMP JUMPDEST PUSH0 PUSH1 0x20 DUP3 ADD SWAP1 POP PUSH2 0x3EE2 PUSH0 DUP4 ADD DUP5 PUSH2 0x3EC0 JUMP JUMPDEST SWAP3 SWAP2 POP POP JUMP JUMPDEST PUSH0 PUSH2 0x3EF2 DUP3 PUSH2 0x3E55 JUMP JUMPDEST SWAP1 POP SWAP2 SWAP1 POP JUMP JUMPDEST PUSH2 0x3F02 DUP2 PUSH2 0x3EE8 JUMP JUMPDEST DUP3 MSTORE POP POP JUMP JUMPDEST PUSH0 PUSH2 0x180 DUP3 ADD SWAP1 POP PUSH2 0x3F1C PUSH0 DUP4 ADD DUP16 PUSH2 0x3EF9 JUMP JUMPDEST PUSH2 0x3F29 PUSH1 0x20 DUP4 ADD DUP15 PUSH2 0x3D0B JUMP JUMPDEST PUSH2 0x3F36 PUSH1 0x40 DUP4 ADD DUP14 PUSH2 0x3D0B JUMP JUMPDEST PUSH2 0x3F43 PUSH1 0x60 DUP4 ADD DUP13 PUSH2 0x3D0B JUMP JUMPDEST PUSH2 0x3F50 PUSH1 0x80 DUP4 ADD DUP12 PUSH2 0x3D0B JUMP JUMPDEST PUSH2 0x3F5D PUSH1 0xA0 DUP4 ADD DUP11 PUSH2 0x3D0B JUMP JUMPDEST PUSH2 0x3F6A PUSH1 0xC0 DUP4 ADD DUP10 PUSH2 0x3D0B JUMP JUMPDEST PUSH2 0x3F77 PUSH1 0xE0 DUP4 ADD DUP9 PUSH2 0x3D0B JUMP JUMPDEST PUSH2 0x3F85 PUSH2 0x100 DUP4 ADD DUP8 PUSH2 0x3D0B JUMP JUMPDEST PUSH2 0x3F93 PUSH2 0x120 DUP4 ADD DUP7 PUSH2 0x3D0B JUMP JUMPDEST PUSH2 0x3FA1 PUSH2 0x140 DUP4 ADD DUP6 PUSH2 0x3D0B JUMP JUMPDEST PUSH2 0x3FAF PUSH2 0x160 DUP4 ADD DUP5 PUSH2 0x3D0B JUMP JUMPDEST SWAP14 SWAP13 POP POP POP POP POP POP POP POP POP POP POP POP POP JUMP JUMPDEST PUSH0 PUSH2 0x120 DUP3 ADD SWAP1 POP PUSH2 0x3FD4 PUSH0 DUP4 ADD DUP13 PUSH2 0x3D0B JUMP JUMPDEST PUSH2 0x3FE1 PUSH1 0x20 DUP4 ADD DUP12 PUSH2 0x3D0B JUMP JUMPDEST PUSH2 0x3FEE PUSH1 0x40 DUP4 ADD DUP11 PUSH2 0x3D0B JUMP JUMPDEST PUSH2 0x3FFB PUSH1 0x60 DUP4 ADD DUP10 PUSH2 0x3D0B JUMP JUMPDEST PUSH2 0x4008 PUSH1 0x80 DUP4 ADD DUP9 PUSH2 0x3D0B JUMP JUMPDEST PUSH2 0x4015 PUSH1 0xA0 DUP4 ADD DUP8 PUSH2 0x3D0B JUMP JUMPDEST PUSH2 0x4022 PUSH1 0xC0 DUP4 ADD DUP7 PUSH2 0x3D0B JUMP JUMPDEST PUSH2 0x402F PUSH1 0xE0 DUP4 ADD DUP6 PUSH2 0x3D0B JUMP JUMPDEST PUSH2 0x403D PUSH2 0x100 DUP4 ADD DUP5 PUSH2 0x3D0B JUMP JUMPDEST SWAP11 SWAP10 POP POP POP POP POP POP POP POP POP POP JUMP JUMPDEST PUSH0 PUSH0 PUSH0 PUSH1 0x60 DUP5 DUP7 SUB SLT ISZERO PUSH2 0x4062 JUMPI PUSH2 0x4061 PUSH2 0x3D33 JUMP JUMPDEST JUMPDEST PUSH0 PUSH2 0x406F DUP7 DUP3 DUP8 ADD PUSH2 0x3D4D JUMP JUMPDEST SWAP4 POP POP PUSH1 0x20 PUSH2 0x4080 DUP7 DUP3 DUP8 ADD PUSH2 0x3D4D JUMP JUMPDEST SWAP3 POP POP PUSH1 0x40 PUSH2 0x4091 DUP7 DUP3 DUP8 ADD PUSH2 0x3D4D JUMP JUMPDEST SWAP2 POP POP SWAP3 POP SWAP3 POP SWAP3 JUMP JUMPDEST PUSH0 DUP2 ISZERO ISZERO SWAP1 POP SWAP2 SWAP1 POP JUMP JUMPDEST PUSH2 0x40AF DUP2 PUSH2 0x409B JUMP JUMPDEST DUP3 MSTORE POP POP JUMP JUMPDEST PUSH0 DUP2 MLOAD SWAP1 POP SWAP2 SWAP1 POP JUMP JUMPDEST PUSH0 DUP3 DUP3 MSTORE PUSH1 0x20 DUP3 ADD SWAP1 POP SWAP3 SWAP2 POP POP JUMP JUMPDEST DUP3 DUP2 DUP4 MCOPY PUSH0 DUP4 DUP4 ADD MSTORE POP POP POP JUMP JUMPDEST PUSH0 PUSH1 0x1F NOT PUSH1 0x1F DUP4 ADD AND SWAP1 POP SWAP2 SWAP1 POP JUMP JUMPDEST PUSH0 PUSH2 0x40F7 DUP3 PUSH2 0x40B5 JUMP JUMPDEST PUSH2 0x4101 DUP2 DUP6 PUSH2 0x40BF JUMP JUMPDEST SWAP4 POP PUSH2 0x4111 DUP2 DUP6 PUSH1 0x20 DUP7 ADD PUSH2 0x40CF JUMP JUMPDEST PUSH2 0x411A DUP2 PUSH2 0x40DD JUMP JUMPDEST DUP5 ADD SWAP2 POP POP SWAP3 SWAP2 POP POP JUMP JUMPDEST PUSH0 PUSH1 0x40 DUP3 ADD SWAP1 POP PUSH2 0x4138 PUSH0 DUP4 ADD DUP6 PUSH2 0x40A6 JUMP JUMPDEST DUP2 DUP2 SUB PUSH1 0x20 DUP4 ADD MSTORE PUSH2 0x414A DUP2 DUP5 PUSH2 0x40ED JUMP JUMPDEST SWAP1 POP SWAP4 SWAP3 POP POP POP JUMP JUMPDEST PUSH0 PUSH1 0xA0 DUP3 ADD SWAP1 POP PUSH2 0x4166 PUSH0 DUP4 ADD DUP9 PUSH2 0x3D0B JUMP JUMPDEST PUSH2 0x4173 PUSH1 0x20 DUP4 ADD DUP8 PUSH2 0x3D0B JUMP JUMPDEST PUSH2 0x4180 PUSH1 0x40 DUP4 ADD DUP7 PUSH2 0x3D0B JUMP JUMPDEST PUSH2 0x418D PUSH1 0x60 DUP4 ADD DUP6 PUSH2 0x3D0B JUMP JUMPDEST PUSH2 0x419A PUSH1 0x80 DUP4 ADD DUP5 PUSH2 0x3D0B JUMP JUMPDEST SWAP7 SWAP6 POP POP POP POP POP POP JUMP JUMPDEST PUSH0 PUSH1 0x20 DUP3 ADD SWAP1 POP PUSH2 0x41B7 PUSH0 DUP4 ADD DUP5 PUSH2 0x3EF9 JUMP JUMPDEST SWAP3 SWAP2 POP POP JUMP JUMPDEST PUSH0 PUSH1 0x20 DUP3 ADD SWAP1 POP PUSH2 0x41D0 PUSH0 DUP4 ADD DUP5 PUSH2 0x40A6 JUMP JUMPDEST SWAP3 SWAP2 POP POP JUMP JUMPDEST PUSH2 0x41DF DUP2 PUSH2 0x3EE8 JUMP JUMPDEST DUP2 EQ PUSH2 0x41E9 JUMPI PUSH0 PUSH0 REVERT JUMPDEST POP JUMP JUMPDEST PUSH0 DUP2 CALLDATALOAD SWAP1 POP PUSH2 0x41FA DUP2 PUSH2 0x41D6 JUMP JUMPDEST SWAP3 SWAP2 POP POP JUMP JUMPDEST PUSH0 PUSH1 0x20 DUP3 DUP5 SUB SLT ISZERO PUSH2 0x4215 JUMPI PUSH2 0x4214 PUSH2 0x3D33 JUMP JUMPDEST JUMPDEST PUSH0 PUSH2 0x4222 DUP5 DUP3 DUP6 ADD PUSH2 0x41EC JUMP JUMPDEST SWAP2 POP POP SWAP3 SWAP2 POP POP JUMP JUMPDEST PUSH0 PUSH0 PUSH0 PUSH1 0x60 DUP5 DUP7 SUB SLT ISZERO PUSH2 0x4242 JUMPI PUSH2 0x4241 PUSH2 0x3D33 JUMP JUMPDEST JUMPDEST PUSH0 PUSH2 0x424F DUP7 DUP3 DUP8 ADD PUSH2 0x3DC4 JUMP JUMPDEST SWAP4 POP POP PUSH1 0x20 PUSH2 0x4260 DUP7 DUP3 DUP8 ADD PUSH2 0x3D4D JUMP JUMPDEST SWAP3 POP POP PUSH1 0x40 PUSH2 0x4271 DUP7 DUP3 DUP8 ADD PUSH2 0x3D4D JUMP JUMPDEST SWAP2 POP POP SWAP3 POP SWAP3 POP SWAP3 JUMP JUMPDEST PUSH32 0x4E6F7420796F7572206163636F756E7400000000000000000000000000000000 PUSH0 DUP3 ADD MSTORE POP JUMP JUMPDEST PUSH0 PUSH2 0x42AF PUSH1 0x10 DUP4 PUSH2 0x40BF JUMP JUMPDEST SWAP2 POP PUSH2 0x42BA DUP3 PUSH2 0x427B JUMP JUMPDEST PUSH1 0x20 DUP3 ADD SWAP1 POP SWAP2 SWAP1 POP JUMP JUMPDEST PUSH0 PUSH1 0x20 DUP3 ADD SWAP1 POP DUP2 DUP2 SUB PUSH0 DUP4 ADD MSTORE PUSH2 0x42DC DUP2 PUSH2 0x42A3 JUMP JUMPDEST SWAP1 POP SWAP2 SWAP1 POP JUMP JUMPDEST PUSH32 0x4174206D6178206C6576656C0000000000000000000000000000000000000000 PUSH0 DUP3 ADD MSTORE POP JUMP JUMPDEST PUSH0 PUSH2 0x4317 PUSH1 0xC DUP4 PUSH2 0x40BF JUMP JUMPDEST SWAP2 POP PUSH2 0x4322 DUP3 PUSH2 0x42E3 JUMP JUMPDEST PUSH1 0x20 DUP3 ADD SWAP1 POP SWAP2 SWAP1 POP JUMP JUMPDEST PUSH0 PUSH1 0x20 DUP3 ADD SWAP1 POP DUP2 DUP2 SUB PUSH0 DUP4 ADD MSTORE PUSH2 0x4344 DUP2 PUSH2 0x430B JUMP JUMPDEST SWAP1 POP SWAP2 SWAP1 POP JUMP JUMPDEST PUSH32 0x4E487B7100000000000000000000000000000000000000000000000000000000 PUSH0 MSTORE PUSH1 0x32 PUSH1 0x4 MSTORE PUSH1 0x24 PUSH0 REVERT JUMPDEST PUSH32 0x5570677261646520796F7572206C6576656C2066697273740000000000000000 PUSH0 DUP3 ADD MSTORE POP JUMP JUMPDEST PUSH0 PUSH2 0x43AC PUSH1 0x18 DUP4 PUSH2 0x40BF JUMP JUMPDEST SWAP2 POP PUSH2 0x43B7 DUP3 PUSH2 0x4378 JUMP JUMPDEST PUSH1 0x20 DUP3 ADD SWAP1 POP SWAP2 SWAP1 POP JUMP JUMPDEST PUSH0 PUSH1 0x20 DUP3 ADD SWAP1 POP DUP2 DUP2 SUB PUSH0 DUP4 ADD MSTORE PUSH2 0x43D9 DUP2 PUSH2 0x43A0 JUMP JUMPDEST SWAP1 POP SWAP2 SWAP1 POP JUMP JUMPDEST PUSH32 0x4275792070726576696F757320706F6F6C206669727374000000000000000000 PUSH0 DUP3 ADD MSTORE POP JUMP JUMPDEST PUSH0 PUSH2 0x4414 PUSH1 0x17 DUP4 PUSH2 0x40BF JUMP JUMPDEST SWAP2 POP PUSH2 0x441F DUP3 PUSH2 0x43E0 JUMP JUMPDEST PUSH1 0x20 DUP3 ADD SWAP1 POP SWAP2 SWAP1 POP JUMP JUMPDEST PUSH0 PUSH1 0x20 DUP3 ADD SWAP1 POP DUP2 DUP2 SUB PUSH0 DUP4 ADD MSTORE PUSH2 0x4441 DUP2 PUSH2 0x4408 JUMP JUMPDEST SWAP1 POP SWAP2 SWAP1 POP JUMP JUMPDEST PUSH32 0x506F6F6C20616C72656164792070757263686173656400000000000000000000 PUSH0 DUP3 ADD MSTORE POP JUMP JUMPDEST PUSH0 PUSH2 0x447C PUSH1 0x16 DUP4 PUSH2 0x40BF JUMP JUMPDEST SWAP2 POP PUSH2 0x4487 DUP3 PUSH2 0x4448 JUMP JUMPDEST PUSH1 0x20 DUP3 ADD SWAP1 POP SWAP2 SWAP1 POP JUMP JUMPDEST PUSH0 PUSH1 0x20 DUP3 ADD SWAP1 POP DUP2 DUP2 SUB PUSH0 DUP4 ADD MSTORE PUSH2 0x44A9 DUP2 PUSH2 0x4470 JUMP JUMPDEST SWAP1 POP SWAP2 SWAP1 POP JUMP JUMPDEST PUSH0 PUSH1 0x60 DUP3 ADD SWAP1 POP PUSH2 0x44C3 PUSH0 DUP4 ADD DUP7 PUSH2 0x3EF9 JUMP JUMPDEST PUSH2 0x44D0 PUSH1 0x20 DUP4 ADD DUP6 PUSH2 0x3EF9 JUMP JUMPDEST PUSH2 0x44DD PUSH1 0x40 DUP4 ADD DUP5 PUSH2 0x3D0B JUMP JUMPDEST SWAP5 SWAP4 POP POP POP POP JUMP JUMPDEST PUSH2 0x44EE DUP2 PUSH2 0x409B JUMP JUMPDEST DUP2 EQ PUSH2 0x44F8 JUMPI PUSH0 PUSH0 REVERT JUMPDEST POP JUMP JUMPDEST PUSH0 DUP2 MLOAD SWAP1 POP PUSH2 0x4509 DUP2 PUSH2 0x44E5 JUMP JUMPDEST SWAP3 SWAP2 POP POP JUMP JUMPDEST PUSH0 PUSH1 0x20 DUP3 DUP5 SUB SLT ISZERO PUSH2 0x4524 JUMPI PUSH2 0x4523 PUSH2 0x3D33 JUMP JUMPDEST JUMPDEST PUSH0 PUSH2 0x4531 DUP5 DUP3 DUP6 ADD PUSH2 0x44FB JUMP JUMPDEST SWAP2 POP POP SWAP3 SWAP2 POP POP JUMP JUMPDEST PUSH32 0x4E487B7100000000000000000000000000000000000000000000000000000000 PUSH0 MSTORE PUSH1 0x11 PUSH1 0x4 MSTORE PUSH1 0x24 PUSH0 REVERT JUMPDEST PUSH0 PUSH2 0x4571 DUP3 PUSH2 0x3D02 JUMP JUMPDEST SWAP2 POP PUSH2 0x457C DUP4 PUSH2 0x3D02 JUMP JUMPDEST SWAP3 POP DUP3 DUP3 ADD SWAP1 POP DUP1 DUP3 GT ISZERO PUSH2 0x4594 JUMPI PUSH2 0x4593 PUSH2 0x453A JUMP JUMPDEST JUMPDEST SWAP3 SWAP2 POP POP JUMP JUMPDEST PUSH32 0x506F6F6C00000000000000000000000000000000000000000000000000000000 PUSH0 DUP3 ADD MSTORE POP JUMP JUMPDEST PUSH0 PUSH2 0x45CE PUSH1 0x4 DUP4 PUSH2 0x40BF JUMP JUMPDEST SWAP2 POP PUSH2 0x45D9 DUP3 PUSH2 0x459A JUMP JUMPDEST PUSH1 0x20 DUP3 ADD SWAP1 POP SWAP2 SWAP1 POP JUMP JUMPDEST PUSH0 PUSH1 0x40 DUP3 ADD SWAP1 POP PUSH2 0x45F7 PUSH0 DUP4 ADD DUP5 PUSH2 0x3D0B JUMP JUMPDEST DUP2 DUP2 SUB PUSH1 0x20 DUP4 ADD MSTORE PUSH2 0x4608 DUP2 PUSH2 0x45C2 JUMP JUMPDEST SWAP1 POP SWAP3 SWAP2 POP POP JUMP JUMPDEST PUSH0 PUSH2 0x461A DUP3 PUSH2 0x3D02 JUMP JUMPDEST SWAP2 POP PUSH2 0x4625 DUP4 PUSH2 0x3D02 JUMP JUMPDEST SWAP3 POP DUP3 DUP3 SUB SWAP1 POP DUP2 DUP2 GT ISZERO PUSH2 0x463D JUMPI PUSH2 0x463C PUSH2 0x453A JUMP JUMPDEST JUMPDEST SWAP3 SWAP2 POP POP JUMP JUMPDEST PUSH32 0x4E487B7100000000000000000000000000000000000000000000000000000000 PUSH0 MSTORE PUSH1 0x12 PUSH1 0x4 MSTORE PUSH1 0x24 PUSH0 REVERT JUMPDEST PUSH0 PUSH2 0x467A DUP3 PUSH2 0x3D02 JUMP JUMPDEST SWAP2 POP PUSH2 0x4685 DUP4 PUSH2 0x3D02 JUMP JUMPDEST SWAP3 POP DUP3 PUSH2 0x4695 JUMPI PUSH2 0x4694 PUSH2 0x4643 JUMP JUMPDEST JUMPDEST DUP3 DUP3 DIV SWAP1 POP SWAP3 SWAP2 POP POP JUMP JUMPDEST PUSH32 0x416C7265616479206174206D6178206C6576656C000000000000000000000000 PUSH0 DUP3 ADD MSTORE POP JUMP JUMPDEST PUSH0 PUSH2 0x46D4 PUSH1 0x14 DUP4 PUSH2 0x40BF JUMP JUMPDEST SWAP2 POP PUSH2 0x46DF DUP3 PUSH2 0x46A0 JUMP JUMPDEST PUSH1 0x20 DUP3 ADD SWAP1 POP SWAP2 SWAP1 POP JUMP JUMPDEST PUSH0 PUSH1 0x20 DUP3 ADD SWAP1 POP DUP2 DUP2 SUB PUSH0 DUP4 ADD MSTORE PUSH2 0x4701 DUP2 PUSH2 0x46C8 JUMP JUMPDEST SWAP1 POP SWAP2 SWAP1 POP JUMP JUMPDEST PUSH0 PUSH2 0x4712 DUP3 PUSH2 0x3D02 JUMP JUMPDEST SWAP2 POP PUSH2 0x471D DUP4 PUSH2 0x3D02 JUMP JUMPDEST SWAP3 POP DUP3 DUP3 MUL PUSH2 0x472B DUP2 PUSH2 0x3D02 JUMP JUMPDEST SWAP2 POP DUP3 DUP3 DIV DUP5 EQ DUP4 ISZERO OR PUSH2 0x4742 JUMPI PUSH2 0x4741 PUSH2 0x453A JUMP JUMPDEST JUMPDEST POP SWAP3 SWAP2 POP POP JUMP JUMPDEST PUSH32 0x536C6F7400000000000000000000000000000000000000000000000000000000 PUSH0 DUP3 ADD MSTORE POP JUMP JUMPDEST PUSH0 PUSH2 0x477D PUSH1 0x4 DUP4 PUSH2 0x40BF JUMP JUMPDEST SWAP2 POP PUSH2 0x4788 DUP3 PUSH2 0x4749 JUMP JUMPDEST PUSH1 0x20 DUP3 ADD SWAP1 POP SWAP2 SWAP1 POP JUMP JUMPDEST PUSH0 PUSH1 0x40 DUP3 ADD SWAP1 POP PUSH2 0x47A6 PUSH0 DUP4 ADD DUP5 PUSH2 0x3D0B JUMP JUMPDEST DUP2 DUP2 SUB PUSH1 0x20 DUP4 ADD MSTORE PUSH2 0x47B7 DUP2 PUSH2 0x4771 JUMP JUMPDEST SWAP1 POP SWAP3 SWAP2 POP POP JUMP JUMPDEST PUSH32 0x4174206D617820706F6F6C000000000000000000000000000000000000000000 PUSH0 DUP3 ADD MSTORE POP JUMP JUMPDEST PUSH0 PUSH2 0x47F3 PUSH1 0xB DUP4 PUSH2 0x40BF JUMP JUMPDEST SWAP2 POP PUSH2 0x47FE DUP3 PUSH2 0x47BF JUMP JUMPDEST PUSH1 0x20 DUP3 ADD SWAP1 POP SWAP2 SWAP1 POP JUMP JUMPDEST PUSH0 PUSH1 0x20 DUP3 ADD SWAP1 POP DUP2 DUP2 SUB PUSH0 DUP4 ADD MSTORE PUSH2 0x4820 DUP2 PUSH2 0x47E7 JUMP JUMPDEST SWAP1 POP SWAP2 SWAP1 POP JUMP JUMPDEST PUSH32 0x496E76616C696420757067726164652074797065000000000000000000000000 PUSH0 DUP3 ADD MSTORE POP JUMP JUMPDEST PUSH0 PUSH2 0x485B PUSH1 0x14 DUP4 PUSH2 0x40BF JUMP JUMPDEST SWAP2 POP PUSH2 0x4866 DUP3 PUSH2 0x4827 JUMP JUMPDEST PUSH1 0x20 DUP3 ADD SWAP1 POP SWAP2 SWAP1 POP JUMP JUMPDEST PUSH0 PUSH1 0x20 DUP3 ADD SWAP1 POP DUP2 DUP2 SUB PUSH0 DUP4 ADD MSTORE PUSH2 0x4888 DUP2 PUSH2 0x484F JUMP JUMPDEST SWAP1 POP SWAP2 SWAP1 POP JUMP JUMPDEST PUSH32 0x4E6F7420656E6F756768207265546F7075702062616C616E6365000000000000 PUSH0 DUP3 ADD MSTORE POP JUMP JUMPDEST PUSH0 PUSH2 0x48C3 PUSH1 0x1A DUP4 PUSH2 0x40BF JUMP JUMPDEST SWAP2 POP PUSH2 0x48CE DUP3 PUSH2 0x488F JUMP JUMPDEST PUSH1 0x20 DUP3 ADD SWAP1 POP SWAP2 SWAP1 POP JUMP JUMPDEST PUSH0 PUSH1 0x20 DUP3 ADD SWAP1 POP DUP2 DUP2 SUB PUSH0 DUP4 ADD MSTORE PUSH2 0x48F0 DUP2 PUSH2 0x48B7 JUMP JUMPDEST SWAP1 POP SWAP2 SWAP1 POP JUMP JUMPDEST PUSH32 0x506F6F6C205265546F70757020284561726E696E672900000000000000000000 PUSH0 DUP3 ADD MSTORE POP JUMP JUMPDEST PUSH0 PUSH2 0x492B PUSH1 0x16 DUP4 PUSH2 0x40BF JUMP JUMPDEST SWAP2 POP PUSH2 0x4936 DUP3 PUSH2 0x48F7 JUMP JUMPDEST PUSH1 0x20 DUP3 ADD SWAP1 POP SWAP2 SWAP1 POP JUMP JUMPDEST PUSH0 PUSH1 0x40 DUP3 ADD SWAP1 POP PUSH2 0x4954 PUSH0 DUP4 ADD DUP5 PUSH2 0x3D0B JUMP JUMPDEST DUP2 DUP2 SUB PUSH1 0x20 DUP4 ADD MSTORE PUSH2 0x4965 DUP2 PUSH2 0x491F JUMP JUMPDEST SWAP1 POP SWAP3 SWAP2 POP POP JUMP JUMPDEST PUSH32 0x4E6F2068696768657220706F6F6C000000000000000000000000000000000000 PUSH0 DUP3 ADD MSTORE POP JUMP JUMPDEST PUSH0 PUSH2 0x49A1 PUSH1 0xE DUP4 PUSH2 0x40BF JUMP JUMPDEST SWAP2 POP PUSH2 0x49AC DUP3 PUSH2 0x496D JUMP JUMPDEST PUSH1 0x20 DUP3 ADD SWAP1 POP SWAP2 SWAP1 POP JUMP JUMPDEST PUSH0 PUSH1 0x20 DUP3 ADD SWAP1 POP DUP2 DUP2 SUB PUSH0 DUP4 ADD MSTORE PUSH2 0x49CE DUP2 PUSH2 0x4995 JUMP JUMPDEST SWAP1 POP SWAP2 SWAP1 POP JUMP JUMPDEST PUSH32 0x4E6F7420656E6F756768206E65787420706F6F6C2062616C616E636500000000 PUSH0 DUP3 ADD MSTORE POP JUMP JUMPDEST PUSH0 PUSH2 0x4A09 PUSH1 0x1C DUP4 PUSH2 0x40BF JUMP JUMPDEST SWAP2 POP PUSH2 0x4A14 DUP3 PUSH2 0x49D5 JUMP JUMPDEST PUSH1 0x20 DUP3 ADD SWAP1 POP SWAP2 SWAP1 POP JUMP JUMPDEST PUSH0 PUSH1 0x20 DUP3 ADD SWAP1 POP DUP2 DUP2 SUB PUSH0 DUP4 ADD MSTORE PUSH2 0x4A36 DUP2 PUSH2 0x49FD JUMP JUMPDEST SWAP1 POP SWAP2 SWAP1 POP JUMP JUMPDEST PUSH32 0x416C726561647920707572636861736564206E65787420706F6F6C0000000000 PUSH0 DUP3 ADD MSTORE POP JUMP JUMPDEST PUSH0 PUSH2 0x4A71 PUSH1 0x1B DUP4 PUSH2 0x40BF JUMP JUMPDEST SWAP2 POP PUSH2 0x4A7C DUP3 PUSH2 0x4A3D JUMP JUMPDEST PUSH1 0x20 DUP3 ADD SWAP1 POP SWAP2 SWAP1 POP JUMP JUMPDEST PUSH0 PUSH1 0x20 DUP3 ADD SWAP1 POP DUP2 DUP2 SUB PUSH0 DUP4 ADD MSTORE PUSH2 0x4A9E DUP2 PUSH2 0x4A65 JUMP JUMPDEST SWAP1 POP SWAP2 SWAP1 POP JUMP JUMPDEST PUSH32 0x506F6F6C205570677261646520284561726E696E672900000000000000000000 PUSH0 DUP3 ADD MSTORE POP JUMP JUMPDEST PUSH0 PUSH2 0x4AD9 PUSH1 0x16 DUP4 PUSH2 0x40BF JUMP JUMPDEST SWAP2 POP PUSH2 0x4AE4 DUP3 PUSH2 0x4AA5 JUMP JUMPDEST PUSH1 0x20 DUP3 ADD SWAP1 POP SWAP2 SWAP1 POP JUMP JUMPDEST PUSH0 PUSH1 0x40 DUP3 ADD SWAP1 POP PUSH2 0x4B02 PUSH0 DUP4 ADD DUP5 PUSH2 0x3D0B JUMP JUMPDEST DUP2 DUP2 SUB PUSH1 0x20 DUP4 ADD MSTORE PUSH2 0x4B13 DUP2 PUSH2 0x4ACD JUMP JUMPDEST SWAP1 POP SWAP3 SWAP2 POP POP JUMP JUMPDEST PUSH32 0x55736572206E6F7420666F756E64000000000000000000000000000000000000 PUSH0 DUP3 ADD MSTORE POP JUMP JUMPDEST PUSH0 PUSH2 0x4B4F PUSH1 0xE DUP4 PUSH2 0x40BF JUMP JUMPDEST SWAP2 POP PUSH2 0x4B5A DUP3 PUSH2 0x4B1B JUMP JUMPDEST PUSH1 0x20 DUP3 ADD SWAP1 POP SWAP2 SWAP1 POP JUMP JUMPDEST PUSH0 PUSH1 0x20 DUP3 ADD SWAP1 POP DUP2 DUP2 SUB PUSH0 DUP4 ADD MSTORE PUSH2 0x4B7C DUP2 PUSH2 0x4B43 JUMP JUMPDEST SWAP1 POP SWAP2 SWAP1 POP JUMP JUMPDEST PUSH0 PUSH1 0x40 DUP3 ADD SWAP1 POP PUSH2 0x4B96 PUSH0 DUP4 ADD DUP6 PUSH2 0x3EF9 JUMP JUMPDEST PUSH2 0x4BA3 PUSH1 0x20 DUP4 ADD DUP5 PUSH2 0x3D0B JUMP JUMPDEST SWAP4 SWAP3 POP POP POP JUMP JUMPDEST PUSH32 0x55534454207472616E73666572206661696C6564000000000000000000000000 PUSH0 DUP3 ADD MSTORE POP JUMP JUMPDEST PUSH0 PUSH2 0x4BDE PUSH1 0x14 DUP4 PUSH2 0x40BF JUMP JUMPDEST SWAP2 POP PUSH2 0x4BE9 DUP3 PUSH2 0x4BAA JUMP JUMPDEST PUSH1 0x20 DUP3 ADD SWAP1 POP SWAP2 SWAP1 POP JUMP JUMPDEST PUSH0 PUSH1 0x20 DUP3 ADD SWAP1 POP DUP2 DUP2 SUB PUSH0 DUP4 ADD MSTORE PUSH2 0x4C0B DUP2 PUSH2 0x4BD2 JUMP JUMPDEST SWAP1 POP SWAP2 SWAP1 POP JUMP JUMPDEST PUSH32 0x416C726561647920726567697374657265640000000000000000000000000000 PUSH0 DUP3 ADD MSTORE POP JUMP JUMPDEST PUSH0 PUSH2 0x4C46 PUSH1 0x12 DUP4 PUSH2 0x40BF JUMP JUMPDEST SWAP2 POP PUSH2 0x4C51 DUP3 PUSH2 0x4C12 JUMP JUMPDEST PUSH1 0x20 DUP3 ADD SWAP1 POP SWAP2 SWAP1 POP JUMP JUMPDEST PUSH0 PUSH1 0x20 DUP3 ADD SWAP1 POP DUP2 DUP2 SUB PUSH0 DUP4 ADD MSTORE PUSH2 0x4C73 DUP2 PUSH2 0x4C3A JUMP JUMPDEST SWAP1 POP SWAP2 SWAP1 POP JUMP JUMPDEST PUSH32 0x496E76616C69642073706F6E736F720000000000000000000000000000000000 PUSH0 DUP3 ADD MSTORE POP JUMP JUMPDEST PUSH0 PUSH2 0x4CAE PUSH1 0xF DUP4 PUSH2 0x40BF JUMP JUMPDEST SWAP2 POP PUSH2 0x4CB9 DUP3 PUSH2 0x4C7A JUMP JUMPDEST PUSH1 0x20 DUP3 ADD SWAP1 POP SWAP2 SWAP1 POP JUMP JUMPDEST PUSH0 PUSH1 0x20 DUP3 ADD SWAP1 POP DUP2 DUP2 SUB PUSH0 DUP4 ADD MSTORE PUSH2 0x4CDB DUP2 PUSH2 0x4CA2 JUMP JUMPDEST SWAP1 POP SWAP2 SWAP1 POP JUMP JUMPDEST PUSH32 0x496E76616C696400000000000000000000000000000000000000000000000000 PUSH0 DUP3 ADD MSTORE POP JUMP JUMPDEST PUSH0 PUSH2 0x4D16 PUSH1 0x7 DUP4 PUSH2 0x40BF JUMP JUMPDEST SWAP2 POP PUSH2 0x4D21 DUP3 PUSH2 0x4CE2 JUMP JUMPDEST PUSH1 0x20 DUP3 ADD SWAP1 POP SWAP2 SWAP1 POP JUMP JUMPDEST PUSH0 PUSH1 0x20 DUP3 ADD SWAP1 POP DUP2 DUP2 SUB PUSH0 DUP4 ADD MSTORE PUSH2 0x4D43 DUP2 PUSH2 0x4D0A JUMP JUMPDEST SWAP1 POP SWAP2 SWAP1 POP JUMP JUMPDEST PUSH32 0x496E636F727265637420616D6F756E7400000000000000000000000000000000 PUSH0 DUP3 ADD MSTORE POP JUMP JUMPDEST PUSH0 PUSH2 0x4D7E PUSH1 0x10 DUP4 PUSH2 0x40BF JUMP JUMPDEST SWAP2 POP PUSH2 0x4D89 DUP3 PUSH2 0x4D4A JUMP JUMPDEST PUSH1 0x20 DUP3 ADD SWAP1 POP SWAP2 SWAP1 POP JUMP JUMPDEST PUSH0 PUSH1 0x20 DUP3 ADD SWAP1 POP DUP2 DUP2 SUB PUSH0 DUP4 ADD MSTORE PUSH2 0x4DAB DUP2 PUSH2 0x4D72 JUMP JUMPDEST SWAP1 POP SWAP2 SWAP1 POP JUMP JUMPDEST PUSH32 0x666565206164647273206E6F7420736574000000000000000000000000000000 PUSH0 DUP3 ADD MSTORE POP JUMP JUMPDEST PUSH0 PUSH2 0x4DE6 PUSH1 0x11 DUP4 PUSH2 0x40BF JUMP JUMPDEST SWAP2 POP PUSH2 0x4DF1 DUP3 PUSH2 0x4DB2 JUMP JUMPDEST PUSH1 0x20 DUP3 ADD SWAP1 POP SWAP2 SWAP1 POP JUMP JUMPDEST PUSH0 PUSH1 0x20 DUP3 ADD SWAP1 POP DUP2 DUP2 SUB PUSH0 DUP4 ADD MSTORE PUSH2 0x4E13 DUP2 PUSH2 0x4DDA JUMP JUMPDEST SWAP1 POP SWAP2 SWAP1 POP JUMP JUMPDEST PUSH0 DUP2 SWAP1 POP SWAP2 SWAP1 POP JUMP JUMPDEST PUSH0 PUSH2 0x4E3D PUSH2 0x4E38 PUSH2 0x4E33 DUP5 PUSH2 0x4E1A JUMP JUMPDEST PUSH2 0x3E74 JUMP JUMPDEST PUSH2 0x3D02 JUMP JUMPDEST SWAP1 POP SWAP2 SWAP1 POP JUMP JUMPDEST PUSH2 0x4E4D DUP2 PUSH2 0x4E23 JUMP JUMPDEST DUP3 MSTORE POP POP JUMP JUMPDEST PUSH0 PUSH1 0x60 DUP3 ADD SWAP1 POP PUSH2 0x4E66 PUSH0 DUP4 ADD DUP7 PUSH2 0x3D0B JUMP JUMPDEST PUSH2 0x4E73 PUSH1 0x20 DUP4 ADD DUP6 PUSH2 0x3D0B JUMP JUMPDEST PUSH2 0x4E80 PUSH1 0x40 DUP4 ADD DUP5 PUSH2 0x4E44 JUMP JUMPDEST SWAP5 SWAP4 POP POP POP POP JUMP JUMPDEST PUSH0 PUSH2 0x4E92 DUP3 PUSH2 0x3D02 JUMP JUMPDEST SWAP2 POP PUSH32 0xFFFFFFFFFFFFFFFFFFFFFFFFFFFFFFFFFFFFFFFFFFFFFFFFFFFFFFFFFFFFFFFF DUP3 SUB PUSH2 0x4EC4 JUMPI PUSH2 0x4EC3 PUSH2 0x453A JUMP JUMPDEST JUMPDEST PUSH1 0x1 DUP3 ADD SWAP1 POP SWAP2 SWAP1 POP JUMP JUMPDEST PUSH0 DUP2 SWAP1 POP SWAP2 SWAP1 POP JUMP JUMPDEST PUSH0 PUSH2 0x4EF2 PUSH2 0x4EED PUSH2 0x4EE8 DUP5 PUSH2 0x4ECF JUMP JUMPDEST PUSH2 0x3E74 JUMP JUMPDEST PUSH2 0x3D02 JUMP JUMPDEST SWAP1 POP SWAP2 SWAP1 POP JUMP JUMPDEST PUSH2 0x4F02 DUP2 PUSH2 0x4ED8 JUMP JUMPDEST DUP3 MSTORE POP POP JUMP JUMPDEST PUSH0 PUSH1 0x60 DUP3 ADD SWAP1 POP PUSH2 0x4F1B PUSH0 DUP4 ADD DUP7 PUSH2 0x3D0B JUMP JUMPDEST PUSH2 0x4F28 PUSH1 0x20 DUP4 ADD DUP6 PUSH2 0x3D0B JUMP JUMPDEST PUSH2 0x4F35 PUSH1 0x40 DUP4 ADD DUP5 PUSH2 0x4EF9 JUMP JUMPDEST SWAP5 SWAP4 POP POP POP POP JUMP JUMPDEST PUSH0 DUP2 PUSH1 0x1 SHR SWAP1 POP SWAP2 SWAP1 POP JUMP JUMPDEST PUSH0 PUSH0 DUP3 SWAP2 POP DUP4 SWAP1 POP JUMPDEST PUSH1 0x1 DUP6 GT ISZERO PUSH2 0x4F92 JUMPI DUP1 DUP7 DIV DUP2 GT ISZERO PUSH2 0x4F6E JUMPI PUSH2 0x4F6D PUSH2 0x453A JUMP JUMPDEST JUMPDEST PUSH1 0x1 DUP6 AND ISZERO PUSH2 0x4F7D JUMPI DUP1 DUP3 MUL SWAP2 POP JUMPDEST DUP1 DUP2 MUL SWAP1 POP PUSH2 0x4F8B DUP6 PUSH2 0x4F3D JUMP JUMPDEST SWAP5 POP PUSH2 0x4F52 JUMP JUMPDEST SWAP5 POP SWAP5 SWAP3 POP POP POP JUMP JUMPDEST PUSH0 DUP3 PUSH2 0x4FAA JUMPI PUSH1 0x1 SWAP1 POP PUSH2 0x5065 JUMP JUMPDEST DUP2 PUSH2 0x4FB7 JUMPI PUSH0 SWAP1 POP PUSH2 0x5065 JUMP JUMPDEST DUP2 PUSH1 0x1 DUP2 EQ PUSH2 0x4FCD JUMPI PUSH1 0x2 DUP2 EQ PUSH2 0x4FD7 JUMPI PUSH2 0x5006 JUMP JUMPDEST PUSH1 0x1 SWAP2 POP POP PUSH2 0x5065 JUMP JUMPDEST PUSH1 0xFF DUP5 GT ISZERO PUSH2 0x4FE9 JUMPI PUSH2 0x4FE8 PUSH2 0x453A JUMP JUMPDEST JUMPDEST DUP4 PUSH1 0x2 EXP SWAP2 POP DUP5 DUP3 GT ISZERO PUSH2 0x5000 JUMPI PUSH2 0x4FFF PUSH2 0x453A JUMP JUMPDEST JUMPDEST POP PUSH2 0x5065 JUMP JUMPDEST POP PUSH1 0x20 DUP4 LT PUSH2 0x133 DUP4 LT AND PUSH1 0x4E DUP5 LT PUSH1 0xB DUP5 LT AND OR ISZERO PUSH2 0x503B JUMPI DUP3 DUP3 EXP SWAP1 POP DUP4 DUP2 GT ISZERO PUSH2 0x5036 JUMPI PUSH2 0x5035 PUSH2 0x453A JUMP JUMPDEST JUMPDEST PUSH2 0x5065 JUMP JUMPDEST PUSH2 0x5048 DUP5 DUP5 DUP5 PUSH1 0x1 PUSH2 0x4F49 JUMP JUMPDEST SWAP3 POP SWAP1 POP DUP2 DUP5 DIV DUP2 GT ISZERO PUSH2 0x505F JUMPI PUSH2 0x505E PUSH2 0x453A JUMP JUMPDEST JUMPDEST DUP2 DUP2 MUL SWAP1 POP JUMPDEST SWAP4 SWAP3 POP POP POP JUMP JUMPDEST PUSH0 PUSH2 0x5076 DUP3 PUSH2 0x3D02 JUMP JUMPDEST SWAP2 POP PUSH2 0x5081 DUP4 PUSH2 0x3D02 JUMP JUMPDEST SWAP3 POP PUSH2 0x50AE PUSH32 0xFFFFFFFFFFFFFFFFFFFFFFFFFFFFFFFFFFFFFFFFFFFFFFFFFFFFFFFFFFFFFFFF DUP5 DUP5 PUSH2 0x4F9B JUMP JUMPDEST SWAP1 POP SWAP3 SWAP2 POP POP JUMP JUMPDEST PUSH0 DUP2 SWAP1 POP SWAP2 SWAP1 POP JUMP JUMPDEST PUSH0 PUSH2 0x50D9 PUSH2 0x50D4 PUSH2 0x50CF DUP5 PUSH2 0x50B6 JUMP JUMPDEST PUSH2 0x3E74 JUMP JUMPDEST PUSH2 0x3D02 JUMP JUMPDEST SWAP1 POP SWAP2 SWAP1 POP JUMP JUMPDEST PUSH2 0x50E9 DUP2 PUSH2 0x50BF JUMP JUMPDEST DUP3 MSTORE POP POP JUMP JUMPDEST PUSH0 PUSH1 0x60 DUP3 ADD SWAP1 POP PUSH2 0x5102 PUSH0 DUP4 ADD DUP7 PUSH2 0x3D0B JUMP JUMPDEST PUSH2 0x510F PUSH1 0x20 DUP4 ADD DUP6 PUSH2 0x3D0B JUMP JUMPDEST PUSH2 0x511C PUSH1 0x40 DUP4 ADD DUP5 PUSH2 0x50E0 JUMP JUMPDEST SWAP5 SWAP4 POP POP POP POP JUMP JUMPDEST PUSH0 DUP2 SWAP1 POP SWAP2 SWAP1 POP JUMP JUMPDEST PUSH0 PUSH2 0x5147 PUSH2 0x5142 PUSH2 0x513D DUP5 PUSH2 0x5124 JUMP JUMPDEST PUSH2 0x3E74 JUMP JUMPDEST PUSH2 0x3D02 JUMP JUMPDEST SWAP1 POP SWAP2 SWAP1 POP JUMP JUMPDEST PUSH2 0x5157 DUP2 PUSH2 0x512D JUMP JUMPDEST DUP3 MSTORE POP POP JUMP JUMPDEST PUSH0 PUSH1 0x60 DUP3 ADD SWAP1 POP PUSH2 0x5170 PUSH0 DUP4 ADD DUP7 PUSH2 0x3D0B JUMP JUMPDEST PUSH2 0x517D PUSH1 0x20 DUP4 ADD DUP6 PUSH2 0x3D0B JUMP JUMPDEST PUSH2 0x518A PUSH1 0x40 DUP4 ADD DUP5 PUSH2 0x514E JUMP JUMPDEST SWAP5 SWAP4 POP POP POP POP JUMP INVALID MSIZE PUSH16 0x75206E65656420746F20726561636820 PUSH2 0x2068 PUSH10 0x67686572206C6576656C KECCAK256 PUSH7 0x69727374596F75 KECCAK256 PUSH2 0x7265 KECCAK256 PUSH2 0x6C72 PUSH6 0x616479206174 KECCAK256 PUSH21 0x6865206869676865737420706F6F6CA26469706673 PC 0x22 SLT KECCAK256 0x1E RETF 0xCB SWAP10 PUSH22 0xA8DC7F7BB3FED0EC92051D331DD5FAE69A6460329DAA 0x4B PUSH15 0xD0749D64736F6C634300081E003300 "
		},
		"gasEstimates": {
			"creation": {
				"codeDepositCost": "4201800",
				"executionCost": "infinite",
				"totalCost": "infinite"
			},
			"external": {
				"ACC_PRECISION()": "371",
				"PERCENTS_DIVIDER()": "394",
				"ROI_CAP_DIVIDER()": "414",
				"ROI_CAP_MULTIPLIER()": "415",
				"TIME_STEP()": "459",
				"addressToId(address)": "2913",
				"canBuyNextPool(uint256)": "infinite",
				"claimCommunity(uint256)": "infinite",
				"communityAccPerUser()": "2493",
				"communityDebt(uint256)": "infinite",
				"creatorWallet()": "2598",
				"defaultRefId()": "2535",
				"directReferrals(uint256,uint256)": "infinite",
				"incomeHistory(uint256,uint256)": "infinite",
				"lastLotteryRun()": "2472",
				"lastLotteryWinner()": "2620",
				"lotteryInterval()": "2492",
				"lotteryPool()": "2515",
				"matrixDirect(uint256)": "infinite",
				"minLevelForPool(uint256)": "infinite",
				"owner()": "2575",
				"packages(uint256)": "infinite",
				"pendingCommunity(uint256)": "infinite",
				"poolPackages(uint256)": "infinite",
				"poolUsers(uint256,uint256)": "infinite",
				"register(uint256)": "infinite",
				"registeredUserIds(uint256)": "infinite",
				"systemMaintance()": "2596",
				"teamDevelopment()": "2662",
				"teams(uint256,uint256,uint256)": "infinite",
				"totalUsers()": "2492",
				"upgrade(uint256)": "infinite",
				"upgradePool(uint32)": "infinite",
				"upgradePoolByEarning(uint32,uint256,uint256)": "infinite",
				"usdt()": "infinite",
				"userChildren(uint256,uint256,uint256)": "infinite",
				"userHasPool(uint256,uint256)": "infinite",
				"userIdPerPool(uint256,uint256,uint256)": "infinite",
				"userIncomes(uint256)": "infinite",
				"userPooldtl(uint256,uint256)": "infinite",
				"userPooltopup(uint256,uint256)": "infinite",
				"users(uint256)": "infinite"
			},
			"internal": {
				"_accrueCommunityBonus(uint256)": "infinite",
				"_applyGlobalCapping(uint256,uint256)": "infinite",
				"_distributeLevelBoosterIncome(uint256,uint256,uint256,uint256,uint256)": "infinite",
				"_distributeLevelIncome(uint256,uint256,uint256,uint256,uint256)": "infinite",
				"_distributeMatrixIncome(uint256,uint256,uint256,uint256)": "infinite",
				"_distributePoolIncome(uint256,uint256,uint256,uint256)": "infinite",
				"_distributeSponsorIncome(uint256,uint256,uint256,uint256)": "infinite",
				"_findEligibleSponsor(uint256,uint256)": "infinite",
				"_payLevelBooster(uint256,uint256,uint256,uint256)": "infinite",
				"_payPoolIncome(uint256,uint256,uint256,uint256)": "infinite",
				"_placeInMatrix(uint256,uint256)": "infinite",
				"_placeInPool(uint256,uint32,uint256)": "infinite",
				"_sendToCreator(uint256)": "infinite"
			}
		},
		"methodIdentifiers": {
			"ACC_PRECISION()": "32fcd966",
			"PERCENTS_DIVIDER()": "01c234a8",
			"ROI_CAP_DIVIDER()": "58c7d352",
			"ROI_CAP_MULTIPLIER()": "375b43b4",
			"TIME_STEP()": "32bc298c",
			"addressToId(address)": "cb0e0d7d",
			"canBuyNextPool(uint256)": "67d52d4d",
			"claimCommunity(uint256)": "d54d6ddb",
			"communityAccPerUser()": "78f6ad6d",
			"communityDebt(uint256)": "18ab487f",
			"creatorWallet()": "7cdc65f2",
			"defaultRefId()": "ec597e6f",
			"directReferrals(uint256,uint256)": "5ec64a44",
			"incomeHistory(uint256,uint256)": "70c8d770",
			"lastLotteryRun()": "01be02b2",
			"lastLotteryWinner()": "81a0b816",
			"lotteryInterval()": "52a8c4c4",
			"lotteryPool()": "2c831633",
			"matrixDirect(uint256)": "88afbe3e",
			"minLevelForPool(uint256)": "2132d204",
			"owner()": "8da5cb5b",
			"packages(uint256)": "c216212a",
			"pendingCommunity(uint256)": "24513088",
			"poolPackages(uint256)": "ae4708dc",
			"poolUsers(uint256,uint256)": "0f2b7cc9",
			"register(uint256)": "f207564e",
			"registeredUserIds(uint256)": "39ab3603",
			"systemMaintance()": "e9e34a16",
			"teamDevelopment()": "f5d74d93",
			"teams(uint256,uint256,uint256)": "5aabf7f1",
			"totalUsers()": "bff1f9e1",
			"upgrade(uint256)": "45977d03",
			"upgradePool(uint32)": "11f65d39",
			"upgradePoolByEarning(uint32,uint256,uint256)": "d11fd08d",
			"usdt()": "2f48ab7d",
			"userChildren(uint256,uint256,uint256)": "8f030ece",
			"userHasPool(uint256,uint256)": "bd1aae40",
			"userIdPerPool(uint256,uint256,uint256)": "8d58644c",
			"userIncomes(uint256)": "46b9dece",
			"userPooldtl(uint256,uint256)": "ce79c2c3",
			"userPooltopup(uint256,uint256)": "bf724672",
			"users(uint256)": "365b98b2"
		}
	},
	"abi": [
		{
			"inputs": [
				{
					"internalType": "address",
					"name": "_usdt",
					"type": "address"
				},
				{
					"internalType": "address",
					"name": "_creatorWallet",
					"type": "address"
				},
				{
					"internalType": "address",
					"name": "_systemMaintance",
					"type": "address"
				},
				{
					"internalType": "address",
					"name": "_teamDevelopment",
					"type": "address"
				}
			],
			"stateMutability": "nonpayable",
			"type": "constructor"
		},
		{
			"anonymous": false,
			"inputs": [
				{
					"indexed": false,
					"internalType": "uint256",
					"name": "amount",
					"type": "uint256"
				},
				{
					"indexed": false,
					"internalType": "uint256",
					"name": "usersCount",
					"type": "uint256"
				},
				{
					"indexed": false,
					"internalType": "uint256",
					"name": "perUser",
					"type": "uint256"
				}
			],
			"name": "CommunityBonusDistributed",
			"type": "event"
		},
		{
			"anonymous": false,
			"inputs": [
				{
					"indexed": true,
					"internalType": "address",
					"name": "to",
					"type": "address"
				},
				{
					"indexed": true,
					"internalType": "address",
					"name": "from",
					"type": "address"
				},
				{
					"indexed": false,
					"internalType": "uint256",
					"name": "amount",
					"type": "uint256"
				},
				{
					"indexed": false,
					"internalType": "uint256",
					"name": "packageLevel",
					"type": "uint256"
				},
				{
					"indexed": false,
					"internalType": "uint256",
					"name": "incomeType",
					"type": "uint256"
				}
			],
			"name": "IncomeDistributed",
			"type": "event"
		},
		{
			"anonymous": false,
			"inputs": [
				{
					"indexed": true,
					"internalType": "address",
					"name": "winner",
					"type": "address"
				},
				{
					"indexed": true,
					"internalType": "uint256",
					"name": "fromUserId",
					"type": "uint256"
				},
				{
					"indexed": false,
					"internalType": "uint256",
					"name": "amount",
					"type": "uint256"
				},
				{
					"indexed": false,
					"internalType": "uint256",
					"name": "timestamp",
					"type": "uint256"
				}
			],
			"name": "LotteryReward",
			"type": "event"
		},
		{
			"anonymous": false,
			"inputs": [
				{
					"indexed": true,
					"internalType": "address",
					"name": "user",
					"type": "address"
				},
				{
					"indexed": true,
					"internalType": "address",
					"name": "sponsor",
					"type": "address"
				},
				{
					"indexed": true,
					"internalType": "uint256",
					"name": "userId",
					"type": "uint256"
				},
				{
					"indexed": false,
					"internalType": "uint256",
					"name": "uplineId",
					"type": "uint256"
				}
			],
			"name": "Registration",
			"type": "event"
		},
		{
			"anonymous": false,
			"inputs": [
				{
					"indexed": true,
					"internalType": "address",
					"name": "to",
					"type": "address"
				},
				{
					"indexed": false,
					"internalType": "uint256",
					"name": "amount",
					"type": "uint256"
				},
				{
					"indexed": false,
					"internalType": "string",
					"name": "level",
					"type": "string"
				}
			],
			"name": "RewardSent",
			"type": "event"
		},
		{
			"anonymous": false,
			"inputs": [
				{
					"indexed": true,
					"internalType": "address",
					"name": "user",
					"type": "address"
				},
				{
					"indexed": true,
					"internalType": "uint256",
					"name": "userId",
					"type": "uint256"
				},
				{
					"indexed": false,
					"internalType": "uint256",
					"name": "packageLevel",
					"type": "uint256"
				},
				{
					"indexed": false,
					"internalType": "string",
					"name": "depositType",
					"type": "string"
				}
			],
			"name": "Upgrade",
			"type": "event"
		},
		{
			"anonymous": false,
			"inputs": [
				{
					"indexed": true,
					"internalType": "uint8",
					"name": "matrixId",
					"type": "uint8"
				},
				{
					"indexed": true,
					"internalType": "uint32",
					"name": "userId",
					"type": "uint32"
				},
				{
					"indexed": true,
					"internalType": "address",
					"name": "user",
					"type": "address"
				},
				{
					"indexed": false,
					"internalType": "uint32",
					"name": "parentId",
					"type": "uint32"
				},
				{
					"indexed": false,
					"internalType": "address",
					"name": "parentAddr",
					"type": "address"
				},
				{
					"indexed": false,
					"internalType": "uint8",
					"name": "position",
					"type": "uint8"
				}
			],
			"name": "UserJoined",
			"type": "event"
		},
		{
			"inputs": [],
			"name": "ACC_PRECISION",
			"outputs": [
				{
					"internalType": "uint256",
					"name": "",
					"type": "uint256"
				}
			],
			"stateMutability": "view",
			"type": "function"
		},
		{
			"inputs": [],
			"name": "PERCENTS_DIVIDER",
			"outputs": [
				{
					"internalType": "uint256",
					"name": "",
					"type": "uint256"
				}
			],
			"stateMutability": "view",
			"type": "function"
		},
		{
			"inputs": [],
			"name": "ROI_CAP_DIVIDER",
			"outputs": [
				{
					"internalType": "uint256",
					"name": "",
					"type": "uint256"
				}
			],
			"stateMutability": "view",
			"type": "function"
		},
		{
			"inputs": [],
			"name": "ROI_CAP_MULTIPLIER",
			"outputs": [
				{
					"internalType": "uint256",
					"name": "",
					"type": "uint256"
				}
			],
			"stateMutability": "view",
			"type": "function"
		},
		{
			"inputs": [],
			"name": "TIME_STEP",
			"outputs": [
				{
					"internalType": "uint256",
					"name": "",
					"type": "uint256"
				}
			],
			"stateMutability": "view",
			"type": "function"
		},
		{
			"inputs": [
				{
					"internalType": "address",
					"name": "",
					"type": "address"
				}
			],
			"name": "addressToId",
			"outputs": [
				{
					"internalType": "uint256",
					"name": "",
					"type": "uint256"
				}
			],
			"stateMutability": "view",
			"type": "function"
		},
		{
			"inputs": [
				{
					"internalType": "uint256",
					"name": "userId",
					"type": "uint256"
				}
			],
			"name": "canBuyNextPool",
			"outputs": [
				{
					"internalType": "bool",
					"name": "eligible",
					"type": "bool"
				},
				{
					"internalType": "string",
					"name": "reason",
					"type": "string"
				}
			],
			"stateMutability": "view",
			"type": "function"
		},
		{
			"inputs": [
				{
					"internalType": "uint256",
					"name": "_userId",
					"type": "uint256"
				}
			],
			"name": "claimCommunity",
			"outputs": [],
			"stateMutability": "nonpayable",
			"type": "function"
		},
		{
			"inputs": [],
			"name": "communityAccPerUser",
			"outputs": [
				{
					"internalType": "uint256",
					"name": "",
					"type": "uint256"
				}
			],
			"stateMutability": "view",
			"type": "function"
		},
		{
			"inputs": [
				{
					"internalType": "uint256",
					"name": "",
					"type": "uint256"
				}
			],
			"name": "communityDebt",
			"outputs": [
				{
					"internalType": "uint256",
					"name": "",
					"type": "uint256"
				}
			],
			"stateMutability": "view",
			"type": "function"
		},
		{
			"inputs": [],
			"name": "creatorWallet",
			"outputs": [
				{
					"internalType": "address",
					"name": "",
					"type": "address"
				}
			],
			"stateMutability": "view",
			"type": "function"
		},
		{
			"inputs": [],
			"name": "defaultRefId",
			"outputs": [
				{
					"internalType": "uint256",
					"name": "",
					"type": "uint256"
				}
			],
			"stateMutability": "view",
			"type": "function"
		},
		{
			"inputs": [
				{
					"internalType": "uint256",
					"name": "",
					"type": "uint256"
				},
				{
					"internalType": "uint256",
					"name": "",
					"type": "uint256"
				}
			],
			"name": "directReferrals",
			"outputs": [
				{
					"internalType": "uint256",
					"name": "",
					"type": "uint256"
				}
			],
			"stateMutability": "view",
			"type": "function"
		},
		{
			"inputs": [
				{
					"internalType": "uint256",
					"name": "",
					"type": "uint256"
				},
				{
					"internalType": "uint256",
					"name": "",
					"type": "uint256"
				}
			],
			"name": "incomeHistory",
			"outputs": [
				{
					"internalType": "uint256",
					"name": "fromUserId",
					"type": "uint256"
				},
				{
					"internalType": "uint256",
					"name": "amount",
					"type": "uint256"
				},
				{
					"internalType": "uint256",
					"name": "packageLevel",
					"type": "uint256"
				},
				{
					"internalType": "uint256",
					"name": "timestamp",
					"type": "uint256"
				},
				{
					"internalType": "uint256",
					"name": "incomeType",
					"type": "uint256"
				}
			],
			"stateMutability": "view",
			"type": "function"
		},
		{
			"inputs": [],
			"name": "lastLotteryRun",
			"outputs": [
				{
					"internalType": "uint256",
					"name": "",
					"type": "uint256"
				}
			],
			"stateMutability": "view",
			"type": "function"
		},
		{
			"inputs": [],
			"name": "lastLotteryWinner",
			"outputs": [
				{
					"internalType": "address",
					"name": "",
					"type": "address"
				}
			],
			"stateMutability": "view",
			"type": "function"
		},
		{
			"inputs": [],
			"name": "lotteryInterval",
			"outputs": [
				{
					"internalType": "uint256",
					"name": "",
					"type": "uint256"
				}
			],
			"stateMutability": "view",
			"type": "function"
		},
		{
			"inputs": [],
			"name": "lotteryPool",
			"outputs": [
				{
					"internalType": "uint256",
					"name": "",
					"type": "uint256"
				}
			],
			"stateMutability": "view",
			"type": "function"
		},
		{
			"inputs": [
				{
					"internalType": "uint256",
					"name": "",
					"type": "uint256"
				}
			],
			"name": "matrixDirect",
			"outputs": [
				{
					"internalType": "uint256",
					"name": "",
					"type": "uint256"
				}
			],
			"stateMutability": "view",
			"type": "function"
		},
		{
			"inputs": [
				{
					"internalType": "uint256",
					"name": "",
					"type": "uint256"
				}
			],
			"name": "minLevelForPool",
			"outputs": [
				{
					"internalType": "uint256",
					"name": "",
					"type": "uint256"
				}
			],
			"stateMutability": "view",
			"type": "function"
		},
		{
			"inputs": [],
			"name": "owner",
			"outputs": [
				{
					"internalType": "address",
					"name": "",
					"type": "address"
				}
			],
			"stateMutability": "view",
			"type": "function"
		},
		{
			"inputs": [
				{
					"internalType": "uint256",
					"name": "",
					"type": "uint256"
				}
			],
			"name": "packages",
			"outputs": [
				{
					"internalType": "uint256",
					"name": "",
					"type": "uint256"
				}
			],
			"stateMutability": "view",
			"type": "function"
		},
		{
			"inputs": [
				{
					"internalType": "uint256",
					"name": "_userId",
					"type": "uint256"
				}
			],
			"name": "pendingCommunity",
			"outputs": [
				{
					"internalType": "uint256",
					"name": "pendingGross",
					"type": "uint256"
				},
				{
					"internalType": "uint256",
					"name": "pendingAfterCap",
					"type": "uint256"
				}
			],
			"stateMutability": "view",
			"type": "function"
		},
		{
			"inputs": [
				{
					"internalType": "uint256",
					"name": "",
					"type": "uint256"
				}
			],
			"name": "poolPackages",
			"outputs": [
				{
					"internalType": "uint256",
					"name": "",
					"type": "uint256"
				}
			],
			"stateMutability": "view",
			"type": "function"
		},
		{
			"inputs": [
				{
					"internalType": "uint256",
					"name": "",
					"type": "uint256"
				},
				{
					"internalType": "uint256",
					"name": "",
					"type": "uint256"
				}
			],
			"name": "poolUsers",
			"outputs": [
				{
					"internalType": "uint256",
					"name": "",
					"type": "uint256"
				}
			],
			"stateMutability": "view",
			"type": "function"
		},
		{
			"inputs": [
				{
					"internalType": "uint256",
					"name": "_sponsorId",
					"type": "uint256"
				}
			],
			"name": "register",
			"outputs": [],
			"stateMutability": "nonpayable",
			"type": "function"
		},
		{
			"inputs": [
				{
					"internalType": "uint256",
					"name": "",
					"type": "uint256"
				}
			],
			"name": "registeredUserIds",
			"outputs": [
				{
					"internalType": "uint256",
					"name": "",
					"type": "uint256"
				}
			],
			"stateMutability": "view",
			"type": "function"
		},
		{
			"inputs": [],
			"name": "systemMaintance",
			"outputs": [
				{
					"internalType": "address",
					"name": "",
					"type": "address"
				}
			],
			"stateMutability": "view",
			"type": "function"
		},
		{
			"inputs": [],
			"name": "teamDevelopment",
			"outputs": [
				{
					"internalType": "address",
					"name": "",
					"type": "address"
				}
			],
			"stateMutability": "view",
			"type": "function"
		},
		{
			"inputs": [
				{
					"internalType": "uint256",
					"name": "",
					"type": "uint256"
				},
				{
					"internalType": "uint256",
					"name": "",
					"type": "uint256"
				},
				{
					"internalType": "uint256",
					"name": "",
					"type": "uint256"
				}
			],
			"name": "teams",
			"outputs": [
				{
					"internalType": "uint256",
					"name": "",
					"type": "uint256"
				}
			],
			"stateMutability": "view",
			"type": "function"
		},
		{
			"inputs": [],
			"name": "totalUsers",
			"outputs": [
				{
					"internalType": "uint256",
					"name": "",
					"type": "uint256"
				}
			],
			"stateMutability": "view",
			"type": "function"
		},
		{
			"inputs": [
				{
					"internalType": "uint256",
					"name": "_userId",
					"type": "uint256"
				}
			],
			"name": "upgrade",
			"outputs": [],
			"stateMutability": "nonpayable",
			"type": "function"
		},
		{
			"inputs": [
				{
					"internalType": "uint32",
					"name": "_userId",
					"type": "uint32"
				}
			],
			"name": "upgradePool",
			"outputs": [],
			"stateMutability": "nonpayable",
			"type": "function"
		},
		{
			"inputs": [
				{
					"internalType": "uint32",
					"name": "_userId",
					"type": "uint32"
				},
				{
					"internalType": "uint256",
					"name": "_poolId",
					"type": "uint256"
				},
				{
					"internalType": "uint256",
					"name": "_upgradeType",
					"type": "uint256"
				}
			],
			"name": "upgradePoolByEarning",
			"outputs": [],
			"stateMutability": "nonpayable",
			"type": "function"
		},
		{
			"inputs": [],
			"name": "usdt",
			"outputs": [
				{
					"internalType": "contract IERC20",
					"name": "",
					"type": "address"
				}
			],
			"stateMutability": "view",
			"type": "function"
		},
		{
			"inputs": [
				{
					"internalType": "uint256",
					"name": "",
					"type": "uint256"
				},
				{
					"internalType": "uint256",
					"name": "",
					"type": "uint256"
				},
				{
					"internalType": "uint256",
					"name": "",
					"type": "uint256"
				}
			],
			"name": "userChildren",
			"outputs": [
				{
					"internalType": "uint256",
					"name": "",
					"type": "uint256"
				}
			],
			"stateMutability": "view",
			"type": "function"
		},
		{
			"inputs": [
				{
					"internalType": "uint256",
					"name": "",
					"type": "uint256"
				},
				{
					"internalType": "uint256",
					"name": "",
					"type": "uint256"
				}
			],
			"name": "userHasPool",
			"outputs": [
				{
					"internalType": "bool",
					"name": "",
					"type": "bool"
				}
			],
			"stateMutability": "view",
			"type": "function"
		},
		{
			"inputs": [
				{
					"internalType": "uint256",
					"name": "",
					"type": "uint256"
				},
				{
					"internalType": "uint256",
					"name": "",
					"type": "uint256"
				},
				{
					"internalType": "uint256",
					"name": "",
					"type": "uint256"
				}
			],
			"name": "userIdPerPool",
			"outputs": [
				{
					"internalType": "uint256",
					"name": "",
					"type": "uint256"
				}
			],
			"stateMutability": "view",
			"type": "function"
		},
		{
			"inputs": [
				{
					"internalType": "uint256",
					"name": "",
					"type": "uint256"
				}
			],
			"name": "userIncomes",
			"outputs": [
				{
					"internalType": "uint256",
					"name": "totalIncome",
					"type": "uint256"
				},
				{
					"internalType": "uint256",
					"name": "sponsorIncome",
					"type": "uint256"
				},
				{
					"internalType": "uint256",
					"name": "matrixIncome",
					"type": "uint256"
				},
				{
					"internalType": "uint256",
					"name": "levelBoosterIncome",
					"type": "uint256"
				},
				{
					"internalType": "uint256",
					"name": "levelIncome",
					"type": "uint256"
				},
				{
					"internalType": "uint256",
					"name": "royaltyIncome",
					"type": "uint256"
				},
				{
					"internalType": "uint256",
					"name": "royaltyIncomeClaimed",
					"type": "uint256"
				},
				{
					"internalType": "uint256",
					"name": "communityIncome",
					"type": "uint256"
				},
				{
					"internalType": "uint256",
					"name": "poolIncome",
					"type": "uint256"
				}
			],
			"stateMutability": "view",
			"type": "function"
		},
		{
			"inputs": [
				{
					"internalType": "uint256",
					"name": "",
					"type": "uint256"
				},
				{
					"internalType": "uint256",
					"name": "",
					"type": "uint256"
				}
			],
			"name": "userPooldtl",
			"outputs": [
				{
					"internalType": "uint256",
					"name": "id",
					"type": "uint256"
				},
				{
					"internalType": "uint256",
					"name": "mainid",
					"type": "uint256"
				},
				{
					"internalType": "uint256",
					"name": "poolId",
					"type": "uint256"
				},
				{
					"internalType": "uint256",
					"name": "parentId",
					"type": "uint256"
				},
				{
					"internalType": "uint256",
					"name": "bonusCount",
					"type": "uint256"
				}
			],
			"stateMutability": "view",
			"type": "function"
		},
		{
			"inputs": [
				{
					"internalType": "uint256",
					"name": "",
					"type": "uint256"
				},
				{
					"internalType": "uint256",
					"name": "",
					"type": "uint256"
				}
			],
			"name": "userPooltopup",
			"outputs": [
				{
					"internalType": "uint256",
					"name": "nextPoolAmt",
					"type": "uint256"
				},
				{
					"internalType": "uint256",
					"name": "reTopupAmt",
					"type": "uint256"
				}
			],
			"stateMutability": "view",
			"type": "function"
		},
		{
			"inputs": [
				{
					"internalType": "uint256",
					"name": "",
					"type": "uint256"
				}
			],
			"name": "users",
			"outputs": [
				{
					"internalType": "address",
					"name": "account",
					"type": "address"
				},
				{
					"internalType": "uint256",
					"name": "checkpoint",
					"type": "uint256"
				},
				{
					"internalType": "uint256",
					"name": "id",
					"type": "uint256"
				},
				{
					"internalType": "uint256",
					"name": "sponsorId",
					"type": "uint256"
				},
				{
					"internalType": "uint256",
					"name": "uplineId",
					"type": "uint256"
				},
				{
					"internalType": "uint256",
					"name": "level",
					"type": "uint256"
				},
				{
					"internalType": "uint256",
					"name": "directTeam",
					"type": "uint256"
				},
				{
					"internalType": "uint256",
					"name": "totalMatrixTeam",
					"type": "uint256"
				},
				{
					"internalType": "uint256",
					"name": "totalDeposit",
					"type": "uint256"
				},
				{
					"internalType": "uint256",
					"name": "poollevel",
					"type": "uint256"
				},
				{
					"internalType": "uint256",
					"name": "poolDeposit",
					"type": "uint256"
				},
				{
					"internalType": "uint256",
					"name": "registrationTime",
					"type": "uint256"
				}
			],
			"stateMutability": "view",
			"type": "function"
		}
	]
}