{
	"data": {
		"bytecode": {
			"linkReferences": {},
			"object": "60806040523461052b5760015f556040516101e081016001600160401b038111828210176105175760405267d02ab486cedc0000815268015af1d78b58c4000060208201526802b5e3af16b1880000604082015268056bc75e2d631000006060820152680ad78ebc5ac620000060808201526815af1d78b58c40000060a0820152682b5e3af16b1880000060c08201526856bc75e2d63100000060e082015268ad78ebc5ac6200000061010082015269015af1d78b58c40000006101208201526902b5e3af16b18800000061014082015269056bc75e2d6310000000610160820152690ad78ebc5ac6200000006101808201526915af1d78b58c400000006101a0820152692b5e3af16b18800000006101c0820152600b54600f600b5580600f106104c1575b50600b5f5260205f20905f5b600f81106104a45761014161052f565b680410d586a20a4c00008152681043561a8829300000602082015268410d586a20a4c0000060408201526901043561a882930000006060820152690410d586a20a4c0000006080820152691043561a88293000000060a082015269410d586a20a4c000000060c082015260135460076013558060071061044e575b5060135f5260205f20905f5b60078110610431576101d861054e565b68056bc75e2d631000008152680ad78ebc5ac620000060208201526815af1d78b58c4000006040820152682b5e3af16b1880000060608201526856bc75e2d631000000608082015268ad78ebc5ac6200000060a082015269015af1d78b58c400000060c08201526902b5e3af16b18800000060e08201526014546008601455806008106103db575b5060145f5260205f20905f5b600881106103be5761027c61052f565b60038152600560208201526007604082015260096060820152600b6080820152600d60a0820152600f60c08201525f5b600781106103a6576102bc61054e565b6004815260056020820152600660408201526007606082015260086080820152600960a0820152600a60c0820152600b60e08201525f5b6008811061038e5761030361054e565b5f815260016020820152600160408201526001606082015260016080820152600160a0820152600160c0820152600160e08201525f5b60088110610376575f6036555f6037555f6038556001603d555f603e555f603f5560016044555f6045555f60465560405161226190816105858239f35b600190602060ff845116930192816024015501610339565b600190602060ff84511693019281601c0155016102f3565b600190602060ff8451169301928160150155016102ac565b81516001600160501b03168184015560209091019060010161026c565b60145f5261042b907fce6d7b5282bd9a3661ae061feed1dbda4e52ab073b1f9285be6e155d9c38d4ec017fce6d7b5282bd9a3661ae061feed1dbda4e52ab073b1f9285be6e155d9c38d4f461056e565b81610260565b81516001600160501b0316818401556020909101906001016101c8565b60135f5261049e907f66de8ffda797e3de9c05e8fc57b3bf0ec28a930d40b0d285d93c06501cf6a090017f66de8ffda797e3de9c05e8fc57b3bf0ec28a930d40b0d285d93c06501cf6a09761056e565b816101bc565b81516001600160501b031681840155602090910190600101610131565b600b5f52610511907f0175b7a638427703f0dbe7bb9bbf987a2551717b34e79f33b5b1008d1fa01db9017f0175b7a638427703f0dbe7bb9bbf987a2551717b34e79f33b5b1008d1fa01dc861056e565b5f610125565b634e487b7160e01b5f52604160045260245ffd5b5f80fd5b6040519060e082016001600160401b0381118382101761051757604052565b6040519061010082016001600160401b0381118382101761051757604052565b818110610579575050565b5f815560010161056e56fe6080806040526004361015610012575f80fd5b5f3560e01c90816301c234a8146110a8575080632132d2041461107c5780632350268f1461102257806323fd338e14610a9b5780632451308814610ff85780632a89153414610fdb5780632ae0ee0d14610f375780632f48ab7d14610fb35780633080b5bc14610f9657806331bb6a3014610f7b57806332bc298c14610f5e57806332fcd96614610f3c578063375b43b414610f3757806339ab360314610edd57806345977d0314610abd5780634b8cbf9b14610aa057806358c7d35214610a9b5780635b62d1d514610a7e578063705fee2d14610a6057806376f5f70014610a4357806378f6ad6d14610a265780637cdc65f2146109fe578063956a3228146109d25780639b40ab97146109b5578063a59d17d114610998578063a5e52b991461097b578063ae4708dc1461090d578063bff1f9e1146108f0578063c216212a146108b8578063c8df290814610894578063c9ed070814610877578063ca8e91211461085a578063d0a2fd791461082e578063d2f0490d14610813578063d54d6ddb146107f5578063e898fc38146107d8578063e9e34a16146107b0578063ebe0ff151461078d578063ec597e6f14610770578063f207564e14610233578063f5d74d931461020b5763fddc806f146101ea575f80fd5b34610207575f366003190112610207576020603754604051908152f35b5f80fd5b34610207575f366003190112610207576004546040516001600160a01b039091168152602090f35b3461020757602036600319011261020757600435335f52600c60205260405f205461073657805f52600d602052600360405f200154156106ff576001545f906020906102c0906001600160a01b031661028a6110da565b90546040516323b872dd60e01b815233600482015230602482015260039290921b1c604482015293849283919082906064820190565b03925af180156106f4576106c7575b50600554906102e16006548093611294565b916001810180911161051357600655335f52600c6020528160405f2055815f52600d60205260405f2090336bffffffffffffffffffffffff60a01b83541617825542600283015582600383015560048201818155600160068401556103446110da565b90549060031b1c600a84015542600f840155815f52600d602052600760405f2001805490600182018092116105135755815f5260126020526103898460405f20611572565b600754600160401b8110156106b3578060016103aa9201600755600761110c565b81549060031b9086821b915f19901b1916179055600954845f52600a60205260405f20555f5f90835f526011602052600260405f2054105f14610588575050835f52600d60205281600560405f200155815f52601160205260405f20805490600182018092116105135755815b5f905b600f8210610527575b50506104616104306110da565b90546040519160031b1c61044382611222565b81525f602082015242604082015260016060820152600185016112a1565b6104696110da565b90549060031b1c906005820282159280820460051484171561051357603c810293818504603c1481171561051357601982029182046019141715610513576104cc936104c4606489946104be82809604611612565b04611679565b0491546117a6565b5f52600d602052600560018060a01b0360405f2054169101546040519081527f309bb360e8b69c23937ccc5fb01f9aeeead1c95a99604e175113ff82f2b1723a60203392a4005b634e487b7160e01b5f52601160045260245ffd5b801561058357805f52600d602052600960405f2001805490600182018092116105135755805f52601060205260405f20825f5260205261056a8660405f20611572565b5f52600d6020526001600560405f20015491019061041a565b610423565b5f5b600f811061059a575b5050610417565b816106ae57845f52601060205260405f2060018201808311610513575f5260205260405f2054600282018083116105135760ff8111610513576001901b116105e5575b60010161058a565b93925f9591955b845f52601060205260405f20865f5260205260405f20548110156106a0578661068f57845f52601060205260405f20865f5260205261062e8160405f2061110c565b90549060031b1c805f526011602052600260405f205410610653575b506001016105ec565b9193509550865f52600d60205280600560405f200155805f52601160205260405f2080549060018201809211610513575591600180969061064a565b5092936001909591955b90506105dd565b509293600190959195610699565b610593565b634e487b7160e01b5f52604160045260245ffd5b6106e89060203d6020116106ed575b6106e0818361125a565b81019061127c565b6102cf565b503d6106d6565b6040513d5f823e3d90fd5b60405162461bcd60e51b815260206004820152600f60248201526e24b73b30b634b21039b837b739b7b960891b6044820152606490fd5b60405162461bcd60e51b8152602060048201526012602482015271105b1c9958591e481c9959da5cdd195c995960721b6044820152606490fd5b34610207575f366003190112610207576020600554604051908152f35b34610207575f366003190112610207576020604051683635c9adc5dea000008152f35b34610207575f366003190112610207576003546040516001600160a01b039091168152602090f35b34610207575f366003190112610207576020603e54604051908152f35b3461020757602036600319011261020757610811600435611363565b005b34610207575f36600319011261020757602060405160058152f35b3461020757602036600319011261020757600435600881101561020757602090601c0154604051908152f35b34610207575f366003190112610207576020603654604051908152f35b34610207575f366003190112610207576020603d54604051908152f35b34610207575f36600319011261020757602060405169021e19e0c9bab24000008152f35b3461020757602036600319011261020757600435600b54811015610207576108e16020916110c2565b90549060031b1c604051908152f35b34610207575f366003190112610207576020600654604051908152f35b3461020757602036600319011261020757600435601354811015610207576013548110156109675760135f527f66de8ffda797e3de9c05e8fc57b3bf0ec28a930d40b0d285d93c06501cf6a0900154604051908152602090f35b634e487b7160e01b5f52603260045260245ffd5b34610207575f3660031901126102075760206040516283d6008152f35b34610207575f366003190112610207576020603f54604051908152f35b34610207575f366003190112610207576020604554604051908152f35b346102075760203660031901126102075760043560088110156102075760209060240154604051908152f35b34610207575f366003190112610207576002546040516001600160a01b039091168152602090f35b34610207575f366003190112610207576020600954604051908152f35b34610207575f36600319011261020757602060405162093a808152f35b34610207575f36600319011261020757602060405163025143008152f35b34610207575f366003190112610207576020604654604051908152f35b611121565b34610207575f366003190112610207576020604454604051908152f35b3461020757602036600319011261020757600435805f52600d60205260405f20610af160018060a01b0382541633146111e3565b6006810190815491600f831015610ea157610b0b836110c2565b90546001546040516323b872dd60e01b815233600482015230602482015260039390931b9190911c60448301819052929190602090829060649082905f906001600160a01b03165af180156106f457610e84575b50805490600182018092116105135755600a8201610b7e828254611294565b9055610bae604051610b8f81611222565b8281525f602082015242604082015260016060820152600184016112a1565b60058102811590828104600514821715610513576019830283810460191483171561051357610be4916104be6064809304611612565b601482029182046014141715610513576064900490600481019182549360018101948582116105135782610c1e87610c36958a82956118e5565b8760058601610c308484848454611a42565b54611c2c565b600a8314610d9e575b600f8314610caa575b505060405190815260606020820152601560608201527453706f6e736f72736869702073747275637475726560581b60808201524260408201527fae1560e7d725caf8d266d531bf32f170b87264eca8d1265202c334cfeb5bc38260a03392a3005b601142910155825f52600d60205260405f2090545f52600d60205260405f206013810180546001810180911161051357806002925510159081610d80575b81610d70575b50610d5a575b6002601382015410159081610d37575b81610d28575b50610d17575b8280610c48565b610d2360445483611ffc565b610d10565b600f9150600601541483610d0a565b90506011810154600f820154906302514300820180921161051357111590610d04565b610d6b600482015460445490611ffc565b610cf4565b600f915060060154101584610cee565b9050600f810154630251430081018091116105135742111590610ce8565b4260108201555f848152600d60205260408082208454835291206012810180546001810190811061051357806005925510159081610e67575b81610e57575b50610e41575b6005601282015410159081610e1f575b81610e10575b5015610c3f57610e0b603d5485611e9b565b610c3f565b600a9150600601541485610df9565b90506010810154600f820154906283d600820180921161051357111590610df3565b610e526004820154603d5490611e9b565b610de3565b600a915060060154101586610ddd565b9050600f8101546283d60081018091116105135742111590610dd7565b610e9c9060203d6020116106ed576106e0818361125a565b610b5f565b60405162461bcd60e51b8152602060048201526014602482015273105b1c9958591e48185d081b585e081b195d995b60621b6044820152606490fd5b3461020757602036600319011261020757600435600754811015610207576007548110156109675760075f527fa66cc928b5edb82af9bd49922954155ab7b0942694bea4ce44661d9a8736c6880154604051908152602090f35b61113c565b34610207575f366003190112610207576020604051670de0b6b3a76400008152f35b34610207575f366003190112610207576020604051620151808152f35b34610207575f36600319011261020757602060405160028152f35b34610207575f366003190112610207576020603854604051908152f35b34610207575f366003190112610207576001546040516001600160a01b039091168152602090f35b34610207575f36600319011261020757602060405162278d008152f35b34610207576020366003190112610207576040611016600435611182565b82519182526020820152f35b3461020757602036600319011261020757600435601454811015610207576014548110156109675760145f527fce6d7b5282bd9a3661ae061feed1dbda4e52ab073b1f9285be6e155d9c38d4ec0154604051908152602090f35b346102075760203660031901126102075760043560078110156102075760209060150154604051908152f35b34610207575f366003190112610207578061271060209252f35b600b5481101561096757600b5f5260205f2001905f90565b600b541561096757600b5f9081527f0175b7a638427703f0dbe7bb9bbf987a2551717b34e79f33b5b1008d1fa01db991565b8054821015610967575f5260205f2001905f90565b34610207575f366003190112610207576020604051600a8152f35b34610207575f366003190112610207576020604051600f8152f35b9190820391821161051357565b811561116e570490565b634e487b7160e01b5f52601260045260245ffd5b90815f52600d602052600360405f200154156111dc57600954825f52600a60205260405f205490818111156111d2576111c76111cf92670de0b6b3a764000092611157565b0480936115a6565b90565b505090505f905f90565b5f91508190565b156111ea57565b60405162461bcd60e51b815260206004820152601060248201526f139bdd081e5bdd5c881858d8dbdd5b9d60821b6044820152606490fd5b6080810190811067ffffffffffffffff8211176106b357604052565b60a0810190811067ffffffffffffffff8211176106b357604052565b90601f8019910116810190811067ffffffffffffffff8211176106b357604052565b90816020910312610207575180151581036102075790565b9190820180921161051357565b8054600160401b8110156106b3576001810180835581101561096757600360609160ff935f5260205f209060021b01845181556020850151600182015560408501516002820155019201511660ff19825416179055565b8181029291811591840414171561051357565b805490600160401b8210156106b35760018201808255821015610967576004916080915f52600560205f2091020192805184556020810151600185015560408101516002850155606081015160038501550151910155565b805f52600d60205260405f209060038201541561153c5761138e60018060a01b0383541633146111e3565b60095491815f52600a60205260405f2054808414611536576113b9670de0b6b3a76400009185611157565b04918215611525576113cb83826115a6565b93815f52600a60205260405f20558380611401575b91505081116113ed575050565b6113ff916113fa91611157565b611679565b565b6114aa9261146b836020945f52600e8552600660405f20611423868254611294565b815501611431858254611294565b9055805f52600f855260405f206040519161144b8361123e565b82528486830152600160408301524260608301526009608083015261130b565b600154905460405163a9059cbb60e01b81526001600160a01b0391821660048201526024810193909352919384929091169082905f9082906044820190565b03925af19081156106f4575f91611506575b50156114ca575f80836113e0565b60405162461bcd60e51b81526020600482015260146024820152731554d115081d1c985b9cd9995c8819985a5b195960621b6044820152606490fd5b61151f915060203d6020116106ed576106e0818361125a565b5f6114bc565b9150505f52600a60205260405f2055565b50505050565b60405162461bcd60e51b815260206004820152600e60248201526d155cd95c881b9bdd08199bdd5b9960921b6044820152606490fd5b8054600160401b8110156106b35761158f9160018201815561110c565b819291549060031b91821b915f19901b1916179055565b805f52600d60205260405f20905f52600e602052600a6115dc60405f2092600f906001600882015411611609575b8301546112f8565b04905481811015611602576115f091611157565b90818111156115fd575090565b905090565b5050505f90565b601491506115d4565b6007549081158015611671575b61165e57670de0b6b3a7640000810290808204670de0b6b3a76400001490151715610513576116599161165191611164565b600954611294565b600955565b8091506116685750565b6113ff90611679565b50801561161f565b6002546001600160a01b0316801561176d5760015460405163a9059cbb60e01b60208083019182526001600160a01b039485166024840152604480840187905283529390921692915f916116ce60648261125a565b519082855af1156106f4575f513d6117645750803b155b61175257506080906005545f52600e60205260405f20611706828254611294565b90557f0f67c60bc8519c61563ac616d368a6df646202c88d10744d736438bc4fbe281660018060a01b03600254169283926040519081525f60208201525f6040820152426060820152a3565b635274afe760e01b5f5260045260245ffd5b600114156116e5565b60405162461bcd60e51b8152602060048201526011602482015270199959481859191c9cc81b9bdd081cd95d607a1b6044820152606490fd5b801580156118da575b6118cf57805f52600d60205260405f2090805f52600e602052600160405f206117d9868254611294565b8155016117e7858254611294565b9055600154825460405163a9059cbb60e01b81526001600160a01b0391821660048201526024810187905291602091839160449183915f91165af180156106f4576118b2575b505f52600f60205261186b60405f20604051906118498261123e565b848252856020830152600160408301524260608301526001608083015261130b565b60018060a01b03905416905f52600d6020525f51602061220c5f395f51905f52606060018060a01b0360405f205416936040519081526001602082015260016040820152a3565b6118ca9060203d6020116106ed576106e0818361125a565b61182d565b50506113ff90611679565b5060055481146117af565b909181158015611a29575b611a1c579061196c91815f52600d60205260405f20825f52600e602052600160405f2061191e848254611294565b81550161192c838254611294565b9055600154815460405163a9059cbb60e01b81526001600160a01b03918216600482015260248101859052956020928792169082905f9082906044820190565b03925af19283156106f4575f51602061220c5f395f51905f52946060946119ff575b505f52600f6020526119ca60405f20604051906119aa8261123e565b87825284602083015288604083015242868301526001608083015261130b565b60018060a01b03905416935f52600d60205260018060a01b0360405f20541694604051918252602082015260016040820152a3565b611a179060203d6020116106ed576106e0818361125a565b61198e565b9150506113ff9150611679565b5060055482146118f0565b5f1981146105135760010190565b93919392909260055481148015611c24575b611c175760015b828110611be65750925f935b80151580611bda575b80611bd0575b15611bc257805f52600d60205260405f20908360068301541015611aa957506005611aa391015494611a34565b93611a67565b600154825460405163a9059cbb60e01b81526001600160a01b039182166004820152602481018a905296989597509395949193919291602091869160449183915f91165af19283156106f4575f51602061220c5f395f51905f5294606094611ba6575b50805f52600e602052600260405f20611b26858254611294565b815501611b34848254611294565b90555f52600f602052611b7160405f2060405190611b518261123e565b87825284602083015288604083015242868301526002608083015261130b565b60018060a01b03905416935f52600d60205260018060a01b0360405f20541694604051918252602082015260026040820152a3565b611bbd9060203d81116106ed576106e0818361125a565b611b0c565b505050916113ff9150611679565b50600f8510611a76565b50600554811415611a70565b905f52600d602052600560405f2001549081158015611c0c575b611bc257600101611a5b565b506005548214611c00565b5050916113ff9150611679565b508015611a54565b9294939491909183158015611e90575b8015611e88575b611e79579491611c538383611164565b95611c67611c6185896112f8565b84611157565b945f948593849260015b601e8510611cab575b50505050505050611c8d92939450611157565b80611c9c575b50806116685750565b611ca590611679565b5f611c93565b8192939495969891158015611e6e575b611e5157825f52600d60205260405f20928c88600686015410155f14611e325782611ce5916112f8565b5f828152600d6020908152604080832054600154915163a9059cbb60e01b81526001600160a01b039182166004820181905260248201879052909894909392899260449284929091165af19384156106f457611df096611dea95611e16575b50805f52600e602052600360405f20611d5e868254611294565b815501611d6c858254611294565b90555f52600f602052611daa60405f2060405190611d898261123e565b8a82528560208301528d60408301524260608301526004608083015261130b565b875f52600d60205260018060a01b0360405f205416905f51602061220c5f395f51905f5260608d60405190878252602082015260046040820152a3611294565b98611294565b936001915b84861015611e1157600560019101549101939291959495611c71565b611c7a565b611e2d9060203d81116106ed576106e0818361125a565b611d44565b5050918483999692991015611df55791611e4b90611a34565b91611df5565b50975050505050509050611e66929350611157565b806116685750565b506005548314611cbb565b509150506113ff919250611679565b508515611c43565b506005548414611c3c565b90815f52604260205260ff600460405f2001541615611eb8575050565b611ec5603d548214612119565b805f526040602052611ee160ff600860405f2001541615612155565b815f52600d60205260405f209160108301548015611fc357600f840154936283d6008501809511610513577f42ee5ef523a95c6fb3ffdd2e9b34955b83ea8c2b11ff268c87ae6ea25556eaac94611f5b9211159060056012600a6006840154101592015410159082611fbb575b5081611fb3575b50612190565b805f52604260205260405f20600160048201918482845492611f8060ff8516156121cb565b428155015560ff1916179055611fae6040519283924291846040919493926060820195825260208201520152565b0390a1565b90505f611f55565b91505f611f4e565b60405162461bcd60e51b8152602060048201526011602482015270055736572206e6f74206c6576656c20313607c1b6044820152606490fd5b90815f52604960205260ff600460405f2001541615612019575050565b6120266044548214612119565b805f52604760205261204260ff600860405f2001541615612155565b815f52600d60205260405f2091601183015480156120e057600f8401549363025143008501809511610513577f42ee5ef523a95c6fb3ffdd2e9b34955b83ea8c2b11ff268c87ae6ea25556eaac946120bb9211159060026013600f6006840154101592015410159082611fbb575081611fb35750612190565b805f52604960205260405f20600160048201918482845492611f8060ff8516156121cb565b60405162461bcd60e51b815260206004820152601160248201527055736572206e6f74206c6576656c20313560781b6044820152606490fd5b1561212057565b60405162461bcd60e51b815260206004820152600d60248201526c125b9d985b1a59081c9bdd5b99609a1b6044820152606490fd5b1561215c57565b60405162461bcd60e51b815260206004820152600c60248201526b149bdd5b990818db1bdcd95960a21b6044820152606490fd5b1561219757565b60405162461bcd60e51b815260206004820152600c60248201526b4e6f7420656c696769626c6560a01b6044820152606490fd5b156121d257565b60405162461bcd60e51b8152602060048201526011602482015270185b1c9958591e48145d585b1a599a5959607a1b6044820152606490fdfee17b61d324ce17328f433d0ab62581c0f0aa997312bae80fbdfcd2aa9b91d6e3a264697066735822122084a58ff3a9a9de9170510864ecde57625647ce5dc97e145bc75e121fce72195964736f6c634300081e0033",
			"opcodes": "PUSH1 0x80 PUSH1 0x40 MSTORE CALLVALUE PUSH2 0x52B JUMPI PUSH1 0x1 PUSH0 SSTORE PUSH1 0x40 MLOAD PUSH2 0x1E0 DUP2 ADD PUSH1 0x1 PUSH1 0x1 PUSH1 0x40 SHL SUB DUP2 GT DUP3 DUP3 LT OR PUSH2 0x517 JUMPI PUSH1 0x40 MSTORE PUSH8 0xD02AB486CEDC0000 DUP2 MSTORE PUSH9 0x15AF1D78B58C40000 PUSH1 0x20 DUP3 ADD MSTORE PUSH9 0x2B5E3AF16B1880000 PUSH1 0x40 DUP3 ADD MSTORE PUSH9 0x56BC75E2D63100000 PUSH1 0x60 DUP3 ADD MSTORE PUSH9 0xAD78EBC5AC6200000 PUSH1 0x80 DUP3 ADD MSTORE PUSH9 0x15AF1D78B58C400000 PUSH1 0xA0 DUP3 ADD MSTORE PUSH9 0x2B5E3AF16B18800000 PUSH1 0xC0 DUP3 ADD MSTORE PUSH9 0x56BC75E2D631000000 PUSH1 0xE0 DUP3 ADD MSTORE PUSH9 0xAD78EBC5AC62000000 PUSH2 0x100 DUP3 ADD MSTORE PUSH10 0x15AF1D78B58C4000000 PUSH2 0x120 DUP3 ADD MSTORE PUSH10 0x2B5E3AF16B188000000 PUSH2 0x140 DUP3 ADD MSTORE PUSH10 0x56BC75E2D6310000000 PUSH2 0x160 DUP3 ADD MSTORE PUSH10 0xAD78EBC5AC620000000 PUSH2 0x180 DUP3 ADD MSTORE PUSH10 0x15AF1D78B58C40000000 PUSH2 0x1A0 DUP3 ADD MSTORE PUSH10 0x2B5E3AF16B1880000000 PUSH2 0x1C0 DUP3 ADD MSTORE PUSH1 0xB SLOAD PUSH1 0xF PUSH1 0xB SSTORE DUP1 PUSH1 0xF LT PUSH2 0x4C1 JUMPI JUMPDEST POP PUSH1 0xB PUSH0 MSTORE PUSH1 0x20 PUSH0 KECCAK256 SWAP1 PUSH0 JUMPDEST PUSH1 0xF DUP2 LT PUSH2 0x4A4 JUMPI PUSH2 0x141 PUSH2 0x52F JUMP JUMPDEST PUSH9 0x410D586A20A4C0000 DUP2 MSTORE PUSH9 0x1043561A8829300000 PUSH1 0x20 DUP3 ADD MSTORE PUSH9 0x410D586A20A4C00000 PUSH1 0x40 DUP3 ADD MSTORE PUSH10 0x1043561A88293000000 PUSH1 0x60 DUP3 ADD MSTORE PUSH10 0x410D586A20A4C000000 PUSH1 0x80 DUP3 ADD MSTORE PUSH10 0x1043561A882930000000 PUSH1 0xA0 DUP3 ADD MSTORE PUSH10 0x410D586A20A4C0000000 PUSH1 0xC0 DUP3 ADD MSTORE PUSH1 0x13 SLOAD PUSH1 0x7 PUSH1 0x13 SSTORE DUP1 PUSH1 0x7 LT PUSH2 0x44E JUMPI JUMPDEST POP PUSH1 0x13 PUSH0 MSTORE PUSH1 0x20 PUSH0 KECCAK256 SWAP1 PUSH0 JUMPDEST PUSH1 0x7 DUP2 LT PUSH2 0x431 JUMPI PUSH2 0x1D8 PUSH2 0x54E JUMP JUMPDEST PUSH9 0x56BC75E2D63100000 DUP2 MSTORE PUSH9 0xAD78EBC5AC6200000 PUSH1 0x20 DUP3 ADD MSTORE PUSH9 0x15AF1D78B58C400000 PUSH1 0x40 DUP3 ADD MSTORE PUSH9 0x2B5E3AF16B18800000 PUSH1 0x60 DUP3 ADD MSTORE PUSH9 0x56BC75E2D631000000 PUSH1 0x80 DUP3 ADD MSTORE PUSH9 0xAD78EBC5AC62000000 PUSH1 0xA0 DUP3 ADD MSTORE PUSH10 0x15AF1D78B58C4000000 PUSH1 0xC0 DUP3 ADD MSTORE PUSH10 0x2B5E3AF16B188000000 PUSH1 0xE0 DUP3 ADD MSTORE PUSH1 0x14 SLOAD PUSH1 0x8 PUSH1 0x14 SSTORE DUP1 PUSH1 0x8 LT PUSH2 0x3DB JUMPI JUMPDEST POP PUSH1 0x14 PUSH0 MSTORE PUSH1 0x20 PUSH0 KECCAK256 SWAP1 PUSH0 JUMPDEST PUSH1 0x8 DUP2 LT PUSH2 0x3BE JUMPI PUSH2 0x27C PUSH2 0x52F JUMP JUMPDEST PUSH1 0x3 DUP2 MSTORE PUSH1 0x5 PUSH1 0x20 DUP3 ADD MSTORE PUSH1 0x7 PUSH1 0x40 DUP3 ADD MSTORE PUSH1 0x9 PUSH1 0x60 DUP3 ADD MSTORE PUSH1 0xB PUSH1 0x80 DUP3 ADD MSTORE PUSH1 0xD PUSH1 0xA0 DUP3 ADD MSTORE PUSH1 0xF PUSH1 0xC0 DUP3 ADD MSTORE PUSH0 JUMPDEST PUSH1 0x7 DUP2 LT PUSH2 0x3A6 JUMPI PUSH2 0x2BC PUSH2 0x54E JUMP JUMPDEST PUSH1 0x4 DUP2 MSTORE PUSH1 0x5 PUSH1 0x20 DUP3 ADD MSTORE PUSH1 0x6 PUSH1 0x40 DUP3 ADD MSTORE PUSH1 0x7 PUSH1 0x60 DUP3 ADD MSTORE PUSH1 0x8 PUSH1 0x80 DUP3 ADD MSTORE PUSH1 0x9 PUSH1 0xA0 DUP3 ADD MSTORE PUSH1 0xA PUSH1 0xC0 DUP3 ADD MSTORE PUSH1 0xB PUSH1 0xE0 DUP3 ADD MSTORE PUSH0 JUMPDEST PUSH1 0x8 DUP2 LT PUSH2 0x38E JUMPI PUSH2 0x303 PUSH2 0x54E JUMP JUMPDEST PUSH0 DUP2 MSTORE PUSH1 0x1 PUSH1 0x20 DUP3 ADD MSTORE PUSH1 0x1 PUSH1 0x40 DUP3 ADD MSTORE PUSH1 0x1 PUSH1 0x60 DUP3 ADD MSTORE PUSH1 0x1 PUSH1 0x80 DUP3 ADD MSTORE PUSH1 0x1 PUSH1 0xA0 DUP3 ADD MSTORE PUSH1 0x1 PUSH1 0xC0 DUP3 ADD MSTORE PUSH1 0x1 PUSH1 0xE0 DUP3 ADD MSTORE PUSH0 JUMPDEST PUSH1 0x8 DUP2 LT PUSH2 0x376 JUMPI PUSH0 PUSH1 0x36 SSTORE PUSH0 PUSH1 0x37 SSTORE PUSH0 PUSH1 0x38 SSTORE PUSH1 0x1 PUSH1 0x3D SSTORE PUSH0 PUSH1 0x3E SSTORE PUSH0 PUSH1 0x3F SSTORE PUSH1 0x1 PUSH1 0x44 SSTORE PUSH0 PUSH1 0x45 SSTORE PUSH0 PUSH1 0x46 SSTORE PUSH1 0x40 MLOAD PUSH2 0x2261 SWAP1 DUP2 PUSH2 0x585 DUP3 CODECOPY RETURN JUMPDEST PUSH1 0x1 SWAP1 PUSH1 0x20 PUSH1 0xFF DUP5 MLOAD AND SWAP4 ADD SWAP3 DUP2 PUSH1 0x24 ADD SSTORE ADD PUSH2 0x339 JUMP JUMPDEST PUSH1 0x1 SWAP1 PUSH1 0x20 PUSH1 0xFF DUP5 MLOAD AND SWAP4 ADD SWAP3 DUP2 PUSH1 0x1C ADD SSTORE ADD PUSH2 0x2F3 JUMP JUMPDEST PUSH1 0x1 SWAP1 PUSH1 0x20 PUSH1 0xFF DUP5 MLOAD AND SWAP4 ADD SWAP3 DUP2 PUSH1 0x15 ADD SSTORE ADD PUSH2 0x2AC JUMP JUMPDEST DUP2 MLOAD PUSH1 0x1 PUSH1 0x1 PUSH1 0x50 SHL SUB AND DUP2 DUP5 ADD SSTORE PUSH1 0x20 SWAP1 SWAP2 ADD SWAP1 PUSH1 0x1 ADD PUSH2 0x26C JUMP JUMPDEST PUSH1 0x14 PUSH0 MSTORE PUSH2 0x42B SWAP1 PUSH32 0xCE6D7B5282BD9A3661AE061FEED1DBDA4E52AB073B1F9285BE6E155D9C38D4EC ADD PUSH32 0xCE6D7B5282BD9A3661AE061FEED1DBDA4E52AB073B1F9285BE6E155D9C38D4F4 PUSH2 0x56E JUMP JUMPDEST DUP2 PUSH2 0x260 JUMP JUMPDEST DUP2 MLOAD PUSH1 0x1 PUSH1 0x1 PUSH1 0x50 SHL SUB AND DUP2 DUP5 ADD SSTORE PUSH1 0x20 SWAP1 SWAP2 ADD SWAP1 PUSH1 0x1 ADD PUSH2 0x1C8 JUMP JUMPDEST PUSH1 0x13 PUSH0 MSTORE PUSH2 0x49E SWAP1 PUSH32 0x66DE8FFDA797E3DE9C05E8FC57B3BF0EC28A930D40B0D285D93C06501CF6A090 ADD PUSH32 0x66DE8FFDA797E3DE9C05E8FC57B3BF0EC28A930D40B0D285D93C06501CF6A097 PUSH2 0x56E JUMP JUMPDEST DUP2 PUSH2 0x1BC JUMP JUMPDEST DUP2 MLOAD PUSH1 0x1 PUSH1 0x1 PUSH1 0x50 SHL SUB AND DUP2 DUP5 ADD SSTORE PUSH1 0x20 SWAP1 SWAP2 ADD SWAP1 PUSH1 0x1 ADD PUSH2 0x131 JUMP JUMPDEST PUSH1 0xB PUSH0 MSTORE PUSH2 0x511 SWAP1 PUSH32 0x175B7A638427703F0DBE7BB9BBF987A2551717B34E79F33B5B1008D1FA01DB9 ADD PUSH32 0x175B7A638427703F0DBE7BB9BBF987A2551717B34E79F33B5B1008D1FA01DC8 PUSH2 0x56E JUMP JUMPDEST PUSH0 PUSH2 0x125 JUMP JUMPDEST PUSH4 0x4E487B71 PUSH1 0xE0 SHL PUSH0 MSTORE PUSH1 0x41 PUSH1 0x4 MSTORE PUSH1 0x24 PUSH0 REVERT JUMPDEST PUSH0 DUP1 REVERT JUMPDEST PUSH1 0x40 MLOAD SWAP1 PUSH1 0xE0 DUP3 ADD PUSH1 0x1 PUSH1 0x1 PUSH1 0x40 SHL SUB DUP2 GT DUP4 DUP3 LT OR PUSH2 0x517 JUMPI PUSH1 0x40 MSTORE JUMP JUMPDEST PUSH1 0x40 MLOAD SWAP1 PUSH2 0x100 DUP3 ADD PUSH1 0x1 PUSH1 0x1 PUSH1 0x40 SHL SUB DUP2 GT DUP4 DUP3 LT OR PUSH2 0x517 JUMPI PUSH1 0x40 MSTORE JUMP JUMPDEST DUP2 DUP2 LT PUSH2 0x579 JUMPI POP POP JUMP JUMPDEST PUSH0 DUP2 SSTORE PUSH1 0x1 ADD PUSH2 0x56E JUMP INVALID PUSH1 0x80 DUP1 PUSH1 0x40 MSTORE PUSH1 0x4 CALLDATASIZE LT ISZERO PUSH2 0x12 JUMPI PUSH0 DUP1 REVERT JUMPDEST PUSH0 CALLDATALOAD PUSH1 0xE0 SHR SWAP1 DUP2 PUSH4 0x1C234A8 EQ PUSH2 0x10A8 JUMPI POP DUP1 PUSH4 0x2132D204 EQ PUSH2 0x107C JUMPI DUP1 PUSH4 0x2350268F EQ PUSH2 0x1022 JUMPI DUP1 PUSH4 0x23FD338E EQ PUSH2 0xA9B JUMPI DUP1 PUSH4 0x24513088 EQ PUSH2 0xFF8 JUMPI DUP1 PUSH4 0x2A891534 EQ PUSH2 0xFDB JUMPI DUP1 PUSH4 0x2AE0EE0D EQ PUSH2 0xF37 JUMPI DUP1 PUSH4 0x2F48AB7D EQ PUSH2 0xFB3 JUMPI DUP1 PUSH4 0x3080B5BC EQ PUSH2 0xF96 JUMPI DUP1 PUSH4 0x31BB6A30 EQ PUSH2 0xF7B JUMPI DUP1 PUSH4 0x32BC298C EQ PUSH2 0xF5E JUMPI DUP1 PUSH4 0x32FCD966 EQ PUSH2 0xF3C JUMPI DUP1 PUSH4 0x375B43B4 EQ PUSH2 0xF37 JUMPI DUP1 PUSH4 0x39AB3603 EQ PUSH2 0xEDD JUMPI DUP1 PUSH4 0x45977D03 EQ PUSH2 0xABD JUMPI DUP1 PUSH4 0x4B8CBF9B EQ PUSH2 0xAA0 JUMPI DUP1 PUSH4 0x58C7D352 EQ PUSH2 0xA9B JUMPI DUP1 PUSH4 0x5B62D1D5 EQ PUSH2 0xA7E JUMPI DUP1 PUSH4 0x705FEE2D EQ PUSH2 0xA60 JUMPI DUP1 PUSH4 0x76F5F700 EQ PUSH2 0xA43 JUMPI DUP1 PUSH4 0x78F6AD6D EQ PUSH2 0xA26 JUMPI DUP1 PUSH4 0x7CDC65F2 EQ PUSH2 0x9FE JUMPI DUP1 PUSH4 0x956A3228 EQ PUSH2 0x9D2 JUMPI DUP1 PUSH4 0x9B40AB97 EQ PUSH2 0x9B5 JUMPI DUP1 PUSH4 0xA59D17D1 EQ PUSH2 0x998 JUMPI DUP1 PUSH4 0xA5E52B99 EQ PUSH2 0x97B JUMPI DUP1 PUSH4 0xAE4708DC EQ PUSH2 0x90D JUMPI DUP1 PUSH4 0xBFF1F9E1 EQ PUSH2 0x8F0 JUMPI DUP1 PUSH4 0xC216212A EQ PUSH2 0x8B8 JUMPI DUP1 PUSH4 0xC8DF2908 EQ PUSH2 0x894 JUMPI DUP1 PUSH4 0xC9ED0708 EQ PUSH2 0x877 JUMPI DUP1 PUSH4 0xCA8E9121 EQ PUSH2 0x85A JUMPI DUP1 PUSH4 0xD0A2FD79 EQ PUSH2 0x82E JUMPI DUP1 PUSH4 0xD2F0490D EQ PUSH2 0x813 JUMPI DUP1 PUSH4 0xD54D6DDB EQ PUSH2 0x7F5 JUMPI DUP1 PUSH4 0xE898FC38 EQ PUSH2 0x7D8 JUMPI DUP1 PUSH4 0xE9E34A16 EQ PUSH2 0x7B0 JUMPI DUP1 PUSH4 0xEBE0FF15 EQ PUSH2 0x78D JUMPI DUP1 PUSH4 0xEC597E6F EQ PUSH2 0x770 JUMPI DUP1 PUSH4 0xF207564E EQ PUSH2 0x233 JUMPI DUP1 PUSH4 0xF5D74D93 EQ PUSH2 0x20B JUMPI PUSH4 0xFDDC806F EQ PUSH2 0x1EA JUMPI PUSH0 DUP1 REVERT JUMPDEST CALLVALUE PUSH2 0x207 JUMPI PUSH0 CALLDATASIZE PUSH1 0x3 NOT ADD SLT PUSH2 0x207 JUMPI PUSH1 0x20 PUSH1 0x37 SLOAD PUSH1 0x40 MLOAD SWAP1 DUP2 MSTORE RETURN JUMPDEST PUSH0 DUP1 REVERT JUMPDEST CALLVALUE PUSH2 0x207 JUMPI PUSH0 CALLDATASIZE PUSH1 0x3 NOT ADD SLT PUSH2 0x207 JUMPI PUSH1 0x4 SLOAD PUSH1 0x40 MLOAD PUSH1 0x1 PUSH1 0x1 PUSH1 0xA0 SHL SUB SWAP1 SWAP2 AND DUP2 MSTORE PUSH1 0x20 SWAP1 RETURN JUMPDEST CALLVALUE PUSH2 0x207 JUMPI PUSH1 0x20 CALLDATASIZE PUSH1 0x3 NOT ADD SLT PUSH2 0x207 JUMPI PUSH1 0x4 CALLDATALOAD CALLER PUSH0 MSTORE PUSH1 0xC PUSH1 0x20 MSTORE PUSH1 0x40 PUSH0 KECCAK256 SLOAD PUSH2 0x736 JUMPI DUP1 PUSH0 MSTORE PUSH1 0xD PUSH1 0x20 MSTORE PUSH1 0x3 PUSH1 0x40 PUSH0 KECCAK256 ADD SLOAD ISZERO PUSH2 0x6FF JUMPI PUSH1 0x1 SLOAD PUSH0 SWAP1 PUSH1 0x20 SWAP1 PUSH2 0x2C0 SWAP1 PUSH1 0x1 PUSH1 0x1 PUSH1 0xA0 SHL SUB AND PUSH2 0x28A PUSH2 0x10DA JUMP JUMPDEST SWAP1 SLOAD PUSH1 0x40 MLOAD PUSH4 0x23B872DD PUSH1 0xE0 SHL DUP2 MSTORE CALLER PUSH1 0x4 DUP3 ADD MSTORE ADDRESS PUSH1 0x24 DUP3 ADD MSTORE PUSH1 0x3 SWAP3 SWAP1 SWAP3 SHL SHR PUSH1 0x44 DUP3 ADD MSTORE SWAP4 DUP5 SWAP3 DUP4 SWAP2 SWAP1 DUP3 SWAP1 PUSH1 0x64 DUP3 ADD SWAP1 JUMP JUMPDEST SUB SWAP3 GAS CALL DUP1 ISZERO PUSH2 0x6F4 JUMPI PUSH2 0x6C7 JUMPI JUMPDEST POP PUSH1 0x5 SLOAD SWAP1 PUSH2 0x2E1 PUSH1 0x6 SLOAD DUP1 SWAP4 PUSH2 0x1294 JUMP JUMPDEST SWAP2 PUSH1 0x1 DUP2 ADD DUP1 SWAP2 GT PUSH2 0x513 JUMPI PUSH1 0x6 SSTORE CALLER PUSH0 MSTORE PUSH1 0xC PUSH1 0x20 MSTORE DUP2 PUSH1 0x40 PUSH0 KECCAK256 SSTORE DUP2 PUSH0 MSTORE PUSH1 0xD PUSH1 0x20 MSTORE PUSH1 0x40 PUSH0 KECCAK256 SWAP1 CALLER PUSH12 0xFFFFFFFFFFFFFFFFFFFFFFFF PUSH1 0xA0 SHL DUP4 SLOAD AND OR DUP3 SSTORE TIMESTAMP PUSH1 0x2 DUP4 ADD SSTORE DUP3 PUSH1 0x3 DUP4 ADD SSTORE PUSH1 0x4 DUP3 ADD DUP2 DUP2 SSTORE PUSH1 0x1 PUSH1 0x6 DUP5 ADD SSTORE PUSH2 0x344 PUSH2 0x10DA JUMP JUMPDEST SWAP1 SLOAD SWAP1 PUSH1 0x3 SHL SHR PUSH1 0xA DUP5 ADD SSTORE TIMESTAMP PUSH1 0xF DUP5 ADD SSTORE DUP2 PUSH0 MSTORE PUSH1 0xD PUSH1 0x20 MSTORE PUSH1 0x7 PUSH1 0x40 PUSH0 KECCAK256 ADD DUP1 SLOAD SWAP1 PUSH1 0x1 DUP3 ADD DUP1 SWAP3 GT PUSH2 0x513 JUMPI SSTORE DUP2 PUSH0 MSTORE PUSH1 0x12 PUSH1 0x20 MSTORE PUSH2 0x389 DUP5 PUSH1 0x40 PUSH0 KECCAK256 PUSH2 0x1572 JUMP JUMPDEST PUSH1 0x7 SLOAD PUSH1 0x1 PUSH1 0x40 SHL DUP2 LT ISZERO PUSH2 0x6B3 JUMPI DUP1 PUSH1 0x1 PUSH2 0x3AA SWAP3 ADD PUSH1 0x7 SSTORE PUSH1 0x7 PUSH2 0x110C JUMP JUMPDEST DUP2 SLOAD SWAP1 PUSH1 0x3 SHL SWAP1 DUP7 DUP3 SHL SWAP2 PUSH0 NOT SWAP1 SHL NOT AND OR SWAP1 SSTORE PUSH1 0x9 SLOAD DUP5 PUSH0 MSTORE PUSH1 0xA PUSH1 0x20 MSTORE PUSH1 0x40 PUSH0 KECCAK256 SSTORE PUSH0 PUSH0 SWAP1 DUP4 PUSH0 MSTORE PUSH1 0x11 PUSH1 0x20 MSTORE PUSH1 0x2 PUSH1 0x40 PUSH0 KECCAK256 SLOAD LT PUSH0 EQ PUSH2 0x588 JUMPI POP POP DUP4 PUSH0 MSTORE PUSH1 0xD PUSH1 0x20 MSTORE DUP2 PUSH1 0x5 PUSH1 0x40 PUSH0 KECCAK256 ADD SSTORE DUP2 PUSH0 MSTORE PUSH1 0x11 PUSH1 0x20 MSTORE PUSH1 0x40 PUSH0 KECCAK256 DUP1 SLOAD SWAP1 PUSH1 0x1 DUP3 ADD DUP1 SWAP3 GT PUSH2 0x513 JUMPI SSTORE DUP2 JUMPDEST PUSH0 SWAP1 JUMPDEST PUSH1 0xF DUP3 LT PUSH2 0x527 JUMPI JUMPDEST POP POP PUSH2 0x461 PUSH2 0x430 PUSH2 0x10DA JUMP JUMPDEST SWAP1 SLOAD PUSH1 0x40 MLOAD SWAP2 PUSH1 0x3 SHL SHR PUSH2 0x443 DUP3 PUSH2 0x1222 JUMP JUMPDEST DUP2 MSTORE PUSH0 PUSH1 0x20 DUP3 ADD MSTORE TIMESTAMP PUSH1 0x40 DUP3 ADD MSTORE PUSH1 0x1 PUSH1 0x60 DUP3 ADD MSTORE PUSH1 0x1 DUP6 ADD PUSH2 0x12A1 JUMP JUMPDEST PUSH2 0x469 PUSH2 0x10DA JUMP JUMPDEST SWAP1 SLOAD SWAP1 PUSH1 0x3 SHL SHR SWAP1 PUSH1 0x5 DUP3 MUL DUP3 ISZERO SWAP3 DUP1 DUP3 DIV PUSH1 0x5 EQ DUP5 OR ISZERO PUSH2 0x513 JUMPI PUSH1 0x3C DUP2 MUL SWAP4 DUP2 DUP6 DIV PUSH1 0x3C EQ DUP2 OR ISZERO PUSH2 0x513 JUMPI PUSH1 0x19 DUP3 MUL SWAP2 DUP3 DIV PUSH1 0x19 EQ OR ISZERO PUSH2 0x513 JUMPI PUSH2 0x4CC SWAP4 PUSH2 0x4C4 PUSH1 0x64 DUP10 SWAP5 PUSH2 0x4BE DUP3 DUP1 SWAP7 DIV PUSH2 0x1612 JUMP JUMPDEST DIV PUSH2 0x1679 JUMP JUMPDEST DIV SWAP2 SLOAD PUSH2 0x17A6 JUMP JUMPDEST PUSH0 MSTORE PUSH1 0xD PUSH1 0x20 MSTORE PUSH1 0x5 PUSH1 0x1 DUP1 PUSH1 0xA0 SHL SUB PUSH1 0x40 PUSH0 KECCAK256 SLOAD AND SWAP2 ADD SLOAD PUSH1 0x40 MLOAD SWAP1 DUP2 MSTORE PUSH32 0x309BB360E8B69C23937CCC5FB01F9AEEEAD1C95A99604E175113FF82F2B1723A PUSH1 0x20 CALLER SWAP3 LOG4 STOP JUMPDEST PUSH4 0x4E487B71 PUSH1 0xE0 SHL PUSH0 MSTORE PUSH1 0x11 PUSH1 0x4 MSTORE PUSH1 0x24 PUSH0 REVERT JUMPDEST DUP1 ISZERO PUSH2 0x583 JUMPI DUP1 PUSH0 MSTORE PUSH1 0xD PUSH1 0x20 MSTORE PUSH1 0x9 PUSH1 0x40 PUSH0 KECCAK256 ADD DUP1 SLOAD SWAP1 PUSH1 0x1 DUP3 ADD DUP1 SWAP3 GT PUSH2 0x513 JUMPI SSTORE DUP1 PUSH0 MSTORE PUSH1 0x10 PUSH1 0x20 MSTORE PUSH1 0x40 PUSH0 KECCAK256 DUP3 PUSH0 MSTORE PUSH1 0x20 MSTORE PUSH2 0x56A DUP7 PUSH1 0x40 PUSH0 KECCAK256 PUSH2 0x1572 JUMP JUMPDEST PUSH0 MSTORE PUSH1 0xD PUSH1 0x20 MSTORE PUSH1 0x1 PUSH1 0x5 PUSH1 0x40 PUSH0 KECCAK256 ADD SLOAD SWAP2 ADD SWAP1 PUSH2 0x41A JUMP JUMPDEST PUSH2 0x423 JUMP JUMPDEST PUSH0 JUMPDEST PUSH1 0xF DUP2 LT PUSH2 0x59A JUMPI JUMPDEST POP POP PUSH2 0x417 JUMP JUMPDEST DUP2 PUSH2 0x6AE JUMPI DUP5 PUSH0 MSTORE PUSH1 0x10 PUSH1 0x20 MSTORE PUSH1 0x40 PUSH0 KECCAK256 PUSH1 0x1 DUP3 ADD DUP1 DUP4 GT PUSH2 0x513 JUMPI PUSH0 MSTORE PUSH1 0x20 MSTORE PUSH1 0x40 PUSH0 KECCAK256 SLOAD PUSH1 0x2 DUP3 ADD DUP1 DUP4 GT PUSH2 0x513 JUMPI PUSH1 0xFF DUP2 GT PUSH2 0x513 JUMPI PUSH1 0x1 SWAP1 SHL GT PUSH2 0x5E5 JUMPI JUMPDEST PUSH1 0x1 ADD PUSH2 0x58A JUMP JUMPDEST SWAP4 SWAP3 PUSH0 SWAP6 SWAP2 SWAP6 JUMPDEST DUP5 PUSH0 MSTORE PUSH1 0x10 PUSH1 0x20 MSTORE PUSH1 0x40 PUSH0 KECCAK256 DUP7 PUSH0 MSTORE PUSH1 0x20 MSTORE PUSH1 0x40 PUSH0 KECCAK256 SLOAD DUP2 LT ISZERO PUSH2 0x6A0 JUMPI DUP7 PUSH2 0x68F JUMPI DUP5 PUSH0 MSTORE PUSH1 0x10 PUSH1 0x20 MSTORE PUSH1 0x40 PUSH0 KECCAK256 DUP7 PUSH0 MSTORE PUSH1 0x20 MSTORE PUSH2 0x62E DUP2 PUSH1 0x40 PUSH0 KECCAK256 PUSH2 0x110C JUMP JUMPDEST SWAP1 SLOAD SWAP1 PUSH1 0x3 SHL SHR DUP1 PUSH0 MSTORE PUSH1 0x11 PUSH1 0x20 MSTORE PUSH1 0x2 PUSH1 0x40 PUSH0 KECCAK256 SLOAD LT PUSH2 0x653 JUMPI JUMPDEST POP PUSH1 0x1 ADD PUSH2 0x5EC JUMP JUMPDEST SWAP2 SWAP4 POP SWAP6 POP DUP7 PUSH0 MSTORE PUSH1 0xD PUSH1 0x20 MSTORE DUP1 PUSH1 0x5 PUSH1 0x40 PUSH0 KECCAK256 ADD SSTORE DUP1 PUSH0 MSTORE PUSH1 0x11 PUSH1 0x20 MSTORE PUSH1 0x40 PUSH0 KECCAK256 DUP1 SLOAD SWAP1 PUSH1 0x1 DUP3 ADD DUP1 SWAP3 GT PUSH2 0x513 JUMPI SSTORE SWAP2 PUSH1 0x1 DUP1 SWAP7 SWAP1 PUSH2 0x64A JUMP JUMPDEST POP SWAP3 SWAP4 PUSH1 0x1 SWAP1 SWAP6 SWAP2 SWAP6 JUMPDEST SWAP1 POP PUSH2 0x5DD JUMP JUMPDEST POP SWAP3 SWAP4 PUSH1 0x1 SWAP1 SWAP6 SWAP2 SWAP6 PUSH2 0x699 JUMP JUMPDEST PUSH2 0x593 JUMP JUMPDEST PUSH4 0x4E487B71 PUSH1 0xE0 SHL PUSH0 MSTORE PUSH1 0x41 PUSH1 0x4 MSTORE PUSH1 0x24 PUSH0 REVERT JUMPDEST PUSH2 0x6E8 SWAP1 PUSH1 0x20 RETURNDATASIZE PUSH1 0x20 GT PUSH2 0x6ED JUMPI JUMPDEST PUSH2 0x6E0 DUP2 DUP4 PUSH2 0x125A JUMP JUMPDEST DUP2 ADD SWAP1 PUSH2 0x127C JUMP JUMPDEST PUSH2 0x2CF JUMP JUMPDEST POP RETURNDATASIZE PUSH2 0x6D6 JUMP JUMPDEST PUSH1 0x40 MLOAD RETURNDATASIZE PUSH0 DUP3 RETURNDATACOPY RETURNDATASIZE SWAP1 REVERT JUMPDEST PUSH1 0x40 MLOAD PUSH3 0x461BCD PUSH1 0xE5 SHL DUP2 MSTORE PUSH1 0x20 PUSH1 0x4 DUP3 ADD MSTORE PUSH1 0xF PUSH1 0x24 DUP3 ADD MSTORE PUSH15 0x24B73B30B634B21039B837B739B7B9 PUSH1 0x89 SHL PUSH1 0x44 DUP3 ADD MSTORE PUSH1 0x64 SWAP1 REVERT JUMPDEST PUSH1 0x40 MLOAD PUSH3 0x461BCD PUSH1 0xE5 SHL DUP2 MSTORE PUSH1 0x20 PUSH1 0x4 DUP3 ADD MSTORE PUSH1 0x12 PUSH1 0x24 DUP3 ADD MSTORE PUSH18 0x105B1C9958591E481C9959DA5CDD195C9959 PUSH1 0x72 SHL PUSH1 0x44 DUP3 ADD MSTORE PUSH1 0x64 SWAP1 REVERT JUMPDEST CALLVALUE PUSH2 0x207 JUMPI PUSH0 CALLDATASIZE PUSH1 0x3 NOT ADD SLT PUSH2 0x207 JUMPI PUSH1 0x20 PUSH1 0x5 SLOAD PUSH1 0x40 MLOAD SWAP1 DUP2 MSTORE RETURN JUMPDEST CALLVALUE PUSH2 0x207 JUMPI PUSH0 CALLDATASIZE PUSH1 0x3 NOT ADD SLT PUSH2 0x207 JUMPI PUSH1 0x20 PUSH1 0x40 MLOAD PUSH9 0x3635C9ADC5DEA00000 DUP2 MSTORE RETURN JUMPDEST CALLVALUE PUSH2 0x207 JUMPI PUSH0 CALLDATASIZE PUSH1 0x3 NOT ADD SLT PUSH2 0x207 JUMPI PUSH1 0x3 SLOAD PUSH1 0x40 MLOAD PUSH1 0x1 PUSH1 0x1 PUSH1 0xA0 SHL SUB SWAP1 SWAP2 AND DUP2 MSTORE PUSH1 0x20 SWAP1 RETURN JUMPDEST CALLVALUE PUSH2 0x207 JUMPI PUSH0 CALLDATASIZE PUSH1 0x3 NOT ADD SLT PUSH2 0x207 JUMPI PUSH1 0x20 PUSH1 0x3E SLOAD PUSH1 0x40 MLOAD SWAP1 DUP2 MSTORE RETURN JUMPDEST CALLVALUE PUSH2 0x207 JUMPI PUSH1 0x20 CALLDATASIZE PUSH1 0x3 NOT ADD SLT PUSH2 0x207 JUMPI PUSH2 0x811 PUSH1 0x4 CALLDATALOAD PUSH2 0x1363 JUMP JUMPDEST STOP JUMPDEST CALLVALUE PUSH2 0x207 JUMPI PUSH0 CALLDATASIZE PUSH1 0x3 NOT ADD SLT PUSH2 0x207 JUMPI PUSH1 0x20 PUSH1 0x40 MLOAD PUSH1 0x5 DUP2 MSTORE RETURN JUMPDEST CALLVALUE PUSH2 0x207 JUMPI PUSH1 0x20 CALLDATASIZE PUSH1 0x3 NOT ADD SLT PUSH2 0x207 JUMPI PUSH1 0x4 CALLDATALOAD PUSH1 0x8 DUP2 LT ISZERO PUSH2 0x207 JUMPI PUSH1 0x20 SWAP1 PUSH1 0x1C ADD SLOAD PUSH1 0x40 MLOAD SWAP1 DUP2 MSTORE RETURN JUMPDEST CALLVALUE PUSH2 0x207 JUMPI PUSH0 CALLDATASIZE PUSH1 0x3 NOT ADD SLT PUSH2 0x207 JUMPI PUSH1 0x20 PUSH1 0x36 SLOAD PUSH1 0x40 MLOAD SWAP1 DUP2 MSTORE RETURN JUMPDEST CALLVALUE PUSH2 0x207 JUMPI PUSH0 CALLDATASIZE PUSH1 0x3 NOT ADD SLT PUSH2 0x207 JUMPI PUSH1 0x20 PUSH1 0x3D SLOAD PUSH1 0x40 MLOAD SWAP1 DUP2 MSTORE RETURN JUMPDEST CALLVALUE PUSH2 0x207 JUMPI PUSH0 CALLDATASIZE PUSH1 0x3 NOT ADD SLT PUSH2 0x207 JUMPI PUSH1 0x20 PUSH1 0x40 MLOAD PUSH10 0x21E19E0C9BAB2400000 DUP2 MSTORE RETURN JUMPDEST CALLVALUE PUSH2 0x207 JUMPI PUSH1 0x20 CALLDATASIZE PUSH1 0x3 NOT ADD SLT PUSH2 0x207 JUMPI PUSH1 0x4 CALLDATALOAD PUSH1 0xB SLOAD DUP2 LT ISZERO PUSH2 0x207 JUMPI PUSH2 0x8E1 PUSH1 0x20 SWAP2 PUSH2 0x10C2 JUMP JUMPDEST SWAP1 SLOAD SWAP1 PUSH1 0x3 SHL SHR PUSH1 0x40 MLOAD SWAP1 DUP2 MSTORE RETURN JUMPDEST CALLVALUE PUSH2 0x207 JUMPI PUSH0 CALLDATASIZE PUSH1 0x3 NOT ADD SLT PUSH2 0x207 JUMPI PUSH1 0x20 PUSH1 0x6 SLOAD PUSH1 0x40 MLOAD SWAP1 DUP2 MSTORE RETURN JUMPDEST CALLVALUE PUSH2 0x207 JUMPI PUSH1 0x20 CALLDATASIZE PUSH1 0x3 NOT ADD SLT PUSH2 0x207 JUMPI PUSH1 0x4 CALLDATALOAD PUSH1 0x13 SLOAD DUP2 LT ISZERO PUSH2 0x207 JUMPI PUSH1 0x13 SLOAD DUP2 LT ISZERO PUSH2 0x967 JUMPI PUSH1 0x13 PUSH0 MSTORE PUSH32 0x66DE8FFDA797E3DE9C05E8FC57B3BF0EC28A930D40B0D285D93C06501CF6A090 ADD SLOAD PUSH1 0x40 MLOAD SWAP1 DUP2 MSTORE PUSH1 0x20 SWAP1 RETURN JUMPDEST PUSH4 0x4E487B71 PUSH1 0xE0 SHL PUSH0 MSTORE PUSH1 0x32 PUSH1 0x4 MSTORE PUSH1 0x24 PUSH0 REVERT JUMPDEST CALLVALUE PUSH2 0x207 JUMPI PUSH0 CALLDATASIZE PUSH1 0x3 NOT ADD SLT PUSH2 0x207 JUMPI PUSH1 0x20 PUSH1 0x40 MLOAD PUSH3 0x83D600 DUP2 MSTORE RETURN JUMPDEST CALLVALUE PUSH2 0x207 JUMPI PUSH0 CALLDATASIZE PUSH1 0x3 NOT ADD SLT PUSH2 0x207 JUMPI PUSH1 0x20 PUSH1 0x3F SLOAD PUSH1 0x40 MLOAD SWAP1 DUP2 MSTORE RETURN JUMPDEST CALLVALUE PUSH2 0x207 JUMPI PUSH0 CALLDATASIZE PUSH1 0x3 NOT ADD SLT PUSH2 0x207 JUMPI PUSH1 0x20 PUSH1 0x45 SLOAD PUSH1 0x40 MLOAD SWAP1 DUP2 MSTORE RETURN JUMPDEST CALLVALUE PUSH2 0x207 JUMPI PUSH1 0x20 CALLDATASIZE PUSH1 0x3 NOT ADD SLT PUSH2 0x207 JUMPI PUSH1 0x4 CALLDATALOAD PUSH1 0x8 DUP2 LT ISZERO PUSH2 0x207 JUMPI PUSH1 0x20 SWAP1 PUSH1 0x24 ADD SLOAD PUSH1 0x40 MLOAD SWAP1 DUP2 MSTORE RETURN JUMPDEST CALLVALUE PUSH2 0x207 JUMPI PUSH0 CALLDATASIZE PUSH1 0x3 NOT ADD SLT PUSH2 0x207 JUMPI PUSH1 0x2 SLOAD PUSH1 0x40 MLOAD PUSH1 0x1 PUSH1 0x1 PUSH1 0xA0 SHL SUB SWAP1 SWAP2 AND DUP2 MSTORE PUSH1 0x20 SWAP1 RETURN JUMPDEST CALLVALUE PUSH2 0x207 JUMPI PUSH0 CALLDATASIZE PUSH1 0x3 NOT ADD SLT PUSH2 0x207 JUMPI PUSH1 0x20 PUSH1 0x9 SLOAD PUSH1 0x40 MLOAD SWAP1 DUP2 MSTORE RETURN JUMPDEST CALLVALUE PUSH2 0x207 JUMPI PUSH0 CALLDATASIZE PUSH1 0x3 NOT ADD SLT PUSH2 0x207 JUMPI PUSH1 0x20 PUSH1 0x40 MLOAD PUSH3 0x93A80 DUP2 MSTORE RETURN JUMPDEST CALLVALUE PUSH2 0x207 JUMPI PUSH0 CALLDATASIZE PUSH1 0x3 NOT ADD SLT PUSH2 0x207 JUMPI PUSH1 0x20 PUSH1 0x40 MLOAD PUSH4 0x2514300 DUP2 MSTORE RETURN JUMPDEST CALLVALUE PUSH2 0x207 JUMPI PUSH0 CALLDATASIZE PUSH1 0x3 NOT ADD SLT PUSH2 0x207 JUMPI PUSH1 0x20 PUSH1 0x46 SLOAD PUSH1 0x40 MLOAD SWAP1 DUP2 MSTORE RETURN JUMPDEST PUSH2 0x1121 JUMP JUMPDEST CALLVALUE PUSH2 0x207 JUMPI PUSH0 CALLDATASIZE PUSH1 0x3 NOT ADD SLT PUSH2 0x207 JUMPI PUSH1 0x20 PUSH1 0x44 SLOAD PUSH1 0x40 MLOAD SWAP1 DUP2 MSTORE RETURN JUMPDEST CALLVALUE PUSH2 0x207 JUMPI PUSH1 0x20 CALLDATASIZE PUSH1 0x3 NOT ADD SLT PUSH2 0x207 JUMPI PUSH1 0x4 CALLDATALOAD DUP1 PUSH0 MSTORE PUSH1 0xD PUSH1 0x20 MSTORE PUSH1 0x40 PUSH0 KECCAK256 PUSH2 0xAF1 PUSH1 0x1 DUP1 PUSH1 0xA0 SHL SUB DUP3 SLOAD AND CALLER EQ PUSH2 0x11E3 JUMP JUMPDEST PUSH1 0x6 DUP2 ADD SWAP1 DUP2 SLOAD SWAP2 PUSH1 0xF DUP4 LT ISZERO PUSH2 0xEA1 JUMPI PUSH2 0xB0B DUP4 PUSH2 0x10C2 JUMP JUMPDEST SWAP1 SLOAD PUSH1 0x1 SLOAD PUSH1 0x40 MLOAD PUSH4 0x23B872DD PUSH1 0xE0 SHL DUP2 MSTORE CALLER PUSH1 0x4 DUP3 ADD MSTORE ADDRESS PUSH1 0x24 DUP3 ADD MSTORE PUSH1 0x3 SWAP4 SWAP1 SWAP4 SHL SWAP2 SWAP1 SWAP2 SHR PUSH1 0x44 DUP4 ADD DUP2 SWAP1 MSTORE SWAP3 SWAP2 SWAP1 PUSH1 0x20 SWAP1 DUP3 SWAP1 PUSH1 0x64 SWAP1 DUP3 SWAP1 PUSH0 SWAP1 PUSH1 0x1 PUSH1 0x1 PUSH1 0xA0 SHL SUB AND GAS CALL DUP1 ISZERO PUSH2 0x6F4 JUMPI PUSH2 0xE84 JUMPI JUMPDEST POP DUP1 SLOAD SWAP1 PUSH1 0x1 DUP3 ADD DUP1 SWAP3 GT PUSH2 0x513 JUMPI SSTORE PUSH1 0xA DUP3 ADD PUSH2 0xB7E DUP3 DUP3 SLOAD PUSH2 0x1294 JUMP JUMPDEST SWAP1 SSTORE PUSH2 0xBAE PUSH1 0x40 MLOAD PUSH2 0xB8F DUP2 PUSH2 0x1222 JUMP JUMPDEST DUP3 DUP2 MSTORE PUSH0 PUSH1 0x20 DUP3 ADD MSTORE TIMESTAMP PUSH1 0x40 DUP3 ADD MSTORE PUSH1 0x1 PUSH1 0x60 DUP3 ADD MSTORE PUSH1 0x1 DUP5 ADD PUSH2 0x12A1 JUMP JUMPDEST PUSH1 0x5 DUP2 MUL DUP2 ISZERO SWAP1 DUP3 DUP2 DIV PUSH1 0x5 EQ DUP3 OR ISZERO PUSH2 0x513 JUMPI PUSH1 0x19 DUP4 MUL DUP4 DUP2 DIV PUSH1 0x19 EQ DUP4 OR ISZERO PUSH2 0x513 JUMPI PUSH2 0xBE4 SWAP2 PUSH2 0x4BE PUSH1 0x64 DUP1 SWAP4 DIV PUSH2 0x1612 JUMP JUMPDEST PUSH1 0x14 DUP3 MUL SWAP2 DUP3 DIV PUSH1 0x14 EQ OR ISZERO PUSH2 0x513 JUMPI PUSH1 0x64 SWAP1 DIV SWAP1 PUSH1 0x4 DUP2 ADD SWAP2 DUP3 SLOAD SWAP4 PUSH1 0x1 DUP2 ADD SWAP5 DUP6 DUP3 GT PUSH2 0x513 JUMPI DUP3 PUSH2 0xC1E DUP8 PUSH2 0xC36 SWAP6 DUP11 DUP3 SWAP6 PUSH2 0x18E5 JUMP JUMPDEST DUP8 PUSH1 0x5 DUP7 ADD PUSH2 0xC30 DUP5 DUP5 DUP5 DUP5 SLOAD PUSH2 0x1A42 JUMP JUMPDEST SLOAD PUSH2 0x1C2C JUMP JUMPDEST PUSH1 0xA DUP4 EQ PUSH2 0xD9E JUMPI JUMPDEST PUSH1 0xF DUP4 EQ PUSH2 0xCAA JUMPI JUMPDEST POP POP PUSH1 0x40 MLOAD SWAP1 DUP2 MSTORE PUSH1 0x60 PUSH1 0x20 DUP3 ADD MSTORE PUSH1 0x15 PUSH1 0x60 DUP3 ADD MSTORE PUSH21 0x53706F6E736F727368697020737472756374757265 PUSH1 0x58 SHL PUSH1 0x80 DUP3 ADD MSTORE TIMESTAMP PUSH1 0x40 DUP3 ADD MSTORE PUSH32 0xAE1560E7D725CAF8D266D531BF32F170B87264ECA8D1265202C334CFEB5BC382 PUSH1 0xA0 CALLER SWAP3 LOG3 STOP JUMPDEST PUSH1 0x11 TIMESTAMP SWAP2 ADD SSTORE DUP3 PUSH0 MSTORE PUSH1 0xD PUSH1 0x20 MSTORE PUSH1 0x40 PUSH0 KECCAK256 SWAP1 SLOAD PUSH0 MSTORE PUSH1 0xD PUSH1 0x20 MSTORE PUSH1 0x40 PUSH0 KECCAK256 PUSH1 0x13 DUP2 ADD DUP1 SLOAD PUSH1 0x1 DUP2 ADD DUP1 SWAP2 GT PUSH2 0x513 JUMPI DUP1 PUSH1 0x2 SWAP3 SSTORE LT ISZERO SWAP1 DUP2 PUSH2 0xD80 JUMPI JUMPDEST DUP2 PUSH2 0xD70 JUMPI JUMPDEST POP PUSH2 0xD5A JUMPI JUMPDEST PUSH1 0x2 PUSH1 0x13 DUP3 ADD SLOAD LT ISZERO SWAP1 DUP2 PUSH2 0xD37 JUMPI JUMPDEST DUP2 PUSH2 0xD28 JUMPI JUMPDEST POP PUSH2 0xD17 JUMPI JUMPDEST DUP3 DUP1 PUSH2 0xC48 JUMP JUMPDEST PUSH2 0xD23 PUSH1 0x44 SLOAD DUP4 PUSH2 0x1FFC JUMP JUMPDEST PUSH2 0xD10 JUMP JUMPDEST PUSH1 0xF SWAP2 POP PUSH1 0x6 ADD SLOAD EQ DUP4 PUSH2 0xD0A JUMP JUMPDEST SWAP1 POP PUSH1 0x11 DUP2 ADD SLOAD PUSH1 0xF DUP3 ADD SLOAD SWAP1 PUSH4 0x2514300 DUP3 ADD DUP1 SWAP3 GT PUSH2 0x513 JUMPI GT ISZERO SWAP1 PUSH2 0xD04 JUMP JUMPDEST PUSH2 0xD6B PUSH1 0x4 DUP3 ADD SLOAD PUSH1 0x44 SLOAD SWAP1 PUSH2 0x1FFC JUMP JUMPDEST PUSH2 0xCF4 JUMP JUMPDEST PUSH1 0xF SWAP2 POP PUSH1 0x6 ADD SLOAD LT ISZERO DUP5 PUSH2 0xCEE JUMP JUMPDEST SWAP1 POP PUSH1 0xF DUP2 ADD SLOAD PUSH4 0x2514300 DUP2 ADD DUP1 SWAP2 GT PUSH2 0x513 JUMPI TIMESTAMP GT ISZERO SWAP1 PUSH2 0xCE8 JUMP JUMPDEST TIMESTAMP PUSH1 0x10 DUP3 ADD SSTORE PUSH0 DUP5 DUP2 MSTORE PUSH1 0xD PUSH1 0x20 MSTORE PUSH1 0x40 DUP1 DUP3 KECCAK256 DUP5 SLOAD DUP4 MSTORE SWAP2 KECCAK256 PUSH1 0x12 DUP2 ADD DUP1 SLOAD PUSH1 0x1 DUP2 ADD SWAP1 DUP2 LT PUSH2 0x513 JUMPI DUP1 PUSH1 0x5 SWAP3 SSTORE LT ISZERO SWAP1 DUP2 PUSH2 0xE67 JUMPI JUMPDEST DUP2 PUSH2 0xE57 JUMPI JUMPDEST POP PUSH2 0xE41 JUMPI JUMPDEST PUSH1 0x5 PUSH1 0x12 DUP3 ADD SLOAD LT ISZERO SWAP1 DUP2 PUSH2 0xE1F JUMPI JUMPDEST DUP2 PUSH2 0xE10 JUMPI JUMPDEST POP ISZERO PUSH2 0xC3F JUMPI PUSH2 0xE0B PUSH1 0x3D SLOAD DUP6 PUSH2 0x1E9B JUMP JUMPDEST PUSH2 0xC3F JUMP JUMPDEST PUSH1 0xA SWAP2 POP PUSH1 0x6 ADD SLOAD EQ DUP6 PUSH2 0xDF9 JUMP JUMPDEST SWAP1 POP PUSH1 0x10 DUP2 ADD SLOAD PUSH1 0xF DUP3 ADD SLOAD SWAP1 PUSH3 0x83D600 DUP3 ADD DUP1 SWAP3 GT PUSH2 0x513 JUMPI GT ISZERO SWAP1 PUSH2 0xDF3 JUMP JUMPDEST PUSH2 0xE52 PUSH1 0x4 DUP3 ADD SLOAD PUSH1 0x3D SLOAD SWAP1 PUSH2 0x1E9B JUMP JUMPDEST PUSH2 0xDE3 JUMP JUMPDEST PUSH1 0xA SWAP2 POP PUSH1 0x6 ADD SLOAD LT ISZERO DUP7 PUSH2 0xDDD JUMP JUMPDEST SWAP1 POP PUSH1 0xF DUP2 ADD SLOAD PUSH3 0x83D600 DUP2 ADD DUP1 SWAP2 GT PUSH2 0x513 JUMPI TIMESTAMP GT ISZERO SWAP1 PUSH2 0xDD7 JUMP JUMPDEST PUSH2 0xE9C SWAP1 PUSH1 0x20 RETURNDATASIZE PUSH1 0x20 GT PUSH2 0x6ED JUMPI PUSH2 0x6E0 DUP2 DUP4 PUSH2 0x125A JUMP JUMPDEST PUSH2 0xB5F JUMP JUMPDEST PUSH1 0x40 MLOAD PUSH3 0x461BCD PUSH1 0xE5 SHL DUP2 MSTORE PUSH1 0x20 PUSH1 0x4 DUP3 ADD MSTORE PUSH1 0x14 PUSH1 0x24 DUP3 ADD MSTORE PUSH20 0x105B1C9958591E48185D081B585E081B195D995B PUSH1 0x62 SHL PUSH1 0x44 DUP3 ADD MSTORE PUSH1 0x64 SWAP1 REVERT JUMPDEST CALLVALUE PUSH2 0x207 JUMPI PUSH1 0x20 CALLDATASIZE PUSH1 0x3 NOT ADD SLT PUSH2 0x207 JUMPI PUSH1 0x4 CALLDATALOAD PUSH1 0x7 SLOAD DUP2 LT ISZERO PUSH2 0x207 JUMPI PUSH1 0x7 SLOAD DUP2 LT ISZERO PUSH2 0x967 JUMPI PUSH1 0x7 PUSH0 MSTORE PUSH32 0xA66CC928B5EDB82AF9BD49922954155AB7B0942694BEA4CE44661D9A8736C688 ADD SLOAD PUSH1 0x40 MLOAD SWAP1 DUP2 MSTORE PUSH1 0x20 SWAP1 RETURN JUMPDEST PUSH2 0x113C JUMP JUMPDEST CALLVALUE PUSH2 0x207 JUMPI PUSH0 CALLDATASIZE PUSH1 0x3 NOT ADD SLT PUSH2 0x207 JUMPI PUSH1 0x20 PUSH1 0x40 MLOAD PUSH8 0xDE0B6B3A7640000 DUP2 MSTORE RETURN JUMPDEST CALLVALUE PUSH2 0x207 JUMPI PUSH0 CALLDATASIZE PUSH1 0x3 NOT ADD SLT PUSH2 0x207 JUMPI PUSH1 0x20 PUSH1 0x40 MLOAD PUSH3 0x15180 DUP2 MSTORE RETURN JUMPDEST CALLVALUE PUSH2 0x207 JUMPI PUSH0 CALLDATASIZE PUSH1 0x3 NOT ADD SLT PUSH2 0x207 JUMPI PUSH1 0x20 PUSH1 0x40 MLOAD PUSH1 0x2 DUP2 MSTORE RETURN JUMPDEST CALLVALUE PUSH2 0x207 JUMPI PUSH0 CALLDATASIZE PUSH1 0x3 NOT ADD SLT PUSH2 0x207 JUMPI PUSH1 0x20 PUSH1 0x38 SLOAD PUSH1 0x40 MLOAD SWAP1 DUP2 MSTORE RETURN JUMPDEST CALLVALUE PUSH2 0x207 JUMPI PUSH0 CALLDATASIZE PUSH1 0x3 NOT ADD SLT PUSH2 0x207 JUMPI PUSH1 0x1 SLOAD PUSH1 0x40 MLOAD PUSH1 0x1 PUSH1 0x1 PUSH1 0xA0 SHL SUB SWAP1 SWAP2 AND DUP2 MSTORE PUSH1 0x20 SWAP1 RETURN JUMPDEST CALLVALUE PUSH2 0x207 JUMPI PUSH0 CALLDATASIZE PUSH1 0x3 NOT ADD SLT PUSH2 0x207 JUMPI PUSH1 0x20 PUSH1 0x40 MLOAD PUSH3 0x278D00 DUP2 MSTORE RETURN JUMPDEST CALLVALUE PUSH2 0x207 JUMPI PUSH1 0x20 CALLDATASIZE PUSH1 0x3 NOT ADD SLT PUSH2 0x207 JUMPI PUSH1 0x40 PUSH2 0x1016 PUSH1 0x4 CALLDATALOAD PUSH2 0x1182 JUMP JUMPDEST DUP3 MLOAD SWAP2 DUP3 MSTORE PUSH1 0x20 DUP3 ADD MSTORE RETURN JUMPDEST CALLVALUE PUSH2 0x207 JUMPI PUSH1 0x20 CALLDATASIZE PUSH1 0x3 NOT ADD SLT PUSH2 0x207 JUMPI PUSH1 0x4 CALLDATALOAD PUSH1 0x14 SLOAD DUP2 LT ISZERO PUSH2 0x207 JUMPI PUSH1 0x14 SLOAD DUP2 LT ISZERO PUSH2 0x967 JUMPI PUSH1 0x14 PUSH0 MSTORE PUSH32 0xCE6D7B5282BD9A3661AE061FEED1DBDA4E52AB073B1F9285BE6E155D9C38D4EC ADD SLOAD PUSH1 0x40 MLOAD SWAP1 DUP2 MSTORE PUSH1 0x20 SWAP1 RETURN JUMPDEST CALLVALUE PUSH2 0x207 JUMPI PUSH1 0x20 CALLDATASIZE PUSH1 0x3 NOT ADD SLT PUSH2 0x207 JUMPI PUSH1 0x4 CALLDATALOAD PUSH1 0x7 DUP2 LT ISZERO PUSH2 0x207 JUMPI PUSH1 0x20 SWAP1 PUSH1 0x15 ADD SLOAD PUSH1 0x40 MLOAD SWAP1 DUP2 MSTORE RETURN JUMPDEST CALLVALUE PUSH2 0x207 JUMPI PUSH0 CALLDATASIZE PUSH1 0x3 NOT ADD SLT PUSH2 0x207 JUMPI DUP1 PUSH2 0x2710 PUSH1 0x20 SWAP3 MSTORE RETURN JUMPDEST PUSH1 0xB SLOAD DUP2 LT ISZERO PUSH2 0x967 JUMPI PUSH1 0xB PUSH0 MSTORE PUSH1 0x20 PUSH0 KECCAK256 ADD SWAP1 PUSH0 SWAP1 JUMP JUMPDEST PUSH1 0xB SLOAD ISZERO PUSH2 0x967 JUMPI PUSH1 0xB PUSH0 SWAP1 DUP2 MSTORE PUSH32 0x175B7A638427703F0DBE7BB9BBF987A2551717B34E79F33B5B1008D1FA01DB9 SWAP2 JUMP JUMPDEST DUP1 SLOAD DUP3 LT ISZERO PUSH2 0x967 JUMPI PUSH0 MSTORE PUSH1 0x20 PUSH0 KECCAK256 ADD SWAP1 PUSH0 SWAP1 JUMP JUMPDEST CALLVALUE PUSH2 0x207 JUMPI PUSH0 CALLDATASIZE PUSH1 0x3 NOT ADD SLT PUSH2 0x207 JUMPI PUSH1 0x20 PUSH1 0x40 MLOAD PUSH1 0xA DUP2 MSTORE RETURN JUMPDEST CALLVALUE PUSH2 0x207 JUMPI PUSH0 CALLDATASIZE PUSH1 0x3 NOT ADD SLT PUSH2 0x207 JUMPI PUSH1 0x20 PUSH1 0x40 MLOAD PUSH1 0xF DUP2 MSTORE RETURN JUMPDEST SWAP2 SWAP1 DUP3 SUB SWAP2 DUP3 GT PUSH2 0x513 JUMPI JUMP JUMPDEST DUP2 ISZERO PUSH2 0x116E JUMPI DIV SWAP1 JUMP JUMPDEST PUSH4 0x4E487B71 PUSH1 0xE0 SHL PUSH0 MSTORE PUSH1 0x12 PUSH1 0x4 MSTORE PUSH1 0x24 PUSH0 REVERT JUMPDEST SWAP1 DUP2 PUSH0 MSTORE PUSH1 0xD PUSH1 0x20 MSTORE PUSH1 0x3 PUSH1 0x40 PUSH0 KECCAK256 ADD SLOAD ISZERO PUSH2 0x11DC JUMPI PUSH1 0x9 SLOAD DUP3 PUSH0 MSTORE PUSH1 0xA PUSH1 0x20 MSTORE PUSH1 0x40 PUSH0 KECCAK256 SLOAD SWAP1 DUP2 DUP2 GT ISZERO PUSH2 0x11D2 JUMPI PUSH2 0x11C7 PUSH2 0x11CF SWAP3 PUSH8 0xDE0B6B3A7640000 SWAP3 PUSH2 0x1157 JUMP JUMPDEST DIV DUP1 SWAP4 PUSH2 0x15A6 JUMP JUMPDEST SWAP1 JUMP JUMPDEST POP POP SWAP1 POP PUSH0 SWAP1 PUSH0 SWAP1 JUMP JUMPDEST PUSH0 SWAP2 POP DUP2 SWAP1 JUMP JUMPDEST ISZERO PUSH2 0x11EA JUMPI JUMP JUMPDEST PUSH1 0x40 MLOAD PUSH3 0x461BCD PUSH1 0xE5 SHL DUP2 MSTORE PUSH1 0x20 PUSH1 0x4 DUP3 ADD MSTORE PUSH1 0x10 PUSH1 0x24 DUP3 ADD MSTORE PUSH16 0x139BDD081E5BDD5C881858D8DBDD5B9D PUSH1 0x82 SHL PUSH1 0x44 DUP3 ADD MSTORE PUSH1 0x64 SWAP1 REVERT JUMPDEST PUSH1 0x80 DUP2 ADD SWAP1 DUP2 LT PUSH8 0xFFFFFFFFFFFFFFFF DUP3 GT OR PUSH2 0x6B3 JUMPI PUSH1 0x40 MSTORE JUMP JUMPDEST PUSH1 0xA0 DUP2 ADD SWAP1 DUP2 LT PUSH8 0xFFFFFFFFFFFFFFFF DUP3 GT OR PUSH2 0x6B3 JUMPI PUSH1 0x40 MSTORE JUMP JUMPDEST SWAP1 PUSH1 0x1F DUP1 NOT SWAP2 ADD AND DUP2 ADD SWAP1 DUP2 LT PUSH8 0xFFFFFFFFFFFFFFFF DUP3 GT OR PUSH2 0x6B3 JUMPI PUSH1 0x40 MSTORE JUMP JUMPDEST SWAP1 DUP2 PUSH1 0x20 SWAP2 SUB SLT PUSH2 0x207 JUMPI MLOAD DUP1 ISZERO ISZERO DUP2 SUB PUSH2 0x207 JUMPI SWAP1 JUMP JUMPDEST SWAP2 SWAP1 DUP3 ADD DUP1 SWAP3 GT PUSH2 0x513 JUMPI JUMP JUMPDEST DUP1 SLOAD PUSH1 0x1 PUSH1 0x40 SHL DUP2 LT ISZERO PUSH2 0x6B3 JUMPI PUSH1 0x1 DUP2 ADD DUP1 DUP4 SSTORE DUP2 LT ISZERO PUSH2 0x967 JUMPI PUSH1 0x3 PUSH1 0x60 SWAP2 PUSH1 0xFF SWAP4 PUSH0 MSTORE PUSH1 0x20 PUSH0 KECCAK256 SWAP1 PUSH1 0x2 SHL ADD DUP5 MLOAD DUP2 SSTORE PUSH1 0x20 DUP6 ADD MLOAD PUSH1 0x1 DUP3 ADD SSTORE PUSH1 0x40 DUP6 ADD MLOAD PUSH1 0x2 DUP3 ADD SSTORE ADD SWAP3 ADD MLOAD AND PUSH1 0xFF NOT DUP3 SLOAD AND OR SWAP1 SSTORE JUMP JUMPDEST DUP2 DUP2 MUL SWAP3 SWAP2 DUP2 ISZERO SWAP2 DUP5 DIV EQ OR ISZERO PUSH2 0x513 JUMPI JUMP JUMPDEST DUP1 SLOAD SWAP1 PUSH1 0x1 PUSH1 0x40 SHL DUP3 LT ISZERO PUSH2 0x6B3 JUMPI PUSH1 0x1 DUP3 ADD DUP1 DUP3 SSTORE DUP3 LT ISZERO PUSH2 0x967 JUMPI PUSH1 0x4 SWAP2 PUSH1 0x80 SWAP2 PUSH0 MSTORE PUSH1 0x5 PUSH1 0x20 PUSH0 KECCAK256 SWAP2 MUL ADD SWAP3 DUP1 MLOAD DUP5 SSTORE PUSH1 0x20 DUP2 ADD MLOAD PUSH1 0x1 DUP6 ADD SSTORE PUSH1 0x40 DUP2 ADD MLOAD PUSH1 0x2 DUP6 ADD SSTORE PUSH1 0x60 DUP2 ADD MLOAD PUSH1 0x3 DUP6 ADD SSTORE ADD MLOAD SWAP2 ADD SSTORE JUMP JUMPDEST DUP1 PUSH0 MSTORE PUSH1 0xD PUSH1 0x20 MSTORE PUSH1 0x40 PUSH0 KECCAK256 SWAP1 PUSH1 0x3 DUP3 ADD SLOAD ISZERO PUSH2 0x153C JUMPI PUSH2 0x138E PUSH1 0x1 DUP1 PUSH1 0xA0 SHL SUB DUP4 SLOAD AND CALLER EQ PUSH2 0x11E3 JUMP JUMPDEST PUSH1 0x9 SLOAD SWAP2 DUP2 PUSH0 MSTORE PUSH1 0xA PUSH1 0x20 MSTORE PUSH1 0x40 PUSH0 KECCAK256 SLOAD DUP1 DUP5 EQ PUSH2 0x1536 JUMPI PUSH2 0x13B9 PUSH8 0xDE0B6B3A7640000 SWAP2 DUP6 PUSH2 0x1157 JUMP JUMPDEST DIV SWAP2 DUP3 ISZERO PUSH2 0x1525 JUMPI PUSH2 0x13CB DUP4 DUP3 PUSH2 0x15A6 JUMP JUMPDEST SWAP4 DUP2 PUSH0 MSTORE PUSH1 0xA PUSH1 0x20 MSTORE PUSH1 0x40 PUSH0 KECCAK256 SSTORE DUP4 DUP1 PUSH2 0x1401 JUMPI JUMPDEST SWAP2 POP POP DUP2 GT PUSH2 0x13ED JUMPI POP POP JUMP JUMPDEST PUSH2 0x13FF SWAP2 PUSH2 0x13FA SWAP2 PUSH2 0x1157 JUMP JUMPDEST PUSH2 0x1679 JUMP JUMPDEST JUMP JUMPDEST PUSH2 0x14AA SWAP3 PUSH2 0x146B DUP4 PUSH1 0x20 SWAP5 PUSH0 MSTORE PUSH1 0xE DUP6 MSTORE PUSH1 0x6 PUSH1 0x40 PUSH0 KECCAK256 PUSH2 0x1423 DUP7 DUP3 SLOAD PUSH2 0x1294 JUMP JUMPDEST DUP2 SSTORE ADD PUSH2 0x1431 DUP6 DUP3 SLOAD PUSH2 0x1294 JUMP JUMPDEST SWAP1 SSTORE DUP1 PUSH0 MSTORE PUSH1 0xF DUP6 MSTORE PUSH1 0x40 PUSH0 KECCAK256 PUSH1 0x40 MLOAD SWAP2 PUSH2 0x144B DUP4 PUSH2 0x123E JUMP JUMPDEST DUP3 MSTORE DUP5 DUP7 DUP4 ADD MSTORE PUSH1 0x1 PUSH1 0x40 DUP4 ADD MSTORE TIMESTAMP PUSH1 0x60 DUP4 ADD MSTORE PUSH1 0x9 PUSH1 0x80 DUP4 ADD MSTORE PUSH2 0x130B JUMP JUMPDEST PUSH1 0x1 SLOAD SWAP1 SLOAD PUSH1 0x40 MLOAD PUSH4 0xA9059CBB PUSH1 0xE0 SHL DUP2 MSTORE PUSH1 0x1 PUSH1 0x1 PUSH1 0xA0 SHL SUB SWAP2 DUP3 AND PUSH1 0x4 DUP3 ADD MSTORE PUSH1 0x24 DUP2 ADD SWAP4 SWAP1 SWAP4 MSTORE SWAP2 SWAP4 DUP5 SWAP3 SWAP1 SWAP2 AND SWAP1 DUP3 SWAP1 PUSH0 SWAP1 DUP3 SWAP1 PUSH1 0x44 DUP3 ADD SWAP1 JUMP JUMPDEST SUB SWAP3 GAS CALL SWAP1 DUP2 ISZERO PUSH2 0x6F4 JUMPI PUSH0 SWAP2 PUSH2 0x1506 JUMPI JUMPDEST POP ISZERO PUSH2 0x14CA JUMPI PUSH0 DUP1 DUP4 PUSH2 0x13E0 JUMP JUMPDEST PUSH1 0x40 MLOAD PUSH3 0x461BCD PUSH1 0xE5 SHL DUP2 MSTORE PUSH1 0x20 PUSH1 0x4 DUP3 ADD MSTORE PUSH1 0x14 PUSH1 0x24 DUP3 ADD MSTORE PUSH20 0x1554D115081D1C985B9CD9995C8819985A5B1959 PUSH1 0x62 SHL PUSH1 0x44 DUP3 ADD MSTORE PUSH1 0x64 SWAP1 REVERT JUMPDEST PUSH2 0x151F SWAP2 POP PUSH1 0x20 RETURNDATASIZE PUSH1 0x20 GT PUSH2 0x6ED JUMPI PUSH2 0x6E0 DUP2 DUP4 PUSH2 0x125A JUMP JUMPDEST PUSH0 PUSH2 0x14BC JUMP JUMPDEST SWAP2 POP POP PUSH0 MSTORE PUSH1 0xA PUSH1 0x20 MSTORE PUSH1 0x40 PUSH0 KECCAK256 SSTORE JUMP JUMPDEST POP POP POP POP JUMP JUMPDEST PUSH1 0x40 MLOAD PUSH3 0x461BCD PUSH1 0xE5 SHL DUP2 MSTORE PUSH1 0x20 PUSH1 0x4 DUP3 ADD MSTORE PUSH1 0xE PUSH1 0x24 DUP3 ADD MSTORE PUSH14 0x155CD95C881B9BDD08199BDD5B99 PUSH1 0x92 SHL PUSH1 0x44 DUP3 ADD MSTORE PUSH1 0x64 SWAP1 REVERT JUMPDEST DUP1 SLOAD PUSH1 0x1 PUSH1 0x40 SHL DUP2 LT ISZERO PUSH2 0x6B3 JUMPI PUSH2 0x158F SWAP2 PUSH1 0x1 DUP3 ADD DUP2 SSTORE PUSH2 0x110C JUMP JUMPDEST DUP2 SWAP3 SWAP2 SLOAD SWAP1 PUSH1 0x3 SHL SWAP2 DUP3 SHL SWAP2 PUSH0 NOT SWAP1 SHL NOT AND OR SWAP1 SSTORE JUMP JUMPDEST DUP1 PUSH0 MSTORE PUSH1 0xD PUSH1 0x20 MSTORE PUSH1 0x40 PUSH0 KECCAK256 SWAP1 PUSH0 MSTORE PUSH1 0xE PUSH1 0x20 MSTORE PUSH1 0xA PUSH2 0x15DC PUSH1 0x40 PUSH0 KECCAK256 SWAP3 PUSH1 0xF SWAP1 PUSH1 0x1 PUSH1 0x8 DUP3 ADD SLOAD GT PUSH2 0x1609 JUMPI JUMPDEST DUP4 ADD SLOAD PUSH2 0x12F8 JUMP JUMPDEST DIV SWAP1 SLOAD DUP2 DUP2 LT ISZERO PUSH2 0x1602 JUMPI PUSH2 0x15F0 SWAP2 PUSH2 0x1157 JUMP JUMPDEST SWAP1 DUP2 DUP2 GT ISZERO PUSH2 0x15FD JUMPI POP SWAP1 JUMP JUMPDEST SWAP1 POP SWAP1 JUMP JUMPDEST POP POP POP PUSH0 SWAP1 JUMP JUMPDEST PUSH1 0x14 SWAP2 POP PUSH2 0x15D4 JUMP JUMPDEST PUSH1 0x7 SLOAD SWAP1 DUP2 ISZERO DUP1 ISZERO PUSH2 0x1671 JUMPI JUMPDEST PUSH2 0x165E JUMPI PUSH8 0xDE0B6B3A7640000 DUP2 MUL SWAP1 DUP1 DUP3 DIV PUSH8 0xDE0B6B3A7640000 EQ SWAP1 ISZERO OR ISZERO PUSH2 0x513 JUMPI PUSH2 0x1659 SWAP2 PUSH2 0x1651 SWAP2 PUSH2 0x1164 JUMP JUMPDEST PUSH1 0x9 SLOAD PUSH2 0x1294 JUMP JUMPDEST PUSH1 0x9 SSTORE JUMP JUMPDEST DUP1 SWAP2 POP PUSH2 0x1668 JUMPI POP JUMP JUMPDEST PUSH2 0x13FF SWAP1 PUSH2 0x1679 JUMP JUMPDEST POP DUP1 ISZERO PUSH2 0x161F JUMP JUMPDEST PUSH1 0x2 SLOAD PUSH1 0x1 PUSH1 0x1 PUSH1 0xA0 SHL SUB AND DUP1 ISZERO PUSH2 0x176D JUMPI PUSH1 0x1 SLOAD PUSH1 0x40 MLOAD PUSH4 0xA9059CBB PUSH1 0xE0 SHL PUSH1 0x20 DUP1 DUP4 ADD SWAP2 DUP3 MSTORE PUSH1 0x1 PUSH1 0x1 PUSH1 0xA0 SHL SUB SWAP5 DUP6 AND PUSH1 0x24 DUP5 ADD MSTORE PUSH1 0x44 DUP1 DUP5 ADD DUP8 SWAP1 MSTORE DUP4 MSTORE SWAP4 SWAP1 SWAP3 AND SWAP3 SWAP2 PUSH0 SWAP2 PUSH2 0x16CE PUSH1 0x64 DUP3 PUSH2 0x125A JUMP JUMPDEST MLOAD SWAP1 DUP3 DUP6 GAS CALL ISZERO PUSH2 0x6F4 JUMPI PUSH0 MLOAD RETURNDATASIZE PUSH2 0x1764 JUMPI POP DUP1 EXTCODESIZE ISZERO JUMPDEST PUSH2 0x1752 JUMPI POP PUSH1 0x80 SWAP1 PUSH1 0x5 SLOAD PUSH0 MSTORE PUSH1 0xE PUSH1 0x20 MSTORE PUSH1 0x40 PUSH0 KECCAK256 PUSH2 0x1706 DUP3 DUP3 SLOAD PUSH2 0x1294 JUMP JUMPDEST SWAP1 SSTORE PUSH32 0xF67C60BC8519C61563AC616D368A6DF646202C88D10744D736438BC4FBE2816 PUSH1 0x1 DUP1 PUSH1 0xA0 SHL SUB PUSH1 0x2 SLOAD AND SWAP3 DUP4 SWAP3 PUSH1 0x40 MLOAD SWAP1 DUP2 MSTORE PUSH0 PUSH1 0x20 DUP3 ADD MSTORE PUSH0 PUSH1 0x40 DUP3 ADD MSTORE TIMESTAMP PUSH1 0x60 DUP3 ADD MSTORE LOG3 JUMP JUMPDEST PUSH4 0x5274AFE7 PUSH1 0xE0 SHL PUSH0 MSTORE PUSH1 0x4 MSTORE PUSH1 0x24 PUSH0 REVERT JUMPDEST PUSH1 0x1 EQ ISZERO PUSH2 0x16E5 JUMP JUMPDEST PUSH1 0x40 MLOAD PUSH3 0x461BCD PUSH1 0xE5 SHL DUP2 MSTORE PUSH1 0x20 PUSH1 0x4 DUP3 ADD MSTORE PUSH1 0x11 PUSH1 0x24 DUP3 ADD MSTORE PUSH17 0x199959481859191C9CC81B9BDD081CD95D PUSH1 0x7A SHL PUSH1 0x44 DUP3 ADD MSTORE PUSH1 0x64 SWAP1 REVERT JUMPDEST DUP1 ISZERO DUP1 ISZERO PUSH2 0x18DA JUMPI JUMPDEST PUSH2 0x18CF JUMPI DUP1 PUSH0 MSTORE PUSH1 0xD PUSH1 0x20 MSTORE PUSH1 0x40 PUSH0 KECCAK256 SWAP1 DUP1 PUSH0 MSTORE PUSH1 0xE PUSH1 0x20 MSTORE PUSH1 0x1 PUSH1 0x40 PUSH0 KECCAK256 PUSH2 0x17D9 DUP7 DUP3 SLOAD PUSH2 0x1294 JUMP JUMPDEST DUP2 SSTORE ADD PUSH2 0x17E7 DUP6 DUP3 SLOAD PUSH2 0x1294 JUMP JUMPDEST SWAP1 SSTORE PUSH1 0x1 SLOAD DUP3 SLOAD PUSH1 0x40 MLOAD PUSH4 0xA9059CBB PUSH1 0xE0 SHL DUP2 MSTORE PUSH1 0x1 PUSH1 0x1 PUSH1 0xA0 SHL SUB SWAP2 DUP3 AND PUSH1 0x4 DUP3 ADD MSTORE PUSH1 0x24 DUP2 ADD DUP8 SWAP1 MSTORE SWAP2 PUSH1 0x20 SWAP2 DUP4 SWAP2 PUSH1 0x44 SWAP2 DUP4 SWAP2 PUSH0 SWAP2 AND GAS CALL DUP1 ISZERO PUSH2 0x6F4 JUMPI PUSH2 0x18B2 JUMPI JUMPDEST POP PUSH0 MSTORE PUSH1 0xF PUSH1 0x20 MSTORE PUSH2 0x186B PUSH1 0x40 PUSH0 KECCAK256 PUSH1 0x40 MLOAD SWAP1 PUSH2 0x1849 DUP3 PUSH2 0x123E JUMP JUMPDEST DUP5 DUP3 MSTORE DUP6 PUSH1 0x20 DUP4 ADD MSTORE PUSH1 0x1 PUSH1 0x40 DUP4 ADD MSTORE TIMESTAMP PUSH1 0x60 DUP4 ADD MSTORE PUSH1 0x1 PUSH1 0x80 DUP4 ADD MSTORE PUSH2 0x130B JUMP JUMPDEST PUSH1 0x1 DUP1 PUSH1 0xA0 SHL SUB SWAP1 SLOAD AND SWAP1 PUSH0 MSTORE PUSH1 0xD PUSH1 0x20 MSTORE PUSH0 MLOAD PUSH1 0x20 PUSH2 0x220C PUSH0 CODECOPY PUSH0 MLOAD SWAP1 PUSH0 MSTORE PUSH1 0x60 PUSH1 0x1 DUP1 PUSH1 0xA0 SHL SUB PUSH1 0x40 PUSH0 KECCAK256 SLOAD AND SWAP4 PUSH1 0x40 MLOAD SWAP1 DUP2 MSTORE PUSH1 0x1 PUSH1 0x20 DUP3 ADD MSTORE PUSH1 0x1 PUSH1 0x40 DUP3 ADD MSTORE LOG3 JUMP JUMPDEST PUSH2 0x18CA SWAP1 PUSH1 0x20 RETURNDATASIZE PUSH1 0x20 GT PUSH2 0x6ED JUMPI PUSH2 0x6E0 DUP2 DUP4 PUSH2 0x125A JUMP JUMPDEST PUSH2 0x182D JUMP JUMPDEST POP POP PUSH2 0x13FF SWAP1 PUSH2 0x1679 JUMP JUMPDEST POP PUSH1 0x5 SLOAD DUP2 EQ PUSH2 0x17AF JUMP JUMPDEST SWAP1 SWAP2 DUP2 ISZERO DUP1 ISZERO PUSH2 0x1A29 JUMPI JUMPDEST PUSH2 0x1A1C JUMPI SWAP1 PUSH2 0x196C SWAP2 DUP2 PUSH0 MSTORE PUSH1 0xD PUSH1 0x20 MSTORE PUSH1 0x40 PUSH0 KECCAK256 DUP3 PUSH0 MSTORE PUSH1 0xE PUSH1 0x20 MSTORE PUSH1 0x1 PUSH1 0x40 PUSH0 KECCAK256 PUSH2 0x191E DUP5 DUP3 SLOAD PUSH2 0x1294 JUMP JUMPDEST DUP2 SSTORE ADD PUSH2 0x192C DUP4 DUP3 SLOAD PUSH2 0x1294 JUMP JUMPDEST SWAP1 SSTORE PUSH1 0x1 SLOAD DUP2 SLOAD PUSH1 0x40 MLOAD PUSH4 0xA9059CBB PUSH1 0xE0 SHL DUP2 MSTORE PUSH1 0x1 PUSH1 0x1 PUSH1 0xA0 SHL SUB SWAP2 DUP3 AND PUSH1 0x4 DUP3 ADD MSTORE PUSH1 0x24 DUP2 ADD DUP6 SWAP1 MSTORE SWAP6 PUSH1 0x20 SWAP3 DUP8 SWAP3 AND SWAP1 DUP3 SWAP1 PUSH0 SWAP1 DUP3 SWAP1 PUSH1 0x44 DUP3 ADD SWAP1 JUMP JUMPDEST SUB SWAP3 GAS CALL SWAP3 DUP4 ISZERO PUSH2 0x6F4 JUMPI PUSH0 MLOAD PUSH1 0x20 PUSH2 0x220C PUSH0 CODECOPY PUSH0 MLOAD SWAP1 PUSH0 MSTORE SWAP5 PUSH1 0x60 SWAP5 PUSH2 0x19FF JUMPI JUMPDEST POP PUSH0 MSTORE PUSH1 0xF PUSH1 0x20 MSTORE PUSH2 0x19CA PUSH1 0x40 PUSH0 KECCAK256 PUSH1 0x40 MLOAD SWAP1 PUSH2 0x19AA DUP3 PUSH2 0x123E JUMP JUMPDEST DUP8 DUP3 MSTORE DUP5 PUSH1 0x20 DUP4 ADD MSTORE DUP9 PUSH1 0x40 DUP4 ADD MSTORE TIMESTAMP DUP7 DUP4 ADD MSTORE PUSH1 0x1 PUSH1 0x80 DUP4 ADD MSTORE PUSH2 0x130B JUMP JUMPDEST PUSH1 0x1 DUP1 PUSH1 0xA0 SHL SUB SWAP1 SLOAD AND SWAP4 PUSH0 MSTORE PUSH1 0xD PUSH1 0x20 MSTORE PUSH1 0x1 DUP1 PUSH1 0xA0 SHL SUB PUSH1 0x40 PUSH0 KECCAK256 SLOAD AND SWAP5 PUSH1 0x40 MLOAD SWAP2 DUP3 MSTORE PUSH1 0x20 DUP3 ADD MSTORE PUSH1 0x1 PUSH1 0x40 DUP3 ADD MSTORE LOG3 JUMP JUMPDEST PUSH2 0x1A17 SWAP1 PUSH1 0x20 RETURNDATASIZE PUSH1 0x20 GT PUSH2 0x6ED JUMPI PUSH2 0x6E0 DUP2 DUP4 PUSH2 0x125A JUMP JUMPDEST PUSH2 0x198E JUMP JUMPDEST SWAP2 POP POP PUSH2 0x13FF SWAP2 POP PUSH2 0x1679 JUMP JUMPDEST POP PUSH1 0x5 SLOAD DUP3 EQ PUSH2 0x18F0 JUMP JUMPDEST PUSH0 NOT DUP2 EQ PUSH2 0x513 JUMPI PUSH1 0x1 ADD SWAP1 JUMP JUMPDEST SWAP4 SWAP2 SWAP4 SWAP3 SWAP1 SWAP3 PUSH1 0x5 SLOAD DUP2 EQ DUP1 ISZERO PUSH2 0x1C24 JUMPI JUMPDEST PUSH2 0x1C17 JUMPI PUSH1 0x1 JUMPDEST DUP3 DUP2 LT PUSH2 0x1BE6 JUMPI POP SWAP3 PUSH0 SWAP4 JUMPDEST DUP1 ISZERO ISZERO DUP1 PUSH2 0x1BDA JUMPI JUMPDEST DUP1 PUSH2 0x1BD0 JUMPI JUMPDEST ISZERO PUSH2 0x1BC2 JUMPI DUP1 PUSH0 MSTORE PUSH1 0xD PUSH1 0x20 MSTORE PUSH1 0x40 PUSH0 KECCAK256 SWAP1 DUP4 PUSH1 0x6 DUP4 ADD SLOAD LT ISZERO PUSH2 0x1AA9 JUMPI POP PUSH1 0x5 PUSH2 0x1AA3 SWAP2 ADD SLOAD SWAP5 PUSH2 0x1A34 JUMP JUMPDEST SWAP4 PUSH2 0x1A67 JUMP JUMPDEST PUSH1 0x1 SLOAD DUP3 SLOAD PUSH1 0x40 MLOAD PUSH4 0xA9059CBB PUSH1 0xE0 SHL DUP2 MSTORE PUSH1 0x1 PUSH1 0x1 PUSH1 0xA0 SHL SUB SWAP2 DUP3 AND PUSH1 0x4 DUP3 ADD MSTORE PUSH1 0x24 DUP2 ADD DUP11 SWAP1 MSTORE SWAP7 SWAP9 SWAP6 SWAP8 POP SWAP4 SWAP6 SWAP5 SWAP2 SWAP4 SWAP2 SWAP3 SWAP2 PUSH1 0x20 SWAP2 DUP7 SWAP2 PUSH1 0x44 SWAP2 DUP4 SWAP2 PUSH0 SWAP2 AND GAS CALL SWAP3 DUP4 ISZERO PUSH2 0x6F4 JUMPI PUSH0 MLOAD PUSH1 0x20 PUSH2 0x220C PUSH0 CODECOPY PUSH0 MLOAD SWAP1 PUSH0 MSTORE SWAP5 PUSH1 0x60 SWAP5 PUSH2 0x1BA6 JUMPI JUMPDEST POP DUP1 PUSH0 MSTORE PUSH1 0xE PUSH1 0x20 MSTORE PUSH1 0x2 PUSH1 0x40 PUSH0 KECCAK256 PUSH2 0x1B26 DUP6 DUP3 SLOAD PUSH2 0x1294 JUMP JUMPDEST DUP2 SSTORE ADD PUSH2 0x1B34 DUP5 DUP3 SLOAD PUSH2 0x1294 JUMP JUMPDEST SWAP1 SSTORE PUSH0 MSTORE PUSH1 0xF PUSH1 0x20 MSTORE PUSH2 0x1B71 PUSH1 0x40 PUSH0 KECCAK256 PUSH1 0x40 MLOAD SWAP1 PUSH2 0x1B51 DUP3 PUSH2 0x123E JUMP JUMPDEST DUP8 DUP3 MSTORE DUP5 PUSH1 0x20 DUP4 ADD MSTORE DUP9 PUSH1 0x40 DUP4 ADD MSTORE TIMESTAMP DUP7 DUP4 ADD MSTORE PUSH1 0x2 PUSH1 0x80 DUP4 ADD MSTORE PUSH2 0x130B JUMP JUMPDEST PUSH1 0x1 DUP1 PUSH1 0xA0 SHL SUB SWAP1 SLOAD AND SWAP4 PUSH0 MSTORE PUSH1 0xD PUSH1 0x20 MSTORE PUSH1 0x1 DUP1 PUSH1 0xA0 SHL SUB PUSH1 0x40 PUSH0 KECCAK256 SLOAD AND SWAP5 PUSH1 0x40 MLOAD SWAP2 DUP3 MSTORE PUSH1 0x20 DUP3 ADD MSTORE PUSH1 0x2 PUSH1 0x40 DUP3 ADD MSTORE LOG3 JUMP JUMPDEST PUSH2 0x1BBD SWAP1 PUSH1 0x20 RETURNDATASIZE DUP2 GT PUSH2 0x6ED JUMPI PUSH2 0x6E0 DUP2 DUP4 PUSH2 0x125A JUMP JUMPDEST PUSH2 0x1B0C JUMP JUMPDEST POP POP POP SWAP2 PUSH2 0x13FF SWAP2 POP PUSH2 0x1679 JUMP JUMPDEST POP PUSH1 0xF DUP6 LT PUSH2 0x1A76 JUMP JUMPDEST POP PUSH1 0x5 SLOAD DUP2 EQ ISZERO PUSH2 0x1A70 JUMP JUMPDEST SWAP1 PUSH0 MSTORE PUSH1 0xD PUSH1 0x20 MSTORE PUSH1 0x5 PUSH1 0x40 PUSH0 KECCAK256 ADD SLOAD SWAP1 DUP2 ISZERO DUP1 ISZERO PUSH2 0x1C0C JUMPI JUMPDEST PUSH2 0x1BC2 JUMPI PUSH1 0x1 ADD PUSH2 0x1A5B JUMP JUMPDEST POP PUSH1 0x5 SLOAD DUP3 EQ PUSH2 0x1C00 JUMP JUMPDEST POP POP SWAP2 PUSH2 0x13FF SWAP2 POP PUSH2 0x1679 JUMP JUMPDEST POP DUP1 ISZERO PUSH2 0x1A54 JUMP JUMPDEST SWAP3 SWAP5 SWAP4 SWAP5 SWAP2 SWAP1 SWAP2 DUP4 ISZERO DUP1 ISZERO PUSH2 0x1E90 JUMPI JUMPDEST DUP1 ISZERO PUSH2 0x1E88 JUMPI JUMPDEST PUSH2 0x1E79 JUMPI SWAP5 SWAP2 PUSH2 0x1C53 DUP4 DUP4 PUSH2 0x1164 JUMP JUMPDEST SWAP6 PUSH2 0x1C67 PUSH2 0x1C61 DUP6 DUP10 PUSH2 0x12F8 JUMP JUMPDEST DUP5 PUSH2 0x1157 JUMP JUMPDEST SWAP5 PUSH0 SWAP5 DUP6 SWAP4 DUP5 SWAP3 PUSH1 0x1 JUMPDEST PUSH1 0x1E DUP6 LT PUSH2 0x1CAB JUMPI JUMPDEST POP POP POP POP POP POP POP PUSH2 0x1C8D SWAP3 SWAP4 SWAP5 POP PUSH2 0x1157 JUMP JUMPDEST DUP1 PUSH2 0x1C9C JUMPI JUMPDEST POP DUP1 PUSH2 0x1668 JUMPI POP JUMP JUMPDEST PUSH2 0x1CA5 SWAP1 PUSH2 0x1679 JUMP JUMPDEST PUSH0 PUSH2 0x1C93 JUMP JUMPDEST DUP2 SWAP3 SWAP4 SWAP5 SWAP6 SWAP7 SWAP9 SWAP2 ISZERO DUP1 ISZERO PUSH2 0x1E6E JUMPI JUMPDEST PUSH2 0x1E51 JUMPI DUP3 PUSH0 MSTORE PUSH1 0xD PUSH1 0x20 MSTORE PUSH1 0x40 PUSH0 KECCAK256 SWAP3 DUP13 DUP9 PUSH1 0x6 DUP7 ADD SLOAD LT ISZERO PUSH0 EQ PUSH2 0x1E32 JUMPI DUP3 PUSH2 0x1CE5 SWAP2 PUSH2 0x12F8 JUMP JUMPDEST PUSH0 DUP3 DUP2 MSTORE PUSH1 0xD PUSH1 0x20 SWAP1 DUP2 MSTORE PUSH1 0x40 DUP1 DUP4 KECCAK256 SLOAD PUSH1 0x1 SLOAD SWAP2 MLOAD PUSH4 0xA9059CBB PUSH1 0xE0 SHL DUP2 MSTORE PUSH1 0x1 PUSH1 0x1 PUSH1 0xA0 SHL SUB SWAP2 DUP3 AND PUSH1 0x4 DUP3 ADD DUP2 SWAP1 MSTORE PUSH1 0x24 DUP3 ADD DUP8 SWAP1 MSTORE SWAP1 SWAP9 SWAP5 SWAP1 SWAP4 SWAP3 DUP10 SWAP3 PUSH1 0x44 SWAP3 DUP5 SWAP3 SWAP1 SWAP2 AND GAS CALL SWAP4 DUP5 ISZERO PUSH2 0x6F4 JUMPI PUSH2 0x1DF0 SWAP7 PUSH2 0x1DEA SWAP6 PUSH2 0x1E16 JUMPI JUMPDEST POP DUP1 PUSH0 MSTORE PUSH1 0xE PUSH1 0x20 MSTORE PUSH1 0x3 PUSH1 0x40 PUSH0 KECCAK256 PUSH2 0x1D5E DUP7 DUP3 SLOAD PUSH2 0x1294 JUMP JUMPDEST DUP2 SSTORE ADD PUSH2 0x1D6C DUP6 DUP3 SLOAD PUSH2 0x1294 JUMP JUMPDEST SWAP1 SSTORE PUSH0 MSTORE PUSH1 0xF PUSH1 0x20 MSTORE PUSH2 0x1DAA PUSH1 0x40 PUSH0 KECCAK256 PUSH1 0x40 MLOAD SWAP1 PUSH2 0x1D89 DUP3 PUSH2 0x123E JUMP JUMPDEST DUP11 DUP3 MSTORE DUP6 PUSH1 0x20 DUP4 ADD MSTORE DUP14 PUSH1 0x40 DUP4 ADD MSTORE TIMESTAMP PUSH1 0x60 DUP4 ADD MSTORE PUSH1 0x4 PUSH1 0x80 DUP4 ADD MSTORE PUSH2 0x130B JUMP JUMPDEST DUP8 PUSH0 MSTORE PUSH1 0xD PUSH1 0x20 MSTORE PUSH1 0x1 DUP1 PUSH1 0xA0 SHL SUB PUSH1 0x40 PUSH0 KECCAK256 SLOAD AND SWAP1 PUSH0 MLOAD PUSH1 0x20 PUSH2 0x220C PUSH0 CODECOPY PUSH0 MLOAD SWAP1 PUSH0 MSTORE PUSH1 0x60 DUP14 PUSH1 0x40 MLOAD SWAP1 DUP8 DUP3 MSTORE PUSH1 0x20 DUP3 ADD MSTORE PUSH1 0x4 PUSH1 0x40 DUP3 ADD MSTORE LOG3 PUSH2 0x1294 JUMP JUMPDEST SWAP9 PUSH2 0x1294 JUMP JUMPDEST SWAP4 PUSH1 0x1 SWAP2 JUMPDEST DUP5 DUP7 LT ISZERO PUSH2 0x1E11 JUMPI PUSH1 0x5 PUSH1 0x1 SWAP2 ADD SLOAD SWAP2 ADD SWAP4 SWAP3 SWAP2 SWAP6 SWAP5 SWAP6 PUSH2 0x1C71 JUMP JUMPDEST PUSH2 0x1C7A JUMP JUMPDEST PUSH2 0x1E2D SWAP1 PUSH1 0x20 RETURNDATASIZE DUP2 GT PUSH2 0x6ED JUMPI PUSH2 0x6E0 DUP2 DUP4 PUSH2 0x125A JUMP JUMPDEST PUSH2 0x1D44 JUMP JUMPDEST POP POP SWAP2 DUP5 DUP4 SWAP10 SWAP7 SWAP3 SWAP10 LT ISZERO PUSH2 0x1DF5 JUMPI SWAP2 PUSH2 0x1E4B SWAP1 PUSH2 0x1A34 JUMP JUMPDEST SWAP2 PUSH2 0x1DF5 JUMP JUMPDEST POP SWAP8 POP POP POP POP POP POP SWAP1 POP PUSH2 0x1E66 SWAP3 SWAP4 POP PUSH2 0x1157 JUMP JUMPDEST DUP1 PUSH2 0x1668 JUMPI POP JUMP JUMPDEST POP PUSH1 0x5 SLOAD DUP4 EQ PUSH2 0x1CBB JUMP JUMPDEST POP SWAP2 POP POP PUSH2 0x13FF SWAP2 SWAP3 POP PUSH2 0x1679 JUMP JUMPDEST POP DUP6 ISZERO PUSH2 0x1C43 JUMP JUMPDEST POP PUSH1 0x5 SLOAD DUP5 EQ PUSH2 0x1C3C JUMP JUMPDEST SWAP1 DUP2 PUSH0 MSTORE PUSH1 0x42 PUSH1 0x20 MSTORE PUSH1 0xFF PUSH1 0x4 PUSH1 0x40 PUSH0 KECCAK256 ADD SLOAD AND ISZERO PUSH2 0x1EB8 JUMPI POP POP JUMP JUMPDEST PUSH2 0x1EC5 PUSH1 0x3D SLOAD DUP3 EQ PUSH2 0x2119 JUMP JUMPDEST DUP1 PUSH0 MSTORE PUSH1 0x40 PUSH1 0x20 MSTORE PUSH2 0x1EE1 PUSH1 0xFF PUSH1 0x8 PUSH1 0x40 PUSH0 KECCAK256 ADD SLOAD AND ISZERO PUSH2 0x2155 JUMP JUMPDEST DUP2 PUSH0 MSTORE PUSH1 0xD PUSH1 0x20 MSTORE PUSH1 0x40 PUSH0 KECCAK256 SWAP2 PUSH1 0x10 DUP4 ADD SLOAD DUP1 ISZERO PUSH2 0x1FC3 JUMPI PUSH1 0xF DUP5 ADD SLOAD SWAP4 PUSH3 0x83D600 DUP6 ADD DUP1 SWAP6 GT PUSH2 0x513 JUMPI PUSH32 0x42EE5EF523A95C6FB3FFDD2E9B34955B83EA8C2B11FF268C87AE6EA25556EAAC SWAP5 PUSH2 0x1F5B SWAP3 GT ISZERO SWAP1 PUSH1 0x5 PUSH1 0x12 PUSH1 0xA PUSH1 0x6 DUP5 ADD SLOAD LT ISZERO SWAP3 ADD SLOAD LT ISZERO SWAP1 DUP3 PUSH2 0x1FBB JUMPI JUMPDEST POP DUP2 PUSH2 0x1FB3 JUMPI JUMPDEST POP PUSH2 0x2190 JUMP JUMPDEST DUP1 PUSH0 MSTORE PUSH1 0x42 PUSH1 0x20 MSTORE PUSH1 0x40 PUSH0 KECCAK256 PUSH1 0x1 PUSH1 0x4 DUP3 ADD SWAP2 DUP5 DUP3 DUP5 SLOAD SWAP3 PUSH2 0x1F80 PUSH1 0xFF DUP6 AND ISZERO PUSH2 0x21CB JUMP JUMPDEST TIMESTAMP DUP2 SSTORE ADD SSTORE PUSH1 0xFF NOT AND OR SWAP1 SSTORE PUSH2 0x1FAE PUSH1 0x40 MLOAD SWAP3 DUP4 SWAP3 TIMESTAMP SWAP2 DUP5 PUSH1 0x40 SWAP2 SWAP5 SWAP4 SWAP3 PUSH1 0x60 DUP3 ADD SWAP6 DUP3 MSTORE PUSH1 0x20 DUP3 ADD MSTORE ADD MSTORE JUMP JUMPDEST SUB SWAP1 LOG1 JUMP JUMPDEST SWAP1 POP PUSH0 PUSH2 0x1F55 JUMP JUMPDEST SWAP2 POP PUSH0 PUSH2 0x1F4E JUMP JUMPDEST PUSH1 0x40 MLOAD PUSH3 0x461BCD PUSH1 0xE5 SHL DUP2 MSTORE PUSH1 0x20 PUSH1 0x4 DUP3 ADD MSTORE PUSH1 0x11 PUSH1 0x24 DUP3 ADD MSTORE PUSH17 0x55736572206E6F74206C6576656C20313 PUSH1 0x7C SHL PUSH1 0x44 DUP3 ADD MSTORE PUSH1 0x64 SWAP1 REVERT JUMPDEST SWAP1 DUP2 PUSH0 MSTORE PUSH1 0x49 PUSH1 0x20 MSTORE PUSH1 0xFF PUSH1 0x4 PUSH1 0x40 PUSH0 KECCAK256 ADD SLOAD AND ISZERO PUSH2 0x2019 JUMPI POP POP JUMP JUMPDEST PUSH2 0x2026 PUSH1 0x44 SLOAD DUP3 EQ PUSH2 0x2119 JUMP JUMPDEST DUP1 PUSH0 MSTORE PUSH1 0x47 PUSH1 0x20 MSTORE PUSH2 0x2042 PUSH1 0xFF PUSH1 0x8 PUSH1 0x40 PUSH0 KECCAK256 ADD SLOAD AND ISZERO PUSH2 0x2155 JUMP JUMPDEST DUP2 PUSH0 MSTORE PUSH1 0xD PUSH1 0x20 MSTORE PUSH1 0x40 PUSH0 KECCAK256 SWAP2 PUSH1 0x11 DUP4 ADD SLOAD DUP1 ISZERO PUSH2 0x20E0 JUMPI PUSH1 0xF DUP5 ADD SLOAD SWAP4 PUSH4 0x2514300 DUP6 ADD DUP1 SWAP6 GT PUSH2 0x513 JUMPI PUSH32 0x42EE5EF523A95C6FB3FFDD2E9B34955B83EA8C2B11FF268C87AE6EA25556EAAC SWAP5 PUSH2 0x20BB SWAP3 GT ISZERO SWAP1 PUSH1 0x2 PUSH1 0x13 PUSH1 0xF PUSH1 0x6 DUP5 ADD SLOAD LT ISZERO SWAP3 ADD SLOAD LT ISZERO SWAP1 DUP3 PUSH2 0x1FBB JUMPI POP DUP2 PUSH2 0x1FB3 JUMPI POP PUSH2 0x2190 JUMP JUMPDEST DUP1 PUSH0 MSTORE PUSH1 0x49 PUSH1 0x20 MSTORE PUSH1 0x40 PUSH0 KECCAK256 PUSH1 0x1 PUSH1 0x4 DUP3 ADD SWAP2 DUP5 DUP3 DUP5 SLOAD SWAP3 PUSH2 0x1F80 PUSH1 0xFF DUP6 AND ISZERO PUSH2 0x21CB JUMP JUMPDEST PUSH1 0x40 MLOAD PUSH3 0x461BCD PUSH1 0xE5 SHL DUP2 MSTORE PUSH1 0x20 PUSH1 0x4 DUP3 ADD MSTORE PUSH1 0x11 PUSH1 0x24 DUP3 ADD MSTORE PUSH17 0x55736572206E6F74206C6576656C203135 PUSH1 0x78 SHL PUSH1 0x44 DUP3 ADD MSTORE PUSH1 0x64 SWAP1 REVERT JUMPDEST ISZERO PUSH2 0x2120 JUMPI JUMP JUMPDEST PUSH1 0x40 MLOAD PUSH3 0x461BCD PUSH1 0xE5 SHL DUP2 MSTORE PUSH1 0x20 PUSH1 0x4 DUP3 ADD MSTORE PUSH1 0xD PUSH1 0x24 DUP3 ADD MSTORE PUSH13 0x125B9D985B1A59081C9BDD5B99 PUSH1 0x9A SHL PUSH1 0x44 DUP3 ADD MSTORE PUSH1 0x64 SWAP1 REVERT JUMPDEST ISZERO PUSH2 0x215C JUMPI JUMP JUMPDEST PUSH1 0x40 MLOAD PUSH3 0x461BCD PUSH1 0xE5 SHL DUP2 MSTORE PUSH1 0x20 PUSH1 0x4 DUP3 ADD MSTORE PUSH1 0xC PUSH1 0x24 DUP3 ADD MSTORE PUSH12 0x149BDD5B990818DB1BDCD959 PUSH1 0xA2 SHL PUSH1 0x44 DUP3 ADD MSTORE PUSH1 0x64 SWAP1 REVERT JUMPDEST ISZERO PUSH2 0x2197 JUMPI JUMP JUMPDEST PUSH1 0x40 MLOAD PUSH3 0x461BCD PUSH1 0xE5 SHL DUP2 MSTORE PUSH1 0x20 PUSH1 0x4 DUP3 ADD MSTORE PUSH1 0xC PUSH1 0x24 DUP3 ADD MSTORE PUSH12 0x4E6F7420656C696769626C65 PUSH1 0xA0 SHL PUSH1 0x44 DUP3 ADD MSTORE PUSH1 0x64 SWAP1 REVERT JUMPDEST ISZERO PUSH2 0x21D2 JUMPI JUMP JUMPDEST PUSH1 0x40 MLOAD PUSH3 0x461BCD PUSH1 0xE5 SHL DUP2 MSTORE PUSH1 0x20 PUSH1 0x4 DUP3 ADD MSTORE PUSH1 0x11 PUSH1 0x24 DUP3 ADD MSTORE PUSH17 0x185B1C9958591E48145D585B1A599A5959 PUSH1 0x7A SHL PUSH1 0x44 DUP3 ADD MSTORE PUSH1 0x64 SWAP1 REVERT INVALID RJUMPI 0x7B61 0xD3 0x24 0xCE OR ORIGIN DUP16 NUMBER RETURNDATASIZE EXP 0xB6 0x25 DUP2 0xC0 CREATE 0xAA SWAP10 PUSH20 0x12BAE80FBDFCD2AA9B91D6E3A264697066735822 SLT KECCAK256 DUP5 0xA5 DUP16 RETURN 0xA9 0xA9 0xDE SWAP2 PUSH17 0x510864ECDE57625647CE5DC97E145BC75E SLT 0x1F 0xCE PUSH19 0x195964736F6C634300081E0033000000000000 "
		},
		"gasEstimates": {
			"creation": {
				"codeDepositCost": "1760200",
				"executionCost": "infinite",
				"totalCost": "infinite"
			},
			"external": {
				"ACC_PRECISION()": "395",
				"MONTHLY_ROYALTY_DIRECT()": "879",
				"MONTHLY_ROYALTY_LEVEL()": "231",
				"MONTHLY_ROYALTY_TIME()": "703",
				"MONTH_DURATION()": "263",
				"PERCENTS_DIVIDER()": "148",
				"ROI_CAP_DIVIDER()": "517",
				"ROI_CAP_MULTIPLIER()": "429",
				"TIME_STEP()": "373",
				"TOP_ROYALTY_DIRECT()": "351",
				"TOP_ROYALTY_LEVEL()": "297",
				"TOP_ROYALTY_TIME()": "549",
				"WEEK_DURATION()": "571",
				"WeeklyCapping()": "967",
				"WeeklyTotalReward()": "2432",
				"claimCommunity(uint256)": "infinite",
				"communityAccPerUser()": "2696",
				"creatorWallet()": "2742",
				"currentMonthlyRound()": "2916",
				"currentMonthlyStartTime()": "3026",
				"currentWeeklyRound()": "2938",
				"currentWeeklyStartTime()": "3155",
				"defaultRefId()": "3092",
				"glbBoosterPackages(uint256)": "6571",
				"minLevelForGlbBooster(uint256)": "2998",
				"minLevelForPool(uint256)": "2316",
				"minPoolForGlbBooster(uint256)": "2778",
				"monthlyCapping()": "791",
				"monthlyTotalReward()": "2784",
				"packages(uint256)": "7228",
				"pendingCommunity(uint256)": "infinite",
				"poolPackages(uint256)": "7099",
				"register(uint256)": "infinite",
				"registeredUserIds(uint256)": "6813",
				"systemMaintance()": "3072",
				"teamDevelopment()": "3160",
				"topRoyaltyReward()": "2630",
				"topRoyaltyRound()": "2586",
				"topRoyaltyStartTime()": "2762",
				"totalUsers()": "2850",
				"upgrade(uint256)": "infinite",
				"usdt()": "2434"
			},
			"internal": {
				"_accrueCommunityBonus(uint256)": "infinite",
				"_applyGlobalCapping(uint256,uint256)": "6721",
				"_distributeLevelBoosterIncome(uint256,uint256,uint256,uint256,uint256)": "infinite",
				"_distributeMatrixIncome(uint256,uint256,uint256,uint256)": "infinite",
				"_distributeSponsorIncome(uint256,uint256,uint256,uint256)": "infinite",
				"_findEligibleSponsor(uint256,uint256)": "infinite",
				"_payLevelBooster(uint256,uint256,uint256,uint256)": "infinite",
				"_placeInMatrix(uint256,uint256)": "infinite"
			}
		},
		"methodIdentifiers": {
			"ACC_PRECISION()": "32fcd966",
			"MONTHLY_ROYALTY_DIRECT()": "d2f0490d",
			"MONTHLY_ROYALTY_LEVEL()": "23fd338e",
			"MONTHLY_ROYALTY_TIME()": "a5e52b99",
			"MONTH_DURATION()": "2a891534",
			"PERCENTS_DIVIDER()": "01c234a8",
			"ROI_CAP_DIVIDER()": "58c7d352",
			"ROI_CAP_MULTIPLIER()": "375b43b4",
			"TIME_STEP()": "32bc298c",
			"TOP_ROYALTY_DIRECT()": "31bb6a30",
			"TOP_ROYALTY_LEVEL()": "2ae0ee0d",
			"TOP_ROYALTY_TIME()": "705fee2d",
			"WEEK_DURATION()": "76f5f700",
			"WeeklyCapping()": "ebe0ff15",
			"WeeklyTotalReward()": "3080b5bc",
			"claimCommunity(uint256)": "d54d6ddb",
			"communityAccPerUser()": "78f6ad6d",
			"creatorWallet()": "7cdc65f2",
			"currentMonthlyRound()": "c9ed0708",
			"currentMonthlyStartTime()": "e898fc38",
			"currentWeeklyRound()": "ca8e9121",
			"currentWeeklyStartTime()": "fddc806f",
			"defaultRefId()": "ec597e6f",
			"glbBoosterPackages(uint256)": "2350268f",
			"minLevelForGlbBooster(uint256)": "d0a2fd79",
			"minLevelForPool(uint256)": "2132d204",
			"minPoolForGlbBooster(uint256)": "956a3228",
			"monthlyCapping()": "c8df2908",
			"monthlyTotalReward()": "a59d17d1",
			"packages(uint256)": "c216212a",
			"pendingCommunity(uint256)": "24513088",
			"poolPackages(uint256)": "ae4708dc",
			"register(uint256)": "f207564e",
			"registeredUserIds(uint256)": "39ab3603",
			"systemMaintance()": "e9e34a16",
			"teamDevelopment()": "f5d74d93",
			"topRoyaltyReward()": "5b62d1d5",
			"topRoyaltyRound()": "4b8cbf9b",
			"topRoyaltyStartTime()": "9b40ab97",
			"totalUsers()": "bff1f9e1",
			"upgrade(uint256)": "45977d03",
			"usdt()": "2f48ab7d"
		}
	},
	"abi": [
		{
			"inputs": [],
			"stateMutability": "nonpayable",
			"type": "constructor"
		},
		{
			"inputs": [
				{
					"internalType": "address",
					"name": "token",
					"type": "address"
				}
			],
			"name": "SafeERC20FailedOperation",
			"type": "error"
		},
		{
			"anonymous": false,
			"inputs": [
				{
					"indexed": false,
					"internalType": "uint256",
					"name": "amount",
					"type": "uint256"
				},
				{
					"indexed": false,
					"internalType": "uint256",
					"name": "usersCount",
					"type": "uint256"
				},
				{
					"indexed": false,
					"internalType": "uint256",
					"name": "perUser",
					"type": "uint256"
				}
			],
			"name": "CommunityBonusDistributed",
			"type": "event"
		},
		{
			"anonymous": false,
			"inputs": [
				{
					"indexed": true,
					"internalType": "address",
					"name": "to",
					"type": "address"
				},
				{
					"indexed": true,
					"internalType": "address",
					"name": "from",
					"type": "address"
				},
				{
					"indexed": false,
					"internalType": "uint256",
					"name": "amount",
					"type": "uint256"
				},
				{
					"indexed": false,
					"internalType": "uint256",
					"name": "packageLevel",
					"type": "uint256"
				},
				{
					"indexed": false,
					"internalType": "uint256",
					"name": "incomeType",
					"type": "uint256"
				}
			],
			"name": "IncomeDistributed",
			"type": "event"
		},
		{
			"anonymous": false,
			"inputs": [
				{
					"indexed": true,
					"internalType": "address",
					"name": "to",
					"type": "address"
				},
				{
					"indexed": true,
					"internalType": "address",
					"name": "from",
					"type": "address"
				},
				{
					"indexed": false,
					"internalType": "uint256",
					"name": "amount",
					"type": "uint256"
				},
				{
					"indexed": false,
					"internalType": "uint256",
					"name": "packageLevel",
					"type": "uint256"
				},
				{
					"indexed": false,
					"internalType": "enum Storage.IncomeType",
					"name": "incomeType",
					"type": "uint8"
				},
				{
					"indexed": false,
					"internalType": "uint256",
					"name": "timestamp",
					"type": "uint256"
				}
			],
			"name": "IncomeDistribution",
			"type": "event"
		},
		{
			"anonymous": false,
			"inputs": [
				{
					"indexed": true,
					"internalType": "address",
					"name": "winner",
					"type": "address"
				},
				{
					"indexed": true,
					"internalType": "uint256",
					"name": "fromUserId",
					"type": "uint256"
				},
				{
					"indexed": false,
					"internalType": "uint256",
					"name": "amount",
					"type": "uint256"
				},
				{
					"indexed": false,
					"internalType": "uint256",
					"name": "timestamp",
					"type": "uint256"
				}
			],
			"name": "LotteryReward",
			"type": "event"
		},
		{
			"anonymous": false,
			"inputs": [
				{
					"indexed": false,
					"internalType": "uint256",
					"name": "roundId",
					"type": "uint256"
				},
				{
					"indexed": false,
					"internalType": "uint256",
					"name": "totalUsers",
					"type": "uint256"
				},
				{
					"indexed": false,
					"internalType": "uint256",
					"name": "perUserReward",
					"type": "uint256"
				},
				{
					"indexed": false,
					"internalType": "uint256",
					"name": "totalReward",
					"type": "uint256"
				},
				{
					"indexed": false,
					"internalType": "uint256",
					"name": "totalDistributed",
					"type": "uint256"
				},
				{
					"indexed": false,
					"internalType": "uint256",
					"name": "leftoverReward",
					"type": "uint256"
				},
				{
					"indexed": false,
					"internalType": "uint256",
					"name": "endTime",
					"type": "uint256"
				}
			],
			"name": "MonthlyClosed",
			"type": "event"
		},
		{
			"anonymous": false,
			"inputs": [
				{
					"indexed": false,
					"internalType": "uint256",
					"name": "roundId",
					"type": "uint256"
				},
				{
					"indexed": false,
					"internalType": "uint256",
					"name": "userId",
					"type": "uint256"
				},
				{
					"indexed": false,
					"internalType": "uint256",
					"name": "perUserReward",
					"type": "uint256"
				},
				{
					"indexed": false,
					"internalType": "uint256",
					"name": "claimTime",
					"type": "uint256"
				}
			],
			"name": "MonthlyRewardClaim",
			"type": "event"
		},
		{
			"anonymous": false,
			"inputs": [
				{
					"indexed": false,
					"internalType": "uint256",
					"name": "roundId",
					"type": "uint256"
				},
				{
					"indexed": false,
					"internalType": "uint256",
					"name": "userId",
					"type": "uint256"
				},
				{
					"indexed": false,
					"internalType": "uint256",
					"name": "joinTime",
					"type": "uint256"
				}
			],
			"name": "MonthlyRoyaltyQualified",
			"type": "event"
		},
		{
			"anonymous": false,
			"inputs": [
				{
					"indexed": true,
					"internalType": "address",
					"name": "user",
					"type": "address"
				},
				{
					"indexed": true,
					"internalType": "address",
					"name": "sponsor",
					"type": "address"
				},
				{
					"indexed": true,
					"internalType": "uint256",
					"name": "userId",
					"type": "uint256"
				},
				{
					"indexed": false,
					"internalType": "uint256",
					"name": "uplineId",
					"type": "uint256"
				}
			],
			"name": "Registration",
			"type": "event"
		},
		{
			"anonymous": false,
			"inputs": [
				{
					"indexed": true,
					"internalType": "address",
					"name": "to",
					"type": "address"
				},
				{
					"indexed": false,
					"internalType": "uint256",
					"name": "amount",
					"type": "uint256"
				},
				{
					"indexed": false,
					"internalType": "string",
					"name": "level",
					"type": "string"
				}
			],
			"name": "RewardSent",
			"type": "event"
		},
		{
			"anonymous": false,
			"inputs": [
				{
					"indexed": false,
					"internalType": "uint256",
					"name": "roundId",
					"type": "uint256"
				},
				{
					"indexed": false,
					"internalType": "uint256",
					"name": "totalUsers",
					"type": "uint256"
				},
				{
					"indexed": false,
					"internalType": "uint256",
					"name": "perUserReward",
					"type": "uint256"
				},
				{
					"indexed": false,
					"internalType": "uint256",
					"name": "totalReward",
					"type": "uint256"
				},
				{
					"indexed": false,
					"internalType": "uint256",
					"name": "totalDistributed",
					"type": "uint256"
				},
				{
					"indexed": false,
					"internalType": "uint256",
					"name": "leftoverReward",
					"type": "uint256"
				},
				{
					"indexed": false,
					"internalType": "uint256",
					"name": "endTime",
					"type": "uint256"
				}
			],
			"name": "TopRoyaltyClosed",
			"type": "event"
		},
		{
			"anonymous": false,
			"inputs": [
				{
					"indexed": false,
					"internalType": "uint256",
					"name": "roundId",
					"type": "uint256"
				},
				{
					"indexed": false,
					"internalType": "uint256",
					"name": "userId",
					"type": "uint256"
				},
				{
					"indexed": false,
					"internalType": "uint256",
					"name": "joinTime",
					"type": "uint256"
				}
			],
			"name": "TopRoyaltyQualified",
			"type": "event"
		},
		{
			"anonymous": false,
			"inputs": [
				{
					"indexed": false,
					"internalType": "uint256",
					"name": "roundId",
					"type": "uint256"
				},
				{
					"indexed": false,
					"internalType": "uint256",
					"name": "userId",
					"type": "uint256"
				},
				{
					"indexed": false,
					"internalType": "uint256",
					"name": "perUserReward",
					"type": "uint256"
				},
				{
					"indexed": false,
					"internalType": "uint256",
					"name": "claimTime",
					"type": "uint256"
				}
			],
			"name": "TopRoyaltyRewardClaim",
			"type": "event"
		},
		{
			"anonymous": false,
			"inputs": [
				{
					"indexed": true,
					"internalType": "address",
					"name": "user",
					"type": "address"
				},
				{
					"indexed": true,
					"internalType": "uint256",
					"name": "userId",
					"type": "uint256"
				},
				{
					"indexed": false,
					"internalType": "uint256",
					"name": "packageLevel",
					"type": "uint256"
				},
				{
					"indexed": false,
					"internalType": "string",
					"name": "depositType",
					"type": "string"
				},
				{
					"indexed": false,
					"internalType": "uint256",
					"name": "upgradeTime",
					"type": "uint256"
				}
			],
			"name": "Upgrade",
			"type": "event"
		},
		{
			"anonymous": false,
			"inputs": [
				{
					"indexed": true,
					"internalType": "uint8",
					"name": "matrixId",
					"type": "uint8"
				},
				{
					"indexed": true,
					"internalType": "uint32",
					"name": "userId",
					"type": "uint32"
				},
				{
					"indexed": true,
					"internalType": "address",
					"name": "user",
					"type": "address"
				},
				{
					"indexed": false,
					"internalType": "uint32",
					"name": "parentId",
					"type": "uint32"
				},
				{
					"indexed": false,
					"internalType": "address",
					"name": "parentAddr",
					"type": "address"
				},
				{
					"indexed": false,
					"internalType": "uint8",
					"name": "position",
					"type": "uint8"
				}
			],
			"name": "UserJoined",
			"type": "event"
		},
		{
			"anonymous": false,
			"inputs": [
				{
					"indexed": false,
					"internalType": "uint256",
					"name": "roundId",
					"type": "uint256"
				},
				{
					"indexed": false,
					"internalType": "uint256",
					"name": "totalUsers",
					"type": "uint256"
				},
				{
					"indexed": false,
					"internalType": "uint256",
					"name": "perUserReward",
					"type": "uint256"
				},
				{
					"indexed": false,
					"internalType": "uint256",
					"name": "totalReward",
					"type": "uint256"
				},
				{
					"indexed": false,
					"internalType": "uint256",
					"name": "totalDistributed",
					"type": "uint256"
				},
				{
					"indexed": false,
					"internalType": "uint256",
					"name": "leftoverReward",
					"type": "uint256"
				},
				{
					"indexed": false,
					"internalType": "uint256",
					"name": "endTime",
					"type": "uint256"
				}
			],
			"name": "WeeklyClosed",
			"type": "event"
		},
		{
			"anonymous": false,
			"inputs": [
				{
					"indexed": false,
					"internalType": "uint256",
					"name": "roundId",
					"type": "uint256"
				},
				{
					"indexed": false,
					"internalType": "uint256",
					"name": "userId",
					"type": "uint256"
				},
				{
					"indexed": false,
					"internalType": "uint256",
					"name": "joinTime",
					"type": "uint256"
				}
			],
			"name": "WeeklyContestQualified",
			"type": "event"
		},
		{
			"anonymous": false,
			"inputs": [
				{
					"indexed": false,
					"internalType": "uint256",
					"name": "roundId",
					"type": "uint256"
				},
				{
					"indexed": false,
					"internalType": "uint256",
					"name": "userId",
					"type": "uint256"
				},
				{
					"indexed": false,
					"internalType": "uint256",
					"name": "perUserReward",
					"type": "uint256"
				},
				{
					"indexed": false,
					"internalType": "uint256",
					"name": "claimTime",
					"type": "uint256"
				}
			],
			"name": "WeeklyRewardClaim",
			"type": "event"
		},
		{
			"inputs": [],
			"name": "ACC_PRECISION",
			"outputs": [
				{
					"internalType": "uint256",
					"name": "",
					"type": "uint256"
				}
			],
			"stateMutability": "view",
			"type": "function"
		},
		{
			"inputs": [],
			"name": "MONTHLY_ROYALTY_DIRECT",
			"outputs": [
				{
					"internalType": "uint256",
					"name": "",
					"type": "uint256"
				}
			],
			"stateMutability": "view",
			"type": "function"
		},
		{
			"inputs": [],
			"name": "MONTHLY_ROYALTY_LEVEL",
			"outputs": [
				{
					"internalType": "uint256",
					"name": "",
					"type": "uint256"
				}
			],
			"stateMutability": "view",
			"type": "function"
		},
		{
			"inputs": [],
			"name": "MONTHLY_ROYALTY_TIME",
			"outputs": [
				{
					"internalType": "uint256",
					"name": "",
					"type": "uint256"
				}
			],
			"stateMutability": "view",
			"type": "function"
		},
		{
			"inputs": [],
			"name": "MONTH_DURATION",
			"outputs": [
				{
					"internalType": "uint256",
					"name": "",
					"type": "uint256"
				}
			],
			"stateMutability": "view",
			"type": "function"
		},
		{
			"inputs": [],
			"name": "PERCENTS_DIVIDER",
			"outputs": [
				{
					"internalType": "uint256",
					"name": "",
					"type": "uint256"
				}
			],
			"stateMutability": "view",
			"type": "function"
		},
		{
			"inputs": [],
			"name": "ROI_CAP_DIVIDER",
			"outputs": [
				{
					"internalType": "uint256",
					"name": "",
					"type": "uint256"
				}
			],
			"stateMutability": "view",
			"type": "function"
		},
		{
			"inputs": [],
			"name": "ROI_CAP_MULTIPLIER",
			"outputs": [
				{
					"internalType": "uint256",
					"name": "",
					"type": "uint256"
				}
			],
			"stateMutability": "view",
			"type": "function"
		},
		{
			"inputs": [],
			"name": "TIME_STEP",
			"outputs": [
				{
					"internalType": "uint256",
					"name": "",
					"type": "uint256"
				}
			],
			"stateMutability": "view",
			"type": "function"
		},
		{
			"inputs": [],
			"name": "TOP_ROYALTY_DIRECT",
			"outputs": [
				{
					"internalType": "uint256",
					"name": "",
					"type": "uint256"
				}
			],
			"stateMutability": "view",
			"type": "function"
		},
		{
			"inputs": [],
			"name": "TOP_ROYALTY_LEVEL",
			"outputs": [
				{
					"internalType": "uint256",
					"name": "",
					"type": "uint256"
				}
			],
			"stateMutability": "view",
			"type": "function"
		},
		{
			"inputs": [],
			"name": "TOP_ROYALTY_TIME",
			"outputs": [
				{
					"internalType": "uint256",
					"name": "",
					"type": "uint256"
				}
			],
			"stateMutability": "view",
			"type": "function"
		},
		{
			"inputs": [],
			"name": "WEEK_DURATION",
			"outputs": [
				{
					"internalType": "uint256",
					"name": "",
					"type": "uint256"
				}
			],
			"stateMutability": "view",
			"type": "function"
		},
		{
			"inputs": [],
			"name": "WeeklyCapping",
			"outputs": [
				{
					"internalType": "uint256",
					"name": "",
					"type": "uint256"
				}
			],
			"stateMutability": "view",
			"type": "function"
		},
		{
			"inputs": [],
			"name": "WeeklyTotalReward",
			"outputs": [
				{
					"internalType": "uint256",
					"name": "",
					"type": "uint256"
				}
			],
			"stateMutability": "view",
			"type": "function"
		},
		{
			"inputs": [
				{
					"internalType": "uint256",
					"name": "_userId",
					"type": "uint256"
				}
			],
			"name": "claimCommunity",
			"outputs": [],
			"stateMutability": "nonpayable",
			"type": "function"
		},
		{
			"inputs": [],
			"name": "communityAccPerUser",
			"outputs": [
				{
					"internalType": "uint256",
					"name": "",
					"type": "uint256"
				}
			],
			"stateMutability": "view",
			"type": "function"
		},
		{
			"inputs": [],
			"name": "creatorWallet",
			"outputs": [
				{
					"internalType": "address",
					"name": "",
					"type": "address"
				}
			],
			"stateMutability": "view",
			"type": "function"
		},
		{
			"inputs": [],
			"name": "currentMonthlyRound",
			"outputs": [
				{
					"internalType": "uint256",
					"name": "",
					"type": "uint256"
				}
			],
			"stateMutability": "view",
			"type": "function"
		},
		{
			"inputs": [],
			"name": "currentMonthlyStartTime",
			"outputs": [
				{
					"internalType": "uint256",
					"name": "",
					"type": "uint256"
				}
			],
			"stateMutability": "view",
			"type": "function"
		},
		{
			"inputs": [],
			"name": "currentWeeklyRound",
			"outputs": [
				{
					"internalType": "uint256",
					"name": "",
					"type": "uint256"
				}
			],
			"stateMutability": "view",
			"type": "function"
		},
		{
			"inputs": [],
			"name": "currentWeeklyStartTime",
			"outputs": [
				{
					"internalType": "uint256",
					"name": "",
					"type": "uint256"
				}
			],
			"stateMutability": "view",
			"type": "function"
		},
		{
			"inputs": [],
			"name": "defaultRefId",
			"outputs": [
				{
					"internalType": "uint256",
					"name": "",
					"type": "uint256"
				}
			],
			"stateMutability": "view",
			"type": "function"
		},
		{
			"inputs": [
				{
					"internalType": "uint256",
					"name": "",
					"type": "uint256"
				}
			],
			"name": "glbBoosterPackages",
			"outputs": [
				{
					"internalType": "uint256",
					"name": "",
					"type": "uint256"
				}
			],
			"stateMutability": "view",
			"type": "function"
		},
		{
			"inputs": [
				{
					"internalType": "uint256",
					"name": "",
					"type": "uint256"
				}
			],
			"name": "minLevelForGlbBooster",
			"outputs": [
				{
					"internalType": "uint256",
					"name": "",
					"type": "uint256"
				}
			],
			"stateMutability": "view",
			"type": "function"
		},
		{
			"inputs": [
				{
					"internalType": "uint256",
					"name": "",
					"type": "uint256"
				}
			],
			"name": "minLevelForPool",
			"outputs": [
				{
					"internalType": "uint256",
					"name": "",
					"type": "uint256"
				}
			],
			"stateMutability": "view",
			"type": "function"
		},
		{
			"inputs": [
				{
					"internalType": "uint256",
					"name": "",
					"type": "uint256"
				}
			],
			"name": "minPoolForGlbBooster",
			"outputs": [
				{
					"internalType": "uint256",
					"name": "",
					"type": "uint256"
				}
			],
			"stateMutability": "view",
			"type": "function"
		},
		{
			"inputs": [],
			"name": "monthlyCapping",
			"outputs": [
				{
					"internalType": "uint256",
					"name": "",
					"type": "uint256"
				}
			],
			"stateMutability": "view",
			"type": "function"
		},
		{
			"inputs": [],
			"name": "monthlyTotalReward",
			"outputs": [
				{
					"internalType": "uint256",
					"name": "",
					"type": "uint256"
				}
			],
			"stateMutability": "view",
			"type": "function"
		},
		{
			"inputs": [
				{
					"internalType": "uint256",
					"name": "",
					"type": "uint256"
				}
			],
			"name": "packages",
			"outputs": [
				{
					"internalType": "uint256",
					"name": "",
					"type": "uint256"
				}
			],
			"stateMutability": "view",
			"type": "function"
		},
		{
			"inputs": [
				{
					"internalType": "uint256",
					"name": "_userId",
					"type": "uint256"
				}
			],
			"name": "pendingCommunity",
			"outputs": [
				{
					"internalType": "uint256",
					"name": "pendingGross",
					"type": "uint256"
				},
				{
					"internalType": "uint256",
					"name": "pendingAfterCap",
					"type": "uint256"
				}
			],
			"stateMutability": "view",
			"type": "function"
		},
		{
			"inputs": [
				{
					"internalType": "uint256",
					"name": "",
					"type": "uint256"
				}
			],
			"name": "poolPackages",
			"outputs": [
				{
					"internalType": "uint256",
					"name": "",
					"type": "uint256"
				}
			],
			"stateMutability": "view",
			"type": "function"
		},
		{
			"inputs": [
				{
					"internalType": "uint256",
					"name": "_sponsorId",
					"type": "uint256"
				}
			],
			"name": "register",
			"outputs": [],
			"stateMutability": "nonpayable",
			"type": "function"
		},
		{
			"inputs": [
				{
					"internalType": "uint256",
					"name": "",
					"type": "uint256"
				}
			],
			"name": "registeredUserIds",
			"outputs": [
				{
					"internalType": "uint256",
					"name": "",
					"type": "uint256"
				}
			],
			"stateMutability": "view",
			"type": "function"
		},
		{
			"inputs": [],
			"name": "systemMaintance",
			"outputs": [
				{
					"internalType": "address",
					"name": "",
					"type": "address"
				}
			],
			"stateMutability": "view",
			"type": "function"
		},
		{
			"inputs": [],
			"name": "teamDevelopment",
			"outputs": [
				{
					"internalType": "address",
					"name": "",
					"type": "address"
				}
			],
			"stateMutability": "view",
			"type": "function"
		},
		{
			"inputs": [],
			"name": "topRoyaltyReward",
			"outputs": [
				{
					"internalType": "uint256",
					"name": "",
					"type": "uint256"
				}
			],
			"stateMutability": "view",
			"type": "function"
		},
		{
			"inputs": [],
			"name": "topRoyaltyRound",
			"outputs": [
				{
					"internalType": "uint256",
					"name": "",
					"type": "uint256"
				}
			],
			"stateMutability": "view",
			"type": "function"
		},
		{
			"inputs": [],
			"name": "topRoyaltyStartTime",
			"outputs": [
				{
					"internalType": "uint256",
					"name": "",
					"type": "uint256"
				}
			],
			"stateMutability": "view",
			"type": "function"
		},
		{
			"inputs": [],
			"name": "totalUsers",
			"outputs": [
				{
					"internalType": "uint256",
					"name": "",
					"type": "uint256"
				}
			],
			"stateMutability": "view",
			"type": "function"
		},
		{
			"inputs": [
				{
					"internalType": "uint256",
					"name": "_userId",
					"type": "uint256"
				}
			],
			"name": "upgrade",
			"outputs": [],
			"stateMutability": "nonpayable",
			"type": "function"
		},
		{
			"inputs": [],
			"name": "usdt",
			"outputs": [
				{
					"internalType": "contract IERC20",
					"name": "",
					"type": "address"
				}
			],
			"stateMutability": "view",
			"type": "function"
		}
	]
}