{
	"data": {
		"bytecode": {
			"linkReferences": {},
			"object": "6080604052346108d957604051601f613c6038819003918201601f19168301916001600160401b03831184841017610638578084926080946040528339810103126108d95761004d8161091c565b6100596020830161091c565b610071606061006a6040860161091c565b940161091c565b6040519092906101e081016001600160401b038111828210176106385760405267d02ab486cedc0000815268015af1d78b58c4000060208201526802b5e3af16b1880000604082015268056bc75e2d631000006060820152680ad78ebc5ac620000060808201526815af1d78b58c40000060a0820152682b5e3af16b1880000060c08201526856bc75e2d63100000060e082015268ad78ebc5ac6200000061010082015269015af1d78b58c40000006101208201526902b5e3af16b18800000061014082015269056bc75e2d6310000000610160820152690ad78ebc5ac6200000006101808201526915af1d78b58c400000006101a0820152692b5e3af16b18800000006101c0820152600754600f60075580600f10610896575b5060075f5260205f20905f5b600f8110610879575050506101ab6108dd565b680410d586a20a4c00008152681043561a8829300000602082015268410d586a20a4c0000060408201526901043561a882930000006060820152690410d586a20a4c0000006080820152691043561a88293000000060a082015269410d586a20a4c000000060c0820152600854600760085580600710610836575b5060085f5260205f20905f5b60078110610819575050506102456108fc565b68056bc75e2d631000008152680ad78ebc5ac620000060208201526815af1d78b58c4000006040820152682b5e3af16b1880000060608201526856bc75e2d631000000608082015268ad78ebc5ac6200000060a082015269015af1d78b58c400000060c08201526902b5e3af16b18800000060e08201526009546008600955806008106107d6575b5060095f5260205f20905f5b600881106107b9575050506102ec6108dd565b60038152600560208201526007604082015260096060820152600b6080820152600d60a0820152600f60c08201525f5b600781106107a157505061032e6108fc565b6004815260056020820152600660408201526007606082015260086080820152600960a0820152600a60c0820152600b60e08201525f5b600881106107895750506103776108fc565b5f815260016020820152600160408201526001606082015260016080820152600160a0820152600160c0820152600160e08201525f5b60088110610771575050620151806037555f80546001600160a01b03199081166001600160a01b0393841617825560028054821694841694851781556003805483169785169790971790965560048054821695909316949094179091556103e860058190556001600655808252602c6020527f6c4c1a4f9839dca97a983c55cbfc33e7d08925bea4a675c4ea728373a4a1718e8054909416831784557f6c4c1a4f9839dca97a983c55cbfc33e7d08925bea4a675c4ea728373a4a1719155600f7f6c4c1a4f9839dca97a983c55cbfc33e7d08925bea4a675c4ea728373a4a1719455427f6c4c1a4f9839dca97a983c55cbfc33e7d08925bea4a675c4ea728373a4a1719d5560077f6c4c1a4f9839dca97a983c55cbfc33e7d08925bea4a675c4ea728373a4a1719981905560087f6c4c1a4f9839dca97a983c55cbfc33e7d08925bea4a675c4ea728373a4a1719b557f6c4c1a4f9839dca97a983c55cbfc33e7d08925bea4a675c4ea728373a4a171969490945592549192909181905b600f821061073d575050600a8301556005545f918252602b6020526040822055805b6008548210156106605760085482101561064c5760085f525f516020613c205f395f51905f5282015461057e91610946565b6005546040519192909160a081016001600160401b0381118282101761063857600193600491604052808352602083018181526040840185815260608501915f835260808601935f8552875f52602260205260405f20905f5260205260405f2095518655518786015551600285015551600384015551910155805f52602560205261060f60405f2060055490610967565b805f52602460205261063160405f2060055490815f5260205260405f20610967565b019061054c565b634e487b7160e01b5f52604160045260245ffd5b634e487b7160e01b5f52603260045260245ffd5b600c830155505f90815b600881106106865750600e015560405161326c90816109948239f35b909160095482101561064c5760095f525f516020613c405f395f51905f528201546106b091610946565b60055460405191929091608081016001600160401b03811182821017610638576001936003916040528083526020830184815260408401905f825260608501925f8452865f52602760205260405f20905f5260205260405f2094518555518685015551600284015551910155805f52602960205261073460405f2060055490610967565b0191909161066a565b90918183101561064c5760075f525f516020613c005f395f51905f528301546001916107699190610946565b92019061052a565b600190602060ff8451169301928160190155016103ad565b600190602060ff845116930192816011015501610365565b600190602060ff84511693019281600a01550161031c565b81516001600160501b0316818401556020909101906001016102d9565b60095f52610813905f516020613c405f395f51905f52017f6e1540171b6c0c960b71a7020d9f60077f6af931a8bbf590da0223dacf75c7b7610930565b5f6102cd565b81516001600160501b031681840155602090910190600101610232565b60085f52610873905f516020613c205f395f51905f52017ff3f7a9fe364faab93b216da50a3214154f22a0a2b415b23a84c8169e8b636eea610930565b5f610226565b81516001600160501b031681840155602090910190600101610198565b60075f526108d3905f516020613c005f395f51905f52017fa66cc928b5edb82af9bd49922954155ab7b0942694bea4ce44661d9a8736c697610930565b5f61018c565b5f80fd5b6040519060e082016001600160401b0381118382101761063857604052565b6040519061010082016001600160401b0381118382101761063857604052565b51906001600160a01b03821682036108d957565b81811061093b575050565b5f8155600101610930565b9190820180921161095357565b634e487b7160e01b5f52601160045260245ffd5b80549068010000000000000000821015610638576001820180825582101561064c575f5260205f20015556fe6080806040526004361015610012575f80fd5b5f3560e01c90816301be02b214611abe5750806301c234a814611aa25780630ef81b7414611a695780630f2b7cc914611a3a57806318ab487f14611a105780631f6ab899146118e85780632132d204146118bc57806324513088146118925780632c831633146118755780632f48ab7d1461184e57806332bc298c1461183157806332fcd9661461180f578063365b98b21461173d578063375b43b41461172257806339ab3603146116c85780634060160a1461146857806345977d031461126657806346b9dece146111d857806352a8c4c4146111bb57806358c7d352146111a05780635aabf7f1146111675780635ec64a441461113857806367d52d4d146110e157806370c8d7701461107457806378f6ad6d146110575780637cdc65f21461102f57806381a0b8161461100757806388afbe3e14610fdd5780638d58644c14610fa45780638da5cb5b14610f7c5780638e222e2414610d605780638f030ece14610d27578063907c84a714610cd6578063956a322814610caa5780639c38348614610c765780639e23463114610c4d578063ae4708dc14610c24578063bc1fa7c0146109f2578063bd1aae40146109be578063bf72467214610986578063bff1f9e114610969578063c216212a14610940578063c7bb62e814610902578063cb0e0d7d146108c6578063ce79c2c314610857578063d0a2fd791461082b578063d54d6ddb1461080d578063e9e34a16146107e5578063ec597e6f146107c8578063f207564e146102795763f5d74d931461024d575f80fd5b34610275575f366003190112610275576004546040516001600160a01b039091168152602090f35b5f80fd5b3461027557602036600319011261027557600435335f52602b60205260405f205461078e57805f52602c602052600360405f20015415610757575f8054602090610304906001600160a01b03166102ce611b3a565b90546040516323b872dd60e01b815233600482015230602482015260039290921b1c604482015293849283919082906064820190565b03925af1801561074c5761071f575b5060055460065460058102908082046005149015171561056b5761033691611c59565b90335f52602b6020528160405f2055815f52602c60205260405f2090336bffffffffffffffffffffffff60a01b835416178255426002830155826003830155600482018181556001600684015561038b611b3a565b90549060031b1c600a84015542600f840155815f52602c602052600760405f20018054906001820180921161056b5755815f5260316020526103d08460405f20612212565b603854600160401b81101561070b578060016103f192016038556038611b6c565b81549060031b9086821b915f19901b1916179055603254845f52603360205260405f20555f5f90835f526030602052600260405f2054105f146105e0575050835f52602c60205281600560405f200155815f52603060205260405f208054906001820180921161056b5755815b5f905b600f821061057f575b50506104a8610477611b3a565b90546040519160031b1c61048a82611c66565b81525f60208201524260408201526001606082015260018501611cc0565b6104b0611b3a565b90549060031b1c906005820282159280820460051484171561056b57603c810293818504603c1481171561056b5760198202918204601914171561056b576105139361050b60648994610505828096046124a3565b0461250a565b049154612610565b6006546001810180911161056b576006555f52602c602052600560018060a01b0360405f2054169101546040519081527f309bb360e8b69c23937ccc5fb01f9aeeead1c95a99604e175113ff82f2b1723a60203392a4005b634e487b7160e01b5f52601160045260245ffd5b80156105db57805f52602c602052600960405f20018054906001820180921161056b5755805f52602f60205260405f20825f526020526105c28660405f20612212565b5f52602c6020526001600560405f200154910190610461565b61046a565b5f5b600f81106105f2575b505061045e565b8161070657845f52602f60205260405f206001820180831161056b575f5260205260405f20546002820180831161056b5760ff811161056b576001901b1161063d575b6001016105e2565b93925f9591955b845f52602f60205260405f20865f5260205260405f20548110156106f857866106e757845f52602f60205260405f20865f526020526106868160405f20611b6c565b90549060031b1c805f526030602052600260405f2054106106ab575b50600101610644565b9193509550865f52602c60205280600560405f200155805f52603060205260405f208054906001820180921161056b57559160018096906106a2565b5092936001909591955b9050610635565b5092936001909591956106f1565b6105eb565b634e487b7160e01b5f52604160045260245ffd5b6107409060203d602011610745575b6107388183611c9e565b810190611e16565b610313565b503d61072e565b6040513d5f823e3d90fd5b60405162461bcd60e51b815260206004820152600f60248201526e24b73b30b634b21039b837b739b7b960891b6044820152606490fd5b60405162461bcd60e51b8152602060048201526012602482015271105b1c9958591e481c9959da5cdd195c995960721b6044820152606490fd5b34610275575f366003190112610275576020600554604051908152f35b34610275575f366003190112610275576003546040516001600160a01b039091168152602090f35b3461027557602036600319011261027557610829600435612006565b005b346102755760203660031901126102755760043560088110156102755760209060110154604051908152f35b346102755761086536611b81565b905f52602260205260405f20905f5260205260405f2080546108c26001830154926002810154906004600382015491015491604051958695869192608093969594919660a084019784526020840152604083015260608201520152565b0390f35b34610275576020366003190112610275576004356001600160a01b03811690819003610275575f52602b602052602060405f2054604051908152f35b346102755761091036611b81565b905f52602960205260405f2080548210156102755760209161093191611b6c565b90549060031b1c604051908152f35b346102755760203660031901126102755760043560075481101561027557610931602091611b0a565b34610275575f366003190112610275576020600654604051908152f35b346102755761099436611b81565b905f52602160205260405f20905f526020526040805f206001815491015482519182526020820152f35b34610275576109cc36611b81565b905f52602660205260405f20905f52602052602060ff60405f2054166040519015158152f35b3461027557602036600319011261027557600435805f52602c60205260405f20610a2660018060a01b038254163314611bd3565b600d81019081549160088310610a3b81611d96565b15610c10578260110154836019015490600684015410159081610c01575b5015610bc45782610bbf575b835f52602a60205260405f20835f52602052610a8860ff60405f20541615611dd1565b610a9183611b22565b90545f80546040516323b872dd60e01b815233600482015230602482015260039490941b9290921c60448401819052939291602091839160649183916001600160a01b03165af1801561074c57610ba2575b508054926001840180941161056b57610b5e9360019255855f52602a60205260405f20855f5260205260405f208260ff19825416179055600e8101610b29848254611c59565b9055610b36838787612cde565b60405192610b4384611c66565b83525f6020840152426040840152600b606084015201611cc0565b6001810180911161056b576040519081526040602082015260076040820152662137b7b9ba32b960c91b60608201525f5160206132175f395f51905f5260803392a3005b610bba9060203d602011610745576107388183611c9e565b610ae3565b610a65565b60405162461bcd60e51b8152602060048201526015602482015274155c19dc9859194814db1bdd08185b9908141bdbdb605a1b6044820152606490fd5b9050600b830154101585610a59565b634e487b7160e01b5f52603260045260245ffd5b346102755760203660031901126102755760043560085481101561027557610931602091611af2565b346102755760203660031901126102755760043560095481101561027557610931602091611b22565b3461027557610c8436611b81565b905f52602a60205260405f20905f52602052602060ff60405f2054166040519015158152f35b346102755760203660031901126102755760043560088110156102755760209060190154604051908152f35b3461027557610ce436611b81565b905f52602760205260405f20905f52602052608060405f208054906001810154906003600282015491015491604051938452602084015260408301526060820152f35b3461027557610d3536611ad8565b915f52602360205260405f20905f5260205260405f2080548210156102755760209161093191611b6c565b346102755763ffffffff610d7336611b97565b911690815f52602c60205260405f20610d9660018060a01b038254163314611bd3565b600b810191610da86007845410611c12565b600181019283821161056b57600854841015610f4657610dc784611af2565b90549060031b1c825f52602160205260405f20865f5260205260405f208054828110610f0157875f52602660205260405f20875f5260205260ff60405f205416610ebc5782610e1591611c4c565b90558154916001830180931161056b57600294610e6c9360019255600c8101610e3f848254611c59565b9055875f52602660205260405f20875f5260205260405f208260ff19825416179055610b368389896122cf565b0180911161056b57604051908152604060208201526016604082015275506f6f6c205570677261646520284561726e696e672960501b60608201525f5160206132175f395f51905f5260803392a3005b60405162461bcd60e51b815260206004820152601b60248201527f416c726561647920707572636861736564206e65787420706f6f6c00000000006044820152606490fd5b60405162461bcd60e51b815260206004820152601c60248201527f4e6f7420656e6f756768206e65787420706f6f6c2062616c616e6365000000006044820152606490fd5b60405162461bcd60e51b815260206004820152600e60248201526d139bc81a1a59da195c881c1bdbdb60921b6044820152606490fd5b34610275575f366003190112610275576001546040516001600160a01b039091168152602090f35b3461027557610fb236611ad8565b915f52602460205260405f20905f5260205260405f2080548210156102755760209161093191611b6c565b34610275576020366003190112610275576004355f526030602052602060405f2054604051908152f35b34610275575f366003190112610275576035546040516001600160a01b039091168152602090f35b34610275575f366003190112610275576002546040516001600160a01b039091168152602090f35b34610275575f366003190112610275576020603254604051908152f35b346102755761108236611b81565b905f52602e60205260405f20908154811015610275576110a191611bba565b508054600182015460028301546003840154600490940154604080519485526020850193909352918301526060820192909252608081019190915260a090f35b346102755760203660031901126102755760606110ff600435611e41565b91906020604051938492151583526040828401528051918291826040860152018484015e5f828201840152601f01601f19168101030190f35b346102755761114636611b81565b905f52603160205260405f2080548210156102755760209161093191611b6c565b346102755761117536611ad8565b915f52602f60205260405f20905f5260205260405f2080548210156102755760209161093191611b6c565b34610275575f366003190112610275576020604051600a8152f35b34610275575f366003190112610275576020603754604051908152f35b34610275576020366003190112610275576004355f52602d60205261014060405f208054906001810154906002810154600382015460048301546005840154906006850154926007860154946009600888015497015497604051998a5260208a015260408901526060880152608087015260a086015260c085015260e0840152610100830152610120820152f35b3461027557602036600319011261027557600435805f52602c60205260405f2061129a60018060a01b038254163314611bd3565b6006810190815491600f83101561142c576112b483611b0a565b90545f80546040516323b872dd60e01b815233600482015230602482015260039490941b9290921c60448401819052939291602091839160649183916001600160a01b03165af1801561074c5761140f575b508054906001820180921161056b5755600a8201611325828254611c59565b905561135560405161133681611c66565b8281525f60208201524260408201526001606082015260018401611cc0565b6005810281159082810460051482171561056b576023830283810460231483171561056b5761138b9161050560648093046124a3565b600f8202918204600f14171561056b5760649004916004820154600182019384831161056b578560056113d9956113c58885858298612750565b016113d384848484546128c7565b54612ab5565b60405190815260406020820152600460408201526314db1bdd60e21b60608201525f5160206132175f395f51905f5260803392a3005b6114279060203d602011610745576107388183611c9e565b611306565b60405162461bcd60e51b8152602060048201526014602482015273105b1c9958591e48185d081b585e081b195d995b60621b6044820152606490fd5b3461027557602036600319011261027557600435805f52602c60205260405f2061149c60018060a01b038254163314611bd3565b600b810190815491600783106114b181611d96565b15610c105782600a015460068301541061168357821590811561167e575b845f52602660205260405f20845f526020526114f260ff60405f20541615611dd1565b6114fb84611af2565b90545f80546040516323b872dd60e01b815233600482015230602482015260039490941b9290921c60448401819052949291602091839160649183916001600160a01b03165af1801561074c57611661575b5061160e575b8054926001840180941161056b576115cd9360019255855f52602660205260405f20855f5260205260405f208260ff19825416179055600c8101611598848254611c59565b90556115a58387876122cf565b604051926115b284611c66565b83525f6020840152426040840152600a606084015201611cc0565b6001810180911161056b57604051908152604060208201526004604082015263141bdbdb60e21b60608201525f5160206132175f395f51905f5260803392a3005b6004830154805f52602c602052600f60405f2001546202a300810180911161056b5742101561163e575b50611553565b5f52602c602052600860405f20018054906001820180921161056b575585611638565b6116799060203d602011610745576107388183611c9e565b61154d565b6114cf565b60405162461bcd60e51b815260206004820152601860248201527f5570677261646520796f7572206c6576656c20666972737400000000000000006044820152606490fd5b346102755760203660031901126102755760043560385481101561027557603854811015610c105760385f527f38395c5dceade9603479b177b68959049485df8aa97b39f3533039af5f4561990154604051908152602090f35b34610275575f366003190112610275576020604051600f8152f35b34610275576020366003190112610275576004355f52602c60205260405f20600160a01b60019003815416600282015491600381015460048201546005830154600684015460078501546008860154600987015491600a88015493600b89015495600c8a015497600d8b015499600e8c01549b600f01549c6040519e8f91825260208201526040015260608d015260808c015260a08b015260c08a015260e08901526101008801526101208701526101408601526101608501526101808401526101a08301526101c08201526101e090f35b34610275575f366003190112610275576020604051670de0b6b3a76400008152f35b34610275575f366003190112610275576020604051620151808152f35b34610275575f366003190112610275575f546040516001600160a01b039091168152602090f35b34610275575f366003190112610275576020603454604051908152f35b346102755760203660031901126102755760406118b0600435611d35565b82519182526020820152f35b3461027557602036600319011261027557600435600781101561027557602090600a0154604051908152f35b346102755763ffffffff6118fb36611b97565b911690815f52602c60205260405f2061191e60018060a01b038254163314611bd3565b61192e6007600b83015410611c12565b61193782611af2565b90549060031b1c825f52602160205260405f20845f52602052600160405f2001918254908282106119cb576119839361197284600194611c4c565b9055600c8101611598848254611c59565b604051908152604060208201526016604082015275506f6f6c205265546f70757020284561726e696e672960501b60608201525f5160206132175f395f51905f5260803392a3005b60405162461bcd60e51b815260206004820152601a60248201527f4e6f7420656e6f756768207265546f7075702062616c616e63650000000000006044820152606490fd5b34610275576020366003190112610275576004355f526033602052602060405f2054604051908152f35b3461027557611a4836611b81565b905f52602560205260405f2080548210156102755760209161093191611b6c565b3461027557611a7736611ad8565b915f52602860205260405f20905f5260205260405f2080548210156102755760209161093191611b6c565b34610275575f3660031901126102755760206040516127108152f35b34610275575f366003190112610275576020906036548152f35b606090600319011261027557600435906024359060443590565b600854811015610c105760085f5260205f2001905f90565b600754811015610c105760075f5260205f2001905f90565b600954811015610c105760095f5260205f2001905f90565b60075415610c105760075f9081527fa66cc928b5edb82af9bd49922954155ab7b0942694bea4ce44661d9a8736c68891565b8054821015610c10575f5260205f2001905f90565b6040906003190112610275576004359060243590565b60409060031901126102755760043563ffffffff81168103610275579060243590565b8054821015610c10575f52600560205f20910201905f90565b15611bda57565b60405162461bcd60e51b815260206004820152601060248201526f139bdd081e5bdd5c881858d8dbdd5b9d60821b6044820152606490fd5b15611c1957565b60405162461bcd60e51b815260206004820152600b60248201526a105d081b585e081c1bdbdb60aa1b6044820152606490fd5b9190820391821161056b57565b9190820180921161056b57565b6080810190811067ffffffffffffffff82111761070b57604052565b60a0810190811067ffffffffffffffff82111761070b57604052565b90601f8019910116810190811067ffffffffffffffff82111761070b57604052565b8054600160401b81101561070b5760018101808355811015610c1057600360609160ff935f5260205f209060021b01845181556020850151600182015560408501516002820155019201511660ff19825416179055565b8115611d21570490565b634e487b7160e01b5f52601260045260245ffd5b90815f52602c602052600360405f20015415611d8f57603254825f52603360205260405f20549081811115611d8557611d7a611d8292670de0b6b3a764000092611c4c565b048093612437565b90565b505090505f905f90565b5f91508190565b15611d9d57565b60405162461bcd60e51b815260206004820152600c60248201526b105d081b585e081b195d995b60a21b6044820152606490fd5b15611dd857565b60405162461bcd60e51b8152602060048201526016602482015275141bdbdb08185b1c9958591e481c1d5c98da185cd95960521b6044820152606490fd5b90816020910312610275575180151581036102755790565b8181029291811591840414171561056b57565b6060905f52602c60205260405f20600b81015491600854831015611f5357506007821015610c1057600682600a015491015410611f0657151580611eff575b611ec257600190604051611e95604082611c9e565b601981527f456c696769626c6520746f20627579206e65787420706f6f6c00000000000000602082015290565b5f90604051611ed2604082611c9e565b601781527f4275792070726576696f757320706f6f6c206669727374000000000000000000602082015290565b505f611e80565b505f90604051611f17606082611c9e565b602681527f596f75206e65656420746f207265616368206120686967686572206c6576656c60208201526508199a5c9cdd60d21b604082015290565b929150505f91611f666040519182611c9e565b602381527f596f752061726520616c726561647920617420746865206869676865737420706020820152621bdbdb60ea1b604082015290565b8054600160401b81101561070b57611fbc91600182018155611bba565b919091611ff3578051825560208101516001830155604081015160028301556060810151600383015560800151600490910155565b565b634e487b7160e01b5f525f60045260245ffd5b805f52602c60205260405f20906003820154156121dc5761203160018060a01b038354163314611bd3565b60325491815f52603360205260405f20548084146121d65761205c670de0b6b3a76400009185611c4c565b049182156121c55761206e8382612437565b93815f52603360205260405f205583806120a2575b9150508111612090575050565b611ff19161209d91611c4c565b61250a565b61214a9261210c836020945f52602d8552600760405f206120c4868254611c59565b8155016120d2858254611c59565b9055805f52602e855260405f20604051916120ec83611c82565b825284868301526001604083015242606083015260096080830152611f9f565b5f8054915460405163a9059cbb60e01b81526001600160a01b0391821660048201526024810194909452929485939092169183919082906044820190565b03925af190811561074c575f916121a6575b501561216a575f8083612083565b60405162461bcd60e51b81526020600482015260146024820152731554d115081d1c985b9cd9995c8819985a5b195960621b6044820152606490fd5b6121bf915060203d602011610745576107388183611c9e565b5f61215c565b9150505f52603360205260405f2055565b50505050565b60405162461bcd60e51b815260206004820152600e60248201526d155cd95c881b9bdd08199bdd5b9960921b6044820152606490fd5b8054600160401b81101561070b5761222f91600182018155611b6c565b819291549060031b91821b915f19901b1916179055565b1561224d57565b60405162461bcd60e51b8152602060048201526007602482015266125b9d985b1a5960ca1b6044820152606490fd5b1561228357565b60405162461bcd60e51b815260206004820152601060248201526f125b98dbdc9c9958dd08185b5bdd5b9d60821b6044820152606490fd5b8051821015610c105760209160051b010190565b91906122de6008548410612246565b6122f86122ea84611af2565b90549060031b1c341461227c565b825f52602560205260405f2092604051808560208297549384815201905f5260205f20925f5b81811061241e57505061233392500385611c9e565b83519361234285600554611c59565b90825f5260256020526123588260405f20612212565b5f19860195861161056b57612377612419916003611ff19804906122bb565b51916123df60405161238881611c82565b82815260208082018881526040808401898152606085018981525f608087018181528c8252602287528482208a83529096529290922094518555915160018501559051600284015551600383015551600490910155565b835f52602460205260405f20855f526020526123fe8160405f20612212565b835f52602360205260405f20835f5260205260405f20612212565b612f8f565b845483526001948501948994506020909301920161231e565b805f52602c60205260405f20905f52602d602052600a61246d60405f2092600f90600160088201541161249a575b830154611e2e565b049054818110156124935761248191611c4c565b908181111561248e575090565b905090565b5050505f90565b60149150612465565b6038549081158015612502575b6124ef57670de0b6b3a7640000810290808204670de0b6b3a7640000149015171561056b576124ea916124e291611d17565b603254611c59565b603255565b8091506124f95750565b611ff19061250a565b5080156124b0565b6002546001600160a01b03169081156125d7575f805460405163a9059cbb60e01b81526001600160a01b03948516600482015260248101849052936020928592604492849291165af191821561074c57611ff1926125ba575b506005545f52602d60205260405f2061257d828254611c59565b90556005545f52602e60205260405f206040519161259a83611c82565b5f835260208301525f604083015242606083015260056080830152611f9f565b6125d29060203d602011610745576107388183611c9e565b612563565b60405162461bcd60e51b8152602060048201526011602482015270199959481859191c9cc81b9bdd081cd95d607a1b6044820152606490fd5b80158015612745575b61273a575f818152602c6020908152604080832083548154925163a9059cbb60e01b81526001600160a01b0393841660048201526024810189905291959491939284926044928492165af1801561074c5761271d575b50805f52602d602052600160405f20612689868254611c59565b815501612697858254611c59565b90555f52602e6020526126d660405f20604051906126b482611c82565b8482528560208301526001604083015242606083015260016080830152611f9f565b60018060a01b03905416905f52602c6020525f5160206131f75f395f51905f52606060018060a01b0360405f205416936040519081526001602082015260016040820152a3565b6127359060203d602011610745576107388183611c9e565b61266f565b5050611ff19061250a565b506005548114612619565b9091811580156128ae575b6128a157815f52602c60205260405f2060018503612885575b5f8054825460405163a9059cbb60e01b81526001600160a01b0391821660048201526024810186905295949392602092879260449284929091165af192831561074c575f5160206131f75f395f51905f5294606094612868575b50805f52602d602052600160405f206127e8858254611c59565b8155016127f6848254611c59565b90555f52602e60205261283360405f206040519061281382611c82565b878252846020830152886040830152428683015260016080830152611f9f565b60018060a01b03905416935f52602c60205260018060a01b0360405f20541694604051918252602082015260016040820152a3565b6128809060203d602011610745576107388183611c9e565b6127ce565b600260078201541015612774575b50915050611ff1915061250a565b915050611ff1915061250a565b50600554821461275b565b5f19811461056b5760010190565b93919392909260019060055481148015612aad575b612a4857905b828110612a6c5750925f935b80151580612a60575b80612a56575b15612a4857805f52602c60205260405f209083600683015410156129305750600561292a910154946128b9565b936128ee565b5f8054835460405163a9059cbb60e01b81526001600160a01b039182166004820152602481018b9052979996985094969592949293926020928792604492849291165af192831561074c575f5160206131f75f395f51905f5294606094612a2c575b50805f52602d602052600260405f206129ac858254611c59565b8155016129ba848254611c59565b90555f52602e6020526129f760405f20604051906129d782611c82565b878252846020830152886040830152428683015260026080830152611f9f565b60018060a01b03905416935f52602c60205260018060a01b0360405f20541694604051918252602082015260026040820152a3565b612a439060203d8111610745576107388183611c9e565b612992565b50505091611ff1915061250a565b50600f85106128fd565b506005548114156128f7565b612a75906128b9565b905f52602c602052600560405f2001549060055482148015612aa5575b156128e25750505091611ff1915061250a565b508115612a92565b5080156128dc565b939190929380158015612cd3575b61289357821561289357612aeb612ada8484611d17565b92612ae58585611e2e565b90611c4c565b94600191945f5b858110612b085750505050505050806124f95750565b86151580612cc7575b612b46575b60019087158015612b3b575b612b2d575b01612af2565b612b368661250a565b612b27565b506005548814612b22565b92865f97929752602c60205282600660405f20015410155f14612ca5575f5b818110612b8a5750505f52602c602052600560405f20015494600180935b9050612b16565b5f838152602c60209081526040808320548354915163a9059cbb60e01b81526001600160a01b0391821660048201819052602482018c9052909594909392869260449284929091165af192831561074c57600193612c89575b50845f52602d602052600360405f20612bfd8a8254611c59565b815501612c0b898254611c59565b9055845f52602e602052612c4a60405f2060405190612c2982611c82565b8c82528a602083015288604083015242606083015260046080830152611f9f565b895f52602c602052828060a01b0360405f205416905f5160206131f75f395f51905f5260606040518b815289602082015260046040820152a301612b65565b612ca09060203d8111610745576107388183611c9e565b612be3565b95905f52602c6020526001612cc1600560405f200154976128b9565b93612b83565b50600554871415612b11565b506005548114612ac3565b612ceb6009548210612246565b612cf76122ea82611b22565b805f52602960205260405f20604051808260208294549384815201905f5260205f20925f5b818110612f76575050612d3192500382611c9e565b805190825f526029602052612d498460405f20612212565b5f19820191821161056b576003612d619204906122bb565b5190604051612d6f81611c66565b8381526003602082018381526040830185815260608401915f8352855f52602760205260405f20885f5260205260405f209451855551600185015551600284015551910155805f52602860205260405f20825f52602052612dd38360405f20612212565b81158015612f6b575b612f5f575f52602760205260405f20815f52602052600360405f200160038154105f14612f5f578054906001820180921161056b5755805f52602d602052600960405f20612e2b858254611c59565b815501612e39848254611c59565b9055805f52602e602052612e7960405f2060405190612e5782611c82565b84825285602083015260016040830152426060830152600b6080830152611f9f565b5f908152602c60205260409020546001600160a01b0316908215605f848102908582041482171561056b575f805460405163a9059cbb60e01b81526001600160a01b03878116600483015260649094046024820152926020928492604492849291165af1801561074c57612f42575b506005840290848204600514171561056b576064612f06910461250a565b5f52602c6020525f5160206131f75f395f51905f52606060018060a01b0360405f2054169360405190815260016020820152600b6040820152a3565b612f5a9060203d602011610745576107388183611c9e565b612ee8565b505050611ff19061250a565b506005548214612ddc565b8454835260019485019486945060209093019201612d1c565b9192821580156131eb575b6128a15760039004905f5b60038110612fb4575050505050565b815f52602260205260405f20845f5260205260405f209060046001830154920191825460278110612fec575b50506001915001612fa5565b6018811061308e575b508254601881101580613084575b61304e575b50825460248110612fe0576001810180911161056b5760019355835f52602160205260405f20905f526020528160405f2001613045858254611c59565b90555f80612fe0565b6001810180911161056b578355835f52602160205260405f20815f5260205260405f2061307c868254611c59565b90555f613008565b5060248110613003565b6001810180911161056b578355805f52602d602052600860405f206130b4878254611c59565b8155016130c2868254611c59565b9055805f52602e60205261310260405f20604051906130e082611c82565b89825287602083015260016040830152426060830152600a6080830152611f9f565b5f818152602c60205260409020546001600160a01b03168515605f878102908882041482171561056b575f805460405163a9059cbb60e01b81526001600160a01b03868116600483015260649094046024820152926020928492604492849291165af1801561074c576131cf575b506005870290878204600514171561056b57606461318e910461250a565b875f52602c60205260018060a01b0360405f205416905f5160206131f75f395f51905f52606060405189815260016020820152600a6040820152a35f612ff5565b6131e69060203d8111610745576107388183611c9e565b613170565b506005548314612f9a56fee17b61d324ce17328f433d0ab62581c0f0aa997312bae80fbdfcd2aa9b91d6e3babb6a363fd9a057996d09882c0b74b710d121707d19eeffd91c51c3171a7c91a26469706673582212208f9d5330dccfcdada3c29c4f5f7401e088f91ddb7c6aa6734e31e37b5e78c21c64736f6c634300081e0033a66cc928b5edb82af9bd49922954155ab7b0942694bea4ce44661d9a8736c688f3f7a9fe364faab93b216da50a3214154f22a0a2b415b23a84c8169e8b636ee36e1540171b6c0c960b71a7020d9f60077f6af931a8bbf590da0223dacf75c7af",
			"opcodes": "PUSH1 0x80 PUSH1 0x40 MSTORE CALLVALUE PUSH2 0x8D9 JUMPI PUSH1 0x40 MLOAD PUSH1 0x1F PUSH2 0x3C60 CODESIZE DUP2 SWAP1 SUB SWAP2 DUP3 ADD PUSH1 0x1F NOT AND DUP4 ADD SWAP2 PUSH1 0x1 PUSH1 0x1 PUSH1 0x40 SHL SUB DUP4 GT DUP5 DUP5 LT OR PUSH2 0x638 JUMPI DUP1 DUP5 SWAP3 PUSH1 0x80 SWAP5 PUSH1 0x40 MSTORE DUP4 CODECOPY DUP2 ADD SUB SLT PUSH2 0x8D9 JUMPI PUSH2 0x4D DUP2 PUSH2 0x91C JUMP JUMPDEST PUSH2 0x59 PUSH1 0x20 DUP4 ADD PUSH2 0x91C JUMP JUMPDEST PUSH2 0x71 PUSH1 0x60 PUSH2 0x6A PUSH1 0x40 DUP7 ADD PUSH2 0x91C JUMP JUMPDEST SWAP5 ADD PUSH2 0x91C JUMP JUMPDEST PUSH1 0x40 MLOAD SWAP1 SWAP3 SWAP1 PUSH2 0x1E0 DUP2 ADD PUSH1 0x1 PUSH1 0x1 PUSH1 0x40 SHL SUB DUP2 GT DUP3 DUP3 LT OR PUSH2 0x638 JUMPI PUSH1 0x40 MSTORE PUSH8 0xD02AB486CEDC0000 DUP2 MSTORE PUSH9 0x15AF1D78B58C40000 PUSH1 0x20 DUP3 ADD MSTORE PUSH9 0x2B5E3AF16B1880000 PUSH1 0x40 DUP3 ADD MSTORE PUSH9 0x56BC75E2D63100000 PUSH1 0x60 DUP3 ADD MSTORE PUSH9 0xAD78EBC5AC6200000 PUSH1 0x80 DUP3 ADD MSTORE PUSH9 0x15AF1D78B58C400000 PUSH1 0xA0 DUP3 ADD MSTORE PUSH9 0x2B5E3AF16B18800000 PUSH1 0xC0 DUP3 ADD MSTORE PUSH9 0x56BC75E2D631000000 PUSH1 0xE0 DUP3 ADD MSTORE PUSH9 0xAD78EBC5AC62000000 PUSH2 0x100 DUP3 ADD MSTORE PUSH10 0x15AF1D78B58C4000000 PUSH2 0x120 DUP3 ADD MSTORE PUSH10 0x2B5E3AF16B188000000 PUSH2 0x140 DUP3 ADD MSTORE PUSH10 0x56BC75E2D6310000000 PUSH2 0x160 DUP3 ADD MSTORE PUSH10 0xAD78EBC5AC620000000 PUSH2 0x180 DUP3 ADD MSTORE PUSH10 0x15AF1D78B58C40000000 PUSH2 0x1A0 DUP3 ADD MSTORE PUSH10 0x2B5E3AF16B1880000000 PUSH2 0x1C0 DUP3 ADD MSTORE PUSH1 0x7 SLOAD PUSH1 0xF PUSH1 0x7 SSTORE DUP1 PUSH1 0xF LT PUSH2 0x896 JUMPI JUMPDEST POP PUSH1 0x7 PUSH0 MSTORE PUSH1 0x20 PUSH0 KECCAK256 SWAP1 PUSH0 JUMPDEST PUSH1 0xF DUP2 LT PUSH2 0x879 JUMPI POP POP POP PUSH2 0x1AB PUSH2 0x8DD JUMP JUMPDEST PUSH9 0x410D586A20A4C0000 DUP2 MSTORE PUSH9 0x1043561A8829300000 PUSH1 0x20 DUP3 ADD MSTORE PUSH9 0x410D586A20A4C00000 PUSH1 0x40 DUP3 ADD MSTORE PUSH10 0x1043561A88293000000 PUSH1 0x60 DUP3 ADD MSTORE PUSH10 0x410D586A20A4C000000 PUSH1 0x80 DUP3 ADD MSTORE PUSH10 0x1043561A882930000000 PUSH1 0xA0 DUP3 ADD MSTORE PUSH10 0x410D586A20A4C0000000 PUSH1 0xC0 DUP3 ADD MSTORE PUSH1 0x8 SLOAD PUSH1 0x7 PUSH1 0x8 SSTORE DUP1 PUSH1 0x7 LT PUSH2 0x836 JUMPI JUMPDEST POP PUSH1 0x8 PUSH0 MSTORE PUSH1 0x20 PUSH0 KECCAK256 SWAP1 PUSH0 JUMPDEST PUSH1 0x7 DUP2 LT PUSH2 0x819 JUMPI POP POP POP PUSH2 0x245 PUSH2 0x8FC JUMP JUMPDEST PUSH9 0x56BC75E2D63100000 DUP2 MSTORE PUSH9 0xAD78EBC5AC6200000 PUSH1 0x20 DUP3 ADD MSTORE PUSH9 0x15AF1D78B58C400000 PUSH1 0x40 DUP3 ADD MSTORE PUSH9 0x2B5E3AF16B18800000 PUSH1 0x60 DUP3 ADD MSTORE PUSH9 0x56BC75E2D631000000 PUSH1 0x80 DUP3 ADD MSTORE PUSH9 0xAD78EBC5AC62000000 PUSH1 0xA0 DUP3 ADD MSTORE PUSH10 0x15AF1D78B58C4000000 PUSH1 0xC0 DUP3 ADD MSTORE PUSH10 0x2B5E3AF16B188000000 PUSH1 0xE0 DUP3 ADD MSTORE PUSH1 0x9 SLOAD PUSH1 0x8 PUSH1 0x9 SSTORE DUP1 PUSH1 0x8 LT PUSH2 0x7D6 JUMPI JUMPDEST POP PUSH1 0x9 PUSH0 MSTORE PUSH1 0x20 PUSH0 KECCAK256 SWAP1 PUSH0 JUMPDEST PUSH1 0x8 DUP2 LT PUSH2 0x7B9 JUMPI POP POP POP PUSH2 0x2EC PUSH2 0x8DD JUMP JUMPDEST PUSH1 0x3 DUP2 MSTORE PUSH1 0x5 PUSH1 0x20 DUP3 ADD MSTORE PUSH1 0x7 PUSH1 0x40 DUP3 ADD MSTORE PUSH1 0x9 PUSH1 0x60 DUP3 ADD MSTORE PUSH1 0xB PUSH1 0x80 DUP3 ADD MSTORE PUSH1 0xD PUSH1 0xA0 DUP3 ADD MSTORE PUSH1 0xF PUSH1 0xC0 DUP3 ADD MSTORE PUSH0 JUMPDEST PUSH1 0x7 DUP2 LT PUSH2 0x7A1 JUMPI POP POP PUSH2 0x32E PUSH2 0x8FC JUMP JUMPDEST PUSH1 0x4 DUP2 MSTORE PUSH1 0x5 PUSH1 0x20 DUP3 ADD MSTORE PUSH1 0x6 PUSH1 0x40 DUP3 ADD MSTORE PUSH1 0x7 PUSH1 0x60 DUP3 ADD MSTORE PUSH1 0x8 PUSH1 0x80 DUP3 ADD MSTORE PUSH1 0x9 PUSH1 0xA0 DUP3 ADD MSTORE PUSH1 0xA PUSH1 0xC0 DUP3 ADD MSTORE PUSH1 0xB PUSH1 0xE0 DUP3 ADD MSTORE PUSH0 JUMPDEST PUSH1 0x8 DUP2 LT PUSH2 0x789 JUMPI POP POP PUSH2 0x377 PUSH2 0x8FC JUMP JUMPDEST PUSH0 DUP2 MSTORE PUSH1 0x1 PUSH1 0x20 DUP3 ADD MSTORE PUSH1 0x1 PUSH1 0x40 DUP3 ADD MSTORE PUSH1 0x1 PUSH1 0x60 DUP3 ADD MSTORE PUSH1 0x1 PUSH1 0x80 DUP3 ADD MSTORE PUSH1 0x1 PUSH1 0xA0 DUP3 ADD MSTORE PUSH1 0x1 PUSH1 0xC0 DUP3 ADD MSTORE PUSH1 0x1 PUSH1 0xE0 DUP3 ADD MSTORE PUSH0 JUMPDEST PUSH1 0x8 DUP2 LT PUSH2 0x771 JUMPI POP POP PUSH3 0x15180 PUSH1 0x37 SSTORE PUSH0 DUP1 SLOAD PUSH1 0x1 PUSH1 0x1 PUSH1 0xA0 SHL SUB NOT SWAP1 DUP2 AND PUSH1 0x1 PUSH1 0x1 PUSH1 0xA0 SHL SUB SWAP4 DUP5 AND OR DUP3 SSTORE PUSH1 0x2 DUP1 SLOAD DUP3 AND SWAP5 DUP5 AND SWAP5 DUP6 OR DUP2 SSTORE PUSH1 0x3 DUP1 SLOAD DUP4 AND SWAP8 DUP6 AND SWAP8 SWAP1 SWAP8 OR SWAP1 SWAP7 SSTORE PUSH1 0x4 DUP1 SLOAD DUP3 AND SWAP6 SWAP1 SWAP4 AND SWAP5 SWAP1 SWAP5 OR SWAP1 SWAP2 SSTORE PUSH2 0x3E8 PUSH1 0x5 DUP2 SWAP1 SSTORE PUSH1 0x1 PUSH1 0x6 SSTORE DUP1 DUP3 MSTORE PUSH1 0x2C PUSH1 0x20 MSTORE PUSH32 0x6C4C1A4F9839DCA97A983C55CBFC33E7D08925BEA4A675C4EA728373A4A1718E DUP1 SLOAD SWAP1 SWAP5 AND DUP4 OR DUP5 SSTORE PUSH32 0x6C4C1A4F9839DCA97A983C55CBFC33E7D08925BEA4A675C4EA728373A4A17191 SSTORE PUSH1 0xF PUSH32 0x6C4C1A4F9839DCA97A983C55CBFC33E7D08925BEA4A675C4EA728373A4A17194 SSTORE TIMESTAMP PUSH32 0x6C4C1A4F9839DCA97A983C55CBFC33E7D08925BEA4A675C4EA728373A4A1719D SSTORE PUSH1 0x7 PUSH32 0x6C4C1A4F9839DCA97A983C55CBFC33E7D08925BEA4A675C4EA728373A4A17199 DUP2 SWAP1 SSTORE PUSH1 0x8 PUSH32 0x6C4C1A4F9839DCA97A983C55CBFC33E7D08925BEA4A675C4EA728373A4A1719B SSTORE PUSH32 0x6C4C1A4F9839DCA97A983C55CBFC33E7D08925BEA4A675C4EA728373A4A17196 SWAP5 SWAP1 SWAP5 SSTORE SWAP3 SLOAD SWAP2 SWAP3 SWAP1 SWAP2 DUP2 SWAP1 JUMPDEST PUSH1 0xF DUP3 LT PUSH2 0x73D JUMPI POP POP PUSH1 0xA DUP4 ADD SSTORE PUSH1 0x5 SLOAD PUSH0 SWAP2 DUP3 MSTORE PUSH1 0x2B PUSH1 0x20 MSTORE PUSH1 0x40 DUP3 KECCAK256 SSTORE DUP1 JUMPDEST PUSH1 0x8 SLOAD DUP3 LT ISZERO PUSH2 0x660 JUMPI PUSH1 0x8 SLOAD DUP3 LT ISZERO PUSH2 0x64C JUMPI PUSH1 0x8 PUSH0 MSTORE PUSH0 MLOAD PUSH1 0x20 PUSH2 0x3C20 PUSH0 CODECOPY PUSH0 MLOAD SWAP1 PUSH0 MSTORE DUP3 ADD SLOAD PUSH2 0x57E SWAP2 PUSH2 0x946 JUMP JUMPDEST PUSH1 0x5 SLOAD PUSH1 0x40 MLOAD SWAP2 SWAP3 SWAP1 SWAP2 PUSH1 0xA0 DUP2 ADD PUSH1 0x1 PUSH1 0x1 PUSH1 0x40 SHL SUB DUP2 GT DUP3 DUP3 LT OR PUSH2 0x638 JUMPI PUSH1 0x1 SWAP4 PUSH1 0x4 SWAP2 PUSH1 0x40 MSTORE DUP1 DUP4 MSTORE PUSH1 0x20 DUP4 ADD DUP2 DUP2 MSTORE PUSH1 0x40 DUP5 ADD DUP6 DUP2 MSTORE PUSH1 0x60 DUP6 ADD SWAP2 PUSH0 DUP4 MSTORE PUSH1 0x80 DUP7 ADD SWAP4 PUSH0 DUP6 MSTORE DUP8 PUSH0 MSTORE PUSH1 0x22 PUSH1 0x20 MSTORE PUSH1 0x40 PUSH0 KECCAK256 SWAP1 PUSH0 MSTORE PUSH1 0x20 MSTORE PUSH1 0x40 PUSH0 KECCAK256 SWAP6 MLOAD DUP7 SSTORE MLOAD DUP8 DUP7 ADD SSTORE MLOAD PUSH1 0x2 DUP6 ADD SSTORE MLOAD PUSH1 0x3 DUP5 ADD SSTORE MLOAD SWAP2 ADD SSTORE DUP1 PUSH0 MSTORE PUSH1 0x25 PUSH1 0x20 MSTORE PUSH2 0x60F PUSH1 0x40 PUSH0 KECCAK256 PUSH1 0x5 SLOAD SWAP1 PUSH2 0x967 JUMP JUMPDEST DUP1 PUSH0 MSTORE PUSH1 0x24 PUSH1 0x20 MSTORE PUSH2 0x631 PUSH1 0x40 PUSH0 KECCAK256 PUSH1 0x5 SLOAD SWAP1 DUP2 PUSH0 MSTORE PUSH1 0x20 MSTORE PUSH1 0x40 PUSH0 KECCAK256 PUSH2 0x967 JUMP JUMPDEST ADD SWAP1 PUSH2 0x54C JUMP JUMPDEST PUSH4 0x4E487B71 PUSH1 0xE0 SHL PUSH0 MSTORE PUSH1 0x41 PUSH1 0x4 MSTORE PUSH1 0x24 PUSH0 REVERT JUMPDEST PUSH4 0x4E487B71 PUSH1 0xE0 SHL PUSH0 MSTORE PUSH1 0x32 PUSH1 0x4 MSTORE PUSH1 0x24 PUSH0 REVERT JUMPDEST PUSH1 0xC DUP4 ADD SSTORE POP PUSH0 SWAP1 DUP2 JUMPDEST PUSH1 0x8 DUP2 LT PUSH2 0x686 JUMPI POP PUSH1 0xE ADD SSTORE PUSH1 0x40 MLOAD PUSH2 0x326C SWAP1 DUP2 PUSH2 0x994 DUP3 CODECOPY RETURN JUMPDEST SWAP1 SWAP2 PUSH1 0x9 SLOAD DUP3 LT ISZERO PUSH2 0x64C JUMPI PUSH1 0x9 PUSH0 MSTORE PUSH0 MLOAD PUSH1 0x20 PUSH2 0x3C40 PUSH0 CODECOPY PUSH0 MLOAD SWAP1 PUSH0 MSTORE DUP3 ADD SLOAD PUSH2 0x6B0 SWAP2 PUSH2 0x946 JUMP JUMPDEST PUSH1 0x5 SLOAD PUSH1 0x40 MLOAD SWAP2 SWAP3 SWAP1 SWAP2 PUSH1 0x80 DUP2 ADD PUSH1 0x1 PUSH1 0x1 PUSH1 0x40 SHL SUB DUP2 GT DUP3 DUP3 LT OR PUSH2 0x638 JUMPI PUSH1 0x1 SWAP4 PUSH1 0x3 SWAP2 PUSH1 0x40 MSTORE DUP1 DUP4 MSTORE PUSH1 0x20 DUP4 ADD DUP5 DUP2 MSTORE PUSH1 0x40 DUP5 ADD SWAP1 PUSH0 DUP3 MSTORE PUSH1 0x60 DUP6 ADD SWAP3 PUSH0 DUP5 MSTORE DUP7 PUSH0 MSTORE PUSH1 0x27 PUSH1 0x20 MSTORE PUSH1 0x40 PUSH0 KECCAK256 SWAP1 PUSH0 MSTORE PUSH1 0x20 MSTORE PUSH1 0x40 PUSH0 KECCAK256 SWAP5 MLOAD DUP6 SSTORE MLOAD DUP7 DUP6 ADD SSTORE MLOAD PUSH1 0x2 DUP5 ADD SSTORE MLOAD SWAP2 ADD SSTORE DUP1 PUSH0 MSTORE PUSH1 0x29 PUSH1 0x20 MSTORE PUSH2 0x734 PUSH1 0x40 PUSH0 KECCAK256 PUSH1 0x5 SLOAD SWAP1 PUSH2 0x967 JUMP JUMPDEST ADD SWAP2 SWAP1 SWAP2 PUSH2 0x66A JUMP JUMPDEST SWAP1 SWAP2 DUP2 DUP4 LT ISZERO PUSH2 0x64C JUMPI PUSH1 0x7 PUSH0 MSTORE PUSH0 MLOAD PUSH1 0x20 PUSH2 0x3C00 PUSH0 CODECOPY PUSH0 MLOAD SWAP1 PUSH0 MSTORE DUP4 ADD SLOAD PUSH1 0x1 SWAP2 PUSH2 0x769 SWAP2 SWAP1 PUSH2 0x946 JUMP JUMPDEST SWAP3 ADD SWAP1 PUSH2 0x52A JUMP JUMPDEST PUSH1 0x1 SWAP1 PUSH1 0x20 PUSH1 0xFF DUP5 MLOAD AND SWAP4 ADD SWAP3 DUP2 PUSH1 0x19 ADD SSTORE ADD PUSH2 0x3AD JUMP JUMPDEST PUSH1 0x1 SWAP1 PUSH1 0x20 PUSH1 0xFF DUP5 MLOAD AND SWAP4 ADD SWAP3 DUP2 PUSH1 0x11 ADD SSTORE ADD PUSH2 0x365 JUMP JUMPDEST PUSH1 0x1 SWAP1 PUSH1 0x20 PUSH1 0xFF DUP5 MLOAD AND SWAP4 ADD SWAP3 DUP2 PUSH1 0xA ADD SSTORE ADD PUSH2 0x31C JUMP JUMPDEST DUP2 MLOAD PUSH1 0x1 PUSH1 0x1 PUSH1 0x50 SHL SUB AND DUP2 DUP5 ADD SSTORE PUSH1 0x20 SWAP1 SWAP2 ADD SWAP1 PUSH1 0x1 ADD PUSH2 0x2D9 JUMP JUMPDEST PUSH1 0x9 PUSH0 MSTORE PUSH2 0x813 SWAP1 PUSH0 MLOAD PUSH1 0x20 PUSH2 0x3C40 PUSH0 CODECOPY PUSH0 MLOAD SWAP1 PUSH0 MSTORE ADD PUSH32 0x6E1540171B6C0C960B71A7020D9F60077F6AF931A8BBF590DA0223DACF75C7B7 PUSH2 0x930 JUMP JUMPDEST PUSH0 PUSH2 0x2CD JUMP JUMPDEST DUP2 MLOAD PUSH1 0x1 PUSH1 0x1 PUSH1 0x50 SHL SUB AND DUP2 DUP5 ADD SSTORE PUSH1 0x20 SWAP1 SWAP2 ADD SWAP1 PUSH1 0x1 ADD PUSH2 0x232 JUMP JUMPDEST PUSH1 0x8 PUSH0 MSTORE PUSH2 0x873 SWAP1 PUSH0 MLOAD PUSH1 0x20 PUSH2 0x3C20 PUSH0 CODECOPY PUSH0 MLOAD SWAP1 PUSH0 MSTORE ADD PUSH32 0xF3F7A9FE364FAAB93B216DA50A3214154F22A0A2B415B23A84C8169E8B636EEA PUSH2 0x930 JUMP JUMPDEST PUSH0 PUSH2 0x226 JUMP JUMPDEST DUP2 MLOAD PUSH1 0x1 PUSH1 0x1 PUSH1 0x50 SHL SUB AND DUP2 DUP5 ADD SSTORE PUSH1 0x20 SWAP1 SWAP2 ADD SWAP1 PUSH1 0x1 ADD PUSH2 0x198 JUMP JUMPDEST PUSH1 0x7 PUSH0 MSTORE PUSH2 0x8D3 SWAP1 PUSH0 MLOAD PUSH1 0x20 PUSH2 0x3C00 PUSH0 CODECOPY PUSH0 MLOAD SWAP1 PUSH0 MSTORE ADD PUSH32 0xA66CC928B5EDB82AF9BD49922954155AB7B0942694BEA4CE44661D9A8736C697 PUSH2 0x930 JUMP JUMPDEST PUSH0 PUSH2 0x18C JUMP JUMPDEST PUSH0 DUP1 REVERT JUMPDEST PUSH1 0x40 MLOAD SWAP1 PUSH1 0xE0 DUP3 ADD PUSH1 0x1 PUSH1 0x1 PUSH1 0x40 SHL SUB DUP2 GT DUP4 DUP3 LT OR PUSH2 0x638 JUMPI PUSH1 0x40 MSTORE JUMP JUMPDEST PUSH1 0x40 MLOAD SWAP1 PUSH2 0x100 DUP3 ADD PUSH1 0x1 PUSH1 0x1 PUSH1 0x40 SHL SUB DUP2 GT DUP4 DUP3 LT OR PUSH2 0x638 JUMPI PUSH1 0x40 MSTORE JUMP JUMPDEST MLOAD SWAP1 PUSH1 0x1 PUSH1 0x1 PUSH1 0xA0 SHL SUB DUP3 AND DUP3 SUB PUSH2 0x8D9 JUMPI JUMP JUMPDEST DUP2 DUP2 LT PUSH2 0x93B JUMPI POP POP JUMP JUMPDEST PUSH0 DUP2 SSTORE PUSH1 0x1 ADD PUSH2 0x930 JUMP JUMPDEST SWAP2 SWAP1 DUP3 ADD DUP1 SWAP3 GT PUSH2 0x953 JUMPI JUMP JUMPDEST PUSH4 0x4E487B71 PUSH1 0xE0 SHL PUSH0 MSTORE PUSH1 0x11 PUSH1 0x4 MSTORE PUSH1 0x24 PUSH0 REVERT JUMPDEST DUP1 SLOAD SWAP1 PUSH9 0x10000000000000000 DUP3 LT ISZERO PUSH2 0x638 JUMPI PUSH1 0x1 DUP3 ADD DUP1 DUP3 SSTORE DUP3 LT ISZERO PUSH2 0x64C JUMPI PUSH0 MSTORE PUSH1 0x20 PUSH0 KECCAK256 ADD SSTORE JUMP INVALID PUSH1 0x80 DUP1 PUSH1 0x40 MSTORE PUSH1 0x4 CALLDATASIZE LT ISZERO PUSH2 0x12 JUMPI PUSH0 DUP1 REVERT JUMPDEST PUSH0 CALLDATALOAD PUSH1 0xE0 SHR SWAP1 DUP2 PUSH4 0x1BE02B2 EQ PUSH2 0x1ABE JUMPI POP DUP1 PUSH4 0x1C234A8 EQ PUSH2 0x1AA2 JUMPI DUP1 PUSH4 0xEF81B74 EQ PUSH2 0x1A69 JUMPI DUP1 PUSH4 0xF2B7CC9 EQ PUSH2 0x1A3A JUMPI DUP1 PUSH4 0x18AB487F EQ PUSH2 0x1A10 JUMPI DUP1 PUSH4 0x1F6AB899 EQ PUSH2 0x18E8 JUMPI DUP1 PUSH4 0x2132D204 EQ PUSH2 0x18BC JUMPI DUP1 PUSH4 0x24513088 EQ PUSH2 0x1892 JUMPI DUP1 PUSH4 0x2C831633 EQ PUSH2 0x1875 JUMPI DUP1 PUSH4 0x2F48AB7D EQ PUSH2 0x184E JUMPI DUP1 PUSH4 0x32BC298C EQ PUSH2 0x1831 JUMPI DUP1 PUSH4 0x32FCD966 EQ PUSH2 0x180F JUMPI DUP1 PUSH4 0x365B98B2 EQ PUSH2 0x173D JUMPI DUP1 PUSH4 0x375B43B4 EQ PUSH2 0x1722 JUMPI DUP1 PUSH4 0x39AB3603 EQ PUSH2 0x16C8 JUMPI DUP1 PUSH4 0x4060160A EQ PUSH2 0x1468 JUMPI DUP1 PUSH4 0x45977D03 EQ PUSH2 0x1266 JUMPI DUP1 PUSH4 0x46B9DECE EQ PUSH2 0x11D8 JUMPI DUP1 PUSH4 0x52A8C4C4 EQ PUSH2 0x11BB JUMPI DUP1 PUSH4 0x58C7D352 EQ PUSH2 0x11A0 JUMPI DUP1 PUSH4 0x5AABF7F1 EQ PUSH2 0x1167 JUMPI DUP1 PUSH4 0x5EC64A44 EQ PUSH2 0x1138 JUMPI DUP1 PUSH4 0x67D52D4D EQ PUSH2 0x10E1 JUMPI DUP1 PUSH4 0x70C8D770 EQ PUSH2 0x1074 JUMPI DUP1 PUSH4 0x78F6AD6D EQ PUSH2 0x1057 JUMPI DUP1 PUSH4 0x7CDC65F2 EQ PUSH2 0x102F JUMPI DUP1 PUSH4 0x81A0B816 EQ PUSH2 0x1007 JUMPI DUP1 PUSH4 0x88AFBE3E EQ PUSH2 0xFDD JUMPI DUP1 PUSH4 0x8D58644C EQ PUSH2 0xFA4 JUMPI DUP1 PUSH4 0x8DA5CB5B EQ PUSH2 0xF7C JUMPI DUP1 PUSH4 0x8E222E24 EQ PUSH2 0xD60 JUMPI DUP1 PUSH4 0x8F030ECE EQ PUSH2 0xD27 JUMPI DUP1 PUSH4 0x907C84A7 EQ PUSH2 0xCD6 JUMPI DUP1 PUSH4 0x956A3228 EQ PUSH2 0xCAA JUMPI DUP1 PUSH4 0x9C383486 EQ PUSH2 0xC76 JUMPI DUP1 PUSH4 0x9E234631 EQ PUSH2 0xC4D JUMPI DUP1 PUSH4 0xAE4708DC EQ PUSH2 0xC24 JUMPI DUP1 PUSH4 0xBC1FA7C0 EQ PUSH2 0x9F2 JUMPI DUP1 PUSH4 0xBD1AAE40 EQ PUSH2 0x9BE JUMPI DUP1 PUSH4 0xBF724672 EQ PUSH2 0x986 JUMPI DUP1 PUSH4 0xBFF1F9E1 EQ PUSH2 0x969 JUMPI DUP1 PUSH4 0xC216212A EQ PUSH2 0x940 JUMPI DUP1 PUSH4 0xC7BB62E8 EQ PUSH2 0x902 JUMPI DUP1 PUSH4 0xCB0E0D7D EQ PUSH2 0x8C6 JUMPI DUP1 PUSH4 0xCE79C2C3 EQ PUSH2 0x857 JUMPI DUP1 PUSH4 0xD0A2FD79 EQ PUSH2 0x82B JUMPI DUP1 PUSH4 0xD54D6DDB EQ PUSH2 0x80D JUMPI DUP1 PUSH4 0xE9E34A16 EQ PUSH2 0x7E5 JUMPI DUP1 PUSH4 0xEC597E6F EQ PUSH2 0x7C8 JUMPI DUP1 PUSH4 0xF207564E EQ PUSH2 0x279 JUMPI PUSH4 0xF5D74D93 EQ PUSH2 0x24D JUMPI PUSH0 DUP1 REVERT JUMPDEST CALLVALUE PUSH2 0x275 JUMPI PUSH0 CALLDATASIZE PUSH1 0x3 NOT ADD SLT PUSH2 0x275 JUMPI PUSH1 0x4 SLOAD PUSH1 0x40 MLOAD PUSH1 0x1 PUSH1 0x1 PUSH1 0xA0 SHL SUB SWAP1 SWAP2 AND DUP2 MSTORE PUSH1 0x20 SWAP1 RETURN JUMPDEST PUSH0 DUP1 REVERT JUMPDEST CALLVALUE PUSH2 0x275 JUMPI PUSH1 0x20 CALLDATASIZE PUSH1 0x3 NOT ADD SLT PUSH2 0x275 JUMPI PUSH1 0x4 CALLDATALOAD CALLER PUSH0 MSTORE PUSH1 0x2B PUSH1 0x20 MSTORE PUSH1 0x40 PUSH0 KECCAK256 SLOAD PUSH2 0x78E JUMPI DUP1 PUSH0 MSTORE PUSH1 0x2C PUSH1 0x20 MSTORE PUSH1 0x3 PUSH1 0x40 PUSH0 KECCAK256 ADD SLOAD ISZERO PUSH2 0x757 JUMPI PUSH0 DUP1 SLOAD PUSH1 0x20 SWAP1 PUSH2 0x304 SWAP1 PUSH1 0x1 PUSH1 0x1 PUSH1 0xA0 SHL SUB AND PUSH2 0x2CE PUSH2 0x1B3A JUMP JUMPDEST SWAP1 SLOAD PUSH1 0x40 MLOAD PUSH4 0x23B872DD PUSH1 0xE0 SHL DUP2 MSTORE CALLER PUSH1 0x4 DUP3 ADD MSTORE ADDRESS PUSH1 0x24 DUP3 ADD MSTORE PUSH1 0x3 SWAP3 SWAP1 SWAP3 SHL SHR PUSH1 0x44 DUP3 ADD MSTORE SWAP4 DUP5 SWAP3 DUP4 SWAP2 SWAP1 DUP3 SWAP1 PUSH1 0x64 DUP3 ADD SWAP1 JUMP JUMPDEST SUB SWAP3 GAS CALL DUP1 ISZERO PUSH2 0x74C JUMPI PUSH2 0x71F JUMPI JUMPDEST POP PUSH1 0x5 SLOAD PUSH1 0x6 SLOAD PUSH1 0x5 DUP2 MUL SWAP1 DUP1 DUP3 DIV PUSH1 0x5 EQ SWAP1 ISZERO OR ISZERO PUSH2 0x56B JUMPI PUSH2 0x336 SWAP2 PUSH2 0x1C59 JUMP JUMPDEST SWAP1 CALLER PUSH0 MSTORE PUSH1 0x2B PUSH1 0x20 MSTORE DUP2 PUSH1 0x40 PUSH0 KECCAK256 SSTORE DUP2 PUSH0 MSTORE PUSH1 0x2C PUSH1 0x20 MSTORE PUSH1 0x40 PUSH0 KECCAK256 SWAP1 CALLER PUSH12 0xFFFFFFFFFFFFFFFFFFFFFFFF PUSH1 0xA0 SHL DUP4 SLOAD AND OR DUP3 SSTORE TIMESTAMP PUSH1 0x2 DUP4 ADD SSTORE DUP3 PUSH1 0x3 DUP4 ADD SSTORE PUSH1 0x4 DUP3 ADD DUP2 DUP2 SSTORE PUSH1 0x1 PUSH1 0x6 DUP5 ADD SSTORE PUSH2 0x38B PUSH2 0x1B3A JUMP JUMPDEST SWAP1 SLOAD SWAP1 PUSH1 0x3 SHL SHR PUSH1 0xA DUP5 ADD SSTORE TIMESTAMP PUSH1 0xF DUP5 ADD SSTORE DUP2 PUSH0 MSTORE PUSH1 0x2C PUSH1 0x20 MSTORE PUSH1 0x7 PUSH1 0x40 PUSH0 KECCAK256 ADD DUP1 SLOAD SWAP1 PUSH1 0x1 DUP3 ADD DUP1 SWAP3 GT PUSH2 0x56B JUMPI SSTORE DUP2 PUSH0 MSTORE PUSH1 0x31 PUSH1 0x20 MSTORE PUSH2 0x3D0 DUP5 PUSH1 0x40 PUSH0 KECCAK256 PUSH2 0x2212 JUMP JUMPDEST PUSH1 0x38 SLOAD PUSH1 0x1 PUSH1 0x40 SHL DUP2 LT ISZERO PUSH2 0x70B JUMPI DUP1 PUSH1 0x1 PUSH2 0x3F1 SWAP3 ADD PUSH1 0x38 SSTORE PUSH1 0x38 PUSH2 0x1B6C JUMP JUMPDEST DUP2 SLOAD SWAP1 PUSH1 0x3 SHL SWAP1 DUP7 DUP3 SHL SWAP2 PUSH0 NOT SWAP1 SHL NOT AND OR SWAP1 SSTORE PUSH1 0x32 SLOAD DUP5 PUSH0 MSTORE PUSH1 0x33 PUSH1 0x20 MSTORE PUSH1 0x40 PUSH0 KECCAK256 SSTORE PUSH0 PUSH0 SWAP1 DUP4 PUSH0 MSTORE PUSH1 0x30 PUSH1 0x20 MSTORE PUSH1 0x2 PUSH1 0x40 PUSH0 KECCAK256 SLOAD LT PUSH0 EQ PUSH2 0x5E0 JUMPI POP POP DUP4 PUSH0 MSTORE PUSH1 0x2C PUSH1 0x20 MSTORE DUP2 PUSH1 0x5 PUSH1 0x40 PUSH0 KECCAK256 ADD SSTORE DUP2 PUSH0 MSTORE PUSH1 0x30 PUSH1 0x20 MSTORE PUSH1 0x40 PUSH0 KECCAK256 DUP1 SLOAD SWAP1 PUSH1 0x1 DUP3 ADD DUP1 SWAP3 GT PUSH2 0x56B JUMPI SSTORE DUP2 JUMPDEST PUSH0 SWAP1 JUMPDEST PUSH1 0xF DUP3 LT PUSH2 0x57F JUMPI JUMPDEST POP POP PUSH2 0x4A8 PUSH2 0x477 PUSH2 0x1B3A JUMP JUMPDEST SWAP1 SLOAD PUSH1 0x40 MLOAD SWAP2 PUSH1 0x3 SHL SHR PUSH2 0x48A DUP3 PUSH2 0x1C66 JUMP JUMPDEST DUP2 MSTORE PUSH0 PUSH1 0x20 DUP3 ADD MSTORE TIMESTAMP PUSH1 0x40 DUP3 ADD MSTORE PUSH1 0x1 PUSH1 0x60 DUP3 ADD MSTORE PUSH1 0x1 DUP6 ADD PUSH2 0x1CC0 JUMP JUMPDEST PUSH2 0x4B0 PUSH2 0x1B3A JUMP JUMPDEST SWAP1 SLOAD SWAP1 PUSH1 0x3 SHL SHR SWAP1 PUSH1 0x5 DUP3 MUL DUP3 ISZERO SWAP3 DUP1 DUP3 DIV PUSH1 0x5 EQ DUP5 OR ISZERO PUSH2 0x56B JUMPI PUSH1 0x3C DUP2 MUL SWAP4 DUP2 DUP6 DIV PUSH1 0x3C EQ DUP2 OR ISZERO PUSH2 0x56B JUMPI PUSH1 0x19 DUP3 MUL SWAP2 DUP3 DIV PUSH1 0x19 EQ OR ISZERO PUSH2 0x56B JUMPI PUSH2 0x513 SWAP4 PUSH2 0x50B PUSH1 0x64 DUP10 SWAP5 PUSH2 0x505 DUP3 DUP1 SWAP7 DIV PUSH2 0x24A3 JUMP JUMPDEST DIV PUSH2 0x250A JUMP JUMPDEST DIV SWAP2 SLOAD PUSH2 0x2610 JUMP JUMPDEST PUSH1 0x6 SLOAD PUSH1 0x1 DUP2 ADD DUP1 SWAP2 GT PUSH2 0x56B JUMPI PUSH1 0x6 SSTORE PUSH0 MSTORE PUSH1 0x2C PUSH1 0x20 MSTORE PUSH1 0x5 PUSH1 0x1 DUP1 PUSH1 0xA0 SHL SUB PUSH1 0x40 PUSH0 KECCAK256 SLOAD AND SWAP2 ADD SLOAD PUSH1 0x40 MLOAD SWAP1 DUP2 MSTORE PUSH32 0x309BB360E8B69C23937CCC5FB01F9AEEEAD1C95A99604E175113FF82F2B1723A PUSH1 0x20 CALLER SWAP3 LOG4 STOP JUMPDEST PUSH4 0x4E487B71 PUSH1 0xE0 SHL PUSH0 MSTORE PUSH1 0x11 PUSH1 0x4 MSTORE PUSH1 0x24 PUSH0 REVERT JUMPDEST DUP1 ISZERO PUSH2 0x5DB JUMPI DUP1 PUSH0 MSTORE PUSH1 0x2C PUSH1 0x20 MSTORE PUSH1 0x9 PUSH1 0x40 PUSH0 KECCAK256 ADD DUP1 SLOAD SWAP1 PUSH1 0x1 DUP3 ADD DUP1 SWAP3 GT PUSH2 0x56B JUMPI SSTORE DUP1 PUSH0 MSTORE PUSH1 0x2F PUSH1 0x20 MSTORE PUSH1 0x40 PUSH0 KECCAK256 DUP3 PUSH0 MSTORE PUSH1 0x20 MSTORE PUSH2 0x5C2 DUP7 PUSH1 0x40 PUSH0 KECCAK256 PUSH2 0x2212 JUMP JUMPDEST PUSH0 MSTORE PUSH1 0x2C PUSH1 0x20 MSTORE PUSH1 0x1 PUSH1 0x5 PUSH1 0x40 PUSH0 KECCAK256 ADD SLOAD SWAP2 ADD SWAP1 PUSH2 0x461 JUMP JUMPDEST PUSH2 0x46A JUMP JUMPDEST PUSH0 JUMPDEST PUSH1 0xF DUP2 LT PUSH2 0x5F2 JUMPI JUMPDEST POP POP PUSH2 0x45E JUMP JUMPDEST DUP2 PUSH2 0x706 JUMPI DUP5 PUSH0 MSTORE PUSH1 0x2F PUSH1 0x20 MSTORE PUSH1 0x40 PUSH0 KECCAK256 PUSH1 0x1 DUP3 ADD DUP1 DUP4 GT PUSH2 0x56B JUMPI PUSH0 MSTORE PUSH1 0x20 MSTORE PUSH1 0x40 PUSH0 KECCAK256 SLOAD PUSH1 0x2 DUP3 ADD DUP1 DUP4 GT PUSH2 0x56B JUMPI PUSH1 0xFF DUP2 GT PUSH2 0x56B JUMPI PUSH1 0x1 SWAP1 SHL GT PUSH2 0x63D JUMPI JUMPDEST PUSH1 0x1 ADD PUSH2 0x5E2 JUMP JUMPDEST SWAP4 SWAP3 PUSH0 SWAP6 SWAP2 SWAP6 JUMPDEST DUP5 PUSH0 MSTORE PUSH1 0x2F PUSH1 0x20 MSTORE PUSH1 0x40 PUSH0 KECCAK256 DUP7 PUSH0 MSTORE PUSH1 0x20 MSTORE PUSH1 0x40 PUSH0 KECCAK256 SLOAD DUP2 LT ISZERO PUSH2 0x6F8 JUMPI DUP7 PUSH2 0x6E7 JUMPI DUP5 PUSH0 MSTORE PUSH1 0x2F PUSH1 0x20 MSTORE PUSH1 0x40 PUSH0 KECCAK256 DUP7 PUSH0 MSTORE PUSH1 0x20 MSTORE PUSH2 0x686 DUP2 PUSH1 0x40 PUSH0 KECCAK256 PUSH2 0x1B6C JUMP JUMPDEST SWAP1 SLOAD SWAP1 PUSH1 0x3 SHL SHR DUP1 PUSH0 MSTORE PUSH1 0x30 PUSH1 0x20 MSTORE PUSH1 0x2 PUSH1 0x40 PUSH0 KECCAK256 SLOAD LT PUSH2 0x6AB JUMPI JUMPDEST POP PUSH1 0x1 ADD PUSH2 0x644 JUMP JUMPDEST SWAP2 SWAP4 POP SWAP6 POP DUP7 PUSH0 MSTORE PUSH1 0x2C PUSH1 0x20 MSTORE DUP1 PUSH1 0x5 PUSH1 0x40 PUSH0 KECCAK256 ADD SSTORE DUP1 PUSH0 MSTORE PUSH1 0x30 PUSH1 0x20 MSTORE PUSH1 0x40 PUSH0 KECCAK256 DUP1 SLOAD SWAP1 PUSH1 0x1 DUP3 ADD DUP1 SWAP3 GT PUSH2 0x56B JUMPI SSTORE SWAP2 PUSH1 0x1 DUP1 SWAP7 SWAP1 PUSH2 0x6A2 JUMP JUMPDEST POP SWAP3 SWAP4 PUSH1 0x1 SWAP1 SWAP6 SWAP2 SWAP6 JUMPDEST SWAP1 POP PUSH2 0x635 JUMP JUMPDEST POP SWAP3 SWAP4 PUSH1 0x1 SWAP1 SWAP6 SWAP2 SWAP6 PUSH2 0x6F1 JUMP JUMPDEST PUSH2 0x5EB JUMP JUMPDEST PUSH4 0x4E487B71 PUSH1 0xE0 SHL PUSH0 MSTORE PUSH1 0x41 PUSH1 0x4 MSTORE PUSH1 0x24 PUSH0 REVERT JUMPDEST PUSH2 0x740 SWAP1 PUSH1 0x20 RETURNDATASIZE PUSH1 0x20 GT PUSH2 0x745 JUMPI JUMPDEST PUSH2 0x738 DUP2 DUP4 PUSH2 0x1C9E JUMP JUMPDEST DUP2 ADD SWAP1 PUSH2 0x1E16 JUMP JUMPDEST PUSH2 0x313 JUMP JUMPDEST POP RETURNDATASIZE PUSH2 0x72E JUMP JUMPDEST PUSH1 0x40 MLOAD RETURNDATASIZE PUSH0 DUP3 RETURNDATACOPY RETURNDATASIZE SWAP1 REVERT JUMPDEST PUSH1 0x40 MLOAD PUSH3 0x461BCD PUSH1 0xE5 SHL DUP2 MSTORE PUSH1 0x20 PUSH1 0x4 DUP3 ADD MSTORE PUSH1 0xF PUSH1 0x24 DUP3 ADD MSTORE PUSH15 0x24B73B30B634B21039B837B739B7B9 PUSH1 0x89 SHL PUSH1 0x44 DUP3 ADD MSTORE PUSH1 0x64 SWAP1 REVERT JUMPDEST PUSH1 0x40 MLOAD PUSH3 0x461BCD PUSH1 0xE5 SHL DUP2 MSTORE PUSH1 0x20 PUSH1 0x4 DUP3 ADD MSTORE PUSH1 0x12 PUSH1 0x24 DUP3 ADD MSTORE PUSH18 0x105B1C9958591E481C9959DA5CDD195C9959 PUSH1 0x72 SHL PUSH1 0x44 DUP3 ADD MSTORE PUSH1 0x64 SWAP1 REVERT JUMPDEST CALLVALUE PUSH2 0x275 JUMPI PUSH0 CALLDATASIZE PUSH1 0x3 NOT ADD SLT PUSH2 0x275 JUMPI PUSH1 0x20 PUSH1 0x5 SLOAD PUSH1 0x40 MLOAD SWAP1 DUP2 MSTORE RETURN JUMPDEST CALLVALUE PUSH2 0x275 JUMPI PUSH0 CALLDATASIZE PUSH1 0x3 NOT ADD SLT PUSH2 0x275 JUMPI PUSH1 0x3 SLOAD PUSH1 0x40 MLOAD PUSH1 0x1 PUSH1 0x1 PUSH1 0xA0 SHL SUB SWAP1 SWAP2 AND DUP2 MSTORE PUSH1 0x20 SWAP1 RETURN JUMPDEST CALLVALUE PUSH2 0x275 JUMPI PUSH1 0x20 CALLDATASIZE PUSH1 0x3 NOT ADD SLT PUSH2 0x275 JUMPI PUSH2 0x829 PUSH1 0x4 CALLDATALOAD PUSH2 0x2006 JUMP JUMPDEST STOP JUMPDEST CALLVALUE PUSH2 0x275 JUMPI PUSH1 0x20 CALLDATASIZE PUSH1 0x3 NOT ADD SLT PUSH2 0x275 JUMPI PUSH1 0x4 CALLDATALOAD PUSH1 0x8 DUP2 LT ISZERO PUSH2 0x275 JUMPI PUSH1 0x20 SWAP1 PUSH1 0x11 ADD SLOAD PUSH1 0x40 MLOAD SWAP1 DUP2 MSTORE RETURN JUMPDEST CALLVALUE PUSH2 0x275 JUMPI PUSH2 0x865 CALLDATASIZE PUSH2 0x1B81 JUMP JUMPDEST SWAP1 PUSH0 MSTORE PUSH1 0x22 PUSH1 0x20 MSTORE PUSH1 0x40 PUSH0 KECCAK256 SWAP1 PUSH0 MSTORE PUSH1 0x20 MSTORE PUSH1 0x40 PUSH0 KECCAK256 DUP1 SLOAD PUSH2 0x8C2 PUSH1 0x1 DUP4 ADD SLOAD SWAP3 PUSH1 0x2 DUP2 ADD SLOAD SWAP1 PUSH1 0x4 PUSH1 0x3 DUP3 ADD SLOAD SWAP2 ADD SLOAD SWAP2 PUSH1 0x40 MLOAD SWAP6 DUP7 SWAP6 DUP7 SWAP2 SWAP3 PUSH1 0x80 SWAP4 SWAP7 SWAP6 SWAP5 SWAP2 SWAP7 PUSH1 0xA0 DUP5 ADD SWAP8 DUP5 MSTORE PUSH1 0x20 DUP5 ADD MSTORE PUSH1 0x40 DUP4 ADD MSTORE PUSH1 0x60 DUP3 ADD MSTORE ADD MSTORE JUMP JUMPDEST SUB SWAP1 RETURN JUMPDEST CALLVALUE PUSH2 0x275 JUMPI PUSH1 0x20 CALLDATASIZE PUSH1 0x3 NOT ADD SLT PUSH2 0x275 JUMPI PUSH1 0x4 CALLDATALOAD PUSH1 0x1 PUSH1 0x1 PUSH1 0xA0 SHL SUB DUP2 AND SWAP1 DUP2 SWAP1 SUB PUSH2 0x275 JUMPI PUSH0 MSTORE PUSH1 0x2B PUSH1 0x20 MSTORE PUSH1 0x20 PUSH1 0x40 PUSH0 KECCAK256 SLOAD PUSH1 0x40 MLOAD SWAP1 DUP2 MSTORE RETURN JUMPDEST CALLVALUE PUSH2 0x275 JUMPI PUSH2 0x910 CALLDATASIZE PUSH2 0x1B81 JUMP JUMPDEST SWAP1 PUSH0 MSTORE PUSH1 0x29 PUSH1 0x20 MSTORE PUSH1 0x40 PUSH0 KECCAK256 DUP1 SLOAD DUP3 LT ISZERO PUSH2 0x275 JUMPI PUSH1 0x20 SWAP2 PUSH2 0x931 SWAP2 PUSH2 0x1B6C JUMP JUMPDEST SWAP1 SLOAD SWAP1 PUSH1 0x3 SHL SHR PUSH1 0x40 MLOAD SWAP1 DUP2 MSTORE RETURN JUMPDEST CALLVALUE PUSH2 0x275 JUMPI PUSH1 0x20 CALLDATASIZE PUSH1 0x3 NOT ADD SLT PUSH2 0x275 JUMPI PUSH1 0x4 CALLDATALOAD PUSH1 0x7 SLOAD DUP2 LT ISZERO PUSH2 0x275 JUMPI PUSH2 0x931 PUSH1 0x20 SWAP2 PUSH2 0x1B0A JUMP JUMPDEST CALLVALUE PUSH2 0x275 JUMPI PUSH0 CALLDATASIZE PUSH1 0x3 NOT ADD SLT PUSH2 0x275 JUMPI PUSH1 0x20 PUSH1 0x6 SLOAD PUSH1 0x40 MLOAD SWAP1 DUP2 MSTORE RETURN JUMPDEST CALLVALUE PUSH2 0x275 JUMPI PUSH2 0x994 CALLDATASIZE PUSH2 0x1B81 JUMP JUMPDEST SWAP1 PUSH0 MSTORE PUSH1 0x21 PUSH1 0x20 MSTORE PUSH1 0x40 PUSH0 KECCAK256 SWAP1 PUSH0 MSTORE PUSH1 0x20 MSTORE PUSH1 0x40 DUP1 PUSH0 KECCAK256 PUSH1 0x1 DUP2 SLOAD SWAP2 ADD SLOAD DUP3 MLOAD SWAP2 DUP3 MSTORE PUSH1 0x20 DUP3 ADD MSTORE RETURN JUMPDEST CALLVALUE PUSH2 0x275 JUMPI PUSH2 0x9CC CALLDATASIZE PUSH2 0x1B81 JUMP JUMPDEST SWAP1 PUSH0 MSTORE PUSH1 0x26 PUSH1 0x20 MSTORE PUSH1 0x40 PUSH0 KECCAK256 SWAP1 PUSH0 MSTORE PUSH1 0x20 MSTORE PUSH1 0x20 PUSH1 0xFF PUSH1 0x40 PUSH0 KECCAK256 SLOAD AND PUSH1 0x40 MLOAD SWAP1 ISZERO ISZERO DUP2 MSTORE RETURN JUMPDEST CALLVALUE PUSH2 0x275 JUMPI PUSH1 0x20 CALLDATASIZE PUSH1 0x3 NOT ADD SLT PUSH2 0x275 JUMPI PUSH1 0x4 CALLDATALOAD DUP1 PUSH0 MSTORE PUSH1 0x2C PUSH1 0x20 MSTORE PUSH1 0x40 PUSH0 KECCAK256 PUSH2 0xA26 PUSH1 0x1 DUP1 PUSH1 0xA0 SHL SUB DUP3 SLOAD AND CALLER EQ PUSH2 0x1BD3 JUMP JUMPDEST PUSH1 0xD DUP2 ADD SWAP1 DUP2 SLOAD SWAP2 PUSH1 0x8 DUP4 LT PUSH2 0xA3B DUP2 PUSH2 0x1D96 JUMP JUMPDEST ISZERO PUSH2 0xC10 JUMPI DUP3 PUSH1 0x11 ADD SLOAD DUP4 PUSH1 0x19 ADD SLOAD SWAP1 PUSH1 0x6 DUP5 ADD SLOAD LT ISZERO SWAP1 DUP2 PUSH2 0xC01 JUMPI JUMPDEST POP ISZERO PUSH2 0xBC4 JUMPI DUP3 PUSH2 0xBBF JUMPI JUMPDEST DUP4 PUSH0 MSTORE PUSH1 0x2A PUSH1 0x20 MSTORE PUSH1 0x40 PUSH0 KECCAK256 DUP4 PUSH0 MSTORE PUSH1 0x20 MSTORE PUSH2 0xA88 PUSH1 0xFF PUSH1 0x40 PUSH0 KECCAK256 SLOAD AND ISZERO PUSH2 0x1DD1 JUMP JUMPDEST PUSH2 0xA91 DUP4 PUSH2 0x1B22 JUMP JUMPDEST SWAP1 SLOAD PUSH0 DUP1 SLOAD PUSH1 0x40 MLOAD PUSH4 0x23B872DD PUSH1 0xE0 SHL DUP2 MSTORE CALLER PUSH1 0x4 DUP3 ADD MSTORE ADDRESS PUSH1 0x24 DUP3 ADD MSTORE PUSH1 0x3 SWAP5 SWAP1 SWAP5 SHL SWAP3 SWAP1 SWAP3 SHR PUSH1 0x44 DUP5 ADD DUP2 SWAP1 MSTORE SWAP4 SWAP3 SWAP2 PUSH1 0x20 SWAP2 DUP4 SWAP2 PUSH1 0x64 SWAP2 DUP4 SWAP2 PUSH1 0x1 PUSH1 0x1 PUSH1 0xA0 SHL SUB AND GAS CALL DUP1 ISZERO PUSH2 0x74C JUMPI PUSH2 0xBA2 JUMPI JUMPDEST POP DUP1 SLOAD SWAP3 PUSH1 0x1 DUP5 ADD DUP1 SWAP5 GT PUSH2 0x56B JUMPI PUSH2 0xB5E SWAP4 PUSH1 0x1 SWAP3 SSTORE DUP6 PUSH0 MSTORE PUSH1 0x2A PUSH1 0x20 MSTORE PUSH1 0x40 PUSH0 KECCAK256 DUP6 PUSH0 MSTORE PUSH1 0x20 MSTORE PUSH1 0x40 PUSH0 KECCAK256 DUP3 PUSH1 0xFF NOT DUP3 SLOAD AND OR SWAP1 SSTORE PUSH1 0xE DUP2 ADD PUSH2 0xB29 DUP5 DUP3 SLOAD PUSH2 0x1C59 JUMP JUMPDEST SWAP1 SSTORE PUSH2 0xB36 DUP4 DUP8 DUP8 PUSH2 0x2CDE JUMP JUMPDEST PUSH1 0x40 MLOAD SWAP3 PUSH2 0xB43 DUP5 PUSH2 0x1C66 JUMP JUMPDEST DUP4 MSTORE PUSH0 PUSH1 0x20 DUP5 ADD MSTORE TIMESTAMP PUSH1 0x40 DUP5 ADD MSTORE PUSH1 0xB PUSH1 0x60 DUP5 ADD MSTORE ADD PUSH2 0x1CC0 JUMP JUMPDEST PUSH1 0x1 DUP2 ADD DUP1 SWAP2 GT PUSH2 0x56B JUMPI PUSH1 0x40 MLOAD SWAP1 DUP2 MSTORE PUSH1 0x40 PUSH1 0x20 DUP3 ADD MSTORE PUSH1 0x7 PUSH1 0x40 DUP3 ADD MSTORE PUSH7 0x2137B7B9BA32B9 PUSH1 0xC9 SHL PUSH1 0x60 DUP3 ADD MSTORE PUSH0 MLOAD PUSH1 0x20 PUSH2 0x3217 PUSH0 CODECOPY PUSH0 MLOAD SWAP1 PUSH0 MSTORE PUSH1 0x80 CALLER SWAP3 LOG3 STOP JUMPDEST PUSH2 0xBBA SWAP1 PUSH1 0x20 RETURNDATASIZE PUSH1 0x20 GT PUSH2 0x745 JUMPI PUSH2 0x738 DUP2 DUP4 PUSH2 0x1C9E JUMP JUMPDEST PUSH2 0xAE3 JUMP JUMPDEST PUSH2 0xA65 JUMP JUMPDEST PUSH1 0x40 MLOAD PUSH3 0x461BCD PUSH1 0xE5 SHL DUP2 MSTORE PUSH1 0x20 PUSH1 0x4 DUP3 ADD MSTORE PUSH1 0x15 PUSH1 0x24 DUP3 ADD MSTORE PUSH21 0x155C19DC9859194814DB1BDD08185B9908141BDBDB PUSH1 0x5A SHL PUSH1 0x44 DUP3 ADD MSTORE PUSH1 0x64 SWAP1 REVERT JUMPDEST SWAP1 POP PUSH1 0xB DUP4 ADD SLOAD LT ISZERO DUP6 PUSH2 0xA59 JUMP JUMPDEST PUSH4 0x4E487B71 PUSH1 0xE0 SHL PUSH0 MSTORE PUSH1 0x32 PUSH1 0x4 MSTORE PUSH1 0x24 PUSH0 REVERT JUMPDEST CALLVALUE PUSH2 0x275 JUMPI PUSH1 0x20 CALLDATASIZE PUSH1 0x3 NOT ADD SLT PUSH2 0x275 JUMPI PUSH1 0x4 CALLDATALOAD PUSH1 0x8 SLOAD DUP2 LT ISZERO PUSH2 0x275 JUMPI PUSH2 0x931 PUSH1 0x20 SWAP2 PUSH2 0x1AF2 JUMP JUMPDEST CALLVALUE PUSH2 0x275 JUMPI PUSH1 0x20 CALLDATASIZE PUSH1 0x3 NOT ADD SLT PUSH2 0x275 JUMPI PUSH1 0x4 CALLDATALOAD PUSH1 0x9 SLOAD DUP2 LT ISZERO PUSH2 0x275 JUMPI PUSH2 0x931 PUSH1 0x20 SWAP2 PUSH2 0x1B22 JUMP JUMPDEST CALLVALUE PUSH2 0x275 JUMPI PUSH2 0xC84 CALLDATASIZE PUSH2 0x1B81 JUMP JUMPDEST SWAP1 PUSH0 MSTORE PUSH1 0x2A PUSH1 0x20 MSTORE PUSH1 0x40 PUSH0 KECCAK256 SWAP1 PUSH0 MSTORE PUSH1 0x20 MSTORE PUSH1 0x20 PUSH1 0xFF PUSH1 0x40 PUSH0 KECCAK256 SLOAD AND PUSH1 0x40 MLOAD SWAP1 ISZERO ISZERO DUP2 MSTORE RETURN JUMPDEST CALLVALUE PUSH2 0x275 JUMPI PUSH1 0x20 CALLDATASIZE PUSH1 0x3 NOT ADD SLT PUSH2 0x275 JUMPI PUSH1 0x4 CALLDATALOAD PUSH1 0x8 DUP2 LT ISZERO PUSH2 0x275 JUMPI PUSH1 0x20 SWAP1 PUSH1 0x19 ADD SLOAD PUSH1 0x40 MLOAD SWAP1 DUP2 MSTORE RETURN JUMPDEST CALLVALUE PUSH2 0x275 JUMPI PUSH2 0xCE4 CALLDATASIZE PUSH2 0x1B81 JUMP JUMPDEST SWAP1 PUSH0 MSTORE PUSH1 0x27 PUSH1 0x20 MSTORE PUSH1 0x40 PUSH0 KECCAK256 SWAP1 PUSH0 MSTORE PUSH1 0x20 MSTORE PUSH1 0x80 PUSH1 0x40 PUSH0 KECCAK256 DUP1 SLOAD SWAP1 PUSH1 0x1 DUP2 ADD SLOAD SWAP1 PUSH1 0x3 PUSH1 0x2 DUP3 ADD SLOAD SWAP2 ADD SLOAD SWAP2 PUSH1 0x40 MLOAD SWAP4 DUP5 MSTORE PUSH1 0x20 DUP5 ADD MSTORE PUSH1 0x40 DUP4 ADD MSTORE PUSH1 0x60 DUP3 ADD MSTORE RETURN JUMPDEST CALLVALUE PUSH2 0x275 JUMPI PUSH2 0xD35 CALLDATASIZE PUSH2 0x1AD8 JUMP JUMPDEST SWAP2 PUSH0 MSTORE PUSH1 0x23 PUSH1 0x20 MSTORE PUSH1 0x40 PUSH0 KECCAK256 SWAP1 PUSH0 MSTORE PUSH1 0x20 MSTORE PUSH1 0x40 PUSH0 KECCAK256 DUP1 SLOAD DUP3 LT ISZERO PUSH2 0x275 JUMPI PUSH1 0x20 SWAP2 PUSH2 0x931 SWAP2 PUSH2 0x1B6C JUMP JUMPDEST CALLVALUE PUSH2 0x275 JUMPI PUSH4 0xFFFFFFFF PUSH2 0xD73 CALLDATASIZE PUSH2 0x1B97 JUMP JUMPDEST SWAP2 AND SWAP1 DUP2 PUSH0 MSTORE PUSH1 0x2C PUSH1 0x20 MSTORE PUSH1 0x40 PUSH0 KECCAK256 PUSH2 0xD96 PUSH1 0x1 DUP1 PUSH1 0xA0 SHL SUB DUP3 SLOAD AND CALLER EQ PUSH2 0x1BD3 JUMP JUMPDEST PUSH1 0xB DUP2 ADD SWAP2 PUSH2 0xDA8 PUSH1 0x7 DUP5 SLOAD LT PUSH2 0x1C12 JUMP JUMPDEST PUSH1 0x1 DUP2 ADD SWAP3 DUP4 DUP3 GT PUSH2 0x56B JUMPI PUSH1 0x8 SLOAD DUP5 LT ISZERO PUSH2 0xF46 JUMPI PUSH2 0xDC7 DUP5 PUSH2 0x1AF2 JUMP JUMPDEST SWAP1 SLOAD SWAP1 PUSH1 0x3 SHL SHR DUP3 PUSH0 MSTORE PUSH1 0x21 PUSH1 0x20 MSTORE PUSH1 0x40 PUSH0 KECCAK256 DUP7 PUSH0 MSTORE PUSH1 0x20 MSTORE PUSH1 0x40 PUSH0 KECCAK256 DUP1 SLOAD DUP3 DUP2 LT PUSH2 0xF01 JUMPI DUP8 PUSH0 MSTORE PUSH1 0x26 PUSH1 0x20 MSTORE PUSH1 0x40 PUSH0 KECCAK256 DUP8 PUSH0 MSTORE PUSH1 0x20 MSTORE PUSH1 0xFF PUSH1 0x40 PUSH0 KECCAK256 SLOAD AND PUSH2 0xEBC JUMPI DUP3 PUSH2 0xE15 SWAP2 PUSH2 0x1C4C JUMP JUMPDEST SWAP1 SSTORE DUP2 SLOAD SWAP2 PUSH1 0x1 DUP4 ADD DUP1 SWAP4 GT PUSH2 0x56B JUMPI PUSH1 0x2 SWAP5 PUSH2 0xE6C SWAP4 PUSH1 0x1 SWAP3 SSTORE PUSH1 0xC DUP2 ADD PUSH2 0xE3F DUP5 DUP3 SLOAD PUSH2 0x1C59 JUMP JUMPDEST SWAP1 SSTORE DUP8 PUSH0 MSTORE PUSH1 0x26 PUSH1 0x20 MSTORE PUSH1 0x40 PUSH0 KECCAK256 DUP8 PUSH0 MSTORE PUSH1 0x20 MSTORE PUSH1 0x40 PUSH0 KECCAK256 DUP3 PUSH1 0xFF NOT DUP3 SLOAD AND OR SWAP1 SSTORE PUSH2 0xB36 DUP4 DUP10 DUP10 PUSH2 0x22CF JUMP JUMPDEST ADD DUP1 SWAP2 GT PUSH2 0x56B JUMPI PUSH1 0x40 MLOAD SWAP1 DUP2 MSTORE PUSH1 0x40 PUSH1 0x20 DUP3 ADD MSTORE PUSH1 0x16 PUSH1 0x40 DUP3 ADD MSTORE PUSH22 0x506F6F6C205570677261646520284561726E696E6729 PUSH1 0x50 SHL PUSH1 0x60 DUP3 ADD MSTORE PUSH0 MLOAD PUSH1 0x20 PUSH2 0x3217 PUSH0 CODECOPY PUSH0 MLOAD SWAP1 PUSH0 MSTORE PUSH1 0x80 CALLER SWAP3 LOG3 STOP JUMPDEST PUSH1 0x40 MLOAD PUSH3 0x461BCD PUSH1 0xE5 SHL DUP2 MSTORE PUSH1 0x20 PUSH1 0x4 DUP3 ADD MSTORE PUSH1 0x1B PUSH1 0x24 DUP3 ADD MSTORE PUSH32 0x416C726561647920707572636861736564206E65787420706F6F6C0000000000 PUSH1 0x44 DUP3 ADD MSTORE PUSH1 0x64 SWAP1 REVERT JUMPDEST PUSH1 0x40 MLOAD PUSH3 0x461BCD PUSH1 0xE5 SHL DUP2 MSTORE PUSH1 0x20 PUSH1 0x4 DUP3 ADD MSTORE PUSH1 0x1C PUSH1 0x24 DUP3 ADD MSTORE PUSH32 0x4E6F7420656E6F756768206E65787420706F6F6C2062616C616E636500000000 PUSH1 0x44 DUP3 ADD MSTORE PUSH1 0x64 SWAP1 REVERT JUMPDEST PUSH1 0x40 MLOAD PUSH3 0x461BCD PUSH1 0xE5 SHL DUP2 MSTORE PUSH1 0x20 PUSH1 0x4 DUP3 ADD MSTORE PUSH1 0xE PUSH1 0x24 DUP3 ADD MSTORE PUSH14 0x139BC81A1A59DA195C881C1BDBDB PUSH1 0x92 SHL PUSH1 0x44 DUP3 ADD MSTORE PUSH1 0x64 SWAP1 REVERT JUMPDEST CALLVALUE PUSH2 0x275 JUMPI PUSH0 CALLDATASIZE PUSH1 0x3 NOT ADD SLT PUSH2 0x275 JUMPI PUSH1 0x1 SLOAD PUSH1 0x40 MLOAD PUSH1 0x1 PUSH1 0x1 PUSH1 0xA0 SHL SUB SWAP1 SWAP2 AND DUP2 MSTORE PUSH1 0x20 SWAP1 RETURN JUMPDEST CALLVALUE PUSH2 0x275 JUMPI PUSH2 0xFB2 CALLDATASIZE PUSH2 0x1AD8 JUMP JUMPDEST SWAP2 PUSH0 MSTORE PUSH1 0x24 PUSH1 0x20 MSTORE PUSH1 0x40 PUSH0 KECCAK256 SWAP1 PUSH0 MSTORE PUSH1 0x20 MSTORE PUSH1 0x40 PUSH0 KECCAK256 DUP1 SLOAD DUP3 LT ISZERO PUSH2 0x275 JUMPI PUSH1 0x20 SWAP2 PUSH2 0x931 SWAP2 PUSH2 0x1B6C JUMP JUMPDEST CALLVALUE PUSH2 0x275 JUMPI PUSH1 0x20 CALLDATASIZE PUSH1 0x3 NOT ADD SLT PUSH2 0x275 JUMPI PUSH1 0x4 CALLDATALOAD PUSH0 MSTORE PUSH1 0x30 PUSH1 0x20 MSTORE PUSH1 0x20 PUSH1 0x40 PUSH0 KECCAK256 SLOAD PUSH1 0x40 MLOAD SWAP1 DUP2 MSTORE RETURN JUMPDEST CALLVALUE PUSH2 0x275 JUMPI PUSH0 CALLDATASIZE PUSH1 0x3 NOT ADD SLT PUSH2 0x275 JUMPI PUSH1 0x35 SLOAD PUSH1 0x40 MLOAD PUSH1 0x1 PUSH1 0x1 PUSH1 0xA0 SHL SUB SWAP1 SWAP2 AND DUP2 MSTORE PUSH1 0x20 SWAP1 RETURN JUMPDEST CALLVALUE PUSH2 0x275 JUMPI PUSH0 CALLDATASIZE PUSH1 0x3 NOT ADD SLT PUSH2 0x275 JUMPI PUSH1 0x2 SLOAD PUSH1 0x40 MLOAD PUSH1 0x1 PUSH1 0x1 PUSH1 0xA0 SHL SUB SWAP1 SWAP2 AND DUP2 MSTORE PUSH1 0x20 SWAP1 RETURN JUMPDEST CALLVALUE PUSH2 0x275 JUMPI PUSH0 CALLDATASIZE PUSH1 0x3 NOT ADD SLT PUSH2 0x275 JUMPI PUSH1 0x20 PUSH1 0x32 SLOAD PUSH1 0x40 MLOAD SWAP1 DUP2 MSTORE RETURN JUMPDEST CALLVALUE PUSH2 0x275 JUMPI PUSH2 0x1082 CALLDATASIZE PUSH2 0x1B81 JUMP JUMPDEST SWAP1 PUSH0 MSTORE PUSH1 0x2E PUSH1 0x20 MSTORE PUSH1 0x40 PUSH0 KECCAK256 SWAP1 DUP2 SLOAD DUP2 LT ISZERO PUSH2 0x275 JUMPI PUSH2 0x10A1 SWAP2 PUSH2 0x1BBA JUMP JUMPDEST POP DUP1 SLOAD PUSH1 0x1 DUP3 ADD SLOAD PUSH1 0x2 DUP4 ADD SLOAD PUSH1 0x3 DUP5 ADD SLOAD PUSH1 0x4 SWAP1 SWAP5 ADD SLOAD PUSH1 0x40 DUP1 MLOAD SWAP5 DUP6 MSTORE PUSH1 0x20 DUP6 ADD SWAP4 SWAP1 SWAP4 MSTORE SWAP2 DUP4 ADD MSTORE PUSH1 0x60 DUP3 ADD SWAP3 SWAP1 SWAP3 MSTORE PUSH1 0x80 DUP2 ADD SWAP2 SWAP1 SWAP2 MSTORE PUSH1 0xA0 SWAP1 RETURN JUMPDEST CALLVALUE PUSH2 0x275 JUMPI PUSH1 0x20 CALLDATASIZE PUSH1 0x3 NOT ADD SLT PUSH2 0x275 JUMPI PUSH1 0x60 PUSH2 0x10FF PUSH1 0x4 CALLDATALOAD PUSH2 0x1E41 JUMP JUMPDEST SWAP2 SWAP1 PUSH1 0x20 PUSH1 0x40 MLOAD SWAP4 DUP5 SWAP3 ISZERO ISZERO DUP4 MSTORE PUSH1 0x40 DUP3 DUP5 ADD MSTORE DUP1 MLOAD SWAP2 DUP3 SWAP2 DUP3 PUSH1 0x40 DUP7 ADD MSTORE ADD DUP5 DUP5 ADD MCOPY PUSH0 DUP3 DUP3 ADD DUP5 ADD MSTORE PUSH1 0x1F ADD PUSH1 0x1F NOT AND DUP2 ADD SUB ADD SWAP1 RETURN JUMPDEST CALLVALUE PUSH2 0x275 JUMPI PUSH2 0x1146 CALLDATASIZE PUSH2 0x1B81 JUMP JUMPDEST SWAP1 PUSH0 MSTORE PUSH1 0x31 PUSH1 0x20 MSTORE PUSH1 0x40 PUSH0 KECCAK256 DUP1 SLOAD DUP3 LT ISZERO PUSH2 0x275 JUMPI PUSH1 0x20 SWAP2 PUSH2 0x931 SWAP2 PUSH2 0x1B6C JUMP JUMPDEST CALLVALUE PUSH2 0x275 JUMPI PUSH2 0x1175 CALLDATASIZE PUSH2 0x1AD8 JUMP JUMPDEST SWAP2 PUSH0 MSTORE PUSH1 0x2F PUSH1 0x20 MSTORE PUSH1 0x40 PUSH0 KECCAK256 SWAP1 PUSH0 MSTORE PUSH1 0x20 MSTORE PUSH1 0x40 PUSH0 KECCAK256 DUP1 SLOAD DUP3 LT ISZERO PUSH2 0x275 JUMPI PUSH1 0x20 SWAP2 PUSH2 0x931 SWAP2 PUSH2 0x1B6C JUMP JUMPDEST CALLVALUE PUSH2 0x275 JUMPI PUSH0 CALLDATASIZE PUSH1 0x3 NOT ADD SLT PUSH2 0x275 JUMPI PUSH1 0x20 PUSH1 0x40 MLOAD PUSH1 0xA DUP2 MSTORE RETURN JUMPDEST CALLVALUE PUSH2 0x275 JUMPI PUSH0 CALLDATASIZE PUSH1 0x3 NOT ADD SLT PUSH2 0x275 JUMPI PUSH1 0x20 PUSH1 0x37 SLOAD PUSH1 0x40 MLOAD SWAP1 DUP2 MSTORE RETURN JUMPDEST CALLVALUE PUSH2 0x275 JUMPI PUSH1 0x20 CALLDATASIZE PUSH1 0x3 NOT ADD SLT PUSH2 0x275 JUMPI PUSH1 0x4 CALLDATALOAD PUSH0 MSTORE PUSH1 0x2D PUSH1 0x20 MSTORE PUSH2 0x140 PUSH1 0x40 PUSH0 KECCAK256 DUP1 SLOAD SWAP1 PUSH1 0x1 DUP2 ADD SLOAD SWAP1 PUSH1 0x2 DUP2 ADD SLOAD PUSH1 0x3 DUP3 ADD SLOAD PUSH1 0x4 DUP4 ADD SLOAD PUSH1 0x5 DUP5 ADD SLOAD SWAP1 PUSH1 0x6 DUP6 ADD SLOAD SWAP3 PUSH1 0x7 DUP7 ADD SLOAD SWAP5 PUSH1 0x9 PUSH1 0x8 DUP9 ADD SLOAD SWAP8 ADD SLOAD SWAP8 PUSH1 0x40 MLOAD SWAP10 DUP11 MSTORE PUSH1 0x20 DUP11 ADD MSTORE PUSH1 0x40 DUP10 ADD MSTORE PUSH1 0x60 DUP9 ADD MSTORE PUSH1 0x80 DUP8 ADD MSTORE PUSH1 0xA0 DUP7 ADD MSTORE PUSH1 0xC0 DUP6 ADD MSTORE PUSH1 0xE0 DUP5 ADD MSTORE PUSH2 0x100 DUP4 ADD MSTORE PUSH2 0x120 DUP3 ADD MSTORE RETURN JUMPDEST CALLVALUE PUSH2 0x275 JUMPI PUSH1 0x20 CALLDATASIZE PUSH1 0x3 NOT ADD SLT PUSH2 0x275 JUMPI PUSH1 0x4 CALLDATALOAD DUP1 PUSH0 MSTORE PUSH1 0x2C PUSH1 0x20 MSTORE PUSH1 0x40 PUSH0 KECCAK256 PUSH2 0x129A PUSH1 0x1 DUP1 PUSH1 0xA0 SHL SUB DUP3 SLOAD AND CALLER EQ PUSH2 0x1BD3 JUMP JUMPDEST PUSH1 0x6 DUP2 ADD SWAP1 DUP2 SLOAD SWAP2 PUSH1 0xF DUP4 LT ISZERO PUSH2 0x142C JUMPI PUSH2 0x12B4 DUP4 PUSH2 0x1B0A JUMP JUMPDEST SWAP1 SLOAD PUSH0 DUP1 SLOAD PUSH1 0x40 MLOAD PUSH4 0x23B872DD PUSH1 0xE0 SHL DUP2 MSTORE CALLER PUSH1 0x4 DUP3 ADD MSTORE ADDRESS PUSH1 0x24 DUP3 ADD MSTORE PUSH1 0x3 SWAP5 SWAP1 SWAP5 SHL SWAP3 SWAP1 SWAP3 SHR PUSH1 0x44 DUP5 ADD DUP2 SWAP1 MSTORE SWAP4 SWAP3 SWAP2 PUSH1 0x20 SWAP2 DUP4 SWAP2 PUSH1 0x64 SWAP2 DUP4 SWAP2 PUSH1 0x1 PUSH1 0x1 PUSH1 0xA0 SHL SUB AND GAS CALL DUP1 ISZERO PUSH2 0x74C JUMPI PUSH2 0x140F JUMPI JUMPDEST POP DUP1 SLOAD SWAP1 PUSH1 0x1 DUP3 ADD DUP1 SWAP3 GT PUSH2 0x56B JUMPI SSTORE PUSH1 0xA DUP3 ADD PUSH2 0x1325 DUP3 DUP3 SLOAD PUSH2 0x1C59 JUMP JUMPDEST SWAP1 SSTORE PUSH2 0x1355 PUSH1 0x40 MLOAD PUSH2 0x1336 DUP2 PUSH2 0x1C66 JUMP JUMPDEST DUP3 DUP2 MSTORE PUSH0 PUSH1 0x20 DUP3 ADD MSTORE TIMESTAMP PUSH1 0x40 DUP3 ADD MSTORE PUSH1 0x1 PUSH1 0x60 DUP3 ADD MSTORE PUSH1 0x1 DUP5 ADD PUSH2 0x1CC0 JUMP JUMPDEST PUSH1 0x5 DUP2 MUL DUP2 ISZERO SWAP1 DUP3 DUP2 DIV PUSH1 0x5 EQ DUP3 OR ISZERO PUSH2 0x56B JUMPI PUSH1 0x23 DUP4 MUL DUP4 DUP2 DIV PUSH1 0x23 EQ DUP4 OR ISZERO PUSH2 0x56B JUMPI PUSH2 0x138B SWAP2 PUSH2 0x505 PUSH1 0x64 DUP1 SWAP4 DIV PUSH2 0x24A3 JUMP JUMPDEST PUSH1 0xF DUP3 MUL SWAP2 DUP3 DIV PUSH1 0xF EQ OR ISZERO PUSH2 0x56B JUMPI PUSH1 0x64 SWAP1 DIV SWAP2 PUSH1 0x4 DUP3 ADD SLOAD PUSH1 0x1 DUP3 ADD SWAP4 DUP5 DUP4 GT PUSH2 0x56B JUMPI DUP6 PUSH1 0x5 PUSH2 0x13D9 SWAP6 PUSH2 0x13C5 DUP9 DUP6 DUP6 DUP3 SWAP9 PUSH2 0x2750 JUMP JUMPDEST ADD PUSH2 0x13D3 DUP5 DUP5 DUP5 DUP5 SLOAD PUSH2 0x28C7 JUMP JUMPDEST SLOAD PUSH2 0x2AB5 JUMP JUMPDEST PUSH1 0x40 MLOAD SWAP1 DUP2 MSTORE PUSH1 0x40 PUSH1 0x20 DUP3 ADD MSTORE PUSH1 0x4 PUSH1 0x40 DUP3 ADD MSTORE PUSH4 0x14DB1BDD PUSH1 0xE2 SHL PUSH1 0x60 DUP3 ADD MSTORE PUSH0 MLOAD PUSH1 0x20 PUSH2 0x3217 PUSH0 CODECOPY PUSH0 MLOAD SWAP1 PUSH0 MSTORE PUSH1 0x80 CALLER SWAP3 LOG3 STOP JUMPDEST PUSH2 0x1427 SWAP1 PUSH1 0x20 RETURNDATASIZE PUSH1 0x20 GT PUSH2 0x745 JUMPI PUSH2 0x738 DUP2 DUP4 PUSH2 0x1C9E JUMP JUMPDEST PUSH2 0x1306 JUMP JUMPDEST PUSH1 0x40 MLOAD PUSH3 0x461BCD PUSH1 0xE5 SHL DUP2 MSTORE PUSH1 0x20 PUSH1 0x4 DUP3 ADD MSTORE PUSH1 0x14 PUSH1 0x24 DUP3 ADD MSTORE PUSH20 0x105B1C9958591E48185D081B585E081B195D995B PUSH1 0x62 SHL PUSH1 0x44 DUP3 ADD MSTORE PUSH1 0x64 SWAP1 REVERT JUMPDEST CALLVALUE PUSH2 0x275 JUMPI PUSH1 0x20 CALLDATASIZE PUSH1 0x3 NOT ADD SLT PUSH2 0x275 JUMPI PUSH1 0x4 CALLDATALOAD DUP1 PUSH0 MSTORE PUSH1 0x2C PUSH1 0x20 MSTORE PUSH1 0x40 PUSH0 KECCAK256 PUSH2 0x149C PUSH1 0x1 DUP1 PUSH1 0xA0 SHL SUB DUP3 SLOAD AND CALLER EQ PUSH2 0x1BD3 JUMP JUMPDEST PUSH1 0xB DUP2 ADD SWAP1 DUP2 SLOAD SWAP2 PUSH1 0x7 DUP4 LT PUSH2 0x14B1 DUP2 PUSH2 0x1D96 JUMP JUMPDEST ISZERO PUSH2 0xC10 JUMPI DUP3 PUSH1 0xA ADD SLOAD PUSH1 0x6 DUP4 ADD SLOAD LT PUSH2 0x1683 JUMPI DUP3 ISZERO SWAP1 DUP2 ISZERO PUSH2 0x167E JUMPI JUMPDEST DUP5 PUSH0 MSTORE PUSH1 0x26 PUSH1 0x20 MSTORE PUSH1 0x40 PUSH0 KECCAK256 DUP5 PUSH0 MSTORE PUSH1 0x20 MSTORE PUSH2 0x14F2 PUSH1 0xFF PUSH1 0x40 PUSH0 KECCAK256 SLOAD AND ISZERO PUSH2 0x1DD1 JUMP JUMPDEST PUSH2 0x14FB DUP5 PUSH2 0x1AF2 JUMP JUMPDEST SWAP1 SLOAD PUSH0 DUP1 SLOAD PUSH1 0x40 MLOAD PUSH4 0x23B872DD PUSH1 0xE0 SHL DUP2 MSTORE CALLER PUSH1 0x4 DUP3 ADD MSTORE ADDRESS PUSH1 0x24 DUP3 ADD MSTORE PUSH1 0x3 SWAP5 SWAP1 SWAP5 SHL SWAP3 SWAP1 SWAP3 SHR PUSH1 0x44 DUP5 ADD DUP2 SWAP1 MSTORE SWAP5 SWAP3 SWAP2 PUSH1 0x20 SWAP2 DUP4 SWAP2 PUSH1 0x64 SWAP2 DUP4 SWAP2 PUSH1 0x1 PUSH1 0x1 PUSH1 0xA0 SHL SUB AND GAS CALL DUP1 ISZERO PUSH2 0x74C JUMPI PUSH2 0x1661 JUMPI JUMPDEST POP PUSH2 0x160E JUMPI JUMPDEST DUP1 SLOAD SWAP3 PUSH1 0x1 DUP5 ADD DUP1 SWAP5 GT PUSH2 0x56B JUMPI PUSH2 0x15CD SWAP4 PUSH1 0x1 SWAP3 SSTORE DUP6 PUSH0 MSTORE PUSH1 0x26 PUSH1 0x20 MSTORE PUSH1 0x40 PUSH0 KECCAK256 DUP6 PUSH0 MSTORE PUSH1 0x20 MSTORE PUSH1 0x40 PUSH0 KECCAK256 DUP3 PUSH1 0xFF NOT DUP3 SLOAD AND OR SWAP1 SSTORE PUSH1 0xC DUP2 ADD PUSH2 0x1598 DUP5 DUP3 SLOAD PUSH2 0x1C59 JUMP JUMPDEST SWAP1 SSTORE PUSH2 0x15A5 DUP4 DUP8 DUP8 PUSH2 0x22CF JUMP JUMPDEST PUSH1 0x40 MLOAD SWAP3 PUSH2 0x15B2 DUP5 PUSH2 0x1C66 JUMP JUMPDEST DUP4 MSTORE PUSH0 PUSH1 0x20 DUP5 ADD MSTORE TIMESTAMP PUSH1 0x40 DUP5 ADD MSTORE PUSH1 0xA PUSH1 0x60 DUP5 ADD MSTORE ADD PUSH2 0x1CC0 JUMP JUMPDEST PUSH1 0x1 DUP2 ADD DUP1 SWAP2 GT PUSH2 0x56B JUMPI PUSH1 0x40 MLOAD SWAP1 DUP2 MSTORE PUSH1 0x40 PUSH1 0x20 DUP3 ADD MSTORE PUSH1 0x4 PUSH1 0x40 DUP3 ADD MSTORE PUSH4 0x141BDBDB PUSH1 0xE2 SHL PUSH1 0x60 DUP3 ADD MSTORE PUSH0 MLOAD PUSH1 0x20 PUSH2 0x3217 PUSH0 CODECOPY PUSH0 MLOAD SWAP1 PUSH0 MSTORE PUSH1 0x80 CALLER SWAP3 LOG3 STOP JUMPDEST PUSH1 0x4 DUP4 ADD SLOAD DUP1 PUSH0 MSTORE PUSH1 0x2C PUSH1 0x20 MSTORE PUSH1 0xF PUSH1 0x40 PUSH0 KECCAK256 ADD SLOAD PUSH3 0x2A300 DUP2 ADD DUP1 SWAP2 GT PUSH2 0x56B JUMPI TIMESTAMP LT ISZERO PUSH2 0x163E JUMPI JUMPDEST POP PUSH2 0x1553 JUMP JUMPDEST PUSH0 MSTORE PUSH1 0x2C PUSH1 0x20 MSTORE PUSH1 0x8 PUSH1 0x40 PUSH0 KECCAK256 ADD DUP1 SLOAD SWAP1 PUSH1 0x1 DUP3 ADD DUP1 SWAP3 GT PUSH2 0x56B JUMPI SSTORE DUP6 PUSH2 0x1638 JUMP JUMPDEST PUSH2 0x1679 SWAP1 PUSH1 0x20 RETURNDATASIZE PUSH1 0x20 GT PUSH2 0x745 JUMPI PUSH2 0x738 DUP2 DUP4 PUSH2 0x1C9E JUMP JUMPDEST PUSH2 0x154D JUMP JUMPDEST PUSH2 0x14CF JUMP JUMPDEST PUSH1 0x40 MLOAD PUSH3 0x461BCD PUSH1 0xE5 SHL DUP2 MSTORE PUSH1 0x20 PUSH1 0x4 DUP3 ADD MSTORE PUSH1 0x18 PUSH1 0x24 DUP3 ADD MSTORE PUSH32 0x5570677261646520796F7572206C6576656C2066697273740000000000000000 PUSH1 0x44 DUP3 ADD MSTORE PUSH1 0x64 SWAP1 REVERT JUMPDEST CALLVALUE PUSH2 0x275 JUMPI PUSH1 0x20 CALLDATASIZE PUSH1 0x3 NOT ADD SLT PUSH2 0x275 JUMPI PUSH1 0x4 CALLDATALOAD PUSH1 0x38 SLOAD DUP2 LT ISZERO PUSH2 0x275 JUMPI PUSH1 0x38 SLOAD DUP2 LT ISZERO PUSH2 0xC10 JUMPI PUSH1 0x38 PUSH0 MSTORE PUSH32 0x38395C5DCEADE9603479B177B68959049485DF8AA97B39F3533039AF5F456199 ADD SLOAD PUSH1 0x40 MLOAD SWAP1 DUP2 MSTORE PUSH1 0x20 SWAP1 RETURN JUMPDEST CALLVALUE PUSH2 0x275 JUMPI PUSH0 CALLDATASIZE PUSH1 0x3 NOT ADD SLT PUSH2 0x275 JUMPI PUSH1 0x20 PUSH1 0x40 MLOAD PUSH1 0xF DUP2 MSTORE RETURN JUMPDEST CALLVALUE PUSH2 0x275 JUMPI PUSH1 0x20 CALLDATASIZE PUSH1 0x3 NOT ADD SLT PUSH2 0x275 JUMPI PUSH1 0x4 CALLDATALOAD PUSH0 MSTORE PUSH1 0x2C PUSH1 0x20 MSTORE PUSH1 0x40 PUSH0 KECCAK256 PUSH1 0x1 PUSH1 0xA0 SHL PUSH1 0x1 SWAP1 SUB DUP2 SLOAD AND PUSH1 0x2 DUP3 ADD SLOAD SWAP2 PUSH1 0x3 DUP2 ADD SLOAD PUSH1 0x4 DUP3 ADD SLOAD PUSH1 0x5 DUP4 ADD SLOAD PUSH1 0x6 DUP5 ADD SLOAD PUSH1 0x7 DUP6 ADD SLOAD PUSH1 0x8 DUP7 ADD SLOAD PUSH1 0x9 DUP8 ADD SLOAD SWAP2 PUSH1 0xA DUP9 ADD SLOAD SWAP4 PUSH1 0xB DUP10 ADD SLOAD SWAP6 PUSH1 0xC DUP11 ADD SLOAD SWAP8 PUSH1 0xD DUP12 ADD SLOAD SWAP10 PUSH1 0xE DUP13 ADD SLOAD SWAP12 PUSH1 0xF ADD SLOAD SWAP13 PUSH1 0x40 MLOAD SWAP15 DUP16 SWAP2 DUP3 MSTORE PUSH1 0x20 DUP3 ADD MSTORE PUSH1 0x40 ADD MSTORE PUSH1 0x60 DUP14 ADD MSTORE PUSH1 0x80 DUP13 ADD MSTORE PUSH1 0xA0 DUP12 ADD MSTORE PUSH1 0xC0 DUP11 ADD MSTORE PUSH1 0xE0 DUP10 ADD MSTORE PUSH2 0x100 DUP9 ADD MSTORE PUSH2 0x120 DUP8 ADD MSTORE PUSH2 0x140 DUP7 ADD MSTORE PUSH2 0x160 DUP6 ADD MSTORE PUSH2 0x180 DUP5 ADD MSTORE PUSH2 0x1A0 DUP4 ADD MSTORE PUSH2 0x1C0 DUP3 ADD MSTORE PUSH2 0x1E0 SWAP1 RETURN JUMPDEST CALLVALUE PUSH2 0x275 JUMPI PUSH0 CALLDATASIZE PUSH1 0x3 NOT ADD SLT PUSH2 0x275 JUMPI PUSH1 0x20 PUSH1 0x40 MLOAD PUSH8 0xDE0B6B3A7640000 DUP2 MSTORE RETURN JUMPDEST CALLVALUE PUSH2 0x275 JUMPI PUSH0 CALLDATASIZE PUSH1 0x3 NOT ADD SLT PUSH2 0x275 JUMPI PUSH1 0x20 PUSH1 0x40 MLOAD PUSH3 0x15180 DUP2 MSTORE RETURN JUMPDEST CALLVALUE PUSH2 0x275 JUMPI PUSH0 CALLDATASIZE PUSH1 0x3 NOT ADD SLT PUSH2 0x275 JUMPI PUSH0 SLOAD PUSH1 0x40 MLOAD PUSH1 0x1 PUSH1 0x1 PUSH1 0xA0 SHL SUB SWAP1 SWAP2 AND DUP2 MSTORE PUSH1 0x20 SWAP1 RETURN JUMPDEST CALLVALUE PUSH2 0x275 JUMPI PUSH0 CALLDATASIZE PUSH1 0x3 NOT ADD SLT PUSH2 0x275 JUMPI PUSH1 0x20 PUSH1 0x34 SLOAD PUSH1 0x40 MLOAD SWAP1 DUP2 MSTORE RETURN JUMPDEST CALLVALUE PUSH2 0x275 JUMPI PUSH1 0x20 CALLDATASIZE PUSH1 0x3 NOT ADD SLT PUSH2 0x275 JUMPI PUSH1 0x40 PUSH2 0x18B0 PUSH1 0x4 CALLDATALOAD PUSH2 0x1D35 JUMP JUMPDEST DUP3 MLOAD SWAP2 DUP3 MSTORE PUSH1 0x20 DUP3 ADD MSTORE RETURN JUMPDEST CALLVALUE PUSH2 0x275 JUMPI PUSH1 0x20 CALLDATASIZE PUSH1 0x3 NOT ADD SLT PUSH2 0x275 JUMPI PUSH1 0x4 CALLDATALOAD PUSH1 0x7 DUP2 LT ISZERO PUSH2 0x275 JUMPI PUSH1 0x20 SWAP1 PUSH1 0xA ADD SLOAD PUSH1 0x40 MLOAD SWAP1 DUP2 MSTORE RETURN JUMPDEST CALLVALUE PUSH2 0x275 JUMPI PUSH4 0xFFFFFFFF PUSH2 0x18FB CALLDATASIZE PUSH2 0x1B97 JUMP JUMPDEST SWAP2 AND SWAP1 DUP2 PUSH0 MSTORE PUSH1 0x2C PUSH1 0x20 MSTORE PUSH1 0x40 PUSH0 KECCAK256 PUSH2 0x191E PUSH1 0x1 DUP1 PUSH1 0xA0 SHL SUB DUP3 SLOAD AND CALLER EQ PUSH2 0x1BD3 JUMP JUMPDEST PUSH2 0x192E PUSH1 0x7 PUSH1 0xB DUP4 ADD SLOAD LT PUSH2 0x1C12 JUMP JUMPDEST PUSH2 0x1937 DUP3 PUSH2 0x1AF2 JUMP JUMPDEST SWAP1 SLOAD SWAP1 PUSH1 0x3 SHL SHR DUP3 PUSH0 MSTORE PUSH1 0x21 PUSH1 0x20 MSTORE PUSH1 0x40 PUSH0 KECCAK256 DUP5 PUSH0 MSTORE PUSH1 0x20 MSTORE PUSH1 0x1 PUSH1 0x40 PUSH0 KECCAK256 ADD SWAP2 DUP3 SLOAD SWAP1 DUP3 DUP3 LT PUSH2 0x19CB JUMPI PUSH2 0x1983 SWAP4 PUSH2 0x1972 DUP5 PUSH1 0x1 SWAP5 PUSH2 0x1C4C JUMP JUMPDEST SWAP1 SSTORE PUSH1 0xC DUP2 ADD PUSH2 0x1598 DUP5 DUP3 SLOAD PUSH2 0x1C59 JUMP JUMPDEST PUSH1 0x40 MLOAD SWAP1 DUP2 MSTORE PUSH1 0x40 PUSH1 0x20 DUP3 ADD MSTORE PUSH1 0x16 PUSH1 0x40 DUP3 ADD MSTORE PUSH22 0x506F6F6C205265546F70757020284561726E696E6729 PUSH1 0x50 SHL PUSH1 0x60 DUP3 ADD MSTORE PUSH0 MLOAD PUSH1 0x20 PUSH2 0x3217 PUSH0 CODECOPY PUSH0 MLOAD SWAP1 PUSH0 MSTORE PUSH1 0x80 CALLER SWAP3 LOG3 STOP JUMPDEST PUSH1 0x40 MLOAD PUSH3 0x461BCD PUSH1 0xE5 SHL DUP2 MSTORE PUSH1 0x20 PUSH1 0x4 DUP3 ADD MSTORE PUSH1 0x1A PUSH1 0x24 DUP3 ADD MSTORE PUSH32 0x4E6F7420656E6F756768207265546F7075702062616C616E6365000000000000 PUSH1 0x44 DUP3 ADD MSTORE PUSH1 0x64 SWAP1 REVERT JUMPDEST CALLVALUE PUSH2 0x275 JUMPI PUSH1 0x20 CALLDATASIZE PUSH1 0x3 NOT ADD SLT PUSH2 0x275 JUMPI PUSH1 0x4 CALLDATALOAD PUSH0 MSTORE PUSH1 0x33 PUSH1 0x20 MSTORE PUSH1 0x20 PUSH1 0x40 PUSH0 KECCAK256 SLOAD PUSH1 0x40 MLOAD SWAP1 DUP2 MSTORE RETURN JUMPDEST CALLVALUE PUSH2 0x275 JUMPI PUSH2 0x1A48 CALLDATASIZE PUSH2 0x1B81 JUMP JUMPDEST SWAP1 PUSH0 MSTORE PUSH1 0x25 PUSH1 0x20 MSTORE PUSH1 0x40 PUSH0 KECCAK256 DUP1 SLOAD DUP3 LT ISZERO PUSH2 0x275 JUMPI PUSH1 0x20 SWAP2 PUSH2 0x931 SWAP2 PUSH2 0x1B6C JUMP JUMPDEST CALLVALUE PUSH2 0x275 JUMPI PUSH2 0x1A77 CALLDATASIZE PUSH2 0x1AD8 JUMP JUMPDEST SWAP2 PUSH0 MSTORE PUSH1 0x28 PUSH1 0x20 MSTORE PUSH1 0x40 PUSH0 KECCAK256 SWAP1 PUSH0 MSTORE PUSH1 0x20 MSTORE PUSH1 0x40 PUSH0 KECCAK256 DUP1 SLOAD DUP3 LT ISZERO PUSH2 0x275 JUMPI PUSH1 0x20 SWAP2 PUSH2 0x931 SWAP2 PUSH2 0x1B6C JUMP JUMPDEST CALLVALUE PUSH2 0x275 JUMPI PUSH0 CALLDATASIZE PUSH1 0x3 NOT ADD SLT PUSH2 0x275 JUMPI PUSH1 0x20 PUSH1 0x40 MLOAD PUSH2 0x2710 DUP2 MSTORE RETURN JUMPDEST CALLVALUE PUSH2 0x275 JUMPI PUSH0 CALLDATASIZE PUSH1 0x3 NOT ADD SLT PUSH2 0x275 JUMPI PUSH1 0x20 SWAP1 PUSH1 0x36 SLOAD DUP2 MSTORE RETURN JUMPDEST PUSH1 0x60 SWAP1 PUSH1 0x3 NOT ADD SLT PUSH2 0x275 JUMPI PUSH1 0x4 CALLDATALOAD SWAP1 PUSH1 0x24 CALLDATALOAD SWAP1 PUSH1 0x44 CALLDATALOAD SWAP1 JUMP JUMPDEST PUSH1 0x8 SLOAD DUP2 LT ISZERO PUSH2 0xC10 JUMPI PUSH1 0x8 PUSH0 MSTORE PUSH1 0x20 PUSH0 KECCAK256 ADD SWAP1 PUSH0 SWAP1 JUMP JUMPDEST PUSH1 0x7 SLOAD DUP2 LT ISZERO PUSH2 0xC10 JUMPI PUSH1 0x7 PUSH0 MSTORE PUSH1 0x20 PUSH0 KECCAK256 ADD SWAP1 PUSH0 SWAP1 JUMP JUMPDEST PUSH1 0x9 SLOAD DUP2 LT ISZERO PUSH2 0xC10 JUMPI PUSH1 0x9 PUSH0 MSTORE PUSH1 0x20 PUSH0 KECCAK256 ADD SWAP1 PUSH0 SWAP1 JUMP JUMPDEST PUSH1 0x7 SLOAD ISZERO PUSH2 0xC10 JUMPI PUSH1 0x7 PUSH0 SWAP1 DUP2 MSTORE PUSH32 0xA66CC928B5EDB82AF9BD49922954155AB7B0942694BEA4CE44661D9A8736C688 SWAP2 JUMP JUMPDEST DUP1 SLOAD DUP3 LT ISZERO PUSH2 0xC10 JUMPI PUSH0 MSTORE PUSH1 0x20 PUSH0 KECCAK256 ADD SWAP1 PUSH0 SWAP1 JUMP JUMPDEST PUSH1 0x40 SWAP1 PUSH1 0x3 NOT ADD SLT PUSH2 0x275 JUMPI PUSH1 0x4 CALLDATALOAD SWAP1 PUSH1 0x24 CALLDATALOAD SWAP1 JUMP JUMPDEST PUSH1 0x40 SWAP1 PUSH1 0x3 NOT ADD SLT PUSH2 0x275 JUMPI PUSH1 0x4 CALLDATALOAD PUSH4 0xFFFFFFFF DUP2 AND DUP2 SUB PUSH2 0x275 JUMPI SWAP1 PUSH1 0x24 CALLDATALOAD SWAP1 JUMP JUMPDEST DUP1 SLOAD DUP3 LT ISZERO PUSH2 0xC10 JUMPI PUSH0 MSTORE PUSH1 0x5 PUSH1 0x20 PUSH0 KECCAK256 SWAP2 MUL ADD SWAP1 PUSH0 SWAP1 JUMP JUMPDEST ISZERO PUSH2 0x1BDA JUMPI JUMP JUMPDEST PUSH1 0x40 MLOAD PUSH3 0x461BCD PUSH1 0xE5 SHL DUP2 MSTORE PUSH1 0x20 PUSH1 0x4 DUP3 ADD MSTORE PUSH1 0x10 PUSH1 0x24 DUP3 ADD MSTORE PUSH16 0x139BDD081E5BDD5C881858D8DBDD5B9D PUSH1 0x82 SHL PUSH1 0x44 DUP3 ADD MSTORE PUSH1 0x64 SWAP1 REVERT JUMPDEST ISZERO PUSH2 0x1C19 JUMPI JUMP JUMPDEST PUSH1 0x40 MLOAD PUSH3 0x461BCD PUSH1 0xE5 SHL DUP2 MSTORE PUSH1 0x20 PUSH1 0x4 DUP3 ADD MSTORE PUSH1 0xB PUSH1 0x24 DUP3 ADD MSTORE PUSH11 0x105D081B585E081C1BDBDB PUSH1 0xAA SHL PUSH1 0x44 DUP3 ADD MSTORE PUSH1 0x64 SWAP1 REVERT JUMPDEST SWAP2 SWAP1 DUP3 SUB SWAP2 DUP3 GT PUSH2 0x56B JUMPI JUMP JUMPDEST SWAP2 SWAP1 DUP3 ADD DUP1 SWAP3 GT PUSH2 0x56B JUMPI JUMP JUMPDEST PUSH1 0x80 DUP2 ADD SWAP1 DUP2 LT PUSH8 0xFFFFFFFFFFFFFFFF DUP3 GT OR PUSH2 0x70B JUMPI PUSH1 0x40 MSTORE JUMP JUMPDEST PUSH1 0xA0 DUP2 ADD SWAP1 DUP2 LT PUSH8 0xFFFFFFFFFFFFFFFF DUP3 GT OR PUSH2 0x70B JUMPI PUSH1 0x40 MSTORE JUMP JUMPDEST SWAP1 PUSH1 0x1F DUP1 NOT SWAP2 ADD AND DUP2 ADD SWAP1 DUP2 LT PUSH8 0xFFFFFFFFFFFFFFFF DUP3 GT OR PUSH2 0x70B JUMPI PUSH1 0x40 MSTORE JUMP JUMPDEST DUP1 SLOAD PUSH1 0x1 PUSH1 0x40 SHL DUP2 LT ISZERO PUSH2 0x70B JUMPI PUSH1 0x1 DUP2 ADD DUP1 DUP4 SSTORE DUP2 LT ISZERO PUSH2 0xC10 JUMPI PUSH1 0x3 PUSH1 0x60 SWAP2 PUSH1 0xFF SWAP4 PUSH0 MSTORE PUSH1 0x20 PUSH0 KECCAK256 SWAP1 PUSH1 0x2 SHL ADD DUP5 MLOAD DUP2 SSTORE PUSH1 0x20 DUP6 ADD MLOAD PUSH1 0x1 DUP3 ADD SSTORE PUSH1 0x40 DUP6 ADD MLOAD PUSH1 0x2 DUP3 ADD SSTORE ADD SWAP3 ADD MLOAD AND PUSH1 0xFF NOT DUP3 SLOAD AND OR SWAP1 SSTORE JUMP JUMPDEST DUP2 ISZERO PUSH2 0x1D21 JUMPI DIV SWAP1 JUMP JUMPDEST PUSH4 0x4E487B71 PUSH1 0xE0 SHL PUSH0 MSTORE PUSH1 0x12 PUSH1 0x4 MSTORE PUSH1 0x24 PUSH0 REVERT JUMPDEST SWAP1 DUP2 PUSH0 MSTORE PUSH1 0x2C PUSH1 0x20 MSTORE PUSH1 0x3 PUSH1 0x40 PUSH0 KECCAK256 ADD SLOAD ISZERO PUSH2 0x1D8F JUMPI PUSH1 0x32 SLOAD DUP3 PUSH0 MSTORE PUSH1 0x33 PUSH1 0x20 MSTORE PUSH1 0x40 PUSH0 KECCAK256 SLOAD SWAP1 DUP2 DUP2 GT ISZERO PUSH2 0x1D85 JUMPI PUSH2 0x1D7A PUSH2 0x1D82 SWAP3 PUSH8 0xDE0B6B3A7640000 SWAP3 PUSH2 0x1C4C JUMP JUMPDEST DIV DUP1 SWAP4 PUSH2 0x2437 JUMP JUMPDEST SWAP1 JUMP JUMPDEST POP POP SWAP1 POP PUSH0 SWAP1 PUSH0 SWAP1 JUMP JUMPDEST PUSH0 SWAP2 POP DUP2 SWAP1 JUMP JUMPDEST ISZERO PUSH2 0x1D9D JUMPI JUMP JUMPDEST PUSH1 0x40 MLOAD PUSH3 0x461BCD PUSH1 0xE5 SHL DUP2 MSTORE PUSH1 0x20 PUSH1 0x4 DUP3 ADD MSTORE PUSH1 0xC PUSH1 0x24 DUP3 ADD MSTORE PUSH12 0x105D081B585E081B195D995B PUSH1 0xA2 SHL PUSH1 0x44 DUP3 ADD MSTORE PUSH1 0x64 SWAP1 REVERT JUMPDEST ISZERO PUSH2 0x1DD8 JUMPI JUMP JUMPDEST PUSH1 0x40 MLOAD PUSH3 0x461BCD PUSH1 0xE5 SHL DUP2 MSTORE PUSH1 0x20 PUSH1 0x4 DUP3 ADD MSTORE PUSH1 0x16 PUSH1 0x24 DUP3 ADD MSTORE PUSH22 0x141BDBDB08185B1C9958591E481C1D5C98DA185CD959 PUSH1 0x52 SHL PUSH1 0x44 DUP3 ADD MSTORE PUSH1 0x64 SWAP1 REVERT JUMPDEST SWAP1 DUP2 PUSH1 0x20 SWAP2 SUB SLT PUSH2 0x275 JUMPI MLOAD DUP1 ISZERO ISZERO DUP2 SUB PUSH2 0x275 JUMPI SWAP1 JUMP JUMPDEST DUP2 DUP2 MUL SWAP3 SWAP2 DUP2 ISZERO SWAP2 DUP5 DIV EQ OR ISZERO PUSH2 0x56B JUMPI JUMP JUMPDEST PUSH1 0x60 SWAP1 PUSH0 MSTORE PUSH1 0x2C PUSH1 0x20 MSTORE PUSH1 0x40 PUSH0 KECCAK256 PUSH1 0xB DUP2 ADD SLOAD SWAP2 PUSH1 0x8 SLOAD DUP4 LT ISZERO PUSH2 0x1F53 JUMPI POP PUSH1 0x7 DUP3 LT ISZERO PUSH2 0xC10 JUMPI PUSH1 0x6 DUP3 PUSH1 0xA ADD SLOAD SWAP2 ADD SLOAD LT PUSH2 0x1F06 JUMPI ISZERO ISZERO DUP1 PUSH2 0x1EFF JUMPI JUMPDEST PUSH2 0x1EC2 JUMPI PUSH1 0x1 SWAP1 PUSH1 0x40 MLOAD PUSH2 0x1E95 PUSH1 0x40 DUP3 PUSH2 0x1C9E JUMP JUMPDEST PUSH1 0x19 DUP2 MSTORE PUSH32 0x456C696769626C6520746F20627579206E65787420706F6F6C00000000000000 PUSH1 0x20 DUP3 ADD MSTORE SWAP1 JUMP JUMPDEST PUSH0 SWAP1 PUSH1 0x40 MLOAD PUSH2 0x1ED2 PUSH1 0x40 DUP3 PUSH2 0x1C9E JUMP JUMPDEST PUSH1 0x17 DUP2 MSTORE PUSH32 0x4275792070726576696F757320706F6F6C206669727374000000000000000000 PUSH1 0x20 DUP3 ADD MSTORE SWAP1 JUMP JUMPDEST POP PUSH0 PUSH2 0x1E80 JUMP JUMPDEST POP PUSH0 SWAP1 PUSH1 0x40 MLOAD PUSH2 0x1F17 PUSH1 0x60 DUP3 PUSH2 0x1C9E JUMP JUMPDEST PUSH1 0x26 DUP2 MSTORE PUSH32 0x596F75206E65656420746F207265616368206120686967686572206C6576656C PUSH1 0x20 DUP3 ADD MSTORE PUSH6 0x8199A5C9CDD PUSH1 0xD2 SHL PUSH1 0x40 DUP3 ADD MSTORE SWAP1 JUMP JUMPDEST SWAP3 SWAP2 POP POP PUSH0 SWAP2 PUSH2 0x1F66 PUSH1 0x40 MLOAD SWAP2 DUP3 PUSH2 0x1C9E JUMP JUMPDEST PUSH1 0x23 DUP2 MSTORE PUSH32 0x596F752061726520616C72656164792061742074686520686967686573742070 PUSH1 0x20 DUP3 ADD MSTORE PUSH3 0x1BDBDB PUSH1 0xEA SHL PUSH1 0x40 DUP3 ADD MSTORE SWAP1 JUMP JUMPDEST DUP1 SLOAD PUSH1 0x1 PUSH1 0x40 SHL DUP2 LT ISZERO PUSH2 0x70B JUMPI PUSH2 0x1FBC SWAP2 PUSH1 0x1 DUP3 ADD DUP2 SSTORE PUSH2 0x1BBA JUMP JUMPDEST SWAP2 SWAP1 SWAP2 PUSH2 0x1FF3 JUMPI DUP1 MLOAD DUP3 SSTORE PUSH1 0x20 DUP2 ADD MLOAD PUSH1 0x1 DUP4 ADD SSTORE PUSH1 0x40 DUP2 ADD MLOAD PUSH1 0x2 DUP4 ADD SSTORE PUSH1 0x60 DUP2 ADD MLOAD PUSH1 0x3 DUP4 ADD SSTORE PUSH1 0x80 ADD MLOAD PUSH1 0x4 SWAP1 SWAP2 ADD SSTORE JUMP JUMPDEST JUMP JUMPDEST PUSH4 0x4E487B71 PUSH1 0xE0 SHL PUSH0 MSTORE PUSH0 PUSH1 0x4 MSTORE PUSH1 0x24 PUSH0 REVERT JUMPDEST DUP1 PUSH0 MSTORE PUSH1 0x2C PUSH1 0x20 MSTORE PUSH1 0x40 PUSH0 KECCAK256 SWAP1 PUSH1 0x3 DUP3 ADD SLOAD ISZERO PUSH2 0x21DC JUMPI PUSH2 0x2031 PUSH1 0x1 DUP1 PUSH1 0xA0 SHL SUB DUP4 SLOAD AND CALLER EQ PUSH2 0x1BD3 JUMP JUMPDEST PUSH1 0x32 SLOAD SWAP2 DUP2 PUSH0 MSTORE PUSH1 0x33 PUSH1 0x20 MSTORE PUSH1 0x40 PUSH0 KECCAK256 SLOAD DUP1 DUP5 EQ PUSH2 0x21D6 JUMPI PUSH2 0x205C PUSH8 0xDE0B6B3A7640000 SWAP2 DUP6 PUSH2 0x1C4C JUMP JUMPDEST DIV SWAP2 DUP3 ISZERO PUSH2 0x21C5 JUMPI PUSH2 0x206E DUP4 DUP3 PUSH2 0x2437 JUMP JUMPDEST SWAP4 DUP2 PUSH0 MSTORE PUSH1 0x33 PUSH1 0x20 MSTORE PUSH1 0x40 PUSH0 KECCAK256 SSTORE DUP4 DUP1 PUSH2 0x20A2 JUMPI JUMPDEST SWAP2 POP POP DUP2 GT PUSH2 0x2090 JUMPI POP POP JUMP JUMPDEST PUSH2 0x1FF1 SWAP2 PUSH2 0x209D SWAP2 PUSH2 0x1C4C JUMP JUMPDEST PUSH2 0x250A JUMP JUMPDEST PUSH2 0x214A SWAP3 PUSH2 0x210C DUP4 PUSH1 0x20 SWAP5 PUSH0 MSTORE PUSH1 0x2D DUP6 MSTORE PUSH1 0x7 PUSH1 0x40 PUSH0 KECCAK256 PUSH2 0x20C4 DUP7 DUP3 SLOAD PUSH2 0x1C59 JUMP JUMPDEST DUP2 SSTORE ADD PUSH2 0x20D2 DUP6 DUP3 SLOAD PUSH2 0x1C59 JUMP JUMPDEST SWAP1 SSTORE DUP1 PUSH0 MSTORE PUSH1 0x2E DUP6 MSTORE PUSH1 0x40 PUSH0 KECCAK256 PUSH1 0x40 MLOAD SWAP2 PUSH2 0x20EC DUP4 PUSH2 0x1C82 JUMP JUMPDEST DUP3 MSTORE DUP5 DUP7 DUP4 ADD MSTORE PUSH1 0x1 PUSH1 0x40 DUP4 ADD MSTORE TIMESTAMP PUSH1 0x60 DUP4 ADD MSTORE PUSH1 0x9 PUSH1 0x80 DUP4 ADD MSTORE PUSH2 0x1F9F JUMP JUMPDEST PUSH0 DUP1 SLOAD SWAP2 SLOAD PUSH1 0x40 MLOAD PUSH4 0xA9059CBB PUSH1 0xE0 SHL DUP2 MSTORE PUSH1 0x1 PUSH1 0x1 PUSH1 0xA0 SHL SUB SWAP2 DUP3 AND PUSH1 0x4 DUP3 ADD MSTORE PUSH1 0x24 DUP2 ADD SWAP5 SWAP1 SWAP5 MSTORE SWAP3 SWAP5 DUP6 SWAP4 SWAP1 SWAP3 AND SWAP2 DUP4 SWAP2 SWAP1 DUP3 SWAP1 PUSH1 0x44 DUP3 ADD SWAP1 JUMP JUMPDEST SUB SWAP3 GAS CALL SWAP1 DUP2 ISZERO PUSH2 0x74C JUMPI PUSH0 SWAP2 PUSH2 0x21A6 JUMPI JUMPDEST POP ISZERO PUSH2 0x216A JUMPI PUSH0 DUP1 DUP4 PUSH2 0x2083 JUMP JUMPDEST PUSH1 0x40 MLOAD PUSH3 0x461BCD PUSH1 0xE5 SHL DUP2 MSTORE PUSH1 0x20 PUSH1 0x4 DUP3 ADD MSTORE PUSH1 0x14 PUSH1 0x24 DUP3 ADD MSTORE PUSH20 0x1554D115081D1C985B9CD9995C8819985A5B1959 PUSH1 0x62 SHL PUSH1 0x44 DUP3 ADD MSTORE PUSH1 0x64 SWAP1 REVERT JUMPDEST PUSH2 0x21BF SWAP2 POP PUSH1 0x20 RETURNDATASIZE PUSH1 0x20 GT PUSH2 0x745 JUMPI PUSH2 0x738 DUP2 DUP4 PUSH2 0x1C9E JUMP JUMPDEST PUSH0 PUSH2 0x215C JUMP JUMPDEST SWAP2 POP POP PUSH0 MSTORE PUSH1 0x33 PUSH1 0x20 MSTORE PUSH1 0x40 PUSH0 KECCAK256 SSTORE JUMP JUMPDEST POP POP POP POP JUMP JUMPDEST PUSH1 0x40 MLOAD PUSH3 0x461BCD PUSH1 0xE5 SHL DUP2 MSTORE PUSH1 0x20 PUSH1 0x4 DUP3 ADD MSTORE PUSH1 0xE PUSH1 0x24 DUP3 ADD MSTORE PUSH14 0x155CD95C881B9BDD08199BDD5B99 PUSH1 0x92 SHL PUSH1 0x44 DUP3 ADD MSTORE PUSH1 0x64 SWAP1 REVERT JUMPDEST DUP1 SLOAD PUSH1 0x1 PUSH1 0x40 SHL DUP2 LT ISZERO PUSH2 0x70B JUMPI PUSH2 0x222F SWAP2 PUSH1 0x1 DUP3 ADD DUP2 SSTORE PUSH2 0x1B6C JUMP JUMPDEST DUP2 SWAP3 SWAP2 SLOAD SWAP1 PUSH1 0x3 SHL SWAP2 DUP3 SHL SWAP2 PUSH0 NOT SWAP1 SHL NOT AND OR SWAP1 SSTORE JUMP JUMPDEST ISZERO PUSH2 0x224D JUMPI JUMP JUMPDEST PUSH1 0x40 MLOAD PUSH3 0x461BCD PUSH1 0xE5 SHL DUP2 MSTORE PUSH1 0x20 PUSH1 0x4 DUP3 ADD MSTORE PUSH1 0x7 PUSH1 0x24 DUP3 ADD MSTORE PUSH7 0x125B9D985B1A59 PUSH1 0xCA SHL PUSH1 0x44 DUP3 ADD MSTORE PUSH1 0x64 SWAP1 REVERT JUMPDEST ISZERO PUSH2 0x2283 JUMPI JUMP JUMPDEST PUSH1 0x40 MLOAD PUSH3 0x461BCD PUSH1 0xE5 SHL DUP2 MSTORE PUSH1 0x20 PUSH1 0x4 DUP3 ADD MSTORE PUSH1 0x10 PUSH1 0x24 DUP3 ADD MSTORE PUSH16 0x125B98DBDC9C9958DD08185B5BDD5B9D PUSH1 0x82 SHL PUSH1 0x44 DUP3 ADD MSTORE PUSH1 0x64 SWAP1 REVERT JUMPDEST DUP1 MLOAD DUP3 LT ISZERO PUSH2 0xC10 JUMPI PUSH1 0x20 SWAP2 PUSH1 0x5 SHL ADD ADD SWAP1 JUMP JUMPDEST SWAP2 SWAP1 PUSH2 0x22DE PUSH1 0x8 SLOAD DUP5 LT PUSH2 0x2246 JUMP JUMPDEST PUSH2 0x22F8 PUSH2 0x22EA DUP5 PUSH2 0x1AF2 JUMP JUMPDEST SWAP1 SLOAD SWAP1 PUSH1 0x3 SHL SHR CALLVALUE EQ PUSH2 0x227C JUMP JUMPDEST DUP3 PUSH0 MSTORE PUSH1 0x25 PUSH1 0x20 MSTORE PUSH1 0x40 PUSH0 KECCAK256 SWAP3 PUSH1 0x40 MLOAD DUP1 DUP6 PUSH1 0x20 DUP3 SWAP8 SLOAD SWAP4 DUP5 DUP2 MSTORE ADD SWAP1 PUSH0 MSTORE PUSH1 0x20 PUSH0 KECCAK256 SWAP3 PUSH0 JUMPDEST DUP2 DUP2 LT PUSH2 0x241E JUMPI POP POP PUSH2 0x2333 SWAP3 POP SUB DUP6 PUSH2 0x1C9E JUMP JUMPDEST DUP4 MLOAD SWAP4 PUSH2 0x2342 DUP6 PUSH1 0x5 SLOAD PUSH2 0x1C59 JUMP JUMPDEST SWAP1 DUP3 PUSH0 MSTORE PUSH1 0x25 PUSH1 0x20 MSTORE PUSH2 0x2358 DUP3 PUSH1 0x40 PUSH0 KECCAK256 PUSH2 0x2212 JUMP JUMPDEST PUSH0 NOT DUP7 ADD SWAP6 DUP7 GT PUSH2 0x56B JUMPI PUSH2 0x2377 PUSH2 0x2419 SWAP2 PUSH1 0x3 PUSH2 0x1FF1 SWAP9 DIV SWAP1 PUSH2 0x22BB JUMP JUMPDEST MLOAD SWAP2 PUSH2 0x23DF PUSH1 0x40 MLOAD PUSH2 0x2388 DUP2 PUSH2 0x1C82 JUMP JUMPDEST DUP3 DUP2 MSTORE PUSH1 0x20 DUP1 DUP3 ADD DUP9 DUP2 MSTORE PUSH1 0x40 DUP1 DUP5 ADD DUP10 DUP2 MSTORE PUSH1 0x60 DUP6 ADD DUP10 DUP2 MSTORE PUSH0 PUSH1 0x80 DUP8 ADD DUP2 DUP2 MSTORE DUP13 DUP3 MSTORE PUSH1 0x22 DUP8 MSTORE DUP5 DUP3 KECCAK256 DUP11 DUP4 MSTORE SWAP1 SWAP7 MSTORE SWAP3 SWAP1 SWAP3 KECCAK256 SWAP5 MLOAD DUP6 SSTORE SWAP2 MLOAD PUSH1 0x1 DUP6 ADD SSTORE SWAP1 MLOAD PUSH1 0x2 DUP5 ADD SSTORE MLOAD PUSH1 0x3 DUP4 ADD SSTORE MLOAD PUSH1 0x4 SWAP1 SWAP2 ADD SSTORE JUMP JUMPDEST DUP4 PUSH0 MSTORE PUSH1 0x24 PUSH1 0x20 MSTORE PUSH1 0x40 PUSH0 KECCAK256 DUP6 PUSH0 MSTORE PUSH1 0x20 MSTORE PUSH2 0x23FE DUP2 PUSH1 0x40 PUSH0 KECCAK256 PUSH2 0x2212 JUMP JUMPDEST DUP4 PUSH0 MSTORE PUSH1 0x23 PUSH1 0x20 MSTORE PUSH1 0x40 PUSH0 KECCAK256 DUP4 PUSH0 MSTORE PUSH1 0x20 MSTORE PUSH1 0x40 PUSH0 KECCAK256 PUSH2 0x2212 JUMP JUMPDEST PUSH2 0x2F8F JUMP JUMPDEST DUP5 SLOAD DUP4 MSTORE PUSH1 0x1 SWAP5 DUP6 ADD SWAP5 DUP10 SWAP5 POP PUSH1 0x20 SWAP1 SWAP4 ADD SWAP3 ADD PUSH2 0x231E JUMP JUMPDEST DUP1 PUSH0 MSTORE PUSH1 0x2C PUSH1 0x20 MSTORE PUSH1 0x40 PUSH0 KECCAK256 SWAP1 PUSH0 MSTORE PUSH1 0x2D PUSH1 0x20 MSTORE PUSH1 0xA PUSH2 0x246D PUSH1 0x40 PUSH0 KECCAK256 SWAP3 PUSH1 0xF SWAP1 PUSH1 0x1 PUSH1 0x8 DUP3 ADD SLOAD GT PUSH2 0x249A JUMPI JUMPDEST DUP4 ADD SLOAD PUSH2 0x1E2E JUMP JUMPDEST DIV SWAP1 SLOAD DUP2 DUP2 LT ISZERO PUSH2 0x2493 JUMPI PUSH2 0x2481 SWAP2 PUSH2 0x1C4C JUMP JUMPDEST SWAP1 DUP2 DUP2 GT ISZERO PUSH2 0x248E JUMPI POP SWAP1 JUMP JUMPDEST SWAP1 POP SWAP1 JUMP JUMPDEST POP POP POP PUSH0 SWAP1 JUMP JUMPDEST PUSH1 0x14 SWAP2 POP PUSH2 0x2465 JUMP JUMPDEST PUSH1 0x38 SLOAD SWAP1 DUP2 ISZERO DUP1 ISZERO PUSH2 0x2502 JUMPI JUMPDEST PUSH2 0x24EF JUMPI PUSH8 0xDE0B6B3A7640000 DUP2 MUL SWAP1 DUP1 DUP3 DIV PUSH8 0xDE0B6B3A7640000 EQ SWAP1 ISZERO OR ISZERO PUSH2 0x56B JUMPI PUSH2 0x24EA SWAP2 PUSH2 0x24E2 SWAP2 PUSH2 0x1D17 JUMP JUMPDEST PUSH1 0x32 SLOAD PUSH2 0x1C59 JUMP JUMPDEST PUSH1 0x32 SSTORE JUMP JUMPDEST DUP1 SWAP2 POP PUSH2 0x24F9 JUMPI POP JUMP JUMPDEST PUSH2 0x1FF1 SWAP1 PUSH2 0x250A JUMP JUMPDEST POP DUP1 ISZERO PUSH2 0x24B0 JUMP JUMPDEST PUSH1 0x2 SLOAD PUSH1 0x1 PUSH1 0x1 PUSH1 0xA0 SHL SUB AND SWAP1 DUP2 ISZERO PUSH2 0x25D7 JUMPI PUSH0 DUP1 SLOAD PUSH1 0x40 MLOAD PUSH4 0xA9059CBB PUSH1 0xE0 SHL DUP2 MSTORE PUSH1 0x1 PUSH1 0x1 PUSH1 0xA0 SHL SUB SWAP5 DUP6 AND PUSH1 0x4 DUP3 ADD MSTORE PUSH1 0x24 DUP2 ADD DUP5 SWAP1 MSTORE SWAP4 PUSH1 0x20 SWAP3 DUP6 SWAP3 PUSH1 0x44 SWAP3 DUP5 SWAP3 SWAP2 AND GAS CALL SWAP2 DUP3 ISZERO PUSH2 0x74C JUMPI PUSH2 0x1FF1 SWAP3 PUSH2 0x25BA JUMPI JUMPDEST POP PUSH1 0x5 SLOAD PUSH0 MSTORE PUSH1 0x2D PUSH1 0x20 MSTORE PUSH1 0x40 PUSH0 KECCAK256 PUSH2 0x257D DUP3 DUP3 SLOAD PUSH2 0x1C59 JUMP JUMPDEST SWAP1 SSTORE PUSH1 0x5 SLOAD PUSH0 MSTORE PUSH1 0x2E PUSH1 0x20 MSTORE PUSH1 0x40 PUSH0 KECCAK256 PUSH1 0x40 MLOAD SWAP2 PUSH2 0x259A DUP4 PUSH2 0x1C82 JUMP JUMPDEST PUSH0 DUP4 MSTORE PUSH1 0x20 DUP4 ADD MSTORE PUSH0 PUSH1 0x40 DUP4 ADD MSTORE TIMESTAMP PUSH1 0x60 DUP4 ADD MSTORE PUSH1 0x5 PUSH1 0x80 DUP4 ADD MSTORE PUSH2 0x1F9F JUMP JUMPDEST PUSH2 0x25D2 SWAP1 PUSH1 0x20 RETURNDATASIZE PUSH1 0x20 GT PUSH2 0x745 JUMPI PUSH2 0x738 DUP2 DUP4 PUSH2 0x1C9E JUMP JUMPDEST PUSH2 0x2563 JUMP JUMPDEST PUSH1 0x40 MLOAD PUSH3 0x461BCD PUSH1 0xE5 SHL DUP2 MSTORE PUSH1 0x20 PUSH1 0x4 DUP3 ADD MSTORE PUSH1 0x11 PUSH1 0x24 DUP3 ADD MSTORE PUSH17 0x199959481859191C9CC81B9BDD081CD95D PUSH1 0x7A SHL PUSH1 0x44 DUP3 ADD MSTORE PUSH1 0x64 SWAP1 REVERT JUMPDEST DUP1 ISZERO DUP1 ISZERO PUSH2 0x2745 JUMPI JUMPDEST PUSH2 0x273A JUMPI PUSH0 DUP2 DUP2 MSTORE PUSH1 0x2C PUSH1 0x20 SWAP1 DUP2 MSTORE PUSH1 0x40 DUP1 DUP4 KECCAK256 DUP4 SLOAD DUP2 SLOAD SWAP3 MLOAD PUSH4 0xA9059CBB PUSH1 0xE0 SHL DUP2 MSTORE PUSH1 0x1 PUSH1 0x1 PUSH1 0xA0 SHL SUB SWAP4 DUP5 AND PUSH1 0x4 DUP3 ADD MSTORE PUSH1 0x24 DUP2 ADD DUP10 SWAP1 MSTORE SWAP2 SWAP6 SWAP5 SWAP2 SWAP4 SWAP3 DUP5 SWAP3 PUSH1 0x44 SWAP3 DUP5 SWAP3 AND GAS CALL DUP1 ISZERO PUSH2 0x74C JUMPI PUSH2 0x271D JUMPI JUMPDEST POP DUP1 PUSH0 MSTORE PUSH1 0x2D PUSH1 0x20 MSTORE PUSH1 0x1 PUSH1 0x40 PUSH0 KECCAK256 PUSH2 0x2689 DUP7 DUP3 SLOAD PUSH2 0x1C59 JUMP JUMPDEST DUP2 SSTORE ADD PUSH2 0x2697 DUP6 DUP3 SLOAD PUSH2 0x1C59 JUMP JUMPDEST SWAP1 SSTORE PUSH0 MSTORE PUSH1 0x2E PUSH1 0x20 MSTORE PUSH2 0x26D6 PUSH1 0x40 PUSH0 KECCAK256 PUSH1 0x40 MLOAD SWAP1 PUSH2 0x26B4 DUP3 PUSH2 0x1C82 JUMP JUMPDEST DUP5 DUP3 MSTORE DUP6 PUSH1 0x20 DUP4 ADD MSTORE PUSH1 0x1 PUSH1 0x40 DUP4 ADD MSTORE TIMESTAMP PUSH1 0x60 DUP4 ADD MSTORE PUSH1 0x1 PUSH1 0x80 DUP4 ADD MSTORE PUSH2 0x1F9F JUMP JUMPDEST PUSH1 0x1 DUP1 PUSH1 0xA0 SHL SUB SWAP1 SLOAD AND SWAP1 PUSH0 MSTORE PUSH1 0x2C PUSH1 0x20 MSTORE PUSH0 MLOAD PUSH1 0x20 PUSH2 0x31F7 PUSH0 CODECOPY PUSH0 MLOAD SWAP1 PUSH0 MSTORE PUSH1 0x60 PUSH1 0x1 DUP1 PUSH1 0xA0 SHL SUB PUSH1 0x40 PUSH0 KECCAK256 SLOAD AND SWAP4 PUSH1 0x40 MLOAD SWAP1 DUP2 MSTORE PUSH1 0x1 PUSH1 0x20 DUP3 ADD MSTORE PUSH1 0x1 PUSH1 0x40 DUP3 ADD MSTORE LOG3 JUMP JUMPDEST PUSH2 0x2735 SWAP1 PUSH1 0x20 RETURNDATASIZE PUSH1 0x20 GT PUSH2 0x745 JUMPI PUSH2 0x738 DUP2 DUP4 PUSH2 0x1C9E JUMP JUMPDEST PUSH2 0x266F JUMP JUMPDEST POP POP PUSH2 0x1FF1 SWAP1 PUSH2 0x250A JUMP JUMPDEST POP PUSH1 0x5 SLOAD DUP2 EQ PUSH2 0x2619 JUMP JUMPDEST SWAP1 SWAP2 DUP2 ISZERO DUP1 ISZERO PUSH2 0x28AE JUMPI JUMPDEST PUSH2 0x28A1 JUMPI DUP2 PUSH0 MSTORE PUSH1 0x2C PUSH1 0x20 MSTORE PUSH1 0x40 PUSH0 KECCAK256 PUSH1 0x1 DUP6 SUB PUSH2 0x2885 JUMPI JUMPDEST PUSH0 DUP1 SLOAD DUP3 SLOAD PUSH1 0x40 MLOAD PUSH4 0xA9059CBB PUSH1 0xE0 SHL DUP2 MSTORE PUSH1 0x1 PUSH1 0x1 PUSH1 0xA0 SHL SUB SWAP2 DUP3 AND PUSH1 0x4 DUP3 ADD MSTORE PUSH1 0x24 DUP2 ADD DUP7 SWAP1 MSTORE SWAP6 SWAP5 SWAP4 SWAP3 PUSH1 0x20 SWAP3 DUP8 SWAP3 PUSH1 0x44 SWAP3 DUP5 SWAP3 SWAP1 SWAP2 AND GAS CALL SWAP3 DUP4 ISZERO PUSH2 0x74C JUMPI PUSH0 MLOAD PUSH1 0x20 PUSH2 0x31F7 PUSH0 CODECOPY PUSH0 MLOAD SWAP1 PUSH0 MSTORE SWAP5 PUSH1 0x60 SWAP5 PUSH2 0x2868 JUMPI JUMPDEST POP DUP1 PUSH0 MSTORE PUSH1 0x2D PUSH1 0x20 MSTORE PUSH1 0x1 PUSH1 0x40 PUSH0 KECCAK256 PUSH2 0x27E8 DUP6 DUP3 SLOAD PUSH2 0x1C59 JUMP JUMPDEST DUP2 SSTORE ADD PUSH2 0x27F6 DUP5 DUP3 SLOAD PUSH2 0x1C59 JUMP JUMPDEST SWAP1 SSTORE PUSH0 MSTORE PUSH1 0x2E PUSH1 0x20 MSTORE PUSH2 0x2833 PUSH1 0x40 PUSH0 KECCAK256 PUSH1 0x40 MLOAD SWAP1 PUSH2 0x2813 DUP3 PUSH2 0x1C82 JUMP JUMPDEST DUP8 DUP3 MSTORE DUP5 PUSH1 0x20 DUP4 ADD MSTORE DUP9 PUSH1 0x40 DUP4 ADD MSTORE TIMESTAMP DUP7 DUP4 ADD MSTORE PUSH1 0x1 PUSH1 0x80 DUP4 ADD MSTORE PUSH2 0x1F9F JUMP JUMPDEST PUSH1 0x1 DUP1 PUSH1 0xA0 SHL SUB SWAP1 SLOAD AND SWAP4 PUSH0 MSTORE PUSH1 0x2C PUSH1 0x20 MSTORE PUSH1 0x1 DUP1 PUSH1 0xA0 SHL SUB PUSH1 0x40 PUSH0 KECCAK256 SLOAD AND SWAP5 PUSH1 0x40 MLOAD SWAP2 DUP3 MSTORE PUSH1 0x20 DUP3 ADD MSTORE PUSH1 0x1 PUSH1 0x40 DUP3 ADD MSTORE LOG3 JUMP JUMPDEST PUSH2 0x2880 SWAP1 PUSH1 0x20 RETURNDATASIZE PUSH1 0x20 GT PUSH2 0x745 JUMPI PUSH2 0x738 DUP2 DUP4 PUSH2 0x1C9E JUMP JUMPDEST PUSH2 0x27CE JUMP JUMPDEST PUSH1 0x2 PUSH1 0x7 DUP3 ADD SLOAD LT ISZERO PUSH2 0x2774 JUMPI JUMPDEST POP SWAP2 POP POP PUSH2 0x1FF1 SWAP2 POP PUSH2 0x250A JUMP JUMPDEST SWAP2 POP POP PUSH2 0x1FF1 SWAP2 POP PUSH2 0x250A JUMP JUMPDEST POP PUSH1 0x5 SLOAD DUP3 EQ PUSH2 0x275B JUMP JUMPDEST PUSH0 NOT DUP2 EQ PUSH2 0x56B JUMPI PUSH1 0x1 ADD SWAP1 JUMP JUMPDEST SWAP4 SWAP2 SWAP4 SWAP3 SWAP1 SWAP3 PUSH1 0x1 SWAP1 PUSH1 0x5 SLOAD DUP2 EQ DUP1 ISZERO PUSH2 0x2AAD JUMPI JUMPDEST PUSH2 0x2A48 JUMPI SWAP1 JUMPDEST DUP3 DUP2 LT PUSH2 0x2A6C JUMPI POP SWAP3 PUSH0 SWAP4 JUMPDEST DUP1 ISZERO ISZERO DUP1 PUSH2 0x2A60 JUMPI JUMPDEST DUP1 PUSH2 0x2A56 JUMPI JUMPDEST ISZERO PUSH2 0x2A48 JUMPI DUP1 PUSH0 MSTORE PUSH1 0x2C PUSH1 0x20 MSTORE PUSH1 0x40 PUSH0 KECCAK256 SWAP1 DUP4 PUSH1 0x6 DUP4 ADD SLOAD LT ISZERO PUSH2 0x2930 JUMPI POP PUSH1 0x5 PUSH2 0x292A SWAP2 ADD SLOAD SWAP5 PUSH2 0x28B9 JUMP JUMPDEST SWAP4 PUSH2 0x28EE JUMP JUMPDEST PUSH0 DUP1 SLOAD DUP4 SLOAD PUSH1 0x40 MLOAD PUSH4 0xA9059CBB PUSH1 0xE0 SHL DUP2 MSTORE PUSH1 0x1 PUSH1 0x1 PUSH1 0xA0 SHL SUB SWAP2 DUP3 AND PUSH1 0x4 DUP3 ADD MSTORE PUSH1 0x24 DUP2 ADD DUP12 SWAP1 MSTORE SWAP8 SWAP10 SWAP7 SWAP9 POP SWAP5 SWAP7 SWAP6 SWAP3 SWAP5 SWAP3 SWAP4 SWAP3 PUSH1 0x20 SWAP3 DUP8 SWAP3 PUSH1 0x44 SWAP3 DUP5 SWAP3 SWAP2 AND GAS CALL SWAP3 DUP4 ISZERO PUSH2 0x74C JUMPI PUSH0 MLOAD PUSH1 0x20 PUSH2 0x31F7 PUSH0 CODECOPY PUSH0 MLOAD SWAP1 PUSH0 MSTORE SWAP5 PUSH1 0x60 SWAP5 PUSH2 0x2A2C JUMPI JUMPDEST POP DUP1 PUSH0 MSTORE PUSH1 0x2D PUSH1 0x20 MSTORE PUSH1 0x2 PUSH1 0x40 PUSH0 KECCAK256 PUSH2 0x29AC DUP6 DUP3 SLOAD PUSH2 0x1C59 JUMP JUMPDEST DUP2 SSTORE ADD PUSH2 0x29BA DUP5 DUP3 SLOAD PUSH2 0x1C59 JUMP JUMPDEST SWAP1 SSTORE PUSH0 MSTORE PUSH1 0x2E PUSH1 0x20 MSTORE PUSH2 0x29F7 PUSH1 0x40 PUSH0 KECCAK256 PUSH1 0x40 MLOAD SWAP1 PUSH2 0x29D7 DUP3 PUSH2 0x1C82 JUMP JUMPDEST DUP8 DUP3 MSTORE DUP5 PUSH1 0x20 DUP4 ADD MSTORE DUP9 PUSH1 0x40 DUP4 ADD MSTORE TIMESTAMP DUP7 DUP4 ADD MSTORE PUSH1 0x2 PUSH1 0x80 DUP4 ADD MSTORE PUSH2 0x1F9F JUMP JUMPDEST PUSH1 0x1 DUP1 PUSH1 0xA0 SHL SUB SWAP1 SLOAD AND SWAP4 PUSH0 MSTORE PUSH1 0x2C PUSH1 0x20 MSTORE PUSH1 0x1 DUP1 PUSH1 0xA0 SHL SUB PUSH1 0x40 PUSH0 KECCAK256 SLOAD AND SWAP5 PUSH1 0x40 MLOAD SWAP2 DUP3 MSTORE PUSH1 0x20 DUP3 ADD MSTORE PUSH1 0x2 PUSH1 0x40 DUP3 ADD MSTORE LOG3 JUMP JUMPDEST PUSH2 0x2A43 SWAP1 PUSH1 0x20 RETURNDATASIZE DUP2 GT PUSH2 0x745 JUMPI PUSH2 0x738 DUP2 DUP4 PUSH2 0x1C9E JUMP JUMPDEST PUSH2 0x2992 JUMP JUMPDEST POP POP POP SWAP2 PUSH2 0x1FF1 SWAP2 POP PUSH2 0x250A JUMP JUMPDEST POP PUSH1 0xF DUP6 LT PUSH2 0x28FD JUMP JUMPDEST POP PUSH1 0x5 SLOAD DUP2 EQ ISZERO PUSH2 0x28F7 JUMP JUMPDEST PUSH2 0x2A75 SWAP1 PUSH2 0x28B9 JUMP JUMPDEST SWAP1 PUSH0 MSTORE PUSH1 0x2C PUSH1 0x20 MSTORE PUSH1 0x5 PUSH1 0x40 PUSH0 KECCAK256 ADD SLOAD SWAP1 PUSH1 0x5 SLOAD DUP3 EQ DUP1 ISZERO PUSH2 0x2AA5 JUMPI JUMPDEST ISZERO PUSH2 0x28E2 JUMPI POP POP POP SWAP2 PUSH2 0x1FF1 SWAP2 POP PUSH2 0x250A JUMP JUMPDEST POP DUP2 ISZERO PUSH2 0x2A92 JUMP JUMPDEST POP DUP1 ISZERO PUSH2 0x28DC JUMP JUMPDEST SWAP4 SWAP2 SWAP1 SWAP3 SWAP4 DUP1 ISZERO DUP1 ISZERO PUSH2 0x2CD3 JUMPI JUMPDEST PUSH2 0x2893 JUMPI DUP3 ISZERO PUSH2 0x2893 JUMPI PUSH2 0x2AEB PUSH2 0x2ADA DUP5 DUP5 PUSH2 0x1D17 JUMP JUMPDEST SWAP3 PUSH2 0x2AE5 DUP6 DUP6 PUSH2 0x1E2E JUMP JUMPDEST SWAP1 PUSH2 0x1C4C JUMP JUMPDEST SWAP5 PUSH1 0x1 SWAP2 SWAP5 PUSH0 JUMPDEST DUP6 DUP2 LT PUSH2 0x2B08 JUMPI POP POP POP POP POP POP POP DUP1 PUSH2 0x24F9 JUMPI POP JUMP JUMPDEST DUP7 ISZERO ISZERO DUP1 PUSH2 0x2CC7 JUMPI JUMPDEST PUSH2 0x2B46 JUMPI JUMPDEST PUSH1 0x1 SWAP1 DUP8 ISZERO DUP1 ISZERO PUSH2 0x2B3B JUMPI JUMPDEST PUSH2 0x2B2D JUMPI JUMPDEST ADD PUSH2 0x2AF2 JUMP JUMPDEST PUSH2 0x2B36 DUP7 PUSH2 0x250A JUMP JUMPDEST PUSH2 0x2B27 JUMP JUMPDEST POP PUSH1 0x5 SLOAD DUP9 EQ PUSH2 0x2B22 JUMP JUMPDEST SWAP3 DUP7 PUSH0 SWAP8 SWAP3 SWAP8 MSTORE PUSH1 0x2C PUSH1 0x20 MSTORE DUP3 PUSH1 0x6 PUSH1 0x40 PUSH0 KECCAK256 ADD SLOAD LT ISZERO PUSH0 EQ PUSH2 0x2CA5 JUMPI PUSH0 JUMPDEST DUP2 DUP2 LT PUSH2 0x2B8A JUMPI POP POP PUSH0 MSTORE PUSH1 0x2C PUSH1 0x20 MSTORE PUSH1 0x5 PUSH1 0x40 PUSH0 KECCAK256 ADD SLOAD SWAP5 PUSH1 0x1 DUP1 SWAP4 JUMPDEST SWAP1 POP PUSH2 0x2B16 JUMP JUMPDEST PUSH0 DUP4 DUP2 MSTORE PUSH1 0x2C PUSH1 0x20 SWAP1 DUP2 MSTORE PUSH1 0x40 DUP1 DUP4 KECCAK256 SLOAD DUP4 SLOAD SWAP2 MLOAD PUSH4 0xA9059CBB PUSH1 0xE0 SHL DUP2 MSTORE PUSH1 0x1 PUSH1 0x1 PUSH1 0xA0 SHL SUB SWAP2 DUP3 AND PUSH1 0x4 DUP3 ADD DUP2 SWAP1 MSTORE PUSH1 0x24 DUP3 ADD DUP13 SWAP1 MSTORE SWAP1 SWAP6 SWAP5 SWAP1 SWAP4 SWAP3 DUP7 SWAP3 PUSH1 0x44 SWAP3 DUP5 SWAP3 SWAP1 SWAP2 AND GAS CALL SWAP3 DUP4 ISZERO PUSH2 0x74C JUMPI PUSH1 0x1 SWAP4 PUSH2 0x2C89 JUMPI JUMPDEST POP DUP5 PUSH0 MSTORE PUSH1 0x2D PUSH1 0x20 MSTORE PUSH1 0x3 PUSH1 0x40 PUSH0 KECCAK256 PUSH2 0x2BFD DUP11 DUP3 SLOAD PUSH2 0x1C59 JUMP JUMPDEST DUP2 SSTORE ADD PUSH2 0x2C0B DUP10 DUP3 SLOAD PUSH2 0x1C59 JUMP JUMPDEST SWAP1 SSTORE DUP5 PUSH0 MSTORE PUSH1 0x2E PUSH1 0x20 MSTORE PUSH2 0x2C4A PUSH1 0x40 PUSH0 KECCAK256 PUSH1 0x40 MLOAD SWAP1 PUSH2 0x2C29 DUP3 PUSH2 0x1C82 JUMP JUMPDEST DUP13 DUP3 MSTORE DUP11 PUSH1 0x20 DUP4 ADD MSTORE DUP9 PUSH1 0x40 DUP4 ADD MSTORE TIMESTAMP PUSH1 0x60 DUP4 ADD MSTORE PUSH1 0x4 PUSH1 0x80 DUP4 ADD MSTORE PUSH2 0x1F9F JUMP JUMPDEST DUP10 PUSH0 MSTORE PUSH1 0x2C PUSH1 0x20 MSTORE DUP3 DUP1 PUSH1 0xA0 SHL SUB PUSH1 0x40 PUSH0 KECCAK256 SLOAD AND SWAP1 PUSH0 MLOAD PUSH1 0x20 PUSH2 0x31F7 PUSH0 CODECOPY PUSH0 MLOAD SWAP1 PUSH0 MSTORE PUSH1 0x60 PUSH1 0x40 MLOAD DUP12 DUP2 MSTORE DUP10 PUSH1 0x20 DUP3 ADD MSTORE PUSH1 0x4 PUSH1 0x40 DUP3 ADD MSTORE LOG3 ADD PUSH2 0x2B65 JUMP JUMPDEST PUSH2 0x2CA0 SWAP1 PUSH1 0x20 RETURNDATASIZE DUP2 GT PUSH2 0x745 JUMPI PUSH2 0x738 DUP2 DUP4 PUSH2 0x1C9E JUMP JUMPDEST PUSH2 0x2BE3 JUMP JUMPDEST SWAP6 SWAP1 PUSH0 MSTORE PUSH1 0x2C PUSH1 0x20 MSTORE PUSH1 0x1 PUSH2 0x2CC1 PUSH1 0x5 PUSH1 0x40 PUSH0 KECCAK256 ADD SLOAD SWAP8 PUSH2 0x28B9 JUMP JUMPDEST SWAP4 PUSH2 0x2B83 JUMP JUMPDEST POP PUSH1 0x5 SLOAD DUP8 EQ ISZERO PUSH2 0x2B11 JUMP JUMPDEST POP PUSH1 0x5 SLOAD DUP2 EQ PUSH2 0x2AC3 JUMP JUMPDEST PUSH2 0x2CEB PUSH1 0x9 SLOAD DUP3 LT PUSH2 0x2246 JUMP JUMPDEST PUSH2 0x2CF7 PUSH2 0x22EA DUP3 PUSH2 0x1B22 JUMP JUMPDEST DUP1 PUSH0 MSTORE PUSH1 0x29 PUSH1 0x20 MSTORE PUSH1 0x40 PUSH0 KECCAK256 PUSH1 0x40 MLOAD DUP1 DUP3 PUSH1 0x20 DUP3 SWAP5 SLOAD SWAP4 DUP5 DUP2 MSTORE ADD SWAP1 PUSH0 MSTORE PUSH1 0x20 PUSH0 KECCAK256 SWAP3 PUSH0 JUMPDEST DUP2 DUP2 LT PUSH2 0x2F76 JUMPI POP POP PUSH2 0x2D31 SWAP3 POP SUB DUP3 PUSH2 0x1C9E JUMP JUMPDEST DUP1 MLOAD SWAP1 DUP3 PUSH0 MSTORE PUSH1 0x29 PUSH1 0x20 MSTORE PUSH2 0x2D49 DUP5 PUSH1 0x40 PUSH0 KECCAK256 PUSH2 0x2212 JUMP JUMPDEST PUSH0 NOT DUP3 ADD SWAP2 DUP3 GT PUSH2 0x56B JUMPI PUSH1 0x3 PUSH2 0x2D61 SWAP3 DIV SWAP1 PUSH2 0x22BB JUMP JUMPDEST MLOAD SWAP1 PUSH1 0x40 MLOAD PUSH2 0x2D6F DUP2 PUSH2 0x1C66 JUMP JUMPDEST DUP4 DUP2 MSTORE PUSH1 0x3 PUSH1 0x20 DUP3 ADD DUP4 DUP2 MSTORE PUSH1 0x40 DUP4 ADD DUP6 DUP2 MSTORE PUSH1 0x60 DUP5 ADD SWAP2 PUSH0 DUP4 MSTORE DUP6 PUSH0 MSTORE PUSH1 0x27 PUSH1 0x20 MSTORE PUSH1 0x40 PUSH0 KECCAK256 DUP9 PUSH0 MSTORE PUSH1 0x20 MSTORE PUSH1 0x40 PUSH0 KECCAK256 SWAP5 MLOAD DUP6 SSTORE MLOAD PUSH1 0x1 DUP6 ADD SSTORE MLOAD PUSH1 0x2 DUP5 ADD SSTORE MLOAD SWAP2 ADD SSTORE DUP1 PUSH0 MSTORE PUSH1 0x28 PUSH1 0x20 MSTORE PUSH1 0x40 PUSH0 KECCAK256 DUP3 PUSH0 MSTORE PUSH1 0x20 MSTORE PUSH2 0x2DD3 DUP4 PUSH1 0x40 PUSH0 KECCAK256 PUSH2 0x2212 JUMP JUMPDEST DUP2 ISZERO DUP1 ISZERO PUSH2 0x2F6B JUMPI JUMPDEST PUSH2 0x2F5F JUMPI PUSH0 MSTORE PUSH1 0x27 PUSH1 0x20 MSTORE PUSH1 0x40 PUSH0 KECCAK256 DUP2 PUSH0 MSTORE PUSH1 0x20 MSTORE PUSH1 0x3 PUSH1 0x40 PUSH0 KECCAK256 ADD PUSH1 0x3 DUP2 SLOAD LT PUSH0 EQ PUSH2 0x2F5F JUMPI DUP1 SLOAD SWAP1 PUSH1 0x1 DUP3 ADD DUP1 SWAP3 GT PUSH2 0x56B JUMPI SSTORE DUP1 PUSH0 MSTORE PUSH1 0x2D PUSH1 0x20 MSTORE PUSH1 0x9 PUSH1 0x40 PUSH0 KECCAK256 PUSH2 0x2E2B DUP6 DUP3 SLOAD PUSH2 0x1C59 JUMP JUMPDEST DUP2 SSTORE ADD PUSH2 0x2E39 DUP5 DUP3 SLOAD PUSH2 0x1C59 JUMP JUMPDEST SWAP1 SSTORE DUP1 PUSH0 MSTORE PUSH1 0x2E PUSH1 0x20 MSTORE PUSH2 0x2E79 PUSH1 0x40 PUSH0 KECCAK256 PUSH1 0x40 MLOAD SWAP1 PUSH2 0x2E57 DUP3 PUSH2 0x1C82 JUMP JUMPDEST DUP5 DUP3 MSTORE DUP6 PUSH1 0x20 DUP4 ADD MSTORE PUSH1 0x1 PUSH1 0x40 DUP4 ADD MSTORE TIMESTAMP PUSH1 0x60 DUP4 ADD MSTORE PUSH1 0xB PUSH1 0x80 DUP4 ADD MSTORE PUSH2 0x1F9F JUMP JUMPDEST PUSH0 SWAP1 DUP2 MSTORE PUSH1 0x2C PUSH1 0x20 MSTORE PUSH1 0x40 SWAP1 KECCAK256 SLOAD PUSH1 0x1 PUSH1 0x1 PUSH1 0xA0 SHL SUB AND SWAP1 DUP3 ISZERO PUSH1 0x5F DUP5 DUP2 MUL SWAP1 DUP6 DUP3 DIV EQ DUP3 OR ISZERO PUSH2 0x56B JUMPI PUSH0 DUP1 SLOAD PUSH1 0x40 MLOAD PUSH4 0xA9059CBB PUSH1 0xE0 SHL DUP2 MSTORE PUSH1 0x1 PUSH1 0x1 PUSH1 0xA0 SHL SUB DUP8 DUP2 AND PUSH1 0x4 DUP4 ADD MSTORE PUSH1 0x64 SWAP1 SWAP5 DIV PUSH1 0x24 DUP3 ADD MSTORE SWAP3 PUSH1 0x20 SWAP3 DUP5 SWAP3 PUSH1 0x44 SWAP3 DUP5 SWAP3 SWAP2 AND GAS CALL DUP1 ISZERO PUSH2 0x74C JUMPI PUSH2 0x2F42 JUMPI JUMPDEST POP PUSH1 0x5 DUP5 MUL SWAP1 DUP5 DUP3 DIV PUSH1 0x5 EQ OR ISZERO PUSH2 0x56B JUMPI PUSH1 0x64 PUSH2 0x2F06 SWAP2 DIV PUSH2 0x250A JUMP JUMPDEST PUSH0 MSTORE PUSH1 0x2C PUSH1 0x20 MSTORE PUSH0 MLOAD PUSH1 0x20 PUSH2 0x31F7 PUSH0 CODECOPY PUSH0 MLOAD SWAP1 PUSH0 MSTORE PUSH1 0x60 PUSH1 0x1 DUP1 PUSH1 0xA0 SHL SUB PUSH1 0x40 PUSH0 KECCAK256 SLOAD AND SWAP4 PUSH1 0x40 MLOAD SWAP1 DUP2 MSTORE PUSH1 0x1 PUSH1 0x20 DUP3 ADD MSTORE PUSH1 0xB PUSH1 0x40 DUP3 ADD MSTORE LOG3 JUMP JUMPDEST PUSH2 0x2F5A SWAP1 PUSH1 0x20 RETURNDATASIZE PUSH1 0x20 GT PUSH2 0x745 JUMPI PUSH2 0x738 DUP2 DUP4 PUSH2 0x1C9E JUMP JUMPDEST PUSH2 0x2EE8 JUMP JUMPDEST POP POP POP PUSH2 0x1FF1 SWAP1 PUSH2 0x250A JUMP JUMPDEST POP PUSH1 0x5 SLOAD DUP3 EQ PUSH2 0x2DDC JUMP JUMPDEST DUP5 SLOAD DUP4 MSTORE PUSH1 0x1 SWAP5 DUP6 ADD SWAP5 DUP7 SWAP5 POP PUSH1 0x20 SWAP1 SWAP4 ADD SWAP3 ADD PUSH2 0x2D1C JUMP JUMPDEST SWAP2 SWAP3 DUP3 ISZERO DUP1 ISZERO PUSH2 0x31EB JUMPI JUMPDEST PUSH2 0x28A1 JUMPI PUSH1 0x3 SWAP1 DIV SWAP1 PUSH0 JUMPDEST PUSH1 0x3 DUP2 LT PUSH2 0x2FB4 JUMPI POP POP POP POP POP JUMP JUMPDEST DUP2 PUSH0 MSTORE PUSH1 0x22 PUSH1 0x20 MSTORE PUSH1 0x40 PUSH0 KECCAK256 DUP5 PUSH0 MSTORE PUSH1 0x20 MSTORE PUSH1 0x40 PUSH0 KECCAK256 SWAP1 PUSH1 0x4 PUSH1 0x1 DUP4 ADD SLOAD SWAP3 ADD SWAP2 DUP3 SLOAD PUSH1 0x27 DUP2 LT PUSH2 0x2FEC JUMPI JUMPDEST POP POP PUSH1 0x1 SWAP2 POP ADD PUSH2 0x2FA5 JUMP JUMPDEST PUSH1 0x18 DUP2 LT PUSH2 0x308E JUMPI JUMPDEST POP DUP3 SLOAD PUSH1 0x18 DUP2 LT ISZERO DUP1 PUSH2 0x3084 JUMPI JUMPDEST PUSH2 0x304E JUMPI JUMPDEST POP DUP3 SLOAD PUSH1 0x24 DUP2 LT PUSH2 0x2FE0 JUMPI PUSH1 0x1 DUP2 ADD DUP1 SWAP2 GT PUSH2 0x56B JUMPI PUSH1 0x1 SWAP4 SSTORE DUP4 PUSH0 MSTORE PUSH1 0x21 PUSH1 0x20 MSTORE PUSH1 0x40 PUSH0 KECCAK256 SWAP1 PUSH0 MSTORE PUSH1 0x20 MSTORE DUP2 PUSH1 0x40 PUSH0 KECCAK256 ADD PUSH2 0x3045 DUP6 DUP3 SLOAD PUSH2 0x1C59 JUMP JUMPDEST SWAP1 SSTORE PUSH0 DUP1 PUSH2 0x2FE0 JUMP JUMPDEST PUSH1 0x1 DUP2 ADD DUP1 SWAP2 GT PUSH2 0x56B JUMPI DUP4 SSTORE DUP4 PUSH0 MSTORE PUSH1 0x21 PUSH1 0x20 MSTORE PUSH1 0x40 PUSH0 KECCAK256 DUP2 PUSH0 MSTORE PUSH1 0x20 MSTORE PUSH1 0x40 PUSH0 KECCAK256 PUSH2 0x307C DUP7 DUP3 SLOAD PUSH2 0x1C59 JUMP JUMPDEST SWAP1 SSTORE PUSH0 PUSH2 0x3008 JUMP JUMPDEST POP PUSH1 0x24 DUP2 LT PUSH2 0x3003 JUMP JUMPDEST PUSH1 0x1 DUP2 ADD DUP1 SWAP2 GT PUSH2 0x56B JUMPI DUP4 SSTORE DUP1 PUSH0 MSTORE PUSH1 0x2D PUSH1 0x20 MSTORE PUSH1 0x8 PUSH1 0x40 PUSH0 KECCAK256 PUSH2 0x30B4 DUP8 DUP3 SLOAD PUSH2 0x1C59 JUMP JUMPDEST DUP2 SSTORE ADD PUSH2 0x30C2 DUP7 DUP3 SLOAD PUSH2 0x1C59 JUMP JUMPDEST SWAP1 SSTORE DUP1 PUSH0 MSTORE PUSH1 0x2E PUSH1 0x20 MSTORE PUSH2 0x3102 PUSH1 0x40 PUSH0 KECCAK256 PUSH1 0x40 MLOAD SWAP1 PUSH2 0x30E0 DUP3 PUSH2 0x1C82 JUMP JUMPDEST DUP10 DUP3 MSTORE DUP8 PUSH1 0x20 DUP4 ADD MSTORE PUSH1 0x1 PUSH1 0x40 DUP4 ADD MSTORE TIMESTAMP PUSH1 0x60 DUP4 ADD MSTORE PUSH1 0xA PUSH1 0x80 DUP4 ADD MSTORE PUSH2 0x1F9F JUMP JUMPDEST PUSH0 DUP2 DUP2 MSTORE PUSH1 0x2C PUSH1 0x20 MSTORE PUSH1 0x40 SWAP1 KECCAK256 SLOAD PUSH1 0x1 PUSH1 0x1 PUSH1 0xA0 SHL SUB AND DUP6 ISZERO PUSH1 0x5F DUP8 DUP2 MUL SWAP1 DUP9 DUP3 DIV EQ DUP3 OR ISZERO PUSH2 0x56B JUMPI PUSH0 DUP1 SLOAD PUSH1 0x40 MLOAD PUSH4 0xA9059CBB PUSH1 0xE0 SHL DUP2 MSTORE PUSH1 0x1 PUSH1 0x1 PUSH1 0xA0 SHL SUB DUP7 DUP2 AND PUSH1 0x4 DUP4 ADD MSTORE PUSH1 0x64 SWAP1 SWAP5 DIV PUSH1 0x24 DUP3 ADD MSTORE SWAP3 PUSH1 0x20 SWAP3 DUP5 SWAP3 PUSH1 0x44 SWAP3 DUP5 SWAP3 SWAP2 AND GAS CALL DUP1 ISZERO PUSH2 0x74C JUMPI PUSH2 0x31CF JUMPI JUMPDEST POP PUSH1 0x5 DUP8 MUL SWAP1 DUP8 DUP3 DIV PUSH1 0x5 EQ OR ISZERO PUSH2 0x56B JUMPI PUSH1 0x64 PUSH2 0x318E SWAP2 DIV PUSH2 0x250A JUMP JUMPDEST DUP8 PUSH0 MSTORE PUSH1 0x2C PUSH1 0x20 MSTORE PUSH1 0x1 DUP1 PUSH1 0xA0 SHL SUB PUSH1 0x40 PUSH0 KECCAK256 SLOAD AND SWAP1 PUSH0 MLOAD PUSH1 0x20 PUSH2 0x31F7 PUSH0 CODECOPY PUSH0 MLOAD SWAP1 PUSH0 MSTORE PUSH1 0x60 PUSH1 0x40 MLOAD DUP10 DUP2 MSTORE PUSH1 0x1 PUSH1 0x20 DUP3 ADD MSTORE PUSH1 0xA PUSH1 0x40 DUP3 ADD MSTORE LOG3 PUSH0 PUSH2 0x2FF5 JUMP JUMPDEST PUSH2 0x31E6 SWAP1 PUSH1 0x20 RETURNDATASIZE DUP2 GT PUSH2 0x745 JUMPI PUSH2 0x738 DUP2 DUP4 PUSH2 0x1C9E JUMP JUMPDEST PUSH2 0x3170 JUMP JUMPDEST POP PUSH1 0x5 SLOAD DUP4 EQ PUSH2 0x2F9A JUMP INVALID RJUMPI 0x7B61 0xD3 0x24 0xCE OR ORIGIN DUP16 NUMBER RETURNDATASIZE EXP 0xB6 0x25 DUP2 0xC0 CREATE 0xAA SWAP10 PUSH20 0x12BAE80FBDFCD2AA9B91D6E3BABB6A363FD9A057 SWAP10 PUSH14 0x9882C0B74B710D121707D19EEFF 0xD9 SHR MLOAD 0xC3 OR BYTE PUSH29 0x91A26469706673582212208F9D5330DCCFCDADA3C29C4F5F7401E088F9 SAR 0xDB PUSH29 0x6AA6734E31E37B5E78C21C64736F6C634300081E0033A66CC928B5EDB8 0x2A EXTDELEGATECALL 0xBD BLOBHASH SWAP3 0x29 SLOAD ISZERO GAS 0xB7 0xB0 SWAP5 0x26 SWAP5 0xBE LOG4 0xCE PREVRANDAO PUSH7 0x1D9A8736C688F3 0xF7 0xA9 INVALID CALLDATASIZE 0x4F 0xAA 0xB9 EXTCODESIZE 0x21 PUSH14 0xA50A3214154F22A0A2B415B23A84 0xC8 AND SWAP15 DUP12 PUSH4 0x6EE36E15 BLOCKHASH OR SHL PUSH13 0xC960B71A7020D9F60077F6AF9 BALANCE 0xA8 0xBB CREATE2 SWAP1 0xDA MUL 0x23 0xDA 0xCF PUSH22 0xC7AF0000000000000000000000000000000000000000 "
		},
		"gasEstimates": {
			"creation": {
				"codeDepositCost": "2581600",
				"executionCost": "infinite",
				"totalCost": "infinite"
			},
			"external": {
				"ACC_PRECISION()": "395",
				"GlbBoosterPackages(uint256)": "7382",
				"PERCENTS_DIVIDER()": "175",
				"ROI_CAP_DIVIDER()": "571",
				"ROI_CAP_MULTIPLIER()": "439",
				"RetopPoolByEarning(uint32,uint256)": "infinite",
				"TIME_STEP()": "373",
				"addressToId(address)": "3313",
				"boosterUsers(uint256,uint256)": "7639",
				"canBuyNextPool(uint256)": "9573",
				"claimCommunity(uint256)": "infinite",
				"communityAccPerUser()": "2784",
				"communityDebt(uint256)": "2409",
				"creatorWallet()": "2830",
				"defaultRefId()": "3312",
				"directReferrals(uint256,uint256)": "7177",
				"incomeHistory(uint256,uint256)": "15754",
				"lastLotteryRun()": "2248",
				"lastLotteryWinner()": "2852",
				"lotteryInterval()": "2652",
				"lotteryPool()": "2432",
				"matrixDirect(uint256)": "2915",
				"minLevelForGlbBooster(uint256)": "3284",
				"minLevelForPool(uint256)": "2426",
				"minPoolForGlbBooster(uint256)": "3020",
				"owner()": "2918",
				"packages(uint256)": "7514",
				"pendingCommunity(uint256)": "infinite",
				"poolPackages(uint256)": "7404",
				"poolUsers(uint256,uint256)": "6781",
				"register(uint256)": "infinite",
				"registeredUserIds(uint256)": "6835",
				"systemMaintance()": "3314",
				"teamDevelopment()": "3377",
				"teams(uint256,uint256,uint256)": "7225",
				"totalUsers()": "3136",
				"upgrade(uint256)": "infinite",
				"upgradeBooster(uint256)": "infinite",
				"upgradePool(uint256)": "infinite",
				"upgradePoolByEarning(uint32,uint256)": "infinite",
				"usdt()": "2477",
				"userBoosterChildren(uint256,uint256,uint256)": "6829",
				"userBoosterdtl(uint256,uint256)": "9512",
				"userChildren(uint256,uint256,uint256)": "7467",
				"userHasPool(uint256,uint256)": "3272",
				"userHasbooster(uint256,uint256)": "3184",
				"userIdPerPool(uint256,uint256,uint256)": "7401",
				"userIncomes(uint256)": "21832",
				"userPooldtl(uint256,uint256)": "11957",
				"userPooltopup(uint256,uint256)": "5409",
				"users(uint256)": "32372"
			},
			"internal": {
				"_accrueCommunityBonus(uint256)": "infinite",
				"_applyGlobalCapping(uint256,uint256)": "6721",
				"_distributeBoosterlIncome(uint256,uint256,uint256,uint256)": "infinite",
				"_distributeLevelBoosterIncome(uint256,uint256,uint256,uint256,uint256)": "infinite",
				"_distributeLevelIncome(uint256,uint256,uint256,uint256,uint256)": "infinite",
				"_distributeMatrixIncome(uint256,uint256,uint256,uint256)": "infinite",
				"_distributePoolIncome(uint256,uint256,uint256,uint256)": "infinite",
				"_distributeSponsorIncome(uint256,uint256,uint256,uint256)": "infinite",
				"_findEligibleSponsor(uint256,uint256)": "infinite",
				"_payLevelBooster(uint256,uint256,uint256,uint256)": "infinite",
				"_payPoolIncome(uint256,uint256,uint256,uint256,uint256)": "infinite",
				"_placeInBooster(uint256,uint256,uint256)": "infinite",
				"_placeInMatrix(uint256,uint256)": "infinite",
				"_placeInPool(uint256,uint256,uint256)": "infinite",
				"_sendToCreator(uint256)": "infinite"
			}
		},
		"methodIdentifiers": {
			"ACC_PRECISION()": "32fcd966",
			"GlbBoosterPackages(uint256)": "9e234631",
			"PERCENTS_DIVIDER()": "01c234a8",
			"ROI_CAP_DIVIDER()": "58c7d352",
			"ROI_CAP_MULTIPLIER()": "375b43b4",
			"RetopPoolByEarning(uint32,uint256)": "1f6ab899",
			"TIME_STEP()": "32bc298c",
			"addressToId(address)": "cb0e0d7d",
			"boosterUsers(uint256,uint256)": "c7bb62e8",
			"canBuyNextPool(uint256)": "67d52d4d",
			"claimCommunity(uint256)": "d54d6ddb",
			"communityAccPerUser()": "78f6ad6d",
			"communityDebt(uint256)": "18ab487f",
			"creatorWallet()": "7cdc65f2",
			"defaultRefId()": "ec597e6f",
			"directReferrals(uint256,uint256)": "5ec64a44",
			"incomeHistory(uint256,uint256)": "70c8d770",
			"lastLotteryRun()": "01be02b2",
			"lastLotteryWinner()": "81a0b816",
			"lotteryInterval()": "52a8c4c4",
			"lotteryPool()": "2c831633",
			"matrixDirect(uint256)": "88afbe3e",
			"minLevelForGlbBooster(uint256)": "d0a2fd79",
			"minLevelForPool(uint256)": "2132d204",
			"minPoolForGlbBooster(uint256)": "956a3228",
			"owner()": "8da5cb5b",
			"packages(uint256)": "c216212a",
			"pendingCommunity(uint256)": "24513088",
			"poolPackages(uint256)": "ae4708dc",
			"poolUsers(uint256,uint256)": "0f2b7cc9",
			"register(uint256)": "f207564e",
			"registeredUserIds(uint256)": "39ab3603",
			"systemMaintance()": "e9e34a16",
			"teamDevelopment()": "f5d74d93",
			"teams(uint256,uint256,uint256)": "5aabf7f1",
			"totalUsers()": "bff1f9e1",
			"upgrade(uint256)": "45977d03",
			"upgradeBooster(uint256)": "bc1fa7c0",
			"upgradePool(uint256)": "4060160a",
			"upgradePoolByEarning(uint32,uint256)": "8e222e24",
			"usdt()": "2f48ab7d",
			"userBoosterChildren(uint256,uint256,uint256)": "0ef81b74",
			"userBoosterdtl(uint256,uint256)": "907c84a7",
			"userChildren(uint256,uint256,uint256)": "8f030ece",
			"userHasPool(uint256,uint256)": "bd1aae40",
			"userHasbooster(uint256,uint256)": "9c383486",
			"userIdPerPool(uint256,uint256,uint256)": "8d58644c",
			"userIncomes(uint256)": "46b9dece",
			"userPooldtl(uint256,uint256)": "ce79c2c3",
			"userPooltopup(uint256,uint256)": "bf724672",
			"users(uint256)": "365b98b2"
		}
	},
	"abi": [
		{
			"inputs": [
				{
					"internalType": "address",
					"name": "_usdt",
					"type": "address"
				},
				{
					"internalType": "address",
					"name": "_creatorWallet",
					"type": "address"
				},
				{
					"internalType": "address",
					"name": "_systemMaintance",
					"type": "address"
				},
				{
					"internalType": "address",
					"name": "_teamDevelopment",
					"type": "address"
				}
			],
			"stateMutability": "nonpayable",
			"type": "constructor"
		},
		{
			"anonymous": false,
			"inputs": [
				{
					"indexed": false,
					"internalType": "uint256",
					"name": "amount",
					"type": "uint256"
				},
				{
					"indexed": false,
					"internalType": "uint256",
					"name": "usersCount",
					"type": "uint256"
				},
				{
					"indexed": false,
					"internalType": "uint256",
					"name": "perUser",
					"type": "uint256"
				}
			],
			"name": "CommunityBonusDistributed",
			"type": "event"
		},
		{
			"anonymous": false,
			"inputs": [
				{
					"indexed": true,
					"internalType": "address",
					"name": "to",
					"type": "address"
				},
				{
					"indexed": true,
					"internalType": "address",
					"name": "from",
					"type": "address"
				},
				{
					"indexed": false,
					"internalType": "uint256",
					"name": "amount",
					"type": "uint256"
				},
				{
					"indexed": false,
					"internalType": "uint256",
					"name": "packageLevel",
					"type": "uint256"
				},
				{
					"indexed": false,
					"internalType": "uint256",
					"name": "incomeType",
					"type": "uint256"
				}
			],
			"name": "IncomeDistributed",
			"type": "event"
		},
		{
			"anonymous": false,
			"inputs": [
				{
					"indexed": true,
					"internalType": "address",
					"name": "winner",
					"type": "address"
				},
				{
					"indexed": true,
					"internalType": "uint256",
					"name": "fromUserId",
					"type": "uint256"
				},
				{
					"indexed": false,
					"internalType": "uint256",
					"name": "amount",
					"type": "uint256"
				},
				{
					"indexed": false,
					"internalType": "uint256",
					"name": "timestamp",
					"type": "uint256"
				}
			],
			"name": "LotteryReward",
			"type": "event"
		},
		{
			"anonymous": false,
			"inputs": [
				{
					"indexed": true,
					"internalType": "address",
					"name": "user",
					"type": "address"
				},
				{
					"indexed": true,
					"internalType": "address",
					"name": "sponsor",
					"type": "address"
				},
				{
					"indexed": true,
					"internalType": "uint256",
					"name": "userId",
					"type": "uint256"
				},
				{
					"indexed": false,
					"internalType": "uint256",
					"name": "uplineId",
					"type": "uint256"
				}
			],
			"name": "Registration",
			"type": "event"
		},
		{
			"anonymous": false,
			"inputs": [
				{
					"indexed": true,
					"internalType": "address",
					"name": "to",
					"type": "address"
				},
				{
					"indexed": false,
					"internalType": "uint256",
					"name": "amount",
					"type": "uint256"
				},
				{
					"indexed": false,
					"internalType": "string",
					"name": "level",
					"type": "string"
				}
			],
			"name": "RewardSent",
			"type": "event"
		},
		{
			"anonymous": false,
			"inputs": [
				{
					"indexed": true,
					"internalType": "address",
					"name": "user",
					"type": "address"
				},
				{
					"indexed": true,
					"internalType": "uint256",
					"name": "userId",
					"type": "uint256"
				},
				{
					"indexed": false,
					"internalType": "uint256",
					"name": "packageLevel",
					"type": "uint256"
				},
				{
					"indexed": false,
					"internalType": "string",
					"name": "depositType",
					"type": "string"
				}
			],
			"name": "Upgrade",
			"type": "event"
		},
		{
			"anonymous": false,
			"inputs": [
				{
					"indexed": true,
					"internalType": "uint8",
					"name": "matrixId",
					"type": "uint8"
				},
				{
					"indexed": true,
					"internalType": "uint32",
					"name": "userId",
					"type": "uint32"
				},
				{
					"indexed": true,
					"internalType": "address",
					"name": "user",
					"type": "address"
				},
				{
					"indexed": false,
					"internalType": "uint32",
					"name": "parentId",
					"type": "uint32"
				},
				{
					"indexed": false,
					"internalType": "address",
					"name": "parentAddr",
					"type": "address"
				},
				{
					"indexed": false,
					"internalType": "uint8",
					"name": "position",
					"type": "uint8"
				}
			],
			"name": "UserJoined",
			"type": "event"
		},
		{
			"inputs": [],
			"name": "ACC_PRECISION",
			"outputs": [
				{
					"internalType": "uint256",
					"name": "",
					"type": "uint256"
				}
			],
			"stateMutability": "view",
			"type": "function"
		},
		{
			"inputs": [
				{
					"internalType": "uint256",
					"name": "",
					"type": "uint256"
				}
			],
			"name": "GlbBoosterPackages",
			"outputs": [
				{
					"internalType": "uint256",
					"name": "",
					"type": "uint256"
				}
			],
			"stateMutability": "view",
			"type": "function"
		},
		{
			"inputs": [],
			"name": "PERCENTS_DIVIDER",
			"outputs": [
				{
					"internalType": "uint256",
					"name": "",
					"type": "uint256"
				}
			],
			"stateMutability": "view",
			"type": "function"
		},
		{
			"inputs": [],
			"name": "ROI_CAP_DIVIDER",
			"outputs": [
				{
					"internalType": "uint256",
					"name": "",
					"type": "uint256"
				}
			],
			"stateMutability": "view",
			"type": "function"
		},
		{
			"inputs": [],
			"name": "ROI_CAP_MULTIPLIER",
			"outputs": [
				{
					"internalType": "uint256",
					"name": "",
					"type": "uint256"
				}
			],
			"stateMutability": "view",
			"type": "function"
		},
		{
			"inputs": [
				{
					"internalType": "uint32",
					"name": "_userId",
					"type": "uint32"
				},
				{
					"internalType": "uint256",
					"name": "_poolId",
					"type": "uint256"
				}
			],
			"name": "RetopPoolByEarning",
			"outputs": [],
			"stateMutability": "nonpayable",
			"type": "function"
		},
		{
			"inputs": [],
			"name": "TIME_STEP",
			"outputs": [
				{
					"internalType": "uint256",
					"name": "",
					"type": "uint256"
				}
			],
			"stateMutability": "view",
			"type": "function"
		},
		{
			"inputs": [
				{
					"internalType": "address",
					"name": "",
					"type": "address"
				}
			],
			"name": "addressToId",
			"outputs": [
				{
					"internalType": "uint256",
					"name": "",
					"type": "uint256"
				}
			],
			"stateMutability": "view",
			"type": "function"
		},
		{
			"inputs": [
				{
					"internalType": "uint256",
					"name": "",
					"type": "uint256"
				},
				{
					"internalType": "uint256",
					"name": "",
					"type": "uint256"
				}
			],
			"name": "boosterUsers",
			"outputs": [
				{
					"internalType": "uint256",
					"name": "",
					"type": "uint256"
				}
			],
			"stateMutability": "view",
			"type": "function"
		},
		{
			"inputs": [
				{
					"internalType": "uint256",
					"name": "userId",
					"type": "uint256"
				}
			],
			"name": "canBuyNextPool",
			"outputs": [
				{
					"internalType": "bool",
					"name": "eligible",
					"type": "bool"
				},
				{
					"internalType": "string",
					"name": "reason",
					"type": "string"
				}
			],
			"stateMutability": "view",
			"type": "function"
		},
		{
			"inputs": [
				{
					"internalType": "uint256",
					"name": "_userId",
					"type": "uint256"
				}
			],
			"name": "claimCommunity",
			"outputs": [],
			"stateMutability": "nonpayable",
			"type": "function"
		},
		{
			"inputs": [],
			"name": "communityAccPerUser",
			"outputs": [
				{
					"internalType": "uint256",
					"name": "",
					"type": "uint256"
				}
			],
			"stateMutability": "view",
			"type": "function"
		},
		{
			"inputs": [
				{
					"internalType": "uint256",
					"name": "",
					"type": "uint256"
				}
			],
			"name": "communityDebt",
			"outputs": [
				{
					"internalType": "uint256",
					"name": "",
					"type": "uint256"
				}
			],
			"stateMutability": "view",
			"type": "function"
		},
		{
			"inputs": [],
			"name": "creatorWallet",
			"outputs": [
				{
					"internalType": "address",
					"name": "",
					"type": "address"
				}
			],
			"stateMutability": "view",
			"type": "function"
		},
		{
			"inputs": [],
			"name": "defaultRefId",
			"outputs": [
				{
					"internalType": "uint256",
					"name": "",
					"type": "uint256"
				}
			],
			"stateMutability": "view",
			"type": "function"
		},
		{
			"inputs": [
				{
					"internalType": "uint256",
					"name": "",
					"type": "uint256"
				},
				{
					"internalType": "uint256",
					"name": "",
					"type": "uint256"
				}
			],
			"name": "directReferrals",
			"outputs": [
				{
					"internalType": "uint256",
					"name": "",
					"type": "uint256"
				}
			],
			"stateMutability": "view",
			"type": "function"
		},
		{
			"inputs": [
				{
					"internalType": "uint256",
					"name": "",
					"type": "uint256"
				},
				{
					"internalType": "uint256",
					"name": "",
					"type": "uint256"
				}
			],
			"name": "incomeHistory",
			"outputs": [
				{
					"internalType": "uint256",
					"name": "fromUserId",
					"type": "uint256"
				},
				{
					"internalType": "uint256",
					"name": "amount",
					"type": "uint256"
				},
				{
					"internalType": "uint256",
					"name": "packageLevel",
					"type": "uint256"
				},
				{
					"internalType": "uint256",
					"name": "timestamp",
					"type": "uint256"
				},
				{
					"internalType": "uint256",
					"name": "incomeType",
					"type": "uint256"
				}
			],
			"stateMutability": "view",
			"type": "function"
		},
		{
			"inputs": [],
			"name": "lastLotteryRun",
			"outputs": [
				{
					"internalType": "uint256",
					"name": "",
					"type": "uint256"
				}
			],
			"stateMutability": "view",
			"type": "function"
		},
		{
			"inputs": [],
			"name": "lastLotteryWinner",
			"outputs": [
				{
					"internalType": "address",
					"name": "",
					"type": "address"
				}
			],
			"stateMutability": "view",
			"type": "function"
		},
		{
			"inputs": [],
			"name": "lotteryInterval",
			"outputs": [
				{
					"internalType": "uint256",
					"name": "",
					"type": "uint256"
				}
			],
			"stateMutability": "view",
			"type": "function"
		},
		{
			"inputs": [],
			"name": "lotteryPool",
			"outputs": [
				{
					"internalType": "uint256",
					"name": "",
					"type": "uint256"
				}
			],
			"stateMutability": "view",
			"type": "function"
		},
		{
			"inputs": [
				{
					"internalType": "uint256",
					"name": "",
					"type": "uint256"
				}
			],
			"name": "matrixDirect",
			"outputs": [
				{
					"internalType": "uint256",
					"name": "",
					"type": "uint256"
				}
			],
			"stateMutability": "view",
			"type": "function"
		},
		{
			"inputs": [
				{
					"internalType": "uint256",
					"name": "",
					"type": "uint256"
				}
			],
			"name": "minLevelForGlbBooster",
			"outputs": [
				{
					"internalType": "uint256",
					"name": "",
					"type": "uint256"
				}
			],
			"stateMutability": "view",
			"type": "function"
		},
		{
			"inputs": [
				{
					"internalType": "uint256",
					"name": "",
					"type": "uint256"
				}
			],
			"name": "minLevelForPool",
			"outputs": [
				{
					"internalType": "uint256",
					"name": "",
					"type": "uint256"
				}
			],
			"stateMutability": "view",
			"type": "function"
		},
		{
			"inputs": [
				{
					"internalType": "uint256",
					"name": "",
					"type": "uint256"
				}
			],
			"name": "minPoolForGlbBooster",
			"outputs": [
				{
					"internalType": "uint256",
					"name": "",
					"type": "uint256"
				}
			],
			"stateMutability": "view",
			"type": "function"
		},
		{
			"inputs": [],
			"name": "owner",
			"outputs": [
				{
					"internalType": "address",
					"name": "",
					"type": "address"
				}
			],
			"stateMutability": "view",
			"type": "function"
		},
		{
			"inputs": [
				{
					"internalType": "uint256",
					"name": "",
					"type": "uint256"
				}
			],
			"name": "packages",
			"outputs": [
				{
					"internalType": "uint256",
					"name": "",
					"type": "uint256"
				}
			],
			"stateMutability": "view",
			"type": "function"
		},
		{
			"inputs": [
				{
					"internalType": "uint256",
					"name": "_userId",
					"type": "uint256"
				}
			],
			"name": "pendingCommunity",
			"outputs": [
				{
					"internalType": "uint256",
					"name": "pendingGross",
					"type": "uint256"
				},
				{
					"internalType": "uint256",
					"name": "pendingAfterCap",
					"type": "uint256"
				}
			],
			"stateMutability": "view",
			"type": "function"
		},
		{
			"inputs": [
				{
					"internalType": "uint256",
					"name": "",
					"type": "uint256"
				}
			],
			"name": "poolPackages",
			"outputs": [
				{
					"internalType": "uint256",
					"name": "",
					"type": "uint256"
				}
			],
			"stateMutability": "view",
			"type": "function"
		},
		{
			"inputs": [
				{
					"internalType": "uint256",
					"name": "",
					"type": "uint256"
				},
				{
					"internalType": "uint256",
					"name": "",
					"type": "uint256"
				}
			],
			"name": "poolUsers",
			"outputs": [
				{
					"internalType": "uint256",
					"name": "",
					"type": "uint256"
				}
			],
			"stateMutability": "view",
			"type": "function"
		},
		{
			"inputs": [
				{
					"internalType": "uint256",
					"name": "_sponsorId",
					"type": "uint256"
				}
			],
			"name": "register",
			"outputs": [],
			"stateMutability": "nonpayable",
			"type": "function"
		},
		{
			"inputs": [
				{
					"internalType": "uint256",
					"name": "",
					"type": "uint256"
				}
			],
			"name": "registeredUserIds",
			"outputs": [
				{
					"internalType": "uint256",
					"name": "",
					"type": "uint256"
				}
			],
			"stateMutability": "view",
			"type": "function"
		},
		{
			"inputs": [],
			"name": "systemMaintance",
			"outputs": [
				{
					"internalType": "address",
					"name": "",
					"type": "address"
				}
			],
			"stateMutability": "view",
			"type": "function"
		},
		{
			"inputs": [],
			"name": "teamDevelopment",
			"outputs": [
				{
					"internalType": "address",
					"name": "",
					"type": "address"
				}
			],
			"stateMutability": "view",
			"type": "function"
		},
		{
			"inputs": [
				{
					"internalType": "uint256",
					"name": "",
					"type": "uint256"
				},
				{
					"internalType": "uint256",
					"name": "",
					"type": "uint256"
				},
				{
					"internalType": "uint256",
					"name": "",
					"type": "uint256"
				}
			],
			"name": "teams",
			"outputs": [
				{
					"internalType": "uint256",
					"name": "",
					"type": "uint256"
				}
			],
			"stateMutability": "view",
			"type": "function"
		},
		{
			"inputs": [],
			"name": "totalUsers",
			"outputs": [
				{
					"internalType": "uint256",
					"name": "",
					"type": "uint256"
				}
			],
			"stateMutability": "view",
			"type": "function"
		},
		{
			"inputs": [
				{
					"internalType": "uint256",
					"name": "_userId",
					"type": "uint256"
				}
			],
			"name": "upgrade",
			"outputs": [],
			"stateMutability": "nonpayable",
			"type": "function"
		},
		{
			"inputs": [
				{
					"internalType": "uint256",
					"name": "_userId",
					"type": "uint256"
				}
			],
			"name": "upgradeBooster",
			"outputs": [],
			"stateMutability": "nonpayable",
			"type": "function"
		},
		{
			"inputs": [
				{
					"internalType": "uint256",
					"name": "_userId",
					"type": "uint256"
				}
			],
			"name": "upgradePool",
			"outputs": [],
			"stateMutability": "nonpayable",
			"type": "function"
		},
		{
			"inputs": [
				{
					"internalType": "uint32",
					"name": "_userId",
					"type": "uint32"
				},
				{
					"internalType": "uint256",
					"name": "_poolId",
					"type": "uint256"
				}
			],
			"name": "upgradePoolByEarning",
			"outputs": [],
			"stateMutability": "nonpayable",
			"type": "function"
		},
		{
			"inputs": [],
			"name": "usdt",
			"outputs": [
				{
					"internalType": "contract IERC20",
					"name": "",
					"type": "address"
				}
			],
			"stateMutability": "view",
			"type": "function"
		},
		{
			"inputs": [
				{
					"internalType": "uint256",
					"name": "",
					"type": "uint256"
				},
				{
					"internalType": "uint256",
					"name": "",
					"type": "uint256"
				},
				{
					"internalType": "uint256",
					"name": "",
					"type": "uint256"
				}
			],
			"name": "userBoosterChildren",
			"outputs": [
				{
					"internalType": "uint256",
					"name": "",
					"type": "uint256"
				}
			],
			"stateMutability": "view",
			"type": "function"
		},
		{
			"inputs": [
				{
					"internalType": "uint256",
					"name": "",
					"type": "uint256"
				},
				{
					"internalType": "uint256",
					"name": "",
					"type": "uint256"
				}
			],
			"name": "userBoosterdtl",
			"outputs": [
				{
					"internalType": "uint256",
					"name": "id",
					"type": "uint256"
				},
				{
					"internalType": "uint256",
					"name": "poolId",
					"type": "uint256"
				},
				{
					"internalType": "uint256",
					"name": "parentId",
					"type": "uint256"
				},
				{
					"internalType": "uint256",
					"name": "bonusCount",
					"type": "uint256"
				}
			],
			"stateMutability": "view",
			"type": "function"
		},
		{
			"inputs": [
				{
					"internalType": "uint256",
					"name": "",
					"type": "uint256"
				},
				{
					"internalType": "uint256",
					"name": "",
					"type": "uint256"
				},
				{
					"internalType": "uint256",
					"name": "",
					"type": "uint256"
				}
			],
			"name": "userChildren",
			"outputs": [
				{
					"internalType": "uint256",
					"name": "",
					"type": "uint256"
				}
			],
			"stateMutability": "view",
			"type": "function"
		},
		{
			"inputs": [
				{
					"internalType": "uint256",
					"name": "",
					"type": "uint256"
				},
				{
					"internalType": "uint256",
					"name": "",
					"type": "uint256"
				}
			],
			"name": "userHasPool",
			"outputs": [
				{
					"internalType": "bool",
					"name": "",
					"type": "bool"
				}
			],
			"stateMutability": "view",
			"type": "function"
		},
		{
			"inputs": [
				{
					"internalType": "uint256",
					"name": "",
					"type": "uint256"
				},
				{
					"internalType": "uint256",
					"name": "",
					"type": "uint256"
				}
			],
			"name": "userHasbooster",
			"outputs": [
				{
					"internalType": "bool",
					"name": "",
					"type": "bool"
				}
			],
			"stateMutability": "view",
			"type": "function"
		},
		{
			"inputs": [
				{
					"internalType": "uint256",
					"name": "",
					"type": "uint256"
				},
				{
					"internalType": "uint256",
					"name": "",
					"type": "uint256"
				},
				{
					"internalType": "uint256",
					"name": "",
					"type": "uint256"
				}
			],
			"name": "userIdPerPool",
			"outputs": [
				{
					"internalType": "uint256",
					"name": "",
					"type": "uint256"
				}
			],
			"stateMutability": "view",
			"type": "function"
		},
		{
			"inputs": [
				{
					"internalType": "uint256",
					"name": "",
					"type": "uint256"
				}
			],
			"name": "userIncomes",
			"outputs": [
				{
					"internalType": "uint256",
					"name": "totalIncome",
					"type": "uint256"
				},
				{
					"internalType": "uint256",
					"name": "sponsorIncome",
					"type": "uint256"
				},
				{
					"internalType": "uint256",
					"name": "matrixIncome",
					"type": "uint256"
				},
				{
					"internalType": "uint256",
					"name": "levelBoosterIncome",
					"type": "uint256"
				},
				{
					"internalType": "uint256",
					"name": "levelIncome",
					"type": "uint256"
				},
				{
					"internalType": "uint256",
					"name": "royaltyIncome",
					"type": "uint256"
				},
				{
					"internalType": "uint256",
					"name": "royaltyIncomeClaimed",
					"type": "uint256"
				},
				{
					"internalType": "uint256",
					"name": "communityIncome",
					"type": "uint256"
				},
				{
					"internalType": "uint256",
					"name": "poolIncome",
					"type": "uint256"
				},
				{
					"internalType": "uint256",
					"name": "boosterIncome",
					"type": "uint256"
				}
			],
			"stateMutability": "view",
			"type": "function"
		},
		{
			"inputs": [
				{
					"internalType": "uint256",
					"name": "",
					"type": "uint256"
				},
				{
					"internalType": "uint256",
					"name": "",
					"type": "uint256"
				}
			],
			"name": "userPooldtl",
			"outputs": [
				{
					"internalType": "uint256",
					"name": "id",
					"type": "uint256"
				},
				{
					"internalType": "uint256",
					"name": "mainid",
					"type": "uint256"
				},
				{
					"internalType": "uint256",
					"name": "poolId",
					"type": "uint256"
				},
				{
					"internalType": "uint256",
					"name": "parentId",
					"type": "uint256"
				},
				{
					"internalType": "uint256",
					"name": "bonusCount",
					"type": "uint256"
				}
			],
			"stateMutability": "view",
			"type": "function"
		},
		{
			"inputs": [
				{
					"internalType": "uint256",
					"name": "",
					"type": "uint256"
				},
				{
					"internalType": "uint256",
					"name": "",
					"type": "uint256"
				}
			],
			"name": "userPooltopup",
			"outputs": [
				{
					"internalType": "uint256",
					"name": "nextPoolAmt",
					"type": "uint256"
				},
				{
					"internalType": "uint256",
					"name": "reTopupAmt",
					"type": "uint256"
				}
			],
			"stateMutability": "view",
			"type": "function"
		},
		{
			"inputs": [
				{
					"internalType": "uint256",
					"name": "",
					"type": "uint256"
				}
			],
			"name": "users",
			"outputs": [
				{
					"internalType": "address",
					"name": "account",
					"type": "address"
				},
				{
					"internalType": "uint256",
					"name": "checkpoint",
					"type": "uint256"
				},
				{
					"internalType": "uint256",
					"name": "id",
					"type": "uint256"
				},
				{
					"internalType": "uint256",
					"name": "sponsorId",
					"type": "uint256"
				},
				{
					"internalType": "uint256",
					"name": "uplineId",
					"type": "uint256"
				},
				{
					"internalType": "uint256",
					"name": "level",
					"type": "uint256"
				},
				{
					"internalType": "uint256",
					"name": "directTeam",
					"type": "uint256"
				},
				{
					"internalType": "uint256",
					"name": "directPoolQualified",
					"type": "uint256"
				},
				{
					"internalType": "uint256",
					"name": "totalMatrixTeam",
					"type": "uint256"
				},
				{
					"internalType": "uint256",
					"name": "totalDeposit",
					"type": "uint256"
				},
				{
					"internalType": "uint256",
					"name": "poollevel",
					"type": "uint256"
				},
				{
					"internalType": "uint256",
					"name": "poolDeposit",
					"type": "uint256"
				},
				{
					"internalType": "uint256",
					"name": "boosterlevel",
					"type": "uint256"
				},
				{
					"internalType": "uint256",
					"name": "boosterDeposit",
					"type": "uint256"
				},
				{
					"internalType": "uint256",
					"name": "registrationTime",
					"type": "uint256"
				}
			],
			"stateMutability": "view",
			"type": "function"
		}
	]
}