{
	"data": {
		"bytecode": {
			"linkReferences": {},
			"object": "6080604052604051806101e0016040528067d02ab486cedc000069ffffffffffffffffffff16815260200168015af1d78b58c4000069ffffffffffffffffffff1681526020016802b5e3af16b188000069ffffffffffffffffffff16815260200168056bc75e2d6310000069ffffffffffffffffffff168152602001680ad78ebc5ac620000069ffffffffffffffffffff1681526020016815af1d78b58c40000069ffffffffffffffffffff168152602001682b5e3af16b1880000069ffffffffffffffffffff1681526020016856bc75e2d63100000069ffffffffffffffffffff16815260200168ad78ebc5ac6200000069ffffffffffffffffffff16815260200169015af1d78b58c400000069ffffffffffffffffffff1681526020016902b5e3af16b18800000069ffffffffffffffffffff16815260200169056bc75e2d631000000069ffffffffffffffffffff168152602001690ad78ebc5ac62000000069ffffffffffffffffffff1681526020016915af1d78b58c4000000069ffffffffffffffffffff168152602001692b5e3af16b188000000069ffffffffffffffffffff16815250600790600f6101b8929190610414565b50620151806014553480156101cb575f5ffd5b506040516137ee3803806137ee83398181016040528101906101ed91906104e6565b835f5f6101000a81548173ffffffffffffffffffffffffffffffffffffffff021916908373ffffffffffffffffffffffffffffffffffffffff1602179055508260025f6101000a81548173ffffffffffffffffffffffffffffffffffffffff021916908373ffffffffffffffffffffffffffffffffffffffff1602179055508160035f6101000a81548173ffffffffffffffffffffffffffffffffffffffff021916908373ffffffffffffffffffffffffffffffffffffffff1602179055508060045f6101000a81548173ffffffffffffffffffffffffffffffffffffffff021916908373ffffffffffffffffffffffffffffffffffffffff1602179055506103e860058190555060016006819055505f60095f60055481526020019081526020015f20905083815f015f6101000a81548173ffffffffffffffffffffffffffffffffffffffff021916908373ffffffffffffffffffffffffffffffffffffffff1602179055506005548160030181905550600f81600601819055504281600a01819055505f5f90505f5f90505b600f8110156103bb57600781815481106103985761039761054a565b5b905f5260205f200154826103ac91906105ad565b9150808060010191505061037b565b5080826009018190555060055460085f8773ffffffffffffffffffffffffffffffffffffffff1673ffffffffffffffffffffffffffffffffffffffff1681526020019081526020015f20819055505050505050506105e0565b828054828255905f5260205f2090810192821561045c579160200282015b8281111561045b578251829069ffffffffffffffffffff16905591602001919060010190610432565b5b509050610469919061046d565b5090565b5b80821115610484575f815f90555060010161046e565b5090565b5f5ffd5b5f73ffffffffffffffffffffffffffffffffffffffff82169050919050565b5f6104b58261048c565b9050919050565b6104c5816104ab565b81146104cf575f5ffd5b50565b5f815190506104e0816104bc565b92915050565b5f5f5f5f608085870312156104fe576104fd610488565b5b5f61050b878288016104d2565b945050602061051c878288016104d2565b935050604061052d878288016104d2565b925050606061053e878288016104d2565b91505092959194509250565b7f4e487b71000000000000000000000000000000000000000000000000000000005f52603260045260245ffd5b5f819050919050565b7f4e487b71000000000000000000000000000000000000000000000000000000005f52601160045260245ffd5b5f6105b782610577565b91506105c283610577565b92508282019050808211156105da576105d9610580565b5b92915050565b613201806105ed5f395ff3fe608060405234801561000f575f5ffd5b50600436106101e3575f3560e01c80635aabf7f11161010d578063bff1f9e1116100a0578063e9e34a161161006f578063e9e34a16146105e8578063ec597e6f14610606578063f207564e14610624578063f5d74d9314610640576101e3565b8063bff1f9e11461054e578063c216212a1461056c578063cb0e0d7d1461059c578063d54d6ddb146105cc576101e3565b80637cdc65f2116100dc5780637cdc65f2146104c457806381a0b816146104e257806388afbe3e146105005780638da5cb5b14610530576101e3565b80635aabf7f1146104125780635ec64a441461044257806370c8d7701461047257806378f6ad6d146104a6576101e3565b806332fcd9661161018557806345977d031161015457806345977d031461038357806346b9dece1461039f57806352a8c4c4146103d657806358c7d352146103f4576101e3565b806332fcd966146102de578063365b98b2146102fc578063375b43b41461033557806339ab360314610353576101e3565b806324513088116101c157806324513088146102535780632c831633146102845780632f48ab7d146102a257806332bc298c146102c0576101e3565b806301be02b2146101e757806301c234a81461020557806318ab487f14610223575b5f5ffd5b6101ef61065e565b6040516101fc9190612610565b60405180910390f35b61020d610664565b60405161021a9190612610565b60405180910390f35b61023d60048036038101906102389190612657565b61066a565b60405161024a9190612610565b60405180910390f35b61026d60048036038101906102689190612657565b61067f565b60405161027b929190612682565b60405180910390f35b61028c610715565b6040516102999190612610565b60405180910390f35b6102aa61071b565b6040516102b79190612723565b60405180910390f35b6102c861073f565b6040516102d59190612610565b60405180910390f35b6102e6610746565b6040516102f39190612610565b60405180910390f35b61031660048036038101906103119190612657565b610752565b60405161032c9a9998979695949392919061275c565b60405180910390f35b61033d6107c1565b60405161034a9190612610565b60405180910390f35b61036d60048036038101906103689190612657565b6107c6565b60405161037a9190612610565b60405180910390f35b61039d60048036038101906103989190612657565b6107e6565b005b6103b960048036038101906103b49190612657565b610b88565b6040516103cd9897969594939291906127f6565b60405180910390f35b6103de610bcc565b6040516103eb9190612610565b60405180910390f35b6103fc610bd2565b6040516104099190612610565b60405180910390f35b61042c60048036038101906104279190612872565b610bd7565b6040516104399190612610565b60405180910390f35b61045c600480360381019061045791906128c2565b610c0d565b6040516104699190612610565b60405180910390f35b61048c600480360381019061048791906128c2565b610c38565b60405161049d959493929190612900565b60405180910390f35b6104ae610c84565b6040516104bb9190612610565b60405180910390f35b6104cc610c8a565b6040516104d99190612951565b60405180910390f35b6104ea610caf565b6040516104f79190612951565b60405180910390f35b61051a60048036038101906105159190612657565b610cd4565b6040516105279190612610565b60405180910390f35b610538610ce9565b6040516105459190612951565b60405180910390f35b610556610d0e565b6040516105639190612610565b60405180910390f35b61058660048036038101906105819190612657565b610d14565b6040516105939190612610565b60405180910390f35b6105b660048036038101906105b19190612994565b610d34565b6040516105c39190612610565b60405180910390f35b6105e660048036038101906105e19190612657565b610d49565b005b6105f06110cd565b6040516105fd9190612951565b60405180910390f35b61060e6110f2565b60405161061b9190612610565b60405180910390f35b61063e60048036038101906106399190612657565b6110f8565b005b61064861163c565b6040516106559190612951565b60405180910390f35b60135481565b61271081565b6010602052805f5260405f205f915090505481565b5f5f5f60095f8581526020019081526020015f2060030154036106a7575f5f91509150610710565b5f600f5490505f60105f8681526020019081526020015f205490508082116106d6575f5f935093505050610710565b5f670de0b6b3a764000082846106ec91906129ec565b6106f69190612a4c565b90505f6107038783611661565b9050818195509550505050505b915091565b60115481565b5f5f9054906101000a900473ffffffffffffffffffffffffffffffffffffffff1681565b6201518081565b670de0b6b3a764000081565b6009602052805f5260405f205f91509050805f015f9054906101000a900473ffffffffffffffffffffffffffffffffffffffff169080600201549080600301549080600401549080600501549080600601549080600701549080600801549080600901549080600a015490508a565b601981565b601581815481106107d5575f80fd5b905f5260205f20015f915090505481565b5f60095f8381526020019081526020015f2090503373ffffffffffffffffffffffffffffffffffffffff16815f015f9054906101000a900473ffffffffffffffffffffffffffffffffffffffff1673ffffffffffffffffffffffffffffffffffffffff161461088a576040517f08c379a000000000000000000000000000000000000000000000000000000000815260040161088190612ad6565b60405180910390fd5b600f8160060154106108d1576040517f08c379a00000000000000000000000000000000000000000000000000000000081526004016108c890612b3e565b60405180910390fd5b5f816006015490505f600782815481106108ee576108ed612b5c565b5b905f5260205f20015490505f5f9054906101000a900473ffffffffffffffffffffffffffffffffffffffff1673ffffffffffffffffffffffffffffffffffffffff166323b872dd3330846040518463ffffffff1660e01b815260040161095693929190612b89565b6020604051808303815f875af1158015610972573d5f5f3e3d5ffd5b505050506040513d601f19601f820116820180604052508101906109969190612bf3565b506001836006015f8282546109ab9190612c1e565b9250508190555080836009015f8282546109c59190612c1e565b925050819055508260010160405180606001604052808381526020015f815260200142815250908060018154018082558091505060019003905f5260205f2090600302015f909190919091505f820151815f0155602082015181600101556040820151816002015550505f6064600583610a3f9190612c51565b610a499190612a4c565b90505f6064602384610a5b9190612c51565b610a659190612a4c565b9050610a7081611707565b610a7982611775565b5f6064600f85610a899190612c51565b610a939190612a4c565b9050610ab186600401548883600189610aac9190612c1e565b6119c4565b5f6064600f86610ac19190612c51565b610acb9190612a4c565b9050610ae98760050154898360018a610ae49190612c1e565b611c7c565b5f6064600f87610af99190612c51565b610b039190612a4c565b9050610b2288600501548a8360018b610b1c9190612c1e565b8b611fd8565b883373ffffffffffffffffffffffffffffffffffffffff167f13ea485b1d8135315e770779887880798ac429f039a7c5ca3ff5f6f99a95b58760018a610b689190612c1e565b604051610b759190612610565b60405180910390a3505050505050505050565b600a602052805f5260405f205f91509050805f0154908060010154908060020154908060030154908060040154908060050154908060060154908060070154905088565b60145481565b600a81565b600c602052825f5260405f20602052815f5260405f208181548110610bfa575f80fd5b905f5260205f20015f9250925050505481565b600e602052815f5260405f208181548110610c26575f80fd5b905f5260205f20015f91509150505481565b600b602052815f5260405f208181548110610c51575f80fd5b905f5260205f2090600502015f9150915050805f0154908060010154908060020154908060030154908060040154905085565b600f5481565b60025f9054906101000a900473ffffffffffffffffffffffffffffffffffffffff1681565b60125f9054906101000a900473ffffffffffffffffffffffffffffffffffffffff1681565b600d602052805f5260405f205f915090505481565b60015f9054906101000a900473ffffffffffffffffffffffffffffffffffffffff1681565b60065481565b60078181548110610d23575f80fd5b905f5260205f20015f915090505481565b6008602052805f5260405f205f915090505481565b5f60095f8381526020019081526020015f2090505f816003015403610da3576040517f08c379a0000000000000000000000000000000000000000000000000000000008152600401610d9a90612cdc565b60405180910390fd5b3373ffffffffffffffffffffffffffffffffffffffff16815f015f9054906101000a900473ffffffffffffffffffffffffffffffffffffffff1673ffffffffffffffffffffffffffffffffffffffff1614610e33576040517f08c379a0000000000000000000000000000000000000000000000000000000008152600401610e2a90612ad6565b60405180910390fd5b5f600f5490505f60105f8581526020019081526020015f20549050808203610e5d575050506110ca565b5f670de0b6b3a76400008284610e7391906129ec565b610e7d9190612a4c565b90505f8103610ea5578260105f8781526020019081526020015f2081905550505050506110ca565b5f610eb08683611661565b90508360105f8881526020019081526020015f20819055505f8111156110a7575f600a5f8881526020019081526020015f20905081815f015f828254610ef69190612c1e565b9250508190555081816007015f828254610f109190612c1e565b92505081905550600b5f8881526020019081526020015f206040518060a00160405280898152602001848152602001600181526020014281526020016009815250908060018154018082558091505060019003905f5260205f2090600502015f909190919091505f820151815f01556020820151816001015560408201518160020155606082015181600301556080820151816004015550505f5f9054906101000a900473ffffffffffffffffffffffffffffffffffffffff1673ffffffffffffffffffffffffffffffffffffffff1663a9059cbb875f015f9054906101000a900473ffffffffffffffffffffffffffffffffffffffff16846040518363ffffffff1660e01b8152600401611026929190612cfa565b6020604051808303815f875af1158015611042573d5f5f3e3d5ffd5b505050506040513d601f19601f820116820180604052508101906110669190612bf3565b6110a5576040517f08c379a000000000000000000000000000000000000000000000000000000000815260040161109c90612d6b565b60405180910390fd5b505b808211156110c4576110c381836110be91906129ec565b611775565b5b50505050505b50565b60035f9054906101000a900473ffffffffffffffffffffffffffffffffffffffff1681565b60055481565b5f60085f3373ffffffffffffffffffffffffffffffffffffffff1673ffffffffffffffffffffffffffffffffffffffff1681526020019081526020015f205414611177576040517f08c379a000000000000000000000000000000000000000000000000000000000815260040161116e90612dd3565b60405180910390fd5b5f60095f8381526020019081526020015f2060030154116111cd576040517f08c379a00000000000000000000000000000000000000000000000000000000081526004016111c490612e3b565b60405180910390fd5b5f5f9054906101000a900473ffffffffffffffffffffffffffffffffffffffff1673ffffffffffffffffffffffffffffffffffffffff166323b872dd333060075f8154811061121f5761121e612b5c565b5b905f5260205f2001546040518463ffffffff1660e01b815260040161124693929190612b89565b6020604051808303815f875af1158015611262573d5f5f3e3d5ffd5b505050506040513d601f19601f820116820180604052508101906112869190612bf3565b505f60056006546112979190612c51565b6005546112a49190612c1e565b90508060085f3373ffffffffffffffffffffffffffffffffffffffff1673ffffffffffffffffffffffffffffffffffffffff1681526020019081526020015f20819055505f60095f8381526020019081526020015f20905033815f015f6101000a81548173ffffffffffffffffffffffffffffffffffffffff021916908373ffffffffffffffffffffffffffffffffffffffff1602179055504281600201819055508181600301819055508281600401819055506001816006018190555060075f8154811061137657611375612b5c565b5b905f5260205f20015481600901819055504281600a0181905550600160095f8581526020019081526020015f206007015f8282546113b49190612c1e565b92505081905550600e5f8481526020019081526020015f2082908060018154018082558091505060019003905f5260205f20015f9091909190915055601582908060018154018082558091505060019003905f5260205f20015f9091909190915055600f5460105f8481526020019081526020015f2081905550611438828461213e565b80600101604051806060016040528060075f8154811061145b5761145a612b5c565b5b905f5260205f20015481526020015f815260200142815250908060018154018082558091505060019003905f5260205f2090600302015f909190919091505f820151815f0155602082015181600101556040820151816002015550505f60075f815481106114cc576114cb612b5c565b5b905f5260205f20015490505f6064600a836114e79190612c51565b6114f19190612a4c565b90505f60646023846115039190612c51565b61150d9190612a4c565b9050606460058461151e9190612c51565b6115289190612a4c565b60115f8282546115389190612c1e565b925050819055505f606460328561154f9190612c51565b6115599190612a4c565b905061156481611707565b61156d83611775565b61157e8560040154878460016119c4565b600160065f8282546115909190612c1e565b925050819055508560095f8981526020019081526020015f205f015f9054906101000a900473ffffffffffffffffffffffffffffffffffffffff1673ffffffffffffffffffffffffffffffffffffffff163373ffffffffffffffffffffffffffffffffffffffff167f309bb360e8b69c23937ccc5fb01f9aeeead1c95a99604e175113ff82f2b1723a886005015460405161162b9190612610565b60405180910390a450505050505050565b60045f9054906101000a900473ffffffffffffffffffffffffffffffffffffffff1681565b5f5f60095f8581526020019081526020015f2090505f600a5f8681526020019081526020015f2090506007805490508260060154036116a4578392505050611701565b5f600a601984600901546116b89190612c51565b6116c29190612a4c565b905080825f0154106116d9575f9350505050611701565b5f825f0154826116e991906129ec565b90508086116116f857856116fa565b805b9450505050505b92915050565b5f60158054905090505f81148061171d57505f82145b1561173a575f8211156117345761173382611775565b5b50611772565b80670de0b6b3a76400008361174f9190612c51565b6117599190612a4c565b600f5f8282546117699190612c1e565b92505081905550505b50565b5f73ffffffffffffffffffffffffffffffffffffffff1660025f9054906101000a900473ffffffffffffffffffffffffffffffffffffffff1673ffffffffffffffffffffffffffffffffffffffff1603611804576040517f08c379a00000000000000000000000000000000000000000000000000000000081526004016117fb90612ea3565b60405180910390fd5b5f60646032836118149190612c51565b61181e9190612a4c565b90505f8190505f818461183191906129ec565b90505f5f9054906101000a900473ffffffffffffffffffffffffffffffffffffffff1673ffffffffffffffffffffffffffffffffffffffff1663a9059cbb60025f9054906101000a900473ffffffffffffffffffffffffffffffffffffffff16838661189d9190612c1e565b6040518363ffffffff1660e01b81526004016118ba929190612cfa565b6020604051808303815f875af11580156118d6573d5f5f3e3d5ffd5b505050506040513d601f19601f820116820180604052508101906118fa9190612bf3565b505f600a5f60055481526020019081526020015f20905084815f015f8282546119239190612c1e565b92505081905550600b5f60055481526020019081526020015f206040518060a001604052805f81526020018781526020015f81526020014281526020016005815250908060018154018082558091505060019003905f5260205f2090600502015f909190919091505f820151815f01556020820151816001015560408201518160020155606082015181600301556080820151816004015550505050505050565b5f8414806119d3575060055484145b156119e6576119e182611775565b611c76565b5f60095f8681526020019081526020015f20905060018214611a1f57600281600701541015611a1e57611a1883611775565b50611c76565b5b5f5f9054906101000a900473ffffffffffffffffffffffffffffffffffffffff1673ffffffffffffffffffffffffffffffffffffffff1663a9059cbb825f015f9054906101000a900473ffffffffffffffffffffffffffffffffffffffff16856040518363ffffffff1660e01b8152600401611a9c929190612cfa565b6020604051808303815f875af1158015611ab8573d5f5f3e3d5ffd5b505050506040513d601f19601f82011682018060405250810190611adc9190612bf3565b505f600a5f8781526020019081526020015f20905083815f015f828254611b039190612c1e565b9250508190555083816001015f828254611b1d9190612c1e565b92505081905550600b5f8781526020019081526020015f206040518060a001604052808781526020018681526020018581526020014281526020016001815250908060018154018082558091505060019003905f5260205f2090600502015f909190919091505f820151815f015560208201518160010155604082015181600201556060820151816003015560808201518160040155505060095f8681526020019081526020015f205f015f9054906101000a900473ffffffffffffffffffffffffffffffffffffffff1673ffffffffffffffffffffffffffffffffffffffff16825f015f9054906101000a900473ffffffffffffffffffffffffffffffffffffffff1673ffffffffffffffffffffffffffffffffffffffff167fe17b61d324ce17328f433d0ab62581c0f0aa997312bae80fbdfcd2aa9b91d6e386866001604051611c6b93929190612efa565b60405180910390a350505b50505050565b5f60019050600554851480611c9057505f85145b15611ca457611c9e83611775565b50611fd2565b5f8590505b82821015611d02578180611cbc90612f2f565b92505060095f8281526020019081526020015f20600501549050600554811480611ce557505f81145b15611cfd57829150611cf684611775565b5050611fd2565b611ca9565b5f8190505f92505b5f8114158015611d1c57506005548114155b8015611d285750600f83105b15611fc5575f60095f8381526020019081526020015f20905084816006015410611faa575f5f9054906101000a900473ffffffffffffffffffffffffffffffffffffffff1673ffffffffffffffffffffffffffffffffffffffff1663a9059cbb825f015f9054906101000a900473ffffffffffffffffffffffffffffffffffffffff16886040518363ffffffff1660e01b8152600401611dc9929190612cfa565b6020604051808303815f875af1158015611de5573d5f5f3e3d5ffd5b505050506040513d601f19601f82011682018060405250810190611e099190612bf3565b505f600a5f8481526020019081526020015f20905086815f015f828254611e309190612c1e565b9250508190555086816002015f828254611e4a9190612c1e565b92505081905550600b5f8481526020019081526020015f206040518060a001604052808a81526020018981526020018881526020014281526020016002815250908060018154018082558091505060019003905f5260205f2090600502015f909190919091505f820151815f015560208201518160010155604082015181600201556060820151816003015560808201518160040155505060095f8981526020019081526020015f205f015f9054906101000a900473ffffffffffffffffffffffffffffffffffffffff1673ffffffffffffffffffffffffffffffffffffffff16825f015f9054906101000a900473ffffffffffffffffffffffffffffffffffffffff1673ffffffffffffffffffffffffffffffffffffffff167fe17b61d324ce17328f433d0ab62581c0f0aa997312bae80fbdfcd2aa9b91d6e389896002604051611f9893929190612faf565b60405180910390a35050505050611fd2565b806005015491508380611fbc90612f2f565b94505050611d0a565b611fce85611775565b5050505b50505050565b5f851480611fe7575060055485145b15611ffa57611ff583611775565b612137565b5f8190505f81036120145761200e84611775565b50612137565b5f81856120219190612a4c565b90505f82826120309190612c51565b8661203b91906129ec565b90505f600190505f8990505f5f90505b8581101561211e575f821415801561206557506005548214155b156120f3578760095f8481526020019081526020015f2060060154106120cc575f5f90505b838110156120ab5761209e838c888c6123aa565b808060010191505061208a565b5060095f8381526020019081526020015f20600501549150600192506120f2565b60095f8381526020019081526020015f2060050154915082806120ee90612f2f565b9350505b5b5f821480612102575060055482145b156121115761211085611775565b5b808060010191505061204b565b505f8311156121315761213083611775565b5b50505050505b5050505050565b5f5f6002600d5f8581526020019081526020015f205410156121a3578260095f8681526020019081526020015f20600501819055506001600d5f8581526020019081526020015f205f8282546121949190612c1e565b925050819055508290506122fa565b5f5f90505b600f8110156122f857826122f8576002816121c39190612c1e565b60026121cf9190613113565b600c5f8681526020019081526020015f205f6001846121ee9190612c1e565b81526020019081526020015f208054905010156122eb575f5f90505b600c5f8681526020019081526020015f205f8381526020019081526020015f20805490508110156122e957836122e9575f600c5f8781526020019081526020015f205f8481526020019081526020015f20828154811061226d5761226c612b5c565b5b905f5260205f20015490506002600d5f8381526020019081526020015f205410156122db578060095f8981526020019081526020015f20600501819055506001600d5f8381526020019081526020015f205f8282546122cc9190612c1e565b92505081905550809350600194505b50808060010191505061220a565b505b80806001019150506121a8565b505b5f5f90505b600f8110156123a3575f8203156123a357600160095f8481526020019081526020015f206008015f8282546123349190612c1e565b92505081905550600c5f8381526020019081526020015f205f8281526020019081526020015f2085908060018154018082558091505060019003905f5260205f20015f909190919091505560095f8381526020019081526020015f2060050154915080806001019150506122ff565b5050505050565b5f60095f8681526020019081526020015f205f015f9054906101000a900473ffffffffffffffffffffffffffffffffffffffff1690505f5f9054906101000a900473ffffffffffffffffffffffffffffffffffffffff1673ffffffffffffffffffffffffffffffffffffffff1663a9059cbb82856040518363ffffffff1660e01b815260040161243b929190612cfa565b6020604051808303815f875af1158015612457573d5f5f3e3d5ffd5b505050506040513d601f19601f8201168201806040525081019061247b9190612bf3565b505f600a5f8781526020019081526020015f20905083815f015f8282546124a29190612c1e565b9250508190555083816003015f8282546124bc9190612c1e565b92505081905550600b5f8781526020019081526020015f206040518060a001604052808781526020018681526020018581526020014281526020016004815250908060018154018082558091505060019003905f5260205f2090600502015f909190919091505f820151815f015560208201518160010155604082015181600201556060820151816003015560808201518160040155505060095f8681526020019081526020015f205f015f9054906101000a900473ffffffffffffffffffffffffffffffffffffffff1673ffffffffffffffffffffffffffffffffffffffff168273ffffffffffffffffffffffffffffffffffffffff167fe17b61d324ce17328f433d0ab62581c0f0aa997312bae80fbdfcd2aa9b91d6e3868660046040516125e893929190613196565b60405180910390a3505050505050565b5f819050919050565b61260a816125f8565b82525050565b5f6020820190506126235f830184612601565b92915050565b5f5ffd5b612636816125f8565b8114612640575f5ffd5b50565b5f813590506126518161262d565b92915050565b5f6020828403121561266c5761266b612629565b5b5f61267984828501612643565b91505092915050565b5f6040820190506126955f830185612601565b6126a26020830184612601565b9392505050565b5f73ffffffffffffffffffffffffffffffffffffffff82169050919050565b5f819050919050565b5f6126eb6126e66126e1846126a9565b6126c8565b6126a9565b9050919050565b5f6126fc826126d1565b9050919050565b5f61270d826126f2565b9050919050565b61271d81612703565b82525050565b5f6020820190506127365f830184612714565b92915050565b5f612746826126a9565b9050919050565b6127568161273c565b82525050565b5f610140820190506127705f83018d61274d565b61277d602083018c612601565b61278a604083018b612601565b612797606083018a612601565b6127a46080830189612601565b6127b160a0830188612601565b6127be60c0830187612601565b6127cb60e0830186612601565b6127d9610100830185612601565b6127e7610120830184612601565b9b9a5050505050505050505050565b5f6101008201905061280a5f83018b612601565b612817602083018a612601565b6128246040830189612601565b6128316060830188612601565b61283e6080830187612601565b61284b60a0830186612601565b61285860c0830185612601565b61286560e0830184612601565b9998505050505050505050565b5f5f5f6060848603121561288957612888612629565b5b5f61289686828701612643565b93505060206128a786828701612643565b92505060406128b886828701612643565b9150509250925092565b5f5f604083850312156128d8576128d7612629565b5b5f6128e585828601612643565b92505060206128f685828601612643565b9150509250929050565b5f60a0820190506129135f830188612601565b6129206020830187612601565b61292d6040830186612601565b61293a6060830185612601565b6129476080830184612601565b9695505050505050565b5f6020820190506129645f83018461274d565b92915050565b6129738161273c565b811461297d575f5ffd5b50565b5f8135905061298e8161296a565b92915050565b5f602082840312156129a9576129a8612629565b5b5f6129b684828501612980565b91505092915050565b7f4e487b71000000000000000000000000000000000000000000000000000000005f52601160045260245ffd5b5f6129f6826125f8565b9150612a01836125f8565b9250828203905081811115612a1957612a186129bf565b5b92915050565b7f4e487b71000000000000000000000000000000000000000000000000000000005f52601260045260245ffd5b5f612a56826125f8565b9150612a61836125f8565b925082612a7157612a70612a1f565b5b828204905092915050565b5f82825260208201905092915050565b7f4e6f7420796f7572206163636f756e74000000000000000000000000000000005f82015250565b5f612ac0601083612a7c565b9150612acb82612a8c565b602082019050919050565b5f6020820190508181035f830152612aed81612ab4565b9050919050565b7f416c7265616479206174206d6178206c6576656c0000000000000000000000005f82015250565b5f612b28601483612a7c565b9150612b3382612af4565b602082019050919050565b5f6020820190508181035f830152612b5581612b1c565b9050919050565b7f4e487b71000000000000000000000000000000000000000000000000000000005f52603260045260245ffd5b5f606082019050612b9c5f83018661274d565b612ba9602083018561274d565b612bb66040830184612601565b949350505050565b5f8115159050919050565b612bd281612bbe565b8114612bdc575f5ffd5b50565b5f81519050612bed81612bc9565b92915050565b5f60208284031215612c0857612c07612629565b5b5f612c1584828501612bdf565b91505092915050565b5f612c28826125f8565b9150612c33836125f8565b9250828201905080821115612c4b57612c4a6129bf565b5b92915050565b5f612c5b826125f8565b9150612c66836125f8565b9250828202612c74816125f8565b91508282048414831517612c8b57612c8a6129bf565b5b5092915050565b7f55736572206e6f7420666f756e640000000000000000000000000000000000005f82015250565b5f612cc6600e83612a7c565b9150612cd182612c92565b602082019050919050565b5f6020820190508181035f830152612cf381612cba565b9050919050565b5f604082019050612d0d5f83018561274d565b612d1a6020830184612601565b9392505050565b7f55534454207472616e73666572206661696c65640000000000000000000000005f82015250565b5f612d55601483612a7c565b9150612d6082612d21565b602082019050919050565b5f6020820190508181035f830152612d8281612d49565b9050919050565b7f416c7265616479207265676973746572656400000000000000000000000000005f82015250565b5f612dbd601283612a7c565b9150612dc882612d89565b602082019050919050565b5f6020820190508181035f830152612dea81612db1565b9050919050565b7f496e76616c69642073706f6e736f7200000000000000000000000000000000005f82015250565b5f612e25600f83612a7c565b9150612e3082612df1565b602082019050919050565b5f6020820190508181035f830152612e5281612e19565b9050919050565b7f666565206164647273206e6f74207365740000000000000000000000000000005f82015250565b5f612e8d601183612a7c565b9150612e9882612e59565b602082019050919050565b5f6020820190508181035f830152612eba81612e81565b9050919050565b5f819050919050565b5f612ee4612edf612eda84612ec1565b6126c8565b6125f8565b9050919050565b612ef481612eca565b82525050565b5f606082019050612f0d5f830186612601565b612f1a6020830185612601565b612f276040830184612eeb565b949350505050565b5f612f39826125f8565b91507fffffffffffffffffffffffffffffffffffffffffffffffffffffffffffffffff8203612f6b57612f6a6129bf565b5b600182019050919050565b5f819050919050565b5f612f99612f94612f8f84612f76565b6126c8565b6125f8565b9050919050565b612fa981612f7f565b82525050565b5f606082019050612fc25f830186612601565b612fcf6020830185612601565b612fdc6040830184612fa0565b949350505050565b5f8160011c9050919050565b5f5f8291508390505b600185111561303957808604811115613015576130146129bf565b5b60018516156130245780820291505b808102905061303285612fe4565b9450612ff9565b94509492505050565b5f82613051576001905061310c565b8161305e575f905061310c565b8160018114613074576002811461307e576130ad565b600191505061310c565b60ff8411156130905761308f6129bf565b5b8360020a9150848211156130a7576130a66129bf565b5b5061310c565b5060208310610133831016604e8410600b84101617156130e25782820a9050838111156130dd576130dc6129bf565b5b61310c565b6130ef8484846001612ff0565b92509050818404811115613106576131056129bf565b5b81810290505b9392505050565b5f61311d826125f8565b9150613128836125f8565b92506131557fffffffffffffffffffffffffffffffffffffffffffffffffffffffffffffffff8484613042565b905092915050565b5f819050919050565b5f61318061317b6131768461315d565b6126c8565b6125f8565b9050919050565b61319081613166565b82525050565b5f6060820190506131a95f830186612601565b6131b66020830185612601565b6131c36040830184613187565b94935050505056fea2646970667358221220b6c52a405612c0457d7323f3900fdda4fa6093657c8f1dacf142f30f6cb2844764736f6c634300081e0033",
			"opcodes": "PUSH1 0x80 PUSH1 0x40 MSTORE PUSH1 0x40 MLOAD DUP1 PUSH2 0x1E0 ADD PUSH1 0x40 MSTORE DUP1 PUSH8 0xD02AB486CEDC0000 PUSH10 0xFFFFFFFFFFFFFFFFFFFF AND DUP2 MSTORE PUSH1 0x20 ADD PUSH9 0x15AF1D78B58C40000 PUSH10 0xFFFFFFFFFFFFFFFFFFFF AND DUP2 MSTORE PUSH1 0x20 ADD PUSH9 0x2B5E3AF16B1880000 PUSH10 0xFFFFFFFFFFFFFFFFFFFF AND DUP2 MSTORE PUSH1 0x20 ADD PUSH9 0x56BC75E2D63100000 PUSH10 0xFFFFFFFFFFFFFFFFFFFF AND DUP2 MSTORE PUSH1 0x20 ADD PUSH9 0xAD78EBC5AC6200000 PUSH10 0xFFFFFFFFFFFFFFFFFFFF AND DUP2 MSTORE PUSH1 0x20 ADD PUSH9 0x15AF1D78B58C400000 PUSH10 0xFFFFFFFFFFFFFFFFFFFF AND DUP2 MSTORE PUSH1 0x20 ADD PUSH9 0x2B5E3AF16B18800000 PUSH10 0xFFFFFFFFFFFFFFFFFFFF AND DUP2 MSTORE PUSH1 0x20 ADD PUSH9 0x56BC75E2D631000000 PUSH10 0xFFFFFFFFFFFFFFFFFFFF AND DUP2 MSTORE PUSH1 0x20 ADD PUSH9 0xAD78EBC5AC62000000 PUSH10 0xFFFFFFFFFFFFFFFFFFFF AND DUP2 MSTORE PUSH1 0x20 ADD PUSH10 0x15AF1D78B58C4000000 PUSH10 0xFFFFFFFFFFFFFFFFFFFF AND DUP2 MSTORE PUSH1 0x20 ADD PUSH10 0x2B5E3AF16B188000000 PUSH10 0xFFFFFFFFFFFFFFFFFFFF AND DUP2 MSTORE PUSH1 0x20 ADD PUSH10 0x56BC75E2D6310000000 PUSH10 0xFFFFFFFFFFFFFFFFFFFF AND DUP2 MSTORE PUSH1 0x20 ADD PUSH10 0xAD78EBC5AC620000000 PUSH10 0xFFFFFFFFFFFFFFFFFFFF AND DUP2 MSTORE PUSH1 0x20 ADD PUSH10 0x15AF1D78B58C40000000 PUSH10 0xFFFFFFFFFFFFFFFFFFFF AND DUP2 MSTORE PUSH1 0x20 ADD PUSH10 0x2B5E3AF16B1880000000 PUSH10 0xFFFFFFFFFFFFFFFFFFFF AND DUP2 MSTORE POP PUSH1 0x7 SWAP1 PUSH1 0xF PUSH2 0x1B8 SWAP3 SWAP2 SWAP1 PUSH2 0x414 JUMP JUMPDEST POP PUSH3 0x15180 PUSH1 0x14 SSTORE CALLVALUE DUP1 ISZERO PUSH2 0x1CB JUMPI PUSH0 PUSH0 REVERT JUMPDEST POP PUSH1 0x40 MLOAD PUSH2 0x37EE CODESIZE SUB DUP1 PUSH2 0x37EE DUP4 CODECOPY DUP2 DUP2 ADD PUSH1 0x40 MSTORE DUP2 ADD SWAP1 PUSH2 0x1ED SWAP2 SWAP1 PUSH2 0x4E6 JUMP JUMPDEST DUP4 PUSH0 PUSH0 PUSH2 0x100 EXP DUP2 SLOAD DUP2 PUSH20 0xFFFFFFFFFFFFFFFFFFFFFFFFFFFFFFFFFFFFFFFF MUL NOT AND SWAP1 DUP4 PUSH20 0xFFFFFFFFFFFFFFFFFFFFFFFFFFFFFFFFFFFFFFFF AND MUL OR SWAP1 SSTORE POP DUP3 PUSH1 0x2 PUSH0 PUSH2 0x100 EXP DUP2 SLOAD DUP2 PUSH20 0xFFFFFFFFFFFFFFFFFFFFFFFFFFFFFFFFFFFFFFFF MUL NOT AND SWAP1 DUP4 PUSH20 0xFFFFFFFFFFFFFFFFFFFFFFFFFFFFFFFFFFFFFFFF AND MUL OR SWAP1 SSTORE POP DUP2 PUSH1 0x3 PUSH0 PUSH2 0x100 EXP DUP2 SLOAD DUP2 PUSH20 0xFFFFFFFFFFFFFFFFFFFFFFFFFFFFFFFFFFFFFFFF MUL NOT AND SWAP1 DUP4 PUSH20 0xFFFFFFFFFFFFFFFFFFFFFFFFFFFFFFFFFFFFFFFF AND MUL OR SWAP1 SSTORE POP DUP1 PUSH1 0x4 PUSH0 PUSH2 0x100 EXP DUP2 SLOAD DUP2 PUSH20 0xFFFFFFFFFFFFFFFFFFFFFFFFFFFFFFFFFFFFFFFF MUL NOT AND SWAP1 DUP4 PUSH20 0xFFFFFFFFFFFFFFFFFFFFFFFFFFFFFFFFFFFFFFFF AND MUL OR SWAP1 SSTORE POP PUSH2 0x3E8 PUSH1 0x5 DUP2 SWAP1 SSTORE POP PUSH1 0x1 PUSH1 0x6 DUP2 SWAP1 SSTORE POP PUSH0 PUSH1 0x9 PUSH0 PUSH1 0x5 SLOAD DUP2 MSTORE PUSH1 0x20 ADD SWAP1 DUP2 MSTORE PUSH1 0x20 ADD PUSH0 KECCAK256 SWAP1 POP DUP4 DUP2 PUSH0 ADD PUSH0 PUSH2 0x100 EXP DUP2 SLOAD DUP2 PUSH20 0xFFFFFFFFFFFFFFFFFFFFFFFFFFFFFFFFFFFFFFFF MUL NOT AND SWAP1 DUP4 PUSH20 0xFFFFFFFFFFFFFFFFFFFFFFFFFFFFFFFFFFFFFFFF AND MUL OR SWAP1 SSTORE POP PUSH1 0x5 SLOAD DUP2 PUSH1 0x3 ADD DUP2 SWAP1 SSTORE POP PUSH1 0xF DUP2 PUSH1 0x6 ADD DUP2 SWAP1 SSTORE POP TIMESTAMP DUP2 PUSH1 0xA ADD DUP2 SWAP1 SSTORE POP PUSH0 PUSH0 SWAP1 POP PUSH0 PUSH0 SWAP1 POP JUMPDEST PUSH1 0xF DUP2 LT ISZERO PUSH2 0x3BB JUMPI PUSH1 0x7 DUP2 DUP2 SLOAD DUP2 LT PUSH2 0x398 JUMPI PUSH2 0x397 PUSH2 0x54A JUMP JUMPDEST JUMPDEST SWAP1 PUSH0 MSTORE PUSH1 0x20 PUSH0 KECCAK256 ADD SLOAD DUP3 PUSH2 0x3AC SWAP2 SWAP1 PUSH2 0x5AD JUMP JUMPDEST SWAP2 POP DUP1 DUP1 PUSH1 0x1 ADD SWAP2 POP POP PUSH2 0x37B JUMP JUMPDEST POP DUP1 DUP3 PUSH1 0x9 ADD DUP2 SWAP1 SSTORE POP PUSH1 0x5 SLOAD PUSH1 0x8 PUSH0 DUP8 PUSH20 0xFFFFFFFFFFFFFFFFFFFFFFFFFFFFFFFFFFFFFFFF AND PUSH20 0xFFFFFFFFFFFFFFFFFFFFFFFFFFFFFFFFFFFFFFFF AND DUP2 MSTORE PUSH1 0x20 ADD SWAP1 DUP2 MSTORE PUSH1 0x20 ADD PUSH0 KECCAK256 DUP2 SWAP1 SSTORE POP POP POP POP POP POP POP PUSH2 0x5E0 JUMP JUMPDEST DUP3 DUP1 SLOAD DUP3 DUP3 SSTORE SWAP1 PUSH0 MSTORE PUSH1 0x20 PUSH0 KECCAK256 SWAP1 DUP2 ADD SWAP3 DUP3 ISZERO PUSH2 0x45C JUMPI SWAP2 PUSH1 0x20 MUL DUP3 ADD JUMPDEST DUP3 DUP2 GT ISZERO PUSH2 0x45B JUMPI DUP3 MLOAD DUP3 SWAP1 PUSH10 0xFFFFFFFFFFFFFFFFFFFF AND SWAP1 SSTORE SWAP2 PUSH1 0x20 ADD SWAP2 SWAP1 PUSH1 0x1 ADD SWAP1 PUSH2 0x432 JUMP JUMPDEST JUMPDEST POP SWAP1 POP PUSH2 0x469 SWAP2 SWAP1 PUSH2 0x46D JUMP JUMPDEST POP SWAP1 JUMP JUMPDEST JUMPDEST DUP1 DUP3 GT ISZERO PUSH2 0x484 JUMPI PUSH0 DUP2 PUSH0 SWAP1 SSTORE POP PUSH1 0x1 ADD PUSH2 0x46E JUMP JUMPDEST POP SWAP1 JUMP JUMPDEST PUSH0 PUSH0 REVERT JUMPDEST PUSH0 PUSH20 0xFFFFFFFFFFFFFFFFFFFFFFFFFFFFFFFFFFFFFFFF DUP3 AND SWAP1 POP SWAP2 SWAP1 POP JUMP JUMPDEST PUSH0 PUSH2 0x4B5 DUP3 PUSH2 0x48C JUMP JUMPDEST SWAP1 POP SWAP2 SWAP1 POP JUMP JUMPDEST PUSH2 0x4C5 DUP2 PUSH2 0x4AB JUMP JUMPDEST DUP2 EQ PUSH2 0x4CF JUMPI PUSH0 PUSH0 REVERT JUMPDEST POP JUMP JUMPDEST PUSH0 DUP2 MLOAD SWAP1 POP PUSH2 0x4E0 DUP2 PUSH2 0x4BC JUMP JUMPDEST SWAP3 SWAP2 POP POP JUMP JUMPDEST PUSH0 PUSH0 PUSH0 PUSH0 PUSH1 0x80 DUP6 DUP8 SUB SLT ISZERO PUSH2 0x4FE JUMPI PUSH2 0x4FD PUSH2 0x488 JUMP JUMPDEST JUMPDEST PUSH0 PUSH2 0x50B DUP8 DUP3 DUP9 ADD PUSH2 0x4D2 JUMP JUMPDEST SWAP5 POP POP PUSH1 0x20 PUSH2 0x51C DUP8 DUP3 DUP9 ADD PUSH2 0x4D2 JUMP JUMPDEST SWAP4 POP POP PUSH1 0x40 PUSH2 0x52D DUP8 DUP3 DUP9 ADD PUSH2 0x4D2 JUMP JUMPDEST SWAP3 POP POP PUSH1 0x60 PUSH2 0x53E DUP8 DUP3 DUP9 ADD PUSH2 0x4D2 JUMP JUMPDEST SWAP2 POP POP SWAP3 SWAP6 SWAP2 SWAP5 POP SWAP3 POP JUMP JUMPDEST PUSH32 0x4E487B7100000000000000000000000000000000000000000000000000000000 PUSH0 MSTORE PUSH1 0x32 PUSH1 0x4 MSTORE PUSH1 0x24 PUSH0 REVERT JUMPDEST PUSH0 DUP2 SWAP1 POP SWAP2 SWAP1 POP JUMP JUMPDEST PUSH32 0x4E487B7100000000000000000000000000000000000000000000000000000000 PUSH0 MSTORE PUSH1 0x11 PUSH1 0x4 MSTORE PUSH1 0x24 PUSH0 REVERT JUMPDEST PUSH0 PUSH2 0x5B7 DUP3 PUSH2 0x577 JUMP JUMPDEST SWAP2 POP PUSH2 0x5C2 DUP4 PUSH2 0x577 JUMP JUMPDEST SWAP3 POP DUP3 DUP3 ADD SWAP1 POP DUP1 DUP3 GT ISZERO PUSH2 0x5DA JUMPI PUSH2 0x5D9 PUSH2 0x580 JUMP JUMPDEST JUMPDEST SWAP3 SWAP2 POP POP JUMP JUMPDEST PUSH2 0x3201 DUP1 PUSH2 0x5ED PUSH0 CODECOPY PUSH0 RETURN INVALID PUSH1 0x80 PUSH1 0x40 MSTORE CALLVALUE DUP1 ISZERO PUSH2 0xF JUMPI PUSH0 PUSH0 REVERT JUMPDEST POP PUSH1 0x4 CALLDATASIZE LT PUSH2 0x1E3 JUMPI PUSH0 CALLDATALOAD PUSH1 0xE0 SHR DUP1 PUSH4 0x5AABF7F1 GT PUSH2 0x10D JUMPI DUP1 PUSH4 0xBFF1F9E1 GT PUSH2 0xA0 JUMPI DUP1 PUSH4 0xE9E34A16 GT PUSH2 0x6F JUMPI DUP1 PUSH4 0xE9E34A16 EQ PUSH2 0x5E8 JUMPI DUP1 PUSH4 0xEC597E6F EQ PUSH2 0x606 JUMPI DUP1 PUSH4 0xF207564E EQ PUSH2 0x624 JUMPI DUP1 PUSH4 0xF5D74D93 EQ PUSH2 0x640 JUMPI PUSH2 0x1E3 JUMP JUMPDEST DUP1 PUSH4 0xBFF1F9E1 EQ PUSH2 0x54E JUMPI DUP1 PUSH4 0xC216212A EQ PUSH2 0x56C JUMPI DUP1 PUSH4 0xCB0E0D7D EQ PUSH2 0x59C JUMPI DUP1 PUSH4 0xD54D6DDB EQ PUSH2 0x5CC JUMPI PUSH2 0x1E3 JUMP JUMPDEST DUP1 PUSH4 0x7CDC65F2 GT PUSH2 0xDC JUMPI DUP1 PUSH4 0x7CDC65F2 EQ PUSH2 0x4C4 JUMPI DUP1 PUSH4 0x81A0B816 EQ PUSH2 0x4E2 JUMPI DUP1 PUSH4 0x88AFBE3E EQ PUSH2 0x500 JUMPI DUP1 PUSH4 0x8DA5CB5B EQ PUSH2 0x530 JUMPI PUSH2 0x1E3 JUMP JUMPDEST DUP1 PUSH4 0x5AABF7F1 EQ PUSH2 0x412 JUMPI DUP1 PUSH4 0x5EC64A44 EQ PUSH2 0x442 JUMPI DUP1 PUSH4 0x70C8D770 EQ PUSH2 0x472 JUMPI DUP1 PUSH4 0x78F6AD6D EQ PUSH2 0x4A6 JUMPI PUSH2 0x1E3 JUMP JUMPDEST DUP1 PUSH4 0x32FCD966 GT PUSH2 0x185 JUMPI DUP1 PUSH4 0x45977D03 GT PUSH2 0x154 JUMPI DUP1 PUSH4 0x45977D03 EQ PUSH2 0x383 JUMPI DUP1 PUSH4 0x46B9DECE EQ PUSH2 0x39F JUMPI DUP1 PUSH4 0x52A8C4C4 EQ PUSH2 0x3D6 JUMPI DUP1 PUSH4 0x58C7D352 EQ PUSH2 0x3F4 JUMPI PUSH2 0x1E3 JUMP JUMPDEST DUP1 PUSH4 0x32FCD966 EQ PUSH2 0x2DE JUMPI DUP1 PUSH4 0x365B98B2 EQ PUSH2 0x2FC JUMPI DUP1 PUSH4 0x375B43B4 EQ PUSH2 0x335 JUMPI DUP1 PUSH4 0x39AB3603 EQ PUSH2 0x353 JUMPI PUSH2 0x1E3 JUMP JUMPDEST DUP1 PUSH4 0x24513088 GT PUSH2 0x1C1 JUMPI DUP1 PUSH4 0x24513088 EQ PUSH2 0x253 JUMPI DUP1 PUSH4 0x2C831633 EQ PUSH2 0x284 JUMPI DUP1 PUSH4 0x2F48AB7D EQ PUSH2 0x2A2 JUMPI DUP1 PUSH4 0x32BC298C EQ PUSH2 0x2C0 JUMPI PUSH2 0x1E3 JUMP JUMPDEST DUP1 PUSH4 0x1BE02B2 EQ PUSH2 0x1E7 JUMPI DUP1 PUSH4 0x1C234A8 EQ PUSH2 0x205 JUMPI DUP1 PUSH4 0x18AB487F EQ PUSH2 0x223 JUMPI JUMPDEST PUSH0 PUSH0 REVERT JUMPDEST PUSH2 0x1EF PUSH2 0x65E JUMP JUMPDEST PUSH1 0x40 MLOAD PUSH2 0x1FC SWAP2 SWAP1 PUSH2 0x2610 JUMP JUMPDEST PUSH1 0x40 MLOAD DUP1 SWAP2 SUB SWAP1 RETURN JUMPDEST PUSH2 0x20D PUSH2 0x664 JUMP JUMPDEST PUSH1 0x40 MLOAD PUSH2 0x21A SWAP2 SWAP1 PUSH2 0x2610 JUMP JUMPDEST PUSH1 0x40 MLOAD DUP1 SWAP2 SUB SWAP1 RETURN JUMPDEST PUSH2 0x23D PUSH1 0x4 DUP1 CALLDATASIZE SUB DUP2 ADD SWAP1 PUSH2 0x238 SWAP2 SWAP1 PUSH2 0x2657 JUMP JUMPDEST PUSH2 0x66A JUMP JUMPDEST PUSH1 0x40 MLOAD PUSH2 0x24A SWAP2 SWAP1 PUSH2 0x2610 JUMP JUMPDEST PUSH1 0x40 MLOAD DUP1 SWAP2 SUB SWAP1 RETURN JUMPDEST PUSH2 0x26D PUSH1 0x4 DUP1 CALLDATASIZE SUB DUP2 ADD SWAP1 PUSH2 0x268 SWAP2 SWAP1 PUSH2 0x2657 JUMP JUMPDEST PUSH2 0x67F JUMP JUMPDEST PUSH1 0x40 MLOAD PUSH2 0x27B SWAP3 SWAP2 SWAP1 PUSH2 0x2682 JUMP JUMPDEST PUSH1 0x40 MLOAD DUP1 SWAP2 SUB SWAP1 RETURN JUMPDEST PUSH2 0x28C PUSH2 0x715 JUMP JUMPDEST PUSH1 0x40 MLOAD PUSH2 0x299 SWAP2 SWAP1 PUSH2 0x2610 JUMP JUMPDEST PUSH1 0x40 MLOAD DUP1 SWAP2 SUB SWAP1 RETURN JUMPDEST PUSH2 0x2AA PUSH2 0x71B JUMP JUMPDEST PUSH1 0x40 MLOAD PUSH2 0x2B7 SWAP2 SWAP1 PUSH2 0x2723 JUMP JUMPDEST PUSH1 0x40 MLOAD DUP1 SWAP2 SUB SWAP1 RETURN JUMPDEST PUSH2 0x2C8 PUSH2 0x73F JUMP JUMPDEST PUSH1 0x40 MLOAD PUSH2 0x2D5 SWAP2 SWAP1 PUSH2 0x2610 JUMP JUMPDEST PUSH1 0x40 MLOAD DUP1 SWAP2 SUB SWAP1 RETURN JUMPDEST PUSH2 0x2E6 PUSH2 0x746 JUMP JUMPDEST PUSH1 0x40 MLOAD PUSH2 0x2F3 SWAP2 SWAP1 PUSH2 0x2610 JUMP JUMPDEST PUSH1 0x40 MLOAD DUP1 SWAP2 SUB SWAP1 RETURN JUMPDEST PUSH2 0x316 PUSH1 0x4 DUP1 CALLDATASIZE SUB DUP2 ADD SWAP1 PUSH2 0x311 SWAP2 SWAP1 PUSH2 0x2657 JUMP JUMPDEST PUSH2 0x752 JUMP JUMPDEST PUSH1 0x40 MLOAD PUSH2 0x32C SWAP11 SWAP10 SWAP9 SWAP8 SWAP7 SWAP6 SWAP5 SWAP4 SWAP3 SWAP2 SWAP1 PUSH2 0x275C JUMP JUMPDEST PUSH1 0x40 MLOAD DUP1 SWAP2 SUB SWAP1 RETURN JUMPDEST PUSH2 0x33D PUSH2 0x7C1 JUMP JUMPDEST PUSH1 0x40 MLOAD PUSH2 0x34A SWAP2 SWAP1 PUSH2 0x2610 JUMP JUMPDEST PUSH1 0x40 MLOAD DUP1 SWAP2 SUB SWAP1 RETURN JUMPDEST PUSH2 0x36D PUSH1 0x4 DUP1 CALLDATASIZE SUB DUP2 ADD SWAP1 PUSH2 0x368 SWAP2 SWAP1 PUSH2 0x2657 JUMP JUMPDEST PUSH2 0x7C6 JUMP JUMPDEST PUSH1 0x40 MLOAD PUSH2 0x37A SWAP2 SWAP1 PUSH2 0x2610 JUMP JUMPDEST PUSH1 0x40 MLOAD DUP1 SWAP2 SUB SWAP1 RETURN JUMPDEST PUSH2 0x39D PUSH1 0x4 DUP1 CALLDATASIZE SUB DUP2 ADD SWAP1 PUSH2 0x398 SWAP2 SWAP1 PUSH2 0x2657 JUMP JUMPDEST PUSH2 0x7E6 JUMP JUMPDEST STOP JUMPDEST PUSH2 0x3B9 PUSH1 0x4 DUP1 CALLDATASIZE SUB DUP2 ADD SWAP1 PUSH2 0x3B4 SWAP2 SWAP1 PUSH2 0x2657 JUMP JUMPDEST PUSH2 0xB88 JUMP JUMPDEST PUSH1 0x40 MLOAD PUSH2 0x3CD SWAP9 SWAP8 SWAP7 SWAP6 SWAP5 SWAP4 SWAP3 SWAP2 SWAP1 PUSH2 0x27F6 JUMP JUMPDEST PUSH1 0x40 MLOAD DUP1 SWAP2 SUB SWAP1 RETURN JUMPDEST PUSH2 0x3DE PUSH2 0xBCC JUMP JUMPDEST PUSH1 0x40 MLOAD PUSH2 0x3EB SWAP2 SWAP1 PUSH2 0x2610 JUMP JUMPDEST PUSH1 0x40 MLOAD DUP1 SWAP2 SUB SWAP1 RETURN JUMPDEST PUSH2 0x3FC PUSH2 0xBD2 JUMP JUMPDEST PUSH1 0x40 MLOAD PUSH2 0x409 SWAP2 SWAP1 PUSH2 0x2610 JUMP JUMPDEST PUSH1 0x40 MLOAD DUP1 SWAP2 SUB SWAP1 RETURN JUMPDEST PUSH2 0x42C PUSH1 0x4 DUP1 CALLDATASIZE SUB DUP2 ADD SWAP1 PUSH2 0x427 SWAP2 SWAP1 PUSH2 0x2872 JUMP JUMPDEST PUSH2 0xBD7 JUMP JUMPDEST PUSH1 0x40 MLOAD PUSH2 0x439 SWAP2 SWAP1 PUSH2 0x2610 JUMP JUMPDEST PUSH1 0x40 MLOAD DUP1 SWAP2 SUB SWAP1 RETURN JUMPDEST PUSH2 0x45C PUSH1 0x4 DUP1 CALLDATASIZE SUB DUP2 ADD SWAP1 PUSH2 0x457 SWAP2 SWAP1 PUSH2 0x28C2 JUMP JUMPDEST PUSH2 0xC0D JUMP JUMPDEST PUSH1 0x40 MLOAD PUSH2 0x469 SWAP2 SWAP1 PUSH2 0x2610 JUMP JUMPDEST PUSH1 0x40 MLOAD DUP1 SWAP2 SUB SWAP1 RETURN JUMPDEST PUSH2 0x48C PUSH1 0x4 DUP1 CALLDATASIZE SUB DUP2 ADD SWAP1 PUSH2 0x487 SWAP2 SWAP1 PUSH2 0x28C2 JUMP JUMPDEST PUSH2 0xC38 JUMP JUMPDEST PUSH1 0x40 MLOAD PUSH2 0x49D SWAP6 SWAP5 SWAP4 SWAP3 SWAP2 SWAP1 PUSH2 0x2900 JUMP JUMPDEST PUSH1 0x40 MLOAD DUP1 SWAP2 SUB SWAP1 RETURN JUMPDEST PUSH2 0x4AE PUSH2 0xC84 JUMP JUMPDEST PUSH1 0x40 MLOAD PUSH2 0x4BB SWAP2 SWAP1 PUSH2 0x2610 JUMP JUMPDEST PUSH1 0x40 MLOAD DUP1 SWAP2 SUB SWAP1 RETURN JUMPDEST PUSH2 0x4CC PUSH2 0xC8A JUMP JUMPDEST PUSH1 0x40 MLOAD PUSH2 0x4D9 SWAP2 SWAP1 PUSH2 0x2951 JUMP JUMPDEST PUSH1 0x40 MLOAD DUP1 SWAP2 SUB SWAP1 RETURN JUMPDEST PUSH2 0x4EA PUSH2 0xCAF JUMP JUMPDEST PUSH1 0x40 MLOAD PUSH2 0x4F7 SWAP2 SWAP1 PUSH2 0x2951 JUMP JUMPDEST PUSH1 0x40 MLOAD DUP1 SWAP2 SUB SWAP1 RETURN JUMPDEST PUSH2 0x51A PUSH1 0x4 DUP1 CALLDATASIZE SUB DUP2 ADD SWAP1 PUSH2 0x515 SWAP2 SWAP1 PUSH2 0x2657 JUMP JUMPDEST PUSH2 0xCD4 JUMP JUMPDEST PUSH1 0x40 MLOAD PUSH2 0x527 SWAP2 SWAP1 PUSH2 0x2610 JUMP JUMPDEST PUSH1 0x40 MLOAD DUP1 SWAP2 SUB SWAP1 RETURN JUMPDEST PUSH2 0x538 PUSH2 0xCE9 JUMP JUMPDEST PUSH1 0x40 MLOAD PUSH2 0x545 SWAP2 SWAP1 PUSH2 0x2951 JUMP JUMPDEST PUSH1 0x40 MLOAD DUP1 SWAP2 SUB SWAP1 RETURN JUMPDEST PUSH2 0x556 PUSH2 0xD0E JUMP JUMPDEST PUSH1 0x40 MLOAD PUSH2 0x563 SWAP2 SWAP1 PUSH2 0x2610 JUMP JUMPDEST PUSH1 0x40 MLOAD DUP1 SWAP2 SUB SWAP1 RETURN JUMPDEST PUSH2 0x586 PUSH1 0x4 DUP1 CALLDATASIZE SUB DUP2 ADD SWAP1 PUSH2 0x581 SWAP2 SWAP1 PUSH2 0x2657 JUMP JUMPDEST PUSH2 0xD14 JUMP JUMPDEST PUSH1 0x40 MLOAD PUSH2 0x593 SWAP2 SWAP1 PUSH2 0x2610 JUMP JUMPDEST PUSH1 0x40 MLOAD DUP1 SWAP2 SUB SWAP1 RETURN JUMPDEST PUSH2 0x5B6 PUSH1 0x4 DUP1 CALLDATASIZE SUB DUP2 ADD SWAP1 PUSH2 0x5B1 SWAP2 SWAP1 PUSH2 0x2994 JUMP JUMPDEST PUSH2 0xD34 JUMP JUMPDEST PUSH1 0x40 MLOAD PUSH2 0x5C3 SWAP2 SWAP1 PUSH2 0x2610 JUMP JUMPDEST PUSH1 0x40 MLOAD DUP1 SWAP2 SUB SWAP1 RETURN JUMPDEST PUSH2 0x5E6 PUSH1 0x4 DUP1 CALLDATASIZE SUB DUP2 ADD SWAP1 PUSH2 0x5E1 SWAP2 SWAP1 PUSH2 0x2657 JUMP JUMPDEST PUSH2 0xD49 JUMP JUMPDEST STOP JUMPDEST PUSH2 0x5F0 PUSH2 0x10CD JUMP JUMPDEST PUSH1 0x40 MLOAD PUSH2 0x5FD SWAP2 SWAP1 PUSH2 0x2951 JUMP JUMPDEST PUSH1 0x40 MLOAD DUP1 SWAP2 SUB SWAP1 RETURN JUMPDEST PUSH2 0x60E PUSH2 0x10F2 JUMP JUMPDEST PUSH1 0x40 MLOAD PUSH2 0x61B SWAP2 SWAP1 PUSH2 0x2610 JUMP JUMPDEST PUSH1 0x40 MLOAD DUP1 SWAP2 SUB SWAP1 RETURN JUMPDEST PUSH2 0x63E PUSH1 0x4 DUP1 CALLDATASIZE SUB DUP2 ADD SWAP1 PUSH2 0x639 SWAP2 SWAP1 PUSH2 0x2657 JUMP JUMPDEST PUSH2 0x10F8 JUMP JUMPDEST STOP JUMPDEST PUSH2 0x648 PUSH2 0x163C JUMP JUMPDEST PUSH1 0x40 MLOAD PUSH2 0x655 SWAP2 SWAP1 PUSH2 0x2951 JUMP JUMPDEST PUSH1 0x40 MLOAD DUP1 SWAP2 SUB SWAP1 RETURN JUMPDEST PUSH1 0x13 SLOAD DUP2 JUMP JUMPDEST PUSH2 0x2710 DUP2 JUMP JUMPDEST PUSH1 0x10 PUSH1 0x20 MSTORE DUP1 PUSH0 MSTORE PUSH1 0x40 PUSH0 KECCAK256 PUSH0 SWAP2 POP SWAP1 POP SLOAD DUP2 JUMP JUMPDEST PUSH0 PUSH0 PUSH0 PUSH1 0x9 PUSH0 DUP6 DUP2 MSTORE PUSH1 0x20 ADD SWAP1 DUP2 MSTORE PUSH1 0x20 ADD PUSH0 KECCAK256 PUSH1 0x3 ADD SLOAD SUB PUSH2 0x6A7 JUMPI PUSH0 PUSH0 SWAP2 POP SWAP2 POP PUSH2 0x710 JUMP JUMPDEST PUSH0 PUSH1 0xF SLOAD SWAP1 POP PUSH0 PUSH1 0x10 PUSH0 DUP7 DUP2 MSTORE PUSH1 0x20 ADD SWAP1 DUP2 MSTORE PUSH1 0x20 ADD PUSH0 KECCAK256 SLOAD SWAP1 POP DUP1 DUP3 GT PUSH2 0x6D6 JUMPI PUSH0 PUSH0 SWAP4 POP SWAP4 POP POP POP PUSH2 0x710 JUMP JUMPDEST PUSH0 PUSH8 0xDE0B6B3A7640000 DUP3 DUP5 PUSH2 0x6EC SWAP2 SWAP1 PUSH2 0x29EC JUMP JUMPDEST PUSH2 0x6F6 SWAP2 SWAP1 PUSH2 0x2A4C JUMP JUMPDEST SWAP1 POP PUSH0 PUSH2 0x703 DUP8 DUP4 PUSH2 0x1661 JUMP JUMPDEST SWAP1 POP DUP2 DUP2 SWAP6 POP SWAP6 POP POP POP POP POP JUMPDEST SWAP2 POP SWAP2 JUMP JUMPDEST PUSH1 0x11 SLOAD DUP2 JUMP JUMPDEST PUSH0 PUSH0 SWAP1 SLOAD SWAP1 PUSH2 0x100 EXP SWAP1 DIV PUSH20 0xFFFFFFFFFFFFFFFFFFFFFFFFFFFFFFFFFFFFFFFF AND DUP2 JUMP JUMPDEST PUSH3 0x15180 DUP2 JUMP JUMPDEST PUSH8 0xDE0B6B3A7640000 DUP2 JUMP JUMPDEST PUSH1 0x9 PUSH1 0x20 MSTORE DUP1 PUSH0 MSTORE PUSH1 0x40 PUSH0 KECCAK256 PUSH0 SWAP2 POP SWAP1 POP DUP1 PUSH0 ADD PUSH0 SWAP1 SLOAD SWAP1 PUSH2 0x100 EXP SWAP1 DIV PUSH20 0xFFFFFFFFFFFFFFFFFFFFFFFFFFFFFFFFFFFFFFFF AND SWAP1 DUP1 PUSH1 0x2 ADD SLOAD SWAP1 DUP1 PUSH1 0x3 ADD SLOAD SWAP1 DUP1 PUSH1 0x4 ADD SLOAD SWAP1 DUP1 PUSH1 0x5 ADD SLOAD SWAP1 DUP1 PUSH1 0x6 ADD SLOAD SWAP1 DUP1 PUSH1 0x7 ADD SLOAD SWAP1 DUP1 PUSH1 0x8 ADD SLOAD SWAP1 DUP1 PUSH1 0x9 ADD SLOAD SWAP1 DUP1 PUSH1 0xA ADD SLOAD SWAP1 POP DUP11 JUMP JUMPDEST PUSH1 0x19 DUP2 JUMP JUMPDEST PUSH1 0x15 DUP2 DUP2 SLOAD DUP2 LT PUSH2 0x7D5 JUMPI PUSH0 DUP1 REVERT JUMPDEST SWAP1 PUSH0 MSTORE PUSH1 0x20 PUSH0 KECCAK256 ADD PUSH0 SWAP2 POP SWAP1 POP SLOAD DUP2 JUMP JUMPDEST PUSH0 PUSH1 0x9 PUSH0 DUP4 DUP2 MSTORE PUSH1 0x20 ADD SWAP1 DUP2 MSTORE PUSH1 0x20 ADD PUSH0 KECCAK256 SWAP1 POP CALLER PUSH20 0xFFFFFFFFFFFFFFFFFFFFFFFFFFFFFFFFFFFFFFFF AND DUP2 PUSH0 ADD PUSH0 SWAP1 SLOAD SWAP1 PUSH2 0x100 EXP SWAP1 DIV PUSH20 0xFFFFFFFFFFFFFFFFFFFFFFFFFFFFFFFFFFFFFFFF AND PUSH20 0xFFFFFFFFFFFFFFFFFFFFFFFFFFFFFFFFFFFFFFFF AND EQ PUSH2 0x88A JUMPI PUSH1 0x40 MLOAD PUSH32 0x8C379A000000000000000000000000000000000000000000000000000000000 DUP2 MSTORE PUSH1 0x4 ADD PUSH2 0x881 SWAP1 PUSH2 0x2AD6 JUMP JUMPDEST PUSH1 0x40 MLOAD DUP1 SWAP2 SUB SWAP1 REVERT JUMPDEST PUSH1 0xF DUP2 PUSH1 0x6 ADD SLOAD LT PUSH2 0x8D1 JUMPI PUSH1 0x40 MLOAD PUSH32 0x8C379A000000000000000000000000000000000000000000000000000000000 DUP2 MSTORE PUSH1 0x4 ADD PUSH2 0x8C8 SWAP1 PUSH2 0x2B3E JUMP JUMPDEST PUSH1 0x40 MLOAD DUP1 SWAP2 SUB SWAP1 REVERT JUMPDEST PUSH0 DUP2 PUSH1 0x6 ADD SLOAD SWAP1 POP PUSH0 PUSH1 0x7 DUP3 DUP2 SLOAD DUP2 LT PUSH2 0x8EE JUMPI PUSH2 0x8ED PUSH2 0x2B5C JUMP JUMPDEST JUMPDEST SWAP1 PUSH0 MSTORE PUSH1 0x20 PUSH0 KECCAK256 ADD SLOAD SWAP1 POP PUSH0 PUSH0 SWAP1 SLOAD SWAP1 PUSH2 0x100 EXP SWAP1 DIV PUSH20 0xFFFFFFFFFFFFFFFFFFFFFFFFFFFFFFFFFFFFFFFF AND PUSH20 0xFFFFFFFFFFFFFFFFFFFFFFFFFFFFFFFFFFFFFFFF AND PUSH4 0x23B872DD CALLER ADDRESS DUP5 PUSH1 0x40 MLOAD DUP5 PUSH4 0xFFFFFFFF AND PUSH1 0xE0 SHL DUP2 MSTORE PUSH1 0x4 ADD PUSH2 0x956 SWAP4 SWAP3 SWAP2 SWAP1 PUSH2 0x2B89 JUMP JUMPDEST PUSH1 0x20 PUSH1 0x40 MLOAD DUP1 DUP4 SUB DUP2 PUSH0 DUP8 GAS CALL ISZERO DUP1 ISZERO PUSH2 0x972 JUMPI RETURNDATASIZE PUSH0 PUSH0 RETURNDATACOPY RETURNDATASIZE PUSH0 REVERT JUMPDEST POP POP POP POP PUSH1 0x40 MLOAD RETURNDATASIZE PUSH1 0x1F NOT PUSH1 0x1F DUP3 ADD AND DUP3 ADD DUP1 PUSH1 0x40 MSTORE POP DUP2 ADD SWAP1 PUSH2 0x996 SWAP2 SWAP1 PUSH2 0x2BF3 JUMP JUMPDEST POP PUSH1 0x1 DUP4 PUSH1 0x6 ADD PUSH0 DUP3 DUP3 SLOAD PUSH2 0x9AB SWAP2 SWAP1 PUSH2 0x2C1E JUMP JUMPDEST SWAP3 POP POP DUP2 SWAP1 SSTORE POP DUP1 DUP4 PUSH1 0x9 ADD PUSH0 DUP3 DUP3 SLOAD PUSH2 0x9C5 SWAP2 SWAP1 PUSH2 0x2C1E JUMP JUMPDEST SWAP3 POP POP DUP2 SWAP1 SSTORE POP DUP3 PUSH1 0x1 ADD PUSH1 0x40 MLOAD DUP1 PUSH1 0x60 ADD PUSH1 0x40 MSTORE DUP1 DUP4 DUP2 MSTORE PUSH1 0x20 ADD PUSH0 DUP2 MSTORE PUSH1 0x20 ADD TIMESTAMP DUP2 MSTORE POP SWAP1 DUP1 PUSH1 0x1 DUP2 SLOAD ADD DUP1 DUP3 SSTORE DUP1 SWAP2 POP POP PUSH1 0x1 SWAP1 SUB SWAP1 PUSH0 MSTORE PUSH1 0x20 PUSH0 KECCAK256 SWAP1 PUSH1 0x3 MUL ADD PUSH0 SWAP1 SWAP2 SWAP1 SWAP2 SWAP1 SWAP2 POP PUSH0 DUP3 ADD MLOAD DUP2 PUSH0 ADD SSTORE PUSH1 0x20 DUP3 ADD MLOAD DUP2 PUSH1 0x1 ADD SSTORE PUSH1 0x40 DUP3 ADD MLOAD DUP2 PUSH1 0x2 ADD SSTORE POP POP PUSH0 PUSH1 0x64 PUSH1 0x5 DUP4 PUSH2 0xA3F SWAP2 SWAP1 PUSH2 0x2C51 JUMP JUMPDEST PUSH2 0xA49 SWAP2 SWAP1 PUSH2 0x2A4C JUMP JUMPDEST SWAP1 POP PUSH0 PUSH1 0x64 PUSH1 0x23 DUP5 PUSH2 0xA5B SWAP2 SWAP1 PUSH2 0x2C51 JUMP JUMPDEST PUSH2 0xA65 SWAP2 SWAP1 PUSH2 0x2A4C JUMP JUMPDEST SWAP1 POP PUSH2 0xA70 DUP2 PUSH2 0x1707 JUMP JUMPDEST PUSH2 0xA79 DUP3 PUSH2 0x1775 JUMP JUMPDEST PUSH0 PUSH1 0x64 PUSH1 0xF DUP6 PUSH2 0xA89 SWAP2 SWAP1 PUSH2 0x2C51 JUMP JUMPDEST PUSH2 0xA93 SWAP2 SWAP1 PUSH2 0x2A4C JUMP JUMPDEST SWAP1 POP PUSH2 0xAB1 DUP7 PUSH1 0x4 ADD SLOAD DUP9 DUP4 PUSH1 0x1 DUP10 PUSH2 0xAAC SWAP2 SWAP1 PUSH2 0x2C1E JUMP JUMPDEST PUSH2 0x19C4 JUMP JUMPDEST PUSH0 PUSH1 0x64 PUSH1 0xF DUP7 PUSH2 0xAC1 SWAP2 SWAP1 PUSH2 0x2C51 JUMP JUMPDEST PUSH2 0xACB SWAP2 SWAP1 PUSH2 0x2A4C JUMP JUMPDEST SWAP1 POP PUSH2 0xAE9 DUP8 PUSH1 0x5 ADD SLOAD DUP10 DUP4 PUSH1 0x1 DUP11 PUSH2 0xAE4 SWAP2 SWAP1 PUSH2 0x2C1E JUMP JUMPDEST PUSH2 0x1C7C JUMP JUMPDEST PUSH0 PUSH1 0x64 PUSH1 0xF DUP8 PUSH2 0xAF9 SWAP2 SWAP1 PUSH2 0x2C51 JUMP JUMPDEST PUSH2 0xB03 SWAP2 SWAP1 PUSH2 0x2A4C JUMP JUMPDEST SWAP1 POP PUSH2 0xB22 DUP9 PUSH1 0x5 ADD SLOAD DUP11 DUP4 PUSH1 0x1 DUP12 PUSH2 0xB1C SWAP2 SWAP1 PUSH2 0x2C1E JUMP JUMPDEST DUP12 PUSH2 0x1FD8 JUMP JUMPDEST DUP9 CALLER PUSH20 0xFFFFFFFFFFFFFFFFFFFFFFFFFFFFFFFFFFFFFFFF AND PUSH32 0x13EA485B1D8135315E770779887880798AC429F039A7C5CA3FF5F6F99A95B587 PUSH1 0x1 DUP11 PUSH2 0xB68 SWAP2 SWAP1 PUSH2 0x2C1E JUMP JUMPDEST PUSH1 0x40 MLOAD PUSH2 0xB75 SWAP2 SWAP1 PUSH2 0x2610 JUMP JUMPDEST PUSH1 0x40 MLOAD DUP1 SWAP2 SUB SWAP1 LOG3 POP POP POP POP POP POP POP POP POP JUMP JUMPDEST PUSH1 0xA PUSH1 0x20 MSTORE DUP1 PUSH0 MSTORE PUSH1 0x40 PUSH0 KECCAK256 PUSH0 SWAP2 POP SWAP1 POP DUP1 PUSH0 ADD SLOAD SWAP1 DUP1 PUSH1 0x1 ADD SLOAD SWAP1 DUP1 PUSH1 0x2 ADD SLOAD SWAP1 DUP1 PUSH1 0x3 ADD SLOAD SWAP1 DUP1 PUSH1 0x4 ADD SLOAD SWAP1 DUP1 PUSH1 0x5 ADD SLOAD SWAP1 DUP1 PUSH1 0x6 ADD SLOAD SWAP1 DUP1 PUSH1 0x7 ADD SLOAD SWAP1 POP DUP9 JUMP JUMPDEST PUSH1 0x14 SLOAD DUP2 JUMP JUMPDEST PUSH1 0xA DUP2 JUMP JUMPDEST PUSH1 0xC PUSH1 0x20 MSTORE DUP3 PUSH0 MSTORE PUSH1 0x40 PUSH0 KECCAK256 PUSH1 0x20 MSTORE DUP2 PUSH0 MSTORE PUSH1 0x40 PUSH0 KECCAK256 DUP2 DUP2 SLOAD DUP2 LT PUSH2 0xBFA JUMPI PUSH0 DUP1 REVERT JUMPDEST SWAP1 PUSH0 MSTORE PUSH1 0x20 PUSH0 KECCAK256 ADD PUSH0 SWAP3 POP SWAP3 POP POP POP SLOAD DUP2 JUMP JUMPDEST PUSH1 0xE PUSH1 0x20 MSTORE DUP2 PUSH0 MSTORE PUSH1 0x40 PUSH0 KECCAK256 DUP2 DUP2 SLOAD DUP2 LT PUSH2 0xC26 JUMPI PUSH0 DUP1 REVERT JUMPDEST SWAP1 PUSH0 MSTORE PUSH1 0x20 PUSH0 KECCAK256 ADD PUSH0 SWAP2 POP SWAP2 POP POP SLOAD DUP2 JUMP JUMPDEST PUSH1 0xB PUSH1 0x20 MSTORE DUP2 PUSH0 MSTORE PUSH1 0x40 PUSH0 KECCAK256 DUP2 DUP2 SLOAD DUP2 LT PUSH2 0xC51 JUMPI PUSH0 DUP1 REVERT JUMPDEST SWAP1 PUSH0 MSTORE PUSH1 0x20 PUSH0 KECCAK256 SWAP1 PUSH1 0x5 MUL ADD PUSH0 SWAP2 POP SWAP2 POP POP DUP1 PUSH0 ADD SLOAD SWAP1 DUP1 PUSH1 0x1 ADD SLOAD SWAP1 DUP1 PUSH1 0x2 ADD SLOAD SWAP1 DUP1 PUSH1 0x3 ADD SLOAD SWAP1 DUP1 PUSH1 0x4 ADD SLOAD SWAP1 POP DUP6 JUMP JUMPDEST PUSH1 0xF SLOAD DUP2 JUMP JUMPDEST PUSH1 0x2 PUSH0 SWAP1 SLOAD SWAP1 PUSH2 0x100 EXP SWAP1 DIV PUSH20 0xFFFFFFFFFFFFFFFFFFFFFFFFFFFFFFFFFFFFFFFF AND DUP2 JUMP JUMPDEST PUSH1 0x12 PUSH0 SWAP1 SLOAD SWAP1 PUSH2 0x100 EXP SWAP1 DIV PUSH20 0xFFFFFFFFFFFFFFFFFFFFFFFFFFFFFFFFFFFFFFFF AND DUP2 JUMP JUMPDEST PUSH1 0xD PUSH1 0x20 MSTORE DUP1 PUSH0 MSTORE PUSH1 0x40 PUSH0 KECCAK256 PUSH0 SWAP2 POP SWAP1 POP SLOAD DUP2 JUMP JUMPDEST PUSH1 0x1 PUSH0 SWAP1 SLOAD SWAP1 PUSH2 0x100 EXP SWAP1 DIV PUSH20 0xFFFFFFFFFFFFFFFFFFFFFFFFFFFFFFFFFFFFFFFF AND DUP2 JUMP JUMPDEST PUSH1 0x6 SLOAD DUP2 JUMP JUMPDEST PUSH1 0x7 DUP2 DUP2 SLOAD DUP2 LT PUSH2 0xD23 JUMPI PUSH0 DUP1 REVERT JUMPDEST SWAP1 PUSH0 MSTORE PUSH1 0x20 PUSH0 KECCAK256 ADD PUSH0 SWAP2 POP SWAP1 POP SLOAD DUP2 JUMP JUMPDEST PUSH1 0x8 PUSH1 0x20 MSTORE DUP1 PUSH0 MSTORE PUSH1 0x40 PUSH0 KECCAK256 PUSH0 SWAP2 POP SWAP1 POP SLOAD DUP2 JUMP JUMPDEST PUSH0 PUSH1 0x9 PUSH0 DUP4 DUP2 MSTORE PUSH1 0x20 ADD SWAP1 DUP2 MSTORE PUSH1 0x20 ADD PUSH0 KECCAK256 SWAP1 POP PUSH0 DUP2 PUSH1 0x3 ADD SLOAD SUB PUSH2 0xDA3 JUMPI PUSH1 0x40 MLOAD PUSH32 0x8C379A000000000000000000000000000000000000000000000000000000000 DUP2 MSTORE PUSH1 0x4 ADD PUSH2 0xD9A SWAP1 PUSH2 0x2CDC JUMP JUMPDEST PUSH1 0x40 MLOAD DUP1 SWAP2 SUB SWAP1 REVERT JUMPDEST CALLER PUSH20 0xFFFFFFFFFFFFFFFFFFFFFFFFFFFFFFFFFFFFFFFF AND DUP2 PUSH0 ADD PUSH0 SWAP1 SLOAD SWAP1 PUSH2 0x100 EXP SWAP1 DIV PUSH20 0xFFFFFFFFFFFFFFFFFFFFFFFFFFFFFFFFFFFFFFFF AND PUSH20 0xFFFFFFFFFFFFFFFFFFFFFFFFFFFFFFFFFFFFFFFF AND EQ PUSH2 0xE33 JUMPI PUSH1 0x40 MLOAD PUSH32 0x8C379A000000000000000000000000000000000000000000000000000000000 DUP2 MSTORE PUSH1 0x4 ADD PUSH2 0xE2A SWAP1 PUSH2 0x2AD6 JUMP JUMPDEST PUSH1 0x40 MLOAD DUP1 SWAP2 SUB SWAP1 REVERT JUMPDEST PUSH0 PUSH1 0xF SLOAD SWAP1 POP PUSH0 PUSH1 0x10 PUSH0 DUP6 DUP2 MSTORE PUSH1 0x20 ADD SWAP1 DUP2 MSTORE PUSH1 0x20 ADD PUSH0 KECCAK256 SLOAD SWAP1 POP DUP1 DUP3 SUB PUSH2 0xE5D JUMPI POP POP POP PUSH2 0x10CA JUMP JUMPDEST PUSH0 PUSH8 0xDE0B6B3A7640000 DUP3 DUP5 PUSH2 0xE73 SWAP2 SWAP1 PUSH2 0x29EC JUMP JUMPDEST PUSH2 0xE7D SWAP2 SWAP1 PUSH2 0x2A4C JUMP JUMPDEST SWAP1 POP PUSH0 DUP2 SUB PUSH2 0xEA5 JUMPI DUP3 PUSH1 0x10 PUSH0 DUP8 DUP2 MSTORE PUSH1 0x20 ADD SWAP1 DUP2 MSTORE PUSH1 0x20 ADD PUSH0 KECCAK256 DUP2 SWAP1 SSTORE POP POP POP POP POP PUSH2 0x10CA JUMP JUMPDEST PUSH0 PUSH2 0xEB0 DUP7 DUP4 PUSH2 0x1661 JUMP JUMPDEST SWAP1 POP DUP4 PUSH1 0x10 PUSH0 DUP9 DUP2 MSTORE PUSH1 0x20 ADD SWAP1 DUP2 MSTORE PUSH1 0x20 ADD PUSH0 KECCAK256 DUP2 SWAP1 SSTORE POP PUSH0 DUP2 GT ISZERO PUSH2 0x10A7 JUMPI PUSH0 PUSH1 0xA PUSH0 DUP9 DUP2 MSTORE PUSH1 0x20 ADD SWAP1 DUP2 MSTORE PUSH1 0x20 ADD PUSH0 KECCAK256 SWAP1 POP DUP2 DUP2 PUSH0 ADD PUSH0 DUP3 DUP3 SLOAD PUSH2 0xEF6 SWAP2 SWAP1 PUSH2 0x2C1E JUMP JUMPDEST SWAP3 POP POP DUP2 SWAP1 SSTORE POP DUP2 DUP2 PUSH1 0x7 ADD PUSH0 DUP3 DUP3 SLOAD PUSH2 0xF10 SWAP2 SWAP1 PUSH2 0x2C1E JUMP JUMPDEST SWAP3 POP POP DUP2 SWAP1 SSTORE POP PUSH1 0xB PUSH0 DUP9 DUP2 MSTORE PUSH1 0x20 ADD SWAP1 DUP2 MSTORE PUSH1 0x20 ADD PUSH0 KECCAK256 PUSH1 0x40 MLOAD DUP1 PUSH1 0xA0 ADD PUSH1 0x40 MSTORE DUP1 DUP10 DUP2 MSTORE PUSH1 0x20 ADD DUP5 DUP2 MSTORE PUSH1 0x20 ADD PUSH1 0x1 DUP2 MSTORE PUSH1 0x20 ADD TIMESTAMP DUP2 MSTORE PUSH1 0x20 ADD PUSH1 0x9 DUP2 MSTORE POP SWAP1 DUP1 PUSH1 0x1 DUP2 SLOAD ADD DUP1 DUP3 SSTORE DUP1 SWAP2 POP POP PUSH1 0x1 SWAP1 SUB SWAP1 PUSH0 MSTORE PUSH1 0x20 PUSH0 KECCAK256 SWAP1 PUSH1 0x5 MUL ADD PUSH0 SWAP1 SWAP2 SWAP1 SWAP2 SWAP1 SWAP2 POP PUSH0 DUP3 ADD MLOAD DUP2 PUSH0 ADD SSTORE PUSH1 0x20 DUP3 ADD MLOAD DUP2 PUSH1 0x1 ADD SSTORE PUSH1 0x40 DUP3 ADD MLOAD DUP2 PUSH1 0x2 ADD SSTORE PUSH1 0x60 DUP3 ADD MLOAD DUP2 PUSH1 0x3 ADD SSTORE PUSH1 0x80 DUP3 ADD MLOAD DUP2 PUSH1 0x4 ADD SSTORE POP POP PUSH0 PUSH0 SWAP1 SLOAD SWAP1 PUSH2 0x100 EXP SWAP1 DIV PUSH20 0xFFFFFFFFFFFFFFFFFFFFFFFFFFFFFFFFFFFFFFFF AND PUSH20 0xFFFFFFFFFFFFFFFFFFFFFFFFFFFFFFFFFFFFFFFF AND PUSH4 0xA9059CBB DUP8 PUSH0 ADD PUSH0 SWAP1 SLOAD SWAP1 PUSH2 0x100 EXP SWAP1 DIV PUSH20 0xFFFFFFFFFFFFFFFFFFFFFFFFFFFFFFFFFFFFFFFF AND DUP5 PUSH1 0x40 MLOAD DUP4 PUSH4 0xFFFFFFFF AND PUSH1 0xE0 SHL DUP2 MSTORE PUSH1 0x4 ADD PUSH2 0x1026 SWAP3 SWAP2 SWAP1 PUSH2 0x2CFA JUMP JUMPDEST PUSH1 0x20 PUSH1 0x40 MLOAD DUP1 DUP4 SUB DUP2 PUSH0 DUP8 GAS CALL ISZERO DUP1 ISZERO PUSH2 0x1042 JUMPI RETURNDATASIZE PUSH0 PUSH0 RETURNDATACOPY RETURNDATASIZE PUSH0 REVERT JUMPDEST POP POP POP POP PUSH1 0x40 MLOAD RETURNDATASIZE PUSH1 0x1F NOT PUSH1 0x1F DUP3 ADD AND DUP3 ADD DUP1 PUSH1 0x40 MSTORE POP DUP2 ADD SWAP1 PUSH2 0x1066 SWAP2 SWAP1 PUSH2 0x2BF3 JUMP JUMPDEST PUSH2 0x10A5 JUMPI PUSH1 0x40 MLOAD PUSH32 0x8C379A000000000000000000000000000000000000000000000000000000000 DUP2 MSTORE PUSH1 0x4 ADD PUSH2 0x109C SWAP1 PUSH2 0x2D6B JUMP JUMPDEST PUSH1 0x40 MLOAD DUP1 SWAP2 SUB SWAP1 REVERT JUMPDEST POP JUMPDEST DUP1 DUP3 GT ISZERO PUSH2 0x10C4 JUMPI PUSH2 0x10C3 DUP2 DUP4 PUSH2 0x10BE SWAP2 SWAP1 PUSH2 0x29EC JUMP JUMPDEST PUSH2 0x1775 JUMP JUMPDEST JUMPDEST POP POP POP POP POP JUMPDEST POP JUMP JUMPDEST PUSH1 0x3 PUSH0 SWAP1 SLOAD SWAP1 PUSH2 0x100 EXP SWAP1 DIV PUSH20 0xFFFFFFFFFFFFFFFFFFFFFFFFFFFFFFFFFFFFFFFF AND DUP2 JUMP JUMPDEST PUSH1 0x5 SLOAD DUP2 JUMP JUMPDEST PUSH0 PUSH1 0x8 PUSH0 CALLER PUSH20 0xFFFFFFFFFFFFFFFFFFFFFFFFFFFFFFFFFFFFFFFF AND PUSH20 0xFFFFFFFFFFFFFFFFFFFFFFFFFFFFFFFFFFFFFFFF AND DUP2 MSTORE PUSH1 0x20 ADD SWAP1 DUP2 MSTORE PUSH1 0x20 ADD PUSH0 KECCAK256 SLOAD EQ PUSH2 0x1177 JUMPI PUSH1 0x40 MLOAD PUSH32 0x8C379A000000000000000000000000000000000000000000000000000000000 DUP2 MSTORE PUSH1 0x4 ADD PUSH2 0x116E SWAP1 PUSH2 0x2DD3 JUMP JUMPDEST PUSH1 0x40 MLOAD DUP1 SWAP2 SUB SWAP1 REVERT JUMPDEST PUSH0 PUSH1 0x9 PUSH0 DUP4 DUP2 MSTORE PUSH1 0x20 ADD SWAP1 DUP2 MSTORE PUSH1 0x20 ADD PUSH0 KECCAK256 PUSH1 0x3 ADD SLOAD GT PUSH2 0x11CD JUMPI PUSH1 0x40 MLOAD PUSH32 0x8C379A000000000000000000000000000000000000000000000000000000000 DUP2 MSTORE PUSH1 0x4 ADD PUSH2 0x11C4 SWAP1 PUSH2 0x2E3B JUMP JUMPDEST PUSH1 0x40 MLOAD DUP1 SWAP2 SUB SWAP1 REVERT JUMPDEST PUSH0 PUSH0 SWAP1 SLOAD SWAP1 PUSH2 0x100 EXP SWAP1 DIV PUSH20 0xFFFFFFFFFFFFFFFFFFFFFFFFFFFFFFFFFFFFFFFF AND PUSH20 0xFFFFFFFFFFFFFFFFFFFFFFFFFFFFFFFFFFFFFFFF AND PUSH4 0x23B872DD CALLER ADDRESS PUSH1 0x7 PUSH0 DUP2 SLOAD DUP2 LT PUSH2 0x121F JUMPI PUSH2 0x121E PUSH2 0x2B5C JUMP JUMPDEST JUMPDEST SWAP1 PUSH0 MSTORE PUSH1 0x20 PUSH0 KECCAK256 ADD SLOAD PUSH1 0x40 MLOAD DUP5 PUSH4 0xFFFFFFFF AND PUSH1 0xE0 SHL DUP2 MSTORE PUSH1 0x4 ADD PUSH2 0x1246 SWAP4 SWAP3 SWAP2 SWAP1 PUSH2 0x2B89 JUMP JUMPDEST PUSH1 0x20 PUSH1 0x40 MLOAD DUP1 DUP4 SUB DUP2 PUSH0 DUP8 GAS CALL ISZERO DUP1 ISZERO PUSH2 0x1262 JUMPI RETURNDATASIZE PUSH0 PUSH0 RETURNDATACOPY RETURNDATASIZE PUSH0 REVERT JUMPDEST POP POP POP POP PUSH1 0x40 MLOAD RETURNDATASIZE PUSH1 0x1F NOT PUSH1 0x1F DUP3 ADD AND DUP3 ADD DUP1 PUSH1 0x40 MSTORE POP DUP2 ADD SWAP1 PUSH2 0x1286 SWAP2 SWAP1 PUSH2 0x2BF3 JUMP JUMPDEST POP PUSH0 PUSH1 0x5 PUSH1 0x6 SLOAD PUSH2 0x1297 SWAP2 SWAP1 PUSH2 0x2C51 JUMP JUMPDEST PUSH1 0x5 SLOAD PUSH2 0x12A4 SWAP2 SWAP1 PUSH2 0x2C1E JUMP JUMPDEST SWAP1 POP DUP1 PUSH1 0x8 PUSH0 CALLER PUSH20 0xFFFFFFFFFFFFFFFFFFFFFFFFFFFFFFFFFFFFFFFF AND PUSH20 0xFFFFFFFFFFFFFFFFFFFFFFFFFFFFFFFFFFFFFFFF AND DUP2 MSTORE PUSH1 0x20 ADD SWAP1 DUP2 MSTORE PUSH1 0x20 ADD PUSH0 KECCAK256 DUP2 SWAP1 SSTORE POP PUSH0 PUSH1 0x9 PUSH0 DUP4 DUP2 MSTORE PUSH1 0x20 ADD SWAP1 DUP2 MSTORE PUSH1 0x20 ADD PUSH0 KECCAK256 SWAP1 POP CALLER DUP2 PUSH0 ADD PUSH0 PUSH2 0x100 EXP DUP2 SLOAD DUP2 PUSH20 0xFFFFFFFFFFFFFFFFFFFFFFFFFFFFFFFFFFFFFFFF MUL NOT AND SWAP1 DUP4 PUSH20 0xFFFFFFFFFFFFFFFFFFFFFFFFFFFFFFFFFFFFFFFF AND MUL OR SWAP1 SSTORE POP TIMESTAMP DUP2 PUSH1 0x2 ADD DUP2 SWAP1 SSTORE POP DUP2 DUP2 PUSH1 0x3 ADD DUP2 SWAP1 SSTORE POP DUP3 DUP2 PUSH1 0x4 ADD DUP2 SWAP1 SSTORE POP PUSH1 0x1 DUP2 PUSH1 0x6 ADD DUP2 SWAP1 SSTORE POP PUSH1 0x7 PUSH0 DUP2 SLOAD DUP2 LT PUSH2 0x1376 JUMPI PUSH2 0x1375 PUSH2 0x2B5C JUMP JUMPDEST JUMPDEST SWAP1 PUSH0 MSTORE PUSH1 0x20 PUSH0 KECCAK256 ADD SLOAD DUP2 PUSH1 0x9 ADD DUP2 SWAP1 SSTORE POP TIMESTAMP DUP2 PUSH1 0xA ADD DUP2 SWAP1 SSTORE POP PUSH1 0x1 PUSH1 0x9 PUSH0 DUP6 DUP2 MSTORE PUSH1 0x20 ADD SWAP1 DUP2 MSTORE PUSH1 0x20 ADD PUSH0 KECCAK256 PUSH1 0x7 ADD PUSH0 DUP3 DUP3 SLOAD PUSH2 0x13B4 SWAP2 SWAP1 PUSH2 0x2C1E JUMP JUMPDEST SWAP3 POP POP DUP2 SWAP1 SSTORE POP PUSH1 0xE PUSH0 DUP5 DUP2 MSTORE PUSH1 0x20 ADD SWAP1 DUP2 MSTORE PUSH1 0x20 ADD PUSH0 KECCAK256 DUP3 SWAP1 DUP1 PUSH1 0x1 DUP2 SLOAD ADD DUP1 DUP3 SSTORE DUP1 SWAP2 POP POP PUSH1 0x1 SWAP1 SUB SWAP1 PUSH0 MSTORE PUSH1 0x20 PUSH0 KECCAK256 ADD PUSH0 SWAP1 SWAP2 SWAP1 SWAP2 SWAP1 SWAP2 POP SSTORE PUSH1 0x15 DUP3 SWAP1 DUP1 PUSH1 0x1 DUP2 SLOAD ADD DUP1 DUP3 SSTORE DUP1 SWAP2 POP POP PUSH1 0x1 SWAP1 SUB SWAP1 PUSH0 MSTORE PUSH1 0x20 PUSH0 KECCAK256 ADD PUSH0 SWAP1 SWAP2 SWAP1 SWAP2 SWAP1 SWAP2 POP SSTORE PUSH1 0xF SLOAD PUSH1 0x10 PUSH0 DUP5 DUP2 MSTORE PUSH1 0x20 ADD SWAP1 DUP2 MSTORE PUSH1 0x20 ADD PUSH0 KECCAK256 DUP2 SWAP1 SSTORE POP PUSH2 0x1438 DUP3 DUP5 PUSH2 0x213E JUMP JUMPDEST DUP1 PUSH1 0x1 ADD PUSH1 0x40 MLOAD DUP1 PUSH1 0x60 ADD PUSH1 0x40 MSTORE DUP1 PUSH1 0x7 PUSH0 DUP2 SLOAD DUP2 LT PUSH2 0x145B JUMPI PUSH2 0x145A PUSH2 0x2B5C JUMP JUMPDEST JUMPDEST SWAP1 PUSH0 MSTORE PUSH1 0x20 PUSH0 KECCAK256 ADD SLOAD DUP2 MSTORE PUSH1 0x20 ADD PUSH0 DUP2 MSTORE PUSH1 0x20 ADD TIMESTAMP DUP2 MSTORE POP SWAP1 DUP1 PUSH1 0x1 DUP2 SLOAD ADD DUP1 DUP3 SSTORE DUP1 SWAP2 POP POP PUSH1 0x1 SWAP1 SUB SWAP1 PUSH0 MSTORE PUSH1 0x20 PUSH0 KECCAK256 SWAP1 PUSH1 0x3 MUL ADD PUSH0 SWAP1 SWAP2 SWAP1 SWAP2 SWAP1 SWAP2 POP PUSH0 DUP3 ADD MLOAD DUP2 PUSH0 ADD SSTORE PUSH1 0x20 DUP3 ADD MLOAD DUP2 PUSH1 0x1 ADD SSTORE PUSH1 0x40 DUP3 ADD MLOAD DUP2 PUSH1 0x2 ADD SSTORE POP POP PUSH0 PUSH1 0x7 PUSH0 DUP2 SLOAD DUP2 LT PUSH2 0x14CC JUMPI PUSH2 0x14CB PUSH2 0x2B5C JUMP JUMPDEST JUMPDEST SWAP1 PUSH0 MSTORE PUSH1 0x20 PUSH0 KECCAK256 ADD SLOAD SWAP1 POP PUSH0 PUSH1 0x64 PUSH1 0xA DUP4 PUSH2 0x14E7 SWAP2 SWAP1 PUSH2 0x2C51 JUMP JUMPDEST PUSH2 0x14F1 SWAP2 SWAP1 PUSH2 0x2A4C JUMP JUMPDEST SWAP1 POP PUSH0 PUSH1 0x64 PUSH1 0x23 DUP5 PUSH2 0x1503 SWAP2 SWAP1 PUSH2 0x2C51 JUMP JUMPDEST PUSH2 0x150D SWAP2 SWAP1 PUSH2 0x2A4C JUMP JUMPDEST SWAP1 POP PUSH1 0x64 PUSH1 0x5 DUP5 PUSH2 0x151E SWAP2 SWAP1 PUSH2 0x2C51 JUMP JUMPDEST PUSH2 0x1528 SWAP2 SWAP1 PUSH2 0x2A4C JUMP JUMPDEST PUSH1 0x11 PUSH0 DUP3 DUP3 SLOAD PUSH2 0x1538 SWAP2 SWAP1 PUSH2 0x2C1E JUMP JUMPDEST SWAP3 POP POP DUP2 SWAP1 SSTORE POP PUSH0 PUSH1 0x64 PUSH1 0x32 DUP6 PUSH2 0x154F SWAP2 SWAP1 PUSH2 0x2C51 JUMP JUMPDEST PUSH2 0x1559 SWAP2 SWAP1 PUSH2 0x2A4C JUMP JUMPDEST SWAP1 POP PUSH2 0x1564 DUP2 PUSH2 0x1707 JUMP JUMPDEST PUSH2 0x156D DUP4 PUSH2 0x1775 JUMP JUMPDEST PUSH2 0x157E DUP6 PUSH1 0x4 ADD SLOAD DUP8 DUP5 PUSH1 0x1 PUSH2 0x19C4 JUMP JUMPDEST PUSH1 0x1 PUSH1 0x6 PUSH0 DUP3 DUP3 SLOAD PUSH2 0x1590 SWAP2 SWAP1 PUSH2 0x2C1E JUMP JUMPDEST SWAP3 POP POP DUP2 SWAP1 SSTORE POP DUP6 PUSH1 0x9 PUSH0 DUP10 DUP2 MSTORE PUSH1 0x20 ADD SWAP1 DUP2 MSTORE PUSH1 0x20 ADD PUSH0 KECCAK256 PUSH0 ADD PUSH0 SWAP1 SLOAD SWAP1 PUSH2 0x100 EXP SWAP1 DIV PUSH20 0xFFFFFFFFFFFFFFFFFFFFFFFFFFFFFFFFFFFFFFFF AND PUSH20 0xFFFFFFFFFFFFFFFFFFFFFFFFFFFFFFFFFFFFFFFF AND CALLER PUSH20 0xFFFFFFFFFFFFFFFFFFFFFFFFFFFFFFFFFFFFFFFF AND PUSH32 0x309BB360E8B69C23937CCC5FB01F9AEEEAD1C95A99604E175113FF82F2B1723A DUP9 PUSH1 0x5 ADD SLOAD PUSH1 0x40 MLOAD PUSH2 0x162B SWAP2 SWAP1 PUSH2 0x2610 JUMP JUMPDEST PUSH1 0x40 MLOAD DUP1 SWAP2 SUB SWAP1 LOG4 POP POP POP POP POP POP POP JUMP JUMPDEST PUSH1 0x4 PUSH0 SWAP1 SLOAD SWAP1 PUSH2 0x100 EXP SWAP1 DIV PUSH20 0xFFFFFFFFFFFFFFFFFFFFFFFFFFFFFFFFFFFFFFFF AND DUP2 JUMP JUMPDEST PUSH0 PUSH0 PUSH1 0x9 PUSH0 DUP6 DUP2 MSTORE PUSH1 0x20 ADD SWAP1 DUP2 MSTORE PUSH1 0x20 ADD PUSH0 KECCAK256 SWAP1 POP PUSH0 PUSH1 0xA PUSH0 DUP7 DUP2 MSTORE PUSH1 0x20 ADD SWAP1 DUP2 MSTORE PUSH1 0x20 ADD PUSH0 KECCAK256 SWAP1 POP PUSH1 0x7 DUP1 SLOAD SWAP1 POP DUP3 PUSH1 0x6 ADD SLOAD SUB PUSH2 0x16A4 JUMPI DUP4 SWAP3 POP POP POP PUSH2 0x1701 JUMP JUMPDEST PUSH0 PUSH1 0xA PUSH1 0x19 DUP5 PUSH1 0x9 ADD SLOAD PUSH2 0x16B8 SWAP2 SWAP1 PUSH2 0x2C51 JUMP JUMPDEST PUSH2 0x16C2 SWAP2 SWAP1 PUSH2 0x2A4C JUMP JUMPDEST SWAP1 POP DUP1 DUP3 PUSH0 ADD SLOAD LT PUSH2 0x16D9 JUMPI PUSH0 SWAP4 POP POP POP POP PUSH2 0x1701 JUMP JUMPDEST PUSH0 DUP3 PUSH0 ADD SLOAD DUP3 PUSH2 0x16E9 SWAP2 SWAP1 PUSH2 0x29EC JUMP JUMPDEST SWAP1 POP DUP1 DUP7 GT PUSH2 0x16F8 JUMPI DUP6 PUSH2 0x16FA JUMP JUMPDEST DUP1 JUMPDEST SWAP5 POP POP POP POP POP JUMPDEST SWAP3 SWAP2 POP POP JUMP JUMPDEST PUSH0 PUSH1 0x15 DUP1 SLOAD SWAP1 POP SWAP1 POP PUSH0 DUP2 EQ DUP1 PUSH2 0x171D JUMPI POP PUSH0 DUP3 EQ JUMPDEST ISZERO PUSH2 0x173A JUMPI PUSH0 DUP3 GT ISZERO PUSH2 0x1734 JUMPI PUSH2 0x1733 DUP3 PUSH2 0x1775 JUMP JUMPDEST JUMPDEST POP PUSH2 0x1772 JUMP JUMPDEST DUP1 PUSH8 0xDE0B6B3A7640000 DUP4 PUSH2 0x174F SWAP2 SWAP1 PUSH2 0x2C51 JUMP JUMPDEST PUSH2 0x1759 SWAP2 SWAP1 PUSH2 0x2A4C JUMP JUMPDEST PUSH1 0xF PUSH0 DUP3 DUP3 SLOAD PUSH2 0x1769 SWAP2 SWAP1 PUSH2 0x2C1E JUMP JUMPDEST SWAP3 POP POP DUP2 SWAP1 SSTORE POP POP JUMPDEST POP JUMP JUMPDEST PUSH0 PUSH20 0xFFFFFFFFFFFFFFFFFFFFFFFFFFFFFFFFFFFFFFFF AND PUSH1 0x2 PUSH0 SWAP1 SLOAD SWAP1 PUSH2 0x100 EXP SWAP1 DIV PUSH20 0xFFFFFFFFFFFFFFFFFFFFFFFFFFFFFFFFFFFFFFFF AND PUSH20 0xFFFFFFFFFFFFFFFFFFFFFFFFFFFFFFFFFFFFFFFF AND SUB PUSH2 0x1804 JUMPI PUSH1 0x40 MLOAD PUSH32 0x8C379A000000000000000000000000000000000000000000000000000000000 DUP2 MSTORE PUSH1 0x4 ADD PUSH2 0x17FB SWAP1 PUSH2 0x2EA3 JUMP JUMPDEST PUSH1 0x40 MLOAD DUP1 SWAP2 SUB SWAP1 REVERT JUMPDEST PUSH0 PUSH1 0x64 PUSH1 0x32 DUP4 PUSH2 0x1814 SWAP2 SWAP1 PUSH2 0x2C51 JUMP JUMPDEST PUSH2 0x181E SWAP2 SWAP1 PUSH2 0x2A4C JUMP JUMPDEST SWAP1 POP PUSH0 DUP2 SWAP1 POP PUSH0 DUP2 DUP5 PUSH2 0x1831 SWAP2 SWAP1 PUSH2 0x29EC JUMP JUMPDEST SWAP1 POP PUSH0 PUSH0 SWAP1 SLOAD SWAP1 PUSH2 0x100 EXP SWAP1 DIV PUSH20 0xFFFFFFFFFFFFFFFFFFFFFFFFFFFFFFFFFFFFFFFF AND PUSH20 0xFFFFFFFFFFFFFFFFFFFFFFFFFFFFFFFFFFFFFFFF AND PUSH4 0xA9059CBB PUSH1 0x2 PUSH0 SWAP1 SLOAD SWAP1 PUSH2 0x100 EXP SWAP1 DIV PUSH20 0xFFFFFFFFFFFFFFFFFFFFFFFFFFFFFFFFFFFFFFFF AND DUP4 DUP7 PUSH2 0x189D SWAP2 SWAP1 PUSH2 0x2C1E JUMP JUMPDEST PUSH1 0x40 MLOAD DUP4 PUSH4 0xFFFFFFFF AND PUSH1 0xE0 SHL DUP2 MSTORE PUSH1 0x4 ADD PUSH2 0x18BA SWAP3 SWAP2 SWAP1 PUSH2 0x2CFA JUMP JUMPDEST PUSH1 0x20 PUSH1 0x40 MLOAD DUP1 DUP4 SUB DUP2 PUSH0 DUP8 GAS CALL ISZERO DUP1 ISZERO PUSH2 0x18D6 JUMPI RETURNDATASIZE PUSH0 PUSH0 RETURNDATACOPY RETURNDATASIZE PUSH0 REVERT JUMPDEST POP POP POP POP PUSH1 0x40 MLOAD RETURNDATASIZE PUSH1 0x1F NOT PUSH1 0x1F DUP3 ADD AND DUP3 ADD DUP1 PUSH1 0x40 MSTORE POP DUP2 ADD SWAP1 PUSH2 0x18FA SWAP2 SWAP1 PUSH2 0x2BF3 JUMP JUMPDEST POP PUSH0 PUSH1 0xA PUSH0 PUSH1 0x5 SLOAD DUP2 MSTORE PUSH1 0x20 ADD SWAP1 DUP2 MSTORE PUSH1 0x20 ADD PUSH0 KECCAK256 SWAP1 POP DUP5 DUP2 PUSH0 ADD PUSH0 DUP3 DUP3 SLOAD PUSH2 0x1923 SWAP2 SWAP1 PUSH2 0x2C1E JUMP JUMPDEST SWAP3 POP POP DUP2 SWAP1 SSTORE POP PUSH1 0xB PUSH0 PUSH1 0x5 SLOAD DUP2 MSTORE PUSH1 0x20 ADD SWAP1 DUP2 MSTORE PUSH1 0x20 ADD PUSH0 KECCAK256 PUSH1 0x40 MLOAD DUP1 PUSH1 0xA0 ADD PUSH1 0x40 MSTORE DUP1 PUSH0 DUP2 MSTORE PUSH1 0x20 ADD DUP8 DUP2 MSTORE PUSH1 0x20 ADD PUSH0 DUP2 MSTORE PUSH1 0x20 ADD TIMESTAMP DUP2 MSTORE PUSH1 0x20 ADD PUSH1 0x5 DUP2 MSTORE POP SWAP1 DUP1 PUSH1 0x1 DUP2 SLOAD ADD DUP1 DUP3 SSTORE DUP1 SWAP2 POP POP PUSH1 0x1 SWAP1 SUB SWAP1 PUSH0 MSTORE PUSH1 0x20 PUSH0 KECCAK256 SWAP1 PUSH1 0x5 MUL ADD PUSH0 SWAP1 SWAP2 SWAP1 SWAP2 SWAP1 SWAP2 POP PUSH0 DUP3 ADD MLOAD DUP2 PUSH0 ADD SSTORE PUSH1 0x20 DUP3 ADD MLOAD DUP2 PUSH1 0x1 ADD SSTORE PUSH1 0x40 DUP3 ADD MLOAD DUP2 PUSH1 0x2 ADD SSTORE PUSH1 0x60 DUP3 ADD MLOAD DUP2 PUSH1 0x3 ADD SSTORE PUSH1 0x80 DUP3 ADD MLOAD DUP2 PUSH1 0x4 ADD SSTORE POP POP POP POP POP POP POP JUMP JUMPDEST PUSH0 DUP5 EQ DUP1 PUSH2 0x19D3 JUMPI POP PUSH1 0x5 SLOAD DUP5 EQ JUMPDEST ISZERO PUSH2 0x19E6 JUMPI PUSH2 0x19E1 DUP3 PUSH2 0x1775 JUMP JUMPDEST PUSH2 0x1C76 JUMP JUMPDEST PUSH0 PUSH1 0x9 PUSH0 DUP7 DUP2 MSTORE PUSH1 0x20 ADD SWAP1 DUP2 MSTORE PUSH1 0x20 ADD PUSH0 KECCAK256 SWAP1 POP PUSH1 0x1 DUP3 EQ PUSH2 0x1A1F JUMPI PUSH1 0x2 DUP2 PUSH1 0x7 ADD SLOAD LT ISZERO PUSH2 0x1A1E JUMPI PUSH2 0x1A18 DUP4 PUSH2 0x1775 JUMP JUMPDEST POP PUSH2 0x1C76 JUMP JUMPDEST JUMPDEST PUSH0 PUSH0 SWAP1 SLOAD SWAP1 PUSH2 0x100 EXP SWAP1 DIV PUSH20 0xFFFFFFFFFFFFFFFFFFFFFFFFFFFFFFFFFFFFFFFF AND PUSH20 0xFFFFFFFFFFFFFFFFFFFFFFFFFFFFFFFFFFFFFFFF AND PUSH4 0xA9059CBB DUP3 PUSH0 ADD PUSH0 SWAP1 SLOAD SWAP1 PUSH2 0x100 EXP SWAP1 DIV PUSH20 0xFFFFFFFFFFFFFFFFFFFFFFFFFFFFFFFFFFFFFFFF AND DUP6 PUSH1 0x40 MLOAD DUP4 PUSH4 0xFFFFFFFF AND PUSH1 0xE0 SHL DUP2 MSTORE PUSH1 0x4 ADD PUSH2 0x1A9C SWAP3 SWAP2 SWAP1 PUSH2 0x2CFA JUMP JUMPDEST PUSH1 0x20 PUSH1 0x40 MLOAD DUP1 DUP4 SUB DUP2 PUSH0 DUP8 GAS CALL ISZERO DUP1 ISZERO PUSH2 0x1AB8 JUMPI RETURNDATASIZE PUSH0 PUSH0 RETURNDATACOPY RETURNDATASIZE PUSH0 REVERT JUMPDEST POP POP POP POP PUSH1 0x40 MLOAD RETURNDATASIZE PUSH1 0x1F NOT PUSH1 0x1F DUP3 ADD AND DUP3 ADD DUP1 PUSH1 0x40 MSTORE POP DUP2 ADD SWAP1 PUSH2 0x1ADC SWAP2 SWAP1 PUSH2 0x2BF3 JUMP JUMPDEST POP PUSH0 PUSH1 0xA PUSH0 DUP8 DUP2 MSTORE PUSH1 0x20 ADD SWAP1 DUP2 MSTORE PUSH1 0x20 ADD PUSH0 KECCAK256 SWAP1 POP DUP4 DUP2 PUSH0 ADD PUSH0 DUP3 DUP3 SLOAD PUSH2 0x1B03 SWAP2 SWAP1 PUSH2 0x2C1E JUMP JUMPDEST SWAP3 POP POP DUP2 SWAP1 SSTORE POP DUP4 DUP2 PUSH1 0x1 ADD PUSH0 DUP3 DUP3 SLOAD PUSH2 0x1B1D SWAP2 SWAP1 PUSH2 0x2C1E JUMP JUMPDEST SWAP3 POP POP DUP2 SWAP1 SSTORE POP PUSH1 0xB PUSH0 DUP8 DUP2 MSTORE PUSH1 0x20 ADD SWAP1 DUP2 MSTORE PUSH1 0x20 ADD PUSH0 KECCAK256 PUSH1 0x40 MLOAD DUP1 PUSH1 0xA0 ADD PUSH1 0x40 MSTORE DUP1 DUP8 DUP2 MSTORE PUSH1 0x20 ADD DUP7 DUP2 MSTORE PUSH1 0x20 ADD DUP6 DUP2 MSTORE PUSH1 0x20 ADD TIMESTAMP DUP2 MSTORE PUSH1 0x20 ADD PUSH1 0x1 DUP2 MSTORE POP SWAP1 DUP1 PUSH1 0x1 DUP2 SLOAD ADD DUP1 DUP3 SSTORE DUP1 SWAP2 POP POP PUSH1 0x1 SWAP1 SUB SWAP1 PUSH0 MSTORE PUSH1 0x20 PUSH0 KECCAK256 SWAP1 PUSH1 0x5 MUL ADD PUSH0 SWAP1 SWAP2 SWAP1 SWAP2 SWAP1 SWAP2 POP PUSH0 DUP3 ADD MLOAD DUP2 PUSH0 ADD SSTORE PUSH1 0x20 DUP3 ADD MLOAD DUP2 PUSH1 0x1 ADD SSTORE PUSH1 0x40 DUP3 ADD MLOAD DUP2 PUSH1 0x2 ADD SSTORE PUSH1 0x60 DUP3 ADD MLOAD DUP2 PUSH1 0x3 ADD SSTORE PUSH1 0x80 DUP3 ADD MLOAD DUP2 PUSH1 0x4 ADD SSTORE POP POP PUSH1 0x9 PUSH0 DUP7 DUP2 MSTORE PUSH1 0x20 ADD SWAP1 DUP2 MSTORE PUSH1 0x20 ADD PUSH0 KECCAK256 PUSH0 ADD PUSH0 SWAP1 SLOAD SWAP1 PUSH2 0x100 EXP SWAP1 DIV PUSH20 0xFFFFFFFFFFFFFFFFFFFFFFFFFFFFFFFFFFFFFFFF AND PUSH20 0xFFFFFFFFFFFFFFFFFFFFFFFFFFFFFFFFFFFFFFFF AND DUP3 PUSH0 ADD PUSH0 SWAP1 SLOAD SWAP1 PUSH2 0x100 EXP SWAP1 DIV PUSH20 0xFFFFFFFFFFFFFFFFFFFFFFFFFFFFFFFFFFFFFFFF AND PUSH20 0xFFFFFFFFFFFFFFFFFFFFFFFFFFFFFFFFFFFFFFFF AND PUSH32 0xE17B61D324CE17328F433D0AB62581C0F0AA997312BAE80FBDFCD2AA9B91D6E3 DUP7 DUP7 PUSH1 0x1 PUSH1 0x40 MLOAD PUSH2 0x1C6B SWAP4 SWAP3 SWAP2 SWAP1 PUSH2 0x2EFA JUMP JUMPDEST PUSH1 0x40 MLOAD DUP1 SWAP2 SUB SWAP1 LOG3 POP POP JUMPDEST POP POP POP POP JUMP JUMPDEST PUSH0 PUSH1 0x1 SWAP1 POP PUSH1 0x5 SLOAD DUP6 EQ DUP1 PUSH2 0x1C90 JUMPI POP PUSH0 DUP6 EQ JUMPDEST ISZERO PUSH2 0x1CA4 JUMPI PUSH2 0x1C9E DUP4 PUSH2 0x1775 JUMP JUMPDEST POP PUSH2 0x1FD2 JUMP JUMPDEST PUSH0 DUP6 SWAP1 POP JUMPDEST DUP3 DUP3 LT ISZERO PUSH2 0x1D02 JUMPI DUP2 DUP1 PUSH2 0x1CBC SWAP1 PUSH2 0x2F2F JUMP JUMPDEST SWAP3 POP POP PUSH1 0x9 PUSH0 DUP3 DUP2 MSTORE PUSH1 0x20 ADD SWAP1 DUP2 MSTORE PUSH1 0x20 ADD PUSH0 KECCAK256 PUSH1 0x5 ADD SLOAD SWAP1 POP PUSH1 0x5 SLOAD DUP2 EQ DUP1 PUSH2 0x1CE5 JUMPI POP PUSH0 DUP2 EQ JUMPDEST ISZERO PUSH2 0x1CFD JUMPI DUP3 SWAP2 POP PUSH2 0x1CF6 DUP5 PUSH2 0x1775 JUMP JUMPDEST POP POP PUSH2 0x1FD2 JUMP JUMPDEST PUSH2 0x1CA9 JUMP JUMPDEST PUSH0 DUP2 SWAP1 POP PUSH0 SWAP3 POP JUMPDEST PUSH0 DUP2 EQ ISZERO DUP1 ISZERO PUSH2 0x1D1C JUMPI POP PUSH1 0x5 SLOAD DUP2 EQ ISZERO JUMPDEST DUP1 ISZERO PUSH2 0x1D28 JUMPI POP PUSH1 0xF DUP4 LT JUMPDEST ISZERO PUSH2 0x1FC5 JUMPI PUSH0 PUSH1 0x9 PUSH0 DUP4 DUP2 MSTORE PUSH1 0x20 ADD SWAP1 DUP2 MSTORE PUSH1 0x20 ADD PUSH0 KECCAK256 SWAP1 POP DUP5 DUP2 PUSH1 0x6 ADD SLOAD LT PUSH2 0x1FAA JUMPI PUSH0 PUSH0 SWAP1 SLOAD SWAP1 PUSH2 0x100 EXP SWAP1 DIV PUSH20 0xFFFFFFFFFFFFFFFFFFFFFFFFFFFFFFFFFFFFFFFF AND PUSH20 0xFFFFFFFFFFFFFFFFFFFFFFFFFFFFFFFFFFFFFFFF AND PUSH4 0xA9059CBB DUP3 PUSH0 ADD PUSH0 SWAP1 SLOAD SWAP1 PUSH2 0x100 EXP SWAP1 DIV PUSH20 0xFFFFFFFFFFFFFFFFFFFFFFFFFFFFFFFFFFFFFFFF AND DUP9 PUSH1 0x40 MLOAD DUP4 PUSH4 0xFFFFFFFF AND PUSH1 0xE0 SHL DUP2 MSTORE PUSH1 0x4 ADD PUSH2 0x1DC9 SWAP3 SWAP2 SWAP1 PUSH2 0x2CFA JUMP JUMPDEST PUSH1 0x20 PUSH1 0x40 MLOAD DUP1 DUP4 SUB DUP2 PUSH0 DUP8 GAS CALL ISZERO DUP1 ISZERO PUSH2 0x1DE5 JUMPI RETURNDATASIZE PUSH0 PUSH0 RETURNDATACOPY RETURNDATASIZE PUSH0 REVERT JUMPDEST POP POP POP POP PUSH1 0x40 MLOAD RETURNDATASIZE PUSH1 0x1F NOT PUSH1 0x1F DUP3 ADD AND DUP3 ADD DUP1 PUSH1 0x40 MSTORE POP DUP2 ADD SWAP1 PUSH2 0x1E09 SWAP2 SWAP1 PUSH2 0x2BF3 JUMP JUMPDEST POP PUSH0 PUSH1 0xA PUSH0 DUP5 DUP2 MSTORE PUSH1 0x20 ADD SWAP1 DUP2 MSTORE PUSH1 0x20 ADD PUSH0 KECCAK256 SWAP1 POP DUP7 DUP2 PUSH0 ADD PUSH0 DUP3 DUP3 SLOAD PUSH2 0x1E30 SWAP2 SWAP1 PUSH2 0x2C1E JUMP JUMPDEST SWAP3 POP POP DUP2 SWAP1 SSTORE POP DUP7 DUP2 PUSH1 0x2 ADD PUSH0 DUP3 DUP3 SLOAD PUSH2 0x1E4A SWAP2 SWAP1 PUSH2 0x2C1E JUMP JUMPDEST SWAP3 POP POP DUP2 SWAP1 SSTORE POP PUSH1 0xB PUSH0 DUP5 DUP2 MSTORE PUSH1 0x20 ADD SWAP1 DUP2 MSTORE PUSH1 0x20 ADD PUSH0 KECCAK256 PUSH1 0x40 MLOAD DUP1 PUSH1 0xA0 ADD PUSH1 0x40 MSTORE DUP1 DUP11 DUP2 MSTORE PUSH1 0x20 ADD DUP10 DUP2 MSTORE PUSH1 0x20 ADD DUP9 DUP2 MSTORE PUSH1 0x20 ADD TIMESTAMP DUP2 MSTORE PUSH1 0x20 ADD PUSH1 0x2 DUP2 MSTORE POP SWAP1 DUP1 PUSH1 0x1 DUP2 SLOAD ADD DUP1 DUP3 SSTORE DUP1 SWAP2 POP POP PUSH1 0x1 SWAP1 SUB SWAP1 PUSH0 MSTORE PUSH1 0x20 PUSH0 KECCAK256 SWAP1 PUSH1 0x5 MUL ADD PUSH0 SWAP1 SWAP2 SWAP1 SWAP2 SWAP1 SWAP2 POP PUSH0 DUP3 ADD MLOAD DUP2 PUSH0 ADD SSTORE PUSH1 0x20 DUP3 ADD MLOAD DUP2 PUSH1 0x1 ADD SSTORE PUSH1 0x40 DUP3 ADD MLOAD DUP2 PUSH1 0x2 ADD SSTORE PUSH1 0x60 DUP3 ADD MLOAD DUP2 PUSH1 0x3 ADD SSTORE PUSH1 0x80 DUP3 ADD MLOAD DUP2 PUSH1 0x4 ADD SSTORE POP POP PUSH1 0x9 PUSH0 DUP10 DUP2 MSTORE PUSH1 0x20 ADD SWAP1 DUP2 MSTORE PUSH1 0x20 ADD PUSH0 KECCAK256 PUSH0 ADD PUSH0 SWAP1 SLOAD SWAP1 PUSH2 0x100 EXP SWAP1 DIV PUSH20 0xFFFFFFFFFFFFFFFFFFFFFFFFFFFFFFFFFFFFFFFF AND PUSH20 0xFFFFFFFFFFFFFFFFFFFFFFFFFFFFFFFFFFFFFFFF AND DUP3 PUSH0 ADD PUSH0 SWAP1 SLOAD SWAP1 PUSH2 0x100 EXP SWAP1 DIV PUSH20 0xFFFFFFFFFFFFFFFFFFFFFFFFFFFFFFFFFFFFFFFF AND PUSH20 0xFFFFFFFFFFFFFFFFFFFFFFFFFFFFFFFFFFFFFFFF AND PUSH32 0xE17B61D324CE17328F433D0AB62581C0F0AA997312BAE80FBDFCD2AA9B91D6E3 DUP10 DUP10 PUSH1 0x2 PUSH1 0x40 MLOAD PUSH2 0x1F98 SWAP4 SWAP3 SWAP2 SWAP1 PUSH2 0x2FAF JUMP JUMPDEST PUSH1 0x40 MLOAD DUP1 SWAP2 SUB SWAP1 LOG3 POP POP POP POP POP PUSH2 0x1FD2 JUMP JUMPDEST DUP1 PUSH1 0x5 ADD SLOAD SWAP2 POP DUP4 DUP1 PUSH2 0x1FBC SWAP1 PUSH2 0x2F2F JUMP JUMPDEST SWAP5 POP POP POP PUSH2 0x1D0A JUMP JUMPDEST PUSH2 0x1FCE DUP6 PUSH2 0x1775 JUMP JUMPDEST POP POP POP JUMPDEST POP POP POP POP JUMP JUMPDEST PUSH0 DUP6 EQ DUP1 PUSH2 0x1FE7 JUMPI POP PUSH1 0x5 SLOAD DUP6 EQ JUMPDEST ISZERO PUSH2 0x1FFA JUMPI PUSH2 0x1FF5 DUP4 PUSH2 0x1775 JUMP JUMPDEST PUSH2 0x2137 JUMP JUMPDEST PUSH0 DUP2 SWAP1 POP PUSH0 DUP2 SUB PUSH2 0x2014 JUMPI PUSH2 0x200E DUP5 PUSH2 0x1775 JUMP JUMPDEST POP PUSH2 0x2137 JUMP JUMPDEST PUSH0 DUP2 DUP6 PUSH2 0x2021 SWAP2 SWAP1 PUSH2 0x2A4C JUMP JUMPDEST SWAP1 POP PUSH0 DUP3 DUP3 PUSH2 0x2030 SWAP2 SWAP1 PUSH2 0x2C51 JUMP JUMPDEST DUP7 PUSH2 0x203B SWAP2 SWAP1 PUSH2 0x29EC JUMP JUMPDEST SWAP1 POP PUSH0 PUSH1 0x1 SWAP1 POP PUSH0 DUP10 SWAP1 POP PUSH0 PUSH0 SWAP1 POP JUMPDEST DUP6 DUP2 LT ISZERO PUSH2 0x211E JUMPI PUSH0 DUP3 EQ ISZERO DUP1 ISZERO PUSH2 0x2065 JUMPI POP PUSH1 0x5 SLOAD DUP3 EQ ISZERO JUMPDEST ISZERO PUSH2 0x20F3 JUMPI DUP8 PUSH1 0x9 PUSH0 DUP5 DUP2 MSTORE PUSH1 0x20 ADD SWAP1 DUP2 MSTORE PUSH1 0x20 ADD PUSH0 KECCAK256 PUSH1 0x6 ADD SLOAD LT PUSH2 0x20CC JUMPI PUSH0 PUSH0 SWAP1 POP JUMPDEST DUP4 DUP2 LT ISZERO PUSH2 0x20AB JUMPI PUSH2 0x209E DUP4 DUP13 DUP9 DUP13 PUSH2 0x23AA JUMP JUMPDEST DUP1 DUP1 PUSH1 0x1 ADD SWAP2 POP POP PUSH2 0x208A JUMP JUMPDEST POP PUSH1 0x9 PUSH0 DUP4 DUP2 MSTORE PUSH1 0x20 ADD SWAP1 DUP2 MSTORE PUSH1 0x20 ADD PUSH0 KECCAK256 PUSH1 0x5 ADD SLOAD SWAP2 POP PUSH1 0x1 SWAP3 POP PUSH2 0x20F2 JUMP JUMPDEST PUSH1 0x9 PUSH0 DUP4 DUP2 MSTORE PUSH1 0x20 ADD SWAP1 DUP2 MSTORE PUSH1 0x20 ADD PUSH0 KECCAK256 PUSH1 0x5 ADD SLOAD SWAP2 POP DUP3 DUP1 PUSH2 0x20EE SWAP1 PUSH2 0x2F2F JUMP JUMPDEST SWAP4 POP POP JUMPDEST JUMPDEST PUSH0 DUP3 EQ DUP1 PUSH2 0x2102 JUMPI POP PUSH1 0x5 SLOAD DUP3 EQ JUMPDEST ISZERO PUSH2 0x2111 JUMPI PUSH2 0x2110 DUP6 PUSH2 0x1775 JUMP JUMPDEST JUMPDEST DUP1 DUP1 PUSH1 0x1 ADD SWAP2 POP POP PUSH2 0x204B JUMP JUMPDEST POP PUSH0 DUP4 GT ISZERO PUSH2 0x2131 JUMPI PUSH2 0x2130 DUP4 PUSH2 0x1775 JUMP JUMPDEST JUMPDEST POP POP POP POP POP JUMPDEST POP POP POP POP POP JUMP JUMPDEST PUSH0 PUSH0 PUSH1 0x2 PUSH1 0xD PUSH0 DUP6 DUP2 MSTORE PUSH1 0x20 ADD SWAP1 DUP2 MSTORE PUSH1 0x20 ADD PUSH0 KECCAK256 SLOAD LT ISZERO PUSH2 0x21A3 JUMPI DUP3 PUSH1 0x9 PUSH0 DUP7 DUP2 MSTORE PUSH1 0x20 ADD SWAP1 DUP2 MSTORE PUSH1 0x20 ADD PUSH0 KECCAK256 PUSH1 0x5 ADD DUP2 SWAP1 SSTORE POP PUSH1 0x1 PUSH1 0xD PUSH0 DUP6 DUP2 MSTORE PUSH1 0x20 ADD SWAP1 DUP2 MSTORE PUSH1 0x20 ADD PUSH0 KECCAK256 PUSH0 DUP3 DUP3 SLOAD PUSH2 0x2194 SWAP2 SWAP1 PUSH2 0x2C1E JUMP JUMPDEST SWAP3 POP POP DUP2 SWAP1 SSTORE POP DUP3 SWAP1 POP PUSH2 0x22FA JUMP JUMPDEST PUSH0 PUSH0 SWAP1 POP JUMPDEST PUSH1 0xF DUP2 LT ISZERO PUSH2 0x22F8 JUMPI DUP3 PUSH2 0x22F8 JUMPI PUSH1 0x2 DUP2 PUSH2 0x21C3 SWAP2 SWAP1 PUSH2 0x2C1E JUMP JUMPDEST PUSH1 0x2 PUSH2 0x21CF SWAP2 SWAP1 PUSH2 0x3113 JUMP JUMPDEST PUSH1 0xC PUSH0 DUP7 DUP2 MSTORE PUSH1 0x20 ADD SWAP1 DUP2 MSTORE PUSH1 0x20 ADD PUSH0 KECCAK256 PUSH0 PUSH1 0x1 DUP5 PUSH2 0x21EE SWAP2 SWAP1 PUSH2 0x2C1E JUMP JUMPDEST DUP2 MSTORE PUSH1 0x20 ADD SWAP1 DUP2 MSTORE PUSH1 0x20 ADD PUSH0 KECCAK256 DUP1 SLOAD SWAP1 POP LT ISZERO PUSH2 0x22EB JUMPI PUSH0 PUSH0 SWAP1 POP JUMPDEST PUSH1 0xC PUSH0 DUP7 DUP2 MSTORE PUSH1 0x20 ADD SWAP1 DUP2 MSTORE PUSH1 0x20 ADD PUSH0 KECCAK256 PUSH0 DUP4 DUP2 MSTORE PUSH1 0x20 ADD SWAP1 DUP2 MSTORE PUSH1 0x20 ADD PUSH0 KECCAK256 DUP1 SLOAD SWAP1 POP DUP2 LT ISZERO PUSH2 0x22E9 JUMPI DUP4 PUSH2 0x22E9 JUMPI PUSH0 PUSH1 0xC PUSH0 DUP8 DUP2 MSTORE PUSH1 0x20 ADD SWAP1 DUP2 MSTORE PUSH1 0x20 ADD PUSH0 KECCAK256 PUSH0 DUP5 DUP2 MSTORE PUSH1 0x20 ADD SWAP1 DUP2 MSTORE PUSH1 0x20 ADD PUSH0 KECCAK256 DUP3 DUP2 SLOAD DUP2 LT PUSH2 0x226D JUMPI PUSH2 0x226C PUSH2 0x2B5C JUMP JUMPDEST JUMPDEST SWAP1 PUSH0 MSTORE PUSH1 0x20 PUSH0 KECCAK256 ADD SLOAD SWAP1 POP PUSH1 0x2 PUSH1 0xD PUSH0 DUP4 DUP2 MSTORE PUSH1 0x20 ADD SWAP1 DUP2 MSTORE PUSH1 0x20 ADD PUSH0 KECCAK256 SLOAD LT ISZERO PUSH2 0x22DB JUMPI DUP1 PUSH1 0x9 PUSH0 DUP10 DUP2 MSTORE PUSH1 0x20 ADD SWAP1 DUP2 MSTORE PUSH1 0x20 ADD PUSH0 KECCAK256 PUSH1 0x5 ADD DUP2 SWAP1 SSTORE POP PUSH1 0x1 PUSH1 0xD PUSH0 DUP4 DUP2 MSTORE PUSH1 0x20 ADD SWAP1 DUP2 MSTORE PUSH1 0x20 ADD PUSH0 KECCAK256 PUSH0 DUP3 DUP3 SLOAD PUSH2 0x22CC SWAP2 SWAP1 PUSH2 0x2C1E JUMP JUMPDEST SWAP3 POP POP DUP2 SWAP1 SSTORE POP DUP1 SWAP4 POP PUSH1 0x1 SWAP5 POP JUMPDEST POP DUP1 DUP1 PUSH1 0x1 ADD SWAP2 POP POP PUSH2 0x220A JUMP JUMPDEST POP JUMPDEST DUP1 DUP1 PUSH1 0x1 ADD SWAP2 POP POP PUSH2 0x21A8 JUMP JUMPDEST POP JUMPDEST PUSH0 PUSH0 SWAP1 POP JUMPDEST PUSH1 0xF DUP2 LT ISZERO PUSH2 0x23A3 JUMPI PUSH0 DUP3 SUB ISZERO PUSH2 0x23A3 JUMPI PUSH1 0x1 PUSH1 0x9 PUSH0 DUP5 DUP2 MSTORE PUSH1 0x20 ADD SWAP1 DUP2 MSTORE PUSH1 0x20 ADD PUSH0 KECCAK256 PUSH1 0x8 ADD PUSH0 DUP3 DUP3 SLOAD PUSH2 0x2334 SWAP2 SWAP1 PUSH2 0x2C1E JUMP JUMPDEST SWAP3 POP POP DUP2 SWAP1 SSTORE POP PUSH1 0xC PUSH0 DUP4 DUP2 MSTORE PUSH1 0x20 ADD SWAP1 DUP2 MSTORE PUSH1 0x20 ADD PUSH0 KECCAK256 PUSH0 DUP3 DUP2 MSTORE PUSH1 0x20 ADD SWAP1 DUP2 MSTORE PUSH1 0x20 ADD PUSH0 KECCAK256 DUP6 SWAP1 DUP1 PUSH1 0x1 DUP2 SLOAD ADD DUP1 DUP3 SSTORE DUP1 SWAP2 POP POP PUSH1 0x1 SWAP1 SUB SWAP1 PUSH0 MSTORE PUSH1 0x20 PUSH0 KECCAK256 ADD PUSH0 SWAP1 SWAP2 SWAP1 SWAP2 SWAP1 SWAP2 POP SSTORE PUSH1 0x9 PUSH0 DUP4 DUP2 MSTORE PUSH1 0x20 ADD SWAP1 DUP2 MSTORE PUSH1 0x20 ADD PUSH0 KECCAK256 PUSH1 0x5 ADD SLOAD SWAP2 POP DUP1 DUP1 PUSH1 0x1 ADD SWAP2 POP POP PUSH2 0x22FF JUMP JUMPDEST POP POP POP POP POP JUMP JUMPDEST PUSH0 PUSH1 0x9 PUSH0 DUP7 DUP2 MSTORE PUSH1 0x20 ADD SWAP1 DUP2 MSTORE PUSH1 0x20 ADD PUSH0 KECCAK256 PUSH0 ADD PUSH0 SWAP1 SLOAD SWAP1 PUSH2 0x100 EXP SWAP1 DIV PUSH20 0xFFFFFFFFFFFFFFFFFFFFFFFFFFFFFFFFFFFFFFFF AND SWAP1 POP PUSH0 PUSH0 SWAP1 SLOAD SWAP1 PUSH2 0x100 EXP SWAP1 DIV PUSH20 0xFFFFFFFFFFFFFFFFFFFFFFFFFFFFFFFFFFFFFFFF AND PUSH20 0xFFFFFFFFFFFFFFFFFFFFFFFFFFFFFFFFFFFFFFFF AND PUSH4 0xA9059CBB DUP3 DUP6 PUSH1 0x40 MLOAD DUP4 PUSH4 0xFFFFFFFF AND PUSH1 0xE0 SHL DUP2 MSTORE PUSH1 0x4 ADD PUSH2 0x243B SWAP3 SWAP2 SWAP1 PUSH2 0x2CFA JUMP JUMPDEST PUSH1 0x20 PUSH1 0x40 MLOAD DUP1 DUP4 SUB DUP2 PUSH0 DUP8 GAS CALL ISZERO DUP1 ISZERO PUSH2 0x2457 JUMPI RETURNDATASIZE PUSH0 PUSH0 RETURNDATACOPY RETURNDATASIZE PUSH0 REVERT JUMPDEST POP POP POP POP PUSH1 0x40 MLOAD RETURNDATASIZE PUSH1 0x1F NOT PUSH1 0x1F DUP3 ADD AND DUP3 ADD DUP1 PUSH1 0x40 MSTORE POP DUP2 ADD SWAP1 PUSH2 0x247B SWAP2 SWAP1 PUSH2 0x2BF3 JUMP JUMPDEST POP PUSH0 PUSH1 0xA PUSH0 DUP8 DUP2 MSTORE PUSH1 0x20 ADD SWAP1 DUP2 MSTORE PUSH1 0x20 ADD PUSH0 KECCAK256 SWAP1 POP DUP4 DUP2 PUSH0 ADD PUSH0 DUP3 DUP3 SLOAD PUSH2 0x24A2 SWAP2 SWAP1 PUSH2 0x2C1E JUMP JUMPDEST SWAP3 POP POP DUP2 SWAP1 SSTORE POP DUP4 DUP2 PUSH1 0x3 ADD PUSH0 DUP3 DUP3 SLOAD PUSH2 0x24BC SWAP2 SWAP1 PUSH2 0x2C1E JUMP JUMPDEST SWAP3 POP POP DUP2 SWAP1 SSTORE POP PUSH1 0xB PUSH0 DUP8 DUP2 MSTORE PUSH1 0x20 ADD SWAP1 DUP2 MSTORE PUSH1 0x20 ADD PUSH0 KECCAK256 PUSH1 0x40 MLOAD DUP1 PUSH1 0xA0 ADD PUSH1 0x40 MSTORE DUP1 DUP8 DUP2 MSTORE PUSH1 0x20 ADD DUP7 DUP2 MSTORE PUSH1 0x20 ADD DUP6 DUP2 MSTORE PUSH1 0x20 ADD TIMESTAMP DUP2 MSTORE PUSH1 0x20 ADD PUSH1 0x4 DUP2 MSTORE POP SWAP1 DUP1 PUSH1 0x1 DUP2 SLOAD ADD DUP1 DUP3 SSTORE DUP1 SWAP2 POP POP PUSH1 0x1 SWAP1 SUB SWAP1 PUSH0 MSTORE PUSH1 0x20 PUSH0 KECCAK256 SWAP1 PUSH1 0x5 MUL ADD PUSH0 SWAP1 SWAP2 SWAP1 SWAP2 SWAP1 SWAP2 POP PUSH0 DUP3 ADD MLOAD DUP2 PUSH0 ADD SSTORE PUSH1 0x20 DUP3 ADD MLOAD DUP2 PUSH1 0x1 ADD SSTORE PUSH1 0x40 DUP3 ADD MLOAD DUP2 PUSH1 0x2 ADD SSTORE PUSH1 0x60 DUP3 ADD MLOAD DUP2 PUSH1 0x3 ADD SSTORE PUSH1 0x80 DUP3 ADD MLOAD DUP2 PUSH1 0x4 ADD SSTORE POP POP PUSH1 0x9 PUSH0 DUP7 DUP2 MSTORE PUSH1 0x20 ADD SWAP1 DUP2 MSTORE PUSH1 0x20 ADD PUSH0 KECCAK256 PUSH0 ADD PUSH0 SWAP1 SLOAD SWAP1 PUSH2 0x100 EXP SWAP1 DIV PUSH20 0xFFFFFFFFFFFFFFFFFFFFFFFFFFFFFFFFFFFFFFFF AND PUSH20 0xFFFFFFFFFFFFFFFFFFFFFFFFFFFFFFFFFFFFFFFF AND DUP3 PUSH20 0xFFFFFFFFFFFFFFFFFFFFFFFFFFFFFFFFFFFFFFFF AND PUSH32 0xE17B61D324CE17328F433D0AB62581C0F0AA997312BAE80FBDFCD2AA9B91D6E3 DUP7 DUP7 PUSH1 0x4 PUSH1 0x40 MLOAD PUSH2 0x25E8 SWAP4 SWAP3 SWAP2 SWAP1 PUSH2 0x3196 JUMP JUMPDEST PUSH1 0x40 MLOAD DUP1 SWAP2 SUB SWAP1 LOG3 POP POP POP POP POP POP JUMP JUMPDEST PUSH0 DUP2 SWAP1 POP SWAP2 SWAP1 POP JUMP JUMPDEST PUSH2 0x260A DUP2 PUSH2 0x25F8 JUMP JUMPDEST DUP3 MSTORE POP POP JUMP JUMPDEST PUSH0 PUSH1 0x20 DUP3 ADD SWAP1 POP PUSH2 0x2623 PUSH0 DUP4 ADD DUP5 PUSH2 0x2601 JUMP JUMPDEST SWAP3 SWAP2 POP POP JUMP JUMPDEST PUSH0 PUSH0 REVERT JUMPDEST PUSH2 0x2636 DUP2 PUSH2 0x25F8 JUMP JUMPDEST DUP2 EQ PUSH2 0x2640 JUMPI PUSH0 PUSH0 REVERT JUMPDEST POP JUMP JUMPDEST PUSH0 DUP2 CALLDATALOAD SWAP1 POP PUSH2 0x2651 DUP2 PUSH2 0x262D JUMP JUMPDEST SWAP3 SWAP2 POP POP JUMP JUMPDEST PUSH0 PUSH1 0x20 DUP3 DUP5 SUB SLT ISZERO PUSH2 0x266C JUMPI PUSH2 0x266B PUSH2 0x2629 JUMP JUMPDEST JUMPDEST PUSH0 PUSH2 0x2679 DUP5 DUP3 DUP6 ADD PUSH2 0x2643 JUMP JUMPDEST SWAP2 POP POP SWAP3 SWAP2 POP POP JUMP JUMPDEST PUSH0 PUSH1 0x40 DUP3 ADD SWAP1 POP PUSH2 0x2695 PUSH0 DUP4 ADD DUP6 PUSH2 0x2601 JUMP JUMPDEST PUSH2 0x26A2 PUSH1 0x20 DUP4 ADD DUP5 PUSH2 0x2601 JUMP JUMPDEST SWAP4 SWAP3 POP POP POP JUMP JUMPDEST PUSH0 PUSH20 0xFFFFFFFFFFFFFFFFFFFFFFFFFFFFFFFFFFFFFFFF DUP3 AND SWAP1 POP SWAP2 SWAP1 POP JUMP JUMPDEST PUSH0 DUP2 SWAP1 POP SWAP2 SWAP1 POP JUMP JUMPDEST PUSH0 PUSH2 0x26EB PUSH2 0x26E6 PUSH2 0x26E1 DUP5 PUSH2 0x26A9 JUMP JUMPDEST PUSH2 0x26C8 JUMP JUMPDEST PUSH2 0x26A9 JUMP JUMPDEST SWAP1 POP SWAP2 SWAP1 POP JUMP JUMPDEST PUSH0 PUSH2 0x26FC DUP3 PUSH2 0x26D1 JUMP JUMPDEST SWAP1 POP SWAP2 SWAP1 POP JUMP JUMPDEST PUSH0 PUSH2 0x270D DUP3 PUSH2 0x26F2 JUMP JUMPDEST SWAP1 POP SWAP2 SWAP1 POP JUMP JUMPDEST PUSH2 0x271D DUP2 PUSH2 0x2703 JUMP JUMPDEST DUP3 MSTORE POP POP JUMP JUMPDEST PUSH0 PUSH1 0x20 DUP3 ADD SWAP1 POP PUSH2 0x2736 PUSH0 DUP4 ADD DUP5 PUSH2 0x2714 JUMP JUMPDEST SWAP3 SWAP2 POP POP JUMP JUMPDEST PUSH0 PUSH2 0x2746 DUP3 PUSH2 0x26A9 JUMP JUMPDEST SWAP1 POP SWAP2 SWAP1 POP JUMP JUMPDEST PUSH2 0x2756 DUP2 PUSH2 0x273C JUMP JUMPDEST DUP3 MSTORE POP POP JUMP JUMPDEST PUSH0 PUSH2 0x140 DUP3 ADD SWAP1 POP PUSH2 0x2770 PUSH0 DUP4 ADD DUP14 PUSH2 0x274D JUMP JUMPDEST PUSH2 0x277D PUSH1 0x20 DUP4 ADD DUP13 PUSH2 0x2601 JUMP JUMPDEST PUSH2 0x278A PUSH1 0x40 DUP4 ADD DUP12 PUSH2 0x2601 JUMP JUMPDEST PUSH2 0x2797 PUSH1 0x60 DUP4 ADD DUP11 PUSH2 0x2601 JUMP JUMPDEST PUSH2 0x27A4 PUSH1 0x80 DUP4 ADD DUP10 PUSH2 0x2601 JUMP JUMPDEST PUSH2 0x27B1 PUSH1 0xA0 DUP4 ADD DUP9 PUSH2 0x2601 JUMP JUMPDEST PUSH2 0x27BE PUSH1 0xC0 DUP4 ADD DUP8 PUSH2 0x2601 JUMP JUMPDEST PUSH2 0x27CB PUSH1 0xE0 DUP4 ADD DUP7 PUSH2 0x2601 JUMP JUMPDEST PUSH2 0x27D9 PUSH2 0x100 DUP4 ADD DUP6 PUSH2 0x2601 JUMP JUMPDEST PUSH2 0x27E7 PUSH2 0x120 DUP4 ADD DUP5 PUSH2 0x2601 JUMP JUMPDEST SWAP12 SWAP11 POP POP POP POP POP POP POP POP POP POP POP JUMP JUMPDEST PUSH0 PUSH2 0x100 DUP3 ADD SWAP1 POP PUSH2 0x280A PUSH0 DUP4 ADD DUP12 PUSH2 0x2601 JUMP JUMPDEST PUSH2 0x2817 PUSH1 0x20 DUP4 ADD DUP11 PUSH2 0x2601 JUMP JUMPDEST PUSH2 0x2824 PUSH1 0x40 DUP4 ADD DUP10 PUSH2 0x2601 JUMP JUMPDEST PUSH2 0x2831 PUSH1 0x60 DUP4 ADD DUP9 PUSH2 0x2601 JUMP JUMPDEST PUSH2 0x283E PUSH1 0x80 DUP4 ADD DUP8 PUSH2 0x2601 JUMP JUMPDEST PUSH2 0x284B PUSH1 0xA0 DUP4 ADD DUP7 PUSH2 0x2601 JUMP JUMPDEST PUSH2 0x2858 PUSH1 0xC0 DUP4 ADD DUP6 PUSH2 0x2601 JUMP JUMPDEST PUSH2 0x2865 PUSH1 0xE0 DUP4 ADD DUP5 PUSH2 0x2601 JUMP JUMPDEST SWAP10 SWAP9 POP POP POP POP POP POP POP POP POP JUMP JUMPDEST PUSH0 PUSH0 PUSH0 PUSH1 0x60 DUP5 DUP7 SUB SLT ISZERO PUSH2 0x2889 JUMPI PUSH2 0x2888 PUSH2 0x2629 JUMP JUMPDEST JUMPDEST PUSH0 PUSH2 0x2896 DUP7 DUP3 DUP8 ADD PUSH2 0x2643 JUMP JUMPDEST SWAP4 POP POP PUSH1 0x20 PUSH2 0x28A7 DUP7 DUP3 DUP8 ADD PUSH2 0x2643 JUMP JUMPDEST SWAP3 POP POP PUSH1 0x40 PUSH2 0x28B8 DUP7 DUP3 DUP8 ADD PUSH2 0x2643 JUMP JUMPDEST SWAP2 POP POP SWAP3 POP SWAP3 POP SWAP3 JUMP JUMPDEST PUSH0 PUSH0 PUSH1 0x40 DUP4 DUP6 SUB SLT ISZERO PUSH2 0x28D8 JUMPI PUSH2 0x28D7 PUSH2 0x2629 JUMP JUMPDEST JUMPDEST PUSH0 PUSH2 0x28E5 DUP6 DUP3 DUP7 ADD PUSH2 0x2643 JUMP JUMPDEST SWAP3 POP POP PUSH1 0x20 PUSH2 0x28F6 DUP6 DUP3 DUP7 ADD PUSH2 0x2643 JUMP JUMPDEST SWAP2 POP POP SWAP3 POP SWAP3 SWAP1 POP JUMP JUMPDEST PUSH0 PUSH1 0xA0 DUP3 ADD SWAP1 POP PUSH2 0x2913 PUSH0 DUP4 ADD DUP9 PUSH2 0x2601 JUMP JUMPDEST PUSH2 0x2920 PUSH1 0x20 DUP4 ADD DUP8 PUSH2 0x2601 JUMP JUMPDEST PUSH2 0x292D PUSH1 0x40 DUP4 ADD DUP7 PUSH2 0x2601 JUMP JUMPDEST PUSH2 0x293A PUSH1 0x60 DUP4 ADD DUP6 PUSH2 0x2601 JUMP JUMPDEST PUSH2 0x2947 PUSH1 0x80 DUP4 ADD DUP5 PUSH2 0x2601 JUMP JUMPDEST SWAP7 SWAP6 POP POP POP POP POP POP JUMP JUMPDEST PUSH0 PUSH1 0x20 DUP3 ADD SWAP1 POP PUSH2 0x2964 PUSH0 DUP4 ADD DUP5 PUSH2 0x274D JUMP JUMPDEST SWAP3 SWAP2 POP POP JUMP JUMPDEST PUSH2 0x2973 DUP2 PUSH2 0x273C JUMP JUMPDEST DUP2 EQ PUSH2 0x297D JUMPI PUSH0 PUSH0 REVERT JUMPDEST POP JUMP JUMPDEST PUSH0 DUP2 CALLDATALOAD SWAP1 POP PUSH2 0x298E DUP2 PUSH2 0x296A JUMP JUMPDEST SWAP3 SWAP2 POP POP JUMP JUMPDEST PUSH0 PUSH1 0x20 DUP3 DUP5 SUB SLT ISZERO PUSH2 0x29A9 JUMPI PUSH2 0x29A8 PUSH2 0x2629 JUMP JUMPDEST JUMPDEST PUSH0 PUSH2 0x29B6 DUP5 DUP3 DUP6 ADD PUSH2 0x2980 JUMP JUMPDEST SWAP2 POP POP SWAP3 SWAP2 POP POP JUMP JUMPDEST PUSH32 0x4E487B7100000000000000000000000000000000000000000000000000000000 PUSH0 MSTORE PUSH1 0x11 PUSH1 0x4 MSTORE PUSH1 0x24 PUSH0 REVERT JUMPDEST PUSH0 PUSH2 0x29F6 DUP3 PUSH2 0x25F8 JUMP JUMPDEST SWAP2 POP PUSH2 0x2A01 DUP4 PUSH2 0x25F8 JUMP JUMPDEST SWAP3 POP DUP3 DUP3 SUB SWAP1 POP DUP2 DUP2 GT ISZERO PUSH2 0x2A19 JUMPI PUSH2 0x2A18 PUSH2 0x29BF JUMP JUMPDEST JUMPDEST SWAP3 SWAP2 POP POP JUMP JUMPDEST PUSH32 0x4E487B7100000000000000000000000000000000000000000000000000000000 PUSH0 MSTORE PUSH1 0x12 PUSH1 0x4 MSTORE PUSH1 0x24 PUSH0 REVERT JUMPDEST PUSH0 PUSH2 0x2A56 DUP3 PUSH2 0x25F8 JUMP JUMPDEST SWAP2 POP PUSH2 0x2A61 DUP4 PUSH2 0x25F8 JUMP JUMPDEST SWAP3 POP DUP3 PUSH2 0x2A71 JUMPI PUSH2 0x2A70 PUSH2 0x2A1F JUMP JUMPDEST JUMPDEST DUP3 DUP3 DIV SWAP1 POP SWAP3 SWAP2 POP POP JUMP JUMPDEST PUSH0 DUP3 DUP3 MSTORE PUSH1 0x20 DUP3 ADD SWAP1 POP SWAP3 SWAP2 POP POP JUMP JUMPDEST PUSH32 0x4E6F7420796F7572206163636F756E7400000000000000000000000000000000 PUSH0 DUP3 ADD MSTORE POP JUMP JUMPDEST PUSH0 PUSH2 0x2AC0 PUSH1 0x10 DUP4 PUSH2 0x2A7C JUMP JUMPDEST SWAP2 POP PUSH2 0x2ACB DUP3 PUSH2 0x2A8C JUMP JUMPDEST PUSH1 0x20 DUP3 ADD SWAP1 POP SWAP2 SWAP1 POP JUMP JUMPDEST PUSH0 PUSH1 0x20 DUP3 ADD SWAP1 POP DUP2 DUP2 SUB PUSH0 DUP4 ADD MSTORE PUSH2 0x2AED DUP2 PUSH2 0x2AB4 JUMP JUMPDEST SWAP1 POP SWAP2 SWAP1 POP JUMP JUMPDEST PUSH32 0x416C7265616479206174206D6178206C6576656C000000000000000000000000 PUSH0 DUP3 ADD MSTORE POP JUMP JUMPDEST PUSH0 PUSH2 0x2B28 PUSH1 0x14 DUP4 PUSH2 0x2A7C JUMP JUMPDEST SWAP2 POP PUSH2 0x2B33 DUP3 PUSH2 0x2AF4 JUMP JUMPDEST PUSH1 0x20 DUP3 ADD SWAP1 POP SWAP2 SWAP1 POP JUMP JUMPDEST PUSH0 PUSH1 0x20 DUP3 ADD SWAP1 POP DUP2 DUP2 SUB PUSH0 DUP4 ADD MSTORE PUSH2 0x2B55 DUP2 PUSH2 0x2B1C JUMP JUMPDEST SWAP1 POP SWAP2 SWAP1 POP JUMP JUMPDEST PUSH32 0x4E487B7100000000000000000000000000000000000000000000000000000000 PUSH0 MSTORE PUSH1 0x32 PUSH1 0x4 MSTORE PUSH1 0x24 PUSH0 REVERT JUMPDEST PUSH0 PUSH1 0x60 DUP3 ADD SWAP1 POP PUSH2 0x2B9C PUSH0 DUP4 ADD DUP7 PUSH2 0x274D JUMP JUMPDEST PUSH2 0x2BA9 PUSH1 0x20 DUP4 ADD DUP6 PUSH2 0x274D JUMP JUMPDEST PUSH2 0x2BB6 PUSH1 0x40 DUP4 ADD DUP5 PUSH2 0x2601 JUMP JUMPDEST SWAP5 SWAP4 POP POP POP POP JUMP JUMPDEST PUSH0 DUP2 ISZERO ISZERO SWAP1 POP SWAP2 SWAP1 POP JUMP JUMPDEST PUSH2 0x2BD2 DUP2 PUSH2 0x2BBE JUMP JUMPDEST DUP2 EQ PUSH2 0x2BDC JUMPI PUSH0 PUSH0 REVERT JUMPDEST POP JUMP JUMPDEST PUSH0 DUP2 MLOAD SWAP1 POP PUSH2 0x2BED DUP2 PUSH2 0x2BC9 JUMP JUMPDEST SWAP3 SWAP2 POP POP JUMP JUMPDEST PUSH0 PUSH1 0x20 DUP3 DUP5 SUB SLT ISZERO PUSH2 0x2C08 JUMPI PUSH2 0x2C07 PUSH2 0x2629 JUMP JUMPDEST JUMPDEST PUSH0 PUSH2 0x2C15 DUP5 DUP3 DUP6 ADD PUSH2 0x2BDF JUMP JUMPDEST SWAP2 POP POP SWAP3 SWAP2 POP POP JUMP JUMPDEST PUSH0 PUSH2 0x2C28 DUP3 PUSH2 0x25F8 JUMP JUMPDEST SWAP2 POP PUSH2 0x2C33 DUP4 PUSH2 0x25F8 JUMP JUMPDEST SWAP3 POP DUP3 DUP3 ADD SWAP1 POP DUP1 DUP3 GT ISZERO PUSH2 0x2C4B JUMPI PUSH2 0x2C4A PUSH2 0x29BF JUMP JUMPDEST JUMPDEST SWAP3 SWAP2 POP POP JUMP JUMPDEST PUSH0 PUSH2 0x2C5B DUP3 PUSH2 0x25F8 JUMP JUMPDEST SWAP2 POP PUSH2 0x2C66 DUP4 PUSH2 0x25F8 JUMP JUMPDEST SWAP3 POP DUP3 DUP3 MUL PUSH2 0x2C74 DUP2 PUSH2 0x25F8 JUMP JUMPDEST SWAP2 POP DUP3 DUP3 DIV DUP5 EQ DUP4 ISZERO OR PUSH2 0x2C8B JUMPI PUSH2 0x2C8A PUSH2 0x29BF JUMP JUMPDEST JUMPDEST POP SWAP3 SWAP2 POP POP JUMP JUMPDEST PUSH32 0x55736572206E6F7420666F756E64000000000000000000000000000000000000 PUSH0 DUP3 ADD MSTORE POP JUMP JUMPDEST PUSH0 PUSH2 0x2CC6 PUSH1 0xE DUP4 PUSH2 0x2A7C JUMP JUMPDEST SWAP2 POP PUSH2 0x2CD1 DUP3 PUSH2 0x2C92 JUMP JUMPDEST PUSH1 0x20 DUP3 ADD SWAP1 POP SWAP2 SWAP1 POP JUMP JUMPDEST PUSH0 PUSH1 0x20 DUP3 ADD SWAP1 POP DUP2 DUP2 SUB PUSH0 DUP4 ADD MSTORE PUSH2 0x2CF3 DUP2 PUSH2 0x2CBA JUMP JUMPDEST SWAP1 POP SWAP2 SWAP1 POP JUMP JUMPDEST PUSH0 PUSH1 0x40 DUP3 ADD SWAP1 POP PUSH2 0x2D0D PUSH0 DUP4 ADD DUP6 PUSH2 0x274D JUMP JUMPDEST PUSH2 0x2D1A PUSH1 0x20 DUP4 ADD DUP5 PUSH2 0x2601 JUMP JUMPDEST SWAP4 SWAP3 POP POP POP JUMP JUMPDEST PUSH32 0x55534454207472616E73666572206661696C6564000000000000000000000000 PUSH0 DUP3 ADD MSTORE POP JUMP JUMPDEST PUSH0 PUSH2 0x2D55 PUSH1 0x14 DUP4 PUSH2 0x2A7C JUMP JUMPDEST SWAP2 POP PUSH2 0x2D60 DUP3 PUSH2 0x2D21 JUMP JUMPDEST PUSH1 0x20 DUP3 ADD SWAP1 POP SWAP2 SWAP1 POP JUMP JUMPDEST PUSH0 PUSH1 0x20 DUP3 ADD SWAP1 POP DUP2 DUP2 SUB PUSH0 DUP4 ADD MSTORE PUSH2 0x2D82 DUP2 PUSH2 0x2D49 JUMP JUMPDEST SWAP1 POP SWAP2 SWAP1 POP JUMP JUMPDEST PUSH32 0x416C726561647920726567697374657265640000000000000000000000000000 PUSH0 DUP3 ADD MSTORE POP JUMP JUMPDEST PUSH0 PUSH2 0x2DBD PUSH1 0x12 DUP4 PUSH2 0x2A7C JUMP JUMPDEST SWAP2 POP PUSH2 0x2DC8 DUP3 PUSH2 0x2D89 JUMP JUMPDEST PUSH1 0x20 DUP3 ADD SWAP1 POP SWAP2 SWAP1 POP JUMP JUMPDEST PUSH0 PUSH1 0x20 DUP3 ADD SWAP1 POP DUP2 DUP2 SUB PUSH0 DUP4 ADD MSTORE PUSH2 0x2DEA DUP2 PUSH2 0x2DB1 JUMP JUMPDEST SWAP1 POP SWAP2 SWAP1 POP JUMP JUMPDEST PUSH32 0x496E76616C69642073706F6E736F720000000000000000000000000000000000 PUSH0 DUP3 ADD MSTORE POP JUMP JUMPDEST PUSH0 PUSH2 0x2E25 PUSH1 0xF DUP4 PUSH2 0x2A7C JUMP JUMPDEST SWAP2 POP PUSH2 0x2E30 DUP3 PUSH2 0x2DF1 JUMP JUMPDEST PUSH1 0x20 DUP3 ADD SWAP1 POP SWAP2 SWAP1 POP JUMP JUMPDEST PUSH0 PUSH1 0x20 DUP3 ADD SWAP1 POP DUP2 DUP2 SUB PUSH0 DUP4 ADD MSTORE PUSH2 0x2E52 DUP2 PUSH2 0x2E19 JUMP JUMPDEST SWAP1 POP SWAP2 SWAP1 POP JUMP JUMPDEST PUSH32 0x666565206164647273206E6F7420736574000000000000000000000000000000 PUSH0 DUP3 ADD MSTORE POP JUMP JUMPDEST PUSH0 PUSH2 0x2E8D PUSH1 0x11 DUP4 PUSH2 0x2A7C JUMP JUMPDEST SWAP2 POP PUSH2 0x2E98 DUP3 PUSH2 0x2E59 JUMP JUMPDEST PUSH1 0x20 DUP3 ADD SWAP1 POP SWAP2 SWAP1 POP JUMP JUMPDEST PUSH0 PUSH1 0x20 DUP3 ADD SWAP1 POP DUP2 DUP2 SUB PUSH0 DUP4 ADD MSTORE PUSH2 0x2EBA DUP2 PUSH2 0x2E81 JUMP JUMPDEST SWAP1 POP SWAP2 SWAP1 POP JUMP JUMPDEST PUSH0 DUP2 SWAP1 POP SWAP2 SWAP1 POP JUMP JUMPDEST PUSH0 PUSH2 0x2EE4 PUSH2 0x2EDF PUSH2 0x2EDA DUP5 PUSH2 0x2EC1 JUMP JUMPDEST PUSH2 0x26C8 JUMP JUMPDEST PUSH2 0x25F8 JUMP JUMPDEST SWAP1 POP SWAP2 SWAP1 POP JUMP JUMPDEST PUSH2 0x2EF4 DUP2 PUSH2 0x2ECA JUMP JUMPDEST DUP3 MSTORE POP POP JUMP JUMPDEST PUSH0 PUSH1 0x60 DUP3 ADD SWAP1 POP PUSH2 0x2F0D PUSH0 DUP4 ADD DUP7 PUSH2 0x2601 JUMP JUMPDEST PUSH2 0x2F1A PUSH1 0x20 DUP4 ADD DUP6 PUSH2 0x2601 JUMP JUMPDEST PUSH2 0x2F27 PUSH1 0x40 DUP4 ADD DUP5 PUSH2 0x2EEB JUMP JUMPDEST SWAP5 SWAP4 POP POP POP POP JUMP JUMPDEST PUSH0 PUSH2 0x2F39 DUP3 PUSH2 0x25F8 JUMP JUMPDEST SWAP2 POP PUSH32 0xFFFFFFFFFFFFFFFFFFFFFFFFFFFFFFFFFFFFFFFFFFFFFFFFFFFFFFFFFFFFFFFF DUP3 SUB PUSH2 0x2F6B JUMPI PUSH2 0x2F6A PUSH2 0x29BF JUMP JUMPDEST JUMPDEST PUSH1 0x1 DUP3 ADD SWAP1 POP SWAP2 SWAP1 POP JUMP JUMPDEST PUSH0 DUP2 SWAP1 POP SWAP2 SWAP1 POP JUMP JUMPDEST PUSH0 PUSH2 0x2F99 PUSH2 0x2F94 PUSH2 0x2F8F DUP5 PUSH2 0x2F76 JUMP JUMPDEST PUSH2 0x26C8 JUMP JUMPDEST PUSH2 0x25F8 JUMP JUMPDEST SWAP1 POP SWAP2 SWAP1 POP JUMP JUMPDEST PUSH2 0x2FA9 DUP2 PUSH2 0x2F7F JUMP JUMPDEST DUP3 MSTORE POP POP JUMP JUMPDEST PUSH0 PUSH1 0x60 DUP3 ADD SWAP1 POP PUSH2 0x2FC2 PUSH0 DUP4 ADD DUP7 PUSH2 0x2601 JUMP JUMPDEST PUSH2 0x2FCF PUSH1 0x20 DUP4 ADD DUP6 PUSH2 0x2601 JUMP JUMPDEST PUSH2 0x2FDC PUSH1 0x40 DUP4 ADD DUP5 PUSH2 0x2FA0 JUMP JUMPDEST SWAP5 SWAP4 POP POP POP POP JUMP JUMPDEST PUSH0 DUP2 PUSH1 0x1 SHR SWAP1 POP SWAP2 SWAP1 POP JUMP JUMPDEST PUSH0 PUSH0 DUP3 SWAP2 POP DUP4 SWAP1 POP JUMPDEST PUSH1 0x1 DUP6 GT ISZERO PUSH2 0x3039 JUMPI DUP1 DUP7 DIV DUP2 GT ISZERO PUSH2 0x3015 JUMPI PUSH2 0x3014 PUSH2 0x29BF JUMP JUMPDEST JUMPDEST PUSH1 0x1 DUP6 AND ISZERO PUSH2 0x3024 JUMPI DUP1 DUP3 MUL SWAP2 POP JUMPDEST DUP1 DUP2 MUL SWAP1 POP PUSH2 0x3032 DUP6 PUSH2 0x2FE4 JUMP JUMPDEST SWAP5 POP PUSH2 0x2FF9 JUMP JUMPDEST SWAP5 POP SWAP5 SWAP3 POP POP POP JUMP JUMPDEST PUSH0 DUP3 PUSH2 0x3051 JUMPI PUSH1 0x1 SWAP1 POP PUSH2 0x310C JUMP JUMPDEST DUP2 PUSH2 0x305E JUMPI PUSH0 SWAP1 POP PUSH2 0x310C JUMP JUMPDEST DUP2 PUSH1 0x1 DUP2 EQ PUSH2 0x3074 JUMPI PUSH1 0x2 DUP2 EQ PUSH2 0x307E JUMPI PUSH2 0x30AD JUMP JUMPDEST PUSH1 0x1 SWAP2 POP POP PUSH2 0x310C JUMP JUMPDEST PUSH1 0xFF DUP5 GT ISZERO PUSH2 0x3090 JUMPI PUSH2 0x308F PUSH2 0x29BF JUMP JUMPDEST JUMPDEST DUP4 PUSH1 0x2 EXP SWAP2 POP DUP5 DUP3 GT ISZERO PUSH2 0x30A7 JUMPI PUSH2 0x30A6 PUSH2 0x29BF JUMP JUMPDEST JUMPDEST POP PUSH2 0x310C JUMP JUMPDEST POP PUSH1 0x20 DUP4 LT PUSH2 0x133 DUP4 LT AND PUSH1 0x4E DUP5 LT PUSH1 0xB DUP5 LT AND OR ISZERO PUSH2 0x30E2 JUMPI DUP3 DUP3 EXP SWAP1 POP DUP4 DUP2 GT ISZERO PUSH2 0x30DD JUMPI PUSH2 0x30DC PUSH2 0x29BF JUMP JUMPDEST JUMPDEST PUSH2 0x310C JUMP JUMPDEST PUSH2 0x30EF DUP5 DUP5 DUP5 PUSH1 0x1 PUSH2 0x2FF0 JUMP JUMPDEST SWAP3 POP SWAP1 POP DUP2 DUP5 DIV DUP2 GT ISZERO PUSH2 0x3106 JUMPI PUSH2 0x3105 PUSH2 0x29BF JUMP JUMPDEST JUMPDEST DUP2 DUP2 MUL SWAP1 POP JUMPDEST SWAP4 SWAP3 POP POP POP JUMP JUMPDEST PUSH0 PUSH2 0x311D DUP3 PUSH2 0x25F8 JUMP JUMPDEST SWAP2 POP PUSH2 0x3128 DUP4 PUSH2 0x25F8 JUMP JUMPDEST SWAP3 POP PUSH2 0x3155 PUSH32 0xFFFFFFFFFFFFFFFFFFFFFFFFFFFFFFFFFFFFFFFFFFFFFFFFFFFFFFFFFFFFFFFF DUP5 DUP5 PUSH2 0x3042 JUMP JUMPDEST SWAP1 POP SWAP3 SWAP2 POP POP JUMP JUMPDEST PUSH0 DUP2 SWAP1 POP SWAP2 SWAP1 POP JUMP JUMPDEST PUSH0 PUSH2 0x3180 PUSH2 0x317B PUSH2 0x3176 DUP5 PUSH2 0x315D JUMP JUMPDEST PUSH2 0x26C8 JUMP JUMPDEST PUSH2 0x25F8 JUMP JUMPDEST SWAP1 POP SWAP2 SWAP1 POP JUMP JUMPDEST PUSH2 0x3190 DUP2 PUSH2 0x3166 JUMP JUMPDEST DUP3 MSTORE POP POP JUMP JUMPDEST PUSH0 PUSH1 0x60 DUP3 ADD SWAP1 POP PUSH2 0x31A9 PUSH0 DUP4 ADD DUP7 PUSH2 0x2601 JUMP JUMPDEST PUSH2 0x31B6 PUSH1 0x20 DUP4 ADD DUP6 PUSH2 0x2601 JUMP JUMPDEST PUSH2 0x31C3 PUSH1 0x40 DUP4 ADD DUP5 PUSH2 0x3187 JUMP JUMPDEST SWAP5 SWAP4 POP POP POP POP JUMP INVALID LOG2 PUSH5 0x6970667358 0x22 SLT KECCAK256 0xB6 0xC5 0x2A BLOCKHASH JUMP SLT 0xC0 GASLIMIT PUSH30 0x7323F3900FDDA4FA6093657C8F1DACF142F30F6CB2844764736F6C634300 ADDMOD 0x1E STOP CALLER "
		},
		"gasEstimates": {
			"creation": {
				"codeDepositCost": "2560200",
				"executionCost": "infinite",
				"totalCost": "infinite"
			},
			"external": {
				"ACC_PRECISION()": "371",
				"PERCENTS_DIVIDER()": "394",
				"ROI_CAP_DIVIDER()": "436",
				"ROI_CAP_MULTIPLIER()": "415",
				"TIME_STEP()": "437",
				"addressToId(address)": "2891",
				"claimCommunity(uint256)": "infinite",
				"communityAccPerUser()": "2537",
				"communityDebt(uint256)": "infinite",
				"creatorWallet()": "2553",
				"defaultRefId()": "2491",
				"directReferrals(uint256,uint256)": "infinite",
				"incomeHistory(uint256,uint256)": "infinite",
				"lastLotteryRun()": "2472",
				"lastLotteryWinner()": "2575",
				"lotteryInterval()": "2514",
				"lotteryPool()": "2493",
				"matrixDirect(uint256)": "infinite",
				"owner()": "2619",
				"packages(uint256)": "infinite",
				"pendingCommunity(uint256)": "infinite",
				"register(uint256)": "infinite",
				"registeredUserIds(uint256)": "infinite",
				"systemMaintance()": "2552",
				"teamDevelopment()": "2618",
				"teams(uint256,uint256,uint256)": "infinite",
				"totalUsers()": "2470",
				"upgrade(uint256)": "infinite",
				"usdt()": "infinite",
				"userIncomes(uint256)": "infinite",
				"users(uint256)": "infinite"
			},
			"internal": {
				"_accrueCommunityBonus(uint256)": "infinite",
				"_applyGlobalCapping(uint256,uint256)": "infinite",
				"_distributeLevelBoosterIncome(uint256,uint256,uint256,uint256,uint256)": "infinite",
				"_distributeLevelIncome(uint256,uint256,uint256,uint256,uint256)": "infinite",
				"_distributeMatrixIncome(uint256,uint256,uint256,uint256)": "infinite",
				"_distributeSponsorIncome(uint256,uint256,uint256,uint256)": "infinite",
				"_findEligibleSponsor(uint256,uint256)": "infinite",
				"_payLevelBooster(uint256,uint256,uint256,uint256)": "infinite",
				"_placeInMatrix(uint256,uint256)": "infinite",
				"_sendToCreator(uint256)": "infinite"
			}
		},
		"methodIdentifiers": {
			"ACC_PRECISION()": "32fcd966",
			"PERCENTS_DIVIDER()": "01c234a8",
			"ROI_CAP_DIVIDER()": "58c7d352",
			"ROI_CAP_MULTIPLIER()": "375b43b4",
			"TIME_STEP()": "32bc298c",
			"addressToId(address)": "cb0e0d7d",
			"claimCommunity(uint256)": "d54d6ddb",
			"communityAccPerUser()": "78f6ad6d",
			"communityDebt(uint256)": "18ab487f",
			"creatorWallet()": "7cdc65f2",
			"defaultRefId()": "ec597e6f",
			"directReferrals(uint256,uint256)": "5ec64a44",
			"incomeHistory(uint256,uint256)": "70c8d770",
			"lastLotteryRun()": "01be02b2",
			"lastLotteryWinner()": "81a0b816",
			"lotteryInterval()": "52a8c4c4",
			"lotteryPool()": "2c831633",
			"matrixDirect(uint256)": "88afbe3e",
			"owner()": "8da5cb5b",
			"packages(uint256)": "c216212a",
			"pendingCommunity(uint256)": "24513088",
			"register(uint256)": "f207564e",
			"registeredUserIds(uint256)": "39ab3603",
			"systemMaintance()": "e9e34a16",
			"teamDevelopment()": "f5d74d93",
			"teams(uint256,uint256,uint256)": "5aabf7f1",
			"totalUsers()": "bff1f9e1",
			"upgrade(uint256)": "45977d03",
			"usdt()": "2f48ab7d",
			"userIncomes(uint256)": "46b9dece",
			"users(uint256)": "365b98b2"
		}
	},
	"abi": [
		{
			"inputs": [
				{
					"internalType": "address",
					"name": "_usdt",
					"type": "address"
				},
				{
					"internalType": "address",
					"name": "_creatorWallet",
					"type": "address"
				},
				{
					"internalType": "address",
					"name": "_systemMaintance",
					"type": "address"
				},
				{
					"internalType": "address",
					"name": "_teamDevelopment",
					"type": "address"
				}
			],
			"stateMutability": "nonpayable",
			"type": "constructor"
		},
		{
			"anonymous": false,
			"inputs": [
				{
					"indexed": false,
					"internalType": "uint256",
					"name": "amount",
					"type": "uint256"
				},
				{
					"indexed": false,
					"internalType": "uint256",
					"name": "usersCount",
					"type": "uint256"
				},
				{
					"indexed": false,
					"internalType": "uint256",
					"name": "perUser",
					"type": "uint256"
				}
			],
			"name": "CommunityBonusDistributed",
			"type": "event"
		},
		{
			"anonymous": false,
			"inputs": [
				{
					"indexed": true,
					"internalType": "address",
					"name": "to",
					"type": "address"
				},
				{
					"indexed": true,
					"internalType": "address",
					"name": "from",
					"type": "address"
				},
				{
					"indexed": false,
					"internalType": "uint256",
					"name": "amount",
					"type": "uint256"
				},
				{
					"indexed": false,
					"internalType": "uint256",
					"name": "packageLevel",
					"type": "uint256"
				},
				{
					"indexed": false,
					"internalType": "uint256",
					"name": "incomeType",
					"type": "uint256"
				}
			],
			"name": "IncomeDistributed",
			"type": "event"
		},
		{
			"anonymous": false,
			"inputs": [
				{
					"indexed": true,
					"internalType": "address",
					"name": "winner",
					"type": "address"
				},
				{
					"indexed": true,
					"internalType": "uint256",
					"name": "fromUserId",
					"type": "uint256"
				},
				{
					"indexed": false,
					"internalType": "uint256",
					"name": "amount",
					"type": "uint256"
				},
				{
					"indexed": false,
					"internalType": "uint256",
					"name": "timestamp",
					"type": "uint256"
				}
			],
			"name": "LotteryReward",
			"type": "event"
		},
		{
			"anonymous": false,
			"inputs": [
				{
					"indexed": true,
					"internalType": "address",
					"name": "user",
					"type": "address"
				},
				{
					"indexed": true,
					"internalType": "address",
					"name": "sponsor",
					"type": "address"
				},
				{
					"indexed": true,
					"internalType": "uint256",
					"name": "userId",
					"type": "uint256"
				},
				{
					"indexed": false,
					"internalType": "uint256",
					"name": "uplineId",
					"type": "uint256"
				}
			],
			"name": "Registration",
			"type": "event"
		},
		{
			"anonymous": false,
			"inputs": [
				{
					"indexed": true,
					"internalType": "address",
					"name": "user",
					"type": "address"
				},
				{
					"indexed": true,
					"internalType": "uint256",
					"name": "userId",
					"type": "uint256"
				},
				{
					"indexed": false,
					"internalType": "uint256",
					"name": "packageLevel",
					"type": "uint256"
				}
			],
			"name": "Upgrade",
			"type": "event"
		},
		{
			"inputs": [],
			"name": "ACC_PRECISION",
			"outputs": [
				{
					"internalType": "uint256",
					"name": "",
					"type": "uint256"
				}
			],
			"stateMutability": "view",
			"type": "function"
		},
		{
			"inputs": [],
			"name": "PERCENTS_DIVIDER",
			"outputs": [
				{
					"internalType": "uint256",
					"name": "",
					"type": "uint256"
				}
			],
			"stateMutability": "view",
			"type": "function"
		},
		{
			"inputs": [],
			"name": "ROI_CAP_DIVIDER",
			"outputs": [
				{
					"internalType": "uint256",
					"name": "",
					"type": "uint256"
				}
			],
			"stateMutability": "view",
			"type": "function"
		},
		{
			"inputs": [],
			"name": "ROI_CAP_MULTIPLIER",
			"outputs": [
				{
					"internalType": "uint256",
					"name": "",
					"type": "uint256"
				}
			],
			"stateMutability": "view",
			"type": "function"
		},
		{
			"inputs": [],
			"name": "TIME_STEP",
			"outputs": [
				{
					"internalType": "uint256",
					"name": "",
					"type": "uint256"
				}
			],
			"stateMutability": "view",
			"type": "function"
		},
		{
			"inputs": [
				{
					"internalType": "address",
					"name": "",
					"type": "address"
				}
			],
			"name": "addressToId",
			"outputs": [
				{
					"internalType": "uint256",
					"name": "",
					"type": "uint256"
				}
			],
			"stateMutability": "view",
			"type": "function"
		},
		{
			"inputs": [
				{
					"internalType": "uint256",
					"name": "_userId",
					"type": "uint256"
				}
			],
			"name": "claimCommunity",
			"outputs": [],
			"stateMutability": "nonpayable",
			"type": "function"
		},
		{
			"inputs": [],
			"name": "communityAccPerUser",
			"outputs": [
				{
					"internalType": "uint256",
					"name": "",
					"type": "uint256"
				}
			],
			"stateMutability": "view",
			"type": "function"
		},
		{
			"inputs": [
				{
					"internalType": "uint256",
					"name": "",
					"type": "uint256"
				}
			],
			"name": "communityDebt",
			"outputs": [
				{
					"internalType": "uint256",
					"name": "",
					"type": "uint256"
				}
			],
			"stateMutability": "view",
			"type": "function"
		},
		{
			"inputs": [],
			"name": "creatorWallet",
			"outputs": [
				{
					"internalType": "address",
					"name": "",
					"type": "address"
				}
			],
			"stateMutability": "view",
			"type": "function"
		},
		{
			"inputs": [],
			"name": "defaultRefId",
			"outputs": [
				{
					"internalType": "uint256",
					"name": "",
					"type": "uint256"
				}
			],
			"stateMutability": "view",
			"type": "function"
		},
		{
			"inputs": [
				{
					"internalType": "uint256",
					"name": "",
					"type": "uint256"
				},
				{
					"internalType": "uint256",
					"name": "",
					"type": "uint256"
				}
			],
			"name": "directReferrals",
			"outputs": [
				{
					"internalType": "uint256",
					"name": "",
					"type": "uint256"
				}
			],
			"stateMutability": "view",
			"type": "function"
		},
		{
			"inputs": [
				{
					"internalType": "uint256",
					"name": "",
					"type": "uint256"
				},
				{
					"internalType": "uint256",
					"name": "",
					"type": "uint256"
				}
			],
			"name": "incomeHistory",
			"outputs": [
				{
					"internalType": "uint256",
					"name": "fromUserId",
					"type": "uint256"
				},
				{
					"internalType": "uint256",
					"name": "amount",
					"type": "uint256"
				},
				{
					"internalType": "uint256",
					"name": "packageLevel",
					"type": "uint256"
				},
				{
					"internalType": "uint256",
					"name": "timestamp",
					"type": "uint256"
				},
				{
					"internalType": "uint256",
					"name": "incomeType",
					"type": "uint256"
				}
			],
			"stateMutability": "view",
			"type": "function"
		},
		{
			"inputs": [],
			"name": "lastLotteryRun",
			"outputs": [
				{
					"internalType": "uint256",
					"name": "",
					"type": "uint256"
				}
			],
			"stateMutability": "view",
			"type": "function"
		},
		{
			"inputs": [],
			"name": "lastLotteryWinner",
			"outputs": [
				{
					"internalType": "address",
					"name": "",
					"type": "address"
				}
			],
			"stateMutability": "view",
			"type": "function"
		},
		{
			"inputs": [],
			"name": "lotteryInterval",
			"outputs": [
				{
					"internalType": "uint256",
					"name": "",
					"type": "uint256"
				}
			],
			"stateMutability": "view",
			"type": "function"
		},
		{
			"inputs": [],
			"name": "lotteryPool",
			"outputs": [
				{
					"internalType": "uint256",
					"name": "",
					"type": "uint256"
				}
			],
			"stateMutability": "view",
			"type": "function"
		},
		{
			"inputs": [
				{
					"internalType": "uint256",
					"name": "",
					"type": "uint256"
				}
			],
			"name": "matrixDirect",
			"outputs": [
				{
					"internalType": "uint256",
					"name": "",
					"type": "uint256"
				}
			],
			"stateMutability": "view",
			"type": "function"
		},
		{
			"inputs": [],
			"name": "owner",
			"outputs": [
				{
					"internalType": "address",
					"name": "",
					"type": "address"
				}
			],
			"stateMutability": "view",
			"type": "function"
		},
		{
			"inputs": [
				{
					"internalType": "uint256",
					"name": "",
					"type": "uint256"
				}
			],
			"name": "packages",
			"outputs": [
				{
					"internalType": "uint256",
					"name": "",
					"type": "uint256"
				}
			],
			"stateMutability": "view",
			"type": "function"
		},
		{
			"inputs": [
				{
					"internalType": "uint256",
					"name": "_userId",
					"type": "uint256"
				}
			],
			"name": "pendingCommunity",
			"outputs": [
				{
					"internalType": "uint256",
					"name": "pendingGross",
					"type": "uint256"
				},
				{
					"internalType": "uint256",
					"name": "pendingAfterCap",
					"type": "uint256"
				}
			],
			"stateMutability": "view",
			"type": "function"
		},
		{
			"inputs": [
				{
					"internalType": "uint256",
					"name": "_sponsorId",
					"type": "uint256"
				}
			],
			"name": "register",
			"outputs": [],
			"stateMutability": "nonpayable",
			"type": "function"
		},
		{
			"inputs": [
				{
					"internalType": "uint256",
					"name": "",
					"type": "uint256"
				}
			],
			"name": "registeredUserIds",
			"outputs": [
				{
					"internalType": "uint256",
					"name": "",
					"type": "uint256"
				}
			],
			"stateMutability": "view",
			"type": "function"
		},
		{
			"inputs": [],
			"name": "systemMaintance",
			"outputs": [
				{
					"internalType": "address",
					"name": "",
					"type": "address"
				}
			],
			"stateMutability": "view",
			"type": "function"
		},
		{
			"inputs": [],
			"name": "teamDevelopment",
			"outputs": [
				{
					"internalType": "address",
					"name": "",
					"type": "address"
				}
			],
			"stateMutability": "view",
			"type": "function"
		},
		{
			"inputs": [
				{
					"internalType": "uint256",
					"name": "",
					"type": "uint256"
				},
				{
					"internalType": "uint256",
					"name": "",
					"type": "uint256"
				},
				{
					"internalType": "uint256",
					"name": "",
					"type": "uint256"
				}
			],
			"name": "teams",
			"outputs": [
				{
					"internalType": "uint256",
					"name": "",
					"type": "uint256"
				}
			],
			"stateMutability": "view",
			"type": "function"
		},
		{
			"inputs": [],
			"name": "totalUsers",
			"outputs": [
				{
					"internalType": "uint256",
					"name": "",
					"type": "uint256"
				}
			],
			"stateMutability": "view",
			"type": "function"
		},
		{
			"inputs": [
				{
					"internalType": "uint256",
					"name": "_userId",
					"type": "uint256"
				}
			],
			"name": "upgrade",
			"outputs": [],
			"stateMutability": "nonpayable",
			"type": "function"
		},
		{
			"inputs": [],
			"name": "usdt",
			"outputs": [
				{
					"internalType": "contract IERC20",
					"name": "",
					"type": "address"
				}
			],
			"stateMutability": "view",
			"type": "function"
		},
		{
			"inputs": [
				{
					"internalType": "uint256",
					"name": "",
					"type": "uint256"
				}
			],
			"name": "userIncomes",
			"outputs": [
				{
					"internalType": "uint256",
					"name": "totalIncome",
					"type": "uint256"
				},
				{
					"internalType": "uint256",
					"name": "sponsorIncome",
					"type": "uint256"
				},
				{
					"internalType": "uint256",
					"name": "matrixIncome",
					"type": "uint256"
				},
				{
					"internalType": "uint256",
					"name": "levelBoosterIncome",
					"type": "uint256"
				},
				{
					"internalType": "uint256",
					"name": "levelIncome",
					"type": "uint256"
				},
				{
					"internalType": "uint256",
					"name": "royaltyIncome",
					"type": "uint256"
				},
				{
					"internalType": "uint256",
					"name": "royaltyIncomeClaimed",
					"type": "uint256"
				},
				{
					"internalType": "uint256",
					"name": "communityIncome",
					"type": "uint256"
				}
			],
			"stateMutability": "view",
			"type": "function"
		},
		{
			"inputs": [
				{
					"internalType": "uint256",
					"name": "",
					"type": "uint256"
				}
			],
			"name": "users",
			"outputs": [
				{
					"internalType": "address",
					"name": "account",
					"type": "address"
				},
				{
					"internalType": "uint256",
					"name": "checkpoint",
					"type": "uint256"
				},
				{
					"internalType": "uint256",
					"name": "id",
					"type": "uint256"
				},
				{
					"internalType": "uint256",
					"name": "sponsorId",
					"type": "uint256"
				},
				{
					"internalType": "uint256",
					"name": "uplineId",
					"type": "uint256"
				},
				{
					"internalType": "uint256",
					"name": "level",
					"type": "uint256"
				},
				{
					"internalType": "uint256",
					"name": "directTeam",
					"type": "uint256"
				},
				{
					"internalType": "uint256",
					"name": "totalMatrixTeam",
					"type": "uint256"
				},
				{
					"internalType": "uint256",
					"name": "totalDeposit",
					"type": "uint256"
				},
				{
					"internalType": "uint256",
					"name": "registrationTime",
					"type": "uint256"
				}
			],
			"stateMutability": "view",
			"type": "function"
		}
	]
}